{
  "address": "0x3BED21dAe767e4Df894B31b14aD32369cE4bad8b",
  "abi": [
    {
      "inputs": [
        {
          "internalType": "address",
          "name": "_l2GatewayRouter",
          "type": "address"
        },
        {
          "internalType": "address",
          "name": "_crossDomainAdmin",
          "type": "address"
        },
        {
          "internalType": "address",
          "name": "_hubPool",
          "type": "address"
        },
        {
          "internalType": "address",
          "name": "_wethAddress",
          "type": "address"
        },
        {
          "internalType": "address",
          "name": "timerAddress",
          "type": "address"
        }
      ],
      "stateMutability": "nonpayable",
      "type": "constructor"
    },
    {
      "anonymous": false,
      "inputs": [
        {
          "indexed": true,
          "internalType": "address",
          "name": "l1Token",
          "type": "address"
        },
        {
          "indexed": false,
          "internalType": "address",
          "name": "target",
          "type": "address"
        },
        {
          "indexed": false,
          "internalType": "uint256",
          "name": "numberOfTokensBridged",
          "type": "uint256"
        }
      ],
      "name": "ArbitrumTokensBridged",
      "type": "event"
    },
    {
      "anonymous": false,
      "inputs": [
        {
          "indexed": true,
          "internalType": "uint256",
          "name": "rootBundleId",
          "type": "uint256"
        }
      ],
      "name": "EmergencyDeleteRootBundle",
      "type": "event"
    },
    {
      "anonymous": false,
      "inputs": [
        {
          "indexed": true,
          "internalType": "address",
          "name": "originToken",
          "type": "address"
        },
        {
          "indexed": true,
          "internalType": "uint256",
          "name": "destinationChainId",
          "type": "uint256"
        },
        {
          "indexed": false,
          "internalType": "bool",
          "name": "enabled",
          "type": "bool"
        }
      ],
      "name": "EnabledDepositRoute",
      "type": "event"
    },
    {
      "anonymous": false,
      "inputs": [
        {
          "indexed": false,
          "internalType": "uint256",
          "name": "amountToReturn",
          "type": "uint256"
        },
        {
          "indexed": true,
          "internalType": "uint256",
          "name": "chainId",
          "type": "uint256"
        },
        {
          "indexed": false,
          "internalType": "uint256[]",
          "name": "refundAmounts",
          "type": "uint256[]"
        },
        {
          "indexed": true,
          "internalType": "uint32",
          "name": "rootBundleId",
          "type": "uint32"
        },
        {
          "indexed": true,
          "internalType": "uint32",
          "name": "leafId",
          "type": "uint32"
        },
        {
          "indexed": false,
          "internalType": "address",
          "name": "l2TokenAddress",
          "type": "address"
        },
        {
          "indexed": false,
          "internalType": "address[]",
          "name": "refundAddresses",
          "type": "address[]"
        },
        {
          "indexed": false,
          "internalType": "address",
          "name": "caller",
          "type": "address"
        }
      ],
      "name": "ExecutedRelayerRefundRoot",
      "type": "event"
    },
    {
      "anonymous": false,
      "inputs": [
        {
          "indexed": true,
          "internalType": "bytes32",
          "name": "relayHash",
          "type": "bytes32"
        },
        {
          "indexed": false,
          "internalType": "uint256",
          "name": "amount",
          "type": "uint256"
        },
        {
          "indexed": false,
          "internalType": "uint256",
          "name": "totalFilledAmount",
          "type": "uint256"
        },
        {
          "indexed": false,
          "internalType": "uint256",
          "name": "fillAmount",
          "type": "uint256"
        },
        {
          "indexed": false,
          "internalType": "uint256",
          "name": "repaymentChainId",
          "type": "uint256"
        },
        {
          "indexed": false,
          "internalType": "uint256",
          "name": "originChainId",
          "type": "uint256"
        },
        {
          "indexed": false,
          "internalType": "uint256",
          "name": "destinationChainId",
          "type": "uint256"
        },
        {
          "indexed": false,
          "internalType": "uint64",
          "name": "relayerFeePct",
          "type": "uint64"
        },
        {
          "indexed": false,
          "internalType": "uint64",
          "name": "realizedLpFeePct",
          "type": "uint64"
        },
        {
          "indexed": false,
          "internalType": "uint32",
          "name": "depositId",
          "type": "uint32"
        },
        {
          "indexed": false,
          "internalType": "address",
          "name": "destinationToken",
          "type": "address"
        },
        {
          "indexed": true,
          "internalType": "address",
          "name": "relayer",
          "type": "address"
        },
        {
          "indexed": true,
          "internalType": "address",
          "name": "depositor",
          "type": "address"
        },
        {
          "indexed": false,
          "internalType": "address",
          "name": "recipient",
          "type": "address"
        },
        {
          "indexed": false,
          "internalType": "bool",
          "name": "isSlowRelay",
          "type": "bool"
        }
      ],
      "name": "FilledRelay",
      "type": "event"
    },
    {
      "anonymous": false,
      "inputs": [
        {
          "indexed": false,
          "internalType": "uint256",
          "name": "amount",
          "type": "uint256"
        },
        {
          "indexed": false,
          "internalType": "uint256",
          "name": "originChainId",
          "type": "uint256"
        },
        {
          "indexed": false,
          "internalType": "uint256",
          "name": "destinationChainId",
          "type": "uint256"
        },
        {
          "indexed": false,
          "internalType": "uint64",
          "name": "relayerFeePct",
          "type": "uint64"
        },
        {
          "indexed": true,
          "internalType": "uint32",
          "name": "depositId",
          "type": "uint32"
        },
        {
          "indexed": false,
          "internalType": "uint32",
          "name": "quoteTimestamp",
          "type": "uint32"
        },
        {
          "indexed": true,
          "internalType": "address",
          "name": "originToken",
          "type": "address"
        },
        {
          "indexed": false,
          "internalType": "address",
          "name": "recipient",
          "type": "address"
        },
        {
          "indexed": true,
          "internalType": "address",
          "name": "depositor",
          "type": "address"
        }
      ],
      "name": "FundsDeposited",
      "type": "event"
    },
    {
      "anonymous": false,
      "inputs": [
        {
          "indexed": true,
          "internalType": "uint32",
          "name": "rootBundleId",
          "type": "uint32"
        },
        {
          "indexed": false,
          "internalType": "bytes32",
          "name": "relayerRefundRoot",
          "type": "bytes32"
        },
        {
          "indexed": false,
          "internalType": "bytes32",
          "name": "slowRelayRoot",
          "type": "bytes32"
        }
      ],
      "name": "RelayedRootBundle",
      "type": "event"
    },
    {
      "anonymous": false,
      "inputs": [
        {
          "indexed": false,
          "internalType": "uint64",
          "name": "newRelayerFeePct",
          "type": "uint64"
        },
        {
          "indexed": true,
          "internalType": "uint32",
          "name": "depositId",
          "type": "uint32"
        },
        {
          "indexed": true,
          "internalType": "address",
          "name": "depositor",
          "type": "address"
        },
        {
          "indexed": false,
          "internalType": "bytes",
          "name": "depositorSignature",
          "type": "bytes"
        }
      ],
      "name": "RequestedSpeedUpDeposit",
      "type": "event"
    },
    {
      "anonymous": false,
      "inputs": [
        {
          "indexed": false,
          "internalType": "uint32",
          "name": "newBuffer",
          "type": "uint32"
        }
      ],
      "name": "SetDepositQuoteTimeBuffer",
      "type": "event"
    },
    {
      "anonymous": false,
      "inputs": [
        {
          "indexed": true,
          "internalType": "address",
          "name": "newHubPool",
          "type": "address"
        }
      ],
      "name": "SetHubPool",
      "type": "event"
    },
    {
      "anonymous": false,
      "inputs": [
        {
          "indexed": true,
          "internalType": "address",
          "name": "newL2GatewayRouter",
          "type": "address"
        }
      ],
      "name": "SetL2GatewayRouter",
      "type": "event"
    },
    {
      "anonymous": false,
      "inputs": [
        {
          "indexed": true,
          "internalType": "address",
          "name": "newAdmin",
          "type": "address"
        }
      ],
      "name": "SetXDomainAdmin",
      "type": "event"
    },
    {
      "anonymous": false,
      "inputs": [
        {
          "indexed": false,
          "internalType": "uint256",
          "name": "amountToReturn",
          "type": "uint256"
        },
        {
          "indexed": true,
          "internalType": "uint256",
          "name": "chainId",
          "type": "uint256"
        },
        {
          "indexed": true,
          "internalType": "uint32",
          "name": "leafId",
          "type": "uint32"
        },
        {
          "indexed": true,
          "internalType": "address",
          "name": "l2TokenAddress",
          "type": "address"
        },
        {
          "indexed": false,
          "internalType": "address",
          "name": "caller",
          "type": "address"
        }
      ],
      "name": "TokensBridged",
      "type": "event"
    },
    {
      "anonymous": false,
      "inputs": [
        {
          "indexed": true,
          "internalType": "address",
          "name": "l2Token",
          "type": "address"
        },
        {
          "indexed": true,
          "internalType": "address",
          "name": "l1Token",
          "type": "address"
        }
      ],
      "name": "WhitelistedTokens",
      "type": "event"
    },
    {
      "inputs": [],
      "name": "chainId",
      "outputs": [
        {
          "internalType": "uint256",
          "name": "",
          "type": "uint256"
        }
      ],
      "stateMutability": "view",
      "type": "function"
    },
    {
      "inputs": [],
      "name": "crossDomainAdmin",
      "outputs": [
        {
          "internalType": "address",
          "name": "",
          "type": "address"
        }
      ],
      "stateMutability": "view",
      "type": "function"
    },
    {
      "inputs": [
        {
          "internalType": "address",
          "name": "recipient",
          "type": "address"
        },
        {
          "internalType": "address",
          "name": "originToken",
          "type": "address"
        },
        {
          "internalType": "uint256",
          "name": "amount",
          "type": "uint256"
        },
        {
          "internalType": "uint256",
          "name": "destinationChainId",
          "type": "uint256"
        },
        {
          "internalType": "uint64",
          "name": "relayerFeePct",
          "type": "uint64"
        },
        {
          "internalType": "uint32",
          "name": "quoteTimestamp",
          "type": "uint32"
        }
      ],
      "name": "deposit",
      "outputs": [],
      "stateMutability": "payable",
      "type": "function"
    },
    {
      "inputs": [],
      "name": "depositQuoteTimeBuffer",
      "outputs": [
        {
          "internalType": "uint32",
          "name": "",
          "type": "uint32"
        }
      ],
      "stateMutability": "view",
      "type": "function"
    },
    {
      "inputs": [
        {
          "internalType": "uint256",
          "name": "rootBundleId",
          "type": "uint256"
        }
      ],
      "name": "emergencyDeleteRootBundle",
      "outputs": [],
      "stateMutability": "nonpayable",
      "type": "function"
    },
    {
      "inputs": [
        {
          "internalType": "address",
          "name": "",
          "type": "address"
        },
        {
          "internalType": "uint256",
          "name": "",
          "type": "uint256"
        }
      ],
      "name": "enabledDepositRoutes",
      "outputs": [
        {
          "internalType": "bool",
          "name": "",
          "type": "bool"
        }
      ],
      "stateMutability": "view",
      "type": "function"
    },
    {
      "inputs": [
        {
          "internalType": "uint32",
          "name": "rootBundleId",
          "type": "uint32"
        },
        {
          "components": [
            {
              "internalType": "uint256",
              "name": "amountToReturn",
              "type": "uint256"
            },
            {
              "internalType": "uint256",
              "name": "chainId",
              "type": "uint256"
            },
            {
              "internalType": "uint256[]",
              "name": "refundAmounts",
              "type": "uint256[]"
            },
            {
              "internalType": "uint32",
              "name": "leafId",
              "type": "uint32"
            },
            {
              "internalType": "address",
              "name": "l2TokenAddress",
              "type": "address"
            },
            {
              "internalType": "address[]",
              "name": "refundAddresses",
              "type": "address[]"
            }
          ],
          "internalType": "struct SpokePoolInterface.RelayerRefundLeaf",
          "name": "relayerRefundLeaf",
          "type": "tuple"
        },
        {
          "internalType": "bytes32[]",
          "name": "proof",
          "type": "bytes32[]"
        }
      ],
      "name": "executeRelayerRefundRoot",
      "outputs": [],
      "stateMutability": "nonpayable",
      "type": "function"
    },
    {
      "inputs": [
        {
          "internalType": "address",
          "name": "depositor",
          "type": "address"
        },
        {
          "internalType": "address",
          "name": "recipient",
          "type": "address"
        },
        {
          "internalType": "address",
          "name": "destinationToken",
          "type": "address"
        },
        {
          "internalType": "uint256",
          "name": "amount",
          "type": "uint256"
        },
        {
          "internalType": "uint256",
          "name": "originChainId",
          "type": "uint256"
        },
        {
          "internalType": "uint64",
          "name": "realizedLpFeePct",
          "type": "uint64"
        },
        {
          "internalType": "uint64",
          "name": "relayerFeePct",
          "type": "uint64"
        },
        {
          "internalType": "uint32",
          "name": "depositId",
          "type": "uint32"
        },
        {
          "internalType": "uint32",
          "name": "rootBundleId",
          "type": "uint32"
        },
        {
          "internalType": "bytes32[]",
          "name": "proof",
          "type": "bytes32[]"
        }
      ],
      "name": "executeSlowRelayRoot",
      "outputs": [],
      "stateMutability": "nonpayable",
      "type": "function"
    },
    {
      "inputs": [
        {
          "internalType": "address",
          "name": "depositor",
          "type": "address"
        },
        {
          "internalType": "address",
          "name": "recipient",
          "type": "address"
        },
        {
          "internalType": "address",
          "name": "destinationToken",
          "type": "address"
        },
        {
          "internalType": "uint256",
          "name": "amount",
          "type": "uint256"
        },
        {
          "internalType": "uint256",
          "name": "maxTokensToSend",
          "type": "uint256"
        },
        {
          "internalType": "uint256",
          "name": "repaymentChainId",
          "type": "uint256"
        },
        {
          "internalType": "uint256",
          "name": "originChainId",
          "type": "uint256"
        },
        {
          "internalType": "uint64",
          "name": "realizedLpFeePct",
          "type": "uint64"
        },
        {
          "internalType": "uint64",
          "name": "relayerFeePct",
          "type": "uint64"
        },
        {
          "internalType": "uint32",
          "name": "depositId",
          "type": "uint32"
        }
      ],
      "name": "fillRelay",
      "outputs": [],
      "stateMutability": "nonpayable",
      "type": "function"
    },
    {
      "inputs": [
        {
          "internalType": "address",
          "name": "depositor",
          "type": "address"
        },
        {
          "internalType": "address",
          "name": "recipient",
          "type": "address"
        },
        {
          "internalType": "address",
          "name": "destinationToken",
          "type": "address"
        },
        {
          "internalType": "uint256",
          "name": "amount",
          "type": "uint256"
        },
        {
          "internalType": "uint256",
          "name": "maxTokensToSend",
          "type": "uint256"
        },
        {
          "internalType": "uint256",
          "name": "repaymentChainId",
          "type": "uint256"
        },
        {
          "internalType": "uint256",
          "name": "originChainId",
          "type": "uint256"
        },
        {
          "internalType": "uint64",
          "name": "realizedLpFeePct",
          "type": "uint64"
        },
        {
          "internalType": "uint64",
          "name": "relayerFeePct",
          "type": "uint64"
        },
        {
          "internalType": "uint64",
          "name": "newRelayerFeePct",
          "type": "uint64"
        },
        {
          "internalType": "uint32",
          "name": "depositId",
          "type": "uint32"
        },
        {
          "internalType": "bytes",
          "name": "depositorSignature",
          "type": "bytes"
        }
      ],
      "name": "fillRelayWithUpdatedFee",
      "outputs": [],
      "stateMutability": "nonpayable",
      "type": "function"
    },
    {
      "inputs": [],
      "name": "getCurrentTime",
      "outputs": [
        {
          "internalType": "uint256",
          "name": "",
          "type": "uint256"
        }
      ],
      "stateMutability": "view",
      "type": "function"
    },
    {
      "inputs": [],
      "name": "hubPool",
      "outputs": [
        {
          "internalType": "address",
          "name": "",
          "type": "address"
        }
      ],
      "stateMutability": "view",
      "type": "function"
    },
    {
      "inputs": [],
      "name": "l2GatewayRouter",
      "outputs": [
        {
          "internalType": "address",
          "name": "",
          "type": "address"
        }
      ],
      "stateMutability": "view",
      "type": "function"
    },
    {
      "inputs": [
        {
          "internalType": "bytes[]",
          "name": "data",
          "type": "bytes[]"
        }
      ],
      "name": "multicall",
      "outputs": [
        {
          "internalType": "bytes[]",
          "name": "results",
          "type": "bytes[]"
        }
      ],
      "stateMutability": "payable",
      "type": "function"
    },
    {
      "inputs": [],
      "name": "numberOfDeposits",
      "outputs": [
        {
          "internalType": "uint32",
          "name": "",
          "type": "uint32"
        }
      ],
      "stateMutability": "view",
      "type": "function"
    },
    {
      "inputs": [
        {
          "internalType": "bytes32",
          "name": "",
          "type": "bytes32"
        }
      ],
      "name": "relayFills",
      "outputs": [
        {
          "internalType": "uint256",
          "name": "",
          "type": "uint256"
        }
      ],
      "stateMutability": "view",
      "type": "function"
    },
    {
      "inputs": [
        {
          "internalType": "bytes32",
          "name": "relayerRefundRoot",
          "type": "bytes32"
        },
        {
          "internalType": "bytes32",
          "name": "slowRelayRoot",
          "type": "bytes32"
        }
      ],
      "name": "relayRootBundle",
      "outputs": [],
      "stateMutability": "nonpayable",
      "type": "function"
    },
    {
      "inputs": [
        {
          "internalType": "uint256",
          "name": "",
          "type": "uint256"
        }
      ],
      "name": "rootBundles",
      "outputs": [
        {
          "internalType": "bytes32",
          "name": "slowRelayRoot",
          "type": "bytes32"
        },
        {
          "internalType": "bytes32",
          "name": "relayerRefundRoot",
          "type": "bytes32"
        }
      ],
      "stateMutability": "view",
      "type": "function"
    },
    {
      "inputs": [
        {
          "internalType": "address",
          "name": "newCrossDomainAdmin",
          "type": "address"
        }
      ],
      "name": "setCrossDomainAdmin",
      "outputs": [],
      "stateMutability": "nonpayable",
      "type": "function"
    },
    {
      "inputs": [
        {
          "internalType": "uint256",
          "name": "time",
          "type": "uint256"
        }
      ],
      "name": "setCurrentTime",
      "outputs": [],
      "stateMutability": "nonpayable",
      "type": "function"
    },
    {
      "inputs": [
        {
          "internalType": "uint32",
          "name": "newDepositQuoteTimeBuffer",
          "type": "uint32"
        }
      ],
      "name": "setDepositQuoteTimeBuffer",
      "outputs": [],
      "stateMutability": "nonpayable",
      "type": "function"
    },
    {
      "inputs": [
        {
          "internalType": "address",
          "name": "originToken",
          "type": "address"
        },
        {
          "internalType": "uint256",
          "name": "destinationChainId",
          "type": "uint256"
        },
        {
          "internalType": "bool",
          "name": "enabled",
          "type": "bool"
        }
      ],
      "name": "setEnableRoute",
      "outputs": [],
      "stateMutability": "nonpayable",
      "type": "function"
    },
    {
      "inputs": [
        {
          "internalType": "address",
          "name": "newHubPool",
          "type": "address"
        }
      ],
      "name": "setHubPool",
      "outputs": [],
      "stateMutability": "nonpayable",
      "type": "function"
    },
    {
      "inputs": [
        {
          "internalType": "address",
          "name": "newL2GatewayRouter",
          "type": "address"
        }
      ],
      "name": "setL2GatewayRouter",
      "outputs": [],
      "stateMutability": "nonpayable",
      "type": "function"
    },
    {
      "inputs": [
        {
          "internalType": "address",
          "name": "depositor",
          "type": "address"
        },
        {
          "internalType": "uint64",
          "name": "newRelayerFeePct",
          "type": "uint64"
        },
        {
          "internalType": "uint32",
          "name": "depositId",
          "type": "uint32"
        },
        {
          "internalType": "bytes",
          "name": "depositorSignature",
          "type": "bytes"
        }
      ],
      "name": "speedUpDeposit",
      "outputs": [],
      "stateMutability": "nonpayable",
      "type": "function"
    },
    {
      "inputs": [],
      "name": "timerAddress",
      "outputs": [
        {
          "internalType": "address",
          "name": "",
          "type": "address"
        }
      ],
      "stateMutability": "view",
      "type": "function"
    },
    {
      "inputs": [],
      "name": "weth",
      "outputs": [
        {
          "internalType": "contract WETH9",
          "name": "",
          "type": "address"
        }
      ],
      "stateMutability": "view",
      "type": "function"
    },
    {
      "inputs": [
        {
          "internalType": "address",
          "name": "l2Token",
          "type": "address"
        },
        {
          "internalType": "address",
          "name": "l1Token",
          "type": "address"
        }
      ],
      "name": "whitelistToken",
      "outputs": [],
      "stateMutability": "nonpayable",
      "type": "function"
    },
    {
      "inputs": [
        {
          "internalType": "address",
          "name": "",
          "type": "address"
        }
      ],
      "name": "whitelistedTokens",
      "outputs": [
        {
          "internalType": "address",
          "name": "",
          "type": "address"
        }
      ],
      "stateMutability": "view",
      "type": "function"
    },
    {
      "stateMutability": "payable",
      "type": "receive"
    }
  ],
  "transactionHash": "0x38c1877557166c023755d543599eb1aef624931f6bb2599597d1259e63676d27",
  "args": [
    "0x9413AD42910c1eA60c737dB5f58d1C504498a3cD",
    "0xa1b6DA4AaE90fA16F3A3338c8d1Dc70B4926FCa7",
    "0xa1b6DA4AaE90fA16F3A3338c8d1Dc70B4926FCa7",
    "0xB47e6A5f8b33b3F17603C83a0535A9dcD7E32681",
    "0x0000000000000000000000000000000000000000"
  ],
  "numDeployments": 1,
  "solcInputHash": "c8b9349311d8b5049b613ac98eb998d0",
  "bytecode": "0x60a06040526002805463ffffffff60a01b1916604b60a31b1790553480156200002757600080fd5b5060405162004831380380620048318339810160408190526200004a916200025a565b600080546001600160a81b0319166001600160a01b03831617600160a01b179055838383836200007a84620000ab565b620000858362000151565b506001600160a01b031660805250620000a0905085620001f3565b5050505050620002ca565b6001600160a01b038116620001075760405162461bcd60e51b815260206004820152601960248201527f4261642062726964676520726f7574657220616464726573730000000000000060448201526064015b60405180910390fd5b600180546001600160a01b0319166001600160a01b0383169081179091556040517fa9e8c42c9e7fca7f62755189a16b2f5314d43d8fb24e91ba54e6d65f9314e84990600090a250565b6001600160a01b038116620001a95760405162461bcd60e51b815260206004820152601460248201527f4261642068756220706f6f6c20616464726573730000000000000000000000006044820152606401620000fe565b600280546001600160a01b0319166001600160a01b0383169081179091556040517f1f17a88f67b0f49060a34bec1a4723a563620e6aa265eb640b5046dcee0759a090600090a250565b600680546001600160a01b0319166001600160a01b0383169081179091556040517fdc4a5f4c066ad14c1306e624550b42395e08f992a76b416cc7b1ad11503d376c90600090a250565b80516001600160a01b03811681146200025557600080fd5b919050565b600080600080600060a086880312156200027357600080fd5b6200027e866200023d565b94506200028e602087016200023d565b93506200029e604087016200023d565b9250620002ae606087016200023d565b9150620002be608087016200023d565b90509295509295909350565b608051614528620003096000396000818161030001528181610d4c01528181610e1501528181611fcf01528181612a5f0152612ab501526145286000f3fe6080604052600436106101c65760003560e01c806389a153cc116100f7578063daf9c21011610095578063ee2a53f811610064578063ee2a53f8146105e0578063f06850f614610615578063f500697c14610642578063ffc351a31461066257600080fd5b8063daf9c21014610530578063de7eba7814610573578063e190440214610593578063e282d5b9146105c057600080fd5b8063a1244c67116100d1578063a1244c671461048a578063ac9650d8146104c3578063c8356859146104e3578063c894c0ca1461051057600080fd5b806389a153cc146104375780638a7860ce146104575780639a8a05921461047757600080fd5b80633fc8cef3116101645780634e3485c81161013e5780634e3485c8146103555780635249fef1146103755780635285e058146103c057806357f6dcb8146103ed57600080fd5b80633fc8cef3146102ee5780634922897814610322578063493a4f841461033557600080fd5b8063272751c7116101a0578063272751c71461026b5780632752042e1461028b57806329cb924d146102ab578063364f01a6146102ce57600080fd5b80631c39c38d146101d25780631dfb2d021461022957806322f8e5661461024b57600080fd5b366101cd57005b600080fd5b3480156101de57600080fd5b506000546101ff9073ffffffffffffffffffffffffffffffffffffffff1681565b60405173ffffffffffffffffffffffffffffffffffffffff90911681526020015b60405180910390f35b34801561023557600080fd5b50610249610244366004613629565b610682565b005b34801561025757600080fd5b50610249610266366004613644565b61070f565b34801561027757600080fd5b5061024961028636600461366b565b6107b8565b34801561029757600080fd5b506102496102a63660046136bf565b6108cf565b3480156102b757600080fd5b506102c06109d0565b604051908152602001610220565b3480156102da57600080fd5b506102496102e93660046136da565b610a88565b3480156102fa57600080fd5b506101ff7f000000000000000000000000000000000000000000000000000000000000000081565b610249610330366004613725565b610b17565b34801561034157600080fd5b5061024961035036600461378b565b610f7e565b34801561036157600080fd5b50610249610370366004613629565b6110a1565b34801561038157600080fd5b506103b06103903660046137ad565b600360209081526000928352604080842090915290825290205460ff1681565b6040519015158152602001610220565b3480156103cc57600080fd5b506001546101ff9073ffffffffffffffffffffffffffffffffffffffff1681565b3480156103f957600080fd5b506002546104229074010000000000000000000000000000000000000000900463ffffffff1681565b60405163ffffffff9091168152602001610220565b34801561044357600080fd5b506102496104523660046137d7565b6110e7565b34801561046357600080fd5b50610249610472366004613644565b611243565b34801561048357600080fd5b50466102c0565b34801561049657600080fd5b50600254610422907801000000000000000000000000000000000000000000000000900463ffffffff1681565b6104d66104d1366004613875565b611317565b6040516102209190613960565b3480156104ef57600080fd5b506006546101ff9073ffffffffffffffffffffffffffffffffffffffff1681565b34801561051c57600080fd5b5061024961052b366004613b78565b6114f1565b34801561053c57600080fd5b506101ff61054b366004613629565b60076020526000908152604090205473ffffffffffffffffffffffffffffffffffffffff1681565b34801561057f57600080fd5b5061024961058e366004613629565b611575565b34801561059f57600080fd5b506002546101ff9073ffffffffffffffffffffffffffffffffffffffff1681565b3480156105cc57600080fd5b506102496105db366004613d0b565b6115bb565b3480156105ec57600080fd5b506106006105fb366004613644565b611719565b60408051928352602083019190915201610220565b34801561062157600080fd5b506102c0610630366004613644565b60056020526000908152604090205481565b34801561064e57600080fd5b5061024961065d366004613d7a565b611747565b34801561066e57600080fd5b5061024961067d366004613e41565b6117d3565b61068a61193e565b610692611a0a565b6106bf600080547fffffffffffffffffffffff00ffffffffffffffffffffffffffffffffffffffff169055565b6106c881611a8e565b61070c600080547fffffffffffffffffffffff00ffffffffffffffffffffffffffffffffffffffff1674010000000000000000000000000000000000000000179055565b50565b60005473ffffffffffffffffffffffffffffffffffffffff1661073157600080fd5b6000546040517f22f8e5660000000000000000000000000000000000000000000000000000000081526004810183905273ffffffffffffffffffffffffffffffffffffffff909116906322f8e56690602401600060405180830381600087803b15801561079d57600080fd5b505af11580156107b1573d6000803e3d6000fd5b5050505050565b6107c061193e565b6107c8611a0a565b6107f5600080547fffffffffffffffffffffff00ffffffffffffffffffffffffffffffffffffffff169055565b73ffffffffffffffffffffffffffffffffffffffff8316600081815260036020908152604080832086845282529182902080547fffffffffffffffffffffffffffffffffffffffffffffffffffffffffffffff001685151590811790915591519182528492917f0a21fdd43d0ad0c62689ee7230a47309a050755bcc52eba00310add65297692a910160405180910390a36108ca600080547fffffffffffffffffffffff00ffffffffffffffffffffffffffffffffffffffff1674010000000000000000000000000000000000000000179055565b505050565b6108d761193e565b6108df611a0a565b61090c600080547fffffffffffffffffffffff00ffffffffffffffffffffffffffffffffffffffff169055565b600280547fffffffffffffffff00000000ffffffffffffffffffffffffffffffffffffffff167401000000000000000000000000000000000000000063ffffffff8416908102919091179091556040519081527f0e55dd180fa793d9036c804d0a116e6a7617a48e72cee1f83d92793a793fcc039060200160405180910390a161070c600080547fffffffffffffffffffffff00ffffffffffffffffffffffffffffffffffffffff1674010000000000000000000000000000000000000000179055565b6000805473ffffffffffffffffffffffffffffffffffffffff1615610a835760008054906101000a900473ffffffffffffffffffffffffffffffffffffffff1673ffffffffffffffffffffffffffffffffffffffff166329cb924d6040518163ffffffff1660e01b8152600401602060405180830381865afa158015610a5a573d6000803e3d6000fd5b505050506040513d601f19601f82011682018060405250810190610a7e9190613f1f565b905090565b504290565b610a9061193e565b610a98611a0a565b610ac5600080547fffffffffffffffffffffff00ffffffffffffffffffffffffffffffffffffffff169055565b610acf8282611b7a565b610b13600080547fffffffffffffffffffffff00ffffffffffffffffffffffffffffffffffffffff1674010000000000000000000000000000000000000000179055565b5050565b610b1f611a0a565b610b4c600080547fffffffffffffffffffffff00ffffffffffffffffffffffffffffffffffffffff169055565b73ffffffffffffffffffffffffffffffffffffffff8516600090815260036020908152604080832086845290915290205460ff16610beb576040517f08c379a000000000000000000000000000000000000000000000000000000000815260206004820152600e60248201527f44697361626c656420726f75746500000000000000000000000000000000000060448201526064015b60405180910390fd5b6706f05b59d3b200008267ffffffffffffffff1610610c66576040517f08c379a000000000000000000000000000000000000000000000000000000000815260206004820152601360248201527f696e76616c69642072656c6179657220666565000000000000000000000000006044820152606401610be2565b600254610c919074010000000000000000000000000000000000000000900463ffffffff1682613f67565b63ffffffff16610c9f6109d0565b10158015610ce45750600254610cd39074010000000000000000000000000000000000000000900463ffffffff1682613f8c565b63ffffffff16610ce16109d0565b11155b610d4a576040517f08c379a000000000000000000000000000000000000000000000000000000000815260206004820152601260248201527f696e76616c69642071756f74652074696d6500000000000000000000000000006044820152606401610be2565b7f000000000000000000000000000000000000000000000000000000000000000073ffffffffffffffffffffffffffffffffffffffff168573ffffffffffffffffffffffffffffffffffffffff16148015610da55750600034115b15610e9957833414610e13576040517f08c379a000000000000000000000000000000000000000000000000000000000815260206004820152601b60248201527f6d73672e76616c7565206d757374206d6174636820616d6f756e7400000000006044820152606401610be2565b7f000000000000000000000000000000000000000000000000000000000000000073ffffffffffffffffffffffffffffffffffffffff1663d0e30db0346040518263ffffffff1660e01b81526004016000604051808303818588803b158015610e7b57600080fd5b505af1158015610e8f573d6000803e3d6000fd5b5050505050610ebb565b610ebb73ffffffffffffffffffffffffffffffffffffffff8616333087611bf6565b610ef28446600254869086907801000000000000000000000000000000000000000000000000900463ffffffff16868b8d33611cd2565b6001600260188282829054906101000a900463ffffffff16610f149190613f8c565b92506101000a81548163ffffffff021916908363ffffffff160217905550610f76600080547fffffffffffffffffffffff00ffffffffffffffffffffffffffffffffffffffff1674010000000000000000000000000000000000000000179055565b505050505050565b610f8661193e565b610f8e611a0a565b610fbb600080547fffffffffffffffffffffff00ffffffffffffffffffffffffffffffffffffffff169055565b60048054600181018255600091909152600381027f8a35acfbc15ff81a39ae7d344fd709f28e8600b4aa8c65c6b64bfe7fe36bd19c81018490557f8a35acfbc15ff81a39ae7d344fd709f28e8600b4aa8c65c6b64bfe7fe36bd19b01828155604080518581526020810185905263ffffffff8416917fc86ba04c55bc5eb2f2876b91c438849a296dbec7b08751c3074d92e04f0a77af910160405180910390a25050610b13600080547fffffffffffffffffffffff00ffffffffffffffffffffffffffffffffffffffff1674010000000000000000000000000000000000000000179055565b6110a961193e565b6110b1611a0a565b6110de600080547fffffffffffffffffffffff00ffffffffffffffffffffffffffffffffffffffff169055565b6106c881611d63565b6110ef611a0a565b61111c600080547fffffffffffffffffffffff00ffffffffffffffffffffffffffffffffffffffff169055565b60006040518061012001604052808c73ffffffffffffffffffffffffffffffffffffffff1681526020018b73ffffffffffffffffffffffffffffffffffffffff1681526020018a73ffffffffffffffffffffffffffffffffffffffff1681526020018981526020018681526020016111914690565b81526020018567ffffffffffffffff1681526020018467ffffffffffffffff1681526020018363ffffffff16815250905060006111cd82611dd2565b905060006111df82848b886000611e02565b90506111f082828a888760006120af565b505050611237600080547fffffffffffffffffffffff00ffffffffffffffffffffffffffffffffffffffff1674010000000000000000000000000000000000000000179055565b50505050505050505050565b61124b61193e565b611253611a0a565b611280600080547fffffffffffffffffffffff00ffffffffffffffffffffffffffffffffffffffff169055565b6004818154811061129357611293613fb4565b60009182526020822060039091020181815560010181905560405182917f3569b846531b754c99cb80df3f49cd72fa6fe106aaee5ab8e0caf35a9d7ce88d91a261070c600080547fffffffffffffffffffffff00ffffffffffffffffffffffffffffffffffffffff1674010000000000000000000000000000000000000000179055565b60603415611381576040517f08c379a000000000000000000000000000000000000000000000000000000000815260206004820152601b60248201527f4f6e6c79206d756c746963616c6c207769746820302076616c756500000000006044820152606401610be2565b8167ffffffffffffffff81111561139a5761139a6139e0565b6040519080825280602002602001820160405280156113cd57816020015b60608152602001906001900390816113b85790505b50905060005b828110156114ea57600080308686858181106113f1576113f1613fb4565b90506020028101906114039190613fe3565b604051611411929190614048565b600060405180830381855af49150503d806000811461144c576040519150601f19603f3d011682016040523d82523d6000602084013e611451565b606091505b5091509150816114b75760448151101561146a57600080fd5b600481019050808060200190518101906114849190614088565b6040517f08c379a0000000000000000000000000000000000000000000000000000000008152600401610be291906140d1565b808484815181106114ca576114ca613fb4565b6020026020010181905250505080806114e2906140e4565b9150506113d3565b5092915050565b6114f9611a0a565b611526600080547fffffffffffffffffffffff00ffffffffffffffffffffffffffffffffffffffff169055565b6115318383836121e4565b6108ca600080547fffffffffffffffffffffff00ffffffffffffffffffffffffffffffffffffffff1674010000000000000000000000000000000000000000179055565b61157d61193e565b611585611a0a565b6115b2600080547fffffffffffffffffffffff00ffffffffffffffffffffffffffffffffffffffff169055565b6106c8816125aa565b6115c3611a0a565b6115f0600080547fffffffffffffffffffffff00ffffffffffffffffffffffffffffffffffffffff169055565b6706f05b59d3b200008367ffffffffffffffff161061166b576040517f08c379a000000000000000000000000000000000000000000000000000000000815260206004820152601360248201527f696e76616c69642072656c6179657220666565000000000000000000000000006044820152606401610be2565b6116788446858585612696565b8373ffffffffffffffffffffffffffffffffffffffff168263ffffffff167fb9de16bf376724405019a10ef4fedac57fecd292bf86c08d81d7c42d394d5d3785846040516116c792919061411c565b60405180910390a3611713600080547fffffffffffffffffffffff00ffffffffffffffffffffffffffffffffffffffff1674010000000000000000000000000000000000000000179055565b50505050565b6004818154811061172957600080fd5b60009182526020909120600390910201805460019091015490915082565b61174f611a0a565b61177c600080547fffffffffffffffffffffff00ffffffffffffffffffffffffffffffffffffffff169055565b61178f8a8a8a8a8a468b8b8b8b8b612733565b611237600080547fffffffffffffffffffffff00ffffffffffffffffffffffffffffffffffffffff1674010000000000000000000000000000000000000000179055565b6117db611a0a565b611808600080547fffffffffffffffffffffff00ffffffffffffffffffffffffffffffffffffffff169055565b6118158c87858585612696565b60006040518061012001604052808e73ffffffffffffffffffffffffffffffffffffffff1681526020018d73ffffffffffffffffffffffffffffffffffffffff1681526020018c73ffffffffffffffffffffffffffffffffffffffff1681526020018b815260200188815260200161188a4690565b81526020018767ffffffffffffffff1681526020018667ffffffffffffffff1681526020018463ffffffff16815250905060006118c682611dd2565b905060006118d882848d896000611e02565b90506118e982828c898760006120af565b505050611930600080547fffffffffffffffffffffff00ffffffffffffffffffffffffffffffffffffffff1674010000000000000000000000000000000000000000179055565b505050505050505050505050565b6001546119749073ffffffffffffffffffffffffffffffffffffffff167311110000000000000000000000000000000011110190565b73ffffffffffffffffffffffffffffffffffffffff163373ffffffffffffffffffffffffffffffffffffffff1614611a08576040517f08c379a000000000000000000000000000000000000000000000000000000000815260206004820152601860248201527f4f4e4c595f434f554e544552504152545f4741544557415900000000000000006044820152606401610be2565b565b60005474010000000000000000000000000000000000000000900460ff16611a08576040517f08c379a000000000000000000000000000000000000000000000000000000000815260206004820152601f60248201527f5265656e7472616e637947756172643a207265656e7472616e742063616c6c006044820152606401610be2565b73ffffffffffffffffffffffffffffffffffffffff8116611b0b576040517f08c379a000000000000000000000000000000000000000000000000000000000815260206004820152601460248201527f4261642068756220706f6f6c20616464726573730000000000000000000000006044820152606401610be2565b600280547fffffffffffffffffffffffff00000000000000000000000000000000000000001673ffffffffffffffffffffffffffffffffffffffff83169081179091556040517f1f17a88f67b0f49060a34bec1a4723a563620e6aa265eb640b5046dcee0759a090600090a250565b73ffffffffffffffffffffffffffffffffffffffff82811660008181526007602052604080822080547fffffffffffffffffffffffff0000000000000000000000000000000000000000169486169485179055517f8d7f294eaa476236fe8cb5629376a12cd37dace3d21e6a7b98f1641c4ed5f09e9190a35050565b60405173ffffffffffffffffffffffffffffffffffffffff808516602483015283166044820152606481018290526117139085907f23b872dd00000000000000000000000000000000000000000000000000000000906084015b604080517fffffffffffffffffffffffffffffffffffffffffffffffffffffffffffffffe08184030181529190526020810180517bffffffffffffffffffffffffffffffffffffffffffffffffffffffff167fffffffff00000000000000000000000000000000000000000000000000000000909316929092179091526128b2565b604080518a8152602081018a905290810188905267ffffffffffffffff8716606082015263ffffffff858116608083015273ffffffffffffffffffffffffffffffffffffffff84811660a084015280841692908616918816907f4a4fc49abd237bfd7f4ac82d6c7a284c69daaea5154430cff04ad7482c6c42549060c00160405180910390a4505050505050505050565b600680547fffffffffffffffffffffffff00000000000000000000000000000000000000001673ffffffffffffffffffffffffffffffffffffffff83169081179091556040517fdc4a5f4c066ad14c1306e624550b42395e08f992a76b416cc7b1ad11503d376c90600090a250565b600081604051602001611de5919061413f565b604051602081830303815290604052805190602001209050919050565b60006706f05b59d3b200008367ffffffffffffffff16108015611e3a57506706f05b59d3b200008560c0015167ffffffffffffffff16105b611ea0576040517f08c379a000000000000000000000000000000000000000000000000000000000815260206004820152600c60248201527f696e76616c6964206665657300000000000000000000000000000000000000006044820152606401610be2565b606085015160008781526005602052604090205410611f1b576040517f08c379a000000000000000000000000000000000000000000000000000000000815260206004820152600c60248201527f72656c61792066696c6c656400000000000000000000000000000000000000006044820152606401610be2565b83600003611f2b575060006120a6565b611f4484848760c00151611f3f91906141e6565b6129be565b60008781526005602052604081205460608801519293508692611f679190614209565b905082811015611f9057809250611f8d83868960c00151611f8891906141e6565b6129ff565b91505b60008881526005602052604081208054859290611fae908490614220565b9091555050604087015173ffffffffffffffffffffffffffffffffffffffff7f0000000000000000000000000000000000000000000000000000000000000000811691160361203657836120235760408701516120239073ffffffffffffffffffffffffffffffffffffffff16333085611bf6565b612031876020015183612a28565b6120a3565b8361207057612031338860200151848a6040015173ffffffffffffffffffffffffffffffffffffffff16611bf6909392919063ffffffff16565b6120a3876020015183896040015173ffffffffffffffffffffffffffffffffffffffff16612b699092919063ffffffff16565b50505b95945050505050565b816000015173ffffffffffffffffffffffffffffffffffffffff163373ffffffffffffffffffffffffffffffffffffffff16877f1d59c1d19baf4b4de03cec9c844258e7ca2f2004975025eb14fe9a5e1d4e0d888560600151600560008c8152602001908152602001600020548a8a89608001518a60a001518c8c60c001518d61010001518e604001518f602001518f6040516121d49c9b9a999897969594939291909b8c5260208c019a909a5260408b019890985260608a0196909652608089019490945260a088019290925267ffffffffffffffff90811660c08801521660e086015263ffffffff1661010085015273ffffffffffffffffffffffffffffffffffffffff9081166101208501521661014083015215156101608201526101800190565b60405180910390a4505050505050565b46826020015114612251576040517f08c379a000000000000000000000000000000000000000000000000000000000815260206004820152600f60248201527f496e76616c696420636861696e496400000000000000000000000000000000006044820152606401610be2565b8160400151518260a0015151146122c4576040517f08c379a000000000000000000000000000000000000000000000000000000000815260206004820152600c60248201527f696e76616c6964206c65616600000000000000000000000000000000000000006044820152606401610be2565b600060048463ffffffff16815481106122df576122df613fb4565b906000526020600020906003020190506122fe81600101548484612bbf565b612364576040517f08c379a000000000000000000000000000000000000000000000000000000000815260206004820152600960248201527f4261642050726f6f6600000000000000000000000000000000000000000000006044820152606401610be2565b61237b81600201846060015163ffffffff16612bfa565b156123e2576040517f08c379a000000000000000000000000000000000000000000000000000000000815260206004820152600f60248201527f416c726561647920636c61696d656400000000000000000000000000000000006044820152606401610be2565b6123f981600201846060015163ffffffff16612c3b565b60005b8360400151518163ffffffff1610156124a557600084604001518263ffffffff168151811061242d5761242d613fb4565b602002602001015190506000811115612492576124928560a001518363ffffffff168151811061245f5761245f613fb4565b602002602001015182876080015173ffffffffffffffffffffffffffffffffffffffff16612b699092919063ffffffff16565b508061249d81614238565b9150506123fc565b5082511561253e576124b683612c79565b826080015173ffffffffffffffffffffffffffffffffffffffff16836060015163ffffffff1684602001517f828fc203220356df8f072a91681caee7d5c75095e2a95e80ed5a14b384697f7186600001513360405161253592919091825273ffffffffffffffffffffffffffffffffffffffff16602082015260400190565b60405180910390a45b826060015163ffffffff168463ffffffff1684602001517ff8bd640004bcec1b89657020f561d0b070cbdf662d0b158db9dccb0a8301bfab8660000151876040015188608001518960a001513360405161259c9594939291906142dc565b60405180910390a450505050565b73ffffffffffffffffffffffffffffffffffffffff8116612627576040517f08c379a000000000000000000000000000000000000000000000000000000000815260206004820152601960248201527f4261642062726964676520726f757465722061646472657373000000000000006044820152606401610be2565b600180547fffffffffffffffffffffffff00000000000000000000000000000000000000001673ffffffffffffffffffffffffffffffffffffffff83169081179091556040517fa9e8c42c9e7fca7f62755189a16b2f5314d43d8fb24e91ba54e6d65f9314e84990600090a250565b60408051608060208201819052601160a08301527f4143524f53532d56322d4645452d312e3000000000000000000000000000000060c083015267ffffffffffffffff86169282019290925263ffffffff8416606082015290810185905260009060e001604051602081830303815290604052805190602001209050600061271d82612e45565b905061272a878285612e80565b50505050505050565b60006040518061012001604052808d73ffffffffffffffffffffffffffffffffffffffff1681526020018c73ffffffffffffffffffffffffffffffffffffffff1681526020018b73ffffffffffffffffffffffffffffffffffffffff1681526020018a81526020018981526020018881526020018767ffffffffffffffff1681526020018667ffffffffffffffff1681526020018563ffffffff16815250905061280860048463ffffffff16815481106127ef576127ef613fb4565b9060005260206000209060030201600001548284612f1e565b61286e576040517f08c379a000000000000000000000000000000000000000000000000000000000815260206004820152600d60248201527f496e76616c69642070726f6f66000000000000000000000000000000000000006044820152606401610be2565b600061287982611dd2565b905060006128908284856060015160006001611e02565b90506128a282826000808760016120af565b5050505050505050505050505050565b6000612914826040518060400160405280602081526020017f5361666545524332303a206c6f772d6c6576656c2063616c6c206661696c65648152508573ffffffffffffffffffffffffffffffffffffffff16612f369092919063ffffffff16565b8051909150156108ca5780806020019051810190612932919061433a565b6108ca576040517f08c379a000000000000000000000000000000000000000000000000000000000815260206004820152602a60248201527f5361666545524332303a204552433230206f7065726174696f6e20646964206e60448201527f6f742073756363656564000000000000000000000000000000000000000000006064820152608401610be2565b60006129d282670de0b6b3a7640000614357565b67ffffffffffffffff166129ee84670de0b6b3a7640000614378565b6129f891906143e4565b9392505050565b6000670de0b6b3a7640000612a148382614357565b6129ee9067ffffffffffffffff1685614378565b73ffffffffffffffffffffffffffffffffffffffff82163b15612a8657610b1373ffffffffffffffffffffffffffffffffffffffff7f0000000000000000000000000000000000000000000000000000000000000000168383612b69565b6040517f2e1a7d4d000000000000000000000000000000000000000000000000000000008152600481018290527f000000000000000000000000000000000000000000000000000000000000000073ffffffffffffffffffffffffffffffffffffffff1690632e1a7d4d90602401600060405180830381600087803b158015612b0e57600080fd5b505af1158015612b22573d6000803e3d6000fd5b505060405173ffffffffffffffffffffffffffffffffffffffff8516925083156108fc02915083906000818181858888f193505050501580156108ca573d6000803e3d6000fd5b60405173ffffffffffffffffffffffffffffffffffffffff83166024820152604481018290526108ca9084907fa9059cbb0000000000000000000000000000000000000000000000000000000090606401611c50565b6000612bf2828585604051602001612bd791906143f8565b60405160208183030381529060405280519060200120612f45565b949350505050565b600080612c09610100846143e4565b90506000612c1961010085614493565b6000928352602095909552506040902054600190931b92831690921492915050565b6000612c49610100836143e4565b90506000612c5961010084614493565b600092835260209490945250604090208054600190931b90921790915550565b608081015173ffffffffffffffffffffffffffffffffffffffff9081166000908152600760205260409020541680612d0d576040517f08c379a000000000000000000000000000000000000000000000000000000000815260206004820152601b60248201527f556e696e697469616c697a6564206d61696e6e657420746f6b656e00000000006044820152606401610be2565b60065460025483516040517f7b3a3c8b00000000000000000000000000000000000000000000000000000000815273ffffffffffffffffffffffffffffffffffffffff8581166004830152928316602482015260448101919091526080606482015260006084820152911690637b3a3c8b9060a4016000604051808303816000875af1158015612da1573d6000803e3d6000fd5b505050506040513d6000823e601f3d9081017fffffffffffffffffffffffffffffffffffffffffffffffffffffffffffffffe0168201604052612de79190810190614088565b5060025482516040805173ffffffffffffffffffffffffffffffffffffffff909316835260208301919091526000917f997d81a0a8415d688a6c319736602098252bf6445e0e879326f682f11928e317910160405180910390a25050565b6040517f19457468657265756d205369676e6564204d6573736167653a0a3332000000006020820152603c8101829052600090605c01611de5565b612e8a8282612f5b565b73ffffffffffffffffffffffffffffffffffffffff168373ffffffffffffffffffffffffffffffffffffffff16146108ca576040517f08c379a000000000000000000000000000000000000000000000000000000000815260206004820152601160248201527f696e76616c6964207369676e61747572650000000000000000000000000000006044820152606401610be2565b6000612bf2828585604051602001612bd7919061413f565b6060612bf28484600085612f7f565b600082612f528584613115565b14949350505050565b6000806000612f6a8585613181565b91509150612f77816131ef565b509392505050565b606082471015613011576040517f08c379a000000000000000000000000000000000000000000000000000000000815260206004820152602660248201527f416464726573733a20696e73756666696369656e742062616c616e636520666f60448201527f722063616c6c00000000000000000000000000000000000000000000000000006064820152608401610be2565b73ffffffffffffffffffffffffffffffffffffffff85163b61308f576040517f08c379a000000000000000000000000000000000000000000000000000000000815260206004820152601d60248201527f416464726573733a2063616c6c20746f206e6f6e2d636f6e74726163740000006044820152606401610be2565b6000808673ffffffffffffffffffffffffffffffffffffffff1685876040516130b891906144a7565b60006040518083038185875af1925050503d80600081146130f5576040519150601f19603f3d011682016040523d82523d6000602084013e6130fa565b606091505b509150915061310a828286613443565b979650505050505050565b600081815b8451811015612f7757600085828151811061313757613137613fb4565b6020026020010151905080831161315d576000838152602082905260409020925061316e565b600081815260208490526040902092505b5080613179816140e4565b91505061311a565b60008082516041036131b75760208301516040840151606085015160001a6131ab87828585613496565b945094505050506131e8565b82516040036131e057602083015160408401516131d58683836135ae565b9350935050506131e8565b506000905060025b9250929050565b6000816004811115613203576132036144c3565b0361320b5750565b600181600481111561321f5761321f6144c3565b03613286576040517f08c379a000000000000000000000000000000000000000000000000000000000815260206004820152601860248201527f45434453413a20696e76616c6964207369676e617475726500000000000000006044820152606401610be2565b600281600481111561329a5761329a6144c3565b03613301576040517f08c379a000000000000000000000000000000000000000000000000000000000815260206004820152601f60248201527f45434453413a20696e76616c6964207369676e6174757265206c656e677468006044820152606401610be2565b6003816004811115613315576133156144c3565b036133a2576040517f08c379a000000000000000000000000000000000000000000000000000000000815260206004820152602260248201527f45434453413a20696e76616c6964207369676e6174757265202773272076616c60448201527f75650000000000000000000000000000000000000000000000000000000000006064820152608401610be2565b60048160048111156133b6576133b66144c3565b0361070c576040517f08c379a000000000000000000000000000000000000000000000000000000000815260206004820152602260248201527f45434453413a20696e76616c6964207369676e6174757265202776272076616c60448201527f75650000000000000000000000000000000000000000000000000000000000006064820152608401610be2565b606083156134525750816129f8565b8251156134625782518084602001fd5b816040517f08c379a0000000000000000000000000000000000000000000000000000000008152600401610be291906140d1565b6000807f7fffffffffffffffffffffffffffffff5d576e7357a4501ddfe92f46681b20a08311156134cd57506000905060036135a5565b8460ff16601b141580156134e557508460ff16601c14155b156134f657506000905060046135a5565b6040805160008082526020820180845289905260ff881692820192909252606081018690526080810185905260019060a0016020604051602081039080840390855afa15801561354a573d6000803e3d6000fd5b50506040517fffffffffffffffffffffffffffffffffffffffffffffffffffffffffffffffe0015191505073ffffffffffffffffffffffffffffffffffffffff811661359e576000600192509250506135a5565b9150600090505b94509492505050565b6000807f7fffffffffffffffffffffffffffffffffffffffffffffffffffffffffffffff8316816135e460ff86901c601b614220565b90506135f287828885613496565b935093505050935093915050565b803573ffffffffffffffffffffffffffffffffffffffff8116811461362457600080fd5b919050565b60006020828403121561363b57600080fd5b6129f882613600565b60006020828403121561365657600080fd5b5035919050565b801515811461070c57600080fd5b60008060006060848603121561368057600080fd5b61368984613600565b92506020840135915060408401356136a08161365d565b809150509250925092565b803563ffffffff8116811461362457600080fd5b6000602082840312156136d157600080fd5b6129f8826136ab565b600080604083850312156136ed57600080fd5b6136f683613600565b915061370460208401613600565b90509250929050565b803567ffffffffffffffff8116811461362457600080fd5b60008060008060008060c0878903121561373e57600080fd5b61374787613600565b955061375560208801613600565b945060408701359350606087013592506137716080880161370d565b915061377f60a088016136ab565b90509295509295509295565b6000806040838503121561379e57600080fd5b50508035926020909101359150565b600080604083850312156137c057600080fd5b6137c983613600565b946020939093013593505050565b6000806000806000806000806000806101408b8d0312156137f757600080fd5b6138008b613600565b995061380e60208c01613600565b985061381c60408c01613600565b975060608b0135965060808b0135955060a08b0135945060c08b0135935061384660e08c0161370d565b92506138556101008c0161370d565b91506138646101208c016136ab565b90509295989b9194979a5092959850565b6000806020838503121561388857600080fd5b823567ffffffffffffffff808211156138a057600080fd5b818501915085601f8301126138b457600080fd5b8135818111156138c357600080fd5b8660208260051b85010111156138d857600080fd5b60209290920196919550909350505050565b60005b838110156139055781810151838201526020016138ed565b838111156117135750506000910152565b6000815180845261392e8160208601602086016138ea565b601f017fffffffffffffffffffffffffffffffffffffffffffffffffffffffffffffffe0169290920160200192915050565b6000602080830181845280855180835260408601915060408160051b870101925083870160005b828110156139d3577fffffffffffffffffffffffffffffffffffffffffffffffffffffffffffffffc08886030184526139c1858351613916565b94509285019290850190600101613987565b5092979650505050505050565b7f4e487b7100000000000000000000000000000000000000000000000000000000600052604160045260246000fd5b60405160c0810167ffffffffffffffff81118282101715613a3257613a326139e0565b60405290565b604051601f82017fffffffffffffffffffffffffffffffffffffffffffffffffffffffffffffffe016810167ffffffffffffffff81118282101715613a7f57613a7f6139e0565b604052919050565b600067ffffffffffffffff821115613aa157613aa16139e0565b5060051b60200190565b600082601f830112613abc57600080fd5b81356020613ad1613acc83613a87565b613a38565b82815260059290921b84018101918181019086841115613af057600080fd5b8286015b84811015613b0b5780358352918301918301613af4565b509695505050505050565b600082601f830112613b2757600080fd5b81356020613b37613acc83613a87565b82815260059290921b84018101918181019086841115613b5657600080fd5b8286015b84811015613b0b57613b6b81613600565b8352918301918301613b5a565b600080600060608486031215613b8d57600080fd5b613b96846136ab565b9250602084013567ffffffffffffffff80821115613bb357600080fd5b9085019060c08288031215613bc757600080fd5b613bcf613a0f565b8235815260208301356020820152604083013582811115613bef57600080fd5b613bfb89828601613aab565b604083015250613c0d606084016136ab565b6060820152613c1e60808401613600565b608082015260a083013582811115613c3557600080fd5b613c4189828601613b16565b60a08301525093506040860135915080821115613c5d57600080fd5b50613c6a86828701613aab565b9150509250925092565b600067ffffffffffffffff821115613c8e57613c8e6139e0565b50601f017fffffffffffffffffffffffffffffffffffffffffffffffffffffffffffffffe01660200190565b600082601f830112613ccb57600080fd5b8135613cd9613acc82613c74565b818152846020838601011115613cee57600080fd5b816020850160208301376000918101602001919091529392505050565b60008060008060808587031215613d2157600080fd5b613d2a85613600565b9350613d386020860161370d565b9250613d46604086016136ab565b9150606085013567ffffffffffffffff811115613d6257600080fd5b613d6e87828801613cba565b91505092959194509250565b6000806000806000806000806000806101408b8d031215613d9a57600080fd5b613da38b613600565b9950613db160208c01613600565b9850613dbf60408c01613600565b975060608b0135965060808b01359550613ddb60a08c0161370d565b9450613de960c08c0161370d565b9350613df760e08c016136ab565b9250613e066101008c016136ab565b91506101208b013567ffffffffffffffff811115613e2357600080fd5b613e2f8d828e01613aab565b9150509295989b9194979a5092959850565b6000806000806000806000806000806000806101808d8f031215613e6457600080fd5b613e6d8d613600565b9b50613e7b60208e01613600565b9a50613e8960408e01613600565b995060608d0135985060808d0135975060a08d0135965060c08d01359550613eb360e08e0161370d565b9450613ec26101008e0161370d565b9350613ed16101208e0161370d565b9250613ee06101408e016136ab565b915067ffffffffffffffff6101608e01351115613efc57600080fd5b613f0d8e6101608f01358f01613cba565b90509295989b509295989b509295989b565b600060208284031215613f3157600080fd5b5051919050565b7f4e487b7100000000000000000000000000000000000000000000000000000000600052601160045260246000fd5b600063ffffffff83811690831681811015613f8457613f84613f38565b039392505050565b600063ffffffff808316818516808303821115613fab57613fab613f38565b01949350505050565b7f4e487b7100000000000000000000000000000000000000000000000000000000600052603260045260246000fd5b60008083357fffffffffffffffffffffffffffffffffffffffffffffffffffffffffffffffe184360301811261401857600080fd5b83018035915067ffffffffffffffff82111561403357600080fd5b6020019150368190038213156131e857600080fd5b8183823760009101908152919050565b6000614066613acc84613c74565b905082815283838301111561407a57600080fd5b6129f88360208301846138ea565b60006020828403121561409a57600080fd5b815167ffffffffffffffff8111156140b157600080fd5b8201601f810184136140c257600080fd5b612bf284825160208401614058565b6020815260006129f86020830184613916565b60007fffffffffffffffffffffffffffffffffffffffffffffffffffffffffffffffff820361411557614115613f38565b5060010190565b67ffffffffffffffff83168152604060208201526000612bf26040830184613916565b815173ffffffffffffffffffffffffffffffffffffffff90811682526020808401518216908301526040808401519182169083015261012082019050606083015160608301526080830151608083015260a083015160a083015260c08301516141b460c084018267ffffffffffffffff169052565b5060e08301516141d060e084018267ffffffffffffffff169052565b506101009283015163ffffffff16919092015290565b600067ffffffffffffffff808316818516808303821115613fab57613fab613f38565b60008282101561421b5761421b613f38565b500390565b6000821982111561423357614233613f38565b500190565b600063ffffffff80831681810361425157614251613f38565b6001019392505050565b600081518084526020808501945080840160005b8381101561428b5781518752958201959082019060010161426f565b509495945050505050565b600081518084526020808501945080840160005b8381101561428b57815173ffffffffffffffffffffffffffffffffffffffff16875295820195908201906001016142aa565b85815260a0602082015260006142f560a083018761425b565b73ffffffffffffffffffffffffffffffffffffffff808716604085015283820360608501526143248287614296565b9250808516608085015250509695505050505050565b60006020828403121561434c57600080fd5b81516129f88161365d565b600067ffffffffffffffff83811690831681811015613f8457613f84613f38565b6000817fffffffffffffffffffffffffffffffffffffffffffffffffffffffffffffffff04831182151516156143b0576143b0613f38565b500290565b7f4e487b7100000000000000000000000000000000000000000000000000000000600052601260045260246000fd5b6000826143f3576143f36143b5565b500490565b6020815281516020820152602082015160408201526000604083015160c0606084015261442860e084018261425b565b905063ffffffff606085015116608084015273ffffffffffffffffffffffffffffffffffffffff60808501511660a084015260a08401517fffffffffffffffffffffffffffffffffffffffffffffffffffffffffffffffe08483030160c08501526120a68282614296565b6000826144a2576144a26143b5565b500690565b600082516144b98184602087016138ea565b9190910192915050565b7f4e487b7100000000000000000000000000000000000000000000000000000000600052602160045260246000fdfea26469706673582212200366289a2afa53961ee89e12be7aa19d0583eb8987acfd894558f08599d1737364736f6c634300080d0033",
  "devdoc": {
    "kind": "dev",
    "methods": {
      "chainId()": {
        "details": "Some L2s like ZKSync don't support the CHAIN_ID opcode so we allow the implementer to override this."
      },
      "constructor": {
        "params": {
          "_crossDomainAdmin": "Cross domain admin to set. Can be changed by admin.",
          "_hubPool": "Hub pool address to set. Can be changed by admin.",
          "_l2GatewayRouter": "Address of L2 token gateway. Can be reset by admin.",
          "_wethAddress": "Weth address for this network to set.",
          "timerAddress": "Timer address to set."
        }
      },
      "deposit(address,address,uint256,uint256,uint64,uint32)": {
        "params": {
          "amount": "Amount of tokens to deposit. Will be amount of tokens to receive less fees.",
          "destinationChainId": "Denotes network where user will receive funds from SpokePool by a relayer.",
          "originToken": "Token to lock into this contract to initiate deposit.",
          "quoteTimestamp": "Timestamp used by relayers to compute this deposit's realizedLPFeePct which is paid to LP pool on HubPool.",
          "recipient": "Address to receive funds at on destination chain.",
          "relayerFeePct": "% of deposit amount taken out to incentivize a fast relayer."
        }
      },
      "emergencyDeleteRootBundle(uint256)": {
        "params": {
          "rootBundleId": "Index of the root bundle that needs to be deleted. Note: this is intentionally a uint256 to ensure that a small input range doesn't limit which indices this method is able to reach."
        }
      },
      "executeRelayerRefundRoot(uint32,(uint256,uint256,uint256[],uint32,address,address[]),bytes32[])": {
        "params": {
          "proof": "Inclusion proof for this leaf in relayer refund root in root bundle.",
          "relayerRefundLeaf": "Contains all data necessary to reconstruct leaf contained in root bundle and to refund relayer. This data structure is explained in detail in the SpokePoolInterface.",
          "rootBundleId": "Unique ID of root bundle containing relayer refund root that this leaf is contained in."
        }
      },
      "executeSlowRelayRoot(address,address,address,uint256,uint256,uint64,uint64,uint32,uint32,bytes32[])": {
        "details": "This function assumes that the relay's destination chain ID is the current chain ID, which prevents the caller from executing a slow relay intended for another chain on this chain.",
        "params": {
          "amount": "Full size of the deposit.",
          "depositId": "Unique deposit ID on origin spoke pool.",
          "depositor": "Depositor on origin chain who set this chain as the destination chain.",
          "destinationToken": "Token to send to recipient. Should be mapped to the origin token, origin chain ID and this chain ID via a mapping on the HubPool.",
          "originChainId": "Chain of SpokePool where deposit originated.",
          "proof": "Inclusion proof for this leaf in slow relay root in root bundle.",
          "realizedLpFeePct": "Fee % based on L1 HubPool utilization at deposit quote time. Deterministic based on quote time.",
          "recipient": "Specified recipient on this chain.",
          "relayerFeePct": "Original fee % to keep as relayer set by depositor.",
          "rootBundleId": "Unique ID of root bundle containing slow relay root that this leaf is contained in."
        }
      },
      "fillRelay(address,address,address,uint256,uint256,uint256,uint256,uint64,uint64,uint32)": {
        "params": {
          "amount": "Full size of the deposit.",
          "depositId": "Unique deposit ID on origin spoke pool.",
          "depositor": "Depositor on origin chain who set this chain as the destination chain.",
          "destinationToken": "Token to send to recipient. Should be mapped to the origin token, origin chain ID and this chain ID via a mapping on the HubPool.",
          "maxTokensToSend": "Max amount of tokens to send recipient. If higher than amount, then caller will send recipient the full relay amount.",
          "originChainId": "Chain of SpokePool where deposit originated.",
          "realizedLpFeePct": "Fee % based on L1 HubPool utilization at deposit quote time. Deterministic based on quote time.",
          "recipient": "Specified recipient on this chain.",
          "relayerFeePct": "Fee % to keep as relayer, specified by depositor.",
          "repaymentChainId": "Chain of SpokePool where relayer wants to be refunded after the challenge window has passed."
        }
      },
      "fillRelayWithUpdatedFee(address,address,address,uint256,uint256,uint256,uint256,uint64,uint64,uint64,uint32,bytes)": {
        "params": {
          "amount": "Full size of the deposit.",
          "depositId": "Unique deposit ID on origin spoke pool.",
          "depositor": "Depositor on origin chain who set this chain as the destination chain.",
          "depositorSignature": "Depositor-signed message containing updated fee %.",
          "destinationToken": "Token to send to recipient. Should be mapped to the origin token, origin chain ID and this chain ID via a mapping on the HubPool.",
          "maxTokensToSend": "Max amount of tokens to send recipient. If higher than amount, then caller will send recipient the full relay amount.",
          "newRelayerFeePct": "New fee % to keep as relayer also specified by depositor.",
          "originChainId": "Chain of SpokePool where deposit originated.",
          "realizedLpFeePct": "Fee % based on L1 HubPool utilization at deposit quote time. Deterministic based on quote time.",
          "recipient": "Specified recipient on this chain.",
          "relayerFeePct": "Original fee % to keep as relayer set by depositor.",
          "repaymentChainId": "Chain of SpokePool where relayer wants to be refunded after the challenge window has passed."
        }
      },
      "getCurrentTime()": {
        "returns": {
          "_0": "uint for the current Testable timestamp."
        }
      },
      "relayRootBundle(bytes32,bytes32)": {
        "params": {
          "relayerRefundRoot": "Merkle root containing relayer refund leaves that can be individually executed via executeRelayerRefundRoot().",
          "slowRelayRoot": "Merkle root containing slow relay fulfillment leaves that can be individually executed via executeSlowRelayRoot()."
        }
      },
      "setCrossDomainAdmin(address)": {
        "params": {
          "newCrossDomainAdmin": "New cross domain admin."
        }
      },
      "setCurrentTime(uint256)": {
        "details": "Will revert if not running in test mode.",
        "params": {
          "time": "timestamp to set current Testable time to."
        }
      },
      "setDepositQuoteTimeBuffer(uint32)": {
        "params": {
          "newDepositQuoteTimeBuffer": "New quote time buffer."
        }
      },
      "setEnableRoute(address,uint256,bool)": {
        "params": {
          "destinationChainId": "Chain ID for where depositor wants to receive funds.",
          "enabled": "True to enable deposits, False otherwise.",
          "originToken": "Token that depositor can deposit to this contract."
        }
      },
      "setHubPool(address)": {
        "params": {
          "newHubPool": "New hub pool."
        }
      },
      "setL2GatewayRouter(address)": {
        "params": {
          "newL2GatewayRouter": "New L2 gateway router."
        }
      },
      "speedUpDeposit(address,uint64,uint32,bytes)": {
        "params": {
          "depositId": "Deposit to update fee for that originated in this contract.",
          "depositor": "Signer of the update fee message who originally submitted the deposit. If the deposit doesn't exist, then the relayer will not be able to fill any relay, so the caller should validate that the depositor did in fact submit a relay.",
          "depositorSignature": "Signed message containing the depositor address, this contract chain ID, the updated relayer fee %, and the deposit ID. This signature is produced by signing a hash of data according to the EIP-191 standard. See more in the _verifyUpdateRelayerFeeMessage() comments.",
          "newRelayerFeePct": "New relayer fee that relayers can use."
        }
      },
      "whitelistToken(address,address)": {
        "params": {
          "l1Token": "Ethereum version of l2Token.",
          "l2Token": "Arbitrum token."
        }
      }
    },
    "version": 1
  },
  "userdoc": {
    "kind": "user",
    "methods": {
      "chainId()": {
        "notice": "Returns chain ID for this network."
      },
      "constructor": {
        "notice": "Construct the AVM SpokePool."
      },
      "deposit(address,address,uint256,uint256,uint64,uint32)": {
        "notice": "Called by user to bridge funds from origin to destination chain. Depositor will effectively lock tokens in this contract and receive a destination token on the destination chain. The origin => destination token mapping is stored on the L1 HubPool.The caller must first approve this contract to spend amount of originToken.The originToken => destinationChainId must be enabled.This method is payable because the caller is able to deposit ETH if the originToken is WETH and this function will handle wrapping ETH."
      },
      "emergencyDeleteRootBundle(uint256)": {
        "notice": "This method is intended to only be used in emergencies where a bad root bundle has reached the SpokePool."
      },
      "executeRelayerRefundRoot(uint32,(uint256,uint256,uint256[],uint32,address,address[]),bytes32[])": {
        "notice": "Executes a relayer refund leaf stored as part of a root bundle. Will send the relayer the amount they sent to the recipient plus a relayer fee."
      },
      "executeSlowRelayRoot(address,address,address,uint256,uint256,uint64,uint64,uint32,uint32,bytes32[])": {
        "notice": "Executes a slow relay leaf stored as part of a root bundle. Will send the full amount remaining in the relay to the recipient, less fees."
      },
      "fillRelay(address,address,address,uint256,uint256,uint256,uint256,uint64,uint64,uint32)": {
        "notice": "Called by relayer to fulfill part of a deposit by sending destination tokens to the recipient. Relayer is expected to pass in unique identifying information for deposit that they want to fulfill, and this relay submission will be validated by off-chain data workers who can dispute this relay if any part is invalid. If the relay is valid, then the relayer will be refunded on their desired repayment chain. If relay is invalid, then relayer will not receive any refund.All of the deposit data can be found via on-chain events from the origin SpokePool, except for the realizedLpFeePct which is a function of the HubPool's utilization at the deposit quote time. This fee % is deterministic based on the quote time, so the relayer should just compute it using the canonical algorithm as described in a UMIP linked to the HubPool's identifier."
      },
      "fillRelayWithUpdatedFee(address,address,address,uint256,uint256,uint256,uint256,uint64,uint64,uint64,uint32,bytes)": {
        "notice": "Called by relayer to execute same logic as calling fillRelay except that relayer is using an updated relayer fee %. The fee % must have been emitted in a message cryptographically signed by the depositor.By design, the depositor probably emitted the message with the updated fee by calling speedUpRelay()."
      },
      "getCurrentTime()": {
        "notice": "Gets the current time. Will return the last time set in `setCurrentTime` if running in test mode. Otherwise, it will return the block timestamp."
      },
      "relayRootBundle(bytes32,bytes32)": {
        "notice": "This method stores a new root bundle in this contract that can be executed to refund relayers, fulfill slow relays, and send funds back to the HubPool on L1. This method can only be called by the admin and is designed to be called as part of a cross-chain message from the HubPool's executeRootBundle method."
      },
      "setCrossDomainAdmin(address)": {
        "notice": "Change cross domain admin address. Callable by admin only."
      },
      "setCurrentTime(uint256)": {
        "notice": "Sets the current time."
      },
      "setDepositQuoteTimeBuffer(uint32)": {
        "notice": "Change allowance for deposit quote time to differ from current block time. Callable by admin only."
      },
      "setEnableRoute(address,uint256,bool)": {
        "notice": "Enable/Disable an origin token => destination chain ID route for deposits. Callable by admin only."
      },
      "setHubPool(address)": {
        "notice": "Change L1 hub pool address. Callable by admin only."
      },
      "setL2GatewayRouter(address)": {
        "notice": "Change L2 gateway router. Callable only by admin."
      },
      "speedUpDeposit(address,uint64,uint32,bytes)": {
        "notice": "Convenience method that depositor can use to signal to relayer to use updated fee.Relayer should only use events emitted by this function to submit fills with updated fees, otherwise they risk their fills getting disputed for being invalid, for example if the depositor never actually signed the update fee message.This function will revert if the depositor did not sign a message containing the updated fee for the deposit ID stored in this contract. If the deposit ID is for another contract, or the depositor address is incorrect, or the updated fee is incorrect, then the signature will not match and this function will revert."
      },
      "whitelistToken(address,address)": {
        "notice": "Add L2 -> L1 token mapping. Callable only by admin."
      }
    },
    "notice": "AVM specific SpokePool. Uses AVM cross-domain-enabled logic to implement admin only access to functions.",
    "version": 1
  },
  "storageLayout": {
    "storage": [
      {
        "astId": 5790,
        "contract": "contracts/Arbitrum_SpokePool.sol:Arbitrum_SpokePool",
        "label": "timerAddress",
        "offset": 0,
        "slot": "0",
        "type": "t_address"
      },
      {
        "astId": 7084,
        "contract": "contracts/Arbitrum_SpokePool.sol:Arbitrum_SpokePool",
        "label": "_notEntered",
        "offset": 20,
        "slot": "0",
        "type": "t_bool"
      },
      {
        "astId": 8179,
        "contract": "contracts/Arbitrum_SpokePool.sol:Arbitrum_SpokePool",
        "label": "crossDomainAdmin",
        "offset": 0,
        "slot": "1",
        "type": "t_address"
      },
      {
        "astId": 8181,
        "contract": "contracts/Arbitrum_SpokePool.sol:Arbitrum_SpokePool",
        "label": "hubPool",
        "offset": 0,
        "slot": "2",
        "type": "t_address"
      },
      {
        "astId": 8187,
        "contract": "contracts/Arbitrum_SpokePool.sol:Arbitrum_SpokePool",
        "label": "depositQuoteTimeBuffer",
        "offset": 20,
        "slot": "2",
        "type": "t_uint32"
      },
      {
        "astId": 8189,
        "contract": "contracts/Arbitrum_SpokePool.sol:Arbitrum_SpokePool",
        "label": "numberOfDeposits",
        "offset": 24,
        "slot": "2",
        "type": "t_uint32"
      },
      {
        "astId": 8195,
        "contract": "contracts/Arbitrum_SpokePool.sol:Arbitrum_SpokePool",
        "label": "enabledDepositRoutes",
        "offset": 0,
        "slot": "3",
        "type": "t_mapping(t_address,t_mapping(t_uint256,t_bool))"
      },
      {
        "astId": 8199,
        "contract": "contracts/Arbitrum_SpokePool.sol:Arbitrum_SpokePool",
        "label": "rootBundles",
        "offset": 0,
        "slot": "4",
        "type": "t_array(t_struct(RootBundle)9627_storage)dyn_storage"
      },
      {
        "astId": 8203,
        "contract": "contracts/Arbitrum_SpokePool.sol:Arbitrum_SpokePool",
        "label": "relayFills",
        "offset": 0,
        "slot": "5",
        "type": "t_mapping(t_bytes32,t_uint256)"
      },
      {
        "astId": 6582,
        "contract": "contracts/Arbitrum_SpokePool.sol:Arbitrum_SpokePool",
        "label": "l2GatewayRouter",
        "offset": 0,
        "slot": "6",
        "type": "t_address"
      },
      {
        "astId": 6586,
        "contract": "contracts/Arbitrum_SpokePool.sol:Arbitrum_SpokePool",
        "label": "whitelistedTokens",
        "offset": 0,
        "slot": "7",
        "type": "t_mapping(t_address,t_address)"
      }
    ],
    "types": {
      "t_address": {
        "encoding": "inplace",
        "label": "address",
        "numberOfBytes": "20"
      },
      "t_array(t_struct(RootBundle)9627_storage)dyn_storage": {
        "base": "t_struct(RootBundle)9627_storage",
        "encoding": "dynamic_array",
        "label": "struct SpokePoolInterface.RootBundle[]",
        "numberOfBytes": "32"
      },
      "t_bool": {
        "encoding": "inplace",
        "label": "bool",
        "numberOfBytes": "1"
      },
      "t_bytes32": {
        "encoding": "inplace",
        "label": "bytes32",
        "numberOfBytes": "32"
      },
      "t_mapping(t_address,t_address)": {
        "encoding": "mapping",
        "key": "t_address",
        "label": "mapping(address => address)",
        "numberOfBytes": "32",
        "value": "t_address"
      },
      "t_mapping(t_address,t_mapping(t_uint256,t_bool))": {
        "encoding": "mapping",
        "key": "t_address",
        "label": "mapping(address => mapping(uint256 => bool))",
        "numberOfBytes": "32",
        "value": "t_mapping(t_uint256,t_bool)"
      },
      "t_mapping(t_bytes32,t_uint256)": {
        "encoding": "mapping",
        "key": "t_bytes32",
        "label": "mapping(bytes32 => uint256)",
        "numberOfBytes": "32",
        "value": "t_uint256"
      },
      "t_mapping(t_uint256,t_bool)": {
        "encoding": "mapping",
        "key": "t_uint256",
        "label": "mapping(uint256 => bool)",
        "numberOfBytes": "32",
        "value": "t_bool"
      },
      "t_mapping(t_uint256,t_uint256)": {
        "encoding": "mapping",
        "key": "t_uint256",
        "label": "mapping(uint256 => uint256)",
        "numberOfBytes": "32",
        "value": "t_uint256"
      },
      "t_struct(RootBundle)9627_storage": {
        "encoding": "inplace",
        "label": "struct SpokePoolInterface.RootBundle",
        "members": [
          {
            "astId": 9620,
            "contract": "contracts/Arbitrum_SpokePool.sol:Arbitrum_SpokePool",
            "label": "slowRelayRoot",
            "offset": 0,
            "slot": "0",
            "type": "t_bytes32"
          },
          {
            "astId": 9622,
            "contract": "contracts/Arbitrum_SpokePool.sol:Arbitrum_SpokePool",
            "label": "relayerRefundRoot",
            "offset": 0,
            "slot": "1",
            "type": "t_bytes32"
          },
          {
            "astId": 9626,
            "contract": "contracts/Arbitrum_SpokePool.sol:Arbitrum_SpokePool",
            "label": "claimedBitmap",
            "offset": 0,
            "slot": "2",
            "type": "t_mapping(t_uint256,t_uint256)"
          }
        ],
        "numberOfBytes": "96"
      },
      "t_uint256": {
        "encoding": "inplace",
        "label": "uint256",
        "numberOfBytes": "32"
      },
      "t_uint32": {
        "encoding": "inplace",
        "label": "uint32",
        "numberOfBytes": "4"
      }
    }
  }
}