{
  "address": "0x68306388c266dce735245A0A6DAe6Dd3b727A640",
  "abi": [
    {
      "inputs": [
        {
          "internalType": "address",
          "name": "_l2GatewayRouter",
          "type": "address"
        },
        {
          "internalType": "address",
          "name": "_crossDomainAdmin",
          "type": "address"
        },
        {
          "internalType": "address",
          "name": "_hubPool",
          "type": "address"
        },
        {
          "internalType": "address",
          "name": "_wethAddress",
          "type": "address"
        },
        {
          "internalType": "address",
          "name": "timerAddress",
          "type": "address"
        }
      ],
      "stateMutability": "nonpayable",
      "type": "constructor"
    },
    {
      "anonymous": false,
      "inputs": [
        {
          "indexed": true,
          "internalType": "address",
          "name": "l1Token",
          "type": "address"
        },
        {
          "indexed": false,
          "internalType": "address",
          "name": "target",
          "type": "address"
        },
        {
          "indexed": false,
          "internalType": "uint256",
          "name": "numberOfTokensBridged",
          "type": "uint256"
        }
      ],
      "name": "ArbitrumTokensBridged",
      "type": "event"
    },
    {
      "anonymous": false,
      "inputs": [
        {
          "indexed": true,
          "internalType": "address",
          "name": "originToken",
          "type": "address"
        },
        {
          "indexed": true,
          "internalType": "uint256",
          "name": "destinationChainId",
          "type": "uint256"
        },
        {
          "indexed": false,
          "internalType": "bool",
          "name": "enabled",
          "type": "bool"
        }
      ],
      "name": "EnabledDepositRoute",
      "type": "event"
    },
    {
      "anonymous": false,
      "inputs": [
        {
          "indexed": false,
          "internalType": "uint256",
          "name": "amountToReturn",
          "type": "uint256"
        },
        {
          "indexed": false,
          "internalType": "uint256",
          "name": "chainId",
          "type": "uint256"
        },
        {
          "indexed": false,
          "internalType": "uint256[]",
          "name": "refundAmounts",
          "type": "uint256[]"
        },
        {
          "indexed": true,
          "internalType": "uint32",
          "name": "rootBundleId",
          "type": "uint32"
        },
        {
          "indexed": true,
          "internalType": "uint32",
          "name": "leafId",
          "type": "uint32"
        },
        {
          "indexed": false,
          "internalType": "address",
          "name": "l2TokenAddress",
          "type": "address"
        },
        {
          "indexed": false,
          "internalType": "address[]",
          "name": "refundAddresses",
          "type": "address[]"
        },
        {
          "indexed": true,
          "internalType": "address",
          "name": "caller",
          "type": "address"
        }
      ],
      "name": "ExecutedRelayerRefundRoot",
      "type": "event"
    },
    {
      "anonymous": false,
      "inputs": [
        {
          "indexed": true,
          "internalType": "bytes32",
          "name": "relayHash",
          "type": "bytes32"
        },
        {
          "indexed": false,
          "internalType": "uint256",
          "name": "totalRelayAmount",
          "type": "uint256"
        },
        {
          "indexed": false,
          "internalType": "uint256",
          "name": "totalFilledAmount",
          "type": "uint256"
        },
        {
          "indexed": false,
          "internalType": "uint256",
          "name": "fillAmount",
          "type": "uint256"
        },
        {
          "indexed": false,
          "internalType": "uint256",
          "name": "originChainId",
          "type": "uint256"
        },
        {
          "indexed": false,
          "internalType": "uint64",
          "name": "relayerFeePct",
          "type": "uint64"
        },
        {
          "indexed": false,
          "internalType": "uint64",
          "name": "realizedLpFeePct",
          "type": "uint64"
        },
        {
          "indexed": false,
          "internalType": "uint32",
          "name": "depositId",
          "type": "uint32"
        },
        {
          "indexed": false,
          "internalType": "address",
          "name": "destinationToken",
          "type": "address"
        },
        {
          "indexed": true,
          "internalType": "address",
          "name": "caller",
          "type": "address"
        },
        {
          "indexed": false,
          "internalType": "address",
          "name": "depositor",
          "type": "address"
        },
        {
          "indexed": false,
          "internalType": "address",
          "name": "recipient",
          "type": "address"
        }
      ],
      "name": "ExecutedSlowRelayFulfillmentRoot",
      "type": "event"
    },
    {
      "anonymous": false,
      "inputs": [
        {
          "indexed": true,
          "internalType": "bytes32",
          "name": "relayHash",
          "type": "bytes32"
        },
        {
          "indexed": false,
          "internalType": "uint256",
          "name": "totalRelayAmount",
          "type": "uint256"
        },
        {
          "indexed": false,
          "internalType": "uint256",
          "name": "totalFilledAmount",
          "type": "uint256"
        },
        {
          "indexed": false,
          "internalType": "uint256",
          "name": "fillAmount",
          "type": "uint256"
        },
        {
          "indexed": true,
          "internalType": "uint256",
          "name": "repaymentChain",
          "type": "uint256"
        },
        {
          "indexed": false,
          "internalType": "uint256",
          "name": "originChainId",
          "type": "uint256"
        },
        {
          "indexed": false,
          "internalType": "uint64",
          "name": "relayerFeePct",
          "type": "uint64"
        },
        {
          "indexed": false,
          "internalType": "uint64",
          "name": "realizedLpFeePct",
          "type": "uint64"
        },
        {
          "indexed": false,
          "internalType": "uint32",
          "name": "depositId",
          "type": "uint32"
        },
        {
          "indexed": false,
          "internalType": "address",
          "name": "destinationToken",
          "type": "address"
        },
        {
          "indexed": true,
          "internalType": "address",
          "name": "relayer",
          "type": "address"
        },
        {
          "indexed": false,
          "internalType": "address",
          "name": "depositor",
          "type": "address"
        },
        {
          "indexed": false,
          "internalType": "address",
          "name": "recipient",
          "type": "address"
        }
      ],
      "name": "FilledRelay",
      "type": "event"
    },
    {
      "anonymous": false,
      "inputs": [
        {
          "indexed": false,
          "internalType": "uint256",
          "name": "amount",
          "type": "uint256"
        },
        {
          "indexed": false,
          "internalType": "uint256",
          "name": "destinationChainId",
          "type": "uint256"
        },
        {
          "indexed": false,
          "internalType": "uint64",
          "name": "relayerFeePct",
          "type": "uint64"
        },
        {
          "indexed": true,
          "internalType": "uint32",
          "name": "depositId",
          "type": "uint32"
        },
        {
          "indexed": false,
          "internalType": "uint32",
          "name": "quoteTimestamp",
          "type": "uint32"
        },
        {
          "indexed": true,
          "internalType": "address",
          "name": "originToken",
          "type": "address"
        },
        {
          "indexed": false,
          "internalType": "address",
          "name": "recipient",
          "type": "address"
        },
        {
          "indexed": true,
          "internalType": "address",
          "name": "depositor",
          "type": "address"
        }
      ],
      "name": "FundsDeposited",
      "type": "event"
    },
    {
      "anonymous": false,
      "inputs": [
        {
          "indexed": true,
          "internalType": "uint32",
          "name": "rootBundleId",
          "type": "uint32"
        },
        {
          "indexed": false,
          "internalType": "bytes32",
          "name": "relayerRefundRoot",
          "type": "bytes32"
        },
        {
          "indexed": false,
          "internalType": "bytes32",
          "name": "slowRelayFulfillmentRoot",
          "type": "bytes32"
        }
      ],
      "name": "RelayedRootBundle",
      "type": "event"
    },
    {
      "anonymous": false,
      "inputs": [
        {
          "indexed": false,
          "internalType": "uint32",
          "name": "newBuffer",
          "type": "uint32"
        }
      ],
      "name": "SetDepositQuoteTimeBuffer",
      "type": "event"
    },
    {
      "anonymous": false,
      "inputs": [
        {
          "indexed": true,
          "internalType": "address",
          "name": "newHubPool",
          "type": "address"
        }
      ],
      "name": "SetHubPool",
      "type": "event"
    },
    {
      "anonymous": false,
      "inputs": [
        {
          "indexed": true,
          "internalType": "address",
          "name": "newL2GatewayRouter",
          "type": "address"
        }
      ],
      "name": "SetL2GatewayRouter",
      "type": "event"
    },
    {
      "anonymous": false,
      "inputs": [
        {
          "indexed": true,
          "internalType": "address",
          "name": "newAdmin",
          "type": "address"
        }
      ],
      "name": "SetXDomainAdmin",
      "type": "event"
    },
    {
      "anonymous": false,
      "inputs": [
        {
          "indexed": false,
          "internalType": "uint256",
          "name": "amountToReturn",
          "type": "uint256"
        },
        {
          "indexed": true,
          "internalType": "uint256",
          "name": "chainId",
          "type": "uint256"
        },
        {
          "indexed": true,
          "internalType": "uint32",
          "name": "leafId",
          "type": "uint32"
        },
        {
          "indexed": true,
          "internalType": "address",
          "name": "l2TokenAddress",
          "type": "address"
        },
        {
          "indexed": false,
          "internalType": "address",
          "name": "caller",
          "type": "address"
        }
      ],
      "name": "TokensBridged",
      "type": "event"
    },
    {
      "anonymous": false,
      "inputs": [
        {
          "indexed": true,
          "internalType": "address",
          "name": "l2Token",
          "type": "address"
        },
        {
          "indexed": true,
          "internalType": "address",
          "name": "l1Token",
          "type": "address"
        }
      ],
      "name": "WhitelistedTokens",
      "type": "event"
    },
    {
      "inputs": [],
      "name": "chainId",
      "outputs": [
        {
          "internalType": "uint256",
          "name": "",
          "type": "uint256"
        }
      ],
      "stateMutability": "view",
      "type": "function"
    },
    {
      "inputs": [],
      "name": "crossDomainAdmin",
      "outputs": [
        {
          "internalType": "address",
          "name": "",
          "type": "address"
        }
      ],
      "stateMutability": "view",
      "type": "function"
    },
    {
      "inputs": [],
      "name": "deploymentTime",
      "outputs": [
        {
          "internalType": "uint32",
          "name": "",
          "type": "uint32"
        }
      ],
      "stateMutability": "view",
      "type": "function"
    },
    {
      "inputs": [
        {
          "internalType": "address",
          "name": "recipient",
          "type": "address"
        },
        {
          "internalType": "address",
          "name": "originToken",
          "type": "address"
        },
        {
          "internalType": "uint256",
          "name": "amount",
          "type": "uint256"
        },
        {
          "internalType": "uint256",
          "name": "destinationChainId",
          "type": "uint256"
        },
        {
          "internalType": "uint64",
          "name": "relayerFeePct",
          "type": "uint64"
        },
        {
          "internalType": "uint32",
          "name": "quoteTimestamp",
          "type": "uint32"
        }
      ],
      "name": "deposit",
      "outputs": [],
      "stateMutability": "payable",
      "type": "function"
    },
    {
      "inputs": [],
      "name": "depositQuoteTimeBuffer",
      "outputs": [
        {
          "internalType": "uint32",
          "name": "",
          "type": "uint32"
        }
      ],
      "stateMutability": "view",
      "type": "function"
    },
    {
      "inputs": [
        {
          "internalType": "address",
          "name": "",
          "type": "address"
        },
        {
          "internalType": "uint256",
          "name": "",
          "type": "uint256"
        }
      ],
      "name": "enabledDepositRoutes",
      "outputs": [
        {
          "internalType": "bool",
          "name": "",
          "type": "bool"
        }
      ],
      "stateMutability": "view",
      "type": "function"
    },
    {
      "inputs": [
        {
          "internalType": "uint32",
          "name": "rootBundleId",
          "type": "uint32"
        },
        {
          "components": [
            {
              "internalType": "uint256",
              "name": "amountToReturn",
              "type": "uint256"
            },
            {
              "internalType": "uint256",
              "name": "chainId",
              "type": "uint256"
            },
            {
              "internalType": "uint256[]",
              "name": "refundAmounts",
              "type": "uint256[]"
            },
            {
              "internalType": "uint32",
              "name": "leafId",
              "type": "uint32"
            },
            {
              "internalType": "address",
              "name": "l2TokenAddress",
              "type": "address"
            },
            {
              "internalType": "address[]",
              "name": "refundAddresses",
              "type": "address[]"
            }
          ],
          "internalType": "struct SpokePoolInterface.RelayerRefundLeaf",
          "name": "relayerRefundLeaf",
          "type": "tuple"
        },
        {
          "internalType": "bytes32[]",
          "name": "proof",
          "type": "bytes32[]"
        }
      ],
      "name": "executeRelayerRefundRoot",
      "outputs": [],
      "stateMutability": "nonpayable",
      "type": "function"
    },
    {
      "inputs": [
        {
          "internalType": "address",
          "name": "depositor",
          "type": "address"
        },
        {
          "internalType": "address",
          "name": "recipient",
          "type": "address"
        },
        {
          "internalType": "address",
          "name": "destinationToken",
          "type": "address"
        },
        {
          "internalType": "uint256",
          "name": "totalRelayAmount",
          "type": "uint256"
        },
        {
          "internalType": "uint256",
          "name": "originChainId",
          "type": "uint256"
        },
        {
          "internalType": "uint64",
          "name": "realizedLpFeePct",
          "type": "uint64"
        },
        {
          "internalType": "uint64",
          "name": "relayerFeePct",
          "type": "uint64"
        },
        {
          "internalType": "uint32",
          "name": "depositId",
          "type": "uint32"
        },
        {
          "internalType": "uint32",
          "name": "rootBundleId",
          "type": "uint32"
        },
        {
          "internalType": "bytes32[]",
          "name": "proof",
          "type": "bytes32[]"
        }
      ],
      "name": "executeSlowRelayFulfillmentRoot",
      "outputs": [],
      "stateMutability": "nonpayable",
      "type": "function"
    },
    {
      "inputs": [
        {
          "internalType": "address",
          "name": "depositor",
          "type": "address"
        },
        {
          "internalType": "address",
          "name": "recipient",
          "type": "address"
        },
        {
          "internalType": "address",
          "name": "destinationToken",
          "type": "address"
        },
        {
          "internalType": "uint256",
          "name": "totalRelayAmount",
          "type": "uint256"
        },
        {
          "internalType": "uint256",
          "name": "maxTokensToSend",
          "type": "uint256"
        },
        {
          "internalType": "uint256",
          "name": "repaymentChain",
          "type": "uint256"
        },
        {
          "internalType": "uint256",
          "name": "originChainId",
          "type": "uint256"
        },
        {
          "internalType": "uint64",
          "name": "realizedLpFeePct",
          "type": "uint64"
        },
        {
          "internalType": "uint64",
          "name": "relayerFeePct",
          "type": "uint64"
        },
        {
          "internalType": "uint32",
          "name": "depositId",
          "type": "uint32"
        }
      ],
      "name": "fillRelay",
      "outputs": [],
      "stateMutability": "nonpayable",
      "type": "function"
    },
    {
      "inputs": [
        {
          "internalType": "address",
          "name": "depositor",
          "type": "address"
        },
        {
          "internalType": "address",
          "name": "recipient",
          "type": "address"
        },
        {
          "internalType": "address",
          "name": "destinationToken",
          "type": "address"
        },
        {
          "internalType": "uint256",
          "name": "totalRelayAmount",
          "type": "uint256"
        },
        {
          "internalType": "uint256",
          "name": "maxTokensToSend",
          "type": "uint256"
        },
        {
          "internalType": "uint256",
          "name": "repaymentChain",
          "type": "uint256"
        },
        {
          "internalType": "uint256",
          "name": "originChainId",
          "type": "uint256"
        },
        {
          "internalType": "uint64",
          "name": "realizedLpFeePct",
          "type": "uint64"
        },
        {
          "internalType": "uint64",
          "name": "relayerFeePct",
          "type": "uint64"
        },
        {
          "internalType": "uint64",
          "name": "newRelayerFeePct",
          "type": "uint64"
        },
        {
          "internalType": "uint32",
          "name": "depositId",
          "type": "uint32"
        },
        {
          "internalType": "bytes",
          "name": "depositorSignature",
          "type": "bytes"
        }
      ],
      "name": "fillRelayWithUpdatedFee",
      "outputs": [],
      "stateMutability": "nonpayable",
      "type": "function"
    },
    {
      "inputs": [],
      "name": "getCurrentTime",
      "outputs": [
        {
          "internalType": "uint256",
          "name": "",
          "type": "uint256"
        }
      ],
      "stateMutability": "view",
      "type": "function"
    },
    {
      "inputs": [],
      "name": "hubPool",
      "outputs": [
        {
          "internalType": "address",
          "name": "",
          "type": "address"
        }
      ],
      "stateMutability": "view",
      "type": "function"
    },
    {
      "inputs": [],
      "name": "l2GatewayRouter",
      "outputs": [
        {
          "internalType": "address",
          "name": "",
          "type": "address"
        }
      ],
      "stateMutability": "view",
      "type": "function"
    },
    {
      "inputs": [
        {
          "internalType": "bytes[]",
          "name": "data",
          "type": "bytes[]"
        }
      ],
      "name": "multicall",
      "outputs": [
        {
          "internalType": "bytes[]",
          "name": "results",
          "type": "bytes[]"
        }
      ],
      "stateMutability": "payable",
      "type": "function"
    },
    {
      "inputs": [],
      "name": "numberOfDeposits",
      "outputs": [
        {
          "internalType": "uint32",
          "name": "",
          "type": "uint32"
        }
      ],
      "stateMutability": "view",
      "type": "function"
    },
    {
      "inputs": [
        {
          "internalType": "bytes32",
          "name": "",
          "type": "bytes32"
        }
      ],
      "name": "relayFills",
      "outputs": [
        {
          "internalType": "uint256",
          "name": "",
          "type": "uint256"
        }
      ],
      "stateMutability": "view",
      "type": "function"
    },
    {
      "inputs": [
        {
          "internalType": "bytes32",
          "name": "relayerRefundRoot",
          "type": "bytes32"
        },
        {
          "internalType": "bytes32",
          "name": "slowRelayFulfillmentRoot",
          "type": "bytes32"
        }
      ],
      "name": "relayRootBundle",
      "outputs": [],
      "stateMutability": "nonpayable",
      "type": "function"
    },
    {
      "inputs": [
        {
          "internalType": "uint256",
          "name": "",
          "type": "uint256"
        }
      ],
      "name": "rootBundles",
      "outputs": [
        {
          "internalType": "bytes32",
          "name": "slowRelayFulfillmentRoot",
          "type": "bytes32"
        },
        {
          "internalType": "bytes32",
          "name": "relayerRefundRoot",
          "type": "bytes32"
        }
      ],
      "stateMutability": "view",
      "type": "function"
    },
    {
      "inputs": [
        {
          "internalType": "address",
          "name": "newCrossDomainAdmin",
          "type": "address"
        }
      ],
      "name": "setCrossDomainAdmin",
      "outputs": [],
      "stateMutability": "nonpayable",
      "type": "function"
    },
    {
      "inputs": [
        {
          "internalType": "uint256",
          "name": "time",
          "type": "uint256"
        }
      ],
      "name": "setCurrentTime",
      "outputs": [],
      "stateMutability": "nonpayable",
      "type": "function"
    },
    {
      "inputs": [
        {
          "internalType": "uint32",
          "name": "buffer",
          "type": "uint32"
        }
      ],
      "name": "setDepositQuoteTimeBuffer",
      "outputs": [],
      "stateMutability": "nonpayable",
      "type": "function"
    },
    {
      "inputs": [
        {
          "internalType": "address",
          "name": "originToken",
          "type": "address"
        },
        {
          "internalType": "uint256",
          "name": "destinationChainId",
          "type": "uint256"
        },
        {
          "internalType": "bool",
          "name": "enable",
          "type": "bool"
        }
      ],
      "name": "setEnableRoute",
      "outputs": [],
      "stateMutability": "nonpayable",
      "type": "function"
    },
    {
      "inputs": [
        {
          "internalType": "address",
          "name": "newHubPool",
          "type": "address"
        }
      ],
      "name": "setHubPool",
      "outputs": [],
      "stateMutability": "nonpayable",
      "type": "function"
    },
    {
      "inputs": [
        {
          "internalType": "address",
          "name": "newL2GatewayRouter",
          "type": "address"
        }
      ],
      "name": "setL2GatewayRouter",
      "outputs": [],
      "stateMutability": "nonpayable",
      "type": "function"
    },
    {
      "inputs": [],
      "name": "timerAddress",
      "outputs": [
        {
          "internalType": "address",
          "name": "",
          "type": "address"
        }
      ],
      "stateMutability": "view",
      "type": "function"
    },
    {
      "inputs": [],
      "name": "weth",
      "outputs": [
        {
          "internalType": "contract WETH9",
          "name": "",
          "type": "address"
        }
      ],
      "stateMutability": "view",
      "type": "function"
    },
    {
      "inputs": [
        {
          "internalType": "address",
          "name": "l2Token",
          "type": "address"
        },
        {
          "internalType": "address",
          "name": "l1Token",
          "type": "address"
        }
      ],
      "name": "whitelistToken",
      "outputs": [],
      "stateMutability": "nonpayable",
      "type": "function"
    },
    {
      "inputs": [
        {
          "internalType": "address",
          "name": "",
          "type": "address"
        }
      ],
      "name": "whitelistedTokens",
      "outputs": [
        {
          "internalType": "address",
          "name": "",
          "type": "address"
        }
      ],
      "stateMutability": "view",
      "type": "function"
    },
    {
      "stateMutability": "payable",
      "type": "receive"
    }
  ],
  "transactionHash": "0x24385f8e0c2473bb2d842f05956fa2f1e9b51f25b7fd392e11374a8aff2f3ed9",
  "args": [
    "0x9413AD42910c1eA60c737dB5f58d1C504498a3cD",
    "0xf116afc252687B487AceDcf3038790252D43fB83",
    "0xFA6326FdF1f149B63d116576fCfbc7e15cc0355A",
    "0xB47e6A5f8b33b3F17603C83a0535A9dcD7E32681",
    "0x0000000000000000000000000000000000000000"
  ],
  "numDeployments": 1,
  "solcInputHash": "cee77d8f3a5225b985a9cf3439956316",
  "bytecode": "0x60806040526003805463ffffffff60c01b1916604b60c31b1790553480156200002757600080fd5b5060405162004a1f38038062004a1f8339810160408190526200004a916200032d565b600080546001600160a81b0319166001600160a01b03831617600160a01b179055838383836200007a84620000e9565b62000085836200018f565b6200008f62000231565b600380546001600160a01b039094166001600160a01b031963ffffffff93909316600160a01b02929092166001600160c01b0319909416939093171790915550620000de9150869050620002c6565b5050505050620003b7565b6001600160a01b038116620001455760405162461bcd60e51b815260206004820152601960248201527f4261642062726964676520726f7574657220616464726573730000000000000060448201526064015b60405180910390fd5b600180546001600160a01b0319166001600160a01b0383169081179091556040517fa9e8c42c9e7fca7f62755189a16b2f5314d43d8fb24e91ba54e6d65f9314e84990600090a250565b6001600160a01b038116620001e75760405162461bcd60e51b815260206004820152601460248201527f4261642068756220706f6f6c206164647265737300000000000000000000000060448201526064016200013c565b600280546001600160a01b0319166001600160a01b0383169081179091556040517f1f17a88f67b0f49060a34bec1a4723a563620e6aa265eb640b5046dcee0759a090600090a250565b600080546001600160a01b031615620002c15760008054906101000a90046001600160a01b03166001600160a01b03166329cb924d6040518163ffffffff1660e01b8152600401602060405180830381865afa15801562000296573d6000803e3d6000fd5b505050506040513d601f19601f82011682018060405250810190620002bc91906200039d565b905090565b504290565b600780546001600160a01b0319166001600160a01b0383169081179091556040517fdc4a5f4c066ad14c1306e624550b42395e08f992a76b416cc7b1ad11503d376c90600090a250565b80516001600160a01b03811681146200032857600080fd5b919050565b600080600080600060a086880312156200034657600080fd5b620003518662000310565b9450620003616020870162000310565b9350620003716040870162000310565b9250620003816060870162000310565b9150620003916080870162000310565b90509295509295909350565b600060208284031215620003b057600080fd5b5051919050565b61465880620003c76000396000f3fe6080604052600436106101bb5760003560e01c806389a153cc116100ec578063de7eba781161008a578063ee2a53f811610064578063ee2a53f8146105cb578063f06850f614610600578063fe45399c1461062d578063ffc351a31461064d57600080fd5b8063de7eba7814610549578063e190440214610569578063ecda10f51461059657600080fd5b8063ac9650d8116100c6578063ac9650d814610499578063c8356859146104b9578063c894c0ca146104e6578063daf9c2101461050657600080fd5b806389a153cc146104295780639a8a059214610449578063a1244c671461045c57600080fd5b80633fc8cef3116101595780634e3485c8116101335780634e3485c8146103435780635249fef1146103635780635285e058146103ae57806357f6dcb8146103db57600080fd5b80633fc8cef3146102e35780634922897814610310578063493a4f841461032357600080fd5b8063272751c711610195578063272751c7146102605780632752042e1461028057806329cb924d146102a0578063364f01a6146102c357600080fd5b80631c39c38d146101c75780631dfb2d021461021e57806322f8e5661461024057600080fd5b366101c257005b600080fd5b3480156101d357600080fd5b506000546101f49073ffffffffffffffffffffffffffffffffffffffff1681565b60405173ffffffffffffffffffffffffffffffffffffffff90911681526020015b60405180910390f35b34801561022a57600080fd5b5061023e6102393660046137b2565b61066d565b005b34801561024c57600080fd5b5061023e61025b3660046137cd565b6107c1565b34801561026c57600080fd5b5061023e61027b3660046137f4565b61086a565b34801561028c57600080fd5b5061023e61029b366004613848565b6109bd565b3480156102ac57600080fd5b506102b5610ac5565b604051908152602001610215565b3480156102cf57600080fd5b5061023e6102de366004613863565b610b7d565b3480156102ef57600080fd5b506003546101f49073ffffffffffffffffffffffffffffffffffffffff1681565b61023e61031e3660046138ae565b610cce565b34801561032f57600080fd5b5061023e61033e366004613914565b61117a565b34801561034f57600080fd5b5061023e61035e3660046137b2565b611283565b34801561036f57600080fd5b5061039e61037e366004613936565b600460209081526000928352604080842090915290825290205460ff1681565b6040519015158152602001610215565b3480156103ba57600080fd5b506001546101f49073ffffffffffffffffffffffffffffffffffffffff1681565b3480156103e757600080fd5b50600354610414907801000000000000000000000000000000000000000000000000900463ffffffff1681565b60405163ffffffff9091168152602001610215565b34801561043557600080fd5b5061023e610444366004613960565b61138b565b34801561045557600080fd5b50466102b5565b34801561046857600080fd5b50600354610414907c0100000000000000000000000000000000000000000000000000000000900463ffffffff1681565b6104ac6104a73660046139fe565b6114d9565b6040516102159190613ae9565b3480156104c557600080fd5b506007546101f49073ffffffffffffffffffffffffffffffffffffffff1681565b3480156104f257600080fd5b5061023e610501366004613d01565b6116b3565b34801561051257600080fd5b506101f46105213660046137b2565b60086020526000908152604090205473ffffffffffffffffffffffffffffffffffffffff1681565b34801561055557600080fd5b5061023e6105643660046137b2565b611b8d565b34801561057557600080fd5b506002546101f49073ffffffffffffffffffffffffffffffffffffffff1681565b3480156105a257600080fd5b506003546104149074010000000000000000000000000000000000000000900463ffffffff1681565b3480156105d757600080fd5b506105eb6105e63660046137cd565b611c95565b60408051928352602083019190915201610215565b34801561060c57600080fd5b506102b561061b3660046137cd565b60066020526000908152604090205481565b34801561063957600080fd5b5061023e610648366004613dfd565b611cc3565b34801561065957600080fd5b5061023e610668366004613f5b565b611ee5565b6001546106a39073ffffffffffffffffffffffffffffffffffffffff167311110000000000000000000000000000000011110190565b73ffffffffffffffffffffffffffffffffffffffff163373ffffffffffffffffffffffffffffffffffffffff161461073c576040517f08c379a000000000000000000000000000000000000000000000000000000000815260206004820152601860248201527f4f4e4c595f434f554e544552504152545f47415445574159000000000000000060448201526064015b60405180910390fd5b6107446120cb565b610771600080547fffffffffffffffffffffff00ffffffffffffffffffffffffffffffffffffffff169055565b61077a81612151565b6107be600080547fffffffffffffffffffffff00ffffffffffffffffffffffffffffffffffffffff1674010000000000000000000000000000000000000000179055565b50565b60005473ffffffffffffffffffffffffffffffffffffffff166107e357600080fd5b6000546040517f22f8e5660000000000000000000000000000000000000000000000000000000081526004810183905273ffffffffffffffffffffffffffffffffffffffff909116906322f8e56690602401600060405180830381600087803b15801561084f57600080fd5b505af1158015610863573d6000803e3d6000fd5b5050505050565b6001546108a09073ffffffffffffffffffffffffffffffffffffffff167311110000000000000000000000000000000011110190565b73ffffffffffffffffffffffffffffffffffffffff163373ffffffffffffffffffffffffffffffffffffffff1614610934576040517f08c379a000000000000000000000000000000000000000000000000000000000815260206004820152601860248201527f4f4e4c595f434f554e544552504152545f4741544557415900000000000000006044820152606401610733565b61093c6120cb565b610969600080547fffffffffffffffffffffff00ffffffffffffffffffffffffffffffffffffffff169055565b61097483838361223d565b6109b8600080547fffffffffffffffffffffff00ffffffffffffffffffffffffffffffffffffffff1674010000000000000000000000000000000000000000179055565b505050565b6001546109f39073ffffffffffffffffffffffffffffffffffffffff167311110000000000000000000000000000000011110190565b73ffffffffffffffffffffffffffffffffffffffff163373ffffffffffffffffffffffffffffffffffffffff1614610a87576040517f08c379a000000000000000000000000000000000000000000000000000000000815260206004820152601860248201527f4f4e4c595f434f554e544552504152545f4741544557415900000000000000006044820152606401610733565b610a8f6120cb565b610abc600080547fffffffffffffffffffffff00ffffffffffffffffffffffffffffffffffffffff169055565b61077a816122d4565b6000805473ffffffffffffffffffffffffffffffffffffffff1615610b785760008054906101000a900473ffffffffffffffffffffffffffffffffffffffff1673ffffffffffffffffffffffffffffffffffffffff166329cb924d6040518163ffffffff1660e01b8152600401602060405180830381865afa158015610b4f573d6000803e3d6000fd5b505050506040513d601f19601f82011682018060405250810190610b739190614039565b905090565b504290565b600154610bb39073ffffffffffffffffffffffffffffffffffffffff167311110000000000000000000000000000000011110190565b73ffffffffffffffffffffffffffffffffffffffff163373ffffffffffffffffffffffffffffffffffffffff1614610c47576040517f08c379a000000000000000000000000000000000000000000000000000000000815260206004820152601860248201527f4f4e4c595f434f554e544552504152545f4741544557415900000000000000006044820152606401610733565b610c4f6120cb565b610c7c600080547fffffffffffffffffffffff00ffffffffffffffffffffffffffffffffffffffff169055565b610c86828261235b565b610cca600080547fffffffffffffffffffffff00ffffffffffffffffffffffffffffffffffffffff1674010000000000000000000000000000000000000000179055565b5050565b73ffffffffffffffffffffffffffffffffffffffff851660009081526004602090815260408083208684529091529020548590849060ff16610d6c576040517f08c379a000000000000000000000000000000000000000000000000000000000815260206004820152600e60248201527f44697361626c656420726f7574650000000000000000000000000000000000006044820152606401610733565b610d746120cb565b610da1600080547fffffffffffffffffffffff00ffffffffffffffffffffffffffffffffffffffff169055565b6706f05b59d3b200008467ffffffffffffffff161115610e1d576040517f08c379a000000000000000000000000000000000000000000000000000000000815260206004820152601360248201527f696e76616c69642072656c6179657220666565000000000000000000000000006044820152606401610733565b600354610e4c907801000000000000000000000000000000000000000000000000900463ffffffff1684614081565b63ffffffff16610e5a610ac5565b10158015610ea35750600354610e92907801000000000000000000000000000000000000000000000000900463ffffffff16846140a6565b63ffffffff16610ea0610ac5565b11155b610f09576040517f08c379a000000000000000000000000000000000000000000000000000000000815260206004820152601260248201527f696e76616c69642071756f74652074696d6500000000000000000000000000006044820152606401610733565b60035473ffffffffffffffffffffffffffffffffffffffff8881169116148015610f335750600034115b1561102957853414610fa1576040517f08c379a000000000000000000000000000000000000000000000000000000000815260206004820152601b60248201527f6d73672e76616c7565206d757374206d6174636820616d6f756e7400000000006044820152606401610733565b600360009054906101000a900473ffffffffffffffffffffffffffffffffffffffff1673ffffffffffffffffffffffffffffffffffffffff1663d0e30db0346040518263ffffffff1660e01b81526004016000604051808303818588803b15801561100b57600080fd5b505af115801561101f573d6000803e3d6000fd5b505050505061104b565b61104b73ffffffffffffffffffffffffffffffffffffffff88163330896123d7565b600354604080518881526020810188905267ffffffffffffffff87168183015263ffffffff868116606083015273ffffffffffffffffffffffffffffffffffffffff8c8116608084015292513394938c16937c01000000000000000000000000000000000000000000000000000000009004909116917ffc53c5b967d467d4136291c639720626f3d6dda97b4364da813e6858ad48a721919081900360a00190a460016003601c8282829054906101000a900463ffffffff1661110e91906140a6565b92506101000a81548163ffffffff021916908363ffffffff160217905550611170600080547fffffffffffffffffffffff00ffffffffffffffffffffffffffffffffffffffff1674010000000000000000000000000000000000000000179055565b5050505050505050565b6001546111b09073ffffffffffffffffffffffffffffffffffffffff167311110000000000000000000000000000000011110190565b73ffffffffffffffffffffffffffffffffffffffff163373ffffffffffffffffffffffffffffffffffffffff1614611244576040517f08c379a000000000000000000000000000000000000000000000000000000000815260206004820152601860248201527f4f4e4c595f434f554e544552504152545f4741544557415900000000000000006044820152606401610733565b61124c6120cb565b611279600080547fffffffffffffffffffffff00ffffffffffffffffffffffffffffffffffffffff169055565b610c8682826124b9565b6001546112b99073ffffffffffffffffffffffffffffffffffffffff167311110000000000000000000000000000000011110190565b73ffffffffffffffffffffffffffffffffffffffff163373ffffffffffffffffffffffffffffffffffffffff161461134d576040517f08c379a000000000000000000000000000000000000000000000000000000000815260206004820152601860248201527f4f4e4c595f434f554e544552504152545f4741544557415900000000000000006044820152606401610733565b6113556120cb565b611382600080547fffffffffffffffffffffff00ffffffffffffffffffffffffffffffffffffffff169055565b61077a8161255f565b6113936120cb565b6113c0600080547fffffffffffffffffffffff00ffffffffffffffffffffffffffffffffffffffff169055565b60006040518061010001604052808c73ffffffffffffffffffffffffffffffffffffffff1681526020018b73ffffffffffffffffffffffffffffffffffffffff1681526020018a73ffffffffffffffffffffffffffffffffffffffff1681526020018981526020018681526020018567ffffffffffffffff1681526020018467ffffffffffffffff1681526020018363ffffffff1681525090506000611465826125ce565b9050600061147782848b8860006125fe565b905061148682828a88876128a1565b5050506114cd600080547fffffffffffffffffffffff00ffffffffffffffffffffffffffffffffffffffff1674010000000000000000000000000000000000000000179055565b50505050505050505050565b60603415611543576040517f08c379a000000000000000000000000000000000000000000000000000000000815260206004820152601b60248201527f4f6e6c79206d756c746963616c6c207769746820302076616c756500000000006044820152606401610733565b8167ffffffffffffffff81111561155c5761155c613b69565b60405190808252806020026020018201604052801561158f57816020015b606081526020019060019003908161157a5790505b50905060005b828110156116ac57600080308686858181106115b3576115b36140ce565b90506020028101906115c591906140fd565b6040516115d3929190614162565b600060405180830381855af49150503d806000811461160e576040519150601f19603f3d011682016040523d82523d6000602084013e611613565b606091505b5091509150816116795760448151101561162c57600080fd5b6004810190508080602001905181019061164691906141a2565b6040517f08c379a000000000000000000000000000000000000000000000000000000000815260040161073391906141f3565b8084848151811061168c5761168c6140ce565b6020026020010181905250505080806116a490614206565b915050611595565b5092915050565b6116bb6120cb565b6116e8600080547fffffffffffffffffffffff00ffffffffffffffffffffffffffffffffffffffff169055565b46826020015114611755576040517f08c379a000000000000000000000000000000000000000000000000000000000815260206004820152600f60248201527f496e76616c696420636861696e496400000000000000000000000000000000006044820152606401610733565b8160400151518260a0015151146117c8576040517f08c379a000000000000000000000000000000000000000000000000000000000815260206004820152600c60248201527f696e76616c6964206c65616600000000000000000000000000000000000000006044820152606401610733565b600060058463ffffffff16815481106117e3576117e36140ce565b90600052602060002090600302019050611802816001015484846129a6565b611868576040517f08c379a000000000000000000000000000000000000000000000000000000000815260206004820152600960248201527f4261642050726f6f6600000000000000000000000000000000000000000000006044820152606401610733565b61187f81600201846060015163ffffffff166129e3565b156118e6576040517f08c379a000000000000000000000000000000000000000000000000000000000815260206004820152600f60248201527f416c726561647920636c61696d656400000000000000000000000000000000006044820152606401610733565b6118fd81600201846060015163ffffffff16612a24565b471561198757600360009054906101000a900473ffffffffffffffffffffffffffffffffffffffff1673ffffffffffffffffffffffffffffffffffffffff1663d0e30db0476040518263ffffffff1660e01b81526004016000604051808303818588803b15801561196d57600080fd5b505af1158015611981573d6000803e3d6000fd5b50505050505b60005b8360400151518163ffffffff161015611a3357600084604001518263ffffffff16815181106119bb576119bb6140ce565b602002602001015190506000811115611a2057611a208560a001518363ffffffff16815181106119ed576119ed6140ce565b602002602001015182876080015173ffffffffffffffffffffffffffffffffffffffff16612a629092919063ffffffff16565b5080611a2b8161423f565b91505061198a565b50825115611acc57611a4483612ab8565b826080015173ffffffffffffffffffffffffffffffffffffffff16836060015163ffffffff1684602001517f828fc203220356df8f072a91681caee7d5c75095e2a95e80ed5a14b384697f71866000015133604051611ac392919091825273ffffffffffffffffffffffffffffffffffffffff16602082015260400190565b60405180910390a45b3373ffffffffffffffffffffffffffffffffffffffff16836060015163ffffffff168563ffffffff167ff8bd640004bcec1b89657020f561d0b070cbdf662d0b158db9dccb0a8301bfab86600001518760200151886040015189608001518a60a00151604051611b409594939291906142e4565b60405180910390a4506109b8600080547fffffffffffffffffffffff00ffffffffffffffffffffffffffffffffffffffff1674010000000000000000000000000000000000000000179055565b600154611bc39073ffffffffffffffffffffffffffffffffffffffff167311110000000000000000000000000000000011110190565b73ffffffffffffffffffffffffffffffffffffffff163373ffffffffffffffffffffffffffffffffffffffff1614611c57576040517f08c379a000000000000000000000000000000000000000000000000000000000815260206004820152601860248201527f4f4e4c595f434f554e544552504152545f4741544557415900000000000000006044820152606401610733565b611c5f6120cb565b611c8c600080547fffffffffffffffffffffff00ffffffffffffffffffffffffffffffffffffffff169055565b61077a81612c06565b60058181548110611ca557600080fd5b60009182526020909120600390910201805460019091015490915082565b611ccb6120cb565b611cf8600080547fffffffffffffffffffffff00ffffffffffffffffffffffffffffffffffffffff169055565b60006040518061010001604052808c73ffffffffffffffffffffffffffffffffffffffff1681526020018b73ffffffffffffffffffffffffffffffffffffffff1681526020018a73ffffffffffffffffffffffffffffffffffffffff1681526020018981526020018881526020018767ffffffffffffffff1681526020018667ffffffffffffffff1681526020018563ffffffff168152509050611dc760058463ffffffff1681548110611dae57611dae6140ce565b9060005260206000209060030201600001548284612cf2565b611e2d576040517f08c379a000000000000000000000000000000000000000000000000000000000815260206004820152600d60248201527f496e76616c69642070726f6f66000000000000000000000000000000000000006044820152606401610733565b6000611e38826125ce565b90504715611ec457600360009054906101000a900473ffffffffffffffffffffffffffffffffffffffff1673ffffffffffffffffffffffffffffffffffffffff1663d0e30db0476040518263ffffffff1660e01b81526004016000604051808303818588803b158015611eaa57600080fd5b505af1158015611ebe573d6000803e3d6000fd5b50505050505b6000611ed8828485606001518a60016125fe565b9050611486828285612d0a565b611eed6120cb565b611f1a600080547fffffffffffffffffffffff00ffffffffffffffffffffffffffffffffffffffff169055565b60408051608060208201819052601160a08301527f4143524f53532d56322d4645452d312e3000000000000000000000000000000060c083015267ffffffffffffffff86169282019290925263ffffffff8416606082015290810187905260009060e0016040516020818303038152906040528051906020012090506000611fa182612e03565b9050611fae8e8285612e3e565b505060006040518061010001604052808e73ffffffffffffffffffffffffffffffffffffffff1681526020018d73ffffffffffffffffffffffffffffffffffffffff1681526020018c73ffffffffffffffffffffffffffffffffffffffff1681526020018b81526020018881526020018767ffffffffffffffff1681526020018667ffffffffffffffff1681526020018463ffffffff1681525090506000612055826125ce565b9050600061206782848d8960006125fe565b905061207682828c89876128a1565b5050506120bd600080547fffffffffffffffffffffff00ffffffffffffffffffffffffffffffffffffffff1674010000000000000000000000000000000000000000179055565b505050505050505050505050565b60005474010000000000000000000000000000000000000000900460ff1661214f576040517f08c379a000000000000000000000000000000000000000000000000000000000815260206004820152601f60248201527f5265656e7472616e637947756172643a207265656e7472616e742063616c6c006044820152606401610733565b565b73ffffffffffffffffffffffffffffffffffffffff81166121ce576040517f08c379a000000000000000000000000000000000000000000000000000000000815260206004820152601460248201527f4261642068756220706f6f6c20616464726573730000000000000000000000006044820152606401610733565b600280547fffffffffffffffffffffffff00000000000000000000000000000000000000001673ffffffffffffffffffffffffffffffffffffffff83169081179091556040517f1f17a88f67b0f49060a34bec1a4723a563620e6aa265eb640b5046dcee0759a090600090a250565b73ffffffffffffffffffffffffffffffffffffffff8316600081815260046020908152604080832086845282529182902080547fffffffffffffffffffffffffffffffffffffffffffffffffffffffffffffff001685151590811790915591519182528492917f0a21fdd43d0ad0c62689ee7230a47309a050755bcc52eba00310add65297692a91015b60405180910390a3505050565b600380547fffffffff00000000ffffffffffffffffffffffffffffffffffffffffffffffff16780100000000000000000000000000000000000000000000000063ffffffff8416908102919091179091556040519081527f0e55dd180fa793d9036c804d0a116e6a7617a48e72cee1f83d92793a793fcc039060200160405180910390a150565b73ffffffffffffffffffffffffffffffffffffffff82811660008181526008602052604080822080547fffffffffffffffffffffffff0000000000000000000000000000000000000000169486169485179055517f8d7f294eaa476236fe8cb5629376a12cd37dace3d21e6a7b98f1641c4ed5f09e9190a35050565b60405173ffffffffffffffffffffffffffffffffffffffff808516602483015283166044820152606481018290526124b39085907f23b872dd00000000000000000000000000000000000000000000000000000000906084015b604080517fffffffffffffffffffffffffffffffffffffffffffffffffffffffffffffffe08184030181529190526020810180517bffffffffffffffffffffffffffffffffffffffffffffffffffffffff167fffffffff0000000000000000000000000000000000000000000000000000000090931692909217909152612eaf565b50505050565b60058054600181018255600091909152600381027f036b6384b5eca791c62761152d0c79bb0604c104a5fb6f4eb0703f3154bb3db181018490557f036b6384b5eca791c62761152d0c79bb0604c104a5fb6f4eb0703f3154bb3db001828155604080518581526020810185905263ffffffff8416917fc86ba04c55bc5eb2f2876b91c438849a296dbec7b08751c3074d92e04f0a77af910160405180910390a250505050565b600780547fffffffffffffffffffffffff00000000000000000000000000000000000000001673ffffffffffffffffffffffffffffffffffffffff83169081179091556040517fdc4a5f4c066ad14c1306e624550b42395e08f992a76b416cc7b1ad11503d376c90600090a250565b6000816040516020016125e19190614331565b604051602081830303815290604052805190602001209050919050565b60006706f05b59d3b200008367ffffffffffffffff1610801561263657506706f05b59d3b200008560a0015167ffffffffffffffff16105b61269c576040517f08c379a000000000000000000000000000000000000000000000000000000000815260206004820152600c60248201527f696e76616c6964206665657300000000000000000000000000000000000000006044820152606401610733565b606085015160008781526006602052604090205410612717576040517f08c379a000000000000000000000000000000000000000000000000000000000815260206004820152600c60248201527f72656c61792066696c6c656400000000000000000000000000000000000000006044820152606401610733565b50600083156128985761273984848760a0015161273491906143bd565b612fbb565b60008781526006602052604090205460608701519192508591839161275d916143e0565b101561279f57600087815260066020526040902054606087015161278191906143e0565b915061279c82858860a0015161279791906143bd565b612ff5565b90505b600087815260066020526040812080548492906127bd9084906143f7565b9091555050600354604087015173ffffffffffffffffffffffffffffffffffffffff9081169116141561282957826128165760408601516128169073ffffffffffffffffffffffffffffffffffffffff163330846123d7565b61282486602001518261301e565b612896565b826128635761282433876020015183896040015173ffffffffffffffffffffffffffffffffffffffff166123d7909392919063ffffffff16565b612896866020015182886040015173ffffffffffffffffffffffffffffffffffffffff16612a629092919063ffffffff16565b505b95945050505050565b3373ffffffffffffffffffffffffffffffffffffffff1683867f393f1765f382b5310a9186fa707a84040f8241b280a30b74112689a92a156f698460600151600660008b815260200190815260200160002054898760800151898960a001518a60e001518b604001518c600001518d602001516040516129979a99989796959493929190998a5260208a01989098526040890196909652606088019490945267ffffffffffffffff9283166080880152911660a086015263ffffffff1660c085015273ffffffffffffffffffffffffffffffffffffffff90811660e0850152908116610100840152166101208201526101400190565b60405180910390a45050505050565b60006129d98285856040516020016129be919061440f565b60405160208183030381529060405280519060200120613126565b90505b9392505050565b6000806129f2610100846144d9565b90506000612a02610100856144ed565b6000928352602095909552506040902054600190931b92831690921492915050565b6000612a32610100836144d9565b90506000612a42610100846144ed565b600092835260209490945250604090208054600190931b90921790915550565b60405173ffffffffffffffffffffffffffffffffffffffff83166024820152604481018290526109b89084907fa9059cbb0000000000000000000000000000000000000000000000000000000090606401612431565b60075460808281015173ffffffffffffffffffffffffffffffffffffffff90811660009081526008602052604080822054600254875192517f7b3a3c8b00000000000000000000000000000000000000000000000000000000815291851660048301528416602482015260448101919091526064810193909352608483015290911690637b3a3c8b9060a4016000604051808303816000875af1158015612b63573d6000803e3d6000fd5b505050506040513d6000823e601f3d9081017fffffffffffffffffffffffffffffffffffffffffffffffffffffffffffffffe0168201604052612ba991908101906141a2565b5060025481516040805173ffffffffffffffffffffffffffffffffffffffff909316835260208301919091526000917f997d81a0a8415d688a6c319736602098252bf6445e0e879326f682f11928e317910160405180910390a250565b73ffffffffffffffffffffffffffffffffffffffff8116612c83576040517f08c379a000000000000000000000000000000000000000000000000000000000815260206004820152601960248201527f4261642062726964676520726f757465722061646472657373000000000000006044820152606401610733565b600180547fffffffffffffffffffffffff00000000000000000000000000000000000000001673ffffffffffffffffffffffffffffffffffffffff83169081179091556040517fa9e8c42c9e7fca7f62755189a16b2f5314d43d8fb24e91ba54e6d65f9314e84990600090a250565b60006129d98285856040516020016129be9190614331565b3373ffffffffffffffffffffffffffffffffffffffff16837fc1c02fe71abee2530563583daac3d7b681ef4c00db95adc3847b886da8098bc1836060015160066000888152602001908152602001600020548686608001518760c001518860a001518960e001518a604001518b600001518c602001516040516122c79a99989796959493929190998a5260208a01989098526040890196909652606088019490945267ffffffffffffffff9283166080880152911660a086015263ffffffff1660c085015273ffffffffffffffffffffffffffffffffffffffff90811660e0850152908116610100840152166101208201526101400190565b6040517f19457468657265756d205369676e6564204d6573736167653a0a3332000000006020820152603c8101829052600090605c016125e1565b612e4983838361313c565b6109b8576040517f08c379a000000000000000000000000000000000000000000000000000000000815260206004820152601160248201527f696e76616c6964207369676e61747572650000000000000000000000000000006044820152606401610733565b6000612f11826040518060400160405280602081526020017f5361666545524332303a206c6f772d6c6576656c2063616c6c206661696c65648152508573ffffffffffffffffffffffffffffffffffffffff1661332b9092919063ffffffff16565b8051909150156109b85780806020019051810190612f2f9190614501565b6109b8576040517f08c379a000000000000000000000000000000000000000000000000000000000815260206004820152602a60248201527f5361666545524332303a204552433230206f7065726174696f6e20646964206e60448201527f6f742073756363656564000000000000000000000000000000000000000000006064820152608401610733565b6000612fcf82670de0b6b3a764000061451e565b67ffffffffffffffff16612feb84670de0b6b3a764000061453f565b6129dc91906144d9565b6000670de0b6b3a764000061300a838261451e565b612feb9067ffffffffffffffff168561453f565b73ffffffffffffffffffffffffffffffffffffffff82163b1561305f57600354610cca9073ffffffffffffffffffffffffffffffffffffffff168383612a62565b6003546040517f2e1a7d4d0000000000000000000000000000000000000000000000000000000081526004810183905273ffffffffffffffffffffffffffffffffffffffff90911690632e1a7d4d90602401600060405180830381600087803b1580156130cb57600080fd5b505af11580156130df573d6000803e3d6000fd5b505060405173ffffffffffffffffffffffffffffffffffffffff8516925083156108fc02915083906000818181858888f193505050501580156109b8573d6000803e3d6000fd5b600082613133858461333a565b14949350505050565b600080600061314b85856133e6565b909250905060008160048111156131645761316461457c565b14801561319c57508573ffffffffffffffffffffffffffffffffffffffff168273ffffffffffffffffffffffffffffffffffffffff16145b156131ac576001925050506129dc565b6000808773ffffffffffffffffffffffffffffffffffffffff16631626ba7e60e01b88886040516024016131e19291906145ab565b604080517fffffffffffffffffffffffffffffffffffffffffffffffffffffffffffffffe08184030181529181526020820180517bffffffffffffffffffffffffffffffffffffffffffffffffffffffff167fffffffff0000000000000000000000000000000000000000000000000000000090941693909317909252905161326a91906145c4565b600060405180830381855afa9150503d80600081146132a5576040519150601f19603f3d011682016040523d82523d6000602084013e6132aa565b606091505b50915091508180156132bd575080516020145b801561331f575080517f1626ba7e00000000000000000000000000000000000000000000000000000000906132fb90830160209081019084016145e0565b7fffffffff0000000000000000000000000000000000000000000000000000000016145b98975050505050505050565b60606129d98484600085613456565b600081815b84518110156133de57600085828151811061335c5761335c6140ce565b6020026020010151905080831161339e5760408051602081018590529081018290526060016040516020818303038152906040528051906020012092506133cb565b60408051602081018390529081018490526060016040516020818303038152906040528051906020012092505b50806133d681614206565b91505061333f565b509392505050565b60008082516041141561341d5760208301516040840151606085015160001a613411878285856135d6565b9450945050505061344f565b825160401415613447576020830151604084015161343c8683836136ee565b93509350505061344f565b506000905060025b9250929050565b6060824710156134e8576040517f08c379a000000000000000000000000000000000000000000000000000000000815260206004820152602660248201527f416464726573733a20696e73756666696369656e742062616c616e636520666f60448201527f722063616c6c00000000000000000000000000000000000000000000000000006064820152608401610733565b843b613550576040517f08c379a000000000000000000000000000000000000000000000000000000000815260206004820152601d60248201527f416464726573733a2063616c6c20746f206e6f6e2d636f6e74726163740000006044820152606401610733565b6000808673ffffffffffffffffffffffffffffffffffffffff16858760405161357991906145c4565b60006040518083038185875af1925050503d80600081146135b6576040519150601f19603f3d011682016040523d82523d6000602084013e6135bb565b606091505b50915091506135cb828286613736565b979650505050505050565b6000807f7fffffffffffffffffffffffffffffff5d576e7357a4501ddfe92f46681b20a083111561360d57506000905060036136e5565b8460ff16601b1415801561362557508460ff16601c14155b1561363657506000905060046136e5565b6040805160008082526020820180845289905260ff881692820192909252606081018690526080810185905260019060a0016020604051602081039080840390855afa15801561368a573d6000803e3d6000fd5b50506040517fffffffffffffffffffffffffffffffffffffffffffffffffffffffffffffffe0015191505073ffffffffffffffffffffffffffffffffffffffff81166136de576000600192509250506136e5565b9150600090505b94509492505050565b6000807f7fffffffffffffffffffffffffffffffffffffffffffffffffffffffffffffff831660ff84901c601b01613728878288856135d6565b935093505050935093915050565b606083156137455750816129dc565b8251156137555782518084602001fd5b816040517f08c379a000000000000000000000000000000000000000000000000000000000815260040161073391906141f3565b803573ffffffffffffffffffffffffffffffffffffffff811681146137ad57600080fd5b919050565b6000602082840312156137c457600080fd5b6129dc82613789565b6000602082840312156137df57600080fd5b5035919050565b80151581146107be57600080fd5b60008060006060848603121561380957600080fd5b61381284613789565b9250602084013591506040840135613829816137e6565b809150509250925092565b803563ffffffff811681146137ad57600080fd5b60006020828403121561385a57600080fd5b6129dc82613834565b6000806040838503121561387657600080fd5b61387f83613789565b915061388d60208401613789565b90509250929050565b803567ffffffffffffffff811681146137ad57600080fd5b60008060008060008060c087890312156138c757600080fd5b6138d087613789565b95506138de60208801613789565b945060408701359350606087013592506138fa60808801613896565b915061390860a08801613834565b90509295509295509295565b6000806040838503121561392757600080fd5b50508035926020909101359150565b6000806040838503121561394957600080fd5b61395283613789565b946020939093013593505050565b6000806000806000806000806000806101408b8d03121561398057600080fd5b6139898b613789565b995061399760208c01613789565b98506139a560408c01613789565b975060608b0135965060808b0135955060a08b0135945060c08b013593506139cf60e08c01613896565b92506139de6101008c01613896565b91506139ed6101208c01613834565b90509295989b9194979a5092959850565b60008060208385031215613a1157600080fd5b823567ffffffffffffffff80821115613a2957600080fd5b818501915085601f830112613a3d57600080fd5b813581811115613a4c57600080fd5b8660208260051b8501011115613a6157600080fd5b60209290920196919550909350505050565b60005b83811015613a8e578181015183820152602001613a76565b838111156124b35750506000910152565b60008151808452613ab7816020860160208601613a73565b601f017fffffffffffffffffffffffffffffffffffffffffffffffffffffffffffffffe0169290920160200192915050565b6000602080830181845280855180835260408601915060408160051b870101925083870160005b82811015613b5c577fffffffffffffffffffffffffffffffffffffffffffffffffffffffffffffffc0888603018452613b4a858351613a9f565b94509285019290850190600101613b10565b5092979650505050505050565b7f4e487b7100000000000000000000000000000000000000000000000000000000600052604160045260246000fd5b60405160c0810167ffffffffffffffff81118282101715613bbb57613bbb613b69565b60405290565b604051601f82017fffffffffffffffffffffffffffffffffffffffffffffffffffffffffffffffe016810167ffffffffffffffff81118282101715613c0857613c08613b69565b604052919050565b600067ffffffffffffffff821115613c2a57613c2a613b69565b5060051b60200190565b600082601f830112613c4557600080fd5b81356020613c5a613c5583613c10565b613bc1565b82815260059290921b84018101918181019086841115613c7957600080fd5b8286015b84811015613c945780358352918301918301613c7d565b509695505050505050565b600082601f830112613cb057600080fd5b81356020613cc0613c5583613c10565b82815260059290921b84018101918181019086841115613cdf57600080fd5b8286015b84811015613c9457613cf481613789565b8352918301918301613ce3565b600080600060608486031215613d1657600080fd5b613d1f84613834565b9250602084013567ffffffffffffffff80821115613d3c57600080fd5b9085019060c08288031215613d5057600080fd5b613d58613b98565b8235815260208301356020820152604083013582811115613d7857600080fd5b613d8489828601613c34565b604083015250613d9660608401613834565b6060820152613da760808401613789565b608082015260a083013582811115613dbe57600080fd5b613dca89828601613c9f565b60a08301525093506040860135915080821115613de657600080fd5b50613df386828701613c34565b9150509250925092565b6000806000806000806000806000806101408b8d031215613e1d57600080fd5b613e268b613789565b9950613e3460208c01613789565b9850613e4260408c01613789565b975060608b0135965060808b01359550613e5e60a08c01613896565b9450613e6c60c08c01613896565b9350613e7a60e08c01613834565b9250613e896101008c01613834565b91506101208b013567ffffffffffffffff811115613ea657600080fd5b613eb28d828e01613c34565b9150509295989b9194979a5092959850565b600067ffffffffffffffff821115613ede57613ede613b69565b50601f017fffffffffffffffffffffffffffffffffffffffffffffffffffffffffffffffe01660200190565b600082601f830112613f1b57600080fd5b8135613f29613c5582613ec4565b818152846020838601011115613f3e57600080fd5b816020850160208301376000918101602001919091529392505050565b6000806000806000806000806000806000806101808d8f031215613f7e57600080fd5b613f878d613789565b9b50613f9560208e01613789565b9a50613fa360408e01613789565b995060608d0135985060808d0135975060a08d0135965060c08d01359550613fcd60e08e01613896565b9450613fdc6101008e01613896565b9350613feb6101208e01613896565b9250613ffa6101408e01613834565b915067ffffffffffffffff6101608e0135111561401657600080fd5b6140278e6101608f01358f01613f0a565b90509295989b509295989b509295989b565b60006020828403121561404b57600080fd5b5051919050565b7f4e487b7100000000000000000000000000000000000000000000000000000000600052601160045260246000fd5b600063ffffffff8381169083168181101561409e5761409e614052565b039392505050565b600063ffffffff8083168185168083038211156140c5576140c5614052565b01949350505050565b7f4e487b7100000000000000000000000000000000000000000000000000000000600052603260045260246000fd5b60008083357fffffffffffffffffffffffffffffffffffffffffffffffffffffffffffffffe184360301811261413257600080fd5b83018035915067ffffffffffffffff82111561414d57600080fd5b60200191503681900382131561344f57600080fd5b8183823760009101908152919050565b6000614180613c5584613ec4565b905082815283838301111561419457600080fd5b6129dc836020830184613a73565b6000602082840312156141b457600080fd5b815167ffffffffffffffff8111156141cb57600080fd5b8201601f810184136141dc57600080fd5b6141eb84825160208401614172565b949350505050565b6020815260006129dc6020830184613a9f565b60007fffffffffffffffffffffffffffffffffffffffffffffffffffffffffffffffff82141561423857614238614052565b5060010190565b600063ffffffff8083168181141561425957614259614052565b6001019392505050565b600081518084526020808501945080840160005b8381101561429357815187529582019590820190600101614277565b509495945050505050565b600081518084526020808501945080840160005b8381101561429357815173ffffffffffffffffffffffffffffffffffffffff16875295820195908201906001016142b2565b85815284602082015260a06040820152600061430360a0830186614263565b73ffffffffffffffffffffffffffffffffffffffff85166060840152828103608084015261331f818561429e565b60006101008201905073ffffffffffffffffffffffffffffffffffffffff80845116835280602085015116602084015280604085015116604084015250606083015160608301526080830151608083015260a083015167ffffffffffffffff80821660a08501528060c08601511660c0850152505060e08301516116ac60e084018263ffffffff169052565b600067ffffffffffffffff8083168185168083038211156140c5576140c5614052565b6000828210156143f2576143f2614052565b500390565b6000821982111561440a5761440a614052565b500190565b6020815281516020820152602082015160408201526000604083015160c0606084015261443f60e0840182614263565b905063ffffffff606085015116608084015273ffffffffffffffffffffffffffffffffffffffff60808501511660a084015260a08401517fffffffffffffffffffffffffffffffffffffffffffffffffffffffffffffffe08483030160c0850152612898828261429e565b7f4e487b7100000000000000000000000000000000000000000000000000000000600052601260045260246000fd5b6000826144e8576144e86144aa565b500490565b6000826144fc576144fc6144aa565b500690565b60006020828403121561451357600080fd5b81516129dc816137e6565b600067ffffffffffffffff8381169083168181101561409e5761409e614052565b6000817fffffffffffffffffffffffffffffffffffffffffffffffffffffffffffffffff048311821515161561457757614577614052565b500290565b7f4e487b7100000000000000000000000000000000000000000000000000000000600052602160045260246000fd5b8281526040602082015260006129d96040830184613a9f565b600082516145d6818460208701613a73565b9190910192915050565b6000602082840312156145f257600080fd5b81517fffffffff00000000000000000000000000000000000000000000000000000000811681146129dc57600080fdfea2646970667358221220edfd6b208ac3f4c53e37d85d8f6b559f44f72c704bc408457422327a2f806f6364736f6c634300080b0033",
  "devdoc": {
    "details": "Uses AVM cross-domain-enabled logic for access control.",
    "kind": "dev",
    "methods": {
      "deposit(address,address,uint256,uint256,uint64,uint32)": {
        "details": "The caller must first approve this contract to spend `amount` of `originToken`."
      },
      "getCurrentTime()": {
        "returns": {
          "_0": "uint for the current Testable timestamp."
        }
      },
      "setCurrentTime(uint256)": {
        "details": "Will revert if not running in test mode.",
        "params": {
          "time": "timestamp to set current Testable time to."
        }
      }
    },
    "version": 1
  },
  "userdoc": {
    "kind": "user",
    "methods": {
      "deposit(address,address,uint256,uint256,uint64,uint32)": {
        "notice": "Called by user to bridge funds from origin to destination chain."
      },
      "getCurrentTime()": {
        "notice": "Gets the current time. Will return the last time set in `setCurrentTime` if running in test mode. Otherwise, it will return the block timestamp."
      },
      "setCurrentTime(uint256)": {
        "notice": "Sets the current time."
      }
    },
    "notice": "AVM specific SpokePool.",
    "version": 1
  },
  "storageLayout": {
    "storage": [
      {
        "astId": 5882,
        "contract": "contracts/Arbitrum_SpokePool.sol:Arbitrum_SpokePool",
        "label": "timerAddress",
        "offset": 0,
        "slot": "0",
        "type": "t_address"
      },
      {
        "astId": 5108,
        "contract": "contracts/Arbitrum_SpokePool.sol:Arbitrum_SpokePool",
        "label": "_notEntered",
        "offset": 20,
        "slot": "0",
        "type": "t_bool"
      },
      {
        "astId": 7840,
        "contract": "contracts/Arbitrum_SpokePool.sol:Arbitrum_SpokePool",
        "label": "crossDomainAdmin",
        "offset": 0,
        "slot": "1",
        "type": "t_address"
      },
      {
        "astId": 7842,
        "contract": "contracts/Arbitrum_SpokePool.sol:Arbitrum_SpokePool",
        "label": "hubPool",
        "offset": 0,
        "slot": "2",
        "type": "t_address"
      },
      {
        "astId": 7845,
        "contract": "contracts/Arbitrum_SpokePool.sol:Arbitrum_SpokePool",
        "label": "weth",
        "offset": 0,
        "slot": "3",
        "type": "t_contract(WETH9)9921"
      },
      {
        "astId": 7847,
        "contract": "contracts/Arbitrum_SpokePool.sol:Arbitrum_SpokePool",
        "label": "deploymentTime",
        "offset": 20,
        "slot": "3",
        "type": "t_uint32"
      },
      {
        "astId": 7850,
        "contract": "contracts/Arbitrum_SpokePool.sol:Arbitrum_SpokePool",
        "label": "depositQuoteTimeBuffer",
        "offset": 24,
        "slot": "3",
        "type": "t_uint32"
      },
      {
        "astId": 7852,
        "contract": "contracts/Arbitrum_SpokePool.sol:Arbitrum_SpokePool",
        "label": "numberOfDeposits",
        "offset": 28,
        "slot": "3",
        "type": "t_uint32"
      },
      {
        "astId": 7858,
        "contract": "contracts/Arbitrum_SpokePool.sol:Arbitrum_SpokePool",
        "label": "enabledDepositRoutes",
        "offset": 0,
        "slot": "4",
        "type": "t_mapping(t_address,t_mapping(t_uint256,t_bool))"
      },
      {
        "astId": 7871,
        "contract": "contracts/Arbitrum_SpokePool.sol:Arbitrum_SpokePool",
        "label": "rootBundles",
        "offset": 0,
        "slot": "5",
        "type": "t_array(t_struct(RootBundle)7867_storage)dyn_storage"
      },
      {
        "astId": 7875,
        "contract": "contracts/Arbitrum_SpokePool.sol:Arbitrum_SpokePool",
        "label": "relayFills",
        "offset": 0,
        "slot": "6",
        "type": "t_mapping(t_bytes32,t_uint256)"
      },
      {
        "astId": 6677,
        "contract": "contracts/Arbitrum_SpokePool.sol:Arbitrum_SpokePool",
        "label": "l2GatewayRouter",
        "offset": 0,
        "slot": "7",
        "type": "t_address"
      },
      {
        "astId": 6681,
        "contract": "contracts/Arbitrum_SpokePool.sol:Arbitrum_SpokePool",
        "label": "whitelistedTokens",
        "offset": 0,
        "slot": "8",
        "type": "t_mapping(t_address,t_address)"
      }
    ],
    "types": {
      "t_address": {
        "encoding": "inplace",
        "label": "address",
        "numberOfBytes": "20"
      },
      "t_array(t_struct(RootBundle)7867_storage)dyn_storage": {
        "base": "t_struct(RootBundle)7867_storage",
        "encoding": "dynamic_array",
        "label": "struct SpokePool.RootBundle[]",
        "numberOfBytes": "32"
      },
      "t_bool": {
        "encoding": "inplace",
        "label": "bool",
        "numberOfBytes": "1"
      },
      "t_bytes32": {
        "encoding": "inplace",
        "label": "bytes32",
        "numberOfBytes": "32"
      },
      "t_contract(WETH9)9921": {
        "encoding": "inplace",
        "label": "contract WETH9",
        "numberOfBytes": "20"
      },
      "t_mapping(t_address,t_address)": {
        "encoding": "mapping",
        "key": "t_address",
        "label": "mapping(address => address)",
        "numberOfBytes": "32",
        "value": "t_address"
      },
      "t_mapping(t_address,t_mapping(t_uint256,t_bool))": {
        "encoding": "mapping",
        "key": "t_address",
        "label": "mapping(address => mapping(uint256 => bool))",
        "numberOfBytes": "32",
        "value": "t_mapping(t_uint256,t_bool)"
      },
      "t_mapping(t_bytes32,t_uint256)": {
        "encoding": "mapping",
        "key": "t_bytes32",
        "label": "mapping(bytes32 => uint256)",
        "numberOfBytes": "32",
        "value": "t_uint256"
      },
      "t_mapping(t_uint256,t_bool)": {
        "encoding": "mapping",
        "key": "t_uint256",
        "label": "mapping(uint256 => bool)",
        "numberOfBytes": "32",
        "value": "t_bool"
      },
      "t_mapping(t_uint256,t_uint256)": {
        "encoding": "mapping",
        "key": "t_uint256",
        "label": "mapping(uint256 => uint256)",
        "numberOfBytes": "32",
        "value": "t_uint256"
      },
      "t_struct(RootBundle)7867_storage": {
        "encoding": "inplace",
        "label": "struct SpokePool.RootBundle",
        "members": [
          {
            "astId": 7860,
            "contract": "contracts/Arbitrum_SpokePool.sol:Arbitrum_SpokePool",
            "label": "slowRelayFulfillmentRoot",
            "offset": 0,
            "slot": "0",
            "type": "t_bytes32"
          },
          {
            "astId": 7862,
            "contract": "contracts/Arbitrum_SpokePool.sol:Arbitrum_SpokePool",
            "label": "relayerRefundRoot",
            "offset": 0,
            "slot": "1",
            "type": "t_bytes32"
          },
          {
            "astId": 7866,
            "contract": "contracts/Arbitrum_SpokePool.sol:Arbitrum_SpokePool",
            "label": "claimedBitmap",
            "offset": 0,
            "slot": "2",
            "type": "t_mapping(t_uint256,t_uint256)"
          }
        ],
        "numberOfBytes": "96"
      },
      "t_uint256": {
        "encoding": "inplace",
        "label": "uint256",
        "numberOfBytes": "32"
      },
      "t_uint32": {
        "encoding": "inplace",
        "label": "uint32",
        "numberOfBytes": "4"
      }
    }
  }
}