{
  "address": "0xBF75133b48b0a42AB9374027902E83C5E2949034",
  "abi": [
    {
      "anonymous": false,
      "inputs": [
        {
          "indexed": false,
          "internalType": "bytes",
          "name": "data",
          "type": "bytes"
        }
      ],
      "name": "MetadataEmitted",
      "type": "event"
    },
    {
      "inputs": [
        {
          "internalType": "bytes",
          "name": "data",
          "type": "bytes"
        }
      ],
      "name": "emitData",
      "outputs": [],
      "stateMutability": "nonpayable",
      "type": "function"
    }
  ],
  "transactionHash": "0x4c6ae257badcf250a257be3b7ee408ce89974ae164620d88c5d280c14df6f943",
  "args": [],
  "numDeployments": 4,
  "solcInputHash": "7dedd3b35fc7a222d0a8d437c68d5f49",
  "bytecode": "0x608080604052346100165761012e908161001b8239f35b5f80fdfe60808060405260043610156011575f80fd5b5f3560e01c63d836083e146023575f80fd5b3460f45760207ffffffffffffffffffffffffffffffffffffffffffffffffffffffffffffffffc36011260f4576004359067ffffffffffffffff80831160f4573660238401121560f457826004013590811160f457366024828501011160f457801560f457817fffffffffffffffffffffffffffffffffffffffffffffffffffffffffffffffe0601f8360409460247fc28009f405f9b451f5155492167b1ad5ab376d991bea880cb5049e924e5b823c986020875282602088015201868601375f85828601015201168101030190a1005b5f80fdfea2646970667358221220a2c7a0f09e981d67663b05d824037d0d54404d85e8c1debac93ab835ff1790aa64736f6c63430008170033",
  "devdoc": {
    "events": {
      "MetadataEmitted(bytes)": {
        "params": {
          "data": "The metadata bytes emitted"
        }
      }
    },
    "kind": "dev",
    "methods": {
      "emitData(bytes)": {
        "params": {
          "data": "The bytes data to emit"
        }
      }
    },
    "title": "AcrossEventEmitter",
    "version": 1
  },
  "userdoc": {
    "events": {
      "MetadataEmitted(bytes)": {
        "notice": "Emitted when metadata is stored"
      }
    },
    "kind": "user",
    "methods": {
      "emitData(bytes)": {
        "notice": "Emits metadata as an event"
      }
    },
    "notice": "A simple contract that emits events with bytes encoded metadata",
    "version": 1
  },
  "storageLayout": {
    "storage": [],
    "types": null
  }
}