{
  "address": "0x7E63A5f1a8F0B4d0934B2f2327DAED3F6bb2ee75",
  "abi": [
    {
      "inputs": [
        {
          "internalType": "address",
          "name": "_wrappedNativeTokenAddress",
          "type": "address"
        },
        {
          "internalType": "uint32",
          "name": "_depositQuoteTimeBuffer",
          "type": "uint32"
        },
        {
          "internalType": "uint32",
          "name": "_fillDeadlineBuffer",
          "type": "uint32"
        },
        {
          "internalType": "contract IERC20",
          "name": "_l2Usdc",
          "type": "address"
        },
        {
          "internalType": "contract ITokenMessenger",
          "name": "_cctpTokenMessenger",
          "type": "address"
        }
      ],
      "stateMutability": "nonpayable",
      "type": "constructor"
    },
    {
      "inputs": [],
      "name": "ClaimedMerkleLeaf",
      "type": "error"
    },
    {
      "inputs": [],
      "name": "DisabledRoute",
      "type": "error"
    },
    {
      "inputs": [],
      "name": "ExpiredFillDeadline",
      "type": "error"
    },
    {
      "inputs": [],
      "name": "InvalidChainId",
      "type": "error"
    },
    {
      "inputs": [],
      "name": "InvalidFillDeadline",
      "type": "error"
    },
    {
      "inputs": [],
      "name": "InvalidMerkleLeaf",
      "type": "error"
    },
    {
      "inputs": [],
      "name": "InvalidMerkleProof",
      "type": "error"
    },
    {
      "inputs": [],
      "name": "InvalidPayoutAdjustmentPct",
      "type": "error"
    },
    {
      "inputs": [],
      "name": "InvalidQuoteTimestamp",
      "type": "error"
    },
    {
      "inputs": [],
      "name": "InvalidSlowFillRequest",
      "type": "error"
    },
    {
      "inputs": [],
      "name": "MsgValueDoesNotMatchInputAmount",
      "type": "error"
    },
    {
      "inputs": [],
      "name": "NotEOA",
      "type": "error"
    },
    {
      "inputs": [],
      "name": "NotExclusiveRelayer",
      "type": "error"
    },
    {
      "inputs": [],
      "name": "RelayFilled",
      "type": "error"
    },
    {
      "anonymous": false,
      "inputs": [
        {
          "indexed": false,
          "internalType": "address",
          "name": "previousAdmin",
          "type": "address"
        },
        {
          "indexed": false,
          "internalType": "address",
          "name": "newAdmin",
          "type": "address"
        }
      ],
      "name": "AdminChanged",
      "type": "event"
    },
    {
      "anonymous": false,
      "inputs": [
        {
          "indexed": true,
          "internalType": "address",
          "name": "l1Token",
          "type": "address"
        },
        {
          "indexed": false,
          "internalType": "address",
          "name": "target",
          "type": "address"
        },
        {
          "indexed": false,
          "internalType": "uint256",
          "name": "numberOfTokensBridged",
          "type": "uint256"
        }
      ],
      "name": "ArbitrumTokensBridged",
      "type": "event"
    },
    {
      "anonymous": false,
      "inputs": [
        {
          "indexed": true,
          "internalType": "address",
          "name": "beacon",
          "type": "address"
        }
      ],
      "name": "BeaconUpgraded",
      "type": "event"
    },
    {
      "anonymous": false,
      "inputs": [
        {
          "indexed": true,
          "internalType": "uint256",
          "name": "rootBundleId",
          "type": "uint256"
        }
      ],
      "name": "EmergencyDeleteRootBundle",
      "type": "event"
    },
    {
      "anonymous": false,
      "inputs": [
        {
          "indexed": true,
          "internalType": "address",
          "name": "originToken",
          "type": "address"
        },
        {
          "indexed": true,
          "internalType": "uint256",
          "name": "destinationChainId",
          "type": "uint256"
        },
        {
          "indexed": false,
          "internalType": "bool",
          "name": "enabled",
          "type": "bool"
        }
      ],
      "name": "EnabledDepositRoute",
      "type": "event"
    },
    {
      "anonymous": false,
      "inputs": [
        {
          "indexed": false,
          "internalType": "uint256",
          "name": "amountToReturn",
          "type": "uint256"
        },
        {
          "indexed": true,
          "internalType": "uint256",
          "name": "chainId",
          "type": "uint256"
        },
        {
          "indexed": false,
          "internalType": "uint256[]",
          "name": "refundAmounts",
          "type": "uint256[]"
        },
        {
          "indexed": true,
          "internalType": "uint32",
          "name": "rootBundleId",
          "type": "uint32"
        },
        {
          "indexed": true,
          "internalType": "uint32",
          "name": "leafId",
          "type": "uint32"
        },
        {
          "indexed": false,
          "internalType": "address",
          "name": "l2TokenAddress",
          "type": "address"
        },
        {
          "indexed": false,
          "internalType": "address[]",
          "name": "refundAddresses",
          "type": "address[]"
        },
        {
          "indexed": false,
          "internalType": "address",
          "name": "caller",
          "type": "address"
        }
      ],
      "name": "ExecutedRelayerRefundRoot",
      "type": "event"
    },
    {
      "anonymous": false,
      "inputs": [
        {
          "indexed": false,
          "internalType": "uint256",
          "name": "amountToReturn",
          "type": "uint256"
        },
        {
          "indexed": true,
          "internalType": "uint256",
          "name": "chainId",
          "type": "uint256"
        },
        {
          "indexed": false,
          "internalType": "uint256[]",
          "name": "refundAmounts",
          "type": "uint256[]"
        },
        {
          "indexed": true,
          "internalType": "uint32",
          "name": "rootBundleId",
          "type": "uint32"
        },
        {
          "indexed": true,
          "internalType": "uint32",
          "name": "leafId",
          "type": "uint32"
        },
        {
          "indexed": false,
          "internalType": "address",
          "name": "l2TokenAddress",
          "type": "address"
        },
        {
          "indexed": false,
          "internalType": "address[]",
          "name": "refundAddresses",
          "type": "address[]"
        },
        {
          "indexed": false,
          "internalType": "bytes32",
          "name": "fillsRefundedRoot",
          "type": "bytes32"
        },
        {
          "indexed": false,
          "internalType": "string",
          "name": "fillsRefundedIpfsHash",
          "type": "string"
        }
      ],
      "name": "ExecutedV3RelayerRefundRoot",
      "type": "event"
    },
    {
      "anonymous": false,
      "inputs": [
        {
          "indexed": false,
          "internalType": "uint256",
          "name": "amount",
          "type": "uint256"
        },
        {
          "indexed": false,
          "internalType": "uint256",
          "name": "totalFilledAmount",
          "type": "uint256"
        },
        {
          "indexed": false,
          "internalType": "uint256",
          "name": "fillAmount",
          "type": "uint256"
        },
        {
          "indexed": false,
          "internalType": "uint256",
          "name": "repaymentChainId",
          "type": "uint256"
        },
        {
          "indexed": true,
          "internalType": "uint256",
          "name": "originChainId",
          "type": "uint256"
        },
        {
          "indexed": false,
          "internalType": "uint256",
          "name": "destinationChainId",
          "type": "uint256"
        },
        {
          "indexed": false,
          "internalType": "int64",
          "name": "relayerFeePct",
          "type": "int64"
        },
        {
          "indexed": false,
          "internalType": "int64",
          "name": "realizedLpFeePct",
          "type": "int64"
        },
        {
          "indexed": true,
          "internalType": "uint32",
          "name": "depositId",
          "type": "uint32"
        },
        {
          "indexed": false,
          "internalType": "address",
          "name": "destinationToken",
          "type": "address"
        },
        {
          "indexed": false,
          "internalType": "address",
          "name": "relayer",
          "type": "address"
        },
        {
          "indexed": true,
          "internalType": "address",
          "name": "depositor",
          "type": "address"
        },
        {
          "indexed": false,
          "internalType": "address",
          "name": "recipient",
          "type": "address"
        },
        {
          "indexed": false,
          "internalType": "bytes",
          "name": "message",
          "type": "bytes"
        },
        {
          "components": [
            {
              "internalType": "address",
              "name": "recipient",
              "type": "address"
            },
            {
              "internalType": "bytes",
              "name": "message",
              "type": "bytes"
            },
            {
              "internalType": "int64",
              "name": "relayerFeePct",
              "type": "int64"
            },
            {
              "internalType": "bool",
              "name": "isSlowRelay",
              "type": "bool"
            },
            {
              "internalType": "int256",
              "name": "payoutAdjustmentPct",
              "type": "int256"
            }
          ],
          "indexed": false,
          "internalType": "struct SpokePool.RelayExecutionInfo",
          "name": "updatableRelayData",
          "type": "tuple"
        }
      ],
      "name": "FilledRelay",
      "type": "event"
    },
    {
      "anonymous": false,
      "inputs": [
        {
          "indexed": false,
          "internalType": "address",
          "name": "inputToken",
          "type": "address"
        },
        {
          "indexed": false,
          "internalType": "address",
          "name": "outputToken",
          "type": "address"
        },
        {
          "indexed": false,
          "internalType": "uint256",
          "name": "inputAmount",
          "type": "uint256"
        },
        {
          "indexed": false,
          "internalType": "uint256",
          "name": "outputAmount",
          "type": "uint256"
        },
        {
          "indexed": false,
          "internalType": "uint256",
          "name": "repaymentChainId",
          "type": "uint256"
        },
        {
          "indexed": true,
          "internalType": "uint256",
          "name": "originChainId",
          "type": "uint256"
        },
        {
          "indexed": true,
          "internalType": "uint32",
          "name": "depositId",
          "type": "uint32"
        },
        {
          "indexed": false,
          "internalType": "uint32",
          "name": "fillDeadline",
          "type": "uint32"
        },
        {
          "indexed": false,
          "internalType": "uint32",
          "name": "exclusivityDeadline",
          "type": "uint32"
        },
        {
          "indexed": false,
          "internalType": "address",
          "name": "exclusiveRelayer",
          "type": "address"
        },
        {
          "indexed": true,
          "internalType": "address",
          "name": "relayer",
          "type": "address"
        },
        {
          "indexed": false,
          "internalType": "address",
          "name": "depositor",
          "type": "address"
        },
        {
          "indexed": false,
          "internalType": "address",
          "name": "recipient",
          "type": "address"
        },
        {
          "indexed": false,
          "internalType": "bytes",
          "name": "message",
          "type": "bytes"
        },
        {
          "components": [
            {
              "internalType": "address",
              "name": "updatedRecipient",
              "type": "address"
            },
            {
              "internalType": "bytes",
              "name": "updatedMessage",
              "type": "bytes"
            },
            {
              "internalType": "uint256",
              "name": "updatedOutputAmount",
              "type": "uint256"
            },
            {
              "internalType": "enum V3SpokePoolInterface.FillType",
              "name": "fillType",
              "type": "uint8"
            }
          ],
          "indexed": false,
          "internalType": "struct V3SpokePoolInterface.V3RelayExecutionEventInfo",
          "name": "relayExecutionInfo",
          "type": "tuple"
        }
      ],
      "name": "FilledV3Relay",
      "type": "event"
    },
    {
      "anonymous": false,
      "inputs": [
        {
          "indexed": false,
          "internalType": "uint256",
          "name": "amount",
          "type": "uint256"
        },
        {
          "indexed": false,
          "internalType": "uint256",
          "name": "originChainId",
          "type": "uint256"
        },
        {
          "indexed": true,
          "internalType": "uint256",
          "name": "destinationChainId",
          "type": "uint256"
        },
        {
          "indexed": false,
          "internalType": "int64",
          "name": "relayerFeePct",
          "type": "int64"
        },
        {
          "indexed": true,
          "internalType": "uint32",
          "name": "depositId",
          "type": "uint32"
        },
        {
          "indexed": false,
          "internalType": "uint32",
          "name": "quoteTimestamp",
          "type": "uint32"
        },
        {
          "indexed": false,
          "internalType": "address",
          "name": "originToken",
          "type": "address"
        },
        {
          "indexed": false,
          "internalType": "address",
          "name": "recipient",
          "type": "address"
        },
        {
          "indexed": true,
          "internalType": "address",
          "name": "depositor",
          "type": "address"
        },
        {
          "indexed": false,
          "internalType": "bytes",
          "name": "message",
          "type": "bytes"
        }
      ],
      "name": "FundsDeposited",
      "type": "event"
    },
    {
      "anonymous": false,
      "inputs": [
        {
          "indexed": false,
          "internalType": "uint8",
          "name": "version",
          "type": "uint8"
        }
      ],
      "name": "Initialized",
      "type": "event"
    },
    {
      "anonymous": false,
      "inputs": [
        {
          "indexed": false,
          "internalType": "bool",
          "name": "isPaused",
          "type": "bool"
        }
      ],
      "name": "PausedDeposits",
      "type": "event"
    },
    {
      "anonymous": false,
      "inputs": [
        {
          "indexed": false,
          "internalType": "bool",
          "name": "isPaused",
          "type": "bool"
        }
      ],
      "name": "PausedFills",
      "type": "event"
    },
    {
      "anonymous": false,
      "inputs": [
        {
          "indexed": true,
          "internalType": "address",
          "name": "relayer",
          "type": "address"
        },
        {
          "indexed": false,
          "internalType": "address",
          "name": "refundToken",
          "type": "address"
        },
        {
          "indexed": false,
          "internalType": "uint256",
          "name": "amount",
          "type": "uint256"
        },
        {
          "indexed": true,
          "internalType": "uint256",
          "name": "originChainId",
          "type": "uint256"
        },
        {
          "indexed": false,
          "internalType": "uint256",
          "name": "destinationChainId",
          "type": "uint256"
        },
        {
          "indexed": false,
          "internalType": "int64",
          "name": "realizedLpFeePct",
          "type": "int64"
        },
        {
          "indexed": true,
          "internalType": "uint32",
          "name": "depositId",
          "type": "uint32"
        },
        {
          "indexed": false,
          "internalType": "uint256",
          "name": "fillBlock",
          "type": "uint256"
        },
        {
          "indexed": false,
          "internalType": "uint256",
          "name": "previousIdenticalRequests",
          "type": "uint256"
        }
      ],
      "name": "RefundRequested",
      "type": "event"
    },
    {
      "anonymous": false,
      "inputs": [
        {
          "indexed": true,
          "internalType": "uint32",
          "name": "rootBundleId",
          "type": "uint32"
        },
        {
          "indexed": true,
          "internalType": "bytes32",
          "name": "relayerRefundRoot",
          "type": "bytes32"
        },
        {
          "indexed": true,
          "internalType": "bytes32",
          "name": "slowRelayRoot",
          "type": "bytes32"
        }
      ],
      "name": "RelayedRootBundle",
      "type": "event"
    },
    {
      "anonymous": false,
      "inputs": [
        {
          "indexed": false,
          "internalType": "int64",
          "name": "newRelayerFeePct",
          "type": "int64"
        },
        {
          "indexed": true,
          "internalType": "uint32",
          "name": "depositId",
          "type": "uint32"
        },
        {
          "indexed": true,
          "internalType": "address",
          "name": "depositor",
          "type": "address"
        },
        {
          "indexed": false,
          "internalType": "address",
          "name": "updatedRecipient",
          "type": "address"
        },
        {
          "indexed": false,
          "internalType": "bytes",
          "name": "updatedMessage",
          "type": "bytes"
        },
        {
          "indexed": false,
          "internalType": "bytes",
          "name": "depositorSignature",
          "type": "bytes"
        }
      ],
      "name": "RequestedSpeedUpDeposit",
      "type": "event"
    },
    {
      "anonymous": false,
      "inputs": [
        {
          "indexed": false,
          "internalType": "uint256",
          "name": "updatedOutputAmount",
          "type": "uint256"
        },
        {
          "indexed": true,
          "internalType": "uint32",
          "name": "depositId",
          "type": "uint32"
        },
        {
          "indexed": true,
          "internalType": "address",
          "name": "depositor",
          "type": "address"
        },
        {
          "indexed": false,
          "internalType": "address",
          "name": "updatedRecipient",
          "type": "address"
        },
        {
          "indexed": false,
          "internalType": "bytes",
          "name": "updatedMessage",
          "type": "bytes"
        },
        {
          "indexed": false,
          "internalType": "bytes",
          "name": "depositorSignature",
          "type": "bytes"
        }
      ],
      "name": "RequestedSpeedUpV3Deposit",
      "type": "event"
    },
    {
      "anonymous": false,
      "inputs": [
        {
          "indexed": false,
          "internalType": "address",
          "name": "inputToken",
          "type": "address"
        },
        {
          "indexed": false,
          "internalType": "address",
          "name": "outputToken",
          "type": "address"
        },
        {
          "indexed": false,
          "internalType": "uint256",
          "name": "inputAmount",
          "type": "uint256"
        },
        {
          "indexed": false,
          "internalType": "uint256",
          "name": "outputAmount",
          "type": "uint256"
        },
        {
          "indexed": true,
          "internalType": "uint256",
          "name": "originChainId",
          "type": "uint256"
        },
        {
          "indexed": true,
          "internalType": "uint32",
          "name": "depositId",
          "type": "uint32"
        },
        {
          "indexed": false,
          "internalType": "uint32",
          "name": "fillDeadline",
          "type": "uint32"
        },
        {
          "indexed": false,
          "internalType": "uint32",
          "name": "exclusivityDeadline",
          "type": "uint32"
        },
        {
          "indexed": false,
          "internalType": "address",
          "name": "exclusiveRelayer",
          "type": "address"
        },
        {
          "indexed": false,
          "internalType": "address",
          "name": "depositor",
          "type": "address"
        },
        {
          "indexed": false,
          "internalType": "address",
          "name": "recipient",
          "type": "address"
        },
        {
          "indexed": false,
          "internalType": "bytes",
          "name": "message",
          "type": "bytes"
        }
      ],
      "name": "RequestedV3SlowFill",
      "type": "event"
    },
    {
      "anonymous": false,
      "inputs": [
        {
          "indexed": true,
          "internalType": "address",
          "name": "newHubPool",
          "type": "address"
        }
      ],
      "name": "SetHubPool",
      "type": "event"
    },
    {
      "anonymous": false,
      "inputs": [
        {
          "indexed": true,
          "internalType": "address",
          "name": "newL2GatewayRouter",
          "type": "address"
        }
      ],
      "name": "SetL2GatewayRouter",
      "type": "event"
    },
    {
      "anonymous": false,
      "inputs": [
        {
          "indexed": true,
          "internalType": "address",
          "name": "newAdmin",
          "type": "address"
        }
      ],
      "name": "SetXDomainAdmin",
      "type": "event"
    },
    {
      "anonymous": false,
      "inputs": [
        {
          "indexed": false,
          "internalType": "uint256",
          "name": "amountToReturn",
          "type": "uint256"
        },
        {
          "indexed": true,
          "internalType": "uint256",
          "name": "chainId",
          "type": "uint256"
        },
        {
          "indexed": true,
          "internalType": "uint32",
          "name": "leafId",
          "type": "uint32"
        },
        {
          "indexed": true,
          "internalType": "address",
          "name": "l2TokenAddress",
          "type": "address"
        },
        {
          "indexed": false,
          "internalType": "address",
          "name": "caller",
          "type": "address"
        }
      ],
      "name": "TokensBridged",
      "type": "event"
    },
    {
      "anonymous": false,
      "inputs": [
        {
          "indexed": true,
          "internalType": "address",
          "name": "implementation",
          "type": "address"
        }
      ],
      "name": "Upgraded",
      "type": "event"
    },
    {
      "anonymous": false,
      "inputs": [
        {
          "indexed": false,
          "internalType": "address",
          "name": "inputToken",
          "type": "address"
        },
        {
          "indexed": false,
          "internalType": "address",
          "name": "outputToken",
          "type": "address"
        },
        {
          "indexed": false,
          "internalType": "uint256",
          "name": "inputAmount",
          "type": "uint256"
        },
        {
          "indexed": false,
          "internalType": "uint256",
          "name": "outputAmount",
          "type": "uint256"
        },
        {
          "indexed": true,
          "internalType": "uint256",
          "name": "destinationChainId",
          "type": "uint256"
        },
        {
          "indexed": true,
          "internalType": "uint32",
          "name": "depositId",
          "type": "uint32"
        },
        {
          "indexed": false,
          "internalType": "uint32",
          "name": "quoteTimestamp",
          "type": "uint32"
        },
        {
          "indexed": false,
          "internalType": "uint32",
          "name": "fillDeadline",
          "type": "uint32"
        },
        {
          "indexed": false,
          "internalType": "uint32",
          "name": "exclusivityDeadline",
          "type": "uint32"
        },
        {
          "indexed": true,
          "internalType": "address",
          "name": "depositor",
          "type": "address"
        },
        {
          "indexed": false,
          "internalType": "address",
          "name": "recipient",
          "type": "address"
        },
        {
          "indexed": false,
          "internalType": "address",
          "name": "relayer",
          "type": "address"
        },
        {
          "indexed": false,
          "internalType": "bytes",
          "name": "message",
          "type": "bytes"
        }
      ],
      "name": "V3FundsDeposited",
      "type": "event"
    },
    {
      "anonymous": false,
      "inputs": [
        {
          "indexed": true,
          "internalType": "address",
          "name": "l2Token",
          "type": "address"
        },
        {
          "indexed": true,
          "internalType": "address",
          "name": "l1Token",
          "type": "address"
        }
      ],
      "name": "WhitelistedTokens",
      "type": "event"
    },
    {
      "inputs": [],
      "name": "MAX_TRANSFER_SIZE",
      "outputs": [
        {
          "internalType": "uint256",
          "name": "",
          "type": "uint256"
        }
      ],
      "stateMutability": "view",
      "type": "function"
    },
    {
      "inputs": [],
      "name": "SLOW_FILL_MAX_TOKENS_TO_SEND",
      "outputs": [
        {
          "internalType": "uint256",
          "name": "",
          "type": "uint256"
        }
      ],
      "stateMutability": "view",
      "type": "function"
    },
    {
      "inputs": [],
      "name": "UPDATE_DEPOSIT_DETAILS_HASH",
      "outputs": [
        {
          "internalType": "bytes32",
          "name": "",
          "type": "bytes32"
        }
      ],
      "stateMutability": "view",
      "type": "function"
    },
    {
      "inputs": [],
      "name": "UPDATE_V3_DEPOSIT_DETAILS_HASH",
      "outputs": [
        {
          "internalType": "bytes32",
          "name": "",
          "type": "bytes32"
        }
      ],
      "stateMutability": "view",
      "type": "function"
    },
    {
      "inputs": [
        {
          "internalType": "uint32",
          "name": "_initialDepositId",
          "type": "uint32"
        },
        {
          "internalType": "address",
          "name": "_crossDomainAdmin",
          "type": "address"
        },
        {
          "internalType": "address",
          "name": "_hubPool",
          "type": "address"
        }
      ],
      "name": "__SpokePool_init",
      "outputs": [],
      "stateMutability": "nonpayable",
      "type": "function"
    },
    {
      "inputs": [],
      "name": "cctpTokenMessenger",
      "outputs": [
        {
          "internalType": "contract ITokenMessenger",
          "name": "",
          "type": "address"
        }
      ],
      "stateMutability": "view",
      "type": "function"
    },
    {
      "inputs": [],
      "name": "chainId",
      "outputs": [
        {
          "internalType": "uint256",
          "name": "",
          "type": "uint256"
        }
      ],
      "stateMutability": "view",
      "type": "function"
    },
    {
      "inputs": [],
      "name": "crossDomainAdmin",
      "outputs": [
        {
          "internalType": "address",
          "name": "",
          "type": "address"
        }
      ],
      "stateMutability": "view",
      "type": "function"
    },
    {
      "inputs": [
        {
          "internalType": "address",
          "name": "recipient",
          "type": "address"
        },
        {
          "internalType": "address",
          "name": "originToken",
          "type": "address"
        },
        {
          "internalType": "uint256",
          "name": "amount",
          "type": "uint256"
        },
        {
          "internalType": "uint256",
          "name": "destinationChainId",
          "type": "uint256"
        },
        {
          "internalType": "int64",
          "name": "relayerFeePct",
          "type": "int64"
        },
        {
          "internalType": "uint32",
          "name": "quoteTimestamp",
          "type": "uint32"
        },
        {
          "internalType": "bytes",
          "name": "message",
          "type": "bytes"
        },
        {
          "internalType": "uint256",
          "name": "",
          "type": "uint256"
        }
      ],
      "name": "deposit",
      "outputs": [],
      "stateMutability": "payable",
      "type": "function"
    },
    {
      "inputs": [
        {
          "internalType": "address",
          "name": "depositor",
          "type": "address"
        },
        {
          "internalType": "address",
          "name": "recipient",
          "type": "address"
        },
        {
          "internalType": "address",
          "name": "originToken",
          "type": "address"
        },
        {
          "internalType": "uint256",
          "name": "amount",
          "type": "uint256"
        },
        {
          "internalType": "uint256",
          "name": "destinationChainId",
          "type": "uint256"
        },
        {
          "internalType": "int64",
          "name": "relayerFeePct",
          "type": "int64"
        },
        {
          "internalType": "uint32",
          "name": "quoteTimestamp",
          "type": "uint32"
        },
        {
          "internalType": "bytes",
          "name": "message",
          "type": "bytes"
        },
        {
          "internalType": "uint256",
          "name": "",
          "type": "uint256"
        }
      ],
      "name": "depositFor",
      "outputs": [],
      "stateMutability": "payable",
      "type": "function"
    },
    {
      "inputs": [
        {
          "internalType": "address",
          "name": "depositor",
          "type": "address"
        },
        {
          "internalType": "address",
          "name": "recipient",
          "type": "address"
        },
        {
          "internalType": "address",
          "name": "originToken",
          "type": "address"
        },
        {
          "internalType": "uint256",
          "name": "amount",
          "type": "uint256"
        },
        {
          "internalType": "uint256",
          "name": "destinationChainId",
          "type": "uint256"
        },
        {
          "internalType": "int64",
          "name": "relayerFeePct",
          "type": "int64"
        },
        {
          "internalType": "bytes",
          "name": "message",
          "type": "bytes"
        },
        {
          "internalType": "uint256",
          "name": "maxCount",
          "type": "uint256"
        }
      ],
      "name": "depositForNow",
      "outputs": [],
      "stateMutability": "payable",
      "type": "function"
    },
    {
      "inputs": [
        {
          "internalType": "address",
          "name": "recipient",
          "type": "address"
        },
        {
          "internalType": "address",
          "name": "originToken",
          "type": "address"
        },
        {
          "internalType": "uint256",
          "name": "amount",
          "type": "uint256"
        },
        {
          "internalType": "uint256",
          "name": "destinationChainId",
          "type": "uint256"
        },
        {
          "internalType": "int64",
          "name": "relayerFeePct",
          "type": "int64"
        },
        {
          "internalType": "bytes",
          "name": "message",
          "type": "bytes"
        },
        {
          "internalType": "uint256",
          "name": "maxCount",
          "type": "uint256"
        }
      ],
      "name": "depositNow",
      "outputs": [],
      "stateMutability": "payable",
      "type": "function"
    },
    {
      "inputs": [],
      "name": "depositQuoteTimeBuffer",
      "outputs": [
        {
          "internalType": "uint32",
          "name": "",
          "type": "uint32"
        }
      ],
      "stateMutability": "view",
      "type": "function"
    },
    {
      "inputs": [
        {
          "internalType": "address",
          "name": "recipient",
          "type": "address"
        },
        {
          "internalType": "address",
          "name": "originToken",
          "type": "address"
        },
        {
          "internalType": "uint256",
          "name": "amount",
          "type": "uint256"
        },
        {
          "internalType": "uint256",
          "name": "destinationChainId",
          "type": "uint256"
        },
        {
          "internalType": "int64",
          "name": "relayerFeePct",
          "type": "int64"
        },
        {
          "internalType": "uint32",
          "name": "quoteTimestamp",
          "type": "uint32"
        },
        {
          "internalType": "bytes",
          "name": "message",
          "type": "bytes"
        },
        {
          "internalType": "uint256",
          "name": "",
          "type": "uint256"
        }
      ],
      "name": "depositV2",
      "outputs": [],
      "stateMutability": "payable",
      "type": "function"
    },
    {
      "inputs": [
        {
          "internalType": "address",
          "name": "depositor",
          "type": "address"
        },
        {
          "internalType": "address",
          "name": "recipient",
          "type": "address"
        },
        {
          "internalType": "address",
          "name": "inputToken",
          "type": "address"
        },
        {
          "internalType": "address",
          "name": "outputToken",
          "type": "address"
        },
        {
          "internalType": "uint256",
          "name": "inputAmount",
          "type": "uint256"
        },
        {
          "internalType": "uint256",
          "name": "outputAmount",
          "type": "uint256"
        },
        {
          "internalType": "uint256",
          "name": "destinationChainId",
          "type": "uint256"
        },
        {
          "internalType": "address",
          "name": "exclusiveRelayer",
          "type": "address"
        },
        {
          "internalType": "uint32",
          "name": "quoteTimestamp",
          "type": "uint32"
        },
        {
          "internalType": "uint32",
          "name": "fillDeadline",
          "type": "uint32"
        },
        {
          "internalType": "uint32",
          "name": "exclusivityDeadline",
          "type": "uint32"
        },
        {
          "internalType": "bytes",
          "name": "message",
          "type": "bytes"
        }
      ],
      "name": "depositV3",
      "outputs": [],
      "stateMutability": "payable",
      "type": "function"
    },
    {
      "inputs": [
        {
          "internalType": "uint256",
          "name": "rootBundleId",
          "type": "uint256"
        }
      ],
      "name": "emergencyDeleteRootBundle",
      "outputs": [],
      "stateMutability": "nonpayable",
      "type": "function"
    },
    {
      "inputs": [
        {
          "internalType": "address",
          "name": "",
          "type": "address"
        },
        {
          "internalType": "uint256",
          "name": "",
          "type": "uint256"
        }
      ],
      "name": "enabledDepositRoutes",
      "outputs": [
        {
          "internalType": "bool",
          "name": "",
          "type": "bool"
        }
      ],
      "stateMutability": "view",
      "type": "function"
    },
    {
      "inputs": [
        {
          "internalType": "uint32",
          "name": "rootBundleId",
          "type": "uint32"
        },
        {
          "components": [
            {
              "internalType": "uint256",
              "name": "amountToReturn",
              "type": "uint256"
            },
            {
              "internalType": "uint256",
              "name": "chainId",
              "type": "uint256"
            },
            {
              "internalType": "uint256[]",
              "name": "refundAmounts",
              "type": "uint256[]"
            },
            {
              "internalType": "uint32",
              "name": "leafId",
              "type": "uint32"
            },
            {
              "internalType": "address",
              "name": "l2TokenAddress",
              "type": "address"
            },
            {
              "internalType": "address[]",
              "name": "refundAddresses",
              "type": "address[]"
            }
          ],
          "internalType": "struct SpokePoolInterface.RelayerRefundLeaf",
          "name": "relayerRefundLeaf",
          "type": "tuple"
        },
        {
          "internalType": "bytes32[]",
          "name": "proof",
          "type": "bytes32[]"
        }
      ],
      "name": "executeRelayerRefundLeaf",
      "outputs": [],
      "stateMutability": "payable",
      "type": "function"
    },
    {
      "inputs": [
        {
          "internalType": "address",
          "name": "depositor",
          "type": "address"
        },
        {
          "internalType": "address",
          "name": "recipient",
          "type": "address"
        },
        {
          "internalType": "address",
          "name": "destinationToken",
          "type": "address"
        },
        {
          "internalType": "uint256",
          "name": "amount",
          "type": "uint256"
        },
        {
          "internalType": "uint256",
          "name": "originChainId",
          "type": "uint256"
        },
        {
          "internalType": "int64",
          "name": "realizedLpFeePct",
          "type": "int64"
        },
        {
          "internalType": "int64",
          "name": "relayerFeePct",
          "type": "int64"
        },
        {
          "internalType": "uint32",
          "name": "depositId",
          "type": "uint32"
        },
        {
          "internalType": "uint32",
          "name": "rootBundleId",
          "type": "uint32"
        },
        {
          "internalType": "bytes",
          "name": "message",
          "type": "bytes"
        },
        {
          "internalType": "int256",
          "name": "payoutAdjustment",
          "type": "int256"
        },
        {
          "internalType": "bytes32[]",
          "name": "proof",
          "type": "bytes32[]"
        }
      ],
      "name": "executeSlowRelayLeaf",
      "outputs": [],
      "stateMutability": "nonpayable",
      "type": "function"
    },
    {
      "inputs": [
        {
          "internalType": "uint32",
          "name": "rootBundleId",
          "type": "uint32"
        },
        {
          "components": [
            {
              "internalType": "uint256",
              "name": "amountToReturn",
              "type": "uint256"
            },
            {
              "internalType": "uint256",
              "name": "chainId",
              "type": "uint256"
            },
            {
              "internalType": "uint256[]",
              "name": "refundAmounts",
              "type": "uint256[]"
            },
            {
              "internalType": "uint32",
              "name": "leafId",
              "type": "uint32"
            },
            {
              "internalType": "address",
              "name": "l2TokenAddress",
              "type": "address"
            },
            {
              "internalType": "address[]",
              "name": "refundAddresses",
              "type": "address[]"
            },
            {
              "internalType": "bytes32",
              "name": "fillsRefundedRoot",
              "type": "bytes32"
            },
            {
              "internalType": "string",
              "name": "fillsRefundedHash",
              "type": "string"
            }
          ],
          "internalType": "struct V3SpokePoolInterface.V3RelayerRefundLeaf",
          "name": "relayerRefundLeaf",
          "type": "tuple"
        },
        {
          "internalType": "bytes32[]",
          "name": "proof",
          "type": "bytes32[]"
        }
      ],
      "name": "executeV3RelayerRefundLeaf",
      "outputs": [],
      "stateMutability": "payable",
      "type": "function"
    },
    {
      "inputs": [
        {
          "components": [
            {
              "components": [
                {
                  "internalType": "address",
                  "name": "depositor",
                  "type": "address"
                },
                {
                  "internalType": "address",
                  "name": "recipient",
                  "type": "address"
                },
                {
                  "internalType": "address",
                  "name": "exclusiveRelayer",
                  "type": "address"
                },
                {
                  "internalType": "address",
                  "name": "inputToken",
                  "type": "address"
                },
                {
                  "internalType": "address",
                  "name": "outputToken",
                  "type": "address"
                },
                {
                  "internalType": "uint256",
                  "name": "inputAmount",
                  "type": "uint256"
                },
                {
                  "internalType": "uint256",
                  "name": "outputAmount",
                  "type": "uint256"
                },
                {
                  "internalType": "uint256",
                  "name": "originChainId",
                  "type": "uint256"
                },
                {
                  "internalType": "uint32",
                  "name": "depositId",
                  "type": "uint32"
                },
                {
                  "internalType": "uint32",
                  "name": "fillDeadline",
                  "type": "uint32"
                },
                {
                  "internalType": "uint32",
                  "name": "exclusivityDeadline",
                  "type": "uint32"
                },
                {
                  "internalType": "bytes",
                  "name": "message",
                  "type": "bytes"
                }
              ],
              "internalType": "struct V3SpokePoolInterface.V3RelayData",
              "name": "relayData",
              "type": "tuple"
            },
            {
              "internalType": "uint256",
              "name": "chainId",
              "type": "uint256"
            },
            {
              "internalType": "uint256",
              "name": "updatedOutputAmount",
              "type": "uint256"
            }
          ],
          "internalType": "struct V3SpokePoolInterface.V3SlowFill",
          "name": "slowFillLeaf",
          "type": "tuple"
        },
        {
          "internalType": "uint32",
          "name": "rootBundleId",
          "type": "uint32"
        },
        {
          "internalType": "bytes32[]",
          "name": "proof",
          "type": "bytes32[]"
        }
      ],
      "name": "executeV3SlowRelayLeaf",
      "outputs": [],
      "stateMutability": "nonpayable",
      "type": "function"
    },
    {
      "inputs": [],
      "name": "fillDeadlineBuffer",
      "outputs": [
        {
          "internalType": "uint32",
          "name": "",
          "type": "uint32"
        }
      ],
      "stateMutability": "view",
      "type": "function"
    },
    {
      "inputs": [
        {
          "internalType": "address",
          "name": "depositor",
          "type": "address"
        },
        {
          "internalType": "address",
          "name": "recipient",
          "type": "address"
        },
        {
          "internalType": "address",
          "name": "destinationToken",
          "type": "address"
        },
        {
          "internalType": "uint256",
          "name": "amount",
          "type": "uint256"
        },
        {
          "internalType": "uint256",
          "name": "maxTokensToSend",
          "type": "uint256"
        },
        {
          "internalType": "uint256",
          "name": "repaymentChainId",
          "type": "uint256"
        },
        {
          "internalType": "uint256",
          "name": "originChainId",
          "type": "uint256"
        },
        {
          "internalType": "int64",
          "name": "realizedLpFeePct",
          "type": "int64"
        },
        {
          "internalType": "int64",
          "name": "relayerFeePct",
          "type": "int64"
        },
        {
          "internalType": "uint32",
          "name": "depositId",
          "type": "uint32"
        },
        {
          "internalType": "bytes",
          "name": "message",
          "type": "bytes"
        },
        {
          "internalType": "uint256",
          "name": "maxCount",
          "type": "uint256"
        }
      ],
      "name": "fillRelay",
      "outputs": [],
      "stateMutability": "nonpayable",
      "type": "function"
    },
    {
      "inputs": [
        {
          "internalType": "address",
          "name": "depositor",
          "type": "address"
        },
        {
          "internalType": "address",
          "name": "recipient",
          "type": "address"
        },
        {
          "internalType": "address",
          "name": "updatedRecipient",
          "type": "address"
        },
        {
          "internalType": "address",
          "name": "destinationToken",
          "type": "address"
        },
        {
          "internalType": "uint256",
          "name": "amount",
          "type": "uint256"
        },
        {
          "internalType": "uint256",
          "name": "maxTokensToSend",
          "type": "uint256"
        },
        {
          "internalType": "uint256",
          "name": "repaymentChainId",
          "type": "uint256"
        },
        {
          "internalType": "uint256",
          "name": "originChainId",
          "type": "uint256"
        },
        {
          "internalType": "int64",
          "name": "realizedLpFeePct",
          "type": "int64"
        },
        {
          "internalType": "int64",
          "name": "relayerFeePct",
          "type": "int64"
        },
        {
          "internalType": "int64",
          "name": "updatedRelayerFeePct",
          "type": "int64"
        },
        {
          "internalType": "uint32",
          "name": "depositId",
          "type": "uint32"
        },
        {
          "internalType": "bytes",
          "name": "message",
          "type": "bytes"
        },
        {
          "internalType": "bytes",
          "name": "updatedMessage",
          "type": "bytes"
        },
        {
          "internalType": "bytes",
          "name": "depositorSignature",
          "type": "bytes"
        },
        {
          "internalType": "uint256",
          "name": "maxCount",
          "type": "uint256"
        }
      ],
      "name": "fillRelayWithUpdatedDeposit",
      "outputs": [],
      "stateMutability": "nonpayable",
      "type": "function"
    },
    {
      "inputs": [
        {
          "internalType": "bytes32",
          "name": "",
          "type": "bytes32"
        }
      ],
      "name": "fillStatuses",
      "outputs": [
        {
          "internalType": "uint256",
          "name": "",
          "type": "uint256"
        }
      ],
      "stateMutability": "view",
      "type": "function"
    },
    {
      "inputs": [
        {
          "components": [
            {
              "internalType": "address",
              "name": "depositor",
              "type": "address"
            },
            {
              "internalType": "address",
              "name": "recipient",
              "type": "address"
            },
            {
              "internalType": "address",
              "name": "exclusiveRelayer",
              "type": "address"
            },
            {
              "internalType": "address",
              "name": "inputToken",
              "type": "address"
            },
            {
              "internalType": "address",
              "name": "outputToken",
              "type": "address"
            },
            {
              "internalType": "uint256",
              "name": "inputAmount",
              "type": "uint256"
            },
            {
              "internalType": "uint256",
              "name": "outputAmount",
              "type": "uint256"
            },
            {
              "internalType": "uint256",
              "name": "originChainId",
              "type": "uint256"
            },
            {
              "internalType": "uint32",
              "name": "depositId",
              "type": "uint32"
            },
            {
              "internalType": "uint32",
              "name": "fillDeadline",
              "type": "uint32"
            },
            {
              "internalType": "uint32",
              "name": "exclusivityDeadline",
              "type": "uint32"
            },
            {
              "internalType": "bytes",
              "name": "message",
              "type": "bytes"
            }
          ],
          "internalType": "struct V3SpokePoolInterface.V3RelayData",
          "name": "relayData",
          "type": "tuple"
        },
        {
          "internalType": "uint256",
          "name": "repaymentChainId",
          "type": "uint256"
        }
      ],
      "name": "fillV3Relay",
      "outputs": [],
      "stateMutability": "nonpayable",
      "type": "function"
    },
    {
      "inputs": [
        {
          "components": [
            {
              "internalType": "address",
              "name": "depositor",
              "type": "address"
            },
            {
              "internalType": "address",
              "name": "recipient",
              "type": "address"
            },
            {
              "internalType": "address",
              "name": "exclusiveRelayer",
              "type": "address"
            },
            {
              "internalType": "address",
              "name": "inputToken",
              "type": "address"
            },
            {
              "internalType": "address",
              "name": "outputToken",
              "type": "address"
            },
            {
              "internalType": "uint256",
              "name": "inputAmount",
              "type": "uint256"
            },
            {
              "internalType": "uint256",
              "name": "outputAmount",
              "type": "uint256"
            },
            {
              "internalType": "uint256",
              "name": "originChainId",
              "type": "uint256"
            },
            {
              "internalType": "uint32",
              "name": "depositId",
              "type": "uint32"
            },
            {
              "internalType": "uint32",
              "name": "fillDeadline",
              "type": "uint32"
            },
            {
              "internalType": "uint32",
              "name": "exclusivityDeadline",
              "type": "uint32"
            },
            {
              "internalType": "bytes",
              "name": "message",
              "type": "bytes"
            }
          ],
          "internalType": "struct V3SpokePoolInterface.V3RelayData",
          "name": "relayData",
          "type": "tuple"
        },
        {
          "internalType": "uint256",
          "name": "repaymentChainId",
          "type": "uint256"
        },
        {
          "internalType": "uint256",
          "name": "updatedOutputAmount",
          "type": "uint256"
        },
        {
          "internalType": "address",
          "name": "updatedRecipient",
          "type": "address"
        },
        {
          "internalType": "bytes",
          "name": "updatedMessage",
          "type": "bytes"
        },
        {
          "internalType": "bytes",
          "name": "depositorSignature",
          "type": "bytes"
        }
      ],
      "name": "fillV3RelayWithUpdatedDeposit",
      "outputs": [],
      "stateMutability": "nonpayable",
      "type": "function"
    },
    {
      "inputs": [],
      "name": "getCurrentTime",
      "outputs": [
        {
          "internalType": "uint256",
          "name": "",
          "type": "uint256"
        }
      ],
      "stateMutability": "view",
      "type": "function"
    },
    {
      "inputs": [],
      "name": "hubPool",
      "outputs": [
        {
          "internalType": "address",
          "name": "",
          "type": "address"
        }
      ],
      "stateMutability": "view",
      "type": "function"
    },
    {
      "inputs": [
        {
          "internalType": "uint32",
          "name": "_initialDepositId",
          "type": "uint32"
        },
        {
          "internalType": "address",
          "name": "_l2GatewayRouter",
          "type": "address"
        },
        {
          "internalType": "address",
          "name": "_crossDomainAdmin",
          "type": "address"
        },
        {
          "internalType": "address",
          "name": "_hubPool",
          "type": "address"
        }
      ],
      "name": "initialize",
      "outputs": [],
      "stateMutability": "nonpayable",
      "type": "function"
    },
    {
      "inputs": [],
      "name": "l2GatewayRouter",
      "outputs": [
        {
          "internalType": "address",
          "name": "",
          "type": "address"
        }
      ],
      "stateMutability": "view",
      "type": "function"
    },
    {
      "inputs": [
        {
          "internalType": "bytes[]",
          "name": "data",
          "type": "bytes[]"
        }
      ],
      "name": "multicall",
      "outputs": [
        {
          "internalType": "bytes[]",
          "name": "results",
          "type": "bytes[]"
        }
      ],
      "stateMutability": "nonpayable",
      "type": "function"
    },
    {
      "inputs": [],
      "name": "numberOfDeposits",
      "outputs": [
        {
          "internalType": "uint32",
          "name": "",
          "type": "uint32"
        }
      ],
      "stateMutability": "view",
      "type": "function"
    },
    {
      "inputs": [
        {
          "internalType": "bool",
          "name": "pause",
          "type": "bool"
        }
      ],
      "name": "pauseDeposits",
      "outputs": [],
      "stateMutability": "nonpayable",
      "type": "function"
    },
    {
      "inputs": [
        {
          "internalType": "bool",
          "name": "pause",
          "type": "bool"
        }
      ],
      "name": "pauseFills",
      "outputs": [],
      "stateMutability": "nonpayable",
      "type": "function"
    },
    {
      "inputs": [],
      "name": "pausedDeposits",
      "outputs": [
        {
          "internalType": "bool",
          "name": "",
          "type": "bool"
        }
      ],
      "stateMutability": "view",
      "type": "function"
    },
    {
      "inputs": [],
      "name": "pausedFills",
      "outputs": [
        {
          "internalType": "bool",
          "name": "",
          "type": "bool"
        }
      ],
      "stateMutability": "view",
      "type": "function"
    },
    {
      "inputs": [],
      "name": "proxiableUUID",
      "outputs": [
        {
          "internalType": "bytes32",
          "name": "",
          "type": "bytes32"
        }
      ],
      "stateMutability": "view",
      "type": "function"
    },
    {
      "inputs": [],
      "name": "recipientCircleDomainId",
      "outputs": [
        {
          "internalType": "uint32",
          "name": "",
          "type": "uint32"
        }
      ],
      "stateMutability": "view",
      "type": "function"
    },
    {
      "inputs": [
        {
          "internalType": "bytes32",
          "name": "relayerRefundRoot",
          "type": "bytes32"
        },
        {
          "internalType": "bytes32",
          "name": "slowRelayRoot",
          "type": "bytes32"
        }
      ],
      "name": "relayRootBundle",
      "outputs": [],
      "stateMutability": "nonpayable",
      "type": "function"
    },
    {
      "inputs": [
        {
          "components": [
            {
              "internalType": "address",
              "name": "depositor",
              "type": "address"
            },
            {
              "internalType": "address",
              "name": "recipient",
              "type": "address"
            },
            {
              "internalType": "address",
              "name": "exclusiveRelayer",
              "type": "address"
            },
            {
              "internalType": "address",
              "name": "inputToken",
              "type": "address"
            },
            {
              "internalType": "address",
              "name": "outputToken",
              "type": "address"
            },
            {
              "internalType": "uint256",
              "name": "inputAmount",
              "type": "uint256"
            },
            {
              "internalType": "uint256",
              "name": "outputAmount",
              "type": "uint256"
            },
            {
              "internalType": "uint256",
              "name": "originChainId",
              "type": "uint256"
            },
            {
              "internalType": "uint32",
              "name": "depositId",
              "type": "uint32"
            },
            {
              "internalType": "uint32",
              "name": "fillDeadline",
              "type": "uint32"
            },
            {
              "internalType": "uint32",
              "name": "exclusivityDeadline",
              "type": "uint32"
            },
            {
              "internalType": "bytes",
              "name": "message",
              "type": "bytes"
            }
          ],
          "internalType": "struct V3SpokePoolInterface.V3RelayData",
          "name": "relayData",
          "type": "tuple"
        }
      ],
      "name": "requestV3SlowFill",
      "outputs": [],
      "stateMutability": "nonpayable",
      "type": "function"
    },
    {
      "inputs": [
        {
          "internalType": "uint256",
          "name": "",
          "type": "uint256"
        }
      ],
      "name": "rootBundles",
      "outputs": [
        {
          "internalType": "bytes32",
          "name": "slowRelayRoot",
          "type": "bytes32"
        },
        {
          "internalType": "bytes32",
          "name": "relayerRefundRoot",
          "type": "bytes32"
        }
      ],
      "stateMutability": "view",
      "type": "function"
    },
    {
      "inputs": [
        {
          "internalType": "address",
          "name": "newCrossDomainAdmin",
          "type": "address"
        }
      ],
      "name": "setCrossDomainAdmin",
      "outputs": [],
      "stateMutability": "nonpayable",
      "type": "function"
    },
    {
      "inputs": [
        {
          "internalType": "address",
          "name": "originToken",
          "type": "address"
        },
        {
          "internalType": "uint256",
          "name": "destinationChainId",
          "type": "uint256"
        },
        {
          "internalType": "bool",
          "name": "enabled",
          "type": "bool"
        }
      ],
      "name": "setEnableRoute",
      "outputs": [],
      "stateMutability": "nonpayable",
      "type": "function"
    },
    {
      "inputs": [
        {
          "internalType": "address",
          "name": "newHubPool",
          "type": "address"
        }
      ],
      "name": "setHubPool",
      "outputs": [],
      "stateMutability": "nonpayable",
      "type": "function"
    },
    {
      "inputs": [
        {
          "internalType": "address",
          "name": "newL2GatewayRouter",
          "type": "address"
        }
      ],
      "name": "setL2GatewayRouter",
      "outputs": [],
      "stateMutability": "nonpayable",
      "type": "function"
    },
    {
      "inputs": [
        {
          "internalType": "address",
          "name": "depositor",
          "type": "address"
        },
        {
          "internalType": "int64",
          "name": "updatedRelayerFeePct",
          "type": "int64"
        },
        {
          "internalType": "uint32",
          "name": "depositId",
          "type": "uint32"
        },
        {
          "internalType": "address",
          "name": "updatedRecipient",
          "type": "address"
        },
        {
          "internalType": "bytes",
          "name": "updatedMessage",
          "type": "bytes"
        },
        {
          "internalType": "bytes",
          "name": "depositorSignature",
          "type": "bytes"
        }
      ],
      "name": "speedUpDeposit",
      "outputs": [],
      "stateMutability": "nonpayable",
      "type": "function"
    },
    {
      "inputs": [
        {
          "internalType": "address",
          "name": "depositor",
          "type": "address"
        },
        {
          "internalType": "uint32",
          "name": "depositId",
          "type": "uint32"
        },
        {
          "internalType": "uint256",
          "name": "updatedOutputAmount",
          "type": "uint256"
        },
        {
          "internalType": "address",
          "name": "updatedRecipient",
          "type": "address"
        },
        {
          "internalType": "bytes",
          "name": "updatedMessage",
          "type": "bytes"
        },
        {
          "internalType": "bytes",
          "name": "depositorSignature",
          "type": "bytes"
        }
      ],
      "name": "speedUpV3Deposit",
      "outputs": [],
      "stateMutability": "nonpayable",
      "type": "function"
    },
    {
      "inputs": [
        {
          "internalType": "address",
          "name": "newImplementation",
          "type": "address"
        }
      ],
      "name": "upgradeTo",
      "outputs": [],
      "stateMutability": "nonpayable",
      "type": "function"
    },
    {
      "inputs": [
        {
          "internalType": "address",
          "name": "newImplementation",
          "type": "address"
        },
        {
          "internalType": "bytes",
          "name": "data",
          "type": "bytes"
        }
      ],
      "name": "upgradeToAndCall",
      "outputs": [],
      "stateMutability": "payable",
      "type": "function"
    },
    {
      "inputs": [],
      "name": "usdcToken",
      "outputs": [
        {
          "internalType": "contract IERC20",
          "name": "",
          "type": "address"
        }
      ],
      "stateMutability": "view",
      "type": "function"
    },
    {
      "inputs": [
        {
          "internalType": "address",
          "name": "l2Token",
          "type": "address"
        },
        {
          "internalType": "address",
          "name": "l1Token",
          "type": "address"
        }
      ],
      "name": "whitelistToken",
      "outputs": [],
      "stateMutability": "nonpayable",
      "type": "function"
    },
    {
      "inputs": [
        {
          "internalType": "address",
          "name": "",
          "type": "address"
        }
      ],
      "name": "whitelistedTokens",
      "outputs": [
        {
          "internalType": "address",
          "name": "",
          "type": "address"
        }
      ],
      "stateMutability": "view",
      "type": "function"
    },
    {
      "inputs": [],
      "name": "wrappedNativeToken",
      "outputs": [
        {
          "internalType": "contract WETH9Interface",
          "name": "",
          "type": "address"
        }
      ],
      "stateMutability": "view",
      "type": "function"
    },
    {
      "stateMutability": "payable",
      "type": "receive"
    }
  ],
  "solcInputHash": "e51b139bd771f43f56976d48a9a82e00",
  "bytecode": "0x61016034620001de57601f6200576738819003918201601f19168301916001600160401b03831184841017620001e35780849260a094604052833981010312620001de5780516001600160a01b03919082811690819003620001de576200006960208301620001f9565b6200007760408401620001f9565b916060840151938585168503620001de57608001519485168503620001de573060805260a05260c05260e05260005460ff8160081c16620001de5760ff80821603620001a2575b5061012090815261014091825261010091600083526040519161555b93846200020c8539608051848181610fe30152818161135e0152611496015260a05184818161090a015281816120dd01528181612b17015281816139e00152818161463b015281816148cf015281816148f601528181614c430152614eae015260c0518481816115880152818161209601528181612ab20152613994015260e0518481816103ad0152612ade0152518381816116bd01526152830152518281816108c501528181613ddd01526151fb01525181818161195c01528181613c6c01526151ce0152f35b60ff90811916176000557f7f26b83ff96e1f2b6a682f133852f6798a09c465da95921460cefb3847402498602060405160ff8152a138620000be565b600080fd5b634e487b7160e01b600052604160045260246000fd5b519063ffffffff82168203620001de5756fe6080604052600436101561001b575b361561001957600080fd5b005b60003560e01c8063079bd2c71461037b5780630c2097f7146103765780631186ec331461037157806311eac8551461036c57806317fcb39b146103675780631b3d5559146103625780631dfb2d021461035d57806323c89a8214610358578063272751c71461035357806329cb924d1461034e5780632cfc26c5146103495780632e37811514610344578063364f01a61461033f5780633659cfe61461033a57806344b8be6814610335578063493a4f84146103305780634e0fb8f51461032b5780634e3485c8146103265780634f1ef286146103215780635249fef11461031c5780635285e0581461031757806352d1902d14610312578063541f4f141461030d57806357f6dcb8146103085780635ceaec32146103035780636068d6cb146102fe5780636e400983146102f9578063738b62e5146102f45780637b939232146102ef5780637e688bba146102ea5780638a7860ce146102e55780639748cf7c146102e0578063979f2bc2146102db5780639963e5a8146102d657806399cc2968146102d15780639a8a0592146102cc578063a1244c67146102c7578063a78e4b60146102c2578063ac9650d8146102bd578063ae527fbb146102b8578063b5e1bf5f146102b3578063bbca7db0146102ae578063bdcb53a5146102a9578063c35c83fc146102a4578063c83568591461029f578063ccfa59711461029a578063daf9c21014610295578063dda5211314610290578063ddd224f11461028b578063de7eba7814610286578063e190440214610281578063ee2a53f81461027c578063fb6bf74c146102775763fd7c10540361000e57612535565b612423565b6123e5565b612381565b612337565b61230d565b6122e6565b6122a6565b612224565b6121fa565b6121cd565b611fef565b611efd565b611ed2565b611e54565b611d86565b611cb3565b611c8b565b611c70565b611bd8565b611a61565b61198b565b611946565b6118a9565b611822565b611779565b6116e1565b6116a0565b611679565b6115ac565b61156b565b6114dc565b611483565b611459565b6113fb565b61131d565b6112ce565b6111b3565b6110e8565b611053565b610fbc565b610f0b565b610de9565b610db1565b610d96565b610ce2565b610b03565b610a84565b6109ac565b6108f4565b6108af565b610877565b610763565b610390565b600091031261038b57565b600080fd5b3461038b57600036600319011261038b57602060405163ffffffff7f0000000000000000000000000000000000000000000000000000000000000000168152f35b6001600160a01b031690565b6001600160a01b0381160361038b57565b600435906103fb826103dd565b565b602435906103fb826103dd565b604435906103fb826103dd565b606435906103fb826103dd565b35906103fb826103dd565b60a435908160070b820361038b57565b60c435908160070b820361038b57565b61010435908160070b820361038b57565b61012435908160070b820361038b57565b61014435908160070b820361038b57565b608435908160070b820361038b57565b63ffffffff81160361038b57565b60e435906103fb82610492565b61010435906103fb82610492565b61012435906103fb82610492565b61016435906103fb82610492565b61014435906103fb82610492565b35906103fb82610492565b634e487b7160e01b600052604160045260246000fd5b6001600160401b03811161051957604052565b6104f0565b606081019081106001600160401b0382111761051957604052565b60a081019081106001600160401b0382111761051957604052565b602081019081106001600160401b0382111761051957604052565b604081019081106001600160401b0382111761051957604052565b60e081019081106001600160401b0382111761051957604052565b601f909101601f19168101906001600160401b0382119082101761051957604052565b6040519060c082016001600160401b0381118382101761051957604052565b6040519061014082016001600160401b0381118382101761051957604052565b6040519061018082016001600160401b0381118382101761051957604052565b6040519061010082016001600160401b0381118382101761051957604052565b60405190608082016001600160401b0381118382101761051957604052565b604051906103fb82610539565b6001600160401b03811161051957601f01601f191660200190565b92919261069a82610673565b916106a860405193846105a5565b82948184528183011161038b578281602093846000960137010152565b9080601f8301121561038b578160206106e09335910161068e565b90565b6001600160401b0381116105195760051b60200190565b9291610705826106e3565b9161071360405193846105a5565b829481845260208094019160051b810192831161038b57905b8282106107395750505050565b8135815290830190830161072c565b9080601f8301121561038b578160206106e0933591016106fa565b3461038b5761018036600319011261038b57600435610781816103dd565b6107896103fd565b9061079261040a565b61079a61042f565b926107a361043f565b6107ab6104a0565b6107b36104ad565b6001600160401b03969092906101243588811161038b576107d89036906004016106c5565b946101643598891161038b576107f5610019993690600401610748565b97610144359760843592606435926132f4565b61010060031982011261038b57600435610821816103dd565b9160243561082e816103dd565b9160443591606435916084358060070b810361038b579160a43561085181610492565b9160c435906001600160401b03821161038b57610870916004016106c5565b9060e43590565b61088036610808565b50946108909491949392936128ff565b60ff61086b5460e81c1661038b576108a8963361392e565b6001606555005b3461038b57600036600319011261038b576040517f00000000000000000000000000000000000000000000000000000000000000006001600160a01b03168152602090f35b3461038b57600036600319011261038b576040517f00000000000000000000000000000000000000000000000000000000000000006001600160a01b03168152602090f35b9291610944826106e3565b9161095260405193846105a5565b829481845260208094019160051b810192831161038b57905b8282106109785750505050565b8380918335610986816103dd565b81520191019061096b565b9080601f8301121561038b578160206106e093359101610939565b60031960603682011261038b576004356109c581610492565b6001600160401b03916024359083821161038b5760c090823603011261038b576109ed6105c8565b908060040135825260248101356020830152604481013584811161038b57610a1b9060043691840101610748565b6040830152610a2c606482016104e5565b6060830152610a3d60848201610424565b608083015260a48101359084821161038b576004610a5e9236920101610991565b60a082015260443592831161038b57610a7e610019933690600401610748565b916133e1565b3461038b57602036600319011261038b57600435610aa1816103dd565b610869546001600160a01b0390811661111161111160901b010116330361038b576108a890610ace6128ff565b613e4f565b9181601f8401121561038b578235916001600160401b03831161038b576020808501948460051b01011161038b57565b60031960603682011261038b5760043590610b1d82610492565b602435906001600160401b0380831161038b576101008360040192843603011261038b5760443590811161038b57610b59903690600401610ad3565b9190610b636128ff565b6084840190610b7182613047565b50602485013593468503610cc657610bb591610bb191610bab6001610b958b6123c1565b50015492610ba3368961369d565b9236916106fa565b9161382c565b1590565b610cb4576064840191610bc783613051565b610bd19087613e98565b80359060448601610be2818361374d565b9190610bed87613051565b610bf687613047565b60a48b0194610c05868861374d565b9490913690610c13926106fa565b933690610c1f92610939565b91610c2b93888c613ac8565b610c35908361374d565b95610c3f90613051565b94610c4990613047565b91610c54908461374d565b909360e48a01610c639161313a565b94909360405198899863ffffffff8091169d169b60c4013594610c86988a613782565b037fb89613053f0ed7f585819b5a108348fd1bac1f64eca872dca9bc91f2cae2842a91a46100196001606555565b60405163582f497d60e11b8152600490fd5b604051633d23e4d160e11b8152600490fd5b8015150361038b57565b3461038b57606036600319011261038b57600435610cff816103dd565b60243560443591610d0f83610cd8565b610869546001600160a01b039190821661111161111160901b01018216330361038b57610d3a6128ff565b167f0a21fdd43d0ad0c62689ee7230a47309a050755bcc52eba00310add65297692a602060009483865261086d8252604086208587528252604086209015159060ff1981541660ff8316179055604051908152a3600160655580f35b3461038b57600036600319011261038b576020604051428152f35b3461038b57600036600319011261038b5760206040516000805160206155068339815191528152f35b908161018091031261038b5790565b3461038b57604036600319011261038b576004356001600160401b03811161038b57610e19903690600401610dda565b610e216128ff565b60ff61086b5460e01c1661038b57610e3b60408201613047565b6001600160a01b031633141580610eee575b610edc57610ed290610ebe610e6a610e65368461305b565b614411565b9160c0610eb7610e7c60208401613047565b610e8a61016085018561313a565b939094610e956105c8565b97610ea0368361305b565b895260208901520135604087015260608601612f3a565b369161068e565b608082015260243560a08201523390614a89565b6100196001606555565b604051630c3a9b9d60e41b8152600490fd5b50610efc6101408201613051565b63ffffffff4291161015610e4d565b3461038b57604036600319011261038b57600435610f28816103dd565b60243590610f35826103dd565b610869546001600160a01b039190821661111161111160901b01018216330361038b578190610f626128ff565b166000818152610c5b6020526040812080546001600160a01b0319166001600160a01b03861617905592909116907f8d7f294eaa476236fe8cb5629376a12cd37dace3d21e6a7b98f1641c4ed5f09e8380a3600160655580f35b3461038b57602036600319011261038b57600435610fd9816103dd565b6001600160a01b037f0000000000000000000000000000000000000000000000000000000000000000811630811461038b578160008051602061548683398151915254160361038b5761086954811661111161111160901b010116330361038b576040516100199161104a82610554565b600082526125df565b3461038b5761018036600319011261038b57600435611071816103dd565b60243561107d816103dd565b604435611089816103dd565b60e4358060070b810361038b5761109e61044f565b6110a66104bb565b61014435959092906001600160401b03871161038b576110cd6100199736906004016106c5565b94610164359660c4359260a435926084359260643592612e36565b3461038b57604036600319011261038b576108695460243590600435906001600160a01b0390811661111161111160901b010116330361038b5761112a6128ff565b61086c8054600160401b8110156105195763ffffffff9160018201905583611151826123c1565b5084600182015555167fc86ba04c55bc5eb2f2876b91c438849a296dbec7b08751c3074d92e04f0a77af600080a46001606555005b9181601f8401121561038b578235916001600160401b03831161038b576020838186019501011161038b57565b3461038b5760c036600319011261038b576004356111d0816103dd565b602435906111dd82610492565b606435906044356111ed836103dd565b6001600160401b0360843581811161038b5761120d903690600401611186565b93909160a43590811161038b57611228903690600401611186565b9590926112336128ff565b8461123f36888461068e565b61124a368a8861068e565b90844693611259948d89613f64565b6040519586958652600160a01b6001900380931660208701526040860160809052608086019061128892612c8e565b918483036060860152169563ffffffff16946112a392612c8e565b037fb0a29aed3d389a1041194255878b423f7780be3ed2324d4693508c6ff189845e91a36001606555005b3461038b57602036600319011261038b576004356112eb816103dd565b610869546001600160a01b0390811661111161111160901b010116330361038b576108a8906113186128ff565b612910565b604036600319011261038b57600435611335816103dd565b6024356001600160401b03811161038b576113549036906004016106c5565b6001600160a01b037f0000000000000000000000000000000000000000000000000000000000000000811630811461038b578160008051602061548683398151915254160361038b5761086954811661111161111160901b010116330361038b5761001991612715565b6001600160a01b0316600090815261086d6020526040902090565b600052610872602052604060002090565b60005261086e602052604060002090565b3461038b57604036600319011261038b57600435611418816103dd565b60018060a01b031660005261086d6020526040600020602435600052602052602060ff604060002054166040519015158152f35b6001600160a01b03169052565b3461038b57600036600319011261038b57610869546040516001600160a01b039091168152602090f35b3461038b57600036600319011261038b577f00000000000000000000000000000000000000000000000000000000000000006001600160a01b0316300361038b5760206040516000805160206154868339815191528152f35b61012036600319011261038b576004356114f5816103dd565b60243590611502826103dd565b6044359161150f836103dd565b61151761042f565b60c4359161152483610492565b60e4356001600160401b03811161038b576115439036906004016106c5565b9361154c6128ff565b60ff61086b5460e81c1661038b576108a895608435926064359261392e565b3461038b57600036600319011261038b57602060405163ffffffff7f0000000000000000000000000000000000000000000000000000000000000000168152f35b3461038b5761020036600319011261038b576115c66103ee565b6115ce6103fd565b906115d761040a565b916115e0610417565b926115e961044f565b936115f2610460565b6115fa610471565b6116026104c9565b6001600160401b03979092906101843589811161038b576116279036906004016106c5565b946101a4358a811161038b576116419036906004016106c5565b966101c4359a8b1161038b5761165e6100199b36906004016106c5565b986101e4359a60e4359360c4359360a4359360843593612f49565b3461038b57600036600319011261038b57602060ff61086b5460e81c166040519015158152f35b3461038b57600036600319011261038b57602060405163ffffffff7f0000000000000000000000000000000000000000000000000000000000000000168152f35b3461038b57602036600319011261038b576004356116fe81610cd8565b610869546001600160a01b0390811661111161111160901b010116330361038b5760207fe88463c2f254e2b070013a2dc7ee1e099f9bc00534cbdf03af551dc26ae492199161174b6128ff565b61086b805460ff60e81b191691151560e881901b60ff60e81b16929092179055604051908152a16001606555005b61018036600319011261038b57600435611792816103dd565b6024359061179f826103dd565b6044356117ab816103dd565b606435906117b8826103dd565b60e4356117c4816103dd565b610104356117d181610492565b61012435916117df83610492565b6117e76104d7565b61016435979094906001600160401b03891161038b5761180e610019993690600401611186565b98909760c4359360a4359360843593612a5f565b3461038b5760c036600319011261038b5760043561183f816103dd565b602435908160070b820361038b576044359161185a83610492565b606435611866816103dd565b6001600160401b039360843585811161038b576118879036906004016106c5565b9260a43595861161038b576118a36100199636906004016106c5565b946129a2565b3461038b57602036600319011261038b5761086954600435906001600160a01b0390811661111161111160901b010116330361038b576118e76128ff565b6118f0816123c1565b91909161193057600191600092818480935501557f3569b846531b754c99cb80df3f49cd72fa6fe106aaee5ab8e0caf35a9d7ce88d8280a2600160655580f35b634e487b7160e01b600052600060045260246000fd5b3461038b57600036600319011261038b576040517f00000000000000000000000000000000000000000000000000000000000000006001600160a01b03168152602090f35b3461038b57606036600319011261038b576004356119a881610492565b6024356119b4816103dd565b6044356119c0816103dd565b60009260ff845460081c1615611a5d576119d990612957565b604051916119e68361056f565b6009835260208301906820a1a927a9a996ab1960b91b82526020604051611a0c8161056f565b6005815201640312e302e360dc1b815260ff865460081c1615611a59576005610ace93611a569651902091209061047f5561048055611a4961297d565b611a5161298d565b613e06565b80f35b8580fd5b8380fd5b3461038b57602036600319011261038b576004356001600160401b03811161038b57611a91903690600401610dda565b611a996128ff565b60ff61086b5460e01c1661038b57610120810190611ab682613051565b63ffffffff908142911610611bc657611ad2610e65368461305b565b90611adc826113d9565b54611bb557611b14611b0e7f923794976d026d6b119735adc163cb71decfc903e17c3dc226c00789593c04e1936113d9565b60019055565b611b2060608401613047565b93611ba8611b3060808601613047565b94611b47611b416101008301613051565b93613051565b90611b556101408201613051565b611b6160408301613047565b611b6a83613047565b90611b7760208501613047565b92611b8661016086018661313a565b9690956040519a8b9a169d60e08201359d60a060c0840135930135918c61328a565b0390a36100196001606555565b604051624be79160e21b8152600490fd5b60405163d642b7d960e01b8152600490fd5b3461038b57602036600319011261038b57600435611bf581610cd8565b610869546001600160a01b0390811661111161111160901b010116330361038b5760207f2d5b62420992e5a4afce0e77742636ca2608ef58289fd2e1baa5161ef6e7e41e91611c426128ff565b61086b805460ff60e01b191691151560e081901b60ff60e01b16929092179055604051908152a16001606555005b3461038b57600036600319011261038b576020604051468152f35b3461038b57600036600319011261038b57602063ffffffff61086b5460c01c16604051908152f35b3461038b57600036600319011261038b5760206040516000805160206154e68339815191528152f35b60005b838110611cef5750506000910152565b8181015183820152602001611cdf565b90602091611d1881518092818552858086019101611cdc565b601f01601f1916010190565b602080820190808352835180925260408301928160408460051b8301019501936000915b848310611d585750505050505090565b9091929394958480611d76600193603f198682030187528a51611cff565b9801930193019194939290611d48565b3461038b57602036600319011261038b57600480356001600160401b03811161038b57611db69036908301610ad3565b90611dc082615396565b9160005b818110611ddd5760405180611dd98682611d24565b0390f35b600080611deb8385876153e0565b90611dfb604051809381936153f7565b0390305af4611e0861280a565b90819015611e36575090611e3191611e208287613689565b52611e2b8186613689565b5061367a565b611dc4565b86604483511061038b5761038b920160248091518301019101613c02565b60e036600319011261038b57600435611e6c816103dd565b60243590611e79826103dd565b611e81610482565b9060a4356001600160401b03811161038b57611ea19036906004016106c5565b91611eaa6128ff565b60ff61086b5460e81c1661038b576108a89363ffffffff42169260643591604435913361392e565b3461038b57600036600319011261038b576040516b1d6329f1c35ca4bfabb9f56160281b8152602090f35b3461038b5760031960603682011261038b576004356001600160401b0380821161038b5760608236039384011261038b5760243590611f3b82610492565b60443590811161038b57611f53903690600401610ad3565b919093611f5e6128ff565b600484013590610182190181121561038b57610ed294611fea93611f8b611fe3936004369189010161305b565b95611fd0611f9888614411565b916044611fa860208b01516103d1565b916101608b015194611fb86105c8565b9b8c5260208c0152013560408a015260608901612f3a565b6080870152600060a087015236916106fa565b9083614260565b614d29565b611ff836610808565b5094612009969394969291926128ff565b61086b5460ff8160e81c1661038b5761204661204161203a8861202b866113be565b90600052602052604060002090565b5460ff1690565b6125bd565b6120646706f05b59d3b2000061205e8560070b612a4e565b106125bd565b61207e6a0c097ce7bc90715b34b9f160241b8911156125bd565b63ffffffff906120bd61209383871642612c5a565b837f00000000000000000000000000000000000000000000000000000000000000001610156125bd565b60c01c16956120d36120ce88612c79565b612957565b6001600160a01b037f00000000000000000000000000000000000000000000000000000000000000008116959089908416808814806121c4575b1561219c575061211e9034146125bd565b853b1561038b57600060049660405197888092630d0e30db60e41b825234905af1928315612197576000805160206154a6833981519152966121719461217e575b505b604051958695339b469088612dee565b0390a46100196001606555565b8061218b61219192610506565b80610380565b3861215f565b6125d3565b6000805160206154a6833981519152975061217194916121bf9130903390612d17565b612161565b5034151561210d565b3461038b57602036600319011261038b576004356000526108726020526020604060002054604051908152f35b3461038b57600036600319011261038b57610c5a546040516001600160a01b039091168152602090f35b3461038b5760c036600319011261038b576001600160401b0360043581811161038b57612255903690600401610dda565b60643590612262826103dd565b60843583811161038b5761227a903690600401611186565b9060a43594851161038b57612296610019953690600401611186565b949093604435906024359061316c565b3461038b57602036600319011261038b5760206004356122c5816103dd565b60018060a01b03809116600052610c5b825260406000205416604051908152f35b3461038b57600036600319011261038b57602060ff61086b5460e01c166040519015158152f35b3461038b57600036600319011261038b576040516a0c097ce7bc90715b34b9f160241b8152602090f35b3461038b57602036600319011261038b57600435612354816103dd565b610869546001600160a01b0390811661111161111160901b010116330361038b576108a890611a516128ff565b3461038b57600036600319011261038b5761086a546040516001600160a01b039091168152602090f35b634e487b7160e01b600052603260045260246000fd5b61086c80548210156123e0576000526003602060002091020190600090565b6123ab565b3461038b57602036600319011261038b5760043561086c5481101561038b5761240f6040916123c1565b506001815491015482519182526020820152f35b3461038b57608036600319011261038b5760043561244081610492565b6124a960243561244f816103dd565b60443561245b816103dd565b60643591612468836103dd565b6000549461248d60ff8760081c161580978198612527575b8115612507575b506125bd565b856124a0600160ff196000541617600055565b6124ee57612863565b6124af57005b6124bf61ff001960005416600055565b604051600181527f7f26b83ff96e1f2b6a682f133852f6798a09c465da95921460cefb384740249890602090a1005b61250261010061ff00196000541617600055565b612863565b303b15915081612519575b5038612487565b6001915060ff161438612512565b600160ff8216109150612480565b61010036600319011261038b5760043561254e816103dd565b60243561255a816103dd565b604435612566816103dd565b61256e61042f565b60c4356001600160401b03811161038b5761258d9036906004016106c5565b926125966128ff565b60ff61086b5460e81c1661038b576108a89463ffffffff421693608435926064359261392e565b1561038b57565b9081602091031261038b575190565b6040513d6000823e3d90fd5b6000805160206154268339815191525460ff1615612601576103fb91506127d5565b6040516352d1902d60e01b81526001600160a01b03821690602081600481855afa600091816126e5575b5061263557600080fd5b6000805160206154868339815191520361038b57612652826127d5565b6000805160206154c6833981519152600080a28151158015906126dd575b612678575050565b6000806126da93660819985a5b195960ca1b604080516126978161051e565b602781527f416464726573733a206c6f772d6c6576656c2064656c65676174652063616c6c60208201520152602081519101845af46126d461280a565b9161283a565b50565b506000612670565b61270791925060203d811161270e575b6126ff81836105a5565b8101906125c4565b903861262b565b503d6126f5565b6000805160206154268339815191525460ff1615612737576103fb91506127d5565b6040516352d1902d60e01b81526001600160a01b03821690602081600481855afa600091816127b5575b5061276b57600080fd5b6000805160206154868339815191520361038b57612788826127d5565b6000805160206154c6833981519152600080a28151158015906127ad57612678575050565b506001612670565b6127ce91925060203d811161270e576126ff81836105a5565b9038612761565b803b1561038b5760008051602061548683398151915280546001600160a01b0319166001600160a01b03909216919091179055565b3d15612835573d9061281b82610673565b9161282960405193846105a5565b82523d6000602084013e565b606090565b90156128545781511561284b575090565b3b1561038b5790565b50805190811561038b57602001fd5b9291909260009060ff825460081c16156128fb5761288090612957565b60405161288c8161056f565b6009815260208101906820a1a927a9a996ab1960b91b825260206040516128b28161056f565b600581520192640312e302e360dc1b845260ff815460081c16156128f85750926103fb9594926005610ace936113189651902091209061047f5561048055611a4961297d565b80fd5b5080fd5b60026065541461038b576002606555565b610c5a80546001600160a01b0319166001600160a01b039290921691821790557fdc4a5f4c066ad14c1306e624550b42395e08f992a76b416cc7b1ad11503d376c600080a2565b61086b805463ffffffff60c01b191660c09290921b63ffffffff60c01b16919091179055565b60ff60005460081c161561038b57565b60ff60005460081c161561038b576001606555565b9092949391946129b06128ff565b8360070b916706f05b59d3b200006129c784612a4e565b101561038b5763ffffffff82612a078887612a44967fa6aa57bd282fc82378458de27be4eadfa791a0c7321c49562eeba8b2643dd5669a8d469089613ef1565b612a32604051968796875260018060a01b038093166020880152608060408801526080870190611cff565b92858403606087015216971695611cff565b0390a36001606555565b6000808212612a5b575090565b0390565b979b95999196939b9a949890929a612a756128ff565b61086b9960ff8b5460e81c1661038b57612a98610bb161203a8e61202b8d6113be565b612c325763ffffffff9d8e612aaf81851642612c5a565b907f00000000000000000000000000000000000000000000000000000000000000001610612c20578e612b04817f00000000000000000000000000000000000000000000000000000000000000001642612c6c565b90851611612c0e576001600160a01b039b7f00000000000000000000000000000000000000000000000000000000000000008d16828c8f1680831480612c05575b15612bf257503403612be057803b1561038b57600060049160405192838092630d0e30db60e41b825234905af1801561219757612bcd575b505b5460c01c63ffffffff169e8f612b9490612c79565b612b9d90612957565b6040519c8d9c169f169d612bb19a8c612caf565b0360008051602061540683398151915291a46103fb6001606555565b8061218b612bda92610506565b38612b7d565b604051636452a35d60e01b8152600490fd5b612c00925030903390612d17565b612b7f565b50341515612b45565b60405163582e388960e01b8152600490fd5b60405163f722177f60e01b8152600490fd5b604051632a58c4f360e01b8152600490fd5b634e487b7160e01b600052601160045260246000fd5b91908203918211612c6757565b612c44565b91908201809211612c6757565b63ffffffff809116908114612c675760010190565b908060209392818452848401376000828201840152601f01601f1916010190565b6001600160a01b03918216815291811660208301526040820192909252606081019290925263ffffffff928316608083015292821660a0820152921660c083015291821660e0820152911661010082015261014061012082018190526106e093910191612c8e565b6040516323b872dd60e01b60208201526001600160a01b0392831660248201529290911660448301526064808301939093529181526103fb91612d5982610539565b604051612db4916001600160a01b0316907f5361666545524332303a206c6f772d6c6576656c2063616c6c206661696c656490602090612d988161056f565b8181520152600080846020829651910182855af16126d461280a565b8051908115918215612dcb575b5050156128f85750565b81925090602091810103126128fb5760200151612de781610cd8565b3880612dc1565b9360e095936106e098979363ffffffff938752602087015260070b604086015216606084015260018060a01b0380921660808401521660a08201528160c08201520190611cff565b9a969290989799939591612e486128ff565b60ff61086b5460e01c1661038b57612e5e6105e7565b9b612e69908d612f3a565b612e768a60208e01612f3a565b612e839060408d01612f3a565b60608b015260808a01524660a08a015260070b60c0890152600787900b60e08901526101009485890190612ebc919063ffffffff169052565b6101209581878a0152612ecd6105e7565b988952600060208a0190815260079890980b60408a0152612ef19060608a01612f3a565b608088015260a087015260c086015260e08501528301600090528201600090528151612f1c906143ee565b9052612f27816144b1565b612f3091615063565b6103fb6001606555565b6001600160a01b039091169052565b9d9c9b959e93909698929a97919a612f5f6128ff565b60ff61086b5460e01c1661038b578e97612f776105e7565b98612f82908a612f3a565b612f8f9060208a01612f3a565b612f9c9060408901612f3a565b6060870152608086018890524660a087015260070b60c086015260070b60e085015263ffffffff851661010085810191909152916101209384860152612fe06105e7565b948552600060208601908152600789900b6040870152949c898e6060019061300791612f3a565b8d8b608082015260a0015260c08d015260e08c01528a01600090528901600090528851613033906143ee565b905261303e96613ef1565b612f27816144b1565b356106e0816103dd565b356106e081610492565b91906101808382031261038b57613070610607565b9261307a81610424565b845261308860208201610424565b602085015261309960408201610424565b60408501526130aa60608201610424565b60608501526130bb60808201610424565b608085015260a081013560a085015260c081013560c085015260e081013560e08501526101006130ec8183016104e5565b908501526101206130fe8183016104e5565b908501526101406131108183016104e5565b9085015261016091818301356001600160401b03811161038b5761313492016106c5565b90830152565b903590601e198136030182121561038b57018035906001600160401b03821161038b5760200191813603831361038b57565b94909693956131796128ff565b60ff61086b5460e01c1661038b5761319360408701613047565b6001600160a01b031633141580613248575b610edc576131b3368761305b565b6131bc90614411565b976131c56105c8565b986131d0368961305b565b8a5260208a0152604089018490526131eb8560608b01612f3a565b6131f636848a61068e565b60808a015260a089015261320986613047565b966132176101008801613051565b9236906132239261068e565b94369061322f9261068e565b9460e001359061323e96613f64565b33612f3091614a89565b506132566101408701613051565b63ffffffff42911610156131a5565b634e487b7160e01b600052602160045260246000fd5b6003111561328557565b613265565b6001600160a01b03918216815291811660208301526040820192909252606081019290925263ffffffff92831660808301529290911660a082015291811660c083015291821660e0820152911661010082015261014061012082018190526106e093910191612c8e565b9a98959391999694929097996133086128ff565b6133106105e7565b9b61331b908d612f3a565b6133288960208e01612f3a565b6133359060408d01612f3a565b60608b015260808a01524660a08a015260070b60c089015260070b60e088015263ffffffff16610100878101919091526101209180838901526133766105e7565b9788526020880194600086526040890160009052606089019061339891612f3a565b6080880152600060a08801526b1d6329f1c35ca4bfabb9f56160281b60c088015260001960e088015260019087015285015283516133d5906143ee565b905261303e9183614147565b91906133eb6128ff565b602081019182514603610cc657610bb16134139183600161340b886123c1565b500154613590565b610cb4577ff8bd640004bcec1b89657020f561d0b070cbdf662d0b158db9dccb0a8301bfab606082019261345461344e855163ffffffff1690565b86613e98565b80516134cb8451926134b06134a9604088019761349989519661347b8c5163ffffffff1690565b97608084019861348b8a516103d1565b9160a086019b8c5194613ac8565b5192519751985163ffffffff1690565b93516103d1565b935160405194859463ffffffff8091169a1698339386613549565b0390a46103fb6001606555565b90815180825260208080930193019160005b8281106134f8575050505090565b8351855293810193928101926001016134ea565b90815180825260208080930193019160005b82811061352c575050505090565b83516001600160a01b03168552938101939281019260010161351e565b9361356b6080949361358993989798875260a0602088015260a08701906134d8565b6001600160a01b03938416604087015285810360608701529061350c565b9416910152565b6106e092916040516136198161360b602082019460208652805160408401526020810151606084015260a06135d5604083015160c060808701526101008601906134d8565b606083015163ffffffff168583015260808301516000196001841b011660c0860152910151838203603f190160e085015261350c565b03601f1981018352826105a5565b51902091929091906000915b8451831015613672576136388386613689565b5190600082821015613660575060005260205261365a60406000205b9261367a565b91613625565b60409161365a93825260205220613654565b915092501490565b6000198114612c675760010190565b80518210156123e05760209160051b010190565b9190916101008184031261038b576136b3610627565b8135815260208083013590820152926001600160401b03604083013581811161038b57826136e2918501610748565b60408601526136f3606084016104e5565b606086015261370460808401610424565b608086015260a083013581811161038b5782613721918501610991565b60a086015260c083013560c086015260e083013590811161038b5761374692016106c5565b60e0830152565b903590601e198136030182121561038b57018035906001600160401b03821161038b57602001918160051b3603831361038b57565b94979592909998969399855260209160c0838701528160c087015260018060fb1b03821161038b576101009160059493941b809160e08801376001600160a01b039a8b166040870152850185810360e09081016060880152810183905201969160005b82811061380857505050506106e0959650608082015260a0818503910152612c8e565b9091929782806001928d8c3561381d816103dd565b168152019901939291016137e5565b6106e092916040516136198161360b602082019460208652805160408401526020810151606084015260408101519060e0613875610100938460808801526101408701906134d8565b606083015163ffffffff1660a087015291613898608082015160c088019061144c565b6138b360a082015193603f19948589830301858a015261350c565b9360c08201519087015201519084830301610120850152611cff565b9390926106e096959260018060a01b038095168652600060208701526040860152606085015263ffffffff809116608085015260a0840152600060c08401521660e0820152600061010082015261014090816101208201520190611cff565b919596939492909261394961204161203a8861202b8b6113be565b60070b936139626706f05b59d3b2000061205e87612a4e565b61397c6a0c097ce7bc90715b34b9f160241b8311156125bd565b63ffffffff936139bb613991868b1642612c5a565b867f00000000000000000000000000000000000000000000000000000000000000001610156125bd565b61086b5460c01c63ffffffff16986139d56120ce8b612c79565b6001600160a01b03957f00000000000000000000000000000000000000000000000000000000000000008716948a881680871480613abf575b15613a945750613a1f8134146125bd565b853b1561038b57600060049660405197888092630d0e30db60e41b825234905af180156121975760008051602061540683398151915299613a7c97613a6b92613a81575b505b826143b7565b91604051988998169c169a876138cf565b0390a4565b8061218b613a8e92610506565b38613a63565b613a7c965060008051602061540683398151915299613aba83613a6b9330903390612d17565b613a65565b50341515613a0e565b9294939190938051825103613ba05781519160005b838110613b4e575050505082613af4575b50505050565b63ffffffff81613b257f828fc203220356df8f072a91681caee7d5c75095e2a95e80ed5a14b384697f719386613c60565b604080519586523360208701526001600160a01b0391909116959190911693a438808080613aee565b80613b5c613b689284613689565b5180613b6d575061367a565b613add565b613b9a90613b8b613b7e8488613689565b516001600160a01b031690565b6001600160a01b038916613bcd565b38611e2b565b6040516319a5316760e31b8152600490fd5b6001600160a01b039091168152602081019190915260400190565b612d596103fb9392613bf460405194859263a9059cbb60e01b602085015260248401613bb2565b03601f1981018452836105a5565b60208183031261038b578051906001600160401b03821161038b570181601f8201121561038b578051613c3481610673565b92613c4260405194856105a5565b8184526020828401011161038b576106e09160208085019101611cdc565b906001600160a01b03907f00000000000000000000000000000000000000000000000000000000000000008216151580613dd9575b15613ce357505060008051602061546683398151915281613cc3600093613cbe61086a546103d1565b6151b1565b613ccf61086a546103d1565b613cde60405192839283613bb2565b0390a2565b6001600160a01b03166000908152610c5b60205260408120613d8e93928391613d2190613d1790546001600160a01b031690565b91821615156125bd565b613d38613d33613d33610c5a546103d1565b6103d1565b9083613d4661086a546103d1565b604051637b3a3c8b60e01b81526001600160a01b03938416600482015292166024830152604482019390935260806064820152600060848201529485928391829060a4820190565b03925af19081156121975760009260008051602061546683398151915292613db7575b50613cc3565b613dd2903d8086833e613dca81836105a5565b810190613c02565b5038613db1565b50817f00000000000000000000000000000000000000000000000000000000000000001682821614613c95565b6001600160a01b0316801561038b5761086980546001600160a01b031916821790557fa9e8c42c9e7fca7f62755189a16b2f5314d43d8fb24e91ba54e6d65f9314e849600080a2565b6001600160a01b0316801561038b5761086a80546001600160a01b031916821790557f1f17a88f67b0f49060a34bec1a4723a563620e6aa265eb640b5046dcee0759a0600080a2565b613ea36002916123c1565b500162ffffff8260081c168060005281602052600160ff60406000205494161b8080941614613edf576000526020526040600020908154179055565b60405163954476d960e01b8152600490fd5b9392613f5e936103fb979660208151910120906040519263ffffffff60208501956000805160206154e6833981519152875216604085015285606085015260070b608084015260018060a01b031660a083015260c082015260c08152613f568161058a565b519020615323565b90613fc6565b9392613f5e936103fb979660208151910120906040519263ffffffff60208501956000805160206155068339815191528752166040850152856060850152608084015260018060a01b031660a083015260c082015260c08152613f568161058a565b9190613fd28282614097565b9390926005851015613285576103fb94159384614081575b508315613ffa575b5050506125bd565b60009293509082916040516140338161360b6020820194630b135d3f60e11b998a87526024840152604060448401526064830190611cff565b51915afa9061404061280a565b82614073575b82614056575b5050388080613ff2565b61406b919250602080825183010191016125c4565b14388061404c565b915060208251101591614046565b6001600160a01b03838116911614935038613fea565b9060418151146000146140c5576140c1916020820151906060604084015193015160001a906140cf565b9091565b5050600090600290565b9291906fa2a8918ca85bafe22016d0b997e4df60600160ff1b03831161413b5791608094939160ff602094604051948552168484015260408301526060820152600093849182805260015afa156121975781516001600160a01b03811615614135579190565b50600190565b50505050600090600390565b80516101209091015160408051808201959492939092916001600160401b038711848810176105195761418f6141b093613619936125bd9984528652602086019687526123c1565b505494815193849260208401966020885251908085015260808401906141c5565b9051606083015203601f1981018352826105a5565b906106e0916141d582825161144c565b6141e76020820151602084019061144c565b6141f96040820151604084019061144c565b606081015160608301526080810151608083015260a081015160a083015261422b60c082015160c084019060070b9052565b60e08181015160070b908301526101008181015163ffffffff1690830152610120809101519161014080928201520190611cff565b91610bb1906142d99284516040809601519186519161427e8361051e565b825261361961429960208401924684528985019586526123c1565b50549388519283916142be6020840196602088525160608d86015260a08501906142f0565b9151606084015251608083015203601f1981018352826105a5565b6142e05750565b5163582f497d60e11b8152600490fd5b906106e09161430082825161144c565b6143126020820151602084019061144c565b6143246040820151604084019061144c565b6143366060820151606084019061144c565b6143486080820151608084019061144c565b60a081015160a083015260c081015160c083015260e081015160e083015261437e610100808301519084019063ffffffff169052565b6101208181015163ffffffff16908301526101408181015163ffffffff1690830152610160809101519161018080928201520190611cff565b90670de0b6b3a7640000916000828403921283831281169084841390151617612c6757818102918183041490151715612c67570490565b60405161440b8161360b60208201946020865260408301906141c5565b51902090565b60405161440b8161442e60208201946040865260608301906142f0565b46604083015203601f1981018352826105a5565b600791820b910b019060016001603f1b0319821260016001603f1b03831317612c6757565b600160ff1b8114612c675760000390565b6001600160a01b039182168152602081019290925291151560408201529116606082015260a0608082018190526106e092910190611cff565b9081519160408101926144f06706f05b59d3b20000806144e36144de6144d8895160070b90565b60070b90565b612a4e565b10908161484657506125bd565b6060810161450f6a0c097ce7bc90715b34b9f160241b825111156125bd565b602083019061452a61452183516113ea565b548251116125bd565b60c084019283519661455a60c08301986145546145488b5160070b90565b845160070b5b90614442565b90614863565b976145668915156125bd565b61457c845161457587516113ea565b5490612c5a565b89811061483c575b506144d86145ab9261454e61459d6145a5945160070b90565b915160070b90565b886143b7565b93610120860151806147ea575b505060a08501518786519160a0830151149182156147dc575b505080156147c3575b6145e3906125bd565b6145ed83516113ea565b6145f8888254612c6c565b9055606085019161460983516103d1565b926001600160a01b03923384861614806147ac575b6147a257906040614697920194878561463788516103d1565b16917f00000000000000000000000000000000000000000000000000000000000000008716830361475957505050614676610bb16101008a0151151590565b61473a575b6146918761468c613d3384516103d1565b6148b4565b516103d1565b91823b15158061472c575b6146b0575b50505050505050565b6146c26146c9916080941694516103d1565b94516113ea565b549051111594015193813b1561038b57600080946146ff604051978896879586946301d43f2760e31b8652339260048701614478565b03925af1801561219757614719575b8080808080806146a7565b8061218b61472692610506565b3861470e565b5060808701515115156146a2565b6147548761474b613d3388516103d1565b30903390612d17565b61467b565b61476a610bb16101008d0151151590565b1561479957506147949150614782613d3388516103d1565b61478c84516103d1565b903390612d17565b614691565b61479492613bcd565b5050505050505050565b506147be610bb16101008a0151151590565b61461e565b506145e36147d5610100870151151590565b90506145da565b6060015114905087386145d1565b614835919561482561482b9261480b670de0b6b3a763ffff198212156125bd565b61482068056bc75e2d631000008213156125bd565b614467565b906143b7565b94518511156125bd565b38806145b8565b98506144d8614584565b905061485c6144de6144d860c086015160070b90565b1038612487565b670de0b6b3a7640000918183029183830403612c675760070b808303926000821281851281169082861390151617612c67571461489e570490565b634e487b7160e01b600052601260045260246000fd5b6001600160a01b039081169190823b156148f457916103fb927f000000000000000000000000000000000000000000000000000000000000000016613bcd565b7f00000000000000000000000000000000000000000000000000000000000000001691823b1561038b576040518093632e1a7d4d60e01b82528360048301528160246000968780945af180156121975761496e575b5081471061496a578280809381935af161496161280a565b50156128f85750565b8280fd5b61497790610506565b38614949565b6149868261327b565b52565b9060018060a01b0382511681526060806149b26020850151608060208601526080850190611cff565b93604081015160408501520151916149c98361327b565b015290565b9a97919296614a3095614a4d9a9560606106e09f9d99948f909b614a3b9c60018060a01b03998a80921684521660208301526040820152015260808d015263ffffffff80921660a08d01521660c08b01521660e089015261010088019061144c565b61012086019061144c565b61018080610140860152840190611cff565b91610160818403910152614989565b906106e0949360809360018060a01b03809316845260208401521660408201528160608201520190611cff565b805191610120830190614aa0825163ffffffff1690565b63ffffffff42911610611bc65760208301516001614abd826113d9565b5460009103614d2357506001905b6002614ad6826113d9565b5414614d1157614ae5906113d9565b600290556060850151614af7906103d1565b6080860151614b05906103d1565b9260a0870151918660c0890151948960a08301519660e082015197610100830151614b339063ffffffff1690565b9a5163ffffffff1661014084015163ffffffff16906040850151614b56906103d1565b928551614b62906103d1565b946020870151614b71906103d1565b9661016001519760608a0151614b86906103d1565b996080810151906040015190614b9a610647565b9b614ba5908d612f3a565b60208c015260408b0152614bbc9060608b0161497d565b6040516001600160a01b03909b169e63ffffffff169d9a9b8c9b614be09b8d6149ce565b0360008051602061544683398151915291a46060810151614c00906103d1565b6001600160a01b0381169233841480614d09575b613aee576080614c259101516103d1565b6040830151909390926080906001600160a01b0380871690869086907f0000000000000000000000000000000000000000000000000000000000000000168303614cf95750614c779130903390612d17565b614c8185846148b4565b0151913b151580614cef575b614c975750505050565b803b1561038b57614cc5936000809460405196879586948593633a5be8cb60e01b8552339160048601614a5c565b03925af1801561219757614cdc575b808080613aee565b8061218b614ce992610506565b38614cd4565b5081511515614c8d565b614d04923390612d17565b614c81565b506001614c14565b604051630479306360e51b8152600490fd5b90614acb565b90600082516101208101614d41815163ffffffff1690565b63ffffffff42911610611bc6576020850151906002614d5f836113d9565b5414614d1157614d6f84926113d9565b600290556060830151614d81906103d1565b6080840151614d8f906103d1565b9160a08501519060c0860151928960a0810151948860e081015196610100820151614dbd9063ffffffff1690565b955163ffffffff1661014083015163ffffffff166040840151614ddf906103d1565b918451614deb906103d1565b936020860151614dfa906103d1565b956101600151966060890151614e0f906103d1565b986080810151906040015190614e23610647565b9a614e2e908c612f3a565b60208b015260408a0152600260608a01526040519b63ffffffff8d9c169e614e569b8d6149ce565b0360008051602061544683398151915291a46060840151614e76906103d1565b6001600160a01b03949091858316919033831480614f98575b614f8f576080614ea09101516103d1565b9060408101519687818416917f0000000000000000000000000000000000000000000000000000000000000000168214600014614f7c57906080929187614f68575b614eed9150856148b4565b0151923b151580614f5e575b614f06575b505050509050565b813b15611a5d5783614f32959660405196879586948593633a5be8cb60e01b8552339160048601614a5c565b03925af1801561219757614f4b575b8080808493614efe565b8061218b614f5892610506565b38614f41565b5082511515614ef9565b614f759130903390612d17565b3888614ee2565b614f8a908660809493613bcd565b614eed565b50505050509050565b5084614e8f565b9060018060a01b038251168152608080614fc8602085015160a0602086015260a0850190611cff565b93604081015160070b6040850152606081015115156060850152015191015290565b9a979491926106e09c9a96936150549a9895928d5260208d015260408c015260608b015260808a015260070b60a089015260070b60c088015260018060a01b03928380921660e0890152166101008701521661012085015261018080610140860152840190611cff565b91610160818403910152614f9f565b9060408201516150739060070b90565b916060810151615082906103d1565b90608081015193610100948583015161509a90151590565b6101209283850151926150ab610666565b966150b69088612f3a565b602087015260070b604086015215156060850152608084015281516060015160208301516150e3906113ea565b549360a084015193519460808601519560a08101519160e08201516151089060070b90565b60c083015160070b9a83015163ffffffff169a6040840151615129906103d1565b918451615135906103d1565b986020860151615144906103d1565b950151956040519a8b9a600160a01b60019003169e63ffffffff169d339661516c9b8d614fea565b037f8ab9dc6c19fe88e69bc70221b339c84332752fdd49591b7c51e66bae3947b73c91a4565b9081602091031261038b57516001600160401b038116810361038b5790565b604051636eb1769f60e11b81523060048201526001600160a01b037f00000000000000000000000000000000000000000000000000000000000000008116602483018190526020947f00000000000000000000000000000000000000000000000000000000000000008084169591939187866044818a5afa95861561219757613bf4600093612d59615250898d9b61526c968991615306575b50612c6c565b60405163095ea7b360e01b8c8201529384918a60248401613bb2565b6040516337e9a82760e11b815260048101959095527f000000000000000000000000000000000000000000000000000000000000000063ffffffff1660248601529190911660448401526001600160a01b039490941660648301529092839160849183915af18015612197576152e0575050565b816126da92903d106152ff575b6152f781836105a5565b810190615192565b503d6152ed565b61531d91508d803d1061270e576126ff81836105a5565b3861524a565b60429161047f549061048054906040519160208301937fc2f8787176b8ac6bf7215b4adcc1e069bf4ab82d9ab1df05a57a91d425935b6e85526040840152606083015260808201526080815261537881610539565b519020906040519161190160f01b8352600283015260228201522090565b906153a0826106e3565b6153ad60405191826105a5565b82815280926153be601f19916106e3565b019060005b8281106153cf57505050565b8060606020809385010152016153c3565b908210156123e0576140c19160051b81019061313a565b90809291823701600081529056fea123dc29aebf7d0c3322c8eeb5b999e859f39937950ed31056532713d0de396f4910fdfa16fed3260ed0e7147f7cc6da11a60208b5b9406d12a635614ffd9143571749edf1d5c9599318cdbc4e28a6475d65e87fd3b2ddbe1e9a8d5e7a0f0ff7997d81a0a8415d688a6c319736602098252bf6445e0e879326f682f11928e317360894a13ba1a3210667c828492db98dca3e2076cc3735a920a3ca505d382bbcafc4df6845a4ab948b492800d3d8a25d538a102a2bc07cd01f1cfa097fddcff6bc7cd75a20ee27fd9adebab32041f755214dbc6bffa90cc0225b39da2e5c2d3b0e058f05b73c62ee68329d2c67c067aaae9a06503cc306378d144d0f0177882b152eb71524aef34d838ab76573c14b1ebfa5e385d9ab29d7cf5398daa2438bd9a264697066735822122077ac756bd100524a594d4d76cbc31d4725613fe916159849ad7b7ff9371ab8ac64736f6c63430008130033"
}