{
  "address": "0x22dAe400e0F6a330610F3060Be894ab33f9caED0",
  "abi": [
    {
      "inputs": [],
      "name": "InitializationFailed",
      "type": "error"
    },
    {
      "inputs": [
        {
          "internalType": "uint256",
          "name": "amount",
          "type": "uint256"
        },
        {
          "internalType": "bytes32",
          "name": "salt",
          "type": "bytes32"
        },
        {
          "internalType": "bytes",
          "name": "bytecode",
          "type": "bytes"
        },
        {
          "internalType": "bytes",
          "name": "initializationCode",
          "type": "bytes"
        }
      ],
      "name": "deploy",
      "outputs": [
        {
          "internalType": "address",
          "name": "",
          "type": "address"
        }
      ],
      "stateMutability": "nonpayable",
      "type": "function"
    }
  ],
  "transactionHash": "0xa3e502ef803d9055a813594c9221f5dd132f644f7c594aab7c070c7bd1807780",
  "args": [],
  "numDeployments": 1,
  "solcInputHash": "96f01fbf4985ad7df0ca99bf86062bf0",
  "bytecode": "0x6080806040523461002157600160ff195f5416175f556102b990816100268239f35b5f80fdfe60806040526004361015610011575f80fd5b5f3560e01c63b796412614610024575f80fd5b346101a65760807ffffffffffffffffffffffffffffffffffffffffffffffffffffffffffffffffc3601126101a65760043567ffffffffffffffff6044358181116101a6576100779036906004016101aa565b9290916064359081116101a6576100929036906004016101aa565b9190925f549460ff8616156101a6577fffffffffffffffffffffffffffffffffffffffffffffffffffffffffffffff008096165f556100d86100d382610249565b6101d8565b90808252602082019236828201116101a657815f926020928637830101528247106101a657519081156101a65760243592f59173ffffffffffffffffffffffffffffffffffffffff83169283156101a657825f80949381946040519384928337810182815203925af13d156101a1573d6101546100d382610249565b9081525f60203d92013e5b156101775760016020925f5416175f55604051908152f35b60046040517f19b991a8000000000000000000000000000000000000000000000000000000008152fd5b61015f565b5f80fd5b9181601f840112156101a65782359167ffffffffffffffff83116101a657602083818601950101116101a657565b907fffffffffffffffffffffffffffffffffffffffffffffffffffffffffffffffe0601f604051930116820182811067ffffffffffffffff82111761021c57604052565b7f4e487b71000000000000000000000000000000000000000000000000000000005f52604160045260245ffd5b67ffffffffffffffff811161021c57601f017fffffffffffffffffffffffffffffffffffffffffffffffffffffffffffffffe0166020019056fea264697066735822122067c4727292088afc39217149572aaedf4204d277e1cecca69df4a902c071beeb64736f6c63430008170033",
  "devdoc": {
    "custom:security-contact": "bugs@across.to",
    "details": "Contracts designed to be deployed at deterministic addresses should initialize via a non-constructor initializer to maintain bytecode across different chains.",
    "kind": "dev",
    "methods": {
      "deploy(uint256,bytes32,bytes,bytes)": {
        "params": {
          "amount": "The amount of ETH to send with the deployment. If this is not zero then the contract must have a payable constructor",
          "bytecode": "The bytecode of the contract to deploy",
          "initializationCode": "The initialization code to call on the deployed contract",
          "salt": "The salt to use for the create2 deployment. Must not have been used before for the bytecode"
        }
      }
    },
    "title": "Create2Factory",
    "version": 1
  },
  "userdoc": {
    "errors": {
      "InitializationFailed()": [
        {
          "notice": "Emitted when the initialization to a newly deployed contract fails"
        }
      ]
    },
    "kind": "user",
    "methods": {
      "deploy(uint256,bytes32,bytes,bytes)": {
        "notice": "Deploys a new contract via create2 at a deterministic address and then atomically initializes the contract"
      }
    },
    "notice": "Deploys a new contract via create2 at a deterministic address and then atomically initializes the contract",
    "version": 1
  },
  "storageLayout": {
    "storage": [
      {
        "astId": 18591,
        "contract": "contracts/Create2Factory.sol:Create2Factory",
        "label": "_notEntered",
        "offset": 0,
        "slot": "0",
        "type": "t_bool"
      }
    ],
    "types": {
      "t_bool": {
        "encoding": "inplace",
        "label": "bool",
        "numberOfBytes": "1"
      }
    }
  }
}