{
  "address": "0x32b222Bd2eA40041A7d38dFf00300Ce1Abcfa9Ff",
  "abi": [
    {
      "inputs": [
        {
          "internalType": "address",
          "name": "_wrappedNativeTokenAddress",
          "type": "address"
        },
        {
          "internalType": "uint32",
          "name": "_depositQuoteTimeBuffer",
          "type": "uint32"
        },
        {
          "internalType": "uint32",
          "name": "_fillDeadlineBuffer",
          "type": "uint32"
        },
        {
          "internalType": "contract IERC20",
          "name": "_l2Usdc",
          "type": "address"
        },
        {
          "internalType": "contract ITokenMessenger",
          "name": "_cctpTokenMessenger",
          "type": "address"
        }
      ],
      "stateMutability": "nonpayable",
      "type": "constructor"
    },
    {
      "inputs": [],
      "name": "ClaimedMerkleLeaf",
      "type": "error"
    },
    {
      "inputs": [],
      "name": "DisabledRoute",
      "type": "error"
    },
    {
      "inputs": [],
      "name": "ExpiredFillDeadline",
      "type": "error"
    },
    {
      "inputs": [],
      "name": "InvalidChainId",
      "type": "error"
    },
    {
      "inputs": [],
      "name": "InvalidExclusiveRelayer",
      "type": "error"
    },
    {
      "inputs": [],
      "name": "InvalidExclusivityDeadline",
      "type": "error"
    },
    {
      "inputs": [],
      "name": "InvalidFillDeadline",
      "type": "error"
    },
    {
      "inputs": [],
      "name": "InvalidMerkleLeaf",
      "type": "error"
    },
    {
      "inputs": [],
      "name": "InvalidMerkleProof",
      "type": "error"
    },
    {
      "inputs": [],
      "name": "InvalidPayoutAdjustmentPct",
      "type": "error"
    },
    {
      "inputs": [],
      "name": "InvalidQuoteTimestamp",
      "type": "error"
    },
    {
      "inputs": [],
      "name": "InvalidSlowFillRequest",
      "type": "error"
    },
    {
      "inputs": [],
      "name": "MsgValueDoesNotMatchInputAmount",
      "type": "error"
    },
    {
      "inputs": [],
      "name": "MulticallExecuteLeaf",
      "type": "error"
    },
    {
      "inputs": [],
      "name": "NoSlowFillsInExclusivityWindow",
      "type": "error"
    },
    {
      "inputs": [],
      "name": "NotEOA",
      "type": "error"
    },
    {
      "inputs": [],
      "name": "NotExclusiveRelayer",
      "type": "error"
    },
    {
      "inputs": [],
      "name": "RelayFilled",
      "type": "error"
    },
    {
      "anonymous": false,
      "inputs": [
        {
          "indexed": false,
          "internalType": "address",
          "name": "previousAdmin",
          "type": "address"
        },
        {
          "indexed": false,
          "internalType": "address",
          "name": "newAdmin",
          "type": "address"
        }
      ],
      "name": "AdminChanged",
      "type": "event"
    },
    {
      "anonymous": false,
      "inputs": [
        {
          "indexed": true,
          "internalType": "address",
          "name": "beacon",
          "type": "address"
        }
      ],
      "name": "BeaconUpgraded",
      "type": "event"
    },
    {
      "anonymous": false,
      "inputs": [
        {
          "indexed": true,
          "internalType": "uint256",
          "name": "rootBundleId",
          "type": "uint256"
        }
      ],
      "name": "EmergencyDeleteRootBundle",
      "type": "event"
    },
    {
      "anonymous": false,
      "inputs": [
        {
          "indexed": true,
          "internalType": "address",
          "name": "originToken",
          "type": "address"
        },
        {
          "indexed": true,
          "internalType": "uint256",
          "name": "destinationChainId",
          "type": "uint256"
        },
        {
          "indexed": false,
          "internalType": "bool",
          "name": "enabled",
          "type": "bool"
        }
      ],
      "name": "EnabledDepositRoute",
      "type": "event"
    },
    {
      "anonymous": false,
      "inputs": [
        {
          "indexed": false,
          "internalType": "uint256",
          "name": "amountToReturn",
          "type": "uint256"
        },
        {
          "indexed": true,
          "internalType": "uint256",
          "name": "chainId",
          "type": "uint256"
        },
        {
          "indexed": false,
          "internalType": "uint256[]",
          "name": "refundAmounts",
          "type": "uint256[]"
        },
        {
          "indexed": true,
          "internalType": "uint32",
          "name": "rootBundleId",
          "type": "uint32"
        },
        {
          "indexed": true,
          "internalType": "uint32",
          "name": "leafId",
          "type": "uint32"
        },
        {
          "indexed": false,
          "internalType": "address",
          "name": "l2TokenAddress",
          "type": "address"
        },
        {
          "indexed": false,
          "internalType": "address[]",
          "name": "refundAddresses",
          "type": "address[]"
        },
        {
          "indexed": false,
          "internalType": "address",
          "name": "caller",
          "type": "address"
        }
      ],
      "name": "ExecutedRelayerRefundRoot",
      "type": "event"
    },
    {
      "anonymous": false,
      "inputs": [
        {
          "indexed": false,
          "internalType": "uint256",
          "name": "amount",
          "type": "uint256"
        },
        {
          "indexed": false,
          "internalType": "uint256",
          "name": "totalFilledAmount",
          "type": "uint256"
        },
        {
          "indexed": false,
          "internalType": "uint256",
          "name": "fillAmount",
          "type": "uint256"
        },
        {
          "indexed": false,
          "internalType": "uint256",
          "name": "repaymentChainId",
          "type": "uint256"
        },
        {
          "indexed": true,
          "internalType": "uint256",
          "name": "originChainId",
          "type": "uint256"
        },
        {
          "indexed": false,
          "internalType": "uint256",
          "name": "destinationChainId",
          "type": "uint256"
        },
        {
          "indexed": false,
          "internalType": "int64",
          "name": "relayerFeePct",
          "type": "int64"
        },
        {
          "indexed": false,
          "internalType": "int64",
          "name": "realizedLpFeePct",
          "type": "int64"
        },
        {
          "indexed": true,
          "internalType": "uint32",
          "name": "depositId",
          "type": "uint32"
        },
        {
          "indexed": false,
          "internalType": "address",
          "name": "destinationToken",
          "type": "address"
        },
        {
          "indexed": false,
          "internalType": "address",
          "name": "relayer",
          "type": "address"
        },
        {
          "indexed": true,
          "internalType": "address",
          "name": "depositor",
          "type": "address"
        },
        {
          "indexed": false,
          "internalType": "address",
          "name": "recipient",
          "type": "address"
        },
        {
          "indexed": false,
          "internalType": "bytes",
          "name": "message",
          "type": "bytes"
        },
        {
          "components": [
            {
              "internalType": "address",
              "name": "recipient",
              "type": "address"
            },
            {
              "internalType": "bytes",
              "name": "message",
              "type": "bytes"
            },
            {
              "internalType": "int64",
              "name": "relayerFeePct",
              "type": "int64"
            },
            {
              "internalType": "bool",
              "name": "isSlowRelay",
              "type": "bool"
            },
            {
              "internalType": "int256",
              "name": "payoutAdjustmentPct",
              "type": "int256"
            }
          ],
          "indexed": false,
          "internalType": "struct SpokePool.RelayExecutionInfo",
          "name": "updatableRelayData",
          "type": "tuple"
        }
      ],
      "name": "FilledRelay",
      "type": "event"
    },
    {
      "anonymous": false,
      "inputs": [
        {
          "indexed": false,
          "internalType": "address",
          "name": "inputToken",
          "type": "address"
        },
        {
          "indexed": false,
          "internalType": "address",
          "name": "outputToken",
          "type": "address"
        },
        {
          "indexed": false,
          "internalType": "uint256",
          "name": "inputAmount",
          "type": "uint256"
        },
        {
          "indexed": false,
          "internalType": "uint256",
          "name": "outputAmount",
          "type": "uint256"
        },
        {
          "indexed": false,
          "internalType": "uint256",
          "name": "repaymentChainId",
          "type": "uint256"
        },
        {
          "indexed": true,
          "internalType": "uint256",
          "name": "originChainId",
          "type": "uint256"
        },
        {
          "indexed": true,
          "internalType": "uint32",
          "name": "depositId",
          "type": "uint32"
        },
        {
          "indexed": false,
          "internalType": "uint32",
          "name": "fillDeadline",
          "type": "uint32"
        },
        {
          "indexed": false,
          "internalType": "uint32",
          "name": "exclusivityDeadline",
          "type": "uint32"
        },
        {
          "indexed": false,
          "internalType": "address",
          "name": "exclusiveRelayer",
          "type": "address"
        },
        {
          "indexed": true,
          "internalType": "address",
          "name": "relayer",
          "type": "address"
        },
        {
          "indexed": false,
          "internalType": "address",
          "name": "depositor",
          "type": "address"
        },
        {
          "indexed": false,
          "internalType": "address",
          "name": "recipient",
          "type": "address"
        },
        {
          "indexed": false,
          "internalType": "bytes",
          "name": "message",
          "type": "bytes"
        },
        {
          "components": [
            {
              "internalType": "address",
              "name": "updatedRecipient",
              "type": "address"
            },
            {
              "internalType": "bytes",
              "name": "updatedMessage",
              "type": "bytes"
            },
            {
              "internalType": "uint256",
              "name": "updatedOutputAmount",
              "type": "uint256"
            },
            {
              "internalType": "enum V3SpokePoolInterface.FillType",
              "name": "fillType",
              "type": "uint8"
            }
          ],
          "indexed": false,
          "internalType": "struct V3SpokePoolInterface.V3RelayExecutionEventInfo",
          "name": "relayExecutionInfo",
          "type": "tuple"
        }
      ],
      "name": "FilledV3Relay",
      "type": "event"
    },
    {
      "anonymous": false,
      "inputs": [
        {
          "indexed": false,
          "internalType": "uint256",
          "name": "amount",
          "type": "uint256"
        },
        {
          "indexed": false,
          "internalType": "uint256",
          "name": "originChainId",
          "type": "uint256"
        },
        {
          "indexed": true,
          "internalType": "uint256",
          "name": "destinationChainId",
          "type": "uint256"
        },
        {
          "indexed": false,
          "internalType": "int64",
          "name": "relayerFeePct",
          "type": "int64"
        },
        {
          "indexed": true,
          "internalType": "uint32",
          "name": "depositId",
          "type": "uint32"
        },
        {
          "indexed": false,
          "internalType": "uint32",
          "name": "quoteTimestamp",
          "type": "uint32"
        },
        {
          "indexed": false,
          "internalType": "address",
          "name": "originToken",
          "type": "address"
        },
        {
          "indexed": false,
          "internalType": "address",
          "name": "recipient",
          "type": "address"
        },
        {
          "indexed": true,
          "internalType": "address",
          "name": "depositor",
          "type": "address"
        },
        {
          "indexed": false,
          "internalType": "bytes",
          "name": "message",
          "type": "bytes"
        }
      ],
      "name": "FundsDeposited",
      "type": "event"
    },
    {
      "anonymous": false,
      "inputs": [
        {
          "indexed": false,
          "internalType": "uint8",
          "name": "version",
          "type": "uint8"
        }
      ],
      "name": "Initialized",
      "type": "event"
    },
    {
      "anonymous": false,
      "inputs": [
        {
          "indexed": false,
          "internalType": "bool",
          "name": "isPaused",
          "type": "bool"
        }
      ],
      "name": "PausedDeposits",
      "type": "event"
    },
    {
      "anonymous": false,
      "inputs": [
        {
          "indexed": false,
          "internalType": "bool",
          "name": "isPaused",
          "type": "bool"
        }
      ],
      "name": "PausedFills",
      "type": "event"
    },
    {
      "anonymous": false,
      "inputs": [
        {
          "indexed": true,
          "internalType": "address",
          "name": "caller",
          "type": "address"
        },
        {
          "indexed": true,
          "internalType": "address",
          "name": "rootMessageSender",
          "type": "address"
        }
      ],
      "name": "ReceivedMessageFromL1",
      "type": "event"
    },
    {
      "anonymous": false,
      "inputs": [
        {
          "indexed": true,
          "internalType": "uint32",
          "name": "rootBundleId",
          "type": "uint32"
        },
        {
          "indexed": true,
          "internalType": "bytes32",
          "name": "relayerRefundRoot",
          "type": "bytes32"
        },
        {
          "indexed": true,
          "internalType": "bytes32",
          "name": "slowRelayRoot",
          "type": "bytes32"
        }
      ],
      "name": "RelayedRootBundle",
      "type": "event"
    },
    {
      "anonymous": false,
      "inputs": [
        {
          "indexed": false,
          "internalType": "int64",
          "name": "newRelayerFeePct",
          "type": "int64"
        },
        {
          "indexed": true,
          "internalType": "uint32",
          "name": "depositId",
          "type": "uint32"
        },
        {
          "indexed": true,
          "internalType": "address",
          "name": "depositor",
          "type": "address"
        },
        {
          "indexed": false,
          "internalType": "address",
          "name": "updatedRecipient",
          "type": "address"
        },
        {
          "indexed": false,
          "internalType": "bytes",
          "name": "updatedMessage",
          "type": "bytes"
        },
        {
          "indexed": false,
          "internalType": "bytes",
          "name": "depositorSignature",
          "type": "bytes"
        }
      ],
      "name": "RequestedSpeedUpDeposit",
      "type": "event"
    },
    {
      "anonymous": false,
      "inputs": [
        {
          "indexed": false,
          "internalType": "uint256",
          "name": "updatedOutputAmount",
          "type": "uint256"
        },
        {
          "indexed": true,
          "internalType": "uint32",
          "name": "depositId",
          "type": "uint32"
        },
        {
          "indexed": true,
          "internalType": "address",
          "name": "depositor",
          "type": "address"
        },
        {
          "indexed": false,
          "internalType": "address",
          "name": "updatedRecipient",
          "type": "address"
        },
        {
          "indexed": false,
          "internalType": "bytes",
          "name": "updatedMessage",
          "type": "bytes"
        },
        {
          "indexed": false,
          "internalType": "bytes",
          "name": "depositorSignature",
          "type": "bytes"
        }
      ],
      "name": "RequestedSpeedUpV3Deposit",
      "type": "event"
    },
    {
      "anonymous": false,
      "inputs": [
        {
          "indexed": false,
          "internalType": "address",
          "name": "inputToken",
          "type": "address"
        },
        {
          "indexed": false,
          "internalType": "address",
          "name": "outputToken",
          "type": "address"
        },
        {
          "indexed": false,
          "internalType": "uint256",
          "name": "inputAmount",
          "type": "uint256"
        },
        {
          "indexed": false,
          "internalType": "uint256",
          "name": "outputAmount",
          "type": "uint256"
        },
        {
          "indexed": true,
          "internalType": "uint256",
          "name": "originChainId",
          "type": "uint256"
        },
        {
          "indexed": true,
          "internalType": "uint32",
          "name": "depositId",
          "type": "uint32"
        },
        {
          "indexed": false,
          "internalType": "uint32",
          "name": "fillDeadline",
          "type": "uint32"
        },
        {
          "indexed": false,
          "internalType": "uint32",
          "name": "exclusivityDeadline",
          "type": "uint32"
        },
        {
          "indexed": false,
          "internalType": "address",
          "name": "exclusiveRelayer",
          "type": "address"
        },
        {
          "indexed": false,
          "internalType": "address",
          "name": "depositor",
          "type": "address"
        },
        {
          "indexed": false,
          "internalType": "address",
          "name": "recipient",
          "type": "address"
        },
        {
          "indexed": false,
          "internalType": "bytes",
          "name": "message",
          "type": "bytes"
        }
      ],
      "name": "RequestedV3SlowFill",
      "type": "event"
    },
    {
      "anonymous": false,
      "inputs": [
        {
          "indexed": true,
          "internalType": "address",
          "name": "newFxChild",
          "type": "address"
        }
      ],
      "name": "SetFxChild",
      "type": "event"
    },
    {
      "anonymous": false,
      "inputs": [
        {
          "indexed": true,
          "internalType": "address",
          "name": "newHubPool",
          "type": "address"
        }
      ],
      "name": "SetHubPool",
      "type": "event"
    },
    {
      "anonymous": false,
      "inputs": [
        {
          "indexed": true,
          "internalType": "address",
          "name": "polygonTokenBridger",
          "type": "address"
        }
      ],
      "name": "SetPolygonTokenBridger",
      "type": "event"
    },
    {
      "anonymous": false,
      "inputs": [
        {
          "indexed": true,
          "internalType": "address",
          "name": "newAdmin",
          "type": "address"
        }
      ],
      "name": "SetXDomainAdmin",
      "type": "event"
    },
    {
      "anonymous": false,
      "inputs": [
        {
          "indexed": false,
          "internalType": "uint256",
          "name": "amountToReturn",
          "type": "uint256"
        },
        {
          "indexed": true,
          "internalType": "uint256",
          "name": "chainId",
          "type": "uint256"
        },
        {
          "indexed": true,
          "internalType": "uint32",
          "name": "leafId",
          "type": "uint32"
        },
        {
          "indexed": true,
          "internalType": "address",
          "name": "l2TokenAddress",
          "type": "address"
        },
        {
          "indexed": false,
          "internalType": "address",
          "name": "caller",
          "type": "address"
        }
      ],
      "name": "TokensBridged",
      "type": "event"
    },
    {
      "anonymous": false,
      "inputs": [
        {
          "indexed": true,
          "internalType": "address",
          "name": "implementation",
          "type": "address"
        }
      ],
      "name": "Upgraded",
      "type": "event"
    },
    {
      "anonymous": false,
      "inputs": [
        {
          "indexed": false,
          "internalType": "address",
          "name": "inputToken",
          "type": "address"
        },
        {
          "indexed": false,
          "internalType": "address",
          "name": "outputToken",
          "type": "address"
        },
        {
          "indexed": false,
          "internalType": "uint256",
          "name": "inputAmount",
          "type": "uint256"
        },
        {
          "indexed": false,
          "internalType": "uint256",
          "name": "outputAmount",
          "type": "uint256"
        },
        {
          "indexed": true,
          "internalType": "uint256",
          "name": "destinationChainId",
          "type": "uint256"
        },
        {
          "indexed": true,
          "internalType": "uint32",
          "name": "depositId",
          "type": "uint32"
        },
        {
          "indexed": false,
          "internalType": "uint32",
          "name": "quoteTimestamp",
          "type": "uint32"
        },
        {
          "indexed": false,
          "internalType": "uint32",
          "name": "fillDeadline",
          "type": "uint32"
        },
        {
          "indexed": false,
          "internalType": "uint32",
          "name": "exclusivityDeadline",
          "type": "uint32"
        },
        {
          "indexed": true,
          "internalType": "address",
          "name": "depositor",
          "type": "address"
        },
        {
          "indexed": false,
          "internalType": "address",
          "name": "recipient",
          "type": "address"
        },
        {
          "indexed": false,
          "internalType": "address",
          "name": "exclusiveRelayer",
          "type": "address"
        },
        {
          "indexed": false,
          "internalType": "bytes",
          "name": "message",
          "type": "bytes"
        }
      ],
      "name": "V3FundsDeposited",
      "type": "event"
    },
    {
      "inputs": [],
      "name": "EMPTY_RELAYER",
      "outputs": [
        {
          "internalType": "address",
          "name": "",
          "type": "address"
        }
      ],
      "stateMutability": "view",
      "type": "function"
    },
    {
      "inputs": [],
      "name": "EMPTY_REPAYMENT_CHAIN_ID",
      "outputs": [
        {
          "internalType": "uint256",
          "name": "",
          "type": "uint256"
        }
      ],
      "stateMutability": "view",
      "type": "function"
    },
    {
      "inputs": [],
      "name": "INFINITE_FILL_DEADLINE",
      "outputs": [
        {
          "internalType": "uint32",
          "name": "",
          "type": "uint32"
        }
      ],
      "stateMutability": "view",
      "type": "function"
    },
    {
      "inputs": [],
      "name": "MAX_TRANSFER_SIZE",
      "outputs": [
        {
          "internalType": "uint256",
          "name": "",
          "type": "uint256"
        }
      ],
      "stateMutability": "view",
      "type": "function"
    },
    {
      "inputs": [],
      "name": "SLOW_FILL_MAX_TOKENS_TO_SEND",
      "outputs": [
        {
          "internalType": "uint256",
          "name": "",
          "type": "uint256"
        }
      ],
      "stateMutability": "view",
      "type": "function"
    },
    {
      "inputs": [],
      "name": "UPDATE_DEPOSIT_DETAILS_HASH",
      "outputs": [
        {
          "internalType": "bytes32",
          "name": "",
          "type": "bytes32"
        }
      ],
      "stateMutability": "view",
      "type": "function"
    },
    {
      "inputs": [],
      "name": "UPDATE_V3_DEPOSIT_DETAILS_HASH",
      "outputs": [
        {
          "internalType": "bytes32",
          "name": "",
          "type": "bytes32"
        }
      ],
      "stateMutability": "view",
      "type": "function"
    },
    {
      "inputs": [
        {
          "internalType": "uint32",
          "name": "_initialDepositId",
          "type": "uint32"
        },
        {
          "internalType": "address",
          "name": "_crossDomainAdmin",
          "type": "address"
        },
        {
          "internalType": "address",
          "name": "_hubPool",
          "type": "address"
        }
      ],
      "name": "__SpokePool_init",
      "outputs": [],
      "stateMutability": "nonpayable",
      "type": "function"
    },
    {
      "inputs": [],
      "name": "cctpTokenMessenger",
      "outputs": [
        {
          "internalType": "contract ITokenMessenger",
          "name": "",
          "type": "address"
        }
      ],
      "stateMutability": "view",
      "type": "function"
    },
    {
      "inputs": [],
      "name": "chainId",
      "outputs": [
        {
          "internalType": "uint256",
          "name": "",
          "type": "uint256"
        }
      ],
      "stateMutability": "view",
      "type": "function"
    },
    {
      "inputs": [],
      "name": "crossDomainAdmin",
      "outputs": [
        {
          "internalType": "address",
          "name": "",
          "type": "address"
        }
      ],
      "stateMutability": "view",
      "type": "function"
    },
    {
      "inputs": [
        {
          "internalType": "address",
          "name": "recipient",
          "type": "address"
        },
        {
          "internalType": "address",
          "name": "originToken",
          "type": "address"
        },
        {
          "internalType": "uint256",
          "name": "amount",
          "type": "uint256"
        },
        {
          "internalType": "uint256",
          "name": "destinationChainId",
          "type": "uint256"
        },
        {
          "internalType": "int64",
          "name": "relayerFeePct",
          "type": "int64"
        },
        {
          "internalType": "uint32",
          "name": "quoteTimestamp",
          "type": "uint32"
        },
        {
          "internalType": "bytes",
          "name": "message",
          "type": "bytes"
        },
        {
          "internalType": "uint256",
          "name": "",
          "type": "uint256"
        }
      ],
      "name": "deposit",
      "outputs": [],
      "stateMutability": "payable",
      "type": "function"
    },
    {
      "inputs": [
        {
          "internalType": "address",
          "name": "depositor",
          "type": "address"
        },
        {
          "internalType": "address",
          "name": "recipient",
          "type": "address"
        },
        {
          "internalType": "address",
          "name": "originToken",
          "type": "address"
        },
        {
          "internalType": "uint256",
          "name": "amount",
          "type": "uint256"
        },
        {
          "internalType": "uint256",
          "name": "destinationChainId",
          "type": "uint256"
        },
        {
          "internalType": "int64",
          "name": "relayerFeePct",
          "type": "int64"
        },
        {
          "internalType": "uint32",
          "name": "quoteTimestamp",
          "type": "uint32"
        },
        {
          "internalType": "bytes",
          "name": "message",
          "type": "bytes"
        },
        {
          "internalType": "uint256",
          "name": "",
          "type": "uint256"
        }
      ],
      "name": "depositFor",
      "outputs": [],
      "stateMutability": "payable",
      "type": "function"
    },
    {
      "inputs": [
        {
          "internalType": "address",
          "name": "depositor",
          "type": "address"
        },
        {
          "internalType": "address",
          "name": "recipient",
          "type": "address"
        },
        {
          "internalType": "address",
          "name": "originToken",
          "type": "address"
        },
        {
          "internalType": "uint256",
          "name": "amount",
          "type": "uint256"
        },
        {
          "internalType": "uint256",
          "name": "destinationChainId",
          "type": "uint256"
        },
        {
          "internalType": "int64",
          "name": "relayerFeePct",
          "type": "int64"
        },
        {
          "internalType": "bytes",
          "name": "message",
          "type": "bytes"
        },
        {
          "internalType": "uint256",
          "name": "maxCount",
          "type": "uint256"
        }
      ],
      "name": "depositForNow",
      "outputs": [],
      "stateMutability": "payable",
      "type": "function"
    },
    {
      "inputs": [
        {
          "internalType": "address",
          "name": "recipient",
          "type": "address"
        },
        {
          "internalType": "address",
          "name": "originToken",
          "type": "address"
        },
        {
          "internalType": "uint256",
          "name": "amount",
          "type": "uint256"
        },
        {
          "internalType": "uint256",
          "name": "destinationChainId",
          "type": "uint256"
        },
        {
          "internalType": "int64",
          "name": "relayerFeePct",
          "type": "int64"
        },
        {
          "internalType": "bytes",
          "name": "message",
          "type": "bytes"
        },
        {
          "internalType": "uint256",
          "name": "maxCount",
          "type": "uint256"
        }
      ],
      "name": "depositNow",
      "outputs": [],
      "stateMutability": "payable",
      "type": "function"
    },
    {
      "inputs": [],
      "name": "depositQuoteTimeBuffer",
      "outputs": [
        {
          "internalType": "uint32",
          "name": "",
          "type": "uint32"
        }
      ],
      "stateMutability": "view",
      "type": "function"
    },
    {
      "inputs": [
        {
          "internalType": "address",
          "name": "depositor",
          "type": "address"
        },
        {
          "internalType": "address",
          "name": "recipient",
          "type": "address"
        },
        {
          "internalType": "address",
          "name": "inputToken",
          "type": "address"
        },
        {
          "internalType": "address",
          "name": "outputToken",
          "type": "address"
        },
        {
          "internalType": "uint256",
          "name": "inputAmount",
          "type": "uint256"
        },
        {
          "internalType": "uint256",
          "name": "outputAmount",
          "type": "uint256"
        },
        {
          "internalType": "uint256",
          "name": "destinationChainId",
          "type": "uint256"
        },
        {
          "internalType": "address",
          "name": "exclusiveRelayer",
          "type": "address"
        },
        {
          "internalType": "uint32",
          "name": "quoteTimestamp",
          "type": "uint32"
        },
        {
          "internalType": "uint32",
          "name": "fillDeadline",
          "type": "uint32"
        },
        {
          "internalType": "uint32",
          "name": "exclusivityDeadline",
          "type": "uint32"
        },
        {
          "internalType": "bytes",
          "name": "message",
          "type": "bytes"
        }
      ],
      "name": "depositV3",
      "outputs": [],
      "stateMutability": "payable",
      "type": "function"
    },
    {
      "inputs": [
        {
          "internalType": "uint256",
          "name": "rootBundleId",
          "type": "uint256"
        }
      ],
      "name": "emergencyDeleteRootBundle",
      "outputs": [],
      "stateMutability": "nonpayable",
      "type": "function"
    },
    {
      "inputs": [
        {
          "internalType": "address",
          "name": "",
          "type": "address"
        },
        {
          "internalType": "uint256",
          "name": "",
          "type": "uint256"
        }
      ],
      "name": "enabledDepositRoutes",
      "outputs": [
        {
          "internalType": "bool",
          "name": "",
          "type": "bool"
        }
      ],
      "stateMutability": "view",
      "type": "function"
    },
    {
      "inputs": [
        {
          "internalType": "uint32",
          "name": "rootBundleId",
          "type": "uint32"
        },
        {
          "components": [
            {
              "internalType": "uint256",
              "name": "amountToReturn",
              "type": "uint256"
            },
            {
              "internalType": "uint256",
              "name": "chainId",
              "type": "uint256"
            },
            {
              "internalType": "uint256[]",
              "name": "refundAmounts",
              "type": "uint256[]"
            },
            {
              "internalType": "uint32",
              "name": "leafId",
              "type": "uint32"
            },
            {
              "internalType": "address",
              "name": "l2TokenAddress",
              "type": "address"
            },
            {
              "internalType": "address[]",
              "name": "refundAddresses",
              "type": "address[]"
            }
          ],
          "internalType": "struct SpokePoolInterface.RelayerRefundLeaf",
          "name": "relayerRefundLeaf",
          "type": "tuple"
        },
        {
          "internalType": "bytes32[]",
          "name": "proof",
          "type": "bytes32[]"
        }
      ],
      "name": "executeRelayerRefundLeaf",
      "outputs": [],
      "stateMutability": "payable",
      "type": "function"
    },
    {
      "inputs": [
        {
          "internalType": "address",
          "name": "depositor",
          "type": "address"
        },
        {
          "internalType": "address",
          "name": "recipient",
          "type": "address"
        },
        {
          "internalType": "address",
          "name": "destinationToken",
          "type": "address"
        },
        {
          "internalType": "uint256",
          "name": "amount",
          "type": "uint256"
        },
        {
          "internalType": "uint256",
          "name": "originChainId",
          "type": "uint256"
        },
        {
          "internalType": "int64",
          "name": "realizedLpFeePct",
          "type": "int64"
        },
        {
          "internalType": "int64",
          "name": "relayerFeePct",
          "type": "int64"
        },
        {
          "internalType": "uint32",
          "name": "depositId",
          "type": "uint32"
        },
        {
          "internalType": "uint32",
          "name": "rootBundleId",
          "type": "uint32"
        },
        {
          "internalType": "bytes",
          "name": "message",
          "type": "bytes"
        },
        {
          "internalType": "int256",
          "name": "payoutAdjustment",
          "type": "int256"
        },
        {
          "internalType": "bytes32[]",
          "name": "proof",
          "type": "bytes32[]"
        }
      ],
      "name": "executeSlowRelayLeaf",
      "outputs": [],
      "stateMutability": "nonpayable",
      "type": "function"
    },
    {
      "inputs": [
        {
          "components": [
            {
              "components": [
                {
                  "internalType": "address",
                  "name": "depositor",
                  "type": "address"
                },
                {
                  "internalType": "address",
                  "name": "recipient",
                  "type": "address"
                },
                {
                  "internalType": "address",
                  "name": "exclusiveRelayer",
                  "type": "address"
                },
                {
                  "internalType": "address",
                  "name": "inputToken",
                  "type": "address"
                },
                {
                  "internalType": "address",
                  "name": "outputToken",
                  "type": "address"
                },
                {
                  "internalType": "uint256",
                  "name": "inputAmount",
                  "type": "uint256"
                },
                {
                  "internalType": "uint256",
                  "name": "outputAmount",
                  "type": "uint256"
                },
                {
                  "internalType": "uint256",
                  "name": "originChainId",
                  "type": "uint256"
                },
                {
                  "internalType": "uint32",
                  "name": "depositId",
                  "type": "uint32"
                },
                {
                  "internalType": "uint32",
                  "name": "fillDeadline",
                  "type": "uint32"
                },
                {
                  "internalType": "uint32",
                  "name": "exclusivityDeadline",
                  "type": "uint32"
                },
                {
                  "internalType": "bytes",
                  "name": "message",
                  "type": "bytes"
                }
              ],
              "internalType": "struct V3SpokePoolInterface.V3RelayData",
              "name": "relayData",
              "type": "tuple"
            },
            {
              "internalType": "uint256",
              "name": "chainId",
              "type": "uint256"
            },
            {
              "internalType": "uint256",
              "name": "updatedOutputAmount",
              "type": "uint256"
            }
          ],
          "internalType": "struct V3SpokePoolInterface.V3SlowFill",
          "name": "slowFillLeaf",
          "type": "tuple"
        },
        {
          "internalType": "uint32",
          "name": "rootBundleId",
          "type": "uint32"
        },
        {
          "internalType": "bytes32[]",
          "name": "proof",
          "type": "bytes32[]"
        }
      ],
      "name": "executeV3SlowRelayLeaf",
      "outputs": [],
      "stateMutability": "nonpayable",
      "type": "function"
    },
    {
      "inputs": [],
      "name": "fillDeadlineBuffer",
      "outputs": [
        {
          "internalType": "uint32",
          "name": "",
          "type": "uint32"
        }
      ],
      "stateMutability": "view",
      "type": "function"
    },
    {
      "inputs": [
        {
          "internalType": "address",
          "name": "depositor",
          "type": "address"
        },
        {
          "internalType": "address",
          "name": "recipient",
          "type": "address"
        },
        {
          "internalType": "address",
          "name": "destinationToken",
          "type": "address"
        },
        {
          "internalType": "uint256",
          "name": "amount",
          "type": "uint256"
        },
        {
          "internalType": "uint256",
          "name": "maxTokensToSend",
          "type": "uint256"
        },
        {
          "internalType": "uint256",
          "name": "repaymentChainId",
          "type": "uint256"
        },
        {
          "internalType": "uint256",
          "name": "originChainId",
          "type": "uint256"
        },
        {
          "internalType": "int64",
          "name": "realizedLpFeePct",
          "type": "int64"
        },
        {
          "internalType": "int64",
          "name": "relayerFeePct",
          "type": "int64"
        },
        {
          "internalType": "uint32",
          "name": "depositId",
          "type": "uint32"
        },
        {
          "internalType": "bytes",
          "name": "message",
          "type": "bytes"
        },
        {
          "internalType": "uint256",
          "name": "maxCount",
          "type": "uint256"
        }
      ],
      "name": "fillRelay",
      "outputs": [],
      "stateMutability": "nonpayable",
      "type": "function"
    },
    {
      "inputs": [
        {
          "internalType": "address",
          "name": "depositor",
          "type": "address"
        },
        {
          "internalType": "address",
          "name": "recipient",
          "type": "address"
        },
        {
          "internalType": "address",
          "name": "updatedRecipient",
          "type": "address"
        },
        {
          "internalType": "address",
          "name": "destinationToken",
          "type": "address"
        },
        {
          "internalType": "uint256",
          "name": "amount",
          "type": "uint256"
        },
        {
          "internalType": "uint256",
          "name": "maxTokensToSend",
          "type": "uint256"
        },
        {
          "internalType": "uint256",
          "name": "repaymentChainId",
          "type": "uint256"
        },
        {
          "internalType": "uint256",
          "name": "originChainId",
          "type": "uint256"
        },
        {
          "internalType": "int64",
          "name": "realizedLpFeePct",
          "type": "int64"
        },
        {
          "internalType": "int64",
          "name": "relayerFeePct",
          "type": "int64"
        },
        {
          "internalType": "int64",
          "name": "updatedRelayerFeePct",
          "type": "int64"
        },
        {
          "internalType": "uint32",
          "name": "depositId",
          "type": "uint32"
        },
        {
          "internalType": "bytes",
          "name": "message",
          "type": "bytes"
        },
        {
          "internalType": "bytes",
          "name": "updatedMessage",
          "type": "bytes"
        },
        {
          "internalType": "bytes",
          "name": "depositorSignature",
          "type": "bytes"
        },
        {
          "internalType": "uint256",
          "name": "maxCount",
          "type": "uint256"
        }
      ],
      "name": "fillRelayWithUpdatedDeposit",
      "outputs": [],
      "stateMutability": "nonpayable",
      "type": "function"
    },
    {
      "inputs": [
        {
          "internalType": "bytes32",
          "name": "",
          "type": "bytes32"
        }
      ],
      "name": "fillStatuses",
      "outputs": [
        {
          "internalType": "uint256",
          "name": "",
          "type": "uint256"
        }
      ],
      "stateMutability": "view",
      "type": "function"
    },
    {
      "inputs": [
        {
          "components": [
            {
              "internalType": "address",
              "name": "depositor",
              "type": "address"
            },
            {
              "internalType": "address",
              "name": "recipient",
              "type": "address"
            },
            {
              "internalType": "address",
              "name": "exclusiveRelayer",
              "type": "address"
            },
            {
              "internalType": "address",
              "name": "inputToken",
              "type": "address"
            },
            {
              "internalType": "address",
              "name": "outputToken",
              "type": "address"
            },
            {
              "internalType": "uint256",
              "name": "inputAmount",
              "type": "uint256"
            },
            {
              "internalType": "uint256",
              "name": "outputAmount",
              "type": "uint256"
            },
            {
              "internalType": "uint256",
              "name": "originChainId",
              "type": "uint256"
            },
            {
              "internalType": "uint32",
              "name": "depositId",
              "type": "uint32"
            },
            {
              "internalType": "uint32",
              "name": "fillDeadline",
              "type": "uint32"
            },
            {
              "internalType": "uint32",
              "name": "exclusivityDeadline",
              "type": "uint32"
            },
            {
              "internalType": "bytes",
              "name": "message",
              "type": "bytes"
            }
          ],
          "internalType": "struct V3SpokePoolInterface.V3RelayData",
          "name": "relayData",
          "type": "tuple"
        },
        {
          "internalType": "uint256",
          "name": "repaymentChainId",
          "type": "uint256"
        }
      ],
      "name": "fillV3Relay",
      "outputs": [],
      "stateMutability": "nonpayable",
      "type": "function"
    },
    {
      "inputs": [
        {
          "components": [
            {
              "internalType": "address",
              "name": "depositor",
              "type": "address"
            },
            {
              "internalType": "address",
              "name": "recipient",
              "type": "address"
            },
            {
              "internalType": "address",
              "name": "exclusiveRelayer",
              "type": "address"
            },
            {
              "internalType": "address",
              "name": "inputToken",
              "type": "address"
            },
            {
              "internalType": "address",
              "name": "outputToken",
              "type": "address"
            },
            {
              "internalType": "uint256",
              "name": "inputAmount",
              "type": "uint256"
            },
            {
              "internalType": "uint256",
              "name": "outputAmount",
              "type": "uint256"
            },
            {
              "internalType": "uint256",
              "name": "originChainId",
              "type": "uint256"
            },
            {
              "internalType": "uint32",
              "name": "depositId",
              "type": "uint32"
            },
            {
              "internalType": "uint32",
              "name": "fillDeadline",
              "type": "uint32"
            },
            {
              "internalType": "uint32",
              "name": "exclusivityDeadline",
              "type": "uint32"
            },
            {
              "internalType": "bytes",
              "name": "message",
              "type": "bytes"
            }
          ],
          "internalType": "struct V3SpokePoolInterface.V3RelayData",
          "name": "relayData",
          "type": "tuple"
        },
        {
          "internalType": "uint256",
          "name": "repaymentChainId",
          "type": "uint256"
        },
        {
          "internalType": "uint256",
          "name": "updatedOutputAmount",
          "type": "uint256"
        },
        {
          "internalType": "address",
          "name": "updatedRecipient",
          "type": "address"
        },
        {
          "internalType": "bytes",
          "name": "updatedMessage",
          "type": "bytes"
        },
        {
          "internalType": "bytes",
          "name": "depositorSignature",
          "type": "bytes"
        }
      ],
      "name": "fillV3RelayWithUpdatedDeposit",
      "outputs": [],
      "stateMutability": "nonpayable",
      "type": "function"
    },
    {
      "inputs": [],
      "name": "fxChild",
      "outputs": [
        {
          "internalType": "address",
          "name": "",
          "type": "address"
        }
      ],
      "stateMutability": "view",
      "type": "function"
    },
    {
      "inputs": [],
      "name": "getCurrentTime",
      "outputs": [
        {
          "internalType": "uint256",
          "name": "",
          "type": "uint256"
        }
      ],
      "stateMutability": "view",
      "type": "function"
    },
    {
      "inputs": [],
      "name": "hubPool",
      "outputs": [
        {
          "internalType": "address",
          "name": "",
          "type": "address"
        }
      ],
      "stateMutability": "view",
      "type": "function"
    },
    {
      "inputs": [
        {
          "internalType": "uint32",
          "name": "_initialDepositId",
          "type": "uint32"
        },
        {
          "internalType": "contract PolygonTokenBridger",
          "name": "_polygonTokenBridger",
          "type": "address"
        },
        {
          "internalType": "address",
          "name": "_crossDomainAdmin",
          "type": "address"
        },
        {
          "internalType": "address",
          "name": "_hubPool",
          "type": "address"
        },
        {
          "internalType": "address",
          "name": "_fxChild",
          "type": "address"
        }
      ],
      "name": "initialize",
      "outputs": [],
      "stateMutability": "nonpayable",
      "type": "function"
    },
    {
      "inputs": [
        {
          "internalType": "bytes[]",
          "name": "data",
          "type": "bytes[]"
        }
      ],
      "name": "multicall",
      "outputs": [
        {
          "internalType": "bytes[]",
          "name": "results",
          "type": "bytes[]"
        }
      ],
      "stateMutability": "nonpayable",
      "type": "function"
    },
    {
      "inputs": [],
      "name": "numberOfDeposits",
      "outputs": [
        {
          "internalType": "uint32",
          "name": "",
          "type": "uint32"
        }
      ],
      "stateMutability": "view",
      "type": "function"
    },
    {
      "inputs": [
        {
          "internalType": "bool",
          "name": "pause",
          "type": "bool"
        }
      ],
      "name": "pauseDeposits",
      "outputs": [],
      "stateMutability": "nonpayable",
      "type": "function"
    },
    {
      "inputs": [
        {
          "internalType": "bool",
          "name": "pause",
          "type": "bool"
        }
      ],
      "name": "pauseFills",
      "outputs": [],
      "stateMutability": "nonpayable",
      "type": "function"
    },
    {
      "inputs": [],
      "name": "pausedDeposits",
      "outputs": [
        {
          "internalType": "bool",
          "name": "",
          "type": "bool"
        }
      ],
      "stateMutability": "view",
      "type": "function"
    },
    {
      "inputs": [],
      "name": "pausedFills",
      "outputs": [
        {
          "internalType": "bool",
          "name": "",
          "type": "bool"
        }
      ],
      "stateMutability": "view",
      "type": "function"
    },
    {
      "inputs": [],
      "name": "polygonTokenBridger",
      "outputs": [
        {
          "internalType": "contract PolygonTokenBridger",
          "name": "",
          "type": "address"
        }
      ],
      "stateMutability": "view",
      "type": "function"
    },
    {
      "inputs": [
        {
          "internalType": "uint256",
          "name": "",
          "type": "uint256"
        },
        {
          "internalType": "address",
          "name": "rootMessageSender",
          "type": "address"
        },
        {
          "internalType": "bytes",
          "name": "data",
          "type": "bytes"
        }
      ],
      "name": "processMessageFromRoot",
      "outputs": [],
      "stateMutability": "nonpayable",
      "type": "function"
    },
    {
      "inputs": [],
      "name": "proxiableUUID",
      "outputs": [
        {
          "internalType": "bytes32",
          "name": "",
          "type": "bytes32"
        }
      ],
      "stateMutability": "view",
      "type": "function"
    },
    {
      "inputs": [],
      "name": "recipientCircleDomainId",
      "outputs": [
        {
          "internalType": "uint32",
          "name": "",
          "type": "uint32"
        }
      ],
      "stateMutability": "view",
      "type": "function"
    },
    {
      "inputs": [
        {
          "internalType": "bytes32",
          "name": "relayerRefundRoot",
          "type": "bytes32"
        },
        {
          "internalType": "bytes32",
          "name": "slowRelayRoot",
          "type": "bytes32"
        }
      ],
      "name": "relayRootBundle",
      "outputs": [],
      "stateMutability": "nonpayable",
      "type": "function"
    },
    {
      "inputs": [
        {
          "components": [
            {
              "internalType": "address",
              "name": "depositor",
              "type": "address"
            },
            {
              "internalType": "address",
              "name": "recipient",
              "type": "address"
            },
            {
              "internalType": "address",
              "name": "exclusiveRelayer",
              "type": "address"
            },
            {
              "internalType": "address",
              "name": "inputToken",
              "type": "address"
            },
            {
              "internalType": "address",
              "name": "outputToken",
              "type": "address"
            },
            {
              "internalType": "uint256",
              "name": "inputAmount",
              "type": "uint256"
            },
            {
              "internalType": "uint256",
              "name": "outputAmount",
              "type": "uint256"
            },
            {
              "internalType": "uint256",
              "name": "originChainId",
              "type": "uint256"
            },
            {
              "internalType": "uint32",
              "name": "depositId",
              "type": "uint32"
            },
            {
              "internalType": "uint32",
              "name": "fillDeadline",
              "type": "uint32"
            },
            {
              "internalType": "uint32",
              "name": "exclusivityDeadline",
              "type": "uint32"
            },
            {
              "internalType": "bytes",
              "name": "message",
              "type": "bytes"
            }
          ],
          "internalType": "struct V3SpokePoolInterface.V3RelayData",
          "name": "relayData",
          "type": "tuple"
        }
      ],
      "name": "requestV3SlowFill",
      "outputs": [],
      "stateMutability": "nonpayable",
      "type": "function"
    },
    {
      "inputs": [
        {
          "internalType": "uint256",
          "name": "",
          "type": "uint256"
        }
      ],
      "name": "rootBundles",
      "outputs": [
        {
          "internalType": "bytes32",
          "name": "slowRelayRoot",
          "type": "bytes32"
        },
        {
          "internalType": "bytes32",
          "name": "relayerRefundRoot",
          "type": "bytes32"
        }
      ],
      "stateMutability": "view",
      "type": "function"
    },
    {
      "inputs": [
        {
          "internalType": "address",
          "name": "newCrossDomainAdmin",
          "type": "address"
        }
      ],
      "name": "setCrossDomainAdmin",
      "outputs": [],
      "stateMutability": "nonpayable",
      "type": "function"
    },
    {
      "inputs": [
        {
          "internalType": "address",
          "name": "originToken",
          "type": "address"
        },
        {
          "internalType": "uint256",
          "name": "destinationChainId",
          "type": "uint256"
        },
        {
          "internalType": "bool",
          "name": "enabled",
          "type": "bool"
        }
      ],
      "name": "setEnableRoute",
      "outputs": [],
      "stateMutability": "nonpayable",
      "type": "function"
    },
    {
      "inputs": [
        {
          "internalType": "address",
          "name": "newFxChild",
          "type": "address"
        }
      ],
      "name": "setFxChild",
      "outputs": [],
      "stateMutability": "nonpayable",
      "type": "function"
    },
    {
      "inputs": [
        {
          "internalType": "address",
          "name": "newHubPool",
          "type": "address"
        }
      ],
      "name": "setHubPool",
      "outputs": [],
      "stateMutability": "nonpayable",
      "type": "function"
    },
    {
      "inputs": [
        {
          "internalType": "address payable",
          "name": "newPolygonTokenBridger",
          "type": "address"
        }
      ],
      "name": "setPolygonTokenBridger",
      "outputs": [],
      "stateMutability": "nonpayable",
      "type": "function"
    },
    {
      "inputs": [
        {
          "internalType": "address",
          "name": "depositor",
          "type": "address"
        },
        {
          "internalType": "int64",
          "name": "updatedRelayerFeePct",
          "type": "int64"
        },
        {
          "internalType": "uint32",
          "name": "depositId",
          "type": "uint32"
        },
        {
          "internalType": "address",
          "name": "updatedRecipient",
          "type": "address"
        },
        {
          "internalType": "bytes",
          "name": "updatedMessage",
          "type": "bytes"
        },
        {
          "internalType": "bytes",
          "name": "depositorSignature",
          "type": "bytes"
        }
      ],
      "name": "speedUpDeposit",
      "outputs": [],
      "stateMutability": "nonpayable",
      "type": "function"
    },
    {
      "inputs": [
        {
          "internalType": "address",
          "name": "depositor",
          "type": "address"
        },
        {
          "internalType": "uint32",
          "name": "depositId",
          "type": "uint32"
        },
        {
          "internalType": "uint256",
          "name": "updatedOutputAmount",
          "type": "uint256"
        },
        {
          "internalType": "address",
          "name": "updatedRecipient",
          "type": "address"
        },
        {
          "internalType": "bytes",
          "name": "updatedMessage",
          "type": "bytes"
        },
        {
          "internalType": "bytes",
          "name": "depositorSignature",
          "type": "bytes"
        }
      ],
      "name": "speedUpV3Deposit",
      "outputs": [],
      "stateMutability": "nonpayable",
      "type": "function"
    },
    {
      "inputs": [
        {
          "internalType": "address",
          "name": "newImplementation",
          "type": "address"
        }
      ],
      "name": "upgradeTo",
      "outputs": [],
      "stateMutability": "nonpayable",
      "type": "function"
    },
    {
      "inputs": [
        {
          "internalType": "address",
          "name": "newImplementation",
          "type": "address"
        },
        {
          "internalType": "bytes",
          "name": "data",
          "type": "bytes"
        }
      ],
      "name": "upgradeToAndCall",
      "outputs": [],
      "stateMutability": "payable",
      "type": "function"
    },
    {
      "inputs": [],
      "name": "usdcToken",
      "outputs": [
        {
          "internalType": "contract IERC20",
          "name": "",
          "type": "address"
        }
      ],
      "stateMutability": "view",
      "type": "function"
    },
    {
      "inputs": [],
      "name": "wrap",
      "outputs": [],
      "stateMutability": "nonpayable",
      "type": "function"
    },
    {
      "inputs": [],
      "name": "wrappedNativeToken",
      "outputs": [
        {
          "internalType": "contract WETH9Interface",
          "name": "",
          "type": "address"
        }
      ],
      "stateMutability": "view",
      "type": "function"
    },
    {
      "stateMutability": "payable",
      "type": "receive"
    }
  ],
  "numDeployments": 2,
  "solcInputHash": "887be372122e928f125003190fe750eb",
  "bytecode": "0x61016034620001d457601f6200528d38819003918201601f19168301916001600160401b03831184841017620001d85780849260a094604052833981010312620001d45780516001600160a01b03919082811690819003620001d4576200006960208301620001ec565b6200007760408401620001ec565b916060840151938585168503620001d457608001519485168503620001d4573060805260a05260c05260e0525f5460ff8160081c16620001d45760ff8082160362000199575b50610120908152610140918252610100915f83526040519161508e9384620001ff8539608051848181610d830152818161116401526112ea015260a05184818161093c01528181612950015281816130fa015281816136f10152818161395b01528181613d1f015281816144330152818161475f0152614786015260c0518481816113da015281816128f801526130a9015260e0518481816103d30152612aa601525183818161150d0152614e0d0152518281816108a901528181614c4c0152614d4e01525181818161176c01528181614b930152614d7b0152f35b60ff90811916175f557f7f26b83ff96e1f2b6a682f133852f6798a09c465da95921460cefb3847402498602060405160ff8152a15f620000bd565b5f80fd5b634e487b7160e01b5f52604160045260245ffd5b519063ffffffff82168203620001d45756fe6080604052600436101561001a575b3615610018575f80fd5b005b5f3560e01c8063079bd2c7146103a45780630c2097f71461039f5780631186ec331461039a57806311eac8551461039557806313fb77ee1461039057806315348e441461032257806317fcb39b1461038b5780631b3d5559146103865780631dfb2d0214610381578063272751c71461037c57806329cb924d146103775780632cfc26c5146103725780632e3781151461036d5780633659cfe6146103685780633edb89d11461036357806344b8be681461035e578063450d11f014610359578063493a4f84146103545780634e0fb8f51461034f5780634f1ef2861461034a5780635249fef1146103455780635285e0581461034057806352d1902d1461033b578063541f4f141461033657806357f6dcb8146103315780635ceaec321461032c5780636068d6cb146103275780636bbbcd2e146103225780636e4009831461031d578063738b62e5146103185780637b939232146103135780637e688bba1461030e5780638a7860ce146103095780639748cf7c14610304578063979f2bc2146102ff5780639963e5a8146102fa57806399cc2968146102f55780639a7c4b71146102f05780639a8a0592146102eb578063a1244c67146102e6578063a78e4b60146102e1578063ac9650d8146102dc578063ae527fbb146102d7578063b5e1bf5f146102d2578063b86cfdcf146102cd578063bbca7db0146102c8578063c35c83fc146102c3578063ccfa5971146102be578063ceb4c987146102b9578063d46eb119146102b4578063dda52113146102af578063ddd224f1146102aa578063de7eba78146102a5578063e1904402146102a0578063ee2a53f81461029b578063f2c20924146102965763fd7c10540361000e57612271565b61215a565b61211c565b6120be565b61208e565b612065565b61203f565b61201f565b612001565b611f7f565b611f54565b611e5b565b611e26565b611dfc565b611d7e565b611cad565b611bad565b611b86565b611b6c565b611a89565b611a0b565b611865565b61179b565b611757565b6116df565b611658565b6115af565b611531565b6114f1565b61090d565b6114cb565b6113fe565b6113be565b61132f565b6112d8565b6112af565b611262565b611123565b61100b565b610f5c565b610f33565b610e91565b610e68565b610d5c565b610c3a565b610c04565b610bea565b610b4c565b610b0d565b610a35565b610927565b6108d8565b610894565b61080b565b610766565b6103b7565b5f9103126103b357565b5f80fd5b346103b3575f3660031901126103b357602060405163ffffffff7f0000000000000000000000000000000000000000000000000000000000000000168152f35b6001600160a01b031690565b6001600160a01b038116036103b357565b6004359061042182610403565b565b6024359061042182610403565b6044359061042182610403565b6064359061042182610403565b359061042182610403565b60a435908160070b82036103b357565b60c435908160070b82036103b357565b608435908160070b82036103b357565b61010435908160070b82036103b357565b61012435908160070b82036103b357565b61014435908160070b82036103b357565b63ffffffff8116036103b357565b60e43590610421826104b8565b6101043590610421826104b8565b6101243590610421826104b8565b6101643590610421826104b8565b6101443590610421826104b8565b3590610421826104b8565b634e487b7160e01b5f52604160045260245ffd5b6001600160401b03811161053d57604052565b610516565b606081019081106001600160401b0382111761053d57604052565b60a081019081106001600160401b0382111761053d57604052565b602081019081106001600160401b0382111761053d57604052565b604081019081106001600160401b0382111761053d57604052565b60e081019081106001600160401b0382111761053d57604052565b601f909101601f19168101906001600160401b0382119082101761053d57604052565b6040519060c082016001600160401b0381118382101761053d57604052565b6040519061014082016001600160401b0381118382101761053d57604052565b6040519061018082016001600160401b0381118382101761053d57604052565b60405190608082016001600160401b0381118382101761053d57604052565b604051906104218261055d565b6001600160401b03811161053d57601f01601f191660200190565b92919261069e82610677565b916106ac60405193846105c9565b8294818452818301116103b3578281602093845f960137010152565b9080601f830112156103b3578160206106e393359101610692565b90565b6001600160401b03811161053d5760051b60200190565b9291610708826106e6565b9161071660405193846105c9565b829481845260208094019160051b81019283116103b357905b82821061073c5750505050565b8135815290830190830161072f565b9080601f830112156103b3578160206106e3933591016106fd565b346103b3576101803660031901126103b35760043561078481610403565b61078c610423565b90610795610430565b61079d610455565b926107a6610465565b6107ae6104c6565b6107b66104d3565b6001600160401b0396909290610124358881116103b3576107db9036906004016106c8565b94610164359889116103b3576107f861001899369060040161074b565b97610144359760843592606435926122f9565b6101003660031901126103b35760043561082481610403565b60243561083081610403565b610838610475565b60a43590610845826104b8565b60c4356001600160401b0381116103b3576108649036906004016106c8565b9261086d612fca565b60ff61086b5460e81c166103b35761088d94606435916044359133613038565b6001606555005b346103b3575f3660031901126103b3576040517f00000000000000000000000000000000000000000000000000000000000000006001600160a01b03168152602090f35b346103b35760203660031901126103b35761088d6004356108f881610403565b6109006131df565b610908612fca565b6131f0565b346103b3575f3660031901126103b35760206040515f8152f35b346103b3575f3660031901126103b3576040517f00000000000000000000000000000000000000000000000000000000000000006001600160a01b03168152602090f35b9080601f830112156103b3576020908235610985816106e6565b9361099360405195866105c9565b81855260208086019260051b8201019283116103b357602001905b8282106109bc575050505090565b813581529083019083016109ae565b9080601f830112156103b35760209082356109e5816106e6565b936109f360405195866105c9565b81855260208086019260051b8201019283116103b357602001905b828210610a1c575050505090565b8380918335610a2a81610403565b815201910190610a0e565b6003196060368201126103b357600435610a4e816104b8565b6001600160401b0391602435908382116103b35760c09082360301126103b357610a766105ec565b90806004013582526024810135602083015260448101358481116103b357610aa4906004369184010161096b565b6040830152610ab56064820161050b565b6060830152610ac66084820161044a565b608083015260a4810135908482116103b3576004610ae792369201016109cb565b60a08201526044359283116103b357610b0761001893369060040161074b565b9161240d565b346103b35760203660031901126103b35761088d600435610b2d81610403565b610b356131df565b610b3d612fca565b6132ec565b801515036103b357565b346103b35760603660031901126103b357600435610b6981610403565b602435907f0a21fdd43d0ad0c62689ee7230a47309a050755bcc52eba00310add65297692a602060443592610b9d84610b42565b610ba56131df565b610bad612fca565b60018060a01b031692835f5261086d825260405f20855f52825260405f209015159060ff1981541660ff8316179055604051908152a36001606555005b346103b3575f3660031901126103b3576020604051428152f35b346103b3575f3660031901126103b35760206040515f805160206150398339815191528152f35b90816101809103126103b35790565b346103b35760403660031901126103b3576004356001600160401b0381116103b357610c6a903690600401610c2b565b610c72612fca565b60ff61086b5460e01c166103b357610c8d610140820161255d565b63ffffffff429116101580610d3e575b610d2c57610d2290610d0e610cba610cb53684612571565b6133fa565b9160c0610d07610ccc60208401612567565b610cda610160850185612650565b939094610ce56105ec565b97610cf03683612571565b895260208901520135604087015260608601612682565b3691610692565b608082015260243560a0820152339061353c565b6100186001606555565b604051630c3a9b9d60e41b8152600490fd5b50610d4b60408201612567565b6001600160a01b0316331415610c9d565b346103b35760203660031901126103b357600435610d7981610403565b6001600160a01b037f000000000000000000000000000000000000000000000000000000000000000081163081146103b3575f80516020614fd98339815191529082825416036103b357610dcb6131df565b60405191610dd883610578565b5f83525f80516020614f998339815191525460ff1615610dfe57505050610018906148e2565b6020600491604051928380926352d1902d60e01b825288165afa5f9181610e37575b50610e29575f80fd5b036103b35761001891614805565b610e5a91925060203d602011610e61575b610e5281836105c9565b810190613a53565b905f610e20565b503d610e48565b346103b3575f3660031901126103b357610c5b546040516001600160a01b039091168152602090f35b346103b3576101803660031901126103b357600435610eaf81610403565b602435610ebb81610403565b604435610ec781610403565b60e4358060070b81036103b357610edc610485565b610ee46104e1565b61014435959092906001600160401b0387116103b357610f0b6100189736906004016106c8565b94610164359660c4359260a435926084359260643592612691565b6001600160a01b03169052565b346103b3575f3660031901126103b357610c5a546040516001600160a01b039091168152602090f35b346103b35760403660031901126103b357602435600435610f7b6131df565b610f83612fca565b61086c8054600160401b81101561053d5763ffffffff9160018201905583610faa826120fb565b5084600182015555167fc86ba04c55bc5eb2f2876b91c438849a296dbec7b08751c3074d92e04f0a77af5f80a46001606555005b9181601f840112156103b3578235916001600160401b0383116103b357602083818601950101116103b357565b346103b35760c03660031901126103b35760043561102881610403565b60243590611035826104b8565b60443560643561104481610403565b6001600160401b03916084358381116103b357611065903690600401610fde565b93909460a4359182116103b35761110763ffffffff7fb0a29aed3d389a1041194255878b423f7780be3ed2324d4693508c6ff189845e966110ad611119953690600401610fde565b9390996110b8612fca565b6110df8c8c8b8b6110d66110cd368a89610692565b938b3691610692565b9346908c61413e565b60018060a01b0392836040519a8b9a8b521660208a0152608060408a0152608089019161277f565b9386850360608801521698169661277f565b0390a36001606555005b60403660031901126103b35760043561113b81610403565b6024356001600160401b0381116103b35761115a9036906004016106c8565b6001600160a01b037f00000000000000000000000000000000000000000000000000000000000000008116903082146103b3575f80516020614fd98339815191529181835416036103b3576111ad6131df565b5f80516020614f998339815191525460ff16156111d057505050610018906148e2565b6020600491604051928380926352d1902d60e01b825288165afa5f9181611209575b506111fb575f80fd5b036103b357610018916148a4565b61122391925060203d602011610e6157610e5281836105c9565b905f6111f2565b6001600160a01b03165f90815261086d6020526040902090565b5f5261087260205260405f2090565b5f5261086e60205260405f2090565b346103b35760403660031901126103b35760043561127f81610403565b60018060a01b03165f5261086d60205260405f206024355f52602052602060ff60405f2054166040519015158152f35b346103b3575f3660031901126103b357610869546040516001600160a01b039091168152602090f35b346103b3575f3660031901126103b3577f00000000000000000000000000000000000000000000000000000000000000006001600160a01b031630036103b35760206040515f80516020614fd98339815191528152f35b6101203660031901126103b35760043561134881610403565b6024359061135582610403565b6044359161136283610403565b61136a610455565b60c43591611377836104b8565b60e4356001600160401b0381116103b3576113969036906004016106c8565b9361139f612fca565b60ff61086b5460e81c166103b35761088d956084359260643592613038565b346103b3575f3660031901126103b357602060405163ffffffff7f0000000000000000000000000000000000000000000000000000000000000000168152f35b346103b3576102003660031901126103b357611418610414565b611420610423565b90611429610430565b9161143261043d565b9261143b610485565b93611444610496565b61144c6104a7565b6114546104ef565b6001600160401b0397909290610184358981116103b3576114799036906004016106c8565b946101a4358a81116103b3576114939036906004016106c8565b966101c4359a8b116103b3576114b06100189b36906004016106c8565b986101e4359a60e4359360c4359360a435936084359361279f565b346103b3575f3660031901126103b357602060ff61086b5460e81c166040519015158152f35b346103b3575f3660031901126103b357602060405163ffffffff7f0000000000000000000000000000000000000000000000000000000000000000168152f35b346103b35760203660031901126103b3577fe88463c2f254e2b070013a2dc7ee1e099f9bc00534cbdf03af551dc26ae49219602060043561157181610b42565b6115796131df565b611581612fca565b61086b805460ff60e81b191691151560e881901b60ff60e81b16929092179055604051908152a16001606555005b6101803660031901126103b3576004356115c881610403565b602435906115d582610403565b6044356115e181610403565b606435906115ee82610403565b60e4356115fa81610403565b61010435611607816104b8565b6101243591611615836104b8565b61161d6104fd565b61016435979094906001600160401b0389116103b357611644610018993690600401610fde565b98909760c4359360a4359360843593612891565b346103b35760c03660031901126103b35760043561167581610403565b602435908160070b82036103b35760443591611690836104b8565b60643561169c81610403565b6001600160401b03936084358581116103b3576116bd9036906004016106c8565b9260a4359586116103b3576116d96100189636906004016106c8565b94612bd9565b346103b35760203660031901126103b3576004356116fb6131df565b611703612fca565b61170c816120fb565b611744576001815f80935501557f3569b846531b754c99cb80df3f49cd72fa6fe106aaee5ab8e0caf35a9d7ce88d5f80a26001606555005b634e487b7160e01b5f525f60045260245ffd5b346103b3575f3660031901126103b3576040517f00000000000000000000000000000000000000000000000000000000000000006001600160a01b03168152602090f35b346103b35760603660031901126103b3576004356117b8816104b8565b602435906117c582610403565b604435906117d282610403565b60ff5f5460081c16156103b3576117e890612b4b565b604051916117f583610593565b6009835260208301906820a1a927a9a996ab1960b91b8252602060405161181b81610593565b6005815201640312e302e360dc1b815260ff5f5460081c16156103b3576005610b3d936100189651902091209061047f5561048055611858614267565b611860614276565b61428a565b346103b35760203660031901126103b3576004356001600160401b0381116103b357611895903690600401610c2b565b61189d612fca565b60ff61086b5460e01c166103b3576101408101906118ba8261255d565b63ffffffff908142911610156119f957610120820190426118e66118dd8461255d565b63ffffffff1690565b106119e7576118f8610cb53685612571565b9161190283611244565b546119d65761193a6119347f923794976d026d6b119735adc163cb71decfc903e17c3dc226c00789593c04e194611244565b60019055565b6119c961194960608601612567565b9561195660808701612567565b9561197661197061196a610100840161255d565b9561255d565b9261255d565b61198260408301612567565b61198b83612567565b9061199860208501612567565b926119a7610160860186612650565b9690956040519a8b9a169d60e08201359d60a060c0840135930135918c612ca7565b0390a36100186001606555565b604051624be79160e21b8152600490fd5b60405163d642b7d960e01b8152600490fd5b604051630277ae7b60e21b8152600490fd5b346103b35760203660031901126103b3577f2d5b62420992e5a4afce0e77742636ca2608ef58289fd2e1baa5161ef6e7e41e6020600435611a4b81610b42565b611a536131df565b611a5b612fca565b61086b805460ff60e01b191691151560e081901b60ff60e01b16929092179055604051908152a16001606555005b346103b35760603660031901126103b357602435611aa681610403565b6044356001600160401b0381116103b357611ac5903690600401610fde565b90610c5b805460ff8160a01c166103b35760ff60a01b1916600160a01b179055610c5a546001600160a01b0390811633036103b357611b37925f92611b1583859461086954169716968714612406565b611b2460405180938193612d11565b0390305af4611b31612d1e565b50612406565b337f5185f02297526865dfbc461916f7dd8d40414c836fa469073ebea66ce68ba8635f80a3610c5b805460ff60a01b19169055005b346103b3575f3660031901126103b3576020604051468152f35b346103b3575f3660031901126103b357602063ffffffff61086b5460c01c16604051908152f35b346103b3575f3660031901126103b35760206040515f805160206150198339815191528152f35b9181601f840112156103b3578235916001600160401b0383116103b3576020808501948460051b0101116103b357565b5f5b838110611c155750505f910152565b8181015183820152602001611c06565b90602091611c3e81518092818552858086019101611c04565b601f01601f1916010190565b6020808201906020835283518092526040830192602060408460051b8301019501935f915b848310611c7f5750505050505090565b9091929394958480611c9d600193603f198682030187528a51611c25565b9801930193019194939290611c6f565b346103b35760203660031901126103b357600480356001600160401b0381116103b357611cde903690600401611bd4565b91611ce983836142d2565b611cf283612d4d565b925f5b818110611d0e5760405180611d0a8782611c4a565b0390f35b5f80611d1b838588612d96565b90611d2b60405180938193612d11565b0390305af4611d38612d1e565b9015611d5e5790600191611d4c8288612e0f565b52611d578187612e0f565b5001611cf5565b806044859251106103b3576103b391810151602480918301019101612db1565b60e03660031901126103b357600435611d9681610403565b60243590611da382610403565b611dab610475565b9060a4356001600160401b0381116103b357611dcb9036906004016106c8565b91611dd4612fca565b60ff61086b5460e81c166103b35761088d9363ffffffff421692606435916044359133613038565b346103b3575f3660031901126103b3576040516b1d6329f1c35ca4bfabb9f56160281b8152602090f35b346103b35760203660031901126103b35761088d600435611e4681610403565b611e4e6131df565b611e56612fca565b614348565b346103b3576003196060368201126103b3576004356001600160401b038082116103b3576060823603938401126103b35760243590611e99826104b8565b6044359081116103b357611eb1903690600401611bd4565b919093611ebc612fca565b60048401359061018219018112156103b357610d2294611f4f93611ee9611f489360043691890101612571565b95611ef2614427565b611f36611efe886133fa565b916044611f0e60208b01516103f7565b916101608b015194611f1e6105ec565b9b8c5260208c0152013560408a015260608901612682565b60808701525f60a087015236916106fd565b908361438e565b6137d8565b346103b35760203660031901126103b3576004355f52610872602052602060405f2054604051908152f35b346103b35760c03660031901126103b3576001600160401b036004358181116103b357611fb0903690600401610c2b565b60643590611fbd82610403565b6084358381116103b357611fd5903690600401610fde565b9060a4359485116103b357611ff1610018953690600401610fde565b9490936044359060243590612e23565b346103b3575f3660031901126103b357602060405163ffffffff8152f35b346103b3575f3660031901126103b357612037612fca565b61088d614427565b346103b3575f3660031901126103b357602060ff61086b5460e01c166040519015158152f35b346103b3575f3660031901126103b3576040516a0c097ce7bc90715b34b9f160241b8152602090f35b346103b35760203660031901126103b35761088d6004356120ae81610403565b6120b66131df565b611860612fca565b346103b3575f3660031901126103b35761086a546040516001600160a01b039091168152602090f35b634e487b7160e01b5f52603260045260245ffd5b61086c8054821015612117575f52600360205f20910201905f90565b6120e7565b346103b35760203660031901126103b35760043561086c548110156103b3576121466040916120fb565b506001815491015482519182526020820152f35b346103b35760a03660031901126103b357600435612177816104b8565b6121e960243561218681610403565b60443561219281610403565b6064359061219f82610403565b608435926121ac84610403565b5f54956121cf60ff8860081c161580988199612263575b81156122435750612406565b866121e0600160ff195f5416175f55565b61222c57612f1c565b6121ef57005b6121fd61ff00195f54165f55565b604051600181527f7f26b83ff96e1f2b6a682f133852f6798a09c465da95921460cefb384740249890602090a1005b61223e61010061ff00195f5416175f55565b612f1c565b303b15915081612255575b505f611b31565b6001915060ff16145f61224e565b600160ff82161091506121c3565b6101003660031901126103b35760043561228a81610403565b60243561229681610403565b6044356122a281610403565b6122aa610455565b60c4356001600160401b0381116103b3576122c99036906004016106c8565b926122d2612fca565b60ff61086b5460e81c166103b35761088d9463ffffffff4216936084359260643592613038565b9a989593919996949290979961230d612fca565b612315614427565b61231d61060b565b9b612328908d612682565b6123358960208e01612682565b6123429060408d01612682565b60608b015260808a01524660a08a015260070b60c089015260070b60e088015263ffffffff166101008781019190915261012091808389015261238361060b565b97885260208801945f8652604089015f905260608901906123a391612682565b60808801525f60a08801526b1d6329f1c35ca4bfabb9f56160281b60c08801525f1960e088015260019087015285015283516123de90613afc565b90526123ea918361448f565b6123f381613b95565b6123fc9161400f565b6104216001606555565b156103b357565b918151151580612553575b61254157612424612fca565b6080820191612431614427565b60208101918251460361252f5761245961245d91836001612451896120fb565b500154614543565b1590565b61251d578060607ff8bd640004bcec1b89657020f561d0b070cbdf662d0b158db9dccb0a8301bfab92019361249f612499865163ffffffff1690565b876145bd565b6125108451946124f56124ee8551956124de60408201998a516124c68d5163ffffffff1690565b6124d08a516103f7565b9160a086019b8c5194614612565b5192519751985163ffffffff1690565b93516103f7565b935163ffffffff9485604051968796169a16983393866132a5565b0390a46104216001606555565b60405163582f497d60e11b8152600490fd5b604051633d23e4d160e11b8152600490fd5b604051635d04968b60e11b8152600490fd5b5032331415612418565b356106e3816104b8565b356106e381610403565b9190610180838203126103b35761258661062b565b926125908161044a565b845261259e6020820161044a565b60208501526125af6040820161044a565b60408501526125c06060820161044a565b60608501526125d16080820161044a565b608085015260a081013560a085015260c081013560c085015260e081013560e085015261010061260281830161050b565b9085015261012061261481830161050b565b9085015261014061262681830161050b565b9085015261016091818301356001600160401b0381116103b35761264a92016106c8565b90830152565b903590601e19813603018212156103b357018035906001600160401b0382116103b3576020019181360383136103b357565b6001600160a01b039091169052565b9a9692909897999395916126a3612fca565b60ff61086b5460e01c166103b3576126b961060b565b9b6126c4908d612682565b6126d18a60208e01612682565b6126de9060408d01612682565b60608b015260808a01524660a08a015260070b60c0890152600787900b60e08901526101009485890190612717919063ffffffff169052565b6101209581878a015261272861060b565b9889525f60208a0190815260079890980b60408a015261274b9060608a01612682565b608088015260a087015260c086015260e085015283015f905282015f9052815161277490613afc565b90526123f381613b95565b908060209392818452848401375f828201840152601f01601f1916010190565b9d9c9b959e93909698929a97919a6127b5612fca565b60ff61086b5460e01c166103b3578e976127cd61060b565b986127d8908a612682565b6127e59060208a01612682565b6127f29060408901612682565b6060870152608086018890524660a087015260070b60c086015260070b60e085015263ffffffff85166101008581019190915291610120938486015261283661060b565b9485525f60208601908152600789900b6040870152949c898e6060019061285c91612682565b8d8b608082015260a0015260c08d015260e08c01528a015f905289015f9052885161288690613afc565b90526123ea966141ad565b979b95999196939b9a949890929a6128a7612fca565b61086b9960ff8b5460e81c166103b3576128de6124596128d78e6128ca8d61122a565b905f5260205260405f2090565b5460ff1690565b612ae65763ffffffff9d8e6128f581851642612b0c565b907f00000000000000000000000000000000000000000000000000000000000000001610612ad4578e808516428110918215612a9e575b5050612a8c578e9b60018060a01b039c8d891690871690818117612a56575b50508c7f0000000000000000000000000000000000000000000000000000000000000000168d8c1681811480612a4d575b15612a335750823403612a2157803b156103b3575f60049160405192838092630d0e30db60e41b825234905af18015612a1c57612a03575b505b5460c01c63ffffffff169e8f6129cb90612b36565b6129d490612b4b565b6040519c8d9c169f169d6129e89a8c612b71565b035f80516020614f7983398151915291a46104216001606555565b80612a10612a169261052a565b806103a9565b5f6129b4565b612b2b565b604051636452a35d60e01b8152600490fd5b905034612a215782612a489130903390614211565b6129b6565b5034151561297c565b15612a7a574211612a68575f8061294b565b6040516325a63a5b60e01b8152600490fd5b60405163495d907f60e01b8152600490fd5b60405163582e388960e01b8152600490fd5b612acc9192507f00000000000000000000000000000000000000000000000000000000000000001642612b1e565b108f8061292c565b60405163f722177f60e01b8152600490fd5b604051632a58c4f360e01b8152600490fd5b634e487b7160e01b5f52601160045260245ffd5b91908203918211612b1957565b612af8565b91908201809211612b1957565b6040513d5f823e3d90fd5b63ffffffff809116908114612b195760010190565b61086b805463ffffffff60c01b191660c09290921b63ffffffff60c01b16919091179055565b6001600160a01b03918216815291811660208301526040820192909252606081019290925263ffffffff928316608083015292821660a0820152921660c083015291821660e0820152911661010082015261014061012082018190526106e39391019161277f565b9092919493612be6612fca565b8360070b916706f05b59d3b20000612bfd84614258565b10156103b35763ffffffff82612c3d88612c7a95887fa6aa57bd282fc82378458de27be4eadfa791a0c7321c49562eeba8b2643dd5669a8d4690896141ad565b612c6860018060a01b0391826040519889988952166020880152608060408801526080870190611c25565b92858403606087015216971695611c25565b0390a36001606555565b634e487b7160e01b5f52602160045260245ffd5b60031115612ca257565b612c84565b6001600160a01b03918216815291811660208301526040820192909252606081019290925263ffffffff92831660808301529290911660a082015291811660c083015291821660e0820152911661010082015261014061012082018190526106e39391019161277f565b908092918237015f815290565b3d15612d48573d90612d2f82610677565b91612d3d60405193846105c9565b82523d5f602084013e565b606090565b90612d57826106e6565b612d6460405191826105c9565b8281528092612d75601f19916106e6565b01905f5b828110612d8557505050565b806060602080938501015201612d79565b9082101561211757612dad9160051b810190612650565b9091565b6020818303126103b3578051906001600160401b0382116103b3570181601f820112156103b3578051612de381610677565b92612df160405194856105c9565b818452602082840101116103b3576106e39160208085019101611c04565b80518210156121175760209160051b010190565b9490969395612e30612fca565b60ff61086b5460e01c166103b357612e4b610140870161255d565b63ffffffff429116101580612efe575b610d2c57612e693687612571565b612e72906133fa565b97612e7b6105ec565b98612e863689612571565b8a5260208a015260408901849052612ea18560608b01612682565b612eac36848a610692565b60808a015260a0890152612ebf86612567565b96612ecd610100880161255d565b923690612ed992610692565b943690612ee592610692565b9460e0013590612ef49661413e565b336123fc9161353c565b50612f0b60408701612567565b6001600160a01b0316331415612e5b565b610c5b805460ff60a01b191690555f549294939260081c60ff16156103b357612f4490612b4b565b604051612f5081610593565b6009815260208101926820a1a927a9a996ab1960b91b84526020604051612f7681610593565b600581520193640312e302e360dc1b855260ff5f5460081c16156103b35761042196611e56956005610b3d93612fbc9651902091209061047f5561048055611858614267565b6001600160a01b03166131f0565b6002606554146103b3576002606555565b92936106e396959192946101409560018060a01b0380951686525f60208701526040860152606085015263ffffffff809116608085015260a08401525f60c08401521660e08201525f610100820152816101208201520190611c25565b91959693949290926130586130536128d7886128ca8b61122a565b612406565b60070b936130776706f05b59d3b2000061307187614258565b10612406565b6130916a0c097ce7bc90715b34b9f160241b831115612406565b63ffffffff936130d06130a6868b1642612b0c565b867f0000000000000000000000000000000000000000000000000000000000000000161015612406565b61086b5460c01c63ffffffff16986130ef6130ea8b612b36565b612b4b565b6001600160a01b03957f00000000000000000000000000000000000000000000000000000000000000008716948a8816808714806131d6575b156131ac5750613139813414612406565b853b156103b3575f60049660405197888092630d0e30db60e41b825234905af18015612a1c575f80516020614f79833981519152996131949761318392613199575b505b8261450d565b91604051988998169c169a87612fdb565b0390a4565b80612a106131a69261052a565b5f61317b565b61319496505f80516020614f79833981519152996131d1836131839330903390614211565b61317d565b50341515613128565b60ff610c5b5460a01c16156103b357565b610c5b80546001600160a01b0319166001600160a01b039290921691821790557f6ade7bc58132776cc11d9b570837a732329396078de17b87db95463ca7f5d25f5f80a2565b9081518082526020808093019301915f5b828110613255575050505090565b835185529381019392810192600101613247565b9081518082526020808093019301915f5b828110613288575050505090565b83516001600160a01b03168552938101939281019260010161327a565b936132c7608094936132e593989798875260a0602088015260a0870190613236565b6001600160a01b039384166040870152858103606087015290613269565b9416910152565b6001600160a01b031680156103b35761086a80546001600160a01b031916821790557f1f17a88f67b0f49060a34bec1a4723a563620e6aa265eb640b5046dcee0759a05f80a2565b6106e39161018090613347818451610f26565b61335960208401516020830190610f26565b61336b60408401516040830190610f26565b61337d60608401516060830190610f26565b61338f60808401516080830190610f26565b60a083015160a082015260c083015160c082015260e083015160e08201526133c5610100808501519083019063ffffffff169052565b6101208381015163ffffffff16908201526101408381015163ffffffff16908201528161016080940151938201520190611c25565b60405161342b816134176020820194604086526060830190613334565b46604083015203601f1981018352826105c9565b51902090565b61343a82612c98565b52565b9060018060a01b0382511681526060806134666020850151608060208601526080850190611c25565b936040810151604085015201519161347d83612c98565b015290565b9a979096956134f1966106e39d9b9660808e6134e6986135009e986101809d60018060a01b03998a80921685521660208401526040830152606082015201528c60a063ffffffff8094169101521660c08c01521660e08a0152610100890190610f26565b610120870190610f26565b80610140860152840190611c25565b9161016081840391015261343d565b906106e3949360809360018060a01b03809316845260208401521660408201528160608201520190611c25565b805191610120830190613553825163ffffffff1690565b63ffffffff429116106119e7576020830151600161357082611244565b54036137d1576001905b600261358582611244565b54146137bf5761359490611244565b6002905560608501516135a6906103f7565b60808601516135b4906103f7565b9260a0870151918660c0890151948960a08301519660e0820151976101008301516135e29063ffffffff1690565b9a5163ffffffff1661014084015163ffffffff16906040850151613605906103f7565b928551613611906103f7565b946020870151613620906103f7565b9661016001519760608a0151613635906103f7565b99608081015190604001519061364961064b565b9b613654908d612682565b60208c015260408b015261366b9060608b01613431565b6040516001600160a01b03909b169e63ffffffff169d9a9b8c9b61368f9b8d613482565b035f80516020614fb983398151915291a460608101516136ae906103f7565b6001600160a01b03811692338414806137b7575b6137405760806136d39101516103f7565b6040830151909390926080906001600160a01b0380871690869086907f00000000000000000000000000000000000000000000000000000000000000001683036137a757506137259130903390614211565b61372f8584614744565b0151913b15158061379d575b613746575b50505050565b803b156103b357613773935f809460405196879586948593633a5be8cb60e01b855233916004860161350f565b03925af18015612a1c5761378a575b808080613740565b80612a106137979261052a565b5f613782565b508151151561373b565b6137b2923390614211565b61372f565b5060016136c2565b604051630479306360e51b8152600490fd5b5f9061357a565b905f825161012081016137ef815163ffffffff1690565b63ffffffff429116106119e7576020850151600261380c82611244565b54146137bf5761381b90611244565b60029055606082015161382d906103f7565b608083015161383b906103f7565b9060a08401519260c0850151918860a0810151938760e0810151956101008201516138699063ffffffff1690565b955163ffffffff1661014083015163ffffffff16604084015161388b906103f7565b918451613897906103f7565b9360208601516138a6906103f7565b9561016001519660608901516138bb906103f7565b9860808101519060400151906138cf61064b565b9a6138da908c612682565b60208b015260408a0152600260608a01526040519d63ffffffff8f9c169d6139029b8d613482565b035f80516020614fb9833981519152905f94a46060840151613923906103f7565b6001600160a01b03949091858316919033831480613a4c575b613a4357608061394d9101516103f7565b9060408101519687818416917f00000000000000000000000000000000000000000000000000000000000000001682145f14613a2c57906080929187613a18575b613999915085614744565b0151923b151580613a0e575b6139b2575b505050509050565b813b15613a0a57836139de959660405196879586948593633a5be8cb60e01b855233916004860161350f565b03925af18015612a1c576139f7575b80808084936139aa565b80612a10613a049261052a565b5f6139ed565b8380fd5b50825115156139a5565b613a259130903390614211565b5f8861398e565b608092919650613a3e90865f9861470f565b613999565b50505050509050565b505f61393c565b908160209103126103b3575190565b6106e39161014090613a75818451610f26565b613a8760208401516020830190610f26565b613a9960408401516040830190610f26565b606083015160608201526080830151608082015260a083015160a0820152613acb60c084015160c083019060070b9052565b60e08381015160070b908201526101008381015163ffffffff16908201528161012080940151938201520190611c25565b60405161342b81613b196020820194602086526040830190613a62565b03601f1981018352826105c9565b600791820b910b019060016001603f1b0319821260016001603f1b03831317612b1957565b600160ff1b8114612b19575f0390565b6001600160a01b039182168152602081019290925291151560408201529116606082015260a0608082018190526106e392910190611c25565b908151916040810192613bd46706f05b59d3b2000080613bc7613bc2613bbc895160070b90565b60070b90565b614258565b109081613f2e5750612406565b60608101613bf36a0c097ce7bc90715b34b9f160241b82511115612406565b6020830190613c0e613c058351611253565b54825111612406565b60c0840192835196613c3e60c0830198613c38613c2c8b5160070b90565b845160070b5b90613b27565b90614916565b97613c4a891515612406565b613c608451613c598751611253565b5490612b0c565b898110613f24575b50613bbc613c8f92613c32613c81613c89945160070b90565b915160070b90565b8861450d565b9361012086015180613ed2575b505060a08501518786519160a083015114918215613ec4575b50508015613eab575b613cc790612406565b613cd18351611253565b613cdc888254612b1e565b90556060850191613ced83516103f7565b926001600160a01b0392338486161480613e94575b613e8a57906040613d809201948785613d1b88516103f7565b16917f000000000000000000000000000000000000000000000000000000000000000087168303613e4157505050613d5a6124596101008a0151151590565b613e22575b613d7a87613d75613d7084516103f7565b6103f7565b614744565b516103f7565b91823b151580613e14575b613d99575b50505050505050565b613dab613db2916080941694516103f7565b9451611253565b549051111594015193813b156103b3575f8094613de7604051978896879586946301d43f2760e31b8652339260048701613b5c565b03925af18015612a1c57613e01575b808080808080613d90565b80612a10613e0e9261052a565b5f613df6565b506080870151511515613d8b565b613e3c87613e33613d7088516103f7565b30903390614211565b613d5f565b613e526124596101008d0151151590565b15613e815750613e7c9150613e6a613d7088516103f7565b613e7484516103f7565b903390614211565b613d7a565b613e7c9261470f565b5050505050505050565b50613ea66124596101008a0151151590565b613d02565b50613cc7613ebd610100870151151590565b9050613cbe565b60600151149050875f613cb5565b613f1d9195613f0d613f1392613ef3670de0b6b3a763ffff19821215612406565b613f0868056bc75e2d63100000821315612406565b613b4c565b9061450d565b9451851115612406565b5f80613c9c565b9850613bbc613c68565b9050613f44613bc2613bbc60c086015160070b90565b105f611b31565b9060018060a01b038251168152608080613f74602085015160a0602086015260a0850190611c25565b93604081015160070b6040850152606081015115156060850152015191015290565b9a97936106e39c9a959197936140009a979360208e6101809b8152015260408d015260608c015260808b015260070b60a08a015260070b60c089015260018060a01b03928380921660e08a0152166101008801521661012086015280610140860152840190611c25565b91610160818403910152613f4b565b90604082015161401f9060070b90565b91606081015161402e906103f7565b90608081015193610100948583015161404690151590565b61012092838501519261405761066a565b966140629088612682565b602087015260070b6040860152151560608501526080840152815160600151602083015161408f90611253565b549360a084015193519460808601519560a08101519160e08201516140b49060070b90565b60c083015160070b9a83015163ffffffff169a60408401516140d5906103f7565b9184516140e1906103f7565b9860208601516140f0906103f7565b950151956040519a8b9a600160a01b60019003169e63ffffffff169d33966141189b8d613f96565b037f8ab9dc6c19fe88e69bc70221b339c84332752fdd49591b7c51e66bae3947b73c91a4565b93926141a793610421979660208151910120906040519263ffffffff60208501955f805160206150398339815191528752166040850152856060850152608084015260018060a01b031660a083015260c082015260c0815261419f816105ae565b519020614964565b906149d7565b93926141a793610421979660208151910120906040519263ffffffff60208501955f80516020615019833981519152875216604085015285606085015260070b608084015260018060a01b031660a083015260c082015260c0815261419f816105ae565b6040516323b872dd60e01b60208201526001600160a01b039283166024820152929091166044830152606480830193909352918152610421916142538261055d565b614aa7565b5f81126142625790565b5f0390565b60ff5f5460081c16156103b357565b60ff5f5460081c16156103b3576001606555565b6001600160a01b031680156103b35761086980546001600160a01b031916821790557fa9e8c42c9e7fca7f62755189a16b2f5314d43d8fb24e91ba54e6d65f9314e8495f80a2565b5f80925f935b8185106142e6575050505050565b6142f1858386612d96565b919060049283116103b357356001600160e01b031916631b3d555960e01b036143365750826143275750600180945b01936142d8565b6040516347306cb560e01b8152fd5b80959350614327575060018092614320565b610c5a80546001600160a01b0319166001600160a01b039290921691821790557f573834b6d6901b74ef64eeb676a0b99d7946df822b7021e44ee0da19d846c4955f80a2565b9161245990614410928451604080960151918651916143ac83610542565b82526144076143c760208401924684528985019586526120fb565b50549388519283916143ec6020840196602088525160608d86015260a0850190613334565b9151606084015251608083015203601f1981018352826105c9565b51902091614b36565b6144175750565b5163582f497d60e11b8152600490fd5b4780614431575b50565b7f00000000000000000000000000000000000000000000000000000000000000006001600160a01b0316803b156103b3575f90600460405180948193630d0e30db60e41b83525af18015612a1c576144865750565b6104219061052a565b80516101209091015160408051808201959492939092916001600160401b0387118488101761053d576144d76144f893614407936124069984528652602086019687526120fb565b50549481519384926020840196602088525190808501526080840190613a62565b9051606083015203601f1981018352826105c9565b90670de0b6b3a7640000915f828403921283831281169084841390151617612b1957818102918183041490151715612b19570490565b6106e3929160405161440781613b19602082019460208652805160408401526020810151606084015260a0614588604083015160c06080870152610100860190613236565b606083015163ffffffff168583015260808301515f196001841b011660c0860152910151838203603f190160e0850152613269565b6145c86002916120fb565b500162ffffff8260081c16805f5281602052600160ff60405f205494161b8080941614614600575f5260205260405f20908154179055565b60405163954476d960e01b8152600490fd5b92949391909380518251036146e2578151915f5b83811061469657505050508261463c5750505050565b63ffffffff8161466d7f828fc203220356df8f072a91681caee7d5c75095e2a95e80ed5a14b384697f719386614b87565b604080519586523360208701526001600160a01b0391909116959190911693a45f808080613740565b806146a360019284612e0f565b51806146b1575b5001614626565b6146dc906146cf6146c28488612e0f565b516001600160a01b031690565b848060a01b03891661470f565b5f6146aa565b6040516319a5316760e31b8152600490fd5b6001600160a01b039091168152602081019190915260400190565b614253610421939261473660405194859263a9059cbb60e01b6020850152602484016146f4565b03601f1981018452836105c9565b6001600160a01b0390811690813b15614784579061042192917f00000000000000000000000000000000000000000000000000000000000000001661470f565b7f000000000000000000000000000000000000000000000000000000000000000016803b156103b3575f8091602460405180948193632e1a7d4d60e01b83528860048401525af18015612a1c576147f6575b508147106103b3575f80809381935af16147ee612d1e565b50156103b357565b6147ff9061052a565b5f6147d6565b61480e816148e2565b6001600160a01b0381165f80516020614ff98339815191525f80a281511580159061489d575b61483c575050565b5f8061442e93660819985a5b195960ca1b6040805161485a81610542565b602781527f416464726573733a206c6f772d6c6576656c2064656c65676174652063616c6c60208201520152602081519101845af4614897612d1e565b91614ede565b505f614834565b6148ad816148e2565b6001600160a01b0381165f80516020614ff98339815191525f80a28151158015906148da5761483c575050565b506001614834565b803b156103b3575f80516020614fd983398151915280546001600160a01b0319166001600160a01b03909216919091179055565b670de0b6b3a7640000918183029183830403612b195760070b808303925f821281851281169082861390151617612b195714614950570490565b634e487b7160e01b5f52601260045260245ffd5b60429161047f549061048054906040519160208301937fc2f8787176b8ac6bf7215b4adcc1e069bf4ab82d9ab1df05a57a91d425935b6e8552604084015260608301526080820152608081526149b98161055d565b519020906040519161190160f01b8352600283015260228201522090565b91906149e38282614ead565b9390926005851015612ca25761042194159384614a91575b508315614a0b575b505050612406565b5f929350908291604051614a4381613b196020820194630b135d3f60e11b998a87526024840152604060448401526064830190611c25565b51915afa90614a50612d1e565b82614a83575b82614a66575b50505f8080614a03565b614a7b91925060208082518301019101613a53565b145f80614a5c565b915060208251101591614a56565b6001600160a01b0383811691161493505f6149fb565b905f80614afd9360018060a01b0316927f5361666545524332303a206c6f772d6c6576656c2063616c6c206661696c65646020604051614ae681610593565b818152015260208151910182855af1614897612d1e565b8051908115918215614b13575b5050156103b357565b81925090602091810103126103b35760200151614b2f81610b42565b5f80614b0a565b929091905f915b8451831015614b7f57614b508386612e0f565b519081811015614b6e575f52602052600160405f205b920191614b3d565b905f52602052600160405f20614b66565b915092501490565b906001600160a01b03907f00000000000000000000000000000000000000000000000000000000000000008216151580614c48575b15614bd857505061042190614bd361086a546103f7565b614d3c565b16614bff613d70610c5b614bf985614bf3613d7084546103f7565b86614c8f565b546103f7565b91823b156103b357614c2a925f9283604051809681958294633419e74d60e21b8452600484016146f4565b03925af18015612a1c57614c3b5750565b80612a106104219261052a565b50817f00000000000000000000000000000000000000000000000000000000000000001682821614614bbc565b6001600160a01b0391821681529116602082015260400190565b604051636eb1769f60e11b8152919260208380614cb0873060048401614c75565b03816001600160a01b0386165afa928315612a1c575f93614cfc575b508201809211612b19576142536104219361473660405194859263095ea7b360e01b6020850152602484016146f4565b614d1691935060203d602011610e6157610e5281836105c9565b915f614ccc565b908160209103126103b357516001600160401b03811681036103b35790565b604051636eb1769f60e11b81526020927f00000000000000000000000000000000000000000000000000000000000000006001600160a01b03818116947f000000000000000000000000000000000000000000000000000000000000000082169290878680614daf873060048401614c75565b03818a5afa958615612a1c576147365f93614253614dda898d9b614df6968991614e90575b50612b1e565b60405163095ea7b360e01b8c8201529384918a602484016146f4565b6040516337e9a82760e11b815260048101959095527f000000000000000000000000000000000000000000000000000000000000000063ffffffff1660248601529190911660448401526001600160a01b039490941660648301529092839160849183915af18015612a1c57614e6a575050565b8161442e92903d10614e89575b614e8181836105c9565b810190614d1d565b503d614e77565b614ea791508d803d10610e6157610e5281836105c9565b5f614dd4565b9060418151145f14614ed557612dad91602082015190606060408401519301515f1a90614f07565b50505f90600290565b9015614ef857815115614eef575090565b3b156103b35790565b5080519081156103b357602001fd5b6fa2a8918ca85bafe22016d0b997e4df60600160ff1b038411614f6d576020935f9360ff60809460405194855216868401526040830152606082015282805260015afa15612a1c575f516001600160a01b03811615614f6557905f90565b505f90600190565b505050505f9060039056fea123dc29aebf7d0c3322c8eeb5b999e859f39937950ed31056532713d0de396f4910fdfa16fed3260ed0e7147f7cc6da11a60208b5b9406d12a635614ffd9143571749edf1d5c9599318cdbc4e28a6475d65e87fd3b2ddbe1e9a8d5e7a0f0ff7360894a13ba1a3210667c828492db98dca3e2076cc3735a920a3ca505d382bbcbc7cd75a20ee27fd9adebab32041f755214dbc6bffa90cc0225b39da2e5c2d3b0e058f05b73c62ee68329d2c67c067aaae9a06503cc306378d144d0f0177882b152eb71524aef34d838ab76573c14b1ebfa5e385d9ab29d7cf5398daa2438bd9a26469706673582212205f5654d7d518920d32377db734649809dff3b71adba0d2263a96c1c8c8d9e08a64736f6c63430008170033"
}