{
  "address": "0x5d9F4e65aF4615ECcC888975D3987EB438Abc218",
  "abi": [
    {
      "inputs": [
        {
          "internalType": "address",
          "name": "_wrappedNativeTokenAddress",
          "type": "address"
        },
        {
          "internalType": "uint32",
          "name": "_depositQuoteTimeBuffer",
          "type": "uint32"
        },
        {
          "internalType": "uint32",
          "name": "_fillDeadlineBuffer",
          "type": "uint32"
        },
        {
          "internalType": "contract IERC20",
          "name": "_l2Usdc",
          "type": "address"
        },
        {
          "internalType": "contract ITokenMessenger",
          "name": "_cctpTokenMessenger",
          "type": "address"
        }
      ],
      "stateMutability": "nonpayable",
      "type": "constructor"
    },
    {
      "inputs": [],
      "name": "CallValidatedAlreadySet",
      "type": "error"
    },
    {
      "inputs": [],
      "name": "CallValidatedNotSet",
      "type": "error"
    },
    {
      "inputs": [],
      "name": "ClaimedMerkleLeaf",
      "type": "error"
    },
    {
      "inputs": [],
      "name": "DelegateCallFailed",
      "type": "error"
    },
    {
      "inputs": [],
      "name": "DepositsArePaused",
      "type": "error"
    },
    {
      "inputs": [],
      "name": "DisabledRoute",
      "type": "error"
    },
    {
      "inputs": [],
      "name": "ExpiredFillDeadline",
      "type": "error"
    },
    {
      "inputs": [],
      "name": "FillsArePaused",
      "type": "error"
    },
    {
      "inputs": [],
      "name": "InsufficientSpokePoolBalanceToExecuteLeaf",
      "type": "error"
    },
    {
      "inputs": [],
      "name": "InvalidBytes32",
      "type": "error"
    },
    {
      "inputs": [],
      "name": "InvalidChainId",
      "type": "error"
    },
    {
      "inputs": [],
      "name": "InvalidCrossDomainAdmin",
      "type": "error"
    },
    {
      "inputs": [],
      "name": "InvalidDepositorSignature",
      "type": "error"
    },
    {
      "inputs": [],
      "name": "InvalidExclusiveRelayer",
      "type": "error"
    },
    {
      "inputs": [],
      "name": "InvalidFillDeadline",
      "type": "error"
    },
    {
      "inputs": [],
      "name": "InvalidMerkleLeaf",
      "type": "error"
    },
    {
      "inputs": [],
      "name": "InvalidMerkleProof",
      "type": "error"
    },
    {
      "inputs": [],
      "name": "InvalidPayoutAdjustmentPct",
      "type": "error"
    },
    {
      "inputs": [],
      "name": "InvalidQuoteTimestamp",
      "type": "error"
    },
    {
      "inputs": [],
      "name": "InvalidRelayerFeePct",
      "type": "error"
    },
    {
      "inputs": [],
      "name": "InvalidSlowFillRequest",
      "type": "error"
    },
    {
      "inputs": [],
      "name": "InvalidWithdrawalRecipient",
      "type": "error"
    },
    {
      "inputs": [
        {
          "internalType": "bytes",
          "name": "data",
          "type": "bytes"
        }
      ],
      "name": "LowLevelCallFailed",
      "type": "error"
    },
    {
      "inputs": [],
      "name": "MaxTransferSizeExceeded",
      "type": "error"
    },
    {
      "inputs": [],
      "name": "MsgValueDoesNotMatchInputAmount",
      "type": "error"
    },
    {
      "inputs": [],
      "name": "MulticallExecuteLeaf",
      "type": "error"
    },
    {
      "inputs": [],
      "name": "NoRelayerRefundToClaim",
      "type": "error"
    },
    {
      "inputs": [],
      "name": "NoSlowFillsInExclusivityWindow",
      "type": "error"
    },
    {
      "inputs": [],
      "name": "NotEOA",
      "type": "error"
    },
    {
      "inputs": [],
      "name": "NotExclusiveRelayer",
      "type": "error"
    },
    {
      "inputs": [],
      "name": "NotFxChild",
      "type": "error"
    },
    {
      "inputs": [],
      "name": "NotHubPool",
      "type": "error"
    },
    {
      "inputs": [],
      "name": "RelayFilled",
      "type": "error"
    },
    {
      "inputs": [],
      "name": "WrongERC7683OrderId",
      "type": "error"
    },
    {
      "anonymous": false,
      "inputs": [
        {
          "indexed": false,
          "internalType": "address",
          "name": "previousAdmin",
          "type": "address"
        },
        {
          "indexed": false,
          "internalType": "address",
          "name": "newAdmin",
          "type": "address"
        }
      ],
      "name": "AdminChanged",
      "type": "event"
    },
    {
      "anonymous": false,
      "inputs": [
        {
          "indexed": true,
          "internalType": "address",
          "name": "beacon",
          "type": "address"
        }
      ],
      "name": "BeaconUpgraded",
      "type": "event"
    },
    {
      "anonymous": false,
      "inputs": [
        {
          "indexed": true,
          "internalType": "bytes32",
          "name": "l2TokenAddress",
          "type": "bytes32"
        },
        {
          "indexed": true,
          "internalType": "bytes32",
          "name": "refundAddress",
          "type": "bytes32"
        },
        {
          "indexed": false,
          "internalType": "uint256",
          "name": "amount",
          "type": "uint256"
        },
        {
          "indexed": true,
          "internalType": "address",
          "name": "caller",
          "type": "address"
        }
      ],
      "name": "ClaimedRelayerRefund",
      "type": "event"
    },
    {
      "anonymous": false,
      "inputs": [
        {
          "indexed": true,
          "internalType": "uint256",
          "name": "rootBundleId",
          "type": "uint256"
        }
      ],
      "name": "EmergencyDeletedRootBundle",
      "type": "event"
    },
    {
      "anonymous": false,
      "inputs": [
        {
          "indexed": true,
          "internalType": "address",
          "name": "originToken",
          "type": "address"
        },
        {
          "indexed": true,
          "internalType": "uint256",
          "name": "destinationChainId",
          "type": "uint256"
        },
        {
          "indexed": false,
          "internalType": "bool",
          "name": "enabled",
          "type": "bool"
        }
      ],
      "name": "EnabledDepositRoute",
      "type": "event"
    },
    {
      "anonymous": false,
      "inputs": [
        {
          "indexed": false,
          "internalType": "uint256",
          "name": "amountToReturn",
          "type": "uint256"
        },
        {
          "indexed": true,
          "internalType": "uint256",
          "name": "chainId",
          "type": "uint256"
        },
        {
          "indexed": false,
          "internalType": "uint256[]",
          "name": "refundAmounts",
          "type": "uint256[]"
        },
        {
          "indexed": true,
          "internalType": "uint32",
          "name": "rootBundleId",
          "type": "uint32"
        },
        {
          "indexed": true,
          "internalType": "uint32",
          "name": "leafId",
          "type": "uint32"
        },
        {
          "indexed": false,
          "internalType": "address",
          "name": "l2TokenAddress",
          "type": "address"
        },
        {
          "indexed": false,
          "internalType": "address[]",
          "name": "refundAddresses",
          "type": "address[]"
        },
        {
          "indexed": false,
          "internalType": "bool",
          "name": "deferredRefunds",
          "type": "bool"
        },
        {
          "indexed": false,
          "internalType": "address",
          "name": "caller",
          "type": "address"
        }
      ],
      "name": "ExecutedRelayerRefundRoot",
      "type": "event"
    },
    {
      "anonymous": false,
      "inputs": [
        {
          "indexed": false,
          "internalType": "bytes32",
          "name": "inputToken",
          "type": "bytes32"
        },
        {
          "indexed": false,
          "internalType": "bytes32",
          "name": "outputToken",
          "type": "bytes32"
        },
        {
          "indexed": false,
          "internalType": "uint256",
          "name": "inputAmount",
          "type": "uint256"
        },
        {
          "indexed": false,
          "internalType": "uint256",
          "name": "outputAmount",
          "type": "uint256"
        },
        {
          "indexed": false,
          "internalType": "uint256",
          "name": "repaymentChainId",
          "type": "uint256"
        },
        {
          "indexed": true,
          "internalType": "uint256",
          "name": "originChainId",
          "type": "uint256"
        },
        {
          "indexed": true,
          "internalType": "uint256",
          "name": "depositId",
          "type": "uint256"
        },
        {
          "indexed": false,
          "internalType": "uint32",
          "name": "fillDeadline",
          "type": "uint32"
        },
        {
          "indexed": false,
          "internalType": "uint32",
          "name": "exclusivityDeadline",
          "type": "uint32"
        },
        {
          "indexed": false,
          "internalType": "bytes32",
          "name": "exclusiveRelayer",
          "type": "bytes32"
        },
        {
          "indexed": true,
          "internalType": "bytes32",
          "name": "relayer",
          "type": "bytes32"
        },
        {
          "indexed": false,
          "internalType": "bytes32",
          "name": "depositor",
          "type": "bytes32"
        },
        {
          "indexed": false,
          "internalType": "bytes32",
          "name": "recipient",
          "type": "bytes32"
        },
        {
          "indexed": false,
          "internalType": "bytes32",
          "name": "messageHash",
          "type": "bytes32"
        },
        {
          "components": [
            {
              "internalType": "bytes32",
              "name": "updatedRecipient",
              "type": "bytes32"
            },
            {
              "internalType": "bytes32",
              "name": "updatedMessageHash",
              "type": "bytes32"
            },
            {
              "internalType": "uint256",
              "name": "updatedOutputAmount",
              "type": "uint256"
            },
            {
              "internalType": "enum V3SpokePoolInterface.FillType",
              "name": "fillType",
              "type": "uint8"
            }
          ],
          "indexed": false,
          "internalType": "struct V3SpokePoolInterface.V3RelayExecutionEventInfo",
          "name": "relayExecutionInfo",
          "type": "tuple"
        }
      ],
      "name": "FilledRelay",
      "type": "event"
    },
    {
      "anonymous": false,
      "inputs": [
        {
          "indexed": false,
          "internalType": "address",
          "name": "inputToken",
          "type": "address"
        },
        {
          "indexed": false,
          "internalType": "address",
          "name": "outputToken",
          "type": "address"
        },
        {
          "indexed": false,
          "internalType": "uint256",
          "name": "inputAmount",
          "type": "uint256"
        },
        {
          "indexed": false,
          "internalType": "uint256",
          "name": "outputAmount",
          "type": "uint256"
        },
        {
          "indexed": false,
          "internalType": "uint256",
          "name": "repaymentChainId",
          "type": "uint256"
        },
        {
          "indexed": true,
          "internalType": "uint256",
          "name": "originChainId",
          "type": "uint256"
        },
        {
          "indexed": true,
          "internalType": "uint32",
          "name": "depositId",
          "type": "uint32"
        },
        {
          "indexed": false,
          "internalType": "uint32",
          "name": "fillDeadline",
          "type": "uint32"
        },
        {
          "indexed": false,
          "internalType": "uint32",
          "name": "exclusivityDeadline",
          "type": "uint32"
        },
        {
          "indexed": false,
          "internalType": "address",
          "name": "exclusiveRelayer",
          "type": "address"
        },
        {
          "indexed": true,
          "internalType": "address",
          "name": "relayer",
          "type": "address"
        },
        {
          "indexed": false,
          "internalType": "address",
          "name": "depositor",
          "type": "address"
        },
        {
          "indexed": false,
          "internalType": "address",
          "name": "recipient",
          "type": "address"
        },
        {
          "indexed": false,
          "internalType": "bytes",
          "name": "message",
          "type": "bytes"
        },
        {
          "components": [
            {
              "internalType": "address",
              "name": "updatedRecipient",
              "type": "address"
            },
            {
              "internalType": "bytes",
              "name": "updatedMessage",
              "type": "bytes"
            },
            {
              "internalType": "uint256",
              "name": "updatedOutputAmount",
              "type": "uint256"
            },
            {
              "internalType": "enum V3SpokePoolInterface.FillType",
              "name": "fillType",
              "type": "uint8"
            }
          ],
          "indexed": false,
          "internalType": "struct V3SpokePoolInterface.LegacyV3RelayExecutionEventInfo",
          "name": "relayExecutionInfo",
          "type": "tuple"
        }
      ],
      "name": "FilledV3Relay",
      "type": "event"
    },
    {
      "anonymous": false,
      "inputs": [
        {
          "indexed": false,
          "internalType": "bytes32",
          "name": "inputToken",
          "type": "bytes32"
        },
        {
          "indexed": false,
          "internalType": "bytes32",
          "name": "outputToken",
          "type": "bytes32"
        },
        {
          "indexed": false,
          "internalType": "uint256",
          "name": "inputAmount",
          "type": "uint256"
        },
        {
          "indexed": false,
          "internalType": "uint256",
          "name": "outputAmount",
          "type": "uint256"
        },
        {
          "indexed": true,
          "internalType": "uint256",
          "name": "destinationChainId",
          "type": "uint256"
        },
        {
          "indexed": true,
          "internalType": "uint256",
          "name": "depositId",
          "type": "uint256"
        },
        {
          "indexed": false,
          "internalType": "uint32",
          "name": "quoteTimestamp",
          "type": "uint32"
        },
        {
          "indexed": false,
          "internalType": "uint32",
          "name": "fillDeadline",
          "type": "uint32"
        },
        {
          "indexed": false,
          "internalType": "uint32",
          "name": "exclusivityDeadline",
          "type": "uint32"
        },
        {
          "indexed": true,
          "internalType": "bytes32",
          "name": "depositor",
          "type": "bytes32"
        },
        {
          "indexed": false,
          "internalType": "bytes32",
          "name": "recipient",
          "type": "bytes32"
        },
        {
          "indexed": false,
          "internalType": "bytes32",
          "name": "exclusiveRelayer",
          "type": "bytes32"
        },
        {
          "indexed": false,
          "internalType": "bytes",
          "name": "message",
          "type": "bytes"
        }
      ],
      "name": "FundsDeposited",
      "type": "event"
    },
    {
      "anonymous": false,
      "inputs": [
        {
          "indexed": false,
          "internalType": "uint8",
          "name": "version",
          "type": "uint8"
        }
      ],
      "name": "Initialized",
      "type": "event"
    },
    {
      "anonymous": false,
      "inputs": [
        {
          "indexed": false,
          "internalType": "bool",
          "name": "isPaused",
          "type": "bool"
        }
      ],
      "name": "PausedDeposits",
      "type": "event"
    },
    {
      "anonymous": false,
      "inputs": [
        {
          "indexed": false,
          "internalType": "bool",
          "name": "isPaused",
          "type": "bool"
        }
      ],
      "name": "PausedFills",
      "type": "event"
    },
    {
      "anonymous": false,
      "inputs": [
        {
          "indexed": true,
          "internalType": "address",
          "name": "caller",
          "type": "address"
        },
        {
          "indexed": true,
          "internalType": "address",
          "name": "rootMessageSender",
          "type": "address"
        }
      ],
      "name": "ReceivedMessageFromL1",
      "type": "event"
    },
    {
      "anonymous": false,
      "inputs": [
        {
          "indexed": true,
          "internalType": "uint32",
          "name": "rootBundleId",
          "type": "uint32"
        },
        {
          "indexed": true,
          "internalType": "bytes32",
          "name": "relayerRefundRoot",
          "type": "bytes32"
        },
        {
          "indexed": true,
          "internalType": "bytes32",
          "name": "slowRelayRoot",
          "type": "bytes32"
        }
      ],
      "name": "RelayedRootBundle",
      "type": "event"
    },
    {
      "anonymous": false,
      "inputs": [
        {
          "indexed": false,
          "internalType": "bytes32",
          "name": "inputToken",
          "type": "bytes32"
        },
        {
          "indexed": false,
          "internalType": "bytes32",
          "name": "outputToken",
          "type": "bytes32"
        },
        {
          "indexed": false,
          "internalType": "uint256",
          "name": "inputAmount",
          "type": "uint256"
        },
        {
          "indexed": false,
          "internalType": "uint256",
          "name": "outputAmount",
          "type": "uint256"
        },
        {
          "indexed": true,
          "internalType": "uint256",
          "name": "originChainId",
          "type": "uint256"
        },
        {
          "indexed": true,
          "internalType": "uint256",
          "name": "depositId",
          "type": "uint256"
        },
        {
          "indexed": false,
          "internalType": "uint32",
          "name": "fillDeadline",
          "type": "uint32"
        },
        {
          "indexed": false,
          "internalType": "uint32",
          "name": "exclusivityDeadline",
          "type": "uint32"
        },
        {
          "indexed": false,
          "internalType": "bytes32",
          "name": "exclusiveRelayer",
          "type": "bytes32"
        },
        {
          "indexed": false,
          "internalType": "bytes32",
          "name": "depositor",
          "type": "bytes32"
        },
        {
          "indexed": false,
          "internalType": "bytes32",
          "name": "recipient",
          "type": "bytes32"
        },
        {
          "indexed": false,
          "internalType": "bytes32",
          "name": "messageHash",
          "type": "bytes32"
        }
      ],
      "name": "RequestedSlowFill",
      "type": "event"
    },
    {
      "anonymous": false,
      "inputs": [
        {
          "indexed": false,
          "internalType": "uint256",
          "name": "updatedOutputAmount",
          "type": "uint256"
        },
        {
          "indexed": true,
          "internalType": "uint256",
          "name": "depositId",
          "type": "uint256"
        },
        {
          "indexed": true,
          "internalType": "bytes32",
          "name": "depositor",
          "type": "bytes32"
        },
        {
          "indexed": false,
          "internalType": "bytes32",
          "name": "updatedRecipient",
          "type": "bytes32"
        },
        {
          "indexed": false,
          "internalType": "bytes",
          "name": "updatedMessage",
          "type": "bytes"
        },
        {
          "indexed": false,
          "internalType": "bytes",
          "name": "depositorSignature",
          "type": "bytes"
        }
      ],
      "name": "RequestedSpeedUpDeposit",
      "type": "event"
    },
    {
      "anonymous": false,
      "inputs": [
        {
          "indexed": false,
          "internalType": "uint256",
          "name": "updatedOutputAmount",
          "type": "uint256"
        },
        {
          "indexed": true,
          "internalType": "uint32",
          "name": "depositId",
          "type": "uint32"
        },
        {
          "indexed": true,
          "internalType": "address",
          "name": "depositor",
          "type": "address"
        },
        {
          "indexed": false,
          "internalType": "address",
          "name": "updatedRecipient",
          "type": "address"
        },
        {
          "indexed": false,
          "internalType": "bytes",
          "name": "updatedMessage",
          "type": "bytes"
        },
        {
          "indexed": false,
          "internalType": "bytes",
          "name": "depositorSignature",
          "type": "bytes"
        }
      ],
      "name": "RequestedSpeedUpV3Deposit",
      "type": "event"
    },
    {
      "anonymous": false,
      "inputs": [
        {
          "indexed": false,
          "internalType": "address",
          "name": "inputToken",
          "type": "address"
        },
        {
          "indexed": false,
          "internalType": "address",
          "name": "outputToken",
          "type": "address"
        },
        {
          "indexed": false,
          "internalType": "uint256",
          "name": "inputAmount",
          "type": "uint256"
        },
        {
          "indexed": false,
          "internalType": "uint256",
          "name": "outputAmount",
          "type": "uint256"
        },
        {
          "indexed": true,
          "internalType": "uint256",
          "name": "originChainId",
          "type": "uint256"
        },
        {
          "indexed": true,
          "internalType": "uint32",
          "name": "depositId",
          "type": "uint32"
        },
        {
          "indexed": false,
          "internalType": "uint32",
          "name": "fillDeadline",
          "type": "uint32"
        },
        {
          "indexed": false,
          "internalType": "uint32",
          "name": "exclusivityDeadline",
          "type": "uint32"
        },
        {
          "indexed": false,
          "internalType": "address",
          "name": "exclusiveRelayer",
          "type": "address"
        },
        {
          "indexed": false,
          "internalType": "address",
          "name": "depositor",
          "type": "address"
        },
        {
          "indexed": false,
          "internalType": "address",
          "name": "recipient",
          "type": "address"
        },
        {
          "indexed": false,
          "internalType": "bytes",
          "name": "message",
          "type": "bytes"
        }
      ],
      "name": "RequestedV3SlowFill",
      "type": "event"
    },
    {
      "anonymous": false,
      "inputs": [
        {
          "indexed": true,
          "internalType": "address",
          "name": "newFxChild",
          "type": "address"
        }
      ],
      "name": "SetFxChild",
      "type": "event"
    },
    {
      "anonymous": false,
      "inputs": [
        {
          "indexed": true,
          "internalType": "address",
          "name": "polygonTokenBridger",
          "type": "address"
        }
      ],
      "name": "SetPolygonTokenBridger",
      "type": "event"
    },
    {
      "anonymous": false,
      "inputs": [
        {
          "indexed": true,
          "internalType": "address",
          "name": "newWithdrawalRecipient",
          "type": "address"
        }
      ],
      "name": "SetWithdrawalRecipient",
      "type": "event"
    },
    {
      "anonymous": false,
      "inputs": [
        {
          "indexed": true,
          "internalType": "address",
          "name": "newAdmin",
          "type": "address"
        }
      ],
      "name": "SetXDomainAdmin",
      "type": "event"
    },
    {
      "anonymous": false,
      "inputs": [
        {
          "indexed": false,
          "internalType": "uint256",
          "name": "amountToReturn",
          "type": "uint256"
        },
        {
          "indexed": true,
          "internalType": "uint256",
          "name": "chainId",
          "type": "uint256"
        },
        {
          "indexed": true,
          "internalType": "uint32",
          "name": "leafId",
          "type": "uint32"
        },
        {
          "indexed": true,
          "internalType": "bytes32",
          "name": "l2TokenAddress",
          "type": "bytes32"
        },
        {
          "indexed": false,
          "internalType": "address",
          "name": "caller",
          "type": "address"
        }
      ],
      "name": "TokensBridged",
      "type": "event"
    },
    {
      "anonymous": false,
      "inputs": [
        {
          "indexed": true,
          "internalType": "address",
          "name": "implementation",
          "type": "address"
        }
      ],
      "name": "Upgraded",
      "type": "event"
    },
    {
      "anonymous": false,
      "inputs": [
        {
          "indexed": false,
          "internalType": "address",
          "name": "inputToken",
          "type": "address"
        },
        {
          "indexed": false,
          "internalType": "address",
          "name": "outputToken",
          "type": "address"
        },
        {
          "indexed": false,
          "internalType": "uint256",
          "name": "inputAmount",
          "type": "uint256"
        },
        {
          "indexed": false,
          "internalType": "uint256",
          "name": "outputAmount",
          "type": "uint256"
        },
        {
          "indexed": true,
          "internalType": "uint256",
          "name": "destinationChainId",
          "type": "uint256"
        },
        {
          "indexed": true,
          "internalType": "uint32",
          "name": "depositId",
          "type": "uint32"
        },
        {
          "indexed": false,
          "internalType": "uint32",
          "name": "quoteTimestamp",
          "type": "uint32"
        },
        {
          "indexed": false,
          "internalType": "uint32",
          "name": "fillDeadline",
          "type": "uint32"
        },
        {
          "indexed": false,
          "internalType": "uint32",
          "name": "exclusivityDeadline",
          "type": "uint32"
        },
        {
          "indexed": true,
          "internalType": "address",
          "name": "depositor",
          "type": "address"
        },
        {
          "indexed": false,
          "internalType": "address",
          "name": "recipient",
          "type": "address"
        },
        {
          "indexed": false,
          "internalType": "address",
          "name": "exclusiveRelayer",
          "type": "address"
        },
        {
          "indexed": false,
          "internalType": "bytes",
          "name": "message",
          "type": "bytes"
        }
      ],
      "name": "V3FundsDeposited",
      "type": "event"
    },
    {
      "inputs": [],
      "name": "EMPTY_RELAYER",
      "outputs": [
        {
          "internalType": "bytes32",
          "name": "",
          "type": "bytes32"
        }
      ],
      "stateMutability": "view",
      "type": "function"
    },
    {
      "inputs": [],
      "name": "EMPTY_REPAYMENT_CHAIN_ID",
      "outputs": [
        {
          "internalType": "uint256",
          "name": "",
          "type": "uint256"
        }
      ],
      "stateMutability": "view",
      "type": "function"
    },
    {
      "inputs": [],
      "name": "INFINITE_FILL_DEADLINE",
      "outputs": [
        {
          "internalType": "uint32",
          "name": "",
          "type": "uint32"
        }
      ],
      "stateMutability": "view",
      "type": "function"
    },
    {
      "inputs": [],
      "name": "MAX_EXCLUSIVITY_PERIOD_SECONDS",
      "outputs": [
        {
          "internalType": "uint32",
          "name": "",
          "type": "uint32"
        }
      ],
      "stateMutability": "view",
      "type": "function"
    },
    {
      "inputs": [],
      "name": "MAX_TRANSFER_SIZE",
      "outputs": [
        {
          "internalType": "uint256",
          "name": "",
          "type": "uint256"
        }
      ],
      "stateMutability": "view",
      "type": "function"
    },
    {
      "inputs": [],
      "name": "UPDATE_ADDRESS_DEPOSIT_DETAILS_HASH",
      "outputs": [
        {
          "internalType": "bytes32",
          "name": "",
          "type": "bytes32"
        }
      ],
      "stateMutability": "view",
      "type": "function"
    },
    {
      "inputs": [],
      "name": "UPDATE_BYTES32_DEPOSIT_DETAILS_HASH",
      "outputs": [
        {
          "internalType": "bytes32",
          "name": "",
          "type": "bytes32"
        }
      ],
      "stateMutability": "view",
      "type": "function"
    },
    {
      "inputs": [
        {
          "internalType": "uint32",
          "name": "_initialDepositId",
          "type": "uint32"
        },
        {
          "internalType": "address",
          "name": "_crossDomainAdmin",
          "type": "address"
        },
        {
          "internalType": "address",
          "name": "_withdrawalRecipient",
          "type": "address"
        }
      ],
      "name": "__SpokePool_init",
      "outputs": [],
      "stateMutability": "nonpayable",
      "type": "function"
    },
    {
      "inputs": [],
      "name": "cctpTokenMessenger",
      "outputs": [
        {
          "internalType": "contract ITokenMessenger",
          "name": "",
          "type": "address"
        }
      ],
      "stateMutability": "view",
      "type": "function"
    },
    {
      "inputs": [],
      "name": "chainId",
      "outputs": [
        {
          "internalType": "uint256",
          "name": "",
          "type": "uint256"
        }
      ],
      "stateMutability": "view",
      "type": "function"
    },
    {
      "inputs": [
        {
          "internalType": "bytes32",
          "name": "l2TokenAddress",
          "type": "bytes32"
        },
        {
          "internalType": "bytes32",
          "name": "refundAddress",
          "type": "bytes32"
        }
      ],
      "name": "claimRelayerRefund",
      "outputs": [],
      "stateMutability": "nonpayable",
      "type": "function"
    },
    {
      "inputs": [],
      "name": "crossDomainAdmin",
      "outputs": [
        {
          "internalType": "address",
          "name": "",
          "type": "address"
        }
      ],
      "stateMutability": "view",
      "type": "function"
    },
    {
      "inputs": [
        {
          "internalType": "bytes32",
          "name": "depositor",
          "type": "bytes32"
        },
        {
          "internalType": "bytes32",
          "name": "recipient",
          "type": "bytes32"
        },
        {
          "internalType": "bytes32",
          "name": "inputToken",
          "type": "bytes32"
        },
        {
          "internalType": "bytes32",
          "name": "outputToken",
          "type": "bytes32"
        },
        {
          "internalType": "uint256",
          "name": "inputAmount",
          "type": "uint256"
        },
        {
          "internalType": "uint256",
          "name": "outputAmount",
          "type": "uint256"
        },
        {
          "internalType": "uint256",
          "name": "destinationChainId",
          "type": "uint256"
        },
        {
          "internalType": "bytes32",
          "name": "exclusiveRelayer",
          "type": "bytes32"
        },
        {
          "internalType": "uint32",
          "name": "quoteTimestamp",
          "type": "uint32"
        },
        {
          "internalType": "uint32",
          "name": "fillDeadline",
          "type": "uint32"
        },
        {
          "internalType": "uint32",
          "name": "exclusivityParameter",
          "type": "uint32"
        },
        {
          "internalType": "bytes",
          "name": "message",
          "type": "bytes"
        }
      ],
      "name": "deposit",
      "outputs": [],
      "stateMutability": "payable",
      "type": "function"
    },
    {
      "inputs": [
        {
          "internalType": "address",
          "name": "recipient",
          "type": "address"
        },
        {
          "internalType": "address",
          "name": "originToken",
          "type": "address"
        },
        {
          "internalType": "uint256",
          "name": "amount",
          "type": "uint256"
        },
        {
          "internalType": "uint256",
          "name": "destinationChainId",
          "type": "uint256"
        },
        {
          "internalType": "int64",
          "name": "relayerFeePct",
          "type": "int64"
        },
        {
          "internalType": "uint32",
          "name": "quoteTimestamp",
          "type": "uint32"
        },
        {
          "internalType": "bytes",
          "name": "message",
          "type": "bytes"
        },
        {
          "internalType": "uint256",
          "name": "",
          "type": "uint256"
        }
      ],
      "name": "depositDeprecated_5947912356",
      "outputs": [],
      "stateMutability": "payable",
      "type": "function"
    },
    {
      "inputs": [
        {
          "internalType": "address",
          "name": "depositor",
          "type": "address"
        },
        {
          "internalType": "address",
          "name": "recipient",
          "type": "address"
        },
        {
          "internalType": "address",
          "name": "originToken",
          "type": "address"
        },
        {
          "internalType": "uint256",
          "name": "amount",
          "type": "uint256"
        },
        {
          "internalType": "uint256",
          "name": "destinationChainId",
          "type": "uint256"
        },
        {
          "internalType": "int64",
          "name": "relayerFeePct",
          "type": "int64"
        },
        {
          "internalType": "uint32",
          "name": "quoteTimestamp",
          "type": "uint32"
        },
        {
          "internalType": "bytes",
          "name": "message",
          "type": "bytes"
        },
        {
          "internalType": "uint256",
          "name": "",
          "type": "uint256"
        }
      ],
      "name": "depositFor",
      "outputs": [],
      "stateMutability": "payable",
      "type": "function"
    },
    {
      "inputs": [
        {
          "internalType": "bytes32",
          "name": "depositor",
          "type": "bytes32"
        },
        {
          "internalType": "bytes32",
          "name": "recipient",
          "type": "bytes32"
        },
        {
          "internalType": "bytes32",
          "name": "inputToken",
          "type": "bytes32"
        },
        {
          "internalType": "bytes32",
          "name": "outputToken",
          "type": "bytes32"
        },
        {
          "internalType": "uint256",
          "name": "inputAmount",
          "type": "uint256"
        },
        {
          "internalType": "uint256",
          "name": "outputAmount",
          "type": "uint256"
        },
        {
          "internalType": "uint256",
          "name": "destinationChainId",
          "type": "uint256"
        },
        {
          "internalType": "bytes32",
          "name": "exclusiveRelayer",
          "type": "bytes32"
        },
        {
          "internalType": "uint32",
          "name": "fillDeadlineOffset",
          "type": "uint32"
        },
        {
          "internalType": "uint32",
          "name": "exclusivityParameter",
          "type": "uint32"
        },
        {
          "internalType": "bytes",
          "name": "message",
          "type": "bytes"
        }
      ],
      "name": "depositNow",
      "outputs": [],
      "stateMutability": "payable",
      "type": "function"
    },
    {
      "inputs": [],
      "name": "depositQuoteTimeBuffer",
      "outputs": [
        {
          "internalType": "uint32",
          "name": "",
          "type": "uint32"
        }
      ],
      "stateMutability": "view",
      "type": "function"
    },
    {
      "inputs": [
        {
          "internalType": "address",
          "name": "depositor",
          "type": "address"
        },
        {
          "internalType": "address",
          "name": "recipient",
          "type": "address"
        },
        {
          "internalType": "address",
          "name": "inputToken",
          "type": "address"
        },
        {
          "internalType": "address",
          "name": "outputToken",
          "type": "address"
        },
        {
          "internalType": "uint256",
          "name": "inputAmount",
          "type": "uint256"
        },
        {
          "internalType": "uint256",
          "name": "outputAmount",
          "type": "uint256"
        },
        {
          "internalType": "uint256",
          "name": "destinationChainId",
          "type": "uint256"
        },
        {
          "internalType": "address",
          "name": "exclusiveRelayer",
          "type": "address"
        },
        {
          "internalType": "uint32",
          "name": "quoteTimestamp",
          "type": "uint32"
        },
        {
          "internalType": "uint32",
          "name": "fillDeadline",
          "type": "uint32"
        },
        {
          "internalType": "uint32",
          "name": "exclusivityParameter",
          "type": "uint32"
        },
        {
          "internalType": "bytes",
          "name": "message",
          "type": "bytes"
        }
      ],
      "name": "depositV3",
      "outputs": [],
      "stateMutability": "payable",
      "type": "function"
    },
    {
      "inputs": [
        {
          "internalType": "address",
          "name": "depositor",
          "type": "address"
        },
        {
          "internalType": "address",
          "name": "recipient",
          "type": "address"
        },
        {
          "internalType": "address",
          "name": "inputToken",
          "type": "address"
        },
        {
          "internalType": "address",
          "name": "outputToken",
          "type": "address"
        },
        {
          "internalType": "uint256",
          "name": "inputAmount",
          "type": "uint256"
        },
        {
          "internalType": "uint256",
          "name": "outputAmount",
          "type": "uint256"
        },
        {
          "internalType": "uint256",
          "name": "destinationChainId",
          "type": "uint256"
        },
        {
          "internalType": "address",
          "name": "exclusiveRelayer",
          "type": "address"
        },
        {
          "internalType": "uint32",
          "name": "fillDeadlineOffset",
          "type": "uint32"
        },
        {
          "internalType": "uint32",
          "name": "exclusivityParameter",
          "type": "uint32"
        },
        {
          "internalType": "bytes",
          "name": "message",
          "type": "bytes"
        }
      ],
      "name": "depositV3Now",
      "outputs": [],
      "stateMutability": "payable",
      "type": "function"
    },
    {
      "inputs": [
        {
          "internalType": "uint256",
          "name": "rootBundleId",
          "type": "uint256"
        }
      ],
      "name": "emergencyDeleteRootBundle",
      "outputs": [],
      "stateMutability": "nonpayable",
      "type": "function"
    },
    {
      "inputs": [
        {
          "internalType": "address",
          "name": "",
          "type": "address"
        },
        {
          "internalType": "uint256",
          "name": "",
          "type": "uint256"
        }
      ],
      "name": "enabledDepositRoutes",
      "outputs": [
        {
          "internalType": "bool",
          "name": "",
          "type": "bool"
        }
      ],
      "stateMutability": "view",
      "type": "function"
    },
    {
      "inputs": [
        {
          "internalType": "uint32",
          "name": "rootBundleId",
          "type": "uint32"
        },
        {
          "components": [
            {
              "internalType": "uint256",
              "name": "amountToReturn",
              "type": "uint256"
            },
            {
              "internalType": "uint256",
              "name": "chainId",
              "type": "uint256"
            },
            {
              "internalType": "uint256[]",
              "name": "refundAmounts",
              "type": "uint256[]"
            },
            {
              "internalType": "uint32",
              "name": "leafId",
              "type": "uint32"
            },
            {
              "internalType": "address",
              "name": "l2TokenAddress",
              "type": "address"
            },
            {
              "internalType": "address[]",
              "name": "refundAddresses",
              "type": "address[]"
            }
          ],
          "internalType": "struct SpokePoolInterface.RelayerRefundLeaf",
          "name": "relayerRefundLeaf",
          "type": "tuple"
        },
        {
          "internalType": "bytes32[]",
          "name": "proof",
          "type": "bytes32[]"
        }
      ],
      "name": "executeRelayerRefundLeaf",
      "outputs": [],
      "stateMutability": "payable",
      "type": "function"
    },
    {
      "inputs": [
        {
          "components": [
            {
              "components": [
                {
                  "internalType": "bytes32",
                  "name": "depositor",
                  "type": "bytes32"
                },
                {
                  "internalType": "bytes32",
                  "name": "recipient",
                  "type": "bytes32"
                },
                {
                  "internalType": "bytes32",
                  "name": "exclusiveRelayer",
                  "type": "bytes32"
                },
                {
                  "internalType": "bytes32",
                  "name": "inputToken",
                  "type": "bytes32"
                },
                {
                  "internalType": "bytes32",
                  "name": "outputToken",
                  "type": "bytes32"
                },
                {
                  "internalType": "uint256",
                  "name": "inputAmount",
                  "type": "uint256"
                },
                {
                  "internalType": "uint256",
                  "name": "outputAmount",
                  "type": "uint256"
                },
                {
                  "internalType": "uint256",
                  "name": "originChainId",
                  "type": "uint256"
                },
                {
                  "internalType": "uint256",
                  "name": "depositId",
                  "type": "uint256"
                },
                {
                  "internalType": "uint32",
                  "name": "fillDeadline",
                  "type": "uint32"
                },
                {
                  "internalType": "uint32",
                  "name": "exclusivityDeadline",
                  "type": "uint32"
                },
                {
                  "internalType": "bytes",
                  "name": "message",
                  "type": "bytes"
                }
              ],
              "internalType": "struct V3SpokePoolInterface.V3RelayData",
              "name": "relayData",
              "type": "tuple"
            },
            {
              "internalType": "uint256",
              "name": "chainId",
              "type": "uint256"
            },
            {
              "internalType": "uint256",
              "name": "updatedOutputAmount",
              "type": "uint256"
            }
          ],
          "internalType": "struct V3SpokePoolInterface.V3SlowFill",
          "name": "slowFillLeaf",
          "type": "tuple"
        },
        {
          "internalType": "uint32",
          "name": "rootBundleId",
          "type": "uint32"
        },
        {
          "internalType": "bytes32[]",
          "name": "proof",
          "type": "bytes32[]"
        }
      ],
      "name": "executeSlowRelayLeaf",
      "outputs": [],
      "stateMutability": "nonpayable",
      "type": "function"
    },
    {
      "inputs": [
        {
          "internalType": "bytes32",
          "name": "orderId",
          "type": "bytes32"
        },
        {
          "internalType": "bytes",
          "name": "originData",
          "type": "bytes"
        },
        {
          "internalType": "bytes",
          "name": "fillerData",
          "type": "bytes"
        }
      ],
      "name": "fill",
      "outputs": [],
      "stateMutability": "nonpayable",
      "type": "function"
    },
    {
      "inputs": [],
      "name": "fillDeadlineBuffer",
      "outputs": [
        {
          "internalType": "uint32",
          "name": "",
          "type": "uint32"
        }
      ],
      "stateMutability": "view",
      "type": "function"
    },
    {
      "inputs": [
        {
          "components": [
            {
              "internalType": "bytes32",
              "name": "depositor",
              "type": "bytes32"
            },
            {
              "internalType": "bytes32",
              "name": "recipient",
              "type": "bytes32"
            },
            {
              "internalType": "bytes32",
              "name": "exclusiveRelayer",
              "type": "bytes32"
            },
            {
              "internalType": "bytes32",
              "name": "inputToken",
              "type": "bytes32"
            },
            {
              "internalType": "bytes32",
              "name": "outputToken",
              "type": "bytes32"
            },
            {
              "internalType": "uint256",
              "name": "inputAmount",
              "type": "uint256"
            },
            {
              "internalType": "uint256",
              "name": "outputAmount",
              "type": "uint256"
            },
            {
              "internalType": "uint256",
              "name": "originChainId",
              "type": "uint256"
            },
            {
              "internalType": "uint256",
              "name": "depositId",
              "type": "uint256"
            },
            {
              "internalType": "uint32",
              "name": "fillDeadline",
              "type": "uint32"
            },
            {
              "internalType": "uint32",
              "name": "exclusivityDeadline",
              "type": "uint32"
            },
            {
              "internalType": "bytes",
              "name": "message",
              "type": "bytes"
            }
          ],
          "internalType": "struct V3SpokePoolInterface.V3RelayData",
          "name": "relayData",
          "type": "tuple"
        },
        {
          "internalType": "uint256",
          "name": "repaymentChainId",
          "type": "uint256"
        },
        {
          "internalType": "bytes32",
          "name": "repaymentAddress",
          "type": "bytes32"
        }
      ],
      "name": "fillRelay",
      "outputs": [],
      "stateMutability": "nonpayable",
      "type": "function"
    },
    {
      "inputs": [
        {
          "components": [
            {
              "internalType": "bytes32",
              "name": "depositor",
              "type": "bytes32"
            },
            {
              "internalType": "bytes32",
              "name": "recipient",
              "type": "bytes32"
            },
            {
              "internalType": "bytes32",
              "name": "exclusiveRelayer",
              "type": "bytes32"
            },
            {
              "internalType": "bytes32",
              "name": "inputToken",
              "type": "bytes32"
            },
            {
              "internalType": "bytes32",
              "name": "outputToken",
              "type": "bytes32"
            },
            {
              "internalType": "uint256",
              "name": "inputAmount",
              "type": "uint256"
            },
            {
              "internalType": "uint256",
              "name": "outputAmount",
              "type": "uint256"
            },
            {
              "internalType": "uint256",
              "name": "originChainId",
              "type": "uint256"
            },
            {
              "internalType": "uint256",
              "name": "depositId",
              "type": "uint256"
            },
            {
              "internalType": "uint32",
              "name": "fillDeadline",
              "type": "uint32"
            },
            {
              "internalType": "uint32",
              "name": "exclusivityDeadline",
              "type": "uint32"
            },
            {
              "internalType": "bytes",
              "name": "message",
              "type": "bytes"
            }
          ],
          "internalType": "struct V3SpokePoolInterface.V3RelayData",
          "name": "relayData",
          "type": "tuple"
        },
        {
          "internalType": "uint256",
          "name": "repaymentChainId",
          "type": "uint256"
        },
        {
          "internalType": "bytes32",
          "name": "repaymentAddress",
          "type": "bytes32"
        },
        {
          "internalType": "uint256",
          "name": "updatedOutputAmount",
          "type": "uint256"
        },
        {
          "internalType": "bytes32",
          "name": "updatedRecipient",
          "type": "bytes32"
        },
        {
          "internalType": "bytes",
          "name": "updatedMessage",
          "type": "bytes"
        },
        {
          "internalType": "bytes",
          "name": "depositorSignature",
          "type": "bytes"
        }
      ],
      "name": "fillRelayWithUpdatedDeposit",
      "outputs": [],
      "stateMutability": "nonpayable",
      "type": "function"
    },
    {
      "inputs": [
        {
          "internalType": "bytes32",
          "name": "",
          "type": "bytes32"
        }
      ],
      "name": "fillStatuses",
      "outputs": [
        {
          "internalType": "uint256",
          "name": "",
          "type": "uint256"
        }
      ],
      "stateMutability": "view",
      "type": "function"
    },
    {
      "inputs": [
        {
          "components": [
            {
              "internalType": "address",
              "name": "depositor",
              "type": "address"
            },
            {
              "internalType": "address",
              "name": "recipient",
              "type": "address"
            },
            {
              "internalType": "address",
              "name": "exclusiveRelayer",
              "type": "address"
            },
            {
              "internalType": "address",
              "name": "inputToken",
              "type": "address"
            },
            {
              "internalType": "address",
              "name": "outputToken",
              "type": "address"
            },
            {
              "internalType": "uint256",
              "name": "inputAmount",
              "type": "uint256"
            },
            {
              "internalType": "uint256",
              "name": "outputAmount",
              "type": "uint256"
            },
            {
              "internalType": "uint256",
              "name": "originChainId",
              "type": "uint256"
            },
            {
              "internalType": "uint32",
              "name": "depositId",
              "type": "uint32"
            },
            {
              "internalType": "uint32",
              "name": "fillDeadline",
              "type": "uint32"
            },
            {
              "internalType": "uint32",
              "name": "exclusivityDeadline",
              "type": "uint32"
            },
            {
              "internalType": "bytes",
              "name": "message",
              "type": "bytes"
            }
          ],
          "internalType": "struct V3SpokePoolInterface.V3RelayDataLegacy",
          "name": "relayData",
          "type": "tuple"
        },
        {
          "internalType": "uint256",
          "name": "repaymentChainId",
          "type": "uint256"
        }
      ],
      "name": "fillV3Relay",
      "outputs": [],
      "stateMutability": "nonpayable",
      "type": "function"
    },
    {
      "inputs": [],
      "name": "fxChild",
      "outputs": [
        {
          "internalType": "address",
          "name": "",
          "type": "address"
        }
      ],
      "stateMutability": "view",
      "type": "function"
    },
    {
      "inputs": [],
      "name": "getCurrentTime",
      "outputs": [
        {
          "internalType": "uint256",
          "name": "",
          "type": "uint256"
        }
      ],
      "stateMutability": "view",
      "type": "function"
    },
    {
      "inputs": [
        {
          "internalType": "address",
          "name": "l2TokenAddress",
          "type": "address"
        },
        {
          "internalType": "address",
          "name": "refundAddress",
          "type": "address"
        }
      ],
      "name": "getRelayerRefund",
      "outputs": [
        {
          "internalType": "uint256",
          "name": "",
          "type": "uint256"
        }
      ],
      "stateMutability": "view",
      "type": "function"
    },
    {
      "inputs": [
        {
          "internalType": "address",
          "name": "msgSender",
          "type": "address"
        },
        {
          "internalType": "bytes32",
          "name": "depositor",
          "type": "bytes32"
        },
        {
          "internalType": "uint256",
          "name": "depositNonce",
          "type": "uint256"
        }
      ],
      "name": "getUnsafeDepositId",
      "outputs": [
        {
          "internalType": "uint256",
          "name": "",
          "type": "uint256"
        }
      ],
      "stateMutability": "pure",
      "type": "function"
    },
    {
      "inputs": [
        {
          "components": [
            {
              "internalType": "bytes32",
              "name": "depositor",
              "type": "bytes32"
            },
            {
              "internalType": "bytes32",
              "name": "recipient",
              "type": "bytes32"
            },
            {
              "internalType": "bytes32",
              "name": "exclusiveRelayer",
              "type": "bytes32"
            },
            {
              "internalType": "bytes32",
              "name": "inputToken",
              "type": "bytes32"
            },
            {
              "internalType": "bytes32",
              "name": "outputToken",
              "type": "bytes32"
            },
            {
              "internalType": "uint256",
              "name": "inputAmount",
              "type": "uint256"
            },
            {
              "internalType": "uint256",
              "name": "outputAmount",
              "type": "uint256"
            },
            {
              "internalType": "uint256",
              "name": "originChainId",
              "type": "uint256"
            },
            {
              "internalType": "uint256",
              "name": "depositId",
              "type": "uint256"
            },
            {
              "internalType": "uint32",
              "name": "fillDeadline",
              "type": "uint32"
            },
            {
              "internalType": "uint32",
              "name": "exclusivityDeadline",
              "type": "uint32"
            },
            {
              "internalType": "bytes",
              "name": "message",
              "type": "bytes"
            }
          ],
          "internalType": "struct V3SpokePoolInterface.V3RelayData",
          "name": "relayData",
          "type": "tuple"
        }
      ],
      "name": "getV3RelayHash",
      "outputs": [
        {
          "internalType": "bytes32",
          "name": "",
          "type": "bytes32"
        }
      ],
      "stateMutability": "view",
      "type": "function"
    },
    {
      "inputs": [
        {
          "internalType": "uint32",
          "name": "_initialDepositId",
          "type": "uint32"
        },
        {
          "internalType": "contract PolygonTokenBridger",
          "name": "_polygonTokenBridger",
          "type": "address"
        },
        {
          "internalType": "address",
          "name": "_crossDomainAdmin",
          "type": "address"
        },
        {
          "internalType": "address",
          "name": "_withdrawalRecipient",
          "type": "address"
        },
        {
          "internalType": "address",
          "name": "_fxChild",
          "type": "address"
        }
      ],
      "name": "initialize",
      "outputs": [],
      "stateMutability": "nonpayable",
      "type": "function"
    },
    {
      "inputs": [
        {
          "internalType": "bytes[]",
          "name": "data",
          "type": "bytes[]"
        }
      ],
      "name": "multicall",
      "outputs": [
        {
          "internalType": "bytes[]",
          "name": "results",
          "type": "bytes[]"
        }
      ],
      "stateMutability": "nonpayable",
      "type": "function"
    },
    {
      "inputs": [],
      "name": "numberOfDeposits",
      "outputs": [
        {
          "internalType": "uint32",
          "name": "",
          "type": "uint32"
        }
      ],
      "stateMutability": "view",
      "type": "function"
    },
    {
      "inputs": [
        {
          "internalType": "bool",
          "name": "pause",
          "type": "bool"
        }
      ],
      "name": "pauseDeposits",
      "outputs": [],
      "stateMutability": "nonpayable",
      "type": "function"
    },
    {
      "inputs": [
        {
          "internalType": "bool",
          "name": "pause",
          "type": "bool"
        }
      ],
      "name": "pauseFills",
      "outputs": [],
      "stateMutability": "nonpayable",
      "type": "function"
    },
    {
      "inputs": [],
      "name": "pausedDeposits",
      "outputs": [
        {
          "internalType": "bool",
          "name": "",
          "type": "bool"
        }
      ],
      "stateMutability": "view",
      "type": "function"
    },
    {
      "inputs": [],
      "name": "pausedFills",
      "outputs": [
        {
          "internalType": "bool",
          "name": "",
          "type": "bool"
        }
      ],
      "stateMutability": "view",
      "type": "function"
    },
    {
      "inputs": [],
      "name": "polygonTokenBridger",
      "outputs": [
        {
          "internalType": "contract PolygonTokenBridger",
          "name": "",
          "type": "address"
        }
      ],
      "stateMutability": "view",
      "type": "function"
    },
    {
      "inputs": [
        {
          "internalType": "uint256",
          "name": "",
          "type": "uint256"
        },
        {
          "internalType": "address",
          "name": "rootMessageSender",
          "type": "address"
        },
        {
          "internalType": "bytes",
          "name": "data",
          "type": "bytes"
        }
      ],
      "name": "processMessageFromRoot",
      "outputs": [],
      "stateMutability": "nonpayable",
      "type": "function"
    },
    {
      "inputs": [],
      "name": "proxiableUUID",
      "outputs": [
        {
          "internalType": "bytes32",
          "name": "",
          "type": "bytes32"
        }
      ],
      "stateMutability": "view",
      "type": "function"
    },
    {
      "inputs": [],
      "name": "recipientCircleDomainId",
      "outputs": [
        {
          "internalType": "uint32",
          "name": "",
          "type": "uint32"
        }
      ],
      "stateMutability": "view",
      "type": "function"
    },
    {
      "inputs": [
        {
          "internalType": "bytes32",
          "name": "relayerRefundRoot",
          "type": "bytes32"
        },
        {
          "internalType": "bytes32",
          "name": "slowRelayRoot",
          "type": "bytes32"
        }
      ],
      "name": "relayRootBundle",
      "outputs": [],
      "stateMutability": "nonpayable",
      "type": "function"
    },
    {
      "inputs": [
        {
          "internalType": "address",
          "name": "",
          "type": "address"
        },
        {
          "internalType": "address",
          "name": "",
          "type": "address"
        }
      ],
      "name": "relayerRefund",
      "outputs": [
        {
          "internalType": "uint256",
          "name": "",
          "type": "uint256"
        }
      ],
      "stateMutability": "view",
      "type": "function"
    },
    {
      "inputs": [
        {
          "components": [
            {
              "internalType": "bytes32",
              "name": "depositor",
              "type": "bytes32"
            },
            {
              "internalType": "bytes32",
              "name": "recipient",
              "type": "bytes32"
            },
            {
              "internalType": "bytes32",
              "name": "exclusiveRelayer",
              "type": "bytes32"
            },
            {
              "internalType": "bytes32",
              "name": "inputToken",
              "type": "bytes32"
            },
            {
              "internalType": "bytes32",
              "name": "outputToken",
              "type": "bytes32"
            },
            {
              "internalType": "uint256",
              "name": "inputAmount",
              "type": "uint256"
            },
            {
              "internalType": "uint256",
              "name": "outputAmount",
              "type": "uint256"
            },
            {
              "internalType": "uint256",
              "name": "originChainId",
              "type": "uint256"
            },
            {
              "internalType": "uint256",
              "name": "depositId",
              "type": "uint256"
            },
            {
              "internalType": "uint32",
              "name": "fillDeadline",
              "type": "uint32"
            },
            {
              "internalType": "uint32",
              "name": "exclusivityDeadline",
              "type": "uint32"
            },
            {
              "internalType": "bytes",
              "name": "message",
              "type": "bytes"
            }
          ],
          "internalType": "struct V3SpokePoolInterface.V3RelayData",
          "name": "relayData",
          "type": "tuple"
        }
      ],
      "name": "requestSlowFill",
      "outputs": [],
      "stateMutability": "nonpayable",
      "type": "function"
    },
    {
      "inputs": [
        {
          "internalType": "uint256",
          "name": "",
          "type": "uint256"
        }
      ],
      "name": "rootBundles",
      "outputs": [
        {
          "internalType": "bytes32",
          "name": "slowRelayRoot",
          "type": "bytes32"
        },
        {
          "internalType": "bytes32",
          "name": "relayerRefundRoot",
          "type": "bytes32"
        }
      ],
      "stateMutability": "view",
      "type": "function"
    },
    {
      "inputs": [
        {
          "internalType": "address",
          "name": "newCrossDomainAdmin",
          "type": "address"
        }
      ],
      "name": "setCrossDomainAdmin",
      "outputs": [],
      "stateMutability": "nonpayable",
      "type": "function"
    },
    {
      "inputs": [
        {
          "internalType": "address",
          "name": "originToken",
          "type": "address"
        },
        {
          "internalType": "uint256",
          "name": "destinationChainId",
          "type": "uint256"
        },
        {
          "internalType": "bool",
          "name": "enabled",
          "type": "bool"
        }
      ],
      "name": "setEnableRoute",
      "outputs": [],
      "stateMutability": "nonpayable",
      "type": "function"
    },
    {
      "inputs": [
        {
          "internalType": "address",
          "name": "newFxChild",
          "type": "address"
        }
      ],
      "name": "setFxChild",
      "outputs": [],
      "stateMutability": "nonpayable",
      "type": "function"
    },
    {
      "inputs": [
        {
          "internalType": "address payable",
          "name": "newPolygonTokenBridger",
          "type": "address"
        }
      ],
      "name": "setPolygonTokenBridger",
      "outputs": [],
      "stateMutability": "nonpayable",
      "type": "function"
    },
    {
      "inputs": [
        {
          "internalType": "address",
          "name": "newWithdrawalRecipient",
          "type": "address"
        }
      ],
      "name": "setWithdrawalRecipient",
      "outputs": [],
      "stateMutability": "nonpayable",
      "type": "function"
    },
    {
      "inputs": [
        {
          "internalType": "bytes32",
          "name": "depositor",
          "type": "bytes32"
        },
        {
          "internalType": "uint256",
          "name": "depositId",
          "type": "uint256"
        },
        {
          "internalType": "uint256",
          "name": "updatedOutputAmount",
          "type": "uint256"
        },
        {
          "internalType": "bytes32",
          "name": "updatedRecipient",
          "type": "bytes32"
        },
        {
          "internalType": "bytes",
          "name": "updatedMessage",
          "type": "bytes"
        },
        {
          "internalType": "bytes",
          "name": "depositorSignature",
          "type": "bytes"
        }
      ],
      "name": "speedUpDeposit",
      "outputs": [],
      "stateMutability": "nonpayable",
      "type": "function"
    },
    {
      "inputs": [
        {
          "internalType": "address",
          "name": "depositor",
          "type": "address"
        },
        {
          "internalType": "uint256",
          "name": "depositId",
          "type": "uint256"
        },
        {
          "internalType": "uint256",
          "name": "updatedOutputAmount",
          "type": "uint256"
        },
        {
          "internalType": "address",
          "name": "updatedRecipient",
          "type": "address"
        },
        {
          "internalType": "bytes",
          "name": "updatedMessage",
          "type": "bytes"
        },
        {
          "internalType": "bytes",
          "name": "depositorSignature",
          "type": "bytes"
        }
      ],
      "name": "speedUpV3Deposit",
      "outputs": [],
      "stateMutability": "nonpayable",
      "type": "function"
    },
    {
      "inputs": [
        {
          "internalType": "bytes[]",
          "name": "data",
          "type": "bytes[]"
        }
      ],
      "name": "tryMulticall",
      "outputs": [
        {
          "components": [
            {
              "internalType": "bool",
              "name": "success",
              "type": "bool"
            },
            {
              "internalType": "bytes",
              "name": "returnData",
              "type": "bytes"
            }
          ],
          "internalType": "struct MultiCallerUpgradeable.Result[]",
          "name": "results",
          "type": "tuple[]"
        }
      ],
      "stateMutability": "nonpayable",
      "type": "function"
    },
    {
      "inputs": [
        {
          "internalType": "bytes32",
          "name": "depositor",
          "type": "bytes32"
        },
        {
          "internalType": "bytes32",
          "name": "recipient",
          "type": "bytes32"
        },
        {
          "internalType": "bytes32",
          "name": "inputToken",
          "type": "bytes32"
        },
        {
          "internalType": "bytes32",
          "name": "outputToken",
          "type": "bytes32"
        },
        {
          "internalType": "uint256",
          "name": "inputAmount",
          "type": "uint256"
        },
        {
          "internalType": "uint256",
          "name": "outputAmount",
          "type": "uint256"
        },
        {
          "internalType": "uint256",
          "name": "destinationChainId",
          "type": "uint256"
        },
        {
          "internalType": "bytes32",
          "name": "exclusiveRelayer",
          "type": "bytes32"
        },
        {
          "internalType": "uint256",
          "name": "depositNonce",
          "type": "uint256"
        },
        {
          "internalType": "uint32",
          "name": "quoteTimestamp",
          "type": "uint32"
        },
        {
          "internalType": "uint32",
          "name": "fillDeadline",
          "type": "uint32"
        },
        {
          "internalType": "uint32",
          "name": "exclusivityParameter",
          "type": "uint32"
        },
        {
          "internalType": "bytes",
          "name": "message",
          "type": "bytes"
        }
      ],
      "name": "unsafeDeposit",
      "outputs": [],
      "stateMutability": "payable",
      "type": "function"
    },
    {
      "inputs": [
        {
          "internalType": "address",
          "name": "newImplementation",
          "type": "address"
        }
      ],
      "name": "upgradeTo",
      "outputs": [],
      "stateMutability": "nonpayable",
      "type": "function"
    },
    {
      "inputs": [
        {
          "internalType": "address",
          "name": "newImplementation",
          "type": "address"
        },
        {
          "internalType": "bytes",
          "name": "data",
          "type": "bytes"
        }
      ],
      "name": "upgradeToAndCall",
      "outputs": [],
      "stateMutability": "payable",
      "type": "function"
    },
    {
      "inputs": [],
      "name": "usdcToken",
      "outputs": [
        {
          "internalType": "contract IERC20",
          "name": "",
          "type": "address"
        }
      ],
      "stateMutability": "view",
      "type": "function"
    },
    {
      "inputs": [],
      "name": "withdrawalRecipient",
      "outputs": [
        {
          "internalType": "address",
          "name": "",
          "type": "address"
        }
      ],
      "stateMutability": "view",
      "type": "function"
    },
    {
      "inputs": [],
      "name": "wrap",
      "outputs": [],
      "stateMutability": "nonpayable",
      "type": "function"
    },
    {
      "inputs": [],
      "name": "wrappedNativeToken",
      "outputs": [
        {
          "internalType": "contract WETH9Interface",
          "name": "",
          "type": "address"
        }
      ],
      "stateMutability": "view",
      "type": "function"
    },
    {
      "stateMutability": "payable",
      "type": "receive"
    }
  ],
  "numDeployments": 11,
  "solcInputHash": "eea2df5b63f61c7babf22e32933d54cc",
  "bytecode": "0x61016034620001cd57601f62006a6c38819003918201601f19168301916001600160401b03831184841017620001d15780849260a094604052833981010312620001cd5780516001600160a01b03919082811690819003620001cd576200006960208301620001e5565b6200007760408401620001e5565b916060840151938585168503620001cd57608001519485168503620001cd573060805260a05260c05260e0525f5460ff8160081c16620001cd5760ff8082160362000192575b50610120908152610140918252610100915f8352604051916168749384620001f88539608051848181611315015281816118670152611a7b015260a0518481816109210152818161452301528181614bd401528181614ebc015281816152fe0152818161583301528181615d500152615d77015260c051848181611dca015281816144ca015261557e015260e05184818161045c015261529f015251838181611ec401526165dc0152518281816108280152818161638a01526164d40152518181816124c40152818161626601526164f70152f35b60ff90811916175f557f7f26b83ff96e1f2b6a682f133852f6798a09c465da95921460cefb3847402498602060405160ff8152a15f620000bd565b5f80fd5b634e487b7160e01b5f52604160045260245ffd5b519063ffffffff82168203620001cd5756fe6080604052600436101561001a575b3615610018575f80fd5b005b5f3560e01c8063079bd2c71461040f5780631186ec331461040a57806311eac8551461040557806313fb77ee1461040057806315348e441461038857806317fcb39b146103fb5780631b3d5559146103f65780631fab657c146103f1578063272751c7146103ec57806329cb924d146103e75780632e378115146103e25780632e63e59a146103dd57806333a84ff0146103d85780633659cfe6146103d35780633edb89d1146103ce578063437b9116146103c9578063450d11f0146103c4578063490e49ef146103bf578063493a4f84146103ba5780634f1ef286146103b55780635249fef1146103b05780635285e058146103ab57806352d1902d146103a6578063541f4f14146103a1578063577f51f81461039c57806357f6dcb8146103975780636068d6cb14610392578063670fa8ac1461038d5780636bbbcd2e146103885780636e40098314610383578063738b62e51461037e5780637aef642c146103795780637b939232146103745780637ef413e11461036f57806382e2c43f1461036a5780638a7860ce146103655780638b15788e146103605780639748cf7c1461035b57806397943aa914610356578063979f2bc21461035157806399cc29681461034c5780639a7c4b71146103475780639a8a059214610342578063a1244c671461033d578063a18a096e14610338578063ac9650d814610333578063ad5425c61461032e578063adb5a6a6146102e3578063b370b7f514610329578063b86cfdcf14610324578063babb6aac1461031f578063c35c83fc1461031a578063ceb4c98714610315578063d46eb11914610310578063d7e1583a1461030b578063dda5211314610306578063ddd224f114610301578063de7eba78146102fc578063deff4b24146102f7578063ea86bd46146102f2578063ee2a53f8146102ed578063f2c20924146102e8578063f79f29ed146102e35763fc8a584f0361000e57613829565b612ea8565b61369b565b61363f565b613505565b6133b5565b613367565b613320565b6132dc565b613288565b61316e565b613132565b6130e9565b612fe7565b612f94565b612f42565b612d21565b612c77565b612a94565b612a4f565b612a17565b6127d0565b612704565b612586565b6124e8565b61247a565b6123de565b61232f565b61218e565b612139565b612073565b611fb5565b611ee8565b611e8a565b61089f565b611e32565b611dee565b611d90565b611bac565b611acb565b611a36565b6119e4565b61196b565b6117f9565b611754565b611718565b6116c6565b6115d1565b611438565b6112c2565b61126a565b610fed565b610e2e565b610de7565b610cff565b610bb7565b610a90565b6108d7565b61084c565b6107de565b610707565b610422565b5f91031261041e57565b5f80fd5b3461041e575f7ffffffffffffffffffffffffffffffffffffffffffffffffffffffffffffffffc36011261041e57602060405163ffffffff7f0000000000000000000000000000000000000000000000000000000000000000168152f35b73ffffffffffffffffffffffffffffffffffffffff81160361041e57565b35906104a982610480565b565b63ffffffff81160361041e57565b61014435906104a9826104ab565b35906104a9826104ab565b7f4e487b71000000000000000000000000000000000000000000000000000000005f52604160045260245ffd5b6040810190811067ffffffffffffffff82111761051b57604052565b6104d2565b6101a0810190811067ffffffffffffffff82111761051b57604052565b67ffffffffffffffff811161051b57604052565b6060810190811067ffffffffffffffff82111761051b57604052565b6080810190811067ffffffffffffffff82111761051b57604052565b6020810190811067ffffffffffffffff82111761051b57604052565b60e0810190811067ffffffffffffffff82111761051b57604052565b60a0810190811067ffffffffffffffff82111761051b57604052565b90601f7fffffffffffffffffffffffffffffffffffffffffffffffffffffffffffffffe0910116810190811067ffffffffffffffff82111761051b57604052565b6040519060c0820182811067ffffffffffffffff82111761051b57604052565b60405190610180820182811067ffffffffffffffff82111761051b57604052565b604051906104a982610520565b604051906104a98261056d565b67ffffffffffffffff811161051b57601f017fffffffffffffffffffffffffffffffffffffffffffffffffffffffffffffffe01660200190565b9291926106bf82610679565b916106cd60405193846105dd565b82948184528183011161041e578281602093845f960137010152565b9080601f8301121561041e57816020610704933591016106b3565b90565b6101007ffffffffffffffffffffffffffffffffffffffffffffffffffffffffffffffffc36011261041e5760043561073e81610480565b60243561074a81610480565b6084358060070b810361041e5760a43590610764826104ab565b60c43567ffffffffffffffff811161041e576107849036906004016106e9565b9261078d6143b6565b60ff61086b5460e81c166107b4576107ad94606435916044359133614431565b6001606555005b60046040517f5a65d188000000000000000000000000000000000000000000000000000000008152fd5b3461041e575f7ffffffffffffffffffffffffffffffffffffffffffffffffffffffffffffffffc36011261041e57602060405173ffffffffffffffffffffffffffffffffffffffff7f0000000000000000000000000000000000000000000000000000000000000000168152f35b3461041e5760207ffffffffffffffffffffffffffffffffffffffffffffffffffffffffffffffffc36011261041e576107ad60043561088a81610480565b610892614720565b61089a6143b6565b61475b565b3461041e575f7ffffffffffffffffffffffffffffffffffffffffffffffffffffffffffffffffc36011261041e5760206040515f8152f35b3461041e575f7ffffffffffffffffffffffffffffffffffffffffffffffffffffffffffffffffc36011261041e57602060405173ffffffffffffffffffffffffffffffffffffffff7f0000000000000000000000000000000000000000000000000000000000000000168152f35b67ffffffffffffffff811161051b5760051b60200190565b9080601f8301121561041e57602090823561097781610945565b9361098560405195866105dd565b81855260208086019260051b82010192831161041e57602001905b8282106109ae575050505090565b813581529083019083016109a0565b9080601f8301121561041e5760209082356109d781610945565b936109e560405195866105dd565b81855260208086019260051b82010192831161041e57602001905b828210610a0e575050505090565b8380918335610a1c81610480565b815201910190610a00565b9291610a3282610945565b91610a4060405193846105dd565b829481845260208094019160051b810192831161041e57905b828210610a665750505050565b81358152908301908301610a59565b9080601f8301121561041e5781602061070493359101610a27565b7ffffffffffffffffffffffffffffffffffffffffffffffffffffffffffffffffc60608136011261041e57600435610ac7816104ab565b60243567ffffffffffffffff9283821161041e5760c090823603011261041e57610aef61061e565b908060040135825260248101356020830152604481013584811161041e57610b1d906004369184010161095d565b6040830152610b2e606482016104c7565b6060830152610b3f6084820161049e565b608083015260a48101359084821161041e576004610b6092369201016109bd565b60a082015260443592831161041e57610b80610018933690600401610a75565b91613877565b9181601f8401121561041e5782359167ffffffffffffffff831161041e576020808501948460051b01011161041e57565b3461041e577ffffffffffffffffffffffffffffffffffffffffffffffffffffffffffffffffc60608136011261041e5760043567ffffffffffffffff80821161041e5760608236039384011261041e5760243590610c14826104ab565b60443590811161041e57610c2c903690600401610b86565b919093610c376143b6565b7ffffffffffffffffffffffffffffffffffffffffffffffffffffffffffffffe7d8460040135910181121561041e57610ceb94610ce693610c81610cdf93600436918901016131ac565b95610c8f6080880151614899565b50610c98615812565b610ca187614155565b9060446020890151916101608a015193610cb961061e565b9a8b5260208b015201356040890152606088015260808701525f60a08701523691610a27565b90836148bc565b614a5a565b6100186001606555565b8015150361041e57565b3461041e5760607ffffffffffffffffffffffffffffffffffffffffffffffffffffffffffffffffc36011261041e57600435610d3a81610480565b602435907f0a21fdd43d0ad0c62689ee7230a47309a050755bcc52eba00310add65297692a602073ffffffffffffffffffffffffffffffffffffffff60443593610d8385610cf5565b610d8b614720565b610d936143b6565b1692835f5261086d825260405f20855f52825260405f20901515907fffffffffffffffffffffffffffffffffffffffffffffffffffffffffffffff0081541660ff8316179055604051908152a36001606555005b3461041e575f7ffffffffffffffffffffffffffffffffffffffffffffffffffffffffffffffffc36011261041e576020604051428152f35b908161018091031261041e5790565b3461041e5760407ffffffffffffffffffffffffffffffffffffffffffffffffffffffffffffffffc36011261041e5760043567ffffffffffffffff811161041e57610e7d903690600401610e1f565b610e8681613a32565b73ffffffffffffffffffffffffffffffffffffffff1690610ea960208201613a32565b73ffffffffffffffffffffffffffffffffffffffff1691610ecc60408301613a32565b73ffffffffffffffffffffffffffffffffffffffff16610eee60608401613a32565b73ffffffffffffffffffffffffffffffffffffffff1692610f1160808201613a32565b73ffffffffffffffffffffffffffffffffffffffff1690610100610f36818301613a3c565b9061012090610f46848301613a3c565b9261014094858101610f5790613a3c565b966101609a8b8301610f699084613a46565b9a909b610f7461063e565b9e8f91825260208201526040015260608d015260808c015260a081013560a08c015260c081013560c08c015260e0013560e08b015263ffffffff1690890152870190610fc5919063ffffffff169052565b63ffffffff909116908501523690610fdc926106b3565b9082015233602435610018926141a4565b3461041e5760207ffffffffffffffffffffffffffffffffffffffffffffffffffffffffffffffffc36011261041e576004803567ffffffffffffffff811161041e5761103c9036908301610e1f565b6110446143b6565b60ff61086b5460e01c166112415763ffffffff8042169261014083019361107d8161106e87613a3c565b63ffffffff9182169116101590565b6112185761012084019261109084613a3c565b16106111f0576110a86110a336856131ac565b614155565b906110bc825f5261087260205260405f2090565b546111c8575061110b7f3cee3e290f36226751cd0b3321b213890fe9c768e922f267fa6111836ce05c3292611106611100611111945f5261087260205260405f2090565b60019055565b613a3c565b93613a3c565b61113161112c611125610160860186613a46565b36916106b3565b614fab565b906111bb6040519283926101008701359760e08801359760208101359281359260408301359260c08101359060a081013590606060808201359101358b9693909a999895919261012098959361014089019c895260208901526040880152606087015263ffffffff80921660808701521660a085015260c084015260e08301526101008201520152565b0390a36100186001606555565b6040517f012f9e44000000000000000000000000000000000000000000000000000000008152fd5b6040517fd642b7d9000000000000000000000000000000000000000000000000000000008152fd5b506040517f09deb9ec000000000000000000000000000000000000000000000000000000008152fd5b506040517f7b21f8aa000000000000000000000000000000000000000000000000000000008152fd5b3461041e575f7ffffffffffffffffffffffffffffffffffffffffffffffffffffffffffffffffc36011261041e5760206040517f9c6dfd61d811b9950a4f2b9adf46357b717c816d22c420d0bde8f2360148f7cd8152f35b3461041e5760207ffffffffffffffffffffffffffffffffffffffffffffffffffffffffffffffffc36011261041e576004356112fd81610480565b73ffffffffffffffffffffffffffffffffffffffff807f00000000000000000000000000000000000000000000000000000000000000001680301461041e577f360894a13ba1a3210667c828492db98dca3e2076cc3735a920a3ca505d382bbc90828254160361041e5761136f614720565b6040519161137c83610589565b5f83527f4910fdfa16fed3260ed0e7147f7cc6da11a60208b5b9406d12a635614ffd91435460ff16156113b55750505061001890615f42565b6020600491604051928380927f52d1902d00000000000000000000000000000000000000000000000000000000825288165afa5f9181611407575b506113f9575f80fd5b0361041e5761001891615e0f565b61142a91925060203d602011611431575b61142281836105dd565b810190614fc0565b905f6113f0565b503d611418565b3461041e575f7ffffffffffffffffffffffffffffffffffffffffffffffffffffffffffffffffc36011261041e57602073ffffffffffffffffffffffffffffffffffffffff610c5b5416604051908152f35b60207ffffffffffffffffffffffffffffffffffffffffffffffffffffffffffffffffc82011261041e576004359067ffffffffffffffff821161041e576114d391600401610b86565b9091565b5f5b8381106114e85750505f910152565b81810151838201526020016114d9565b907fffffffffffffffffffffffffffffffffffffffffffffffffffffffffffffffe0601f602093611534815180928187528780880191016114d7565b0116010190565b6020808201908083528351809252604092604081018260408560051b8401019601945f925b858410611571575050505050505090565b9091929394959685806115c0837fffffffffffffffffffffffffffffffffffffffffffffffffffffffffffffffc0866001960301885286838d51805115158452015191818582015201906114f8565b990194019401929594939190611560565b3461041e576115df3661148a565b6115e98183614fcf565b6115f281610945565b91604061160260405194856105dd565b8284527fffffffffffffffffffffffffffffffffffffffffffffffffffffffffffffffe061162f84610945565b015f5b8181106116a35750505f5b8381106116565760405180611652878261153b565b0390f35b8061169d61166660019388613ada565b515f80611674858a8a613aee565b90611683895180938193613b05565b0390305af490611691613b12565b60208201529015159052565b0161163d565b60209083516116b1816104ff565b5f815282606081830152828901015201611632565b3461041e575f7ffffffffffffffffffffffffffffffffffffffffffffffffffffffffffffffffc36011261041e57602073ffffffffffffffffffffffffffffffffffffffff610c5a5416604051908152f35b3461041e575f7ffffffffffffffffffffffffffffffffffffffffffffffffffffffffffffffffc36011261041e5760206040516301e133808152f35b3461041e5760407ffffffffffffffffffffffffffffffffffffffffffffffffffffffffffffffffc36011261041e57602435600435611791614720565b6117996143b6565b61086c80546801000000000000000081101561051b5763ffffffff91600182019055836117c582613600565b5084600182015555167fc86ba04c55bc5eb2f2876b91c438849a296dbec7b08751c3074d92e04f0a77af5f80a46001606555005b60407ffffffffffffffffffffffffffffffffffffffffffffffffffffffffffffffffc36011261041e5760043561182f81610480565b60243567ffffffffffffffff811161041e5761184f9036906004016106e9565b73ffffffffffffffffffffffffffffffffffffffff807f0000000000000000000000000000000000000000000000000000000000000000169081301461041e577f360894a13ba1a3210667c828492db98dca3e2076cc3735a920a3ca505d382bbc91818354160361041e576118c2614720565b7f4910fdfa16fed3260ed0e7147f7cc6da11a60208b5b9406d12a635614ffd91435460ff16156118f85750505061001890615f42565b6020600491604051928380927f52d1902d00000000000000000000000000000000000000000000000000000000825288165afa5f918161194a575b5061193c575f80fd5b0361041e5761001891615ee4565b61196491925060203d6020116114315761142281836105dd565b905f611933565b3461041e5760407ffffffffffffffffffffffffffffffffffffffffffffffffffffffffffffffffc36011261041e5773ffffffffffffffffffffffffffffffffffffffff6004356119bb81610480565b165f5261086d60205260405f206024355f52602052602060ff60405f2054166040519015158152f35b3461041e575f7ffffffffffffffffffffffffffffffffffffffffffffffffffffffffffffffffc36011261041e57602073ffffffffffffffffffffffffffffffffffffffff6108695416604051908152f35b3461041e575f7ffffffffffffffffffffffffffffffffffffffffffffffffffffffffffffffffc36011261041e5773ffffffffffffffffffffffffffffffffffffffff7f000000000000000000000000000000000000000000000000000000000000000016300361041e5760206040517f360894a13ba1a3210667c828492db98dca3e2076cc3735a920a3ca505d382bbc8152f35b6101207ffffffffffffffffffffffffffffffffffffffffffffffffffffffffffffffffc36011261041e57600435611b0281610480565b60243590611b0f82610480565b60443591611b1c83610480565b60a4358060070b810361041e5760c43591611b36836104ab565b60e43567ffffffffffffffff811161041e57611b569036906004016106e9565b93611b5f6143b6565b60ff61086b5460e81c166107b4576107ad956084359260643592614431565b9181601f8401121561041e5782359167ffffffffffffffff831161041e576020838186019501011161041e57565b3461041e5760c07ffffffffffffffffffffffffffffffffffffffffffffffffffffffffffffffffc36011261041e57600435611be781610480565b60243560443591606435611bfa81610480565b67ffffffffffffffff9160843583811161041e57611c1c903690600401611b7e565b60a49491943591821161041e577f45e04bc8f121ba11466985789ca2822a91109f31bb8ac85504a37b7eaf873c2694611c5c611d8b933690600401611b7e565b92909173ffffffffffffffffffffffffffffffffffffffff8097168a611d7f611c863686866106b3565b60428d611c94368b8b6106b3565b92602081519101209460409586519160208301937f9c6dfd61d811b9950a4f2b9adf46357b717c816d22c420d0bde8f2360148f7cd85528884015246606084015260808301528760a083015260c082015260c08152611cf2816105a5565b51902061047f546104805486519060208201927fc2f8787176b8ac6bf7215b4adcc1e069bf4ab82d9ab1df05a57a91d425935b6e845288830152606082015246608082015260808152611d44816105c1565b519020908551917f1901000000000000000000000000000000000000000000000000000000000000835260028301526022820152208a615faa565b51978897169a87613b7f565b0390a3005b3461041e575f7ffffffffffffffffffffffffffffffffffffffffffffffffffffffffffffffffc36011261041e57602060405163ffffffff7f0000000000000000000000000000000000000000000000000000000000000000168152f35b3461041e575f7ffffffffffffffffffffffffffffffffffffffffffffffffffffffffffffffffc36011261041e57602060ff61086b5460e81c166040519015158152f35b3461041e575f7ffffffffffffffffffffffffffffffffffffffffffffffffffffffffffffffffc36011261041e5760206040517f8d1994e2bbbd77564cdca06dd819e7ee2a5efa06c80dcb59a4a7b6e39edc538f8152f35b3461041e575f7ffffffffffffffffffffffffffffffffffffffffffffffffffffffffffffffffc36011261041e57602060405163ffffffff7f0000000000000000000000000000000000000000000000000000000000000000168152f35b3461041e5760207ffffffffffffffffffffffffffffffffffffffffffffffffffffffffffffffffc36011261041e577fe88463c2f254e2b070013a2dc7ee1e099f9bc00534cbdf03af551dc26ae492196020600435611f4681610cf5565b611f4e614720565b611f566143b6565b151561086b80547fffff00ffffffffffffffffffffffffffffffffffffffffffffffffffffffffff7dff00000000000000000000000000000000000000000000000000000000008460e81b169116179055604051908152a16001606555005b6101607ffffffffffffffffffffffffffffffffffffffffffffffffffffffffffffffffc36011261041e57600435611fec81610480565b60243590611ff982610480565b60443561200581610480565b6064359061201282610480565b60e43561201e81610480565b610104359061202c826104ab565b610124359261203a846104ab565b610144359667ffffffffffffffff881161041e5761205f610018983690600401611b7e565b97909660c4359360a4359360843593613bfc565b6101807ffffffffffffffffffffffffffffffffffffffffffffffffffffffffffffffffc36011261041e576004356120aa81610480565b602435906120b782610480565b6044356120c381610480565b606435906120d082610480565b60e4356120dc81610480565b610104356120e9816104ab565b61012435916120f7836104ab565b6120ff6104b9565b93610164359767ffffffffffffffff891161041e57612125610018993690600401611b7e565b98909760c4359360a4359360843593613c1e565b3461041e5760607ffffffffffffffffffffffffffffffffffffffffffffffffffffffffffffffffc36011261041e57602061218660043561217981610480565b6044359060243590613da7565b604051908152f35b3461041e5760607ffffffffffffffffffffffffffffffffffffffffffffffffffffffffffffffffc36011261041e5767ffffffffffffffff60243581811161041e576121de903690600401611b7e565b9160443590811161041e576121f7903690600401611b7e565b906040519360208501948061220e4684888a613df5565b03956122407fffffffffffffffffffffffffffffffffffffffffffffffffffffffffffffffe0978881018452836105dd565b6004359151902003612305575f9461226f6122aa93612266876122b6958a990190613262565b95810190613e12565b519360405193849160208301967fdeff4b24000000000000000000000000000000000000000000000000000000008852339160248501613eda565b039081018352826105dd565b5190305af46122c3613b12565b90156122cb57005b612301906040519182917fb8fe37a700000000000000000000000000000000000000000000000000000000835260048301613efc565b0390fd5b60046040517f1e191e8e000000000000000000000000000000000000000000000000000000008152fd5b3461041e5760207ffffffffffffffffffffffffffffffffffffffffffffffffffffffffffffffffc36011261041e57600435612369614720565b6123716143b6565b61237a81613600565b6123b2576001815f80935501557f7c1af0646963afc3343245b103731965735a893347bfa0d58a5dc77a77ae691c5f80a26001606555005b7f4e487b71000000000000000000000000000000000000000000000000000000005f525f60045260245ffd5b6101a07ffffffffffffffffffffffffffffffffffffffffffffffffffffffffffffffffc36011261041e5761012435612416816104ab565b61014435612423816104ab565b6101643591612431836104ab565b610184359267ffffffffffffffff841161041e57612456610018943690600401611b7e565b9390926101043560e43560c43560a435608435606435604435602435600435613f0d565b3461041e575f7ffffffffffffffffffffffffffffffffffffffffffffffffffffffffffffffffc36011261041e57602060405173ffffffffffffffffffffffffffffffffffffffff7f0000000000000000000000000000000000000000000000000000000000000000168152f35b3461041e5760e07ffffffffffffffffffffffffffffffffffffffffffffffffffffffffffffffffc36011261041e5767ffffffffffffffff60043581811161041e57612538903690600401610e1f565b60a43582811161041e57612550903690600401611b7e565b60c49291923593841161041e5761256e610018943690600401611b7e565b93909260843590606435906044359060243590613f85565b3461041e5760607ffffffffffffffffffffffffffffffffffffffffffffffffffffffffffffffffc36011261041e576004356125c1816104ab565b602435906125ce82610480565b604435906125db82610480565b60ff5f5460081c161561041e5761263c9061086b907fffffffff00000000ffffffffffffffffffffffffffffffffffffffffffffffff7bffffffff00000000000000000000000000000000000000000000000083549260c01b169116179055565b604051612648816104ff565b6009815260208101927f4143524f53532d5632000000000000000000000000000000000000000000000084527f312e302e3000000000000000000000000000000000000000000000000000000060206040516126a3816104ff565b60058152015260ff5f5460081c161561041e57610018936126ff9251902061047f557f06c015bd22b4c69690933c1058878ebdfef31f9aaae40bbe86d8a09fe1b2972c610480556126f26155ce565b6126fa6155dd565b6155f1565b615688565b3461041e5760207ffffffffffffffffffffffffffffffffffffffffffffffffffffffffffffffffc36011261041e577f2d5b62420992e5a4afce0e77742636ca2608ef58289fd2e1baa5161ef6e7e41e602060043561276281610cf5565b61276a614720565b6127726143b6565b151561086b80547fffffff00ffffffffffffffffffffffffffffffffffffffffffffffffffffffff7cff000000000000000000000000000000000000000000000000000000008460e01b169116179055604051908152a16001606555005b3461041e5760607ffffffffffffffffffffffffffffffffffffffffffffffffffffffffffffffffc36011261041e5760243561280b81610480565b60443567ffffffffffffffff811161041e5761282b903690600401611b7e565b90610c5b805460ff8160a01c166129ed577fffffffffffffffffffffff00ffffffffffffffffffffffffffffffffffffffff1674010000000000000000000000000000000000000000179055610c5a546128af9073ffffffffffffffffffffffffffffffffffffffff165b73ffffffffffffffffffffffffffffffffffffffff1690565b33036129c35773ffffffffffffffffffffffffffffffffffffffff6128ed6128966108695473ffffffffffffffffffffffffffffffffffffffff1690565b9316928303612999575f91829161290960405180938193613b05565b0390305af4612916613b12565b501561296f57337f5185f02297526865dfbc461916f7dd8d40414c836fa469073ebea66ce68ba8635f80a3610018610c5b7fffffffffffffffffffffff00ffffffffffffffffffffffffffffffffffffffff8154169055565b60046040517f18cecad5000000000000000000000000000000000000000000000000000000008152fd5b60046040517f339c0f06000000000000000000000000000000000000000000000000000000008152fd5b60046040517fe30ca5a2000000000000000000000000000000000000000000000000000000008152fd5b60046040517fd01d9576000000000000000000000000000000000000000000000000000000008152fd5b3461041e575f7ffffffffffffffffffffffffffffffffffffffffffffffffffffffffffffffffc36011261041e576020604051468152f35b3461041e575f7ffffffffffffffffffffffffffffffffffffffffffffffffffffffffffffffffc36011261041e57602063ffffffff61086b5460c01c16604051908152f35b3461041e5760407ffffffffffffffffffffffffffffffffffffffffffffffffffffffffffffffffc36011261041e57600435602435612ad282615cf5565b73ffffffffffffffffffffffffffffffffffffffff82165f52610873602052612b1b60405f203373ffffffffffffffffffffffffffffffffffffffff165f5260205260405f2090565b54918215612bcc575f612b7c33612b59612b3485614899565b73ffffffffffffffffffffffffffffffffffffffff165f5261087360205260405f2090565b9073ffffffffffffffffffffffffffffffffffffffff165f5260205260405f2090565b55612b9c83612b8d61289684614899565b612b9685614899565b9061571f565b60405192835233927f6c172ea51018fb2eb2118f3f8a507c4df71eb519b8c0052834dc3c920182fef490602090a4005b60046040517fd950afdc000000000000000000000000000000000000000000000000000000008152fd5b6020808201906020835283518092526040830192602060408460051b8301019501935f915b848310612c2b5750505050505090565b9091929394958480612c67837fffffffffffffffffffffffffffffffffffffffffffffffffffffffffffffffc086600196030187528a516114f8565b9801930193019194939290612c1b565b3461041e57612c853661148a565b90612c908282614fcf565b612c998261407b565b915f5b818110612cb157604051806116528682612bf6565b5f80612cbe838587613aee565b90612cce60405180938193613b05565b0390305af4612cdb613b12565b9015612d015790600191612cef8287613ada565b52612cfa8186613ada565b5001612c9c565b604481511061041e5780600461041e9201516024809183010191016140e1565b610180807ffffffffffffffffffffffffffffffffffffffffffffffffffffffffffffffffc36011261041e5761010435612d5a816104ab565b6101243591612d68836104ab565b6101443592612d76846104ab565b6101643567ffffffffffffffff811161041e57612d97903690600401611b7e565b612d9f6143b6565b61086b549260ff8460e81c166107b457610ceb96612e9161112592612e8363ffffffff612e9f9860c01c1699612e27612dd78c614140565b61086b907fffffffff00000000ffffffffffffffffffffffffffffffffffffffffffffffff7bffffffff00000000000000000000000000000000000000000000000083549260c01b169116179055565b612e2f61065f565b9a6004358c5260243560208d015260443560408d015260643560608d015260843560808d015260a43560a08d015260c43560c08d015260e43560e08d01526101008c01526101208b019063ffffffff169052565b63ffffffff16610140890152565b63ffffffff16610160870152565b908201526151e9565b3461041e5760407ffffffffffffffffffffffffffffffffffffffffffffffffffffffffffffffffc36011261041e576020612f39600435612ee881610480565b73ffffffffffffffffffffffffffffffffffffffff60243591612f0a83610480565b165f52610873835260405f209073ffffffffffffffffffffffffffffffffffffffff165f5260205260405f2090565b54604051908152f35b3461041e575f7ffffffffffffffffffffffffffffffffffffffffffffffffffffffffffffffffc36011261041e57602073ffffffffffffffffffffffffffffffffffffffff61086a5416604051908152f35b3461041e5760207ffffffffffffffffffffffffffffffffffffffffffffffffffffffffffffffffc36011261041e576107ad600435612fd281610480565b612fda614720565b612fe26143b6565b6157ab565b3461041e5760c07ffffffffffffffffffffffffffffffffffffffffffffffffffffffffffffffffc36011261041e5760043560243567ffffffffffffffff60643560443560843583811161041e57613043903690600401611b7e565b60a49491943591821161041e577f45e04bc8f121ba11466985789ca2822a91109f31bb8ac85504a37b7eaf873c26946130836130df933690600401611b7e565b92909161308e6143b6565b6130978a615cf5565b6130d3898b89896130a93688886106b3565b926130b5368b8b6106b3565b9473ffffffffffffffffffffffffffffffffffffffff46921661508f565b60405196879687613b7f565b0390a36001606555005b3461041e5760207ffffffffffffffffffffffffffffffffffffffffffffffffffffffffffffffffc36011261041e576004355f52610872602052602060405f2054604051908152f35b3461041e575f7ffffffffffffffffffffffffffffffffffffffffffffffffffffffffffffffffc36011261041e57602060405163ffffffff8152f35b3461041e575f7ffffffffffffffffffffffffffffffffffffffffffffffffffffffffffffffffc36011261041e576131a46143b6565b6107ad615812565b91906101808382031261041e576131c161063e565b92803584526020810135602085015260408101356040850152606081013560608501526080810135608085015260a081013560a085015260c081013560c085015260e081013560e085015261010080820135908501526101206132258183016104c7565b908501526101406132378183016104c7565b90850152610160918282013567ffffffffffffffff811161041e5761325c92016106e9565b90830152565b9060208282031261041e57813567ffffffffffffffff811161041e5761070492016131ac565b3461041e5760207ffffffffffffffffffffffffffffffffffffffffffffffffffffffffffffffffc36011261041e5760043567ffffffffffffffff811161041e576121866110a360209236906004016131ac565b3461041e575f7ffffffffffffffffffffffffffffffffffffffffffffffffffffffffffffffffc36011261041e57602060ff61086b5460e01c166040519015158152f35b3461041e575f7ffffffffffffffffffffffffffffffffffffffffffffffffffffffffffffffffc36011261041e5760206040516ec097ce7bc90715b34b9f10000000008152f35b3461041e5760207ffffffffffffffffffffffffffffffffffffffffffffffffffffffffffffffffc36011261041e576107ad6004356133a581610480565b6133ad614720565b6126fa6143b6565b3461041e5760607ffffffffffffffffffffffffffffffffffffffffffffffffffffffffffffffffc36011261041e5760043567ffffffffffffffff811161041e576134049036906004016131ac565b61340c6143b6565b60ff61086b5460e01c166134db5761014081015163ffffffff42811691161015806134af575b6134855780613443610ceb92614155565b60c08201516020830151906101608401519261345d61061e565b948552602085015260408401526060830152608082015260243560a082015260443590614d24565b60046040517fc3a9b9d0000000000000000000000000000000000000000000000000000000008152fd5b506134bd6040820151614899565b73ffffffffffffffffffffffffffffffffffffffff16331415613432565b60046040517f7b21f8aa000000000000000000000000000000000000000000000000000000008152fd5b610160807ffffffffffffffffffffffffffffffffffffffffffffffffffffffffffffffffc36011261041e576101043561353e816104ab565b6101243561354b816104ab565b6101443567ffffffffffffffff811161041e5761356c903690600401611b7e565b63ffffffff9461357f8642169586613bdf565b936135886143b6565b61086b549160ff8360e81c166107b4576135bb6135c896612e83610ceb9a6111259660c01c1699612e27612dd78c614140565b86019063ffffffff169052565b6101808201526151e9565b7f4e487b71000000000000000000000000000000000000000000000000000000005f52603260045260245ffd5b61086c90815481101561363a576003915f52027f71cd7344f4eb2efc8e30291f6dbdb44d618ca368ea5425d217c1d604bf26b84d01905f90565b6135d3565b3461041e5760207ffffffffffffffffffffffffffffffffffffffffffffffffffffffffffffffffc36011261041e5760043561086c5481101561041e57613687604091613600565b506001815491015482519182526020820152f35b3461041e5760a07ffffffffffffffffffffffffffffffffffffffffffffffffffffffffffffffffc36011261041e576004356136d6816104ab565b6137676024356136e581610480565b6044356136f181610480565b606435906136fe82610480565b6084359261370b84610480565b5f549561372f60ff8860081c16158098819961381b575b81156137fb575b50613ad3565b8661375e60017fffffffffffffffffffffffffffffffffffffffffffffffffffffffffffffff005f5416175f55565b6137c75761424d565b61376d57005b6137987fffffffffffffffffffffffffffffffffffffffffffffffffffffffffffff00ff5f54165f55565b604051600181527f7f26b83ff96e1f2b6a682f133852f6798a09c465da95921460cefb384740249890602090a1005b6137f66101007fffffffffffffffffffffffffffffffffffffffffffffffffffffffffffff00ff5f5416175f55565b61424d565b303b1591508161380d575b505f613729565b6001915060ff16145f613806565b600160ff8216109150613722565b3461041e5760207ffffffffffffffffffffffffffffffffffffffffffffffffffffffffffffffffc36011261041e576107ad60043561386781610480565b61386f614720565b6126ff6143b6565b918151151580613a28575b6139fe5761388e6143b6565b608082019161389b615812565b6020810191825146036139d4576138c36138c7918360016138bb89613600565b50015461594a565b1590565b6139aa578060607ff4ad92585b1bc117fbdd644990adf0827bc4c95baeae8a23322af807b6d0020e920193613909613903865163ffffffff1690565b87615a1c565b61399d84519483519361398261396761395660408401998a516139308d5163ffffffff1690565b895173ffffffffffffffffffffffffffffffffffffffff169160a088019b8c5194615a89565b925193519851995163ffffffff1690565b945173ffffffffffffffffffffffffffffffffffffffff1690565b945163ffffffff9586604051978897169b169933948761483e565b0390a46104a96001606555565b60046040517fb05e92fa000000000000000000000000000000000000000000000000000000008152fd5b60046040517f7a47c9a2000000000000000000000000000000000000000000000000000000008152fd5b60046040517fba092d16000000000000000000000000000000000000000000000000000000008152fd5b5032331415613882565b3561070481610480565b35610704816104ab565b9035907fffffffffffffffffffffffffffffffffffffffffffffffffffffffffffffffe18136030182121561041e570180359067ffffffffffffffff821161041e5760200191813603831361041e57565b7f4e487b71000000000000000000000000000000000000000000000000000000005f52602160045260245ffd5b60031115613ace57565b613a97565b1561041e57565b805182101561363a5760209160051b010190565b9082101561363a576114d39160051b810190613a46565b908092918237015f815290565b3d15613b3c573d90613b2382610679565b91613b3160405193846105dd565b82523d5f602084013e565b606090565b601f82602094937fffffffffffffffffffffffffffffffffffffffffffffffffffffffffffffffe093818652868601375f8582860101520116010190565b94929093613ba492610704979587526020870152608060408701526080860191613b41565b926060818503910152613b41565b7f4e487b71000000000000000000000000000000000000000000000000000000005f52601160045260245ffd5b91909163ffffffff80809416911601918211613bf757565b613bb2565b96949290916104a99b9a9998969492613c1c63ffffffff42169889613bdf565b985b9593919b999897969492909b613c326143b6565b61086b549660ff8860e81c166107b4578760c01c63ffffffff16613c5590614140565b613ca99061086b907fffffffff00000000ffffffffffffffffffffffffffffffffffffffffffffffff7bffffffff00000000000000000000000000000000000000000000000083549260c01b169116179055565b613cb161065f565b9d73ffffffffffffffffffffffffffffffffffffffff8f9216825273ffffffffffffffffffffffffffffffffffffffff16906020015273ffffffffffffffffffffffffffffffffffffffff1660408d015273ffffffffffffffffffffffffffffffffffffffff1660608c015260808b015260a08a015260c089015273ffffffffffffffffffffffffffffffffffffffff1660e088015260c01c63ffffffff16610100870152610120860190613d6b919063ffffffff169052565b63ffffffff1661014085015263ffffffff166101608401523690613d8e926106b3565b610180820152613d9d906151e9565b6104a96001606555565b91604051917fffffffffffffffffffffffffffffffffffffffff000000000000000000000000602084019460601b1684526034830152605482015260548152613def8161056d565b51902090565b939291602091613e0d91604087526040870191613b41565b930152565b9081602091031261041e57604051906020820182811067ffffffffffffffff82111761051b5760405235815290565b6107049161018090825181526020830151602082015260408301516040820152606083015160608201526080830151608082015260a083015160a082015260c083015160c082015260e083015160e08201526101008084015190820152613eb6610120808501519083019063ffffffff169052565b6101408381015163ffffffff169082015281610160809401519382015201906114f8565b613ef260409295949395606083526060830190613e41565b9460208201520152565b9060206107049281815201906114f8565b9c9a9998979695949392919096613f226143b6565b60ff61086b5460e81c166107b457613f3b908e33613da7565b96604051809e613f4a82610520565b81526020015260408d015260608c015260808b015260a08a015260c089015260e088015261010087015263ffffffff16610120860152613d6b565b979290959391969497613f966143b6565b60ff61086b5460e01c166134db57613fb16101408201613a3c565b63ffffffff804216911610158061404f575b6134855761403861404a96614030613d9d9b613fe26110a336876131ac565b9a613feb61061e565b9b613ff636886131ac565b8d5260208d01528660408d01528760608d0152614014368b846106b3565b60808d015260a08c01526140288535614899565b9836916106b3565b9536916106b3565b9461010060e08301359201359061508f565b614d24565b5061405d6040820135614899565b73ffffffffffffffffffffffffffffffffffffffff16331415613fc3565b9061408582610945565b61409260405191826105dd565b8281527fffffffffffffffffffffffffffffffffffffffffffffffffffffffffffffffe06140c08294610945565b01905f5b8281106140d057505050565b8060606020809385010152016140c4565b60208183031261041e5780519067ffffffffffffffff821161041e570181601f8201121561041e57805161411481610679565b9261412260405194856105dd565b8184526020828401011161041e5761070491602080850191016114d7565b63ffffffff809116908114613bf75760010190565b604051613def816141726020820194604086526060830190613e41565b466040830152037fffffffffffffffffffffffffffffffffffffffffffffffffffffffffffffffe081018352826105dd565b9190916141af6143b6565b60ff61086b5460e01c166134db5761014081015163ffffffff4281169116101580614221575b61348557613d9d926141e682614155565b60c08301516020840151906101608501519261420061061e565b958652602086015260408501526060840152608083015260a0820152614d24565b5061422f6040820151614899565b73ffffffffffffffffffffffffffffffffffffffff163314156141d5565b939293919091610c5b7fffffffffffffffffffffff00ffffffffffffffffffffffffffffffffffffffff815416905560ff5f5460081c161561041e576142dd9061086b907fffffffff00000000ffffffffffffffffffffffffffffffffffffffffffffffff7bffffffff00000000000000000000000000000000000000000000000083549260c01b169116179055565b604051916142ea836104ff565b60098352602083017f4143524f53532d5632000000000000000000000000000000000000000000000081527f312e302e300000000000000000000000000000000000000000000000000000006020604051614344816104ff565b60058152015260ff5f5460081c161561041e576104a9956126ff73ffffffffffffffffffffffffffffffffffffffff946143b093612fe29751902061047f557f06c015bd22b4c69690933c1058878ebdfef31f9aaae40bbe86d8a09fe1b2972c610480556126f26155ce565b1661475b565b60026065541461041e576002606555565b91908203918211613bf757565b6040513d5f823e3d90fd5b926107049695929491946101409585525f60208601526040850152606084015263ffffffff809116608084015260a08301525f60c083015260e08201525f6101008201528161012082015201906114f8565b9193949690959661447f6138c36144788861446b8973ffffffffffffffffffffffffffffffffffffffff165f5261086d60205260405f2090565b905f5260205260405f2090565b5460ff1690565b6146f65760070b906706f05b59d3b20000614499836158a0565b10156146cc576ec097ce7bc90715b34b9f100000000084116146a25763ffffffff936144c7858a16426143c7565b857f000000000000000000000000000000000000000000000000000000000000000016106146785761086b5460c01c63ffffffff1698614509612dd78b614140565b73ffffffffffffffffffffffffffffffffffffffff9586807f0000000000000000000000000000000000000000000000000000000000000000169816928884148061466f575b156146335780340361460957883b1561041e575f6004996040519a8b80927fd0e30db000000000000000000000000000000000000000000000000000000000825234905af1988915614604576145d36145e6978a927f32ed1a409ef04c7b0227189c3a103dc5ac10e775a15b785dcc510201f7c25ad39c6145eb575b505b83615914565b92604051998a99169d169b1693876143df565b0390a4565b806145f86145fe9261053d565b80610414565b5f6145cb565b6143d4565b60046040517f6452a35d000000000000000000000000000000000000000000000000000000008152fd5b7f32ed1a409ef04c7b0227189c3a103dc5ac10e775a15b785dcc510201f7c25ad39850876145d36145e69761466a8430338a6158af565b6145cd565b5034151561454f565b60046040517ff722177f000000000000000000000000000000000000000000000000000000008152fd5b60046040517fc45b6b52000000000000000000000000000000000000000000000000000000008152fd5b60046040517fa13c425c000000000000000000000000000000000000000000000000000000008152fd5b60046040517f2a58c4f3000000000000000000000000000000000000000000000000000000008152fd5b60ff610c5b5460a01c161561473157565b60046040517f877d8319000000000000000000000000000000000000000000000000000000008152fd5b73ffffffffffffffffffffffffffffffffffffffff16610c5b817fffffffffffffffffffffffff00000000000000000000000000000000000000008254161790557f6ade7bc58132776cc11d9b570837a732329396078de17b87db95463ca7f5d25f5f80a2565b9081518082526020808093019301915f5b8281106147e1575050505090565b8351855293810193928101926001016147d3565b9081518082526020808093019301915f5b828110614814575050505090565b835173ffffffffffffffffffffffffffffffffffffffff1685529381019392810192600101614806565b949695919361486060a09561488b93885260c0602089015260c08801906147c2565b9073ffffffffffffffffffffffffffffffffffffffff809516604088015286820360608801526147f5565b951515608085015216910152565b73ffffffffffffffffffffffffffffffffffffffff906148b881615cf5565b1690565b916138c39061495c928451604080960151918651916148da83610551565b82526149536148f56020840192468452898501958652613600565b505493885192839161491a6020840196602088525160608d86015260a0850190613e41565b91516060840152516080830152037fffffffffffffffffffffffffffffffffffffffffffffffffffffffffffffffe081018352826105dd565b51902091616163565b6149635750565b600490517fb05e92fa000000000000000000000000000000000000000000000000000000008152fd5b61499582613ac4565b52565b9a989693919c9b9997959492909c6101e08c019d8c5260208c015260408b015260608a0152608089015263ffffffff80921660a08901521660c087015260e08601526101008501526101208401526101408301528051610160830152602081015161018083015260408101516101a08301526060015190614a1882613ac4565b6101c00152565b90610704949360809373ffffffffffffffffffffffffffffffffffffffff8093168452602084015216604082015281606082015201906114f8565b905f82516101208101614a71815163ffffffff1690565b63ffffffff42911610614cfa576020850151906002614a99835f5261087260205260405f2090565b5414614cd057614ab386925f5261087260205260405f2090565b6002905560608301519060808401519160a08501519260c0860151918560a0810151938860e0810151956101008201519751614af29063ffffffff1690565b61014083015163ffffffff166040840151918451936020860151956101600151614b1b90614fab565b966060890151986080019e8f51614b3190614fab565b906040015190614b3f61066c565b9a8b5260208b015260408a0152600260608a01526040519d8e9b614b639b8d614998565b037f44b559f101f8fbcc8a0ea43fa91a05a729a5ea6e14a7c75aa750374690137208905f94a46080820151614b9790614899565b9060408601519560600151614bab90614899565b9260800151614bb990614899565b73ffffffffffffffffffffffffffffffffffffffff919082167f0000000000000000000000000000000000000000000000000000000000000000831603614cbb5784614ca8575b614c0c87838616615d28565b51928351151580614c9e575b614c26575b50505050509050565b1690813b15614c9a5783614c6d9596604051968795869485937f3a5be8cb000000000000000000000000000000000000000000000000000000008552339160048601614a1f565b03925af1801561460457614c87575b808080808594614c1d565b806145f8614c949261053d565b5f614c7c565b8380fd5b50803b1515614c18565b614cb68730338587166158af565b614c00565b5f9450614ccb878585851661571f565b614c0c565b60046040517f8f260c60000000000000000000000000000000000000000000000000000000008152fd5b60046040517fd642b7d9000000000000000000000000000000000000000000000000000000008152fd5b8051916101208301614d3a815163ffffffff1690565b63ffffffff42911610614cfa5760208301516001614d61825f5261087260205260405f2090565b5403614fa4576001905b6002614d80825f5261087260205260405f2090565b5414614cd057614d9c614da2915f5261087260205260405f2090565b60029055565b7f44b559f101f8fbcc8a0ea43fa91a05a729a5ea6e14a7c75aa7503746901372086060860151608087015190614e6f8760a08a0151958a60c08101519760a08401519860e083015199614dff6101008501519c5163ffffffff1690565b61014085015163ffffffff1691604086015193865195614e63614e2b61016060208b01519a0151614fab565b9960608c01519b6040614e416080830151614fab565b910151906020614e4f61066c565b9e8f528e015260408d015260608c0161498c565b6040519c8d9c8d614998565b0390a4614e7f6080830151614899565b916040820151916080614ea181614e996060850151614899565b940151614899565b73ffffffffffffffffffffffffffffffffffffffff929083167f0000000000000000000000000000000000000000000000000000000000000000841603614f9157614ef0853033868a166158af565b614efc85848616615d28565b0151918251151580614f87575b614f15575b5050505050565b16803b1561041e57614f5c935f8094604051968795869485937f3a5be8cb000000000000000000000000000000000000000000000000000000008552339160048601614a1f565b03925af1801561460457614f74575b80808080614f0e565b806145f8614f819261053d565b5f614f6b565b50803b1515614f09565b614f9f858533868a166158af565b614efc565b5f90614d6b565b80519081614fb95750505f90565b6020012090565b9081602091031261041e575190565b5f80925f935b818510614fe3575050505050565b614fee858386613aee565b9190600492831161041e57357fffffffff00000000000000000000000000000000000000000000000000000000167f1b3d5559000000000000000000000000000000000000000000000000000000000361507d5750826150555750600180945b0193614fd5565b6040517f47306cb5000000000000000000000000000000000000000000000000000000008152fd5b8095935061505557506001809261504e565b93926042936104a9979660208151910120906040519260208401947f8d1994e2bbbd77564cdca06dd819e7ee2a5efa06c80dcb59a4a7b6e39edc538f86526040850152856060850152608084015260a083015260c082015260c081526150f4816105a5565b5190209061047f549061048054906040519160208301937fc2f8787176b8ac6bf7215b4adcc1e069bf4ab82d9ab1df05a57a91d425935b6e85526040840152606083015260808201526080815261514a816105c1565b51902090604051917f19010000000000000000000000000000000000000000000000000000000000008352600283015260228201522090615faa565b91908201809211613bf757565b96926107049a9996949198959261014099895260208901526040880152606087015263ffffffff928380921660808801521660a08601521660c084015260e08301526101008201528161012082015201906114f8565b6151f38151615cf5565b6040908181019061522c6152078351614899565b73ffffffffffffffffffffffffffffffffffffffff165f5261086d60205260405f2090565b926152496138c361447860c085019687515f5260205260405f2090565b6155a55761012082019261526d615264855163ffffffff1690565b63ffffffff1690565b80421090811561556c575b5061554357610140830192615291845163ffffffff1690565b9163ffffffff92836152c5817f00000000000000000000000000000000000000000000000000000000000000001642615186565b91161161551a5761016082015163ffffffff1692808416806154be575b505080519373ffffffffffffffffffffffffffffffffffffffff7f000000000000000000000000000000000000000000000000000000000000000016809514806154b5575b15615437576080830151340361540e57843b1561041e575f6004958251968780927fd0e30db000000000000000000000000000000000000000000000000000000000825234905af1918215614604577f32ed1a409ef04c7b0227189c3a103dc5ac10e775a15b785dcc510201f7c25ad3956145e6936153fb575b505b519260608101519460808201519060a08301519a51986153db6153d06101008601519c5163ffffffff1690565b915163ffffffff1690565b9084519c60208601519461018060e088015197015197519a8b9a8b615193565b806145f86154089261053d565b5f6153a1565b600490517f6452a35d000000000000000000000000000000000000000000000000000000008152fd5b919293503461548c577f32ed1a409ef04c7b0227189c3a103dc5ac10e775a15b785dcc510201f7c25ad3939291816154876154786128966145e69551614899565b608086015190309033906158af565b6153a3565b600482517f6452a35d000000000000000000000000000000000000000000000000000000008152fd5b50341515615327565b6301e133801015615505575b5060e0820151156154dc575f806152e2565b600484517f495d907f000000000000000000000000000000000000000000000000000000008152fd5b926155139193421690613bdf565b915f6154ca565b600484517f582e3889000000000000000000000000000000000000000000000000000000008152fd5b600482517ff722177f000000000000000000000000000000000000000000000000000000008152fd5b6155779150426143c7565b63ffffffff7f000000000000000000000000000000000000000000000000000000000000000016105f615278565b600490517f2a58c4f3000000000000000000000000000000000000000000000000000000008152fd5b60ff5f5460081c161561041e57565b60ff5f5460081c161561041e576001606555565b73ffffffffffffffffffffffffffffffffffffffff16801561565e57610869817fffffffffffffffffffffffff00000000000000000000000000000000000000008254161790557fa9e8c42c9e7fca7f62755189a16b2f5314d43d8fb24e91ba54e6d65f9314e8495f80a2565b60046040517fba97b39d000000000000000000000000000000000000000000000000000000008152fd5b73ffffffffffffffffffffffffffffffffffffffff1680156156f55761086a817fffffffffffffffffffffffff00000000000000000000000000000000000000008254161790557fa73e8909f8616742d7fe701153d82666f7b7cd480552e23ebb05d358c22fd04e5f80a2565b60046040517fb6061256000000000000000000000000000000000000000000000000000000008152fd5b6040517fa9059cbb00000000000000000000000000000000000000000000000000000000602082015273ffffffffffffffffffffffffffffffffffffffff909216602483015260448201929092526104a9916157a682606481015b037fffffffffffffffffffffffffffffffffffffffffffffffffffffffffffffffe081018452836105dd565b6160c6565b73ffffffffffffffffffffffffffffffffffffffff16610c5a817fffffffffffffffffffffffff00000000000000000000000000000000000000008254161790557f573834b6d6901b74ef64eeb676a0b99d7946df822b7021e44ee0da19d846c4955f80a2565b478061581c575b50565b73ffffffffffffffffffffffffffffffffffffffff7f000000000000000000000000000000000000000000000000000000000000000016803b1561041e575f906004604051809481937fd0e30db00000000000000000000000000000000000000000000000000000000083525af18015614604576158975750565b6104a99061053d565b5f81126158aa5790565b5f0390565b90926104a993604051937f23b872dd00000000000000000000000000000000000000000000000000000000602086015273ffffffffffffffffffffffffffffffffffffffff80921660248601521660448401526064830152606482526157a6826105c1565b90670de0b6b3a7640000915f828403921283831281169084841390151617613bf757818102918183041490151715613bf7570490565b6107049291604051614953816159f0602082019460208652805160408401526020810151606084015260a061598f604083015160c060808701526101008601906147c2565b9163ffffffff6060820151168286015273ffffffffffffffffffffffffffffffffffffffff60808201511660c086015201517fffffffffffffffffffffffffffffffffffffffffffffffffffffffffffffffc08483030160e08501526147f5565b037fffffffffffffffffffffffffffffffffffffffffffffffffffffffffffffffe081018352826105dd565b615a27600291613600565b500162ffffff8260081c16805f5281602052600160ff60405f205494161b8080941614615a5f575f5260205260405f20908154179055565b60046040517f954476d9000000000000000000000000000000000000000000000000000000008152fd5b91959495939092935f9681519081815103615ccb5781615b15575b50505082615ab3575b50505050565b73ffffffffffffffffffffffffffffffffffffffff81615af47ffa7fa7cf6d7dde5f9be65a67e6a1a747e7aa864dcd2d793353c722d80fbbb357938661624c565b6040805195865233602087015291169463ffffffff1693a45f808080615aad565b604080517f70a0823100000000000000000000000000000000000000000000000000000000815230600480830191909152919060208160248173ffffffffffffffffffffffffffffffffffffffff8b165afa908115614604575f91615cac575b505f805b868110615b8a575050505050615aa4565b615b948189613ada565b51615ba2575b600101615b79565b90615bb890615bb1838a613ada565b5190615186565b90828211615c8357615bff6138c3615bed615bd3848a613ada565b5173ffffffffffffffffffffffffffffffffffffffff1690565b615bf7848c613ada565b51908c6161b4565b15615b9a579c5087615c79615c718f615c4f615bd3615c48615c21848f613ada565b519673ffffffffffffffffffffffffffffffffffffffff165f5261087360205260405f2090565b928b613ada565b73ffffffffffffffffffffffffffffffffffffffff165f5260205260405f2090565b918254615186565b905560019c615b9a565b505050517f5bb55062000000000000000000000000000000000000000000000000000000008152fd5b615cc5915060203d6020116114315761142281836105dd565b5f615b75565b60046040517fcd298b38000000000000000000000000000000000000000000000000000000008152fd5b60a01c615cfe57565b60046040517ff3d81dae000000000000000000000000000000000000000000000000000000008152fd5b73ffffffffffffffffffffffffffffffffffffffff90811690813b15615d7557906104a992917f00000000000000000000000000000000000000000000000000000000000000001661571f565b7f000000000000000000000000000000000000000000000000000000000000000016803b1561041e575f80916024604051809481937f2e1a7d4d0000000000000000000000000000000000000000000000000000000083528860048401525af1801561460457615e00575b5081471061041e575f80809381935af1615df8613b12565b501561041e57565b615e099061053d565b5f615de0565b615e1881615f42565b73ffffffffffffffffffffffffffffffffffffffff81167fbc7cd75a20ee27fd9adebab32041f755214dbc6bffa90cc0225b39da2e5c2d3b5f80a2815115801590615edd575b615e66575050565b5f80615819937f206661696c65640000000000000000000000000000000000000000000000000060408051615e9a81610551565b602781527f416464726573733a206c6f772d6c6576656c2064656c65676174652063616c6c60208201520152602081519101845af4615ed7613b12565b9161678d565b505f615e5e565b615eed81615f42565b73ffffffffffffffffffffffffffffffffffffffff81167fbc7cd75a20ee27fd9adebab32041f755214dbc6bffa90cc0225b39da2e5c2d3b5f80a2815115801590615f3a57615e66575050565b506001615e5e565b803b1561041e5773ffffffffffffffffffffffffffffffffffffffff7f360894a13ba1a3210667c828492db98dca3e2076cc3735a920a3ca505d382bbc91167fffffffffffffffffffffffff0000000000000000000000000000000000000000825416179055565b615fb48383616727565b6005819592951015613ace571593846160a3575b508315616004575b50505015615fda57565b60046040517f938a1821000000000000000000000000000000000000000000000000000000008152fd5b5f929350908291604051616055816159f060208201947f1626ba7e00000000000000000000000000000000000000000000000000000000998a875260248401526040604484015260648301906114f8565b51915afa90616062613b12565b82616095575b82616078575b50505f8080615fd0565b61608d91925060208082518301019101614fc0565b145f8061606e565b915060208251101591616068565b73ffffffffffffffffffffffffffffffffffffffff83811691161493505f615fc8565b905f8073ffffffffffffffffffffffffffffffffffffffff61612a9416927f5361666545524332303a206c6f772d6c6576656c2063616c6c206661696c65646020604051616113816104ff565b818152015260208151910182855af1615ed7613b12565b8051908115918215616140575b50501561041e57565b819250906020918101031261041e576020015161615c81610cf5565b5f80616137565b929091905f915b84518310156161ac5761617d8386613ada565b51908181101561619b575f52602052600160405f205b92019161616a565b905f52602052600160405f20616193565b915092501490565b6040517fa9059cbb00000000000000000000000000000000000000000000000000000000602082810191825273ffffffffffffffffffffffffffffffffffffffff9094166024830152604482019490945290925f9161621681606481016159f0565b519082855af1903d5f51908361622d575b50505090565b9192509061624257503b15155b5f8080616227565b600191501461623a565b9073ffffffffffffffffffffffffffffffffffffffff90817f000000000000000000000000000000000000000000000000000000000000000016151580616386575b156162be5750506104a9906162b961086a5473ffffffffffffffffffffffffffffffffffffffff1690565b6164b9565b1661630d612896610c5b6162f3856162ed612896845473ffffffffffffffffffffffffffffffffffffffff1690565b866163b3565b5473ffffffffffffffffffffffffffffffffffffffff1690565b91823b1561041e576040517fd0679d3400000000000000000000000000000000000000000000000000000000815273ffffffffffffffffffffffffffffffffffffffff9290921660048301526024820152905f908290604490829084905af18015614604576163795750565b806145f86104a99261053d565b50817f0000000000000000000000000000000000000000000000000000000000000000168282161461628e565b6040517fdd62ed3e00000000000000000000000000000000000000000000000000000000815230600482015273ffffffffffffffffffffffffffffffffffffffff8316602482015291926020838060448101038173ffffffffffffffffffffffffffffffffffffffff86165afa928315614604575f93616498575b508201809211613bf7576040517f095ea7b300000000000000000000000000000000000000000000000000000000602082015273ffffffffffffffffffffffffffffffffffffffff909316602484015260448301919091526104a991906157a6826064810161577a565b6164b291935060203d6020116114315761142281836105dd565b915f61642e565b73ffffffffffffffffffffffffffffffffffffffff809116917f000000000000000000000000000000000000000000000000000000000000000090827f0000000000000000000000000000000000000000000000000000000000000000166165228282856163b3565b604090604051917fcb75c11c0000000000000000000000000000000000000000000000000000000083526020936004958585600481875afa94851561460457869189915f976166f8575b501697604051958680927fa56ec632000000000000000000000000000000000000000000000000000000008252816165c48d6004830191909173ffffffffffffffffffffffffffffffffffffffff6020820193169052565b0392165afa938415614604575f946166d9575b5092947f000000000000000000000000000000000000000000000000000000000000000093805b61660d57505050505050505050565b61668490878111156166d35787905b84517f6fd3504e00000000000000000000000000000000000000000000000000000000815284810183815263ffffffff89166020820152604081018d905273ffffffffffffffffffffffffffffffffffffffff8c166060820152909389918591829160800190565b03815f8a5af1928315614604576166a0936166a6575b506143c7565b806165fe565b6166c590893d8b116166cc575b6166bd81836105dd565b81019061676d565b505f61669a565b503d6166b3565b8061661c565b6166f1919450853d87116114315761142281836105dd565b925f6165d7565b616719919750833d8511616720575b61671181836105dd565b810190616758565b955f61656c565b503d616707565b9060418151145f1461674f576114d391602082015190606060408401519301515f1a906167b6565b50505f90600290565b9081602091031261041e575161070481610480565b9081602091031261041e575167ffffffffffffffff8116810361041e5790565b90156167a75781511561679e575090565b3b1561041e5790565b50805190811561041e57602001fd5b7f7fffffffffffffffffffffffffffffff5d576e7357a4501ddfe92f46681b20a08411616833576020935f9360ff60809460405194855216868401526040830152606082015282805260015afa15614604575f5173ffffffffffffffffffffffffffffffffffffffff81161561682b57905f90565b505f90600190565b505050505f9060039056fea2646970667358221220a724c953d1fce17cb1461ce73332bcdf8328ce7338873703c3501f86ba63367564736f6c63430008170033",
  "devdoc": {
    "custom:security-contact": "bugs@across.to",
    "events": {
      "AdminChanged(address,address)": {
        "details": "Emitted when the admin account has changed."
      },
      "BeaconUpgraded(address)": {
        "details": "Emitted when the beacon is changed."
      },
      "Initialized(uint8)": {
        "details": "Triggered when the contract has been initialized or reinitialized."
      },
      "Upgraded(address)": {
        "details": "Emitted when the implementation is upgraded."
      }
    },
    "kind": "dev",
    "methods": {
      "__SpokePool_init(uint32,address,address)": {
        "params": {
          "_crossDomainAdmin": "Cross domain admin to set. Can be changed by admin.",
          "_initialDepositId": "Starting deposit ID. Set to 0 unless this is a re-deployment in order to mitigate relay hash collisions.",
          "_withdrawalRecipient": "Address which receives token withdrawals. Can be changed by admin. For Spoke Pools on L2, this will likely be the hub pool."
        }
      },
      "chainId()": {
        "details": "Some L2s like ZKSync don't support the CHAIN_ID opcode so we allow the implementer to override this."
      },
      "claimRelayerRefund(bytes32,bytes32)": {
        "params": {
          "l2TokenAddress": "Address of the L2 token to claim refunds for.",
          "refundAddress": "Address to send the refund to."
        }
      },
      "constructor": {
        "custom:oz-upgrades-unsafe-allow": "constructor"
      },
      "deposit(bytes32,bytes32,bytes32,bytes32,uint256,uint256,uint256,bytes32,uint32,uint32,uint32,bytes)": {
        "details": "On the destination chain, the hash of the deposit data will be used to uniquely identify this deposit, so modifying any params in it will result in a different hash and a different deposit. The hash will comprise all parameters to this function along with this chain's chainId(). Relayers are only refunded for filling deposits with deposit hashes that map exactly to the one emitted by this contract.",
        "params": {
          "depositor": "The account credited with the deposit who can request to \"speed up\" this deposit by modifying the output amount, recipient, and message.",
          "destinationChainId": "The destination chain identifier. Must be enabled along with the input token as a valid deposit route from this spoke pool or this transaction will revert.",
          "exclusiveRelayer": "The relayer that will be exclusively allowed to fill this deposit before the exclusivity deadline timestamp. This must be a valid, non-zero address if the exclusivity deadline is greater than the current block.timestamp. If the exclusivity deadline is < currentTime, then this must be address(0), and vice versa if this is address(0).",
          "exclusivityParameter": "This value is used to set the exclusivity deadline timestamp in the emitted deposit event. Before this destination chain timestamp, only the exclusiveRelayer (if set to a non-zero address), can fill this deposit. There are three ways to use this parameter:     1. NO EXCLUSIVITY: If this value is set to 0, then a timestamp of 0 will be emitted,        meaning that there is no exclusivity period.     2. OFFSET: If this value is less than MAX_EXCLUSIVITY_PERIOD_SECONDS, then add this value to        the block.timestamp to derive the exclusive relayer deadline. Note that using the parameter in this way        will expose the filler of the deposit to the risk that the block.timestamp of this event gets changed        due to a chain-reorg, which would also change the exclusivity timestamp.     3. TIMESTAMP: Otherwise, set this value as the exclusivity deadline timestamp. which is the deadline for the exclusiveRelayer to fill the deposit.",
          "fillDeadline": "The deadline for the relayer to fill the deposit. After this destination chain timestamp, the fill will revert on the destination chain. Must be set before currentTime + fillDeadlineBuffer, where currentTime is block.timestamp on this chain or this transaction will revert.",
          "inputAmount": "The amount of input tokens to pull from the caller's account and lock into this contract. This amount will be sent to the relayer on their repayment chain of choice as a refund following an optimistic challenge window in the HubPool, less a system fee.",
          "inputToken": "The token pulled from the caller's account and locked into this contract to initiate the deposit. The equivalent of this token on the relayer's repayment chain of choice will be sent as a refund. If this is equal to the wrapped native token then the caller can optionally pass in native token as msg.value, as long as msg.value = inputTokenAmount.",
          "message": "The message to send to the recipient on the destination chain if the recipient is a contract. If the message is not empty, the recipient contract must implement handleV3AcrossMessage() or the fill will revert.",
          "outputAmount": "The amount of output tokens that the relayer will send to the recipient on the destination.",
          "outputToken": "The token that the relayer will send to the recipient on the destination chain. Must be an ERC20.",
          "quoteTimestamp": "The HubPool timestamp that is used to determine the system fee paid by the depositor.  This must be set to some time between [currentTime - depositQuoteTimeBuffer, currentTime] where currentTime is block.timestamp on this chain or this transaction will revert.",
          "recipient": "The account receiving funds on the destination chain. Can be an EOA or a contract. If the output token is the wrapped native token for the chain, then the recipient will receive native token if an EOA or wrapped native token if a contract."
        }
      },
      "depositDeprecated_5947912356(address,address,uint256,uint256,int64,uint32,bytes,uint256)": {
        "details": "DEPRECATION NOTICE: this function is deprecated and will be removed in the future.      Please use deposit (under DEPOSITOR FUNCTIONS below) or depositV3 instead.Produces a FundsDeposited event with an infinite expiry, meaning that this deposit can never expire. Moreover, the event's outputToken is set to 0x0 meaning that this deposit can always be slow filled.",
        "params": {
          "amount": "Amount of tokens to deposit. Will be amount of tokens to receive less fees.",
          "destinationChainId": "Denotes network where user will receive funds from SpokePool by a relayer.",
          "message": "Arbitrary data that can be used to pass additional information to the recipient along with the tokens. Note: this is intended to be used to pass along instructions for how a contract should use or allocate the tokens.",
          "originToken": "Token to lock into this contract to initiate deposit.",
          "quoteTimestamp": "Timestamp used by relayers to compute this deposit's realizedLPFeePct which is paid to LP pool on HubPool.",
          "recipient": "Address to receive funds at on destination chain.",
          "relayerFeePct": "% of deposit amount taken out to incentivize a fast relayer."
        }
      },
      "depositFor(address,address,address,uint256,uint256,int64,uint32,bytes,uint256)": {
        "details": "DEPRECATION NOTICE: this function is deprecated and will be removed in the future.      Please use the other deposit or depositV3 instead.",
        "params": {
          "amount": "Amount of tokens to deposit. Will be amount of tokens to receive less fees.",
          "depositor": "Address who is credited for depositing funds on origin chain and can speed up the deposit.",
          "destinationChainId": "Denotes network where user will receive funds from SpokePool by a relayer.",
          "message": "Arbitrary data that can be used to pass additional information to the recipient along with the tokens. Note: this is intended to be used to pass along instructions for how a contract should use or allocate the tokens.",
          "originToken": "Token to lock into this contract to initiate deposit.",
          "quoteTimestamp": "Timestamp used by relayers to compute this deposit's realizedLPFeePct which is paid to LP pool on HubPool.",
          "recipient": "Address to receive funds at on destination chain.",
          "relayerFeePct": "% of deposit amount taken out to incentivize a fast relayer."
        }
      },
      "depositNow(bytes32,bytes32,bytes32,bytes32,uint256,uint256,uint256,bytes32,uint32,uint32,bytes)": {
        "params": {
          "depositor": "The account credited with the deposit who can request to \"speed up\" this deposit by modifying the output amount, recipient, and message.",
          "destinationChainId": "The destination chain identifier. Must be enabled along with the input token as a valid deposit route from this spoke pool or this transaction will revert.",
          "exclusiveRelayer": "The relayer that will be exclusively allowed to fill this deposit before the exclusivity deadline timestamp.",
          "exclusivityParameter": "See identically named parameter in deposit() comments.",
          "fillDeadlineOffset": "Added to the current time to set the fill deadline, which is the deadline for the relayer to fill the deposit. After this destination chain timestamp, the fill will revert on the destination chain.",
          "inputAmount": "The amount of input tokens to pull from the caller's account and lock into this contract. This amount will be sent to the relayer on their repayment chain of choice as a refund following an optimistic challenge window in the HubPool, plus a system fee.",
          "inputToken": "The token pulled from the caller's account and locked into this contract to initiate the deposit. The equivalent of this token on the relayer's repayment chain of choice will be sent as a refund. If this is equal to the wrapped native token then the caller can optionally pass in native token as msg.value, as long as msg.value = inputTokenAmount.",
          "message": "The message to send to the recipient on the destination chain if the recipient is a contract. If the message is not empty, the recipient contract must implement handleV3AcrossMessage() or the fill will revert.",
          "outputAmount": "The amount of output tokens that the relayer will send to the recipient on the destination.",
          "outputToken": "The token that the relayer will send to the recipient on the destination chain. Must be an ERC20.",
          "recipient": "The account receiving funds on the destination chain. Can be an EOA or a contract. If the output token is the wrapped native token for the chain, then the recipient will receive native token if an EOA or wrapped native token if a contract."
        }
      },
      "depositV3(address,address,address,address,uint256,uint256,uint256,address,uint32,uint32,uint32,bytes)": {
        "details": "This version mirrors the original `depositV3` function, but uses `address` types for `depositor`, `recipient`, `inputToken`, `outputToken`, and `exclusiveRelayer` for compatibility with contracts using the `address` type. The key functionality and logic remain identical, ensuring interoperability across both versions.",
        "params": {
          "depositor": "The account credited with the deposit who can request to \"speed up\" this deposit by modifying the output amount, recipient, and message.",
          "destinationChainId": "The destination chain identifier. Must be enabled along with the input token as a valid deposit route from this spoke pool or this transaction will revert.",
          "exclusiveRelayer": "The relayer exclusively allowed to fill this deposit before the exclusivity deadline.",
          "exclusivityParameter": "This value is used to set the exclusivity deadline timestamp in the emitted deposit event. Before this destination chain timestamp, only the exclusiveRelayer (if set to a non-zero address), can fill this deposit. There are three ways to use this parameter:     1. NO EXCLUSIVITY: If this value is set to 0, then a timestamp of 0 will be emitted,        meaning that there is no exclusivity period.     2. OFFSET: If this value is less than MAX_EXCLUSIVITY_PERIOD_SECONDS, then add this value to        the block.timestamp to derive the exclusive relayer deadline. Note that using the parameter in this way        will expose the filler of the deposit to the risk that the block.timestamp of this event gets changed        due to a chain-reorg, which would also change the exclusivity timestamp.     3. TIMESTAMP: Otherwise, set this value as the exclusivity deadline timestamp. which is the deadline for the exclusiveRelayer to fill the deposit.",
          "fillDeadline": "The deadline for the relayer to fill the deposit. After this destination chain timestamp, the fill will revert on the destination chain. Must be set before currentTime + fillDeadlineBuffer, where currentTime is block.timestamp on this chain.",
          "inputAmount": "The amount of input tokens pulled from the caller's account and locked into this contract. This amount will be sent to the relayer as a refund following an optimistic challenge window in the HubPool, less a system fee.",
          "inputToken": "The token pulled from the caller's account and locked into this contract to initiate the deposit. The equivalent of this token on the relayer's repayment chain of choice will be sent as a refund. If this is equal to the wrapped native token, the caller can optionally pass in native token as msg.value, provided msg.value = inputTokenAmount.",
          "message": "The message to send to the recipient on the destination chain if the recipient is a contract. If the message is not empty, the recipient contract must implement `handleV3AcrossMessage()` or the fill will revert.",
          "outputAmount": "The amount of output tokens that the relayer will send to the recipient on the destination.",
          "outputToken": "The token that the relayer will send to the recipient on the destination chain. Must be an ERC20.",
          "quoteTimestamp": "The HubPool timestamp that determines the system fee paid by the depositor. This must be set between [currentTime - depositQuoteTimeBuffer, currentTime] where currentTime is block.timestamp on this chain.",
          "recipient": "The account receiving funds on the destination chain. Can be an EOA or a contract. If the output token is the wrapped native token for the chain, then the recipient will receive native token if an EOA or wrapped native token if a contract."
        }
      },
      "depositV3Now(address,address,address,address,uint256,uint256,uint256,address,uint32,uint32,bytes)": {
        "details": "This version is identical to the original `depositV3Now` but uses `address` types for `depositor`, `recipient`, `inputToken`, `outputToken`, and `exclusiveRelayer` to support compatibility with older systems. It maintains the same logic and purpose, ensuring interoperability with both versions.",
        "params": {
          "depositor": "The account credited with the deposit, who can request to \"speed up\" this deposit by modifying the output amount, recipient, and message.",
          "destinationChainId": "The destination chain identifier. Must be enabled with the input token as a valid deposit route from this spoke pool, or the transaction will revert.",
          "exclusiveRelayer": "The relayer exclusively allowed to fill the deposit before the exclusivity deadline.",
          "exclusivityParameter": "See identically named parameter in deposit() comments.",
          "fillDeadlineOffset": "Added to the current time to set the fill deadline. After this timestamp, fills on the destination chain will revert.",
          "inputAmount": "The amount of input tokens pulled from the caller's account and locked into this contract. This amount will be sent to the relayer as a refund following an optimistic challenge window in the HubPool, plus a system fee.",
          "inputToken": "The token pulled from the caller's account and locked into this contract to initiate the deposit. Equivalent tokens on the relayer's repayment chain will be sent as a refund. If this is the wrapped native token, msg.value must equal inputTokenAmount when passed.",
          "message": "The message to send to the recipient on the destination chain. If the recipient is a contract, it must implement `handleV3AcrossMessage()` if the message is not empty, or the fill will revert.",
          "outputAmount": "The amount of output tokens the relayer will send to the recipient on the destination.",
          "outputToken": "The token the relayer will send to the recipient on the destination chain. Must be an ERC20.",
          "recipient": "The account receiving funds on the destination chain. Can be an EOA or a contract. If the output token is the wrapped native token for the chain, then the recipient will receive the native token if an EOA or wrapped native token if a contract."
        }
      },
      "emergencyDeleteRootBundle(uint256)": {
        "params": {
          "rootBundleId": "Index of the root bundle that needs to be deleted. Note: this is intentionally a uint256 to ensure that a small input range doesn't limit which indices this method is able to reach."
        }
      },
      "executeSlowRelayLeaf(((bytes32,bytes32,bytes32,bytes32,bytes32,uint256,uint256,uint256,uint256,uint32,uint32,bytes),uint256,uint256),uint32,bytes32[])": {
        "details": "Executing a slow fill leaf is equivalent to filling the relayData so this function cannot be used to double fill a recipient. The relayData that is filled is included in the slowFillLeaf and is hashed like any other fill sent through a fill method.There is no relayer credited with filling this relay since funds are sent directly out of this contract.",
        "params": {
          "proof": "Inclusion proof for this leaf in slow relay root in root bundle.",
          "rootBundleId": "Unique ID of root bundle containing slow relay root that this leaf is contained in.",
          "slowFillLeaf": "Contains all data necessary to uniquely identify a relay for this chain. This struct is hashed and included in a merkle root that is relayed to all spoke pools. - relayData: struct containing all the data needed to identify the original deposit to be slow filled. - chainId: chain identifier where slow fill leaf should be executed. If this doesn't match this chain's chainId, then this function will revert. - updatedOutputAmount: Amount to be sent to recipient out of this contract's balance. Can be set differently from relayData.outputAmount to charge a different fee because this deposit was \"slow\" filled. Usually, this will be set higher to reimburse the recipient for waiting for the slow fill."
        }
      },
      "fill(bytes32,bytes,bytes)": {
        "details": "ERC-7683 fill function.",
        "params": {
          "fillerData": "Data provided by the filler to inform the fill or express their preferences",
          "orderId": "Unique order identifier for this order",
          "originData": "Data emitted on the origin to parameterize the fill"
        }
      },
      "fillRelay((bytes32,bytes32,bytes32,bytes32,bytes32,uint256,uint256,uint256,uint256,uint32,uint32,bytes),uint256,bytes32)": {
        "details": "The fee paid to relayers and the system should be captured in the spread between output amount and input amount when adjusted to be denominated in the input token. A relayer on the destination chain will send outputAmount of outputTokens to the recipient and receive inputTokens on a repayment chain of their choice. Therefore, the fee should account for destination fee transaction costs, the relayer's opportunity cost of capital while they wait to be refunded following an optimistic challenge window in the HubPool, and a system fee charged to relayers.The hash of the relayData will be used to uniquely identify the deposit to fill, so modifying any params in it will result in a different hash and a different deposit. The hash will comprise all parameters passed to deposit() on the origin chain along with that chain's chainId(). This chain's chainId() must therefore match the destinationChainId passed into deposit. Relayers are only refunded for filling deposits with deposit hashes that map exactly to the one emitted by the origin SpokePool therefore the relayer should not modify any params in relayData.Cannot fill more than once. Partial fills are not supported.",
        "params": {
          "relayData": "struct containing all the data needed to identify the deposit to be filled. Should match all the same-named parameters emitted in the origin chain FundsDeposited event. - depositor: The account credited with the deposit who can request to \"speed up\" this deposit by modifying the output amount, recipient, and message. - recipient The account receiving funds on this chain. Can be an EOA or a contract. If the output token is the wrapped native token for the chain, then the recipient will receive native token if an EOA or wrapped native token if a contract. - inputToken: The token pulled from the caller's account to initiate the deposit. The equivalent of this token on the repayment chain will be sent as a refund to the caller. - outputToken The token that the caller will send to the recipient on the destination chain. Must be an ERC20. - inputAmount: This amount, less a system fee, will be sent to the caller on their repayment chain of choice as a refund following an optimistic challenge window in the HubPool. - outputAmount: The amount of output tokens that the caller will send to the recipient. - originChainId: The origin chain identifier. - exclusiveRelayer The relayer that will be exclusively allowed to fill this deposit before the exclusivity deadline timestamp. - fillDeadline The deadline for the caller to fill the deposit. After this timestamp, the fill will revert on the destination chain. - exclusivityDeadline: The deadline for the exclusive relayer to fill the deposit. After this timestamp, anyone can fill this deposit. Note that if this value was set in deposit by adding an offset to the deposit's block.timestamp, there is re-org risk for the caller of this method because the event's block.timestamp can change. Read the comments in `deposit` about the `exclusivityParameter` for more details. - message The message to send to the recipient if the recipient is a contract that implements a handleV3AcrossMessage() public function",
          "repaymentAddress": "Address the relayer wants to be receive their refund at.",
          "repaymentChainId": "Chain of SpokePool where relayer wants to be refunded after the challenge window has passed. Will receive inputAmount of the equivalent token to inputToken on the repayment chain."
        }
      },
      "fillRelayWithUpdatedDeposit((bytes32,bytes32,bytes32,bytes32,bytes32,uint256,uint256,uint256,uint256,uint32,uint32,bytes),uint256,bytes32,uint256,bytes32,bytes,bytes)": {
        "details": "Subject to same exclusivity deadline rules as fillV3Relay().",
        "params": {
          "depositorSignature": "Signed EIP712 hashstruct containing the deposit ID. Should be signed by the depositor account.",
          "relayData": "struct containing all the data needed to identify the deposit to be filled. See fillV3Relay().",
          "repaymentAddress": "Address the relayer wants to be receive their refund at.",
          "repaymentChainId": "Chain of SpokePool where relayer wants to be refunded after the challenge window has passed. See fillV3Relay().",
          "updatedMessage": "New message to use for this deposit.",
          "updatedOutputAmount": "New output amount to use for this deposit.",
          "updatedRecipient": "New recipient to use for this deposit."
        }
      },
      "getCurrentTime()": {
        "returns": {
          "_0": "uint for the current timestamp."
        }
      },
      "getUnsafeDepositId(address,bytes32,uint256)": {
        "details": "msgSender and depositor are both used as inputs to allow passthrough depositors to create unique deposit hash spaces for unique depositors.",
        "params": {
          "depositNonce": "The nonce used as input to produce the deposit ID.",
          "depositor": "The depositor address used as input to produce the deposit ID.",
          "msgSender": "The caller of the transaction used as input to produce the deposit ID."
        },
        "returns": {
          "_0": "The deposit ID for the unsafe deposit."
        }
      },
      "initialize(uint32,address,address,address,address)": {
        "params": {
          "_crossDomainAdmin": "Cross domain admin to set. Can be changed by admin.",
          "_fxChild": "FxChild contract, changeable by Admin.",
          "_initialDepositId": "Starting deposit ID. Set to 0 unless this is a re-deployment in order to mitigate relay hash collisions.",
          "_polygonTokenBridger": "Token routing contract that sends tokens from here to HubPool. Changeable by Admin.",
          "_withdrawalRecipient": "Address which receives token withdrawals. Can be changed by admin. For Spoke Pools on L2, this will likely be the hub pool."
        }
      },
      "pauseDeposits(bool)": {
        "details": "Affects `deposit()` but not `speedUpDeposit()`, so that existing deposits can be sped up and still relayed.",
        "params": {
          "pause": "true if the call is meant to pause the system, false if the call is meant to unpause it."
        }
      },
      "pauseFills(bool)": {
        "details": "Affects fillRelayWithUpdatedDeposit() and fillRelay().",
        "params": {
          "pause": "true if the call is meant to pause the system, false if the call is meant to unpause it."
        }
      },
      "processMessageFromRoot(uint256,address,bytes)": {
        "details": "stateId value isn't used because it isn't relevant for this method. It doesn't care what state sync triggered this call.",
        "params": {
          "data": "ABI encoded function call to execute on this contract.",
          "rootMessageSender": "Original L1 sender of data."
        }
      },
      "proxiableUUID()": {
        "details": "Implementation of the ERC1822 {proxiableUUID} function. This returns the storage slot used by the implementation. It is used to validate the implementation's compatibility when performing an upgrade. IMPORTANT: A proxy pointing at a proxiable contract should not be considered proxiable itself, because this risks bricking a proxy that upgrades to it, by delegating to itself until out of gas. Thus it is critical that this function revert if invoked through a proxy. This is guaranteed by the `notDelegated` modifier."
      },
      "relayRootBundle(bytes32,bytes32)": {
        "params": {
          "relayerRefundRoot": "Merkle root containing relayer refund leaves that can be individually executed via executeRelayerRefundLeaf().",
          "slowRelayRoot": "Merkle root containing slow relay fulfillment leaves that can be individually executed via executeSlowRelayLeaf()."
        }
      },
      "requestSlowFill((bytes32,bytes32,bytes32,bytes32,bytes32,uint256,uint256,uint256,uint256,uint32,uint32,bytes))": {
        "details": "Slow fills are not possible unless the input and output tokens are \"equivalent\", i.e. they route to the same L1 token via PoolRebalanceRoutes.Slow fills are created by inserting slow fill objects into a merkle tree that is included in the next HubPool \"root bundle\". Once the optimistic challenge window has passed, the HubPool will relay the slow root to this chain via relayRootBundle(). Once the slow root is relayed, the slow fill can be executed by anyone who calls executeSlowRelayLeaf().Cannot request a slow fill if the fill deadline has passed.Cannot request a slow fill if the relay has already been filled or a slow fill has already been requested.",
        "params": {
          "relayData": "struct containing all the data needed to identify the deposit that should be slow filled. If any of the params are missing or different from the origin chain deposit, then Across will not include a slow fill for the intended deposit."
        }
      },
      "setCrossDomainAdmin(address)": {
        "params": {
          "newCrossDomainAdmin": "New cross domain admin."
        }
      },
      "setEnableRoute(address,uint256,bool)": {
        "params": {
          "destinationChainId": "Chain ID for where depositor wants to receive funds.",
          "enabled": "True to enable deposits, False otherwise.",
          "originToken": "Token that depositor can deposit to this contract."
        }
      },
      "setFxChild(address)": {
        "params": {
          "newFxChild": "New FxChild."
        }
      },
      "setPolygonTokenBridger(address)": {
        "params": {
          "newPolygonTokenBridger": "New Polygon Token Bridger contract."
        }
      },
      "setWithdrawalRecipient(address)": {
        "params": {
          "newWithdrawalRecipient": "New withdrawal recipient address."
        }
      },
      "speedUpDeposit(bytes32,uint256,uint256,bytes32,bytes,bytes)": {
        "details": "the depositor and depositId must match the params in a FundsDeposited event that the depositor wants to speed up. The relayer has the option but not the obligation to use this updated information when filling the deposit via fillRelayWithUpdatedDeposit().",
        "params": {
          "depositId": "Deposit ID to speed up.",
          "depositor": "Depositor that must sign the depositorSignature and was the original depositor.",
          "depositorSignature": "Signed EIP712 hashstruct containing the deposit ID. Should be signed by the depositor account. If depositor is a contract, then should implement EIP1271 to sign as a contract. See _verifyUpdateV3DepositMessage() for more details about how this signature should be constructed.",
          "updatedMessage": "New message to use for this deposit. Can be modified if the recipient is a contract that expects to receive a message from the relay and for some reason needs to be modified.",
          "updatedOutputAmount": "New output amount to use for this deposit. Should be lower than previous value otherwise relayer has no incentive to use this updated value.",
          "updatedRecipient": "New recipient to use for this deposit. Can be modified if the recipient is a contract that expects to receive a message from the relay and for some reason needs to be modified."
        }
      },
      "speedUpV3Deposit(address,uint256,uint256,address,bytes,bytes)": {
        "details": "The `depositor` and `depositId` must match the parameters in a `FundsDeposited` event that the depositor wants to speed up. The relayer is not obligated but has the option to use this updated information when filling the deposit using `fillRelayWithUpdatedDeposit()`. This version uses `address` types for compatibility with systems relying on `address`-based implementations.",
        "params": {
          "depositId": "The deposit ID to speed up.",
          "depositor": "The depositor that must sign the `depositorSignature` and was the original depositor.",
          "depositorSignature": "The signed EIP712 hashstruct containing the deposit ID. Should be signed by the depositor account. If the depositor is a contract, it should implement EIP1271 to sign as a contract. See `_verifyUpdateV3DepositMessage()` for more details on how the signature should be constructed.",
          "updatedMessage": "The new message for this deposit. Can be modified if the recipient is a contract that expects to receive a message from the relay and needs to be updated.",
          "updatedOutputAmount": "The new output amount to use for this deposit. It should be lower than the previous value, otherwise the relayer has no incentive to use this updated value.",
          "updatedRecipient": "The new recipient for this deposit. Can be modified if the original recipient is a contract that expects to receive a message from the relay and needs to be changed."
        }
      },
      "unsafeDeposit(bytes32,bytes32,bytes32,bytes32,uint256,uint256,uint256,bytes32,uint256,uint32,uint32,uint32,bytes)": {
        "details": "This is labeled \"unsafe\" because there is no guarantee that the depositId emitted in the resultant FundsDeposited event is unique which means that the corresponding fill might collide with an existing relay hash on the destination chain SpokePool, which would make this deposit unfillable. In this case, the depositor would subsequently receive a refund of `inputAmount` of `inputToken` on the origin chain after the fill deadline.On the destination chain, the hash of the deposit data will be used to uniquely identify this deposit, so modifying any params in it will result in a different hash and a different deposit. The hash will comprise all parameters to this function along with this chain's chainId(). Relayers are only refunded for filling deposits with deposit hashes that map exactly to the one emitted by this contract.",
        "params": {
          "depositNonce": "The nonce that uniquely identifies this deposit. This function will combine this parameter with the msg.sender address to create a unique uint256 depositNonce and ensure that the msg.sender cannot use this function to front-run another depositor's unsafe deposit. This function guarantees that the resultant deposit nonce will not collide with a safe uint256 deposit nonce whose 24 most significant bytes are always 0.",
          "depositor": "See identically named parameter in depositV3() comments.",
          "destinationChainId": "See identically named parameter in depositV3() comments.",
          "exclusiveRelayer": "See identically named parameter in depositV3() comments.",
          "exclusivityParameter": "See identically named parameter in depositV3() comments.",
          "fillDeadline": "See identically named parameter in depositV3() comments.",
          "inputAmount": "See identically named parameter in depositV3() comments.",
          "inputToken": "See identically named parameter in depositV3() comments.",
          "message": "See identically named parameter in depositV3() comments.",
          "outputAmount": "See identically named parameter in depositV3() comments.",
          "outputToken": "See identically named parameter in depositV3() comments.",
          "quoteTimestamp": "See identically named parameter in depositV3() comments.",
          "recipient": "See identically named parameter in depositV3() comments."
        }
      },
      "upgradeTo(address)": {
        "custom:oz-upgrades-unsafe-allow-reachable": "delegatecall",
        "details": "Upgrade the implementation of the proxy to `newImplementation`. Calls {_authorizeUpgrade}. Emits an {Upgraded} event."
      },
      "upgradeToAndCall(address,bytes)": {
        "custom:oz-upgrades-unsafe-allow-reachable": "delegatecall",
        "details": "Upgrade the implementation of the proxy to `newImplementation`, and subsequently execute the function call encoded in `data`. Calls {_authorizeUpgrade}. Emits an {Upgraded} event."
      },
      "wrap()": {
        "details": "Unlike other ERC20 transfers, Matic transfers from L1 -> L2 bridging don't result in an L2 call into the contract receiving the tokens, so wrapping must be done via a separate transaction. In other words, we can't rely upon a `fallback()` method being triggered to wrap MATIC upon receiving it."
      }
    },
    "version": 1
  },
  "userdoc": {
    "kind": "user",
    "methods": {
      "__SpokePool_init(uint32,address,address)": {
        "notice": "Construct the base SpokePool."
      },
      "chainId()": {
        "notice": "Returns chain ID for this network."
      },
      "claimRelayerRefund(bytes32,bytes32)": {
        "notice": "Enables a relayer to claim outstanding repayments. Should virtually never be used, unless for some reason relayer repayment transfer fails for reasons such as token transfer reverts due to blacklisting. In this case, the relayer can still call this method and claim the tokens to a new address."
      },
      "deposit(bytes32,bytes32,bytes32,bytes32,uint256,uint256,uint256,bytes32,uint32,uint32,uint32,bytes)": {
        "notice": "Previously, this function allowed the caller to specify the exclusivityDeadline, otherwise known as the as exact timestamp on the destination chain before which only the exclusiveRelayer could fill the deposit. Now, the caller is expected to pass in a number that will be interpreted either as an offset or a fixed timestamp depending on its value.Request to bridge input token cross chain to a destination chain and receive a specified amount of output tokens. The fee paid to relayers and the system should be captured in the spread between output amount and input amount when adjusted to be denominated in the input token. A relayer on the destination chain will send outputAmount of outputTokens to the recipient and receive inputTokens on a repayment chain of their choice. Therefore, the fee should account for destination fee transaction costs, the relayer's opportunity cost of capital while they wait to be refunded following an optimistic challenge window in the HubPool, and the system fee that they'll be charged."
      },
      "depositDeprecated_5947912356(address,address,uint256,uint256,int64,uint32,bytes,uint256)": {
        "notice": "Called by user to bridge funds from origin to destination chain. Depositor will effectively lock tokens in this contract and receive a destination token on the destination chain. The origin => destination token mapping is stored on the L1 HubPool.The caller must first approve this contract to spend amount of originToken.The originToken => destinationChainId must be enabled.This method is payable because the caller is able to deposit native token if the originToken is wrappedNativeToken and this function will handle wrapping the native token to wrappedNativeToken."
      },
      "depositFor(address,address,address,uint256,uint256,int64,uint32,bytes,uint256)": {
        "notice": "The only difference between depositFor and deposit is that the depositor address stored in the relay hash can be overridden by the caller. This means that the passed in depositor can speed up the deposit, which is useful if the deposit is taken from the end user to a middle layer contract, like an aggregator or the SpokePoolVerifier, before calling deposit on this contract.The caller must first approve this contract to spend amount of originToken.The originToken => destinationChainId must be enabled.This method is payable because the caller is able to deposit native token if the originToken is wrappedNativeToken and this function will handle wrapping the native token to wrappedNativeToken."
      },
      "depositNow(bytes32,bytes32,bytes32,bytes32,uint256,uint256,uint256,bytes32,uint32,uint32,bytes)": {
        "notice": "Submits deposit and sets quoteTimestamp to current Time. Sets fill and exclusivity deadlines as offsets added to the current time. This function is designed to be called by users such as Multisig contracts who do not have certainty when their transaction will mine."
      },
      "depositV3(address,address,address,address,uint256,uint256,uint256,address,uint32,uint32,uint32,bytes)": {
        "notice": "A version of `deposit` that accepts `address` types for backward compatibility. This function allows bridging of input tokens cross-chain to a destination chain, receiving a specified amount of output tokens. The relayer is refunded in input tokens on a repayment chain of their choice, minus system fees, after an optimistic challenge window. The exclusivity period is specified as an offset from the current block timestamp."
      },
      "depositV3Now(address,address,address,address,uint256,uint256,uint256,address,uint32,uint32,bytes)": {
        "notice": "A version of `depositNow` that supports addresses as input types for backward compatibility. This function submits a deposit and sets `quoteTimestamp` to the current time. The `fill` and `exclusivity` deadlines are set as offsets added to the current time. It is designed to be called by users, including Multisig contracts, who may not have certainty when their transaction will be mined."
      },
      "emergencyDeleteRootBundle(uint256)": {
        "notice": "This method is intended to only be used in emergencies where a bad root bundle has reached the SpokePool."
      },
      "executeRelayerRefundLeaf(uint32,(uint256,uint256,uint256[],uint32,address,address[]),bytes32[])": {
        "notice": "This function can send an L2 to L1 message so we are extra cautious about preventing a griefing vector whereby someone batches this call with a bunch of other calls and produces a very large L2 burn transaction. This might make the L2 -> L1 message fail due to exceeding the L1 calldata limit."
      },
      "executeSlowRelayLeaf(((bytes32,bytes32,bytes32,bytes32,bytes32,uint256,uint256,uint256,uint256,uint32,uint32,bytes),uint256,uint256),uint32,bytes32[])": {
        "notice": "Executes a slow relay leaf stored as part of a root bundle relayed by the HubPool."
      },
      "fill(bytes32,bytes,bytes)": {
        "notice": "Fills a single leg of a particular order on the destination chain"
      },
      "fillRelay((bytes32,bytes32,bytes32,bytes32,bytes32,uint256,uint256,uint256,uint256,uint32,uint32,bytes),uint256,bytes32)": {
        "notice": "Fulfill request to bridge cross chain by sending specified output tokens to the recipient."
      },
      "fillRelayWithUpdatedDeposit((bytes32,bytes32,bytes32,bytes32,bytes32,uint256,uint256,uint256,uint256,uint32,uint32,bytes),uint256,bytes32,uint256,bytes32,bytes,bytes)": {
        "notice": "Identical to fillV3Relay except that the relayer wants to use a depositor's updated output amount, recipient, and/or message. The relayer should only use this function if they can supply a message signed by the depositor that contains the fill's matching deposit ID along with updated relay parameters. If the signature can be verified, then this function will emit a FilledV3Event that will be used by the system for refund verification purposes. In other words, this function is an alternative way to fill a a deposit than fillV3Relay."
      },
      "getCurrentTime()": {
        "notice": "Gets the current time."
      },
      "getUnsafeDepositId(address,bytes32,uint256)": {
        "notice": "Returns the deposit ID for an unsafe deposit. This function is used to compute the deposit ID in unsafeDeposit and is provided as a convenience."
      },
      "initialize(uint32,address,address,address,address)": {
        "notice": "Construct the Polygon SpokePool."
      },
      "pauseDeposits(bool)": {
        "notice": "Pauses deposit-related functions. This is intended to be used if this contract is deprecated or when something goes awry."
      },
      "pauseFills(bool)": {
        "notice": "Pauses fill-related functions. This is intended to be used if this contract is deprecated or when something goes awry."
      },
      "processMessageFromRoot(uint256,address,bytes)": {
        "notice": "Called by FxChild upon receiving L1 message that targets this contract. Performs an additional check that the L1 caller was the expected cross domain admin, and then delegate calls.Polygon bridge only executes this external function on the target Polygon contract when relaying messages from L1, so all functions on this SpokePool are expected to originate via this call."
      },
      "relayRootBundle(bytes32,bytes32)": {
        "notice": "This method stores a new root bundle in this contract that can be executed to refund relayers, fulfill slow relays, and send funds back to the HubPool on L1. This method can only be called by the admin and is designed to be called as part of a cross-chain message from the HubPool's executeRootBundle method."
      },
      "requestSlowFill((bytes32,bytes32,bytes32,bytes32,bytes32,uint256,uint256,uint256,uint256,uint32,uint32,bytes))": {
        "notice": "Request Across to send LP funds to this contract to fulfill a slow fill relay for a deposit in the next bundle."
      },
      "setCrossDomainAdmin(address)": {
        "notice": "Change cross domain admin address. Callable by admin only."
      },
      "setEnableRoute(address,uint256,bool)": {
        "notice": "Enable/Disable an origin token => destination chain ID route for deposits. Callable by admin only."
      },
      "setFxChild(address)": {
        "notice": "Change FxChild address. Callable only by admin via processMessageFromRoot."
      },
      "setPolygonTokenBridger(address)": {
        "notice": "Change polygonTokenBridger address. Callable only by admin via processMessageFromRoot."
      },
      "setWithdrawalRecipient(address)": {
        "notice": "Change L1 withdrawal recipient address. Callable by admin only."
      },
      "speedUpDeposit(bytes32,uint256,uint256,bytes32,bytes,bytes)": {
        "notice": "Depositor can use this function to signal to relayer to use updated output amount, recipient, and/or message."
      },
      "speedUpV3Deposit(address,uint256,uint256,address,bytes,bytes)": {
        "notice": "A version of `speedUpDeposit` using `address` types for backward compatibility. This function allows the depositor to signal to the relayer to use updated output amount, recipient, and/or message when filling a deposit. This can be useful when the deposit needs to be modified after the original transaction has been mined."
      },
      "unsafeDeposit(bytes32,bytes32,bytes32,bytes32,uint256,uint256,uint256,bytes32,uint256,uint32,uint32,uint32,bytes)": {
        "notice": "See deposit for details. This function is identical to deposit except that it does not use the global deposit ID counter as a deposit nonce, instead allowing the caller to pass in a deposit nonce. This function is designed to be used by anyone who wants to pre-compute their resultant relay data hash, which could be useful for filling a deposit faster and avoiding any risk of a relay hash unexpectedly changing due to another deposit front-running this one and incrementing the global deposit ID counter."
      },
      "wrap()": {
        "notice": "Allows the caller to trigger the wrapping of any unwrapped matic tokens."
      }
    },
    "notice": "Polygon specific SpokePool.",
    "version": 1
  },
  "storageLayout": {
    "storage": [
      {
        "astId": 779,
        "contract": "contracts/Polygon_SpokePool.sol:Polygon_SpokePool",
        "label": "_initialized",
        "offset": 0,
        "slot": "0",
        "type": "t_uint8"
      },
      {
        "astId": 782,
        "contract": "contracts/Polygon_SpokePool.sol:Polygon_SpokePool",
        "label": "_initializing",
        "offset": 1,
        "slot": "0",
        "type": "t_bool"
      },
      {
        "astId": 761,
        "contract": "contracts/Polygon_SpokePool.sol:Polygon_SpokePool",
        "label": "__gap",
        "offset": 0,
        "slot": "1",
        "type": "t_array(t_uint256)50_storage"
      },
      {
        "astId": 1077,
        "contract": "contracts/Polygon_SpokePool.sol:Polygon_SpokePool",
        "label": "__gap",
        "offset": 0,
        "slot": "51",
        "type": "t_array(t_uint256)50_storage"
      },
      {
        "astId": 1093,
        "contract": "contracts/Polygon_SpokePool.sol:Polygon_SpokePool",
        "label": "_status",
        "offset": 0,
        "slot": "101",
        "type": "t_uint256"
      },
      {
        "astId": 1162,
        "contract": "contracts/Polygon_SpokePool.sol:Polygon_SpokePool",
        "label": "__gap",
        "offset": 0,
        "slot": "102",
        "type": "t_array(t_uint256)49_storage"
      },
      {
        "astId": 38849,
        "contract": "contracts/Polygon_SpokePool.sol:Polygon_SpokePool",
        "label": "__gap",
        "offset": 0,
        "slot": "151",
        "type": "t_array(t_uint256)1000_storage"
      },
      {
        "astId": 38581,
        "contract": "contracts/Polygon_SpokePool.sol:Polygon_SpokePool",
        "label": "_HASHED_NAME",
        "offset": 0,
        "slot": "1151",
        "type": "t_bytes32"
      },
      {
        "astId": 38583,
        "contract": "contracts/Polygon_SpokePool.sol:Polygon_SpokePool",
        "label": "_HASHED_VERSION",
        "offset": 0,
        "slot": "1152",
        "type": "t_bytes32"
      },
      {
        "astId": 38682,
        "contract": "contracts/Polygon_SpokePool.sol:Polygon_SpokePool",
        "label": "__gap",
        "offset": 0,
        "slot": "1153",
        "type": "t_array(t_uint256)1000_storage"
      },
      {
        "astId": 20099,
        "contract": "contracts/Polygon_SpokePool.sol:Polygon_SpokePool",
        "label": "crossDomainAdmin",
        "offset": 0,
        "slot": "2153",
        "type": "t_address"
      },
      {
        "astId": 20101,
        "contract": "contracts/Polygon_SpokePool.sol:Polygon_SpokePool",
        "label": "withdrawalRecipient",
        "offset": 0,
        "slot": "2154",
        "type": "t_address"
      },
      {
        "astId": 20104,
        "contract": "contracts/Polygon_SpokePool.sol:Polygon_SpokePool",
        "label": "DEPRECATED_wrappedNativeToken",
        "offset": 0,
        "slot": "2155",
        "type": "t_contract(WETH9Interface)33570"
      },
      {
        "astId": 20106,
        "contract": "contracts/Polygon_SpokePool.sol:Polygon_SpokePool",
        "label": "DEPRECATED_depositQuoteTimeBuffer",
        "offset": 20,
        "slot": "2155",
        "type": "t_uint32"
      },
      {
        "astId": 20108,
        "contract": "contracts/Polygon_SpokePool.sol:Polygon_SpokePool",
        "label": "numberOfDeposits",
        "offset": 24,
        "slot": "2155",
        "type": "t_uint32"
      },
      {
        "astId": 20110,
        "contract": "contracts/Polygon_SpokePool.sol:Polygon_SpokePool",
        "label": "pausedFills",
        "offset": 28,
        "slot": "2155",
        "type": "t_bool"
      },
      {
        "astId": 20112,
        "contract": "contracts/Polygon_SpokePool.sol:Polygon_SpokePool",
        "label": "pausedDeposits",
        "offset": 29,
        "slot": "2155",
        "type": "t_bool"
      },
      {
        "astId": 20116,
        "contract": "contracts/Polygon_SpokePool.sol:Polygon_SpokePool",
        "label": "rootBundles",
        "offset": 0,
        "slot": "2156",
        "type": "t_array(t_struct(RootBundle)34342_storage)dyn_storage"
      },
      {
        "astId": 20122,
        "contract": "contracts/Polygon_SpokePool.sol:Polygon_SpokePool",
        "label": "enabledDepositRoutes",
        "offset": 0,
        "slot": "2157",
        "type": "t_mapping(t_address,t_mapping(t_uint256,t_bool))"
      },
      {
        "astId": 20126,
        "contract": "contracts/Polygon_SpokePool.sol:Polygon_SpokePool",
        "label": "DEPRECATED_relayFills",
        "offset": 0,
        "slot": "2158",
        "type": "t_mapping(t_bytes32,t_uint256)"
      },
      {
        "astId": 20130,
        "contract": "contracts/Polygon_SpokePool.sol:Polygon_SpokePool",
        "label": "DEPRECATED_fillCounter",
        "offset": 0,
        "slot": "2159",
        "type": "t_mapping(t_address,t_uint256)"
      },
      {
        "astId": 20134,
        "contract": "contracts/Polygon_SpokePool.sol:Polygon_SpokePool",
        "label": "DEPRECATED_depositCounter",
        "offset": 0,
        "slot": "2160",
        "type": "t_mapping(t_address,t_uint256)"
      },
      {
        "astId": 20138,
        "contract": "contracts/Polygon_SpokePool.sol:Polygon_SpokePool",
        "label": "DEPRECATED_refundsRequested",
        "offset": 0,
        "slot": "2161",
        "type": "t_mapping(t_bytes32,t_uint256)"
      },
      {
        "astId": 20142,
        "contract": "contracts/Polygon_SpokePool.sol:Polygon_SpokePool",
        "label": "fillStatuses",
        "offset": 0,
        "slot": "2162",
        "type": "t_mapping(t_bytes32,t_uint256)"
      },
      {
        "astId": 20148,
        "contract": "contracts/Polygon_SpokePool.sol:Polygon_SpokePool",
        "label": "relayerRefund",
        "offset": 0,
        "slot": "2163",
        "type": "t_mapping(t_address,t_mapping(t_address,t_uint256))"
      },
      {
        "astId": 22691,
        "contract": "contracts/Polygon_SpokePool.sol:Polygon_SpokePool",
        "label": "__gap",
        "offset": 0,
        "slot": "2164",
        "type": "t_array(t_uint256)998_storage"
      },
      {
        "astId": 19377,
        "contract": "contracts/Polygon_SpokePool.sol:Polygon_SpokePool",
        "label": "fxChild",
        "offset": 0,
        "slot": "3162",
        "type": "t_address"
      },
      {
        "astId": 19380,
        "contract": "contracts/Polygon_SpokePool.sol:Polygon_SpokePool",
        "label": "polygonTokenBridger",
        "offset": 0,
        "slot": "3163",
        "type": "t_contract(PolygonTokenBridger)19008"
      },
      {
        "astId": 19382,
        "contract": "contracts/Polygon_SpokePool.sol:Polygon_SpokePool",
        "label": "callValidated",
        "offset": 20,
        "slot": "3163",
        "type": "t_bool"
      }
    ],
    "types": {
      "t_address": {
        "encoding": "inplace",
        "label": "address",
        "numberOfBytes": "20"
      },
      "t_array(t_struct(RootBundle)34342_storage)dyn_storage": {
        "base": "t_struct(RootBundle)34342_storage",
        "encoding": "dynamic_array",
        "label": "struct SpokePoolInterface.RootBundle[]",
        "numberOfBytes": "32"
      },
      "t_array(t_uint256)1000_storage": {
        "base": "t_uint256",
        "encoding": "inplace",
        "label": "uint256[1000]",
        "numberOfBytes": "32000"
      },
      "t_array(t_uint256)49_storage": {
        "base": "t_uint256",
        "encoding": "inplace",
        "label": "uint256[49]",
        "numberOfBytes": "1568"
      },
      "t_array(t_uint256)50_storage": {
        "base": "t_uint256",
        "encoding": "inplace",
        "label": "uint256[50]",
        "numberOfBytes": "1600"
      },
      "t_array(t_uint256)998_storage": {
        "base": "t_uint256",
        "encoding": "inplace",
        "label": "uint256[998]",
        "numberOfBytes": "31936"
      },
      "t_bool": {
        "encoding": "inplace",
        "label": "bool",
        "numberOfBytes": "1"
      },
      "t_bytes32": {
        "encoding": "inplace",
        "label": "bytes32",
        "numberOfBytes": "32"
      },
      "t_contract(PolygonTokenBridger)19008": {
        "encoding": "inplace",
        "label": "contract PolygonTokenBridger",
        "numberOfBytes": "20"
      },
      "t_contract(WETH9Interface)33570": {
        "encoding": "inplace",
        "label": "contract WETH9Interface",
        "numberOfBytes": "20"
      },
      "t_mapping(t_address,t_mapping(t_address,t_uint256))": {
        "encoding": "mapping",
        "key": "t_address",
        "label": "mapping(address => mapping(address => uint256))",
        "numberOfBytes": "32",
        "value": "t_mapping(t_address,t_uint256)"
      },
      "t_mapping(t_address,t_mapping(t_uint256,t_bool))": {
        "encoding": "mapping",
        "key": "t_address",
        "label": "mapping(address => mapping(uint256 => bool))",
        "numberOfBytes": "32",
        "value": "t_mapping(t_uint256,t_bool)"
      },
      "t_mapping(t_address,t_uint256)": {
        "encoding": "mapping",
        "key": "t_address",
        "label": "mapping(address => uint256)",
        "numberOfBytes": "32",
        "value": "t_uint256"
      },
      "t_mapping(t_bytes32,t_uint256)": {
        "encoding": "mapping",
        "key": "t_bytes32",
        "label": "mapping(bytes32 => uint256)",
        "numberOfBytes": "32",
        "value": "t_uint256"
      },
      "t_mapping(t_uint256,t_bool)": {
        "encoding": "mapping",
        "key": "t_uint256",
        "label": "mapping(uint256 => bool)",
        "numberOfBytes": "32",
        "value": "t_bool"
      },
      "t_mapping(t_uint256,t_uint256)": {
        "encoding": "mapping",
        "key": "t_uint256",
        "label": "mapping(uint256 => uint256)",
        "numberOfBytes": "32",
        "value": "t_uint256"
      },
      "t_struct(RootBundle)34342_storage": {
        "encoding": "inplace",
        "label": "struct SpokePoolInterface.RootBundle",
        "members": [
          {
            "astId": 34335,
            "contract": "contracts/Polygon_SpokePool.sol:Polygon_SpokePool",
            "label": "slowRelayRoot",
            "offset": 0,
            "slot": "0",
            "type": "t_bytes32"
          },
          {
            "astId": 34337,
            "contract": "contracts/Polygon_SpokePool.sol:Polygon_SpokePool",
            "label": "relayerRefundRoot",
            "offset": 0,
            "slot": "1",
            "type": "t_bytes32"
          },
          {
            "astId": 34341,
            "contract": "contracts/Polygon_SpokePool.sol:Polygon_SpokePool",
            "label": "claimedBitmap",
            "offset": 0,
            "slot": "2",
            "type": "t_mapping(t_uint256,t_uint256)"
          }
        ],
        "numberOfBytes": "96"
      },
      "t_uint256": {
        "encoding": "inplace",
        "label": "uint256",
        "numberOfBytes": "32"
      },
      "t_uint32": {
        "encoding": "inplace",
        "label": "uint32",
        "numberOfBytes": "4"
      },
      "t_uint8": {
        "encoding": "inplace",
        "label": "uint8",
        "numberOfBytes": "1"
      }
    }
  }
}