{
  "address": "0xbcfEb7d29BB1b40c6eA3A9e3d0822a79819d63F3",
  "abi": [
    {
      "inputs": [
        {
          "internalType": "contract V3SpokePoolInterface",
          "name": "spokePool",
          "type": "address"
        },
        {
          "internalType": "address",
          "name": "recipient",
          "type": "address"
        },
        {
          "internalType": "address",
          "name": "inputToken",
          "type": "address"
        },
        {
          "internalType": "address",
          "name": "outputToken",
          "type": "address"
        },
        {
          "internalType": "uint256",
          "name": "inputAmount",
          "type": "uint256"
        },
        {
          "internalType": "uint256",
          "name": "outputAmount",
          "type": "uint256"
        },
        {
          "internalType": "uint256",
          "name": "destinationChainId",
          "type": "uint256"
        },
        {
          "internalType": "address",
          "name": "exclusiveRelayer",
          "type": "address"
        },
        {
          "internalType": "uint32",
          "name": "quoteTimestamp",
          "type": "uint32"
        },
        {
          "internalType": "uint32",
          "name": "fillDeadline",
          "type": "uint32"
        },
        {
          "internalType": "uint32",
          "name": "exclusivityDeadline",
          "type": "uint32"
        },
        {
          "internalType": "bytes",
          "name": "message",
          "type": "bytes"
        }
      ],
      "name": "deposit",
      "outputs": [],
      "stateMutability": "payable",
      "type": "function"
    }
  ],
  "transactionHash": "0xcc1a22f6f19b1ea81379f0373b49cb5207a247089d9f87d31aaf5d74854acff7",
  "args": [],
  "numDeployments": 2,
  "solcInputHash": "46ba9f7ce1bbca90bbe4d6fdc38298cd",
  "bytecode": "0x6080806040523461001657610267908161001b8239f35b5f80fdfe60806040526004361015610011575f80fd5b5f803560e01c63d2645d2014610025575f80fd5b6101807ffffffffffffffffffffffffffffffffffffffffffffffffffffffffffffffffc36011261022d5760043573ffffffffffffffffffffffffffffffffffffffff808216820361022d5760243591818316830361022d5760443592828416840361022d5760643590838216820361022d5760e43594848616860361022d576101043563ffffffff93848216820361022d576101243591858316830361022d576101443594868616860361022d5767ffffffffffffffff610164351161022d573660236101643501121561022d5767ffffffffffffffff61016435600401351161022d5736602461016435600401356101643501011161022d57608435340361022d578888163b1561022d578888163b1561022d577f7b9392320000000000000000000000000000000000000000000000000000000060805233608490815290891660a490815294891660c490815292891660e45235610104529235610124523561014452958516610164908152908316610184529482166101a490815291166101c4526101806101e452923560048101356102048190525f949391602401610224376004610164350135808401608090810186905293601f9091017fffffffffffffffffffffffffffffffffffffffffffffffffffffffffffffffe016019183913491165af180156102225761021a5780f35b506080604052005b6040513d5f823e3d90fd5b5f80fdfea264697066735822122089bf063d41a821479c0f16cb626d2c59effca8b62382a046f9a1f31f4eb9afde64736f6c63430008170033",
  "devdoc": {
    "details": "This contract must be deployed via Create2 to the same address on all chains. That way, an errant transaction sent to the wrong chain will be blocked by this contract rather than hitting a dead address. This means that this contract will not work to protect chains, like zkSync, where Create2 address derivations don't match other chains. Source: https://era.zksync.io/docs/reference/architecture/differences-with-ethereum.html#create-create2",
    "kind": "dev",
    "methods": {
      "deposit(address,address,address,address,uint256,uint256,uint256,address,uint32,uint32,uint32,bytes)": {
        "details": "Protects the caller from losing their ETH (or other native token) by reverting if the SpokePool address they intended to call does not exist on this chain. Because this contract can be deployed at the same address everywhere callers should be protected even if the transaction is submitted to an unintended network. This contract should only be used for native token deposits, as this problem only exists for native tokens.",
        "params": {
          "destinationChainId": "Denotes network where user will receive funds from SpokePool by a relayer.",
          "exclusiveRelayer": "Address of relayer who can fill this deposit before exclusivityDeadline.",
          "fillDeadline": "Timestamp after which this deposit can no longer be filled.",
          "inputAmount": "Amount of tokens to deposit.",
          "inputToken": "Token to lock into this contract to initiate deposit.",
          "message": "Arbitrary data that can be used to pass additional information to the recipient along with the tokens. Note: this is intended to be used to pass along instructions for how a contract should use or allocate the tokens.",
          "outputAmount": "Amount of tokens to receive on destination chain.",
          "outputToken": "Token to receive on destination chain.",
          "quoteTimestamp": "Timestamp used by Across to compute this deposit's fee based on HubPool state. This is passed in because this contract is unaware of current timestamp on HubPool chain (i.e. Ethereum).",
          "recipient": "Address to receive funds at on destination chain.",
          "spokePool": "Address of the SpokePool contract that the user is intending to call."
        }
      }
    },
    "version": 1
  },
  "userdoc": {
    "kind": "user",
    "methods": {
      "deposit(address,address,address,address,uint256,uint256,uint256,address,uint32,uint32,uint32,bytes)": {
        "notice": "Passthrough function to `depositV3()` on the SpokePool contract."
      }
    },
    "notice": "SpokePoolVerifier is a contract that verifies that the SpokePool exists on this chain before sending ETH to it.",
    "version": 1
  },
  "storageLayout": {
    "storage": [],
    "types": null
  }
}