{
  "address": "0x9367CC85B16932b19ee160A7AA2B251C8606d5b4",
  "abi": [
    {
      "anonymous": false,
      "inputs": [
        {
          "indexed": true,
          "internalType": "address",
          "name": "previousOwner",
          "type": "address"
        },
        {
          "indexed": true,
          "internalType": "address",
          "name": "newOwner",
          "type": "address"
        }
      ],
      "name": "OwnershipTransferred",
      "type": "event"
    },
    {
      "inputs": [
        {
          "components": [
            {
              "internalType": "address",
              "name": "target",
              "type": "address"
            },
            {
              "internalType": "bytes",
              "name": "callData",
              "type": "bytes"
            }
          ],
          "internalType": "struct PermissionedMulticall3.Call[]",
          "name": "calls",
          "type": "tuple[]"
        }
      ],
      "name": "aggregate",
      "outputs": [
        {
          "internalType": "uint256",
          "name": "blockNumber",
          "type": "uint256"
        },
        {
          "internalType": "bytes[]",
          "name": "returnData",
          "type": "bytes[]"
        }
      ],
      "stateMutability": "payable",
      "type": "function"
    },
    {
      "inputs": [
        {
          "components": [
            {
              "internalType": "address",
              "name": "target",
              "type": "address"
            },
            {
              "internalType": "bool",
              "name": "allowFailure",
              "type": "bool"
            },
            {
              "internalType": "bytes",
              "name": "callData",
              "type": "bytes"
            }
          ],
          "internalType": "struct PermissionedMulticall3.Call3[]",
          "name": "calls",
          "type": "tuple[]"
        }
      ],
      "name": "aggregate3",
      "outputs": [
        {
          "components": [
            {
              "internalType": "bool",
              "name": "success",
              "type": "bool"
            },
            {
              "internalType": "bytes",
              "name": "returnData",
              "type": "bytes"
            }
          ],
          "internalType": "struct PermissionedMulticall3.Result[]",
          "name": "returnData",
          "type": "tuple[]"
        }
      ],
      "stateMutability": "payable",
      "type": "function"
    },
    {
      "inputs": [
        {
          "components": [
            {
              "internalType": "address",
              "name": "target",
              "type": "address"
            },
            {
              "internalType": "bool",
              "name": "allowFailure",
              "type": "bool"
            },
            {
              "internalType": "uint256",
              "name": "value",
              "type": "uint256"
            },
            {
              "internalType": "bytes",
              "name": "callData",
              "type": "bytes"
            }
          ],
          "internalType": "struct PermissionedMulticall3.Call3Value[]",
          "name": "calls",
          "type": "tuple[]"
        }
      ],
      "name": "aggregate3Value",
      "outputs": [
        {
          "components": [
            {
              "internalType": "bool",
              "name": "success",
              "type": "bool"
            },
            {
              "internalType": "bytes",
              "name": "returnData",
              "type": "bytes"
            }
          ],
          "internalType": "struct PermissionedMulticall3.Result[]",
          "name": "returnData",
          "type": "tuple[]"
        }
      ],
      "stateMutability": "payable",
      "type": "function"
    },
    {
      "inputs": [
        {
          "components": [
            {
              "internalType": "address",
              "name": "target",
              "type": "address"
            },
            {
              "internalType": "bytes",
              "name": "callData",
              "type": "bytes"
            }
          ],
          "internalType": "struct PermissionedMulticall3.Call[]",
          "name": "calls",
          "type": "tuple[]"
        }
      ],
      "name": "blockAndAggregate",
      "outputs": [
        {
          "internalType": "uint256",
          "name": "blockNumber",
          "type": "uint256"
        },
        {
          "internalType": "bytes32",
          "name": "blockHash",
          "type": "bytes32"
        },
        {
          "components": [
            {
              "internalType": "bool",
              "name": "success",
              "type": "bool"
            },
            {
              "internalType": "bytes",
              "name": "returnData",
              "type": "bytes"
            }
          ],
          "internalType": "struct PermissionedMulticall3.Result[]",
          "name": "returnData",
          "type": "tuple[]"
        }
      ],
      "stateMutability": "payable",
      "type": "function"
    },
    {
      "inputs": [],
      "name": "getBasefee",
      "outputs": [
        {
          "internalType": "uint256",
          "name": "basefee",
          "type": "uint256"
        }
      ],
      "stateMutability": "view",
      "type": "function"
    },
    {
      "inputs": [
        {
          "internalType": "uint256",
          "name": "blockNumber",
          "type": "uint256"
        }
      ],
      "name": "getBlockHash",
      "outputs": [
        {
          "internalType": "bytes32",
          "name": "blockHash",
          "type": "bytes32"
        }
      ],
      "stateMutability": "view",
      "type": "function"
    },
    {
      "inputs": [],
      "name": "getBlockNumber",
      "outputs": [
        {
          "internalType": "uint256",
          "name": "blockNumber",
          "type": "uint256"
        }
      ],
      "stateMutability": "view",
      "type": "function"
    },
    {
      "inputs": [],
      "name": "getChainId",
      "outputs": [
        {
          "internalType": "uint256",
          "name": "chainid",
          "type": "uint256"
        }
      ],
      "stateMutability": "view",
      "type": "function"
    },
    {
      "inputs": [],
      "name": "getCurrentBlockCoinbase",
      "outputs": [
        {
          "internalType": "address",
          "name": "coinbase",
          "type": "address"
        }
      ],
      "stateMutability": "view",
      "type": "function"
    },
    {
      "inputs": [],
      "name": "getCurrentBlockDifficulty",
      "outputs": [
        {
          "internalType": "uint256",
          "name": "difficulty",
          "type": "uint256"
        }
      ],
      "stateMutability": "view",
      "type": "function"
    },
    {
      "inputs": [],
      "name": "getCurrentBlockGasLimit",
      "outputs": [
        {
          "internalType": "uint256",
          "name": "gaslimit",
          "type": "uint256"
        }
      ],
      "stateMutability": "view",
      "type": "function"
    },
    {
      "inputs": [],
      "name": "getCurrentBlockTimestamp",
      "outputs": [
        {
          "internalType": "uint256",
          "name": "timestamp",
          "type": "uint256"
        }
      ],
      "stateMutability": "view",
      "type": "function"
    },
    {
      "inputs": [
        {
          "internalType": "address",
          "name": "addr",
          "type": "address"
        }
      ],
      "name": "getEthBalance",
      "outputs": [
        {
          "internalType": "uint256",
          "name": "balance",
          "type": "uint256"
        }
      ],
      "stateMutability": "view",
      "type": "function"
    },
    {
      "inputs": [],
      "name": "getLastBlockHash",
      "outputs": [
        {
          "internalType": "bytes32",
          "name": "blockHash",
          "type": "bytes32"
        }
      ],
      "stateMutability": "view",
      "type": "function"
    },
    {
      "inputs": [],
      "name": "owner",
      "outputs": [
        {
          "internalType": "address",
          "name": "",
          "type": "address"
        }
      ],
      "stateMutability": "view",
      "type": "function"
    },
    {
      "inputs": [],
      "name": "renounceOwnership",
      "outputs": [],
      "stateMutability": "nonpayable",
      "type": "function"
    },
    {
      "inputs": [
        {
          "internalType": "address",
          "name": "newOwner",
          "type": "address"
        }
      ],
      "name": "transferOwnership",
      "outputs": [],
      "stateMutability": "nonpayable",
      "type": "function"
    },
    {
      "inputs": [
        {
          "internalType": "bool",
          "name": "requireSuccess",
          "type": "bool"
        },
        {
          "components": [
            {
              "internalType": "address",
              "name": "target",
              "type": "address"
            },
            {
              "internalType": "bytes",
              "name": "callData",
              "type": "bytes"
            }
          ],
          "internalType": "struct PermissionedMulticall3.Call[]",
          "name": "calls",
          "type": "tuple[]"
        }
      ],
      "name": "tryAggregate",
      "outputs": [
        {
          "components": [
            {
              "internalType": "bool",
              "name": "success",
              "type": "bool"
            },
            {
              "internalType": "bytes",
              "name": "returnData",
              "type": "bytes"
            }
          ],
          "internalType": "struct PermissionedMulticall3.Result[]",
          "name": "returnData",
          "type": "tuple[]"
        }
      ],
      "stateMutability": "payable",
      "type": "function"
    },
    {
      "inputs": [
        {
          "internalType": "bool",
          "name": "requireSuccess",
          "type": "bool"
        },
        {
          "components": [
            {
              "internalType": "address",
              "name": "target",
              "type": "address"
            },
            {
              "internalType": "bytes",
              "name": "callData",
              "type": "bytes"
            }
          ],
          "internalType": "struct PermissionedMulticall3.Call[]",
          "name": "calls",
          "type": "tuple[]"
        }
      ],
      "name": "tryBlockAndAggregate",
      "outputs": [
        {
          "internalType": "uint256",
          "name": "blockNumber",
          "type": "uint256"
        },
        {
          "internalType": "bytes32",
          "name": "blockHash",
          "type": "bytes32"
        },
        {
          "components": [
            {
              "internalType": "bool",
              "name": "success",
              "type": "bool"
            },
            {
              "internalType": "bytes",
              "name": "returnData",
              "type": "bytes"
            }
          ],
          "internalType": "struct PermissionedMulticall3.Result[]",
          "name": "returnData",
          "type": "tuple[]"
        }
      ],
      "stateMutability": "payable",
      "type": "function"
    },
    {
      "inputs": [
        {
          "internalType": "address[]",
          "name": "senders",
          "type": "address[]"
        },
        {
          "internalType": "bool[]",
          "name": "value",
          "type": "bool[]"
        }
      ],
      "name": "whitelist",
      "outputs": [],
      "stateMutability": "nonpayable",
      "type": "function"
    },
    {
      "inputs": [
        {
          "internalType": "address",
          "name": "",
          "type": "address"
        }
      ],
      "name": "whitelistedSenders",
      "outputs": [
        {
          "internalType": "bool",
          "name": "",
          "type": "bool"
        }
      ],
      "stateMutability": "view",
      "type": "function"
    }
  ],
  "transactionHash": "0x4e70981b2db65cd88e330a6604460cf59d9918c667bc41a9e2fa826b2adba911",
  "args": [],
  "numDeployments": 1,
  "solcInputHash": "8cf77b572b3c86de2e87d5cc0dc68812",
  "bytecode": "0x6080806040523461005a575f8054336001600160a01b0319821681178355916001600160a01b03909116907f8be0079c531659141344cd1fd0a4f28419497f9722a3daafe3b4186f6b6457e09080a3611183908161005f8239f35b5f80fdfe60806040526004361015610011575f80fd5b5f3560e01c80630f28c97d14610164578063174dea711461015f578063252dba421461015a578063272efc691461015557806327e86d6e146101505780633408e4701461014b578063399542e9146101465780633e64a6961461014157806342cbb15c1461013c5780634d2301cc1461013757806355e23fa814610132578063715018a61461012d57806372425d9d1461012857806382ad56cb1461012357806386d516e81461011e5780638da5cb5b14610119578063a8b0574e14610114578063bce38bd71461010f578063c3077fa91461010a578063ee82ac5e146101055763f2fde38b14610100575f80fd5b610ceb565b610caf565b610bfd565b610bd4565b610b9c565b610b4c565b610b14565b610a21565b6109e9565b61094f565b610847565b610801565b6107c9565b610791565b610754565b61069f565b610644565b6105d8565b6104c5565b61031b565b3461019c575f7ffffffffffffffffffffffffffffffffffffffffffffffffffffffffffffffffc36011261019c576020604051428152f35b5f80fd5b9181601f8401121561019c5782359167ffffffffffffffff831161019c576020808501948460051b01011161019c57565b60207ffffffffffffffffffffffffffffffffffffffffffffffffffffffffffffffffc82011261019c576004359067ffffffffffffffff821161019c5761021a916004016101a0565b9091565b91908251928382525f5b8481106102665750507fffffffffffffffffffffffffffffffffffffffffffffffffffffffffffffffe0601f845f6020809697860101520116010190565b602081830181015184830182015201610228565b908082519081815260208091019281808460051b8301019501935f915b8483106102a75750505050505090565b90919293949584806102f7837fffffffffffffffffffffffffffffffffffffffffffffffffffffffffffffffe086600196030187528a51836040918051151584520151918185820152019061021e565b9801930193019194939290610297565b90602061031892818152019061027a565b90565b610324366101d1565b335f526001602091600160205260409260ff60405f2054161561019c575f9461034c83610e32565b945f5b84811061037557610371876103658a3414610d9d565b60405191829182610307565b0390f35b61037f8188610edd565b518461038c838887610ef6565b916103d75f8087860135809e019d6103a387610f36565b906103b16060890189610f40565b91906103c18c5180948193610f91565b03925af16103cd610f9e565b8385015215158252565b5191013517156103e857850161034f565b837f08c379a0000000000000000000000000000000000000000000000000000000005f5260045260176024527f4d756c746963616c6c333a2063616c6c206661696c656400000000000000000060445260845ffd5b906040820190825260206040602084015283518092526060830192602060608460051b8301019501935f915b8483106104795750505050505090565b90919293949584806104b5837fffffffffffffffffffffffffffffffffffffffffffffffffffffffffffffffa086600196030187528a5161021e565b9801930193019194939290610469565b6104ce366101d1565b335f5260019160206001602052604060ff60405f2054161561019c576104fb6104f685610e1a565b610dd1565b938085527fffffffffffffffffffffffffffffffffffffffffffffffffffffffffffffffe061052982610e1a565b01835f5b8281106105aa575050505f5b81811061054f576040518061037188438361043d565b806105a45f806105618b95878b610ff7565b8161057861056e83610f36565b928b810190610f40565b91906105888b5180948193610f91565b03925af1610594610f9e565b61059e848b610edd565b52610d9d565b01610539565b606082828a01015201849061052d565b73ffffffffffffffffffffffffffffffffffffffff81160361019c57565b3461019c5760207ffffffffffffffffffffffffffffffffffffffffffffffffffffffffffffffffc36011261019c5773ffffffffffffffffffffffffffffffffffffffff600435610628816105ba565b165f526001602052602060ff60405f2054166040519015158152f35b3461019c575f7ffffffffffffffffffffffffffffffffffffffffffffffffffffffffffffffffc36011261019c5760206040517fffffffffffffffffffffffffffffffffffffffffffffffffffffffffffffffff4301408152f35b3461019c575f7ffffffffffffffffffffffffffffffffffffffffffffffffffffffffffffffffc36011261019c576020604051468152f35b8015150361019c57565b9060407ffffffffffffffffffffffffffffffffffffffffffffffffffffffffffffffffc83011261019c57600435610718816106d7565b916024359067ffffffffffffffff821161019c5761021a916004016101a0565b610318939260609282526020820152816040820152019061027a565b61075d366106e1565b919091335f52600160205260ff60405f2054161561019c576103719261078292611087565b60405191829143404384610738565b3461019c575f7ffffffffffffffffffffffffffffffffffffffffffffffffffffffffffffffffc36011261019c576020604051488152f35b3461019c575f7ffffffffffffffffffffffffffffffffffffffffffffffffffffffffffffffffc36011261019c576020604051438152f35b3461019c5760207ffffffffffffffffffffffffffffffffffffffffffffffffffffffffffffffffc36011261019c57602060043561083e816105ba565b31604051908152f35b3461019c576040807ffffffffffffffffffffffffffffffffffffffffffffffffffffffffffffffffc36011261019c5767ffffffffffffffff9060043582811161019c576108999036906004016101a0565b9260243590811161019c576108b29036906004016101a0565b9290936108bd61112d565b83810361019c575f5b8181106108cf57005b806108dd6001928789611037565b356108e7816106d7565b73ffffffffffffffffffffffffffffffffffffffff610907838689611037565b35610911816105ba565b165f5282602052845f209060ff7fffffffffffffffffffffffffffffffffffffffffffffffffffffffffffffff0083541691151516179055016108c6565b3461019c575f7ffffffffffffffffffffffffffffffffffffffffffffffffffffffffffffffffc36011261019c5761098561112d565b5f73ffffffffffffffffffffffffffffffffffffffff81547fffffffffffffffffffffffff000000000000000000000000000000000000000081168355167f8be0079c531659141344cd1fd0a4f28419497f9722a3daafe3b4186f6b6457e08280a3005b3461019c575f7ffffffffffffffffffffffffffffffffffffffffffffffffffffffffffffffffc36011261019c576020604051448152f35b610a2a366101d1565b90335f526001602092600160205260409360ff60405f2054161561019c57610a5182610e32565b935f5b838110610a6957604051806103718882610307565b610a738187610edd565b5183610a80838786611047565b91610aae5f808c6103c182610a9489610f36565b92610aa1818b018b610f40565b9390915180948193610f91565b519101351715610abf578401610a54565b827f08c379a0000000000000000000000000000000000000000000000000000000005f5260045260176024527f4d756c746963616c6c333a2063616c6c206661696c656400000000000000000060445260645ffd5b3461019c575f7ffffffffffffffffffffffffffffffffffffffffffffffffffffffffffffffffc36011261019c576020604051458152f35b3461019c575f7ffffffffffffffffffffffffffffffffffffffffffffffffffffffffffffffffc36011261019c57602073ffffffffffffffffffffffffffffffffffffffff5f5416604051908152f35b3461019c575f7ffffffffffffffffffffffffffffffffffffffffffffffffffffffffffffffffc36011261019c576020604051418152f35b610371610be9610be3366106e1565b91611087565b60405191829160208352602083019061027a565b610c06366101d1565b90335f52600191602091600160205260409260ff60405f2054161561019c57610c2e83610e32565b935f5b848110610c4a5760405180610371884380409084610738565b80610ca9610c59899389610edd565b515f80610c67858b8b610ff7565b81610c80823592610c77846105ba565b8b810190610f40565b9190828b519384928337810182815203925af1610c9b610f9e565b878301521515809152610d9d565b01610c31565b3461019c5760207ffffffffffffffffffffffffffffffffffffffffffffffffffffffffffffffffc36011261019c576020604051600435408152f35b3461019c5760207ffffffffffffffffffffffffffffffffffffffffffffffffffffffffffffffffc36011261019c57600435610d26816105ba565b610d2e61112d565b73ffffffffffffffffffffffffffffffffffffffff80911690811561019c575f54827fffffffffffffffffffffffff00000000000000000000000000000000000000008216175f55167f8be0079c531659141344cd1fd0a4f28419497f9722a3daafe3b4186f6b6457e05f80a3005b1561019c57565b7f4e487b71000000000000000000000000000000000000000000000000000000005f52604160045260245ffd5b907fffffffffffffffffffffffffffffffffffffffffffffffffffffffffffffffe0601f604051930116820182811067ffffffffffffffff821117610e1557604052565b610da4565b67ffffffffffffffff8111610e155760051b60200190565b90610e3f6104f683610e1a565b8281527fffffffffffffffffffffffffffffffffffffffffffffffffffffffffffffffe0610e6d8294610e1a565b015f5b818110610e7c57505050565b604090815182810181811067ffffffffffffffff821117610e1557602093525f815282606081830152828601015201610e70565b7f4e487b71000000000000000000000000000000000000000000000000000000005f52603260045260245ffd5b8051821015610ef15760209160051b010190565b610eb0565b9190811015610ef15760051b810135907fffffffffffffffffffffffffffffffffffffffffffffffffffffffffffffff818136030182121561019c570190565b35610318816105ba565b9035907fffffffffffffffffffffffffffffffffffffffffffffffffffffffffffffffe18136030182121561019c570180359067ffffffffffffffff821161019c5760200191813603831361019c57565b908092918237015f815290565b3d15610ff2573d9067ffffffffffffffff8211610e1557610fe660207fffffffffffffffffffffffffffffffffffffffffffffffffffffffffffffffe0601f85011601610dd1565b9182523d5f602084013e565b606090565b9190811015610ef15760051b810135907fffffffffffffffffffffffffffffffffffffffffffffffffffffffffffffffc18136030182121561019c570190565b9190811015610ef15760051b0190565b9190811015610ef15760051b810135907fffffffffffffffffffffffffffffffffffffffffffffffffffffffffffffffa18136030182121561019c570190565b91335f52600191602093600160205260409460ff60405f2054161561019c576110af84610e32565b955f5b8581106110c3575050505050505090565b806110cf88928a610edd565b51855f806110de858c8c610ff7565b816110ee823592610c77846105ba565b9190828b519384928337810182815203925af1611109610f9e565b87840152151580925261111e575b50016110b2565b61112790610d9d565b5f611117565b73ffffffffffffffffffffffffffffffffffffffff5f5416330361019c5756fea26469706673582212209eca82ca5db63b46f49f3bde52ab2c297705a6b6b03786ac7c85932d21ca626a64736f6c63430008170033",
  "devdoc": {
    "author": "Michael Elliot <mike@makerdao.com>Joshua Levine <joshua@makerdao.com>Nick Johnson <arachnid@notdot.net>Andreas Bigger <andreas@nascent.xyz>Matt Solomon <matt@mattsolomon.dev>",
    "details": "This contract is designed to be used as part of a permissioned system where this contract can be whitelisted      to call other contracts on behalf of the whitelisted senders. The benefit is that the whitelisted senders      can still batch call permissioned functions with unpermissioned functions by going through this contract.Multicall & Multicall2 backwards-compatibleAggregate methods are marked `payable` to save 24 gas per call",
    "kind": "dev",
    "methods": {
      "aggregate((address,bytes)[])": {
        "params": {
          "calls": "An array of Call structs"
        },
        "returns": {
          "blockNumber": "The block number where the calls were executed",
          "returnData": "An array of bytes containing the responses"
        }
      },
      "aggregate3((address,bool,bytes)[])": {
        "params": {
          "calls": "An array of Call3 structs"
        },
        "returns": {
          "returnData": "An array of Result structs"
        }
      },
      "aggregate3Value((address,bool,uint256,bytes)[])": {
        "params": {
          "calls": "An array of Call3Value structs"
        },
        "returns": {
          "returnData": "An array of Result structs"
        }
      },
      "blockAndAggregate((address,bytes)[])": {
        "params": {
          "calls": "An array of Call structs"
        },
        "returns": {
          "blockHash": "The hash of the block where the calls were executed",
          "blockNumber": "The block number where the calls were executed",
          "returnData": "An array of Result structs"
        }
      },
      "getBlockHash(uint256)": {
        "params": {
          "blockNumber": "The block number"
        }
      },
      "owner()": {
        "details": "Returns the address of the current owner."
      },
      "renounceOwnership()": {
        "details": "Leaves the contract without owner. It will not be possible to call `onlyOwner` functions. Can only be called by the current owner. NOTE: Renouncing ownership will leave the contract without an owner, thereby disabling any functionality that is only available to the owner."
      },
      "transferOwnership(address)": {
        "details": "Transfers ownership of the contract to a new account (`newOwner`). Can only be called by the current owner."
      },
      "tryAggregate(bool,(address,bytes)[])": {
        "params": {
          "calls": "An array of Call structs",
          "requireSuccess": "If true, require all calls to succeed"
        },
        "returns": {
          "returnData": "An array of Result structs"
        }
      },
      "tryBlockAndAggregate(bool,(address,bytes)[])": {
        "params": {
          "calls": "An array of Call structs"
        },
        "returns": {
          "blockHash": "The hash of the block where the calls were executed",
          "blockNumber": "The block number where the calls were executed",
          "returnData": "An array of Result structs"
        }
      }
    },
    "title": "PermissionedMulticall3",
    "version": 1
  },
  "userdoc": {
    "kind": "user",
    "methods": {
      "aggregate((address,bytes)[])": {
        "notice": "Backwards-compatible call aggregation with Multicall"
      },
      "aggregate3((address,bool,bytes)[])": {
        "notice": "Aggregate calls, ensuring each returns success if required"
      },
      "aggregate3Value((address,bool,uint256,bytes)[])": {
        "notice": "Aggregate calls with a msg valueReverts if msg.value is less than the sum of the call values"
      },
      "blockAndAggregate((address,bytes)[])": {
        "notice": "Backwards-compatible with Multicall2Aggregate calls and allow failures using tryAggregate"
      },
      "getBasefee()": {
        "notice": "Gets the base fee of the given blockCan revert if the BASEFEE opcode is not implemented by the given chain"
      },
      "getBlockHash(uint256)": {
        "notice": "Returns the block hash for the given block number"
      },
      "getBlockNumber()": {
        "notice": "Returns the block number"
      },
      "getChainId()": {
        "notice": "Returns the chain id"
      },
      "getCurrentBlockCoinbase()": {
        "notice": "Returns the block coinbase"
      },
      "getCurrentBlockDifficulty()": {
        "notice": "Returns the block difficulty"
      },
      "getCurrentBlockGasLimit()": {
        "notice": "Returns the block gas limit"
      },
      "getCurrentBlockTimestamp()": {
        "notice": "Returns the block timestamp"
      },
      "getEthBalance(address)": {
        "notice": "Returns the (ETH) balance of a given address"
      },
      "getLastBlockHash()": {
        "notice": "Returns the block hash of the last block"
      },
      "tryAggregate(bool,(address,bytes)[])": {
        "notice": "Backwards-compatible with Multicall2Aggregate calls without requiring success"
      },
      "tryBlockAndAggregate(bool,(address,bytes)[])": {
        "notice": "Backwards-compatible with Multicall2Aggregate calls and allow failures using tryAggregate"
      },
      "whitelistedSenders(address)": {
        "notice": "Callers who can call state changing public functions."
      }
    },
    "notice": "Aggregate results from multiple function calls but only allows a whitelisted set of msg.senders.",
    "version": 1
  },
  "storageLayout": {
    "storage": [
      {
        "astId": 7,
        "contract": "contracts/external/PermissionedMulticall3.sol:PermissionedMulticall3",
        "label": "_owner",
        "offset": 0,
        "slot": "0",
        "type": "t_address"
      },
      {
        "astId": 153,
        "contract": "contracts/external/PermissionedMulticall3.sol:PermissionedMulticall3",
        "label": "whitelistedSenders",
        "offset": 0,
        "slot": "1",
        "type": "t_mapping(t_address,t_bool)"
      }
    ],
    "types": {
      "t_address": {
        "encoding": "inplace",
        "label": "address",
        "numberOfBytes": "20"
      },
      "t_bool": {
        "encoding": "inplace",
        "label": "bool",
        "numberOfBytes": "1"
      },
      "t_mapping(t_address,t_bool)": {
        "encoding": "mapping",
        "key": "t_address",
        "label": "mapping(address => bool)",
        "numberOfBytes": "32",
        "value": "t_bool"
      }
    }
  }
}