{
  "address": "0x38015ddB8b34c84934Cff058F571349Cc7d4139d",
  "abi": [
    {
      "inputs": [
        {
          "components": [
            {
              "internalType": "address",
              "name": "target",
              "type": "address"
            },
            {
              "internalType": "bytes",
              "name": "callData",
              "type": "bytes"
            }
          ],
          "internalType": "struct PermissionedMulticall3.Call[]",
          "name": "calls",
          "type": "tuple[]"
        }
      ],
      "name": "aggregate",
      "outputs": [
        {
          "internalType": "uint256",
          "name": "blockNumber",
          "type": "uint256"
        },
        {
          "internalType": "bytes[]",
          "name": "returnData",
          "type": "bytes[]"
        }
      ],
      "stateMutability": "payable",
      "type": "function"
    },
    {
      "inputs": [
        {
          "components": [
            {
              "internalType": "address",
              "name": "target",
              "type": "address"
            },
            {
              "internalType": "bool",
              "name": "allowFailure",
              "type": "bool"
            },
            {
              "internalType": "bytes",
              "name": "callData",
              "type": "bytes"
            }
          ],
          "internalType": "struct PermissionedMulticall3.Call3[]",
          "name": "calls",
          "type": "tuple[]"
        }
      ],
      "name": "aggregate3",
      "outputs": [
        {
          "components": [
            {
              "internalType": "bool",
              "name": "success",
              "type": "bool"
            },
            {
              "internalType": "bytes",
              "name": "returnData",
              "type": "bytes"
            }
          ],
          "internalType": "struct PermissionedMulticall3.Result[]",
          "name": "returnData",
          "type": "tuple[]"
        }
      ],
      "stateMutability": "payable",
      "type": "function"
    },
    {
      "inputs": [
        {
          "components": [
            {
              "internalType": "address",
              "name": "target",
              "type": "address"
            },
            {
              "internalType": "bool",
              "name": "allowFailure",
              "type": "bool"
            },
            {
              "internalType": "uint256",
              "name": "value",
              "type": "uint256"
            },
            {
              "internalType": "bytes",
              "name": "callData",
              "type": "bytes"
            }
          ],
          "internalType": "struct PermissionedMulticall3.Call3Value[]",
          "name": "calls",
          "type": "tuple[]"
        }
      ],
      "name": "aggregate3Value",
      "outputs": [
        {
          "components": [
            {
              "internalType": "bool",
              "name": "success",
              "type": "bool"
            },
            {
              "internalType": "bytes",
              "name": "returnData",
              "type": "bytes"
            }
          ],
          "internalType": "struct PermissionedMulticall3.Result[]",
          "name": "returnData",
          "type": "tuple[]"
        }
      ],
      "stateMutability": "payable",
      "type": "function"
    },
    {
      "inputs": [
        {
          "components": [
            {
              "internalType": "address",
              "name": "target",
              "type": "address"
            },
            {
              "internalType": "bytes",
              "name": "callData",
              "type": "bytes"
            }
          ],
          "internalType": "struct PermissionedMulticall3.Call[]",
          "name": "calls",
          "type": "tuple[]"
        }
      ],
      "name": "blockAndAggregate",
      "outputs": [
        {
          "internalType": "uint256",
          "name": "blockNumber",
          "type": "uint256"
        },
        {
          "internalType": "bytes32",
          "name": "blockHash",
          "type": "bytes32"
        },
        {
          "components": [
            {
              "internalType": "bool",
              "name": "success",
              "type": "bool"
            },
            {
              "internalType": "bytes",
              "name": "returnData",
              "type": "bytes"
            }
          ],
          "internalType": "struct PermissionedMulticall3.Result[]",
          "name": "returnData",
          "type": "tuple[]"
        }
      ],
      "stateMutability": "payable",
      "type": "function"
    },
    {
      "inputs": [],
      "name": "getBasefee",
      "outputs": [
        {
          "internalType": "uint256",
          "name": "basefee",
          "type": "uint256"
        }
      ],
      "stateMutability": "view",
      "type": "function"
    },
    {
      "inputs": [
        {
          "internalType": "uint256",
          "name": "blockNumber",
          "type": "uint256"
        }
      ],
      "name": "getBlockHash",
      "outputs": [
        {
          "internalType": "bytes32",
          "name": "blockHash",
          "type": "bytes32"
        }
      ],
      "stateMutability": "view",
      "type": "function"
    },
    {
      "inputs": [],
      "name": "getBlockNumber",
      "outputs": [
        {
          "internalType": "uint256",
          "name": "blockNumber",
          "type": "uint256"
        }
      ],
      "stateMutability": "view",
      "type": "function"
    },
    {
      "inputs": [],
      "name": "getChainId",
      "outputs": [
        {
          "internalType": "uint256",
          "name": "chainid",
          "type": "uint256"
        }
      ],
      "stateMutability": "view",
      "type": "function"
    },
    {
      "inputs": [],
      "name": "getCurrentBlockCoinbase",
      "outputs": [
        {
          "internalType": "address",
          "name": "coinbase",
          "type": "address"
        }
      ],
      "stateMutability": "view",
      "type": "function"
    },
    {
      "inputs": [],
      "name": "getCurrentBlockDifficulty",
      "outputs": [
        {
          "internalType": "uint256",
          "name": "difficulty",
          "type": "uint256"
        }
      ],
      "stateMutability": "view",
      "type": "function"
    },
    {
      "inputs": [],
      "name": "getCurrentBlockGasLimit",
      "outputs": [
        {
          "internalType": "uint256",
          "name": "gaslimit",
          "type": "uint256"
        }
      ],
      "stateMutability": "view",
      "type": "function"
    },
    {
      "inputs": [],
      "name": "getCurrentBlockTimestamp",
      "outputs": [
        {
          "internalType": "uint256",
          "name": "timestamp",
          "type": "uint256"
        }
      ],
      "stateMutability": "view",
      "type": "function"
    },
    {
      "inputs": [
        {
          "internalType": "address",
          "name": "addr",
          "type": "address"
        }
      ],
      "name": "getEthBalance",
      "outputs": [
        {
          "internalType": "uint256",
          "name": "balance",
          "type": "uint256"
        }
      ],
      "stateMutability": "view",
      "type": "function"
    },
    {
      "inputs": [],
      "name": "getLastBlockHash",
      "outputs": [
        {
          "internalType": "bytes32",
          "name": "blockHash",
          "type": "bytes32"
        }
      ],
      "stateMutability": "view",
      "type": "function"
    },
    {
      "inputs": [
        {
          "internalType": "bool",
          "name": "requireSuccess",
          "type": "bool"
        },
        {
          "components": [
            {
              "internalType": "address",
              "name": "target",
              "type": "address"
            },
            {
              "internalType": "bytes",
              "name": "callData",
              "type": "bytes"
            }
          ],
          "internalType": "struct PermissionedMulticall3.Call[]",
          "name": "calls",
          "type": "tuple[]"
        }
      ],
      "name": "tryAggregate",
      "outputs": [
        {
          "components": [
            {
              "internalType": "bool",
              "name": "success",
              "type": "bool"
            },
            {
              "internalType": "bytes",
              "name": "returnData",
              "type": "bytes"
            }
          ],
          "internalType": "struct PermissionedMulticall3.Result[]",
          "name": "returnData",
          "type": "tuple[]"
        }
      ],
      "stateMutability": "payable",
      "type": "function"
    },
    {
      "inputs": [
        {
          "internalType": "bool",
          "name": "requireSuccess",
          "type": "bool"
        },
        {
          "components": [
            {
              "internalType": "address",
              "name": "target",
              "type": "address"
            },
            {
              "internalType": "bytes",
              "name": "callData",
              "type": "bytes"
            }
          ],
          "internalType": "struct PermissionedMulticall3.Call[]",
          "name": "calls",
          "type": "tuple[]"
        }
      ],
      "name": "tryBlockAndAggregate",
      "outputs": [
        {
          "internalType": "uint256",
          "name": "blockNumber",
          "type": "uint256"
        },
        {
          "internalType": "bytes32",
          "name": "blockHash",
          "type": "bytes32"
        },
        {
          "components": [
            {
              "internalType": "bool",
              "name": "success",
              "type": "bool"
            },
            {
              "internalType": "bytes",
              "name": "returnData",
              "type": "bytes"
            }
          ],
          "internalType": "struct PermissionedMulticall3.Result[]",
          "name": "returnData",
          "type": "tuple[]"
        }
      ],
      "stateMutability": "payable",
      "type": "function"
    }
  ],
  "transactionHash": "0x541a58a25a3184b1bc7606bafec5f50445ad7a82d40a9f20f10a6f2a599c0b03",
  "args": [],
  "numDeployments": 1,
  "solcInputHash": "8eea81dcd66c98bcacab463f809f2a48",
  "bytecode": "0x6080806040523461001657610d5c908161001b8239f35b5f80fdfe60806040526004361015610011575f80fd5b5f3560e01c80630f28c97d14610114578063174dea711461010f578063252dba421461010a57806327e86d6e146101055780633408e47014610100578063399542e9146100fb5780633e64a696146100f657806342cbb15c146100f15780634d2301cc146100ec57806372425d9d146100e757806382ad56cb146100e257806386d516e8146100dd578063a8b0574e146100d8578063bce38bd7146100d3578063c3077fa9146100ce5763ee82ac5e146100c9575f80fd5b610981565b6108ec565b6108c9565b610891565b610859565b610773565b61073b565b6106f5565b61069f565b610667565b610643565b610598565b61053d565b610461565b6102cb565b3461014c575f7ffffffffffffffffffffffffffffffffffffffffffffffffffffffffffffffffc36011261014c576020604051428152f35b5f80fd5b9181601f8401121561014c5782359167ffffffffffffffff831161014c576020808501948460051b01011161014c57565b60207ffffffffffffffffffffffffffffffffffffffffffffffffffffffffffffffffc82011261014c576004359067ffffffffffffffff821161014c576101ca91600401610150565b9091565b91908251928382525f5b8481106102165750507fffffffffffffffffffffffffffffffffffffffffffffffffffffffffffffffe0601f845f6020809697860101520116010190565b6020818301810151848301820152016101d8565b908082519081815260208091019281808460051b8301019501935f915b8483106102575750505050505090565b90919293949584806102a7837fffffffffffffffffffffffffffffffffffffffffffffffffffffffffffffffe086600196030187528a5183604091805115158452015191818582015201906101ce565b9801930193019194939290610247565b9060206102c892818152019061022a565b90565b6102d436610181565b5f6102de82610a4b565b915f5b81811061030757610303846102f7853414610c10565b604051918291826102b7565b0390f35b6103118185610af6565b5161031d828488610b0f565b5f806040610350818501358099019861033586610b4f565b926103436060880188610b59565b9390915180948193610baa565b03925af19161035d610bb7565b90610372602094859384840152829015159052565b51910135171561038557506001016102e1565b7f08c379a0000000000000000000000000000000000000000000000000000000005f5260045260176024527f4d756c746963616c6c333a2063616c6c206661696c656400000000000000000060445260845ffd5b906040820190825260206040602084015283518092526060830192602060608460051b8301019501935f915b8483106104155750505050505090565b9091929394958480610451837fffffffffffffffffffffffffffffffffffffffffffffffffffffffffffffffa086600196030187528a516101ce565b9801930193019194939290610405565b61046a36610181565b9061047c61047783610a33565b6109ea565b918083527fffffffffffffffffffffffffffffffffffffffffffffffffffffffffffffffe06104aa82610a33565b015f5b81811061052c5750505f5b8181106104ce57604051806103038643836103d9565b806105265f806104e16001958789610c17565b816104f96104ee83610b4f565b926020810190610b59565b919061050a60405180948193610baa565b03925af1610516610bb7565b6105208489610af6565b52610c10565b016104b8565b8060606020809388010152016104ad565b3461014c575f7ffffffffffffffffffffffffffffffffffffffffffffffffffffffffffffffffc36011261014c5760206040517fffffffffffffffffffffffffffffffffffffffffffffffffffffffffffffffff4301408152f35b3461014c575f7ffffffffffffffffffffffffffffffffffffffffffffffffffffffffffffffffc36011261014c576020604051468152f35b9060407ffffffffffffffffffffffffffffffffffffffffffffffffffffffffffffffffc83011261014c57600435801515810361014c57916024359067ffffffffffffffff821161014c576101ca91600401610150565b6102c8939260609282526020820152816040820152019061022a565b610303610658610652366105d0565b91610c97565b60405191829143404384610627565b3461014c575f7ffffffffffffffffffffffffffffffffffffffffffffffffffffffffffffffffc36011261014c576020604051488152f35b3461014c575f7ffffffffffffffffffffffffffffffffffffffffffffffffffffffffffffffffc36011261014c576020604051438152f35b73ffffffffffffffffffffffffffffffffffffffff81160361014c57565b3461014c5760207ffffffffffffffffffffffffffffffffffffffffffffffffffffffffffffffffc36011261014c576020600435610732816106d7565b31604051908152f35b3461014c575f7ffffffffffffffffffffffffffffffffffffffffffffffffffffffffffffffffc36011261014c576020604051448152f35b61077c36610181565b61078581610a4b565b905f5b81811061079d576040518061030385826102b7565b6107a78184610af6565b516107b3828487610c57565b5f806107be83610b4f565b6107d082604061034381880188610b59565b03925af1916107dd610bb7565b906107f2602094859384840152829015159052565b5191013517156108055750600101610788565b7f08c379a0000000000000000000000000000000000000000000000000000000005f5260045260176024527f4d756c746963616c6c333a2063616c6c206661696c656400000000000000000060445260645ffd5b3461014c575f7ffffffffffffffffffffffffffffffffffffffffffffffffffffffffffffffffc36011261014c576020604051458152f35b3461014c575f7ffffffffffffffffffffffffffffffffffffffffffffffffffffffffffffffffc36011261014c576020604051418152f35b6103036108d8610652366105d0565b60405191829160208352602083019061022a565b6108f536610181565b906108ff82610a4b565b905f5b83811061091b5760405180610303854380409084610627565b6109258184610af6565b51610931828685610c17565b5f80823561093e816106d7565b8161094e60209586810190610b59565b9190826040519384928337810182815203925af19061096b610bb7565b9083015215908115905261014c57600101610902565b3461014c5760207ffffffffffffffffffffffffffffffffffffffffffffffffffffffffffffffffc36011261014c576020604051600435408152f35b7f4e487b71000000000000000000000000000000000000000000000000000000005f52604160045260245ffd5b907fffffffffffffffffffffffffffffffffffffffffffffffffffffffffffffffe0601f604051930116820182811067ffffffffffffffff821117610a2e57604052565b6109bd565b67ffffffffffffffff8111610a2e5760051b60200190565b90610a5861047783610a33565b8281527fffffffffffffffffffffffffffffffffffffffffffffffffffffffffffffffe0610a868294610a33565b015f5b818110610a9557505050565b604090815182810181811067ffffffffffffffff821117610a2e57602093525f815282606081830152828601015201610a89565b7f4e487b71000000000000000000000000000000000000000000000000000000005f52603260045260245ffd5b8051821015610b0a5760209160051b010190565b610ac9565b9190811015610b0a5760051b810135907fffffffffffffffffffffffffffffffffffffffffffffffffffffffffffffff818136030182121561014c570190565b356102c8816106d7565b9035907fffffffffffffffffffffffffffffffffffffffffffffffffffffffffffffffe18136030182121561014c570180359067ffffffffffffffff821161014c5760200191813603831361014c57565b908092918237015f815290565b3d15610c0b573d9067ffffffffffffffff8211610a2e57610bff60207fffffffffffffffffffffffffffffffffffffffffffffffffffffffffffffffe0601f850116016109ea565b9182523d5f602084013e565b606090565b1561014c57565b9190811015610b0a5760051b810135907fffffffffffffffffffffffffffffffffffffffffffffffffffffffffffffffc18136030182121561014c570190565b9190811015610b0a5760051b810135907fffffffffffffffffffffffffffffffffffffffffffffffffffffffffffffffa18136030182121561014c570190565b929190610ca382610a4b565b935f5b838110610cb35750505050565b610cbd8187610af6565b5182610cca838787610c17565b5f808235610cd7816106d7565b81610ce760209586810190610b59565b9190826040519384928337810182815203925af190610d04610bb7565b90840152159182159052610d1c575b50600101610ca6565b61014c575f610d1356fea26469706673582212204a52938f5014dabd6b23a8f65d18231a1b28bd797868fd30d626fea52eecf38a64736f6c63430008170033",
  "devdoc": {
    "author": "Michael Elliot <mike@makerdao.com>Joshua Levine <joshua@makerdao.com>Nick Johnson <arachnid@notdot.net>Andreas Bigger <andreas@nascent.xyz>Matt Solomon <matt@mattsolomon.dev>",
    "details": "This contract is designed to be used as part of a permissioned system where this contract can be whitelisted      to call other contracts on behalf of the whitelisted senders. The benefit is that the whitelisted senders      can still batch call permissioned functions with unpermissioned functions by going through this contract.Multicall & Multicall2 backwards-compatibleAggregate methods are marked `payable` to save 24 gas per call",
    "kind": "dev",
    "methods": {
      "aggregate((address,bytes)[])": {
        "params": {
          "calls": "An array of Call structs"
        },
        "returns": {
          "blockNumber": "The block number where the calls were executed",
          "returnData": "An array of bytes containing the responses"
        }
      },
      "aggregate3((address,bool,bytes)[])": {
        "params": {
          "calls": "An array of Call3 structs"
        },
        "returns": {
          "returnData": "An array of Result structs"
        }
      },
      "aggregate3Value((address,bool,uint256,bytes)[])": {
        "params": {
          "calls": "An array of Call3Value structs"
        },
        "returns": {
          "returnData": "An array of Result structs"
        }
      },
      "blockAndAggregate((address,bytes)[])": {
        "params": {
          "calls": "An array of Call structs"
        },
        "returns": {
          "blockHash": "The hash of the block where the calls were executed",
          "blockNumber": "The block number where the calls were executed",
          "returnData": "An array of Result structs"
        }
      },
      "getBlockHash(uint256)": {
        "params": {
          "blockNumber": "The block number"
        }
      },
      "tryAggregate(bool,(address,bytes)[])": {
        "params": {
          "calls": "An array of Call structs",
          "requireSuccess": "If true, require all calls to succeed"
        },
        "returns": {
          "returnData": "An array of Result structs"
        }
      },
      "tryBlockAndAggregate(bool,(address,bytes)[])": {
        "params": {
          "calls": "An array of Call structs"
        },
        "returns": {
          "blockHash": "The hash of the block where the calls were executed",
          "blockNumber": "The block number where the calls were executed",
          "returnData": "An array of Result structs"
        }
      }
    },
    "title": "PermissionedMulticall3",
    "version": 1
  },
  "userdoc": {
    "kind": "user",
    "methods": {
      "aggregate((address,bytes)[])": {
        "notice": "Backwards-compatible call aggregation with Multicall"
      },
      "aggregate3((address,bool,bytes)[])": {
        "notice": "Aggregate calls, ensuring each returns success if required"
      },
      "aggregate3Value((address,bool,uint256,bytes)[])": {
        "notice": "Aggregate calls with a msg valueReverts if msg.value is less than the sum of the call values"
      },
      "blockAndAggregate((address,bytes)[])": {
        "notice": "Backwards-compatible with Multicall2Aggregate calls and allow failures using tryAggregate"
      },
      "getBasefee()": {
        "notice": "Gets the base fee of the given blockCan revert if the BASEFEE opcode is not implemented by the given chain"
      },
      "getBlockHash(uint256)": {
        "notice": "Returns the block hash for the given block number"
      },
      "getBlockNumber()": {
        "notice": "Returns the block number"
      },
      "getChainId()": {
        "notice": "Returns the chain id"
      },
      "getCurrentBlockCoinbase()": {
        "notice": "Returns the block coinbase"
      },
      "getCurrentBlockDifficulty()": {
        "notice": "Returns the block difficulty"
      },
      "getCurrentBlockGasLimit()": {
        "notice": "Returns the block gas limit"
      },
      "getCurrentBlockTimestamp()": {
        "notice": "Returns the block timestamp"
      },
      "getEthBalance(address)": {
        "notice": "Returns the (ETH) balance of a given address"
      },
      "getLastBlockHash()": {
        "notice": "Returns the block hash of the last block"
      },
      "tryAggregate(bool,(address,bytes)[])": {
        "notice": "Backwards-compatible with Multicall2Aggregate calls without requiring success"
      },
      "tryBlockAndAggregate(bool,(address,bytes)[])": {
        "notice": "Backwards-compatible with Multicall2Aggregate calls and allow failures using tryAggregate"
      }
    },
    "notice": "Aggregate results from multiple function calls but only allows a whitelisted set of msg.senders.",
    "version": 1
  },
  "storageLayout": {
    "storage": [],
    "types": null
  }
}