{
  "address": "0x7E6d9618Ba8a87421609352d6e711958A97e2512",
  "abi": [
    {
      "inputs": [
        {
          "internalType": "uint256",
          "name": "_adminUpdateBufferSeconds",
          "type": "uint256"
        },
        {
          "internalType": "address",
          "name": "_helios",
          "type": "address"
        },
        {
          "internalType": "address",
          "name": "_hubPoolStore",
          "type": "address"
        },
        {
          "internalType": "address",
          "name": "_wrappedNativeTokenAddress",
          "type": "address"
        },
        {
          "internalType": "uint32",
          "name": "_depositQuoteTimeBuffer",
          "type": "uint32"
        },
        {
          "internalType": "uint32",
          "name": "_fillDeadlineBuffer",
          "type": "uint32"
        },
        {
          "internalType": "contract IERC20",
          "name": "_l2Usdc",
          "type": "address"
        },
        {
          "internalType": "contract ITokenMessenger",
          "name": "_cctpTokenMessenger",
          "type": "address"
        }
      ],
      "stateMutability": "nonpayable",
      "type": "constructor"
    },
    {
      "inputs": [],
      "name": "AdminCallAlreadySet",
      "type": "error"
    },
    {
      "inputs": [],
      "name": "AdminCallNotValidated",
      "type": "error"
    },
    {
      "inputs": [],
      "name": "AdminUpdateTooCloseToLastHeliosUpdate",
      "type": "error"
    },
    {
      "inputs": [],
      "name": "AlreadyExecuted",
      "type": "error"
    },
    {
      "inputs": [],
      "name": "ClaimedMerkleLeaf",
      "type": "error"
    },
    {
      "inputs": [],
      "name": "DelegateCallFailed",
      "type": "error"
    },
    {
      "inputs": [],
      "name": "DepositsArePaused",
      "type": "error"
    },
    {
      "inputs": [],
      "name": "DisabledRoute",
      "type": "error"
    },
    {
      "inputs": [],
      "name": "ExpiredFillDeadline",
      "type": "error"
    },
    {
      "inputs": [],
      "name": "FillsArePaused",
      "type": "error"
    },
    {
      "inputs": [],
      "name": "InsufficientSpokePoolBalanceToExecuteLeaf",
      "type": "error"
    },
    {
      "inputs": [],
      "name": "InvalidBytes32",
      "type": "error"
    },
    {
      "inputs": [],
      "name": "InvalidChainId",
      "type": "error"
    },
    {
      "inputs": [],
      "name": "InvalidCrossDomainAdmin",
      "type": "error"
    },
    {
      "inputs": [],
      "name": "InvalidDepositorSignature",
      "type": "error"
    },
    {
      "inputs": [],
      "name": "InvalidExclusiveRelayer",
      "type": "error"
    },
    {
      "inputs": [],
      "name": "InvalidFillDeadline",
      "type": "error"
    },
    {
      "inputs": [],
      "name": "InvalidMerkleLeaf",
      "type": "error"
    },
    {
      "inputs": [],
      "name": "InvalidMerkleProof",
      "type": "error"
    },
    {
      "inputs": [],
      "name": "InvalidPayoutAdjustmentPct",
      "type": "error"
    },
    {
      "inputs": [],
      "name": "InvalidQuoteTimestamp",
      "type": "error"
    },
    {
      "inputs": [],
      "name": "InvalidRelayerFeePct",
      "type": "error"
    },
    {
      "inputs": [],
      "name": "InvalidSlowFillRequest",
      "type": "error"
    },
    {
      "inputs": [],
      "name": "InvalidWithdrawalRecipient",
      "type": "error"
    },
    {
      "inputs": [
        {
          "internalType": "bytes",
          "name": "data",
          "type": "bytes"
        }
      ],
      "name": "LowLevelCallFailed",
      "type": "error"
    },
    {
      "inputs": [],
      "name": "MaxTransferSizeExceeded",
      "type": "error"
    },
    {
      "inputs": [],
      "name": "MsgValueDoesNotMatchInputAmount",
      "type": "error"
    },
    {
      "inputs": [],
      "name": "NoRelayerRefundToClaim",
      "type": "error"
    },
    {
      "inputs": [],
      "name": "NoSlowFillsInExclusivityWindow",
      "type": "error"
    },
    {
      "inputs": [],
      "name": "NotEOA",
      "type": "error"
    },
    {
      "inputs": [],
      "name": "NotExclusiveRelayer",
      "type": "error"
    },
    {
      "inputs": [],
      "name": "NotImplemented",
      "type": "error"
    },
    {
      "inputs": [],
      "name": "NotTarget",
      "type": "error"
    },
    {
      "inputs": [],
      "name": "RelayFilled",
      "type": "error"
    },
    {
      "inputs": [],
      "name": "SlotValueMismatch",
      "type": "error"
    },
    {
      "inputs": [],
      "name": "WrongERC7683OrderId",
      "type": "error"
    },
    {
      "anonymous": false,
      "inputs": [
        {
          "indexed": false,
          "internalType": "address",
          "name": "previousAdmin",
          "type": "address"
        },
        {
          "indexed": false,
          "internalType": "address",
          "name": "newAdmin",
          "type": "address"
        }
      ],
      "name": "AdminChanged",
      "type": "event"
    },
    {
      "anonymous": false,
      "inputs": [
        {
          "indexed": true,
          "internalType": "address",
          "name": "beacon",
          "type": "address"
        }
      ],
      "name": "BeaconUpgraded",
      "type": "event"
    },
    {
      "anonymous": false,
      "inputs": [
        {
          "indexed": true,
          "internalType": "bytes32",
          "name": "l2TokenAddress",
          "type": "bytes32"
        },
        {
          "indexed": true,
          "internalType": "bytes32",
          "name": "refundAddress",
          "type": "bytes32"
        },
        {
          "indexed": false,
          "internalType": "uint256",
          "name": "amount",
          "type": "uint256"
        },
        {
          "indexed": true,
          "internalType": "address",
          "name": "caller",
          "type": "address"
        }
      ],
      "name": "ClaimedRelayerRefund",
      "type": "event"
    },
    {
      "anonymous": false,
      "inputs": [
        {
          "indexed": true,
          "internalType": "uint256",
          "name": "rootBundleId",
          "type": "uint256"
        }
      ],
      "name": "EmergencyDeletedRootBundle",
      "type": "event"
    },
    {
      "anonymous": false,
      "inputs": [
        {
          "indexed": true,
          "internalType": "address",
          "name": "originToken",
          "type": "address"
        },
        {
          "indexed": true,
          "internalType": "uint256",
          "name": "destinationChainId",
          "type": "uint256"
        },
        {
          "indexed": false,
          "internalType": "bool",
          "name": "enabled",
          "type": "bool"
        }
      ],
      "name": "EnabledDepositRoute",
      "type": "event"
    },
    {
      "anonymous": false,
      "inputs": [
        {
          "indexed": false,
          "internalType": "uint256",
          "name": "amountToReturn",
          "type": "uint256"
        },
        {
          "indexed": true,
          "internalType": "uint256",
          "name": "chainId",
          "type": "uint256"
        },
        {
          "indexed": false,
          "internalType": "uint256[]",
          "name": "refundAmounts",
          "type": "uint256[]"
        },
        {
          "indexed": true,
          "internalType": "uint32",
          "name": "rootBundleId",
          "type": "uint32"
        },
        {
          "indexed": true,
          "internalType": "uint32",
          "name": "leafId",
          "type": "uint32"
        },
        {
          "indexed": false,
          "internalType": "address",
          "name": "l2TokenAddress",
          "type": "address"
        },
        {
          "indexed": false,
          "internalType": "address[]",
          "name": "refundAddresses",
          "type": "address[]"
        },
        {
          "indexed": false,
          "internalType": "bool",
          "name": "deferredRefunds",
          "type": "bool"
        },
        {
          "indexed": false,
          "internalType": "address",
          "name": "caller",
          "type": "address"
        }
      ],
      "name": "ExecutedRelayerRefundRoot",
      "type": "event"
    },
    {
      "anonymous": false,
      "inputs": [
        {
          "indexed": false,
          "internalType": "bytes32",
          "name": "inputToken",
          "type": "bytes32"
        },
        {
          "indexed": false,
          "internalType": "bytes32",
          "name": "outputToken",
          "type": "bytes32"
        },
        {
          "indexed": false,
          "internalType": "uint256",
          "name": "inputAmount",
          "type": "uint256"
        },
        {
          "indexed": false,
          "internalType": "uint256",
          "name": "outputAmount",
          "type": "uint256"
        },
        {
          "indexed": false,
          "internalType": "uint256",
          "name": "repaymentChainId",
          "type": "uint256"
        },
        {
          "indexed": true,
          "internalType": "uint256",
          "name": "originChainId",
          "type": "uint256"
        },
        {
          "indexed": true,
          "internalType": "uint256",
          "name": "depositId",
          "type": "uint256"
        },
        {
          "indexed": false,
          "internalType": "uint32",
          "name": "fillDeadline",
          "type": "uint32"
        },
        {
          "indexed": false,
          "internalType": "uint32",
          "name": "exclusivityDeadline",
          "type": "uint32"
        },
        {
          "indexed": false,
          "internalType": "bytes32",
          "name": "exclusiveRelayer",
          "type": "bytes32"
        },
        {
          "indexed": true,
          "internalType": "bytes32",
          "name": "relayer",
          "type": "bytes32"
        },
        {
          "indexed": false,
          "internalType": "bytes32",
          "name": "depositor",
          "type": "bytes32"
        },
        {
          "indexed": false,
          "internalType": "bytes32",
          "name": "recipient",
          "type": "bytes32"
        },
        {
          "indexed": false,
          "internalType": "bytes32",
          "name": "messageHash",
          "type": "bytes32"
        },
        {
          "components": [
            {
              "internalType": "bytes32",
              "name": "updatedRecipient",
              "type": "bytes32"
            },
            {
              "internalType": "bytes32",
              "name": "updatedMessageHash",
              "type": "bytes32"
            },
            {
              "internalType": "uint256",
              "name": "updatedOutputAmount",
              "type": "uint256"
            },
            {
              "internalType": "enum V3SpokePoolInterface.FillType",
              "name": "fillType",
              "type": "uint8"
            }
          ],
          "indexed": false,
          "internalType": "struct V3SpokePoolInterface.V3RelayExecutionEventInfo",
          "name": "relayExecutionInfo",
          "type": "tuple"
        }
      ],
      "name": "FilledRelay",
      "type": "event"
    },
    {
      "anonymous": false,
      "inputs": [
        {
          "indexed": false,
          "internalType": "address",
          "name": "inputToken",
          "type": "address"
        },
        {
          "indexed": false,
          "internalType": "address",
          "name": "outputToken",
          "type": "address"
        },
        {
          "indexed": false,
          "internalType": "uint256",
          "name": "inputAmount",
          "type": "uint256"
        },
        {
          "indexed": false,
          "internalType": "uint256",
          "name": "outputAmount",
          "type": "uint256"
        },
        {
          "indexed": false,
          "internalType": "uint256",
          "name": "repaymentChainId",
          "type": "uint256"
        },
        {
          "indexed": true,
          "internalType": "uint256",
          "name": "originChainId",
          "type": "uint256"
        },
        {
          "indexed": true,
          "internalType": "uint32",
          "name": "depositId",
          "type": "uint32"
        },
        {
          "indexed": false,
          "internalType": "uint32",
          "name": "fillDeadline",
          "type": "uint32"
        },
        {
          "indexed": false,
          "internalType": "uint32",
          "name": "exclusivityDeadline",
          "type": "uint32"
        },
        {
          "indexed": false,
          "internalType": "address",
          "name": "exclusiveRelayer",
          "type": "address"
        },
        {
          "indexed": true,
          "internalType": "address",
          "name": "relayer",
          "type": "address"
        },
        {
          "indexed": false,
          "internalType": "address",
          "name": "depositor",
          "type": "address"
        },
        {
          "indexed": false,
          "internalType": "address",
          "name": "recipient",
          "type": "address"
        },
        {
          "indexed": false,
          "internalType": "bytes",
          "name": "message",
          "type": "bytes"
        },
        {
          "components": [
            {
              "internalType": "address",
              "name": "updatedRecipient",
              "type": "address"
            },
            {
              "internalType": "bytes",
              "name": "updatedMessage",
              "type": "bytes"
            },
            {
              "internalType": "uint256",
              "name": "updatedOutputAmount",
              "type": "uint256"
            },
            {
              "internalType": "enum V3SpokePoolInterface.FillType",
              "name": "fillType",
              "type": "uint8"
            }
          ],
          "indexed": false,
          "internalType": "struct V3SpokePoolInterface.LegacyV3RelayExecutionEventInfo",
          "name": "relayExecutionInfo",
          "type": "tuple"
        }
      ],
      "name": "FilledV3Relay",
      "type": "event"
    },
    {
      "anonymous": false,
      "inputs": [
        {
          "indexed": false,
          "internalType": "bytes32",
          "name": "inputToken",
          "type": "bytes32"
        },
        {
          "indexed": false,
          "internalType": "bytes32",
          "name": "outputToken",
          "type": "bytes32"
        },
        {
          "indexed": false,
          "internalType": "uint256",
          "name": "inputAmount",
          "type": "uint256"
        },
        {
          "indexed": false,
          "internalType": "uint256",
          "name": "outputAmount",
          "type": "uint256"
        },
        {
          "indexed": true,
          "internalType": "uint256",
          "name": "destinationChainId",
          "type": "uint256"
        },
        {
          "indexed": true,
          "internalType": "uint256",
          "name": "depositId",
          "type": "uint256"
        },
        {
          "indexed": false,
          "internalType": "uint32",
          "name": "quoteTimestamp",
          "type": "uint32"
        },
        {
          "indexed": false,
          "internalType": "uint32",
          "name": "fillDeadline",
          "type": "uint32"
        },
        {
          "indexed": false,
          "internalType": "uint32",
          "name": "exclusivityDeadline",
          "type": "uint32"
        },
        {
          "indexed": true,
          "internalType": "bytes32",
          "name": "depositor",
          "type": "bytes32"
        },
        {
          "indexed": false,
          "internalType": "bytes32",
          "name": "recipient",
          "type": "bytes32"
        },
        {
          "indexed": false,
          "internalType": "bytes32",
          "name": "exclusiveRelayer",
          "type": "bytes32"
        },
        {
          "indexed": false,
          "internalType": "bytes",
          "name": "message",
          "type": "bytes"
        }
      ],
      "name": "FundsDeposited",
      "type": "event"
    },
    {
      "anonymous": false,
      "inputs": [
        {
          "indexed": false,
          "internalType": "uint8",
          "name": "version",
          "type": "uint8"
        }
      ],
      "name": "Initialized",
      "type": "event"
    },
    {
      "anonymous": false,
      "inputs": [
        {
          "indexed": true,
          "internalType": "address",
          "name": "previousOwner",
          "type": "address"
        },
        {
          "indexed": true,
          "internalType": "address",
          "name": "newOwner",
          "type": "address"
        }
      ],
      "name": "OwnershipTransferred",
      "type": "event"
    },
    {
      "anonymous": false,
      "inputs": [
        {
          "indexed": false,
          "internalType": "bool",
          "name": "isPaused",
          "type": "bool"
        }
      ],
      "name": "PausedDeposits",
      "type": "event"
    },
    {
      "anonymous": false,
      "inputs": [
        {
          "indexed": false,
          "internalType": "bool",
          "name": "isPaused",
          "type": "bool"
        }
      ],
      "name": "PausedFills",
      "type": "event"
    },
    {
      "anonymous": false,
      "inputs": [
        {
          "indexed": true,
          "internalType": "uint256",
          "name": "nonce",
          "type": "uint256"
        },
        {
          "indexed": false,
          "internalType": "address",
          "name": "caller",
          "type": "address"
        }
      ],
      "name": "RelayedCallData",
      "type": "event"
    },
    {
      "anonymous": false,
      "inputs": [
        {
          "indexed": true,
          "internalType": "uint32",
          "name": "rootBundleId",
          "type": "uint32"
        },
        {
          "indexed": true,
          "internalType": "bytes32",
          "name": "relayerRefundRoot",
          "type": "bytes32"
        },
        {
          "indexed": true,
          "internalType": "bytes32",
          "name": "slowRelayRoot",
          "type": "bytes32"
        }
      ],
      "name": "RelayedRootBundle",
      "type": "event"
    },
    {
      "anonymous": false,
      "inputs": [
        {
          "indexed": false,
          "internalType": "bytes32",
          "name": "inputToken",
          "type": "bytes32"
        },
        {
          "indexed": false,
          "internalType": "bytes32",
          "name": "outputToken",
          "type": "bytes32"
        },
        {
          "indexed": false,
          "internalType": "uint256",
          "name": "inputAmount",
          "type": "uint256"
        },
        {
          "indexed": false,
          "internalType": "uint256",
          "name": "outputAmount",
          "type": "uint256"
        },
        {
          "indexed": true,
          "internalType": "uint256",
          "name": "originChainId",
          "type": "uint256"
        },
        {
          "indexed": true,
          "internalType": "uint256",
          "name": "depositId",
          "type": "uint256"
        },
        {
          "indexed": false,
          "internalType": "uint32",
          "name": "fillDeadline",
          "type": "uint32"
        },
        {
          "indexed": false,
          "internalType": "uint32",
          "name": "exclusivityDeadline",
          "type": "uint32"
        },
        {
          "indexed": false,
          "internalType": "bytes32",
          "name": "exclusiveRelayer",
          "type": "bytes32"
        },
        {
          "indexed": false,
          "internalType": "bytes32",
          "name": "depositor",
          "type": "bytes32"
        },
        {
          "indexed": false,
          "internalType": "bytes32",
          "name": "recipient",
          "type": "bytes32"
        },
        {
          "indexed": false,
          "internalType": "bytes32",
          "name": "messageHash",
          "type": "bytes32"
        }
      ],
      "name": "RequestedSlowFill",
      "type": "event"
    },
    {
      "anonymous": false,
      "inputs": [
        {
          "indexed": false,
          "internalType": "uint256",
          "name": "updatedOutputAmount",
          "type": "uint256"
        },
        {
          "indexed": true,
          "internalType": "uint256",
          "name": "depositId",
          "type": "uint256"
        },
        {
          "indexed": true,
          "internalType": "bytes32",
          "name": "depositor",
          "type": "bytes32"
        },
        {
          "indexed": false,
          "internalType": "bytes32",
          "name": "updatedRecipient",
          "type": "bytes32"
        },
        {
          "indexed": false,
          "internalType": "bytes",
          "name": "updatedMessage",
          "type": "bytes"
        },
        {
          "indexed": false,
          "internalType": "bytes",
          "name": "depositorSignature",
          "type": "bytes"
        }
      ],
      "name": "RequestedSpeedUpDeposit",
      "type": "event"
    },
    {
      "anonymous": false,
      "inputs": [
        {
          "indexed": false,
          "internalType": "uint256",
          "name": "updatedOutputAmount",
          "type": "uint256"
        },
        {
          "indexed": true,
          "internalType": "uint32",
          "name": "depositId",
          "type": "uint32"
        },
        {
          "indexed": true,
          "internalType": "address",
          "name": "depositor",
          "type": "address"
        },
        {
          "indexed": false,
          "internalType": "address",
          "name": "updatedRecipient",
          "type": "address"
        },
        {
          "indexed": false,
          "internalType": "bytes",
          "name": "updatedMessage",
          "type": "bytes"
        },
        {
          "indexed": false,
          "internalType": "bytes",
          "name": "depositorSignature",
          "type": "bytes"
        }
      ],
      "name": "RequestedSpeedUpV3Deposit",
      "type": "event"
    },
    {
      "anonymous": false,
      "inputs": [
        {
          "indexed": false,
          "internalType": "address",
          "name": "inputToken",
          "type": "address"
        },
        {
          "indexed": false,
          "internalType": "address",
          "name": "outputToken",
          "type": "address"
        },
        {
          "indexed": false,
          "internalType": "uint256",
          "name": "inputAmount",
          "type": "uint256"
        },
        {
          "indexed": false,
          "internalType": "uint256",
          "name": "outputAmount",
          "type": "uint256"
        },
        {
          "indexed": true,
          "internalType": "uint256",
          "name": "originChainId",
          "type": "uint256"
        },
        {
          "indexed": true,
          "internalType": "uint32",
          "name": "depositId",
          "type": "uint32"
        },
        {
          "indexed": false,
          "internalType": "uint32",
          "name": "fillDeadline",
          "type": "uint32"
        },
        {
          "indexed": false,
          "internalType": "uint32",
          "name": "exclusivityDeadline",
          "type": "uint32"
        },
        {
          "indexed": false,
          "internalType": "address",
          "name": "exclusiveRelayer",
          "type": "address"
        },
        {
          "indexed": false,
          "internalType": "address",
          "name": "depositor",
          "type": "address"
        },
        {
          "indexed": false,
          "internalType": "address",
          "name": "recipient",
          "type": "address"
        },
        {
          "indexed": false,
          "internalType": "bytes",
          "name": "message",
          "type": "bytes"
        }
      ],
      "name": "RequestedV3SlowFill",
      "type": "event"
    },
    {
      "anonymous": false,
      "inputs": [
        {
          "indexed": true,
          "internalType": "address",
          "name": "newWithdrawalRecipient",
          "type": "address"
        }
      ],
      "name": "SetWithdrawalRecipient",
      "type": "event"
    },
    {
      "anonymous": false,
      "inputs": [
        {
          "indexed": true,
          "internalType": "address",
          "name": "newAdmin",
          "type": "address"
        }
      ],
      "name": "SetXDomainAdmin",
      "type": "event"
    },
    {
      "anonymous": false,
      "inputs": [
        {
          "indexed": false,
          "internalType": "uint256",
          "name": "amountToReturn",
          "type": "uint256"
        },
        {
          "indexed": true,
          "internalType": "uint256",
          "name": "chainId",
          "type": "uint256"
        },
        {
          "indexed": true,
          "internalType": "uint32",
          "name": "leafId",
          "type": "uint32"
        },
        {
          "indexed": true,
          "internalType": "bytes32",
          "name": "l2TokenAddress",
          "type": "bytes32"
        },
        {
          "indexed": false,
          "internalType": "address",
          "name": "caller",
          "type": "address"
        }
      ],
      "name": "TokensBridged",
      "type": "event"
    },
    {
      "anonymous": false,
      "inputs": [
        {
          "indexed": true,
          "internalType": "address",
          "name": "implementation",
          "type": "address"
        }
      ],
      "name": "Upgraded",
      "type": "event"
    },
    {
      "anonymous": false,
      "inputs": [
        {
          "indexed": false,
          "internalType": "address",
          "name": "inputToken",
          "type": "address"
        },
        {
          "indexed": false,
          "internalType": "address",
          "name": "outputToken",
          "type": "address"
        },
        {
          "indexed": false,
          "internalType": "uint256",
          "name": "inputAmount",
          "type": "uint256"
        },
        {
          "indexed": false,
          "internalType": "uint256",
          "name": "outputAmount",
          "type": "uint256"
        },
        {
          "indexed": true,
          "internalType": "uint256",
          "name": "destinationChainId",
          "type": "uint256"
        },
        {
          "indexed": true,
          "internalType": "uint32",
          "name": "depositId",
          "type": "uint32"
        },
        {
          "indexed": false,
          "internalType": "uint32",
          "name": "quoteTimestamp",
          "type": "uint32"
        },
        {
          "indexed": false,
          "internalType": "uint32",
          "name": "fillDeadline",
          "type": "uint32"
        },
        {
          "indexed": false,
          "internalType": "uint32",
          "name": "exclusivityDeadline",
          "type": "uint32"
        },
        {
          "indexed": true,
          "internalType": "address",
          "name": "depositor",
          "type": "address"
        },
        {
          "indexed": false,
          "internalType": "address",
          "name": "recipient",
          "type": "address"
        },
        {
          "indexed": false,
          "internalType": "address",
          "name": "exclusiveRelayer",
          "type": "address"
        },
        {
          "indexed": false,
          "internalType": "bytes",
          "name": "message",
          "type": "bytes"
        }
      ],
      "name": "V3FundsDeposited",
      "type": "event"
    },
    {
      "inputs": [],
      "name": "ADMIN_UPDATE_BUFFER",
      "outputs": [
        {
          "internalType": "uint256",
          "name": "",
          "type": "uint256"
        }
      ],
      "stateMutability": "view",
      "type": "function"
    },
    {
      "inputs": [],
      "name": "EMPTY_RELAYER",
      "outputs": [
        {
          "internalType": "bytes32",
          "name": "",
          "type": "bytes32"
        }
      ],
      "stateMutability": "view",
      "type": "function"
    },
    {
      "inputs": [],
      "name": "EMPTY_REPAYMENT_CHAIN_ID",
      "outputs": [
        {
          "internalType": "uint256",
          "name": "",
          "type": "uint256"
        }
      ],
      "stateMutability": "view",
      "type": "function"
    },
    {
      "inputs": [],
      "name": "HUB_POOL_STORE_CALLDATA_MAPPING_SLOT_INDEX",
      "outputs": [
        {
          "internalType": "uint256",
          "name": "",
          "type": "uint256"
        }
      ],
      "stateMutability": "view",
      "type": "function"
    },
    {
      "inputs": [],
      "name": "INFINITE_FILL_DEADLINE",
      "outputs": [
        {
          "internalType": "uint32",
          "name": "",
          "type": "uint32"
        }
      ],
      "stateMutability": "view",
      "type": "function"
    },
    {
      "inputs": [],
      "name": "MAX_EXCLUSIVITY_PERIOD_SECONDS",
      "outputs": [
        {
          "internalType": "uint32",
          "name": "",
          "type": "uint32"
        }
      ],
      "stateMutability": "view",
      "type": "function"
    },
    {
      "inputs": [],
      "name": "MAX_TRANSFER_SIZE",
      "outputs": [
        {
          "internalType": "uint256",
          "name": "",
          "type": "uint256"
        }
      ],
      "stateMutability": "view",
      "type": "function"
    },
    {
      "inputs": [],
      "name": "UPDATE_BYTES32_DEPOSIT_DETAILS_HASH",
      "outputs": [
        {
          "internalType": "bytes32",
          "name": "",
          "type": "bytes32"
        }
      ],
      "stateMutability": "view",
      "type": "function"
    },
    {
      "inputs": [
        {
          "internalType": "uint32",
          "name": "_initialDepositId",
          "type": "uint32"
        },
        {
          "internalType": "address",
          "name": "_crossDomainAdmin",
          "type": "address"
        },
        {
          "internalType": "address",
          "name": "_withdrawalRecipient",
          "type": "address"
        }
      ],
      "name": "__SpokePool_init",
      "outputs": [],
      "stateMutability": "nonpayable",
      "type": "function"
    },
    {
      "inputs": [
        {
          "internalType": "bytes",
          "name": "_message",
          "type": "bytes"
        }
      ],
      "name": "adminExecuteMessage",
      "outputs": [],
      "stateMutability": "nonpayable",
      "type": "function"
    },
    {
      "inputs": [],
      "name": "cctpTokenMessenger",
      "outputs": [
        {
          "internalType": "contract ITokenMessenger",
          "name": "",
          "type": "address"
        }
      ],
      "stateMutability": "view",
      "type": "function"
    },
    {
      "inputs": [],
      "name": "cctpV2",
      "outputs": [
        {
          "internalType": "bool",
          "name": "",
          "type": "bool"
        }
      ],
      "stateMutability": "view",
      "type": "function"
    },
    {
      "inputs": [],
      "name": "chainId",
      "outputs": [
        {
          "internalType": "uint256",
          "name": "",
          "type": "uint256"
        }
      ],
      "stateMutability": "view",
      "type": "function"
    },
    {
      "inputs": [
        {
          "internalType": "bytes32",
          "name": "l2TokenAddress",
          "type": "bytes32"
        },
        {
          "internalType": "bytes32",
          "name": "refundAddress",
          "type": "bytes32"
        }
      ],
      "name": "claimRelayerRefund",
      "outputs": [],
      "stateMutability": "nonpayable",
      "type": "function"
    },
    {
      "inputs": [],
      "name": "crossDomainAdmin",
      "outputs": [
        {
          "internalType": "address",
          "name": "",
          "type": "address"
        }
      ],
      "stateMutability": "view",
      "type": "function"
    },
    {
      "inputs": [
        {
          "internalType": "bytes32",
          "name": "depositor",
          "type": "bytes32"
        },
        {
          "internalType": "bytes32",
          "name": "recipient",
          "type": "bytes32"
        },
        {
          "internalType": "bytes32",
          "name": "inputToken",
          "type": "bytes32"
        },
        {
          "internalType": "bytes32",
          "name": "outputToken",
          "type": "bytes32"
        },
        {
          "internalType": "uint256",
          "name": "inputAmount",
          "type": "uint256"
        },
        {
          "internalType": "uint256",
          "name": "outputAmount",
          "type": "uint256"
        },
        {
          "internalType": "uint256",
          "name": "destinationChainId",
          "type": "uint256"
        },
        {
          "internalType": "bytes32",
          "name": "exclusiveRelayer",
          "type": "bytes32"
        },
        {
          "internalType": "uint32",
          "name": "quoteTimestamp",
          "type": "uint32"
        },
        {
          "internalType": "uint32",
          "name": "fillDeadline",
          "type": "uint32"
        },
        {
          "internalType": "uint32",
          "name": "exclusivityParameter",
          "type": "uint32"
        },
        {
          "internalType": "bytes",
          "name": "message",
          "type": "bytes"
        }
      ],
      "name": "deposit",
      "outputs": [],
      "stateMutability": "payable",
      "type": "function"
    },
    {
      "inputs": [
        {
          "internalType": "address",
          "name": "recipient",
          "type": "address"
        },
        {
          "internalType": "address",
          "name": "originToken",
          "type": "address"
        },
        {
          "internalType": "uint256",
          "name": "amount",
          "type": "uint256"
        },
        {
          "internalType": "uint256",
          "name": "destinationChainId",
          "type": "uint256"
        },
        {
          "internalType": "int64",
          "name": "relayerFeePct",
          "type": "int64"
        },
        {
          "internalType": "uint32",
          "name": "quoteTimestamp",
          "type": "uint32"
        },
        {
          "internalType": "bytes",
          "name": "message",
          "type": "bytes"
        },
        {
          "internalType": "uint256",
          "name": "",
          "type": "uint256"
        }
      ],
      "name": "depositDeprecated_5947912356",
      "outputs": [],
      "stateMutability": "payable",
      "type": "function"
    },
    {
      "inputs": [
        {
          "internalType": "address",
          "name": "depositor",
          "type": "address"
        },
        {
          "internalType": "address",
          "name": "recipient",
          "type": "address"
        },
        {
          "internalType": "address",
          "name": "originToken",
          "type": "address"
        },
        {
          "internalType": "uint256",
          "name": "amount",
          "type": "uint256"
        },
        {
          "internalType": "uint256",
          "name": "destinationChainId",
          "type": "uint256"
        },
        {
          "internalType": "int64",
          "name": "relayerFeePct",
          "type": "int64"
        },
        {
          "internalType": "uint32",
          "name": "quoteTimestamp",
          "type": "uint32"
        },
        {
          "internalType": "bytes",
          "name": "message",
          "type": "bytes"
        },
        {
          "internalType": "uint256",
          "name": "",
          "type": "uint256"
        }
      ],
      "name": "depositFor",
      "outputs": [],
      "stateMutability": "payable",
      "type": "function"
    },
    {
      "inputs": [
        {
          "internalType": "bytes32",
          "name": "depositor",
          "type": "bytes32"
        },
        {
          "internalType": "bytes32",
          "name": "recipient",
          "type": "bytes32"
        },
        {
          "internalType": "bytes32",
          "name": "inputToken",
          "type": "bytes32"
        },
        {
          "internalType": "bytes32",
          "name": "outputToken",
          "type": "bytes32"
        },
        {
          "internalType": "uint256",
          "name": "inputAmount",
          "type": "uint256"
        },
        {
          "internalType": "uint256",
          "name": "outputAmount",
          "type": "uint256"
        },
        {
          "internalType": "uint256",
          "name": "destinationChainId",
          "type": "uint256"
        },
        {
          "internalType": "bytes32",
          "name": "exclusiveRelayer",
          "type": "bytes32"
        },
        {
          "internalType": "uint32",
          "name": "fillDeadlineOffset",
          "type": "uint32"
        },
        {
          "internalType": "uint32",
          "name": "exclusivityParameter",
          "type": "uint32"
        },
        {
          "internalType": "bytes",
          "name": "message",
          "type": "bytes"
        }
      ],
      "name": "depositNow",
      "outputs": [],
      "stateMutability": "payable",
      "type": "function"
    },
    {
      "inputs": [],
      "name": "depositQuoteTimeBuffer",
      "outputs": [
        {
          "internalType": "uint32",
          "name": "",
          "type": "uint32"
        }
      ],
      "stateMutability": "view",
      "type": "function"
    },
    {
      "inputs": [
        {
          "internalType": "address",
          "name": "depositor",
          "type": "address"
        },
        {
          "internalType": "address",
          "name": "recipient",
          "type": "address"
        },
        {
          "internalType": "address",
          "name": "inputToken",
          "type": "address"
        },
        {
          "internalType": "address",
          "name": "outputToken",
          "type": "address"
        },
        {
          "internalType": "uint256",
          "name": "inputAmount",
          "type": "uint256"
        },
        {
          "internalType": "uint256",
          "name": "outputAmount",
          "type": "uint256"
        },
        {
          "internalType": "uint256",
          "name": "destinationChainId",
          "type": "uint256"
        },
        {
          "internalType": "address",
          "name": "exclusiveRelayer",
          "type": "address"
        },
        {
          "internalType": "uint32",
          "name": "quoteTimestamp",
          "type": "uint32"
        },
        {
          "internalType": "uint32",
          "name": "fillDeadline",
          "type": "uint32"
        },
        {
          "internalType": "uint32",
          "name": "exclusivityParameter",
          "type": "uint32"
        },
        {
          "internalType": "bytes",
          "name": "message",
          "type": "bytes"
        }
      ],
      "name": "depositV3",
      "outputs": [],
      "stateMutability": "payable",
      "type": "function"
    },
    {
      "inputs": [
        {
          "internalType": "address",
          "name": "depositor",
          "type": "address"
        },
        {
          "internalType": "address",
          "name": "recipient",
          "type": "address"
        },
        {
          "internalType": "address",
          "name": "inputToken",
          "type": "address"
        },
        {
          "internalType": "address",
          "name": "outputToken",
          "type": "address"
        },
        {
          "internalType": "uint256",
          "name": "inputAmount",
          "type": "uint256"
        },
        {
          "internalType": "uint256",
          "name": "outputAmount",
          "type": "uint256"
        },
        {
          "internalType": "uint256",
          "name": "destinationChainId",
          "type": "uint256"
        },
        {
          "internalType": "address",
          "name": "exclusiveRelayer",
          "type": "address"
        },
        {
          "internalType": "uint32",
          "name": "fillDeadlineOffset",
          "type": "uint32"
        },
        {
          "internalType": "uint32",
          "name": "exclusivityParameter",
          "type": "uint32"
        },
        {
          "internalType": "bytes",
          "name": "message",
          "type": "bytes"
        }
      ],
      "name": "depositV3Now",
      "outputs": [],
      "stateMutability": "payable",
      "type": "function"
    },
    {
      "inputs": [
        {
          "internalType": "uint256",
          "name": "rootBundleId",
          "type": "uint256"
        }
      ],
      "name": "emergencyDeleteRootBundle",
      "outputs": [],
      "stateMutability": "nonpayable",
      "type": "function"
    },
    {
      "inputs": [
        {
          "internalType": "uint256",
          "name": "_messageNonce",
          "type": "uint256"
        },
        {
          "internalType": "bytes",
          "name": "_message",
          "type": "bytes"
        },
        {
          "internalType": "uint256",
          "name": "_blockNumber",
          "type": "uint256"
        }
      ],
      "name": "executeMessage",
      "outputs": [],
      "stateMutability": "nonpayable",
      "type": "function"
    },
    {
      "inputs": [
        {
          "internalType": "uint32",
          "name": "rootBundleId",
          "type": "uint32"
        },
        {
          "components": [
            {
              "internalType": "uint256",
              "name": "amountToReturn",
              "type": "uint256"
            },
            {
              "internalType": "uint256",
              "name": "chainId",
              "type": "uint256"
            },
            {
              "internalType": "uint256[]",
              "name": "refundAmounts",
              "type": "uint256[]"
            },
            {
              "internalType": "uint32",
              "name": "leafId",
              "type": "uint32"
            },
            {
              "internalType": "address",
              "name": "l2TokenAddress",
              "type": "address"
            },
            {
              "internalType": "address[]",
              "name": "refundAddresses",
              "type": "address[]"
            }
          ],
          "internalType": "struct SpokePoolInterface.RelayerRefundLeaf",
          "name": "relayerRefundLeaf",
          "type": "tuple"
        },
        {
          "internalType": "bytes32[]",
          "name": "proof",
          "type": "bytes32[]"
        }
      ],
      "name": "executeRelayerRefundLeaf",
      "outputs": [],
      "stateMutability": "payable",
      "type": "function"
    },
    {
      "inputs": [
        {
          "components": [
            {
              "components": [
                {
                  "internalType": "bytes32",
                  "name": "depositor",
                  "type": "bytes32"
                },
                {
                  "internalType": "bytes32",
                  "name": "recipient",
                  "type": "bytes32"
                },
                {
                  "internalType": "bytes32",
                  "name": "exclusiveRelayer",
                  "type": "bytes32"
                },
                {
                  "internalType": "bytes32",
                  "name": "inputToken",
                  "type": "bytes32"
                },
                {
                  "internalType": "bytes32",
                  "name": "outputToken",
                  "type": "bytes32"
                },
                {
                  "internalType": "uint256",
                  "name": "inputAmount",
                  "type": "uint256"
                },
                {
                  "internalType": "uint256",
                  "name": "outputAmount",
                  "type": "uint256"
                },
                {
                  "internalType": "uint256",
                  "name": "originChainId",
                  "type": "uint256"
                },
                {
                  "internalType": "uint256",
                  "name": "depositId",
                  "type": "uint256"
                },
                {
                  "internalType": "uint32",
                  "name": "fillDeadline",
                  "type": "uint32"
                },
                {
                  "internalType": "uint32",
                  "name": "exclusivityDeadline",
                  "type": "uint32"
                },
                {
                  "internalType": "bytes",
                  "name": "message",
                  "type": "bytes"
                }
              ],
              "internalType": "struct V3SpokePoolInterface.V3RelayData",
              "name": "relayData",
              "type": "tuple"
            },
            {
              "internalType": "uint256",
              "name": "chainId",
              "type": "uint256"
            },
            {
              "internalType": "uint256",
              "name": "updatedOutputAmount",
              "type": "uint256"
            }
          ],
          "internalType": "struct V3SpokePoolInterface.V3SlowFill",
          "name": "slowFillLeaf",
          "type": "tuple"
        },
        {
          "internalType": "uint32",
          "name": "rootBundleId",
          "type": "uint32"
        },
        {
          "internalType": "bytes32[]",
          "name": "proof",
          "type": "bytes32[]"
        }
      ],
      "name": "executeSlowRelayLeaf",
      "outputs": [],
      "stateMutability": "nonpayable",
      "type": "function"
    },
    {
      "inputs": [
        {
          "internalType": "uint256",
          "name": "",
          "type": "uint256"
        }
      ],
      "name": "executedMessages",
      "outputs": [
        {
          "internalType": "bool",
          "name": "",
          "type": "bool"
        }
      ],
      "stateMutability": "view",
      "type": "function"
    },
    {
      "inputs": [
        {
          "internalType": "bytes32",
          "name": "orderId",
          "type": "bytes32"
        },
        {
          "internalType": "bytes",
          "name": "originData",
          "type": "bytes"
        },
        {
          "internalType": "bytes",
          "name": "fillerData",
          "type": "bytes"
        }
      ],
      "name": "fill",
      "outputs": [],
      "stateMutability": "nonpayable",
      "type": "function"
    },
    {
      "inputs": [],
      "name": "fillDeadlineBuffer",
      "outputs": [
        {
          "internalType": "uint32",
          "name": "",
          "type": "uint32"
        }
      ],
      "stateMutability": "view",
      "type": "function"
    },
    {
      "inputs": [
        {
          "components": [
            {
              "internalType": "bytes32",
              "name": "depositor",
              "type": "bytes32"
            },
            {
              "internalType": "bytes32",
              "name": "recipient",
              "type": "bytes32"
            },
            {
              "internalType": "bytes32",
              "name": "exclusiveRelayer",
              "type": "bytes32"
            },
            {
              "internalType": "bytes32",
              "name": "inputToken",
              "type": "bytes32"
            },
            {
              "internalType": "bytes32",
              "name": "outputToken",
              "type": "bytes32"
            },
            {
              "internalType": "uint256",
              "name": "inputAmount",
              "type": "uint256"
            },
            {
              "internalType": "uint256",
              "name": "outputAmount",
              "type": "uint256"
            },
            {
              "internalType": "uint256",
              "name": "originChainId",
              "type": "uint256"
            },
            {
              "internalType": "uint256",
              "name": "depositId",
              "type": "uint256"
            },
            {
              "internalType": "uint32",
              "name": "fillDeadline",
              "type": "uint32"
            },
            {
              "internalType": "uint32",
              "name": "exclusivityDeadline",
              "type": "uint32"
            },
            {
              "internalType": "bytes",
              "name": "message",
              "type": "bytes"
            }
          ],
          "internalType": "struct V3SpokePoolInterface.V3RelayData",
          "name": "relayData",
          "type": "tuple"
        },
        {
          "internalType": "uint256",
          "name": "repaymentChainId",
          "type": "uint256"
        },
        {
          "internalType": "bytes32",
          "name": "repaymentAddress",
          "type": "bytes32"
        }
      ],
      "name": "fillRelay",
      "outputs": [],
      "stateMutability": "nonpayable",
      "type": "function"
    },
    {
      "inputs": [
        {
          "components": [
            {
              "internalType": "bytes32",
              "name": "depositor",
              "type": "bytes32"
            },
            {
              "internalType": "bytes32",
              "name": "recipient",
              "type": "bytes32"
            },
            {
              "internalType": "bytes32",
              "name": "exclusiveRelayer",
              "type": "bytes32"
            },
            {
              "internalType": "bytes32",
              "name": "inputToken",
              "type": "bytes32"
            },
            {
              "internalType": "bytes32",
              "name": "outputToken",
              "type": "bytes32"
            },
            {
              "internalType": "uint256",
              "name": "inputAmount",
              "type": "uint256"
            },
            {
              "internalType": "uint256",
              "name": "outputAmount",
              "type": "uint256"
            },
            {
              "internalType": "uint256",
              "name": "originChainId",
              "type": "uint256"
            },
            {
              "internalType": "uint256",
              "name": "depositId",
              "type": "uint256"
            },
            {
              "internalType": "uint32",
              "name": "fillDeadline",
              "type": "uint32"
            },
            {
              "internalType": "uint32",
              "name": "exclusivityDeadline",
              "type": "uint32"
            },
            {
              "internalType": "bytes",
              "name": "message",
              "type": "bytes"
            }
          ],
          "internalType": "struct V3SpokePoolInterface.V3RelayData",
          "name": "relayData",
          "type": "tuple"
        },
        {
          "internalType": "uint256",
          "name": "repaymentChainId",
          "type": "uint256"
        },
        {
          "internalType": "bytes32",
          "name": "repaymentAddress",
          "type": "bytes32"
        },
        {
          "internalType": "uint256",
          "name": "updatedOutputAmount",
          "type": "uint256"
        },
        {
          "internalType": "bytes32",
          "name": "updatedRecipient",
          "type": "bytes32"
        },
        {
          "internalType": "bytes",
          "name": "updatedMessage",
          "type": "bytes"
        },
        {
          "internalType": "bytes",
          "name": "depositorSignature",
          "type": "bytes"
        }
      ],
      "name": "fillRelayWithUpdatedDeposit",
      "outputs": [],
      "stateMutability": "nonpayable",
      "type": "function"
    },
    {
      "inputs": [
        {
          "internalType": "bytes32",
          "name": "",
          "type": "bytes32"
        }
      ],
      "name": "fillStatuses",
      "outputs": [
        {
          "internalType": "uint256",
          "name": "",
          "type": "uint256"
        }
      ],
      "stateMutability": "view",
      "type": "function"
    },
    {
      "inputs": [
        {
          "components": [
            {
              "internalType": "address",
              "name": "depositor",
              "type": "address"
            },
            {
              "internalType": "address",
              "name": "recipient",
              "type": "address"
            },
            {
              "internalType": "address",
              "name": "exclusiveRelayer",
              "type": "address"
            },
            {
              "internalType": "address",
              "name": "inputToken",
              "type": "address"
            },
            {
              "internalType": "address",
              "name": "outputToken",
              "type": "address"
            },
            {
              "internalType": "uint256",
              "name": "inputAmount",
              "type": "uint256"
            },
            {
              "internalType": "uint256",
              "name": "outputAmount",
              "type": "uint256"
            },
            {
              "internalType": "uint256",
              "name": "originChainId",
              "type": "uint256"
            },
            {
              "internalType": "uint32",
              "name": "depositId",
              "type": "uint32"
            },
            {
              "internalType": "uint32",
              "name": "fillDeadline",
              "type": "uint32"
            },
            {
              "internalType": "uint32",
              "name": "exclusivityDeadline",
              "type": "uint32"
            },
            {
              "internalType": "bytes",
              "name": "message",
              "type": "bytes"
            }
          ],
          "internalType": "struct V3SpokePoolInterface.V3RelayDataLegacy",
          "name": "relayData",
          "type": "tuple"
        },
        {
          "internalType": "uint256",
          "name": "repaymentChainId",
          "type": "uint256"
        }
      ],
      "name": "fillV3Relay",
      "outputs": [],
      "stateMutability": "nonpayable",
      "type": "function"
    },
    {
      "inputs": [],
      "name": "getCurrentTime",
      "outputs": [
        {
          "internalType": "uint256",
          "name": "",
          "type": "uint256"
        }
      ],
      "stateMutability": "view",
      "type": "function"
    },
    {
      "inputs": [
        {
          "internalType": "address",
          "name": "l2TokenAddress",
          "type": "address"
        },
        {
          "internalType": "address",
          "name": "refundAddress",
          "type": "address"
        }
      ],
      "name": "getRelayerRefund",
      "outputs": [
        {
          "internalType": "uint256",
          "name": "",
          "type": "uint256"
        }
      ],
      "stateMutability": "view",
      "type": "function"
    },
    {
      "inputs": [
        {
          "internalType": "uint256",
          "name": "_nonce",
          "type": "uint256"
        }
      ],
      "name": "getSlotKey",
      "outputs": [
        {
          "internalType": "bytes32",
          "name": "",
          "type": "bytes32"
        }
      ],
      "stateMutability": "pure",
      "type": "function"
    },
    {
      "inputs": [
        {
          "internalType": "address",
          "name": "msgSender",
          "type": "address"
        },
        {
          "internalType": "bytes32",
          "name": "depositor",
          "type": "bytes32"
        },
        {
          "internalType": "uint256",
          "name": "depositNonce",
          "type": "uint256"
        }
      ],
      "name": "getUnsafeDepositId",
      "outputs": [
        {
          "internalType": "uint256",
          "name": "",
          "type": "uint256"
        }
      ],
      "stateMutability": "pure",
      "type": "function"
    },
    {
      "inputs": [
        {
          "components": [
            {
              "internalType": "bytes32",
              "name": "depositor",
              "type": "bytes32"
            },
            {
              "internalType": "bytes32",
              "name": "recipient",
              "type": "bytes32"
            },
            {
              "internalType": "bytes32",
              "name": "exclusiveRelayer",
              "type": "bytes32"
            },
            {
              "internalType": "bytes32",
              "name": "inputToken",
              "type": "bytes32"
            },
            {
              "internalType": "bytes32",
              "name": "outputToken",
              "type": "bytes32"
            },
            {
              "internalType": "uint256",
              "name": "inputAmount",
              "type": "uint256"
            },
            {
              "internalType": "uint256",
              "name": "outputAmount",
              "type": "uint256"
            },
            {
              "internalType": "uint256",
              "name": "originChainId",
              "type": "uint256"
            },
            {
              "internalType": "uint256",
              "name": "depositId",
              "type": "uint256"
            },
            {
              "internalType": "uint32",
              "name": "fillDeadline",
              "type": "uint32"
            },
            {
              "internalType": "uint32",
              "name": "exclusivityDeadline",
              "type": "uint32"
            },
            {
              "internalType": "bytes",
              "name": "message",
              "type": "bytes"
            }
          ],
          "internalType": "struct V3SpokePoolInterface.V3RelayData",
          "name": "relayData",
          "type": "tuple"
        }
      ],
      "name": "getV3RelayHash",
      "outputs": [
        {
          "internalType": "bytes32",
          "name": "",
          "type": "bytes32"
        }
      ],
      "stateMutability": "view",
      "type": "function"
    },
    {
      "inputs": [],
      "name": "helios",
      "outputs": [
        {
          "internalType": "address",
          "name": "",
          "type": "address"
        }
      ],
      "stateMutability": "view",
      "type": "function"
    },
    {
      "inputs": [],
      "name": "hubPoolStore",
      "outputs": [
        {
          "internalType": "address",
          "name": "",
          "type": "address"
        }
      ],
      "stateMutability": "view",
      "type": "function"
    },
    {
      "inputs": [
        {
          "internalType": "uint32",
          "name": "_initialDepositId",
          "type": "uint32"
        },
        {
          "internalType": "address",
          "name": "_crossDomainAdmin",
          "type": "address"
        },
        {
          "internalType": "address",
          "name": "_withdrawalRecipient",
          "type": "address"
        }
      ],
      "name": "initialize",
      "outputs": [],
      "stateMutability": "nonpayable",
      "type": "function"
    },
    {
      "inputs": [
        {
          "internalType": "bytes[]",
          "name": "data",
          "type": "bytes[]"
        }
      ],
      "name": "multicall",
      "outputs": [
        {
          "internalType": "bytes[]",
          "name": "results",
          "type": "bytes[]"
        }
      ],
      "stateMutability": "nonpayable",
      "type": "function"
    },
    {
      "inputs": [],
      "name": "numberOfDeposits",
      "outputs": [
        {
          "internalType": "uint32",
          "name": "",
          "type": "uint32"
        }
      ],
      "stateMutability": "view",
      "type": "function"
    },
    {
      "inputs": [],
      "name": "owner",
      "outputs": [
        {
          "internalType": "address",
          "name": "",
          "type": "address"
        }
      ],
      "stateMutability": "view",
      "type": "function"
    },
    {
      "inputs": [
        {
          "internalType": "bool",
          "name": "pause",
          "type": "bool"
        }
      ],
      "name": "pauseDeposits",
      "outputs": [],
      "stateMutability": "nonpayable",
      "type": "function"
    },
    {
      "inputs": [
        {
          "internalType": "bool",
          "name": "pause",
          "type": "bool"
        }
      ],
      "name": "pauseFills",
      "outputs": [],
      "stateMutability": "nonpayable",
      "type": "function"
    },
    {
      "inputs": [],
      "name": "pausedDeposits",
      "outputs": [
        {
          "internalType": "bool",
          "name": "",
          "type": "bool"
        }
      ],
      "stateMutability": "view",
      "type": "function"
    },
    {
      "inputs": [],
      "name": "pausedFills",
      "outputs": [
        {
          "internalType": "bool",
          "name": "",
          "type": "bool"
        }
      ],
      "stateMutability": "view",
      "type": "function"
    },
    {
      "inputs": [],
      "name": "proxiableUUID",
      "outputs": [
        {
          "internalType": "bytes32",
          "name": "",
          "type": "bytes32"
        }
      ],
      "stateMutability": "view",
      "type": "function"
    },
    {
      "inputs": [],
      "name": "recipientCircleDomainId",
      "outputs": [
        {
          "internalType": "uint32",
          "name": "",
          "type": "uint32"
        }
      ],
      "stateMutability": "view",
      "type": "function"
    },
    {
      "inputs": [
        {
          "internalType": "bytes32",
          "name": "relayerRefundRoot",
          "type": "bytes32"
        },
        {
          "internalType": "bytes32",
          "name": "slowRelayRoot",
          "type": "bytes32"
        }
      ],
      "name": "relayRootBundle",
      "outputs": [],
      "stateMutability": "nonpayable",
      "type": "function"
    },
    {
      "inputs": [
        {
          "internalType": "address",
          "name": "",
          "type": "address"
        },
        {
          "internalType": "address",
          "name": "",
          "type": "address"
        }
      ],
      "name": "relayerRefund",
      "outputs": [
        {
          "internalType": "uint256",
          "name": "",
          "type": "uint256"
        }
      ],
      "stateMutability": "view",
      "type": "function"
    },
    {
      "inputs": [],
      "name": "renounceOwnership",
      "outputs": [],
      "stateMutability": "nonpayable",
      "type": "function"
    },
    {
      "inputs": [
        {
          "components": [
            {
              "internalType": "bytes32",
              "name": "depositor",
              "type": "bytes32"
            },
            {
              "internalType": "bytes32",
              "name": "recipient",
              "type": "bytes32"
            },
            {
              "internalType": "bytes32",
              "name": "exclusiveRelayer",
              "type": "bytes32"
            },
            {
              "internalType": "bytes32",
              "name": "inputToken",
              "type": "bytes32"
            },
            {
              "internalType": "bytes32",
              "name": "outputToken",
              "type": "bytes32"
            },
            {
              "internalType": "uint256",
              "name": "inputAmount",
              "type": "uint256"
            },
            {
              "internalType": "uint256",
              "name": "outputAmount",
              "type": "uint256"
            },
            {
              "internalType": "uint256",
              "name": "originChainId",
              "type": "uint256"
            },
            {
              "internalType": "uint256",
              "name": "depositId",
              "type": "uint256"
            },
            {
              "internalType": "uint32",
              "name": "fillDeadline",
              "type": "uint32"
            },
            {
              "internalType": "uint32",
              "name": "exclusivityDeadline",
              "type": "uint32"
            },
            {
              "internalType": "bytes",
              "name": "message",
              "type": "bytes"
            }
          ],
          "internalType": "struct V3SpokePoolInterface.V3RelayData",
          "name": "relayData",
          "type": "tuple"
        }
      ],
      "name": "requestSlowFill",
      "outputs": [],
      "stateMutability": "nonpayable",
      "type": "function"
    },
    {
      "inputs": [
        {
          "internalType": "uint256",
          "name": "",
          "type": "uint256"
        }
      ],
      "name": "rootBundles",
      "outputs": [
        {
          "internalType": "bytes32",
          "name": "slowRelayRoot",
          "type": "bytes32"
        },
        {
          "internalType": "bytes32",
          "name": "relayerRefundRoot",
          "type": "bytes32"
        }
      ],
      "stateMutability": "view",
      "type": "function"
    },
    {
      "inputs": [
        {
          "internalType": "address",
          "name": "newCrossDomainAdmin",
          "type": "address"
        }
      ],
      "name": "setCrossDomainAdmin",
      "outputs": [],
      "stateMutability": "nonpayable",
      "type": "function"
    },
    {
      "inputs": [
        {
          "internalType": "address",
          "name": "newWithdrawalRecipient",
          "type": "address"
        }
      ],
      "name": "setWithdrawalRecipient",
      "outputs": [],
      "stateMutability": "nonpayable",
      "type": "function"
    },
    {
      "inputs": [
        {
          "internalType": "bytes32",
          "name": "depositor",
          "type": "bytes32"
        },
        {
          "internalType": "uint256",
          "name": "depositId",
          "type": "uint256"
        },
        {
          "internalType": "uint256",
          "name": "updatedOutputAmount",
          "type": "uint256"
        },
        {
          "internalType": "bytes32",
          "name": "updatedRecipient",
          "type": "bytes32"
        },
        {
          "internalType": "bytes",
          "name": "updatedMessage",
          "type": "bytes"
        },
        {
          "internalType": "bytes",
          "name": "depositorSignature",
          "type": "bytes"
        }
      ],
      "name": "speedUpDeposit",
      "outputs": [],
      "stateMutability": "nonpayable",
      "type": "function"
    },
    {
      "inputs": [
        {
          "internalType": "address",
          "name": "depositor",
          "type": "address"
        },
        {
          "internalType": "uint256",
          "name": "depositId",
          "type": "uint256"
        },
        {
          "internalType": "uint256",
          "name": "updatedOutputAmount",
          "type": "uint256"
        },
        {
          "internalType": "address",
          "name": "updatedRecipient",
          "type": "address"
        },
        {
          "internalType": "bytes",
          "name": "updatedMessage",
          "type": "bytes"
        },
        {
          "internalType": "bytes",
          "name": "depositorSignature",
          "type": "bytes"
        }
      ],
      "name": "speedUpV3Deposit",
      "outputs": [],
      "stateMutability": "nonpayable",
      "type": "function"
    },
    {
      "inputs": [
        {
          "internalType": "address",
          "name": "newOwner",
          "type": "address"
        }
      ],
      "name": "transferOwnership",
      "outputs": [],
      "stateMutability": "nonpayable",
      "type": "function"
    },
    {
      "inputs": [
        {
          "internalType": "bytes[]",
          "name": "data",
          "type": "bytes[]"
        }
      ],
      "name": "tryMulticall",
      "outputs": [
        {
          "components": [
            {
              "internalType": "bool",
              "name": "success",
              "type": "bool"
            },
            {
              "internalType": "bytes",
              "name": "returnData",
              "type": "bytes"
            }
          ],
          "internalType": "struct MultiCallerUpgradeable.Result[]",
          "name": "results",
          "type": "tuple[]"
        }
      ],
      "stateMutability": "nonpayable",
      "type": "function"
    },
    {
      "inputs": [
        {
          "internalType": "bytes32",
          "name": "depositor",
          "type": "bytes32"
        },
        {
          "internalType": "bytes32",
          "name": "recipient",
          "type": "bytes32"
        },
        {
          "internalType": "bytes32",
          "name": "inputToken",
          "type": "bytes32"
        },
        {
          "internalType": "bytes32",
          "name": "outputToken",
          "type": "bytes32"
        },
        {
          "internalType": "uint256",
          "name": "inputAmount",
          "type": "uint256"
        },
        {
          "internalType": "uint256",
          "name": "outputAmount",
          "type": "uint256"
        },
        {
          "internalType": "uint256",
          "name": "destinationChainId",
          "type": "uint256"
        },
        {
          "internalType": "bytes32",
          "name": "exclusiveRelayer",
          "type": "bytes32"
        },
        {
          "internalType": "uint256",
          "name": "depositNonce",
          "type": "uint256"
        },
        {
          "internalType": "uint32",
          "name": "quoteTimestamp",
          "type": "uint32"
        },
        {
          "internalType": "uint32",
          "name": "fillDeadline",
          "type": "uint32"
        },
        {
          "internalType": "uint32",
          "name": "exclusivityParameter",
          "type": "uint32"
        },
        {
          "internalType": "bytes",
          "name": "message",
          "type": "bytes"
        }
      ],
      "name": "unsafeDeposit",
      "outputs": [],
      "stateMutability": "payable",
      "type": "function"
    },
    {
      "inputs": [
        {
          "internalType": "address",
          "name": "newImplementation",
          "type": "address"
        }
      ],
      "name": "upgradeTo",
      "outputs": [],
      "stateMutability": "nonpayable",
      "type": "function"
    },
    {
      "inputs": [
        {
          "internalType": "address",
          "name": "newImplementation",
          "type": "address"
        },
        {
          "internalType": "bytes",
          "name": "data",
          "type": "bytes"
        }
      ],
      "name": "upgradeToAndCall",
      "outputs": [],
      "stateMutability": "payable",
      "type": "function"
    },
    {
      "inputs": [],
      "name": "usdcToken",
      "outputs": [
        {
          "internalType": "contract IERC20",
          "name": "",
          "type": "address"
        }
      ],
      "stateMutability": "view",
      "type": "function"
    },
    {
      "inputs": [],
      "name": "withdrawalRecipient",
      "outputs": [
        {
          "internalType": "address",
          "name": "",
          "type": "address"
        }
      ],
      "stateMutability": "view",
      "type": "function"
    },
    {
      "inputs": [],
      "name": "wrappedNativeToken",
      "outputs": [
        {
          "internalType": "contract WETH9Interface",
          "name": "",
          "type": "address"
        }
      ],
      "stateMutability": "view",
      "type": "function"
    },
    {
      "stateMutability": "payable",
      "type": "receive"
    }
  ],
  "numDeployments": 7,
  "solcInputHash": "b35d69fd20bb5d327926bba7d27c0b37",
  "bytecode": "0x6101e06040818152346200030a5781620054c780380380916200002382856200030e565b8339610100938491810103126200030a578051906020906200004782820162000332565b916200005585830162000332565b91620000646060820162000332565b95620000736080830162000347565b916200008260a0820162000347565b60c0820151986001600160a01b0392909190838b168b036200030a5760e0015194838616928387036200030a578490306080521660a05260c05260e0525f5460ff8160081c166200030a5760ff80821603620002d1575b506101209889526101409384525f8a52825163011a412160e61b868201908152600482526001600160401b03928286019184831184841017620002b3575f938493885251915afa943d15620002c7573d918211620002b35783519162000149601f8201601f19168301846200030e565b82523d5f8284013e5b85620002a7575b8562000272575b5050506101609283526101c09586526101a0948552610180938452519561516d97886200035a893960805188818161114c015281816114e80152611614015260a0518881816107ce0152818161378301528181613e81015281816141130152818161448b01528181614c160152614c3d015260c05188818161191a015281816137370152614644015260e0518881816104690152614434015251878181611ac301528181614a100152614abb015251868181610771015281816149150152614bb601525185818161200e01526148dc015251848181611c1c01526149b0015251838181610bf9015261272a015251828181610c420152818161175d0152612a760152518181816117ce01526127650152f35b90919294508082519201519181811062000296575b5050161515915f808062000160565b5f19910360031b1b165f8062000287565b81518114955062000159565b634e487b7160e01b5f52604160045260245ffd5b6060915062000152565b60ff90811916175f557f7f26b83ff96e1f2b6a682f133852f6798a09c465da95921460cefb384740249885845160ff8152a15f620000d9565b5f80fd5b601f909101601f19168101906001600160401b03821190821017620002b357604052565b51906001600160a01b03821682036200030a57565b519063ffffffff821682036200030a5756fe6080604052600436101561001a575b3615610018575f80fd5b005b5f3560e01c8063079bd2c71461043a5780631186ec331461043557806311eac8551461043057806315348e44146103a957806317fcb39b1461042b5780631b3d5559146104265780631fab657c1461042157806326b105d21461041c57806329cb924d146104175780632e378115146104125780632e63e59a1461040d5780633659cfe614610408578063437b911614610403578063490e49ef146103fe578063493a4f84146103f95780634f1ef286146103f45780635285e058146103ef57806352d1902d146103ea578063541f4f14146103e55780635743a7b9146103e0578063577f51f8146103db57806357f6dcb8146103d65780636068d6cb146103d1578063647c576c146103cc578063670fa8ac146103c75780636bbbcd2e146103a95780636e400983146103c2578063715018a6146103bd578063738b62e5146103b857806373fd4836146103b3578063775c0d03146103ae578063793d2be0146103a95780637aef642c146103a45780637b9392321461039f5780637ef413e11461039a57806382e2c43f146103955780638a7860ce146103905780638b15788e1461038b5780638da5cb5b146103865780639748cf7c1461038157806397943aa91461037c578063979f2bc21461037757806399cc2968146103725780639a8a05921461036d578063a1244c6714610368578063a18a096e14610363578063ac9650d81461035e578063ad5425c614610359578063adb5a6a614610309578063b370b7f514610354578063babb6aac1461034f578063bce63c001461034a578063c2bb0c5514610345578063c35c83fc14610340578063ceb4c9871461033b578063d7e1583a14610336578063dda5211314610331578063ddd224f11461032c578063de7eba7814610327578063deff4b2414610322578063e45a46941461031d578063ea86bd4614610318578063ee2a53f814610313578063f2fde38b1461030e578063f79f29ed14610309578063fb4c3749146103045763fc8a584f0361000e57612c48565b612c18565b6125ab565b612bdb565b612b9d565b612a9a565b612a57565b612962565b612932565b612909565b6128e3565b6128ad565b6127b3565b612788565b61274e565b61270b565b612634565b61260d565b61246f565b6123cf565b612268565b612241565b612227565b612192565b6120b2565b612032565b611fef565b611fc9565b611f4b565b611ed3565b611db8565b611d89565b611ce1565b611c41565b610795565b611c05565b611bdf565b611b4a565b611ae7565b611aa7565b611a6d565b611996565b61193e565b6118fe565b611825565b6116f9565b611664565b6115fa565b6115d3565b6114a5565b61141e565b611400565b611333565b611124565b610f2a565b610dca565b610da1565b610b6f565b610a46565b61093d565b6107af565b610752565b6106b1565b61044d565b5f91031261044957565b5f80fd5b34610449575f36600319011261044957602060405163ffffffff7f0000000000000000000000000000000000000000000000000000000000000000168152f35b6001600160a01b0381160361044957565b35906104a98261048d565b565b63ffffffff81160361044957565b61014435906104a9826104ab565b35906104a9826104ab565b634e487b7160e01b5f52604160045260245ffd5b6040810190811067ffffffffffffffff82111761050257604052565b6104d2565b6101a0810190811067ffffffffffffffff82111761050257604052565b67ffffffffffffffff811161050257604052565b6060810190811067ffffffffffffffff82111761050257604052565b6080810190811067ffffffffffffffff82111761050257604052565b6020810190811067ffffffffffffffff82111761050257604052565b60e0810190811067ffffffffffffffff82111761050257604052565b60a0810190811067ffffffffffffffff82111761050257604052565b90601f8019910116810190811067ffffffffffffffff82111761050257604052565b6040519060c0820182811067ffffffffffffffff82111761050257604052565b60405190610180820182811067ffffffffffffffff82111761050257604052565b604051906104a982610507565b604051906104a982610554565b67ffffffffffffffff811161050257601f01601f191660200190565b92919261066982610641565b9161067760405193846105c4565b829481845281830111610449578281602093845f960137010152565b9080601f83011215610449578160206106ae9335910161065d565b90565b610100366003190112610449576004356106ca8161048d565b6024356106d68161048d565b6084358060070b81036104495760a435906106f0826104ab565b60c43567ffffffffffffffff811161044957610710903690600401610693565b92610719613686565b60ff6108cf5460e81c1661074057610739946064359160443591336136e9565b600160c955005b604051630b4cba3160e31b8152600490fd5b34610449575f3660031901126104495760206040516001600160a01b037f0000000000000000000000000000000000000000000000000000000000000000168152f35b34610449575f3660031901126104495760206040515f8152f35b34610449575f3660031901126104495760206040516001600160a01b037f0000000000000000000000000000000000000000000000000000000000000000168152f35b67ffffffffffffffff81116105025760051b60200190565b9080601f83011215610449576020908235610824816107f2565b9361083260405195866105c4565b81855260208086019260051b82010192831161044957602001905b82821061085b575050505090565b8135815290830190830161084d565b9080601f83011215610449576020908235610884816107f2565b9361089260405195866105c4565b81855260208086019260051b82010192831161044957602001905b8282106108bb575050505090565b83809183356108c98161048d565b8152019101906108ad565b92916108df826107f2565b916108ed60405193846105c4565b829481845260208094019160051b810192831161044957905b8282106109135750505050565b81358152908301908301610906565b9080601f83011215610449578160206106ae933591016108d4565b60031960603682011261044957600435610956816104ab565b60243567ffffffffffffffff928382116104495760c09082360301126104495761097e6105e6565b9080600401358252602481013560208301526044810135848111610449576109ac906004369184010161080a565b60408301526109bd606482016104c7565b60608301526109ce6084820161049e565b608083015260a4810135908482116104495760046109ef923692010161086a565b60a082015260443592831161044957610a0f610018933690600401610922565b91612c78565b9181601f840112156104495782359167ffffffffffffffff8311610449576020808501948460051b01011161044957565b34610449576003196060368201126104495760043567ffffffffffffffff808211610449576060823603938401126104495760243590610a85826104ab565b60443590811161044957610a9d903690600401610a15565b919093610aa8613686565b600484013590610182190181121561044957610b3794610b3293610ad5610b2b93600436918901016127d1565b95610ae36080880151613bad565b50610aed876135b9565b9060446020890151916101608a015193610b056105e6565b9a8b5260208b015201356040890152606088015260808701525f60a087015236916108d4565b9083613bc3565b613d14565b610018600160c955565b9181601f840112156104495782359167ffffffffffffffff8311610449576020838186019501011161044957565b34610449576060366003190112610449576004803560243567ffffffffffffffff811161044957610ba39036908401610b41565b610cbf929192805460ff8116610d905760ff19166001179055610bc5826130d5565b92610c3d610bd436848461065d565b6020815191012060206001600160a01b039660405180948192630829c59f60e01b83527f00000000000000000000000000000000000000000000000000000000000000006044358d85016001600160a01b03604092959493606083019683521660208201520152565b0381897f0000000000000000000000000000000000000000000000000000000000000000165afa918215610d8b575f92610d5a575b5003610d4957610c8491810190612e7d565b92168015159081610d3e575b50610d2d57610cb2610cab825f52610cbe60205260405f2090565b5460ff1690565b610d1c57610d0f9250610cde610cd1825f52610cbe60205260405f2090565b805460ff19166001179055565b6040513381527f3b0b856314838f509dfe81e9e13c651b0e544b42639c58be2c161b2c3892949d90602090a26141e9565b610cbf805460ff19169055005b604051630dc1019760e01b81528390fd5b6040516332f602d160e11b81528390fd5b90503014155f610c90565b6040516301b6e1e760e21b81528590fd5b610d7d91925060203d602011610d84575b610d7581836105c4565b810190612e63565b905f610c72565b503d610d6b565b612e72565b60405163087f80c160e31b81528690fd5b34610449575f366003190112610449576020604051428152f35b90816101809103126104495790565b346104495760403660031901126104495760043567ffffffffffffffff811161044957610dfb903690600401610dbb565b610e0481612eb4565b6001600160a01b031690610e1a60208201612eb4565b6001600160a01b031691610e3060408301612eb4565b6001600160a01b0316610e4560608401612eb4565b6001600160a01b031692610e5b60808201612eb4565b6001600160a01b031690610100610e73818301612ebe565b9061012090610e83848301612ebe565b9261014094858101610e9490612ebe565b966101609a8b8301610ea69084612ec8565b9a909b610eb1610606565b9e8f91825260208201526040015260608d015260808c015260a081013560a08c015260c081013560c08c015260e0013560e08b015263ffffffff1690890152870190610f02919063ffffffff169052565b63ffffffff909116908501523690610f199261065d565b9082015233602435610018926135ea565b34610449576020366003190112610449576004803567ffffffffffffffff811161044957610f5b9036908301610dbb565b610f63613686565b60ff6108cf5460e01c166111145763ffffffff80421692610140830193610f9c81610f8d87612ebe565b63ffffffff9182169116101590565b61110457610120840192610faf84612ebe565b16106110f557610fc7610fc236856127d1565b6135b9565b90610fdb825f526108d660205260405f2090565b546110e7575061102a7f3cee3e290f36226751cd0b3321b213890fe9c768e922f267fa6111836ce05c329261102561101f611030945f526108d660205260405f2090565b60019055565b612ebe565b93612ebe565b61105061104b611044610160860186612ec8565b369161065d565b614217565b906110da6040519283926101008701359760e08801359760208101359281359260408301359260c08101359060a081013590606060808201359101358b9693909a999895919261012098959361014089019c895260208901526040880152606087015263ffffffff80921660808701521660a085015260c084015260e08301526101008201520152565b0390a3610018600160c955565b604051624be79160e21b8152fd5b60405163d642b7d960e01b8152fd5b50604051630277ae7b60e21b8152fd5b50604051633d90fc5560e11b8152fd5b34610449576020366003190112610449576004356111418161048d565b6001600160a01b03807f000000000000000000000000000000000000000000000000000000000000000016803014610449577f360894a13ba1a3210667c828492db98dca3e2076cc3735a920a3ca505d382bbc908282541603610449576111a661422c565b604051916111b383610570565b5f83527f4910fdfa16fed3260ed0e7147f7cc6da11a60208b5b9406d12a635614ffd91435460ff16156111ec5750505061001890614dd8565b6020600491604051928380926352d1902d60e01b825288165afa5f9181611225575b50611217575f80fd5b036104495761001891614cbc565b61123f91925060203d602011610d8457610d7581836105c4565b905f61120e565b6020600319820112610449576004359067ffffffffffffffff82116104495761127191600401610a15565b9091565b5f5b8381106112865750505f910152565b8181015183820152602001611277565b906020916112af81518092818552858086019101611275565b601f01601f1916010190565b6020808201908083528351809252604092604081018260408560051b8401019601945f925b8584106112f1575050505050505090565b909192939495968580611322600193603f1986820301885286838d5180511515845201519181858201520190611296565b9901940194019295949391906112e0565b346104495761134136611246565b61134a816107f2565b91604061135a60405194856105c4565b828452601f19611369846107f2565b015f5b8181106113dd5750505f5b838110611390576040518061138c87826112bb565b0390f35b806113d76113a060019388612f1e565b515f806113ae858a8a612f32565b906113bd895180938193612f49565b0390305af4906113cb612f56565b60208201529015159052565b01611377565b60209083516113eb816104e6565b5f81528260608183015282890101520161136c565b34610449575f3660031901126104495760206040516301e133808152f35b346104495760403660031901126104495760243560043561143d61422c565b611445613686565b6108d08054680100000000000000008110156105025763ffffffff916001820190558361147182612b5e565b5084600182015555167fc86ba04c55bc5eb2f2876b91c438849a296dbec7b08751c3074d92e04f0a77af5f80a4600160c955005b6040366003190112610449576004356114bd8161048d565b60243567ffffffffffffffff8111610449576114dd903690600401610693565b6001600160a01b03807f00000000000000000000000000000000000000000000000000000000000000001690813014610449577f360894a13ba1a3210667c828492db98dca3e2076cc3735a920a3ca505d382bbc9181835416036104495761154361422c565b7f4910fdfa16fed3260ed0e7147f7cc6da11a60208b5b9406d12a635614ffd91435460ff16156115795750505061001890614dd8565b6020600491604051928380926352d1902d60e01b825288165afa5f91816115b2575b506115a4575f80fd5b036104495761001891614d87565b6115cc91925060203d602011610d8457610d7581836105c4565b905f61159b565b34610449575f3660031901126104495760206001600160a01b036108cd5416604051908152f35b34610449575f366003190112610449576001600160a01b037f00000000000000000000000000000000000000000000000000000000000000001630036104495760206040517f360894a13ba1a3210667c828492db98dca3e2076cc3735a920a3ca505d382bbc8152f35b6101203660031901126104495760043561167d8161048d565b6024359061168a8261048d565b604435916116978361048d565b60a4358060070b81036104495760c435916116b1836104ab565b60e43567ffffffffffffffff8111610449576116d1903690600401610693565b936116da613686565b60ff6108cf5460e81c16610740576107399560843592606435926136e9565b346104495760203660031901126104495760043567ffffffffffffffff81116104495761172a903690600401610693565b61173261424c565b610cbf805460ff81166118135760ff191660011790556040516349b5c56d60e01b81526020816004817f00000000000000000000000000000000000000000000000000000000000000006001600160a01b03165afa908115610d8b575f916117f4575b504281119081156117c1575b506117af57610d0f906141e9565b604051633ff377d160e11b8152600490fd5b6117cc915042612f99565b7f0000000000000000000000000000000000000000000000000000000000000000115f6117a1565b61180d915060203d602011610d8457610d7581836105c4565b5f611795565b60405163087f80c160e31b8152600490fd5b346104495760c0366003190112610449576004356118428161048d565b602435604435916064356118558161048d565b67ffffffffffffffff9160843583811161044957611877903690600401610b41565b60a494919435918211610449577f45e04bc8f121ba11466985789ca2822a91109f31bb8ac85504a37b7eaf873c26946118b76118f9933690600401610b41565b9290916001600160a01b038097166118eb8a8c836118d636888861065d565b916118e2368b8b61065d565b9346908d614260565b604051978897169a87612fcb565b0390a3005b34610449575f36600319011261044957602060405163ffffffff7f0000000000000000000000000000000000000000000000000000000000000000168152f35b34610449575f36600319011261044957602060ff6108cf5460e81c166040519015158152f35b60609060031901126104495760043561197c816104ab565b906024356119898161048d565b906044356106ae8161048d565b34610449576119a436611964565b5f54600881901c60ff1615939290849081611a5f575b8115611a3f575b5015610449576119e592846119dc600160ff195f5416175f55565b611a2857612ffe565b6119eb57005b6119f961ff00195f54165f55565b604051600181527f7f26b83ff96e1f2b6a682f133852f6798a09c465da95921460cefb384740249890602090a1005b611a3a61010061ff00195f5416175f55565b612ffe565b303b15915081611a51575b505f6119c1565b6001915060ff16145f611a4a565b600160ff82161091506119ba565b34610449575f3660031901126104495760206040517f8d1994e2bbbd77564cdca06dd819e7ee2a5efa06c80dcb59a4a7b6e39edc538f8152f35b34610449575f36600319011261044957602060405163ffffffff7f0000000000000000000000000000000000000000000000000000000000000000168152f35b34610449575f36600319011261044957611aff61424c565b5f6001600160a01b036033546001600160a01b03198116603355167f8be0079c531659141344cd1fd0a4f28419497f9722a3daafe3b4186f6b6457e08280a3005b8015150361044957565b34610449576020366003190112610449577fe88463c2f254e2b070013a2dc7ee1e099f9bc00534cbdf03af551dc26ae492196020600435611b8a81611b40565b611b9261422c565b611b9a613686565b15156108cf80547fffff00ffffffffffffffffffffffffffffffffffffffffffffffffffffffffff60ff60e81b8460e81b169116179055604051908152a1600160c955005b34610449576020366003190112610449576020611bfd6004356130d5565b604051908152f35b34610449575f3660031901126104495760206040517f000000000000000000000000000000000000000000000000000000000000000015158152f35b61016036600319011261044957600435611c5a8161048d565b60243590611c678261048d565b604435611c738161048d565b60643590611c808261048d565b60e435611c8c8161048d565b6101043590611c9a826104ab565b6101243592611ca8846104ab565b610144359667ffffffffffffffff881161044957611ccd610018983690600401610b41565b97909660c4359360a4359360843593613110565b61018036600319011261044957600435611cfa8161048d565b60243590611d078261048d565b604435611d138161048d565b60643590611d208261048d565b60e435611d2c8161048d565b61010435611d39816104ab565b6101243591611d47836104ab565b611d4f6104b9565b93610164359767ffffffffffffffff891161044957611d75610018993690600401610b41565b98909760c4359360a4359360843593613132565b34610449576060366003190112610449576020611bfd600435611dab8161048d565b604435906024359061324d565b346104495760603660031901126104495767ffffffffffffffff60243581811161044957611dea903690600401610b41565b9160443590811161044957611e03903690600401610b41565b9060405193602085019480611e1a4684888a613283565b0395611e2e601f19978881018452836105c4565b6004359151902003611ec1575f94611e5d611e7f93611e5487611e8b958a990190612887565b958101906132a0565b519360405193849160208301966337bfd2c960e21b8852339160248501613368565b039081018352826105c4565b5190305af4611e98612f56565b9015611ea057005b60405163b8fe37a760e01b8152908190611ebd906004830161338a565b0390fd5b604051630f0c8f4760e11b8152600490fd5b3461044957602036600319011261044957600435611eef61422c565b611ef7613686565b611f0081612b5e565b611f38576001815f80935501557f7c1af0646963afc3343245b103731965735a893347bfa0d58a5dc77a77ae691c5f80a2600160c955005b634e487b7160e01b5f525f60045260245ffd5b6101a03660031901126104495761012435611f65816104ab565b61014435611f72816104ab565b6101643591611f80836104ab565b610184359267ffffffffffffffff841161044957611fa5610018943690600401610b41565b9390926101043560e43560c43560a43560843560643560443560243560043561339b565b34610449575f3660031901126104495760206001600160a01b0360335416604051908152f35b34610449575f3660031901126104495760206040516001600160a01b037f0000000000000000000000000000000000000000000000000000000000000000168152f35b346104495760e03660031901126104495767ffffffffffffffff60043581811161044957612064903690600401610dbb565b60a4358281116104495761207c903690600401610b41565b60c4929192359384116104495761209a610018943690600401610b41565b93909260843590606435906044359060243590613413565b34610449576120c036611964565b909160ff5f5460081c1615610449576120f6906108cf9063ffffffff60c01b1963ffffffff60c01b83549260c01b169116179055565b604051612102816104e6565b6009815260208101926820a1a927a9a996ab1960b91b8452640312e302e360dc1b6020604051612131816104e6565b60058152015260ff5f5460081c1615610449576100189361218d925190206104e3557f06c015bd22b4c69690933c1058878ebdfef31f9aaae40bbe86d8a09fe1b2972c6104e45561218061466b565b61218861467a565b61468e565b6146e8565b34610449576020366003190112610449577f2d5b62420992e5a4afce0e77742636ca2608ef58289fd2e1baa5161ef6e7e41e60206004356121d281611b40565b6121da61422c565b6121e2613686565b15156108cf80547fffffff00ffffffffffffffffffffffffffffffffffffffffffffffffffffffff60ff60e01b8460e01b169116179055604051908152a1600160c955005b34610449575f366003190112610449576020604051468152f35b34610449575f36600319011261044957602063ffffffff6108cf5460c01c16604051908152f35b346104495760403660031901126104495760043560243561228882614be0565b6001600160a01b0382165f526108d76020526122b760405f20336001600160a01b03165f5260205260405f2090565b5491821561235a575f6122fe336122e86122d085613bad565b6001600160a01b03165f526108d760205260405f2090565b906001600160a01b03165f5260205260405f2090565b5561232a8361231b61230f84613bad565b6001600160a01b031690565b61232485613bad565b90614742565b60405192835233927f6c172ea51018fb2eb2118f3f8a507c4df71eb519b8c0052834dc3c920182fef490602090a4005b6040516336542bf760e21b8152600490fd5b6020808201906020835283518092526040830192602060408460051b8301019501935f915b8483106123a15750505050505090565b90919293949584806123bf600193603f198682030187528a51611296565b9801930193019194939290612391565b34610449576123dd36611246565b906123e7826134fc565b915f5b8181106123ff576040518061138c868261236c565b5f8061240c838587612f32565b9061241c60405180938193612f49565b0390305af4612429612f56565b901561244f579060019161243d8287612f1e565b526124488186612f1e565b50016123ea565b604481511061044957806004610449920151602480918301019101613545565b61018080600319360112610449576101043561248a816104ab565b6101243591612498836104ab565b61014435926124a6846104ab565b6101643567ffffffffffffffff8111610449576124c7903690600401610b41565b6124cf613686565b6108cf549260ff8460e81c1661074057610b37966125946110449261258663ffffffff6125a29860c01c169961252a6125078c6135a4565b6108cf9063ffffffff60c01b1963ffffffff60c01b83549260c01b169116179055565b612532610627565b9a6004358c5260243560208d015260443560408d015260643560608d015260843560808d015260a43560a08d015260c43560c08d015260e43560e08d01526101008c01526101208b019063ffffffff169052565b63ffffffff16610140890152565b63ffffffff16610160870152565b908201526143d9565b346104495760403660031901126104495760206126046004356125cd8161048d565b6001600160a01b03602435916125e28361048d565b165f526108d7835260405f20906001600160a01b03165f5260205260405f2090565b54604051908152f35b34610449575f3660031901126104495760206001600160a01b036108ce5416604051908152f35b346104495760c03660031901126104495760043560243567ffffffffffffffff60643560443560843583811161044957612672903690600401610b41565b60a494919435918211610449577f45e04bc8f121ba11466985789ca2822a91109f31bb8ac85504a37b7eaf873c26946126b2612701933690600401610b41565b9290916126bd613686565b6126c68a614be0565b6126f5898b89896126d836888861065d565b926126e4368b8b61065d565b946001600160a01b03469216614260565b60405196879687612fcb565b0390a3600160c955005b34610449575f3660031901126104495760206040516001600160a01b037f0000000000000000000000000000000000000000000000000000000000000000168152f35b34610449575f3660031901126104495760206040517f00000000000000000000000000000000000000000000000000000000000000008152f35b34610449576020366003190112610449576004355f526108d6602052602060405f2054604051908152f35b34610449575f36600319011261044957602060405163ffffffff8152f35b919061018083820312610449576127e6610606565b92803584526020810135602085015260408101356040850152606081013560608501526080810135608085015260a081013560a085015260c081013560c085015260e081013560e0850152610100808201359085015261012061284a8183016104c7565b9085015261014061285c8183016104c7565b90850152610160918282013567ffffffffffffffff8111610449576128819201610693565b90830152565b9060208282031261044957813567ffffffffffffffff8111610449576106ae92016127d1565b346104495760203660031901126104495760043567ffffffffffffffff811161044957611bfd610fc260209236906004016127d1565b34610449575f36600319011261044957602060ff6108cf5460e01c166040519015158152f35b34610449575f3660031901126104495760206040516ec097ce7bc90715b34b9f10000000008152f35b34610449576020366003190112610449576107396004356129528161048d565b61295a61422c565b612188613686565b346104495760603660031901126104495760043567ffffffffffffffff8111610449576129939036906004016127d1565b61299b613686565b60ff6108cf5460e01c16612a455761014081015163ffffffff4281169116101580612a26575b612a1457806129d2610b37926135b9565b60c0820151602083015190610160840151926129ec6105e6565b948552602085015260408401526060830152608082015260243560a082015260443590613f88565b604051630c3a9b9d60e41b8152600490fd5b50612a346040820151613bad565b6001600160a01b03163314156129c1565b604051633d90fc5560e11b8152600490fd5b34610449575f3660031901126104495760206040516001600160a01b037f0000000000000000000000000000000000000000000000000000000000000000168152f35b610160806003193601126104495761010435612ab5816104ab565b61012435612ac2816104ab565b6101443567ffffffffffffffff811161044957612ae3903690600401610b41565b63ffffffff94612af686421695866130f8565b93612aff613686565b6108cf549160ff8360e81c1661074057612b32612b3f96612586610b379a6110449660c01c169961252a6125078c6135a4565b86019063ffffffff169052565b6101808201526143d9565b634e487b7160e01b5f52603260045260245ffd5b6108d0908154811015612b98576003915f52027f6404fdb155c59a831d14e4acb0957279f1e3a856a4513ac322398c7bc9a5781b01905f90565b612b4a565b34610449576020366003190112610449576004356108d05481101561044957612bc7604091612b5e565b506001815491015482519182526020820152f35b3461044957602036600319011261044957600435612bf88161048d565b612c0061424c565b6001600160a01b03811615610449576100189061433c565b34610449576020366003190112610449576004355f52610cbe602052602060ff60405f2054166040519015158152f35b3461044957602036600319011261044957610739600435612c688161048d565b612c7061422c565b61218d613686565b9190612c82613686565b602081019182514603612d9457612caa612cae91836001612ca288612b5e565b5001546138d8565b1590565b612d82577ff4ad92585b1bc117fbdd644990adf0827bc4c95baeae8a23322af807b6d0020e6060820192612cef612ce9855163ffffffff1690565b8661396a565b8051612d758451926040860195612d5a612d4c612d3b895196612d168c5163ffffffff1690565b976080860198612d2d8a516001600160a01b031690565b9160a088019b8c51946139cc565b925193519851995163ffffffff1690565b94516001600160a01b031690565b945163ffffffff9586604051978897169b1699339487612e15565b0390a46104a9600160c955565b60405163582f497d60e11b8152600490fd5b604051633d23e4d160e11b8152600490fd5b9081518082526020808093019301915f5b828110612dc5575050505090565b835185529381019392810192600101612db7565b9081518082526020808093019301915f5b828110612df8575050505090565b83516001600160a01b031685529381019392810192600101612dea565b9496959193612e3760a095612e5593885260c0602089015260c0880190612da6565b906001600160a01b0380951660408801528682036060880152612dd9565b951515608085015216910152565b90816020910312610449575190565b6040513d5f823e3d90fd5b919091604081840312610449578035612e958161048d565b92602082013567ffffffffffffffff8111610449576106ae9201610693565b356106ae8161048d565b356106ae816104ab565b903590601e1981360301821215610449570180359067ffffffffffffffff82116104495760200191813603831361044957565b634e487b7160e01b5f52602160045260245ffd5b60031115612f1957565b612efb565b8051821015612b985760209160051b010190565b90821015612b98576112719160051b810190612ec8565b908092918237015f815290565b3d15612f80573d90612f6782610641565b91612f7560405193846105c4565b82523d5f602084013e565b606090565b634e487b7160e01b5f52601160045260245ffd5b91908203918211612fa657565b612f85565b908060209392818452848401375f828201840152601f01601f1916010190565b94929093612ff0926106ae979587526020870152608060408701526080860191612fab565b926060818503910152612fab565b91909160ff5f5460081c1615610449576130173361433c565b60ff5f5460081c16156104495761304b906108cf9063ffffffff60c01b1963ffffffff60c01b83549260c01b169116179055565b604051613057816104e6565b6009815260208101926820a1a927a9a996ab1960b91b8452640312e302e360dc1b6020604051613086816104e6565b60058152015260ff5f5460081c1615610449576104a99361218d925190206104e3557f06c015bd22b4c69690933c1058878ebdfef31f9aaae40bbe86d8a09fe1b2972c6104e45561218061466b565b604051602081019182525f6040820152604081526130f281610538565b51902090565b91909163ffffffff80809416911601918211612fa657565b96949290916104a99b9a999896949261313063ffffffff421698896130f8565b985b9593919b999897969492909b613146613686565b6108cf549660ff8860e81c16610740578760c01c63ffffffff16613169906135a4565b613190906108cf9063ffffffff60c01b1963ffffffff60c01b83549260c01b169116179055565b613198610627565b9d6001600160a01b038f921682526001600160a01b031690602001526001600160a01b031660408d01526001600160a01b031660608c015260808b015260a08a015260c08901526001600160a01b031660e088015260c01c63ffffffff16610100870152610120860190613211919063ffffffff169052565b63ffffffff1661014085015263ffffffff1661016084015236906132349261065d565b610180820152613243906143d9565b6104a9600160c955565b916040519160208301936bffffffffffffffffffffffff199060601b16845260348301526054820152605481526130f281610554565b93929160209161329b91604087526040870191612fab565b930152565b9081602091031261044957604051906020820182811067ffffffffffffffff8211176105025760405235815290565b6106ae9161018090825181526020830151602082015260408301516040820152606083015160608201526080830151608082015260a083015160a082015260c083015160c082015260e083015160e08201526101008084015190820152613344610120808501519083019063ffffffff169052565b6101408381015163ffffffff16908201528161016080940151938201520190611296565b613380604092959493956060835260608301906132cf565b9460208201520152565b9060206106ae928181520190611296565b9c9a99989796959493929190966133b0613686565b60ff6108cf5460e81c16610740576133c9908e3361324d565b96604051809e6133d882610507565b81526020015260408d015260608c015260808b015260a08a015260c089015260e088015261010087015263ffffffff16610120860152613211565b979290959391969497613424613686565b60ff6108cf5460e01c16612a455761343f6101408201612ebe565b63ffffffff80421691161015806134dd575b612a14576134c66134d8966134be6132439b613470610fc236876127d1565b9a6134796105e6565b9b61348436886127d1565b8d5260208d01528660408d01528760608d01526134a2368b8461065d565b60808d015260a08c01526134b68535613bad565b98369161065d565b95369161065d565b9461010060e083013592013590614260565b613f88565b506134eb6040820135613bad565b6001600160a01b0316331415613451565b90613506826107f2565b61351360405191826105c4565b8281528092613524601f19916107f2565b01905f5b82811061353457505050565b806060602080938501015201613528565b6020818303126104495780519067ffffffffffffffff8211610449570181601f8201121561044957805161357881610641565b9261358660405194856105c4565b81845260208284010111610449576106ae9160208085019101611275565b63ffffffff809116908114612fa65760010190565b6040516130f2816135d660208201946040865260608301906132cf565b46604083015203601f1981018352826105c4565b9190916135f5613686565b60ff6108cf5460e01c16612a455761014081015163ffffffff4281169116101580613667575b612a14576132439261362c826135b9565b60c0830151602084015190610160850151926136466105e6565b958652602086015260408501526060840152608083015260a0820152613f88565b506136756040820151613bad565b6001600160a01b031633141561361b565b600260c9541461044957600260c955565b926106ae9695929491946101409585525f60208601526040850152606084015263ffffffff809116608084015260a08301525f60c083015260e08201525f610100820152816101208201520190611296565b9193949690959660070b906706f05b59d3b200006137068361478a565b10156138c6576ec097ce7bc90715b34b9f100000000084116138b45763ffffffff93613734858a1642612f99565b857f000000000000000000000000000000000000000000000000000000000000000016106138a2576108cf5460c01c63ffffffff16986137766125078b6135a4565b6001600160a01b039586807f00000000000000000000000000000000000000000000000000000000000000001698169288841480613899575b1561385d5780340361384b57883b15610449575f6004996040519a8b8092630d0e30db60e41b825234905af1988915610d8b5761381a61382d978a927f32ed1a409ef04c7b0227189c3a103dc5ac10e775a15b785dcc510201f7c25ad39c613832575b505b836147d8565b92604051998a99169d169b169387613697565b0390a4565b8061383f61384592610524565b8061043f565b5f613812565b604051636452a35d60e01b8152600490fd5b7f32ed1a409ef04c7b0227189c3a103dc5ac10e775a15b785dcc510201f7c25ad398508761381a61382d976138948430338a614799565b613814565b503415156137af565b60405163f722177f60e01b8152600490fd5b60405163622db5a960e11b8152600490fd5b60405163284f109760e21b8152600490fd5b6106ae929160405161396181613953602082019460208652805160408401526020810151606084015260a061391d604083015160c06080870152610100860190612da6565b606083015163ffffffff168583015260808301516001600160a01b031660c0860152910151838203603f190160e0850152612dd9565b03601f1981018352826105c4565b5190209161480e565b613975600291612b5e565b500162ffffff8260081c16805f5281602052600160ff60405f205494161b80809416146139ad575f5260205260405f20908154179055565b60405163954476d960e01b8152600490fd5b91908201809211612fa657565b91959495939092935f9681519081815103613b9b5781613a4b575b505050826139f6575b50505050565b6001600160a01b0381613a2a7ffa7fa7cf6d7dde5f9be65a67e6a1a747e7aa864dcd2d793353c722d80fbbb35793866148d1565b6040805195865233602087015291169463ffffffff1693a45f8080806139f0565b604080516370a0823160e01b81523060048083019190915291906020816024816001600160a01b038b165afa908115610d8b575f91613b7c575b505f805b868110613a9a5750505050506139e7565b613aa48189612f1e565b51613ab2575b600101613a89565b90613ac890613ac1838a612f1e565b51906139bf565b90828211613b6c57613b02612caa613af0613ae3848a612f1e565b516001600160a01b031690565b613afa848c612f1e565b51908c61485f565b15613aaa579c5087613b62613b5a8f613b45613ae3613b3e613b24848f612f1e565b51966001600160a01b03165f526108d760205260405f2090565b928b612f1e565b6001600160a01b03165f5260205260405f2090565b9182546139bf565b905560019c613aaa565b50505051632ddaa83160e11b8152fd5b613b95915060203d602011610d8457610d7581836105c4565b5f613a85565b6040516319a5316760e31b8152600490fd5b6001600160a01b0390613bbf81614be0565b1690565b91612caa90613c3c92845160408096015191865191613be183610538565b8252613961613bfc6020840192468452898501958652612b5e565b5054938851928391613c216020840196602088525160608d86015260a08501906132cf565b9151606084015251608083015203601f1981018352826105c4565b613c435750565b5163582f497d60e11b8152600490fd5b613c5c82612f0f565b52565b9a989693919c9b9997959492909c6101e08c019d8c5260208c015260408b015260608a0152608089015263ffffffff80921660a08901521660c087015260e08601526101008501526101208401526101408301528051610160830152602081015161018083015260408101516101a08301526060015190613cdf82612f0f565b6101c00152565b906106ae94936080936001600160a01b03809316845260208401521660408201528160608201520190611296565b905f82516101208101613d2b815163ffffffff1690565b63ffffffff42911610613f76576020850151906002613d53835f526108d660205260405f2090565b5414613f6457613d6d86925f526108d660205260405f2090565b6002905560608301519060808401519160a08501519260c0860151918560a0810151938860e0810151956101008201519751613dac9063ffffffff1690565b61014083015163ffffffff166040840151918451936020860151956101600151613dd590614217565b966060890151986080019e8f51613deb90614217565b906040015190613df9610634565b9a8b5260208b015260408a0152600260608a01526040519d8e9b613e1d9b8d613c5f565b037f44b559f101f8fbcc8a0ea43fa91a05a729a5ea6e14a7c75aa750374690137208905f94a46080820151613e5190613bad565b9060408601519560600151613e6590613bad565b9260800151613e7390613bad565b6001600160a01b03919082167f0000000000000000000000000000000000000000000000000000000000000000831603613f4f5784613f3c575b613eb987838616614bfb565b51928351151580613f32575b613ed3575b50505050509050565b1690813b15613f2e5783613f01959660405196879586948593633a5be8cb60e01b8552339160048601613ce6565b03925af18015610d8b57613f1b575b808080808594613eca565b8061383f613f2892610524565b5f613f10565b8380fd5b50803b1515613ec5565b613f4a873033858716614799565b613ead565b5f9450613f5f8785858516614742565b613eb9565b604051630479306360e51b8152600490fd5b60405163d642b7d960e01b8152600490fd5b8051916101208301613f9e815163ffffffff1690565b63ffffffff42911610613f765760208301516001613fc5825f526108d660205260405f2090565b54036141e2576001905b6002613fe4825f526108d660205260405f2090565b5414613f6457614000614006915f526108d660205260405f2090565b60029055565b7f44b559f101f8fbcc8a0ea43fa91a05a729a5ea6e14a7c75aa75037469013720860608601516080870151906140d38760a08a0151958a60c08101519760a08401519860e0830151996140636101008501519c5163ffffffff1690565b61014085015163ffffffff16916040860151938651956140c761408f61016060208b01519a0151614217565b9960608c01519b60406140a56080830151614217565b9101519060206140b3610634565b9e8f528e015260408d015260608c01613c53565b6040519c8d9c8d613c5f565b0390a46140e36080830151613bad565b916040820151916080614105816140fd6060850151613bad565b940151613bad565b6001600160a01b03929083167f00000000000000000000000000000000000000000000000000000000000000008416036141cf57614147853033868a16614799565b61415385848616614bfb565b01519182511515806141c5575b61416c575b5050505050565b16803b156104495761419a935f809460405196879586948593633a5be8cb60e01b8552339160048601613ce6565b03925af18015610d8b576141b2575b80808080614165565b8061383f6141bf92610524565b5f6141a9565b50803b1515614160565b6141dd858533868a16614799565b614153565b5f90613fcf565b5f8091602081519101305af46141fd612f56565b501561420557565b6040516318cecad560e01b8152600490fd5b805190816142255750505f90565b6020012090565b60ff610cbf54161561423a57565b604051631147e02f60e11b8152600490fd5b6001600160a01b0360335416330361044957565b93926042936104a9979660208151910120906040519260208401947f8d1994e2bbbd77564cdca06dd819e7ee2a5efa06c80dcb59a4a7b6e39edc538f86526040850152856060850152608084015260a083015260c082015260c081526142c58161058c565b519020906104e354906104e454906040519160208301937fc2f8787176b8ac6bf7215b4adcc1e069bf4ab82d9ab1df05a57a91d425935b6e85526040840152606083015260808201526080815261431b816105a8565b519020906040519161190160f01b8352600283015260228201522090614e1b565b603354906001600160a01b0380911691826001600160a01b0319821617603355167f8be0079c531659141344cd1fd0a4f28419497f9722a3daafe3b4186f6b6457e05f80a3565b96926106ae9a9996949198959261014099895260208901526040880152606087015263ffffffff928380921660808801521660a08601521660c084015260e0830152610100820152816101208201520190611296565b6143e38151614be0565b61012081016144026143f9825163ffffffff1690565b63ffffffff1690565b804210908115614632575b506138a257610140820191614426835163ffffffff1690565b9063ffffffff918261445a817f000000000000000000000000000000000000000000000000000000000000000016426139bf565b9116116146205761016081015163ffffffff1691808316806145db575b505060408101908151916001600160a01b037f000000000000000000000000000000000000000000000000000000000000000016809314806145d2575b15614585576080820151340361384b57823b15610449575f60049360405194858092630d0e30db60e41b825234905af1928315610d8b577f32ed1a409ef04c7b0227189c3a103dc5ac10e775a15b785dcc510201f7c25ad393614572575b505b5161382d60608301519260808101519060a081015160c0820151976145516145466101008501519b5163ffffffff1690565b9b5163ffffffff1690565b83519b60208501519361018060e0870151960151966040519a8b9a8b614383565b8061383f61457f92610524565b5f614512565b91503461384b57816145cd6145be61230f7f32ed1a409ef04c7b0227189c3a103dc5ac10e775a15b785dcc510201f7c25ad39551613bad565b60808401519030903390614799565b614514565b503415156144b4565b6301e13380101561460b575b5060e0810151156145f9575f80614477565b60405163495d907f60e01b8152600490fd5b9161461991924216906130f8565b905f6145e7565b60405163582e388960e01b8152600490fd5b61463d915042612f99565b63ffffffff7f000000000000000000000000000000000000000000000000000000000000000016105f61440d565b60ff5f5460081c161561044957565b60ff5f5460081c161561044957600160c955565b6001600160a01b031680156146d6576108cd816001600160a01b03198254161790557fa9e8c42c9e7fca7f62755189a16b2f5314d43d8fb24e91ba54e6d65f9314e8495f80a2565b60405163ba97b39d60e01b8152600490fd5b6001600160a01b03168015614730576108ce816001600160a01b03198254161790557fa73e8909f8616742d7fe701153d82666f7b7cd480552e23ebb05d358c22fd04e5f80a2565b604051635b03092b60e11b8152600490fd5b60405163a9059cbb60e01b60208201526001600160a01b03909216602483015260448201929092526104a99161478582606481015b03601f1981018452836105c4565b614ef9565b5f81126147945790565b5f0390565b90926104a993604051936323b872dd60e01b60208601526001600160a01b038092166024860152166044840152606483015260648252614785826105a8565b90670de0b6b3a7640000915f828403921283831281169084841390151617612fa657818102918183041490151715612fa6570490565b929091905f915b8451831015614857576148288386612f1e565b519081811015614846575f52602052600160405f205b920191614815565b905f52602052600160405f2061483e565b915092501490565b60405163a9059cbb60e01b60208281019182526001600160a01b039094166024830152604482019490945290925f9161489b8160648101613953565b519082855af1903d5f5190836148b2575b50505090565b919250906148c757503b15155b5f80806148ac565b60019150146148bf565b6001600160a01b03807f000000000000000000000000000000000000000000000000000000000000000016928315159081614bb2575b5015614ba057806108ce54167f000000000000000000000000000000000000000000000000000000000000000091614940848685614fef565b604094604051926332dd704760e21b84526020956004948781600481875afa968715610d8b5788915f98614b6f575b506040516352b7631960e11b81529086166001600160a01b03811660048301529097909588916024918391165afa958615610d8b575f96614b50575b5095867f0000000000000000000000000000000000000000000000000000000000000000975b6149e057505050505050505050565b86811115614b4a57865b8815614aa257843b15610449578951634701287760e11b815287810182815263ffffffff7f0000000000000000000000000000000000000000000000000000000000000000166020820152604081018690526001600160a01b03881660608201525f6080820181905260a082018190526107d060c0830152919391908490819060e0010381838a5af1928315610d8b57614a8993614a8f575b50612f99565b806149d1565b8061383f614a9c92610524565b5f614a83565b89516337e9a82760e11b815287810182815263ffffffff7f0000000000000000000000000000000000000000000000000000000000000000166020820152604081018690526001600160a01b038816606082015290929084908490819060800103815f8a5af1928315610d8b57614a8993614b1d5750612f99565b614b3c90853d8711614b43575b614b3481836105c4565b810190614f9e565b505f614a83565b503d614b2a565b806149ea565b614b68919650873d8911610d8457610d7581836105c4565b945f6149ab565b86919850614b9290833d8511614b99575b614b8a81836105c4565b810190614f89565b979061496f565b503d614b80565b60405163d623472560e01b8152600490fd5b82167f000000000000000000000000000000000000000000000000000000000000000083161490505f614907565b60a01c614be957565b6040516379ec0ed760e11b8152600490fd5b6001600160a01b0390811690813b15614c3b57906104a992917f000000000000000000000000000000000000000000000000000000000000000016614742565b7f000000000000000000000000000000000000000000000000000000000000000016803b15610449575f8091602460405180948193632e1a7d4d60e01b83528860048401525af18015610d8b57614cad575b50814710610449575f80809381935af1614ca5612f56565b501561044957565b614cb690610524565b5f614c8d565b614cc581614dd8565b6001600160a01b0381167fbc7cd75a20ee27fd9adebab32041f755214dbc6bffa90cc0225b39da2e5c2d3b5f80a2815115801590614d80575b614d06575050565b5f80614d7d937f206661696c65640000000000000000000000000000000000000000000000000060408051614d3a81610538565b602781527f416464726573733a206c6f772d6c6576656c2064656c65676174652063616c6c60208201520152602081519101845af4614d77612f56565b91615093565b50565b505f614cfe565b614d9081614dd8565b6001600160a01b0381167fbc7cd75a20ee27fd9adebab32041f755214dbc6bffa90cc0225b39da2e5c2d3b5f80a2815115801590614dd057614d06575050565b506001614cfe565b803b15610449576001600160a01b037f360894a13ba1a3210667c828492db98dca3e2076cc3735a920a3ca505d382bbc91166001600160a01b0319825416179055565b614e258383614fbe565b6005819592951015612f1957159384614ee3575b508315614e5d575b50505015614e4b57565b60405163938a182160e01b8152600490fd5b5f929350908291604051614e95816139536020820194630b135d3f60e11b998a87526024840152604060448401526064830190611296565b51915afa90614ea2612f56565b82614ed5575b82614eb8575b50505f8080614e41565b614ecd91925060208082518301019101612e63565b145f80614eae565b915060208251101591614ea8565b6001600160a01b0383811691161493505f614e39565b905f806001600160a01b03614f509416927f5361666545524332303a206c6f772d6c6576656c2063616c6c206661696c65646020604051614f39816104e6565b818152015260208151910182855af1614d77612f56565b8051908115918215614f66575b50501561044957565b81925090602091810103126104495760200151614f8281611b40565b5f80614f5d565b9081602091031261044957516106ae8161048d565b90816020910312610449575167ffffffffffffffff811681036104495790565b9060418151145f14614fe65761127191602082015190606060408401519301515f1a906150bc565b50505f90600290565b6044919260206001600160a01b0360405194858092636eb1769f60e11b8252306004830152808916602483015286165afa928315610d8b575f93615072575b508201809211612fa65760405163095ea7b360e01b60208201526001600160a01b03909316602484015260448301919091526104a991906147858260648101614777565b61508c91935060203d602011610d8457610d7581836105c4565b915f61502e565b90156150ad578151156150a4575090565b3b156104495790565b50805190811561044957602001fd5b7f7fffffffffffffffffffffffffffffff5d576e7357a4501ddfe92f46681b20a0841161512c576020935f9360ff60809460405194855216868401526040830152606082015282805260015afa15610d8b575f516001600160a01b0381161561512457905f90565b505f90600190565b505050505f9060039056fea264697066735822122089fe1e19c4a674b141a7bf7d522f06390e522a514dd52c9df99008e2c60a789264736f6c63430008170033"
}