{
  "address": "0x4e8E101924eDE233C13e2D8622DC8aED2872d505",
  "abi": [
    {
      "inputs": [
        {
          "internalType": "uint256",
          "name": "_adminUpdateBufferSeconds",
          "type": "uint256"
        },
        {
          "internalType": "address",
          "name": "_helios",
          "type": "address"
        },
        {
          "internalType": "address",
          "name": "_hubPoolStore",
          "type": "address"
        },
        {
          "internalType": "address",
          "name": "_wrappedNativeTokenAddress",
          "type": "address"
        },
        {
          "internalType": "uint32",
          "name": "_depositQuoteTimeBuffer",
          "type": "uint32"
        },
        {
          "internalType": "uint32",
          "name": "_fillDeadlineBuffer",
          "type": "uint32"
        },
        {
          "internalType": "contract IERC20",
          "name": "_l2Usdc",
          "type": "address"
        },
        {
          "internalType": "contract ITokenMessenger",
          "name": "_cctpTokenMessenger",
          "type": "address"
        }
      ],
      "stateMutability": "nonpayable",
      "type": "constructor"
    },
    {
      "inputs": [],
      "name": "AdminCallAlreadySet",
      "type": "error"
    },
    {
      "inputs": [],
      "name": "AdminCallNotValidated",
      "type": "error"
    },
    {
      "inputs": [],
      "name": "AdminUpdateTooCloseToLastHeliosUpdate",
      "type": "error"
    },
    {
      "inputs": [],
      "name": "AlreadyExecuted",
      "type": "error"
    },
    {
      "inputs": [],
      "name": "ClaimedMerkleLeaf",
      "type": "error"
    },
    {
      "inputs": [],
      "name": "DelegateCallFailed",
      "type": "error"
    },
    {
      "inputs": [],
      "name": "DepositsArePaused",
      "type": "error"
    },
    {
      "inputs": [],
      "name": "DisabledRoute",
      "type": "error"
    },
    {
      "inputs": [],
      "name": "ExpiredFillDeadline",
      "type": "error"
    },
    {
      "inputs": [],
      "name": "FillsArePaused",
      "type": "error"
    },
    {
      "inputs": [],
      "name": "InsufficientSpokePoolBalanceToExecuteLeaf",
      "type": "error"
    },
    {
      "inputs": [],
      "name": "InvalidBytes32",
      "type": "error"
    },
    {
      "inputs": [],
      "name": "InvalidChainId",
      "type": "error"
    },
    {
      "inputs": [],
      "name": "InvalidCrossDomainAdmin",
      "type": "error"
    },
    {
      "inputs": [],
      "name": "InvalidDepositorSignature",
      "type": "error"
    },
    {
      "inputs": [],
      "name": "InvalidExclusiveRelayer",
      "type": "error"
    },
    {
      "inputs": [],
      "name": "InvalidFillDeadline",
      "type": "error"
    },
    {
      "inputs": [],
      "name": "InvalidMerkleLeaf",
      "type": "error"
    },
    {
      "inputs": [],
      "name": "InvalidMerkleProof",
      "type": "error"
    },
    {
      "inputs": [],
      "name": "InvalidPayoutAdjustmentPct",
      "type": "error"
    },
    {
      "inputs": [],
      "name": "InvalidQuoteTimestamp",
      "type": "error"
    },
    {
      "inputs": [],
      "name": "InvalidRelayerFeePct",
      "type": "error"
    },
    {
      "inputs": [],
      "name": "InvalidSlowFillRequest",
      "type": "error"
    },
    {
      "inputs": [],
      "name": "InvalidWithdrawalRecipient",
      "type": "error"
    },
    {
      "inputs": [
        {
          "internalType": "bytes",
          "name": "data",
          "type": "bytes"
        }
      ],
      "name": "LowLevelCallFailed",
      "type": "error"
    },
    {
      "inputs": [],
      "name": "MaxTransferSizeExceeded",
      "type": "error"
    },
    {
      "inputs": [],
      "name": "MsgValueDoesNotMatchInputAmount",
      "type": "error"
    },
    {
      "inputs": [],
      "name": "NoRelayerRefundToClaim",
      "type": "error"
    },
    {
      "inputs": [],
      "name": "NoSlowFillsInExclusivityWindow",
      "type": "error"
    },
    {
      "inputs": [],
      "name": "NotEOA",
      "type": "error"
    },
    {
      "inputs": [],
      "name": "NotExclusiveRelayer",
      "type": "error"
    },
    {
      "inputs": [],
      "name": "NotImplemented",
      "type": "error"
    },
    {
      "inputs": [],
      "name": "NotTarget",
      "type": "error"
    },
    {
      "inputs": [],
      "name": "RelayFilled",
      "type": "error"
    },
    {
      "inputs": [],
      "name": "SlotValueMismatch",
      "type": "error"
    },
    {
      "inputs": [],
      "name": "WrongERC7683OrderId",
      "type": "error"
    },
    {
      "anonymous": false,
      "inputs": [
        {
          "indexed": false,
          "internalType": "address",
          "name": "previousAdmin",
          "type": "address"
        },
        {
          "indexed": false,
          "internalType": "address",
          "name": "newAdmin",
          "type": "address"
        }
      ],
      "name": "AdminChanged",
      "type": "event"
    },
    {
      "anonymous": false,
      "inputs": [
        {
          "indexed": true,
          "internalType": "address",
          "name": "beacon",
          "type": "address"
        }
      ],
      "name": "BeaconUpgraded",
      "type": "event"
    },
    {
      "anonymous": false,
      "inputs": [
        {
          "indexed": true,
          "internalType": "bytes32",
          "name": "l2TokenAddress",
          "type": "bytes32"
        },
        {
          "indexed": true,
          "internalType": "bytes32",
          "name": "refundAddress",
          "type": "bytes32"
        },
        {
          "indexed": false,
          "internalType": "uint256",
          "name": "amount",
          "type": "uint256"
        },
        {
          "indexed": true,
          "internalType": "address",
          "name": "caller",
          "type": "address"
        }
      ],
      "name": "ClaimedRelayerRefund",
      "type": "event"
    },
    {
      "anonymous": false,
      "inputs": [
        {
          "indexed": true,
          "internalType": "uint256",
          "name": "rootBundleId",
          "type": "uint256"
        }
      ],
      "name": "EmergencyDeletedRootBundle",
      "type": "event"
    },
    {
      "anonymous": false,
      "inputs": [
        {
          "indexed": true,
          "internalType": "address",
          "name": "originToken",
          "type": "address"
        },
        {
          "indexed": true,
          "internalType": "uint256",
          "name": "destinationChainId",
          "type": "uint256"
        },
        {
          "indexed": false,
          "internalType": "bool",
          "name": "enabled",
          "type": "bool"
        }
      ],
      "name": "EnabledDepositRoute",
      "type": "event"
    },
    {
      "anonymous": false,
      "inputs": [
        {
          "indexed": false,
          "internalType": "uint256",
          "name": "amountToReturn",
          "type": "uint256"
        },
        {
          "indexed": true,
          "internalType": "uint256",
          "name": "chainId",
          "type": "uint256"
        },
        {
          "indexed": false,
          "internalType": "uint256[]",
          "name": "refundAmounts",
          "type": "uint256[]"
        },
        {
          "indexed": true,
          "internalType": "uint32",
          "name": "rootBundleId",
          "type": "uint32"
        },
        {
          "indexed": true,
          "internalType": "uint32",
          "name": "leafId",
          "type": "uint32"
        },
        {
          "indexed": false,
          "internalType": "address",
          "name": "l2TokenAddress",
          "type": "address"
        },
        {
          "indexed": false,
          "internalType": "address[]",
          "name": "refundAddresses",
          "type": "address[]"
        },
        {
          "indexed": false,
          "internalType": "bool",
          "name": "deferredRefunds",
          "type": "bool"
        },
        {
          "indexed": false,
          "internalType": "address",
          "name": "caller",
          "type": "address"
        }
      ],
      "name": "ExecutedRelayerRefundRoot",
      "type": "event"
    },
    {
      "anonymous": false,
      "inputs": [
        {
          "indexed": false,
          "internalType": "bytes32",
          "name": "inputToken",
          "type": "bytes32"
        },
        {
          "indexed": false,
          "internalType": "bytes32",
          "name": "outputToken",
          "type": "bytes32"
        },
        {
          "indexed": false,
          "internalType": "uint256",
          "name": "inputAmount",
          "type": "uint256"
        },
        {
          "indexed": false,
          "internalType": "uint256",
          "name": "outputAmount",
          "type": "uint256"
        },
        {
          "indexed": false,
          "internalType": "uint256",
          "name": "repaymentChainId",
          "type": "uint256"
        },
        {
          "indexed": true,
          "internalType": "uint256",
          "name": "originChainId",
          "type": "uint256"
        },
        {
          "indexed": true,
          "internalType": "uint256",
          "name": "depositId",
          "type": "uint256"
        },
        {
          "indexed": false,
          "internalType": "uint32",
          "name": "fillDeadline",
          "type": "uint32"
        },
        {
          "indexed": false,
          "internalType": "uint32",
          "name": "exclusivityDeadline",
          "type": "uint32"
        },
        {
          "indexed": false,
          "internalType": "bytes32",
          "name": "exclusiveRelayer",
          "type": "bytes32"
        },
        {
          "indexed": true,
          "internalType": "bytes32",
          "name": "relayer",
          "type": "bytes32"
        },
        {
          "indexed": false,
          "internalType": "bytes32",
          "name": "depositor",
          "type": "bytes32"
        },
        {
          "indexed": false,
          "internalType": "bytes32",
          "name": "recipient",
          "type": "bytes32"
        },
        {
          "indexed": false,
          "internalType": "bytes32",
          "name": "messageHash",
          "type": "bytes32"
        },
        {
          "components": [
            {
              "internalType": "bytes32",
              "name": "updatedRecipient",
              "type": "bytes32"
            },
            {
              "internalType": "bytes32",
              "name": "updatedMessageHash",
              "type": "bytes32"
            },
            {
              "internalType": "uint256",
              "name": "updatedOutputAmount",
              "type": "uint256"
            },
            {
              "internalType": "enum V3SpokePoolInterface.FillType",
              "name": "fillType",
              "type": "uint8"
            }
          ],
          "indexed": false,
          "internalType": "struct V3SpokePoolInterface.V3RelayExecutionEventInfo",
          "name": "relayExecutionInfo",
          "type": "tuple"
        }
      ],
      "name": "FilledRelay",
      "type": "event"
    },
    {
      "anonymous": false,
      "inputs": [
        {
          "indexed": false,
          "internalType": "address",
          "name": "inputToken",
          "type": "address"
        },
        {
          "indexed": false,
          "internalType": "address",
          "name": "outputToken",
          "type": "address"
        },
        {
          "indexed": false,
          "internalType": "uint256",
          "name": "inputAmount",
          "type": "uint256"
        },
        {
          "indexed": false,
          "internalType": "uint256",
          "name": "outputAmount",
          "type": "uint256"
        },
        {
          "indexed": false,
          "internalType": "uint256",
          "name": "repaymentChainId",
          "type": "uint256"
        },
        {
          "indexed": true,
          "internalType": "uint256",
          "name": "originChainId",
          "type": "uint256"
        },
        {
          "indexed": true,
          "internalType": "uint32",
          "name": "depositId",
          "type": "uint32"
        },
        {
          "indexed": false,
          "internalType": "uint32",
          "name": "fillDeadline",
          "type": "uint32"
        },
        {
          "indexed": false,
          "internalType": "uint32",
          "name": "exclusivityDeadline",
          "type": "uint32"
        },
        {
          "indexed": false,
          "internalType": "address",
          "name": "exclusiveRelayer",
          "type": "address"
        },
        {
          "indexed": true,
          "internalType": "address",
          "name": "relayer",
          "type": "address"
        },
        {
          "indexed": false,
          "internalType": "address",
          "name": "depositor",
          "type": "address"
        },
        {
          "indexed": false,
          "internalType": "address",
          "name": "recipient",
          "type": "address"
        },
        {
          "indexed": false,
          "internalType": "bytes",
          "name": "message",
          "type": "bytes"
        },
        {
          "components": [
            {
              "internalType": "address",
              "name": "updatedRecipient",
              "type": "address"
            },
            {
              "internalType": "bytes",
              "name": "updatedMessage",
              "type": "bytes"
            },
            {
              "internalType": "uint256",
              "name": "updatedOutputAmount",
              "type": "uint256"
            },
            {
              "internalType": "enum V3SpokePoolInterface.FillType",
              "name": "fillType",
              "type": "uint8"
            }
          ],
          "indexed": false,
          "internalType": "struct V3SpokePoolInterface.LegacyV3RelayExecutionEventInfo",
          "name": "relayExecutionInfo",
          "type": "tuple"
        }
      ],
      "name": "FilledV3Relay",
      "type": "event"
    },
    {
      "anonymous": false,
      "inputs": [
        {
          "indexed": false,
          "internalType": "bytes32",
          "name": "inputToken",
          "type": "bytes32"
        },
        {
          "indexed": false,
          "internalType": "bytes32",
          "name": "outputToken",
          "type": "bytes32"
        },
        {
          "indexed": false,
          "internalType": "uint256",
          "name": "inputAmount",
          "type": "uint256"
        },
        {
          "indexed": false,
          "internalType": "uint256",
          "name": "outputAmount",
          "type": "uint256"
        },
        {
          "indexed": true,
          "internalType": "uint256",
          "name": "destinationChainId",
          "type": "uint256"
        },
        {
          "indexed": true,
          "internalType": "uint256",
          "name": "depositId",
          "type": "uint256"
        },
        {
          "indexed": false,
          "internalType": "uint32",
          "name": "quoteTimestamp",
          "type": "uint32"
        },
        {
          "indexed": false,
          "internalType": "uint32",
          "name": "fillDeadline",
          "type": "uint32"
        },
        {
          "indexed": false,
          "internalType": "uint32",
          "name": "exclusivityDeadline",
          "type": "uint32"
        },
        {
          "indexed": true,
          "internalType": "bytes32",
          "name": "depositor",
          "type": "bytes32"
        },
        {
          "indexed": false,
          "internalType": "bytes32",
          "name": "recipient",
          "type": "bytes32"
        },
        {
          "indexed": false,
          "internalType": "bytes32",
          "name": "exclusiveRelayer",
          "type": "bytes32"
        },
        {
          "indexed": false,
          "internalType": "bytes",
          "name": "message",
          "type": "bytes"
        }
      ],
      "name": "FundsDeposited",
      "type": "event"
    },
    {
      "anonymous": false,
      "inputs": [
        {
          "indexed": false,
          "internalType": "uint8",
          "name": "version",
          "type": "uint8"
        }
      ],
      "name": "Initialized",
      "type": "event"
    },
    {
      "anonymous": false,
      "inputs": [
        {
          "indexed": true,
          "internalType": "address",
          "name": "previousOwner",
          "type": "address"
        },
        {
          "indexed": true,
          "internalType": "address",
          "name": "newOwner",
          "type": "address"
        }
      ],
      "name": "OwnershipTransferred",
      "type": "event"
    },
    {
      "anonymous": false,
      "inputs": [
        {
          "indexed": false,
          "internalType": "bool",
          "name": "isPaused",
          "type": "bool"
        }
      ],
      "name": "PausedDeposits",
      "type": "event"
    },
    {
      "anonymous": false,
      "inputs": [
        {
          "indexed": false,
          "internalType": "bool",
          "name": "isPaused",
          "type": "bool"
        }
      ],
      "name": "PausedFills",
      "type": "event"
    },
    {
      "anonymous": false,
      "inputs": [
        {
          "indexed": true,
          "internalType": "uint256",
          "name": "nonce",
          "type": "uint256"
        },
        {
          "indexed": false,
          "internalType": "address",
          "name": "caller",
          "type": "address"
        }
      ],
      "name": "RelayedCallData",
      "type": "event"
    },
    {
      "anonymous": false,
      "inputs": [
        {
          "indexed": true,
          "internalType": "uint32",
          "name": "rootBundleId",
          "type": "uint32"
        },
        {
          "indexed": true,
          "internalType": "bytes32",
          "name": "relayerRefundRoot",
          "type": "bytes32"
        },
        {
          "indexed": true,
          "internalType": "bytes32",
          "name": "slowRelayRoot",
          "type": "bytes32"
        }
      ],
      "name": "RelayedRootBundle",
      "type": "event"
    },
    {
      "anonymous": false,
      "inputs": [
        {
          "indexed": false,
          "internalType": "bytes32",
          "name": "inputToken",
          "type": "bytes32"
        },
        {
          "indexed": false,
          "internalType": "bytes32",
          "name": "outputToken",
          "type": "bytes32"
        },
        {
          "indexed": false,
          "internalType": "uint256",
          "name": "inputAmount",
          "type": "uint256"
        },
        {
          "indexed": false,
          "internalType": "uint256",
          "name": "outputAmount",
          "type": "uint256"
        },
        {
          "indexed": true,
          "internalType": "uint256",
          "name": "originChainId",
          "type": "uint256"
        },
        {
          "indexed": true,
          "internalType": "uint256",
          "name": "depositId",
          "type": "uint256"
        },
        {
          "indexed": false,
          "internalType": "uint32",
          "name": "fillDeadline",
          "type": "uint32"
        },
        {
          "indexed": false,
          "internalType": "uint32",
          "name": "exclusivityDeadline",
          "type": "uint32"
        },
        {
          "indexed": false,
          "internalType": "bytes32",
          "name": "exclusiveRelayer",
          "type": "bytes32"
        },
        {
          "indexed": false,
          "internalType": "bytes32",
          "name": "depositor",
          "type": "bytes32"
        },
        {
          "indexed": false,
          "internalType": "bytes32",
          "name": "recipient",
          "type": "bytes32"
        },
        {
          "indexed": false,
          "internalType": "bytes32",
          "name": "messageHash",
          "type": "bytes32"
        }
      ],
      "name": "RequestedSlowFill",
      "type": "event"
    },
    {
      "anonymous": false,
      "inputs": [
        {
          "indexed": false,
          "internalType": "uint256",
          "name": "updatedOutputAmount",
          "type": "uint256"
        },
        {
          "indexed": true,
          "internalType": "uint256",
          "name": "depositId",
          "type": "uint256"
        },
        {
          "indexed": true,
          "internalType": "bytes32",
          "name": "depositor",
          "type": "bytes32"
        },
        {
          "indexed": false,
          "internalType": "bytes32",
          "name": "updatedRecipient",
          "type": "bytes32"
        },
        {
          "indexed": false,
          "internalType": "bytes",
          "name": "updatedMessage",
          "type": "bytes"
        },
        {
          "indexed": false,
          "internalType": "bytes",
          "name": "depositorSignature",
          "type": "bytes"
        }
      ],
      "name": "RequestedSpeedUpDeposit",
      "type": "event"
    },
    {
      "anonymous": false,
      "inputs": [
        {
          "indexed": false,
          "internalType": "uint256",
          "name": "updatedOutputAmount",
          "type": "uint256"
        },
        {
          "indexed": true,
          "internalType": "uint32",
          "name": "depositId",
          "type": "uint32"
        },
        {
          "indexed": true,
          "internalType": "address",
          "name": "depositor",
          "type": "address"
        },
        {
          "indexed": false,
          "internalType": "address",
          "name": "updatedRecipient",
          "type": "address"
        },
        {
          "indexed": false,
          "internalType": "bytes",
          "name": "updatedMessage",
          "type": "bytes"
        },
        {
          "indexed": false,
          "internalType": "bytes",
          "name": "depositorSignature",
          "type": "bytes"
        }
      ],
      "name": "RequestedSpeedUpV3Deposit",
      "type": "event"
    },
    {
      "anonymous": false,
      "inputs": [
        {
          "indexed": false,
          "internalType": "address",
          "name": "inputToken",
          "type": "address"
        },
        {
          "indexed": false,
          "internalType": "address",
          "name": "outputToken",
          "type": "address"
        },
        {
          "indexed": false,
          "internalType": "uint256",
          "name": "inputAmount",
          "type": "uint256"
        },
        {
          "indexed": false,
          "internalType": "uint256",
          "name": "outputAmount",
          "type": "uint256"
        },
        {
          "indexed": true,
          "internalType": "uint256",
          "name": "originChainId",
          "type": "uint256"
        },
        {
          "indexed": true,
          "internalType": "uint32",
          "name": "depositId",
          "type": "uint32"
        },
        {
          "indexed": false,
          "internalType": "uint32",
          "name": "fillDeadline",
          "type": "uint32"
        },
        {
          "indexed": false,
          "internalType": "uint32",
          "name": "exclusivityDeadline",
          "type": "uint32"
        },
        {
          "indexed": false,
          "internalType": "address",
          "name": "exclusiveRelayer",
          "type": "address"
        },
        {
          "indexed": false,
          "internalType": "address",
          "name": "depositor",
          "type": "address"
        },
        {
          "indexed": false,
          "internalType": "address",
          "name": "recipient",
          "type": "address"
        },
        {
          "indexed": false,
          "internalType": "bytes",
          "name": "message",
          "type": "bytes"
        }
      ],
      "name": "RequestedV3SlowFill",
      "type": "event"
    },
    {
      "anonymous": false,
      "inputs": [
        {
          "indexed": true,
          "internalType": "address",
          "name": "newWithdrawalRecipient",
          "type": "address"
        }
      ],
      "name": "SetWithdrawalRecipient",
      "type": "event"
    },
    {
      "anonymous": false,
      "inputs": [
        {
          "indexed": true,
          "internalType": "address",
          "name": "newAdmin",
          "type": "address"
        }
      ],
      "name": "SetXDomainAdmin",
      "type": "event"
    },
    {
      "anonymous": false,
      "inputs": [
        {
          "indexed": false,
          "internalType": "uint256",
          "name": "amountToReturn",
          "type": "uint256"
        },
        {
          "indexed": true,
          "internalType": "uint256",
          "name": "chainId",
          "type": "uint256"
        },
        {
          "indexed": true,
          "internalType": "uint32",
          "name": "leafId",
          "type": "uint32"
        },
        {
          "indexed": true,
          "internalType": "bytes32",
          "name": "l2TokenAddress",
          "type": "bytes32"
        },
        {
          "indexed": false,
          "internalType": "address",
          "name": "caller",
          "type": "address"
        }
      ],
      "name": "TokensBridged",
      "type": "event"
    },
    {
      "anonymous": false,
      "inputs": [
        {
          "indexed": true,
          "internalType": "address",
          "name": "implementation",
          "type": "address"
        }
      ],
      "name": "Upgraded",
      "type": "event"
    },
    {
      "anonymous": false,
      "inputs": [
        {
          "indexed": false,
          "internalType": "address",
          "name": "inputToken",
          "type": "address"
        },
        {
          "indexed": false,
          "internalType": "address",
          "name": "outputToken",
          "type": "address"
        },
        {
          "indexed": false,
          "internalType": "uint256",
          "name": "inputAmount",
          "type": "uint256"
        },
        {
          "indexed": false,
          "internalType": "uint256",
          "name": "outputAmount",
          "type": "uint256"
        },
        {
          "indexed": true,
          "internalType": "uint256",
          "name": "destinationChainId",
          "type": "uint256"
        },
        {
          "indexed": true,
          "internalType": "uint32",
          "name": "depositId",
          "type": "uint32"
        },
        {
          "indexed": false,
          "internalType": "uint32",
          "name": "quoteTimestamp",
          "type": "uint32"
        },
        {
          "indexed": false,
          "internalType": "uint32",
          "name": "fillDeadline",
          "type": "uint32"
        },
        {
          "indexed": false,
          "internalType": "uint32",
          "name": "exclusivityDeadline",
          "type": "uint32"
        },
        {
          "indexed": true,
          "internalType": "address",
          "name": "depositor",
          "type": "address"
        },
        {
          "indexed": false,
          "internalType": "address",
          "name": "recipient",
          "type": "address"
        },
        {
          "indexed": false,
          "internalType": "address",
          "name": "exclusiveRelayer",
          "type": "address"
        },
        {
          "indexed": false,
          "internalType": "bytes",
          "name": "message",
          "type": "bytes"
        }
      ],
      "name": "V3FundsDeposited",
      "type": "event"
    },
    {
      "inputs": [],
      "name": "ADMIN_UPDATE_BUFFER",
      "outputs": [
        {
          "internalType": "uint256",
          "name": "",
          "type": "uint256"
        }
      ],
      "stateMutability": "view",
      "type": "function"
    },
    {
      "inputs": [
        {
          "internalType": "address",
          "name": "",
          "type": "address"
        },
        {
          "internalType": "uint256",
          "name": "",
          "type": "uint256"
        }
      ],
      "name": "DEPRECATED_enabledDepositRoutes",
      "outputs": [
        {
          "internalType": "bool",
          "name": "",
          "type": "bool"
        }
      ],
      "stateMutability": "view",
      "type": "function"
    },
    {
      "inputs": [],
      "name": "EMPTY_RELAYER",
      "outputs": [
        {
          "internalType": "bytes32",
          "name": "",
          "type": "bytes32"
        }
      ],
      "stateMutability": "view",
      "type": "function"
    },
    {
      "inputs": [],
      "name": "EMPTY_REPAYMENT_CHAIN_ID",
      "outputs": [
        {
          "internalType": "uint256",
          "name": "",
          "type": "uint256"
        }
      ],
      "stateMutability": "view",
      "type": "function"
    },
    {
      "inputs": [],
      "name": "HUB_POOL_STORE_CALLDATA_MAPPING_SLOT_INDEX",
      "outputs": [
        {
          "internalType": "uint256",
          "name": "",
          "type": "uint256"
        }
      ],
      "stateMutability": "view",
      "type": "function"
    },
    {
      "inputs": [],
      "name": "INFINITE_FILL_DEADLINE",
      "outputs": [
        {
          "internalType": "uint32",
          "name": "",
          "type": "uint32"
        }
      ],
      "stateMutability": "view",
      "type": "function"
    },
    {
      "inputs": [],
      "name": "MAX_EXCLUSIVITY_PERIOD_SECONDS",
      "outputs": [
        {
          "internalType": "uint32",
          "name": "",
          "type": "uint32"
        }
      ],
      "stateMutability": "view",
      "type": "function"
    },
    {
      "inputs": [],
      "name": "MAX_TRANSFER_SIZE",
      "outputs": [
        {
          "internalType": "uint256",
          "name": "",
          "type": "uint256"
        }
      ],
      "stateMutability": "view",
      "type": "function"
    },
    {
      "inputs": [],
      "name": "UPDATE_BYTES32_DEPOSIT_DETAILS_HASH",
      "outputs": [
        {
          "internalType": "bytes32",
          "name": "",
          "type": "bytes32"
        }
      ],
      "stateMutability": "view",
      "type": "function"
    },
    {
      "inputs": [
        {
          "internalType": "uint32",
          "name": "_initialDepositId",
          "type": "uint32"
        },
        {
          "internalType": "address",
          "name": "_crossDomainAdmin",
          "type": "address"
        },
        {
          "internalType": "address",
          "name": "_withdrawalRecipient",
          "type": "address"
        }
      ],
      "name": "__SpokePool_init",
      "outputs": [],
      "stateMutability": "nonpayable",
      "type": "function"
    },
    {
      "inputs": [
        {
          "internalType": "bytes",
          "name": "_message",
          "type": "bytes"
        }
      ],
      "name": "adminExecuteMessage",
      "outputs": [],
      "stateMutability": "nonpayable",
      "type": "function"
    },
    {
      "inputs": [],
      "name": "cctpTokenMessenger",
      "outputs": [
        {
          "internalType": "contract ITokenMessenger",
          "name": "",
          "type": "address"
        }
      ],
      "stateMutability": "view",
      "type": "function"
    },
    {
      "inputs": [],
      "name": "cctpV2",
      "outputs": [
        {
          "internalType": "bool",
          "name": "",
          "type": "bool"
        }
      ],
      "stateMutability": "view",
      "type": "function"
    },
    {
      "inputs": [],
      "name": "chainId",
      "outputs": [
        {
          "internalType": "uint256",
          "name": "",
          "type": "uint256"
        }
      ],
      "stateMutability": "view",
      "type": "function"
    },
    {
      "inputs": [
        {
          "internalType": "bytes32",
          "name": "l2TokenAddress",
          "type": "bytes32"
        },
        {
          "internalType": "bytes32",
          "name": "refundAddress",
          "type": "bytes32"
        }
      ],
      "name": "claimRelayerRefund",
      "outputs": [],
      "stateMutability": "nonpayable",
      "type": "function"
    },
    {
      "inputs": [],
      "name": "crossDomainAdmin",
      "outputs": [
        {
          "internalType": "address",
          "name": "",
          "type": "address"
        }
      ],
      "stateMutability": "view",
      "type": "function"
    },
    {
      "inputs": [
        {
          "internalType": "bytes32",
          "name": "depositor",
          "type": "bytes32"
        },
        {
          "internalType": "bytes32",
          "name": "recipient",
          "type": "bytes32"
        },
        {
          "internalType": "bytes32",
          "name": "inputToken",
          "type": "bytes32"
        },
        {
          "internalType": "bytes32",
          "name": "outputToken",
          "type": "bytes32"
        },
        {
          "internalType": "uint256",
          "name": "inputAmount",
          "type": "uint256"
        },
        {
          "internalType": "uint256",
          "name": "outputAmount",
          "type": "uint256"
        },
        {
          "internalType": "uint256",
          "name": "destinationChainId",
          "type": "uint256"
        },
        {
          "internalType": "bytes32",
          "name": "exclusiveRelayer",
          "type": "bytes32"
        },
        {
          "internalType": "uint32",
          "name": "quoteTimestamp",
          "type": "uint32"
        },
        {
          "internalType": "uint32",
          "name": "fillDeadline",
          "type": "uint32"
        },
        {
          "internalType": "uint32",
          "name": "exclusivityParameter",
          "type": "uint32"
        },
        {
          "internalType": "bytes",
          "name": "message",
          "type": "bytes"
        }
      ],
      "name": "deposit",
      "outputs": [],
      "stateMutability": "payable",
      "type": "function"
    },
    {
      "inputs": [
        {
          "internalType": "address",
          "name": "recipient",
          "type": "address"
        },
        {
          "internalType": "address",
          "name": "originToken",
          "type": "address"
        },
        {
          "internalType": "uint256",
          "name": "amount",
          "type": "uint256"
        },
        {
          "internalType": "uint256",
          "name": "destinationChainId",
          "type": "uint256"
        },
        {
          "internalType": "int64",
          "name": "relayerFeePct",
          "type": "int64"
        },
        {
          "internalType": "uint32",
          "name": "quoteTimestamp",
          "type": "uint32"
        },
        {
          "internalType": "bytes",
          "name": "message",
          "type": "bytes"
        },
        {
          "internalType": "uint256",
          "name": "",
          "type": "uint256"
        }
      ],
      "name": "depositDeprecated_5947912356",
      "outputs": [],
      "stateMutability": "payable",
      "type": "function"
    },
    {
      "inputs": [
        {
          "internalType": "address",
          "name": "depositor",
          "type": "address"
        },
        {
          "internalType": "address",
          "name": "recipient",
          "type": "address"
        },
        {
          "internalType": "address",
          "name": "originToken",
          "type": "address"
        },
        {
          "internalType": "uint256",
          "name": "amount",
          "type": "uint256"
        },
        {
          "internalType": "uint256",
          "name": "destinationChainId",
          "type": "uint256"
        },
        {
          "internalType": "int64",
          "name": "relayerFeePct",
          "type": "int64"
        },
        {
          "internalType": "uint32",
          "name": "quoteTimestamp",
          "type": "uint32"
        },
        {
          "internalType": "bytes",
          "name": "message",
          "type": "bytes"
        },
        {
          "internalType": "uint256",
          "name": "",
          "type": "uint256"
        }
      ],
      "name": "depositFor",
      "outputs": [],
      "stateMutability": "payable",
      "type": "function"
    },
    {
      "inputs": [
        {
          "internalType": "bytes32",
          "name": "depositor",
          "type": "bytes32"
        },
        {
          "internalType": "bytes32",
          "name": "recipient",
          "type": "bytes32"
        },
        {
          "internalType": "bytes32",
          "name": "inputToken",
          "type": "bytes32"
        },
        {
          "internalType": "bytes32",
          "name": "outputToken",
          "type": "bytes32"
        },
        {
          "internalType": "uint256",
          "name": "inputAmount",
          "type": "uint256"
        },
        {
          "internalType": "uint256",
          "name": "outputAmount",
          "type": "uint256"
        },
        {
          "internalType": "uint256",
          "name": "destinationChainId",
          "type": "uint256"
        },
        {
          "internalType": "bytes32",
          "name": "exclusiveRelayer",
          "type": "bytes32"
        },
        {
          "internalType": "uint32",
          "name": "fillDeadlineOffset",
          "type": "uint32"
        },
        {
          "internalType": "uint32",
          "name": "exclusivityParameter",
          "type": "uint32"
        },
        {
          "internalType": "bytes",
          "name": "message",
          "type": "bytes"
        }
      ],
      "name": "depositNow",
      "outputs": [],
      "stateMutability": "payable",
      "type": "function"
    },
    {
      "inputs": [],
      "name": "depositQuoteTimeBuffer",
      "outputs": [
        {
          "internalType": "uint32",
          "name": "",
          "type": "uint32"
        }
      ],
      "stateMutability": "view",
      "type": "function"
    },
    {
      "inputs": [
        {
          "internalType": "address",
          "name": "depositor",
          "type": "address"
        },
        {
          "internalType": "address",
          "name": "recipient",
          "type": "address"
        },
        {
          "internalType": "address",
          "name": "inputToken",
          "type": "address"
        },
        {
          "internalType": "address",
          "name": "outputToken",
          "type": "address"
        },
        {
          "internalType": "uint256",
          "name": "inputAmount",
          "type": "uint256"
        },
        {
          "internalType": "uint256",
          "name": "outputAmount",
          "type": "uint256"
        },
        {
          "internalType": "uint256",
          "name": "destinationChainId",
          "type": "uint256"
        },
        {
          "internalType": "address",
          "name": "exclusiveRelayer",
          "type": "address"
        },
        {
          "internalType": "uint32",
          "name": "quoteTimestamp",
          "type": "uint32"
        },
        {
          "internalType": "uint32",
          "name": "fillDeadline",
          "type": "uint32"
        },
        {
          "internalType": "uint32",
          "name": "exclusivityParameter",
          "type": "uint32"
        },
        {
          "internalType": "bytes",
          "name": "message",
          "type": "bytes"
        }
      ],
      "name": "depositV3",
      "outputs": [],
      "stateMutability": "payable",
      "type": "function"
    },
    {
      "inputs": [
        {
          "internalType": "address",
          "name": "depositor",
          "type": "address"
        },
        {
          "internalType": "address",
          "name": "recipient",
          "type": "address"
        },
        {
          "internalType": "address",
          "name": "inputToken",
          "type": "address"
        },
        {
          "internalType": "address",
          "name": "outputToken",
          "type": "address"
        },
        {
          "internalType": "uint256",
          "name": "inputAmount",
          "type": "uint256"
        },
        {
          "internalType": "uint256",
          "name": "outputAmount",
          "type": "uint256"
        },
        {
          "internalType": "uint256",
          "name": "destinationChainId",
          "type": "uint256"
        },
        {
          "internalType": "address",
          "name": "exclusiveRelayer",
          "type": "address"
        },
        {
          "internalType": "uint32",
          "name": "fillDeadlineOffset",
          "type": "uint32"
        },
        {
          "internalType": "uint32",
          "name": "exclusivityParameter",
          "type": "uint32"
        },
        {
          "internalType": "bytes",
          "name": "message",
          "type": "bytes"
        }
      ],
      "name": "depositV3Now",
      "outputs": [],
      "stateMutability": "payable",
      "type": "function"
    },
    {
      "inputs": [
        {
          "internalType": "uint256",
          "name": "rootBundleId",
          "type": "uint256"
        }
      ],
      "name": "emergencyDeleteRootBundle",
      "outputs": [],
      "stateMutability": "nonpayable",
      "type": "function"
    },
    {
      "inputs": [
        {
          "internalType": "uint256",
          "name": "_messageNonce",
          "type": "uint256"
        },
        {
          "internalType": "bytes",
          "name": "_message",
          "type": "bytes"
        },
        {
          "internalType": "uint256",
          "name": "_blockNumber",
          "type": "uint256"
        }
      ],
      "name": "executeMessage",
      "outputs": [],
      "stateMutability": "nonpayable",
      "type": "function"
    },
    {
      "inputs": [
        {
          "internalType": "uint32",
          "name": "rootBundleId",
          "type": "uint32"
        },
        {
          "components": [
            {
              "internalType": "uint256",
              "name": "amountToReturn",
              "type": "uint256"
            },
            {
              "internalType": "uint256",
              "name": "chainId",
              "type": "uint256"
            },
            {
              "internalType": "uint256[]",
              "name": "refundAmounts",
              "type": "uint256[]"
            },
            {
              "internalType": "uint32",
              "name": "leafId",
              "type": "uint32"
            },
            {
              "internalType": "address",
              "name": "l2TokenAddress",
              "type": "address"
            },
            {
              "internalType": "address[]",
              "name": "refundAddresses",
              "type": "address[]"
            }
          ],
          "internalType": "struct SpokePoolInterface.RelayerRefundLeaf",
          "name": "relayerRefundLeaf",
          "type": "tuple"
        },
        {
          "internalType": "bytes32[]",
          "name": "proof",
          "type": "bytes32[]"
        }
      ],
      "name": "executeRelayerRefundLeaf",
      "outputs": [],
      "stateMutability": "payable",
      "type": "function"
    },
    {
      "inputs": [
        {
          "components": [
            {
              "components": [
                {
                  "internalType": "bytes32",
                  "name": "depositor",
                  "type": "bytes32"
                },
                {
                  "internalType": "bytes32",
                  "name": "recipient",
                  "type": "bytes32"
                },
                {
                  "internalType": "bytes32",
                  "name": "exclusiveRelayer",
                  "type": "bytes32"
                },
                {
                  "internalType": "bytes32",
                  "name": "inputToken",
                  "type": "bytes32"
                },
                {
                  "internalType": "bytes32",
                  "name": "outputToken",
                  "type": "bytes32"
                },
                {
                  "internalType": "uint256",
                  "name": "inputAmount",
                  "type": "uint256"
                },
                {
                  "internalType": "uint256",
                  "name": "outputAmount",
                  "type": "uint256"
                },
                {
                  "internalType": "uint256",
                  "name": "originChainId",
                  "type": "uint256"
                },
                {
                  "internalType": "uint256",
                  "name": "depositId",
                  "type": "uint256"
                },
                {
                  "internalType": "uint32",
                  "name": "fillDeadline",
                  "type": "uint32"
                },
                {
                  "internalType": "uint32",
                  "name": "exclusivityDeadline",
                  "type": "uint32"
                },
                {
                  "internalType": "bytes",
                  "name": "message",
                  "type": "bytes"
                }
              ],
              "internalType": "struct V3SpokePoolInterface.V3RelayData",
              "name": "relayData",
              "type": "tuple"
            },
            {
              "internalType": "uint256",
              "name": "chainId",
              "type": "uint256"
            },
            {
              "internalType": "uint256",
              "name": "updatedOutputAmount",
              "type": "uint256"
            }
          ],
          "internalType": "struct V3SpokePoolInterface.V3SlowFill",
          "name": "slowFillLeaf",
          "type": "tuple"
        },
        {
          "internalType": "uint32",
          "name": "rootBundleId",
          "type": "uint32"
        },
        {
          "internalType": "bytes32[]",
          "name": "proof",
          "type": "bytes32[]"
        }
      ],
      "name": "executeSlowRelayLeaf",
      "outputs": [],
      "stateMutability": "nonpayable",
      "type": "function"
    },
    {
      "inputs": [
        {
          "internalType": "uint256",
          "name": "",
          "type": "uint256"
        }
      ],
      "name": "executedMessages",
      "outputs": [
        {
          "internalType": "bool",
          "name": "",
          "type": "bool"
        }
      ],
      "stateMutability": "view",
      "type": "function"
    },
    {
      "inputs": [
        {
          "internalType": "bytes32",
          "name": "orderId",
          "type": "bytes32"
        },
        {
          "internalType": "bytes",
          "name": "originData",
          "type": "bytes"
        },
        {
          "internalType": "bytes",
          "name": "fillerData",
          "type": "bytes"
        }
      ],
      "name": "fill",
      "outputs": [],
      "stateMutability": "nonpayable",
      "type": "function"
    },
    {
      "inputs": [],
      "name": "fillDeadlineBuffer",
      "outputs": [
        {
          "internalType": "uint32",
          "name": "",
          "type": "uint32"
        }
      ],
      "stateMutability": "view",
      "type": "function"
    },
    {
      "inputs": [
        {
          "components": [
            {
              "internalType": "bytes32",
              "name": "depositor",
              "type": "bytes32"
            },
            {
              "internalType": "bytes32",
              "name": "recipient",
              "type": "bytes32"
            },
            {
              "internalType": "bytes32",
              "name": "exclusiveRelayer",
              "type": "bytes32"
            },
            {
              "internalType": "bytes32",
              "name": "inputToken",
              "type": "bytes32"
            },
            {
              "internalType": "bytes32",
              "name": "outputToken",
              "type": "bytes32"
            },
            {
              "internalType": "uint256",
              "name": "inputAmount",
              "type": "uint256"
            },
            {
              "internalType": "uint256",
              "name": "outputAmount",
              "type": "uint256"
            },
            {
              "internalType": "uint256",
              "name": "originChainId",
              "type": "uint256"
            },
            {
              "internalType": "uint256",
              "name": "depositId",
              "type": "uint256"
            },
            {
              "internalType": "uint32",
              "name": "fillDeadline",
              "type": "uint32"
            },
            {
              "internalType": "uint32",
              "name": "exclusivityDeadline",
              "type": "uint32"
            },
            {
              "internalType": "bytes",
              "name": "message",
              "type": "bytes"
            }
          ],
          "internalType": "struct V3SpokePoolInterface.V3RelayData",
          "name": "relayData",
          "type": "tuple"
        },
        {
          "internalType": "uint256",
          "name": "repaymentChainId",
          "type": "uint256"
        },
        {
          "internalType": "bytes32",
          "name": "repaymentAddress",
          "type": "bytes32"
        }
      ],
      "name": "fillRelay",
      "outputs": [],
      "stateMutability": "nonpayable",
      "type": "function"
    },
    {
      "inputs": [
        {
          "components": [
            {
              "internalType": "bytes32",
              "name": "depositor",
              "type": "bytes32"
            },
            {
              "internalType": "bytes32",
              "name": "recipient",
              "type": "bytes32"
            },
            {
              "internalType": "bytes32",
              "name": "exclusiveRelayer",
              "type": "bytes32"
            },
            {
              "internalType": "bytes32",
              "name": "inputToken",
              "type": "bytes32"
            },
            {
              "internalType": "bytes32",
              "name": "outputToken",
              "type": "bytes32"
            },
            {
              "internalType": "uint256",
              "name": "inputAmount",
              "type": "uint256"
            },
            {
              "internalType": "uint256",
              "name": "outputAmount",
              "type": "uint256"
            },
            {
              "internalType": "uint256",
              "name": "originChainId",
              "type": "uint256"
            },
            {
              "internalType": "uint256",
              "name": "depositId",
              "type": "uint256"
            },
            {
              "internalType": "uint32",
              "name": "fillDeadline",
              "type": "uint32"
            },
            {
              "internalType": "uint32",
              "name": "exclusivityDeadline",
              "type": "uint32"
            },
            {
              "internalType": "bytes",
              "name": "message",
              "type": "bytes"
            }
          ],
          "internalType": "struct V3SpokePoolInterface.V3RelayData",
          "name": "relayData",
          "type": "tuple"
        },
        {
          "internalType": "uint256",
          "name": "repaymentChainId",
          "type": "uint256"
        },
        {
          "internalType": "bytes32",
          "name": "repaymentAddress",
          "type": "bytes32"
        },
        {
          "internalType": "uint256",
          "name": "updatedOutputAmount",
          "type": "uint256"
        },
        {
          "internalType": "bytes32",
          "name": "updatedRecipient",
          "type": "bytes32"
        },
        {
          "internalType": "bytes",
          "name": "updatedMessage",
          "type": "bytes"
        },
        {
          "internalType": "bytes",
          "name": "depositorSignature",
          "type": "bytes"
        }
      ],
      "name": "fillRelayWithUpdatedDeposit",
      "outputs": [],
      "stateMutability": "nonpayable",
      "type": "function"
    },
    {
      "inputs": [
        {
          "internalType": "bytes32",
          "name": "",
          "type": "bytes32"
        }
      ],
      "name": "fillStatuses",
      "outputs": [
        {
          "internalType": "uint256",
          "name": "",
          "type": "uint256"
        }
      ],
      "stateMutability": "view",
      "type": "function"
    },
    {
      "inputs": [
        {
          "components": [
            {
              "internalType": "address",
              "name": "depositor",
              "type": "address"
            },
            {
              "internalType": "address",
              "name": "recipient",
              "type": "address"
            },
            {
              "internalType": "address",
              "name": "exclusiveRelayer",
              "type": "address"
            },
            {
              "internalType": "address",
              "name": "inputToken",
              "type": "address"
            },
            {
              "internalType": "address",
              "name": "outputToken",
              "type": "address"
            },
            {
              "internalType": "uint256",
              "name": "inputAmount",
              "type": "uint256"
            },
            {
              "internalType": "uint256",
              "name": "outputAmount",
              "type": "uint256"
            },
            {
              "internalType": "uint256",
              "name": "originChainId",
              "type": "uint256"
            },
            {
              "internalType": "uint32",
              "name": "depositId",
              "type": "uint32"
            },
            {
              "internalType": "uint32",
              "name": "fillDeadline",
              "type": "uint32"
            },
            {
              "internalType": "uint32",
              "name": "exclusivityDeadline",
              "type": "uint32"
            },
            {
              "internalType": "bytes",
              "name": "message",
              "type": "bytes"
            }
          ],
          "internalType": "struct V3SpokePoolInterface.V3RelayDataLegacy",
          "name": "relayData",
          "type": "tuple"
        },
        {
          "internalType": "uint256",
          "name": "repaymentChainId",
          "type": "uint256"
        }
      ],
      "name": "fillV3Relay",
      "outputs": [],
      "stateMutability": "nonpayable",
      "type": "function"
    },
    {
      "inputs": [],
      "name": "getCurrentTime",
      "outputs": [
        {
          "internalType": "uint256",
          "name": "",
          "type": "uint256"
        }
      ],
      "stateMutability": "view",
      "type": "function"
    },
    {
      "inputs": [
        {
          "internalType": "address",
          "name": "l2TokenAddress",
          "type": "address"
        },
        {
          "internalType": "address",
          "name": "refundAddress",
          "type": "address"
        }
      ],
      "name": "getRelayerRefund",
      "outputs": [
        {
          "internalType": "uint256",
          "name": "",
          "type": "uint256"
        }
      ],
      "stateMutability": "view",
      "type": "function"
    },
    {
      "inputs": [
        {
          "internalType": "uint256",
          "name": "_nonce",
          "type": "uint256"
        }
      ],
      "name": "getSlotKey",
      "outputs": [
        {
          "internalType": "bytes32",
          "name": "",
          "type": "bytes32"
        }
      ],
      "stateMutability": "pure",
      "type": "function"
    },
    {
      "inputs": [
        {
          "internalType": "address",
          "name": "msgSender",
          "type": "address"
        },
        {
          "internalType": "bytes32",
          "name": "depositor",
          "type": "bytes32"
        },
        {
          "internalType": "uint256",
          "name": "depositNonce",
          "type": "uint256"
        }
      ],
      "name": "getUnsafeDepositId",
      "outputs": [
        {
          "internalType": "uint256",
          "name": "",
          "type": "uint256"
        }
      ],
      "stateMutability": "pure",
      "type": "function"
    },
    {
      "inputs": [
        {
          "components": [
            {
              "internalType": "bytes32",
              "name": "depositor",
              "type": "bytes32"
            },
            {
              "internalType": "bytes32",
              "name": "recipient",
              "type": "bytes32"
            },
            {
              "internalType": "bytes32",
              "name": "exclusiveRelayer",
              "type": "bytes32"
            },
            {
              "internalType": "bytes32",
              "name": "inputToken",
              "type": "bytes32"
            },
            {
              "internalType": "bytes32",
              "name": "outputToken",
              "type": "bytes32"
            },
            {
              "internalType": "uint256",
              "name": "inputAmount",
              "type": "uint256"
            },
            {
              "internalType": "uint256",
              "name": "outputAmount",
              "type": "uint256"
            },
            {
              "internalType": "uint256",
              "name": "originChainId",
              "type": "uint256"
            },
            {
              "internalType": "uint256",
              "name": "depositId",
              "type": "uint256"
            },
            {
              "internalType": "uint32",
              "name": "fillDeadline",
              "type": "uint32"
            },
            {
              "internalType": "uint32",
              "name": "exclusivityDeadline",
              "type": "uint32"
            },
            {
              "internalType": "bytes",
              "name": "message",
              "type": "bytes"
            }
          ],
          "internalType": "struct V3SpokePoolInterface.V3RelayData",
          "name": "relayData",
          "type": "tuple"
        }
      ],
      "name": "getV3RelayHash",
      "outputs": [
        {
          "internalType": "bytes32",
          "name": "",
          "type": "bytes32"
        }
      ],
      "stateMutability": "view",
      "type": "function"
    },
    {
      "inputs": [],
      "name": "helios",
      "outputs": [
        {
          "internalType": "address",
          "name": "",
          "type": "address"
        }
      ],
      "stateMutability": "view",
      "type": "function"
    },
    {
      "inputs": [],
      "name": "hubPoolStore",
      "outputs": [
        {
          "internalType": "address",
          "name": "",
          "type": "address"
        }
      ],
      "stateMutability": "view",
      "type": "function"
    },
    {
      "inputs": [
        {
          "internalType": "uint32",
          "name": "_initialDepositId",
          "type": "uint32"
        },
        {
          "internalType": "address",
          "name": "_crossDomainAdmin",
          "type": "address"
        },
        {
          "internalType": "address",
          "name": "_withdrawalRecipient",
          "type": "address"
        }
      ],
      "name": "initialize",
      "outputs": [],
      "stateMutability": "nonpayable",
      "type": "function"
    },
    {
      "inputs": [
        {
          "internalType": "bytes[]",
          "name": "data",
          "type": "bytes[]"
        }
      ],
      "name": "multicall",
      "outputs": [
        {
          "internalType": "bytes[]",
          "name": "results",
          "type": "bytes[]"
        }
      ],
      "stateMutability": "nonpayable",
      "type": "function"
    },
    {
      "inputs": [],
      "name": "numberOfDeposits",
      "outputs": [
        {
          "internalType": "uint32",
          "name": "",
          "type": "uint32"
        }
      ],
      "stateMutability": "view",
      "type": "function"
    },
    {
      "inputs": [],
      "name": "owner",
      "outputs": [
        {
          "internalType": "address",
          "name": "",
          "type": "address"
        }
      ],
      "stateMutability": "view",
      "type": "function"
    },
    {
      "inputs": [
        {
          "internalType": "bool",
          "name": "pause",
          "type": "bool"
        }
      ],
      "name": "pauseDeposits",
      "outputs": [],
      "stateMutability": "nonpayable",
      "type": "function"
    },
    {
      "inputs": [
        {
          "internalType": "bool",
          "name": "pause",
          "type": "bool"
        }
      ],
      "name": "pauseFills",
      "outputs": [],
      "stateMutability": "nonpayable",
      "type": "function"
    },
    {
      "inputs": [],
      "name": "pausedDeposits",
      "outputs": [
        {
          "internalType": "bool",
          "name": "",
          "type": "bool"
        }
      ],
      "stateMutability": "view",
      "type": "function"
    },
    {
      "inputs": [],
      "name": "pausedFills",
      "outputs": [
        {
          "internalType": "bool",
          "name": "",
          "type": "bool"
        }
      ],
      "stateMutability": "view",
      "type": "function"
    },
    {
      "inputs": [],
      "name": "proxiableUUID",
      "outputs": [
        {
          "internalType": "bytes32",
          "name": "",
          "type": "bytes32"
        }
      ],
      "stateMutability": "view",
      "type": "function"
    },
    {
      "inputs": [],
      "name": "recipientCircleDomainId",
      "outputs": [
        {
          "internalType": "uint32",
          "name": "",
          "type": "uint32"
        }
      ],
      "stateMutability": "view",
      "type": "function"
    },
    {
      "inputs": [
        {
          "internalType": "bytes32",
          "name": "relayerRefundRoot",
          "type": "bytes32"
        },
        {
          "internalType": "bytes32",
          "name": "slowRelayRoot",
          "type": "bytes32"
        }
      ],
      "name": "relayRootBundle",
      "outputs": [],
      "stateMutability": "nonpayable",
      "type": "function"
    },
    {
      "inputs": [
        {
          "internalType": "address",
          "name": "",
          "type": "address"
        },
        {
          "internalType": "address",
          "name": "",
          "type": "address"
        }
      ],
      "name": "relayerRefund",
      "outputs": [
        {
          "internalType": "uint256",
          "name": "",
          "type": "uint256"
        }
      ],
      "stateMutability": "view",
      "type": "function"
    },
    {
      "inputs": [],
      "name": "renounceOwnership",
      "outputs": [],
      "stateMutability": "nonpayable",
      "type": "function"
    },
    {
      "inputs": [
        {
          "components": [
            {
              "internalType": "bytes32",
              "name": "depositor",
              "type": "bytes32"
            },
            {
              "internalType": "bytes32",
              "name": "recipient",
              "type": "bytes32"
            },
            {
              "internalType": "bytes32",
              "name": "exclusiveRelayer",
              "type": "bytes32"
            },
            {
              "internalType": "bytes32",
              "name": "inputToken",
              "type": "bytes32"
            },
            {
              "internalType": "bytes32",
              "name": "outputToken",
              "type": "bytes32"
            },
            {
              "internalType": "uint256",
              "name": "inputAmount",
              "type": "uint256"
            },
            {
              "internalType": "uint256",
              "name": "outputAmount",
              "type": "uint256"
            },
            {
              "internalType": "uint256",
              "name": "originChainId",
              "type": "uint256"
            },
            {
              "internalType": "uint256",
              "name": "depositId",
              "type": "uint256"
            },
            {
              "internalType": "uint32",
              "name": "fillDeadline",
              "type": "uint32"
            },
            {
              "internalType": "uint32",
              "name": "exclusivityDeadline",
              "type": "uint32"
            },
            {
              "internalType": "bytes",
              "name": "message",
              "type": "bytes"
            }
          ],
          "internalType": "struct V3SpokePoolInterface.V3RelayData",
          "name": "relayData",
          "type": "tuple"
        }
      ],
      "name": "requestSlowFill",
      "outputs": [],
      "stateMutability": "nonpayable",
      "type": "function"
    },
    {
      "inputs": [
        {
          "internalType": "uint256",
          "name": "",
          "type": "uint256"
        }
      ],
      "name": "rootBundles",
      "outputs": [
        {
          "internalType": "bytes32",
          "name": "slowRelayRoot",
          "type": "bytes32"
        },
        {
          "internalType": "bytes32",
          "name": "relayerRefundRoot",
          "type": "bytes32"
        }
      ],
      "stateMutability": "view",
      "type": "function"
    },
    {
      "inputs": [
        {
          "internalType": "address",
          "name": "newCrossDomainAdmin",
          "type": "address"
        }
      ],
      "name": "setCrossDomainAdmin",
      "outputs": [],
      "stateMutability": "nonpayable",
      "type": "function"
    },
    {
      "inputs": [
        {
          "internalType": "address",
          "name": "newWithdrawalRecipient",
          "type": "address"
        }
      ],
      "name": "setWithdrawalRecipient",
      "outputs": [],
      "stateMutability": "nonpayable",
      "type": "function"
    },
    {
      "inputs": [
        {
          "internalType": "bytes32",
          "name": "depositor",
          "type": "bytes32"
        },
        {
          "internalType": "uint256",
          "name": "depositId",
          "type": "uint256"
        },
        {
          "internalType": "uint256",
          "name": "updatedOutputAmount",
          "type": "uint256"
        },
        {
          "internalType": "bytes32",
          "name": "updatedRecipient",
          "type": "bytes32"
        },
        {
          "internalType": "bytes",
          "name": "updatedMessage",
          "type": "bytes"
        },
        {
          "internalType": "bytes",
          "name": "depositorSignature",
          "type": "bytes"
        }
      ],
      "name": "speedUpDeposit",
      "outputs": [],
      "stateMutability": "nonpayable",
      "type": "function"
    },
    {
      "inputs": [
        {
          "internalType": "address",
          "name": "depositor",
          "type": "address"
        },
        {
          "internalType": "uint256",
          "name": "depositId",
          "type": "uint256"
        },
        {
          "internalType": "uint256",
          "name": "updatedOutputAmount",
          "type": "uint256"
        },
        {
          "internalType": "address",
          "name": "updatedRecipient",
          "type": "address"
        },
        {
          "internalType": "bytes",
          "name": "updatedMessage",
          "type": "bytes"
        },
        {
          "internalType": "bytes",
          "name": "depositorSignature",
          "type": "bytes"
        }
      ],
      "name": "speedUpV3Deposit",
      "outputs": [],
      "stateMutability": "nonpayable",
      "type": "function"
    },
    {
      "inputs": [
        {
          "internalType": "address",
          "name": "newOwner",
          "type": "address"
        }
      ],
      "name": "transferOwnership",
      "outputs": [],
      "stateMutability": "nonpayable",
      "type": "function"
    },
    {
      "inputs": [
        {
          "internalType": "bytes[]",
          "name": "data",
          "type": "bytes[]"
        }
      ],
      "name": "tryMulticall",
      "outputs": [
        {
          "components": [
            {
              "internalType": "bool",
              "name": "success",
              "type": "bool"
            },
            {
              "internalType": "bytes",
              "name": "returnData",
              "type": "bytes"
            }
          ],
          "internalType": "struct MultiCallerUpgradeable.Result[]",
          "name": "results",
          "type": "tuple[]"
        }
      ],
      "stateMutability": "nonpayable",
      "type": "function"
    },
    {
      "inputs": [
        {
          "internalType": "bytes32",
          "name": "depositor",
          "type": "bytes32"
        },
        {
          "internalType": "bytes32",
          "name": "recipient",
          "type": "bytes32"
        },
        {
          "internalType": "bytes32",
          "name": "inputToken",
          "type": "bytes32"
        },
        {
          "internalType": "bytes32",
          "name": "outputToken",
          "type": "bytes32"
        },
        {
          "internalType": "uint256",
          "name": "inputAmount",
          "type": "uint256"
        },
        {
          "internalType": "uint256",
          "name": "outputAmount",
          "type": "uint256"
        },
        {
          "internalType": "uint256",
          "name": "destinationChainId",
          "type": "uint256"
        },
        {
          "internalType": "bytes32",
          "name": "exclusiveRelayer",
          "type": "bytes32"
        },
        {
          "internalType": "uint256",
          "name": "depositNonce",
          "type": "uint256"
        },
        {
          "internalType": "uint32",
          "name": "quoteTimestamp",
          "type": "uint32"
        },
        {
          "internalType": "uint32",
          "name": "fillDeadline",
          "type": "uint32"
        },
        {
          "internalType": "uint32",
          "name": "exclusivityParameter",
          "type": "uint32"
        },
        {
          "internalType": "bytes",
          "name": "message",
          "type": "bytes"
        }
      ],
      "name": "unsafeDeposit",
      "outputs": [],
      "stateMutability": "payable",
      "type": "function"
    },
    {
      "inputs": [
        {
          "internalType": "address",
          "name": "newImplementation",
          "type": "address"
        }
      ],
      "name": "upgradeTo",
      "outputs": [],
      "stateMutability": "nonpayable",
      "type": "function"
    },
    {
      "inputs": [
        {
          "internalType": "address",
          "name": "newImplementation",
          "type": "address"
        },
        {
          "internalType": "bytes",
          "name": "data",
          "type": "bytes"
        }
      ],
      "name": "upgradeToAndCall",
      "outputs": [],
      "stateMutability": "payable",
      "type": "function"
    },
    {
      "inputs": [],
      "name": "usdcToken",
      "outputs": [
        {
          "internalType": "contract IERC20",
          "name": "",
          "type": "address"
        }
      ],
      "stateMutability": "view",
      "type": "function"
    },
    {
      "inputs": [],
      "name": "withdrawalRecipient",
      "outputs": [
        {
          "internalType": "address",
          "name": "",
          "type": "address"
        }
      ],
      "stateMutability": "view",
      "type": "function"
    },
    {
      "inputs": [],
      "name": "wrappedNativeToken",
      "outputs": [
        {
          "internalType": "contract WETH9Interface",
          "name": "",
          "type": "address"
        }
      ],
      "stateMutability": "view",
      "type": "function"
    },
    {
      "stateMutability": "payable",
      "type": "receive"
    }
  ],
  "numDeployments": 1,
  "solcInputHash": "69c5c7d8205c0965cda24556fd53bd47",
  "bytecode": "0x6101e06040818152346200030a57816200552580380380916200002382856200030e565b8339610100938491810103126200030a578051906020906200004782820162000332565b916200005585830162000332565b91620000646060820162000332565b95620000736080830162000347565b916200008260a0820162000347565b60c0820151986001600160a01b0392909190838b168b036200030a5760e0015194838616928387036200030a578490306080521660a05260c05260e0525f5460ff8160081c166200030a5760ff80821603620002d1575b506101209889526101409384525f8a52825163011a412160e61b868201908152600482526001600160401b03928286019184831184841017620002b3575f938493885251915afa943d15620002c7573d918211620002b35783519162000149601f8201601f19168301846200030e565b82523d5f8284013e5b85620002a7575b8562000272575b5050506101609283526101c09586526101a094855261018093845251956151cb97886200035a893960805188818161115c015281816115460152611672015260a0518881816107de015281816137e101528181613edf01528181614171015281816144e901528181614c740152614c9b015260c0518881816119780152818161379501526146a2015260e0518881816104790152614492015251878181611b2101528181614a6e0152614b19015251868181610781015281816149730152614c1401525185818161206c015261493a015251848181611c7a0152614a0e015251838181610c090152612788015251828181610c52015281816117bb0152612ad401525181818161182c01526127c30152f35b90919294508082519201519181811062000296575b5050161515915f808062000160565b5f19910360031b1b165f8062000287565b81518114955062000159565b634e487b7160e01b5f52604160045260245ffd5b6060915062000152565b60ff90811916175f557f7f26b83ff96e1f2b6a682f133852f6798a09c465da95921460cefb384740249885845160ff8152a15f620000d9565b5f80fd5b601f909101601f19168101906001600160401b03821190821017620002b357604052565b51906001600160a01b03821682036200030a57565b519063ffffffff821682036200030a5756fe6080604052600436101561001a575b3615610018575f80fd5b005b5f3560e01c8063079bd2c71461044a5780631186ec331461044557806311eac8551461044057806315348e44146103b457806317fcb39b1461043b5780631b3d5559146104365780631fab657c1461043157806326b105d21461042c57806329cb924d146104275780632e378115146104225780632e63e59a1461041d5780633659cfe614610418578063437b911614610413578063490e49ef1461040e578063493a4f84146104095780634f096c02146104045780634f1ef286146103ff5780635285e058146103fa57806352d1902d146103f5578063541f4f14146103f05780635743a7b9146103eb578063577f51f8146103e657806357f6dcb8146103e15780636068d6cb146103dc578063647c576c146103d7578063670fa8ac146103d25780636bbbcd2e146103b45780636e400983146103cd578063715018a6146103c8578063738b62e5146103c357806373fd4836146103be578063775c0d03146103b9578063793d2be0146103b45780637aef642c146103af5780637b939232146103aa5780637ef413e1146103a557806382e2c43f146103a05780638a7860ce1461039b5780638b15788e146103965780638da5cb5b146103915780639748cf7c1461038c57806397943aa914610387578063979f2bc21461038257806399cc29681461037d5780639a8a059214610378578063a1244c6714610373578063a18a096e1461036e578063ac9650d814610369578063ad5425c614610364578063adb5a6a614610314578063b370b7f51461035f578063babb6aac1461035a578063bce63c0014610355578063c2bb0c5514610350578063c35c83fc1461034b578063ceb4c98714610346578063d7e1583a14610341578063dda521131461033c578063ddd224f114610337578063de7eba7814610332578063deff4b241461032d578063e45a469414610328578063ea86bd4614610323578063ee2a53f81461031e578063f2fde38b14610319578063f79f29ed14610314578063fb4c37491461030f5763fc8a584f0361000e57612ca6565b612c76565b612609565b612c39565b612bfb565b612af8565b612ab5565b6129c0565b612990565b612967565b612941565b61290b565b612811565b6127e6565b6127ac565b612769565b612692565b61266b565b6124cd565b61242d565b6122c6565b61229f565b612285565b6121f0565b612110565b612090565b61204d565b612027565b611fa9565b611f31565b611e16565b611de7565b611d3f565b611c9f565b6107a5565b611c63565b611c3d565b611ba8565b611b45565b611b05565b611acb565b6119f4565b61199c565b61195c565b611883565b611757565b6116c2565b611658565b611631565b611503565b6114b5565b61142e565b611410565b611343565b611134565b610f3a565b610dda565b610db1565b610b7f565b610a56565b61094d565b6107bf565b610762565b6106c1565b61045d565b5f91031261045957565b5f80fd5b34610459575f36600319011261045957602060405163ffffffff7f0000000000000000000000000000000000000000000000000000000000000000168152f35b6001600160a01b0381160361045957565b35906104b98261049d565b565b63ffffffff81160361045957565b61014435906104b9826104bb565b35906104b9826104bb565b634e487b7160e01b5f52604160045260245ffd5b6040810190811067ffffffffffffffff82111761051257604052565b6104e2565b6101a0810190811067ffffffffffffffff82111761051257604052565b67ffffffffffffffff811161051257604052565b6060810190811067ffffffffffffffff82111761051257604052565b6080810190811067ffffffffffffffff82111761051257604052565b6020810190811067ffffffffffffffff82111761051257604052565b60e0810190811067ffffffffffffffff82111761051257604052565b60a0810190811067ffffffffffffffff82111761051257604052565b90601f8019910116810190811067ffffffffffffffff82111761051257604052565b6040519060c0820182811067ffffffffffffffff82111761051257604052565b60405190610180820182811067ffffffffffffffff82111761051257604052565b604051906104b982610517565b604051906104b982610564565b67ffffffffffffffff811161051257601f01601f191660200190565b92919261067982610651565b9161068760405193846105d4565b829481845281830111610459578281602093845f960137010152565b9080601f83011215610459578160206106be9335910161066d565b90565b610100366003190112610459576004356106da8161049d565b6024356106e68161049d565b6084358060070b81036104595760a43590610700826104bb565b60c43567ffffffffffffffff8111610459576107209036906004016106a3565b926107296136e4565b60ff6108cf5460e81c166107505761074994606435916044359133613747565b600160c955005b604051630b4cba3160e31b8152600490fd5b34610459575f3660031901126104595760206040516001600160a01b037f0000000000000000000000000000000000000000000000000000000000000000168152f35b34610459575f3660031901126104595760206040515f8152f35b34610459575f3660031901126104595760206040516001600160a01b037f0000000000000000000000000000000000000000000000000000000000000000168152f35b67ffffffffffffffff81116105125760051b60200190565b9080601f8301121561045957602090823561083481610802565b9361084260405195866105d4565b81855260208086019260051b82010192831161045957602001905b82821061086b575050505090565b8135815290830190830161085d565b9080601f8301121561045957602090823561089481610802565b936108a260405195866105d4565b81855260208086019260051b82010192831161045957602001905b8282106108cb575050505090565b83809183356108d98161049d565b8152019101906108bd565b92916108ef82610802565b916108fd60405193846105d4565b829481845260208094019160051b810192831161045957905b8282106109235750505050565b81358152908301908301610916565b9080601f83011215610459578160206106be933591016108e4565b60031960603682011261045957600435610966816104bb565b60243567ffffffffffffffff928382116104595760c09082360301126104595761098e6105f6565b9080600401358252602481013560208301526044810135848111610459576109bc906004369184010161081a565b60408301526109cd606482016104d7565b60608301526109de608482016104ae565b608083015260a4810135908482116104595760046109ff923692010161087a565b60a082015260443592831161045957610a1f610018933690600401610932565b91612cd6565b9181601f840112156104595782359167ffffffffffffffff8311610459576020808501948460051b01011161045957565b34610459576003196060368201126104595760043567ffffffffffffffff808211610459576060823603938401126104595760243590610a95826104bb565b60443590811161045957610aad903690600401610a25565b919093610ab86136e4565b600484013590610182190181121561045957610b4794610b4293610ae5610b3b936004369189010161282f565b95610af36080880151613c0b565b50610afd87613617565b9060446020890151916101608a015193610b156105f6565b9a8b5260208b015201356040890152606088015260808701525f60a087015236916108e4565b9083613c21565b613d72565b610018600160c955565b9181601f840112156104595782359167ffffffffffffffff8311610459576020838186019501011161045957565b34610459576060366003190112610459576004803560243567ffffffffffffffff811161045957610bb39036908401610b51565b610cbf929192805460ff8116610da05760ff19166001179055610bd582613133565b92610c4d610be436848461066d565b6020815191012060206001600160a01b039660405180948192630829c59f60e01b83527f00000000000000000000000000000000000000000000000000000000000000006044358d85016001600160a01b03604092959493606083019683521660208201520152565b0381897f0000000000000000000000000000000000000000000000000000000000000000165afa918215610d9b575f92610d6a575b5003610d5957610c9491810190612edb565b92168015159081610d4e575b50610d3d57610cc2610cbb825f52610cbe60205260405f2090565b5460ff1690565b610d2c57610d1f9250610cee610ce1825f52610cbe60205260405f2090565b805460ff19166001179055565b6040513381527f3b0b856314838f509dfe81e9e13c651b0e544b42639c58be2c161b2c3892949d90602090a2614247565b610cbf805460ff19169055005b604051630dc1019760e01b81528390fd5b6040516332f602d160e11b81528390fd5b90503014155f610ca0565b6040516301b6e1e760e21b81528590fd5b610d8d91925060203d602011610d94575b610d8581836105d4565b810190612ec1565b905f610c82565b503d610d7b565b612ed0565b60405163087f80c160e31b81528690fd5b34610459575f366003190112610459576020604051428152f35b90816101809103126104595790565b346104595760403660031901126104595760043567ffffffffffffffff811161045957610e0b903690600401610dcb565b610e1481612f12565b6001600160a01b031690610e2a60208201612f12565b6001600160a01b031691610e4060408301612f12565b6001600160a01b0316610e5560608401612f12565b6001600160a01b031692610e6b60808201612f12565b6001600160a01b031690610100610e83818301612f1c565b9061012090610e93848301612f1c565b9261014094858101610ea490612f1c565b966101609a8b8301610eb69084612f26565b9a909b610ec1610616565b9e8f91825260208201526040015260608d015260808c015260a081013560a08c015260c081013560c08c015260e0013560e08b015263ffffffff1690890152870190610f12919063ffffffff169052565b63ffffffff909116908501523690610f299261066d565b908201523360243561001892613648565b34610459576020366003190112610459576004803567ffffffffffffffff811161045957610f6b9036908301610dcb565b610f736136e4565b60ff6108cf5460e01c166111245763ffffffff80421692610140830193610fac81610f9d87612f1c565b63ffffffff9182169116101590565b61111457610120840192610fbf84612f1c565b161061110557610fd7610fd2368561282f565b613617565b90610feb825f526108d660205260405f2090565b546110f7575061103a7f3cee3e290f36226751cd0b3321b213890fe9c768e922f267fa6111836ce05c329261103561102f611040945f526108d660205260405f2090565b60019055565b612f1c565b93612f1c565b61106061105b611054610160860186612f26565b369161066d565b614275565b906110ea6040519283926101008701359760e08801359760208101359281359260408301359260c08101359060a081013590606060808201359101358b9693909a999895919261012098959361014089019c895260208901526040880152606087015263ffffffff80921660808701521660a085015260c084015260e08301526101008201520152565b0390a3610018600160c955565b604051624be79160e21b8152fd5b60405163d642b7d960e01b8152fd5b50604051630277ae7b60e21b8152fd5b50604051633d90fc5560e11b8152fd5b34610459576020366003190112610459576004356111518161049d565b6001600160a01b03807f000000000000000000000000000000000000000000000000000000000000000016803014610459577f360894a13ba1a3210667c828492db98dca3e2076cc3735a920a3ca505d382bbc908282541603610459576111b661428a565b604051916111c383610580565b5f83527f4910fdfa16fed3260ed0e7147f7cc6da11a60208b5b9406d12a635614ffd91435460ff16156111fc5750505061001890614e36565b6020600491604051928380926352d1902d60e01b825288165afa5f9181611235575b50611227575f80fd5b036104595761001891614d1a565b61124f91925060203d602011610d9457610d8581836105d4565b905f61121e565b6020600319820112610459576004359067ffffffffffffffff82116104595761128191600401610a25565b9091565b5f5b8381106112965750505f910152565b8181015183820152602001611287565b906020916112bf81518092818552858086019101611285565b601f01601f1916010190565b6020808201908083528351809252604092604081018260408560051b8401019601945f925b858410611301575050505050505090565b909192939495968580611332600193603f1986820301885286838d51805115158452015191818582015201906112a6565b9901940194019295949391906112f0565b346104595761135136611256565b61135a81610802565b91604061136a60405194856105d4565b828452601f1961137984610802565b015f5b8181106113ed5750505f5b8381106113a0576040518061139c87826112cb565b0390f35b806113e76113b060019388612f7c565b515f806113be858a8a612f90565b906113cd895180938193612fa7565b0390305af4906113db612fb4565b60208201529015159052565b01611387565b60209083516113fb816104f6565b5f81528260608183015282890101520161137c565b34610459575f3660031901126104595760206040516301e133808152f35b346104595760403660031901126104595760243560043561144d61428a565b6114556136e4565b6108d08054680100000000000000008110156105125763ffffffff916001820190558361148182612bbc565b5084600182015555167fc86ba04c55bc5eb2f2876b91c438849a296dbec7b08751c3074d92e04f0a77af5f80a4600160c955005b34610459576040366003190112610459576001600160a01b036004356114da8161049d565b165f526108d160205260405f206024355f52602052602060ff60405f2054166040519015158152f35b60403660031901126104595760043561151b8161049d565b60243567ffffffffffffffff81116104595761153b9036906004016106a3565b6001600160a01b03807f00000000000000000000000000000000000000000000000000000000000000001690813014610459577f360894a13ba1a3210667c828492db98dca3e2076cc3735a920a3ca505d382bbc918183541603610459576115a161428a565b7f4910fdfa16fed3260ed0e7147f7cc6da11a60208b5b9406d12a635614ffd91435460ff16156115d75750505061001890614e36565b6020600491604051928380926352d1902d60e01b825288165afa5f9181611610575b50611602575f80fd5b036104595761001891614de5565b61162a91925060203d602011610d9457610d8581836105d4565b905f6115f9565b34610459575f3660031901126104595760206001600160a01b036108cd5416604051908152f35b34610459575f366003190112610459576001600160a01b037f00000000000000000000000000000000000000000000000000000000000000001630036104595760206040517f360894a13ba1a3210667c828492db98dca3e2076cc3735a920a3ca505d382bbc8152f35b610120366003190112610459576004356116db8161049d565b602435906116e88261049d565b604435916116f58361049d565b60a4358060070b81036104595760c4359161170f836104bb565b60e43567ffffffffffffffff81116104595761172f9036906004016106a3565b936117386136e4565b60ff6108cf5460e81c1661075057610749956084359260643592613747565b346104595760203660031901126104595760043567ffffffffffffffff8111610459576117889036906004016106a3565b6117906142aa565b610cbf805460ff81166118715760ff191660011790556040516349b5c56d60e01b81526020816004817f00000000000000000000000000000000000000000000000000000000000000006001600160a01b03165afa908115610d9b575f91611852575b5042811190811561181f575b5061180d57610d1f90614247565b604051633ff377d160e11b8152600490fd5b61182a915042612ff7565b7f0000000000000000000000000000000000000000000000000000000000000000115f6117ff565b61186b915060203d602011610d9457610d8581836105d4565b5f6117f3565b60405163087f80c160e31b8152600490fd5b346104595760c0366003190112610459576004356118a08161049d565b602435604435916064356118b38161049d565b67ffffffffffffffff91608435838111610459576118d5903690600401610b51565b60a494919435918211610459577f45e04bc8f121ba11466985789ca2822a91109f31bb8ac85504a37b7eaf873c2694611915611957933690600401610b51565b9290916001600160a01b038097166119498a8c8361193436888861066d565b91611940368b8b61066d565b9346908d6142be565b604051978897169a87613029565b0390a3005b34610459575f36600319011261045957602060405163ffffffff7f0000000000000000000000000000000000000000000000000000000000000000168152f35b34610459575f36600319011261045957602060ff6108cf5460e81c166040519015158152f35b6060906003190112610459576004356119da816104bb565b906024356119e78161049d565b906044356106be8161049d565b3461045957611a02366119c2565b5f54600881901c60ff1615939290849081611abd575b8115611a9d575b501561045957611a439284611a3a600160ff195f5416175f55565b611a865761305c565b611a4957005b611a5761ff00195f54165f55565b604051600181527f7f26b83ff96e1f2b6a682f133852f6798a09c465da95921460cefb384740249890602090a1005b611a9861010061ff00195f5416175f55565b61305c565b303b15915081611aaf575b505f611a1f565b6001915060ff16145f611aa8565b600160ff8216109150611a18565b34610459575f3660031901126104595760206040517f8d1994e2bbbd77564cdca06dd819e7ee2a5efa06c80dcb59a4a7b6e39edc538f8152f35b34610459575f36600319011261045957602060405163ffffffff7f0000000000000000000000000000000000000000000000000000000000000000168152f35b34610459575f36600319011261045957611b5d6142aa565b5f6001600160a01b036033546001600160a01b03198116603355167f8be0079c531659141344cd1fd0a4f28419497f9722a3daafe3b4186f6b6457e08280a3005b8015150361045957565b34610459576020366003190112610459577fe88463c2f254e2b070013a2dc7ee1e099f9bc00534cbdf03af551dc26ae492196020600435611be881611b9e565b611bf061428a565b611bf86136e4565b15156108cf80547fffff00ffffffffffffffffffffffffffffffffffffffffffffffffffffffffff60ff60e81b8460e81b169116179055604051908152a1600160c955005b34610459576020366003190112610459576020611c5b600435613133565b604051908152f35b34610459575f3660031901126104595760206040517f000000000000000000000000000000000000000000000000000000000000000015158152f35b61016036600319011261045957600435611cb88161049d565b60243590611cc58261049d565b604435611cd18161049d565b60643590611cde8261049d565b60e435611cea8161049d565b6101043590611cf8826104bb565b6101243592611d06846104bb565b610144359667ffffffffffffffff881161045957611d2b610018983690600401610b51565b97909660c4359360a435936084359361316e565b61018036600319011261045957600435611d588161049d565b60243590611d658261049d565b604435611d718161049d565b60643590611d7e8261049d565b60e435611d8a8161049d565b61010435611d97816104bb565b6101243591611da5836104bb565b611dad6104c9565b93610164359767ffffffffffffffff891161045957611dd3610018993690600401610b51565b98909760c4359360a4359360843593613190565b34610459576060366003190112610459576020611c5b600435611e098161049d565b60443590602435906132ab565b346104595760603660031901126104595767ffffffffffffffff60243581811161045957611e48903690600401610b51565b9160443590811161045957611e61903690600401610b51565b9060405193602085019480611e784684888a6132e1565b0395611e8c601f19978881018452836105d4565b6004359151902003611f1f575f94611ebb611edd93611eb287611ee9958a9901906128e5565b958101906132fe565b519360405193849160208301966337bfd2c960e21b88523391602485016133c6565b039081018352826105d4565b5190305af4611ef6612fb4565b9015611efe57005b60405163b8fe37a760e01b8152908190611f1b90600483016133e8565b0390fd5b604051630f0c8f4760e11b8152600490fd5b3461045957602036600319011261045957600435611f4d61428a565b611f556136e4565b611f5e81612bbc565b611f96576001815f80935501557f7c1af0646963afc3343245b103731965735a893347bfa0d58a5dc77a77ae691c5f80a2600160c955005b634e487b7160e01b5f525f60045260245ffd5b6101a03660031901126104595761012435611fc3816104bb565b61014435611fd0816104bb565b6101643591611fde836104bb565b610184359267ffffffffffffffff841161045957612003610018943690600401610b51565b9390926101043560e43560c43560a4356084356064356044356024356004356133f9565b34610459575f3660031901126104595760206001600160a01b0360335416604051908152f35b34610459575f3660031901126104595760206040516001600160a01b037f0000000000000000000000000000000000000000000000000000000000000000168152f35b346104595760e03660031901126104595767ffffffffffffffff600435818111610459576120c2903690600401610dcb565b60a435828111610459576120da903690600401610b51565b60c492919235938411610459576120f8610018943690600401610b51565b93909260843590606435906044359060243590613471565b346104595761211e366119c2565b909160ff5f5460081c161561045957612154906108cf9063ffffffff60c01b1963ffffffff60c01b83549260c01b169116179055565b604051612160816104f6565b6009815260208101926820a1a927a9a996ab1960b91b8452640312e302e360dc1b602060405161218f816104f6565b60058152015260ff5f5460081c161561045957610018936121eb925190206104e3557f06c015bd22b4c69690933c1058878ebdfef31f9aaae40bbe86d8a09fe1b2972c6104e4556121de6146c9565b6121e66146d8565b6146ec565b614746565b34610459576020366003190112610459577f2d5b62420992e5a4afce0e77742636ca2608ef58289fd2e1baa5161ef6e7e41e602060043561223081611b9e565b61223861428a565b6122406136e4565b15156108cf80547fffffff00ffffffffffffffffffffffffffffffffffffffffffffffffffffffff60ff60e01b8460e01b169116179055604051908152a1600160c955005b34610459575f366003190112610459576020604051468152f35b34610459575f36600319011261045957602063ffffffff6108cf5460c01c16604051908152f35b34610459576040366003190112610459576004356024356122e682614c3e565b6001600160a01b0382165f526108d760205261231560405f20336001600160a01b03165f5260205260405f2090565b549182156123b8575f61235c3361234661232e85613c0b565b6001600160a01b03165f526108d760205260405f2090565b906001600160a01b03165f5260205260405f2090565b556123888361237961236d84613c0b565b6001600160a01b031690565b61238285613c0b565b906147a0565b60405192835233927f6c172ea51018fb2eb2118f3f8a507c4df71eb519b8c0052834dc3c920182fef490602090a4005b6040516336542bf760e21b8152600490fd5b6020808201906020835283518092526040830192602060408460051b8301019501935f915b8483106123ff5750505050505090565b909192939495848061241d600193603f198682030187528a516112a6565b98019301930191949392906123ef565b346104595761243b36611256565b906124458261355a565b915f5b81811061245d576040518061139c86826123ca565b5f8061246a838587612f90565b9061247a60405180938193612fa7565b0390305af4612487612fb4565b90156124ad579060019161249b8287612f7c565b526124a68186612f7c565b5001612448565b6044815110610459578060046104599201516024809183010191016135a3565b6101808060031936011261045957610104356124e8816104bb565b61012435916124f6836104bb565b6101443592612504846104bb565b6101643567ffffffffffffffff811161045957612525903690600401610b51565b61252d6136e4565b6108cf549260ff8460e81c1661075057610b47966125f2611054926125e463ffffffff6126009860c01c16996125886125658c613602565b6108cf9063ffffffff60c01b1963ffffffff60c01b83549260c01b169116179055565b612590610637565b9a6004358c5260243560208d015260443560408d015260643560608d015260843560808d015260a43560a08d015260c43560c08d015260e43560e08d01526101008c01526101208b019063ffffffff169052565b63ffffffff16610140890152565b63ffffffff16610160870152565b90820152614437565b3461045957604036600319011261045957602061266260043561262b8161049d565b6001600160a01b03602435916126408361049d565b165f526108d7835260405f20906001600160a01b03165f5260205260405f2090565b54604051908152f35b34610459575f3660031901126104595760206001600160a01b036108ce5416604051908152f35b346104595760c03660031901126104595760043560243567ffffffffffffffff606435604435608435838111610459576126d0903690600401610b51565b60a494919435918211610459577f45e04bc8f121ba11466985789ca2822a91109f31bb8ac85504a37b7eaf873c269461271061275f933690600401610b51565b92909161271b6136e4565b6127248a614c3e565b612753898b898961273636888861066d565b92612742368b8b61066d565b946001600160a01b034692166142be565b60405196879687613029565b0390a3600160c955005b34610459575f3660031901126104595760206040516001600160a01b037f0000000000000000000000000000000000000000000000000000000000000000168152f35b34610459575f3660031901126104595760206040517f00000000000000000000000000000000000000000000000000000000000000008152f35b34610459576020366003190112610459576004355f526108d6602052602060405f2054604051908152f35b34610459575f36600319011261045957602060405163ffffffff8152f35b91906101808382031261045957612844610616565b92803584526020810135602085015260408101356040850152606081013560608501526080810135608085015260a081013560a085015260c081013560c085015260e081013560e085015261010080820135908501526101206128a88183016104d7565b908501526101406128ba8183016104d7565b90850152610160918282013567ffffffffffffffff8111610459576128df92016106a3565b90830152565b9060208282031261045957813567ffffffffffffffff8111610459576106be920161282f565b346104595760203660031901126104595760043567ffffffffffffffff811161045957611c5b610fd2602092369060040161282f565b34610459575f36600319011261045957602060ff6108cf5460e01c166040519015158152f35b34610459575f3660031901126104595760206040516ec097ce7bc90715b34b9f10000000008152f35b34610459576020366003190112610459576107496004356129b08161049d565b6129b861428a565b6121e66136e4565b346104595760603660031901126104595760043567ffffffffffffffff8111610459576129f190369060040161282f565b6129f96136e4565b60ff6108cf5460e01c16612aa35761014081015163ffffffff4281169116101580612a84575b612a725780612a30610b4792613617565b60c082015160208301519061016084015192612a4a6105f6565b948552602085015260408401526060830152608082015260243560a082015260443590613fe6565b604051630c3a9b9d60e41b8152600490fd5b50612a926040820151613c0b565b6001600160a01b0316331415612a1f565b604051633d90fc5560e11b8152600490fd5b34610459575f3660031901126104595760206040516001600160a01b037f0000000000000000000000000000000000000000000000000000000000000000168152f35b610160806003193601126104595761010435612b13816104bb565b61012435612b20816104bb565b6101443567ffffffffffffffff811161045957612b41903690600401610b51565b63ffffffff94612b548642169586613156565b93612b5d6136e4565b6108cf549160ff8360e81c1661075057612b90612b9d966125e4610b479a6110549660c01c16996125886125658c613602565b86019063ffffffff169052565b610180820152614437565b634e487b7160e01b5f52603260045260245ffd5b6108d0908154811015612bf6576003915f52027f6404fdb155c59a831d14e4acb0957279f1e3a856a4513ac322398c7bc9a5781b01905f90565b612ba8565b34610459576020366003190112610459576004356108d05481101561045957612c25604091612bbc565b506001815491015482519182526020820152f35b3461045957602036600319011261045957600435612c568161049d565b612c5e6142aa565b6001600160a01b03811615610459576100189061439a565b34610459576020366003190112610459576004355f52610cbe602052602060ff60405f2054166040519015158152f35b3461045957602036600319011261045957610749600435612cc68161049d565b612cce61428a565b6121eb6136e4565b9190612ce06136e4565b602081019182514603612df257612d08612d0c91836001612d0088612bbc565b500154613936565b1590565b612de0577ff4ad92585b1bc117fbdd644990adf0827bc4c95baeae8a23322af807b6d0020e6060820192612d4d612d47855163ffffffff1690565b866139c8565b8051612dd38451926040860195612db8612daa612d99895196612d748c5163ffffffff1690565b976080860198612d8b8a516001600160a01b031690565b9160a088019b8c5194613a2a565b925193519851995163ffffffff1690565b94516001600160a01b031690565b945163ffffffff9586604051978897169b1699339487612e73565b0390a46104b9600160c955565b60405163582f497d60e11b8152600490fd5b604051633d23e4d160e11b8152600490fd5b9081518082526020808093019301915f5b828110612e23575050505090565b835185529381019392810192600101612e15565b9081518082526020808093019301915f5b828110612e56575050505090565b83516001600160a01b031685529381019392810192600101612e48565b9496959193612e9560a095612eb393885260c0602089015260c0880190612e04565b906001600160a01b0380951660408801528682036060880152612e37565b951515608085015216910152565b90816020910312610459575190565b6040513d5f823e3d90fd5b919091604081840312610459578035612ef38161049d565b92602082013567ffffffffffffffff8111610459576106be92016106a3565b356106be8161049d565b356106be816104bb565b903590601e1981360301821215610459570180359067ffffffffffffffff82116104595760200191813603831361045957565b634e487b7160e01b5f52602160045260245ffd5b60031115612f7757565b612f59565b8051821015612bf65760209160051b010190565b90821015612bf6576112819160051b810190612f26565b908092918237015f815290565b3d15612fde573d90612fc582610651565b91612fd360405193846105d4565b82523d5f602084013e565b606090565b634e487b7160e01b5f52601160045260245ffd5b9190820391821161300457565b612fe3565b908060209392818452848401375f828201840152601f01601f1916010190565b9492909361304e926106be979587526020870152608060408701526080860191613009565b926060818503910152613009565b91909160ff5f5460081c1615610459576130753361439a565b60ff5f5460081c1615610459576130a9906108cf9063ffffffff60c01b1963ffffffff60c01b83549260c01b169116179055565b6040516130b5816104f6565b6009815260208101926820a1a927a9a996ab1960b91b8452640312e302e360dc1b60206040516130e4816104f6565b60058152015260ff5f5460081c1615610459576104b9936121eb925190206104e3557f06c015bd22b4c69690933c1058878ebdfef31f9aaae40bbe86d8a09fe1b2972c6104e4556121de6146c9565b604051602081019182525f60408201526040815261315081610548565b51902090565b91909163ffffffff8080941691160191821161300457565b96949290916104b99b9a999896949261318e63ffffffff42169889613156565b985b9593919b999897969492909b6131a46136e4565b6108cf549660ff8860e81c16610750578760c01c63ffffffff166131c790613602565b6131ee906108cf9063ffffffff60c01b1963ffffffff60c01b83549260c01b169116179055565b6131f6610637565b9d6001600160a01b038f921682526001600160a01b031690602001526001600160a01b031660408d01526001600160a01b031660608c015260808b015260a08a015260c08901526001600160a01b031660e088015260c01c63ffffffff1661010087015261012086019061326f919063ffffffff169052565b63ffffffff1661014085015263ffffffff1661016084015236906132929261066d565b6101808201526132a190614437565b6104b9600160c955565b916040519160208301936bffffffffffffffffffffffff199060601b168452603483015260548201526054815261315081610564565b9392916020916132f991604087526040870191613009565b930152565b9081602091031261045957604051906020820182811067ffffffffffffffff8211176105125760405235815290565b6106be9161018090825181526020830151602082015260408301516040820152606083015160608201526080830151608082015260a083015160a082015260c083015160c082015260e083015160e082015261010080840151908201526133a2610120808501519083019063ffffffff169052565b6101408381015163ffffffff169082015281610160809401519382015201906112a6565b6133de6040929594939560608352606083019061332d565b9460208201520152565b9060206106be9281815201906112a6565b9c9a999897969594939291909661340e6136e4565b60ff6108cf5460e81c1661075057613427908e336132ab565b96604051809e61343682610517565b81526020015260408d015260608c015260808b015260a08a015260c089015260e088015261010087015263ffffffff1661012086015261326f565b9792909593919694976134826136e4565b60ff6108cf5460e01c16612aa35761349d6101408201612f1c565b63ffffffff804216911610158061353b575b612a72576135246135369661351c6132a19b6134ce610fd2368761282f565b9a6134d76105f6565b9b6134e2368861282f565b8d5260208d01528660408d01528760608d0152613500368b8461066d565b60808d015260a08c01526135148535613c0b565b98369161066d565b95369161066d565b9461010060e0830135920135906142be565b613fe6565b506135496040820135613c0b565b6001600160a01b03163314156134af565b9061356482610802565b61357160405191826105d4565b8281528092613582601f1991610802565b01905f5b82811061359257505050565b806060602080938501015201613586565b6020818303126104595780519067ffffffffffffffff8211610459570181601f820112156104595780516135d681610651565b926135e460405194856105d4565b81845260208284010111610459576106be9160208085019101611285565b63ffffffff8091169081146130045760010190565b60405161315081613634602082019460408652606083019061332d565b46604083015203601f1981018352826105d4565b9190916136536136e4565b60ff6108cf5460e01c16612aa35761014081015163ffffffff42811691161015806136c5575b612a72576132a19261368a82613617565b60c0830151602084015190610160850151926136a46105f6565b958652602086015260408501526060840152608083015260a0820152613fe6565b506136d36040820151613c0b565b6001600160a01b0316331415613679565b600260c9541461045957600260c955565b926106be9695929491946101409585525f60208601526040850152606084015263ffffffff809116608084015260a08301525f60c083015260e08201525f6101008201528161012082015201906112a6565b9193949690959660070b906706f05b59d3b20000613764836147e8565b1015613924576ec097ce7bc90715b34b9f100000000084116139125763ffffffff93613792858a1642612ff7565b857f00000000000000000000000000000000000000000000000000000000000000001610613900576108cf5460c01c63ffffffff16986137d46125658b613602565b6001600160a01b039586807f000000000000000000000000000000000000000000000000000000000000000016981692888414806138f7575b156138bb578034036138a957883b15610459575f6004996040519a8b8092630d0e30db60e41b825234905af1988915610d9b5761387861388b978a927f32ed1a409ef04c7b0227189c3a103dc5ac10e775a15b785dcc510201f7c25ad39c613890575b505b83614836565b92604051998a99169d169b1693876136f5565b0390a4565b8061389d6138a392610534565b8061044f565b5f613870565b604051636452a35d60e01b8152600490fd5b7f32ed1a409ef04c7b0227189c3a103dc5ac10e775a15b785dcc510201f7c25ad398508761387861388b976138f28430338a6147f7565b613872565b5034151561380d565b60405163f722177f60e01b8152600490fd5b60405163622db5a960e11b8152600490fd5b60405163284f109760e21b8152600490fd5b6106be92916040516139bf816139b1602082019460208652805160408401526020810151606084015260a061397b604083015160c06080870152610100860190612e04565b606083015163ffffffff168583015260808301516001600160a01b031660c0860152910151838203603f190160e0850152612e37565b03601f1981018352826105d4565b5190209161486c565b6139d3600291612bbc565b500162ffffff8260081c16805f5281602052600160ff60405f205494161b8080941614613a0b575f5260205260405f20908154179055565b60405163954476d960e01b8152600490fd5b9190820180921161300457565b91959495939092935f9681519081815103613bf95781613aa9575b50505082613a54575b50505050565b6001600160a01b0381613a887ffa7fa7cf6d7dde5f9be65a67e6a1a747e7aa864dcd2d793353c722d80fbbb357938661492f565b6040805195865233602087015291169463ffffffff1693a45f808080613a4e565b604080516370a0823160e01b81523060048083019190915291906020816024816001600160a01b038b165afa908115610d9b575f91613bda575b505f805b868110613af8575050505050613a45565b613b028189612f7c565b51613b10575b600101613ae7565b90613b2690613b1f838a612f7c565b5190613a1d565b90828211613bca57613b60612d08613b4e613b41848a612f7c565b516001600160a01b031690565b613b58848c612f7c565b51908c6148bd565b15613b08579c5087613bc0613bb88f613ba3613b41613b9c613b82848f612f7c565b51966001600160a01b03165f526108d760205260405f2090565b928b612f7c565b6001600160a01b03165f5260205260405f2090565b918254613a1d565b905560019c613b08565b50505051632ddaa83160e11b8152fd5b613bf3915060203d602011610d9457610d8581836105d4565b5f613ae3565b6040516319a5316760e31b8152600490fd5b6001600160a01b0390613c1d81614c3e565b1690565b91612d0890613c9a92845160408096015191865191613c3f83610548565b82526139bf613c5a6020840192468452898501958652612bbc565b5054938851928391613c7f6020840196602088525160608d86015260a085019061332d565b9151606084015251608083015203601f1981018352826105d4565b613ca15750565b5163582f497d60e11b8152600490fd5b613cba82612f6d565b52565b9a989693919c9b9997959492909c6101e08c019d8c5260208c015260408b015260608a0152608089015263ffffffff80921660a08901521660c087015260e08601526101008501526101208401526101408301528051610160830152602081015161018083015260408101516101a08301526060015190613d3d82612f6d565b6101c00152565b906106be94936080936001600160a01b038093168452602084015216604082015281606082015201906112a6565b905f82516101208101613d89815163ffffffff1690565b63ffffffff42911610613fd4576020850151906002613db1835f526108d660205260405f2090565b5414613fc257613dcb86925f526108d660205260405f2090565b6002905560608301519060808401519160a08501519260c0860151918560a0810151938860e0810151956101008201519751613e0a9063ffffffff1690565b61014083015163ffffffff166040840151918451936020860151956101600151613e3390614275565b966060890151986080019e8f51613e4990614275565b906040015190613e57610644565b9a8b5260208b015260408a0152600260608a01526040519d8e9b613e7b9b8d613cbd565b037f44b559f101f8fbcc8a0ea43fa91a05a729a5ea6e14a7c75aa750374690137208905f94a46080820151613eaf90613c0b565b9060408601519560600151613ec390613c0b565b9260800151613ed190613c0b565b6001600160a01b03919082167f0000000000000000000000000000000000000000000000000000000000000000831603613fad5784613f9a575b613f1787838616614c59565b51928351151580613f90575b613f31575b50505050509050565b1690813b15613f8c5783613f5f959660405196879586948593633a5be8cb60e01b8552339160048601613d44565b03925af18015610d9b57613f79575b808080808594613f28565b8061389d613f8692610534565b5f613f6e565b8380fd5b50803b1515613f23565b613fa88730338587166147f7565b613f0b565b5f9450613fbd87858585166147a0565b613f17565b604051630479306360e51b8152600490fd5b60405163d642b7d960e01b8152600490fd5b8051916101208301613ffc815163ffffffff1690565b63ffffffff42911610613fd45760208301516001614023825f526108d660205260405f2090565b5403614240576001905b6002614042825f526108d660205260405f2090565b5414613fc25761405e614064915f526108d660205260405f2090565b60029055565b7f44b559f101f8fbcc8a0ea43fa91a05a729a5ea6e14a7c75aa75037469013720860608601516080870151906141318760a08a0151958a60c08101519760a08401519860e0830151996140c16101008501519c5163ffffffff1690565b61014085015163ffffffff16916040860151938651956141256140ed61016060208b01519a0151614275565b9960608c01519b60406141036080830151614275565b910151906020614111610644565b9e8f528e015260408d015260608c01613cb1565b6040519c8d9c8d613cbd565b0390a46141416080830151613c0b565b9160408201519160806141638161415b6060850151613c0b565b940151613c0b565b6001600160a01b03929083167f000000000000000000000000000000000000000000000000000000000000000084160361422d576141a5853033868a166147f7565b6141b185848616614c59565b0151918251151580614223575b6141ca575b5050505050565b16803b15610459576141f8935f809460405196879586948593633a5be8cb60e01b8552339160048601613d44565b03925af18015610d9b57614210575b808080806141c3565b8061389d61421d92610534565b5f614207565b50803b15156141be565b61423b858533868a166147f7565b6141b1565b5f9061402d565b5f8091602081519101305af461425b612fb4565b501561426357565b6040516318cecad560e01b8152600490fd5b805190816142835750505f90565b6020012090565b60ff610cbf54161561429857565b604051631147e02f60e11b8152600490fd5b6001600160a01b0360335416330361045957565b93926042936104b9979660208151910120906040519260208401947f8d1994e2bbbd77564cdca06dd819e7ee2a5efa06c80dcb59a4a7b6e39edc538f86526040850152856060850152608084015260a083015260c082015260c081526143238161059c565b519020906104e354906104e454906040519160208301937fc2f8787176b8ac6bf7215b4adcc1e069bf4ab82d9ab1df05a57a91d425935b6e855260408401526060830152608082015260808152614379816105b8565b519020906040519161190160f01b8352600283015260228201522090614e79565b603354906001600160a01b0380911691826001600160a01b0319821617603355167f8be0079c531659141344cd1fd0a4f28419497f9722a3daafe3b4186f6b6457e05f80a3565b96926106be9a9996949198959261014099895260208901526040880152606087015263ffffffff928380921660808801521660a08601521660c084015260e08301526101008201528161012082015201906112a6565b6144418151614c3e565b6101208101614460614457825163ffffffff1690565b63ffffffff1690565b804210908115614690575b5061390057610140820191614484835163ffffffff1690565b9063ffffffff91826144b8817f00000000000000000000000000000000000000000000000000000000000000001642613a1d565b91161161467e5761016081015163ffffffff169180831680614639575b505060408101908151916001600160a01b037f00000000000000000000000000000000000000000000000000000000000000001680931480614630575b156145e357608082015134036138a957823b15610459575f60049360405194858092630d0e30db60e41b825234905af1928315610d9b577f32ed1a409ef04c7b0227189c3a103dc5ac10e775a15b785dcc510201f7c25ad3936145d0575b505b5161388b60608301519260808101519060a081015160c0820151976145af6145a46101008501519b5163ffffffff1690565b9b5163ffffffff1690565b83519b60208501519361018060e0870151960151966040519a8b9a8b6143e1565b8061389d6145dd92610534565b5f614570565b9150346138a9578161462b61461c61236d7f32ed1a409ef04c7b0227189c3a103dc5ac10e775a15b785dcc510201f7c25ad39551613c0b565b608084015190309033906147f7565b614572565b50341515614512565b6301e133801015614669575b5060e081015115614657575f806144d5565b60405163495d907f60e01b8152600490fd5b916146779192421690613156565b905f614645565b60405163582e388960e01b8152600490fd5b61469b915042612ff7565b63ffffffff7f000000000000000000000000000000000000000000000000000000000000000016105f61446b565b60ff5f5460081c161561045957565b60ff5f5460081c161561045957600160c955565b6001600160a01b03168015614734576108cd816001600160a01b03198254161790557fa9e8c42c9e7fca7f62755189a16b2f5314d43d8fb24e91ba54e6d65f9314e8495f80a2565b60405163ba97b39d60e01b8152600490fd5b6001600160a01b0316801561478e576108ce816001600160a01b03198254161790557fa73e8909f8616742d7fe701153d82666f7b7cd480552e23ebb05d358c22fd04e5f80a2565b604051635b03092b60e11b8152600490fd5b60405163a9059cbb60e01b60208201526001600160a01b03909216602483015260448201929092526104b9916147e382606481015b03601f1981018452836105d4565b614f57565b5f81126147f25790565b5f0390565b90926104b993604051936323b872dd60e01b60208601526001600160a01b0380921660248601521660448401526064830152606482526147e3826105b8565b90670de0b6b3a7640000915f82840392128383128116908484139015161761300457818102918183041490151715613004570490565b929091905f915b84518310156148b5576148868386612f7c565b5190818110156148a4575f52602052600160405f205b920191614873565b905f52602052600160405f2061489c565b915092501490565b60405163a9059cbb60e01b60208281019182526001600160a01b039094166024830152604482019490945290925f916148f981606481016139b1565b519082855af1903d5f519083614910575b50505090565b9192509061492557503b15155b5f808061490a565b600191501461491d565b6001600160a01b03807f000000000000000000000000000000000000000000000000000000000000000016928315159081614c10575b5015614bfe57806108ce54167f00000000000000000000000000000000000000000000000000000000000000009161499e84868561504d565b604094604051926332dd704760e21b84526020956004948781600481875afa968715610d9b5788915f98614bcd575b506040516352b7631960e11b81529086166001600160a01b03811660048301529097909588916024918391165afa958615610d9b575f96614bae575b5095867f0000000000000000000000000000000000000000000000000000000000000000975b614a3e57505050505050505050565b86811115614ba857865b8815614b0057843b15610459578951634701287760e11b815287810182815263ffffffff7f0000000000000000000000000000000000000000000000000000000000000000166020820152604081018690526001600160a01b03881660608201525f6080820181905260a082018190526107d060c0830152919391908490819060e0010381838a5af1928315610d9b57614ae793614aed575b50612ff7565b80614a2f565b8061389d614afa92610534565b5f614ae1565b89516337e9a82760e11b815287810182815263ffffffff7f0000000000000000000000000000000000000000000000000000000000000000166020820152604081018690526001600160a01b038816606082015290929084908490819060800103815f8a5af1928315610d9b57614ae793614b7b5750612ff7565b614b9a90853d8711614ba1575b614b9281836105d4565b810190614ffc565b505f614ae1565b503d614b88565b80614a48565b614bc6919650873d8911610d9457610d8581836105d4565b945f614a09565b86919850614bf090833d8511614bf7575b614be881836105d4565b810190614fe7565b97906149cd565b503d614bde565b60405163d623472560e01b8152600490fd5b82167f000000000000000000000000000000000000000000000000000000000000000083161490505f614965565b60a01c614c4757565b6040516379ec0ed760e11b8152600490fd5b6001600160a01b0390811690813b15614c9957906104b992917f0000000000000000000000000000000000000000000000000000000000000000166147a0565b7f000000000000000000000000000000000000000000000000000000000000000016803b15610459575f8091602460405180948193632e1a7d4d60e01b83528860048401525af18015610d9b57614d0b575b50814710610459575f80809381935af1614d03612fb4565b501561045957565b614d1490610534565b5f614ceb565b614d2381614e36565b6001600160a01b0381167fbc7cd75a20ee27fd9adebab32041f755214dbc6bffa90cc0225b39da2e5c2d3b5f80a2815115801590614dde575b614d64575050565b5f80614ddb937f206661696c65640000000000000000000000000000000000000000000000000060408051614d9881610548565b602781527f416464726573733a206c6f772d6c6576656c2064656c65676174652063616c6c60208201520152602081519101845af4614dd5612fb4565b916150f1565b50565b505f614d5c565b614dee81614e36565b6001600160a01b0381167fbc7cd75a20ee27fd9adebab32041f755214dbc6bffa90cc0225b39da2e5c2d3b5f80a2815115801590614e2e57614d64575050565b506001614d5c565b803b15610459576001600160a01b037f360894a13ba1a3210667c828492db98dca3e2076cc3735a920a3ca505d382bbc91166001600160a01b0319825416179055565b614e83838361501c565b6005819592951015612f7757159384614f41575b508315614ebb575b50505015614ea957565b60405163938a182160e01b8152600490fd5b5f929350908291604051614ef3816139b16020820194630b135d3f60e11b998a875260248401526040604484015260648301906112a6565b51915afa90614f00612fb4565b82614f33575b82614f16575b50505f8080614e9f565b614f2b91925060208082518301019101612ec1565b145f80614f0c565b915060208251101591614f06565b6001600160a01b0383811691161493505f614e97565b905f806001600160a01b03614fae9416927f5361666545524332303a206c6f772d6c6576656c2063616c6c206661696c65646020604051614f97816104f6565b818152015260208151910182855af1614dd5612fb4565b8051908115918215614fc4575b50501561045957565b81925090602091810103126104595760200151614fe081611b9e565b5f80614fbb565b9081602091031261045957516106be8161049d565b90816020910312610459575167ffffffffffffffff811681036104595790565b9060418151145f146150445761128191602082015190606060408401519301515f1a9061511a565b50505f90600290565b6044919260206001600160a01b0360405194858092636eb1769f60e11b8252306004830152808916602483015286165afa928315610d9b575f936150d0575b5082018092116130045760405163095ea7b360e01b60208201526001600160a01b03909316602484015260448301919091526104b991906147e382606481016147d5565b6150ea91935060203d602011610d9457610d8581836105d4565b915f61508c565b901561510b57815115615102575090565b3b156104595790565b50805190811561045957602001fd5b7f7fffffffffffffffffffffffffffffff5d576e7357a4501ddfe92f46681b20a0841161518a576020935f9360ff60809460405194855216868401526040830152606082015282805260015afa15610d9b575f516001600160a01b0381161561518257905f90565b505f90600190565b505050505f9060039056fea2646970667358221220c6653e6577b91025dce477a61c15988e825f6f584ebd6980009c2b76ca470b3264736f6c63430008170033"
}