{
  "address": "0x95B3A7A7344BBd7b1033275CA3Ce89494baA6A40",
  "abi": [
    {
      "inputs": [
        {
          "internalType": "address",
          "name": "_wrappedNativeTokenAddress",
          "type": "address"
        },
        {
          "internalType": "uint32",
          "name": "_depositQuoteTimeBuffer",
          "type": "uint32"
        },
        {
          "internalType": "uint32",
          "name": "_fillDeadlineBuffer",
          "type": "uint32"
        }
      ],
      "stateMutability": "nonpayable",
      "type": "constructor"
    },
    {
      "inputs": [],
      "name": "ClaimedMerkleLeaf",
      "type": "error"
    },
    {
      "inputs": [],
      "name": "DisabledRoute",
      "type": "error"
    },
    {
      "inputs": [],
      "name": "ExpiredFillDeadline",
      "type": "error"
    },
    {
      "inputs": [],
      "name": "InvalidChainId",
      "type": "error"
    },
    {
      "inputs": [],
      "name": "InvalidFillDeadline",
      "type": "error"
    },
    {
      "inputs": [],
      "name": "InvalidMerkleLeaf",
      "type": "error"
    },
    {
      "inputs": [],
      "name": "InvalidMerkleProof",
      "type": "error"
    },
    {
      "inputs": [],
      "name": "InvalidPayoutAdjustmentPct",
      "type": "error"
    },
    {
      "inputs": [],
      "name": "InvalidQuoteTimestamp",
      "type": "error"
    },
    {
      "inputs": [],
      "name": "InvalidSlowFillRequest",
      "type": "error"
    },
    {
      "inputs": [],
      "name": "MsgValueDoesNotMatchInputAmount",
      "type": "error"
    },
    {
      "inputs": [],
      "name": "NotExclusiveRelayer",
      "type": "error"
    },
    {
      "inputs": [],
      "name": "RelayFilled",
      "type": "error"
    },
    {
      "anonymous": false,
      "inputs": [
        {
          "indexed": false,
          "internalType": "address",
          "name": "previousAdmin",
          "type": "address"
        },
        {
          "indexed": false,
          "internalType": "address",
          "name": "newAdmin",
          "type": "address"
        }
      ],
      "name": "AdminChanged",
      "type": "event"
    },
    {
      "anonymous": false,
      "inputs": [
        {
          "indexed": true,
          "internalType": "address",
          "name": "beacon",
          "type": "address"
        }
      ],
      "name": "BeaconUpgraded",
      "type": "event"
    },
    {
      "anonymous": false,
      "inputs": [
        {
          "indexed": true,
          "internalType": "uint256",
          "name": "rootBundleId",
          "type": "uint256"
        }
      ],
      "name": "EmergencyDeleteRootBundle",
      "type": "event"
    },
    {
      "anonymous": false,
      "inputs": [
        {
          "indexed": true,
          "internalType": "address",
          "name": "originToken",
          "type": "address"
        },
        {
          "indexed": true,
          "internalType": "uint256",
          "name": "destinationChainId",
          "type": "uint256"
        },
        {
          "indexed": false,
          "internalType": "bool",
          "name": "enabled",
          "type": "bool"
        }
      ],
      "name": "EnabledDepositRoute",
      "type": "event"
    },
    {
      "anonymous": false,
      "inputs": [
        {
          "indexed": false,
          "internalType": "uint256",
          "name": "amountToReturn",
          "type": "uint256"
        },
        {
          "indexed": true,
          "internalType": "uint256",
          "name": "chainId",
          "type": "uint256"
        },
        {
          "indexed": false,
          "internalType": "uint256[]",
          "name": "refundAmounts",
          "type": "uint256[]"
        },
        {
          "indexed": true,
          "internalType": "uint32",
          "name": "rootBundleId",
          "type": "uint32"
        },
        {
          "indexed": true,
          "internalType": "uint32",
          "name": "leafId",
          "type": "uint32"
        },
        {
          "indexed": false,
          "internalType": "address",
          "name": "l2TokenAddress",
          "type": "address"
        },
        {
          "indexed": false,
          "internalType": "address[]",
          "name": "refundAddresses",
          "type": "address[]"
        }
      ],
      "name": "ExecutedRelayerRefundRoot",
      "type": "event"
    },
    {
      "anonymous": false,
      "inputs": [
        {
          "indexed": false,
          "internalType": "uint256",
          "name": "amountToReturn",
          "type": "uint256"
        },
        {
          "indexed": true,
          "internalType": "uint256",
          "name": "chainId",
          "type": "uint256"
        },
        {
          "indexed": false,
          "internalType": "uint256[]",
          "name": "refundAmounts",
          "type": "uint256[]"
        },
        {
          "indexed": true,
          "internalType": "uint32",
          "name": "rootBundleId",
          "type": "uint32"
        },
        {
          "indexed": true,
          "internalType": "uint32",
          "name": "leafId",
          "type": "uint32"
        },
        {
          "indexed": false,
          "internalType": "address",
          "name": "l2TokenAddress",
          "type": "address"
        },
        {
          "indexed": false,
          "internalType": "address[]",
          "name": "refundAddresses",
          "type": "address[]"
        },
        {
          "indexed": false,
          "internalType": "bytes32",
          "name": "fillsRefundedRoot",
          "type": "bytes32"
        },
        {
          "indexed": false,
          "internalType": "string",
          "name": "fillsRefundedIpfsHash",
          "type": "string"
        }
      ],
      "name": "ExecutedUSSRelayerRefundRoot",
      "type": "event"
    },
    {
      "anonymous": false,
      "inputs": [
        {
          "indexed": false,
          "internalType": "uint256",
          "name": "amount",
          "type": "uint256"
        },
        {
          "indexed": false,
          "internalType": "uint256",
          "name": "totalFilledAmount",
          "type": "uint256"
        },
        {
          "indexed": false,
          "internalType": "uint256",
          "name": "fillAmount",
          "type": "uint256"
        },
        {
          "indexed": false,
          "internalType": "uint256",
          "name": "repaymentChainId",
          "type": "uint256"
        },
        {
          "indexed": true,
          "internalType": "uint256",
          "name": "originChainId",
          "type": "uint256"
        },
        {
          "indexed": false,
          "internalType": "uint256",
          "name": "destinationChainId",
          "type": "uint256"
        },
        {
          "indexed": false,
          "internalType": "int64",
          "name": "relayerFeePct",
          "type": "int64"
        },
        {
          "indexed": false,
          "internalType": "int64",
          "name": "realizedLpFeePct",
          "type": "int64"
        },
        {
          "indexed": true,
          "internalType": "uint32",
          "name": "depositId",
          "type": "uint32"
        },
        {
          "indexed": false,
          "internalType": "address",
          "name": "destinationToken",
          "type": "address"
        },
        {
          "indexed": false,
          "internalType": "address",
          "name": "relayer",
          "type": "address"
        },
        {
          "indexed": true,
          "internalType": "address",
          "name": "depositor",
          "type": "address"
        },
        {
          "indexed": false,
          "internalType": "address",
          "name": "recipient",
          "type": "address"
        },
        {
          "indexed": false,
          "internalType": "bytes",
          "name": "message",
          "type": "bytes"
        },
        {
          "components": [
            {
              "internalType": "address",
              "name": "recipient",
              "type": "address"
            },
            {
              "internalType": "bytes",
              "name": "message",
              "type": "bytes"
            },
            {
              "internalType": "int64",
              "name": "relayerFeePct",
              "type": "int64"
            },
            {
              "internalType": "bool",
              "name": "isSlowRelay",
              "type": "bool"
            },
            {
              "internalType": "int256",
              "name": "payoutAdjustmentPct",
              "type": "int256"
            }
          ],
          "indexed": false,
          "internalType": "struct SpokePool.RelayExecutionInfo",
          "name": "updatableRelayData",
          "type": "tuple"
        }
      ],
      "name": "FilledRelay",
      "type": "event"
    },
    {
      "anonymous": false,
      "inputs": [
        {
          "indexed": false,
          "internalType": "address",
          "name": "inputToken",
          "type": "address"
        },
        {
          "indexed": false,
          "internalType": "address",
          "name": "outputToken",
          "type": "address"
        },
        {
          "indexed": false,
          "internalType": "uint256",
          "name": "inputAmount",
          "type": "uint256"
        },
        {
          "indexed": false,
          "internalType": "uint256",
          "name": "outputAmount",
          "type": "uint256"
        },
        {
          "indexed": false,
          "internalType": "uint256",
          "name": "repaymentChainId",
          "type": "uint256"
        },
        {
          "indexed": true,
          "internalType": "uint256",
          "name": "originChainId",
          "type": "uint256"
        },
        {
          "indexed": true,
          "internalType": "uint32",
          "name": "depositId",
          "type": "uint32"
        },
        {
          "indexed": false,
          "internalType": "uint32",
          "name": "fillDeadline",
          "type": "uint32"
        },
        {
          "indexed": false,
          "internalType": "uint32",
          "name": "exclusivityDeadline",
          "type": "uint32"
        },
        {
          "indexed": false,
          "internalType": "address",
          "name": "exclusiveRelayer",
          "type": "address"
        },
        {
          "indexed": true,
          "internalType": "address",
          "name": "relayer",
          "type": "address"
        },
        {
          "indexed": false,
          "internalType": "address",
          "name": "depositor",
          "type": "address"
        },
        {
          "indexed": false,
          "internalType": "address",
          "name": "recipient",
          "type": "address"
        },
        {
          "indexed": false,
          "internalType": "bytes",
          "name": "message",
          "type": "bytes"
        },
        {
          "components": [
            {
              "internalType": "address",
              "name": "updatedRecipient",
              "type": "address"
            },
            {
              "internalType": "bytes",
              "name": "updatedMessage",
              "type": "bytes"
            },
            {
              "internalType": "uint256",
              "name": "updatedOutputAmount",
              "type": "uint256"
            },
            {
              "internalType": "enum USSSpokePoolInterface.FillType",
              "name": "fillType",
              "type": "uint8"
            }
          ],
          "indexed": false,
          "internalType": "struct USSSpokePoolInterface.USSRelayExecutionEventInfo",
          "name": "relayExecutionInfo",
          "type": "tuple"
        }
      ],
      "name": "FilledUSSRelay",
      "type": "event"
    },
    {
      "anonymous": false,
      "inputs": [
        {
          "indexed": false,
          "internalType": "uint8",
          "name": "version",
          "type": "uint8"
        }
      ],
      "name": "Initialized",
      "type": "event"
    },
    {
      "anonymous": false,
      "inputs": [
        {
          "indexed": false,
          "internalType": "bool",
          "name": "isPaused",
          "type": "bool"
        }
      ],
      "name": "PausedDeposits",
      "type": "event"
    },
    {
      "anonymous": false,
      "inputs": [
        {
          "indexed": false,
          "internalType": "bool",
          "name": "isPaused",
          "type": "bool"
        }
      ],
      "name": "PausedFills",
      "type": "event"
    },
    {
      "anonymous": false,
      "inputs": [
        {
          "indexed": true,
          "internalType": "address",
          "name": "relayer",
          "type": "address"
        },
        {
          "indexed": false,
          "internalType": "address",
          "name": "refundToken",
          "type": "address"
        },
        {
          "indexed": false,
          "internalType": "uint256",
          "name": "amount",
          "type": "uint256"
        },
        {
          "indexed": true,
          "internalType": "uint256",
          "name": "originChainId",
          "type": "uint256"
        },
        {
          "indexed": false,
          "internalType": "uint256",
          "name": "destinationChainId",
          "type": "uint256"
        },
        {
          "indexed": false,
          "internalType": "int64",
          "name": "realizedLpFeePct",
          "type": "int64"
        },
        {
          "indexed": true,
          "internalType": "uint32",
          "name": "depositId",
          "type": "uint32"
        },
        {
          "indexed": false,
          "internalType": "uint256",
          "name": "fillBlock",
          "type": "uint256"
        },
        {
          "indexed": false,
          "internalType": "uint256",
          "name": "previousIdenticalRequests",
          "type": "uint256"
        }
      ],
      "name": "RefundRequested",
      "type": "event"
    },
    {
      "anonymous": false,
      "inputs": [
        {
          "indexed": true,
          "internalType": "uint32",
          "name": "rootBundleId",
          "type": "uint32"
        },
        {
          "indexed": true,
          "internalType": "bytes32",
          "name": "relayerRefundRoot",
          "type": "bytes32"
        },
        {
          "indexed": true,
          "internalType": "bytes32",
          "name": "slowRelayRoot",
          "type": "bytes32"
        }
      ],
      "name": "RelayedRootBundle",
      "type": "event"
    },
    {
      "anonymous": false,
      "inputs": [
        {
          "indexed": false,
          "internalType": "int64",
          "name": "newRelayerFeePct",
          "type": "int64"
        },
        {
          "indexed": true,
          "internalType": "uint32",
          "name": "depositId",
          "type": "uint32"
        },
        {
          "indexed": true,
          "internalType": "address",
          "name": "depositor",
          "type": "address"
        },
        {
          "indexed": false,
          "internalType": "address",
          "name": "updatedRecipient",
          "type": "address"
        },
        {
          "indexed": false,
          "internalType": "bytes",
          "name": "updatedMessage",
          "type": "bytes"
        },
        {
          "indexed": false,
          "internalType": "bytes",
          "name": "depositorSignature",
          "type": "bytes"
        }
      ],
      "name": "RequestedSpeedUpDeposit",
      "type": "event"
    },
    {
      "anonymous": false,
      "inputs": [
        {
          "indexed": false,
          "internalType": "address",
          "name": "inputToken",
          "type": "address"
        },
        {
          "indexed": false,
          "internalType": "address",
          "name": "outputToken",
          "type": "address"
        },
        {
          "indexed": false,
          "internalType": "uint256",
          "name": "inputAmount",
          "type": "uint256"
        },
        {
          "indexed": false,
          "internalType": "uint256",
          "name": "outputAmount",
          "type": "uint256"
        },
        {
          "indexed": true,
          "internalType": "uint256",
          "name": "originChainId",
          "type": "uint256"
        },
        {
          "indexed": true,
          "internalType": "uint32",
          "name": "depositId",
          "type": "uint32"
        },
        {
          "indexed": false,
          "internalType": "uint32",
          "name": "fillDeadline",
          "type": "uint32"
        },
        {
          "indexed": false,
          "internalType": "uint32",
          "name": "exclusivityDeadline",
          "type": "uint32"
        },
        {
          "indexed": false,
          "internalType": "address",
          "name": "exclusiveRelayer",
          "type": "address"
        },
        {
          "indexed": false,
          "internalType": "address",
          "name": "depositor",
          "type": "address"
        },
        {
          "indexed": false,
          "internalType": "address",
          "name": "recipient",
          "type": "address"
        },
        {
          "indexed": false,
          "internalType": "bytes",
          "name": "message",
          "type": "bytes"
        }
      ],
      "name": "RequestedUSSSlowFill",
      "type": "event"
    },
    {
      "anonymous": false,
      "inputs": [
        {
          "indexed": true,
          "internalType": "address",
          "name": "token",
          "type": "address"
        },
        {
          "indexed": true,
          "internalType": "address",
          "name": "receiver",
          "type": "address"
        },
        {
          "indexed": false,
          "internalType": "uint256",
          "name": "amount",
          "type": "uint256"
        }
      ],
      "name": "ScrollTokensBridged",
      "type": "event"
    },
    {
      "anonymous": false,
      "inputs": [
        {
          "indexed": true,
          "internalType": "address",
          "name": "newHubPool",
          "type": "address"
        }
      ],
      "name": "SetHubPool",
      "type": "event"
    },
    {
      "anonymous": false,
      "inputs": [
        {
          "indexed": true,
          "internalType": "address",
          "name": "newAdmin",
          "type": "address"
        }
      ],
      "name": "SetXDomainAdmin",
      "type": "event"
    },
    {
      "anonymous": false,
      "inputs": [
        {
          "indexed": false,
          "internalType": "uint256",
          "name": "amountToReturn",
          "type": "uint256"
        },
        {
          "indexed": true,
          "internalType": "uint256",
          "name": "chainId",
          "type": "uint256"
        },
        {
          "indexed": true,
          "internalType": "uint32",
          "name": "leafId",
          "type": "uint32"
        },
        {
          "indexed": true,
          "internalType": "address",
          "name": "l2TokenAddress",
          "type": "address"
        }
      ],
      "name": "TokensBridged",
      "type": "event"
    },
    {
      "anonymous": false,
      "inputs": [
        {
          "indexed": false,
          "internalType": "address",
          "name": "inputToken",
          "type": "address"
        },
        {
          "indexed": false,
          "internalType": "address",
          "name": "outputToken",
          "type": "address"
        },
        {
          "indexed": false,
          "internalType": "uint256",
          "name": "inputAmount",
          "type": "uint256"
        },
        {
          "indexed": false,
          "internalType": "uint256",
          "name": "outputAmount",
          "type": "uint256"
        },
        {
          "indexed": true,
          "internalType": "uint256",
          "name": "destinationChainId",
          "type": "uint256"
        },
        {
          "indexed": true,
          "internalType": "uint32",
          "name": "depositId",
          "type": "uint32"
        },
        {
          "indexed": false,
          "internalType": "uint32",
          "name": "quoteTimestamp",
          "type": "uint32"
        },
        {
          "indexed": false,
          "internalType": "uint32",
          "name": "fillDeadline",
          "type": "uint32"
        },
        {
          "indexed": false,
          "internalType": "uint32",
          "name": "exclusivityDeadline",
          "type": "uint32"
        },
        {
          "indexed": true,
          "internalType": "address",
          "name": "depositor",
          "type": "address"
        },
        {
          "indexed": false,
          "internalType": "address",
          "name": "recipient",
          "type": "address"
        },
        {
          "indexed": false,
          "internalType": "address",
          "name": "relayer",
          "type": "address"
        },
        {
          "indexed": false,
          "internalType": "bytes",
          "name": "message",
          "type": "bytes"
        }
      ],
      "name": "USSFundsDeposited",
      "type": "event"
    },
    {
      "anonymous": false,
      "inputs": [
        {
          "indexed": true,
          "internalType": "address",
          "name": "implementation",
          "type": "address"
        }
      ],
      "name": "Upgraded",
      "type": "event"
    },
    {
      "inputs": [],
      "name": "MAX_TRANSFER_SIZE",
      "outputs": [
        {
          "internalType": "uint256",
          "name": "",
          "type": "uint256"
        }
      ],
      "stateMutability": "view",
      "type": "function"
    },
    {
      "inputs": [],
      "name": "SLOW_FILL_MAX_TOKENS_TO_SEND",
      "outputs": [
        {
          "internalType": "uint256",
          "name": "",
          "type": "uint256"
        }
      ],
      "stateMutability": "view",
      "type": "function"
    },
    {
      "inputs": [],
      "name": "UPDATE_DEPOSIT_DETAILS_HASH",
      "outputs": [
        {
          "internalType": "bytes32",
          "name": "",
          "type": "bytes32"
        }
      ],
      "stateMutability": "view",
      "type": "function"
    },
    {
      "inputs": [
        {
          "internalType": "uint32",
          "name": "_initialDepositId",
          "type": "uint32"
        },
        {
          "internalType": "address",
          "name": "_crossDomainAdmin",
          "type": "address"
        },
        {
          "internalType": "address",
          "name": "_hubPool",
          "type": "address"
        }
      ],
      "name": "__SpokePool_init",
      "outputs": [],
      "stateMutability": "nonpayable",
      "type": "function"
    },
    {
      "inputs": [],
      "name": "chainId",
      "outputs": [
        {
          "internalType": "uint256",
          "name": "",
          "type": "uint256"
        }
      ],
      "stateMutability": "view",
      "type": "function"
    },
    {
      "inputs": [],
      "name": "crossDomainAdmin",
      "outputs": [
        {
          "internalType": "address",
          "name": "",
          "type": "address"
        }
      ],
      "stateMutability": "view",
      "type": "function"
    },
    {
      "inputs": [
        {
          "internalType": "address",
          "name": "recipient",
          "type": "address"
        },
        {
          "internalType": "address",
          "name": "originToken",
          "type": "address"
        },
        {
          "internalType": "uint256",
          "name": "amount",
          "type": "uint256"
        },
        {
          "internalType": "uint256",
          "name": "destinationChainId",
          "type": "uint256"
        },
        {
          "internalType": "int64",
          "name": "relayerFeePct",
          "type": "int64"
        },
        {
          "internalType": "uint32",
          "name": "quoteTimestamp",
          "type": "uint32"
        },
        {
          "internalType": "bytes",
          "name": "message",
          "type": "bytes"
        },
        {
          "internalType": "uint256",
          "name": "maxCount",
          "type": "uint256"
        }
      ],
      "name": "deposit",
      "outputs": [],
      "stateMutability": "payable",
      "type": "function"
    },
    {
      "inputs": [
        {
          "internalType": "address",
          "name": "",
          "type": "address"
        }
      ],
      "name": "depositCounter",
      "outputs": [
        {
          "internalType": "uint256",
          "name": "",
          "type": "uint256"
        }
      ],
      "stateMutability": "view",
      "type": "function"
    },
    {
      "inputs": [
        {
          "internalType": "address",
          "name": "depositor",
          "type": "address"
        },
        {
          "internalType": "address",
          "name": "recipient",
          "type": "address"
        },
        {
          "internalType": "address",
          "name": "originToken",
          "type": "address"
        },
        {
          "internalType": "uint256",
          "name": "amount",
          "type": "uint256"
        },
        {
          "internalType": "uint256",
          "name": "destinationChainId",
          "type": "uint256"
        },
        {
          "internalType": "int64",
          "name": "relayerFeePct",
          "type": "int64"
        },
        {
          "internalType": "uint32",
          "name": "quoteTimestamp",
          "type": "uint32"
        },
        {
          "internalType": "bytes",
          "name": "message",
          "type": "bytes"
        },
        {
          "internalType": "uint256",
          "name": "maxCount",
          "type": "uint256"
        }
      ],
      "name": "depositFor",
      "outputs": [],
      "stateMutability": "payable",
      "type": "function"
    },
    {
      "inputs": [
        {
          "internalType": "address",
          "name": "depositor",
          "type": "address"
        },
        {
          "internalType": "address",
          "name": "recipient",
          "type": "address"
        },
        {
          "internalType": "address",
          "name": "originToken",
          "type": "address"
        },
        {
          "internalType": "uint256",
          "name": "amount",
          "type": "uint256"
        },
        {
          "internalType": "uint256",
          "name": "destinationChainId",
          "type": "uint256"
        },
        {
          "internalType": "int64",
          "name": "relayerFeePct",
          "type": "int64"
        },
        {
          "internalType": "bytes",
          "name": "message",
          "type": "bytes"
        },
        {
          "internalType": "uint256",
          "name": "maxCount",
          "type": "uint256"
        }
      ],
      "name": "depositForNow",
      "outputs": [],
      "stateMutability": "payable",
      "type": "function"
    },
    {
      "inputs": [
        {
          "internalType": "address",
          "name": "recipient",
          "type": "address"
        },
        {
          "internalType": "address",
          "name": "originToken",
          "type": "address"
        },
        {
          "internalType": "uint256",
          "name": "amount",
          "type": "uint256"
        },
        {
          "internalType": "uint256",
          "name": "destinationChainId",
          "type": "uint256"
        },
        {
          "internalType": "int64",
          "name": "relayerFeePct",
          "type": "int64"
        },
        {
          "internalType": "bytes",
          "name": "message",
          "type": "bytes"
        },
        {
          "internalType": "uint256",
          "name": "maxCount",
          "type": "uint256"
        }
      ],
      "name": "depositNow",
      "outputs": [],
      "stateMutability": "payable",
      "type": "function"
    },
    {
      "inputs": [],
      "name": "depositQuoteTimeBuffer",
      "outputs": [
        {
          "internalType": "uint32",
          "name": "",
          "type": "uint32"
        }
      ],
      "stateMutability": "view",
      "type": "function"
    },
    {
      "inputs": [
        {
          "internalType": "address",
          "name": "depositor",
          "type": "address"
        },
        {
          "internalType": "address",
          "name": "recipient",
          "type": "address"
        },
        {
          "internalType": "address",
          "name": "inputToken",
          "type": "address"
        },
        {
          "internalType": "address",
          "name": "outputToken",
          "type": "address"
        },
        {
          "internalType": "uint256",
          "name": "inputAmount",
          "type": "uint256"
        },
        {
          "internalType": "uint256",
          "name": "outputAmount",
          "type": "uint256"
        },
        {
          "internalType": "uint256",
          "name": "destinationChainId",
          "type": "uint256"
        },
        {
          "internalType": "address",
          "name": "exclusiveRelayer",
          "type": "address"
        },
        {
          "internalType": "uint32",
          "name": "quoteTimestamp",
          "type": "uint32"
        },
        {
          "internalType": "uint32",
          "name": "fillDeadline",
          "type": "uint32"
        },
        {
          "internalType": "uint32",
          "name": "exclusivityDeadline",
          "type": "uint32"
        },
        {
          "internalType": "bytes",
          "name": "message",
          "type": "bytes"
        }
      ],
      "name": "depositUSS",
      "outputs": [],
      "stateMutability": "payable",
      "type": "function"
    },
    {
      "inputs": [
        {
          "internalType": "uint256",
          "name": "rootBundleId",
          "type": "uint256"
        }
      ],
      "name": "emergencyDeleteRootBundle",
      "outputs": [],
      "stateMutability": "nonpayable",
      "type": "function"
    },
    {
      "inputs": [
        {
          "internalType": "address",
          "name": "",
          "type": "address"
        },
        {
          "internalType": "uint256",
          "name": "",
          "type": "uint256"
        }
      ],
      "name": "enabledDepositRoutes",
      "outputs": [
        {
          "internalType": "bool",
          "name": "",
          "type": "bool"
        }
      ],
      "stateMutability": "view",
      "type": "function"
    },
    {
      "inputs": [
        {
          "internalType": "uint32",
          "name": "rootBundleId",
          "type": "uint32"
        },
        {
          "components": [
            {
              "internalType": "uint256",
              "name": "amountToReturn",
              "type": "uint256"
            },
            {
              "internalType": "uint256",
              "name": "chainId",
              "type": "uint256"
            },
            {
              "internalType": "uint256[]",
              "name": "refundAmounts",
              "type": "uint256[]"
            },
            {
              "internalType": "uint32",
              "name": "leafId",
              "type": "uint32"
            },
            {
              "internalType": "address",
              "name": "l2TokenAddress",
              "type": "address"
            },
            {
              "internalType": "address[]",
              "name": "refundAddresses",
              "type": "address[]"
            }
          ],
          "internalType": "struct SpokePoolInterface.RelayerRefundLeaf",
          "name": "relayerRefundLeaf",
          "type": "tuple"
        },
        {
          "internalType": "bytes32[]",
          "name": "proof",
          "type": "bytes32[]"
        }
      ],
      "name": "executeRelayerRefundLeaf",
      "outputs": [],
      "stateMutability": "nonpayable",
      "type": "function"
    },
    {
      "inputs": [
        {
          "internalType": "address",
          "name": "depositor",
          "type": "address"
        },
        {
          "internalType": "address",
          "name": "recipient",
          "type": "address"
        },
        {
          "internalType": "address",
          "name": "destinationToken",
          "type": "address"
        },
        {
          "internalType": "uint256",
          "name": "amount",
          "type": "uint256"
        },
        {
          "internalType": "uint256",
          "name": "originChainId",
          "type": "uint256"
        },
        {
          "internalType": "int64",
          "name": "realizedLpFeePct",
          "type": "int64"
        },
        {
          "internalType": "int64",
          "name": "relayerFeePct",
          "type": "int64"
        },
        {
          "internalType": "uint32",
          "name": "depositId",
          "type": "uint32"
        },
        {
          "internalType": "uint32",
          "name": "rootBundleId",
          "type": "uint32"
        },
        {
          "internalType": "bytes",
          "name": "message",
          "type": "bytes"
        },
        {
          "internalType": "int256",
          "name": "payoutAdjustment",
          "type": "int256"
        },
        {
          "internalType": "bytes32[]",
          "name": "proof",
          "type": "bytes32[]"
        }
      ],
      "name": "executeSlowRelayLeaf",
      "outputs": [],
      "stateMutability": "nonpayable",
      "type": "function"
    },
    {
      "inputs": [
        {
          "internalType": "uint32",
          "name": "rootBundleId",
          "type": "uint32"
        },
        {
          "components": [
            {
              "internalType": "uint256",
              "name": "amountToReturn",
              "type": "uint256"
            },
            {
              "internalType": "uint256",
              "name": "chainId",
              "type": "uint256"
            },
            {
              "internalType": "uint256[]",
              "name": "refundAmounts",
              "type": "uint256[]"
            },
            {
              "internalType": "uint32",
              "name": "leafId",
              "type": "uint32"
            },
            {
              "internalType": "address",
              "name": "l2TokenAddress",
              "type": "address"
            },
            {
              "internalType": "address[]",
              "name": "refundAddresses",
              "type": "address[]"
            },
            {
              "internalType": "bytes32",
              "name": "fillsRefundedRoot",
              "type": "bytes32"
            },
            {
              "internalType": "string",
              "name": "fillsRefundedHash",
              "type": "string"
            }
          ],
          "internalType": "struct USSSpokePoolInterface.USSRelayerRefundLeaf",
          "name": "relayerRefundLeaf",
          "type": "tuple"
        },
        {
          "internalType": "bytes32[]",
          "name": "proof",
          "type": "bytes32[]"
        }
      ],
      "name": "executeUSSRelayerRefundLeaf",
      "outputs": [],
      "stateMutability": "nonpayable",
      "type": "function"
    },
    {
      "inputs": [
        {
          "components": [
            {
              "components": [
                {
                  "internalType": "address",
                  "name": "depositor",
                  "type": "address"
                },
                {
                  "internalType": "address",
                  "name": "recipient",
                  "type": "address"
                },
                {
                  "internalType": "address",
                  "name": "exclusiveRelayer",
                  "type": "address"
                },
                {
                  "internalType": "address",
                  "name": "inputToken",
                  "type": "address"
                },
                {
                  "internalType": "address",
                  "name": "outputToken",
                  "type": "address"
                },
                {
                  "internalType": "uint256",
                  "name": "inputAmount",
                  "type": "uint256"
                },
                {
                  "internalType": "uint256",
                  "name": "outputAmount",
                  "type": "uint256"
                },
                {
                  "internalType": "uint256",
                  "name": "originChainId",
                  "type": "uint256"
                },
                {
                  "internalType": "uint256",
                  "name": "destinationChainId",
                  "type": "uint256"
                },
                {
                  "internalType": "uint32",
                  "name": "depositId",
                  "type": "uint32"
                },
                {
                  "internalType": "uint32",
                  "name": "fillDeadline",
                  "type": "uint32"
                },
                {
                  "internalType": "uint32",
                  "name": "exclusivityDeadline",
                  "type": "uint32"
                },
                {
                  "internalType": "bytes",
                  "name": "message",
                  "type": "bytes"
                }
              ],
              "internalType": "struct USSSpokePoolInterface.USSRelayData",
              "name": "relayData",
              "type": "tuple"
            },
            {
              "internalType": "uint256",
              "name": "updatedOutputAmount",
              "type": "uint256"
            }
          ],
          "internalType": "struct USSSpokePoolInterface.USSSlowFill",
          "name": "slowFillLeaf",
          "type": "tuple"
        },
        {
          "internalType": "uint32",
          "name": "rootBundleId",
          "type": "uint32"
        },
        {
          "internalType": "bytes32[]",
          "name": "proof",
          "type": "bytes32[]"
        }
      ],
      "name": "executeUSSSlowRelayLeaf",
      "outputs": [],
      "stateMutability": "nonpayable",
      "type": "function"
    },
    {
      "inputs": [
        {
          "internalType": "address",
          "name": "",
          "type": "address"
        }
      ],
      "name": "fillCounter",
      "outputs": [
        {
          "internalType": "uint256",
          "name": "",
          "type": "uint256"
        }
      ],
      "stateMutability": "view",
      "type": "function"
    },
    {
      "inputs": [],
      "name": "fillDeadlineBuffer",
      "outputs": [
        {
          "internalType": "uint32",
          "name": "",
          "type": "uint32"
        }
      ],
      "stateMutability": "view",
      "type": "function"
    },
    {
      "inputs": [
        {
          "internalType": "address",
          "name": "depositor",
          "type": "address"
        },
        {
          "internalType": "address",
          "name": "recipient",
          "type": "address"
        },
        {
          "internalType": "address",
          "name": "destinationToken",
          "type": "address"
        },
        {
          "internalType": "uint256",
          "name": "amount",
          "type": "uint256"
        },
        {
          "internalType": "uint256",
          "name": "maxTokensToSend",
          "type": "uint256"
        },
        {
          "internalType": "uint256",
          "name": "repaymentChainId",
          "type": "uint256"
        },
        {
          "internalType": "uint256",
          "name": "originChainId",
          "type": "uint256"
        },
        {
          "internalType": "int64",
          "name": "realizedLpFeePct",
          "type": "int64"
        },
        {
          "internalType": "int64",
          "name": "relayerFeePct",
          "type": "int64"
        },
        {
          "internalType": "uint32",
          "name": "depositId",
          "type": "uint32"
        },
        {
          "internalType": "bytes",
          "name": "message",
          "type": "bytes"
        },
        {
          "internalType": "uint256",
          "name": "maxCount",
          "type": "uint256"
        }
      ],
      "name": "fillRelay",
      "outputs": [],
      "stateMutability": "nonpayable",
      "type": "function"
    },
    {
      "inputs": [
        {
          "internalType": "address",
          "name": "depositor",
          "type": "address"
        },
        {
          "internalType": "address",
          "name": "recipient",
          "type": "address"
        },
        {
          "internalType": "address",
          "name": "updatedRecipient",
          "type": "address"
        },
        {
          "internalType": "address",
          "name": "destinationToken",
          "type": "address"
        },
        {
          "internalType": "uint256",
          "name": "amount",
          "type": "uint256"
        },
        {
          "internalType": "uint256",
          "name": "maxTokensToSend",
          "type": "uint256"
        },
        {
          "internalType": "uint256",
          "name": "repaymentChainId",
          "type": "uint256"
        },
        {
          "internalType": "uint256",
          "name": "originChainId",
          "type": "uint256"
        },
        {
          "internalType": "int64",
          "name": "realizedLpFeePct",
          "type": "int64"
        },
        {
          "internalType": "int64",
          "name": "relayerFeePct",
          "type": "int64"
        },
        {
          "internalType": "int64",
          "name": "updatedRelayerFeePct",
          "type": "int64"
        },
        {
          "internalType": "uint32",
          "name": "depositId",
          "type": "uint32"
        },
        {
          "internalType": "bytes",
          "name": "message",
          "type": "bytes"
        },
        {
          "internalType": "bytes",
          "name": "updatedMessage",
          "type": "bytes"
        },
        {
          "internalType": "bytes",
          "name": "depositorSignature",
          "type": "bytes"
        },
        {
          "internalType": "uint256",
          "name": "maxCount",
          "type": "uint256"
        }
      ],
      "name": "fillRelayWithUpdatedDeposit",
      "outputs": [],
      "stateMutability": "nonpayable",
      "type": "function"
    },
    {
      "inputs": [
        {
          "internalType": "bytes32",
          "name": "",
          "type": "bytes32"
        }
      ],
      "name": "fillStatuses",
      "outputs": [
        {
          "internalType": "uint256",
          "name": "",
          "type": "uint256"
        }
      ],
      "stateMutability": "view",
      "type": "function"
    },
    {
      "inputs": [
        {
          "components": [
            {
              "internalType": "address",
              "name": "depositor",
              "type": "address"
            },
            {
              "internalType": "address",
              "name": "recipient",
              "type": "address"
            },
            {
              "internalType": "address",
              "name": "exclusiveRelayer",
              "type": "address"
            },
            {
              "internalType": "address",
              "name": "inputToken",
              "type": "address"
            },
            {
              "internalType": "address",
              "name": "outputToken",
              "type": "address"
            },
            {
              "internalType": "uint256",
              "name": "inputAmount",
              "type": "uint256"
            },
            {
              "internalType": "uint256",
              "name": "outputAmount",
              "type": "uint256"
            },
            {
              "internalType": "uint256",
              "name": "originChainId",
              "type": "uint256"
            },
            {
              "internalType": "uint256",
              "name": "destinationChainId",
              "type": "uint256"
            },
            {
              "internalType": "uint32",
              "name": "depositId",
              "type": "uint32"
            },
            {
              "internalType": "uint32",
              "name": "fillDeadline",
              "type": "uint32"
            },
            {
              "internalType": "uint32",
              "name": "exclusivityDeadline",
              "type": "uint32"
            },
            {
              "internalType": "bytes",
              "name": "message",
              "type": "bytes"
            }
          ],
          "internalType": "struct USSSpokePoolInterface.USSRelayData",
          "name": "relayData",
          "type": "tuple"
        },
        {
          "internalType": "uint256",
          "name": "repaymentChainId",
          "type": "uint256"
        }
      ],
      "name": "fillUSSRelay",
      "outputs": [],
      "stateMutability": "nonpayable",
      "type": "function"
    },
    {
      "inputs": [],
      "name": "getCurrentTime",
      "outputs": [
        {
          "internalType": "uint256",
          "name": "",
          "type": "uint256"
        }
      ],
      "stateMutability": "view",
      "type": "function"
    },
    {
      "inputs": [],
      "name": "hubPool",
      "outputs": [
        {
          "internalType": "address",
          "name": "",
          "type": "address"
        }
      ],
      "stateMutability": "view",
      "type": "function"
    },
    {
      "inputs": [
        {
          "internalType": "contract IL2GatewayRouter",
          "name": "_l2GatewayRouter",
          "type": "address"
        },
        {
          "internalType": "contract IScrollMessenger",
          "name": "_l2ScrollMessenger",
          "type": "address"
        },
        {
          "internalType": "uint32",
          "name": "_initialDepositId",
          "type": "uint32"
        },
        {
          "internalType": "address",
          "name": "_crossDomainAdmin",
          "type": "address"
        },
        {
          "internalType": "address",
          "name": "_hubPool",
          "type": "address"
        }
      ],
      "name": "initialize",
      "outputs": [],
      "stateMutability": "nonpayable",
      "type": "function"
    },
    {
      "inputs": [],
      "name": "l2GatewayRouter",
      "outputs": [
        {
          "internalType": "contract IL2GatewayRouter",
          "name": "",
          "type": "address"
        }
      ],
      "stateMutability": "view",
      "type": "function"
    },
    {
      "inputs": [],
      "name": "l2ScrollMessenger",
      "outputs": [
        {
          "internalType": "contract IScrollMessenger",
          "name": "",
          "type": "address"
        }
      ],
      "stateMutability": "view",
      "type": "function"
    },
    {
      "inputs": [
        {
          "internalType": "bytes[]",
          "name": "data",
          "type": "bytes[]"
        }
      ],
      "name": "multicall",
      "outputs": [
        {
          "internalType": "bytes[]",
          "name": "results",
          "type": "bytes[]"
        }
      ],
      "stateMutability": "nonpayable",
      "type": "function"
    },
    {
      "inputs": [],
      "name": "numberOfDeposits",
      "outputs": [
        {
          "internalType": "uint32",
          "name": "",
          "type": "uint32"
        }
      ],
      "stateMutability": "view",
      "type": "function"
    },
    {
      "inputs": [
        {
          "internalType": "bool",
          "name": "pause",
          "type": "bool"
        }
      ],
      "name": "pauseDeposits",
      "outputs": [],
      "stateMutability": "nonpayable",
      "type": "function"
    },
    {
      "inputs": [
        {
          "internalType": "bool",
          "name": "pause",
          "type": "bool"
        }
      ],
      "name": "pauseFills",
      "outputs": [],
      "stateMutability": "nonpayable",
      "type": "function"
    },
    {
      "inputs": [],
      "name": "pausedDeposits",
      "outputs": [
        {
          "internalType": "bool",
          "name": "",
          "type": "bool"
        }
      ],
      "stateMutability": "view",
      "type": "function"
    },
    {
      "inputs": [],
      "name": "pausedFills",
      "outputs": [
        {
          "internalType": "bool",
          "name": "",
          "type": "bool"
        }
      ],
      "stateMutability": "view",
      "type": "function"
    },
    {
      "inputs": [],
      "name": "proxiableUUID",
      "outputs": [
        {
          "internalType": "bytes32",
          "name": "",
          "type": "bytes32"
        }
      ],
      "stateMutability": "view",
      "type": "function"
    },
    {
      "inputs": [
        {
          "internalType": "bytes32",
          "name": "",
          "type": "bytes32"
        }
      ],
      "name": "refundsRequested",
      "outputs": [
        {
          "internalType": "uint256",
          "name": "",
          "type": "uint256"
        }
      ],
      "stateMutability": "view",
      "type": "function"
    },
    {
      "inputs": [
        {
          "internalType": "bytes32",
          "name": "relayerRefundRoot",
          "type": "bytes32"
        },
        {
          "internalType": "bytes32",
          "name": "slowRelayRoot",
          "type": "bytes32"
        }
      ],
      "name": "relayRootBundle",
      "outputs": [],
      "stateMutability": "nonpayable",
      "type": "function"
    },
    {
      "inputs": [
        {
          "internalType": "address",
          "name": "refundToken",
          "type": "address"
        },
        {
          "internalType": "uint256",
          "name": "amount",
          "type": "uint256"
        },
        {
          "internalType": "uint256",
          "name": "originChainId",
          "type": "uint256"
        },
        {
          "internalType": "uint256",
          "name": "destinationChainId",
          "type": "uint256"
        },
        {
          "internalType": "int64",
          "name": "realizedLpFeePct",
          "type": "int64"
        },
        {
          "internalType": "uint32",
          "name": "depositId",
          "type": "uint32"
        },
        {
          "internalType": "uint256",
          "name": "fillBlock",
          "type": "uint256"
        },
        {
          "internalType": "uint256",
          "name": "maxCount",
          "type": "uint256"
        }
      ],
      "name": "requestRefund",
      "outputs": [],
      "stateMutability": "nonpayable",
      "type": "function"
    },
    {
      "inputs": [
        {
          "components": [
            {
              "internalType": "address",
              "name": "depositor",
              "type": "address"
            },
            {
              "internalType": "address",
              "name": "recipient",
              "type": "address"
            },
            {
              "internalType": "address",
              "name": "exclusiveRelayer",
              "type": "address"
            },
            {
              "internalType": "address",
              "name": "inputToken",
              "type": "address"
            },
            {
              "internalType": "address",
              "name": "outputToken",
              "type": "address"
            },
            {
              "internalType": "uint256",
              "name": "inputAmount",
              "type": "uint256"
            },
            {
              "internalType": "uint256",
              "name": "outputAmount",
              "type": "uint256"
            },
            {
              "internalType": "uint256",
              "name": "originChainId",
              "type": "uint256"
            },
            {
              "internalType": "uint256",
              "name": "destinationChainId",
              "type": "uint256"
            },
            {
              "internalType": "uint32",
              "name": "depositId",
              "type": "uint32"
            },
            {
              "internalType": "uint32",
              "name": "fillDeadline",
              "type": "uint32"
            },
            {
              "internalType": "uint32",
              "name": "exclusivityDeadline",
              "type": "uint32"
            },
            {
              "internalType": "bytes",
              "name": "message",
              "type": "bytes"
            }
          ],
          "internalType": "struct USSSpokePoolInterface.USSRelayData",
          "name": "relayData",
          "type": "tuple"
        }
      ],
      "name": "requestUSSSlowFill",
      "outputs": [],
      "stateMutability": "nonpayable",
      "type": "function"
    },
    {
      "inputs": [
        {
          "internalType": "uint256",
          "name": "",
          "type": "uint256"
        }
      ],
      "name": "rootBundles",
      "outputs": [
        {
          "internalType": "bytes32",
          "name": "slowRelayRoot",
          "type": "bytes32"
        },
        {
          "internalType": "bytes32",
          "name": "relayerRefundRoot",
          "type": "bytes32"
        }
      ],
      "stateMutability": "view",
      "type": "function"
    },
    {
      "inputs": [
        {
          "internalType": "address",
          "name": "newCrossDomainAdmin",
          "type": "address"
        }
      ],
      "name": "setCrossDomainAdmin",
      "outputs": [],
      "stateMutability": "nonpayable",
      "type": "function"
    },
    {
      "inputs": [
        {
          "internalType": "address",
          "name": "originToken",
          "type": "address"
        },
        {
          "internalType": "uint256",
          "name": "destinationChainId",
          "type": "uint256"
        },
        {
          "internalType": "bool",
          "name": "enabled",
          "type": "bool"
        }
      ],
      "name": "setEnableRoute",
      "outputs": [],
      "stateMutability": "nonpayable",
      "type": "function"
    },
    {
      "inputs": [
        {
          "internalType": "address",
          "name": "newHubPool",
          "type": "address"
        }
      ],
      "name": "setHubPool",
      "outputs": [],
      "stateMutability": "nonpayable",
      "type": "function"
    },
    {
      "inputs": [
        {
          "internalType": "address",
          "name": "depositor",
          "type": "address"
        },
        {
          "internalType": "int64",
          "name": "updatedRelayerFeePct",
          "type": "int64"
        },
        {
          "internalType": "uint32",
          "name": "depositId",
          "type": "uint32"
        },
        {
          "internalType": "address",
          "name": "updatedRecipient",
          "type": "address"
        },
        {
          "internalType": "bytes",
          "name": "updatedMessage",
          "type": "bytes"
        },
        {
          "internalType": "bytes",
          "name": "depositorSignature",
          "type": "bytes"
        }
      ],
      "name": "speedUpDeposit",
      "outputs": [],
      "stateMutability": "nonpayable",
      "type": "function"
    },
    {
      "inputs": [
        {
          "internalType": "address",
          "name": "newImplementation",
          "type": "address"
        }
      ],
      "name": "upgradeTo",
      "outputs": [],
      "stateMutability": "nonpayable",
      "type": "function"
    },
    {
      "inputs": [
        {
          "internalType": "address",
          "name": "newImplementation",
          "type": "address"
        },
        {
          "internalType": "bytes",
          "name": "data",
          "type": "bytes"
        }
      ],
      "name": "upgradeToAndCall",
      "outputs": [],
      "stateMutability": "payable",
      "type": "function"
    },
    {
      "inputs": [],
      "name": "wrappedNativeToken",
      "outputs": [
        {
          "internalType": "contract WETH9Interface",
          "name": "",
          "type": "address"
        }
      ],
      "stateMutability": "view",
      "type": "function"
    },
    {
      "stateMutability": "payable",
      "type": "receive"
    }
  ],
  "numDeployments": 16,
  "solcInputHash": "33385e4e3da34090eb05262cf34db17f",
  "bytecode": "0x61010034620001b557601f6200586e38819003918201601f19168301916001600160401b03831184841017620001b957808492606094604052833981010312620001b55780516001600160a01b0381169190829003620001b5576200007560406200006d60208401620001cd565b9201620001cd565b913060805260a05260c05260e0525f5460ff8160081c16620001605760ff8082160362000125575b60405161568e9081620001e08239608051818181610bcd01528181610edb0152611092015260a0518181816108940152818161282a015281816135960152818161404a0152818161495901528181614bc2015281816150f7015261511e015260c0518181816111fb015281816127c50152613534015260e05181818161035801526127f10152f35b60ff90811916175f557f7f26b83ff96e1f2b6a682f133852f6798a09c465da95921460cefb3847402498602060405160ff8152a15f6200009d565b60405162461bcd60e51b815260206004820152602760248201527f496e697469616c697a61626c653a20636f6e747261637420697320696e697469604482015266616c697a696e6760c81b6064820152608490fd5b5f80fd5b634e487b7160e01b5f52604160045260245ffd5b519063ffffffff82168203620001b55756fe6080604052600436101561001a575b3615610018575f80fd5b005b5f3560e01c8063079bd2c7146103295780630c2097f7146103245780631186ec331461031f57806317fcb39b1461031a5780631b3d5559146103155780631dfb2d021461031057806323cd9a471461030b578063272751c71461030657806329cb924d146103015780633659cfe6146102fc57806344b8be68146102f7578063486424b5146102f2578063493a4f84146102ed5780634f1ef286146102e85780635249fef1146102e35780635285e058146102de57806352d1902d146102d9578063541f4f14146102d457806357f6dcb8146102cf5780635ceaec32146102ca5780636068d6cb146102c5578063738b62e5146102c05780637e688bba146102bb578063872af6ea146102b65780638a7860ce146102b1578063979f2bc2146102ac57806399cc2968146102a75780639a8a0592146102a2578063a1244c671461029d578063a50bd16214610298578063a634893f14610293578063a78e4b601461028e578063ab2b886214610289578063ac9650d814610284578063ae527fbb1461027f578063b5e1bf5f1461027a578063c0a8bdd114610275578063c0e70bbd14610270578063c35c83fc1461026b578063c5b9709c14610266578063c835685914610261578063d37ff4941461025c578063dda5211314610257578063ddd224f114610252578063de7eba781461024d578063e190440214610248578063e97adbd514610243578063ee2a53f81461023e5763fd7c10540361000e576121e9565b6121ab565b611fe5565b611fbc565b611f8c565b611f63565b611f3d565b611e29565b611e00565b611cfb565b611cd0565b611ca7565b611c6b565b611c41565b611bbc565b611b57565b611995565b61196e565b6117d3565b611743565b611632565b611618565b61159a565b6114c7565b61144f565b611413565b611390565b611312565b6112ec565b61121f565b6111df565b611142565b611080565b611057565b610ffd565b610e9a565b610e18565b610d73565b610cde565b610ba6565b610b8c565b610aee565b610ab9565b610a66565b61098d565b61087f565b6107f0565b61074b565b61033c565b5f91031261033857565b5f80fd5b34610338575f36600319011261033857602060405163ffffffff7f0000000000000000000000000000000000000000000000000000000000000000168152f35b6001600160a01b031690565b6001600160a01b0381160361033857565b600435906103a682610388565b565b602435906103a682610388565b604435906103a682610388565b606435906103a682610388565b35906103a682610388565b60a435908160070b820361033857565b60c435908160070b820361033857565b608435908160070b820361033857565b61010435908160070b820361033857565b61012435908160070b820361033857565b61014435908160070b820361033857565b60e4359063ffffffff8216820361033857565b610104359063ffffffff8216820361033857565b60a4359063ffffffff8216820361033857565b6004359063ffffffff8216820361033857565b610124359063ffffffff8216820361033857565b610164359063ffffffff8216820361033857565b6044359063ffffffff8216820361033857565b6024359063ffffffff8216820361033857565b359063ffffffff8216820361033857565b634e487b7160e01b5f52604160045260245ffd5b604081019081106001600160401b0382111761051857604052565b6104e9565b6001600160401b03811161051857604052565b60a081019081106001600160401b0382111761051857604052565b608081019081106001600160401b0382111761051857604052565b602081019081106001600160401b0382111761051857604052565b60e081019081106001600160401b0382111761051857604052565b606081019081106001600160401b0382111761051857604052565b601f909101601f19168101906001600160401b0382119082101761051857604052565b6040519060c082016001600160401b0381118382101761051857604052565b604051906101a082016001600160401b0381118382101761051857604052565b6040519061010082016001600160401b0381118382101761051857604052565b6040519061014082016001600160401b0381118382101761051857604052565b604051906103a682610530565b604051906103a68261054b565b6001600160401b03811161051857601f01601f191660200190565b81601f82011215610338578035906106a582610673565b926106b360405194856105b7565b8284526020838301011161033857815f926020809301838601378301015290565b6001600160401b0381116105185760051b60200190565b9080601f83011215610338576020908235610705816106d4565b9361071360405195866105b7565b81855260208086019260051b82010192831161033857602001905b82821061073c575050505090565b8135815290830190830161072e565b34610338576101803660031901126103385760043561076981610388565b6107716103a8565b9061077a6103b5565b6107826103da565b9261078b6103ea565b61079361043d565b61079b610450565b6001600160401b039690929061012435888111610338576107c090369060040161068e565b9461016435988911610338576107dd6100189936906004016106eb565b976101443597608435926064359261227d565b6101003660031901126103385760043561080981610388565b6024359061081682610388565b61081e6103fa565b91610827610464565b60c435936001600160401b0385116103385761084a61087895369060040161068e565b92610853613335565b61086660ff61086b5460e81c1615612382565b60e435946064359160443591336134b4565b6001606555005b34610338575f366003190112610338576040517f00000000000000000000000000000000000000000000000000000000000000006001600160a01b03168152602090f35b9080601f830112156103385760209082356108dd816106d4565b936108eb60405195866105b7565b81855260208086019260051b82010192831161033857602001905b828210610914575050505090565b81358152908301908301610906565b9080601f8301121561033857602090823561093d816106d4565b9361094b60405195866105b7565b81855260208086019260051b82010192831161033857602001905b828210610974575050505090565b838091833561098281610388565b815201910190610966565b3461033857600319606036820112610338576109a7610477565b6001600160401b0391602435908382116103385760c0908236030112610338576109cf6105da565b9080600401358252602481013560208301526044810135848111610338576109fd90600436918401016108c3565b6040830152610a0e606482016104d8565b6060830152610a1f608482016103cf565b608083015260a481013590848211610338576004610a409236920101610923565b60a082015260443592831161033857610a606100189336906004016106eb565b916123c0565b3461033857602036600319011261033857610878600435610a8681610388565b610a8e613901565b610a96613335565b6139c1565b5f5261086f60205260405f2090565b5f5261086e60205260405f2090565b34610338576020366003190112610338576004355f52610872602052602060405f2054604051908152f35b8015150361033857565b3461033857606036600319011261033857600435610b0b81610388565b602435907f0a21fdd43d0ad0c62689ee7230a47309a050755bcc52eba00310add65297692a602060443592610b3f84610ae4565b610b47613901565b610b4f613335565b60018060a01b031692835f5261086d825260405f20855f52825260405f209015159060ff1981541660ff8316179055604051908152a36001606555005b34610338575f366003190112610338576020604051428152f35b3461033857602036600319011261033857600435610bc381610388565b6001600160a01b037f000000000000000000000000000000000000000000000000000000000000000081169190610bfc30841415612581565b610c185f805160206155d98339815191529382855416146125cf565b610c20613901565b60405190610c2d82610566565b5f82525f805160206155798339815191525460ff1615610c535750506100189150614fff565b6020600491604094939451928380926352d1902d60e01b825286165afa5f9181610cad575b50610c9a5760405162461bcd60e51b815280610c9660048201613ab2565b0390fd5b61001893610ca89114613a54565b614f1a565b610cd091925060203d602011610cd7575b610cc881836105b7565b810190613a45565b905f610c78565b503d610cbe565b346103385761018036600319011261033857600435610cfc81610388565b602435610d0881610388565b604435610d1481610388565b60e4358060070b810361033857610d2961040a565b610d3161048a565b61014435959092906001600160401b03871161033857610d5861001897369060040161068e565b94610164359660c4359260a43592608435926064359261261d565b61018036600319011261033857600435610d8c81610388565b602435610d9881610388565b60443590610da582610388565b60643591610db283610388565b60e435610dbe81610388565b610dc6610450565b90610dcf61048a565b92610144359463ffffffff861686036103385761016435976001600160401b03891161033857610e0661001899369060040161068e565b9760c4359360a435936084359361275b565b3461033857604036600319011261033857602435600435610e37613901565b610e3f613335565b61086c8054600160401b8110156105185763ffffffff9160018201905583610e668261218a565b5084600182015555167fc86ba04c55bc5eb2f2876b91c438849a296dbec7b08751c3074d92e04f0a77af5f80a46001606555005b604036600319011261033857600435610eb281610388565b6024356001600160401b03811161033857610ed190369060040161068e565b6001600160a01b037f00000000000000000000000000000000000000000000000000000000000000008116929190610f0b30851415612581565b610f275f805160206155d98339815191529482865416146125cf565b610f2f613901565b5f805160206155798339815191525460ff1615610f525750506100189150614fff565b6020600491604094939451928380926352d1902d60e01b825286165afa5f9181610fa8575b50610f955760405162461bcd60e51b815280610c9660048201613ab2565b61001893610fa39114613a54565b614fc0565b610fc291925060203d602011610cd757610cc881836105b7565b905f610f77565b6001600160a01b03165f90815261086d6020526040902090565b6001600160a01b03165f9081526108716020526040902090565b346103385760403660031901126103385760043561101a81610388565b60018060a01b03165f5261086d60205260405f206024355f52602052602060ff60405f2054166040519015158152f35b6001600160a01b03169052565b34610338575f36600319011261033857610869546040516001600160a01b039091168152602090f35b34610338575f366003190112610338577f00000000000000000000000000000000000000000000000000000000000000006001600160a01b031630036110dc576040515f805160206155d98339815191528152602090f35b0390f35b60405162461bcd60e51b815260206004820152603860248201527f555550535570677261646561626c653a206d757374206e6f742062652063616c6044820152771b1959081d1a1c9bdd59da0819195b1959d85d1958d85b1b60421b6064820152608490fd5b6101203660031901126103385760043561115b81610388565b6024359061116882610388565b6044359061117582610388565b61117d6103da565b60c4359063ffffffff821682036103385760e435946001600160401b038611610338576111b161087896369060040161068e565b936111ba613335565b6111cd60ff61086b5460e81c1615612382565b610104359560843592606435926134b4565b34610338575f36600319011261033857602060405163ffffffff7f0000000000000000000000000000000000000000000000000000000000000000168152f35b346103385761020036600319011261033857611239610399565b6112416103a8565b9061124a6103b5565b916112536103c2565b9261125c61040a565b9361126561041b565b61126d61042c565b61127561049e565b6001600160401b0397909290610184358981116103385761129a90369060040161068e565b946101a4358a8111610338576112b490369060040161068e565b966101c4359a8b11610338576112d16100189b369060040161068e565b986101e4359a60e4359360c4359360a4359360843593612a40565b34610338575f36600319011261033857602060ff61086b5460e81c166040519015158152f35b34610338576020366003190112610338577fe88463c2f254e2b070013a2dc7ee1e099f9bc00534cbdf03af551dc26ae49219602060043561135281610ae4565b61135a613901565b611362613335565b61086b805460ff60e81b191691151560e881901b60ff60e81b16929092179055604051908152a16001606555005b346103385760c0366003190112610338576004356113ad81610388565b602435908160070b8203610338576113c36104b2565b916064356113d081610388565b6001600160401b0393608435858111610338576113f190369060040161068e565b9260a4359586116103385761140d61001896369060040161068e565b94612b38565b346103385760203660031901126103385760043561143081610388565b60018060a01b03165f52610870602052602060405f2054604051908152f35b346103385760203660031901126103385760043561146b613901565b611473613335565b61147c8161218a565b6114b4576001815f80935501557f3569b846531b754c99cb80df3f49cd72fa6fe106aaee5ab8e0caf35a9d7ce88d5f80a26001606555005b634e487b7160e01b5f525f60045260245ffd5b34610338576060366003190112610338576100186114e3610477565b610a966024356114f281610388565b6115176044359361150285610388565b61151260ff5f5460081c16612c25565b6129b2565b604051611523816104fd565b6009815260208101906820a1a927a9a996ab1960b91b825260405191611548836104fd565b600583526020830191640312e302e360dc1b835261157560ff5f5460081c1661157081612c25565b612c25565b519020915190209061047f556104805561158d614594565b6115956145a4565b6145bf565b34610338576020366003190112610338577f2d5b62420992e5a4afce0e77742636ca2608ef58289fd2e1baa5161ef6e7e41e60206004356115da81610ae4565b6115e2613901565b6115ea613335565b61086b805460ff60e01b191691151560e081901b60ff60e01b16929092179055604051908152a16001606555005b34610338575f366003190112610338576020604051468152f35b34610338575f36600319011261033857602063ffffffff61086b5460c01c16604051908152f35b91906101a0838203126103385761166e6105f9565b92611678816103cf565b8452611686602082016103cf565b6020850152611697604082016103cf565b60408501526116a8606082016103cf565b60608501526116b9608082016103cf565b608085015260a081013560a085015260c081013560c085015260e081013560e085015261010080820135908501526101206116f58183016104d8565b908501526101406117078183016104d8565b908501526101606117198183016104d8565b9085015261018091818301356001600160401b0381116103385761173d920161068e565b90830152565b3461033857600319606036820112610338576001600160401b0390600435908282116103385760409082360301126103385760405190611782826104fd565b806004013590838211610338576117a160249260043691840101611659565b8352013560208201526117b26104c5565b604435928311610338576117cd6100189336906004016106eb565b91612c85565b3461033857610100366003190112610338576004356117f181610388565b60243590604435907face81ce0f8b8d27a1aed0c4df5f6b2743e46fc50fe3e0183dd7cd6a7b9db22fb63ffffffff60643561196161182d6103fa565b91611836610464565b9260c43590611843613335565b61185d6a0c097ce7bc90715b34b9f160241b8b1115612df0565b60018060a01b0388165f5261087060205261188060e43560405f20541115612e2f565b6040805133602082019081526001600160a01b038b1692820192909252606081018c9052608081018b905260a08101859052600783900b60c082015263ffffffff871660e082015261010081018490526118ff91906118ed8161012081015b03601f1981018352826105b7565b5190205f5261087260205260405f2090565b9283549361190c85612e6d565b90556119198b1515612e7b565b61192489838d614cba565b604051968796169a3399879260a094919796959260c0850198600180881b031685526020850152604084015260070b606083015260808201520152565b0390a46100186001606555565b34610338575f3660031901126103385760206040515f805160206156398339815191528152f35b34610338576040366003190112610338576004356001600160401b038111610338576119c5903690600401611659565b6119cd613335565b6119e060ff61086b5460e01c1615612711565b6119ed604082015161037c565b6001600160a01b031633141580611a97575b611a8557611a7b904661010082015260c0810151611a20602083015161037c565b611a4b61018084015191611a326105da565b94855260208501935f855260408601526060850161274c565b608083015260243560a08301528151604051611a6f816118df602082019485612ddf565b519020905233906147a4565b6100186001606555565b604051630c3a9b9d60e41b8152600490fd5b506101608101514263ffffffff90911610156119ff565b5f5b838110611abf5750505f910152565b8181015183820152602001611ab0565b90602091611ae881518092818552858086019101611aae565b601f01601f1916010190565b6020808201906020835283518092526040830192602060408460051b8301019501935f915b848310611b295750505050505090565b9091929394958480611b47600193603f198682030187528a51611acf565b9801930193019194939290611b19565b34610338576020366003190112610338576001600160401b036004358181116103385736602382011215610338578060040135918211610338573660248360051b83010111610338576110d8916024611bb09201613005565b60405191829182611af4565b60e036600319011261033857600435611bd481610388565b602435611be081610388565b611be86103fa565b60a435926001600160401b03841161033857611c0b61087894369060040161068e565b91611c14613335565b611c2760ff61086b5460e81c1615612382565b60c4359363ffffffff4216926064359160443591336134b4565b34610338575f366003190112610338576040516b1d6329f1c35ca4bfabb9f56160281b8152602090f35b3461033857602036600319011261033857600435611c8881610388565b60018060a01b03165f52610871602052602060405f2054604051908152f35b34610338575f36600319011261033857610c5c546040516001600160a01b039091168152602090f35b34610338576020366003190112610338576004355f5261086f602052602060405f2054604051908152f35b346103385760031960603682011261033857611d15610477565b6001600160401b0391602435908382116103385761010090823603011261033857611d3e610619565b908060040135825260248101356020830152604481013584811161033857611d6c90600436918401016108c3565b6040830152611d7d606482016104d8565b6060830152611d8e608482016103cf565b608083015260a481013584811161033857611daf9060043691840101610923565b60a083015260c481013560c083015260e481013590848211610338576004611dda923692010161068e565b60e082015260443592831161033857611dfa6100189336906004016106eb565b916130ae565b34610338575f36600319011261033857610c5b546040516001600160a01b039091168152602090f35b346103385760a036600319011261033857600435611e4681610388565b611eb5602435611e5581610388565b611e5d6104b2565b60643590611e6a82610388565b60843592611e7784610388565b5f5495611e9b60ff8860081c161580988199611f2f575b8115611f0f575b506131f1565b86611eac600160ff195f5416175f55565b611ef857613254565b611ebb57005b611ec961ff00195f54165f55565b604051600181527f7f26b83ff96e1f2b6a682f133852f6798a09c465da95921460cefb384740249890602090a1005b611f0a61010061ff00195f5416175f55565b613254565b303b15915081611f21575b505f611e95565b6001915060ff16145f611f1a565b600160ff8216109150611e8e565b34610338575f36600319011261033857602060ff61086b5460e01c166040519015158152f35b34610338575f366003190112610338576040516a0c097ce7bc90715b34b9f160241b8152602090f35b3461033857602036600319011261033857610878600435611fac81610388565b611fb4613901565b611595613335565b34610338575f3660031901126103385761086a546040516001600160a01b039091168152602090f35b34610338576020366003190112610338576004356001600160401b03811161033857612015903690600401611659565b61201d613335565b61203060ff61086b5460e01c1615612711565b610140810190612044825163ffffffff1690565b63ffffffff908142911610612164576040516020810190612069816118df8685612ddf565b5190209061207682610a9b565b54612153576120ae6120a87fe4b7a167221330bacd6975b417a1f4cb0b64a529213adee334653b69556ed95793610a9b565b60019055565b6120bb606084015161037c565b936121466120cc608086015161037c565b60a08601519560c08101519660e0820151976120fe6120f361012085015163ffffffff1690565b965163ffffffff1690565b61016084015163ffffffff1690612118604086015161037c565b92612123865161037c565b94610180612134602089015161037c565b970151976040519b8c9b169e8b6132cb565b0390a36100186001606555565b604051624be79160e21b8152600490fd5b60405163d642b7d960e01b8152600490fd5b634e487b7160e01b5f52603260045260245ffd5b61086c80548210156121a6575f52600360205f20910201905f90565b612176565b346103385760203660031901126103385760043561086c54811015610338576121d560409161218a565b506001815491015482519182526020820152f35b6101003660031901126103385760043561220281610388565b6024359061220f82610388565b6044359161221c83610388565b6122246103da565b60c43593906001600160401b0385116103385761224861087895369060040161068e565b92612251613335565b61226460ff61086b5460e81c1615612382565b60e4359463ffffffff42169360843592606435926134b4565b9a9895939199969492909799612291613335565b612299610639565b9b6122a4908d61274c565b6122b18960208e0161274c565b6122be9060408d0161274c565b60608b015260808a01524660a08a015260070b60c089015260070b60e088015263ffffffff16610100878101919091526101209180838901526122ff610639565b97885260208801945f8652604089015f9052606089019061231f9161274c565b60808801525f60a08801526b1d6329f1c35ca4bfabb9f56160281b60c08801525f1960e0880152600190870152850152835161235a90613b9b565b90526123669183614dcc565b61236f81613e46565b61237891614335565b6103a66001606555565b1561238957565b60405162461bcd60e51b815260206004820152600f60248201526e506175736564206465706f7369747360881b6044820152606490fd5b916123c9613335565b602082019182519161240761240360a08401926123ef845196604087019788519161367b565b8460016123fb8a61218a565b5001546136af565b1590565b6124c257816124b560607fef58a0c572350b3e7cd0a4cb92368d9b834017a49338338f295d1a3e0535dcf494019261244c612446855163ffffffff1690565b89613732565b61249b6124948851946124848151968a519761246c8a5163ffffffff1690565b608085019961247b8b5161037c565b92895194613787565b5198519751955163ffffffff1690565b935161037c565b90519063ffffffff9485604051968796169a169885612543565b0390a46103a66001606555565b60405163582f497d60e11b8152600490fd5b9081518082526020808093019301915f5b8281106124f3575050505090565b8351855293810193928101926001016124e5565b9081518082526020808093019301915f5b828110612526575050505090565b83516001600160a01b031685529381019392810192600101612518565b9061257e94926125609183526080602084015260808301906124d4565b6001600160a01b039093166040820152808303606090910152612507565b90565b1561258857565b60405162461bcd60e51b815260206004820152602c60248201525f805160206155b983398151915260448201526b19195b1959d85d1958d85b1b60a21b6064820152608490fd5b156125d657565b60405162461bcd60e51b815260206004820152602c60248201525f805160206155b983398151915260448201526b6163746976652070726f787960a01b6064820152608490fd5b9a96929098979993959161262f613335565b61086b5460e01c60ff161561264390612711565b61264b610639565b9b612656908d61274c565b6126638a60208e0161274c565b6126709060408d0161274c565b60608b015260808a01524660a08a015260070b60c0890152600787900b60e089015261010094858901906126a9919063ffffffff169052565b6101209581878a01526126ba610639565b9889525f60208a0190815260079890980b60408a01526126dd9060608a0161274c565b608088015260a087015260c086015260e085015283015f905282015f9052815161270690613b9b565b905261236f81613e46565b1561271857565b60405162461bcd60e51b815260206004820152600c60248201526b5061757365642066696c6c7360a01b6044820152606490fd5b6001600160a01b039091169052565b96939a94979991959890929961276f613335565b61086b9861278460ff8b5460e81c1615612382565b6127ab6124036127a48d6127978c610fc9565b905f5260205260405f2090565b5460ff1690565b61294d5763ffffffff9c8d6127c281851642612973565b907f0000000000000000000000000000000000000000000000000000000000000000161061293b578d612817817f00000000000000000000000000000000000000000000000000000000000000001642612985565b90851611612929576001600160a01b039a7f00000000000000000000000000000000000000000000000000000000000000008c16828b8e1680831480612920575b1561290d575034036128fb57803b15610338575f60049160405192838092630d0e30db60e41b825234905af180156128f6576128dd575b505b5460c01c63ffffffff169d6128a58f61299d565b6128ae906129b2565b6040519b8c9b169e169c6128c2998b6129d8565b035f805160206155f983398151915291a46103a66001606555565b806128ea6128f09261051d565b8061032e565b5f61288f565b612992565b604051636452a35d60e01b8152600490fd5b61291b925030903390614464565b612891565b50341515612858565b60405163582e388960e01b8152600490fd5b60405163f722177f60e01b8152600490fd5b604051632a58c4f360e01b8152600490fd5b634e487b7160e01b5f52601160045260245ffd5b9190820391821161298057565b61295f565b9190820180921161298057565b6040513d5f823e3d90fd5b63ffffffff8091169081146129805760010190565b61086b805463ffffffff60c01b191660c09290921b63ffffffff60c01b16919091179055565b6001600160a01b03918216815291811660208301526040820192909252606081019290925263ffffffff928316608083015292821660a0820152921660c083015291821660e08201529116610100820152610140610120820181905261257e92910190611acf565b9d9c9b959e9390928e9799939b98929b612a58613335565b61086b5460e01c60ff1615612a6c90612711565b612a74610639565b98612a7f908a61274c565b612a8c9060208a0161274c565b612a99906040890161274c565b6060870152608086018890524660a087015260070b60c086015260070b60e085015263ffffffff851661010085810191909152916101209384860152612add610639565b9485525f60208601908152600789900b6040870152949c898e60600190612b039161274c565b8d8b608082015260a0015260c08d015260e08c01528a015f905289015f90528851612b2d90613b9b565b9052612366966144ab565b612bd99063ffffffff7fa6aa57bd282fc82378458de27be4eadfa791a0c7321c49562eeba8b2643dd56695949796612b6e613335565b612b9c8882888860070b98612b946706f05b59d3b20000612b8e8c614585565b10612be3565b468e896144ab565b612bc760018060a01b0391826040519889988952166020880152608060408801526080870190611acf565b92858403606087015216971695611acf565b0390a36001606555565b15612bea57565b60405162461bcd60e51b8152602060048201526013602482015272496e76616c69642072656c617965722066656560681b6044820152606490fd5b15612c2c57565b60405162461bcd60e51b815260206004820152602b60248201527f496e697469616c697a61626c653a20636f6e7472616374206973206e6f74206960448201526a6e697469616c697a696e6760a81b6064820152608490fd5b9061237892612d0991612c96613335565b6020845194466101008701520151612cb1602086015161037c565b612cdc61018087015191612cc36105da565b97885260208801935f855260408901526060880161274c565b60808601525f60a08601528451604051612cfe816118df602082019485612ddf565b519020905283614648565b614a3f565b61257e916101a090612d2181845161104a565b612d336020840151602083019061104a565b612d456040840151604083019061104a565b612d576060840151606083019061104a565b612d696080840151608083019061104a565b60a083015160a082015260c083015160c082015260e083015160e08201526101008084015190820152612daa610120808501519083019063ffffffff169052565b6101408381015163ffffffff16908201526101608381015163ffffffff16908201528161018080940151938201520190611acf565b90602061257e928181520190612d0e565b15612df757565b60405162461bcd60e51b815260206004820152601060248201526f416d6f756e7420746f6f206c6172676560801b6044820152606490fd5b15612e3657565b60405162461bcd60e51b815260206004820152600f60248201526e10589bdd99481b585e0818dbdd5b9d608a1b6044820152606490fd5b5f1981146129805760010190565b15612e8257565b60405162461bcd60e51b81526020600482015260126024820152710416d6f756e74206d757374206265203e20360741b6044820152606490fd5b90612ec6826106d4565b612ed360405191826105b7565b8281528092612ee4601f19916106d4565b01905f5b828110612ef457505050565b806060602080938501015201612ee8565b91908110156121a65760051b81013590601e19813603018212156103385701803591906001600160401b038311610338576020018236038113610338579190565b908092918237015f815290565b3d15612f7d573d90612f6482610673565b91612f7260405193846105b7565b82523d5f602084013e565b606090565b602081830312610338578051906001600160401b038211610338570181601f82011215610338578051612fb481610673565b92612fc260405194856105b7565b818452602082840101116103385761257e9160208085019101611aae565b90602061257e928181520190611acf565b80518210156121a65760209160051b010190565b91909161301183612ebc565b925f5b81811061302057505050565b5f8061302d838587612f05565b6040939161303f855180938193612f46565b0390305af49061304d612f53565b91156130745750906001916130628288612ff1565b5261306d8187612ff1565b5001613014565b90604481511061033857610c9661309960049283810151602480918301019101612f82565b925162461bcd60e51b81529283928301612fe0565b916130b7613335565b60208201918251916130f161240360a08401926130dd845196604087019788519161367b565b8460016130e98a61218a565b500154614d29565b6124c257816124b560607f168b5e636f384f487d11ee278507b1ff985b7dc751a0fb6ef7ad1432e8dec1da940192613130612446855163ffffffff1690565b86519261316281519488519561314a885163ffffffff1690565b6080850197613159895161037c565b92875194613787565b613180613179825199519851965163ffffffff1690565b945161037c565b915160e060c08301519201519263ffffffff9687604051988998169c169a879290936131c16131de9361257e9896865260c0602087015260c08601906124d4565b6001600160a01b0390921660408501528382036060850152612507565b92608082015260a0818403910152611acf565b156131f857565b60405162461bcd60e51b815260206004820152602e60248201527f496e697469616c697a61626c653a20636f6e747261637420697320616c72656160448201526d191e481a5b9a5d1a585b1a5e995960921b6064820152608490fd5b9193610a9661327592946115176103a69761151260ff5f5460081c16612c25565b610c5b80546001600160a01b039283166001600160a01b031991821617909155610c5c8054939092169216919091179055565b634e487b7160e01b5f52602160045260245ffd5b600311156132c657565b6132a8565b6001600160a01b03918216815291811660208301526040820192909252606081019290925263ffffffff92831660808301529290911660a082015291811660c083015291821660e08201529116610100820152610140610120820181905261257e92910190611acf565b600260655414613346576002606555565b60405162461bcd60e51b815260206004820152601f60248201527f5265656e7472616e637947756172643a207265656e7472616e742063616c6c006044820152606490fd5b1561339257565b60405162461bcd60e51b815260206004820152600e60248201526d44697361626c656420726f75746560901b6044820152606490fd5b156133cf57565b60405162461bcd60e51b81526020600482015260166024820152750696e76616c69642071756f746554696d657374616d760541b6044820152606490fd5b1561341457565b60405162461bcd60e51b815260206004820152601b60248201527a1b5cd9cb9d985b1d59481b5d5cdd081b585d18da08185b5bdd5b9d602a1b6044820152606490fd5b929361257e96959192946101409560018060a01b0380951686525f60208701526040860152606085015263ffffffff809116608085015260a08401525f60c08401521660e08201525f610100820152816101208201520190611acf565b929196909395979461351c906134d86134d36127a48a6127978d610fc9565b61338b565b60070b956134f16706f05b59d3b20000612b8e89614585565b61350b6a0c097ce7bc90715b34b9f160241b851115612df0565b61351489610fe3565b541115612e2f565b63ffffffff9361355b613531868b1642612973565b867f00000000000000000000000000000000000000000000000000000000000000001610156133c8565b61086b5460c01c63ffffffff16986135756115128b61299d565b61357e89610fe3565b613589858254612985565b90556001600160a01b03957f00000000000000000000000000000000000000000000000000000000000000008716948a881680871480613672575b1561364857506135d581341461340d565b853b15610338575f60049660405197888092630d0e30db60e41b825234905af180156128f6575f805160206155f9833981519152996136309761361f92613635575b505b82614e5a565b91604051988998169c169a87613457565b0390a4565b806128ea6136429261051d565b5f613617565b61363096505f805160206155f98339815191529961366d8361361f9330903390614464565b613619565b503415156135c4565b460361369d575190510361368b57565b6040516319a5316760e31b8152600490fd5b604051633d23e4d160e11b8152600490fd5b61257e9291604051613729816118df602082019460208652805160408401526020810151606084015260a06136f4604083015160c060808701526101008601906124d4565b606083015163ffffffff168583015260808301515f196001841b011660c0860152910151838203603f190160e0850152612507565b51902091614e90565b61373d60029161218a565b500162ffffff8260081c16805f5281602052600160ff60405f205494161b8080941614613775575f5260205260405f20908154179055565b60405163954476d960e01b8152600490fd5b9294939190938151915f5b8381106138c15750505050826137a9575b50505050565b610c5b546001600160a01b0391906137c290831661037c565b9461086a916137d1835461037c565b96803b156103385760405163a93a4af960e01b81526001600160a01b038381166004830152989098166024890152604488018790525f60648901819052908890608490829084905af19384156128f6578061387b63ffffffff957fa9ccdcd3003b37a727d2b0288fc446a356645bcc9c14cf81ed01194773d94c0f9a7f7c3d4d7fa0beeb997103f1aeca4922365ea469a3e7e88db965a128bbe6a2f632986138ae575b505461037c565b9216978891604051931692806138968a829190602083019252565b0390a36040519485521692602090a45f8080806137a3565b806128ea6138bb9261051d565b5f613874565b806138ce60019284612ff1565b51806138dc575b5001613792565b6138fb90838060a01b03806138f18589612ff1565b5116908916614ee1565b5f6138d5565b610c5c54604051636e296e4560e01b8152906001600160a01b03906020908390600490829085165afa9182156128f6575f92613984575b5080610869541691160361394857565b60405162461bcd60e51b815260206004820152601460248201527329b2b73232b91036bab9ba1031329030b236b4b760611b6044820152606490fd5b9091506020813d6020116139b9575b816139a0602093836105b7565b8101031261033857516139b281610388565b905f613938565b3d9150613993565b6001600160a01b03168015613a095761086a80546001600160a01b031916821790557f1f17a88f67b0f49060a34bec1a4723a563620e6aa265eb640b5046dcee0759a05f80a2565b60405162461bcd60e51b81526020600482015260146024820152734261642068756220706f6f6c206164647265737360601b6044820152606490fd5b90816020910312610338575190565b15613a5b57565b60405162461bcd60e51b815260206004820152602960248201527f45524331393637557067726164653a20756e737570706f727465642070726f786044820152681a58589b195555525160ba1b6064820152608490fd5b60809060208152602e60208201527f45524331393637557067726164653a206e657720696d706c656d656e7461746960408201526d6f6e206973206e6f74205555505360901b60608201520190565b61257e9161014090613b1481845161104a565b613b266020840151602083019061104a565b613b386040840151604083019061104a565b606083015160608201526080830151608082015260a083015160a0820152613b6a60c084015160c083019060070b9052565b60e08381015160070b908201526101008381015163ffffffff16908201528161012080940151938201520190611acf565b604051613bb8816118df6020820194602086526040830190613b01565b51902090565b15613bc557565b60405162461bcd60e51b815260206004820152600c60248201526b696e76616c6964206665657360a01b6044820152606490fd5b15613c0057565b60405162461bcd60e51b815260206004820152600c60248201526b1c995b185e48199a5b1b195960a21b6044820152606490fd5b600791820b910b019060016001603f1b0319821260016001603f1b0383131761298057565b15613c6057565b60405162461bcd60e51b8152602060048201526019602482015278066696c6c20616d6f756e74207072652066656573206973203603c1b6044820152606490fd5b15613ca857565b60405162461bcd60e51b815260206004820152601d60248201527f7061796f757441646a7573746d656e7450637420746f6f20736d616c6c0000006044820152606490fd5b15613cf457565b60405162461bcd60e51b815260206004820152601d60248201527f7061796f757441646a7573746d656e7450637420746f6f206c617267650000006044820152606490fd5b600160ff1b8114612980575f0390565b15613d5057565b60405162461bcd60e51b815260206004820152601c60248201527b536f6d65686f7720686974206d6178546f6b656e73546f53656e642160201b6044820152606490fd5b15613d9b57565b60405162461bcd60e51b815260206004820152601760248201527634b73b30b634b2103932b830bcb6b2b73a1031b430b4b760491b6044820152606490fd5b9061257e949360a093600180861b0380931684526020840152600160408401521660608201528160808201520190611acf565b6001600160a01b039182168152602081019290925291151560408201529116606082015260a06080820181905261257e92910190611acf565b908151916040810192613e866706f05b59d3b2000080613e78613e73613e6d895160070b90565b60070b90565b614585565b109081614254575b50613bbe565b6060810190613ea66a0c097ce7bc90715b34b9f160241b83511115612df0565b6020830190613ec1613eb88351610aaa565b54845111613bf9565b6040810190613efd613ef0613ed6845161037c565b6001600160a01b03165f9081526108706020526040902090565b5460e08701511015612e2f565b60c0850193613f2c60c08651930192613f26613f1a855160070b90565b8b5160070b5b90613c34565b9061508e565b97613f38891515613c59565b613f4e8251613f478751610aaa565b5490612973565b89811061424a575b50613f77613e6d613f7d92613f20613f6f875160070b90565b915160070b90565b89614e5a565b9461012087018051806141f5575b505050613ff660a08701519287519360a0850151148a819582156141e7575b505080156141ce575b613fbc90613d94565b613fc68651610aaa565b5490613fd58451915160070b90565b613fdf875161037c565b916101008b0196613ff08851151590565b94614ceb565b6140008451610aaa565b61400b898254612985565b90556060860161401b815161037c565b6001600160a01b0393903385821614806141bb575b6141b057906140a792918886614046895161037c565b16917f000000000000000000000000000000000000000000000000000000000000000088168303614168575050506124036140819151151590565b614149575b6140a18761409c614097845161037c565b61037c565b6150dc565b5161037c565b91823b15158061413b575b6140c0575b50505050505050565b6140d26140d99160809416945161037c565b9451610aaa565b549051111594015193813b15610338575f809461410e604051978896879586946301d43f2760e31b8652339260048701613e0d565b03925af180156128f657614128575b8080808080806140b7565b806128ea6141359261051d565b5f61411d565b5060808701515115156140b2565b6141638761415a614097885161037c565b30903390614464565b614086565b9091926124036141789151151590565b156141a757506141a29150614190614097885161037c565b61419a845161037c565b903390614464565b6140a1565b6141a292614ee1565b505050505050505050565b506141c96124038351151590565b614030565b50613fbc6141e06101008a0151151590565b9050613fb3565b606001511490508a5f613faa565b9661423261423892614216614242959a670de0b6b3a763ffff191315613ca1565b61422c68056bc75e2d6310000082511315613ced565b51613d39565b90614e5a565b9551861115613d49565b5f8080613f8b565b9850613f77613f56565b905061426a613e73613e6d60c086015160070b90565b105f613e80565b9060018060a01b03825116815260808061429a602085015160a0602086015260a0850190611acf565b93604081015160070b6040850152606081015115156060850152015191015290565b9a979361257e9c9a959197936143269a979360208e6101809b8152015260408d015260608c015260808b015260070b60a08a015260070b60c089015260018060a01b03928380921660e08a0152166101008801521661012086015280610140860152840190611acf565b91610160818403910152614271565b9060408201516143459060070b90565b9160608101516143549061037c565b90608081015193610100948583015161436c90151590565b61012092838501519261437d610659565b96614388908861274c565b602087015260070b604086015215156060850152608084015281516060015160208301516143b590610aaa565b549360a084015193519460808601519560a08101519160e08201516143da9060070b90565b60c083015160070b9a83015163ffffffff169a60408401516143fb9061037c565b9184516144079061037c565b9860208601516144169061037c565b950151956040519a8b9a600160a01b60019003169e63ffffffff169d339661443e9b8d6142bc565b037f8ab9dc6c19fe88e69bc70221b339c84332752fdd49591b7c51e66bae3947b73c91a4565b6040516323b872dd60e01b60208201526001600160a01b0392831660248201529290911660448301526064808301939093529181526103a6916144a682610530565b61524a565b93926042936103a6979660208151910120906040519263ffffffff60208501955f80516020615639833981519152875216604085015285606085015260070b608084015260018060a01b031660a083015260c082015260c0815261450e81610581565b5190209061047f549061048054906040519160208301937fc2f8787176b8ac6bf7215b4adcc1e069bf4ab82d9ab1df05a57a91d425935b6e85526040840152606083015260808201526080815261456481610530565b519020906040519161190160f01b8352600283015260228201522090615371565b5f811261458f5790565b5f0390565b6103a660ff5f5460081c16612c25565b6145b860ff5f5460081c1661157081612c25565b6001606555565b6001600160a01b031680156146075761086980546001600160a01b031916821790557fa9e8c42c9e7fca7f62755189a16b2f5314d43d8fb24e91ba54e6d65f9314e8495f80a2565b60405162461bcd60e51b81526020600482015260196024820152784261642062726964676520726f75746572206164647265737360381b6044820152606490fd5b916146ae91835161467360408096015192865192614665846104fd565b83526020830193845261218a565b50549161372986518092614699602083019560208752518a808501526080840190612d0e565b9051606083015203601f1981018352826105b7565b156146b65750565b5163582f497d60e11b8152600490fd5b6146cf826132bc565b52565b9060018060a01b0382511681526060806146fb6020850151608060208601526080850190611acf565b9360408101516040850152015191614712836132bc565b015290565b9a979096956147869661257e9d9b9660808e61477b986147959e986101809d60018060a01b03998a80921685521660208401526040830152606082015201528c60a063ffffffff8094169101521660c08c01521660e08a015261010089019061104a565b61012087019061104a565b80610140860152840190611acf565b916101608184039101526146d2565b8051916101408301906147bb825163ffffffff1690565b63ffffffff4291161061216457602083015160016147d882610a9b565b5403614a38576001905b60026147ed82610a9b565b5414614a26576147fc90610a9b565b60029055606085015161480e9061037c565b608086015161481c9061037c565b9260a0870151918660c0890151948960a08301519660e08201519761012083015161484a9063ffffffff1690565b9a5163ffffffff1661016084015163ffffffff1690604085015161486d9061037c565b9285516148799061037c565b9460208701516148889061037c565b9661018001519760608a015161489d9061037c565b9960808101519060400151906148b1610666565b9b6148bc908d61274c565b60208c015260408b01526148d39060608b016146c6565b6040516001600160a01b03909b169e63ffffffff169d9a9b8c9b6148f79b8d614717565b035f8051602061559983398151915291a460608101516149169061037c565b6001600160a01b0381169233841480614a1e575b6137a357608061493b91015161037c565b6040830151909390926080906001600160a01b0380871690869086907f0000000000000000000000000000000000000000000000000000000000000000168303614a0e575061498d9130903390614464565b61499785846150dc565b0151913b151580614a04575b6149ad5750505050565b803b15610338576149da935f8094604051968795869485936301d43f2760e31b8552339160048601613dda565b03925af180156128f6576149f1575b8080806137a3565b806128ea6149fe9261051d565b5f6149e9565b50815115156149a3565b614a19923390614464565b614997565b50600161492a565b604051630479306360e51b8152600490fd5b5f906147e2565b905f82516101408101614a56815163ffffffff1690565b63ffffffff429116106121645760208501516002614a7382610a9b565b5414614a2657614a8290610a9b565b600290556060820151614a949061037c565b6080830151614aa29061037c565b9060a08401519260c0850151918860a0810151938760e081015195610120820151614ad09063ffffffff1690565b955163ffffffff1661016083015163ffffffff166040840151614af29061037c565b918451614afe9061037c565b936020860151614b0d9061037c565b956101800151966060890151614b229061037c565b986080810151906040015190614b36610666565b9a614b41908c61274c565b60208b015260408a0152600260608a01526040519d63ffffffff8f9c169d614b699b8d614717565b035f80516020615599833981519152905f94a46060840151614b8a9061037c565b6001600160a01b03949091858316919033831480614cb3575b614caa576080614bb491015161037c565b9060408101519687818416917f00000000000000000000000000000000000000000000000000000000000000001682145f14614c9357906080929187614c7f575b614c009150856150dc565b0151923b151580614c75575b614c19575b505050509050565b813b15614c715783614c459596604051968795869485936301d43f2760e31b8552339160048601613dda565b03925af180156128f657614c5e575b8080808493614c11565b806128ea614c6b9261051d565b5f614c54565b8380fd5b5082511515614c0c565b614c8c9130903390614464565b5f88614bf5565b608092919650614ca590865f98614ee1565b614c00565b50505050509050565b505f614ba3565b614cc79160070b90614e5a565b9060018060a01b03165f5261087060205260405f2080549182018092116129805755565b94919293948215614d1f575b508115614d16575b50614d1157614cc79160070b90614e5a565b505050565b9050155f614cff565b151591505f614cf7565b61257e9291604051613729816118df602082019460208652805160408401526020810151606084015260408101519060e0614d72610100938460808801526101408701906124d4565b606083015163ffffffff1660a087015291614d95608082015160c088019061104a565b614db060a082015193603f19948589830301858a0152612507565b9360c08201519087015201519084830301610120850152611acf565b90614e139291614deb61012082519201519260405192614665846104fd565b5054916137296040518092614699602083019560208752516040808501526080840190613b01565b15614e1a57565b60405162461bcd60e51b815260206004820152601860248201527724b73b30b634b21039b637bb903932b630bc90383937b7b360411b6044820152606490fd5b90670de0b6b3a7640000915f82840392128383128116908484139015161761298057818102918183041490151715612980570490565b929091905f915b8451831015614ed957614eaa8386612ff1565b519081811015614ec8575f52602052600160405f205b920191614e97565b905f52602052600160405f20614ec0565b915092501490565b60405163a9059cbb60e01b60208201526001600160a01b0390921660248301526044808301939093529181526103a6916144a68261054b565b90614f2482614fff565b6001600160a01b0382165f805160206156198339815191525f80a2805115801590614fb9575b614f52575050565b614fb6915f8060405193614f658561059c565b602785527f416464726573733a206c6f772d6c6576656c2064656c65676174652063616c6c6020860152660819985a5b195960ca1b6040860152602081519101845af4614fb0612f53565b91615476565b50565b505f614f4a565b90614fca82614fff565b6001600160a01b0382165f805160206156198339815191525f80a2805115801590614ff757614f52575050565b506001614f4a565b803b15615033575f805160206155d983398151915280546001600160a01b0319166001600160a01b03909216919091179055565b60405162461bcd60e51b815260206004820152602d60248201527f455243313936373a206e657720696d706c656d656e746174696f6e206973206e60448201526c1bdd08184818dbdb9d1c9858dd609a1b6064820152608490fd5b670de0b6b3a76400009181830291838304036129805760070b808303925f82128185128116908286139015161761298057146150c8570490565b634e487b7160e01b5f52601260045260245ffd5b6001600160a01b0390811690813b1561511c57906103a692917f000000000000000000000000000000000000000000000000000000000000000016614ee1565b7f000000000000000000000000000000000000000000000000000000000000000016803b15610338575f8091602460405180948193632e1a7d4d60e01b83528860048401525af180156128f65761523b575b508147106151f6575f80809381935af1615186612f53565b501561518e57565b60405162461bcd60e51b815260206004820152603a60248201527f416464726573733a20756e61626c6520746f2073656e642076616c75652c20726044820152791958da5c1a595b9d081b585e481a185d99481c995d995c9d195960321b6064820152608490fd5b60405162461bcd60e51b815260206004820152601d60248201527f416464726573733a20696e73756666696369656e742062616c616e63650000006044820152606490fd5b6152449061051d565b5f61516e565b6040516152a1916001600160a01b0316615263826104fd565b5f806020958685527f5361666545524332303a206c6f772d6c6576656c2063616c6c206661696c656487860152868151910182855af1614fb0612f53565b8051828115918215615311575b50509050156152ba5750565b6084906040519062461bcd60e51b82526004820152602a60248201527f5361666545524332303a204552433230206f7065726174696f6e20646964206e6044820152691bdd081cdd58d8d9595960b21b6064820152fd5b83809293500103126103385781015161532981610ae4565b80825f6152ae565b1561533857565b60405162461bcd60e51b8152602060048201526011602482015270696e76616c6964207369676e617475726560781b6044820152606490fd5b919061537d8282615441565b93909260058510156132c6576103a69415938461542b575b5083156153a5575b505050615331565b5f9293509082916040516153dd816118df6020820194630b135d3f60e11b998a87526024840152604060448401526064830190611acf565b51915afa906153ea612f53565b8261541d575b82615400575b50505f808061539d565b61541591925060208082518301019101613a45565b145f806153f6565b9150602082511015916153f0565b6001600160a01b0383811691161493505f615395565b9060418151145f1461546d5761546991602082015190606060408401519301515f1a90615507565b9091565b50505f90600290565b919290156154d8575081511561548a575090565b3b156154935790565b60405162461bcd60e51b815260206004820152601d60248201527f416464726573733a2063616c6c20746f206e6f6e2d636f6e74726163740000006044820152606490fd5b8251909150156154eb5750805190602001fd5b60405162461bcd60e51b8152908190610c969060048301612fe0565b6fa2a8918ca85bafe22016d0b997e4df60600160ff1b03841161556d576020935f9360ff60809460405194855216868401526040830152606082015282805260015afa156128f6575f516001600160a01b0381161561556557905f90565b505f90600190565b505050505f9060039056fe4910fdfa16fed3260ed0e7147f7cc6da11a60208b5b9406d12a635614ffd914332cb2beef51cc3e8592639aa435309d1087da595cff201a7640ce5c2187d719746756e6374696f6e206d7573742062652063616c6c6564207468726f75676820360894a13ba1a3210667c828492db98dca3e2076cc3735a920a3ca505d382bbcc289887301839694cf27e1d254c3b54c9bba4824f29bba3a63c2c138e7e4e181bc7cd75a20ee27fd9adebab32041f755214dbc6bffa90cc0225b39da2e5c2d3b0e058f05b73c62ee68329d2c67c067aaae9a06503cc306378d144d0f0177882ba2646970667358221220273a7587ff3cf828b9ae1fd4eabc7316fa5d2ff9e6942a6e0cacadd8342bc67664736f6c63430008170033"
}