{
  "address": "0x02D65fb01d3d88127dF19838902ba42c6239c0Fd",
  "abi": [
    {
      "inputs": [
        {
          "internalType": "address",
          "name": "_wrappedNativeTokenAddress",
          "type": "address"
        },
        {
          "internalType": "uint32",
          "name": "_depositQuoteTimeBuffer",
          "type": "uint32"
        },
        {
          "internalType": "uint32",
          "name": "_fillDeadlineBuffer",
          "type": "uint32"
        }
      ],
      "stateMutability": "nonpayable",
      "type": "constructor"
    },
    {
      "inputs": [],
      "name": "ClaimedMerkleLeaf",
      "type": "error"
    },
    {
      "inputs": [],
      "name": "DepositsArePaused",
      "type": "error"
    },
    {
      "inputs": [],
      "name": "DisabledRoute",
      "type": "error"
    },
    {
      "inputs": [],
      "name": "ExpiredFillDeadline",
      "type": "error"
    },
    {
      "inputs": [],
      "name": "FillsArePaused",
      "type": "error"
    },
    {
      "inputs": [],
      "name": "InsufficientSpokePoolBalanceToExecuteLeaf",
      "type": "error"
    },
    {
      "inputs": [],
      "name": "InvalidBytes32",
      "type": "error"
    },
    {
      "inputs": [],
      "name": "InvalidChainId",
      "type": "error"
    },
    {
      "inputs": [],
      "name": "InvalidCrossDomainAdmin",
      "type": "error"
    },
    {
      "inputs": [],
      "name": "InvalidDepositorSignature",
      "type": "error"
    },
    {
      "inputs": [],
      "name": "InvalidExclusiveRelayer",
      "type": "error"
    },
    {
      "inputs": [],
      "name": "InvalidFillDeadline",
      "type": "error"
    },
    {
      "inputs": [],
      "name": "InvalidMerkleLeaf",
      "type": "error"
    },
    {
      "inputs": [],
      "name": "InvalidMerkleProof",
      "type": "error"
    },
    {
      "inputs": [],
      "name": "InvalidPayoutAdjustmentPct",
      "type": "error"
    },
    {
      "inputs": [],
      "name": "InvalidQuoteTimestamp",
      "type": "error"
    },
    {
      "inputs": [],
      "name": "InvalidRelayerFeePct",
      "type": "error"
    },
    {
      "inputs": [],
      "name": "InvalidSlowFillRequest",
      "type": "error"
    },
    {
      "inputs": [],
      "name": "InvalidWithdrawalRecipient",
      "type": "error"
    },
    {
      "inputs": [
        {
          "internalType": "bytes",
          "name": "data",
          "type": "bytes"
        }
      ],
      "name": "LowLevelCallFailed",
      "type": "error"
    },
    {
      "inputs": [],
      "name": "MaxTransferSizeExceeded",
      "type": "error"
    },
    {
      "inputs": [],
      "name": "MsgValueDoesNotMatchInputAmount",
      "type": "error"
    },
    {
      "inputs": [],
      "name": "NoRelayerRefundToClaim",
      "type": "error"
    },
    {
      "inputs": [],
      "name": "NoSlowFillsInExclusivityWindow",
      "type": "error"
    },
    {
      "inputs": [],
      "name": "NotEOA",
      "type": "error"
    },
    {
      "inputs": [],
      "name": "NotExclusiveRelayer",
      "type": "error"
    },
    {
      "inputs": [],
      "name": "RelayFilled",
      "type": "error"
    },
    {
      "inputs": [],
      "name": "WrongERC7683OrderId",
      "type": "error"
    },
    {
      "anonymous": false,
      "inputs": [
        {
          "indexed": false,
          "internalType": "address",
          "name": "previousAdmin",
          "type": "address"
        },
        {
          "indexed": false,
          "internalType": "address",
          "name": "newAdmin",
          "type": "address"
        }
      ],
      "name": "AdminChanged",
      "type": "event"
    },
    {
      "anonymous": false,
      "inputs": [
        {
          "indexed": true,
          "internalType": "address",
          "name": "beacon",
          "type": "address"
        }
      ],
      "name": "BeaconUpgraded",
      "type": "event"
    },
    {
      "anonymous": false,
      "inputs": [
        {
          "indexed": true,
          "internalType": "bytes32",
          "name": "l2TokenAddress",
          "type": "bytes32"
        },
        {
          "indexed": true,
          "internalType": "bytes32",
          "name": "refundAddress",
          "type": "bytes32"
        },
        {
          "indexed": false,
          "internalType": "uint256",
          "name": "amount",
          "type": "uint256"
        },
        {
          "indexed": true,
          "internalType": "address",
          "name": "caller",
          "type": "address"
        }
      ],
      "name": "ClaimedRelayerRefund",
      "type": "event"
    },
    {
      "anonymous": false,
      "inputs": [
        {
          "indexed": true,
          "internalType": "uint256",
          "name": "rootBundleId",
          "type": "uint256"
        }
      ],
      "name": "EmergencyDeletedRootBundle",
      "type": "event"
    },
    {
      "anonymous": false,
      "inputs": [
        {
          "indexed": true,
          "internalType": "address",
          "name": "originToken",
          "type": "address"
        },
        {
          "indexed": true,
          "internalType": "uint256",
          "name": "destinationChainId",
          "type": "uint256"
        },
        {
          "indexed": false,
          "internalType": "bool",
          "name": "enabled",
          "type": "bool"
        }
      ],
      "name": "EnabledDepositRoute",
      "type": "event"
    },
    {
      "anonymous": false,
      "inputs": [
        {
          "indexed": false,
          "internalType": "uint256",
          "name": "amountToReturn",
          "type": "uint256"
        },
        {
          "indexed": true,
          "internalType": "uint256",
          "name": "chainId",
          "type": "uint256"
        },
        {
          "indexed": false,
          "internalType": "uint256[]",
          "name": "refundAmounts",
          "type": "uint256[]"
        },
        {
          "indexed": true,
          "internalType": "uint32",
          "name": "rootBundleId",
          "type": "uint32"
        },
        {
          "indexed": true,
          "internalType": "uint32",
          "name": "leafId",
          "type": "uint32"
        },
        {
          "indexed": false,
          "internalType": "address",
          "name": "l2TokenAddress",
          "type": "address"
        },
        {
          "indexed": false,
          "internalType": "address[]",
          "name": "refundAddresses",
          "type": "address[]"
        },
        {
          "indexed": false,
          "internalType": "bool",
          "name": "deferredRefunds",
          "type": "bool"
        },
        {
          "indexed": false,
          "internalType": "address",
          "name": "caller",
          "type": "address"
        }
      ],
      "name": "ExecutedRelayerRefundRoot",
      "type": "event"
    },
    {
      "anonymous": false,
      "inputs": [
        {
          "indexed": false,
          "internalType": "bytes32",
          "name": "inputToken",
          "type": "bytes32"
        },
        {
          "indexed": false,
          "internalType": "bytes32",
          "name": "outputToken",
          "type": "bytes32"
        },
        {
          "indexed": false,
          "internalType": "uint256",
          "name": "inputAmount",
          "type": "uint256"
        },
        {
          "indexed": false,
          "internalType": "uint256",
          "name": "outputAmount",
          "type": "uint256"
        },
        {
          "indexed": false,
          "internalType": "uint256",
          "name": "repaymentChainId",
          "type": "uint256"
        },
        {
          "indexed": true,
          "internalType": "uint256",
          "name": "originChainId",
          "type": "uint256"
        },
        {
          "indexed": true,
          "internalType": "uint256",
          "name": "depositId",
          "type": "uint256"
        },
        {
          "indexed": false,
          "internalType": "uint32",
          "name": "fillDeadline",
          "type": "uint32"
        },
        {
          "indexed": false,
          "internalType": "uint32",
          "name": "exclusivityDeadline",
          "type": "uint32"
        },
        {
          "indexed": false,
          "internalType": "bytes32",
          "name": "exclusiveRelayer",
          "type": "bytes32"
        },
        {
          "indexed": true,
          "internalType": "bytes32",
          "name": "relayer",
          "type": "bytes32"
        },
        {
          "indexed": false,
          "internalType": "bytes32",
          "name": "depositor",
          "type": "bytes32"
        },
        {
          "indexed": false,
          "internalType": "bytes32",
          "name": "recipient",
          "type": "bytes32"
        },
        {
          "indexed": false,
          "internalType": "bytes32",
          "name": "messageHash",
          "type": "bytes32"
        },
        {
          "components": [
            {
              "internalType": "bytes32",
              "name": "updatedRecipient",
              "type": "bytes32"
            },
            {
              "internalType": "bytes32",
              "name": "updatedMessageHash",
              "type": "bytes32"
            },
            {
              "internalType": "uint256",
              "name": "updatedOutputAmount",
              "type": "uint256"
            },
            {
              "internalType": "enum V3SpokePoolInterface.FillType",
              "name": "fillType",
              "type": "uint8"
            }
          ],
          "indexed": false,
          "internalType": "struct V3SpokePoolInterface.V3RelayExecutionEventInfo",
          "name": "relayExecutionInfo",
          "type": "tuple"
        }
      ],
      "name": "FilledRelay",
      "type": "event"
    },
    {
      "anonymous": false,
      "inputs": [
        {
          "indexed": false,
          "internalType": "address",
          "name": "inputToken",
          "type": "address"
        },
        {
          "indexed": false,
          "internalType": "address",
          "name": "outputToken",
          "type": "address"
        },
        {
          "indexed": false,
          "internalType": "uint256",
          "name": "inputAmount",
          "type": "uint256"
        },
        {
          "indexed": false,
          "internalType": "uint256",
          "name": "outputAmount",
          "type": "uint256"
        },
        {
          "indexed": false,
          "internalType": "uint256",
          "name": "repaymentChainId",
          "type": "uint256"
        },
        {
          "indexed": true,
          "internalType": "uint256",
          "name": "originChainId",
          "type": "uint256"
        },
        {
          "indexed": true,
          "internalType": "uint32",
          "name": "depositId",
          "type": "uint32"
        },
        {
          "indexed": false,
          "internalType": "uint32",
          "name": "fillDeadline",
          "type": "uint32"
        },
        {
          "indexed": false,
          "internalType": "uint32",
          "name": "exclusivityDeadline",
          "type": "uint32"
        },
        {
          "indexed": false,
          "internalType": "address",
          "name": "exclusiveRelayer",
          "type": "address"
        },
        {
          "indexed": true,
          "internalType": "address",
          "name": "relayer",
          "type": "address"
        },
        {
          "indexed": false,
          "internalType": "address",
          "name": "depositor",
          "type": "address"
        },
        {
          "indexed": false,
          "internalType": "address",
          "name": "recipient",
          "type": "address"
        },
        {
          "indexed": false,
          "internalType": "bytes",
          "name": "message",
          "type": "bytes"
        },
        {
          "components": [
            {
              "internalType": "address",
              "name": "updatedRecipient",
              "type": "address"
            },
            {
              "internalType": "bytes",
              "name": "updatedMessage",
              "type": "bytes"
            },
            {
              "internalType": "uint256",
              "name": "updatedOutputAmount",
              "type": "uint256"
            },
            {
              "internalType": "enum V3SpokePoolInterface.FillType",
              "name": "fillType",
              "type": "uint8"
            }
          ],
          "indexed": false,
          "internalType": "struct V3SpokePoolInterface.LegacyV3RelayExecutionEventInfo",
          "name": "relayExecutionInfo",
          "type": "tuple"
        }
      ],
      "name": "FilledV3Relay",
      "type": "event"
    },
    {
      "anonymous": false,
      "inputs": [
        {
          "indexed": false,
          "internalType": "bytes32",
          "name": "inputToken",
          "type": "bytes32"
        },
        {
          "indexed": false,
          "internalType": "bytes32",
          "name": "outputToken",
          "type": "bytes32"
        },
        {
          "indexed": false,
          "internalType": "uint256",
          "name": "inputAmount",
          "type": "uint256"
        },
        {
          "indexed": false,
          "internalType": "uint256",
          "name": "outputAmount",
          "type": "uint256"
        },
        {
          "indexed": true,
          "internalType": "uint256",
          "name": "destinationChainId",
          "type": "uint256"
        },
        {
          "indexed": true,
          "internalType": "uint256",
          "name": "depositId",
          "type": "uint256"
        },
        {
          "indexed": false,
          "internalType": "uint32",
          "name": "quoteTimestamp",
          "type": "uint32"
        },
        {
          "indexed": false,
          "internalType": "uint32",
          "name": "fillDeadline",
          "type": "uint32"
        },
        {
          "indexed": false,
          "internalType": "uint32",
          "name": "exclusivityDeadline",
          "type": "uint32"
        },
        {
          "indexed": true,
          "internalType": "bytes32",
          "name": "depositor",
          "type": "bytes32"
        },
        {
          "indexed": false,
          "internalType": "bytes32",
          "name": "recipient",
          "type": "bytes32"
        },
        {
          "indexed": false,
          "internalType": "bytes32",
          "name": "exclusiveRelayer",
          "type": "bytes32"
        },
        {
          "indexed": false,
          "internalType": "bytes",
          "name": "message",
          "type": "bytes"
        }
      ],
      "name": "FundsDeposited",
      "type": "event"
    },
    {
      "anonymous": false,
      "inputs": [
        {
          "indexed": false,
          "internalType": "uint8",
          "name": "version",
          "type": "uint8"
        }
      ],
      "name": "Initialized",
      "type": "event"
    },
    {
      "anonymous": false,
      "inputs": [
        {
          "indexed": false,
          "internalType": "bool",
          "name": "isPaused",
          "type": "bool"
        }
      ],
      "name": "PausedDeposits",
      "type": "event"
    },
    {
      "anonymous": false,
      "inputs": [
        {
          "indexed": false,
          "internalType": "bool",
          "name": "isPaused",
          "type": "bool"
        }
      ],
      "name": "PausedFills",
      "type": "event"
    },
    {
      "anonymous": false,
      "inputs": [
        {
          "indexed": true,
          "internalType": "uint32",
          "name": "rootBundleId",
          "type": "uint32"
        },
        {
          "indexed": true,
          "internalType": "bytes32",
          "name": "relayerRefundRoot",
          "type": "bytes32"
        },
        {
          "indexed": true,
          "internalType": "bytes32",
          "name": "slowRelayRoot",
          "type": "bytes32"
        }
      ],
      "name": "RelayedRootBundle",
      "type": "event"
    },
    {
      "anonymous": false,
      "inputs": [
        {
          "indexed": false,
          "internalType": "bytes32",
          "name": "inputToken",
          "type": "bytes32"
        },
        {
          "indexed": false,
          "internalType": "bytes32",
          "name": "outputToken",
          "type": "bytes32"
        },
        {
          "indexed": false,
          "internalType": "uint256",
          "name": "inputAmount",
          "type": "uint256"
        },
        {
          "indexed": false,
          "internalType": "uint256",
          "name": "outputAmount",
          "type": "uint256"
        },
        {
          "indexed": true,
          "internalType": "uint256",
          "name": "originChainId",
          "type": "uint256"
        },
        {
          "indexed": true,
          "internalType": "uint256",
          "name": "depositId",
          "type": "uint256"
        },
        {
          "indexed": false,
          "internalType": "uint32",
          "name": "fillDeadline",
          "type": "uint32"
        },
        {
          "indexed": false,
          "internalType": "uint32",
          "name": "exclusivityDeadline",
          "type": "uint32"
        },
        {
          "indexed": false,
          "internalType": "bytes32",
          "name": "exclusiveRelayer",
          "type": "bytes32"
        },
        {
          "indexed": false,
          "internalType": "bytes32",
          "name": "depositor",
          "type": "bytes32"
        },
        {
          "indexed": false,
          "internalType": "bytes32",
          "name": "recipient",
          "type": "bytes32"
        },
        {
          "indexed": false,
          "internalType": "bytes32",
          "name": "messageHash",
          "type": "bytes32"
        }
      ],
      "name": "RequestedSlowFill",
      "type": "event"
    },
    {
      "anonymous": false,
      "inputs": [
        {
          "indexed": false,
          "internalType": "uint256",
          "name": "updatedOutputAmount",
          "type": "uint256"
        },
        {
          "indexed": true,
          "internalType": "uint256",
          "name": "depositId",
          "type": "uint256"
        },
        {
          "indexed": true,
          "internalType": "bytes32",
          "name": "depositor",
          "type": "bytes32"
        },
        {
          "indexed": false,
          "internalType": "bytes32",
          "name": "updatedRecipient",
          "type": "bytes32"
        },
        {
          "indexed": false,
          "internalType": "bytes",
          "name": "updatedMessage",
          "type": "bytes"
        },
        {
          "indexed": false,
          "internalType": "bytes",
          "name": "depositorSignature",
          "type": "bytes"
        }
      ],
      "name": "RequestedSpeedUpDeposit",
      "type": "event"
    },
    {
      "anonymous": false,
      "inputs": [
        {
          "indexed": false,
          "internalType": "uint256",
          "name": "updatedOutputAmount",
          "type": "uint256"
        },
        {
          "indexed": true,
          "internalType": "uint32",
          "name": "depositId",
          "type": "uint32"
        },
        {
          "indexed": true,
          "internalType": "address",
          "name": "depositor",
          "type": "address"
        },
        {
          "indexed": false,
          "internalType": "address",
          "name": "updatedRecipient",
          "type": "address"
        },
        {
          "indexed": false,
          "internalType": "bytes",
          "name": "updatedMessage",
          "type": "bytes"
        },
        {
          "indexed": false,
          "internalType": "bytes",
          "name": "depositorSignature",
          "type": "bytes"
        }
      ],
      "name": "RequestedSpeedUpV3Deposit",
      "type": "event"
    },
    {
      "anonymous": false,
      "inputs": [
        {
          "indexed": false,
          "internalType": "address",
          "name": "inputToken",
          "type": "address"
        },
        {
          "indexed": false,
          "internalType": "address",
          "name": "outputToken",
          "type": "address"
        },
        {
          "indexed": false,
          "internalType": "uint256",
          "name": "inputAmount",
          "type": "uint256"
        },
        {
          "indexed": false,
          "internalType": "uint256",
          "name": "outputAmount",
          "type": "uint256"
        },
        {
          "indexed": true,
          "internalType": "uint256",
          "name": "originChainId",
          "type": "uint256"
        },
        {
          "indexed": true,
          "internalType": "uint32",
          "name": "depositId",
          "type": "uint32"
        },
        {
          "indexed": false,
          "internalType": "uint32",
          "name": "fillDeadline",
          "type": "uint32"
        },
        {
          "indexed": false,
          "internalType": "uint32",
          "name": "exclusivityDeadline",
          "type": "uint32"
        },
        {
          "indexed": false,
          "internalType": "address",
          "name": "exclusiveRelayer",
          "type": "address"
        },
        {
          "indexed": false,
          "internalType": "address",
          "name": "depositor",
          "type": "address"
        },
        {
          "indexed": false,
          "internalType": "address",
          "name": "recipient",
          "type": "address"
        },
        {
          "indexed": false,
          "internalType": "bytes",
          "name": "message",
          "type": "bytes"
        }
      ],
      "name": "RequestedV3SlowFill",
      "type": "event"
    },
    {
      "anonymous": false,
      "inputs": [
        {
          "indexed": true,
          "internalType": "address",
          "name": "newGatewayRouter",
          "type": "address"
        },
        {
          "indexed": false,
          "internalType": "address",
          "name": "oldGatewayRouter",
          "type": "address"
        }
      ],
      "name": "SetL2GatewayRouter",
      "type": "event"
    },
    {
      "anonymous": false,
      "inputs": [
        {
          "indexed": true,
          "internalType": "address",
          "name": "newScrollMessenger",
          "type": "address"
        },
        {
          "indexed": false,
          "internalType": "address",
          "name": "oldScrollMessenger",
          "type": "address"
        }
      ],
      "name": "SetL2ScrollMessenger",
      "type": "event"
    },
    {
      "anonymous": false,
      "inputs": [
        {
          "indexed": true,
          "internalType": "address",
          "name": "newWithdrawalRecipient",
          "type": "address"
        }
      ],
      "name": "SetWithdrawalRecipient",
      "type": "event"
    },
    {
      "anonymous": false,
      "inputs": [
        {
          "indexed": true,
          "internalType": "address",
          "name": "newAdmin",
          "type": "address"
        }
      ],
      "name": "SetXDomainAdmin",
      "type": "event"
    },
    {
      "anonymous": false,
      "inputs": [
        {
          "indexed": false,
          "internalType": "uint256",
          "name": "amountToReturn",
          "type": "uint256"
        },
        {
          "indexed": true,
          "internalType": "uint256",
          "name": "chainId",
          "type": "uint256"
        },
        {
          "indexed": true,
          "internalType": "uint32",
          "name": "leafId",
          "type": "uint32"
        },
        {
          "indexed": true,
          "internalType": "bytes32",
          "name": "l2TokenAddress",
          "type": "bytes32"
        },
        {
          "indexed": false,
          "internalType": "address",
          "name": "caller",
          "type": "address"
        }
      ],
      "name": "TokensBridged",
      "type": "event"
    },
    {
      "anonymous": false,
      "inputs": [
        {
          "indexed": true,
          "internalType": "address",
          "name": "implementation",
          "type": "address"
        }
      ],
      "name": "Upgraded",
      "type": "event"
    },
    {
      "anonymous": false,
      "inputs": [
        {
          "indexed": false,
          "internalType": "address",
          "name": "inputToken",
          "type": "address"
        },
        {
          "indexed": false,
          "internalType": "address",
          "name": "outputToken",
          "type": "address"
        },
        {
          "indexed": false,
          "internalType": "uint256",
          "name": "inputAmount",
          "type": "uint256"
        },
        {
          "indexed": false,
          "internalType": "uint256",
          "name": "outputAmount",
          "type": "uint256"
        },
        {
          "indexed": true,
          "internalType": "uint256",
          "name": "destinationChainId",
          "type": "uint256"
        },
        {
          "indexed": true,
          "internalType": "uint32",
          "name": "depositId",
          "type": "uint32"
        },
        {
          "indexed": false,
          "internalType": "uint32",
          "name": "quoteTimestamp",
          "type": "uint32"
        },
        {
          "indexed": false,
          "internalType": "uint32",
          "name": "fillDeadline",
          "type": "uint32"
        },
        {
          "indexed": false,
          "internalType": "uint32",
          "name": "exclusivityDeadline",
          "type": "uint32"
        },
        {
          "indexed": true,
          "internalType": "address",
          "name": "depositor",
          "type": "address"
        },
        {
          "indexed": false,
          "internalType": "address",
          "name": "recipient",
          "type": "address"
        },
        {
          "indexed": false,
          "internalType": "address",
          "name": "exclusiveRelayer",
          "type": "address"
        },
        {
          "indexed": false,
          "internalType": "bytes",
          "name": "message",
          "type": "bytes"
        }
      ],
      "name": "V3FundsDeposited",
      "type": "event"
    },
    {
      "inputs": [],
      "name": "EMPTY_RELAYER",
      "outputs": [
        {
          "internalType": "bytes32",
          "name": "",
          "type": "bytes32"
        }
      ],
      "stateMutability": "view",
      "type": "function"
    },
    {
      "inputs": [],
      "name": "EMPTY_REPAYMENT_CHAIN_ID",
      "outputs": [
        {
          "internalType": "uint256",
          "name": "",
          "type": "uint256"
        }
      ],
      "stateMutability": "view",
      "type": "function"
    },
    {
      "inputs": [],
      "name": "INFINITE_FILL_DEADLINE",
      "outputs": [
        {
          "internalType": "uint32",
          "name": "",
          "type": "uint32"
        }
      ],
      "stateMutability": "view",
      "type": "function"
    },
    {
      "inputs": [],
      "name": "MAX_EXCLUSIVITY_PERIOD_SECONDS",
      "outputs": [
        {
          "internalType": "uint32",
          "name": "",
          "type": "uint32"
        }
      ],
      "stateMutability": "view",
      "type": "function"
    },
    {
      "inputs": [],
      "name": "MAX_TRANSFER_SIZE",
      "outputs": [
        {
          "internalType": "uint256",
          "name": "",
          "type": "uint256"
        }
      ],
      "stateMutability": "view",
      "type": "function"
    },
    {
      "inputs": [],
      "name": "UPDATE_ADDRESS_DEPOSIT_DETAILS_HASH",
      "outputs": [
        {
          "internalType": "bytes32",
          "name": "",
          "type": "bytes32"
        }
      ],
      "stateMutability": "view",
      "type": "function"
    },
    {
      "inputs": [],
      "name": "UPDATE_BYTES32_DEPOSIT_DETAILS_HASH",
      "outputs": [
        {
          "internalType": "bytes32",
          "name": "",
          "type": "bytes32"
        }
      ],
      "stateMutability": "view",
      "type": "function"
    },
    {
      "inputs": [
        {
          "internalType": "uint32",
          "name": "_initialDepositId",
          "type": "uint32"
        },
        {
          "internalType": "address",
          "name": "_crossDomainAdmin",
          "type": "address"
        },
        {
          "internalType": "address",
          "name": "_withdrawalRecipient",
          "type": "address"
        }
      ],
      "name": "__SpokePool_init",
      "outputs": [],
      "stateMutability": "nonpayable",
      "type": "function"
    },
    {
      "inputs": [],
      "name": "chainId",
      "outputs": [
        {
          "internalType": "uint256",
          "name": "",
          "type": "uint256"
        }
      ],
      "stateMutability": "view",
      "type": "function"
    },
    {
      "inputs": [
        {
          "internalType": "bytes32",
          "name": "l2TokenAddress",
          "type": "bytes32"
        },
        {
          "internalType": "bytes32",
          "name": "refundAddress",
          "type": "bytes32"
        }
      ],
      "name": "claimRelayerRefund",
      "outputs": [],
      "stateMutability": "nonpayable",
      "type": "function"
    },
    {
      "inputs": [],
      "name": "crossDomainAdmin",
      "outputs": [
        {
          "internalType": "address",
          "name": "",
          "type": "address"
        }
      ],
      "stateMutability": "view",
      "type": "function"
    },
    {
      "inputs": [
        {
          "internalType": "bytes32",
          "name": "depositor",
          "type": "bytes32"
        },
        {
          "internalType": "bytes32",
          "name": "recipient",
          "type": "bytes32"
        },
        {
          "internalType": "bytes32",
          "name": "inputToken",
          "type": "bytes32"
        },
        {
          "internalType": "bytes32",
          "name": "outputToken",
          "type": "bytes32"
        },
        {
          "internalType": "uint256",
          "name": "inputAmount",
          "type": "uint256"
        },
        {
          "internalType": "uint256",
          "name": "outputAmount",
          "type": "uint256"
        },
        {
          "internalType": "uint256",
          "name": "destinationChainId",
          "type": "uint256"
        },
        {
          "internalType": "bytes32",
          "name": "exclusiveRelayer",
          "type": "bytes32"
        },
        {
          "internalType": "uint32",
          "name": "quoteTimestamp",
          "type": "uint32"
        },
        {
          "internalType": "uint32",
          "name": "fillDeadline",
          "type": "uint32"
        },
        {
          "internalType": "uint32",
          "name": "exclusivityParameter",
          "type": "uint32"
        },
        {
          "internalType": "bytes",
          "name": "message",
          "type": "bytes"
        }
      ],
      "name": "deposit",
      "outputs": [],
      "stateMutability": "payable",
      "type": "function"
    },
    {
      "inputs": [
        {
          "internalType": "address",
          "name": "recipient",
          "type": "address"
        },
        {
          "internalType": "address",
          "name": "originToken",
          "type": "address"
        },
        {
          "internalType": "uint256",
          "name": "amount",
          "type": "uint256"
        },
        {
          "internalType": "uint256",
          "name": "destinationChainId",
          "type": "uint256"
        },
        {
          "internalType": "int64",
          "name": "relayerFeePct",
          "type": "int64"
        },
        {
          "internalType": "uint32",
          "name": "quoteTimestamp",
          "type": "uint32"
        },
        {
          "internalType": "bytes",
          "name": "message",
          "type": "bytes"
        },
        {
          "internalType": "uint256",
          "name": "",
          "type": "uint256"
        }
      ],
      "name": "depositDeprecated_5947912356",
      "outputs": [],
      "stateMutability": "payable",
      "type": "function"
    },
    {
      "inputs": [
        {
          "internalType": "address",
          "name": "depositor",
          "type": "address"
        },
        {
          "internalType": "address",
          "name": "recipient",
          "type": "address"
        },
        {
          "internalType": "address",
          "name": "originToken",
          "type": "address"
        },
        {
          "internalType": "uint256",
          "name": "amount",
          "type": "uint256"
        },
        {
          "internalType": "uint256",
          "name": "destinationChainId",
          "type": "uint256"
        },
        {
          "internalType": "int64",
          "name": "relayerFeePct",
          "type": "int64"
        },
        {
          "internalType": "uint32",
          "name": "quoteTimestamp",
          "type": "uint32"
        },
        {
          "internalType": "bytes",
          "name": "message",
          "type": "bytes"
        },
        {
          "internalType": "uint256",
          "name": "",
          "type": "uint256"
        }
      ],
      "name": "depositFor",
      "outputs": [],
      "stateMutability": "payable",
      "type": "function"
    },
    {
      "inputs": [
        {
          "internalType": "bytes32",
          "name": "depositor",
          "type": "bytes32"
        },
        {
          "internalType": "bytes32",
          "name": "recipient",
          "type": "bytes32"
        },
        {
          "internalType": "bytes32",
          "name": "inputToken",
          "type": "bytes32"
        },
        {
          "internalType": "bytes32",
          "name": "outputToken",
          "type": "bytes32"
        },
        {
          "internalType": "uint256",
          "name": "inputAmount",
          "type": "uint256"
        },
        {
          "internalType": "uint256",
          "name": "outputAmount",
          "type": "uint256"
        },
        {
          "internalType": "uint256",
          "name": "destinationChainId",
          "type": "uint256"
        },
        {
          "internalType": "bytes32",
          "name": "exclusiveRelayer",
          "type": "bytes32"
        },
        {
          "internalType": "uint32",
          "name": "fillDeadlineOffset",
          "type": "uint32"
        },
        {
          "internalType": "uint32",
          "name": "exclusivityParameter",
          "type": "uint32"
        },
        {
          "internalType": "bytes",
          "name": "message",
          "type": "bytes"
        }
      ],
      "name": "depositNow",
      "outputs": [],
      "stateMutability": "payable",
      "type": "function"
    },
    {
      "inputs": [],
      "name": "depositQuoteTimeBuffer",
      "outputs": [
        {
          "internalType": "uint32",
          "name": "",
          "type": "uint32"
        }
      ],
      "stateMutability": "view",
      "type": "function"
    },
    {
      "inputs": [
        {
          "internalType": "address",
          "name": "depositor",
          "type": "address"
        },
        {
          "internalType": "address",
          "name": "recipient",
          "type": "address"
        },
        {
          "internalType": "address",
          "name": "inputToken",
          "type": "address"
        },
        {
          "internalType": "address",
          "name": "outputToken",
          "type": "address"
        },
        {
          "internalType": "uint256",
          "name": "inputAmount",
          "type": "uint256"
        },
        {
          "internalType": "uint256",
          "name": "outputAmount",
          "type": "uint256"
        },
        {
          "internalType": "uint256",
          "name": "destinationChainId",
          "type": "uint256"
        },
        {
          "internalType": "address",
          "name": "exclusiveRelayer",
          "type": "address"
        },
        {
          "internalType": "uint32",
          "name": "quoteTimestamp",
          "type": "uint32"
        },
        {
          "internalType": "uint32",
          "name": "fillDeadline",
          "type": "uint32"
        },
        {
          "internalType": "uint32",
          "name": "exclusivityParameter",
          "type": "uint32"
        },
        {
          "internalType": "bytes",
          "name": "message",
          "type": "bytes"
        }
      ],
      "name": "depositV3",
      "outputs": [],
      "stateMutability": "payable",
      "type": "function"
    },
    {
      "inputs": [
        {
          "internalType": "address",
          "name": "depositor",
          "type": "address"
        },
        {
          "internalType": "address",
          "name": "recipient",
          "type": "address"
        },
        {
          "internalType": "address",
          "name": "inputToken",
          "type": "address"
        },
        {
          "internalType": "address",
          "name": "outputToken",
          "type": "address"
        },
        {
          "internalType": "uint256",
          "name": "inputAmount",
          "type": "uint256"
        },
        {
          "internalType": "uint256",
          "name": "outputAmount",
          "type": "uint256"
        },
        {
          "internalType": "uint256",
          "name": "destinationChainId",
          "type": "uint256"
        },
        {
          "internalType": "address",
          "name": "exclusiveRelayer",
          "type": "address"
        },
        {
          "internalType": "uint32",
          "name": "fillDeadlineOffset",
          "type": "uint32"
        },
        {
          "internalType": "uint32",
          "name": "exclusivityParameter",
          "type": "uint32"
        },
        {
          "internalType": "bytes",
          "name": "message",
          "type": "bytes"
        }
      ],
      "name": "depositV3Now",
      "outputs": [],
      "stateMutability": "payable",
      "type": "function"
    },
    {
      "inputs": [
        {
          "internalType": "uint256",
          "name": "rootBundleId",
          "type": "uint256"
        }
      ],
      "name": "emergencyDeleteRootBundle",
      "outputs": [],
      "stateMutability": "nonpayable",
      "type": "function"
    },
    {
      "inputs": [
        {
          "internalType": "address",
          "name": "",
          "type": "address"
        },
        {
          "internalType": "uint256",
          "name": "",
          "type": "uint256"
        }
      ],
      "name": "enabledDepositRoutes",
      "outputs": [
        {
          "internalType": "bool",
          "name": "",
          "type": "bool"
        }
      ],
      "stateMutability": "view",
      "type": "function"
    },
    {
      "inputs": [
        {
          "internalType": "uint32",
          "name": "rootBundleId",
          "type": "uint32"
        },
        {
          "components": [
            {
              "internalType": "uint256",
              "name": "amountToReturn",
              "type": "uint256"
            },
            {
              "internalType": "uint256",
              "name": "chainId",
              "type": "uint256"
            },
            {
              "internalType": "uint256[]",
              "name": "refundAmounts",
              "type": "uint256[]"
            },
            {
              "internalType": "uint32",
              "name": "leafId",
              "type": "uint32"
            },
            {
              "internalType": "address",
              "name": "l2TokenAddress",
              "type": "address"
            },
            {
              "internalType": "address[]",
              "name": "refundAddresses",
              "type": "address[]"
            }
          ],
          "internalType": "struct SpokePoolInterface.RelayerRefundLeaf",
          "name": "relayerRefundLeaf",
          "type": "tuple"
        },
        {
          "internalType": "bytes32[]",
          "name": "proof",
          "type": "bytes32[]"
        }
      ],
      "name": "executeRelayerRefundLeaf",
      "outputs": [],
      "stateMutability": "payable",
      "type": "function"
    },
    {
      "inputs": [
        {
          "components": [
            {
              "components": [
                {
                  "internalType": "bytes32",
                  "name": "depositor",
                  "type": "bytes32"
                },
                {
                  "internalType": "bytes32",
                  "name": "recipient",
                  "type": "bytes32"
                },
                {
                  "internalType": "bytes32",
                  "name": "exclusiveRelayer",
                  "type": "bytes32"
                },
                {
                  "internalType": "bytes32",
                  "name": "inputToken",
                  "type": "bytes32"
                },
                {
                  "internalType": "bytes32",
                  "name": "outputToken",
                  "type": "bytes32"
                },
                {
                  "internalType": "uint256",
                  "name": "inputAmount",
                  "type": "uint256"
                },
                {
                  "internalType": "uint256",
                  "name": "outputAmount",
                  "type": "uint256"
                },
                {
                  "internalType": "uint256",
                  "name": "originChainId",
                  "type": "uint256"
                },
                {
                  "internalType": "uint256",
                  "name": "depositId",
                  "type": "uint256"
                },
                {
                  "internalType": "uint32",
                  "name": "fillDeadline",
                  "type": "uint32"
                },
                {
                  "internalType": "uint32",
                  "name": "exclusivityDeadline",
                  "type": "uint32"
                },
                {
                  "internalType": "bytes",
                  "name": "message",
                  "type": "bytes"
                }
              ],
              "internalType": "struct V3SpokePoolInterface.V3RelayData",
              "name": "relayData",
              "type": "tuple"
            },
            {
              "internalType": "uint256",
              "name": "chainId",
              "type": "uint256"
            },
            {
              "internalType": "uint256",
              "name": "updatedOutputAmount",
              "type": "uint256"
            }
          ],
          "internalType": "struct V3SpokePoolInterface.V3SlowFill",
          "name": "slowFillLeaf",
          "type": "tuple"
        },
        {
          "internalType": "uint32",
          "name": "rootBundleId",
          "type": "uint32"
        },
        {
          "internalType": "bytes32[]",
          "name": "proof",
          "type": "bytes32[]"
        }
      ],
      "name": "executeSlowRelayLeaf",
      "outputs": [],
      "stateMutability": "nonpayable",
      "type": "function"
    },
    {
      "inputs": [
        {
          "internalType": "bytes32",
          "name": "orderId",
          "type": "bytes32"
        },
        {
          "internalType": "bytes",
          "name": "originData",
          "type": "bytes"
        },
        {
          "internalType": "bytes",
          "name": "fillerData",
          "type": "bytes"
        }
      ],
      "name": "fill",
      "outputs": [],
      "stateMutability": "nonpayable",
      "type": "function"
    },
    {
      "inputs": [],
      "name": "fillDeadlineBuffer",
      "outputs": [
        {
          "internalType": "uint32",
          "name": "",
          "type": "uint32"
        }
      ],
      "stateMutability": "view",
      "type": "function"
    },
    {
      "inputs": [
        {
          "components": [
            {
              "internalType": "bytes32",
              "name": "depositor",
              "type": "bytes32"
            },
            {
              "internalType": "bytes32",
              "name": "recipient",
              "type": "bytes32"
            },
            {
              "internalType": "bytes32",
              "name": "exclusiveRelayer",
              "type": "bytes32"
            },
            {
              "internalType": "bytes32",
              "name": "inputToken",
              "type": "bytes32"
            },
            {
              "internalType": "bytes32",
              "name": "outputToken",
              "type": "bytes32"
            },
            {
              "internalType": "uint256",
              "name": "inputAmount",
              "type": "uint256"
            },
            {
              "internalType": "uint256",
              "name": "outputAmount",
              "type": "uint256"
            },
            {
              "internalType": "uint256",
              "name": "originChainId",
              "type": "uint256"
            },
            {
              "internalType": "uint256",
              "name": "depositId",
              "type": "uint256"
            },
            {
              "internalType": "uint32",
              "name": "fillDeadline",
              "type": "uint32"
            },
            {
              "internalType": "uint32",
              "name": "exclusivityDeadline",
              "type": "uint32"
            },
            {
              "internalType": "bytes",
              "name": "message",
              "type": "bytes"
            }
          ],
          "internalType": "struct V3SpokePoolInterface.V3RelayData",
          "name": "relayData",
          "type": "tuple"
        },
        {
          "internalType": "uint256",
          "name": "repaymentChainId",
          "type": "uint256"
        },
        {
          "internalType": "bytes32",
          "name": "repaymentAddress",
          "type": "bytes32"
        }
      ],
      "name": "fillRelay",
      "outputs": [],
      "stateMutability": "nonpayable",
      "type": "function"
    },
    {
      "inputs": [
        {
          "components": [
            {
              "internalType": "bytes32",
              "name": "depositor",
              "type": "bytes32"
            },
            {
              "internalType": "bytes32",
              "name": "recipient",
              "type": "bytes32"
            },
            {
              "internalType": "bytes32",
              "name": "exclusiveRelayer",
              "type": "bytes32"
            },
            {
              "internalType": "bytes32",
              "name": "inputToken",
              "type": "bytes32"
            },
            {
              "internalType": "bytes32",
              "name": "outputToken",
              "type": "bytes32"
            },
            {
              "internalType": "uint256",
              "name": "inputAmount",
              "type": "uint256"
            },
            {
              "internalType": "uint256",
              "name": "outputAmount",
              "type": "uint256"
            },
            {
              "internalType": "uint256",
              "name": "originChainId",
              "type": "uint256"
            },
            {
              "internalType": "uint256",
              "name": "depositId",
              "type": "uint256"
            },
            {
              "internalType": "uint32",
              "name": "fillDeadline",
              "type": "uint32"
            },
            {
              "internalType": "uint32",
              "name": "exclusivityDeadline",
              "type": "uint32"
            },
            {
              "internalType": "bytes",
              "name": "message",
              "type": "bytes"
            }
          ],
          "internalType": "struct V3SpokePoolInterface.V3RelayData",
          "name": "relayData",
          "type": "tuple"
        },
        {
          "internalType": "uint256",
          "name": "repaymentChainId",
          "type": "uint256"
        },
        {
          "internalType": "bytes32",
          "name": "repaymentAddress",
          "type": "bytes32"
        },
        {
          "internalType": "uint256",
          "name": "updatedOutputAmount",
          "type": "uint256"
        },
        {
          "internalType": "bytes32",
          "name": "updatedRecipient",
          "type": "bytes32"
        },
        {
          "internalType": "bytes",
          "name": "updatedMessage",
          "type": "bytes"
        },
        {
          "internalType": "bytes",
          "name": "depositorSignature",
          "type": "bytes"
        }
      ],
      "name": "fillRelayWithUpdatedDeposit",
      "outputs": [],
      "stateMutability": "nonpayable",
      "type": "function"
    },
    {
      "inputs": [
        {
          "internalType": "bytes32",
          "name": "",
          "type": "bytes32"
        }
      ],
      "name": "fillStatuses",
      "outputs": [
        {
          "internalType": "uint256",
          "name": "",
          "type": "uint256"
        }
      ],
      "stateMutability": "view",
      "type": "function"
    },
    {
      "inputs": [
        {
          "components": [
            {
              "internalType": "address",
              "name": "depositor",
              "type": "address"
            },
            {
              "internalType": "address",
              "name": "recipient",
              "type": "address"
            },
            {
              "internalType": "address",
              "name": "exclusiveRelayer",
              "type": "address"
            },
            {
              "internalType": "address",
              "name": "inputToken",
              "type": "address"
            },
            {
              "internalType": "address",
              "name": "outputToken",
              "type": "address"
            },
            {
              "internalType": "uint256",
              "name": "inputAmount",
              "type": "uint256"
            },
            {
              "internalType": "uint256",
              "name": "outputAmount",
              "type": "uint256"
            },
            {
              "internalType": "uint256",
              "name": "originChainId",
              "type": "uint256"
            },
            {
              "internalType": "uint32",
              "name": "depositId",
              "type": "uint32"
            },
            {
              "internalType": "uint32",
              "name": "fillDeadline",
              "type": "uint32"
            },
            {
              "internalType": "uint32",
              "name": "exclusivityDeadline",
              "type": "uint32"
            },
            {
              "internalType": "bytes",
              "name": "message",
              "type": "bytes"
            }
          ],
          "internalType": "struct V3SpokePoolInterface.V3RelayDataLegacy",
          "name": "relayData",
          "type": "tuple"
        },
        {
          "internalType": "uint256",
          "name": "repaymentChainId",
          "type": "uint256"
        }
      ],
      "name": "fillV3Relay",
      "outputs": [],
      "stateMutability": "nonpayable",
      "type": "function"
    },
    {
      "inputs": [],
      "name": "getCurrentTime",
      "outputs": [
        {
          "internalType": "uint256",
          "name": "",
          "type": "uint256"
        }
      ],
      "stateMutability": "view",
      "type": "function"
    },
    {
      "inputs": [
        {
          "internalType": "address",
          "name": "l2TokenAddress",
          "type": "address"
        },
        {
          "internalType": "address",
          "name": "refundAddress",
          "type": "address"
        }
      ],
      "name": "getRelayerRefund",
      "outputs": [
        {
          "internalType": "uint256",
          "name": "",
          "type": "uint256"
        }
      ],
      "stateMutability": "view",
      "type": "function"
    },
    {
      "inputs": [
        {
          "internalType": "address",
          "name": "msgSender",
          "type": "address"
        },
        {
          "internalType": "bytes32",
          "name": "depositor",
          "type": "bytes32"
        },
        {
          "internalType": "uint256",
          "name": "depositNonce",
          "type": "uint256"
        }
      ],
      "name": "getUnsafeDepositId",
      "outputs": [
        {
          "internalType": "uint256",
          "name": "",
          "type": "uint256"
        }
      ],
      "stateMutability": "pure",
      "type": "function"
    },
    {
      "inputs": [
        {
          "components": [
            {
              "internalType": "bytes32",
              "name": "depositor",
              "type": "bytes32"
            },
            {
              "internalType": "bytes32",
              "name": "recipient",
              "type": "bytes32"
            },
            {
              "internalType": "bytes32",
              "name": "exclusiveRelayer",
              "type": "bytes32"
            },
            {
              "internalType": "bytes32",
              "name": "inputToken",
              "type": "bytes32"
            },
            {
              "internalType": "bytes32",
              "name": "outputToken",
              "type": "bytes32"
            },
            {
              "internalType": "uint256",
              "name": "inputAmount",
              "type": "uint256"
            },
            {
              "internalType": "uint256",
              "name": "outputAmount",
              "type": "uint256"
            },
            {
              "internalType": "uint256",
              "name": "originChainId",
              "type": "uint256"
            },
            {
              "internalType": "uint256",
              "name": "depositId",
              "type": "uint256"
            },
            {
              "internalType": "uint32",
              "name": "fillDeadline",
              "type": "uint32"
            },
            {
              "internalType": "uint32",
              "name": "exclusivityDeadline",
              "type": "uint32"
            },
            {
              "internalType": "bytes",
              "name": "message",
              "type": "bytes"
            }
          ],
          "internalType": "struct V3SpokePoolInterface.V3RelayData",
          "name": "relayData",
          "type": "tuple"
        }
      ],
      "name": "getV3RelayHash",
      "outputs": [
        {
          "internalType": "bytes32",
          "name": "",
          "type": "bytes32"
        }
      ],
      "stateMutability": "view",
      "type": "function"
    },
    {
      "inputs": [
        {
          "internalType": "contract IL2GatewayRouterExtended",
          "name": "_l2GatewayRouter",
          "type": "address"
        },
        {
          "internalType": "contract IScrollMessenger",
          "name": "_l2ScrollMessenger",
          "type": "address"
        },
        {
          "internalType": "uint32",
          "name": "_initialDepositId",
          "type": "uint32"
        },
        {
          "internalType": "address",
          "name": "_crossDomainAdmin",
          "type": "address"
        },
        {
          "internalType": "address",
          "name": "_withdrawalRecipient",
          "type": "address"
        }
      ],
      "name": "initialize",
      "outputs": [],
      "stateMutability": "nonpayable",
      "type": "function"
    },
    {
      "inputs": [],
      "name": "l2GatewayRouter",
      "outputs": [
        {
          "internalType": "contract IL2GatewayRouterExtended",
          "name": "",
          "type": "address"
        }
      ],
      "stateMutability": "view",
      "type": "function"
    },
    {
      "inputs": [],
      "name": "l2ScrollMessenger",
      "outputs": [
        {
          "internalType": "contract IScrollMessenger",
          "name": "",
          "type": "address"
        }
      ],
      "stateMutability": "view",
      "type": "function"
    },
    {
      "inputs": [
        {
          "internalType": "bytes[]",
          "name": "data",
          "type": "bytes[]"
        }
      ],
      "name": "multicall",
      "outputs": [
        {
          "internalType": "bytes[]",
          "name": "results",
          "type": "bytes[]"
        }
      ],
      "stateMutability": "nonpayable",
      "type": "function"
    },
    {
      "inputs": [],
      "name": "numberOfDeposits",
      "outputs": [
        {
          "internalType": "uint32",
          "name": "",
          "type": "uint32"
        }
      ],
      "stateMutability": "view",
      "type": "function"
    },
    {
      "inputs": [
        {
          "internalType": "bool",
          "name": "pause",
          "type": "bool"
        }
      ],
      "name": "pauseDeposits",
      "outputs": [],
      "stateMutability": "nonpayable",
      "type": "function"
    },
    {
      "inputs": [
        {
          "internalType": "bool",
          "name": "pause",
          "type": "bool"
        }
      ],
      "name": "pauseFills",
      "outputs": [],
      "stateMutability": "nonpayable",
      "type": "function"
    },
    {
      "inputs": [],
      "name": "pausedDeposits",
      "outputs": [
        {
          "internalType": "bool",
          "name": "",
          "type": "bool"
        }
      ],
      "stateMutability": "view",
      "type": "function"
    },
    {
      "inputs": [],
      "name": "pausedFills",
      "outputs": [
        {
          "internalType": "bool",
          "name": "",
          "type": "bool"
        }
      ],
      "stateMutability": "view",
      "type": "function"
    },
    {
      "inputs": [],
      "name": "proxiableUUID",
      "outputs": [
        {
          "internalType": "bytes32",
          "name": "",
          "type": "bytes32"
        }
      ],
      "stateMutability": "view",
      "type": "function"
    },
    {
      "inputs": [
        {
          "internalType": "bytes32",
          "name": "relayerRefundRoot",
          "type": "bytes32"
        },
        {
          "internalType": "bytes32",
          "name": "slowRelayRoot",
          "type": "bytes32"
        }
      ],
      "name": "relayRootBundle",
      "outputs": [],
      "stateMutability": "nonpayable",
      "type": "function"
    },
    {
      "inputs": [
        {
          "internalType": "address",
          "name": "",
          "type": "address"
        },
        {
          "internalType": "address",
          "name": "",
          "type": "address"
        }
      ],
      "name": "relayerRefund",
      "outputs": [
        {
          "internalType": "uint256",
          "name": "",
          "type": "uint256"
        }
      ],
      "stateMutability": "view",
      "type": "function"
    },
    {
      "inputs": [
        {
          "components": [
            {
              "internalType": "bytes32",
              "name": "depositor",
              "type": "bytes32"
            },
            {
              "internalType": "bytes32",
              "name": "recipient",
              "type": "bytes32"
            },
            {
              "internalType": "bytes32",
              "name": "exclusiveRelayer",
              "type": "bytes32"
            },
            {
              "internalType": "bytes32",
              "name": "inputToken",
              "type": "bytes32"
            },
            {
              "internalType": "bytes32",
              "name": "outputToken",
              "type": "bytes32"
            },
            {
              "internalType": "uint256",
              "name": "inputAmount",
              "type": "uint256"
            },
            {
              "internalType": "uint256",
              "name": "outputAmount",
              "type": "uint256"
            },
            {
              "internalType": "uint256",
              "name": "originChainId",
              "type": "uint256"
            },
            {
              "internalType": "uint256",
              "name": "depositId",
              "type": "uint256"
            },
            {
              "internalType": "uint32",
              "name": "fillDeadline",
              "type": "uint32"
            },
            {
              "internalType": "uint32",
              "name": "exclusivityDeadline",
              "type": "uint32"
            },
            {
              "internalType": "bytes",
              "name": "message",
              "type": "bytes"
            }
          ],
          "internalType": "struct V3SpokePoolInterface.V3RelayData",
          "name": "relayData",
          "type": "tuple"
        }
      ],
      "name": "requestSlowFill",
      "outputs": [],
      "stateMutability": "nonpayable",
      "type": "function"
    },
    {
      "inputs": [
        {
          "internalType": "uint256",
          "name": "",
          "type": "uint256"
        }
      ],
      "name": "rootBundles",
      "outputs": [
        {
          "internalType": "bytes32",
          "name": "slowRelayRoot",
          "type": "bytes32"
        },
        {
          "internalType": "bytes32",
          "name": "relayerRefundRoot",
          "type": "bytes32"
        }
      ],
      "stateMutability": "view",
      "type": "function"
    },
    {
      "inputs": [
        {
          "internalType": "address",
          "name": "newCrossDomainAdmin",
          "type": "address"
        }
      ],
      "name": "setCrossDomainAdmin",
      "outputs": [],
      "stateMutability": "nonpayable",
      "type": "function"
    },
    {
      "inputs": [
        {
          "internalType": "address",
          "name": "originToken",
          "type": "address"
        },
        {
          "internalType": "uint256",
          "name": "destinationChainId",
          "type": "uint256"
        },
        {
          "internalType": "bool",
          "name": "enabled",
          "type": "bool"
        }
      ],
      "name": "setEnableRoute",
      "outputs": [],
      "stateMutability": "nonpayable",
      "type": "function"
    },
    {
      "inputs": [
        {
          "internalType": "contract IL2GatewayRouterExtended",
          "name": "_l2GatewayRouter",
          "type": "address"
        }
      ],
      "name": "setL2GatewayRouter",
      "outputs": [],
      "stateMutability": "nonpayable",
      "type": "function"
    },
    {
      "inputs": [
        {
          "internalType": "contract IScrollMessenger",
          "name": "_l2ScrollMessenger",
          "type": "address"
        }
      ],
      "name": "setL2ScrollMessenger",
      "outputs": [],
      "stateMutability": "nonpayable",
      "type": "function"
    },
    {
      "inputs": [
        {
          "internalType": "address",
          "name": "newWithdrawalRecipient",
          "type": "address"
        }
      ],
      "name": "setWithdrawalRecipient",
      "outputs": [],
      "stateMutability": "nonpayable",
      "type": "function"
    },
    {
      "inputs": [
        {
          "internalType": "bytes32",
          "name": "depositor",
          "type": "bytes32"
        },
        {
          "internalType": "uint256",
          "name": "depositId",
          "type": "uint256"
        },
        {
          "internalType": "uint256",
          "name": "updatedOutputAmount",
          "type": "uint256"
        },
        {
          "internalType": "bytes32",
          "name": "updatedRecipient",
          "type": "bytes32"
        },
        {
          "internalType": "bytes",
          "name": "updatedMessage",
          "type": "bytes"
        },
        {
          "internalType": "bytes",
          "name": "depositorSignature",
          "type": "bytes"
        }
      ],
      "name": "speedUpDeposit",
      "outputs": [],
      "stateMutability": "nonpayable",
      "type": "function"
    },
    {
      "inputs": [
        {
          "internalType": "address",
          "name": "depositor",
          "type": "address"
        },
        {
          "internalType": "uint256",
          "name": "depositId",
          "type": "uint256"
        },
        {
          "internalType": "uint256",
          "name": "updatedOutputAmount",
          "type": "uint256"
        },
        {
          "internalType": "address",
          "name": "updatedRecipient",
          "type": "address"
        },
        {
          "internalType": "bytes",
          "name": "updatedMessage",
          "type": "bytes"
        },
        {
          "internalType": "bytes",
          "name": "depositorSignature",
          "type": "bytes"
        }
      ],
      "name": "speedUpV3Deposit",
      "outputs": [],
      "stateMutability": "nonpayable",
      "type": "function"
    },
    {
      "inputs": [
        {
          "internalType": "bytes[]",
          "name": "data",
          "type": "bytes[]"
        }
      ],
      "name": "tryMulticall",
      "outputs": [
        {
          "components": [
            {
              "internalType": "bool",
              "name": "success",
              "type": "bool"
            },
            {
              "internalType": "bytes",
              "name": "returnData",
              "type": "bytes"
            }
          ],
          "internalType": "struct MultiCallerUpgradeable.Result[]",
          "name": "results",
          "type": "tuple[]"
        }
      ],
      "stateMutability": "nonpayable",
      "type": "function"
    },
    {
      "inputs": [
        {
          "internalType": "bytes32",
          "name": "depositor",
          "type": "bytes32"
        },
        {
          "internalType": "bytes32",
          "name": "recipient",
          "type": "bytes32"
        },
        {
          "internalType": "bytes32",
          "name": "inputToken",
          "type": "bytes32"
        },
        {
          "internalType": "bytes32",
          "name": "outputToken",
          "type": "bytes32"
        },
        {
          "internalType": "uint256",
          "name": "inputAmount",
          "type": "uint256"
        },
        {
          "internalType": "uint256",
          "name": "outputAmount",
          "type": "uint256"
        },
        {
          "internalType": "uint256",
          "name": "destinationChainId",
          "type": "uint256"
        },
        {
          "internalType": "bytes32",
          "name": "exclusiveRelayer",
          "type": "bytes32"
        },
        {
          "internalType": "uint256",
          "name": "depositNonce",
          "type": "uint256"
        },
        {
          "internalType": "uint32",
          "name": "quoteTimestamp",
          "type": "uint32"
        },
        {
          "internalType": "uint32",
          "name": "fillDeadline",
          "type": "uint32"
        },
        {
          "internalType": "uint32",
          "name": "exclusivityParameter",
          "type": "uint32"
        },
        {
          "internalType": "bytes",
          "name": "message",
          "type": "bytes"
        }
      ],
      "name": "unsafeDeposit",
      "outputs": [],
      "stateMutability": "payable",
      "type": "function"
    },
    {
      "inputs": [
        {
          "internalType": "address",
          "name": "newImplementation",
          "type": "address"
        }
      ],
      "name": "upgradeTo",
      "outputs": [],
      "stateMutability": "nonpayable",
      "type": "function"
    },
    {
      "inputs": [
        {
          "internalType": "address",
          "name": "newImplementation",
          "type": "address"
        },
        {
          "internalType": "bytes",
          "name": "data",
          "type": "bytes"
        }
      ],
      "name": "upgradeToAndCall",
      "outputs": [],
      "stateMutability": "payable",
      "type": "function"
    },
    {
      "inputs": [],
      "name": "withdrawalRecipient",
      "outputs": [
        {
          "internalType": "address",
          "name": "",
          "type": "address"
        }
      ],
      "stateMutability": "view",
      "type": "function"
    },
    {
      "inputs": [],
      "name": "wrappedNativeToken",
      "outputs": [
        {
          "internalType": "contract WETH9Interface",
          "name": "",
          "type": "address"
        }
      ],
      "stateMutability": "view",
      "type": "function"
    },
    {
      "stateMutability": "payable",
      "type": "receive"
    }
  ],
  "numDeployments": 8,
  "solcInputHash": "f961b6be2e8e4ff9b3df0a853695c709",
  "bytecode": "0x610100346200015957601f62004e6638819003918201601f19168301916001600160401b038311848410176200015d57808492606094604052833981010312620001595780516001600160a01b038116919082900362000159576200007560406200006d6020840162000171565b920162000171565b913060805260a05260c05260e0525f5460ff8160081c16620001595760ff808216036200011e575b604051614ce29081620001848239608051818181610f11015281816112f2015261146c015260a0518181816107100152818161339c01528181613ac001528181613d5201528181614142015281816147c001526147e7015260c051818181611739015281816133500152614330015260e0518181816103ee01526140f00152f35b60ff90811916175f557f7f26b83ff96e1f2b6a682f133852f6798a09c465da95921460cefb3847402498602060405160ff8152a15f6200009d565b5f80fd5b634e487b7160e01b5f52604160045260245ffd5b519063ffffffff82168203620001595756fe6080604052600436101561001a575b3615610018575f80fd5b005b5f3560e01c8063079bd2c7146103bf5780631186ec33146103ba57806315348e441461034757806317fcb39b146103b55780631b3d5559146103b05780631fab657c146103ab578063272751c7146103a657806329cb924d146103a15780632e3781151461039c5780632e63e59a1461039757806333a84ff0146103925780633659cfe61461038d578063437b911614610388578063490e49ef14610383578063493a4f841461037e5780634e3485c8146103795780634f1ef286146103745780635249fef11461036f5780635285e0581461036a57806352d1902d14610365578063541f4f1414610360578063577f51f81461035b57806357f6dcb8146103565780636068d6cb14610351578063670fa8ac1461034c5780636bbbcd2e14610347578063738b62e5146103425780637aef642c1461033d5780637b939232146103385780637ef413e11461033357806382e2c43f1461032e5780638a7860ce146103295780638b15788e1461032457806397943aa91461031f578063979f2bc21461031a57806399cc2968146103155780639a8a059214610310578063a1244c671461030b578063a18a096e14610306578063ac9650d814610301578063ad5425c6146102fc578063adb5a6a6146102ac578063b370b7f5146102f7578063babb6aac146102f2578063c0e70bbd146102ed578063c35c83fc146102e8578063c8356859146102e3578063ceb4c987146102de578063d37ff494146102d9578063d7e1583a146102d4578063dda52113146102cf578063ddd224f1146102ca578063de7eba78146102c5578063deff4b24146102c0578063e9a045a2146102bb578063ea86bd46146102b6578063ee2a53f8146102b1578063f79f29ed146102ac5763fc8a584f0361000e5761288d565b612182565b61284f565b61274c565b612717565b612622565b6125f2565b6125c9565b6125a3565b61256d565b612379565b61235b565b612334565b612309565b6122e2565b61220b565b6121e4565b612046565b611fa6565b611e3f565b611e18565b611dfe565b611d69565b611c62565b611be2565b611b64565b611aec565b6119d1565b61199a565b6118f2565b611852565b6117bd565b6106d7565b611783565b61175d565b61171d565b61157f565b6114bc565b611452565b61142b565b6113dd565b6112af565b61127a565b6111f3565b6111d5565b611108565b610ee9565b610eaf565b610cb5565b610b55565b610b2c565b610a8d565b610988565b61087f565b6106f1565b610636565b6103d2565b5f9103126103ce57565b5f80fd5b346103ce575f3660031901126103ce57602060405163ffffffff7f0000000000000000000000000000000000000000000000000000000000000000168152f35b6001600160a01b038116036103ce57565b359061042e82610412565b565b63ffffffff8116036103ce57565b610144359061042e82610430565b359061042e82610430565b634e487b7160e01b5f52604160045260245ffd5b6040810190811067ffffffffffffffff82111761048757604052565b610457565b6101a0810190811067ffffffffffffffff82111761048757604052565b67ffffffffffffffff811161048757604052565b6060810190811067ffffffffffffffff82111761048757604052565b6080810190811067ffffffffffffffff82111761048757604052565b6020810190811067ffffffffffffffff82111761048757604052565b60e0810190811067ffffffffffffffff82111761048757604052565b60a0810190811067ffffffffffffffff82111761048757604052565b90601f8019910116810190811067ffffffffffffffff82111761048757604052565b6040519060c0820182811067ffffffffffffffff82111761048757604052565b60405190610180820182811067ffffffffffffffff82111761048757604052565b6040519061042e8261048c565b6040519061042e826104d9565b67ffffffffffffffff811161048757601f01601f191660200190565b9291926105ee826105c6565b916105fc6040519384610549565b8294818452818301116103ce578281602093845f960137010152565b9080601f830112156103ce57816020610633933591016105e2565b90565b6101003660031901126103ce5760043561064f81610412565b60243561065b81610412565b6084358060070b81036103ce5760a4359061067582610430565b60c43567ffffffffffffffff81116103ce57610695903690600401610618565b9261069e613249565b60ff61086b5460e81c166106c5576106be946064359160443591336132c4565b6001606555005b604051630b4cba3160e31b8152600490fd5b346103ce575f3660031901126103ce5760206040515f8152f35b346103ce575f3660031901126103ce5760206040516001600160a01b037f0000000000000000000000000000000000000000000000000000000000000000168152f35b67ffffffffffffffff81116104875760051b60200190565b9080601f830112156103ce57602090823561076681610734565b936107746040519586610549565b81855260208086019260051b8201019283116103ce57602001905b82821061079d575050505090565b8135815290830190830161078f565b9080601f830112156103ce5760209082356107c681610734565b936107d46040519586610549565b81855260208086019260051b8201019283116103ce57602001905b8282106107fd575050505090565b838091833561080b81610412565b8152019101906107ef565b929161082182610734565b9161082f6040519384610549565b829481845260208094019160051b81019283116103ce57905b8282106108555750505050565b81358152908301908301610848565b9080601f830112156103ce5781602061063393359101610816565b6003196060368201126103ce5760043561089881610430565b60243567ffffffffffffffff928382116103ce5760c09082360301126103ce576108c061056b565b90806004013582526024810135602083015260448101358481116103ce576108ee906004369184010161074c565b60408301526108ff6064820161044c565b606083015261091060848201610423565b608083015260a4810135908482116103ce57600461093192369201016107ac565b60a08201526044359283116103ce57610951610018933690600401610864565b916128bd565b9181601f840112156103ce5782359167ffffffffffffffff83116103ce576020808501948460051b0101116103ce57565b346103ce576003196060368201126103ce5760043567ffffffffffffffff8082116103ce576060823603938401126103ce57602435906109c782610430565b6044359081116103ce576109df903690600401610957565b9190936109ea613249565b60048401359061018219018112156103ce57610a7994610a7493610a17610a6d9360043691890101612491565b95610a2560808801516137ec565b50610a2f8761317c565b9060446020890151916101608a015193610a4761056b565b9a8b5260208b015201356040890152606088015260808701525f60a08701523691610816565b9083613802565b613953565b6100186001606555565b801515036103ce57565b346103ce5760603660031901126103ce57600435610aaa81610412565b602435907f0a21fdd43d0ad0c62689ee7230a47309a050755bcc52eba00310add65297692a60206001600160a01b0360443593610ae685610a83565b610aee613e3d565b610af6613249565b1692835f5261086d825260405f20855f52825260405f209015159060ff1981541660ff8316179055604051908152a36001606555005b346103ce575f3660031901126103ce576020604051428152f35b90816101809103126103ce5790565b346103ce5760403660031901126103ce5760043567ffffffffffffffff81116103ce57610b86903690600401610b46565b610b8f81612aa8565b6001600160a01b031690610ba560208201612aa8565b6001600160a01b031691610bbb60408301612aa8565b6001600160a01b0316610bd060608401612aa8565b6001600160a01b031692610be660808201612aa8565b6001600160a01b031690610100610bfe818301612ab2565b9061012090610c0e848301612ab2565b9261014094858101610c1f90612ab2565b966101609a8b8301610c319084612abc565b9a909b610c3c61058b565b9e8f91825260208201526040015260608d015260808c015260a081013560a08c015260c081013560c08c015260e0013560e08b015263ffffffff1690890152870190610c8d919063ffffffff169052565b63ffffffff909116908501523690610ca4926105e2565b9082015233602435610018926131ad565b346103ce5760203660031901126103ce576004803567ffffffffffffffff81116103ce57610ce69036908301610b46565b610cee613249565b60ff61086b5460e01c16610e9f5763ffffffff80421692610140830193610d2781610d1887612ab2565b63ffffffff9182169116101590565b610e8f57610120840192610d3a84612ab2565b1610610e8057610d52610d4d3685612491565b61317c565b90610d66825f5261087260205260405f2090565b54610e725750610db57f3cee3e290f36226751cd0b3321b213890fe9c768e922f267fa6111836ce05c3292610db0610daa610dbb945f5261087260205260405f2090565b60019055565b612ab2565b93612ab2565b610ddb610dd6610dcf610160860186612abc565b36916105e2565b613eb1565b90610e656040519283926101008701359760e08801359760208101359281359260408301359260c08101359060a081013590606060808201359101358b9693909a999895919261012098959361014089019c895260208901526040880152606087015263ffffffff80921660808701521660a085015260c084015260e08301526101008201520152565b0390a36100186001606555565b604051624be79160e21b8152fd5b60405163d642b7d960e01b8152fd5b50604051630277ae7b60e21b8152fd5b50604051633d90fc5560e11b8152fd5b346103ce575f3660031901126103ce5760206040517f9c6dfd61d811b9950a4f2b9adf46357b717c816d22c420d0bde8f2360148f7cd8152f35b346103ce5760203660031901126103ce57600435610f0681610412565b6001600160a01b03807f0000000000000000000000000000000000000000000000000000000000000000168030146103ce577f360894a13ba1a3210667c828492db98dca3e2076cc3735a920a3ca505d382bbc9082825416036103ce57610f6b613e3d565b60405191610f78836104f5565b5f83527f4910fdfa16fed3260ed0e7147f7cc6da11a60208b5b9406d12a635614ffd91435460ff1615610fb15750505061001890614982565b6020600491604051928380926352d1902d60e01b825288165afa5f9181610fea575b50610fdc575f80fd5b036103ce5761001891614866565b61100d91925060203d602011611014575b6110058183610549565b8101906135ef565b905f610fd3565b503d610ffb565b60206003198201126103ce576004359067ffffffffffffffff82116103ce5761104691600401610957565b9091565b5f5b83811061105b5750505f910152565b818101518382015260200161104c565b906020916110848151809281855285808601910161104a565b601f01601f1916010190565b6020808201908083528351809252604092604081018260408560051b8401019601945f925b8584106110c6575050505050505090565b9091929394959685806110f7600193603f1986820301885286838d518051151584520151918185820152019061106b565b9901940194019295949391906110b5565b346103ce576111163661101b565b61111f81610734565b91604061112f6040519485610549565b828452601f1961113e84610734565b015f5b8181106111b25750505f5b83811061116557604051806111618782611090565b0390f35b806111ac61117560019388612b19565b515f80611183858a8a612b2d565b90611192895180938193612b44565b0390305af4906111a0612b51565b60208201529015159052565b0161114c565b60209083516111c08161046b565b5f815282606081830152828901015201611141565b346103ce575f3660031901126103ce5760206040516301e133808152f35b346103ce5760403660031901126103ce57602435600435611212613e3d565b61121a613249565b61086c8054680100000000000000008110156104875763ffffffff916001820190558361124682612810565b5084600182015555167fc86ba04c55bc5eb2f2876b91c438849a296dbec7b08751c3074d92e04f0a77af5f80a46001606555005b346103ce5760203660031901126103ce576106be60043561129a81610412565b6112a2613e3d565b6112aa613249565b613ec6565b60403660031901126103ce576004356112c781610412565b60243567ffffffffffffffff81116103ce576112e7903690600401610618565b6001600160a01b03807f000000000000000000000000000000000000000000000000000000000000000016908130146103ce577f360894a13ba1a3210667c828492db98dca3e2076cc3735a920a3ca505d382bbc9181835416036103ce5761134d613e3d565b7f4910fdfa16fed3260ed0e7147f7cc6da11a60208b5b9406d12a635614ffd91435460ff16156113835750505061001890614982565b6020600491604051928380926352d1902d60e01b825288165afa5f91816113bc575b506113ae575f80fd5b036103ce5761001891614931565b6113d691925060203d602011611014576110058183610549565b905f6113a5565b346103ce5760403660031901126103ce576001600160a01b0360043561140281610412565b165f5261086d60205260405f206024355f52602052602060ff60405f2054166040519015158152f35b346103ce575f3660031901126103ce5760206001600160a01b036108695416604051908152f35b346103ce575f3660031901126103ce576001600160a01b037f00000000000000000000000000000000000000000000000000000000000000001630036103ce5760206040517f360894a13ba1a3210667c828492db98dca3e2076cc3735a920a3ca505d382bbc8152f35b6101203660031901126103ce576004356114d581610412565b602435906114e282610412565b604435916114ef83610412565b60a4358060070b81036103ce5760c4359161150983610430565b60e43567ffffffffffffffff81116103ce57611529903690600401610618565b93611532613249565b60ff61086b5460e81c166106c5576106be9560843592606435926132c4565b9181601f840112156103ce5782359167ffffffffffffffff83116103ce57602083818601950101116103ce57565b346103ce5760c03660031901126103ce5760043561159c81610412565b602435604435916064356115af81610412565b67ffffffffffffffff916084358381116103ce576115d1903690600401611551565b60a4949194359182116103ce577f45e04bc8f121ba11466985789ca2822a91109f31bb8ac85504a37b7eaf873c2694611611611718933690600401611551565b9290916001600160a01b038097168a61170c61162e3686866105e2565b60428d61163c368b8b6105e2565b92602081519101209460409586519160208301937f9c6dfd61d811b9950a4f2b9adf46357b717c816d22c420d0bde8f2360148f7cd85528884015246606084015260808301528760a083015260c082015260c0815261169a81610511565b51902061047f546104805486519060208201927fc2f8787176b8ac6bf7215b4adcc1e069bf4ab82d9ab1df05a57a91d425935b6e8452888301526060820152466080820152608081526116ec8161052d565b5190209085519161190160f01b835260028301526022820152208a6149c5565b51978897169a87612ba0565b0390a3005b346103ce575f3660031901126103ce57602060405163ffffffff7f0000000000000000000000000000000000000000000000000000000000000000168152f35b346103ce575f3660031901126103ce57602060ff61086b5460e81c166040519015158152f35b346103ce575f3660031901126103ce5760206040517f8d1994e2bbbd77564cdca06dd819e7ee2a5efa06c80dcb59a4a7b6e39edc538f8152f35b346103ce5760203660031901126103ce577fe88463c2f254e2b070013a2dc7ee1e099f9bc00534cbdf03af551dc26ae4921960206004356117fd81610a83565b611805613e3d565b61180d613249565b151561086b80547fffff00ffffffffffffffffffffffffffffffffffffffffffffffffffffffffff60ff60e81b8460e81b169116179055604051908152a16001606555005b6101603660031901126103ce5760043561186b81610412565b6024359061187882610412565b60443561188481610412565b6064359061189182610412565b60e43561189d81610412565b61010435906118ab82610430565b61012435926118b984610430565b610144359667ffffffffffffffff88116103ce576118de610018983690600401611551565b97909660c4359360a4359360843593612c04565b6101803660031901126103ce5760043561190b81610412565b6024359061191882610412565b60443561192481610412565b6064359061193182610412565b60e43561193d81610412565b6101043561194a81610430565b610124359161195883610430565b61196061043e565b93610164359767ffffffffffffffff89116103ce57611986610018993690600401611551565b98909760c4359360a4359360843593612c26565b346103ce5760603660031901126103ce5760206119c96004356119bc81610412565b6044359060243590612d41565b604051908152f35b346103ce5760603660031901126103ce5767ffffffffffffffff6024358181116103ce57611a03903690600401611551565b916044359081116103ce57611a1c903690600401611551565b9060405193602085019480611a334684888a612d7d565b0395611a47601f1997888101845283610549565b6004359151902003611ada575f94611a76611a9893611a6d87611aa4958a990190612547565b95810190612d9a565b519360405193849160208301966337bfd2c960e21b8852339160248501612e62565b03908101835282610549565b5190305af4611ab1612b51565b9015611ab957005b60405163b8fe37a760e01b8152908190611ad69060048301612e84565b0390fd5b604051630f0c8f4760e11b8152600490fd5b346103ce5760203660031901126103ce57600435611b08613e3d565b611b10613249565b611b1981612810565b611b51576001815f80935501557f7c1af0646963afc3343245b103731965735a893347bfa0d58a5dc77a77ae691c5f80a26001606555005b634e487b7160e01b5f525f60045260245ffd5b6101a03660031901126103ce5761012435611b7e81610430565b61014435611b8b81610430565b6101643591611b9983610430565b610184359267ffffffffffffffff84116103ce57611bbe610018943690600401611551565b9390926101043560e43560c43560a435608435606435604435602435600435612e95565b346103ce5760e03660031901126103ce5767ffffffffffffffff6004358181116103ce57611c14903690600401610b46565b60a4358281116103ce57611c2c903690600401611551565b60c4929192359384116103ce57611c4a610018943690600401611551565b93909260843590606435906044359060243590612f0d565b346103ce5760603660031901126103ce57600435611c7f81610430565b60243590611c8c82610412565b60443590611c9982610412565b60ff5f5460081c16156103ce57611ccd9061086b9063ffffffff60c01b1963ffffffff60c01b83549260c01b169116179055565b604051611cd98161046b565b6009815260208101926820a1a927a9a996ab1960b91b8452640312e302e360dc1b6020604051611d088161046b565b60058152015260ff5f5460081c16156103ce5761001893611d649251902061047f557f06c015bd22b4c69690933c1058878ebdfef31f9aaae40bbe86d8a09fe1b2972c61048055611d57614367565b611d5f614376565b61438a565b6143e4565b346103ce5760203660031901126103ce577f2d5b62420992e5a4afce0e77742636ca2608ef58289fd2e1baa5161ef6e7e41e6020600435611da981610a83565b611db1613e3d565b611db9613249565b151561086b80547fffffff00ffffffffffffffffffffffffffffffffffffffffffffffffffffffff60ff60e01b8460e01b169116179055604051908152a16001606555005b346103ce575f3660031901126103ce576020604051468152f35b346103ce575f3660031901126103ce57602063ffffffff61086b5460c01c16604051908152f35b346103ce5760403660031901126103ce57600435602435611e5f8261478a565b6001600160a01b0382165f52610873602052611e8e60405f20336001600160a01b03165f5260205260405f2090565b54918215611f31575f611ed533611ebf611ea7856137ec565b6001600160a01b03165f5261087360205260405f2090565b906001600160a01b03165f5260205260405f2090565b55611f0183611ef2611ee6846137ec565b6001600160a01b031690565b611efb856137ec565b9061443e565b60405192835233927f6c172ea51018fb2eb2118f3f8a507c4df71eb519b8c0052834dc3c920182fef490602090a4005b6040516336542bf760e21b8152600490fd5b6020808201906020835283518092526040830192602060408460051b8301019501935f915b848310611f785750505050505090565b9091929394958480611f96600193603f198682030187528a5161106b565b9801930193019194939290611f68565b346103ce57611fb43661101b565b90611fbe82612ff6565b915f5b818110611fd657604051806111618682611f43565b5f80611fe3838587612b2d565b90611ff360405180938193612b44565b0390305af4612000612b51565b901561202657906001916120148287612b19565b5261201f8186612b19565b5001611fc1565b60448151106103ce578060046103ce92015160248091830101910161303f565b610180806003193601126103ce576101043561206181610430565b610124359161206f83610430565b610144359261207d84610430565b6101643567ffffffffffffffff81116103ce5761209e903690600401611551565b6120a6613249565b61086b549260ff8460e81c166106c557610a799661216b610dcf9261215d63ffffffff6121799860c01c16996121016120de8c61309e565b61086b9063ffffffff60c01b1963ffffffff60c01b83549260c01b169116179055565b6121096105ac565b9a6004358c5260243560208d015260443560408d015260643560608d015260843560808d015260a43560a08d015260c43560c08d015260e43560e08d01526101008c01526101208b019063ffffffff169052565b63ffffffff16610140890152565b63ffffffff16610160870152565b90820152614047565b346103ce5760403660031901126103ce5760206121db6004356121a481610412565b6001600160a01b03602435916121b983610412565b165f52610873835260405f20906001600160a01b03165f5260205260405f2090565b54604051908152f35b346103ce575f3660031901126103ce5760206001600160a01b0361086a5416604051908152f35b346103ce5760c03660031901126103ce5760043560243567ffffffffffffffff6064356044356084358381116103ce57612249903690600401611551565b60a4949194359182116103ce577f45e04bc8f121ba11466985789ca2822a91109f31bb8ac85504a37b7eaf873c26946122896122d8933690600401611551565b929091612294613249565b61229d8a61478a565b6122cc898b89896122af3688886105e2565b926122bb368b8b6105e2565b946001600160a01b03469216613f15565b60405196879687612ba0565b0390a36001606555005b346103ce575f3660031901126103ce5760206001600160a01b03610c5b5416604051908152f35b346103ce5760203660031901126103ce576004355f52610872602052602060405f2054604051908152f35b346103ce575f3660031901126103ce5760206001600160a01b03610c5a5416604051908152f35b346103ce575f3660031901126103ce57602060405163ffffffff8152f35b346103ce5760a03660031901126103ce5760043561239681610412565b6124096024356123a581610412565b6044356123b181610430565b606435906123be82610412565b608435926123cb84610412565b5f54956123ef60ff8860081c161580988199612483575b8115612463575b50612b12565b86612400600160ff195f5416175f55565b61244c576130b3565b61240f57005b61241d61ff00195f54165f55565b604051600181527f7f26b83ff96e1f2b6a682f133852f6798a09c465da95921460cefb384740249890602090a1005b61245e61010061ff00195f5416175f55565b6130b3565b303b15915081612475575b505f6123e9565b6001915060ff16145f61246e565b600160ff82161091506123e2565b9190610180838203126103ce576124a661058b565b92803584526020810135602085015260408101356040850152606081013560608501526080810135608085015260a081013560a085015260c081013560c085015260e081013560e0850152610100808201359085015261012061250a81830161044c565b9085015261014061251c81830161044c565b90850152610160918282013567ffffffffffffffff81116103ce576125419201610618565b90830152565b906020828203126103ce57813567ffffffffffffffff81116103ce576106339201612491565b346103ce5760203660031901126103ce5760043567ffffffffffffffff81116103ce576119c9610d4d6020923690600401612491565b346103ce575f3660031901126103ce57602060ff61086b5460e01c166040519015158152f35b346103ce575f3660031901126103ce5760206040516ec097ce7bc90715b34b9f10000000008152f35b346103ce5760203660031901126103ce576106be60043561261281610412565b61261a613e3d565b611d5f613249565b346103ce5760603660031901126103ce5760043567ffffffffffffffff81116103ce57612653903690600401612491565b61265b613249565b60ff61086b5460e01c166127055761014081015163ffffffff42811691161015806126e6575b6126d45780612692610a799261317c565b60c0820151602083015190610160840151926126ac61056b565b948552602085015260408401526060830152608082015260243560a082015260443590613bc7565b604051630c3a9b9d60e41b8152600490fd5b506126f460408201516137ec565b6001600160a01b0316331415612681565b604051633d90fc5560e11b8152600490fd5b346103ce5760203660031901126103ce576106be60043561273781610412565b61273f613e3d565b612747613249565b614486565b610160806003193601126103ce576101043561276781610430565b6101243561277481610430565b6101443567ffffffffffffffff81116103ce57612795903690600401611551565b63ffffffff946127a88642169586612be7565b936127b1613249565b61086b549160ff8360e81c166106c5576127e46127f19661215d610a799a610dcf9660c01c16996121016120de8c61309e565b86019063ffffffff169052565b610180820152614047565b634e487b7160e01b5f52603260045260245ffd5b61086c90815481101561284a576003915f52027f71cd7344f4eb2efc8e30291f6dbdb44d618ca368ea5425d217c1d604bf26b84d01905f90565b6127fc565b346103ce5760203660031901126103ce5760043561086c548110156103ce57612879604091612810565b506001815491015482519182526020820152f35b346103ce5760203660031901126103ce576106be6004356128ad81610412565b6128b5613e3d565b611d64613249565b91906128c7613249565b6020810191825146036129d9576128ef6128f3918360016128e788612810565b500154613508565b1590565b6129c7577ff4ad92585b1bc117fbdd644990adf0827bc4c95baeae8a23322af807b6d0020e606082019261293461292e855163ffffffff1690565b8661359a565b80516129ba845192604086019561299f61299161298089519661295b8c5163ffffffff1690565b9760808601986129728a516001600160a01b031690565b9160a088019b8c519461360b565b925193519851995163ffffffff1690565b94516001600160a01b031690565b945163ffffffff9586604051978897169b1699339487612a5a565b0390a461042e6001606555565b60405163582f497d60e11b8152600490fd5b604051633d23e4d160e11b8152600490fd5b9081518082526020808093019301915f5b828110612a0a575050505090565b8351855293810193928101926001016129fc565b9081518082526020808093019301915f5b828110612a3d575050505090565b83516001600160a01b031685529381019392810192600101612a2f565b9496959193612a7c60a095612a9a93885260c0602089015260c08801906129eb565b906001600160a01b0380951660408801528682036060880152612a1e565b951515608085015216910152565b3561063381610412565b3561063381610430565b903590601e19813603018212156103ce570180359067ffffffffffffffff82116103ce576020019181360383136103ce57565b634e487b7160e01b5f52602160045260245ffd5b60031115612b0d57565b612aef565b156103ce57565b805182101561284a5760209160051b010190565b9082101561284a576110469160051b810190612abc565b908092918237015f815290565b3d15612b7b573d90612b62826105c6565b91612b706040519384610549565b82523d5f602084013e565b606090565b908060209392818452848401375f828201840152601f01601f1916010190565b94929093612bc592610633979587526020870152608060408701526080860191612b80565b926060818503910152612b80565b634e487b7160e01b5f52601160045260245ffd5b91909163ffffffff80809416911601918211612bff57565b612bd3565b969492909161042e9b9a9998969492612c2463ffffffff42169889612be7565b985b9593919b999897969492909b612c3a613249565b61086b549660ff8860e81c166106c5578760c01c63ffffffff16612c5d9061309e565b612c849061086b9063ffffffff60c01b1963ffffffff60c01b83549260c01b169116179055565b612c8c6105ac565b9d6001600160a01b038f921682526001600160a01b031690602001526001600160a01b031660408d01526001600160a01b031660608c015260808b015260a08a015260c08901526001600160a01b031660e088015260c01c63ffffffff16610100870152610120860190612d05919063ffffffff169052565b63ffffffff1661014085015263ffffffff166101608401523690612d28926105e2565b610180820152612d3790614047565b61042e6001606555565b916040519160208301936bffffffffffffffffffffffff199060601b1684526034830152605482015260548152612d77816104d9565b51902090565b939291602091612d9591604087526040870191612b80565b930152565b908160209103126103ce57604051906020820182811067ffffffffffffffff8211176104875760405235815290565b6106339161018090825181526020830151602082015260408301516040820152606083015160608201526080830151608082015260a083015160a082015260c083015160c082015260e083015160e08201526101008084015190820152612e3e610120808501519083019063ffffffff169052565b6101408381015163ffffffff1690820152816101608094015193820152019061106b565b612e7a60409295949395606083526060830190612dc9565b9460208201520152565b90602061063392818152019061106b565b9c9a9998979695949392919096612eaa613249565b60ff61086b5460e81c166106c557612ec3908e33612d41565b96604051809e612ed28261048c565b81526020015260408d015260608c015260808b015260a08a015260c089015260e088015261010087015263ffffffff16610120860152612d05565b979290959391969497612f1e613249565b60ff61086b5460e01c1661270557612f396101408201612ab2565b63ffffffff8042169116101580612fd7575b6126d457612fc0612fd296612fb8612d379b612f6a610d4d3687612491565b9a612f7361056b565b9b612f7e3688612491565b8d5260208d01528660408d01528760608d0152612f9c368b846105e2565b60808d015260a08c0152612fb085356137ec565b9836916105e2565b9536916105e2565b9461010060e083013592013590613f15565b613bc7565b50612fe560408201356137ec565b6001600160a01b0316331415612f4b565b9061300082610734565b61300d6040519182610549565b828152809261301e601f1991610734565b01905f5b82811061302e57505050565b806060602080938501015201613022565b6020818303126103ce5780519067ffffffffffffffff82116103ce570181601f820112156103ce578051613072816105c6565b926130806040519485610549565b818452602082840101116103ce57610633916020808501910161104a565b63ffffffff809116908114612bff5760010190565b90929160ff5f5460081c16156103ce576130ea9061086b9063ffffffff60c01b1963ffffffff60c01b83549260c01b169116179055565b604051936130f78561046b565b6009855260208501906820a1a927a9a996ab1960b91b8252640312e302e360dc1b60206040516131268161046b565b60058152015260ff5f5460081c16156103ce57611d64612747946112aa9361042e9851902061047f557f06c015bd22b4c69690933c1058878ebdfef31f9aaae40bbe86d8a09fe1b2972c61048055611d57614367565b604051612d77816131996020820194604086526060830190612dc9565b46604083015203601f198101835282610549565b9190916131b8613249565b60ff61086b5460e01c166127055761014081015163ffffffff428116911610158061322a575b6126d457612d37926131ef8261317c565b60c08301516020840151906101608501519261320961056b565b958652602086015260408501526060840152608083015260a0820152613bc7565b5061323860408201516137ec565b6001600160a01b03163314156131de565b6002606554146103ce576002606555565b91908203918211612bff57565b6040513d5f823e3d90fd5b926106339695929491946101409585525f60208601526040850152606084015263ffffffff809116608084015260a08301525f60c083015260e08201525f61010082015281610120820152019061106b565b919394969095966133056128ef6132fe886132f1896001600160a01b03165f5261086d60205260405f2090565b905f5260205260405f2090565b5460ff1690565b6134f65760070b906706f05b59d3b2000061331f836144d5565b10156134e4576ec097ce7bc90715b34b9f100000000084116134d25763ffffffff9361334d858a164261325a565b857f000000000000000000000000000000000000000000000000000000000000000016106134c05761086b5460c01c63ffffffff169861338f6120de8b61309e565b6001600160a01b039586807f000000000000000000000000000000000000000000000000000000000000000016981692888414806134b7575b1561347b5780340361346957883b156103ce575f6004996040519a8b8092630d0e30db60e41b825234905af198891561346457613433613446978a927f32ed1a409ef04c7b0227189c3a103dc5ac10e775a15b785dcc510201f7c25ad39c61344b575b505b83614523565b92604051998a99169d169b169387613272565b0390a4565b8061345861345e926104a9565b806103c4565b5f61342b565b613267565b604051636452a35d60e01b8152600490fd5b7f32ed1a409ef04c7b0227189c3a103dc5ac10e775a15b785dcc510201f7c25ad3985087613433613446976134b28430338a6144e4565b61342d565b503415156133c8565b60405163f722177f60e01b8152600490fd5b60405163622db5a960e11b8152600490fd5b60405163284f109760e21b8152600490fd5b604051632a58c4f360e01b8152600490fd5b610633929160405161359181613583602082019460208652805160408401526020810151606084015260a061354d604083015160c060808701526101008601906129eb565b606083015163ffffffff168583015260808301516001600160a01b031660c0860152910151838203603f190160e0850152612a1e565b03601f198101835282610549565b51902091614559565b6135a5600291612810565b500162ffffff8260081c16805f5281602052600160ff60405f205494161b80809416146135dd575f5260205260405f20908154179055565b60405163954476d960e01b8152600490fd5b908160209103126103ce575190565b91908201809211612bff57565b91959495939092935f96815190818151036137da578161368a575b50505082613635575b50505050565b6001600160a01b03816136697ffa7fa7cf6d7dde5f9be65a67e6a1a747e7aa864dcd2d793353c722d80fbbb357938661461c565b6040805195865233602087015291169463ffffffff1693a45f80808061362f565b604080516370a0823160e01b81523060048083019190915291906020816024816001600160a01b038b165afa908115613464575f916137bb575b505f805b8681106136d9575050505050613626565b6136e38189612b19565b516136f1575b6001016136c8565b9061370790613700838a612b19565b51906135fe565b908282116137ab576137416128ef61372f613722848a612b19565b516001600160a01b031690565b613739848c612b19565b51908c6145aa565b156136e9579c50876137a16137998f61378461372261377d613763848f612b19565b51966001600160a01b03165f5261087360205260405f2090565b928b612b19565b6001600160a01b03165f5260205260405f2090565b9182546135fe565b905560019c6136e9565b50505051632ddaa83160e11b8152fd5b6137d4915060203d602011611014576110058183610549565b5f6136c4565b6040516319a5316760e31b8152600490fd5b6001600160a01b03906137fe8161478a565b1690565b916128ef9061387b92845160408096015191865191613820836104bd565b825261359161383b6020840192468452898501958652612810565b50549388519283916138606020840196602088525160608d86015260a0850190612dc9565b9151606084015251608083015203601f198101835282610549565b6138825750565b5163582f497d60e11b8152600490fd5b61389b82612b03565b52565b9a989693919c9b9997959492909c6101e08c019d8c5260208c015260408b015260608a0152608089015263ffffffff80921660a08901521660c087015260e08601526101008501526101208401526101408301528051610160830152602081015161018083015260408101516101a0830152606001519061391e82612b03565b6101c00152565b9061063394936080936001600160a01b0380931684526020840152166040820152816060820152019061106b565b905f8251610120810161396a815163ffffffff1690565b63ffffffff42911610613bb5576020850151906002613992835f5261087260205260405f2090565b5414613ba3576139ac86925f5261087260205260405f2090565b6002905560608301519060808401519160a08501519260c0860151918560a0810151938860e08101519561010082015197516139eb9063ffffffff1690565b61014083015163ffffffff166040840151918451936020860151956101600151613a1490613eb1565b966060890151986080019e8f51613a2a90613eb1565b906040015190613a386105b9565b9a8b5260208b015260408a0152600260608a01526040519d8e9b613a5c9b8d61389e565b037f44b559f101f8fbcc8a0ea43fa91a05a729a5ea6e14a7c75aa750374690137208905f94a46080820151613a90906137ec565b9060408601519560600151613aa4906137ec565b9260800151613ab2906137ec565b6001600160a01b03919082167f0000000000000000000000000000000000000000000000000000000000000000831603613b8e5784613b7b575b613af8878386166147a5565b51928351151580613b71575b613b12575b50505050509050565b1690813b15613b6d5783613b40959660405196879586948593633a5be8cb60e01b8552339160048601613925565b03925af1801561346457613b5a575b808080808594613b09565b80613458613b67926104a9565b5f613b4f565b8380fd5b50803b1515613b04565b613b898730338587166144e4565b613aec565b5f9450613b9e878585851661443e565b613af8565b604051630479306360e51b8152600490fd5b60405163d642b7d960e01b8152600490fd5b8051916101208301613bdd815163ffffffff1690565b63ffffffff42911610613bb55760208301516001613c04825f5261087260205260405f2090565b5403613e21576001905b6002613c23825f5261087260205260405f2090565b5414613ba357613c3f613c45915f5261087260205260405f2090565b60029055565b7f44b559f101f8fbcc8a0ea43fa91a05a729a5ea6e14a7c75aa7503746901372086060860151608087015190613d128760a08a0151958a60c08101519760a08401519860e083015199613ca26101008501519c5163ffffffff1690565b61014085015163ffffffff1691604086015193865195613d06613cce61016060208b01519a0151613eb1565b9960608c01519b6040613ce46080830151613eb1565b910151906020613cf26105b9565b9e8f528e015260408d015260608c01613892565b6040519c8d9c8d61389e565b0390a4613d2260808301516137ec565b916040820151916080613d4481613d3c60608501516137ec565b9401516137ec565b6001600160a01b03929083167f0000000000000000000000000000000000000000000000000000000000000000841603613e0e57613d86853033868a166144e4565b613d92858486166147a5565b0151918251151580613e04575b613dab575b5050505050565b16803b156103ce57613dd9935f809460405196879586948593633a5be8cb60e01b8552339160048601613925565b03925af1801561346457613df1575b80808080613da4565b80613458613dfe926104a9565b5f613de8565b50803b1515613d9f565b613e1c858533868a166144e4565b613d92565b5f90613c0e565b908160209103126103ce575161063381610412565b60046001600160a01b03602081610c5b541660405193848092636e296e4560e01b82525afa918215613464575f92613e80575b508061086954169116036103ce57565b613ea391925060203d602011613eaa575b613e9b8183610549565b810190613e28565b905f613e70565b503d613e91565b80519081613ebf5750505f90565b6020012090565b7f46d02f052ee9bbef07cda0e03466211f6c0d2c684e99f46fb9d96b4ed87a617e6020610c5a928354906001600160a01b0380911694856001600160a01b0319841617905560405191168152a2565b939260429361042e979660208151910120906040519260208401947f8d1994e2bbbd77564cdca06dd819e7ee2a5efa06c80dcb59a4a7b6e39edc538f86526040850152856060850152608084015260a083015260c082015260c08152613f7a81610511565b5190209061047f549061048054906040519160208301937fc2f8787176b8ac6bf7215b4adcc1e069bf4ab82d9ab1df05a57a91d425935b6e855260408401526060830152608082015260808152613fd08161052d565b519020906040519161190160f01b83526002830152602282015220906149c5565b96926106339a9996949198959261014099895260208901526040880152606087015263ffffffff928380921660808801521660a08601521660c084015260e083015261010082015281610120820152019061106b565b614051815161478a565b6040908181019061407d61406583516137ec565b6001600160a01b03165f5261086d60205260405f2090565b9261409a6128ef6132fe60c085019687515f5260205260405f2090565b614357576101208201926140be6140b5855163ffffffff1690565b63ffffffff1690565b80421090811561431e575b5061430d576101408301926140e2845163ffffffff1690565b9163ffffffff9283614116817f000000000000000000000000000000000000000000000000000000000000000016426135fe565b9116116142fc5761016082015163ffffffff1692808416806142b8575b50508051936001600160a01b037f000000000000000000000000000000000000000000000000000000000000000016809514806142af575b15614249576080830151340361423957843b156103ce575f600495825196878092630d0e30db60e41b825234905af1918215613464577f32ed1a409ef04c7b0227189c3a103dc5ac10e775a15b785dcc510201f7c25ad39561344693614226575b505b519260608101519460808201519060a08301519a51986142066141fb6101008601519c5163ffffffff1690565b915163ffffffff1690565b9084519c60208601519461018060e088015197015197519a8b9a8b613ff1565b80613458614233926104a9565b5f6141cc565b51636452a35d60e01b8152600490fd5b919293503461429e577f32ed1a409ef04c7b0227189c3a103dc5ac10e775a15b785dcc510201f7c25ad39392918161429961428a611ee661344695516137ec565b608086015190309033906144e4565b6141ce565b8151636452a35d60e01b8152600490fd5b5034151561416b565b6301e1338010156142e7575b5060e0820151156142d6575f80614133565b835163495d907f60e01b8152600490fd5b926142f59193421690612be7565b915f6142c4565b835163582e388960e01b8152600490fd5b815163f722177f60e01b8152600490fd5b61432991504261325a565b63ffffffff7f000000000000000000000000000000000000000000000000000000000000000016105f6140c9565b51632a58c4f360e01b8152600490fd5b60ff5f5460081c16156103ce57565b60ff5f5460081c16156103ce576001606555565b6001600160a01b031680156143d257610869816001600160a01b03198254161790557fa9e8c42c9e7fca7f62755189a16b2f5314d43d8fb24e91ba54e6d65f9314e8495f80a2565b60405163ba97b39d60e01b8152600490fd5b6001600160a01b0316801561442c5761086a816001600160a01b03198254161790557fa73e8909f8616742d7fe701153d82666f7b7cd480552e23ebb05d358c22fd04e5f80a2565b604051635b03092b60e11b8152600490fd5b60405163a9059cbb60e01b60208201526001600160a01b039092166024830152604482019290925261042e9161448182606481015b03601f198101845283610549565b614aa3565b7f7409836c44bc9ad88515d6deee6ab3fcec145b8c39b83ae56d87aa7a86efcc4b6020610c5b928354906001600160a01b0380911694856001600160a01b0319841617905560405191168152a2565b5f81126144df5790565b5f0390565b909261042e93604051936323b872dd60e01b60208601526001600160a01b0380921660248601521660448401526064830152606482526144818261052d565b90670de0b6b3a7640000915f828403921283831281169084841390151617612bff57818102918183041490151715612bff570490565b929091905f915b84518310156145a2576145738386612b19565b519081811015614591575f52602052600160405f205b920191614560565b905f52602052600160405f20614589565b915092501490565b60405163a9059cbb60e01b60208281019182526001600160a01b039094166024830152604482019490945290925f916145e68160648101613583565b519082855af1903d5f5190836145fd575b50505090565b9192509061461257503b15155b5f80806145f7565b600191501461460a565b90610c5a614634611ee682546001600160a01b031690565b6040516343c6674160e01b81526001600160a01b0384166004820152909160208083602481875afa928315613464575f93614768575b508060049394604051948580926367461f0360e11b82525afa908115613464576146c194611ee69488925f94614749575b50506001600160a01b0380931683821603614736575b505050546001600160a01b031690565b916146d561086a546001600160a01b031690565b92803b156103ce5760405163a93a4af960e01b81526001600160a01b03938416600482015293909216602484015260448301525f60648301819052908290608490829084905af18015613464576147295750565b8061345861042e926104a9565b614741928716614b33565b5f85816146b1565b614760929450803d10613eaa57613e9b8183610549565b915f8061469b565b600493506147838291823d8411613eaa57613e9b8183610549565b935061466a565b60a01c61479357565b6040516379ec0ed760e11b8152600490fd5b6001600160a01b0390811690813b156147e5579061042e92917f00000000000000000000000000000000000000000000000000000000000000001661443e565b7f000000000000000000000000000000000000000000000000000000000000000016803b156103ce575f8091602460405180948193632e1a7d4d60e01b83528860048401525af1801561346457614857575b508147106103ce575f80809381935af161484f612b51565b50156103ce57565b614860906104a9565b5f614837565b61486f81614982565b6001600160a01b0381167fbc7cd75a20ee27fd9adebab32041f755214dbc6bffa90cc0225b39da2e5c2d3b5f80a281511580159061492a575b6148b0575050565b5f80614927937f206661696c656400000000000000000000000000000000000000000000000000604080516148e4816104bd565b602781527f416464726573733a206c6f772d6c6576656c2064656c65676174652063616c6c60208201520152602081519101845af4614921612b51565b91614c08565b50565b505f6148a8565b61493a81614982565b6001600160a01b0381167fbc7cd75a20ee27fd9adebab32041f755214dbc6bffa90cc0225b39da2e5c2d3b5f80a281511580159061497a576148b0575050565b5060016148a8565b803b156103ce576001600160a01b037f360894a13ba1a3210667c828492db98dca3e2076cc3735a920a3ca505d382bbc91166001600160a01b0319825416179055565b6149cf8383614bd7565b6005819592951015612b0d57159384614a8d575b508315614a07575b505050156149f557565b60405163938a182160e01b8152600490fd5b5f929350908291604051614a3f816135836020820194630b135d3f60e11b998a8752602484015260406044840152606483019061106b565b51915afa90614a4c612b51565b82614a7f575b82614a62575b50505f80806149eb565b614a77919250602080825183010191016135ef565b145f80614a58565b915060208251101591614a52565b6001600160a01b0383811691161493505f6149e3565b905f806001600160a01b03614afa9416927f5361666545524332303a206c6f772d6c6576656c2063616c6c206661696c65646020604051614ae38161046b565b818152015260208151910182855af1614921612b51565b8051908115918215614b10575b5050156103ce57565b81925090602091810103126103ce5760200151614b2c81610a83565b5f80614b07565b6044919260206001600160a01b0360405194858092636eb1769f60e11b8252306004830152808916602483015286165afa928315613464575f93614bb6575b508201809211612bff5760405163095ea7b360e01b60208201526001600160a01b039093166024840152604483019190915261042e91906144818260648101614473565b614bd091935060203d602011611014576110058183610549565b915f614b72565b9060418151145f14614bff5761104691602082015190606060408401519301515f1a90614c31565b50505f90600290565b9015614c2257815115614c19575090565b3b156103ce5790565b5080519081156103ce57602001fd5b7f7fffffffffffffffffffffffffffffff5d576e7357a4501ddfe92f46681b20a08411614ca1576020935f9360ff60809460405194855216868401526040830152606082015282805260015afa15613464575f516001600160a01b03811615614c9957905f90565b505f90600190565b505050505f9060039056fea2646970667358221220705c904b7aec0e80e19ee033a5df76d9414b62d12e176ea08321db51b05fb41c64736f6c63430008170033"
}