{
  "address": "0x2e69a3962E7fF2EEF0c98a76aC3B294b03Dc4C3D",
  "abi": [
    {
      "inputs": [
        {
          "internalType": "address",
          "name": "_wrappedNativeTokenAddress",
          "type": "address"
        },
        {
          "internalType": "uint32",
          "name": "_depositQuoteTimeBuffer",
          "type": "uint32"
        },
        {
          "internalType": "uint32",
          "name": "_fillDeadlineBuffer",
          "type": "uint32"
        },
        {
          "internalType": "contract IERC20",
          "name": "_l2Usdc",
          "type": "address"
        },
        {
          "internalType": "contract ITokenMessenger",
          "name": "_cctpTokenMessenger",
          "type": "address"
        }
      ],
      "stateMutability": "nonpayable",
      "type": "constructor"
    },
    {
      "inputs": [],
      "name": "ClaimedMerkleLeaf",
      "type": "error"
    },
    {
      "inputs": [],
      "name": "DisabledRoute",
      "type": "error"
    },
    {
      "inputs": [],
      "name": "ExpiredFillDeadline",
      "type": "error"
    },
    {
      "inputs": [],
      "name": "InvalidChainId",
      "type": "error"
    },
    {
      "inputs": [],
      "name": "InvalidExclusiveRelayer",
      "type": "error"
    },
    {
      "inputs": [],
      "name": "InvalidExclusivityDeadline",
      "type": "error"
    },
    {
      "inputs": [],
      "name": "InvalidFillDeadline",
      "type": "error"
    },
    {
      "inputs": [],
      "name": "InvalidMerkleLeaf",
      "type": "error"
    },
    {
      "inputs": [],
      "name": "InvalidMerkleProof",
      "type": "error"
    },
    {
      "inputs": [],
      "name": "InvalidPayoutAdjustmentPct",
      "type": "error"
    },
    {
      "inputs": [],
      "name": "InvalidQuoteTimestamp",
      "type": "error"
    },
    {
      "inputs": [],
      "name": "InvalidSlowFillRequest",
      "type": "error"
    },
    {
      "inputs": [],
      "name": "MsgValueDoesNotMatchInputAmount",
      "type": "error"
    },
    {
      "inputs": [],
      "name": "NoSlowFillsInExclusivityWindow",
      "type": "error"
    },
    {
      "inputs": [],
      "name": "NotCrossChainCall",
      "type": "error"
    },
    {
      "inputs": [],
      "name": "NotEOA",
      "type": "error"
    },
    {
      "inputs": [],
      "name": "NotExclusiveRelayer",
      "type": "error"
    },
    {
      "inputs": [],
      "name": "RelayFilled",
      "type": "error"
    },
    {
      "anonymous": false,
      "inputs": [
        {
          "indexed": false,
          "internalType": "address",
          "name": "previousAdmin",
          "type": "address"
        },
        {
          "indexed": false,
          "internalType": "address",
          "name": "newAdmin",
          "type": "address"
        }
      ],
      "name": "AdminChanged",
      "type": "event"
    },
    {
      "anonymous": false,
      "inputs": [
        {
          "indexed": true,
          "internalType": "address",
          "name": "beacon",
          "type": "address"
        }
      ],
      "name": "BeaconUpgraded",
      "type": "event"
    },
    {
      "anonymous": false,
      "inputs": [
        {
          "indexed": true,
          "internalType": "uint256",
          "name": "rootBundleId",
          "type": "uint256"
        }
      ],
      "name": "EmergencyDeleteRootBundle",
      "type": "event"
    },
    {
      "anonymous": false,
      "inputs": [
        {
          "indexed": true,
          "internalType": "address",
          "name": "originToken",
          "type": "address"
        },
        {
          "indexed": true,
          "internalType": "uint256",
          "name": "destinationChainId",
          "type": "uint256"
        },
        {
          "indexed": false,
          "internalType": "bool",
          "name": "enabled",
          "type": "bool"
        }
      ],
      "name": "EnabledDepositRoute",
      "type": "event"
    },
    {
      "anonymous": false,
      "inputs": [
        {
          "indexed": false,
          "internalType": "uint256",
          "name": "amountToReturn",
          "type": "uint256"
        },
        {
          "indexed": true,
          "internalType": "uint256",
          "name": "chainId",
          "type": "uint256"
        },
        {
          "indexed": false,
          "internalType": "uint256[]",
          "name": "refundAmounts",
          "type": "uint256[]"
        },
        {
          "indexed": true,
          "internalType": "uint32",
          "name": "rootBundleId",
          "type": "uint32"
        },
        {
          "indexed": true,
          "internalType": "uint32",
          "name": "leafId",
          "type": "uint32"
        },
        {
          "indexed": false,
          "internalType": "address",
          "name": "l2TokenAddress",
          "type": "address"
        },
        {
          "indexed": false,
          "internalType": "address[]",
          "name": "refundAddresses",
          "type": "address[]"
        },
        {
          "indexed": false,
          "internalType": "address",
          "name": "caller",
          "type": "address"
        }
      ],
      "name": "ExecutedRelayerRefundRoot",
      "type": "event"
    },
    {
      "anonymous": false,
      "inputs": [
        {
          "indexed": false,
          "internalType": "uint256",
          "name": "amount",
          "type": "uint256"
        },
        {
          "indexed": false,
          "internalType": "uint256",
          "name": "totalFilledAmount",
          "type": "uint256"
        },
        {
          "indexed": false,
          "internalType": "uint256",
          "name": "fillAmount",
          "type": "uint256"
        },
        {
          "indexed": false,
          "internalType": "uint256",
          "name": "repaymentChainId",
          "type": "uint256"
        },
        {
          "indexed": true,
          "internalType": "uint256",
          "name": "originChainId",
          "type": "uint256"
        },
        {
          "indexed": false,
          "internalType": "uint256",
          "name": "destinationChainId",
          "type": "uint256"
        },
        {
          "indexed": false,
          "internalType": "int64",
          "name": "relayerFeePct",
          "type": "int64"
        },
        {
          "indexed": false,
          "internalType": "int64",
          "name": "realizedLpFeePct",
          "type": "int64"
        },
        {
          "indexed": true,
          "internalType": "uint32",
          "name": "depositId",
          "type": "uint32"
        },
        {
          "indexed": false,
          "internalType": "address",
          "name": "destinationToken",
          "type": "address"
        },
        {
          "indexed": false,
          "internalType": "address",
          "name": "relayer",
          "type": "address"
        },
        {
          "indexed": true,
          "internalType": "address",
          "name": "depositor",
          "type": "address"
        },
        {
          "indexed": false,
          "internalType": "address",
          "name": "recipient",
          "type": "address"
        },
        {
          "indexed": false,
          "internalType": "bytes",
          "name": "message",
          "type": "bytes"
        },
        {
          "components": [
            {
              "internalType": "address",
              "name": "recipient",
              "type": "address"
            },
            {
              "internalType": "bytes",
              "name": "message",
              "type": "bytes"
            },
            {
              "internalType": "int64",
              "name": "relayerFeePct",
              "type": "int64"
            },
            {
              "internalType": "bool",
              "name": "isSlowRelay",
              "type": "bool"
            },
            {
              "internalType": "int256",
              "name": "payoutAdjustmentPct",
              "type": "int256"
            }
          ],
          "indexed": false,
          "internalType": "struct SpokePool.RelayExecutionInfo",
          "name": "updatableRelayData",
          "type": "tuple"
        }
      ],
      "name": "FilledRelay",
      "type": "event"
    },
    {
      "anonymous": false,
      "inputs": [
        {
          "indexed": false,
          "internalType": "address",
          "name": "inputToken",
          "type": "address"
        },
        {
          "indexed": false,
          "internalType": "address",
          "name": "outputToken",
          "type": "address"
        },
        {
          "indexed": false,
          "internalType": "uint256",
          "name": "inputAmount",
          "type": "uint256"
        },
        {
          "indexed": false,
          "internalType": "uint256",
          "name": "outputAmount",
          "type": "uint256"
        },
        {
          "indexed": false,
          "internalType": "uint256",
          "name": "repaymentChainId",
          "type": "uint256"
        },
        {
          "indexed": true,
          "internalType": "uint256",
          "name": "originChainId",
          "type": "uint256"
        },
        {
          "indexed": true,
          "internalType": "uint32",
          "name": "depositId",
          "type": "uint32"
        },
        {
          "indexed": false,
          "internalType": "uint32",
          "name": "fillDeadline",
          "type": "uint32"
        },
        {
          "indexed": false,
          "internalType": "uint32",
          "name": "exclusivityDeadline",
          "type": "uint32"
        },
        {
          "indexed": false,
          "internalType": "address",
          "name": "exclusiveRelayer",
          "type": "address"
        },
        {
          "indexed": true,
          "internalType": "address",
          "name": "relayer",
          "type": "address"
        },
        {
          "indexed": false,
          "internalType": "address",
          "name": "depositor",
          "type": "address"
        },
        {
          "indexed": false,
          "internalType": "address",
          "name": "recipient",
          "type": "address"
        },
        {
          "indexed": false,
          "internalType": "bytes",
          "name": "message",
          "type": "bytes"
        },
        {
          "components": [
            {
              "internalType": "address",
              "name": "updatedRecipient",
              "type": "address"
            },
            {
              "internalType": "bytes",
              "name": "updatedMessage",
              "type": "bytes"
            },
            {
              "internalType": "uint256",
              "name": "updatedOutputAmount",
              "type": "uint256"
            },
            {
              "internalType": "enum V3SpokePoolInterface.FillType",
              "name": "fillType",
              "type": "uint8"
            }
          ],
          "indexed": false,
          "internalType": "struct V3SpokePoolInterface.V3RelayExecutionEventInfo",
          "name": "relayExecutionInfo",
          "type": "tuple"
        }
      ],
      "name": "FilledV3Relay",
      "type": "event"
    },
    {
      "anonymous": false,
      "inputs": [
        {
          "indexed": false,
          "internalType": "uint256",
          "name": "amount",
          "type": "uint256"
        },
        {
          "indexed": false,
          "internalType": "uint256",
          "name": "originChainId",
          "type": "uint256"
        },
        {
          "indexed": true,
          "internalType": "uint256",
          "name": "destinationChainId",
          "type": "uint256"
        },
        {
          "indexed": false,
          "internalType": "int64",
          "name": "relayerFeePct",
          "type": "int64"
        },
        {
          "indexed": true,
          "internalType": "uint32",
          "name": "depositId",
          "type": "uint32"
        },
        {
          "indexed": false,
          "internalType": "uint32",
          "name": "quoteTimestamp",
          "type": "uint32"
        },
        {
          "indexed": false,
          "internalType": "address",
          "name": "originToken",
          "type": "address"
        },
        {
          "indexed": false,
          "internalType": "address",
          "name": "recipient",
          "type": "address"
        },
        {
          "indexed": true,
          "internalType": "address",
          "name": "depositor",
          "type": "address"
        },
        {
          "indexed": false,
          "internalType": "bytes",
          "name": "message",
          "type": "bytes"
        }
      ],
      "name": "FundsDeposited",
      "type": "event"
    },
    {
      "anonymous": false,
      "inputs": [
        {
          "indexed": false,
          "internalType": "uint8",
          "name": "version",
          "type": "uint8"
        }
      ],
      "name": "Initialized",
      "type": "event"
    },
    {
      "anonymous": false,
      "inputs": [
        {
          "indexed": false,
          "internalType": "bool",
          "name": "isPaused",
          "type": "bool"
        }
      ],
      "name": "PausedDeposits",
      "type": "event"
    },
    {
      "anonymous": false,
      "inputs": [
        {
          "indexed": false,
          "internalType": "bool",
          "name": "isPaused",
          "type": "bool"
        }
      ],
      "name": "PausedFills",
      "type": "event"
    },
    {
      "anonymous": false,
      "inputs": [
        {
          "indexed": true,
          "internalType": "uint32",
          "name": "rootBundleId",
          "type": "uint32"
        },
        {
          "indexed": true,
          "internalType": "bytes32",
          "name": "relayerRefundRoot",
          "type": "bytes32"
        },
        {
          "indexed": true,
          "internalType": "bytes32",
          "name": "slowRelayRoot",
          "type": "bytes32"
        }
      ],
      "name": "RelayedRootBundle",
      "type": "event"
    },
    {
      "anonymous": false,
      "inputs": [
        {
          "indexed": false,
          "internalType": "int64",
          "name": "newRelayerFeePct",
          "type": "int64"
        },
        {
          "indexed": true,
          "internalType": "uint32",
          "name": "depositId",
          "type": "uint32"
        },
        {
          "indexed": true,
          "internalType": "address",
          "name": "depositor",
          "type": "address"
        },
        {
          "indexed": false,
          "internalType": "address",
          "name": "updatedRecipient",
          "type": "address"
        },
        {
          "indexed": false,
          "internalType": "bytes",
          "name": "updatedMessage",
          "type": "bytes"
        },
        {
          "indexed": false,
          "internalType": "bytes",
          "name": "depositorSignature",
          "type": "bytes"
        }
      ],
      "name": "RequestedSpeedUpDeposit",
      "type": "event"
    },
    {
      "anonymous": false,
      "inputs": [
        {
          "indexed": false,
          "internalType": "uint256",
          "name": "updatedOutputAmount",
          "type": "uint256"
        },
        {
          "indexed": true,
          "internalType": "uint32",
          "name": "depositId",
          "type": "uint32"
        },
        {
          "indexed": true,
          "internalType": "address",
          "name": "depositor",
          "type": "address"
        },
        {
          "indexed": false,
          "internalType": "address",
          "name": "updatedRecipient",
          "type": "address"
        },
        {
          "indexed": false,
          "internalType": "bytes",
          "name": "updatedMessage",
          "type": "bytes"
        },
        {
          "indexed": false,
          "internalType": "bytes",
          "name": "depositorSignature",
          "type": "bytes"
        }
      ],
      "name": "RequestedSpeedUpV3Deposit",
      "type": "event"
    },
    {
      "anonymous": false,
      "inputs": [
        {
          "indexed": false,
          "internalType": "address",
          "name": "inputToken",
          "type": "address"
        },
        {
          "indexed": false,
          "internalType": "address",
          "name": "outputToken",
          "type": "address"
        },
        {
          "indexed": false,
          "internalType": "uint256",
          "name": "inputAmount",
          "type": "uint256"
        },
        {
          "indexed": false,
          "internalType": "uint256",
          "name": "outputAmount",
          "type": "uint256"
        },
        {
          "indexed": true,
          "internalType": "uint256",
          "name": "originChainId",
          "type": "uint256"
        },
        {
          "indexed": true,
          "internalType": "uint32",
          "name": "depositId",
          "type": "uint32"
        },
        {
          "indexed": false,
          "internalType": "uint32",
          "name": "fillDeadline",
          "type": "uint32"
        },
        {
          "indexed": false,
          "internalType": "uint32",
          "name": "exclusivityDeadline",
          "type": "uint32"
        },
        {
          "indexed": false,
          "internalType": "address",
          "name": "exclusiveRelayer",
          "type": "address"
        },
        {
          "indexed": false,
          "internalType": "address",
          "name": "depositor",
          "type": "address"
        },
        {
          "indexed": false,
          "internalType": "address",
          "name": "recipient",
          "type": "address"
        },
        {
          "indexed": false,
          "internalType": "bytes",
          "name": "message",
          "type": "bytes"
        }
      ],
      "name": "RequestedV3SlowFill",
      "type": "event"
    },
    {
      "anonymous": false,
      "inputs": [
        {
          "indexed": true,
          "internalType": "address",
          "name": "newHubPool",
          "type": "address"
        }
      ],
      "name": "SetHubPool",
      "type": "event"
    },
    {
      "anonymous": false,
      "inputs": [
        {
          "indexed": true,
          "internalType": "uint32",
          "name": "newL1Gas",
          "type": "uint32"
        }
      ],
      "name": "SetL1Gas",
      "type": "event"
    },
    {
      "anonymous": false,
      "inputs": [
        {
          "indexed": true,
          "internalType": "address",
          "name": "l2Token",
          "type": "address"
        },
        {
          "indexed": true,
          "internalType": "address",
          "name": "tokenBridge",
          "type": "address"
        }
      ],
      "name": "SetL2TokenBridge",
      "type": "event"
    },
    {
      "anonymous": false,
      "inputs": [
        {
          "indexed": true,
          "internalType": "address",
          "name": "newAdmin",
          "type": "address"
        }
      ],
      "name": "SetXDomainAdmin",
      "type": "event"
    },
    {
      "anonymous": false,
      "inputs": [
        {
          "indexed": false,
          "internalType": "uint256",
          "name": "amountToReturn",
          "type": "uint256"
        },
        {
          "indexed": true,
          "internalType": "uint256",
          "name": "chainId",
          "type": "uint256"
        },
        {
          "indexed": true,
          "internalType": "uint32",
          "name": "leafId",
          "type": "uint32"
        },
        {
          "indexed": true,
          "internalType": "address",
          "name": "l2TokenAddress",
          "type": "address"
        },
        {
          "indexed": false,
          "internalType": "address",
          "name": "caller",
          "type": "address"
        }
      ],
      "name": "TokensBridged",
      "type": "event"
    },
    {
      "anonymous": false,
      "inputs": [
        {
          "indexed": true,
          "internalType": "address",
          "name": "implementation",
          "type": "address"
        }
      ],
      "name": "Upgraded",
      "type": "event"
    },
    {
      "anonymous": false,
      "inputs": [
        {
          "indexed": false,
          "internalType": "address",
          "name": "inputToken",
          "type": "address"
        },
        {
          "indexed": false,
          "internalType": "address",
          "name": "outputToken",
          "type": "address"
        },
        {
          "indexed": false,
          "internalType": "uint256",
          "name": "inputAmount",
          "type": "uint256"
        },
        {
          "indexed": false,
          "internalType": "uint256",
          "name": "outputAmount",
          "type": "uint256"
        },
        {
          "indexed": true,
          "internalType": "uint256",
          "name": "destinationChainId",
          "type": "uint256"
        },
        {
          "indexed": true,
          "internalType": "uint32",
          "name": "depositId",
          "type": "uint32"
        },
        {
          "indexed": false,
          "internalType": "uint32",
          "name": "quoteTimestamp",
          "type": "uint32"
        },
        {
          "indexed": false,
          "internalType": "uint32",
          "name": "fillDeadline",
          "type": "uint32"
        },
        {
          "indexed": false,
          "internalType": "uint32",
          "name": "exclusivityDeadline",
          "type": "uint32"
        },
        {
          "indexed": true,
          "internalType": "address",
          "name": "depositor",
          "type": "address"
        },
        {
          "indexed": false,
          "internalType": "address",
          "name": "recipient",
          "type": "address"
        },
        {
          "indexed": false,
          "internalType": "address",
          "name": "exclusiveRelayer",
          "type": "address"
        },
        {
          "indexed": false,
          "internalType": "bytes",
          "name": "message",
          "type": "bytes"
        }
      ],
      "name": "V3FundsDeposited",
      "type": "event"
    },
    {
      "inputs": [],
      "name": "EMPTY_RELAYER",
      "outputs": [
        {
          "internalType": "address",
          "name": "",
          "type": "address"
        }
      ],
      "stateMutability": "view",
      "type": "function"
    },
    {
      "inputs": [],
      "name": "EMPTY_REPAYMENT_CHAIN_ID",
      "outputs": [
        {
          "internalType": "uint256",
          "name": "",
          "type": "uint256"
        }
      ],
      "stateMutability": "view",
      "type": "function"
    },
    {
      "inputs": [],
      "name": "INFINITE_FILL_DEADLINE",
      "outputs": [
        {
          "internalType": "uint32",
          "name": "",
          "type": "uint32"
        }
      ],
      "stateMutability": "view",
      "type": "function"
    },
    {
      "inputs": [],
      "name": "MAX_TRANSFER_SIZE",
      "outputs": [
        {
          "internalType": "uint256",
          "name": "",
          "type": "uint256"
        }
      ],
      "stateMutability": "view",
      "type": "function"
    },
    {
      "inputs": [],
      "name": "SLOW_FILL_MAX_TOKENS_TO_SEND",
      "outputs": [
        {
          "internalType": "uint256",
          "name": "",
          "type": "uint256"
        }
      ],
      "stateMutability": "view",
      "type": "function"
    },
    {
      "inputs": [],
      "name": "UPDATE_DEPOSIT_DETAILS_HASH",
      "outputs": [
        {
          "internalType": "bytes32",
          "name": "",
          "type": "bytes32"
        }
      ],
      "stateMutability": "view",
      "type": "function"
    },
    {
      "inputs": [],
      "name": "UPDATE_V3_DEPOSIT_DETAILS_HASH",
      "outputs": [
        {
          "internalType": "bytes32",
          "name": "",
          "type": "bytes32"
        }
      ],
      "stateMutability": "view",
      "type": "function"
    },
    {
      "inputs": [
        {
          "internalType": "uint32",
          "name": "_initialDepositId",
          "type": "uint32"
        },
        {
          "internalType": "address",
          "name": "_crossDomainAdmin",
          "type": "address"
        },
        {
          "internalType": "address",
          "name": "_hubPool",
          "type": "address"
        },
        {
          "internalType": "address",
          "name": "_l2Eth",
          "type": "address"
        }
      ],
      "name": "__OvmSpokePool_init",
      "outputs": [],
      "stateMutability": "nonpayable",
      "type": "function"
    },
    {
      "inputs": [
        {
          "internalType": "uint32",
          "name": "_initialDepositId",
          "type": "uint32"
        },
        {
          "internalType": "address",
          "name": "_crossDomainAdmin",
          "type": "address"
        },
        {
          "internalType": "address",
          "name": "_hubPool",
          "type": "address"
        }
      ],
      "name": "__SpokePool_init",
      "outputs": [],
      "stateMutability": "nonpayable",
      "type": "function"
    },
    {
      "inputs": [],
      "name": "cctpTokenMessenger",
      "outputs": [
        {
          "internalType": "contract ITokenMessenger",
          "name": "",
          "type": "address"
        }
      ],
      "stateMutability": "view",
      "type": "function"
    },
    {
      "inputs": [],
      "name": "chainId",
      "outputs": [
        {
          "internalType": "uint256",
          "name": "",
          "type": "uint256"
        }
      ],
      "stateMutability": "view",
      "type": "function"
    },
    {
      "inputs": [],
      "name": "crossDomainAdmin",
      "outputs": [
        {
          "internalType": "address",
          "name": "",
          "type": "address"
        }
      ],
      "stateMutability": "view",
      "type": "function"
    },
    {
      "inputs": [
        {
          "internalType": "address",
          "name": "recipient",
          "type": "address"
        },
        {
          "internalType": "address",
          "name": "originToken",
          "type": "address"
        },
        {
          "internalType": "uint256",
          "name": "amount",
          "type": "uint256"
        },
        {
          "internalType": "uint256",
          "name": "destinationChainId",
          "type": "uint256"
        },
        {
          "internalType": "int64",
          "name": "relayerFeePct",
          "type": "int64"
        },
        {
          "internalType": "uint32",
          "name": "quoteTimestamp",
          "type": "uint32"
        },
        {
          "internalType": "bytes",
          "name": "message",
          "type": "bytes"
        },
        {
          "internalType": "uint256",
          "name": "",
          "type": "uint256"
        }
      ],
      "name": "deposit",
      "outputs": [],
      "stateMutability": "payable",
      "type": "function"
    },
    {
      "inputs": [
        {
          "internalType": "address",
          "name": "depositor",
          "type": "address"
        },
        {
          "internalType": "address",
          "name": "recipient",
          "type": "address"
        },
        {
          "internalType": "address",
          "name": "originToken",
          "type": "address"
        },
        {
          "internalType": "uint256",
          "name": "amount",
          "type": "uint256"
        },
        {
          "internalType": "uint256",
          "name": "destinationChainId",
          "type": "uint256"
        },
        {
          "internalType": "int64",
          "name": "relayerFeePct",
          "type": "int64"
        },
        {
          "internalType": "uint32",
          "name": "quoteTimestamp",
          "type": "uint32"
        },
        {
          "internalType": "bytes",
          "name": "message",
          "type": "bytes"
        },
        {
          "internalType": "uint256",
          "name": "",
          "type": "uint256"
        }
      ],
      "name": "depositFor",
      "outputs": [],
      "stateMutability": "payable",
      "type": "function"
    },
    {
      "inputs": [
        {
          "internalType": "address",
          "name": "depositor",
          "type": "address"
        },
        {
          "internalType": "address",
          "name": "recipient",
          "type": "address"
        },
        {
          "internalType": "address",
          "name": "originToken",
          "type": "address"
        },
        {
          "internalType": "uint256",
          "name": "amount",
          "type": "uint256"
        },
        {
          "internalType": "uint256",
          "name": "destinationChainId",
          "type": "uint256"
        },
        {
          "internalType": "int64",
          "name": "relayerFeePct",
          "type": "int64"
        },
        {
          "internalType": "bytes",
          "name": "message",
          "type": "bytes"
        },
        {
          "internalType": "uint256",
          "name": "maxCount",
          "type": "uint256"
        }
      ],
      "name": "depositForNow",
      "outputs": [],
      "stateMutability": "payable",
      "type": "function"
    },
    {
      "inputs": [
        {
          "internalType": "address",
          "name": "recipient",
          "type": "address"
        },
        {
          "internalType": "address",
          "name": "originToken",
          "type": "address"
        },
        {
          "internalType": "uint256",
          "name": "amount",
          "type": "uint256"
        },
        {
          "internalType": "uint256",
          "name": "destinationChainId",
          "type": "uint256"
        },
        {
          "internalType": "int64",
          "name": "relayerFeePct",
          "type": "int64"
        },
        {
          "internalType": "bytes",
          "name": "message",
          "type": "bytes"
        },
        {
          "internalType": "uint256",
          "name": "maxCount",
          "type": "uint256"
        }
      ],
      "name": "depositNow",
      "outputs": [],
      "stateMutability": "payable",
      "type": "function"
    },
    {
      "inputs": [],
      "name": "depositQuoteTimeBuffer",
      "outputs": [
        {
          "internalType": "uint32",
          "name": "",
          "type": "uint32"
        }
      ],
      "stateMutability": "view",
      "type": "function"
    },
    {
      "inputs": [
        {
          "internalType": "address",
          "name": "depositor",
          "type": "address"
        },
        {
          "internalType": "address",
          "name": "recipient",
          "type": "address"
        },
        {
          "internalType": "address",
          "name": "inputToken",
          "type": "address"
        },
        {
          "internalType": "address",
          "name": "outputToken",
          "type": "address"
        },
        {
          "internalType": "uint256",
          "name": "inputAmount",
          "type": "uint256"
        },
        {
          "internalType": "uint256",
          "name": "outputAmount",
          "type": "uint256"
        },
        {
          "internalType": "uint256",
          "name": "destinationChainId",
          "type": "uint256"
        },
        {
          "internalType": "address",
          "name": "exclusiveRelayer",
          "type": "address"
        },
        {
          "internalType": "uint32",
          "name": "quoteTimestamp",
          "type": "uint32"
        },
        {
          "internalType": "uint32",
          "name": "fillDeadline",
          "type": "uint32"
        },
        {
          "internalType": "uint32",
          "name": "exclusivityDeadline",
          "type": "uint32"
        },
        {
          "internalType": "bytes",
          "name": "message",
          "type": "bytes"
        }
      ],
      "name": "depositV3",
      "outputs": [],
      "stateMutability": "payable",
      "type": "function"
    },
    {
      "inputs": [
        {
          "internalType": "uint256",
          "name": "rootBundleId",
          "type": "uint256"
        }
      ],
      "name": "emergencyDeleteRootBundle",
      "outputs": [],
      "stateMutability": "nonpayable",
      "type": "function"
    },
    {
      "inputs": [
        {
          "internalType": "address",
          "name": "",
          "type": "address"
        },
        {
          "internalType": "uint256",
          "name": "",
          "type": "uint256"
        }
      ],
      "name": "enabledDepositRoutes",
      "outputs": [
        {
          "internalType": "bool",
          "name": "",
          "type": "bool"
        }
      ],
      "stateMutability": "view",
      "type": "function"
    },
    {
      "inputs": [
        {
          "internalType": "uint32",
          "name": "rootBundleId",
          "type": "uint32"
        },
        {
          "components": [
            {
              "internalType": "uint256",
              "name": "amountToReturn",
              "type": "uint256"
            },
            {
              "internalType": "uint256",
              "name": "chainId",
              "type": "uint256"
            },
            {
              "internalType": "uint256[]",
              "name": "refundAmounts",
              "type": "uint256[]"
            },
            {
              "internalType": "uint32",
              "name": "leafId",
              "type": "uint32"
            },
            {
              "internalType": "address",
              "name": "l2TokenAddress",
              "type": "address"
            },
            {
              "internalType": "address[]",
              "name": "refundAddresses",
              "type": "address[]"
            }
          ],
          "internalType": "struct SpokePoolInterface.RelayerRefundLeaf",
          "name": "relayerRefundLeaf",
          "type": "tuple"
        },
        {
          "internalType": "bytes32[]",
          "name": "proof",
          "type": "bytes32[]"
        }
      ],
      "name": "executeRelayerRefundLeaf",
      "outputs": [],
      "stateMutability": "payable",
      "type": "function"
    },
    {
      "inputs": [
        {
          "internalType": "address",
          "name": "depositor",
          "type": "address"
        },
        {
          "internalType": "address",
          "name": "recipient",
          "type": "address"
        },
        {
          "internalType": "address",
          "name": "destinationToken",
          "type": "address"
        },
        {
          "internalType": "uint256",
          "name": "amount",
          "type": "uint256"
        },
        {
          "internalType": "uint256",
          "name": "originChainId",
          "type": "uint256"
        },
        {
          "internalType": "int64",
          "name": "realizedLpFeePct",
          "type": "int64"
        },
        {
          "internalType": "int64",
          "name": "relayerFeePct",
          "type": "int64"
        },
        {
          "internalType": "uint32",
          "name": "depositId",
          "type": "uint32"
        },
        {
          "internalType": "uint32",
          "name": "rootBundleId",
          "type": "uint32"
        },
        {
          "internalType": "bytes",
          "name": "message",
          "type": "bytes"
        },
        {
          "internalType": "int256",
          "name": "payoutAdjustment",
          "type": "int256"
        },
        {
          "internalType": "bytes32[]",
          "name": "proof",
          "type": "bytes32[]"
        }
      ],
      "name": "executeSlowRelayLeaf",
      "outputs": [],
      "stateMutability": "nonpayable",
      "type": "function"
    },
    {
      "inputs": [
        {
          "components": [
            {
              "components": [
                {
                  "internalType": "address",
                  "name": "depositor",
                  "type": "address"
                },
                {
                  "internalType": "address",
                  "name": "recipient",
                  "type": "address"
                },
                {
                  "internalType": "address",
                  "name": "exclusiveRelayer",
                  "type": "address"
                },
                {
                  "internalType": "address",
                  "name": "inputToken",
                  "type": "address"
                },
                {
                  "internalType": "address",
                  "name": "outputToken",
                  "type": "address"
                },
                {
                  "internalType": "uint256",
                  "name": "inputAmount",
                  "type": "uint256"
                },
                {
                  "internalType": "uint256",
                  "name": "outputAmount",
                  "type": "uint256"
                },
                {
                  "internalType": "uint256",
                  "name": "originChainId",
                  "type": "uint256"
                },
                {
                  "internalType": "uint32",
                  "name": "depositId",
                  "type": "uint32"
                },
                {
                  "internalType": "uint32",
                  "name": "fillDeadline",
                  "type": "uint32"
                },
                {
                  "internalType": "uint32",
                  "name": "exclusivityDeadline",
                  "type": "uint32"
                },
                {
                  "internalType": "bytes",
                  "name": "message",
                  "type": "bytes"
                }
              ],
              "internalType": "struct V3SpokePoolInterface.V3RelayData",
              "name": "relayData",
              "type": "tuple"
            },
            {
              "internalType": "uint256",
              "name": "chainId",
              "type": "uint256"
            },
            {
              "internalType": "uint256",
              "name": "updatedOutputAmount",
              "type": "uint256"
            }
          ],
          "internalType": "struct V3SpokePoolInterface.V3SlowFill",
          "name": "slowFillLeaf",
          "type": "tuple"
        },
        {
          "internalType": "uint32",
          "name": "rootBundleId",
          "type": "uint32"
        },
        {
          "internalType": "bytes32[]",
          "name": "proof",
          "type": "bytes32[]"
        }
      ],
      "name": "executeV3SlowRelayLeaf",
      "outputs": [],
      "stateMutability": "nonpayable",
      "type": "function"
    },
    {
      "inputs": [],
      "name": "fillDeadlineBuffer",
      "outputs": [
        {
          "internalType": "uint32",
          "name": "",
          "type": "uint32"
        }
      ],
      "stateMutability": "view",
      "type": "function"
    },
    {
      "inputs": [
        {
          "internalType": "address",
          "name": "depositor",
          "type": "address"
        },
        {
          "internalType": "address",
          "name": "recipient",
          "type": "address"
        },
        {
          "internalType": "address",
          "name": "destinationToken",
          "type": "address"
        },
        {
          "internalType": "uint256",
          "name": "amount",
          "type": "uint256"
        },
        {
          "internalType": "uint256",
          "name": "maxTokensToSend",
          "type": "uint256"
        },
        {
          "internalType": "uint256",
          "name": "repaymentChainId",
          "type": "uint256"
        },
        {
          "internalType": "uint256",
          "name": "originChainId",
          "type": "uint256"
        },
        {
          "internalType": "int64",
          "name": "realizedLpFeePct",
          "type": "int64"
        },
        {
          "internalType": "int64",
          "name": "relayerFeePct",
          "type": "int64"
        },
        {
          "internalType": "uint32",
          "name": "depositId",
          "type": "uint32"
        },
        {
          "internalType": "bytes",
          "name": "message",
          "type": "bytes"
        },
        {
          "internalType": "uint256",
          "name": "maxCount",
          "type": "uint256"
        }
      ],
      "name": "fillRelay",
      "outputs": [],
      "stateMutability": "nonpayable",
      "type": "function"
    },
    {
      "inputs": [
        {
          "internalType": "address",
          "name": "depositor",
          "type": "address"
        },
        {
          "internalType": "address",
          "name": "recipient",
          "type": "address"
        },
        {
          "internalType": "address",
          "name": "updatedRecipient",
          "type": "address"
        },
        {
          "internalType": "address",
          "name": "destinationToken",
          "type": "address"
        },
        {
          "internalType": "uint256",
          "name": "amount",
          "type": "uint256"
        },
        {
          "internalType": "uint256",
          "name": "maxTokensToSend",
          "type": "uint256"
        },
        {
          "internalType": "uint256",
          "name": "repaymentChainId",
          "type": "uint256"
        },
        {
          "internalType": "uint256",
          "name": "originChainId",
          "type": "uint256"
        },
        {
          "internalType": "int64",
          "name": "realizedLpFeePct",
          "type": "int64"
        },
        {
          "internalType": "int64",
          "name": "relayerFeePct",
          "type": "int64"
        },
        {
          "internalType": "int64",
          "name": "updatedRelayerFeePct",
          "type": "int64"
        },
        {
          "internalType": "uint32",
          "name": "depositId",
          "type": "uint32"
        },
        {
          "internalType": "bytes",
          "name": "message",
          "type": "bytes"
        },
        {
          "internalType": "bytes",
          "name": "updatedMessage",
          "type": "bytes"
        },
        {
          "internalType": "bytes",
          "name": "depositorSignature",
          "type": "bytes"
        },
        {
          "internalType": "uint256",
          "name": "maxCount",
          "type": "uint256"
        }
      ],
      "name": "fillRelayWithUpdatedDeposit",
      "outputs": [],
      "stateMutability": "nonpayable",
      "type": "function"
    },
    {
      "inputs": [
        {
          "internalType": "bytes32",
          "name": "",
          "type": "bytes32"
        }
      ],
      "name": "fillStatuses",
      "outputs": [
        {
          "internalType": "uint256",
          "name": "",
          "type": "uint256"
        }
      ],
      "stateMutability": "view",
      "type": "function"
    },
    {
      "inputs": [
        {
          "components": [
            {
              "internalType": "address",
              "name": "depositor",
              "type": "address"
            },
            {
              "internalType": "address",
              "name": "recipient",
              "type": "address"
            },
            {
              "internalType": "address",
              "name": "exclusiveRelayer",
              "type": "address"
            },
            {
              "internalType": "address",
              "name": "inputToken",
              "type": "address"
            },
            {
              "internalType": "address",
              "name": "outputToken",
              "type": "address"
            },
            {
              "internalType": "uint256",
              "name": "inputAmount",
              "type": "uint256"
            },
            {
              "internalType": "uint256",
              "name": "outputAmount",
              "type": "uint256"
            },
            {
              "internalType": "uint256",
              "name": "originChainId",
              "type": "uint256"
            },
            {
              "internalType": "uint32",
              "name": "depositId",
              "type": "uint32"
            },
            {
              "internalType": "uint32",
              "name": "fillDeadline",
              "type": "uint32"
            },
            {
              "internalType": "uint32",
              "name": "exclusivityDeadline",
              "type": "uint32"
            },
            {
              "internalType": "bytes",
              "name": "message",
              "type": "bytes"
            }
          ],
          "internalType": "struct V3SpokePoolInterface.V3RelayData",
          "name": "relayData",
          "type": "tuple"
        },
        {
          "internalType": "uint256",
          "name": "repaymentChainId",
          "type": "uint256"
        }
      ],
      "name": "fillV3Relay",
      "outputs": [],
      "stateMutability": "nonpayable",
      "type": "function"
    },
    {
      "inputs": [
        {
          "components": [
            {
              "internalType": "address",
              "name": "depositor",
              "type": "address"
            },
            {
              "internalType": "address",
              "name": "recipient",
              "type": "address"
            },
            {
              "internalType": "address",
              "name": "exclusiveRelayer",
              "type": "address"
            },
            {
              "internalType": "address",
              "name": "inputToken",
              "type": "address"
            },
            {
              "internalType": "address",
              "name": "outputToken",
              "type": "address"
            },
            {
              "internalType": "uint256",
              "name": "inputAmount",
              "type": "uint256"
            },
            {
              "internalType": "uint256",
              "name": "outputAmount",
              "type": "uint256"
            },
            {
              "internalType": "uint256",
              "name": "originChainId",
              "type": "uint256"
            },
            {
              "internalType": "uint32",
              "name": "depositId",
              "type": "uint32"
            },
            {
              "internalType": "uint32",
              "name": "fillDeadline",
              "type": "uint32"
            },
            {
              "internalType": "uint32",
              "name": "exclusivityDeadline",
              "type": "uint32"
            },
            {
              "internalType": "bytes",
              "name": "message",
              "type": "bytes"
            }
          ],
          "internalType": "struct V3SpokePoolInterface.V3RelayData",
          "name": "relayData",
          "type": "tuple"
        },
        {
          "internalType": "uint256",
          "name": "repaymentChainId",
          "type": "uint256"
        },
        {
          "internalType": "uint256",
          "name": "updatedOutputAmount",
          "type": "uint256"
        },
        {
          "internalType": "address",
          "name": "updatedRecipient",
          "type": "address"
        },
        {
          "internalType": "bytes",
          "name": "updatedMessage",
          "type": "bytes"
        },
        {
          "internalType": "bytes",
          "name": "depositorSignature",
          "type": "bytes"
        }
      ],
      "name": "fillV3RelayWithUpdatedDeposit",
      "outputs": [],
      "stateMutability": "nonpayable",
      "type": "function"
    },
    {
      "inputs": [],
      "name": "getCurrentTime",
      "outputs": [
        {
          "internalType": "uint256",
          "name": "",
          "type": "uint256"
        }
      ],
      "stateMutability": "view",
      "type": "function"
    },
    {
      "inputs": [],
      "name": "hubPool",
      "outputs": [
        {
          "internalType": "address",
          "name": "",
          "type": "address"
        }
      ],
      "stateMutability": "view",
      "type": "function"
    },
    {
      "inputs": [
        {
          "internalType": "uint32",
          "name": "_initialDepositId",
          "type": "uint32"
        },
        {
          "internalType": "address",
          "name": "_crossDomainAdmin",
          "type": "address"
        },
        {
          "internalType": "address",
          "name": "_hubPool",
          "type": "address"
        }
      ],
      "name": "initialize",
      "outputs": [],
      "stateMutability": "nonpayable",
      "type": "function"
    },
    {
      "inputs": [],
      "name": "l1Gas",
      "outputs": [
        {
          "internalType": "uint32",
          "name": "",
          "type": "uint32"
        }
      ],
      "stateMutability": "view",
      "type": "function"
    },
    {
      "inputs": [],
      "name": "l2Eth",
      "outputs": [
        {
          "internalType": "address",
          "name": "",
          "type": "address"
        }
      ],
      "stateMutability": "view",
      "type": "function"
    },
    {
      "inputs": [],
      "name": "messenger",
      "outputs": [
        {
          "internalType": "address",
          "name": "",
          "type": "address"
        }
      ],
      "stateMutability": "view",
      "type": "function"
    },
    {
      "inputs": [
        {
          "internalType": "bytes[]",
          "name": "data",
          "type": "bytes[]"
        }
      ],
      "name": "multicall",
      "outputs": [
        {
          "internalType": "bytes[]",
          "name": "results",
          "type": "bytes[]"
        }
      ],
      "stateMutability": "nonpayable",
      "type": "function"
    },
    {
      "inputs": [],
      "name": "numberOfDeposits",
      "outputs": [
        {
          "internalType": "uint32",
          "name": "",
          "type": "uint32"
        }
      ],
      "stateMutability": "view",
      "type": "function"
    },
    {
      "inputs": [
        {
          "internalType": "bool",
          "name": "pause",
          "type": "bool"
        }
      ],
      "name": "pauseDeposits",
      "outputs": [],
      "stateMutability": "nonpayable",
      "type": "function"
    },
    {
      "inputs": [
        {
          "internalType": "bool",
          "name": "pause",
          "type": "bool"
        }
      ],
      "name": "pauseFills",
      "outputs": [],
      "stateMutability": "nonpayable",
      "type": "function"
    },
    {
      "inputs": [],
      "name": "pausedDeposits",
      "outputs": [
        {
          "internalType": "bool",
          "name": "",
          "type": "bool"
        }
      ],
      "stateMutability": "view",
      "type": "function"
    },
    {
      "inputs": [],
      "name": "pausedFills",
      "outputs": [
        {
          "internalType": "bool",
          "name": "",
          "type": "bool"
        }
      ],
      "stateMutability": "view",
      "type": "function"
    },
    {
      "inputs": [],
      "name": "proxiableUUID",
      "outputs": [
        {
          "internalType": "bytes32",
          "name": "",
          "type": "bytes32"
        }
      ],
      "stateMutability": "view",
      "type": "function"
    },
    {
      "inputs": [],
      "name": "recipientCircleDomainId",
      "outputs": [
        {
          "internalType": "uint32",
          "name": "",
          "type": "uint32"
        }
      ],
      "stateMutability": "view",
      "type": "function"
    },
    {
      "inputs": [
        {
          "internalType": "bytes32",
          "name": "relayerRefundRoot",
          "type": "bytes32"
        },
        {
          "internalType": "bytes32",
          "name": "slowRelayRoot",
          "type": "bytes32"
        }
      ],
      "name": "relayRootBundle",
      "outputs": [],
      "stateMutability": "nonpayable",
      "type": "function"
    },
    {
      "inputs": [
        {
          "components": [
            {
              "internalType": "address",
              "name": "depositor",
              "type": "address"
            },
            {
              "internalType": "address",
              "name": "recipient",
              "type": "address"
            },
            {
              "internalType": "address",
              "name": "exclusiveRelayer",
              "type": "address"
            },
            {
              "internalType": "address",
              "name": "inputToken",
              "type": "address"
            },
            {
              "internalType": "address",
              "name": "outputToken",
              "type": "address"
            },
            {
              "internalType": "uint256",
              "name": "inputAmount",
              "type": "uint256"
            },
            {
              "internalType": "uint256",
              "name": "outputAmount",
              "type": "uint256"
            },
            {
              "internalType": "uint256",
              "name": "originChainId",
              "type": "uint256"
            },
            {
              "internalType": "uint32",
              "name": "depositId",
              "type": "uint32"
            },
            {
              "internalType": "uint32",
              "name": "fillDeadline",
              "type": "uint32"
            },
            {
              "internalType": "uint32",
              "name": "exclusivityDeadline",
              "type": "uint32"
            },
            {
              "internalType": "bytes",
              "name": "message",
              "type": "bytes"
            }
          ],
          "internalType": "struct V3SpokePoolInterface.V3RelayData",
          "name": "relayData",
          "type": "tuple"
        }
      ],
      "name": "requestV3SlowFill",
      "outputs": [],
      "stateMutability": "nonpayable",
      "type": "function"
    },
    {
      "inputs": [
        {
          "internalType": "uint256",
          "name": "",
          "type": "uint256"
        }
      ],
      "name": "rootBundles",
      "outputs": [
        {
          "internalType": "bytes32",
          "name": "slowRelayRoot",
          "type": "bytes32"
        },
        {
          "internalType": "bytes32",
          "name": "relayerRefundRoot",
          "type": "bytes32"
        }
      ],
      "stateMutability": "view",
      "type": "function"
    },
    {
      "inputs": [
        {
          "internalType": "address",
          "name": "newCrossDomainAdmin",
          "type": "address"
        }
      ],
      "name": "setCrossDomainAdmin",
      "outputs": [],
      "stateMutability": "nonpayable",
      "type": "function"
    },
    {
      "inputs": [
        {
          "internalType": "address",
          "name": "originToken",
          "type": "address"
        },
        {
          "internalType": "uint256",
          "name": "destinationChainId",
          "type": "uint256"
        },
        {
          "internalType": "bool",
          "name": "enabled",
          "type": "bool"
        }
      ],
      "name": "setEnableRoute",
      "outputs": [],
      "stateMutability": "nonpayable",
      "type": "function"
    },
    {
      "inputs": [
        {
          "internalType": "address",
          "name": "newHubPool",
          "type": "address"
        }
      ],
      "name": "setHubPool",
      "outputs": [],
      "stateMutability": "nonpayable",
      "type": "function"
    },
    {
      "inputs": [
        {
          "internalType": "uint32",
          "name": "newl1Gas",
          "type": "uint32"
        }
      ],
      "name": "setL1GasLimit",
      "outputs": [],
      "stateMutability": "nonpayable",
      "type": "function"
    },
    {
      "inputs": [
        {
          "internalType": "address",
          "name": "l2Token",
          "type": "address"
        },
        {
          "internalType": "address",
          "name": "tokenBridge",
          "type": "address"
        }
      ],
      "name": "setTokenBridge",
      "outputs": [],
      "stateMutability": "nonpayable",
      "type": "function"
    },
    {
      "inputs": [
        {
          "internalType": "address",
          "name": "depositor",
          "type": "address"
        },
        {
          "internalType": "int64",
          "name": "updatedRelayerFeePct",
          "type": "int64"
        },
        {
          "internalType": "uint32",
          "name": "depositId",
          "type": "uint32"
        },
        {
          "internalType": "address",
          "name": "updatedRecipient",
          "type": "address"
        },
        {
          "internalType": "bytes",
          "name": "updatedMessage",
          "type": "bytes"
        },
        {
          "internalType": "bytes",
          "name": "depositorSignature",
          "type": "bytes"
        }
      ],
      "name": "speedUpDeposit",
      "outputs": [],
      "stateMutability": "nonpayable",
      "type": "function"
    },
    {
      "inputs": [
        {
          "internalType": "address",
          "name": "depositor",
          "type": "address"
        },
        {
          "internalType": "uint32",
          "name": "depositId",
          "type": "uint32"
        },
        {
          "internalType": "uint256",
          "name": "updatedOutputAmount",
          "type": "uint256"
        },
        {
          "internalType": "address",
          "name": "updatedRecipient",
          "type": "address"
        },
        {
          "internalType": "bytes",
          "name": "updatedMessage",
          "type": "bytes"
        },
        {
          "internalType": "bytes",
          "name": "depositorSignature",
          "type": "bytes"
        }
      ],
      "name": "speedUpV3Deposit",
      "outputs": [],
      "stateMutability": "nonpayable",
      "type": "function"
    },
    {
      "inputs": [
        {
          "internalType": "address",
          "name": "",
          "type": "address"
        }
      ],
      "name": "tokenBridges",
      "outputs": [
        {
          "internalType": "address",
          "name": "",
          "type": "address"
        }
      ],
      "stateMutability": "view",
      "type": "function"
    },
    {
      "inputs": [
        {
          "internalType": "address",
          "name": "newImplementation",
          "type": "address"
        }
      ],
      "name": "upgradeTo",
      "outputs": [],
      "stateMutability": "nonpayable",
      "type": "function"
    },
    {
      "inputs": [
        {
          "internalType": "address",
          "name": "newImplementation",
          "type": "address"
        },
        {
          "internalType": "bytes",
          "name": "data",
          "type": "bytes"
        }
      ],
      "name": "upgradeToAndCall",
      "outputs": [],
      "stateMutability": "payable",
      "type": "function"
    },
    {
      "inputs": [],
      "name": "usdcToken",
      "outputs": [
        {
          "internalType": "contract IERC20",
          "name": "",
          "type": "address"
        }
      ],
      "stateMutability": "view",
      "type": "function"
    },
    {
      "inputs": [],
      "name": "wrappedNativeToken",
      "outputs": [
        {
          "internalType": "contract WETH9Interface",
          "name": "",
          "type": "address"
        }
      ],
      "stateMutability": "view",
      "type": "function"
    },
    {
      "stateMutability": "payable",
      "type": "receive"
    }
  ],
  "numDeployments": 3,
  "solcInputHash": "574ac3c89772e8289637a54992d38a85",
  "bytecode": "0x61016034620001db57601f6200544838819003918201601f19168301916001600160401b03831184841017620001df5780849260a094604052833981010312620001db5780516001600160a01b03919082811690819003620001db576200006960208301620001f3565b6200007760408401620001f3565b916060840151938585168503620001db57608001519485168503620001db573060805260a05260c05260e0525f5460ff8160081c16620001db5760ff80821603620001a0575b50610120908152610140918252610100915f8352604051916152429384620002068539608051848181610dcc015281816112a50152611445015260a05184818161098501528181612bd3015281816131ba015281816133f201528181613aa501528181613d0e015281816140c5015281816148a101528181614afa0152614b21015260c05184818161153501528181612b7b01526133a1015260e0518481816103e30152612d290152518381816117710152614fc101525182818161092701528181614ab80152614f3a0152518181816119f4015281816149840152614f0d0152f35b60ff90811916175f557f7f26b83ff96e1f2b6a682f133852f6798a09c465da95921460cefb3847402498602060405160ff8152a15f620000bd565b5f80fd5b634e487b7160e01b5f52604160045260245ffd5b519063ffffffff82168203620001db5756fe6080604052600436101561001a575b3615610018575f80fd5b005b5f3560e01c8063079bd2c7146103b45780630c2097f7146103af5780630eaac9f0146103aa5780631186ec33146103a557806311eac855146103a057806315348e441461032d57806317fcb39b1461039b5780631b3d5559146103965780631dfb2d0214610391578063272751c71461038c57806329cb924d146103875780632cfc26c5146103825780632e3781151461037d5780633659cfe6146103785780633cb747bf14610373578063431023b81461036e57806344b8be6814610369578063493a4f84146103645780634e0fb8f51461035f5780634f1ef2861461035a5780635249fef1146103555780635285e0581461035057806352d1902d1461034b578063541f4f141461034657806357f6dcb8146103415780635ceaec321461033c5780636068d6cb14610337578063647c576c146103325780636bbbcd2e1461032d5780636e40098314610328578063738b62e514610323578063766e07031461031e5780637b939232146103195780637e688bba146103145780638a7860ce1461030f5780639748cf7c1461030a578063979f2bc2146103055780639963e5a81461030057806399cc2968146102fb5780639a8a0592146102f6578063a1244c67146102f1578063a78e4b60146102ec578063ac9650d8146102e7578063ae527fbb146102e2578063b27a4300146102dd578063b5e1bf5f146102d8578063bbca7db0146102d3578063c35c83fc146102ce578063ccfa5971146102c9578063ceb4c987146102c4578063dda52113146102bf578063ddd224f1146102ba578063de7eba78146102b5578063e1904402146102b0578063e3229211146102ab578063ee2a53f8146102a6578063fbbba9ac146102a15763fd7c10540361000e57612375565b6122e0565b6122a2565b612244565b61221b565b6121eb565b6121c2565b61219c565b61217e565b6120fc565b6120d1565b611fcb565b611fa1565b611f63565b611ee5565b611e1e565b611d1e565b611cf7565b611cdd565b611c5f565b611ab9565b611a23565b6119df565b611967565b6118e0565b611837565b611813565b611795565b611755565b610956565b61167e565b611626565b611559565b611519565b61148a565b611433565b61140a565b6113bd565b611264565b61114c565b61109d565b611008565b610ee7565b610ebe565b610da5565b610c83565b610c4d565b610c33565b610b95565b610b56565b610a7e565b610970565b610912565b610889565b61081b565b610776565b6103c7565b5f9103126103c357565b5f80fd5b346103c3575f3660031901126103c357602060405163ffffffff7f0000000000000000000000000000000000000000000000000000000000000000168152f35b6001600160a01b031690565b6001600160a01b038116036103c357565b6004359061043182610413565b565b6024359061043182610413565b6044359061043182610413565b6064359061043182610413565b359061043182610413565b60a435908160070b82036103c357565b60c435908160070b82036103c357565b608435908160070b82036103c357565b61010435908160070b82036103c357565b61012435908160070b82036103c357565b61014435908160070b82036103c357565b63ffffffff8116036103c357565b60e43590610431826104c8565b6101043590610431826104c8565b6101243590610431826104c8565b6101643590610431826104c8565b6101443590610431826104c8565b3590610431826104c8565b634e487b7160e01b5f52604160045260245ffd5b6001600160401b03811161054d57604052565b610526565b606081019081106001600160401b0382111761054d57604052565b60a081019081106001600160401b0382111761054d57604052565b602081019081106001600160401b0382111761054d57604052565b604081019081106001600160401b0382111761054d57604052565b60e081019081106001600160401b0382111761054d57604052565b601f909101601f19168101906001600160401b0382119082101761054d57604052565b6040519060c082016001600160401b0381118382101761054d57604052565b6040519061014082016001600160401b0381118382101761054d57604052565b6040519061018082016001600160401b0381118382101761054d57604052565b60405190608082016001600160401b0381118382101761054d57604052565b604051906104318261056d565b6001600160401b03811161054d57601f01601f191660200190565b9291926106ae82610687565b916106bc60405193846105d9565b8294818452818301116103c3578281602093845f960137010152565b9080601f830112156103c3578160206106f3933591016106a2565b90565b6001600160401b03811161054d5760051b60200190565b9291610718826106f6565b9161072660405193846105d9565b829481845260208094019160051b81019283116103c357905b82821061074c5750505050565b8135815290830190830161073f565b9080601f830112156103c3578160206106f39335910161070d565b346103c3576101803660031901126103c35760043561079481610413565b61079c610433565b906107a5610440565b6107ad610465565b926107b6610475565b6107be6104d6565b6107c66104e3565b6001600160401b0396909290610124358881116103c3576107eb9036906004016106d8565b94610164359889116103c35761080861001899369060040161075b565b97610144359760843592606435926123fd565b346103c35760203660031901126103c35763ffffffff60043561083d816104c8565b610845613223565b61084d61319f565b16610c5a8163ffffffff198254161790557fe486a5c4bd7b36eabbfe274c99b39130277417be8d2209b4dae04c4fba64ee3a5f80a26001606555005b6101003660031901126103c3576004356108a281610413565b6024356108ae81610413565b6108b6610485565b60a435906108c3826104c8565b60c4356001600160401b0381116103c3576108e29036906004016106d8565b926108eb61319f565b60ff61086b5460e81c166103c35761090b94606435916044359133613330565b6001606555005b346103c3575f3660031901126103c3576040517f00000000000000000000000000000000000000000000000000000000000000006001600160a01b03168152602090f35b346103c3575f3660031901126103c35760206040515f8152f35b346103c3575f3660031901126103c3576040517f00000000000000000000000000000000000000000000000000000000000000006001600160a01b03168152602090f35b9080601f830112156103c35760209082356109ce816106f6565b936109dc60405195866105d9565b81855260208086019260051b8201019283116103c357602001905b828210610a05575050505090565b813581529083019083016109f7565b9080601f830112156103c3576020908235610a2e816106f6565b93610a3c60405195866105d9565b81855260208086019260051b8201019283116103c357602001905b828210610a65575050505090565b8380918335610a7381610413565b815201910190610a57565b6003196060368201126103c357600435610a97816104c8565b6001600160401b0391602435908382116103c35760c09082360301126103c357610abf6105fc565b90806004013582526024810135602083015260448101358481116103c357610aed90600436918401016109b4565b6040830152610afe6064820161051b565b6060830152610b0f6084820161045a565b608083015260a4810135908482116103c3576004610b309236920101610a14565b60a08201526044359283116103c357610b5061001893369060040161075b565b91612512565b346103c35760203660031901126103c35761090b600435610b7681610413565b610b7e613223565b610b8661319f565b6136a0565b801515036103c357565b346103c35760603660031901126103c357600435610bb281610413565b602435907f0a21fdd43d0ad0c62689ee7230a47309a050755bcc52eba00310add65297692a602060443592610be684610b8b565b610bee613223565b610bf661319f565b60018060a01b031692835f5261086d825260405f20855f52825260405f209015159060ff1981541660ff8316179055604051908152a36001606555005b346103c3575f3660031901126103c3576020604051428152f35b346103c3575f3660031901126103c35760206040515f805160206151ed8339815191528152f35b90816101809103126103c35790565b346103c35760403660031901126103c3576004356001600160401b0381116103c357610cb3903690600401610c74565b610cbb61319f565b60ff61086b5460e01c166103c357610cd661014082016126f3565b63ffffffff429116101580610d87575b610d7557610d6b90610d57610d03610cfe3684612707565b6137ae565b9160c0610d50610d15602084016126fd565b610d236101608501856127e6565b939094610d2e6105fc565b97610d393683612707565b895260208901520135604087015260608601612818565b36916106a2565b608082015260243560a082015233906138f0565b6100186001606555565b604051630c3a9b9d60e41b8152600490fd5b50610d94604082016126fd565b6001600160a01b0316331415610ce6565b346103c35760203660031901126103c357600435610dc281610413565b6001600160a01b037f000000000000000000000000000000000000000000000000000000000000000081163081146103c3575f8051602061518d8339815191529082825416036103c357610e14613223565b60405191610e2183610588565b5f83525f8051602061514d8339815191525460ff1615610e475750505061001890614c7d565b6020600491604051928380926352d1902d60e01b825288165afa5f9181610e80575b50610e72575f80fd5b036103c35761001891614ba0565b610ea391925060203d602011610eaa575b610e9b81836105d9565b810190613e06565b905f610e69565b503d610e91565b6001600160a01b03169052565b346103c3575f3660031901126103c357610c5b546040516001600160a01b039091168152602090f35b346103c35760803660031901126103c357600435610f04816104c8565b60243590610f1182610413565b604435610f1d81610413565b60643591610f2a83610413565b60ff5f5460081c16156103c357610c5a805463ffffffff1916624c4b40179055610f5390612dce565b60405190610f60826105a3565b60098252602082016820a1a927a9a996ab1960b91b81526020604051610f85816105a3565b600581520194640312e302e360dc1b865260ff5f5460081c16156103c357610018956005610b8693610fd49651902091209061047f5561048055610fc7614608565b610fcf614617565b61462b565b610fdc612827565b610c5a8054600160201b600160c01b03191660209290921b600160201b600160c01b0316919091179055565b346103c3576101803660031901126103c35760043561102681610413565b60243561103281610413565b60443561103e81610413565b60e4358060070b81036103c357611053610495565b61105b6104f1565b61014435959092906001600160401b0387116103c3576110826100189736906004016106d8565b94610164359660c4359260a435926084359260643592612843565b346103c35760403660031901126103c3576024356004356110bc613223565b6110c461319f565b61086c8054600160401b81101561054d5763ffffffff91600182019055836110eb82612281565b5084600182015555167fc86ba04c55bc5eb2f2876b91c438849a296dbec7b08751c3074d92e04f0a77af5f80a46001606555005b9181601f840112156103c3578235916001600160401b0383116103c357602083818601950101116103c357565b346103c35760c03660031901126103c35760043561116981610413565b60243590611176826104c8565b60443560643561118581610413565b6001600160401b03916084358381116103c3576111a690369060040161111f565b93909460a4359182116103c35761124863ffffffff7fb0a29aed3d389a1041194255878b423f7780be3ed2324d4693508c6ff189845e966111ee61125a95369060040161111f565b9390996111f961319f565b6112208c8c8b8b61121761120e368a896106a2565b938b36916106a2565b9346908c6144df565b60018060a01b0392836040519a8b9a8b521660208a0152608060408a01526080890191612931565b93868503606088015216981696612931565b0390a36001606555005b60403660031901126103c35760043561127c81610413565b6024356001600160401b0381116103c35761129b9036906004016106d8565b6001600160a01b037f00000000000000000000000000000000000000000000000000000000000000008116903082146103c3575f8051602061518d8339815191529181835416036103c3576112ee613223565b5f8051602061514d8339815191525460ff16156113115750505061001890614c7d565b6020600491604051928380926352d1902d60e01b825288165afa5f918161134a575b5061133c575f80fd5b036103c35761001891614c3f565b61136491925060203d602011610eaa57610e9b81836105d9565b905f611333565b6001600160a01b03165f90815261086d6020526040902090565b6001600160a01b03165f908152610c5c6020526040902090565b5f5261087260205260405f2090565b5f5261086e60205260405f2090565b346103c35760403660031901126103c3576004356113da81610413565b60018060a01b03165f5261086d60205260405f206024355f52602052602060ff60405f2054166040519015158152f35b346103c3575f3660031901126103c357610869546040516001600160a01b039091168152602090f35b346103c3575f3660031901126103c3577f00000000000000000000000000000000000000000000000000000000000000006001600160a01b031630036103c35760206040515f8051602061518d8339815191528152f35b6101203660031901126103c3576004356114a381610413565b602435906114b082610413565b604435916114bd83610413565b6114c5610465565b60c435916114d2836104c8565b60e4356001600160401b0381116103c3576114f19036906004016106d8565b936114fa61319f565b60ff61086b5460e81c166103c35761090b956084359260643592613330565b346103c3575f3660031901126103c357602060405163ffffffff7f0000000000000000000000000000000000000000000000000000000000000000168152f35b346103c3576102003660031901126103c357611573610424565b61157b610433565b90611584610440565b9161158d61044d565b92611596610495565b9361159f6104a6565b6115a76104b7565b6115af6104ff565b6001600160401b0397909290610184358981116103c3576115d49036906004016106d8565b946101a4358a81116103c3576115ee9036906004016106d8565b966101c4359a8b116103c35761160b6100189b36906004016106d8565b986101e4359a60e4359360c4359360a4359360843593612951565b346103c3575f3660031901126103c357602060ff61086b5460e81c166040519015158152f35b60609060031901126103c357600435611664816104c8565b9060243561167181610413565b906044356106f381610413565b346103c35761168c3661164c565b5f54600881901c60ff1615939290849081611747575b8115611727575b50156103c3576116cd92846116c4600160ff195f5416175f55565b61171057612a43565b6116d357005b6116e161ff00195f54165f55565b604051600181527f7f26b83ff96e1f2b6a682f133852f6798a09c465da95921460cefb384740249890602090a1005b61172261010061ff00195f5416175f55565b612a43565b303b15915081611739575b505f6116a9565b6001915060ff16145f611732565b600160ff82161091506116a2565b346103c3575f3660031901126103c357602060405163ffffffff7f0000000000000000000000000000000000000000000000000000000000000000168152f35b346103c35760203660031901126103c3577fe88463c2f254e2b070013a2dc7ee1e099f9bc00534cbdf03af551dc26ae4921960206004356117d581610b8b565b6117dd613223565b6117e561319f565b61086b805460ff60e81b191691151560e881901b60ff60e81b16929092179055604051908152a16001606555005b346103c3575f3660031901126103c357602063ffffffff610c5a5416604051908152f35b6101803660031901126103c35760043561185081610413565b6024359061185d82610413565b60443561186981610413565b6064359061187682610413565b60e43561188281610413565b6101043561188f816104c8565b610124359161189d836104c8565b6118a561050d565b61016435979094906001600160401b0389116103c3576118cc61001899369060040161111f565b98909760c4359360a4359360843593612b14565b346103c35760c03660031901126103c3576004356118fd81610413565b602435908160070b82036103c35760443591611918836104c8565b60643561192481610413565b6001600160401b03936084358581116103c3576119459036906004016106d8565b9260a4359586116103c3576119616100189636906004016106d8565b94612e5c565b346103c35760203660031901126103c357600435611983613223565b61198b61319f565b61199481612281565b6119cc576001815f80935501557f3569b846531b754c99cb80df3f49cd72fa6fe106aaee5ab8e0caf35a9d7ce88d5f80a26001606555005b634e487b7160e01b5f525f60045260245ffd5b346103c3575f3660031901126103c3576040517f00000000000000000000000000000000000000000000000000000000000000006001600160a01b03168152602090f35b346103c357611a313661164c565b909160ff5f5460081c16156103c357611a4990612dce565b60405191611a56836105a3565b6009835260208301906820a1a927a9a996ab1960b91b82526020604051611a7c816105a3565b6005815201640312e302e360dc1b815260ff5f5460081c16156103c3576005610b86936100189651902091209061047f5561048055610fc7614608565b346103c35760203660031901126103c3576004356001600160401b0381116103c357611ae9903690600401610c74565b611af161319f565b60ff61086b5460e01c166103c357610140810190611b0e826126f3565b63ffffffff90814291161015611c4d5761012082019042611b3a611b31846126f3565b63ffffffff1690565b10611c3b57611b4c610cfe3685612707565b91611b568361139f565b54611c2a57611b8e611b887f923794976d026d6b119735adc163cb71decfc903e17c3dc226c00789593c04e19461139f565b60019055565b611c1d611b9d606086016126fd565b95611baa608087016126fd565b95611bca611bc4611bbe61010084016126f3565b956126f3565b926126f3565b611bd6604083016126fd565b611bdf836126fd565b90611bec602085016126fd565b92611bfb6101608601866127e6565b9690956040519a8b9a169d60e08201359d60a060c0840135930135918c612f2a565b0390a36100186001606555565b604051624be79160e21b8152600490fd5b60405163d642b7d960e01b8152600490fd5b604051630277ae7b60e21b8152600490fd5b346103c35760203660031901126103c3577f2d5b62420992e5a4afce0e77742636ca2608ef58289fd2e1baa5161ef6e7e41e6020600435611c9f81610b8b565b611ca7613223565b611caf61319f565b61086b805460ff60e01b191691151560e081901b60ff60e01b16929092179055604051908152a16001606555005b346103c3575f3660031901126103c3576020604051468152f35b346103c3575f3660031901126103c357602063ffffffff61086b5460c01c16604051908152f35b346103c3575f3660031901126103c35760206040515f805160206151cd8339815191528152f35b9181601f840112156103c3578235916001600160401b0383116103c3576020808501948460051b0101116103c357565b5f5b838110611d865750505f910152565b8181015183820152602001611d77565b90602091611daf81518092818552858086019101611d75565b601f01601f1916010190565b6020808201906020835283518092526040830192602060408460051b8301019501935f915b848310611df05750505050505090565b9091929394958480611e0e600193603f198682030187528a51611d96565b9801930193019194939290611de0565b346103c35760203660031901126103c357600480356001600160401b0381116103c357611e4f903690600401611d45565b91611e5983612f94565b925f5b818110611e755760405180611e718782611dbb565b0390f35b5f80611e82838588612fdd565b90611e9260405180938193612ff8565b0390305af4611e9f613005565b9015611ec55790600191611eb38288613092565b52611ebe8187613092565b5001611e5c565b806044859251106103c3576103c391810151602480918301019101613034565b60e03660031901126103c357600435611efd81610413565b60243590611f0a82610413565b611f12610485565b9060a4356001600160401b0381116103c357611f329036906004016106d8565b91611f3b61319f565b60ff61086b5460e81c166103c35761090b9363ffffffff421692606435916044359133613330565b346103c35760203660031901126103c3576020600435611f8281610413565b60018060a01b038091165f52610c5c825260405f205416604051908152f35b346103c3575f3660031901126103c3576040516b1d6329f1c35ca4bfabb9f56160281b8152602090f35b346103c3576003196060368201126103c3576004356001600160401b038082116103c3576060823603938401126103c35760243590612009826104c8565b6044359081116103c357612021903690600401611d45565b91909361202c61319f565b60048401359061018219018112156103c357610d6b946120cc936120596120c59360043691890101612707565b9561206f61206a6080890151610407565b6131b0565b6120b361207b886137ae565b91604461208b60208b0151610407565b916101608b01519461209b6105fc565b9b8c5260208c0152013560408a015260608901612818565b60808701525f60a0870152369161070d565b9083614673565b613b8b565b346103c35760203660031901126103c3576004355f52610872602052602060405f2054604051908152f35b346103c35760c03660031901126103c3576001600160401b036004358181116103c35761212d903690600401610c74565b6064359061213a82610413565b6084358381116103c35761215290369060040161111f565b9060a4359485116103c35761216e61001895369060040161111f565b94909360443590602435906130a6565b346103c3575f3660031901126103c357602060405163ffffffff8152f35b346103c3575f3660031901126103c357602060ff61086b5460e01c166040519015158152f35b346103c3575f3660031901126103c3576040516a0c097ce7bc90715b34b9f160241b8152602090f35b346103c35760203660031901126103c35761090b60043561220b81610413565b612213613223565b610fcf61319f565b346103c3575f3660031901126103c35761086a546040516001600160a01b039091168152602090f35b346103c3575f3660031901126103c357610c5a54604051602091821c6001600160a01b03168152f35b634e487b7160e01b5f52603260045260245ffd5b61086c805482101561229d575f52600360205f20910201905f90565b61226d565b346103c35760203660031901126103c35760043561086c548110156103c3576122cc604091612281565b506001815491015482519182526020820152f35b346103c35760403660031901126103c3576004356122fd81610413565b6024359061230a82610413565b612312613223565b61231a61319f565b6001600160a01b039081165f818152610c5c6020526040812080546001600160a01b03191694909316938417909255907ff3dc137d2246f9b8abd0bb821e185ba01122c9b3ea3745ffca6208037674d6709080a36001606555005b6101003660031901126103c35760043561238e81610413565b60243561239a81610413565b6044356123a681610413565b6123ae610465565b60c4356001600160401b0381116103c3576123cd9036906004016106d8565b926123d661319f565b60ff61086b5460e81c166103c35761090b9463ffffffff4216936084359260643592613330565b9a989593919996949290979961241161319f565b61241a816131b0565b61242261061b565b9b61242d908d612818565b61243a8960208e01612818565b6124479060408d01612818565b60608b015260808a01524660a08a015260070b60c089015260070b60e088015263ffffffff166101008781019190915261012091808389015261248861061b565b97885260208801945f8652604089015f905260608901906124a891612818565b60808801525f60a08801526b1d6329f1c35ca4bfabb9f56160281b60c08801525f1960e088015260019087015285015283516124e390613eaf565b90526124ef9183614703565b6124f881613f3a565b612501916143b0565b6104316001606555565b156103c357565b9161251b61319f565b608082019161252d61206a8451610407565b60208101918251460361262b576125556125599183600161254d89612281565b5001546134d7565b1590565b612619578060607ff8bd640004bcec1b89657020f561d0b070cbdf662d0b158db9dccb0a8301bfab92019361259b612595865163ffffffff1690565b87613568565b61260c8451946125f16125ea8551956125da60408201998a516125c28d5163ffffffff1690565b6125cc8a51610407565b9160a086019b8c51946135bd565b5192519751985163ffffffff1690565b9351610407565b935163ffffffff9485604051968796169a16983393866126ac565b0390a46104316001606555565b60405163582f497d60e11b8152600490fd5b604051633d23e4d160e11b8152600490fd5b9081518082526020808093019301915f5b82811061265c575050505090565b83518552938101939281019260010161264e565b9081518082526020808093019301915f5b82811061268f575050505090565b83516001600160a01b031685529381019392810192600101612681565b936126ce608094936126ec93989798875260a0602088015260a087019061263d565b6001600160a01b039384166040870152858103606087015290612670565b9416910152565b356106f3816104c8565b356106f381610413565b9190610180838203126103c35761271c61063b565b926127268161045a565b84526127346020820161045a565b60208501526127456040820161045a565b60408501526127566060820161045a565b60608501526127676080820161045a565b608085015260a081013560a085015260c081013560c085015260e081013560e085015261010061279881830161051b565b908501526101206127aa81830161051b565b908501526101406127bc81830161051b565b9085015261016091818301356001600160401b0381116103c3576127e092016106d8565b90830152565b903590601e19813603018212156103c357018035906001600160401b0382116103c3576020019181360383136103c357565b6001600160a01b039091169052565b610c5b80546001600160a01b0319166007602160991b01179055565b9a96929098979993959161285561319f565b60ff61086b5460e01c166103c35761286b61061b565b9b612876908d612818565b6128838a60208e01612818565b6128909060408d01612818565b60608b015260808a01524660a08a015260070b60c0890152600787900b60e089015261010094858901906128c9919063ffffffff169052565b6101209581878a01526128da61061b565b9889525f60208a0190815260079890980b60408a01526128fd9060608a01612818565b608088015260a087015260c086015260e085015283015f905282015f9052815161292690613eaf565b90526124f881613f3a565b908060209392818452848401375f828201840152601f01601f1916010190565b9d9c9b959e93909698929a97919a61296761319f565b60ff61086b5460e01c166103c3578e9761297f61061b565b9861298a908a612818565b6129979060208a01612818565b6129a49060408901612818565b6060870152608086018890524660a087015260070b60c086015260070b60e085015263ffffffff8516610100858101919091529161012093848601526129e861061b565b9485525f60208601908152600789900b6040870152949c898e60600190612a0e91612818565b8d8b608082015260a0015260c08d015260e08c01528a015f905289015f90528851612a3890613eaf565b90526124ef9661454e565b91909160ff5f5460081c16156103c357610c5a805463ffffffff1916624c4b40179055612a6f90612dce565b60405191612a7c836105a3565b6009835260208301906820a1a927a9a996ab1960b91b82526020604051612aa2816105a3565b6005815201640312e302e360dc1b815260ff5f5460081c16156103c3576005610b8693612adf9651902091209061047f5561048055610fc7614608565b612ae7612827565b610c5a8054600160201b600160c01b03191671deaddeaddeaddeaddeaddeaddeaddeaddead60301b179055565b979b95999196939b9a949890929a612b2a61319f565b61086b9960ff8b5460e81c166103c357612b61612555612b5a8e612b4d8d61136b565b905f5260205260405f2090565b5460ff1690565b612d695763ffffffff9d8e612b7881851642612d8f565b907f00000000000000000000000000000000000000000000000000000000000000001610612d57578e808516428110918215612d21575b5050612d0f578e9b60018060a01b039c8d891690871690818117612cd9575b50508c7f0000000000000000000000000000000000000000000000000000000000000000168d8c1681811480612cd0575b15612cb65750823403612ca457803b156103c3575f60049160405192838092630d0e30db60e41b825234905af18015612c9f57612c86575b505b5460c01c63ffffffff169e8f612c4e90612db9565b612c5790612dce565b6040519c8d9c169f169d612c6b9a8c612df4565b035f8051602061512d83398151915291a46104316001606555565b80612c93612c999261053a565b806103b9565b5f612c37565b612dae565b604051636452a35d60e01b8152600490fd5b905034612ca45782612ccb91309033906145b2565b612c39565b50341515612bff565b15612cfd574211612ceb575f80612bce565b6040516325a63a5b60e01b8152600490fd5b60405163495d907f60e01b8152600490fd5b60405163582e388960e01b8152600490fd5b612d4f9192507f00000000000000000000000000000000000000000000000000000000000000001642612da1565b108f80612baf565b60405163f722177f60e01b8152600490fd5b604051632a58c4f360e01b8152600490fd5b634e487b7160e01b5f52601160045260245ffd5b91908203918211612d9c57565b612d7b565b91908201809211612d9c57565b6040513d5f823e3d90fd5b63ffffffff809116908114612d9c5760010190565b61086b805463ffffffff60c01b191660c09290921b63ffffffff60c01b16919091179055565b6001600160a01b03918216815291811660208301526040820192909252606081019290925263ffffffff928316608083015292821660a0820152921660c083015291821660e0820152911661010082015261014061012082018190526106f393910191612931565b9092919493612e6961319f565b8360070b916706f05b59d3b20000612e80846145f9565b10156103c35763ffffffff82612ec088612efd95887fa6aa57bd282fc82378458de27be4eadfa791a0c7321c49562eeba8b2643dd5669a8d46908961454e565b612eeb60018060a01b0391826040519889988952166020880152608060408801526080870190611d96565b92858403606087015216971695611d96565b0390a36001606555565b634e487b7160e01b5f52602160045260245ffd5b60031115612f2557565b612f07565b6001600160a01b03918216815291811660208301526040820192909252606081019290925263ffffffff92831660808301529290911660a082015291811660c083015291821660e0820152911661010082015261014061012082018190526106f393910191612931565b90612f9e826106f6565b612fab60405191826105d9565b8281528092612fbc601f19916106f6565b01905f5b828110612fcc57505050565b806060602080938501015201612fc0565b9082101561229d57612ff49160051b8101906127e6565b9091565b908092918237015f815290565b3d1561302f573d9061301682610687565b9161302460405193846105d9565b82523d5f602084013e565b606090565b6020818303126103c3578051906001600160401b0382116103c3570181601f820112156103c357805161306681610687565b9261307460405194856105d9565b818452602082840101116103c3576106f39160208085019101611d75565b805182101561229d5760209160051b010190565b94909693956130b361319f565b60ff61086b5460e01c166103c3576130ce61014087016126f3565b63ffffffff429116101580613181575b610d75576130ec3687612707565b6130f5906137ae565b976130fe6105fc565b986131093689612707565b8a5260208a0152604089018490526131248560608b01612818565b61312f36848a6106a2565b60808a015260a0890152613142866126fd565b9661315061010088016126f3565b92369061315c926106a2565b943690613168926106a2565b9460e0013590613177966144df565b33612501916138f0565b5061318e604087016126fd565b6001600160a01b03163314156130de565b6002606554146103c3576002606555565b6001600160a01b037f00000000000000000000000000000000000000000000000000000000000000008116911681146131e7575b50565b476131ef5750565b4790803b156103c3575f90600460405180948193630d0e30db60e41b83525af18015612c9f57156131e4576104319061053a565b610c5b546001600160a01b0390811690338290036132c157602060049260405193848092636e296e4560e01b82525afa908115612c9f575f91613282575b610431925061327a61327561086954610407565b610407565b91161461250b565b90506020823d6020116132b9575b8161329d602093836105d9565b810103126103c35761043191516132b381610413565b90613261565b3d9150613290565b60405163253a6fc960e11b8152600490fd5b92936106f396959192946101409560018060a01b0380951686525f60208701526040860152606085015263ffffffff809116608085015260a08401525f60c08401521660e08201525f610100820152816101208201520190611d96565b919596939492909261335061334b612b5a88612b4d8b61136b565b61250b565b60070b9361336f6706f05b59d3b20000613369876145f9565b1061250b565b6133896a0c097ce7bc90715b34b9f160241b83111561250b565b63ffffffff936133c861339e868b1642612d8f565b867f000000000000000000000000000000000000000000000000000000000000000016101561250b565b61086b5460c01c63ffffffff16986133e76133e28b612db9565b612dce565b6001600160a01b03957f00000000000000000000000000000000000000000000000000000000000000008716948a8816808714806134ce575b156134a4575061343181341461250b565b853b156103c3575f60049660405197888092630d0e30db60e41b825234905af18015612c9f575f8051602061512d8339815191529961348c9761347b92613491575b505b82614781565b91604051988998169c169a876132d3565b0390a4565b80612c9361349e9261053a565b5f613473565b61348c96505f8051602061512d833981519152996134c98361347b93309033906145b2565b613475565b50341515613420565b6106f3929160405161355f81613551602082019460208652805160408401526020810151606084015260a061351c604083015160c0608087015261010086019061263d565b606083015163ffffffff168583015260808301515f196001841b011660c0860152910151838203603f190160e0850152612670565b03601f1981018352826105d9565b519020916147b7565b613573600291612281565b500162ffffff8260081c16805f5281602052600160ff60405f205494161b80809416146135ab575f5260205260405f20908154179055565b60405163954476d960e01b8152600490fd5b929493919093805182510361368e578151915f5b8381106136425750505050826135e8575b50505050565b63ffffffff816136197f828fc203220356df8f072a91681caee7d5c75095e2a95e80ed5a14b384697f719386614891565b604080519586523360208701526001600160a01b0391909116959190911693a45f8080806135e2565b8061364f60019284613092565b518061365d575b50016135d1565b6136889061367b61366e8488613092565b516001600160a01b031690565b848060a01b038916614823565b5f613656565b6040516319a5316760e31b8152600490fd5b6001600160a01b031680156103c35761086a80546001600160a01b031916821790557f1f17a88f67b0f49060a34bec1a4723a563620e6aa265eb640b5046dcee0759a05f80a2565b6106f391610180906136fb818451610eb1565b61370d60208401516020830190610eb1565b61371f60408401516040830190610eb1565b61373160608401516060830190610eb1565b61374360808401516080830190610eb1565b60a083015160a082015260c083015160c082015260e083015160e0820152613779610100808501519083019063ffffffff169052565b6101208381015163ffffffff16908201526101408381015163ffffffff16908201528161016080940151938201520190611d96565b6040516137df816137cb60208201946040865260608301906136e8565b46604083015203601f1981018352826105d9565b51902090565b6137ee82612f1b565b52565b9060018060a01b03825116815260608061381a6020850151608060208601526080850190611d96565b936040810151604085015201519161383183612f1b565b015290565b9a979096956138a5966106f39d9b9660808e61389a986138b49e986101809d60018060a01b03998a80921685521660208401526040830152606082015201528c60a063ffffffff8094169101521660c08c01521660e08a0152610100890190610eb1565b610120870190610eb1565b80610140860152840190611d96565b916101608184039101526137f1565b906106f3949360809360018060a01b03809316845260208401521660408201528160608201520190611d96565b805191610120830190613907825163ffffffff1690565b63ffffffff42911610611c3b57602083015160016139248261139f565b5403613b84576001905b60026139398261139f565b5414613b72576139489061139f565b60029055606085015161395a90610407565b608086015161396890610407565b9260a0870151918660c0890151948960a08301519660e0820151976101008301516139969063ffffffff1690565b9a5163ffffffff1661014084015163ffffffff169060408501516139b990610407565b9285516139c590610407565b9460208701516139d490610407565b9661016001519760608a01516139e990610407565b9960808101519060400151906139fd61065b565b9b613a08908d612818565b60208c015260408b0152613a1f9060608b016137e5565b6040516001600160a01b03909b169e63ffffffff169d9a9b8c9b613a439b8d613836565b035f8051602061516d83398151915291a46060810151613a6290610407565b6001600160a01b0381169233841480613b6a575b6135e2576080613a87910151610407565b6040830151909390926080906001600160a01b0380871690869086907f0000000000000000000000000000000000000000000000000000000000000000168303613b5a5750613ad991309033906145b2565b613ae38584614adf565b0151913b151580613b50575b613af95750505050565b803b156103c357613b26935f809460405196879586948593633a5be8cb60e01b85523391600486016138c3565b03925af18015612c9f57613b3d575b8080806135e2565b80612c93613b4a9261053a565b5f613b35565b5081511515613aef565b613b659233906145b2565b613ae3565b506001613a76565b604051630479306360e51b8152600490fd5b5f9061392e565b905f82516101208101613ba2815163ffffffff1690565b63ffffffff42911610611c3b5760208501516002613bbf8261139f565b5414613b7257613bce9061139f565b600290556060820151613be090610407565b6080830151613bee90610407565b9060a08401519260c0850151918860a0810151938760e081015195610100820151613c1c9063ffffffff1690565b955163ffffffff1661014083015163ffffffff166040840151613c3e90610407565b918451613c4a90610407565b936020860151613c5990610407565b956101600151966060890151613c6e90610407565b986080810151906040015190613c8261065b565b9a613c8d908c612818565b60208b015260408a0152600260608a01526040519d63ffffffff8f9c169d613cb59b8d613836565b035f8051602061516d833981519152905f94a46060840151613cd690610407565b6001600160a01b03949091858316919033831480613dff575b613df6576080613d00910151610407565b9060408101519687818416917f00000000000000000000000000000000000000000000000000000000000000001682145f14613ddf57906080929187613dcb575b613d4c915085614adf565b0151923b151580613dc1575b613d65575b505050509050565b813b15613dbd5783613d91959660405196879586948593633a5be8cb60e01b85523391600486016138c3565b03925af18015612c9f57613daa575b8080808493613d5d565b80612c93613db79261053a565b5f613da0565b8380fd5b5082511515613d58565b613dd891309033906145b2565b5f88613d41565b608092919650613df190865f98614823565b613d4c565b50505050509050565b505f613cef565b908160209103126103c3575190565b6106f39161014090613e28818451610eb1565b613e3a60208401516020830190610eb1565b613e4c60408401516040830190610eb1565b606083015160608201526080830151608082015260a083015160a0820152613e7e60c084015160c083019060070b9052565b60e08381015160070b908201526101008381015163ffffffff16908201528161012080940151938201520190611d96565b6040516137df816135516020820194602086526040830190613e15565b600791820b910b019060016001603f1b0319821260016001603f1b03831317612d9c57565b600160ff1b8114612d9c575f0390565b6001600160a01b039182168152602081019290925291151560408201529116606082015260a0608082018190526106f392910190611d96565b908151916040810192613f7a6706f05b59d3b2000080613f6c613f67613f61895160070b90565b60070b90565b6145f9565b1090816142cf575b5061250b565b60608101613f996a0c097ce7bc90715b34b9f160241b8251111561250b565b6020830190613fb4613fab83516113ae565b5482511161250b565b60c0840192835196613fe460c0830198613fde613fd28b5160070b90565b845160070b5b90613ecc565b90614cb1565b97613ff089151561250b565b6140068451613fff87516113ae565b5490612d8f565b8981106142c5575b50613f6161403592613fd861402761402f945160070b90565b915160070b90565b88614781565b9361012086015180614273575b505060a08501518786519160a083015114918215614265575b5050801561424c575b61406d9061250b565b61407783516113ae565b614082888254612da1565b905560608501916140938351610407565b926001600160a01b0392338486161480614235575b61422b5790604061412192019487856140c18851610407565b16917f0000000000000000000000000000000000000000000000000000000000000000871683036141e2575050506141006125556101008a0151151590565b6141c3575b61411b876141166132758451610407565b614adf565b51610407565b91823b1515806141b5575b61413a575b50505050505050565b61414c61415391608094169451610407565b94516113ae565b549051111594015193813b156103c3575f8094614188604051978896879586946301d43f2760e31b8652339260048701613f01565b03925af18015612c9f576141a2575b808080808080614131565b80612c936141af9261053a565b5f614197565b50608087015151151561412c565b6141dd876141d46132758851610407565b309033906145b2565b614105565b6141f36125556101008d0151151590565b15614222575061421d915061420b6132758851610407565b6142158451610407565b9033906145b2565b61411b565b61421d92614823565b5050505050505050565b506142476125556101008a0151151590565b6140a8565b5061406d61425e610100870151151590565b9050614064565b60600151149050875f61405b565b6142be91956142ae6142b492614294670de0b6b3a763ffff1982121561250b565b6142a968056bc75e2d6310000082131561250b565b613ef1565b90614781565b945185111561250b565b5f80614042565b9850613f6161400e565b90506142e5613f67613f6160c086015160070b90565b105f613f74565b9060018060a01b038251168152608080614315602085015160a0602086015260a0850190611d96565b93604081015160070b6040850152606081015115156060850152015191015290565b9a97936106f39c9a959197936143a19a979360208e6101809b8152015260408d015260608c015260808b015260070b60a08a015260070b60c089015260018060a01b03928380921660e08a0152166101008801521661012086015280610140860152840190611d96565b916101608184039101526142ec565b9060408201516143c09060070b90565b9160608101516143cf90610407565b9060808101519361010094858301516143e790151590565b6101209283850151926143f861067a565b966144039088612818565b602087015260070b60408601521515606085015260808401528151606001516020830151614430906113ae565b549360a084015193519460808601519560a08101519160e08201516144559060070b90565b60c083015160070b9a83015163ffffffff169a604084015161447690610407565b91845161448290610407565b98602086015161449190610407565b950151956040519a8b9a600160a01b60019003169e63ffffffff169d33966144b99b8d614337565b037f8ab9dc6c19fe88e69bc70221b339c84332752fdd49591b7c51e66bae3947b73c91a4565b939261454893610431979660208151910120906040519263ffffffff60208501955f805160206151ed8339815191528752166040850152856060850152608084015260018060a01b031660a083015260c082015260c08152614540816105be565b519020614cff565b90614d72565b939261454893610431979660208151910120906040519263ffffffff60208501955f805160206151cd833981519152875216604085015285606085015260070b608084015260018060a01b031660a083015260c082015260c08152614540816105be565b6040516323b872dd60e01b60208201526001600160a01b039283166024820152929091166044830152606480830193909352918152610431916145f48261056d565b614e42565b5f81126146035790565b5f0390565b60ff5f5460081c16156103c357565b60ff5f5460081c16156103c3576001606555565b6001600160a01b031680156103c35761086980546001600160a01b031916821790557fa9e8c42c9e7fca7f62755189a16b2f5314d43d8fb24e91ba54e6d65f9314e8495f80a2565b91612555906146ec9284516040809601519186519161469183610552565b825261355f6146ac6020840192468452898501958652612281565b50549388519283916146d16020840196602088525160608d86015260a08501906136e8565b9151606084015251608083015203601f1981018352826105d9565b6146f35750565b5163582f497d60e11b8152600490fd5b80516101209091015160408051808201959492939092916001600160401b0387118488101761054d5761474b61476c9361355f9361250b998452865260208601968752612281565b50549481519384926020840196602088525190808501526080840190613e15565b9051606083015203601f1981018352826105d9565b90670de0b6b3a7640000915f828403921283831281169084841390151617612d9c57818102918183041490151715612d9c570490565b929091905f915b8451831015614800576147d18386613092565b5190818110156147ef575f52602052600160405f205b9201916147be565b905f52602052600160405f206147e7565b915092501490565b6001600160a01b039091168152602081019190915260400190565b6145f4610431939261484a60405194859263a9059cbb60e01b602085015260248401614808565b03601f1981018452836105d9565b9260c0949163ffffffff9360018060a01b038092168652166020850152604084015216606082015260a060808201525f60a08201520190565b906001600160a01b0390818116907f00000000000000000000000000000000000000000000000000000000000000008316820361497f5750803b156103c357604051632e1a7d4d60e01b815260048101849052905f908290602490829084905af18015612c9f5761496c575b50610c5a549161490f61086a54610407565b6010602160991b0190813b156103c357825f9461494e60405197889687958694631474f2a960e31b865263ffffffff84169360201c1660048601614858565b03925af18015612c9f5761495f5750565b80612c936104319261053a565b80612c936149799261053a565b5f6148fd565b9190817f000000000000000000000000000000000000000000000000000000000000000016151580614ab4575b156149c957505050610431906149c461086a54610407565b614ef0565b738700daec35af8ff88c16bdf0418774cb3d7599b403614a315750506149f161086a54610407565b73136b1ec699c62b0606854056f02dc7bb80482d6391823b156103c35761494e925f928360405180968195829463040b850f60e31b845260048401614808565b80614a4b614a3e84611385565b546001600160a01b031690565b16614aa3576010602160991b015b1691614a6761086a54610407565b92614a78610c5a5463ffffffff1690565b93813b156103c3575f809461494e60405197889687958694631474f2a960e31b865260048601614858565b614aaf614a3e83611385565b614a59565b50817f00000000000000000000000000000000000000000000000000000000000000001681146149ac565b6001600160a01b0390811690813b15614b1f579061043192917f000000000000000000000000000000000000000000000000000000000000000016614823565b7f000000000000000000000000000000000000000000000000000000000000000016803b156103c3575f8091602460405180948193632e1a7d4d60e01b83528860048401525af18015612c9f57614b91575b508147106103c3575f80809381935af1614b89613005565b50156103c357565b614b9a9061053a565b5f614b71565b614ba981614c7d565b6001600160a01b0381165f805160206151ad8339815191525f80a2815115801590614c38575b614bd7575050565b5f806131e493660819985a5b195960ca1b60408051614bf581610552565b602781527f416464726573733a206c6f772d6c6576656c2064656c65676174652063616c6c60208201520152602081519101845af4614c32613005565b91615092565b505f614bcf565b614c4881614c7d565b6001600160a01b0381165f805160206151ad8339815191525f80a2815115801590614c7557614bd7575050565b506001614bcf565b803b156103c3575f8051602061518d83398151915280546001600160a01b0319166001600160a01b03909216919091179055565b670de0b6b3a7640000918183029183830403612d9c5760070b808303925f821281851281169082861390151617612d9c5714614ceb570490565b634e487b7160e01b5f52601260045260245ffd5b60429161047f549061048054906040519160208301937fc2f8787176b8ac6bf7215b4adcc1e069bf4ab82d9ab1df05a57a91d425935b6e855260408401526060830152608082015260808152614d548161056d565b519020906040519161190160f01b8352600283015260228201522090565b9190614d7e8282615061565b9390926005851015612f255761043194159384614e2c575b508315614da6575b50505061250b565b5f929350908291604051614dde816135516020820194630b135d3f60e11b998a87526024840152604060448401526064830190611d96565b51915afa90614deb613005565b82614e1e575b82614e01575b50505f8080614d9e565b614e1691925060208082518301019101613e06565b145f80614df7565b915060208251101591614df1565b6001600160a01b0383811691161493505f614d96565b905f80614e989360018060a01b0316927f5361666545524332303a206c6f772d6c6576656c2063616c6c206661696c65646020604051614e81816105a3565b818152015260208151910182855af1614c32613005565b8051908115918215614eae575b5050156103c357565b81925090602091810103126103c35760200151614eca81610b8b565b5f80614ea5565b908160209103126103c357516001600160401b03811681036103c35790565b604051636eb1769f60e11b81523060048201526001600160a01b037f00000000000000000000000000000000000000000000000000000000000000008116602483018190526020947f00000000000000000000000000000000000000000000000000000000000000008084169591939187866044818a5afa958615612c9f5761484a5f936145f4614f8e898d9b614faa968991615044575b50612da1565b60405163095ea7b360e01b8c8201529384918a60248401614808565b6040516337e9a82760e11b815260048101959095527f000000000000000000000000000000000000000000000000000000000000000063ffffffff1660248601529190911660448401526001600160a01b039490941660648301529092839160849183915af18015612c9f5761501e575050565b816131e492903d1061503d575b61503581836105d9565b810190614ed1565b503d61502b565b61505b91508d803d10610eaa57610e9b81836105d9565b5f614f88565b9060418151145f1461508957612ff491602082015190606060408401519301515f1a906150bb565b50505f90600290565b90156150ac578151156150a3575090565b3b156103c35790565b5080519081156103c357602001fd5b6fa2a8918ca85bafe22016d0b997e4df60600160ff1b038411615121576020935f9360ff60809460405194855216868401526040830152606082015282805260015afa15612c9f575f516001600160a01b0381161561511957905f90565b505f90600190565b505050505f9060039056fea123dc29aebf7d0c3322c8eeb5b999e859f39937950ed31056532713d0de396f4910fdfa16fed3260ed0e7147f7cc6da11a60208b5b9406d12a635614ffd9143571749edf1d5c9599318cdbc4e28a6475d65e87fd3b2ddbe1e9a8d5e7a0f0ff7360894a13ba1a3210667c828492db98dca3e2076cc3735a920a3ca505d382bbcbc7cd75a20ee27fd9adebab32041f755214dbc6bffa90cc0225b39da2e5c2d3b0e058f05b73c62ee68329d2c67c067aaae9a06503cc306378d144d0f0177882b152eb71524aef34d838ab76573c14b1ebfa5e385d9ab29d7cf5398daa2438bd9a2646970667358221220d0bcbfd8a5488910ab57cf55cafa285257ee4e6150b41fa3e8f8e4bfc77e479564736f6c63430008170033"
}