{
  "address": "0xcbDEb6C19804370f4FAF8Ce6401235A39a50C6cD",
  "abi": [
    {
      "inputs": [],
      "stateMutability": "nonpayable",
      "type": "constructor"
    },
    {
      "inputs": [],
      "name": "ContractInitialized",
      "type": "error"
    },
    {
      "inputs": [],
      "name": "InvalidPeriphery",
      "type": "error"
    },
    {
      "inputs": [
        {
          "internalType": "contract SpokePoolV3Periphery",
          "name": "_spokePoolPeriphery",
          "type": "address"
        }
      ],
      "name": "initialize",
      "outputs": [],
      "stateMutability": "nonpayable",
      "type": "function"
    },
    {
      "inputs": [
        {
          "internalType": "bytes[]",
          "name": "data",
          "type": "bytes[]"
        }
      ],
      "name": "multicall",
      "outputs": [
        {
          "internalType": "bytes[]",
          "name": "results",
          "type": "bytes[]"
        }
      ],
      "stateMutability": "nonpayable",
      "type": "function"
    },
    {
      "inputs": [],
      "name": "spokePoolPeriphery",
      "outputs": [
        {
          "internalType": "contract SpokePoolV3Periphery",
          "name": "",
          "type": "address"
        }
      ],
      "stateMutability": "view",
      "type": "function"
    },
    {
      "inputs": [
        {
          "components": [
            {
              "components": [
                {
                  "internalType": "uint256",
                  "name": "amount",
                  "type": "uint256"
                },
                {
                  "internalType": "address",
                  "name": "recipient",
                  "type": "address"
                }
              ],
              "internalType": "struct SpokePoolV3PeripheryInterface.Fees",
              "name": "submissionFees",
              "type": "tuple"
            },
            {
              "components": [
                {
                  "internalType": "address",
                  "name": "inputToken",
                  "type": "address"
                },
                {
                  "internalType": "address",
                  "name": "outputToken",
                  "type": "address"
                },
                {
                  "internalType": "uint256",
                  "name": "outputAmount",
                  "type": "uint256"
                },
                {
                  "internalType": "address",
                  "name": "depositor",
                  "type": "address"
                },
                {
                  "internalType": "address",
                  "name": "recipient",
                  "type": "address"
                },
                {
                  "internalType": "uint256",
                  "name": "destinationChainId",
                  "type": "uint256"
                },
                {
                  "internalType": "address",
                  "name": "exclusiveRelayer",
                  "type": "address"
                },
                {
                  "internalType": "uint32",
                  "name": "quoteTimestamp",
                  "type": "uint32"
                },
                {
                  "internalType": "uint32",
                  "name": "fillDeadline",
                  "type": "uint32"
                },
                {
                  "internalType": "uint32",
                  "name": "exclusivityParameter",
                  "type": "uint32"
                },
                {
                  "internalType": "bytes",
                  "name": "message",
                  "type": "bytes"
                }
              ],
              "internalType": "struct SpokePoolV3PeripheryInterface.BaseDepositData",
              "name": "depositData",
              "type": "tuple"
            },
            {
              "internalType": "address",
              "name": "swapToken",
              "type": "address"
            },
            {
              "internalType": "address",
              "name": "exchange",
              "type": "address"
            },
            {
              "internalType": "enum SpokePoolV3PeripheryInterface.TransferType",
              "name": "transferType",
              "type": "uint8"
            },
            {
              "internalType": "uint256",
              "name": "swapTokenAmount",
              "type": "uint256"
            },
            {
              "internalType": "uint256",
              "name": "minExpectedInputTokenAmount",
              "type": "uint256"
            },
            {
              "internalType": "bytes",
              "name": "routerCalldata",
              "type": "bytes"
            }
          ],
          "internalType": "struct SpokePoolV3PeripheryInterface.SwapAndDepositData",
          "name": "swapAndDepositData",
          "type": "tuple"
        }
      ],
      "name": "swapAndBridge",
      "outputs": [],
      "stateMutability": "nonpayable",
      "type": "function"
    }
  ],
  "transactionHash": "0xf7885c0cac3da444a549c60b3815345293b35ef2d89ff0043e17e1f3984ea580",
  "args": [],
  "numDeployments": 1,
  "solcInputHash": "18444bee06c5c419845db43f360be43c",
  "bytecode": "0x6080806040523461002157600160ff195f5416175f55610ee190816100268239f35b5f80fdfe60806040526004361015610011575f80fd5b5f3560e01c80637d401ed314610204578063894adf301461004f578063ac9650d81461004a5763c4d66de814610045575f80fd5b6103db565b610335565b34610200577ffffffffffffffffffffffffffffffffffffffffffffffffffffffffffffffffc602081360112610200576004359067ffffffffffffffff821161020057610120908236030112610200576100a7610859565b6100d27fffffffffffffffffffffffffffffffffffffffffffffffffffffffffffffff005f54165f55565b6101396100fd6100e460648401610865565b73ffffffffffffffffffffffffffffffffffffffff1690565b60c48301359061010f82303384610c1b565b5f546101339060101c73ffffffffffffffffffffffffffffffffffffffff166100e4565b90610c97565b5f5461015d9060101c73ffffffffffffffffffffffffffffffffffffffff166100e4565b803b15610200575f6101a38192846040519485809481937f894adf3000000000000000000000000000000000000000000000000000000000835260040160048301610aef565b03925af180156101fb576101e2575b6101e060017fffffffffffffffffffffffffffffffffffffffffffffffffffffffffffffff005f5416175f55565b005b806101ef6101f592610566565b80610256565b806101b2565b610c10565b5f80fd5b34610200575f7ffffffffffffffffffffffffffffffffffffffffffffffffffffffffffffffffc3601126102005773ffffffffffffffffffffffffffffffffffffffff5f5460101c1660805260206080f35b5f91031261020057565b5f5b8381106102715750505f910152565b8181015183820152602001610262565b602080820190808352835180925260408301928160408460051b8301019501935f915b8483106102b45750505050505090565b909192939495848080837fffffffffffffffffffffffffffffffffffffffffffffffffffffffffffffffc086600196030187527fffffffffffffffffffffffffffffffffffffffffffffffffffffffffffffffe0601f8c5161032181518092818752878088019101610260565b0116010198019301930191949392906102a4565b346102005760207ffffffffffffffffffffffffffffffffffffffffffffffffffffffffffffffffc3601126102005767ffffffffffffffff6004358181116102005736602382011215610200578060040135918211610200573660248360051b83010111610200576103b99160246103ad9201610772565b60405191829182610281565b0390f35b73ffffffffffffffffffffffffffffffffffffffff81160361020057565b346102005760207ffffffffffffffffffffffffffffffffffffffffffffffffffffffffffffffffc36011261020057600435610416816103bd565b61041e610859565b6104497fffffffffffffffffffffffffffffffffffffffffffffffffffffffffffffff005f54165f55565b5f5460ff8160081c1661050f577fffffffffffffffffffffffffffffffffffffffffffffffffffffffffffff00ff16610100175f5573ffffffffffffffffffffffffffffffffffffffff81163b156104e5576101b2907fffffffffffffffffffff0000000000000000000000000000000000000000ffff75ffffffffffffffffffffffffffffffffffffffff00005f549260101b169116175f55565b60046040517fd07c0ecb000000000000000000000000000000000000000000000000000000008152fd5b60046040517f9f4eefba000000000000000000000000000000000000000000000000000000008152fd5b7f4e487b71000000000000000000000000000000000000000000000000000000005f52604160045260245ffd5b67ffffffffffffffff811161057a57604052565b610539565b6080810190811067ffffffffffffffff82111761057a57604052565b90601f7fffffffffffffffffffffffffffffffffffffffffffffffffffffffffffffffe0910116810190811067ffffffffffffffff82111761057a57604052565b67ffffffffffffffff811161057a5760051b60200190565b7f4e487b71000000000000000000000000000000000000000000000000000000005f52603260045260245ffd5b91908110156106815760051b810135907fffffffffffffffffffffffffffffffffffffffffffffffffffffffffffffffe18136030182121561020057019081359167ffffffffffffffff8311610200576020018236038113610200579190565b6105f4565b908092918237015f815290565b67ffffffffffffffff811161057a57601f017fffffffffffffffffffffffffffffffffffffffffffffffffffffffffffffffe01660200190565b3d156106f7573d906106de82610693565b916106ec604051938461059b565b82523d5f602084013e565b606090565b6020818303126102005780519067ffffffffffffffff8211610200570181601f8201121561020057805161072f81610693565b9261073d604051948561059b565b818452602082840101116102005761075b9160208085019101610260565b90565b80518210156106815760209160051b010190565b91909161077e836105dc565b90604061078e604051938461059b565b8483527fffffffffffffffffffffffffffffffffffffffffffffffffffffffffffffffe06107bb866105dc565b015f5b81811061084857505082945f5b8181106107d9575050505050565b5f806107e6838588610621565b906107f5875180938193610686565b0390305af46108026106cd565b90156108285790600191610816828861075e565b52610821818761075e565b50016107cb565b6044815110610200578060046102009201516024809183010191016106fc565b8060606020809388010152016107be565b60ff5f54161561020057565b3561075b816103bd565b359061087a826103bd565b565b90357ffffffffffffffffffffffffffffffffffffffffffffffffffffffffffffffea182360301811215610200570190565b359063ffffffff8216820361020057565b90357fffffffffffffffffffffffffffffffffffffffffffffffffffffffffffffffe18236030181121561020057016020813591019167ffffffffffffffff821161020057813603831361020057565b601f82602094937fffffffffffffffffffffffffffffffffffffffffffffffffffffffffffffffe093818652868601375f8582860101520116010190565b61075b916101608161097d82936109638661086f565b73ffffffffffffffffffffffffffffffffffffffff169052565b6109a961098c6020860161086f565b73ffffffffffffffffffffffffffffffffffffffff166020830152565b604084013560408201526109df6109c26060860161086f565b73ffffffffffffffffffffffffffffffffffffffff166060830152565b610a0b6109ee6080860161086f565b73ffffffffffffffffffffffffffffffffffffffff166080830152565b60a084013560a0820152610a41610a2460c0860161086f565b73ffffffffffffffffffffffffffffffffffffffff1660c0830152565b610a5d610a5060e086016108ae565b63ffffffff1660e0830152565b610a7a610100610a6e8187016108ae565b63ffffffff1690830152565b610a8b610120610a6e8187016108ae565b610a9b61014094858101906108bf565b939094820152019161090f565b3590600382101561020057565b906003821015610ac25752565b7f4e487b71000000000000000000000000000000000000000000000000000000005f52602160045260245ffd5b9061075b91602081528135602082015273ffffffffffffffffffffffffffffffffffffffff6020830135610b22816103bd565b166040820152610b35604083018361087c565b610be0610b506101209283606086015261014085019061094d565b93610b7d610b606060830161086f565b73ffffffffffffffffffffffffffffffffffffffff166080860152565b610ba9610b8c6080830161086f565b73ffffffffffffffffffffffffffffffffffffffff1660a0860152565b610bc2610bb860a08301610aa8565b60c0860190610ab5565b60c081013560e085015261010060e0820135818601528101906108bf565b9290917fffffffffffffffffffffffffffffffffffffffffffffffffffffffffffffffe08286030191015261090f565b6040513d5f823e3d90fd5b9290604051927f23b872dd00000000000000000000000000000000000000000000000000000000602085015273ffffffffffffffffffffffffffffffffffffffff809216602485015216604483015260648201526064815260a081019181831067ffffffffffffffff84111761057a5761087a92604052610dd7565b91909160405191602083015f807f095ea7b3000000000000000000000000000000000000000000000000000000009384845273ffffffffffffffffffffffffffffffffffffffff908189166024890152604488015260448752610cf98761057f565b85169286519082855af190610d0c6106cd565b82610d8d575b5081610d82575b5015610d26575b50505050565b604051602081019190915273ffffffffffffffffffffffffffffffffffffffff9390931660248401525f6044808501919091528352610d7992610d7490610d6e60648261059b565b82610dd7565b610dd7565b5f808080610d20565b90503b15155f610d19565b80519192508115918215610da5575b5050905f610d12565b610db89250602080918301019101610dbf565b5f80610d9c565b90816020910312610200575180151581036102005790565b73ffffffffffffffffffffffffffffffffffffffff166040516040810181811067ffffffffffffffff82111761057a57610e52937f5361666545524332303a206c6f772d6c6576656c2063616c6c206661696c656460205f948594604052818152015260208151910182855af1610e4c6106cd565b91610e82565b8051908115918215610e68575b50501561020057565b610e7b9250602080918301019101610dbf565b5f80610e5f565b9015610e9c57815115610e93575090565b3b156102005790565b50805190811561020057602001fdfea2646970667358221220a682775d5f5320f2c4aef3eb4bf5c0d44af5a082a35b1e787e2595f4870e303664736f6c63430008170033",
  "devdoc": {
    "details": "If this proxy didn't exist and users instead approved and interacted directly with the SpokePoolV3Periphery then users would run the unneccessary risk that another user could instruct the Periphery contract to steal any approved tokens that the user had left outstanding.",
    "kind": "dev",
    "methods": {
      "constructor": {
        "details": "Is empty and all of the state variables are initialized in the initialize function to allow for deployment at a deterministic address via create2, which requires that the bytecode across different networks is the same. Constructor parameters affect the bytecode so we can only add parameters here that are consistent across networks."
      },
      "initialize(address)": {
        "params": {
          "_spokePoolPeriphery": "Address of the SpokePoolPeriphery contract that this proxy will call."
        }
      },
      "swapAndBridge(((uint256,address),(address,address,uint256,address,address,uint256,address,uint32,uint32,uint32,bytes),address,address,uint8,uint256,uint256,bytes))": {
        "details": "If swapToken or acrossInputToken are the native token for this chain then this function might fail. the assumption is that this function will handle only ERC20 tokens.",
        "params": {
          "swapAndDepositData": "Specifies the params we need to perform a swap on a generic exchange."
        }
      }
    },
    "title": "SpokePoolPeripheryProxy",
    "version": 1
  },
  "userdoc": {
    "kind": "user",
    "methods": {
      "constructor": {
        "notice": "Construct a new Proxy contract."
      },
      "initialize(address)": {
        "notice": "Initialize the SpokePoolPeripheryProxy contract."
      },
      "swapAndBridge(((uint256,address),(address,address,uint256,address,address,uint256,address,uint32,uint32,uint32,bytes),address,address,uint8,uint256,uint256,bytes))": {
        "notice": "Swaps tokens on this chain via specified router before submitting Across deposit atomically. Caller can specify their slippage tolerance for the swap and Across deposit params."
      }
    },
    "notice": "User should only call SpokePoolV3Periphery contract functions that require approvals through this contract. This is purposefully a simple passthrough contract so that the user only approves this contract to pull its assets because the SpokePoolV3Periphery contract can be used to call any calldata on any exchange that the user wants to. By separating the contract that is approved to spend user funds from the contract that executes arbitrary calldata, the SpokePoolPeriphery does not need to validate the calldata that gets executed.",
    "version": 1
  },
  "storageLayout": {
    "storage": [
      {
        "astId": 3137,
        "contract": "contracts/SpokePoolV3Periphery.sol:SpokePoolPeripheryProxy",
        "label": "_notEntered",
        "offset": 0,
        "slot": "0",
        "type": "t_bool"
      },
      {
        "astId": 3249,
        "contract": "contracts/SpokePoolV3Periphery.sol:SpokePoolPeripheryProxy",
        "label": "initialized",
        "offset": 1,
        "slot": "0",
        "type": "t_bool"
      },
      {
        "astId": 3252,
        "contract": "contracts/SpokePoolV3Periphery.sol:SpokePoolPeripheryProxy",
        "label": "spokePoolPeriphery",
        "offset": 2,
        "slot": "0",
        "type": "t_contract(SpokePoolV3Periphery)4710"
      }
    ],
    "types": {
      "t_bool": {
        "encoding": "inplace",
        "label": "bool",
        "numberOfBytes": "1"
      },
      "t_contract(SpokePoolV3Periphery)4710": {
        "encoding": "inplace",
        "label": "contract SpokePoolV3Periphery",
        "numberOfBytes": "20"
      }
    }
  }
}