{
  "address": "0x0F7Ae28dE1C8532170AD4ee566B5801485c13a0E",
  "abi": [
    {
      "inputs": [
        {
          "internalType": "uint256",
          "name": "index",
          "type": "uint256"
        },
        {
          "components": [
            {
              "internalType": "address",
              "name": "target",
              "type": "address"
            },
            {
              "internalType": "bytes",
              "name": "callData",
              "type": "bytes"
            },
            {
              "internalType": "uint256",
              "name": "value",
              "type": "uint256"
            }
          ],
          "internalType": "struct MulticallHandler.Call[]",
          "name": "calls",
          "type": "tuple[]"
        }
      ],
      "name": "CallReverted",
      "type": "error"
    },
    {
      "inputs": [
        {
          "internalType": "uint256",
          "name": "callDataLength",
          "type": "uint256"
        },
        {
          "internalType": "uint256",
          "name": "offset",
          "type": "uint256"
        }
      ],
      "name": "CalldataTooShort",
      "type": "error"
    },
    {
      "inputs": [
        {
          "internalType": "uint256",
          "name": "index",
          "type": "uint256"
        },
        {
          "components": [
            {
              "internalType": "address",
              "name": "target",
              "type": "address"
            },
            {
              "internalType": "bytes",
              "name": "callData",
              "type": "bytes"
            },
            {
              "internalType": "uint256",
              "name": "value",
              "type": "uint256"
            }
          ],
          "internalType": "struct MulticallHandler.Call[]",
          "name": "calls",
          "type": "tuple[]"
        }
      ],
      "name": "InvalidCall",
      "type": "error"
    },
    {
      "inputs": [],
      "name": "NotSelf",
      "type": "error"
    },
    {
      "inputs": [
        {
          "internalType": "bytes",
          "name": "callData",
          "type": "bytes"
        }
      ],
      "name": "ReplacementCallFailed",
      "type": "error"
    },
    {
      "anonymous": false,
      "inputs": [
        {
          "components": [
            {
              "internalType": "address",
              "name": "target",
              "type": "address"
            },
            {
              "internalType": "bytes",
              "name": "callData",
              "type": "bytes"
            },
            {
              "internalType": "uint256",
              "name": "value",
              "type": "uint256"
            }
          ],
          "indexed": false,
          "internalType": "struct MulticallHandler.Call[]",
          "name": "calls",
          "type": "tuple[]"
        },
        {
          "indexed": true,
          "internalType": "address",
          "name": "fallbackRecipient",
          "type": "address"
        }
      ],
      "name": "CallsFailed",
      "type": "event"
    },
    {
      "anonymous": false,
      "inputs": [
        {
          "indexed": true,
          "internalType": "address",
          "name": "recipient",
          "type": "address"
        },
        {
          "indexed": true,
          "internalType": "address",
          "name": "token",
          "type": "address"
        },
        {
          "indexed": true,
          "internalType": "uint256",
          "name": "amount",
          "type": "uint256"
        }
      ],
      "name": "DrainedTokens",
      "type": "event"
    },
    {
      "inputs": [
        {
          "components": [
            {
              "internalType": "address",
              "name": "target",
              "type": "address"
            },
            {
              "internalType": "bytes",
              "name": "callData",
              "type": "bytes"
            },
            {
              "internalType": "uint256",
              "name": "value",
              "type": "uint256"
            }
          ],
          "internalType": "struct MulticallHandler.Call[]",
          "name": "calls",
          "type": "tuple[]"
        }
      ],
      "name": "attemptCalls",
      "outputs": [],
      "stateMutability": "nonpayable",
      "type": "function"
    },
    {
      "inputs": [
        {
          "internalType": "address",
          "name": "token",
          "type": "address"
        },
        {
          "internalType": "address payable",
          "name": "destination",
          "type": "address"
        }
      ],
      "name": "drainLeftoverTokens",
      "outputs": [],
      "stateMutability": "nonpayable",
      "type": "function"
    },
    {
      "inputs": [
        {
          "internalType": "address",
          "name": "token",
          "type": "address"
        },
        {
          "internalType": "uint256",
          "name": "",
          "type": "uint256"
        },
        {
          "internalType": "address",
          "name": "",
          "type": "address"
        },
        {
          "internalType": "bytes",
          "name": "message",
          "type": "bytes"
        }
      ],
      "name": "handleV3AcrossMessage",
      "outputs": [],
      "stateMutability": "nonpayable",
      "type": "function"
    },
    {
      "inputs": [
        {
          "internalType": "address",
          "name": "target",
          "type": "address"
        },
        {
          "internalType": "bytes",
          "name": "callData",
          "type": "bytes"
        },
        {
          "internalType": "uint256",
          "name": "value",
          "type": "uint256"
        },
        {
          "components": [
            {
              "internalType": "address",
              "name": "token",
              "type": "address"
            },
            {
              "internalType": "uint256",
              "name": "offset",
              "type": "uint256"
            }
          ],
          "internalType": "struct MulticallHandler.Replacement[]",
          "name": "replacement",
          "type": "tuple[]"
        }
      ],
      "name": "makeCallWithBalance",
      "outputs": [],
      "stateMutability": "nonpayable",
      "type": "function"
    },
    {
      "stateMutability": "payable",
      "type": "receive"
    }
  ],
  "transactionHash": "0x49499567a8cbf3df227438ad4d7c4162051431666af4ed02e21b9f16dfbf5ca8",
  "args": [],
  "numDeployments": 2,
  "solcInputHash": "c2ffc35e077bfc077abf274ee041d952",
  "bytecode": "0x6080806040523461001a5760015f55610eae908161001f8239f35b5f80fdfe60406080815260048036101561001e575b5050361561001c575f80fd5b005b5f3560e01c9081633a5be8cb1461059b578163a58d50d314610321578163c41e8295146100c0575063ef8738d3146100565780610010565b346100bc577ffffffffffffffffffffffffffffffffffffffffffffffffffffffffffffffffc3601126100bc5761008b61062d565b60243573ffffffffffffffffffffffffffffffffffffffff811681036100bc5761001c916100b7610e1c565b610c2e565b5f80fd5b9050346100bc5760807ffffffffffffffffffffffffffffffffffffffffffffffffffffffffffffffffc3601126100bc576100f961062d565b6024929067ffffffffffffffff84358181116100bc5761011c9036908601610714565b916044606435928084116100bc57366023850112156100bc57838701359081116100bc57878401938836918360061b0101116100bc5761015a610e1c565b604435935f5b8281106101c657505050505f91829184519160208601915af16101816108a4565b501561018957005b6020936101c292519485947fb3beda730000000000000000000000000000000000000000000000000000000086528501528301906107b4565b0390fd5b73ffffffffffffffffffffffffffffffffffffffff806101ef6101ea848787610bd0565b610c0d565b1615610317576102036101ea838686610bd0565b16885180917f70a08231000000000000000000000000000000000000000000000000000000008252308c830152818d60209485935afa91821561030d575f926102df575b50505b602080610258848787610bd0565b01358181018082116102b4578a5180821161028157505089010180519091179052600101610160565b88918f8f928f51937f4d3ae48d000000000000000000000000000000000000000000000000000000008552840152820152fd5b8d60118e7f4e487b71000000000000000000000000000000000000000000000000000000005f52525ffd5b90809250813d8311610306575b6102f68183610699565b810103126100bc57515f80610247565b503d6102ec565b8a513d5f823e3d90fd5b504795508561024a565b9050346100bc57602091827ffffffffffffffffffffffffffffffffffffffffffffffffffffffffffffffffc3601126100bc5767ffffffffffffffff9082358281116100bc57366023820112156100bc5780840135946024916103838761075a565b9461039085519687610699565b878652828601908460059960051b840101923684116100bc57858101925b8484106104fe5750505050506103c2610e1c565b8351955f5b8781106103d057005b85518110156104d3578281831b87010151838101908151511515806104b3575b610474575f91818873ffffffffffffffffffffffffffffffffffffffff859451169101519151918783519301915af16104276108a4565b5015610435576001016103c7565b866101c287878781519586957fe462c44000000000000000000000000000000000000000000000000000000000875286015284015260448301906107f7565b86517fe237730c000000000000000000000000000000000000000000000000000000008152808a01849052808701889052806101c2604482018b6107f7565b5073ffffffffffffffffffffffffffffffffffffffff8151163b156103f0565b836032887f4e487b71000000000000000000000000000000000000000000000000000000005f52525ffd5b83358381116100bc57820160607fffffffffffffffffffffffffffffffffffffffffffffffffffffffffffffffdc82360301126100bc5788519161054183610650565b8882013573ffffffffffffffffffffffffffffffffffffffff811681036100bc5783526044820135928584116100bc57606489949361058686958d3691840101610714565b8584015201358b8201528152019301926103ae565b346100bc5760807ffffffffffffffffffffffffffffffffffffffffffffffffffffffffffffffffc3601126100bc576105d261062d565b9060443573ffffffffffffffffffffffffffffffffffffffff8116036100bc576064359067ffffffffffffffff82116100bc5761061191369101610714565b60025f54146100bc576106279160025f556108d3565b60015f55005b6004359073ffffffffffffffffffffffffffffffffffffffff821682036100bc57565b6060810190811067ffffffffffffffff82111761066c57604052565b7f4e487b71000000000000000000000000000000000000000000000000000000005f52604160045260245ffd5b90601f7fffffffffffffffffffffffffffffffffffffffffffffffffffffffffffffffe0910116810190811067ffffffffffffffff82111761066c57604052565b67ffffffffffffffff811161066c57601f017fffffffffffffffffffffffffffffffffffffffffffffffffffffffffffffffe01660200190565b81601f820112156100bc5780359061072b826106da565b926107396040519485610699565b828452602083830101116100bc57815f926020809301838601378301015290565b67ffffffffffffffff811161066c5760051b60200190565b519073ffffffffffffffffffffffffffffffffffffffff821682036100bc57565b5f5b8381106107a45750505f910152565b8181015183820152602001610795565b907fffffffffffffffffffffffffffffffffffffffffffffffffffffffffffffffe0601f6020936107f081518092818752878088019101610793565b0116010190565b908082519081815260208091019281808460051b8301019501935f915b8483106108245750505050505090565b9091929394958480827fffffffffffffffffffffffffffffffffffffffffffffffffffffffffffffffe0856001950301865289519061088a606073ffffffffffffffffffffffffffffffffffffffff8451168352848401519080868501528301906107b4565b916040809101519101529801930193019194939290610814565b3d156108ce573d906108b5826106da565b916108c36040519384610699565b82523d5f602084013e565b606090565b81516020908301928184019382828203126100bc578282015167ffffffffffffffff928382116100bc57019060409182818303126100bc578251918383018381108682111761066c578452858201518581116100bc5782019088603f830112156100bc57868201516109448161075a565b9961095187519b8c610699565b818b5286898c019260051b850101938185116100bc57908188809695949301925b858410610b045750505050505061098c9188845201610772565b938082019385855273ffffffffffffffffffffffffffffffffffffffff80961615610a8f5750610a4796505f8083518551610a27816109fb878201947fa58d50d300000000000000000000000000000000000000000000000000000000865288602484015260448301906107f7565b037fffffffffffffffffffffffffffffffffffffffffffffffffffffffffffffffe08101835282610699565b519082305af1610a356108a4565b5015610a49575b505050511690610c2e565b565b7f5296f22c5d0413b66d0bf45c479c4e2ca5b278634bdbd028b48e49502105f966915190610a848686511694519282849384528301906107f7565b0390a25f8080610a3c565b94509250509250303b156100bc57610adc935f91845195869283927fa58d50d3000000000000000000000000000000000000000000000000000000008452600484015260248301906107f7565b038183305af18015610afa57610af157505050565b821161066c5752565b82513d5f823e3d90fd5b9091928094959650518a81116100bc5782019060607fffffffffffffffffffffffffffffffffffffffffffffffffffffffffffffffe083880301126100bc57895190610b4f82610650565b610b5a8b8401610772565b825260608301518c81116100bc5783019185605f840112156100bc57828c01518c94610b91610b88836106da565b96519687610699565b81865287606083870101116100bc578f95610bb6608093889760608985019101610793565b8584015201518c8201528152019301919088959493610972565b9190811015610be05760061b0190565b7f4e487b71000000000000000000000000000000000000000000000000000000005f52603260045260245ffd5b3573ffffffffffffffffffffffffffffffffffffffff811681036100bc5790565b73ffffffffffffffffffffffffffffffffffffffff91908216908115610dec57604051927f70a082310000000000000000000000000000000000000000000000000000000084523060048501526020918285602481875afa948515610de1575f95610db2575b5084610ca2575b5050505050565b16906040518181017fa9059cbb000000000000000000000000000000000000000000000000000000008152836024830152856044830152604482526080820167ffffffffffffffff918382108383111761066c5760c084019283118284101761066c57610d4e93855f94938594604052527f5361666545524332303a206c6f772d6c6576656c2063616c6c206661696c656460a0820152519082885af1610d476108a4565b9085610e4f565b8051918215918215610d92575b50509050156100bc577f74d3741ef03417659087d2ec6af11dade8713f9b7f592569d60cf1ea0c9a44555f80a45f80808080610c9b565b8092508193810103126100bc57015180151581036100bc57805f80610d5b565b9094508281813d8311610dda575b610dca8183610699565b810103126100bc5751935f610c94565b503d610dc0565b6040513d5f823e3d90fd5b9147915081610dfa57505050565b8147106100bc575f92839283928392165af1610e146108a4565b50156100bc57565b303303610e2557565b60046040517f29c3b7ee000000000000000000000000000000000000000000000000000000008152fd5b9015610e6957815115610e60575090565b3b156100bc5790565b5080519081156100bc57602001fdfea2646970667358221220720c88433acf92a8189c82bb29ba38797191c7e6065c4eac1880ca9219c79e3364736f6c63430008170033",
  "devdoc": {
    "details": "This contract makes the calls blindly. The contract will send any remaining tokens The caller should ensure that the tokens recieved by the handler are completely consumed.",
    "kind": "dev",
    "methods": {
      "handleV3AcrossMessage(address,uint256,address,bytes)": {
        "details": "This will execute all calls encoded in the msg. The caller is responsible for making sure all tokens are drained from this contract by the end of the series of calls. If not, they can be stolen. A drainLeftoverTokens call can be included as a way to drain any remaining tokens from this contract.",
        "params": {
          "message": "abi encoded array of Call structs, containing a target, callData, and value for each call that the contract should make."
        }
      },
      "makeCallWithBalance(address,bytes,uint256,(address,uint256)[])": {
        "details": "Modifies calldata in-place using OR operations. Target calldata positions must be zeroed out. Cannot handle negative balances, making it incompatible with DEXs requiring negative input amounts. For native balance (token = address(0)), the entire balance is used as call value.",
        "params": {
          "callData": "The calldata to execute, with zero values at replacement positions",
          "replacement": "Array of Replacement structs specifying token addresses and byte offsets for balance injection",
          "target": "The contract address to call",
          "value": "The native token value to send (ignored if native balance replacement is used)"
        }
      }
    },
    "title": "Across Multicall contract that allows a user to specify a series of calls that should be made by the handler via the message field in the deposit.",
    "version": 1
  },
  "userdoc": {
    "kind": "user",
    "methods": {
      "handleV3AcrossMessage(address,uint256,address,bytes)": {
        "notice": "Main entrypoint for the handler called by the SpokePool contract."
      },
      "makeCallWithBalance(address,bytes,uint256,(address,uint256)[])": {
        "notice": "Executes a call while replacing specified calldata offsets with current token/native balances."
      }
    },
    "version": 1
  },
  "storageLayout": {
    "storage": [
      {
        "astId": 10,
        "contract": "contracts/handlers/MulticallHandler.sol:MulticallHandler",
        "label": "_status",
        "offset": 0,
        "slot": "0",
        "type": "t_uint256"
      }
    ],
    "types": {
      "t_uint256": {
        "encoding": "inplace",
        "label": "uint256",
        "numberOfBytes": "32"
      }
    }
  }
}