{
  "address": "0xa5eA165AfAc780807DE19aefa2B8a21079B8A627",
  "abi": [
    {
      "inputs": [
        {
          "internalType": "address",
          "name": "_wrappedNativeTokenAddress",
          "type": "address"
        },
        {
          "internalType": "uint32",
          "name": "_depositQuoteTimeBuffer",
          "type": "uint32"
        },
        {
          "internalType": "uint32",
          "name": "_fillDeadlineBuffer",
          "type": "uint32"
        },
        {
          "internalType": "contract IERC20",
          "name": "_l2Usdc",
          "type": "address"
        },
        {
          "internalType": "contract ITokenMessenger",
          "name": "_cctpTokenMessenger",
          "type": "address"
        }
      ],
      "stateMutability": "nonpayable",
      "type": "constructor"
    },
    {
      "inputs": [],
      "name": "ClaimedMerkleLeaf",
      "type": "error"
    },
    {
      "inputs": [],
      "name": "DepositsArePaused",
      "type": "error"
    },
    {
      "inputs": [],
      "name": "DisabledRoute",
      "type": "error"
    },
    {
      "inputs": [],
      "name": "ExpiredFillDeadline",
      "type": "error"
    },
    {
      "inputs": [],
      "name": "FillsArePaused",
      "type": "error"
    },
    {
      "inputs": [],
      "name": "InvalidChainId",
      "type": "error"
    },
    {
      "inputs": [],
      "name": "InvalidCrossDomainAdmin",
      "type": "error"
    },
    {
      "inputs": [],
      "name": "InvalidDepositorSignature",
      "type": "error"
    },
    {
      "inputs": [],
      "name": "InvalidExclusiveRelayer",
      "type": "error"
    },
    {
      "inputs": [],
      "name": "InvalidExclusivityDeadline",
      "type": "error"
    },
    {
      "inputs": [],
      "name": "InvalidFillDeadline",
      "type": "error"
    },
    {
      "inputs": [],
      "name": "InvalidHubPool",
      "type": "error"
    },
    {
      "inputs": [],
      "name": "InvalidMerkleLeaf",
      "type": "error"
    },
    {
      "inputs": [],
      "name": "InvalidMerkleProof",
      "type": "error"
    },
    {
      "inputs": [],
      "name": "InvalidPayoutAdjustmentPct",
      "type": "error"
    },
    {
      "inputs": [],
      "name": "InvalidQuoteTimestamp",
      "type": "error"
    },
    {
      "inputs": [],
      "name": "InvalidRelayerFeePct",
      "type": "error"
    },
    {
      "inputs": [],
      "name": "InvalidSlowFillRequest",
      "type": "error"
    },
    {
      "inputs": [],
      "name": "MaxTransferSizeExceeded",
      "type": "error"
    },
    {
      "inputs": [],
      "name": "MsgValueDoesNotMatchInputAmount",
      "type": "error"
    },
    {
      "inputs": [],
      "name": "NoSlowFillsInExclusivityWindow",
      "type": "error"
    },
    {
      "inputs": [],
      "name": "NotCrossChainCall",
      "type": "error"
    },
    {
      "inputs": [],
      "name": "NotCrossDomainAdmin",
      "type": "error"
    },
    {
      "inputs": [],
      "name": "NotEOA",
      "type": "error"
    },
    {
      "inputs": [],
      "name": "NotExclusiveRelayer",
      "type": "error"
    },
    {
      "inputs": [],
      "name": "RelayFilled",
      "type": "error"
    },
    {
      "anonymous": false,
      "inputs": [
        {
          "indexed": false,
          "internalType": "address",
          "name": "previousAdmin",
          "type": "address"
        },
        {
          "indexed": false,
          "internalType": "address",
          "name": "newAdmin",
          "type": "address"
        }
      ],
      "name": "AdminChanged",
      "type": "event"
    },
    {
      "anonymous": false,
      "inputs": [
        {
          "indexed": true,
          "internalType": "address",
          "name": "beacon",
          "type": "address"
        }
      ],
      "name": "BeaconUpgraded",
      "type": "event"
    },
    {
      "anonymous": false,
      "inputs": [
        {
          "indexed": true,
          "internalType": "uint256",
          "name": "rootBundleId",
          "type": "uint256"
        }
      ],
      "name": "EmergencyDeleteRootBundle",
      "type": "event"
    },
    {
      "anonymous": false,
      "inputs": [
        {
          "indexed": true,
          "internalType": "address",
          "name": "originToken",
          "type": "address"
        },
        {
          "indexed": true,
          "internalType": "uint256",
          "name": "destinationChainId",
          "type": "uint256"
        },
        {
          "indexed": false,
          "internalType": "bool",
          "name": "enabled",
          "type": "bool"
        }
      ],
      "name": "EnabledDepositRoute",
      "type": "event"
    },
    {
      "anonymous": false,
      "inputs": [
        {
          "indexed": false,
          "internalType": "uint256",
          "name": "amountToReturn",
          "type": "uint256"
        },
        {
          "indexed": true,
          "internalType": "uint256",
          "name": "chainId",
          "type": "uint256"
        },
        {
          "indexed": false,
          "internalType": "uint256[]",
          "name": "refundAmounts",
          "type": "uint256[]"
        },
        {
          "indexed": true,
          "internalType": "uint32",
          "name": "rootBundleId",
          "type": "uint32"
        },
        {
          "indexed": true,
          "internalType": "uint32",
          "name": "leafId",
          "type": "uint32"
        },
        {
          "indexed": false,
          "internalType": "address",
          "name": "l2TokenAddress",
          "type": "address"
        },
        {
          "indexed": false,
          "internalType": "address[]",
          "name": "refundAddresses",
          "type": "address[]"
        },
        {
          "indexed": false,
          "internalType": "address",
          "name": "caller",
          "type": "address"
        }
      ],
      "name": "ExecutedRelayerRefundRoot",
      "type": "event"
    },
    {
      "anonymous": false,
      "inputs": [
        {
          "indexed": false,
          "internalType": "uint256",
          "name": "amount",
          "type": "uint256"
        },
        {
          "indexed": false,
          "internalType": "uint256",
          "name": "totalFilledAmount",
          "type": "uint256"
        },
        {
          "indexed": false,
          "internalType": "uint256",
          "name": "fillAmount",
          "type": "uint256"
        },
        {
          "indexed": false,
          "internalType": "uint256",
          "name": "repaymentChainId",
          "type": "uint256"
        },
        {
          "indexed": true,
          "internalType": "uint256",
          "name": "originChainId",
          "type": "uint256"
        },
        {
          "indexed": false,
          "internalType": "uint256",
          "name": "destinationChainId",
          "type": "uint256"
        },
        {
          "indexed": false,
          "internalType": "int64",
          "name": "relayerFeePct",
          "type": "int64"
        },
        {
          "indexed": false,
          "internalType": "int64",
          "name": "realizedLpFeePct",
          "type": "int64"
        },
        {
          "indexed": true,
          "internalType": "uint32",
          "name": "depositId",
          "type": "uint32"
        },
        {
          "indexed": false,
          "internalType": "address",
          "name": "destinationToken",
          "type": "address"
        },
        {
          "indexed": false,
          "internalType": "address",
          "name": "relayer",
          "type": "address"
        },
        {
          "indexed": true,
          "internalType": "address",
          "name": "depositor",
          "type": "address"
        },
        {
          "indexed": false,
          "internalType": "address",
          "name": "recipient",
          "type": "address"
        },
        {
          "indexed": false,
          "internalType": "bytes",
          "name": "message",
          "type": "bytes"
        },
        {
          "components": [
            {
              "internalType": "address",
              "name": "recipient",
              "type": "address"
            },
            {
              "internalType": "bytes",
              "name": "message",
              "type": "bytes"
            },
            {
              "internalType": "int64",
              "name": "relayerFeePct",
              "type": "int64"
            },
            {
              "internalType": "bool",
              "name": "isSlowRelay",
              "type": "bool"
            },
            {
              "internalType": "int256",
              "name": "payoutAdjustmentPct",
              "type": "int256"
            }
          ],
          "indexed": false,
          "internalType": "struct SpokePool.RelayExecutionInfo",
          "name": "updatableRelayData",
          "type": "tuple"
        }
      ],
      "name": "FilledRelay",
      "type": "event"
    },
    {
      "anonymous": false,
      "inputs": [
        {
          "indexed": false,
          "internalType": "address",
          "name": "inputToken",
          "type": "address"
        },
        {
          "indexed": false,
          "internalType": "address",
          "name": "outputToken",
          "type": "address"
        },
        {
          "indexed": false,
          "internalType": "uint256",
          "name": "inputAmount",
          "type": "uint256"
        },
        {
          "indexed": false,
          "internalType": "uint256",
          "name": "outputAmount",
          "type": "uint256"
        },
        {
          "indexed": false,
          "internalType": "uint256",
          "name": "repaymentChainId",
          "type": "uint256"
        },
        {
          "indexed": true,
          "internalType": "uint256",
          "name": "originChainId",
          "type": "uint256"
        },
        {
          "indexed": true,
          "internalType": "uint32",
          "name": "depositId",
          "type": "uint32"
        },
        {
          "indexed": false,
          "internalType": "uint32",
          "name": "fillDeadline",
          "type": "uint32"
        },
        {
          "indexed": false,
          "internalType": "uint32",
          "name": "exclusivityDeadline",
          "type": "uint32"
        },
        {
          "indexed": false,
          "internalType": "address",
          "name": "exclusiveRelayer",
          "type": "address"
        },
        {
          "indexed": true,
          "internalType": "address",
          "name": "relayer",
          "type": "address"
        },
        {
          "indexed": false,
          "internalType": "address",
          "name": "depositor",
          "type": "address"
        },
        {
          "indexed": false,
          "internalType": "address",
          "name": "recipient",
          "type": "address"
        },
        {
          "indexed": false,
          "internalType": "bytes",
          "name": "message",
          "type": "bytes"
        },
        {
          "components": [
            {
              "internalType": "address",
              "name": "updatedRecipient",
              "type": "address"
            },
            {
              "internalType": "bytes",
              "name": "updatedMessage",
              "type": "bytes"
            },
            {
              "internalType": "uint256",
              "name": "updatedOutputAmount",
              "type": "uint256"
            },
            {
              "internalType": "enum V3SpokePoolInterface.FillType",
              "name": "fillType",
              "type": "uint8"
            }
          ],
          "indexed": false,
          "internalType": "struct V3SpokePoolInterface.V3RelayExecutionEventInfo",
          "name": "relayExecutionInfo",
          "type": "tuple"
        }
      ],
      "name": "FilledV3Relay",
      "type": "event"
    },
    {
      "anonymous": false,
      "inputs": [
        {
          "indexed": false,
          "internalType": "uint256",
          "name": "amount",
          "type": "uint256"
        },
        {
          "indexed": false,
          "internalType": "uint256",
          "name": "originChainId",
          "type": "uint256"
        },
        {
          "indexed": true,
          "internalType": "uint256",
          "name": "destinationChainId",
          "type": "uint256"
        },
        {
          "indexed": false,
          "internalType": "int64",
          "name": "relayerFeePct",
          "type": "int64"
        },
        {
          "indexed": true,
          "internalType": "uint32",
          "name": "depositId",
          "type": "uint32"
        },
        {
          "indexed": false,
          "internalType": "uint32",
          "name": "quoteTimestamp",
          "type": "uint32"
        },
        {
          "indexed": false,
          "internalType": "address",
          "name": "originToken",
          "type": "address"
        },
        {
          "indexed": false,
          "internalType": "address",
          "name": "recipient",
          "type": "address"
        },
        {
          "indexed": true,
          "internalType": "address",
          "name": "depositor",
          "type": "address"
        },
        {
          "indexed": false,
          "internalType": "bytes",
          "name": "message",
          "type": "bytes"
        }
      ],
      "name": "FundsDeposited",
      "type": "event"
    },
    {
      "anonymous": false,
      "inputs": [
        {
          "indexed": false,
          "internalType": "uint8",
          "name": "version",
          "type": "uint8"
        }
      ],
      "name": "Initialized",
      "type": "event"
    },
    {
      "anonymous": false,
      "inputs": [
        {
          "indexed": false,
          "internalType": "bool",
          "name": "isPaused",
          "type": "bool"
        }
      ],
      "name": "PausedDeposits",
      "type": "event"
    },
    {
      "anonymous": false,
      "inputs": [
        {
          "indexed": false,
          "internalType": "bool",
          "name": "isPaused",
          "type": "bool"
        }
      ],
      "name": "PausedFills",
      "type": "event"
    },
    {
      "anonymous": false,
      "inputs": [
        {
          "indexed": true,
          "internalType": "uint32",
          "name": "rootBundleId",
          "type": "uint32"
        },
        {
          "indexed": true,
          "internalType": "bytes32",
          "name": "relayerRefundRoot",
          "type": "bytes32"
        },
        {
          "indexed": true,
          "internalType": "bytes32",
          "name": "slowRelayRoot",
          "type": "bytes32"
        }
      ],
      "name": "RelayedRootBundle",
      "type": "event"
    },
    {
      "anonymous": false,
      "inputs": [
        {
          "indexed": false,
          "internalType": "int64",
          "name": "newRelayerFeePct",
          "type": "int64"
        },
        {
          "indexed": true,
          "internalType": "uint32",
          "name": "depositId",
          "type": "uint32"
        },
        {
          "indexed": true,
          "internalType": "address",
          "name": "depositor",
          "type": "address"
        },
        {
          "indexed": false,
          "internalType": "address",
          "name": "updatedRecipient",
          "type": "address"
        },
        {
          "indexed": false,
          "internalType": "bytes",
          "name": "updatedMessage",
          "type": "bytes"
        },
        {
          "indexed": false,
          "internalType": "bytes",
          "name": "depositorSignature",
          "type": "bytes"
        }
      ],
      "name": "RequestedSpeedUpDeposit",
      "type": "event"
    },
    {
      "anonymous": false,
      "inputs": [
        {
          "indexed": false,
          "internalType": "uint256",
          "name": "updatedOutputAmount",
          "type": "uint256"
        },
        {
          "indexed": true,
          "internalType": "uint32",
          "name": "depositId",
          "type": "uint32"
        },
        {
          "indexed": true,
          "internalType": "address",
          "name": "depositor",
          "type": "address"
        },
        {
          "indexed": false,
          "internalType": "address",
          "name": "updatedRecipient",
          "type": "address"
        },
        {
          "indexed": false,
          "internalType": "bytes",
          "name": "updatedMessage",
          "type": "bytes"
        },
        {
          "indexed": false,
          "internalType": "bytes",
          "name": "depositorSignature",
          "type": "bytes"
        }
      ],
      "name": "RequestedSpeedUpV3Deposit",
      "type": "event"
    },
    {
      "anonymous": false,
      "inputs": [
        {
          "indexed": false,
          "internalType": "address",
          "name": "inputToken",
          "type": "address"
        },
        {
          "indexed": false,
          "internalType": "address",
          "name": "outputToken",
          "type": "address"
        },
        {
          "indexed": false,
          "internalType": "uint256",
          "name": "inputAmount",
          "type": "uint256"
        },
        {
          "indexed": false,
          "internalType": "uint256",
          "name": "outputAmount",
          "type": "uint256"
        },
        {
          "indexed": true,
          "internalType": "uint256",
          "name": "originChainId",
          "type": "uint256"
        },
        {
          "indexed": true,
          "internalType": "uint32",
          "name": "depositId",
          "type": "uint32"
        },
        {
          "indexed": false,
          "internalType": "uint32",
          "name": "fillDeadline",
          "type": "uint32"
        },
        {
          "indexed": false,
          "internalType": "uint32",
          "name": "exclusivityDeadline",
          "type": "uint32"
        },
        {
          "indexed": false,
          "internalType": "address",
          "name": "exclusiveRelayer",
          "type": "address"
        },
        {
          "indexed": false,
          "internalType": "address",
          "name": "depositor",
          "type": "address"
        },
        {
          "indexed": false,
          "internalType": "address",
          "name": "recipient",
          "type": "address"
        },
        {
          "indexed": false,
          "internalType": "bytes",
          "name": "message",
          "type": "bytes"
        }
      ],
      "name": "RequestedV3SlowFill",
      "type": "event"
    },
    {
      "anonymous": false,
      "inputs": [
        {
          "indexed": true,
          "internalType": "address",
          "name": "newHubPool",
          "type": "address"
        }
      ],
      "name": "SetHubPool",
      "type": "event"
    },
    {
      "anonymous": false,
      "inputs": [
        {
          "indexed": true,
          "internalType": "uint32",
          "name": "newL1Gas",
          "type": "uint32"
        }
      ],
      "name": "SetL1Gas",
      "type": "event"
    },
    {
      "anonymous": false,
      "inputs": [
        {
          "indexed": true,
          "internalType": "address",
          "name": "l2Token",
          "type": "address"
        },
        {
          "indexed": true,
          "internalType": "address",
          "name": "tokenBridge",
          "type": "address"
        }
      ],
      "name": "SetL2TokenBridge",
      "type": "event"
    },
    {
      "anonymous": false,
      "inputs": [
        {
          "indexed": true,
          "internalType": "address",
          "name": "l2Token",
          "type": "address"
        },
        {
          "indexed": true,
          "internalType": "address",
          "name": "l1Token",
          "type": "address"
        }
      ],
      "name": "SetRemoteL1Token",
      "type": "event"
    },
    {
      "anonymous": false,
      "inputs": [
        {
          "indexed": true,
          "internalType": "address",
          "name": "newAdmin",
          "type": "address"
        }
      ],
      "name": "SetXDomainAdmin",
      "type": "event"
    },
    {
      "anonymous": false,
      "inputs": [
        {
          "indexed": false,
          "internalType": "uint256",
          "name": "amountToReturn",
          "type": "uint256"
        },
        {
          "indexed": true,
          "internalType": "uint256",
          "name": "chainId",
          "type": "uint256"
        },
        {
          "indexed": true,
          "internalType": "uint32",
          "name": "leafId",
          "type": "uint32"
        },
        {
          "indexed": true,
          "internalType": "address",
          "name": "l2TokenAddress",
          "type": "address"
        },
        {
          "indexed": false,
          "internalType": "address",
          "name": "caller",
          "type": "address"
        }
      ],
      "name": "TokensBridged",
      "type": "event"
    },
    {
      "anonymous": false,
      "inputs": [
        {
          "indexed": true,
          "internalType": "address",
          "name": "implementation",
          "type": "address"
        }
      ],
      "name": "Upgraded",
      "type": "event"
    },
    {
      "anonymous": false,
      "inputs": [
        {
          "indexed": false,
          "internalType": "address",
          "name": "inputToken",
          "type": "address"
        },
        {
          "indexed": false,
          "internalType": "address",
          "name": "outputToken",
          "type": "address"
        },
        {
          "indexed": false,
          "internalType": "uint256",
          "name": "inputAmount",
          "type": "uint256"
        },
        {
          "indexed": false,
          "internalType": "uint256",
          "name": "outputAmount",
          "type": "uint256"
        },
        {
          "indexed": true,
          "internalType": "uint256",
          "name": "destinationChainId",
          "type": "uint256"
        },
        {
          "indexed": true,
          "internalType": "uint32",
          "name": "depositId",
          "type": "uint32"
        },
        {
          "indexed": false,
          "internalType": "uint32",
          "name": "quoteTimestamp",
          "type": "uint32"
        },
        {
          "indexed": false,
          "internalType": "uint32",
          "name": "fillDeadline",
          "type": "uint32"
        },
        {
          "indexed": false,
          "internalType": "uint32",
          "name": "exclusivityDeadline",
          "type": "uint32"
        },
        {
          "indexed": true,
          "internalType": "address",
          "name": "depositor",
          "type": "address"
        },
        {
          "indexed": false,
          "internalType": "address",
          "name": "recipient",
          "type": "address"
        },
        {
          "indexed": false,
          "internalType": "address",
          "name": "exclusiveRelayer",
          "type": "address"
        },
        {
          "indexed": false,
          "internalType": "bytes",
          "name": "message",
          "type": "bytes"
        }
      ],
      "name": "V3FundsDeposited",
      "type": "event"
    },
    {
      "inputs": [],
      "name": "EMPTY_RELAYER",
      "outputs": [
        {
          "internalType": "address",
          "name": "",
          "type": "address"
        }
      ],
      "stateMutability": "view",
      "type": "function"
    },
    {
      "inputs": [],
      "name": "EMPTY_REPAYMENT_CHAIN_ID",
      "outputs": [
        {
          "internalType": "uint256",
          "name": "",
          "type": "uint256"
        }
      ],
      "stateMutability": "view",
      "type": "function"
    },
    {
      "inputs": [],
      "name": "INFINITE_FILL_DEADLINE",
      "outputs": [
        {
          "internalType": "uint32",
          "name": "",
          "type": "uint32"
        }
      ],
      "stateMutability": "view",
      "type": "function"
    },
    {
      "inputs": [],
      "name": "MAX_TRANSFER_SIZE",
      "outputs": [
        {
          "internalType": "uint256",
          "name": "",
          "type": "uint256"
        }
      ],
      "stateMutability": "view",
      "type": "function"
    },
    {
      "inputs": [],
      "name": "MESSENGER",
      "outputs": [
        {
          "internalType": "address",
          "name": "",
          "type": "address"
        }
      ],
      "stateMutability": "view",
      "type": "function"
    },
    {
      "inputs": [],
      "name": "UPDATE_V3_DEPOSIT_DETAILS_HASH",
      "outputs": [
        {
          "internalType": "bytes32",
          "name": "",
          "type": "bytes32"
        }
      ],
      "stateMutability": "view",
      "type": "function"
    },
    {
      "inputs": [
        {
          "internalType": "uint32",
          "name": "_initialDepositId",
          "type": "uint32"
        },
        {
          "internalType": "address",
          "name": "_crossDomainAdmin",
          "type": "address"
        },
        {
          "internalType": "address",
          "name": "_hubPool",
          "type": "address"
        },
        {
          "internalType": "address",
          "name": "_l2Eth",
          "type": "address"
        }
      ],
      "name": "__OvmSpokePool_init",
      "outputs": [],
      "stateMutability": "nonpayable",
      "type": "function"
    },
    {
      "inputs": [
        {
          "internalType": "uint32",
          "name": "_initialDepositId",
          "type": "uint32"
        },
        {
          "internalType": "address",
          "name": "_crossDomainAdmin",
          "type": "address"
        },
        {
          "internalType": "address",
          "name": "_hubPool",
          "type": "address"
        }
      ],
      "name": "__SpokePool_init",
      "outputs": [],
      "stateMutability": "nonpayable",
      "type": "function"
    },
    {
      "inputs": [],
      "name": "cctpTokenMessenger",
      "outputs": [
        {
          "internalType": "contract ITokenMessenger",
          "name": "",
          "type": "address"
        }
      ],
      "stateMutability": "view",
      "type": "function"
    },
    {
      "inputs": [],
      "name": "chainId",
      "outputs": [
        {
          "internalType": "uint256",
          "name": "",
          "type": "uint256"
        }
      ],
      "stateMutability": "view",
      "type": "function"
    },
    {
      "inputs": [],
      "name": "crossDomainAdmin",
      "outputs": [
        {
          "internalType": "address",
          "name": "",
          "type": "address"
        }
      ],
      "stateMutability": "view",
      "type": "function"
    },
    {
      "inputs": [
        {
          "internalType": "address",
          "name": "recipient",
          "type": "address"
        },
        {
          "internalType": "address",
          "name": "originToken",
          "type": "address"
        },
        {
          "internalType": "uint256",
          "name": "amount",
          "type": "uint256"
        },
        {
          "internalType": "uint256",
          "name": "destinationChainId",
          "type": "uint256"
        },
        {
          "internalType": "int64",
          "name": "relayerFeePct",
          "type": "int64"
        },
        {
          "internalType": "uint32",
          "name": "quoteTimestamp",
          "type": "uint32"
        },
        {
          "internalType": "bytes",
          "name": "message",
          "type": "bytes"
        },
        {
          "internalType": "uint256",
          "name": "",
          "type": "uint256"
        }
      ],
      "name": "deposit",
      "outputs": [],
      "stateMutability": "payable",
      "type": "function"
    },
    {
      "inputs": [
        {
          "internalType": "address",
          "name": "depositor",
          "type": "address"
        },
        {
          "internalType": "address",
          "name": "recipient",
          "type": "address"
        },
        {
          "internalType": "address",
          "name": "inputToken",
          "type": "address"
        },
        {
          "internalType": "address",
          "name": "outputToken",
          "type": "address"
        },
        {
          "internalType": "uint256",
          "name": "inputAmount",
          "type": "uint256"
        },
        {
          "internalType": "uint256",
          "name": "outputAmount",
          "type": "uint256"
        },
        {
          "internalType": "uint256",
          "name": "destinationChainId",
          "type": "uint256"
        },
        {
          "internalType": "address",
          "name": "exclusiveRelayer",
          "type": "address"
        },
        {
          "internalType": "uint32",
          "name": "quoteTimestamp",
          "type": "uint32"
        },
        {
          "internalType": "uint32",
          "name": "fillDeadline",
          "type": "uint32"
        },
        {
          "internalType": "uint32",
          "name": "exclusivityPeriod",
          "type": "uint32"
        },
        {
          "internalType": "bytes",
          "name": "message",
          "type": "bytes"
        }
      ],
      "name": "depositExclusive",
      "outputs": [],
      "stateMutability": "payable",
      "type": "function"
    },
    {
      "inputs": [
        {
          "internalType": "address",
          "name": "depositor",
          "type": "address"
        },
        {
          "internalType": "address",
          "name": "recipient",
          "type": "address"
        },
        {
          "internalType": "address",
          "name": "originToken",
          "type": "address"
        },
        {
          "internalType": "uint256",
          "name": "amount",
          "type": "uint256"
        },
        {
          "internalType": "uint256",
          "name": "destinationChainId",
          "type": "uint256"
        },
        {
          "internalType": "int64",
          "name": "relayerFeePct",
          "type": "int64"
        },
        {
          "internalType": "uint32",
          "name": "quoteTimestamp",
          "type": "uint32"
        },
        {
          "internalType": "bytes",
          "name": "message",
          "type": "bytes"
        },
        {
          "internalType": "uint256",
          "name": "",
          "type": "uint256"
        }
      ],
      "name": "depositFor",
      "outputs": [],
      "stateMutability": "payable",
      "type": "function"
    },
    {
      "inputs": [],
      "name": "depositQuoteTimeBuffer",
      "outputs": [
        {
          "internalType": "uint32",
          "name": "",
          "type": "uint32"
        }
      ],
      "stateMutability": "view",
      "type": "function"
    },
    {
      "inputs": [
        {
          "internalType": "address",
          "name": "depositor",
          "type": "address"
        },
        {
          "internalType": "address",
          "name": "recipient",
          "type": "address"
        },
        {
          "internalType": "address",
          "name": "inputToken",
          "type": "address"
        },
        {
          "internalType": "address",
          "name": "outputToken",
          "type": "address"
        },
        {
          "internalType": "uint256",
          "name": "inputAmount",
          "type": "uint256"
        },
        {
          "internalType": "uint256",
          "name": "outputAmount",
          "type": "uint256"
        },
        {
          "internalType": "uint256",
          "name": "destinationChainId",
          "type": "uint256"
        },
        {
          "internalType": "address",
          "name": "exclusiveRelayer",
          "type": "address"
        },
        {
          "internalType": "uint32",
          "name": "quoteTimestamp",
          "type": "uint32"
        },
        {
          "internalType": "uint32",
          "name": "fillDeadline",
          "type": "uint32"
        },
        {
          "internalType": "uint32",
          "name": "exclusivityPeriod",
          "type": "uint32"
        },
        {
          "internalType": "bytes",
          "name": "message",
          "type": "bytes"
        }
      ],
      "name": "depositV3",
      "outputs": [],
      "stateMutability": "payable",
      "type": "function"
    },
    {
      "inputs": [
        {
          "internalType": "address",
          "name": "depositor",
          "type": "address"
        },
        {
          "internalType": "address",
          "name": "recipient",
          "type": "address"
        },
        {
          "internalType": "address",
          "name": "inputToken",
          "type": "address"
        },
        {
          "internalType": "address",
          "name": "outputToken",
          "type": "address"
        },
        {
          "internalType": "uint256",
          "name": "inputAmount",
          "type": "uint256"
        },
        {
          "internalType": "uint256",
          "name": "outputAmount",
          "type": "uint256"
        },
        {
          "internalType": "uint256",
          "name": "destinationChainId",
          "type": "uint256"
        },
        {
          "internalType": "address",
          "name": "exclusiveRelayer",
          "type": "address"
        },
        {
          "internalType": "uint32",
          "name": "fillDeadlineOffset",
          "type": "uint32"
        },
        {
          "internalType": "uint32",
          "name": "exclusivityPeriod",
          "type": "uint32"
        },
        {
          "internalType": "bytes",
          "name": "message",
          "type": "bytes"
        }
      ],
      "name": "depositV3Now",
      "outputs": [],
      "stateMutability": "payable",
      "type": "function"
    },
    {
      "inputs": [
        {
          "internalType": "uint256",
          "name": "rootBundleId",
          "type": "uint256"
        }
      ],
      "name": "emergencyDeleteRootBundle",
      "outputs": [],
      "stateMutability": "nonpayable",
      "type": "function"
    },
    {
      "inputs": [
        {
          "internalType": "address",
          "name": "",
          "type": "address"
        },
        {
          "internalType": "uint256",
          "name": "",
          "type": "uint256"
        }
      ],
      "name": "enabledDepositRoutes",
      "outputs": [
        {
          "internalType": "bool",
          "name": "",
          "type": "bool"
        }
      ],
      "stateMutability": "view",
      "type": "function"
    },
    {
      "inputs": [
        {
          "internalType": "uint32",
          "name": "rootBundleId",
          "type": "uint32"
        },
        {
          "components": [
            {
              "internalType": "uint256",
              "name": "amountToReturn",
              "type": "uint256"
            },
            {
              "internalType": "uint256",
              "name": "chainId",
              "type": "uint256"
            },
            {
              "internalType": "uint256[]",
              "name": "refundAmounts",
              "type": "uint256[]"
            },
            {
              "internalType": "uint32",
              "name": "leafId",
              "type": "uint32"
            },
            {
              "internalType": "address",
              "name": "l2TokenAddress",
              "type": "address"
            },
            {
              "internalType": "address[]",
              "name": "refundAddresses",
              "type": "address[]"
            }
          ],
          "internalType": "struct SpokePoolInterface.RelayerRefundLeaf",
          "name": "relayerRefundLeaf",
          "type": "tuple"
        },
        {
          "internalType": "bytes32[]",
          "name": "proof",
          "type": "bytes32[]"
        }
      ],
      "name": "executeRelayerRefundLeaf",
      "outputs": [],
      "stateMutability": "payable",
      "type": "function"
    },
    {
      "inputs": [
        {
          "components": [
            {
              "components": [
                {
                  "internalType": "address",
                  "name": "depositor",
                  "type": "address"
                },
                {
                  "internalType": "address",
                  "name": "recipient",
                  "type": "address"
                },
                {
                  "internalType": "address",
                  "name": "exclusiveRelayer",
                  "type": "address"
                },
                {
                  "internalType": "address",
                  "name": "inputToken",
                  "type": "address"
                },
                {
                  "internalType": "address",
                  "name": "outputToken",
                  "type": "address"
                },
                {
                  "internalType": "uint256",
                  "name": "inputAmount",
                  "type": "uint256"
                },
                {
                  "internalType": "uint256",
                  "name": "outputAmount",
                  "type": "uint256"
                },
                {
                  "internalType": "uint256",
                  "name": "originChainId",
                  "type": "uint256"
                },
                {
                  "internalType": "uint32",
                  "name": "depositId",
                  "type": "uint32"
                },
                {
                  "internalType": "uint32",
                  "name": "fillDeadline",
                  "type": "uint32"
                },
                {
                  "internalType": "uint32",
                  "name": "exclusivityDeadline",
                  "type": "uint32"
                },
                {
                  "internalType": "bytes",
                  "name": "message",
                  "type": "bytes"
                }
              ],
              "internalType": "struct V3SpokePoolInterface.V3RelayData",
              "name": "relayData",
              "type": "tuple"
            },
            {
              "internalType": "uint256",
              "name": "chainId",
              "type": "uint256"
            },
            {
              "internalType": "uint256",
              "name": "updatedOutputAmount",
              "type": "uint256"
            }
          ],
          "internalType": "struct V3SpokePoolInterface.V3SlowFill",
          "name": "slowFillLeaf",
          "type": "tuple"
        },
        {
          "internalType": "uint32",
          "name": "rootBundleId",
          "type": "uint32"
        },
        {
          "internalType": "bytes32[]",
          "name": "proof",
          "type": "bytes32[]"
        }
      ],
      "name": "executeV3SlowRelayLeaf",
      "outputs": [],
      "stateMutability": "nonpayable",
      "type": "function"
    },
    {
      "inputs": [],
      "name": "fillDeadlineBuffer",
      "outputs": [
        {
          "internalType": "uint32",
          "name": "",
          "type": "uint32"
        }
      ],
      "stateMutability": "view",
      "type": "function"
    },
    {
      "inputs": [
        {
          "internalType": "bytes32",
          "name": "",
          "type": "bytes32"
        }
      ],
      "name": "fillStatuses",
      "outputs": [
        {
          "internalType": "uint256",
          "name": "",
          "type": "uint256"
        }
      ],
      "stateMutability": "view",
      "type": "function"
    },
    {
      "inputs": [
        {
          "components": [
            {
              "internalType": "address",
              "name": "depositor",
              "type": "address"
            },
            {
              "internalType": "address",
              "name": "recipient",
              "type": "address"
            },
            {
              "internalType": "address",
              "name": "exclusiveRelayer",
              "type": "address"
            },
            {
              "internalType": "address",
              "name": "inputToken",
              "type": "address"
            },
            {
              "internalType": "address",
              "name": "outputToken",
              "type": "address"
            },
            {
              "internalType": "uint256",
              "name": "inputAmount",
              "type": "uint256"
            },
            {
              "internalType": "uint256",
              "name": "outputAmount",
              "type": "uint256"
            },
            {
              "internalType": "uint256",
              "name": "originChainId",
              "type": "uint256"
            },
            {
              "internalType": "uint32",
              "name": "depositId",
              "type": "uint32"
            },
            {
              "internalType": "uint32",
              "name": "fillDeadline",
              "type": "uint32"
            },
            {
              "internalType": "uint32",
              "name": "exclusivityDeadline",
              "type": "uint32"
            },
            {
              "internalType": "bytes",
              "name": "message",
              "type": "bytes"
            }
          ],
          "internalType": "struct V3SpokePoolInterface.V3RelayData",
          "name": "relayData",
          "type": "tuple"
        },
        {
          "internalType": "uint256",
          "name": "repaymentChainId",
          "type": "uint256"
        }
      ],
      "name": "fillV3Relay",
      "outputs": [],
      "stateMutability": "nonpayable",
      "type": "function"
    },
    {
      "inputs": [
        {
          "components": [
            {
              "internalType": "address",
              "name": "depositor",
              "type": "address"
            },
            {
              "internalType": "address",
              "name": "recipient",
              "type": "address"
            },
            {
              "internalType": "address",
              "name": "exclusiveRelayer",
              "type": "address"
            },
            {
              "internalType": "address",
              "name": "inputToken",
              "type": "address"
            },
            {
              "internalType": "address",
              "name": "outputToken",
              "type": "address"
            },
            {
              "internalType": "uint256",
              "name": "inputAmount",
              "type": "uint256"
            },
            {
              "internalType": "uint256",
              "name": "outputAmount",
              "type": "uint256"
            },
            {
              "internalType": "uint256",
              "name": "originChainId",
              "type": "uint256"
            },
            {
              "internalType": "uint32",
              "name": "depositId",
              "type": "uint32"
            },
            {
              "internalType": "uint32",
              "name": "fillDeadline",
              "type": "uint32"
            },
            {
              "internalType": "uint32",
              "name": "exclusivityDeadline",
              "type": "uint32"
            },
            {
              "internalType": "bytes",
              "name": "message",
              "type": "bytes"
            }
          ],
          "internalType": "struct V3SpokePoolInterface.V3RelayData",
          "name": "relayData",
          "type": "tuple"
        },
        {
          "internalType": "uint256",
          "name": "repaymentChainId",
          "type": "uint256"
        },
        {
          "internalType": "uint256",
          "name": "updatedOutputAmount",
          "type": "uint256"
        },
        {
          "internalType": "address",
          "name": "updatedRecipient",
          "type": "address"
        },
        {
          "internalType": "bytes",
          "name": "updatedMessage",
          "type": "bytes"
        },
        {
          "internalType": "bytes",
          "name": "depositorSignature",
          "type": "bytes"
        }
      ],
      "name": "fillV3RelayWithUpdatedDeposit",
      "outputs": [],
      "stateMutability": "nonpayable",
      "type": "function"
    },
    {
      "inputs": [],
      "name": "getCurrentTime",
      "outputs": [
        {
          "internalType": "uint256",
          "name": "",
          "type": "uint256"
        }
      ],
      "stateMutability": "view",
      "type": "function"
    },
    {
      "inputs": [],
      "name": "hubPool",
      "outputs": [
        {
          "internalType": "address",
          "name": "",
          "type": "address"
        }
      ],
      "stateMutability": "view",
      "type": "function"
    },
    {
      "inputs": [
        {
          "internalType": "uint32",
          "name": "_initialDepositId",
          "type": "uint32"
        },
        {
          "internalType": "address",
          "name": "_crossDomainAdmin",
          "type": "address"
        },
        {
          "internalType": "address",
          "name": "_hubPool",
          "type": "address"
        }
      ],
      "name": "initialize",
      "outputs": [],
      "stateMutability": "nonpayable",
      "type": "function"
    },
    {
      "inputs": [],
      "name": "l1Gas",
      "outputs": [
        {
          "internalType": "uint32",
          "name": "",
          "type": "uint32"
        }
      ],
      "stateMutability": "view",
      "type": "function"
    },
    {
      "inputs": [],
      "name": "l2Eth",
      "outputs": [
        {
          "internalType": "address",
          "name": "",
          "type": "address"
        }
      ],
      "stateMutability": "view",
      "type": "function"
    },
    {
      "inputs": [
        {
          "internalType": "bytes[]",
          "name": "data",
          "type": "bytes[]"
        }
      ],
      "name": "multicall",
      "outputs": [
        {
          "internalType": "bytes[]",
          "name": "results",
          "type": "bytes[]"
        }
      ],
      "stateMutability": "nonpayable",
      "type": "function"
    },
    {
      "inputs": [],
      "name": "numberOfDeposits",
      "outputs": [
        {
          "internalType": "uint32",
          "name": "",
          "type": "uint32"
        }
      ],
      "stateMutability": "view",
      "type": "function"
    },
    {
      "inputs": [
        {
          "internalType": "bool",
          "name": "pause",
          "type": "bool"
        }
      ],
      "name": "pauseDeposits",
      "outputs": [],
      "stateMutability": "nonpayable",
      "type": "function"
    },
    {
      "inputs": [
        {
          "internalType": "bool",
          "name": "pause",
          "type": "bool"
        }
      ],
      "name": "pauseFills",
      "outputs": [],
      "stateMutability": "nonpayable",
      "type": "function"
    },
    {
      "inputs": [],
      "name": "pausedDeposits",
      "outputs": [
        {
          "internalType": "bool",
          "name": "",
          "type": "bool"
        }
      ],
      "stateMutability": "view",
      "type": "function"
    },
    {
      "inputs": [],
      "name": "pausedFills",
      "outputs": [
        {
          "internalType": "bool",
          "name": "",
          "type": "bool"
        }
      ],
      "stateMutability": "view",
      "type": "function"
    },
    {
      "inputs": [],
      "name": "proxiableUUID",
      "outputs": [
        {
          "internalType": "bytes32",
          "name": "",
          "type": "bytes32"
        }
      ],
      "stateMutability": "view",
      "type": "function"
    },
    {
      "inputs": [],
      "name": "recipientCircleDomainId",
      "outputs": [
        {
          "internalType": "uint32",
          "name": "",
          "type": "uint32"
        }
      ],
      "stateMutability": "view",
      "type": "function"
    },
    {
      "inputs": [
        {
          "internalType": "bytes32",
          "name": "relayerRefundRoot",
          "type": "bytes32"
        },
        {
          "internalType": "bytes32",
          "name": "slowRelayRoot",
          "type": "bytes32"
        }
      ],
      "name": "relayRootBundle",
      "outputs": [],
      "stateMutability": "nonpayable",
      "type": "function"
    },
    {
      "inputs": [
        {
          "internalType": "address",
          "name": "",
          "type": "address"
        }
      ],
      "name": "remoteL1Tokens",
      "outputs": [
        {
          "internalType": "address",
          "name": "",
          "type": "address"
        }
      ],
      "stateMutability": "view",
      "type": "function"
    },
    {
      "inputs": [
        {
          "components": [
            {
              "internalType": "address",
              "name": "depositor",
              "type": "address"
            },
            {
              "internalType": "address",
              "name": "recipient",
              "type": "address"
            },
            {
              "internalType": "address",
              "name": "exclusiveRelayer",
              "type": "address"
            },
            {
              "internalType": "address",
              "name": "inputToken",
              "type": "address"
            },
            {
              "internalType": "address",
              "name": "outputToken",
              "type": "address"
            },
            {
              "internalType": "uint256",
              "name": "inputAmount",
              "type": "uint256"
            },
            {
              "internalType": "uint256",
              "name": "outputAmount",
              "type": "uint256"
            },
            {
              "internalType": "uint256",
              "name": "originChainId",
              "type": "uint256"
            },
            {
              "internalType": "uint32",
              "name": "depositId",
              "type": "uint32"
            },
            {
              "internalType": "uint32",
              "name": "fillDeadline",
              "type": "uint32"
            },
            {
              "internalType": "uint32",
              "name": "exclusivityDeadline",
              "type": "uint32"
            },
            {
              "internalType": "bytes",
              "name": "message",
              "type": "bytes"
            }
          ],
          "internalType": "struct V3SpokePoolInterface.V3RelayData",
          "name": "relayData",
          "type": "tuple"
        }
      ],
      "name": "requestV3SlowFill",
      "outputs": [],
      "stateMutability": "nonpayable",
      "type": "function"
    },
    {
      "inputs": [
        {
          "internalType": "uint256",
          "name": "",
          "type": "uint256"
        }
      ],
      "name": "rootBundles",
      "outputs": [
        {
          "internalType": "bytes32",
          "name": "slowRelayRoot",
          "type": "bytes32"
        },
        {
          "internalType": "bytes32",
          "name": "relayerRefundRoot",
          "type": "bytes32"
        }
      ],
      "stateMutability": "view",
      "type": "function"
    },
    {
      "inputs": [
        {
          "internalType": "address",
          "name": "newCrossDomainAdmin",
          "type": "address"
        }
      ],
      "name": "setCrossDomainAdmin",
      "outputs": [],
      "stateMutability": "nonpayable",
      "type": "function"
    },
    {
      "inputs": [
        {
          "internalType": "address",
          "name": "originToken",
          "type": "address"
        },
        {
          "internalType": "uint256",
          "name": "destinationChainId",
          "type": "uint256"
        },
        {
          "internalType": "bool",
          "name": "enabled",
          "type": "bool"
        }
      ],
      "name": "setEnableRoute",
      "outputs": [],
      "stateMutability": "nonpayable",
      "type": "function"
    },
    {
      "inputs": [
        {
          "internalType": "address",
          "name": "newHubPool",
          "type": "address"
        }
      ],
      "name": "setHubPool",
      "outputs": [],
      "stateMutability": "nonpayable",
      "type": "function"
    },
    {
      "inputs": [
        {
          "internalType": "uint32",
          "name": "newl1Gas",
          "type": "uint32"
        }
      ],
      "name": "setL1GasLimit",
      "outputs": [],
      "stateMutability": "nonpayable",
      "type": "function"
    },
    {
      "inputs": [
        {
          "internalType": "address",
          "name": "l2Token",
          "type": "address"
        },
        {
          "internalType": "address",
          "name": "l1Token",
          "type": "address"
        }
      ],
      "name": "setRemoteL1Token",
      "outputs": [],
      "stateMutability": "nonpayable",
      "type": "function"
    },
    {
      "inputs": [
        {
          "internalType": "address",
          "name": "l2Token",
          "type": "address"
        },
        {
          "internalType": "address",
          "name": "tokenBridge",
          "type": "address"
        }
      ],
      "name": "setTokenBridge",
      "outputs": [],
      "stateMutability": "nonpayable",
      "type": "function"
    },
    {
      "inputs": [
        {
          "internalType": "address",
          "name": "depositor",
          "type": "address"
        },
        {
          "internalType": "uint32",
          "name": "depositId",
          "type": "uint32"
        },
        {
          "internalType": "uint256",
          "name": "updatedOutputAmount",
          "type": "uint256"
        },
        {
          "internalType": "address",
          "name": "updatedRecipient",
          "type": "address"
        },
        {
          "internalType": "bytes",
          "name": "updatedMessage",
          "type": "bytes"
        },
        {
          "internalType": "bytes",
          "name": "depositorSignature",
          "type": "bytes"
        }
      ],
      "name": "speedUpV3Deposit",
      "outputs": [],
      "stateMutability": "nonpayable",
      "type": "function"
    },
    {
      "inputs": [
        {
          "internalType": "address",
          "name": "",
          "type": "address"
        }
      ],
      "name": "tokenBridges",
      "outputs": [
        {
          "internalType": "address",
          "name": "",
          "type": "address"
        }
      ],
      "stateMutability": "view",
      "type": "function"
    },
    {
      "inputs": [
        {
          "internalType": "bytes[]",
          "name": "data",
          "type": "bytes[]"
        }
      ],
      "name": "tryMulticall",
      "outputs": [
        {
          "components": [
            {
              "internalType": "bool",
              "name": "success",
              "type": "bool"
            },
            {
              "internalType": "bytes",
              "name": "returnData",
              "type": "bytes"
            }
          ],
          "internalType": "struct MultiCallerUpgradeable.Result[]",
          "name": "results",
          "type": "tuple[]"
        }
      ],
      "stateMutability": "nonpayable",
      "type": "function"
    },
    {
      "inputs": [
        {
          "internalType": "address",
          "name": "newImplementation",
          "type": "address"
        }
      ],
      "name": "upgradeTo",
      "outputs": [],
      "stateMutability": "nonpayable",
      "type": "function"
    },
    {
      "inputs": [
        {
          "internalType": "address",
          "name": "newImplementation",
          "type": "address"
        },
        {
          "internalType": "bytes",
          "name": "data",
          "type": "bytes"
        }
      ],
      "name": "upgradeToAndCall",
      "outputs": [],
      "stateMutability": "payable",
      "type": "function"
    },
    {
      "inputs": [],
      "name": "usdcToken",
      "outputs": [
        {
          "internalType": "contract IERC20",
          "name": "",
          "type": "address"
        }
      ],
      "stateMutability": "view",
      "type": "function"
    },
    {
      "inputs": [],
      "name": "wrappedNativeToken",
      "outputs": [
        {
          "internalType": "contract WETH9Interface",
          "name": "",
          "type": "address"
        }
      ],
      "stateMutability": "view",
      "type": "function"
    },
    {
      "stateMutability": "payable",
      "type": "receive"
    }
  ],
  "numDeployments": 8,
  "solcInputHash": "8b3e84b1dba2b408880f2f981238e34d",
  "bytecode": "0x61016034620001e957601f6200509f38819003918201601f19168301916001600160401b03831184841017620001ed5780849260a094604052833981010312620001e95780516001600160a01b03919082811690819003620001e957620000696020830162000201565b620000776040840162000201565b916060840151938585168503620001e957608001519485168503620001e9573060805260a05260c05260e0525f5460ff8160081c16620001e95760ff80821603620001ae575b50610120908152610140918252610100915f835260405191614e8b9384620002148539608051848181610cbd0152818161133601526114b0015260a05184818161079701528181611a2501528181612c2a015281816132c60152818161342a01528181613b7f01528181613e53015281816142fd015281816146ab01526146d2015260c0518481816115b1015281816119e101528181612be60152613258015260e0518481816103ae01528181611bb30152612d570152518381816117200152614c4a01525182818161073a015281816146690152614b44015251818181611cf9015281816144220152614b700152f35b60ff90811916175f557f7f26b83ff96e1f2b6a682f133852f6798a09c465da95921460cefb3847402498602060405160ff8152a15f620000bd565b5f80fd5b634e487b7160e01b5f52604160045260245ffd5b519063ffffffff82168203620001e95756fe6080604052600436101561001a575b3615610018575f80fd5b005b5f3560e01c8063079bd2c71461037f5780630c5d5f731461037a5780630eaac9f0146103755780631186ec331461037057806311eac8551461036b57806315348e441461030257806317fcb39b146103665780631b3d5559146103615780631dfb2d021461035c578063272751c71461035757806329cb924d146103525780632cfc26c51461034d5780632e378115146103485780633659cfe614610343578063431023b81461033e578063437b911614610339578063493a4f84146103345780634e0fb8f51461032f5780634f1ef2861461032a5780635249fef1146103255780635285e0581461032057806352d1902d1461031b578063541f4f141461031657806357f6dcb8146103115780636068d6cb1461030c578063647c576c146103075780636bbbcd2e146103025780636e400983146102fd578063738b62e5146102f8578063766e0703146102f35780637aef642c146102ee5780637b939232146102bc5780638a7860ce146102e9578063927ede2d146102e45780639748cf7c146102df578063979f2bc2146102da5780639963e5a8146102d557806399cc2968146102d05780639a8a0592146102cb578063a1244c67146102c6578063ac9650d8146102c1578063add051a3146102bc578063b27a4300146102b7578063bbca7db0146102b2578063bf10268d146102ad578063c35c83fc146102a8578063ccfa5971146102a3578063ceb4c9871461029e578063dda5211314610299578063ddd224f114610294578063de7eba781461028f578063e19044021461028a578063e322921114610285578063ee2a53f8146102805763fbbba9ac0361000e57612606565b6125c8565b61254c565b612525565b6124f5565b6124cc565b6124a6565b612488565b612405565b6123da565b612356565b612215565b6121d6565b61195c565b612136565b6120ac565b612092565b611fe4565b611deb565b611d1d565b611cda565b611cac565b611c34565b611817565b6117f3565b611744565b611704565b61075e565b61162d565b6115d5565b611595565b611500565b611496565b61146f565b611421565b6112f3565b6111d9565b611124565b611057565b610dc7565b610c95565b610b1f565b610ad6565b610abc565b610a1d565b6109de565b610906565b610778565b61071b565b610662565b610448565b6103f0565b610392565b5f91031261038e57565b5f80fd5b3461038e575f36600319011261038e57602060405163ffffffff7f0000000000000000000000000000000000000000000000000000000000000000168152f35b6001600160a01b0381160361038e57565b35906103ee826103d2565b565b3461038e57602036600319011261038e57602060043561040f816103d2565b6001600160a01b038091165f52610c5d825260405f205416604051908152f35b63ffffffff81160361038e57565b35906103ee8261042f565b3461038e57602036600319011261038e5763ffffffff60043561046a8161042f565b61047261305e565b61047a613170565b16610c5a8163ffffffff198254161790557fe486a5c4bd7b36eabbfe274c99b39130277417be8d2209b4dae04c4fba64ee3a5f80a26001606555005b634e487b7160e01b5f52604160045260245ffd5b6040810190811067ffffffffffffffff8211176104e657604052565b6104b6565b67ffffffffffffffff81116104e657604052565b6060810190811067ffffffffffffffff8211176104e657604052565b6020810190811067ffffffffffffffff8211176104e657604052565b60e0810190811067ffffffffffffffff8211176104e657604052565b60a0810190811067ffffffffffffffff8211176104e657604052565b90601f8019910116810190811067ffffffffffffffff8211176104e657604052565b6040519060c0820182811067ffffffffffffffff8211176104e657604052565b60405190610180820182811067ffffffffffffffff8211176104e657604052565b604051906080820182811067ffffffffffffffff8211176104e657604052565b67ffffffffffffffff81116104e657601f01601f191660200190565b92919261061a826105f2565b91610628604051938461056f565b82948184528183011161038e578281602093845f960137010152565b9080601f8301121561038e5781602061065f9335910161060e565b90565b61010036600319011261038e5760043561067b816103d2565b602435610687816103d2565b6084358060070b810361038e5760a435906106a18261042f565b60c43567ffffffffffffffff811161038e576106c1903690600401610644565b926106ca613170565b60ff61086b5460e81c166106f1576106ea946064359160443591336131df565b6001606555005b60046040517f5a65d188000000000000000000000000000000000000000000000000000000008152fd5b3461038e575f36600319011261038e5760206040516001600160a01b037f0000000000000000000000000000000000000000000000000000000000000000168152f35b3461038e575f36600319011261038e5760206040515f8152f35b3461038e575f36600319011261038e5760206040516001600160a01b037f0000000000000000000000000000000000000000000000000000000000000000168152f35b67ffffffffffffffff81116104e65760051b60200190565b9080601f8301121561038e5760209082356107ed816107bb565b936107fb604051958661056f565b81855260208086019260051b82010192831161038e57602001905b828210610824575050505090565b81358152908301908301610816565b9080601f8301121561038e57602090823561084d816107bb565b9361085b604051958661056f565b81855260208086019260051b82010192831161038e57602001905b828210610884575050505090565b8380918335610892816103d2565b815201910190610876565b92916108a8826107bb565b916108b6604051938461056f565b829481845260208094019160051b810192831161038e57905b8282106108dc5750505050565b813581529083019083016108cf565b9080601f8301121561038e5781602061065f9335910161089d565b60031960603682011261038e5760043561091f8161042f565b60243567ffffffffffffffff9283821161038e5760c090823603011261038e57610947610591565b908060040135825260248101356020830152604481013584811161038e5761097590600436918401016107d3565b60408301526109866064820161043d565b6060830152610997608482016103e3565b608083015260a48101359084821161038e5760046109b89236920101610833565b60a082015260443592831161038e576109d86100189336906004016108eb565b9161268a565b3461038e57602036600319011261038e576106ea6004356109fe816103d2565b610a0661305e565b610a0e613170565b6136f4565b8015150361038e57565b3461038e57606036600319011261038e57600435610a3a816103d2565b602435907f0a21fdd43d0ad0c62689ee7230a47309a050755bcc52eba00310add65297692a60206001600160a01b0360443593610a7685610a13565b610a7e61305e565b610a86613170565b1692835f5261086d825260405f20855f52825260405f209015159060ff1981541660ff8316179055604051908152a36001606555005b3461038e575f36600319011261038e576020604051428152f35b3461038e575f36600319011261038e5760206040517f152eb71524aef34d838ab76573c14b1ebfa5e385d9ab29d7cf5398daa2438bd98152f35b908161018091031261038e5790565b3461038e57604036600319011261038e5760043567ffffffffffffffff811161038e57610b50903690600401610b10565b610b58613170565b60ff61086b5460e01c16610c845760408101610b738161287d565b6001600160a01b039081163314159182610c65575b82610c50575b5050610c2657610c1c90610c08610bad610ba83684612891565b613832565b9160c0610c01610bbf6020840161287d565b610bcd610160850185612971565b939094610bd8610591565b97610be33683612891565b89526020890152013560408701526001600160a01b03166060860152565b369161060e565b608082015260243560a08201523390613985565b6100186001606555565b60046040517fc3a9b9d0000000000000000000000000000000000000000000000000000000008152fd5b610c5b91925061287d565b1615155f80610b8e565b9150610c746101408401612887565b63ffffffff429116101591610b88565b6004604051633d90fc5560e11b8152fd5b3461038e57602036600319011261038e57600435610cb2816103d2565b6001600160a01b03807f00000000000000000000000000000000000000000000000000000000000000001680301461038e577f360894a13ba1a3210667c828492db98dca3e2076cc3735a920a3ca505d382bbc90828254160361038e57610d1761305e565b60405191610d248361051b565b5f83527f4910fdfa16fed3260ed0e7147f7cc6da11a60208b5b9406d12a635614ffd91435460ff1615610d5d575050506100189061486a565b6020600491604051928380926352d1902d60e01b825288165afa5f9181610d96575b50610d88575f80fd5b0361038e5761001891614751565b610db991925060203d602011610dc0575b610db1818361056f565b810190613f4f565b905f610d7f565b503d610da7565b3461038e57608036600319011261038e57600435610de48161042f565b60243590610df1826103d2565b604435610dfd816103d2565b60643591610e0a836103d2565b60ff5f5460081c161561038e57610e5190610c5a624c4b4063ffffffff1982541617905561086b9063ffffffff60c01b1963ffffffff60c01b83549260c01b169116179055565b60405190610e5e826104ca565b6009825260208201916820a1a927a9a996ab1960b91b8352640312e302e360dc1b6020604051610e8d816104ca565b60058152015260ff5f5460081c161561038e5761001894610eed93610a0e9251902061047f557f06c015bd22b4c69690933c1058878ebdfef31f9aaae40bbe86d8a09fe1b2972c61048055610ee06140c1565b610ee86140d0565b6140e4565b610c5a907fffffffffffffffff0000000000000000000000000000000000000000ffffffff77ffffffffffffffffffffffffffffffffffffffff0000000083549260201b169116179055565b9181601f8401121561038e5782359167ffffffffffffffff831161038e576020808501948460051b01011161038e57565b602060031982011261038e576004359067ffffffffffffffff821161038e57610f9591600401610f39565b9091565b5f5b838110610faa5750505f910152565b8181015183820152602001610f9b565b90602091610fd381518092818552858086019101610f99565b601f01601f1916010190565b6020808201908083528351809252604092604081018260408560051b8401019601945f925b858410611015575050505050505090565b909192939495968580611046600193603f1986820301885286838d5180511515845201519181858201520190610fba565b990194019401929594939190611004565b3461038e5761106536610f6a565b61106e816107bb565b91604061107e604051948561056f565b828452601f1961108d846107bb565b015f5b8181106111015750505f5b8381106110b457604051806110b08782610fdf565b0390f35b806110fb6110c4600193886129a4565b515f806110d2858a8a6129b8565b906110e18951809381936129cf565b0390305af4906110ef6129dc565b60208201529015159052565b0161109b565b602090835161110f816104ca565b5f815282606081830152828901015201611090565b3461038e57604036600319011261038e5760243560043561114361305e565b61114b613170565b61086c8054680100000000000000008110156104e65763ffffffff916001820190558361117782612589565b5084600182015555167fc86ba04c55bc5eb2f2876b91c438849a296dbec7b08751c3074d92e04f0a77af5f80a46001606555005b9181601f8401121561038e5782359167ffffffffffffffff831161038e576020838186019501011161038e57565b3461038e5760c036600319011261038e576004356111f6816103d2565b602435906112038261042f565b604435606435611212816103d2565b67ffffffffffffffff9160843583811161038e576112349036906004016111ab565b93909460a43591821161038e576112d763ffffffff7fb0a29aed3d389a1041194255878b423f7780be3ed2324d4693508c6ff189845e9661127c6112e99536906004016111ab565b939099611287613170565b6112ae8c8c8b8b6112a561129c368a8961060e565b938b369161060e565b9346908c613f5e565b6001600160a01b0392836040519a8b9a8b521660208a0152608060408a01526080890191612a0b565b93868503606088015216981696612a0b565b0390a36001606555005b604036600319011261038e5760043561130b816103d2565b60243567ffffffffffffffff811161038e5761132b903690600401610644565b6001600160a01b03807f0000000000000000000000000000000000000000000000000000000000000000169081301461038e577f360894a13ba1a3210667c828492db98dca3e2076cc3735a920a3ca505d382bbc91818354160361038e5761139161305e565b7f4910fdfa16fed3260ed0e7147f7cc6da11a60208b5b9406d12a635614ffd91435460ff16156113c7575050506100189061486a565b6020600491604051928380926352d1902d60e01b825288165afa5f9181611400575b506113f2575f80fd5b0361038e5761001891614819565b61141a91925060203d602011610dc057610db1818361056f565b905f6113e9565b3461038e57604036600319011261038e576001600160a01b03600435611446816103d2565b165f5261086d60205260405f206024355f52602052602060ff60405f2054166040519015158152f35b3461038e575f36600319011261038e5760206001600160a01b036108695416604051908152f35b3461038e575f36600319011261038e576001600160a01b037f000000000000000000000000000000000000000000000000000000000000000016300361038e5760206040517f360894a13ba1a3210667c828492db98dca3e2076cc3735a920a3ca505d382bbc8152f35b61012036600319011261038e57600435611519816103d2565b60243590611526826103d2565b60443591611533836103d2565b60a4358060070b810361038e5760c4359161154d8361042f565b60e43567ffffffffffffffff811161038e5761156d903690600401610644565b93611576613170565b60ff61086b5460e81c166106f1576106ea9560843592606435926131df565b3461038e575f36600319011261038e57602060405163ffffffff7f0000000000000000000000000000000000000000000000000000000000000000168152f35b3461038e575f36600319011261038e57602060ff61086b5460e81c166040519015158152f35b606090600319011261038e576004356116138161042f565b90602435611620816103d2565b9060443561065f816103d2565b3461038e5761163b366115fb565b5f54600881901c60ff16159392908490816116f6575b81156116d6575b501561038e5761167c9284611673600160ff195f5416175f55565b6116bf57612a2b565b61168257005b61169061ff00195f54165f55565b604051600181527f7f26b83ff96e1f2b6a682f133852f6798a09c465da95921460cefb384740249890602090a1005b6116d161010061ff00195f5416175f55565b612a2b565b303b159150816116e8575b505f611658565b6001915060ff16145f6116e1565b600160ff8216109150611651565b3461038e575f36600319011261038e57602060405163ffffffff7f0000000000000000000000000000000000000000000000000000000000000000168152f35b3461038e57602036600319011261038e577fe88463c2f254e2b070013a2dc7ee1e099f9bc00534cbdf03af551dc26ae49219602060043561178481610a13565b61178c61305e565b611794613170565b151561086b80547fffff00ffffffffffffffffffffffffffffffffffffffffffffffffffffffffff7dff00000000000000000000000000000000000000000000000000000000008460e81b169116179055604051908152a16001606555005b3461038e575f36600319011261038e57602063ffffffff610c5a5416604051908152f35b61016036600319011261038e57600435611830816103d2565b6024359061183d826103d2565b604435611849816103d2565b60643590611856826103d2565b60e435611862816103d2565b61010435906118708261042f565b610124359261187e8461042f565b610144359667ffffffffffffffff881161038e576118a36100189836906004016111ab565b97909660c4359360a4359360843593612b78565b9061018060031983011261038e576004356118d1816103d2565b916024356118de816103d2565b916044356118eb816103d2565b916064356118f8816103d2565b916084359160a4359160c4359160e435611911816103d2565b916101043561191f8161042f565b916101243561192d8161042f565b916101443561193b8161042f565b91610164359067ffffffffffffffff821161038e57610f95916004016111ab565b611965366118b7565b959996989a9290949361197a9c98929c613170565b61086b9960ff8b5460e81c166106f1576119c86119c46119bd8e6119b08d6001600160a01b03165f5261086d60205260405f2090565b905f5260205260405f2090565b5460ff1690565b1590565b611c0a5763ffffffff936119de85841642612d84565b857f00000000000000000000000000000000000000000000000000000000000000001610611be057848416428110908115611bab575b50611b81576001600160a01b039b8c7f0000000000000000000000000000000000000000000000000000000000000000168d8c1681811480611b78575b15611b5e5750823403611b3457803b1561038e575f60049160405192838092630d0e30db60e41b825234905af18015611b2f57611b16575b505b5460c01c63ffffffff169e8f611aa090612da9565b611ac79061086b9063ffffffff60c01b1963ffffffff60c01b83549260c01b169116179055565b611ad390428716612b5b565b946040519c8d9c169f169d611ae89a8c612dbe565b037fa123dc29aebf7d0c3322c8eeb5b999e859f39937950ed31056532713d0de396f91a46100186001606555565b80611b23611b29926104eb565b80610384565b5f611a89565b612d9e565b60046040517f6452a35d000000000000000000000000000000000000000000000000000000008152fd5b905034611b345782611b739130903390614064565b611a8b565b50341515611a51565b60046040517f582e3889000000000000000000000000000000000000000000000000000000008152fd5b9050611bd9867f00000000000000000000000000000000000000000000000000000000000000001642612d91565b105f611a14565b60046040517ff722177f000000000000000000000000000000000000000000000000000000008152fd5b60046040517f2a58c4f3000000000000000000000000000000000000000000000000000000008152fd5b3461038e57602036600319011261038e57600435611c5061305e565b611c58613170565b611c6181612589565b611c99576001815f80935501557f3569b846531b754c99cb80df3f49cd72fa6fe106aaee5ab8e0caf35a9d7ce88d5f80a26001606555005b634e487b7160e01b5f525f60045260245ffd5b3461038e575f36600319011261038e5760206040517342000000000000000000000000000000000000078152f35b3461038e575f36600319011261038e5760206040516001600160a01b037f0000000000000000000000000000000000000000000000000000000000000000168152f35b3461038e57611d2b366115fb565b909160ff5f5460081c161561038e57611d619061086b9063ffffffff60c01b1963ffffffff60c01b83549260c01b169116179055565b604051611d6d816104ca565b6009815260208101926820a1a927a9a996ab1960b91b8452640312e302e360dc1b6020604051611d9c816104ca565b60058152015260ff5f5460081c161561038e5761001893610a0e9251902061047f557f06c015bd22b4c69690933c1058878ebdfef31f9aaae40bbe86d8a09fe1b2972c61048055610ee06140c1565b3461038e57602036600319011261038e576004803567ffffffffffffffff811161038e57611e1c9036908301610b10565b611e24613170565b60ff61086b5460e01c16611fd457610140810191611e4183612887565b9063ffffffff91824291161015611fac5761012083019042611e6e611e6584612887565b63ffffffff1690565b10611f9d57611e80610ba83686612891565b90611e94825f5261087260205260405f2090565b54611f75575090611ed9611ed37f923794976d026d6b119735adc163cb71decfc903e17c3dc226c00789593c04e194935f5261087260205260405f2090565b60019055565b611f68611ee86060860161287d565b95611ef56080870161287d565b95611f15611f0f611f096101008401612887565b95612887565b92612887565b611f216040830161287d565b611f2a8361287d565b90611f376020850161287d565b92611f46610160860186612971565b9690956040519a8b9a169d60e08201359d60a060c0840135930135918c612e49565b0390a36100186001606555565b6040517f012f9e44000000000000000000000000000000000000000000000000000000008152fd5b60405163d642b7d960e01b8152fd5b6040517f09deb9ec000000000000000000000000000000000000000000000000000000008152fd5b50604051633d90fc5560e11b8152fd5b3461038e57602036600319011261038e577f2d5b62420992e5a4afce0e77742636ca2608ef58289fd2e1baa5161ef6e7e41e602060043561202481610a13565b61202c61305e565b612034613170565b151561086b80547fffffff00ffffffffffffffffffffffffffffffffffffffffffffffffffffffff7cff000000000000000000000000000000000000000000000000000000008460e01b169116179055604051908152a16001606555005b3461038e575f36600319011261038e576020604051468152f35b3461038e575f36600319011261038e57602063ffffffff61086b5460c01c16604051908152f35b6020808201906020835283518092526040830192602060408460051b8301019501935f915b8483106121085750505050505090565b9091929394958480612126600193603f198682030187528a51610fba565b98019301930191949392906120f8565b3461038e5761214436610f6a565b9061214e82612eb1565b915f5b81811061216657604051806110b086826120d3565b5f806121738385876129b8565b90612183604051809381936129cf565b0390305af46121906129dc565b90156121b657906001916121a482876129a4565b526121af81866129a4565b5001612151565b604481511061038e5780600461038e920151602480918301019101612efa565b3461038e57602036600319011261038e5760206004356121f5816103d2565b6001600160a01b038091165f52610c5c825260405f205416604051908152f35b3461038e5760031960603682011261038e5760043567ffffffffffffffff80821161038e5760608236039384011261038e57602435906122548261042f565b60443590811161038e5761226c903690600401610f39565b919093612277613170565b600484013590610182190181121561038e57610c1c9461232c936122a46123259360043691890101612891565b956122c16122bc60808901516001600160a01b031690565b613420565b6123136122cd88613832565b9160446122e460208b01516001600160a01b031690565b916101608b0151946122f4610591565b9b8c5260208c0152013560408a01526001600160a01b03166060890152565b60808701525f60a0870152369161089d565b9083614156565b613c94565b604090600319011261038e57600435612349816103d2565b9060243561065f816103d2565b3461038e5761236436612331565b9061236d61305e565b612375613170565b6001600160a01b0380911691825f52610c5d6020526123ad8160405f20906001600160a01b03166001600160a01b0319825416179055565b16907fcb84c2022106a6f2b6f805d446f32fbfd2a528474364fa755f37dac1c0c1b6c85f80a36001606555005b3461038e57602036600319011261038e576004355f52610872602052602060405f2054604051908152f35b3461038e5760c036600319011261038e5767ffffffffffffffff60043581811161038e57612437903690600401610b10565b60643590612444826103d2565b60843583811161038e5761245c9036906004016111ab565b9060a43594851161038e576124786100189536906004016111ab565b9490936044359060243590612f59565b3461038e575f36600319011261038e57602060405163ffffffff8152f35b3461038e575f36600319011261038e57602060ff61086b5460e01c166040519015158152f35b3461038e575f36600319011261038e5760206040516ec097ce7bc90715b34b9f10000000008152f35b3461038e57602036600319011261038e576106ea600435612515816103d2565b61251d61305e565b610ee8613170565b3461038e575f36600319011261038e5760206001600160a01b0361086a5416604051908152f35b3461038e575f36600319011261038e576020610c5a546001600160a01b0360405191831c168152f35b634e487b7160e01b5f52603260045260245ffd5b61086c9081548110156125c3576003915f52027f71cd7344f4eb2efc8e30291f6dbdb44d618ca368ea5425d217c1d604bf26b84d01905f90565b612575565b3461038e57602036600319011261038e5760043561086c5481101561038e576125f2604091612589565b506001815491015482519182526020820152f35b3461038e5761261436612331565b9061261d61305e565b612625613170565b6001600160a01b0380911691825f52610c5c60205261265d8160405f20906001600160a01b03166001600160a01b0319825416179055565b16907ff3dc137d2246f9b8abd0bb821e185ba01122c9b3ea3745ffca6208037674d6705f80a36001606555005b91612693613170565b60808201916126ac6122bc84516001600160a01b031690565b6020810191825146036127ad576119c46126d4918360016126cc89612589565b5001546134cf565b61279c578060607ff8bd640004bcec1b89657020f561d0b070cbdf662d0b158db9dccb0a8301bfab920193612716612710865163ffffffff1690565b8761358f565b61278f84519461277461276685519561275660408201998a5161273d8d5163ffffffff1690565b89516001600160a01b03169160a086019b8c51946135fc565b5192519751985163ffffffff1690565b93516001600160a01b031690565b935163ffffffff9485604051968796169a16983393866127d7565b0390a46103ee6001606555565b600460405163582f497d60e11b8152fd5b60046040517f7a47c9a2000000000000000000000000000000000000000000000000000000008152fd5b95949392919060a0870190875260209060a08289015282518091528160c089019301905f5b818110612869575050506001600160a01b03809316604088015286820360608801528080855193848152019401925f905b8382106128505750505050509060806103ee929401906001600160a01b03169052565b845181168652948201949382019360019091019061282d565b8251855293830193918301916001016127fc565b3561065f816103d2565b3561065f8161042f565b91906101808382031261038e576128a66105b1565b926128b0816103e3565b84526128be602082016103e3565b60208501526128cf604082016103e3565b60408501526128e0606082016103e3565b60608501526128f1608082016103e3565b608085015260a081013560a085015260c081013560c085015260e081013560e085015261010061292281830161043d565b9085015261012061293481830161043d565b9085015261014061294681830161043d565b90850152610160918282013567ffffffffffffffff811161038e5761296b9201610644565b90830152565b903590601e198136030182121561038e570180359067ffffffffffffffff821161038e5760200191813603831361038e57565b80518210156125c35760209160051b010190565b908210156125c357610f959160051b810190612971565b908092918237015f815290565b3d15612a06573d906129ed826105f2565b916129fb604051938461056f565b82523d5f602084013e565b606090565b908060209392818452848401375f828201840152601f01601f1916010190565b91909160ff5f5460081c161561038e57612a7590610c5a624c4b4063ffffffff1982541617905561086b9063ffffffff60c01b1963ffffffff60c01b83549260c01b169116179055565b604051612a81816104ca565b6009815260208101926820a1a927a9a996ab1960b91b8452640312e302e360dc1b6020604051612ab0816104ca565b60058152015260ff5f5460081c161561038e57612aff93610a0e9251902061047f557f06c015bd22b4c69690933c1058878ebdfef31f9aaae40bbe86d8a09fe1b2972c61048055610ee06140c1565b6103ee610c5a77deaddeaddeaddeaddeaddeaddeaddeaddead0000000000007fffffffffffffffff0000000000000000000000000000000000000000ffffffff825416179055565b634e487b7160e01b5f52601160045260245ffd5b91909163ffffffff80809416911601918211612b7357565b612b47565b9692999397909195989a9463ffffffff91612b968342169182612b5b565b91612b9f613170565b61086b9a60ff8c5460e81c166106f157612bd56119c46119bd8f6119b08e6001600160a01b03165f5261086d60205260405f2090565b611c0a57612be38342612d84565b857f00000000000000000000000000000000000000000000000000000000000000001610611be057848416428110908115612d4f575b50611b81576001600160a01b039b8c7f0000000000000000000000000000000000000000000000000000000000000000168d8c1681811480612d46575b15612d2c5750823403611b3457803b1561038e575f60049160405192838092630d0e30db60e41b825234905af18015611b2f57612d19575b505b5460c01c63ffffffff169e8f612ca590612da9565b612ccc9061086b9063ffffffff60c01b1963ffffffff60c01b83549260c01b169116179055565b612cd69084612b5b565b946040519c8d9c169f169d612ceb9a8c612dbe565b037fa123dc29aebf7d0c3322c8eeb5b999e859f39937950ed31056532713d0de396f91a46103ee6001606555565b80611b23612d26926104eb565b5f612c8e565b905034611b345782612d419130903390614064565b612c90565b50341515612c56565b9050612d7d867f00000000000000000000000000000000000000000000000000000000000000001642612d91565b105f612c19565b91908203918211612b7357565b91908201809211612b7357565b6040513d5f823e3d90fd5b63ffffffff809116908114612b735760010190565b6001600160a01b03918216815291811660208301526040820192909252606081019290925263ffffffff928316608083015292821660a0820152921660c083015291821660e08201529116610100820152610140610120820181905261065f93910191612a0b565b634e487b7160e01b5f52602160045260245ffd5b60031115612e4457565b612e26565b969091939792959461065f9b9995610140996001600160a01b0398898098818098168d521660208c015260408b015260608a015263ffffffff80921660808a01521660a08801521660c08601521660e084015216610100820152816101208201520191612a0b565b90612ebb826107bb565b612ec8604051918261056f565b8281528092612ed9601f19916107bb565b01905f5b828110612ee957505050565b806060602080938501015201612edd565b60208183031261038e5780519067ffffffffffffffff821161038e570181601f8201121561038e578051612f2d816105f2565b92612f3b604051948561056f565b8184526020828401011161038e5761065f9160208085019101610f99565b9490969395612f66613170565b60ff61086b5460e01c16610c8457612f816101408701612887565b63ffffffff429116101580613040575b610c2657612f9f3687612891565b612fa890613832565b97612fb1610591565b98612fbc3689612891565b8a5260208a0152604089018490526001600160a01b03851660608a0152612fe436848a61060e565b60808a015260a0890152612ff78661287d565b966130056101008801612887565b9236906130119261060e565b94369061301d9261060e565b9460e001359061302c96613f5e565b3361303691613985565b6103ee6001606555565b5061304d6040870161287d565b6001600160a01b0316331415612f91565b734200000000000000000000000000000000000007803303613146576020600491604051928380927f6e296e450000000000000000000000000000000000000000000000000000000082525afa908115611b2f575f91613117575b506001600160a01b036130e46130d8610869546001600160a01b031690565b6001600160a01b031690565b9116036130ed57565b60046040517f36a816d9000000000000000000000000000000000000000000000000000000008152fd5b613139915060203d60201161313f575b613131818361056f565b8101906141e6565b5f6130b9565b503d613127565b60046040517f4a74df92000000000000000000000000000000000000000000000000000000008152fd5b60026065541461038e576002606555565b929361065f9695919294610140956001600160a01b0380951686525f60208701526040860152606085015263ffffffff809116608085015260a08401525f60c08401521660e08201525f610100820152816101208201520190610fba565b919596939492909261320d6119c46119bd886119b08b6001600160a01b03165f5261086d60205260405f2090565b611c0a5760070b936706f05b59d3b20000613227866141fb565b10156133f6576ec097ce7bc90715b34b9f100000000082116133cc5763ffffffff93613255858a1642612d84565b857f00000000000000000000000000000000000000000000000000000000000000001610611be05761086b5460c01c63ffffffff16986132ba6132978b612da9565b61086b9063ffffffff60c01b1963ffffffff60c01b83549260c01b169116179055565b6001600160a01b0395867f00000000000000000000000000000000000000000000000000000000000000001694878b16868114806133c3575b156133865750803403611b3457853b1561038e575f60049660405197888092630d0e30db60e41b825234905af18015611b2f577fa123dc29aebf7d0c3322c8eeb5b999e859f39937950ed31056532713d0de396f9961336e9761335d92613373575b505b8261420a565b91604051988998169c169a87613181565b0390a4565b80611b23613380926104eb565b5f613355565b61336e96507fa123dc29aebf7d0c3322c8eeb5b999e859f39937950ed31056532713d0de396f996133be8361335d9330903390614064565b613357565b503415156132f3565b60046040517fc45b6b52000000000000000000000000000000000000000000000000000000008152fd5b60046040517fa13c425c000000000000000000000000000000000000000000000000000000008152fd5b6001600160a01b037f0000000000000000000000000000000000000000000000000000000000000000811691168114613457575b50565b4761345f5750565b4790803b1561038e575f90600460405180948193630d0e30db60e41b83525af18015611b2f5715613454576103ee906104eb565b9081518082526020808093019301915f5b8281106134b2575050505090565b83516001600160a01b0316855293810193928101926001016134a4565b6040805160208082018181528551838501528186015160608401529285015160c0608084015280516101008401819052610120840198979692918201915f5b82811061357b57505050508161356461065f979860a08461353e60606135729701518387019063ffffffff169052565b60808101516001600160a01b031660c08601520151838203603f190160e0850152613493565b03601f19810183528261056f565b51902091614240565b83518b52998101999281019260010161350e565b61359a600291612589565b500162ffffff8260081c16805f5281602052600160ff60405f205494161b80809416146135d2575f5260205260405f20908154179055565b60046040517f954476d9000000000000000000000000000000000000000000000000000000008152fd5b92949391909380518251036136ca578151915f5b83811061367c575050505082613627575b50505050565b6001600160a01b038161365b7f828fc203220356df8f072a91681caee7d5c75095e2a95e80ed5a14b384697f7193866142ed565b6040805195865233602087015291169463ffffffff1693a45f808080613621565b80613689600192846129a4565b5180613697575b5001613610565b6136c4906136b56136a884886129a4565b516001600160a01b031690565b6001600160a01b038916614291565b5f613690565b60046040517fcd298b38000000000000000000000000000000000000000000000000000000008152fd5b6001600160a01b0316801561373c5761086a816001600160a01b03198254161790557f1f17a88f67b0f49060a34bec1a4723a563620e6aa265eb640b5046dcee0759a05f80a2565b60046040517f2d234e48000000000000000000000000000000000000000000000000000000008152fd5b80516001600160a01b0316825261065f91610180906020838101516001600160a01b0316908201526040838101516001600160a01b0316908201526060838101516001600160a01b0316908201526080838101516001600160a01b03169082015260a083015160a082015260c083015160c082015260e083015160e08201526137fd610100808501519083019063ffffffff169052565b6101208381015163ffffffff16908201526101408381015163ffffffff16908201528161016080940151938201520190610fba565b6040516138638161384f6020820194604086526060830190613766565b46604083015203601f19810183528261056f565b51902090565b61387282612e3a565b52565b906001600160a01b03825116815260608061389f6020850151608060208601526080850190610fba565b93604081015160408501520151916138b683612e3a565b015290565b9a979096956139399661065f9d9b9660808e613928986139489e986101809d6001600160a01b03998a80921685521660208401526040830152606082015201528c60a063ffffffff8094169101521660c08c01521660e08a01526101008901906001600160a01b03169052565b6001600160a01b0316610120870152565b80610140860152840190610fba565b91610160818403910152613875565b9061065f94936080936001600160a01b03809316845260208401521660408201528160608201520190610fba565b80519161012083019061399c825163ffffffff1690565b63ffffffff42911610613c8357602083015160016139c3825f5261087260205260405f2090565b5403613c7c576001905b60026139e2825f5261087260205260405f2090565b5414613c52576139fb905f5261087260205260405f2090565b6002905560608501516001600160a01b031660808601516001600160a01b03169260a0870151918660c0890151948960a08301519660e082015197610100830151613a499063ffffffff1690565b9a5163ffffffff1661014084015163ffffffff16906040850151613a73906001600160a01b031690565b928551613a86906001600160a01b031690565b946020870151613a9c906001600160a01b031690565b9661016001519760608a0151613ab8906001600160a01b031690565b996080810151906040015190613acc6105d2565b6001600160a01b03909c168c5260208c015260408b0152613af09060608b01613869565b6040519b6001600160a01b038d9c169f63ffffffff169e613b119b8d6138bb565b037f571749edf1d5c9599318cdbc4e28a6475d65e87fd3b2ddbe1e9a8d5e7a0f0ff791a460608101516001600160a01b031691829033821480613c4a575b61362157608001516001600160a01b03169260806040840151936001600160a01b03861685856001600160a01b037f00000000000000000000000000000000000000000000000000000000000000001683145f14613c3a5750613bb59130903390614064565b613bbf8584614690565b015191825115159081613c2f575b50613bd85750505050565b803b1561038e57613c05935f809460405196879586948593633a5be8cb60e01b8552339160048601613957565b03925af18015611b2f57613c1c575b808080613621565b80611b23613c29926104eb565b5f613c14565b90503b15155f613bcd565b613c45923390614064565b613bbf565b506001613b4f565b60046040517f8f260c60000000000000000000000000000000000000000000000000000000008152fd5b5f906139cd565b600460405163d642b7d960e01b8152fd5b905f82516101208101613cab815163ffffffff1690565b63ffffffff42911610613c835760208501516002613cd2825f5261087260205260405f2090565b5414613c5257613ceb905f5261087260205260405f2090565b6002905560608201516001600160a01b031660808301516001600160a01b03169060a08401519260c0850151918860a0810151938760e081015195610100820151613d399063ffffffff1690565b955163ffffffff1661014083015163ffffffff1660408401516001600160a01b0316918451613d6e906001600160a01b031690565b936020860151613d84906001600160a01b031690565b956101600151966060890151613da0906001600160a01b031690565b986080810151906040015190613db46105d2565b6001600160a01b03909b168b5260208b015260408a0152600260608a01526040519d63ffffffff8f9c169d613de99b8d6138bb565b037f571749edf1d5c9599318cdbc4e28a6475d65e87fd3b2ddbe1e9a8d5e7a0f0ff7905f94a460608401516001600160a01b0316906001600160a01b03948583169182331480613f48575b613f3f57608001516001600160a01b03169060408101519687818416917f00000000000000000000000000000000000000000000000000000000000000001682145f14613f2857906080929187613f14575b613e91915085614690565b015192835115159081613f09575b50613ead575b505050509050565b813b15613f055783613ed9959660405196879586948593633a5be8cb60e01b8552339160048601613957565b03925af18015611b2f57613ef2575b8080808493613ea5565b80611b23613eff926104eb565b5f613ee8565b8380fd5b90503b15155f613e9f565b613f219130903390614064565b5f88613e86565b608092919650613f3a90865f98614291565b613e91565b50505050509050565b505f613e34565b9081602091031261038e575190565b93926042936001600160a01b036103ee989760208151910120916040519363ffffffff60208601967f152eb71524aef34d838ab76573c14b1ebfa5e385d9ab29d7cf5398daa2438bd9885216604086015286606086015260808501521660a083015260c082015260c08152613fd281610537565b5190209061047f549061048054906040519160208301937fc2f8787176b8ac6bf7215b4adcc1e069bf4ab82d9ab1df05a57a91d425935b6e85526040840152606083015260808201526080815261402881610553565b51902090604051917f190100000000000000000000000000000000000000000000000000000000000083526002830152602282015220906148ad565b90926103ee93604051937f23b872dd0000000000000000000000000000000000000000000000000000000060208601526001600160a01b0380921660248601521660448401526064830152606482526140bc82610553565b6149bc565b60ff5f5460081c161561038e57565b60ff5f5460081c161561038e576001606555565b6001600160a01b0316801561412c57610869816001600160a01b03198254161790557fa9e8c42c9e7fca7f62755189a16b2f5314d43d8fb24e91ba54e6d65f9314e8495f80a2565b60046040517fba97b39d000000000000000000000000000000000000000000000000000000008152fd5b916119c4906141cf92845160408096015191865191614174836104ff565b825261357261418f6020840192468452898501958652612589565b50549388519283916141b46020840196602088525160608d86015260a0850190613766565b9151606084015251608083015203601f19810183528261056f565b6141d65750565b6004905163582f497d60e11b8152fd5b9081602091031261038e575161065f816103d2565b5f81126142055790565b5f0390565b90670de0b6b3a7640000915f828403921283831281169084841390151617612b7357818102918183041490151715612b73570490565b929091905f915b84518310156142895761425a83866129a4565b519081811015614278575f52602052600160405f205b920191614247565b905f52602052600160405f20614270565b915092501490565b6040517fa9059cbb0000000000000000000000000000000000000000000000000000000060208201526001600160a01b03909216602483015260448201929092526103ee916140bc82606481015b03601f19810184528361056f565b906001600160a01b0390818116907f00000000000000000000000000000000000000000000000000000000000000008316820361441e5750803b1561038e575f6040518092632e1a7d4d60e01b825281838161435189600483019190602083019252565b03925af18015611b2f5761440b575b50610c5a549161437961086a546001600160a01b031690565b73420000000000000000000000000000000000001090813b1561038e57604051631474f2a960e31b8152602086901c949094166001600160a01b0390811660048601521660248401526044830182905263ffffffff909316606483015260a060848301525f60a483018190529192839160c4918391905af18015611b2f576143fe5750565b80611b236103ee926104eb565b80611b23614418926104eb565b5f614360565b91807f000000000000000000000000000000000000000000000000000000000000000016151580614665575b1561446e575050506103ee9061446961086a546001600160a01b031690565b614b42565b8061449b61448e856001600160a01b03165f52610c5c60205260405f2090565b546001600160a01b031690565b16614641577342000000000000000000000000000000000000105b16906144da6130d861448e856001600160a01b03165f52610c5d60205260405f2090565b156145bb5783826144ea92614a4c565b61450961448e836001600160a01b03165f52610c5d60205260405f2090565b9061451d61086a546001600160a01b031690565b9161452e610c5a5463ffffffff1690565b823b1561038e576040517f4823f1140000000000000000000000000000000000000000000000000000000081526001600160a01b0395861660048201529185166024830152929093166044840152606483019390935263ffffffff16608482015260c060a48201525f60c482018190529091829081838160e481015b03925af18015611b2f576143fe5750565b50916145d061086a546001600160a01b031690565b926145e1610c5a5463ffffffff1690565b93813b1561038e575f80946145aa60405197889687958694631474f2a960e31b8652600486019260c0949163ffffffff936001600160a01b038092168652166020850152604084015216606082015260a060808201525f60a08201520190565b61466061448e846001600160a01b03165f52610c5c60205260405f2090565b6144b6565b50807f000000000000000000000000000000000000000000000000000000000000000016821461444a565b6001600160a01b0390811690813b156146d057906103ee92917f000000000000000000000000000000000000000000000000000000000000000016614291565b7f000000000000000000000000000000000000000000000000000000000000000016803b1561038e575f8091602460405180948193632e1a7d4d60e01b83528860048401525af18015611b2f57614742575b5081471061038e575f80809381935af161473a6129dc565b501561038e57565b61474b906104eb565b5f614722565b61475a8161486a565b6001600160a01b0381167fbc7cd75a20ee27fd9adebab32041f755214dbc6bffa90cc0225b39da2e5c2d3b5f80a2815115801590614812575b61479b575050565b5f80613454937f206661696c656400000000000000000000000000000000000000000000000000604080516147cf816104ff565b602781527f416464726573733a206c6f772d6c6576656c2064656c65676174652063616c6c60208201520152602081519101845af461480c6129dc565b91614db1565b505f614793565b6148228161486a565b6001600160a01b0381167fbc7cd75a20ee27fd9adebab32041f755214dbc6bffa90cc0225b39da2e5c2d3b5f80a28151158015906148625761479b575050565b506001614793565b803b1561038e576001600160a01b037f360894a13ba1a3210667c828492db98dca3e2076cc3735a920a3ca505d382bbc91166001600160a01b0319825416179055565b6148b78383614d80565b6005819592951015612e44571593846149a6575b508315614907575b505050156148dd57565b60046040517f938a1821000000000000000000000000000000000000000000000000000000008152fd5b5f9293509082916040516149588161356460208201947f1626ba7e00000000000000000000000000000000000000000000000000000000998a87526024840152604060448401526064830190610fba565b51915afa906149656129dc565b82614998575b8261497b575b50505f80806148d3565b61499091925060208082518301019101613f4f565b145f80614971565b91506020825110159161496b565b6001600160a01b0383811691161493505f6148cb565b905f806001600160a01b03614a139416927f5361666545524332303a206c6f772d6c6576656c2063616c6c206661696c656460206040516149fc816104ca565b818152015260208151910182855af161480c6129dc565b8051908115918215614a29575b50501561038e57565b819250906020918101031261038e5760200151614a4581610a13565b5f80614a20565b6044919260206001600160a01b03604051948580927fdd62ed3e000000000000000000000000000000000000000000000000000000008252306004830152808916602483015286165afa928315611b2f575f93614b01575b508201809211612b73576040517f095ea7b30000000000000000000000000000000000000000000000000000000060208201526001600160a01b03909316602484015260448301919091526103ee91906140bc82606481016142df565b614b1b91935060203d602011610dc057610db1818361056f565b915f614aa4565b9081602091031261038e575167ffffffffffffffff8116810361038e5790565b7f0000000000000000000000000000000000000000000000000000000000000000906001600160a01b0392837f00000000000000000000000000000000000000000000000000000000000000001691614b9c828486614a4c565b604092604051937fcb75c11c0000000000000000000000000000000000000000000000000000000085526020936004908587600481875afa978815611b2f5789975f99614d59575b506040517fa56ec6320000000000000000000000000000000000000000000000000000000081526001600160a01b03918916918216600482015299909887918b9190829081602481015b0392165afa988915611b2f575f99614d3a575b509390951696947f000000000000000000000000000000000000000000000000000000000000000093805b614c7b57505050505050505050565b614ce59087811115614d345787905b84517f6fd3504e00000000000000000000000000000000000000000000000000000000815284810183815263ffffffff89166020820152604081018d90526001600160a01b038c166060820152909389918591829160800190565b03815f8a5af1928315611b2f57614d0193614d07575b50612d84565b80614c6c565b614d2690893d8b11614d2d575b614d1e818361056f565b810190614b22565b505f614cfb565b503d614d14565b80614c8a565b614d52919950863d8811610dc057610db1818361056f565b975f614c41565b8791995088614d77614c2e92843d861161313f57613131818361056f565b9a925050614be4565b9060418151145f14614da857610f9591602082015190606060408401519301515f1a90614dda565b50505f90600290565b9015614dcb57815115614dc2575090565b3b1561038e5790565b50805190811561038e57602001fd5b7f7fffffffffffffffffffffffffffffff5d576e7357a4501ddfe92f46681b20a08411614e4a576020935f9360ff60809460405194855216868401526040830152606082015282805260015afa15611b2f575f516001600160a01b03811615614e4257905f90565b505f90600190565b505050505f9060039056fea2646970667358221220a7dcae979c85f46da987463bb55a36ee39ce668180830897671385a29bec40b264736f6c63430008170033"
}