{
  "address": "0xf6689F13Ff0B5f0435F41fc4270106F98D800C86",
  "abi": [
    {
      "inputs": [
        {
          "internalType": "address",
          "name": "_wrappedNativeTokenAddress",
          "type": "address"
        },
        {
          "internalType": "uint32",
          "name": "_depositQuoteTimeBuffer",
          "type": "uint32"
        },
        {
          "internalType": "uint32",
          "name": "_fillDeadlineBuffer",
          "type": "uint32"
        },
        {
          "internalType": "contract IERC20",
          "name": "_l2Usdc",
          "type": "address"
        },
        {
          "internalType": "contract ITokenMessenger",
          "name": "_cctpTokenMessenger",
          "type": "address"
        },
        {
          "internalType": "address",
          "name": "usdb",
          "type": "address"
        },
        {
          "internalType": "address",
          "name": "l1Usdb",
          "type": "address"
        },
        {
          "internalType": "address",
          "name": "yieldRecipient",
          "type": "address"
        },
        {
          "internalType": "address",
          "name": "blastRetriever",
          "type": "address"
        }
      ],
      "stateMutability": "nonpayable",
      "type": "constructor"
    },
    {
      "inputs": [],
      "name": "ClaimedMerkleLeaf",
      "type": "error"
    },
    {
      "inputs": [],
      "name": "DepositsArePaused",
      "type": "error"
    },
    {
      "inputs": [],
      "name": "DisabledRoute",
      "type": "error"
    },
    {
      "inputs": [],
      "name": "ExpiredFillDeadline",
      "type": "error"
    },
    {
      "inputs": [],
      "name": "FillsArePaused",
      "type": "error"
    },
    {
      "inputs": [],
      "name": "InvalidChainId",
      "type": "error"
    },
    {
      "inputs": [
        {
          "internalType": "address",
          "name": "token",
          "type": "address"
        }
      ],
      "name": "InvalidClaimedAmount",
      "type": "error"
    },
    {
      "inputs": [],
      "name": "InvalidCrossDomainAdmin",
      "type": "error"
    },
    {
      "inputs": [],
      "name": "InvalidDepositorSignature",
      "type": "error"
    },
    {
      "inputs": [],
      "name": "InvalidExclusivityDeadline",
      "type": "error"
    },
    {
      "inputs": [],
      "name": "InvalidFillDeadline",
      "type": "error"
    },
    {
      "inputs": [],
      "name": "InvalidMerkleLeaf",
      "type": "error"
    },
    {
      "inputs": [],
      "name": "InvalidMerkleProof",
      "type": "error"
    },
    {
      "inputs": [],
      "name": "InvalidPayoutAdjustmentPct",
      "type": "error"
    },
    {
      "inputs": [],
      "name": "InvalidQuoteTimestamp",
      "type": "error"
    },
    {
      "inputs": [],
      "name": "InvalidRelayerFeePct",
      "type": "error"
    },
    {
      "inputs": [],
      "name": "InvalidSlowFillRequest",
      "type": "error"
    },
    {
      "inputs": [],
      "name": "InvalidWithdrawalRecipient",
      "type": "error"
    },
    {
      "inputs": [
        {
          "internalType": "bytes",
          "name": "data",
          "type": "bytes"
        }
      ],
      "name": "LowLevelCallFailed",
      "type": "error"
    },
    {
      "inputs": [],
      "name": "MaxTransferSizeExceeded",
      "type": "error"
    },
    {
      "inputs": [],
      "name": "MsgValueDoesNotMatchInputAmount",
      "type": "error"
    },
    {
      "inputs": [],
      "name": "NoSlowFillsInExclusivityWindow",
      "type": "error"
    },
    {
      "inputs": [],
      "name": "NotCrossChainCall",
      "type": "error"
    },
    {
      "inputs": [],
      "name": "NotCrossDomainAdmin",
      "type": "error"
    },
    {
      "inputs": [],
      "name": "NotEOA",
      "type": "error"
    },
    {
      "inputs": [],
      "name": "NotExclusiveRelayer",
      "type": "error"
    },
    {
      "inputs": [],
      "name": "RelayFilled",
      "type": "error"
    },
    {
      "inputs": [],
      "name": "WrongERC7683OrderId",
      "type": "error"
    },
    {
      "anonymous": false,
      "inputs": [
        {
          "indexed": false,
          "internalType": "address",
          "name": "previousAdmin",
          "type": "address"
        },
        {
          "indexed": false,
          "internalType": "address",
          "name": "newAdmin",
          "type": "address"
        }
      ],
      "name": "AdminChanged",
      "type": "event"
    },
    {
      "anonymous": false,
      "inputs": [
        {
          "indexed": true,
          "internalType": "address",
          "name": "beacon",
          "type": "address"
        }
      ],
      "name": "BeaconUpgraded",
      "type": "event"
    },
    {
      "anonymous": false,
      "inputs": [
        {
          "indexed": true,
          "internalType": "uint256",
          "name": "rootBundleId",
          "type": "uint256"
        }
      ],
      "name": "EmergencyDeleteRootBundle",
      "type": "event"
    },
    {
      "anonymous": false,
      "inputs": [
        {
          "indexed": true,
          "internalType": "address",
          "name": "originToken",
          "type": "address"
        },
        {
          "indexed": true,
          "internalType": "uint256",
          "name": "destinationChainId",
          "type": "uint256"
        },
        {
          "indexed": false,
          "internalType": "bool",
          "name": "enabled",
          "type": "bool"
        }
      ],
      "name": "EnabledDepositRoute",
      "type": "event"
    },
    {
      "anonymous": false,
      "inputs": [
        {
          "indexed": false,
          "internalType": "uint256",
          "name": "amountToReturn",
          "type": "uint256"
        },
        {
          "indexed": true,
          "internalType": "uint256",
          "name": "chainId",
          "type": "uint256"
        },
        {
          "indexed": false,
          "internalType": "uint256[]",
          "name": "refundAmounts",
          "type": "uint256[]"
        },
        {
          "indexed": true,
          "internalType": "uint32",
          "name": "rootBundleId",
          "type": "uint32"
        },
        {
          "indexed": true,
          "internalType": "uint32",
          "name": "leafId",
          "type": "uint32"
        },
        {
          "indexed": false,
          "internalType": "address",
          "name": "l2TokenAddress",
          "type": "address"
        },
        {
          "indexed": false,
          "internalType": "address[]",
          "name": "refundAddresses",
          "type": "address[]"
        },
        {
          "indexed": false,
          "internalType": "address",
          "name": "caller",
          "type": "address"
        }
      ],
      "name": "ExecutedRelayerRefundRoot",
      "type": "event"
    },
    {
      "anonymous": false,
      "inputs": [
        {
          "indexed": false,
          "internalType": "address",
          "name": "inputToken",
          "type": "address"
        },
        {
          "indexed": false,
          "internalType": "address",
          "name": "outputToken",
          "type": "address"
        },
        {
          "indexed": false,
          "internalType": "uint256",
          "name": "inputAmount",
          "type": "uint256"
        },
        {
          "indexed": false,
          "internalType": "uint256",
          "name": "outputAmount",
          "type": "uint256"
        },
        {
          "indexed": false,
          "internalType": "uint256",
          "name": "repaymentChainId",
          "type": "uint256"
        },
        {
          "indexed": true,
          "internalType": "uint256",
          "name": "originChainId",
          "type": "uint256"
        },
        {
          "indexed": true,
          "internalType": "uint32",
          "name": "depositId",
          "type": "uint32"
        },
        {
          "indexed": false,
          "internalType": "uint32",
          "name": "fillDeadline",
          "type": "uint32"
        },
        {
          "indexed": false,
          "internalType": "uint32",
          "name": "exclusivityDeadline",
          "type": "uint32"
        },
        {
          "indexed": false,
          "internalType": "address",
          "name": "exclusiveRelayer",
          "type": "address"
        },
        {
          "indexed": true,
          "internalType": "address",
          "name": "relayer",
          "type": "address"
        },
        {
          "indexed": false,
          "internalType": "address",
          "name": "depositor",
          "type": "address"
        },
        {
          "indexed": false,
          "internalType": "address",
          "name": "recipient",
          "type": "address"
        },
        {
          "indexed": false,
          "internalType": "bytes",
          "name": "message",
          "type": "bytes"
        },
        {
          "components": [
            {
              "internalType": "address",
              "name": "updatedRecipient",
              "type": "address"
            },
            {
              "internalType": "bytes",
              "name": "updatedMessage",
              "type": "bytes"
            },
            {
              "internalType": "uint256",
              "name": "updatedOutputAmount",
              "type": "uint256"
            },
            {
              "internalType": "enum V3SpokePoolInterface.FillType",
              "name": "fillType",
              "type": "uint8"
            }
          ],
          "indexed": false,
          "internalType": "struct V3SpokePoolInterface.V3RelayExecutionEventInfo",
          "name": "relayExecutionInfo",
          "type": "tuple"
        }
      ],
      "name": "FilledV3Relay",
      "type": "event"
    },
    {
      "anonymous": false,
      "inputs": [
        {
          "indexed": false,
          "internalType": "uint8",
          "name": "version",
          "type": "uint8"
        }
      ],
      "name": "Initialized",
      "type": "event"
    },
    {
      "anonymous": false,
      "inputs": [
        {
          "indexed": false,
          "internalType": "bool",
          "name": "isPaused",
          "type": "bool"
        }
      ],
      "name": "PausedDeposits",
      "type": "event"
    },
    {
      "anonymous": false,
      "inputs": [
        {
          "indexed": false,
          "internalType": "bool",
          "name": "isPaused",
          "type": "bool"
        }
      ],
      "name": "PausedFills",
      "type": "event"
    },
    {
      "anonymous": false,
      "inputs": [
        {
          "indexed": true,
          "internalType": "uint32",
          "name": "rootBundleId",
          "type": "uint32"
        },
        {
          "indexed": true,
          "internalType": "bytes32",
          "name": "relayerRefundRoot",
          "type": "bytes32"
        },
        {
          "indexed": true,
          "internalType": "bytes32",
          "name": "slowRelayRoot",
          "type": "bytes32"
        }
      ],
      "name": "RelayedRootBundle",
      "type": "event"
    },
    {
      "anonymous": false,
      "inputs": [
        {
          "indexed": false,
          "internalType": "uint256",
          "name": "updatedOutputAmount",
          "type": "uint256"
        },
        {
          "indexed": true,
          "internalType": "uint32",
          "name": "depositId",
          "type": "uint32"
        },
        {
          "indexed": true,
          "internalType": "address",
          "name": "depositor",
          "type": "address"
        },
        {
          "indexed": false,
          "internalType": "address",
          "name": "updatedRecipient",
          "type": "address"
        },
        {
          "indexed": false,
          "internalType": "bytes",
          "name": "updatedMessage",
          "type": "bytes"
        },
        {
          "indexed": false,
          "internalType": "bytes",
          "name": "depositorSignature",
          "type": "bytes"
        }
      ],
      "name": "RequestedSpeedUpV3Deposit",
      "type": "event"
    },
    {
      "anonymous": false,
      "inputs": [
        {
          "indexed": false,
          "internalType": "address",
          "name": "inputToken",
          "type": "address"
        },
        {
          "indexed": false,
          "internalType": "address",
          "name": "outputToken",
          "type": "address"
        },
        {
          "indexed": false,
          "internalType": "uint256",
          "name": "inputAmount",
          "type": "uint256"
        },
        {
          "indexed": false,
          "internalType": "uint256",
          "name": "outputAmount",
          "type": "uint256"
        },
        {
          "indexed": true,
          "internalType": "uint256",
          "name": "originChainId",
          "type": "uint256"
        },
        {
          "indexed": true,
          "internalType": "uint32",
          "name": "depositId",
          "type": "uint32"
        },
        {
          "indexed": false,
          "internalType": "uint32",
          "name": "fillDeadline",
          "type": "uint32"
        },
        {
          "indexed": false,
          "internalType": "uint32",
          "name": "exclusivityDeadline",
          "type": "uint32"
        },
        {
          "indexed": false,
          "internalType": "address",
          "name": "exclusiveRelayer",
          "type": "address"
        },
        {
          "indexed": false,
          "internalType": "address",
          "name": "depositor",
          "type": "address"
        },
        {
          "indexed": false,
          "internalType": "address",
          "name": "recipient",
          "type": "address"
        },
        {
          "indexed": false,
          "internalType": "bytes",
          "name": "message",
          "type": "bytes"
        }
      ],
      "name": "RequestedV3SlowFill",
      "type": "event"
    },
    {
      "anonymous": false,
      "inputs": [
        {
          "indexed": true,
          "internalType": "uint32",
          "name": "newL1Gas",
          "type": "uint32"
        }
      ],
      "name": "SetL1Gas",
      "type": "event"
    },
    {
      "anonymous": false,
      "inputs": [
        {
          "indexed": true,
          "internalType": "address",
          "name": "l2Token",
          "type": "address"
        },
        {
          "indexed": true,
          "internalType": "address",
          "name": "tokenBridge",
          "type": "address"
        }
      ],
      "name": "SetL2TokenBridge",
      "type": "event"
    },
    {
      "anonymous": false,
      "inputs": [
        {
          "indexed": true,
          "internalType": "address",
          "name": "l2Token",
          "type": "address"
        },
        {
          "indexed": true,
          "internalType": "address",
          "name": "l1Token",
          "type": "address"
        }
      ],
      "name": "SetRemoteL1Token",
      "type": "event"
    },
    {
      "anonymous": false,
      "inputs": [
        {
          "indexed": true,
          "internalType": "address",
          "name": "newWithdrawalRecipient",
          "type": "address"
        }
      ],
      "name": "SetWithdrawalRecipient",
      "type": "event"
    },
    {
      "anonymous": false,
      "inputs": [
        {
          "indexed": true,
          "internalType": "address",
          "name": "newAdmin",
          "type": "address"
        }
      ],
      "name": "SetXDomainAdmin",
      "type": "event"
    },
    {
      "anonymous": false,
      "inputs": [
        {
          "indexed": false,
          "internalType": "uint256",
          "name": "amountToReturn",
          "type": "uint256"
        },
        {
          "indexed": true,
          "internalType": "uint256",
          "name": "chainId",
          "type": "uint256"
        },
        {
          "indexed": true,
          "internalType": "uint32",
          "name": "leafId",
          "type": "uint32"
        },
        {
          "indexed": true,
          "internalType": "address",
          "name": "l2TokenAddress",
          "type": "address"
        },
        {
          "indexed": false,
          "internalType": "address",
          "name": "caller",
          "type": "address"
        }
      ],
      "name": "TokensBridged",
      "type": "event"
    },
    {
      "anonymous": false,
      "inputs": [
        {
          "indexed": true,
          "internalType": "address",
          "name": "implementation",
          "type": "address"
        }
      ],
      "name": "Upgraded",
      "type": "event"
    },
    {
      "anonymous": false,
      "inputs": [
        {
          "indexed": false,
          "internalType": "address",
          "name": "inputToken",
          "type": "address"
        },
        {
          "indexed": false,
          "internalType": "address",
          "name": "outputToken",
          "type": "address"
        },
        {
          "indexed": false,
          "internalType": "uint256",
          "name": "inputAmount",
          "type": "uint256"
        },
        {
          "indexed": false,
          "internalType": "uint256",
          "name": "outputAmount",
          "type": "uint256"
        },
        {
          "indexed": true,
          "internalType": "uint256",
          "name": "destinationChainId",
          "type": "uint256"
        },
        {
          "indexed": true,
          "internalType": "uint32",
          "name": "depositId",
          "type": "uint32"
        },
        {
          "indexed": false,
          "internalType": "uint32",
          "name": "quoteTimestamp",
          "type": "uint32"
        },
        {
          "indexed": false,
          "internalType": "uint32",
          "name": "fillDeadline",
          "type": "uint32"
        },
        {
          "indexed": false,
          "internalType": "uint32",
          "name": "exclusivityDeadline",
          "type": "uint32"
        },
        {
          "indexed": true,
          "internalType": "address",
          "name": "depositor",
          "type": "address"
        },
        {
          "indexed": false,
          "internalType": "address",
          "name": "recipient",
          "type": "address"
        },
        {
          "indexed": false,
          "internalType": "address",
          "name": "exclusiveRelayer",
          "type": "address"
        },
        {
          "indexed": false,
          "internalType": "bytes",
          "name": "message",
          "type": "bytes"
        }
      ],
      "name": "V3FundsDeposited",
      "type": "event"
    },
    {
      "anonymous": false,
      "inputs": [
        {
          "indexed": true,
          "internalType": "address",
          "name": "recipient",
          "type": "address"
        },
        {
          "indexed": true,
          "internalType": "address",
          "name": "token",
          "type": "address"
        },
        {
          "indexed": false,
          "internalType": "uint256",
          "name": "amount",
          "type": "uint256"
        }
      ],
      "name": "YieldClaimed",
      "type": "event"
    },
    {
      "inputs": [],
      "name": "BLAST_RETRIEVER",
      "outputs": [
        {
          "internalType": "address",
          "name": "",
          "type": "address"
        }
      ],
      "stateMutability": "view",
      "type": "function"
    },
    {
      "inputs": [],
      "name": "BLAST_YIELD_CONTRACT",
      "outputs": [
        {
          "internalType": "contract IBlast",
          "name": "",
          "type": "address"
        }
      ],
      "stateMutability": "view",
      "type": "function"
    },
    {
      "inputs": [],
      "name": "EMPTY_RELAYER",
      "outputs": [
        {
          "internalType": "address",
          "name": "",
          "type": "address"
        }
      ],
      "stateMutability": "view",
      "type": "function"
    },
    {
      "inputs": [],
      "name": "EMPTY_REPAYMENT_CHAIN_ID",
      "outputs": [
        {
          "internalType": "uint256",
          "name": "",
          "type": "uint256"
        }
      ],
      "stateMutability": "view",
      "type": "function"
    },
    {
      "inputs": [],
      "name": "INFINITE_FILL_DEADLINE",
      "outputs": [
        {
          "internalType": "uint32",
          "name": "",
          "type": "uint32"
        }
      ],
      "stateMutability": "view",
      "type": "function"
    },
    {
      "inputs": [],
      "name": "L1_USDB",
      "outputs": [
        {
          "internalType": "address",
          "name": "",
          "type": "address"
        }
      ],
      "stateMutability": "view",
      "type": "function"
    },
    {
      "inputs": [],
      "name": "L2_BLAST_BRIDGE",
      "outputs": [
        {
          "internalType": "address",
          "name": "",
          "type": "address"
        }
      ],
      "stateMutability": "view",
      "type": "function"
    },
    {
      "inputs": [],
      "name": "MAX_TRANSFER_SIZE",
      "outputs": [
        {
          "internalType": "uint256",
          "name": "",
          "type": "uint256"
        }
      ],
      "stateMutability": "view",
      "type": "function"
    },
    {
      "inputs": [],
      "name": "MESSENGER",
      "outputs": [
        {
          "internalType": "address",
          "name": "",
          "type": "address"
        }
      ],
      "stateMutability": "view",
      "type": "function"
    },
    {
      "inputs": [],
      "name": "UPDATE_V3_DEPOSIT_DETAILS_HASH",
      "outputs": [
        {
          "internalType": "bytes32",
          "name": "",
          "type": "bytes32"
        }
      ],
      "stateMutability": "view",
      "type": "function"
    },
    {
      "inputs": [],
      "name": "USDB",
      "outputs": [
        {
          "internalType": "address",
          "name": "",
          "type": "address"
        }
      ],
      "stateMutability": "view",
      "type": "function"
    },
    {
      "inputs": [],
      "name": "YIELD_RECIPIENT",
      "outputs": [
        {
          "internalType": "address",
          "name": "",
          "type": "address"
        }
      ],
      "stateMutability": "view",
      "type": "function"
    },
    {
      "inputs": [
        {
          "internalType": "uint32",
          "name": "_initialDepositId",
          "type": "uint32"
        },
        {
          "internalType": "address",
          "name": "_crossDomainAdmin",
          "type": "address"
        },
        {
          "internalType": "address",
          "name": "_withdrawalRecipient",
          "type": "address"
        },
        {
          "internalType": "address",
          "name": "_l2Eth",
          "type": "address"
        }
      ],
      "name": "__OvmSpokePool_init",
      "outputs": [],
      "stateMutability": "nonpayable",
      "type": "function"
    },
    {
      "inputs": [
        {
          "internalType": "uint32",
          "name": "_initialDepositId",
          "type": "uint32"
        },
        {
          "internalType": "address",
          "name": "_crossDomainAdmin",
          "type": "address"
        },
        {
          "internalType": "address",
          "name": "_withdrawalRecipient",
          "type": "address"
        }
      ],
      "name": "__SpokePool_init",
      "outputs": [],
      "stateMutability": "nonpayable",
      "type": "function"
    },
    {
      "inputs": [],
      "name": "cctpTokenMessenger",
      "outputs": [
        {
          "internalType": "contract ITokenMessenger",
          "name": "",
          "type": "address"
        }
      ],
      "stateMutability": "view",
      "type": "function"
    },
    {
      "inputs": [],
      "name": "chainId",
      "outputs": [
        {
          "internalType": "uint256",
          "name": "",
          "type": "uint256"
        }
      ],
      "stateMutability": "view",
      "type": "function"
    },
    {
      "inputs": [],
      "name": "crossDomainAdmin",
      "outputs": [
        {
          "internalType": "address",
          "name": "",
          "type": "address"
        }
      ],
      "stateMutability": "view",
      "type": "function"
    },
    {
      "inputs": [
        {
          "internalType": "address",
          "name": "recipient",
          "type": "address"
        },
        {
          "internalType": "address",
          "name": "originToken",
          "type": "address"
        },
        {
          "internalType": "uint256",
          "name": "amount",
          "type": "uint256"
        },
        {
          "internalType": "uint256",
          "name": "destinationChainId",
          "type": "uint256"
        },
        {
          "internalType": "int64",
          "name": "relayerFeePct",
          "type": "int64"
        },
        {
          "internalType": "uint32",
          "name": "quoteTimestamp",
          "type": "uint32"
        },
        {
          "internalType": "bytes",
          "name": "message",
          "type": "bytes"
        },
        {
          "internalType": "uint256",
          "name": "",
          "type": "uint256"
        }
      ],
      "name": "deposit",
      "outputs": [],
      "stateMutability": "payable",
      "type": "function"
    },
    {
      "inputs": [
        {
          "internalType": "address",
          "name": "depositor",
          "type": "address"
        },
        {
          "internalType": "address",
          "name": "recipient",
          "type": "address"
        },
        {
          "internalType": "address",
          "name": "inputToken",
          "type": "address"
        },
        {
          "internalType": "address",
          "name": "outputToken",
          "type": "address"
        },
        {
          "internalType": "uint256",
          "name": "inputAmount",
          "type": "uint256"
        },
        {
          "internalType": "uint256",
          "name": "outputAmount",
          "type": "uint256"
        },
        {
          "internalType": "uint256",
          "name": "destinationChainId",
          "type": "uint256"
        },
        {
          "internalType": "address",
          "name": "exclusiveRelayer",
          "type": "address"
        },
        {
          "internalType": "uint32",
          "name": "quoteTimestamp",
          "type": "uint32"
        },
        {
          "internalType": "uint32",
          "name": "fillDeadline",
          "type": "uint32"
        },
        {
          "internalType": "uint32",
          "name": "exclusivityPeriod",
          "type": "uint32"
        },
        {
          "internalType": "bytes",
          "name": "message",
          "type": "bytes"
        }
      ],
      "name": "depositExclusive",
      "outputs": [],
      "stateMutability": "payable",
      "type": "function"
    },
    {
      "inputs": [
        {
          "internalType": "address",
          "name": "depositor",
          "type": "address"
        },
        {
          "internalType": "address",
          "name": "recipient",
          "type": "address"
        },
        {
          "internalType": "address",
          "name": "originToken",
          "type": "address"
        },
        {
          "internalType": "uint256",
          "name": "amount",
          "type": "uint256"
        },
        {
          "internalType": "uint256",
          "name": "destinationChainId",
          "type": "uint256"
        },
        {
          "internalType": "int64",
          "name": "relayerFeePct",
          "type": "int64"
        },
        {
          "internalType": "uint32",
          "name": "quoteTimestamp",
          "type": "uint32"
        },
        {
          "internalType": "bytes",
          "name": "message",
          "type": "bytes"
        },
        {
          "internalType": "uint256",
          "name": "",
          "type": "uint256"
        }
      ],
      "name": "depositFor",
      "outputs": [],
      "stateMutability": "payable",
      "type": "function"
    },
    {
      "inputs": [],
      "name": "depositQuoteTimeBuffer",
      "outputs": [
        {
          "internalType": "uint32",
          "name": "",
          "type": "uint32"
        }
      ],
      "stateMutability": "view",
      "type": "function"
    },
    {
      "inputs": [
        {
          "internalType": "address",
          "name": "depositor",
          "type": "address"
        },
        {
          "internalType": "address",
          "name": "recipient",
          "type": "address"
        },
        {
          "internalType": "address",
          "name": "inputToken",
          "type": "address"
        },
        {
          "internalType": "address",
          "name": "outputToken",
          "type": "address"
        },
        {
          "internalType": "uint256",
          "name": "inputAmount",
          "type": "uint256"
        },
        {
          "internalType": "uint256",
          "name": "outputAmount",
          "type": "uint256"
        },
        {
          "internalType": "uint256",
          "name": "destinationChainId",
          "type": "uint256"
        },
        {
          "internalType": "address",
          "name": "exclusiveRelayer",
          "type": "address"
        },
        {
          "internalType": "uint32",
          "name": "quoteTimestamp",
          "type": "uint32"
        },
        {
          "internalType": "uint32",
          "name": "fillDeadline",
          "type": "uint32"
        },
        {
          "internalType": "uint32",
          "name": "exclusivityPeriod",
          "type": "uint32"
        },
        {
          "internalType": "bytes",
          "name": "message",
          "type": "bytes"
        }
      ],
      "name": "depositV3",
      "outputs": [],
      "stateMutability": "payable",
      "type": "function"
    },
    {
      "inputs": [
        {
          "internalType": "address",
          "name": "depositor",
          "type": "address"
        },
        {
          "internalType": "address",
          "name": "recipient",
          "type": "address"
        },
        {
          "internalType": "address",
          "name": "inputToken",
          "type": "address"
        },
        {
          "internalType": "address",
          "name": "outputToken",
          "type": "address"
        },
        {
          "internalType": "uint256",
          "name": "inputAmount",
          "type": "uint256"
        },
        {
          "internalType": "uint256",
          "name": "outputAmount",
          "type": "uint256"
        },
        {
          "internalType": "uint256",
          "name": "destinationChainId",
          "type": "uint256"
        },
        {
          "internalType": "address",
          "name": "exclusiveRelayer",
          "type": "address"
        },
        {
          "internalType": "uint32",
          "name": "fillDeadlineOffset",
          "type": "uint32"
        },
        {
          "internalType": "uint32",
          "name": "exclusivityPeriod",
          "type": "uint32"
        },
        {
          "internalType": "bytes",
          "name": "message",
          "type": "bytes"
        }
      ],
      "name": "depositV3Now",
      "outputs": [],
      "stateMutability": "payable",
      "type": "function"
    },
    {
      "inputs": [
        {
          "internalType": "uint256",
          "name": "rootBundleId",
          "type": "uint256"
        }
      ],
      "name": "emergencyDeleteRootBundle",
      "outputs": [],
      "stateMutability": "nonpayable",
      "type": "function"
    },
    {
      "inputs": [
        {
          "internalType": "address",
          "name": "",
          "type": "address"
        },
        {
          "internalType": "uint256",
          "name": "",
          "type": "uint256"
        }
      ],
      "name": "enabledDepositRoutes",
      "outputs": [
        {
          "internalType": "bool",
          "name": "",
          "type": "bool"
        }
      ],
      "stateMutability": "view",
      "type": "function"
    },
    {
      "inputs": [
        {
          "internalType": "uint32",
          "name": "rootBundleId",
          "type": "uint32"
        },
        {
          "components": [
            {
              "internalType": "uint256",
              "name": "amountToReturn",
              "type": "uint256"
            },
            {
              "internalType": "uint256",
              "name": "chainId",
              "type": "uint256"
            },
            {
              "internalType": "uint256[]",
              "name": "refundAmounts",
              "type": "uint256[]"
            },
            {
              "internalType": "uint32",
              "name": "leafId",
              "type": "uint32"
            },
            {
              "internalType": "address",
              "name": "l2TokenAddress",
              "type": "address"
            },
            {
              "internalType": "address[]",
              "name": "refundAddresses",
              "type": "address[]"
            }
          ],
          "internalType": "struct SpokePoolInterface.RelayerRefundLeaf",
          "name": "relayerRefundLeaf",
          "type": "tuple"
        },
        {
          "internalType": "bytes32[]",
          "name": "proof",
          "type": "bytes32[]"
        }
      ],
      "name": "executeRelayerRefundLeaf",
      "outputs": [],
      "stateMutability": "payable",
      "type": "function"
    },
    {
      "inputs": [
        {
          "components": [
            {
              "components": [
                {
                  "internalType": "address",
                  "name": "depositor",
                  "type": "address"
                },
                {
                  "internalType": "address",
                  "name": "recipient",
                  "type": "address"
                },
                {
                  "internalType": "address",
                  "name": "exclusiveRelayer",
                  "type": "address"
                },
                {
                  "internalType": "address",
                  "name": "inputToken",
                  "type": "address"
                },
                {
                  "internalType": "address",
                  "name": "outputToken",
                  "type": "address"
                },
                {
                  "internalType": "uint256",
                  "name": "inputAmount",
                  "type": "uint256"
                },
                {
                  "internalType": "uint256",
                  "name": "outputAmount",
                  "type": "uint256"
                },
                {
                  "internalType": "uint256",
                  "name": "originChainId",
                  "type": "uint256"
                },
                {
                  "internalType": "uint32",
                  "name": "depositId",
                  "type": "uint32"
                },
                {
                  "internalType": "uint32",
                  "name": "fillDeadline",
                  "type": "uint32"
                },
                {
                  "internalType": "uint32",
                  "name": "exclusivityDeadline",
                  "type": "uint32"
                },
                {
                  "internalType": "bytes",
                  "name": "message",
                  "type": "bytes"
                }
              ],
              "internalType": "struct V3SpokePoolInterface.V3RelayData",
              "name": "relayData",
              "type": "tuple"
            },
            {
              "internalType": "uint256",
              "name": "chainId",
              "type": "uint256"
            },
            {
              "internalType": "uint256",
              "name": "updatedOutputAmount",
              "type": "uint256"
            }
          ],
          "internalType": "struct V3SpokePoolInterface.V3SlowFill",
          "name": "slowFillLeaf",
          "type": "tuple"
        },
        {
          "internalType": "uint32",
          "name": "rootBundleId",
          "type": "uint32"
        },
        {
          "internalType": "bytes32[]",
          "name": "proof",
          "type": "bytes32[]"
        }
      ],
      "name": "executeV3SlowRelayLeaf",
      "outputs": [],
      "stateMutability": "nonpayable",
      "type": "function"
    },
    {
      "inputs": [
        {
          "internalType": "bytes32",
          "name": "orderId",
          "type": "bytes32"
        },
        {
          "internalType": "bytes",
          "name": "originData",
          "type": "bytes"
        },
        {
          "internalType": "bytes",
          "name": "fillerData",
          "type": "bytes"
        }
      ],
      "name": "fill",
      "outputs": [],
      "stateMutability": "nonpayable",
      "type": "function"
    },
    {
      "inputs": [],
      "name": "fillDeadlineBuffer",
      "outputs": [
        {
          "internalType": "uint32",
          "name": "",
          "type": "uint32"
        }
      ],
      "stateMutability": "view",
      "type": "function"
    },
    {
      "inputs": [
        {
          "internalType": "bytes32",
          "name": "",
          "type": "bytes32"
        }
      ],
      "name": "fillStatuses",
      "outputs": [
        {
          "internalType": "uint256",
          "name": "",
          "type": "uint256"
        }
      ],
      "stateMutability": "view",
      "type": "function"
    },
    {
      "inputs": [
        {
          "components": [
            {
              "internalType": "address",
              "name": "depositor",
              "type": "address"
            },
            {
              "internalType": "address",
              "name": "recipient",
              "type": "address"
            },
            {
              "internalType": "address",
              "name": "exclusiveRelayer",
              "type": "address"
            },
            {
              "internalType": "address",
              "name": "inputToken",
              "type": "address"
            },
            {
              "internalType": "address",
              "name": "outputToken",
              "type": "address"
            },
            {
              "internalType": "uint256",
              "name": "inputAmount",
              "type": "uint256"
            },
            {
              "internalType": "uint256",
              "name": "outputAmount",
              "type": "uint256"
            },
            {
              "internalType": "uint256",
              "name": "originChainId",
              "type": "uint256"
            },
            {
              "internalType": "uint32",
              "name": "depositId",
              "type": "uint32"
            },
            {
              "internalType": "uint32",
              "name": "fillDeadline",
              "type": "uint32"
            },
            {
              "internalType": "uint32",
              "name": "exclusivityDeadline",
              "type": "uint32"
            },
            {
              "internalType": "bytes",
              "name": "message",
              "type": "bytes"
            }
          ],
          "internalType": "struct V3SpokePoolInterface.V3RelayData",
          "name": "relayData",
          "type": "tuple"
        },
        {
          "internalType": "uint256",
          "name": "repaymentChainId",
          "type": "uint256"
        }
      ],
      "name": "fillV3Relay",
      "outputs": [],
      "stateMutability": "nonpayable",
      "type": "function"
    },
    {
      "inputs": [
        {
          "components": [
            {
              "internalType": "address",
              "name": "depositor",
              "type": "address"
            },
            {
              "internalType": "address",
              "name": "recipient",
              "type": "address"
            },
            {
              "internalType": "address",
              "name": "exclusiveRelayer",
              "type": "address"
            },
            {
              "internalType": "address",
              "name": "inputToken",
              "type": "address"
            },
            {
              "internalType": "address",
              "name": "outputToken",
              "type": "address"
            },
            {
              "internalType": "uint256",
              "name": "inputAmount",
              "type": "uint256"
            },
            {
              "internalType": "uint256",
              "name": "outputAmount",
              "type": "uint256"
            },
            {
              "internalType": "uint256",
              "name": "originChainId",
              "type": "uint256"
            },
            {
              "internalType": "uint32",
              "name": "depositId",
              "type": "uint32"
            },
            {
              "internalType": "uint32",
              "name": "fillDeadline",
              "type": "uint32"
            },
            {
              "internalType": "uint32",
              "name": "exclusivityDeadline",
              "type": "uint32"
            },
            {
              "internalType": "bytes",
              "name": "message",
              "type": "bytes"
            }
          ],
          "internalType": "struct V3SpokePoolInterface.V3RelayData",
          "name": "relayData",
          "type": "tuple"
        },
        {
          "internalType": "uint256",
          "name": "repaymentChainId",
          "type": "uint256"
        },
        {
          "internalType": "uint256",
          "name": "updatedOutputAmount",
          "type": "uint256"
        },
        {
          "internalType": "address",
          "name": "updatedRecipient",
          "type": "address"
        },
        {
          "internalType": "bytes",
          "name": "updatedMessage",
          "type": "bytes"
        },
        {
          "internalType": "bytes",
          "name": "depositorSignature",
          "type": "bytes"
        }
      ],
      "name": "fillV3RelayWithUpdatedDeposit",
      "outputs": [],
      "stateMutability": "nonpayable",
      "type": "function"
    },
    {
      "inputs": [],
      "name": "getCurrentTime",
      "outputs": [
        {
          "internalType": "uint256",
          "name": "",
          "type": "uint256"
        }
      ],
      "stateMutability": "view",
      "type": "function"
    },
    {
      "inputs": [
        {
          "internalType": "uint32",
          "name": "_initialDepositId",
          "type": "uint32"
        },
        {
          "internalType": "address",
          "name": "_crossDomainAdmin",
          "type": "address"
        },
        {
          "internalType": "address",
          "name": "_withdrawalRecipient",
          "type": "address"
        }
      ],
      "name": "initialize",
      "outputs": [],
      "stateMutability": "nonpayable",
      "type": "function"
    },
    {
      "inputs": [],
      "name": "l1Gas",
      "outputs": [
        {
          "internalType": "uint32",
          "name": "",
          "type": "uint32"
        }
      ],
      "stateMutability": "view",
      "type": "function"
    },
    {
      "inputs": [],
      "name": "l2Eth",
      "outputs": [
        {
          "internalType": "address",
          "name": "",
          "type": "address"
        }
      ],
      "stateMutability": "view",
      "type": "function"
    },
    {
      "inputs": [
        {
          "internalType": "bytes[]",
          "name": "data",
          "type": "bytes[]"
        }
      ],
      "name": "multicall",
      "outputs": [
        {
          "internalType": "bytes[]",
          "name": "results",
          "type": "bytes[]"
        }
      ],
      "stateMutability": "nonpayable",
      "type": "function"
    },
    {
      "inputs": [],
      "name": "numberOfDeposits",
      "outputs": [
        {
          "internalType": "uint32",
          "name": "",
          "type": "uint32"
        }
      ],
      "stateMutability": "view",
      "type": "function"
    },
    {
      "inputs": [
        {
          "internalType": "bool",
          "name": "pause",
          "type": "bool"
        }
      ],
      "name": "pauseDeposits",
      "outputs": [],
      "stateMutability": "nonpayable",
      "type": "function"
    },
    {
      "inputs": [
        {
          "internalType": "bool",
          "name": "pause",
          "type": "bool"
        }
      ],
      "name": "pauseFills",
      "outputs": [],
      "stateMutability": "nonpayable",
      "type": "function"
    },
    {
      "inputs": [],
      "name": "pausedDeposits",
      "outputs": [
        {
          "internalType": "bool",
          "name": "",
          "type": "bool"
        }
      ],
      "stateMutability": "view",
      "type": "function"
    },
    {
      "inputs": [],
      "name": "pausedFills",
      "outputs": [
        {
          "internalType": "bool",
          "name": "",
          "type": "bool"
        }
      ],
      "stateMutability": "view",
      "type": "function"
    },
    {
      "inputs": [],
      "name": "proxiableUUID",
      "outputs": [
        {
          "internalType": "bytes32",
          "name": "",
          "type": "bytes32"
        }
      ],
      "stateMutability": "view",
      "type": "function"
    },
    {
      "inputs": [],
      "name": "recipientCircleDomainId",
      "outputs": [
        {
          "internalType": "uint32",
          "name": "",
          "type": "uint32"
        }
      ],
      "stateMutability": "view",
      "type": "function"
    },
    {
      "inputs": [
        {
          "internalType": "bytes32",
          "name": "relayerRefundRoot",
          "type": "bytes32"
        },
        {
          "internalType": "bytes32",
          "name": "slowRelayRoot",
          "type": "bytes32"
        }
      ],
      "name": "relayRootBundle",
      "outputs": [],
      "stateMutability": "nonpayable",
      "type": "function"
    },
    {
      "inputs": [
        {
          "internalType": "address",
          "name": "",
          "type": "address"
        }
      ],
      "name": "remoteL1Tokens",
      "outputs": [
        {
          "internalType": "address",
          "name": "",
          "type": "address"
        }
      ],
      "stateMutability": "view",
      "type": "function"
    },
    {
      "inputs": [
        {
          "components": [
            {
              "internalType": "address",
              "name": "depositor",
              "type": "address"
            },
            {
              "internalType": "address",
              "name": "recipient",
              "type": "address"
            },
            {
              "internalType": "address",
              "name": "exclusiveRelayer",
              "type": "address"
            },
            {
              "internalType": "address",
              "name": "inputToken",
              "type": "address"
            },
            {
              "internalType": "address",
              "name": "outputToken",
              "type": "address"
            },
            {
              "internalType": "uint256",
              "name": "inputAmount",
              "type": "uint256"
            },
            {
              "internalType": "uint256",
              "name": "outputAmount",
              "type": "uint256"
            },
            {
              "internalType": "uint256",
              "name": "originChainId",
              "type": "uint256"
            },
            {
              "internalType": "uint32",
              "name": "depositId",
              "type": "uint32"
            },
            {
              "internalType": "uint32",
              "name": "fillDeadline",
              "type": "uint32"
            },
            {
              "internalType": "uint32",
              "name": "exclusivityDeadline",
              "type": "uint32"
            },
            {
              "internalType": "bytes",
              "name": "message",
              "type": "bytes"
            }
          ],
          "internalType": "struct V3SpokePoolInterface.V3RelayData",
          "name": "relayData",
          "type": "tuple"
        }
      ],
      "name": "requestV3SlowFill",
      "outputs": [],
      "stateMutability": "nonpayable",
      "type": "function"
    },
    {
      "inputs": [
        {
          "internalType": "uint256",
          "name": "",
          "type": "uint256"
        }
      ],
      "name": "rootBundles",
      "outputs": [
        {
          "internalType": "bytes32",
          "name": "slowRelayRoot",
          "type": "bytes32"
        },
        {
          "internalType": "bytes32",
          "name": "relayerRefundRoot",
          "type": "bytes32"
        }
      ],
      "stateMutability": "view",
      "type": "function"
    },
    {
      "inputs": [
        {
          "internalType": "address",
          "name": "newCrossDomainAdmin",
          "type": "address"
        }
      ],
      "name": "setCrossDomainAdmin",
      "outputs": [],
      "stateMutability": "nonpayable",
      "type": "function"
    },
    {
      "inputs": [
        {
          "internalType": "address",
          "name": "originToken",
          "type": "address"
        },
        {
          "internalType": "uint256",
          "name": "destinationChainId",
          "type": "uint256"
        },
        {
          "internalType": "bool",
          "name": "enabled",
          "type": "bool"
        }
      ],
      "name": "setEnableRoute",
      "outputs": [],
      "stateMutability": "nonpayable",
      "type": "function"
    },
    {
      "inputs": [
        {
          "internalType": "uint32",
          "name": "newl1Gas",
          "type": "uint32"
        }
      ],
      "name": "setL1GasLimit",
      "outputs": [],
      "stateMutability": "nonpayable",
      "type": "function"
    },
    {
      "inputs": [
        {
          "internalType": "address",
          "name": "l2Token",
          "type": "address"
        },
        {
          "internalType": "address",
          "name": "l1Token",
          "type": "address"
        }
      ],
      "name": "setRemoteL1Token",
      "outputs": [],
      "stateMutability": "nonpayable",
      "type": "function"
    },
    {
      "inputs": [
        {
          "internalType": "address",
          "name": "l2Token",
          "type": "address"
        },
        {
          "internalType": "address",
          "name": "tokenBridge",
          "type": "address"
        }
      ],
      "name": "setTokenBridge",
      "outputs": [],
      "stateMutability": "nonpayable",
      "type": "function"
    },
    {
      "inputs": [
        {
          "internalType": "address",
          "name": "newWithdrawalRecipient",
          "type": "address"
        }
      ],
      "name": "setWithdrawalRecipient",
      "outputs": [],
      "stateMutability": "nonpayable",
      "type": "function"
    },
    {
      "inputs": [
        {
          "internalType": "address",
          "name": "depositor",
          "type": "address"
        },
        {
          "internalType": "uint32",
          "name": "depositId",
          "type": "uint32"
        },
        {
          "internalType": "uint256",
          "name": "updatedOutputAmount",
          "type": "uint256"
        },
        {
          "internalType": "address",
          "name": "updatedRecipient",
          "type": "address"
        },
        {
          "internalType": "bytes",
          "name": "updatedMessage",
          "type": "bytes"
        },
        {
          "internalType": "bytes",
          "name": "depositorSignature",
          "type": "bytes"
        }
      ],
      "name": "speedUpV3Deposit",
      "outputs": [],
      "stateMutability": "nonpayable",
      "type": "function"
    },
    {
      "inputs": [
        {
          "internalType": "address",
          "name": "",
          "type": "address"
        }
      ],
      "name": "tokenBridges",
      "outputs": [
        {
          "internalType": "address",
          "name": "",
          "type": "address"
        }
      ],
      "stateMutability": "view",
      "type": "function"
    },
    {
      "inputs": [
        {
          "internalType": "bytes[]",
          "name": "data",
          "type": "bytes[]"
        }
      ],
      "name": "tryMulticall",
      "outputs": [
        {
          "components": [
            {
              "internalType": "bool",
              "name": "success",
              "type": "bool"
            },
            {
              "internalType": "bytes",
              "name": "returnData",
              "type": "bytes"
            }
          ],
          "internalType": "struct MultiCallerUpgradeable.Result[]",
          "name": "results",
          "type": "tuple[]"
        }
      ],
      "stateMutability": "nonpayable",
      "type": "function"
    },
    {
      "inputs": [
        {
          "internalType": "address",
          "name": "newImplementation",
          "type": "address"
        }
      ],
      "name": "upgradeTo",
      "outputs": [],
      "stateMutability": "nonpayable",
      "type": "function"
    },
    {
      "inputs": [
        {
          "internalType": "address",
          "name": "newImplementation",
          "type": "address"
        },
        {
          "internalType": "bytes",
          "name": "data",
          "type": "bytes"
        }
      ],
      "name": "upgradeToAndCall",
      "outputs": [],
      "stateMutability": "payable",
      "type": "function"
    },
    {
      "inputs": [],
      "name": "usdcToken",
      "outputs": [
        {
          "internalType": "contract IERC20",
          "name": "",
          "type": "address"
        }
      ],
      "stateMutability": "view",
      "type": "function"
    },
    {
      "inputs": [],
      "name": "withdrawalRecipient",
      "outputs": [
        {
          "internalType": "address",
          "name": "",
          "type": "address"
        }
      ],
      "stateMutability": "view",
      "type": "function"
    },
    {
      "inputs": [],
      "name": "wrappedNativeToken",
      "outputs": [
        {
          "internalType": "contract WETH9Interface",
          "name": "",
          "type": "address"
        }
      ],
      "stateMutability": "view",
      "type": "function"
    },
    {
      "stateMutability": "payable",
      "type": "receive"
    }
  ],
  "numDeployments": 6,
  "solcInputHash": "d83d284467cb3dd830fefdf12327be25",
  "bytecode": "0x6101e0346200028c5762005b1438819003601f8101601f191683016001600160401b038111848210176200029057839282916040528339610120918291810103126200028c576200005082620002a4565b6200005e60208401620002b9565b6200006c60408501620002b9565b60608501516001600160a01b0392919083811681036200028c5760808701519084821682036200028c57620000a460a08901620002a4565b92620000b360c08a01620002a4565b94620000c260e08b01620002a4565b96620000d3610100809c01620002a4565b98306080521660a05260c05260e0525f5460ff8160081c166200028c5760ff8082160362000251575b5086526101409081525f87526101609182526101809283526101a09384526101c0948552604051956158489788620002cc8939608051888181610d59015281816113d70152611594015260a05188818161080701528181611b4c01528181612fe8015281816131570152818161393101528181613a95015281816140a701528181614383015281816149b4015281816149f701528181614a1e01528181614e7601526150a0015260c05188818161169501528181611b080152818161311301526138c3015260e05188818161041e01528181611cda015261328401525187818161180401526156070152518681816107aa015281816153d90152615501015251858181611f82015281816151ae015261552d015251848181610d0d01528181612f9d01526148810152518381816118f601526148fd0152518281816114e10152614e130152518181816128b501526149250152f35b60ff90811916175f557f7f26b83ff96e1f2b6a682f133852f6798a09c465da95921460cefb3847402498602060405160ff8152a15f620000fc565b5f80fd5b634e487b7160e01b5f52604160045260245ffd5b51906001600160a01b03821682036200028c57565b519063ffffffff821682036200028c5756fe6080604052600436101561001a575b3615610018575f80fd5b005b5f3560e01c8063079bd2c7146103ef5780630c5d5f73146103ea5780630eaac9f0146103e55780631186ec33146103e057806311eac855146103db57806315348e441461036857806317fcb39b146103d65780631abeb4d7146103d15780631b3d5559146103cc578063272751c7146103c757806329cb924d146103c25780632cfc26c5146103bd5780632e378115146103b857806331a0edec146103b35780633659cfe6146103ae578063431023b8146103a9578063437b9116146103a4578063493a4f841461039f5780634e0fb8f51461039a5780634f1ef28614610395578063524633cc146103905780635249fef11461038b5780635285e0581461038657806352d1902d14610381578063541f4f141461037c57806357f6dcb8146103775780636068d6cb14610372578063647c576c1461036d5780636bbbcd2e146103685780636e40098314610363578063738b62e51461035e5780637419ffe814610359578063766e0703146103545780637aef642c1461034f5780637b9392321461031857806382e2c43f1461034a5780638a7860ce14610345578063927ede2d146103405780639748cf7c1461033b578063979f2bc2146103365780639963e5a81461033157806399cc29681461032c5780639a8a059214610327578063a1244c6714610322578063ac9650d81461031d578063add051a314610318578063b27a430014610313578063b370b7f51461030e578063bbca7db014610309578063bf10268d14610304578063c35c83fc146102ff578063ccfa5971146102fa578063ceb4c987146102f5578063dda52113146102f0578063ddd224f1146102eb578063de7eba78146102e6578063e3229211146102e1578063ee2a53f8146102dc578063f083d9b7146102d7578063f8c62274146102d2578063fbbba9ac146102cd5763fc8a584f0361000e5761298b565b612907565b6128d9565b612896565b612858565b6127dc565b6127ac565b612783565b61275d565b61273f565b6126bc565b612691565b61260d565b6124cc565b6124a5565b612466565b611a83565b6123c6565b61233c565b612322565b612274565b612074565b611fa6565b611f63565b611f35565b611ebd565b611d5b565b61193e565b61191a565b6118d7565b611828565b6117e8565b6107ce565b611711565b6116b9565b611679565b6115e4565b61157a565b611553565b611505565b6114c2565b611394565b61127a565b6111c5565b6110f8565b610e63565b610d31565b610cee565b610b88565b610b3f565b610b25565b610a86565b6109a4565b61082b565b6107e8565b61078b565b6106d2565b6104b8565b610460565b610402565b5f9103126103fe57565b5f80fd5b346103fe575f3660031901126103fe57602060405163ffffffff7f0000000000000000000000000000000000000000000000000000000000000000168152f35b6001600160a01b038116036103fe57565b359061045e82610442565b565b346103fe5760203660031901126103fe57602060043561047f81610442565b6001600160a01b038091165f52610c5d825260405f205416604051908152f35b63ffffffff8116036103fe57565b359061045e8261049f565b346103fe5760203660031901126103fe5763ffffffff6004356104da8161049f565b6104e26136c9565b6104ea6137db565b16610c5a8163ffffffff198254161790557fe486a5c4bd7b36eabbfe274c99b39130277417be8d2209b4dae04c4fba64ee3a5f80a26001606555005b634e487b7160e01b5f52604160045260245ffd5b6040810190811067ffffffffffffffff82111761055657604052565b610526565b67ffffffffffffffff811161055657604052565b6060810190811067ffffffffffffffff82111761055657604052565b6020810190811067ffffffffffffffff82111761055657604052565b60e0810190811067ffffffffffffffff82111761055657604052565b60a0810190811067ffffffffffffffff82111761055657604052565b90601f8019910116810190811067ffffffffffffffff82111761055657604052565b6040519060c0820182811067ffffffffffffffff82111761055657604052565b60405190610180820182811067ffffffffffffffff82111761055657604052565b604051906080820182811067ffffffffffffffff82111761055657604052565b67ffffffffffffffff811161055657601f01601f191660200190565b92919261068a82610662565b9161069860405193846105df565b8294818452818301116103fe578281602093845f960137010152565b9080601f830112156103fe578160206106cf9335910161067e565b90565b6101003660031901126103fe576004356106eb81610442565b6024356106f781610442565b6084358060070b81036103fe5760a435906107118261049f565b60c43567ffffffffffffffff81116103fe576107319036906004016106b4565b9261073a6137db565b60ff61086b5460e81c166107615761075a9460643591604435913361384a565b6001606555005b60046040517f5a65d188000000000000000000000000000000000000000000000000000000008152fd5b346103fe575f3660031901126103fe5760206040516001600160a01b037f0000000000000000000000000000000000000000000000000000000000000000168152f35b346103fe575f3660031901126103fe5760206040515f8152f35b346103fe575f3660031901126103fe5760206040516001600160a01b037f0000000000000000000000000000000000000000000000000000000000000000168152f35b346103fe575f3660031901126103fe5760206040517343000000000000000000000000000000000000028152f35b67ffffffffffffffff81116105565760051b60200190565b9080601f830112156103fe57602090823561088b81610859565b9361089960405195866105df565b81855260208086019260051b8201019283116103fe57602001905b8282106108c2575050505090565b813581529083019083016108b4565b9080601f830112156103fe5760209082356108eb81610859565b936108f960405195866105df565b81855260208086019260051b8201019283116103fe57602001905b828210610922575050505090565b838091833561093081610442565b815201910190610914565b929161094682610859565b9161095460405193846105df565b829481845260208094019160051b81019283116103fe57905b82821061097a5750505050565b8135815290830190830161096d565b9080601f830112156103fe578160206106cf9335910161093b565b6003196060368201126103fe576004356109bd8161049f565b60243567ffffffffffffffff928382116103fe5760c09082360301126103fe576109e5610601565b90806004013582526024810135602083015260448101358481116103fe57610a139060043691840101610871565b6040830152610a24606482016104ad565b6060830152610a3560848201610453565b608083015260a4810135908482116103fe576004610a5692369201016108d1565b60a08201526044359283116103fe57610a76610018933690600401610989565b916129bb565b801515036103fe57565b346103fe5760603660031901126103fe57600435610aa381610442565b602435907f0a21fdd43d0ad0c62689ee7230a47309a050755bcc52eba00310add65297692a60206001600160a01b0360443593610adf85610a7c565b610ae76136c9565b610aef6137db565b1692835f5261086d825260405f20855f52825260405f209015159060ff1981541660ff8316179055604051908152a36001606555005b346103fe575f3660031901126103fe576020604051428152f35b346103fe575f3660031901126103fe5760206040517f152eb71524aef34d838ab76573c14b1ebfa5e385d9ab29d7cf5398daa2438bd98152f35b90816101809103126103fe5790565b346103fe5760403660031901126103fe5760043567ffffffffffffffff81116103fe57610bb9903690600401610b79565b610bc16137db565b60ff61086b5460e01c16610cdd5760408101610bf9610bdf82612bae565b610bec6101408501612bb8565b63ffffffff421691613d5e565b9081610cc1575b50610c9757610c8d90610c79610c1e610c193684612bc2565b613d85565b9160c0610c72610c3060208401612bae565b610c3e610160850185612ca2565b939094610c49610601565b97610c543683612bc2565b89526020890152013560408701526001600160a01b03166060860152565b369161067e565b608082015260243560a08201523390613ebe565b6100186001606555565b60046040517fc3a9b9d0000000000000000000000000000000000000000000000000000000008152fd5b610ccb9150612bae565b6001600160a01b03163314155f610c00565b6004604051633d90fc5560e11b8152fd5b346103fe575f3660031901126103fe5760206040516001600160a01b037f0000000000000000000000000000000000000000000000000000000000000000168152f35b346103fe5760203660031901126103fe57600435610d4e81610442565b6001600160a01b03807f0000000000000000000000000000000000000000000000000000000000000000168030146103fe577f360894a13ba1a3210667c828492db98dca3e2076cc3735a920a3ca505d382bbc9082825416036103fe57610db36136c9565b60405191610dc08361058b565b5f83527f4910fdfa16fed3260ed0e7147f7cc6da11a60208b5b9406d12a635614ffd91435460ff1615610df95750505061001890614bb6565b6020600491604051928380926352d1902d60e01b825288165afa5f9181610e32575b50610e24575f80fd5b036103fe5761001891614a9d565b610e5591925060203d602011610e5c575b610e4d81836105df565b810190612e83565b905f610e1b565b503d610e43565b346103fe5760803660031901126103fe57600435610e808161049f565b60243590610e8d82610442565b604435610e9981610442565b60643591610ea683610442565b60ff5f5460081c16156103fe57610eed90610c5a624c4b4063ffffffff1982541617905561086b9063ffffffff60c01b1963ffffffff60c01b83549260c01b169116179055565b60405190610efa8261053a565b6009825260208201916820a1a927a9a996ab1960b91b8352640312e302e360dc1b6020604051610f298161053a565b60058152015260ff5f5460081c16156103fe5761001894610f8e93610f899251902061047f557f06c015bd22b4c69690933c1058878ebdfef31f9aaae40bbe86d8a09fe1b2972c61048055610f7c6145d4565b610f846145e3565b6145f7565b614669565b610c5a907fffffffffffffffff0000000000000000000000000000000000000000ffffffff77ffffffffffffffffffffffffffffffffffffffff0000000083549260201b169116179055565b9181601f840112156103fe5782359167ffffffffffffffff83116103fe576020808501948460051b0101116103fe57565b60206003198201126103fe576004359067ffffffffffffffff82116103fe5761103691600401610fda565b9091565b5f5b83811061104b5750505f910152565b818101518382015260200161103c565b906020916110748151809281855285808601910161103a565b601f01601f1916010190565b6020808201908083528351809252604092604081018260408560051b8401019601945f925b8584106110b6575050505050505090565b9091929394959685806110e7600193603f1986820301885286838d518051151584520151918185820152019061105b565b9901940194019295949391906110a5565b346103fe576111063661100b565b61110f81610859565b91604061111f60405194856105df565b828452601f1961112e84610859565b015f5b8181106111a25750505f5b83811061115557604051806111518782611080565b0390f35b8061119c61116560019388612df1565b515f80611173858a8a612e05565b90611182895180938193612e1c565b0390305af490611190612e29565b60208201529015159052565b0161113c565b60209083516111b08161053a565b5f815282606081830152828901015201611131565b346103fe5760403660031901126103fe576024356004356111e46136c9565b6111ec6137db565b61086c8054680100000000000000008110156105565763ffffffff916001820190558361121882612819565b5084600182015555167fc86ba04c55bc5eb2f2876b91c438849a296dbec7b08751c3074d92e04f0a77af5f80a46001606555005b9181601f840112156103fe5782359167ffffffffffffffff83116103fe57602083818601950101116103fe57565b346103fe5760c03660031901126103fe5760043561129781610442565b602435906112a48261049f565b6044356064356112b381610442565b67ffffffffffffffff916084358381116103fe576112d590369060040161124c565b93909460a4359182116103fe5761137863ffffffff7fb0a29aed3d389a1041194255878b423f7780be3ed2324d4693508c6ff189845e9661131d61138a95369060040161124c565b9390996113286137db565b61134f8c8c8b8b61134661133d368a8961067e565b938b369161067e565b9346908c614471565b6001600160a01b0392836040519a8b9a8b521660208a0152608060408a01526080890191612e58565b93868503606088015216981696612e58565b0390a36001606555005b60403660031901126103fe576004356113ac81610442565b60243567ffffffffffffffff81116103fe576113cc9036906004016106b4565b6001600160a01b03807f000000000000000000000000000000000000000000000000000000000000000016908130146103fe577f360894a13ba1a3210667c828492db98dca3e2076cc3735a920a3ca505d382bbc9181835416036103fe576114326136c9565b7f4910fdfa16fed3260ed0e7147f7cc6da11a60208b5b9406d12a635614ffd91435460ff16156114685750505061001890614bb6565b6020600491604051928380926352d1902d60e01b825288165afa5f91816114a1575b50611493575f80fd5b036103fe5761001891614b65565b6114bb91925060203d602011610e5c57610e4d81836105df565b905f61148a565b346103fe575f3660031901126103fe5760206040516001600160a01b037f0000000000000000000000000000000000000000000000000000000000000000168152f35b346103fe5760403660031901126103fe576001600160a01b0360043561152a81610442565b165f5261086d60205260405f206024355f52602052602060ff60405f2054166040519015158152f35b346103fe575f3660031901126103fe5760206001600160a01b036108695416604051908152f35b346103fe575f3660031901126103fe576001600160a01b037f00000000000000000000000000000000000000000000000000000000000000001630036103fe5760206040517f360894a13ba1a3210667c828492db98dca3e2076cc3735a920a3ca505d382bbc8152f35b6101203660031901126103fe576004356115fd81610442565b6024359061160a82610442565b6044359161161783610442565b60a4358060070b81036103fe5760c435916116318361049f565b60e43567ffffffffffffffff81116103fe576116519036906004016106b4565b9361165a6137db565b60ff61086b5460e81c166107615761075a95608435926064359261384a565b346103fe575f3660031901126103fe57602060405163ffffffff7f0000000000000000000000000000000000000000000000000000000000000000168152f35b346103fe575f3660031901126103fe57602060ff61086b5460e81c166040519015158152f35b60609060031901126103fe576004356116f78161049f565b9060243561170481610442565b906044356106cf81610442565b346103fe5761171f366116df565b5f54600881901c60ff16159392908490816117da575b81156117ba575b50156103fe576117609284611757600160ff195f5416175f55565b6117a357612eb5565b61176657005b61177461ff00195f54165f55565b604051600181527f7f26b83ff96e1f2b6a682f133852f6798a09c465da95921460cefb384740249890602090a1005b6117b561010061ff00195f5416175f55565b612eb5565b303b159150816117cc575b505f61173c565b6001915060ff16145f6117c5565b600160ff8216109150611735565b346103fe575f3660031901126103fe57602060405163ffffffff7f0000000000000000000000000000000000000000000000000000000000000000168152f35b346103fe5760203660031901126103fe577fe88463c2f254e2b070013a2dc7ee1e099f9bc00534cbdf03af551dc26ae49219602060043561186881610a7c565b6118706136c9565b6118786137db565b151561086b80547fffff00ffffffffffffffffffffffffffffffffffffffffffffffffffffffffff7dff00000000000000000000000000000000000000000000000000000000008460e81b169116179055604051908152a16001606555005b346103fe575f3660031901126103fe5760206040516001600160a01b037f0000000000000000000000000000000000000000000000000000000000000000168152f35b346103fe575f3660031901126103fe57602063ffffffff610c5a5416604051908152f35b6101603660031901126103fe5760043561195781610442565b6024359061196482610442565b60443561197081610442565b6064359061197d82610442565b60e43561198981610442565b61010435906119978261049f565b61012435926119a58461049f565b610144359667ffffffffffffffff88116103fe576119ca61001898369060040161124c565b97909660c4359360a43593608435936130a5565b906101806003198301126103fe576004356119f881610442565b91602435611a0581610442565b91604435611a1281610442565b91606435611a1f81610442565b916084359160a4359160c4359160e435611a3881610442565b9161010435611a468161049f565b9161012435611a548161049f565b9161014435611a628161049f565b91610164359067ffffffffffffffff82116103fe576110369160040161124c565b611a8c366119de565b959996989a92909493611aa19c98929c6137db565b61086b9960ff8b5460e81c1661076157611aef611aeb611ae48e611ad78d6001600160a01b03165f5261086d60205260405f2090565b905f5260205260405f2090565b5460ff1690565b1590565b611d315763ffffffff93611b05858416426132b1565b857f00000000000000000000000000000000000000000000000000000000000000001610611d0757848416428110908115611cd2575b50611ca8576001600160a01b039b8c7f0000000000000000000000000000000000000000000000000000000000000000168d8c1681811480611c9f575b15611c855750823403611c5b57803b156103fe575f60049160405192838092630d0e30db60e41b825234905af18015611c5657611c3d575b505b5460c01c63ffffffff169e8f611bc7906132cb565b611bee9061086b9063ffffffff60c01b1963ffffffff60c01b83549260c01b169116179055565b611bfa90428716613088565b946040519c8d9c169f169d611c0f9a8c6132e0565b037fa123dc29aebf7d0c3322c8eeb5b999e859f39937950ed31056532713d0de396f91a46100186001606555565b80611c4a611c509261055b565b806103f4565b5f611bb0565b612e78565b60046040517f6452a35d000000000000000000000000000000000000000000000000000000008152fd5b905034611c5b5782611c9a9130903390614577565b611bb2565b50341515611b78565b60046040517f582e3889000000000000000000000000000000000000000000000000000000008152fd5b9050611d00867f000000000000000000000000000000000000000000000000000000000000000016426132be565b105f611b3b565b60046040517ff722177f000000000000000000000000000000000000000000000000000000008152fd5b60046040517f2a58c4f3000000000000000000000000000000000000000000000000000000008152fd5b346103fe5760603660031901126103fe5767ffffffffffffffff6024358181116103fe57611d8d90369060040161124c565b916044359081116103fe57611da690369060040161124c565b9060405193602085019480611dbd4684888a613348565b0395611dd1601f19978881018452836105df565b6004359151902003611e93575f94611e00611e3893611df787611e44958a990190613365565b9581019061338b565b5160405193849160208301967f2e37811500000000000000000000000000000000000000000000000000000000885260248401613486565b039081018352826105df565b5190305af4611e51612e29565b9015611e5957005b611e8f906040519182917fb8fe37a70000000000000000000000000000000000000000000000000000000083526004830161349d565b0390fd5b60046040517f1e191e8e000000000000000000000000000000000000000000000000000000008152fd5b346103fe5760203660031901126103fe57600435611ed96136c9565b611ee16137db565b611eea81612819565b611f22576001815f80935501557f3569b846531b754c99cb80df3f49cd72fa6fe106aaee5ab8e0caf35a9d7ce88d5f80a26001606555005b634e487b7160e01b5f525f60045260245ffd5b346103fe575f3660031901126103fe5760206040517342000000000000000000000000000000000000078152f35b346103fe575f3660031901126103fe5760206040516001600160a01b037f0000000000000000000000000000000000000000000000000000000000000000168152f35b346103fe57611fb4366116df565b909160ff5f5460081c16156103fe57611fea9061086b9063ffffffff60c01b1963ffffffff60c01b83549260c01b169116179055565b604051611ff68161053a565b6009815260208101926820a1a927a9a996ab1960b91b8452640312e302e360dc1b60206040516120258161053a565b60058152015260ff5f5460081c16156103fe5761001893610f899251902061047f557f06c015bd22b4c69690933c1058878ebdfef31f9aaae40bbe86d8a09fe1b2972c61048055610f7c6145d4565b346103fe5760203660031901126103fe576004803567ffffffffffffffff81116103fe576120a59036908301610b79565b906120ae6137db565b60ff61086b5460e01c166122655763ffffffff80421660408401926120d284612bae565b906120ec836101408801936120e685612bb8565b90613d5e565b61223d576101208601928461210085612bb8565b161061222e57612113610c193688612bc2565b90612127825f5261087260205260405f2090565b5461220657507f923794976d026d6b119735adc163cb71decfc903e17c3dc226c00789593c04e193929161217061216a6121f9935f5261087260205260405f2090565b60019055565b61217c60608801612bae565b9661218960808201612bae565b966121b26121ac6121a66121a06101008601612bb8565b97612bb8565b94612bb8565b91612bae565b6121bb83612bae565b906121c860208501612bae565b926121d7610160860186612ca2565b9690956040519a8b9a169d60e08201359d60a060c0840135930135918c6134ae565b0390a36100186001606555565b6040517f012f9e44000000000000000000000000000000000000000000000000000000008152fd5b60405163d642b7d960e01b8152fd5b6040517f09deb9ec000000000000000000000000000000000000000000000000000000008152fd5b604051633d90fc5560e11b8152fd5b346103fe5760203660031901126103fe577f2d5b62420992e5a4afce0e77742636ca2608ef58289fd2e1baa5161ef6e7e41e60206004356122b481610a7c565b6122bc6136c9565b6122c46137db565b151561086b80547fffffff00ffffffffffffffffffffffffffffffffffffffffffffffffffffffff7cff000000000000000000000000000000000000000000000000000000008460e01b169116179055604051908152a16001606555005b346103fe575f3660031901126103fe576020604051468152f35b346103fe575f3660031901126103fe57602063ffffffff61086b5460c01c16604051908152f35b6020808201906020835283518092526040830192602060408460051b8301019501935f915b8483106123985750505050505090565b90919293949584806123b6600193603f198682030187528a5161105b565b9801930193019194939290612388565b346103fe576123d43661100b565b906123de82613516565b915f5b8181106123f657604051806111518682612363565b5f80612403838587612e05565b9061241360405180938193612e1c565b0390305af4612420612e29565b901561244657906001916124348287612df1565b5261243f8186612df1565b50016123e1565b60448151106103fe578060046103fe92015160248091830101910161355f565b346103fe5760203660031901126103fe57602060043561248581610442565b6001600160a01b038091165f52610c5c825260405f205416604051908152f35b346103fe575f3660031901126103fe5760206001600160a01b0361086a5416604051908152f35b346103fe576003196060368201126103fe5760043567ffffffffffffffff8082116103fe576060823603938401126103fe576024359061250b8261049f565b6044359081116103fe57612523903690600401610fda565b91909361252e6137db565b60048401359061018219018112156103fe57610c8d946125e39361255b6125dc9360043691890101612bc2565b9561257861257360808901516001600160a01b031690565b613a8b565b6125ca61258488613d85565b91604461259b60208b01516001600160a01b031690565b916101608b0151946125ab610601565b9b8c5260208c0152013560408a01526001600160a01b03166060890152565b60808701525f60a0870152369161093b565b90836146db565b6141cf565b60409060031901126103fe5760043561260081610442565b906024356106cf81610442565b346103fe5761261b366125e8565b906126246136c9565b61262c6137db565b6001600160a01b0380911691825f52610c5d6020526126648160405f20906001600160a01b03166001600160a01b0319825416179055565b16907fcb84c2022106a6f2b6f805d446f32fbfd2a528474364fa755f37dac1c0c1b6c85f80a36001606555005b346103fe5760203660031901126103fe576004355f52610872602052602060405f2054604051908152f35b346103fe5760c03660031901126103fe5767ffffffffffffffff6004358181116103fe576126ee903690600401610b79565b606435906126fb82610442565b6084358381116103fe5761271390369060040161124c565b9060a4359485116103fe5761272f61001895369060040161124c565b94909360443590602435906135be565b346103fe575f3660031901126103fe57602060405163ffffffff8152f35b346103fe575f3660031901126103fe57602060ff61086b5460e01c166040519015158152f35b346103fe575f3660031901126103fe5760206040516ec097ce7bc90715b34b9f10000000008152f35b346103fe5760203660031901126103fe5761075a6004356127cc81610442565b6127d46136c9565b610f846137db565b346103fe575f3660031901126103fe576020610c5a546001600160a01b0360405191831c168152f35b634e487b7160e01b5f52603260045260245ffd5b61086c908154811015612853576003915f52027f71cd7344f4eb2efc8e30291f6dbdb44d618ca368ea5425d217c1d604bf26b84d01905f90565b612805565b346103fe5760203660031901126103fe5760043561086c548110156103fe57612882604091612819565b506001815491015482519182526020820152f35b346103fe575f3660031901126103fe5760206040516001600160a01b037f0000000000000000000000000000000000000000000000000000000000000000168152f35b346103fe575f3660031901126103fe5760206040517343000000000000000000000000000000000000058152f35b346103fe57612915366125e8565b9061291e6136c9565b6129266137db565b6001600160a01b0380911691825f52610c5c60205261295e8160405f20906001600160a01b03166001600160a01b0319825416179055565b16907ff3dc137d2246f9b8abd0bb821e185ba01122c9b3ea3745ffca6208037674d6705f80a36001606555005b346103fe5760203660031901126103fe5761075a6004356129ab81610442565b6129b36136c9565b610f896137db565b916129c46137db565b60808201916129dd61257384516001600160a01b031690565b602081019182514603612ade57611aeb612a05918360016129fd89612819565b500154613b39565b612acd578060607ff8bd640004bcec1b89657020f561d0b070cbdf662d0b158db9dccb0a8301bfab920193612a47612a41865163ffffffff1690565b87613bf9565b612ac0845194612aa5612a97855195612a8760408201998a51612a6e8d5163ffffffff1690565b89516001600160a01b03169160a086019b8c5194613c66565b5192519751985163ffffffff1690565b93516001600160a01b031690565b935163ffffffff9485604051968796169a1698339386612b08565b0390a461045e6001606555565b600460405163582f497d60e11b8152fd5b60046040517f7a47c9a2000000000000000000000000000000000000000000000000000000008152fd5b95949392919060a0870190875260209060a08289015282518091528160c089019301905f5b818110612b9a575050506001600160a01b03809316604088015286820360608801528080855193848152019401925f905b838210612b8157505050505090608061045e929401906001600160a01b03169052565b8451811686529482019493820193600190910190612b5e565b825185529383019391830191600101612b2d565b356106cf81610442565b356106cf8161049f565b9190610180838203126103fe57612bd7610621565b92612be181610453565b8452612bef60208201610453565b6020850152612c0060408201610453565b6040850152612c1160608201610453565b6060850152612c2260808201610453565b608085015260a081013560a085015260c081013560c085015260e081013560e0850152610100612c538183016104ad565b90850152610120612c658183016104ad565b90850152610140612c778183016104ad565b90850152610160918282013567ffffffffffffffff81116103fe57612c9c92016106b4565b90830152565b903590601e19813603018212156103fe570180359067ffffffffffffffff82116103fe576020019181360383136103fe57565b91909160ff5f5460081c16156103fe57612d1f90610c5a624c4b4063ffffffff1982541617905561086b9063ffffffff60c01b1963ffffffff60c01b83549260c01b169116179055565b604051612d2b8161053a565b6009815260208101926820a1a927a9a996ab1960b91b8452640312e302e360dc1b6020604051612d5a8161053a565b60058152015260ff5f5460081c16156103fe57612da993610f899251902061047f557f06c015bd22b4c69690933c1058878ebdfef31f9aaae40bbe86d8a09fe1b2972c61048055610f7c6145d4565b61045e610c5a77deaddeaddeaddeaddeaddeaddeaddeaddead0000000000007fffffffffffffffff0000000000000000000000000000000000000000ffffffff825416179055565b80518210156128535760209160051b010190565b90821015612853576110369160051b810190612ca2565b908092918237015f815290565b3d15612e53573d90612e3a82610662565b91612e4860405193846105df565b82523d5f602084013e565b606090565b908060209392818452848401375f828201840152601f01601f1916010190565b6040513d5f823e3d90fd5b908160209103126103fe575190565b634e487b7160e01b5f52602160045260245ffd5b60031115612eb057565b612e92565b90612ec09291612cd5565b734300000000000000000000000000000000000002803b156103fe576040517ff098767a0000000000000000000000000000000000000000000000000000000081525f8160048183865af18015611c5657613061575b50803b156103fe575f80916004604051809481937f4e606c470000000000000000000000000000000000000000000000000000000083525af18015611c565761304e575b506040517f1a33757d00000000000000000000000000000000000000000000000000000000808252600260048301526020916001600160a01b039183826024815f7f000000000000000000000000000000000000000000000000000000000000000088165af1918215611c56578492613031575b506040519081526002600482015291829060249082905f907f0000000000000000000000000000000000000000000000000000000000000000165af18015611c5657613018575050565b8161302e92903d10610e5c57610e4d81836105df565b50565b61304790833d8511610e5c57610e4d81836105df565b505f612fce565b80611c4a61305b9261055b565b5f612f5a565b80611c4a61306e9261055b565b5f612f16565b634e487b7160e01b5f52601160045260245ffd5b91909163ffffffff808094169116019182116130a057565b613074565b9692999397909195989a9463ffffffff916130c38342169182613088565b916130cc6137db565b61086b9a60ff8c5460e81c1661076157613102611aeb611ae48f611ad78e6001600160a01b03165f5261086d60205260405f2090565b611d315761311083426132b1565b857f00000000000000000000000000000000000000000000000000000000000000001610611d075784841642811090811561327c575b50611ca8576001600160a01b039b8c7f0000000000000000000000000000000000000000000000000000000000000000168d8c1681811480613273575b156132595750823403611c5b57803b156103fe575f60049160405192838092630d0e30db60e41b825234905af18015611c5657613246575b505b5460c01c63ffffffff169e8f6131d2906132cb565b6131f99061086b9063ffffffff60c01b1963ffffffff60c01b83549260c01b169116179055565b6132039084613088565b946040519c8d9c169f169d6132189a8c6132e0565b037fa123dc29aebf7d0c3322c8eeb5b999e859f39937950ed31056532713d0de396f91a461045e6001606555565b80611c4a6132539261055b565b5f6131bb565b905034611c5b578261326e9130903390614577565b6131bd565b50341515613183565b90506132aa867f000000000000000000000000000000000000000000000000000000000000000016426132be565b105f613146565b919082039182116130a057565b919082018092116130a057565b63ffffffff8091169081146130a05760010190565b6001600160a01b03918216815291811660208301526040820192909252606081019290925263ffffffff928316608083015292821660a0820152921660c083015291821660e0820152911661010082015261014061012082018190526106cf93910191612e58565b93929160209161336091604087526040870191612e58565b930152565b906020828203126103fe57813567ffffffffffffffff81116103fe576106cf9201612bc2565b908160209103126103fe57604051906020820182811067ffffffffffffffff8211176105565760405235815290565b80516001600160a01b031682526106cf91610180906020838101516001600160a01b0316908201526040838101516001600160a01b0316908201526060838101516001600160a01b0316908201526080838101516001600160a01b03169082015260a083015160a082015260c083015160c082015260e083015160e0820152613451610100808501519083019063ffffffff169052565b6101208381015163ffffffff16908201526101408381015163ffffffff1690820152816101608094015193820152019061105b565b9291906133606020916040865260408601906133ba565b9060206106cf92818152019061105b565b96909193979295946106cf9b9995610140996001600160a01b0398898098818098168d521660208c015260408b015260608a015263ffffffff80921660808a01521660a08801521660c08601521660e084015216610100820152816101208201520191612e58565b9061352082610859565b61352d60405191826105df565b828152809261353e601f1991610859565b01905f5b82811061354e57505050565b806060602080938501015201613542565b6020818303126103fe5780519067ffffffffffffffff82116103fe570181601f820112156103fe57805161359281610662565b926135a060405194856105df565b818452602082840101116103fe576106cf916020808501910161103a565b94909693956135cb6137db565b60ff61086b5460e01c16610cdd57604086016135f66135e982612bae565b610bec6101408a01612bb8565b90816136ad575b50610c975761360c3687612bc2565b61361590613d85565b9761361e610601565b986136293689612bc2565b8a5260208a0152604089018490526001600160a01b03851660608a015261365136848a61067e565b60808a015260a089015261366486612bae565b966136726101008801612bb8565b92369061367e9261067e565b94369061368a9261067e565b9460e001359061369996614471565b336136a391613ebe565b61045e6001606555565b6136b79150612bae565b6001600160a01b03163314155f6135fd565b7342000000000000000000000000000000000000078033036137b1576020600491604051928380927f6e296e450000000000000000000000000000000000000000000000000000000082525afa908115611c56575f91613782575b506001600160a01b0361374f613743610869546001600160a01b031690565b6001600160a01b031690565b91160361375857565b60046040517f36a816d9000000000000000000000000000000000000000000000000000000008152fd5b6137a4915060203d6020116137aa575b61379c81836105df565b81019061476b565b5f613724565b503d613792565b60046040517f4a74df92000000000000000000000000000000000000000000000000000000008152fd5b6002606554146103fe576002606555565b92936106cf9695919294610140956001600160a01b0380951686525f60208701526040860152606085015263ffffffff809116608085015260a08401525f60c08401521660e08201525f61010082015281610120820152019061105b565b9195969394929092613878611aeb611ae488611ad78b6001600160a01b03165f5261086d60205260405f2090565b611d315760070b936706f05b59d3b2000061389286614780565b1015613a61576ec097ce7bc90715b34b9f10000000008211613a375763ffffffff936138c0858a16426132b1565b857f00000000000000000000000000000000000000000000000000000000000000001610611d075761086b5460c01c63ffffffff16986139256139028b6132cb565b61086b9063ffffffff60c01b1963ffffffff60c01b83549260c01b169116179055565b6001600160a01b0395867f00000000000000000000000000000000000000000000000000000000000000001694878b1686811480613a2e575b156139f15750803403611c5b57853b156103fe575f60049660405197888092630d0e30db60e41b825234905af18015611c56577fa123dc29aebf7d0c3322c8eeb5b999e859f39937950ed31056532713d0de396f996139d9976139c8926139de575b505b8261478f565b91604051988998169c169a876137ec565b0390a4565b80611c4a6139eb9261055b565b5f6139c0565b6139d996507fa123dc29aebf7d0c3322c8eeb5b999e859f39937950ed31056532713d0de396f99613a29836139c89330903390614577565b6139c2565b5034151561395e565b60046040517fc45b6b52000000000000000000000000000000000000000000000000000000008152fd5b60046040517fa13c425c000000000000000000000000000000000000000000000000000000008152fd5b6001600160a01b037f0000000000000000000000000000000000000000000000000000000000000000811691168114613ac15750565b47613ac95750565b4790803b156103fe575f90600460405180948193630d0e30db60e41b83525af18015611c56571561302e5761045e9061055b565b9081518082526020808093019301915f5b828110613b1c575050505090565b83516001600160a01b031685529381019392810192600101613b0e565b6040805160208082018181528551838501528186015160608401529285015160c0608084015280516101008401819052610120840198979692918201915f5b828110613be5575050505081613bce6106cf979860a084613ba86060613bdc9701518387019063ffffffff169052565b60808101516001600160a01b031660c08601520151838203603f190160e0850152613afd565b03601f1981018352826105df565b519020916147c5565b83518b529981019992810192600101613b78565b613c04600291612819565b500162ffffff8260081c16805f5281602052600160ff60405f205494161b8080941614613c3c575f5260205260405f20908154179055565b60046040517f954476d9000000000000000000000000000000000000000000000000000000008152fd5b9294939190938051825103613d34578151915f5b838110613ce6575050505082613c91575b50505050565b6001600160a01b0381613cc57f828fc203220356df8f072a91681caee7d5c75095e2a95e80ed5a14b384697f719386614872565b6040805195865233602087015291169463ffffffff1693a45f808080613c8b565b80613cf360019284612df1565b5180613d01575b5001613c7a565b613d2e90613d1f613d128488612df1565b516001600160a01b031690565b6001600160a01b038916614816565b5f613cfa565b60046040517fcd298b38000000000000000000000000000000000000000000000000000000008152fd5b9163ffffffff809116911610159081613d75575090565b6001600160a01b03915016151590565b604051613d9c81613bce6020820194469086613486565b51902090565b613dab82612ea6565b52565b906001600160a01b038251168152606080613dd8602085015160806020860152608085019061105b565b9360408101516040850152015191613def83612ea6565b015290565b9a97909695613e72966106cf9d9b9660808e613e6198613e819e986101809d6001600160a01b03998a80921685521660208401526040830152606082015201528c60a063ffffffff8094169101521660c08c01521660e08a01526101008901906001600160a01b03169052565b6001600160a01b0316610120870152565b8061014086015284019061105b565b91610160818403910152613dae565b906106cf94936080936001600160a01b0380931684526020840152166040820152816060820152019061105b565b90815190610120820190613ed6825163ffffffff1690565b63ffffffff429116106141be5760208401516001613efd825f5261087260205260405f2090565b54036141b7576001905b6002613f1c825f5261087260205260405f2090565b541461418d57613f35905f5261087260205260405f2090565b6002905560608401516001600160a01b031660808501516001600160a01b03169260a0860151918760c0880151948860a08301519660e082015197610100830151613f839063ffffffff1690565b9a5163ffffffff1661014084015163ffffffff16906040850151613fad906001600160a01b031690565b928551613fc0906001600160a01b031690565b946020870151613fd6906001600160a01b031690565b9661016001519760608a0151613ff2906001600160a01b031690565b996080810151906040015190614006610642565b6001600160a01b03909c168c5260208c015260408b015261402a9060608b01613da2565b6040519b6001600160a01b038d9c169f63ffffffff169e61404b9b8d613df4565b037f571749edf1d5c9599318cdbc4e28a6475d65e87fd3b2ddbe1e9a8d5e7a0f0ff791a4608001516001600160a01b0316906040810151906060810151614098906001600160a01b031690565b80916001600160a01b038516847f00000000000000000000000000000000000000000000000000000000000000006001600160a01b031682145f149360809461417d57506140e99130903390614577565b6140fc846001600160a01b0385166149dc565b0151908151151580614173575b6141135750505050565b6001600160a01b0316803b156103fe57614149935f809460405196879586948593633a5be8cb60e01b8552339160048601613e90565b03925af18015611c5657614160575b808080613c8b565b80611c4a61416d9261055b565b5f614158565b50803b1515614109565b614188923390614577565b6140fc565b60046040517f8f260c60000000000000000000000000000000000000000000000000000000008152fd5b5f90613f07565b600460405163d642b7d960e01b8152fd5b905f825161012081016141e6815163ffffffff1690565b63ffffffff429116106141be576020850151600261420d825f5261087260205260405f2090565b541461418d57614226905f5261087260205260405f2090565b6002905560608201516001600160a01b031660808301516001600160a01b03169060a08401519260c0850151918860a0810151938760e0810151956101008201516142749063ffffffff1690565b955163ffffffff1661014083015163ffffffff1660408401516001600160a01b03169184516142a9906001600160a01b031690565b9360208601516142bf906001600160a01b031690565b9561016001519660608901516142db906001600160a01b031690565b9860808101519060400151906142ef610642565b6001600160a01b03909b168b5260208b015260408a0152600260608a01526040519d63ffffffff8f9c169d6143249b8d613df4565b037f571749edf1d5c9599318cdbc4e28a6475d65e87fd3b2ddbe1e9a8d5e7a0f0ff7905f94a4608001516001600160a01b0316926040810151936060820151614373906001600160a01b031690565b916001600160a01b0390828216877f00000000000000000000000000000000000000000000000000000000000000008416820361445a57906080929187614446575b6143c291508487166149dc565b015192835115158061443c575b6143dd575b50505050509050565b1690813b15614438578361440b959660405196879586948593633a5be8cb60e01b8552339160048601613e90565b03925af18015611c5657614425575b8080808085946143d4565b80611c4a6144329261055b565b5f61441a565b8380fd5b50803b15156143cf565b6144539130903390614577565b5f886143b5565b60809291965061446c90865f98614816565b6143c2565b93926042936001600160a01b0361045e989760208151910120916040519363ffffffff60208601967f152eb71524aef34d838ab76573c14b1ebfa5e385d9ab29d7cf5398daa2438bd9885216604086015286606086015260808501521660a083015260c082015260c081526144e5816105a7565b5190209061047f549061048054906040519160208301937fc2f8787176b8ac6bf7215b4adcc1e069bf4ab82d9ab1df05a57a91d425935b6e85526040840152606083015260808201526080815261453b816105c3565b51902090604051917f19010000000000000000000000000000000000000000000000000000000000008352600283015260228201522090614bf9565b909261045e93604051937f23b872dd0000000000000000000000000000000000000000000000000000000060208601526001600160a01b0380921660248601521660448401526064830152606482526145cf826105c3565b614d08565b60ff5f5460081c16156103fe57565b60ff5f5460081c16156103fe576001606555565b6001600160a01b0316801561463f57610869816001600160a01b03198254161790557fa9e8c42c9e7fca7f62755189a16b2f5314d43d8fb24e91ba54e6d65f9314e8495f80a2565b60046040517fba97b39d000000000000000000000000000000000000000000000000000000008152fd5b6001600160a01b031680156146b15761086a816001600160a01b03198254161790557fa73e8909f8616742d7fe701153d82666f7b7cd480552e23ebb05d358c22fd04e5f80a2565b60046040517fb6061256000000000000000000000000000000000000000000000000000000008152fd5b91611aeb90614754928451604080960151918651916146f98361056f565b8252613bdc6147146020840192468452898501958652612819565b50549388519283916147396020840196602088525160608d86015260a08501906133ba565b9151606084015251608083015203601f1981018352826105df565b61475b5750565b6004905163582f497d60e11b8152fd5b908160209103126103fe57516106cf81610442565b5f811261478a5790565b5f0390565b90670de0b6b3a7640000915f8284039212838312811690848413901516176130a0578181029181830414901517156130a0570490565b929091905f915b845183101561480e576147df8386612df1565b5190818110156147fd575f52602052600160405f205b9201916147cc565b905f52602052600160405f206147f5565b915092501490565b6040517fa9059cbb0000000000000000000000000000000000000000000000000000000060208201526001600160a01b039092166024830152604482019290925261045e916145cf82606481015b03601f1981018452836105df565b906001600160a01b03808216817f0000000000000000000000000000000000000000000000000000000000000000168114809281156149b0575b506149a1575b501561499857610c5a5463ffffffff16734300000000000000000000000000000000000005803b156103fe5760405163540abf7360e01b81526001600160a01b0393841660048201527f0000000000000000000000000000000000000000000000000000000000000000841660248201527f00000000000000000000000000000000000000000000000000000000000000009093166044840152606483019390935263ffffffff16608482015260c060a48201525f60c482018190529091829081838160e481015b03925af18015611c565761498b5750565b80611c4a61045e9261055b565b61045e91615090565b6149aa90614d98565b5f6148b2565b90507f00000000000000000000000000000000000000000000000000000000000000001681145f6148ac565b6001600160a01b0390811690813b15614a1c579061045e92917f000000000000000000000000000000000000000000000000000000000000000016614816565b7f000000000000000000000000000000000000000000000000000000000000000016803b156103fe575f8091602460405180948193632e1a7d4d60e01b83528860048401525af18015611c5657614a8e575b508147106103fe575f80809381935af1614a86612e29565b50156103fe57565b614a979061055b565b5f614a6e565b614aa681614bb6565b6001600160a01b0381167fbc7cd75a20ee27fd9adebab32041f755214dbc6bffa90cc0225b39da2e5c2d3b5f80a2815115801590614b5e575b614ae7575050565b5f8061302e937f206661696c65640000000000000000000000000000000000000000000000000060408051614b1b8161056f565b602781527f416464726573733a206c6f772d6c6576656c2064656c65676174652063616c6c60208201520152602081519101845af4614b58612e29565b9161576e565b505f614adf565b614b6e81614bb6565b6001600160a01b0381167fbc7cd75a20ee27fd9adebab32041f755214dbc6bffa90cc0225b39da2e5c2d3b5f80a2815115801590614bae57614ae7575050565b506001614adf565b803b156103fe576001600160a01b037f360894a13ba1a3210667c828492db98dca3e2076cc3735a920a3ca505d382bbc91166001600160a01b0319825416179055565b614c03838361573d565b6005819592951015612eb057159384614cf2575b508315614c53575b50505015614c2957565b60046040517f938a1821000000000000000000000000000000000000000000000000000000008152fd5b5f929350908291604051614ca481613bce60208201947f1626ba7e00000000000000000000000000000000000000000000000000000000998a8752602484015260406044840152606483019061105b565b51915afa90614cb1612e29565b82614ce4575b82614cc7575b50505f8080614c1f565b614cdc91925060208082518301019101612e83565b145f80614cbd565b915060208251101591614cb7565b6001600160a01b0383811691161493505f614c17565b905f806001600160a01b03614d5f9416927f5361666545524332303a206c6f772d6c6576656c2063616c6c206661696c65646020604051614d488161053a565b818152015260208151910182855af1614b58612e29565b8051908115918215614d75575b5050156103fe57565b81925090602091810103126103fe5760200151614d9181610a7c565b5f80614d6c565b604080517fe12f3a61000000000000000000000000000000000000000000000000000000008152306004820152916001600160a01b03919060209083168185602481845afa948515611c56575f95615071575b5082517faad3ec960000000000000000000000000000000000000000000000000000000081527f00000000000000000000000000000000000000000000000000000000000000006001600160a01b038116600483015260248201879052959083816044815f875af1908115611c56575f91615054575b5080910361501b57808291614fe5575b5050837f00000000000000000000000000000000000000000000000000000000000000001614614ea15750505050565b81517f860043b60000000000000000000000000000000000000000000000000000000081523060048201526001600160a01b03851660248201527343000000000000000000000000000000000000029082816044815f865af1908115611c56575f91614fc8575b5083517f662aa11d0000000000000000000000000000000000000000000000000000000081523060048201526001600160a01b0387166024820152918390839060449082905f905af1918215611c5657614f6a935f93614fa9575b50506132be565b918215613c8b5790519182525f9216907ff3055bc8d92d9c8d2f12b45d112dd345cd2cfd17292b8d65c5642ac6f912dfd790602090a35f808080613c8b565b614fc0929350803d10610e5c57610e4d81836105df565b905f80614f63565b614fdf9150833d8511610e5c57610e4d81836105df565b5f614f08565b8451908152858716907ff3055bc8d92d9c8d2f12b45d112dd345cd2cfd17292b8d65c5642ac6f912dfd790602090a3805f614e71565b83517f7817528a0000000000000000000000000000000000000000000000000000000081526001600160a01b0383166004820152602490fd5b61506b9150843d8611610e5c57610e4d81836105df565b5f614e61565b615089919550823d8411610e5c57610e4d81836105df565b935f614deb565b906001600160a01b0390818116907f0000000000000000000000000000000000000000000000000000000000000000831682036151aa5750803b156103fe575f6040518092632e1a7d4d60e01b82528183816150f489600483019190602083019252565b03925af18015611c5657615197575b50610c5a549161511c61086a546001600160a01b031690565b73420000000000000000000000000000000000001090813b156103fe57604051631474f2a960e31b81526001600160a01b03602087901c90951685166004820152931660248401526044830182905263ffffffff909316606483015260a060848301525f60a483018190529192839182908160c4810161497a565b80611c4a6151a49261055b565b5f615103565b91807f0000000000000000000000000000000000000000000000000000000000000000161515806153d5575b156151fa5750505061045e906151f561086a546001600160a01b031690565b6154ff565b8061522761521a856001600160a01b03165f52610c5c60205260405f2090565b546001600160a01b031690565b166153b1577342000000000000000000000000000000000000105b169061526661374361521a856001600160a01b03165f52610c5d60205260405f2090565b1561532b57838261527692615400565b61529561521a836001600160a01b03165f52610c5d60205260405f2090565b906152a961086a546001600160a01b031690565b916152ba610c5a5463ffffffff1690565b823b156103fe5760405163540abf7360e01b81526001600160a01b0395861660048201529185166024830152929093166044840152606483019390935263ffffffff16608482015260c060a48201525f60c482018190529091829060e490829084905af18015611c565761498b5750565b509161534061086a546001600160a01b031690565b92615351610c5a5463ffffffff1690565b93813b156103fe575f809461497a60405197889687958694631474f2a960e31b8652600486019260c0949163ffffffff936001600160a01b038092168652166020850152604084015216606082015260a060808201525f60a08201520190565b6153d061521a846001600160a01b03165f52610c5c60205260405f2090565b615242565b50807f00000000000000000000000000000000000000000000000000000000000000001682146151d6565b6040517fdd62ed3e0000000000000000000000000000000000000000000000000000000081523060048201526001600160a01b03831660248201529192602083806044810103816001600160a01b0386165afa928315611c56575f936154be575b5082018092116130a0576040517f095ea7b30000000000000000000000000000000000000000000000000000000060208201526001600160a01b039093166024840152604483019190915261045e91906145cf8260648101614864565b6154d891935060203d602011610e5c57610e4d81836105df565b915f615461565b908160209103126103fe575167ffffffffffffffff811681036103fe5790565b7f0000000000000000000000000000000000000000000000000000000000000000906001600160a01b0392837f00000000000000000000000000000000000000000000000000000000000000001691615559828486615400565b604092604051937fcb75c11c0000000000000000000000000000000000000000000000000000000085526020936004908587600481875afa978815611c565789975f99615716575b506040517fa56ec6320000000000000000000000000000000000000000000000000000000081526001600160a01b03918916918216600482015299909887918b9190829081602481015b0392165afa988915611c56575f996156f7575b509390951696947f000000000000000000000000000000000000000000000000000000000000000093805b61563857505050505050505050565b6156a290878111156156f15787905b84517f6fd3504e00000000000000000000000000000000000000000000000000000000815284810183815263ffffffff89166020820152604081018d90526001600160a01b038c166060820152909389918591829160800190565b03815f8a5af1928315611c56576156be936156c4575b506132b1565b80615629565b6156e390893d8b116156ea575b6156db81836105df565b8101906154df565b505f6156b8565b503d6156d1565b80615647565b61570f919950863d8811610e5c57610e4d81836105df565b975f6155fe565b87919950886157346155eb92843d86116137aa5761379c81836105df565b9a9250506155a1565b9060418151145f146157655761103691602082015190606060408401519301515f1a90615797565b50505f90600290565b90156157885781511561577f575090565b3b156103fe5790565b5080519081156103fe57602001fd5b7f7fffffffffffffffffffffffffffffff5d576e7357a4501ddfe92f46681b20a08411615807576020935f9360ff60809460405194855216868401526040830152606082015282805260015afa15611c56575f516001600160a01b038116156157ff57905f90565b505f90600190565b505050505f9060039056fea26469706673582212207ba430dbf25e3ee0a03b2a00472034b57a44b1bc52add4fb0ba363b4b048f47264736f6c63430008170033"
}