{
  "address": "0x2D509190Ed0172ba588407D4c2df918F955Cc6E1",
  "abi": [
    {
      "inputs": [
        {
          "internalType": "address",
          "name": "_wrappedNativeTokenAddress",
          "type": "address"
        },
        {
          "internalType": "uint32",
          "name": "_depositQuoteTimeBuffer",
          "type": "uint32"
        },
        {
          "internalType": "uint32",
          "name": "_fillDeadlineBuffer",
          "type": "uint32"
        },
        {
          "internalType": "contract IERC20",
          "name": "_l2Usdc",
          "type": "address"
        },
        {
          "internalType": "contract ITokenMessenger",
          "name": "_cctpTokenMessenger",
          "type": "address"
        },
        {
          "internalType": "address",
          "name": "usdb",
          "type": "address"
        },
        {
          "internalType": "address",
          "name": "l1Usdb",
          "type": "address"
        },
        {
          "internalType": "address",
          "name": "yieldRecipient",
          "type": "address"
        }
      ],
      "stateMutability": "nonpayable",
      "type": "constructor"
    },
    {
      "inputs": [],
      "name": "ClaimedMerkleLeaf",
      "type": "error"
    },
    {
      "inputs": [],
      "name": "DepositsArePaused",
      "type": "error"
    },
    {
      "inputs": [],
      "name": "DisabledRoute",
      "type": "error"
    },
    {
      "inputs": [],
      "name": "ExpiredFillDeadline",
      "type": "error"
    },
    {
      "inputs": [],
      "name": "FillsArePaused",
      "type": "error"
    },
    {
      "inputs": [],
      "name": "InvalidChainId",
      "type": "error"
    },
    {
      "inputs": [
        {
          "internalType": "address",
          "name": "token",
          "type": "address"
        }
      ],
      "name": "InvalidClaimedAmount",
      "type": "error"
    },
    {
      "inputs": [],
      "name": "InvalidCrossDomainAdmin",
      "type": "error"
    },
    {
      "inputs": [],
      "name": "InvalidDepositorSignature",
      "type": "error"
    },
    {
      "inputs": [],
      "name": "InvalidExclusiveRelayer",
      "type": "error"
    },
    {
      "inputs": [],
      "name": "InvalidExclusivityDeadline",
      "type": "error"
    },
    {
      "inputs": [],
      "name": "InvalidFillDeadline",
      "type": "error"
    },
    {
      "inputs": [],
      "name": "InvalidHubPool",
      "type": "error"
    },
    {
      "inputs": [],
      "name": "InvalidMerkleLeaf",
      "type": "error"
    },
    {
      "inputs": [],
      "name": "InvalidMerkleProof",
      "type": "error"
    },
    {
      "inputs": [],
      "name": "InvalidPayoutAdjustmentPct",
      "type": "error"
    },
    {
      "inputs": [],
      "name": "InvalidQuoteTimestamp",
      "type": "error"
    },
    {
      "inputs": [],
      "name": "InvalidRelayerFeePct",
      "type": "error"
    },
    {
      "inputs": [],
      "name": "InvalidSlowFillRequest",
      "type": "error"
    },
    {
      "inputs": [],
      "name": "MaxTransferSizeExceeded",
      "type": "error"
    },
    {
      "inputs": [],
      "name": "MsgValueDoesNotMatchInputAmount",
      "type": "error"
    },
    {
      "inputs": [],
      "name": "NoSlowFillsInExclusivityWindow",
      "type": "error"
    },
    {
      "inputs": [],
      "name": "NotCrossChainCall",
      "type": "error"
    },
    {
      "inputs": [],
      "name": "NotCrossDomainAdmin",
      "type": "error"
    },
    {
      "inputs": [],
      "name": "NotEOA",
      "type": "error"
    },
    {
      "inputs": [],
      "name": "NotExclusiveRelayer",
      "type": "error"
    },
    {
      "inputs": [],
      "name": "RelayFilled",
      "type": "error"
    },
    {
      "anonymous": false,
      "inputs": [
        {
          "indexed": false,
          "internalType": "address",
          "name": "previousAdmin",
          "type": "address"
        },
        {
          "indexed": false,
          "internalType": "address",
          "name": "newAdmin",
          "type": "address"
        }
      ],
      "name": "AdminChanged",
      "type": "event"
    },
    {
      "anonymous": false,
      "inputs": [
        {
          "indexed": true,
          "internalType": "address",
          "name": "beacon",
          "type": "address"
        }
      ],
      "name": "BeaconUpgraded",
      "type": "event"
    },
    {
      "anonymous": false,
      "inputs": [
        {
          "indexed": true,
          "internalType": "uint256",
          "name": "rootBundleId",
          "type": "uint256"
        }
      ],
      "name": "EmergencyDeleteRootBundle",
      "type": "event"
    },
    {
      "anonymous": false,
      "inputs": [
        {
          "indexed": true,
          "internalType": "address",
          "name": "originToken",
          "type": "address"
        },
        {
          "indexed": true,
          "internalType": "uint256",
          "name": "destinationChainId",
          "type": "uint256"
        },
        {
          "indexed": false,
          "internalType": "bool",
          "name": "enabled",
          "type": "bool"
        }
      ],
      "name": "EnabledDepositRoute",
      "type": "event"
    },
    {
      "anonymous": false,
      "inputs": [
        {
          "indexed": false,
          "internalType": "uint256",
          "name": "amountToReturn",
          "type": "uint256"
        },
        {
          "indexed": true,
          "internalType": "uint256",
          "name": "chainId",
          "type": "uint256"
        },
        {
          "indexed": false,
          "internalType": "uint256[]",
          "name": "refundAmounts",
          "type": "uint256[]"
        },
        {
          "indexed": true,
          "internalType": "uint32",
          "name": "rootBundleId",
          "type": "uint32"
        },
        {
          "indexed": true,
          "internalType": "uint32",
          "name": "leafId",
          "type": "uint32"
        },
        {
          "indexed": false,
          "internalType": "address",
          "name": "l2TokenAddress",
          "type": "address"
        },
        {
          "indexed": false,
          "internalType": "address[]",
          "name": "refundAddresses",
          "type": "address[]"
        },
        {
          "indexed": false,
          "internalType": "address",
          "name": "caller",
          "type": "address"
        }
      ],
      "name": "ExecutedRelayerRefundRoot",
      "type": "event"
    },
    {
      "anonymous": false,
      "inputs": [
        {
          "indexed": false,
          "internalType": "uint256",
          "name": "amount",
          "type": "uint256"
        },
        {
          "indexed": false,
          "internalType": "uint256",
          "name": "totalFilledAmount",
          "type": "uint256"
        },
        {
          "indexed": false,
          "internalType": "uint256",
          "name": "fillAmount",
          "type": "uint256"
        },
        {
          "indexed": false,
          "internalType": "uint256",
          "name": "repaymentChainId",
          "type": "uint256"
        },
        {
          "indexed": true,
          "internalType": "uint256",
          "name": "originChainId",
          "type": "uint256"
        },
        {
          "indexed": false,
          "internalType": "uint256",
          "name": "destinationChainId",
          "type": "uint256"
        },
        {
          "indexed": false,
          "internalType": "int64",
          "name": "relayerFeePct",
          "type": "int64"
        },
        {
          "indexed": false,
          "internalType": "int64",
          "name": "realizedLpFeePct",
          "type": "int64"
        },
        {
          "indexed": true,
          "internalType": "uint32",
          "name": "depositId",
          "type": "uint32"
        },
        {
          "indexed": false,
          "internalType": "address",
          "name": "destinationToken",
          "type": "address"
        },
        {
          "indexed": false,
          "internalType": "address",
          "name": "relayer",
          "type": "address"
        },
        {
          "indexed": true,
          "internalType": "address",
          "name": "depositor",
          "type": "address"
        },
        {
          "indexed": false,
          "internalType": "address",
          "name": "recipient",
          "type": "address"
        },
        {
          "indexed": false,
          "internalType": "bytes",
          "name": "message",
          "type": "bytes"
        },
        {
          "components": [
            {
              "internalType": "address",
              "name": "recipient",
              "type": "address"
            },
            {
              "internalType": "bytes",
              "name": "message",
              "type": "bytes"
            },
            {
              "internalType": "int64",
              "name": "relayerFeePct",
              "type": "int64"
            },
            {
              "internalType": "bool",
              "name": "isSlowRelay",
              "type": "bool"
            },
            {
              "internalType": "int256",
              "name": "payoutAdjustmentPct",
              "type": "int256"
            }
          ],
          "indexed": false,
          "internalType": "struct SpokePool.RelayExecutionInfo",
          "name": "updatableRelayData",
          "type": "tuple"
        }
      ],
      "name": "FilledRelay",
      "type": "event"
    },
    {
      "anonymous": false,
      "inputs": [
        {
          "indexed": false,
          "internalType": "address",
          "name": "inputToken",
          "type": "address"
        },
        {
          "indexed": false,
          "internalType": "address",
          "name": "outputToken",
          "type": "address"
        },
        {
          "indexed": false,
          "internalType": "uint256",
          "name": "inputAmount",
          "type": "uint256"
        },
        {
          "indexed": false,
          "internalType": "uint256",
          "name": "outputAmount",
          "type": "uint256"
        },
        {
          "indexed": false,
          "internalType": "uint256",
          "name": "repaymentChainId",
          "type": "uint256"
        },
        {
          "indexed": true,
          "internalType": "uint256",
          "name": "originChainId",
          "type": "uint256"
        },
        {
          "indexed": true,
          "internalType": "uint32",
          "name": "depositId",
          "type": "uint32"
        },
        {
          "indexed": false,
          "internalType": "uint32",
          "name": "fillDeadline",
          "type": "uint32"
        },
        {
          "indexed": false,
          "internalType": "uint32",
          "name": "exclusivityDeadline",
          "type": "uint32"
        },
        {
          "indexed": false,
          "internalType": "address",
          "name": "exclusiveRelayer",
          "type": "address"
        },
        {
          "indexed": true,
          "internalType": "address",
          "name": "relayer",
          "type": "address"
        },
        {
          "indexed": false,
          "internalType": "address",
          "name": "depositor",
          "type": "address"
        },
        {
          "indexed": false,
          "internalType": "address",
          "name": "recipient",
          "type": "address"
        },
        {
          "indexed": false,
          "internalType": "bytes",
          "name": "message",
          "type": "bytes"
        },
        {
          "components": [
            {
              "internalType": "address",
              "name": "updatedRecipient",
              "type": "address"
            },
            {
              "internalType": "bytes",
              "name": "updatedMessage",
              "type": "bytes"
            },
            {
              "internalType": "uint256",
              "name": "updatedOutputAmount",
              "type": "uint256"
            },
            {
              "internalType": "enum V3SpokePoolInterface.FillType",
              "name": "fillType",
              "type": "uint8"
            }
          ],
          "indexed": false,
          "internalType": "struct V3SpokePoolInterface.V3RelayExecutionEventInfo",
          "name": "relayExecutionInfo",
          "type": "tuple"
        }
      ],
      "name": "FilledV3Relay",
      "type": "event"
    },
    {
      "anonymous": false,
      "inputs": [
        {
          "indexed": false,
          "internalType": "uint256",
          "name": "amount",
          "type": "uint256"
        },
        {
          "indexed": false,
          "internalType": "uint256",
          "name": "originChainId",
          "type": "uint256"
        },
        {
          "indexed": true,
          "internalType": "uint256",
          "name": "destinationChainId",
          "type": "uint256"
        },
        {
          "indexed": false,
          "internalType": "int64",
          "name": "relayerFeePct",
          "type": "int64"
        },
        {
          "indexed": true,
          "internalType": "uint32",
          "name": "depositId",
          "type": "uint32"
        },
        {
          "indexed": false,
          "internalType": "uint32",
          "name": "quoteTimestamp",
          "type": "uint32"
        },
        {
          "indexed": false,
          "internalType": "address",
          "name": "originToken",
          "type": "address"
        },
        {
          "indexed": false,
          "internalType": "address",
          "name": "recipient",
          "type": "address"
        },
        {
          "indexed": true,
          "internalType": "address",
          "name": "depositor",
          "type": "address"
        },
        {
          "indexed": false,
          "internalType": "bytes",
          "name": "message",
          "type": "bytes"
        }
      ],
      "name": "FundsDeposited",
      "type": "event"
    },
    {
      "anonymous": false,
      "inputs": [
        {
          "indexed": false,
          "internalType": "uint8",
          "name": "version",
          "type": "uint8"
        }
      ],
      "name": "Initialized",
      "type": "event"
    },
    {
      "anonymous": false,
      "inputs": [
        {
          "indexed": false,
          "internalType": "bool",
          "name": "isPaused",
          "type": "bool"
        }
      ],
      "name": "PausedDeposits",
      "type": "event"
    },
    {
      "anonymous": false,
      "inputs": [
        {
          "indexed": false,
          "internalType": "bool",
          "name": "isPaused",
          "type": "bool"
        }
      ],
      "name": "PausedFills",
      "type": "event"
    },
    {
      "anonymous": false,
      "inputs": [
        {
          "indexed": true,
          "internalType": "uint32",
          "name": "rootBundleId",
          "type": "uint32"
        },
        {
          "indexed": true,
          "internalType": "bytes32",
          "name": "relayerRefundRoot",
          "type": "bytes32"
        },
        {
          "indexed": true,
          "internalType": "bytes32",
          "name": "slowRelayRoot",
          "type": "bytes32"
        }
      ],
      "name": "RelayedRootBundle",
      "type": "event"
    },
    {
      "anonymous": false,
      "inputs": [
        {
          "indexed": false,
          "internalType": "int64",
          "name": "newRelayerFeePct",
          "type": "int64"
        },
        {
          "indexed": true,
          "internalType": "uint32",
          "name": "depositId",
          "type": "uint32"
        },
        {
          "indexed": true,
          "internalType": "address",
          "name": "depositor",
          "type": "address"
        },
        {
          "indexed": false,
          "internalType": "address",
          "name": "updatedRecipient",
          "type": "address"
        },
        {
          "indexed": false,
          "internalType": "bytes",
          "name": "updatedMessage",
          "type": "bytes"
        },
        {
          "indexed": false,
          "internalType": "bytes",
          "name": "depositorSignature",
          "type": "bytes"
        }
      ],
      "name": "RequestedSpeedUpDeposit",
      "type": "event"
    },
    {
      "anonymous": false,
      "inputs": [
        {
          "indexed": false,
          "internalType": "uint256",
          "name": "updatedOutputAmount",
          "type": "uint256"
        },
        {
          "indexed": true,
          "internalType": "uint32",
          "name": "depositId",
          "type": "uint32"
        },
        {
          "indexed": true,
          "internalType": "address",
          "name": "depositor",
          "type": "address"
        },
        {
          "indexed": false,
          "internalType": "address",
          "name": "updatedRecipient",
          "type": "address"
        },
        {
          "indexed": false,
          "internalType": "bytes",
          "name": "updatedMessage",
          "type": "bytes"
        },
        {
          "indexed": false,
          "internalType": "bytes",
          "name": "depositorSignature",
          "type": "bytes"
        }
      ],
      "name": "RequestedSpeedUpV3Deposit",
      "type": "event"
    },
    {
      "anonymous": false,
      "inputs": [
        {
          "indexed": false,
          "internalType": "address",
          "name": "inputToken",
          "type": "address"
        },
        {
          "indexed": false,
          "internalType": "address",
          "name": "outputToken",
          "type": "address"
        },
        {
          "indexed": false,
          "internalType": "uint256",
          "name": "inputAmount",
          "type": "uint256"
        },
        {
          "indexed": false,
          "internalType": "uint256",
          "name": "outputAmount",
          "type": "uint256"
        },
        {
          "indexed": true,
          "internalType": "uint256",
          "name": "originChainId",
          "type": "uint256"
        },
        {
          "indexed": true,
          "internalType": "uint32",
          "name": "depositId",
          "type": "uint32"
        },
        {
          "indexed": false,
          "internalType": "uint32",
          "name": "fillDeadline",
          "type": "uint32"
        },
        {
          "indexed": false,
          "internalType": "uint32",
          "name": "exclusivityDeadline",
          "type": "uint32"
        },
        {
          "indexed": false,
          "internalType": "address",
          "name": "exclusiveRelayer",
          "type": "address"
        },
        {
          "indexed": false,
          "internalType": "address",
          "name": "depositor",
          "type": "address"
        },
        {
          "indexed": false,
          "internalType": "address",
          "name": "recipient",
          "type": "address"
        },
        {
          "indexed": false,
          "internalType": "bytes",
          "name": "message",
          "type": "bytes"
        }
      ],
      "name": "RequestedV3SlowFill",
      "type": "event"
    },
    {
      "anonymous": false,
      "inputs": [
        {
          "indexed": true,
          "internalType": "address",
          "name": "newHubPool",
          "type": "address"
        }
      ],
      "name": "SetHubPool",
      "type": "event"
    },
    {
      "anonymous": false,
      "inputs": [
        {
          "indexed": true,
          "internalType": "uint32",
          "name": "newL1Gas",
          "type": "uint32"
        }
      ],
      "name": "SetL1Gas",
      "type": "event"
    },
    {
      "anonymous": false,
      "inputs": [
        {
          "indexed": true,
          "internalType": "address",
          "name": "l2Token",
          "type": "address"
        },
        {
          "indexed": true,
          "internalType": "address",
          "name": "tokenBridge",
          "type": "address"
        }
      ],
      "name": "SetL2TokenBridge",
      "type": "event"
    },
    {
      "anonymous": false,
      "inputs": [
        {
          "indexed": true,
          "internalType": "address",
          "name": "l2Token",
          "type": "address"
        },
        {
          "indexed": true,
          "internalType": "address",
          "name": "l1Token",
          "type": "address"
        }
      ],
      "name": "SetRemoteL1Token",
      "type": "event"
    },
    {
      "anonymous": false,
      "inputs": [
        {
          "indexed": true,
          "internalType": "address",
          "name": "newAdmin",
          "type": "address"
        }
      ],
      "name": "SetXDomainAdmin",
      "type": "event"
    },
    {
      "anonymous": false,
      "inputs": [
        {
          "indexed": false,
          "internalType": "uint256",
          "name": "amountToReturn",
          "type": "uint256"
        },
        {
          "indexed": true,
          "internalType": "uint256",
          "name": "chainId",
          "type": "uint256"
        },
        {
          "indexed": true,
          "internalType": "uint32",
          "name": "leafId",
          "type": "uint32"
        },
        {
          "indexed": true,
          "internalType": "address",
          "name": "l2TokenAddress",
          "type": "address"
        },
        {
          "indexed": false,
          "internalType": "address",
          "name": "caller",
          "type": "address"
        }
      ],
      "name": "TokensBridged",
      "type": "event"
    },
    {
      "anonymous": false,
      "inputs": [
        {
          "indexed": true,
          "internalType": "address",
          "name": "implementation",
          "type": "address"
        }
      ],
      "name": "Upgraded",
      "type": "event"
    },
    {
      "anonymous": false,
      "inputs": [
        {
          "indexed": false,
          "internalType": "address",
          "name": "inputToken",
          "type": "address"
        },
        {
          "indexed": false,
          "internalType": "address",
          "name": "outputToken",
          "type": "address"
        },
        {
          "indexed": false,
          "internalType": "uint256",
          "name": "inputAmount",
          "type": "uint256"
        },
        {
          "indexed": false,
          "internalType": "uint256",
          "name": "outputAmount",
          "type": "uint256"
        },
        {
          "indexed": true,
          "internalType": "uint256",
          "name": "destinationChainId",
          "type": "uint256"
        },
        {
          "indexed": true,
          "internalType": "uint32",
          "name": "depositId",
          "type": "uint32"
        },
        {
          "indexed": false,
          "internalType": "uint32",
          "name": "quoteTimestamp",
          "type": "uint32"
        },
        {
          "indexed": false,
          "internalType": "uint32",
          "name": "fillDeadline",
          "type": "uint32"
        },
        {
          "indexed": false,
          "internalType": "uint32",
          "name": "exclusivityDeadline",
          "type": "uint32"
        },
        {
          "indexed": true,
          "internalType": "address",
          "name": "depositor",
          "type": "address"
        },
        {
          "indexed": false,
          "internalType": "address",
          "name": "recipient",
          "type": "address"
        },
        {
          "indexed": false,
          "internalType": "address",
          "name": "exclusiveRelayer",
          "type": "address"
        },
        {
          "indexed": false,
          "internalType": "bytes",
          "name": "message",
          "type": "bytes"
        }
      ],
      "name": "V3FundsDeposited",
      "type": "event"
    },
    {
      "anonymous": false,
      "inputs": [
        {
          "indexed": true,
          "internalType": "address",
          "name": "recipient",
          "type": "address"
        },
        {
          "indexed": true,
          "internalType": "address",
          "name": "token",
          "type": "address"
        },
        {
          "indexed": false,
          "internalType": "uint256",
          "name": "amount",
          "type": "uint256"
        }
      ],
      "name": "YieldClaimed",
      "type": "event"
    },
    {
      "inputs": [],
      "name": "BLAST_YIELD_CONTRACT",
      "outputs": [
        {
          "internalType": "contract IBlast",
          "name": "",
          "type": "address"
        }
      ],
      "stateMutability": "view",
      "type": "function"
    },
    {
      "inputs": [],
      "name": "EMPTY_RELAYER",
      "outputs": [
        {
          "internalType": "address",
          "name": "",
          "type": "address"
        }
      ],
      "stateMutability": "view",
      "type": "function"
    },
    {
      "inputs": [],
      "name": "EMPTY_REPAYMENT_CHAIN_ID",
      "outputs": [
        {
          "internalType": "uint256",
          "name": "",
          "type": "uint256"
        }
      ],
      "stateMutability": "view",
      "type": "function"
    },
    {
      "inputs": [],
      "name": "INFINITE_FILL_DEADLINE",
      "outputs": [
        {
          "internalType": "uint32",
          "name": "",
          "type": "uint32"
        }
      ],
      "stateMutability": "view",
      "type": "function"
    },
    {
      "inputs": [],
      "name": "L1_USDB",
      "outputs": [
        {
          "internalType": "address",
          "name": "",
          "type": "address"
        }
      ],
      "stateMutability": "view",
      "type": "function"
    },
    {
      "inputs": [],
      "name": "L2_BLAST_BRIDGE",
      "outputs": [
        {
          "internalType": "address",
          "name": "",
          "type": "address"
        }
      ],
      "stateMutability": "view",
      "type": "function"
    },
    {
      "inputs": [],
      "name": "MAX_TRANSFER_SIZE",
      "outputs": [
        {
          "internalType": "uint256",
          "name": "",
          "type": "uint256"
        }
      ],
      "stateMutability": "view",
      "type": "function"
    },
    {
      "inputs": [],
      "name": "MESSENGER",
      "outputs": [
        {
          "internalType": "address",
          "name": "",
          "type": "address"
        }
      ],
      "stateMutability": "view",
      "type": "function"
    },
    {
      "inputs": [],
      "name": "UPDATE_V3_DEPOSIT_DETAILS_HASH",
      "outputs": [
        {
          "internalType": "bytes32",
          "name": "",
          "type": "bytes32"
        }
      ],
      "stateMutability": "view",
      "type": "function"
    },
    {
      "inputs": [],
      "name": "USDB",
      "outputs": [
        {
          "internalType": "address",
          "name": "",
          "type": "address"
        }
      ],
      "stateMutability": "view",
      "type": "function"
    },
    {
      "inputs": [],
      "name": "YIELD_RECIPIENT",
      "outputs": [
        {
          "internalType": "address",
          "name": "",
          "type": "address"
        }
      ],
      "stateMutability": "view",
      "type": "function"
    },
    {
      "inputs": [
        {
          "internalType": "uint32",
          "name": "_initialDepositId",
          "type": "uint32"
        },
        {
          "internalType": "address",
          "name": "_crossDomainAdmin",
          "type": "address"
        },
        {
          "internalType": "address",
          "name": "_hubPool",
          "type": "address"
        },
        {
          "internalType": "address",
          "name": "_l2Eth",
          "type": "address"
        }
      ],
      "name": "__OvmSpokePool_init",
      "outputs": [],
      "stateMutability": "nonpayable",
      "type": "function"
    },
    {
      "inputs": [
        {
          "internalType": "uint32",
          "name": "_initialDepositId",
          "type": "uint32"
        },
        {
          "internalType": "address",
          "name": "_crossDomainAdmin",
          "type": "address"
        },
        {
          "internalType": "address",
          "name": "_hubPool",
          "type": "address"
        }
      ],
      "name": "__SpokePool_init",
      "outputs": [],
      "stateMutability": "nonpayable",
      "type": "function"
    },
    {
      "inputs": [],
      "name": "cctpTokenMessenger",
      "outputs": [
        {
          "internalType": "contract ITokenMessenger",
          "name": "",
          "type": "address"
        }
      ],
      "stateMutability": "view",
      "type": "function"
    },
    {
      "inputs": [],
      "name": "chainId",
      "outputs": [
        {
          "internalType": "uint256",
          "name": "",
          "type": "uint256"
        }
      ],
      "stateMutability": "view",
      "type": "function"
    },
    {
      "inputs": [],
      "name": "crossDomainAdmin",
      "outputs": [
        {
          "internalType": "address",
          "name": "",
          "type": "address"
        }
      ],
      "stateMutability": "view",
      "type": "function"
    },
    {
      "inputs": [
        {
          "internalType": "address",
          "name": "recipient",
          "type": "address"
        },
        {
          "internalType": "address",
          "name": "originToken",
          "type": "address"
        },
        {
          "internalType": "uint256",
          "name": "amount",
          "type": "uint256"
        },
        {
          "internalType": "uint256",
          "name": "destinationChainId",
          "type": "uint256"
        },
        {
          "internalType": "int64",
          "name": "relayerFeePct",
          "type": "int64"
        },
        {
          "internalType": "uint32",
          "name": "quoteTimestamp",
          "type": "uint32"
        },
        {
          "internalType": "bytes",
          "name": "message",
          "type": "bytes"
        },
        {
          "internalType": "uint256",
          "name": "",
          "type": "uint256"
        }
      ],
      "name": "deposit",
      "outputs": [],
      "stateMutability": "payable",
      "type": "function"
    },
    {
      "inputs": [
        {
          "internalType": "address",
          "name": "depositor",
          "type": "address"
        },
        {
          "internalType": "address",
          "name": "recipient",
          "type": "address"
        },
        {
          "internalType": "address",
          "name": "inputToken",
          "type": "address"
        },
        {
          "internalType": "address",
          "name": "outputToken",
          "type": "address"
        },
        {
          "internalType": "uint256",
          "name": "inputAmount",
          "type": "uint256"
        },
        {
          "internalType": "uint256",
          "name": "outputAmount",
          "type": "uint256"
        },
        {
          "internalType": "uint256",
          "name": "destinationChainId",
          "type": "uint256"
        },
        {
          "internalType": "address",
          "name": "exclusiveRelayer",
          "type": "address"
        },
        {
          "internalType": "uint32",
          "name": "quoteTimestamp",
          "type": "uint32"
        },
        {
          "internalType": "uint32",
          "name": "fillDeadline",
          "type": "uint32"
        },
        {
          "internalType": "uint32",
          "name": "exclusivityDeadlineOffset",
          "type": "uint32"
        },
        {
          "internalType": "bytes",
          "name": "message",
          "type": "bytes"
        }
      ],
      "name": "depositExclusive",
      "outputs": [],
      "stateMutability": "payable",
      "type": "function"
    },
    {
      "inputs": [
        {
          "internalType": "address",
          "name": "depositor",
          "type": "address"
        },
        {
          "internalType": "address",
          "name": "recipient",
          "type": "address"
        },
        {
          "internalType": "address",
          "name": "originToken",
          "type": "address"
        },
        {
          "internalType": "uint256",
          "name": "amount",
          "type": "uint256"
        },
        {
          "internalType": "uint256",
          "name": "destinationChainId",
          "type": "uint256"
        },
        {
          "internalType": "int64",
          "name": "relayerFeePct",
          "type": "int64"
        },
        {
          "internalType": "uint32",
          "name": "quoteTimestamp",
          "type": "uint32"
        },
        {
          "internalType": "bytes",
          "name": "message",
          "type": "bytes"
        },
        {
          "internalType": "uint256",
          "name": "",
          "type": "uint256"
        }
      ],
      "name": "depositFor",
      "outputs": [],
      "stateMutability": "payable",
      "type": "function"
    },
    {
      "inputs": [],
      "name": "depositQuoteTimeBuffer",
      "outputs": [
        {
          "internalType": "uint32",
          "name": "",
          "type": "uint32"
        }
      ],
      "stateMutability": "view",
      "type": "function"
    },
    {
      "inputs": [
        {
          "internalType": "address",
          "name": "depositor",
          "type": "address"
        },
        {
          "internalType": "address",
          "name": "recipient",
          "type": "address"
        },
        {
          "internalType": "address",
          "name": "inputToken",
          "type": "address"
        },
        {
          "internalType": "address",
          "name": "outputToken",
          "type": "address"
        },
        {
          "internalType": "uint256",
          "name": "inputAmount",
          "type": "uint256"
        },
        {
          "internalType": "uint256",
          "name": "outputAmount",
          "type": "uint256"
        },
        {
          "internalType": "uint256",
          "name": "destinationChainId",
          "type": "uint256"
        },
        {
          "internalType": "address",
          "name": "exclusiveRelayer",
          "type": "address"
        },
        {
          "internalType": "uint32",
          "name": "quoteTimestamp",
          "type": "uint32"
        },
        {
          "internalType": "uint32",
          "name": "fillDeadline",
          "type": "uint32"
        },
        {
          "internalType": "uint32",
          "name": "exclusivityDeadline",
          "type": "uint32"
        },
        {
          "internalType": "bytes",
          "name": "message",
          "type": "bytes"
        }
      ],
      "name": "depositV3",
      "outputs": [],
      "stateMutability": "payable",
      "type": "function"
    },
    {
      "inputs": [
        {
          "internalType": "address",
          "name": "depositor",
          "type": "address"
        },
        {
          "internalType": "address",
          "name": "recipient",
          "type": "address"
        },
        {
          "internalType": "address",
          "name": "inputToken",
          "type": "address"
        },
        {
          "internalType": "address",
          "name": "outputToken",
          "type": "address"
        },
        {
          "internalType": "uint256",
          "name": "inputAmount",
          "type": "uint256"
        },
        {
          "internalType": "uint256",
          "name": "outputAmount",
          "type": "uint256"
        },
        {
          "internalType": "uint256",
          "name": "destinationChainId",
          "type": "uint256"
        },
        {
          "internalType": "address",
          "name": "exclusiveRelayer",
          "type": "address"
        },
        {
          "internalType": "uint32",
          "name": "fillDeadlineOffset",
          "type": "uint32"
        },
        {
          "internalType": "uint32",
          "name": "exclusivityDeadline",
          "type": "uint32"
        },
        {
          "internalType": "bytes",
          "name": "message",
          "type": "bytes"
        }
      ],
      "name": "depositV3Now",
      "outputs": [],
      "stateMutability": "payable",
      "type": "function"
    },
    {
      "inputs": [
        {
          "internalType": "uint256",
          "name": "rootBundleId",
          "type": "uint256"
        }
      ],
      "name": "emergencyDeleteRootBundle",
      "outputs": [],
      "stateMutability": "nonpayable",
      "type": "function"
    },
    {
      "inputs": [
        {
          "internalType": "address",
          "name": "",
          "type": "address"
        },
        {
          "internalType": "uint256",
          "name": "",
          "type": "uint256"
        }
      ],
      "name": "enabledDepositRoutes",
      "outputs": [
        {
          "internalType": "bool",
          "name": "",
          "type": "bool"
        }
      ],
      "stateMutability": "view",
      "type": "function"
    },
    {
      "inputs": [
        {
          "internalType": "uint32",
          "name": "rootBundleId",
          "type": "uint32"
        },
        {
          "components": [
            {
              "internalType": "uint256",
              "name": "amountToReturn",
              "type": "uint256"
            },
            {
              "internalType": "uint256",
              "name": "chainId",
              "type": "uint256"
            },
            {
              "internalType": "uint256[]",
              "name": "refundAmounts",
              "type": "uint256[]"
            },
            {
              "internalType": "uint32",
              "name": "leafId",
              "type": "uint32"
            },
            {
              "internalType": "address",
              "name": "l2TokenAddress",
              "type": "address"
            },
            {
              "internalType": "address[]",
              "name": "refundAddresses",
              "type": "address[]"
            }
          ],
          "internalType": "struct SpokePoolInterface.RelayerRefundLeaf",
          "name": "relayerRefundLeaf",
          "type": "tuple"
        },
        {
          "internalType": "bytes32[]",
          "name": "proof",
          "type": "bytes32[]"
        }
      ],
      "name": "executeRelayerRefundLeaf",
      "outputs": [],
      "stateMutability": "payable",
      "type": "function"
    },
    {
      "inputs": [
        {
          "components": [
            {
              "components": [
                {
                  "internalType": "address",
                  "name": "depositor",
                  "type": "address"
                },
                {
                  "internalType": "address",
                  "name": "recipient",
                  "type": "address"
                },
                {
                  "internalType": "address",
                  "name": "exclusiveRelayer",
                  "type": "address"
                },
                {
                  "internalType": "address",
                  "name": "inputToken",
                  "type": "address"
                },
                {
                  "internalType": "address",
                  "name": "outputToken",
                  "type": "address"
                },
                {
                  "internalType": "uint256",
                  "name": "inputAmount",
                  "type": "uint256"
                },
                {
                  "internalType": "uint256",
                  "name": "outputAmount",
                  "type": "uint256"
                },
                {
                  "internalType": "uint256",
                  "name": "originChainId",
                  "type": "uint256"
                },
                {
                  "internalType": "uint32",
                  "name": "depositId",
                  "type": "uint32"
                },
                {
                  "internalType": "uint32",
                  "name": "fillDeadline",
                  "type": "uint32"
                },
                {
                  "internalType": "uint32",
                  "name": "exclusivityDeadline",
                  "type": "uint32"
                },
                {
                  "internalType": "bytes",
                  "name": "message",
                  "type": "bytes"
                }
              ],
              "internalType": "struct V3SpokePoolInterface.V3RelayData",
              "name": "relayData",
              "type": "tuple"
            },
            {
              "internalType": "uint256",
              "name": "chainId",
              "type": "uint256"
            },
            {
              "internalType": "uint256",
              "name": "updatedOutputAmount",
              "type": "uint256"
            }
          ],
          "internalType": "struct V3SpokePoolInterface.V3SlowFill",
          "name": "slowFillLeaf",
          "type": "tuple"
        },
        {
          "internalType": "uint32",
          "name": "rootBundleId",
          "type": "uint32"
        },
        {
          "internalType": "bytes32[]",
          "name": "proof",
          "type": "bytes32[]"
        }
      ],
      "name": "executeV3SlowRelayLeaf",
      "outputs": [],
      "stateMutability": "nonpayable",
      "type": "function"
    },
    {
      "inputs": [],
      "name": "fillDeadlineBuffer",
      "outputs": [
        {
          "internalType": "uint32",
          "name": "",
          "type": "uint32"
        }
      ],
      "stateMutability": "view",
      "type": "function"
    },
    {
      "inputs": [
        {
          "internalType": "bytes32",
          "name": "",
          "type": "bytes32"
        }
      ],
      "name": "fillStatuses",
      "outputs": [
        {
          "internalType": "uint256",
          "name": "",
          "type": "uint256"
        }
      ],
      "stateMutability": "view",
      "type": "function"
    },
    {
      "inputs": [
        {
          "components": [
            {
              "internalType": "address",
              "name": "depositor",
              "type": "address"
            },
            {
              "internalType": "address",
              "name": "recipient",
              "type": "address"
            },
            {
              "internalType": "address",
              "name": "exclusiveRelayer",
              "type": "address"
            },
            {
              "internalType": "address",
              "name": "inputToken",
              "type": "address"
            },
            {
              "internalType": "address",
              "name": "outputToken",
              "type": "address"
            },
            {
              "internalType": "uint256",
              "name": "inputAmount",
              "type": "uint256"
            },
            {
              "internalType": "uint256",
              "name": "outputAmount",
              "type": "uint256"
            },
            {
              "internalType": "uint256",
              "name": "originChainId",
              "type": "uint256"
            },
            {
              "internalType": "uint32",
              "name": "depositId",
              "type": "uint32"
            },
            {
              "internalType": "uint32",
              "name": "fillDeadline",
              "type": "uint32"
            },
            {
              "internalType": "uint32",
              "name": "exclusivityDeadline",
              "type": "uint32"
            },
            {
              "internalType": "bytes",
              "name": "message",
              "type": "bytes"
            }
          ],
          "internalType": "struct V3SpokePoolInterface.V3RelayData",
          "name": "relayData",
          "type": "tuple"
        },
        {
          "internalType": "uint256",
          "name": "repaymentChainId",
          "type": "uint256"
        }
      ],
      "name": "fillV3Relay",
      "outputs": [],
      "stateMutability": "nonpayable",
      "type": "function"
    },
    {
      "inputs": [
        {
          "components": [
            {
              "internalType": "address",
              "name": "depositor",
              "type": "address"
            },
            {
              "internalType": "address",
              "name": "recipient",
              "type": "address"
            },
            {
              "internalType": "address",
              "name": "exclusiveRelayer",
              "type": "address"
            },
            {
              "internalType": "address",
              "name": "inputToken",
              "type": "address"
            },
            {
              "internalType": "address",
              "name": "outputToken",
              "type": "address"
            },
            {
              "internalType": "uint256",
              "name": "inputAmount",
              "type": "uint256"
            },
            {
              "internalType": "uint256",
              "name": "outputAmount",
              "type": "uint256"
            },
            {
              "internalType": "uint256",
              "name": "originChainId",
              "type": "uint256"
            },
            {
              "internalType": "uint32",
              "name": "depositId",
              "type": "uint32"
            },
            {
              "internalType": "uint32",
              "name": "fillDeadline",
              "type": "uint32"
            },
            {
              "internalType": "uint32",
              "name": "exclusivityDeadline",
              "type": "uint32"
            },
            {
              "internalType": "bytes",
              "name": "message",
              "type": "bytes"
            }
          ],
          "internalType": "struct V3SpokePoolInterface.V3RelayData",
          "name": "relayData",
          "type": "tuple"
        },
        {
          "internalType": "uint256",
          "name": "repaymentChainId",
          "type": "uint256"
        },
        {
          "internalType": "uint256",
          "name": "updatedOutputAmount",
          "type": "uint256"
        },
        {
          "internalType": "address",
          "name": "updatedRecipient",
          "type": "address"
        },
        {
          "internalType": "bytes",
          "name": "updatedMessage",
          "type": "bytes"
        },
        {
          "internalType": "bytes",
          "name": "depositorSignature",
          "type": "bytes"
        }
      ],
      "name": "fillV3RelayWithUpdatedDeposit",
      "outputs": [],
      "stateMutability": "nonpayable",
      "type": "function"
    },
    {
      "inputs": [],
      "name": "getCurrentTime",
      "outputs": [
        {
          "internalType": "uint256",
          "name": "",
          "type": "uint256"
        }
      ],
      "stateMutability": "view",
      "type": "function"
    },
    {
      "inputs": [],
      "name": "hubPool",
      "outputs": [
        {
          "internalType": "address",
          "name": "",
          "type": "address"
        }
      ],
      "stateMutability": "view",
      "type": "function"
    },
    {
      "inputs": [
        {
          "internalType": "uint32",
          "name": "_initialDepositId",
          "type": "uint32"
        },
        {
          "internalType": "address",
          "name": "_crossDomainAdmin",
          "type": "address"
        },
        {
          "internalType": "address",
          "name": "_hubPool",
          "type": "address"
        }
      ],
      "name": "initialize",
      "outputs": [],
      "stateMutability": "nonpayable",
      "type": "function"
    },
    {
      "inputs": [],
      "name": "l1Gas",
      "outputs": [
        {
          "internalType": "uint32",
          "name": "",
          "type": "uint32"
        }
      ],
      "stateMutability": "view",
      "type": "function"
    },
    {
      "inputs": [],
      "name": "l2Eth",
      "outputs": [
        {
          "internalType": "address",
          "name": "",
          "type": "address"
        }
      ],
      "stateMutability": "view",
      "type": "function"
    },
    {
      "inputs": [
        {
          "internalType": "bytes[]",
          "name": "data",
          "type": "bytes[]"
        }
      ],
      "name": "multicall",
      "outputs": [
        {
          "internalType": "bytes[]",
          "name": "results",
          "type": "bytes[]"
        }
      ],
      "stateMutability": "nonpayable",
      "type": "function"
    },
    {
      "inputs": [],
      "name": "numberOfDeposits",
      "outputs": [
        {
          "internalType": "uint32",
          "name": "",
          "type": "uint32"
        }
      ],
      "stateMutability": "view",
      "type": "function"
    },
    {
      "inputs": [
        {
          "internalType": "bool",
          "name": "pause",
          "type": "bool"
        }
      ],
      "name": "pauseDeposits",
      "outputs": [],
      "stateMutability": "nonpayable",
      "type": "function"
    },
    {
      "inputs": [
        {
          "internalType": "bool",
          "name": "pause",
          "type": "bool"
        }
      ],
      "name": "pauseFills",
      "outputs": [],
      "stateMutability": "nonpayable",
      "type": "function"
    },
    {
      "inputs": [],
      "name": "pausedDeposits",
      "outputs": [
        {
          "internalType": "bool",
          "name": "",
          "type": "bool"
        }
      ],
      "stateMutability": "view",
      "type": "function"
    },
    {
      "inputs": [],
      "name": "pausedFills",
      "outputs": [
        {
          "internalType": "bool",
          "name": "",
          "type": "bool"
        }
      ],
      "stateMutability": "view",
      "type": "function"
    },
    {
      "inputs": [],
      "name": "proxiableUUID",
      "outputs": [
        {
          "internalType": "bytes32",
          "name": "",
          "type": "bytes32"
        }
      ],
      "stateMutability": "view",
      "type": "function"
    },
    {
      "inputs": [],
      "name": "recipientCircleDomainId",
      "outputs": [
        {
          "internalType": "uint32",
          "name": "",
          "type": "uint32"
        }
      ],
      "stateMutability": "view",
      "type": "function"
    },
    {
      "inputs": [
        {
          "internalType": "bytes32",
          "name": "relayerRefundRoot",
          "type": "bytes32"
        },
        {
          "internalType": "bytes32",
          "name": "slowRelayRoot",
          "type": "bytes32"
        }
      ],
      "name": "relayRootBundle",
      "outputs": [],
      "stateMutability": "nonpayable",
      "type": "function"
    },
    {
      "inputs": [
        {
          "internalType": "address",
          "name": "",
          "type": "address"
        }
      ],
      "name": "remoteL1Tokens",
      "outputs": [
        {
          "internalType": "address",
          "name": "",
          "type": "address"
        }
      ],
      "stateMutability": "view",
      "type": "function"
    },
    {
      "inputs": [
        {
          "components": [
            {
              "internalType": "address",
              "name": "depositor",
              "type": "address"
            },
            {
              "internalType": "address",
              "name": "recipient",
              "type": "address"
            },
            {
              "internalType": "address",
              "name": "exclusiveRelayer",
              "type": "address"
            },
            {
              "internalType": "address",
              "name": "inputToken",
              "type": "address"
            },
            {
              "internalType": "address",
              "name": "outputToken",
              "type": "address"
            },
            {
              "internalType": "uint256",
              "name": "inputAmount",
              "type": "uint256"
            },
            {
              "internalType": "uint256",
              "name": "outputAmount",
              "type": "uint256"
            },
            {
              "internalType": "uint256",
              "name": "originChainId",
              "type": "uint256"
            },
            {
              "internalType": "uint32",
              "name": "depositId",
              "type": "uint32"
            },
            {
              "internalType": "uint32",
              "name": "fillDeadline",
              "type": "uint32"
            },
            {
              "internalType": "uint32",
              "name": "exclusivityDeadline",
              "type": "uint32"
            },
            {
              "internalType": "bytes",
              "name": "message",
              "type": "bytes"
            }
          ],
          "internalType": "struct V3SpokePoolInterface.V3RelayData",
          "name": "relayData",
          "type": "tuple"
        }
      ],
      "name": "requestV3SlowFill",
      "outputs": [],
      "stateMutability": "nonpayable",
      "type": "function"
    },
    {
      "inputs": [
        {
          "internalType": "uint256",
          "name": "",
          "type": "uint256"
        }
      ],
      "name": "rootBundles",
      "outputs": [
        {
          "internalType": "bytes32",
          "name": "slowRelayRoot",
          "type": "bytes32"
        },
        {
          "internalType": "bytes32",
          "name": "relayerRefundRoot",
          "type": "bytes32"
        }
      ],
      "stateMutability": "view",
      "type": "function"
    },
    {
      "inputs": [
        {
          "internalType": "address",
          "name": "newCrossDomainAdmin",
          "type": "address"
        }
      ],
      "name": "setCrossDomainAdmin",
      "outputs": [],
      "stateMutability": "nonpayable",
      "type": "function"
    },
    {
      "inputs": [
        {
          "internalType": "address",
          "name": "originToken",
          "type": "address"
        },
        {
          "internalType": "uint256",
          "name": "destinationChainId",
          "type": "uint256"
        },
        {
          "internalType": "bool",
          "name": "enabled",
          "type": "bool"
        }
      ],
      "name": "setEnableRoute",
      "outputs": [],
      "stateMutability": "nonpayable",
      "type": "function"
    },
    {
      "inputs": [
        {
          "internalType": "address",
          "name": "newHubPool",
          "type": "address"
        }
      ],
      "name": "setHubPool",
      "outputs": [],
      "stateMutability": "nonpayable",
      "type": "function"
    },
    {
      "inputs": [
        {
          "internalType": "uint32",
          "name": "newl1Gas",
          "type": "uint32"
        }
      ],
      "name": "setL1GasLimit",
      "outputs": [],
      "stateMutability": "nonpayable",
      "type": "function"
    },
    {
      "inputs": [
        {
          "internalType": "address",
          "name": "l2Token",
          "type": "address"
        },
        {
          "internalType": "address",
          "name": "l1Token",
          "type": "address"
        }
      ],
      "name": "setRemoteL1Token",
      "outputs": [],
      "stateMutability": "nonpayable",
      "type": "function"
    },
    {
      "inputs": [
        {
          "internalType": "address",
          "name": "l2Token",
          "type": "address"
        },
        {
          "internalType": "address",
          "name": "tokenBridge",
          "type": "address"
        }
      ],
      "name": "setTokenBridge",
      "outputs": [],
      "stateMutability": "nonpayable",
      "type": "function"
    },
    {
      "inputs": [
        {
          "internalType": "address",
          "name": "depositor",
          "type": "address"
        },
        {
          "internalType": "uint32",
          "name": "depositId",
          "type": "uint32"
        },
        {
          "internalType": "uint256",
          "name": "updatedOutputAmount",
          "type": "uint256"
        },
        {
          "internalType": "address",
          "name": "updatedRecipient",
          "type": "address"
        },
        {
          "internalType": "bytes",
          "name": "updatedMessage",
          "type": "bytes"
        },
        {
          "internalType": "bytes",
          "name": "depositorSignature",
          "type": "bytes"
        }
      ],
      "name": "speedUpV3Deposit",
      "outputs": [],
      "stateMutability": "nonpayable",
      "type": "function"
    },
    {
      "inputs": [
        {
          "internalType": "address",
          "name": "",
          "type": "address"
        }
      ],
      "name": "tokenBridges",
      "outputs": [
        {
          "internalType": "address",
          "name": "",
          "type": "address"
        }
      ],
      "stateMutability": "view",
      "type": "function"
    },
    {
      "inputs": [
        {
          "internalType": "bytes[]",
          "name": "data",
          "type": "bytes[]"
        }
      ],
      "name": "tryMulticall",
      "outputs": [
        {
          "components": [
            {
              "internalType": "bool",
              "name": "success",
              "type": "bool"
            },
            {
              "internalType": "bytes",
              "name": "returnData",
              "type": "bytes"
            }
          ],
          "internalType": "struct MultiCallerUpgradeable.Result[]",
          "name": "results",
          "type": "tuple[]"
        }
      ],
      "stateMutability": "nonpayable",
      "type": "function"
    },
    {
      "inputs": [
        {
          "internalType": "address",
          "name": "newImplementation",
          "type": "address"
        }
      ],
      "name": "upgradeTo",
      "outputs": [],
      "stateMutability": "nonpayable",
      "type": "function"
    },
    {
      "inputs": [
        {
          "internalType": "address",
          "name": "newImplementation",
          "type": "address"
        },
        {
          "internalType": "bytes",
          "name": "data",
          "type": "bytes"
        }
      ],
      "name": "upgradeToAndCall",
      "outputs": [],
      "stateMutability": "payable",
      "type": "function"
    },
    {
      "inputs": [],
      "name": "usdcToken",
      "outputs": [
        {
          "internalType": "contract IERC20",
          "name": "",
          "type": "address"
        }
      ],
      "stateMutability": "view",
      "type": "function"
    },
    {
      "inputs": [],
      "name": "wrappedNativeToken",
      "outputs": [
        {
          "internalType": "contract WETH9Interface",
          "name": "",
          "type": "address"
        }
      ],
      "stateMutability": "view",
      "type": "function"
    },
    {
      "stateMutability": "payable",
      "type": "receive"
    }
  ],
  "numDeployments": 2,
  "solcInputHash": "0ef1c91a148da224e4a6508845d8da2a",
  "bytecode": "0x6101c0346200026a576200597438819003601f8101601f191683016001600160401b038111848210176200026e57839282916040528339610100928391810103126200026a57620000508162000282565b6200005e6020830162000297565b916200006d6040820162000297565b6060820151936001600160a01b039182861686036200026a5760808401519183831683036200026a57620000a460a0860162000282565b93620000c160e0620000b960c0890162000282565b970162000282565b96306080521660a05260c05260e0525f5460ff8160081c166200026a5760ff808216036200022f575b506101209485526101409081525f86526101609182526101809283526101a0938452604051946156ca9687620002aa8839608051878181610d60015281816113d90152611596015260a0518781816107ec01528181611b6301528181612ef301528181613079015281816136ef0152818161385301528181613fa7015281816142770152818161483601528181614879015281816148a001528181614cf80152614f22015260c05187818161169701528181611b0a015281816130200152613681015260e05187818161040301528181611d4a01526131ad015251868181611806015261548901525185818161078f0152818161525b0152615383015251848181611e910152818161503001526153af015251838181610d1401528181612ea8015261470d0152518281816118f8015261479f0152518181816114e30152614c950152f35b60ff90811916175f557f7f26b83ff96e1f2b6a682f133852f6798a09c465da95921460cefb3847402498602060405160ff8152a15f620000ea565b5f80fd5b634e487b7160e01b5f52604160045260245ffd5b51906001600160a01b03821682036200026a57565b519063ffffffff821682036200026a5756fe6080604052600436101561001a575b3615610018575f80fd5b005b5f3560e01c8063079bd2c7146103d45780630c5d5f73146103cf5780630eaac9f0146103ca5780631186ec33146103c557806311eac855146103c057806315348e441461034857806317fcb39b146103bb5780631abeb4d7146103b65780631b3d5559146103b15780631dfb2d02146103ac578063272751c7146103a757806329cb924d146103a25780632cfc26c51461039d5780632e3781151461039857806331a0edec146103935780633659cfe61461038e578063431023b814610389578063437b911614610384578063493a4f841461037f5780634e0fb8f51461037a5780634f1ef28614610375578063524633cc146103705780635249fef11461036b5780635285e0581461036657806352d1902d14610361578063541f4f141461035c57806357f6dcb8146103575780636068d6cb14610352578063647c576c1461034d5780636bbbcd2e146103485780636e40098314610343578063738b62e51461033e5780637419ffe814610339578063766e0703146103345780637aef642c1461032f5780637b9392321461032a5780638a7860ce14610325578063927ede2d146103205780639748cf7c1461031b578063979f2bc2146103165780639963e5a81461031157806399cc29681461030c5780639a8a059214610307578063a1244c6714610302578063ac9650d8146102fd578063add051a3146102f8578063b27a4300146102f3578063bbca7db0146102ee578063bf10268d146102e9578063c35c83fc146102e4578063ccfa5971146102df578063ceb4c987146102da578063dda52113146102d5578063ddd224f1146102d0578063de7eba78146102cb578063e1904402146102c6578063e3229211146102c1578063ee2a53f8146102bc578063f8c62274146102b75763fbbba9ac0361000e57612842565b612814565b6127d6565b61275a565b612733565b612703565b6126da565b6126b4565b612696565b612613565b6125e8565b612564565b612423565b6123e4565b61236e565b6122ce565b612244565b61222a565b61217c565b611f83565b611eb5565b611e72565b611e44565b611dcc565b611a85565b611940565b61191c565b6118d9565b61182a565b6117ea565b6107b3565b611713565b6116bb565b61167b565b6115e6565b61157c565b611555565b611507565b6114c4565b611396565b61127c565b6111c7565b6110fa565b610e6a565b610d38565b610cf5565b610ba2565b610b59565b610b3f565b610aa0565b610a61565b610989565b610810565b6107cd565b610770565b6106b7565b61049d565b610445565b6103e7565b5f9103126103e357565b5f80fd5b346103e3575f3660031901126103e357602060405163ffffffff7f0000000000000000000000000000000000000000000000000000000000000000168152f35b6001600160a01b038116036103e357565b359061044382610427565b565b346103e35760203660031901126103e357602060043561046481610427565b6001600160a01b038091165f52610c5d825260405f205416604051908152f35b63ffffffff8116036103e357565b359061044382610484565b346103e35760203660031901126103e35763ffffffff6004356104bf81610484565b6104c7613487565b6104cf613599565b16610c5a8163ffffffff198254161790557fe486a5c4bd7b36eabbfe274c99b39130277417be8d2209b4dae04c4fba64ee3a5f80a26001606555005b634e487b7160e01b5f52604160045260245ffd5b6040810190811067ffffffffffffffff82111761053b57604052565b61050b565b67ffffffffffffffff811161053b57604052565b6060810190811067ffffffffffffffff82111761053b57604052565b6020810190811067ffffffffffffffff82111761053b57604052565b60e0810190811067ffffffffffffffff82111761053b57604052565b60a0810190811067ffffffffffffffff82111761053b57604052565b90601f8019910116810190811067ffffffffffffffff82111761053b57604052565b6040519060c0820182811067ffffffffffffffff82111761053b57604052565b60405190610180820182811067ffffffffffffffff82111761053b57604052565b604051906080820182811067ffffffffffffffff82111761053b57604052565b67ffffffffffffffff811161053b57601f01601f191660200190565b92919261066f82610647565b9161067d60405193846105c4565b8294818452818301116103e3578281602093845f960137010152565b9080601f830112156103e3578160206106b493359101610663565b90565b6101003660031901126103e3576004356106d081610427565b6024356106dc81610427565b6084358060070b81036103e35760a435906106f682610484565b60c43567ffffffffffffffff81116103e357610716903690600401610699565b9261071f613599565b60ff61086b5460e81c166107465761073f94606435916044359133613608565b6001606555005b60046040517f5a65d188000000000000000000000000000000000000000000000000000000008152fd5b346103e3575f3660031901126103e35760206040516001600160a01b037f0000000000000000000000000000000000000000000000000000000000000000168152f35b346103e3575f3660031901126103e35760206040515f8152f35b346103e3575f3660031901126103e35760206040516001600160a01b037f0000000000000000000000000000000000000000000000000000000000000000168152f35b346103e3575f3660031901126103e35760206040517343000000000000000000000000000000000000028152f35b67ffffffffffffffff811161053b5760051b60200190565b9080601f830112156103e35760209082356108708161083e565b9361087e60405195866105c4565b81855260208086019260051b8201019283116103e357602001905b8282106108a7575050505090565b81358152908301908301610899565b9080601f830112156103e35760209082356108d08161083e565b936108de60405195866105c4565b81855260208086019260051b8201019283116103e357602001905b828210610907575050505090565b838091833561091581610427565b8152019101906108f9565b929161092b8261083e565b9161093960405193846105c4565b829481845260208094019160051b81019283116103e357905b82821061095f5750505050565b81358152908301908301610952565b9080601f830112156103e3578160206106b493359101610920565b6003196060368201126103e3576004356109a281610484565b60243567ffffffffffffffff928382116103e35760c09082360301126103e3576109ca6105e6565b90806004013582526024810135602083015260448101358481116103e3576109f89060043691840101610856565b6040830152610a0960648201610492565b6060830152610a1a60848201610438565b608083015260a4810135908482116103e3576004610a3b92369201016108b6565b60a08201526044359283116103e357610a5b61001893369060040161096e565b916128c6565b346103e35760203660031901126103e35761073f600435610a8181610427565b610a89613487565b610a91613599565b613b1c565b801515036103e357565b346103e35760603660031901126103e357600435610abd81610427565b602435907f0a21fdd43d0ad0c62689ee7230a47309a050755bcc52eba00310add65297692a60206001600160a01b0360443593610af985610a96565b610b01613487565b610b09613599565b1692835f5261086d825260405f20855f52825260405f209015159060ff1981541660ff8316179055604051908152a36001606555005b346103e3575f3660031901126103e3576020604051428152f35b346103e3575f3660031901126103e35760206040517f152eb71524aef34d838ab76573c14b1ebfa5e385d9ab29d7cf5398daa2438bd98152f35b90816101809103126103e35790565b346103e35760403660031901126103e35760043567ffffffffffffffff81116103e357610bd3903690600401610b93565b610bdb613599565b60ff61086b5460e01c16610ce457610bf66101408201612ab9565b63ffffffff429116101580610cc6575b610c9c57610c9290610c7e610c23610c1e3684612acd565b613c5a565b9160c0610c77610c3560208401612ac3565b610c43610160850185612bad565b939094610c4e6105e6565b97610c593683612acd565b89526020890152013560408701526001600160a01b03166060860152565b3691610663565b608082015260243560a08201523390613dad565b6100186001606555565b60046040517fc3a9b9d0000000000000000000000000000000000000000000000000000000008152fd5b50610cd360408201612ac3565b6001600160a01b0316331415610c06565b6004604051633d90fc5560e11b8152fd5b346103e3575f3660031901126103e35760206040516001600160a01b037f0000000000000000000000000000000000000000000000000000000000000000168152f35b346103e35760203660031901126103e357600435610d5581610427565b6001600160a01b03807f0000000000000000000000000000000000000000000000000000000000000000168030146103e3577f360894a13ba1a3210667c828492db98dca3e2076cc3735a920a3ca505d382bbc9082825416036103e357610dba613487565b60405191610dc783610570565b5f83527f4910fdfa16fed3260ed0e7147f7cc6da11a60208b5b9406d12a635614ffd91435460ff1615610e005750505061001890614a38565b6020600491604051928380926352d1902d60e01b825288165afa5f9181610e39575b50610e2b575f80fd5b036103e3576100189161491f565b610e5c91925060203d602011610e63575b610e5481836105c4565b810190612d8e565b905f610e22565b503d610e4a565b346103e35760803660031901126103e357600435610e8781610484565b60243590610e9482610427565b604435610ea081610427565b60643591610ead83610427565b60ff5f5460081c16156103e357610ef490610c5a624c4b4063ffffffff1982541617905561086b9063ffffffff60c01b1963ffffffff60c01b83549260c01b169116179055565b60405190610f018261051f565b6009825260208201916820a1a927a9a996ab1960b91b8352640312e302e360dc1b6020604051610f308161051f565b60058152015260ff5f5460081c16156103e35761001894610f9093610a919251902061047f557f06c015bd22b4c69690933c1058878ebdfef31f9aaae40bbe86d8a09fe1b2972c61048055610f836144d2565b610f8b6144e1565b6144f5565b610c5a907fffffffffffffffff0000000000000000000000000000000000000000ffffffff77ffffffffffffffffffffffffffffffffffffffff0000000083549260201b169116179055565b9181601f840112156103e35782359167ffffffffffffffff83116103e3576020808501948460051b0101116103e357565b60206003198201126103e3576004359067ffffffffffffffff82116103e35761103891600401610fdc565b9091565b5f5b83811061104d5750505f910152565b818101518382015260200161103e565b906020916110768151809281855285808601910161103c565b601f01601f1916010190565b6020808201908083528351809252604092604081018260408560051b8401019601945f925b8584106110b8575050505050505090565b9091929394959685806110e9600193603f1986820301885286838d518051151584520151918185820152019061105d565b9901940194019295949391906110a7565b346103e3576111083661100d565b6111118161083e565b91604061112160405194856105c4565b828452601f196111308461083e565b015f5b8181106111a45750505f5b83811061115757604051806111538782611082565b0390f35b8061119e61116760019388612cfc565b515f80611175858a8a612d10565b90611184895180938193612d27565b0390305af490611192612d34565b60208201529015159052565b0161113e565b60209083516111b28161051f565b5f815282606081830152828901015201611133565b346103e35760403660031901126103e3576024356004356111e6613487565b6111ee613599565b61086c80546801000000000000000081101561053b5763ffffffff916001820190558361121a82612797565b5084600182015555167fc86ba04c55bc5eb2f2876b91c438849a296dbec7b08751c3074d92e04f0a77af5f80a46001606555005b9181601f840112156103e35782359167ffffffffffffffff83116103e357602083818601950101116103e357565b346103e35760c03660031901126103e35760043561129981610427565b602435906112a682610484565b6044356064356112b581610427565b67ffffffffffffffff916084358381116103e3576112d790369060040161124e565b93909460a4359182116103e35761137a63ffffffff7fb0a29aed3d389a1041194255878b423f7780be3ed2324d4693508c6ff189845e9661131f61138c95369060040161124e565b93909961132a613599565b6113518c8c8b8b61134861133f368a89610663565b938b3691610663565b9346908c61436f565b6001600160a01b0392836040519a8b9a8b521660208a0152608060408a01526080890191612d63565b93868503606088015216981696612d63565b0390a36001606555005b60403660031901126103e3576004356113ae81610427565b60243567ffffffffffffffff81116103e3576113ce903690600401610699565b6001600160a01b03807f000000000000000000000000000000000000000000000000000000000000000016908130146103e3577f360894a13ba1a3210667c828492db98dca3e2076cc3735a920a3ca505d382bbc9181835416036103e357611434613487565b7f4910fdfa16fed3260ed0e7147f7cc6da11a60208b5b9406d12a635614ffd91435460ff161561146a5750505061001890614a38565b6020600491604051928380926352d1902d60e01b825288165afa5f91816114a3575b50611495575f80fd5b036103e357610018916149e7565b6114bd91925060203d602011610e6357610e5481836105c4565b905f61148c565b346103e3575f3660031901126103e35760206040516001600160a01b037f0000000000000000000000000000000000000000000000000000000000000000168152f35b346103e35760403660031901126103e3576001600160a01b0360043561152c81610427565b165f5261086d60205260405f206024355f52602052602060ff60405f2054166040519015158152f35b346103e3575f3660031901126103e35760206001600160a01b036108695416604051908152f35b346103e3575f3660031901126103e3576001600160a01b037f00000000000000000000000000000000000000000000000000000000000000001630036103e35760206040517f360894a13ba1a3210667c828492db98dca3e2076cc3735a920a3ca505d382bbc8152f35b6101203660031901126103e3576004356115ff81610427565b6024359061160c82610427565b6044359161161983610427565b60a4358060070b81036103e35760c4359161163383610484565b60e43567ffffffffffffffff81116103e357611653903690600401610699565b9361165c613599565b60ff61086b5460e81c166107465761073f956084359260643592613608565b346103e3575f3660031901126103e357602060405163ffffffff7f0000000000000000000000000000000000000000000000000000000000000000168152f35b346103e3575f3660031901126103e357602060ff61086b5460e81c166040519015158152f35b60609060031901126103e3576004356116f981610484565b9060243561170681610427565b906044356106b481610427565b346103e357611721366116e1565b5f54600881901c60ff16159392908490816117dc575b81156117bc575b50156103e3576117629284611759600160ff195f5416175f55565b6117a557612dc0565b61176857005b61177661ff00195f54165f55565b604051600181527f7f26b83ff96e1f2b6a682f133852f6798a09c465da95921460cefb384740249890602090a1005b6117b761010061ff00195f5416175f55565b612dc0565b303b159150816117ce575b505f61173e565b6001915060ff16145f6117c7565b600160ff8216109150611737565b346103e3575f3660031901126103e357602060405163ffffffff7f0000000000000000000000000000000000000000000000000000000000000000168152f35b346103e35760203660031901126103e3577fe88463c2f254e2b070013a2dc7ee1e099f9bc00534cbdf03af551dc26ae49219602060043561186a81610a96565b611872613487565b61187a613599565b151561086b80547fffff00ffffffffffffffffffffffffffffffffffffffffffffffffffffffffff7dff00000000000000000000000000000000000000000000000000000000008460e81b169116179055604051908152a16001606555005b346103e3575f3660031901126103e35760206040516001600160a01b037f0000000000000000000000000000000000000000000000000000000000000000168152f35b346103e3575f3660031901126103e357602063ffffffff610c5a5416604051908152f35b6101603660031901126103e35760043561195981610427565b6024359061196682610427565b60443561197281610427565b6064359061197f82610427565b60e43561198b81610427565b610104359061199982610484565b61012435926119a784610484565b610144359667ffffffffffffffff88116103e3576119cc61001898369060040161124e565b97909660c4359360a4359360843593612fb0565b906101806003198301126103e3576004356119fa81610427565b91602435611a0781610427565b91604435611a1481610427565b91606435611a2181610427565b916084359160a4359160c4359160e435611a3a81610427565b9161010435611a4881610484565b9161012435611a5681610484565b9161014435611a6481610484565b91610164359067ffffffffffffffff82116103e3576110389160040161124e565b611a8e366119e0565b959996989a92909493611aa29c989c613599565b61086b9960ff8b5460e81c1661074657611af0611aec611ae58e611ad88d6001600160a01b03165f5261086d60205260405f2090565b905f5260205260405f2090565b5460ff1690565b1590565b611da25763ffffffff9d8e611b07818516426131db565b907f00000000000000000000000000000000000000000000000000000000000000001610611d78578e808516428110918215611d42575b5050611d18578e9b6001600160a01b039c8d891690871690818117611cb2575b50508c7f0000000000000000000000000000000000000000000000000000000000000000168d8c1681811480611ca9575b15611c8f5750823403611c6557803b156103e3575f60049160405192838092630d0e30db60e41b825234905af18015611c6057611c47575b505b5460c01c63ffffffff169e8f611bde906131f5565b611c059061086b9063ffffffff60c01b1963ffffffff60c01b83549260c01b169116179055565b6040519c8d9c169f169d611c199a8c61320a565b037fa123dc29aebf7d0c3322c8eeb5b999e859f39937950ed31056532713d0de396f91a46100186001606555565b80611c54611c5a92610540565b806103d9565b5f611bc7565b612d83565b60046040517f6452a35d000000000000000000000000000000000000000000000000000000008152fd5b905034611c655782611ca49130903390614475565b611bc9565b50341515611b8f565b15611cee574211611cc4575f80611b5e565b60046040517f25a63a5b000000000000000000000000000000000000000000000000000000008152fd5b60046040517f495d907f000000000000000000000000000000000000000000000000000000008152fd5b60046040517f582e3889000000000000000000000000000000000000000000000000000000008152fd5b611d709192507f000000000000000000000000000000000000000000000000000000000000000016426131e8565b108f80611b3e565b60046040517ff722177f000000000000000000000000000000000000000000000000000000008152fd5b60046040517f2a58c4f3000000000000000000000000000000000000000000000000000000008152fd5b346103e35760203660031901126103e357600435611de8613487565b611df0613599565b611df981612797565b611e31576001815f80935501557f3569b846531b754c99cb80df3f49cd72fa6fe106aaee5ab8e0caf35a9d7ce88d5f80a26001606555005b634e487b7160e01b5f525f60045260245ffd5b346103e3575f3660031901126103e35760206040517342000000000000000000000000000000000000078152f35b346103e3575f3660031901126103e35760206040516001600160a01b037f0000000000000000000000000000000000000000000000000000000000000000168152f35b346103e357611ec3366116e1565b909160ff5f5460081c16156103e357611ef99061086b9063ffffffff60c01b1963ffffffff60c01b83549260c01b169116179055565b604051611f058161051f565b6009815260208101926820a1a927a9a996ab1960b91b8452640312e302e360dc1b6020604051611f348161051f565b60058152015260ff5f5460081c16156103e35761001893610a919251902061047f557f06c015bd22b4c69690933c1058878ebdfef31f9aaae40bbe86d8a09fe1b2972c61048055610f836144d2565b346103e35760203660031901126103e3576004803567ffffffffffffffff81116103e357611fb49036908301610b93565b611fbc613599565b60ff61086b5460e01c1661216c57610140810191611fd983612ab9565b9063ffffffff918242911610156121445761012083019042612006611ffd84612ab9565b63ffffffff1690565b1061213557612018610c1e3686612acd565b9061202c825f5261087260205260405f2090565b5461210d57509061207161206b7f923794976d026d6b119735adc163cb71decfc903e17c3dc226c00789593c04e194935f5261087260205260405f2090565b60019055565b61210061208060608601612ac3565b9561208d60808701612ac3565b956120ad6120a76120a16101008401612ab9565b95612ab9565b92612ab9565b6120b960408301612ac3565b6120c283612ac3565b906120cf60208501612ac3565b926120de610160860186612bad565b9690956040519a8b9a169d60e08201359d60a060c0840135930135918c613272565b0390a36100186001606555565b6040517f012f9e44000000000000000000000000000000000000000000000000000000008152fd5b60405163d642b7d960e01b8152fd5b6040517f09deb9ec000000000000000000000000000000000000000000000000000000008152fd5b50604051633d90fc5560e11b8152fd5b346103e35760203660031901126103e3577f2d5b62420992e5a4afce0e77742636ca2608ef58289fd2e1baa5161ef6e7e41e60206004356121bc81610a96565b6121c4613487565b6121cc613599565b151561086b80547fffffff00ffffffffffffffffffffffffffffffffffffffffffffffffffffffff7cff000000000000000000000000000000000000000000000000000000008460e01b169116179055604051908152a16001606555005b346103e3575f3660031901126103e3576020604051468152f35b346103e3575f3660031901126103e357602063ffffffff61086b5460c01c16604051908152f35b6020808201906020835283518092526040830192602060408460051b8301019501935f915b8483106122a05750505050505090565b90919293949584806122be600193603f198682030187528a5161105d565b9801930193019194939290612290565b346103e3576122dc3661100d565b906122e6826132da565b915f5b8181106122fe5760405180611153868261226b565b5f8061230b838587612d10565b9061231b60405180938193612d27565b0390305af4612328612d34565b901561234e579060019161233c8287612cfc565b526123478186612cfc565b50016122e9565b60448151106103e3578060046103e3920151602480918301019101613323565b612377366119e0565b959996919b97989a9290949361239463ffffffff9d8e4216612f93565b9261239d613599565b61086b9a60ff8c5460e81c16610746576123d3611aec611ae58f611ad88e6001600160a01b03165f5261086d60205260405f2090565b611da2578e611b07818516426131db565b346103e35760203660031901126103e357602060043561240381610427565b6001600160a01b038091165f52610c5c825260405f205416604051908152f35b346103e3576003196060368201126103e35760043567ffffffffffffffff8082116103e3576060823603938401126103e3576024359061246282610484565b6044359081116103e35761247a903690600401610fdc565b919093612485613599565b60048401359061018219018112156103e357610c929461253a936124b26125339360043691890101612acd565b956124cf6124ca60808901516001600160a01b031690565b613849565b6125216124db88613c5a565b9160446124f260208b01516001600160a01b031690565b916101608b0151946125026105e6565b9b8c5260208c0152013560408a01526001600160a01b03166060890152565b60808701525f60a08701523691610920565b9083614567565b6140b8565b60409060031901126103e35760043561255781610427565b906024356106b481610427565b346103e3576125723661253f565b9061257b613487565b612583613599565b6001600160a01b0380911691825f52610c5d6020526125bb8160405f20906001600160a01b03166001600160a01b0319825416179055565b16907fcb84c2022106a6f2b6f805d446f32fbfd2a528474364fa755f37dac1c0c1b6c85f80a36001606555005b346103e35760203660031901126103e3576004355f52610872602052602060405f2054604051908152f35b346103e35760c03660031901126103e35767ffffffffffffffff6004358181116103e357612645903690600401610b93565b6064359061265282610427565b6084358381116103e35761266a90369060040161124e565b9060a4359485116103e35761268661001895369060040161124e565b9490936044359060243590613382565b346103e3575f3660031901126103e357602060405163ffffffff8152f35b346103e3575f3660031901126103e357602060ff61086b5460e01c166040519015158152f35b346103e3575f3660031901126103e35760206040516ec097ce7bc90715b34b9f10000000008152f35b346103e35760203660031901126103e35761073f60043561272381610427565b61272b613487565b610f8b613599565b346103e3575f3660031901126103e35760206001600160a01b0361086a5416604051908152f35b346103e3575f3660031901126103e3576020610c5a546001600160a01b0360405191831c168152f35b634e487b7160e01b5f52603260045260245ffd5b61086c9081548110156127d1576003915f52027f71cd7344f4eb2efc8e30291f6dbdb44d618ca368ea5425d217c1d604bf26b84d01905f90565b612783565b346103e35760203660031901126103e35760043561086c548110156103e357612800604091612797565b506001815491015482519182526020820152f35b346103e3575f3660031901126103e35760206040517343000000000000000000000000000000000000058152f35b346103e3576128503661253f565b90612859613487565b612861613599565b6001600160a01b0380911691825f52610c5c6020526128998160405f20906001600160a01b03166001600160a01b0319825416179055565b16907ff3dc137d2246f9b8abd0bb821e185ba01122c9b3ea3745ffca6208037674d6705f80a36001606555005b916128cf613599565b60808201916128e86124ca84516001600160a01b031690565b6020810191825146036129e957611aec6129109183600161290889612797565b5001546138f7565b6129d8578060607ff8bd640004bcec1b89657020f561d0b070cbdf662d0b158db9dccb0a8301bfab92019361295261294c865163ffffffff1690565b876139b7565b6129cb8451946129b06129a285519561299260408201998a516129798d5163ffffffff1690565b89516001600160a01b03169160a086019b8c5194613a24565b5192519751985163ffffffff1690565b93516001600160a01b031690565b935163ffffffff9485604051968796169a1698339386612a13565b0390a46104436001606555565b600460405163582f497d60e11b8152fd5b60046040517f7a47c9a2000000000000000000000000000000000000000000000000000000008152fd5b95949392919060a0870190875260209060a08289015282518091528160c089019301905f5b818110612aa5575050506001600160a01b03809316604088015286820360608801528080855193848152019401925f905b838210612a8c575050505050906080610443929401906001600160a01b03169052565b8451811686529482019493820193600190910190612a69565b825185529383019391830191600101612a38565b356106b481610484565b356106b481610427565b9190610180838203126103e357612ae2610606565b92612aec81610438565b8452612afa60208201610438565b6020850152612b0b60408201610438565b6040850152612b1c60608201610438565b6060850152612b2d60808201610438565b608085015260a081013560a085015260c081013560c085015260e081013560e0850152610100612b5e818301610492565b90850152610120612b70818301610492565b90850152610140612b82818301610492565b90850152610160918282013567ffffffffffffffff81116103e357612ba79201610699565b90830152565b903590601e19813603018212156103e3570180359067ffffffffffffffff82116103e3576020019181360383136103e357565b91909160ff5f5460081c16156103e357612c2a90610c5a624c4b4063ffffffff1982541617905561086b9063ffffffff60c01b1963ffffffff60c01b83549260c01b169116179055565b604051612c368161051f565b6009815260208101926820a1a927a9a996ab1960b91b8452640312e302e360dc1b6020604051612c658161051f565b60058152015260ff5f5460081c16156103e357612cb493610a919251902061047f557f06c015bd22b4c69690933c1058878ebdfef31f9aaae40bbe86d8a09fe1b2972c61048055610f836144d2565b610443610c5a77deaddeaddeaddeaddeaddeaddeaddeaddead0000000000007fffffffffffffffff0000000000000000000000000000000000000000ffffffff825416179055565b80518210156127d15760209160051b010190565b908210156127d1576110389160051b810190612bad565b908092918237015f815290565b3d15612d5e573d90612d4582610647565b91612d5360405193846105c4565b82523d5f602084013e565b606090565b908060209392818452848401375f828201840152601f01601f1916010190565b6040513d5f823e3d90fd5b908160209103126103e3575190565b634e487b7160e01b5f52602160045260245ffd5b60031115612dbb57565b612d9d565b90612dcb9291612be0565b734300000000000000000000000000000000000002803b156103e3576040517ff098767a0000000000000000000000000000000000000000000000000000000081525f8160048183865af18015611c6057612f6c575b50803b156103e3575f80916004604051809481937f4e606c470000000000000000000000000000000000000000000000000000000083525af18015611c6057612f59575b506040517f1a33757d00000000000000000000000000000000000000000000000000000000808252600260048301526020916001600160a01b039183826024815f7f000000000000000000000000000000000000000000000000000000000000000088165af1918215611c60578492612f3c575b506040519081526002600482015291829060249082905f907f0000000000000000000000000000000000000000000000000000000000000000165af18015611c6057612f23575050565b81612f3992903d10610e6357610e5481836105c4565b50565b612f5290833d8511610e6357610e5481836105c4565b505f612ed9565b80611c54612f6692610540565b5f612e65565b80611c54612f7992610540565b5f612e21565b634e487b7160e01b5f52601160045260245ffd5b91909163ffffffff80809416911601918211612fab57565b612f7f565b96929993979a94989091959863ffffffff9b612fcf8d42169182612f93565b91612fd8613599565b61086b9a60ff8c5460e81c166107465761300e611aec611ae58f611ad88e6001600160a01b03165f5261086d60205260405f2090565b611da2578e61301d84426131db565b907f00000000000000000000000000000000000000000000000000000000000000001610611d78578e8085164281109182156131a5575b5050611d18578e9b6001600160a01b039c8d891690871690818117613193575b50508c7f0000000000000000000000000000000000000000000000000000000000000000168d8c168181148061318a575b156131705750823403611c6557803b156103e3575f60049160405192838092630d0e30db60e41b825234905af18015611c605761315d575b505b5460c01c63ffffffff169e8f6130f4906131f5565b61311b9061086b9063ffffffff60c01b1963ffffffff60c01b83549260c01b169116179055565b6040519c8d9c169f169d61312f9a8c61320a565b037fa123dc29aebf7d0c3322c8eeb5b999e859f39937950ed31056532713d0de396f91a46104436001606555565b80611c5461316a92610540565b5f6130dd565b905034611c6557826131859130903390614475565b6130df565b503415156130a5565b15611cee574211611cc4575f80613074565b6131d39192507f000000000000000000000000000000000000000000000000000000000000000016426131e8565b108f80613054565b91908203918211612fab57565b91908201809211612fab57565b63ffffffff809116908114612fab5760010190565b6001600160a01b03918216815291811660208301526040820192909252606081019290925263ffffffff928316608083015292821660a0820152921660c083015291821660e0820152911661010082015261014061012082018190526106b493910191612d63565b96909193979295946106b49b9995610140996001600160a01b0398898098818098168d521660208c015260408b015260608a015263ffffffff80921660808a01521660a08801521660c08601521660e084015216610100820152816101208201520191612d63565b906132e48261083e565b6132f160405191826105c4565b8281528092613302601f199161083e565b01905f5b82811061331257505050565b806060602080938501015201613306565b6020818303126103e35780519067ffffffffffffffff82116103e3570181601f820112156103e357805161335681610647565b9261336460405194856105c4565b818452602082840101116103e3576106b4916020808501910161103c565b949096939561338f613599565b60ff61086b5460e01c16610ce4576133aa6101408701612ab9565b63ffffffff429116101580613469575b610c9c576133c83687612acd565b6133d190613c5a565b976133da6105e6565b986133e53689612acd565b8a5260208a0152604089018490526001600160a01b03851660608a015261340d36848a610663565b60808a015260a089015261342086612ac3565b9661342e6101008801612ab9565b92369061343a92610663565b94369061344692610663565b9460e00135906134559661436f565b3361345f91613dad565b6104436001606555565b5061347660408701612ac3565b6001600160a01b03163314156133ba565b73420000000000000000000000000000000000000780330361356f576020600491604051928380927f6e296e450000000000000000000000000000000000000000000000000000000082525afa908115611c60575f91613540575b506001600160a01b0361350d613501610869546001600160a01b031690565b6001600160a01b031690565b91160361351657565b60046040517f36a816d9000000000000000000000000000000000000000000000000000000008152fd5b613562915060203d602011613568575b61355a81836105c4565b8101906145f7565b5f6134e2565b503d613550565b60046040517f4a74df92000000000000000000000000000000000000000000000000000000008152fd5b6002606554146103e3576002606555565b92936106b49695919294610140956001600160a01b0380951686525f60208701526040860152606085015263ffffffff809116608085015260a08401525f60c08401521660e08201525f61010082015281610120820152019061105d565b9195969394929092613636611aec611ae588611ad88b6001600160a01b03165f5261086d60205260405f2090565b611da25760070b936706f05b59d3b200006136508661460c565b101561381f576ec097ce7bc90715b34b9f100000000082116137f55763ffffffff9361367e858a16426131db565b857f00000000000000000000000000000000000000000000000000000000000000001610611d785761086b5460c01c63ffffffff16986136e36136c08b6131f5565b61086b9063ffffffff60c01b1963ffffffff60c01b83549260c01b169116179055565b6001600160a01b0395867f00000000000000000000000000000000000000000000000000000000000000001694878b16868114806137ec575b156137af5750803403611c6557853b156103e3575f60049660405197888092630d0e30db60e41b825234905af18015611c60577fa123dc29aebf7d0c3322c8eeb5b999e859f39937950ed31056532713d0de396f99613797976137869261379c575b505b8261461b565b91604051988998169c169a876135aa565b0390a4565b80611c546137a992610540565b5f61377e565b61379796507fa123dc29aebf7d0c3322c8eeb5b999e859f39937950ed31056532713d0de396f996137e7836137869330903390614475565b613780565b5034151561371c565b60046040517fc45b6b52000000000000000000000000000000000000000000000000000000008152fd5b60046040517fa13c425c000000000000000000000000000000000000000000000000000000008152fd5b6001600160a01b037f000000000000000000000000000000000000000000000000000000000000000081169116811461387f5750565b476138875750565b4790803b156103e3575f90600460405180948193630d0e30db60e41b83525af18015611c605715612f395761044390610540565b9081518082526020808093019301915f5b8281106138da575050505090565b83516001600160a01b0316855293810193928101926001016138cc565b6040805160208082018181528551838501528186015160608401529285015160c0608084015280516101008401819052610120840198979692918201915f5b8281106139a357505050508161398c6106b4979860a084613966606061399a9701518387019063ffffffff169052565b60808101516001600160a01b031660c08601520151838203603f190160e08501526138bb565b03601f1981018352826105c4565b51902091614651565b83518b529981019992810192600101613936565b6139c2600291612797565b500162ffffff8260081c16805f5281602052600160ff60405f205494161b80809416146139fa575f5260205260405f20908154179055565b60046040517f954476d9000000000000000000000000000000000000000000000000000000008152fd5b9294939190938051825103613af2578151915f5b838110613aa4575050505082613a4f575b50505050565b6001600160a01b0381613a837f828fc203220356df8f072a91681caee7d5c75095e2a95e80ed5a14b384697f7193866146fe565b6040805195865233602087015291169463ffffffff1693a45f808080613a49565b80613ab160019284612cfc565b5180613abf575b5001613a38565b613aec90613add613ad08488612cfc565b516001600160a01b031690565b6001600160a01b0389166146a2565b5f613ab8565b60046040517fcd298b38000000000000000000000000000000000000000000000000000000008152fd5b6001600160a01b03168015613b645761086a816001600160a01b03198254161790557f1f17a88f67b0f49060a34bec1a4723a563620e6aa265eb640b5046dcee0759a05f80a2565b60046040517f2d234e48000000000000000000000000000000000000000000000000000000008152fd5b80516001600160a01b031682526106b491610180906020838101516001600160a01b0316908201526040838101516001600160a01b0316908201526060838101516001600160a01b0316908201526080838101516001600160a01b03169082015260a083015160a082015260c083015160c082015260e083015160e0820152613c25610100808501519083019063ffffffff169052565b6101208381015163ffffffff16908201526101408381015163ffffffff1690820152816101608094015193820152019061105d565b604051613c8b81613c776020820194604086526060830190613b8e565b46604083015203601f1981018352826105c4565b51902090565b613c9a82612db1565b52565b906001600160a01b038251168152606080613cc7602085015160806020860152608085019061105d565b9360408101516040850152015191613cde83612db1565b015290565b9a97909695613d61966106b49d9b9660808e613d5098613d709e986101809d6001600160a01b03998a80921685521660208401526040830152606082015201528c60a063ffffffff8094169101521660c08c01521660e08a01526101008901906001600160a01b03169052565b6001600160a01b0316610120870152565b8061014086015284019061105d565b91610160818403910152613c9d565b906106b494936080936001600160a01b0380931684526020840152166040820152816060820152019061105d565b805191610120830190613dc4825163ffffffff1690565b63ffffffff429116106140a75760208301516001613deb825f5261087260205260405f2090565b54036140a0576001905b6002613e0a825f5261087260205260405f2090565b541461407657613e23905f5261087260205260405f2090565b6002905560608501516001600160a01b031660808601516001600160a01b03169260a0870151918660c0890151948960a08301519660e082015197610100830151613e719063ffffffff1690565b9a5163ffffffff1661014084015163ffffffff16906040850151613e9b906001600160a01b031690565b928551613eae906001600160a01b031690565b946020870151613ec4906001600160a01b031690565b9661016001519760608a0151613ee0906001600160a01b031690565b996080810151906040015190613ef4610627565b6001600160a01b03909c168c5260208c015260408b0152613f189060608b01613c91565b6040519b6001600160a01b038d9c169f63ffffffff169e613f399b8d613ce3565b037f571749edf1d5c9599318cdbc4e28a6475d65e87fd3b2ddbe1e9a8d5e7a0f0ff791a460608101516001600160a01b03169182903382148061406e575b613a4957608001516001600160a01b03169260806040840151936001600160a01b03861685856001600160a01b037f00000000000000000000000000000000000000000000000000000000000000001683145f1461405e5750613fdd9130903390614475565b613fe7858461485e565b0151913b151580614054575b613ffd5750505050565b803b156103e35761402a935f809460405196879586948593633a5be8cb60e01b8552339160048601613d7f565b03925af18015611c6057614041575b808080613a49565b80611c5461404e92610540565b5f614039565b5081511515613ff3565b614069923390614475565b613fe7565b506001613f77565b60046040517f8f260c60000000000000000000000000000000000000000000000000000000008152fd5b5f90613df5565b600460405163d642b7d960e01b8152fd5b905f825161012081016140cf815163ffffffff1690565b63ffffffff429116106140a757602085015160026140f6825f5261087260205260405f2090565b54146140765761410f905f5261087260205260405f2090565b6002905560608201516001600160a01b031660808301516001600160a01b03169060a08401519260c0850151918860a0810151938760e08101519561010082015161415d9063ffffffff1690565b955163ffffffff1661014083015163ffffffff1660408401516001600160a01b0316918451614192906001600160a01b031690565b9360208601516141a8906001600160a01b031690565b9561016001519660608901516141c4906001600160a01b031690565b9860808101519060400151906141d8610627565b6001600160a01b03909b168b5260208b015260408a0152600260608a01526040519d63ffffffff8f9c169d61420d9b8d613ce3565b037f571749edf1d5c9599318cdbc4e28a6475d65e87fd3b2ddbe1e9a8d5e7a0f0ff7905f94a460608401516001600160a01b0316906001600160a01b03948583169182331480614368575b61435f57608001516001600160a01b03169060408101519687818416917f00000000000000000000000000000000000000000000000000000000000000001682145f1461434857906080929187614334575b6142b591508561485e565b0151923b15158061432a575b6142ce575b505050509050565b813b1561432657836142fa959660405196879586948593633a5be8cb60e01b8552339160048601613d7f565b03925af18015611c6057614313575b80808084936142c6565b80611c5461432092610540565b5f614309565b8380fd5b50825115156142c1565b6143419130903390614475565b5f886142aa565b60809291965061435a90865f986146a2565b6142b5565b50505050509050565b505f614258565b93926042936001600160a01b03610443989760208151910120916040519363ffffffff60208601967f152eb71524aef34d838ab76573c14b1ebfa5e385d9ab29d7cf5398daa2438bd9885216604086015286606086015260808501521660a083015260c082015260c081526143e38161058c565b5190209061047f549061048054906040519160208301937fc2f8787176b8ac6bf7215b4adcc1e069bf4ab82d9ab1df05a57a91d425935b6e855260408401526060830152608082015260808152614439816105a8565b51902090604051917f19010000000000000000000000000000000000000000000000000000000000008352600283015260228201522090614a7b565b909261044393604051937f23b872dd0000000000000000000000000000000000000000000000000000000060208601526001600160a01b0380921660248601521660448401526064830152606482526144cd826105a8565b614b8a565b60ff5f5460081c16156103e357565b60ff5f5460081c16156103e3576001606555565b6001600160a01b0316801561453d57610869816001600160a01b03198254161790557fa9e8c42c9e7fca7f62755189a16b2f5314d43d8fb24e91ba54e6d65f9314e8495f80a2565b60046040517fba97b39d000000000000000000000000000000000000000000000000000000008152fd5b91611aec906145e09284516040809601519186519161458583610554565b825261399a6145a06020840192468452898501958652612797565b50549388519283916145c56020840196602088525160608d86015260a0850190613b8e565b9151606084015251608083015203601f1981018352826105c4565b6145e75750565b6004905163582f497d60e11b8152fd5b908160209103126103e357516106b481610427565b5f81126146165790565b5f0390565b90670de0b6b3a7640000915f828403921283831281169084841390151617612fab57818102918183041490151715612fab570490565b929091905f915b845183101561469a5761466b8386612cfc565b519081811015614689575f52602052600160405f205b920191614658565b905f52602052600160405f20614681565b915092501490565b6040517fa9059cbb0000000000000000000000000000000000000000000000000000000060208201526001600160a01b0390921660248301526044820192909252610443916144cd82606481015b03601f1981018452836105c4565b906001600160a01b03808216817f000000000000000000000000000000000000000000000000000000000000000016811480928115614832575b50614823575b501561481a5761086a546001600160a01b031691614762610c5a5463ffffffff1690565b9273430000000000000000000000000000000000000590813b156103e357604051631208fc4560e21b81526001600160a01b0394851660048201527f00000000000000000000000000000000000000000000000000000000000000008516602482015293166044840152606483019190915263ffffffff909216608482015260c060a48201525f60c482018190529091829081838160e481015b03925af18015611c605761480d5750565b80611c5461044392610540565b61044391614f12565b61482c90614c1a565b5f61473e565b90507f00000000000000000000000000000000000000000000000000000000000000001681145f614738565b6001600160a01b0390811690813b1561489e579061044392917f0000000000000000000000000000000000000000000000000000000000000000166146a2565b7f000000000000000000000000000000000000000000000000000000000000000016803b156103e3575f8091602460405180948193632e1a7d4d60e01b83528860048401525af18015611c6057614910575b508147106103e3575f80809381935af1614908612d34565b50156103e357565b61491990610540565b5f6148f0565b61492881614a38565b6001600160a01b0381167fbc7cd75a20ee27fd9adebab32041f755214dbc6bffa90cc0225b39da2e5c2d3b5f80a28151158015906149e0575b614969575050565b5f80612f39937f206661696c6564000000000000000000000000000000000000000000000000006040805161499d81610554565b602781527f416464726573733a206c6f772d6c6576656c2064656c65676174652063616c6c60208201520152602081519101845af46149da612d34565b916155f0565b505f614961565b6149f081614a38565b6001600160a01b0381167fbc7cd75a20ee27fd9adebab32041f755214dbc6bffa90cc0225b39da2e5c2d3b5f80a2815115801590614a3057614969575050565b506001614961565b803b156103e3576001600160a01b037f360894a13ba1a3210667c828492db98dca3e2076cc3735a920a3ca505d382bbc91166001600160a01b0319825416179055565b614a8583836155bf565b6005819592951015612dbb57159384614b74575b508315614ad5575b50505015614aab57565b60046040517f938a1821000000000000000000000000000000000000000000000000000000008152fd5b5f929350908291604051614b268161398c60208201947f1626ba7e00000000000000000000000000000000000000000000000000000000998a8752602484015260406044840152606483019061105d565b51915afa90614b33612d34565b82614b66575b82614b49575b50505f8080614aa1565b614b5e91925060208082518301019101612d8e565b145f80614b3f565b915060208251101591614b39565b6001600160a01b0383811691161493505f614a99565b905f806001600160a01b03614be19416927f5361666545524332303a206c6f772d6c6576656c2063616c6c206661696c65646020604051614bca8161051f565b818152015260208151910182855af16149da612d34565b8051908115918215614bf7575b5050156103e357565b81925090602091810103126103e35760200151614c1381610a96565b5f80614bee565b604080517fe12f3a61000000000000000000000000000000000000000000000000000000008152306004820152916001600160a01b03919060209083168185602481845afa948515611c60575f95614ef3575b5082517faad3ec960000000000000000000000000000000000000000000000000000000081527f00000000000000000000000000000000000000000000000000000000000000006001600160a01b038116600483015260248201879052959083816044815f875af1908115611c60575f91614ed6575b50809103614e9d57808291614e67575b5050837f00000000000000000000000000000000000000000000000000000000000000001614614d235750505050565b81517f860043b60000000000000000000000000000000000000000000000000000000081523060048201526001600160a01b03851660248201527343000000000000000000000000000000000000029082816044815f865af1908115611c60575f91614e4a575b5083517f662aa11d0000000000000000000000000000000000000000000000000000000081523060048201526001600160a01b0387166024820152918390839060449082905f905af1918215611c6057614dec935f93614e2b575b50506131e8565b918215613a495790519182525f9216907ff3055bc8d92d9c8d2f12b45d112dd345cd2cfd17292b8d65c5642ac6f912dfd790602090a35f808080613a49565b614e42929350803d10610e6357610e5481836105c4565b905f80614de5565b614e619150833d8511610e6357610e5481836105c4565b5f614d8a565b8451908152858716907ff3055bc8d92d9c8d2f12b45d112dd345cd2cfd17292b8d65c5642ac6f912dfd790602090a3805f614cf3565b83517f7817528a0000000000000000000000000000000000000000000000000000000081526001600160a01b0383166004820152602490fd5b614eed9150843d8611610e6357610e5481836105c4565b5f614ce3565b614f0b919550823d8411610e6357610e5481836105c4565b935f614c6d565b906001600160a01b0390818116907f00000000000000000000000000000000000000000000000000000000000000008316820361502c5750803b156103e3575f6040518092632e1a7d4d60e01b8252818381614f7689600483019190602083019252565b03925af18015611c6057615019575b50610c5a5491614f9e61086a546001600160a01b031690565b73420000000000000000000000000000000000001090813b156103e357604051631474f2a960e31b81526001600160a01b03602087901c90951685166004820152931660248401526044830182905263ffffffff909316606483015260a060848301525f60a483018190529192839182908160c481016147fc565b80611c5461502692610540565b5f614f85565b91807f000000000000000000000000000000000000000000000000000000000000000016151580615257575b1561507c575050506104439061507761086a546001600160a01b031690565b615381565b806150a961509c856001600160a01b03165f52610c5c60205260405f2090565b546001600160a01b031690565b16615233577342000000000000000000000000000000000000105b16906150e861350161509c856001600160a01b03165f52610c5d60205260405f2090565b156151ad5783826150f892615282565b61511761509c836001600160a01b03165f52610c5d60205260405f2090565b9061512b61086a546001600160a01b031690565b9161513c610c5a5463ffffffff1690565b823b156103e357604051631208fc4560e21b81526001600160a01b0395861660048201529185166024830152929093166044840152606483019390935263ffffffff16608482015260c060a48201525f60c482018190529091829060e490829084905af18015611c605761480d5750565b50916151c261086a546001600160a01b031690565b926151d3610c5a5463ffffffff1690565b93813b156103e3575f80946147fc60405197889687958694631474f2a960e31b8652600486019260c0949163ffffffff936001600160a01b038092168652166020850152604084015216606082015260a060808201525f60a08201520190565b61525261509c846001600160a01b03165f52610c5c60205260405f2090565b6150c4565b50807f0000000000000000000000000000000000000000000000000000000000000000168214615058565b6040517fdd62ed3e0000000000000000000000000000000000000000000000000000000081523060048201526001600160a01b03831660248201529192602083806044810103816001600160a01b0386165afa928315611c60575f93615340575b508201809211612fab576040517f095ea7b30000000000000000000000000000000000000000000000000000000060208201526001600160a01b039093166024840152604483019190915261044391906144cd82606481016146f0565b61535a91935060203d602011610e6357610e5481836105c4565b915f6152e3565b908160209103126103e3575167ffffffffffffffff811681036103e35790565b7f0000000000000000000000000000000000000000000000000000000000000000906001600160a01b0392837f000000000000000000000000000000000000000000000000000000000000000016916153db828486615282565b604092604051937fcb75c11c0000000000000000000000000000000000000000000000000000000085526020936004908587600481875afa978815611c605789975f99615598575b506040517fa56ec6320000000000000000000000000000000000000000000000000000000081526001600160a01b03918916918216600482015299909887918b9190829081602481015b0392165afa988915611c60575f99615579575b509390951696947f000000000000000000000000000000000000000000000000000000000000000093805b6154ba57505050505050505050565b61552490878111156155735787905b84517f6fd3504e00000000000000000000000000000000000000000000000000000000815284810183815263ffffffff89166020820152604081018d90526001600160a01b038c166060820152909389918591829160800190565b03815f8a5af1928315611c605761554093615546575b506131db565b806154ab565b61556590893d8b1161556c575b61555d81836105c4565b810190615361565b505f61553a565b503d615553565b806154c9565b615591919950863d8811610e6357610e5481836105c4565b975f615480565b87919950886155b661546d92843d86116135685761355a81836105c4565b9a925050615423565b9060418151145f146155e75761103891602082015190606060408401519301515f1a90615619565b50505f90600290565b901561560a57815115615601575090565b3b156103e35790565b5080519081156103e357602001fd5b7f7fffffffffffffffffffffffffffffff5d576e7357a4501ddfe92f46681b20a08411615689576020935f9360ff60809460405194855216868401526040830152606082015282805260015afa15611c60575f516001600160a01b0381161561568157905f90565b505f90600190565b505050505f9060039056fea26469706673582212206acc6c5aef3d3ac3f4b3ab750db42bbf206a4d307d17fbe8aa457a6b01495afa64736f6c63430008170033"
}