{
  "address": "0x013604ce1FB573Dac669Bb2dFd24020ef7c8929e",
  "abi": [
    {
      "inputs": [
        {
          "internalType": "address",
          "name": "_wrappedNativeTokenAddress",
          "type": "address"
        },
        {
          "internalType": "uint32",
          "name": "_depositQuoteTimeBuffer",
          "type": "uint32"
        },
        {
          "internalType": "uint32",
          "name": "_fillDeadlineBuffer",
          "type": "uint32"
        },
        {
          "internalType": "contract IERC20",
          "name": "_l2Usdc",
          "type": "address"
        },
        {
          "internalType": "contract ITokenMessenger",
          "name": "_cctpTokenMessenger",
          "type": "address"
        },
        {
          "internalType": "address",
          "name": "usdb",
          "type": "address"
        },
        {
          "internalType": "address",
          "name": "l1Usdb",
          "type": "address"
        },
        {
          "internalType": "address",
          "name": "yieldRecipient",
          "type": "address"
        },
        {
          "internalType": "address",
          "name": "blastRetriever",
          "type": "address"
        }
      ],
      "stateMutability": "nonpayable",
      "type": "constructor"
    },
    {
      "inputs": [],
      "name": "ClaimedMerkleLeaf",
      "type": "error"
    },
    {
      "inputs": [],
      "name": "DepositsArePaused",
      "type": "error"
    },
    {
      "inputs": [],
      "name": "DisabledRoute",
      "type": "error"
    },
    {
      "inputs": [],
      "name": "ExpiredFillDeadline",
      "type": "error"
    },
    {
      "inputs": [],
      "name": "FillsArePaused",
      "type": "error"
    },
    {
      "inputs": [],
      "name": "InsufficientSpokePoolBalanceToExecuteLeaf",
      "type": "error"
    },
    {
      "inputs": [],
      "name": "InvalidBytes32",
      "type": "error"
    },
    {
      "inputs": [],
      "name": "InvalidChainId",
      "type": "error"
    },
    {
      "inputs": [
        {
          "internalType": "address",
          "name": "token",
          "type": "address"
        }
      ],
      "name": "InvalidClaimedAmount",
      "type": "error"
    },
    {
      "inputs": [],
      "name": "InvalidCrossDomainAdmin",
      "type": "error"
    },
    {
      "inputs": [],
      "name": "InvalidDepositorSignature",
      "type": "error"
    },
    {
      "inputs": [],
      "name": "InvalidExclusiveRelayer",
      "type": "error"
    },
    {
      "inputs": [],
      "name": "InvalidFillDeadline",
      "type": "error"
    },
    {
      "inputs": [],
      "name": "InvalidMerkleLeaf",
      "type": "error"
    },
    {
      "inputs": [],
      "name": "InvalidMerkleProof",
      "type": "error"
    },
    {
      "inputs": [],
      "name": "InvalidPayoutAdjustmentPct",
      "type": "error"
    },
    {
      "inputs": [],
      "name": "InvalidQuoteTimestamp",
      "type": "error"
    },
    {
      "inputs": [],
      "name": "InvalidRelayerFeePct",
      "type": "error"
    },
    {
      "inputs": [],
      "name": "InvalidSlowFillRequest",
      "type": "error"
    },
    {
      "inputs": [],
      "name": "InvalidWithdrawalRecipient",
      "type": "error"
    },
    {
      "inputs": [
        {
          "internalType": "bytes",
          "name": "data",
          "type": "bytes"
        }
      ],
      "name": "LowLevelCallFailed",
      "type": "error"
    },
    {
      "inputs": [],
      "name": "MaxTransferSizeExceeded",
      "type": "error"
    },
    {
      "inputs": [],
      "name": "MsgValueDoesNotMatchInputAmount",
      "type": "error"
    },
    {
      "inputs": [],
      "name": "NoRelayerRefundToClaim",
      "type": "error"
    },
    {
      "inputs": [],
      "name": "NoSlowFillsInExclusivityWindow",
      "type": "error"
    },
    {
      "inputs": [],
      "name": "NotCrossChainCall",
      "type": "error"
    },
    {
      "inputs": [],
      "name": "NotCrossDomainAdmin",
      "type": "error"
    },
    {
      "inputs": [],
      "name": "NotEOA",
      "type": "error"
    },
    {
      "inputs": [],
      "name": "NotExclusiveRelayer",
      "type": "error"
    },
    {
      "inputs": [],
      "name": "RelayFilled",
      "type": "error"
    },
    {
      "inputs": [],
      "name": "WrongERC7683OrderId",
      "type": "error"
    },
    {
      "anonymous": false,
      "inputs": [
        {
          "indexed": false,
          "internalType": "address",
          "name": "previousAdmin",
          "type": "address"
        },
        {
          "indexed": false,
          "internalType": "address",
          "name": "newAdmin",
          "type": "address"
        }
      ],
      "name": "AdminChanged",
      "type": "event"
    },
    {
      "anonymous": false,
      "inputs": [
        {
          "indexed": true,
          "internalType": "address",
          "name": "beacon",
          "type": "address"
        }
      ],
      "name": "BeaconUpgraded",
      "type": "event"
    },
    {
      "anonymous": false,
      "inputs": [
        {
          "indexed": true,
          "internalType": "bytes32",
          "name": "l2TokenAddress",
          "type": "bytes32"
        },
        {
          "indexed": true,
          "internalType": "bytes32",
          "name": "refundAddress",
          "type": "bytes32"
        },
        {
          "indexed": false,
          "internalType": "uint256",
          "name": "amount",
          "type": "uint256"
        },
        {
          "indexed": true,
          "internalType": "address",
          "name": "caller",
          "type": "address"
        }
      ],
      "name": "ClaimedRelayerRefund",
      "type": "event"
    },
    {
      "anonymous": false,
      "inputs": [
        {
          "indexed": true,
          "internalType": "uint256",
          "name": "rootBundleId",
          "type": "uint256"
        }
      ],
      "name": "EmergencyDeletedRootBundle",
      "type": "event"
    },
    {
      "anonymous": false,
      "inputs": [
        {
          "indexed": true,
          "internalType": "address",
          "name": "originToken",
          "type": "address"
        },
        {
          "indexed": true,
          "internalType": "uint256",
          "name": "destinationChainId",
          "type": "uint256"
        },
        {
          "indexed": false,
          "internalType": "bool",
          "name": "enabled",
          "type": "bool"
        }
      ],
      "name": "EnabledDepositRoute",
      "type": "event"
    },
    {
      "anonymous": false,
      "inputs": [
        {
          "indexed": false,
          "internalType": "uint256",
          "name": "amountToReturn",
          "type": "uint256"
        },
        {
          "indexed": true,
          "internalType": "uint256",
          "name": "chainId",
          "type": "uint256"
        },
        {
          "indexed": false,
          "internalType": "uint256[]",
          "name": "refundAmounts",
          "type": "uint256[]"
        },
        {
          "indexed": true,
          "internalType": "uint32",
          "name": "rootBundleId",
          "type": "uint32"
        },
        {
          "indexed": true,
          "internalType": "uint32",
          "name": "leafId",
          "type": "uint32"
        },
        {
          "indexed": false,
          "internalType": "address",
          "name": "l2TokenAddress",
          "type": "address"
        },
        {
          "indexed": false,
          "internalType": "address[]",
          "name": "refundAddresses",
          "type": "address[]"
        },
        {
          "indexed": false,
          "internalType": "bool",
          "name": "deferredRefunds",
          "type": "bool"
        },
        {
          "indexed": false,
          "internalType": "address",
          "name": "caller",
          "type": "address"
        }
      ],
      "name": "ExecutedRelayerRefundRoot",
      "type": "event"
    },
    {
      "anonymous": false,
      "inputs": [
        {
          "indexed": false,
          "internalType": "bytes32",
          "name": "inputToken",
          "type": "bytes32"
        },
        {
          "indexed": false,
          "internalType": "bytes32",
          "name": "outputToken",
          "type": "bytes32"
        },
        {
          "indexed": false,
          "internalType": "uint256",
          "name": "inputAmount",
          "type": "uint256"
        },
        {
          "indexed": false,
          "internalType": "uint256",
          "name": "outputAmount",
          "type": "uint256"
        },
        {
          "indexed": false,
          "internalType": "uint256",
          "name": "repaymentChainId",
          "type": "uint256"
        },
        {
          "indexed": true,
          "internalType": "uint256",
          "name": "originChainId",
          "type": "uint256"
        },
        {
          "indexed": true,
          "internalType": "uint256",
          "name": "depositId",
          "type": "uint256"
        },
        {
          "indexed": false,
          "internalType": "uint32",
          "name": "fillDeadline",
          "type": "uint32"
        },
        {
          "indexed": false,
          "internalType": "uint32",
          "name": "exclusivityDeadline",
          "type": "uint32"
        },
        {
          "indexed": false,
          "internalType": "bytes32",
          "name": "exclusiveRelayer",
          "type": "bytes32"
        },
        {
          "indexed": true,
          "internalType": "bytes32",
          "name": "relayer",
          "type": "bytes32"
        },
        {
          "indexed": false,
          "internalType": "bytes32",
          "name": "depositor",
          "type": "bytes32"
        },
        {
          "indexed": false,
          "internalType": "bytes32",
          "name": "recipient",
          "type": "bytes32"
        },
        {
          "indexed": false,
          "internalType": "bytes32",
          "name": "messageHash",
          "type": "bytes32"
        },
        {
          "components": [
            {
              "internalType": "bytes32",
              "name": "updatedRecipient",
              "type": "bytes32"
            },
            {
              "internalType": "bytes32",
              "name": "updatedMessageHash",
              "type": "bytes32"
            },
            {
              "internalType": "uint256",
              "name": "updatedOutputAmount",
              "type": "uint256"
            },
            {
              "internalType": "enum V3SpokePoolInterface.FillType",
              "name": "fillType",
              "type": "uint8"
            }
          ],
          "indexed": false,
          "internalType": "struct V3SpokePoolInterface.V3RelayExecutionEventInfo",
          "name": "relayExecutionInfo",
          "type": "tuple"
        }
      ],
      "name": "FilledRelay",
      "type": "event"
    },
    {
      "anonymous": false,
      "inputs": [
        {
          "indexed": false,
          "internalType": "address",
          "name": "inputToken",
          "type": "address"
        },
        {
          "indexed": false,
          "internalType": "address",
          "name": "outputToken",
          "type": "address"
        },
        {
          "indexed": false,
          "internalType": "uint256",
          "name": "inputAmount",
          "type": "uint256"
        },
        {
          "indexed": false,
          "internalType": "uint256",
          "name": "outputAmount",
          "type": "uint256"
        },
        {
          "indexed": false,
          "internalType": "uint256",
          "name": "repaymentChainId",
          "type": "uint256"
        },
        {
          "indexed": true,
          "internalType": "uint256",
          "name": "originChainId",
          "type": "uint256"
        },
        {
          "indexed": true,
          "internalType": "uint32",
          "name": "depositId",
          "type": "uint32"
        },
        {
          "indexed": false,
          "internalType": "uint32",
          "name": "fillDeadline",
          "type": "uint32"
        },
        {
          "indexed": false,
          "internalType": "uint32",
          "name": "exclusivityDeadline",
          "type": "uint32"
        },
        {
          "indexed": false,
          "internalType": "address",
          "name": "exclusiveRelayer",
          "type": "address"
        },
        {
          "indexed": true,
          "internalType": "address",
          "name": "relayer",
          "type": "address"
        },
        {
          "indexed": false,
          "internalType": "address",
          "name": "depositor",
          "type": "address"
        },
        {
          "indexed": false,
          "internalType": "address",
          "name": "recipient",
          "type": "address"
        },
        {
          "indexed": false,
          "internalType": "bytes",
          "name": "message",
          "type": "bytes"
        },
        {
          "components": [
            {
              "internalType": "address",
              "name": "updatedRecipient",
              "type": "address"
            },
            {
              "internalType": "bytes",
              "name": "updatedMessage",
              "type": "bytes"
            },
            {
              "internalType": "uint256",
              "name": "updatedOutputAmount",
              "type": "uint256"
            },
            {
              "internalType": "enum V3SpokePoolInterface.FillType",
              "name": "fillType",
              "type": "uint8"
            }
          ],
          "indexed": false,
          "internalType": "struct V3SpokePoolInterface.LegacyV3RelayExecutionEventInfo",
          "name": "relayExecutionInfo",
          "type": "tuple"
        }
      ],
      "name": "FilledV3Relay",
      "type": "event"
    },
    {
      "anonymous": false,
      "inputs": [
        {
          "indexed": false,
          "internalType": "bytes32",
          "name": "inputToken",
          "type": "bytes32"
        },
        {
          "indexed": false,
          "internalType": "bytes32",
          "name": "outputToken",
          "type": "bytes32"
        },
        {
          "indexed": false,
          "internalType": "uint256",
          "name": "inputAmount",
          "type": "uint256"
        },
        {
          "indexed": false,
          "internalType": "uint256",
          "name": "outputAmount",
          "type": "uint256"
        },
        {
          "indexed": true,
          "internalType": "uint256",
          "name": "destinationChainId",
          "type": "uint256"
        },
        {
          "indexed": true,
          "internalType": "uint256",
          "name": "depositId",
          "type": "uint256"
        },
        {
          "indexed": false,
          "internalType": "uint32",
          "name": "quoteTimestamp",
          "type": "uint32"
        },
        {
          "indexed": false,
          "internalType": "uint32",
          "name": "fillDeadline",
          "type": "uint32"
        },
        {
          "indexed": false,
          "internalType": "uint32",
          "name": "exclusivityDeadline",
          "type": "uint32"
        },
        {
          "indexed": true,
          "internalType": "bytes32",
          "name": "depositor",
          "type": "bytes32"
        },
        {
          "indexed": false,
          "internalType": "bytes32",
          "name": "recipient",
          "type": "bytes32"
        },
        {
          "indexed": false,
          "internalType": "bytes32",
          "name": "exclusiveRelayer",
          "type": "bytes32"
        },
        {
          "indexed": false,
          "internalType": "bytes",
          "name": "message",
          "type": "bytes"
        }
      ],
      "name": "FundsDeposited",
      "type": "event"
    },
    {
      "anonymous": false,
      "inputs": [
        {
          "indexed": false,
          "internalType": "uint8",
          "name": "version",
          "type": "uint8"
        }
      ],
      "name": "Initialized",
      "type": "event"
    },
    {
      "anonymous": false,
      "inputs": [
        {
          "indexed": false,
          "internalType": "bool",
          "name": "isPaused",
          "type": "bool"
        }
      ],
      "name": "PausedDeposits",
      "type": "event"
    },
    {
      "anonymous": false,
      "inputs": [
        {
          "indexed": false,
          "internalType": "bool",
          "name": "isPaused",
          "type": "bool"
        }
      ],
      "name": "PausedFills",
      "type": "event"
    },
    {
      "anonymous": false,
      "inputs": [
        {
          "indexed": true,
          "internalType": "uint32",
          "name": "rootBundleId",
          "type": "uint32"
        },
        {
          "indexed": true,
          "internalType": "bytes32",
          "name": "relayerRefundRoot",
          "type": "bytes32"
        },
        {
          "indexed": true,
          "internalType": "bytes32",
          "name": "slowRelayRoot",
          "type": "bytes32"
        }
      ],
      "name": "RelayedRootBundle",
      "type": "event"
    },
    {
      "anonymous": false,
      "inputs": [
        {
          "indexed": false,
          "internalType": "bytes32",
          "name": "inputToken",
          "type": "bytes32"
        },
        {
          "indexed": false,
          "internalType": "bytes32",
          "name": "outputToken",
          "type": "bytes32"
        },
        {
          "indexed": false,
          "internalType": "uint256",
          "name": "inputAmount",
          "type": "uint256"
        },
        {
          "indexed": false,
          "internalType": "uint256",
          "name": "outputAmount",
          "type": "uint256"
        },
        {
          "indexed": true,
          "internalType": "uint256",
          "name": "originChainId",
          "type": "uint256"
        },
        {
          "indexed": true,
          "internalType": "uint256",
          "name": "depositId",
          "type": "uint256"
        },
        {
          "indexed": false,
          "internalType": "uint32",
          "name": "fillDeadline",
          "type": "uint32"
        },
        {
          "indexed": false,
          "internalType": "uint32",
          "name": "exclusivityDeadline",
          "type": "uint32"
        },
        {
          "indexed": false,
          "internalType": "bytes32",
          "name": "exclusiveRelayer",
          "type": "bytes32"
        },
        {
          "indexed": false,
          "internalType": "bytes32",
          "name": "depositor",
          "type": "bytes32"
        },
        {
          "indexed": false,
          "internalType": "bytes32",
          "name": "recipient",
          "type": "bytes32"
        },
        {
          "indexed": false,
          "internalType": "bytes32",
          "name": "messageHash",
          "type": "bytes32"
        }
      ],
      "name": "RequestedSlowFill",
      "type": "event"
    },
    {
      "anonymous": false,
      "inputs": [
        {
          "indexed": false,
          "internalType": "uint256",
          "name": "updatedOutputAmount",
          "type": "uint256"
        },
        {
          "indexed": true,
          "internalType": "uint256",
          "name": "depositId",
          "type": "uint256"
        },
        {
          "indexed": true,
          "internalType": "bytes32",
          "name": "depositor",
          "type": "bytes32"
        },
        {
          "indexed": false,
          "internalType": "bytes32",
          "name": "updatedRecipient",
          "type": "bytes32"
        },
        {
          "indexed": false,
          "internalType": "bytes",
          "name": "updatedMessage",
          "type": "bytes"
        },
        {
          "indexed": false,
          "internalType": "bytes",
          "name": "depositorSignature",
          "type": "bytes"
        }
      ],
      "name": "RequestedSpeedUpDeposit",
      "type": "event"
    },
    {
      "anonymous": false,
      "inputs": [
        {
          "indexed": false,
          "internalType": "uint256",
          "name": "updatedOutputAmount",
          "type": "uint256"
        },
        {
          "indexed": true,
          "internalType": "uint32",
          "name": "depositId",
          "type": "uint32"
        },
        {
          "indexed": true,
          "internalType": "address",
          "name": "depositor",
          "type": "address"
        },
        {
          "indexed": false,
          "internalType": "address",
          "name": "updatedRecipient",
          "type": "address"
        },
        {
          "indexed": false,
          "internalType": "bytes",
          "name": "updatedMessage",
          "type": "bytes"
        },
        {
          "indexed": false,
          "internalType": "bytes",
          "name": "depositorSignature",
          "type": "bytes"
        }
      ],
      "name": "RequestedSpeedUpV3Deposit",
      "type": "event"
    },
    {
      "anonymous": false,
      "inputs": [
        {
          "indexed": false,
          "internalType": "address",
          "name": "inputToken",
          "type": "address"
        },
        {
          "indexed": false,
          "internalType": "address",
          "name": "outputToken",
          "type": "address"
        },
        {
          "indexed": false,
          "internalType": "uint256",
          "name": "inputAmount",
          "type": "uint256"
        },
        {
          "indexed": false,
          "internalType": "uint256",
          "name": "outputAmount",
          "type": "uint256"
        },
        {
          "indexed": true,
          "internalType": "uint256",
          "name": "originChainId",
          "type": "uint256"
        },
        {
          "indexed": true,
          "internalType": "uint32",
          "name": "depositId",
          "type": "uint32"
        },
        {
          "indexed": false,
          "internalType": "uint32",
          "name": "fillDeadline",
          "type": "uint32"
        },
        {
          "indexed": false,
          "internalType": "uint32",
          "name": "exclusivityDeadline",
          "type": "uint32"
        },
        {
          "indexed": false,
          "internalType": "address",
          "name": "exclusiveRelayer",
          "type": "address"
        },
        {
          "indexed": false,
          "internalType": "address",
          "name": "depositor",
          "type": "address"
        },
        {
          "indexed": false,
          "internalType": "address",
          "name": "recipient",
          "type": "address"
        },
        {
          "indexed": false,
          "internalType": "bytes",
          "name": "message",
          "type": "bytes"
        }
      ],
      "name": "RequestedV3SlowFill",
      "type": "event"
    },
    {
      "anonymous": false,
      "inputs": [
        {
          "indexed": true,
          "internalType": "uint32",
          "name": "newL1Gas",
          "type": "uint32"
        }
      ],
      "name": "SetL1Gas",
      "type": "event"
    },
    {
      "anonymous": false,
      "inputs": [
        {
          "indexed": true,
          "internalType": "address",
          "name": "l2Token",
          "type": "address"
        },
        {
          "indexed": true,
          "internalType": "address",
          "name": "tokenBridge",
          "type": "address"
        }
      ],
      "name": "SetL2TokenBridge",
      "type": "event"
    },
    {
      "anonymous": false,
      "inputs": [
        {
          "indexed": true,
          "internalType": "address",
          "name": "l2Token",
          "type": "address"
        },
        {
          "indexed": true,
          "internalType": "address",
          "name": "l1Token",
          "type": "address"
        }
      ],
      "name": "SetRemoteL1Token",
      "type": "event"
    },
    {
      "anonymous": false,
      "inputs": [
        {
          "indexed": true,
          "internalType": "address",
          "name": "newWithdrawalRecipient",
          "type": "address"
        }
      ],
      "name": "SetWithdrawalRecipient",
      "type": "event"
    },
    {
      "anonymous": false,
      "inputs": [
        {
          "indexed": true,
          "internalType": "address",
          "name": "newAdmin",
          "type": "address"
        }
      ],
      "name": "SetXDomainAdmin",
      "type": "event"
    },
    {
      "anonymous": false,
      "inputs": [
        {
          "indexed": false,
          "internalType": "uint256",
          "name": "amountToReturn",
          "type": "uint256"
        },
        {
          "indexed": true,
          "internalType": "uint256",
          "name": "chainId",
          "type": "uint256"
        },
        {
          "indexed": true,
          "internalType": "uint32",
          "name": "leafId",
          "type": "uint32"
        },
        {
          "indexed": true,
          "internalType": "bytes32",
          "name": "l2TokenAddress",
          "type": "bytes32"
        },
        {
          "indexed": false,
          "internalType": "address",
          "name": "caller",
          "type": "address"
        }
      ],
      "name": "TokensBridged",
      "type": "event"
    },
    {
      "anonymous": false,
      "inputs": [
        {
          "indexed": true,
          "internalType": "address",
          "name": "implementation",
          "type": "address"
        }
      ],
      "name": "Upgraded",
      "type": "event"
    },
    {
      "anonymous": false,
      "inputs": [
        {
          "indexed": false,
          "internalType": "address",
          "name": "inputToken",
          "type": "address"
        },
        {
          "indexed": false,
          "internalType": "address",
          "name": "outputToken",
          "type": "address"
        },
        {
          "indexed": false,
          "internalType": "uint256",
          "name": "inputAmount",
          "type": "uint256"
        },
        {
          "indexed": false,
          "internalType": "uint256",
          "name": "outputAmount",
          "type": "uint256"
        },
        {
          "indexed": true,
          "internalType": "uint256",
          "name": "destinationChainId",
          "type": "uint256"
        },
        {
          "indexed": true,
          "internalType": "uint32",
          "name": "depositId",
          "type": "uint32"
        },
        {
          "indexed": false,
          "internalType": "uint32",
          "name": "quoteTimestamp",
          "type": "uint32"
        },
        {
          "indexed": false,
          "internalType": "uint32",
          "name": "fillDeadline",
          "type": "uint32"
        },
        {
          "indexed": false,
          "internalType": "uint32",
          "name": "exclusivityDeadline",
          "type": "uint32"
        },
        {
          "indexed": true,
          "internalType": "address",
          "name": "depositor",
          "type": "address"
        },
        {
          "indexed": false,
          "internalType": "address",
          "name": "recipient",
          "type": "address"
        },
        {
          "indexed": false,
          "internalType": "address",
          "name": "exclusiveRelayer",
          "type": "address"
        },
        {
          "indexed": false,
          "internalType": "bytes",
          "name": "message",
          "type": "bytes"
        }
      ],
      "name": "V3FundsDeposited",
      "type": "event"
    },
    {
      "anonymous": false,
      "inputs": [
        {
          "indexed": true,
          "internalType": "address",
          "name": "recipient",
          "type": "address"
        },
        {
          "indexed": true,
          "internalType": "address",
          "name": "token",
          "type": "address"
        },
        {
          "indexed": false,
          "internalType": "uint256",
          "name": "amount",
          "type": "uint256"
        }
      ],
      "name": "YieldClaimed",
      "type": "event"
    },
    {
      "inputs": [],
      "name": "BLAST_RETRIEVER",
      "outputs": [
        {
          "internalType": "address",
          "name": "",
          "type": "address"
        }
      ],
      "stateMutability": "view",
      "type": "function"
    },
    {
      "inputs": [],
      "name": "BLAST_YIELD_CONTRACT",
      "outputs": [
        {
          "internalType": "contract IBlast",
          "name": "",
          "type": "address"
        }
      ],
      "stateMutability": "view",
      "type": "function"
    },
    {
      "inputs": [],
      "name": "EMPTY_RELAYER",
      "outputs": [
        {
          "internalType": "bytes32",
          "name": "",
          "type": "bytes32"
        }
      ],
      "stateMutability": "view",
      "type": "function"
    },
    {
      "inputs": [],
      "name": "EMPTY_REPAYMENT_CHAIN_ID",
      "outputs": [
        {
          "internalType": "uint256",
          "name": "",
          "type": "uint256"
        }
      ],
      "stateMutability": "view",
      "type": "function"
    },
    {
      "inputs": [],
      "name": "INFINITE_FILL_DEADLINE",
      "outputs": [
        {
          "internalType": "uint32",
          "name": "",
          "type": "uint32"
        }
      ],
      "stateMutability": "view",
      "type": "function"
    },
    {
      "inputs": [],
      "name": "L1_USDB",
      "outputs": [
        {
          "internalType": "address",
          "name": "",
          "type": "address"
        }
      ],
      "stateMutability": "view",
      "type": "function"
    },
    {
      "inputs": [],
      "name": "L2_BLAST_BRIDGE",
      "outputs": [
        {
          "internalType": "address",
          "name": "",
          "type": "address"
        }
      ],
      "stateMutability": "view",
      "type": "function"
    },
    {
      "inputs": [],
      "name": "MAX_EXCLUSIVITY_PERIOD_SECONDS",
      "outputs": [
        {
          "internalType": "uint32",
          "name": "",
          "type": "uint32"
        }
      ],
      "stateMutability": "view",
      "type": "function"
    },
    {
      "inputs": [],
      "name": "MAX_TRANSFER_SIZE",
      "outputs": [
        {
          "internalType": "uint256",
          "name": "",
          "type": "uint256"
        }
      ],
      "stateMutability": "view",
      "type": "function"
    },
    {
      "inputs": [],
      "name": "MESSENGER",
      "outputs": [
        {
          "internalType": "address",
          "name": "",
          "type": "address"
        }
      ],
      "stateMutability": "view",
      "type": "function"
    },
    {
      "inputs": [],
      "name": "UPDATE_ADDRESS_DEPOSIT_DETAILS_HASH",
      "outputs": [
        {
          "internalType": "bytes32",
          "name": "",
          "type": "bytes32"
        }
      ],
      "stateMutability": "view",
      "type": "function"
    },
    {
      "inputs": [],
      "name": "UPDATE_BYTES32_DEPOSIT_DETAILS_HASH",
      "outputs": [
        {
          "internalType": "bytes32",
          "name": "",
          "type": "bytes32"
        }
      ],
      "stateMutability": "view",
      "type": "function"
    },
    {
      "inputs": [],
      "name": "USDB",
      "outputs": [
        {
          "internalType": "address",
          "name": "",
          "type": "address"
        }
      ],
      "stateMutability": "view",
      "type": "function"
    },
    {
      "inputs": [],
      "name": "YIELD_RECIPIENT",
      "outputs": [
        {
          "internalType": "address",
          "name": "",
          "type": "address"
        }
      ],
      "stateMutability": "view",
      "type": "function"
    },
    {
      "inputs": [
        {
          "internalType": "uint32",
          "name": "_initialDepositId",
          "type": "uint32"
        },
        {
          "internalType": "address",
          "name": "_crossDomainAdmin",
          "type": "address"
        },
        {
          "internalType": "address",
          "name": "_withdrawalRecipient",
          "type": "address"
        },
        {
          "internalType": "address",
          "name": "_l2Eth",
          "type": "address"
        }
      ],
      "name": "__OvmSpokePool_init",
      "outputs": [],
      "stateMutability": "nonpayable",
      "type": "function"
    },
    {
      "inputs": [
        {
          "internalType": "uint32",
          "name": "_initialDepositId",
          "type": "uint32"
        },
        {
          "internalType": "address",
          "name": "_crossDomainAdmin",
          "type": "address"
        },
        {
          "internalType": "address",
          "name": "_withdrawalRecipient",
          "type": "address"
        }
      ],
      "name": "__SpokePool_init",
      "outputs": [],
      "stateMutability": "nonpayable",
      "type": "function"
    },
    {
      "inputs": [],
      "name": "cctpTokenMessenger",
      "outputs": [
        {
          "internalType": "contract ITokenMessenger",
          "name": "",
          "type": "address"
        }
      ],
      "stateMutability": "view",
      "type": "function"
    },
    {
      "inputs": [],
      "name": "chainId",
      "outputs": [
        {
          "internalType": "uint256",
          "name": "",
          "type": "uint256"
        }
      ],
      "stateMutability": "view",
      "type": "function"
    },
    {
      "inputs": [
        {
          "internalType": "bytes32",
          "name": "l2TokenAddress",
          "type": "bytes32"
        },
        {
          "internalType": "bytes32",
          "name": "refundAddress",
          "type": "bytes32"
        }
      ],
      "name": "claimRelayerRefund",
      "outputs": [],
      "stateMutability": "nonpayable",
      "type": "function"
    },
    {
      "inputs": [],
      "name": "crossDomainAdmin",
      "outputs": [
        {
          "internalType": "address",
          "name": "",
          "type": "address"
        }
      ],
      "stateMutability": "view",
      "type": "function"
    },
    {
      "inputs": [
        {
          "internalType": "bytes32",
          "name": "depositor",
          "type": "bytes32"
        },
        {
          "internalType": "bytes32",
          "name": "recipient",
          "type": "bytes32"
        },
        {
          "internalType": "bytes32",
          "name": "inputToken",
          "type": "bytes32"
        },
        {
          "internalType": "bytes32",
          "name": "outputToken",
          "type": "bytes32"
        },
        {
          "internalType": "uint256",
          "name": "inputAmount",
          "type": "uint256"
        },
        {
          "internalType": "uint256",
          "name": "outputAmount",
          "type": "uint256"
        },
        {
          "internalType": "uint256",
          "name": "destinationChainId",
          "type": "uint256"
        },
        {
          "internalType": "bytes32",
          "name": "exclusiveRelayer",
          "type": "bytes32"
        },
        {
          "internalType": "uint32",
          "name": "quoteTimestamp",
          "type": "uint32"
        },
        {
          "internalType": "uint32",
          "name": "fillDeadline",
          "type": "uint32"
        },
        {
          "internalType": "uint32",
          "name": "exclusivityParameter",
          "type": "uint32"
        },
        {
          "internalType": "bytes",
          "name": "message",
          "type": "bytes"
        }
      ],
      "name": "deposit",
      "outputs": [],
      "stateMutability": "payable",
      "type": "function"
    },
    {
      "inputs": [
        {
          "internalType": "address",
          "name": "recipient",
          "type": "address"
        },
        {
          "internalType": "address",
          "name": "originToken",
          "type": "address"
        },
        {
          "internalType": "uint256",
          "name": "amount",
          "type": "uint256"
        },
        {
          "internalType": "uint256",
          "name": "destinationChainId",
          "type": "uint256"
        },
        {
          "internalType": "int64",
          "name": "relayerFeePct",
          "type": "int64"
        },
        {
          "internalType": "uint32",
          "name": "quoteTimestamp",
          "type": "uint32"
        },
        {
          "internalType": "bytes",
          "name": "message",
          "type": "bytes"
        },
        {
          "internalType": "uint256",
          "name": "",
          "type": "uint256"
        }
      ],
      "name": "depositDeprecated_5947912356",
      "outputs": [],
      "stateMutability": "payable",
      "type": "function"
    },
    {
      "inputs": [
        {
          "internalType": "address",
          "name": "depositor",
          "type": "address"
        },
        {
          "internalType": "address",
          "name": "recipient",
          "type": "address"
        },
        {
          "internalType": "address",
          "name": "originToken",
          "type": "address"
        },
        {
          "internalType": "uint256",
          "name": "amount",
          "type": "uint256"
        },
        {
          "internalType": "uint256",
          "name": "destinationChainId",
          "type": "uint256"
        },
        {
          "internalType": "int64",
          "name": "relayerFeePct",
          "type": "int64"
        },
        {
          "internalType": "uint32",
          "name": "quoteTimestamp",
          "type": "uint32"
        },
        {
          "internalType": "bytes",
          "name": "message",
          "type": "bytes"
        },
        {
          "internalType": "uint256",
          "name": "",
          "type": "uint256"
        }
      ],
      "name": "depositFor",
      "outputs": [],
      "stateMutability": "payable",
      "type": "function"
    },
    {
      "inputs": [
        {
          "internalType": "bytes32",
          "name": "depositor",
          "type": "bytes32"
        },
        {
          "internalType": "bytes32",
          "name": "recipient",
          "type": "bytes32"
        },
        {
          "internalType": "bytes32",
          "name": "inputToken",
          "type": "bytes32"
        },
        {
          "internalType": "bytes32",
          "name": "outputToken",
          "type": "bytes32"
        },
        {
          "internalType": "uint256",
          "name": "inputAmount",
          "type": "uint256"
        },
        {
          "internalType": "uint256",
          "name": "outputAmount",
          "type": "uint256"
        },
        {
          "internalType": "uint256",
          "name": "destinationChainId",
          "type": "uint256"
        },
        {
          "internalType": "bytes32",
          "name": "exclusiveRelayer",
          "type": "bytes32"
        },
        {
          "internalType": "uint32",
          "name": "fillDeadlineOffset",
          "type": "uint32"
        },
        {
          "internalType": "uint32",
          "name": "exclusivityParameter",
          "type": "uint32"
        },
        {
          "internalType": "bytes",
          "name": "message",
          "type": "bytes"
        }
      ],
      "name": "depositNow",
      "outputs": [],
      "stateMutability": "payable",
      "type": "function"
    },
    {
      "inputs": [],
      "name": "depositQuoteTimeBuffer",
      "outputs": [
        {
          "internalType": "uint32",
          "name": "",
          "type": "uint32"
        }
      ],
      "stateMutability": "view",
      "type": "function"
    },
    {
      "inputs": [
        {
          "internalType": "address",
          "name": "depositor",
          "type": "address"
        },
        {
          "internalType": "address",
          "name": "recipient",
          "type": "address"
        },
        {
          "internalType": "address",
          "name": "inputToken",
          "type": "address"
        },
        {
          "internalType": "address",
          "name": "outputToken",
          "type": "address"
        },
        {
          "internalType": "uint256",
          "name": "inputAmount",
          "type": "uint256"
        },
        {
          "internalType": "uint256",
          "name": "outputAmount",
          "type": "uint256"
        },
        {
          "internalType": "uint256",
          "name": "destinationChainId",
          "type": "uint256"
        },
        {
          "internalType": "address",
          "name": "exclusiveRelayer",
          "type": "address"
        },
        {
          "internalType": "uint32",
          "name": "quoteTimestamp",
          "type": "uint32"
        },
        {
          "internalType": "uint32",
          "name": "fillDeadline",
          "type": "uint32"
        },
        {
          "internalType": "uint32",
          "name": "exclusivityParameter",
          "type": "uint32"
        },
        {
          "internalType": "bytes",
          "name": "message",
          "type": "bytes"
        }
      ],
      "name": "depositV3",
      "outputs": [],
      "stateMutability": "payable",
      "type": "function"
    },
    {
      "inputs": [
        {
          "internalType": "address",
          "name": "depositor",
          "type": "address"
        },
        {
          "internalType": "address",
          "name": "recipient",
          "type": "address"
        },
        {
          "internalType": "address",
          "name": "inputToken",
          "type": "address"
        },
        {
          "internalType": "address",
          "name": "outputToken",
          "type": "address"
        },
        {
          "internalType": "uint256",
          "name": "inputAmount",
          "type": "uint256"
        },
        {
          "internalType": "uint256",
          "name": "outputAmount",
          "type": "uint256"
        },
        {
          "internalType": "uint256",
          "name": "destinationChainId",
          "type": "uint256"
        },
        {
          "internalType": "address",
          "name": "exclusiveRelayer",
          "type": "address"
        },
        {
          "internalType": "uint32",
          "name": "fillDeadlineOffset",
          "type": "uint32"
        },
        {
          "internalType": "uint32",
          "name": "exclusivityParameter",
          "type": "uint32"
        },
        {
          "internalType": "bytes",
          "name": "message",
          "type": "bytes"
        }
      ],
      "name": "depositV3Now",
      "outputs": [],
      "stateMutability": "payable",
      "type": "function"
    },
    {
      "inputs": [
        {
          "internalType": "uint256",
          "name": "rootBundleId",
          "type": "uint256"
        }
      ],
      "name": "emergencyDeleteRootBundle",
      "outputs": [],
      "stateMutability": "nonpayable",
      "type": "function"
    },
    {
      "inputs": [
        {
          "internalType": "address",
          "name": "",
          "type": "address"
        },
        {
          "internalType": "uint256",
          "name": "",
          "type": "uint256"
        }
      ],
      "name": "enabledDepositRoutes",
      "outputs": [
        {
          "internalType": "bool",
          "name": "",
          "type": "bool"
        }
      ],
      "stateMutability": "view",
      "type": "function"
    },
    {
      "inputs": [
        {
          "internalType": "uint32",
          "name": "rootBundleId",
          "type": "uint32"
        },
        {
          "components": [
            {
              "internalType": "uint256",
              "name": "amountToReturn",
              "type": "uint256"
            },
            {
              "internalType": "uint256",
              "name": "chainId",
              "type": "uint256"
            },
            {
              "internalType": "uint256[]",
              "name": "refundAmounts",
              "type": "uint256[]"
            },
            {
              "internalType": "uint32",
              "name": "leafId",
              "type": "uint32"
            },
            {
              "internalType": "address",
              "name": "l2TokenAddress",
              "type": "address"
            },
            {
              "internalType": "address[]",
              "name": "refundAddresses",
              "type": "address[]"
            }
          ],
          "internalType": "struct SpokePoolInterface.RelayerRefundLeaf",
          "name": "relayerRefundLeaf",
          "type": "tuple"
        },
        {
          "internalType": "bytes32[]",
          "name": "proof",
          "type": "bytes32[]"
        }
      ],
      "name": "executeRelayerRefundLeaf",
      "outputs": [],
      "stateMutability": "payable",
      "type": "function"
    },
    {
      "inputs": [
        {
          "components": [
            {
              "components": [
                {
                  "internalType": "bytes32",
                  "name": "depositor",
                  "type": "bytes32"
                },
                {
                  "internalType": "bytes32",
                  "name": "recipient",
                  "type": "bytes32"
                },
                {
                  "internalType": "bytes32",
                  "name": "exclusiveRelayer",
                  "type": "bytes32"
                },
                {
                  "internalType": "bytes32",
                  "name": "inputToken",
                  "type": "bytes32"
                },
                {
                  "internalType": "bytes32",
                  "name": "outputToken",
                  "type": "bytes32"
                },
                {
                  "internalType": "uint256",
                  "name": "inputAmount",
                  "type": "uint256"
                },
                {
                  "internalType": "uint256",
                  "name": "outputAmount",
                  "type": "uint256"
                },
                {
                  "internalType": "uint256",
                  "name": "originChainId",
                  "type": "uint256"
                },
                {
                  "internalType": "uint256",
                  "name": "depositId",
                  "type": "uint256"
                },
                {
                  "internalType": "uint32",
                  "name": "fillDeadline",
                  "type": "uint32"
                },
                {
                  "internalType": "uint32",
                  "name": "exclusivityDeadline",
                  "type": "uint32"
                },
                {
                  "internalType": "bytes",
                  "name": "message",
                  "type": "bytes"
                }
              ],
              "internalType": "struct V3SpokePoolInterface.V3RelayData",
              "name": "relayData",
              "type": "tuple"
            },
            {
              "internalType": "uint256",
              "name": "chainId",
              "type": "uint256"
            },
            {
              "internalType": "uint256",
              "name": "updatedOutputAmount",
              "type": "uint256"
            }
          ],
          "internalType": "struct V3SpokePoolInterface.V3SlowFill",
          "name": "slowFillLeaf",
          "type": "tuple"
        },
        {
          "internalType": "uint32",
          "name": "rootBundleId",
          "type": "uint32"
        },
        {
          "internalType": "bytes32[]",
          "name": "proof",
          "type": "bytes32[]"
        }
      ],
      "name": "executeSlowRelayLeaf",
      "outputs": [],
      "stateMutability": "nonpayable",
      "type": "function"
    },
    {
      "inputs": [
        {
          "internalType": "bytes32",
          "name": "orderId",
          "type": "bytes32"
        },
        {
          "internalType": "bytes",
          "name": "originData",
          "type": "bytes"
        },
        {
          "internalType": "bytes",
          "name": "fillerData",
          "type": "bytes"
        }
      ],
      "name": "fill",
      "outputs": [],
      "stateMutability": "nonpayable",
      "type": "function"
    },
    {
      "inputs": [],
      "name": "fillDeadlineBuffer",
      "outputs": [
        {
          "internalType": "uint32",
          "name": "",
          "type": "uint32"
        }
      ],
      "stateMutability": "view",
      "type": "function"
    },
    {
      "inputs": [
        {
          "components": [
            {
              "internalType": "bytes32",
              "name": "depositor",
              "type": "bytes32"
            },
            {
              "internalType": "bytes32",
              "name": "recipient",
              "type": "bytes32"
            },
            {
              "internalType": "bytes32",
              "name": "exclusiveRelayer",
              "type": "bytes32"
            },
            {
              "internalType": "bytes32",
              "name": "inputToken",
              "type": "bytes32"
            },
            {
              "internalType": "bytes32",
              "name": "outputToken",
              "type": "bytes32"
            },
            {
              "internalType": "uint256",
              "name": "inputAmount",
              "type": "uint256"
            },
            {
              "internalType": "uint256",
              "name": "outputAmount",
              "type": "uint256"
            },
            {
              "internalType": "uint256",
              "name": "originChainId",
              "type": "uint256"
            },
            {
              "internalType": "uint256",
              "name": "depositId",
              "type": "uint256"
            },
            {
              "internalType": "uint32",
              "name": "fillDeadline",
              "type": "uint32"
            },
            {
              "internalType": "uint32",
              "name": "exclusivityDeadline",
              "type": "uint32"
            },
            {
              "internalType": "bytes",
              "name": "message",
              "type": "bytes"
            }
          ],
          "internalType": "struct V3SpokePoolInterface.V3RelayData",
          "name": "relayData",
          "type": "tuple"
        },
        {
          "internalType": "uint256",
          "name": "repaymentChainId",
          "type": "uint256"
        },
        {
          "internalType": "bytes32",
          "name": "repaymentAddress",
          "type": "bytes32"
        }
      ],
      "name": "fillRelay",
      "outputs": [],
      "stateMutability": "nonpayable",
      "type": "function"
    },
    {
      "inputs": [
        {
          "components": [
            {
              "internalType": "bytes32",
              "name": "depositor",
              "type": "bytes32"
            },
            {
              "internalType": "bytes32",
              "name": "recipient",
              "type": "bytes32"
            },
            {
              "internalType": "bytes32",
              "name": "exclusiveRelayer",
              "type": "bytes32"
            },
            {
              "internalType": "bytes32",
              "name": "inputToken",
              "type": "bytes32"
            },
            {
              "internalType": "bytes32",
              "name": "outputToken",
              "type": "bytes32"
            },
            {
              "internalType": "uint256",
              "name": "inputAmount",
              "type": "uint256"
            },
            {
              "internalType": "uint256",
              "name": "outputAmount",
              "type": "uint256"
            },
            {
              "internalType": "uint256",
              "name": "originChainId",
              "type": "uint256"
            },
            {
              "internalType": "uint256",
              "name": "depositId",
              "type": "uint256"
            },
            {
              "internalType": "uint32",
              "name": "fillDeadline",
              "type": "uint32"
            },
            {
              "internalType": "uint32",
              "name": "exclusivityDeadline",
              "type": "uint32"
            },
            {
              "internalType": "bytes",
              "name": "message",
              "type": "bytes"
            }
          ],
          "internalType": "struct V3SpokePoolInterface.V3RelayData",
          "name": "relayData",
          "type": "tuple"
        },
        {
          "internalType": "uint256",
          "name": "repaymentChainId",
          "type": "uint256"
        },
        {
          "internalType": "bytes32",
          "name": "repaymentAddress",
          "type": "bytes32"
        },
        {
          "internalType": "uint256",
          "name": "updatedOutputAmount",
          "type": "uint256"
        },
        {
          "internalType": "bytes32",
          "name": "updatedRecipient",
          "type": "bytes32"
        },
        {
          "internalType": "bytes",
          "name": "updatedMessage",
          "type": "bytes"
        },
        {
          "internalType": "bytes",
          "name": "depositorSignature",
          "type": "bytes"
        }
      ],
      "name": "fillRelayWithUpdatedDeposit",
      "outputs": [],
      "stateMutability": "nonpayable",
      "type": "function"
    },
    {
      "inputs": [
        {
          "internalType": "bytes32",
          "name": "",
          "type": "bytes32"
        }
      ],
      "name": "fillStatuses",
      "outputs": [
        {
          "internalType": "uint256",
          "name": "",
          "type": "uint256"
        }
      ],
      "stateMutability": "view",
      "type": "function"
    },
    {
      "inputs": [
        {
          "components": [
            {
              "internalType": "address",
              "name": "depositor",
              "type": "address"
            },
            {
              "internalType": "address",
              "name": "recipient",
              "type": "address"
            },
            {
              "internalType": "address",
              "name": "exclusiveRelayer",
              "type": "address"
            },
            {
              "internalType": "address",
              "name": "inputToken",
              "type": "address"
            },
            {
              "internalType": "address",
              "name": "outputToken",
              "type": "address"
            },
            {
              "internalType": "uint256",
              "name": "inputAmount",
              "type": "uint256"
            },
            {
              "internalType": "uint256",
              "name": "outputAmount",
              "type": "uint256"
            },
            {
              "internalType": "uint256",
              "name": "originChainId",
              "type": "uint256"
            },
            {
              "internalType": "uint32",
              "name": "depositId",
              "type": "uint32"
            },
            {
              "internalType": "uint32",
              "name": "fillDeadline",
              "type": "uint32"
            },
            {
              "internalType": "uint32",
              "name": "exclusivityDeadline",
              "type": "uint32"
            },
            {
              "internalType": "bytes",
              "name": "message",
              "type": "bytes"
            }
          ],
          "internalType": "struct V3SpokePoolInterface.V3RelayDataLegacy",
          "name": "relayData",
          "type": "tuple"
        },
        {
          "internalType": "uint256",
          "name": "repaymentChainId",
          "type": "uint256"
        }
      ],
      "name": "fillV3Relay",
      "outputs": [],
      "stateMutability": "nonpayable",
      "type": "function"
    },
    {
      "inputs": [],
      "name": "getCurrentTime",
      "outputs": [
        {
          "internalType": "uint256",
          "name": "",
          "type": "uint256"
        }
      ],
      "stateMutability": "view",
      "type": "function"
    },
    {
      "inputs": [
        {
          "internalType": "address",
          "name": "l2TokenAddress",
          "type": "address"
        },
        {
          "internalType": "address",
          "name": "refundAddress",
          "type": "address"
        }
      ],
      "name": "getRelayerRefund",
      "outputs": [
        {
          "internalType": "uint256",
          "name": "",
          "type": "uint256"
        }
      ],
      "stateMutability": "view",
      "type": "function"
    },
    {
      "inputs": [
        {
          "internalType": "address",
          "name": "msgSender",
          "type": "address"
        },
        {
          "internalType": "bytes32",
          "name": "depositor",
          "type": "bytes32"
        },
        {
          "internalType": "uint256",
          "name": "depositNonce",
          "type": "uint256"
        }
      ],
      "name": "getUnsafeDepositId",
      "outputs": [
        {
          "internalType": "uint256",
          "name": "",
          "type": "uint256"
        }
      ],
      "stateMutability": "pure",
      "type": "function"
    },
    {
      "inputs": [
        {
          "components": [
            {
              "internalType": "bytes32",
              "name": "depositor",
              "type": "bytes32"
            },
            {
              "internalType": "bytes32",
              "name": "recipient",
              "type": "bytes32"
            },
            {
              "internalType": "bytes32",
              "name": "exclusiveRelayer",
              "type": "bytes32"
            },
            {
              "internalType": "bytes32",
              "name": "inputToken",
              "type": "bytes32"
            },
            {
              "internalType": "bytes32",
              "name": "outputToken",
              "type": "bytes32"
            },
            {
              "internalType": "uint256",
              "name": "inputAmount",
              "type": "uint256"
            },
            {
              "internalType": "uint256",
              "name": "outputAmount",
              "type": "uint256"
            },
            {
              "internalType": "uint256",
              "name": "originChainId",
              "type": "uint256"
            },
            {
              "internalType": "uint256",
              "name": "depositId",
              "type": "uint256"
            },
            {
              "internalType": "uint32",
              "name": "fillDeadline",
              "type": "uint32"
            },
            {
              "internalType": "uint32",
              "name": "exclusivityDeadline",
              "type": "uint32"
            },
            {
              "internalType": "bytes",
              "name": "message",
              "type": "bytes"
            }
          ],
          "internalType": "struct V3SpokePoolInterface.V3RelayData",
          "name": "relayData",
          "type": "tuple"
        }
      ],
      "name": "getV3RelayHash",
      "outputs": [
        {
          "internalType": "bytes32",
          "name": "",
          "type": "bytes32"
        }
      ],
      "stateMutability": "view",
      "type": "function"
    },
    {
      "inputs": [
        {
          "internalType": "uint32",
          "name": "_initialDepositId",
          "type": "uint32"
        },
        {
          "internalType": "address",
          "name": "_crossDomainAdmin",
          "type": "address"
        },
        {
          "internalType": "address",
          "name": "_withdrawalRecipient",
          "type": "address"
        }
      ],
      "name": "initialize",
      "outputs": [],
      "stateMutability": "nonpayable",
      "type": "function"
    },
    {
      "inputs": [],
      "name": "l1Gas",
      "outputs": [
        {
          "internalType": "uint32",
          "name": "",
          "type": "uint32"
        }
      ],
      "stateMutability": "view",
      "type": "function"
    },
    {
      "inputs": [],
      "name": "l2Eth",
      "outputs": [
        {
          "internalType": "address",
          "name": "",
          "type": "address"
        }
      ],
      "stateMutability": "view",
      "type": "function"
    },
    {
      "inputs": [
        {
          "internalType": "bytes[]",
          "name": "data",
          "type": "bytes[]"
        }
      ],
      "name": "multicall",
      "outputs": [
        {
          "internalType": "bytes[]",
          "name": "results",
          "type": "bytes[]"
        }
      ],
      "stateMutability": "nonpayable",
      "type": "function"
    },
    {
      "inputs": [],
      "name": "numberOfDeposits",
      "outputs": [
        {
          "internalType": "uint32",
          "name": "",
          "type": "uint32"
        }
      ],
      "stateMutability": "view",
      "type": "function"
    },
    {
      "inputs": [
        {
          "internalType": "bool",
          "name": "pause",
          "type": "bool"
        }
      ],
      "name": "pauseDeposits",
      "outputs": [],
      "stateMutability": "nonpayable",
      "type": "function"
    },
    {
      "inputs": [
        {
          "internalType": "bool",
          "name": "pause",
          "type": "bool"
        }
      ],
      "name": "pauseFills",
      "outputs": [],
      "stateMutability": "nonpayable",
      "type": "function"
    },
    {
      "inputs": [],
      "name": "pausedDeposits",
      "outputs": [
        {
          "internalType": "bool",
          "name": "",
          "type": "bool"
        }
      ],
      "stateMutability": "view",
      "type": "function"
    },
    {
      "inputs": [],
      "name": "pausedFills",
      "outputs": [
        {
          "internalType": "bool",
          "name": "",
          "type": "bool"
        }
      ],
      "stateMutability": "view",
      "type": "function"
    },
    {
      "inputs": [],
      "name": "proxiableUUID",
      "outputs": [
        {
          "internalType": "bytes32",
          "name": "",
          "type": "bytes32"
        }
      ],
      "stateMutability": "view",
      "type": "function"
    },
    {
      "inputs": [],
      "name": "recipientCircleDomainId",
      "outputs": [
        {
          "internalType": "uint32",
          "name": "",
          "type": "uint32"
        }
      ],
      "stateMutability": "view",
      "type": "function"
    },
    {
      "inputs": [
        {
          "internalType": "bytes32",
          "name": "relayerRefundRoot",
          "type": "bytes32"
        },
        {
          "internalType": "bytes32",
          "name": "slowRelayRoot",
          "type": "bytes32"
        }
      ],
      "name": "relayRootBundle",
      "outputs": [],
      "stateMutability": "nonpayable",
      "type": "function"
    },
    {
      "inputs": [
        {
          "internalType": "address",
          "name": "",
          "type": "address"
        },
        {
          "internalType": "address",
          "name": "",
          "type": "address"
        }
      ],
      "name": "relayerRefund",
      "outputs": [
        {
          "internalType": "uint256",
          "name": "",
          "type": "uint256"
        }
      ],
      "stateMutability": "view",
      "type": "function"
    },
    {
      "inputs": [
        {
          "internalType": "address",
          "name": "",
          "type": "address"
        }
      ],
      "name": "remoteL1Tokens",
      "outputs": [
        {
          "internalType": "address",
          "name": "",
          "type": "address"
        }
      ],
      "stateMutability": "view",
      "type": "function"
    },
    {
      "inputs": [
        {
          "components": [
            {
              "internalType": "bytes32",
              "name": "depositor",
              "type": "bytes32"
            },
            {
              "internalType": "bytes32",
              "name": "recipient",
              "type": "bytes32"
            },
            {
              "internalType": "bytes32",
              "name": "exclusiveRelayer",
              "type": "bytes32"
            },
            {
              "internalType": "bytes32",
              "name": "inputToken",
              "type": "bytes32"
            },
            {
              "internalType": "bytes32",
              "name": "outputToken",
              "type": "bytes32"
            },
            {
              "internalType": "uint256",
              "name": "inputAmount",
              "type": "uint256"
            },
            {
              "internalType": "uint256",
              "name": "outputAmount",
              "type": "uint256"
            },
            {
              "internalType": "uint256",
              "name": "originChainId",
              "type": "uint256"
            },
            {
              "internalType": "uint256",
              "name": "depositId",
              "type": "uint256"
            },
            {
              "internalType": "uint32",
              "name": "fillDeadline",
              "type": "uint32"
            },
            {
              "internalType": "uint32",
              "name": "exclusivityDeadline",
              "type": "uint32"
            },
            {
              "internalType": "bytes",
              "name": "message",
              "type": "bytes"
            }
          ],
          "internalType": "struct V3SpokePoolInterface.V3RelayData",
          "name": "relayData",
          "type": "tuple"
        }
      ],
      "name": "requestSlowFill",
      "outputs": [],
      "stateMutability": "nonpayable",
      "type": "function"
    },
    {
      "inputs": [
        {
          "internalType": "uint256",
          "name": "",
          "type": "uint256"
        }
      ],
      "name": "rootBundles",
      "outputs": [
        {
          "internalType": "bytes32",
          "name": "slowRelayRoot",
          "type": "bytes32"
        },
        {
          "internalType": "bytes32",
          "name": "relayerRefundRoot",
          "type": "bytes32"
        }
      ],
      "stateMutability": "view",
      "type": "function"
    },
    {
      "inputs": [
        {
          "internalType": "address",
          "name": "newCrossDomainAdmin",
          "type": "address"
        }
      ],
      "name": "setCrossDomainAdmin",
      "outputs": [],
      "stateMutability": "nonpayable",
      "type": "function"
    },
    {
      "inputs": [
        {
          "internalType": "address",
          "name": "originToken",
          "type": "address"
        },
        {
          "internalType": "uint256",
          "name": "destinationChainId",
          "type": "uint256"
        },
        {
          "internalType": "bool",
          "name": "enabled",
          "type": "bool"
        }
      ],
      "name": "setEnableRoute",
      "outputs": [],
      "stateMutability": "nonpayable",
      "type": "function"
    },
    {
      "inputs": [
        {
          "internalType": "uint32",
          "name": "newl1Gas",
          "type": "uint32"
        }
      ],
      "name": "setL1GasLimit",
      "outputs": [],
      "stateMutability": "nonpayable",
      "type": "function"
    },
    {
      "inputs": [
        {
          "internalType": "address",
          "name": "l2Token",
          "type": "address"
        },
        {
          "internalType": "address",
          "name": "l1Token",
          "type": "address"
        }
      ],
      "name": "setRemoteL1Token",
      "outputs": [],
      "stateMutability": "nonpayable",
      "type": "function"
    },
    {
      "inputs": [
        {
          "internalType": "address",
          "name": "l2Token",
          "type": "address"
        },
        {
          "internalType": "address",
          "name": "tokenBridge",
          "type": "address"
        }
      ],
      "name": "setTokenBridge",
      "outputs": [],
      "stateMutability": "nonpayable",
      "type": "function"
    },
    {
      "inputs": [
        {
          "internalType": "address",
          "name": "newWithdrawalRecipient",
          "type": "address"
        }
      ],
      "name": "setWithdrawalRecipient",
      "outputs": [],
      "stateMutability": "nonpayable",
      "type": "function"
    },
    {
      "inputs": [
        {
          "internalType": "bytes32",
          "name": "depositor",
          "type": "bytes32"
        },
        {
          "internalType": "uint256",
          "name": "depositId",
          "type": "uint256"
        },
        {
          "internalType": "uint256",
          "name": "updatedOutputAmount",
          "type": "uint256"
        },
        {
          "internalType": "bytes32",
          "name": "updatedRecipient",
          "type": "bytes32"
        },
        {
          "internalType": "bytes",
          "name": "updatedMessage",
          "type": "bytes"
        },
        {
          "internalType": "bytes",
          "name": "depositorSignature",
          "type": "bytes"
        }
      ],
      "name": "speedUpDeposit",
      "outputs": [],
      "stateMutability": "nonpayable",
      "type": "function"
    },
    {
      "inputs": [
        {
          "internalType": "address",
          "name": "depositor",
          "type": "address"
        },
        {
          "internalType": "uint256",
          "name": "depositId",
          "type": "uint256"
        },
        {
          "internalType": "uint256",
          "name": "updatedOutputAmount",
          "type": "uint256"
        },
        {
          "internalType": "address",
          "name": "updatedRecipient",
          "type": "address"
        },
        {
          "internalType": "bytes",
          "name": "updatedMessage",
          "type": "bytes"
        },
        {
          "internalType": "bytes",
          "name": "depositorSignature",
          "type": "bytes"
        }
      ],
      "name": "speedUpV3Deposit",
      "outputs": [],
      "stateMutability": "nonpayable",
      "type": "function"
    },
    {
      "inputs": [
        {
          "internalType": "address",
          "name": "",
          "type": "address"
        }
      ],
      "name": "tokenBridges",
      "outputs": [
        {
          "internalType": "address",
          "name": "",
          "type": "address"
        }
      ],
      "stateMutability": "view",
      "type": "function"
    },
    {
      "inputs": [
        {
          "internalType": "bytes[]",
          "name": "data",
          "type": "bytes[]"
        }
      ],
      "name": "tryMulticall",
      "outputs": [
        {
          "components": [
            {
              "internalType": "bool",
              "name": "success",
              "type": "bool"
            },
            {
              "internalType": "bytes",
              "name": "returnData",
              "type": "bytes"
            }
          ],
          "internalType": "struct MultiCallerUpgradeable.Result[]",
          "name": "results",
          "type": "tuple[]"
        }
      ],
      "stateMutability": "nonpayable",
      "type": "function"
    },
    {
      "inputs": [
        {
          "internalType": "bytes32",
          "name": "depositor",
          "type": "bytes32"
        },
        {
          "internalType": "bytes32",
          "name": "recipient",
          "type": "bytes32"
        },
        {
          "internalType": "bytes32",
          "name": "inputToken",
          "type": "bytes32"
        },
        {
          "internalType": "bytes32",
          "name": "outputToken",
          "type": "bytes32"
        },
        {
          "internalType": "uint256",
          "name": "inputAmount",
          "type": "uint256"
        },
        {
          "internalType": "uint256",
          "name": "outputAmount",
          "type": "uint256"
        },
        {
          "internalType": "uint256",
          "name": "destinationChainId",
          "type": "uint256"
        },
        {
          "internalType": "bytes32",
          "name": "exclusiveRelayer",
          "type": "bytes32"
        },
        {
          "internalType": "uint256",
          "name": "depositNonce",
          "type": "uint256"
        },
        {
          "internalType": "uint32",
          "name": "quoteTimestamp",
          "type": "uint32"
        },
        {
          "internalType": "uint32",
          "name": "fillDeadline",
          "type": "uint32"
        },
        {
          "internalType": "uint32",
          "name": "exclusivityParameter",
          "type": "uint32"
        },
        {
          "internalType": "bytes",
          "name": "message",
          "type": "bytes"
        }
      ],
      "name": "unsafeDeposit",
      "outputs": [],
      "stateMutability": "payable",
      "type": "function"
    },
    {
      "inputs": [
        {
          "internalType": "address",
          "name": "newImplementation",
          "type": "address"
        }
      ],
      "name": "upgradeTo",
      "outputs": [],
      "stateMutability": "nonpayable",
      "type": "function"
    },
    {
      "inputs": [
        {
          "internalType": "address",
          "name": "newImplementation",
          "type": "address"
        },
        {
          "internalType": "bytes",
          "name": "data",
          "type": "bytes"
        }
      ],
      "name": "upgradeToAndCall",
      "outputs": [],
      "stateMutability": "payable",
      "type": "function"
    },
    {
      "inputs": [],
      "name": "usdcToken",
      "outputs": [
        {
          "internalType": "contract IERC20",
          "name": "",
          "type": "address"
        }
      ],
      "stateMutability": "view",
      "type": "function"
    },
    {
      "inputs": [],
      "name": "withdrawalRecipient",
      "outputs": [
        {
          "internalType": "address",
          "name": "",
          "type": "address"
        }
      ],
      "stateMutability": "view",
      "type": "function"
    },
    {
      "inputs": [],
      "name": "wrappedNativeToken",
      "outputs": [
        {
          "internalType": "contract WETH9Interface",
          "name": "",
          "type": "address"
        }
      ],
      "stateMutability": "view",
      "type": "function"
    },
    {
      "stateMutability": "payable",
      "type": "receive"
    }
  ],
  "numDeployments": 7,
  "solcInputHash": "0359ae529e7dd2a151481cddaf163489",
  "bytecode": "0x6101e034620002775762005f6c38819003601f8101601f191683016001600160401b038111848210176200027b5783928291604052833961012091829181010312620002775762000050826200028f565b6200005e60208401620002a4565b6200006c60408501620002a4565b60608501516001600160a01b039291908381168103620002775760808701519084821682036200027757620000a460a089016200028f565b92620000b360c08a016200028f565b94620000c260e08b016200028f565b96620000d3610100809c016200028f565b98306080521660a05260c05260e0525f5460ff8160081c16620002775760ff808216036200023c575b5086526101409081525f87526101609182526101809283526101a09384526101c094855260405195615cb59788620002b78939608051888181611159015281816116750152611832015260a0518881816108e0015281816133ee01528181613c3701528181613da2015281816143b3015281816146450152818161495d01528181614f3f01528181614f9d01528181614fc4015281816153b90152615598015260c051888181611aff01528181613beb0152614b4b015260e0518881816104ce015261490b015251878181611ca80152615a75015251868181610883015281816158ca01526159ac0152518581816121a50152818161569f01526159cf0152518481816110d3015281816133a30152614e0c015251838181611d800152614e8801525182818161177f0152615356015251818181612db50152614eb00152f35b60ff90811916175f557f7f26b83ff96e1f2b6a682f133852f6798a09c465da95921460cefb3847402498602060405160ff8152a15f620000fc565b5f80fd5b634e487b7160e01b5f52604160045260245ffd5b51906001600160a01b03821682036200027757565b519063ffffffff82168203620002775756fe6080604052600436101561001a575b3615610018575f80fd5b005b5f3560e01c8063079bd2c71461049f5780630c5d5f731461049a5780630eaac9f0146104955780631186ec331461049057806311eac8551461048b57806315348e441461040457806317fcb39b146104865780631abeb4d7146104815780631b3d55591461047c5780631fab657c14610477578063272751c71461047257806329cb924d1461046d5780632e378115146104685780632e63e59a1461046357806331a0edec1461045e57806333a84ff0146104595780633659cfe614610454578063431023b81461044f578063437b91161461044a578063490e49ef14610445578063493a4f84146104405780634f1ef2861461043b578063524633cc146104365780635249fef1146104315780635285e0581461042c57806352d1902d14610427578063541f4f1414610422578063577f51f81461041d57806357f6dcb8146104185780636068d6cb14610413578063647c576c1461040e578063670fa8ac146104095780636bbbcd2e146104045780636e400983146103ff578063738b62e5146103fa5780637419ffe8146103f5578063766e0703146103f05780637aef642c146103eb5780637b939232146103e65780637ef413e1146103e157806382e2c43f146103dc5780638a7860ce146103d75780638b15788e146103d2578063927ede2d146103cd5780639748cf7c146103c857806397943aa9146103c3578063979f2bc2146103be57806399cc2968146103b95780639a8a0592146103b4578063a1244c67146103af578063a18a096e146103aa578063ac9650d8146103a5578063ad5425c6146103a0578063adb5a6a614610350578063b27a43001461039b578063b370b7f514610396578063babb6aac14610391578063bf10268d1461038c578063c35c83fc14610387578063ceb4c98714610382578063d7e1583a1461037d578063dda5211314610378578063ddd224f114610373578063de7eba781461036e578063deff4b2414610369578063e322921114610364578063ea86bd461461035f578063ee2a53f81461035a578063f083d9b714610355578063f79f29ed14610350578063f8c622741461034b578063fbbba9ac146103465763fc8a584f0361000e57612e8b565b612e07565b612dd9565b612755565b612d96565b612d58565b612c55565b612c2c565b612b37565b612b07565b612ade565b612ab8565b612a82565b612988565b61295d565b6128d9565b612802565b6127db565b61279c565b6125f4565b612554565b6123ed565b6123c6565b6123ac565b612317565b612249565b6121c9565b612186565b612158565b6120da565b612062565b611f47565b611f10565b611e68565b611dc8565b611da4565b611d61565b611ccc565b611c8c565b6108a7565b611c52565b611b7b565b611b23565b611ae3565b611945565b611882565b611818565b6117f1565b6117a3565b611760565b611632565b6115ab565b61158d565b6114c0565b611263565b611131565b6110f7565b6110b4565b610eba565b610d5a565b610d31565b610c92565b610b86565b610a7d565b610904565b6108c1565b610864565b6107c3565b610576565b610510565b6104b2565b5f9103126104ae57565b5f80fd5b346104ae575f3660031901126104ae57602060405163ffffffff7f0000000000000000000000000000000000000000000000000000000000000000168152f35b6001600160a01b038116036104ae57565b359061050e826104f2565b565b346104ae5760203660031901126104ae57602060043561052f816104f2565b6001600160a01b038091165f52610c5d825260405f205416604051908152f35b63ffffffff8116036104ae57565b610144359061050e8261054f565b359061050e8261054f565b346104ae5760203660031901126104ae5763ffffffff6004356105988161054f565b6105a0613a32565b6105a8613aef565b16610c5a8163ffffffff198254161790557fe486a5c4bd7b36eabbfe274c99b39130277417be8d2209b4dae04c4fba64ee3a5f80a26001606555005b634e487b7160e01b5f52604160045260245ffd5b6040810190811067ffffffffffffffff82111761061457604052565b6105e4565b67ffffffffffffffff811161061457604052565b6101a0810190811067ffffffffffffffff82111761061457604052565b6060810190811067ffffffffffffffff82111761061457604052565b6080810190811067ffffffffffffffff82111761061457604052565b6020810190811067ffffffffffffffff82111761061457604052565b60e0810190811067ffffffffffffffff82111761061457604052565b60a0810190811067ffffffffffffffff82111761061457604052565b90601f8019910116810190811067ffffffffffffffff82111761061457604052565b6040519060c0820182811067ffffffffffffffff82111761061457604052565b60405190610180820182811067ffffffffffffffff82111761061457604052565b6040519061050e8261062d565b6040519061050e82610666565b67ffffffffffffffff811161061457601f01601f191660200190565b92919261077b82610753565b9161078960405193846106d6565b8294818452818301116104ae578281602093845f960137010152565b9080601f830112156104ae578160206107c09335910161076f565b90565b6101003660031901126104ae576004356107dc816104f2565b6024356107e8816104f2565b6084358060070b81036104ae5760a435906108028261054f565b60c43567ffffffffffffffff81116104ae576108229036906004016107a5565b9261082b613aef565b60ff61086b5460e81c166108525761084b94606435916044359133613b5f565b6001606555005b604051630b4cba3160e31b8152600490fd5b346104ae575f3660031901126104ae5760206040516001600160a01b037f0000000000000000000000000000000000000000000000000000000000000000168152f35b346104ae575f3660031901126104ae5760206040515f8152f35b346104ae575f3660031901126104ae5760206040516001600160a01b037f0000000000000000000000000000000000000000000000000000000000000000168152f35b346104ae575f3660031901126104ae5760206040517343000000000000000000000000000000000000028152f35b67ffffffffffffffff81116106145760051b60200190565b9080601f830112156104ae57602090823561096481610932565b9361097260405195866106d6565b81855260208086019260051b8201019283116104ae57602001905b82821061099b575050505090565b8135815290830190830161098d565b9080601f830112156104ae5760209082356109c481610932565b936109d260405195866106d6565b81855260208086019260051b8201019283116104ae57602001905b8282106109fb575050505090565b8380918335610a09816104f2565b8152019101906109ed565b9291610a1f82610932565b91610a2d60405193846106d6565b829481845260208094019160051b81019283116104ae57905b828210610a535750505050565b81358152908301908301610a46565b9080601f830112156104ae578160206107c093359101610a14565b6003196060368201126104ae57600435610a968161054f565b60243567ffffffffffffffff928382116104ae5760c09082360301126104ae57610abe6106f8565b90806004013582526024810135602083015260448101358481116104ae57610aec906004369184010161094a565b6040830152610afd6064820161056b565b6060830152610b0e60848201610503565b608083015260a4810135908482116104ae576004610b2f92369201016109aa565b60a08201526044359283116104ae57610b4f610018933690600401610a62565b91612ebb565b9181601f840112156104ae5782359167ffffffffffffffff83116104ae576020808501948460051b0101116104ae57565b346104ae576003196060368201126104ae5760043567ffffffffffffffff8082116104ae576060823603938401126104ae5760243590610bc58261054f565b6044359081116104ae57610bdd903690600401610b55565b919093610be8613aef565b60048401359061018219018112156104ae57610c7e94610c7993610c15610c7293600436918901016129a6565b95610c2b610c2660808901516140df565b613d98565b610c3487613965565b9060446020890151916101608a015193610c4c6106f8565b9a8b5260208b015201356040890152606088015260808701525f60a08701523691610a14565b90836140f5565b614246565b6100186001606555565b801515036104ae57565b346104ae5760603660031901126104ae57600435610caf816104f2565b602435907f0a21fdd43d0ad0c62689ee7230a47309a050755bcc52eba00310add65297692a60206001600160a01b0360443593610ceb85610c88565b610cf3613a32565b610cfb613aef565b1692835f5261086d825260405f20855f52825260405f209015159060ff1981541660ff8316179055604051908152a36001606555005b346104ae575f3660031901126104ae576020604051428152f35b90816101809103126104ae5790565b346104ae5760403660031901126104ae5760043567ffffffffffffffff81116104ae57610d8b903690600401610d4b565b610d94816130b3565b6001600160a01b031690610daa602082016130b3565b6001600160a01b031691610dc0604083016130b3565b6001600160a01b0316610dd5606084016130b3565b6001600160a01b031692610deb608082016130b3565b6001600160a01b031690610100610e038183016130bd565b9061012090610e138483016130bd565b9261014094858101610e24906130bd565b966101609a8b8301610e3690846130c7565b9a909b610e41610718565b9e8f91825260208201526040015260608d015260808c015260a081013560a08c015260c081013560c08c015260e0013560e08b015263ffffffff1690890152870190610e92919063ffffffff169052565b63ffffffff909116908501523690610ea99261076f565b908201523360243561001892613996565b346104ae5760203660031901126104ae576004803567ffffffffffffffff81116104ae57610eeb9036908301610d4b565b610ef3613aef565b60ff61086b5460e01c166110a45763ffffffff80421692610140830193610f2c81610f1d876130bd565b63ffffffff9182169116101590565b61109457610120840192610f3f846130bd565b161061108557610f57610f5236856129a6565b613965565b90610f6b825f5261087260205260405f2090565b546110775750610fba7f3cee3e290f36226751cd0b3321b213890fe9c768e922f267fa6111836ce05c3292610fb5610faf610fc0945f5261087260205260405f2090565b60019055565b6130bd565b936130bd565b610fe0610fdb610fd46101608601866130c7565b369161076f565b61471b565b9061106a6040519283926101008701359760e08801359760208101359281359260408301359260c08101359060a081013590606060808201359101358b9693909a999895919261012098959361014089019c895260208901526040880152606087015263ffffffff80921660808701521660a085015260c084015260e08301526101008201520152565b0390a36100186001606555565b604051624be79160e21b8152fd5b60405163d642b7d960e01b8152fd5b50604051630277ae7b60e21b8152fd5b50604051633d90fc5560e11b8152fd5b346104ae575f3660031901126104ae5760206040516001600160a01b037f0000000000000000000000000000000000000000000000000000000000000000168152f35b346104ae575f3660031901126104ae5760206040517f9c6dfd61d811b9950a4f2b9adf46357b717c816d22c420d0bde8f2360148f7cd8152f35b346104ae5760203660031901126104ae5760043561114e816104f2565b6001600160a01b03807f0000000000000000000000000000000000000000000000000000000000000000168030146104ae577f360894a13ba1a3210667c828492db98dca3e2076cc3735a920a3ca505d382bbc9082825416036104ae576111b3613a32565b604051916111c083610682565b5f83527f4910fdfa16fed3260ed0e7147f7cc6da11a60208b5b9406d12a635614ffd91435460ff16156111f9575050506100189061515c565b6020600491604051928380926352d1902d60e01b825288165afa5f9181611232575b50611224575f80fd5b036104ae5761001891615043565b61125591925060203d60201161125c575b61124d81836106d6565b8101906132f7565b905f61121b565b503d611243565b346104ae5760803660031901126104ae576004356112808161054f565b6024359061128d826104f2565b604435611299816104f2565b606435916112a6836104f2565b60ff5f5460081c16156104ae576112ed90610c5a624c4b4063ffffffff1982541617905561086b9063ffffffff60c01b1963ffffffff60c01b83549260c01b169116179055565b604051906112fa826105f8565b6009825260208201916820a1a927a9a996ab1960b91b8352640312e302e360dc1b6020604051611329816105f8565b60058152015260ff5f5460081c16156104ae576100189461138e936113899251902061047f557f06c015bd22b4c69690933c1058878ebdfef31f9aaae40bbe86d8a09fe1b2972c6104805561137c614b82565b611384614b91565b614ba5565b614bff565b610c5a9077ffffffffffffffffffffffffffffffffffffffff000000001977ffffffffffffffffffffffffffffffffffffffff0000000083549260201b169116179055565b60206003198201126104ae576004359067ffffffffffffffff82116104ae576113fe91600401610b55565b9091565b5f5b8381106114135750505f910152565b8181015183820152602001611404565b9060209161143c81518092818552858086019101611402565b601f01601f1916010190565b6020808201908083528351809252604092604081018260408560051b8401019601945f925b85841061147e575050505050505090565b9091929394959685806114af600193603f1986820301885286838d5180511515845201519181858201520190611423565b99019401940192959493919061146d565b346104ae576114ce366113d3565b6114d781610932565b9160406114e760405194856106d6565b828452601f196114f684610932565b015f5b81811061156a5750505f5b83811061151d57604051806115198782611448565b0390f35b8061156461152d60019388613232565b515f8061153b858a8a613246565b9061154a89518093819361325d565b0390305af49061155861326a565b60208201529015159052565b01611504565b6020908351611578816105f8565b5f8152826060818301528289010152016114f9565b346104ae575f3660031901126104ae5760206040516301e133808152f35b346104ae5760403660031901126104ae576024356004356115ca613a32565b6115d2613aef565b61086c8054680100000000000000008110156106145763ffffffff91600182019055836115fe82612d19565b5084600182015555167fc86ba04c55bc5eb2f2876b91c438849a296dbec7b08751c3074d92e04f0a77af5f80a46001606555005b60403660031901126104ae5760043561164a816104f2565b60243567ffffffffffffffff81116104ae5761166a9036906004016107a5565b6001600160a01b03807f000000000000000000000000000000000000000000000000000000000000000016908130146104ae577f360894a13ba1a3210667c828492db98dca3e2076cc3735a920a3ca505d382bbc9181835416036104ae576116d0613a32565b7f4910fdfa16fed3260ed0e7147f7cc6da11a60208b5b9406d12a635614ffd91435460ff1615611706575050506100189061515c565b6020600491604051928380926352d1902d60e01b825288165afa5f918161173f575b50611731575f80fd5b036104ae576100189161510b565b61175991925060203d60201161125c5761124d81836106d6565b905f611728565b346104ae575f3660031901126104ae5760206040516001600160a01b037f0000000000000000000000000000000000000000000000000000000000000000168152f35b346104ae5760403660031901126104ae576001600160a01b036004356117c8816104f2565b165f5261086d60205260405f206024355f52602052602060ff60405f2054166040519015158152f35b346104ae575f3660031901126104ae5760206001600160a01b036108695416604051908152f35b346104ae575f3660031901126104ae576001600160a01b037f00000000000000000000000000000000000000000000000000000000000000001630036104ae5760206040517f360894a13ba1a3210667c828492db98dca3e2076cc3735a920a3ca505d382bbc8152f35b6101203660031901126104ae5760043561189b816104f2565b602435906118a8826104f2565b604435916118b5836104f2565b60a4358060070b81036104ae5760c435916118cf8361054f565b60e43567ffffffffffffffff81116104ae576118ef9036906004016107a5565b936118f8613aef565b60ff61086b5460e81c166108525761084b956084359260643592613b5f565b9181601f840112156104ae5782359167ffffffffffffffff83116104ae57602083818601950101116104ae57565b346104ae5760c03660031901126104ae57600435611962816104f2565b60243560443591606435611975816104f2565b67ffffffffffffffff916084358381116104ae57611997903690600401611917565b60a4949194359182116104ae577f45e04bc8f121ba11466985789ca2822a91109f31bb8ac85504a37b7eaf873c26946119d7611ade933690600401611917565b9290916001600160a01b038097168a611ad26119f436868661076f565b60428d611a02368b8b61076f565b92602081519101209460409586519160208301937f9c6dfd61d811b9950a4f2b9adf46357b717c816d22c420d0bde8f2360148f7cd85528884015246606084015260808301528760a083015260c082015260c08152611a608161069e565b51902061047f546104805486519060208201927fc2f8787176b8ac6bf7215b4adcc1e069bf4ab82d9ab1df05a57a91d425935b6e845288830152606082015246608082015260808152611ab2816106ba565b5190209085519161190160f01b835260028301526022820152208a61519f565b51978897169a876132b9565b0390a3005b346104ae575f3660031901126104ae57602060405163ffffffff7f0000000000000000000000000000000000000000000000000000000000000000168152f35b346104ae575f3660031901126104ae57602060ff61086b5460e81c166040519015158152f35b60609060031901126104ae57600435611b618161054f565b90602435611b6e816104f2565b906044356107c0816104f2565b346104ae57611b8936611b49565b5f54600881901c60ff1615939290849081611c44575b8115611c24575b50156104ae57611bca9284611bc1600160ff195f5416175f55565b611c0d57613306565b611bd057005b611bde61ff00195f54165f55565b604051600181527f7f26b83ff96e1f2b6a682f133852f6798a09c465da95921460cefb384740249890602090a1005b611c1f61010061ff00195f5416175f55565b613306565b303b15915081611c36575b505f611ba6565b6001915060ff16145f611c2f565b600160ff8216109150611b9f565b346104ae575f3660031901126104ae5760206040517f8d1994e2bbbd77564cdca06dd819e7ee2a5efa06c80dcb59a4a7b6e39edc538f8152f35b346104ae575f3660031901126104ae57602060405163ffffffff7f0000000000000000000000000000000000000000000000000000000000000000168152f35b346104ae5760203660031901126104ae577fe88463c2f254e2b070013a2dc7ee1e099f9bc00534cbdf03af551dc26ae492196020600435611d0c81610c88565b611d14613a32565b611d1c613aef565b151561086b80547fffff00ffffffffffffffffffffffffffffffffffffffffffffffffffffffffff60ff60e81b8460e81b169116179055604051908152a16001606555005b346104ae575f3660031901126104ae5760206040516001600160a01b037f0000000000000000000000000000000000000000000000000000000000000000168152f35b346104ae575f3660031901126104ae57602063ffffffff610c5a5416604051908152f35b6101603660031901126104ae57600435611de1816104f2565b60243590611dee826104f2565b604435611dfa816104f2565b60643590611e07826104f2565b60e435611e13816104f2565b6101043590611e218261054f565b6101243592611e2f8461054f565b610144359667ffffffffffffffff88116104ae57611e54610018983690600401611917565b97909660c4359360a43593608435936134b6565b6101803660031901126104ae57600435611e81816104f2565b60243590611e8e826104f2565b604435611e9a816104f2565b60643590611ea7826104f2565b60e435611eb3816104f2565b61010435611ec08161054f565b6101243591611ece8361054f565b611ed661055d565b93610164359767ffffffffffffffff89116104ae57611efc610018993690600401611917565b98909760c4359360a43593608435936134d8565b346104ae5760603660031901126104ae576020611f3f600435611f32816104f2565b60443590602435906135f3565b604051908152f35b346104ae5760603660031901126104ae5767ffffffffffffffff6024358181116104ae57611f79903690600401611917565b916044359081116104ae57611f92903690600401611917565b9060405193602085019480611fa94684888a61362f565b0395611fbd601f19978881018452836106d6565b6004359151902003612050575f94611fec61200e93611fe38761201a958a990190612a5c565b9581019061364c565b519360405193849160208301966337bfd2c960e21b8852339160248501613714565b039081018352826106d6565b5190305af461202761326a565b901561202f57005b60405163b8fe37a760e01b815290819061204c9060048301613736565b0390fd5b604051630f0c8f4760e11b8152600490fd5b346104ae5760203660031901126104ae5760043561207e613a32565b612086613aef565b61208f81612d19565b6120c7576001815f80935501557f7c1af0646963afc3343245b103731965735a893347bfa0d58a5dc77a77ae691c5f80a26001606555005b634e487b7160e01b5f525f60045260245ffd5b6101a03660031901126104ae57610124356120f48161054f565b610144356121018161054f565b610164359161210f8361054f565b610184359267ffffffffffffffff84116104ae57612134610018943690600401611917565b9390926101043560e43560c43560a435608435606435604435602435600435613747565b346104ae575f3660031901126104ae5760206040517342000000000000000000000000000000000000078152f35b346104ae575f3660031901126104ae5760206040516001600160a01b037f0000000000000000000000000000000000000000000000000000000000000000168152f35b346104ae5760e03660031901126104ae5767ffffffffffffffff6004358181116104ae576121fb903690600401610d4b565b60a4358281116104ae57612213903690600401611917565b60c4929192359384116104ae57612231610018943690600401611917565b939092608435906064359060443590602435906137bf565b346104ae5761225736611b49565b909160ff5f5460081c16156104ae5761228d9061086b9063ffffffff60c01b1963ffffffff60c01b83549260c01b169116179055565b604051612299816105f8565b6009815260208101926820a1a927a9a996ab1960b91b8452640312e302e360dc1b60206040516122c8816105f8565b60058152015260ff5f5460081c16156104ae57610018936113899251902061047f557f06c015bd22b4c69690933c1058878ebdfef31f9aaae40bbe86d8a09fe1b2972c6104805561137c614b82565b346104ae5760203660031901126104ae577f2d5b62420992e5a4afce0e77742636ca2608ef58289fd2e1baa5161ef6e7e41e602060043561235781610c88565b61235f613a32565b612367613aef565b151561086b80547fffffff00ffffffffffffffffffffffffffffffffffffffffffffffffffffffff60ff60e01b8460e01b169116179055604051908152a16001606555005b346104ae575f3660031901126104ae576020604051468152f35b346104ae575f3660031901126104ae57602063ffffffff61086b5460c01c16604051908152f35b346104ae5760403660031901126104ae5760043560243561240d82614f67565b6001600160a01b0382165f5261087360205261243c60405f20336001600160a01b03165f5260205260405f2090565b549182156124df575f6124833361246d612455856140df565b6001600160a01b03165f5261087360205260405f2090565b906001600160a01b03165f5260205260405f2090565b556124af836124a0612494846140df565b6001600160a01b031690565b6124a9856140df565b90614c59565b60405192835233927f6c172ea51018fb2eb2118f3f8a507c4df71eb519b8c0052834dc3c920182fef490602090a4005b6040516336542bf760e21b8152600490fd5b6020808201906020835283518092526040830192602060408460051b8301019501935f915b8483106125265750505050505090565b9091929394958480612544600193603f198682030187528a51611423565b9801930193019194939290612516565b346104ae57612562366113d3565b9061256c826138a8565b915f5b818110612584576040518061151986826124f1565b5f80612591838587613246565b906125a16040518093819361325d565b0390305af46125ae61326a565b90156125d457906001916125c28287613232565b526125cd8186613232565b500161256f565b60448151106104ae578060046104ae9201516024809183010191016138f1565b610180806003193601126104ae576101043561260f8161054f565b610124359161261d8361054f565b610144359261262b8461054f565b6101643567ffffffffffffffff81116104ae5761264c903690600401611917565b612654613aef565b61086b549260ff8460e81c1661085257610c7e96612719610fd49261270b63ffffffff6127279860c01c16996126af61268c8c613950565b61086b9063ffffffff60c01b1963ffffffff60c01b83549260c01b169116179055565b6126b7610739565b9a6004358c5260243560208d015260443560408d015260643560608d015260843560808d015260a43560a08d015260c43560c08d015260e43560e08d01526101008c01526101208b019063ffffffff169052565b63ffffffff16610140890152565b63ffffffff16610160870152565b90820152614862565b60409060031901126104ae57600435612748816104f2565b906024356107c0816104f2565b346104ae5760206127936001600160a01b0361277036612730565b91165f52610873835260405f20906001600160a01b03165f5260205260405f2090565b54604051908152f35b346104ae5760203660031901126104ae5760206004356127bb816104f2565b6001600160a01b038091165f52610c5c825260405f205416604051908152f35b346104ae575f3660031901126104ae5760206001600160a01b0361086a5416604051908152f35b346104ae5760c03660031901126104ae5760043560243567ffffffffffffffff6064356044356084358381116104ae57612840903690600401611917565b60a4949194359182116104ae577f45e04bc8f121ba11466985789ca2822a91109f31bb8ac85504a37b7eaf873c26946128806128cf933690600401611917565b92909161288b613aef565b6128948a614f67565b6128c3898b89896128a636888861076f565b926128b2368b8b61076f565b946001600160a01b03469216614730565b604051968796876132b9565b0390a36001606555005b346104ae576128e736612730565b906128f0613a32565b6128f8613aef565b6001600160a01b0380911691825f52610c5d6020526129308160405f20906001600160a01b03166001600160a01b0319825416179055565b16907fcb84c2022106a6f2b6f805d446f32fbfd2a528474364fa755f37dac1c0c1b6c85f80a36001606555005b346104ae5760203660031901126104ae576004355f52610872602052602060405f2054604051908152f35b346104ae575f3660031901126104ae57602060405163ffffffff8152f35b9190610180838203126104ae576129bb610718565b92803584526020810135602085015260408101356040850152606081013560608501526080810135608085015260a081013560a085015260c081013560c085015260e081013560e08501526101008082013590850152610120612a1f81830161056b565b90850152610140612a3181830161056b565b90850152610160918282013567ffffffffffffffff81116104ae57612a5692016107a5565b90830152565b906020828203126104ae57813567ffffffffffffffff81116104ae576107c092016129a6565b346104ae5760203660031901126104ae5760043567ffffffffffffffff81116104ae57611f3f610f5260209236906004016129a6565b346104ae575f3660031901126104ae57602060ff61086b5460e01c166040519015158152f35b346104ae575f3660031901126104ae5760206040516ec097ce7bc90715b34b9f10000000008152f35b346104ae5760203660031901126104ae5761084b600435612b27816104f2565b612b2f613a32565b611384613aef565b346104ae5760603660031901126104ae5760043567ffffffffffffffff81116104ae57612b689036906004016129a6565b612b70613aef565b60ff61086b5460e01c16612c1a5761014081015163ffffffff4281169116101580612bfb575b612be95780612ba7610c7e92613965565b60c082015160208301519061016084015192612bc16106f8565b948552602085015260408401526060830152608082015260243560a0820152604435906144ba565b604051630c3a9b9d60e41b8152600490fd5b50612c0960408201516140df565b6001600160a01b0316331415612b96565b604051633d90fc5560e11b8152600490fd5b346104ae575f3660031901126104ae576020610c5a546001600160a01b0360405191831c168152f35b610160806003193601126104ae5761010435612c708161054f565b61012435612c7d8161054f565b6101443567ffffffffffffffff81116104ae57612c9e903690600401611917565b63ffffffff94612cb18642169586613499565b93612cba613aef565b61086b549160ff8360e81c1661085257612ced612cfa9661270b610c7e9a610fd49660c01c16996126af61268c8c613950565b86019063ffffffff169052565b610180820152614862565b634e487b7160e01b5f52603260045260245ffd5b61086c908154811015612d53576003915f52027f71cd7344f4eb2efc8e30291f6dbdb44d618ca368ea5425d217c1d604bf26b84d01905f90565b612d05565b346104ae5760203660031901126104ae5760043561086c548110156104ae57612d82604091612d19565b506001815491015482519182526020820152f35b346104ae575f3660031901126104ae5760206040516001600160a01b037f0000000000000000000000000000000000000000000000000000000000000000168152f35b346104ae575f3660031901126104ae5760206040517343000000000000000000000000000000000000058152f35b346104ae57612e1536612730565b90612e1e613a32565b612e26613aef565b6001600160a01b0380911691825f52610c5c602052612e5e8160405f20906001600160a01b03166001600160a01b0319825416179055565b16907ff3dc137d2246f9b8abd0bb821e185ba01122c9b3ea3745ffca6208037674d6705f80a36001606555005b346104ae5760203660031901126104ae5761084b600435612eab816104f2565b612eb3613a32565b611389613aef565b91612ec4613aef565b6080820191612edd610c2684516001600160a01b031690565b602081019182514603612fe457612f05612f0991836001612efd89612d19565b500154613e0a565b1590565b612fd2578060607ff4ad92585b1bc117fbdd644990adf0827bc4c95baeae8a23322af807b6d0020e920193612f4b612f45865163ffffffff1690565b87613e9c565b612fc5845194835193612faa612f9c612f8b60408401998a51612f728d5163ffffffff1690565b89516001600160a01b03169160a088019b8c5194613efe565b925193519851995163ffffffff1690565b94516001600160a01b031690565b945163ffffffff9586604051978897169b1699339487613065565b0390a461050e6001606555565b60405163582f497d60e11b8152600490fd5b604051633d23e4d160e11b8152600490fd5b9081518082526020808093019301915f5b828110613015575050505090565b835185529381019392810192600101613007565b9081518082526020808093019301915f5b828110613048575050505090565b83516001600160a01b03168552938101939281019260010161303a565b949695919361308760a0956130a593885260c0602089015260c0880190612ff6565b906001600160a01b0380951660408801528682036060880152613029565b951515608085015216910152565b356107c0816104f2565b356107c08161054f565b903590601e19813603018212156104ae570180359067ffffffffffffffff82116104ae576020019181360383136104ae57565b634e487b7160e01b5f52602160045260245ffd5b6003111561311857565b6130fa565b91909160ff5f5460081c16156104ae5761316790610c5a624c4b4063ffffffff1982541617905561086b9063ffffffff60c01b1963ffffffff60c01b83549260c01b169116179055565b604051613173816105f8565b6009815260208101926820a1a927a9a996ab1960b91b8452640312e302e360dc1b60206040516131a2816105f8565b60058152015260ff5f5460081c16156104ae576131f1936113899251902061047f557f06c015bd22b4c69690933c1058878ebdfef31f9aaae40bbe86d8a09fe1b2972c6104805561137c614b82565b61050e610c5a77deaddeaddeaddeaddeaddeaddeaddeaddead00000000000077ffffffffffffffffffffffffffffffffffffffff0000000019825416179055565b8051821015612d535760209160051b010190565b90821015612d53576113fe9160051b8101906130c7565b908092918237015f815290565b3d15613294573d9061327b82610753565b9161328960405193846106d6565b82523d5f602084013e565b606090565b908060209392818452848401375f828201840152601f01601f1916010190565b949290936132de926107c0979587526020870152608060408701526080860191613299565b926060818503910152613299565b6040513d5f823e3d90fd5b908160209103126104ae575190565b90613311929161311d565b734300000000000000000000000000000000000002803b156104ae5760405163784c3b3d60e11b81525f8160048183865af1801561343757613472575b50803b156104ae575f8091600460405180948193634e606c4760e01b83525af1801561343757613459575b50604051631a33757d60e01b808252600260048301526020916001600160a01b039183826024815f7f000000000000000000000000000000000000000000000000000000000000000088165af191821561343757849261343c575b506040519081526002600482015291829060249082905f907f0000000000000000000000000000000000000000000000000000000000000000165af180156134375761341e575050565b8161343492903d1061125c5761124d81836106d6565b50565b6132ec565b61345290833d851161125c5761124d81836106d6565b505f6133d4565b8061346661346c92610619565b806104a4565b5f613379565b8061346661347f92610619565b5f61334e565b634e487b7160e01b5f52601160045260245ffd5b91909163ffffffff808094169116019182116134b157565b613485565b969492909161050e9b9a99989694926134d663ffffffff42169889613499565b985b9593919b999897969492909b6134ec613aef565b61086b549660ff8860e81c16610852578760c01c63ffffffff1661350f90613950565b6135369061086b9063ffffffff60c01b1963ffffffff60c01b83549260c01b169116179055565b61353e610739565b9d6001600160a01b038f921682526001600160a01b031690602001526001600160a01b031660408d01526001600160a01b031660608c015260808b015260a08a015260c08901526001600160a01b031660e088015260c01c63ffffffff166101008701526101208601906135b7919063ffffffff169052565b63ffffffff1661014085015263ffffffff1661016084015236906135da9261076f565b6101808201526135e990614862565b61050e6001606555565b916040519160208301936bffffffffffffffffffffffff199060601b168452603483015260548201526054815261362981610666565b51902090565b93929160209161364791604087526040870191613299565b930152565b908160209103126104ae57604051906020820182811067ffffffffffffffff8211176106145760405235815290565b6107c09161018090825181526020830151602082015260408301516040820152606083015160608201526080830151608082015260a083015160a082015260c083015160c082015260e083015160e082015261010080840151908201526136f0610120808501519083019063ffffffff169052565b6101408381015163ffffffff16908201528161016080940151938201520190611423565b61372c6040929594939560608352606083019061367b565b9460208201520152565b9060206107c0928181520190611423565b9c9a999897969594939291909661375c613aef565b60ff61086b5460e81c1661085257613775908e336135f3565b96604051809e6137848261062d565b81526020015260408d015260608c015260808b015260a08a015260c089015260e088015261010087015263ffffffff166101208601526135b7565b9792909593919694976137d0613aef565b60ff61086b5460e01c16612c1a576137eb61014082016130bd565b63ffffffff8042169116101580613889575b612be9576138726138849661386a6135e99b61381c610f5236876129a6565b9a6138256106f8565b9b61383036886129a6565b8d5260208d01528660408d01528760608d015261384e368b8461076f565b60808d015260a08c015261386285356140df565b98369161076f565b95369161076f565b9461010060e083013592013590614730565b6144ba565b5061389760408201356140df565b6001600160a01b03163314156137fd565b906138b282610932565b6138bf60405191826106d6565b82815280926138d0601f1991610932565b01905f5b8281106138e057505050565b8060606020809385010152016138d4565b6020818303126104ae5780519067ffffffffffffffff82116104ae570181601f820112156104ae57805161392481610753565b9261393260405194856106d6565b818452602082840101116104ae576107c09160208085019101611402565b63ffffffff8091169081146134b15760010190565b60405161362981613982602082019460408652606083019061367b565b46604083015203601f1981018352826106d6565b9190916139a1613aef565b60ff61086b5460e01c16612c1a5761014081015163ffffffff4281169116101580613a13575b612be9576135e9926139d882613965565b60c0830151602084015190610160850151926139f26106f8565b958652602086015260408501526060840152608083015260a08201526144ba565b50613a2160408201516140df565b6001600160a01b03163314156139c7565b734200000000000000000000000000000000000007803303613add57602060049160405192838092636e296e4560e01b82525afa908115613437575f91613aae575b506001600160a01b03613a93612494610869546001600160a01b031690565b911603613a9c57565b6040516336a816d960e01b8152600490fd5b613ad0915060203d602011613ad6575b613ac881836106d6565b810190614ca1565b5f613a74565b503d613abe565b60405163253a6fc960e11b8152600490fd5b6002606554146104ae576002606555565b919082039182116134b157565b926107c09695929491946101409585525f60208601526040850152606084015263ffffffff809116608084015260a08301525f60c083015260e08201525f610100820152816101208201520190611423565b91939496909596613ba0612f05613b9988613b8c896001600160a01b03165f5261086d60205260405f2090565b905f5260205260405f2090565b5460ff1690565b613d865760070b906706f05b59d3b20000613bba83614cb6565b1015613d74576ec097ce7bc90715b34b9f10000000008411613d625763ffffffff93613be8858a1642613b00565b857f00000000000000000000000000000000000000000000000000000000000000001610613d505761086b5460c01c63ffffffff1698613c2a61268c8b613950565b6001600160a01b039586807f00000000000000000000000000000000000000000000000000000000000000001698169288841480613d47575b15613d0b57803403613cf957883b156104ae575f6004996040519a8b8092630d0e30db60e41b825234905af198891561343757613cce613ce1978a927f32ed1a409ef04c7b0227189c3a103dc5ac10e775a15b785dcc510201f7c25ad39c613ce6575b505b83614d04565b92604051998a99169d169b169387613b0d565b0390a4565b80613466613cf392610619565b5f613cc6565b604051636452a35d60e01b8152600490fd5b7f32ed1a409ef04c7b0227189c3a103dc5ac10e775a15b785dcc510201f7c25ad3985087613cce613ce197613d428430338a614cc5565b613cc8565b50341515613c63565b60405163f722177f60e01b8152600490fd5b60405163622db5a960e11b8152600490fd5b60405163284f109760e21b8152600490fd5b604051632a58c4f360e01b8152600490fd5b6001600160a01b037f0000000000000000000000000000000000000000000000000000000000000000811691168114613dce5750565b47613dd65750565b4790803b156104ae575f90600460405180948193630d0e30db60e41b83525af1801561343757156134345761050e90610619565b6107c09291604051613e9381613e85602082019460208652805160408401526020810151606084015260a0613e4f604083015160c06080870152610100860190612ff6565b606083015163ffffffff168583015260808301516001600160a01b031660c0860152910151838203603f190160e0850152613029565b03601f1981018352826106d6565b51902091614d3a565b613ea7600291612d19565b500162ffffff8260081c16805f5281602052600160ff60405f205494161b8080941614613edf575f5260205260405f20908154179055565b60405163954476d960e01b8152600490fd5b919082018092116134b157565b91959495939092935f96815190818151036140cd5781613f7d575b50505082613f28575b50505050565b6001600160a01b0381613f5c7ffa7fa7cf6d7dde5f9be65a67e6a1a747e7aa864dcd2d793353c722d80fbbb3579386614dfd565b6040805195865233602087015291169463ffffffff1693a45f808080613f22565b604080516370a0823160e01b81523060048083019190915291906020816024816001600160a01b038b165afa908115613437575f916140ae575b505f805b868110613fcc575050505050613f19565b613fd68189613232565b51613fe4575b600101613fbb565b90613ffa90613ff3838a613232565b5190613ef1565b9082821161409e57614034612f05614022614015848a613232565b516001600160a01b031690565b61402c848c613232565b51908c614d8b565b15613fdc579c508761409461408c8f614077614015614070614056848f613232565b51966001600160a01b03165f5261087360205260405f2090565b928b613232565b6001600160a01b03165f5260205260405f2090565b918254613ef1565b905560019c613fdc565b50505051632ddaa83160e11b8152fd5b6140c7915060203d60201161125c5761124d81836106d6565b5f613fb7565b6040516319a5316760e31b8152600490fd5b6001600160a01b03906140f181614f67565b1690565b91612f059061416e928451604080960151918651916141138361064a565b8252613e9361412e6020840192468452898501958652612d19565b50549388519283916141536020840196602088525160608d86015260a085019061367b565b9151606084015251608083015203601f1981018352826106d6565b6141755750565b5163582f497d60e11b8152600490fd5b61418e8261310e565b52565b9a989693919c9b9997959492909c6101e08c019d8c5260208c015260408b015260608a0152608089015263ffffffff80921660a08901521660c087015260e08601526101008501526101208401526101408301528051610160830152602081015161018083015260408101516101a083015260600151906142118261310e565b6101c00152565b906107c094936080936001600160a01b03809316845260208401521660408201528160608201520190611423565b905f8251610120810161425d815163ffffffff1690565b63ffffffff429116106144a8576020850151906002614285835f5261087260205260405f2090565b54146144965761429f86925f5261087260205260405f2090565b6002905560608301519060808401519160a08501519260c0860151918560a0810151938860e08101519561010082015197516142de9063ffffffff1690565b61014083015163ffffffff1660408401519184519360208601519561016001516143079061471b565b966060890151986080019e8f5161431d9061471b565b90604001519061432b610746565b9a8b5260208b015260408a0152600260608a01526040519d8e9b61434f9b8d614191565b037f44b559f101f8fbcc8a0ea43fa91a05a729a5ea6e14a7c75aa750374690137208905f94a46080820151614383906140df565b9060408601519560600151614397906140df565b92608001516143a5906140df565b6001600160a01b03919082167f0000000000000000000000000000000000000000000000000000000000000000831603614481578461446e575b6143eb87838616614f82565b51928351151580614464575b614405575b50505050509050565b1690813b156144605783614433959660405196879586948593633a5be8cb60e01b8552339160048601614218565b03925af180156134375761444d575b8080808085946143fc565b8061346661445a92610619565b5f614442565b8380fd5b50803b15156143f7565b61447c873033858716614cc5565b6143df565b5f94506144918785858516614c59565b6143eb565b604051630479306360e51b8152600490fd5b60405163d642b7d960e01b8152600490fd5b80519161012083016144d0815163ffffffff1690565b63ffffffff429116106144a857602083015160016144f7825f5261087260205260405f2090565b5403614714576001905b6002614516825f5261087260205260405f2090565b541461449657614532614538915f5261087260205260405f2090565b60029055565b7f44b559f101f8fbcc8a0ea43fa91a05a729a5ea6e14a7c75aa75037469013720860608601516080870151906146058760a08a0151958a60c08101519760a08401519860e0830151996145956101008501519c5163ffffffff1690565b61014085015163ffffffff16916040860151938651956145f96145c161016060208b01519a015161471b565b9960608c01519b60406145d7608083015161471b565b9101519060206145e5610746565b9e8f528e015260408d015260608c01614185565b6040519c8d9c8d614191565b0390a461461560808301516140df565b9160408201519160806146378161462f60608501516140df565b9401516140df565b6001600160a01b03929083167f000000000000000000000000000000000000000000000000000000000000000084160361470157614679853033868a16614cc5565b61468585848616614f82565b01519182511515806146f7575b61469e575b5050505050565b16803b156104ae576146cc935f809460405196879586948593633a5be8cb60e01b8552339160048601614218565b03925af18015613437576146e4575b80808080614697565b806134666146f192610619565b5f6146db565b50803b1515614692565b61470f858533868a16614cc5565b614685565b5f90614501565b805190816147295750505f90565b6020012090565b939260429361050e979660208151910120906040519260208401947f8d1994e2bbbd77564cdca06dd819e7ee2a5efa06c80dcb59a4a7b6e39edc538f86526040850152856060850152608084015260a083015260c082015260c081526147958161069e565b5190209061047f549061048054906040519160208301937fc2f8787176b8ac6bf7215b4adcc1e069bf4ab82d9ab1df05a57a91d425935b6e8552604084015260608301526080820152608081526147eb816106ba565b519020906040519161190160f01b835260028301526022820152209061519f565b96926107c09a9996949198959261014099895260208901526040880152606087015263ffffffff928380921660808801521660a08601521660c084015260e0830152610100820152816101208201520190611423565b61486c8151614f67565b6040908181019061489861488083516140df565b6001600160a01b03165f5261086d60205260405f2090565b926148b5612f05613b9960c085019687515f5260205260405f2090565b614b72576101208201926148d96148d0855163ffffffff1690565b63ffffffff1690565b804210908115614b39575b50614b28576101408301926148fd845163ffffffff1690565b9163ffffffff9283614931817f00000000000000000000000000000000000000000000000000000000000000001642613ef1565b911611614b175761016082015163ffffffff169280841680614ad3575b50508051936001600160a01b037f00000000000000000000000000000000000000000000000000000000000000001680951480614aca575b15614a645760808301513403614a5457843b156104ae575f600495825196878092630d0e30db60e41b825234905af1918215613437577f32ed1a409ef04c7b0227189c3a103dc5ac10e775a15b785dcc510201f7c25ad395613ce193614a41575b505b519260608101519460808201519060a08301519a5198614a21614a166101008601519c5163ffffffff1690565b915163ffffffff1690565b9084519c60208601519461018060e088015197015197519a8b9a8b61480c565b80613466614a4e92610619565b5f6149e7565b51636452a35d60e01b8152600490fd5b9192935034614ab9577f32ed1a409ef04c7b0227189c3a103dc5ac10e775a15b785dcc510201f7c25ad393929181614ab4614aa5612494613ce195516140df565b60808601519030903390614cc5565b6149e9565b8151636452a35d60e01b8152600490fd5b50341515614986565b6301e133801015614b02575b5060e082015115614af1575f8061494e565b835163495d907f60e01b8152600490fd5b92614b109193421690613499565b915f614adf565b835163582e388960e01b8152600490fd5b815163f722177f60e01b8152600490fd5b614b44915042613b00565b63ffffffff7f000000000000000000000000000000000000000000000000000000000000000016105f6148e4565b51632a58c4f360e01b8152600490fd5b60ff5f5460081c16156104ae57565b60ff5f5460081c16156104ae576001606555565b6001600160a01b03168015614bed57610869816001600160a01b03198254161790557fa9e8c42c9e7fca7f62755189a16b2f5314d43d8fb24e91ba54e6d65f9314e8495f80a2565b60405163ba97b39d60e01b8152600490fd5b6001600160a01b03168015614c475761086a816001600160a01b03198254161790557fa73e8909f8616742d7fe701153d82666f7b7cd480552e23ebb05d358c22fd04e5f80a2565b604051635b03092b60e11b8152600490fd5b60405163a9059cbb60e01b60208201526001600160a01b039092166024830152604482019290925261050e91614c9c82606481015b03601f1981018452836106d6565b61527d565b908160209103126104ae57516107c0816104f2565b5f8112614cc05790565b5f0390565b909261050e93604051936323b872dd60e01b60208601526001600160a01b038092166024860152166044840152606483015260648252614c9c826106ba565b90670de0b6b3a7640000915f8284039212838312811690848413901516176134b1578181029181830414901517156134b1570490565b929091905f915b8451831015614d8357614d548386613232565b519081811015614d72575f52602052600160405f205b920191614d41565b905f52602052600160405f20614d6a565b915092501490565b60405163a9059cbb60e01b60208281019182526001600160a01b039094166024830152604482019490945290925f91614dc78160648101613e85565b519082855af1903d5f519083614dde575b50505090565b91925090614df357503b15155b5f8080614dd8565b6001915014614deb565b906001600160a01b03808216817f000000000000000000000000000000000000000000000000000000000000000016811480928115614f3b575b50614f2c575b5015614f2357610c5a5463ffffffff16734300000000000000000000000000000000000005803b156104ae5760405163540abf7360e01b81526001600160a01b0393841660048201527f0000000000000000000000000000000000000000000000000000000000000000841660248201527f00000000000000000000000000000000000000000000000000000000000000009093166044840152606483019390935263ffffffff16608482015260c060a48201525f60c482018190529091829081838160e481015b03925af1801561343757614f165750565b8061346661050e92610619565b61050e91615588565b614f359061530d565b5f614e3d565b90507f00000000000000000000000000000000000000000000000000000000000000001681145f614e37565b60a01c614f7057565b6040516379ec0ed760e11b8152600490fd5b6001600160a01b0390811690813b15614fc2579061050e92917f000000000000000000000000000000000000000000000000000000000000000016614c59565b7f000000000000000000000000000000000000000000000000000000000000000016803b156104ae575f8091602460405180948193632e1a7d4d60e01b83528860048401525af1801561343757615034575b508147106104ae575f80809381935af161502c61326a565b50156104ae57565b61503d90610619565b5f615014565b61504c8161515c565b6001600160a01b0381167fbc7cd75a20ee27fd9adebab32041f755214dbc6bffa90cc0225b39da2e5c2d3b5f80a2815115801590615104575b61508d575050565b5f80613434937f206661696c656400000000000000000000000000000000000000000000000000604080516150c18161064a565b602781527f416464726573733a206c6f772d6c6576656c2064656c65676174652063616c6c60208201520152602081519101845af46150fe61326a565b91615bdb565b505f615085565b6151148161515c565b6001600160a01b0381167fbc7cd75a20ee27fd9adebab32041f755214dbc6bffa90cc0225b39da2e5c2d3b5f80a28151158015906151545761508d575050565b506001615085565b803b156104ae576001600160a01b037f360894a13ba1a3210667c828492db98dca3e2076cc3735a920a3ca505d382bbc91166001600160a01b0319825416179055565b6151a98383615b8a565b600581959295101561311857159384615267575b5083156151e1575b505050156151cf57565b60405163938a182160e01b8152600490fd5b5f92935090829160405161521981613e856020820194630b135d3f60e11b998a87526024840152604060448401526064830190611423565b51915afa9061522661326a565b82615259575b8261523c575b50505f80806151c5565b615251919250602080825183010191016132f7565b145f80615232565b91506020825110159161522c565b6001600160a01b0383811691161493505f6151bd565b905f806001600160a01b036152d49416927f5361666545524332303a206c6f772d6c6576656c2063616c6c206661696c656460206040516152bd816105f8565b818152015260208151910182855af16150fe61326a565b80519081159182156152ea575b5050156104ae57565b81925090602091810103126104ae576020015161530681610c88565b5f806152e1565b6040805163e12f3a6160e01b8152306004820152916001600160a01b03919060209083168185602481845afa948515613437575f95615569575b508251635569f64b60e11b81527f00000000000000000000000000000000000000000000000000000000000000006001600160a01b038116600483015260248201879052959083816044815f875af1908115613437575f9161554c575b5080910361552c578082916154f6575b5050837f000000000000000000000000000000000000000000000000000000000000000016146153e45750505050565b815163430021db60e11b81523060048201526001600160a01b03851660248201527343000000000000000000000000000000000000029082816044815f865af1908115613437575f916154d9575b50835163662aa11d60e01b81523060048201526001600160a01b0387166024820152918390839060449082905f905af19182156134375761547b935f936154ba575b5050613ef1565b918215613f225790519182525f9216907ff3055bc8d92d9c8d2f12b45d112dd345cd2cfd17292b8d65c5642ac6f912dfd790602090a35f808080613f22565b6154d1929350803d1061125c5761124d81836106d6565b905f80615474565b6154f09150833d851161125c5761124d81836106d6565b5f615432565b8451908152858716907ff3055bc8d92d9c8d2f12b45d112dd345cd2cfd17292b8d65c5642ac6f912dfd790602090a3805f6153b4565b8351633c0ba94560e11b81526001600160a01b0383166004820152602490fd5b6155639150843d861161125c5761124d81836106d6565b5f6153a4565b615581919550823d841161125c5761124d81836106d6565b935f615347565b906001600160a01b0390818116907f00000000000000000000000000000000000000000000000000000000000000008316820361569b5750803b156104ae57604051632e1a7d4d60e01b815260048101849052905f908290602490829084905af1801561343757615688575b50610c5a549161560d61086a546001600160a01b031690565b73420000000000000000000000000000000000001090813b156104ae57604051631474f2a960e31b81526001600160a01b03602087901c90951685166004820152931660248401526044830182905263ffffffff909316606483015260a060848301525f60a483018190529192839182908160c48101614f05565b8061346661569592610619565b5f6155f4565b91807f0000000000000000000000000000000000000000000000000000000000000000161515806158c6575b156156eb5750505061050e906156e661086a546001600160a01b031690565b61599e565b8061571861570b856001600160a01b03165f52610c5c60205260405f2090565b546001600160a01b031690565b166158a2577342000000000000000000000000000000000000105b169061575761249461570b856001600160a01b03165f52610c5d60205260405f2090565b1561581c578382615767926158f1565b61578661570b836001600160a01b03165f52610c5d60205260405f2090565b9061579a61086a546001600160a01b031690565b916157ab610c5a5463ffffffff1690565b823b156104ae5760405163540abf7360e01b81526001600160a01b0395861660048201529185166024830152929093166044840152606483019390935263ffffffff16608482015260c060a48201525f60c482018190529091829060e490829084905af1801561343757614f165750565b509161583161086a546001600160a01b031690565b92615842610c5a5463ffffffff1690565b93813b156104ae57604051631474f2a960e31b81526001600160a01b03948516600482015293166024840152604483019190915263ffffffff909216606482015260a060848201525f60a482018190529091829081838160c48101614f05565b6158c161570b846001600160a01b03165f52610c5c60205260405f2090565b615733565b50807f00000000000000000000000000000000000000000000000000000000000000001682146156c7565b604051636eb1769f60e11b81523060048201526001600160a01b03831660248201529192602083806044810103816001600160a01b0386165afa928315613437575f9361597d575b5082018092116134b15760405163095ea7b360e01b60208201526001600160a01b039093166024840152604483019190915261050e9190614c9c8260648101614c8e565b61599791935060203d60201161125c5761124d81836106d6565b915f615939565b6001600160a01b03809116917f000000000000000000000000000000000000000000000000000000000000000090827f0000000000000000000000000000000000000000000000000000000000000000166159fa8282856158f1565b604090604051916332dd704760e21b83526020936004958585600481875afa94851561343757869189915f97615b6b575b501697604051958680926352b7631960e11b825281615a5d8d600483019190916001600160a01b036020820193169052565b0392165afa938415613437575f94615b4c575b5092947f000000000000000000000000000000000000000000000000000000000000000093805b615aa657505050505050505050565b615af79087811115615b465787905b84516337e9a82760e11b815284810183815263ffffffff89166020820152604081018d90526001600160a01b038c166060820152909389918591829160800190565b03815f8a5af192831561343757615b1393615b19575b50613b00565b80615a97565b615b3890893d8b11615b3f575b615b3081836106d6565b810190615bbb565b505f615b0d565b503d615b26565b80615ab5565b615b64919450853d871161125c5761124d81836106d6565b925f615a70565b615b83919750833d8511613ad657613ac881836106d6565b955f615a2b565b9060418151145f14615bb2576113fe91602082015190606060408401519301515f1a90615c04565b50505f90600290565b908160209103126104ae575167ffffffffffffffff811681036104ae5790565b9015615bf557815115615bec575090565b3b156104ae5790565b5080519081156104ae57602001fd5b7f7fffffffffffffffffffffffffffffff5d576e7357a4501ddfe92f46681b20a08411615c74576020935f9360ff60809460405194855216868401526040830152606082015282805260015afa15613437575f516001600160a01b03811615615c6c57905f90565b505f90600190565b505050505f9060039056fea2646970667358221220c1b9165f8454460d797df3413aa4085337a8dd0a684e077c34b52f7d88b7f73c64736f6c63430008170033"
}