{
  "address": "0x2515288aa96e391E10eF8C9E7C781C37cD35a1f2",
  "abi": [
    {
      "inputs": [
        {
          "internalType": "address",
          "name": "_wrappedNativeTokenAddress",
          "type": "address"
        },
        {
          "internalType": "uint32",
          "name": "_depositQuoteTimeBuffer",
          "type": "uint32"
        },
        {
          "internalType": "uint32",
          "name": "_fillDeadlineBuffer",
          "type": "uint32"
        },
        {
          "internalType": "contract IERC20",
          "name": "_l2Usdc",
          "type": "address"
        },
        {
          "internalType": "contract ITokenMessenger",
          "name": "_cctpTokenMessenger",
          "type": "address"
        },
        {
          "internalType": "address",
          "name": "usdb",
          "type": "address"
        },
        {
          "internalType": "address",
          "name": "l1Usdb",
          "type": "address"
        },
        {
          "internalType": "address",
          "name": "yieldRecipient",
          "type": "address"
        },
        {
          "internalType": "address",
          "name": "blastRetriever",
          "type": "address"
        }
      ],
      "stateMutability": "nonpayable",
      "type": "constructor"
    },
    {
      "inputs": [],
      "name": "ClaimedMerkleLeaf",
      "type": "error"
    },
    {
      "inputs": [],
      "name": "DepositsArePaused",
      "type": "error"
    },
    {
      "inputs": [],
      "name": "DisabledRoute",
      "type": "error"
    },
    {
      "inputs": [],
      "name": "ExpiredFillDeadline",
      "type": "error"
    },
    {
      "inputs": [],
      "name": "FillsArePaused",
      "type": "error"
    },
    {
      "inputs": [],
      "name": "InvalidChainId",
      "type": "error"
    },
    {
      "inputs": [
        {
          "internalType": "address",
          "name": "token",
          "type": "address"
        }
      ],
      "name": "InvalidClaimedAmount",
      "type": "error"
    },
    {
      "inputs": [],
      "name": "InvalidCrossDomainAdmin",
      "type": "error"
    },
    {
      "inputs": [],
      "name": "InvalidDepositorSignature",
      "type": "error"
    },
    {
      "inputs": [],
      "name": "InvalidExclusiveRelayer",
      "type": "error"
    },
    {
      "inputs": [],
      "name": "InvalidExclusivityDeadline",
      "type": "error"
    },
    {
      "inputs": [],
      "name": "InvalidFillDeadline",
      "type": "error"
    },
    {
      "inputs": [],
      "name": "InvalidHubPool",
      "type": "error"
    },
    {
      "inputs": [],
      "name": "InvalidMerkleLeaf",
      "type": "error"
    },
    {
      "inputs": [],
      "name": "InvalidMerkleProof",
      "type": "error"
    },
    {
      "inputs": [],
      "name": "InvalidPayoutAdjustmentPct",
      "type": "error"
    },
    {
      "inputs": [],
      "name": "InvalidQuoteTimestamp",
      "type": "error"
    },
    {
      "inputs": [],
      "name": "InvalidRelayerFeePct",
      "type": "error"
    },
    {
      "inputs": [],
      "name": "InvalidSlowFillRequest",
      "type": "error"
    },
    {
      "inputs": [],
      "name": "MaxTransferSizeExceeded",
      "type": "error"
    },
    {
      "inputs": [],
      "name": "MsgValueDoesNotMatchInputAmount",
      "type": "error"
    },
    {
      "inputs": [],
      "name": "NoSlowFillsInExclusivityWindow",
      "type": "error"
    },
    {
      "inputs": [],
      "name": "NotCrossChainCall",
      "type": "error"
    },
    {
      "inputs": [],
      "name": "NotCrossDomainAdmin",
      "type": "error"
    },
    {
      "inputs": [],
      "name": "NotEOA",
      "type": "error"
    },
    {
      "inputs": [],
      "name": "NotExclusiveRelayer",
      "type": "error"
    },
    {
      "inputs": [],
      "name": "RelayFilled",
      "type": "error"
    },
    {
      "anonymous": false,
      "inputs": [
        {
          "indexed": false,
          "internalType": "address",
          "name": "previousAdmin",
          "type": "address"
        },
        {
          "indexed": false,
          "internalType": "address",
          "name": "newAdmin",
          "type": "address"
        }
      ],
      "name": "AdminChanged",
      "type": "event"
    },
    {
      "anonymous": false,
      "inputs": [
        {
          "indexed": true,
          "internalType": "address",
          "name": "beacon",
          "type": "address"
        }
      ],
      "name": "BeaconUpgraded",
      "type": "event"
    },
    {
      "anonymous": false,
      "inputs": [
        {
          "indexed": true,
          "internalType": "uint256",
          "name": "rootBundleId",
          "type": "uint256"
        }
      ],
      "name": "EmergencyDeleteRootBundle",
      "type": "event"
    },
    {
      "anonymous": false,
      "inputs": [
        {
          "indexed": true,
          "internalType": "address",
          "name": "originToken",
          "type": "address"
        },
        {
          "indexed": true,
          "internalType": "uint256",
          "name": "destinationChainId",
          "type": "uint256"
        },
        {
          "indexed": false,
          "internalType": "bool",
          "name": "enabled",
          "type": "bool"
        }
      ],
      "name": "EnabledDepositRoute",
      "type": "event"
    },
    {
      "anonymous": false,
      "inputs": [
        {
          "indexed": false,
          "internalType": "uint256",
          "name": "amountToReturn",
          "type": "uint256"
        },
        {
          "indexed": true,
          "internalType": "uint256",
          "name": "chainId",
          "type": "uint256"
        },
        {
          "indexed": false,
          "internalType": "uint256[]",
          "name": "refundAmounts",
          "type": "uint256[]"
        },
        {
          "indexed": true,
          "internalType": "uint32",
          "name": "rootBundleId",
          "type": "uint32"
        },
        {
          "indexed": true,
          "internalType": "uint32",
          "name": "leafId",
          "type": "uint32"
        },
        {
          "indexed": false,
          "internalType": "address",
          "name": "l2TokenAddress",
          "type": "address"
        },
        {
          "indexed": false,
          "internalType": "address[]",
          "name": "refundAddresses",
          "type": "address[]"
        },
        {
          "indexed": false,
          "internalType": "address",
          "name": "caller",
          "type": "address"
        }
      ],
      "name": "ExecutedRelayerRefundRoot",
      "type": "event"
    },
    {
      "anonymous": false,
      "inputs": [
        {
          "indexed": false,
          "internalType": "uint256",
          "name": "amount",
          "type": "uint256"
        },
        {
          "indexed": false,
          "internalType": "uint256",
          "name": "totalFilledAmount",
          "type": "uint256"
        },
        {
          "indexed": false,
          "internalType": "uint256",
          "name": "fillAmount",
          "type": "uint256"
        },
        {
          "indexed": false,
          "internalType": "uint256",
          "name": "repaymentChainId",
          "type": "uint256"
        },
        {
          "indexed": true,
          "internalType": "uint256",
          "name": "originChainId",
          "type": "uint256"
        },
        {
          "indexed": false,
          "internalType": "uint256",
          "name": "destinationChainId",
          "type": "uint256"
        },
        {
          "indexed": false,
          "internalType": "int64",
          "name": "relayerFeePct",
          "type": "int64"
        },
        {
          "indexed": false,
          "internalType": "int64",
          "name": "realizedLpFeePct",
          "type": "int64"
        },
        {
          "indexed": true,
          "internalType": "uint32",
          "name": "depositId",
          "type": "uint32"
        },
        {
          "indexed": false,
          "internalType": "address",
          "name": "destinationToken",
          "type": "address"
        },
        {
          "indexed": false,
          "internalType": "address",
          "name": "relayer",
          "type": "address"
        },
        {
          "indexed": true,
          "internalType": "address",
          "name": "depositor",
          "type": "address"
        },
        {
          "indexed": false,
          "internalType": "address",
          "name": "recipient",
          "type": "address"
        },
        {
          "indexed": false,
          "internalType": "bytes",
          "name": "message",
          "type": "bytes"
        },
        {
          "components": [
            {
              "internalType": "address",
              "name": "recipient",
              "type": "address"
            },
            {
              "internalType": "bytes",
              "name": "message",
              "type": "bytes"
            },
            {
              "internalType": "int64",
              "name": "relayerFeePct",
              "type": "int64"
            },
            {
              "internalType": "bool",
              "name": "isSlowRelay",
              "type": "bool"
            },
            {
              "internalType": "int256",
              "name": "payoutAdjustmentPct",
              "type": "int256"
            }
          ],
          "indexed": false,
          "internalType": "struct SpokePool.RelayExecutionInfo",
          "name": "updatableRelayData",
          "type": "tuple"
        }
      ],
      "name": "FilledRelay",
      "type": "event"
    },
    {
      "anonymous": false,
      "inputs": [
        {
          "indexed": false,
          "internalType": "address",
          "name": "inputToken",
          "type": "address"
        },
        {
          "indexed": false,
          "internalType": "address",
          "name": "outputToken",
          "type": "address"
        },
        {
          "indexed": false,
          "internalType": "uint256",
          "name": "inputAmount",
          "type": "uint256"
        },
        {
          "indexed": false,
          "internalType": "uint256",
          "name": "outputAmount",
          "type": "uint256"
        },
        {
          "indexed": false,
          "internalType": "uint256",
          "name": "repaymentChainId",
          "type": "uint256"
        },
        {
          "indexed": true,
          "internalType": "uint256",
          "name": "originChainId",
          "type": "uint256"
        },
        {
          "indexed": true,
          "internalType": "uint32",
          "name": "depositId",
          "type": "uint32"
        },
        {
          "indexed": false,
          "internalType": "uint32",
          "name": "fillDeadline",
          "type": "uint32"
        },
        {
          "indexed": false,
          "internalType": "uint32",
          "name": "exclusivityDeadline",
          "type": "uint32"
        },
        {
          "indexed": false,
          "internalType": "address",
          "name": "exclusiveRelayer",
          "type": "address"
        },
        {
          "indexed": true,
          "internalType": "address",
          "name": "relayer",
          "type": "address"
        },
        {
          "indexed": false,
          "internalType": "address",
          "name": "depositor",
          "type": "address"
        },
        {
          "indexed": false,
          "internalType": "address",
          "name": "recipient",
          "type": "address"
        },
        {
          "indexed": false,
          "internalType": "bytes",
          "name": "message",
          "type": "bytes"
        },
        {
          "components": [
            {
              "internalType": "address",
              "name": "updatedRecipient",
              "type": "address"
            },
            {
              "internalType": "bytes",
              "name": "updatedMessage",
              "type": "bytes"
            },
            {
              "internalType": "uint256",
              "name": "updatedOutputAmount",
              "type": "uint256"
            },
            {
              "internalType": "enum V3SpokePoolInterface.FillType",
              "name": "fillType",
              "type": "uint8"
            }
          ],
          "indexed": false,
          "internalType": "struct V3SpokePoolInterface.V3RelayExecutionEventInfo",
          "name": "relayExecutionInfo",
          "type": "tuple"
        }
      ],
      "name": "FilledV3Relay",
      "type": "event"
    },
    {
      "anonymous": false,
      "inputs": [
        {
          "indexed": false,
          "internalType": "uint256",
          "name": "amount",
          "type": "uint256"
        },
        {
          "indexed": false,
          "internalType": "uint256",
          "name": "originChainId",
          "type": "uint256"
        },
        {
          "indexed": true,
          "internalType": "uint256",
          "name": "destinationChainId",
          "type": "uint256"
        },
        {
          "indexed": false,
          "internalType": "int64",
          "name": "relayerFeePct",
          "type": "int64"
        },
        {
          "indexed": true,
          "internalType": "uint32",
          "name": "depositId",
          "type": "uint32"
        },
        {
          "indexed": false,
          "internalType": "uint32",
          "name": "quoteTimestamp",
          "type": "uint32"
        },
        {
          "indexed": false,
          "internalType": "address",
          "name": "originToken",
          "type": "address"
        },
        {
          "indexed": false,
          "internalType": "address",
          "name": "recipient",
          "type": "address"
        },
        {
          "indexed": true,
          "internalType": "address",
          "name": "depositor",
          "type": "address"
        },
        {
          "indexed": false,
          "internalType": "bytes",
          "name": "message",
          "type": "bytes"
        }
      ],
      "name": "FundsDeposited",
      "type": "event"
    },
    {
      "anonymous": false,
      "inputs": [
        {
          "indexed": false,
          "internalType": "uint8",
          "name": "version",
          "type": "uint8"
        }
      ],
      "name": "Initialized",
      "type": "event"
    },
    {
      "anonymous": false,
      "inputs": [
        {
          "indexed": false,
          "internalType": "bool",
          "name": "isPaused",
          "type": "bool"
        }
      ],
      "name": "PausedDeposits",
      "type": "event"
    },
    {
      "anonymous": false,
      "inputs": [
        {
          "indexed": false,
          "internalType": "bool",
          "name": "isPaused",
          "type": "bool"
        }
      ],
      "name": "PausedFills",
      "type": "event"
    },
    {
      "anonymous": false,
      "inputs": [
        {
          "indexed": true,
          "internalType": "uint32",
          "name": "rootBundleId",
          "type": "uint32"
        },
        {
          "indexed": true,
          "internalType": "bytes32",
          "name": "relayerRefundRoot",
          "type": "bytes32"
        },
        {
          "indexed": true,
          "internalType": "bytes32",
          "name": "slowRelayRoot",
          "type": "bytes32"
        }
      ],
      "name": "RelayedRootBundle",
      "type": "event"
    },
    {
      "anonymous": false,
      "inputs": [
        {
          "indexed": false,
          "internalType": "int64",
          "name": "newRelayerFeePct",
          "type": "int64"
        },
        {
          "indexed": true,
          "internalType": "uint32",
          "name": "depositId",
          "type": "uint32"
        },
        {
          "indexed": true,
          "internalType": "address",
          "name": "depositor",
          "type": "address"
        },
        {
          "indexed": false,
          "internalType": "address",
          "name": "updatedRecipient",
          "type": "address"
        },
        {
          "indexed": false,
          "internalType": "bytes",
          "name": "updatedMessage",
          "type": "bytes"
        },
        {
          "indexed": false,
          "internalType": "bytes",
          "name": "depositorSignature",
          "type": "bytes"
        }
      ],
      "name": "RequestedSpeedUpDeposit",
      "type": "event"
    },
    {
      "anonymous": false,
      "inputs": [
        {
          "indexed": false,
          "internalType": "uint256",
          "name": "updatedOutputAmount",
          "type": "uint256"
        },
        {
          "indexed": true,
          "internalType": "uint32",
          "name": "depositId",
          "type": "uint32"
        },
        {
          "indexed": true,
          "internalType": "address",
          "name": "depositor",
          "type": "address"
        },
        {
          "indexed": false,
          "internalType": "address",
          "name": "updatedRecipient",
          "type": "address"
        },
        {
          "indexed": false,
          "internalType": "bytes",
          "name": "updatedMessage",
          "type": "bytes"
        },
        {
          "indexed": false,
          "internalType": "bytes",
          "name": "depositorSignature",
          "type": "bytes"
        }
      ],
      "name": "RequestedSpeedUpV3Deposit",
      "type": "event"
    },
    {
      "anonymous": false,
      "inputs": [
        {
          "indexed": false,
          "internalType": "address",
          "name": "inputToken",
          "type": "address"
        },
        {
          "indexed": false,
          "internalType": "address",
          "name": "outputToken",
          "type": "address"
        },
        {
          "indexed": false,
          "internalType": "uint256",
          "name": "inputAmount",
          "type": "uint256"
        },
        {
          "indexed": false,
          "internalType": "uint256",
          "name": "outputAmount",
          "type": "uint256"
        },
        {
          "indexed": true,
          "internalType": "uint256",
          "name": "originChainId",
          "type": "uint256"
        },
        {
          "indexed": true,
          "internalType": "uint32",
          "name": "depositId",
          "type": "uint32"
        },
        {
          "indexed": false,
          "internalType": "uint32",
          "name": "fillDeadline",
          "type": "uint32"
        },
        {
          "indexed": false,
          "internalType": "uint32",
          "name": "exclusivityDeadline",
          "type": "uint32"
        },
        {
          "indexed": false,
          "internalType": "address",
          "name": "exclusiveRelayer",
          "type": "address"
        },
        {
          "indexed": false,
          "internalType": "address",
          "name": "depositor",
          "type": "address"
        },
        {
          "indexed": false,
          "internalType": "address",
          "name": "recipient",
          "type": "address"
        },
        {
          "indexed": false,
          "internalType": "bytes",
          "name": "message",
          "type": "bytes"
        }
      ],
      "name": "RequestedV3SlowFill",
      "type": "event"
    },
    {
      "anonymous": false,
      "inputs": [
        {
          "indexed": true,
          "internalType": "address",
          "name": "newHubPool",
          "type": "address"
        }
      ],
      "name": "SetHubPool",
      "type": "event"
    },
    {
      "anonymous": false,
      "inputs": [
        {
          "indexed": true,
          "internalType": "uint32",
          "name": "newL1Gas",
          "type": "uint32"
        }
      ],
      "name": "SetL1Gas",
      "type": "event"
    },
    {
      "anonymous": false,
      "inputs": [
        {
          "indexed": true,
          "internalType": "address",
          "name": "l2Token",
          "type": "address"
        },
        {
          "indexed": true,
          "internalType": "address",
          "name": "tokenBridge",
          "type": "address"
        }
      ],
      "name": "SetL2TokenBridge",
      "type": "event"
    },
    {
      "anonymous": false,
      "inputs": [
        {
          "indexed": true,
          "internalType": "address",
          "name": "l2Token",
          "type": "address"
        },
        {
          "indexed": true,
          "internalType": "address",
          "name": "l1Token",
          "type": "address"
        }
      ],
      "name": "SetRemoteL1Token",
      "type": "event"
    },
    {
      "anonymous": false,
      "inputs": [
        {
          "indexed": true,
          "internalType": "address",
          "name": "newAdmin",
          "type": "address"
        }
      ],
      "name": "SetXDomainAdmin",
      "type": "event"
    },
    {
      "anonymous": false,
      "inputs": [
        {
          "indexed": false,
          "internalType": "uint256",
          "name": "amountToReturn",
          "type": "uint256"
        },
        {
          "indexed": true,
          "internalType": "uint256",
          "name": "chainId",
          "type": "uint256"
        },
        {
          "indexed": true,
          "internalType": "uint32",
          "name": "leafId",
          "type": "uint32"
        },
        {
          "indexed": true,
          "internalType": "address",
          "name": "l2TokenAddress",
          "type": "address"
        },
        {
          "indexed": false,
          "internalType": "address",
          "name": "caller",
          "type": "address"
        }
      ],
      "name": "TokensBridged",
      "type": "event"
    },
    {
      "anonymous": false,
      "inputs": [
        {
          "indexed": true,
          "internalType": "address",
          "name": "implementation",
          "type": "address"
        }
      ],
      "name": "Upgraded",
      "type": "event"
    },
    {
      "anonymous": false,
      "inputs": [
        {
          "indexed": false,
          "internalType": "address",
          "name": "inputToken",
          "type": "address"
        },
        {
          "indexed": false,
          "internalType": "address",
          "name": "outputToken",
          "type": "address"
        },
        {
          "indexed": false,
          "internalType": "uint256",
          "name": "inputAmount",
          "type": "uint256"
        },
        {
          "indexed": false,
          "internalType": "uint256",
          "name": "outputAmount",
          "type": "uint256"
        },
        {
          "indexed": true,
          "internalType": "uint256",
          "name": "destinationChainId",
          "type": "uint256"
        },
        {
          "indexed": true,
          "internalType": "uint32",
          "name": "depositId",
          "type": "uint32"
        },
        {
          "indexed": false,
          "internalType": "uint32",
          "name": "quoteTimestamp",
          "type": "uint32"
        },
        {
          "indexed": false,
          "internalType": "uint32",
          "name": "fillDeadline",
          "type": "uint32"
        },
        {
          "indexed": false,
          "internalType": "uint32",
          "name": "exclusivityDeadline",
          "type": "uint32"
        },
        {
          "indexed": true,
          "internalType": "address",
          "name": "depositor",
          "type": "address"
        },
        {
          "indexed": false,
          "internalType": "address",
          "name": "recipient",
          "type": "address"
        },
        {
          "indexed": false,
          "internalType": "address",
          "name": "exclusiveRelayer",
          "type": "address"
        },
        {
          "indexed": false,
          "internalType": "bytes",
          "name": "message",
          "type": "bytes"
        }
      ],
      "name": "V3FundsDeposited",
      "type": "event"
    },
    {
      "anonymous": false,
      "inputs": [
        {
          "indexed": true,
          "internalType": "address",
          "name": "recipient",
          "type": "address"
        },
        {
          "indexed": true,
          "internalType": "address",
          "name": "token",
          "type": "address"
        },
        {
          "indexed": false,
          "internalType": "uint256",
          "name": "amount",
          "type": "uint256"
        }
      ],
      "name": "YieldClaimed",
      "type": "event"
    },
    {
      "inputs": [],
      "name": "BLAST_RETRIEVER",
      "outputs": [
        {
          "internalType": "address",
          "name": "",
          "type": "address"
        }
      ],
      "stateMutability": "view",
      "type": "function"
    },
    {
      "inputs": [],
      "name": "BLAST_YIELD_CONTRACT",
      "outputs": [
        {
          "internalType": "contract IBlast",
          "name": "",
          "type": "address"
        }
      ],
      "stateMutability": "view",
      "type": "function"
    },
    {
      "inputs": [],
      "name": "EMPTY_RELAYER",
      "outputs": [
        {
          "internalType": "address",
          "name": "",
          "type": "address"
        }
      ],
      "stateMutability": "view",
      "type": "function"
    },
    {
      "inputs": [],
      "name": "EMPTY_REPAYMENT_CHAIN_ID",
      "outputs": [
        {
          "internalType": "uint256",
          "name": "",
          "type": "uint256"
        }
      ],
      "stateMutability": "view",
      "type": "function"
    },
    {
      "inputs": [],
      "name": "INFINITE_FILL_DEADLINE",
      "outputs": [
        {
          "internalType": "uint32",
          "name": "",
          "type": "uint32"
        }
      ],
      "stateMutability": "view",
      "type": "function"
    },
    {
      "inputs": [],
      "name": "L1_USDB",
      "outputs": [
        {
          "internalType": "address",
          "name": "",
          "type": "address"
        }
      ],
      "stateMutability": "view",
      "type": "function"
    },
    {
      "inputs": [],
      "name": "L2_BLAST_BRIDGE",
      "outputs": [
        {
          "internalType": "address",
          "name": "",
          "type": "address"
        }
      ],
      "stateMutability": "view",
      "type": "function"
    },
    {
      "inputs": [],
      "name": "MAX_TRANSFER_SIZE",
      "outputs": [
        {
          "internalType": "uint256",
          "name": "",
          "type": "uint256"
        }
      ],
      "stateMutability": "view",
      "type": "function"
    },
    {
      "inputs": [],
      "name": "MESSENGER",
      "outputs": [
        {
          "internalType": "address",
          "name": "",
          "type": "address"
        }
      ],
      "stateMutability": "view",
      "type": "function"
    },
    {
      "inputs": [],
      "name": "UPDATE_V3_DEPOSIT_DETAILS_HASH",
      "outputs": [
        {
          "internalType": "bytes32",
          "name": "",
          "type": "bytes32"
        }
      ],
      "stateMutability": "view",
      "type": "function"
    },
    {
      "inputs": [],
      "name": "USDB",
      "outputs": [
        {
          "internalType": "address",
          "name": "",
          "type": "address"
        }
      ],
      "stateMutability": "view",
      "type": "function"
    },
    {
      "inputs": [],
      "name": "YIELD_RECIPIENT",
      "outputs": [
        {
          "internalType": "address",
          "name": "",
          "type": "address"
        }
      ],
      "stateMutability": "view",
      "type": "function"
    },
    {
      "inputs": [
        {
          "internalType": "uint32",
          "name": "_initialDepositId",
          "type": "uint32"
        },
        {
          "internalType": "address",
          "name": "_crossDomainAdmin",
          "type": "address"
        },
        {
          "internalType": "address",
          "name": "_hubPool",
          "type": "address"
        },
        {
          "internalType": "address",
          "name": "_l2Eth",
          "type": "address"
        }
      ],
      "name": "__OvmSpokePool_init",
      "outputs": [],
      "stateMutability": "nonpayable",
      "type": "function"
    },
    {
      "inputs": [
        {
          "internalType": "uint32",
          "name": "_initialDepositId",
          "type": "uint32"
        },
        {
          "internalType": "address",
          "name": "_crossDomainAdmin",
          "type": "address"
        },
        {
          "internalType": "address",
          "name": "_hubPool",
          "type": "address"
        }
      ],
      "name": "__SpokePool_init",
      "outputs": [],
      "stateMutability": "nonpayable",
      "type": "function"
    },
    {
      "inputs": [],
      "name": "cctpTokenMessenger",
      "outputs": [
        {
          "internalType": "contract ITokenMessenger",
          "name": "",
          "type": "address"
        }
      ],
      "stateMutability": "view",
      "type": "function"
    },
    {
      "inputs": [],
      "name": "chainId",
      "outputs": [
        {
          "internalType": "uint256",
          "name": "",
          "type": "uint256"
        }
      ],
      "stateMutability": "view",
      "type": "function"
    },
    {
      "inputs": [],
      "name": "crossDomainAdmin",
      "outputs": [
        {
          "internalType": "address",
          "name": "",
          "type": "address"
        }
      ],
      "stateMutability": "view",
      "type": "function"
    },
    {
      "inputs": [
        {
          "internalType": "address",
          "name": "recipient",
          "type": "address"
        },
        {
          "internalType": "address",
          "name": "originToken",
          "type": "address"
        },
        {
          "internalType": "uint256",
          "name": "amount",
          "type": "uint256"
        },
        {
          "internalType": "uint256",
          "name": "destinationChainId",
          "type": "uint256"
        },
        {
          "internalType": "int64",
          "name": "relayerFeePct",
          "type": "int64"
        },
        {
          "internalType": "uint32",
          "name": "quoteTimestamp",
          "type": "uint32"
        },
        {
          "internalType": "bytes",
          "name": "message",
          "type": "bytes"
        },
        {
          "internalType": "uint256",
          "name": "",
          "type": "uint256"
        }
      ],
      "name": "deposit",
      "outputs": [],
      "stateMutability": "payable",
      "type": "function"
    },
    {
      "inputs": [
        {
          "internalType": "address",
          "name": "depositor",
          "type": "address"
        },
        {
          "internalType": "address",
          "name": "recipient",
          "type": "address"
        },
        {
          "internalType": "address",
          "name": "inputToken",
          "type": "address"
        },
        {
          "internalType": "address",
          "name": "outputToken",
          "type": "address"
        },
        {
          "internalType": "uint256",
          "name": "inputAmount",
          "type": "uint256"
        },
        {
          "internalType": "uint256",
          "name": "outputAmount",
          "type": "uint256"
        },
        {
          "internalType": "uint256",
          "name": "destinationChainId",
          "type": "uint256"
        },
        {
          "internalType": "address",
          "name": "exclusiveRelayer",
          "type": "address"
        },
        {
          "internalType": "uint32",
          "name": "quoteTimestamp",
          "type": "uint32"
        },
        {
          "internalType": "uint32",
          "name": "fillDeadline",
          "type": "uint32"
        },
        {
          "internalType": "uint32",
          "name": "exclusivityPeriod",
          "type": "uint32"
        },
        {
          "internalType": "bytes",
          "name": "message",
          "type": "bytes"
        }
      ],
      "name": "depositExclusive",
      "outputs": [],
      "stateMutability": "payable",
      "type": "function"
    },
    {
      "inputs": [
        {
          "internalType": "address",
          "name": "depositor",
          "type": "address"
        },
        {
          "internalType": "address",
          "name": "recipient",
          "type": "address"
        },
        {
          "internalType": "address",
          "name": "originToken",
          "type": "address"
        },
        {
          "internalType": "uint256",
          "name": "amount",
          "type": "uint256"
        },
        {
          "internalType": "uint256",
          "name": "destinationChainId",
          "type": "uint256"
        },
        {
          "internalType": "int64",
          "name": "relayerFeePct",
          "type": "int64"
        },
        {
          "internalType": "uint32",
          "name": "quoteTimestamp",
          "type": "uint32"
        },
        {
          "internalType": "bytes",
          "name": "message",
          "type": "bytes"
        },
        {
          "internalType": "uint256",
          "name": "",
          "type": "uint256"
        }
      ],
      "name": "depositFor",
      "outputs": [],
      "stateMutability": "payable",
      "type": "function"
    },
    {
      "inputs": [],
      "name": "depositQuoteTimeBuffer",
      "outputs": [
        {
          "internalType": "uint32",
          "name": "",
          "type": "uint32"
        }
      ],
      "stateMutability": "view",
      "type": "function"
    },
    {
      "inputs": [
        {
          "internalType": "address",
          "name": "depositor",
          "type": "address"
        },
        {
          "internalType": "address",
          "name": "recipient",
          "type": "address"
        },
        {
          "internalType": "address",
          "name": "inputToken",
          "type": "address"
        },
        {
          "internalType": "address",
          "name": "outputToken",
          "type": "address"
        },
        {
          "internalType": "uint256",
          "name": "inputAmount",
          "type": "uint256"
        },
        {
          "internalType": "uint256",
          "name": "outputAmount",
          "type": "uint256"
        },
        {
          "internalType": "uint256",
          "name": "destinationChainId",
          "type": "uint256"
        },
        {
          "internalType": "address",
          "name": "exclusiveRelayer",
          "type": "address"
        },
        {
          "internalType": "uint32",
          "name": "quoteTimestamp",
          "type": "uint32"
        },
        {
          "internalType": "uint32",
          "name": "fillDeadline",
          "type": "uint32"
        },
        {
          "internalType": "uint32",
          "name": "exclusivityPeriod",
          "type": "uint32"
        },
        {
          "internalType": "bytes",
          "name": "message",
          "type": "bytes"
        }
      ],
      "name": "depositV3",
      "outputs": [],
      "stateMutability": "payable",
      "type": "function"
    },
    {
      "inputs": [
        {
          "internalType": "address",
          "name": "depositor",
          "type": "address"
        },
        {
          "internalType": "address",
          "name": "recipient",
          "type": "address"
        },
        {
          "internalType": "address",
          "name": "inputToken",
          "type": "address"
        },
        {
          "internalType": "address",
          "name": "outputToken",
          "type": "address"
        },
        {
          "internalType": "uint256",
          "name": "inputAmount",
          "type": "uint256"
        },
        {
          "internalType": "uint256",
          "name": "outputAmount",
          "type": "uint256"
        },
        {
          "internalType": "uint256",
          "name": "destinationChainId",
          "type": "uint256"
        },
        {
          "internalType": "address",
          "name": "exclusiveRelayer",
          "type": "address"
        },
        {
          "internalType": "uint32",
          "name": "fillDeadlineOffset",
          "type": "uint32"
        },
        {
          "internalType": "uint32",
          "name": "exclusivityPeriod",
          "type": "uint32"
        },
        {
          "internalType": "bytes",
          "name": "message",
          "type": "bytes"
        }
      ],
      "name": "depositV3Now",
      "outputs": [],
      "stateMutability": "payable",
      "type": "function"
    },
    {
      "inputs": [
        {
          "internalType": "uint256",
          "name": "rootBundleId",
          "type": "uint256"
        }
      ],
      "name": "emergencyDeleteRootBundle",
      "outputs": [],
      "stateMutability": "nonpayable",
      "type": "function"
    },
    {
      "inputs": [
        {
          "internalType": "address",
          "name": "",
          "type": "address"
        },
        {
          "internalType": "uint256",
          "name": "",
          "type": "uint256"
        }
      ],
      "name": "enabledDepositRoutes",
      "outputs": [
        {
          "internalType": "bool",
          "name": "",
          "type": "bool"
        }
      ],
      "stateMutability": "view",
      "type": "function"
    },
    {
      "inputs": [
        {
          "internalType": "uint32",
          "name": "rootBundleId",
          "type": "uint32"
        },
        {
          "components": [
            {
              "internalType": "uint256",
              "name": "amountToReturn",
              "type": "uint256"
            },
            {
              "internalType": "uint256",
              "name": "chainId",
              "type": "uint256"
            },
            {
              "internalType": "uint256[]",
              "name": "refundAmounts",
              "type": "uint256[]"
            },
            {
              "internalType": "uint32",
              "name": "leafId",
              "type": "uint32"
            },
            {
              "internalType": "address",
              "name": "l2TokenAddress",
              "type": "address"
            },
            {
              "internalType": "address[]",
              "name": "refundAddresses",
              "type": "address[]"
            }
          ],
          "internalType": "struct SpokePoolInterface.RelayerRefundLeaf",
          "name": "relayerRefundLeaf",
          "type": "tuple"
        },
        {
          "internalType": "bytes32[]",
          "name": "proof",
          "type": "bytes32[]"
        }
      ],
      "name": "executeRelayerRefundLeaf",
      "outputs": [],
      "stateMutability": "payable",
      "type": "function"
    },
    {
      "inputs": [
        {
          "components": [
            {
              "components": [
                {
                  "internalType": "address",
                  "name": "depositor",
                  "type": "address"
                },
                {
                  "internalType": "address",
                  "name": "recipient",
                  "type": "address"
                },
                {
                  "internalType": "address",
                  "name": "exclusiveRelayer",
                  "type": "address"
                },
                {
                  "internalType": "address",
                  "name": "inputToken",
                  "type": "address"
                },
                {
                  "internalType": "address",
                  "name": "outputToken",
                  "type": "address"
                },
                {
                  "internalType": "uint256",
                  "name": "inputAmount",
                  "type": "uint256"
                },
                {
                  "internalType": "uint256",
                  "name": "outputAmount",
                  "type": "uint256"
                },
                {
                  "internalType": "uint256",
                  "name": "originChainId",
                  "type": "uint256"
                },
                {
                  "internalType": "uint32",
                  "name": "depositId",
                  "type": "uint32"
                },
                {
                  "internalType": "uint32",
                  "name": "fillDeadline",
                  "type": "uint32"
                },
                {
                  "internalType": "uint32",
                  "name": "exclusivityDeadline",
                  "type": "uint32"
                },
                {
                  "internalType": "bytes",
                  "name": "message",
                  "type": "bytes"
                }
              ],
              "internalType": "struct V3SpokePoolInterface.V3RelayData",
              "name": "relayData",
              "type": "tuple"
            },
            {
              "internalType": "uint256",
              "name": "chainId",
              "type": "uint256"
            },
            {
              "internalType": "uint256",
              "name": "updatedOutputAmount",
              "type": "uint256"
            }
          ],
          "internalType": "struct V3SpokePoolInterface.V3SlowFill",
          "name": "slowFillLeaf",
          "type": "tuple"
        },
        {
          "internalType": "uint32",
          "name": "rootBundleId",
          "type": "uint32"
        },
        {
          "internalType": "bytes32[]",
          "name": "proof",
          "type": "bytes32[]"
        }
      ],
      "name": "executeV3SlowRelayLeaf",
      "outputs": [],
      "stateMutability": "nonpayable",
      "type": "function"
    },
    {
      "inputs": [],
      "name": "fillDeadlineBuffer",
      "outputs": [
        {
          "internalType": "uint32",
          "name": "",
          "type": "uint32"
        }
      ],
      "stateMutability": "view",
      "type": "function"
    },
    {
      "inputs": [
        {
          "internalType": "bytes32",
          "name": "",
          "type": "bytes32"
        }
      ],
      "name": "fillStatuses",
      "outputs": [
        {
          "internalType": "uint256",
          "name": "",
          "type": "uint256"
        }
      ],
      "stateMutability": "view",
      "type": "function"
    },
    {
      "inputs": [
        {
          "components": [
            {
              "internalType": "address",
              "name": "depositor",
              "type": "address"
            },
            {
              "internalType": "address",
              "name": "recipient",
              "type": "address"
            },
            {
              "internalType": "address",
              "name": "exclusiveRelayer",
              "type": "address"
            },
            {
              "internalType": "address",
              "name": "inputToken",
              "type": "address"
            },
            {
              "internalType": "address",
              "name": "outputToken",
              "type": "address"
            },
            {
              "internalType": "uint256",
              "name": "inputAmount",
              "type": "uint256"
            },
            {
              "internalType": "uint256",
              "name": "outputAmount",
              "type": "uint256"
            },
            {
              "internalType": "uint256",
              "name": "originChainId",
              "type": "uint256"
            },
            {
              "internalType": "uint32",
              "name": "depositId",
              "type": "uint32"
            },
            {
              "internalType": "uint32",
              "name": "fillDeadline",
              "type": "uint32"
            },
            {
              "internalType": "uint32",
              "name": "exclusivityDeadline",
              "type": "uint32"
            },
            {
              "internalType": "bytes",
              "name": "message",
              "type": "bytes"
            }
          ],
          "internalType": "struct V3SpokePoolInterface.V3RelayData",
          "name": "relayData",
          "type": "tuple"
        },
        {
          "internalType": "uint256",
          "name": "repaymentChainId",
          "type": "uint256"
        }
      ],
      "name": "fillV3Relay",
      "outputs": [],
      "stateMutability": "nonpayable",
      "type": "function"
    },
    {
      "inputs": [
        {
          "components": [
            {
              "internalType": "address",
              "name": "depositor",
              "type": "address"
            },
            {
              "internalType": "address",
              "name": "recipient",
              "type": "address"
            },
            {
              "internalType": "address",
              "name": "exclusiveRelayer",
              "type": "address"
            },
            {
              "internalType": "address",
              "name": "inputToken",
              "type": "address"
            },
            {
              "internalType": "address",
              "name": "outputToken",
              "type": "address"
            },
            {
              "internalType": "uint256",
              "name": "inputAmount",
              "type": "uint256"
            },
            {
              "internalType": "uint256",
              "name": "outputAmount",
              "type": "uint256"
            },
            {
              "internalType": "uint256",
              "name": "originChainId",
              "type": "uint256"
            },
            {
              "internalType": "uint32",
              "name": "depositId",
              "type": "uint32"
            },
            {
              "internalType": "uint32",
              "name": "fillDeadline",
              "type": "uint32"
            },
            {
              "internalType": "uint32",
              "name": "exclusivityDeadline",
              "type": "uint32"
            },
            {
              "internalType": "bytes",
              "name": "message",
              "type": "bytes"
            }
          ],
          "internalType": "struct V3SpokePoolInterface.V3RelayData",
          "name": "relayData",
          "type": "tuple"
        },
        {
          "internalType": "uint256",
          "name": "repaymentChainId",
          "type": "uint256"
        },
        {
          "internalType": "uint256",
          "name": "updatedOutputAmount",
          "type": "uint256"
        },
        {
          "internalType": "address",
          "name": "updatedRecipient",
          "type": "address"
        },
        {
          "internalType": "bytes",
          "name": "updatedMessage",
          "type": "bytes"
        },
        {
          "internalType": "bytes",
          "name": "depositorSignature",
          "type": "bytes"
        }
      ],
      "name": "fillV3RelayWithUpdatedDeposit",
      "outputs": [],
      "stateMutability": "nonpayable",
      "type": "function"
    },
    {
      "inputs": [],
      "name": "getCurrentTime",
      "outputs": [
        {
          "internalType": "uint256",
          "name": "",
          "type": "uint256"
        }
      ],
      "stateMutability": "view",
      "type": "function"
    },
    {
      "inputs": [],
      "name": "hubPool",
      "outputs": [
        {
          "internalType": "address",
          "name": "",
          "type": "address"
        }
      ],
      "stateMutability": "view",
      "type": "function"
    },
    {
      "inputs": [
        {
          "internalType": "uint32",
          "name": "_initialDepositId",
          "type": "uint32"
        },
        {
          "internalType": "address",
          "name": "_crossDomainAdmin",
          "type": "address"
        },
        {
          "internalType": "address",
          "name": "_hubPool",
          "type": "address"
        }
      ],
      "name": "initialize",
      "outputs": [],
      "stateMutability": "nonpayable",
      "type": "function"
    },
    {
      "inputs": [],
      "name": "l1Gas",
      "outputs": [
        {
          "internalType": "uint32",
          "name": "",
          "type": "uint32"
        }
      ],
      "stateMutability": "view",
      "type": "function"
    },
    {
      "inputs": [],
      "name": "l2Eth",
      "outputs": [
        {
          "internalType": "address",
          "name": "",
          "type": "address"
        }
      ],
      "stateMutability": "view",
      "type": "function"
    },
    {
      "inputs": [
        {
          "internalType": "bytes[]",
          "name": "data",
          "type": "bytes[]"
        }
      ],
      "name": "multicall",
      "outputs": [
        {
          "internalType": "bytes[]",
          "name": "results",
          "type": "bytes[]"
        }
      ],
      "stateMutability": "nonpayable",
      "type": "function"
    },
    {
      "inputs": [],
      "name": "numberOfDeposits",
      "outputs": [
        {
          "internalType": "uint32",
          "name": "",
          "type": "uint32"
        }
      ],
      "stateMutability": "view",
      "type": "function"
    },
    {
      "inputs": [
        {
          "internalType": "bool",
          "name": "pause",
          "type": "bool"
        }
      ],
      "name": "pauseDeposits",
      "outputs": [],
      "stateMutability": "nonpayable",
      "type": "function"
    },
    {
      "inputs": [
        {
          "internalType": "bool",
          "name": "pause",
          "type": "bool"
        }
      ],
      "name": "pauseFills",
      "outputs": [],
      "stateMutability": "nonpayable",
      "type": "function"
    },
    {
      "inputs": [],
      "name": "pausedDeposits",
      "outputs": [
        {
          "internalType": "bool",
          "name": "",
          "type": "bool"
        }
      ],
      "stateMutability": "view",
      "type": "function"
    },
    {
      "inputs": [],
      "name": "pausedFills",
      "outputs": [
        {
          "internalType": "bool",
          "name": "",
          "type": "bool"
        }
      ],
      "stateMutability": "view",
      "type": "function"
    },
    {
      "inputs": [],
      "name": "proxiableUUID",
      "outputs": [
        {
          "internalType": "bytes32",
          "name": "",
          "type": "bytes32"
        }
      ],
      "stateMutability": "view",
      "type": "function"
    },
    {
      "inputs": [],
      "name": "recipientCircleDomainId",
      "outputs": [
        {
          "internalType": "uint32",
          "name": "",
          "type": "uint32"
        }
      ],
      "stateMutability": "view",
      "type": "function"
    },
    {
      "inputs": [
        {
          "internalType": "bytes32",
          "name": "relayerRefundRoot",
          "type": "bytes32"
        },
        {
          "internalType": "bytes32",
          "name": "slowRelayRoot",
          "type": "bytes32"
        }
      ],
      "name": "relayRootBundle",
      "outputs": [],
      "stateMutability": "nonpayable",
      "type": "function"
    },
    {
      "inputs": [
        {
          "internalType": "address",
          "name": "",
          "type": "address"
        }
      ],
      "name": "remoteL1Tokens",
      "outputs": [
        {
          "internalType": "address",
          "name": "",
          "type": "address"
        }
      ],
      "stateMutability": "view",
      "type": "function"
    },
    {
      "inputs": [
        {
          "components": [
            {
              "internalType": "address",
              "name": "depositor",
              "type": "address"
            },
            {
              "internalType": "address",
              "name": "recipient",
              "type": "address"
            },
            {
              "internalType": "address",
              "name": "exclusiveRelayer",
              "type": "address"
            },
            {
              "internalType": "address",
              "name": "inputToken",
              "type": "address"
            },
            {
              "internalType": "address",
              "name": "outputToken",
              "type": "address"
            },
            {
              "internalType": "uint256",
              "name": "inputAmount",
              "type": "uint256"
            },
            {
              "internalType": "uint256",
              "name": "outputAmount",
              "type": "uint256"
            },
            {
              "internalType": "uint256",
              "name": "originChainId",
              "type": "uint256"
            },
            {
              "internalType": "uint32",
              "name": "depositId",
              "type": "uint32"
            },
            {
              "internalType": "uint32",
              "name": "fillDeadline",
              "type": "uint32"
            },
            {
              "internalType": "uint32",
              "name": "exclusivityDeadline",
              "type": "uint32"
            },
            {
              "internalType": "bytes",
              "name": "message",
              "type": "bytes"
            }
          ],
          "internalType": "struct V3SpokePoolInterface.V3RelayData",
          "name": "relayData",
          "type": "tuple"
        }
      ],
      "name": "requestV3SlowFill",
      "outputs": [],
      "stateMutability": "nonpayable",
      "type": "function"
    },
    {
      "inputs": [
        {
          "internalType": "uint256",
          "name": "",
          "type": "uint256"
        }
      ],
      "name": "rootBundles",
      "outputs": [
        {
          "internalType": "bytes32",
          "name": "slowRelayRoot",
          "type": "bytes32"
        },
        {
          "internalType": "bytes32",
          "name": "relayerRefundRoot",
          "type": "bytes32"
        }
      ],
      "stateMutability": "view",
      "type": "function"
    },
    {
      "inputs": [
        {
          "internalType": "address",
          "name": "newCrossDomainAdmin",
          "type": "address"
        }
      ],
      "name": "setCrossDomainAdmin",
      "outputs": [],
      "stateMutability": "nonpayable",
      "type": "function"
    },
    {
      "inputs": [
        {
          "internalType": "address",
          "name": "originToken",
          "type": "address"
        },
        {
          "internalType": "uint256",
          "name": "destinationChainId",
          "type": "uint256"
        },
        {
          "internalType": "bool",
          "name": "enabled",
          "type": "bool"
        }
      ],
      "name": "setEnableRoute",
      "outputs": [],
      "stateMutability": "nonpayable",
      "type": "function"
    },
    {
      "inputs": [
        {
          "internalType": "address",
          "name": "newHubPool",
          "type": "address"
        }
      ],
      "name": "setHubPool",
      "outputs": [],
      "stateMutability": "nonpayable",
      "type": "function"
    },
    {
      "inputs": [
        {
          "internalType": "uint32",
          "name": "newl1Gas",
          "type": "uint32"
        }
      ],
      "name": "setL1GasLimit",
      "outputs": [],
      "stateMutability": "nonpayable",
      "type": "function"
    },
    {
      "inputs": [
        {
          "internalType": "address",
          "name": "l2Token",
          "type": "address"
        },
        {
          "internalType": "address",
          "name": "l1Token",
          "type": "address"
        }
      ],
      "name": "setRemoteL1Token",
      "outputs": [],
      "stateMutability": "nonpayable",
      "type": "function"
    },
    {
      "inputs": [
        {
          "internalType": "address",
          "name": "l2Token",
          "type": "address"
        },
        {
          "internalType": "address",
          "name": "tokenBridge",
          "type": "address"
        }
      ],
      "name": "setTokenBridge",
      "outputs": [],
      "stateMutability": "nonpayable",
      "type": "function"
    },
    {
      "inputs": [
        {
          "internalType": "address",
          "name": "depositor",
          "type": "address"
        },
        {
          "internalType": "uint32",
          "name": "depositId",
          "type": "uint32"
        },
        {
          "internalType": "uint256",
          "name": "updatedOutputAmount",
          "type": "uint256"
        },
        {
          "internalType": "address",
          "name": "updatedRecipient",
          "type": "address"
        },
        {
          "internalType": "bytes",
          "name": "updatedMessage",
          "type": "bytes"
        },
        {
          "internalType": "bytes",
          "name": "depositorSignature",
          "type": "bytes"
        }
      ],
      "name": "speedUpV3Deposit",
      "outputs": [],
      "stateMutability": "nonpayable",
      "type": "function"
    },
    {
      "inputs": [
        {
          "internalType": "address",
          "name": "",
          "type": "address"
        }
      ],
      "name": "tokenBridges",
      "outputs": [
        {
          "internalType": "address",
          "name": "",
          "type": "address"
        }
      ],
      "stateMutability": "view",
      "type": "function"
    },
    {
      "inputs": [
        {
          "internalType": "bytes[]",
          "name": "data",
          "type": "bytes[]"
        }
      ],
      "name": "tryMulticall",
      "outputs": [
        {
          "components": [
            {
              "internalType": "bool",
              "name": "success",
              "type": "bool"
            },
            {
              "internalType": "bytes",
              "name": "returnData",
              "type": "bytes"
            }
          ],
          "internalType": "struct MultiCallerUpgradeable.Result[]",
          "name": "results",
          "type": "tuple[]"
        }
      ],
      "stateMutability": "nonpayable",
      "type": "function"
    },
    {
      "inputs": [
        {
          "internalType": "address",
          "name": "newImplementation",
          "type": "address"
        }
      ],
      "name": "upgradeTo",
      "outputs": [],
      "stateMutability": "nonpayable",
      "type": "function"
    },
    {
      "inputs": [
        {
          "internalType": "address",
          "name": "newImplementation",
          "type": "address"
        },
        {
          "internalType": "bytes",
          "name": "data",
          "type": "bytes"
        }
      ],
      "name": "upgradeToAndCall",
      "outputs": [],
      "stateMutability": "payable",
      "type": "function"
    },
    {
      "inputs": [],
      "name": "usdcToken",
      "outputs": [
        {
          "internalType": "contract IERC20",
          "name": "",
          "type": "address"
        }
      ],
      "stateMutability": "view",
      "type": "function"
    },
    {
      "inputs": [],
      "name": "wrappedNativeToken",
      "outputs": [
        {
          "internalType": "contract WETH9Interface",
          "name": "",
          "type": "address"
        }
      ],
      "stateMutability": "view",
      "type": "function"
    },
    {
      "stateMutability": "payable",
      "type": "receive"
    }
  ],
  "numDeployments": 4,
  "solcInputHash": "4b4fce656a444fb006a3cb29be8bb330",
  "bytecode": "0x6101e0346200028c576200594738819003601f8101601f191683016001600160401b038111848210176200029057839282916040528339610120918291810103126200028c576200005082620002a4565b6200005e60208401620002b9565b6200006c60408501620002b9565b60608501516001600160a01b0392919083811681036200028c5760808701519084821682036200028c57620000a460a08901620002a4565b92620000b360c08a01620002a4565b94620000c260e08b01620002a4565b96620000d3610100809c01620002a4565b98306080521660a05260c05260e0525f5460ff8160081c166200028c5760ff8082160362000251575b5086526101409081525f87526101609182526101809283526101a09384526101c09485526040519561567b9788620002cc8939608051888181610d8e0152818161140701526115c4015260a0518881816107f701528181611b7c01528181612e7f01528181612fee0152818161365c015281816137c001528181613f14015281816141e8015281816147ce015281816148110152818161483801528181614c900152614eba015260c0518881816116c501528181611b3801528181612faa01526135ee015260e05188818161040e01528181611d0a015261311b015251878181611834015261543a01525186818161079a0152818161520c0152615334015251858181611e5001528181614fc80152615360015251848181610d4201528181612e34015261468201525183818161192601526147170152518281816115110152614c2d01525181818161277c015261473f0152f35b60ff90811916175f557f7f26b83ff96e1f2b6a682f133852f6798a09c465da95921460cefb3847402498602060405160ff8152a15f620000fc565b5f80fd5b634e487b7160e01b5f52604160045260245ffd5b51906001600160a01b03821682036200028c57565b519063ffffffff821682036200028c5756fe6080604052600436101561001a575b3615610018575f80fd5b005b5f3560e01c8063079bd2c7146103df5780630c5d5f73146103da5780630eaac9f0146103d55780631186ec33146103d057806311eac855146103cb57806315348e441461035357806317fcb39b146103c65780631abeb4d7146103c15780631b3d5559146103bc5780631dfb2d02146103b7578063272751c7146103b257806329cb924d146103ad5780632cfc26c5146103a85780632e378115146103a357806331a0edec1461039e5780633659cfe614610399578063431023b814610394578063437b91161461038f578063493a4f841461038a5780634e0fb8f5146103855780634f1ef28614610380578063524633cc1461037b5780635249fef1146103765780635285e0581461037157806352d1902d1461036c578063541f4f141461036757806357f6dcb8146103625780636068d6cb1461035d578063647c576c146103585780636bbbcd2e146103535780636e4009831461034e578063738b62e5146103495780637419ffe814610344578063766e07031461033f5780637aef642c1461033a5780637b939232146103085780638a7860ce14610335578063927ede2d146103305780639748cf7c1461032b578063979f2bc2146103265780639963e5a81461032157806399cc29681461031c5780639a8a059214610317578063a1244c6714610312578063ac9650d81461030d578063add051a314610308578063b27a430014610303578063bbca7db0146102fe578063bf10268d146102f9578063c35c83fc146102f4578063ccfa5971146102ef578063ceb4c987146102ea578063dda52113146102e5578063ddd224f1146102e0578063de7eba78146102db578063e1904402146102d6578063e3229211146102d1578063ee2a53f8146102cc578063f083d9b7146102c7578063f8c62274146102c25763fbbba9ac0361000e576127ce565b6127a0565b61275d565b61271f565b6126a3565b61267c565b61264c565b612623565b6125fd565b6125df565b61255c565b612531565b6124ad565b61236c565b61232d565b611ab3565b61228d565b612203565b6121e9565b61213b565b611f42565b611e74565b611e31565b611e03565b611d8b565b61196e565b61194a565b611907565b611858565b611818565b6107be565b611741565b6116e9565b6116a9565b611614565b6115aa565b611583565b611535565b6114f2565b6113c4565b6112aa565b6111f5565b611128565b610e98565b610d66565b610d23565b610bad565b610b64565b610b4a565b610aab565b610a6c565b610994565b61081b565b6107d8565b61077b565b6106c2565b6104a8565b610450565b6103f2565b5f9103126103ee57565b5f80fd5b346103ee575f3660031901126103ee57602060405163ffffffff7f0000000000000000000000000000000000000000000000000000000000000000168152f35b6001600160a01b038116036103ee57565b359061044e82610432565b565b346103ee5760203660031901126103ee57602060043561046f81610432565b6001600160a01b038091165f52610c5d825260405f205416604051908152f35b63ffffffff8116036103ee57565b359061044e8261048f565b346103ee5760203660031901126103ee5763ffffffff6004356104ca8161048f565b6104d26133f4565b6104da613506565b16610c5a8163ffffffff198254161790557fe486a5c4bd7b36eabbfe274c99b39130277417be8d2209b4dae04c4fba64ee3a5f80a26001606555005b634e487b7160e01b5f52604160045260245ffd5b6040810190811067ffffffffffffffff82111761054657604052565b610516565b67ffffffffffffffff811161054657604052565b6060810190811067ffffffffffffffff82111761054657604052565b6020810190811067ffffffffffffffff82111761054657604052565b60e0810190811067ffffffffffffffff82111761054657604052565b60a0810190811067ffffffffffffffff82111761054657604052565b90601f8019910116810190811067ffffffffffffffff82111761054657604052565b6040519060c0820182811067ffffffffffffffff82111761054657604052565b60405190610180820182811067ffffffffffffffff82111761054657604052565b604051906080820182811067ffffffffffffffff82111761054657604052565b67ffffffffffffffff811161054657601f01601f191660200190565b92919261067a82610652565b9161068860405193846105cf565b8294818452818301116103ee578281602093845f960137010152565b9080601f830112156103ee578160206106bf9335910161066e565b90565b6101003660031901126103ee576004356106db81610432565b6024356106e781610432565b6084358060070b81036103ee5760a435906107018261048f565b60c43567ffffffffffffffff81116103ee576107219036906004016106a4565b9261072a613506565b60ff61086b5460e81c166107515761074a94606435916044359133613575565b6001606555005b60046040517f5a65d188000000000000000000000000000000000000000000000000000000008152fd5b346103ee575f3660031901126103ee5760206040516001600160a01b037f0000000000000000000000000000000000000000000000000000000000000000168152f35b346103ee575f3660031901126103ee5760206040515f8152f35b346103ee575f3660031901126103ee5760206040516001600160a01b037f0000000000000000000000000000000000000000000000000000000000000000168152f35b346103ee575f3660031901126103ee5760206040517343000000000000000000000000000000000000028152f35b67ffffffffffffffff81116105465760051b60200190565b9080601f830112156103ee57602090823561087b81610849565b9361088960405195866105cf565b81855260208086019260051b8201019283116103ee57602001905b8282106108b2575050505090565b813581529083019083016108a4565b9080601f830112156103ee5760209082356108db81610849565b936108e960405195866105cf565b81855260208086019260051b8201019283116103ee57602001905b828210610912575050505090565b838091833561092081610432565b815201910190610904565b929161093682610849565b9161094460405193846105cf565b829481845260208094019160051b81019283116103ee57905b82821061096a5750505050565b8135815290830190830161095d565b9080601f830112156103ee578160206106bf9335910161092b565b6003196060368201126103ee576004356109ad8161048f565b60243567ffffffffffffffff928382116103ee5760c09082360301126103ee576109d56105f1565b90806004013582526024810135602083015260448101358481116103ee57610a039060043691840101610861565b6040830152610a146064820161049d565b6060830152610a2560848201610443565b608083015260a4810135908482116103ee576004610a4692369201016108c1565b60a08201526044359283116103ee57610a66610018933690600401610979565b91612852565b346103ee5760203660031901126103ee5761074a600435610a8c81610432565b610a946133f4565b610a9c613506565b613a89565b801515036103ee57565b346103ee5760603660031901126103ee57600435610ac881610432565b602435907f0a21fdd43d0ad0c62689ee7230a47309a050755bcc52eba00310add65297692a60206001600160a01b0360443593610b0485610aa1565b610b0c6133f4565b610b14613506565b1692835f5261086d825260405f20855f52825260405f209015159060ff1981541660ff8316179055604051908152a36001606555005b346103ee575f3660031901126103ee576020604051428152f35b346103ee575f3660031901126103ee5760206040517f152eb71524aef34d838ab76573c14b1ebfa5e385d9ab29d7cf5398daa2438bd98152f35b90816101809103126103ee5790565b346103ee5760403660031901126103ee5760043567ffffffffffffffff81116103ee57610bde903690600401610b9e565b610be6613506565b60ff61086b5460e01c16610d125760408101610c0181612a45565b6001600160a01b039081163314159182610cf3575b82610cde575b5050610cb457610caa90610c96610c3b610c363684612a59565b613bc7565b9160c0610c8f610c4d60208401612a45565b610c5b610160850185612b39565b939094610c666105f1565b97610c713683612a59565b89526020890152013560408701526001600160a01b03166060860152565b369161066e565b608082015260243560a08201523390613d1a565b6100186001606555565b60046040517fc3a9b9d0000000000000000000000000000000000000000000000000000000008152fd5b610ce9919250612a45565b1615155f80610c1c565b9150610d026101408401612a4f565b63ffffffff429116101591610c16565b6004604051633d90fc5560e11b8152fd5b346103ee575f3660031901126103ee5760206040516001600160a01b037f0000000000000000000000000000000000000000000000000000000000000000168152f35b346103ee5760203660031901126103ee57600435610d8381610432565b6001600160a01b03807f0000000000000000000000000000000000000000000000000000000000000000168030146103ee577f360894a13ba1a3210667c828492db98dca3e2076cc3735a920a3ca505d382bbc9082825416036103ee57610de86133f4565b60405191610df58361057b565b5f83527f4910fdfa16fed3260ed0e7147f7cc6da11a60208b5b9406d12a635614ffd91435460ff1615610e2e57505050610018906149d0565b6020600491604051928380926352d1902d60e01b825288165afa5f9181610e67575b50610e59575f80fd5b036103ee57610018916148b7565b610e8a91925060203d602011610e91575b610e8281836105cf565b810190612d1a565b905f610e50565b503d610e78565b346103ee5760803660031901126103ee57600435610eb58161048f565b60243590610ec282610432565b604435610ece81610432565b60643591610edb83610432565b60ff5f5460081c16156103ee57610f2290610c5a624c4b4063ffffffff1982541617905561086b9063ffffffff60c01b1963ffffffff60c01b83549260c01b169116179055565b60405190610f2f8261052a565b6009825260208201916820a1a927a9a996ab1960b91b8352640312e302e360dc1b6020604051610f5e8161052a565b60058152015260ff5f5460081c16156103ee5761001894610fbe93610a9c9251902061047f557f06c015bd22b4c69690933c1058878ebdfef31f9aaae40bbe86d8a09fe1b2972c61048055610fb1614447565b610fb9614456565b61446a565b610c5a907fffffffffffffffff0000000000000000000000000000000000000000ffffffff77ffffffffffffffffffffffffffffffffffffffff0000000083549260201b169116179055565b9181601f840112156103ee5782359167ffffffffffffffff83116103ee576020808501948460051b0101116103ee57565b60206003198201126103ee576004359067ffffffffffffffff82116103ee576110669160040161100a565b9091565b5f5b83811061107b5750505f910152565b818101518382015260200161106c565b906020916110a48151809281855285808601910161106a565b601f01601f1916010190565b6020808201908083528351809252604092604081018260408560051b8401019601945f925b8584106110e6575050505050505090565b909192939495968580611117600193603f1986820301885286838d518051151584520151918185820152019061108b565b9901940194019295949391906110d5565b346103ee576111363661103b565b61113f81610849565b91604061114f60405194856105cf565b828452601f1961115e84610849565b015f5b8181106111d25750505f5b838110611185576040518061118187826110b0565b0390f35b806111cc61119560019388612c88565b515f806111a3858a8a612c9c565b906111b2895180938193612cb3565b0390305af4906111c0612cc0565b60208201529015159052565b0161116c565b60209083516111e08161052a565b5f815282606081830152828901015201611161565b346103ee5760403660031901126103ee576024356004356112146133f4565b61121c613506565b61086c8054680100000000000000008110156105465763ffffffff9160018201905583611248826126e0565b5084600182015555167fc86ba04c55bc5eb2f2876b91c438849a296dbec7b08751c3074d92e04f0a77af5f80a46001606555005b9181601f840112156103ee5782359167ffffffffffffffff83116103ee57602083818601950101116103ee57565b346103ee5760c03660031901126103ee576004356112c781610432565b602435906112d48261048f565b6044356064356112e381610432565b67ffffffffffffffff916084358381116103ee5761130590369060040161127c565b93909460a4359182116103ee576113a863ffffffff7fb0a29aed3d389a1041194255878b423f7780be3ed2324d4693508c6ff189845e9661134d6113ba95369060040161127c565b939099611358613506565b61137f8c8c8b8b61137661136d368a8961066e565b938b369161066e565b9346908c6142e4565b6001600160a01b0392836040519a8b9a8b521660208a0152608060408a01526080890191612cef565b93868503606088015216981696612cef565b0390a36001606555005b60403660031901126103ee576004356113dc81610432565b60243567ffffffffffffffff81116103ee576113fc9036906004016106a4565b6001600160a01b03807f000000000000000000000000000000000000000000000000000000000000000016908130146103ee577f360894a13ba1a3210667c828492db98dca3e2076cc3735a920a3ca505d382bbc9181835416036103ee576114626133f4565b7f4910fdfa16fed3260ed0e7147f7cc6da11a60208b5b9406d12a635614ffd91435460ff161561149857505050610018906149d0565b6020600491604051928380926352d1902d60e01b825288165afa5f91816114d1575b506114c3575f80fd5b036103ee576100189161497f565b6114eb91925060203d602011610e9157610e8281836105cf565b905f6114ba565b346103ee575f3660031901126103ee5760206040516001600160a01b037f0000000000000000000000000000000000000000000000000000000000000000168152f35b346103ee5760403660031901126103ee576001600160a01b0360043561155a81610432565b165f5261086d60205260405f206024355f52602052602060ff60405f2054166040519015158152f35b346103ee575f3660031901126103ee5760206001600160a01b036108695416604051908152f35b346103ee575f3660031901126103ee576001600160a01b037f00000000000000000000000000000000000000000000000000000000000000001630036103ee5760206040517f360894a13ba1a3210667c828492db98dca3e2076cc3735a920a3ca505d382bbc8152f35b6101203660031901126103ee5760043561162d81610432565b6024359061163a82610432565b6044359161164783610432565b60a4358060070b81036103ee5760c435916116618361048f565b60e43567ffffffffffffffff81116103ee576116819036906004016106a4565b9361168a613506565b60ff61086b5460e81c166107515761074a956084359260643592613575565b346103ee575f3660031901126103ee57602060405163ffffffff7f0000000000000000000000000000000000000000000000000000000000000000168152f35b346103ee575f3660031901126103ee57602060ff61086b5460e81c166040519015158152f35b60609060031901126103ee576004356117278161048f565b9060243561173481610432565b906044356106bf81610432565b346103ee5761174f3661170f565b5f54600881901c60ff161593929084908161180a575b81156117ea575b50156103ee576117909284611787600160ff195f5416175f55565b6117d357612d4c565b61179657005b6117a461ff00195f54165f55565b604051600181527f7f26b83ff96e1f2b6a682f133852f6798a09c465da95921460cefb384740249890602090a1005b6117e561010061ff00195f5416175f55565b612d4c565b303b159150816117fc575b505f61176c565b6001915060ff16145f6117f5565b600160ff8216109150611765565b346103ee575f3660031901126103ee57602060405163ffffffff7f0000000000000000000000000000000000000000000000000000000000000000168152f35b346103ee5760203660031901126103ee577fe88463c2f254e2b070013a2dc7ee1e099f9bc00534cbdf03af551dc26ae49219602060043561189881610aa1565b6118a06133f4565b6118a8613506565b151561086b80547fffff00ffffffffffffffffffffffffffffffffffffffffffffffffffffffffff7dff00000000000000000000000000000000000000000000000000000000008460e81b169116179055604051908152a16001606555005b346103ee575f3660031901126103ee5760206040516001600160a01b037f0000000000000000000000000000000000000000000000000000000000000000168152f35b346103ee575f3660031901126103ee57602063ffffffff610c5a5416604051908152f35b6101603660031901126103ee5760043561198781610432565b6024359061199482610432565b6044356119a081610432565b606435906119ad82610432565b60e4356119b981610432565b61010435906119c78261048f565b61012435926119d58461048f565b610144359667ffffffffffffffff88116103ee576119fa61001898369060040161127c565b97909660c4359360a4359360843593612f3c565b906101806003198301126103ee57600435611a2881610432565b91602435611a3581610432565b91604435611a4281610432565b91606435611a4f81610432565b916084359160a4359160c4359160e435611a6881610432565b9161010435611a768161048f565b9161012435611a848161048f565b9161014435611a928161048f565b91610164359067ffffffffffffffff82116103ee576110669160040161127c565b611abc36611a0e565b959996989a92909493611ad19c98929c613506565b61086b9960ff8b5460e81c1661075157611b1f611b1b611b148e611b078d6001600160a01b03165f5261086d60205260405f2090565b905f5260205260405f2090565b5460ff1690565b1590565b611d615763ffffffff93611b3585841642613148565b857f00000000000000000000000000000000000000000000000000000000000000001610611d3757848416428110908115611d02575b50611cd8576001600160a01b039b8c7f0000000000000000000000000000000000000000000000000000000000000000168d8c1681811480611ccf575b15611cb55750823403611c8b57803b156103ee575f60049160405192838092630d0e30db60e41b825234905af18015611c8657611c6d575b505b5460c01c63ffffffff169e8f611bf790613162565b611c1e9061086b9063ffffffff60c01b1963ffffffff60c01b83549260c01b169116179055565b611c2a90428716612f1f565b946040519c8d9c169f169d611c3f9a8c613177565b037fa123dc29aebf7d0c3322c8eeb5b999e859f39937950ed31056532713d0de396f91a46100186001606555565b80611c7a611c809261054b565b806103e4565b5f611be0565b612d0f565b60046040517f6452a35d000000000000000000000000000000000000000000000000000000008152fd5b905034611c8b5782611cca91309033906143ea565b611be2565b50341515611ba8565b60046040517f582e3889000000000000000000000000000000000000000000000000000000008152fd5b9050611d30867f00000000000000000000000000000000000000000000000000000000000000001642613155565b105f611b6b565b60046040517ff722177f000000000000000000000000000000000000000000000000000000008152fd5b60046040517f2a58c4f3000000000000000000000000000000000000000000000000000000008152fd5b346103ee5760203660031901126103ee57600435611da76133f4565b611daf613506565b611db8816126e0565b611df0576001815f80935501557f3569b846531b754c99cb80df3f49cd72fa6fe106aaee5ab8e0caf35a9d7ce88d5f80a26001606555005b634e487b7160e01b5f525f60045260245ffd5b346103ee575f3660031901126103ee5760206040517342000000000000000000000000000000000000078152f35b346103ee575f3660031901126103ee5760206040516001600160a01b037f0000000000000000000000000000000000000000000000000000000000000000168152f35b346103ee57611e823661170f565b909160ff5f5460081c16156103ee57611eb89061086b9063ffffffff60c01b1963ffffffff60c01b83549260c01b169116179055565b604051611ec48161052a565b6009815260208101926820a1a927a9a996ab1960b91b8452640312e302e360dc1b6020604051611ef38161052a565b60058152015260ff5f5460081c16156103ee5761001893610a9c9251902061047f557f06c015bd22b4c69690933c1058878ebdfef31f9aaae40bbe86d8a09fe1b2972c61048055610fb1614447565b346103ee5760203660031901126103ee576004803567ffffffffffffffff81116103ee57611f739036908301610b9e565b611f7b613506565b60ff61086b5460e01c1661212b57610140810191611f9883612a4f565b9063ffffffff918242911610156121035761012083019042611fc5611fbc84612a4f565b63ffffffff1690565b106120f457611fd7610c363686612a59565b90611feb825f5261087260205260405f2090565b546120cc57509061203061202a7f923794976d026d6b119735adc163cb71decfc903e17c3dc226c00789593c04e194935f5261087260205260405f2090565b60019055565b6120bf61203f60608601612a45565b9561204c60808701612a45565b9561206c6120666120606101008401612a4f565b95612a4f565b92612a4f565b61207860408301612a45565b61208183612a45565b9061208e60208501612a45565b9261209d610160860186612b39565b9690956040519a8b9a169d60e08201359d60a060c0840135930135918c6131df565b0390a36100186001606555565b6040517f012f9e44000000000000000000000000000000000000000000000000000000008152fd5b60405163d642b7d960e01b8152fd5b6040517f09deb9ec000000000000000000000000000000000000000000000000000000008152fd5b50604051633d90fc5560e11b8152fd5b346103ee5760203660031901126103ee577f2d5b62420992e5a4afce0e77742636ca2608ef58289fd2e1baa5161ef6e7e41e602060043561217b81610aa1565b6121836133f4565b61218b613506565b151561086b80547fffffff00ffffffffffffffffffffffffffffffffffffffffffffffffffffffff7cff000000000000000000000000000000000000000000000000000000008460e01b169116179055604051908152a16001606555005b346103ee575f3660031901126103ee576020604051468152f35b346103ee575f3660031901126103ee57602063ffffffff61086b5460c01c16604051908152f35b6020808201906020835283518092526040830192602060408460051b8301019501935f915b84831061225f5750505050505090565b909192939495848061227d600193603f198682030187528a5161108b565b980193019301919493929061224f565b346103ee5761229b3661103b565b906122a582613247565b915f5b8181106122bd5760405180611181868261222a565b5f806122ca838587612c9c565b906122da60405180938193612cb3565b0390305af46122e7612cc0565b901561230d57906001916122fb8287612c88565b526123068186612c88565b50016122a8565b60448151106103ee578060046103ee920151602480918301019101613290565b346103ee5760203660031901126103ee57602060043561234c81610432565b6001600160a01b038091165f52610c5c825260405f205416604051908152f35b346103ee576003196060368201126103ee5760043567ffffffffffffffff8082116103ee576060823603938401126103ee57602435906123ab8261048f565b6044359081116103ee576123c390369060040161100a565b9190936123ce613506565b60048401359061018219018112156103ee57610caa94612483936123fb61247c9360043691890101612a59565b9561241861241360808901516001600160a01b031690565b6137b6565b61246a61242488613bc7565b91604461243b60208b01516001600160a01b031690565b916101608b01519461244b6105f1565b9b8c5260208c0152013560408a01526001600160a01b03166060890152565b60808701525f60a0870152369161092b565b90836144dc565b614029565b60409060031901126103ee576004356124a081610432565b906024356106bf81610432565b346103ee576124bb36612488565b906124c46133f4565b6124cc613506565b6001600160a01b0380911691825f52610c5d6020526125048160405f20906001600160a01b03166001600160a01b0319825416179055565b16907fcb84c2022106a6f2b6f805d446f32fbfd2a528474364fa755f37dac1c0c1b6c85f80a36001606555005b346103ee5760203660031901126103ee576004355f52610872602052602060405f2054604051908152f35b346103ee5760c03660031901126103ee5767ffffffffffffffff6004358181116103ee5761258e903690600401610b9e565b6064359061259b82610432565b6084358381116103ee576125b390369060040161127c565b9060a4359485116103ee576125cf61001895369060040161127c565b94909360443590602435906132ef565b346103ee575f3660031901126103ee57602060405163ffffffff8152f35b346103ee575f3660031901126103ee57602060ff61086b5460e01c166040519015158152f35b346103ee575f3660031901126103ee5760206040516ec097ce7bc90715b34b9f10000000008152f35b346103ee5760203660031901126103ee5761074a60043561266c81610432565b6126746133f4565b610fb9613506565b346103ee575f3660031901126103ee5760206001600160a01b0361086a5416604051908152f35b346103ee575f3660031901126103ee576020610c5a546001600160a01b0360405191831c168152f35b634e487b7160e01b5f52603260045260245ffd5b61086c90815481101561271a576003915f52027f71cd7344f4eb2efc8e30291f6dbdb44d618ca368ea5425d217c1d604bf26b84d01905f90565b6126cc565b346103ee5760203660031901126103ee5760043561086c548110156103ee576127496040916126e0565b506001815491015482519182526020820152f35b346103ee575f3660031901126103ee5760206040516001600160a01b037f0000000000000000000000000000000000000000000000000000000000000000168152f35b346103ee575f3660031901126103ee5760206040517343000000000000000000000000000000000000058152f35b346103ee576127dc36612488565b906127e56133f4565b6127ed613506565b6001600160a01b0380911691825f52610c5c6020526128258160405f20906001600160a01b03166001600160a01b0319825416179055565b16907ff3dc137d2246f9b8abd0bb821e185ba01122c9b3ea3745ffca6208037674d6705f80a36001606555005b9161285b613506565b608082019161287461241384516001600160a01b031690565b60208101918251460361297557611b1b61289c91836001612894896126e0565b500154613864565b612964578060607ff8bd640004bcec1b89657020f561d0b070cbdf662d0b158db9dccb0a8301bfab9201936128de6128d8865163ffffffff1690565b87613924565b61295784519461293c61292e85519561291e60408201998a516129058d5163ffffffff1690565b89516001600160a01b03169160a086019b8c5194613991565b5192519751985163ffffffff1690565b93516001600160a01b031690565b935163ffffffff9485604051968796169a169833938661299f565b0390a461044e6001606555565b600460405163582f497d60e11b8152fd5b60046040517f7a47c9a2000000000000000000000000000000000000000000000000000000008152fd5b95949392919060a0870190875260209060a08289015282518091528160c089019301905f5b818110612a31575050506001600160a01b03809316604088015286820360608801528080855193848152019401925f905b838210612a1857505050505090608061044e929401906001600160a01b03169052565b84518116865294820194938201936001909101906129f5565b8251855293830193918301916001016129c4565b356106bf81610432565b356106bf8161048f565b9190610180838203126103ee57612a6e610611565b92612a7881610443565b8452612a8660208201610443565b6020850152612a9760408201610443565b6040850152612aa860608201610443565b6060850152612ab960808201610443565b608085015260a081013560a085015260c081013560c085015260e081013560e0850152610100612aea81830161049d565b90850152610120612afc81830161049d565b90850152610140612b0e81830161049d565b90850152610160918282013567ffffffffffffffff81116103ee57612b3392016106a4565b90830152565b903590601e19813603018212156103ee570180359067ffffffffffffffff82116103ee576020019181360383136103ee57565b91909160ff5f5460081c16156103ee57612bb690610c5a624c4b4063ffffffff1982541617905561086b9063ffffffff60c01b1963ffffffff60c01b83549260c01b169116179055565b604051612bc28161052a565b6009815260208101926820a1a927a9a996ab1960b91b8452640312e302e360dc1b6020604051612bf18161052a565b60058152015260ff5f5460081c16156103ee57612c4093610a9c9251902061047f557f06c015bd22b4c69690933c1058878ebdfef31f9aaae40bbe86d8a09fe1b2972c61048055610fb1614447565b61044e610c5a77deaddeaddeaddeaddeaddeaddeaddeaddead0000000000007fffffffffffffffff0000000000000000000000000000000000000000ffffffff825416179055565b805182101561271a5760209160051b010190565b9082101561271a576110669160051b810190612b39565b908092918237015f815290565b3d15612cea573d90612cd182610652565b91612cdf60405193846105cf565b82523d5f602084013e565b606090565b908060209392818452848401375f828201840152601f01601f1916010190565b6040513d5f823e3d90fd5b908160209103126103ee575190565b634e487b7160e01b5f52602160045260245ffd5b60031115612d4757565b612d29565b90612d579291612b6c565b734300000000000000000000000000000000000002803b156103ee576040517ff098767a0000000000000000000000000000000000000000000000000000000081525f8160048183865af18015611c8657612ef8575b50803b156103ee575f80916004604051809481937f4e606c470000000000000000000000000000000000000000000000000000000083525af18015611c8657612ee5575b506040517f1a33757d00000000000000000000000000000000000000000000000000000000808252600260048301526020916001600160a01b039183826024815f7f000000000000000000000000000000000000000000000000000000000000000088165af1918215611c86578492612ec8575b506040519081526002600482015291829060249082905f907f0000000000000000000000000000000000000000000000000000000000000000165af18015611c8657612eaf575050565b81612ec592903d10610e9157610e8281836105cf565b50565b612ede90833d8511610e9157610e8281836105cf565b505f612e65565b80611c7a612ef29261054b565b5f612df1565b80611c7a612f059261054b565b5f612dad565b634e487b7160e01b5f52601160045260245ffd5b91909163ffffffff80809416911601918211612f3757565b612f0b565b9692999397909195989a9463ffffffff91612f5a8342169182612f1f565b91612f63613506565b61086b9a60ff8c5460e81c1661075157612f99611b1b611b148f611b078e6001600160a01b03165f5261086d60205260405f2090565b611d6157612fa78342613148565b857f00000000000000000000000000000000000000000000000000000000000000001610611d3757848416428110908115613113575b50611cd8576001600160a01b039b8c7f0000000000000000000000000000000000000000000000000000000000000000168d8c168181148061310a575b156130f05750823403611c8b57803b156103ee575f60049160405192838092630d0e30db60e41b825234905af18015611c86576130dd575b505b5460c01c63ffffffff169e8f61306990613162565b6130909061086b9063ffffffff60c01b1963ffffffff60c01b83549260c01b169116179055565b61309a9084612f1f565b946040519c8d9c169f169d6130af9a8c613177565b037fa123dc29aebf7d0c3322c8eeb5b999e859f39937950ed31056532713d0de396f91a461044e6001606555565b80611c7a6130ea9261054b565b5f613052565b905034611c8b578261310591309033906143ea565b613054565b5034151561301a565b9050613141867f00000000000000000000000000000000000000000000000000000000000000001642613155565b105f612fdd565b91908203918211612f3757565b91908201809211612f3757565b63ffffffff809116908114612f375760010190565b6001600160a01b03918216815291811660208301526040820192909252606081019290925263ffffffff928316608083015292821660a0820152921660c083015291821660e0820152911661010082015261014061012082018190526106bf93910191612cef565b96909193979295946106bf9b9995610140996001600160a01b0398898098818098168d521660208c015260408b015260608a015263ffffffff80921660808a01521660a08801521660c08601521660e084015216610100820152816101208201520191612cef565b9061325182610849565b61325e60405191826105cf565b828152809261326f601f1991610849565b01905f5b82811061327f57505050565b806060602080938501015201613273565b6020818303126103ee5780519067ffffffffffffffff82116103ee570181601f820112156103ee5780516132c381610652565b926132d160405194856105cf565b818452602082840101116103ee576106bf916020808501910161106a565b94909693956132fc613506565b60ff61086b5460e01c16610d12576133176101408701612a4f565b63ffffffff4291161015806133d6575b610cb4576133353687612a59565b61333e90613bc7565b976133476105f1565b986133523689612a59565b8a5260208a0152604089018490526001600160a01b03851660608a015261337a36848a61066e565b60808a015260a089015261338d86612a45565b9661339b6101008801612a4f565b9236906133a79261066e565b9436906133b39261066e565b9460e00135906133c2966142e4565b336133cc91613d1a565b61044e6001606555565b506133e360408701612a45565b6001600160a01b0316331415613327565b7342000000000000000000000000000000000000078033036134dc576020600491604051928380927f6e296e450000000000000000000000000000000000000000000000000000000082525afa908115611c86575f916134ad575b506001600160a01b0361347a61346e610869546001600160a01b031690565b6001600160a01b031690565b91160361348357565b60046040517f36a816d9000000000000000000000000000000000000000000000000000000008152fd5b6134cf915060203d6020116134d5575b6134c781836105cf565b81019061456c565b5f61344f565b503d6134bd565b60046040517f4a74df92000000000000000000000000000000000000000000000000000000008152fd5b6002606554146103ee576002606555565b92936106bf9695919294610140956001600160a01b0380951686525f60208701526040860152606085015263ffffffff809116608085015260a08401525f60c08401521660e08201525f61010082015281610120820152019061108b565b91959693949290926135a3611b1b611b1488611b078b6001600160a01b03165f5261086d60205260405f2090565b611d615760070b936706f05b59d3b200006135bd86614581565b101561378c576ec097ce7bc90715b34b9f100000000082116137625763ffffffff936135eb858a1642613148565b857f00000000000000000000000000000000000000000000000000000000000000001610611d375761086b5460c01c63ffffffff169861365061362d8b613162565b61086b9063ffffffff60c01b1963ffffffff60c01b83549260c01b169116179055565b6001600160a01b0395867f00000000000000000000000000000000000000000000000000000000000000001694878b1686811480613759575b1561371c5750803403611c8b57853b156103ee575f60049660405197888092630d0e30db60e41b825234905af18015611c86577fa123dc29aebf7d0c3322c8eeb5b999e859f39937950ed31056532713d0de396f99613704976136f392613709575b505b82614590565b91604051988998169c169a87613517565b0390a4565b80611c7a6137169261054b565b5f6136eb565b61370496507fa123dc29aebf7d0c3322c8eeb5b999e859f39937950ed31056532713d0de396f99613754836136f393309033906143ea565b6136ed565b50341515613689565b60046040517fc45b6b52000000000000000000000000000000000000000000000000000000008152fd5b60046040517fa13c425c000000000000000000000000000000000000000000000000000000008152fd5b6001600160a01b037f00000000000000000000000000000000000000000000000000000000000000008116911681146137ec5750565b476137f45750565b4790803b156103ee575f90600460405180948193630d0e30db60e41b83525af18015611c865715612ec55761044e9061054b565b9081518082526020808093019301915f5b828110613847575050505090565b83516001600160a01b031685529381019392810192600101613839565b6040805160208082018181528551838501528186015160608401529285015160c0608084015280516101008401819052610120840198979692918201915f5b8281106139105750505050816138f96106bf979860a0846138d360606139079701518387019063ffffffff169052565b60808101516001600160a01b031660c08601520151838203603f190160e0850152613828565b03601f1981018352826105cf565b519020916145c6565b83518b5299810199928101926001016138a3565b61392f6002916126e0565b500162ffffff8260081c16805f5281602052600160ff60405f205494161b8080941614613967575f5260205260405f20908154179055565b60046040517f954476d9000000000000000000000000000000000000000000000000000000008152fd5b9294939190938051825103613a5f578151915f5b838110613a115750505050826139bc575b50505050565b6001600160a01b03816139f07f828fc203220356df8f072a91681caee7d5c75095e2a95e80ed5a14b384697f719386614673565b6040805195865233602087015291169463ffffffff1693a45f8080806139b6565b80613a1e60019284612c88565b5180613a2c575b50016139a5565b613a5990613a4a613a3d8488612c88565b516001600160a01b031690565b6001600160a01b038916614617565b5f613a25565b60046040517fcd298b38000000000000000000000000000000000000000000000000000000008152fd5b6001600160a01b03168015613ad15761086a816001600160a01b03198254161790557f1f17a88f67b0f49060a34bec1a4723a563620e6aa265eb640b5046dcee0759a05f80a2565b60046040517f2d234e48000000000000000000000000000000000000000000000000000000008152fd5b80516001600160a01b031682526106bf91610180906020838101516001600160a01b0316908201526040838101516001600160a01b0316908201526060838101516001600160a01b0316908201526080838101516001600160a01b03169082015260a083015160a082015260c083015160c082015260e083015160e0820152613b92610100808501519083019063ffffffff169052565b6101208381015163ffffffff16908201526101408381015163ffffffff1690820152816101608094015193820152019061108b565b604051613bf881613be46020820194604086526060830190613afb565b46604083015203601f1981018352826105cf565b51902090565b613c0782612d3d565b52565b906001600160a01b038251168152606080613c34602085015160806020860152608085019061108b565b9360408101516040850152015191613c4b83612d3d565b015290565b9a97909695613cce966106bf9d9b9660808e613cbd98613cdd9e986101809d6001600160a01b03998a80921685521660208401526040830152606082015201528c60a063ffffffff8094169101521660c08c01521660e08a01526101008901906001600160a01b03169052565b6001600160a01b0316610120870152565b8061014086015284019061108b565b91610160818403910152613c0a565b906106bf94936080936001600160a01b0380931684526020840152166040820152816060820152019061108b565b805191610120830190613d31825163ffffffff1690565b63ffffffff429116106140185760208301516001613d58825f5261087260205260405f2090565b5403614011576001905b6002613d77825f5261087260205260405f2090565b5414613fe757613d90905f5261087260205260405f2090565b6002905560608501516001600160a01b031660808601516001600160a01b03169260a0870151918660c0890151948960a08301519660e082015197610100830151613dde9063ffffffff1690565b9a5163ffffffff1661014084015163ffffffff16906040850151613e08906001600160a01b031690565b928551613e1b906001600160a01b031690565b946020870151613e31906001600160a01b031690565b9661016001519760608a0151613e4d906001600160a01b031690565b996080810151906040015190613e61610632565b6001600160a01b03909c168c5260208c015260408b0152613e859060608b01613bfe565b6040519b6001600160a01b038d9c169f63ffffffff169e613ea69b8d613c50565b037f571749edf1d5c9599318cdbc4e28a6475d65e87fd3b2ddbe1e9a8d5e7a0f0ff791a460608101516001600160a01b031691829033821480613fdf575b6139b657608001516001600160a01b03169260806040840151936001600160a01b03861685856001600160a01b037f00000000000000000000000000000000000000000000000000000000000000001683145f14613fcf5750613f4a91309033906143ea565b613f5485846147f6565b015191825115159081613fc4575b50613f6d5750505050565b803b156103ee57613f9a935f809460405196879586948593633a5be8cb60e01b8552339160048601613cec565b03925af18015611c8657613fb1575b8080806139b6565b80611c7a613fbe9261054b565b5f613fa9565b90503b15155f613f62565b613fda9233906143ea565b613f54565b506001613ee4565b60046040517f8f260c60000000000000000000000000000000000000000000000000000000008152fd5b5f90613d62565b600460405163d642b7d960e01b8152fd5b905f82516101208101614040815163ffffffff1690565b63ffffffff429116106140185760208501516002614067825f5261087260205260405f2090565b5414613fe757614080905f5261087260205260405f2090565b6002905560608201516001600160a01b031660808301516001600160a01b03169060a08401519260c0850151918860a0810151938760e0810151956101008201516140ce9063ffffffff1690565b955163ffffffff1661014083015163ffffffff1660408401516001600160a01b0316918451614103906001600160a01b031690565b936020860151614119906001600160a01b031690565b956101600151966060890151614135906001600160a01b031690565b986080810151906040015190614149610632565b6001600160a01b03909b168b5260208b015260408a0152600260608a01526040519d63ffffffff8f9c169d61417e9b8d613c50565b037f571749edf1d5c9599318cdbc4e28a6475d65e87fd3b2ddbe1e9a8d5e7a0f0ff7905f94a460608401516001600160a01b0316906001600160a01b039485831691823314806142dd575b6142d457608001516001600160a01b03169060408101519687818416917f00000000000000000000000000000000000000000000000000000000000000001682145f146142bd579060809291876142a9575b6142269150856147f6565b01519283511515908161429e575b50614242575b505050509050565b813b1561429a578361426e959660405196879586948593633a5be8cb60e01b8552339160048601613cec565b03925af18015611c8657614287575b808080849361423a565b80611c7a6142949261054b565b5f61427d565b8380fd5b90503b15155f614234565b6142b691309033906143ea565b5f8861421b565b6080929196506142cf90865f98614617565b614226565b50505050509050565b505f6141c9565b93926042936001600160a01b0361044e989760208151910120916040519363ffffffff60208601967f152eb71524aef34d838ab76573c14b1ebfa5e385d9ab29d7cf5398daa2438bd9885216604086015286606086015260808501521660a083015260c082015260c0815261435881610597565b5190209061047f549061048054906040519160208301937fc2f8787176b8ac6bf7215b4adcc1e069bf4ab82d9ab1df05a57a91d425935b6e8552604084015260608301526080820152608081526143ae816105b3565b51902090604051917f19010000000000000000000000000000000000000000000000000000000000008352600283015260228201522090614a13565b909261044e93604051937f23b872dd0000000000000000000000000000000000000000000000000000000060208601526001600160a01b038092166024860152166044840152606483015260648252614442826105b3565b614b22565b60ff5f5460081c16156103ee57565b60ff5f5460081c16156103ee576001606555565b6001600160a01b031680156144b257610869816001600160a01b03198254161790557fa9e8c42c9e7fca7f62755189a16b2f5314d43d8fb24e91ba54e6d65f9314e8495f80a2565b60046040517fba97b39d000000000000000000000000000000000000000000000000000000008152fd5b91611b1b90614555928451604080960151918651916144fa8361055f565b825261390761451560208401924684528985019586526126e0565b505493885192839161453a6020840196602088525160608d86015260a0850190613afb565b9151606084015251608083015203601f1981018352826105cf565b61455c5750565b6004905163582f497d60e11b8152fd5b908160209103126103ee57516106bf81610432565b5f811261458b5790565b5f0390565b90670de0b6b3a7640000915f828403921283831281169084841390151617612f3757818102918183041490151715612f37570490565b929091905f915b845183101561460f576145e08386612c88565b5190818110156145fe575f52602052600160405f205b9201916145cd565b905f52602052600160405f206145f6565b915092501490565b6040517fa9059cbb0000000000000000000000000000000000000000000000000000000060208201526001600160a01b039092166024830152604482019290925261044e9161444282606481015b03601f1981018452836105cf565b906001600160a01b03808216817f0000000000000000000000000000000000000000000000000000000000000000168114809281156147ca575b506147bb575b50156147b257610c5a5463ffffffff16734300000000000000000000000000000000000005803b156103ee576040517f540abf730000000000000000000000000000000000000000000000000000000081526001600160a01b0393841660048201527f0000000000000000000000000000000000000000000000000000000000000000841660248201527f00000000000000000000000000000000000000000000000000000000000000009093166044840152606483019390935263ffffffff16608482015260c060a48201525f60c482018190529091829081838160e481015b03925af18015611c86576147a55750565b80611c7a61044e9261054b565b61044e91614eaa565b6147c490614bb2565b5f6146b3565b90507f00000000000000000000000000000000000000000000000000000000000000001681145f6146ad565b6001600160a01b0390811690813b15614836579061044e92917f000000000000000000000000000000000000000000000000000000000000000016614617565b7f000000000000000000000000000000000000000000000000000000000000000016803b156103ee575f8091602460405180948193632e1a7d4d60e01b83528860048401525af18015611c86576148a8575b508147106103ee575f80809381935af16148a0612cc0565b50156103ee57565b6148b19061054b565b5f614888565b6148c0816149d0565b6001600160a01b0381167fbc7cd75a20ee27fd9adebab32041f755214dbc6bffa90cc0225b39da2e5c2d3b5f80a2815115801590614978575b614901575050565b5f80612ec5937f206661696c656400000000000000000000000000000000000000000000000000604080516149358161055f565b602781527f416464726573733a206c6f772d6c6576656c2064656c65676174652063616c6c60208201520152602081519101845af4614972612cc0565b916155a1565b505f6148f9565b614988816149d0565b6001600160a01b0381167fbc7cd75a20ee27fd9adebab32041f755214dbc6bffa90cc0225b39da2e5c2d3b5f80a28151158015906149c857614901575050565b5060016148f9565b803b156103ee576001600160a01b037f360894a13ba1a3210667c828492db98dca3e2076cc3735a920a3ca505d382bbc91166001600160a01b0319825416179055565b614a1d8383615570565b6005819592951015612d4757159384614b0c575b508315614a6d575b50505015614a4357565b60046040517f938a1821000000000000000000000000000000000000000000000000000000008152fd5b5f929350908291604051614abe816138f960208201947f1626ba7e00000000000000000000000000000000000000000000000000000000998a8752602484015260406044840152606483019061108b565b51915afa90614acb612cc0565b82614afe575b82614ae1575b50505f8080614a39565b614af691925060208082518301019101612d1a565b145f80614ad7565b915060208251101591614ad1565b6001600160a01b0383811691161493505f614a31565b905f806001600160a01b03614b799416927f5361666545524332303a206c6f772d6c6576656c2063616c6c206661696c65646020604051614b628161052a565b818152015260208151910182855af1614972612cc0565b8051908115918215614b8f575b5050156103ee57565b81925090602091810103126103ee5760200151614bab81610aa1565b5f80614b86565b604080517fe12f3a61000000000000000000000000000000000000000000000000000000008152306004820152916001600160a01b03919060209083168185602481845afa948515611c86575f95614e8b575b5082517faad3ec960000000000000000000000000000000000000000000000000000000081527f00000000000000000000000000000000000000000000000000000000000000006001600160a01b038116600483015260248201879052959083816044815f875af1908115611c86575f91614e6e575b50809103614e3557808291614dff575b5050837f00000000000000000000000000000000000000000000000000000000000000001614614cbb5750505050565b81517f860043b60000000000000000000000000000000000000000000000000000000081523060048201526001600160a01b03851660248201527343000000000000000000000000000000000000029082816044815f865af1908115611c86575f91614de2575b5083517f662aa11d0000000000000000000000000000000000000000000000000000000081523060048201526001600160a01b0387166024820152918390839060449082905f905af1918215611c8657614d84935f93614dc3575b5050613155565b9182156139b65790519182525f9216907ff3055bc8d92d9c8d2f12b45d112dd345cd2cfd17292b8d65c5642ac6f912dfd790602090a35f8080806139b6565b614dda929350803d10610e9157610e8281836105cf565b905f80614d7d565b614df99150833d8511610e9157610e8281836105cf565b5f614d22565b8451908152858716907ff3055bc8d92d9c8d2f12b45d112dd345cd2cfd17292b8d65c5642ac6f912dfd790602090a3805f614c8b565b83517f7817528a0000000000000000000000000000000000000000000000000000000081526001600160a01b0383166004820152602490fd5b614e859150843d8611610e9157610e8281836105cf565b5f614c7b565b614ea3919550823d8411610e9157610e8281836105cf565b935f614c05565b906001600160a01b0390818116907f000000000000000000000000000000000000000000000000000000000000000083168203614fc45750803b156103ee575f6040518092632e1a7d4d60e01b8252818381614f0e89600483019190602083019252565b03925af18015611c8657614fb1575b50610c5a5491614f3661086a546001600160a01b031690565b73420000000000000000000000000000000000001090813b156103ee57604051631474f2a960e31b81526001600160a01b03602087901c90951685166004820152931660248401526044830182905263ffffffff909316606483015260a060848301525f60a483018190529192839182908160c48101614794565b80611c7a614fbe9261054b565b5f614f1d565b91807f000000000000000000000000000000000000000000000000000000000000000016151580615208575b156150145750505061044e9061500f61086a546001600160a01b031690565b615332565b80615041615034856001600160a01b03165f52610c5c60205260405f2090565b546001600160a01b031690565b166151e4577342000000000000000000000000000000000000105b169061508061346e615034856001600160a01b03165f52610c5d60205260405f2090565b1561515e57838261509092615233565b6150af615034836001600160a01b03165f52610c5d60205260405f2090565b906150c361086a546001600160a01b031690565b916150d4610c5a5463ffffffff1690565b823b156103ee576040517f4823f1140000000000000000000000000000000000000000000000000000000081526001600160a01b0395861660048201529185166024830152929093166044840152606483019390935263ffffffff16608482015260c060a48201525f60c482018190529091829060e490829084905af18015611c86576147a55750565b509161517361086a546001600160a01b031690565b92615184610c5a5463ffffffff1690565b93813b156103ee575f809461479460405197889687958694631474f2a960e31b8652600486019260c0949163ffffffff936001600160a01b038092168652166020850152604084015216606082015260a060808201525f60a08201520190565b615203615034846001600160a01b03165f52610c5c60205260405f2090565b61505c565b50807f0000000000000000000000000000000000000000000000000000000000000000168214614ff0565b6040517fdd62ed3e0000000000000000000000000000000000000000000000000000000081523060048201526001600160a01b03831660248201529192602083806044810103816001600160a01b0386165afa928315611c86575f936152f1575b508201809211612f37576040517f095ea7b30000000000000000000000000000000000000000000000000000000060208201526001600160a01b039093166024840152604483019190915261044e91906144428260648101614665565b61530b91935060203d602011610e9157610e8281836105cf565b915f615294565b908160209103126103ee575167ffffffffffffffff811681036103ee5790565b7f0000000000000000000000000000000000000000000000000000000000000000906001600160a01b0392837f0000000000000000000000000000000000000000000000000000000000000000169161538c828486615233565b604092604051937fcb75c11c0000000000000000000000000000000000000000000000000000000085526020936004908587600481875afa978815611c865789975f99615549575b506040517fa56ec6320000000000000000000000000000000000000000000000000000000081526001600160a01b03918916918216600482015299909887918b9190829081602481015b0392165afa988915611c86575f9961552a575b509390951696947f000000000000000000000000000000000000000000000000000000000000000093805b61546b57505050505050505050565b6154d590878111156155245787905b84517f6fd3504e00000000000000000000000000000000000000000000000000000000815284810183815263ffffffff89166020820152604081018d90526001600160a01b038c166060820152909389918591829160800190565b03815f8a5af1928315611c86576154f1936154f7575b50613148565b8061545c565b61551690893d8b1161551d575b61550e81836105cf565b810190615312565b505f6154eb565b503d615504565b8061547a565b615542919950863d8811610e9157610e8281836105cf565b975f615431565b879199508861556761541e92843d86116134d5576134c781836105cf565b9a9250506153d4565b9060418151145f146155985761106691602082015190606060408401519301515f1a906155ca565b50505f90600290565b90156155bb578151156155b2575090565b3b156103ee5790565b5080519081156103ee57602001fd5b7f7fffffffffffffffffffffffffffffff5d576e7357a4501ddfe92f46681b20a0841161563a576020935f9360ff60809460405194855216868401526040830152606082015282805260015afa15611c86575f516001600160a01b0381161561563257905f90565b505f90600190565b505050505f9060039056fea2646970667358221220b6c8b778eacd78f6cadff339485281f736a60ceb142dedd426b09a4c3473fbeb64736f6c63430008170033"
}