{
  "address": "0xb2b5C1b17B19d92CC4fC1f026B2133259e3ccd41",
  "abi": [
    {
      "inputs": [
        {
          "internalType": "address",
          "name": "_wrappedNativeTokenAddress",
          "type": "address"
        },
        {
          "internalType": "uint32",
          "name": "_depositQuoteTimeBuffer",
          "type": "uint32"
        },
        {
          "internalType": "uint32",
          "name": "_fillDeadlineBuffer",
          "type": "uint32"
        },
        {
          "internalType": "contract IERC20",
          "name": "_l2Usdc",
          "type": "address"
        },
        {
          "internalType": "contract ITokenMessenger",
          "name": "_cctpTokenMessenger",
          "type": "address"
        },
        {
          "internalType": "address",
          "name": "usdb",
          "type": "address"
        },
        {
          "internalType": "address",
          "name": "l1Usdb",
          "type": "address"
        },
        {
          "internalType": "address",
          "name": "yieldRecipient",
          "type": "address"
        },
        {
          "internalType": "address",
          "name": "blastRetriever",
          "type": "address"
        }
      ],
      "stateMutability": "nonpayable",
      "type": "constructor"
    },
    {
      "inputs": [],
      "name": "ClaimedMerkleLeaf",
      "type": "error"
    },
    {
      "inputs": [],
      "name": "DepositsArePaused",
      "type": "error"
    },
    {
      "inputs": [],
      "name": "DisabledRoute",
      "type": "error"
    },
    {
      "inputs": [],
      "name": "ExpiredFillDeadline",
      "type": "error"
    },
    {
      "inputs": [],
      "name": "FillsArePaused",
      "type": "error"
    },
    {
      "inputs": [],
      "name": "InvalidChainId",
      "type": "error"
    },
    {
      "inputs": [
        {
          "internalType": "address",
          "name": "token",
          "type": "address"
        }
      ],
      "name": "InvalidClaimedAmount",
      "type": "error"
    },
    {
      "inputs": [],
      "name": "InvalidCrossDomainAdmin",
      "type": "error"
    },
    {
      "inputs": [],
      "name": "InvalidDepositorSignature",
      "type": "error"
    },
    {
      "inputs": [],
      "name": "InvalidExclusiveRelayer",
      "type": "error"
    },
    {
      "inputs": [],
      "name": "InvalidFillDeadline",
      "type": "error"
    },
    {
      "inputs": [],
      "name": "InvalidMerkleLeaf",
      "type": "error"
    },
    {
      "inputs": [],
      "name": "InvalidMerkleProof",
      "type": "error"
    },
    {
      "inputs": [],
      "name": "InvalidPayoutAdjustmentPct",
      "type": "error"
    },
    {
      "inputs": [],
      "name": "InvalidQuoteTimestamp",
      "type": "error"
    },
    {
      "inputs": [],
      "name": "InvalidRelayerFeePct",
      "type": "error"
    },
    {
      "inputs": [],
      "name": "InvalidSlowFillRequest",
      "type": "error"
    },
    {
      "inputs": [],
      "name": "InvalidWithdrawalRecipient",
      "type": "error"
    },
    {
      "inputs": [
        {
          "internalType": "bytes",
          "name": "data",
          "type": "bytes"
        }
      ],
      "name": "LowLevelCallFailed",
      "type": "error"
    },
    {
      "inputs": [],
      "name": "MaxTransferSizeExceeded",
      "type": "error"
    },
    {
      "inputs": [],
      "name": "MsgValueDoesNotMatchInputAmount",
      "type": "error"
    },
    {
      "inputs": [],
      "name": "NoSlowFillsInExclusivityWindow",
      "type": "error"
    },
    {
      "inputs": [],
      "name": "NotCrossChainCall",
      "type": "error"
    },
    {
      "inputs": [],
      "name": "NotCrossDomainAdmin",
      "type": "error"
    },
    {
      "inputs": [],
      "name": "NotEOA",
      "type": "error"
    },
    {
      "inputs": [],
      "name": "NotExclusiveRelayer",
      "type": "error"
    },
    {
      "inputs": [],
      "name": "RelayFilled",
      "type": "error"
    },
    {
      "inputs": [],
      "name": "WrongERC7683OrderId",
      "type": "error"
    },
    {
      "anonymous": false,
      "inputs": [
        {
          "indexed": false,
          "internalType": "address",
          "name": "previousAdmin",
          "type": "address"
        },
        {
          "indexed": false,
          "internalType": "address",
          "name": "newAdmin",
          "type": "address"
        }
      ],
      "name": "AdminChanged",
      "type": "event"
    },
    {
      "anonymous": false,
      "inputs": [
        {
          "indexed": true,
          "internalType": "address",
          "name": "beacon",
          "type": "address"
        }
      ],
      "name": "BeaconUpgraded",
      "type": "event"
    },
    {
      "anonymous": false,
      "inputs": [
        {
          "indexed": true,
          "internalType": "uint256",
          "name": "rootBundleId",
          "type": "uint256"
        }
      ],
      "name": "EmergencyDeleteRootBundle",
      "type": "event"
    },
    {
      "anonymous": false,
      "inputs": [
        {
          "indexed": true,
          "internalType": "address",
          "name": "originToken",
          "type": "address"
        },
        {
          "indexed": true,
          "internalType": "uint256",
          "name": "destinationChainId",
          "type": "uint256"
        },
        {
          "indexed": false,
          "internalType": "bool",
          "name": "enabled",
          "type": "bool"
        }
      ],
      "name": "EnabledDepositRoute",
      "type": "event"
    },
    {
      "anonymous": false,
      "inputs": [
        {
          "indexed": false,
          "internalType": "uint256",
          "name": "amountToReturn",
          "type": "uint256"
        },
        {
          "indexed": true,
          "internalType": "uint256",
          "name": "chainId",
          "type": "uint256"
        },
        {
          "indexed": false,
          "internalType": "uint256[]",
          "name": "refundAmounts",
          "type": "uint256[]"
        },
        {
          "indexed": true,
          "internalType": "uint32",
          "name": "rootBundleId",
          "type": "uint32"
        },
        {
          "indexed": true,
          "internalType": "uint32",
          "name": "leafId",
          "type": "uint32"
        },
        {
          "indexed": false,
          "internalType": "address",
          "name": "l2TokenAddress",
          "type": "address"
        },
        {
          "indexed": false,
          "internalType": "address[]",
          "name": "refundAddresses",
          "type": "address[]"
        },
        {
          "indexed": false,
          "internalType": "address",
          "name": "caller",
          "type": "address"
        }
      ],
      "name": "ExecutedRelayerRefundRoot",
      "type": "event"
    },
    {
      "anonymous": false,
      "inputs": [
        {
          "indexed": false,
          "internalType": "address",
          "name": "inputToken",
          "type": "address"
        },
        {
          "indexed": false,
          "internalType": "address",
          "name": "outputToken",
          "type": "address"
        },
        {
          "indexed": false,
          "internalType": "uint256",
          "name": "inputAmount",
          "type": "uint256"
        },
        {
          "indexed": false,
          "internalType": "uint256",
          "name": "outputAmount",
          "type": "uint256"
        },
        {
          "indexed": false,
          "internalType": "uint256",
          "name": "repaymentChainId",
          "type": "uint256"
        },
        {
          "indexed": true,
          "internalType": "uint256",
          "name": "originChainId",
          "type": "uint256"
        },
        {
          "indexed": true,
          "internalType": "uint32",
          "name": "depositId",
          "type": "uint32"
        },
        {
          "indexed": false,
          "internalType": "uint32",
          "name": "fillDeadline",
          "type": "uint32"
        },
        {
          "indexed": false,
          "internalType": "uint32",
          "name": "exclusivityDeadline",
          "type": "uint32"
        },
        {
          "indexed": false,
          "internalType": "address",
          "name": "exclusiveRelayer",
          "type": "address"
        },
        {
          "indexed": true,
          "internalType": "address",
          "name": "relayer",
          "type": "address"
        },
        {
          "indexed": false,
          "internalType": "address",
          "name": "depositor",
          "type": "address"
        },
        {
          "indexed": false,
          "internalType": "address",
          "name": "recipient",
          "type": "address"
        },
        {
          "indexed": false,
          "internalType": "bytes",
          "name": "message",
          "type": "bytes"
        },
        {
          "components": [
            {
              "internalType": "address",
              "name": "updatedRecipient",
              "type": "address"
            },
            {
              "internalType": "bytes",
              "name": "updatedMessage",
              "type": "bytes"
            },
            {
              "internalType": "uint256",
              "name": "updatedOutputAmount",
              "type": "uint256"
            },
            {
              "internalType": "enum V3SpokePoolInterface.FillType",
              "name": "fillType",
              "type": "uint8"
            }
          ],
          "indexed": false,
          "internalType": "struct V3SpokePoolInterface.V3RelayExecutionEventInfo",
          "name": "relayExecutionInfo",
          "type": "tuple"
        }
      ],
      "name": "FilledV3Relay",
      "type": "event"
    },
    {
      "anonymous": false,
      "inputs": [
        {
          "indexed": false,
          "internalType": "uint8",
          "name": "version",
          "type": "uint8"
        }
      ],
      "name": "Initialized",
      "type": "event"
    },
    {
      "anonymous": false,
      "inputs": [
        {
          "indexed": false,
          "internalType": "bool",
          "name": "isPaused",
          "type": "bool"
        }
      ],
      "name": "PausedDeposits",
      "type": "event"
    },
    {
      "anonymous": false,
      "inputs": [
        {
          "indexed": false,
          "internalType": "bool",
          "name": "isPaused",
          "type": "bool"
        }
      ],
      "name": "PausedFills",
      "type": "event"
    },
    {
      "anonymous": false,
      "inputs": [
        {
          "indexed": true,
          "internalType": "uint32",
          "name": "rootBundleId",
          "type": "uint32"
        },
        {
          "indexed": true,
          "internalType": "bytes32",
          "name": "relayerRefundRoot",
          "type": "bytes32"
        },
        {
          "indexed": true,
          "internalType": "bytes32",
          "name": "slowRelayRoot",
          "type": "bytes32"
        }
      ],
      "name": "RelayedRootBundle",
      "type": "event"
    },
    {
      "anonymous": false,
      "inputs": [
        {
          "indexed": false,
          "internalType": "uint256",
          "name": "updatedOutputAmount",
          "type": "uint256"
        },
        {
          "indexed": true,
          "internalType": "uint32",
          "name": "depositId",
          "type": "uint32"
        },
        {
          "indexed": true,
          "internalType": "address",
          "name": "depositor",
          "type": "address"
        },
        {
          "indexed": false,
          "internalType": "address",
          "name": "updatedRecipient",
          "type": "address"
        },
        {
          "indexed": false,
          "internalType": "bytes",
          "name": "updatedMessage",
          "type": "bytes"
        },
        {
          "indexed": false,
          "internalType": "bytes",
          "name": "depositorSignature",
          "type": "bytes"
        }
      ],
      "name": "RequestedSpeedUpV3Deposit",
      "type": "event"
    },
    {
      "anonymous": false,
      "inputs": [
        {
          "indexed": false,
          "internalType": "address",
          "name": "inputToken",
          "type": "address"
        },
        {
          "indexed": false,
          "internalType": "address",
          "name": "outputToken",
          "type": "address"
        },
        {
          "indexed": false,
          "internalType": "uint256",
          "name": "inputAmount",
          "type": "uint256"
        },
        {
          "indexed": false,
          "internalType": "uint256",
          "name": "outputAmount",
          "type": "uint256"
        },
        {
          "indexed": true,
          "internalType": "uint256",
          "name": "originChainId",
          "type": "uint256"
        },
        {
          "indexed": true,
          "internalType": "uint32",
          "name": "depositId",
          "type": "uint32"
        },
        {
          "indexed": false,
          "internalType": "uint32",
          "name": "fillDeadline",
          "type": "uint32"
        },
        {
          "indexed": false,
          "internalType": "uint32",
          "name": "exclusivityDeadline",
          "type": "uint32"
        },
        {
          "indexed": false,
          "internalType": "address",
          "name": "exclusiveRelayer",
          "type": "address"
        },
        {
          "indexed": false,
          "internalType": "address",
          "name": "depositor",
          "type": "address"
        },
        {
          "indexed": false,
          "internalType": "address",
          "name": "recipient",
          "type": "address"
        },
        {
          "indexed": false,
          "internalType": "bytes",
          "name": "message",
          "type": "bytes"
        }
      ],
      "name": "RequestedV3SlowFill",
      "type": "event"
    },
    {
      "anonymous": false,
      "inputs": [
        {
          "indexed": true,
          "internalType": "uint32",
          "name": "newL1Gas",
          "type": "uint32"
        }
      ],
      "name": "SetL1Gas",
      "type": "event"
    },
    {
      "anonymous": false,
      "inputs": [
        {
          "indexed": true,
          "internalType": "address",
          "name": "l2Token",
          "type": "address"
        },
        {
          "indexed": true,
          "internalType": "address",
          "name": "tokenBridge",
          "type": "address"
        }
      ],
      "name": "SetL2TokenBridge",
      "type": "event"
    },
    {
      "anonymous": false,
      "inputs": [
        {
          "indexed": true,
          "internalType": "address",
          "name": "l2Token",
          "type": "address"
        },
        {
          "indexed": true,
          "internalType": "address",
          "name": "l1Token",
          "type": "address"
        }
      ],
      "name": "SetRemoteL1Token",
      "type": "event"
    },
    {
      "anonymous": false,
      "inputs": [
        {
          "indexed": true,
          "internalType": "address",
          "name": "newWithdrawalRecipient",
          "type": "address"
        }
      ],
      "name": "SetWithdrawalRecipient",
      "type": "event"
    },
    {
      "anonymous": false,
      "inputs": [
        {
          "indexed": true,
          "internalType": "address",
          "name": "newAdmin",
          "type": "address"
        }
      ],
      "name": "SetXDomainAdmin",
      "type": "event"
    },
    {
      "anonymous": false,
      "inputs": [
        {
          "indexed": false,
          "internalType": "uint256",
          "name": "amountToReturn",
          "type": "uint256"
        },
        {
          "indexed": true,
          "internalType": "uint256",
          "name": "chainId",
          "type": "uint256"
        },
        {
          "indexed": true,
          "internalType": "uint32",
          "name": "leafId",
          "type": "uint32"
        },
        {
          "indexed": true,
          "internalType": "address",
          "name": "l2TokenAddress",
          "type": "address"
        },
        {
          "indexed": false,
          "internalType": "address",
          "name": "caller",
          "type": "address"
        }
      ],
      "name": "TokensBridged",
      "type": "event"
    },
    {
      "anonymous": false,
      "inputs": [
        {
          "indexed": true,
          "internalType": "address",
          "name": "implementation",
          "type": "address"
        }
      ],
      "name": "Upgraded",
      "type": "event"
    },
    {
      "anonymous": false,
      "inputs": [
        {
          "indexed": false,
          "internalType": "address",
          "name": "inputToken",
          "type": "address"
        },
        {
          "indexed": false,
          "internalType": "address",
          "name": "outputToken",
          "type": "address"
        },
        {
          "indexed": false,
          "internalType": "uint256",
          "name": "inputAmount",
          "type": "uint256"
        },
        {
          "indexed": false,
          "internalType": "uint256",
          "name": "outputAmount",
          "type": "uint256"
        },
        {
          "indexed": true,
          "internalType": "uint256",
          "name": "destinationChainId",
          "type": "uint256"
        },
        {
          "indexed": true,
          "internalType": "uint32",
          "name": "depositId",
          "type": "uint32"
        },
        {
          "indexed": false,
          "internalType": "uint32",
          "name": "quoteTimestamp",
          "type": "uint32"
        },
        {
          "indexed": false,
          "internalType": "uint32",
          "name": "fillDeadline",
          "type": "uint32"
        },
        {
          "indexed": false,
          "internalType": "uint32",
          "name": "exclusivityDeadline",
          "type": "uint32"
        },
        {
          "indexed": true,
          "internalType": "address",
          "name": "depositor",
          "type": "address"
        },
        {
          "indexed": false,
          "internalType": "address",
          "name": "recipient",
          "type": "address"
        },
        {
          "indexed": false,
          "internalType": "address",
          "name": "exclusiveRelayer",
          "type": "address"
        },
        {
          "indexed": false,
          "internalType": "bytes",
          "name": "message",
          "type": "bytes"
        }
      ],
      "name": "V3FundsDeposited",
      "type": "event"
    },
    {
      "anonymous": false,
      "inputs": [
        {
          "indexed": true,
          "internalType": "address",
          "name": "recipient",
          "type": "address"
        },
        {
          "indexed": true,
          "internalType": "address",
          "name": "token",
          "type": "address"
        },
        {
          "indexed": false,
          "internalType": "uint256",
          "name": "amount",
          "type": "uint256"
        }
      ],
      "name": "YieldClaimed",
      "type": "event"
    },
    {
      "inputs": [],
      "name": "BLAST_RETRIEVER",
      "outputs": [
        {
          "internalType": "address",
          "name": "",
          "type": "address"
        }
      ],
      "stateMutability": "view",
      "type": "function"
    },
    {
      "inputs": [],
      "name": "BLAST_YIELD_CONTRACT",
      "outputs": [
        {
          "internalType": "contract IBlast",
          "name": "",
          "type": "address"
        }
      ],
      "stateMutability": "view",
      "type": "function"
    },
    {
      "inputs": [],
      "name": "EMPTY_RELAYER",
      "outputs": [
        {
          "internalType": "address",
          "name": "",
          "type": "address"
        }
      ],
      "stateMutability": "view",
      "type": "function"
    },
    {
      "inputs": [],
      "name": "EMPTY_REPAYMENT_CHAIN_ID",
      "outputs": [
        {
          "internalType": "uint256",
          "name": "",
          "type": "uint256"
        }
      ],
      "stateMutability": "view",
      "type": "function"
    },
    {
      "inputs": [],
      "name": "INFINITE_FILL_DEADLINE",
      "outputs": [
        {
          "internalType": "uint32",
          "name": "",
          "type": "uint32"
        }
      ],
      "stateMutability": "view",
      "type": "function"
    },
    {
      "inputs": [],
      "name": "L1_USDB",
      "outputs": [
        {
          "internalType": "address",
          "name": "",
          "type": "address"
        }
      ],
      "stateMutability": "view",
      "type": "function"
    },
    {
      "inputs": [],
      "name": "L2_BLAST_BRIDGE",
      "outputs": [
        {
          "internalType": "address",
          "name": "",
          "type": "address"
        }
      ],
      "stateMutability": "view",
      "type": "function"
    },
    {
      "inputs": [],
      "name": "MAX_EXCLUSIVITY_PERIOD_SECONDS",
      "outputs": [
        {
          "internalType": "uint32",
          "name": "",
          "type": "uint32"
        }
      ],
      "stateMutability": "view",
      "type": "function"
    },
    {
      "inputs": [],
      "name": "MAX_TRANSFER_SIZE",
      "outputs": [
        {
          "internalType": "uint256",
          "name": "",
          "type": "uint256"
        }
      ],
      "stateMutability": "view",
      "type": "function"
    },
    {
      "inputs": [],
      "name": "MESSENGER",
      "outputs": [
        {
          "internalType": "address",
          "name": "",
          "type": "address"
        }
      ],
      "stateMutability": "view",
      "type": "function"
    },
    {
      "inputs": [],
      "name": "UPDATE_V3_DEPOSIT_DETAILS_HASH",
      "outputs": [
        {
          "internalType": "bytes32",
          "name": "",
          "type": "bytes32"
        }
      ],
      "stateMutability": "view",
      "type": "function"
    },
    {
      "inputs": [],
      "name": "USDB",
      "outputs": [
        {
          "internalType": "address",
          "name": "",
          "type": "address"
        }
      ],
      "stateMutability": "view",
      "type": "function"
    },
    {
      "inputs": [],
      "name": "YIELD_RECIPIENT",
      "outputs": [
        {
          "internalType": "address",
          "name": "",
          "type": "address"
        }
      ],
      "stateMutability": "view",
      "type": "function"
    },
    {
      "inputs": [
        {
          "internalType": "uint32",
          "name": "_initialDepositId",
          "type": "uint32"
        },
        {
          "internalType": "address",
          "name": "_crossDomainAdmin",
          "type": "address"
        },
        {
          "internalType": "address",
          "name": "_withdrawalRecipient",
          "type": "address"
        },
        {
          "internalType": "address",
          "name": "_l2Eth",
          "type": "address"
        }
      ],
      "name": "__OvmSpokePool_init",
      "outputs": [],
      "stateMutability": "nonpayable",
      "type": "function"
    },
    {
      "inputs": [
        {
          "internalType": "uint32",
          "name": "_initialDepositId",
          "type": "uint32"
        },
        {
          "internalType": "address",
          "name": "_crossDomainAdmin",
          "type": "address"
        },
        {
          "internalType": "address",
          "name": "_withdrawalRecipient",
          "type": "address"
        }
      ],
      "name": "__SpokePool_init",
      "outputs": [],
      "stateMutability": "nonpayable",
      "type": "function"
    },
    {
      "inputs": [],
      "name": "cctpTokenMessenger",
      "outputs": [
        {
          "internalType": "contract ITokenMessenger",
          "name": "",
          "type": "address"
        }
      ],
      "stateMutability": "view",
      "type": "function"
    },
    {
      "inputs": [],
      "name": "chainId",
      "outputs": [
        {
          "internalType": "uint256",
          "name": "",
          "type": "uint256"
        }
      ],
      "stateMutability": "view",
      "type": "function"
    },
    {
      "inputs": [],
      "name": "crossDomainAdmin",
      "outputs": [
        {
          "internalType": "address",
          "name": "",
          "type": "address"
        }
      ],
      "stateMutability": "view",
      "type": "function"
    },
    {
      "inputs": [
        {
          "internalType": "address",
          "name": "recipient",
          "type": "address"
        },
        {
          "internalType": "address",
          "name": "originToken",
          "type": "address"
        },
        {
          "internalType": "uint256",
          "name": "amount",
          "type": "uint256"
        },
        {
          "internalType": "uint256",
          "name": "destinationChainId",
          "type": "uint256"
        },
        {
          "internalType": "int64",
          "name": "relayerFeePct",
          "type": "int64"
        },
        {
          "internalType": "uint32",
          "name": "quoteTimestamp",
          "type": "uint32"
        },
        {
          "internalType": "bytes",
          "name": "message",
          "type": "bytes"
        },
        {
          "internalType": "uint256",
          "name": "",
          "type": "uint256"
        }
      ],
      "name": "deposit",
      "outputs": [],
      "stateMutability": "payable",
      "type": "function"
    },
    {
      "inputs": [
        {
          "internalType": "address",
          "name": "depositor",
          "type": "address"
        },
        {
          "internalType": "address",
          "name": "recipient",
          "type": "address"
        },
        {
          "internalType": "address",
          "name": "inputToken",
          "type": "address"
        },
        {
          "internalType": "address",
          "name": "outputToken",
          "type": "address"
        },
        {
          "internalType": "uint256",
          "name": "inputAmount",
          "type": "uint256"
        },
        {
          "internalType": "uint256",
          "name": "outputAmount",
          "type": "uint256"
        },
        {
          "internalType": "uint256",
          "name": "destinationChainId",
          "type": "uint256"
        },
        {
          "internalType": "address",
          "name": "exclusiveRelayer",
          "type": "address"
        },
        {
          "internalType": "uint32",
          "name": "quoteTimestamp",
          "type": "uint32"
        },
        {
          "internalType": "uint32",
          "name": "fillDeadline",
          "type": "uint32"
        },
        {
          "internalType": "uint32",
          "name": "exclusivityPeriod",
          "type": "uint32"
        },
        {
          "internalType": "bytes",
          "name": "message",
          "type": "bytes"
        }
      ],
      "name": "depositExclusive",
      "outputs": [],
      "stateMutability": "payable",
      "type": "function"
    },
    {
      "inputs": [
        {
          "internalType": "address",
          "name": "depositor",
          "type": "address"
        },
        {
          "internalType": "address",
          "name": "recipient",
          "type": "address"
        },
        {
          "internalType": "address",
          "name": "originToken",
          "type": "address"
        },
        {
          "internalType": "uint256",
          "name": "amount",
          "type": "uint256"
        },
        {
          "internalType": "uint256",
          "name": "destinationChainId",
          "type": "uint256"
        },
        {
          "internalType": "int64",
          "name": "relayerFeePct",
          "type": "int64"
        },
        {
          "internalType": "uint32",
          "name": "quoteTimestamp",
          "type": "uint32"
        },
        {
          "internalType": "bytes",
          "name": "message",
          "type": "bytes"
        },
        {
          "internalType": "uint256",
          "name": "",
          "type": "uint256"
        }
      ],
      "name": "depositFor",
      "outputs": [],
      "stateMutability": "payable",
      "type": "function"
    },
    {
      "inputs": [],
      "name": "depositQuoteTimeBuffer",
      "outputs": [
        {
          "internalType": "uint32",
          "name": "",
          "type": "uint32"
        }
      ],
      "stateMutability": "view",
      "type": "function"
    },
    {
      "inputs": [
        {
          "internalType": "address",
          "name": "depositor",
          "type": "address"
        },
        {
          "internalType": "address",
          "name": "recipient",
          "type": "address"
        },
        {
          "internalType": "address",
          "name": "inputToken",
          "type": "address"
        },
        {
          "internalType": "address",
          "name": "outputToken",
          "type": "address"
        },
        {
          "internalType": "uint256",
          "name": "inputAmount",
          "type": "uint256"
        },
        {
          "internalType": "uint256",
          "name": "outputAmount",
          "type": "uint256"
        },
        {
          "internalType": "uint256",
          "name": "destinationChainId",
          "type": "uint256"
        },
        {
          "internalType": "address",
          "name": "exclusiveRelayer",
          "type": "address"
        },
        {
          "internalType": "uint32",
          "name": "quoteTimestamp",
          "type": "uint32"
        },
        {
          "internalType": "uint32",
          "name": "fillDeadline",
          "type": "uint32"
        },
        {
          "internalType": "uint32",
          "name": "exclusivityParameter",
          "type": "uint32"
        },
        {
          "internalType": "bytes",
          "name": "message",
          "type": "bytes"
        }
      ],
      "name": "depositV3",
      "outputs": [],
      "stateMutability": "payable",
      "type": "function"
    },
    {
      "inputs": [
        {
          "internalType": "address",
          "name": "depositor",
          "type": "address"
        },
        {
          "internalType": "address",
          "name": "recipient",
          "type": "address"
        },
        {
          "internalType": "address",
          "name": "inputToken",
          "type": "address"
        },
        {
          "internalType": "address",
          "name": "outputToken",
          "type": "address"
        },
        {
          "internalType": "uint256",
          "name": "inputAmount",
          "type": "uint256"
        },
        {
          "internalType": "uint256",
          "name": "outputAmount",
          "type": "uint256"
        },
        {
          "internalType": "uint256",
          "name": "destinationChainId",
          "type": "uint256"
        },
        {
          "internalType": "address",
          "name": "exclusiveRelayer",
          "type": "address"
        },
        {
          "internalType": "uint32",
          "name": "fillDeadlineOffset",
          "type": "uint32"
        },
        {
          "internalType": "uint32",
          "name": "exclusivityPeriod",
          "type": "uint32"
        },
        {
          "internalType": "bytes",
          "name": "message",
          "type": "bytes"
        }
      ],
      "name": "depositV3Now",
      "outputs": [],
      "stateMutability": "payable",
      "type": "function"
    },
    {
      "inputs": [
        {
          "internalType": "uint256",
          "name": "rootBundleId",
          "type": "uint256"
        }
      ],
      "name": "emergencyDeleteRootBundle",
      "outputs": [],
      "stateMutability": "nonpayable",
      "type": "function"
    },
    {
      "inputs": [
        {
          "internalType": "address",
          "name": "",
          "type": "address"
        },
        {
          "internalType": "uint256",
          "name": "",
          "type": "uint256"
        }
      ],
      "name": "enabledDepositRoutes",
      "outputs": [
        {
          "internalType": "bool",
          "name": "",
          "type": "bool"
        }
      ],
      "stateMutability": "view",
      "type": "function"
    },
    {
      "inputs": [
        {
          "internalType": "uint32",
          "name": "rootBundleId",
          "type": "uint32"
        },
        {
          "components": [
            {
              "internalType": "uint256",
              "name": "amountToReturn",
              "type": "uint256"
            },
            {
              "internalType": "uint256",
              "name": "chainId",
              "type": "uint256"
            },
            {
              "internalType": "uint256[]",
              "name": "refundAmounts",
              "type": "uint256[]"
            },
            {
              "internalType": "uint32",
              "name": "leafId",
              "type": "uint32"
            },
            {
              "internalType": "address",
              "name": "l2TokenAddress",
              "type": "address"
            },
            {
              "internalType": "address[]",
              "name": "refundAddresses",
              "type": "address[]"
            }
          ],
          "internalType": "struct SpokePoolInterface.RelayerRefundLeaf",
          "name": "relayerRefundLeaf",
          "type": "tuple"
        },
        {
          "internalType": "bytes32[]",
          "name": "proof",
          "type": "bytes32[]"
        }
      ],
      "name": "executeRelayerRefundLeaf",
      "outputs": [],
      "stateMutability": "payable",
      "type": "function"
    },
    {
      "inputs": [
        {
          "components": [
            {
              "components": [
                {
                  "internalType": "address",
                  "name": "depositor",
                  "type": "address"
                },
                {
                  "internalType": "address",
                  "name": "recipient",
                  "type": "address"
                },
                {
                  "internalType": "address",
                  "name": "exclusiveRelayer",
                  "type": "address"
                },
                {
                  "internalType": "address",
                  "name": "inputToken",
                  "type": "address"
                },
                {
                  "internalType": "address",
                  "name": "outputToken",
                  "type": "address"
                },
                {
                  "internalType": "uint256",
                  "name": "inputAmount",
                  "type": "uint256"
                },
                {
                  "internalType": "uint256",
                  "name": "outputAmount",
                  "type": "uint256"
                },
                {
                  "internalType": "uint256",
                  "name": "originChainId",
                  "type": "uint256"
                },
                {
                  "internalType": "uint32",
                  "name": "depositId",
                  "type": "uint32"
                },
                {
                  "internalType": "uint32",
                  "name": "fillDeadline",
                  "type": "uint32"
                },
                {
                  "internalType": "uint32",
                  "name": "exclusivityDeadline",
                  "type": "uint32"
                },
                {
                  "internalType": "bytes",
                  "name": "message",
                  "type": "bytes"
                }
              ],
              "internalType": "struct V3SpokePoolInterface.V3RelayData",
              "name": "relayData",
              "type": "tuple"
            },
            {
              "internalType": "uint256",
              "name": "chainId",
              "type": "uint256"
            },
            {
              "internalType": "uint256",
              "name": "updatedOutputAmount",
              "type": "uint256"
            }
          ],
          "internalType": "struct V3SpokePoolInterface.V3SlowFill",
          "name": "slowFillLeaf",
          "type": "tuple"
        },
        {
          "internalType": "uint32",
          "name": "rootBundleId",
          "type": "uint32"
        },
        {
          "internalType": "bytes32[]",
          "name": "proof",
          "type": "bytes32[]"
        }
      ],
      "name": "executeV3SlowRelayLeaf",
      "outputs": [],
      "stateMutability": "nonpayable",
      "type": "function"
    },
    {
      "inputs": [
        {
          "internalType": "bytes32",
          "name": "orderId",
          "type": "bytes32"
        },
        {
          "internalType": "bytes",
          "name": "originData",
          "type": "bytes"
        },
        {
          "internalType": "bytes",
          "name": "fillerData",
          "type": "bytes"
        }
      ],
      "name": "fill",
      "outputs": [],
      "stateMutability": "nonpayable",
      "type": "function"
    },
    {
      "inputs": [],
      "name": "fillDeadlineBuffer",
      "outputs": [
        {
          "internalType": "uint32",
          "name": "",
          "type": "uint32"
        }
      ],
      "stateMutability": "view",
      "type": "function"
    },
    {
      "inputs": [
        {
          "internalType": "bytes32",
          "name": "",
          "type": "bytes32"
        }
      ],
      "name": "fillStatuses",
      "outputs": [
        {
          "internalType": "uint256",
          "name": "",
          "type": "uint256"
        }
      ],
      "stateMutability": "view",
      "type": "function"
    },
    {
      "inputs": [
        {
          "components": [
            {
              "internalType": "address",
              "name": "depositor",
              "type": "address"
            },
            {
              "internalType": "address",
              "name": "recipient",
              "type": "address"
            },
            {
              "internalType": "address",
              "name": "exclusiveRelayer",
              "type": "address"
            },
            {
              "internalType": "address",
              "name": "inputToken",
              "type": "address"
            },
            {
              "internalType": "address",
              "name": "outputToken",
              "type": "address"
            },
            {
              "internalType": "uint256",
              "name": "inputAmount",
              "type": "uint256"
            },
            {
              "internalType": "uint256",
              "name": "outputAmount",
              "type": "uint256"
            },
            {
              "internalType": "uint256",
              "name": "originChainId",
              "type": "uint256"
            },
            {
              "internalType": "uint32",
              "name": "depositId",
              "type": "uint32"
            },
            {
              "internalType": "uint32",
              "name": "fillDeadline",
              "type": "uint32"
            },
            {
              "internalType": "uint32",
              "name": "exclusivityDeadline",
              "type": "uint32"
            },
            {
              "internalType": "bytes",
              "name": "message",
              "type": "bytes"
            }
          ],
          "internalType": "struct V3SpokePoolInterface.V3RelayData",
          "name": "relayData",
          "type": "tuple"
        },
        {
          "internalType": "uint256",
          "name": "repaymentChainId",
          "type": "uint256"
        }
      ],
      "name": "fillV3Relay",
      "outputs": [],
      "stateMutability": "nonpayable",
      "type": "function"
    },
    {
      "inputs": [
        {
          "components": [
            {
              "internalType": "address",
              "name": "depositor",
              "type": "address"
            },
            {
              "internalType": "address",
              "name": "recipient",
              "type": "address"
            },
            {
              "internalType": "address",
              "name": "exclusiveRelayer",
              "type": "address"
            },
            {
              "internalType": "address",
              "name": "inputToken",
              "type": "address"
            },
            {
              "internalType": "address",
              "name": "outputToken",
              "type": "address"
            },
            {
              "internalType": "uint256",
              "name": "inputAmount",
              "type": "uint256"
            },
            {
              "internalType": "uint256",
              "name": "outputAmount",
              "type": "uint256"
            },
            {
              "internalType": "uint256",
              "name": "originChainId",
              "type": "uint256"
            },
            {
              "internalType": "uint32",
              "name": "depositId",
              "type": "uint32"
            },
            {
              "internalType": "uint32",
              "name": "fillDeadline",
              "type": "uint32"
            },
            {
              "internalType": "uint32",
              "name": "exclusivityDeadline",
              "type": "uint32"
            },
            {
              "internalType": "bytes",
              "name": "message",
              "type": "bytes"
            }
          ],
          "internalType": "struct V3SpokePoolInterface.V3RelayData",
          "name": "relayData",
          "type": "tuple"
        },
        {
          "internalType": "uint256",
          "name": "repaymentChainId",
          "type": "uint256"
        },
        {
          "internalType": "uint256",
          "name": "updatedOutputAmount",
          "type": "uint256"
        },
        {
          "internalType": "address",
          "name": "updatedRecipient",
          "type": "address"
        },
        {
          "internalType": "bytes",
          "name": "updatedMessage",
          "type": "bytes"
        },
        {
          "internalType": "bytes",
          "name": "depositorSignature",
          "type": "bytes"
        }
      ],
      "name": "fillV3RelayWithUpdatedDeposit",
      "outputs": [],
      "stateMutability": "nonpayable",
      "type": "function"
    },
    {
      "inputs": [],
      "name": "getCurrentTime",
      "outputs": [
        {
          "internalType": "uint256",
          "name": "",
          "type": "uint256"
        }
      ],
      "stateMutability": "view",
      "type": "function"
    },
    {
      "inputs": [
        {
          "internalType": "uint32",
          "name": "_initialDepositId",
          "type": "uint32"
        },
        {
          "internalType": "address",
          "name": "_crossDomainAdmin",
          "type": "address"
        },
        {
          "internalType": "address",
          "name": "_withdrawalRecipient",
          "type": "address"
        }
      ],
      "name": "initialize",
      "outputs": [],
      "stateMutability": "nonpayable",
      "type": "function"
    },
    {
      "inputs": [],
      "name": "l1Gas",
      "outputs": [
        {
          "internalType": "uint32",
          "name": "",
          "type": "uint32"
        }
      ],
      "stateMutability": "view",
      "type": "function"
    },
    {
      "inputs": [],
      "name": "l2Eth",
      "outputs": [
        {
          "internalType": "address",
          "name": "",
          "type": "address"
        }
      ],
      "stateMutability": "view",
      "type": "function"
    },
    {
      "inputs": [
        {
          "internalType": "bytes[]",
          "name": "data",
          "type": "bytes[]"
        }
      ],
      "name": "multicall",
      "outputs": [
        {
          "internalType": "bytes[]",
          "name": "results",
          "type": "bytes[]"
        }
      ],
      "stateMutability": "nonpayable",
      "type": "function"
    },
    {
      "inputs": [],
      "name": "numberOfDeposits",
      "outputs": [
        {
          "internalType": "uint32",
          "name": "",
          "type": "uint32"
        }
      ],
      "stateMutability": "view",
      "type": "function"
    },
    {
      "inputs": [
        {
          "internalType": "bool",
          "name": "pause",
          "type": "bool"
        }
      ],
      "name": "pauseDeposits",
      "outputs": [],
      "stateMutability": "nonpayable",
      "type": "function"
    },
    {
      "inputs": [
        {
          "internalType": "bool",
          "name": "pause",
          "type": "bool"
        }
      ],
      "name": "pauseFills",
      "outputs": [],
      "stateMutability": "nonpayable",
      "type": "function"
    },
    {
      "inputs": [],
      "name": "pausedDeposits",
      "outputs": [
        {
          "internalType": "bool",
          "name": "",
          "type": "bool"
        }
      ],
      "stateMutability": "view",
      "type": "function"
    },
    {
      "inputs": [],
      "name": "pausedFills",
      "outputs": [
        {
          "internalType": "bool",
          "name": "",
          "type": "bool"
        }
      ],
      "stateMutability": "view",
      "type": "function"
    },
    {
      "inputs": [],
      "name": "proxiableUUID",
      "outputs": [
        {
          "internalType": "bytes32",
          "name": "",
          "type": "bytes32"
        }
      ],
      "stateMutability": "view",
      "type": "function"
    },
    {
      "inputs": [],
      "name": "recipientCircleDomainId",
      "outputs": [
        {
          "internalType": "uint32",
          "name": "",
          "type": "uint32"
        }
      ],
      "stateMutability": "view",
      "type": "function"
    },
    {
      "inputs": [
        {
          "internalType": "bytes32",
          "name": "relayerRefundRoot",
          "type": "bytes32"
        },
        {
          "internalType": "bytes32",
          "name": "slowRelayRoot",
          "type": "bytes32"
        }
      ],
      "name": "relayRootBundle",
      "outputs": [],
      "stateMutability": "nonpayable",
      "type": "function"
    },
    {
      "inputs": [
        {
          "internalType": "address",
          "name": "",
          "type": "address"
        }
      ],
      "name": "remoteL1Tokens",
      "outputs": [
        {
          "internalType": "address",
          "name": "",
          "type": "address"
        }
      ],
      "stateMutability": "view",
      "type": "function"
    },
    {
      "inputs": [
        {
          "components": [
            {
              "internalType": "address",
              "name": "depositor",
              "type": "address"
            },
            {
              "internalType": "address",
              "name": "recipient",
              "type": "address"
            },
            {
              "internalType": "address",
              "name": "exclusiveRelayer",
              "type": "address"
            },
            {
              "internalType": "address",
              "name": "inputToken",
              "type": "address"
            },
            {
              "internalType": "address",
              "name": "outputToken",
              "type": "address"
            },
            {
              "internalType": "uint256",
              "name": "inputAmount",
              "type": "uint256"
            },
            {
              "internalType": "uint256",
              "name": "outputAmount",
              "type": "uint256"
            },
            {
              "internalType": "uint256",
              "name": "originChainId",
              "type": "uint256"
            },
            {
              "internalType": "uint32",
              "name": "depositId",
              "type": "uint32"
            },
            {
              "internalType": "uint32",
              "name": "fillDeadline",
              "type": "uint32"
            },
            {
              "internalType": "uint32",
              "name": "exclusivityDeadline",
              "type": "uint32"
            },
            {
              "internalType": "bytes",
              "name": "message",
              "type": "bytes"
            }
          ],
          "internalType": "struct V3SpokePoolInterface.V3RelayData",
          "name": "relayData",
          "type": "tuple"
        }
      ],
      "name": "requestV3SlowFill",
      "outputs": [],
      "stateMutability": "nonpayable",
      "type": "function"
    },
    {
      "inputs": [
        {
          "internalType": "uint256",
          "name": "",
          "type": "uint256"
        }
      ],
      "name": "rootBundles",
      "outputs": [
        {
          "internalType": "bytes32",
          "name": "slowRelayRoot",
          "type": "bytes32"
        },
        {
          "internalType": "bytes32",
          "name": "relayerRefundRoot",
          "type": "bytes32"
        }
      ],
      "stateMutability": "view",
      "type": "function"
    },
    {
      "inputs": [
        {
          "internalType": "address",
          "name": "newCrossDomainAdmin",
          "type": "address"
        }
      ],
      "name": "setCrossDomainAdmin",
      "outputs": [],
      "stateMutability": "nonpayable",
      "type": "function"
    },
    {
      "inputs": [
        {
          "internalType": "address",
          "name": "originToken",
          "type": "address"
        },
        {
          "internalType": "uint256",
          "name": "destinationChainId",
          "type": "uint256"
        },
        {
          "internalType": "bool",
          "name": "enabled",
          "type": "bool"
        }
      ],
      "name": "setEnableRoute",
      "outputs": [],
      "stateMutability": "nonpayable",
      "type": "function"
    },
    {
      "inputs": [
        {
          "internalType": "uint32",
          "name": "newl1Gas",
          "type": "uint32"
        }
      ],
      "name": "setL1GasLimit",
      "outputs": [],
      "stateMutability": "nonpayable",
      "type": "function"
    },
    {
      "inputs": [
        {
          "internalType": "address",
          "name": "l2Token",
          "type": "address"
        },
        {
          "internalType": "address",
          "name": "l1Token",
          "type": "address"
        }
      ],
      "name": "setRemoteL1Token",
      "outputs": [],
      "stateMutability": "nonpayable",
      "type": "function"
    },
    {
      "inputs": [
        {
          "internalType": "address",
          "name": "l2Token",
          "type": "address"
        },
        {
          "internalType": "address",
          "name": "tokenBridge",
          "type": "address"
        }
      ],
      "name": "setTokenBridge",
      "outputs": [],
      "stateMutability": "nonpayable",
      "type": "function"
    },
    {
      "inputs": [
        {
          "internalType": "address",
          "name": "newWithdrawalRecipient",
          "type": "address"
        }
      ],
      "name": "setWithdrawalRecipient",
      "outputs": [],
      "stateMutability": "nonpayable",
      "type": "function"
    },
    {
      "inputs": [
        {
          "internalType": "address",
          "name": "depositor",
          "type": "address"
        },
        {
          "internalType": "uint32",
          "name": "depositId",
          "type": "uint32"
        },
        {
          "internalType": "uint256",
          "name": "updatedOutputAmount",
          "type": "uint256"
        },
        {
          "internalType": "address",
          "name": "updatedRecipient",
          "type": "address"
        },
        {
          "internalType": "bytes",
          "name": "updatedMessage",
          "type": "bytes"
        },
        {
          "internalType": "bytes",
          "name": "depositorSignature",
          "type": "bytes"
        }
      ],
      "name": "speedUpV3Deposit",
      "outputs": [],
      "stateMutability": "nonpayable",
      "type": "function"
    },
    {
      "inputs": [
        {
          "internalType": "address",
          "name": "",
          "type": "address"
        }
      ],
      "name": "tokenBridges",
      "outputs": [
        {
          "internalType": "address",
          "name": "",
          "type": "address"
        }
      ],
      "stateMutability": "view",
      "type": "function"
    },
    {
      "inputs": [
        {
          "internalType": "bytes[]",
          "name": "data",
          "type": "bytes[]"
        }
      ],
      "name": "tryMulticall",
      "outputs": [
        {
          "components": [
            {
              "internalType": "bool",
              "name": "success",
              "type": "bool"
            },
            {
              "internalType": "bytes",
              "name": "returnData",
              "type": "bytes"
            }
          ],
          "internalType": "struct MultiCallerUpgradeable.Result[]",
          "name": "results",
          "type": "tuple[]"
        }
      ],
      "stateMutability": "nonpayable",
      "type": "function"
    },
    {
      "inputs": [
        {
          "internalType": "address",
          "name": "newImplementation",
          "type": "address"
        }
      ],
      "name": "upgradeTo",
      "outputs": [],
      "stateMutability": "nonpayable",
      "type": "function"
    },
    {
      "inputs": [
        {
          "internalType": "address",
          "name": "newImplementation",
          "type": "address"
        },
        {
          "internalType": "bytes",
          "name": "data",
          "type": "bytes"
        }
      ],
      "name": "upgradeToAndCall",
      "outputs": [],
      "stateMutability": "payable",
      "type": "function"
    },
    {
      "inputs": [],
      "name": "usdcToken",
      "outputs": [
        {
          "internalType": "contract IERC20",
          "name": "",
          "type": "address"
        }
      ],
      "stateMutability": "view",
      "type": "function"
    },
    {
      "inputs": [],
      "name": "withdrawalRecipient",
      "outputs": [
        {
          "internalType": "address",
          "name": "",
          "type": "address"
        }
      ],
      "stateMutability": "view",
      "type": "function"
    },
    {
      "inputs": [],
      "name": "wrappedNativeToken",
      "outputs": [
        {
          "internalType": "contract WETH9Interface",
          "name": "",
          "type": "address"
        }
      ],
      "stateMutability": "view",
      "type": "function"
    },
    {
      "stateMutability": "payable",
      "type": "receive"
    }
  ],
  "numDeployments": 5,
  "solcInputHash": "4e83ff7c98640c889e2f767bc9e6c9c0",
  "bytecode": "0x6101e0346200028c5762005bb538819003601f8101601f191683016001600160401b038111848210176200029057839282916040528339610120918291810103126200028c576200005082620002a4565b6200005e60208401620002b9565b6200006c60408501620002b9565b60608501516001600160a01b0392919083811681036200028c5760808701519084821682036200028c57620000a460a08901620002a4565b92620000b360c08a01620002a4565b94620000c260e08b01620002a4565b96620000d3610100809c01620002a4565b98306080521660a05260c05260e0525f5460ff8160081c166200028c5760ff8082160362000251575b5086526101409081525f87526101609182526101809283526101a09384526101c0948552604051956158e99788620002cc8939608051888181610d58015281816113f401526115b1015260a05188818161081701528181611b9c015281816130520152818161320a0152818161396d01528181613ad1015281816140cd015281816143a101528181614a5501528181614a9801528181614abf01528181614f170152615141015260c0518881816116b201528181611b4a015281816131ba01526138ff015260e05188818161042e01528181611d44015261332501525187818161182101526156a80152518681816107ba0152818161547a01526155a2015251858181611fec0152818161524f01526155ce015251848181610d0c015281816130070152614922015251838181611913015261499e0152518281816114fe0152614eb401525181818161291b01526149c60152f35b60ff90811916175f557f7f26b83ff96e1f2b6a682f133852f6798a09c465da95921460cefb3847402498602060405160ff8152a15f620000fc565b5f80fd5b634e487b7160e01b5f52604160045260245ffd5b51906001600160a01b03821682036200028c57565b519063ffffffff821682036200028c5756fe6080604052600436101561001a575b3615610018575f80fd5b005b5f3560e01c8063079bd2c7146103ff5780630c5d5f73146103fa5780630eaac9f0146103f55780631186ec33146103f057806311eac855146103eb57806315348e441461037357806317fcb39b146103e65780631abeb4d7146103e15780631b3d5559146103dc578063272751c7146103d757806329cb924d146103d25780632cfc26c5146103cd5780632e378115146103c857806331a0edec146103c35780633659cfe6146103be578063431023b8146103b9578063437b9116146103b4578063490e49ef146103af578063493a4f84146103aa5780634e0fb8f5146103a55780634f1ef286146103a0578063524633cc1461039b5780635249fef1146103965780635285e0581461039157806352d1902d1461038c578063541f4f141461038757806357f6dcb8146103825780636068d6cb1461037d578063647c576c146103785780636bbbcd2e146103735780636e4009831461036e578063738b62e5146103695780637419ffe814610364578063766e07031461035f5780637aef642c1461035a5780637b9392321461032357806382e2c43f146103555780638a7860ce14610350578063927ede2d1461034b5780639748cf7c14610346578063979f2bc2146103415780639963e5a81461033c57806399cc2968146103375780639a8a059214610332578063a1244c671461032d578063ac9650d814610328578063add051a314610323578063b27a43001461031e578063b370b7f514610319578063bbca7db014610314578063bf10268d1461030f578063c35c83fc1461030a578063ccfa597114610305578063ceb4c98714610300578063dda52113146102fb578063ddd224f1146102f6578063de7eba78146102f1578063e3229211146102ec578063ee2a53f8146102e7578063f083d9b7146102e2578063f8c62274146102dd578063fbbba9ac146102d85763fc8a584f0361000e576129f1565b61296d565b61293f565b6128fc565b6128be565b612842565b612812565b6127e9565b6127c3565b6127a5565b612722565b6126f7565b612673565b612532565b61250b565b6124cc565b611aa0565b61242c565b6123a2565b612388565b6122da565b6120de565b612010565b611fcd565b611f9f565b611f27565b611dc5565b61195b565b611937565b6118f4565b611845565b611805565b6107de565b61172e565b6116d6565b611696565b611601565b611597565b611570565b611522565b6114df565b6113b1565b611297565b6111e2565b6111c4565b6110f7565b610e62565b610d30565b610ced565b610b98565b610b4f565b610b35565b610a96565b6109b4565b61083b565b6107f8565b61079b565b6106e2565b6104c8565b610470565b610412565b5f91031261040e57565b5f80fd5b3461040e575f36600319011261040e57602060405163ffffffff7f0000000000000000000000000000000000000000000000000000000000000000168152f35b6001600160a01b0381160361040e57565b359061046e82610452565b565b3461040e57602036600319011261040e57602060043561048f81610452565b6001600160a01b038091165f52610c5d825260405f205416604051908152f35b63ffffffff81160361040e57565b359061046e826104af565b3461040e57602036600319011261040e5763ffffffff6004356104ea816104af565b6104f26136e4565b6104fa6137f6565b16610c5a8163ffffffff198254161790557fe486a5c4bd7b36eabbfe274c99b39130277417be8d2209b4dae04c4fba64ee3a5f80a26001606555005b634e487b7160e01b5f52604160045260245ffd5b6040810190811067ffffffffffffffff82111761056657604052565b610536565b67ffffffffffffffff811161056657604052565b6060810190811067ffffffffffffffff82111761056657604052565b6020810190811067ffffffffffffffff82111761056657604052565b60e0810190811067ffffffffffffffff82111761056657604052565b60a0810190811067ffffffffffffffff82111761056657604052565b90601f8019910116810190811067ffffffffffffffff82111761056657604052565b6040519060c0820182811067ffffffffffffffff82111761056657604052565b60405190610180820182811067ffffffffffffffff82111761056657604052565b604051906080820182811067ffffffffffffffff82111761056657604052565b67ffffffffffffffff811161056657601f01601f191660200190565b92919261069a82610672565b916106a860405193846105ef565b82948184528183011161040e578281602093845f960137010152565b9080601f8301121561040e578160206106df9335910161068e565b90565b61010036600319011261040e576004356106fb81610452565b60243561070781610452565b6084358060070b810361040e5760a43590610721826104af565b60c43567ffffffffffffffff811161040e576107419036906004016106c4565b9261074a6137f6565b60ff61086b5460e81c166107715761076a94606435916044359133613872565b6001606555005b60046040517f5a65d188000000000000000000000000000000000000000000000000000000008152fd5b3461040e575f36600319011261040e5760206040516001600160a01b037f0000000000000000000000000000000000000000000000000000000000000000168152f35b3461040e575f36600319011261040e5760206040515f8152f35b3461040e575f36600319011261040e5760206040516001600160a01b037f0000000000000000000000000000000000000000000000000000000000000000168152f35b3461040e575f36600319011261040e5760206040517343000000000000000000000000000000000000028152f35b67ffffffffffffffff81116105665760051b60200190565b9080601f8301121561040e57602090823561089b81610869565b936108a960405195866105ef565b81855260208086019260051b82010192831161040e57602001905b8282106108d2575050505090565b813581529083019083016108c4565b9080601f8301121561040e5760209082356108fb81610869565b9361090960405195866105ef565b81855260208086019260051b82010192831161040e57602001905b828210610932575050505090565b838091833561094081610452565b815201910190610924565b929161095682610869565b9161096460405193846105ef565b829481845260208094019160051b810192831161040e57905b82821061098a5750505050565b8135815290830190830161097d565b9080601f8301121561040e578160206106df9335910161094b565b60031960603682011261040e576004356109cd816104af565b60243567ffffffffffffffff9283821161040e5760c090823603011261040e576109f5610611565b908060040135825260248101356020830152604481013584811161040e57610a239060043691840101610881565b6040830152610a34606482016104bd565b6060830152610a4560848201610463565b608083015260a48101359084821161040e576004610a6692369201016108e1565b60a082015260443592831161040e57610a86610018933690600401610999565b91612a21565b8015150361040e57565b3461040e57606036600319011261040e57600435610ab381610452565b602435907f0a21fdd43d0ad0c62689ee7230a47309a050755bcc52eba00310add65297692a60206001600160a01b0360443593610aef85610a8c565b610af76136e4565b610aff6137f6565b1692835f5261086d825260405f20855f52825260405f209015159060ff1981541660ff8316179055604051908152a36001606555005b3461040e575f36600319011261040e576020604051428152f35b3461040e575f36600319011261040e5760206040517f152eb71524aef34d838ab76573c14b1ebfa5e385d9ab29d7cf5398daa2438bd98152f35b908161018091031261040e5790565b3461040e57604036600319011261040e5760043567ffffffffffffffff811161040e57610bc9903690600401610b89565b610bd16137f6565b60ff61086b5460e01c16610cdc57610bec6101408201612c18565b63ffffffff8042169116101580610cbe575b610c9457610c8a90610c76610c1b610c163684612c2c565b613d9a565b9160c0610c6f610c2d60208401612c22565b610c3b610160850185612d0c565b939094610c46610611565b97610c513683612c2c565b89526020890152013560408701526001600160a01b03166060860152565b369161068e565b608082015260243560a08201523390613ed3565b6100186001606555565b60046040517fc3a9b9d0000000000000000000000000000000000000000000000000000000008152fd5b50610ccb60408201612c22565b6001600160a01b0316331415610bfe565b6004604051633d90fc5560e11b8152fd5b3461040e575f36600319011261040e5760206040516001600160a01b037f0000000000000000000000000000000000000000000000000000000000000000168152f35b3461040e57602036600319011261040e57600435610d4d81610452565b6001600160a01b03807f00000000000000000000000000000000000000000000000000000000000000001680301461040e577f360894a13ba1a3210667c828492db98dca3e2076cc3735a920a3ca505d382bbc90828254160361040e57610db26136e4565b60405191610dbf8361059b565b5f83527f4910fdfa16fed3260ed0e7147f7cc6da11a60208b5b9406d12a635614ffd91435460ff1615610df85750505061001890614c57565b6020600491604051928380926352d1902d60e01b825288165afa5f9181610e31575b50610e23575f80fd5b0361040e5761001891614b3e565b610e5491925060203d602011610e5b575b610e4c81836105ef565b810190612eed565b905f610e1a565b503d610e42565b3461040e57608036600319011261040e57600435610e7f816104af565b60243590610e8c82610452565b604435610e9881610452565b60643591610ea583610452565b60ff5f5460081c161561040e57610eec90610c5a624c4b4063ffffffff1982541617905561086b9063ffffffff60c01b1963ffffffff60c01b83549260c01b169116179055565b60405190610ef98261054a565b6009825260208201916820a1a927a9a996ab1960b91b8352640312e302e360dc1b6020604051610f288161054a565b60058152015260ff5f5460081c161561040e5761001894610f8d93610f889251902061047f557f06c015bd22b4c69690933c1058878ebdfef31f9aaae40bbe86d8a09fe1b2972c61048055610f7b614618565b610f83614627565b61463b565b6146ad565b610c5a907fffffffffffffffff0000000000000000000000000000000000000000ffffffff77ffffffffffffffffffffffffffffffffffffffff0000000083549260201b169116179055565b9181601f8401121561040e5782359167ffffffffffffffff831161040e576020808501948460051b01011161040e57565b602060031982011261040e576004359067ffffffffffffffff821161040e5761103591600401610fd9565b9091565b5f5b83811061104a5750505f910152565b818101518382015260200161103b565b9060209161107381518092818552858086019101611039565b601f01601f1916010190565b6020808201908083528351809252604092604081018260408560051b8401019601945f925b8584106110b5575050505050505090565b9091929394959685806110e6600193603f1986820301885286838d518051151584520151918185820152019061105a565b9901940194019295949391906110a4565b3461040e576111053661100a565b61110e81610869565b91604061111e60405194856105ef565b828452601f1961112d84610869565b015f5b8181106111a15750505f5b8381106111545760405180611150878261107f565b0390f35b8061119b61116460019388612e5b565b515f80611172858a8a612e6f565b90611181895180938193612e86565b0390305af49061118f612e93565b60208201529015159052565b0161113b565b60209083516111af8161054a565b5f815282606081830152828901015201611130565b3461040e575f36600319011261040e5760206040516301e133808152f35b3461040e57604036600319011261040e576024356004356112016136e4565b6112096137f6565b61086c8054680100000000000000008110156105665763ffffffff91600182019055836112358261287f565b5084600182015555167fc86ba04c55bc5eb2f2876b91c438849a296dbec7b08751c3074d92e04f0a77af5f80a46001606555005b9181601f8401121561040e5782359167ffffffffffffffff831161040e576020838186019501011161040e57565b3461040e5760c036600319011261040e576004356112b481610452565b602435906112c1826104af565b6044356064356112d081610452565b67ffffffffffffffff9160843583811161040e576112f2903690600401611269565b93909460a43591821161040e5761139563ffffffff7fb0a29aed3d389a1041194255878b423f7780be3ed2324d4693508c6ff189845e9661133a6113a7953690600401611269565b9390996113456137f6565b61136c8c8c8b8b61136361135a368a8961068e565b938b369161068e565b9346908c61449d565b6001600160a01b0392836040519a8b9a8b521660208a0152608060408a01526080890191612ec2565b93868503606088015216981696612ec2565b0390a36001606555005b604036600319011261040e576004356113c981610452565b60243567ffffffffffffffff811161040e576113e99036906004016106c4565b6001600160a01b03807f0000000000000000000000000000000000000000000000000000000000000000169081301461040e577f360894a13ba1a3210667c828492db98dca3e2076cc3735a920a3ca505d382bbc91818354160361040e5761144f6136e4565b7f4910fdfa16fed3260ed0e7147f7cc6da11a60208b5b9406d12a635614ffd91435460ff16156114855750505061001890614c57565b6020600491604051928380926352d1902d60e01b825288165afa5f91816114be575b506114b0575f80fd5b0361040e5761001891614c06565b6114d891925060203d602011610e5b57610e4c81836105ef565b905f6114a7565b3461040e575f36600319011261040e5760206040516001600160a01b037f0000000000000000000000000000000000000000000000000000000000000000168152f35b3461040e57604036600319011261040e576001600160a01b0360043561154781610452565b165f5261086d60205260405f206024355f52602052602060ff60405f2054166040519015158152f35b3461040e575f36600319011261040e5760206001600160a01b036108695416604051908152f35b3461040e575f36600319011261040e576001600160a01b037f000000000000000000000000000000000000000000000000000000000000000016300361040e5760206040517f360894a13ba1a3210667c828492db98dca3e2076cc3735a920a3ca505d382bbc8152f35b61012036600319011261040e5760043561161a81610452565b6024359061162782610452565b6044359161163483610452565b60a4358060070b810361040e5760c4359161164e836104af565b60e43567ffffffffffffffff811161040e5761166e9036906004016106c4565b936116776137f6565b60ff61086b5460e81c166107715761076a956084359260643592613872565b3461040e575f36600319011261040e57602060405163ffffffff7f0000000000000000000000000000000000000000000000000000000000000000168152f35b3461040e575f36600319011261040e57602060ff61086b5460e81c166040519015158152f35b606090600319011261040e57600435611714816104af565b9060243561172181610452565b906044356106df81610452565b3461040e5761173c366116fc565b5f54600881901c60ff16159392908490816117f7575b81156117d7575b501561040e5761177d9284611774600160ff195f5416175f55565b6117c057612f1f565b61178357005b61179161ff00195f54165f55565b604051600181527f7f26b83ff96e1f2b6a682f133852f6798a09c465da95921460cefb384740249890602090a1005b6117d261010061ff00195f5416175f55565b612f1f565b303b159150816117e9575b505f611759565b6001915060ff16145f6117e2565b600160ff8216109150611752565b3461040e575f36600319011261040e57602060405163ffffffff7f0000000000000000000000000000000000000000000000000000000000000000168152f35b3461040e57602036600319011261040e577fe88463c2f254e2b070013a2dc7ee1e099f9bc00534cbdf03af551dc26ae49219602060043561188581610a8c565b61188d6136e4565b6118956137f6565b151561086b80547fffff00ffffffffffffffffffffffffffffffffffffffffffffffffffffffffff7dff00000000000000000000000000000000000000000000000000000000008460e81b169116179055604051908152a16001606555005b3461040e575f36600319011261040e5760206040516001600160a01b037f0000000000000000000000000000000000000000000000000000000000000000168152f35b3461040e575f36600319011261040e57602063ffffffff610c5a5416604051908152f35b61016036600319011261040e5760043561197481610452565b6024359061198182610452565b60443561198d81610452565b6064359061199a82610452565b60e4356119a681610452565b61010435906119b4826104af565b61012435926119c2846104af565b610144359667ffffffffffffffff881161040e576119e7610018983690600401611269565b97909660c4359360a435936084359361310f565b9061018060031983011261040e57600435611a1581610452565b91602435611a2281610452565b91604435611a2f81610452565b91606435611a3c81610452565b916084359160a4359160c4359160e435611a5581610452565b9161010435611a63816104af565b9161012435611a71816104af565b9161014435611a7f816104af565b91610164359067ffffffffffffffff821161040e5761103591600401611269565b611aa9366119fb565b959996919a92909493611abe9c98999c6137f6565b61086b549260ff8460e81c166107715763ffffffff809460c01c169c611ae38e613352565b611b0a9061086b9063ffffffff60c01b1963ffffffff60c01b83549260c01b169116179055565b8c611b278b6001600160a01b03165f5261086d60205260405f2090565b5f918252602052604090205460ff1615611d9b57611b4785841642613807565b857f00000000000000000000000000000000000000000000000000000000000000001610611d7157848416428110908115611d3c575b50611d1257809480821680611cad575b5050506001600160a01b039a8b7f0000000000000000000000000000000000000000000000000000000000000000168c8b1681811480611ca4575b15611c8a5750813403611c6057803b1561040e575f60049160405192838092630d0e30db60e41b825234905af18015611c5b57611c42575b505b6040519b8c9b169e611c149a8c6145b0565b037fa123dc29aebf7d0c3322c8eeb5b999e859f39937950ed31056532713d0de396f91a46100186001606555565b80611c4f611c559261056b565b80610404565b5f611c00565b612ee2565b60046040517f6452a35d000000000000000000000000000000000000000000000000000000008152fd5b905034611c605781611c9f91309033906147d3565b611c02565b50341515611bc8565b6301e133801015611cfc575b50506001600160a01b03861615611cd2575f8080611b8d565b60046040517f495d907f000000000000000000000000000000000000000000000000000000008152fd5b611d0a9295504216906130f2565b925f80611cb9565b60046040517f582e3889000000000000000000000000000000000000000000000000000000008152fd5b9050611d6a867f000000000000000000000000000000000000000000000000000000000000000016426145a3565b105f611b7d565b60046040517ff722177f000000000000000000000000000000000000000000000000000000008152fd5b60046040517f2a58c4f3000000000000000000000000000000000000000000000000000000008152fd5b3461040e57606036600319011261040e5767ffffffffffffffff60243581811161040e57611df7903690600401611269565b9160443590811161040e57611e10903690600401611269565b9060405193602085019480611e274684888a613367565b0395611e3b601f19978881018452836105ef565b6004359151902003611efd575f94611e6a611ea293611e6187611eae958a990190613384565b958101906133aa565b5160405193849160208301967f2e378115000000000000000000000000000000000000000000000000000000008852602484016134a5565b039081018352826105ef565b5190305af4611ebb612e93565b9015611ec357005b611ef9906040519182917fb8fe37a7000000000000000000000000000000000000000000000000000000008352600483016134bc565b0390fd5b60046040517f1e191e8e000000000000000000000000000000000000000000000000000000008152fd5b3461040e57602036600319011261040e57600435611f436136e4565b611f4b6137f6565b611f548161287f565b611f8c576001815f80935501557f3569b846531b754c99cb80df3f49cd72fa6fe106aaee5ab8e0caf35a9d7ce88d5f80a26001606555005b634e487b7160e01b5f525f60045260245ffd5b3461040e575f36600319011261040e5760206040517342000000000000000000000000000000000000078152f35b3461040e575f36600319011261040e5760206040516001600160a01b037f0000000000000000000000000000000000000000000000000000000000000000168152f35b3461040e5761201e366116fc565b909160ff5f5460081c161561040e576120549061086b9063ffffffff60c01b1963ffffffff60c01b83549260c01b169116179055565b6040516120608161054a565b6009815260208101926820a1a927a9a996ab1960b91b8452640312e302e360dc1b602060405161208f8161054a565b60058152015260ff5f5460081c161561040e5761001893610f889251902061047f557f06c015bd22b4c69690933c1058878ebdfef31f9aaae40bbe86d8a09fe1b2972c61048055610f7b614618565b3461040e57602036600319011261040e576004803567ffffffffffffffff811161040e5761210f9036908301610b89565b6121176137f6565b60ff61086b5460e01c166122ca5763ffffffff80421661014083019361214f8261214087612c18565b63ffffffff9182169116101590565b6122a2576101208401918361216384612c18565b161061229357612176610c163686612c2c565b9061218a825f5261087260205260405f2090565b5461226b5750906121cf6121c97f923794976d026d6b119735adc163cb71decfc903e17c3dc226c00789593c04e194935f5261087260205260405f2090565b60019055565b61225e6121de60608601612c22565b956121eb60808701612c22565b9561220b6122056121ff6101008401612c18565b95612c18565b92612c18565b61221760408301612c22565b61222083612c22565b9061222d60208501612c22565b9261223c610160860186612d0c565b9690956040519a8b9a169d60e08201359d60a060c0840135930135918c6134cd565b0390a36100186001606555565b6040517f012f9e44000000000000000000000000000000000000000000000000000000008152fd5b60405163d642b7d960e01b8152fd5b6040517f09deb9ec000000000000000000000000000000000000000000000000000000008152fd5b50604051633d90fc5560e11b8152fd5b3461040e57602036600319011261040e577f2d5b62420992e5a4afce0e77742636ca2608ef58289fd2e1baa5161ef6e7e41e602060043561231a81610a8c565b6123226136e4565b61232a6137f6565b151561086b80547fffffff00ffffffffffffffffffffffffffffffffffffffffffffffffffffffff7cff000000000000000000000000000000000000000000000000000000008460e01b169116179055604051908152a16001606555005b3461040e575f36600319011261040e576020604051468152f35b3461040e575f36600319011261040e57602063ffffffff61086b5460c01c16604051908152f35b6020808201906020835283518092526040830192602060408460051b8301019501935f915b8483106123fe5750505050505090565b909192939495848061241c600193603f198682030187528a5161105a565b98019301930191949392906123ee565b3461040e5761243a3661100a565b9061244482613535565b915f5b81811061245c576040518061115086826123c9565b5f80612469838587612e6f565b9061247960405180938193612e86565b0390305af4612486612e93565b90156124ac579060019161249a8287612e5b565b526124a58186612e5b565b5001612447565b604481511061040e5780600461040e92015160248091830101910161357e565b3461040e57602036600319011261040e5760206004356124eb81610452565b6001600160a01b038091165f52610c5c825260405f205416604051908152f35b3461040e575f36600319011261040e5760206001600160a01b0361086a5416604051908152f35b3461040e5760031960603682011261040e5760043567ffffffffffffffff80821161040e5760608236039384011261040e5760243590612571826104af565b60443590811161040e57612589903690600401610fd9565b9190936125946137f6565b600484013590610182190181121561040e57610c8a94612649936125c16126429360043691890101612c2c565b956125de6125d960808901516001600160a01b031690565b613ac7565b6126306125ea88613d9a565b91604461260160208b01516001600160a01b031690565b916101608b015194612611610611565b9b8c5260208c0152013560408a01526001600160a01b03166060890152565b60808701525f60a0870152369161094b565b908361471f565b6141e2565b604090600319011261040e5760043561266681610452565b906024356106df81610452565b3461040e576126813661264e565b9061268a6136e4565b6126926137f6565b6001600160a01b0380911691825f52610c5d6020526126ca8160405f20906001600160a01b03166001600160a01b0319825416179055565b16907fcb84c2022106a6f2b6f805d446f32fbfd2a528474364fa755f37dac1c0c1b6c85f80a36001606555005b3461040e57602036600319011261040e576004355f52610872602052602060405f2054604051908152f35b3461040e5760c036600319011261040e5767ffffffffffffffff60043581811161040e57612754903690600401610b89565b6064359061276182610452565b60843583811161040e57612779903690600401611269565b9060a43594851161040e57612795610018953690600401611269565b94909360443590602435906135dd565b3461040e575f36600319011261040e57602060405163ffffffff8152f35b3461040e575f36600319011261040e57602060ff61086b5460e01c166040519015158152f35b3461040e575f36600319011261040e5760206040516ec097ce7bc90715b34b9f10000000008152f35b3461040e57602036600319011261040e5761076a60043561283281610452565b61283a6136e4565b610f836137f6565b3461040e575f36600319011261040e576020610c5a546001600160a01b0360405191831c168152f35b634e487b7160e01b5f52603260045260245ffd5b61086c9081548110156128b9576003915f52027f71cd7344f4eb2efc8e30291f6dbdb44d618ca368ea5425d217c1d604bf26b84d01905f90565b61286b565b3461040e57602036600319011261040e5760043561086c5481101561040e576128e860409161287f565b506001815491015482519182526020820152f35b3461040e575f36600319011261040e5760206040516001600160a01b037f0000000000000000000000000000000000000000000000000000000000000000168152f35b3461040e575f36600319011261040e5760206040517343000000000000000000000000000000000000058152f35b3461040e5761297b3661264e565b906129846136e4565b61298c6137f6565b6001600160a01b0380911691825f52610c5c6020526129c48160405f20906001600160a01b03166001600160a01b0319825416179055565b16907ff3dc137d2246f9b8abd0bb821e185ba01122c9b3ea3745ffca6208037674d6705f80a36001606555005b3461040e57602036600319011261040e5761076a600435612a1181610452565b612a196136e4565b610f886137f6565b91612a2a6137f6565b6080820191612a436125d984516001600160a01b031690565b602081019182514603612b4857612a6b612a6f91836001612a638961287f565b500154613b75565b1590565b612b37578060607ff8bd640004bcec1b89657020f561d0b070cbdf662d0b158db9dccb0a8301bfab920193612ab1612aab865163ffffffff1690565b87613c35565b612b2a845194612b0f612b01855195612af160408201998a51612ad88d5163ffffffff1690565b89516001600160a01b03169160a086019b8c5194613ca2565b5192519751985163ffffffff1690565b93516001600160a01b031690565b935163ffffffff9485604051968796169a1698339386612b72565b0390a461046e6001606555565b600460405163582f497d60e11b8152fd5b60046040517f7a47c9a2000000000000000000000000000000000000000000000000000000008152fd5b95949392919060a0870190875260209060a08289015282518091528160c089019301905f5b818110612c04575050506001600160a01b03809316604088015286820360608801528080855193848152019401925f905b838210612beb57505050505090608061046e929401906001600160a01b03169052565b8451811686529482019493820193600190910190612bc8565b825185529383019391830191600101612b97565b356106df816104af565b356106df81610452565b91906101808382031261040e57612c41610631565b92612c4b81610463565b8452612c5960208201610463565b6020850152612c6a60408201610463565b6040850152612c7b60608201610463565b6060850152612c8c60808201610463565b608085015260a081013560a085015260c081013560c085015260e081013560e0850152610100612cbd8183016104bd565b90850152610120612ccf8183016104bd565b90850152610140612ce18183016104bd565b90850152610160918282013567ffffffffffffffff811161040e57612d0692016106c4565b90830152565b903590601e198136030182121561040e570180359067ffffffffffffffff821161040e5760200191813603831361040e57565b91909160ff5f5460081c161561040e57612d8990610c5a624c4b4063ffffffff1982541617905561086b9063ffffffff60c01b1963ffffffff60c01b83549260c01b169116179055565b604051612d958161054a565b6009815260208101926820a1a927a9a996ab1960b91b8452640312e302e360dc1b6020604051612dc48161054a565b60058152015260ff5f5460081c161561040e57612e1393610f889251902061047f557f06c015bd22b4c69690933c1058878ebdfef31f9aaae40bbe86d8a09fe1b2972c61048055610f7b614618565b61046e610c5a77deaddeaddeaddeaddeaddeaddeaddeaddead0000000000007fffffffffffffffff0000000000000000000000000000000000000000ffffffff825416179055565b80518210156128b95760209160051b010190565b908210156128b9576110359160051b810190612d0c565b908092918237015f815290565b3d15612ebd573d90612ea482610672565b91612eb260405193846105ef565b82523d5f602084013e565b606090565b908060209392818452848401375f828201840152601f01601f1916010190565b6040513d5f823e3d90fd5b9081602091031261040e575190565b634e487b7160e01b5f52602160045260245ffd5b60031115612f1a57565b612efc565b90612f2a9291612d3f565b734300000000000000000000000000000000000002803b1561040e576040517ff098767a0000000000000000000000000000000000000000000000000000000081525f8160048183865af18015611c5b576130cb575b50803b1561040e575f80916004604051809481937f4e606c470000000000000000000000000000000000000000000000000000000083525af18015611c5b576130b8575b506040517f1a33757d00000000000000000000000000000000000000000000000000000000808252600260048301526020916001600160a01b039183826024815f7f000000000000000000000000000000000000000000000000000000000000000088165af1918215611c5b57849261309b575b506040519081526002600482015291829060249082905f907f0000000000000000000000000000000000000000000000000000000000000000165af18015611c5b57613082575050565b8161309892903d10610e5b57610e4c81836105ef565b50565b6130b190833d8511610e5b57610e4c81836105ef565b505f613038565b80611c4f6130c59261056b565b5f612fc4565b80611c4f6130d89261056b565b5f612f80565b634e487b7160e01b5f52601160045260245ffd5b91909163ffffffff8080941691160191821161310a57565b6130de565b96929a94999397909195989963ffffffff9161312e83421691826130f2565b916131376137f6565b61086b5460ff8160e81c166107715760c01c84169c6131558e613352565b61317c9061086b9063ffffffff60c01b1963ffffffff60c01b83549260c01b169116179055565b8c6131998b6001600160a01b03165f5261086d60205260405f2090565b5f918252602052604090205460ff1615611d9b576131b78342613807565b857f00000000000000000000000000000000000000000000000000000000000000001610611d715784841642811090811561331d575b50611d125780948116806132e6575b50506001600160a01b039a8b7f0000000000000000000000000000000000000000000000000000000000000000168c8b16818114806132dd575b156132c35750813403611c6057803b1561040e575f60049160405192838092630d0e30db60e41b825234905af18015611c5b576132b0575b505b6040519b8c9b169e6132829a8c6145b0565b037fa123dc29aebf7d0c3322c8eeb5b999e859f39937950ed31056532713d0de396f91a461046e6001606555565b80611c4f6132bd9261056b565b5f61326e565b905034611c6057816132d891309033906147d3565b613270565b50341515613236565b6301e133801015613309575b506001600160a01b03861615611cd2575f806131fc565b61331691945082906130f2565b925f6132f2565b905061334b867f000000000000000000000000000000000000000000000000000000000000000016426145a3565b105f6131ed565b63ffffffff80911690811461310a5760010190565b93929160209161337f91604087526040870191612ec2565b930152565b9060208282031261040e57813567ffffffffffffffff811161040e576106df9201612c2c565b9081602091031261040e57604051906020820182811067ffffffffffffffff8211176105665760405235815290565b80516001600160a01b031682526106df91610180906020838101516001600160a01b0316908201526040838101516001600160a01b0316908201526060838101516001600160a01b0316908201526080838101516001600160a01b03169082015260a083015160a082015260c083015160c082015260e083015160e0820152613470610100808501519083019063ffffffff169052565b6101208381015163ffffffff16908201526101408381015163ffffffff1690820152816101608094015193820152019061105a565b92919061337f6020916040865260408601906133d9565b9060206106df92818152019061105a565b96909193979295946106df9b9995610140996001600160a01b0398898098818098168d521660208c015260408b015260608a015263ffffffff80921660808a01521660a08801521660c08601521660e084015216610100820152816101208201520191612ec2565b9061353f82610869565b61354c60405191826105ef565b828152809261355d601f1991610869565b01905f5b82811061356d57505050565b806060602080938501015201613561565b60208183031261040e5780519067ffffffffffffffff821161040e570181601f8201121561040e5780516135b181610672565b926135bf60405194856105ef565b8184526020828401011161040e576106df9160208085019101611039565b94909693956135ea6137f6565b60ff61086b5460e01c16610cdc576136056101408701612c18565b63ffffffff80421691161015806136c6575b610c94576136253687612c2c565b61362e90613d9a565b97613637610611565b986136423689612c2c565b8a5260208a0152604089018490526001600160a01b03851660608a015261366a36848a61068e565b60808a015260a089015261367d86612c22565b9661368b6101008801612c18565b9236906136979261068e565b9436906136a39261068e565b9460e00135906136b29661449d565b336136bc91613ed3565b61046e6001606555565b506136d360408701612c22565b6001600160a01b0316331415613617565b7342000000000000000000000000000000000000078033036137cc576020600491604051928380927f6e296e450000000000000000000000000000000000000000000000000000000082525afa908115611c5b575f9161379d575b506001600160a01b0361376a61375e610869546001600160a01b031690565b6001600160a01b031690565b91160361377357565b60046040517f36a816d9000000000000000000000000000000000000000000000000000000008152fd5b6137bf915060203d6020116137c5575b6137b781836105ef565b8101906147af565b5f61373f565b503d6137ad565b60046040517f4a74df92000000000000000000000000000000000000000000000000000000008152fd5b60026065541461040e576002606555565b9190820391821161310a57565b92936106df9695919294610140956001600160a01b0380951686525f60208701526040860152606085015263ffffffff809116608085015260a08401525f60c08401521660e08201525f61010082015281610120820152019061105a565b91959693949290926138b4612a6b6138ad886138a08b6001600160a01b03165f5261086d60205260405f2090565b905f5260205260405f2090565b5460ff1690565b611d9b5760070b936706f05b59d3b200006138ce866147c4565b1015613a9d576ec097ce7bc90715b34b9f10000000008211613a735763ffffffff936138fc858a1642613807565b857f00000000000000000000000000000000000000000000000000000000000000001610611d715761086b5460c01c63ffffffff169861396161393e8b613352565b61086b9063ffffffff60c01b1963ffffffff60c01b83549260c01b169116179055565b6001600160a01b0395867f00000000000000000000000000000000000000000000000000000000000000001694878b1686811480613a6a575b15613a2d5750803403611c6057853b1561040e575f60049660405197888092630d0e30db60e41b825234905af18015611c5b577fa123dc29aebf7d0c3322c8eeb5b999e859f39937950ed31056532713d0de396f99613a1597613a0492613a1a575b505b82614830565b91604051988998169c169a87613814565b0390a4565b80611c4f613a279261056b565b5f6139fc565b613a1596507fa123dc29aebf7d0c3322c8eeb5b999e859f39937950ed31056532713d0de396f99613a6583613a0493309033906147d3565b6139fe565b5034151561399a565b60046040517fc45b6b52000000000000000000000000000000000000000000000000000000008152fd5b60046040517fa13c425c000000000000000000000000000000000000000000000000000000008152fd5b6001600160a01b037f0000000000000000000000000000000000000000000000000000000000000000811691168114613afd5750565b47613b055750565b4790803b1561040e575f90600460405180948193630d0e30db60e41b83525af18015611c5b57156130985761046e9061056b565b9081518082526020808093019301915f5b828110613b58575050505090565b83516001600160a01b031685529381019392810192600101613b4a565b6040805160208082018181528551838501528186015160608401529285015160c0608084015280516101008401819052610120840198979692918201915f5b828110613c21575050505081613c0a6106df979860a084613be46060613c189701518387019063ffffffff169052565b60808101516001600160a01b031660c08601520151838203603f190160e0850152613b39565b03601f1981018352826105ef565b51902091614866565b83518b529981019992810192600101613bb4565b613c4060029161287f565b500162ffffff8260081c16805f5281602052600160ff60405f205494161b8080941614613c78575f5260205260405f20908154179055565b60046040517f954476d9000000000000000000000000000000000000000000000000000000008152fd5b9294939190938051825103613d70578151915f5b838110613d22575050505082613ccd575b50505050565b6001600160a01b0381613d017f828fc203220356df8f072a91681caee7d5c75095e2a95e80ed5a14b384697f719386614913565b6040805195865233602087015291169463ffffffff1693a45f808080613cc7565b80613d2f60019284612e5b565b5180613d3d575b5001613cb6565b613d6a90613d5b613d4e8488612e5b565b516001600160a01b031690565b6001600160a01b0389166148b7565b5f613d36565b60046040517fcd298b38000000000000000000000000000000000000000000000000000000008152fd5b604051613db181613c0a60208201944690866134a5565b51902090565b613dc082612f10565b52565b906001600160a01b038251168152606080613ded602085015160806020860152608085019061105a565b9360408101516040850152015191613e0483612f10565b015290565b9a97909695613e87966106df9d9b9660808e613e7698613e969e986101809d6001600160a01b03998a80921685521660208401526040830152606082015201528c60a063ffffffff8094169101521660c08c01521660e08a01526101008901906001600160a01b03169052565b6001600160a01b0316610120870152565b8061014086015284019061105a565b91610160818403910152613dc3565b906106df94936080936001600160a01b0380931684526020840152166040820152816060820152019061105a565b805191610120830190613eea825163ffffffff1690565b63ffffffff429116106141d15760208301516001613f11825f5261087260205260405f2090565b54036141ca576001905b6002613f30825f5261087260205260405f2090565b54146141a057613f49905f5261087260205260405f2090565b6002905560608501516001600160a01b031660808601516001600160a01b03169260a0870151918660c0890151948960a08301519660e082015197610100830151613f979063ffffffff1690565b9a5163ffffffff1661014084015163ffffffff16906040850151613fc1906001600160a01b031690565b928551613fd4906001600160a01b031690565b946020870151613fea906001600160a01b031690565b9661016001519760608a0151614006906001600160a01b031690565b99608081015190604001519061401a610652565b6001600160a01b03909c168c5260208c015260408b015261403e9060608b01613db7565b6040519b6001600160a01b038d9c169f63ffffffff169e61405f9b8d613e09565b037f571749edf1d5c9599318cdbc4e28a6475d65e87fd3b2ddbe1e9a8d5e7a0f0ff791a460608101516001600160a01b031691829033821480614198575b613cc757608001516001600160a01b03169260806040840151936001600160a01b03861685856001600160a01b037f00000000000000000000000000000000000000000000000000000000000000001683145f14614188575061410391309033906147d3565b61410d8584614a7d565b01519182511515908161417d575b506141265750505050565b803b1561040e57614153935f809460405196879586948593633a5be8cb60e01b8552339160048601613ea5565b03925af18015611c5b5761416a575b808080613cc7565b80611c4f6141779261056b565b5f614162565b90503b15155f61411b565b6141939233906147d3565b61410d565b50600161409d565b60046040517f8f260c60000000000000000000000000000000000000000000000000000000008152fd5b5f90613f1b565b600460405163d642b7d960e01b8152fd5b905f825161012081016141f9815163ffffffff1690565b63ffffffff429116106141d15760208501516002614220825f5261087260205260405f2090565b54146141a057614239905f5261087260205260405f2090565b6002905560608201516001600160a01b031660808301516001600160a01b03169060a08401519260c0850151918860a0810151938760e0810151956101008201516142879063ffffffff1690565b955163ffffffff1661014083015163ffffffff1660408401516001600160a01b03169184516142bc906001600160a01b031690565b9360208601516142d2906001600160a01b031690565b9561016001519660608901516142ee906001600160a01b031690565b986080810151906040015190614302610652565b6001600160a01b03909b168b5260208b015260408a0152600260608a01526040519d63ffffffff8f9c169d6143379b8d613e09565b037f571749edf1d5c9599318cdbc4e28a6475d65e87fd3b2ddbe1e9a8d5e7a0f0ff7905f94a460608401516001600160a01b0316906001600160a01b03948583169182331480614496575b61448d57608001516001600160a01b03169060408101519687818416917f00000000000000000000000000000000000000000000000000000000000000001682145f1461447657906080929187614462575b6143df915085614a7d565b015192835115159081614457575b506143fb575b505050509050565b813b156144535783614427959660405196879586948593633a5be8cb60e01b8552339160048601613ea5565b03925af18015611c5b57614440575b80808084936143f3565b80611c4f61444d9261056b565b5f614436565b8380fd5b90503b15155f6143ed565b61446f91309033906147d3565b5f886143d4565b60809291965061448890865f986148b7565b6143df565b50505050509050565b505f614382565b93926042936001600160a01b0361046e989760208151910120916040519363ffffffff60208601967f152eb71524aef34d838ab76573c14b1ebfa5e385d9ab29d7cf5398daa2438bd9885216604086015286606086015260808501521660a083015260c082015260c08152614511816105b7565b5190209061047f549061048054906040519160208301937fc2f8787176b8ac6bf7215b4adcc1e069bf4ab82d9ab1df05a57a91d425935b6e855260408401526060830152608082015260808152614567816105d3565b51902090604051917f19010000000000000000000000000000000000000000000000000000000000008352600283015260228201522090614c9a565b9190820180921161310a57565b6001600160a01b03918216815291811660208301526040820192909252606081019290925263ffffffff928316608083015292821660a0820152921660c083015291821660e0820152911661010082015261014061012082018190526106df93910191612ec2565b60ff5f5460081c161561040e57565b60ff5f5460081c161561040e576001606555565b6001600160a01b0316801561468357610869816001600160a01b03198254161790557fa9e8c42c9e7fca7f62755189a16b2f5314d43d8fb24e91ba54e6d65f9314e8495f80a2565b60046040517fba97b39d000000000000000000000000000000000000000000000000000000008152fd5b6001600160a01b031680156146f55761086a816001600160a01b03198254161790557fa73e8909f8616742d7fe701153d82666f7b7cd480552e23ebb05d358c22fd04e5f80a2565b60046040517fb6061256000000000000000000000000000000000000000000000000000000008152fd5b91612a6b906147989284516040809601519186519161473d8361057f565b8252613c18614758602084019246845289850195865261287f565b505493885192839161477d6020840196602088525160608d86015260a08501906133d9565b9151606084015251608083015203601f1981018352826105ef565b61479f5750565b6004905163582f497d60e11b8152fd5b9081602091031261040e57516106df81610452565b5f81126147ce5790565b5f0390565b909261046e93604051937f23b872dd0000000000000000000000000000000000000000000000000000000060208601526001600160a01b03809216602486015216604484015260648301526064825261482b826105d3565b614da9565b90670de0b6b3a7640000915f82840392128383128116908484139015161761310a5781810291818304149015171561310a570490565b929091905f915b84518310156148af576148808386612e5b565b51908181101561489e575f52602052600160405f205b92019161486d565b905f52602052600160405f20614896565b915092501490565b6040517fa9059cbb0000000000000000000000000000000000000000000000000000000060208201526001600160a01b039092166024830152604482019290925261046e9161482b82606481015b03601f1981018452836105ef565b906001600160a01b03808216817f000000000000000000000000000000000000000000000000000000000000000016811480928115614a51575b50614a42575b5015614a3957610c5a5463ffffffff16734300000000000000000000000000000000000005803b1561040e5760405163540abf7360e01b81526001600160a01b0393841660048201527f0000000000000000000000000000000000000000000000000000000000000000841660248201527f00000000000000000000000000000000000000000000000000000000000000009093166044840152606483019390935263ffffffff16608482015260c060a48201525f60c482018190529091829081838160e481015b03925af18015611c5b57614a2c5750565b80611c4f61046e9261056b565b61046e91615131565b614a4b90614e39565b5f614953565b90507f00000000000000000000000000000000000000000000000000000000000000001681145f61494d565b6001600160a01b0390811690813b15614abd579061046e92917f0000000000000000000000000000000000000000000000000000000000000000166148b7565b7f000000000000000000000000000000000000000000000000000000000000000016803b1561040e575f8091602460405180948193632e1a7d4d60e01b83528860048401525af18015611c5b57614b2f575b5081471061040e575f80809381935af1614b27612e93565b501561040e57565b614b389061056b565b5f614b0f565b614b4781614c57565b6001600160a01b0381167fbc7cd75a20ee27fd9adebab32041f755214dbc6bffa90cc0225b39da2e5c2d3b5f80a2815115801590614bff575b614b88575050565b5f80613098937f206661696c65640000000000000000000000000000000000000000000000000060408051614bbc8161057f565b602781527f416464726573733a206c6f772d6c6576656c2064656c65676174652063616c6c60208201520152602081519101845af4614bf9612e93565b9161580f565b505f614b80565b614c0f81614c57565b6001600160a01b0381167fbc7cd75a20ee27fd9adebab32041f755214dbc6bffa90cc0225b39da2e5c2d3b5f80a2815115801590614c4f57614b88575050565b506001614b80565b803b1561040e576001600160a01b037f360894a13ba1a3210667c828492db98dca3e2076cc3735a920a3ca505d382bbc91166001600160a01b0319825416179055565b614ca483836157de565b6005819592951015612f1a57159384614d93575b508315614cf4575b50505015614cca57565b60046040517f938a1821000000000000000000000000000000000000000000000000000000008152fd5b5f929350908291604051614d4581613c0a60208201947f1626ba7e00000000000000000000000000000000000000000000000000000000998a8752602484015260406044840152606483019061105a565b51915afa90614d52612e93565b82614d85575b82614d68575b50505f8080614cc0565b614d7d91925060208082518301019101612eed565b145f80614d5e565b915060208251101591614d58565b6001600160a01b0383811691161493505f614cb8565b905f806001600160a01b03614e009416927f5361666545524332303a206c6f772d6c6576656c2063616c6c206661696c65646020604051614de98161054a565b818152015260208151910182855af1614bf9612e93565b8051908115918215614e16575b50501561040e57565b819250906020918101031261040e5760200151614e3281610a8c565b5f80614e0d565b604080517fe12f3a61000000000000000000000000000000000000000000000000000000008152306004820152916001600160a01b03919060209083168185602481845afa948515611c5b575f95615112575b5082517faad3ec960000000000000000000000000000000000000000000000000000000081527f00000000000000000000000000000000000000000000000000000000000000006001600160a01b038116600483015260248201879052959083816044815f875af1908115611c5b575f916150f5575b508091036150bc57808291615086575b5050837f00000000000000000000000000000000000000000000000000000000000000001614614f425750505050565b81517f860043b60000000000000000000000000000000000000000000000000000000081523060048201526001600160a01b03851660248201527343000000000000000000000000000000000000029082816044815f865af1908115611c5b575f91615069575b5083517f662aa11d0000000000000000000000000000000000000000000000000000000081523060048201526001600160a01b0387166024820152918390839060449082905f905af1918215611c5b5761500b935f9361504a575b50506145a3565b918215613cc75790519182525f9216907ff3055bc8d92d9c8d2f12b45d112dd345cd2cfd17292b8d65c5642ac6f912dfd790602090a35f808080613cc7565b615061929350803d10610e5b57610e4c81836105ef565b905f80615004565b6150809150833d8511610e5b57610e4c81836105ef565b5f614fa9565b8451908152858716907ff3055bc8d92d9c8d2f12b45d112dd345cd2cfd17292b8d65c5642ac6f912dfd790602090a3805f614f12565b83517f7817528a0000000000000000000000000000000000000000000000000000000081526001600160a01b0383166004820152602490fd5b61510c9150843d8611610e5b57610e4c81836105ef565b5f614f02565b61512a919550823d8411610e5b57610e4c81836105ef565b935f614e8c565b906001600160a01b0390818116907f00000000000000000000000000000000000000000000000000000000000000008316820361524b5750803b1561040e575f6040518092632e1a7d4d60e01b825281838161519589600483019190602083019252565b03925af18015611c5b57615238575b50610c5a54916151bd61086a546001600160a01b031690565b73420000000000000000000000000000000000001090813b1561040e57604051631474f2a960e31b81526001600160a01b03602087901c90951685166004820152931660248401526044830182905263ffffffff909316606483015260a060848301525f60a483018190529192839182908160c48101614a1b565b80611c4f6152459261056b565b5f6151a4565b91807f000000000000000000000000000000000000000000000000000000000000000016151580615476575b1561529b5750505061046e9061529661086a546001600160a01b031690565b6155a0565b806152c86152bb856001600160a01b03165f52610c5c60205260405f2090565b546001600160a01b031690565b16615452577342000000000000000000000000000000000000105b169061530761375e6152bb856001600160a01b03165f52610c5d60205260405f2090565b156153cc578382615317926154a1565b6153366152bb836001600160a01b03165f52610c5d60205260405f2090565b9061534a61086a546001600160a01b031690565b9161535b610c5a5463ffffffff1690565b823b1561040e5760405163540abf7360e01b81526001600160a01b0395861660048201529185166024830152929093166044840152606483019390935263ffffffff16608482015260c060a48201525f60c482018190529091829060e490829084905af18015611c5b57614a2c5750565b50916153e161086a546001600160a01b031690565b926153f2610c5a5463ffffffff1690565b93813b1561040e575f8094614a1b60405197889687958694631474f2a960e31b8652600486019260c0949163ffffffff936001600160a01b038092168652166020850152604084015216606082015260a060808201525f60a08201520190565b6154716152bb846001600160a01b03165f52610c5c60205260405f2090565b6152e3565b50807f0000000000000000000000000000000000000000000000000000000000000000168214615277565b6040517fdd62ed3e0000000000000000000000000000000000000000000000000000000081523060048201526001600160a01b03831660248201529192602083806044810103816001600160a01b0386165afa928315611c5b575f9361555f575b50820180921161310a576040517f095ea7b30000000000000000000000000000000000000000000000000000000060208201526001600160a01b039093166024840152604483019190915261046e919061482b8260648101614905565b61557991935060203d602011610e5b57610e4c81836105ef565b915f615502565b9081602091031261040e575167ffffffffffffffff8116810361040e5790565b7f0000000000000000000000000000000000000000000000000000000000000000906001600160a01b0392837f000000000000000000000000000000000000000000000000000000000000000016916155fa8284866154a1565b604092604051937fcb75c11c0000000000000000000000000000000000000000000000000000000085526020936004908587600481875afa978815611c5b5789975f996157b7575b506040517fa56ec6320000000000000000000000000000000000000000000000000000000081526001600160a01b03918916918216600482015299909887918b9190829081602481015b0392165afa988915611c5b575f99615798575b509390951696947f000000000000000000000000000000000000000000000000000000000000000093805b6156d957505050505050505050565b61574390878111156157925787905b84517f6fd3504e00000000000000000000000000000000000000000000000000000000815284810183815263ffffffff89166020820152604081018d90526001600160a01b038c166060820152909389918591829160800190565b03815f8a5af1928315611c5b5761575f93615765575b50613807565b806156ca565b61578490893d8b1161578b575b61577c81836105ef565b810190615580565b505f615759565b503d615772565b806156e8565b6157b0919950863d8811610e5b57610e4c81836105ef565b975f61569f565b87919950886157d561568c92843d86116137c5576137b781836105ef565b9a925050615642565b9060418151145f146158065761103591602082015190606060408401519301515f1a90615838565b50505f90600290565b901561582957815115615820575090565b3b1561040e5790565b50805190811561040e57602001fd5b7f7fffffffffffffffffffffffffffffff5d576e7357a4501ddfe92f46681b20a084116158a8576020935f9360ff60809460405194855216868401526040830152606082015282805260015afa15611c5b575f516001600160a01b038116156158a057905f90565b505f90600190565b505050505f9060039056fea26469706673582212206e95265730a8a33a807328b0f489860f0c115b9cce2a3c501171f796396f71a464736f6c63430008170033"
}