{
  "address": "0x932657511225F1231251a50f8CbF523Aa30Cb36f",
  "abi": [
    {
      "inputs": [
        {
          "internalType": "address",
          "name": "_wrappedNativeTokenAddress",
          "type": "address"
        },
        {
          "internalType": "uint32",
          "name": "_depositQuoteTimeBuffer",
          "type": "uint32"
        },
        {
          "internalType": "uint32",
          "name": "_fillDeadlineBuffer",
          "type": "uint32"
        },
        {
          "internalType": "contract IERC20",
          "name": "_l2Usdc",
          "type": "address"
        },
        {
          "internalType": "contract ITokenMessenger",
          "name": "_cctpTokenMessenger",
          "type": "address"
        },
        {
          "internalType": "address",
          "name": "usdb",
          "type": "address"
        },
        {
          "internalType": "address",
          "name": "l1Usdb",
          "type": "address"
        },
        {
          "internalType": "address",
          "name": "yieldRecipient",
          "type": "address"
        },
        {
          "internalType": "address",
          "name": "blastRetriever",
          "type": "address"
        }
      ],
      "stateMutability": "nonpayable",
      "type": "constructor"
    },
    {
      "inputs": [],
      "name": "ClaimedMerkleLeaf",
      "type": "error"
    },
    {
      "inputs": [],
      "name": "DepositsArePaused",
      "type": "error"
    },
    {
      "inputs": [],
      "name": "DisabledRoute",
      "type": "error"
    },
    {
      "inputs": [],
      "name": "ExpiredFillDeadline",
      "type": "error"
    },
    {
      "inputs": [],
      "name": "FillsArePaused",
      "type": "error"
    },
    {
      "inputs": [],
      "name": "InvalidChainId",
      "type": "error"
    },
    {
      "inputs": [
        {
          "internalType": "address",
          "name": "token",
          "type": "address"
        }
      ],
      "name": "InvalidClaimedAmount",
      "type": "error"
    },
    {
      "inputs": [],
      "name": "InvalidCrossDomainAdmin",
      "type": "error"
    },
    {
      "inputs": [],
      "name": "InvalidDepositorSignature",
      "type": "error"
    },
    {
      "inputs": [],
      "name": "InvalidExclusiveRelayer",
      "type": "error"
    },
    {
      "inputs": [],
      "name": "InvalidExclusivityDeadline",
      "type": "error"
    },
    {
      "inputs": [],
      "name": "InvalidFillDeadline",
      "type": "error"
    },
    {
      "inputs": [],
      "name": "InvalidHubPool",
      "type": "error"
    },
    {
      "inputs": [],
      "name": "InvalidMerkleLeaf",
      "type": "error"
    },
    {
      "inputs": [],
      "name": "InvalidMerkleProof",
      "type": "error"
    },
    {
      "inputs": [],
      "name": "InvalidPayoutAdjustmentPct",
      "type": "error"
    },
    {
      "inputs": [],
      "name": "InvalidQuoteTimestamp",
      "type": "error"
    },
    {
      "inputs": [],
      "name": "InvalidRelayerFeePct",
      "type": "error"
    },
    {
      "inputs": [],
      "name": "InvalidSlowFillRequest",
      "type": "error"
    },
    {
      "inputs": [],
      "name": "MaxTransferSizeExceeded",
      "type": "error"
    },
    {
      "inputs": [],
      "name": "MsgValueDoesNotMatchInputAmount",
      "type": "error"
    },
    {
      "inputs": [],
      "name": "NoSlowFillsInExclusivityWindow",
      "type": "error"
    },
    {
      "inputs": [],
      "name": "NotCrossChainCall",
      "type": "error"
    },
    {
      "inputs": [],
      "name": "NotCrossDomainAdmin",
      "type": "error"
    },
    {
      "inputs": [],
      "name": "NotEOA",
      "type": "error"
    },
    {
      "inputs": [],
      "name": "NotExclusiveRelayer",
      "type": "error"
    },
    {
      "inputs": [],
      "name": "RelayFilled",
      "type": "error"
    },
    {
      "anonymous": false,
      "inputs": [
        {
          "indexed": false,
          "internalType": "address",
          "name": "previousAdmin",
          "type": "address"
        },
        {
          "indexed": false,
          "internalType": "address",
          "name": "newAdmin",
          "type": "address"
        }
      ],
      "name": "AdminChanged",
      "type": "event"
    },
    {
      "anonymous": false,
      "inputs": [
        {
          "indexed": true,
          "internalType": "address",
          "name": "beacon",
          "type": "address"
        }
      ],
      "name": "BeaconUpgraded",
      "type": "event"
    },
    {
      "anonymous": false,
      "inputs": [
        {
          "indexed": true,
          "internalType": "uint256",
          "name": "rootBundleId",
          "type": "uint256"
        }
      ],
      "name": "EmergencyDeleteRootBundle",
      "type": "event"
    },
    {
      "anonymous": false,
      "inputs": [
        {
          "indexed": true,
          "internalType": "address",
          "name": "originToken",
          "type": "address"
        },
        {
          "indexed": true,
          "internalType": "uint256",
          "name": "destinationChainId",
          "type": "uint256"
        },
        {
          "indexed": false,
          "internalType": "bool",
          "name": "enabled",
          "type": "bool"
        }
      ],
      "name": "EnabledDepositRoute",
      "type": "event"
    },
    {
      "anonymous": false,
      "inputs": [
        {
          "indexed": false,
          "internalType": "uint256",
          "name": "amountToReturn",
          "type": "uint256"
        },
        {
          "indexed": true,
          "internalType": "uint256",
          "name": "chainId",
          "type": "uint256"
        },
        {
          "indexed": false,
          "internalType": "uint256[]",
          "name": "refundAmounts",
          "type": "uint256[]"
        },
        {
          "indexed": true,
          "internalType": "uint32",
          "name": "rootBundleId",
          "type": "uint32"
        },
        {
          "indexed": true,
          "internalType": "uint32",
          "name": "leafId",
          "type": "uint32"
        },
        {
          "indexed": false,
          "internalType": "address",
          "name": "l2TokenAddress",
          "type": "address"
        },
        {
          "indexed": false,
          "internalType": "address[]",
          "name": "refundAddresses",
          "type": "address[]"
        },
        {
          "indexed": false,
          "internalType": "address",
          "name": "caller",
          "type": "address"
        }
      ],
      "name": "ExecutedRelayerRefundRoot",
      "type": "event"
    },
    {
      "anonymous": false,
      "inputs": [
        {
          "indexed": false,
          "internalType": "uint256",
          "name": "amount",
          "type": "uint256"
        },
        {
          "indexed": false,
          "internalType": "uint256",
          "name": "totalFilledAmount",
          "type": "uint256"
        },
        {
          "indexed": false,
          "internalType": "uint256",
          "name": "fillAmount",
          "type": "uint256"
        },
        {
          "indexed": false,
          "internalType": "uint256",
          "name": "repaymentChainId",
          "type": "uint256"
        },
        {
          "indexed": true,
          "internalType": "uint256",
          "name": "originChainId",
          "type": "uint256"
        },
        {
          "indexed": false,
          "internalType": "uint256",
          "name": "destinationChainId",
          "type": "uint256"
        },
        {
          "indexed": false,
          "internalType": "int64",
          "name": "relayerFeePct",
          "type": "int64"
        },
        {
          "indexed": false,
          "internalType": "int64",
          "name": "realizedLpFeePct",
          "type": "int64"
        },
        {
          "indexed": true,
          "internalType": "uint32",
          "name": "depositId",
          "type": "uint32"
        },
        {
          "indexed": false,
          "internalType": "address",
          "name": "destinationToken",
          "type": "address"
        },
        {
          "indexed": false,
          "internalType": "address",
          "name": "relayer",
          "type": "address"
        },
        {
          "indexed": true,
          "internalType": "address",
          "name": "depositor",
          "type": "address"
        },
        {
          "indexed": false,
          "internalType": "address",
          "name": "recipient",
          "type": "address"
        },
        {
          "indexed": false,
          "internalType": "bytes",
          "name": "message",
          "type": "bytes"
        },
        {
          "components": [
            {
              "internalType": "address",
              "name": "recipient",
              "type": "address"
            },
            {
              "internalType": "bytes",
              "name": "message",
              "type": "bytes"
            },
            {
              "internalType": "int64",
              "name": "relayerFeePct",
              "type": "int64"
            },
            {
              "internalType": "bool",
              "name": "isSlowRelay",
              "type": "bool"
            },
            {
              "internalType": "int256",
              "name": "payoutAdjustmentPct",
              "type": "int256"
            }
          ],
          "indexed": false,
          "internalType": "struct SpokePool.RelayExecutionInfo",
          "name": "updatableRelayData",
          "type": "tuple"
        }
      ],
      "name": "FilledRelay",
      "type": "event"
    },
    {
      "anonymous": false,
      "inputs": [
        {
          "indexed": false,
          "internalType": "address",
          "name": "inputToken",
          "type": "address"
        },
        {
          "indexed": false,
          "internalType": "address",
          "name": "outputToken",
          "type": "address"
        },
        {
          "indexed": false,
          "internalType": "uint256",
          "name": "inputAmount",
          "type": "uint256"
        },
        {
          "indexed": false,
          "internalType": "uint256",
          "name": "outputAmount",
          "type": "uint256"
        },
        {
          "indexed": false,
          "internalType": "uint256",
          "name": "repaymentChainId",
          "type": "uint256"
        },
        {
          "indexed": true,
          "internalType": "uint256",
          "name": "originChainId",
          "type": "uint256"
        },
        {
          "indexed": true,
          "internalType": "uint32",
          "name": "depositId",
          "type": "uint32"
        },
        {
          "indexed": false,
          "internalType": "uint32",
          "name": "fillDeadline",
          "type": "uint32"
        },
        {
          "indexed": false,
          "internalType": "uint32",
          "name": "exclusivityDeadline",
          "type": "uint32"
        },
        {
          "indexed": false,
          "internalType": "address",
          "name": "exclusiveRelayer",
          "type": "address"
        },
        {
          "indexed": true,
          "internalType": "address",
          "name": "relayer",
          "type": "address"
        },
        {
          "indexed": false,
          "internalType": "address",
          "name": "depositor",
          "type": "address"
        },
        {
          "indexed": false,
          "internalType": "address",
          "name": "recipient",
          "type": "address"
        },
        {
          "indexed": false,
          "internalType": "bytes",
          "name": "message",
          "type": "bytes"
        },
        {
          "components": [
            {
              "internalType": "address",
              "name": "updatedRecipient",
              "type": "address"
            },
            {
              "internalType": "bytes",
              "name": "updatedMessage",
              "type": "bytes"
            },
            {
              "internalType": "uint256",
              "name": "updatedOutputAmount",
              "type": "uint256"
            },
            {
              "internalType": "enum V3SpokePoolInterface.FillType",
              "name": "fillType",
              "type": "uint8"
            }
          ],
          "indexed": false,
          "internalType": "struct V3SpokePoolInterface.V3RelayExecutionEventInfo",
          "name": "relayExecutionInfo",
          "type": "tuple"
        }
      ],
      "name": "FilledV3Relay",
      "type": "event"
    },
    {
      "anonymous": false,
      "inputs": [
        {
          "indexed": false,
          "internalType": "uint256",
          "name": "amount",
          "type": "uint256"
        },
        {
          "indexed": false,
          "internalType": "uint256",
          "name": "originChainId",
          "type": "uint256"
        },
        {
          "indexed": true,
          "internalType": "uint256",
          "name": "destinationChainId",
          "type": "uint256"
        },
        {
          "indexed": false,
          "internalType": "int64",
          "name": "relayerFeePct",
          "type": "int64"
        },
        {
          "indexed": true,
          "internalType": "uint32",
          "name": "depositId",
          "type": "uint32"
        },
        {
          "indexed": false,
          "internalType": "uint32",
          "name": "quoteTimestamp",
          "type": "uint32"
        },
        {
          "indexed": false,
          "internalType": "address",
          "name": "originToken",
          "type": "address"
        },
        {
          "indexed": false,
          "internalType": "address",
          "name": "recipient",
          "type": "address"
        },
        {
          "indexed": true,
          "internalType": "address",
          "name": "depositor",
          "type": "address"
        },
        {
          "indexed": false,
          "internalType": "bytes",
          "name": "message",
          "type": "bytes"
        }
      ],
      "name": "FundsDeposited",
      "type": "event"
    },
    {
      "anonymous": false,
      "inputs": [
        {
          "indexed": false,
          "internalType": "uint8",
          "name": "version",
          "type": "uint8"
        }
      ],
      "name": "Initialized",
      "type": "event"
    },
    {
      "anonymous": false,
      "inputs": [
        {
          "indexed": false,
          "internalType": "bool",
          "name": "isPaused",
          "type": "bool"
        }
      ],
      "name": "PausedDeposits",
      "type": "event"
    },
    {
      "anonymous": false,
      "inputs": [
        {
          "indexed": false,
          "internalType": "bool",
          "name": "isPaused",
          "type": "bool"
        }
      ],
      "name": "PausedFills",
      "type": "event"
    },
    {
      "anonymous": false,
      "inputs": [
        {
          "indexed": true,
          "internalType": "uint32",
          "name": "rootBundleId",
          "type": "uint32"
        },
        {
          "indexed": true,
          "internalType": "bytes32",
          "name": "relayerRefundRoot",
          "type": "bytes32"
        },
        {
          "indexed": true,
          "internalType": "bytes32",
          "name": "slowRelayRoot",
          "type": "bytes32"
        }
      ],
      "name": "RelayedRootBundle",
      "type": "event"
    },
    {
      "anonymous": false,
      "inputs": [
        {
          "indexed": false,
          "internalType": "int64",
          "name": "newRelayerFeePct",
          "type": "int64"
        },
        {
          "indexed": true,
          "internalType": "uint32",
          "name": "depositId",
          "type": "uint32"
        },
        {
          "indexed": true,
          "internalType": "address",
          "name": "depositor",
          "type": "address"
        },
        {
          "indexed": false,
          "internalType": "address",
          "name": "updatedRecipient",
          "type": "address"
        },
        {
          "indexed": false,
          "internalType": "bytes",
          "name": "updatedMessage",
          "type": "bytes"
        },
        {
          "indexed": false,
          "internalType": "bytes",
          "name": "depositorSignature",
          "type": "bytes"
        }
      ],
      "name": "RequestedSpeedUpDeposit",
      "type": "event"
    },
    {
      "anonymous": false,
      "inputs": [
        {
          "indexed": false,
          "internalType": "uint256",
          "name": "updatedOutputAmount",
          "type": "uint256"
        },
        {
          "indexed": true,
          "internalType": "uint32",
          "name": "depositId",
          "type": "uint32"
        },
        {
          "indexed": true,
          "internalType": "address",
          "name": "depositor",
          "type": "address"
        },
        {
          "indexed": false,
          "internalType": "address",
          "name": "updatedRecipient",
          "type": "address"
        },
        {
          "indexed": false,
          "internalType": "bytes",
          "name": "updatedMessage",
          "type": "bytes"
        },
        {
          "indexed": false,
          "internalType": "bytes",
          "name": "depositorSignature",
          "type": "bytes"
        }
      ],
      "name": "RequestedSpeedUpV3Deposit",
      "type": "event"
    },
    {
      "anonymous": false,
      "inputs": [
        {
          "indexed": false,
          "internalType": "address",
          "name": "inputToken",
          "type": "address"
        },
        {
          "indexed": false,
          "internalType": "address",
          "name": "outputToken",
          "type": "address"
        },
        {
          "indexed": false,
          "internalType": "uint256",
          "name": "inputAmount",
          "type": "uint256"
        },
        {
          "indexed": false,
          "internalType": "uint256",
          "name": "outputAmount",
          "type": "uint256"
        },
        {
          "indexed": true,
          "internalType": "uint256",
          "name": "originChainId",
          "type": "uint256"
        },
        {
          "indexed": true,
          "internalType": "uint32",
          "name": "depositId",
          "type": "uint32"
        },
        {
          "indexed": false,
          "internalType": "uint32",
          "name": "fillDeadline",
          "type": "uint32"
        },
        {
          "indexed": false,
          "internalType": "uint32",
          "name": "exclusivityDeadline",
          "type": "uint32"
        },
        {
          "indexed": false,
          "internalType": "address",
          "name": "exclusiveRelayer",
          "type": "address"
        },
        {
          "indexed": false,
          "internalType": "address",
          "name": "depositor",
          "type": "address"
        },
        {
          "indexed": false,
          "internalType": "address",
          "name": "recipient",
          "type": "address"
        },
        {
          "indexed": false,
          "internalType": "bytes",
          "name": "message",
          "type": "bytes"
        }
      ],
      "name": "RequestedV3SlowFill",
      "type": "event"
    },
    {
      "anonymous": false,
      "inputs": [
        {
          "indexed": true,
          "internalType": "address",
          "name": "newHubPool",
          "type": "address"
        }
      ],
      "name": "SetHubPool",
      "type": "event"
    },
    {
      "anonymous": false,
      "inputs": [
        {
          "indexed": true,
          "internalType": "uint32",
          "name": "newL1Gas",
          "type": "uint32"
        }
      ],
      "name": "SetL1Gas",
      "type": "event"
    },
    {
      "anonymous": false,
      "inputs": [
        {
          "indexed": true,
          "internalType": "address",
          "name": "l2Token",
          "type": "address"
        },
        {
          "indexed": true,
          "internalType": "address",
          "name": "tokenBridge",
          "type": "address"
        }
      ],
      "name": "SetL2TokenBridge",
      "type": "event"
    },
    {
      "anonymous": false,
      "inputs": [
        {
          "indexed": true,
          "internalType": "address",
          "name": "l2Token",
          "type": "address"
        },
        {
          "indexed": true,
          "internalType": "address",
          "name": "l1Token",
          "type": "address"
        }
      ],
      "name": "SetRemoteL1Token",
      "type": "event"
    },
    {
      "anonymous": false,
      "inputs": [
        {
          "indexed": true,
          "internalType": "address",
          "name": "newAdmin",
          "type": "address"
        }
      ],
      "name": "SetXDomainAdmin",
      "type": "event"
    },
    {
      "anonymous": false,
      "inputs": [
        {
          "indexed": false,
          "internalType": "uint256",
          "name": "amountToReturn",
          "type": "uint256"
        },
        {
          "indexed": true,
          "internalType": "uint256",
          "name": "chainId",
          "type": "uint256"
        },
        {
          "indexed": true,
          "internalType": "uint32",
          "name": "leafId",
          "type": "uint32"
        },
        {
          "indexed": true,
          "internalType": "address",
          "name": "l2TokenAddress",
          "type": "address"
        },
        {
          "indexed": false,
          "internalType": "address",
          "name": "caller",
          "type": "address"
        }
      ],
      "name": "TokensBridged",
      "type": "event"
    },
    {
      "anonymous": false,
      "inputs": [
        {
          "indexed": true,
          "internalType": "address",
          "name": "implementation",
          "type": "address"
        }
      ],
      "name": "Upgraded",
      "type": "event"
    },
    {
      "anonymous": false,
      "inputs": [
        {
          "indexed": false,
          "internalType": "address",
          "name": "inputToken",
          "type": "address"
        },
        {
          "indexed": false,
          "internalType": "address",
          "name": "outputToken",
          "type": "address"
        },
        {
          "indexed": false,
          "internalType": "uint256",
          "name": "inputAmount",
          "type": "uint256"
        },
        {
          "indexed": false,
          "internalType": "uint256",
          "name": "outputAmount",
          "type": "uint256"
        },
        {
          "indexed": true,
          "internalType": "uint256",
          "name": "destinationChainId",
          "type": "uint256"
        },
        {
          "indexed": true,
          "internalType": "uint32",
          "name": "depositId",
          "type": "uint32"
        },
        {
          "indexed": false,
          "internalType": "uint32",
          "name": "quoteTimestamp",
          "type": "uint32"
        },
        {
          "indexed": false,
          "internalType": "uint32",
          "name": "fillDeadline",
          "type": "uint32"
        },
        {
          "indexed": false,
          "internalType": "uint32",
          "name": "exclusivityDeadline",
          "type": "uint32"
        },
        {
          "indexed": true,
          "internalType": "address",
          "name": "depositor",
          "type": "address"
        },
        {
          "indexed": false,
          "internalType": "address",
          "name": "recipient",
          "type": "address"
        },
        {
          "indexed": false,
          "internalType": "address",
          "name": "exclusiveRelayer",
          "type": "address"
        },
        {
          "indexed": false,
          "internalType": "bytes",
          "name": "message",
          "type": "bytes"
        }
      ],
      "name": "V3FundsDeposited",
      "type": "event"
    },
    {
      "anonymous": false,
      "inputs": [
        {
          "indexed": true,
          "internalType": "address",
          "name": "recipient",
          "type": "address"
        },
        {
          "indexed": true,
          "internalType": "address",
          "name": "token",
          "type": "address"
        },
        {
          "indexed": false,
          "internalType": "uint256",
          "name": "amount",
          "type": "uint256"
        }
      ],
      "name": "YieldClaimed",
      "type": "event"
    },
    {
      "inputs": [],
      "name": "BLAST_RETRIEVER",
      "outputs": [
        {
          "internalType": "address",
          "name": "",
          "type": "address"
        }
      ],
      "stateMutability": "view",
      "type": "function"
    },
    {
      "inputs": [],
      "name": "BLAST_YIELD_CONTRACT",
      "outputs": [
        {
          "internalType": "contract IBlast",
          "name": "",
          "type": "address"
        }
      ],
      "stateMutability": "view",
      "type": "function"
    },
    {
      "inputs": [],
      "name": "EMPTY_RELAYER",
      "outputs": [
        {
          "internalType": "address",
          "name": "",
          "type": "address"
        }
      ],
      "stateMutability": "view",
      "type": "function"
    },
    {
      "inputs": [],
      "name": "EMPTY_REPAYMENT_CHAIN_ID",
      "outputs": [
        {
          "internalType": "uint256",
          "name": "",
          "type": "uint256"
        }
      ],
      "stateMutability": "view",
      "type": "function"
    },
    {
      "inputs": [],
      "name": "INFINITE_FILL_DEADLINE",
      "outputs": [
        {
          "internalType": "uint32",
          "name": "",
          "type": "uint32"
        }
      ],
      "stateMutability": "view",
      "type": "function"
    },
    {
      "inputs": [],
      "name": "L1_USDB",
      "outputs": [
        {
          "internalType": "address",
          "name": "",
          "type": "address"
        }
      ],
      "stateMutability": "view",
      "type": "function"
    },
    {
      "inputs": [],
      "name": "L2_BLAST_BRIDGE",
      "outputs": [
        {
          "internalType": "address",
          "name": "",
          "type": "address"
        }
      ],
      "stateMutability": "view",
      "type": "function"
    },
    {
      "inputs": [],
      "name": "MAX_TRANSFER_SIZE",
      "outputs": [
        {
          "internalType": "uint256",
          "name": "",
          "type": "uint256"
        }
      ],
      "stateMutability": "view",
      "type": "function"
    },
    {
      "inputs": [],
      "name": "MESSENGER",
      "outputs": [
        {
          "internalType": "address",
          "name": "",
          "type": "address"
        }
      ],
      "stateMutability": "view",
      "type": "function"
    },
    {
      "inputs": [],
      "name": "UPDATE_V3_DEPOSIT_DETAILS_HASH",
      "outputs": [
        {
          "internalType": "bytes32",
          "name": "",
          "type": "bytes32"
        }
      ],
      "stateMutability": "view",
      "type": "function"
    },
    {
      "inputs": [],
      "name": "USDB",
      "outputs": [
        {
          "internalType": "address",
          "name": "",
          "type": "address"
        }
      ],
      "stateMutability": "view",
      "type": "function"
    },
    {
      "inputs": [],
      "name": "YIELD_RECIPIENT",
      "outputs": [
        {
          "internalType": "address",
          "name": "",
          "type": "address"
        }
      ],
      "stateMutability": "view",
      "type": "function"
    },
    {
      "inputs": [
        {
          "internalType": "uint32",
          "name": "_initialDepositId",
          "type": "uint32"
        },
        {
          "internalType": "address",
          "name": "_crossDomainAdmin",
          "type": "address"
        },
        {
          "internalType": "address",
          "name": "_hubPool",
          "type": "address"
        },
        {
          "internalType": "address",
          "name": "_l2Eth",
          "type": "address"
        }
      ],
      "name": "__OvmSpokePool_init",
      "outputs": [],
      "stateMutability": "nonpayable",
      "type": "function"
    },
    {
      "inputs": [
        {
          "internalType": "uint32",
          "name": "_initialDepositId",
          "type": "uint32"
        },
        {
          "internalType": "address",
          "name": "_crossDomainAdmin",
          "type": "address"
        },
        {
          "internalType": "address",
          "name": "_hubPool",
          "type": "address"
        }
      ],
      "name": "__SpokePool_init",
      "outputs": [],
      "stateMutability": "nonpayable",
      "type": "function"
    },
    {
      "inputs": [],
      "name": "cctpTokenMessenger",
      "outputs": [
        {
          "internalType": "contract ITokenMessenger",
          "name": "",
          "type": "address"
        }
      ],
      "stateMutability": "view",
      "type": "function"
    },
    {
      "inputs": [],
      "name": "chainId",
      "outputs": [
        {
          "internalType": "uint256",
          "name": "",
          "type": "uint256"
        }
      ],
      "stateMutability": "view",
      "type": "function"
    },
    {
      "inputs": [],
      "name": "crossDomainAdmin",
      "outputs": [
        {
          "internalType": "address",
          "name": "",
          "type": "address"
        }
      ],
      "stateMutability": "view",
      "type": "function"
    },
    {
      "inputs": [
        {
          "internalType": "address",
          "name": "recipient",
          "type": "address"
        },
        {
          "internalType": "address",
          "name": "originToken",
          "type": "address"
        },
        {
          "internalType": "uint256",
          "name": "amount",
          "type": "uint256"
        },
        {
          "internalType": "uint256",
          "name": "destinationChainId",
          "type": "uint256"
        },
        {
          "internalType": "int64",
          "name": "relayerFeePct",
          "type": "int64"
        },
        {
          "internalType": "uint32",
          "name": "quoteTimestamp",
          "type": "uint32"
        },
        {
          "internalType": "bytes",
          "name": "message",
          "type": "bytes"
        },
        {
          "internalType": "uint256",
          "name": "",
          "type": "uint256"
        }
      ],
      "name": "deposit",
      "outputs": [],
      "stateMutability": "payable",
      "type": "function"
    },
    {
      "inputs": [
        {
          "internalType": "address",
          "name": "depositor",
          "type": "address"
        },
        {
          "internalType": "address",
          "name": "recipient",
          "type": "address"
        },
        {
          "internalType": "address",
          "name": "inputToken",
          "type": "address"
        },
        {
          "internalType": "address",
          "name": "outputToken",
          "type": "address"
        },
        {
          "internalType": "uint256",
          "name": "inputAmount",
          "type": "uint256"
        },
        {
          "internalType": "uint256",
          "name": "outputAmount",
          "type": "uint256"
        },
        {
          "internalType": "uint256",
          "name": "destinationChainId",
          "type": "uint256"
        },
        {
          "internalType": "address",
          "name": "exclusiveRelayer",
          "type": "address"
        },
        {
          "internalType": "uint32",
          "name": "quoteTimestamp",
          "type": "uint32"
        },
        {
          "internalType": "uint32",
          "name": "fillDeadline",
          "type": "uint32"
        },
        {
          "internalType": "uint32",
          "name": "exclusivityDeadlineOffset",
          "type": "uint32"
        },
        {
          "internalType": "bytes",
          "name": "message",
          "type": "bytes"
        }
      ],
      "name": "depositExclusive",
      "outputs": [],
      "stateMutability": "payable",
      "type": "function"
    },
    {
      "inputs": [
        {
          "internalType": "address",
          "name": "depositor",
          "type": "address"
        },
        {
          "internalType": "address",
          "name": "recipient",
          "type": "address"
        },
        {
          "internalType": "address",
          "name": "originToken",
          "type": "address"
        },
        {
          "internalType": "uint256",
          "name": "amount",
          "type": "uint256"
        },
        {
          "internalType": "uint256",
          "name": "destinationChainId",
          "type": "uint256"
        },
        {
          "internalType": "int64",
          "name": "relayerFeePct",
          "type": "int64"
        },
        {
          "internalType": "uint32",
          "name": "quoteTimestamp",
          "type": "uint32"
        },
        {
          "internalType": "bytes",
          "name": "message",
          "type": "bytes"
        },
        {
          "internalType": "uint256",
          "name": "",
          "type": "uint256"
        }
      ],
      "name": "depositFor",
      "outputs": [],
      "stateMutability": "payable",
      "type": "function"
    },
    {
      "inputs": [],
      "name": "depositQuoteTimeBuffer",
      "outputs": [
        {
          "internalType": "uint32",
          "name": "",
          "type": "uint32"
        }
      ],
      "stateMutability": "view",
      "type": "function"
    },
    {
      "inputs": [
        {
          "internalType": "address",
          "name": "depositor",
          "type": "address"
        },
        {
          "internalType": "address",
          "name": "recipient",
          "type": "address"
        },
        {
          "internalType": "address",
          "name": "inputToken",
          "type": "address"
        },
        {
          "internalType": "address",
          "name": "outputToken",
          "type": "address"
        },
        {
          "internalType": "uint256",
          "name": "inputAmount",
          "type": "uint256"
        },
        {
          "internalType": "uint256",
          "name": "outputAmount",
          "type": "uint256"
        },
        {
          "internalType": "uint256",
          "name": "destinationChainId",
          "type": "uint256"
        },
        {
          "internalType": "address",
          "name": "exclusiveRelayer",
          "type": "address"
        },
        {
          "internalType": "uint32",
          "name": "quoteTimestamp",
          "type": "uint32"
        },
        {
          "internalType": "uint32",
          "name": "fillDeadline",
          "type": "uint32"
        },
        {
          "internalType": "uint32",
          "name": "exclusivityDeadline",
          "type": "uint32"
        },
        {
          "internalType": "bytes",
          "name": "message",
          "type": "bytes"
        }
      ],
      "name": "depositV3",
      "outputs": [],
      "stateMutability": "payable",
      "type": "function"
    },
    {
      "inputs": [
        {
          "internalType": "address",
          "name": "depositor",
          "type": "address"
        },
        {
          "internalType": "address",
          "name": "recipient",
          "type": "address"
        },
        {
          "internalType": "address",
          "name": "inputToken",
          "type": "address"
        },
        {
          "internalType": "address",
          "name": "outputToken",
          "type": "address"
        },
        {
          "internalType": "uint256",
          "name": "inputAmount",
          "type": "uint256"
        },
        {
          "internalType": "uint256",
          "name": "outputAmount",
          "type": "uint256"
        },
        {
          "internalType": "uint256",
          "name": "destinationChainId",
          "type": "uint256"
        },
        {
          "internalType": "address",
          "name": "exclusiveRelayer",
          "type": "address"
        },
        {
          "internalType": "uint32",
          "name": "fillDeadlineOffset",
          "type": "uint32"
        },
        {
          "internalType": "uint32",
          "name": "exclusivityDeadline",
          "type": "uint32"
        },
        {
          "internalType": "bytes",
          "name": "message",
          "type": "bytes"
        }
      ],
      "name": "depositV3Now",
      "outputs": [],
      "stateMutability": "payable",
      "type": "function"
    },
    {
      "inputs": [
        {
          "internalType": "uint256",
          "name": "rootBundleId",
          "type": "uint256"
        }
      ],
      "name": "emergencyDeleteRootBundle",
      "outputs": [],
      "stateMutability": "nonpayable",
      "type": "function"
    },
    {
      "inputs": [
        {
          "internalType": "address",
          "name": "",
          "type": "address"
        },
        {
          "internalType": "uint256",
          "name": "",
          "type": "uint256"
        }
      ],
      "name": "enabledDepositRoutes",
      "outputs": [
        {
          "internalType": "bool",
          "name": "",
          "type": "bool"
        }
      ],
      "stateMutability": "view",
      "type": "function"
    },
    {
      "inputs": [
        {
          "internalType": "uint32",
          "name": "rootBundleId",
          "type": "uint32"
        },
        {
          "components": [
            {
              "internalType": "uint256",
              "name": "amountToReturn",
              "type": "uint256"
            },
            {
              "internalType": "uint256",
              "name": "chainId",
              "type": "uint256"
            },
            {
              "internalType": "uint256[]",
              "name": "refundAmounts",
              "type": "uint256[]"
            },
            {
              "internalType": "uint32",
              "name": "leafId",
              "type": "uint32"
            },
            {
              "internalType": "address",
              "name": "l2TokenAddress",
              "type": "address"
            },
            {
              "internalType": "address[]",
              "name": "refundAddresses",
              "type": "address[]"
            }
          ],
          "internalType": "struct SpokePoolInterface.RelayerRefundLeaf",
          "name": "relayerRefundLeaf",
          "type": "tuple"
        },
        {
          "internalType": "bytes32[]",
          "name": "proof",
          "type": "bytes32[]"
        }
      ],
      "name": "executeRelayerRefundLeaf",
      "outputs": [],
      "stateMutability": "payable",
      "type": "function"
    },
    {
      "inputs": [
        {
          "components": [
            {
              "components": [
                {
                  "internalType": "address",
                  "name": "depositor",
                  "type": "address"
                },
                {
                  "internalType": "address",
                  "name": "recipient",
                  "type": "address"
                },
                {
                  "internalType": "address",
                  "name": "exclusiveRelayer",
                  "type": "address"
                },
                {
                  "internalType": "address",
                  "name": "inputToken",
                  "type": "address"
                },
                {
                  "internalType": "address",
                  "name": "outputToken",
                  "type": "address"
                },
                {
                  "internalType": "uint256",
                  "name": "inputAmount",
                  "type": "uint256"
                },
                {
                  "internalType": "uint256",
                  "name": "outputAmount",
                  "type": "uint256"
                },
                {
                  "internalType": "uint256",
                  "name": "originChainId",
                  "type": "uint256"
                },
                {
                  "internalType": "uint32",
                  "name": "depositId",
                  "type": "uint32"
                },
                {
                  "internalType": "uint32",
                  "name": "fillDeadline",
                  "type": "uint32"
                },
                {
                  "internalType": "uint32",
                  "name": "exclusivityDeadline",
                  "type": "uint32"
                },
                {
                  "internalType": "bytes",
                  "name": "message",
                  "type": "bytes"
                }
              ],
              "internalType": "struct V3SpokePoolInterface.V3RelayData",
              "name": "relayData",
              "type": "tuple"
            },
            {
              "internalType": "uint256",
              "name": "chainId",
              "type": "uint256"
            },
            {
              "internalType": "uint256",
              "name": "updatedOutputAmount",
              "type": "uint256"
            }
          ],
          "internalType": "struct V3SpokePoolInterface.V3SlowFill",
          "name": "slowFillLeaf",
          "type": "tuple"
        },
        {
          "internalType": "uint32",
          "name": "rootBundleId",
          "type": "uint32"
        },
        {
          "internalType": "bytes32[]",
          "name": "proof",
          "type": "bytes32[]"
        }
      ],
      "name": "executeV3SlowRelayLeaf",
      "outputs": [],
      "stateMutability": "nonpayable",
      "type": "function"
    },
    {
      "inputs": [],
      "name": "fillDeadlineBuffer",
      "outputs": [
        {
          "internalType": "uint32",
          "name": "",
          "type": "uint32"
        }
      ],
      "stateMutability": "view",
      "type": "function"
    },
    {
      "inputs": [
        {
          "internalType": "bytes32",
          "name": "",
          "type": "bytes32"
        }
      ],
      "name": "fillStatuses",
      "outputs": [
        {
          "internalType": "uint256",
          "name": "",
          "type": "uint256"
        }
      ],
      "stateMutability": "view",
      "type": "function"
    },
    {
      "inputs": [
        {
          "components": [
            {
              "internalType": "address",
              "name": "depositor",
              "type": "address"
            },
            {
              "internalType": "address",
              "name": "recipient",
              "type": "address"
            },
            {
              "internalType": "address",
              "name": "exclusiveRelayer",
              "type": "address"
            },
            {
              "internalType": "address",
              "name": "inputToken",
              "type": "address"
            },
            {
              "internalType": "address",
              "name": "outputToken",
              "type": "address"
            },
            {
              "internalType": "uint256",
              "name": "inputAmount",
              "type": "uint256"
            },
            {
              "internalType": "uint256",
              "name": "outputAmount",
              "type": "uint256"
            },
            {
              "internalType": "uint256",
              "name": "originChainId",
              "type": "uint256"
            },
            {
              "internalType": "uint32",
              "name": "depositId",
              "type": "uint32"
            },
            {
              "internalType": "uint32",
              "name": "fillDeadline",
              "type": "uint32"
            },
            {
              "internalType": "uint32",
              "name": "exclusivityDeadline",
              "type": "uint32"
            },
            {
              "internalType": "bytes",
              "name": "message",
              "type": "bytes"
            }
          ],
          "internalType": "struct V3SpokePoolInterface.V3RelayData",
          "name": "relayData",
          "type": "tuple"
        },
        {
          "internalType": "uint256",
          "name": "repaymentChainId",
          "type": "uint256"
        }
      ],
      "name": "fillV3Relay",
      "outputs": [],
      "stateMutability": "nonpayable",
      "type": "function"
    },
    {
      "inputs": [
        {
          "components": [
            {
              "internalType": "address",
              "name": "depositor",
              "type": "address"
            },
            {
              "internalType": "address",
              "name": "recipient",
              "type": "address"
            },
            {
              "internalType": "address",
              "name": "exclusiveRelayer",
              "type": "address"
            },
            {
              "internalType": "address",
              "name": "inputToken",
              "type": "address"
            },
            {
              "internalType": "address",
              "name": "outputToken",
              "type": "address"
            },
            {
              "internalType": "uint256",
              "name": "inputAmount",
              "type": "uint256"
            },
            {
              "internalType": "uint256",
              "name": "outputAmount",
              "type": "uint256"
            },
            {
              "internalType": "uint256",
              "name": "originChainId",
              "type": "uint256"
            },
            {
              "internalType": "uint32",
              "name": "depositId",
              "type": "uint32"
            },
            {
              "internalType": "uint32",
              "name": "fillDeadline",
              "type": "uint32"
            },
            {
              "internalType": "uint32",
              "name": "exclusivityDeadline",
              "type": "uint32"
            },
            {
              "internalType": "bytes",
              "name": "message",
              "type": "bytes"
            }
          ],
          "internalType": "struct V3SpokePoolInterface.V3RelayData",
          "name": "relayData",
          "type": "tuple"
        },
        {
          "internalType": "uint256",
          "name": "repaymentChainId",
          "type": "uint256"
        },
        {
          "internalType": "uint256",
          "name": "updatedOutputAmount",
          "type": "uint256"
        },
        {
          "internalType": "address",
          "name": "updatedRecipient",
          "type": "address"
        },
        {
          "internalType": "bytes",
          "name": "updatedMessage",
          "type": "bytes"
        },
        {
          "internalType": "bytes",
          "name": "depositorSignature",
          "type": "bytes"
        }
      ],
      "name": "fillV3RelayWithUpdatedDeposit",
      "outputs": [],
      "stateMutability": "nonpayable",
      "type": "function"
    },
    {
      "inputs": [],
      "name": "getCurrentTime",
      "outputs": [
        {
          "internalType": "uint256",
          "name": "",
          "type": "uint256"
        }
      ],
      "stateMutability": "view",
      "type": "function"
    },
    {
      "inputs": [],
      "name": "hubPool",
      "outputs": [
        {
          "internalType": "address",
          "name": "",
          "type": "address"
        }
      ],
      "stateMutability": "view",
      "type": "function"
    },
    {
      "inputs": [
        {
          "internalType": "uint32",
          "name": "_initialDepositId",
          "type": "uint32"
        },
        {
          "internalType": "address",
          "name": "_crossDomainAdmin",
          "type": "address"
        },
        {
          "internalType": "address",
          "name": "_hubPool",
          "type": "address"
        }
      ],
      "name": "initialize",
      "outputs": [],
      "stateMutability": "nonpayable",
      "type": "function"
    },
    {
      "inputs": [],
      "name": "l1Gas",
      "outputs": [
        {
          "internalType": "uint32",
          "name": "",
          "type": "uint32"
        }
      ],
      "stateMutability": "view",
      "type": "function"
    },
    {
      "inputs": [],
      "name": "l2Eth",
      "outputs": [
        {
          "internalType": "address",
          "name": "",
          "type": "address"
        }
      ],
      "stateMutability": "view",
      "type": "function"
    },
    {
      "inputs": [
        {
          "internalType": "bytes[]",
          "name": "data",
          "type": "bytes[]"
        }
      ],
      "name": "multicall",
      "outputs": [
        {
          "internalType": "bytes[]",
          "name": "results",
          "type": "bytes[]"
        }
      ],
      "stateMutability": "nonpayable",
      "type": "function"
    },
    {
      "inputs": [],
      "name": "numberOfDeposits",
      "outputs": [
        {
          "internalType": "uint32",
          "name": "",
          "type": "uint32"
        }
      ],
      "stateMutability": "view",
      "type": "function"
    },
    {
      "inputs": [
        {
          "internalType": "bool",
          "name": "pause",
          "type": "bool"
        }
      ],
      "name": "pauseDeposits",
      "outputs": [],
      "stateMutability": "nonpayable",
      "type": "function"
    },
    {
      "inputs": [
        {
          "internalType": "bool",
          "name": "pause",
          "type": "bool"
        }
      ],
      "name": "pauseFills",
      "outputs": [],
      "stateMutability": "nonpayable",
      "type": "function"
    },
    {
      "inputs": [],
      "name": "pausedDeposits",
      "outputs": [
        {
          "internalType": "bool",
          "name": "",
          "type": "bool"
        }
      ],
      "stateMutability": "view",
      "type": "function"
    },
    {
      "inputs": [],
      "name": "pausedFills",
      "outputs": [
        {
          "internalType": "bool",
          "name": "",
          "type": "bool"
        }
      ],
      "stateMutability": "view",
      "type": "function"
    },
    {
      "inputs": [],
      "name": "proxiableUUID",
      "outputs": [
        {
          "internalType": "bytes32",
          "name": "",
          "type": "bytes32"
        }
      ],
      "stateMutability": "view",
      "type": "function"
    },
    {
      "inputs": [],
      "name": "recipientCircleDomainId",
      "outputs": [
        {
          "internalType": "uint32",
          "name": "",
          "type": "uint32"
        }
      ],
      "stateMutability": "view",
      "type": "function"
    },
    {
      "inputs": [
        {
          "internalType": "bytes32",
          "name": "relayerRefundRoot",
          "type": "bytes32"
        },
        {
          "internalType": "bytes32",
          "name": "slowRelayRoot",
          "type": "bytes32"
        }
      ],
      "name": "relayRootBundle",
      "outputs": [],
      "stateMutability": "nonpayable",
      "type": "function"
    },
    {
      "inputs": [
        {
          "internalType": "address",
          "name": "",
          "type": "address"
        }
      ],
      "name": "remoteL1Tokens",
      "outputs": [
        {
          "internalType": "address",
          "name": "",
          "type": "address"
        }
      ],
      "stateMutability": "view",
      "type": "function"
    },
    {
      "inputs": [
        {
          "components": [
            {
              "internalType": "address",
              "name": "depositor",
              "type": "address"
            },
            {
              "internalType": "address",
              "name": "recipient",
              "type": "address"
            },
            {
              "internalType": "address",
              "name": "exclusiveRelayer",
              "type": "address"
            },
            {
              "internalType": "address",
              "name": "inputToken",
              "type": "address"
            },
            {
              "internalType": "address",
              "name": "outputToken",
              "type": "address"
            },
            {
              "internalType": "uint256",
              "name": "inputAmount",
              "type": "uint256"
            },
            {
              "internalType": "uint256",
              "name": "outputAmount",
              "type": "uint256"
            },
            {
              "internalType": "uint256",
              "name": "originChainId",
              "type": "uint256"
            },
            {
              "internalType": "uint32",
              "name": "depositId",
              "type": "uint32"
            },
            {
              "internalType": "uint32",
              "name": "fillDeadline",
              "type": "uint32"
            },
            {
              "internalType": "uint32",
              "name": "exclusivityDeadline",
              "type": "uint32"
            },
            {
              "internalType": "bytes",
              "name": "message",
              "type": "bytes"
            }
          ],
          "internalType": "struct V3SpokePoolInterface.V3RelayData",
          "name": "relayData",
          "type": "tuple"
        }
      ],
      "name": "requestV3SlowFill",
      "outputs": [],
      "stateMutability": "nonpayable",
      "type": "function"
    },
    {
      "inputs": [
        {
          "internalType": "uint256",
          "name": "",
          "type": "uint256"
        }
      ],
      "name": "rootBundles",
      "outputs": [
        {
          "internalType": "bytes32",
          "name": "slowRelayRoot",
          "type": "bytes32"
        },
        {
          "internalType": "bytes32",
          "name": "relayerRefundRoot",
          "type": "bytes32"
        }
      ],
      "stateMutability": "view",
      "type": "function"
    },
    {
      "inputs": [
        {
          "internalType": "address",
          "name": "newCrossDomainAdmin",
          "type": "address"
        }
      ],
      "name": "setCrossDomainAdmin",
      "outputs": [],
      "stateMutability": "nonpayable",
      "type": "function"
    },
    {
      "inputs": [
        {
          "internalType": "address",
          "name": "originToken",
          "type": "address"
        },
        {
          "internalType": "uint256",
          "name": "destinationChainId",
          "type": "uint256"
        },
        {
          "internalType": "bool",
          "name": "enabled",
          "type": "bool"
        }
      ],
      "name": "setEnableRoute",
      "outputs": [],
      "stateMutability": "nonpayable",
      "type": "function"
    },
    {
      "inputs": [
        {
          "internalType": "address",
          "name": "newHubPool",
          "type": "address"
        }
      ],
      "name": "setHubPool",
      "outputs": [],
      "stateMutability": "nonpayable",
      "type": "function"
    },
    {
      "inputs": [
        {
          "internalType": "uint32",
          "name": "newl1Gas",
          "type": "uint32"
        }
      ],
      "name": "setL1GasLimit",
      "outputs": [],
      "stateMutability": "nonpayable",
      "type": "function"
    },
    {
      "inputs": [
        {
          "internalType": "address",
          "name": "l2Token",
          "type": "address"
        },
        {
          "internalType": "address",
          "name": "l1Token",
          "type": "address"
        }
      ],
      "name": "setRemoteL1Token",
      "outputs": [],
      "stateMutability": "nonpayable",
      "type": "function"
    },
    {
      "inputs": [
        {
          "internalType": "address",
          "name": "l2Token",
          "type": "address"
        },
        {
          "internalType": "address",
          "name": "tokenBridge",
          "type": "address"
        }
      ],
      "name": "setTokenBridge",
      "outputs": [],
      "stateMutability": "nonpayable",
      "type": "function"
    },
    {
      "inputs": [
        {
          "internalType": "address",
          "name": "depositor",
          "type": "address"
        },
        {
          "internalType": "uint32",
          "name": "depositId",
          "type": "uint32"
        },
        {
          "internalType": "uint256",
          "name": "updatedOutputAmount",
          "type": "uint256"
        },
        {
          "internalType": "address",
          "name": "updatedRecipient",
          "type": "address"
        },
        {
          "internalType": "bytes",
          "name": "updatedMessage",
          "type": "bytes"
        },
        {
          "internalType": "bytes",
          "name": "depositorSignature",
          "type": "bytes"
        }
      ],
      "name": "speedUpV3Deposit",
      "outputs": [],
      "stateMutability": "nonpayable",
      "type": "function"
    },
    {
      "inputs": [
        {
          "internalType": "address",
          "name": "",
          "type": "address"
        }
      ],
      "name": "tokenBridges",
      "outputs": [
        {
          "internalType": "address",
          "name": "",
          "type": "address"
        }
      ],
      "stateMutability": "view",
      "type": "function"
    },
    {
      "inputs": [
        {
          "internalType": "bytes[]",
          "name": "data",
          "type": "bytes[]"
        }
      ],
      "name": "tryMulticall",
      "outputs": [
        {
          "components": [
            {
              "internalType": "bool",
              "name": "success",
              "type": "bool"
            },
            {
              "internalType": "bytes",
              "name": "returnData",
              "type": "bytes"
            }
          ],
          "internalType": "struct MultiCallerUpgradeable.Result[]",
          "name": "results",
          "type": "tuple[]"
        }
      ],
      "stateMutability": "nonpayable",
      "type": "function"
    },
    {
      "inputs": [
        {
          "internalType": "address",
          "name": "newImplementation",
          "type": "address"
        }
      ],
      "name": "upgradeTo",
      "outputs": [],
      "stateMutability": "nonpayable",
      "type": "function"
    },
    {
      "inputs": [
        {
          "internalType": "address",
          "name": "newImplementation",
          "type": "address"
        },
        {
          "internalType": "bytes",
          "name": "data",
          "type": "bytes"
        }
      ],
      "name": "upgradeToAndCall",
      "outputs": [],
      "stateMutability": "payable",
      "type": "function"
    },
    {
      "inputs": [],
      "name": "usdcToken",
      "outputs": [
        {
          "internalType": "contract IERC20",
          "name": "",
          "type": "address"
        }
      ],
      "stateMutability": "view",
      "type": "function"
    },
    {
      "inputs": [],
      "name": "wrappedNativeToken",
      "outputs": [
        {
          "internalType": "contract WETH9Interface",
          "name": "",
          "type": "address"
        }
      ],
      "stateMutability": "view",
      "type": "function"
    },
    {
      "stateMutability": "payable",
      "type": "receive"
    }
  ],
  "numDeployments": 3,
  "solcInputHash": "78e313a2549dcd09e208aa6963c85725",
  "bytecode": "0x6101e0346200028c5762005a2538819003601f8101601f191683016001600160401b038111848210176200029057839282916040528339610120918291810103126200028c576200005082620002a4565b6200005e60208401620002b9565b6200006c60408501620002b9565b60608501516001600160a01b0392919083811681036200028c5760808701519084821682036200028c57620000a460a08901620002a4565b92620000b360c08a01620002a4565b94620000c260e08b01620002a4565b96620000d3610100809c01620002a4565b98306080521660a05260c05260e0525f5460ff8160081c166200028c5760ff8082160362000251575b5086526101409081525f87526101609182526101809283526101a09384526101c0948552604051956157599788620002cc8939608051888181610d70015281816113e901526115a6015260a0518881816107fc01528181611b7301528181612f46015281816130cc01528181613742015281816138a601528181613ffa015281816142ca015281816148ac015281816148ef0152818161491601528181614d6e0152614f98015260c0518881816116a701528181611b1a0152818161307301526136d4015260e05188818161041301528181611d5a0152613200015251878181611816015261551801525186818161079f015281816152ea0152615412015251858181611ea1015281816150a6015261543e015251848181610d2401528181612efb015261476001525183818161190801526147f50152518281816114f30152614d0b015251818181612843015261481d0152f35b60ff90811916175f557f7f26b83ff96e1f2b6a682f133852f6798a09c465da95921460cefb3847402498602060405160ff8152a15f620000fc565b5f80fd5b634e487b7160e01b5f52604160045260245ffd5b51906001600160a01b03821682036200028c57565b519063ffffffff821682036200028c5756fe6080604052600436101561001a575b3615610018575f80fd5b005b5f3560e01c8063079bd2c7146103e45780630c5d5f73146103df5780630eaac9f0146103da5780631186ec33146103d557806311eac855146103d057806315348e441461035857806317fcb39b146103cb5780631abeb4d7146103c65780631b3d5559146103c15780631dfb2d02146103bc578063272751c7146103b757806329cb924d146103b25780632cfc26c5146103ad5780632e378115146103a857806331a0edec146103a35780633659cfe61461039e578063431023b814610399578063437b911614610394578063493a4f841461038f5780634e0fb8f51461038a5780634f1ef28614610385578063524633cc146103805780635249fef11461037b5780635285e0581461037657806352d1902d14610371578063541f4f141461036c57806357f6dcb8146103675780636068d6cb14610362578063647c576c1461035d5780636bbbcd2e146103585780636e40098314610353578063738b62e51461034e5780637419ffe814610349578063766e0703146103445780637aef642c1461033f5780637b9392321461033a5780638a7860ce14610335578063927ede2d146103305780639748cf7c1461032b578063979f2bc2146103265780639963e5a81461032157806399cc29681461031c5780639a8a059214610317578063a1244c6714610312578063ac9650d81461030d578063add051a314610308578063b27a430014610303578063bbca7db0146102fe578063bf10268d146102f9578063c35c83fc146102f4578063ccfa5971146102ef578063ceb4c987146102ea578063dda52113146102e5578063ddd224f1146102e0578063de7eba78146102db578063e1904402146102d6578063e3229211146102d1578063ee2a53f8146102cc578063f083d9b7146102c7578063f8c62274146102c25763fbbba9ac0361000e57612895565b612867565b612824565b6127e6565b61276a565b612743565b612713565b6126ea565b6126c4565b6126a6565b612623565b6125f8565b612574565b612433565b6123f4565b61237e565b6122de565b612254565b61223a565b61218c565b611f93565b611ec5565b611e82565b611e54565b611ddc565b611a95565b611950565b61192c565b6118e9565b61183a565b6117fa565b6107c3565b611723565b6116cb565b61168b565b6115f6565b61158c565b611565565b611517565b6114d4565b6113a6565b61128c565b6111d7565b61110a565b610e7a565b610d48565b610d05565b610bb2565b610b69565b610b4f565b610ab0565b610a71565b610999565b610820565b6107dd565b610780565b6106c7565b6104ad565b610455565b6103f7565b5f9103126103f357565b5f80fd5b346103f3575f3660031901126103f357602060405163ffffffff7f0000000000000000000000000000000000000000000000000000000000000000168152f35b6001600160a01b038116036103f357565b359061045382610437565b565b346103f35760203660031901126103f357602060043561047481610437565b6001600160a01b038091165f52610c5d825260405f205416604051908152f35b63ffffffff8116036103f357565b359061045382610494565b346103f35760203660031901126103f35763ffffffff6004356104cf81610494565b6104d76134da565b6104df6135ec565b16610c5a8163ffffffff198254161790557fe486a5c4bd7b36eabbfe274c99b39130277417be8d2209b4dae04c4fba64ee3a5f80a26001606555005b634e487b7160e01b5f52604160045260245ffd5b6040810190811067ffffffffffffffff82111761054b57604052565b61051b565b67ffffffffffffffff811161054b57604052565b6060810190811067ffffffffffffffff82111761054b57604052565b6020810190811067ffffffffffffffff82111761054b57604052565b60e0810190811067ffffffffffffffff82111761054b57604052565b60a0810190811067ffffffffffffffff82111761054b57604052565b90601f8019910116810190811067ffffffffffffffff82111761054b57604052565b6040519060c0820182811067ffffffffffffffff82111761054b57604052565b60405190610180820182811067ffffffffffffffff82111761054b57604052565b604051906080820182811067ffffffffffffffff82111761054b57604052565b67ffffffffffffffff811161054b57601f01601f191660200190565b92919261067f82610657565b9161068d60405193846105d4565b8294818452818301116103f3578281602093845f960137010152565b9080601f830112156103f3578160206106c493359101610673565b90565b6101003660031901126103f3576004356106e081610437565b6024356106ec81610437565b6084358060070b81036103f35760a4359061070682610494565b60c43567ffffffffffffffff81116103f3576107269036906004016106a9565b9261072f6135ec565b60ff61086b5460e81c166107565761074f9460643591604435913361365b565b6001606555005b60046040517f5a65d188000000000000000000000000000000000000000000000000000000008152fd5b346103f3575f3660031901126103f35760206040516001600160a01b037f0000000000000000000000000000000000000000000000000000000000000000168152f35b346103f3575f3660031901126103f35760206040515f8152f35b346103f3575f3660031901126103f35760206040516001600160a01b037f0000000000000000000000000000000000000000000000000000000000000000168152f35b346103f3575f3660031901126103f35760206040517343000000000000000000000000000000000000028152f35b67ffffffffffffffff811161054b5760051b60200190565b9080601f830112156103f35760209082356108808161084e565b9361088e60405195866105d4565b81855260208086019260051b8201019283116103f357602001905b8282106108b7575050505090565b813581529083019083016108a9565b9080601f830112156103f35760209082356108e08161084e565b936108ee60405195866105d4565b81855260208086019260051b8201019283116103f357602001905b828210610917575050505090565b838091833561092581610437565b815201910190610909565b929161093b8261084e565b9161094960405193846105d4565b829481845260208094019160051b81019283116103f357905b82821061096f5750505050565b81358152908301908301610962565b9080601f830112156103f3578160206106c493359101610930565b6003196060368201126103f3576004356109b281610494565b60243567ffffffffffffffff928382116103f35760c09082360301126103f3576109da6105f6565b90806004013582526024810135602083015260448101358481116103f357610a089060043691840101610866565b6040830152610a19606482016104a2565b6060830152610a2a60848201610448565b608083015260a4810135908482116103f3576004610a4b92369201016108c6565b60a08201526044359283116103f357610a6b61001893369060040161097e565b91612919565b346103f35760203660031901126103f35761074f600435610a9181610437565b610a996134da565b610aa16135ec565b613b6f565b801515036103f357565b346103f35760603660031901126103f357600435610acd81610437565b602435907f0a21fdd43d0ad0c62689ee7230a47309a050755bcc52eba00310add65297692a60206001600160a01b0360443593610b0985610aa6565b610b116134da565b610b196135ec565b1692835f5261086d825260405f20855f52825260405f209015159060ff1981541660ff8316179055604051908152a36001606555005b346103f3575f3660031901126103f3576020604051428152f35b346103f3575f3660031901126103f35760206040517f152eb71524aef34d838ab76573c14b1ebfa5e385d9ab29d7cf5398daa2438bd98152f35b90816101809103126103f35790565b346103f35760403660031901126103f35760043567ffffffffffffffff81116103f357610be3903690600401610ba3565b610beb6135ec565b60ff61086b5460e01c16610cf457610c066101408201612b0c565b63ffffffff429116101580610cd6575b610cac57610ca290610c8e610c33610c2e3684612b20565b613cad565b9160c0610c87610c4560208401612b16565b610c53610160850185612c00565b939094610c5e6105f6565b97610c693683612b20565b89526020890152013560408701526001600160a01b03166060860152565b3691610673565b608082015260243560a08201523390613e00565b6100186001606555565b60046040517fc3a9b9d0000000000000000000000000000000000000000000000000000000008152fd5b50610ce360408201612b16565b6001600160a01b0316331415610c16565b6004604051633d90fc5560e11b8152fd5b346103f3575f3660031901126103f35760206040516001600160a01b037f0000000000000000000000000000000000000000000000000000000000000000168152f35b346103f35760203660031901126103f357600435610d6581610437565b6001600160a01b03807f0000000000000000000000000000000000000000000000000000000000000000168030146103f3577f360894a13ba1a3210667c828492db98dca3e2076cc3735a920a3ca505d382bbc9082825416036103f357610dca6134da565b60405191610dd783610580565b5f83527f4910fdfa16fed3260ed0e7147f7cc6da11a60208b5b9406d12a635614ffd91435460ff1615610e105750505061001890614aae565b6020600491604051928380926352d1902d60e01b825288165afa5f9181610e49575b50610e3b575f80fd5b036103f35761001891614995565b610e6c91925060203d602011610e73575b610e6481836105d4565b810190612de1565b905f610e32565b503d610e5a565b346103f35760803660031901126103f357600435610e9781610494565b60243590610ea482610437565b604435610eb081610437565b60643591610ebd83610437565b60ff5f5460081c16156103f357610f0490610c5a624c4b4063ffffffff1982541617905561086b9063ffffffff60c01b1963ffffffff60c01b83549260c01b169116179055565b60405190610f118261052f565b6009825260208201916820a1a927a9a996ab1960b91b8352640312e302e360dc1b6020604051610f408161052f565b60058152015260ff5f5460081c16156103f35761001894610fa093610aa19251902061047f557f06c015bd22b4c69690933c1058878ebdfef31f9aaae40bbe86d8a09fe1b2972c61048055610f93614525565b610f9b614534565b614548565b610c5a907fffffffffffffffff0000000000000000000000000000000000000000ffffffff77ffffffffffffffffffffffffffffffffffffffff0000000083549260201b169116179055565b9181601f840112156103f35782359167ffffffffffffffff83116103f3576020808501948460051b0101116103f357565b60206003198201126103f3576004359067ffffffffffffffff82116103f35761104891600401610fec565b9091565b5f5b83811061105d5750505f910152565b818101518382015260200161104e565b906020916110868151809281855285808601910161104c565b601f01601f1916010190565b6020808201908083528351809252604092604081018260408560051b8401019601945f925b8584106110c8575050505050505090565b9091929394959685806110f9600193603f1986820301885286838d518051151584520151918185820152019061106d565b9901940194019295949391906110b7565b346103f3576111183661101d565b6111218161084e565b91604061113160405194856105d4565b828452601f196111408461084e565b015f5b8181106111b45750505f5b83811061116757604051806111638782611092565b0390f35b806111ae61117760019388612d4f565b515f80611185858a8a612d63565b90611194895180938193612d7a565b0390305af4906111a2612d87565b60208201529015159052565b0161114e565b60209083516111c28161052f565b5f815282606081830152828901015201611143565b346103f35760403660031901126103f3576024356004356111f66134da565b6111fe6135ec565b61086c80546801000000000000000081101561054b5763ffffffff916001820190558361122a826127a7565b5084600182015555167fc86ba04c55bc5eb2f2876b91c438849a296dbec7b08751c3074d92e04f0a77af5f80a46001606555005b9181601f840112156103f35782359167ffffffffffffffff83116103f357602083818601950101116103f357565b346103f35760c03660031901126103f3576004356112a981610437565b602435906112b682610494565b6044356064356112c581610437565b67ffffffffffffffff916084358381116103f3576112e790369060040161125e565b93909460a4359182116103f35761138a63ffffffff7fb0a29aed3d389a1041194255878b423f7780be3ed2324d4693508c6ff189845e9661132f61139c95369060040161125e565b93909961133a6135ec565b6113618c8c8b8b61135861134f368a89610673565b938b3691610673565b9346908c6143c2565b6001600160a01b0392836040519a8b9a8b521660208a0152608060408a01526080890191612db6565b93868503606088015216981696612db6565b0390a36001606555005b60403660031901126103f3576004356113be81610437565b60243567ffffffffffffffff81116103f3576113de9036906004016106a9565b6001600160a01b03807f000000000000000000000000000000000000000000000000000000000000000016908130146103f3577f360894a13ba1a3210667c828492db98dca3e2076cc3735a920a3ca505d382bbc9181835416036103f3576114446134da565b7f4910fdfa16fed3260ed0e7147f7cc6da11a60208b5b9406d12a635614ffd91435460ff161561147a5750505061001890614aae565b6020600491604051928380926352d1902d60e01b825288165afa5f91816114b3575b506114a5575f80fd5b036103f35761001891614a5d565b6114cd91925060203d602011610e7357610e6481836105d4565b905f61149c565b346103f3575f3660031901126103f35760206040516001600160a01b037f0000000000000000000000000000000000000000000000000000000000000000168152f35b346103f35760403660031901126103f3576001600160a01b0360043561153c81610437565b165f5261086d60205260405f206024355f52602052602060ff60405f2054166040519015158152f35b346103f3575f3660031901126103f35760206001600160a01b036108695416604051908152f35b346103f3575f3660031901126103f3576001600160a01b037f00000000000000000000000000000000000000000000000000000000000000001630036103f35760206040517f360894a13ba1a3210667c828492db98dca3e2076cc3735a920a3ca505d382bbc8152f35b6101203660031901126103f35760043561160f81610437565b6024359061161c82610437565b6044359161162983610437565b60a4358060070b81036103f35760c4359161164383610494565b60e43567ffffffffffffffff81116103f3576116639036906004016106a9565b9361166c6135ec565b60ff61086b5460e81c166107565761074f95608435926064359261365b565b346103f3575f3660031901126103f357602060405163ffffffff7f0000000000000000000000000000000000000000000000000000000000000000168152f35b346103f3575f3660031901126103f357602060ff61086b5460e81c166040519015158152f35b60609060031901126103f35760043561170981610494565b9060243561171681610437565b906044356106c481610437565b346103f357611731366116f1565b5f54600881901c60ff16159392908490816117ec575b81156117cc575b50156103f3576117729284611769600160ff195f5416175f55565b6117b557612e13565b61177857005b61178661ff00195f54165f55565b604051600181527f7f26b83ff96e1f2b6a682f133852f6798a09c465da95921460cefb384740249890602090a1005b6117c761010061ff00195f5416175f55565b612e13565b303b159150816117de575b505f61174e565b6001915060ff16145f6117d7565b600160ff8216109150611747565b346103f3575f3660031901126103f357602060405163ffffffff7f0000000000000000000000000000000000000000000000000000000000000000168152f35b346103f35760203660031901126103f3577fe88463c2f254e2b070013a2dc7ee1e099f9bc00534cbdf03af551dc26ae49219602060043561187a81610aa6565b6118826134da565b61188a6135ec565b151561086b80547fffff00ffffffffffffffffffffffffffffffffffffffffffffffffffffffffff7dff00000000000000000000000000000000000000000000000000000000008460e81b169116179055604051908152a16001606555005b346103f3575f3660031901126103f35760206040516001600160a01b037f0000000000000000000000000000000000000000000000000000000000000000168152f35b346103f3575f3660031901126103f357602063ffffffff610c5a5416604051908152f35b6101603660031901126103f35760043561196981610437565b6024359061197682610437565b60443561198281610437565b6064359061198f82610437565b60e43561199b81610437565b61010435906119a982610494565b61012435926119b784610494565b610144359667ffffffffffffffff88116103f3576119dc61001898369060040161125e565b97909660c4359360a4359360843593613003565b906101806003198301126103f357600435611a0a81610437565b91602435611a1781610437565b91604435611a2481610437565b91606435611a3181610437565b916084359160a4359160c4359160e435611a4a81610437565b9161010435611a5881610494565b9161012435611a6681610494565b9161014435611a7481610494565b91610164359067ffffffffffffffff82116103f3576110489160040161125e565b611a9e366119f0565b959996989a92909493611ab29c989c6135ec565b61086b9960ff8b5460e81c1661075657611b00611afc611af58e611ae88d6001600160a01b03165f5261086d60205260405f2090565b905f5260205260405f2090565b5460ff1690565b1590565b611db25763ffffffff9d8e611b178185164261322e565b907f00000000000000000000000000000000000000000000000000000000000000001610611d88578e808516428110918215611d52575b5050611d28578e9b6001600160a01b039c8d891690871690818117611cc2575b50508c7f0000000000000000000000000000000000000000000000000000000000000000168d8c1681811480611cb9575b15611c9f5750823403611c7557803b156103f3575f60049160405192838092630d0e30db60e41b825234905af18015611c7057611c57575b505b5460c01c63ffffffff169e8f611bee90613248565b611c159061086b9063ffffffff60c01b1963ffffffff60c01b83549260c01b169116179055565b6040519c8d9c169f169d611c299a8c61325d565b037fa123dc29aebf7d0c3322c8eeb5b999e859f39937950ed31056532713d0de396f91a46100186001606555565b80611c64611c6a92610550565b806103e9565b5f611bd7565b612dd6565b60046040517f6452a35d000000000000000000000000000000000000000000000000000000008152fd5b905034611c755782611cb491309033906144c8565b611bd9565b50341515611b9f565b15611cfe574211611cd4575f80611b6e565b60046040517f25a63a5b000000000000000000000000000000000000000000000000000000008152fd5b60046040517f495d907f000000000000000000000000000000000000000000000000000000008152fd5b60046040517f582e3889000000000000000000000000000000000000000000000000000000008152fd5b611d809192507f0000000000000000000000000000000000000000000000000000000000000000164261323b565b108f80611b4e565b60046040517ff722177f000000000000000000000000000000000000000000000000000000008152fd5b60046040517f2a58c4f3000000000000000000000000000000000000000000000000000000008152fd5b346103f35760203660031901126103f357600435611df86134da565b611e006135ec565b611e09816127a7565b611e41576001815f80935501557f3569b846531b754c99cb80df3f49cd72fa6fe106aaee5ab8e0caf35a9d7ce88d5f80a26001606555005b634e487b7160e01b5f525f60045260245ffd5b346103f3575f3660031901126103f35760206040517342000000000000000000000000000000000000078152f35b346103f3575f3660031901126103f35760206040516001600160a01b037f0000000000000000000000000000000000000000000000000000000000000000168152f35b346103f357611ed3366116f1565b909160ff5f5460081c16156103f357611f099061086b9063ffffffff60c01b1963ffffffff60c01b83549260c01b169116179055565b604051611f158161052f565b6009815260208101926820a1a927a9a996ab1960b91b8452640312e302e360dc1b6020604051611f448161052f565b60058152015260ff5f5460081c16156103f35761001893610aa19251902061047f557f06c015bd22b4c69690933c1058878ebdfef31f9aaae40bbe86d8a09fe1b2972c61048055610f93614525565b346103f35760203660031901126103f3576004803567ffffffffffffffff81116103f357611fc49036908301610ba3565b611fcc6135ec565b60ff61086b5460e01c1661217c57610140810191611fe983612b0c565b9063ffffffff91824291161015612154576101208301904261201661200d84612b0c565b63ffffffff1690565b1061214557612028610c2e3686612b20565b9061203c825f5261087260205260405f2090565b5461211d57509061208161207b7f923794976d026d6b119735adc163cb71decfc903e17c3dc226c00789593c04e194935f5261087260205260405f2090565b60019055565b61211061209060608601612b16565b9561209d60808701612b16565b956120bd6120b76120b16101008401612b0c565b95612b0c565b92612b0c565b6120c960408301612b16565b6120d283612b16565b906120df60208501612b16565b926120ee610160860186612c00565b9690956040519a8b9a169d60e08201359d60a060c0840135930135918c6132c5565b0390a36100186001606555565b6040517f012f9e44000000000000000000000000000000000000000000000000000000008152fd5b60405163d642b7d960e01b8152fd5b6040517f09deb9ec000000000000000000000000000000000000000000000000000000008152fd5b50604051633d90fc5560e11b8152fd5b346103f35760203660031901126103f3577f2d5b62420992e5a4afce0e77742636ca2608ef58289fd2e1baa5161ef6e7e41e60206004356121cc81610aa6565b6121d46134da565b6121dc6135ec565b151561086b80547fffffff00ffffffffffffffffffffffffffffffffffffffffffffffffffffffff7cff000000000000000000000000000000000000000000000000000000008460e01b169116179055604051908152a16001606555005b346103f3575f3660031901126103f3576020604051468152f35b346103f3575f3660031901126103f357602063ffffffff61086b5460c01c16604051908152f35b6020808201906020835283518092526040830192602060408460051b8301019501935f915b8483106122b05750505050505090565b90919293949584806122ce600193603f198682030187528a5161106d565b98019301930191949392906122a0565b346103f3576122ec3661101d565b906122f68261332d565b915f5b81811061230e5760405180611163868261227b565b5f8061231b838587612d63565b9061232b60405180938193612d7a565b0390305af4612338612d87565b901561235e579060019161234c8287612d4f565b526123578186612d4f565b50016122f9565b60448151106103f3578060046103f3920151602480918301019101613376565b612387366119f0565b959996919b97989a929094936123a463ffffffff9d8e4216612fe6565b926123ad6135ec565b61086b9a60ff8c5460e81c16610756576123e3611afc611af58f611ae88e6001600160a01b03165f5261086d60205260405f2090565b611db2578e611b178185164261322e565b346103f35760203660031901126103f357602060043561241381610437565b6001600160a01b038091165f52610c5c825260405f205416604051908152f35b346103f3576003196060368201126103f35760043567ffffffffffffffff8082116103f3576060823603938401126103f3576024359061247282610494565b6044359081116103f35761248a903690600401610fec565b9190936124956135ec565b60048401359061018219018112156103f357610ca29461254a936124c26125439360043691890101612b20565b956124df6124da60808901516001600160a01b031690565b61389c565b6125316124eb88613cad565b91604461250260208b01516001600160a01b031690565b916101608b0151946125126105f6565b9b8c5260208c0152013560408a01526001600160a01b03166060890152565b60808701525f60a08701523691610930565b90836145ba565b61410b565b60409060031901126103f35760043561256781610437565b906024356106c481610437565b346103f3576125823661254f565b9061258b6134da565b6125936135ec565b6001600160a01b0380911691825f52610c5d6020526125cb8160405f20906001600160a01b03166001600160a01b0319825416179055565b16907fcb84c2022106a6f2b6f805d446f32fbfd2a528474364fa755f37dac1c0c1b6c85f80a36001606555005b346103f35760203660031901126103f3576004355f52610872602052602060405f2054604051908152f35b346103f35760c03660031901126103f35767ffffffffffffffff6004358181116103f357612655903690600401610ba3565b6064359061266282610437565b6084358381116103f35761267a90369060040161125e565b9060a4359485116103f35761269661001895369060040161125e565b94909360443590602435906133d5565b346103f3575f3660031901126103f357602060405163ffffffff8152f35b346103f3575f3660031901126103f357602060ff61086b5460e01c166040519015158152f35b346103f3575f3660031901126103f35760206040516ec097ce7bc90715b34b9f10000000008152f35b346103f35760203660031901126103f35761074f60043561273381610437565b61273b6134da565b610f9b6135ec565b346103f3575f3660031901126103f35760206001600160a01b0361086a5416604051908152f35b346103f3575f3660031901126103f3576020610c5a546001600160a01b0360405191831c168152f35b634e487b7160e01b5f52603260045260245ffd5b61086c9081548110156127e1576003915f52027f71cd7344f4eb2efc8e30291f6dbdb44d618ca368ea5425d217c1d604bf26b84d01905f90565b612793565b346103f35760203660031901126103f35760043561086c548110156103f3576128106040916127a7565b506001815491015482519182526020820152f35b346103f3575f3660031901126103f35760206040516001600160a01b037f0000000000000000000000000000000000000000000000000000000000000000168152f35b346103f3575f3660031901126103f35760206040517343000000000000000000000000000000000000058152f35b346103f3576128a33661254f565b906128ac6134da565b6128b46135ec565b6001600160a01b0380911691825f52610c5c6020526128ec8160405f20906001600160a01b03166001600160a01b0319825416179055565b16907ff3dc137d2246f9b8abd0bb821e185ba01122c9b3ea3745ffca6208037674d6705f80a36001606555005b916129226135ec565b608082019161293b6124da84516001600160a01b031690565b602081019182514603612a3c57611afc6129639183600161295b896127a7565b50015461394a565b612a2b578060607ff8bd640004bcec1b89657020f561d0b070cbdf662d0b158db9dccb0a8301bfab9201936129a561299f865163ffffffff1690565b87613a0a565b612a1e845194612a036129f58551956129e560408201998a516129cc8d5163ffffffff1690565b89516001600160a01b03169160a086019b8c5194613a77565b5192519751985163ffffffff1690565b93516001600160a01b031690565b935163ffffffff9485604051968796169a1698339386612a66565b0390a46104536001606555565b600460405163582f497d60e11b8152fd5b60046040517f7a47c9a2000000000000000000000000000000000000000000000000000000008152fd5b95949392919060a0870190875260209060a08289015282518091528160c089019301905f5b818110612af8575050506001600160a01b03809316604088015286820360608801528080855193848152019401925f905b838210612adf575050505050906080610453929401906001600160a01b03169052565b8451811686529482019493820193600190910190612abc565b825185529383019391830191600101612a8b565b356106c481610494565b356106c481610437565b9190610180838203126103f357612b35610616565b92612b3f81610448565b8452612b4d60208201610448565b6020850152612b5e60408201610448565b6040850152612b6f60608201610448565b6060850152612b8060808201610448565b608085015260a081013560a085015260c081013560c085015260e081013560e0850152610100612bb18183016104a2565b90850152610120612bc38183016104a2565b90850152610140612bd58183016104a2565b90850152610160918282013567ffffffffffffffff81116103f357612bfa92016106a9565b90830152565b903590601e19813603018212156103f3570180359067ffffffffffffffff82116103f3576020019181360383136103f357565b91909160ff5f5460081c16156103f357612c7d90610c5a624c4b4063ffffffff1982541617905561086b9063ffffffff60c01b1963ffffffff60c01b83549260c01b169116179055565b604051612c898161052f565b6009815260208101926820a1a927a9a996ab1960b91b8452640312e302e360dc1b6020604051612cb88161052f565b60058152015260ff5f5460081c16156103f357612d0793610aa19251902061047f557f06c015bd22b4c69690933c1058878ebdfef31f9aaae40bbe86d8a09fe1b2972c61048055610f93614525565b610453610c5a77deaddeaddeaddeaddeaddeaddeaddeaddead0000000000007fffffffffffffffff0000000000000000000000000000000000000000ffffffff825416179055565b80518210156127e15760209160051b010190565b908210156127e1576110489160051b810190612c00565b908092918237015f815290565b3d15612db1573d90612d9882610657565b91612da660405193846105d4565b82523d5f602084013e565b606090565b908060209392818452848401375f828201840152601f01601f1916010190565b6040513d5f823e3d90fd5b908160209103126103f3575190565b634e487b7160e01b5f52602160045260245ffd5b60031115612e0e57565b612df0565b90612e1e9291612c33565b734300000000000000000000000000000000000002803b156103f3576040517ff098767a0000000000000000000000000000000000000000000000000000000081525f8160048183865af18015611c7057612fbf575b50803b156103f3575f80916004604051809481937f4e606c470000000000000000000000000000000000000000000000000000000083525af18015611c7057612fac575b506040517f1a33757d00000000000000000000000000000000000000000000000000000000808252600260048301526020916001600160a01b039183826024815f7f000000000000000000000000000000000000000000000000000000000000000088165af1918215611c70578492612f8f575b506040519081526002600482015291829060249082905f907f0000000000000000000000000000000000000000000000000000000000000000165af18015611c7057612f76575050565b81612f8c92903d10610e7357610e6481836105d4565b50565b612fa590833d8511610e7357610e6481836105d4565b505f612f2c565b80611c64612fb992610550565b5f612eb8565b80611c64612fcc92610550565b5f612e74565b634e487b7160e01b5f52601160045260245ffd5b91909163ffffffff80809416911601918211612ffe57565b612fd2565b96929993979a94989091959863ffffffff9b6130228d42169182612fe6565b9161302b6135ec565b61086b9a60ff8c5460e81c1661075657613061611afc611af58f611ae88e6001600160a01b03165f5261086d60205260405f2090565b611db2578e613070844261322e565b907f00000000000000000000000000000000000000000000000000000000000000001610611d88578e8085164281109182156131f8575b5050611d28578e9b6001600160a01b039c8d8916908716908181176131e6575b50508c7f0000000000000000000000000000000000000000000000000000000000000000168d8c16818114806131dd575b156131c35750823403611c7557803b156103f3575f60049160405192838092630d0e30db60e41b825234905af18015611c70576131b0575b505b5460c01c63ffffffff169e8f61314790613248565b61316e9061086b9063ffffffff60c01b1963ffffffff60c01b83549260c01b169116179055565b6040519c8d9c169f169d6131829a8c61325d565b037fa123dc29aebf7d0c3322c8eeb5b999e859f39937950ed31056532713d0de396f91a46104536001606555565b80611c646131bd92610550565b5f613130565b905034611c7557826131d891309033906144c8565b613132565b503415156130f8565b15611cfe574211611cd4575f806130c7565b6132269192507f0000000000000000000000000000000000000000000000000000000000000000164261323b565b108f806130a7565b91908203918211612ffe57565b91908201809211612ffe57565b63ffffffff809116908114612ffe5760010190565b6001600160a01b03918216815291811660208301526040820192909252606081019290925263ffffffff928316608083015292821660a0820152921660c083015291821660e0820152911661010082015261014061012082018190526106c493910191612db6565b96909193979295946106c49b9995610140996001600160a01b0398898098818098168d521660208c015260408b015260608a015263ffffffff80921660808a01521660a08801521660c08601521660e084015216610100820152816101208201520191612db6565b906133378261084e565b61334460405191826105d4565b8281528092613355601f199161084e565b01905f5b82811061336557505050565b806060602080938501015201613359565b6020818303126103f35780519067ffffffffffffffff82116103f3570181601f820112156103f35780516133a981610657565b926133b760405194856105d4565b818452602082840101116103f3576106c4916020808501910161104c565b94909693956133e26135ec565b60ff61086b5460e01c16610cf4576133fd6101408701612b0c565b63ffffffff4291161015806134bc575b610cac5761341b3687612b20565b61342490613cad565b9761342d6105f6565b986134383689612b20565b8a5260208a0152604089018490526001600160a01b03851660608a015261346036848a610673565b60808a015260a089015261347386612b16565b966134816101008801612b0c565b92369061348d92610673565b94369061349992610673565b9460e00135906134a8966143c2565b336134b291613e00565b6104536001606555565b506134c960408701612b16565b6001600160a01b031633141561340d565b7342000000000000000000000000000000000000078033036135c2576020600491604051928380927f6e296e450000000000000000000000000000000000000000000000000000000082525afa908115611c70575f91613593575b506001600160a01b03613560613554610869546001600160a01b031690565b6001600160a01b031690565b91160361356957565b60046040517f36a816d9000000000000000000000000000000000000000000000000000000008152fd5b6135b5915060203d6020116135bb575b6135ad81836105d4565b81019061464a565b5f613535565b503d6135a3565b60046040517f4a74df92000000000000000000000000000000000000000000000000000000008152fd5b6002606554146103f3576002606555565b92936106c49695919294610140956001600160a01b0380951686525f60208701526040860152606085015263ffffffff809116608085015260a08401525f60c08401521660e08201525f61010082015281610120820152019061106d565b9195969394929092613689611afc611af588611ae88b6001600160a01b03165f5261086d60205260405f2090565b611db25760070b936706f05b59d3b200006136a38661465f565b1015613872576ec097ce7bc90715b34b9f100000000082116138485763ffffffff936136d1858a164261322e565b857f00000000000000000000000000000000000000000000000000000000000000001610611d885761086b5460c01c63ffffffff16986137366137138b613248565b61086b9063ffffffff60c01b1963ffffffff60c01b83549260c01b169116179055565b6001600160a01b0395867f00000000000000000000000000000000000000000000000000000000000000001694878b168681148061383f575b156138025750803403611c7557853b156103f3575f60049660405197888092630d0e30db60e41b825234905af18015611c70577fa123dc29aebf7d0c3322c8eeb5b999e859f39937950ed31056532713d0de396f996137ea976137d9926137ef575b505b8261466e565b91604051988998169c169a876135fd565b0390a4565b80611c646137fc92610550565b5f6137d1565b6137ea96507fa123dc29aebf7d0c3322c8eeb5b999e859f39937950ed31056532713d0de396f9961383a836137d993309033906144c8565b6137d3565b5034151561376f565b60046040517fc45b6b52000000000000000000000000000000000000000000000000000000008152fd5b60046040517fa13c425c000000000000000000000000000000000000000000000000000000008152fd5b6001600160a01b037f00000000000000000000000000000000000000000000000000000000000000008116911681146138d25750565b476138da5750565b4790803b156103f3575f90600460405180948193630d0e30db60e41b83525af18015611c705715612f8c5761045390610550565b9081518082526020808093019301915f5b82811061392d575050505090565b83516001600160a01b03168552938101939281019260010161391f565b6040805160208082018181528551838501528186015160608401529285015160c0608084015280516101008401819052610120840198979692918201915f5b8281106139f65750505050816139df6106c4979860a0846139b960606139ed9701518387019063ffffffff169052565b60808101516001600160a01b031660c08601520151838203603f190160e085015261390e565b03601f1981018352826105d4565b519020916146a4565b83518b529981019992810192600101613989565b613a156002916127a7565b500162ffffff8260081c16805f5281602052600160ff60405f205494161b8080941614613a4d575f5260205260405f20908154179055565b60046040517f954476d9000000000000000000000000000000000000000000000000000000008152fd5b9294939190938051825103613b45578151915f5b838110613af7575050505082613aa2575b50505050565b6001600160a01b0381613ad67f828fc203220356df8f072a91681caee7d5c75095e2a95e80ed5a14b384697f719386614751565b6040805195865233602087015291169463ffffffff1693a45f808080613a9c565b80613b0460019284612d4f565b5180613b12575b5001613a8b565b613b3f90613b30613b238488612d4f565b516001600160a01b031690565b6001600160a01b0389166146f5565b5f613b0b565b60046040517fcd298b38000000000000000000000000000000000000000000000000000000008152fd5b6001600160a01b03168015613bb75761086a816001600160a01b03198254161790557f1f17a88f67b0f49060a34bec1a4723a563620e6aa265eb640b5046dcee0759a05f80a2565b60046040517f2d234e48000000000000000000000000000000000000000000000000000000008152fd5b80516001600160a01b031682526106c491610180906020838101516001600160a01b0316908201526040838101516001600160a01b0316908201526060838101516001600160a01b0316908201526080838101516001600160a01b03169082015260a083015160a082015260c083015160c082015260e083015160e0820152613c78610100808501519083019063ffffffff169052565b6101208381015163ffffffff16908201526101408381015163ffffffff1690820152816101608094015193820152019061106d565b604051613cde81613cca6020820194604086526060830190613be1565b46604083015203601f1981018352826105d4565b51902090565b613ced82612e04565b52565b906001600160a01b038251168152606080613d1a602085015160806020860152608085019061106d565b9360408101516040850152015191613d3183612e04565b015290565b9a97909695613db4966106c49d9b9660808e613da398613dc39e986101809d6001600160a01b03998a80921685521660208401526040830152606082015201528c60a063ffffffff8094169101521660c08c01521660e08a01526101008901906001600160a01b03169052565b6001600160a01b0316610120870152565b8061014086015284019061106d565b91610160818403910152613cf0565b906106c494936080936001600160a01b0380931684526020840152166040820152816060820152019061106d565b805191610120830190613e17825163ffffffff1690565b63ffffffff429116106140fa5760208301516001613e3e825f5261087260205260405f2090565b54036140f3576001905b6002613e5d825f5261087260205260405f2090565b54146140c957613e76905f5261087260205260405f2090565b6002905560608501516001600160a01b031660808601516001600160a01b03169260a0870151918660c0890151948960a08301519660e082015197610100830151613ec49063ffffffff1690565b9a5163ffffffff1661014084015163ffffffff16906040850151613eee906001600160a01b031690565b928551613f01906001600160a01b031690565b946020870151613f17906001600160a01b031690565b9661016001519760608a0151613f33906001600160a01b031690565b996080810151906040015190613f47610637565b6001600160a01b03909c168c5260208c015260408b0152613f6b9060608b01613ce4565b6040519b6001600160a01b038d9c169f63ffffffff169e613f8c9b8d613d36565b037f571749edf1d5c9599318cdbc4e28a6475d65e87fd3b2ddbe1e9a8d5e7a0f0ff791a460608101516001600160a01b0316918290338214806140c1575b613a9c57608001516001600160a01b03169260806040840151936001600160a01b03861685856001600160a01b037f00000000000000000000000000000000000000000000000000000000000000001683145f146140b1575061403091309033906144c8565b61403a85846148d4565b0151913b1515806140a7575b6140505750505050565b803b156103f35761407d935f809460405196879586948593633a5be8cb60e01b8552339160048601613dd2565b03925af18015611c7057614094575b808080613a9c565b80611c646140a192610550565b5f61408c565b5081511515614046565b6140bc9233906144c8565b61403a565b506001613fca565b60046040517f8f260c60000000000000000000000000000000000000000000000000000000008152fd5b5f90613e48565b600460405163d642b7d960e01b8152fd5b905f82516101208101614122815163ffffffff1690565b63ffffffff429116106140fa5760208501516002614149825f5261087260205260405f2090565b54146140c957614162905f5261087260205260405f2090565b6002905560608201516001600160a01b031660808301516001600160a01b03169060a08401519260c0850151918860a0810151938760e0810151956101008201516141b09063ffffffff1690565b955163ffffffff1661014083015163ffffffff1660408401516001600160a01b03169184516141e5906001600160a01b031690565b9360208601516141fb906001600160a01b031690565b956101600151966060890151614217906001600160a01b031690565b98608081015190604001519061422b610637565b6001600160a01b03909b168b5260208b015260408a0152600260608a01526040519d63ffffffff8f9c169d6142609b8d613d36565b037f571749edf1d5c9599318cdbc4e28a6475d65e87fd3b2ddbe1e9a8d5e7a0f0ff7905f94a460608401516001600160a01b0316906001600160a01b039485831691823314806143bb575b6143b257608001516001600160a01b03169060408101519687818416917f00000000000000000000000000000000000000000000000000000000000000001682145f1461439b57906080929187614387575b6143089150856148d4565b0151923b15158061437d575b614321575b505050509050565b813b15614379578361434d959660405196879586948593633a5be8cb60e01b8552339160048601613dd2565b03925af18015611c7057614366575b8080808493614319565b80611c6461437392610550565b5f61435c565b8380fd5b5082511515614314565b61439491309033906144c8565b5f886142fd565b6080929196506143ad90865f986146f5565b614308565b50505050509050565b505f6142ab565b93926042936001600160a01b03610453989760208151910120916040519363ffffffff60208601967f152eb71524aef34d838ab76573c14b1ebfa5e385d9ab29d7cf5398daa2438bd9885216604086015286606086015260808501521660a083015260c082015260c081526144368161059c565b5190209061047f549061048054906040519160208301937fc2f8787176b8ac6bf7215b4adcc1e069bf4ab82d9ab1df05a57a91d425935b6e85526040840152606083015260808201526080815261448c816105b8565b51902090604051917f19010000000000000000000000000000000000000000000000000000000000008352600283015260228201522090614af1565b909261045393604051937f23b872dd0000000000000000000000000000000000000000000000000000000060208601526001600160a01b038092166024860152166044840152606483015260648252614520826105b8565b614c00565b60ff5f5460081c16156103f357565b60ff5f5460081c16156103f3576001606555565b6001600160a01b0316801561459057610869816001600160a01b03198254161790557fa9e8c42c9e7fca7f62755189a16b2f5314d43d8fb24e91ba54e6d65f9314e8495f80a2565b60046040517fba97b39d000000000000000000000000000000000000000000000000000000008152fd5b91611afc90614633928451604080960151918651916145d883610564565b82526139ed6145f360208401924684528985019586526127a7565b50549388519283916146186020840196602088525160608d86015260a0850190613be1565b9151606084015251608083015203601f1981018352826105d4565b61463a5750565b6004905163582f497d60e11b8152fd5b908160209103126103f357516106c481610437565b5f81126146695790565b5f0390565b90670de0b6b3a7640000915f828403921283831281169084841390151617612ffe57818102918183041490151715612ffe570490565b929091905f915b84518310156146ed576146be8386612d4f565b5190818110156146dc575f52602052600160405f205b9201916146ab565b905f52602052600160405f206146d4565b915092501490565b6040517fa9059cbb0000000000000000000000000000000000000000000000000000000060208201526001600160a01b03909216602483015260448201929092526104539161452082606481015b03601f1981018452836105d4565b906001600160a01b03808216817f0000000000000000000000000000000000000000000000000000000000000000168114809281156148a8575b50614899575b501561489057610c5a5463ffffffff16734300000000000000000000000000000000000005803b156103f3576040517f540abf730000000000000000000000000000000000000000000000000000000081526001600160a01b0393841660048201527f0000000000000000000000000000000000000000000000000000000000000000841660248201527f00000000000000000000000000000000000000000000000000000000000000009093166044840152606483019390935263ffffffff16608482015260c060a48201525f60c482018190529091829081838160e481015b03925af18015611c70576148835750565b80611c6461045392610550565b61045391614f88565b6148a290614c90565b5f614791565b90507f00000000000000000000000000000000000000000000000000000000000000001681145f61478b565b6001600160a01b0390811690813b15614914579061045392917f0000000000000000000000000000000000000000000000000000000000000000166146f5565b7f000000000000000000000000000000000000000000000000000000000000000016803b156103f3575f8091602460405180948193632e1a7d4d60e01b83528860048401525af18015611c7057614986575b508147106103f3575f80809381935af161497e612d87565b50156103f357565b61498f90610550565b5f614966565b61499e81614aae565b6001600160a01b0381167fbc7cd75a20ee27fd9adebab32041f755214dbc6bffa90cc0225b39da2e5c2d3b5f80a2815115801590614a56575b6149df575050565b5f80612f8c937f206661696c65640000000000000000000000000000000000000000000000000060408051614a1381610564565b602781527f416464726573733a206c6f772d6c6576656c2064656c65676174652063616c6c60208201520152602081519101845af4614a50612d87565b9161567f565b505f6149d7565b614a6681614aae565b6001600160a01b0381167fbc7cd75a20ee27fd9adebab32041f755214dbc6bffa90cc0225b39da2e5c2d3b5f80a2815115801590614aa6576149df575050565b5060016149d7565b803b156103f3576001600160a01b037f360894a13ba1a3210667c828492db98dca3e2076cc3735a920a3ca505d382bbc91166001600160a01b0319825416179055565b614afb838361564e565b6005819592951015612e0e57159384614bea575b508315614b4b575b50505015614b2157565b60046040517f938a1821000000000000000000000000000000000000000000000000000000008152fd5b5f929350908291604051614b9c816139df60208201947f1626ba7e00000000000000000000000000000000000000000000000000000000998a8752602484015260406044840152606483019061106d565b51915afa90614ba9612d87565b82614bdc575b82614bbf575b50505f8080614b17565b614bd491925060208082518301019101612de1565b145f80614bb5565b915060208251101591614baf565b6001600160a01b0383811691161493505f614b0f565b905f806001600160a01b03614c579416927f5361666545524332303a206c6f772d6c6576656c2063616c6c206661696c65646020604051614c408161052f565b818152015260208151910182855af1614a50612d87565b8051908115918215614c6d575b5050156103f357565b81925090602091810103126103f35760200151614c8981610aa6565b5f80614c64565b604080517fe12f3a61000000000000000000000000000000000000000000000000000000008152306004820152916001600160a01b03919060209083168185602481845afa948515611c70575f95614f69575b5082517faad3ec960000000000000000000000000000000000000000000000000000000081527f00000000000000000000000000000000000000000000000000000000000000006001600160a01b038116600483015260248201879052959083816044815f875af1908115611c70575f91614f4c575b50809103614f1357808291614edd575b5050837f00000000000000000000000000000000000000000000000000000000000000001614614d995750505050565b81517f860043b60000000000000000000000000000000000000000000000000000000081523060048201526001600160a01b03851660248201527343000000000000000000000000000000000000029082816044815f865af1908115611c70575f91614ec0575b5083517f662aa11d0000000000000000000000000000000000000000000000000000000081523060048201526001600160a01b0387166024820152918390839060449082905f905af1918215611c7057614e62935f93614ea1575b505061323b565b918215613a9c5790519182525f9216907ff3055bc8d92d9c8d2f12b45d112dd345cd2cfd17292b8d65c5642ac6f912dfd790602090a35f808080613a9c565b614eb8929350803d10610e7357610e6481836105d4565b905f80614e5b565b614ed79150833d8511610e7357610e6481836105d4565b5f614e00565b8451908152858716907ff3055bc8d92d9c8d2f12b45d112dd345cd2cfd17292b8d65c5642ac6f912dfd790602090a3805f614d69565b83517f7817528a0000000000000000000000000000000000000000000000000000000081526001600160a01b0383166004820152602490fd5b614f639150843d8611610e7357610e6481836105d4565b5f614d59565b614f81919550823d8411610e7357610e6481836105d4565b935f614ce3565b906001600160a01b0390818116907f0000000000000000000000000000000000000000000000000000000000000000831682036150a25750803b156103f3575f6040518092632e1a7d4d60e01b8252818381614fec89600483019190602083019252565b03925af18015611c705761508f575b50610c5a549161501461086a546001600160a01b031690565b73420000000000000000000000000000000000001090813b156103f357604051631474f2a960e31b81526001600160a01b03602087901c90951685166004820152931660248401526044830182905263ffffffff909316606483015260a060848301525f60a483018190529192839182908160c48101614872565b80611c6461509c92610550565b5f614ffb565b91807f0000000000000000000000000000000000000000000000000000000000000000161515806152e6575b156150f257505050610453906150ed61086a546001600160a01b031690565b615410565b8061511f615112856001600160a01b03165f52610c5c60205260405f2090565b546001600160a01b031690565b166152c2577342000000000000000000000000000000000000105b169061515e613554615112856001600160a01b03165f52610c5d60205260405f2090565b1561523c57838261516e92615311565b61518d615112836001600160a01b03165f52610c5d60205260405f2090565b906151a161086a546001600160a01b031690565b916151b2610c5a5463ffffffff1690565b823b156103f3576040517f4823f1140000000000000000000000000000000000000000000000000000000081526001600160a01b0395861660048201529185166024830152929093166044840152606483019390935263ffffffff16608482015260c060a48201525f60c482018190529091829060e490829084905af18015611c70576148835750565b509161525161086a546001600160a01b031690565b92615262610c5a5463ffffffff1690565b93813b156103f3575f809461487260405197889687958694631474f2a960e31b8652600486019260c0949163ffffffff936001600160a01b038092168652166020850152604084015216606082015260a060808201525f60a08201520190565b6152e1615112846001600160a01b03165f52610c5c60205260405f2090565b61513a565b50807f00000000000000000000000000000000000000000000000000000000000000001682146150ce565b6040517fdd62ed3e0000000000000000000000000000000000000000000000000000000081523060048201526001600160a01b03831660248201529192602083806044810103816001600160a01b0386165afa928315611c70575f936153cf575b508201809211612ffe576040517f095ea7b30000000000000000000000000000000000000000000000000000000060208201526001600160a01b039093166024840152604483019190915261045391906145208260648101614743565b6153e991935060203d602011610e7357610e6481836105d4565b915f615372565b908160209103126103f3575167ffffffffffffffff811681036103f35790565b7f0000000000000000000000000000000000000000000000000000000000000000906001600160a01b0392837f0000000000000000000000000000000000000000000000000000000000000000169161546a828486615311565b604092604051937fcb75c11c0000000000000000000000000000000000000000000000000000000085526020936004908587600481875afa978815611c705789975f99615627575b506040517fa56ec6320000000000000000000000000000000000000000000000000000000081526001600160a01b03918916918216600482015299909887918b9190829081602481015b0392165afa988915611c70575f99615608575b509390951696947f000000000000000000000000000000000000000000000000000000000000000093805b61554957505050505050505050565b6155b390878111156156025787905b84517f6fd3504e00000000000000000000000000000000000000000000000000000000815284810183815263ffffffff89166020820152604081018d90526001600160a01b038c166060820152909389918591829160800190565b03815f8a5af1928315611c70576155cf936155d5575b5061322e565b8061553a565b6155f490893d8b116155fb575b6155ec81836105d4565b8101906153f0565b505f6155c9565b503d6155e2565b80615558565b615620919950863d8811610e7357610e6481836105d4565b975f61550f565b87919950886156456154fc92843d86116135bb576135ad81836105d4565b9a9250506154b2565b9060418151145f146156765761104891602082015190606060408401519301515f1a906156a8565b50505f90600290565b901561569957815115615690575090565b3b156103f35790565b5080519081156103f357602001fd5b7f7fffffffffffffffffffffffffffffff5d576e7357a4501ddfe92f46681b20a08411615718576020935f9360ff60809460405194855216868401526040830152606082015282805260015afa15611c70575f516001600160a01b0381161561571057905f90565b505f90600190565b505050505f9060039056fea264697066735822122027c4e059a4dbab1042a62e15ece79f800889f862cf7638b0d227afc2a683f4e964736f6c63430008170033"
}