{
  "address": "0x4437A1Ee2dFb72954F21A44C3F0F0E2CBA5A5C27",
  "abi": [
    {
      "inputs": [
        {
          "internalType": "contract V3SpokePoolInterface",
          "name": "spokePool",
          "type": "address"
        },
        {
          "internalType": "address",
          "name": "recipient",
          "type": "address"
        },
        {
          "internalType": "address",
          "name": "inputToken",
          "type": "address"
        },
        {
          "internalType": "uint256",
          "name": "inputAmount",
          "type": "uint256"
        },
        {
          "internalType": "uint256",
          "name": "outputAmount",
          "type": "uint256"
        },
        {
          "internalType": "uint256",
          "name": "destinationChainId",
          "type": "uint256"
        },
        {
          "internalType": "address",
          "name": "exclusiveRelayer",
          "type": "address"
        },
        {
          "internalType": "uint32",
          "name": "quoteTimestamp",
          "type": "uint32"
        },
        {
          "internalType": "uint32",
          "name": "fillDeadline",
          "type": "uint32"
        },
        {
          "internalType": "uint32",
          "name": "exclusivityDeadline",
          "type": "uint32"
        },
        {
          "internalType": "bytes",
          "name": "message",
          "type": "bytes"
        }
      ],
      "name": "deposit",
      "outputs": [],
      "stateMutability": "payable",
      "type": "function"
    }
  ],
  "transactionHash": "0xe259337cf4b70f887a1dd10f1968159f400b5b797723ba58355aa77e8dffc0ac",
  "args": [],
  "numDeployments": 3,
  "solcInputHash": "783274f805324492b21545b62eb0dbfe",
  "bytecode": "0x60808060405234610016576103a4908161001c8239f35b600080fdfe600436101561000d57600080fd5b6000803560e01c63902e949c1461002357600080fd5b6101607ffffffffffffffffffffffffffffffffffffffffffffffffffffffffffffffffc36011261036b5773ffffffffffffffffffffffffffffffffffffffff6004358181168103610367576024359082821682036103635760443591838316830361035f5760c435848116810361035b5760e4359063ffffffff928383168303610357576101043590848216820361035357610124359385851685036103225767ffffffffffffffff610144351161032257366023610144350112156103225767ffffffffffffffff6101443560040135116103265767ffffffffffffffff6004610144350135601f017fffffffffffffffffffffffffffffffffffffffffffffffffffffffffffffffe0908116603f0116608090810191821191101761032657608060046101443590810135601f81017fffffffffffffffffffffffffffffffffffffffffffffffffffffffffffffffe0908116603f011683016040529182905236910160240111610322576101443560048101359060240160a03760a06004610144350135018a90526064353403610322578887163b15610322578887163b1561032257918589979593888296818e9c60409e9b979e519e8f9d8e917f7b9392320000000000000000000000000000000000000000000000000000000083523360048401521690602401521660448c01528b60648c015260643560848c015260843560a48c015260a43560c48c01521660e48a01521661010488015216610124860152166101448401526101648301610180905260805180610184850152845b8181106103075750908391827fffffffffffffffffffffffffffffffffffffffffffffffffffffffffffffffe0601f6101a49389858286010152011681010301923491165af180156102fc576102ba575080f35b67ffffffffffffffff81116102cf5760405280f35b6024827f4e487b710000000000000000000000000000000000000000000000000000000081526041600452fd5b6040513d84823e3d90fd5b60a08101518782016101a40152879550869450602001610266565b8980fd5b60248a7f4e487b710000000000000000000000000000000000000000000000000000000081526041600452fd5b8880fd5b8780fd5b8580fd5b8480fd5b8380fd5b8280fd5b80fdfea26469706673582212201ceff237e6adbd0d3f92e892f7f3f51306c23eac5f7e3f896c2c723d9e5be3a664736f6c63430008130033",
  "devdoc": {
    "custom:security-contact": "bugs@across.to",
    "details": "This contract must be deployed via Create2 to the same address on all chains. That way, an errant transaction sent to the wrong chain will be blocked by this contract rather than hitting a dead address. This means that this contract will not work to protect chains, like zkSync, where Create2 address derivations don't match other chains. Source: https://era.zksync.io/docs/reference/architecture/differences-with-ethereum.html#create-create2",
    "kind": "dev",
    "methods": {
      "deposit(address,address,address,uint256,uint256,uint256,address,uint32,uint32,uint32,bytes)": {
        "details": "Protects the caller from losing their ETH (or other native token) by reverting if the SpokePool address they intended to call does not exist on this chain. Because this contract can be deployed at the same address everywhere callers should be protected even if the transaction is submitted to an unintended network. This contract should only be used for native token deposits, as this problem only exists for native tokens.",
        "params": {
          "destinationChainId": "Denotes network where user will receive funds from SpokePool by a relayer.",
          "exclusiveRelayer": "Address of the relayer who has exclusive rights to fill this deposit. Can be set to 0x0 if no exclusivity period is desired. If so, then must set exclusivityDeadline to 0.",
          "exclusivityDeadline": "Timestamp after which any relayer can fill this deposit. Must set to 0 if exclusiveRelayer is set to 0x0, and vice versa.",
          "fillDeadline": "Timestamp after which this deposit can no longer be filled.",
          "inputAmount": "Amount of tokens to deposit.",
          "inputToken": "Token to lock into this contract to initiate deposit.",
          "message": "Arbitrary data that can be used to pass additional information to the recipient along with the tokens. Note: this is intended to be used to pass along instructions for how a contract should use or allocate the tokens.",
          "outputAmount": "Amount of tokens to receive on destination chain.",
          "quoteTimestamp": "Timestamp used by relayers to compute this deposit's realizedLPFeePct which is paid to LP pool on HubPool.",
          "recipient": "Address to receive funds at on destination chain.",
          "spokePool": "Address of the SpokePool contract that the user is intending to call."
        }
      }
    },
    "version": 1
  },
  "userdoc": {
    "kind": "user",
    "methods": {
      "deposit(address,address,address,uint256,uint256,uint256,address,uint32,uint32,uint32,bytes)": {
        "notice": "Passthrough function to `depositV3()` on the SpokePool contract."
      }
    },
    "notice": "SpokePoolVerifier is a contract that verifies that the SpokePool exists on this chain before sending ETH to it.",
    "version": 1
  },
  "storageLayout": {
    "storage": [],
    "types": null
  }
}