{
  "address": "0xB851556Fa82E7FD8e2233643Ca878a081AbfC127",
  "abi": [
    {
      "inputs": [
        {
          "internalType": "address",
          "name": "_helios",
          "type": "address"
        },
        {
          "internalType": "address",
          "name": "_hubPoolStore",
          "type": "address"
        },
        {
          "internalType": "address",
          "name": "_wrappedNativeTokenAddress",
          "type": "address"
        },
        {
          "internalType": "uint32",
          "name": "_depositQuoteTimeBuffer",
          "type": "uint32"
        },
        {
          "internalType": "uint32",
          "name": "_fillDeadlineBuffer",
          "type": "uint32"
        },
        {
          "internalType": "contract IERC20",
          "name": "_l2Usdc",
          "type": "address"
        },
        {
          "internalType": "contract ITokenMessenger",
          "name": "_cctpTokenMessenger",
          "type": "address"
        }
      ],
      "stateMutability": "nonpayable",
      "type": "constructor"
    },
    {
      "inputs": [],
      "name": "AdminCallAlreadySet",
      "type": "error"
    },
    {
      "inputs": [],
      "name": "AdminCallNotValidated",
      "type": "error"
    },
    {
      "inputs": [],
      "name": "AlreadyReceived",
      "type": "error"
    },
    {
      "inputs": [],
      "name": "ClaimedMerkleLeaf",
      "type": "error"
    },
    {
      "inputs": [],
      "name": "DelegateCallFailed",
      "type": "error"
    },
    {
      "inputs": [],
      "name": "DepositsArePaused",
      "type": "error"
    },
    {
      "inputs": [],
      "name": "DisabledRoute",
      "type": "error"
    },
    {
      "inputs": [],
      "name": "ExpiredFillDeadline",
      "type": "error"
    },
    {
      "inputs": [],
      "name": "FillsArePaused",
      "type": "error"
    },
    {
      "inputs": [],
      "name": "InsufficientSpokePoolBalanceToExecuteLeaf",
      "type": "error"
    },
    {
      "inputs": [],
      "name": "InvalidBytes32",
      "type": "error"
    },
    {
      "inputs": [],
      "name": "InvalidChainId",
      "type": "error"
    },
    {
      "inputs": [],
      "name": "InvalidCrossDomainAdmin",
      "type": "error"
    },
    {
      "inputs": [],
      "name": "InvalidDepositorSignature",
      "type": "error"
    },
    {
      "inputs": [],
      "name": "InvalidExclusiveRelayer",
      "type": "error"
    },
    {
      "inputs": [],
      "name": "InvalidFillDeadline",
      "type": "error"
    },
    {
      "inputs": [],
      "name": "InvalidMerkleLeaf",
      "type": "error"
    },
    {
      "inputs": [],
      "name": "InvalidMerkleProof",
      "type": "error"
    },
    {
      "inputs": [],
      "name": "InvalidPayoutAdjustmentPct",
      "type": "error"
    },
    {
      "inputs": [],
      "name": "InvalidQuoteTimestamp",
      "type": "error"
    },
    {
      "inputs": [],
      "name": "InvalidRelayerFeePct",
      "type": "error"
    },
    {
      "inputs": [],
      "name": "InvalidSlowFillRequest",
      "type": "error"
    },
    {
      "inputs": [],
      "name": "InvalidWithdrawalRecipient",
      "type": "error"
    },
    {
      "inputs": [
        {
          "internalType": "bytes",
          "name": "data",
          "type": "bytes"
        }
      ],
      "name": "LowLevelCallFailed",
      "type": "error"
    },
    {
      "inputs": [],
      "name": "MaxTransferSizeExceeded",
      "type": "error"
    },
    {
      "inputs": [],
      "name": "MsgValueDoesNotMatchInputAmount",
      "type": "error"
    },
    {
      "inputs": [],
      "name": "NoRelayerRefundToClaim",
      "type": "error"
    },
    {
      "inputs": [],
      "name": "NoSlowFillsInExclusivityWindow",
      "type": "error"
    },
    {
      "inputs": [],
      "name": "NotEOA",
      "type": "error"
    },
    {
      "inputs": [],
      "name": "NotExclusiveRelayer",
      "type": "error"
    },
    {
      "inputs": [],
      "name": "NotImplemented",
      "type": "error"
    },
    {
      "inputs": [],
      "name": "NotTarget",
      "type": "error"
    },
    {
      "inputs": [],
      "name": "RelayFilled",
      "type": "error"
    },
    {
      "inputs": [],
      "name": "SlotValueMismatch",
      "type": "error"
    },
    {
      "inputs": [],
      "name": "WrongERC7683OrderId",
      "type": "error"
    },
    {
      "anonymous": false,
      "inputs": [
        {
          "indexed": false,
          "internalType": "address",
          "name": "previousAdmin",
          "type": "address"
        },
        {
          "indexed": false,
          "internalType": "address",
          "name": "newAdmin",
          "type": "address"
        }
      ],
      "name": "AdminChanged",
      "type": "event"
    },
    {
      "anonymous": false,
      "inputs": [
        {
          "indexed": true,
          "internalType": "address",
          "name": "beacon",
          "type": "address"
        }
      ],
      "name": "BeaconUpgraded",
      "type": "event"
    },
    {
      "anonymous": false,
      "inputs": [
        {
          "indexed": true,
          "internalType": "bytes32",
          "name": "l2TokenAddress",
          "type": "bytes32"
        },
        {
          "indexed": true,
          "internalType": "bytes32",
          "name": "refundAddress",
          "type": "bytes32"
        },
        {
          "indexed": false,
          "internalType": "uint256",
          "name": "amount",
          "type": "uint256"
        },
        {
          "indexed": true,
          "internalType": "address",
          "name": "caller",
          "type": "address"
        }
      ],
      "name": "ClaimedRelayerRefund",
      "type": "event"
    },
    {
      "anonymous": false,
      "inputs": [
        {
          "indexed": true,
          "internalType": "uint256",
          "name": "rootBundleId",
          "type": "uint256"
        }
      ],
      "name": "EmergencyDeletedRootBundle",
      "type": "event"
    },
    {
      "anonymous": false,
      "inputs": [
        {
          "indexed": true,
          "internalType": "address",
          "name": "originToken",
          "type": "address"
        },
        {
          "indexed": true,
          "internalType": "uint256",
          "name": "destinationChainId",
          "type": "uint256"
        },
        {
          "indexed": false,
          "internalType": "bool",
          "name": "enabled",
          "type": "bool"
        }
      ],
      "name": "EnabledDepositRoute",
      "type": "event"
    },
    {
      "anonymous": false,
      "inputs": [
        {
          "indexed": false,
          "internalType": "uint256",
          "name": "amountToReturn",
          "type": "uint256"
        },
        {
          "indexed": true,
          "internalType": "uint256",
          "name": "chainId",
          "type": "uint256"
        },
        {
          "indexed": false,
          "internalType": "uint256[]",
          "name": "refundAmounts",
          "type": "uint256[]"
        },
        {
          "indexed": true,
          "internalType": "uint32",
          "name": "rootBundleId",
          "type": "uint32"
        },
        {
          "indexed": true,
          "internalType": "uint32",
          "name": "leafId",
          "type": "uint32"
        },
        {
          "indexed": false,
          "internalType": "address",
          "name": "l2TokenAddress",
          "type": "address"
        },
        {
          "indexed": false,
          "internalType": "address[]",
          "name": "refundAddresses",
          "type": "address[]"
        },
        {
          "indexed": false,
          "internalType": "bool",
          "name": "deferredRefunds",
          "type": "bool"
        },
        {
          "indexed": false,
          "internalType": "address",
          "name": "caller",
          "type": "address"
        }
      ],
      "name": "ExecutedRelayerRefundRoot",
      "type": "event"
    },
    {
      "anonymous": false,
      "inputs": [
        {
          "indexed": false,
          "internalType": "bytes32",
          "name": "inputToken",
          "type": "bytes32"
        },
        {
          "indexed": false,
          "internalType": "bytes32",
          "name": "outputToken",
          "type": "bytes32"
        },
        {
          "indexed": false,
          "internalType": "uint256",
          "name": "inputAmount",
          "type": "uint256"
        },
        {
          "indexed": false,
          "internalType": "uint256",
          "name": "outputAmount",
          "type": "uint256"
        },
        {
          "indexed": false,
          "internalType": "uint256",
          "name": "repaymentChainId",
          "type": "uint256"
        },
        {
          "indexed": true,
          "internalType": "uint256",
          "name": "originChainId",
          "type": "uint256"
        },
        {
          "indexed": true,
          "internalType": "uint256",
          "name": "depositId",
          "type": "uint256"
        },
        {
          "indexed": false,
          "internalType": "uint32",
          "name": "fillDeadline",
          "type": "uint32"
        },
        {
          "indexed": false,
          "internalType": "uint32",
          "name": "exclusivityDeadline",
          "type": "uint32"
        },
        {
          "indexed": false,
          "internalType": "bytes32",
          "name": "exclusiveRelayer",
          "type": "bytes32"
        },
        {
          "indexed": true,
          "internalType": "bytes32",
          "name": "relayer",
          "type": "bytes32"
        },
        {
          "indexed": false,
          "internalType": "bytes32",
          "name": "depositor",
          "type": "bytes32"
        },
        {
          "indexed": false,
          "internalType": "bytes32",
          "name": "recipient",
          "type": "bytes32"
        },
        {
          "indexed": false,
          "internalType": "bytes32",
          "name": "messageHash",
          "type": "bytes32"
        },
        {
          "components": [
            {
              "internalType": "bytes32",
              "name": "updatedRecipient",
              "type": "bytes32"
            },
            {
              "internalType": "bytes32",
              "name": "updatedMessageHash",
              "type": "bytes32"
            },
            {
              "internalType": "uint256",
              "name": "updatedOutputAmount",
              "type": "uint256"
            },
            {
              "internalType": "enum V3SpokePoolInterface.FillType",
              "name": "fillType",
              "type": "uint8"
            }
          ],
          "indexed": false,
          "internalType": "struct V3SpokePoolInterface.V3RelayExecutionEventInfo",
          "name": "relayExecutionInfo",
          "type": "tuple"
        }
      ],
      "name": "FilledRelay",
      "type": "event"
    },
    {
      "anonymous": false,
      "inputs": [
        {
          "indexed": false,
          "internalType": "address",
          "name": "inputToken",
          "type": "address"
        },
        {
          "indexed": false,
          "internalType": "address",
          "name": "outputToken",
          "type": "address"
        },
        {
          "indexed": false,
          "internalType": "uint256",
          "name": "inputAmount",
          "type": "uint256"
        },
        {
          "indexed": false,
          "internalType": "uint256",
          "name": "outputAmount",
          "type": "uint256"
        },
        {
          "indexed": false,
          "internalType": "uint256",
          "name": "repaymentChainId",
          "type": "uint256"
        },
        {
          "indexed": true,
          "internalType": "uint256",
          "name": "originChainId",
          "type": "uint256"
        },
        {
          "indexed": true,
          "internalType": "uint32",
          "name": "depositId",
          "type": "uint32"
        },
        {
          "indexed": false,
          "internalType": "uint32",
          "name": "fillDeadline",
          "type": "uint32"
        },
        {
          "indexed": false,
          "internalType": "uint32",
          "name": "exclusivityDeadline",
          "type": "uint32"
        },
        {
          "indexed": false,
          "internalType": "address",
          "name": "exclusiveRelayer",
          "type": "address"
        },
        {
          "indexed": true,
          "internalType": "address",
          "name": "relayer",
          "type": "address"
        },
        {
          "indexed": false,
          "internalType": "address",
          "name": "depositor",
          "type": "address"
        },
        {
          "indexed": false,
          "internalType": "address",
          "name": "recipient",
          "type": "address"
        },
        {
          "indexed": false,
          "internalType": "bytes",
          "name": "message",
          "type": "bytes"
        },
        {
          "components": [
            {
              "internalType": "address",
              "name": "updatedRecipient",
              "type": "address"
            },
            {
              "internalType": "bytes",
              "name": "updatedMessage",
              "type": "bytes"
            },
            {
              "internalType": "uint256",
              "name": "updatedOutputAmount",
              "type": "uint256"
            },
            {
              "internalType": "enum V3SpokePoolInterface.FillType",
              "name": "fillType",
              "type": "uint8"
            }
          ],
          "indexed": false,
          "internalType": "struct V3SpokePoolInterface.LegacyV3RelayExecutionEventInfo",
          "name": "relayExecutionInfo",
          "type": "tuple"
        }
      ],
      "name": "FilledV3Relay",
      "type": "event"
    },
    {
      "anonymous": false,
      "inputs": [
        {
          "indexed": false,
          "internalType": "bytes32",
          "name": "inputToken",
          "type": "bytes32"
        },
        {
          "indexed": false,
          "internalType": "bytes32",
          "name": "outputToken",
          "type": "bytes32"
        },
        {
          "indexed": false,
          "internalType": "uint256",
          "name": "inputAmount",
          "type": "uint256"
        },
        {
          "indexed": false,
          "internalType": "uint256",
          "name": "outputAmount",
          "type": "uint256"
        },
        {
          "indexed": true,
          "internalType": "uint256",
          "name": "destinationChainId",
          "type": "uint256"
        },
        {
          "indexed": true,
          "internalType": "uint256",
          "name": "depositId",
          "type": "uint256"
        },
        {
          "indexed": false,
          "internalType": "uint32",
          "name": "quoteTimestamp",
          "type": "uint32"
        },
        {
          "indexed": false,
          "internalType": "uint32",
          "name": "fillDeadline",
          "type": "uint32"
        },
        {
          "indexed": false,
          "internalType": "uint32",
          "name": "exclusivityDeadline",
          "type": "uint32"
        },
        {
          "indexed": true,
          "internalType": "bytes32",
          "name": "depositor",
          "type": "bytes32"
        },
        {
          "indexed": false,
          "internalType": "bytes32",
          "name": "recipient",
          "type": "bytes32"
        },
        {
          "indexed": false,
          "internalType": "bytes32",
          "name": "exclusiveRelayer",
          "type": "bytes32"
        },
        {
          "indexed": false,
          "internalType": "bytes",
          "name": "message",
          "type": "bytes"
        }
      ],
      "name": "FundsDeposited",
      "type": "event"
    },
    {
      "anonymous": false,
      "inputs": [
        {
          "indexed": false,
          "internalType": "uint8",
          "name": "version",
          "type": "uint8"
        }
      ],
      "name": "Initialized",
      "type": "event"
    },
    {
      "anonymous": false,
      "inputs": [
        {
          "indexed": true,
          "internalType": "address",
          "name": "previousOwner",
          "type": "address"
        },
        {
          "indexed": true,
          "internalType": "address",
          "name": "newOwner",
          "type": "address"
        }
      ],
      "name": "OwnershipTransferred",
      "type": "event"
    },
    {
      "anonymous": false,
      "inputs": [
        {
          "indexed": false,
          "internalType": "bool",
          "name": "isPaused",
          "type": "bool"
        }
      ],
      "name": "PausedDeposits",
      "type": "event"
    },
    {
      "anonymous": false,
      "inputs": [
        {
          "indexed": false,
          "internalType": "bool",
          "name": "isPaused",
          "type": "bool"
        }
      ],
      "name": "PausedFills",
      "type": "event"
    },
    {
      "anonymous": false,
      "inputs": [
        {
          "indexed": true,
          "internalType": "uint32",
          "name": "rootBundleId",
          "type": "uint32"
        },
        {
          "indexed": true,
          "internalType": "bytes32",
          "name": "relayerRefundRoot",
          "type": "bytes32"
        },
        {
          "indexed": true,
          "internalType": "bytes32",
          "name": "slowRelayRoot",
          "type": "bytes32"
        }
      ],
      "name": "RelayedRootBundle",
      "type": "event"
    },
    {
      "anonymous": false,
      "inputs": [
        {
          "indexed": false,
          "internalType": "bytes32",
          "name": "inputToken",
          "type": "bytes32"
        },
        {
          "indexed": false,
          "internalType": "bytes32",
          "name": "outputToken",
          "type": "bytes32"
        },
        {
          "indexed": false,
          "internalType": "uint256",
          "name": "inputAmount",
          "type": "uint256"
        },
        {
          "indexed": false,
          "internalType": "uint256",
          "name": "outputAmount",
          "type": "uint256"
        },
        {
          "indexed": true,
          "internalType": "uint256",
          "name": "originChainId",
          "type": "uint256"
        },
        {
          "indexed": true,
          "internalType": "uint256",
          "name": "depositId",
          "type": "uint256"
        },
        {
          "indexed": false,
          "internalType": "uint32",
          "name": "fillDeadline",
          "type": "uint32"
        },
        {
          "indexed": false,
          "internalType": "uint32",
          "name": "exclusivityDeadline",
          "type": "uint32"
        },
        {
          "indexed": false,
          "internalType": "bytes32",
          "name": "exclusiveRelayer",
          "type": "bytes32"
        },
        {
          "indexed": false,
          "internalType": "bytes32",
          "name": "depositor",
          "type": "bytes32"
        },
        {
          "indexed": false,
          "internalType": "bytes32",
          "name": "recipient",
          "type": "bytes32"
        },
        {
          "indexed": false,
          "internalType": "bytes32",
          "name": "messageHash",
          "type": "bytes32"
        }
      ],
      "name": "RequestedSlowFill",
      "type": "event"
    },
    {
      "anonymous": false,
      "inputs": [
        {
          "indexed": false,
          "internalType": "uint256",
          "name": "updatedOutputAmount",
          "type": "uint256"
        },
        {
          "indexed": true,
          "internalType": "uint256",
          "name": "depositId",
          "type": "uint256"
        },
        {
          "indexed": true,
          "internalType": "bytes32",
          "name": "depositor",
          "type": "bytes32"
        },
        {
          "indexed": false,
          "internalType": "bytes32",
          "name": "updatedRecipient",
          "type": "bytes32"
        },
        {
          "indexed": false,
          "internalType": "bytes",
          "name": "updatedMessage",
          "type": "bytes"
        },
        {
          "indexed": false,
          "internalType": "bytes",
          "name": "depositorSignature",
          "type": "bytes"
        }
      ],
      "name": "RequestedSpeedUpDeposit",
      "type": "event"
    },
    {
      "anonymous": false,
      "inputs": [
        {
          "indexed": false,
          "internalType": "uint256",
          "name": "updatedOutputAmount",
          "type": "uint256"
        },
        {
          "indexed": true,
          "internalType": "uint32",
          "name": "depositId",
          "type": "uint32"
        },
        {
          "indexed": true,
          "internalType": "address",
          "name": "depositor",
          "type": "address"
        },
        {
          "indexed": false,
          "internalType": "address",
          "name": "updatedRecipient",
          "type": "address"
        },
        {
          "indexed": false,
          "internalType": "bytes",
          "name": "updatedMessage",
          "type": "bytes"
        },
        {
          "indexed": false,
          "internalType": "bytes",
          "name": "depositorSignature",
          "type": "bytes"
        }
      ],
      "name": "RequestedSpeedUpV3Deposit",
      "type": "event"
    },
    {
      "anonymous": false,
      "inputs": [
        {
          "indexed": false,
          "internalType": "address",
          "name": "inputToken",
          "type": "address"
        },
        {
          "indexed": false,
          "internalType": "address",
          "name": "outputToken",
          "type": "address"
        },
        {
          "indexed": false,
          "internalType": "uint256",
          "name": "inputAmount",
          "type": "uint256"
        },
        {
          "indexed": false,
          "internalType": "uint256",
          "name": "outputAmount",
          "type": "uint256"
        },
        {
          "indexed": true,
          "internalType": "uint256",
          "name": "originChainId",
          "type": "uint256"
        },
        {
          "indexed": true,
          "internalType": "uint32",
          "name": "depositId",
          "type": "uint32"
        },
        {
          "indexed": false,
          "internalType": "uint32",
          "name": "fillDeadline",
          "type": "uint32"
        },
        {
          "indexed": false,
          "internalType": "uint32",
          "name": "exclusivityDeadline",
          "type": "uint32"
        },
        {
          "indexed": false,
          "internalType": "address",
          "name": "exclusiveRelayer",
          "type": "address"
        },
        {
          "indexed": false,
          "internalType": "address",
          "name": "depositor",
          "type": "address"
        },
        {
          "indexed": false,
          "internalType": "address",
          "name": "recipient",
          "type": "address"
        },
        {
          "indexed": false,
          "internalType": "bytes",
          "name": "message",
          "type": "bytes"
        }
      ],
      "name": "RequestedV3SlowFill",
      "type": "event"
    },
    {
      "anonymous": false,
      "inputs": [
        {
          "indexed": true,
          "internalType": "address",
          "name": "newWithdrawalRecipient",
          "type": "address"
        }
      ],
      "name": "SetWithdrawalRecipient",
      "type": "event"
    },
    {
      "anonymous": false,
      "inputs": [
        {
          "indexed": true,
          "internalType": "address",
          "name": "newAdmin",
          "type": "address"
        }
      ],
      "name": "SetXDomainAdmin",
      "type": "event"
    },
    {
      "anonymous": false,
      "inputs": [
        {
          "indexed": false,
          "internalType": "uint256",
          "name": "amountToReturn",
          "type": "uint256"
        },
        {
          "indexed": true,
          "internalType": "uint256",
          "name": "chainId",
          "type": "uint256"
        },
        {
          "indexed": true,
          "internalType": "uint32",
          "name": "leafId",
          "type": "uint32"
        },
        {
          "indexed": true,
          "internalType": "bytes32",
          "name": "l2TokenAddress",
          "type": "bytes32"
        },
        {
          "indexed": false,
          "internalType": "address",
          "name": "caller",
          "type": "address"
        }
      ],
      "name": "TokensBridged",
      "type": "event"
    },
    {
      "anonymous": false,
      "inputs": [
        {
          "indexed": true,
          "internalType": "address",
          "name": "implementation",
          "type": "address"
        }
      ],
      "name": "Upgraded",
      "type": "event"
    },
    {
      "anonymous": false,
      "inputs": [
        {
          "indexed": false,
          "internalType": "address",
          "name": "inputToken",
          "type": "address"
        },
        {
          "indexed": false,
          "internalType": "address",
          "name": "outputToken",
          "type": "address"
        },
        {
          "indexed": false,
          "internalType": "uint256",
          "name": "inputAmount",
          "type": "uint256"
        },
        {
          "indexed": false,
          "internalType": "uint256",
          "name": "outputAmount",
          "type": "uint256"
        },
        {
          "indexed": true,
          "internalType": "uint256",
          "name": "destinationChainId",
          "type": "uint256"
        },
        {
          "indexed": true,
          "internalType": "uint32",
          "name": "depositId",
          "type": "uint32"
        },
        {
          "indexed": false,
          "internalType": "uint32",
          "name": "quoteTimestamp",
          "type": "uint32"
        },
        {
          "indexed": false,
          "internalType": "uint32",
          "name": "fillDeadline",
          "type": "uint32"
        },
        {
          "indexed": false,
          "internalType": "uint32",
          "name": "exclusivityDeadline",
          "type": "uint32"
        },
        {
          "indexed": true,
          "internalType": "address",
          "name": "depositor",
          "type": "address"
        },
        {
          "indexed": false,
          "internalType": "address",
          "name": "recipient",
          "type": "address"
        },
        {
          "indexed": false,
          "internalType": "address",
          "name": "exclusiveRelayer",
          "type": "address"
        },
        {
          "indexed": false,
          "internalType": "bytes",
          "name": "message",
          "type": "bytes"
        }
      ],
      "name": "V3FundsDeposited",
      "type": "event"
    },
    {
      "anonymous": false,
      "inputs": [
        {
          "indexed": true,
          "internalType": "bytes32",
          "name": "dataHash",
          "type": "bytes32"
        },
        {
          "indexed": false,
          "internalType": "address",
          "name": "caller",
          "type": "address"
        }
      ],
      "name": "VerifiedProof",
      "type": "event"
    },
    {
      "inputs": [],
      "name": "EMPTY_RELAYER",
      "outputs": [
        {
          "internalType": "bytes32",
          "name": "",
          "type": "bytes32"
        }
      ],
      "stateMutability": "view",
      "type": "function"
    },
    {
      "inputs": [],
      "name": "EMPTY_REPAYMENT_CHAIN_ID",
      "outputs": [
        {
          "internalType": "uint256",
          "name": "",
          "type": "uint256"
        }
      ],
      "stateMutability": "view",
      "type": "function"
    },
    {
      "inputs": [],
      "name": "INFINITE_FILL_DEADLINE",
      "outputs": [
        {
          "internalType": "uint32",
          "name": "",
          "type": "uint32"
        }
      ],
      "stateMutability": "view",
      "type": "function"
    },
    {
      "inputs": [],
      "name": "MAX_EXCLUSIVITY_PERIOD_SECONDS",
      "outputs": [
        {
          "internalType": "uint32",
          "name": "",
          "type": "uint32"
        }
      ],
      "stateMutability": "view",
      "type": "function"
    },
    {
      "inputs": [],
      "name": "MAX_TRANSFER_SIZE",
      "outputs": [
        {
          "internalType": "uint256",
          "name": "",
          "type": "uint256"
        }
      ],
      "stateMutability": "view",
      "type": "function"
    },
    {
      "inputs": [],
      "name": "UPDATE_ADDRESS_DEPOSIT_DETAILS_HASH",
      "outputs": [
        {
          "internalType": "bytes32",
          "name": "",
          "type": "bytes32"
        }
      ],
      "stateMutability": "view",
      "type": "function"
    },
    {
      "inputs": [],
      "name": "UPDATE_BYTES32_DEPOSIT_DETAILS_HASH",
      "outputs": [
        {
          "internalType": "bytes32",
          "name": "",
          "type": "bytes32"
        }
      ],
      "stateMutability": "view",
      "type": "function"
    },
    {
      "inputs": [
        {
          "internalType": "uint32",
          "name": "_initialDepositId",
          "type": "uint32"
        },
        {
          "internalType": "address",
          "name": "_crossDomainAdmin",
          "type": "address"
        },
        {
          "internalType": "address",
          "name": "_withdrawalRecipient",
          "type": "address"
        }
      ],
      "name": "__SpokePool_init",
      "outputs": [],
      "stateMutability": "nonpayable",
      "type": "function"
    },
    {
      "inputs": [
        {
          "internalType": "bytes",
          "name": "message",
          "type": "bytes"
        }
      ],
      "name": "adminReceiveL1State",
      "outputs": [],
      "stateMutability": "nonpayable",
      "type": "function"
    },
    {
      "inputs": [],
      "name": "cctpTokenMessenger",
      "outputs": [
        {
          "internalType": "contract ITokenMessenger",
          "name": "",
          "type": "address"
        }
      ],
      "stateMutability": "view",
      "type": "function"
    },
    {
      "inputs": [],
      "name": "chainId",
      "outputs": [
        {
          "internalType": "uint256",
          "name": "",
          "type": "uint256"
        }
      ],
      "stateMutability": "view",
      "type": "function"
    },
    {
      "inputs": [
        {
          "internalType": "bytes32",
          "name": "l2TokenAddress",
          "type": "bytes32"
        },
        {
          "internalType": "bytes32",
          "name": "refundAddress",
          "type": "bytes32"
        }
      ],
      "name": "claimRelayerRefund",
      "outputs": [],
      "stateMutability": "nonpayable",
      "type": "function"
    },
    {
      "inputs": [],
      "name": "crossDomainAdmin",
      "outputs": [
        {
          "internalType": "address",
          "name": "",
          "type": "address"
        }
      ],
      "stateMutability": "view",
      "type": "function"
    },
    {
      "inputs": [
        {
          "internalType": "bytes32",
          "name": "depositor",
          "type": "bytes32"
        },
        {
          "internalType": "bytes32",
          "name": "recipient",
          "type": "bytes32"
        },
        {
          "internalType": "bytes32",
          "name": "inputToken",
          "type": "bytes32"
        },
        {
          "internalType": "bytes32",
          "name": "outputToken",
          "type": "bytes32"
        },
        {
          "internalType": "uint256",
          "name": "inputAmount",
          "type": "uint256"
        },
        {
          "internalType": "uint256",
          "name": "outputAmount",
          "type": "uint256"
        },
        {
          "internalType": "uint256",
          "name": "destinationChainId",
          "type": "uint256"
        },
        {
          "internalType": "bytes32",
          "name": "exclusiveRelayer",
          "type": "bytes32"
        },
        {
          "internalType": "uint32",
          "name": "quoteTimestamp",
          "type": "uint32"
        },
        {
          "internalType": "uint32",
          "name": "fillDeadline",
          "type": "uint32"
        },
        {
          "internalType": "uint32",
          "name": "exclusivityParameter",
          "type": "uint32"
        },
        {
          "internalType": "bytes",
          "name": "message",
          "type": "bytes"
        }
      ],
      "name": "deposit",
      "outputs": [],
      "stateMutability": "payable",
      "type": "function"
    },
    {
      "inputs": [
        {
          "internalType": "address",
          "name": "recipient",
          "type": "address"
        },
        {
          "internalType": "address",
          "name": "originToken",
          "type": "address"
        },
        {
          "internalType": "uint256",
          "name": "amount",
          "type": "uint256"
        },
        {
          "internalType": "uint256",
          "name": "destinationChainId",
          "type": "uint256"
        },
        {
          "internalType": "int64",
          "name": "relayerFeePct",
          "type": "int64"
        },
        {
          "internalType": "uint32",
          "name": "quoteTimestamp",
          "type": "uint32"
        },
        {
          "internalType": "bytes",
          "name": "message",
          "type": "bytes"
        },
        {
          "internalType": "uint256",
          "name": "",
          "type": "uint256"
        }
      ],
      "name": "depositDeprecated_5947912356",
      "outputs": [],
      "stateMutability": "payable",
      "type": "function"
    },
    {
      "inputs": [
        {
          "internalType": "address",
          "name": "depositor",
          "type": "address"
        },
        {
          "internalType": "address",
          "name": "recipient",
          "type": "address"
        },
        {
          "internalType": "address",
          "name": "originToken",
          "type": "address"
        },
        {
          "internalType": "uint256",
          "name": "amount",
          "type": "uint256"
        },
        {
          "internalType": "uint256",
          "name": "destinationChainId",
          "type": "uint256"
        },
        {
          "internalType": "int64",
          "name": "relayerFeePct",
          "type": "int64"
        },
        {
          "internalType": "uint32",
          "name": "quoteTimestamp",
          "type": "uint32"
        },
        {
          "internalType": "bytes",
          "name": "message",
          "type": "bytes"
        },
        {
          "internalType": "uint256",
          "name": "",
          "type": "uint256"
        }
      ],
      "name": "depositFor",
      "outputs": [],
      "stateMutability": "payable",
      "type": "function"
    },
    {
      "inputs": [
        {
          "internalType": "bytes32",
          "name": "depositor",
          "type": "bytes32"
        },
        {
          "internalType": "bytes32",
          "name": "recipient",
          "type": "bytes32"
        },
        {
          "internalType": "bytes32",
          "name": "inputToken",
          "type": "bytes32"
        },
        {
          "internalType": "bytes32",
          "name": "outputToken",
          "type": "bytes32"
        },
        {
          "internalType": "uint256",
          "name": "inputAmount",
          "type": "uint256"
        },
        {
          "internalType": "uint256",
          "name": "outputAmount",
          "type": "uint256"
        },
        {
          "internalType": "uint256",
          "name": "destinationChainId",
          "type": "uint256"
        },
        {
          "internalType": "bytes32",
          "name": "exclusiveRelayer",
          "type": "bytes32"
        },
        {
          "internalType": "uint32",
          "name": "fillDeadlineOffset",
          "type": "uint32"
        },
        {
          "internalType": "uint32",
          "name": "exclusivityParameter",
          "type": "uint32"
        },
        {
          "internalType": "bytes",
          "name": "message",
          "type": "bytes"
        }
      ],
      "name": "depositNow",
      "outputs": [],
      "stateMutability": "payable",
      "type": "function"
    },
    {
      "inputs": [],
      "name": "depositQuoteTimeBuffer",
      "outputs": [
        {
          "internalType": "uint32",
          "name": "",
          "type": "uint32"
        }
      ],
      "stateMutability": "view",
      "type": "function"
    },
    {
      "inputs": [
        {
          "internalType": "address",
          "name": "depositor",
          "type": "address"
        },
        {
          "internalType": "address",
          "name": "recipient",
          "type": "address"
        },
        {
          "internalType": "address",
          "name": "inputToken",
          "type": "address"
        },
        {
          "internalType": "address",
          "name": "outputToken",
          "type": "address"
        },
        {
          "internalType": "uint256",
          "name": "inputAmount",
          "type": "uint256"
        },
        {
          "internalType": "uint256",
          "name": "outputAmount",
          "type": "uint256"
        },
        {
          "internalType": "uint256",
          "name": "destinationChainId",
          "type": "uint256"
        },
        {
          "internalType": "address",
          "name": "exclusiveRelayer",
          "type": "address"
        },
        {
          "internalType": "uint32",
          "name": "quoteTimestamp",
          "type": "uint32"
        },
        {
          "internalType": "uint32",
          "name": "fillDeadline",
          "type": "uint32"
        },
        {
          "internalType": "uint32",
          "name": "exclusivityParameter",
          "type": "uint32"
        },
        {
          "internalType": "bytes",
          "name": "message",
          "type": "bytes"
        }
      ],
      "name": "depositV3",
      "outputs": [],
      "stateMutability": "payable",
      "type": "function"
    },
    {
      "inputs": [
        {
          "internalType": "address",
          "name": "depositor",
          "type": "address"
        },
        {
          "internalType": "address",
          "name": "recipient",
          "type": "address"
        },
        {
          "internalType": "address",
          "name": "inputToken",
          "type": "address"
        },
        {
          "internalType": "address",
          "name": "outputToken",
          "type": "address"
        },
        {
          "internalType": "uint256",
          "name": "inputAmount",
          "type": "uint256"
        },
        {
          "internalType": "uint256",
          "name": "outputAmount",
          "type": "uint256"
        },
        {
          "internalType": "uint256",
          "name": "destinationChainId",
          "type": "uint256"
        },
        {
          "internalType": "address",
          "name": "exclusiveRelayer",
          "type": "address"
        },
        {
          "internalType": "uint32",
          "name": "fillDeadlineOffset",
          "type": "uint32"
        },
        {
          "internalType": "uint32",
          "name": "exclusivityParameter",
          "type": "uint32"
        },
        {
          "internalType": "bytes",
          "name": "message",
          "type": "bytes"
        }
      ],
      "name": "depositV3Now",
      "outputs": [],
      "stateMutability": "payable",
      "type": "function"
    },
    {
      "inputs": [
        {
          "internalType": "uint256",
          "name": "rootBundleId",
          "type": "uint256"
        }
      ],
      "name": "emergencyDeleteRootBundle",
      "outputs": [],
      "stateMutability": "nonpayable",
      "type": "function"
    },
    {
      "inputs": [
        {
          "internalType": "address",
          "name": "",
          "type": "address"
        },
        {
          "internalType": "uint256",
          "name": "",
          "type": "uint256"
        }
      ],
      "name": "enabledDepositRoutes",
      "outputs": [
        {
          "internalType": "bool",
          "name": "",
          "type": "bool"
        }
      ],
      "stateMutability": "view",
      "type": "function"
    },
    {
      "inputs": [
        {
          "internalType": "uint32",
          "name": "rootBundleId",
          "type": "uint32"
        },
        {
          "components": [
            {
              "internalType": "uint256",
              "name": "amountToReturn",
              "type": "uint256"
            },
            {
              "internalType": "uint256",
              "name": "chainId",
              "type": "uint256"
            },
            {
              "internalType": "uint256[]",
              "name": "refundAmounts",
              "type": "uint256[]"
            },
            {
              "internalType": "uint32",
              "name": "leafId",
              "type": "uint32"
            },
            {
              "internalType": "address",
              "name": "l2TokenAddress",
              "type": "address"
            },
            {
              "internalType": "address[]",
              "name": "refundAddresses",
              "type": "address[]"
            }
          ],
          "internalType": "struct SpokePoolInterface.RelayerRefundLeaf",
          "name": "relayerRefundLeaf",
          "type": "tuple"
        },
        {
          "internalType": "bytes32[]",
          "name": "proof",
          "type": "bytes32[]"
        }
      ],
      "name": "executeRelayerRefundLeaf",
      "outputs": [],
      "stateMutability": "payable",
      "type": "function"
    },
    {
      "inputs": [
        {
          "components": [
            {
              "components": [
                {
                  "internalType": "bytes32",
                  "name": "depositor",
                  "type": "bytes32"
                },
                {
                  "internalType": "bytes32",
                  "name": "recipient",
                  "type": "bytes32"
                },
                {
                  "internalType": "bytes32",
                  "name": "exclusiveRelayer",
                  "type": "bytes32"
                },
                {
                  "internalType": "bytes32",
                  "name": "inputToken",
                  "type": "bytes32"
                },
                {
                  "internalType": "bytes32",
                  "name": "outputToken",
                  "type": "bytes32"
                },
                {
                  "internalType": "uint256",
                  "name": "inputAmount",
                  "type": "uint256"
                },
                {
                  "internalType": "uint256",
                  "name": "outputAmount",
                  "type": "uint256"
                },
                {
                  "internalType": "uint256",
                  "name": "originChainId",
                  "type": "uint256"
                },
                {
                  "internalType": "uint256",
                  "name": "depositId",
                  "type": "uint256"
                },
                {
                  "internalType": "uint32",
                  "name": "fillDeadline",
                  "type": "uint32"
                },
                {
                  "internalType": "uint32",
                  "name": "exclusivityDeadline",
                  "type": "uint32"
                },
                {
                  "internalType": "bytes",
                  "name": "message",
                  "type": "bytes"
                }
              ],
              "internalType": "struct V3SpokePoolInterface.V3RelayData",
              "name": "relayData",
              "type": "tuple"
            },
            {
              "internalType": "uint256",
              "name": "chainId",
              "type": "uint256"
            },
            {
              "internalType": "uint256",
              "name": "updatedOutputAmount",
              "type": "uint256"
            }
          ],
          "internalType": "struct V3SpokePoolInterface.V3SlowFill",
          "name": "slowFillLeaf",
          "type": "tuple"
        },
        {
          "internalType": "uint32",
          "name": "rootBundleId",
          "type": "uint32"
        },
        {
          "internalType": "bytes32[]",
          "name": "proof",
          "type": "bytes32[]"
        }
      ],
      "name": "executeSlowRelayLeaf",
      "outputs": [],
      "stateMutability": "nonpayable",
      "type": "function"
    },
    {
      "inputs": [
        {
          "internalType": "bytes32",
          "name": "orderId",
          "type": "bytes32"
        },
        {
          "internalType": "bytes",
          "name": "originData",
          "type": "bytes"
        },
        {
          "internalType": "bytes",
          "name": "fillerData",
          "type": "bytes"
        }
      ],
      "name": "fill",
      "outputs": [],
      "stateMutability": "nonpayable",
      "type": "function"
    },
    {
      "inputs": [],
      "name": "fillDeadlineBuffer",
      "outputs": [
        {
          "internalType": "uint32",
          "name": "",
          "type": "uint32"
        }
      ],
      "stateMutability": "view",
      "type": "function"
    },
    {
      "inputs": [
        {
          "components": [
            {
              "internalType": "bytes32",
              "name": "depositor",
              "type": "bytes32"
            },
            {
              "internalType": "bytes32",
              "name": "recipient",
              "type": "bytes32"
            },
            {
              "internalType": "bytes32",
              "name": "exclusiveRelayer",
              "type": "bytes32"
            },
            {
              "internalType": "bytes32",
              "name": "inputToken",
              "type": "bytes32"
            },
            {
              "internalType": "bytes32",
              "name": "outputToken",
              "type": "bytes32"
            },
            {
              "internalType": "uint256",
              "name": "inputAmount",
              "type": "uint256"
            },
            {
              "internalType": "uint256",
              "name": "outputAmount",
              "type": "uint256"
            },
            {
              "internalType": "uint256",
              "name": "originChainId",
              "type": "uint256"
            },
            {
              "internalType": "uint256",
              "name": "depositId",
              "type": "uint256"
            },
            {
              "internalType": "uint32",
              "name": "fillDeadline",
              "type": "uint32"
            },
            {
              "internalType": "uint32",
              "name": "exclusivityDeadline",
              "type": "uint32"
            },
            {
              "internalType": "bytes",
              "name": "message",
              "type": "bytes"
            }
          ],
          "internalType": "struct V3SpokePoolInterface.V3RelayData",
          "name": "relayData",
          "type": "tuple"
        },
        {
          "internalType": "uint256",
          "name": "repaymentChainId",
          "type": "uint256"
        },
        {
          "internalType": "bytes32",
          "name": "repaymentAddress",
          "type": "bytes32"
        }
      ],
      "name": "fillRelay",
      "outputs": [],
      "stateMutability": "nonpayable",
      "type": "function"
    },
    {
      "inputs": [
        {
          "components": [
            {
              "internalType": "bytes32",
              "name": "depositor",
              "type": "bytes32"
            },
            {
              "internalType": "bytes32",
              "name": "recipient",
              "type": "bytes32"
            },
            {
              "internalType": "bytes32",
              "name": "exclusiveRelayer",
              "type": "bytes32"
            },
            {
              "internalType": "bytes32",
              "name": "inputToken",
              "type": "bytes32"
            },
            {
              "internalType": "bytes32",
              "name": "outputToken",
              "type": "bytes32"
            },
            {
              "internalType": "uint256",
              "name": "inputAmount",
              "type": "uint256"
            },
            {
              "internalType": "uint256",
              "name": "outputAmount",
              "type": "uint256"
            },
            {
              "internalType": "uint256",
              "name": "originChainId",
              "type": "uint256"
            },
            {
              "internalType": "uint256",
              "name": "depositId",
              "type": "uint256"
            },
            {
              "internalType": "uint32",
              "name": "fillDeadline",
              "type": "uint32"
            },
            {
              "internalType": "uint32",
              "name": "exclusivityDeadline",
              "type": "uint32"
            },
            {
              "internalType": "bytes",
              "name": "message",
              "type": "bytes"
            }
          ],
          "internalType": "struct V3SpokePoolInterface.V3RelayData",
          "name": "relayData",
          "type": "tuple"
        },
        {
          "internalType": "uint256",
          "name": "repaymentChainId",
          "type": "uint256"
        },
        {
          "internalType": "bytes32",
          "name": "repaymentAddress",
          "type": "bytes32"
        },
        {
          "internalType": "uint256",
          "name": "updatedOutputAmount",
          "type": "uint256"
        },
        {
          "internalType": "bytes32",
          "name": "updatedRecipient",
          "type": "bytes32"
        },
        {
          "internalType": "bytes",
          "name": "updatedMessage",
          "type": "bytes"
        },
        {
          "internalType": "bytes",
          "name": "depositorSignature",
          "type": "bytes"
        }
      ],
      "name": "fillRelayWithUpdatedDeposit",
      "outputs": [],
      "stateMutability": "nonpayable",
      "type": "function"
    },
    {
      "inputs": [
        {
          "internalType": "bytes32",
          "name": "",
          "type": "bytes32"
        }
      ],
      "name": "fillStatuses",
      "outputs": [
        {
          "internalType": "uint256",
          "name": "",
          "type": "uint256"
        }
      ],
      "stateMutability": "view",
      "type": "function"
    },
    {
      "inputs": [
        {
          "components": [
            {
              "internalType": "address",
              "name": "depositor",
              "type": "address"
            },
            {
              "internalType": "address",
              "name": "recipient",
              "type": "address"
            },
            {
              "internalType": "address",
              "name": "exclusiveRelayer",
              "type": "address"
            },
            {
              "internalType": "address",
              "name": "inputToken",
              "type": "address"
            },
            {
              "internalType": "address",
              "name": "outputToken",
              "type": "address"
            },
            {
              "internalType": "uint256",
              "name": "inputAmount",
              "type": "uint256"
            },
            {
              "internalType": "uint256",
              "name": "outputAmount",
              "type": "uint256"
            },
            {
              "internalType": "uint256",
              "name": "originChainId",
              "type": "uint256"
            },
            {
              "internalType": "uint32",
              "name": "depositId",
              "type": "uint32"
            },
            {
              "internalType": "uint32",
              "name": "fillDeadline",
              "type": "uint32"
            },
            {
              "internalType": "uint32",
              "name": "exclusivityDeadline",
              "type": "uint32"
            },
            {
              "internalType": "bytes",
              "name": "message",
              "type": "bytes"
            }
          ],
          "internalType": "struct V3SpokePoolInterface.V3RelayDataLegacy",
          "name": "relayData",
          "type": "tuple"
        },
        {
          "internalType": "uint256",
          "name": "repaymentChainId",
          "type": "uint256"
        }
      ],
      "name": "fillV3Relay",
      "outputs": [],
      "stateMutability": "nonpayable",
      "type": "function"
    },
    {
      "inputs": [],
      "name": "getCurrentTime",
      "outputs": [
        {
          "internalType": "uint256",
          "name": "",
          "type": "uint256"
        }
      ],
      "stateMutability": "view",
      "type": "function"
    },
    {
      "inputs": [
        {
          "internalType": "address",
          "name": "l2TokenAddress",
          "type": "address"
        },
        {
          "internalType": "address",
          "name": "refundAddress",
          "type": "address"
        }
      ],
      "name": "getRelayerRefund",
      "outputs": [
        {
          "internalType": "uint256",
          "name": "",
          "type": "uint256"
        }
      ],
      "stateMutability": "view",
      "type": "function"
    },
    {
      "inputs": [
        {
          "internalType": "address",
          "name": "msgSender",
          "type": "address"
        },
        {
          "internalType": "bytes32",
          "name": "depositor",
          "type": "bytes32"
        },
        {
          "internalType": "uint256",
          "name": "depositNonce",
          "type": "uint256"
        }
      ],
      "name": "getUnsafeDepositId",
      "outputs": [
        {
          "internalType": "uint256",
          "name": "",
          "type": "uint256"
        }
      ],
      "stateMutability": "pure",
      "type": "function"
    },
    {
      "inputs": [
        {
          "components": [
            {
              "internalType": "bytes32",
              "name": "depositor",
              "type": "bytes32"
            },
            {
              "internalType": "bytes32",
              "name": "recipient",
              "type": "bytes32"
            },
            {
              "internalType": "bytes32",
              "name": "exclusiveRelayer",
              "type": "bytes32"
            },
            {
              "internalType": "bytes32",
              "name": "inputToken",
              "type": "bytes32"
            },
            {
              "internalType": "bytes32",
              "name": "outputToken",
              "type": "bytes32"
            },
            {
              "internalType": "uint256",
              "name": "inputAmount",
              "type": "uint256"
            },
            {
              "internalType": "uint256",
              "name": "outputAmount",
              "type": "uint256"
            },
            {
              "internalType": "uint256",
              "name": "originChainId",
              "type": "uint256"
            },
            {
              "internalType": "uint256",
              "name": "depositId",
              "type": "uint256"
            },
            {
              "internalType": "uint32",
              "name": "fillDeadline",
              "type": "uint32"
            },
            {
              "internalType": "uint32",
              "name": "exclusivityDeadline",
              "type": "uint32"
            },
            {
              "internalType": "bytes",
              "name": "message",
              "type": "bytes"
            }
          ],
          "internalType": "struct V3SpokePoolInterface.V3RelayData",
          "name": "relayData",
          "type": "tuple"
        }
      ],
      "name": "getV3RelayHash",
      "outputs": [
        {
          "internalType": "bytes32",
          "name": "",
          "type": "bytes32"
        }
      ],
      "stateMutability": "view",
      "type": "function"
    },
    {
      "inputs": [],
      "name": "helios",
      "outputs": [
        {
          "internalType": "address",
          "name": "",
          "type": "address"
        }
      ],
      "stateMutability": "view",
      "type": "function"
    },
    {
      "inputs": [],
      "name": "hubPoolStore",
      "outputs": [
        {
          "internalType": "address",
          "name": "",
          "type": "address"
        }
      ],
      "stateMutability": "view",
      "type": "function"
    },
    {
      "inputs": [
        {
          "internalType": "uint32",
          "name": "_initialDepositId",
          "type": "uint32"
        },
        {
          "internalType": "address",
          "name": "_crossDomainAdmin",
          "type": "address"
        },
        {
          "internalType": "address",
          "name": "_withdrawalRecipient",
          "type": "address"
        }
      ],
      "name": "initialize",
      "outputs": [],
      "stateMutability": "nonpayable",
      "type": "function"
    },
    {
      "inputs": [
        {
          "internalType": "bytes[]",
          "name": "data",
          "type": "bytes[]"
        }
      ],
      "name": "multicall",
      "outputs": [
        {
          "internalType": "bytes[]",
          "name": "results",
          "type": "bytes[]"
        }
      ],
      "stateMutability": "nonpayable",
      "type": "function"
    },
    {
      "inputs": [],
      "name": "numberOfDeposits",
      "outputs": [
        {
          "internalType": "uint32",
          "name": "",
          "type": "uint32"
        }
      ],
      "stateMutability": "view",
      "type": "function"
    },
    {
      "inputs": [],
      "name": "owner",
      "outputs": [
        {
          "internalType": "address",
          "name": "",
          "type": "address"
        }
      ],
      "stateMutability": "view",
      "type": "function"
    },
    {
      "inputs": [
        {
          "internalType": "bool",
          "name": "pause",
          "type": "bool"
        }
      ],
      "name": "pauseDeposits",
      "outputs": [],
      "stateMutability": "nonpayable",
      "type": "function"
    },
    {
      "inputs": [
        {
          "internalType": "bool",
          "name": "pause",
          "type": "bool"
        }
      ],
      "name": "pauseFills",
      "outputs": [],
      "stateMutability": "nonpayable",
      "type": "function"
    },
    {
      "inputs": [],
      "name": "pausedDeposits",
      "outputs": [
        {
          "internalType": "bool",
          "name": "",
          "type": "bool"
        }
      ],
      "stateMutability": "view",
      "type": "function"
    },
    {
      "inputs": [],
      "name": "pausedFills",
      "outputs": [
        {
          "internalType": "bool",
          "name": "",
          "type": "bool"
        }
      ],
      "stateMutability": "view",
      "type": "function"
    },
    {
      "inputs": [],
      "name": "proxiableUUID",
      "outputs": [
        {
          "internalType": "bytes32",
          "name": "",
          "type": "bytes32"
        }
      ],
      "stateMutability": "view",
      "type": "function"
    },
    {
      "inputs": [
        {
          "internalType": "bytes32",
          "name": "_slotKey",
          "type": "bytes32"
        },
        {
          "internalType": "bytes",
          "name": "_value",
          "type": "bytes"
        },
        {
          "internalType": "uint256",
          "name": "_blockNumber",
          "type": "uint256"
        }
      ],
      "name": "receiveL1State",
      "outputs": [],
      "stateMutability": "nonpayable",
      "type": "function"
    },
    {
      "inputs": [],
      "name": "recipientCircleDomainId",
      "outputs": [
        {
          "internalType": "uint32",
          "name": "",
          "type": "uint32"
        }
      ],
      "stateMutability": "view",
      "type": "function"
    },
    {
      "inputs": [
        {
          "internalType": "bytes32",
          "name": "relayerRefundRoot",
          "type": "bytes32"
        },
        {
          "internalType": "bytes32",
          "name": "slowRelayRoot",
          "type": "bytes32"
        }
      ],
      "name": "relayRootBundle",
      "outputs": [],
      "stateMutability": "nonpayable",
      "type": "function"
    },
    {
      "inputs": [
        {
          "internalType": "address",
          "name": "",
          "type": "address"
        },
        {
          "internalType": "address",
          "name": "",
          "type": "address"
        }
      ],
      "name": "relayerRefund",
      "outputs": [
        {
          "internalType": "uint256",
          "name": "",
          "type": "uint256"
        }
      ],
      "stateMutability": "view",
      "type": "function"
    },
    {
      "inputs": [],
      "name": "renounceOwnership",
      "outputs": [],
      "stateMutability": "nonpayable",
      "type": "function"
    },
    {
      "inputs": [
        {
          "components": [
            {
              "internalType": "bytes32",
              "name": "depositor",
              "type": "bytes32"
            },
            {
              "internalType": "bytes32",
              "name": "recipient",
              "type": "bytes32"
            },
            {
              "internalType": "bytes32",
              "name": "exclusiveRelayer",
              "type": "bytes32"
            },
            {
              "internalType": "bytes32",
              "name": "inputToken",
              "type": "bytes32"
            },
            {
              "internalType": "bytes32",
              "name": "outputToken",
              "type": "bytes32"
            },
            {
              "internalType": "uint256",
              "name": "inputAmount",
              "type": "uint256"
            },
            {
              "internalType": "uint256",
              "name": "outputAmount",
              "type": "uint256"
            },
            {
              "internalType": "uint256",
              "name": "originChainId",
              "type": "uint256"
            },
            {
              "internalType": "uint256",
              "name": "depositId",
              "type": "uint256"
            },
            {
              "internalType": "uint32",
              "name": "fillDeadline",
              "type": "uint32"
            },
            {
              "internalType": "uint32",
              "name": "exclusivityDeadline",
              "type": "uint32"
            },
            {
              "internalType": "bytes",
              "name": "message",
              "type": "bytes"
            }
          ],
          "internalType": "struct V3SpokePoolInterface.V3RelayData",
          "name": "relayData",
          "type": "tuple"
        }
      ],
      "name": "requestSlowFill",
      "outputs": [],
      "stateMutability": "nonpayable",
      "type": "function"
    },
    {
      "inputs": [
        {
          "internalType": "uint256",
          "name": "",
          "type": "uint256"
        }
      ],
      "name": "rootBundles",
      "outputs": [
        {
          "internalType": "bytes32",
          "name": "slowRelayRoot",
          "type": "bytes32"
        },
        {
          "internalType": "bytes32",
          "name": "relayerRefundRoot",
          "type": "bytes32"
        }
      ],
      "stateMutability": "view",
      "type": "function"
    },
    {
      "inputs": [
        {
          "internalType": "address",
          "name": "newCrossDomainAdmin",
          "type": "address"
        }
      ],
      "name": "setCrossDomainAdmin",
      "outputs": [],
      "stateMutability": "nonpayable",
      "type": "function"
    },
    {
      "inputs": [
        {
          "internalType": "address",
          "name": "originToken",
          "type": "address"
        },
        {
          "internalType": "uint256",
          "name": "destinationChainId",
          "type": "uint256"
        },
        {
          "internalType": "bool",
          "name": "enabled",
          "type": "bool"
        }
      ],
      "name": "setEnableRoute",
      "outputs": [],
      "stateMutability": "nonpayable",
      "type": "function"
    },
    {
      "inputs": [
        {
          "internalType": "address",
          "name": "newWithdrawalRecipient",
          "type": "address"
        }
      ],
      "name": "setWithdrawalRecipient",
      "outputs": [],
      "stateMutability": "nonpayable",
      "type": "function"
    },
    {
      "inputs": [
        {
          "internalType": "bytes32",
          "name": "depositor",
          "type": "bytes32"
        },
        {
          "internalType": "uint256",
          "name": "depositId",
          "type": "uint256"
        },
        {
          "internalType": "uint256",
          "name": "updatedOutputAmount",
          "type": "uint256"
        },
        {
          "internalType": "bytes32",
          "name": "updatedRecipient",
          "type": "bytes32"
        },
        {
          "internalType": "bytes",
          "name": "updatedMessage",
          "type": "bytes"
        },
        {
          "internalType": "bytes",
          "name": "depositorSignature",
          "type": "bytes"
        }
      ],
      "name": "speedUpDeposit",
      "outputs": [],
      "stateMutability": "nonpayable",
      "type": "function"
    },
    {
      "inputs": [
        {
          "internalType": "address",
          "name": "depositor",
          "type": "address"
        },
        {
          "internalType": "uint256",
          "name": "depositId",
          "type": "uint256"
        },
        {
          "internalType": "uint256",
          "name": "updatedOutputAmount",
          "type": "uint256"
        },
        {
          "internalType": "address",
          "name": "updatedRecipient",
          "type": "address"
        },
        {
          "internalType": "bytes",
          "name": "updatedMessage",
          "type": "bytes"
        },
        {
          "internalType": "bytes",
          "name": "depositorSignature",
          "type": "bytes"
        }
      ],
      "name": "speedUpV3Deposit",
      "outputs": [],
      "stateMutability": "nonpayable",
      "type": "function"
    },
    {
      "inputs": [
        {
          "internalType": "address",
          "name": "newOwner",
          "type": "address"
        }
      ],
      "name": "transferOwnership",
      "outputs": [],
      "stateMutability": "nonpayable",
      "type": "function"
    },
    {
      "inputs": [
        {
          "internalType": "bytes[]",
          "name": "data",
          "type": "bytes[]"
        }
      ],
      "name": "tryMulticall",
      "outputs": [
        {
          "components": [
            {
              "internalType": "bool",
              "name": "success",
              "type": "bool"
            },
            {
              "internalType": "bytes",
              "name": "returnData",
              "type": "bytes"
            }
          ],
          "internalType": "struct MultiCallerUpgradeable.Result[]",
          "name": "results",
          "type": "tuple[]"
        }
      ],
      "stateMutability": "nonpayable",
      "type": "function"
    },
    {
      "inputs": [
        {
          "internalType": "bytes32",
          "name": "depositor",
          "type": "bytes32"
        },
        {
          "internalType": "bytes32",
          "name": "recipient",
          "type": "bytes32"
        },
        {
          "internalType": "bytes32",
          "name": "inputToken",
          "type": "bytes32"
        },
        {
          "internalType": "bytes32",
          "name": "outputToken",
          "type": "bytes32"
        },
        {
          "internalType": "uint256",
          "name": "inputAmount",
          "type": "uint256"
        },
        {
          "internalType": "uint256",
          "name": "outputAmount",
          "type": "uint256"
        },
        {
          "internalType": "uint256",
          "name": "destinationChainId",
          "type": "uint256"
        },
        {
          "internalType": "bytes32",
          "name": "exclusiveRelayer",
          "type": "bytes32"
        },
        {
          "internalType": "uint256",
          "name": "depositNonce",
          "type": "uint256"
        },
        {
          "internalType": "uint32",
          "name": "quoteTimestamp",
          "type": "uint32"
        },
        {
          "internalType": "uint32",
          "name": "fillDeadline",
          "type": "uint32"
        },
        {
          "internalType": "uint32",
          "name": "exclusivityParameter",
          "type": "uint32"
        },
        {
          "internalType": "bytes",
          "name": "message",
          "type": "bytes"
        }
      ],
      "name": "unsafeDeposit",
      "outputs": [],
      "stateMutability": "payable",
      "type": "function"
    },
    {
      "inputs": [
        {
          "internalType": "address",
          "name": "newImplementation",
          "type": "address"
        }
      ],
      "name": "upgradeTo",
      "outputs": [],
      "stateMutability": "nonpayable",
      "type": "function"
    },
    {
      "inputs": [
        {
          "internalType": "address",
          "name": "newImplementation",
          "type": "address"
        },
        {
          "internalType": "bytes",
          "name": "data",
          "type": "bytes"
        }
      ],
      "name": "upgradeToAndCall",
      "outputs": [],
      "stateMutability": "payable",
      "type": "function"
    },
    {
      "inputs": [],
      "name": "usdcToken",
      "outputs": [
        {
          "internalType": "contract IERC20",
          "name": "",
          "type": "address"
        }
      ],
      "stateMutability": "view",
      "type": "function"
    },
    {
      "inputs": [
        {
          "internalType": "bytes32",
          "name": "",
          "type": "bytes32"
        }
      ],
      "name": "verifiedProofs",
      "outputs": [
        {
          "internalType": "bool",
          "name": "",
          "type": "bool"
        }
      ],
      "stateMutability": "view",
      "type": "function"
    },
    {
      "inputs": [],
      "name": "withdrawalRecipient",
      "outputs": [
        {
          "internalType": "address",
          "name": "",
          "type": "address"
        }
      ],
      "stateMutability": "view",
      "type": "function"
    },
    {
      "inputs": [],
      "name": "wrappedNativeToken",
      "outputs": [
        {
          "internalType": "contract WETH9Interface",
          "name": "",
          "type": "address"
        }
      ],
      "stateMutability": "view",
      "type": "function"
    },
    {
      "stateMutability": "payable",
      "type": "receive"
    }
  ],
  "numDeployments": 2,
  "solcInputHash": "4d08834d1cdb180262d4e2185cec2958",
  "bytecode": "0x6101a0346200020657601f6200543d38819003918201601f19168301916001600160401b038311848410176200020a5780849260e09460405283398101031262000206576200004e816200021e565b906200005d602082016200021e565b916200006c604083016200021e565b926200007b6060840162000233565b620000896080850162000233565b60a0850151949091906001600160a01b03908187168703620002065760c001519681881688036200020657306080521660a05260c05260e0525f5460ff8160081c16620002065760ff80821603620001cb575b50610120928352610140938452610100935f8552610180928352610160918252604051936151f7958662000246873960805186818161106901528181611415015261158f015260a0518681816108680152818161386c01528181613f7c0152818161420e0152818161458d01528181614ca00152614cc7015260c05186818161185c01528181613820015261477b015260e0518681816106b4015261453b015251858181611a050152614b050152518481816107db01528181614a5f0152614c400152518381816121050152614a25015251828181611b980152612821015251818181611be10152612b330152f35b60ff90811916175f557f7f26b83ff96e1f2b6a682f133852f6798a09c465da95921460cefb3847402498602060405160ff8152a15f620000dc565b5f80fd5b634e487b7160e01b5f52604160045260245ffd5b51906001600160a01b03821682036200020657565b519063ffffffff82168203620002065756fe6080604052600436101561001a575b3615610018575f80fd5b005b5f3560e01c80630277c6311461042f578063079bd2c71461042a5780631186ec331461042557806311eac8551461042057806315348e44146103a8578063176d80c41461041b57806317fcb39b146104165780631b3d5559146104115780631fab657c1461040c578063272751c71461040757806329cb924d146104025780632e378115146103fd5780632e63e59a146103f857806333a84ff0146103f35780633659cfe6146103ee578063437b9116146103e9578063490e49ef146103e4578063493a4f84146103df5780634f1ef286146103da5780635249fef1146103d55780635285e058146103d057806352d1902d146103cb578063541f4f14146103c6578063577f51f8146103c157806357f6dcb8146103bc5780636068d6cb146103b7578063647c576c146103b2578063670fa8ac146103ad5780636bbbcd2e146103a85780636e400983146103a3578063715018a61461039e578063738b62e514610399578063763bd597146103945780637aef642c1461038f5780637b9392321461038a5780637ef413e11461038557806382e2c43f146103805780638a7860ce1461037b5780638b15788e146103765780638da5cb5b146103715780639748cf7c1461036c57806397943aa914610367578063979f2bc21461036257806399cc29681461035d5780639a8a059214610358578063a1244c6714610353578063a18a096e1461034e578063ac9650d814610349578063ad5425c614610344578063adb5a6a6146102f9578063b370b7f51461033f578063babb6aac1461033a578063bce63c0014610335578063c35c83fc14610330578063ceb4c9871461032b578063d7e1583a14610326578063dda5211314610321578063ddd224f11461031c578063de7eba7814610317578063deff4b2414610312578063e45a46941461030d578063ea86bd4614610308578063ee2a53f814610303578063f2fde38b146102fe578063f79f29ed146102f95763fc8a584f0361000e57612cd5565b6126a2565b612c98565b612c5a565b612b57565b612b14565b612a1f565b6129ef565b6129c6565b6129a0565b61296a565b612870565b612845565b612802565b61272b565b612704565b612566565b6124c6565b61235f565b612338565b61231e565b612289565b6121a9565b612129565b6120e6565b6120c0565b612042565b611fca565b611eaf565b611e78565b611dd0565b611d30565b611b17565b611a82565b611a29565b6119e9565b6107ff565b6119af565b6118d8565b611880565b611840565b6116a2565b6115df565b611575565b61154e565b611500565b6113d2565b61134b565b61132d565b611260565b611041565b611007565b610e0d565b610cad565b610c84565b610be5565b610ae0565b6109d7565b610849565b610819565b6107bc565b61071b565b610698565b610619565b634e487b7160e01b5f52604160045260245ffd5b6040810190811067ffffffffffffffff82111761046457604052565b610434565b6101a0810190811067ffffffffffffffff82111761046457604052565b67ffffffffffffffff811161046457604052565b6060810190811067ffffffffffffffff82111761046457604052565b6080810190811067ffffffffffffffff82111761046457604052565b6020810190811067ffffffffffffffff82111761046457604052565b60e0810190811067ffffffffffffffff82111761046457604052565b60a0810190811067ffffffffffffffff82111761046457604052565b90601f8019910116810190811067ffffffffffffffff82111761046457604052565b6040519060c0820182811067ffffffffffffffff82111761046457604052565b60405190610180820182811067ffffffffffffffff82111761046457604052565b6040519061059682610469565b565b60405190610596826104b6565b67ffffffffffffffff811161046457601f01601f191660200190565b9291926105cd826105a5565b916105db6040519384610526565b8294818452818301116105f7578281602093845f960137010152565b5f80fd5b9080601f830112156105f757816020610616933591016105c1565b90565b346105f75760203660031901126105f75760043567ffffffffffffffff81116105f75761064a9036906004016105fb565b6106526136e9565b610cbf9081549060ff821661067c5760ff199182166001178355610675906136fd565b8154169055005b60405163087f80c160e31b8152600490fd5b5f9103126105f757565b346105f7575f3660031901126105f757602060405163ffffffff7f0000000000000000000000000000000000000000000000000000000000000000168152f35b6001600160a01b038116036105f757565b3590610596826106d8565b63ffffffff8116036105f757565b6101443590610596826106f4565b3590610596826106f4565b6101003660031901126105f757600435610734816106d8565b602435610740816106d8565b6084358060070b81036105f75760a4359061075a826106f4565b60c43567ffffffffffffffff81116105f75761077a9036906004016105fb565b9261078361372b565b60ff6108cf5460e81c166107aa576107a39460643591604435913361379b565b600160c955005b604051630b4cba3160e31b8152600490fd5b346105f7575f3660031901126105f75760206040516001600160a01b037f0000000000000000000000000000000000000000000000000000000000000000168152f35b346105f7575f3660031901126105f75760206040515f8152f35b346105f75760203660031901126105f7576004355f52610cbe602052602060ff60405f2054166040519015158152f35b346105f7575f3660031901126105f75760206040516001600160a01b037f0000000000000000000000000000000000000000000000000000000000000000168152f35b67ffffffffffffffff81116104645760051b60200190565b9080601f830112156105f75760209082356108be8161088c565b936108cc6040519586610526565b81855260208086019260051b8201019283116105f757602001905b8282106108f5575050505090565b813581529083019083016108e7565b9080601f830112156105f757602090823561091e8161088c565b9361092c6040519586610526565b81855260208086019260051b8201019283116105f757602001905b828210610955575050505090565b8380918335610963816106d8565b815201910190610947565b92916109798261088c565b916109876040519384610526565b829481845260208094019160051b81019283116105f757905b8282106109ad5750505050565b813581529083019083016109a0565b9080601f830112156105f7578160206106169335910161096e565b6003196060368201126105f7576004356109f0816106f4565b60243567ffffffffffffffff928382116105f75760c09082360301126105f757610a18610548565b90806004013582526024810135602083015260448101358481116105f757610a4690600436918401016108a4565b6040830152610a5760648201610710565b6060830152610a68608482016106e9565b608083015260a4810135908482116105f7576004610a899236920101610904565b60a08201526044359283116105f757610aa96100189336906004016109bc565b91612d05565b9181601f840112156105f75782359167ffffffffffffffff83116105f7576020808501948460051b0101116105f757565b346105f7576003196060368201126105f75760043567ffffffffffffffff8082116105f7576060823603938401126105f75760243590610b1f826106f4565b6044359081116105f757610b37903690600401610aaf565b919093610b4261372b565b60048401359061018219018112156105f757610bd194610bcc93610b6f610bc5936004369189010161288e565b95610b7d6080880151613ca8565b50610b878761361c565b9060446020890151916101608a015193610b9f610548565b9a8b5260208b015201356040890152606088015260808701525f60a0870152369161096e565b9083613cbe565b613e0f565b610018600160c955565b801515036105f757565b346105f75760603660031901126105f757600435610c02816106d8565b602435907f0a21fdd43d0ad0c62689ee7230a47309a050755bcc52eba00310add65297692a60206001600160a01b0360443593610c3e85610bdb565b610c466142e4565b610c4e61372b565b1692835f526108d1825260405f20855f52825260405f209015159060ff1981541660ff8316179055604051908152a3600160c955005b346105f7575f3660031901126105f7576020604051428152f35b90816101809103126105f75790565b346105f75760403660031901126105f75760043567ffffffffffffffff81116105f757610cde903690600401610c9e565b610ce781612ef0565b6001600160a01b031690610cfd60208201612ef0565b6001600160a01b031691610d1360408301612ef0565b6001600160a01b0316610d2860608401612ef0565b6001600160a01b031692610d3e60808201612ef0565b6001600160a01b031690610100610d56818301612efa565b9061012090610d66848301612efa565b9261014094858101610d7790612efa565b966101609a8b8301610d899084612f04565b9a909b610d94610568565b9e8f91825260208201526040015260608d015260808c015260a081013560a08c015260c081013560c08c015260e0013560e08b015263ffffffff1690890152870190610de5919063ffffffff169052565b63ffffffff909116908501523690610dfc926105c1565b90820152336024356100189261364d565b346105f75760203660031901126105f7576004803567ffffffffffffffff81116105f757610e3e9036908301610c9e565b610e4661372b565b60ff6108cf5460e01c16610ff75763ffffffff80421692610140830193610e7f81610e7087612efa565b63ffffffff9182169116101590565b610fe757610120840192610e9284612efa565b1610610fd857610eaa610ea5368561288e565b61361c565b90610ebe825f526108d660205260405f2090565b54610fca5750610f0d7f3cee3e290f36226751cd0b3321b213890fe9c768e922f267fa6111836ce05c3292610f08610f02610f13945f526108d660205260405f2090565b60019055565b612efa565b93612efa565b610f33610f2e610f27610160860186612f04565b36916105c1565b614304565b90610fbd6040519283926101008701359760e08801359760208101359281359260408301359260c08101359060a081013590606060808201359101358b9693909a999895919261012098959361014089019c895260208901526040880152606087015263ffffffff80921660808701521660a085015260c084015260e08301526101008201520152565b0390a3610018600160c955565b604051624be79160e21b8152fd5b60405163d642b7d960e01b8152fd5b50604051630277ae7b60e21b8152fd5b50604051633d90fc5560e11b8152fd5b346105f7575f3660031901126105f75760206040517f9c6dfd61d811b9950a4f2b9adf46357b717c816d22c420d0bde8f2360148f7cd8152f35b346105f75760203660031901126105f75760043561105e816106d8565b6001600160a01b03807f0000000000000000000000000000000000000000000000000000000000000000168030146105f7577f360894a13ba1a3210667c828492db98dca3e2076cc3735a920a3ca505d382bbc9082825416036105f7576110c36142e4565b604051916110d0836104d2565b5f83527f4910fdfa16fed3260ed0e7147f7cc6da11a60208b5b9406d12a635614ffd91435460ff16156111095750505061001890614e62565b6020600491604051928380926352d1902d60e01b825288165afa5f9181611142575b50611134575f80fd5b036105f75761001891614d46565b61116591925060203d60201161116c575b61115d8183610526565b8101906130eb565b905f61112b565b503d611153565b60206003198201126105f7576004359067ffffffffffffffff82116105f75761119e91600401610aaf565b9091565b5f5b8381106111b35750505f910152565b81810151838201526020016111a4565b906020916111dc815180928185528580860191016111a2565b601f01601f1916010190565b6020808201908083528351809252604092604081018260408560051b8401019601945f925b85841061121e575050505050505090565b90919293949596858061124f600193603f1986820301885286838d51805115158452015191818582015201906111c3565b99019401940192959493919061120d565b346105f75761126e36611173565b6112778161088c565b9160406112876040519485610526565b828452601f196112968461088c565b015f5b81811061130a5750505f5b8381106112bd57604051806112b987826111e8565b0390f35b806113046112cd60019388612f5a565b515f806112db858a8a612f6e565b906112ea895180938193612f85565b0390305af4906112f8612f92565b60208201529015159052565b016112a4565b602090835161131881610448565b5f815282606081830152828901015201611299565b346105f7575f3660031901126105f75760206040516301e133808152f35b346105f75760403660031901126105f75760243560043561136a6142e4565b61137261372b565b6108d08054680100000000000000008110156104645763ffffffff916001820190558361139e82612c1b565b5084600182015555167fc86ba04c55bc5eb2f2876b91c438849a296dbec7b08751c3074d92e04f0a77af5f80a4600160c955005b60403660031901126105f7576004356113ea816106d8565b60243567ffffffffffffffff81116105f75761140a9036906004016105fb565b6001600160a01b03807f000000000000000000000000000000000000000000000000000000000000000016908130146105f7577f360894a13ba1a3210667c828492db98dca3e2076cc3735a920a3ca505d382bbc9181835416036105f7576114706142e4565b7f4910fdfa16fed3260ed0e7147f7cc6da11a60208b5b9406d12a635614ffd91435460ff16156114a65750505061001890614e62565b6020600491604051928380926352d1902d60e01b825288165afa5f91816114df575b506114d1575f80fd5b036105f75761001891614e11565b6114f991925060203d60201161116c5761115d8183610526565b905f6114c8565b346105f75760403660031901126105f7576001600160a01b03600435611525816106d8565b165f526108d160205260405f206024355f52602052602060ff60405f2054166040519015158152f35b346105f7575f3660031901126105f75760206001600160a01b036108cd5416604051908152f35b346105f7575f3660031901126105f7576001600160a01b037f00000000000000000000000000000000000000000000000000000000000000001630036105f75760206040517f360894a13ba1a3210667c828492db98dca3e2076cc3735a920a3ca505d382bbc8152f35b6101203660031901126105f7576004356115f8816106d8565b60243590611605826106d8565b60443591611612836106d8565b60a4358060070b81036105f75760c4359161162c836106f4565b60e43567ffffffffffffffff81116105f75761164c9036906004016105fb565b9361165561372b565b60ff6108cf5460e81c166107aa576107a395608435926064359261379b565b9181601f840112156105f75782359167ffffffffffffffff83116105f757602083818601950101116105f757565b346105f75760c03660031901126105f7576004356116bf816106d8565b602435604435916064356116d2816106d8565b67ffffffffffffffff916084358381116105f7576116f4903690600401611674565b60a4949194359182116105f7577f45e04bc8f121ba11466985789ca2822a91109f31bb8ac85504a37b7eaf873c269461173461183b933690600401611674565b9290916001600160a01b038097168a61182f6117513686866105c1565b60428d61175f368b8b6105c1565b92602081519101209460409586519160208301937f9c6dfd61d811b9950a4f2b9adf46357b717c816d22c420d0bde8f2360148f7cd85528884015246606084015260808301528760a083015260c082015260c081526117bd816104ee565b5190206104e3546104e45486519060208201927fc2f8787176b8ac6bf7215b4adcc1e069bf4ab82d9ab1df05a57a91d425935b6e84528883015260608201524660808201526080815261180f8161050a565b5190209085519161190160f01b835260028301526022820152208a614ea5565b51978897169a87612fe1565b0390a3005b346105f7575f3660031901126105f757602060405163ffffffff7f0000000000000000000000000000000000000000000000000000000000000000168152f35b346105f7575f3660031901126105f757602060ff6108cf5460e81c166040519015158152f35b60609060031901126105f7576004356118be816106f4565b906024356118cb816106d8565b90604435610616816106d8565b346105f7576118e6366118a6565b5f54600881901c60ff16159392908490816119a1575b8115611981575b50156105f757611927928461191e600160ff195f5416175f55565b61196a57613014565b61192d57005b61193b61ff00195f54165f55565b604051600181527f7f26b83ff96e1f2b6a682f133852f6798a09c465da95921460cefb384740249890602090a1005b61197c61010061ff00195f5416175f55565b613014565b303b15915081611993575b505f611903565b6001915060ff16145f61198c565b600160ff82161091506118fc565b346105f7575f3660031901126105f75760206040517f8d1994e2bbbd77564cdca06dd819e7ee2a5efa06c80dcb59a4a7b6e39edc538f8152f35b346105f7575f3660031901126105f757602060405163ffffffff7f0000000000000000000000000000000000000000000000000000000000000000168152f35b346105f7575f3660031901126105f757611a416136e9565b5f6001600160a01b036033546001600160a01b03198116603355167f8be0079c531659141344cd1fd0a4f28419497f9722a3daafe3b4186f6b6457e08280a3005b346105f75760203660031901126105f7577fe88463c2f254e2b070013a2dc7ee1e099f9bc00534cbdf03af551dc26ae492196020600435611ac281610bdb565b611aca6142e4565b611ad261372b565b15156108cf80547fffff00ffffffffffffffffffffffffffffffffffffffffffffffffffffffffff60ff60e81b8460e81b169116179055604051908152a1600160c955005b346105f75760603660031901126105f7576004803560243567ffffffffffffffff81116105f757611b4b9036908401611674565b610cbf929192805460ff8116611d1f5760ff19166001179055611b6f3682856105c1565b60208151910120926001600160a01b039360405190630829c59f60e01b825260208280611bdc887f00000000000000000000000000000000000000000000000000000000000000006044358d85016001600160a01b03604092959493606083019683521660208201520152565b0381897f0000000000000000000000000000000000000000000000000000000000000000165afa918215611d1a575f92611cf9575b5003611ce857611c2391810190613105565b92168015159081611cdd575b50611ccc57611c51611c4a825f52610cbe60205260405f2090565b5460ff1690565b611cbb57611cae9250611c7d611c70825f52610cbe60205260405f2090565b805460ff19166001179055565b6040513381527f978b7c10f1e37e5d1c6c94eb2aa826279e15b70177524113973cb61f376f286890602090a26136fd565b610cbf805460ff19169055005b604051633904daf160e21b81528390fd5b6040516332f602d160e11b81528390fd5b90503014155f611c2f565b6040516301b6e1e760e21b81528590fd5b611d1391925060203d60201161116c5761115d8183610526565b905f611c11565b6130fa565b60405163087f80c160e31b81528690fd5b6101603660031901126105f757600435611d49816106d8565b60243590611d56826106d8565b604435611d62816106d8565b60643590611d6f826106d8565b60e435611d7b816106d8565b6101043590611d89826106f4565b6101243592611d97846106f4565b610144359667ffffffffffffffff88116105f757611dbc610018983690600401611674565b97909660c4359360a435936084359361316d565b6101803660031901126105f757600435611de9816106d8565b60243590611df6826106d8565b604435611e02816106d8565b60643590611e0f826106d8565b60e435611e1b816106d8565b61010435611e28816106f4565b6101243591611e36836106f4565b611e3e610702565b93610164359767ffffffffffffffff89116105f757611e64610018993690600401611674565b98909760c4359360a435936084359361318f565b346105f75760603660031901126105f7576020611ea7600435611e9a816106d8565b60443590602435906132aa565b604051908152f35b346105f75760603660031901126105f75767ffffffffffffffff6024358181116105f757611ee1903690600401611674565b916044359081116105f757611efa903690600401611674565b9060405193602085019480611f114684888a6132e6565b0395611f25601f1997888101845283610526565b6004359151902003611fb8575f94611f54611f7693611f4b87611f82958a990190612944565b95810190613303565b519360405193849160208301966337bfd2c960e21b88523391602485016133cb565b03908101835282610526565b5190305af4611f8f612f92565b9015611f9757005b60405163b8fe37a760e01b8152908190611fb490600483016133ed565b0390fd5b604051630f0c8f4760e11b8152600490fd5b346105f75760203660031901126105f757600435611fe66142e4565b611fee61372b565b611ff781612c1b565b61202f576001815f80935501557f7c1af0646963afc3343245b103731965735a893347bfa0d58a5dc77a77ae691c5f80a2600160c955005b634e487b7160e01b5f525f60045260245ffd5b6101a03660031901126105f7576101243561205c816106f4565b61014435612069816106f4565b6101643591612077836106f4565b610184359267ffffffffffffffff84116105f75761209c610018943690600401611674565b9390926101043560e43560c43560a4356084356064356044356024356004356133fe565b346105f7575f3660031901126105f75760206001600160a01b0360335416604051908152f35b346105f7575f3660031901126105f75760206040516001600160a01b037f0000000000000000000000000000000000000000000000000000000000000000168152f35b346105f75760e03660031901126105f75767ffffffffffffffff6004358181116105f75761215b903690600401610c9e565b60a4358281116105f757612173903690600401611674565b60c4929192359384116105f757612191610018943690600401611674565b93909260843590606435906044359060243590613476565b346105f7576121b7366118a6565b909160ff5f5460081c16156105f7576121ed906108cf9063ffffffff60c01b1963ffffffff60c01b83549260c01b169116179055565b6040516121f981610448565b6009815260208101926820a1a927a9a996ab1960b91b8452640312e302e360dc1b602060405161222881610448565b60058152015260ff5f5460081c16156105f75761001893612284925190206104e3557f06c015bd22b4c69690933c1058878ebdfef31f9aaae40bbe86d8a09fe1b2972c6104e4556122776147b2565b61227f6147c1565b6147d5565b61482f565b346105f75760203660031901126105f7577f2d5b62420992e5a4afce0e77742636ca2608ef58289fd2e1baa5161ef6e7e41e60206004356122c981610bdb565b6122d16142e4565b6122d961372b565b15156108cf80547fffffff00ffffffffffffffffffffffffffffffffffffffffffffffffffffffff60ff60e01b8460e01b169116179055604051908152a1600160c955005b346105f7575f3660031901126105f7576020604051468152f35b346105f7575f3660031901126105f757602063ffffffff6108cf5460c01c16604051908152f35b346105f75760403660031901126105f75760043560243561237f82614c6a565b6001600160a01b0382165f526108d76020526123ae60405f20336001600160a01b03165f5260205260405f2090565b54918215612451575f6123f5336123df6123c785613ca8565b6001600160a01b03165f526108d760205260405f2090565b906001600160a01b03165f5260205260405f2090565b556124218361241261240684613ca8565b6001600160a01b031690565b61241b85613ca8565b90614889565b60405192835233927f6c172ea51018fb2eb2118f3f8a507c4df71eb519b8c0052834dc3c920182fef490602090a4005b6040516336542bf760e21b8152600490fd5b6020808201906020835283518092526040830192602060408460051b8301019501935f915b8483106124985750505050505090565b90919293949584806124b6600193603f198682030187528a516111c3565b9801930193019194939290612488565b346105f7576124d436611173565b906124de8261355f565b915f5b8181106124f657604051806112b98682612463565b5f80612503838587612f6e565b9061251360405180938193612f85565b0390305af4612520612f92565b901561254657906001916125348287612f5a565b5261253f8186612f5a565b50016124e1565b60448151106105f7578060046105f79201516024809183010191016135a8565b610180806003193601126105f75761010435612581816106f4565b610124359161258f836106f4565b610144359261259d846106f4565b6101643567ffffffffffffffff81116105f7576125be903690600401611674565b6125c661372b565b6108cf549260ff8460e81c166107aa57610bd19661268b610f279261267d63ffffffff6126999860c01c16996126216125fe8c613607565b6108cf9063ffffffff60c01b1963ffffffff60c01b83549260c01b169116179055565b612629610589565b9a6004358c5260243560208d015260443560408d015260643560608d015260843560808d015260a43560a08d015260c43560c08d015260e43560e08d01526101008c01526101208b019063ffffffff169052565b63ffffffff16610140890152565b63ffffffff16610160870152565b90820152614492565b346105f75760403660031901126105f75760206126fb6004356126c4816106d8565b6001600160a01b03602435916126d9836106d8565b165f526108d7835260405f20906001600160a01b03165f5260205260405f2090565b54604051908152f35b346105f7575f3660031901126105f75760206001600160a01b036108ce5416604051908152f35b346105f75760c03660031901126105f75760043560243567ffffffffffffffff6064356044356084358381116105f757612769903690600401611674565b60a4949194359182116105f7577f45e04bc8f121ba11466985789ca2822a91109f31bb8ac85504a37b7eaf873c26946127a96127f8933690600401611674565b9290916127b461372b565b6127bd8a614c6a565b6127ec898b89896127cf3688886105c1565b926127db368b8b6105c1565b946001600160a01b03469216614319565b60405196879687612fe1565b0390a3600160c955005b346105f7575f3660031901126105f75760206040516001600160a01b037f0000000000000000000000000000000000000000000000000000000000000000168152f35b346105f75760203660031901126105f7576004355f526108d6602052602060405f2054604051908152f35b346105f7575f3660031901126105f757602060405163ffffffff8152f35b9190610180838203126105f7576128a3610568565b92803584526020810135602085015260408101356040850152606081013560608501526080810135608085015260a081013560a085015260c081013560c085015260e081013560e08501526101008082013590850152610120612907818301610710565b90850152610140612919818301610710565b90850152610160918282013567ffffffffffffffff81116105f75761293e92016105fb565b90830152565b906020828203126105f757813567ffffffffffffffff81116105f757610616920161288e565b346105f75760203660031901126105f75760043567ffffffffffffffff81116105f757611ea7610ea5602092369060040161288e565b346105f7575f3660031901126105f757602060ff6108cf5460e01c166040519015158152f35b346105f7575f3660031901126105f75760206040516ec097ce7bc90715b34b9f10000000008152f35b346105f75760203660031901126105f7576107a3600435612a0f816106d8565b612a176142e4565b61227f61372b565b346105f75760603660031901126105f75760043567ffffffffffffffff81116105f757612a5090369060040161288e565b612a5861372b565b60ff6108cf5460e01c16612b025761014081015163ffffffff4281169116101580612ae3575b612ad15780612a8f610bd19261361c565b60c082015160208301519061016084015192612aa9610548565b948552602085015260408401526060830152608082015260243560a082015260443590614083565b604051630c3a9b9d60e41b8152600490fd5b50612af16040820151613ca8565b6001600160a01b0316331415612a7e565b604051633d90fc5560e11b8152600490fd5b346105f7575f3660031901126105f75760206040516001600160a01b037f0000000000000000000000000000000000000000000000000000000000000000168152f35b610160806003193601126105f75761010435612b72816106f4565b61012435612b7f816106f4565b6101443567ffffffffffffffff81116105f757612ba0903690600401611674565b63ffffffff94612bb38642169586613150565b93612bbc61372b565b6108cf549160ff8360e81c166107aa57612bef612bfc9661267d610bd19a610f279660c01c16996126216125fe8c613607565b86019063ffffffff169052565b610180820152614492565b634e487b7160e01b5f52603260045260245ffd5b6108d0908154811015612c55576003915f52027f6404fdb155c59a831d14e4acb0957279f1e3a856a4513ac322398c7bc9a5781b01905f90565b612c07565b346105f75760203660031901126105f7576004356108d0548110156105f757612c84604091612c1b565b506001815491015482519182526020820152f35b346105f75760203660031901126105f757600435612cb5816106d8565b612cbd6136e9565b6001600160a01b038116156105f757610018906143f5565b346105f75760203660031901126105f7576107a3600435612cf5816106d8565b612cfd6142e4565b61228461372b565b9190612d0f61372b565b602081019182514603612e2157612d37612d3b91836001612d2f88612c1b565b5001546139d3565b1590565b612e0f577ff4ad92585b1bc117fbdd644990adf0827bc4c95baeae8a23322af807b6d0020e6060820192612d7c612d76855163ffffffff1690565b86613a65565b8051612e028451926040860195612de7612dd9612dc8895196612da38c5163ffffffff1690565b976080860198612dba8a516001600160a01b031690565b9160a088019b8c5194613ac7565b925193519851995163ffffffff1690565b94516001600160a01b031690565b945163ffffffff9586604051978897169b1699339487612ea2565b0390a4610596600160c955565b60405163582f497d60e11b8152600490fd5b604051633d23e4d160e11b8152600490fd5b9081518082526020808093019301915f5b828110612e52575050505090565b835185529381019392810192600101612e44565b9081518082526020808093019301915f5b828110612e85575050505090565b83516001600160a01b031685529381019392810192600101612e77565b9496959193612ec460a095612ee293885260c0602089015260c0880190612e33565b906001600160a01b0380951660408801528682036060880152612e66565b951515608085015216910152565b35610616816106d8565b35610616816106f4565b903590601e19813603018212156105f7570180359067ffffffffffffffff82116105f7576020019181360383136105f757565b634e487b7160e01b5f52602160045260245ffd5b60031115612f5557565b612f37565b8051821015612c555760209160051b010190565b90821015612c555761119e9160051b810190612f04565b908092918237015f815290565b3d15612fbc573d90612fa3826105a5565b91612fb16040519384610526565b82523d5f602084013e565b606090565b908060209392818452848401375f828201840152601f01601f1916010190565b9492909361300692610616979587526020870152608060408701526080860191612fc1565b926060818503910152612fc1565b91909160ff5f5460081c16156105f75761302d336143f5565b60ff5f5460081c16156105f757613061906108cf9063ffffffff60c01b1963ffffffff60c01b83549260c01b169116179055565b60405161306d81610448565b6009815260208101926820a1a927a9a996ab1960b91b8452640312e302e360dc1b602060405161309c81610448565b60058152015260ff5f5460081c16156105f75761059693612284925190206104e3557f06c015bd22b4c69690933c1058878ebdfef31f9aaae40bbe86d8a09fe1b2972c6104e4556122776147b2565b908160209103126105f7575190565b6040513d5f823e3d90fd5b9190916040818403126105f757803561311d816106d8565b92602082013567ffffffffffffffff81116105f75761061692016105fb565b634e487b7160e01b5f52601160045260245ffd5b91909163ffffffff8080941691160191821161316857565b61313c565b96949290916105969b9a999896949261318d63ffffffff42169889613150565b985b9593919b999897969492909b6131a361372b565b6108cf549660ff8860e81c166107aa578760c01c63ffffffff166131c690613607565b6131ed906108cf9063ffffffff60c01b1963ffffffff60c01b83549260c01b169116179055565b6131f5610589565b9d6001600160a01b038f921682526001600160a01b031690602001526001600160a01b031660408d01526001600160a01b031660608c015260808b015260a08a015260c08901526001600160a01b031660e088015260c01c63ffffffff1661010087015261012086019061326e919063ffffffff169052565b63ffffffff1661014085015263ffffffff166101608401523690613291926105c1565b6101808201526132a090614492565b610596600160c955565b916040519160208301936bffffffffffffffffffffffff199060601b16845260348301526054820152605481526132e0816104b6565b51902090565b9392916020916132fe91604087526040870191612fc1565b930152565b908160209103126105f757604051906020820182811067ffffffffffffffff8211176104645760405235815290565b6106169161018090825181526020830151602082015260408301516040820152606083015160608201526080830151608082015260a083015160a082015260c083015160c082015260e083015160e082015261010080840151908201526133a7610120808501519083019063ffffffff169052565b6101408381015163ffffffff169082015281610160809401519382015201906111c3565b6133e360409295949395606083526060830190613332565b9460208201520152565b9060206106169281815201906111c3565b9c9a999897969594939291909661341361372b565b60ff6108cf5460e81c166107aa5761342c908e336132aa565b96604051809e61343b82610469565b81526020015260408d015260608c015260808b015260a08a015260c089015260e088015261010087015263ffffffff1661012086015261326e565b97929095939196949761348761372b565b60ff6108cf5460e01c16612b02576134a26101408201612efa565b63ffffffff8042169116101580613540575b612ad15761352961353b966135216132a09b6134d3610ea5368761288e565b9a6134dc610548565b9b6134e7368861288e565b8d5260208d01528660408d01528760608d0152613505368b846105c1565b60808d015260a08c01526135198535613ca8565b9836916105c1565b9536916105c1565b9461010060e083013592013590614319565b614083565b5061354e6040820135613ca8565b6001600160a01b03163314156134b4565b906135698261088c565b6135766040519182610526565b8281528092613587601f199161088c565b01905f5b82811061359757505050565b80606060208093850101520161358b565b6020818303126105f75780519067ffffffffffffffff82116105f7570181601f820112156105f75780516135db816105a5565b926135e96040519485610526565b818452602082840101116105f75761061691602080850191016111a2565b63ffffffff8091169081146131685760010190565b6040516132e0816136396020820194604086526060830190613332565b46604083015203601f198101835282610526565b91909161365861372b565b60ff6108cf5460e01c16612b025761014081015163ffffffff42811691161015806136ca575b612ad1576132a09261368f8261361c565b60c0830151602084015190610160850151926136a9610548565b958652602086015260408501526060840152608083015260a0820152614083565b506136d86040820151613ca8565b6001600160a01b031633141561367e565b6001600160a01b036033541633036105f757565b5f8091602081519101305af4613711612f92565b501561371957565b6040516318cecad560e01b8152600490fd5b600260c954146105f757600260c955565b9190820391821161316857565b926106169695929491946101409585525f60208601526040850152606084015263ffffffff809116608084015260a08301525f60c083015260e08201525f6101008201528161012082015201906111c3565b919394969095966137d5612d37611c4a886137c8896001600160a01b03165f526108d160205260405f2090565b905f5260205260405f2090565b6139c15760070b906706f05b59d3b200006137ef836148d1565b10156139af576ec097ce7bc90715b34b9f1000000000841161399d5763ffffffff9361381d858a164261373c565b857f0000000000000000000000000000000000000000000000000000000000000000161061398b576108cf5460c01c63ffffffff169861385f6125fe8b613607565b6001600160a01b039586807f00000000000000000000000000000000000000000000000000000000000000001698169288841480613982575b156139465780340361393457883b156105f7575f6004996040519a8b8092630d0e30db60e41b825234905af1988915611d1a57613903613916978a927f32ed1a409ef04c7b0227189c3a103dc5ac10e775a15b785dcc510201f7c25ad39c61391b575b505b8361491f565b92604051998a99169d169b169387613749565b0390a4565b8061392861392e92610486565b8061068e565b5f6138fb565b604051636452a35d60e01b8152600490fd5b7f32ed1a409ef04c7b0227189c3a103dc5ac10e775a15b785dcc510201f7c25ad39850876139036139169761397d8430338a6148e0565b6138fd565b50341515613898565b60405163f722177f60e01b8152600490fd5b60405163622db5a960e11b8152600490fd5b60405163284f109760e21b8152600490fd5b604051632a58c4f360e01b8152600490fd5b6106169291604051613a5c81613a4e602082019460208652805160408401526020810151606084015260a0613a18604083015160c06080870152610100860190612e33565b606083015163ffffffff168583015260808301516001600160a01b031660c0860152910151838203603f190160e0850152612e66565b03601f198101835282610526565b51902091614955565b613a70600291612c1b565b500162ffffff8260081c16805f5281602052600160ff60405f205494161b8080941614613aa8575f5260205260405f20908154179055565b60405163954476d960e01b8152600490fd5b9190820180921161316857565b91959495939092935f9681519081815103613c965781613b46575b50505082613af1575b50505050565b6001600160a01b0381613b257ffa7fa7cf6d7dde5f9be65a67e6a1a747e7aa864dcd2d793353c722d80fbbb3579386614a18565b6040805195865233602087015291169463ffffffff1693a45f808080613aeb565b604080516370a0823160e01b81523060048083019190915291906020816024816001600160a01b038b165afa908115611d1a575f91613c77575b505f805b868110613b95575050505050613ae2565b613b9f8189612f5a565b51613bad575b600101613b84565b90613bc390613bbc838a612f5a565b5190613aba565b90828211613c6757613bfd612d37613beb613bde848a612f5a565b516001600160a01b031690565b613bf5848c612f5a565b51908c6149a6565b15613ba5579c5087613c5d613c558f613c40613bde613c39613c1f848f612f5a565b51966001600160a01b03165f526108d760205260405f2090565b928b612f5a565b6001600160a01b03165f5260205260405f2090565b918254613aba565b905560019c613ba5565b50505051632ddaa83160e11b8152fd5b613c90915060203d60201161116c5761115d8183610526565b5f613b80565b6040516319a5316760e31b8152600490fd5b6001600160a01b0390613cba81614c6a565b1690565b91612d3790613d3792845160408096015191865191613cdc8361049a565b8252613a5c613cf76020840192468452898501958652612c1b565b5054938851928391613d1c6020840196602088525160608d86015260a0850190613332565b9151606084015251608083015203601f198101835282610526565b613d3e5750565b5163582f497d60e11b8152600490fd5b613d5782612f4b565b52565b9a989693919c9b9997959492909c6101e08c019d8c5260208c015260408b015260608a0152608089015263ffffffff80921660a08901521660c087015260e08601526101008501526101208401526101408301528051610160830152602081015161018083015260408101516101a08301526060015190613dda82612f4b565b6101c00152565b9061061694936080936001600160a01b038093168452602084015216604082015281606082015201906111c3565b905f82516101208101613e26815163ffffffff1690565b63ffffffff42911610614071576020850151906002613e4e835f526108d660205260405f2090565b541461405f57613e6886925f526108d660205260405f2090565b6002905560608301519060808401519160a08501519260c0860151918560a0810151938860e0810151956101008201519751613ea79063ffffffff1690565b61014083015163ffffffff166040840151918451936020860151956101600151613ed090614304565b966060890151986080019e8f51613ee690614304565b906040015190613ef4610598565b9a8b5260208b015260408a0152600260608a01526040519d8e9b613f189b8d613d5a565b037f44b559f101f8fbcc8a0ea43fa91a05a729a5ea6e14a7c75aa750374690137208905f94a46080820151613f4c90613ca8565b9060408601519560600151613f6090613ca8565b9260800151613f6e90613ca8565b6001600160a01b03919082167f000000000000000000000000000000000000000000000000000000000000000083160361404a5784614037575b613fb487838616614c85565b5192835115158061402d575b613fce575b50505050509050565b1690813b156140295783613ffc959660405196879586948593633a5be8cb60e01b8552339160048601613de1565b03925af18015611d1a57614016575b808080808594613fc5565b8061392861402392610486565b5f61400b565b8380fd5b50803b1515613fc0565b6140458730338587166148e0565b613fa8565b5f945061405a8785858516614889565b613fb4565b604051630479306360e51b8152600490fd5b60405163d642b7d960e01b8152600490fd5b8051916101208301614099815163ffffffff1690565b63ffffffff4291161061407157602083015160016140c0825f526108d660205260405f2090565b54036142dd576001905b60026140df825f526108d660205260405f2090565b541461405f576140fb614101915f526108d660205260405f2090565b60029055565b7f44b559f101f8fbcc8a0ea43fa91a05a729a5ea6e14a7c75aa75037469013720860608601516080870151906141ce8760a08a0151958a60c08101519760a08401519860e08301519961415e6101008501519c5163ffffffff1690565b61014085015163ffffffff16916040860151938651956141c261418a61016060208b01519a0151614304565b9960608c01519b60406141a06080830151614304565b9101519060206141ae610598565b9e8f528e015260408d015260608c01613d4e565b6040519c8d9c8d613d5a565b0390a46141de6080830151613ca8565b916040820151916080614200816141f86060850151613ca8565b940151613ca8565b6001600160a01b03929083167f00000000000000000000000000000000000000000000000000000000000000008416036142ca57614242853033868a166148e0565b61424e85848616614c85565b01519182511515806142c0575b614267575b5050505050565b16803b156105f757614295935f809460405196879586948593633a5be8cb60e01b8552339160048601613de1565b03925af18015611d1a576142ad575b80808080614260565b806139286142ba92610486565b5f6142a4565b50803b151561425b565b6142d8858533868a166148e0565b61424e565b5f906140ca565b60ff610cbf5416156142f257565b604051631147e02f60e11b8152600490fd5b805190816143125750505f90565b6020012090565b9392604293610596979660208151910120906040519260208401947f8d1994e2bbbd77564cdca06dd819e7ee2a5efa06c80dcb59a4a7b6e39edc538f86526040850152856060850152608084015260a083015260c082015260c0815261437e816104ee565b519020906104e354906104e454906040519160208301937fc2f8787176b8ac6bf7215b4adcc1e069bf4ab82d9ab1df05a57a91d425935b6e8552604084015260608301526080820152608081526143d48161050a565b519020906040519161190160f01b8352600283015260228201522090614ea5565b603354906001600160a01b0380911691826001600160a01b0319821617603355167f8be0079c531659141344cd1fd0a4f28419497f9722a3daafe3b4186f6b6457e05f80a3565b96926106169a9996949198959261014099895260208901526040880152606087015263ffffffff928380921660808801521660a08601521660c084015260e08301526101008201528161012082015201906111c3565b61449c8151614c6a565b604090818101906144c86144b08351613ca8565b6001600160a01b03165f526108d160205260405f2090565b926144e5612d37611c4a60c085019687515f5260205260405f2090565b6147a257610120820192614509614500855163ffffffff1690565b63ffffffff1690565b804210908115614769575b506147585761014083019261452d845163ffffffff1690565b9163ffffffff9283614561817f00000000000000000000000000000000000000000000000000000000000000001642613aba565b9116116147475761016082015163ffffffff169280841680614703575b50508051936001600160a01b037f000000000000000000000000000000000000000000000000000000000000000016809514806146fa575b15614694576080830151340361468457843b156105f7575f600495825196878092630d0e30db60e41b825234905af1918215611d1a577f32ed1a409ef04c7b0227189c3a103dc5ac10e775a15b785dcc510201f7c25ad39561391693614671575b505b519260608101519460808201519060a08301519a51986146516146466101008601519c5163ffffffff1690565b915163ffffffff1690565b9084519c60208601519461018060e088015197015197519a8b9a8b61443c565b8061392861467e92610486565b5f614617565b51636452a35d60e01b8152600490fd5b91929350346146e9577f32ed1a409ef04c7b0227189c3a103dc5ac10e775a15b785dcc510201f7c25ad3939291816146e46146d56124066139169551613ca8565b608086015190309033906148e0565b614619565b8151636452a35d60e01b8152600490fd5b503415156145b6565b6301e133801015614732575b5060e082015115614721575f8061457e565b835163495d907f60e01b8152600490fd5b926147409193421690613150565b915f61470f565b835163582e388960e01b8152600490fd5b815163f722177f60e01b8152600490fd5b61477491504261373c565b63ffffffff7f000000000000000000000000000000000000000000000000000000000000000016105f614514565b51632a58c4f360e01b8152600490fd5b60ff5f5460081c16156105f757565b60ff5f5460081c16156105f757600160c955565b6001600160a01b0316801561481d576108cd816001600160a01b03198254161790557fa9e8c42c9e7fca7f62755189a16b2f5314d43d8fb24e91ba54e6d65f9314e8495f80a2565b60405163ba97b39d60e01b8152600490fd5b6001600160a01b03168015614877576108ce816001600160a01b03198254161790557fa73e8909f8616742d7fe701153d82666f7b7cd480552e23ebb05d358c22fd04e5f80a2565b604051635b03092b60e11b8152600490fd5b60405163a9059cbb60e01b60208201526001600160a01b0390921660248301526044820192909252610596916148cc82606481015b03601f198101845283610526565b614f83565b5f81126148db5790565b5f0390565b909261059693604051936323b872dd60e01b60208601526001600160a01b0380921660248601521660448401526064830152606482526148cc8261050a565b90670de0b6b3a7640000915f82840392128383128116908484139015161761316857818102918183041490151715613168570490565b929091905f915b845183101561499e5761496f8386612f5a565b51908181101561498d575f52602052600160405f205b92019161495c565b905f52602052600160405f20614985565b915092501490565b60405163a9059cbb60e01b60208281019182526001600160a01b039094166024830152604482019490945290925f916149e28160648101613a4e565b519082855af1903d5f5190836149f9575b50505090565b91925090614a0e57503b15155b5f80806149f3565b6001915014614a06565b906001600160a01b0390817f000000000000000000000000000000000000000000000000000000000000000016908115159081614c3c575b5015614c2a57816108ce5416927f000000000000000000000000000000000000000000000000000000000000000091614a8a828285615079565b604090604051916332dd704760e21b83526020936004958585600481875afa948515611d1a57869189915f97614bfb575b501697604051958680926352b7631960e11b825281614aed8d600483019190916001600160a01b036020820193169052565b0392165afa938415611d1a575f94614bdc575b5092947f000000000000000000000000000000000000000000000000000000000000000093805b614b3657505050505050505050565b614b879087811115614bd65787905b84516337e9a82760e11b815284810183815263ffffffff89166020820152604081018d90526001600160a01b038c166060820152909389918591829160800190565b03815f8a5af1928315611d1a57614ba393614ba9575b5061373c565b80614b27565b614bc890893d8b11614bcf575b614bc08183610526565b810190615028565b505f614b9d565b503d614bb6565b80614b45565b614bf4919450853d871161116c5761115d8183610526565b925f614b00565b614c1c919750833d8511614c23575b614c148183610526565b810190615013565b955f614abb565b503d614c0a565b60405163d623472560e01b8152600490fd5b83167f000000000000000000000000000000000000000000000000000000000000000084161490505f614a50565b60a01c614c7357565b6040516379ec0ed760e11b8152600490fd5b6001600160a01b0390811690813b15614cc5579061059692917f000000000000000000000000000000000000000000000000000000000000000016614889565b7f000000000000000000000000000000000000000000000000000000000000000016803b156105f7575f8091602460405180948193632e1a7d4d60e01b83528860048401525af18015611d1a57614d37575b508147106105f7575f80809381935af1614d2f612f92565b50156105f757565b614d4090610486565b5f614d17565b614d4f81614e62565b6001600160a01b0381167fbc7cd75a20ee27fd9adebab32041f755214dbc6bffa90cc0225b39da2e5c2d3b5f80a2815115801590614e0a575b614d90575050565b5f80614e07937f206661696c65640000000000000000000000000000000000000000000000000060408051614dc48161049a565b602781527f416464726573733a206c6f772d6c6576656c2064656c65676174652063616c6c60208201520152602081519101845af4614e01612f92565b9161511d565b50565b505f614d88565b614e1a81614e62565b6001600160a01b0381167fbc7cd75a20ee27fd9adebab32041f755214dbc6bffa90cc0225b39da2e5c2d3b5f80a2815115801590614e5a57614d90575050565b506001614d88565b803b156105f7576001600160a01b037f360894a13ba1a3210667c828492db98dca3e2076cc3735a920a3ca505d382bbc91166001600160a01b0319825416179055565b614eaf8383615048565b6005819592951015612f5557159384614f6d575b508315614ee7575b50505015614ed557565b60405163938a182160e01b8152600490fd5b5f929350908291604051614f1f81613a4e6020820194630b135d3f60e11b998a875260248401526040604484015260648301906111c3565b51915afa90614f2c612f92565b82614f5f575b82614f42575b50505f8080614ecb565b614f57919250602080825183010191016130eb565b145f80614f38565b915060208251101591614f32565b6001600160a01b0383811691161493505f614ec3565b905f806001600160a01b03614fda9416927f5361666545524332303a206c6f772d6c6576656c2063616c6c206661696c65646020604051614fc381610448565b818152015260208151910182855af1614e01612f92565b8051908115918215614ff0575b5050156105f757565b81925090602091810103126105f7576020015161500c81610bdb565b5f80614fe7565b908160209103126105f75751610616816106d8565b908160209103126105f7575167ffffffffffffffff811681036105f75790565b9060418151145f146150705761119e91602082015190606060408401519301515f1a90615146565b50505f90600290565b6044919260206001600160a01b0360405194858092636eb1769f60e11b8252306004830152808916602483015286165afa928315611d1a575f936150fc575b5082018092116131685760405163095ea7b360e01b60208201526001600160a01b039093166024840152604483019190915261059691906148cc82606481016148be565b61511691935060203d60201161116c5761115d8183610526565b915f6150b8565b90156151375781511561512e575090565b3b156105f75790565b5080519081156105f757602001fd5b7f7fffffffffffffffffffffffffffffff5d576e7357a4501ddfe92f46681b20a084116151b6576020935f9360ff60809460405194855216868401526040830152606082015282805260015afa15611d1a575f516001600160a01b038116156151ae57905f90565b505f90600190565b505050505f9060039056fea264697066735822122076b8d502f74520624b9c981b6b44ff6b5ab65ad0f584873b19a2d2f81190e5d264736f6c63430008170033"
}