{
  "address": "0x09aea4b2242abC8bb4BB78D537A67a245A7bEC64",
  "abi": [
    {
      "inputs": [
        {
          "internalType": "address",
          "name": "_crossDomainAdmin",
          "type": "address"
        },
        {
          "internalType": "address",
          "name": "_hubPool",
          "type": "address"
        },
        {
          "internalType": "address",
          "name": "timerAddress",
          "type": "address"
        }
      ],
      "stateMutability": "nonpayable",
      "type": "constructor"
    },
    {
      "anonymous": false,
      "inputs": [
        {
          "indexed": true,
          "internalType": "uint256",
          "name": "rootBundleId",
          "type": "uint256"
        }
      ],
      "name": "EmergencyDeleteRootBundle",
      "type": "event"
    },
    {
      "anonymous": false,
      "inputs": [
        {
          "indexed": true,
          "internalType": "address",
          "name": "originToken",
          "type": "address"
        },
        {
          "indexed": true,
          "internalType": "uint256",
          "name": "destinationChainId",
          "type": "uint256"
        },
        {
          "indexed": false,
          "internalType": "bool",
          "name": "enabled",
          "type": "bool"
        }
      ],
      "name": "EnabledDepositRoute",
      "type": "event"
    },
    {
      "anonymous": false,
      "inputs": [
        {
          "indexed": false,
          "internalType": "uint256",
          "name": "amountToReturn",
          "type": "uint256"
        },
        {
          "indexed": true,
          "internalType": "uint256",
          "name": "chainId",
          "type": "uint256"
        },
        {
          "indexed": false,
          "internalType": "uint256[]",
          "name": "refundAmounts",
          "type": "uint256[]"
        },
        {
          "indexed": true,
          "internalType": "uint32",
          "name": "rootBundleId",
          "type": "uint32"
        },
        {
          "indexed": true,
          "internalType": "uint32",
          "name": "leafId",
          "type": "uint32"
        },
        {
          "indexed": false,
          "internalType": "address",
          "name": "l2TokenAddress",
          "type": "address"
        },
        {
          "indexed": false,
          "internalType": "address[]",
          "name": "refundAddresses",
          "type": "address[]"
        },
        {
          "indexed": false,
          "internalType": "address",
          "name": "caller",
          "type": "address"
        }
      ],
      "name": "ExecutedRelayerRefundRoot",
      "type": "event"
    },
    {
      "anonymous": false,
      "inputs": [
        {
          "indexed": false,
          "internalType": "uint256",
          "name": "amount",
          "type": "uint256"
        },
        {
          "indexed": false,
          "internalType": "uint256",
          "name": "totalFilledAmount",
          "type": "uint256"
        },
        {
          "indexed": false,
          "internalType": "uint256",
          "name": "fillAmount",
          "type": "uint256"
        },
        {
          "indexed": false,
          "internalType": "uint256",
          "name": "repaymentChainId",
          "type": "uint256"
        },
        {
          "indexed": false,
          "internalType": "uint256",
          "name": "originChainId",
          "type": "uint256"
        },
        {
          "indexed": false,
          "internalType": "uint256",
          "name": "destinationChainId",
          "type": "uint256"
        },
        {
          "indexed": false,
          "internalType": "uint64",
          "name": "relayerFeePct",
          "type": "uint64"
        },
        {
          "indexed": false,
          "internalType": "uint64",
          "name": "appliedRelayerFeePct",
          "type": "uint64"
        },
        {
          "indexed": false,
          "internalType": "uint64",
          "name": "realizedLpFeePct",
          "type": "uint64"
        },
        {
          "indexed": false,
          "internalType": "uint32",
          "name": "depositId",
          "type": "uint32"
        },
        {
          "indexed": false,
          "internalType": "address",
          "name": "destinationToken",
          "type": "address"
        },
        {
          "indexed": true,
          "internalType": "address",
          "name": "relayer",
          "type": "address"
        },
        {
          "indexed": true,
          "internalType": "address",
          "name": "depositor",
          "type": "address"
        },
        {
          "indexed": false,
          "internalType": "address",
          "name": "recipient",
          "type": "address"
        },
        {
          "indexed": false,
          "internalType": "bool",
          "name": "isSlowRelay",
          "type": "bool"
        }
      ],
      "name": "FilledRelay",
      "type": "event"
    },
    {
      "anonymous": false,
      "inputs": [
        {
          "indexed": false,
          "internalType": "uint256",
          "name": "amount",
          "type": "uint256"
        },
        {
          "indexed": false,
          "internalType": "uint256",
          "name": "originChainId",
          "type": "uint256"
        },
        {
          "indexed": false,
          "internalType": "uint256",
          "name": "destinationChainId",
          "type": "uint256"
        },
        {
          "indexed": false,
          "internalType": "uint64",
          "name": "relayerFeePct",
          "type": "uint64"
        },
        {
          "indexed": true,
          "internalType": "uint32",
          "name": "depositId",
          "type": "uint32"
        },
        {
          "indexed": false,
          "internalType": "uint32",
          "name": "quoteTimestamp",
          "type": "uint32"
        },
        {
          "indexed": true,
          "internalType": "address",
          "name": "originToken",
          "type": "address"
        },
        {
          "indexed": false,
          "internalType": "address",
          "name": "recipient",
          "type": "address"
        },
        {
          "indexed": true,
          "internalType": "address",
          "name": "depositor",
          "type": "address"
        }
      ],
      "name": "FundsDeposited",
      "type": "event"
    },
    {
      "anonymous": false,
      "inputs": [
        {
          "indexed": true,
          "internalType": "address",
          "name": "l2Token",
          "type": "address"
        },
        {
          "indexed": false,
          "internalType": "address",
          "name": "target",
          "type": "address"
        },
        {
          "indexed": false,
          "internalType": "uint256",
          "name": "numberOfTokensBridged",
          "type": "uint256"
        },
        {
          "indexed": false,
          "internalType": "uint256",
          "name": "l1Gas",
          "type": "uint256"
        }
      ],
      "name": "OptimismTokensBridged",
      "type": "event"
    },
    {
      "anonymous": false,
      "inputs": [
        {
          "indexed": true,
          "internalType": "uint32",
          "name": "rootBundleId",
          "type": "uint32"
        },
        {
          "indexed": true,
          "internalType": "bytes32",
          "name": "relayerRefundRoot",
          "type": "bytes32"
        },
        {
          "indexed": true,
          "internalType": "bytes32",
          "name": "slowRelayRoot",
          "type": "bytes32"
        }
      ],
      "name": "RelayedRootBundle",
      "type": "event"
    },
    {
      "anonymous": false,
      "inputs": [
        {
          "indexed": false,
          "internalType": "uint64",
          "name": "newRelayerFeePct",
          "type": "uint64"
        },
        {
          "indexed": true,
          "internalType": "uint32",
          "name": "depositId",
          "type": "uint32"
        },
        {
          "indexed": true,
          "internalType": "address",
          "name": "depositor",
          "type": "address"
        },
        {
          "indexed": false,
          "internalType": "bytes",
          "name": "depositorSignature",
          "type": "bytes"
        }
      ],
      "name": "RequestedSpeedUpDeposit",
      "type": "event"
    },
    {
      "anonymous": false,
      "inputs": [
        {
          "indexed": false,
          "internalType": "uint32",
          "name": "newBuffer",
          "type": "uint32"
        }
      ],
      "name": "SetDepositQuoteTimeBuffer",
      "type": "event"
    },
    {
      "anonymous": false,
      "inputs": [
        {
          "indexed": true,
          "internalType": "address",
          "name": "newHubPool",
          "type": "address"
        }
      ],
      "name": "SetHubPool",
      "type": "event"
    },
    {
      "anonymous": false,
      "inputs": [
        {
          "indexed": true,
          "internalType": "uint32",
          "name": "newL1Gas",
          "type": "uint32"
        }
      ],
      "name": "SetL1Gas",
      "type": "event"
    },
    {
      "anonymous": false,
      "inputs": [
        {
          "indexed": true,
          "internalType": "address",
          "name": "l2Token",
          "type": "address"
        },
        {
          "indexed": true,
          "internalType": "address",
          "name": "tokenBridge",
          "type": "address"
        }
      ],
      "name": "SetL2TokenBridge",
      "type": "event"
    },
    {
      "anonymous": false,
      "inputs": [
        {
          "indexed": true,
          "internalType": "address",
          "name": "newAdmin",
          "type": "address"
        }
      ],
      "name": "SetXDomainAdmin",
      "type": "event"
    },
    {
      "anonymous": false,
      "inputs": [
        {
          "indexed": false,
          "internalType": "uint256",
          "name": "amountToReturn",
          "type": "uint256"
        },
        {
          "indexed": true,
          "internalType": "uint256",
          "name": "chainId",
          "type": "uint256"
        },
        {
          "indexed": true,
          "internalType": "uint32",
          "name": "leafId",
          "type": "uint32"
        },
        {
          "indexed": true,
          "internalType": "address",
          "name": "l2TokenAddress",
          "type": "address"
        },
        {
          "indexed": false,
          "internalType": "address",
          "name": "caller",
          "type": "address"
        }
      ],
      "name": "TokensBridged",
      "type": "event"
    },
    {
      "inputs": [],
      "name": "chainId",
      "outputs": [
        {
          "internalType": "uint256",
          "name": "",
          "type": "uint256"
        }
      ],
      "stateMutability": "view",
      "type": "function"
    },
    {
      "inputs": [],
      "name": "crossDomainAdmin",
      "outputs": [
        {
          "internalType": "address",
          "name": "",
          "type": "address"
        }
      ],
      "stateMutability": "view",
      "type": "function"
    },
    {
      "inputs": [
        {
          "internalType": "address",
          "name": "recipient",
          "type": "address"
        },
        {
          "internalType": "address",
          "name": "originToken",
          "type": "address"
        },
        {
          "internalType": "uint256",
          "name": "amount",
          "type": "uint256"
        },
        {
          "internalType": "uint256",
          "name": "destinationChainId",
          "type": "uint256"
        },
        {
          "internalType": "uint64",
          "name": "relayerFeePct",
          "type": "uint64"
        },
        {
          "internalType": "uint32",
          "name": "quoteTimestamp",
          "type": "uint32"
        }
      ],
      "name": "deposit",
      "outputs": [],
      "stateMutability": "payable",
      "type": "function"
    },
    {
      "inputs": [],
      "name": "depositQuoteTimeBuffer",
      "outputs": [
        {
          "internalType": "uint32",
          "name": "",
          "type": "uint32"
        }
      ],
      "stateMutability": "view",
      "type": "function"
    },
    {
      "inputs": [
        {
          "internalType": "uint256",
          "name": "rootBundleId",
          "type": "uint256"
        }
      ],
      "name": "emergencyDeleteRootBundle",
      "outputs": [],
      "stateMutability": "nonpayable",
      "type": "function"
    },
    {
      "inputs": [
        {
          "internalType": "address",
          "name": "",
          "type": "address"
        },
        {
          "internalType": "uint256",
          "name": "",
          "type": "uint256"
        }
      ],
      "name": "enabledDepositRoutes",
      "outputs": [
        {
          "internalType": "bool",
          "name": "",
          "type": "bool"
        }
      ],
      "stateMutability": "view",
      "type": "function"
    },
    {
      "inputs": [
        {
          "internalType": "uint32",
          "name": "rootBundleId",
          "type": "uint32"
        },
        {
          "components": [
            {
              "internalType": "uint256",
              "name": "amountToReturn",
              "type": "uint256"
            },
            {
              "internalType": "uint256",
              "name": "chainId",
              "type": "uint256"
            },
            {
              "internalType": "uint256[]",
              "name": "refundAmounts",
              "type": "uint256[]"
            },
            {
              "internalType": "uint32",
              "name": "leafId",
              "type": "uint32"
            },
            {
              "internalType": "address",
              "name": "l2TokenAddress",
              "type": "address"
            },
            {
              "internalType": "address[]",
              "name": "refundAddresses",
              "type": "address[]"
            }
          ],
          "internalType": "struct SpokePoolInterface.RelayerRefundLeaf",
          "name": "relayerRefundLeaf",
          "type": "tuple"
        },
        {
          "internalType": "bytes32[]",
          "name": "proof",
          "type": "bytes32[]"
        }
      ],
      "name": "executeRelayerRefundLeaf",
      "outputs": [],
      "stateMutability": "nonpayable",
      "type": "function"
    },
    {
      "inputs": [
        {
          "internalType": "address",
          "name": "depositor",
          "type": "address"
        },
        {
          "internalType": "address",
          "name": "recipient",
          "type": "address"
        },
        {
          "internalType": "address",
          "name": "destinationToken",
          "type": "address"
        },
        {
          "internalType": "uint256",
          "name": "totalRelayAmount",
          "type": "uint256"
        },
        {
          "internalType": "uint256",
          "name": "originChainId",
          "type": "uint256"
        },
        {
          "internalType": "uint64",
          "name": "realizedLpFeePct",
          "type": "uint64"
        },
        {
          "internalType": "uint64",
          "name": "relayerFeePct",
          "type": "uint64"
        },
        {
          "internalType": "uint32",
          "name": "depositId",
          "type": "uint32"
        },
        {
          "internalType": "uint32",
          "name": "rootBundleId",
          "type": "uint32"
        },
        {
          "internalType": "bytes32[]",
          "name": "proof",
          "type": "bytes32[]"
        }
      ],
      "name": "executeSlowRelayLeaf",
      "outputs": [],
      "stateMutability": "nonpayable",
      "type": "function"
    },
    {
      "inputs": [
        {
          "internalType": "address",
          "name": "depositor",
          "type": "address"
        },
        {
          "internalType": "address",
          "name": "recipient",
          "type": "address"
        },
        {
          "internalType": "address",
          "name": "destinationToken",
          "type": "address"
        },
        {
          "internalType": "uint256",
          "name": "amount",
          "type": "uint256"
        },
        {
          "internalType": "uint256",
          "name": "maxTokensToSend",
          "type": "uint256"
        },
        {
          "internalType": "uint256",
          "name": "repaymentChainId",
          "type": "uint256"
        },
        {
          "internalType": "uint256",
          "name": "originChainId",
          "type": "uint256"
        },
        {
          "internalType": "uint64",
          "name": "realizedLpFeePct",
          "type": "uint64"
        },
        {
          "internalType": "uint64",
          "name": "relayerFeePct",
          "type": "uint64"
        },
        {
          "internalType": "uint32",
          "name": "depositId",
          "type": "uint32"
        }
      ],
      "name": "fillRelay",
      "outputs": [],
      "stateMutability": "nonpayable",
      "type": "function"
    },
    {
      "inputs": [
        {
          "internalType": "address",
          "name": "depositor",
          "type": "address"
        },
        {
          "internalType": "address",
          "name": "recipient",
          "type": "address"
        },
        {
          "internalType": "address",
          "name": "destinationToken",
          "type": "address"
        },
        {
          "internalType": "uint256",
          "name": "amount",
          "type": "uint256"
        },
        {
          "internalType": "uint256",
          "name": "maxTokensToSend",
          "type": "uint256"
        },
        {
          "internalType": "uint256",
          "name": "repaymentChainId",
          "type": "uint256"
        },
        {
          "internalType": "uint256",
          "name": "originChainId",
          "type": "uint256"
        },
        {
          "internalType": "uint64",
          "name": "realizedLpFeePct",
          "type": "uint64"
        },
        {
          "internalType": "uint64",
          "name": "relayerFeePct",
          "type": "uint64"
        },
        {
          "internalType": "uint64",
          "name": "newRelayerFeePct",
          "type": "uint64"
        },
        {
          "internalType": "uint32",
          "name": "depositId",
          "type": "uint32"
        },
        {
          "internalType": "bytes",
          "name": "depositorSignature",
          "type": "bytes"
        }
      ],
      "name": "fillRelayWithUpdatedFee",
      "outputs": [],
      "stateMutability": "nonpayable",
      "type": "function"
    },
    {
      "inputs": [],
      "name": "getCurrentTime",
      "outputs": [
        {
          "internalType": "uint256",
          "name": "",
          "type": "uint256"
        }
      ],
      "stateMutability": "view",
      "type": "function"
    },
    {
      "inputs": [],
      "name": "hubPool",
      "outputs": [
        {
          "internalType": "address",
          "name": "",
          "type": "address"
        }
      ],
      "stateMutability": "view",
      "type": "function"
    },
    {
      "inputs": [],
      "name": "l1Gas",
      "outputs": [
        {
          "internalType": "uint32",
          "name": "",
          "type": "uint32"
        }
      ],
      "stateMutability": "view",
      "type": "function"
    },
    {
      "inputs": [],
      "name": "l2Eth",
      "outputs": [
        {
          "internalType": "address",
          "name": "",
          "type": "address"
        }
      ],
      "stateMutability": "view",
      "type": "function"
    },
    {
      "inputs": [],
      "name": "messenger",
      "outputs": [
        {
          "internalType": "address",
          "name": "",
          "type": "address"
        }
      ],
      "stateMutability": "view",
      "type": "function"
    },
    {
      "inputs": [
        {
          "internalType": "bytes[]",
          "name": "data",
          "type": "bytes[]"
        }
      ],
      "name": "multicall",
      "outputs": [
        {
          "internalType": "bytes[]",
          "name": "results",
          "type": "bytes[]"
        }
      ],
      "stateMutability": "payable",
      "type": "function"
    },
    {
      "inputs": [],
      "name": "numberOfDeposits",
      "outputs": [
        {
          "internalType": "uint32",
          "name": "",
          "type": "uint32"
        }
      ],
      "stateMutability": "view",
      "type": "function"
    },
    {
      "inputs": [
        {
          "internalType": "bytes32",
          "name": "",
          "type": "bytes32"
        }
      ],
      "name": "relayFills",
      "outputs": [
        {
          "internalType": "uint256",
          "name": "",
          "type": "uint256"
        }
      ],
      "stateMutability": "view",
      "type": "function"
    },
    {
      "inputs": [
        {
          "internalType": "bytes32",
          "name": "relayerRefundRoot",
          "type": "bytes32"
        },
        {
          "internalType": "bytes32",
          "name": "slowRelayRoot",
          "type": "bytes32"
        }
      ],
      "name": "relayRootBundle",
      "outputs": [],
      "stateMutability": "nonpayable",
      "type": "function"
    },
    {
      "inputs": [
        {
          "internalType": "uint256",
          "name": "",
          "type": "uint256"
        }
      ],
      "name": "rootBundles",
      "outputs": [
        {
          "internalType": "bytes32",
          "name": "slowRelayRoot",
          "type": "bytes32"
        },
        {
          "internalType": "bytes32",
          "name": "relayerRefundRoot",
          "type": "bytes32"
        }
      ],
      "stateMutability": "view",
      "type": "function"
    },
    {
      "inputs": [
        {
          "internalType": "address",
          "name": "newCrossDomainAdmin",
          "type": "address"
        }
      ],
      "name": "setCrossDomainAdmin",
      "outputs": [],
      "stateMutability": "nonpayable",
      "type": "function"
    },
    {
      "inputs": [
        {
          "internalType": "uint256",
          "name": "time",
          "type": "uint256"
        }
      ],
      "name": "setCurrentTime",
      "outputs": [],
      "stateMutability": "nonpayable",
      "type": "function"
    },
    {
      "inputs": [
        {
          "internalType": "uint32",
          "name": "newDepositQuoteTimeBuffer",
          "type": "uint32"
        }
      ],
      "name": "setDepositQuoteTimeBuffer",
      "outputs": [],
      "stateMutability": "nonpayable",
      "type": "function"
    },
    {
      "inputs": [
        {
          "internalType": "address",
          "name": "originToken",
          "type": "address"
        },
        {
          "internalType": "uint256",
          "name": "destinationChainId",
          "type": "uint256"
        },
        {
          "internalType": "bool",
          "name": "enabled",
          "type": "bool"
        }
      ],
      "name": "setEnableRoute",
      "outputs": [],
      "stateMutability": "nonpayable",
      "type": "function"
    },
    {
      "inputs": [
        {
          "internalType": "address",
          "name": "newHubPool",
          "type": "address"
        }
      ],
      "name": "setHubPool",
      "outputs": [],
      "stateMutability": "nonpayable",
      "type": "function"
    },
    {
      "inputs": [
        {
          "internalType": "uint32",
          "name": "newl1Gas",
          "type": "uint32"
        }
      ],
      "name": "setL1GasLimit",
      "outputs": [],
      "stateMutability": "nonpayable",
      "type": "function"
    },
    {
      "inputs": [
        {
          "internalType": "address",
          "name": "l2Token",
          "type": "address"
        },
        {
          "internalType": "address",
          "name": "tokenBridge",
          "type": "address"
        }
      ],
      "name": "setTokenBridge",
      "outputs": [],
      "stateMutability": "nonpayable",
      "type": "function"
    },
    {
      "inputs": [
        {
          "internalType": "address",
          "name": "depositor",
          "type": "address"
        },
        {
          "internalType": "uint64",
          "name": "newRelayerFeePct",
          "type": "uint64"
        },
        {
          "internalType": "uint32",
          "name": "depositId",
          "type": "uint32"
        },
        {
          "internalType": "bytes",
          "name": "depositorSignature",
          "type": "bytes"
        }
      ],
      "name": "speedUpDeposit",
      "outputs": [],
      "stateMutability": "nonpayable",
      "type": "function"
    },
    {
      "inputs": [],
      "name": "timerAddress",
      "outputs": [
        {
          "internalType": "address",
          "name": "",
          "type": "address"
        }
      ],
      "stateMutability": "view",
      "type": "function"
    },
    {
      "inputs": [
        {
          "internalType": "address",
          "name": "",
          "type": "address"
        }
      ],
      "name": "tokenBridges",
      "outputs": [
        {
          "internalType": "address",
          "name": "",
          "type": "address"
        }
      ],
      "stateMutability": "view",
      "type": "function"
    },
    {
      "inputs": [],
      "name": "wrappedNativeToken",
      "outputs": [
        {
          "internalType": "contract WETH9",
          "name": "",
          "type": "address"
        }
      ],
      "stateMutability": "view",
      "type": "function"
    },
    {
      "stateMutability": "payable",
      "type": "receive"
    }
  ],
  "transactionHash": "0xb8d4097ec35e22c98e17c750a375cfd52dc6883a76e6663f15880aa4db1501e5",
  "args": [
    "0xc186fA914353c44b2E33eBE05f21846F1048bEda",
    "0xc186fA914353c44b2E33eBE05f21846F1048bEda",
    "0x0000000000000000000000000000000000000000"
  ],
  "numDeployments": 1,
  "solcInputHash": "55c0117eb9fb2209b6f60673be44d9d8",
  "bytecode": "0x60c060405260038054604b60a31b63ffffffff60a01b199091161790556007805463ffffffff1916624c4b401790553480156200003b57600080fd5b5060405162004c9738038062004c978339810160408190526200005e9162000277565b600080546001600160a01b031916734200000000000000000000000000000000000007179055600180546001600160a81b0319166001600160a01b03831617600160a01b179055828273deaddeaddeaddeaddeaddeaddeaddeaddead00007342000000000000000000000000000000000000068484848383620000e18462000112565b620000ec83620001b8565b506001600160a01b039081166080529490941660a05250620002c1975050505050505050565b6001600160a01b0381166200016e5760405162461bcd60e51b815260206004820152601960248201527f4261642062726964676520726f7574657220616464726573730000000000000060448201526064015b60405180910390fd5b600280546001600160a01b0319166001600160a01b0383169081179091556040517fa9e8c42c9e7fca7f62755189a16b2f5314d43d8fb24e91ba54e6d65f9314e84990600090a250565b6001600160a01b038116620002105760405162461bcd60e51b815260206004820152601460248201527f4261642068756220706f6f6c2061646472657373000000000000000000000000604482015260640162000165565b600380546001600160a01b0319166001600160a01b0383169081179091556040517f1f17a88f67b0f49060a34bec1a4723a563620e6aa265eb640b5046dcee0759a090600090a250565b80516001600160a01b03811681146200027257600080fd5b919050565b6000806000606084860312156200028d57600080fd5b62000298846200025a565b9250620002a8602085016200025a565b9150620002b8604085016200025a565b90509250925092565b60805160a05161496a6200032d600039600081816106250152612dd201526000818161021c0152818161080001528181610ee801528181610fb10152818161168601528181611e330152818161269b01528181612cd9015281816131420152613198015261496a6000f3fe6080604052600436106101dc5760003560e01c8063766e070311610102578063de7eba7811610095578063ee2a53f811610064578063ee2a53f814610647578063f06850f61461067c578063fbbba9ac146106a9578063ffc351a3146106c957600080fd5b8063de7eba78146105a6578063e1904402146105c6578063e282d5b9146105f3578063e32292111461061357600080fd5b8063a1244c67116100d1578063a1244c67146104ea578063ac9650d814610523578063b27a430014610543578063be3576ee1461058657600080fd5b8063766e07031461047a57806389a153cc146104975780638a7860ce146104b75780639a8a0592146104d757600080fd5b80632752042e1161017a578063493a4f8411610149578063493a4f84146103985780635249fef1146103b85780635285e0581461040357806357f6dcb81461043057600080fd5b80632752042e1461031557806329cb924d146103355780633cb747bf14610358578063492289781461038557600080fd5b80631c39c38d116101b65780631c39c38d146102885780631dfb2d02146102b557806322f8e566146102d5578063272751c7146102f557600080fd5b80630eaac9f0146101e857806317fcb39b1461020a5780631b3d55591461026857600080fd5b366101e357005b600080fd5b3480156101f457600080fd5b50610208610203366004613a20565b6106e9565b005b34801561021657600080fd5b5061023e7f000000000000000000000000000000000000000000000000000000000000000081565b60405173ffffffffffffffffffffffffffffffffffffffff90911681526020015b60405180910390f35b34801561027457600080fd5b50610208610283366004613c02565b6107c9565b34801561029457600080fd5b5060015461023e9073ffffffffffffffffffffffffffffffffffffffff1681565b3480156102c157600080fd5b506102086102d0366004613cfe565b6108b1565b3480156102e157600080fd5b506102086102f0366004613d1b565b61093b565b34801561030157600080fd5b50610208610310366004613d42565b6109e4565b34801561032157600080fd5b50610208610330366004613a20565b610af6565b34801561034157600080fd5b5061034a610bf7565b60405190815260200161025f565b34801561036457600080fd5b5060005461023e9073ffffffffffffffffffffffffffffffffffffffff1681565b610208610393366004613d9c565b610cb3565b3480156103a457600080fd5b506102086103b3366004613e06565b61112a565b3480156103c457600080fd5b506103f36103d3366004613e28565b600560209081526000928352604080842090915290825290205460ff1681565b604051901515815260200161025f565b34801561040f57600080fd5b5060025461023e9073ffffffffffffffffffffffffffffffffffffffff1681565b34801561043c57600080fd5b506003546104659074010000000000000000000000000000000000000000900463ffffffff1681565b60405163ffffffff909116815260200161025f565b34801561048657600080fd5b506007546104659063ffffffff1681565b3480156104a357600080fd5b506102086104b2366004613e54565b611245565b3480156104c357600080fd5b506102086104d2366004613d1b565b6113a1565b3480156104e357600080fd5b504661034a565b3480156104f657600080fd5b50600354610465907801000000000000000000000000000000000000000000000000900463ffffffff1681565b610536610531366004613ef8565b611475565b60405161025f9190613fe3565b34801561054f57600080fd5b5061023e61055e366004613cfe565b60086020526000908152604090205473ffffffffffffffffffffffffffffffffffffffff1681565b34801561059257600080fd5b506102086105a1366004614063565b61164f565b3480156105b257600080fd5b506102086105c1366004613cfe565b611736565b3480156105d257600080fd5b5060035461023e9073ffffffffffffffffffffffffffffffffffffffff1681565b3480156105ff57600080fd5b5061020861060e3660046141c7565b61177c565b34801561061f57600080fd5b5061023e7f000000000000000000000000000000000000000000000000000000000000000081565b34801561065357600080fd5b50610667610662366004613d1b565b6118da565b6040805192835260208301919091520161025f565b34801561068857600080fd5b5061034a610697366004613d1b565b60066020526000908152604090205481565b3480156106b557600080fd5b506102086106c4366004614238565b611908565b3480156106d557600080fd5b506102086106e4366004614271565b611a01565b6106f1611b6c565b6106f9611da5565b610726600180547fffffffffffffffffffffff00ffffffffffffffffffffffffffffffffffffffff169055565b600780547fffffffffffffffffffffffffffffffffffffffffffffffffffffffff000000001663ffffffff83169081179091556040517fe486a5c4bd7b36eabbfe274c99b39130277417be8d2209b4dae04c4fba64ee3a90600090a26107c6600180547fffffffffffffffffffffff00ffffffffffffffffffffffffffffffffffffffff1674010000000000000000000000000000000000000000179055565b50565b6107d1611da5565b6107fe600180547fffffffffffffffffffffff00ffffffffffffffffffffffffffffffffffffffff169055565b7f000000000000000000000000000000000000000000000000000000000000000073ffffffffffffffffffffffffffffffffffffffff16826080015173ffffffffffffffffffffffffffffffffffffffff160361085d5761085d611e2b565b610868838383611e99565b6108ac600180547fffffffffffffffffffffff00ffffffffffffffffffffffffffffffffffffffff1674010000000000000000000000000000000000000000179055565b505050565b6108b9611b6c565b6108c1611da5565b6108ee600180547fffffffffffffffffffffff00ffffffffffffffffffffffffffffffffffffffff169055565b6108f781612245565b6107c6600180547fffffffffffffffffffffff00ffffffffffffffffffffffffffffffffffffffff1674010000000000000000000000000000000000000000179055565b60015473ffffffffffffffffffffffffffffffffffffffff1661095d57600080fd5b6001546040517f22f8e5660000000000000000000000000000000000000000000000000000000081526004810183905273ffffffffffffffffffffffffffffffffffffffff909116906322f8e56690602401600060405180830381600087803b1580156109c957600080fd5b505af11580156109dd573d6000803e3d6000fd5b5050505050565b6109ec611b6c565b6109f4611da5565b610a21600180547fffffffffffffffffffffff00ffffffffffffffffffffffffffffffffffffffff169055565b73ffffffffffffffffffffffffffffffffffffffff8316600081815260056020908152604080832086845282529182902080547fffffffffffffffffffffffffffffffffffffffffffffffffffffffffffffff001685151590811790915591519182528492917f0a21fdd43d0ad0c62689ee7230a47309a050755bcc52eba00310add65297692a910160405180910390a36108ac600180547fffffffffffffffffffffff00ffffffffffffffffffffffffffffffffffffffff1674010000000000000000000000000000000000000000179055565b610afe611b6c565b610b06611da5565b610b33600180547fffffffffffffffffffffff00ffffffffffffffffffffffffffffffffffffffff169055565b600380547fffffffffffffffff00000000ffffffffffffffffffffffffffffffffffffffff167401000000000000000000000000000000000000000063ffffffff8416908102919091179091556040519081527f0e55dd180fa793d9036c804d0a116e6a7617a48e72cee1f83d92793a793fcc039060200160405180910390a16107c6600180547fffffffffffffffffffffff00ffffffffffffffffffffffffffffffffffffffff1674010000000000000000000000000000000000000000179055565b60015460009073ffffffffffffffffffffffffffffffffffffffff1615610cae57600160009054906101000a900473ffffffffffffffffffffffffffffffffffffffff1673ffffffffffffffffffffffffffffffffffffffff166329cb924d6040518163ffffffff1660e01b8152600401602060405180830381865afa158015610c85573d6000803e3d6000fd5b505050506040513d601f19601f82011682018060405250810190610ca9919061434f565b905090565b504290565b610cbb611da5565b610ce8600180547fffffffffffffffffffffff00ffffffffffffffffffffffffffffffffffffffff169055565b73ffffffffffffffffffffffffffffffffffffffff8516600090815260056020908152604080832086845290915290205460ff16610d87576040517f08c379a000000000000000000000000000000000000000000000000000000000815260206004820152600e60248201527f44697361626c656420726f75746500000000000000000000000000000000000060448201526064015b60405180910390fd5b6706f05b59d3b200008267ffffffffffffffff1610610e02576040517f08c379a000000000000000000000000000000000000000000000000000000000815260206004820152601360248201527f696e76616c69642072656c6179657220666565000000000000000000000000006044820152606401610d7e565b600354610e2d9074010000000000000000000000000000000000000000900463ffffffff1682614397565b63ffffffff16610e3b610bf7565b10158015610e805750600354610e6f9074010000000000000000000000000000000000000000900463ffffffff16826143bc565b63ffffffff16610e7d610bf7565b11155b610ee6576040517f08c379a000000000000000000000000000000000000000000000000000000000815260206004820152601260248201527f696e76616c69642071756f74652074696d6500000000000000000000000000006044820152606401610d7e565b7f000000000000000000000000000000000000000000000000000000000000000073ffffffffffffffffffffffffffffffffffffffff168573ffffffffffffffffffffffffffffffffffffffff16148015610f415750600034115b1561103557833414610faf576040517f08c379a000000000000000000000000000000000000000000000000000000000815260206004820152601b60248201527f6d73672e76616c7565206d757374206d6174636820616d6f756e7400000000006044820152606401610d7e565b7f000000000000000000000000000000000000000000000000000000000000000073ffffffffffffffffffffffffffffffffffffffff1663d0e30db0346040518263ffffffff1660e01b81526004016000604051808303818588803b15801561101757600080fd5b505af115801561102b573d6000803e3d6000fd5b5050505050611057565b61105773ffffffffffffffffffffffffffffffffffffffff8616333087612331565b61108e8446600354869086907801000000000000000000000000000000000000000000000000900463ffffffff16868b8d3361240d565b600380546018906110c0907801000000000000000000000000000000000000000000000000900463ffffffff166143e4565b91906101000a81548163ffffffff021916908363ffffffff160217905550611122600180547fffffffffffffffffffffff00ffffffffffffffffffffffffffffffffffffffff1674010000000000000000000000000000000000000000179055565b505050505050565b611132611b6c565b61113a611da5565b611167600180547fffffffffffffffffffffff00ffffffffffffffffffffffffffffffffffffffff169055565b600480546001810182556000918252600381027f8a35acfbc15ff81a39ae7d344fd709f28e8600b4aa8c65c6b64bfe7fe36bd19c81018590557f8a35acfbc15ff81a39ae7d344fd709f28e8600b4aa8c65c6b64bfe7fe36bd19b01838155604051919290918491869163ffffffff8616917fc86ba04c55bc5eb2f2876b91c438849a296dbec7b08751c3074d92e04f0a77af91a45050611241600180547fffffffffffffffffffffff00ffffffffffffffffffffffffffffffffffffffff1674010000000000000000000000000000000000000000179055565b5050565b61124d611da5565b61127a600180547fffffffffffffffffffffff00ffffffffffffffffffffffffffffffffffffffff169055565b60006040518061012001604052808c73ffffffffffffffffffffffffffffffffffffffff1681526020018b73ffffffffffffffffffffffffffffffffffffffff1681526020018a73ffffffffffffffffffffffffffffffffffffffff1681526020018981526020018681526020016112ef4690565b81526020018567ffffffffffffffff1681526020018467ffffffffffffffff1681526020018363ffffffff168152509050600061132b8261249e565b9050600061133d82848b8860006124ce565b905061134e82828a8887600061277b565b505050611395600180547fffffffffffffffffffffff00ffffffffffffffffffffffffffffffffffffffff1674010000000000000000000000000000000000000000179055565b50505050505050505050565b6113a9611b6c565b6113b1611da5565b6113de600180547fffffffffffffffffffffff00ffffffffffffffffffffffffffffffffffffffff169055565b600481815481106113f1576113f1614407565b60009182526020822060039091020181815560010181905560405182917f3569b846531b754c99cb80df3f49cd72fa6fe106aaee5ab8e0caf35a9d7ce88d91a26107c6600180547fffffffffffffffffffffff00ffffffffffffffffffffffffffffffffffffffff1674010000000000000000000000000000000000000000179055565b606034156114df576040517f08c379a000000000000000000000000000000000000000000000000000000000815260206004820152601b60248201527f4f6e6c79206d756c746963616c6c207769746820302076616c756500000000006044820152606401610d7e565b8167ffffffffffffffff8111156114f8576114f8613a3b565b60405190808252806020026020018201604052801561152b57816020015b60608152602001906001900390816115165790505b50905060005b82811015611648576000803086868581811061154f5761154f614407565b90506020028101906115619190614436565b60405161156f92919061449b565b600060405180830381855af49150503d80600081146115aa576040519150601f19603f3d011682016040523d82523d6000602084013e6115af565b606091505b509150915081611615576044815110156115c857600080fd5b600481019050808060200190518101906115e291906144ab565b6040517f08c379a0000000000000000000000000000000000000000000000000000000008152600401610d7e9190614519565b8084848151811061162857611628614407565b6020026020010181905250505080806116409061452c565b915050611531565b5092915050565b611657611da5565b611684600180547fffffffffffffffffffffff00ffffffffffffffffffffffffffffffffffffffff169055565b7f000000000000000000000000000000000000000000000000000000000000000073ffffffffffffffffffffffffffffffffffffffff168873ffffffffffffffffffffffffffffffffffffffff16036116df576116df611e2b565b6116f28a8a8a8a8a468b8b8b8b8b6128bd565b611395600180547fffffffffffffffffffffff00ffffffffffffffffffffffffffffffffffffffff1674010000000000000000000000000000000000000000179055565b61173e611b6c565b611746611da5565b611773600180547fffffffffffffffffffffff00ffffffffffffffffffffffffffffffffffffffff169055565b6108f781612a3c565b611784611da5565b6117b1600180547fffffffffffffffffffffff00ffffffffffffffffffffffffffffffffffffffff169055565b6706f05b59d3b200008367ffffffffffffffff161061182c576040517f08c379a000000000000000000000000000000000000000000000000000000000815260206004820152601360248201527f696e76616c69642072656c6179657220666565000000000000000000000000006044820152606401610d7e565b6118398446858585612b28565b8373ffffffffffffffffffffffffffffffffffffffff168263ffffffff167fb9de16bf376724405019a10ef4fedac57fecd292bf86c08d81d7c42d394d5d378584604051611888929190614564565b60405180910390a36118d4600180547fffffffffffffffffffffff00ffffffffffffffffffffffffffffffffffffffff1674010000000000000000000000000000000000000000179055565b50505050565b600481815481106118ea57600080fd5b60009182526020909120600390910201805460019091015490915082565b611910611b6c565b611918611da5565b611945600180547fffffffffffffffffffffff00ffffffffffffffffffffffffffffffffffffffff169055565b73ffffffffffffffffffffffffffffffffffffffff82811660008181526008602052604080822080547fffffffffffffffffffffffff0000000000000000000000000000000000000000169486169485179055517ff3dc137d2246f9b8abd0bb821e185ba01122c9b3ea3745ffca6208037674d6709190a3611241600180547fffffffffffffffffffffff00ffffffffffffffffffffffffffffffffffffffff1674010000000000000000000000000000000000000000179055565b611a09611da5565b611a36600180547fffffffffffffffffffffff00ffffffffffffffffffffffffffffffffffffffff169055565b611a438c87858585612b28565b60006040518061012001604052808e73ffffffffffffffffffffffffffffffffffffffff1681526020018d73ffffffffffffffffffffffffffffffffffffffff1681526020018c73ffffffffffffffffffffffffffffffffffffffff1681526020018b8152602001888152602001611ab84690565b81526020018767ffffffffffffffff1681526020018667ffffffffffffffff1681526020018463ffffffff1681525090506000611af48261249e565b90506000611b0682848d8960006124ce565b9050611b1782828c8987600061277b565b505050611b5e600180547fffffffffffffffffffffff00ffffffffffffffffffffffffffffffffffffffff1674010000000000000000000000000000000000000000179055565b505050505050505050505050565b60025473ffffffffffffffffffffffffffffffffffffffff16611ba460005473ffffffffffffffffffffffffffffffffffffffff1690565b73ffffffffffffffffffffffffffffffffffffffff163373ffffffffffffffffffffffffffffffffffffffff1614611c5e576040517f08c379a000000000000000000000000000000000000000000000000000000000815260206004820152602e60248201527f4f564d5f58434841494e3a206d657373656e67657220636f6e7472616374207560448201527f6e61757468656e746963617465640000000000000000000000000000000000006064820152608401610d7e565b8073ffffffffffffffffffffffffffffffffffffffff16611c9460005473ffffffffffffffffffffffffffffffffffffffff1690565b73ffffffffffffffffffffffffffffffffffffffff16636e296e456040518163ffffffff1660e01b8152600401602060405180830381865afa158015611cde573d6000803e3d6000fd5b505050506040513d601f19601f82011682018060405250810190611d029190614587565b73ffffffffffffffffffffffffffffffffffffffff16146107c6576040517f08c379a000000000000000000000000000000000000000000000000000000000815260206004820152603060248201527f4f564d5f58434841494e3a2077726f6e672073656e646572206f662063726f7360448201527f732d646f6d61696e206d657373616765000000000000000000000000000000006064820152608401610d7e565b60015474010000000000000000000000000000000000000000900460ff16611e29576040517f08c379a000000000000000000000000000000000000000000000000000000000815260206004820152601f60248201527f5265656e7472616e637947756172643a207265656e7472616e742063616c6c006044820152606401610d7e565b565b4715611e29577f000000000000000000000000000000000000000000000000000000000000000073ffffffffffffffffffffffffffffffffffffffff1663d0e30db0476040518263ffffffff1660e01b81526004016000604051808303818588803b1580156109c957600080fd5b46826020015114611f06576040517f08c379a000000000000000000000000000000000000000000000000000000000815260206004820152600f60248201527f496e76616c696420636861696e496400000000000000000000000000000000006044820152606401610d7e565b8160400151518260a001515114611f79576040517f08c379a000000000000000000000000000000000000000000000000000000000815260206004820152600c60248201527f696e76616c6964206c65616600000000000000000000000000000000000000006044820152606401610d7e565b600060048463ffffffff1681548110611f9457611f94614407565b90600052602060002090600302019050611fb381600101548484612bc5565b612019576040517f08c379a000000000000000000000000000000000000000000000000000000000815260206004820152600960248201527f4261642050726f6f6600000000000000000000000000000000000000000000006044820152606401610d7e565b61203081600201846060015163ffffffff16612c02565b15612097576040517f08c379a000000000000000000000000000000000000000000000000000000000815260206004820152600f60248201527f416c726561647920636c61696d656400000000000000000000000000000000006044820152606401610d7e565b6120ae81600201846060015163ffffffff16612c43565b60408301515160005b8181101561213f576000856040015182815181106120d7576120d7614407565b602002602001015190506000811115612136576121368660a00151838151811061210357612103614407565b602002602001015182886080015173ffffffffffffffffffffffffffffffffffffffff16612c819092919063ffffffff16565b506001016120b7565b508351156121d85761215084612cd7565b836080015173ffffffffffffffffffffffffffffffffffffffff16846060015163ffffffff1685602001517f828fc203220356df8f072a91681caee7d5c75095e2a95e80ed5a14b384697f718760000151336040516121cf92919091825273ffffffffffffffffffffffffffffffffffffffff16602082015260400190565b60405180910390a45b836060015163ffffffff168563ffffffff1685602001517ff8bd640004bcec1b89657020f561d0b070cbdf662d0b158db9dccb0a8301bfab8760000151886040015189608001518a60a0015133604051612236959493929190614625565b60405180910390a45050505050565b73ffffffffffffffffffffffffffffffffffffffff81166122c2576040517f08c379a000000000000000000000000000000000000000000000000000000000815260206004820152601460248201527f4261642068756220706f6f6c20616464726573730000000000000000000000006044820152606401610d7e565b600380547fffffffffffffffffffffffff00000000000000000000000000000000000000001673ffffffffffffffffffffffffffffffffffffffff83169081179091556040517f1f17a88f67b0f49060a34bec1a4723a563620e6aa265eb640b5046dcee0759a090600090a250565b60405173ffffffffffffffffffffffffffffffffffffffff808516602483015283166044820152606481018290526118d49085907f23b872dd00000000000000000000000000000000000000000000000000000000906084015b604080517fffffffffffffffffffffffffffffffffffffffffffffffffffffffffffffffe08184030181529190526020810180517bffffffffffffffffffffffffffffffffffffffffffffffffffffffff167fffffffff0000000000000000000000000000000000000000000000000000000090931692909217909152612f9c565b604080518a8152602081018a905290810188905267ffffffffffffffff8716606082015263ffffffff858116608083015273ffffffffffffffffffffffffffffffffffffffff84811660a084015280841692908616918816907f4a4fc49abd237bfd7f4ac82d6c7a284c69daaea5154430cff04ad7482c6c42549060c00160405180910390a4505050505050505050565b6000816040516020016124b19190614683565b604051602081830303815290604052805190602001209050919050565b60006706f05b59d3b200008367ffffffffffffffff1610801561250657506706f05b59d3b200008560c0015167ffffffffffffffff16105b61256c576040517f08c379a000000000000000000000000000000000000000000000000000000000815260206004820152600c60248201527f696e76616c6964206665657300000000000000000000000000000000000000006044820152606401610d7e565b6060850151600087815260066020526040902054106125e7576040517f08c379a000000000000000000000000000000000000000000000000000000000815260206004820152600c60248201527f72656c61792066696c6c656400000000000000000000000000000000000000006044820152606401610d7e565b836000036125f757506000612772565b61261084848760c0015161260b919061472a565b6130a8565b60008781526006602052604081205460608801519293508692612633919061474d565b90508281101561265c5780925061265983868960c00151612654919061472a565b6130e2565b91505b6000888152600660205260408120805485929061267a908490614764565b9091555050604087015173ffffffffffffffffffffffffffffffffffffffff7f0000000000000000000000000000000000000000000000000000000000000000811691160361270257836126ef5760408701516126ef9073ffffffffffffffffffffffffffffffffffffffff16333085612331565b6126fd87602001518361310b565b61276f565b8361273c576126fd338860200151848a6040015173ffffffffffffffffffffffffffffffffffffffff16612331909392919063ffffffff16565b61276f876020015183896040015173ffffffffffffffffffffffffffffffffffffffff16612c819092919063ffffffff16565b50505b95945050505050565b816000015173ffffffffffffffffffffffffffffffffffffffff163373ffffffffffffffffffffffffffffffffffffffff167f56450a30040c51955338a4a9fbafcf94f7ca4b75f4cd83c2f5e29ef77fbe0a3a8460600151600660008b815260200190815260200160002054898988608001518960a001518a60e001518c8c60c001518d61010001518e604001518f602001518f6040516128ad9d9c9b9a999897969594939291909c8d5260208d019b909b5260408c019990995260608b019790975260808a019590955260a089019390935267ffffffffffffffff91821660c0890152811660e08801521661010086015263ffffffff1661012085015273ffffffffffffffffffffffffffffffffffffffff9081166101408501521661016083015215156101808201526101a00190565b60405180910390a3505050505050565b60006040518061012001604052808d73ffffffffffffffffffffffffffffffffffffffff1681526020018c73ffffffffffffffffffffffffffffffffffffffff1681526020018b73ffffffffffffffffffffffffffffffffffffffff1681526020018a81526020018981526020018881526020018767ffffffffffffffff1681526020018667ffffffffffffffff1681526020018563ffffffff16815250905061299260048463ffffffff168154811061297957612979614407565b906000526020600020906003020160000154828461324c565b6129f8576040517f08c379a000000000000000000000000000000000000000000000000000000000815260206004820152600d60248201527f496e76616c69642070726f6f66000000000000000000000000000000000000006044820152606401610d7e565b6000612a038261249e565b90506000612a1a82848560600151600060016124ce565b9050612a2c828260008087600161277b565b5050505050505050505050505050565b73ffffffffffffffffffffffffffffffffffffffff8116612ab9576040517f08c379a000000000000000000000000000000000000000000000000000000000815260206004820152601960248201527f4261642062726964676520726f757465722061646472657373000000000000006044820152606401610d7e565b600280547fffffffffffffffffffffffff00000000000000000000000000000000000000001673ffffffffffffffffffffffffffffffffffffffff83169081179091556040517fa9e8c42c9e7fca7f62755189a16b2f5314d43d8fb24e91ba54e6d65f9314e84990600090a250565b60408051608060208201819052601160a08301527f4143524f53532d56322d4645452d312e3000000000000000000000000000000060c083015267ffffffffffffffff86169282019290925263ffffffff8416606082015290810185905260009060e0016040516020818303038152906040528051906020012090506000612baf82613264565b9050612bbc87828561329f565b50505050505050565b6000612bf8828585604051602001612bdd919061477c565b6040516020818303038152906040528051906020012061333d565b90505b9392505050565b600080612c1161010084614846565b90506000612c216101008561485a565b6000928352602095909552506040902054600190931b92831690921492915050565b6000612c5161010083614846565b90506000612c616101008461485a565b600092835260209490945250604090208054600190931b90921790915550565b60405173ffffffffffffffffffffffffffffffffffffffff83166024820152604481018290526108ac9084907fa9059cbb000000000000000000000000000000000000000000000000000000009060640161238b565b7f000000000000000000000000000000000000000000000000000000000000000073ffffffffffffffffffffffffffffffffffffffff16816080015173ffffffffffffffffffffffffffffffffffffffff1603612df957608081015181516040517f2e1a7d4d00000000000000000000000000000000000000000000000000000000815273ffffffffffffffffffffffffffffffffffffffff90921691632e1a7d4d91612d8a9160040190815260200190565b600060405180830381600087803b158015612da457600080fd5b505af1158015612db8573d6000803e3d6000fd5b50505073ffffffffffffffffffffffffffffffffffffffff7f0000000000000000000000000000000000000000000000000000000000000000166080830152505b608081015173ffffffffffffffffffffffffffffffffffffffff9081166000908152600860205260409020541615612e5d57608081015173ffffffffffffffffffffffffffffffffffffffff90811660009081526008602052604090205416612e73565b7342000000000000000000000000000000000000105b608082015160035483516007546040517fa3a7954800000000000000000000000000000000000000000000000000000000815273ffffffffffffffffffffffffffffffffffffffff94851660048201529284166024840152604483019190915263ffffffff16606482015260a06084820152600060a482015291169063a3a795489060c401600060405180830381600087803b158015612f1257600080fd5b505af1158015612f26573d6000803e3d6000fd5b50505050608081015160035482516007546040805173ffffffffffffffffffffffffffffffffffffffff9485168152602081019390935263ffffffff909116908201529116907f46b77e3c29797b94890fd3438da74f697480742358a3e26b9d13a227f1ac0ac99060600160405180910390a250565b6000612ffe826040518060400160405280602081526020017f5361666545524332303a206c6f772d6c6576656c2063616c6c206661696c65648152508573ffffffffffffffffffffffffffffffffffffffff166133539092919063ffffffff16565b8051909150156108ac578080602001905181019061301c919061486e565b6108ac576040517f08c379a000000000000000000000000000000000000000000000000000000000815260206004820152602a60248201527f5361666545524332303a204552433230206f7065726174696f6e20646964206e60448201527f6f742073756363656564000000000000000000000000000000000000000000006064820152608401610d7e565b60006130bc82670de0b6b3a764000061488b565b67ffffffffffffffff166130d884670de0b6b3a76400006148ac565b612bfb9190614846565b6000670de0b6b3a76400006130f7838261488b565b6130d89067ffffffffffffffff16856148ac565b73ffffffffffffffffffffffffffffffffffffffff82163b156131695761124173ffffffffffffffffffffffffffffffffffffffff7f0000000000000000000000000000000000000000000000000000000000000000168383612c81565b6040517f2e1a7d4d000000000000000000000000000000000000000000000000000000008152600481018290527f000000000000000000000000000000000000000000000000000000000000000073ffffffffffffffffffffffffffffffffffffffff1690632e1a7d4d90602401600060405180830381600087803b1580156131f157600080fd5b505af1158015613205573d6000803e3d6000fd5b505060405173ffffffffffffffffffffffffffffffffffffffff8516925083156108fc02915083906000818181858888f193505050501580156108ac573d6000803e3d6000fd5b6000612bf8828585604051602001612bdd9190614683565b6040517f19457468657265756d205369676e6564204d6573736167653a0a3332000000006020820152603c8101829052600090605c016124b1565b6132a98282613362565b73ffffffffffffffffffffffffffffffffffffffff168373ffffffffffffffffffffffffffffffffffffffff16146108ac576040517f08c379a000000000000000000000000000000000000000000000000000000000815260206004820152601160248201527f696e76616c6964207369676e61747572650000000000000000000000000000006044820152606401610d7e565b60008261334a8584613386565b14949350505050565b6060612bf884846000856133f2565b60008060006133718585613588565b9150915061337e816135f6565b509392505050565b600081815b845181101561337e5760008582815181106133a8576133a8614407565b602002602001015190508083116133ce57600083815260208290526040902092506133df565b600081815260208490526040902092505b50806133ea8161452c565b91505061338b565b606082471015613484576040517f08c379a000000000000000000000000000000000000000000000000000000000815260206004820152602660248201527f416464726573733a20696e73756666696369656e742062616c616e636520666f60448201527f722063616c6c00000000000000000000000000000000000000000000000000006064820152608401610d7e565b73ffffffffffffffffffffffffffffffffffffffff85163b613502576040517f08c379a000000000000000000000000000000000000000000000000000000000815260206004820152601d60248201527f416464726573733a2063616c6c20746f206e6f6e2d636f6e74726163740000006044820152606401610d7e565b6000808673ffffffffffffffffffffffffffffffffffffffff16858760405161352b91906148e9565b60006040518083038185875af1925050503d8060008114613568576040519150601f19603f3d011682016040523d82523d6000602084013e61356d565b606091505b509150915061357d82828661384a565b979650505050505050565b60008082516041036135be5760208301516040840151606085015160001a6135b28782858561389d565b945094505050506135ef565b82516040036135e757602083015160408401516135dc8683836139b5565b9350935050506135ef565b506000905060025b9250929050565b600081600481111561360a5761360a614905565b036136125750565b600181600481111561362657613626614905565b0361368d576040517f08c379a000000000000000000000000000000000000000000000000000000000815260206004820152601860248201527f45434453413a20696e76616c6964207369676e617475726500000000000000006044820152606401610d7e565b60028160048111156136a1576136a1614905565b03613708576040517f08c379a000000000000000000000000000000000000000000000000000000000815260206004820152601f60248201527f45434453413a20696e76616c6964207369676e6174757265206c656e677468006044820152606401610d7e565b600381600481111561371c5761371c614905565b036137a9576040517f08c379a000000000000000000000000000000000000000000000000000000000815260206004820152602260248201527f45434453413a20696e76616c6964207369676e6174757265202773272076616c60448201527f75650000000000000000000000000000000000000000000000000000000000006064820152608401610d7e565b60048160048111156137bd576137bd614905565b036107c6576040517f08c379a000000000000000000000000000000000000000000000000000000000815260206004820152602260248201527f45434453413a20696e76616c6964207369676e6174757265202776272076616c60448201527f75650000000000000000000000000000000000000000000000000000000000006064820152608401610d7e565b60608315613859575081612bfb565b8251156138695782518084602001fd5b816040517f08c379a0000000000000000000000000000000000000000000000000000000008152600401610d7e9190614519565b6000807f7fffffffffffffffffffffffffffffff5d576e7357a4501ddfe92f46681b20a08311156138d457506000905060036139ac565b8460ff16601b141580156138ec57508460ff16601c14155b156138fd57506000905060046139ac565b6040805160008082526020820180845289905260ff881692820192909252606081018690526080810185905260019060a0016020604051602081039080840390855afa158015613951573d6000803e3d6000fd5b50506040517fffffffffffffffffffffffffffffffffffffffffffffffffffffffffffffffe0015191505073ffffffffffffffffffffffffffffffffffffffff81166139a5576000600192509250506139ac565b9150600090505b94509492505050565b6000807f7fffffffffffffffffffffffffffffffffffffffffffffffffffffffffffffff8316816139eb60ff86901c601b614764565b90506139f98782888561389d565b935093505050935093915050565b803563ffffffff81168114613a1b57600080fd5b919050565b600060208284031215613a3257600080fd5b612bfb82613a07565b7f4e487b7100000000000000000000000000000000000000000000000000000000600052604160045260246000fd5b60405160c0810167ffffffffffffffff81118282101715613a8d57613a8d613a3b565b60405290565b604051601f82017fffffffffffffffffffffffffffffffffffffffffffffffffffffffffffffffe016810167ffffffffffffffff81118282101715613ada57613ada613a3b565b604052919050565b600067ffffffffffffffff821115613afc57613afc613a3b565b5060051b60200190565b600082601f830112613b1757600080fd5b81356020613b2c613b2783613ae2565b613a93565b82815260059290921b84018101918181019086841115613b4b57600080fd5b8286015b84811015613b665780358352918301918301613b4f565b509695505050505050565b73ffffffffffffffffffffffffffffffffffffffff811681146107c657600080fd5b8035613a1b81613b71565b600082601f830112613baf57600080fd5b81356020613bbf613b2783613ae2565b82815260059290921b84018101918181019086841115613bde57600080fd5b8286015b84811015613b66578035613bf581613b71565b8352918301918301613be2565b600080600060608486031215613c1757600080fd5b613c2084613a07565b9250602084013567ffffffffffffffff80821115613c3d57600080fd5b9085019060c08288031215613c5157600080fd5b613c59613a6a565b8235815260208301356020820152604083013582811115613c7957600080fd5b613c8589828601613b06565b604083015250613c9760608401613a07565b6060820152613ca860808401613b93565b608082015260a083013582811115613cbf57600080fd5b613ccb89828601613b9e565b60a08301525093506040860135915080821115613ce757600080fd5b50613cf486828701613b06565b9150509250925092565b600060208284031215613d1057600080fd5b8135612bfb81613b71565b600060208284031215613d2d57600080fd5b5035919050565b80151581146107c657600080fd5b600080600060608486031215613d5757600080fd5b8335613d6281613b71565b9250602084013591506040840135613d7981613d34565b809150509250925092565b803567ffffffffffffffff81168114613a1b57600080fd5b60008060008060008060c08789031215613db557600080fd5b8635613dc081613b71565b95506020870135613dd081613b71565b94506040870135935060608701359250613dec60808801613d84565b9150613dfa60a08801613a07565b90509295509295509295565b60008060408385031215613e1957600080fd5b50508035926020909101359150565b60008060408385031215613e3b57600080fd5b8235613e4681613b71565b946020939093013593505050565b6000806000806000806000806000806101408b8d031215613e7457600080fd5b8a35613e7f81613b71565b995060208b0135613e8f81613b71565b985060408b0135613e9f81613b71565b975060608b0135965060808b0135955060a08b0135945060c08b01359350613ec960e08c01613d84565b9250613ed86101008c01613d84565b9150613ee76101208c01613a07565b90509295989b9194979a5092959850565b60008060208385031215613f0b57600080fd5b823567ffffffffffffffff80821115613f2357600080fd5b818501915085601f830112613f3757600080fd5b813581811115613f4657600080fd5b8660208260051b8501011115613f5b57600080fd5b60209290920196919550909350505050565b60005b83811015613f88578181015183820152602001613f70565b838111156118d45750506000910152565b60008151808452613fb1816020860160208601613f6d565b601f017fffffffffffffffffffffffffffffffffffffffffffffffffffffffffffffffe0169290920160200192915050565b6000602080830181845280855180835260408601915060408160051b870101925083870160005b82811015614056577fffffffffffffffffffffffffffffffffffffffffffffffffffffffffffffffc0888603018452614044858351613f99565b9450928501929085019060010161400a565b5092979650505050505050565b6000806000806000806000806000806101408b8d03121561408357600080fd5b8a3561408e81613b71565b995060208b013561409e81613b71565b985060408b01356140ae81613b71565b975060608b0135965060808b013595506140ca60a08c01613d84565b94506140d860c08c01613d84565b93506140e660e08c01613a07565b92506140f56101008c01613a07565b91506101208b013567ffffffffffffffff81111561411257600080fd5b61411e8d828e01613b06565b9150509295989b9194979a5092959850565b600067ffffffffffffffff82111561414a5761414a613a3b565b50601f017fffffffffffffffffffffffffffffffffffffffffffffffffffffffffffffffe01660200190565b600082601f83011261418757600080fd5b8135614195613b2782614130565b8181528460208386010111156141aa57600080fd5b816020850160208301376000918101602001919091529392505050565b600080600080608085870312156141dd57600080fd5b84356141e881613b71565b93506141f660208601613d84565b925061420460408601613a07565b9150606085013567ffffffffffffffff81111561422057600080fd5b61422c87828801614176565b91505092959194509250565b6000806040838503121561424b57600080fd5b823561425681613b71565b9150602083013561426681613b71565b809150509250929050565b6000806000806000806000806000806000806101808d8f03121561429457600080fd5b61429d8d613b93565b9b506142ab60208e01613b93565b9a506142b960408e01613b93565b995060608d0135985060808d0135975060a08d0135965060c08d013595506142e360e08e01613d84565b94506142f26101008e01613d84565b93506143016101208e01613d84565b92506143106101408e01613a07565b915067ffffffffffffffff6101608e0135111561432c57600080fd5b61433d8e6101608f01358f01614176565b90509295989b509295989b509295989b565b60006020828403121561436157600080fd5b5051919050565b7f4e487b7100000000000000000000000000000000000000000000000000000000600052601160045260246000fd5b600063ffffffff838116908316818110156143b4576143b4614368565b039392505050565b600063ffffffff8083168185168083038211156143db576143db614368565b01949350505050565b600063ffffffff8083168181036143fd576143fd614368565b6001019392505050565b7f4e487b7100000000000000000000000000000000000000000000000000000000600052603260045260246000fd5b60008083357fffffffffffffffffffffffffffffffffffffffffffffffffffffffffffffffe184360301811261446b57600080fd5b83018035915067ffffffffffffffff82111561448657600080fd5b6020019150368190038213156135ef57600080fd5b8183823760009101908152919050565b6000602082840312156144bd57600080fd5b815167ffffffffffffffff8111156144d457600080fd5b8201601f810184136144e557600080fd5b80516144f3613b2782614130565b81815285602083850101111561450857600080fd5b612772826020830160208601613f6d565b602081526000612bfb6020830184613f99565b60007fffffffffffffffffffffffffffffffffffffffffffffffffffffffffffffffff820361455d5761455d614368565b5060010190565b67ffffffffffffffff83168152604060208201526000612bf86040830184613f99565b60006020828403121561459957600080fd5b8151612bfb81613b71565b600081518084526020808501945080840160005b838110156145d4578151875295820195908201906001016145b8565b509495945050505050565b600081518084526020808501945080840160005b838110156145d457815173ffffffffffffffffffffffffffffffffffffffff16875295820195908201906001016145f3565b85815260a06020820152600061463e60a08301876145a4565b73ffffffffffffffffffffffffffffffffffffffff8087166040850152838203606085015261466d82876145df565b9250808516608085015250509695505050505050565b815173ffffffffffffffffffffffffffffffffffffffff90811682526020808401518216908301526040808401519182169083015261012082019050606083015160608301526080830151608083015260a083015160a083015260c08301516146f860c084018267ffffffffffffffff169052565b5060e083015161471460e084018267ffffffffffffffff169052565b506101009283015163ffffffff16919092015290565b600067ffffffffffffffff8083168185168083038211156143db576143db614368565b60008282101561475f5761475f614368565b500390565b6000821982111561477757614777614368565b500190565b6020815281516020820152602082015160408201526000604083015160c060608401526147ac60e08401826145a4565b905063ffffffff606085015116608084015273ffffffffffffffffffffffffffffffffffffffff60808501511660a084015260a08401517fffffffffffffffffffffffffffffffffffffffffffffffffffffffffffffffe08483030160c085015261277282826145df565b7f4e487b7100000000000000000000000000000000000000000000000000000000600052601260045260246000fd5b60008261485557614855614817565b500490565b60008261486957614869614817565b500690565b60006020828403121561488057600080fd5b8151612bfb81613d34565b600067ffffffffffffffff838116908316818110156143b4576143b4614368565b6000817fffffffffffffffffffffffffffffffffffffffffffffffffffffffffffffffff04831182151516156148e4576148e4614368565b500290565b600082516148fb818460208701613f6d565b9190910192915050565b7f4e487b7100000000000000000000000000000000000000000000000000000000600052602160045260246000fdfea26469706673582212209da4bba922e72e8a4d613325bde7422470ee1aea7d82220d65f7da5c44f56f0c64736f6c634300080d0033",
  "devdoc": {
    "kind": "dev",
    "methods": {
      "chainId()": {
        "details": "Some L2s like ZKSync don't support the CHAIN_ID opcode so we allow the implementer to override this."
      },
      "constructor": {
        "params": {
          "_crossDomainAdmin": "Cross domain admin to set. Can be changed by admin.",
          "_hubPool": "Hub pool address to set. Can be changed by admin.",
          "timerAddress": "Timer address to set."
        }
      },
      "deposit(address,address,uint256,uint256,uint64,uint32)": {
        "params": {
          "amount": "Amount of tokens to deposit. Will be amount of tokens to receive less fees.",
          "destinationChainId": "Denotes network where user will receive funds from SpokePool by a relayer.",
          "originToken": "Token to lock into this contract to initiate deposit.",
          "quoteTimestamp": "Timestamp used by relayers to compute this deposit's realizedLPFeePct which is paid to LP pool on HubPool.",
          "recipient": "Address to receive funds at on destination chain.",
          "relayerFeePct": "% of deposit amount taken out to incentivize a fast relayer."
        }
      },
      "emergencyDeleteRootBundle(uint256)": {
        "params": {
          "rootBundleId": "Index of the root bundle that needs to be deleted. Note: this is intentionally a uint256 to ensure that a small input range doesn't limit which indices this method is able to reach."
        }
      },
      "executeRelayerRefundLeaf(uint32,(uint256,uint256,uint256[],uint32,address,address[]),bytes32[])": {
        "params": {
          "proof": "Inclusion proof for this leaf in relayer refund root in root bundle.",
          "relayerRefundLeaf": "Contains all data necessary to reconstruct leaf contained in root bundle and to refund relayer. This data structure is explained in detail in the SpokePoolInterface.",
          "rootBundleId": "Unique ID of root bundle containing relayer refund root that this leaf is contained in."
        }
      },
      "executeSlowRelayLeaf(address,address,address,uint256,uint256,uint64,uint64,uint32,uint32,bytes32[])": {
        "details": "This function assumes that the relay's destination chain ID is the current chain ID, which prevents the caller from executing a slow relay intended for another chain on this chain.",
        "params": {
          "amount": "Full size of the deposit.",
          "depositId": "Unique deposit ID on origin spoke pool.",
          "depositor": "Depositor on origin chain who set this chain as the destination chain.",
          "destinationToken": "Token to send to recipient. Should be mapped to the origin token, origin chain ID and this chain ID via a mapping on the HubPool.",
          "originChainId": "Chain of SpokePool where deposit originated.",
          "proof": "Inclusion proof for this leaf in slow relay root in root bundle.",
          "realizedLpFeePct": "Fee % based on L1 HubPool utilization at deposit quote time. Deterministic based on quote time.",
          "recipient": "Specified recipient on this chain.",
          "relayerFeePct": "Original fee % to keep as relayer set by depositor.",
          "rootBundleId": "Unique ID of root bundle containing slow relay root that this leaf is contained in."
        }
      },
      "fillRelay(address,address,address,uint256,uint256,uint256,uint256,uint64,uint64,uint32)": {
        "params": {
          "amount": "Full size of the deposit.",
          "depositId": "Unique deposit ID on origin spoke pool.",
          "depositor": "Depositor on origin chain who set this chain as the destination chain.",
          "destinationToken": "Token to send to recipient. Should be mapped to the origin token, origin chain ID and this chain ID via a mapping on the HubPool.",
          "maxTokensToSend": "Max amount of tokens to send recipient. If higher than amount, then caller will send recipient the full relay amount.",
          "originChainId": "Chain of SpokePool where deposit originated.",
          "realizedLpFeePct": "Fee % based on L1 HubPool utilization at deposit quote time. Deterministic based on quote time.",
          "recipient": "Specified recipient on this chain.",
          "relayerFeePct": "Fee % to keep as relayer, specified by depositor.",
          "repaymentChainId": "Chain of SpokePool where relayer wants to be refunded after the challenge window has passed."
        }
      },
      "fillRelayWithUpdatedFee(address,address,address,uint256,uint256,uint256,uint256,uint64,uint64,uint64,uint32,bytes)": {
        "params": {
          "amount": "Full size of the deposit.",
          "depositId": "Unique deposit ID on origin spoke pool.",
          "depositor": "Depositor on origin chain who set this chain as the destination chain.",
          "depositorSignature": "Depositor-signed message containing updated fee %.",
          "destinationToken": "Token to send to recipient. Should be mapped to the origin token, origin chain ID and this chain ID via a mapping on the HubPool.",
          "maxTokensToSend": "Max amount of tokens to send recipient. If higher than amount, then caller will send recipient the full relay amount.",
          "newRelayerFeePct": "New fee % to keep as relayer also specified by depositor.",
          "originChainId": "Chain of SpokePool where deposit originated.",
          "realizedLpFeePct": "Fee % based on L1 HubPool utilization at deposit quote time. Deterministic based on quote time.",
          "recipient": "Specified recipient on this chain.",
          "relayerFeePct": "Original fee % to keep as relayer set by depositor.",
          "repaymentChainId": "Chain of SpokePool where relayer wants to be refunded after the challenge window has passed."
        }
      },
      "getCurrentTime()": {
        "returns": {
          "_0": "uint for the current Testable timestamp."
        }
      },
      "relayRootBundle(bytes32,bytes32)": {
        "params": {
          "relayerRefundRoot": "Merkle root containing relayer refund leaves that can be individually executed via executeRelayerRefundLeaf().",
          "slowRelayRoot": "Merkle root containing slow relay fulfillment leaves that can be individually executed via executeSlowRelayLeaf()."
        }
      },
      "setCrossDomainAdmin(address)": {
        "params": {
          "newCrossDomainAdmin": "New cross domain admin."
        }
      },
      "setCurrentTime(uint256)": {
        "details": "Will revert if not running in test mode.",
        "params": {
          "time": "timestamp to set current Testable time to."
        }
      },
      "setDepositQuoteTimeBuffer(uint32)": {
        "params": {
          "newDepositQuoteTimeBuffer": "New quote time buffer."
        }
      },
      "setEnableRoute(address,uint256,bool)": {
        "params": {
          "destinationChainId": "Chain ID for where depositor wants to receive funds.",
          "enabled": "True to enable deposits, False otherwise.",
          "originToken": "Token that depositor can deposit to this contract."
        }
      },
      "setHubPool(address)": {
        "params": {
          "newHubPool": "New hub pool."
        }
      },
      "setL1GasLimit(uint32)": {
        "params": {
          "newl1Gas": "New L1 gas limit to set."
        }
      },
      "setTokenBridge(address,address)": {
        "details": "If this mapping isn't set for an L2 token, then the standard bridge will be used to bridge this token.",
        "params": {
          "tokenBridge": "Address of token bridge"
        }
      },
      "speedUpDeposit(address,uint64,uint32,bytes)": {
        "params": {
          "depositId": "Deposit to update fee for that originated in this contract.",
          "depositor": "Signer of the update fee message who originally submitted the deposit. If the deposit doesn't exist, then the relayer will not be able to fill any relay, so the caller should validate that the depositor did in fact submit a relay.",
          "depositorSignature": "Signed message containing the depositor address, this contract chain ID, the updated relayer fee %, and the deposit ID. This signature is produced by signing a hash of data according to the EIP-1271 standard. See more in the _verifyUpdateRelayerFeeMessage() comments.",
          "newRelayerFeePct": "New relayer fee that relayers can use."
        }
      }
    },
    "version": 1
  },
  "userdoc": {
    "kind": "user",
    "methods": {
      "chainId()": {
        "notice": "Returns chain ID for this network."
      },
      "constructor": {
        "notice": "Construct the OVM Optimism SpokePool."
      },
      "deposit(address,address,uint256,uint256,uint64,uint32)": {
        "notice": "Called by user to bridge funds from origin to destination chain. Depositor will effectively lock tokens in this contract and receive a destination token on the destination chain. The origin => destination token mapping is stored on the L1 HubPool.The caller must first approve this contract to spend amount of originToken.The originToken => destinationChainId must be enabled.This method is payable because the caller is able to deposit native token if the originToken is wrappedNativeToken and this function will handle wrapping the native token to wrappedNativeToken."
      },
      "emergencyDeleteRootBundle(uint256)": {
        "notice": "This method is intended to only be used in emergencies where a bad root bundle has reached the SpokePool."
      },
      "executeRelayerRefundLeaf(uint32,(uint256,uint256,uint256[],uint32,address,address[]),bytes32[])": {
        "notice": "Wraps any ETH into WETH before executing base function. This is necessary because SpokePool receives ETH over the canonical token bridge instead of WETH."
      },
      "executeSlowRelayLeaf(address,address,address,uint256,uint256,uint64,uint64,uint32,uint32,bytes32[])": {
        "notice": "Wraps any ETH into WETH before executing base function. This is necessary because SpokePool receives ETH over the canonical token bridge instead of WETH."
      },
      "fillRelay(address,address,address,uint256,uint256,uint256,uint256,uint64,uint64,uint32)": {
        "notice": "Called by relayer to fulfill part of a deposit by sending destination tokens to the recipient. Relayer is expected to pass in unique identifying information for deposit that they want to fulfill, and this relay submission will be validated by off-chain data workers who can dispute this relay if any part is invalid. If the relay is valid, then the relayer will be refunded on their desired repayment chain. If relay is invalid, then relayer will not receive any refund.All of the deposit data can be found via on-chain events from the origin SpokePool, except for the realizedLpFeePct which is a function of the HubPool's utilization at the deposit quote time. This fee % is deterministic based on the quote time, so the relayer should just compute it using the canonical algorithm as described in a UMIP linked to the HubPool's identifier."
      },
      "fillRelayWithUpdatedFee(address,address,address,uint256,uint256,uint256,uint256,uint64,uint64,uint64,uint32,bytes)": {
        "notice": "Called by relayer to execute same logic as calling fillRelay except that relayer is using an updated relayer fee %. The fee % must have been emitted in a message cryptographically signed by the depositor.By design, the depositor probably emitted the message with the updated fee by calling speedUpRelay()."
      },
      "getCurrentTime()": {
        "notice": "Gets the current time. Will return the last time set in `setCurrentTime` if running in test mode. Otherwise, it will return the block timestamp."
      },
      "relayRootBundle(bytes32,bytes32)": {
        "notice": "This method stores a new root bundle in this contract that can be executed to refund relayers, fulfill slow relays, and send funds back to the HubPool on L1. This method can only be called by the admin and is designed to be called as part of a cross-chain message from the HubPool's executeRootBundle method."
      },
      "setCrossDomainAdmin(address)": {
        "notice": "Change cross domain admin address. Callable by admin only."
      },
      "setCurrentTime(uint256)": {
        "notice": "Sets the current time."
      },
      "setDepositQuoteTimeBuffer(uint32)": {
        "notice": "Change allowance for deposit quote time to differ from current block time. Callable by admin only."
      },
      "setEnableRoute(address,uint256,bool)": {
        "notice": "Enable/Disable an origin token => destination chain ID route for deposits. Callable by admin only."
      },
      "setHubPool(address)": {
        "notice": "Change L1 hub pool address. Callable by admin only."
      },
      "setL1GasLimit(uint32)": {
        "notice": "Change L1 gas limit. Callable only by admin."
      },
      "setTokenBridge(address,address)": {
        "notice": "Set bridge contract for L2 token used to withdraw back to L1."
      },
      "speedUpDeposit(address,uint64,uint32,bytes)": {
        "notice": "Convenience method that depositor can use to signal to relayer to use updated fee.Relayer should only use events emitted by this function to submit fills with updated fees, otherwise they risk their fills getting disputed for being invalid, for example if the depositor never actually signed the update fee message.This function will revert if the depositor did not sign a message containing the updated fee for the deposit ID stored in this contract. If the deposit ID is for another contract, or the depositor address is incorrect, or the updated fee is incorrect, then the signature will not match and this function will revert."
      }
    },
    "notice": "Optimism Spoke pool.",
    "version": 1
  },
  "storageLayout": {
    "storage": [
      {
        "astId": 241,
        "contract": "contracts/Base_SpokePool.sol:Base_SpokePool",
        "label": "messenger",
        "offset": 0,
        "slot": "0",
        "type": "t_address"
      },
      {
        "astId": 5382,
        "contract": "contracts/Base_SpokePool.sol:Base_SpokePool",
        "label": "timerAddress",
        "offset": 0,
        "slot": "1",
        "type": "t_address"
      },
      {
        "astId": 6775,
        "contract": "contracts/Base_SpokePool.sol:Base_SpokePool",
        "label": "_notEntered",
        "offset": 20,
        "slot": "1",
        "type": "t_bool"
      },
      {
        "astId": 8126,
        "contract": "contracts/Base_SpokePool.sol:Base_SpokePool",
        "label": "crossDomainAdmin",
        "offset": 0,
        "slot": "2",
        "type": "t_address"
      },
      {
        "astId": 8128,
        "contract": "contracts/Base_SpokePool.sol:Base_SpokePool",
        "label": "hubPool",
        "offset": 0,
        "slot": "3",
        "type": "t_address"
      },
      {
        "astId": 8134,
        "contract": "contracts/Base_SpokePool.sol:Base_SpokePool",
        "label": "depositQuoteTimeBuffer",
        "offset": 20,
        "slot": "3",
        "type": "t_uint32"
      },
      {
        "astId": 8136,
        "contract": "contracts/Base_SpokePool.sol:Base_SpokePool",
        "label": "numberOfDeposits",
        "offset": 24,
        "slot": "3",
        "type": "t_uint32"
      },
      {
        "astId": 8140,
        "contract": "contracts/Base_SpokePool.sol:Base_SpokePool",
        "label": "rootBundles",
        "offset": 0,
        "slot": "4",
        "type": "t_array(t_struct(RootBundle)9579_storage)dyn_storage"
      },
      {
        "astId": 8146,
        "contract": "contracts/Base_SpokePool.sol:Base_SpokePool",
        "label": "enabledDepositRoutes",
        "offset": 0,
        "slot": "5",
        "type": "t_mapping(t_address,t_mapping(t_uint256,t_bool))"
      },
      {
        "astId": 8150,
        "contract": "contracts/Base_SpokePool.sol:Base_SpokePool",
        "label": "relayFills",
        "offset": 0,
        "slot": "6",
        "type": "t_mapping(t_bytes32,t_uint256)"
      },
      {
        "astId": 7190,
        "contract": "contracts/Base_SpokePool.sol:Base_SpokePool",
        "label": "l1Gas",
        "offset": 0,
        "slot": "7",
        "type": "t_uint32"
      },
      {
        "astId": 7196,
        "contract": "contracts/Base_SpokePool.sol:Base_SpokePool",
        "label": "tokenBridges",
        "offset": 0,
        "slot": "8",
        "type": "t_mapping(t_address,t_address)"
      }
    ],
    "types": {
      "t_address": {
        "encoding": "inplace",
        "label": "address",
        "numberOfBytes": "20"
      },
      "t_array(t_struct(RootBundle)9579_storage)dyn_storage": {
        "base": "t_struct(RootBundle)9579_storage",
        "encoding": "dynamic_array",
        "label": "struct SpokePoolInterface.RootBundle[]",
        "numberOfBytes": "32"
      },
      "t_bool": {
        "encoding": "inplace",
        "label": "bool",
        "numberOfBytes": "1"
      },
      "t_bytes32": {
        "encoding": "inplace",
        "label": "bytes32",
        "numberOfBytes": "32"
      },
      "t_mapping(t_address,t_address)": {
        "encoding": "mapping",
        "key": "t_address",
        "label": "mapping(address => address)",
        "numberOfBytes": "32",
        "value": "t_address"
      },
      "t_mapping(t_address,t_mapping(t_uint256,t_bool))": {
        "encoding": "mapping",
        "key": "t_address",
        "label": "mapping(address => mapping(uint256 => bool))",
        "numberOfBytes": "32",
        "value": "t_mapping(t_uint256,t_bool)"
      },
      "t_mapping(t_bytes32,t_uint256)": {
        "encoding": "mapping",
        "key": "t_bytes32",
        "label": "mapping(bytes32 => uint256)",
        "numberOfBytes": "32",
        "value": "t_uint256"
      },
      "t_mapping(t_uint256,t_bool)": {
        "encoding": "mapping",
        "key": "t_uint256",
        "label": "mapping(uint256 => bool)",
        "numberOfBytes": "32",
        "value": "t_bool"
      },
      "t_mapping(t_uint256,t_uint256)": {
        "encoding": "mapping",
        "key": "t_uint256",
        "label": "mapping(uint256 => uint256)",
        "numberOfBytes": "32",
        "value": "t_uint256"
      },
      "t_struct(RootBundle)9579_storage": {
        "encoding": "inplace",
        "label": "struct SpokePoolInterface.RootBundle",
        "members": [
          {
            "astId": 9572,
            "contract": "contracts/Base_SpokePool.sol:Base_SpokePool",
            "label": "slowRelayRoot",
            "offset": 0,
            "slot": "0",
            "type": "t_bytes32"
          },
          {
            "astId": 9574,
            "contract": "contracts/Base_SpokePool.sol:Base_SpokePool",
            "label": "relayerRefundRoot",
            "offset": 0,
            "slot": "1",
            "type": "t_bytes32"
          },
          {
            "astId": 9578,
            "contract": "contracts/Base_SpokePool.sol:Base_SpokePool",
            "label": "claimedBitmap",
            "offset": 0,
            "slot": "2",
            "type": "t_mapping(t_uint256,t_uint256)"
          }
        ],
        "numberOfBytes": "96"
      },
      "t_uint256": {
        "encoding": "inplace",
        "label": "uint256",
        "numberOfBytes": "32"
      },
      "t_uint32": {
        "encoding": "inplace",
        "label": "uint32",
        "numberOfBytes": "4"
      }
    }
  }
}