{
  "address": "0xAc6f31b51c7e5B51062CBF6BD19ec40EB76a50E6",
  "abi": [
    {
      "inputs": [
        {
          "internalType": "address",
          "name": "_wrappedNativeTokenAddress",
          "type": "address"
        },
        {
          "internalType": "uint32",
          "name": "_depositQuoteTimeBuffer",
          "type": "uint32"
        },
        {
          "internalType": "uint32",
          "name": "_fillDeadlineBuffer",
          "type": "uint32"
        },
        {
          "internalType": "contract IERC20",
          "name": "_l2Usdc",
          "type": "address"
        },
        {
          "internalType": "contract ITokenMessenger",
          "name": "_cctpTokenMessenger",
          "type": "address"
        }
      ],
      "stateMutability": "nonpayable",
      "type": "constructor"
    },
    {
      "inputs": [],
      "name": "ClaimedMerkleLeaf",
      "type": "error"
    },
    {
      "inputs": [],
      "name": "DepositsArePaused",
      "type": "error"
    },
    {
      "inputs": [],
      "name": "DisabledRoute",
      "type": "error"
    },
    {
      "inputs": [],
      "name": "ExpiredFillDeadline",
      "type": "error"
    },
    {
      "inputs": [],
      "name": "FillsArePaused",
      "type": "error"
    },
    {
      "inputs": [],
      "name": "InvalidChainId",
      "type": "error"
    },
    {
      "inputs": [],
      "name": "InvalidCrossDomainAdmin",
      "type": "error"
    },
    {
      "inputs": [],
      "name": "InvalidDepositorSignature",
      "type": "error"
    },
    {
      "inputs": [],
      "name": "InvalidExclusiveRelayer",
      "type": "error"
    },
    {
      "inputs": [],
      "name": "InvalidFillDeadline",
      "type": "error"
    },
    {
      "inputs": [],
      "name": "InvalidMerkleLeaf",
      "type": "error"
    },
    {
      "inputs": [],
      "name": "InvalidMerkleProof",
      "type": "error"
    },
    {
      "inputs": [],
      "name": "InvalidPayoutAdjustmentPct",
      "type": "error"
    },
    {
      "inputs": [],
      "name": "InvalidQuoteTimestamp",
      "type": "error"
    },
    {
      "inputs": [],
      "name": "InvalidRelayerFeePct",
      "type": "error"
    },
    {
      "inputs": [],
      "name": "InvalidSlowFillRequest",
      "type": "error"
    },
    {
      "inputs": [],
      "name": "InvalidWithdrawalRecipient",
      "type": "error"
    },
    {
      "inputs": [
        {
          "internalType": "bytes",
          "name": "data",
          "type": "bytes"
        }
      ],
      "name": "LowLevelCallFailed",
      "type": "error"
    },
    {
      "inputs": [],
      "name": "MaxTransferSizeExceeded",
      "type": "error"
    },
    {
      "inputs": [],
      "name": "MsgValueDoesNotMatchInputAmount",
      "type": "error"
    },
    {
      "inputs": [],
      "name": "NoSlowFillsInExclusivityWindow",
      "type": "error"
    },
    {
      "inputs": [],
      "name": "NotCrossChainCall",
      "type": "error"
    },
    {
      "inputs": [],
      "name": "NotCrossDomainAdmin",
      "type": "error"
    },
    {
      "inputs": [],
      "name": "NotEOA",
      "type": "error"
    },
    {
      "inputs": [],
      "name": "NotExclusiveRelayer",
      "type": "error"
    },
    {
      "inputs": [],
      "name": "RelayFilled",
      "type": "error"
    },
    {
      "inputs": [],
      "name": "WrongERC7683OrderId",
      "type": "error"
    },
    {
      "anonymous": false,
      "inputs": [
        {
          "indexed": false,
          "internalType": "address",
          "name": "previousAdmin",
          "type": "address"
        },
        {
          "indexed": false,
          "internalType": "address",
          "name": "newAdmin",
          "type": "address"
        }
      ],
      "name": "AdminChanged",
      "type": "event"
    },
    {
      "anonymous": false,
      "inputs": [
        {
          "indexed": true,
          "internalType": "address",
          "name": "beacon",
          "type": "address"
        }
      ],
      "name": "BeaconUpgraded",
      "type": "event"
    },
    {
      "anonymous": false,
      "inputs": [
        {
          "indexed": true,
          "internalType": "uint256",
          "name": "rootBundleId",
          "type": "uint256"
        }
      ],
      "name": "EmergencyDeleteRootBundle",
      "type": "event"
    },
    {
      "anonymous": false,
      "inputs": [
        {
          "indexed": true,
          "internalType": "address",
          "name": "originToken",
          "type": "address"
        },
        {
          "indexed": true,
          "internalType": "uint256",
          "name": "destinationChainId",
          "type": "uint256"
        },
        {
          "indexed": false,
          "internalType": "bool",
          "name": "enabled",
          "type": "bool"
        }
      ],
      "name": "EnabledDepositRoute",
      "type": "event"
    },
    {
      "anonymous": false,
      "inputs": [
        {
          "indexed": false,
          "internalType": "uint256",
          "name": "amountToReturn",
          "type": "uint256"
        },
        {
          "indexed": true,
          "internalType": "uint256",
          "name": "chainId",
          "type": "uint256"
        },
        {
          "indexed": false,
          "internalType": "uint256[]",
          "name": "refundAmounts",
          "type": "uint256[]"
        },
        {
          "indexed": true,
          "internalType": "uint32",
          "name": "rootBundleId",
          "type": "uint32"
        },
        {
          "indexed": true,
          "internalType": "uint32",
          "name": "leafId",
          "type": "uint32"
        },
        {
          "indexed": false,
          "internalType": "address",
          "name": "l2TokenAddress",
          "type": "address"
        },
        {
          "indexed": false,
          "internalType": "address[]",
          "name": "refundAddresses",
          "type": "address[]"
        },
        {
          "indexed": false,
          "internalType": "address",
          "name": "caller",
          "type": "address"
        }
      ],
      "name": "ExecutedRelayerRefundRoot",
      "type": "event"
    },
    {
      "anonymous": false,
      "inputs": [
        {
          "indexed": false,
          "internalType": "address",
          "name": "inputToken",
          "type": "address"
        },
        {
          "indexed": false,
          "internalType": "address",
          "name": "outputToken",
          "type": "address"
        },
        {
          "indexed": false,
          "internalType": "uint256",
          "name": "inputAmount",
          "type": "uint256"
        },
        {
          "indexed": false,
          "internalType": "uint256",
          "name": "outputAmount",
          "type": "uint256"
        },
        {
          "indexed": false,
          "internalType": "uint256",
          "name": "repaymentChainId",
          "type": "uint256"
        },
        {
          "indexed": true,
          "internalType": "uint256",
          "name": "originChainId",
          "type": "uint256"
        },
        {
          "indexed": true,
          "internalType": "uint32",
          "name": "depositId",
          "type": "uint32"
        },
        {
          "indexed": false,
          "internalType": "uint32",
          "name": "fillDeadline",
          "type": "uint32"
        },
        {
          "indexed": false,
          "internalType": "uint32",
          "name": "exclusivityDeadline",
          "type": "uint32"
        },
        {
          "indexed": false,
          "internalType": "address",
          "name": "exclusiveRelayer",
          "type": "address"
        },
        {
          "indexed": true,
          "internalType": "address",
          "name": "relayer",
          "type": "address"
        },
        {
          "indexed": false,
          "internalType": "address",
          "name": "depositor",
          "type": "address"
        },
        {
          "indexed": false,
          "internalType": "address",
          "name": "recipient",
          "type": "address"
        },
        {
          "indexed": false,
          "internalType": "bytes",
          "name": "message",
          "type": "bytes"
        },
        {
          "components": [
            {
              "internalType": "address",
              "name": "updatedRecipient",
              "type": "address"
            },
            {
              "internalType": "bytes",
              "name": "updatedMessage",
              "type": "bytes"
            },
            {
              "internalType": "uint256",
              "name": "updatedOutputAmount",
              "type": "uint256"
            },
            {
              "internalType": "enum V3SpokePoolInterface.FillType",
              "name": "fillType",
              "type": "uint8"
            }
          ],
          "indexed": false,
          "internalType": "struct V3SpokePoolInterface.V3RelayExecutionEventInfo",
          "name": "relayExecutionInfo",
          "type": "tuple"
        }
      ],
      "name": "FilledV3Relay",
      "type": "event"
    },
    {
      "anonymous": false,
      "inputs": [
        {
          "indexed": false,
          "internalType": "uint8",
          "name": "version",
          "type": "uint8"
        }
      ],
      "name": "Initialized",
      "type": "event"
    },
    {
      "anonymous": false,
      "inputs": [
        {
          "indexed": false,
          "internalType": "bool",
          "name": "isPaused",
          "type": "bool"
        }
      ],
      "name": "PausedDeposits",
      "type": "event"
    },
    {
      "anonymous": false,
      "inputs": [
        {
          "indexed": false,
          "internalType": "bool",
          "name": "isPaused",
          "type": "bool"
        }
      ],
      "name": "PausedFills",
      "type": "event"
    },
    {
      "anonymous": false,
      "inputs": [
        {
          "indexed": true,
          "internalType": "uint32",
          "name": "rootBundleId",
          "type": "uint32"
        },
        {
          "indexed": true,
          "internalType": "bytes32",
          "name": "relayerRefundRoot",
          "type": "bytes32"
        },
        {
          "indexed": true,
          "internalType": "bytes32",
          "name": "slowRelayRoot",
          "type": "bytes32"
        }
      ],
      "name": "RelayedRootBundle",
      "type": "event"
    },
    {
      "anonymous": false,
      "inputs": [
        {
          "indexed": false,
          "internalType": "uint256",
          "name": "updatedOutputAmount",
          "type": "uint256"
        },
        {
          "indexed": true,
          "internalType": "uint32",
          "name": "depositId",
          "type": "uint32"
        },
        {
          "indexed": true,
          "internalType": "address",
          "name": "depositor",
          "type": "address"
        },
        {
          "indexed": false,
          "internalType": "address",
          "name": "updatedRecipient",
          "type": "address"
        },
        {
          "indexed": false,
          "internalType": "bytes",
          "name": "updatedMessage",
          "type": "bytes"
        },
        {
          "indexed": false,
          "internalType": "bytes",
          "name": "depositorSignature",
          "type": "bytes"
        }
      ],
      "name": "RequestedSpeedUpV3Deposit",
      "type": "event"
    },
    {
      "anonymous": false,
      "inputs": [
        {
          "indexed": false,
          "internalType": "address",
          "name": "inputToken",
          "type": "address"
        },
        {
          "indexed": false,
          "internalType": "address",
          "name": "outputToken",
          "type": "address"
        },
        {
          "indexed": false,
          "internalType": "uint256",
          "name": "inputAmount",
          "type": "uint256"
        },
        {
          "indexed": false,
          "internalType": "uint256",
          "name": "outputAmount",
          "type": "uint256"
        },
        {
          "indexed": true,
          "internalType": "uint256",
          "name": "originChainId",
          "type": "uint256"
        },
        {
          "indexed": true,
          "internalType": "uint32",
          "name": "depositId",
          "type": "uint32"
        },
        {
          "indexed": false,
          "internalType": "uint32",
          "name": "fillDeadline",
          "type": "uint32"
        },
        {
          "indexed": false,
          "internalType": "uint32",
          "name": "exclusivityDeadline",
          "type": "uint32"
        },
        {
          "indexed": false,
          "internalType": "address",
          "name": "exclusiveRelayer",
          "type": "address"
        },
        {
          "indexed": false,
          "internalType": "address",
          "name": "depositor",
          "type": "address"
        },
        {
          "indexed": false,
          "internalType": "address",
          "name": "recipient",
          "type": "address"
        },
        {
          "indexed": false,
          "internalType": "bytes",
          "name": "message",
          "type": "bytes"
        }
      ],
      "name": "RequestedV3SlowFill",
      "type": "event"
    },
    {
      "anonymous": false,
      "inputs": [
        {
          "indexed": true,
          "internalType": "uint32",
          "name": "newL1Gas",
          "type": "uint32"
        }
      ],
      "name": "SetL1Gas",
      "type": "event"
    },
    {
      "anonymous": false,
      "inputs": [
        {
          "indexed": true,
          "internalType": "address",
          "name": "l2Token",
          "type": "address"
        },
        {
          "indexed": true,
          "internalType": "address",
          "name": "tokenBridge",
          "type": "address"
        }
      ],
      "name": "SetL2TokenBridge",
      "type": "event"
    },
    {
      "anonymous": false,
      "inputs": [
        {
          "indexed": true,
          "internalType": "address",
          "name": "l2Token",
          "type": "address"
        },
        {
          "indexed": true,
          "internalType": "address",
          "name": "l1Token",
          "type": "address"
        }
      ],
      "name": "SetRemoteL1Token",
      "type": "event"
    },
    {
      "anonymous": false,
      "inputs": [
        {
          "indexed": true,
          "internalType": "address",
          "name": "newWithdrawalRecipient",
          "type": "address"
        }
      ],
      "name": "SetWithdrawalRecipient",
      "type": "event"
    },
    {
      "anonymous": false,
      "inputs": [
        {
          "indexed": true,
          "internalType": "address",
          "name": "newAdmin",
          "type": "address"
        }
      ],
      "name": "SetXDomainAdmin",
      "type": "event"
    },
    {
      "anonymous": false,
      "inputs": [
        {
          "indexed": false,
          "internalType": "uint256",
          "name": "amountToReturn",
          "type": "uint256"
        },
        {
          "indexed": true,
          "internalType": "uint256",
          "name": "chainId",
          "type": "uint256"
        },
        {
          "indexed": true,
          "internalType": "uint32",
          "name": "leafId",
          "type": "uint32"
        },
        {
          "indexed": true,
          "internalType": "address",
          "name": "l2TokenAddress",
          "type": "address"
        },
        {
          "indexed": false,
          "internalType": "address",
          "name": "caller",
          "type": "address"
        }
      ],
      "name": "TokensBridged",
      "type": "event"
    },
    {
      "anonymous": false,
      "inputs": [
        {
          "indexed": true,
          "internalType": "address",
          "name": "implementation",
          "type": "address"
        }
      ],
      "name": "Upgraded",
      "type": "event"
    },
    {
      "anonymous": false,
      "inputs": [
        {
          "indexed": false,
          "internalType": "address",
          "name": "inputToken",
          "type": "address"
        },
        {
          "indexed": false,
          "internalType": "address",
          "name": "outputToken",
          "type": "address"
        },
        {
          "indexed": false,
          "internalType": "uint256",
          "name": "inputAmount",
          "type": "uint256"
        },
        {
          "indexed": false,
          "internalType": "uint256",
          "name": "outputAmount",
          "type": "uint256"
        },
        {
          "indexed": true,
          "internalType": "uint256",
          "name": "destinationChainId",
          "type": "uint256"
        },
        {
          "indexed": true,
          "internalType": "uint32",
          "name": "depositId",
          "type": "uint32"
        },
        {
          "indexed": false,
          "internalType": "uint32",
          "name": "quoteTimestamp",
          "type": "uint32"
        },
        {
          "indexed": false,
          "internalType": "uint32",
          "name": "fillDeadline",
          "type": "uint32"
        },
        {
          "indexed": false,
          "internalType": "uint32",
          "name": "exclusivityDeadline",
          "type": "uint32"
        },
        {
          "indexed": true,
          "internalType": "address",
          "name": "depositor",
          "type": "address"
        },
        {
          "indexed": false,
          "internalType": "address",
          "name": "recipient",
          "type": "address"
        },
        {
          "indexed": false,
          "internalType": "address",
          "name": "exclusiveRelayer",
          "type": "address"
        },
        {
          "indexed": false,
          "internalType": "bytes",
          "name": "message",
          "type": "bytes"
        }
      ],
      "name": "V3FundsDeposited",
      "type": "event"
    },
    {
      "inputs": [],
      "name": "EMPTY_RELAYER",
      "outputs": [
        {
          "internalType": "address",
          "name": "",
          "type": "address"
        }
      ],
      "stateMutability": "view",
      "type": "function"
    },
    {
      "inputs": [],
      "name": "EMPTY_REPAYMENT_CHAIN_ID",
      "outputs": [
        {
          "internalType": "uint256",
          "name": "",
          "type": "uint256"
        }
      ],
      "stateMutability": "view",
      "type": "function"
    },
    {
      "inputs": [],
      "name": "INFINITE_FILL_DEADLINE",
      "outputs": [
        {
          "internalType": "uint32",
          "name": "",
          "type": "uint32"
        }
      ],
      "stateMutability": "view",
      "type": "function"
    },
    {
      "inputs": [],
      "name": "MAX_EXCLUSIVITY_PERIOD_SECONDS",
      "outputs": [
        {
          "internalType": "uint32",
          "name": "",
          "type": "uint32"
        }
      ],
      "stateMutability": "view",
      "type": "function"
    },
    {
      "inputs": [],
      "name": "MAX_TRANSFER_SIZE",
      "outputs": [
        {
          "internalType": "uint256",
          "name": "",
          "type": "uint256"
        }
      ],
      "stateMutability": "view",
      "type": "function"
    },
    {
      "inputs": [],
      "name": "MESSENGER",
      "outputs": [
        {
          "internalType": "address",
          "name": "",
          "type": "address"
        }
      ],
      "stateMutability": "view",
      "type": "function"
    },
    {
      "inputs": [],
      "name": "UPDATE_V3_DEPOSIT_DETAILS_HASH",
      "outputs": [
        {
          "internalType": "bytes32",
          "name": "",
          "type": "bytes32"
        }
      ],
      "stateMutability": "view",
      "type": "function"
    },
    {
      "inputs": [
        {
          "internalType": "uint32",
          "name": "_initialDepositId",
          "type": "uint32"
        },
        {
          "internalType": "address",
          "name": "_crossDomainAdmin",
          "type": "address"
        },
        {
          "internalType": "address",
          "name": "_withdrawalRecipient",
          "type": "address"
        },
        {
          "internalType": "address",
          "name": "_l2Eth",
          "type": "address"
        }
      ],
      "name": "__OvmSpokePool_init",
      "outputs": [],
      "stateMutability": "nonpayable",
      "type": "function"
    },
    {
      "inputs": [
        {
          "internalType": "uint32",
          "name": "_initialDepositId",
          "type": "uint32"
        },
        {
          "internalType": "address",
          "name": "_crossDomainAdmin",
          "type": "address"
        },
        {
          "internalType": "address",
          "name": "_withdrawalRecipient",
          "type": "address"
        }
      ],
      "name": "__SpokePool_init",
      "outputs": [],
      "stateMutability": "nonpayable",
      "type": "function"
    },
    {
      "inputs": [],
      "name": "cctpTokenMessenger",
      "outputs": [
        {
          "internalType": "contract ITokenMessenger",
          "name": "",
          "type": "address"
        }
      ],
      "stateMutability": "view",
      "type": "function"
    },
    {
      "inputs": [],
      "name": "chainId",
      "outputs": [
        {
          "internalType": "uint256",
          "name": "",
          "type": "uint256"
        }
      ],
      "stateMutability": "view",
      "type": "function"
    },
    {
      "inputs": [],
      "name": "crossDomainAdmin",
      "outputs": [
        {
          "internalType": "address",
          "name": "",
          "type": "address"
        }
      ],
      "stateMutability": "view",
      "type": "function"
    },
    {
      "inputs": [
        {
          "internalType": "address",
          "name": "recipient",
          "type": "address"
        },
        {
          "internalType": "address",
          "name": "originToken",
          "type": "address"
        },
        {
          "internalType": "uint256",
          "name": "amount",
          "type": "uint256"
        },
        {
          "internalType": "uint256",
          "name": "destinationChainId",
          "type": "uint256"
        },
        {
          "internalType": "int64",
          "name": "relayerFeePct",
          "type": "int64"
        },
        {
          "internalType": "uint32",
          "name": "quoteTimestamp",
          "type": "uint32"
        },
        {
          "internalType": "bytes",
          "name": "message",
          "type": "bytes"
        },
        {
          "internalType": "uint256",
          "name": "",
          "type": "uint256"
        }
      ],
      "name": "deposit",
      "outputs": [],
      "stateMutability": "payable",
      "type": "function"
    },
    {
      "inputs": [
        {
          "internalType": "address",
          "name": "depositor",
          "type": "address"
        },
        {
          "internalType": "address",
          "name": "recipient",
          "type": "address"
        },
        {
          "internalType": "address",
          "name": "inputToken",
          "type": "address"
        },
        {
          "internalType": "address",
          "name": "outputToken",
          "type": "address"
        },
        {
          "internalType": "uint256",
          "name": "inputAmount",
          "type": "uint256"
        },
        {
          "internalType": "uint256",
          "name": "outputAmount",
          "type": "uint256"
        },
        {
          "internalType": "uint256",
          "name": "destinationChainId",
          "type": "uint256"
        },
        {
          "internalType": "address",
          "name": "exclusiveRelayer",
          "type": "address"
        },
        {
          "internalType": "uint32",
          "name": "quoteTimestamp",
          "type": "uint32"
        },
        {
          "internalType": "uint32",
          "name": "fillDeadline",
          "type": "uint32"
        },
        {
          "internalType": "uint32",
          "name": "exclusivityPeriod",
          "type": "uint32"
        },
        {
          "internalType": "bytes",
          "name": "message",
          "type": "bytes"
        }
      ],
      "name": "depositExclusive",
      "outputs": [],
      "stateMutability": "payable",
      "type": "function"
    },
    {
      "inputs": [
        {
          "internalType": "address",
          "name": "depositor",
          "type": "address"
        },
        {
          "internalType": "address",
          "name": "recipient",
          "type": "address"
        },
        {
          "internalType": "address",
          "name": "originToken",
          "type": "address"
        },
        {
          "internalType": "uint256",
          "name": "amount",
          "type": "uint256"
        },
        {
          "internalType": "uint256",
          "name": "destinationChainId",
          "type": "uint256"
        },
        {
          "internalType": "int64",
          "name": "relayerFeePct",
          "type": "int64"
        },
        {
          "internalType": "uint32",
          "name": "quoteTimestamp",
          "type": "uint32"
        },
        {
          "internalType": "bytes",
          "name": "message",
          "type": "bytes"
        },
        {
          "internalType": "uint256",
          "name": "",
          "type": "uint256"
        }
      ],
      "name": "depositFor",
      "outputs": [],
      "stateMutability": "payable",
      "type": "function"
    },
    {
      "inputs": [],
      "name": "depositQuoteTimeBuffer",
      "outputs": [
        {
          "internalType": "uint32",
          "name": "",
          "type": "uint32"
        }
      ],
      "stateMutability": "view",
      "type": "function"
    },
    {
      "inputs": [
        {
          "internalType": "address",
          "name": "depositor",
          "type": "address"
        },
        {
          "internalType": "address",
          "name": "recipient",
          "type": "address"
        },
        {
          "internalType": "address",
          "name": "inputToken",
          "type": "address"
        },
        {
          "internalType": "address",
          "name": "outputToken",
          "type": "address"
        },
        {
          "internalType": "uint256",
          "name": "inputAmount",
          "type": "uint256"
        },
        {
          "internalType": "uint256",
          "name": "outputAmount",
          "type": "uint256"
        },
        {
          "internalType": "uint256",
          "name": "destinationChainId",
          "type": "uint256"
        },
        {
          "internalType": "address",
          "name": "exclusiveRelayer",
          "type": "address"
        },
        {
          "internalType": "uint32",
          "name": "quoteTimestamp",
          "type": "uint32"
        },
        {
          "internalType": "uint32",
          "name": "fillDeadline",
          "type": "uint32"
        },
        {
          "internalType": "uint32",
          "name": "exclusivityParameter",
          "type": "uint32"
        },
        {
          "internalType": "bytes",
          "name": "message",
          "type": "bytes"
        }
      ],
      "name": "depositV3",
      "outputs": [],
      "stateMutability": "payable",
      "type": "function"
    },
    {
      "inputs": [
        {
          "internalType": "address",
          "name": "depositor",
          "type": "address"
        },
        {
          "internalType": "address",
          "name": "recipient",
          "type": "address"
        },
        {
          "internalType": "address",
          "name": "inputToken",
          "type": "address"
        },
        {
          "internalType": "address",
          "name": "outputToken",
          "type": "address"
        },
        {
          "internalType": "uint256",
          "name": "inputAmount",
          "type": "uint256"
        },
        {
          "internalType": "uint256",
          "name": "outputAmount",
          "type": "uint256"
        },
        {
          "internalType": "uint256",
          "name": "destinationChainId",
          "type": "uint256"
        },
        {
          "internalType": "address",
          "name": "exclusiveRelayer",
          "type": "address"
        },
        {
          "internalType": "uint32",
          "name": "fillDeadlineOffset",
          "type": "uint32"
        },
        {
          "internalType": "uint32",
          "name": "exclusivityPeriod",
          "type": "uint32"
        },
        {
          "internalType": "bytes",
          "name": "message",
          "type": "bytes"
        }
      ],
      "name": "depositV3Now",
      "outputs": [],
      "stateMutability": "payable",
      "type": "function"
    },
    {
      "inputs": [
        {
          "internalType": "uint256",
          "name": "rootBundleId",
          "type": "uint256"
        }
      ],
      "name": "emergencyDeleteRootBundle",
      "outputs": [],
      "stateMutability": "nonpayable",
      "type": "function"
    },
    {
      "inputs": [
        {
          "internalType": "address",
          "name": "",
          "type": "address"
        },
        {
          "internalType": "uint256",
          "name": "",
          "type": "uint256"
        }
      ],
      "name": "enabledDepositRoutes",
      "outputs": [
        {
          "internalType": "bool",
          "name": "",
          "type": "bool"
        }
      ],
      "stateMutability": "view",
      "type": "function"
    },
    {
      "inputs": [
        {
          "internalType": "uint32",
          "name": "rootBundleId",
          "type": "uint32"
        },
        {
          "components": [
            {
              "internalType": "uint256",
              "name": "amountToReturn",
              "type": "uint256"
            },
            {
              "internalType": "uint256",
              "name": "chainId",
              "type": "uint256"
            },
            {
              "internalType": "uint256[]",
              "name": "refundAmounts",
              "type": "uint256[]"
            },
            {
              "internalType": "uint32",
              "name": "leafId",
              "type": "uint32"
            },
            {
              "internalType": "address",
              "name": "l2TokenAddress",
              "type": "address"
            },
            {
              "internalType": "address[]",
              "name": "refundAddresses",
              "type": "address[]"
            }
          ],
          "internalType": "struct SpokePoolInterface.RelayerRefundLeaf",
          "name": "relayerRefundLeaf",
          "type": "tuple"
        },
        {
          "internalType": "bytes32[]",
          "name": "proof",
          "type": "bytes32[]"
        }
      ],
      "name": "executeRelayerRefundLeaf",
      "outputs": [],
      "stateMutability": "payable",
      "type": "function"
    },
    {
      "inputs": [
        {
          "components": [
            {
              "components": [
                {
                  "internalType": "address",
                  "name": "depositor",
                  "type": "address"
                },
                {
                  "internalType": "address",
                  "name": "recipient",
                  "type": "address"
                },
                {
                  "internalType": "address",
                  "name": "exclusiveRelayer",
                  "type": "address"
                },
                {
                  "internalType": "address",
                  "name": "inputToken",
                  "type": "address"
                },
                {
                  "internalType": "address",
                  "name": "outputToken",
                  "type": "address"
                },
                {
                  "internalType": "uint256",
                  "name": "inputAmount",
                  "type": "uint256"
                },
                {
                  "internalType": "uint256",
                  "name": "outputAmount",
                  "type": "uint256"
                },
                {
                  "internalType": "uint256",
                  "name": "originChainId",
                  "type": "uint256"
                },
                {
                  "internalType": "uint32",
                  "name": "depositId",
                  "type": "uint32"
                },
                {
                  "internalType": "uint32",
                  "name": "fillDeadline",
                  "type": "uint32"
                },
                {
                  "internalType": "uint32",
                  "name": "exclusivityDeadline",
                  "type": "uint32"
                },
                {
                  "internalType": "bytes",
                  "name": "message",
                  "type": "bytes"
                }
              ],
              "internalType": "struct V3SpokePoolInterface.V3RelayData",
              "name": "relayData",
              "type": "tuple"
            },
            {
              "internalType": "uint256",
              "name": "chainId",
              "type": "uint256"
            },
            {
              "internalType": "uint256",
              "name": "updatedOutputAmount",
              "type": "uint256"
            }
          ],
          "internalType": "struct V3SpokePoolInterface.V3SlowFill",
          "name": "slowFillLeaf",
          "type": "tuple"
        },
        {
          "internalType": "uint32",
          "name": "rootBundleId",
          "type": "uint32"
        },
        {
          "internalType": "bytes32[]",
          "name": "proof",
          "type": "bytes32[]"
        }
      ],
      "name": "executeV3SlowRelayLeaf",
      "outputs": [],
      "stateMutability": "nonpayable",
      "type": "function"
    },
    {
      "inputs": [
        {
          "internalType": "bytes32",
          "name": "orderId",
          "type": "bytes32"
        },
        {
          "internalType": "bytes",
          "name": "originData",
          "type": "bytes"
        },
        {
          "internalType": "bytes",
          "name": "fillerData",
          "type": "bytes"
        }
      ],
      "name": "fill",
      "outputs": [],
      "stateMutability": "nonpayable",
      "type": "function"
    },
    {
      "inputs": [],
      "name": "fillDeadlineBuffer",
      "outputs": [
        {
          "internalType": "uint32",
          "name": "",
          "type": "uint32"
        }
      ],
      "stateMutability": "view",
      "type": "function"
    },
    {
      "inputs": [
        {
          "internalType": "bytes32",
          "name": "",
          "type": "bytes32"
        }
      ],
      "name": "fillStatuses",
      "outputs": [
        {
          "internalType": "uint256",
          "name": "",
          "type": "uint256"
        }
      ],
      "stateMutability": "view",
      "type": "function"
    },
    {
      "inputs": [
        {
          "components": [
            {
              "internalType": "address",
              "name": "depositor",
              "type": "address"
            },
            {
              "internalType": "address",
              "name": "recipient",
              "type": "address"
            },
            {
              "internalType": "address",
              "name": "exclusiveRelayer",
              "type": "address"
            },
            {
              "internalType": "address",
              "name": "inputToken",
              "type": "address"
            },
            {
              "internalType": "address",
              "name": "outputToken",
              "type": "address"
            },
            {
              "internalType": "uint256",
              "name": "inputAmount",
              "type": "uint256"
            },
            {
              "internalType": "uint256",
              "name": "outputAmount",
              "type": "uint256"
            },
            {
              "internalType": "uint256",
              "name": "originChainId",
              "type": "uint256"
            },
            {
              "internalType": "uint32",
              "name": "depositId",
              "type": "uint32"
            },
            {
              "internalType": "uint32",
              "name": "fillDeadline",
              "type": "uint32"
            },
            {
              "internalType": "uint32",
              "name": "exclusivityDeadline",
              "type": "uint32"
            },
            {
              "internalType": "bytes",
              "name": "message",
              "type": "bytes"
            }
          ],
          "internalType": "struct V3SpokePoolInterface.V3RelayData",
          "name": "relayData",
          "type": "tuple"
        },
        {
          "internalType": "uint256",
          "name": "repaymentChainId",
          "type": "uint256"
        }
      ],
      "name": "fillV3Relay",
      "outputs": [],
      "stateMutability": "nonpayable",
      "type": "function"
    },
    {
      "inputs": [
        {
          "components": [
            {
              "internalType": "address",
              "name": "depositor",
              "type": "address"
            },
            {
              "internalType": "address",
              "name": "recipient",
              "type": "address"
            },
            {
              "internalType": "address",
              "name": "exclusiveRelayer",
              "type": "address"
            },
            {
              "internalType": "address",
              "name": "inputToken",
              "type": "address"
            },
            {
              "internalType": "address",
              "name": "outputToken",
              "type": "address"
            },
            {
              "internalType": "uint256",
              "name": "inputAmount",
              "type": "uint256"
            },
            {
              "internalType": "uint256",
              "name": "outputAmount",
              "type": "uint256"
            },
            {
              "internalType": "uint256",
              "name": "originChainId",
              "type": "uint256"
            },
            {
              "internalType": "uint32",
              "name": "depositId",
              "type": "uint32"
            },
            {
              "internalType": "uint32",
              "name": "fillDeadline",
              "type": "uint32"
            },
            {
              "internalType": "uint32",
              "name": "exclusivityDeadline",
              "type": "uint32"
            },
            {
              "internalType": "bytes",
              "name": "message",
              "type": "bytes"
            }
          ],
          "internalType": "struct V3SpokePoolInterface.V3RelayData",
          "name": "relayData",
          "type": "tuple"
        },
        {
          "internalType": "uint256",
          "name": "repaymentChainId",
          "type": "uint256"
        },
        {
          "internalType": "uint256",
          "name": "updatedOutputAmount",
          "type": "uint256"
        },
        {
          "internalType": "address",
          "name": "updatedRecipient",
          "type": "address"
        },
        {
          "internalType": "bytes",
          "name": "updatedMessage",
          "type": "bytes"
        },
        {
          "internalType": "bytes",
          "name": "depositorSignature",
          "type": "bytes"
        }
      ],
      "name": "fillV3RelayWithUpdatedDeposit",
      "outputs": [],
      "stateMutability": "nonpayable",
      "type": "function"
    },
    {
      "inputs": [],
      "name": "getCurrentTime",
      "outputs": [
        {
          "internalType": "uint256",
          "name": "",
          "type": "uint256"
        }
      ],
      "stateMutability": "view",
      "type": "function"
    },
    {
      "inputs": [
        {
          "internalType": "uint32",
          "name": "_initialDepositId",
          "type": "uint32"
        },
        {
          "internalType": "address",
          "name": "_crossDomainAdmin",
          "type": "address"
        },
        {
          "internalType": "address",
          "name": "_withdrawalRecipient",
          "type": "address"
        }
      ],
      "name": "initialize",
      "outputs": [],
      "stateMutability": "nonpayable",
      "type": "function"
    },
    {
      "inputs": [],
      "name": "l1Gas",
      "outputs": [
        {
          "internalType": "uint32",
          "name": "",
          "type": "uint32"
        }
      ],
      "stateMutability": "view",
      "type": "function"
    },
    {
      "inputs": [],
      "name": "l2Eth",
      "outputs": [
        {
          "internalType": "address",
          "name": "",
          "type": "address"
        }
      ],
      "stateMutability": "view",
      "type": "function"
    },
    {
      "inputs": [
        {
          "internalType": "bytes[]",
          "name": "data",
          "type": "bytes[]"
        }
      ],
      "name": "multicall",
      "outputs": [
        {
          "internalType": "bytes[]",
          "name": "results",
          "type": "bytes[]"
        }
      ],
      "stateMutability": "nonpayable",
      "type": "function"
    },
    {
      "inputs": [],
      "name": "numberOfDeposits",
      "outputs": [
        {
          "internalType": "uint32",
          "name": "",
          "type": "uint32"
        }
      ],
      "stateMutability": "view",
      "type": "function"
    },
    {
      "inputs": [
        {
          "internalType": "bool",
          "name": "pause",
          "type": "bool"
        }
      ],
      "name": "pauseDeposits",
      "outputs": [],
      "stateMutability": "nonpayable",
      "type": "function"
    },
    {
      "inputs": [
        {
          "internalType": "bool",
          "name": "pause",
          "type": "bool"
        }
      ],
      "name": "pauseFills",
      "outputs": [],
      "stateMutability": "nonpayable",
      "type": "function"
    },
    {
      "inputs": [],
      "name": "pausedDeposits",
      "outputs": [
        {
          "internalType": "bool",
          "name": "",
          "type": "bool"
        }
      ],
      "stateMutability": "view",
      "type": "function"
    },
    {
      "inputs": [],
      "name": "pausedFills",
      "outputs": [
        {
          "internalType": "bool",
          "name": "",
          "type": "bool"
        }
      ],
      "stateMutability": "view",
      "type": "function"
    },
    {
      "inputs": [],
      "name": "proxiableUUID",
      "outputs": [
        {
          "internalType": "bytes32",
          "name": "",
          "type": "bytes32"
        }
      ],
      "stateMutability": "view",
      "type": "function"
    },
    {
      "inputs": [],
      "name": "recipientCircleDomainId",
      "outputs": [
        {
          "internalType": "uint32",
          "name": "",
          "type": "uint32"
        }
      ],
      "stateMutability": "view",
      "type": "function"
    },
    {
      "inputs": [
        {
          "internalType": "bytes32",
          "name": "relayerRefundRoot",
          "type": "bytes32"
        },
        {
          "internalType": "bytes32",
          "name": "slowRelayRoot",
          "type": "bytes32"
        }
      ],
      "name": "relayRootBundle",
      "outputs": [],
      "stateMutability": "nonpayable",
      "type": "function"
    },
    {
      "inputs": [
        {
          "internalType": "address",
          "name": "",
          "type": "address"
        }
      ],
      "name": "remoteL1Tokens",
      "outputs": [
        {
          "internalType": "address",
          "name": "",
          "type": "address"
        }
      ],
      "stateMutability": "view",
      "type": "function"
    },
    {
      "inputs": [
        {
          "components": [
            {
              "internalType": "address",
              "name": "depositor",
              "type": "address"
            },
            {
              "internalType": "address",
              "name": "recipient",
              "type": "address"
            },
            {
              "internalType": "address",
              "name": "exclusiveRelayer",
              "type": "address"
            },
            {
              "internalType": "address",
              "name": "inputToken",
              "type": "address"
            },
            {
              "internalType": "address",
              "name": "outputToken",
              "type": "address"
            },
            {
              "internalType": "uint256",
              "name": "inputAmount",
              "type": "uint256"
            },
            {
              "internalType": "uint256",
              "name": "outputAmount",
              "type": "uint256"
            },
            {
              "internalType": "uint256",
              "name": "originChainId",
              "type": "uint256"
            },
            {
              "internalType": "uint32",
              "name": "depositId",
              "type": "uint32"
            },
            {
              "internalType": "uint32",
              "name": "fillDeadline",
              "type": "uint32"
            },
            {
              "internalType": "uint32",
              "name": "exclusivityDeadline",
              "type": "uint32"
            },
            {
              "internalType": "bytes",
              "name": "message",
              "type": "bytes"
            }
          ],
          "internalType": "struct V3SpokePoolInterface.V3RelayData",
          "name": "relayData",
          "type": "tuple"
        }
      ],
      "name": "requestV3SlowFill",
      "outputs": [],
      "stateMutability": "nonpayable",
      "type": "function"
    },
    {
      "inputs": [
        {
          "internalType": "uint256",
          "name": "",
          "type": "uint256"
        }
      ],
      "name": "rootBundles",
      "outputs": [
        {
          "internalType": "bytes32",
          "name": "slowRelayRoot",
          "type": "bytes32"
        },
        {
          "internalType": "bytes32",
          "name": "relayerRefundRoot",
          "type": "bytes32"
        }
      ],
      "stateMutability": "view",
      "type": "function"
    },
    {
      "inputs": [
        {
          "internalType": "address",
          "name": "newCrossDomainAdmin",
          "type": "address"
        }
      ],
      "name": "setCrossDomainAdmin",
      "outputs": [],
      "stateMutability": "nonpayable",
      "type": "function"
    },
    {
      "inputs": [
        {
          "internalType": "address",
          "name": "originToken",
          "type": "address"
        },
        {
          "internalType": "uint256",
          "name": "destinationChainId",
          "type": "uint256"
        },
        {
          "internalType": "bool",
          "name": "enabled",
          "type": "bool"
        }
      ],
      "name": "setEnableRoute",
      "outputs": [],
      "stateMutability": "nonpayable",
      "type": "function"
    },
    {
      "inputs": [
        {
          "internalType": "uint32",
          "name": "newl1Gas",
          "type": "uint32"
        }
      ],
      "name": "setL1GasLimit",
      "outputs": [],
      "stateMutability": "nonpayable",
      "type": "function"
    },
    {
      "inputs": [
        {
          "internalType": "address",
          "name": "l2Token",
          "type": "address"
        },
        {
          "internalType": "address",
          "name": "l1Token",
          "type": "address"
        }
      ],
      "name": "setRemoteL1Token",
      "outputs": [],
      "stateMutability": "nonpayable",
      "type": "function"
    },
    {
      "inputs": [
        {
          "internalType": "address",
          "name": "l2Token",
          "type": "address"
        },
        {
          "internalType": "address",
          "name": "tokenBridge",
          "type": "address"
        }
      ],
      "name": "setTokenBridge",
      "outputs": [],
      "stateMutability": "nonpayable",
      "type": "function"
    },
    {
      "inputs": [
        {
          "internalType": "address",
          "name": "newWithdrawalRecipient",
          "type": "address"
        }
      ],
      "name": "setWithdrawalRecipient",
      "outputs": [],
      "stateMutability": "nonpayable",
      "type": "function"
    },
    {
      "inputs": [
        {
          "internalType": "address",
          "name": "depositor",
          "type": "address"
        },
        {
          "internalType": "uint32",
          "name": "depositId",
          "type": "uint32"
        },
        {
          "internalType": "uint256",
          "name": "updatedOutputAmount",
          "type": "uint256"
        },
        {
          "internalType": "address",
          "name": "updatedRecipient",
          "type": "address"
        },
        {
          "internalType": "bytes",
          "name": "updatedMessage",
          "type": "bytes"
        },
        {
          "internalType": "bytes",
          "name": "depositorSignature",
          "type": "bytes"
        }
      ],
      "name": "speedUpV3Deposit",
      "outputs": [],
      "stateMutability": "nonpayable",
      "type": "function"
    },
    {
      "inputs": [
        {
          "internalType": "address",
          "name": "",
          "type": "address"
        }
      ],
      "name": "tokenBridges",
      "outputs": [
        {
          "internalType": "address",
          "name": "",
          "type": "address"
        }
      ],
      "stateMutability": "view",
      "type": "function"
    },
    {
      "inputs": [
        {
          "internalType": "bytes[]",
          "name": "data",
          "type": "bytes[]"
        }
      ],
      "name": "tryMulticall",
      "outputs": [
        {
          "components": [
            {
              "internalType": "bool",
              "name": "success",
              "type": "bool"
            },
            {
              "internalType": "bytes",
              "name": "returnData",
              "type": "bytes"
            }
          ],
          "internalType": "struct MultiCallerUpgradeable.Result[]",
          "name": "results",
          "type": "tuple[]"
        }
      ],
      "stateMutability": "nonpayable",
      "type": "function"
    },
    {
      "inputs": [
        {
          "internalType": "address",
          "name": "newImplementation",
          "type": "address"
        }
      ],
      "name": "upgradeTo",
      "outputs": [],
      "stateMutability": "nonpayable",
      "type": "function"
    },
    {
      "inputs": [
        {
          "internalType": "address",
          "name": "newImplementation",
          "type": "address"
        },
        {
          "internalType": "bytes",
          "name": "data",
          "type": "bytes"
        }
      ],
      "name": "upgradeToAndCall",
      "outputs": [],
      "stateMutability": "payable",
      "type": "function"
    },
    {
      "inputs": [],
      "name": "usdcToken",
      "outputs": [
        {
          "internalType": "contract IERC20",
          "name": "",
          "type": "address"
        }
      ],
      "stateMutability": "view",
      "type": "function"
    },
    {
      "inputs": [],
      "name": "withdrawalRecipient",
      "outputs": [
        {
          "internalType": "address",
          "name": "",
          "type": "address"
        }
      ],
      "stateMutability": "view",
      "type": "function"
    },
    {
      "inputs": [],
      "name": "wrappedNativeToken",
      "outputs": [
        {
          "internalType": "contract WETH9Interface",
          "name": "",
          "type": "address"
        }
      ],
      "stateMutability": "view",
      "type": "function"
    },
    {
      "stateMutability": "payable",
      "type": "receive"
    }
  ],
  "numDeployments": 19,
  "solcInputHash": "af9e8506423633342df52772a210784b",
  "bytecode": "0x61016034620001e957601f6200533f38819003918201601f19168301916001600160401b03831184841017620001ed5780849260a094604052833981010312620001e95780516001600160a01b03919082811690819003620001e957620000696020830162000201565b620000776040840162000201565b916060840151938585168503620001e957608001519485168503620001e9573060805260a05260c05260e0525f5460ff8160081c16620001e95760ff80821603620001ae575b50610120908152610140918252610100915f83526040519161512b9384620002148539608051848181610c8701528181611323015261149d015260a0518481816107b701528181611a4501528181612e46015281816135d70152818161373b01528181613d380152818161400c0152818161459d0152818161494b0152614972015260c05184818161159e015281816119f301528181612df60152613569015260e0518481816103ce01528181611bed0152612f6101525183818161170d0152614eea01525182818161075a015281816149090152614de4015251818181611e95015281816146c20152614e100152f35b60ff90811916175f557f7f26b83ff96e1f2b6a682f133852f6798a09c465da95921460cefb3847402498602060405160ff8152a15f620000bd565b5f80fd5b634e487b7160e01b5f52604160045260245ffd5b519063ffffffff82168203620001e95756fe6080604052600436101561001a575b3615610018575f80fd5b005b5f3560e01c8063079bd2c71461039f5780630c5d5f731461039a5780630eaac9f0146103955780631186ec331461039057806311eac8551461038b57806315348e441461032257806317fcb39b146103865780631b3d555914610381578063272751c71461037c57806329cb924d146103775780632cfc26c5146103725780632e3781151461036d5780633659cfe614610368578063431023b814610363578063437b91161461035e578063490e49ef14610359578063493a4f84146103545780634e0fb8f51461034f5780634f1ef2861461034a5780635249fef1146103455780635285e0581461034057806352d1902d1461033b578063541f4f141461033657806357f6dcb8146103315780636068d6cb1461032c578063647c576c146103275780636bbbcd2e146103225780636e4009831461031d578063738b62e514610318578063766e0703146103135780637aef642c1461030e5780637b939232146102d757806382e2c43f146103095780638a7860ce14610304578063927ede2d146102ff5780639748cf7c146102fa578063979f2bc2146102f55780639963e5a8146102f057806399cc2968146102eb5780639a8a0592146102e6578063a1244c67146102e1578063ac9650d8146102dc578063add051a3146102d7578063b27a4300146102d2578063b370b7f5146102cd578063bbca7db0146102c8578063bf10268d146102c3578063c35c83fc146102be578063ccfa5971146102b9578063ceb4c987146102b4578063dda52113146102af578063ddd224f1146102aa578063de7eba78146102a5578063e3229211146102a0578063ee2a53f81461029b578063fbbba9ac146102965763fc8a584f0361000e57612829565b6127a5565b612767565b6126eb565b6126bb565b612692565b61266c565b61264e565b6125cb565b6125a0565b61251c565b6123db565b6123b4565b612375565b611949565b6122d5565b61224b565b612231565b612183565b611f87565b611eb9565b611e76565b611e48565b611dd0565b611c6e565b611804565b6117e0565b611731565b6116f1565b61077e565b61161a565b6115c2565b611582565b6114ed565b611483565b61145c565b61140e565b6112e0565b6111c6565b611111565b6110f3565b611026565b610d91565b610c5f565b610b0a565b610ac1565b610aa7565b610a08565b610926565b610798565b61073b565b610682565b610468565b610410565b6103b2565b5f9103126103ae57565b5f80fd5b346103ae575f3660031901126103ae57602060405163ffffffff7f0000000000000000000000000000000000000000000000000000000000000000168152f35b6001600160a01b038116036103ae57565b359061040e826103f2565b565b346103ae5760203660031901126103ae57602060043561042f816103f2565b6001600160a01b038091165f52610c5d825260405f205416604051908152f35b63ffffffff8116036103ae57565b359061040e8261044f565b346103ae5760203660031901126103ae5763ffffffff60043561048a8161044f565b610492613343565b61049a613455565b16610c5a8163ffffffff198254161790557fe486a5c4bd7b36eabbfe274c99b39130277417be8d2209b4dae04c4fba64ee3a5f80a26001606555005b634e487b7160e01b5f52604160045260245ffd5b6040810190811067ffffffffffffffff82111761050657604052565b6104d6565b67ffffffffffffffff811161050657604052565b6060810190811067ffffffffffffffff82111761050657604052565b6020810190811067ffffffffffffffff82111761050657604052565b60e0810190811067ffffffffffffffff82111761050657604052565b60a0810190811067ffffffffffffffff82111761050657604052565b90601f8019910116810190811067ffffffffffffffff82111761050657604052565b6040519060c0820182811067ffffffffffffffff82111761050657604052565b60405190610180820182811067ffffffffffffffff82111761050657604052565b604051906080820182811067ffffffffffffffff82111761050657604052565b67ffffffffffffffff811161050657601f01601f191660200190565b92919261063a82610612565b91610648604051938461058f565b8294818452818301116103ae578281602093845f960137010152565b9080601f830112156103ae5781602061067f9335910161062e565b90565b6101003660031901126103ae5760043561069b816103f2565b6024356106a7816103f2565b6084358060070b81036103ae5760a435906106c18261044f565b60c43567ffffffffffffffff81116103ae576106e1903690600401610664565b926106ea613455565b60ff61086b5460e81c166107115761070a946064359160443591336134dc565b6001606555005b60046040517f5a65d188000000000000000000000000000000000000000000000000000000008152fd5b346103ae575f3660031901126103ae5760206040516001600160a01b037f0000000000000000000000000000000000000000000000000000000000000000168152f35b346103ae575f3660031901126103ae5760206040515f8152f35b346103ae575f3660031901126103ae5760206040516001600160a01b037f0000000000000000000000000000000000000000000000000000000000000000168152f35b67ffffffffffffffff81116105065760051b60200190565b9080601f830112156103ae57602090823561080d816107db565b9361081b604051958661058f565b81855260208086019260051b8201019283116103ae57602001905b828210610844575050505090565b81358152908301908301610836565b9080601f830112156103ae57602090823561086d816107db565b9361087b604051958661058f565b81855260208086019260051b8201019283116103ae57602001905b8282106108a4575050505090565b83809183356108b2816103f2565b815201910190610896565b92916108c8826107db565b916108d6604051938461058f565b829481845260208094019160051b81019283116103ae57905b8282106108fc5750505050565b813581529083019083016108ef565b9080601f830112156103ae5781602061067f933591016108bd565b6003196060368201126103ae5760043561093f8161044f565b60243567ffffffffffffffff928382116103ae5760c09082360301126103ae576109676105b1565b90806004013582526024810135602083015260448101358481116103ae5761099590600436918401016107f3565b60408301526109a66064820161045d565b60608301526109b760848201610403565b608083015260a4810135908482116103ae5760046109d89236920101610853565b60a08201526044359283116103ae576109f861001893369060040161090b565b91612859565b801515036103ae57565b346103ae5760603660031901126103ae57600435610a25816103f2565b602435907f0a21fdd43d0ad0c62689ee7230a47309a050755bcc52eba00310add65297692a60206001600160a01b0360443593610a61856109fe565b610a69613343565b610a71613455565b1692835f5261086d825260405f20855f52825260405f209015159060ff1981541660ff8316179055604051908152a36001606555005b346103ae575f3660031901126103ae576020604051428152f35b346103ae575f3660031901126103ae5760206040517f152eb71524aef34d838ab76573c14b1ebfa5e385d9ab29d7cf5398daa2438bd98152f35b90816101809103126103ae5790565b346103ae5760403660031901126103ae5760043567ffffffffffffffff81116103ae57610b3b903690600401610afb565b610b43613455565b60ff61086b5460e01c16610c4e57610b5e6101408201612a50565b63ffffffff8042169116101580610c30575b610c0657610bfc90610be8610b8d610b883684612a64565b613a05565b9160c0610be1610b9f60208401612a5a565b610bad610160850185612b44565b939094610bb86105b1565b97610bc33683612a64565b89526020890152013560408701526001600160a01b03166060860152565b369161062e565b608082015260243560a08201523390613b3e565b6100186001606555565b60046040517fc3a9b9d0000000000000000000000000000000000000000000000000000000008152fd5b50610c3d60408201612a5a565b6001600160a01b0316331415610b70565b6004604051633d90fc5560e11b8152fd5b346103ae5760203660031901126103ae57600435610c7c816103f2565b6001600160a01b03807f0000000000000000000000000000000000000000000000000000000000000000168030146103ae577f360894a13ba1a3210667c828492db98dca3e2076cc3735a920a3ca505d382bbc9082825416036103ae57610ce1613343565b60405191610cee8361053b565b5f83527f4910fdfa16fed3260ed0e7147f7cc6da11a60208b5b9406d12a635614ffd91435460ff1615610d275750505061001890614b0a565b6020600491604051928380926352d1902d60e01b825288165afa5f9181610d60575b50610d52575f80fd5b036103ae57610018916149f1565b610d8391925060203d602011610d8a575b610d7b818361058f565b810190614108565b905f610d49565b503d610d71565b346103ae5760803660031901126103ae57600435610dae8161044f565b60243590610dbb826103f2565b604435610dc7816103f2565b60643591610dd4836103f2565b60ff5f5460081c16156103ae57610e1b90610c5a624c4b4063ffffffff1982541617905561086b9063ffffffff60c01b1963ffffffff60c01b83549260c01b169116179055565b60405190610e28826104ea565b6009825260208201916820a1a927a9a996ab1960b91b8352640312e302e360dc1b6020604051610e57816104ea565b60058152015260ff5f5460081c16156103ae5761001894610ebc93610eb79251902061047f557f06c015bd22b4c69690933c1058878ebdfef31f9aaae40bbe86d8a09fe1b2972c61048055610eaa614292565b610eb26142a1565b6142b5565b614327565b610c5a907fffffffffffffffff0000000000000000000000000000000000000000ffffffff77ffffffffffffffffffffffffffffffffffffffff0000000083549260201b169116179055565b9181601f840112156103ae5782359167ffffffffffffffff83116103ae576020808501948460051b0101116103ae57565b60206003198201126103ae576004359067ffffffffffffffff82116103ae57610f6491600401610f08565b9091565b5f5b838110610f795750505f910152565b8181015183820152602001610f6a565b90602091610fa281518092818552858086019101610f68565b601f01601f1916010190565b6020808201908083528351809252604092604081018260408560051b8401019601945f925b858410610fe4575050505050505090565b909192939495968580611015600193603f1986820301885286838d5180511515845201519181858201520190610f89565b990194019401929594939190610fd3565b346103ae5761103436610f39565b61103d816107db565b91604061104d604051948561058f565b828452601f1961105c846107db565b015f5b8181106110d05750505f5b838110611083576040518061107f8782610fae565b0390f35b806110ca61109360019388612b77565b515f806110a1858a8a612b8b565b906110b0895180938193612ba2565b0390305af4906110be612baf565b60208201529015159052565b0161106a565b60209083516110de816104ea565b5f81528260608183015282890101520161105f565b346103ae575f3660031901126103ae5760206040516301e133808152f35b346103ae5760403660031901126103ae57602435600435611130613343565b611138613455565b61086c8054680100000000000000008110156105065763ffffffff916001820190558361116482612728565b5084600182015555167fc86ba04c55bc5eb2f2876b91c438849a296dbec7b08751c3074d92e04f0a77af5f80a46001606555005b9181601f840112156103ae5782359167ffffffffffffffff83116103ae57602083818601950101116103ae57565b346103ae5760c03660031901126103ae576004356111e3816103f2565b602435906111f08261044f565b6044356064356111ff816103f2565b67ffffffffffffffff916084358381116103ae57611221903690600401611198565b93909460a4359182116103ae576112c463ffffffff7fb0a29aed3d389a1041194255878b423f7780be3ed2324d4693508c6ff189845e966112696112d6953690600401611198565b939099611274613455565b61129b8c8c8b8b611292611289368a8961062e565b938b369161062e565b9346908c614117565b6001600160a01b0392836040519a8b9a8b521660208a0152608060408a01526080890191612bde565b93868503606088015216981696612bde565b0390a36001606555005b60403660031901126103ae576004356112f8816103f2565b60243567ffffffffffffffff81116103ae57611318903690600401610664565b6001600160a01b03807f000000000000000000000000000000000000000000000000000000000000000016908130146103ae577f360894a13ba1a3210667c828492db98dca3e2076cc3735a920a3ca505d382bbc9181835416036103ae5761137e613343565b7f4910fdfa16fed3260ed0e7147f7cc6da11a60208b5b9406d12a635614ffd91435460ff16156113b45750505061001890614b0a565b6020600491604051928380926352d1902d60e01b825288165afa5f91816113ed575b506113df575f80fd5b036103ae5761001891614ab9565b61140791925060203d602011610d8a57610d7b818361058f565b905f6113d6565b346103ae5760403660031901126103ae576001600160a01b03600435611433816103f2565b165f5261086d60205260405f206024355f52602052602060ff60405f2054166040519015158152f35b346103ae575f3660031901126103ae5760206001600160a01b036108695416604051908152f35b346103ae575f3660031901126103ae576001600160a01b037f00000000000000000000000000000000000000000000000000000000000000001630036103ae5760206040517f360894a13ba1a3210667c828492db98dca3e2076cc3735a920a3ca505d382bbc8152f35b6101203660031901126103ae57600435611506816103f2565b60243590611513826103f2565b60443591611520836103f2565b60a4358060070b81036103ae5760c4359161153a8361044f565b60e43567ffffffffffffffff81116103ae5761155a903690600401610664565b93611563613455565b60ff61086b5460e81c166107115761070a9560843592606435926134dc565b346103ae575f3660031901126103ae57602060405163ffffffff7f0000000000000000000000000000000000000000000000000000000000000000168152f35b346103ae575f3660031901126103ae57602060ff61086b5460e81c166040519015158152f35b60609060031901126103ae576004356116008161044f565b9060243561160d816103f2565b9060443561067f816103f2565b346103ae57611628366115e8565b5f54600881901c60ff16159392908490816116e3575b81156116c3575b50156103ae576116699284611660600160ff195f5416175f55565b6116ac57612bfe565b61166f57005b61167d61ff00195f54165f55565b604051600181527f7f26b83ff96e1f2b6a682f133852f6798a09c465da95921460cefb384740249890602090a1005b6116be61010061ff00195f5416175f55565b612bfe565b303b159150816116d5575b505f611645565b6001915060ff16145f6116ce565b600160ff821610915061163e565b346103ae575f3660031901126103ae57602060405163ffffffff7f0000000000000000000000000000000000000000000000000000000000000000168152f35b346103ae5760203660031901126103ae577fe88463c2f254e2b070013a2dc7ee1e099f9bc00534cbdf03af551dc26ae492196020600435611771816109fe565b611779613343565b611781613455565b151561086b80547fffff00ffffffffffffffffffffffffffffffffffffffffffffffffffffffffff7dff00000000000000000000000000000000000000000000000000000000008460e81b169116179055604051908152a16001606555005b346103ae575f3660031901126103ae57602063ffffffff610c5a5416604051908152f35b6101603660031901126103ae5760043561181d816103f2565b6024359061182a826103f2565b604435611836816103f2565b60643590611843826103f2565b60e43561184f816103f2565b610104359061185d8261044f565b610124359261186b8461044f565b610144359667ffffffffffffffff88116103ae57611890610018983690600401611198565b97909660c4359360a4359360843593612d4b565b906101806003198301126103ae576004356118be816103f2565b916024356118cb816103f2565b916044356118d8816103f2565b916064356118e5816103f2565b916084359160a4359160c4359160e4356118fe816103f2565b916101043561190c8161044f565b916101243561191a8161044f565b91610144356119288161044f565b91610164359067ffffffffffffffff82116103ae57610f6491600401611198565b611952366118a4565b959996919a929094936119679c98999c613455565b61086b549260ff8460e81c166107115763ffffffff809460c01c169c61198c8e612f8e565b6119b39061086b9063ffffffff60c01b1963ffffffff60c01b83549260c01b169116179055565b8c6119d08b6001600160a01b03165f5261086d60205260405f2090565b5f918252602052604090205460ff1615611c44576119f085841642613466565b857f00000000000000000000000000000000000000000000000000000000000000001610611c1a57848416428110908115611be5575b50611bbb57809480821680611b56575b5050506001600160a01b039a8b7f0000000000000000000000000000000000000000000000000000000000000000168c8b1681811480611b4d575b15611b335750813403611b0957803b156103ae575f60049160405192838092630d0e30db60e41b825234905af18015611b0457611aeb575b505b6040519b8c9b169e611abd9a8c61422a565b037fa123dc29aebf7d0c3322c8eeb5b999e859f39937950ed31056532713d0de396f91a46100186001606555565b80611af8611afe9261050b565b806103a4565b5f611aa9565b613473565b60046040517f6452a35d000000000000000000000000000000000000000000000000000000008152fd5b905034611b095781611b48913090339061444d565b611aab565b50341515611a71565b6301e133801015611ba5575b50506001600160a01b03861615611b7b575f8080611a36565b60046040517f495d907f000000000000000000000000000000000000000000000000000000008152fd5b611bb3929550421690612d2e565b925f80611b62565b60046040517f582e3889000000000000000000000000000000000000000000000000000000008152fd5b9050611c13867f0000000000000000000000000000000000000000000000000000000000000000164261421d565b105f611a26565b60046040517ff722177f000000000000000000000000000000000000000000000000000000008152fd5b60046040517f2a58c4f3000000000000000000000000000000000000000000000000000000008152fd5b346103ae5760603660031901126103ae5767ffffffffffffffff6024358181116103ae57611ca0903690600401611198565b916044359081116103ae57611cb9903690600401611198565b9060405193602085019480611cd04684888a612fa3565b0395611ce4601f199788810184528361058f565b6004359151902003611da6575f94611d13611d4b93611d0a87611d57958a990190612fc0565b95810190612fe6565b5160405193849160208301967f2e378115000000000000000000000000000000000000000000000000000000008852602484016130e1565b0390810183528261058f565b5190305af4611d64612baf565b9015611d6c57005b611da2906040519182917fb8fe37a7000000000000000000000000000000000000000000000000000000008352600483016130f8565b0390fd5b60046040517f1e191e8e000000000000000000000000000000000000000000000000000000008152fd5b346103ae5760203660031901126103ae57600435611dec613343565b611df4613455565b611dfd81612728565b611e35576001815f80935501557f3569b846531b754c99cb80df3f49cd72fa6fe106aaee5ab8e0caf35a9d7ce88d5f80a26001606555005b634e487b7160e01b5f525f60045260245ffd5b346103ae575f3660031901126103ae5760206040517342000000000000000000000000000000000000078152f35b346103ae575f3660031901126103ae5760206040516001600160a01b037f0000000000000000000000000000000000000000000000000000000000000000168152f35b346103ae57611ec7366115e8565b909160ff5f5460081c16156103ae57611efd9061086b9063ffffffff60c01b1963ffffffff60c01b83549260c01b169116179055565b604051611f09816104ea565b6009815260208101926820a1a927a9a996ab1960b91b8452640312e302e360dc1b6020604051611f38816104ea565b60058152015260ff5f5460081c16156103ae5761001893610eb79251902061047f557f06c015bd22b4c69690933c1058878ebdfef31f9aaae40bbe86d8a09fe1b2972c61048055610eaa614292565b346103ae5760203660031901126103ae576004803567ffffffffffffffff81116103ae57611fb89036908301610afb565b611fc0613455565b60ff61086b5460e01c166121735763ffffffff804216610140830193611ff882611fe987612a50565b63ffffffff9182169116101590565b61214b576101208401918361200c84612a50565b161061213c5761201f610b883686612a64565b90612033825f5261087260205260405f2090565b546121145750906120786120727f923794976d026d6b119735adc163cb71decfc903e17c3dc226c00789593c04e194935f5261087260205260405f2090565b60019055565b61210761208760608601612a5a565b9561209460808701612a5a565b956120b46120ae6120a86101008401612a50565b95612a50565b92612a50565b6120c060408301612a5a565b6120c983612a5a565b906120d660208501612a5a565b926120e5610160860186612b44565b9690956040519a8b9a169d60e08201359d60a060c0840135930135918c61312c565b0390a36100186001606555565b6040517f012f9e44000000000000000000000000000000000000000000000000000000008152fd5b60405163d642b7d960e01b8152fd5b6040517f09deb9ec000000000000000000000000000000000000000000000000000000008152fd5b50604051633d90fc5560e11b8152fd5b346103ae5760203660031901126103ae577f2d5b62420992e5a4afce0e77742636ca2608ef58289fd2e1baa5161ef6e7e41e60206004356121c3816109fe565b6121cb613343565b6121d3613455565b151561086b80547fffffff00ffffffffffffffffffffffffffffffffffffffffffffffffffffffff7cff000000000000000000000000000000000000000000000000000000008460e01b169116179055604051908152a16001606555005b346103ae575f3660031901126103ae576020604051468152f35b346103ae575f3660031901126103ae57602063ffffffff61086b5460c01c16604051908152f35b6020808201906020835283518092526040830192602060408460051b8301019501935f915b8483106122a75750505050505090565b90919293949584806122c5600193603f198682030187528a51610f89565b9801930193019194939290612297565b346103ae576122e336610f39565b906122ed82613194565b915f5b818110612305576040518061107f8682612272565b5f80612312838587612b8b565b9061232260405180938193612ba2565b0390305af461232f612baf565b901561235557906001916123438287612b77565b5261234e8186612b77565b50016122f0565b60448151106103ae578060046103ae9201516024809183010191016131dd565b346103ae5760203660031901126103ae576020600435612394816103f2565b6001600160a01b038091165f52610c5c825260405f205416604051908152f35b346103ae575f3660031901126103ae5760206001600160a01b0361086a5416604051908152f35b346103ae576003196060368201126103ae5760043567ffffffffffffffff8082116103ae576060823603938401126103ae576024359061241a8261044f565b6044359081116103ae57612432903690600401610f08565b91909361243d613455565b60048401359061018219018112156103ae57610bfc946124f29361246a6124eb9360043691890101612a64565b9561248761248260808901516001600160a01b031690565b613731565b6124d961249388613a05565b9160446124aa60208b01516001600160a01b031690565b916101608b0151946124ba6105b1565b9b8c5260208c0152013560408a01526001600160a01b03166060890152565b60808701525f60a087015236916108bd565b9083614399565b613e4d565b60409060031901126103ae5760043561250f816103f2565b9060243561067f816103f2565b346103ae5761252a366124f7565b90612533613343565b61253b613455565b6001600160a01b0380911691825f52610c5d6020526125738160405f20906001600160a01b03166001600160a01b0319825416179055565b16907fcb84c2022106a6f2b6f805d446f32fbfd2a528474364fa755f37dac1c0c1b6c85f80a36001606555005b346103ae5760203660031901126103ae576004355f52610872602052602060405f2054604051908152f35b346103ae5760c03660031901126103ae5767ffffffffffffffff6004358181116103ae576125fd903690600401610afb565b6064359061260a826103f2565b6084358381116103ae57612622903690600401611198565b9060a4359485116103ae5761263e610018953690600401611198565b949093604435906024359061323c565b346103ae575f3660031901126103ae57602060405163ffffffff8152f35b346103ae575f3660031901126103ae57602060ff61086b5460e01c166040519015158152f35b346103ae575f3660031901126103ae5760206040516ec097ce7bc90715b34b9f10000000008152f35b346103ae5760203660031901126103ae5761070a6004356126db816103f2565b6126e3613343565b610eb2613455565b346103ae575f3660031901126103ae576020610c5a546001600160a01b0360405191831c168152f35b634e487b7160e01b5f52603260045260245ffd5b61086c908154811015612762576003915f52027f71cd7344f4eb2efc8e30291f6dbdb44d618ca368ea5425d217c1d604bf26b84d01905f90565b612714565b346103ae5760203660031901126103ae5760043561086c548110156103ae57612791604091612728565b506001815491015482519182526020820152f35b346103ae576127b3366124f7565b906127bc613343565b6127c4613455565b6001600160a01b0380911691825f52610c5c6020526127fc8160405f20906001600160a01b03166001600160a01b0319825416179055565b16907ff3dc137d2246f9b8abd0bb821e185ba01122c9b3ea3745ffca6208037674d6705f80a36001606555005b346103ae5760203660031901126103ae5761070a600435612849816103f2565b612851613343565b610eb7613455565b91612862613455565b608082019161287b61248284516001600160a01b031690565b602081019182514603612980576128a36128a79183600161289b89612728565b5001546137e0565b1590565b61296f578060607ff8bd640004bcec1b89657020f561d0b070cbdf662d0b158db9dccb0a8301bfab9201936128e96128e3865163ffffffff1690565b876138a0565b61296284519461294761293985519561292960408201998a516129108d5163ffffffff1690565b89516001600160a01b03169160a086019b8c519461390d565b5192519751985163ffffffff1690565b93516001600160a01b031690565b935163ffffffff9485604051968796169a16983393866129aa565b0390a461040e6001606555565b600460405163582f497d60e11b8152fd5b60046040517f7a47c9a2000000000000000000000000000000000000000000000000000000008152fd5b95949392919060a0870190875260209060a08289015282518091528160c089019301905f5b818110612a3c575050506001600160a01b03809316604088015286820360608801528080855193848152019401925f905b838210612a2357505050505090608061040e929401906001600160a01b03169052565b8451811686529482019493820193600190910190612a00565b8251855293830193918301916001016129cf565b3561067f8161044f565b3561067f816103f2565b9190610180838203126103ae57612a796105d1565b92612a8381610403565b8452612a9160208201610403565b6020850152612aa260408201610403565b6040850152612ab360608201610403565b6060850152612ac460808201610403565b608085015260a081013560a085015260c081013560c085015260e081013560e0850152610100612af581830161045d565b90850152610120612b0781830161045d565b90850152610140612b1981830161045d565b90850152610160918282013567ffffffffffffffff81116103ae57612b3e9201610664565b90830152565b903590601e19813603018212156103ae570180359067ffffffffffffffff82116103ae576020019181360383136103ae57565b80518210156127625760209160051b010190565b9082101561276257610f649160051b810190612b44565b908092918237015f815290565b3d15612bd9573d90612bc082610612565b91612bce604051938461058f565b82523d5f602084013e565b606090565b908060209392818452848401375f828201840152601f01601f1916010190565b91909160ff5f5460081c16156103ae57612c4890610c5a624c4b4063ffffffff1982541617905561086b9063ffffffff60c01b1963ffffffff60c01b83549260c01b169116179055565b604051612c54816104ea565b6009815260208101926820a1a927a9a996ab1960b91b8452640312e302e360dc1b6020604051612c83816104ea565b60058152015260ff5f5460081c16156103ae57612cd293610eb79251902061047f557f06c015bd22b4c69690933c1058878ebdfef31f9aaae40bbe86d8a09fe1b2972c61048055610eaa614292565b61040e610c5a77deaddeaddeaddeaddeaddeaddeaddeaddead0000000000007fffffffffffffffff0000000000000000000000000000000000000000ffffffff825416179055565b634e487b7160e01b5f52601160045260245ffd5b91909163ffffffff80809416911601918211612d4657565b612d1a565b96929a94999397909195989963ffffffff91612d6a8342169182612d2e565b91612d73613455565b61086b5460ff8160e81c166107115760c01c84169c612d918e612f8e565b612db89061086b9063ffffffff60c01b1963ffffffff60c01b83549260c01b169116179055565b8c612dd58b6001600160a01b03165f5261086d60205260405f2090565b5f918252602052604090205460ff1615611c4457612df38342613466565b857f00000000000000000000000000000000000000000000000000000000000000001610611c1a57848416428110908115612f59575b50611bbb578094811680612f22575b50506001600160a01b039a8b7f0000000000000000000000000000000000000000000000000000000000000000168c8b1681811480612f19575b15612eff5750813403611b0957803b156103ae575f60049160405192838092630d0e30db60e41b825234905af18015611b0457612eec575b505b6040519b8c9b169e612ebe9a8c61422a565b037fa123dc29aebf7d0c3322c8eeb5b999e859f39937950ed31056532713d0de396f91a461040e6001606555565b80611af8612ef99261050b565b5f612eaa565b905034611b095781612f14913090339061444d565b612eac565b50341515612e72565b6301e133801015612f45575b506001600160a01b03861615611b7b575f80612e38565b612f529194508290612d2e565b925f612f2e565b9050612f87867f0000000000000000000000000000000000000000000000000000000000000000164261421d565b105f612e29565b63ffffffff809116908114612d465760010190565b939291602091612fbb91604087526040870191612bde565b930152565b906020828203126103ae57813567ffffffffffffffff81116103ae5761067f9201612a64565b908160209103126103ae57604051906020820182811067ffffffffffffffff8211176105065760405235815290565b80516001600160a01b0316825261067f91610180906020838101516001600160a01b0316908201526040838101516001600160a01b0316908201526060838101516001600160a01b0316908201526080838101516001600160a01b03169082015260a083015160a082015260c083015160c082015260e083015160e08201526130ac610100808501519083019063ffffffff169052565b6101208381015163ffffffff16908201526101408381015163ffffffff16908201528161016080940151938201520190610f89565b929190612fbb602091604086526040860190613015565b90602061067f928181520190610f89565b634e487b7160e01b5f52602160045260245ffd5b6003111561312757565b613109565b969091939792959461067f9b9995610140996001600160a01b0398898098818098168d521660208c015260408b015260608a015263ffffffff80921660808a01521660a08801521660c08601521660e084015216610100820152816101208201520191612bde565b9061319e826107db565b6131ab604051918261058f565b82815280926131bc601f19916107db565b01905f5b8281106131cc57505050565b8060606020809385010152016131c0565b6020818303126103ae5780519067ffffffffffffffff82116103ae570181601f820112156103ae57805161321081610612565b9261321e604051948561058f565b818452602082840101116103ae5761067f9160208085019101610f68565b9490969395613249613455565b60ff61086b5460e01c16610c4e576132646101408701612a50565b63ffffffff8042169116101580613325575b610c06576132843687612a64565b61328d90613a05565b976132966105b1565b986132a13689612a64565b8a5260208a0152604089018490526001600160a01b03851660608a01526132c936848a61062e565b60808a015260a08901526132dc86612a5a565b966132ea6101008801612a50565b9236906132f69261062e565b9436906133029261062e565b9460e001359061331196614117565b3361331b91613b3e565b61040e6001606555565b5061333260408701612a5a565b6001600160a01b0316331415613276565b73420000000000000000000000000000000000000780330361342b576020600491604051928380927f6e296e450000000000000000000000000000000000000000000000000000000082525afa908115611b04575f916133fc575b506001600160a01b036133c96133bd610869546001600160a01b031690565b6001600160a01b031690565b9116036133d257565b60046040517f36a816d9000000000000000000000000000000000000000000000000000000008152fd5b61341e915060203d602011613424575b613416818361058f565b810190614429565b5f61339e565b503d61340c565b60046040517f4a74df92000000000000000000000000000000000000000000000000000000008152fd5b6002606554146103ae576002606555565b91908203918211612d4657565b6040513d5f823e3d90fd5b929361067f9695919294610140956001600160a01b0380951686525f60208701526040860152606085015263ffffffff809116608085015260a08401525f60c08401521660e08201525f610100820152816101208201520190610f89565b919596939492909261351e6128a36135178861350a8b6001600160a01b03165f5261086d60205260405f2090565b905f5260205260405f2090565b5460ff1690565b611c445760070b936706f05b59d3b200006135388661443e565b1015613707576ec097ce7bc90715b34b9f100000000082116136dd5763ffffffff93613566858a1642613466565b857f00000000000000000000000000000000000000000000000000000000000000001610611c1a5761086b5460c01c63ffffffff16986135cb6135a88b612f8e565b61086b9063ffffffff60c01b1963ffffffff60c01b83549260c01b169116179055565b6001600160a01b0395867f00000000000000000000000000000000000000000000000000000000000000001694878b16868114806136d4575b156136975750803403611b0957853b156103ae575f60049660405197888092630d0e30db60e41b825234905af18015611b04577fa123dc29aebf7d0c3322c8eeb5b999e859f39937950ed31056532713d0de396f9961367f9761366e92613684575b505b826144aa565b91604051988998169c169a8761347e565b0390a4565b80611af86136919261050b565b5f613666565b61367f96507fa123dc29aebf7d0c3322c8eeb5b999e859f39937950ed31056532713d0de396f996136cf8361366e933090339061444d565b613668565b50341515613604565b60046040517fc45b6b52000000000000000000000000000000000000000000000000000000008152fd5b60046040517fa13c425c000000000000000000000000000000000000000000000000000000008152fd5b6001600160a01b037f0000000000000000000000000000000000000000000000000000000000000000811691168114613768575b50565b476137705750565b4790803b156103ae575f90600460405180948193630d0e30db60e41b83525af18015611b0457156137655761040e9061050b565b9081518082526020808093019301915f5b8281106137c3575050505090565b83516001600160a01b0316855293810193928101926001016137b5565b6040805160208082018181528551838501528186015160608401529285015160c0608084015280516101008401819052610120840198979692918201915f5b82811061388c57505050508161387561067f979860a08461384f60606138839701518387019063ffffffff169052565b60808101516001600160a01b031660c08601520151838203603f190160e08501526137a4565b03601f19810183528261058f565b519020916144e0565b83518b52998101999281019260010161381f565b6138ab600291612728565b500162ffffff8260081c16805f5281602052600160ff60405f205494161b80809416146138e3575f5260205260405f20908154179055565b60046040517f954476d9000000000000000000000000000000000000000000000000000000008152fd5b92949391909380518251036139db578151915f5b83811061398d575050505082613938575b50505050565b6001600160a01b038161396c7f828fc203220356df8f072a91681caee7d5c75095e2a95e80ed5a14b384697f71938661458d565b6040805195865233602087015291169463ffffffff1693a45f808080613932565b8061399a60019284612b77565b51806139a8575b5001613921565b6139d5906139c66139b98488612b77565b516001600160a01b031690565b6001600160a01b038916614531565b5f6139a1565b60046040517fcd298b38000000000000000000000000000000000000000000000000000000008152fd5b604051613a1c8161387560208201944690866130e1565b51902090565b613a2b8261311d565b52565b906001600160a01b038251168152606080613a586020850151608060208601526080850190610f89565b9360408101516040850152015191613a6f8361311d565b015290565b9a97909695613af29661067f9d9b9660808e613ae198613b019e986101809d6001600160a01b03998a80921685521660208401526040830152606082015201528c60a063ffffffff8094169101521660c08c01521660e08a01526101008901906001600160a01b03169052565b6001600160a01b0316610120870152565b80610140860152840190610f89565b91610160818403910152613a2e565b9061067f94936080936001600160a01b03809316845260208401521660408201528160608201520190610f89565b805191610120830190613b55825163ffffffff1690565b63ffffffff42911610613e3c5760208301516001613b7c825f5261087260205260405f2090565b5403613e35576001905b6002613b9b825f5261087260205260405f2090565b5414613e0b57613bb4905f5261087260205260405f2090565b6002905560608501516001600160a01b031660808601516001600160a01b03169260a0870151918660c0890151948960a08301519660e082015197610100830151613c029063ffffffff1690565b9a5163ffffffff1661014084015163ffffffff16906040850151613c2c906001600160a01b031690565b928551613c3f906001600160a01b031690565b946020870151613c55906001600160a01b031690565b9661016001519760608a0151613c71906001600160a01b031690565b996080810151906040015190613c856105f2565b6001600160a01b03909c168c5260208c015260408b0152613ca99060608b01613a22565b6040519b6001600160a01b038d9c169f63ffffffff169e613cca9b8d613a74565b037f571749edf1d5c9599318cdbc4e28a6475d65e87fd3b2ddbe1e9a8d5e7a0f0ff791a460608101516001600160a01b031691829033821480613e03575b61393257608001516001600160a01b03169260806040840151936001600160a01b03861685856001600160a01b037f00000000000000000000000000000000000000000000000000000000000000001683145f14613df35750613d6e913090339061444d565b613d788584614930565b015191825115159081613de8575b50613d915750505050565b803b156103ae57613dbe935f809460405196879586948593633a5be8cb60e01b8552339160048601613b10565b03925af18015611b0457613dd5575b808080613932565b80611af8613de29261050b565b5f613dcd565b90503b15155f613d86565b613dfe92339061444d565b613d78565b506001613d08565b60046040517f8f260c60000000000000000000000000000000000000000000000000000000008152fd5b5f90613b86565b600460405163d642b7d960e01b8152fd5b905f82516101208101613e64815163ffffffff1690565b63ffffffff42911610613e3c5760208501516002613e8b825f5261087260205260405f2090565b5414613e0b57613ea4905f5261087260205260405f2090565b6002905560608201516001600160a01b031660808301516001600160a01b03169060a08401519260c0850151918860a0810151938760e081015195610100820151613ef29063ffffffff1690565b955163ffffffff1661014083015163ffffffff1660408401516001600160a01b0316918451613f27906001600160a01b031690565b936020860151613f3d906001600160a01b031690565b956101600151966060890151613f59906001600160a01b031690565b986080810151906040015190613f6d6105f2565b6001600160a01b03909b168b5260208b015260408a0152600260608a01526040519d63ffffffff8f9c169d613fa29b8d613a74565b037f571749edf1d5c9599318cdbc4e28a6475d65e87fd3b2ddbe1e9a8d5e7a0f0ff7905f94a460608401516001600160a01b0316906001600160a01b03948583169182331480614101575b6140f857608001516001600160a01b03169060408101519687818416917f00000000000000000000000000000000000000000000000000000000000000001682145f146140e1579060809291876140cd575b61404a915085614930565b0151928351151590816140c2575b50614066575b505050509050565b813b156140be5783614092959660405196879586948593633a5be8cb60e01b8552339160048601613b10565b03925af18015611b04576140ab575b808080849361405e565b80611af86140b89261050b565b5f6140a1565b8380fd5b90503b15155f614058565b6140da913090339061444d565b5f8861403f565b6080929196506140f390865f98614531565b61404a565b50505050509050565b505f613fed565b908160209103126103ae575190565b93926042936001600160a01b0361040e989760208151910120916040519363ffffffff60208601967f152eb71524aef34d838ab76573c14b1ebfa5e385d9ab29d7cf5398daa2438bd9885216604086015286606086015260808501521660a083015260c082015260c0815261418b81610557565b5190209061047f549061048054906040519160208301937fc2f8787176b8ac6bf7215b4adcc1e069bf4ab82d9ab1df05a57a91d425935b6e8552604084015260608301526080820152608081526141e181610573565b51902090604051917f19010000000000000000000000000000000000000000000000000000000000008352600283015260228201522090614b4d565b91908201809211612d4657565b6001600160a01b03918216815291811660208301526040820192909252606081019290925263ffffffff928316608083015292821660a0820152921660c083015291821660e08201529116610100820152610140610120820181905261067f93910191612bde565b60ff5f5460081c16156103ae57565b60ff5f5460081c16156103ae576001606555565b6001600160a01b031680156142fd57610869816001600160a01b03198254161790557fa9e8c42c9e7fca7f62755189a16b2f5314d43d8fb24e91ba54e6d65f9314e8495f80a2565b60046040517fba97b39d000000000000000000000000000000000000000000000000000000008152fd5b6001600160a01b0316801561436f5761086a816001600160a01b03198254161790557fa73e8909f8616742d7fe701153d82666f7b7cd480552e23ebb05d358c22fd04e5f80a2565b60046040517fb6061256000000000000000000000000000000000000000000000000000000008152fd5b916128a390614412928451604080960151918651916143b78361051f565b82526138836143d26020840192468452898501958652612728565b50549388519283916143f76020840196602088525160608d86015260a0850190613015565b9151606084015251608083015203601f19810183528261058f565b6144195750565b6004905163582f497d60e11b8152fd5b908160209103126103ae575161067f816103f2565b5f81126144485790565b5f0390565b909261040e93604051937f23b872dd0000000000000000000000000000000000000000000000000000000060208601526001600160a01b0380921660248601521660448401526064830152606482526144a582610573565b614c5c565b90670de0b6b3a7640000915f828403921283831281169084841390151617612d4657818102918183041490151715612d46570490565b929091905f915b8451831015614529576144fa8386612b77565b519081811015614518575f52602052600160405f205b9201916144e7565b905f52602052600160405f20614510565b915092501490565b6040517fa9059cbb0000000000000000000000000000000000000000000000000000000060208201526001600160a01b039092166024830152604482019290925261040e916144a582606481015b03601f19810184528361058f565b906001600160a01b0390818116907f0000000000000000000000000000000000000000000000000000000000000000831682036146be5750803b156103ae575f6040518092632e1a7d4d60e01b82528183816145f189600483019190602083019252565b03925af18015611b04576146ab575b50610c5a549161461961086a546001600160a01b031690565b73420000000000000000000000000000000000001090813b156103ae57604051631474f2a960e31b8152602086901c949094166001600160a01b0390811660048601521660248401526044830182905263ffffffff909316606483015260a060848301525f60a483018190529192839160c4918391905af18015611b045761469e5750565b80611af861040e9261050b565b80611af86146b89261050b565b5f614600565b91807f000000000000000000000000000000000000000000000000000000000000000016151580614905575b1561470e5750505061040e9061470961086a546001600160a01b031690565b614de2565b8061473b61472e856001600160a01b03165f52610c5c60205260405f2090565b546001600160a01b031690565b166148e1577342000000000000000000000000000000000000105b169061477a6133bd61472e856001600160a01b03165f52610c5d60205260405f2090565b1561485b57838261478a92614cec565b6147a961472e836001600160a01b03165f52610c5d60205260405f2090565b906147bd61086a546001600160a01b031690565b916147ce610c5a5463ffffffff1690565b823b156103ae576040517f540abf730000000000000000000000000000000000000000000000000000000081526001600160a01b0395861660048201529185166024830152929093166044840152606483019390935263ffffffff16608482015260c060a48201525f60c482018190529091829081838160e481015b03925af18015611b045761469e5750565b509161487061086a546001600160a01b031690565b92614881610c5a5463ffffffff1690565b93813b156103ae575f809461484a60405197889687958694631474f2a960e31b8652600486019260c0949163ffffffff936001600160a01b038092168652166020850152604084015216606082015260a060808201525f60a08201520190565b61490061472e846001600160a01b03165f52610c5c60205260405f2090565b614756565b50807f00000000000000000000000000000000000000000000000000000000000000001682146146ea565b6001600160a01b0390811690813b15614970579061040e92917f000000000000000000000000000000000000000000000000000000000000000016614531565b7f000000000000000000000000000000000000000000000000000000000000000016803b156103ae575f8091602460405180948193632e1a7d4d60e01b83528860048401525af18015611b04576149e2575b508147106103ae575f80809381935af16149da612baf565b50156103ae57565b6149eb9061050b565b5f6149c2565b6149fa81614b0a565b6001600160a01b0381167fbc7cd75a20ee27fd9adebab32041f755214dbc6bffa90cc0225b39da2e5c2d3b5f80a2815115801590614ab2575b614a3b575050565b5f80613765937f206661696c65640000000000000000000000000000000000000000000000000060408051614a6f8161051f565b602781527f416464726573733a206c6f772d6c6576656c2064656c65676174652063616c6c60208201520152602081519101845af4614aac612baf565b91615051565b505f614a33565b614ac281614b0a565b6001600160a01b0381167fbc7cd75a20ee27fd9adebab32041f755214dbc6bffa90cc0225b39da2e5c2d3b5f80a2815115801590614b0257614a3b575050565b506001614a33565b803b156103ae576001600160a01b037f360894a13ba1a3210667c828492db98dca3e2076cc3735a920a3ca505d382bbc91166001600160a01b0319825416179055565b614b578383615020565b600581959295101561312757159384614c46575b508315614ba7575b50505015614b7d57565b60046040517f938a1821000000000000000000000000000000000000000000000000000000008152fd5b5f929350908291604051614bf88161387560208201947f1626ba7e00000000000000000000000000000000000000000000000000000000998a87526024840152604060448401526064830190610f89565b51915afa90614c05612baf565b82614c38575b82614c1b575b50505f8080614b73565b614c3091925060208082518301019101614108565b145f80614c11565b915060208251101591614c0b565b6001600160a01b0383811691161493505f614b6b565b905f806001600160a01b03614cb39416927f5361666545524332303a206c6f772d6c6576656c2063616c6c206661696c65646020604051614c9c816104ea565b818152015260208151910182855af1614aac612baf565b8051908115918215614cc9575b5050156103ae57565b81925090602091810103126103ae5760200151614ce5816109fe565b5f80614cc0565b6044919260206001600160a01b03604051948580927fdd62ed3e000000000000000000000000000000000000000000000000000000008252306004830152808916602483015286165afa928315611b04575f93614da1575b508201809211612d46576040517f095ea7b30000000000000000000000000000000000000000000000000000000060208201526001600160a01b039093166024840152604483019190915261040e91906144a5826064810161457f565b614dbb91935060203d602011610d8a57610d7b818361058f565b915f614d44565b908160209103126103ae575167ffffffffffffffff811681036103ae5790565b7f0000000000000000000000000000000000000000000000000000000000000000906001600160a01b0392837f00000000000000000000000000000000000000000000000000000000000000001691614e3c828486614cec565b604092604051937fcb75c11c0000000000000000000000000000000000000000000000000000000085526020936004908587600481875afa978815611b045789975f99614ff9575b506040517fa56ec6320000000000000000000000000000000000000000000000000000000081526001600160a01b03918916918216600482015299909887918b9190829081602481015b0392165afa988915611b04575f99614fda575b509390951696947f000000000000000000000000000000000000000000000000000000000000000093805b614f1b57505050505050505050565b614f859087811115614fd45787905b84517f6fd3504e00000000000000000000000000000000000000000000000000000000815284810183815263ffffffff89166020820152604081018d90526001600160a01b038c166060820152909389918591829160800190565b03815f8a5af1928315611b0457614fa193614fa7575b50613466565b80614f0c565b614fc690893d8b11614fcd575b614fbe818361058f565b810190614dc2565b505f614f9b565b503d614fb4565b80614f2a565b614ff2919950863d8811610d8a57610d7b818361058f565b975f614ee1565b8791995088615017614ece92843d861161342457613416818361058f565b9a925050614e84565b9060418151145f1461504857610f6491602082015190606060408401519301515f1a9061507a565b50505f90600290565b901561506b57815115615062575090565b3b156103ae5790565b5080519081156103ae57602001fd5b7f7fffffffffffffffffffffffffffffff5d576e7357a4501ddfe92f46681b20a084116150ea576020935f9360ff60809460405194855216868401526040830152606082015282805260015afa15611b04575f516001600160a01b038116156150e257905f90565b505f90600190565b505050505f9060039056fea2646970667358221220d0abd4282517474737a85d99d957366f4e02453a132bbd5b48624c3d9cce6bb564736f6c63430008170033"
}