{
  "address": "0xEf4998E4cda2232c5f1824Eac8C5060F28BfAEeC",
  "abi": [
    {
      "inputs": [
        {
          "internalType": "address",
          "name": "_wrappedNativeTokenAddress",
          "type": "address"
        },
        {
          "internalType": "uint32",
          "name": "_depositQuoteTimeBuffer",
          "type": "uint32"
        },
        {
          "internalType": "uint32",
          "name": "_fillDeadlineBuffer",
          "type": "uint32"
        },
        {
          "internalType": "contract IERC20",
          "name": "_l2Usdc",
          "type": "address"
        },
        {
          "internalType": "contract ITokenMessenger",
          "name": "_cctpTokenMessenger",
          "type": "address"
        }
      ],
      "stateMutability": "nonpayable",
      "type": "constructor"
    },
    {
      "inputs": [],
      "name": "ClaimedMerkleLeaf",
      "type": "error"
    },
    {
      "inputs": [],
      "name": "DepositsArePaused",
      "type": "error"
    },
    {
      "inputs": [],
      "name": "DisabledRoute",
      "type": "error"
    },
    {
      "inputs": [],
      "name": "ExpiredFillDeadline",
      "type": "error"
    },
    {
      "inputs": [],
      "name": "FillsArePaused",
      "type": "error"
    },
    {
      "inputs": [],
      "name": "InsufficientSpokePoolBalanceToExecuteLeaf",
      "type": "error"
    },
    {
      "inputs": [],
      "name": "InvalidBytes32",
      "type": "error"
    },
    {
      "inputs": [],
      "name": "InvalidChainId",
      "type": "error"
    },
    {
      "inputs": [],
      "name": "InvalidCrossDomainAdmin",
      "type": "error"
    },
    {
      "inputs": [],
      "name": "InvalidDepositorSignature",
      "type": "error"
    },
    {
      "inputs": [],
      "name": "InvalidExclusiveRelayer",
      "type": "error"
    },
    {
      "inputs": [],
      "name": "InvalidFillDeadline",
      "type": "error"
    },
    {
      "inputs": [],
      "name": "InvalidMerkleLeaf",
      "type": "error"
    },
    {
      "inputs": [],
      "name": "InvalidMerkleProof",
      "type": "error"
    },
    {
      "inputs": [],
      "name": "InvalidPayoutAdjustmentPct",
      "type": "error"
    },
    {
      "inputs": [],
      "name": "InvalidQuoteTimestamp",
      "type": "error"
    },
    {
      "inputs": [],
      "name": "InvalidRelayerFeePct",
      "type": "error"
    },
    {
      "inputs": [],
      "name": "InvalidSlowFillRequest",
      "type": "error"
    },
    {
      "inputs": [],
      "name": "InvalidWithdrawalRecipient",
      "type": "error"
    },
    {
      "inputs": [
        {
          "internalType": "bytes",
          "name": "data",
          "type": "bytes"
        }
      ],
      "name": "LowLevelCallFailed",
      "type": "error"
    },
    {
      "inputs": [],
      "name": "MaxTransferSizeExceeded",
      "type": "error"
    },
    {
      "inputs": [],
      "name": "MsgValueDoesNotMatchInputAmount",
      "type": "error"
    },
    {
      "inputs": [],
      "name": "NoRelayerRefundToClaim",
      "type": "error"
    },
    {
      "inputs": [],
      "name": "NoSlowFillsInExclusivityWindow",
      "type": "error"
    },
    {
      "inputs": [],
      "name": "NotEOA",
      "type": "error"
    },
    {
      "inputs": [],
      "name": "NotExclusiveRelayer",
      "type": "error"
    },
    {
      "inputs": [],
      "name": "RelayFilled",
      "type": "error"
    },
    {
      "inputs": [],
      "name": "WrongERC7683OrderId",
      "type": "error"
    },
    {
      "anonymous": false,
      "inputs": [
        {
          "indexed": false,
          "internalType": "address",
          "name": "previousAdmin",
          "type": "address"
        },
        {
          "indexed": false,
          "internalType": "address",
          "name": "newAdmin",
          "type": "address"
        }
      ],
      "name": "AdminChanged",
      "type": "event"
    },
    {
      "anonymous": false,
      "inputs": [
        {
          "indexed": true,
          "internalType": "address",
          "name": "beacon",
          "type": "address"
        }
      ],
      "name": "BeaconUpgraded",
      "type": "event"
    },
    {
      "anonymous": false,
      "inputs": [
        {
          "indexed": true,
          "internalType": "bytes32",
          "name": "l2TokenAddress",
          "type": "bytes32"
        },
        {
          "indexed": true,
          "internalType": "bytes32",
          "name": "refundAddress",
          "type": "bytes32"
        },
        {
          "indexed": false,
          "internalType": "uint256",
          "name": "amount",
          "type": "uint256"
        },
        {
          "indexed": true,
          "internalType": "address",
          "name": "caller",
          "type": "address"
        }
      ],
      "name": "ClaimedRelayerRefund",
      "type": "event"
    },
    {
      "anonymous": false,
      "inputs": [
        {
          "indexed": true,
          "internalType": "uint256",
          "name": "rootBundleId",
          "type": "uint256"
        }
      ],
      "name": "EmergencyDeletedRootBundle",
      "type": "event"
    },
    {
      "anonymous": false,
      "inputs": [
        {
          "indexed": true,
          "internalType": "address",
          "name": "originToken",
          "type": "address"
        },
        {
          "indexed": true,
          "internalType": "uint256",
          "name": "destinationChainId",
          "type": "uint256"
        },
        {
          "indexed": false,
          "internalType": "bool",
          "name": "enabled",
          "type": "bool"
        }
      ],
      "name": "EnabledDepositRoute",
      "type": "event"
    },
    {
      "anonymous": false,
      "inputs": [
        {
          "indexed": false,
          "internalType": "uint256",
          "name": "amountToReturn",
          "type": "uint256"
        },
        {
          "indexed": true,
          "internalType": "uint256",
          "name": "chainId",
          "type": "uint256"
        },
        {
          "indexed": false,
          "internalType": "uint256[]",
          "name": "refundAmounts",
          "type": "uint256[]"
        },
        {
          "indexed": true,
          "internalType": "uint32",
          "name": "rootBundleId",
          "type": "uint32"
        },
        {
          "indexed": true,
          "internalType": "uint32",
          "name": "leafId",
          "type": "uint32"
        },
        {
          "indexed": false,
          "internalType": "address",
          "name": "l2TokenAddress",
          "type": "address"
        },
        {
          "indexed": false,
          "internalType": "address[]",
          "name": "refundAddresses",
          "type": "address[]"
        },
        {
          "indexed": false,
          "internalType": "bool",
          "name": "deferredRefunds",
          "type": "bool"
        },
        {
          "indexed": false,
          "internalType": "address",
          "name": "caller",
          "type": "address"
        }
      ],
      "name": "ExecutedRelayerRefundRoot",
      "type": "event"
    },
    {
      "anonymous": false,
      "inputs": [
        {
          "indexed": false,
          "internalType": "bytes32",
          "name": "inputToken",
          "type": "bytes32"
        },
        {
          "indexed": false,
          "internalType": "bytes32",
          "name": "outputToken",
          "type": "bytes32"
        },
        {
          "indexed": false,
          "internalType": "uint256",
          "name": "inputAmount",
          "type": "uint256"
        },
        {
          "indexed": false,
          "internalType": "uint256",
          "name": "outputAmount",
          "type": "uint256"
        },
        {
          "indexed": false,
          "internalType": "uint256",
          "name": "repaymentChainId",
          "type": "uint256"
        },
        {
          "indexed": true,
          "internalType": "uint256",
          "name": "originChainId",
          "type": "uint256"
        },
        {
          "indexed": true,
          "internalType": "uint256",
          "name": "depositId",
          "type": "uint256"
        },
        {
          "indexed": false,
          "internalType": "uint32",
          "name": "fillDeadline",
          "type": "uint32"
        },
        {
          "indexed": false,
          "internalType": "uint32",
          "name": "exclusivityDeadline",
          "type": "uint32"
        },
        {
          "indexed": false,
          "internalType": "bytes32",
          "name": "exclusiveRelayer",
          "type": "bytes32"
        },
        {
          "indexed": true,
          "internalType": "bytes32",
          "name": "relayer",
          "type": "bytes32"
        },
        {
          "indexed": false,
          "internalType": "bytes32",
          "name": "depositor",
          "type": "bytes32"
        },
        {
          "indexed": false,
          "internalType": "bytes32",
          "name": "recipient",
          "type": "bytes32"
        },
        {
          "indexed": false,
          "internalType": "bytes32",
          "name": "messageHash",
          "type": "bytes32"
        },
        {
          "components": [
            {
              "internalType": "bytes32",
              "name": "updatedRecipient",
              "type": "bytes32"
            },
            {
              "internalType": "bytes32",
              "name": "updatedMessageHash",
              "type": "bytes32"
            },
            {
              "internalType": "uint256",
              "name": "updatedOutputAmount",
              "type": "uint256"
            },
            {
              "internalType": "enum V3SpokePoolInterface.FillType",
              "name": "fillType",
              "type": "uint8"
            }
          ],
          "indexed": false,
          "internalType": "struct V3SpokePoolInterface.V3RelayExecutionEventInfo",
          "name": "relayExecutionInfo",
          "type": "tuple"
        }
      ],
      "name": "FilledRelay",
      "type": "event"
    },
    {
      "anonymous": false,
      "inputs": [
        {
          "indexed": false,
          "internalType": "address",
          "name": "inputToken",
          "type": "address"
        },
        {
          "indexed": false,
          "internalType": "address",
          "name": "outputToken",
          "type": "address"
        },
        {
          "indexed": false,
          "internalType": "uint256",
          "name": "inputAmount",
          "type": "uint256"
        },
        {
          "indexed": false,
          "internalType": "uint256",
          "name": "outputAmount",
          "type": "uint256"
        },
        {
          "indexed": false,
          "internalType": "uint256",
          "name": "repaymentChainId",
          "type": "uint256"
        },
        {
          "indexed": true,
          "internalType": "uint256",
          "name": "originChainId",
          "type": "uint256"
        },
        {
          "indexed": true,
          "internalType": "uint32",
          "name": "depositId",
          "type": "uint32"
        },
        {
          "indexed": false,
          "internalType": "uint32",
          "name": "fillDeadline",
          "type": "uint32"
        },
        {
          "indexed": false,
          "internalType": "uint32",
          "name": "exclusivityDeadline",
          "type": "uint32"
        },
        {
          "indexed": false,
          "internalType": "address",
          "name": "exclusiveRelayer",
          "type": "address"
        },
        {
          "indexed": true,
          "internalType": "address",
          "name": "relayer",
          "type": "address"
        },
        {
          "indexed": false,
          "internalType": "address",
          "name": "depositor",
          "type": "address"
        },
        {
          "indexed": false,
          "internalType": "address",
          "name": "recipient",
          "type": "address"
        },
        {
          "indexed": false,
          "internalType": "bytes",
          "name": "message",
          "type": "bytes"
        },
        {
          "components": [
            {
              "internalType": "address",
              "name": "updatedRecipient",
              "type": "address"
            },
            {
              "internalType": "bytes",
              "name": "updatedMessage",
              "type": "bytes"
            },
            {
              "internalType": "uint256",
              "name": "updatedOutputAmount",
              "type": "uint256"
            },
            {
              "internalType": "enum V3SpokePoolInterface.FillType",
              "name": "fillType",
              "type": "uint8"
            }
          ],
          "indexed": false,
          "internalType": "struct V3SpokePoolInterface.LegacyV3RelayExecutionEventInfo",
          "name": "relayExecutionInfo",
          "type": "tuple"
        }
      ],
      "name": "FilledV3Relay",
      "type": "event"
    },
    {
      "anonymous": false,
      "inputs": [
        {
          "indexed": false,
          "internalType": "bytes32",
          "name": "inputToken",
          "type": "bytes32"
        },
        {
          "indexed": false,
          "internalType": "bytes32",
          "name": "outputToken",
          "type": "bytes32"
        },
        {
          "indexed": false,
          "internalType": "uint256",
          "name": "inputAmount",
          "type": "uint256"
        },
        {
          "indexed": false,
          "internalType": "uint256",
          "name": "outputAmount",
          "type": "uint256"
        },
        {
          "indexed": true,
          "internalType": "uint256",
          "name": "destinationChainId",
          "type": "uint256"
        },
        {
          "indexed": true,
          "internalType": "uint256",
          "name": "depositId",
          "type": "uint256"
        },
        {
          "indexed": false,
          "internalType": "uint32",
          "name": "quoteTimestamp",
          "type": "uint32"
        },
        {
          "indexed": false,
          "internalType": "uint32",
          "name": "fillDeadline",
          "type": "uint32"
        },
        {
          "indexed": false,
          "internalType": "uint32",
          "name": "exclusivityDeadline",
          "type": "uint32"
        },
        {
          "indexed": true,
          "internalType": "bytes32",
          "name": "depositor",
          "type": "bytes32"
        },
        {
          "indexed": false,
          "internalType": "bytes32",
          "name": "recipient",
          "type": "bytes32"
        },
        {
          "indexed": false,
          "internalType": "bytes32",
          "name": "exclusiveRelayer",
          "type": "bytes32"
        },
        {
          "indexed": false,
          "internalType": "bytes",
          "name": "message",
          "type": "bytes"
        }
      ],
      "name": "FundsDeposited",
      "type": "event"
    },
    {
      "anonymous": false,
      "inputs": [
        {
          "indexed": false,
          "internalType": "uint8",
          "name": "version",
          "type": "uint8"
        }
      ],
      "name": "Initialized",
      "type": "event"
    },
    {
      "anonymous": false,
      "inputs": [
        {
          "indexed": false,
          "internalType": "bool",
          "name": "isPaused",
          "type": "bool"
        }
      ],
      "name": "PausedDeposits",
      "type": "event"
    },
    {
      "anonymous": false,
      "inputs": [
        {
          "indexed": false,
          "internalType": "bool",
          "name": "isPaused",
          "type": "bool"
        }
      ],
      "name": "PausedFills",
      "type": "event"
    },
    {
      "anonymous": false,
      "inputs": [
        {
          "indexed": true,
          "internalType": "uint32",
          "name": "rootBundleId",
          "type": "uint32"
        },
        {
          "indexed": true,
          "internalType": "bytes32",
          "name": "relayerRefundRoot",
          "type": "bytes32"
        },
        {
          "indexed": true,
          "internalType": "bytes32",
          "name": "slowRelayRoot",
          "type": "bytes32"
        }
      ],
      "name": "RelayedRootBundle",
      "type": "event"
    },
    {
      "anonymous": false,
      "inputs": [
        {
          "indexed": false,
          "internalType": "bytes32",
          "name": "inputToken",
          "type": "bytes32"
        },
        {
          "indexed": false,
          "internalType": "bytes32",
          "name": "outputToken",
          "type": "bytes32"
        },
        {
          "indexed": false,
          "internalType": "uint256",
          "name": "inputAmount",
          "type": "uint256"
        },
        {
          "indexed": false,
          "internalType": "uint256",
          "name": "outputAmount",
          "type": "uint256"
        },
        {
          "indexed": true,
          "internalType": "uint256",
          "name": "originChainId",
          "type": "uint256"
        },
        {
          "indexed": true,
          "internalType": "uint256",
          "name": "depositId",
          "type": "uint256"
        },
        {
          "indexed": false,
          "internalType": "uint32",
          "name": "fillDeadline",
          "type": "uint32"
        },
        {
          "indexed": false,
          "internalType": "uint32",
          "name": "exclusivityDeadline",
          "type": "uint32"
        },
        {
          "indexed": false,
          "internalType": "bytes32",
          "name": "exclusiveRelayer",
          "type": "bytes32"
        },
        {
          "indexed": false,
          "internalType": "bytes32",
          "name": "depositor",
          "type": "bytes32"
        },
        {
          "indexed": false,
          "internalType": "bytes32",
          "name": "recipient",
          "type": "bytes32"
        },
        {
          "indexed": false,
          "internalType": "bytes32",
          "name": "messageHash",
          "type": "bytes32"
        }
      ],
      "name": "RequestedSlowFill",
      "type": "event"
    },
    {
      "anonymous": false,
      "inputs": [
        {
          "indexed": false,
          "internalType": "uint256",
          "name": "updatedOutputAmount",
          "type": "uint256"
        },
        {
          "indexed": true,
          "internalType": "uint256",
          "name": "depositId",
          "type": "uint256"
        },
        {
          "indexed": true,
          "internalType": "bytes32",
          "name": "depositor",
          "type": "bytes32"
        },
        {
          "indexed": false,
          "internalType": "bytes32",
          "name": "updatedRecipient",
          "type": "bytes32"
        },
        {
          "indexed": false,
          "internalType": "bytes",
          "name": "updatedMessage",
          "type": "bytes"
        },
        {
          "indexed": false,
          "internalType": "bytes",
          "name": "depositorSignature",
          "type": "bytes"
        }
      ],
      "name": "RequestedSpeedUpDeposit",
      "type": "event"
    },
    {
      "anonymous": false,
      "inputs": [
        {
          "indexed": false,
          "internalType": "uint256",
          "name": "updatedOutputAmount",
          "type": "uint256"
        },
        {
          "indexed": true,
          "internalType": "uint32",
          "name": "depositId",
          "type": "uint32"
        },
        {
          "indexed": true,
          "internalType": "address",
          "name": "depositor",
          "type": "address"
        },
        {
          "indexed": false,
          "internalType": "address",
          "name": "updatedRecipient",
          "type": "address"
        },
        {
          "indexed": false,
          "internalType": "bytes",
          "name": "updatedMessage",
          "type": "bytes"
        },
        {
          "indexed": false,
          "internalType": "bytes",
          "name": "depositorSignature",
          "type": "bytes"
        }
      ],
      "name": "RequestedSpeedUpV3Deposit",
      "type": "event"
    },
    {
      "anonymous": false,
      "inputs": [
        {
          "indexed": false,
          "internalType": "address",
          "name": "inputToken",
          "type": "address"
        },
        {
          "indexed": false,
          "internalType": "address",
          "name": "outputToken",
          "type": "address"
        },
        {
          "indexed": false,
          "internalType": "uint256",
          "name": "inputAmount",
          "type": "uint256"
        },
        {
          "indexed": false,
          "internalType": "uint256",
          "name": "outputAmount",
          "type": "uint256"
        },
        {
          "indexed": true,
          "internalType": "uint256",
          "name": "originChainId",
          "type": "uint256"
        },
        {
          "indexed": true,
          "internalType": "uint32",
          "name": "depositId",
          "type": "uint32"
        },
        {
          "indexed": false,
          "internalType": "uint32",
          "name": "fillDeadline",
          "type": "uint32"
        },
        {
          "indexed": false,
          "internalType": "uint32",
          "name": "exclusivityDeadline",
          "type": "uint32"
        },
        {
          "indexed": false,
          "internalType": "address",
          "name": "exclusiveRelayer",
          "type": "address"
        },
        {
          "indexed": false,
          "internalType": "address",
          "name": "depositor",
          "type": "address"
        },
        {
          "indexed": false,
          "internalType": "address",
          "name": "recipient",
          "type": "address"
        },
        {
          "indexed": false,
          "internalType": "bytes",
          "name": "message",
          "type": "bytes"
        }
      ],
      "name": "RequestedV3SlowFill",
      "type": "event"
    },
    {
      "anonymous": false,
      "inputs": [
        {
          "indexed": true,
          "internalType": "address",
          "name": "newMessageService",
          "type": "address"
        },
        {
          "indexed": false,
          "internalType": "address",
          "name": "oldMessageService",
          "type": "address"
        }
      ],
      "name": "SetL2MessageService",
      "type": "event"
    },
    {
      "anonymous": false,
      "inputs": [
        {
          "indexed": true,
          "internalType": "address",
          "name": "newTokenBridge",
          "type": "address"
        },
        {
          "indexed": false,
          "internalType": "address",
          "name": "oldTokenBridge",
          "type": "address"
        }
      ],
      "name": "SetL2TokenBridge",
      "type": "event"
    },
    {
      "anonymous": false,
      "inputs": [
        {
          "indexed": true,
          "internalType": "address",
          "name": "newWithdrawalRecipient",
          "type": "address"
        }
      ],
      "name": "SetWithdrawalRecipient",
      "type": "event"
    },
    {
      "anonymous": false,
      "inputs": [
        {
          "indexed": true,
          "internalType": "address",
          "name": "newAdmin",
          "type": "address"
        }
      ],
      "name": "SetXDomainAdmin",
      "type": "event"
    },
    {
      "anonymous": false,
      "inputs": [
        {
          "indexed": false,
          "internalType": "uint256",
          "name": "amountToReturn",
          "type": "uint256"
        },
        {
          "indexed": true,
          "internalType": "uint256",
          "name": "chainId",
          "type": "uint256"
        },
        {
          "indexed": true,
          "internalType": "uint32",
          "name": "leafId",
          "type": "uint32"
        },
        {
          "indexed": true,
          "internalType": "bytes32",
          "name": "l2TokenAddress",
          "type": "bytes32"
        },
        {
          "indexed": false,
          "internalType": "address",
          "name": "caller",
          "type": "address"
        }
      ],
      "name": "TokensBridged",
      "type": "event"
    },
    {
      "anonymous": false,
      "inputs": [
        {
          "indexed": true,
          "internalType": "address",
          "name": "implementation",
          "type": "address"
        }
      ],
      "name": "Upgraded",
      "type": "event"
    },
    {
      "anonymous": false,
      "inputs": [
        {
          "indexed": false,
          "internalType": "address",
          "name": "inputToken",
          "type": "address"
        },
        {
          "indexed": false,
          "internalType": "address",
          "name": "outputToken",
          "type": "address"
        },
        {
          "indexed": false,
          "internalType": "uint256",
          "name": "inputAmount",
          "type": "uint256"
        },
        {
          "indexed": false,
          "internalType": "uint256",
          "name": "outputAmount",
          "type": "uint256"
        },
        {
          "indexed": true,
          "internalType": "uint256",
          "name": "destinationChainId",
          "type": "uint256"
        },
        {
          "indexed": true,
          "internalType": "uint32",
          "name": "depositId",
          "type": "uint32"
        },
        {
          "indexed": false,
          "internalType": "uint32",
          "name": "quoteTimestamp",
          "type": "uint32"
        },
        {
          "indexed": false,
          "internalType": "uint32",
          "name": "fillDeadline",
          "type": "uint32"
        },
        {
          "indexed": false,
          "internalType": "uint32",
          "name": "exclusivityDeadline",
          "type": "uint32"
        },
        {
          "indexed": true,
          "internalType": "address",
          "name": "depositor",
          "type": "address"
        },
        {
          "indexed": false,
          "internalType": "address",
          "name": "recipient",
          "type": "address"
        },
        {
          "indexed": false,
          "internalType": "address",
          "name": "exclusiveRelayer",
          "type": "address"
        },
        {
          "indexed": false,
          "internalType": "bytes",
          "name": "message",
          "type": "bytes"
        }
      ],
      "name": "V3FundsDeposited",
      "type": "event"
    },
    {
      "inputs": [],
      "name": "EMPTY_RELAYER",
      "outputs": [
        {
          "internalType": "bytes32",
          "name": "",
          "type": "bytes32"
        }
      ],
      "stateMutability": "view",
      "type": "function"
    },
    {
      "inputs": [],
      "name": "EMPTY_REPAYMENT_CHAIN_ID",
      "outputs": [
        {
          "internalType": "uint256",
          "name": "",
          "type": "uint256"
        }
      ],
      "stateMutability": "view",
      "type": "function"
    },
    {
      "inputs": [],
      "name": "INFINITE_FILL_DEADLINE",
      "outputs": [
        {
          "internalType": "uint32",
          "name": "",
          "type": "uint32"
        }
      ],
      "stateMutability": "view",
      "type": "function"
    },
    {
      "inputs": [],
      "name": "MAX_EXCLUSIVITY_PERIOD_SECONDS",
      "outputs": [
        {
          "internalType": "uint32",
          "name": "",
          "type": "uint32"
        }
      ],
      "stateMutability": "view",
      "type": "function"
    },
    {
      "inputs": [],
      "name": "MAX_TRANSFER_SIZE",
      "outputs": [
        {
          "internalType": "uint256",
          "name": "",
          "type": "uint256"
        }
      ],
      "stateMutability": "view",
      "type": "function"
    },
    {
      "inputs": [],
      "name": "UPDATE_BYTES32_DEPOSIT_DETAILS_HASH",
      "outputs": [
        {
          "internalType": "bytes32",
          "name": "",
          "type": "bytes32"
        }
      ],
      "stateMutability": "view",
      "type": "function"
    },
    {
      "inputs": [
        {
          "internalType": "uint32",
          "name": "_initialDepositId",
          "type": "uint32"
        },
        {
          "internalType": "address",
          "name": "_crossDomainAdmin",
          "type": "address"
        },
        {
          "internalType": "address",
          "name": "_withdrawalRecipient",
          "type": "address"
        }
      ],
      "name": "__SpokePool_init",
      "outputs": [],
      "stateMutability": "nonpayable",
      "type": "function"
    },
    {
      "inputs": [],
      "name": "cctpTokenMessenger",
      "outputs": [
        {
          "internalType": "contract ITokenMessenger",
          "name": "",
          "type": "address"
        }
      ],
      "stateMutability": "view",
      "type": "function"
    },
    {
      "inputs": [],
      "name": "cctpV2",
      "outputs": [
        {
          "internalType": "bool",
          "name": "",
          "type": "bool"
        }
      ],
      "stateMutability": "view",
      "type": "function"
    },
    {
      "inputs": [],
      "name": "chainId",
      "outputs": [
        {
          "internalType": "uint256",
          "name": "",
          "type": "uint256"
        }
      ],
      "stateMutability": "view",
      "type": "function"
    },
    {
      "inputs": [
        {
          "internalType": "bytes32",
          "name": "l2TokenAddress",
          "type": "bytes32"
        },
        {
          "internalType": "bytes32",
          "name": "refundAddress",
          "type": "bytes32"
        }
      ],
      "name": "claimRelayerRefund",
      "outputs": [],
      "stateMutability": "nonpayable",
      "type": "function"
    },
    {
      "inputs": [],
      "name": "crossDomainAdmin",
      "outputs": [
        {
          "internalType": "address",
          "name": "",
          "type": "address"
        }
      ],
      "stateMutability": "view",
      "type": "function"
    },
    {
      "inputs": [
        {
          "internalType": "bytes32",
          "name": "depositor",
          "type": "bytes32"
        },
        {
          "internalType": "bytes32",
          "name": "recipient",
          "type": "bytes32"
        },
        {
          "internalType": "bytes32",
          "name": "inputToken",
          "type": "bytes32"
        },
        {
          "internalType": "bytes32",
          "name": "outputToken",
          "type": "bytes32"
        },
        {
          "internalType": "uint256",
          "name": "inputAmount",
          "type": "uint256"
        },
        {
          "internalType": "uint256",
          "name": "outputAmount",
          "type": "uint256"
        },
        {
          "internalType": "uint256",
          "name": "destinationChainId",
          "type": "uint256"
        },
        {
          "internalType": "bytes32",
          "name": "exclusiveRelayer",
          "type": "bytes32"
        },
        {
          "internalType": "uint32",
          "name": "quoteTimestamp",
          "type": "uint32"
        },
        {
          "internalType": "uint32",
          "name": "fillDeadline",
          "type": "uint32"
        },
        {
          "internalType": "uint32",
          "name": "exclusivityParameter",
          "type": "uint32"
        },
        {
          "internalType": "bytes",
          "name": "message",
          "type": "bytes"
        }
      ],
      "name": "deposit",
      "outputs": [],
      "stateMutability": "payable",
      "type": "function"
    },
    {
      "inputs": [
        {
          "internalType": "address",
          "name": "recipient",
          "type": "address"
        },
        {
          "internalType": "address",
          "name": "originToken",
          "type": "address"
        },
        {
          "internalType": "uint256",
          "name": "amount",
          "type": "uint256"
        },
        {
          "internalType": "uint256",
          "name": "destinationChainId",
          "type": "uint256"
        },
        {
          "internalType": "int64",
          "name": "relayerFeePct",
          "type": "int64"
        },
        {
          "internalType": "uint32",
          "name": "quoteTimestamp",
          "type": "uint32"
        },
        {
          "internalType": "bytes",
          "name": "message",
          "type": "bytes"
        },
        {
          "internalType": "uint256",
          "name": "",
          "type": "uint256"
        }
      ],
      "name": "depositDeprecated_5947912356",
      "outputs": [],
      "stateMutability": "payable",
      "type": "function"
    },
    {
      "inputs": [
        {
          "internalType": "address",
          "name": "depositor",
          "type": "address"
        },
        {
          "internalType": "address",
          "name": "recipient",
          "type": "address"
        },
        {
          "internalType": "address",
          "name": "originToken",
          "type": "address"
        },
        {
          "internalType": "uint256",
          "name": "amount",
          "type": "uint256"
        },
        {
          "internalType": "uint256",
          "name": "destinationChainId",
          "type": "uint256"
        },
        {
          "internalType": "int64",
          "name": "relayerFeePct",
          "type": "int64"
        },
        {
          "internalType": "uint32",
          "name": "quoteTimestamp",
          "type": "uint32"
        },
        {
          "internalType": "bytes",
          "name": "message",
          "type": "bytes"
        },
        {
          "internalType": "uint256",
          "name": "",
          "type": "uint256"
        }
      ],
      "name": "depositFor",
      "outputs": [],
      "stateMutability": "payable",
      "type": "function"
    },
    {
      "inputs": [
        {
          "internalType": "bytes32",
          "name": "depositor",
          "type": "bytes32"
        },
        {
          "internalType": "bytes32",
          "name": "recipient",
          "type": "bytes32"
        },
        {
          "internalType": "bytes32",
          "name": "inputToken",
          "type": "bytes32"
        },
        {
          "internalType": "bytes32",
          "name": "outputToken",
          "type": "bytes32"
        },
        {
          "internalType": "uint256",
          "name": "inputAmount",
          "type": "uint256"
        },
        {
          "internalType": "uint256",
          "name": "outputAmount",
          "type": "uint256"
        },
        {
          "internalType": "uint256",
          "name": "destinationChainId",
          "type": "uint256"
        },
        {
          "internalType": "bytes32",
          "name": "exclusiveRelayer",
          "type": "bytes32"
        },
        {
          "internalType": "uint32",
          "name": "fillDeadlineOffset",
          "type": "uint32"
        },
        {
          "internalType": "uint32",
          "name": "exclusivityParameter",
          "type": "uint32"
        },
        {
          "internalType": "bytes",
          "name": "message",
          "type": "bytes"
        }
      ],
      "name": "depositNow",
      "outputs": [],
      "stateMutability": "payable",
      "type": "function"
    },
    {
      "inputs": [],
      "name": "depositQuoteTimeBuffer",
      "outputs": [
        {
          "internalType": "uint32",
          "name": "",
          "type": "uint32"
        }
      ],
      "stateMutability": "view",
      "type": "function"
    },
    {
      "inputs": [
        {
          "internalType": "address",
          "name": "depositor",
          "type": "address"
        },
        {
          "internalType": "address",
          "name": "recipient",
          "type": "address"
        },
        {
          "internalType": "address",
          "name": "inputToken",
          "type": "address"
        },
        {
          "internalType": "address",
          "name": "outputToken",
          "type": "address"
        },
        {
          "internalType": "uint256",
          "name": "inputAmount",
          "type": "uint256"
        },
        {
          "internalType": "uint256",
          "name": "outputAmount",
          "type": "uint256"
        },
        {
          "internalType": "uint256",
          "name": "destinationChainId",
          "type": "uint256"
        },
        {
          "internalType": "address",
          "name": "exclusiveRelayer",
          "type": "address"
        },
        {
          "internalType": "uint32",
          "name": "quoteTimestamp",
          "type": "uint32"
        },
        {
          "internalType": "uint32",
          "name": "fillDeadline",
          "type": "uint32"
        },
        {
          "internalType": "uint32",
          "name": "exclusivityParameter",
          "type": "uint32"
        },
        {
          "internalType": "bytes",
          "name": "message",
          "type": "bytes"
        }
      ],
      "name": "depositV3",
      "outputs": [],
      "stateMutability": "payable",
      "type": "function"
    },
    {
      "inputs": [
        {
          "internalType": "address",
          "name": "depositor",
          "type": "address"
        },
        {
          "internalType": "address",
          "name": "recipient",
          "type": "address"
        },
        {
          "internalType": "address",
          "name": "inputToken",
          "type": "address"
        },
        {
          "internalType": "address",
          "name": "outputToken",
          "type": "address"
        },
        {
          "internalType": "uint256",
          "name": "inputAmount",
          "type": "uint256"
        },
        {
          "internalType": "uint256",
          "name": "outputAmount",
          "type": "uint256"
        },
        {
          "internalType": "uint256",
          "name": "destinationChainId",
          "type": "uint256"
        },
        {
          "internalType": "address",
          "name": "exclusiveRelayer",
          "type": "address"
        },
        {
          "internalType": "uint32",
          "name": "fillDeadlineOffset",
          "type": "uint32"
        },
        {
          "internalType": "uint32",
          "name": "exclusivityParameter",
          "type": "uint32"
        },
        {
          "internalType": "bytes",
          "name": "message",
          "type": "bytes"
        }
      ],
      "name": "depositV3Now",
      "outputs": [],
      "stateMutability": "payable",
      "type": "function"
    },
    {
      "inputs": [
        {
          "internalType": "uint256",
          "name": "rootBundleId",
          "type": "uint256"
        }
      ],
      "name": "emergencyDeleteRootBundle",
      "outputs": [],
      "stateMutability": "nonpayable",
      "type": "function"
    },
    {
      "inputs": [
        {
          "internalType": "uint32",
          "name": "rootBundleId",
          "type": "uint32"
        },
        {
          "components": [
            {
              "internalType": "uint256",
              "name": "amountToReturn",
              "type": "uint256"
            },
            {
              "internalType": "uint256",
              "name": "chainId",
              "type": "uint256"
            },
            {
              "internalType": "uint256[]",
              "name": "refundAmounts",
              "type": "uint256[]"
            },
            {
              "internalType": "uint32",
              "name": "leafId",
              "type": "uint32"
            },
            {
              "internalType": "address",
              "name": "l2TokenAddress",
              "type": "address"
            },
            {
              "internalType": "address[]",
              "name": "refundAddresses",
              "type": "address[]"
            }
          ],
          "internalType": "struct SpokePoolInterface.RelayerRefundLeaf",
          "name": "relayerRefundLeaf",
          "type": "tuple"
        },
        {
          "internalType": "bytes32[]",
          "name": "proof",
          "type": "bytes32[]"
        }
      ],
      "name": "executeRelayerRefundLeaf",
      "outputs": [],
      "stateMutability": "payable",
      "type": "function"
    },
    {
      "inputs": [
        {
          "components": [
            {
              "components": [
                {
                  "internalType": "bytes32",
                  "name": "depositor",
                  "type": "bytes32"
                },
                {
                  "internalType": "bytes32",
                  "name": "recipient",
                  "type": "bytes32"
                },
                {
                  "internalType": "bytes32",
                  "name": "exclusiveRelayer",
                  "type": "bytes32"
                },
                {
                  "internalType": "bytes32",
                  "name": "inputToken",
                  "type": "bytes32"
                },
                {
                  "internalType": "bytes32",
                  "name": "outputToken",
                  "type": "bytes32"
                },
                {
                  "internalType": "uint256",
                  "name": "inputAmount",
                  "type": "uint256"
                },
                {
                  "internalType": "uint256",
                  "name": "outputAmount",
                  "type": "uint256"
                },
                {
                  "internalType": "uint256",
                  "name": "originChainId",
                  "type": "uint256"
                },
                {
                  "internalType": "uint256",
                  "name": "depositId",
                  "type": "uint256"
                },
                {
                  "internalType": "uint32",
                  "name": "fillDeadline",
                  "type": "uint32"
                },
                {
                  "internalType": "uint32",
                  "name": "exclusivityDeadline",
                  "type": "uint32"
                },
                {
                  "internalType": "bytes",
                  "name": "message",
                  "type": "bytes"
                }
              ],
              "internalType": "struct V3SpokePoolInterface.V3RelayData",
              "name": "relayData",
              "type": "tuple"
            },
            {
              "internalType": "uint256",
              "name": "chainId",
              "type": "uint256"
            },
            {
              "internalType": "uint256",
              "name": "updatedOutputAmount",
              "type": "uint256"
            }
          ],
          "internalType": "struct V3SpokePoolInterface.V3SlowFill",
          "name": "slowFillLeaf",
          "type": "tuple"
        },
        {
          "internalType": "uint32",
          "name": "rootBundleId",
          "type": "uint32"
        },
        {
          "internalType": "bytes32[]",
          "name": "proof",
          "type": "bytes32[]"
        }
      ],
      "name": "executeSlowRelayLeaf",
      "outputs": [],
      "stateMutability": "nonpayable",
      "type": "function"
    },
    {
      "inputs": [
        {
          "internalType": "bytes32",
          "name": "orderId",
          "type": "bytes32"
        },
        {
          "internalType": "bytes",
          "name": "originData",
          "type": "bytes"
        },
        {
          "internalType": "bytes",
          "name": "fillerData",
          "type": "bytes"
        }
      ],
      "name": "fill",
      "outputs": [],
      "stateMutability": "nonpayable",
      "type": "function"
    },
    {
      "inputs": [],
      "name": "fillDeadlineBuffer",
      "outputs": [
        {
          "internalType": "uint32",
          "name": "",
          "type": "uint32"
        }
      ],
      "stateMutability": "view",
      "type": "function"
    },
    {
      "inputs": [
        {
          "components": [
            {
              "internalType": "bytes32",
              "name": "depositor",
              "type": "bytes32"
            },
            {
              "internalType": "bytes32",
              "name": "recipient",
              "type": "bytes32"
            },
            {
              "internalType": "bytes32",
              "name": "exclusiveRelayer",
              "type": "bytes32"
            },
            {
              "internalType": "bytes32",
              "name": "inputToken",
              "type": "bytes32"
            },
            {
              "internalType": "bytes32",
              "name": "outputToken",
              "type": "bytes32"
            },
            {
              "internalType": "uint256",
              "name": "inputAmount",
              "type": "uint256"
            },
            {
              "internalType": "uint256",
              "name": "outputAmount",
              "type": "uint256"
            },
            {
              "internalType": "uint256",
              "name": "originChainId",
              "type": "uint256"
            },
            {
              "internalType": "uint256",
              "name": "depositId",
              "type": "uint256"
            },
            {
              "internalType": "uint32",
              "name": "fillDeadline",
              "type": "uint32"
            },
            {
              "internalType": "uint32",
              "name": "exclusivityDeadline",
              "type": "uint32"
            },
            {
              "internalType": "bytes",
              "name": "message",
              "type": "bytes"
            }
          ],
          "internalType": "struct V3SpokePoolInterface.V3RelayData",
          "name": "relayData",
          "type": "tuple"
        },
        {
          "internalType": "uint256",
          "name": "repaymentChainId",
          "type": "uint256"
        },
        {
          "internalType": "bytes32",
          "name": "repaymentAddress",
          "type": "bytes32"
        }
      ],
      "name": "fillRelay",
      "outputs": [],
      "stateMutability": "nonpayable",
      "type": "function"
    },
    {
      "inputs": [
        {
          "components": [
            {
              "internalType": "bytes32",
              "name": "depositor",
              "type": "bytes32"
            },
            {
              "internalType": "bytes32",
              "name": "recipient",
              "type": "bytes32"
            },
            {
              "internalType": "bytes32",
              "name": "exclusiveRelayer",
              "type": "bytes32"
            },
            {
              "internalType": "bytes32",
              "name": "inputToken",
              "type": "bytes32"
            },
            {
              "internalType": "bytes32",
              "name": "outputToken",
              "type": "bytes32"
            },
            {
              "internalType": "uint256",
              "name": "inputAmount",
              "type": "uint256"
            },
            {
              "internalType": "uint256",
              "name": "outputAmount",
              "type": "uint256"
            },
            {
              "internalType": "uint256",
              "name": "originChainId",
              "type": "uint256"
            },
            {
              "internalType": "uint256",
              "name": "depositId",
              "type": "uint256"
            },
            {
              "internalType": "uint32",
              "name": "fillDeadline",
              "type": "uint32"
            },
            {
              "internalType": "uint32",
              "name": "exclusivityDeadline",
              "type": "uint32"
            },
            {
              "internalType": "bytes",
              "name": "message",
              "type": "bytes"
            }
          ],
          "internalType": "struct V3SpokePoolInterface.V3RelayData",
          "name": "relayData",
          "type": "tuple"
        },
        {
          "internalType": "uint256",
          "name": "repaymentChainId",
          "type": "uint256"
        },
        {
          "internalType": "bytes32",
          "name": "repaymentAddress",
          "type": "bytes32"
        },
        {
          "internalType": "uint256",
          "name": "updatedOutputAmount",
          "type": "uint256"
        },
        {
          "internalType": "bytes32",
          "name": "updatedRecipient",
          "type": "bytes32"
        },
        {
          "internalType": "bytes",
          "name": "updatedMessage",
          "type": "bytes"
        },
        {
          "internalType": "bytes",
          "name": "depositorSignature",
          "type": "bytes"
        }
      ],
      "name": "fillRelayWithUpdatedDeposit",
      "outputs": [],
      "stateMutability": "nonpayable",
      "type": "function"
    },
    {
      "inputs": [
        {
          "internalType": "bytes32",
          "name": "",
          "type": "bytes32"
        }
      ],
      "name": "fillStatuses",
      "outputs": [
        {
          "internalType": "uint256",
          "name": "",
          "type": "uint256"
        }
      ],
      "stateMutability": "view",
      "type": "function"
    },
    {
      "inputs": [
        {
          "components": [
            {
              "internalType": "address",
              "name": "depositor",
              "type": "address"
            },
            {
              "internalType": "address",
              "name": "recipient",
              "type": "address"
            },
            {
              "internalType": "address",
              "name": "exclusiveRelayer",
              "type": "address"
            },
            {
              "internalType": "address",
              "name": "inputToken",
              "type": "address"
            },
            {
              "internalType": "address",
              "name": "outputToken",
              "type": "address"
            },
            {
              "internalType": "uint256",
              "name": "inputAmount",
              "type": "uint256"
            },
            {
              "internalType": "uint256",
              "name": "outputAmount",
              "type": "uint256"
            },
            {
              "internalType": "uint256",
              "name": "originChainId",
              "type": "uint256"
            },
            {
              "internalType": "uint32",
              "name": "depositId",
              "type": "uint32"
            },
            {
              "internalType": "uint32",
              "name": "fillDeadline",
              "type": "uint32"
            },
            {
              "internalType": "uint32",
              "name": "exclusivityDeadline",
              "type": "uint32"
            },
            {
              "internalType": "bytes",
              "name": "message",
              "type": "bytes"
            }
          ],
          "internalType": "struct V3SpokePoolInterface.V3RelayDataLegacy",
          "name": "relayData",
          "type": "tuple"
        },
        {
          "internalType": "uint256",
          "name": "repaymentChainId",
          "type": "uint256"
        }
      ],
      "name": "fillV3Relay",
      "outputs": [],
      "stateMutability": "nonpayable",
      "type": "function"
    },
    {
      "inputs": [],
      "name": "getCurrentTime",
      "outputs": [
        {
          "internalType": "uint256",
          "name": "",
          "type": "uint256"
        }
      ],
      "stateMutability": "view",
      "type": "function"
    },
    {
      "inputs": [
        {
          "internalType": "address",
          "name": "l2TokenAddress",
          "type": "address"
        },
        {
          "internalType": "address",
          "name": "refundAddress",
          "type": "address"
        }
      ],
      "name": "getRelayerRefund",
      "outputs": [
        {
          "internalType": "uint256",
          "name": "",
          "type": "uint256"
        }
      ],
      "stateMutability": "view",
      "type": "function"
    },
    {
      "inputs": [
        {
          "internalType": "address",
          "name": "msgSender",
          "type": "address"
        },
        {
          "internalType": "bytes32",
          "name": "depositor",
          "type": "bytes32"
        },
        {
          "internalType": "uint256",
          "name": "depositNonce",
          "type": "uint256"
        }
      ],
      "name": "getUnsafeDepositId",
      "outputs": [
        {
          "internalType": "uint256",
          "name": "",
          "type": "uint256"
        }
      ],
      "stateMutability": "pure",
      "type": "function"
    },
    {
      "inputs": [
        {
          "components": [
            {
              "internalType": "bytes32",
              "name": "depositor",
              "type": "bytes32"
            },
            {
              "internalType": "bytes32",
              "name": "recipient",
              "type": "bytes32"
            },
            {
              "internalType": "bytes32",
              "name": "exclusiveRelayer",
              "type": "bytes32"
            },
            {
              "internalType": "bytes32",
              "name": "inputToken",
              "type": "bytes32"
            },
            {
              "internalType": "bytes32",
              "name": "outputToken",
              "type": "bytes32"
            },
            {
              "internalType": "uint256",
              "name": "inputAmount",
              "type": "uint256"
            },
            {
              "internalType": "uint256",
              "name": "outputAmount",
              "type": "uint256"
            },
            {
              "internalType": "uint256",
              "name": "originChainId",
              "type": "uint256"
            },
            {
              "internalType": "uint256",
              "name": "depositId",
              "type": "uint256"
            },
            {
              "internalType": "uint32",
              "name": "fillDeadline",
              "type": "uint32"
            },
            {
              "internalType": "uint32",
              "name": "exclusivityDeadline",
              "type": "uint32"
            },
            {
              "internalType": "bytes",
              "name": "message",
              "type": "bytes"
            }
          ],
          "internalType": "struct V3SpokePoolInterface.V3RelayData",
          "name": "relayData",
          "type": "tuple"
        }
      ],
      "name": "getV3RelayHash",
      "outputs": [
        {
          "internalType": "bytes32",
          "name": "",
          "type": "bytes32"
        }
      ],
      "stateMutability": "view",
      "type": "function"
    },
    {
      "inputs": [
        {
          "internalType": "uint32",
          "name": "_initialDepositId",
          "type": "uint32"
        },
        {
          "internalType": "contract IMessageService",
          "name": "_l2MessageService",
          "type": "address"
        },
        {
          "internalType": "contract ITokenBridge",
          "name": "_l2TokenBridge",
          "type": "address"
        },
        {
          "internalType": "address",
          "name": "_crossDomainAdmin",
          "type": "address"
        },
        {
          "internalType": "address",
          "name": "_withdrawalRecipient",
          "type": "address"
        }
      ],
      "name": "initialize",
      "outputs": [],
      "stateMutability": "nonpayable",
      "type": "function"
    },
    {
      "inputs": [],
      "name": "l2MessageService",
      "outputs": [
        {
          "internalType": "contract IMessageService",
          "name": "",
          "type": "address"
        }
      ],
      "stateMutability": "view",
      "type": "function"
    },
    {
      "inputs": [],
      "name": "l2TokenBridge",
      "outputs": [
        {
          "internalType": "contract ITokenBridge",
          "name": "",
          "type": "address"
        }
      ],
      "stateMutability": "view",
      "type": "function"
    },
    {
      "inputs": [],
      "name": "minimumFeeInWei",
      "outputs": [
        {
          "internalType": "uint256",
          "name": "",
          "type": "uint256"
        }
      ],
      "stateMutability": "view",
      "type": "function"
    },
    {
      "inputs": [
        {
          "internalType": "bytes[]",
          "name": "data",
          "type": "bytes[]"
        }
      ],
      "name": "multicall",
      "outputs": [
        {
          "internalType": "bytes[]",
          "name": "results",
          "type": "bytes[]"
        }
      ],
      "stateMutability": "nonpayable",
      "type": "function"
    },
    {
      "inputs": [],
      "name": "numberOfDeposits",
      "outputs": [
        {
          "internalType": "uint32",
          "name": "",
          "type": "uint32"
        }
      ],
      "stateMutability": "view",
      "type": "function"
    },
    {
      "inputs": [
        {
          "internalType": "bool",
          "name": "pause",
          "type": "bool"
        }
      ],
      "name": "pauseDeposits",
      "outputs": [],
      "stateMutability": "nonpayable",
      "type": "function"
    },
    {
      "inputs": [
        {
          "internalType": "bool",
          "name": "pause",
          "type": "bool"
        }
      ],
      "name": "pauseFills",
      "outputs": [],
      "stateMutability": "nonpayable",
      "type": "function"
    },
    {
      "inputs": [],
      "name": "pausedDeposits",
      "outputs": [
        {
          "internalType": "bool",
          "name": "",
          "type": "bool"
        }
      ],
      "stateMutability": "view",
      "type": "function"
    },
    {
      "inputs": [],
      "name": "pausedFills",
      "outputs": [
        {
          "internalType": "bool",
          "name": "",
          "type": "bool"
        }
      ],
      "stateMutability": "view",
      "type": "function"
    },
    {
      "inputs": [],
      "name": "proxiableUUID",
      "outputs": [
        {
          "internalType": "bytes32",
          "name": "",
          "type": "bytes32"
        }
      ],
      "stateMutability": "view",
      "type": "function"
    },
    {
      "inputs": [],
      "name": "recipientCircleDomainId",
      "outputs": [
        {
          "internalType": "uint32",
          "name": "",
          "type": "uint32"
        }
      ],
      "stateMutability": "view",
      "type": "function"
    },
    {
      "inputs": [
        {
          "internalType": "bytes32",
          "name": "relayerRefundRoot",
          "type": "bytes32"
        },
        {
          "internalType": "bytes32",
          "name": "slowRelayRoot",
          "type": "bytes32"
        }
      ],
      "name": "relayRootBundle",
      "outputs": [],
      "stateMutability": "nonpayable",
      "type": "function"
    },
    {
      "inputs": [
        {
          "internalType": "address",
          "name": "",
          "type": "address"
        },
        {
          "internalType": "address",
          "name": "",
          "type": "address"
        }
      ],
      "name": "relayerRefund",
      "outputs": [
        {
          "internalType": "uint256",
          "name": "",
          "type": "uint256"
        }
      ],
      "stateMutability": "view",
      "type": "function"
    },
    {
      "inputs": [
        {
          "components": [
            {
              "internalType": "bytes32",
              "name": "depositor",
              "type": "bytes32"
            },
            {
              "internalType": "bytes32",
              "name": "recipient",
              "type": "bytes32"
            },
            {
              "internalType": "bytes32",
              "name": "exclusiveRelayer",
              "type": "bytes32"
            },
            {
              "internalType": "bytes32",
              "name": "inputToken",
              "type": "bytes32"
            },
            {
              "internalType": "bytes32",
              "name": "outputToken",
              "type": "bytes32"
            },
            {
              "internalType": "uint256",
              "name": "inputAmount",
              "type": "uint256"
            },
            {
              "internalType": "uint256",
              "name": "outputAmount",
              "type": "uint256"
            },
            {
              "internalType": "uint256",
              "name": "originChainId",
              "type": "uint256"
            },
            {
              "internalType": "uint256",
              "name": "depositId",
              "type": "uint256"
            },
            {
              "internalType": "uint32",
              "name": "fillDeadline",
              "type": "uint32"
            },
            {
              "internalType": "uint32",
              "name": "exclusivityDeadline",
              "type": "uint32"
            },
            {
              "internalType": "bytes",
              "name": "message",
              "type": "bytes"
            }
          ],
          "internalType": "struct V3SpokePoolInterface.V3RelayData",
          "name": "relayData",
          "type": "tuple"
        }
      ],
      "name": "requestSlowFill",
      "outputs": [],
      "stateMutability": "nonpayable",
      "type": "function"
    },
    {
      "inputs": [
        {
          "internalType": "uint256",
          "name": "",
          "type": "uint256"
        }
      ],
      "name": "rootBundles",
      "outputs": [
        {
          "internalType": "bytes32",
          "name": "slowRelayRoot",
          "type": "bytes32"
        },
        {
          "internalType": "bytes32",
          "name": "relayerRefundRoot",
          "type": "bytes32"
        }
      ],
      "stateMutability": "view",
      "type": "function"
    },
    {
      "inputs": [
        {
          "internalType": "address",
          "name": "newCrossDomainAdmin",
          "type": "address"
        }
      ],
      "name": "setCrossDomainAdmin",
      "outputs": [],
      "stateMutability": "nonpayable",
      "type": "function"
    },
    {
      "inputs": [
        {
          "internalType": "contract IMessageService",
          "name": "_l2MessageService",
          "type": "address"
        }
      ],
      "name": "setL2MessageService",
      "outputs": [],
      "stateMutability": "nonpayable",
      "type": "function"
    },
    {
      "inputs": [
        {
          "internalType": "contract ITokenBridge",
          "name": "_l2TokenBridge",
          "type": "address"
        }
      ],
      "name": "setL2TokenBridge",
      "outputs": [],
      "stateMutability": "nonpayable",
      "type": "function"
    },
    {
      "inputs": [
        {
          "internalType": "address",
          "name": "newWithdrawalRecipient",
          "type": "address"
        }
      ],
      "name": "setWithdrawalRecipient",
      "outputs": [],
      "stateMutability": "nonpayable",
      "type": "function"
    },
    {
      "inputs": [
        {
          "internalType": "bytes32",
          "name": "depositor",
          "type": "bytes32"
        },
        {
          "internalType": "uint256",
          "name": "depositId",
          "type": "uint256"
        },
        {
          "internalType": "uint256",
          "name": "updatedOutputAmount",
          "type": "uint256"
        },
        {
          "internalType": "bytes32",
          "name": "updatedRecipient",
          "type": "bytes32"
        },
        {
          "internalType": "bytes",
          "name": "updatedMessage",
          "type": "bytes"
        },
        {
          "internalType": "bytes",
          "name": "depositorSignature",
          "type": "bytes"
        }
      ],
      "name": "speedUpDeposit",
      "outputs": [],
      "stateMutability": "nonpayable",
      "type": "function"
    },
    {
      "inputs": [
        {
          "internalType": "address",
          "name": "depositor",
          "type": "address"
        },
        {
          "internalType": "uint256",
          "name": "depositId",
          "type": "uint256"
        },
        {
          "internalType": "uint256",
          "name": "updatedOutputAmount",
          "type": "uint256"
        },
        {
          "internalType": "address",
          "name": "updatedRecipient",
          "type": "address"
        },
        {
          "internalType": "bytes",
          "name": "updatedMessage",
          "type": "bytes"
        },
        {
          "internalType": "bytes",
          "name": "depositorSignature",
          "type": "bytes"
        }
      ],
      "name": "speedUpV3Deposit",
      "outputs": [],
      "stateMutability": "nonpayable",
      "type": "function"
    },
    {
      "inputs": [
        {
          "internalType": "bytes[]",
          "name": "data",
          "type": "bytes[]"
        }
      ],
      "name": "tryMulticall",
      "outputs": [
        {
          "components": [
            {
              "internalType": "bool",
              "name": "success",
              "type": "bool"
            },
            {
              "internalType": "bytes",
              "name": "returnData",
              "type": "bytes"
            }
          ],
          "internalType": "struct MultiCallerUpgradeable.Result[]",
          "name": "results",
          "type": "tuple[]"
        }
      ],
      "stateMutability": "nonpayable",
      "type": "function"
    },
    {
      "inputs": [
        {
          "internalType": "bytes32",
          "name": "depositor",
          "type": "bytes32"
        },
        {
          "internalType": "bytes32",
          "name": "recipient",
          "type": "bytes32"
        },
        {
          "internalType": "bytes32",
          "name": "inputToken",
          "type": "bytes32"
        },
        {
          "internalType": "bytes32",
          "name": "outputToken",
          "type": "bytes32"
        },
        {
          "internalType": "uint256",
          "name": "inputAmount",
          "type": "uint256"
        },
        {
          "internalType": "uint256",
          "name": "outputAmount",
          "type": "uint256"
        },
        {
          "internalType": "uint256",
          "name": "destinationChainId",
          "type": "uint256"
        },
        {
          "internalType": "bytes32",
          "name": "exclusiveRelayer",
          "type": "bytes32"
        },
        {
          "internalType": "uint256",
          "name": "depositNonce",
          "type": "uint256"
        },
        {
          "internalType": "uint32",
          "name": "quoteTimestamp",
          "type": "uint32"
        },
        {
          "internalType": "uint32",
          "name": "fillDeadline",
          "type": "uint32"
        },
        {
          "internalType": "uint32",
          "name": "exclusivityParameter",
          "type": "uint32"
        },
        {
          "internalType": "bytes",
          "name": "message",
          "type": "bytes"
        }
      ],
      "name": "unsafeDeposit",
      "outputs": [],
      "stateMutability": "payable",
      "type": "function"
    },
    {
      "inputs": [
        {
          "internalType": "address",
          "name": "newImplementation",
          "type": "address"
        }
      ],
      "name": "upgradeTo",
      "outputs": [],
      "stateMutability": "nonpayable",
      "type": "function"
    },
    {
      "inputs": [
        {
          "internalType": "address",
          "name": "newImplementation",
          "type": "address"
        },
        {
          "internalType": "bytes",
          "name": "data",
          "type": "bytes"
        }
      ],
      "name": "upgradeToAndCall",
      "outputs": [],
      "stateMutability": "payable",
      "type": "function"
    },
    {
      "inputs": [],
      "name": "usdcToken",
      "outputs": [
        {
          "internalType": "contract IERC20",
          "name": "",
          "type": "address"
        }
      ],
      "stateMutability": "view",
      "type": "function"
    },
    {
      "inputs": [],
      "name": "withdrawalRecipient",
      "outputs": [
        {
          "internalType": "address",
          "name": "",
          "type": "address"
        }
      ],
      "stateMutability": "view",
      "type": "function"
    },
    {
      "inputs": [],
      "name": "wrappedNativeToken",
      "outputs": [
        {
          "internalType": "contract WETH9Interface",
          "name": "",
          "type": "address"
        }
      ],
      "stateMutability": "view",
      "type": "function"
    },
    {
      "stateMutability": "payable",
      "type": "receive"
    }
  ],
  "numDeployments": 12,
  "solcInputHash": "2f96ba6500a76c3baf62ec03cdb3ac03",
  "bytecode": "0x61018060409080825234620002d85760a081620053b68038038091620000268285620002dd565b833981010312620002d85780516001600160a01b0380821691829003620002d8576020936200005785850162000317565b916200006582860162000317565b6060860151958287168703620002d857608001519382851695868603620002d8573060805260a05260c05260e052600093845460ff8160081c16620002d45760ff808216036200029b575b50610120958652610140938452610100858152835163011a412160e61b818a019081526004825291986001600160401b03939092909180870185811182821017620002875787525188928392905afa953d156200027d573d928311620002695784519262000128601f8201601f1916840185620002dd565b83523d818385013e5b866200025d575b8662000224575b50505050610160928352519261508c94856200032a8639608051858181610ea7015281816112690152611398015260a05185818161077f0152818161323b0152818161381001528181613b4d01528181613e8a0152818161484d01528181614acf01528181614bc00152614be7015260c0518581816115a1015281816139f90152613b01015260e05185818161041301526137b901525184818161166c01528181614de60152614e9201525183818161071f01528181613fae0152614cbf015251828181611b6b0152818161409d0152614ce20152518181816117470152614d860152f35b90919293955050808251920151918181106200024b575b505016151591388080806200013f565b600019910360031b1b1638806200023b565b82518214965062000138565b634e487b7160e01b81526041600452602490fd5b6060925062000131565b634e487b7160e01b8a52604160045260248afd5b60ff908119161785557f7f26b83ff96e1f2b6a682f133852f6798a09c465da95921460cefb384740249887845160ff8152a138620000b0565b8580fd5b600080fd5b601f909101601f19168101906001600160401b038211908210176200030157604052565b634e487b7160e01b600052604160045260246000fd5b519063ffffffff82168203620002d85756fe6080604052600436101561001b575b361561001957600080fd5b005b60003560e01c8063079bd2c7146103e15780631186ec33146103dc57806311eac855146103d757806315348e441461037357806317fcb39b146103d25780631b3d5559146103cd5780631fab657c146103c857806329cb924d146103c35780632e378115146103be5780632e63e59a146103b95780633659cfe6146103b4578063437b9116146103af578063490e49ef146103aa578063493a4f84146103a55780634f1ef286146103a05780635285e0581461039b57806352d1902d14610396578063541f4f1414610391578063577f51f81461038c57806357f6dcb8146103875780635d467759146103825780636068d6cb1461037d578063670fa8ac146103785780636bbbcd2e146103735780636e4009831461036e578063738b62e514610369578063775c0d03146103645780637aef642c1461035f5780637b9392321461035a5780637ef413e11461035557806382e2c43f14610350578063899458831461034b5780638a7860ce146103465780638b15788e1461034157806391c49bf81461033c5780639748cf7c1461033757806397943aa914610332578063979f2bc21461032d57806399cc2968146103285780639a2e0820146103235780639a8a05921461031e578063a1244c6714610319578063a18a096e14610314578063ac9650d81461030f578063ad5425c61461030a578063adb5a6a6146102c4578063b370b7f514610305578063babb6aac14610300578063c35c83fc146102fb578063ceb4c987146102f6578063d7e1583a146102f1578063dda52113146102ec578063ddd224f1146102e7578063de7eba78146102e2578063deff4b24146102dd578063ea86bd46146102d8578063ee2a53f8146102d3578063f1429b5a146102ce578063f2c20924146102c9578063f79f29ed146102c45763fc8a584f0361000e57612852565b612180565b612733565b6126fe565b6126c0565b6125b9565b6124c4565b612494565b61246a565b612443565b61240d565b612312565b6122e5565b61220e565b6121e6565b612044565b611f9b565b611e2c565b611e04565b611de9565b611db4565b611d1f565b611c0f565b611b8f565b611b4b565b611b23565b611aa5565b611a22565b611a07565b6118eb565b6118b4565b61180c565b61176c565b61172f565b61169a565b61164f565b610743565b611614565b6115ed565b6115c5565b611584565b6114ab565b6113e8565b61137d565b611355565b611226565b61119e565b61117f565b6110aa565b610e7e565b610c80565b610b20565b610af6565b6109f3565b6108ea565b61075f565b6106ff565b61065e565b6103f6565b60009103126103f157565b600080fd5b346103f15760003660031901126103f157602060405163ffffffff7f0000000000000000000000000000000000000000000000000000000000000000168152f35b6001600160a01b038116036103f157565b359061045382610437565b565b63ffffffff8116036103f157565b610144359061045382610455565b359061045382610455565b634e487b7160e01b600052604160045260246000fd5b6040810190811067ffffffffffffffff8211176104ae57604052565b61047c565b6101a0810190811067ffffffffffffffff8211176104ae57604052565b67ffffffffffffffff81116104ae57604052565b6060810190811067ffffffffffffffff8211176104ae57604052565b6080810190811067ffffffffffffffff8211176104ae57604052565b6020810190811067ffffffffffffffff8211176104ae57604052565b60a0810190811067ffffffffffffffff8211176104ae57604052565b60e0810190811067ffffffffffffffff8211176104ae57604052565b90601f8019910116810190811067ffffffffffffffff8211176104ae57604052565b6040519060c0820182811067ffffffffffffffff8211176104ae57604052565b60405190610180820182811067ffffffffffffffff8211176104ae57604052565b60405190610453826104b3565b6040519061045382610500565b67ffffffffffffffff81116104ae57601f01601f191660200190565b929192610615826105ed565b916106236040519384610570565b8294818452818301116103f1578281602093846000960137010152565b9080601f830112156103f15781602061065b93359101610609565b90565b6101003660031901126103f15760043561067781610437565b60243561068381610437565b6084358060070b81036103f15760a4359061069d82610455565b60c43567ffffffffffffffff81116103f1576106bd903690600401610640565b926106c6612b8b565b60ff61086b5460e81c166106ed576106e694606435916044359133613ab3565b6001606555005b604051630b4cba3160e31b8152600490fd5b346103f15760003660031901126103f15760206040516001600160a01b037f0000000000000000000000000000000000000000000000000000000000000000168152f35b346103f15760003660031901126103f157602060405160008152f35b346103f15760003660031901126103f15760206040516001600160a01b037f0000000000000000000000000000000000000000000000000000000000000000168152f35b67ffffffffffffffff81116104ae5760051b60200190565b81601f820112156103f1578035916107d2836107a3565b926107e06040519485610570565b808452602092838086019260051b8201019283116103f1578301905b82821061080a575050505090565b813581529083019083016107fc565b81601f820112156103f157803591610830836107a3565b9261083e6040519485610570565b808452602092838086019260051b8201019283116103f1578301905b828210610868575050505090565b838091833561087681610437565b81520191019061085a565b929161088c826107a3565b9161089a6040519384610570565b829481845260208094019160051b81019283116103f157905b8282106108c05750505050565b813581529083019083016108b3565b9080601f830112156103f15781602061065b93359101610881565b6003196060368201126103f15760043561090381610455565b60243567ffffffffffffffff928382116103f15760c09082360301126103f15761092b610592565b90806004013582526024810135602083015260448101358481116103f15761095990600436918401016107bb565b604083015261096a60648201610471565b606083015261097b60848201610448565b608083015260a4810135908482116103f157600461099c9236920101610819565b60a08201526044359283116103f1576109bc6100199336906004016108cf565b916132a4565b9181601f840112156103f15782359167ffffffffffffffff83116103f1576020808501948460051b0101116103f157565b346103f1576003196060368201126103f15760043567ffffffffffffffff8082116103f1576060823603938401126103f15760243590610a3282610455565b6044359081116103f157610a4a9036906004016109c2565b919093610a55612b8b565b60048401359061018219018112156103f157610aec94610ae793610a82610ae09360043691890101612331565b95610a98610a936080890151614c80565b613231565b610aa1876136bc565b9060446020890151916101608a015193610ab9610592565b9a8b5260208b01520135604089015260608801526080870152600060a08701523691610881565b9083614558565b6146e0565b6100196001606555565b346103f15760003660031901126103f1576020604051428152f35b90816101809103126103f15790565b346103f15760403660031901126103f15760043567ffffffffffffffff81116103f157610b51903690600401610b11565b610b5a81612fc3565b6001600160a01b031690610b7060208201612fc3565b6001600160a01b031691610b8660408301612fc3565b6001600160a01b0316610b9b60608401612fc3565b6001600160a01b031692610bb160808201612fc3565b6001600160a01b031690610100610bc9818301612fcd565b9061012090610bd9848301612fcd565b9261014094858101610bea90612fcd565b966101609a8b8301610bfc9084612fd7565b9a909b610c076105b2565b9e8f91825260208201526040015260608d015260808c015260a081013560a08c015260c081013560c08c015260e0013560e08b015263ffffffff1690890152870190610c58919063ffffffff169052565b63ffffffff909116908501523690610c6f92610609565b908201523360243561001992612f27565b346103f15760203660031901126103f1576004803567ffffffffffffffff81116103f157610cb19036908301610b11565b610cb9612b8b565b60ff61086b5460e01c16610e6e5763ffffffff80421692610140830193610cf281610ce387612fcd565b63ffffffff9182169116101590565b610e5e57610120840192610d0584612fcd565b1610610e4f57610d1d610d183685612331565b6136bc565b90610d3382600052610872602052604060002090565b54610e415750610d847f3cee3e290f36226751cd0b3321b213890fe9c768e922f267fa6111836ce05c3292610d7f610d79610d8a94600052610872602052604060002090565b60019055565b612fcd565b93612fcd565b610daa610da5610d9e610160860186612fd7565b3691610609565b614c6a565b90610e346040519283926101008701359760e08801359760208101359281359260408301359260c08101359060a081013590606060808201359101358b9693909a999895919261012098959361014089019c895260208901526040880152606087015263ffffffff80921660808701521660a085015260c084015260e08301526101008201520152565b0390a36100196001606555565b604051624be79160e21b8152fd5b60405163d642b7d960e01b8152fd5b50604051630277ae7b60e21b8152fd5b50604051633d90fc5560e11b8152fd5b346103f15760203660031901126103f157600435610e9b81610437565b6001600160a01b0390817f0000000000000000000000000000000000000000000000000000000000000000168030146103f1577f360894a13ba1a3210667c828492db98dca3e2076cc3735a920a3ca505d382bbc9083825416036103f157610f01612bb1565b60405190610f0e8261051c565b60009384835260ff7f4910fdfa16fed3260ed0e7147f7cc6da11a60208b5b9406d12a635614ffd91435416600014610f4f57505050610f4c906128a4565b80f35b6020600491604051928380926352d1902d60e01b825288165afa859181610f8c575b50610f7a578480fd5b03610f8857610f4c916128e7565b8280fd5b610fae91925060203d8111610fb5575b610fa68183610570565b810190612889565b9038610f71565b503d610f9c565b60206003198201126103f1576004359067ffffffffffffffff82116103f157610fe7916004016109c2565b9091565b60005b838110610ffe5750506000910152565b8181015183820152602001610fee565b9060209161102781518092818552858086019101610feb565b601f01601f1916010190565b602080820190808352835180925260409283810182858560051b8401019601946000925b858410611068575050505050505090565b909192939495968580611099600193603f1986820301885286838d518051151584520151918185820152019061100e565b990194019401929594939190611057565b346103f1576110b836610fbc565b6110c1816107a3565b906040926110d184519384610570565b818352601f196110e0836107a3565b0160005b81811061115b57505060005b828110611108578451806111048682611033565b0390f35b806111516111196111569387613597565b51600080611128858989614fd2565b906111378c5180938193614fe9565b0390305af490611145612a07565b60208201529015159052565b613588565b6110f0565b602090865161116981610492565b60008152826060818301528288010152016110e4565b346103f15760003660031901126103f15760206040516301e133808152f35b346103f15760403660031901126103f1576024356004356111bd612bb1565b6111c5612b8b565b61086c8054680100000000000000008110156104ae5763ffffffff91600182019055836111f18261267f565b5084600182015555167fc86ba04c55bc5eb2f2876b91c438849a296dbec7b08751c3074d92e04f0a77af600080a46001606555005b60403660031901126103f15760043561123e81610437565b60243567ffffffffffffffff81116103f15761125e903690600401610640565b6001600160a01b03807f000000000000000000000000000000000000000000000000000000000000000016908130146103f1577f360894a13ba1a3210667c828492db98dca3e2076cc3735a920a3ca505d382bbc9181835416036103f1576112c4612bb1565b7f4910fdfa16fed3260ed0e7147f7cc6da11a60208b5b9406d12a635614ffd91435460ff16156112fa57505050610019906128a4565b6020600491604051928380926352d1902d60e01b825288165afa60009181611335575b5061132757600080fd5b036103f157610019916129b5565b61134e91925060203d8111610fb557610fa68183610570565b903861131d565b346103f15760003660031901126103f15760206001600160a01b036108695416604051908152f35b346103f15760003660031901126103f1576001600160a01b037f00000000000000000000000000000000000000000000000000000000000000001630036103f15760206040517f360894a13ba1a3210667c828492db98dca3e2076cc3735a920a3ca505d382bbc8152f35b6101203660031901126103f15760043561140181610437565b6024359061140e82610437565b6044359161141b83610437565b60a4358060070b81036103f15760c4359161143583610455565b60e43567ffffffffffffffff81116103f157611455903690600401610640565b9361145e612b8b565b60ff61086b5460e81c166106ed576106e6956084359260643592613ab3565b9181601f840112156103f15782359167ffffffffffffffff83116103f157602083818601950101116103f157565b346103f15760c03660031901126103f1576004356114c881610437565b602435604435916064356114db81610437565b67ffffffffffffffff916084358381116103f1576114fd90369060040161147d565b60a4949194359182116103f1577f45e04bc8f121ba11466985789ca2822a91109f31bb8ac85504a37b7eaf873c269461153d61157f93369060040161147d565b9290916001600160a01b038097166115718a8c8361155c368888610609565b91611568368b8b610609565b9346908d6142ec565b604051978897169a87612ef4565b0390a3005b346103f15760003660031901126103f157602060405163ffffffff7f0000000000000000000000000000000000000000000000000000000000000000168152f35b346103f15760003660031901126103f15760206001600160a01b03610c5a5416604051908152f35b346103f15760003660031901126103f157602060ff61086b5460e81c166040519015158152f35b346103f15760003660031901126103f15760206040517f8d1994e2bbbd77564cdca06dd819e7ee2a5efa06c80dcb59a4a7b6e39edc538f8152f35b346103f15760003660031901126103f157602060405163ffffffff7f0000000000000000000000000000000000000000000000000000000000000000168152f35b801515036103f157565b346103f15760203660031901126103f1577fe88463c2f254e2b070013a2dc7ee1e099f9bc00534cbdf03af551dc26ae4921960206004356116da81611690565b6116e2612bb1565b6116ea612b8b565b151561086b80547fffff00ffffffffffffffffffffffffffffffffffffffffffffffffffffffffff60ff60e81b8460e81b169116179055604051908152a16001606555005b346103f15760003660031901126103f15760206040517f000000000000000000000000000000000000000000000000000000000000000015158152f35b6101603660031901126103f15760043561178581610437565b6024359061179282610437565b60443561179e81610437565b606435906117ab82610437565b60e4356117b781610437565b61010435906117c582610455565b61012435926117d384610455565b610144359667ffffffffffffffff88116103f1576117f861001998369060040161147d565b97909660c4359360a4359360843593612ead565b6101803660031901126103f15760043561182581610437565b6024359061183282610437565b60443561183e81610437565b6064359061184b82610437565b60e43561185781610437565b6101043561186481610455565b610124359161187283610455565b61187a610463565b93610164359767ffffffffffffffff89116103f1576118a061001999369060040161147d565b98909760c4359360a4359360843593612d2c565b346103f15760603660031901126103f15760206118e36004356118d681610437565b6044359060243590613680565b604051908152f35b346103f15760603660031901126103f15767ffffffffffffffff6024358181116103f15761191d90369060040161147d565b916044359081116103f15761193690369060040161147d565b906040519360208501948061194d4684888a613118565b0395611961601f1997888101845283610570565b60043591519020036119f5576000946119916119b393611988876119bf958a9901906123e7565b95810190613135565b519360405193849160208301966337bfd2c960e21b88523391602485016131fe565b03908101835282610570565b5190305af46119cc612a07565b90156119d457005b60405163b8fe37a760e01b81529081906119f19060048301613220565b0390fd5b604051630f0c8f4760e11b8152600490fd5b346103f15760003660031901126103f15760206118e3612b38565b346103f15760203660031901126103f157600435611a3e612bb1565b611a46612b8b565b611a4f8161267f565b919091611a8f57600191600092818480935501557f7c1af0646963afc3343245b103731965735a893347bfa0d58a5dc77a77ae691c8280a2600160655580f35b634e487b7160e01b600052600060045260246000fd5b6101a03660031901126103f15761012435611abf81610455565b61014435611acc81610455565b6101643591611ada83610455565b610184359267ffffffffffffffff84116103f157611aff61001994369060040161147d565b9390926101043560e43560c43560a435608435606435604435602435600435612e1d565b346103f15760003660031901126103f15760206001600160a01b03610c5b5416604051908152f35b346103f15760003660031901126103f15760206040516001600160a01b037f0000000000000000000000000000000000000000000000000000000000000000168152f35b346103f15760e03660031901126103f15767ffffffffffffffff6004358181116103f157611bc1903690600401610b11565b60a4358281116103f157611bd990369060040161147d565b60c4929192359384116103f157611bf761001994369060040161147d565b9390926084359060643590604435906024359061300a565b346103f15760603660031901126103f157600435611c2c81610455565b602435611c3881610437565b604435611c4481610437565b60009260ff845460081c1615611d1b57611c7b9061086b9063ffffffff60c01b1963ffffffff60c01b83549260c01b169116179055565b604051611c8781610492565b6009815260208101926820a1a927a9a996ab1960b91b8452640312e302e360dc1b6020604051611cb681610492565b60058152015260ff855460081c1615611d1757610f4c93611d129251902061047f557f06c015bd22b4c69690933c1058878ebdfef31f9aaae40bbe86d8a09fe1b2972c61048055611d05612cd7565b611d0d612ce7565b6141dd565b614238565b8480fd5b8380fd5b346103f15760203660031901126103f1577f2d5b62420992e5a4afce0e77742636ca2608ef58289fd2e1baa5161ef6e7e41e6020600435611d5f81611690565b611d67612bb1565b611d6f612b8b565b151561086b80547fffffff00ffffffffffffffffffffffffffffffffffffffffffffffffffffffff60ff60e01b8460e01b169116179055604051908152a16001606555005b346103f15760203660031901126103f1576106e6600435611dd481610437565b611ddc612bb1565b611de4612b8b565b612c88565b346103f15760003660031901126103f1576020604051468152f35b346103f15760003660031901126103f157602063ffffffff61086b5460c01c16604051908152f35b346103f15760403660031901126103f157600435602435611e4c82614c96565b6001600160a01b038216600052610873602052611e7f6040600020336001600160a01b0316600052602052604060002090565b54918215611f27576000611ecb33611eb3611e9985614c80565b6001600160a01b0316600052610873602052604060002090565b906001600160a01b0316600052602052604060002090565b55611ef783611ee8611edc84614c80565b6001600160a01b031690565b611ef185614c80565b906135ab565b60405192835233927f6c172ea51018fb2eb2118f3f8a507c4df71eb519b8c0052834dc3c920182fef490602090a4005b6040516336542bf760e21b8152600490fd5b602080820190808352835180925260408301928160408460051b8301019501936000915b848310611f6d5750505050505090565b9091929394958480611f8b600193603f198682030187528a5161100e565b9801930193019194939290611f5d565b346103f157611fa936610fbc565b90611fb382614f88565b9160005b818110611fcc57604051806111048682611f39565b600080611fda838587614fd2565b90611fea60405180938193614fe9565b0390305af4611ff7612a07565b908190156120255750906120209161200f8287613597565b5261201a8186613597565b50613588565b611fb7565b60448251106103f15760046103f1920160248091518301019101614ff7565b610180806003193601126103f1576101043561205f81610455565b610124359161206d83610455565b610144359261207b84610455565b6101643567ffffffffffffffff81116103f15761209c90369060040161147d565b6120a4612b8b565b61086b549260ff8460e81c166106ed57610aec96612169610d9e9261215b63ffffffff6121779860c01c16996120ff6120dc8c612d12565b61086b9063ffffffff60c01b1963ffffffff60c01b83549260c01b169116179055565b6121076105d3565b9a6004358c5260243560208d015260443560408d015260643560608d015260843560808d015260a43560a08d015260c43560c08d015260e43560e08d01526101008c01526101208b019063ffffffff169052565b63ffffffff16610140890152565b63ffffffff16610160870152565b9082015261375e565b346103f15760403660031901126103f15760206121dd6004356121a281610437565b6001600160a01b03602435916121b783610437565b1660005261087383526040600020906001600160a01b0316600052602052604060002090565b54604051908152f35b346103f15760003660031901126103f15760206001600160a01b0361086a5416604051908152f35b346103f15760c03660031901126103f15760043560243567ffffffffffffffff6064356044356084358381116103f15761224c90369060040161147d565b60a4949194359182116103f1577f45e04bc8f121ba11466985789ca2822a91109f31bb8ac85504a37b7eaf873c269461228c6122db93369060040161147d565b929091612297612b8b565b6122a08a614c96565b6122cf898b89896122b2368888610609565b926122be368b8b610609565b946001600160a01b034692166142ec565b60405196879687612ef4565b0390a36001606555005b346103f15760203660031901126103f1576004356000526108726020526020604060002054604051908152f35b346103f15760003660031901126103f157602060405163ffffffff8152f35b9190610180838203126103f1576123466105b2565b92803584526020810135602085015260408101356040850152606081013560608501526080810135608085015260a081013560a085015260c081013560c085015260e081013560e085015261010080820135908501526101206123aa818301610471565b908501526101406123bc818301610471565b90850152610160918282013567ffffffffffffffff81116103f1576123e19201610640565b90830152565b906020828203126103f157813567ffffffffffffffff81116103f15761065b9201612331565b346103f15760203660031901126103f15760043567ffffffffffffffff81116103f1576118e3610d186020923690600401612331565b346103f15760003660031901126103f157602060ff61086b5460e01c166040519015158152f35b346103f15760003660031901126103f15760206040516ec097ce7bc90715b34b9f10000000008152f35b346103f15760203660031901126103f1576106e66004356124b481610437565b6124bc612bb1565b611d0d612b8b565b346103f15760603660031901126103f15760043567ffffffffffffffff81116103f1576124f5903690600401612331565b6124fd612b8b565b60ff61086b5460e01c166125a75761014081015163ffffffff4281169116101580612588575b6125765780612534610aec926136bc565b60c08201516020830151906101608401519261254e610592565b948552602085015260408401526060830152608082015260243560a082015260443590614954565b604051630c3a9b9d60e41b8152600490fd5b506125966040820151614c80565b6001600160a01b0316331415612523565b604051633d90fc5560e11b8152600490fd5b610160806003193601126103f157610104356125d481610455565b610124356125e181610455565b6101443567ffffffffffffffff81116103f15761260290369060040161147d565b63ffffffff946126158642169586612e95565b9361261e612b8b565b61086b549160ff8360e81c166106ed5761265161265e9661215b610aec9a610d9e9660c01c16996120ff6120dc8c612d12565b86019063ffffffff169052565b61018082015261375e565b634e487b7160e01b600052603260045260246000fd5b61086c9081548110156126bb57600391600052027f71cd7344f4eb2efc8e30291f6dbdb44d618ca368ea5425d217c1d604bf26b84d0190600090565b612669565b346103f15760203660031901126103f15760043561086c548110156103f1576126ea60409161267f565b506001815491015482519182526020820152f35b346103f15760203660031901126103f1576106e660043561271e81610437565b612726612bb1565b61272e612b8b565b612c39565b346103f15760a03660031901126103f15760043561275081610455565b6127c660243561275f81610437565b60443561276b81610437565b6064359061277882610437565b6084359261278584610437565b600054956127aa60ff8860081c161580988199612844575b8115612824575b50612882565b866127bd600160ff196000541617600055565b61280b57612a60565b6127cc57005b6127dc61ff001960005416600055565b604051600181527f7f26b83ff96e1f2b6a682f133852f6798a09c465da95921460cefb384740249890602090a1005b61281f61010061ff00196000541617600055565b612a60565b303b15915081612836575b50386127a4565b6001915060ff16143861282f565b600160ff821610915061279d565b346103f15760203660031901126103f1576106e660043561287281610437565b61287a612bb1565b611d12612b8b565b156103f157565b908160209103126103f1575190565b6040513d6000823e3d90fd5b803b156103f1576001600160a01b037f360894a13ba1a3210667c828492db98dca3e2076cc3735a920a3ca505d382bbc91166001600160a01b0319825416179055565b6128f0816128a4565b6001600160a01b0381167fbc7cd75a20ee27fd9adebab32041f755214dbc6bffa90cc0225b39da2e5c2d3b600080a28151158015906129ad575b612932575050565b6000806129aa937f206661696c65640000000000000000000000000000000000000000000000000060408051612967816104e4565b602781527f416464726573733a206c6f772d6c6576656c2064656c65676174652063616c6c60208201520152602081519101845af46129a4612a07565b91612a37565b50565b50600061292a565b6129be816128a4565b6001600160a01b0381167fbc7cd75a20ee27fd9adebab32041f755214dbc6bffa90cc0225b39da2e5c2d3b600080a28151158015906129ff57612932575050565b50600161292a565b3d15612a32573d90612a18826105ed565b91612a266040519384610570565b82523d6000602084013e565b606090565b9015612a5157815115612a48575090565b3b156103f15790565b5080519081156103f157602001fd5b939192909360009060ff825460081c1615612b3457612a9c9061086b9063ffffffff60c01b1963ffffffff60c01b83549260c01b169116179055565b604051612aa881610492565b6009815260208101916820a1a927a9a996ab1960b91b8352640312e302e360dc1b6020604051612ad781610492565b60058152015260ff815460081c1615612b31575092611d1261045396959361272e93611de49651902061047f557f06c015bd22b4c69690933c1058878ebdfef31f9aaae40bbe86d8a09fe1b2972c61048055611d05612cd7565b80fd5b5080fd5b600460206001600160a01b03610c5a541660405192838092638994588360e01b82525afa908115612b8657600091612b6e575090565b61065b915060203d8111610fb557610fa68183610570565b612898565b6002606554146103f1576002606555565b908160209103126103f1575161065b81610437565b610c5a546040516333f2026760e11b81526001600160a01b0391821691602082600481865afa918215612b8657600092612c09575b508061086954169116149081612bff575b50156103f157565b9050331438612bf7565b612c2b91925060203d8111612c32575b612c238183610570565b810190612b9c565b9038612be6565b503d612c19565b7ff3dc137d2246f9b8abd0bb821e185ba01122c9b3ea3745ffca6208037674d6706020610c5b928354906001600160a01b0380911694856001600160a01b0319841617905560405191168152a2565b7ff4afd54e7ed26702d892bb2e04050d1414c6eb040dde0e9ca2d919f423f360876020610c5a928354906001600160a01b0380911694856001600160a01b0319841617905560405191168152a2565b60ff60005460081c16156103f157565b60ff60005460081c16156103f1576001606555565b634e487b7160e01b600052601160045260246000fd5b63ffffffff809116908114612d275760010190565b612cfc565b9b999897969390959295949194612d41612b8b565b61086b5460ff8160e81c166106ed5760c01c63ffffffff1696612d6388612d12565b612d8a9061086b9063ffffffff60c01b1963ffffffff60c01b83549260c01b169116179055565b612d926105d3565b6001600160a01b039e8f168152918e166020830152958d166040820152948c166060860152608085015260a084015260c083015290971660e088015261010087015263ffffffff166101208601525b63ffffffff1661014085015263ffffffff166101608401523690612e0492610609565b610180820152612e139061375e565b6104536001606555565b9c9a9998979695949392919096612e32612b8b565b60ff61086b5460e81c166106ed57612e4b908e33613680565b96604051809e612e5a826104b3565b81526020015260408d015260608c015260808b015260a08a015260c089015260e088015261010087015263ffffffff16610120860152612de1565b91909163ffffffff80809416911601918211612d2757565b96949290916104539b9a9998969492612ecd63ffffffff42169889612e95565b98612d2c565b908060209392818452848401376000828201840152601f01601f1916010190565b94929093612f199261065b979587526020870152608060408701526080860191612ed3565b926060818503910152612ed3565b919091612f32612b8b565b60ff61086b5460e01c166125a75761014081015163ffffffff4281169116101580612fa4575b61257657612e1392612f69826136bc565b60c083015160208401519061016085015192612f83610592565b958652602086015260408501526060840152608083015260a0820152614954565b50612fb26040820151614c80565b6001600160a01b0316331415612f58565b3561065b81610437565b3561065b81610455565b903590601e19813603018212156103f1570180359067ffffffffffffffff82116103f1576020019181360383136103f157565b97929095939196949761301b612b8b565b60ff61086b5460e01c166125a7576130366101408201612fcd565b63ffffffff80421691161015806130d4575b612576576130bd6130cf966130b5612e139b613067610d183687612331565b9a613070610592565b9b61307b3688612331565b8d5260208d01528660408d01528760608d0152613099368b84610609565b60808d015260a08c01526130ad8535614c80565b983691610609565b953691610609565b9461010060e0830135920135906142ec565b614954565b506130e26040820135614c80565b6001600160a01b0316331415613048565b634e487b7160e01b600052602160045260246000fd5b6003111561311357565b6130f3565b93929160209161313091604087526040870191612ed3565b930152565b908160209103126103f157604051906020820182811067ffffffffffffffff8211176104ae5760405235815290565b9061065b91805182526020810151602083015260408101516040830152606081015160608301526080810151608083015260a081015160a083015260c081015160c083015260e081015160e083015261010080820151908301526131d6610120808301519084019063ffffffff169052565b6101408181015163ffffffff169083015261016080910151916101808092820152019061100e565b61321660409295949395606083526060830190613164565b9460208201520152565b90602061065b92818152019061100e565b6001600160a01b037f00000000000000000000000000000000000000000000000000000000000000008116911681146132675750565b4761326f5750565b4790803b156103f157600090600460405180948193630d0e30db60e41b83525af18015612b8657156129aa57610453906104d0565b916132ad612b8b565b60808201916132c6610a9384516001600160a01b031690565b6020810191825146036133cd576132ee6132f2918360016132e68961267f565b50015461349e565b1590565b6133bb578060607ff4ad92585b1bc117fbdd644990adf0827bc4c95baeae8a23322af807b6d0020e92019361333461332e865163ffffffff1690565b87614293565b6133ae84519483519361339361338561337460408401998a5161335b8d5163ffffffff1690565b89516001600160a01b03169160a088019b8c5194613c85565b925193519851995163ffffffff1690565b94516001600160a01b031690565b945160405195869563ffffffff8091169b1699339487613450565b0390a46104536001606555565b60405163582f497d60e11b8152600490fd5b604051633d23e4d160e11b8152600490fd5b90815180825260208080930193019160005b8281106133ff575050505090565b8351855293810193928101926001016133f1565b90815180825260208080930193019160005b828110613433575050505090565b83516001600160a01b031685529381019392810192600101613425565b949695919361347260a09561349093885260c0602089015260c08801906133df565b906001600160a01b0380951660408801528682036060880152613413565b951515608085015216910152565b61065b929160405161352781613519602082019460208652805160408401526020810151606084015260a06134e3604083015160c060808701526101008601906133df565b606083015163ffffffff168583015260808301516001600160a01b031660c0860152910151838203603f190160e0850152613413565b03601f198101835282610570565b51902091929091906000915b8451831015613580576135468386613597565b519060008282101561356e575060005260205261356860406000205b92613588565b91613533565b60409161356893825260205220613562565b915092501490565b6000198114612d275760010190565b80518210156126bb5760209160051b010190565b60405163a9059cbb60e01b60208201526001600160a01b0390921660248301526044820192909252610453916135ee82606481015b03601f198101845283610570565b6001600160a01b0361364691167f5361666545524332303a206c6f772d6c6576656c2063616c6c206661696c6564602060405161362a81610492565b8181520152600080846020829651910182855af16129a4612a07565b805190811591821561365d575b505015612b315750565b8192509060209181010312612b34576020015161367981611690565b3880613653565b916040519160208301936bffffffffffffffffffffffff199060601b16845260348301526054820152605481526136b681610500565b51902090565b6040516136b6816136d96020820194604086526060830190613164565b46604083015203601f198101835282610570565b91908203918211612d2757565b91908201809211612d2757565b97959492909161065b9a99979492895260208901526040880152606087015263ffffffff928380921660808801521660a08601521660c084015260e08301526101008201526101409081610120820152019061100e565b6137688151614c96565b610120810161378761377e825163ffffffff1690565b63ffffffff1690565b8042109081156139e7575b506139d5576101408201916137ab835163ffffffff1690565b9063ffffffff91826137df817f000000000000000000000000000000000000000000000000000000000000000016426136fa565b9116116139c35761016081015163ffffffff16918083168061397e575b505060408101908151916001600160a01b037f00000000000000000000000000000000000000000000000000000000000000001680931480613975575b15613928576080820151340361391657823b156103f157600060049360405194858092630d0e30db60e41b825234905af1928315612b86577f32ed1a409ef04c7b0227189c3a103dc5ac10e775a15b785dcc510201f7c25ad3936138fd575b505b516138f860608301519260808101519060a081015160c0820151976138d76138cc6101008501519b5163ffffffff1690565b9b5163ffffffff1690565b83519b60208501519361018060e0870151960151966040519a8b9a8b613707565b0390a4565b8061390a613910926104d0565b806103e6565b38613898565b604051636452a35d60e01b8152600490fd5b9150346139165781613970613961611edc7f32ed1a409ef04c7b0227189c3a103dc5ac10e775a15b785dcc510201f7c25ad39551614c80565b60808401519030903390613a20565b61389a565b50341515613839565b6301e1338010156139ae575b5060e08101511561399c5738806137fc565b60405163495d907f60e01b8152600490fd5b916139bc9192421690612e95565b903861398a565b60405163582e388960e01b8152600490fd5b60405163f722177f60e01b8152600490fd5b6139f29150426136ed565b63ffffffff7f0000000000000000000000000000000000000000000000000000000000000000161038613792565b909261045393604051936323b872dd60e01b60208601526001600160a01b0380921660248601521660448401526064830152606482526135ee82610538565b939161065b969593918552600060208601526040850152606084015263ffffffff809116608084015260a0830152600060c083015260e082015260006101008201526101409081610120820152019061100e565b9193949690959660070b906706f05b59d3b20000613ad083613c74565b1015613c62576ec097ce7bc90715b34b9f10000000008411613c505763ffffffff93613afe858a16426136ed565b857f000000000000000000000000000000000000000000000000000000000000000016106139d55761086b5460c01c63ffffffff1698613b406120dc8b612d12565b6001600160a01b039586807f00000000000000000000000000000000000000000000000000000000000000001698169288841480613c47575b15613c0b5780340361391657883b156103f15760006004996040519a8b8092630d0e30db60e41b825234905af1988915612b8657613be56138f8978a927f32ed1a409ef04c7b0227189c3a103dc5ac10e775a15b785dcc510201f7c25ad39c613bf8575b505b836145e8565b92604051998a99169d169b169387613a5f565b8061390a613c05926104d0565b38613bdd565b7f32ed1a409ef04c7b0227189c3a103dc5ac10e775a15b785dcc510201f7c25ad3985087613be56138f897613c428430338a613a20565b613bdf565b50341515613b79565b60405163622db5a960e11b8152600490fd5b60405163284f109760e21b8152600490fd5b6000808212613c81575090565b0390565b919594959390929360009681519081815103613e605781613d05575b50505082613cb0575b50505050565b6001600160a01b0381613ce47ffa7fa7cf6d7dde5f9be65a67e6a1a747e7aa864dcd2d793353c722d80fbbb3579386613e72565b6040805195865233602087015291169463ffffffff1693a438808080613caa565b604080516370a0823160e01b81523060048083019190915291906020816024816001600160a01b038b165afa908115612b8657600091613e42575b506000805b868110613d56575050505050613ca1565b613d608189613597565b51613d74575b613d6f90613588565b613d45565b90613d8a90613d83838a613597565b51906136fa565b90828211613e3257613dc46132ee613db2613da5848a613597565b516001600160a01b031690565b613dbc848c613597565b51908c614169565b15613d66579c5087613e28613e208f613e09613da5613e02613de6848f613597565b51966001600160a01b0316600052610873602052604060002090565b928b613597565b6001600160a01b0316600052602052604060002090565b9182546136fa565b905560019c613d66565b50505051632ddaa83160e11b8152fd5b613e5a915060203d8111610fb557610fa68183610570565b38613d40565b6040516319a5316760e31b8152600490fd5b90613e7b612b38565b6001600160a01b0382811691907f000000000000000000000000000000000000000000000000000000000000000081168303613fab5750613ebf9192503414612882565b613ec934836136fa565b90803b156103f157604051632e1a7d4d60e01b815260048101929092526000908290602490829084905af18015612b8657613f98575b50613f21613f19611edc610c5a546001600160a01b031690565b9134906136fa565b90613f3561086a546001600160a01b031690565b813b156103f157604051634f9e72ad60e11b81526001600160a01b03919091166004820152346024820152606060448201526000606482018190529092909183916084918391905af18015612b8657613f8b5750565b8061390a610453926104d0565b8061390a613fa5926104d0565b38613eff565b807f00000000000000000000000000000000000000000000000000000000000000001683149081614099575b5015613ffc5750505061045390613ff761086a546001600160a01b031690565b614cb1565b61403d9161400e611edc923414612882565b61403085610c5b9261402a611edc85546001600160a01b031690565b906140c5565b546001600160a01b031690565b61086a546001600160a01b031690803b156103f157604051632917540d60e11b81526001600160a01b0393841660048201526024810194909452911660448301526000908290606490829034905af18015612b8657613f8b5750565b90507f000000000000000000000000000000000000000000000000000000000000000016151538613fd7565b91909160405191636eb1769f60e11b83523060048401526020836044816001600160a01b03808916602483015286165afa928315612b8657600093614149575b508201809211612d275760405163095ea7b360e01b60208201526001600160a01b039093166024840152604483019190915261045391906135ee82606481016135e0565b61416291935060203d8111610fb557610fa68183610570565b9138614105565b60405163a9059cbb60e01b60208281019182526001600160a01b039094166024830152604482019490945290926000916141a68160648101613519565b519082855af1903d60005190836141be575b50505090565b919250906141d357503b15155b3880806141b8565b60019150146141cb565b6001600160a01b0316801561422657610869816001600160a01b03198254161790557fa9e8c42c9e7fca7f62755189a16b2f5314d43d8fb24e91ba54e6d65f9314e849600080a2565b60405163ba97b39d60e01b8152600490fd5b6001600160a01b031680156142815761086a816001600160a01b03198254161790557fa73e8909f8616742d7fe701153d82666f7b7cd480552e23ebb05d358c22fd04e600080a2565b604051635b03092b60e11b8152600490fd5b61429e60029161267f565b500162ffffff8260081c168060005281602052600160ff60406000205494161b80809416146142da576000526020526040600020908154179055565b60405163954476d960e01b8152600490fd5b9392604293610453979660208151910120906040519260208401947f8d1994e2bbbd77564cdca06dd819e7ee2a5efa06c80dcb59a4a7b6e39edc538f86526040850152856060850152608084015260a083015260c082015260c0815261435181610554565b5190209061047f549061048054906040519160208301937fc2f8787176b8ac6bf7215b4adcc1e069bf4ab82d9ab1df05a57a91d425935b6e8552604084015260608301526080820152608081526143a781610538565b519020906040519161190160f01b83526002830152602282015220906143cd83836144a2565b60058195929510156131135715938461448c575b508315614405575b505050156143f357565b60405163938a182160e01b8152600490fd5b600092935090829160405161443e816135196020820194630b135d3f60e11b998a8752602484015260406044840152606483019061100e565b51915afa9061444b612a07565b8261447e575b82614461575b50503880806143e9565b61447691925060208082518301019101612889565b143880614457565b915060208251101591614451565b6001600160a01b038381169116149350386143e1565b9060418151146000146144cc57610fe7916020820151906060604084015193015160001a906144d6565b5050600090600290565b9291907f7fffffffffffffffffffffffffffffff5d576e7357a4501ddfe92f46681b20a0831161454c5791608094939160ff602094604051948552168484015260408301526060820152600093849182805260015afa15612b865781516001600160a01b03811615614546579190565b50600190565b50505050600090600390565b916132ee906145d192845160408096015191865191614576836104e4565b8252613527614591602084019246845289850195865261267f565b50549388519283916145b66020840196602088525160608d86015260a0850190613164565b9151606084015251608083015203601f198101835282610570565b6145d85750565b5163582f497d60e11b8152600490fd5b90670de0b6b3a7640000916000828403921283831281169084841390151617612d2757818102918183041490151715612d27570490565b61462882613109565b52565b9a989693919c9b9997959492909c6101e08c019d8c5260208c015260408b015260608a0152608089015263ffffffff80921660a08901521660c087015260e08601526101008501526101208401526101408301528051610160830152602081015161018083015260408101516101a083015260600151906146ab82613109565b6101c00152565b9061065b94936080936001600160a01b0380931684526020840152166040820152816060820152019061100e565b906000825161012081016146f8815163ffffffff1690565b63ffffffff4291161061494257602085015190600261472283600052610872602052604060002090565b5414614930576147476147418593600052610872602052604060002090565b60029055565b60608301517f44b559f101f8fbcc8a0ea43fa91a05a729a5ea6e14a7c75aa750374690137208608085015160a08601519261480f8a60c0890151958960a08301519760e0820151986147a36101008401519b5163ffffffff1690565b61014084015163ffffffff16906040850151928551946147cc6101606020890151980151614c6a565b9760608a01519960406147e26080830151614c6a565b910151906147ee6105e0565b9b8c5260208c015260408b0152600260608b01525b6040519c8d9c8d61462b565b0390a461481f6080820151614c80565b60408501519461483f60806148376060840151614c80565b940151614c80565b6001600160a01b03919082167f000000000000000000000000000000000000000000000000000000000000000083160361491b5760809085614908575b61488888848716614ba5565b01519283511515806148fe575b6148a3575b50505050509050565b1690813b15611d1b57836148d1959660405196879586948593633a5be8cb60e01b85523391600486016146b2565b03925af18015612b86576148eb575b80808080859461489a565b8061390a6148f8926104d0565b386148e0565b50803b1515614895565b614916883033868816613a20565b61487c565b60809061492b88868686166135ab565b614888565b604051630479306360e51b8152600490fd5b60405163d642b7d960e01b8152600490fd5b805191610120830161496a815163ffffffff1690565b63ffffffff42911610614942576020830151600161499382600052610872602052604060002090565b5460009103614b9f57506001905b60026149b882600052610872602052604060002090565b5414614930576147416149d691600052610872602052604060002090565b7f44b559f101f8fbcc8a0ea43fa91a05a729a5ea6e14a7c75aa7503746901372086060860151608087015190614a978760a08a0151958a60c08101519760a08401519860e083015199614a336101008501519c5163ffffffff1690565b61014085015163ffffffff1691604086015193865195614803614a5f61016060208b01519a0151614c6a565b9960608c01519b6040614a756080830151614c6a565b910151906020614a836105e0565b9e8f528e015260408d015260608c0161461f565b0390a4614aa76080830151614c80565b916040820151916080614ac1816148376060850151614c80565b6001600160a01b03929083167f0000000000000000000000000000000000000000000000000000000000000000841603614b8c57614b03853033868a16613a20565b614b0f85848616614ba5565b0151918251151580614b82575b614b28575b5050505050565b16803b156103f157614b57936000809460405196879586948593633a5be8cb60e01b85523391600486016146b2565b03925af18015612b8657614b6f575b80808080614b21565b8061390a614b7c926104d0565b38614b66565b50803b1515614b1c565b614b9a858533868a16613a20565b614b0f565b906149a1565b6001600160a01b039081169190823b15614be55791610453927f0000000000000000000000000000000000000000000000000000000000000000166135ab565b7f00000000000000000000000000000000000000000000000000000000000000001691823b156103f1576040518093632e1a7d4d60e01b82528360048301528160246000968780945af18015612b8657614c5b575b50814710610f88578280809381935af1614c52612a07565b5015612b315750565b614c64906104d0565b38614c3a565b80519081614c79575050600090565b6020012090565b6001600160a01b0390614c9281614c96565b1690565b60a01c614c9f57565b6040516379ec0ed760e11b8152600490fd5b906001600160a01b038092167f000000000000000000000000000000000000000000000000000000000000000090837f00000000000000000000000000000000000000000000000000000000000000001693614d0e8486856140c5565b6040948551926332dd704760e21b845260209560049487818781875afa968715612b86578891600098614f47575b508516948951978880926352b7631960e11b825281614d6d8a8c83019190916001600160a01b036020820193169052565b0392165afa958615612b8657600096614f28575b5095867f0000000000000000000000000000000000000000000000000000000000000000975b614db657505050505050505050565b86811115614f2257865b8815614e7957843b156103f1578951634701287760e11b815287810182815263ffffffff7f0000000000000000000000000000000000000000000000000000000000000000166020820152604081018690526001600160a01b038816606082015260006080820181905260a082018190526107d060c0830152919391908490819060e0010381838a5af1928315612b8657614e6093614e66575b506136ed565b80614da7565b8061390a614e73926104d0565b38614e5a565b89516337e9a82760e11b815287810182815263ffffffff7f0000000000000000000000000000000000000000000000000000000000000000166020820152604081018690526001600160a01b0388166060820152909290849084908190608001038160008a5af1928315612b8657614e6093614ef557506136ed565b614f1490853d8711614f1b575b614f0c8183610570565b810190614f68565b5038614e5a565b503d614f02565b80614dc0565b614f40919650873d8911610fb557610fa68183610570565b9438614d81565b86919850614f6190833d8511612c3257612c238183610570565b9790614d3c565b908160209103126103f1575167ffffffffffffffff811681036103f15790565b90614f92826107a3565b614f9f6040519182610570565b8281528092614fb0601f19916107a3565b019060005b828110614fc157505050565b806060602080938501015201614fb5565b908210156126bb57610fe79160051b810190612fd7565b908092918237016000815290565b6020818303126103f15780519067ffffffffffffffff82116103f1570181601f820112156103f157805161502a816105ed565b926150386040519485610570565b818452602082840101116103f15761065b9160208085019101610feb56fea26469706673582212209402211243f0048c462f65adba4d4f6ae108bb0e0956485d3d53c49be52f020264736f6c63430008130033"
}