{
  "address": "0x18569278F3a7eF1D73e36c5EF30f37D366580C7D",
  "abi": [
    {
      "inputs": [
        {
          "internalType": "address",
          "name": "_wrappedNativeTokenAddress",
          "type": "address"
        },
        {
          "internalType": "uint32",
          "name": "_depositQuoteTimeBuffer",
          "type": "uint32"
        },
        {
          "internalType": "uint32",
          "name": "_fillDeadlineBuffer",
          "type": "uint32"
        },
        {
          "internalType": "contract IERC20",
          "name": "_l2Usdc",
          "type": "address"
        },
        {
          "internalType": "contract ITokenMessenger",
          "name": "_cctpTokenMessenger",
          "type": "address"
        }
      ],
      "stateMutability": "nonpayable",
      "type": "constructor"
    },
    {
      "inputs": [],
      "name": "ClaimedMerkleLeaf",
      "type": "error"
    },
    {
      "inputs": [],
      "name": "DepositsArePaused",
      "type": "error"
    },
    {
      "inputs": [],
      "name": "DisabledRoute",
      "type": "error"
    },
    {
      "inputs": [],
      "name": "ExpiredFillDeadline",
      "type": "error"
    },
    {
      "inputs": [],
      "name": "FillsArePaused",
      "type": "error"
    },
    {
      "inputs": [],
      "name": "InsufficientSpokePoolBalanceToExecuteLeaf",
      "type": "error"
    },
    {
      "inputs": [],
      "name": "InvalidBytes32",
      "type": "error"
    },
    {
      "inputs": [],
      "name": "InvalidChainId",
      "type": "error"
    },
    {
      "inputs": [],
      "name": "InvalidCrossDomainAdmin",
      "type": "error"
    },
    {
      "inputs": [],
      "name": "InvalidDepositorSignature",
      "type": "error"
    },
    {
      "inputs": [],
      "name": "InvalidExclusiveRelayer",
      "type": "error"
    },
    {
      "inputs": [],
      "name": "InvalidFillDeadline",
      "type": "error"
    },
    {
      "inputs": [],
      "name": "InvalidMerkleLeaf",
      "type": "error"
    },
    {
      "inputs": [],
      "name": "InvalidMerkleProof",
      "type": "error"
    },
    {
      "inputs": [],
      "name": "InvalidPayoutAdjustmentPct",
      "type": "error"
    },
    {
      "inputs": [],
      "name": "InvalidQuoteTimestamp",
      "type": "error"
    },
    {
      "inputs": [],
      "name": "InvalidRelayerFeePct",
      "type": "error"
    },
    {
      "inputs": [],
      "name": "InvalidSlowFillRequest",
      "type": "error"
    },
    {
      "inputs": [],
      "name": "InvalidWithdrawalRecipient",
      "type": "error"
    },
    {
      "inputs": [
        {
          "internalType": "bytes",
          "name": "data",
          "type": "bytes"
        }
      ],
      "name": "LowLevelCallFailed",
      "type": "error"
    },
    {
      "inputs": [],
      "name": "MaxTransferSizeExceeded",
      "type": "error"
    },
    {
      "inputs": [],
      "name": "MsgValueDoesNotMatchInputAmount",
      "type": "error"
    },
    {
      "inputs": [],
      "name": "NoRelayerRefundToClaim",
      "type": "error"
    },
    {
      "inputs": [],
      "name": "NoSlowFillsInExclusivityWindow",
      "type": "error"
    },
    {
      "inputs": [],
      "name": "NotEOA",
      "type": "error"
    },
    {
      "inputs": [],
      "name": "NotExclusiveRelayer",
      "type": "error"
    },
    {
      "inputs": [],
      "name": "RelayFilled",
      "type": "error"
    },
    {
      "inputs": [],
      "name": "WrongERC7683OrderId",
      "type": "error"
    },
    {
      "anonymous": false,
      "inputs": [
        {
          "indexed": false,
          "internalType": "address",
          "name": "previousAdmin",
          "type": "address"
        },
        {
          "indexed": false,
          "internalType": "address",
          "name": "newAdmin",
          "type": "address"
        }
      ],
      "name": "AdminChanged",
      "type": "event"
    },
    {
      "anonymous": false,
      "inputs": [
        {
          "indexed": true,
          "internalType": "address",
          "name": "beacon",
          "type": "address"
        }
      ],
      "name": "BeaconUpgraded",
      "type": "event"
    },
    {
      "anonymous": false,
      "inputs": [
        {
          "indexed": true,
          "internalType": "bytes32",
          "name": "l2TokenAddress",
          "type": "bytes32"
        },
        {
          "indexed": true,
          "internalType": "bytes32",
          "name": "refundAddress",
          "type": "bytes32"
        },
        {
          "indexed": false,
          "internalType": "uint256",
          "name": "amount",
          "type": "uint256"
        },
        {
          "indexed": true,
          "internalType": "address",
          "name": "caller",
          "type": "address"
        }
      ],
      "name": "ClaimedRelayerRefund",
      "type": "event"
    },
    {
      "anonymous": false,
      "inputs": [
        {
          "indexed": true,
          "internalType": "uint256",
          "name": "rootBundleId",
          "type": "uint256"
        }
      ],
      "name": "EmergencyDeletedRootBundle",
      "type": "event"
    },
    {
      "anonymous": false,
      "inputs": [
        {
          "indexed": true,
          "internalType": "address",
          "name": "originToken",
          "type": "address"
        },
        {
          "indexed": true,
          "internalType": "uint256",
          "name": "destinationChainId",
          "type": "uint256"
        },
        {
          "indexed": false,
          "internalType": "bool",
          "name": "enabled",
          "type": "bool"
        }
      ],
      "name": "EnabledDepositRoute",
      "type": "event"
    },
    {
      "anonymous": false,
      "inputs": [
        {
          "indexed": false,
          "internalType": "uint256",
          "name": "amountToReturn",
          "type": "uint256"
        },
        {
          "indexed": true,
          "internalType": "uint256",
          "name": "chainId",
          "type": "uint256"
        },
        {
          "indexed": false,
          "internalType": "uint256[]",
          "name": "refundAmounts",
          "type": "uint256[]"
        },
        {
          "indexed": true,
          "internalType": "uint32",
          "name": "rootBundleId",
          "type": "uint32"
        },
        {
          "indexed": true,
          "internalType": "uint32",
          "name": "leafId",
          "type": "uint32"
        },
        {
          "indexed": false,
          "internalType": "address",
          "name": "l2TokenAddress",
          "type": "address"
        },
        {
          "indexed": false,
          "internalType": "address[]",
          "name": "refundAddresses",
          "type": "address[]"
        },
        {
          "indexed": false,
          "internalType": "bool",
          "name": "deferredRefunds",
          "type": "bool"
        },
        {
          "indexed": false,
          "internalType": "address",
          "name": "caller",
          "type": "address"
        }
      ],
      "name": "ExecutedRelayerRefundRoot",
      "type": "event"
    },
    {
      "anonymous": false,
      "inputs": [
        {
          "indexed": false,
          "internalType": "bytes32",
          "name": "inputToken",
          "type": "bytes32"
        },
        {
          "indexed": false,
          "internalType": "bytes32",
          "name": "outputToken",
          "type": "bytes32"
        },
        {
          "indexed": false,
          "internalType": "uint256",
          "name": "inputAmount",
          "type": "uint256"
        },
        {
          "indexed": false,
          "internalType": "uint256",
          "name": "outputAmount",
          "type": "uint256"
        },
        {
          "indexed": false,
          "internalType": "uint256",
          "name": "repaymentChainId",
          "type": "uint256"
        },
        {
          "indexed": true,
          "internalType": "uint256",
          "name": "originChainId",
          "type": "uint256"
        },
        {
          "indexed": true,
          "internalType": "uint256",
          "name": "depositId",
          "type": "uint256"
        },
        {
          "indexed": false,
          "internalType": "uint32",
          "name": "fillDeadline",
          "type": "uint32"
        },
        {
          "indexed": false,
          "internalType": "uint32",
          "name": "exclusivityDeadline",
          "type": "uint32"
        },
        {
          "indexed": false,
          "internalType": "bytes32",
          "name": "exclusiveRelayer",
          "type": "bytes32"
        },
        {
          "indexed": true,
          "internalType": "bytes32",
          "name": "relayer",
          "type": "bytes32"
        },
        {
          "indexed": false,
          "internalType": "bytes32",
          "name": "depositor",
          "type": "bytes32"
        },
        {
          "indexed": false,
          "internalType": "bytes32",
          "name": "recipient",
          "type": "bytes32"
        },
        {
          "indexed": false,
          "internalType": "bytes32",
          "name": "messageHash",
          "type": "bytes32"
        },
        {
          "components": [
            {
              "internalType": "bytes32",
              "name": "updatedRecipient",
              "type": "bytes32"
            },
            {
              "internalType": "bytes32",
              "name": "updatedMessageHash",
              "type": "bytes32"
            },
            {
              "internalType": "uint256",
              "name": "updatedOutputAmount",
              "type": "uint256"
            },
            {
              "internalType": "enum V3SpokePoolInterface.FillType",
              "name": "fillType",
              "type": "uint8"
            }
          ],
          "indexed": false,
          "internalType": "struct V3SpokePoolInterface.V3RelayExecutionEventInfo",
          "name": "relayExecutionInfo",
          "type": "tuple"
        }
      ],
      "name": "FilledRelay",
      "type": "event"
    },
    {
      "anonymous": false,
      "inputs": [
        {
          "indexed": false,
          "internalType": "address",
          "name": "inputToken",
          "type": "address"
        },
        {
          "indexed": false,
          "internalType": "address",
          "name": "outputToken",
          "type": "address"
        },
        {
          "indexed": false,
          "internalType": "uint256",
          "name": "inputAmount",
          "type": "uint256"
        },
        {
          "indexed": false,
          "internalType": "uint256",
          "name": "outputAmount",
          "type": "uint256"
        },
        {
          "indexed": false,
          "internalType": "uint256",
          "name": "repaymentChainId",
          "type": "uint256"
        },
        {
          "indexed": true,
          "internalType": "uint256",
          "name": "originChainId",
          "type": "uint256"
        },
        {
          "indexed": true,
          "internalType": "uint32",
          "name": "depositId",
          "type": "uint32"
        },
        {
          "indexed": false,
          "internalType": "uint32",
          "name": "fillDeadline",
          "type": "uint32"
        },
        {
          "indexed": false,
          "internalType": "uint32",
          "name": "exclusivityDeadline",
          "type": "uint32"
        },
        {
          "indexed": false,
          "internalType": "address",
          "name": "exclusiveRelayer",
          "type": "address"
        },
        {
          "indexed": true,
          "internalType": "address",
          "name": "relayer",
          "type": "address"
        },
        {
          "indexed": false,
          "internalType": "address",
          "name": "depositor",
          "type": "address"
        },
        {
          "indexed": false,
          "internalType": "address",
          "name": "recipient",
          "type": "address"
        },
        {
          "indexed": false,
          "internalType": "bytes",
          "name": "message",
          "type": "bytes"
        },
        {
          "components": [
            {
              "internalType": "address",
              "name": "updatedRecipient",
              "type": "address"
            },
            {
              "internalType": "bytes",
              "name": "updatedMessage",
              "type": "bytes"
            },
            {
              "internalType": "uint256",
              "name": "updatedOutputAmount",
              "type": "uint256"
            },
            {
              "internalType": "enum V3SpokePoolInterface.FillType",
              "name": "fillType",
              "type": "uint8"
            }
          ],
          "indexed": false,
          "internalType": "struct V3SpokePoolInterface.LegacyV3RelayExecutionEventInfo",
          "name": "relayExecutionInfo",
          "type": "tuple"
        }
      ],
      "name": "FilledV3Relay",
      "type": "event"
    },
    {
      "anonymous": false,
      "inputs": [
        {
          "indexed": false,
          "internalType": "bytes32",
          "name": "inputToken",
          "type": "bytes32"
        },
        {
          "indexed": false,
          "internalType": "bytes32",
          "name": "outputToken",
          "type": "bytes32"
        },
        {
          "indexed": false,
          "internalType": "uint256",
          "name": "inputAmount",
          "type": "uint256"
        },
        {
          "indexed": false,
          "internalType": "uint256",
          "name": "outputAmount",
          "type": "uint256"
        },
        {
          "indexed": true,
          "internalType": "uint256",
          "name": "destinationChainId",
          "type": "uint256"
        },
        {
          "indexed": true,
          "internalType": "uint256",
          "name": "depositId",
          "type": "uint256"
        },
        {
          "indexed": false,
          "internalType": "uint32",
          "name": "quoteTimestamp",
          "type": "uint32"
        },
        {
          "indexed": false,
          "internalType": "uint32",
          "name": "fillDeadline",
          "type": "uint32"
        },
        {
          "indexed": false,
          "internalType": "uint32",
          "name": "exclusivityDeadline",
          "type": "uint32"
        },
        {
          "indexed": true,
          "internalType": "bytes32",
          "name": "depositor",
          "type": "bytes32"
        },
        {
          "indexed": false,
          "internalType": "bytes32",
          "name": "recipient",
          "type": "bytes32"
        },
        {
          "indexed": false,
          "internalType": "bytes32",
          "name": "exclusiveRelayer",
          "type": "bytes32"
        },
        {
          "indexed": false,
          "internalType": "bytes",
          "name": "message",
          "type": "bytes"
        }
      ],
      "name": "FundsDeposited",
      "type": "event"
    },
    {
      "anonymous": false,
      "inputs": [
        {
          "indexed": false,
          "internalType": "uint8",
          "name": "version",
          "type": "uint8"
        }
      ],
      "name": "Initialized",
      "type": "event"
    },
    {
      "anonymous": false,
      "inputs": [
        {
          "indexed": false,
          "internalType": "bool",
          "name": "isPaused",
          "type": "bool"
        }
      ],
      "name": "PausedDeposits",
      "type": "event"
    },
    {
      "anonymous": false,
      "inputs": [
        {
          "indexed": false,
          "internalType": "bool",
          "name": "isPaused",
          "type": "bool"
        }
      ],
      "name": "PausedFills",
      "type": "event"
    },
    {
      "anonymous": false,
      "inputs": [
        {
          "indexed": true,
          "internalType": "uint32",
          "name": "rootBundleId",
          "type": "uint32"
        },
        {
          "indexed": true,
          "internalType": "bytes32",
          "name": "relayerRefundRoot",
          "type": "bytes32"
        },
        {
          "indexed": true,
          "internalType": "bytes32",
          "name": "slowRelayRoot",
          "type": "bytes32"
        }
      ],
      "name": "RelayedRootBundle",
      "type": "event"
    },
    {
      "anonymous": false,
      "inputs": [
        {
          "indexed": false,
          "internalType": "bytes32",
          "name": "inputToken",
          "type": "bytes32"
        },
        {
          "indexed": false,
          "internalType": "bytes32",
          "name": "outputToken",
          "type": "bytes32"
        },
        {
          "indexed": false,
          "internalType": "uint256",
          "name": "inputAmount",
          "type": "uint256"
        },
        {
          "indexed": false,
          "internalType": "uint256",
          "name": "outputAmount",
          "type": "uint256"
        },
        {
          "indexed": true,
          "internalType": "uint256",
          "name": "originChainId",
          "type": "uint256"
        },
        {
          "indexed": true,
          "internalType": "uint256",
          "name": "depositId",
          "type": "uint256"
        },
        {
          "indexed": false,
          "internalType": "uint32",
          "name": "fillDeadline",
          "type": "uint32"
        },
        {
          "indexed": false,
          "internalType": "uint32",
          "name": "exclusivityDeadline",
          "type": "uint32"
        },
        {
          "indexed": false,
          "internalType": "bytes32",
          "name": "exclusiveRelayer",
          "type": "bytes32"
        },
        {
          "indexed": false,
          "internalType": "bytes32",
          "name": "depositor",
          "type": "bytes32"
        },
        {
          "indexed": false,
          "internalType": "bytes32",
          "name": "recipient",
          "type": "bytes32"
        },
        {
          "indexed": false,
          "internalType": "bytes32",
          "name": "messageHash",
          "type": "bytes32"
        }
      ],
      "name": "RequestedSlowFill",
      "type": "event"
    },
    {
      "anonymous": false,
      "inputs": [
        {
          "indexed": false,
          "internalType": "uint256",
          "name": "updatedOutputAmount",
          "type": "uint256"
        },
        {
          "indexed": true,
          "internalType": "uint256",
          "name": "depositId",
          "type": "uint256"
        },
        {
          "indexed": true,
          "internalType": "bytes32",
          "name": "depositor",
          "type": "bytes32"
        },
        {
          "indexed": false,
          "internalType": "bytes32",
          "name": "updatedRecipient",
          "type": "bytes32"
        },
        {
          "indexed": false,
          "internalType": "bytes",
          "name": "updatedMessage",
          "type": "bytes"
        },
        {
          "indexed": false,
          "internalType": "bytes",
          "name": "depositorSignature",
          "type": "bytes"
        }
      ],
      "name": "RequestedSpeedUpDeposit",
      "type": "event"
    },
    {
      "anonymous": false,
      "inputs": [
        {
          "indexed": false,
          "internalType": "uint256",
          "name": "updatedOutputAmount",
          "type": "uint256"
        },
        {
          "indexed": true,
          "internalType": "uint32",
          "name": "depositId",
          "type": "uint32"
        },
        {
          "indexed": true,
          "internalType": "address",
          "name": "depositor",
          "type": "address"
        },
        {
          "indexed": false,
          "internalType": "address",
          "name": "updatedRecipient",
          "type": "address"
        },
        {
          "indexed": false,
          "internalType": "bytes",
          "name": "updatedMessage",
          "type": "bytes"
        },
        {
          "indexed": false,
          "internalType": "bytes",
          "name": "depositorSignature",
          "type": "bytes"
        }
      ],
      "name": "RequestedSpeedUpV3Deposit",
      "type": "event"
    },
    {
      "anonymous": false,
      "inputs": [
        {
          "indexed": false,
          "internalType": "address",
          "name": "inputToken",
          "type": "address"
        },
        {
          "indexed": false,
          "internalType": "address",
          "name": "outputToken",
          "type": "address"
        },
        {
          "indexed": false,
          "internalType": "uint256",
          "name": "inputAmount",
          "type": "uint256"
        },
        {
          "indexed": false,
          "internalType": "uint256",
          "name": "outputAmount",
          "type": "uint256"
        },
        {
          "indexed": true,
          "internalType": "uint256",
          "name": "originChainId",
          "type": "uint256"
        },
        {
          "indexed": true,
          "internalType": "uint32",
          "name": "depositId",
          "type": "uint32"
        },
        {
          "indexed": false,
          "internalType": "uint32",
          "name": "fillDeadline",
          "type": "uint32"
        },
        {
          "indexed": false,
          "internalType": "uint32",
          "name": "exclusivityDeadline",
          "type": "uint32"
        },
        {
          "indexed": false,
          "internalType": "address",
          "name": "exclusiveRelayer",
          "type": "address"
        },
        {
          "indexed": false,
          "internalType": "address",
          "name": "depositor",
          "type": "address"
        },
        {
          "indexed": false,
          "internalType": "address",
          "name": "recipient",
          "type": "address"
        },
        {
          "indexed": false,
          "internalType": "bytes",
          "name": "message",
          "type": "bytes"
        }
      ],
      "name": "RequestedV3SlowFill",
      "type": "event"
    },
    {
      "anonymous": false,
      "inputs": [
        {
          "indexed": true,
          "internalType": "address",
          "name": "newMessageService",
          "type": "address"
        },
        {
          "indexed": false,
          "internalType": "address",
          "name": "oldMessageService",
          "type": "address"
        }
      ],
      "name": "SetL2MessageService",
      "type": "event"
    },
    {
      "anonymous": false,
      "inputs": [
        {
          "indexed": true,
          "internalType": "address",
          "name": "newTokenBridge",
          "type": "address"
        },
        {
          "indexed": false,
          "internalType": "address",
          "name": "oldTokenBridge",
          "type": "address"
        }
      ],
      "name": "SetL2TokenBridge",
      "type": "event"
    },
    {
      "anonymous": false,
      "inputs": [
        {
          "indexed": true,
          "internalType": "address",
          "name": "newWithdrawalRecipient",
          "type": "address"
        }
      ],
      "name": "SetWithdrawalRecipient",
      "type": "event"
    },
    {
      "anonymous": false,
      "inputs": [
        {
          "indexed": true,
          "internalType": "address",
          "name": "newAdmin",
          "type": "address"
        }
      ],
      "name": "SetXDomainAdmin",
      "type": "event"
    },
    {
      "anonymous": false,
      "inputs": [
        {
          "indexed": false,
          "internalType": "uint256",
          "name": "amountToReturn",
          "type": "uint256"
        },
        {
          "indexed": true,
          "internalType": "uint256",
          "name": "chainId",
          "type": "uint256"
        },
        {
          "indexed": true,
          "internalType": "uint32",
          "name": "leafId",
          "type": "uint32"
        },
        {
          "indexed": true,
          "internalType": "bytes32",
          "name": "l2TokenAddress",
          "type": "bytes32"
        },
        {
          "indexed": false,
          "internalType": "address",
          "name": "caller",
          "type": "address"
        }
      ],
      "name": "TokensBridged",
      "type": "event"
    },
    {
      "anonymous": false,
      "inputs": [
        {
          "indexed": true,
          "internalType": "address",
          "name": "implementation",
          "type": "address"
        }
      ],
      "name": "Upgraded",
      "type": "event"
    },
    {
      "anonymous": false,
      "inputs": [
        {
          "indexed": false,
          "internalType": "address",
          "name": "inputToken",
          "type": "address"
        },
        {
          "indexed": false,
          "internalType": "address",
          "name": "outputToken",
          "type": "address"
        },
        {
          "indexed": false,
          "internalType": "uint256",
          "name": "inputAmount",
          "type": "uint256"
        },
        {
          "indexed": false,
          "internalType": "uint256",
          "name": "outputAmount",
          "type": "uint256"
        },
        {
          "indexed": true,
          "internalType": "uint256",
          "name": "destinationChainId",
          "type": "uint256"
        },
        {
          "indexed": true,
          "internalType": "uint32",
          "name": "depositId",
          "type": "uint32"
        },
        {
          "indexed": false,
          "internalType": "uint32",
          "name": "quoteTimestamp",
          "type": "uint32"
        },
        {
          "indexed": false,
          "internalType": "uint32",
          "name": "fillDeadline",
          "type": "uint32"
        },
        {
          "indexed": false,
          "internalType": "uint32",
          "name": "exclusivityDeadline",
          "type": "uint32"
        },
        {
          "indexed": true,
          "internalType": "address",
          "name": "depositor",
          "type": "address"
        },
        {
          "indexed": false,
          "internalType": "address",
          "name": "recipient",
          "type": "address"
        },
        {
          "indexed": false,
          "internalType": "address",
          "name": "exclusiveRelayer",
          "type": "address"
        },
        {
          "indexed": false,
          "internalType": "bytes",
          "name": "message",
          "type": "bytes"
        }
      ],
      "name": "V3FundsDeposited",
      "type": "event"
    },
    {
      "inputs": [],
      "name": "EMPTY_RELAYER",
      "outputs": [
        {
          "internalType": "bytes32",
          "name": "",
          "type": "bytes32"
        }
      ],
      "stateMutability": "view",
      "type": "function"
    },
    {
      "inputs": [],
      "name": "EMPTY_REPAYMENT_CHAIN_ID",
      "outputs": [
        {
          "internalType": "uint256",
          "name": "",
          "type": "uint256"
        }
      ],
      "stateMutability": "view",
      "type": "function"
    },
    {
      "inputs": [],
      "name": "INFINITE_FILL_DEADLINE",
      "outputs": [
        {
          "internalType": "uint32",
          "name": "",
          "type": "uint32"
        }
      ],
      "stateMutability": "view",
      "type": "function"
    },
    {
      "inputs": [],
      "name": "MAX_EXCLUSIVITY_PERIOD_SECONDS",
      "outputs": [
        {
          "internalType": "uint32",
          "name": "",
          "type": "uint32"
        }
      ],
      "stateMutability": "view",
      "type": "function"
    },
    {
      "inputs": [],
      "name": "MAX_TRANSFER_SIZE",
      "outputs": [
        {
          "internalType": "uint256",
          "name": "",
          "type": "uint256"
        }
      ],
      "stateMutability": "view",
      "type": "function"
    },
    {
      "inputs": [],
      "name": "UPDATE_ADDRESS_DEPOSIT_DETAILS_HASH",
      "outputs": [
        {
          "internalType": "bytes32",
          "name": "",
          "type": "bytes32"
        }
      ],
      "stateMutability": "view",
      "type": "function"
    },
    {
      "inputs": [],
      "name": "UPDATE_BYTES32_DEPOSIT_DETAILS_HASH",
      "outputs": [
        {
          "internalType": "bytes32",
          "name": "",
          "type": "bytes32"
        }
      ],
      "stateMutability": "view",
      "type": "function"
    },
    {
      "inputs": [
        {
          "internalType": "uint32",
          "name": "_initialDepositId",
          "type": "uint32"
        },
        {
          "internalType": "address",
          "name": "_crossDomainAdmin",
          "type": "address"
        },
        {
          "internalType": "address",
          "name": "_withdrawalRecipient",
          "type": "address"
        }
      ],
      "name": "__SpokePool_init",
      "outputs": [],
      "stateMutability": "nonpayable",
      "type": "function"
    },
    {
      "inputs": [],
      "name": "cctpTokenMessenger",
      "outputs": [
        {
          "internalType": "contract ITokenMessenger",
          "name": "",
          "type": "address"
        }
      ],
      "stateMutability": "view",
      "type": "function"
    },
    {
      "inputs": [],
      "name": "cctpV2",
      "outputs": [
        {
          "internalType": "bool",
          "name": "",
          "type": "bool"
        }
      ],
      "stateMutability": "view",
      "type": "function"
    },
    {
      "inputs": [],
      "name": "chainId",
      "outputs": [
        {
          "internalType": "uint256",
          "name": "",
          "type": "uint256"
        }
      ],
      "stateMutability": "view",
      "type": "function"
    },
    {
      "inputs": [
        {
          "internalType": "bytes32",
          "name": "l2TokenAddress",
          "type": "bytes32"
        },
        {
          "internalType": "bytes32",
          "name": "refundAddress",
          "type": "bytes32"
        }
      ],
      "name": "claimRelayerRefund",
      "outputs": [],
      "stateMutability": "nonpayable",
      "type": "function"
    },
    {
      "inputs": [],
      "name": "crossDomainAdmin",
      "outputs": [
        {
          "internalType": "address",
          "name": "",
          "type": "address"
        }
      ],
      "stateMutability": "view",
      "type": "function"
    },
    {
      "inputs": [
        {
          "internalType": "bytes32",
          "name": "depositor",
          "type": "bytes32"
        },
        {
          "internalType": "bytes32",
          "name": "recipient",
          "type": "bytes32"
        },
        {
          "internalType": "bytes32",
          "name": "inputToken",
          "type": "bytes32"
        },
        {
          "internalType": "bytes32",
          "name": "outputToken",
          "type": "bytes32"
        },
        {
          "internalType": "uint256",
          "name": "inputAmount",
          "type": "uint256"
        },
        {
          "internalType": "uint256",
          "name": "outputAmount",
          "type": "uint256"
        },
        {
          "internalType": "uint256",
          "name": "destinationChainId",
          "type": "uint256"
        },
        {
          "internalType": "bytes32",
          "name": "exclusiveRelayer",
          "type": "bytes32"
        },
        {
          "internalType": "uint32",
          "name": "quoteTimestamp",
          "type": "uint32"
        },
        {
          "internalType": "uint32",
          "name": "fillDeadline",
          "type": "uint32"
        },
        {
          "internalType": "uint32",
          "name": "exclusivityParameter",
          "type": "uint32"
        },
        {
          "internalType": "bytes",
          "name": "message",
          "type": "bytes"
        }
      ],
      "name": "deposit",
      "outputs": [],
      "stateMutability": "payable",
      "type": "function"
    },
    {
      "inputs": [
        {
          "internalType": "address",
          "name": "recipient",
          "type": "address"
        },
        {
          "internalType": "address",
          "name": "originToken",
          "type": "address"
        },
        {
          "internalType": "uint256",
          "name": "amount",
          "type": "uint256"
        },
        {
          "internalType": "uint256",
          "name": "destinationChainId",
          "type": "uint256"
        },
        {
          "internalType": "int64",
          "name": "relayerFeePct",
          "type": "int64"
        },
        {
          "internalType": "uint32",
          "name": "quoteTimestamp",
          "type": "uint32"
        },
        {
          "internalType": "bytes",
          "name": "message",
          "type": "bytes"
        },
        {
          "internalType": "uint256",
          "name": "",
          "type": "uint256"
        }
      ],
      "name": "depositDeprecated_5947912356",
      "outputs": [],
      "stateMutability": "payable",
      "type": "function"
    },
    {
      "inputs": [
        {
          "internalType": "address",
          "name": "depositor",
          "type": "address"
        },
        {
          "internalType": "address",
          "name": "recipient",
          "type": "address"
        },
        {
          "internalType": "address",
          "name": "originToken",
          "type": "address"
        },
        {
          "internalType": "uint256",
          "name": "amount",
          "type": "uint256"
        },
        {
          "internalType": "uint256",
          "name": "destinationChainId",
          "type": "uint256"
        },
        {
          "internalType": "int64",
          "name": "relayerFeePct",
          "type": "int64"
        },
        {
          "internalType": "uint32",
          "name": "quoteTimestamp",
          "type": "uint32"
        },
        {
          "internalType": "bytes",
          "name": "message",
          "type": "bytes"
        },
        {
          "internalType": "uint256",
          "name": "",
          "type": "uint256"
        }
      ],
      "name": "depositFor",
      "outputs": [],
      "stateMutability": "payable",
      "type": "function"
    },
    {
      "inputs": [
        {
          "internalType": "bytes32",
          "name": "depositor",
          "type": "bytes32"
        },
        {
          "internalType": "bytes32",
          "name": "recipient",
          "type": "bytes32"
        },
        {
          "internalType": "bytes32",
          "name": "inputToken",
          "type": "bytes32"
        },
        {
          "internalType": "bytes32",
          "name": "outputToken",
          "type": "bytes32"
        },
        {
          "internalType": "uint256",
          "name": "inputAmount",
          "type": "uint256"
        },
        {
          "internalType": "uint256",
          "name": "outputAmount",
          "type": "uint256"
        },
        {
          "internalType": "uint256",
          "name": "destinationChainId",
          "type": "uint256"
        },
        {
          "internalType": "bytes32",
          "name": "exclusiveRelayer",
          "type": "bytes32"
        },
        {
          "internalType": "uint32",
          "name": "fillDeadlineOffset",
          "type": "uint32"
        },
        {
          "internalType": "uint32",
          "name": "exclusivityParameter",
          "type": "uint32"
        },
        {
          "internalType": "bytes",
          "name": "message",
          "type": "bytes"
        }
      ],
      "name": "depositNow",
      "outputs": [],
      "stateMutability": "payable",
      "type": "function"
    },
    {
      "inputs": [],
      "name": "depositQuoteTimeBuffer",
      "outputs": [
        {
          "internalType": "uint32",
          "name": "",
          "type": "uint32"
        }
      ],
      "stateMutability": "view",
      "type": "function"
    },
    {
      "inputs": [
        {
          "internalType": "address",
          "name": "depositor",
          "type": "address"
        },
        {
          "internalType": "address",
          "name": "recipient",
          "type": "address"
        },
        {
          "internalType": "address",
          "name": "inputToken",
          "type": "address"
        },
        {
          "internalType": "address",
          "name": "outputToken",
          "type": "address"
        },
        {
          "internalType": "uint256",
          "name": "inputAmount",
          "type": "uint256"
        },
        {
          "internalType": "uint256",
          "name": "outputAmount",
          "type": "uint256"
        },
        {
          "internalType": "uint256",
          "name": "destinationChainId",
          "type": "uint256"
        },
        {
          "internalType": "address",
          "name": "exclusiveRelayer",
          "type": "address"
        },
        {
          "internalType": "uint32",
          "name": "quoteTimestamp",
          "type": "uint32"
        },
        {
          "internalType": "uint32",
          "name": "fillDeadline",
          "type": "uint32"
        },
        {
          "internalType": "uint32",
          "name": "exclusivityParameter",
          "type": "uint32"
        },
        {
          "internalType": "bytes",
          "name": "message",
          "type": "bytes"
        }
      ],
      "name": "depositV3",
      "outputs": [],
      "stateMutability": "payable",
      "type": "function"
    },
    {
      "inputs": [
        {
          "internalType": "address",
          "name": "depositor",
          "type": "address"
        },
        {
          "internalType": "address",
          "name": "recipient",
          "type": "address"
        },
        {
          "internalType": "address",
          "name": "inputToken",
          "type": "address"
        },
        {
          "internalType": "address",
          "name": "outputToken",
          "type": "address"
        },
        {
          "internalType": "uint256",
          "name": "inputAmount",
          "type": "uint256"
        },
        {
          "internalType": "uint256",
          "name": "outputAmount",
          "type": "uint256"
        },
        {
          "internalType": "uint256",
          "name": "destinationChainId",
          "type": "uint256"
        },
        {
          "internalType": "address",
          "name": "exclusiveRelayer",
          "type": "address"
        },
        {
          "internalType": "uint32",
          "name": "fillDeadlineOffset",
          "type": "uint32"
        },
        {
          "internalType": "uint32",
          "name": "exclusivityParameter",
          "type": "uint32"
        },
        {
          "internalType": "bytes",
          "name": "message",
          "type": "bytes"
        }
      ],
      "name": "depositV3Now",
      "outputs": [],
      "stateMutability": "payable",
      "type": "function"
    },
    {
      "inputs": [
        {
          "internalType": "uint256",
          "name": "rootBundleId",
          "type": "uint256"
        }
      ],
      "name": "emergencyDeleteRootBundle",
      "outputs": [],
      "stateMutability": "nonpayable",
      "type": "function"
    },
    {
      "inputs": [
        {
          "internalType": "address",
          "name": "",
          "type": "address"
        },
        {
          "internalType": "uint256",
          "name": "",
          "type": "uint256"
        }
      ],
      "name": "enabledDepositRoutes",
      "outputs": [
        {
          "internalType": "bool",
          "name": "",
          "type": "bool"
        }
      ],
      "stateMutability": "view",
      "type": "function"
    },
    {
      "inputs": [
        {
          "internalType": "uint32",
          "name": "rootBundleId",
          "type": "uint32"
        },
        {
          "components": [
            {
              "internalType": "uint256",
              "name": "amountToReturn",
              "type": "uint256"
            },
            {
              "internalType": "uint256",
              "name": "chainId",
              "type": "uint256"
            },
            {
              "internalType": "uint256[]",
              "name": "refundAmounts",
              "type": "uint256[]"
            },
            {
              "internalType": "uint32",
              "name": "leafId",
              "type": "uint32"
            },
            {
              "internalType": "address",
              "name": "l2TokenAddress",
              "type": "address"
            },
            {
              "internalType": "address[]",
              "name": "refundAddresses",
              "type": "address[]"
            }
          ],
          "internalType": "struct SpokePoolInterface.RelayerRefundLeaf",
          "name": "relayerRefundLeaf",
          "type": "tuple"
        },
        {
          "internalType": "bytes32[]",
          "name": "proof",
          "type": "bytes32[]"
        }
      ],
      "name": "executeRelayerRefundLeaf",
      "outputs": [],
      "stateMutability": "payable",
      "type": "function"
    },
    {
      "inputs": [
        {
          "components": [
            {
              "components": [
                {
                  "internalType": "bytes32",
                  "name": "depositor",
                  "type": "bytes32"
                },
                {
                  "internalType": "bytes32",
                  "name": "recipient",
                  "type": "bytes32"
                },
                {
                  "internalType": "bytes32",
                  "name": "exclusiveRelayer",
                  "type": "bytes32"
                },
                {
                  "internalType": "bytes32",
                  "name": "inputToken",
                  "type": "bytes32"
                },
                {
                  "internalType": "bytes32",
                  "name": "outputToken",
                  "type": "bytes32"
                },
                {
                  "internalType": "uint256",
                  "name": "inputAmount",
                  "type": "uint256"
                },
                {
                  "internalType": "uint256",
                  "name": "outputAmount",
                  "type": "uint256"
                },
                {
                  "internalType": "uint256",
                  "name": "originChainId",
                  "type": "uint256"
                },
                {
                  "internalType": "uint256",
                  "name": "depositId",
                  "type": "uint256"
                },
                {
                  "internalType": "uint32",
                  "name": "fillDeadline",
                  "type": "uint32"
                },
                {
                  "internalType": "uint32",
                  "name": "exclusivityDeadline",
                  "type": "uint32"
                },
                {
                  "internalType": "bytes",
                  "name": "message",
                  "type": "bytes"
                }
              ],
              "internalType": "struct V3SpokePoolInterface.V3RelayData",
              "name": "relayData",
              "type": "tuple"
            },
            {
              "internalType": "uint256",
              "name": "chainId",
              "type": "uint256"
            },
            {
              "internalType": "uint256",
              "name": "updatedOutputAmount",
              "type": "uint256"
            }
          ],
          "internalType": "struct V3SpokePoolInterface.V3SlowFill",
          "name": "slowFillLeaf",
          "type": "tuple"
        },
        {
          "internalType": "uint32",
          "name": "rootBundleId",
          "type": "uint32"
        },
        {
          "internalType": "bytes32[]",
          "name": "proof",
          "type": "bytes32[]"
        }
      ],
      "name": "executeSlowRelayLeaf",
      "outputs": [],
      "stateMutability": "nonpayable",
      "type": "function"
    },
    {
      "inputs": [
        {
          "internalType": "bytes32",
          "name": "orderId",
          "type": "bytes32"
        },
        {
          "internalType": "bytes",
          "name": "originData",
          "type": "bytes"
        },
        {
          "internalType": "bytes",
          "name": "fillerData",
          "type": "bytes"
        }
      ],
      "name": "fill",
      "outputs": [],
      "stateMutability": "nonpayable",
      "type": "function"
    },
    {
      "inputs": [],
      "name": "fillDeadlineBuffer",
      "outputs": [
        {
          "internalType": "uint32",
          "name": "",
          "type": "uint32"
        }
      ],
      "stateMutability": "view",
      "type": "function"
    },
    {
      "inputs": [
        {
          "components": [
            {
              "internalType": "bytes32",
              "name": "depositor",
              "type": "bytes32"
            },
            {
              "internalType": "bytes32",
              "name": "recipient",
              "type": "bytes32"
            },
            {
              "internalType": "bytes32",
              "name": "exclusiveRelayer",
              "type": "bytes32"
            },
            {
              "internalType": "bytes32",
              "name": "inputToken",
              "type": "bytes32"
            },
            {
              "internalType": "bytes32",
              "name": "outputToken",
              "type": "bytes32"
            },
            {
              "internalType": "uint256",
              "name": "inputAmount",
              "type": "uint256"
            },
            {
              "internalType": "uint256",
              "name": "outputAmount",
              "type": "uint256"
            },
            {
              "internalType": "uint256",
              "name": "originChainId",
              "type": "uint256"
            },
            {
              "internalType": "uint256",
              "name": "depositId",
              "type": "uint256"
            },
            {
              "internalType": "uint32",
              "name": "fillDeadline",
              "type": "uint32"
            },
            {
              "internalType": "uint32",
              "name": "exclusivityDeadline",
              "type": "uint32"
            },
            {
              "internalType": "bytes",
              "name": "message",
              "type": "bytes"
            }
          ],
          "internalType": "struct V3SpokePoolInterface.V3RelayData",
          "name": "relayData",
          "type": "tuple"
        },
        {
          "internalType": "uint256",
          "name": "repaymentChainId",
          "type": "uint256"
        },
        {
          "internalType": "bytes32",
          "name": "repaymentAddress",
          "type": "bytes32"
        }
      ],
      "name": "fillRelay",
      "outputs": [],
      "stateMutability": "nonpayable",
      "type": "function"
    },
    {
      "inputs": [
        {
          "components": [
            {
              "internalType": "bytes32",
              "name": "depositor",
              "type": "bytes32"
            },
            {
              "internalType": "bytes32",
              "name": "recipient",
              "type": "bytes32"
            },
            {
              "internalType": "bytes32",
              "name": "exclusiveRelayer",
              "type": "bytes32"
            },
            {
              "internalType": "bytes32",
              "name": "inputToken",
              "type": "bytes32"
            },
            {
              "internalType": "bytes32",
              "name": "outputToken",
              "type": "bytes32"
            },
            {
              "internalType": "uint256",
              "name": "inputAmount",
              "type": "uint256"
            },
            {
              "internalType": "uint256",
              "name": "outputAmount",
              "type": "uint256"
            },
            {
              "internalType": "uint256",
              "name": "originChainId",
              "type": "uint256"
            },
            {
              "internalType": "uint256",
              "name": "depositId",
              "type": "uint256"
            },
            {
              "internalType": "uint32",
              "name": "fillDeadline",
              "type": "uint32"
            },
            {
              "internalType": "uint32",
              "name": "exclusivityDeadline",
              "type": "uint32"
            },
            {
              "internalType": "bytes",
              "name": "message",
              "type": "bytes"
            }
          ],
          "internalType": "struct V3SpokePoolInterface.V3RelayData",
          "name": "relayData",
          "type": "tuple"
        },
        {
          "internalType": "uint256",
          "name": "repaymentChainId",
          "type": "uint256"
        },
        {
          "internalType": "bytes32",
          "name": "repaymentAddress",
          "type": "bytes32"
        },
        {
          "internalType": "uint256",
          "name": "updatedOutputAmount",
          "type": "uint256"
        },
        {
          "internalType": "bytes32",
          "name": "updatedRecipient",
          "type": "bytes32"
        },
        {
          "internalType": "bytes",
          "name": "updatedMessage",
          "type": "bytes"
        },
        {
          "internalType": "bytes",
          "name": "depositorSignature",
          "type": "bytes"
        }
      ],
      "name": "fillRelayWithUpdatedDeposit",
      "outputs": [],
      "stateMutability": "nonpayable",
      "type": "function"
    },
    {
      "inputs": [
        {
          "internalType": "bytes32",
          "name": "",
          "type": "bytes32"
        }
      ],
      "name": "fillStatuses",
      "outputs": [
        {
          "internalType": "uint256",
          "name": "",
          "type": "uint256"
        }
      ],
      "stateMutability": "view",
      "type": "function"
    },
    {
      "inputs": [
        {
          "components": [
            {
              "internalType": "address",
              "name": "depositor",
              "type": "address"
            },
            {
              "internalType": "address",
              "name": "recipient",
              "type": "address"
            },
            {
              "internalType": "address",
              "name": "exclusiveRelayer",
              "type": "address"
            },
            {
              "internalType": "address",
              "name": "inputToken",
              "type": "address"
            },
            {
              "internalType": "address",
              "name": "outputToken",
              "type": "address"
            },
            {
              "internalType": "uint256",
              "name": "inputAmount",
              "type": "uint256"
            },
            {
              "internalType": "uint256",
              "name": "outputAmount",
              "type": "uint256"
            },
            {
              "internalType": "uint256",
              "name": "originChainId",
              "type": "uint256"
            },
            {
              "internalType": "uint32",
              "name": "depositId",
              "type": "uint32"
            },
            {
              "internalType": "uint32",
              "name": "fillDeadline",
              "type": "uint32"
            },
            {
              "internalType": "uint32",
              "name": "exclusivityDeadline",
              "type": "uint32"
            },
            {
              "internalType": "bytes",
              "name": "message",
              "type": "bytes"
            }
          ],
          "internalType": "struct V3SpokePoolInterface.V3RelayDataLegacy",
          "name": "relayData",
          "type": "tuple"
        },
        {
          "internalType": "uint256",
          "name": "repaymentChainId",
          "type": "uint256"
        }
      ],
      "name": "fillV3Relay",
      "outputs": [],
      "stateMutability": "nonpayable",
      "type": "function"
    },
    {
      "inputs": [],
      "name": "getCurrentTime",
      "outputs": [
        {
          "internalType": "uint256",
          "name": "",
          "type": "uint256"
        }
      ],
      "stateMutability": "view",
      "type": "function"
    },
    {
      "inputs": [
        {
          "internalType": "address",
          "name": "l2TokenAddress",
          "type": "address"
        },
        {
          "internalType": "address",
          "name": "refundAddress",
          "type": "address"
        }
      ],
      "name": "getRelayerRefund",
      "outputs": [
        {
          "internalType": "uint256",
          "name": "",
          "type": "uint256"
        }
      ],
      "stateMutability": "view",
      "type": "function"
    },
    {
      "inputs": [
        {
          "internalType": "address",
          "name": "msgSender",
          "type": "address"
        },
        {
          "internalType": "bytes32",
          "name": "depositor",
          "type": "bytes32"
        },
        {
          "internalType": "uint256",
          "name": "depositNonce",
          "type": "uint256"
        }
      ],
      "name": "getUnsafeDepositId",
      "outputs": [
        {
          "internalType": "uint256",
          "name": "",
          "type": "uint256"
        }
      ],
      "stateMutability": "pure",
      "type": "function"
    },
    {
      "inputs": [
        {
          "components": [
            {
              "internalType": "bytes32",
              "name": "depositor",
              "type": "bytes32"
            },
            {
              "internalType": "bytes32",
              "name": "recipient",
              "type": "bytes32"
            },
            {
              "internalType": "bytes32",
              "name": "exclusiveRelayer",
              "type": "bytes32"
            },
            {
              "internalType": "bytes32",
              "name": "inputToken",
              "type": "bytes32"
            },
            {
              "internalType": "bytes32",
              "name": "outputToken",
              "type": "bytes32"
            },
            {
              "internalType": "uint256",
              "name": "inputAmount",
              "type": "uint256"
            },
            {
              "internalType": "uint256",
              "name": "outputAmount",
              "type": "uint256"
            },
            {
              "internalType": "uint256",
              "name": "originChainId",
              "type": "uint256"
            },
            {
              "internalType": "uint256",
              "name": "depositId",
              "type": "uint256"
            },
            {
              "internalType": "uint32",
              "name": "fillDeadline",
              "type": "uint32"
            },
            {
              "internalType": "uint32",
              "name": "exclusivityDeadline",
              "type": "uint32"
            },
            {
              "internalType": "bytes",
              "name": "message",
              "type": "bytes"
            }
          ],
          "internalType": "struct V3SpokePoolInterface.V3RelayData",
          "name": "relayData",
          "type": "tuple"
        }
      ],
      "name": "getV3RelayHash",
      "outputs": [
        {
          "internalType": "bytes32",
          "name": "",
          "type": "bytes32"
        }
      ],
      "stateMutability": "view",
      "type": "function"
    },
    {
      "inputs": [
        {
          "internalType": "uint32",
          "name": "_initialDepositId",
          "type": "uint32"
        },
        {
          "internalType": "contract IMessageService",
          "name": "_l2MessageService",
          "type": "address"
        },
        {
          "internalType": "contract ITokenBridge",
          "name": "_l2TokenBridge",
          "type": "address"
        },
        {
          "internalType": "address",
          "name": "_crossDomainAdmin",
          "type": "address"
        },
        {
          "internalType": "address",
          "name": "_withdrawalRecipient",
          "type": "address"
        }
      ],
      "name": "initialize",
      "outputs": [],
      "stateMutability": "nonpayable",
      "type": "function"
    },
    {
      "inputs": [],
      "name": "l2MessageService",
      "outputs": [
        {
          "internalType": "contract IMessageService",
          "name": "",
          "type": "address"
        }
      ],
      "stateMutability": "view",
      "type": "function"
    },
    {
      "inputs": [],
      "name": "l2TokenBridge",
      "outputs": [
        {
          "internalType": "contract ITokenBridge",
          "name": "",
          "type": "address"
        }
      ],
      "stateMutability": "view",
      "type": "function"
    },
    {
      "inputs": [],
      "name": "minimumFeeInWei",
      "outputs": [
        {
          "internalType": "uint256",
          "name": "",
          "type": "uint256"
        }
      ],
      "stateMutability": "view",
      "type": "function"
    },
    {
      "inputs": [
        {
          "internalType": "bytes[]",
          "name": "data",
          "type": "bytes[]"
        }
      ],
      "name": "multicall",
      "outputs": [
        {
          "internalType": "bytes[]",
          "name": "results",
          "type": "bytes[]"
        }
      ],
      "stateMutability": "nonpayable",
      "type": "function"
    },
    {
      "inputs": [],
      "name": "numberOfDeposits",
      "outputs": [
        {
          "internalType": "uint32",
          "name": "",
          "type": "uint32"
        }
      ],
      "stateMutability": "view",
      "type": "function"
    },
    {
      "inputs": [
        {
          "internalType": "bool",
          "name": "pause",
          "type": "bool"
        }
      ],
      "name": "pauseDeposits",
      "outputs": [],
      "stateMutability": "nonpayable",
      "type": "function"
    },
    {
      "inputs": [
        {
          "internalType": "bool",
          "name": "pause",
          "type": "bool"
        }
      ],
      "name": "pauseFills",
      "outputs": [],
      "stateMutability": "nonpayable",
      "type": "function"
    },
    {
      "inputs": [],
      "name": "pausedDeposits",
      "outputs": [
        {
          "internalType": "bool",
          "name": "",
          "type": "bool"
        }
      ],
      "stateMutability": "view",
      "type": "function"
    },
    {
      "inputs": [],
      "name": "pausedFills",
      "outputs": [
        {
          "internalType": "bool",
          "name": "",
          "type": "bool"
        }
      ],
      "stateMutability": "view",
      "type": "function"
    },
    {
      "inputs": [],
      "name": "proxiableUUID",
      "outputs": [
        {
          "internalType": "bytes32",
          "name": "",
          "type": "bytes32"
        }
      ],
      "stateMutability": "view",
      "type": "function"
    },
    {
      "inputs": [],
      "name": "recipientCircleDomainId",
      "outputs": [
        {
          "internalType": "uint32",
          "name": "",
          "type": "uint32"
        }
      ],
      "stateMutability": "view",
      "type": "function"
    },
    {
      "inputs": [
        {
          "internalType": "bytes32",
          "name": "relayerRefundRoot",
          "type": "bytes32"
        },
        {
          "internalType": "bytes32",
          "name": "slowRelayRoot",
          "type": "bytes32"
        }
      ],
      "name": "relayRootBundle",
      "outputs": [],
      "stateMutability": "nonpayable",
      "type": "function"
    },
    {
      "inputs": [
        {
          "internalType": "address",
          "name": "",
          "type": "address"
        },
        {
          "internalType": "address",
          "name": "",
          "type": "address"
        }
      ],
      "name": "relayerRefund",
      "outputs": [
        {
          "internalType": "uint256",
          "name": "",
          "type": "uint256"
        }
      ],
      "stateMutability": "view",
      "type": "function"
    },
    {
      "inputs": [
        {
          "components": [
            {
              "internalType": "bytes32",
              "name": "depositor",
              "type": "bytes32"
            },
            {
              "internalType": "bytes32",
              "name": "recipient",
              "type": "bytes32"
            },
            {
              "internalType": "bytes32",
              "name": "exclusiveRelayer",
              "type": "bytes32"
            },
            {
              "internalType": "bytes32",
              "name": "inputToken",
              "type": "bytes32"
            },
            {
              "internalType": "bytes32",
              "name": "outputToken",
              "type": "bytes32"
            },
            {
              "internalType": "uint256",
              "name": "inputAmount",
              "type": "uint256"
            },
            {
              "internalType": "uint256",
              "name": "outputAmount",
              "type": "uint256"
            },
            {
              "internalType": "uint256",
              "name": "originChainId",
              "type": "uint256"
            },
            {
              "internalType": "uint256",
              "name": "depositId",
              "type": "uint256"
            },
            {
              "internalType": "uint32",
              "name": "fillDeadline",
              "type": "uint32"
            },
            {
              "internalType": "uint32",
              "name": "exclusivityDeadline",
              "type": "uint32"
            },
            {
              "internalType": "bytes",
              "name": "message",
              "type": "bytes"
            }
          ],
          "internalType": "struct V3SpokePoolInterface.V3RelayData",
          "name": "relayData",
          "type": "tuple"
        }
      ],
      "name": "requestSlowFill",
      "outputs": [],
      "stateMutability": "nonpayable",
      "type": "function"
    },
    {
      "inputs": [
        {
          "internalType": "uint256",
          "name": "",
          "type": "uint256"
        }
      ],
      "name": "rootBundles",
      "outputs": [
        {
          "internalType": "bytes32",
          "name": "slowRelayRoot",
          "type": "bytes32"
        },
        {
          "internalType": "bytes32",
          "name": "relayerRefundRoot",
          "type": "bytes32"
        }
      ],
      "stateMutability": "view",
      "type": "function"
    },
    {
      "inputs": [
        {
          "internalType": "address",
          "name": "newCrossDomainAdmin",
          "type": "address"
        }
      ],
      "name": "setCrossDomainAdmin",
      "outputs": [],
      "stateMutability": "nonpayable",
      "type": "function"
    },
    {
      "inputs": [
        {
          "internalType": "address",
          "name": "originToken",
          "type": "address"
        },
        {
          "internalType": "uint256",
          "name": "destinationChainId",
          "type": "uint256"
        },
        {
          "internalType": "bool",
          "name": "enabled",
          "type": "bool"
        }
      ],
      "name": "setEnableRoute",
      "outputs": [],
      "stateMutability": "nonpayable",
      "type": "function"
    },
    {
      "inputs": [
        {
          "internalType": "contract IMessageService",
          "name": "_l2MessageService",
          "type": "address"
        }
      ],
      "name": "setL2MessageService",
      "outputs": [],
      "stateMutability": "nonpayable",
      "type": "function"
    },
    {
      "inputs": [
        {
          "internalType": "contract ITokenBridge",
          "name": "_l2TokenBridge",
          "type": "address"
        }
      ],
      "name": "setL2TokenBridge",
      "outputs": [],
      "stateMutability": "nonpayable",
      "type": "function"
    },
    {
      "inputs": [
        {
          "internalType": "address",
          "name": "newWithdrawalRecipient",
          "type": "address"
        }
      ],
      "name": "setWithdrawalRecipient",
      "outputs": [],
      "stateMutability": "nonpayable",
      "type": "function"
    },
    {
      "inputs": [
        {
          "internalType": "bytes32",
          "name": "depositor",
          "type": "bytes32"
        },
        {
          "internalType": "uint256",
          "name": "depositId",
          "type": "uint256"
        },
        {
          "internalType": "uint256",
          "name": "updatedOutputAmount",
          "type": "uint256"
        },
        {
          "internalType": "bytes32",
          "name": "updatedRecipient",
          "type": "bytes32"
        },
        {
          "internalType": "bytes",
          "name": "updatedMessage",
          "type": "bytes"
        },
        {
          "internalType": "bytes",
          "name": "depositorSignature",
          "type": "bytes"
        }
      ],
      "name": "speedUpDeposit",
      "outputs": [],
      "stateMutability": "nonpayable",
      "type": "function"
    },
    {
      "inputs": [
        {
          "internalType": "address",
          "name": "depositor",
          "type": "address"
        },
        {
          "internalType": "uint256",
          "name": "depositId",
          "type": "uint256"
        },
        {
          "internalType": "uint256",
          "name": "updatedOutputAmount",
          "type": "uint256"
        },
        {
          "internalType": "address",
          "name": "updatedRecipient",
          "type": "address"
        },
        {
          "internalType": "bytes",
          "name": "updatedMessage",
          "type": "bytes"
        },
        {
          "internalType": "bytes",
          "name": "depositorSignature",
          "type": "bytes"
        }
      ],
      "name": "speedUpV3Deposit",
      "outputs": [],
      "stateMutability": "nonpayable",
      "type": "function"
    },
    {
      "inputs": [
        {
          "internalType": "bytes[]",
          "name": "data",
          "type": "bytes[]"
        }
      ],
      "name": "tryMulticall",
      "outputs": [
        {
          "components": [
            {
              "internalType": "bool",
              "name": "success",
              "type": "bool"
            },
            {
              "internalType": "bytes",
              "name": "returnData",
              "type": "bytes"
            }
          ],
          "internalType": "struct MultiCallerUpgradeable.Result[]",
          "name": "results",
          "type": "tuple[]"
        }
      ],
      "stateMutability": "nonpayable",
      "type": "function"
    },
    {
      "inputs": [
        {
          "internalType": "bytes32",
          "name": "depositor",
          "type": "bytes32"
        },
        {
          "internalType": "bytes32",
          "name": "recipient",
          "type": "bytes32"
        },
        {
          "internalType": "bytes32",
          "name": "inputToken",
          "type": "bytes32"
        },
        {
          "internalType": "bytes32",
          "name": "outputToken",
          "type": "bytes32"
        },
        {
          "internalType": "uint256",
          "name": "inputAmount",
          "type": "uint256"
        },
        {
          "internalType": "uint256",
          "name": "outputAmount",
          "type": "uint256"
        },
        {
          "internalType": "uint256",
          "name": "destinationChainId",
          "type": "uint256"
        },
        {
          "internalType": "bytes32",
          "name": "exclusiveRelayer",
          "type": "bytes32"
        },
        {
          "internalType": "uint256",
          "name": "depositNonce",
          "type": "uint256"
        },
        {
          "internalType": "uint32",
          "name": "quoteTimestamp",
          "type": "uint32"
        },
        {
          "internalType": "uint32",
          "name": "fillDeadline",
          "type": "uint32"
        },
        {
          "internalType": "uint32",
          "name": "exclusivityParameter",
          "type": "uint32"
        },
        {
          "internalType": "bytes",
          "name": "message",
          "type": "bytes"
        }
      ],
      "name": "unsafeDeposit",
      "outputs": [],
      "stateMutability": "payable",
      "type": "function"
    },
    {
      "inputs": [
        {
          "internalType": "address",
          "name": "newImplementation",
          "type": "address"
        }
      ],
      "name": "upgradeTo",
      "outputs": [],
      "stateMutability": "nonpayable",
      "type": "function"
    },
    {
      "inputs": [
        {
          "internalType": "address",
          "name": "newImplementation",
          "type": "address"
        },
        {
          "internalType": "bytes",
          "name": "data",
          "type": "bytes"
        }
      ],
      "name": "upgradeToAndCall",
      "outputs": [],
      "stateMutability": "payable",
      "type": "function"
    },
    {
      "inputs": [],
      "name": "usdcToken",
      "outputs": [
        {
          "internalType": "contract IERC20",
          "name": "",
          "type": "address"
        }
      ],
      "stateMutability": "view",
      "type": "function"
    },
    {
      "inputs": [],
      "name": "withdrawalRecipient",
      "outputs": [
        {
          "internalType": "address",
          "name": "",
          "type": "address"
        }
      ],
      "stateMutability": "view",
      "type": "function"
    },
    {
      "inputs": [],
      "name": "wrappedNativeToken",
      "outputs": [
        {
          "internalType": "contract WETH9Interface",
          "name": "",
          "type": "address"
        }
      ],
      "stateMutability": "view",
      "type": "function"
    },
    {
      "stateMutability": "payable",
      "type": "receive"
    }
  ],
  "numDeployments": 11,
  "solcInputHash": "5a7ad36e5409ab17acc3f1613e73658c",
  "bytecode": "0x61018060409080825234620002d85760a081620056c08038038091620000268285620002dd565b833981010312620002d85780516001600160a01b0380821691829003620002d8576020936200005785850162000317565b916200006582860162000317565b6060860151958287168703620002d857608001519382851695868603620002d8573060805260a05260c05260e052600093845460ff8160081c16620002d45760ff808216036200029b575b50610120958652610140938452610100858152835163011a412160e61b818a019081526004825291986001600160401b03939092909180870185811182821017620002875787525188928392905afa953d156200027d573d928311620002695784519262000128601f8201601f1916840185620002dd565b83523d818385013e5b866200025d575b8662000224575b50505050610160928352519261539694856200032a8639608051858181610fbd0152818161137f0152611500015260a0518581816107af0152818161345e01528181613a8701528181613e200152818161419301528181614b5701528181614dd901528181614eca0152614ef1015260c0518581816117ce01528181613c810152613dd4015260e0518581816104430152613a35015251848181611899015281816150f0015261519c01525183818161074f015281816142b70152614fc9015251828181611d8e015281816143a60152614fec01525181818161196a01526150900152f35b90919293955050808251920151918181106200024b575b505016151591388080806200013f565b600019910360031b1b1638806200023b565b82518214965062000138565b634e487b7160e01b81526041600452602490fd5b6060925062000131565b634e487b7160e01b8a52604160045260248afd5b60ff908119161785557f7f26b83ff96e1f2b6a682f133852f6798a09c465da95921460cefb384740249887845160ff8152a138620000b0565b8580fd5b600080fd5b601f909101601f19168101906001600160401b038211908210176200030157604052565b634e487b7160e01b600052604160045260246000fd5b519063ffffffff82168203620002d85756fe6080604052600436101561001b575b361561001957600080fd5b005b60003560e01c8063079bd2c7146104115780631186ec331461040c57806311eac8551461040757806315348e441461039457806317fcb39b146104025780631b3d5559146103fd5780631fab657c146103f8578063272751c7146103f357806329cb924d146103ee5780632e378115146103e95780632e63e59a146103e457806333a84ff0146103df5780633659cfe6146103da578063437b9116146103d5578063490e49ef146103d0578063493a4f84146103cb5780634f1ef286146103c65780635249fef1146103c15780635285e058146103bc57806352d1902d146103b7578063541f4f14146103b2578063577f51f8146103ad57806357f6dcb8146103a85780635d467759146103a35780636068d6cb1461039e578063670fa8ac146103995780636bbbcd2e146103945780636e4009831461038f578063738b62e51461038a578063775c0d03146103855780637aef642c146103805780637b9392321461037b5780637ef413e11461037657806382e2c43f14610371578063899458831461036c5780638a7860ce146103675780638b15788e1461036257806391c49bf81461035d5780639748cf7c1461035857806397943aa914610353578063979f2bc21461034e57806399cc2968146103495780639a2e0820146103445780639a8a05921461033f578063a1244c671461033a578063a18a096e14610335578063ac9650d814610330578063ad5425c61461032b578063adb5a6a6146102e5578063b370b7f514610326578063babb6aac14610321578063c35c83fc1461031c578063ceb4c98714610317578063d7e1583a14610312578063dda521131461030d578063ddd224f114610308578063de7eba7814610303578063deff4b24146102fe578063ea86bd46146102f9578063ee2a53f8146102f4578063f1429b5a146102ef578063f2c20924146102ea578063f79f29ed146102e55763fc8a584f0361000e57612a75565b6123a3565b612956565b612921565b6128e3565b6127dc565b6126e7565b6126b7565b61268d565b612666565b612630565b612535565b612508565b612431565b612409565b612267565b6121be565b61204f565b612027565b61200c565b611fd7565b611f42565b611e32565b611db2565b611d6e565b611d46565b611cc8565b611c45565b611c2a565b611b0e565b611ad7565b611a2f565b61198f565b611952565b6118bd565b61187c565b610773565b611841565b61181a565b6117f2565b6117b1565b611613565b611550565b6114e5565b6114bd565b61146b565b61133c565b6112b4565b611295565b6111c0565b610f94565b610f59565b610d5b565b610bfb565b610bd1565b610b30565b610a23565b61091a565b61078f565b61072f565b61068e565b610426565b600091031261042157565b600080fd5b3461042157600036600319011261042157602060405163ffffffff7f0000000000000000000000000000000000000000000000000000000000000000168152f35b6001600160a01b0381160361042157565b359061048382610467565b565b63ffffffff81160361042157565b610144359061048382610485565b359061048382610485565b634e487b7160e01b600052604160045260246000fd5b6040810190811067ffffffffffffffff8211176104de57604052565b6104ac565b6101a0810190811067ffffffffffffffff8211176104de57604052565b67ffffffffffffffff81116104de57604052565b6060810190811067ffffffffffffffff8211176104de57604052565b6080810190811067ffffffffffffffff8211176104de57604052565b6020810190811067ffffffffffffffff8211176104de57604052565b60e0810190811067ffffffffffffffff8211176104de57604052565b60a0810190811067ffffffffffffffff8211176104de57604052565b90601f8019910116810190811067ffffffffffffffff8211176104de57604052565b6040519060c0820182811067ffffffffffffffff8211176104de57604052565b60405190610180820182811067ffffffffffffffff8211176104de57604052565b60405190610483826104e3565b6040519061048382610530565b67ffffffffffffffff81116104de57601f01601f191660200190565b9291926106458261061d565b9161065360405193846105a0565b829481845281830111610421578281602093846000960137010152565b9080601f830112156104215781602061068b93359101610639565b90565b610100366003190112610421576004356106a781610467565b6024356106b381610467565b6084358060070b81036104215760a435906106cd82610485565b60c43567ffffffffffffffff8111610421576106ed903690600401610670565b926106f6612dae565b60ff61086b5460e81c1661071d5761071694606435916044359133613d4b565b6001606555005b604051630b4cba3160e31b8152600490fd5b346104215760003660031901126104215760206040516001600160a01b037f0000000000000000000000000000000000000000000000000000000000000000168152f35b3461042157600036600319011261042157602060405160008152f35b346104215760003660031901126104215760206040516001600160a01b037f0000000000000000000000000000000000000000000000000000000000000000168152f35b67ffffffffffffffff81116104de5760051b60200190565b81601f8201121561042157803591610802836107d3565b9261081060405194856105a0565b808452602092838086019260051b820101928311610421578301905b82821061083a575050505090565b8135815290830190830161082c565b81601f8201121561042157803591610860836107d3565b9261086e60405194856105a0565b808452602092838086019260051b820101928311610421578301905b828210610898575050505090565b83809183356108a681610467565b81520191019061088a565b92916108bc826107d3565b916108ca60405193846105a0565b829481845260208094019160051b810192831161042157905b8282106108f05750505050565b813581529083019083016108e3565b9080601f830112156104215781602061068b933591016108b1565b6003196060368201126104215760043561093381610485565b60243567ffffffffffffffff928382116104215760c09082360301126104215761095b6105c2565b90806004013582526024810135602083015260448101358481116104215761098990600436918401016107eb565b604083015261099a606482016104a1565b60608301526109ab60848201610478565b608083015260a4810135908482116104215760046109cc9236920101610849565b60a0820152604435928311610421576109ec6100199336906004016108ff565b916134c7565b9181601f840112156104215782359167ffffffffffffffff8311610421576020808501948460051b01011161042157565b34610421576003196060368201126104215760043567ffffffffffffffff808211610421576060823603938401126104215760243590610a6282610485565b60443590811161042157610a7a9036906004016109f2565b919093610a85612dae565b600484013590610182190181121561042157610b1c94610b1793610ab2610b109360043691890101612554565b95610ac8610ac36080890151614f8a565b613454565b610ad1876138df565b9060446020890151916101608a015193610ae96105c2565b9a8b5260208b01520135604089015260608801526080870152600060a087015236916108b1565b9083614862565b6149ea565b6100196001606555565b8015150361042157565b3461042157606036600319011261042157600435610b4d81610467565b6024356001600160a01b0360443592610b6584610b26565b610b6d612dd4565b610b75612dae565b167f0a21fdd43d0ad0c62689ee7230a47309a050755bcc52eba00310add65297692a602060009483865261086d8252604086208587528252604086209015159060ff1981541660ff8316179055604051908152a3600160655580f35b34610421576000366003190112610421576020604051428152f35b90816101809103126104215790565b346104215760403660031901126104215760043567ffffffffffffffff811161042157610c2c903690600401610bec565b610c35816131e6565b6001600160a01b031690610c4b602082016131e6565b6001600160a01b031691610c61604083016131e6565b6001600160a01b0316610c76606084016131e6565b6001600160a01b031692610c8c608082016131e6565b6001600160a01b031690610100610ca48183016131f0565b9061012090610cb48483016131f0565b9261014094858101610cc5906131f0565b966101609a8b8301610cd790846131fa565b9a909b610ce26105e2565b9e8f91825260208201526040015260608d015260808c015260a081013560a08c015260c081013560c08c015260e0013560e08b015263ffffffff1690890152870190610d33919063ffffffff169052565b63ffffffff909116908501523690610d4a92610639565b90820152336024356100199261314a565b34610421576020366003190112610421576004803567ffffffffffffffff811161042157610d8c9036908301610bec565b610d94612dae565b60ff61086b5460e01c16610f495763ffffffff80421692610140830193610dcd81610dbe876131f0565b63ffffffff9182169116101590565b610f3957610120840192610de0846131f0565b1610610f2a57610df8610df33685612554565b6138df565b90610e0e82600052610872602052604060002090565b54610f1c5750610e5f7f3cee3e290f36226751cd0b3321b213890fe9c768e922f267fa6111836ce05c3292610e5a610e54610e6594600052610872602052604060002090565b60019055565b6131f0565b936131f0565b610e85610e80610e796101608601866131fa565b3691610639565b614f74565b90610f0f6040519283926101008701359760e08801359760208101359281359260408301359260c08101359060a081013590606060808201359101358b9693909a999895919261012098959361014089019c895260208901526040880152606087015263ffffffff80921660808701521660a085015260c084015260e08301526101008201520152565b0390a36100196001606555565b604051624be79160e21b8152fd5b60405163d642b7d960e01b8152fd5b50604051630277ae7b60e21b8152fd5b50604051633d90fc5560e11b8152fd5b346104215760003660031901126104215760206040517f9c6dfd61d811b9950a4f2b9adf46357b717c816d22c420d0bde8f2360148f7cd8152f35b3461042157602036600319011261042157600435610fb181610467565b6001600160a01b0390817f000000000000000000000000000000000000000000000000000000000000000016803014610421577f360894a13ba1a3210667c828492db98dca3e2076cc3735a920a3ca505d382bbc90838254160361042157611017612dd4565b604051906110248261054c565b60009384835260ff7f4910fdfa16fed3260ed0e7147f7cc6da11a60208b5b9406d12a635614ffd914354166000146110655750505061106290612ac7565b80f35b6020600491604051928380926352d1902d60e01b825288165afa8591816110a2575b50611090578480fd5b0361109e5761106291612b0a565b8280fd5b6110c491925060203d81116110cb575b6110bc81836105a0565b810190612aac565b9038611087565b503d6110b2565b6020600319820112610421576004359067ffffffffffffffff8211610421576110fd916004016109f2565b9091565b60005b8381106111145750506000910152565b8181015183820152602001611104565b9060209161113d81518092818552858086019101611101565b601f01601f1916010190565b602080820190808352835180925260409283810182858560051b8401019601946000925b85841061117e575050505050505090565b9091929394959685806111af600193603f1986820301885286838d5180511515845201519181858201520190611124565b99019401940192959493919061116d565b34610421576111ce366110d2565b6111d7816107d3565b906040926111e7845193846105a0565b818352601f196111f6836107d3565b0160005b81811061127157505060005b82811061121e5784518061121a8682611149565b0390f35b8061126761122f61126c93876137ba565b5160008061123e8589896152dc565b9061124d8c51809381936152f3565b0390305af49061125b612c2a565b60208201529015159052565b6137ab565b611206565b602090865161127f816104c2565b60008152826060818301528288010152016111fa565b346104215760003660031901126104215760206040516301e133808152f35b34610421576040366003190112610421576024356004356112d3612dd4565b6112db612dae565b61086c8054680100000000000000008110156104de5763ffffffff9160018201905583611307826128a2565b5084600182015555167fc86ba04c55bc5eb2f2876b91c438849a296dbec7b08751c3074d92e04f0a77af600080a46001606555005b60403660031901126104215760043561135481610467565b60243567ffffffffffffffff811161042157611374903690600401610670565b6001600160a01b03807f00000000000000000000000000000000000000000000000000000000000000001690813014610421577f360894a13ba1a3210667c828492db98dca3e2076cc3735a920a3ca505d382bbc918183541603610421576113da612dd4565b7f4910fdfa16fed3260ed0e7147f7cc6da11a60208b5b9406d12a635614ffd91435460ff16156114105750505061001990612ac7565b6020600491604051928380926352d1902d60e01b825288165afa6000918161144b575b5061143d57600080fd5b036104215761001991612bd8565b61146491925060203d81116110cb576110bc81836105a0565b9038611433565b34610421576040366003190112610421576001600160a01b0360043561149081610467565b1660005261086d6020526040600020602435600052602052602060ff604060002054166040519015158152f35b346104215760003660031901126104215760206001600160a01b036108695416604051908152f35b34610421576000366003190112610421576001600160a01b037f00000000000000000000000000000000000000000000000000000000000000001630036104215760206040517f360894a13ba1a3210667c828492db98dca3e2076cc3735a920a3ca505d382bbc8152f35b6101203660031901126104215760043561156981610467565b6024359061157682610467565b6044359161158383610467565b60a4358060070b81036104215760c4359161159d83610485565b60e43567ffffffffffffffff8111610421576115bd903690600401610670565b936115c6612dae565b60ff61086b5460e81c1661071d57610716956084359260643592613d4b565b9181601f840112156104215782359167ffffffffffffffff8311610421576020838186019501011161042157565b346104215760c03660031901126104215760043561163081610467565b6024356044359160643561164381610467565b67ffffffffffffffff91608435838111610421576116659036906004016115e5565b60a494919435918211610421577f45e04bc8f121ba11466985789ca2822a91109f31bb8ac85504a37b7eaf873c26946116a56117ac9336906004016115e5565b9290916001600160a01b038097168a6117a06116c2368686610639565b60428d6116d0368b8b610639565b92602081519101209460409586519160208301937f9c6dfd61d811b9950a4f2b9adf46357b717c816d22c420d0bde8f2360148f7cd85528884015246606084015260808301528760a083015260c082015260c0815261172e81610568565b51902061047f546104805486519060208201927fc2f8787176b8ac6bf7215b4adcc1e069bf4ab82d9ab1df05a57a91d425935b6e84528883015260608201524660808201526080815261178081610584565b5190209085519161190160f01b835260028301526022820152208a6146cd565b51978897169a87613117565b0390a3005b3461042157600036600319011261042157602060405163ffffffff7f0000000000000000000000000000000000000000000000000000000000000000168152f35b346104215760003660031901126104215760206001600160a01b03610c5a5416604051908152f35b3461042157600036600319011261042157602060ff61086b5460e81c166040519015158152f35b346104215760003660031901126104215760206040517f8d1994e2bbbd77564cdca06dd819e7ee2a5efa06c80dcb59a4a7b6e39edc538f8152f35b3461042157600036600319011261042157602060405163ffffffff7f0000000000000000000000000000000000000000000000000000000000000000168152f35b34610421576020366003190112610421577fe88463c2f254e2b070013a2dc7ee1e099f9bc00534cbdf03af551dc26ae4921960206004356118fd81610b26565b611905612dd4565b61190d612dae565b151561086b80547fffff00ffffffffffffffffffffffffffffffffffffffffffffffffffffffffff60ff60e81b8460e81b169116179055604051908152a16001606555005b346104215760003660031901126104215760206040517f000000000000000000000000000000000000000000000000000000000000000015158152f35b610160366003190112610421576004356119a881610467565b602435906119b582610467565b6044356119c181610467565b606435906119ce82610467565b60e4356119da81610467565b61010435906119e882610485565b61012435926119f684610485565b610144359667ffffffffffffffff881161042157611a1b6100199836906004016115e5565b97909660c4359360a43593608435936130d0565b61018036600319011261042157600435611a4881610467565b60243590611a5582610467565b604435611a6181610467565b60643590611a6e82610467565b60e435611a7a81610467565b61010435611a8781610485565b6101243591611a9583610485565b611a9d610493565b93610164359767ffffffffffffffff891161042157611ac36100199936906004016115e5565b98909760c4359360a4359360843593612f4f565b34610421576060366003190112610421576020611b06600435611af981610467565b60443590602435906138a3565b604051908152f35b346104215760603660031901126104215767ffffffffffffffff60243581811161042157611b409036906004016115e5565b9160443590811161042157611b599036906004016115e5565b9060405193602085019480611b704684888a61333b565b0395611b84601f19978881018452836105a0565b6004359151902003611c1857600094611bb4611bd693611bab87611be2958a99019061260a565b95810190613358565b519360405193849160208301966337bfd2c960e21b8852339160248501613421565b039081018352826105a0565b5190305af4611bef612c2a565b9015611bf757005b60405163b8fe37a760e01b8152908190611c149060048301613443565b0390fd5b604051630f0c8f4760e11b8152600490fd5b34610421576000366003190112610421576020611b06612d5b565b3461042157602036600319011261042157600435611c61612dd4565b611c69612dae565b611c72816128a2565b919091611cb257600191600092818480935501557f7c1af0646963afc3343245b103731965735a893347bfa0d58a5dc77a77ae691c8280a2600160655580f35b634e487b7160e01b600052600060045260246000fd5b6101a03660031901126104215761012435611ce281610485565b61014435611cef81610485565b6101643591611cfd83610485565b610184359267ffffffffffffffff841161042157611d226100199436906004016115e5565b9390926101043560e43560c43560a435608435606435604435602435600435613040565b346104215760003660031901126104215760206001600160a01b03610c5b5416604051908152f35b346104215760003660031901126104215760206040516001600160a01b037f0000000000000000000000000000000000000000000000000000000000000000168152f35b346104215760e03660031901126104215767ffffffffffffffff60043581811161042157611de4903690600401610bec565b60a43582811161042157611dfc9036906004016115e5565b60c49291923593841161042157611e1a6100199436906004016115e5565b9390926084359060643590604435906024359061322d565b3461042157606036600319011261042157600435611e4f81610485565b602435611e5b81610467565b604435611e6781610467565b60009260ff845460081c1615611f3e57611e9e9061086b9063ffffffff60c01b1963ffffffff60c01b83549260c01b169116179055565b604051611eaa816104c2565b6009815260208101926820a1a927a9a996ab1960b91b8452640312e302e360dc1b6020604051611ed9816104c2565b60058152015260ff855460081c1615611f3a5761106293611f359251902061047f557f06c015bd22b4c69690933c1058878ebdfef31f9aaae40bbe86d8a09fe1b2972c61048055611f28612efa565b611f30612f0a565b6144e6565b614541565b8480fd5b8380fd5b34610421576020366003190112610421577f2d5b62420992e5a4afce0e77742636ca2608ef58289fd2e1baa5161ef6e7e41e6020600435611f8281610b26565b611f8a612dd4565b611f92612dae565b151561086b80547fffffff00ffffffffffffffffffffffffffffffffffffffffffffffffffffffff60ff60e01b8460e01b169116179055604051908152a16001606555005b3461042157602036600319011261042157610716600435611ff781610467565b611fff612dd4565b612007612dae565b612eab565b34610421576000366003190112610421576020604051468152f35b3461042157600036600319011261042157602063ffffffff61086b5460c01c16604051908152f35b346104215760403660031901126104215760043560243561206f82614fa0565b6001600160a01b0382166000526108736020526120a26040600020336001600160a01b0316600052602052604060002090565b5491821561214a5760006120ee336120d66120bc85614f8a565b6001600160a01b0316600052610873602052604060002090565b906001600160a01b0316600052602052604060002090565b5561211a8361210b6120ff84614f8a565b6001600160a01b031690565b61211485614f8a565b906137ce565b60405192835233927f6c172ea51018fb2eb2118f3f8a507c4df71eb519b8c0052834dc3c920182fef490602090a4005b6040516336542bf760e21b8152600490fd5b602080820190808352835180925260408301928160408460051b8301019501936000915b8483106121905750505050505090565b90919293949584806121ae600193603f198682030187528a51611124565b9801930193019194939290612180565b34610421576121cc366110d2565b906121d682615292565b9160005b8181106121ef576040518061121a868261215c565b6000806121fd8385876152dc565b9061220d604051809381936152f3565b0390305af461221a612c2a565b908190156122485750906122439161223282876137ba565b5261223d81866137ba565b506137ab565b6121da565b6044825110610421576004610421920160248091518301019101615301565b61018080600319360112610421576101043561228281610485565b610124359161229083610485565b610144359261229e84610485565b6101643567ffffffffffffffff8111610421576122bf9036906004016115e5565b6122c7612dae565b61086b549260ff8460e81c1661071d57610b1c9661238c610e799261237e63ffffffff61239a9860c01c16996123226122ff8c612f35565b61086b9063ffffffff60c01b1963ffffffff60c01b83549260c01b169116179055565b61232a610603565b9a6004358c5260243560208d015260443560408d015260643560608d015260843560808d015260a43560a08d015260c43560c08d015260e43560e08d01526101008c01526101208b019063ffffffff169052565b63ffffffff16610140890152565b63ffffffff16610160870152565b90820152613981565b346104215760403660031901126104215760206124006004356123c581610467565b6001600160a01b03602435916123da83610467565b1660005261087383526040600020906001600160a01b0316600052602052604060002090565b54604051908152f35b346104215760003660031901126104215760206001600160a01b0361086a5416604051908152f35b346104215760c03660031901126104215760043560243567ffffffffffffffff6064356044356084358381116104215761246f9036906004016115e5565b60a494919435918211610421577f45e04bc8f121ba11466985789ca2822a91109f31bb8ac85504a37b7eaf873c26946124af6124fe9336906004016115e5565b9290916124ba612dae565b6124c38a614fa0565b6124f2898b89896124d5368888610639565b926124e1368b8b610639565b946001600160a01b034692166145f5565b60405196879687613117565b0390a36001606555005b34610421576020366003190112610421576004356000526108726020526020604060002054604051908152f35b3461042157600036600319011261042157602060405163ffffffff8152f35b919061018083820312610421576125696105e2565b92803584526020810135602085015260408101356040850152606081013560608501526080810135608085015260a081013560a085015260c081013560c085015260e081013560e085015261010080820135908501526101206125cd8183016104a1565b908501526101406125df8183016104a1565b90850152610160918282013567ffffffffffffffff8111610421576126049201610670565b90830152565b9060208282031261042157813567ffffffffffffffff81116104215761068b9201612554565b346104215760203660031901126104215760043567ffffffffffffffff811161042157611b06610df36020923690600401612554565b3461042157600036600319011261042157602060ff61086b5460e01c166040519015158152f35b346104215760003660031901126104215760206040516ec097ce7bc90715b34b9f10000000008152f35b34610421576020366003190112610421576107166004356126d781610467565b6126df612dd4565b611f30612dae565b346104215760603660031901126104215760043567ffffffffffffffff811161042157612718903690600401612554565b612720612dae565b60ff61086b5460e01c166127ca5761014081015163ffffffff42811691161015806127ab575b6127995780612757610b1c926138df565b60c0820151602083015190610160840151926127716105c2565b948552602085015260408401526060830152608082015260243560a082015260443590614c5e565b604051630c3a9b9d60e41b8152600490fd5b506127b96040820151614f8a565b6001600160a01b0316331415612746565b604051633d90fc5560e11b8152600490fd5b6101608060031936011261042157610104356127f781610485565b6101243561280481610485565b6101443567ffffffffffffffff8111610421576128259036906004016115e5565b63ffffffff9461283886421695866130b8565b93612841612dae565b61086b549160ff8360e81c1661071d576128746128819661237e610b1c9a610e799660c01c16996123226122ff8c612f35565b86019063ffffffff169052565b610180820152613981565b634e487b7160e01b600052603260045260246000fd5b61086c9081548110156128de57600391600052027f71cd7344f4eb2efc8e30291f6dbdb44d618ca368ea5425d217c1d604bf26b84d0190600090565b61288c565b346104215760203660031901126104215760043561086c548110156104215761290d6040916128a2565b506001815491015482519182526020820152f35b346104215760203660031901126104215761071660043561294181610467565b612949612dd4565b612951612dae565b612e5c565b346104215760a03660031901126104215760043561297381610485565b6129e960243561298281610467565b60443561298e81610467565b6064359061299b82610467565b608435926129a884610467565b600054956129cd60ff8860081c161580988199612a67575b8115612a47575b50612aa5565b866129e0600160ff196000541617600055565b612a2e57612c83565b6129ef57005b6129ff61ff001960005416600055565b604051600181527f7f26b83ff96e1f2b6a682f133852f6798a09c465da95921460cefb384740249890602090a1005b612a4261010061ff00196000541617600055565b612c83565b303b15915081612a59575b50386129c7565b6001915060ff161438612a52565b600160ff82161091506129c0565b3461042157602036600319011261042157610716600435612a9581610467565b612a9d612dd4565b611f35612dae565b1561042157565b90816020910312610421575190565b6040513d6000823e3d90fd5b803b15610421576001600160a01b037f360894a13ba1a3210667c828492db98dca3e2076cc3735a920a3ca505d382bbc91166001600160a01b0319825416179055565b612b1381612ac7565b6001600160a01b0381167fbc7cd75a20ee27fd9adebab32041f755214dbc6bffa90cc0225b39da2e5c2d3b600080a2815115801590612bd0575b612b55575050565b600080612bcd937f206661696c65640000000000000000000000000000000000000000000000000060408051612b8a81610514565b602781527f416464726573733a206c6f772d6c6576656c2064656c65676174652063616c6c60208201520152602081519101845af4612bc7612c2a565b91612c5a565b50565b506000612b4d565b612be181612ac7565b6001600160a01b0381167fbc7cd75a20ee27fd9adebab32041f755214dbc6bffa90cc0225b39da2e5c2d3b600080a2815115801590612c2257612b55575050565b506001612b4d565b3d15612c55573d90612c3b8261061d565b91612c4960405193846105a0565b82523d6000602084013e565b606090565b9015612c7457815115612c6b575090565b3b156104215790565b50805190811561042157602001fd5b939192909360009060ff825460081c1615612d5757612cbf9061086b9063ffffffff60c01b1963ffffffff60c01b83549260c01b169116179055565b604051612ccb816104c2565b6009815260208101916820a1a927a9a996ab1960b91b8352640312e302e360dc1b6020604051612cfa816104c2565b60058152015260ff815460081c1615612d54575092611f35610483969593612951936120079651902061047f557f06c015bd22b4c69690933c1058878ebdfef31f9aaae40bbe86d8a09fe1b2972c61048055611f28612efa565b80fd5b5080fd5b600460206001600160a01b03610c5a541660405192838092638994588360e01b82525afa908115612da957600091612d91575090565b61068b915060203d81116110cb576110bc81836105a0565b612abb565b600260655414610421576002606555565b90816020910312610421575161068b81610467565b610c5a546040516333f2026760e11b81526001600160a01b0391821691602082600481865afa918215612da957600092612e2c575b508061086954169116149081612e22575b501561042157565b9050331438612e1a565b612e4e91925060203d8111612e55575b612e4681836105a0565b810190612dbf565b9038612e09565b503d612e3c565b7ff3dc137d2246f9b8abd0bb821e185ba01122c9b3ea3745ffca6208037674d6706020610c5b928354906001600160a01b0380911694856001600160a01b0319841617905560405191168152a2565b7ff4afd54e7ed26702d892bb2e04050d1414c6eb040dde0e9ca2d919f423f360876020610c5a928354906001600160a01b0380911694856001600160a01b0319841617905560405191168152a2565b60ff60005460081c161561042157565b60ff60005460081c1615610421576001606555565b634e487b7160e01b600052601160045260246000fd5b63ffffffff809116908114612f4a5760010190565b612f1f565b9b999897969390959295949194612f64612dae565b61086b5460ff8160e81c1661071d5760c01c63ffffffff1696612f8688612f35565b612fad9061086b9063ffffffff60c01b1963ffffffff60c01b83549260c01b169116179055565b612fb5610603565b6001600160a01b039e8f168152918e166020830152958d166040820152948c166060860152608085015260a084015260c083015290971660e088015261010087015263ffffffff166101208601525b63ffffffff1661014085015263ffffffff16610160840152369061302792610639565b61018082015261303690613981565b6104836001606555565b9c9a9998979695949392919096613055612dae565b60ff61086b5460e81c1661071d5761306e908e336138a3565b96604051809e61307d826104e3565b81526020015260408d015260608c015260808b015260a08a015260c089015260e088015261010087015263ffffffff16610120860152613004565b91909163ffffffff80809416911601918211612f4a57565b96949290916104839b9a99989694926130f063ffffffff421698896130b8565b98612f4f565b908060209392818452848401376000828201840152601f01601f1916010190565b9492909361313c9261068b9795875260208701526080604087015260808601916130f6565b9260608185039101526130f6565b919091613155612dae565b60ff61086b5460e01c166127ca5761014081015163ffffffff42811691161015806131c7575b612799576130369261318c826138df565b60c0830151602084015190610160850151926131a66105c2565b958652602086015260408501526060840152608083015260a0820152614c5e565b506131d56040820151614f8a565b6001600160a01b031633141561317b565b3561068b81610467565b3561068b81610485565b903590601e1981360301821215610421570180359067ffffffffffffffff82116104215760200191813603831361042157565b97929095939196949761323e612dae565b60ff61086b5460e01c166127ca5761325961014082016131f0565b63ffffffff80421691161015806132f7575b612799576132e06132f2966132d86130369b61328a610df33687612554565b9a6132936105c2565b9b61329e3688612554565b8d5260208d01528660408d01528760608d01526132bc368b84610639565b60808d015260a08c01526132d08535614f8a565b983691610639565b953691610639565b9461010060e0830135920135906145f5565b614c5e565b506133056040820135614f8a565b6001600160a01b031633141561326b565b634e487b7160e01b600052602160045260246000fd5b6003111561333657565b613316565b939291602091613353916040875260408701916130f6565b930152565b9081602091031261042157604051906020820182811067ffffffffffffffff8211176104de5760405235815290565b9061068b91805182526020810151602083015260408101516040830152606081015160608301526080810151608083015260a081015160a083015260c081015160c083015260e081015160e083015261010080820151908301526133f9610120808301519084019063ffffffff169052565b6101408181015163ffffffff1690830152610160809101519161018080928201520190611124565b61343960409295949395606083526060830190613387565b9460208201520152565b90602061068b928181520190611124565b6001600160a01b037f000000000000000000000000000000000000000000000000000000000000000081169116811461348a5750565b476134925750565b4790803b1561042157600090600460405180948193630d0e30db60e41b83525af18015612da95715612bcd5761048390610500565b916134d0612dae565b60808201916134e9610ac384516001600160a01b031690565b6020810191825146036135f05761351161351591836001613509896128a2565b5001546136c1565b1590565b6135de578060607ff4ad92585b1bc117fbdd644990adf0827bc4c95baeae8a23322af807b6d0020e920193613557613551865163ffffffff1690565b8761459c565b6135d18451948351936135b66135a861359760408401998a5161357e8d5163ffffffff1690565b89516001600160a01b03169160a088019b8c5194613f8e565b925193519851995163ffffffff1690565b94516001600160a01b031690565b945160405195869563ffffffff8091169b1699339487613673565b0390a46104836001606555565b60405163582f497d60e11b8152600490fd5b604051633d23e4d160e11b8152600490fd5b90815180825260208080930193019160005b828110613622575050505090565b835185529381019392810192600101613614565b90815180825260208080930193019160005b828110613656575050505090565b83516001600160a01b031685529381019392810192600101613648565b949695919361369560a0956136b393885260c0602089015260c0880190613602565b906001600160a01b0380951660408801528682036060880152613636565b951515608085015216910152565b61068b929160405161374a8161373c602082019460208652805160408401526020810151606084015260a0613706604083015160c06080870152610100860190613602565b606083015163ffffffff168583015260808301516001600160a01b031660c0860152910151838203603f190160e0850152613636565b03601f1981018352826105a0565b51902091929091906000915b84518310156137a35761376983866137ba565b5190600082821015613791575060005260205261378b60406000205b926137ab565b91613756565b60409161378b93825260205220613785565b915092501490565b6000198114612f4a5760010190565b80518210156128de5760209160051b010190565b60405163a9059cbb60e01b60208201526001600160a01b03909216602483015260448201929092526104839161381182606481015b03601f1981018452836105a0565b6001600160a01b0361386991167f5361666545524332303a206c6f772d6c6576656c2063616c6c206661696c6564602060405161384d816104c2565b8181520152600080846020829651910182855af1612bc7612c2a565b8051908115918215613880575b505015612d545750565b8192509060209181010312612d57576020015161389c81610b26565b3880613876565b916040519160208301936bffffffffffffffffffffffff199060601b16845260348301526054820152605481526138d981610530565b51902090565b6040516138d9816138fc6020820194604086526060830190613387565b46604083015203601f1981018352826105a0565b91908203918211612f4a57565b91908201809211612f4a57565b97959492909161068b9a99979492895260208901526040880152606087015263ffffffff928380921660808801521660a08601521660c084015260e083015261010082015261014090816101208201520190611124565b61398b8151614fa0565b604090818101906139b961399f8351614f8a565b6001600160a01b031660005261086d602052604060002090565b926139df6135116139d860c08501968751600052602052604060002090565b5460ff1690565b613ca857610120820192613a036139fa855163ffffffff1690565b63ffffffff1690565b804210908115613c6f575b50613c5e57610140830192613a27845163ffffffff1690565b9163ffffffff9283613a5b817f0000000000000000000000000000000000000000000000000000000000000000164261391d565b911611613c4d5761016082015163ffffffff169280841680613c09575b50508051936001600160a01b037f00000000000000000000000000000000000000000000000000000000000000001680951480613c00575b15613b9a5760808301513403613b8a57843b15610421576000600495825196878092630d0e30db60e41b825234905af1918215612da9577f32ed1a409ef04c7b0227189c3a103dc5ac10e775a15b785dcc510201f7c25ad395613b6c93613b71575b505b519260608101519460808201519060a08301519a5198613b4c613b416101008601519c5163ffffffff1690565b915163ffffffff1690565b9084519c60208601519461018060e088015197015197519a8b9a8b61392a565b0390a4565b80613b7e613b8492610500565b80610416565b38613b12565b51636452a35d60e01b8152600490fd5b9192935034613bef577f32ed1a409ef04c7b0227189c3a103dc5ac10e775a15b785dcc510201f7c25ad393929181613bea613bdb6120ff613b6c9551614f8a565b60808601519030903390613cb8565b613b14565b8151636452a35d60e01b8152600490fd5b50341515613ab0565b6301e133801015613c38575b5060e082015115613c27573880613a78565b835163495d907f60e01b8152600490fd5b92613c4691934216906130b8565b9138613c15565b835163582e388960e01b8152600490fd5b815163f722177f60e01b8152600490fd5b613c7a915042613910565b63ffffffff7f0000000000000000000000000000000000000000000000000000000000000000161038613a0e565b51632a58c4f360e01b8152600490fd5b909261048393604051936323b872dd60e01b60208601526001600160a01b03809216602486015216604484015260648301526064825261381182610584565b939161068b969593918552600060208601526040850152606084015263ffffffff809116608084015260a0830152600060c083015260e0820152600061010082015261014090816101208201520190611124565b91939496909596613d896135116139d888613d7a896001600160a01b031660005261086d602052604060002090565b90600052602052604060002090565b613f6b5760070b906706f05b59d3b20000613da383613f7d565b1015613f59576ec097ce7bc90715b34b9f10000000008411613f475763ffffffff93613dd1858a1642613910565b857f00000000000000000000000000000000000000000000000000000000000000001610613f355761086b5460c01c63ffffffff1698613e136122ff8b612f35565b6001600160a01b039586807f00000000000000000000000000000000000000000000000000000000000000001698169288841480613f2c575b15613ef057803403613ede57883b156104215760006004996040519a8b8092630d0e30db60e41b825234905af1988915612da957613eb8613b6c978a927f32ed1a409ef04c7b0227189c3a103dc5ac10e775a15b785dcc510201f7c25ad39c613ecb575b505b836148f2565b92604051998a99169d169b169387613cf7565b80613b7e613ed892610500565b38613eb0565b604051636452a35d60e01b8152600490fd5b7f32ed1a409ef04c7b0227189c3a103dc5ac10e775a15b785dcc510201f7c25ad3985087613eb8613b6c97613f278430338a613cb8565b613eb2565b50341515613e4c565b60405163f722177f60e01b8152600490fd5b60405163622db5a960e11b8152600490fd5b60405163284f109760e21b8152600490fd5b604051632a58c4f360e01b8152600490fd5b6000808212613f8a575090565b0390565b919594959390929360009681519081815103614169578161400e575b50505082613fb9575b50505050565b6001600160a01b0381613fed7ffa7fa7cf6d7dde5f9be65a67e6a1a747e7aa864dcd2d793353c722d80fbbb357938661417b565b6040805195865233602087015291169463ffffffff1693a438808080613fb3565b604080516370a0823160e01b81523060048083019190915291906020816024816001600160a01b038b165afa908115612da95760009161414b575b506000805b86811061405f575050505050613faa565b61406981896137ba565b5161407d575b614078906137ab565b61404e565b906140939061408c838a6137ba565b519061391d565b9082821161413b576140cd6135116140bb6140ae848a6137ba565b516001600160a01b031690565b6140c5848c6137ba565b51908c614472565b1561406f579c50876141316141298f6141126140ae61410b6140ef848f6137ba565b51966001600160a01b0316600052610873602052604060002090565b928b6137ba565b6001600160a01b0316600052602052604060002090565b91825461391d565b905560019c61406f565b50505051632ddaa83160e11b8152fd5b614163915060203d81116110cb576110bc81836105a0565b38614049565b6040516319a5316760e31b8152600490fd5b90614184612d5b565b6001600160a01b0382811691907f0000000000000000000000000000000000000000000000000000000000000000811683036142b457506141c89192503414612aa5565b6141d2348361391d565b90803b1561042157604051632e1a7d4d60e01b815260048101929092526000908290602490829084905af18015612da9576142a1575b5061422a6142226120ff610c5a546001600160a01b031690565b91349061391d565b9061423e61086a546001600160a01b031690565b813b1561042157604051634f9e72ad60e11b81526001600160a01b03919091166004820152346024820152606060448201526000606482018190529092909183916084918391905af18015612da9576142945750565b80613b7e61048392610500565b80613b7e6142ae92610500565b38614208565b807f000000000000000000000000000000000000000000000000000000000000000016831490816143a2575b5015614305575050506104839061430061086a546001600160a01b031690565b614fbb565b614346916143176120ff923414612aa5565b61433985610c5b926143336120ff85546001600160a01b031690565b906143ce565b546001600160a01b031690565b61086a546001600160a01b031690803b1561042157604051632917540d60e11b81526001600160a01b0393841660048201526024810194909452911660448301526000908290606490829034905af18015612da9576142945750565b90507f0000000000000000000000000000000000000000000000000000000000000000161515386142e0565b91909160405191636eb1769f60e11b83523060048401526020836044816001600160a01b03808916602483015286165afa928315612da957600093614452575b508201809211612f4a5760405163095ea7b360e01b60208201526001600160a01b039093166024840152604483019190915261048391906138118260648101613803565b61446b91935060203d81116110cb576110bc81836105a0565b913861440e565b60405163a9059cbb60e01b60208281019182526001600160a01b039094166024830152604482019490945290926000916144af816064810161373c565b519082855af1903d60005190836144c7575b50505090565b919250906144dc57503b15155b3880806144c1565b60019150146144d4565b6001600160a01b0316801561452f57610869816001600160a01b03198254161790557fa9e8c42c9e7fca7f62755189a16b2f5314d43d8fb24e91ba54e6d65f9314e849600080a2565b60405163ba97b39d60e01b8152600490fd5b6001600160a01b0316801561458a5761086a816001600160a01b03198254161790557fa73e8909f8616742d7fe701153d82666f7b7cd480552e23ebb05d358c22fd04e600080a2565b604051635b03092b60e11b8152600490fd5b6145a76002916128a2565b500162ffffff8260081c168060005281602052600160ff60406000205494161b80809416146145e3576000526020526040600020908154179055565b60405163954476d960e01b8152600490fd5b9392604293610483979660208151910120906040519260208401947f8d1994e2bbbd77564cdca06dd819e7ee2a5efa06c80dcb59a4a7b6e39edc538f86526040850152856060850152608084015260a083015260c082015260c0815261465a81610568565b5190209061047f549061048054906040519160208301937fc2f8787176b8ac6bf7215b4adcc1e069bf4ab82d9ab1df05a57a91d425935b6e8552604084015260608301526080820152608081526146b081610584565b519020906040519161190160f01b83526002830152602282015220905b6146d783836147ac565b600581959295101561333657159384614796575b50831561470f575b505050156146fd57565b60405163938a182160e01b8152600490fd5b60009293509082916040516147488161373c6020820194630b135d3f60e11b998a87526024840152604060448401526064830190611124565b51915afa90614755612c2a565b82614788575b8261476b575b50503880806146f3565b61478091925060208082518301019101612aac565b143880614761565b91506020825110159161475b565b6001600160a01b038381169116149350386146eb565b9060418151146000146147d6576110fd916020820151906060604084015193015160001a906147e0565b5050600090600290565b9291907f7fffffffffffffffffffffffffffffff5d576e7357a4501ddfe92f46681b20a083116148565791608094939160ff602094604051948552168484015260408301526060820152600093849182805260015afa15612da95781516001600160a01b03811615614850579190565b50600190565b50505050600090600390565b91613511906148db9284516040809601519186519161488083610514565b825261374a61489b60208401924684528985019586526128a2565b50549388519283916148c06020840196602088525160608d86015260a0850190613387565b9151606084015251608083015203601f1981018352826105a0565b6148e25750565b5163582f497d60e11b8152600490fd5b90670de0b6b3a7640000916000828403921283831281169084841390151617612f4a57818102918183041490151715612f4a570490565b6149328261332c565b52565b9a989693919c9b9997959492909c6101e08c019d8c5260208c015260408b015260608a0152608089015263ffffffff80921660a08901521660c087015260e08601526101008501526101208401526101408301528051610160830152602081015161018083015260408101516101a083015260600151906149b58261332c565b6101c00152565b9061068b94936080936001600160a01b03809316845260208401521660408201528160608201520190611124565b90600082516101208101614a02815163ffffffff1690565b63ffffffff42911610614c4c576020850151906002614a2c83600052610872602052604060002090565b5414614c3a57614a51614a4b8593600052610872602052604060002090565b60029055565b60608301517f44b559f101f8fbcc8a0ea43fa91a05a729a5ea6e14a7c75aa750374690137208608085015160a086015192614b198a60c0890151958960a08301519760e082015198614aad6101008401519b5163ffffffff1690565b61014084015163ffffffff1690604085015192855194614ad66101606020890151980151614f74565b9760608a0151996040614aec6080830151614f74565b91015190614af8610610565b9b8c5260208c015260408b0152600260608b01525b6040519c8d9c8d614935565b0390a4614b296080820151614f8a565b604085015194614b496080614b416060840151614f8a565b940151614f8a565b6001600160a01b03919082167f0000000000000000000000000000000000000000000000000000000000000000831603614c255760809085614c12575b614b9288848716614eaf565b0151928351151580614c08575b614bad575b50505050509050565b1690813b15611f3e5783614bdb959660405196879586948593633a5be8cb60e01b85523391600486016149bc565b03925af18015612da957614bf5575b808080808594614ba4565b80613b7e614c0292610500565b38614bea565b50803b1515614b9f565b614c20883033868816613cb8565b614b86565b608090614c3588868686166137ce565b614b92565b604051630479306360e51b8152600490fd5b60405163d642b7d960e01b8152600490fd5b8051916101208301614c74815163ffffffff1690565b63ffffffff42911610614c4c5760208301516001614c9d82600052610872602052604060002090565b5460009103614ea957506001905b6002614cc282600052610872602052604060002090565b5414614c3a57614a4b614ce091600052610872602052604060002090565b7f44b559f101f8fbcc8a0ea43fa91a05a729a5ea6e14a7c75aa7503746901372086060860151608087015190614da18760a08a0151958a60c08101519760a08401519860e083015199614d3d6101008501519c5163ffffffff1690565b61014085015163ffffffff1691604086015193865195614b0d614d6961016060208b01519a0151614f74565b9960608c01519b6040614d7f6080830151614f74565b910151906020614d8d610610565b9e8f528e015260408d015260608c01614929565b0390a4614db16080830151614f8a565b916040820151916080614dcb81614b416060850151614f8a565b6001600160a01b03929083167f0000000000000000000000000000000000000000000000000000000000000000841603614e9657614e0d853033868a16613cb8565b614e1985848616614eaf565b0151918251151580614e8c575b614e32575b5050505050565b16803b1561042157614e61936000809460405196879586948593633a5be8cb60e01b85523391600486016149bc565b03925af18015612da957614e79575b80808080614e2b565b80613b7e614e8692610500565b38614e70565b50803b1515614e26565b614ea4858533868a16613cb8565b614e19565b90614cab565b6001600160a01b039081169190823b15614eef5791610483927f0000000000000000000000000000000000000000000000000000000000000000166137ce565b7f00000000000000000000000000000000000000000000000000000000000000001691823b15610421576040518093632e1a7d4d60e01b82528360048301528160246000968780945af18015612da957614f65575b5081471061109e578280809381935af1614f5c612c2a565b5015612d545750565b614f6e90610500565b38614f44565b80519081614f83575050600090565b6020012090565b6001600160a01b0390614f9c81614fa0565b1690565b60a01c614fa957565b6040516379ec0ed760e11b8152600490fd5b906001600160a01b038092167f000000000000000000000000000000000000000000000000000000000000000090837f000000000000000000000000000000000000000000000000000000000000000016936150188486856143ce565b6040948551926332dd704760e21b845260209560049487818781875afa968715612da9578891600098615251575b508516948951978880926352b7631960e11b8252816150778a8c83019190916001600160a01b036020820193169052565b0392165afa958615612da957600096615232575b5095867f0000000000000000000000000000000000000000000000000000000000000000975b6150c057505050505050505050565b8681111561522c57865b881561518357843b15610421578951634701287760e11b815287810182815263ffffffff7f0000000000000000000000000000000000000000000000000000000000000000166020820152604081018690526001600160a01b038816606082015260006080820181905260a082018190526107d060c0830152919391908490819060e0010381838a5af1928315612da95761516a93615170575b50613910565b806150b1565b80613b7e61517d92610500565b38615164565b89516337e9a82760e11b815287810182815263ffffffff7f0000000000000000000000000000000000000000000000000000000000000000166020820152604081018690526001600160a01b0388166060820152909290849084908190608001038160008a5af1928315612da95761516a936151ff5750613910565b61521e90853d8711615225575b61521681836105a0565b810190615272565b5038615164565b503d61520c565b806150ca565b61524a919650873d89116110cb576110bc81836105a0565b943861508b565b8691985061526b90833d8511612e5557612e4681836105a0565b9790615046565b90816020910312610421575167ffffffffffffffff811681036104215790565b9061529c826107d3565b6152a960405191826105a0565b82815280926152ba601f19916107d3565b019060005b8281106152cb57505050565b8060606020809385010152016152bf565b908210156128de576110fd9160051b8101906131fa565b908092918237016000815290565b6020818303126104215780519067ffffffffffffffff8211610421570181601f820112156104215780516153348161061d565b9261534260405194856105a0565b818452602082840101116104215761068b916020808501910161110156fea264697066735822122056154c6e5f4fc1e389693ae1fba86dea3741f5675402051aaf98da71fcfd0e3764736f6c63430008130033"
}