{
  "address": "0x8eAEfF0B5A55268e6A5076d65F160C517Efd5795",
  "abi": [
    {
      "inputs": [
        {
          "internalType": "address",
          "name": "_wrappedNativeTokenAddress",
          "type": "address"
        },
        {
          "internalType": "uint32",
          "name": "_depositQuoteTimeBuffer",
          "type": "uint32"
        },
        {
          "internalType": "uint32",
          "name": "_fillDeadlineBuffer",
          "type": "uint32"
        }
      ],
      "stateMutability": "nonpayable",
      "type": "constructor"
    },
    {
      "inputs": [],
      "name": "ClaimedMerkleLeaf",
      "type": "error"
    },
    {
      "inputs": [],
      "name": "DepositsArePaused",
      "type": "error"
    },
    {
      "inputs": [],
      "name": "DisabledRoute",
      "type": "error"
    },
    {
      "inputs": [],
      "name": "ExpiredFillDeadline",
      "type": "error"
    },
    {
      "inputs": [],
      "name": "FillsArePaused",
      "type": "error"
    },
    {
      "inputs": [],
      "name": "InsufficientSpokePoolBalanceToExecuteLeaf",
      "type": "error"
    },
    {
      "inputs": [],
      "name": "InvalidBytes32",
      "type": "error"
    },
    {
      "inputs": [],
      "name": "InvalidChainId",
      "type": "error"
    },
    {
      "inputs": [],
      "name": "InvalidCrossDomainAdmin",
      "type": "error"
    },
    {
      "inputs": [],
      "name": "InvalidDepositorSignature",
      "type": "error"
    },
    {
      "inputs": [],
      "name": "InvalidExclusiveRelayer",
      "type": "error"
    },
    {
      "inputs": [],
      "name": "InvalidFillDeadline",
      "type": "error"
    },
    {
      "inputs": [],
      "name": "InvalidMerkleLeaf",
      "type": "error"
    },
    {
      "inputs": [],
      "name": "InvalidMerkleProof",
      "type": "error"
    },
    {
      "inputs": [],
      "name": "InvalidPayoutAdjustmentPct",
      "type": "error"
    },
    {
      "inputs": [],
      "name": "InvalidQuoteTimestamp",
      "type": "error"
    },
    {
      "inputs": [],
      "name": "InvalidRelayerFeePct",
      "type": "error"
    },
    {
      "inputs": [],
      "name": "InvalidSlowFillRequest",
      "type": "error"
    },
    {
      "inputs": [],
      "name": "InvalidWithdrawalRecipient",
      "type": "error"
    },
    {
      "inputs": [
        {
          "internalType": "bytes",
          "name": "data",
          "type": "bytes"
        }
      ],
      "name": "LowLevelCallFailed",
      "type": "error"
    },
    {
      "inputs": [],
      "name": "MaxTransferSizeExceeded",
      "type": "error"
    },
    {
      "inputs": [],
      "name": "MsgValueDoesNotMatchInputAmount",
      "type": "error"
    },
    {
      "inputs": [],
      "name": "NoRelayerRefundToClaim",
      "type": "error"
    },
    {
      "inputs": [],
      "name": "NoSlowFillsInExclusivityWindow",
      "type": "error"
    },
    {
      "inputs": [],
      "name": "NotEOA",
      "type": "error"
    },
    {
      "inputs": [],
      "name": "NotExclusiveRelayer",
      "type": "error"
    },
    {
      "inputs": [],
      "name": "RelayFilled",
      "type": "error"
    },
    {
      "inputs": [],
      "name": "WrongERC7683OrderId",
      "type": "error"
    },
    {
      "anonymous": false,
      "inputs": [
        {
          "indexed": false,
          "internalType": "address",
          "name": "previousAdmin",
          "type": "address"
        },
        {
          "indexed": false,
          "internalType": "address",
          "name": "newAdmin",
          "type": "address"
        }
      ],
      "name": "AdminChanged",
      "type": "event"
    },
    {
      "anonymous": false,
      "inputs": [
        {
          "indexed": true,
          "internalType": "address",
          "name": "beacon",
          "type": "address"
        }
      ],
      "name": "BeaconUpgraded",
      "type": "event"
    },
    {
      "anonymous": false,
      "inputs": [
        {
          "indexed": true,
          "internalType": "bytes32",
          "name": "l2TokenAddress",
          "type": "bytes32"
        },
        {
          "indexed": true,
          "internalType": "bytes32",
          "name": "refundAddress",
          "type": "bytes32"
        },
        {
          "indexed": false,
          "internalType": "uint256",
          "name": "amount",
          "type": "uint256"
        },
        {
          "indexed": true,
          "internalType": "address",
          "name": "caller",
          "type": "address"
        }
      ],
      "name": "ClaimedRelayerRefund",
      "type": "event"
    },
    {
      "anonymous": false,
      "inputs": [
        {
          "indexed": true,
          "internalType": "uint256",
          "name": "rootBundleId",
          "type": "uint256"
        }
      ],
      "name": "EmergencyDeletedRootBundle",
      "type": "event"
    },
    {
      "anonymous": false,
      "inputs": [
        {
          "indexed": true,
          "internalType": "address",
          "name": "originToken",
          "type": "address"
        },
        {
          "indexed": true,
          "internalType": "uint256",
          "name": "destinationChainId",
          "type": "uint256"
        },
        {
          "indexed": false,
          "internalType": "bool",
          "name": "enabled",
          "type": "bool"
        }
      ],
      "name": "EnabledDepositRoute",
      "type": "event"
    },
    {
      "anonymous": false,
      "inputs": [
        {
          "indexed": false,
          "internalType": "uint256",
          "name": "amountToReturn",
          "type": "uint256"
        },
        {
          "indexed": true,
          "internalType": "uint256",
          "name": "chainId",
          "type": "uint256"
        },
        {
          "indexed": false,
          "internalType": "uint256[]",
          "name": "refundAmounts",
          "type": "uint256[]"
        },
        {
          "indexed": true,
          "internalType": "uint32",
          "name": "rootBundleId",
          "type": "uint32"
        },
        {
          "indexed": true,
          "internalType": "uint32",
          "name": "leafId",
          "type": "uint32"
        },
        {
          "indexed": false,
          "internalType": "address",
          "name": "l2TokenAddress",
          "type": "address"
        },
        {
          "indexed": false,
          "internalType": "address[]",
          "name": "refundAddresses",
          "type": "address[]"
        },
        {
          "indexed": false,
          "internalType": "bool",
          "name": "deferredRefunds",
          "type": "bool"
        },
        {
          "indexed": false,
          "internalType": "address",
          "name": "caller",
          "type": "address"
        }
      ],
      "name": "ExecutedRelayerRefundRoot",
      "type": "event"
    },
    {
      "anonymous": false,
      "inputs": [
        {
          "indexed": false,
          "internalType": "bytes32",
          "name": "inputToken",
          "type": "bytes32"
        },
        {
          "indexed": false,
          "internalType": "bytes32",
          "name": "outputToken",
          "type": "bytes32"
        },
        {
          "indexed": false,
          "internalType": "uint256",
          "name": "inputAmount",
          "type": "uint256"
        },
        {
          "indexed": false,
          "internalType": "uint256",
          "name": "outputAmount",
          "type": "uint256"
        },
        {
          "indexed": false,
          "internalType": "uint256",
          "name": "repaymentChainId",
          "type": "uint256"
        },
        {
          "indexed": true,
          "internalType": "uint256",
          "name": "originChainId",
          "type": "uint256"
        },
        {
          "indexed": true,
          "internalType": "uint256",
          "name": "depositId",
          "type": "uint256"
        },
        {
          "indexed": false,
          "internalType": "uint32",
          "name": "fillDeadline",
          "type": "uint32"
        },
        {
          "indexed": false,
          "internalType": "uint32",
          "name": "exclusivityDeadline",
          "type": "uint32"
        },
        {
          "indexed": false,
          "internalType": "bytes32",
          "name": "exclusiveRelayer",
          "type": "bytes32"
        },
        {
          "indexed": true,
          "internalType": "bytes32",
          "name": "relayer",
          "type": "bytes32"
        },
        {
          "indexed": false,
          "internalType": "bytes32",
          "name": "depositor",
          "type": "bytes32"
        },
        {
          "indexed": false,
          "internalType": "bytes32",
          "name": "recipient",
          "type": "bytes32"
        },
        {
          "indexed": false,
          "internalType": "bytes32",
          "name": "messageHash",
          "type": "bytes32"
        },
        {
          "components": [
            {
              "internalType": "bytes32",
              "name": "updatedRecipient",
              "type": "bytes32"
            },
            {
              "internalType": "bytes32",
              "name": "updatedMessageHash",
              "type": "bytes32"
            },
            {
              "internalType": "uint256",
              "name": "updatedOutputAmount",
              "type": "uint256"
            },
            {
              "internalType": "enum V3SpokePoolInterface.FillType",
              "name": "fillType",
              "type": "uint8"
            }
          ],
          "indexed": false,
          "internalType": "struct V3SpokePoolInterface.V3RelayExecutionEventInfo",
          "name": "relayExecutionInfo",
          "type": "tuple"
        }
      ],
      "name": "FilledRelay",
      "type": "event"
    },
    {
      "anonymous": false,
      "inputs": [
        {
          "indexed": false,
          "internalType": "address",
          "name": "inputToken",
          "type": "address"
        },
        {
          "indexed": false,
          "internalType": "address",
          "name": "outputToken",
          "type": "address"
        },
        {
          "indexed": false,
          "internalType": "uint256",
          "name": "inputAmount",
          "type": "uint256"
        },
        {
          "indexed": false,
          "internalType": "uint256",
          "name": "outputAmount",
          "type": "uint256"
        },
        {
          "indexed": false,
          "internalType": "uint256",
          "name": "repaymentChainId",
          "type": "uint256"
        },
        {
          "indexed": true,
          "internalType": "uint256",
          "name": "originChainId",
          "type": "uint256"
        },
        {
          "indexed": true,
          "internalType": "uint32",
          "name": "depositId",
          "type": "uint32"
        },
        {
          "indexed": false,
          "internalType": "uint32",
          "name": "fillDeadline",
          "type": "uint32"
        },
        {
          "indexed": false,
          "internalType": "uint32",
          "name": "exclusivityDeadline",
          "type": "uint32"
        },
        {
          "indexed": false,
          "internalType": "address",
          "name": "exclusiveRelayer",
          "type": "address"
        },
        {
          "indexed": true,
          "internalType": "address",
          "name": "relayer",
          "type": "address"
        },
        {
          "indexed": false,
          "internalType": "address",
          "name": "depositor",
          "type": "address"
        },
        {
          "indexed": false,
          "internalType": "address",
          "name": "recipient",
          "type": "address"
        },
        {
          "indexed": false,
          "internalType": "bytes",
          "name": "message",
          "type": "bytes"
        },
        {
          "components": [
            {
              "internalType": "address",
              "name": "updatedRecipient",
              "type": "address"
            },
            {
              "internalType": "bytes",
              "name": "updatedMessage",
              "type": "bytes"
            },
            {
              "internalType": "uint256",
              "name": "updatedOutputAmount",
              "type": "uint256"
            },
            {
              "internalType": "enum V3SpokePoolInterface.FillType",
              "name": "fillType",
              "type": "uint8"
            }
          ],
          "indexed": false,
          "internalType": "struct V3SpokePoolInterface.LegacyV3RelayExecutionEventInfo",
          "name": "relayExecutionInfo",
          "type": "tuple"
        }
      ],
      "name": "FilledV3Relay",
      "type": "event"
    },
    {
      "anonymous": false,
      "inputs": [
        {
          "indexed": false,
          "internalType": "bytes32",
          "name": "inputToken",
          "type": "bytes32"
        },
        {
          "indexed": false,
          "internalType": "bytes32",
          "name": "outputToken",
          "type": "bytes32"
        },
        {
          "indexed": false,
          "internalType": "uint256",
          "name": "inputAmount",
          "type": "uint256"
        },
        {
          "indexed": false,
          "internalType": "uint256",
          "name": "outputAmount",
          "type": "uint256"
        },
        {
          "indexed": true,
          "internalType": "uint256",
          "name": "destinationChainId",
          "type": "uint256"
        },
        {
          "indexed": true,
          "internalType": "uint256",
          "name": "depositId",
          "type": "uint256"
        },
        {
          "indexed": false,
          "internalType": "uint32",
          "name": "quoteTimestamp",
          "type": "uint32"
        },
        {
          "indexed": false,
          "internalType": "uint32",
          "name": "fillDeadline",
          "type": "uint32"
        },
        {
          "indexed": false,
          "internalType": "uint32",
          "name": "exclusivityDeadline",
          "type": "uint32"
        },
        {
          "indexed": true,
          "internalType": "bytes32",
          "name": "depositor",
          "type": "bytes32"
        },
        {
          "indexed": false,
          "internalType": "bytes32",
          "name": "recipient",
          "type": "bytes32"
        },
        {
          "indexed": false,
          "internalType": "bytes32",
          "name": "exclusiveRelayer",
          "type": "bytes32"
        },
        {
          "indexed": false,
          "internalType": "bytes",
          "name": "message",
          "type": "bytes"
        }
      ],
      "name": "FundsDeposited",
      "type": "event"
    },
    {
      "anonymous": false,
      "inputs": [
        {
          "indexed": false,
          "internalType": "uint8",
          "name": "version",
          "type": "uint8"
        }
      ],
      "name": "Initialized",
      "type": "event"
    },
    {
      "anonymous": false,
      "inputs": [
        {
          "indexed": false,
          "internalType": "bool",
          "name": "isPaused",
          "type": "bool"
        }
      ],
      "name": "PausedDeposits",
      "type": "event"
    },
    {
      "anonymous": false,
      "inputs": [
        {
          "indexed": false,
          "internalType": "bool",
          "name": "isPaused",
          "type": "bool"
        }
      ],
      "name": "PausedFills",
      "type": "event"
    },
    {
      "anonymous": false,
      "inputs": [
        {
          "indexed": true,
          "internalType": "uint32",
          "name": "rootBundleId",
          "type": "uint32"
        },
        {
          "indexed": true,
          "internalType": "bytes32",
          "name": "relayerRefundRoot",
          "type": "bytes32"
        },
        {
          "indexed": true,
          "internalType": "bytes32",
          "name": "slowRelayRoot",
          "type": "bytes32"
        }
      ],
      "name": "RelayedRootBundle",
      "type": "event"
    },
    {
      "anonymous": false,
      "inputs": [
        {
          "indexed": false,
          "internalType": "bytes32",
          "name": "inputToken",
          "type": "bytes32"
        },
        {
          "indexed": false,
          "internalType": "bytes32",
          "name": "outputToken",
          "type": "bytes32"
        },
        {
          "indexed": false,
          "internalType": "uint256",
          "name": "inputAmount",
          "type": "uint256"
        },
        {
          "indexed": false,
          "internalType": "uint256",
          "name": "outputAmount",
          "type": "uint256"
        },
        {
          "indexed": true,
          "internalType": "uint256",
          "name": "originChainId",
          "type": "uint256"
        },
        {
          "indexed": true,
          "internalType": "uint256",
          "name": "depositId",
          "type": "uint256"
        },
        {
          "indexed": false,
          "internalType": "uint32",
          "name": "fillDeadline",
          "type": "uint32"
        },
        {
          "indexed": false,
          "internalType": "uint32",
          "name": "exclusivityDeadline",
          "type": "uint32"
        },
        {
          "indexed": false,
          "internalType": "bytes32",
          "name": "exclusiveRelayer",
          "type": "bytes32"
        },
        {
          "indexed": false,
          "internalType": "bytes32",
          "name": "depositor",
          "type": "bytes32"
        },
        {
          "indexed": false,
          "internalType": "bytes32",
          "name": "recipient",
          "type": "bytes32"
        },
        {
          "indexed": false,
          "internalType": "bytes32",
          "name": "messageHash",
          "type": "bytes32"
        }
      ],
      "name": "RequestedSlowFill",
      "type": "event"
    },
    {
      "anonymous": false,
      "inputs": [
        {
          "indexed": false,
          "internalType": "uint256",
          "name": "updatedOutputAmount",
          "type": "uint256"
        },
        {
          "indexed": true,
          "internalType": "uint256",
          "name": "depositId",
          "type": "uint256"
        },
        {
          "indexed": true,
          "internalType": "bytes32",
          "name": "depositor",
          "type": "bytes32"
        },
        {
          "indexed": false,
          "internalType": "bytes32",
          "name": "updatedRecipient",
          "type": "bytes32"
        },
        {
          "indexed": false,
          "internalType": "bytes",
          "name": "updatedMessage",
          "type": "bytes"
        },
        {
          "indexed": false,
          "internalType": "bytes",
          "name": "depositorSignature",
          "type": "bytes"
        }
      ],
      "name": "RequestedSpeedUpDeposit",
      "type": "event"
    },
    {
      "anonymous": false,
      "inputs": [
        {
          "indexed": false,
          "internalType": "uint256",
          "name": "updatedOutputAmount",
          "type": "uint256"
        },
        {
          "indexed": true,
          "internalType": "uint32",
          "name": "depositId",
          "type": "uint32"
        },
        {
          "indexed": true,
          "internalType": "address",
          "name": "depositor",
          "type": "address"
        },
        {
          "indexed": false,
          "internalType": "address",
          "name": "updatedRecipient",
          "type": "address"
        },
        {
          "indexed": false,
          "internalType": "bytes",
          "name": "updatedMessage",
          "type": "bytes"
        },
        {
          "indexed": false,
          "internalType": "bytes",
          "name": "depositorSignature",
          "type": "bytes"
        }
      ],
      "name": "RequestedSpeedUpV3Deposit",
      "type": "event"
    },
    {
      "anonymous": false,
      "inputs": [
        {
          "indexed": false,
          "internalType": "address",
          "name": "inputToken",
          "type": "address"
        },
        {
          "indexed": false,
          "internalType": "address",
          "name": "outputToken",
          "type": "address"
        },
        {
          "indexed": false,
          "internalType": "uint256",
          "name": "inputAmount",
          "type": "uint256"
        },
        {
          "indexed": false,
          "internalType": "uint256",
          "name": "outputAmount",
          "type": "uint256"
        },
        {
          "indexed": true,
          "internalType": "uint256",
          "name": "originChainId",
          "type": "uint256"
        },
        {
          "indexed": true,
          "internalType": "uint32",
          "name": "depositId",
          "type": "uint32"
        },
        {
          "indexed": false,
          "internalType": "uint32",
          "name": "fillDeadline",
          "type": "uint32"
        },
        {
          "indexed": false,
          "internalType": "uint32",
          "name": "exclusivityDeadline",
          "type": "uint32"
        },
        {
          "indexed": false,
          "internalType": "address",
          "name": "exclusiveRelayer",
          "type": "address"
        },
        {
          "indexed": false,
          "internalType": "address",
          "name": "depositor",
          "type": "address"
        },
        {
          "indexed": false,
          "internalType": "address",
          "name": "recipient",
          "type": "address"
        },
        {
          "indexed": false,
          "internalType": "bytes",
          "name": "message",
          "type": "bytes"
        }
      ],
      "name": "RequestedV3SlowFill",
      "type": "event"
    },
    {
      "anonymous": false,
      "inputs": [
        {
          "indexed": true,
          "internalType": "address",
          "name": "newMessageService",
          "type": "address"
        },
        {
          "indexed": false,
          "internalType": "address",
          "name": "oldMessageService",
          "type": "address"
        }
      ],
      "name": "SetL2MessageService",
      "type": "event"
    },
    {
      "anonymous": false,
      "inputs": [
        {
          "indexed": true,
          "internalType": "address",
          "name": "newTokenBridge",
          "type": "address"
        },
        {
          "indexed": false,
          "internalType": "address",
          "name": "oldTokenBridge",
          "type": "address"
        }
      ],
      "name": "SetL2TokenBridge",
      "type": "event"
    },
    {
      "anonymous": false,
      "inputs": [
        {
          "indexed": true,
          "internalType": "address",
          "name": "newUsdcBridge",
          "type": "address"
        },
        {
          "indexed": false,
          "internalType": "address",
          "name": "oldUsdcBridge",
          "type": "address"
        }
      ],
      "name": "SetL2UsdcBridge",
      "type": "event"
    },
    {
      "anonymous": false,
      "inputs": [
        {
          "indexed": true,
          "internalType": "address",
          "name": "newWithdrawalRecipient",
          "type": "address"
        }
      ],
      "name": "SetWithdrawalRecipient",
      "type": "event"
    },
    {
      "anonymous": false,
      "inputs": [
        {
          "indexed": true,
          "internalType": "address",
          "name": "newAdmin",
          "type": "address"
        }
      ],
      "name": "SetXDomainAdmin",
      "type": "event"
    },
    {
      "anonymous": false,
      "inputs": [
        {
          "indexed": false,
          "internalType": "uint256",
          "name": "amountToReturn",
          "type": "uint256"
        },
        {
          "indexed": true,
          "internalType": "uint256",
          "name": "chainId",
          "type": "uint256"
        },
        {
          "indexed": true,
          "internalType": "uint32",
          "name": "leafId",
          "type": "uint32"
        },
        {
          "indexed": true,
          "internalType": "bytes32",
          "name": "l2TokenAddress",
          "type": "bytes32"
        },
        {
          "indexed": false,
          "internalType": "address",
          "name": "caller",
          "type": "address"
        }
      ],
      "name": "TokensBridged",
      "type": "event"
    },
    {
      "anonymous": false,
      "inputs": [
        {
          "indexed": true,
          "internalType": "address",
          "name": "implementation",
          "type": "address"
        }
      ],
      "name": "Upgraded",
      "type": "event"
    },
    {
      "anonymous": false,
      "inputs": [
        {
          "indexed": false,
          "internalType": "address",
          "name": "inputToken",
          "type": "address"
        },
        {
          "indexed": false,
          "internalType": "address",
          "name": "outputToken",
          "type": "address"
        },
        {
          "indexed": false,
          "internalType": "uint256",
          "name": "inputAmount",
          "type": "uint256"
        },
        {
          "indexed": false,
          "internalType": "uint256",
          "name": "outputAmount",
          "type": "uint256"
        },
        {
          "indexed": true,
          "internalType": "uint256",
          "name": "destinationChainId",
          "type": "uint256"
        },
        {
          "indexed": true,
          "internalType": "uint32",
          "name": "depositId",
          "type": "uint32"
        },
        {
          "indexed": false,
          "internalType": "uint32",
          "name": "quoteTimestamp",
          "type": "uint32"
        },
        {
          "indexed": false,
          "internalType": "uint32",
          "name": "fillDeadline",
          "type": "uint32"
        },
        {
          "indexed": false,
          "internalType": "uint32",
          "name": "exclusivityDeadline",
          "type": "uint32"
        },
        {
          "indexed": true,
          "internalType": "address",
          "name": "depositor",
          "type": "address"
        },
        {
          "indexed": false,
          "internalType": "address",
          "name": "recipient",
          "type": "address"
        },
        {
          "indexed": false,
          "internalType": "address",
          "name": "exclusiveRelayer",
          "type": "address"
        },
        {
          "indexed": false,
          "internalType": "bytes",
          "name": "message",
          "type": "bytes"
        }
      ],
      "name": "V3FundsDeposited",
      "type": "event"
    },
    {
      "inputs": [],
      "name": "EMPTY_RELAYER",
      "outputs": [
        {
          "internalType": "bytes32",
          "name": "",
          "type": "bytes32"
        }
      ],
      "stateMutability": "view",
      "type": "function"
    },
    {
      "inputs": [],
      "name": "EMPTY_REPAYMENT_CHAIN_ID",
      "outputs": [
        {
          "internalType": "uint256",
          "name": "",
          "type": "uint256"
        }
      ],
      "stateMutability": "view",
      "type": "function"
    },
    {
      "inputs": [],
      "name": "INFINITE_FILL_DEADLINE",
      "outputs": [
        {
          "internalType": "uint32",
          "name": "",
          "type": "uint32"
        }
      ],
      "stateMutability": "view",
      "type": "function"
    },
    {
      "inputs": [],
      "name": "MAX_EXCLUSIVITY_PERIOD_SECONDS",
      "outputs": [
        {
          "internalType": "uint32",
          "name": "",
          "type": "uint32"
        }
      ],
      "stateMutability": "view",
      "type": "function"
    },
    {
      "inputs": [],
      "name": "MAX_TRANSFER_SIZE",
      "outputs": [
        {
          "internalType": "uint256",
          "name": "",
          "type": "uint256"
        }
      ],
      "stateMutability": "view",
      "type": "function"
    },
    {
      "inputs": [],
      "name": "UPDATE_ADDRESS_DEPOSIT_DETAILS_HASH",
      "outputs": [
        {
          "internalType": "bytes32",
          "name": "",
          "type": "bytes32"
        }
      ],
      "stateMutability": "view",
      "type": "function"
    },
    {
      "inputs": [],
      "name": "UPDATE_BYTES32_DEPOSIT_DETAILS_HASH",
      "outputs": [
        {
          "internalType": "bytes32",
          "name": "",
          "type": "bytes32"
        }
      ],
      "stateMutability": "view",
      "type": "function"
    },
    {
      "inputs": [
        {
          "internalType": "uint32",
          "name": "_initialDepositId",
          "type": "uint32"
        },
        {
          "internalType": "address",
          "name": "_crossDomainAdmin",
          "type": "address"
        },
        {
          "internalType": "address",
          "name": "_withdrawalRecipient",
          "type": "address"
        }
      ],
      "name": "__SpokePool_init",
      "outputs": [],
      "stateMutability": "nonpayable",
      "type": "function"
    },
    {
      "inputs": [],
      "name": "chainId",
      "outputs": [
        {
          "internalType": "uint256",
          "name": "",
          "type": "uint256"
        }
      ],
      "stateMutability": "view",
      "type": "function"
    },
    {
      "inputs": [
        {
          "internalType": "bytes32",
          "name": "l2TokenAddress",
          "type": "bytes32"
        },
        {
          "internalType": "bytes32",
          "name": "refundAddress",
          "type": "bytes32"
        }
      ],
      "name": "claimRelayerRefund",
      "outputs": [],
      "stateMutability": "nonpayable",
      "type": "function"
    },
    {
      "inputs": [],
      "name": "crossDomainAdmin",
      "outputs": [
        {
          "internalType": "address",
          "name": "",
          "type": "address"
        }
      ],
      "stateMutability": "view",
      "type": "function"
    },
    {
      "inputs": [
        {
          "internalType": "bytes32",
          "name": "depositor",
          "type": "bytes32"
        },
        {
          "internalType": "bytes32",
          "name": "recipient",
          "type": "bytes32"
        },
        {
          "internalType": "bytes32",
          "name": "inputToken",
          "type": "bytes32"
        },
        {
          "internalType": "bytes32",
          "name": "outputToken",
          "type": "bytes32"
        },
        {
          "internalType": "uint256",
          "name": "inputAmount",
          "type": "uint256"
        },
        {
          "internalType": "uint256",
          "name": "outputAmount",
          "type": "uint256"
        },
        {
          "internalType": "uint256",
          "name": "destinationChainId",
          "type": "uint256"
        },
        {
          "internalType": "bytes32",
          "name": "exclusiveRelayer",
          "type": "bytes32"
        },
        {
          "internalType": "uint32",
          "name": "quoteTimestamp",
          "type": "uint32"
        },
        {
          "internalType": "uint32",
          "name": "fillDeadline",
          "type": "uint32"
        },
        {
          "internalType": "uint32",
          "name": "exclusivityParameter",
          "type": "uint32"
        },
        {
          "internalType": "bytes",
          "name": "message",
          "type": "bytes"
        }
      ],
      "name": "deposit",
      "outputs": [],
      "stateMutability": "payable",
      "type": "function"
    },
    {
      "inputs": [
        {
          "internalType": "address",
          "name": "recipient",
          "type": "address"
        },
        {
          "internalType": "address",
          "name": "originToken",
          "type": "address"
        },
        {
          "internalType": "uint256",
          "name": "amount",
          "type": "uint256"
        },
        {
          "internalType": "uint256",
          "name": "destinationChainId",
          "type": "uint256"
        },
        {
          "internalType": "int64",
          "name": "relayerFeePct",
          "type": "int64"
        },
        {
          "internalType": "uint32",
          "name": "quoteTimestamp",
          "type": "uint32"
        },
        {
          "internalType": "bytes",
          "name": "message",
          "type": "bytes"
        },
        {
          "internalType": "uint256",
          "name": "",
          "type": "uint256"
        }
      ],
      "name": "depositDeprecated_5947912356",
      "outputs": [],
      "stateMutability": "payable",
      "type": "function"
    },
    {
      "inputs": [
        {
          "internalType": "address",
          "name": "depositor",
          "type": "address"
        },
        {
          "internalType": "address",
          "name": "recipient",
          "type": "address"
        },
        {
          "internalType": "address",
          "name": "originToken",
          "type": "address"
        },
        {
          "internalType": "uint256",
          "name": "amount",
          "type": "uint256"
        },
        {
          "internalType": "uint256",
          "name": "destinationChainId",
          "type": "uint256"
        },
        {
          "internalType": "int64",
          "name": "relayerFeePct",
          "type": "int64"
        },
        {
          "internalType": "uint32",
          "name": "quoteTimestamp",
          "type": "uint32"
        },
        {
          "internalType": "bytes",
          "name": "message",
          "type": "bytes"
        },
        {
          "internalType": "uint256",
          "name": "",
          "type": "uint256"
        }
      ],
      "name": "depositFor",
      "outputs": [],
      "stateMutability": "payable",
      "type": "function"
    },
    {
      "inputs": [
        {
          "internalType": "bytes32",
          "name": "depositor",
          "type": "bytes32"
        },
        {
          "internalType": "bytes32",
          "name": "recipient",
          "type": "bytes32"
        },
        {
          "internalType": "bytes32",
          "name": "inputToken",
          "type": "bytes32"
        },
        {
          "internalType": "bytes32",
          "name": "outputToken",
          "type": "bytes32"
        },
        {
          "internalType": "uint256",
          "name": "inputAmount",
          "type": "uint256"
        },
        {
          "internalType": "uint256",
          "name": "outputAmount",
          "type": "uint256"
        },
        {
          "internalType": "uint256",
          "name": "destinationChainId",
          "type": "uint256"
        },
        {
          "internalType": "bytes32",
          "name": "exclusiveRelayer",
          "type": "bytes32"
        },
        {
          "internalType": "uint32",
          "name": "fillDeadlineOffset",
          "type": "uint32"
        },
        {
          "internalType": "uint32",
          "name": "exclusivityParameter",
          "type": "uint32"
        },
        {
          "internalType": "bytes",
          "name": "message",
          "type": "bytes"
        }
      ],
      "name": "depositNow",
      "outputs": [],
      "stateMutability": "payable",
      "type": "function"
    },
    {
      "inputs": [],
      "name": "depositQuoteTimeBuffer",
      "outputs": [
        {
          "internalType": "uint32",
          "name": "",
          "type": "uint32"
        }
      ],
      "stateMutability": "view",
      "type": "function"
    },
    {
      "inputs": [
        {
          "internalType": "address",
          "name": "depositor",
          "type": "address"
        },
        {
          "internalType": "address",
          "name": "recipient",
          "type": "address"
        },
        {
          "internalType": "address",
          "name": "inputToken",
          "type": "address"
        },
        {
          "internalType": "address",
          "name": "outputToken",
          "type": "address"
        },
        {
          "internalType": "uint256",
          "name": "inputAmount",
          "type": "uint256"
        },
        {
          "internalType": "uint256",
          "name": "outputAmount",
          "type": "uint256"
        },
        {
          "internalType": "uint256",
          "name": "destinationChainId",
          "type": "uint256"
        },
        {
          "internalType": "address",
          "name": "exclusiveRelayer",
          "type": "address"
        },
        {
          "internalType": "uint32",
          "name": "quoteTimestamp",
          "type": "uint32"
        },
        {
          "internalType": "uint32",
          "name": "fillDeadline",
          "type": "uint32"
        },
        {
          "internalType": "uint32",
          "name": "exclusivityParameter",
          "type": "uint32"
        },
        {
          "internalType": "bytes",
          "name": "message",
          "type": "bytes"
        }
      ],
      "name": "depositV3",
      "outputs": [],
      "stateMutability": "payable",
      "type": "function"
    },
    {
      "inputs": [
        {
          "internalType": "address",
          "name": "depositor",
          "type": "address"
        },
        {
          "internalType": "address",
          "name": "recipient",
          "type": "address"
        },
        {
          "internalType": "address",
          "name": "inputToken",
          "type": "address"
        },
        {
          "internalType": "address",
          "name": "outputToken",
          "type": "address"
        },
        {
          "internalType": "uint256",
          "name": "inputAmount",
          "type": "uint256"
        },
        {
          "internalType": "uint256",
          "name": "outputAmount",
          "type": "uint256"
        },
        {
          "internalType": "uint256",
          "name": "destinationChainId",
          "type": "uint256"
        },
        {
          "internalType": "address",
          "name": "exclusiveRelayer",
          "type": "address"
        },
        {
          "internalType": "uint32",
          "name": "fillDeadlineOffset",
          "type": "uint32"
        },
        {
          "internalType": "uint32",
          "name": "exclusivityParameter",
          "type": "uint32"
        },
        {
          "internalType": "bytes",
          "name": "message",
          "type": "bytes"
        }
      ],
      "name": "depositV3Now",
      "outputs": [],
      "stateMutability": "payable",
      "type": "function"
    },
    {
      "inputs": [
        {
          "internalType": "uint256",
          "name": "rootBundleId",
          "type": "uint256"
        }
      ],
      "name": "emergencyDeleteRootBundle",
      "outputs": [],
      "stateMutability": "nonpayable",
      "type": "function"
    },
    {
      "inputs": [
        {
          "internalType": "address",
          "name": "",
          "type": "address"
        },
        {
          "internalType": "uint256",
          "name": "",
          "type": "uint256"
        }
      ],
      "name": "enabledDepositRoutes",
      "outputs": [
        {
          "internalType": "bool",
          "name": "",
          "type": "bool"
        }
      ],
      "stateMutability": "view",
      "type": "function"
    },
    {
      "inputs": [
        {
          "internalType": "uint32",
          "name": "rootBundleId",
          "type": "uint32"
        },
        {
          "components": [
            {
              "internalType": "uint256",
              "name": "amountToReturn",
              "type": "uint256"
            },
            {
              "internalType": "uint256",
              "name": "chainId",
              "type": "uint256"
            },
            {
              "internalType": "uint256[]",
              "name": "refundAmounts",
              "type": "uint256[]"
            },
            {
              "internalType": "uint32",
              "name": "leafId",
              "type": "uint32"
            },
            {
              "internalType": "address",
              "name": "l2TokenAddress",
              "type": "address"
            },
            {
              "internalType": "address[]",
              "name": "refundAddresses",
              "type": "address[]"
            }
          ],
          "internalType": "struct SpokePoolInterface.RelayerRefundLeaf",
          "name": "relayerRefundLeaf",
          "type": "tuple"
        },
        {
          "internalType": "bytes32[]",
          "name": "proof",
          "type": "bytes32[]"
        }
      ],
      "name": "executeRelayerRefundLeaf",
      "outputs": [],
      "stateMutability": "payable",
      "type": "function"
    },
    {
      "inputs": [
        {
          "components": [
            {
              "components": [
                {
                  "internalType": "bytes32",
                  "name": "depositor",
                  "type": "bytes32"
                },
                {
                  "internalType": "bytes32",
                  "name": "recipient",
                  "type": "bytes32"
                },
                {
                  "internalType": "bytes32",
                  "name": "exclusiveRelayer",
                  "type": "bytes32"
                },
                {
                  "internalType": "bytes32",
                  "name": "inputToken",
                  "type": "bytes32"
                },
                {
                  "internalType": "bytes32",
                  "name": "outputToken",
                  "type": "bytes32"
                },
                {
                  "internalType": "uint256",
                  "name": "inputAmount",
                  "type": "uint256"
                },
                {
                  "internalType": "uint256",
                  "name": "outputAmount",
                  "type": "uint256"
                },
                {
                  "internalType": "uint256",
                  "name": "originChainId",
                  "type": "uint256"
                },
                {
                  "internalType": "uint256",
                  "name": "depositId",
                  "type": "uint256"
                },
                {
                  "internalType": "uint32",
                  "name": "fillDeadline",
                  "type": "uint32"
                },
                {
                  "internalType": "uint32",
                  "name": "exclusivityDeadline",
                  "type": "uint32"
                },
                {
                  "internalType": "bytes",
                  "name": "message",
                  "type": "bytes"
                }
              ],
              "internalType": "struct V3SpokePoolInterface.V3RelayData",
              "name": "relayData",
              "type": "tuple"
            },
            {
              "internalType": "uint256",
              "name": "chainId",
              "type": "uint256"
            },
            {
              "internalType": "uint256",
              "name": "updatedOutputAmount",
              "type": "uint256"
            }
          ],
          "internalType": "struct V3SpokePoolInterface.V3SlowFill",
          "name": "slowFillLeaf",
          "type": "tuple"
        },
        {
          "internalType": "uint32",
          "name": "rootBundleId",
          "type": "uint32"
        },
        {
          "internalType": "bytes32[]",
          "name": "proof",
          "type": "bytes32[]"
        }
      ],
      "name": "executeSlowRelayLeaf",
      "outputs": [],
      "stateMutability": "nonpayable",
      "type": "function"
    },
    {
      "inputs": [
        {
          "internalType": "bytes32",
          "name": "orderId",
          "type": "bytes32"
        },
        {
          "internalType": "bytes",
          "name": "originData",
          "type": "bytes"
        },
        {
          "internalType": "bytes",
          "name": "fillerData",
          "type": "bytes"
        }
      ],
      "name": "fill",
      "outputs": [],
      "stateMutability": "nonpayable",
      "type": "function"
    },
    {
      "inputs": [],
      "name": "fillDeadlineBuffer",
      "outputs": [
        {
          "internalType": "uint32",
          "name": "",
          "type": "uint32"
        }
      ],
      "stateMutability": "view",
      "type": "function"
    },
    {
      "inputs": [
        {
          "components": [
            {
              "internalType": "bytes32",
              "name": "depositor",
              "type": "bytes32"
            },
            {
              "internalType": "bytes32",
              "name": "recipient",
              "type": "bytes32"
            },
            {
              "internalType": "bytes32",
              "name": "exclusiveRelayer",
              "type": "bytes32"
            },
            {
              "internalType": "bytes32",
              "name": "inputToken",
              "type": "bytes32"
            },
            {
              "internalType": "bytes32",
              "name": "outputToken",
              "type": "bytes32"
            },
            {
              "internalType": "uint256",
              "name": "inputAmount",
              "type": "uint256"
            },
            {
              "internalType": "uint256",
              "name": "outputAmount",
              "type": "uint256"
            },
            {
              "internalType": "uint256",
              "name": "originChainId",
              "type": "uint256"
            },
            {
              "internalType": "uint256",
              "name": "depositId",
              "type": "uint256"
            },
            {
              "internalType": "uint32",
              "name": "fillDeadline",
              "type": "uint32"
            },
            {
              "internalType": "uint32",
              "name": "exclusivityDeadline",
              "type": "uint32"
            },
            {
              "internalType": "bytes",
              "name": "message",
              "type": "bytes"
            }
          ],
          "internalType": "struct V3SpokePoolInterface.V3RelayData",
          "name": "relayData",
          "type": "tuple"
        },
        {
          "internalType": "uint256",
          "name": "repaymentChainId",
          "type": "uint256"
        },
        {
          "internalType": "bytes32",
          "name": "repaymentAddress",
          "type": "bytes32"
        }
      ],
      "name": "fillRelay",
      "outputs": [],
      "stateMutability": "nonpayable",
      "type": "function"
    },
    {
      "inputs": [
        {
          "components": [
            {
              "internalType": "bytes32",
              "name": "depositor",
              "type": "bytes32"
            },
            {
              "internalType": "bytes32",
              "name": "recipient",
              "type": "bytes32"
            },
            {
              "internalType": "bytes32",
              "name": "exclusiveRelayer",
              "type": "bytes32"
            },
            {
              "internalType": "bytes32",
              "name": "inputToken",
              "type": "bytes32"
            },
            {
              "internalType": "bytes32",
              "name": "outputToken",
              "type": "bytes32"
            },
            {
              "internalType": "uint256",
              "name": "inputAmount",
              "type": "uint256"
            },
            {
              "internalType": "uint256",
              "name": "outputAmount",
              "type": "uint256"
            },
            {
              "internalType": "uint256",
              "name": "originChainId",
              "type": "uint256"
            },
            {
              "internalType": "uint256",
              "name": "depositId",
              "type": "uint256"
            },
            {
              "internalType": "uint32",
              "name": "fillDeadline",
              "type": "uint32"
            },
            {
              "internalType": "uint32",
              "name": "exclusivityDeadline",
              "type": "uint32"
            },
            {
              "internalType": "bytes",
              "name": "message",
              "type": "bytes"
            }
          ],
          "internalType": "struct V3SpokePoolInterface.V3RelayData",
          "name": "relayData",
          "type": "tuple"
        },
        {
          "internalType": "uint256",
          "name": "repaymentChainId",
          "type": "uint256"
        },
        {
          "internalType": "bytes32",
          "name": "repaymentAddress",
          "type": "bytes32"
        },
        {
          "internalType": "uint256",
          "name": "updatedOutputAmount",
          "type": "uint256"
        },
        {
          "internalType": "bytes32",
          "name": "updatedRecipient",
          "type": "bytes32"
        },
        {
          "internalType": "bytes",
          "name": "updatedMessage",
          "type": "bytes"
        },
        {
          "internalType": "bytes",
          "name": "depositorSignature",
          "type": "bytes"
        }
      ],
      "name": "fillRelayWithUpdatedDeposit",
      "outputs": [],
      "stateMutability": "nonpayable",
      "type": "function"
    },
    {
      "inputs": [
        {
          "internalType": "bytes32",
          "name": "",
          "type": "bytes32"
        }
      ],
      "name": "fillStatuses",
      "outputs": [
        {
          "internalType": "uint256",
          "name": "",
          "type": "uint256"
        }
      ],
      "stateMutability": "view",
      "type": "function"
    },
    {
      "inputs": [
        {
          "components": [
            {
              "internalType": "address",
              "name": "depositor",
              "type": "address"
            },
            {
              "internalType": "address",
              "name": "recipient",
              "type": "address"
            },
            {
              "internalType": "address",
              "name": "exclusiveRelayer",
              "type": "address"
            },
            {
              "internalType": "address",
              "name": "inputToken",
              "type": "address"
            },
            {
              "internalType": "address",
              "name": "outputToken",
              "type": "address"
            },
            {
              "internalType": "uint256",
              "name": "inputAmount",
              "type": "uint256"
            },
            {
              "internalType": "uint256",
              "name": "outputAmount",
              "type": "uint256"
            },
            {
              "internalType": "uint256",
              "name": "originChainId",
              "type": "uint256"
            },
            {
              "internalType": "uint32",
              "name": "depositId",
              "type": "uint32"
            },
            {
              "internalType": "uint32",
              "name": "fillDeadline",
              "type": "uint32"
            },
            {
              "internalType": "uint32",
              "name": "exclusivityDeadline",
              "type": "uint32"
            },
            {
              "internalType": "bytes",
              "name": "message",
              "type": "bytes"
            }
          ],
          "internalType": "struct V3SpokePoolInterface.V3RelayDataLegacy",
          "name": "relayData",
          "type": "tuple"
        },
        {
          "internalType": "uint256",
          "name": "repaymentChainId",
          "type": "uint256"
        }
      ],
      "name": "fillV3Relay",
      "outputs": [],
      "stateMutability": "nonpayable",
      "type": "function"
    },
    {
      "inputs": [],
      "name": "getCurrentTime",
      "outputs": [
        {
          "internalType": "uint256",
          "name": "",
          "type": "uint256"
        }
      ],
      "stateMutability": "view",
      "type": "function"
    },
    {
      "inputs": [
        {
          "internalType": "address",
          "name": "l2TokenAddress",
          "type": "address"
        },
        {
          "internalType": "address",
          "name": "refundAddress",
          "type": "address"
        }
      ],
      "name": "getRelayerRefund",
      "outputs": [
        {
          "internalType": "uint256",
          "name": "",
          "type": "uint256"
        }
      ],
      "stateMutability": "view",
      "type": "function"
    },
    {
      "inputs": [
        {
          "internalType": "address",
          "name": "msgSender",
          "type": "address"
        },
        {
          "internalType": "bytes32",
          "name": "depositor",
          "type": "bytes32"
        },
        {
          "internalType": "uint256",
          "name": "depositNonce",
          "type": "uint256"
        }
      ],
      "name": "getUnsafeDepositId",
      "outputs": [
        {
          "internalType": "uint256",
          "name": "",
          "type": "uint256"
        }
      ],
      "stateMutability": "pure",
      "type": "function"
    },
    {
      "inputs": [
        {
          "components": [
            {
              "internalType": "bytes32",
              "name": "depositor",
              "type": "bytes32"
            },
            {
              "internalType": "bytes32",
              "name": "recipient",
              "type": "bytes32"
            },
            {
              "internalType": "bytes32",
              "name": "exclusiveRelayer",
              "type": "bytes32"
            },
            {
              "internalType": "bytes32",
              "name": "inputToken",
              "type": "bytes32"
            },
            {
              "internalType": "bytes32",
              "name": "outputToken",
              "type": "bytes32"
            },
            {
              "internalType": "uint256",
              "name": "inputAmount",
              "type": "uint256"
            },
            {
              "internalType": "uint256",
              "name": "outputAmount",
              "type": "uint256"
            },
            {
              "internalType": "uint256",
              "name": "originChainId",
              "type": "uint256"
            },
            {
              "internalType": "uint256",
              "name": "depositId",
              "type": "uint256"
            },
            {
              "internalType": "uint32",
              "name": "fillDeadline",
              "type": "uint32"
            },
            {
              "internalType": "uint32",
              "name": "exclusivityDeadline",
              "type": "uint32"
            },
            {
              "internalType": "bytes",
              "name": "message",
              "type": "bytes"
            }
          ],
          "internalType": "struct V3SpokePoolInterface.V3RelayData",
          "name": "relayData",
          "type": "tuple"
        }
      ],
      "name": "getV3RelayHash",
      "outputs": [
        {
          "internalType": "bytes32",
          "name": "",
          "type": "bytes32"
        }
      ],
      "stateMutability": "view",
      "type": "function"
    },
    {
      "inputs": [
        {
          "internalType": "uint32",
          "name": "_initialDepositId",
          "type": "uint32"
        },
        {
          "internalType": "contract IMessageService",
          "name": "_l2MessageService",
          "type": "address"
        },
        {
          "internalType": "contract ITokenBridge",
          "name": "_l2TokenBridge",
          "type": "address"
        },
        {
          "internalType": "contract IUSDCBridge",
          "name": "_l2UsdcBridge",
          "type": "address"
        },
        {
          "internalType": "address",
          "name": "_crossDomainAdmin",
          "type": "address"
        },
        {
          "internalType": "address",
          "name": "_withdrawalRecipient",
          "type": "address"
        }
      ],
      "name": "initialize",
      "outputs": [],
      "stateMutability": "nonpayable",
      "type": "function"
    },
    {
      "inputs": [],
      "name": "l2MessageService",
      "outputs": [
        {
          "internalType": "contract IMessageService",
          "name": "",
          "type": "address"
        }
      ],
      "stateMutability": "view",
      "type": "function"
    },
    {
      "inputs": [],
      "name": "l2TokenBridge",
      "outputs": [
        {
          "internalType": "contract ITokenBridge",
          "name": "",
          "type": "address"
        }
      ],
      "stateMutability": "view",
      "type": "function"
    },
    {
      "inputs": [],
      "name": "l2UsdcBridge",
      "outputs": [
        {
          "internalType": "contract IUSDCBridge",
          "name": "",
          "type": "address"
        }
      ],
      "stateMutability": "view",
      "type": "function"
    },
    {
      "inputs": [],
      "name": "minimumFeeInWei",
      "outputs": [
        {
          "internalType": "uint256",
          "name": "",
          "type": "uint256"
        }
      ],
      "stateMutability": "view",
      "type": "function"
    },
    {
      "inputs": [
        {
          "internalType": "bytes[]",
          "name": "data",
          "type": "bytes[]"
        }
      ],
      "name": "multicall",
      "outputs": [
        {
          "internalType": "bytes[]",
          "name": "results",
          "type": "bytes[]"
        }
      ],
      "stateMutability": "nonpayable",
      "type": "function"
    },
    {
      "inputs": [],
      "name": "numberOfDeposits",
      "outputs": [
        {
          "internalType": "uint32",
          "name": "",
          "type": "uint32"
        }
      ],
      "stateMutability": "view",
      "type": "function"
    },
    {
      "inputs": [
        {
          "internalType": "bool",
          "name": "pause",
          "type": "bool"
        }
      ],
      "name": "pauseDeposits",
      "outputs": [],
      "stateMutability": "nonpayable",
      "type": "function"
    },
    {
      "inputs": [
        {
          "internalType": "bool",
          "name": "pause",
          "type": "bool"
        }
      ],
      "name": "pauseFills",
      "outputs": [],
      "stateMutability": "nonpayable",
      "type": "function"
    },
    {
      "inputs": [],
      "name": "pausedDeposits",
      "outputs": [
        {
          "internalType": "bool",
          "name": "",
          "type": "bool"
        }
      ],
      "stateMutability": "view",
      "type": "function"
    },
    {
      "inputs": [],
      "name": "pausedFills",
      "outputs": [
        {
          "internalType": "bool",
          "name": "",
          "type": "bool"
        }
      ],
      "stateMutability": "view",
      "type": "function"
    },
    {
      "inputs": [],
      "name": "proxiableUUID",
      "outputs": [
        {
          "internalType": "bytes32",
          "name": "",
          "type": "bytes32"
        }
      ],
      "stateMutability": "view",
      "type": "function"
    },
    {
      "inputs": [
        {
          "internalType": "bytes32",
          "name": "relayerRefundRoot",
          "type": "bytes32"
        },
        {
          "internalType": "bytes32",
          "name": "slowRelayRoot",
          "type": "bytes32"
        }
      ],
      "name": "relayRootBundle",
      "outputs": [],
      "stateMutability": "nonpayable",
      "type": "function"
    },
    {
      "inputs": [
        {
          "internalType": "address",
          "name": "",
          "type": "address"
        },
        {
          "internalType": "address",
          "name": "",
          "type": "address"
        }
      ],
      "name": "relayerRefund",
      "outputs": [
        {
          "internalType": "uint256",
          "name": "",
          "type": "uint256"
        }
      ],
      "stateMutability": "view",
      "type": "function"
    },
    {
      "inputs": [
        {
          "components": [
            {
              "internalType": "bytes32",
              "name": "depositor",
              "type": "bytes32"
            },
            {
              "internalType": "bytes32",
              "name": "recipient",
              "type": "bytes32"
            },
            {
              "internalType": "bytes32",
              "name": "exclusiveRelayer",
              "type": "bytes32"
            },
            {
              "internalType": "bytes32",
              "name": "inputToken",
              "type": "bytes32"
            },
            {
              "internalType": "bytes32",
              "name": "outputToken",
              "type": "bytes32"
            },
            {
              "internalType": "uint256",
              "name": "inputAmount",
              "type": "uint256"
            },
            {
              "internalType": "uint256",
              "name": "outputAmount",
              "type": "uint256"
            },
            {
              "internalType": "uint256",
              "name": "originChainId",
              "type": "uint256"
            },
            {
              "internalType": "uint256",
              "name": "depositId",
              "type": "uint256"
            },
            {
              "internalType": "uint32",
              "name": "fillDeadline",
              "type": "uint32"
            },
            {
              "internalType": "uint32",
              "name": "exclusivityDeadline",
              "type": "uint32"
            },
            {
              "internalType": "bytes",
              "name": "message",
              "type": "bytes"
            }
          ],
          "internalType": "struct V3SpokePoolInterface.V3RelayData",
          "name": "relayData",
          "type": "tuple"
        }
      ],
      "name": "requestSlowFill",
      "outputs": [],
      "stateMutability": "nonpayable",
      "type": "function"
    },
    {
      "inputs": [
        {
          "internalType": "uint256",
          "name": "",
          "type": "uint256"
        }
      ],
      "name": "rootBundles",
      "outputs": [
        {
          "internalType": "bytes32",
          "name": "slowRelayRoot",
          "type": "bytes32"
        },
        {
          "internalType": "bytes32",
          "name": "relayerRefundRoot",
          "type": "bytes32"
        }
      ],
      "stateMutability": "view",
      "type": "function"
    },
    {
      "inputs": [
        {
          "internalType": "address",
          "name": "newCrossDomainAdmin",
          "type": "address"
        }
      ],
      "name": "setCrossDomainAdmin",
      "outputs": [],
      "stateMutability": "nonpayable",
      "type": "function"
    },
    {
      "inputs": [
        {
          "internalType": "address",
          "name": "originToken",
          "type": "address"
        },
        {
          "internalType": "uint256",
          "name": "destinationChainId",
          "type": "uint256"
        },
        {
          "internalType": "bool",
          "name": "enabled",
          "type": "bool"
        }
      ],
      "name": "setEnableRoute",
      "outputs": [],
      "stateMutability": "nonpayable",
      "type": "function"
    },
    {
      "inputs": [
        {
          "internalType": "contract IMessageService",
          "name": "_l2MessageService",
          "type": "address"
        }
      ],
      "name": "setL2MessageService",
      "outputs": [],
      "stateMutability": "nonpayable",
      "type": "function"
    },
    {
      "inputs": [
        {
          "internalType": "contract ITokenBridge",
          "name": "_l2TokenBridge",
          "type": "address"
        }
      ],
      "name": "setL2TokenBridge",
      "outputs": [],
      "stateMutability": "nonpayable",
      "type": "function"
    },
    {
      "inputs": [
        {
          "internalType": "contract IUSDCBridge",
          "name": "_l2UsdcBridge",
          "type": "address"
        }
      ],
      "name": "setL2UsdcBridge",
      "outputs": [],
      "stateMutability": "nonpayable",
      "type": "function"
    },
    {
      "inputs": [
        {
          "internalType": "address",
          "name": "newWithdrawalRecipient",
          "type": "address"
        }
      ],
      "name": "setWithdrawalRecipient",
      "outputs": [],
      "stateMutability": "nonpayable",
      "type": "function"
    },
    {
      "inputs": [
        {
          "internalType": "bytes32",
          "name": "depositor",
          "type": "bytes32"
        },
        {
          "internalType": "uint256",
          "name": "depositId",
          "type": "uint256"
        },
        {
          "internalType": "uint256",
          "name": "updatedOutputAmount",
          "type": "uint256"
        },
        {
          "internalType": "bytes32",
          "name": "updatedRecipient",
          "type": "bytes32"
        },
        {
          "internalType": "bytes",
          "name": "updatedMessage",
          "type": "bytes"
        },
        {
          "internalType": "bytes",
          "name": "depositorSignature",
          "type": "bytes"
        }
      ],
      "name": "speedUpDeposit",
      "outputs": [],
      "stateMutability": "nonpayable",
      "type": "function"
    },
    {
      "inputs": [
        {
          "internalType": "address",
          "name": "depositor",
          "type": "address"
        },
        {
          "internalType": "uint256",
          "name": "depositId",
          "type": "uint256"
        },
        {
          "internalType": "uint256",
          "name": "updatedOutputAmount",
          "type": "uint256"
        },
        {
          "internalType": "address",
          "name": "updatedRecipient",
          "type": "address"
        },
        {
          "internalType": "bytes",
          "name": "updatedMessage",
          "type": "bytes"
        },
        {
          "internalType": "bytes",
          "name": "depositorSignature",
          "type": "bytes"
        }
      ],
      "name": "speedUpV3Deposit",
      "outputs": [],
      "stateMutability": "nonpayable",
      "type": "function"
    },
    {
      "inputs": [
        {
          "internalType": "bytes[]",
          "name": "data",
          "type": "bytes[]"
        }
      ],
      "name": "tryMulticall",
      "outputs": [
        {
          "components": [
            {
              "internalType": "bool",
              "name": "success",
              "type": "bool"
            },
            {
              "internalType": "bytes",
              "name": "returnData",
              "type": "bytes"
            }
          ],
          "internalType": "struct MultiCallerUpgradeable.Result[]",
          "name": "results",
          "type": "tuple[]"
        }
      ],
      "stateMutability": "nonpayable",
      "type": "function"
    },
    {
      "inputs": [
        {
          "internalType": "bytes32",
          "name": "depositor",
          "type": "bytes32"
        },
        {
          "internalType": "bytes32",
          "name": "recipient",
          "type": "bytes32"
        },
        {
          "internalType": "bytes32",
          "name": "inputToken",
          "type": "bytes32"
        },
        {
          "internalType": "bytes32",
          "name": "outputToken",
          "type": "bytes32"
        },
        {
          "internalType": "uint256",
          "name": "inputAmount",
          "type": "uint256"
        },
        {
          "internalType": "uint256",
          "name": "outputAmount",
          "type": "uint256"
        },
        {
          "internalType": "uint256",
          "name": "destinationChainId",
          "type": "uint256"
        },
        {
          "internalType": "bytes32",
          "name": "exclusiveRelayer",
          "type": "bytes32"
        },
        {
          "internalType": "uint256",
          "name": "depositNonce",
          "type": "uint256"
        },
        {
          "internalType": "uint32",
          "name": "quoteTimestamp",
          "type": "uint32"
        },
        {
          "internalType": "uint32",
          "name": "fillDeadline",
          "type": "uint32"
        },
        {
          "internalType": "uint32",
          "name": "exclusivityParameter",
          "type": "uint32"
        },
        {
          "internalType": "bytes",
          "name": "message",
          "type": "bytes"
        }
      ],
      "name": "unsafeDeposit",
      "outputs": [],
      "stateMutability": "payable",
      "type": "function"
    },
    {
      "inputs": [
        {
          "internalType": "address",
          "name": "newImplementation",
          "type": "address"
        }
      ],
      "name": "upgradeTo",
      "outputs": [],
      "stateMutability": "nonpayable",
      "type": "function"
    },
    {
      "inputs": [
        {
          "internalType": "address",
          "name": "newImplementation",
          "type": "address"
        },
        {
          "internalType": "bytes",
          "name": "data",
          "type": "bytes"
        }
      ],
      "name": "upgradeToAndCall",
      "outputs": [],
      "stateMutability": "payable",
      "type": "function"
    },
    {
      "inputs": [],
      "name": "withdrawalRecipient",
      "outputs": [
        {
          "internalType": "address",
          "name": "",
          "type": "address"
        }
      ],
      "stateMutability": "view",
      "type": "function"
    },
    {
      "inputs": [],
      "name": "wrappedNativeToken",
      "outputs": [
        {
          "internalType": "contract WETH9Interface",
          "name": "",
          "type": "address"
        }
      ],
      "stateMutability": "view",
      "type": "function"
    },
    {
      "stateMutability": "payable",
      "type": "receive"
    }
  ],
  "numDeployments": 10,
  "solcInputHash": "102a218700f3eb5bcb27dfec5474337e",
  "bytecode": "0x610100346200016957601f6200524938819003918201601f19168301916001600160401b038311848410176200016e57808492606094604052833981010312620001695780516001600160a01b038116919082900362000169576200007560406200006d6020840162000184565b920162000184565b913060805260a05260c05260e05260005460ff8160081c16620001695760ff808216036200012d575b6040516150b29081620001978239608051818181610f590152818161131b015261149c015260a05181818161074b015281816133f601528181613a1f01528181613db80152818161413401528181614b4a01528181614dcc01528181614ebd0152614ee4015260c05181818161176a01528181613c190152613d6c015260e05181818161042301526139cd0152f35b60ff90811916176000557f7f26b83ff96e1f2b6a682f133852f6798a09c465da95921460cefb3847402498602060405160ff8152a1386200009e565b600080fd5b634e487b7160e01b600052604160045260246000fd5b519063ffffffff82168203620001695756fe6080604052600436101561001b575b361561001957600080fd5b005b60003560e01c8063079bd2c7146103f15780631186ec33146103ec57806315348e441461037457806317fcb39b146103e75780631b3d5559146103e25780631fab657c146103dd578063272751c7146103d857806329cb924d146103d35780632e378115146103ce5780632e63e59a146103c957806333a84ff0146103c45780633659cfe6146103bf578063437b9116146103ba578063490e49ef146103b5578063493a4f84146103b05780634f1ef286146103ab5780635249fef1146103a65780635285e058146103a157806352d1902d1461039c578063541f4f1414610397578063577f51f81461039257806357f6dcb81461038d57806359c80a2d146103885780635d467759146103835780636068d6cb1461037e578063670fa8ac146103795780636bbbcd2e14610374578063738b62e51461036f5780637aef642c1461036a5780637b939232146103655780637bf1a22e146103605780637ef413e11461035b57806382e2c43f1461035657806389945883146103515780638a7860ce1461034c5780638b15788e1461034757806391c49bf81461034257806397943aa91461033d578063979f2bc21461033857806399cc2968146103335780639a2e08201461032e5780639a8a059214610329578063a1244c6714610324578063a18a096e1461031f578063ac9650d81461031a578063ad5425c614610315578063adb5a6a6146102cf578063b370b7f514610310578063babb6aac1461030b578063c35c83fc14610306578063ceb4c98714610301578063d7e1583a146102fc578063dda52113146102f7578063ddd224f1146102f2578063de7eba78146102ed578063deff4b24146102e8578063e691498a146102e3578063ea86bd46146102de578063ee2a53f8146102d9578063f1429b5a146102d4578063f79f29ed146102cf5763fc8a584f0361000e576129b8565b6123d0565b612983565b612945565b61283e565b612809565b612714565b6126e4565b6126ba565b612693565b61265d565b612562565b612535565b61245e565b612436565b612294565b6121eb565b61207c565b612054565b612039565b612004565b611f6f565b611e5f565b611ddf565b611db7565b611d39565b611cb6565b611c9b565b611b7f565b611b48565b611a1d565b611975565b6118d5565b611840565b61070f565b611805565b6117de565b6117b6565b61178e565b61174d565b6115af565b6114ec565b611481565b611459565b611407565b6112d8565b611250565b611231565b61115c565b610f30565b610ef5565b610cf7565b610b97565b610b6d565b610acc565b6109bf565b6108b6565b61072b565b61066e565b610406565b600091031261040157565b600080fd5b3461040157600036600319011261040157602060405163ffffffff7f0000000000000000000000000000000000000000000000000000000000000000168152f35b6001600160a01b0381160361040157565b359061046382610447565b565b63ffffffff81160361040157565b610144359061046382610465565b359061046382610465565b634e487b7160e01b600052604160045260246000fd5b6040810190811067ffffffffffffffff8211176104be57604052565b61048c565b6101a0810190811067ffffffffffffffff8211176104be57604052565b67ffffffffffffffff81116104be57604052565b6060810190811067ffffffffffffffff8211176104be57604052565b6080810190811067ffffffffffffffff8211176104be57604052565b6020810190811067ffffffffffffffff8211176104be57604052565b60e0810190811067ffffffffffffffff8211176104be57604052565b60a0810190811067ffffffffffffffff8211176104be57604052565b90601f8019910116810190811067ffffffffffffffff8211176104be57604052565b6040519060c0820182811067ffffffffffffffff8211176104be57604052565b60405190610180820182811067ffffffffffffffff8211176104be57604052565b60405190610463826104c3565b6040519061046382610510565b67ffffffffffffffff81116104be57601f01601f191660200190565b929192610625826105fd565b916106336040519384610580565b829481845281830111610401578281602093846000960137010152565b9080601f830112156104015781602061066b93359101610619565b90565b6101003660031901126104015760043561068781610447565b60243561069381610447565b6084358060070b81036104015760a435906106ad82610465565b60c43567ffffffffffffffff8111610401576106cd903690600401610650565b926106d6612cf7565b60ff61086b5460e81c166106fd576106f694606435916044359133613ce3565b6001606555005b604051630b4cba3160e31b8152600490fd5b3461040157600036600319011261040157602060405160008152f35b346104015760003660031901126104015760206040516001600160a01b037f0000000000000000000000000000000000000000000000000000000000000000168152f35b67ffffffffffffffff81116104be5760051b60200190565b81601f820112156104015780359161079e8361076f565b926107ac6040519485610580565b808452602092838086019260051b820101928311610401578301905b8282106107d6575050505090565b813581529083019083016107c8565b81601f82011215610401578035916107fc8361076f565b9261080a6040519485610580565b808452602092838086019260051b820101928311610401578301905b828210610834575050505090565b838091833561084281610447565b815201910190610826565b92916108588261076f565b916108666040519384610580565b829481845260208094019160051b810192831161040157905b82821061088c5750505050565b8135815290830190830161087f565b9080601f830112156104015781602061066b9335910161084d565b600319606036820112610401576004356108cf81610465565b60243567ffffffffffffffff928382116104015760c0908236030112610401576108f76105a2565b9080600401358252602481013560208301526044810135848111610401576109259060043691840101610787565b604083015261093660648201610481565b606083015261094760848201610458565b608083015260a48101359084821161040157600461096892369201016107e5565b60a08201526044359283116104015761098861001993369060040161089b565b9161345f565b9181601f840112156104015782359167ffffffffffffffff8311610401576020808501948460051b01011161040157565b34610401576003196060368201126104015760043567ffffffffffffffff8082116104015760608236039384011261040157602435906109fe82610465565b60443590811161040157610a1690369060040161098e565b919093610a21612cf7565b600484013590610182190181121561040157610ab894610ab393610a4e610aac9360043691890101612581565b95610a64610a5f6080890151614f7d565b6133ec565b610a6d87613877565b9060446020890151916101608a015193610a856105a2565b9a8b5260208b01520135604089015260608801526080870152600060a0870152369161084d565b9083614855565b6149dd565b6100196001606555565b8015150361040157565b3461040157606036600319011261040157600435610ae981610447565b6024356001600160a01b0360443592610b0184610ac2565b610b09612d1d565b610b11612cf7565b167f0a21fdd43d0ad0c62689ee7230a47309a050755bcc52eba00310add65297692a602060009483865261086d8252604086208587528252604086209015159060ff1981541660ff8316179055604051908152a3600160655580f35b34610401576000366003190112610401576020604051428152f35b90816101809103126104015790565b346104015760403660031901126104015760043567ffffffffffffffff811161040157610bc8903690600401610b88565b610bd18161317e565b6001600160a01b031690610be76020820161317e565b6001600160a01b031691610bfd6040830161317e565b6001600160a01b0316610c126060840161317e565b6001600160a01b031692610c286080820161317e565b6001600160a01b031690610100610c40818301613188565b9061012090610c50848301613188565b9261014094858101610c6190613188565b966101609a8b8301610c739084613192565b9a909b610c7e6105c2565b9e8f91825260208201526040015260608d015260808c015260a081013560a08c015260c081013560c08c015260e0013560e08b015263ffffffff1690890152870190610ccf919063ffffffff169052565b63ffffffff909116908501523690610ce692610619565b9082015233602435610019926130e2565b34610401576020366003190112610401576004803567ffffffffffffffff811161040157610d289036908301610b88565b610d30612cf7565b60ff61086b5460e01c16610ee55763ffffffff80421692610140830193610d6981610d5a87613188565b63ffffffff9182169116101590565b610ed557610120840192610d7c84613188565b1610610ec657610d94610d8f3685612581565b613877565b90610daa82600052610872602052604060002090565b54610eb85750610dfb7f3cee3e290f36226751cd0b3321b213890fe9c768e922f267fa6111836ce05c3292610df6610df0610e0194600052610872602052604060002090565b60019055565b613188565b93613188565b610e21610e1c610e15610160860186613192565b3691610619565b614f67565b90610eab6040519283926101008701359760e08801359760208101359281359260408301359260c08101359060a081013590606060808201359101358b9693909a999895919261012098959361014089019c895260208901526040880152606087015263ffffffff80921660808701521660a085015260c084015260e08301526101008201520152565b0390a36100196001606555565b604051624be79160e21b8152fd5b60405163d642b7d960e01b8152fd5b50604051630277ae7b60e21b8152fd5b50604051633d90fc5560e11b8152fd5b346104015760003660031901126104015760206040517f9c6dfd61d811b9950a4f2b9adf46357b717c816d22c420d0bde8f2360148f7cd8152f35b3461040157602036600319011261040157600435610f4d81610447565b6001600160a01b0390817f000000000000000000000000000000000000000000000000000000000000000016803014610401577f360894a13ba1a3210667c828492db98dca3e2076cc3735a920a3ca505d382bbc90838254160361040157610fb3612d1d565b60405190610fc08261052c565b60009384835260ff7f4910fdfa16fed3260ed0e7147f7cc6da11a60208b5b9406d12a635614ffd9143541660001461100157505050610ffe90612a0a565b80f35b6020600491604051928380926352d1902d60e01b825288165afa85918161103e575b5061102c578480fd5b0361103a57610ffe91612a4d565b8280fd5b61106091925060203d8111611067575b6110588183610580565b8101906129ef565b9038611023565b503d61104e565b6020600319820112610401576004359067ffffffffffffffff8211610401576110999160040161098e565b9091565b60005b8381106110b05750506000910152565b81810151838201526020016110a0565b906020916110d98151809281855285808601910161109d565b601f01601f1916010190565b602080820190808352835180925260409283810182858560051b8401019601946000925b85841061111a575050505050505090565b90919293949596858061114b600193603f1986820301885286838d51805115158452015191818582015201906110c0565b990194019401929594939190611109565b346104015761116a3661106e565b6111738161076f565b9060409261118384519384610580565b818352601f196111928361076f565b0160005b81811061120d57505060005b8281106111ba578451806111b686826110e5565b0390f35b806112036111cb6112089387613752565b516000806111da858989614ff8565b906111e98c518093819361500f565b0390305af4906111f7612b6d565b60208201529015159052565b613743565b6111a2565b602090865161121b816104a2565b6000815282606081830152828801015201611196565b346104015760003660031901126104015760206040516301e133808152f35b346104015760403660031901126104015760243560043561126f612d1d565b611277612cf7565b61086c8054680100000000000000008110156104be5763ffffffff91600182019055836112a382612904565b5084600182015555167fc86ba04c55bc5eb2f2876b91c438849a296dbec7b08751c3074d92e04f0a77af600080a46001606555005b6040366003190112610401576004356112f081610447565b60243567ffffffffffffffff811161040157611310903690600401610650565b6001600160a01b03807f00000000000000000000000000000000000000000000000000000000000000001690813014610401577f360894a13ba1a3210667c828492db98dca3e2076cc3735a920a3ca505d382bbc91818354160361040157611376612d1d565b7f4910fdfa16fed3260ed0e7147f7cc6da11a60208b5b9406d12a635614ffd91435460ff16156113ac5750505061001990612a0a565b6020600491604051928380926352d1902d60e01b825288165afa600091816113e7575b506113d957600080fd5b036104015761001991612b1b565b61140091925060203d8111611067576110588183610580565b90386113cf565b34610401576040366003190112610401576001600160a01b0360043561142c81610447565b1660005261086d6020526040600020602435600052602052602060ff604060002054166040519015158152f35b346104015760003660031901126104015760206001600160a01b036108695416604051908152f35b34610401576000366003190112610401576001600160a01b037f00000000000000000000000000000000000000000000000000000000000000001630036104015760206040517f360894a13ba1a3210667c828492db98dca3e2076cc3735a920a3ca505d382bbc8152f35b6101203660031901126104015760043561150581610447565b6024359061151282610447565b6044359161151f83610447565b60a4358060070b81036104015760c4359161153983610465565b60e43567ffffffffffffffff811161040157611559903690600401610650565b93611562612cf7565b60ff61086b5460e81c166106fd576106f6956084359260643592613ce3565b9181601f840112156104015782359167ffffffffffffffff8311610401576020838186019501011161040157565b346104015760c0366003190112610401576004356115cc81610447565b602435604435916064356115df81610447565b67ffffffffffffffff9160843583811161040157611601903690600401611581565b60a494919435918211610401577f45e04bc8f121ba11466985789ca2822a91109f31bb8ac85504a37b7eaf873c2694611641611748933690600401611581565b9290916001600160a01b038097168a61173c61165e368686610619565b60428d61166c368b8b610619565b92602081519101209460409586519160208301937f9c6dfd61d811b9950a4f2b9adf46357b717c816d22c420d0bde8f2360148f7cd85528884015246606084015260808301528760a083015260c082015260c081526116ca81610548565b51902061047f546104805486519060208201927fc2f8787176b8ac6bf7215b4adcc1e069bf4ab82d9ab1df05a57a91d425935b6e84528883015260608201524660808201526080815261171c81610564565b5190209085519161190160f01b835260028301526022820152208a6146c0565b51978897169a876130af565b0390a3005b3461040157600036600319011261040157602060405163ffffffff7f0000000000000000000000000000000000000000000000000000000000000000168152f35b346104015760003660031901126104015760206001600160a01b03610c5c5416604051908152f35b346104015760003660031901126104015760206001600160a01b03610c5a5416604051908152f35b3461040157600036600319011261040157602060ff61086b5460e81c166040519015158152f35b346104015760003660031901126104015760206040517f8d1994e2bbbd77564cdca06dd819e7ee2a5efa06c80dcb59a4a7b6e39edc538f8152f35b34610401576020366003190112610401577fe88463c2f254e2b070013a2dc7ee1e099f9bc00534cbdf03af551dc26ae49219602060043561188081610ac2565b611888612d1d565b611890612cf7565b151561086b80547fffff00ffffffffffffffffffffffffffffffffffffffffffffffffffffffffff60ff60e81b8460e81b169116179055604051908152a16001606555005b610160366003190112610401576004356118ee81610447565b602435906118fb82610447565b60443561190781610447565b6064359061191482610447565b60e43561192081610447565b610104359061192e82610465565b610124359261193c84610465565b610144359667ffffffffffffffff881161040157611961610019983690600401611581565b97909660c4359360a4359360843593613068565b6101803660031901126104015760043561198e81610447565b6024359061199b82610447565b6044356119a781610447565b606435906119b482610447565b60e4356119c081610447565b610104356119cd81610465565b61012435916119db83610465565b6119e3610473565b93610164359767ffffffffffffffff891161040157611a09610019993690600401611581565b98909760c4359360a4359360843593612ee7565b346104015760c036600319011261040157600435611a3a81610465565b611abc602435611a4981610447565b604435611a5581610447565b606435611a6181610447565b60843591611a6e83610447565b60a43593611a7b85610447565b60005496611aa060ff8960081c16158099819a611b3a575b8115611b1a575b506129e8565b87611ab3600160ff196000541617600055565b611b0157612bc6565b611ac257005b611ad261ff001960005416600055565b604051600181527f7f26b83ff96e1f2b6a682f133852f6798a09c465da95921460cefb384740249890602090a1005b611b1561010061ff00196000541617600055565b612bc6565b303b15915081611b2c575b5038611a9a565b6001915060ff161438611b25565b600160ff8216109150611a93565b34610401576060366003190112610401576020611b77600435611b6a81610447565b604435906024359061383b565b604051908152f35b346104015760603660031901126104015767ffffffffffffffff60243581811161040157611bb1903690600401611581565b9160443590811161040157611bca903690600401611581565b9060405193602085019480611be14684888a6132d3565b0395611bf5601f1997888101845283610580565b6004359151902003611c8957600094611c25611c4793611c1c87611c53958a990190612637565b958101906132f0565b519360405193849160208301966337bfd2c960e21b88523391602485016133b9565b03908101835282610580565b5190305af4611c60612b6d565b9015611c6857005b60405163b8fe37a760e01b8152908190611c8590600483016133db565b0390fd5b604051630f0c8f4760e11b8152600490fd5b34610401576000366003190112610401576020611b77612ca4565b3461040157602036600319011261040157600435611cd2612d1d565b611cda612cf7565b611ce381612904565b919091611d2357600191600092818480935501557f7c1af0646963afc3343245b103731965735a893347bfa0d58a5dc77a77ae691c8280a2600160655580f35b634e487b7160e01b600052600060045260246000fd5b6101a03660031901126104015761012435611d5381610465565b61014435611d6081610465565b6101643591611d6e83610465565b610184359267ffffffffffffffff841161040157611d93610019943690600401611581565b9390926101043560e43560c43560a435608435606435604435602435600435612fd8565b346104015760003660031901126104015760206001600160a01b03610c5b5416604051908152f35b346104015760e03660031901126104015767ffffffffffffffff60043581811161040157611e11903690600401610b88565b60a43582811161040157611e29903690600401611581565b60c49291923593841161040157611e47610019943690600401611581565b939092608435906064359060443590602435906131c5565b3461040157606036600319011261040157600435611e7c81610465565b602435611e8881610447565b604435611e9481610447565b60009260ff845460081c1615611f6b57611ecb9061086b9063ffffffff60c01b1963ffffffff60c01b83549260c01b169116179055565b604051611ed7816104a2565b6009815260208101926820a1a927a9a996ab1960b91b8452640312e302e360dc1b6020604051611f06816104a2565b60058152015260ff855460081c1615611f6757610ffe93611f629251902061047f557f06c015bd22b4c69690933c1058878ebdfef31f9aaae40bbe86d8a09fe1b2972c61048055611f55612e92565b611f5d612ea2565b6144d9565b614534565b8480fd5b8380fd5b34610401576020366003190112610401577f2d5b62420992e5a4afce0e77742636ca2608ef58289fd2e1baa5161ef6e7e41e6020600435611faf81610ac2565b611fb7612d1d565b611fbf612cf7565b151561086b80547fffffff00ffffffffffffffffffffffffffffffffffffffffffffffffffffffff60ff60e01b8460e01b169116179055604051908152a16001606555005b34610401576020366003190112610401576106f660043561202481610447565b61202c612d1d565b612034612cf7565b612e43565b34610401576000366003190112610401576020604051468152f35b3461040157600036600319011261040157602063ffffffff61086b5460c01c16604051908152f35b346104015760403660031901126104015760043560243561209c82614f93565b6001600160a01b0382166000526108736020526120cf6040600020336001600160a01b0316600052602052604060002090565b5491821561217757600061211b336121036120e985614f7d565b6001600160a01b0316600052610873602052604060002090565b906001600160a01b0316600052602052604060002090565b556121478361213861212c84614f7d565b6001600160a01b031690565b61214185614f7d565b90613766565b60405192835233927f6c172ea51018fb2eb2118f3f8a507c4df71eb519b8c0052834dc3c920182fef490602090a4005b6040516336542bf760e21b8152600490fd5b602080820190808352835180925260408301928160408460051b8301019501936000915b8483106121bd5750505050505090565b90919293949584806121db600193603f198682030187528a516110c0565b98019301930191949392906121ad565b34610401576121f93661106e565b9061220382614fae565b9160005b81811061221c57604051806111b68682612189565b60008061222a838587614ff8565b9061223a6040518093819361500f565b0390305af4612247612b6d565b908190156122755750906122709161225f8287613752565b5261226a8186613752565b50613743565b612207565b604482511061040157600461040192016024809151830101910161501d565b6101808060031936011261040157610104356122af81610465565b61012435916122bd83610465565b61014435926122cb84610465565b6101643567ffffffffffffffff8111610401576122ec903690600401611581565b6122f4612cf7565b61086b549260ff8460e81c166106fd57610ab8966123b9610e15926123ab63ffffffff6123c79860c01c169961234f61232c8c612ecd565b61086b9063ffffffff60c01b1963ffffffff60c01b83549260c01b169116179055565b6123576105e3565b9a6004358c5260243560208d015260443560408d015260643560608d015260843560808d015260a43560a08d015260c43560c08d015260e43560e08d01526101008c01526101208b019063ffffffff169052565b63ffffffff16610140890152565b63ffffffff16610160870152565b90820152613919565b3461040157604036600319011261040157602061242d6004356123f281610447565b6001600160a01b036024359161240783610447565b1660005261087383526040600020906001600160a01b0316600052602052604060002090565b54604051908152f35b346104015760003660031901126104015760206001600160a01b0361086a5416604051908152f35b346104015760c03660031901126104015760043560243567ffffffffffffffff6064356044356084358381116104015761249c903690600401611581565b60a494919435918211610401577f45e04bc8f121ba11466985789ca2822a91109f31bb8ac85504a37b7eaf873c26946124dc61252b933690600401611581565b9290916124e7612cf7565b6124f08a614f93565b61251f898b8989612502368888610619565b9261250e368b8b610619565b946001600160a01b034692166145e8565b604051968796876130af565b0390a36001606555005b34610401576020366003190112610401576004356000526108726020526020604060002054604051908152f35b3461040157600036600319011261040157602060405163ffffffff8152f35b919061018083820312610401576125966105c2565b92803584526020810135602085015260408101356040850152606081013560608501526080810135608085015260a081013560a085015260c081013560c085015260e081013560e085015261010080820135908501526101206125fa818301610481565b9085015261014061260c818301610481565b90850152610160918282013567ffffffffffffffff8111610401576126319201610650565b90830152565b9060208282031261040157813567ffffffffffffffff81116104015761066b9201612581565b346104015760203660031901126104015760043567ffffffffffffffff811161040157611b77610d8f6020923690600401612581565b3461040157600036600319011261040157602060ff61086b5460e01c166040519015158152f35b346104015760003660031901126104015760206040516ec097ce7bc90715b34b9f10000000008152f35b34610401576020366003190112610401576106f660043561270481610447565b61270c612d1d565b611f5d612cf7565b346104015760603660031901126104015760043567ffffffffffffffff811161040157612745903690600401612581565b61274d612cf7565b60ff61086b5460e01c166127f75761014081015163ffffffff42811691161015806127d8575b6127c65780612784610ab892613877565b60c08201516020830151906101608401519261279e6105a2565b948552602085015260408401526060830152608082015260243560a082015260443590614c51565b604051630c3a9b9d60e41b8152600490fd5b506127e66040820151614f7d565b6001600160a01b0316331415612773565b604051633d90fc5560e11b8152600490fd5b34610401576020366003190112610401576106f660043561282981610447565b612831612d1d565b612839612cf7565b612df4565b61016080600319360112610401576101043561285981610465565b6101243561286681610465565b6101443567ffffffffffffffff811161040157612887903690600401611581565b63ffffffff9461289a8642169586613050565b936128a3612cf7565b61086b549160ff8360e81c166106fd576128d66128e3966123ab610ab89a610e159660c01c169961234f61232c8c612ecd565b86019063ffffffff169052565b610180820152613919565b634e487b7160e01b600052603260045260246000fd5b61086c90815481101561294057600391600052027f71cd7344f4eb2efc8e30291f6dbdb44d618ca368ea5425d217c1d604bf26b84d0190600090565b6128ee565b346104015760203660031901126104015760043561086c548110156104015761296f604091612904565b506001815491015482519182526020820152f35b34610401576020366003190112610401576106f66004356129a381610447565b6129ab612d1d565b6129b3612cf7565b612da5565b34610401576020366003190112610401576106f66004356129d881610447565b6129e0612d1d565b611f62612cf7565b1561040157565b90816020910312610401575190565b6040513d6000823e3d90fd5b803b15610401576001600160a01b037f360894a13ba1a3210667c828492db98dca3e2076cc3735a920a3ca505d382bbc91166001600160a01b0319825416179055565b612a5681612a0a565b6001600160a01b0381167fbc7cd75a20ee27fd9adebab32041f755214dbc6bffa90cc0225b39da2e5c2d3b600080a2815115801590612b13575b612a98575050565b600080612b10937f206661696c65640000000000000000000000000000000000000000000000000060408051612acd816104f4565b602781527f416464726573733a206c6f772d6c6576656c2064656c65676174652063616c6c60208201520152602081519101845af4612b0a612b6d565b91612b9d565b50565b506000612a90565b612b2481612a0a565b6001600160a01b0381167fbc7cd75a20ee27fd9adebab32041f755214dbc6bffa90cc0225b39da2e5c2d3b600080a2815115801590612b6557612a98575050565b506001612a90565b3d15612b98573d90612b7e826105fd565b91612b8c6040519384610580565b82523d6000602084013e565b606090565b9015612bb757815115612bae575090565b3b156104015790565b50805190811561040157602001fd5b9491929493909360009060ff825460081c1615612ca057612c049061086b9063ffffffff60c01b1963ffffffff60c01b83549260c01b169116179055565b604051612c10816104a2565b6009815260208101916820a1a927a9a996ab1960b91b8352640312e302e360dc1b6020604051612c3f816104a2565b60058152015260ff815460081c1615612c9d5750610463969593611f626120349461283997946129b39451902061047f557f06c015bd22b4c69690933c1058878ebdfef31f9aaae40bbe86d8a09fe1b2972c61048055611f55612e92565b80fd5b5080fd5b600460206001600160a01b03610c5a541660405192838092638994588360e01b82525afa908115612cf257600091612cda575090565b61066b915060203d8111611067576110588183610580565b6129fe565b600260655414610401576002606555565b90816020910312610401575161066b81610447565b610c5a546040516333f2026760e11b81526001600160a01b0391821691602082600481865afa918215612cf257600092612d75575b508061086954169116149081612d6b575b501561040157565b9050331438612d63565b612d9791925060203d8111612d9e575b612d8f8183610580565b810190612d08565b9038612d52565b503d612d85565b7ff3dc137d2246f9b8abd0bb821e185ba01122c9b3ea3745ffca6208037674d6706020610c5b928354906001600160a01b0380911694856001600160a01b0319841617905560405191168152a2565b7f6f15007ffd88f54cef03a7cb2c9feb2cb5f4880c1a7b3728678a08ab0241f6616020610c5c928354906001600160a01b0380911694856001600160a01b0319841617905560405191168152a2565b7ff4afd54e7ed26702d892bb2e04050d1414c6eb040dde0e9ca2d919f423f360876020610c5a928354906001600160a01b0380911694856001600160a01b0319841617905560405191168152a2565b60ff60005460081c161561040157565b60ff60005460081c1615610401576001606555565b634e487b7160e01b600052601160045260246000fd5b63ffffffff809116908114612ee25760010190565b612eb7565b9b999897969390959295949194612efc612cf7565b61086b5460ff8160e81c166106fd5760c01c63ffffffff1696612f1e88612ecd565b612f459061086b9063ffffffff60c01b1963ffffffff60c01b83549260c01b169116179055565b612f4d6105e3565b6001600160a01b039e8f168152918e166020830152958d166040820152948c166060860152608085015260a084015260c083015290971660e088015261010087015263ffffffff166101208601525b63ffffffff1661014085015263ffffffff166101608401523690612fbf92610619565b610180820152612fce90613919565b6104636001606555565b9c9a9998979695949392919096612fed612cf7565b60ff61086b5460e81c166106fd57613006908e3361383b565b96604051809e613015826104c3565b81526020015260408d015260608c015260808b015260a08a015260c089015260e088015261010087015263ffffffff16610120860152612f9c565b91909163ffffffff80809416911601918211612ee257565b96949290916104639b9a999896949261308863ffffffff42169889613050565b98612ee7565b908060209392818452848401376000828201840152601f01601f1916010190565b949290936130d49261066b97958752602087015260806040870152608086019161308e565b92606081850391015261308e565b9190916130ed612cf7565b60ff61086b5460e01c166127f75761014081015163ffffffff428116911610158061315f575b6127c657612fce9261312482613877565b60c08301516020840151906101608501519261313e6105a2565b958652602086015260408501526060840152608083015260a0820152614c51565b5061316d6040820151614f7d565b6001600160a01b0316331415613113565b3561066b81610447565b3561066b81610465565b903590601e1981360301821215610401570180359067ffffffffffffffff82116104015760200191813603831361040157565b9792909593919694976131d6612cf7565b60ff61086b5460e01c166127f7576131f16101408201613188565b63ffffffff804216911610158061328f575b6127c65761327861328a96613270612fce9b613222610d8f3687612581565b9a61322b6105a2565b9b6132363688612581565b8d5260208d01528660408d01528760608d0152613254368b84610619565b60808d015260a08c01526132688535614f7d565b983691610619565b953691610619565b9461010060e0830135920135906145e8565b614c51565b5061329d6040820135614f7d565b6001600160a01b0316331415613203565b634e487b7160e01b600052602160045260246000fd5b600311156132ce57565b6132ae565b9392916020916132eb9160408752604087019161308e565b930152565b9081602091031261040157604051906020820182811067ffffffffffffffff8211176104be5760405235815290565b9061066b91805182526020810151602083015260408101516040830152606081015160608301526080810151608083015260a081015160a083015260c081015160c083015260e081015160e08301526101008082015190830152613391610120808301519084019063ffffffff169052565b6101408181015163ffffffff16908301526101608091015191610180809282015201906110c0565b6133d16040929594939560608352606083019061331f565b9460208201520152565b90602061066b9281815201906110c0565b6001600160a01b037f00000000000000000000000000000000000000000000000000000000000000008116911681146134225750565b4761342a5750565b4790803b1561040157600090600460405180948193630d0e30db60e41b83525af18015612cf25715612b1057610463906104e0565b91613468612cf7565b6080820191613481610a5f84516001600160a01b031690565b602081019182514603613588576134a96134ad918360016134a189612904565b500154613659565b1590565b613576578060607ff4ad92585b1bc117fbdd644990adf0827bc4c95baeae8a23322af807b6d0020e9201936134ef6134e9865163ffffffff1690565b8761458f565b61356984519483519361354e61354061352f60408401998a516135168d5163ffffffff1690565b89516001600160a01b03169160a088019b8c5194613f26565b925193519851995163ffffffff1690565b94516001600160a01b031690565b945160405195869563ffffffff8091169b169933948761360b565b0390a46104636001606555565b60405163582f497d60e11b8152600490fd5b604051633d23e4d160e11b8152600490fd5b90815180825260208080930193019160005b8281106135ba575050505090565b8351855293810193928101926001016135ac565b90815180825260208080930193019160005b8281106135ee575050505090565b83516001600160a01b0316855293810193928101926001016135e0565b949695919361362d60a09561364b93885260c0602089015260c088019061359a565b906001600160a01b03809516604088015286820360608801526135ce565b951515608085015216910152565b61066b92916040516136e2816136d4602082019460208652805160408401526020810151606084015260a061369e604083015160c0608087015261010086019061359a565b606083015163ffffffff168583015260808301516001600160a01b031660c0860152910151838203603f190160e08501526135ce565b03601f198101835282610580565b51902091929091906000915b845183101561373b576137018386613752565b5190600082821015613729575060005260205261372360406000205b92613743565b916136ee565b6040916137239382526020522061371d565b915092501490565b6000198114612ee25760010190565b80518210156129405760209160051b010190565b60405163a9059cbb60e01b60208201526001600160a01b0390921660248301526044820192909252610463916137a982606481015b03601f198101845283610580565b6001600160a01b0361380191167f5361666545524332303a206c6f772d6c6576656c2063616c6c206661696c656460206040516137e5816104a2565b8181520152600080846020829651910182855af1612b0a612b6d565b8051908115918215613818575b505015612c9d5750565b8192509060209181010312612ca0576020015161383481610ac2565b388061380e565b916040519160208301936bffffffffffffffffffffffff199060601b168452603483015260548201526054815261387181610510565b51902090565b60405161387181613894602082019460408652606083019061331f565b46604083015203601f198101835282610580565b91908203918211612ee257565b91908201809211612ee257565b97959492909161066b9a99979492895260208901526040880152606087015263ffffffff928380921660808801521660a08601521660c084015260e0830152610100820152610140908161012082015201906110c0565b6139238151614f93565b604090818101906139516139378351614f7d565b6001600160a01b031660005261086d602052604060002090565b926139776134a961397060c08501968751600052602052604060002090565b5460ff1690565b613c405761012082019261399b613992855163ffffffff1690565b63ffffffff1690565b804210908115613c07575b50613bf6576101408301926139bf845163ffffffff1690565b9163ffffffff92836139f3817f000000000000000000000000000000000000000000000000000000000000000016426138b5565b911611613be55761016082015163ffffffff169280841680613ba1575b50508051936001600160a01b037f00000000000000000000000000000000000000000000000000000000000000001680951480613b98575b15613b325760808301513403613b2257843b15610401576000600495825196878092630d0e30db60e41b825234905af1918215612cf2577f32ed1a409ef04c7b0227189c3a103dc5ac10e775a15b785dcc510201f7c25ad395613b0493613b09575b505b519260608101519460808201519060a08301519a5198613ae4613ad96101008601519c5163ffffffff1690565b915163ffffffff1690565b9084519c60208601519461018060e088015197015197519a8b9a8b6138c2565b0390a4565b80613b16613b1c926104e0565b806103f6565b38613aaa565b51636452a35d60e01b8152600490fd5b9192935034613b87577f32ed1a409ef04c7b0227189c3a103dc5ac10e775a15b785dcc510201f7c25ad393929181613b82613b7361212c613b049551614f7d565b60808601519030903390613c50565b613aac565b8151636452a35d60e01b8152600490fd5b50341515613a48565b6301e133801015613bd0575b5060e082015115613bbf573880613a10565b835163495d907f60e01b8152600490fd5b92613bde9193421690613050565b9138613bad565b835163582e388960e01b8152600490fd5b815163f722177f60e01b8152600490fd5b613c129150426138a8565b63ffffffff7f00000000000000000000000000000000000000000000000000000000000000001610386139a6565b51632a58c4f360e01b8152600490fd5b909261046393604051936323b872dd60e01b60208601526001600160a01b0380921660248601521660448401526064830152606482526137a982610564565b939161066b969593918552600060208601526040850152606084015263ffffffff809116608084015260a0830152600060c083015260e08201526000610100820152610140908161012082015201906110c0565b91939496909596613d216134a961397088613d12896001600160a01b031660005261086d602052604060002090565b90600052602052604060002090565b613f035760070b906706f05b59d3b20000613d3b83613f15565b1015613ef1576ec097ce7bc90715b34b9f10000000008411613edf5763ffffffff93613d69858a16426138a8565b857f00000000000000000000000000000000000000000000000000000000000000001610613ecd5761086b5460c01c63ffffffff1698613dab61232c8b612ecd565b6001600160a01b039586807f00000000000000000000000000000000000000000000000000000000000000001698169288841480613ec4575b15613e8857803403613e7657883b156104015760006004996040519a8b8092630d0e30db60e41b825234905af1988915612cf257613e50613b04978a927f32ed1a409ef04c7b0227189c3a103dc5ac10e775a15b785dcc510201f7c25ad39c613e63575b505b836148e5565b92604051998a99169d169b169387613c8f565b80613b16613e70926104e0565b38613e48565b604051636452a35d60e01b8152600490fd5b7f32ed1a409ef04c7b0227189c3a103dc5ac10e775a15b785dcc510201f7c25ad3985087613e50613b0497613ebf8430338a613c50565b613e4a565b50341515613de4565b60405163f722177f60e01b8152600490fd5b60405163622db5a960e11b8152600490fd5b60405163284f109760e21b8152600490fd5b604051632a58c4f360e01b8152600490fd5b6000808212613f22575090565b0390565b9195949593909293600096815190818151036141015781613fa6575b50505082613f51575b50505050565b6001600160a01b0381613f857ffa7fa7cf6d7dde5f9be65a67e6a1a747e7aa864dcd2d793353c722d80fbbb3579386614113565b6040805195865233602087015291169463ffffffff1693a438808080613f4b565b604080516370a0823160e01b81523060048083019190915291906020816024816001600160a01b038b165afa908115612cf2576000916140e3575b506000805b868110613ff7575050505050613f42565b6140018189613752565b51614015575b61401090613743565b613fe6565b9061402b90614024838a613752565b51906138b5565b908282116140d3576140656134a9614053614046848a613752565b516001600160a01b031690565b61405d848c613752565b51908c614465565b15614007579c50876140c96140c18f6140aa6140466140a3614087848f613752565b51966001600160a01b0316600052610873602052604060002090565b928b613752565b6001600160a01b0316600052602052604060002090565b9182546138b5565b905560019c614007565b50505051632ddaa83160e11b8152fd5b6140fb915060203d8111611067576110588183610580565b38613fe1565b6040516319a5316760e31b8152600490fd5b9061412661411f612ca4565b34146129e8565b6001600160a01b03818116917f00000000000000000000000000000000000000000000000000000000000000008216830361424957505061416734836138b5565b90803b1561040157604051632e1a7d4d60e01b815260048101929092526000908290602490829084905af18015612cf257614236575b506141bf6141b761212c610c5a546001600160a01b031690565b9134906138b5565b906141d361086a546001600160a01b031690565b813b1561040157604051634f9e72ad60e11b81526001600160a01b03919091166004820152346024820152606060448201526000606482018190529092909183916084918391905af18015612cf2576142295750565b80613b16610463926104e0565b80613b16614243926104e0565b3861419d565b9160049192610c5c93602061426861212c87546001600160a01b031690565b604051631f209df760e11b815295869182905afa8015612cf25786946000916143a3575b501682036143225750916142bb61212c926142c8946142b561212c85546001600160a01b031690565b906143c1565b546001600160a01b031690565b906142dc61086a546001600160a01b031690565b823b15610401576040516370aff70f60e01b815260048101929092526001600160a01b03166024820152906000908290604490829034905af18015612cf2576142295750565b925061212c906142bb61434793610c5b926142b561212c85546001600160a01b031690565b61086a546001600160a01b031690803b1561040157604051632917540d60e11b81526001600160a01b0393841660048201526024810194909452911660448301526000908290606490829034905af18015612cf2576142295750565b6143bb915060203d8111612d9e57612d8f8183610580565b3861428c565b91909160405191636eb1769f60e11b83523060048401526020836044816001600160a01b03808916602483015286165afa928315612cf257600093614445575b508201809211612ee25760405163095ea7b360e01b60208201526001600160a01b039093166024840152604483019190915261046391906137a9826064810161379b565b61445e91935060203d8111611067576110588183610580565b9138614401565b60405163a9059cbb60e01b60208281019182526001600160a01b039094166024830152604482019490945290926000916144a281606481016136d4565b519082855af1903d60005190836144ba575b50505090565b919250906144cf57503b15155b3880806144b4565b60019150146144c7565b6001600160a01b0316801561452257610869816001600160a01b03198254161790557fa9e8c42c9e7fca7f62755189a16b2f5314d43d8fb24e91ba54e6d65f9314e849600080a2565b60405163ba97b39d60e01b8152600490fd5b6001600160a01b0316801561457d5761086a816001600160a01b03198254161790557fa73e8909f8616742d7fe701153d82666f7b7cd480552e23ebb05d358c22fd04e600080a2565b604051635b03092b60e11b8152600490fd5b61459a600291612904565b500162ffffff8260081c168060005281602052600160ff60406000205494161b80809416146145d6576000526020526040600020908154179055565b60405163954476d960e01b8152600490fd5b9392604293610463979660208151910120906040519260208401947f8d1994e2bbbd77564cdca06dd819e7ee2a5efa06c80dcb59a4a7b6e39edc538f86526040850152856060850152608084015260a083015260c082015260c0815261464d81610548565b5190209061047f549061048054906040519160208301937fc2f8787176b8ac6bf7215b4adcc1e069bf4ab82d9ab1df05a57a91d425935b6e8552604084015260608301526080820152608081526146a381610564565b519020906040519161190160f01b83526002830152602282015220905b6146ca838361479f565b60058195929510156132ce57159384614789575b508315614702575b505050156146f057565b60405163938a182160e01b8152600490fd5b600092935090829160405161473b816136d46020820194630b135d3f60e11b998a875260248401526040604484015260648301906110c0565b51915afa90614748612b6d565b8261477b575b8261475e575b50503880806146e6565b614773919250602080825183010191016129ef565b143880614754565b91506020825110159161474e565b6001600160a01b038381169116149350386146de565b9060418151146000146147c957611099916020820151906060604084015193015160001a906147d3565b5050600090600290565b9291907f7fffffffffffffffffffffffffffffff5d576e7357a4501ddfe92f46681b20a083116148495791608094939160ff602094604051948552168484015260408301526060820152600093849182805260015afa15612cf25781516001600160a01b03811615614843579190565b50600190565b50505050600090600390565b916134a9906148ce92845160408096015191865191614873836104f4565b82526136e261488e6020840192468452898501958652612904565b50549388519283916148b36020840196602088525160608d86015260a085019061331f565b9151606084015251608083015203601f198101835282610580565b6148d55750565b5163582f497d60e11b8152600490fd5b90670de0b6b3a7640000916000828403921283831281169084841390151617612ee257818102918183041490151715612ee2570490565b614925826132c4565b52565b9a989693919c9b9997959492909c6101e08c019d8c5260208c015260408b015260608a0152608089015263ffffffff80921660a08901521660c087015260e08601526101008501526101208401526101408301528051610160830152602081015161018083015260408101516101a083015260600151906149a8826132c4565b6101c00152565b9061066b94936080936001600160a01b038093168452602084015216604082015281606082015201906110c0565b906000825161012081016149f5815163ffffffff1690565b63ffffffff42911610614c3f576020850151906002614a1f83600052610872602052604060002090565b5414614c2d57614a44614a3e8593600052610872602052604060002090565b60029055565b60608301517f44b559f101f8fbcc8a0ea43fa91a05a729a5ea6e14a7c75aa750374690137208608085015160a086015192614b0c8a60c0890151958960a08301519760e082015198614aa06101008401519b5163ffffffff1690565b61014084015163ffffffff1690604085015192855194614ac96101606020890151980151614f67565b9760608a0151996040614adf6080830151614f67565b91015190614aeb6105f0565b9b8c5260208c015260408b0152600260608b01525b6040519c8d9c8d614928565b0390a4614b1c6080820151614f7d565b604085015194614b3c6080614b346060840151614f7d565b940151614f7d565b6001600160a01b03919082167f0000000000000000000000000000000000000000000000000000000000000000831603614c185760809085614c05575b614b8588848716614ea2565b0151928351151580614bfb575b614ba0575b50505050509050565b1690813b15611f6b5783614bce959660405196879586948593633a5be8cb60e01b85523391600486016149af565b03925af18015612cf257614be8575b808080808594614b97565b80613b16614bf5926104e0565b38614bdd565b50803b1515614b92565b614c13883033868816613c50565b614b79565b608090614c288886868616613766565b614b85565b604051630479306360e51b8152600490fd5b60405163d642b7d960e01b8152600490fd5b8051916101208301614c67815163ffffffff1690565b63ffffffff42911610614c3f5760208301516001614c9082600052610872602052604060002090565b5460009103614e9c57506001905b6002614cb582600052610872602052604060002090565b5414614c2d57614a3e614cd391600052610872602052604060002090565b7f44b559f101f8fbcc8a0ea43fa91a05a729a5ea6e14a7c75aa7503746901372086060860151608087015190614d948760a08a0151958a60c08101519760a08401519860e083015199614d306101008501519c5163ffffffff1690565b61014085015163ffffffff1691604086015193865195614b00614d5c61016060208b01519a0151614f67565b9960608c01519b6040614d726080830151614f67565b910151906020614d806105f0565b9e8f528e015260408d015260608c0161491c565b0390a4614da46080830151614f7d565b916040820151916080614dbe81614b346060850151614f7d565b6001600160a01b03929083167f0000000000000000000000000000000000000000000000000000000000000000841603614e8957614e00853033868a16613c50565b614e0c85848616614ea2565b0151918251151580614e7f575b614e25575b5050505050565b16803b1561040157614e54936000809460405196879586948593633a5be8cb60e01b85523391600486016149af565b03925af18015612cf257614e6c575b80808080614e1e565b80613b16614e79926104e0565b38614e63565b50803b1515614e19565b614e97858533868a16613c50565b614e0c565b90614c9e565b6001600160a01b039081169190823b15614ee25791610463927f000000000000000000000000000000000000000000000000000000000000000016613766565b7f00000000000000000000000000000000000000000000000000000000000000001691823b15610401576040518093632e1a7d4d60e01b82528360048301528160246000968780945af18015612cf257614f58575b5081471061103a578280809381935af1614f4f612b6d565b5015612c9d5750565b614f61906104e0565b38614f37565b80519081614f76575050600090565b6020012090565b6001600160a01b0390614f8f81614f93565b1690565b60a01c614f9c57565b6040516379ec0ed760e11b8152600490fd5b90614fb88261076f565b614fc56040519182610580565b8281528092614fd6601f199161076f565b019060005b828110614fe757505050565b806060602080938501015201614fdb565b90821015612940576110999160051b810190613192565b908092918237016000815290565b6020818303126104015780519067ffffffffffffffff8211610401570181601f82011215610401578051615050816105fd565b9261505e6040519485610580565b818452602082840101116104015761066b916020808501910161109d56fea2646970667358221220710a610906bbf02ba776b72cd9c5a1cc086f95b7bd8930f516e3cb4eff85063564736f6c63430008130033"
}