{
  "address": "0x1015c58894961F4F7Dd7D68ba033e28Ed3ee1cDB",
  "abi": [
    {
      "inputs": [
        {
          "internalType": "uint256",
          "name": "index",
          "type": "uint256"
        },
        {
          "components": [
            {
              "internalType": "address",
              "name": "target",
              "type": "address"
            },
            {
              "internalType": "bytes",
              "name": "callData",
              "type": "bytes"
            },
            {
              "internalType": "uint256",
              "name": "value",
              "type": "uint256"
            }
          ],
          "internalType": "struct MulticallHandler.Call[]",
          "name": "calls",
          "type": "tuple[]"
        }
      ],
      "name": "CallReverted",
      "type": "error"
    },
    {
      "inputs": [
        {
          "internalType": "uint256",
          "name": "index",
          "type": "uint256"
        },
        {
          "components": [
            {
              "internalType": "address",
              "name": "target",
              "type": "address"
            },
            {
              "internalType": "bytes",
              "name": "callData",
              "type": "bytes"
            },
            {
              "internalType": "uint256",
              "name": "value",
              "type": "uint256"
            }
          ],
          "internalType": "struct MulticallHandler.Call[]",
          "name": "calls",
          "type": "tuple[]"
        }
      ],
      "name": "InvalidCall",
      "type": "error"
    },
    {
      "inputs": [],
      "name": "NotSelf",
      "type": "error"
    },
    {
      "anonymous": false,
      "inputs": [
        {
          "components": [
            {
              "internalType": "address",
              "name": "target",
              "type": "address"
            },
            {
              "internalType": "bytes",
              "name": "callData",
              "type": "bytes"
            },
            {
              "internalType": "uint256",
              "name": "value",
              "type": "uint256"
            }
          ],
          "indexed": false,
          "internalType": "struct MulticallHandler.Call[]",
          "name": "calls",
          "type": "tuple[]"
        },
        {
          "indexed": true,
          "internalType": "address",
          "name": "fallbackRecipient",
          "type": "address"
        }
      ],
      "name": "CallsFailed",
      "type": "event"
    },
    {
      "anonymous": false,
      "inputs": [
        {
          "indexed": true,
          "internalType": "address",
          "name": "recipient",
          "type": "address"
        },
        {
          "indexed": true,
          "internalType": "address",
          "name": "token",
          "type": "address"
        },
        {
          "indexed": true,
          "internalType": "uint256",
          "name": "amount",
          "type": "uint256"
        }
      ],
      "name": "DrainedTokens",
      "type": "event"
    },
    {
      "inputs": [
        {
          "components": [
            {
              "internalType": "address",
              "name": "target",
              "type": "address"
            },
            {
              "internalType": "bytes",
              "name": "callData",
              "type": "bytes"
            },
            {
              "internalType": "uint256",
              "name": "value",
              "type": "uint256"
            }
          ],
          "internalType": "struct MulticallHandler.Call[]",
          "name": "calls",
          "type": "tuple[]"
        }
      ],
      "name": "attemptCalls",
      "outputs": [],
      "stateMutability": "nonpayable",
      "type": "function"
    },
    {
      "inputs": [
        {
          "internalType": "address",
          "name": "token",
          "type": "address"
        },
        {
          "internalType": "address payable",
          "name": "destination",
          "type": "address"
        }
      ],
      "name": "drainLeftoverTokens",
      "outputs": [],
      "stateMutability": "nonpayable",
      "type": "function"
    },
    {
      "inputs": [
        {
          "internalType": "address",
          "name": "token",
          "type": "address"
        },
        {
          "internalType": "uint256",
          "name": "",
          "type": "uint256"
        },
        {
          "internalType": "address",
          "name": "",
          "type": "address"
        },
        {
          "internalType": "bytes",
          "name": "message",
          "type": "bytes"
        }
      ],
      "name": "handleV3AcrossMessage",
      "outputs": [],
      "stateMutability": "nonpayable",
      "type": "function"
    },
    {
      "stateMutability": "payable",
      "type": "receive"
    }
  ],
  "transactionHash": "0x3dd6ebfc68c016d7ae3c03018a91e38a01e3a94ff8fcac04f66abf9cd4db1466",
  "args": [],
  "numDeployments": 2,
  "solcInputHash": "ffd3549b9fefcfd743d0418d86fb3642",
  "bytecode": "0x6080806040523461001b576001600055610cc990816100218239f35b600080fdfe60406080815260049081361015610020575b5050361561001e57600080fd5b005b600091823560e01c9081633a5be8cb146103a3578163a58d50d3146100be575063ef8738d30361001157346100ba577ffffffffffffffffffffffffffffffffffffffffffffffffffffffffffffffffc3601126100b75761007f610438565b60243573ffffffffffffffffffffffffffffffffffffffff811681036100b3576100b0916100ab610c60565b610a43565b80f35b8280fd5b80fd5b5080fd5b9050346100b357602090817ffffffffffffffffffffffffffffffffffffffffffffffffffffffffffffffffc36011261039f57803567ffffffffffffffff9384821161039b573660238301121561039b57818301359361011d8561056d565b9261012a835194856104ab565b85845281840160249788600598891b8401019236841161039757898101925b8484106102f157505050505061015d610c60565b825194875b86811061016d578880f35b84518110156102c6578281831b86010151838101908151511515806102a6575b610267578a91818773ffffffffffffffffffffffffffffffffffffffff859451169101519151918783519301915af16101c461068e565b5015610224577fffffffffffffffffffffffffffffffffffffffffffffffffffffffffffffffff81146101f957600101610162565b87896011887f4e487b7100000000000000000000000000000000000000000000000000000000835252fd5b8561026386868b81519586957fe462c44000000000000000000000000000000000000000000000000000000000875286015284015260448301906105c9565b0390fd5b85517fe237730c000000000000000000000000000000000000000000000000000000008152808901849052808b0187905280610263604482018a6105c9565b5073ffffffffffffffffffffffffffffffffffffffff8151163b1561018d565b87896032887f4e487b7100000000000000000000000000000000000000000000000000000000835252fd5b833583811161039357820160607fffffffffffffffffffffffffffffffffffffffffffffffffffffffffffffffdc82360301126103935787519161033483610460565b8c82013573ffffffffffffffffffffffffffffffffffffffff8116810361038f57835260448201359285841161038f5760648994938f869561037a913691840101610526565b8584015201358a820152815201930192610149565b8e80fd5b8c80fd5b8a80fd5b8580fd5b8380fd5b8390346100ba5760807ffffffffffffffffffffffffffffffffffffffffffffffffffffffffffffffffc3601126100ba576103dc610438565b9060443573ffffffffffffffffffffffffffffffffffffffff8116036100b3576064359067ffffffffffffffff821161039f5761041b91369101610526565b60028354146100b35761043191600284556106be565b6001815580f35b6004359073ffffffffffffffffffffffffffffffffffffffff8216820361045b57565b600080fd5b6060810190811067ffffffffffffffff82111761047c57604052565b7f4e487b7100000000000000000000000000000000000000000000000000000000600052604160045260246000fd5b90601f7fffffffffffffffffffffffffffffffffffffffffffffffffffffffffffffffe0910116810190811067ffffffffffffffff82111761047c57604052565b67ffffffffffffffff811161047c57601f017fffffffffffffffffffffffffffffffffffffffffffffffffffffffffffffffe01660200190565b81601f8201121561045b5780359061053d826104ec565b9261054b60405194856104ab565b8284526020838301011161045b57816000926020809301838601378301015290565b67ffffffffffffffff811161047c5760051b60200190565b519073ffffffffffffffffffffffffffffffffffffffff8216820361045b57565b60005b8381106105b95750506000910152565b81810151838201526020016105a9565b908082519081815260208091019281808460051b8301019501936000915b8483106105f75750505050505090565b90919293949584806001927fffffffffffffffffffffffffffffffffffffffffffffffffffffffffffffffe090818682030187528a519173ffffffffffffffffffffffffffffffffffffffff8351168252601f8484015193606090818786015285518092860152610670826080978989890191016105a6565b604080910151908501520116010198019301930191949392906105e7565b3d156106b9573d9061069f826104ec565b916106ad60405193846104ab565b82523d6000602084013e565b606090565b8151820191602080840190600094818482031261039b578184015167ffffffffffffffff94858211610a3f5701916040928381840312610a3f5783519284840184811088821117610a1257855282820151878111610a0e5782019086603f83011215610a0e5783820151906107328261056d565b9761073f8851998a6104ab565b82895287868a019360051b8501019381851161039357908189809695949301935b85851061092d5750505050505061077a9186855201610585565b948183019486865273ffffffffffffffffffffffffffffffffffffffff8097161561087c575050866108349783518551610814816107e8878201947fa58d50d300000000000000000000000000000000000000000000000000000000865288602484015260448301906105c9565b037fffffffffffffffffffffffffffffffffffffffffffffffffffffffffffffffe081018352826104ab565b519082305af161082261068e565b5015610836575b505050511690610a43565b565b7f5296f22c5d0413b66d0bf45c479c4e2ca5b278634bdbd028b48e49502105f9669151906108718686511694519282849384528301906105c9565b0390a2388080610829565b9450945091945050303b156109295783929185916108cc955195869283927fa58d50d3000000000000000000000000000000000000000000000000000000008452600484015260248301906105c9565b038183305af1801561091f576108e3575b50505050565b82116108f257523880806108dd565b6024837f4e487b710000000000000000000000000000000000000000000000000000000081526041600452fd5b82513d86823e3d90fd5b8480fd5b9091929380959650518c811161038f5782016060807fffffffffffffffffffffffffffffffffffffffffffffffffffffffffffffffe08388030112610a0a578b5191908e6109858e61097e86610460565b8401610585565b845281830151908111610a0457820186605f82011215610a045790818e80930151916109bc6109b3846104ec565b945194856104ab565b828452888184840101116109fc57926109e26080938f98969389989689850191016105a6565b8584015201518d8201528152019401929190899594610760565b505050508f80fd5b50508f80fd5b8f80fd5b8980fd5b60248a7f4e487b710000000000000000000000000000000000000000000000000000000081526041600452fd5b8780fd5b73ffffffffffffffffffffffffffffffffffffffff91908216908115610c0557604051927f70a082310000000000000000000000000000000000000000000000000000000084523060048501526020918285602481875afa948515610bf957600095610bca575b5084610ab8575b5050505050565b16906040518181017fa9059cbb000000000000000000000000000000000000000000000000000000008152836024830152856044830152604482526080820167ffffffffffffffff918382108383111761047c5760c084019283118284101761047c57610b659385600094938594604052527f5361666545524332303a206c6f772d6c6576656c2063616c6c206661696c656460a0820152519082885af1610b5e61068e565b9085610c37565b8051918215918215610baa575b505090501561045b577f74d3741ef03417659087d2ec6af11dade8713f9b7f592569d60cf1ea0c9a4455600080a43880808080610ab1565b80925081938101031261045b570151801515810361045b57803880610b72565b90948382813d8311610bf2575b610be181836104ab565b810103126100b75750519338610aaa565b503d610bd7565b6040513d6000823e3d90fd5b4792915082610c1357505050565b82471061045b57600080809481948294165af1610c2e61068e565b50156100b75750565b9015610c5157815115610c48575090565b3b1561045b5790565b50805190811561045b57602001fd5b303303610c6957565b60046040517f29c3b7ee000000000000000000000000000000000000000000000000000000008152fdfea26469706673582212208c829483f40f3616133f4c5e42ef08c944f05b423147da0cd187ee90dcdb1a8f64736f6c63430008130033",
  "devdoc": {
    "details": "This contract makes the calls blindly. The contract will send any remaining tokens The caller should ensure that the tokens recieved by the handler are completely consumed.",
    "kind": "dev",
    "methods": {
      "handleV3AcrossMessage(address,uint256,address,bytes)": {
        "details": "This will execute all calls encoded in the msg. The caller is responsible for making sure all tokens are drained from this contract by the end of the series of calls. If not, they can be stolen. A drainLeftoverTokens call can be included as a way to drain any remaining tokens from this contract.",
        "params": {
          "message": "abi encoded array of Call structs, containing a target, callData, and value for each call that the contract should make."
        }
      }
    },
    "title": "Across Multicall contract that allows a user to specify a series of calls that should be made by the handler via the message field in the deposit.",
    "version": 1
  },
  "userdoc": {
    "kind": "user",
    "methods": {
      "handleV3AcrossMessage(address,uint256,address,bytes)": {
        "notice": "Main entrypoint for the handler called by the SpokePool contract."
      }
    },
    "version": 1
  },
  "storageLayout": {
    "storage": [
      {
        "astId": 5310,
        "contract": "contracts/handlers/MulticallHandler.sol:MulticallHandler",
        "label": "_status",
        "offset": 0,
        "slot": "0",
        "type": "t_uint256"
      }
    ],
    "types": {
      "t_uint256": {
        "encoding": "inplace",
        "label": "uint256",
        "numberOfBytes": "32"
      }
    }
  }
}