{
  "address": "0xE0BCff426509723B18D6b2f0D8F4602d143bE3e0",
  "abi": [
    {
      "inputs": [
        {
          "internalType": "contract IPermit2",
          "name": "_permit2",
          "type": "address"
        }
      ],
      "stateMutability": "nonpayable",
      "type": "constructor"
    },
    {
      "inputs": [],
      "name": "InvalidMinExpectedInputAmount",
      "type": "error"
    },
    {
      "inputs": [],
      "name": "InvalidMsgValue",
      "type": "error"
    },
    {
      "inputs": [],
      "name": "InvalidNonce",
      "type": "error"
    },
    {
      "inputs": [],
      "name": "InvalidShortString",
      "type": "error"
    },
    {
      "inputs": [],
      "name": "InvalidSignature",
      "type": "error"
    },
    {
      "inputs": [],
      "name": "InvalidSignature",
      "type": "error"
    },
    {
      "inputs": [],
      "name": "MinimumExpectedInputAmount",
      "type": "error"
    },
    {
      "inputs": [
        {
          "internalType": "string",
          "name": "str",
          "type": "string"
        }
      ],
      "name": "StringTooLong",
      "type": "error"
    },
    {
      "anonymous": false,
      "inputs": [],
      "name": "EIP712DomainChanged",
      "type": "event"
    },
    {
      "anonymous": false,
      "inputs": [
        {
          "indexed": false,
          "internalType": "address",
          "name": "exchange",
          "type": "address"
        },
        {
          "indexed": false,
          "internalType": "bytes",
          "name": "exchangeCalldata",
          "type": "bytes"
        },
        {
          "indexed": true,
          "internalType": "address",
          "name": "swapToken",
          "type": "address"
        },
        {
          "indexed": true,
          "internalType": "address",
          "name": "acrossInputToken",
          "type": "address"
        },
        {
          "indexed": false,
          "internalType": "uint256",
          "name": "swapTokenAmount",
          "type": "uint256"
        },
        {
          "indexed": false,
          "internalType": "uint256",
          "name": "acrossInputAmount",
          "type": "uint256"
        },
        {
          "indexed": true,
          "internalType": "bytes32",
          "name": "acrossOutputToken",
          "type": "bytes32"
        },
        {
          "indexed": false,
          "internalType": "uint256",
          "name": "acrossOutputAmount",
          "type": "uint256"
        }
      ],
      "name": "SwapBeforeBridge",
      "type": "event"
    },
    {
      "inputs": [
        {
          "internalType": "address",
          "name": "spokePool",
          "type": "address"
        },
        {
          "internalType": "bytes32",
          "name": "recipient",
          "type": "bytes32"
        },
        {
          "internalType": "address",
          "name": "inputToken",
          "type": "address"
        },
        {
          "internalType": "uint256",
          "name": "inputAmount",
          "type": "uint256"
        },
        {
          "internalType": "bytes32",
          "name": "outputToken",
          "type": "bytes32"
        },
        {
          "internalType": "uint256",
          "name": "outputAmount",
          "type": "uint256"
        },
        {
          "internalType": "uint256",
          "name": "destinationChainId",
          "type": "uint256"
        },
        {
          "internalType": "bytes32",
          "name": "exclusiveRelayer",
          "type": "bytes32"
        },
        {
          "internalType": "uint32",
          "name": "quoteTimestamp",
          "type": "uint32"
        },
        {
          "internalType": "uint32",
          "name": "fillDeadline",
          "type": "uint32"
        },
        {
          "internalType": "uint32",
          "name": "exclusivityParameter",
          "type": "uint32"
        },
        {
          "internalType": "bytes",
          "name": "message",
          "type": "bytes"
        }
      ],
      "name": "depositNative",
      "outputs": [],
      "stateMutability": "payable",
      "type": "function"
    },
    {
      "inputs": [
        {
          "internalType": "address",
          "name": "signatureOwner",
          "type": "address"
        },
        {
          "components": [
            {
              "components": [
                {
                  "internalType": "uint256",
                  "name": "amount",
                  "type": "uint256"
                },
                {
                  "internalType": "address",
                  "name": "recipient",
                  "type": "address"
                }
              ],
              "internalType": "struct SpokePoolPeripheryInterface.Fees",
              "name": "submissionFees",
              "type": "tuple"
            },
            {
              "components": [
                {
                  "internalType": "address",
                  "name": "inputToken",
                  "type": "address"
                },
                {
                  "internalType": "bytes32",
                  "name": "outputToken",
                  "type": "bytes32"
                },
                {
                  "internalType": "uint256",
                  "name": "outputAmount",
                  "type": "uint256"
                },
                {
                  "internalType": "address",
                  "name": "depositor",
                  "type": "address"
                },
                {
                  "internalType": "bytes32",
                  "name": "recipient",
                  "type": "bytes32"
                },
                {
                  "internalType": "uint256",
                  "name": "destinationChainId",
                  "type": "uint256"
                },
                {
                  "internalType": "bytes32",
                  "name": "exclusiveRelayer",
                  "type": "bytes32"
                },
                {
                  "internalType": "uint32",
                  "name": "quoteTimestamp",
                  "type": "uint32"
                },
                {
                  "internalType": "uint32",
                  "name": "fillDeadline",
                  "type": "uint32"
                },
                {
                  "internalType": "uint32",
                  "name": "exclusivityParameter",
                  "type": "uint32"
                },
                {
                  "internalType": "bytes",
                  "name": "message",
                  "type": "bytes"
                }
              ],
              "internalType": "struct SpokePoolPeripheryInterface.BaseDepositData",
              "name": "baseDepositData",
              "type": "tuple"
            },
            {
              "internalType": "uint256",
              "name": "inputAmount",
              "type": "uint256"
            },
            {
              "internalType": "address",
              "name": "spokePool",
              "type": "address"
            },
            {
              "internalType": "uint256",
              "name": "nonce",
              "type": "uint256"
            }
          ],
          "internalType": "struct SpokePoolPeripheryInterface.DepositData",
          "name": "depositData",
          "type": "tuple"
        },
        {
          "internalType": "uint256",
          "name": "validAfter",
          "type": "uint256"
        },
        {
          "internalType": "uint256",
          "name": "validBefore",
          "type": "uint256"
        },
        {
          "internalType": "bytes",
          "name": "receiveWithAuthSignature",
          "type": "bytes"
        },
        {
          "internalType": "bytes",
          "name": "depositDataSignature",
          "type": "bytes"
        }
      ],
      "name": "depositWithAuthorization",
      "outputs": [],
      "stateMutability": "nonpayable",
      "type": "function"
    },
    {
      "inputs": [
        {
          "internalType": "address",
          "name": "signatureOwner",
          "type": "address"
        },
        {
          "components": [
            {
              "components": [
                {
                  "internalType": "uint256",
                  "name": "amount",
                  "type": "uint256"
                },
                {
                  "internalType": "address",
                  "name": "recipient",
                  "type": "address"
                }
              ],
              "internalType": "struct SpokePoolPeripheryInterface.Fees",
              "name": "submissionFees",
              "type": "tuple"
            },
            {
              "components": [
                {
                  "internalType": "address",
                  "name": "inputToken",
                  "type": "address"
                },
                {
                  "internalType": "bytes32",
                  "name": "outputToken",
                  "type": "bytes32"
                },
                {
                  "internalType": "uint256",
                  "name": "outputAmount",
                  "type": "uint256"
                },
                {
                  "internalType": "address",
                  "name": "depositor",
                  "type": "address"
                },
                {
                  "internalType": "bytes32",
                  "name": "recipient",
                  "type": "bytes32"
                },
                {
                  "internalType": "uint256",
                  "name": "destinationChainId",
                  "type": "uint256"
                },
                {
                  "internalType": "bytes32",
                  "name": "exclusiveRelayer",
                  "type": "bytes32"
                },
                {
                  "internalType": "uint32",
                  "name": "quoteTimestamp",
                  "type": "uint32"
                },
                {
                  "internalType": "uint32",
                  "name": "fillDeadline",
                  "type": "uint32"
                },
                {
                  "internalType": "uint32",
                  "name": "exclusivityParameter",
                  "type": "uint32"
                },
                {
                  "internalType": "bytes",
                  "name": "message",
                  "type": "bytes"
                }
              ],
              "internalType": "struct SpokePoolPeripheryInterface.BaseDepositData",
              "name": "baseDepositData",
              "type": "tuple"
            },
            {
              "internalType": "uint256",
              "name": "inputAmount",
              "type": "uint256"
            },
            {
              "internalType": "address",
              "name": "spokePool",
              "type": "address"
            },
            {
              "internalType": "uint256",
              "name": "nonce",
              "type": "uint256"
            }
          ],
          "internalType": "struct SpokePoolPeripheryInterface.DepositData",
          "name": "depositData",
          "type": "tuple"
        },
        {
          "internalType": "uint256",
          "name": "deadline",
          "type": "uint256"
        },
        {
          "internalType": "bytes",
          "name": "permitSignature",
          "type": "bytes"
        },
        {
          "internalType": "bytes",
          "name": "depositDataSignature",
          "type": "bytes"
        }
      ],
      "name": "depositWithPermit",
      "outputs": [],
      "stateMutability": "nonpayable",
      "type": "function"
    },
    {
      "inputs": [
        {
          "internalType": "address",
          "name": "signatureOwner",
          "type": "address"
        },
        {
          "components": [
            {
              "components": [
                {
                  "internalType": "uint256",
                  "name": "amount",
                  "type": "uint256"
                },
                {
                  "internalType": "address",
                  "name": "recipient",
                  "type": "address"
                }
              ],
              "internalType": "struct SpokePoolPeripheryInterface.Fees",
              "name": "submissionFees",
              "type": "tuple"
            },
            {
              "components": [
                {
                  "internalType": "address",
                  "name": "inputToken",
                  "type": "address"
                },
                {
                  "internalType": "bytes32",
                  "name": "outputToken",
                  "type": "bytes32"
                },
                {
                  "internalType": "uint256",
                  "name": "outputAmount",
                  "type": "uint256"
                },
                {
                  "internalType": "address",
                  "name": "depositor",
                  "type": "address"
                },
                {
                  "internalType": "bytes32",
                  "name": "recipient",
                  "type": "bytes32"
                },
                {
                  "internalType": "uint256",
                  "name": "destinationChainId",
                  "type": "uint256"
                },
                {
                  "internalType": "bytes32",
                  "name": "exclusiveRelayer",
                  "type": "bytes32"
                },
                {
                  "internalType": "uint32",
                  "name": "quoteTimestamp",
                  "type": "uint32"
                },
                {
                  "internalType": "uint32",
                  "name": "fillDeadline",
                  "type": "uint32"
                },
                {
                  "internalType": "uint32",
                  "name": "exclusivityParameter",
                  "type": "uint32"
                },
                {
                  "internalType": "bytes",
                  "name": "message",
                  "type": "bytes"
                }
              ],
              "internalType": "struct SpokePoolPeripheryInterface.BaseDepositData",
              "name": "baseDepositData",
              "type": "tuple"
            },
            {
              "internalType": "uint256",
              "name": "inputAmount",
              "type": "uint256"
            },
            {
              "internalType": "address",
              "name": "spokePool",
              "type": "address"
            },
            {
              "internalType": "uint256",
              "name": "nonce",
              "type": "uint256"
            }
          ],
          "internalType": "struct SpokePoolPeripheryInterface.DepositData",
          "name": "depositData",
          "type": "tuple"
        },
        {
          "components": [
            {
              "components": [
                {
                  "internalType": "address",
                  "name": "token",
                  "type": "address"
                },
                {
                  "internalType": "uint256",
                  "name": "amount",
                  "type": "uint256"
                }
              ],
              "internalType": "struct IPermit2.TokenPermissions",
              "name": "permitted",
              "type": "tuple"
            },
            {
              "internalType": "uint256",
              "name": "nonce",
              "type": "uint256"
            },
            {
              "internalType": "uint256",
              "name": "deadline",
              "type": "uint256"
            }
          ],
          "internalType": "struct IPermit2.PermitTransferFrom",
          "name": "permit",
          "type": "tuple"
        },
        {
          "internalType": "bytes",
          "name": "signature",
          "type": "bytes"
        }
      ],
      "name": "depositWithPermit2",
      "outputs": [],
      "stateMutability": "nonpayable",
      "type": "function"
    },
    {
      "inputs": [],
      "name": "domainSeparator",
      "outputs": [
        {
          "internalType": "bytes32",
          "name": "",
          "type": "bytes32"
        }
      ],
      "stateMutability": "view",
      "type": "function"
    },
    {
      "inputs": [],
      "name": "eip712Domain",
      "outputs": [
        {
          "internalType": "bytes1",
          "name": "fields",
          "type": "bytes1"
        },
        {
          "internalType": "string",
          "name": "name",
          "type": "string"
        },
        {
          "internalType": "string",
          "name": "version",
          "type": "string"
        },
        {
          "internalType": "uint256",
          "name": "chainId",
          "type": "uint256"
        },
        {
          "internalType": "address",
          "name": "verifyingContract",
          "type": "address"
        },
        {
          "internalType": "bytes32",
          "name": "salt",
          "type": "bytes32"
        },
        {
          "internalType": "uint256[]",
          "name": "extensions",
          "type": "uint256[]"
        }
      ],
      "stateMutability": "view",
      "type": "function"
    },
    {
      "inputs": [
        {
          "internalType": "bytes[]",
          "name": "data",
          "type": "bytes[]"
        }
      ],
      "name": "multicall",
      "outputs": [
        {
          "internalType": "bytes[]",
          "name": "results",
          "type": "bytes[]"
        }
      ],
      "stateMutability": "nonpayable",
      "type": "function"
    },
    {
      "inputs": [],
      "name": "permit2",
      "outputs": [
        {
          "internalType": "contract IPermit2",
          "name": "",
          "type": "address"
        }
      ],
      "stateMutability": "view",
      "type": "function"
    },
    {
      "inputs": [
        {
          "internalType": "address",
          "name": "",
          "type": "address"
        }
      ],
      "name": "permitNonces",
      "outputs": [
        {
          "internalType": "uint256",
          "name": "",
          "type": "uint256"
        }
      ],
      "stateMutability": "view",
      "type": "function"
    },
    {
      "inputs": [
        {
          "components": [
            {
              "components": [
                {
                  "internalType": "uint256",
                  "name": "amount",
                  "type": "uint256"
                },
                {
                  "internalType": "address",
                  "name": "recipient",
                  "type": "address"
                }
              ],
              "internalType": "struct SpokePoolPeripheryInterface.Fees",
              "name": "submissionFees",
              "type": "tuple"
            },
            {
              "components": [
                {
                  "internalType": "address",
                  "name": "inputToken",
                  "type": "address"
                },
                {
                  "internalType": "bytes32",
                  "name": "outputToken",
                  "type": "bytes32"
                },
                {
                  "internalType": "uint256",
                  "name": "outputAmount",
                  "type": "uint256"
                },
                {
                  "internalType": "address",
                  "name": "depositor",
                  "type": "address"
                },
                {
                  "internalType": "bytes32",
                  "name": "recipient",
                  "type": "bytes32"
                },
                {
                  "internalType": "uint256",
                  "name": "destinationChainId",
                  "type": "uint256"
                },
                {
                  "internalType": "bytes32",
                  "name": "exclusiveRelayer",
                  "type": "bytes32"
                },
                {
                  "internalType": "uint32",
                  "name": "quoteTimestamp",
                  "type": "uint32"
                },
                {
                  "internalType": "uint32",
                  "name": "fillDeadline",
                  "type": "uint32"
                },
                {
                  "internalType": "uint32",
                  "name": "exclusivityParameter",
                  "type": "uint32"
                },
                {
                  "internalType": "bytes",
                  "name": "message",
                  "type": "bytes"
                }
              ],
              "internalType": "struct SpokePoolPeripheryInterface.BaseDepositData",
              "name": "depositData",
              "type": "tuple"
            },
            {
              "internalType": "address",
              "name": "swapToken",
              "type": "address"
            },
            {
              "internalType": "address",
              "name": "exchange",
              "type": "address"
            },
            {
              "internalType": "enum SpokePoolPeripheryInterface.TransferType",
              "name": "transferType",
              "type": "uint8"
            },
            {
              "internalType": "uint256",
              "name": "swapTokenAmount",
              "type": "uint256"
            },
            {
              "internalType": "uint256",
              "name": "minExpectedInputTokenAmount",
              "type": "uint256"
            },
            {
              "internalType": "bytes",
              "name": "routerCalldata",
              "type": "bytes"
            },
            {
              "internalType": "bool",
              "name": "enableProportionalAdjustment",
              "type": "bool"
            },
            {
              "internalType": "address",
              "name": "spokePool",
              "type": "address"
            },
            {
              "internalType": "uint256",
              "name": "nonce",
              "type": "uint256"
            }
          ],
          "internalType": "struct SpokePoolPeripheryInterface.SwapAndDepositData",
          "name": "swapAndDepositData",
          "type": "tuple"
        }
      ],
      "name": "swapAndBridge",
      "outputs": [],
      "stateMutability": "payable",
      "type": "function"
    },
    {
      "inputs": [
        {
          "internalType": "address",
          "name": "signatureOwner",
          "type": "address"
        },
        {
          "components": [
            {
              "components": [
                {
                  "internalType": "uint256",
                  "name": "amount",
                  "type": "uint256"
                },
                {
                  "internalType": "address",
                  "name": "recipient",
                  "type": "address"
                }
              ],
              "internalType": "struct SpokePoolPeripheryInterface.Fees",
              "name": "submissionFees",
              "type": "tuple"
            },
            {
              "components": [
                {
                  "internalType": "address",
                  "name": "inputToken",
                  "type": "address"
                },
                {
                  "internalType": "bytes32",
                  "name": "outputToken",
                  "type": "bytes32"
                },
                {
                  "internalType": "uint256",
                  "name": "outputAmount",
                  "type": "uint256"
                },
                {
                  "internalType": "address",
                  "name": "depositor",
                  "type": "address"
                },
                {
                  "internalType": "bytes32",
                  "name": "recipient",
                  "type": "bytes32"
                },
                {
                  "internalType": "uint256",
                  "name": "destinationChainId",
                  "type": "uint256"
                },
                {
                  "internalType": "bytes32",
                  "name": "exclusiveRelayer",
                  "type": "bytes32"
                },
                {
                  "internalType": "uint32",
                  "name": "quoteTimestamp",
                  "type": "uint32"
                },
                {
                  "internalType": "uint32",
                  "name": "fillDeadline",
                  "type": "uint32"
                },
                {
                  "internalType": "uint32",
                  "name": "exclusivityParameter",
                  "type": "uint32"
                },
                {
                  "internalType": "bytes",
                  "name": "message",
                  "type": "bytes"
                }
              ],
              "internalType": "struct SpokePoolPeripheryInterface.BaseDepositData",
              "name": "depositData",
              "type": "tuple"
            },
            {
              "internalType": "address",
              "name": "swapToken",
              "type": "address"
            },
            {
              "internalType": "address",
              "name": "exchange",
              "type": "address"
            },
            {
              "internalType": "enum SpokePoolPeripheryInterface.TransferType",
              "name": "transferType",
              "type": "uint8"
            },
            {
              "internalType": "uint256",
              "name": "swapTokenAmount",
              "type": "uint256"
            },
            {
              "internalType": "uint256",
              "name": "minExpectedInputTokenAmount",
              "type": "uint256"
            },
            {
              "internalType": "bytes",
              "name": "routerCalldata",
              "type": "bytes"
            },
            {
              "internalType": "bool",
              "name": "enableProportionalAdjustment",
              "type": "bool"
            },
            {
              "internalType": "address",
              "name": "spokePool",
              "type": "address"
            },
            {
              "internalType": "uint256",
              "name": "nonce",
              "type": "uint256"
            }
          ],
          "internalType": "struct SpokePoolPeripheryInterface.SwapAndDepositData",
          "name": "swapAndDepositData",
          "type": "tuple"
        },
        {
          "internalType": "uint256",
          "name": "validAfter",
          "type": "uint256"
        },
        {
          "internalType": "uint256",
          "name": "validBefore",
          "type": "uint256"
        },
        {
          "internalType": "bytes",
          "name": "receiveWithAuthSignature",
          "type": "bytes"
        },
        {
          "internalType": "bytes",
          "name": "swapAndDepositDataSignature",
          "type": "bytes"
        }
      ],
      "name": "swapAndBridgeWithAuthorization",
      "outputs": [],
      "stateMutability": "nonpayable",
      "type": "function"
    },
    {
      "inputs": [
        {
          "internalType": "address",
          "name": "signatureOwner",
          "type": "address"
        },
        {
          "components": [
            {
              "components": [
                {
                  "internalType": "uint256",
                  "name": "amount",
                  "type": "uint256"
                },
                {
                  "internalType": "address",
                  "name": "recipient",
                  "type": "address"
                }
              ],
              "internalType": "struct SpokePoolPeripheryInterface.Fees",
              "name": "submissionFees",
              "type": "tuple"
            },
            {
              "components": [
                {
                  "internalType": "address",
                  "name": "inputToken",
                  "type": "address"
                },
                {
                  "internalType": "bytes32",
                  "name": "outputToken",
                  "type": "bytes32"
                },
                {
                  "internalType": "uint256",
                  "name": "outputAmount",
                  "type": "uint256"
                },
                {
                  "internalType": "address",
                  "name": "depositor",
                  "type": "address"
                },
                {
                  "internalType": "bytes32",
                  "name": "recipient",
                  "type": "bytes32"
                },
                {
                  "internalType": "uint256",
                  "name": "destinationChainId",
                  "type": "uint256"
                },
                {
                  "internalType": "bytes32",
                  "name": "exclusiveRelayer",
                  "type": "bytes32"
                },
                {
                  "internalType": "uint32",
                  "name": "quoteTimestamp",
                  "type": "uint32"
                },
                {
                  "internalType": "uint32",
                  "name": "fillDeadline",
                  "type": "uint32"
                },
                {
                  "internalType": "uint32",
                  "name": "exclusivityParameter",
                  "type": "uint32"
                },
                {
                  "internalType": "bytes",
                  "name": "message",
                  "type": "bytes"
                }
              ],
              "internalType": "struct SpokePoolPeripheryInterface.BaseDepositData",
              "name": "depositData",
              "type": "tuple"
            },
            {
              "internalType": "address",
              "name": "swapToken",
              "type": "address"
            },
            {
              "internalType": "address",
              "name": "exchange",
              "type": "address"
            },
            {
              "internalType": "enum SpokePoolPeripheryInterface.TransferType",
              "name": "transferType",
              "type": "uint8"
            },
            {
              "internalType": "uint256",
              "name": "swapTokenAmount",
              "type": "uint256"
            },
            {
              "internalType": "uint256",
              "name": "minExpectedInputTokenAmount",
              "type": "uint256"
            },
            {
              "internalType": "bytes",
              "name": "routerCalldata",
              "type": "bytes"
            },
            {
              "internalType": "bool",
              "name": "enableProportionalAdjustment",
              "type": "bool"
            },
            {
              "internalType": "address",
              "name": "spokePool",
              "type": "address"
            },
            {
              "internalType": "uint256",
              "name": "nonce",
              "type": "uint256"
            }
          ],
          "internalType": "struct SpokePoolPeripheryInterface.SwapAndDepositData",
          "name": "swapAndDepositData",
          "type": "tuple"
        },
        {
          "internalType": "uint256",
          "name": "deadline",
          "type": "uint256"
        },
        {
          "internalType": "bytes",
          "name": "permitSignature",
          "type": "bytes"
        },
        {
          "internalType": "bytes",
          "name": "swapAndDepositDataSignature",
          "type": "bytes"
        }
      ],
      "name": "swapAndBridgeWithPermit",
      "outputs": [],
      "stateMutability": "nonpayable",
      "type": "function"
    },
    {
      "inputs": [
        {
          "internalType": "address",
          "name": "signatureOwner",
          "type": "address"
        },
        {
          "components": [
            {
              "components": [
                {
                  "internalType": "uint256",
                  "name": "amount",
                  "type": "uint256"
                },
                {
                  "internalType": "address",
                  "name": "recipient",
                  "type": "address"
                }
              ],
              "internalType": "struct SpokePoolPeripheryInterface.Fees",
              "name": "submissionFees",
              "type": "tuple"
            },
            {
              "components": [
                {
                  "internalType": "address",
                  "name": "inputToken",
                  "type": "address"
                },
                {
                  "internalType": "bytes32",
                  "name": "outputToken",
                  "type": "bytes32"
                },
                {
                  "internalType": "uint256",
                  "name": "outputAmount",
                  "type": "uint256"
                },
                {
                  "internalType": "address",
                  "name": "depositor",
                  "type": "address"
                },
                {
                  "internalType": "bytes32",
                  "name": "recipient",
                  "type": "bytes32"
                },
                {
                  "internalType": "uint256",
                  "name": "destinationChainId",
                  "type": "uint256"
                },
                {
                  "internalType": "bytes32",
                  "name": "exclusiveRelayer",
                  "type": "bytes32"
                },
                {
                  "internalType": "uint32",
                  "name": "quoteTimestamp",
                  "type": "uint32"
                },
                {
                  "internalType": "uint32",
                  "name": "fillDeadline",
                  "type": "uint32"
                },
                {
                  "internalType": "uint32",
                  "name": "exclusivityParameter",
                  "type": "uint32"
                },
                {
                  "internalType": "bytes",
                  "name": "message",
                  "type": "bytes"
                }
              ],
              "internalType": "struct SpokePoolPeripheryInterface.BaseDepositData",
              "name": "depositData",
              "type": "tuple"
            },
            {
              "internalType": "address",
              "name": "swapToken",
              "type": "address"
            },
            {
              "internalType": "address",
              "name": "exchange",
              "type": "address"
            },
            {
              "internalType": "enum SpokePoolPeripheryInterface.TransferType",
              "name": "transferType",
              "type": "uint8"
            },
            {
              "internalType": "uint256",
              "name": "swapTokenAmount",
              "type": "uint256"
            },
            {
              "internalType": "uint256",
              "name": "minExpectedInputTokenAmount",
              "type": "uint256"
            },
            {
              "internalType": "bytes",
              "name": "routerCalldata",
              "type": "bytes"
            },
            {
              "internalType": "bool",
              "name": "enableProportionalAdjustment",
              "type": "bool"
            },
            {
              "internalType": "address",
              "name": "spokePool",
              "type": "address"
            },
            {
              "internalType": "uint256",
              "name": "nonce",
              "type": "uint256"
            }
          ],
          "internalType": "struct SpokePoolPeripheryInterface.SwapAndDepositData",
          "name": "swapAndDepositData",
          "type": "tuple"
        },
        {
          "components": [
            {
              "components": [
                {
                  "internalType": "address",
                  "name": "token",
                  "type": "address"
                },
                {
                  "internalType": "uint256",
                  "name": "amount",
                  "type": "uint256"
                }
              ],
              "internalType": "struct IPermit2.TokenPermissions",
              "name": "permitted",
              "type": "tuple"
            },
            {
              "internalType": "uint256",
              "name": "nonce",
              "type": "uint256"
            },
            {
              "internalType": "uint256",
              "name": "deadline",
              "type": "uint256"
            }
          ],
          "internalType": "struct IPermit2.PermitTransferFrom",
          "name": "permit",
          "type": "tuple"
        },
        {
          "internalType": "bytes",
          "name": "signature",
          "type": "bytes"
        }
      ],
      "name": "swapAndBridgeWithPermit2",
      "outputs": [],
      "stateMutability": "nonpayable",
      "type": "function"
    },
    {
      "inputs": [],
      "name": "swapProxy",
      "outputs": [
        {
          "internalType": "contract SwapProxy",
          "name": "",
          "type": "address"
        }
      ],
      "stateMutability": "view",
      "type": "function"
    }
  ],
  "transactionHash": "0xf889af9228bb66a4661685ff3010962238e515908ec3242ad4b497f442b96f80",
  "args": [
    "0x31c2F6fcFf4F8759b3Bd5Bf0e1084A055615c768"
  ],
  "numDeployments": 1,
  "solcInputHash": "4ee0e7818e8748bfe7aa01f98da1d9b1",
  "bytecode": "0x6101a03462000241576001600160401b0390601f6200482d38819003918201601f1916830192919084841183851017620002465781602092849260409687528339810103126200024157516001600160a01b0381169290838103620002415782516200006b816200025c565b6010815260208101936f4143524f53532d50455249504845525960801b8552805162000097816200025c565b600581526020810194640312e302e360dc1b865260009560018755620000bd8562000278565b97610120988952620000cf846200044f565b95610140968752519020928360e0525190209061010098828a524660a05284519260208401947f8b73c3c69bb8fe3d512ecc4cf759cc79239f7b179b0ffacaa9a75d522b39400f86528685015260608401524660808401523060a084015260a0835260c0830193838510838611176200022d57848652835190206080523060c05280156200022957803b156200022957610160968752610da28381019260c08401919082118683101762000215579060209493929162003a8b87395203019085f09384156200020a5750610180938452519361348395866200060887396080518661247e015260a05186612539015260c0518661244f015260e051866124cd015251856124f301525184610dda01525183610e030152518281816102c3015281816107e60152611150015251818181610b590152612cbe0152f35b9051903d90823e3d90fd5b634e487b7160e01b8a52604160045260248afd5b8780fd5b634e487b7160e01b89526041600452602489fd5b600080fd5b634e487b7160e01b600052604160045260246000fd5b604081019081106001600160401b038211176200024657604052565b805160209081811015620003155750601f825111620002b45780825192015190808310620002a557501790565b82600019910360031b1b161790565b90604051809263305a27a960e01b82528060048301528251908160248401526000935b828510620002fb575050604492506000838284010152601f80199101168101030190fd5b8481018201518686016044015293810193859350620002d7565b9192916001600160401b038111620002465760019182548381811c9116801562000444575b828210146200042e57601f8111620003f5575b5080601f83116001146200038d57508192939460009262000381575b5050600019600383901b1c191690821b17905560ff90565b01519050388062000369565b90601f198316958460005282600020926000905b888210620003dd5750508385969710620003c3575b505050811b01905560ff90565b015160001960f88460031b161c19169055388080620003b6565b808785968294968601518155019501930190620003a1565b8360005283601f83600020920160051c820191601f850160051c015b828110620004215750506200034d565b6000815501849062000411565b634e487b7160e01b600052602260045260246000fd5b90607f16906200033a565b805160209081811015620004dd5750601f8251116200047c5780825192015190808310620002a557501790565b90604051809263305a27a960e01b82528060048301528251908160248401526000935b828510620004c3575050604492506000838284010152601f80199101168101030190fd5b84810182015186860160440152938101938593506200049f565b906001600160401b0382116200024657600254926001938481811c91168015620005fc575b838210146200042e57601f8111620005c2575b5081601f84116001146200055657509282939183926000946200054a575b50501b916000199060031b1c19161760025560ff90565b01519250388062000533565b919083601f198116600260005284600020946000905b88838310620005a757505050106200058d575b505050811b0160025560ff90565b015160001960f88460031b161c191690553880806200057f565b8587015188559096019594850194879350908101906200056c565b600260005284601f84600020920160051c820191601f860160051c015b828110620005ef57505062000515565b60008155018590620005df565b90607f16906200050256fe6080604052600436101561001257600080fd5b60003560e01c8063110560ad146100f757806312261ee7146100f25780631542ce53146100ed578063191d0ffc146100e8578063501f1053146100e357806356da359a146100de578063656a20e6146100d95780636ec4be90146100d4578063805e1148146100cf57806384b0196e146100ca578063ac9650d8146100c5578063b3cfd79e146100c0578063d2aca1a4146100bb5763f698da25146100b657600080fd5b611261565b611080565b610fde565b610f56565b610da1565b610b7d565b610b0e565b610a60565b610718565b610647565b6105de565b610341565b610278565b610110565b908161018091031261010b5790565b600080fd5b60207ffffffffffffffffffffffffffffffffffffffffffffffffffffffffffffffffc36011261010b5760043567ffffffffffffffff811161010b5761015a9036906004016100fc565b6101626118b0565b34156102435760c081013534036102195761019e610185610185606084016118c1565b73ffffffffffffffffffffffffffffffffffffffff1690565b90813b1561010b576000600492604051938480927fd0e30db000000000000000000000000000000000000000000000000000000000825234905af1918215610214576101ef926101fb575b50612c3d565b6101f96001600055565b005b8061020861020e926108dc565b8061026d565b386101e9565b6118a4565b60046040517f1841b4e1000000000000000000000000000000000000000000000000000000008152fd5b8061026861025961018560606101ef95016118c1565b60c083013590309033906118cb565b612c3d565b600091031261010b57565b3461010b5760007ffffffffffffffffffffffffffffffffffffffffffffffffffffffffffffffffc36011261010b57602060405173ffffffffffffffffffffffffffffffffffffffff7f0000000000000000000000000000000000000000000000000000000000000000168152f35b73ffffffffffffffffffffffffffffffffffffffff81160361010b57565b908160c091031261010b5790565b9181601f8401121561010b5782359167ffffffffffffffff831161010b576020838186019501011161010b57565b3461010b5760a07ffffffffffffffffffffffffffffffffffffffffffffffffffffffffffffffffc36011261010b5760043561037c816102e7565b67ffffffffffffffff60243581811161010b5761039d903690600401610305565b60643582811161010b576103b5903690600401610313565b909260843590811161010b576103d26103e2913690600401610313565b9290946103dd6118b0565b613417565b959192909460408501936103fe6103f9868861205d565b6118c1565b9660608701359887359161041460208a016118c1565b9361041f8c85611a18565b9173ffffffffffffffffffffffffffffffffffffffff8c1693843b1561010b576040517fd505accf00000000000000000000000000000000000000000000000000000000815273ffffffffffffffffffffffffffffffffffffffff8b166004820152306024820152604480820186905235606482015260ff91909116608482015260a481019290925260c482015260008160e48183875af16105cb575b508630906104c9936118cb565b6104d39188612fc2565b6104e160a0860135846127e5565b6104ea85613000565b6104f39361255f565b6104ff608083016118c1565b9161050a828261205d565b606001610516906118c1565b93610521838361205d565b6080013595610530848461205d565b602001359061053f858561205d565b6040013561054d868661205d565b60a001359161055c878761205d565b60c001359361056b888861205d565b60e00161057790612090565b95610582898961205d565b6101000161058f90612090565b9761059a8a8261205d565b610120016105a790612090565b996105b19161205d565b61014081016105bf9161159f565b9b6101ef9d919b6128ba565b806102086105d8926108dc565b386104bc565b3461010b5760207ffffffffffffffffffffffffffffffffffffffffffffffffffffffffffffffffc36011261010b5773ffffffffffffffffffffffffffffffffffffffff60043561062e816102e7565b1660005260036020526020604060002054604051908152f35b3461010b5760c07ffffffffffffffffffffffffffffffffffffffffffffffffffffffffffffffffc36011261010b57600435610682816102e7565b67ffffffffffffffff9060243582811161010b576106a49036906004016100fc565b9060843583811161010b576106bd903690600401610313565b9060a43594851161010b576106d96101f9953690600401610313565b9490936064359160443591611f3b565b7fffffffffffffffffffffffffffffffffffffffffffffffffffffffffffffffbc608091011261010b57604490565b3461010b5760e07ffffffffffffffffffffffffffffffffffffffffffffffffffffffffffffffffc36011261010b57600435610753816102e7565b67ffffffffffffffff9060243582811161010b576107759036906004016100fc565b9061077f366106e9565b9260c43590811161010b57610798903690600401610313565b90916107a26118b0565b6107ab8461336d565b948435936107bd8560c0880135611a18565b906107c66109c2565b30815291602083015273ffffffffffffffffffffffffffffffffffffffff7f0000000000000000000000000000000000000000000000000000000000000000169261080f611db7565b843b1561010b576000968793610855926040519c8d998a9889977f137c29fe00000000000000000000000000000000000000000000000000000000895260048901611ea8565b03925af1908115610214576101ef936102689261088c575b5061087a606084016118c1565b610886602085016118c1565b90612fc2565b80610208610899926108dc565b3861086d565b63ffffffff81160361010b57565b7f4e487b7100000000000000000000000000000000000000000000000000000000600052604160045260246000fd5b67ffffffffffffffff81116108f057604052565b6108ad565b6040810190811067ffffffffffffffff8211176108f057604052565b6020810190811067ffffffffffffffff8211176108f057604052565b60a0810190811067ffffffffffffffff8211176108f057604052565b6060810190811067ffffffffffffffff8211176108f057604052565b60c0810190811067ffffffffffffffff8211176108f057604052565b90601f7fffffffffffffffffffffffffffffffffffffffffffffffffffffffffffffffe0910116810190811067ffffffffffffffff8211176108f057604052565b604051906109cf826108f5565b565b67ffffffffffffffff81116108f057601f017fffffffffffffffffffffffffffffffffffffffffffffffffffffffffffffffe01660200190565b929192610a17826109d1565b91610a256040519384610981565b82948184528183011161010b578281602093846000960137010152565b9080601f8301121561010b57816020610a5d93359101610a0b565b90565b6101807ffffffffffffffffffffffffffffffffffffffffffffffffffffffffffffffffc36011261010b57600435610a97816102e7565b604435610aa3816102e7565b61010435610ab08161089f565b61012435610abd8161089f565b6101443591610acb8361089f565b610164359467ffffffffffffffff861161010b57610af06101f9963690600401610a42565b9460e4359160c4359160a435916084359160643591602435906117b1565b3461010b5760007ffffffffffffffffffffffffffffffffffffffffffffffffffffffffffffffffc36011261010b57602060405173ffffffffffffffffffffffffffffffffffffffff7f0000000000000000000000000000000000000000000000000000000000000000168152f35b3461010b5760a07ffffffffffffffffffffffffffffffffffffffffffffffffffffffffffffffffc36011261010b57600435610bb8816102e7565b67ffffffffffffffff9060243582811161010b57610bda9036906004016100fc565b9060643583811161010b57610bf3903690600401610313565b909360843590811161010b57610c10610c1b913690600401610313565b9290956103dd6118b0565b959193906060860135610c2d816102e7565b863590610c3c602089016118c1565b90610c4b60c08a013584611a18565b9973ffffffffffffffffffffffffffffffffffffffff82169a8b3b1561010b576040517fd505accf00000000000000000000000000000000000000000000000000000000815273ffffffffffffffffffffffffffffffffffffffff88166004820152306024820152604480820183905235606482015260ff92909216608483015260a482019990995260c48101949094526101ef9961026898610d0a95610d05929060008160e48183865af1610d28575b508730916118cb565b612fc2565b610d19610160860135826127e5565b610d228561336d565b9061255f565b80610208610d35926108dc565b38610cfc565b60005b838110610d4e5750506000910152565b8181015183820152602001610d3e565b907fffffffffffffffffffffffffffffffffffffffffffffffffffffffffffffffe0601f602093610d9a81518092818752878088019101610d3b565b0116010190565b3461010b576000807ffffffffffffffffffffffffffffffffffffffffffffffffffffffffffffffffc360112610ed357610e8590610dfe7f00000000000000000000000000000000000000000000000000000000000000006112ba565b610e277f00000000000000000000000000000000000000000000000000000000000000006113f3565b9160405191610e3583610911565b8183526040519485947f0f000000000000000000000000000000000000000000000000000000000000008652610e7760209360e08589015260e0880190610d5e565b908682036040880152610d5e565b904660608601523060808601528260a086015284820360c08601528080855193848152019401925b828110610ebc57505050500390f35b835185528695509381019392810192600101610ead565b80fd5b602080820190808352835180925260408301928160408460051b8301019501936000915b848310610f0a5750505050505090565b9091929394958480610f46837fffffffffffffffffffffffffffffffffffffffffffffffffffffffffffffffc086600196030187528a51610d5e565b9801930193019194939290610efa565b3461010b5760207ffffffffffffffffffffffffffffffffffffffffffffffffffffffffffffffffc36011261010b5767ffffffffffffffff60043581811161010b573660238201121561010b57806004013591821161010b573660248360051b8301011161010b57610fda916024610fce92016116c1565b60405191829182610ed6565b0390f35b3461010b5760c07ffffffffffffffffffffffffffffffffffffffffffffffffffffffffffffffffc36011261010b57600435611019816102e7565b67ffffffffffffffff9060243582811161010b5761103b903690600401610305565b9060843583811161010b57611054903690600401610313565b9060a43594851161010b576110706101f9953690600401610313565b94909360643591604435916121f7565b3461010b5760e07ffffffffffffffffffffffffffffffffffffffffffffffffffffffffffffffffc36011261010b576004356110bb816102e7565b67ffffffffffffffff60243581811161010b576110dc903690600401610305565b906110e6366106e9565b9060c43590811161010b576110ff903690600401610313565b61110a9491946118b0565b61111384613000565b918435936060860135966111278689611a18565b906111306109c2565b30815291602083015273ffffffffffffffffffffffffffffffffffffffff7f00000000000000000000000000000000000000000000000000000000000000001692611179612145565b843b1561010b5760009687936111bf926040519a8b998a9889977f137c29fe00000000000000000000000000000000000000000000000000000000895260048901611ea8565b03925af180156102145761124e575b5060408201906111de828461205d565b6111e7906118c1565b906111f4602085016118c1565b6111fd92612fc2565b611209608083016118c1565b90611214818461205d565b606001611220906118c1565b9261122b828261205d565b608001359461123a838361205d565b611243906118c1565b90610530848461205d565b8061020861125b926108dc565b386111ce565b3461010b5760007ffffffffffffffffffffffffffffffffffffffffffffffffffffffffffffffffc36011261010b57602061129a612438565b604051908152f35b67ffffffffffffffff81116108f05760051b60200190565b60ff81146112cb57610a5d906114c1565b506040516001805480821c916000918082169182156113e9575b60209182861084146113bc5785875286949360208601939291811561137e575060011461131c575b505050610a5d92500382610981565b92509361134b60016000527fb10e2d527612073b26eecdfd717e6a320cf44b4afac2b0732d9fcbe2b7fa0cf690565b946000935b82851061136857505050610a5d93500138808061130d565b8654858501529586019587955093810193611350565b915050610a5d959293507fffffffffffffffffffffffffffffffffffffffffffffffffffffffffffffff009150168252151560051b0138808061130d565b6024857f4e487b710000000000000000000000000000000000000000000000000000000081526022600452fd5b93607f16936112e5565b60ff811461140457610a5d906114c1565b50604051600060025490600182811c928181169182156114b7575b60209182861084146113bc5785875286949360208601939291811561137e575060011461145557505050610a5d92500382610981565b92509361148460026000527f405787fa12a823e0f2b7631cc41b3ba8828b3321ca811111fa75cd3aa3bb5ace90565b946000935b8285106114a157505050610a5d93500138808061130d565b8654858501529586019587955093810193611489565b93607f169361141f565b60ff811690601f82116114e557604051916114db836108f5565b8252602082015290565b60046040517fb3512b0c000000000000000000000000000000000000000000000000000000008152fd5b7f4e487b7100000000000000000000000000000000000000000000000000000000600052601160045260246000fd5b7fffffffffffffffffffffffffffffffffffffffffffffffffffffffffffffffff811461156b5760010190565b61150f565b7f4e487b7100000000000000000000000000000000000000000000000000000000600052603260045260246000fd5b9035907fffffffffffffffffffffffffffffffffffffffffffffffffffffffffffffffe18136030182121561010b570180359067ffffffffffffffff821161010b5760200191813603831361010b57565b9082101561160b576116079160051b81019061159f565b9091565b611570565b908092918237016000815290565b3d15611649573d9061162f826109d1565b9161163d6040519384610981565b82523d6000602084013e565b606090565b60208183031261010b5780519067ffffffffffffffff821161010b570181601f8201121561010b578051611681816109d1565b9261168f6040519485610981565b8184526020828401011161010b57610a5d9160208085019101610d3b565b805182101561160b5760209160051b010190565b9190916116cd836112a2565b9060406116dc81519384610981565b8483527fffffffffffffffffffffffffffffffffffffffffffffffffffffffffffffffe0611709866112a2565b0160005b8181106117a0575050829460005b818110611729575050505050565b6000806117378385886115f0565b90611746875180938193611610565b0390305af461175361161e565b9081901561178157509061177c9161176b82886116ad565b5261177681876116ad565b5061153e565b61171b565b604482511061010b57600461010b92016024809151830101910161164e565b80606060208093880101520161170d565b9a9692999490979399989591986117c66118b0565b73ffffffffffffffffffffffffffffffffffffffff809c169a8b3b1561010b576040519c8d9b8c9b7fad5425c6000000000000000000000000000000000000000000000000000000008d528c33906004015260248d01521660448b015260648a0152608489015260a488015260c487015260e486015263ffffffff9283809216610104870152166101248501521661014483015261016482016101809052610184820161187291610d5e565b0381345a94600095f1801561021457611891575b506109cf6001600055565b8061020861189e926108dc565b38611886565b6040513d6000823e3d90fd5b60026000541461010b576002600055565b35610a5d816102e7565b90926109cf93604051937f23b872dd00000000000000000000000000000000000000000000000000000000602086015273ffffffffffffffffffffffffffffffffffffffff80921660248601521660448401526064830152606482526119308261092d565b611954565b8015150361010b57565b9081602091031261010b5751610a5d81611935565b9060008073ffffffffffffffffffffffffffffffffffffffff6119bf9416927f5361666545524332303a206c6f772d6c6576656c2063616c6c206661696c656460206040516119a2816108f5565b818152015260208151910182855af16119b961161e565b916119ef565b80519081159182156119d5575b50501561010b57565b6119e8925060208091830101910161193f565b38806119cc565b9015611a0957815115611a00575090565b3b1561010b5790565b50805190811561010b57602001fd5b9190820180921161156b57565b60405190610120820182811067ffffffffffffffff8211176108f05760405260f882527f506172616d657465722c6279746573206d657373616765290000000000000000610100837f426173654465706f73697444617461286164647265737320696e707574546f6b60208201527f656e2c62797465733332206f7574707574546f6b656e2c75696e74323536206f60408201527f7574707574416d6f756e742c61646472657373206465706f7369746f722c627960608201527f746573333220726563697069656e742c75696e743235362064657374696e617460808201527f696f6e436861696e49642c62797465733332206578636c757369766552656c6160a08201527f7965722c75696e7433322071756f746554696d657374616d702c75696e74333260c08201527f2066696c6c446561646c696e652c75696e743332206578636c7573697669747960e08201520152565b60405190611b8882610949565b602682527f7069656e742900000000000000000000000000000000000000000000000000006040837f466565732875696e7432353620616d6f756e742c61646472657373207265636960208201520152565b60405190610140820182811067ffffffffffffffff8211176108f05760405261010c82527f6e74323536206e6f6e6365290000000000000000000000000000000000000000610120837f53776170416e644465706f736974446174612846656573207375626d6973736960208201527f6f6e466565732c426173654465706f73697444617461206465706f736974446160408201527f74612c616464726573732073776170546f6b656e2c616464726573732065786360608201527f68616e67652c75696e7438207472616e73666572547970652c75696e7432353660808201527f2073776170546f6b656e416d6f756e742c75696e74323536206d696e4578706560a08201527f63746564496e707574546f6b656e416d6f756e742c627974657320726f75746560c08201527f7243616c6c646174612c626f6f6c20656e61626c6550726f706f7274696f6e6160e08201527f6c41646a7573746d656e742c616464726573732073706f6b65506f6f6c2c75696101008201520152565b60405190611d6582610949565b602e82527f696e7432353620616d6f756e74290000000000000000000000000000000000006040837f546f6b656e5065726d697373696f6e73286164647265737320746f6b656e2c7560208201520152565b611dbf611a25565b610a5d603b611dcc611b7b565b92611dd5611bda565b611ddd611d58565b906040519586937f53776170416e644465706f73697444617461207769746e6573732900000000006020860152611e1d8151809260208989019101610d3b565b8401611e328251809360208985019101610d3b565b01611e468251809360208885019101610d3b565b01611e5a8251809360208785019101610d3b565b0103601b810184520182610981565b601f82602094937fffffffffffffffffffffffffffffffffffffffffffffffffffffffffffffffe0938186528686013760008582860101520116010190565b959390611f2c936020610a5d999794611f15936060813591611ec9836102e7565b73ffffffffffffffffffffffffffffffffffffffff9283168d5280850135858e0152604080820135908e0152013560608c01528151811660808c015291015160a08a01521660c0880152565b60e086015261014080610100870152850190610d5e565b92610120818503910152611e69565b91969394611f4e919693956103dd6118b0565b873598606089019790939092611f67610185808b6118c1565b91611f768c60c08d0135611a18565b93833b1561010b576040517fef55bec600000000000000000000000000000000000000000000000000000000815273ffffffffffffffffffffffffffffffffffffffff891660048201523060248201526044810195909552606485019690965260848401949094526101608a013560a484015260ff90941660c483015260e4820192909252610104810192909252600090829061012490829084905af19687156102145761203461026896610d19936120409a61204a575b506118c1565b610886602089016118c1565b6109cf6001600055565b80610208612057926108dc565b3861202e565b9035907ffffffffffffffffffffffffffffffffffffffffffffffffffffffffffffffea18136030182121561010b570190565b35610a5d8161089f565b604051906120a78261092d565b607482527f65506f6f6c2c75696e74323536206e6f6e6365290000000000000000000000006080837f4465706f736974446174612846656573207375626d697373696f6e466565732c60208201527f426173654465706f7369744461746120626173654465706f736974446174612c60408201527f75696e7432353620696e707574416d6f756e742c616464726573732073706f6b60608201520152565b61214d611a25565b610a5d603461215a61209a565b92612163611b7b565b61216b611d58565b906040519586937f4465706f73697444617461207769746e6573732900000000000000000000000060208601526121ab8151809260208989019101610d3b565b84016121c08251809360208985019101610d3b565b016121d48251809360208885019101610d3b565b016121e88251809360208785019101610d3b565b01036014810184520182610981565b93909591869597936122076118b0565b606087013598873593849161221b91613417565b92918c60408c019b8c61222d9161205d565b612236906118c1565b73ffffffffffffffffffffffffffffffffffffffff169361225691611a18565b93833b1561010b576040517fef55bec600000000000000000000000000000000000000000000000000000000815273ffffffffffffffffffffffffffffffffffffffff8c16600482015230602482015260448101959095526064850196909652608484019490945260a08b013560a484015260ff90941660c483015260e4820192909252610104810192909252600090829061012490829084905af1801561021457612425575b50612308858761205d565b612311906118c1565b9061231e602088016118c1565b61232792612fc2565b61233085613000565b6123399361255f565b612345608083016118c1565b90612350818461205d565b60600161235c906118c1565b92612367828261205d565b6080013594612376838361205d565b61237f906118c1565b9061238a848461205d565b6020013590612399858561205d565b604001356123a7868661205d565b60a00135916123b6878761205d565b60c00135936123c5888861205d565b60e0016123d190612090565b956123dc898961205d565b610100016123e990612090565b976123f48a8261205d565b6101200161240190612090565b9961240b9161205d565b61014081016124199161159f565b9b6120409d919b6128ba565b80610208612432926108dc565b386122fd565b73ffffffffffffffffffffffffffffffffffffffff7f000000000000000000000000000000000000000000000000000000000000000016301480612536575b156124a0577f000000000000000000000000000000000000000000000000000000000000000090565b60405160208101907f8b73c3c69bb8fe3d512ecc4cf759cc79239f7b179b0ffacaa9a75d522b39400f82527f000000000000000000000000000000000000000000000000000000000000000060408201527f000000000000000000000000000000000000000000000000000000000000000060608201524660808201523060a082015260a0815261253081610965565b51902090565b507f00000000000000000000000000000000000000000000000000000000000000004614612477565b929160426125aa9261256f612438565b90604051917f190100000000000000000000000000000000000000000000000000000000000083526002830152602282015220923691610a0b565b916125b58383612722565b60058195929510156126f3571593846126d0575b508315612605575b505050156125db57565b60046040517f8baa579f000000000000000000000000000000000000000000000000000000008152fd5b60009293509082916040516126838161265760208201947f1626ba7e00000000000000000000000000000000000000000000000000000000998a87526024840152604060448401526064830190610d5e565b037fffffffffffffffffffffffffffffffffffffffffffffffffffffffffffffffe08101835282610981565b51915afa9061269061161e565b826126c2575b826126a6575b50503880806125d1565b90915060208180518101031261010b576020015114388061269c565b915060208251101591612696565b73ffffffffffffffffffffffffffffffffffffffff8381169116149350386125c9565b7f4e487b7100000000000000000000000000000000000000000000000000000000600052602160045260246000fd5b90604181511460001461274c57611607916020820151906060604084015193015160001a90612756565b5050600090600290565b9291907f7fffffffffffffffffffffffffffffff5d576e7357a4501ddfe92f46681b20a083116127d95791608094939160ff602094604051948552168484015260408301526060820152600093849182805260015afa1561021457815173ffffffffffffffffffffffffffffffffffffffff8116156127d3579190565b50600190565b50505050600090600390565b73ffffffffffffffffffffffffffffffffffffffff16908160005260036020526040600020540361282b5760005260036020526040600020612827815461153e565b9055565b60046040517f756688fe000000000000000000000000000000000000000000000000000000008152fd5b99989694929091610a5d9d9b989694928b5260208b015260408a01526060890152608088015260a087015260c086015260e085015263ffffffff9283809216610100860152166101208401521661014082015261018090816101608201520191611e69565b9b969199949c979298939c9a95909a898d604051907f095ea7b30000000000000000000000000000000000000000000000000000000060208301526129568261292a8684602484016020909392919373ffffffffffffffffffffffffffffffffffffffff60408201951681520152565b037fffffffffffffffffffffffffffffffffffffffffffffffffffffffffffffffe08101845283610981565b6000808351602085018273ffffffffffffffffffffffffffffffffffffffff88165af161298161161e565b81612af2575b5080612ad2575b15612a41575b905073ffffffffffffffffffffffffffffffffffffffff9150163b1561010b576040517fad5425c60000000000000000000000000000000000000000000000000000000081529d8e9c8d9c612a069c73ffffffffffffffffffffffffffffffffffffffff908116921660048f01612855565b039173ffffffffffffffffffffffffffffffffffffffff1691815a6000948591f1801561021457612a345750565b806102086109cf926108dc565b6040517f095ea7b300000000000000000000000000000000000000000000000000000000602082015273ffffffffffffffffffffffffffffffffffffffff918216602482015260006044808301919091528152612aca93612aae9290612aa8606484610981565b16611954565b73ffffffffffffffffffffffffffffffffffffffff8c16611954565b89388e612994565b5073ffffffffffffffffffffffffffffffffffffffff83163b151561298e565b8051801592508215612b07575b505038612987565b612b1a925060208091830101910161193f565b3880612aff565b35600381101561010b5790565b9081602091031261010b575190565b906003821015612b4a5752565b6126f3565b929160c094612b9593610a5d99979373ffffffffffffffffffffffffffffffffffffffff9384809216885216602087015260408601521660608401526080830190612b3d565b8160a08201520191611e69565b35610a5d81611935565b8181029291811591840414171561156b57565b8115612bc9570490565b7f4e487b7100000000000000000000000000000000000000000000000000000000600052601260045260246000fd5b92916080949796959273ffffffffffffffffffffffffffffffffffffffff612c2e9316855260a0602086015260a0850191611e69565b95604083015260608201520152565b90612c4a606083016118c1565b73ffffffffffffffffffffffffffffffffffffffff1691604092838201612c71818461205d565b612c7a906118c1565b73ffffffffffffffffffffffffffffffffffffffff1692612c9d608082016118c1565b9360c0820135858873ffffffffffffffffffffffffffffffffffffffff80807f00000000000000000000000000000000000000000000000000000000000000001698612cea868b83612f63565b1694169683888660a08901612cfe90612b21565b6101008a0195612d0e878c61159f565b929091519e8f9687967fc0437b7c0000000000000000000000000000000000000000000000000000000088526004880196612d4897612b4f565b03815a602094600091f197881561021457600098612f33575b5060e0850135808910612f0a578015612ee1579780999a938893879693612d9598612dc09c8b868a6101209d8e8601612ba2565b15612eca57612daa612db193612db69661205d565b0135612bac565b612bbf565b9b8c915b8961159f565b949093612dcd8c8b61205d565b602001359851958695612de09587612bf8565b037f32da500ab49223322bf87d13ba63ef4e5efd139c75f982183d27f59fc31fb25091a4610140612e128282016118c1565b94612e1d858461205d565b606001612e29906118c1565b96612e34868561205d565b6080013598612e43878661205d565b60200135612e51888761205d565b60a0013593612e60898861205d565b60c0013595612e6f8a8961205d565b60e001612e7b90612090565b97612e868b8261205d565b61010001612e9390612090565b99612e9e8c8361205d565b01612ea890612090565b9a612eb29161205d565b908101612ebe9161159f565b9b6109cf9d919b6128ba565b939050612ed7925061205d565b01359b8c91612dba565b60048b517f2d696302000000000000000000000000000000000000000000000000000000008152fd5b60048b517f0492ff87000000000000000000000000000000000000000000000000000000008152fd5b612f5591985060203d8111612f5c575b612f4d8183610981565b810190612b2e565b9638612d61565b503d612f43565b6040517fa9059cbb00000000000000000000000000000000000000000000000000000000602082015273ffffffffffffffffffffffffffffffffffffffff909216602483015260448201929092526109cf91611930826064810161292a565b91909181612fcf57505050565b6109cf9273ffffffffffffffffffffffffffffffffffffffff90818116612ffa575033915b16612f63565b91612ff4565b61300861209a565b612530613013611a25565b9161301c611b7b565b92613071604051918260209687928361303e8185019889815193849201610d3b565b830161305282518093878085019101610d3b565b0161306582518093868085019101610d3b565b01038084520182610981565b5190209161265761308185613237565b94613097613092604083018361205d565b61312c565b946130a4608083016118c1565b90604051968795860198606060a0860135950135928a929360a09473ffffffffffffffffffffffffffffffffffffffff93989796929860c086019986526020860152604085015260608401521660808201520152565b613102611a25565b6040516125306020828161311f8183019687815193849201610d3b565b8101038084520182610981565b6131346130fa565b612530613140836118c1565b91612657613150606086016118c1565b9461315d60e08201612090565b61316a6101008301612090565b6131776101208401612090565b9161319061318961014086018661159f565b3691610a0b565b6020815191012093604051988997602089019b60c0840135938d60a0820135946080830135946020604085013594013592989592936101609a9895919d9c9b97946101808b019e8b5273ffffffffffffffffffffffffffffffffffffffff80941660208c015260408b015260608a015216608088015260a087015260c086015260e085015263ffffffff928380921661010086015216610120840152166101408201520152565b61323f611b7b565b60405161325c6020828161311f8183019687815193849201610d3b565b5190209073ffffffffffffffffffffffffffffffffffffffff6020820135613283816102e7565b6040519260208401948552356040840152166060820152606081526080810181811067ffffffffffffffff8211176108f05760405251902090565b6132c6611bda565b6132ce611a25565b6125306132d9611b7b565b9160405180936020928361303e8185019889815193849201610d3b565b989497936101609a96919d9c9b979361334a936101808c019f8c5260208c015260408b015273ffffffffffffffffffffffffffffffffffffffff988980921660608c01521660808a015260a0890190612b3d565b60c087015260e08601526101008501521515610120840152166101408201520152565b6133756132be565b9061253061338282613237565b91612657613396613092604084018461205d565b946133a3606084016118c1565b926133b0608082016118c1565b956133bd60a08301612b21565b916133cf61318961010083018361159f565b60208151910120906133e46101208201612ba2565b926133f261014083016118c1565b946040519a8b9960208b019d8e946101608701359a60c060e0890135980135966132f6565b919091604183036125db57826040101561160b57604081013560f81c908360201161010b5780359360401161010b57602001359156fea2646970667358221220da1841a3c9d00248946d33d4669fb11258e12687bc8ecc0a0eea66a0ff3c8c6564736f6c6343000813003360a03461009457601f610da238819003918201601f19168301916001600160401b038311848410176100995780849260209460405283398101031261009457516001600160a01b03811690819003610094576001600055608052604051610cf290816100b0823960805181818161012401528181610310015281816104d0015281816105d3015281816107df01526108db0152f35b600080fd5b634e487b7160e01b600052604160045260246000fdfe608080604052600436101561001357600080fd5b600090813560e01c90816312261ee714610891575080631626ba7e146107765763c0437b7c1461004257600080fd5b346107735760c07ffffffffffffffffffffffffffffffffffffffffffffffffffffffffffffffffc3601126107735760043573ffffffffffffffffffffffffffffffffffffffff8116810361076f576024359073ffffffffffffffffffffffffffffffffffffffff8216820361026f5773ffffffffffffffffffffffffffffffffffffffff606435166064350361026f57608435600381101561076b5760a43567ffffffffffffffff8111610688576100ff9036906004016108ff565b926002865414610767576002865573ffffffffffffffffffffffffffffffffffffffff7f00000000000000000000000000000000000000000000000000000000000000001673ffffffffffffffffffffffffffffffffffffffff606435161461073d578592806102b05750906101948394926044359073ffffffffffffffffffffffffffffffffffffffff6064359116610a69565b81604051928392833781018381520390826064355af16101b26109a2565b501561028657604051907f70a0823100000000000000000000000000000000000000000000000000000000825230600483015260208260248173ffffffffffffffffffffffffffffffffffffffff85165afa91821561027b578392610243575b5060209261023a8360019373ffffffffffffffffffffffffffffffffffffffff339116610a00565b55604051908152f35b9091506020813d8211610273575b8161025e60209383610932565b8101031261026f5751906020610212565b8280fd5b3d9150610251565b6040513d85823e3d90fd5b60046040517f81ceff30000000000000000000000000000000000000000000000000000000008152fd5b600181036102e85750906102e38394926044359073ffffffffffffffffffffffffffffffffffffffff6064359116610a00565b610194565b919250906002036107135761034c60443573ffffffffffffffffffffffffffffffffffffffff7f00000000000000000000000000000000000000000000000000000000000000001673ffffffffffffffffffffffffffffffffffffffff8416610a69565b60017fffffffffffffffffffffffffffffffffffffffffffffffffffffffffffffff00600254161760025573ffffffffffffffffffffffffffffffffffffffff8116855260016020526040852073ffffffffffffffffffffffffffffffffffffffff6064351686526020526040852080549065ffffffffffff82169165ffffffffffff83146106e6577fffffffffffffffffffffffffffffffffffffffffffffffffffff000000000000166001830165ffffffffffff16179055604051916080830167ffffffffffffffff8111848210176106b9579073ffffffffffffffffffffffffffffffffffffffff9160405216825273ffffffffffffffffffffffffffffffffffffffff60443516602083015265ffffffffffff4216604083015260608201526040519081606081011067ffffffffffffffff60608401111761068c5760608201604052815273ffffffffffffffffffffffffffffffffffffffff60643516602082015242604082015273ffffffffffffffffffffffffffffffffffffffff7f0000000000000000000000000000000000000000000000000000000000000000163b156106885760408051917f2b67b57000000000000000000000000000000000000000000000000000000000835230600484015265ffffffffffff6060825173ffffffffffffffffffffffffffffffffffffffff815116602487015273ffffffffffffffffffffffffffffffffffffffff60208201511660448701528285820151166064870152015116608484015273ffffffffffffffffffffffffffffffffffffffff60208201511660a4840152015160c482015261010060e4820152846101048201528481610124818373ffffffffffffffffffffffffffffffffffffffff7f0000000000000000000000000000000000000000000000000000000000000000165af1801561067d57610632575b50839182917fffffffffffffffffffffffffffffffffffffffffffffffffffffffffffffff0060025416600255610194565b67ffffffffffffffff81959293951161065057604052929038610600565b6024827f4e487b710000000000000000000000000000000000000000000000000000000081526041600452fd5b6040513d87823e3d90fd5b8480fd5b6024867f4e487b710000000000000000000000000000000000000000000000000000000081526041600452fd5b6024887f4e487b710000000000000000000000000000000000000000000000000000000081526041600452fd5b6024887f4e487b710000000000000000000000000000000000000000000000000000000081526011600452fd5b60046040517f4b26f70d000000000000000000000000000000000000000000000000000000008152fd5b60046040517f40892c33000000000000000000000000000000000000000000000000000000008152fd5b8580fd5b8380fd5b5080fd5b80fd5b50346107735760407ffffffffffffffffffffffffffffffffffffffffffffffffffffffffffffffffc3601126107735760243567ffffffffffffffff811161076f576107c69036906004016108ff565b505073ffffffffffffffffffffffffffffffffffffffff7f00000000000000000000000000000000000000000000000000000000000000001633149081610884575b501561085c5760207f1626ba7e000000000000000000000000000000000000000000000000000000005b7fffffffff0000000000000000000000000000000000000000000000000000000060405191168152f35b60207fffffffff00000000000000000000000000000000000000000000000000000000610832565b60025460ff169150610808565b90503461076f57817ffffffffffffffffffffffffffffffffffffffffffffffffffffffffffffffffc36011261076f5760209073ffffffffffffffffffffffffffffffffffffffff7f0000000000000000000000000000000000000000000000000000000000000000168152f35b9181601f8401121561092d5782359167ffffffffffffffff831161092d576020838186019501011161092d57565b600080fd5b90601f7fffffffffffffffffffffffffffffffffffffffffffffffffffffffffffffffe0910116810190811067ffffffffffffffff82111761097357604052565b7f4e487b7100000000000000000000000000000000000000000000000000000000600052604160045260246000fd5b3d156109fb573d9067ffffffffffffffff821161097357604051916109ef60207fffffffffffffffffffffffffffffffffffffffffffffffffffffffffffffffe0601f8401160184610932565b82523d6000602084013e565b606090565b6040517fa9059cbb00000000000000000000000000000000000000000000000000000000602082015273ffffffffffffffffffffffffffffffffffffffff929092166024830152604480830193909352918152610a6791610a62606483610932565b610be7565b565b6040517f095ea7b3000000000000000000000000000000000000000000000000000000006020820181815273ffffffffffffffffffffffffffffffffffffffff8516602484015260448084019690965294825294939092610acb606485610932565b73ffffffffffffffffffffffffffffffffffffffff90818416600080809588519082855af190610af96109a2565b82610b9d575b5081610b92575b5015610b16575b50505050509050565b60405196602088015216602486015280604486015260448552608085019085821067ffffffffffffffff831117610b655750610b5a9394610a629160405282610be7565b803880808080610b0d565b807f4e487b7100000000000000000000000000000000000000000000000000000000602492526041600452fd5b90503b151538610b06565b80519192508115918215610bb5575b50509038610aff565b610bc89250602080918301019101610bcf565b3880610bac565b9081602091031261092d5751801515810361092d5790565b73ffffffffffffffffffffffffffffffffffffffff166040516040810181811067ffffffffffffffff82111761097357610c63937f5361666545524332303a206c6f772d6c6576656c2063616c6c206661696c656460206000948594604052818152015260208151910182855af1610c5d6109a2565b91610c93565b8051908115918215610c79575b50501561092d57565b610c8c9250602080918301019101610bcf565b3880610c70565b9015610cad57815115610ca4575090565b3b1561092d5790565b50805190811561092d57602001fdfea26469706673582212209d56fd5f066e7449c7422511cd7b7ad85fd265c6fa2199289825b5f16d21a67064736f6c63430008130033",
  "devdoc": {
    "custom:security-contact": "bugs@across.to",
    "events": {
      "EIP712DomainChanged()": {
        "details": "MAY be emitted to signal that the domain could have changed."
      }
    },
    "kind": "dev",
    "methods": {
      "constructor": {
        "params": {
          "_permit2": "Address of the canonical permit2 contract."
        }
      },
      "depositNative(address,bytes32,address,uint256,bytes32,uint256,uint256,bytes32,uint32,uint32,uint32,bytes)": {
        "details": "Protects the caller from losing their ETH (or other native token) by reverting if the SpokePool address they intended to call does not exist on this chain. Because this contract can be deployed at the same address everywhere callers should be protected even if the transaction is submitted to an unintended network. This contract should only be used for native token deposits, as this problem only exists for native tokens.",
        "params": {
          "destinationChainId": "Denotes network where user will receive funds from SpokePool by a relayer.",
          "exclusiveRelayer": "Address (as bytes32) of the relayer who has exclusive rights to fill this deposit. Can be set to 0x0 if no period is desired. If so, then must set exclusivityParameter to 0.",
          "exclusivityParameter": "Timestamp or offset, after which any relayer can fill this deposit. Must set to 0 if exclusiveRelayer is set to 0x0, and vice versa.",
          "fillDeadline": "Timestamp after which this deposit can no longer be filled.",
          "inputAmount": "Amount of tokens to deposit.",
          "inputToken": "Token to lock into this contract to initiate deposit.",
          "message": "Arbitrary data that can be used to pass additional information to the recipient along with the tokens. Note: this is intended to be used to pass along instructions for how a contract should use or allocate the tokens.",
          "outputAmount": "Amount of tokens to receive on destination chain.",
          "quoteTimestamp": "Timestamp used by relayers to compute this deposit's realizedLPFeePct which is paid to LP pool on HubPool.",
          "recipient": "Address (as bytes32) to receive funds on destination chain."
        }
      },
      "depositWithAuthorization(address,((uint256,address),(address,bytes32,uint256,address,bytes32,uint256,bytes32,uint32,uint32,uint32,bytes),uint256,address,uint256),uint256,uint256,bytes,bytes)": {
        "details": "If `acrossInputToken` does not implement `receiveWithAuthorization` to the specifications of EIP-3009, this call will revert.The nonce for the receiveWithAuthorization signature should match the nonce in the DepositData. This nonce is managed by the ERC-3009 token contract.",
        "params": {
          "depositData": "Specifies the Across deposit params to send.",
          "depositDataSignature": "The signature against the input depositData encoded as (bytes32 r, bytes32 s, uint8 v).",
          "receiveWithAuthSignature": "EIP3009 signature encoded as (bytes32 r, bytes32 s, uint8 v).",
          "signatureOwner": "The owner of the EIP3009 signature and depositData signature. Assumed to be the depositor for the Across spoke pool.",
          "validAfter": "The unix time after which the `receiveWithAuthorization` signature is valid.",
          "validBefore": "The unix time before which the `receiveWithAuthorization` signature is valid."
        }
      },
      "depositWithPermit(address,((uint256,address),(address,bytes32,uint256,address,bytes32,uint256,bytes32,uint32,uint32,uint32,bytes),uint256,address,uint256),uint256,bytes,bytes)": {
        "details": "If the token does not implement `permit` to the specifications of EIP-2612, the permit call result will be ignored and the function will continue.If `acrossInputToken` does not implement `permit` to the specifications of EIP-2612, this function will fail.The nonce for the depositData signature must be retrieved from permitNonces(signatureOwner).Design Decision: We use separate nonce tracking for permit-based functions versus receiveWithAuthorization-based functions, which creates a theoretical replay attack that we think is incredibly unlikely because this would require: 1. A token implementing both ERC-2612 and ERC-3009 2. A user using the same nonces for depositWithPermit and for depositWithAuthorization 3. Issuing these signatures within a short amount of time (limited by fillDeadlineBuffer)",
        "params": {
          "deadline": "Deadline before which the permit signature is valid.",
          "depositData": "Specifies the Across deposit params to send.",
          "depositDataSignature": "The signature against the input depositData encoded as (bytes32 r, bytes32 s, uint8 v).",
          "permitSignature": "Permit signature encoded as (bytes32 r, bytes32 s, uint8 v).",
          "signatureOwner": "The owner of the permit signature and depositData signature. Assumed to be the depositor for the Across spoke pool."
        }
      },
      "depositWithPermit2(address,((uint256,address),(address,bytes32,uint256,address,bytes32,uint256,bytes32,uint32,uint32,uint32,bytes),uint256,address,uint256),((address,uint256),uint256,uint256),bytes)": {
        "details": "This function assumes the caller has properly set an allowance for the permit2 contract on this network.This function assumes that the amount of token to be swapped is equal to the amount of the token to be received from permit2.",
        "params": {
          "depositData": "Specifies the Across deposit params we'll send after the swap.",
          "permit": "The permit data signed over by the owner.",
          "signature": "The permit2 signature to verify against the deposit data.",
          "signatureOwner": "The owner of the permit2 signature and depositor for the Across spoke pool."
        }
      },
      "eip712Domain()": {
        "details": "See {EIP-5267}. _Available since v4.9._"
      },
      "swapAndBridge(((uint256,address),(address,bytes32,uint256,address,bytes32,uint256,bytes32,uint32,uint32,uint32,bytes),address,address,uint8,uint256,uint256,bytes,bool,address,uint256))": {
        "details": "Revert case: When enableProportionalAdjustment is true, the calculation depositData.outputAmount * returnAmount may overflow if the product exceeds 2^256-1, causing immediate transaction revert even when the final division result would fit. This case should be extremely rare as both values would need to be > 1e18 * 1e18. Users will only see a generic failure without explanatory error message.Does not support native tokens as swap output. Only ERC20 tokens can be deposited via this function.",
        "params": {
          "swapAndDepositData": "Specifies the data needed to perform a swap on a generic exchange."
        }
      },
      "swapAndBridgeWithAuthorization(address,((uint256,address),(address,bytes32,uint256,address,bytes32,uint256,bytes32,uint32,uint32,uint32,bytes),address,address,uint8,uint256,uint256,bytes,bool,address,uint256),uint256,uint256,bytes,bytes)": {
        "details": "Revert case: When enableProportionalAdjustment is true, the calculation depositData.outputAmount * returnAmount may overflow if the product exceeds 2^256-1, causing immediate transaction revert even when the final division result would fit. This case should be extremely rare as both values would need to be > 1e18 * 1e18. Users will only see a generic failure without explanatory error message.Does not support native tokens as swap output. Only ERC20 tokens can be deposited via this function.",
        "params": {
          "receiveWithAuthSignature": "EIP3009 signature encoded as (bytes32 r, bytes32 s, uint8 v).",
          "signatureOwner": "The owner of the EIP3009 signature and swapAndDepositData signature. Assumed to be the depositor for the Across spoke pool.",
          "swapAndDepositData": "Specifies the params we need to perform a swap on a generic exchange.",
          "swapAndDepositDataSignature": "The signature against the input swapAndDepositData encoded as (bytes32 r, bytes32 s, uint8 v).",
          "validAfter": "The unix time after which the `receiveWithAuthorization` signature is valid.",
          "validBefore": "The unix time before which the `receiveWithAuthorization` signature is valid."
        }
      },
      "swapAndBridgeWithPermit(address,((uint256,address),(address,bytes32,uint256,address,bytes32,uint256,bytes32,uint32,uint32,uint32,bytes),address,address,uint8,uint256,uint256,bytes,bool,address,uint256),uint256,bytes,bytes)": {
        "details": "Revert case: When enableProportionalAdjustment is true, the calculation depositData.outputAmount * returnAmount may overflow if the product exceeds 2^256-1, causing immediate transaction revert even when the final division result would fit. This case should be extremely rare as both values would need to be > 1e18 * 1e18. Users will only see a generic failure without explanatory error message.Does not support native tokens as swap output. Only ERC20 tokens can be deposited via this function.",
        "params": {
          "deadline": "Deadline before which the permit signature is valid.",
          "permitSignature": "Permit signature encoded as (bytes32 r, bytes32 s, uint8 v).",
          "signatureOwner": "The owner of the permit signature and swapAndDepositData signature. Assumed to be the depositor for the Across spoke pool.",
          "swapAndDepositData": "Specifies the params we need to perform a swap on a generic exchange.",
          "swapAndDepositDataSignature": "The signature against the input swapAndDepositData encoded as (bytes32 r, bytes32 s, uint8 v)."
        }
      },
      "swapAndBridgeWithPermit2(address,((uint256,address),(address,bytes32,uint256,address,bytes32,uint256,bytes32,uint32,uint32,uint32,bytes),address,address,uint8,uint256,uint256,bytes,bool,address,uint256),((address,uint256),uint256,uint256),bytes)": {
        "details": "Revert case: When enableProportionalAdjustment is true, the calculation depositData.outputAmount * returnAmount may overflow if the product exceeds 2^256-1, causing immediate transaction revert even when the final division result would fit. This case should be extremely rare as both values would need to be > 1e18 * 1e18. Users will only see a generic failure without explanatory error message.Does not support native tokens as swap output. Only ERC20 tokens can be deposited via this function.",
        "params": {
          "permit": "The permit data signed over by the owner.",
          "signature": "The permit2 signature to verify against the deposit data.",
          "signatureOwner": "The owner of the permit2 signature and depositor for the Across spoke pool.",
          "swapAndDepositData": "Specifies the params we need to perform a swap on a generic exchange."
        }
      }
    },
    "stateVariables": {
      "permitNonces": {
        "params": {
          "user": "The user whose nonce to return."
        },
        "return": "The current permit nonce for the user.",
        "returns": {
          "_0": "The current permit nonce for the user."
        }
      }
    },
    "title": "SpokePoolPeriphery",
    "version": 1
  },
  "userdoc": {
    "kind": "user",
    "methods": {
      "constructor": {
        "notice": "Construct a new Periphery contract."
      },
      "depositNative(address,bytes32,address,uint256,bytes32,uint256,uint256,bytes32,uint32,uint32,uint32,bytes)": {
        "notice": "Passthrough function to `depositV3()` on the SpokePool contract for native token deposits."
      },
      "depositWithAuthorization(address,((uint256,address),(address,bytes32,uint256,address,bytes32,uint256,bytes32,uint32,uint32,uint32,bytes),uint256,address,uint256),uint256,uint256,bytes,bytes)": {
        "notice": "Deposits an EIP-3009 compliant Across input token into the Spoke Pool contract."
      },
      "depositWithPermit(address,((uint256,address),(address,bytes32,uint256,address,bytes32,uint256,bytes32,uint32,uint32,uint32,bytes),uint256,address,uint256),uint256,bytes,bytes)": {
        "notice": "Deposits an EIP-2612 token Across input token into the Spoke Pool contract."
      },
      "depositWithPermit2(address,((uint256,address),(address,bytes32,uint256,address,bytes32,uint256,bytes32,uint32,uint32,uint32,bytes),uint256,address,uint256),((address,uint256),uint256,uint256),bytes)": {
        "notice": "Uses permit2 to transfer and submit an Across deposit to the Spoke Pool contract."
      },
      "domainSeparator()": {
        "notice": "Returns the contract's EIP712 domain separator, used to sign hashed DepositData/SwapAndDepositData types."
      },
      "permitNonces(address)": {
        "notice": "Returns the current permit nonce for a user."
      },
      "swapAndBridge(((uint256,address),(address,bytes32,uint256,address,bytes32,uint256,bytes32,uint32,uint32,uint32,bytes),address,address,uint8,uint256,uint256,bytes,bool,address,uint256))": {
        "notice": "Swaps tokens on this chain via specified router before submitting Across deposit atomically. Caller can specify their slippage tolerance for the swap and Across deposit params."
      },
      "swapAndBridgeWithAuthorization(address,((uint256,address),(address,bytes32,uint256,address,bytes32,uint256,bytes32,uint32,uint32,uint32,bytes),address,address,uint8,uint256,uint256,bytes,bool,address,uint256),uint256,uint256,bytes,bytes)": {
        "notice": "Swaps an EIP-3009 token on this chain via specified router before submitting Across deposit atomically. Caller can specify their slippage tolerance for the swap and Across deposit params."
      },
      "swapAndBridgeWithPermit(address,((uint256,address),(address,bytes32,uint256,address,bytes32,uint256,bytes32,uint32,uint32,uint32,bytes),address,address,uint8,uint256,uint256,bytes,bool,address,uint256),uint256,bytes,bytes)": {
        "notice": "Swaps an EIP-2612 token on this chain via specified router before submitting Across deposit atomically. Caller can specify their slippage tolerance for the swap and Across deposit params."
      },
      "swapAndBridgeWithPermit2(address,((uint256,address),(address,bytes32,uint256,address,bytes32,uint256,bytes32,uint32,uint32,uint32,bytes),address,address,uint8,uint256,uint256,bytes,bool,address,uint256),((address,uint256),uint256,uint256),bytes)": {
        "notice": "Uses permit2 to transfer tokens from a user before swapping a token on this chain via specified router and submitting an Across deposit atomically. Caller can specify their slippage tolerance for the swap and Across deposit params."
      }
    },
    "notice": "Contract for performing more complex interactions with an Across spoke pool deployment.",
    "version": 1
  },
  "storageLayout": {
    "storage": [
      {
        "astId": 49,
        "contract": "contracts/SpokePoolPeriphery.sol:SpokePoolPeriphery",
        "label": "_status",
        "offset": 0,
        "slot": "0",
        "type": "t_uint256"
      },
      {
        "astId": 1877,
        "contract": "contracts/SpokePoolPeriphery.sol:SpokePoolPeriphery",
        "label": "_nameFallback",
        "offset": 0,
        "slot": "1",
        "type": "t_string_storage"
      },
      {
        "astId": 1879,
        "contract": "contracts/SpokePoolPeriphery.sol:SpokePoolPeriphery",
        "label": "_versionFallback",
        "offset": 0,
        "slot": "2",
        "type": "t_string_storage"
      },
      {
        "astId": 3495,
        "contract": "contracts/SpokePoolPeriphery.sol:SpokePoolPeriphery",
        "label": "permitNonces",
        "offset": 0,
        "slot": "3",
        "type": "t_mapping(t_address,t_uint256)"
      }
    ],
    "types": {
      "t_address": {
        "encoding": "inplace",
        "label": "address",
        "numberOfBytes": "20"
      },
      "t_mapping(t_address,t_uint256)": {
        "encoding": "mapping",
        "key": "t_address",
        "label": "mapping(address => uint256)",
        "numberOfBytes": "32",
        "value": "t_uint256"
      },
      "t_string_storage": {
        "encoding": "bytes",
        "label": "string",
        "numberOfBytes": "32"
      },
      "t_uint256": {
        "encoding": "inplace",
        "label": "uint256",
        "numberOfBytes": "32"
      }
    }
  }
}