{
  "address": "0xe377d7C510fEbc64525f480e33306b21b30066F7",
  "abi": [
    {
      "inputs": [],
      "stateMutability": "nonpayable",
      "type": "constructor"
    },
    {
      "anonymous": false,
      "inputs": [
        {
          "indexed": false,
          "internalType": "address",
          "name": "caller",
          "type": "address"
        },
        {
          "indexed": false,
          "internalType": "uint256",
          "name": "tokenId",
          "type": "uint256"
        },
        {
          "indexed": false,
          "internalType": "address[]",
          "name": "recipients",
          "type": "address[]"
        },
        {
          "indexed": false,
          "internalType": "uint256",
          "name": "amount",
          "type": "uint256"
        }
      ],
      "name": "Airdrop",
      "type": "event"
    },
    {
      "anonymous": false,
      "inputs": [
        {
          "indexed": true,
          "internalType": "address",
          "name": "account",
          "type": "address"
        },
        {
          "indexed": true,
          "internalType": "address",
          "name": "operator",
          "type": "address"
        },
        {
          "indexed": false,
          "internalType": "bool",
          "name": "approved",
          "type": "bool"
        }
      ],
      "name": "ApprovalForAll",
      "type": "event"
    },
    {
      "anonymous": false,
      "inputs": [
        {
          "indexed": true,
          "internalType": "address",
          "name": "previousOwner",
          "type": "address"
        },
        {
          "indexed": true,
          "internalType": "address",
          "name": "newOwner",
          "type": "address"
        }
      ],
      "name": "OwnershipTransferred",
      "type": "event"
    },
    {
      "anonymous": false,
      "inputs": [
        {
          "indexed": true,
          "internalType": "address",
          "name": "operator",
          "type": "address"
        },
        {
          "indexed": true,
          "internalType": "address",
          "name": "from",
          "type": "address"
        },
        {
          "indexed": true,
          "internalType": "address",
          "name": "to",
          "type": "address"
        },
        {
          "indexed": false,
          "internalType": "uint256[]",
          "name": "ids",
          "type": "uint256[]"
        },
        {
          "indexed": false,
          "internalType": "uint256[]",
          "name": "values",
          "type": "uint256[]"
        }
      ],
      "name": "TransferBatch",
      "type": "event"
    },
    {
      "anonymous": false,
      "inputs": [
        {
          "indexed": true,
          "internalType": "address",
          "name": "operator",
          "type": "address"
        },
        {
          "indexed": true,
          "internalType": "address",
          "name": "from",
          "type": "address"
        },
        {
          "indexed": true,
          "internalType": "address",
          "name": "to",
          "type": "address"
        },
        {
          "indexed": false,
          "internalType": "uint256",
          "name": "id",
          "type": "uint256"
        },
        {
          "indexed": false,
          "internalType": "uint256",
          "name": "value",
          "type": "uint256"
        }
      ],
      "name": "TransferSingle",
      "type": "event"
    },
    {
      "anonymous": false,
      "inputs": [
        {
          "indexed": false,
          "internalType": "string",
          "name": "value",
          "type": "string"
        },
        {
          "indexed": true,
          "internalType": "uint256",
          "name": "id",
          "type": "uint256"
        }
      ],
      "name": "URI",
      "type": "event"
    },
    {
      "inputs": [
        {
          "internalType": "uint256",
          "name": "",
          "type": "uint256"
        }
      ],
      "name": "_tokenURIs",
      "outputs": [
        {
          "internalType": "string",
          "name": "",
          "type": "string"
        }
      ],
      "stateMutability": "view",
      "type": "function"
    },
    {
      "inputs": [
        {
          "internalType": "uint256",
          "name": "tokenId",
          "type": "uint256"
        },
        {
          "internalType": "address[]",
          "name": "recipients",
          "type": "address[]"
        },
        {
          "internalType": "uint256",
          "name": "amount",
          "type": "uint256"
        }
      ],
      "name": "airdrop",
      "outputs": [],
      "stateMutability": "nonpayable",
      "type": "function"
    },
    {
      "inputs": [
        {
          "internalType": "address",
          "name": "account",
          "type": "address"
        },
        {
          "internalType": "uint256",
          "name": "id",
          "type": "uint256"
        }
      ],
      "name": "balanceOf",
      "outputs": [
        {
          "internalType": "uint256",
          "name": "",
          "type": "uint256"
        }
      ],
      "stateMutability": "view",
      "type": "function"
    },
    {
      "inputs": [
        {
          "internalType": "address[]",
          "name": "accounts",
          "type": "address[]"
        },
        {
          "internalType": "uint256[]",
          "name": "ids",
          "type": "uint256[]"
        }
      ],
      "name": "balanceOfBatch",
      "outputs": [
        {
          "internalType": "uint256[]",
          "name": "",
          "type": "uint256[]"
        }
      ],
      "stateMutability": "view",
      "type": "function"
    },
    {
      "inputs": [
        {
          "internalType": "address",
          "name": "account",
          "type": "address"
        },
        {
          "internalType": "address",
          "name": "operator",
          "type": "address"
        }
      ],
      "name": "isApprovedForAll",
      "outputs": [
        {
          "internalType": "bool",
          "name": "",
          "type": "bool"
        }
      ],
      "stateMutability": "view",
      "type": "function"
    },
    {
      "inputs": [],
      "name": "owner",
      "outputs": [
        {
          "internalType": "address",
          "name": "",
          "type": "address"
        }
      ],
      "stateMutability": "view",
      "type": "function"
    },
    {
      "inputs": [],
      "name": "renounceOwnership",
      "outputs": [],
      "stateMutability": "nonpayable",
      "type": "function"
    },
    {
      "inputs": [
        {
          "internalType": "address",
          "name": "from",
          "type": "address"
        },
        {
          "internalType": "address",
          "name": "to",
          "type": "address"
        },
        {
          "internalType": "uint256[]",
          "name": "ids",
          "type": "uint256[]"
        },
        {
          "internalType": "uint256[]",
          "name": "amounts",
          "type": "uint256[]"
        },
        {
          "internalType": "bytes",
          "name": "data",
          "type": "bytes"
        }
      ],
      "name": "safeBatchTransferFrom",
      "outputs": [],
      "stateMutability": "nonpayable",
      "type": "function"
    },
    {
      "inputs": [
        {
          "internalType": "address",
          "name": "from",
          "type": "address"
        },
        {
          "internalType": "address",
          "name": "to",
          "type": "address"
        },
        {
          "internalType": "uint256",
          "name": "id",
          "type": "uint256"
        },
        {
          "internalType": "uint256",
          "name": "amount",
          "type": "uint256"
        },
        {
          "internalType": "bytes",
          "name": "data",
          "type": "bytes"
        }
      ],
      "name": "safeTransferFrom",
      "outputs": [],
      "stateMutability": "nonpayable",
      "type": "function"
    },
    {
      "inputs": [
        {
          "internalType": "address",
          "name": "operator",
          "type": "address"
        },
        {
          "internalType": "bool",
          "name": "approved",
          "type": "bool"
        }
      ],
      "name": "setApprovalForAll",
      "outputs": [],
      "stateMutability": "nonpayable",
      "type": "function"
    },
    {
      "inputs": [
        {
          "internalType": "uint256",
          "name": "tokenId",
          "type": "uint256"
        },
        {
          "internalType": "string",
          "name": "tokenURI",
          "type": "string"
        }
      ],
      "name": "setTokenURI",
      "outputs": [],
      "stateMutability": "nonpayable",
      "type": "function"
    },
    {
      "inputs": [
        {
          "internalType": "bytes4",
          "name": "interfaceId",
          "type": "bytes4"
        }
      ],
      "name": "supportsInterface",
      "outputs": [
        {
          "internalType": "bool",
          "name": "",
          "type": "bool"
        }
      ],
      "stateMutability": "view",
      "type": "function"
    },
    {
      "inputs": [
        {
          "internalType": "address",
          "name": "newOwner",
          "type": "address"
        }
      ],
      "name": "transferOwnership",
      "outputs": [],
      "stateMutability": "nonpayable",
      "type": "function"
    },
    {
      "inputs": [
        {
          "internalType": "uint256",
          "name": "tokenId",
          "type": "uint256"
        }
      ],
      "name": "uri",
      "outputs": [
        {
          "internalType": "string",
          "name": "",
          "type": "string"
        }
      ],
      "stateMutability": "view",
      "type": "function"
    }
  ],
  "transactionHash": "0x8ac6eb2f2ae30d7b7477b22fbeec6357244189466e7b1cd081f55729c37272c5",
  "args": [],
  "numDeployments": 3,
  "solcInputHash": "200193942e0f09d7ebb5ccce1bc305e7",
  "bytecode": "0x6080346200012657602081016001600160401b03811182821017620001105760405260008091526002546001908181811c9116801562000105575b6020821014620000f157601f8111620000a7575b600283905560038054336001600160a01b03198216811790925560405191906001600160a01b03167f8be0079c531659141344cd1fd0a4f28419497f9722a3daafe3b4186f6b6457e08680a3611fc990816200012c8239f35b60028352601f0160051c7f405787fa12a823e0f2b7631cc41b3ba8828b3321ca811111fa75cd3aa3bb5ace908101905b818110620000e657506200004e565b8381558201620000d7565b634e487b7160e01b83526022600452602483fd5b90607f16906200003a565b634e487b7160e01b600052604160045260246000fd5b600080fdfe6040608081526004908136101561001557600080fd5b600091823560e01c8062fdd58e146116c957806301ffc9a7146115da5780630bb78ec1146115815780630e89341c14611581578063162094c4146112b25780632eb2c2d614610ef65780634e1273f414610d44578063715018a614610ca3578063754e5e37146107e15780638da5cb5b1461078e578063a22cb4651461063a578063e985e9c5146105bd578063f242432a146101f55763f2fde38b146100ba57600080fd5b346101f15760207ffffffffffffffffffffffffffffffffffffffffffffffffffffffffffffffffc3601126101f1576100f1611717565b906100fa611af0565b73ffffffffffffffffffffffffffffffffffffffff80921692831561016e575050600354827fffffffffffffffffffffffff0000000000000000000000000000000000000000821617600355167f8be0079c531659141344cd1fd0a4f28419497f9722a3daafe3b4186f6b6457e08380a380f35b90602060849251917f08c379a0000000000000000000000000000000000000000000000000000000008352820152602660248201527f4f776e61626c653a206e6577206f776e657220697320746865207a65726f206160448201527f64647265737300000000000000000000000000000000000000000000000000006064820152fd5b8280fd5b5090346101f15760a07ffffffffffffffffffffffffffffffffffffffffffffffffffffffffffffffffc3601126101f15761022e611717565b8361023761173f565b916044359060643560843567ffffffffffffffff81116105b95761025e9036908901611a23565b9273ffffffffffffffffffffffffffffffffffffffff80931692338414801561059a575b61028b90611ccc565b861690610299821515611d57565b6102a281611f5d565b506102ac83611f5d565b50808652602096868852888720858852885283898820546102cf82821015611de2565b838952888a528a8920878a528a52038988205581875286885288872083885288528887206102fe858254611e6d565b905582858a51848152868b8201527fc3d58168c5ae7397731d063d5bbf3d657854427343f4c083240f7aacaa2d0f628c3392a43b61033a578580f35b889587946103948a51978896879586947ff23a6e61000000000000000000000000000000000000000000000000000000009c8d8752339087015260248601526044850152606484015260a0608484015260a48301906118ea565b03925af186918161056b575b506104af5750506001906103b2611eb2565b6308c379a014610462575b506103d25750505b3880808381808080808580f35b61045e9250519182917f08c379a0000000000000000000000000000000000000000000000000000000008352820160809060208152603460208201527f455243313135353a207472616e7366657220746f206e6f6e204552433131353560408201527f526563656976657220696d706c656d656e74657200000000000000000000000060608201520190565b0390fd5b61046a611ed0565b8061047557506103bd565b61045e859185519384937f08c379a000000000000000000000000000000000000000000000000000000000855284015260248301906118ea565b7fffffffff00000000000000000000000000000000000000000000000000000000160390506104df5750506103c5565b61045e9250519182917f08c379a0000000000000000000000000000000000000000000000000000000008352820160809060208152602860208201527f455243313135353a204552433131353552656365697665722072656a6563746560408201527f6420746f6b656e7300000000000000000000000000000000000000000000000060608201520190565b61058c919250843d8611610593575b61058481836117b5565b810190611e7a565b90386103a0565b503d61057a565b508386526001602090815288872033885290528786205460ff16610282565b8480fd5b50503461063657807ffffffffffffffffffffffffffffffffffffffffffffffffffffffffffffffffc3601126106365760ff816020936105fb611717565b61060361173f565b73ffffffffffffffffffffffffffffffffffffffff91821683526001875283832091168252855220549151911615158152f35b5080fd5b5090346101f157807ffffffffffffffffffffffffffffffffffffffffffffffffffffffffffffffffc3601126101f157610672611717565b90602435918215158093036105b95773ffffffffffffffffffffffffffffffffffffffff169283331461070c575033845260016020528084208385526020528084207fffffffffffffffffffffffffffffffffffffffffffffffffffffffffffffff0081541660ff8416179055519081527f17307eab39ab6107e8899845ad3d59bd9653f200f220920489ca2b5937696c3160203392a380f35b602060849251917f08c379a0000000000000000000000000000000000000000000000000000000008352820152602960248201527f455243313135353a2073657474696e6720617070726f76616c2073746174757360448201527f20666f722073656c6600000000000000000000000000000000000000000000006064820152fd5b50503461063657817ffffffffffffffffffffffffffffffffffffffffffffffffffffffffffffffffc3601126106365760209073ffffffffffffffffffffffffffffffffffffffff600354169051908152f35b5090346101f15760607ffffffffffffffffffffffffffffffffffffffffffffffffffffffffffffffffc3601126101f15781359260249067ffffffffffffffff908235828111610636576108389036908701611a41565b9560448035610845611af0565b835b8951811015610c175773ffffffffffffffffffffffffffffffffffffffff61086f828c611c89565b51168851906020918281018181108a821117610bec578b528781528115610b6a57858c92898c8a948f6108a187611f5d565b506108ab8b611f5d565b5086845283895280842085855289528084206108c88c8254611e6d565b9055848482518981528d8c8201527fc3d58168c5ae7397731d063d5bbf3d657854427343f4c083240f7aacaa2d0f62843392a4843b610919575b50505050505050505061091490611c2d565b610847565b916109748493928a9796959351988997889687957ff23a6e61000000000000000000000000000000000000000000000000000000009d8e885233908801528601528401528c606484015260a0608484015260a48301906118ea565b03925af1889181610b4b575b50610a8d575050600190610992611eb2565b6308c379a014610a41575b506109b557610914905b9089858538898c828f610902565b61045e8989519182917f08c379a0000000000000000000000000000000000000000000000000000000008352820160809060208152603460208201527f455243313135353a207472616e7366657220746f206e6f6e204552433131353560408201527f526563656976657220696d706c656d656e74657200000000000000000000000060608201520190565b610a49611ed0565b80610a54575061099d565b61045e8c918b8d519485947f08c379a00000000000000000000000000000000000000000000000000000000086528501528301906118ea565b7fffffffff0000000000000000000000000000000000000000000000000000000016039050610abf57610914906109a7565b61045e8989519182917f08c379a0000000000000000000000000000000000000000000000000000000008352820160809060208152602860208201527f455243313135353a204552433131353552656365697665722072656a6563746560408201527f6420746f6b656e7300000000000000000000000000000000000000000000000060608201520190565b610b63919250843d86116105935761058481836117b5565b9038610980565b5050897f455243313135353a206d696e7420746f20746865207a65726f206164647265738560218b6084958e51957f08c379a00000000000000000000000000000000000000000000000000000000087528601528401528201527f73000000000000000000000000000000000000000000000000000000000000006064820152fd5b8a8960418f7f4e487b7100000000000000000000000000000000000000000000000000000000835252fd5b89858984878251926080808501913386526020938487015285015285518091528160a08501960191855b828110610c7957867f13d0a346ea6c350592dd539c68d5ff6d61d6b8834695625d09834638717193e087808b8960608301520390a180f35b835173ffffffffffffffffffffffffffffffffffffffff1688529681019692810192600101610c41565b8334610d4157807ffffffffffffffffffffffffffffffffffffffffffffffffffffffffffffffffc360112610d4157610cda611af0565b8073ffffffffffffffffffffffffffffffffffffffff6003547fffffffffffffffffffffffff00000000000000000000000000000000000000008116600355167f8be0079c531659141344cd1fd0a4f28419497f9722a3daafe3b4186f6b6457e08280a380f35b80fd5b509134610d4157817ffffffffffffffffffffffffffffffffffffffffffffffffffffffffffffffffc360112610d415767ffffffffffffffff83358181116101f157610d939036908601611a41565b906024359081116101f157610dab90369086016119c5565b938151855103610e7357508051917fffffffffffffffffffffffffffffffffffffffffffffffffffffffffffffffe0610dfb610de6856119ad565b94610df3875196876117b5565b8086526119ad565b013660208501375b8151811015610e5a5780610e4573ffffffffffffffffffffffffffffffffffffffff610e32610e559486611c89565b5116610e3e8389611c89565b5190611b6f565b610e4f8286611c89565b52611c2d565b610e03565b835160208082528190610e6f90820186611abc565b0390f35b60849060208551917f08c379a0000000000000000000000000000000000000000000000000000000008352820152602960248201527f455243313135353a206163636f756e747320616e6420696473206c656e67746860448201527f206d69736d6174636800000000000000000000000000000000000000000000006064820152fd5b50346101f1577ffffffffffffffffffffffffffffffffffffffffffffffffffffffffffffffffc9160a0833601126112ae57610f30611717565b92610f3961173f565b9367ffffffffffffffff936044358581116112aa57610f5b90369083016119c5565b906064358681116112a657610f7390369083016119c5565b956084359081116112a657610f8b9036908301611a23565b9373ffffffffffffffffffffffffffffffffffffffff809416933385148015611287575b610fb890611ccc565b835188510361120457881694610fcf861515611d57565b895b8a85518210156110555790896110498a61105094610ffa85610ff3818d611c89565b5195611c89565b51938082526020908282528383208d84528252858d858520549061102083831015611de2565b838652858552868620908652845203848420558252818152828220908d83525220918254611e6d565b9055611c2d565b610fd1565b50509094939596929197848789518a81527f4a39dc06d4c0dbc64b70af90fd698a233a518aa5d07e595d983b8c0526c8f7fb6110938c830188611abc565b918083036020820152806110a833948b611abc565b0390a43b6110b4578880f35b865194859384937fbc197c810000000000000000000000000000000000000000000000000000000098898652338c87015260248601526044850160a0905260a485016110ff91611abc565b8285820301606486015261111291611abc565b90838203016084840152611125916118ea565b0381885a94602095f18591816111e4575b506111b65750506001611147611eb2565b6308c379a014611165575b6103d25750505b38808080808080808880f35b61116d611ed0565b806111785750611152565b905061045e9160209450519384937f08c379a000000000000000000000000000000000000000000000000000000000855284015260248301906118ea565b7fffffffff0000000000000000000000000000000000000000000000000000000016036104df575050611159565b6111fd91925060203d81116105935761058481836117b5565b9038611136565b60848360208951917f08c379a0000000000000000000000000000000000000000000000000000000008352820152602860248201527f455243313135353a2069647320616e6420616d6f756e7473206c656e6774682060448201527f6d69736d617463680000000000000000000000000000000000000000000000006064820152fd5b50848a5260016020908152878b20338c529052868a205460ff16610faf565b8880fd5b8780fd5b8380fd5b50346101f157817ffffffffffffffffffffffffffffffffffffffffffffffffffffffffffffffffc3601126101f15780359167ffffffffffffffff9060243582811161157d573660238201121561157d576113169036906024818701359101611948565b9261131f611af0565b84865260209281845261133483882054611762565b611521578587528184528287209185519182116114f557506113568254611762565b601f81116114b2575b5083601f82116001146113ef5791817f6bb7ff708619ba0610cba295a58592e0451dee2622938c8755667688daf3529b969594926113de948a916113e4575b507fffffffffffffffffffffffffffffffffffffffffffffffffffffffffffffffff8260011b9260031b1c19161790555b519282849384528301906118ea565b0390a280f35b90508601513861139e565b828852848820907fffffffffffffffffffffffffffffffffffffffffffffffffffffffffffffffe08316895b81811061149b5750926113de9492600192827f6bb7ff708619ba0610cba295a58592e0451dee2622938c8755667688daf3529b9a99989610611464575b5050811b0190556113cf565b8801517fffffffffffffffffffffffffffffffffffffffffffffffffffffffffffffffff60f88460031b161c191690553880611458565b91928760018192868c01518155019401920161141b565b828852848820601f830160051c8101918684106114eb575b601f0160051c01905b8181106114e0575061135f565b8881556001016114d3565b90915081906114ca565b8760416024927f4e487b7100000000000000000000000000000000000000000000000000000000835252fd5b508260649251917f08c379a0000000000000000000000000000000000000000000000000000000008352820152600f60248201527f75726920616c72656164792073657400000000000000000000000000000000006044820152fd5b8580fd5b50346101f15760207ffffffffffffffffffffffffffffffffffffffffffffffffffffffffffffffffc3601126101f15781610e6f93826115c79335825260205220611825565b90519182916020835260208301906118ea565b50346101f15760207ffffffffffffffffffffffffffffffffffffffffffffffffffffffffffffffffc3601126101f15735907fffffffff0000000000000000000000000000000000000000000000000000000082168092036101f157602092507fd9b67a2600000000000000000000000000000000000000000000000000000000821491821561169f575b8215611675575b50519015158152f35b7f01ffc9a7000000000000000000000000000000000000000000000000000000001491503861166c565b7f0e89341c0000000000000000000000000000000000000000000000000000000081149250611665565b50503461063657807ffffffffffffffffffffffffffffffffffffffffffffffffffffffffffffffffc36011261063657602090611710611707611717565b60243590611b6f565b9051908152f35b6004359073ffffffffffffffffffffffffffffffffffffffff8216820361173a57565b600080fd5b6024359073ffffffffffffffffffffffffffffffffffffffff8216820361173a57565b90600182811c921680156117ab575b602083101461177c57565b7f4e487b7100000000000000000000000000000000000000000000000000000000600052602260045260246000fd5b91607f1691611771565b90601f7fffffffffffffffffffffffffffffffffffffffffffffffffffffffffffffffe0910116810190811067ffffffffffffffff8211176117f657604052565b7f4e487b7100000000000000000000000000000000000000000000000000000000600052604160045260246000fd5b906040519182600082549261183984611762565b9081845260019485811690816000146118a85750600114611865575b5050611863925003836117b5565b565b9093915060005260209081600020936000915b81831061189057505061186393508201013880611855565b85548884018501529485019487945091830191611878565b90506118639550602093507fffffffffffffffffffffffffffffffffffffffffffffffffffffffffffffff0091501682840152151560051b8201013880611855565b919082519283825260005b8481106119345750507fffffffffffffffffffffffffffffffffffffffffffffffffffffffffffffffe0601f8460006020809697860101520116010190565b6020818301810151848301820152016118f5565b92919267ffffffffffffffff82116117f6576040519161199060207fffffffffffffffffffffffffffffffffffffffffffffffffffffffffffffffe0601f84011601846117b5565b82948184528183011161173a578281602093846000960137010152565b67ffffffffffffffff81116117f65760051b60200190565b81601f8201121561173a578035916119dc836119ad565b926119ea60405194856117b5565b808452602092838086019260051b82010192831161173a578301905b828210611a14575050505090565b81358152908301908301611a06565b9080601f8301121561173a57816020611a3e93359101611948565b90565b81601f8201121561173a57803591611a58836119ad565b92611a6660405194856117b5565b808452602092838086019260051b82010192831161173a578301905b828210611a90575050505090565b813573ffffffffffffffffffffffffffffffffffffffff8116810361173a578152908301908301611a82565b90815180825260208080930193019160005b828110611adc575050505090565b835185529381019392810192600101611ace565b73ffffffffffffffffffffffffffffffffffffffff600354163303611b1157565b60646040517f08c379a000000000000000000000000000000000000000000000000000000000815260206004820152602060248201527f4f776e61626c653a2063616c6c6572206973206e6f7420746865206f776e65726044820152fd5b73ffffffffffffffffffffffffffffffffffffffff16908115611ba957600052600060205260406000209060005260205260406000205490565b60846040517f08c379a000000000000000000000000000000000000000000000000000000000815260206004820152602a60248201527f455243313135353a2061646472657373207a65726f206973206e6f742061207660448201527f616c6964206f776e6572000000000000000000000000000000000000000000006064820152fd5b7fffffffffffffffffffffffffffffffffffffffffffffffffffffffffffffffff8114611c5a5760010190565b7f4e487b7100000000000000000000000000000000000000000000000000000000600052601160045260246000fd5b8051821015611c9d5760209160051b010190565b7f4e487b7100000000000000000000000000000000000000000000000000000000600052603260045260246000fd5b15611cd357565b60846040517f08c379a000000000000000000000000000000000000000000000000000000000815260206004820152602f60248201527f455243313135353a2063616c6c6572206973206e6f7420746f6b656e206f776e60448201527f6572206e6f7220617070726f76656400000000000000000000000000000000006064820152fd5b15611d5e57565b60846040517f08c379a000000000000000000000000000000000000000000000000000000000815260206004820152602560248201527f455243313135353a207472616e7366657220746f20746865207a65726f20616460448201527f64726573730000000000000000000000000000000000000000000000000000006064820152fd5b15611de957565b60846040517f08c379a000000000000000000000000000000000000000000000000000000000815260206004820152602a60248201527f455243313135353a20696e73756666696369656e742062616c616e636520666f60448201527f72207472616e73666572000000000000000000000000000000000000000000006064820152fd5b91908201809211611c5a57565b9081602091031261173a57517fffffffff000000000000000000000000000000000000000000000000000000008116810361173a5790565b60009060033d11611ebf57565b905060046000803e60005160e01c90565b600060443d10611a3e576040517ffffffffffffffffffffffffffffffffffffffffffffffffffffffffffffffffc91823d016004833e815167ffffffffffffffff918282113d602484011117611f4c57818401948551938411611f54573d85010160208487010111611f4c5750611a3e929101602001906117b5565b949350505050565b50949350505050565b604051906040820182811067ffffffffffffffff8211176117f65760405260018252602082016020368237825115611c9d57529056fea26469706673582212204649af28b2218246749413731aaab257fc72268b5a9c227716987edfd17c6b3e64736f6c63430008120033",
  "devdoc": {
    "events": {
      "ApprovalForAll(address,address,bool)": {
        "details": "Emitted when `account` grants or revokes permission to `operator` to transfer their tokens, according to `approved`."
      },
      "TransferBatch(address,address,address,uint256[],uint256[])": {
        "details": "Equivalent to multiple {TransferSingle} events, where `operator`, `from` and `to` are the same for all transfers."
      },
      "TransferSingle(address,address,address,uint256,uint256)": {
        "details": "Emitted when `value` tokens of token type `id` are transferred from `from` to `to` by `operator`."
      },
      "URI(string,uint256)": {
        "details": "Emitted when the URI for token type `id` changes to `value`, if it is a non-programmatic URI. If an {URI} event was emitted for `id`, the standard https://eips.ethereum.org/EIPS/eip-1155#metadata-extensions[guarantees] that `value` will equal the value returned by {IERC1155MetadataURI-uri}."
      }
    },
    "kind": "dev",
    "methods": {
      "airdrop(uint256,address[],uint256)": {
        "details": "Call might run out of gas if `recipients` arg too long. Might need to chunk up the list.",
        "params": {
          "amount": "Amount of token types to airdrop.",
          "recipients": "List of airdrop recipients.",
          "tokenId": "Token type to airdrop."
        }
      },
      "balanceOf(address,uint256)": {
        "details": "See {IERC1155-balanceOf}. Requirements: - `account` cannot be the zero address."
      },
      "balanceOfBatch(address[],uint256[])": {
        "details": "See {IERC1155-balanceOfBatch}. Requirements: - `accounts` and `ids` must have the same length."
      },
      "isApprovedForAll(address,address)": {
        "details": "See {IERC1155-isApprovedForAll}."
      },
      "owner()": {
        "details": "Returns the address of the current owner."
      },
      "renounceOwnership()": {
        "details": "Leaves the contract without owner. It will not be possible to call `onlyOwner` functions anymore. Can only be called by the current owner. NOTE: Renouncing ownership will leave the contract without an owner, thereby removing any functionality that is only available to the owner."
      },
      "safeBatchTransferFrom(address,address,uint256[],uint256[],bytes)": {
        "details": "See {IERC1155-safeBatchTransferFrom}."
      },
      "safeTransferFrom(address,address,uint256,uint256,bytes)": {
        "details": "See {IERC1155-safeTransferFrom}."
      },
      "setApprovalForAll(address,bool)": {
        "details": "See {IERC1155-setApprovalForAll}."
      },
      "setTokenURI(uint256,string)": {
        "params": {
          "tokenId": "Token type to set `tokenURI` for.",
          "tokenURI": "URI of token metadata."
        }
      },
      "supportsInterface(bytes4)": {
        "details": "See {IERC165-supportsInterface}."
      },
      "transferOwnership(address)": {
        "details": "Transfers ownership of the contract to a new account (`newOwner`). Can only be called by the current owner."
      },
      "uri(uint256)": {
        "details": "Instead of returning the same URI for *all* token types, we return the uri set by `setTokenURI` to allow IPFS URIs for all token types.",
        "params": {
          "tokenId": "Token type to retrieve metadata URI for."
        }
      }
    },
    "version": 1
  },
  "userdoc": {
    "kind": "user",
    "methods": {
      "airdrop(uint256,address[],uint256)": {
        "notice": "Creates `amount` new tokens for `recipients` of token type `tokenId`."
      },
      "setTokenURI(uint256,string)": {
        "notice": "Sets the URI for token of type `tokenId` to `tokenURI`."
      },
      "uri(uint256)": {
        "notice": "Returns metadata URI of token type `tokenId`."
      }
    },
    "version": 1
  },
  "storageLayout": {
    "storage": [
      {
        "astId": 138,
        "contract": "contracts/erc1155/MintableERC1155.sol:MintableERC1155",
        "label": "_balances",
        "offset": 0,
        "slot": "0",
        "type": "t_mapping(t_uint256,t_mapping(t_address,t_uint256))"
      },
      {
        "astId": 144,
        "contract": "contracts/erc1155/MintableERC1155.sol:MintableERC1155",
        "label": "_operatorApprovals",
        "offset": 0,
        "slot": "1",
        "type": "t_mapping(t_address,t_mapping(t_address,t_bool))"
      },
      {
        "astId": 146,
        "contract": "contracts/erc1155/MintableERC1155.sol:MintableERC1155",
        "label": "_uri",
        "offset": 0,
        "slot": "2",
        "type": "t_string_storage"
      },
      {
        "astId": 7,
        "contract": "contracts/erc1155/MintableERC1155.sol:MintableERC1155",
        "label": "_owner",
        "offset": 0,
        "slot": "3",
        "type": "t_address"
      },
      {
        "astId": 1878,
        "contract": "contracts/erc1155/MintableERC1155.sol:MintableERC1155",
        "label": "_tokenURIs",
        "offset": 0,
        "slot": "4",
        "type": "t_mapping(t_uint256,t_string_storage)"
      }
    ],
    "types": {
      "t_address": {
        "encoding": "inplace",
        "label": "address",
        "numberOfBytes": "20"
      },
      "t_bool": {
        "encoding": "inplace",
        "label": "bool",
        "numberOfBytes": "1"
      },
      "t_mapping(t_address,t_bool)": {
        "encoding": "mapping",
        "key": "t_address",
        "label": "mapping(address => bool)",
        "numberOfBytes": "32",
        "value": "t_bool"
      },
      "t_mapping(t_address,t_mapping(t_address,t_bool))": {
        "encoding": "mapping",
        "key": "t_address",
        "label": "mapping(address => mapping(address => bool))",
        "numberOfBytes": "32",
        "value": "t_mapping(t_address,t_bool)"
      },
      "t_mapping(t_address,t_uint256)": {
        "encoding": "mapping",
        "key": "t_address",
        "label": "mapping(address => uint256)",
        "numberOfBytes": "32",
        "value": "t_uint256"
      },
      "t_mapping(t_uint256,t_mapping(t_address,t_uint256))": {
        "encoding": "mapping",
        "key": "t_uint256",
        "label": "mapping(uint256 => mapping(address => uint256))",
        "numberOfBytes": "32",
        "value": "t_mapping(t_address,t_uint256)"
      },
      "t_mapping(t_uint256,t_string_storage)": {
        "encoding": "mapping",
        "key": "t_uint256",
        "label": "mapping(uint256 => string)",
        "numberOfBytes": "32",
        "value": "t_string_storage"
      },
      "t_string_storage": {
        "encoding": "bytes",
        "label": "string",
        "numberOfBytes": "32"
      },
      "t_uint256": {
        "encoding": "inplace",
        "label": "uint256",
        "numberOfBytes": "32"
      }
    }
  }
}