{
  "address": "0x17496824Ba574A4e9De80110A91207c4c63e552a",
  "abi": [
    {
      "inputs": [],
      "stateMutability": "nonpayable",
      "type": "constructor"
    },
    {
      "anonymous": false,
      "inputs": [
        {
          "indexed": false,
          "internalType": "address",
          "name": "caller",
          "type": "address"
        },
        {
          "indexed": false,
          "internalType": "uint256",
          "name": "tokenId",
          "type": "uint256"
        },
        {
          "indexed": false,
          "internalType": "address[]",
          "name": "recipients",
          "type": "address[]"
        },
        {
          "indexed": false,
          "internalType": "uint256[]",
          "name": "amounts",
          "type": "uint256[]"
        }
      ],
      "name": "Airdrop",
      "type": "event"
    },
    {
      "anonymous": false,
      "inputs": [
        {
          "indexed": true,
          "internalType": "address",
          "name": "account",
          "type": "address"
        },
        {
          "indexed": true,
          "internalType": "address",
          "name": "operator",
          "type": "address"
        },
        {
          "indexed": false,
          "internalType": "bool",
          "name": "approved",
          "type": "bool"
        }
      ],
      "name": "ApprovalForAll",
      "type": "event"
    },
    {
      "anonymous": false,
      "inputs": [
        {
          "indexed": false,
          "internalType": "address",
          "name": "account",
          "type": "address"
        }
      ],
      "name": "Paused",
      "type": "event"
    },
    {
      "anonymous": false,
      "inputs": [
        {
          "indexed": true,
          "internalType": "bytes32",
          "name": "role",
          "type": "bytes32"
        },
        {
          "indexed": true,
          "internalType": "bytes32",
          "name": "previousAdminRole",
          "type": "bytes32"
        },
        {
          "indexed": true,
          "internalType": "bytes32",
          "name": "newAdminRole",
          "type": "bytes32"
        }
      ],
      "name": "RoleAdminChanged",
      "type": "event"
    },
    {
      "anonymous": false,
      "inputs": [
        {
          "indexed": true,
          "internalType": "bytes32",
          "name": "role",
          "type": "bytes32"
        },
        {
          "indexed": true,
          "internalType": "address",
          "name": "account",
          "type": "address"
        },
        {
          "indexed": true,
          "internalType": "address",
          "name": "sender",
          "type": "address"
        }
      ],
      "name": "RoleGranted",
      "type": "event"
    },
    {
      "anonymous": false,
      "inputs": [
        {
          "indexed": true,
          "internalType": "bytes32",
          "name": "role",
          "type": "bytes32"
        },
        {
          "indexed": true,
          "internalType": "address",
          "name": "account",
          "type": "address"
        },
        {
          "indexed": true,
          "internalType": "address",
          "name": "sender",
          "type": "address"
        }
      ],
      "name": "RoleRevoked",
      "type": "event"
    },
    {
      "anonymous": false,
      "inputs": [
        {
          "indexed": true,
          "internalType": "address",
          "name": "operator",
          "type": "address"
        },
        {
          "indexed": true,
          "internalType": "address",
          "name": "from",
          "type": "address"
        },
        {
          "indexed": true,
          "internalType": "address",
          "name": "to",
          "type": "address"
        },
        {
          "indexed": false,
          "internalType": "uint256[]",
          "name": "ids",
          "type": "uint256[]"
        },
        {
          "indexed": false,
          "internalType": "uint256[]",
          "name": "values",
          "type": "uint256[]"
        }
      ],
      "name": "TransferBatch",
      "type": "event"
    },
    {
      "anonymous": false,
      "inputs": [
        {
          "indexed": true,
          "internalType": "address",
          "name": "operator",
          "type": "address"
        },
        {
          "indexed": true,
          "internalType": "address",
          "name": "from",
          "type": "address"
        },
        {
          "indexed": true,
          "internalType": "address",
          "name": "to",
          "type": "address"
        },
        {
          "indexed": false,
          "internalType": "uint256",
          "name": "id",
          "type": "uint256"
        },
        {
          "indexed": false,
          "internalType": "uint256",
          "name": "value",
          "type": "uint256"
        }
      ],
      "name": "TransferSingle",
      "type": "event"
    },
    {
      "anonymous": false,
      "inputs": [
        {
          "indexed": false,
          "internalType": "string",
          "name": "value",
          "type": "string"
        },
        {
          "indexed": true,
          "internalType": "uint256",
          "name": "id",
          "type": "uint256"
        }
      ],
      "name": "URI",
      "type": "event"
    },
    {
      "anonymous": false,
      "inputs": [
        {
          "indexed": false,
          "internalType": "address",
          "name": "account",
          "type": "address"
        }
      ],
      "name": "Unpaused",
      "type": "event"
    },
    {
      "inputs": [],
      "name": "DEFAULT_ADMIN_ROLE",
      "outputs": [
        {
          "internalType": "bytes32",
          "name": "",
          "type": "bytes32"
        }
      ],
      "stateMutability": "view",
      "type": "function"
    },
    {
      "inputs": [],
      "name": "MINTER_ROLE",
      "outputs": [
        {
          "internalType": "bytes32",
          "name": "",
          "type": "bytes32"
        }
      ],
      "stateMutability": "view",
      "type": "function"
    },
    {
      "inputs": [],
      "name": "PAUSER_ROLE",
      "outputs": [
        {
          "internalType": "bytes32",
          "name": "",
          "type": "bytes32"
        }
      ],
      "stateMutability": "view",
      "type": "function"
    },
    {
      "inputs": [
        {
          "internalType": "uint256",
          "name": "",
          "type": "uint256"
        }
      ],
      "name": "_tokenURIs",
      "outputs": [
        {
          "internalType": "string",
          "name": "",
          "type": "string"
        }
      ],
      "stateMutability": "view",
      "type": "function"
    },
    {
      "inputs": [
        {
          "internalType": "uint256",
          "name": "tokenId",
          "type": "uint256"
        },
        {
          "internalType": "address[]",
          "name": "recipients",
          "type": "address[]"
        },
        {
          "internalType": "uint256[]",
          "name": "amounts",
          "type": "uint256[]"
        }
      ],
      "name": "airdrop",
      "outputs": [],
      "stateMutability": "nonpayable",
      "type": "function"
    },
    {
      "inputs": [
        {
          "internalType": "address",
          "name": "account",
          "type": "address"
        },
        {
          "internalType": "uint256",
          "name": "id",
          "type": "uint256"
        }
      ],
      "name": "balanceOf",
      "outputs": [
        {
          "internalType": "uint256",
          "name": "",
          "type": "uint256"
        }
      ],
      "stateMutability": "view",
      "type": "function"
    },
    {
      "inputs": [
        {
          "internalType": "address[]",
          "name": "accounts",
          "type": "address[]"
        },
        {
          "internalType": "uint256[]",
          "name": "ids",
          "type": "uint256[]"
        }
      ],
      "name": "balanceOfBatch",
      "outputs": [
        {
          "internalType": "uint256[]",
          "name": "",
          "type": "uint256[]"
        }
      ],
      "stateMutability": "view",
      "type": "function"
    },
    {
      "inputs": [
        {
          "internalType": "address",
          "name": "account",
          "type": "address"
        },
        {
          "internalType": "uint256",
          "name": "id",
          "type": "uint256"
        },
        {
          "internalType": "uint256",
          "name": "value",
          "type": "uint256"
        }
      ],
      "name": "burn",
      "outputs": [],
      "stateMutability": "nonpayable",
      "type": "function"
    },
    {
      "inputs": [
        {
          "internalType": "address",
          "name": "account",
          "type": "address"
        },
        {
          "internalType": "uint256[]",
          "name": "ids",
          "type": "uint256[]"
        },
        {
          "internalType": "uint256[]",
          "name": "values",
          "type": "uint256[]"
        }
      ],
      "name": "burnBatch",
      "outputs": [],
      "stateMutability": "nonpayable",
      "type": "function"
    },
    {
      "inputs": [
        {
          "internalType": "bytes32",
          "name": "role",
          "type": "bytes32"
        }
      ],
      "name": "getRoleAdmin",
      "outputs": [
        {
          "internalType": "bytes32",
          "name": "",
          "type": "bytes32"
        }
      ],
      "stateMutability": "view",
      "type": "function"
    },
    {
      "inputs": [
        {
          "internalType": "bytes32",
          "name": "role",
          "type": "bytes32"
        },
        {
          "internalType": "uint256",
          "name": "index",
          "type": "uint256"
        }
      ],
      "name": "getRoleMember",
      "outputs": [
        {
          "internalType": "address",
          "name": "",
          "type": "address"
        }
      ],
      "stateMutability": "view",
      "type": "function"
    },
    {
      "inputs": [
        {
          "internalType": "bytes32",
          "name": "role",
          "type": "bytes32"
        }
      ],
      "name": "getRoleMemberCount",
      "outputs": [
        {
          "internalType": "uint256",
          "name": "",
          "type": "uint256"
        }
      ],
      "stateMutability": "view",
      "type": "function"
    },
    {
      "inputs": [
        {
          "internalType": "bytes32",
          "name": "role",
          "type": "bytes32"
        },
        {
          "internalType": "address",
          "name": "account",
          "type": "address"
        }
      ],
      "name": "grantRole",
      "outputs": [],
      "stateMutability": "nonpayable",
      "type": "function"
    },
    {
      "inputs": [
        {
          "internalType": "bytes32",
          "name": "role",
          "type": "bytes32"
        },
        {
          "internalType": "address",
          "name": "account",
          "type": "address"
        }
      ],
      "name": "hasRole",
      "outputs": [
        {
          "internalType": "bool",
          "name": "",
          "type": "bool"
        }
      ],
      "stateMutability": "view",
      "type": "function"
    },
    {
      "inputs": [
        {
          "internalType": "address",
          "name": "account",
          "type": "address"
        },
        {
          "internalType": "address",
          "name": "operator",
          "type": "address"
        }
      ],
      "name": "isApprovedForAll",
      "outputs": [
        {
          "internalType": "bool",
          "name": "",
          "type": "bool"
        }
      ],
      "stateMutability": "view",
      "type": "function"
    },
    {
      "inputs": [
        {
          "internalType": "address",
          "name": "to",
          "type": "address"
        },
        {
          "internalType": "uint256",
          "name": "id",
          "type": "uint256"
        },
        {
          "internalType": "uint256",
          "name": "amount",
          "type": "uint256"
        },
        {
          "internalType": "bytes",
          "name": "data",
          "type": "bytes"
        }
      ],
      "name": "mint",
      "outputs": [],
      "stateMutability": "nonpayable",
      "type": "function"
    },
    {
      "inputs": [
        {
          "internalType": "address",
          "name": "to",
          "type": "address"
        },
        {
          "internalType": "uint256[]",
          "name": "ids",
          "type": "uint256[]"
        },
        {
          "internalType": "uint256[]",
          "name": "amounts",
          "type": "uint256[]"
        },
        {
          "internalType": "bytes",
          "name": "data",
          "type": "bytes"
        }
      ],
      "name": "mintBatch",
      "outputs": [],
      "stateMutability": "nonpayable",
      "type": "function"
    },
    {
      "inputs": [],
      "name": "pause",
      "outputs": [],
      "stateMutability": "nonpayable",
      "type": "function"
    },
    {
      "inputs": [],
      "name": "paused",
      "outputs": [
        {
          "internalType": "bool",
          "name": "",
          "type": "bool"
        }
      ],
      "stateMutability": "view",
      "type": "function"
    },
    {
      "inputs": [
        {
          "internalType": "bytes32",
          "name": "role",
          "type": "bytes32"
        },
        {
          "internalType": "address",
          "name": "account",
          "type": "address"
        }
      ],
      "name": "renounceRole",
      "outputs": [],
      "stateMutability": "nonpayable",
      "type": "function"
    },
    {
      "inputs": [
        {
          "internalType": "bytes32",
          "name": "role",
          "type": "bytes32"
        },
        {
          "internalType": "address",
          "name": "account",
          "type": "address"
        }
      ],
      "name": "revokeRole",
      "outputs": [],
      "stateMutability": "nonpayable",
      "type": "function"
    },
    {
      "inputs": [
        {
          "internalType": "address",
          "name": "from",
          "type": "address"
        },
        {
          "internalType": "address",
          "name": "to",
          "type": "address"
        },
        {
          "internalType": "uint256[]",
          "name": "ids",
          "type": "uint256[]"
        },
        {
          "internalType": "uint256[]",
          "name": "amounts",
          "type": "uint256[]"
        },
        {
          "internalType": "bytes",
          "name": "data",
          "type": "bytes"
        }
      ],
      "name": "safeBatchTransferFrom",
      "outputs": [],
      "stateMutability": "nonpayable",
      "type": "function"
    },
    {
      "inputs": [
        {
          "internalType": "address",
          "name": "from",
          "type": "address"
        },
        {
          "internalType": "address",
          "name": "to",
          "type": "address"
        },
        {
          "internalType": "uint256",
          "name": "id",
          "type": "uint256"
        },
        {
          "internalType": "uint256",
          "name": "amount",
          "type": "uint256"
        },
        {
          "internalType": "bytes",
          "name": "data",
          "type": "bytes"
        }
      ],
      "name": "safeTransferFrom",
      "outputs": [],
      "stateMutability": "nonpayable",
      "type": "function"
    },
    {
      "inputs": [
        {
          "internalType": "address",
          "name": "operator",
          "type": "address"
        },
        {
          "internalType": "bool",
          "name": "approved",
          "type": "bool"
        }
      ],
      "name": "setApprovalForAll",
      "outputs": [],
      "stateMutability": "nonpayable",
      "type": "function"
    },
    {
      "inputs": [
        {
          "internalType": "uint256",
          "name": "tokenId",
          "type": "uint256"
        },
        {
          "internalType": "string",
          "name": "tokenURI",
          "type": "string"
        }
      ],
      "name": "setTokenURI",
      "outputs": [],
      "stateMutability": "nonpayable",
      "type": "function"
    },
    {
      "inputs": [
        {
          "internalType": "bytes4",
          "name": "interfaceId",
          "type": "bytes4"
        }
      ],
      "name": "supportsInterface",
      "outputs": [
        {
          "internalType": "bool",
          "name": "",
          "type": "bool"
        }
      ],
      "stateMutability": "view",
      "type": "function"
    },
    {
      "inputs": [],
      "name": "unpause",
      "outputs": [],
      "stateMutability": "nonpayable",
      "type": "function"
    },
    {
      "inputs": [
        {
          "internalType": "uint256",
          "name": "tokenId",
          "type": "uint256"
        }
      ],
      "name": "uri",
      "outputs": [
        {
          "internalType": "string",
          "name": "",
          "type": "string"
        }
      ],
      "stateMutability": "view",
      "type": "function"
    }
  ],
  "transactionHash": "0x7682929aee1cc95faaa095b4f7360094f0b204300a139de6bbee9a5064e5187b",
  "args": [],
  "numDeployments": 1,
  "solcInputHash": "c0d608dcade73b41bfb146ca48293092",
  "bytecode": "0x6080346200024857602090808201906001600160401b03821181831017620002325760409182526000809152600454926001938481811c9116801562000227575b828210146200021357601f8111620001e7575b50926200013892938260045560ff198060055416600555838052838252858420338552825260ff868520541615620001b2575b8380528282526200009a338786206200024d565b507f9f2df0fed2c77648de5860a4cc508cd0818c85b8b8a1ab4ceeef8d981c8956a6808552848352868520338652835260ff8786205416156200017d575b8452828252620000eb338786206200024d565b507f65d7a28e3265b37a6474929f336521b332c1681b933f6cb9f3376673440d862a90818552848352868520338652835260ff87862054161562000147575b50835252823391206200024d565b50516139869081620002db8239f35b8185528483528685203386528352838786209182541617905533338260008051602062003c618339815191528780a4386200012a565b8085528483528685203386528352868520848382541617905533338260008051602062003c618339815191528880a4620000d8565b8380528382528584203385528252858420838282541617905533338560008051602062003c618339815191528180a462000086565b60048352601f828420910160051c8101905b81811062000208575062000053565b8381558501620001f9565b634e487b7160e01b83526022600452602483fd5b90607f169062000040565b634e487b7160e01b600052604160045260246000fd5b600080fd5b91906001830160009082825280602052604082205415600014620002d45784549468010000000000000000861015620002c05760018601808255861015620002ac57836040949596828552602085200155549382526020522055600190565b634e487b7160e01b83526032600452602483fd5b634e487b7160e01b83526041600452602483fd5b5092505056fe6040608081526004908136101561001557600080fd5b600090813560e01c8062fdd58e146122d457806301ffc9a71461217b5780630bb78ec1146121205780630e89341c14612120578063162094c414611e735780631f7fdffa14611b43578063248a9ca314611afb5780632eb2c2d61461174c5780632f2ff15d1461164d57806336568abe146115695780633f4ba83a146113be5780634e1273f41461120c5780635c975abb146111cb5780636b20c45414610faf578063731133e914610f425780638456cb5914610d955780639010d07c14610d2857806391d1485414610cb8578063a217fddf14610c80578063a22cb46514610b2b578063ca15c87314610ae5578063d539139314610a8d578063d547741f14610a34578063d5516e7f14610845578063e63ab1e9146107ed578063e985e9c514610775578063f242432a146103135763f5298aca1461015457600080fd5b3461030f5760607ffffffffffffffffffffffffffffffffffffffffffffffffffffffffffffffffc36011261030f5761018b612321565b926024359373ffffffffffffffffffffffffffffffffffffffff60443591169133831480156102f0575b6101be90612df0565b6101c9831515613167565b6101d286613131565b506101dc82613131565b508484516101e9816123bf565b5260ff6005541661026d575061026a92918585928184526002602052848420838552602052808585205461021f828210156131f2565b83865260026020528686208587526020520385852055845191825260208201527fc3d58168c5ae7397731d063d5bbf3d657854427343f4c083240f7aacaa2d0f62843392a4516123bf565b80f35b60849060208551917f08c379a0000000000000000000000000000000000000000000000000000000008352820152602c60248201527f455243313135355061757361626c653a20746f6b656e207472616e736665722060448201527f7768696c652070617573656400000000000000000000000000000000000000006064820152fd5b508285526003602090815284862033875290528385205460ff166101b5565b5080fd5b508290346107715760a07ffffffffffffffffffffffffffffffffffffffffffffffffffffffffffffffffc3601126107715761034d612321565b610355612349565b906044359060643560843567ffffffffffffffff811161076d5761037c9036908801612651565b9273ffffffffffffffffffffffffffffffffffffffff80931692338414801561074e575b6103a990612df0565b8516906103b7821515612e7b565b6103c081613131565b506103ca83613131565b5060ff600554166106cb5790818995949392865260209660028852888720858852885283898820546103fe82821015612f06565b83895260028a528a8920878a528a52038988205581875260028852888720838852885288872061042f858254612f91565b905582858a51848152868b8201527fc3d58168c5ae7397731d063d5bbf3d657854427343f4c083240f7aacaa2d0f628c3392a43b61046b578580f35b889587946104c58a51978896879586947ff23a6e61000000000000000000000000000000000000000000000000000000009c8d8752339087015260248601526044850152606484015260a0608484015260a4830190612533565b03925af186918161069c575b506105e05750506001906104e3613086565b6308c379a014610593575b506105035750505b8180808381808080808580f35b61058f9250519182917f08c379a0000000000000000000000000000000000000000000000000000000008352820160809060208152603460208201527f455243313135353a207472616e7366657220746f206e6f6e204552433131353560408201527f526563656976657220696d706c656d656e74657200000000000000000000000060608201520190565b0390fd5b61059b6130a4565b806105a657506104ee565b61058f859185519384937f08c379a00000000000000000000000000000000000000000000000000000000085528401526024830190612533565b7fffffffff00000000000000000000000000000000000000000000000000000000160390506106105750506104f6565b61058f9250519182917f08c379a0000000000000000000000000000000000000000000000000000000008352820160809060208152602860208201527f455243313135353a204552433131353552656365697665722072656a6563746560408201527f6420746f6b656e7300000000000000000000000000000000000000000000000060608201520190565b6106bd919250843d86116106c4575b6106b5818361240a565b81019061304e565b90876104d1565b503d6106ab565b60848860208951917f08c379a0000000000000000000000000000000000000000000000000000000008352820152602c60248201527f455243313135355061757361626c653a20746f6b656e207472616e736665722060448201527f7768696c652070617573656400000000000000000000000000000000000000006064820152fd5b5083895260036020908152878a20338b5290528689205460ff166103a0565b8780fd5b8280fd5b503461030f57807ffffffffffffffffffffffffffffffffffffffffffffffffffffffffffffffffc36011261030f5760ff816020936107b2612321565b6107ba612349565b73ffffffffffffffffffffffffffffffffffffffff91821683526003875283832091168252855220549151911615158152f35b503461030f57817ffffffffffffffffffffffffffffffffffffffffffffffffffffffffffffffffc36011261030f57602090517f65d7a28e3265b37a6474929f336521b332c1681b933f6cb9f3376673440d862a8152f35b503461030f5760607ffffffffffffffffffffffffffffffffffffffffffffffffffffffffffffffffc36011261030f5782356024359367ffffffffffffffff94858111610a3057610899903690830161266f565b94604435908111610a30576108b190369083016125f3565b9085518251036109ad5750835b8551811015610919578061090f73ffffffffffffffffffffffffffffffffffffffff6108ed610914948a612dad565b51166108f98386612dad565b5186885192610907846123bf565b8a8452613307565b612d51565b6108be565b50908251926080808501913386526020938487015285015285518091528160a08501960191855b82811061098357867f9ad2d2c141cdfe925e66aad6d8dd32bf360ea28ce266bfd87e4e2bb76409fcee878061097d8c8a83820360608501526126ea565b0390a180f35b835173ffffffffffffffffffffffffffffffffffffffff1688529681019692810192600101610940565b60849060208551917f08c379a0000000000000000000000000000000000000000000000000000000008352820152603760248201527f4d696e7461626c65455243313135353a20726563697069656e747320616e642060448201527f616d6f756e7473206c656e677468206d69736d617463680000000000000000006064820152fd5b8480fd5b5082903461077157807ffffffffffffffffffffffffffffffffffffffffffffffffffffffffffffffffc3601126107715761026a9135610a886001610a77612349565b93838752866020528620015461271e565b612be0565b503461030f57817ffffffffffffffffffffffffffffffffffffffffffffffffffffffffffffffffc36011261030f57602090517f9f2df0fed2c77648de5860a4cc508cd0818c85b8b8a1ab4ceeef8d981c8956a68152f35b5082346107715760207ffffffffffffffffffffffffffffffffffffffffffffffffffffffffffffffffc3601126107715760209282913581526001845220549051908152f35b5082903461077157807ffffffffffffffffffffffffffffffffffffffffffffffffffffffffffffffffc36011261077157610b64612321565b9060243591821515809303610a305773ffffffffffffffffffffffffffffffffffffffff1692833314610bfe575033845260036020528084208385526020528084207fffffffffffffffffffffffffffffffffffffffffffffffffffffffffffffff0081541660ff8416179055519081527f17307eab39ab6107e8899845ad3d59bd9653f200f220920489ca2b5937696c3160203392a380f35b602060849251917f08c379a0000000000000000000000000000000000000000000000000000000008352820152602960248201527f455243313135353a2073657474696e6720617070726f76616c2073746174757360448201527f20666f722073656c6600000000000000000000000000000000000000000000006064820152fd5b503461030f57817ffffffffffffffffffffffffffffffffffffffffffffffffffffffffffffffffc36011261030f5751908152602090f35b50823461077157817ffffffffffffffffffffffffffffffffffffffffffffffffffffffffffffffffc360112610771578160209360ff92610cf7612349565b9035825281865273ffffffffffffffffffffffffffffffffffffffff83832091168252855220541690519015158152f35b50823461077157817ffffffffffffffffffffffffffffffffffffffffffffffffffffffffffffffffc36011261077157610d8660209373ffffffffffffffffffffffffffffffffffffffff923581526001855283602435912061374b565b92905490519260031b1c168152f35b50823461077157827ffffffffffffffffffffffffffffffffffffffffffffffffffffffffffffffffc360112610771577f65d7a28e3265b37a6474929f336521b332c1681b933f6cb9f3376673440d862a83528260205281832033845260205260ff828420541615610ec0576005549060ff8216610e6357507f62e78cea01bee320cd4e420270b5ea74000d11b0c9f74754ebdbfc544b05a2589160017fffffffffffffffffffffffffffffffffffffffffffffffffffffffffffffff00602093161760055551338152a180f35b60649060208451917f08c379a0000000000000000000000000000000000000000000000000000000008352820152601060248201527f5061757361626c653a20706175736564000000000000000000000000000000006044820152fd5b602060849251917f08c379a0000000000000000000000000000000000000000000000000000000008352820152603960248201527f455243313135355072657365744d696e7465725061757365723a206d7573742060448201527f686176652070617573657220726f6c6520746f207061757365000000000000006064820152fd5b82843461030f5760807ffffffffffffffffffffffffffffffffffffffffffffffffffffffffffffffffc36011261030f57610f7b612321565b60643567ffffffffffffffff8111610fab5761026a92610f9d91369101612651565b906044359060243590613307565b8380fd5b509190346111c85760607ffffffffffffffffffffffffffffffffffffffffffffffffffffffffffffffffc3601126111c857610fe9612321565b9267ffffffffffffffff92602435848111610fab5761100b90369083016125f3565b93604435908111610fab5761103873ffffffffffffffffffffffffffffffffffffffff91369084016125f3565b95169033821480156111a9575b61104e90612df0565b611059821515613167565b6110668551875114612f9e565b838351611072816123bf565b5260ff600554166111265750825b84518110156110e357806110976110de9287612dad565b516110a28289612dad565b51908087526002602090808252878920878a52825287892054926110c8858510156131f2565b8952815286882090868952520384862055612d51565b611080565b509161026a9281947f4a39dc06d4c0dbc64b70af90fd698a233a518aa5d07e595d983b8c0526c8f7fb61111d888651918291339583613029565b0390a4516123bf565b60849060208451917f08c379a0000000000000000000000000000000000000000000000000000000008352820152602c60248201527f455243313135355061757361626c653a20746f6b656e207472616e736665722060448201527f7768696c652070617573656400000000000000000000000000000000000000006064820152fd5b508184526003602090815283852033865290528284205460ff16611045565b80fd5b503461030f57817ffffffffffffffffffffffffffffffffffffffffffffffffffffffffffffffffc36011261030f5760209060ff6005541690519015158152f35b5090346111c857817ffffffffffffffffffffffffffffffffffffffffffffffffffffffffffffffffc3601126111c85767ffffffffffffffff83358181116107715761125b903690860161266f565b906024359081116107715761127390369086016125f3565b93815185510361133b57508051917fffffffffffffffffffffffffffffffffffffffffffffffffffffffffffffffe06112c36112ae856125db565b946112bb8751968761240a565b8086526125db565b013660208501375b8151811015611322578061130d73ffffffffffffffffffffffffffffffffffffffff6112fa61131d9486612dad565b51166113068389612dad565b5190612c93565b6113178286612dad565b52612d51565b6112cb565b835160208082528190611337908201866126ea565b0390f35b60849060208551917f08c379a0000000000000000000000000000000000000000000000000000000008352820152602960248201527f455243313135353a206163636f756e747320616e6420696473206c656e67746860448201527f206d69736d6174636800000000000000000000000000000000000000000000006064820152fd5b50823461077157827ffffffffffffffffffffffffffffffffffffffffffffffffffffffffffffffffc360112610771577f65d7a28e3265b37a6474929f336521b332c1681b933f6cb9f3376673440d862a83528260205281832033845260205260ff8284205416156114e7576005549060ff82161561148a57507f5db9ee0a495bf2e6ff9c91a7834c1ba4fdd244a5e8aa4e537bd38aeae4b073aa917fffffffffffffffffffffffffffffffffffffffffffffffffffffffffffffff006020921660055551338152a180f35b60649060208451917f08c379a0000000000000000000000000000000000000000000000000000000008352820152601460248201527f5061757361626c653a206e6f74207061757365640000000000000000000000006044820152fd5b602060849251917f08c379a0000000000000000000000000000000000000000000000000000000008352820152603b60248201527f455243313135355072657365744d696e7465725061757365723a206d7573742060448201527f686176652070617573657220726f6c6520746f20756e706175736500000000006064820152fd5b50913461030f57827ffffffffffffffffffffffffffffffffffffffffffffffffffffffffffffffffc36011261030f576115a1612349565b903373ffffffffffffffffffffffffffffffffffffffff8316036115ca579061026a9135612be0565b60849060208551917f08c379a0000000000000000000000000000000000000000000000000000000008352820152602f60248201527f416363657373436f6e74726f6c3a2063616e206f6e6c792072656e6f756e636560448201527f20726f6c657320666f722073656c6600000000000000000000000000000000006064820152fd5b5082903461077157807ffffffffffffffffffffffffffffffffffffffffffffffffffffffffffffffffc360112610771576116e3913590600161168e612349565b928086526020908682526116a683858920015461271e565b80875286825273ffffffffffffffffffffffffffffffffffffffff848820951694858852825260ff8488205416156116e7575b8652528320613763565b5080f35b8087528682528387208588528252838720837fffffffffffffffffffffffffffffffffffffffffffffffffffffffffffffff008254161790553385827f2f8788117e7eff1d82e926ec794901d17c78024a50270940304540a733656f0d8a80a46116d9565b508234610771577ffffffffffffffffffffffffffffffffffffffffffffffffffffffffffffffffc9160a083360112610fab57611787612321565b92611790612349565b9367ffffffffffffffff9360443585811161076d576117b290369083016125f3565b90606435868111611af7576117ca90369083016125f3565b95608435908111611af7576117e29036908301612651565b9373ffffffffffffffffffffffffffffffffffffffff809416933385148015611ad8575b61180f90612df0565b61181c8451895114612f9e565b88169461182a861515612e7b565b60ff60055416611a5557895b8a85518210156118bc5790896118b08a6118b7948a61186086611859818e612dad565b5196612dad565b5194808352600290866020938385528686208187528552868620549061188883831015612f06565b8387528486528787209087528552038585205583528152828220908d83525220918254612f91565b9055612d51565b611836565b50509094939596929197848789517f4a39dc06d4c0dbc64b70af90fd698a233a518aa5d07e595d983b8c0526c8f7fb3391806118f98a8a83613029565b0390a43b611905578880f35b865194859384937fbc197c810000000000000000000000000000000000000000000000000000000098898652338c87015260248601526044850160a0905260a48501611950916126ea565b82858203016064860152611963916126ea565b9083820301608484015261197691612533565b0381885a94602095f1859181611a35575b50611a075750506001611998613086565b6308c379a0146119b6575b6105035750505b81808080808080808880f35b6119be6130a4565b806119c957506119a3565b905061058f9160209450519384937f08c379a00000000000000000000000000000000000000000000000000000000085528401526024830190612533565b7fffffffff0000000000000000000000000000000000000000000000000000000016036106105750506119aa565b611a4e91925060203d81116106c4576106b5818361240a565b9086611987565b60848360208951917f08c379a0000000000000000000000000000000000000000000000000000000008352820152602c60248201527f455243313135355061757361626c653a20746f6b656e207472616e736665722060448201527f7768696c652070617573656400000000000000000000000000000000000000006064820152fd5b50848a5260036020908152878b20338c529052868a205460ff16611806565b8880fd5b5082346107715760207ffffffffffffffffffffffffffffffffffffffffffffffffffffffffffffffffc36011261077157816020936001923581528085522001549051908152f35b503461030f577ffffffffffffffffffffffffffffffffffffffffffffffffffffffffffffffffc9060808236011261077157611b7d612321565b9267ffffffffffffffff9260243584811161077157611b9f90369088016125f3565b93604435818111610fab57611bb790369089016125f3565b90606435908111610fab57611bcf9036908901612651565b967f9f2df0fed2c77648de5860a4cc508cd0818c85b8b8a1ab4ceeef8d981c8956a684526020978489528585203386528952611c1060ff878720541661327c565b73ffffffffffffffffffffffffffffffffffffffff881693611c338515156136af565b611c408851855114612f9e565b60ff60055416611df157855b8851811015611c905780611c63611c8b9287612dad565b51611c6e828c612dad565b51895260028d52898920888a528d526118b08a8a20918254612f91565b611c4c565b5085999697949193929882878a517f4a39dc06d4c0dbc64b70af90fd698a233a518aa5d07e595d983b8c0526c8f7fb339180611ccd8a8d83613029565b0390a43b611cd9578580f35b8895611d4295611d51611d32938a978c51998a98899788967fbc197c81000000000000000000000000000000000000000000000000000000009e8f8952339089015288602489015260a0604489015260a48801906126ea565b90848783030160648801526126ea565b91848303016084850152612533565b03925af1869181611dd2575b50611da2575050600190611d6f613086565b6308c379a014611d8f575b506105035750505b3880808381808080808580f35b611d976130a4565b806105a65750611d7a565b7fffffffff0000000000000000000000000000000000000000000000000000000016039050610610575050611d82565b611dea919250843d86116106c4576106b5818361240a565b9038611d5d565b6084838b8951917f08c379a0000000000000000000000000000000000000000000000000000000008352820152602c60248201527f455243313135355061757361626c653a20746f6b656e207472616e736665722060448201527f7768696c652070617573656400000000000000000000000000000000000000006064820152fd5b50913461030f57827ffffffffffffffffffffffffffffffffffffffffffffffffffffffffffffffffc36011261030f5767ffffffffffffffff602435818111610fab5736602382011215610fab57611ed49036906024818601359101612576565b937f9f2df0fed2c77648de5860a4cc508cd0818c85b8b8a1ab4ceeef8d981c8956a68452602090848252808520338652825260ff81862054161561209f57833585526006825284209285519283116120735750611f31835461236c565b601f8111612030575b5080601f8311600114611f925750839482939492611f87575b50507fffffffffffffffffffffffffffffffffffffffffffffffffffffffffffffffff8260011b9260031b1c191617905580f35b015190503880611f53565b907fffffffffffffffffffffffffffffffffffffffffffffffffffffffffffffffe08316958486528286209286905b88821061201857505083600195969710611fe1575b505050811b01905580f35b01517fffffffffffffffffffffffffffffffffffffffffffffffffffffffffffffffff60f88460031b161c19169055388080611fd6565b80600185968294968601518155019501930190611fc1565b838552818520601f840160051c810191838510612069575b601f0160051c01905b81811061205e5750611f3a565b858155600101612051565b9091508190612048565b8460416024927f4e487b7100000000000000000000000000000000000000000000000000000000835252fd5b517f08c379a00000000000000000000000000000000000000000000000000000000081529283015250603b60248201527f455243313135355072657365744d696e7465725061757365723a206d7573742060448201527f68617665206d696e74657220726f6c6520746f207365742075726900000000006064820152608490fd5b5082346107715760207ffffffffffffffffffffffffffffffffffffffffffffffffffffffffffffffffc3601126107715781611337936121689235815260066020522061244b565b9051918291602083526020830190612533565b5082346107715760207ffffffffffffffffffffffffffffffffffffffffffffffffffffffffffffffffc3601126107715735907fffffffff00000000000000000000000000000000000000000000000000000000821680920361077157602092507fd9b67a260000000000000000000000000000000000000000000000000000000082149182156122aa575b8215612217575b50519015158152f35b9091507f5a05180f00000000000000000000000000000000000000000000000000000000811490811561224d575b50908361220e565b7f7965db0b00000000000000000000000000000000000000000000000000000000811491508115612280575b5083612245565b7f01ffc9a70000000000000000000000000000000000000000000000000000000091501483612279565b7f0e89341c0000000000000000000000000000000000000000000000000000000081149250612207565b503461030f57807ffffffffffffffffffffffffffffffffffffffffffffffffffffffffffffffffc36011261030f5760209061231a612311612321565b60243590612c93565b9051908152f35b6004359073ffffffffffffffffffffffffffffffffffffffff8216820361234457565b600080fd5b6024359073ffffffffffffffffffffffffffffffffffffffff8216820361234457565b90600182811c921680156123b5575b602083101461238657565b7f4e487b7100000000000000000000000000000000000000000000000000000000600052602260045260246000fd5b91607f169161237b565b6020810190811067ffffffffffffffff8211176123db57604052565b7f4e487b7100000000000000000000000000000000000000000000000000000000600052604160045260246000fd5b90601f7fffffffffffffffffffffffffffffffffffffffffffffffffffffffffffffffe0910116810190811067ffffffffffffffff8211176123db57604052565b906040519182600082549261245f8461236c565b9081845260019485811690816000146124ce575060011461248b575b50506124899250038361240a565b565b9093915060005260209081600020936000915b8183106124b65750506124899350820101388061247b565b8554888401850152948501948794509183019161249e565b90506124899550602093507fffffffffffffffffffffffffffffffffffffffffffffffffffffffffffffff0091501682840152151560051b820101388061247b565b60005b8381106125235750506000910152565b8181015183820152602001612513565b907fffffffffffffffffffffffffffffffffffffffffffffffffffffffffffffffe0601f60209361256f81518092818752878088019101612510565b0116010190565b92919267ffffffffffffffff82116123db57604051916125be60207fffffffffffffffffffffffffffffffffffffffffffffffffffffffffffffffe0601f840116018461240a565b829481845281830111612344578281602093846000960137010152565b67ffffffffffffffff81116123db5760051b60200190565b81601f820112156123445780359161260a836125db565b92612618604051948561240a565b808452602092838086019260051b820101928311612344578301905b828210612642575050505090565b81358152908301908301612634565b9080601f830112156123445781602061266c93359101612576565b90565b81601f8201121561234457803591612686836125db565b92612694604051948561240a565b808452602092838086019260051b820101928311612344578301905b8282106126be575050505090565b813573ffffffffffffffffffffffffffffffffffffffff811681036123445781529083019083016126b0565b90815180825260208080930193019160005b82811061270a575050505090565b8351855293810193928101926001016126fc565b600090808252602090828252604092838120338252835260ff8482205416156127475750505050565b83519167ffffffffffffffff90336060850183811186821017612bb3578752602a85528585019187368437855115612b865760308353855191600192831015612b59576078602188015360295b838111612a925750612a365790875193608085019085821090821117612a09578852604284528684019460603687378451156129dc576030865384518210156129dc5790607860218601536041915b818311612911575050506128b55761058f93869361287f9361287060489461283b9a519a8b957f416363657373436f6e74726f6c3a206163636f756e74200000000000000000008c8801525180926037880190612510565b8401917f206973206d697373696e6720726f6c6520000000000000000000000000000000603784015251809386840190612510565b0103602881018752018561240a565b519283927f08c379a000000000000000000000000000000000000000000000000000000000845260048401526024830190612533565b6064858751907f08c379a000000000000000000000000000000000000000000000000000000000825280600483015260248201527f537472696e67733a20686578206c656e67746820696e73756666696369656e746044820152fd5b909192600f811660108110156129af577f3031323334353637383961626364656600000000000000000000000000000000901a61294e858861373a565b5360041c928015612982577fffffffffffffffffffffffffffffffffffffffffffffffffffffffffffffffff0191906127e3565b6024827f4e487b710000000000000000000000000000000000000000000000000000000081526011600452fd5b6024837f4e487b710000000000000000000000000000000000000000000000000000000081526032600452fd5b807f4e487b7100000000000000000000000000000000000000000000000000000000602492526032600452fd5b6024867f4e487b710000000000000000000000000000000000000000000000000000000081526041600452fd5b6064878951907f08c379a000000000000000000000000000000000000000000000000000000000825280600483015260248201527f537472696e67733a20686578206c656e67746820696e73756666696369656e746044820152fd5b90600f81166010811015612b2c577f3031323334353637383961626364656600000000000000000000000000000000901a612acd838a61373a565b5360041c908015612aff577fffffffffffffffffffffffffffffffffffffffffffffffffffffffffffffffff01612794565b6024877f4e487b710000000000000000000000000000000000000000000000000000000081526011600452fd5b6024887f4e487b710000000000000000000000000000000000000000000000000000000081526032600452fd5b6024867f4e487b710000000000000000000000000000000000000000000000000000000081526032600452fd5b6024857f4e487b710000000000000000000000000000000000000000000000000000000081526032600452fd5b6024857f4e487b710000000000000000000000000000000000000000000000000000000081526041600452fd5b906040612c2b926000908082528160205273ffffffffffffffffffffffffffffffffffffffff83832094169384835260205260ff8383205416612c2e575b8152600160205220613824565b50565b808252816020528282208483526020528282207fffffffffffffffffffffffffffffffffffffffffffffffffffffffffffffff0081541690553384827ff6391f5c32d9c69d2a47ea670b442974b53935d1edc7fd64eb21e047a839171b8580a4612c1e565b73ffffffffffffffffffffffffffffffffffffffff16908115612ccd57600052600260205260406000209060005260205260406000205490565b60846040517f08c379a000000000000000000000000000000000000000000000000000000000815260206004820152602a60248201527f455243313135353a2061646472657373207a65726f206973206e6f742061207660448201527f616c6964206f776e6572000000000000000000000000000000000000000000006064820152fd5b7fffffffffffffffffffffffffffffffffffffffffffffffffffffffffffffffff8114612d7e5760010190565b7f4e487b7100000000000000000000000000000000000000000000000000000000600052601160045260246000fd5b8051821015612dc15760209160051b010190565b7f4e487b7100000000000000000000000000000000000000000000000000000000600052603260045260246000fd5b15612df757565b60846040517f08c379a000000000000000000000000000000000000000000000000000000000815260206004820152602f60248201527f455243313135353a2063616c6c6572206973206e6f7420746f6b656e206f776e60448201527f6572206e6f7220617070726f76656400000000000000000000000000000000006064820152fd5b15612e8257565b60846040517f08c379a000000000000000000000000000000000000000000000000000000000815260206004820152602560248201527f455243313135353a207472616e7366657220746f20746865207a65726f20616460448201527f64726573730000000000000000000000000000000000000000000000000000006064820152fd5b15612f0d57565b60846040517f08c379a000000000000000000000000000000000000000000000000000000000815260206004820152602a60248201527f455243313135353a20696e73756666696369656e742062616c616e636520666f60448201527f72207472616e73666572000000000000000000000000000000000000000000006064820152fd5b91908201809211612d7e57565b15612fa557565b60846040517f08c379a000000000000000000000000000000000000000000000000000000000815260206004820152602860248201527f455243313135353a2069647320616e6420616d6f756e7473206c656e6774682060448201527f6d69736d617463680000000000000000000000000000000000000000000000006064820152fd5b909161304061266c936040845260408401906126ea565b9160208184039101526126ea565b9081602091031261234457517fffffffff00000000000000000000000000000000000000000000000000000000811681036123445790565b60009060033d1161309357565b905060046000803e60005160e01c90565b600060443d1061266c576040517ffffffffffffffffffffffffffffffffffffffffffffffffffffffffffffffffc91823d016004833e815167ffffffffffffffff918282113d60248401111761312057818401948551938411613128573d85010160208487010111613120575061266c9291016020019061240a565b949350505050565b50949350505050565b604051906040820182811067ffffffffffffffff8211176123db5760405260018252602082016020368237825115612dc1575290565b1561316e57565b60846040517f08c379a000000000000000000000000000000000000000000000000000000000815260206004820152602360248201527f455243313135353a206275726e2066726f6d20746865207a65726f206164647260448201527f65737300000000000000000000000000000000000000000000000000000000006064820152fd5b156131f957565b60846040517f08c379a0000000000000000000000000000000000000000000000000000000008152602060048201526024808201527f455243313135353a206275726e20616d6f756e7420657863656564732062616c60448201527f616e6365000000000000000000000000000000000000000000000000000000006064820152fd5b1561328357565b60846040517f08c379a000000000000000000000000000000000000000000000000000000000815260206004820152603860248201527f455243313135355072657365744d696e7465725061757365723a206d7573742060448201527f68617665206d696e74657220726f6c6520746f206d696e7400000000000000006064820152fd5b906000917f9f2df0fed2c77648de5860a4cc508cd0818c85b8b8a1ab4ceeef8d981c8956a68352602093838552604095868520338652865261334e60ff888720541661327c565b73ffffffffffffffffffffffffffffffffffffffff8316926133718415156136af565b61337a85613131565b5061338483613131565b5060ff6005541661362c578486526002875287862084875287528786206133ac848254612f91565b905583868951878152858a8201527fc3d58168c5ae7397731d063d5bbf3d657854427343f4c083240f7aacaa2d0f628b3392a43b6133ee575b50505050505050565b6134499286928689518096819582947ff23a6e61000000000000000000000000000000000000000000000000000000009a8b85523360048601528560248601526044850152606484015260a0608484015260a4830190612533565b03925af183918161360d575b50613559575050600191613467613086565b6308c379a014613509575b505061348657505b388080808080806133e5565b517f08c379a000000000000000000000000000000000000000000000000000000000815260206004820152603460248201527f455243313135353a207472616e7366657220746f206e6f6e204552433131353560448201527f526563656976657220696d706c656d656e7465720000000000000000000000006064820152608490fd5b6135116130a4565b918261351d5750613472565b8461058f9150519283927f08c379a000000000000000000000000000000000000000000000000000000000845260048401526024830190612533565b7fffffffff000000000000000000000000000000000000000000000000000000001603915061358a9050575061347a565b517f08c379a000000000000000000000000000000000000000000000000000000000815260206004820152602860248201527f455243313135353a204552433131353552656365697665722072656a6563746560448201527f6420746f6b656e730000000000000000000000000000000000000000000000006064820152608490fd5b613625919250853d87116106c4576106b5818361240a565b9038613455565b6084878951907f08c379a00000000000000000000000000000000000000000000000000000000082526004820152602c60248201527f455243313135355061757361626c653a20746f6b656e207472616e736665722060448201527f7768696c652070617573656400000000000000000000000000000000000000006064820152fd5b156136b657565b60846040517f08c379a000000000000000000000000000000000000000000000000000000000815260206004820152602160248201527f455243313135353a206d696e7420746f20746865207a65726f2061646472657360448201527f73000000000000000000000000000000000000000000000000000000000000006064820152fd5b908151811015612dc1570160200190565b8054821015612dc15760005260206000200190600090565b9190600183016000908282528060205260408220541560001461381e57845494680100000000000000008610156137f157836137e16137ac886001604098999a0185558461374b565b81939154907fffffffffffffffffffffffffffffffffffffffffffffffffffffffffffffffff9060031b92831b921b19161790565b9055549382526020522055600190565b6024837f4e487b710000000000000000000000000000000000000000000000000000000081526041600452fd5b50925050565b90600182019060009281845282602052604084205490811515600014613949577fffffffffffffffffffffffffffffffffffffffffffffffffffffffffffffffff91828101818111612aff5782549084820191821161391c578082036138e7575b505050805480156138ba5782019161389d838361374b565b909182549160031b1b191690555582526020526040812055600190565b6024867f4e487b710000000000000000000000000000000000000000000000000000000081526031600452fd5b6139076138f76137ac938661374b565b90549060031b1c9283928661374b565b90558652846020526040862055388080613885565b6024887f4e487b710000000000000000000000000000000000000000000000000000000081526011600452fd5b505050509056fea26469706673582212200bd327fd0c49e6871f48517ba7cd8ce3cf4194b202b88b0efac917f2c88cf85c64736f6c634300081200332f8788117e7eff1d82e926ec794901d17c78024a50270940304540a733656f0d",
  "devdoc": {
    "events": {
      "ApprovalForAll(address,address,bool)": {
        "details": "Emitted when `account` grants or revokes permission to `operator` to transfer their tokens, according to `approved`."
      },
      "Paused(address)": {
        "details": "Emitted when the pause is triggered by `account`."
      },
      "RoleAdminChanged(bytes32,bytes32,bytes32)": {
        "details": "Emitted when `newAdminRole` is set as ``role``'s admin role, replacing `previousAdminRole` `DEFAULT_ADMIN_ROLE` is the starting admin for all roles, despite {RoleAdminChanged} not being emitted signaling this. _Available since v3.1._"
      },
      "RoleGranted(bytes32,address,address)": {
        "details": "Emitted when `account` is granted `role`. `sender` is the account that originated the contract call, an admin role bearer except when using {AccessControl-_setupRole}."
      },
      "RoleRevoked(bytes32,address,address)": {
        "details": "Emitted when `account` is revoked `role`. `sender` is the account that originated the contract call:   - if using `revokeRole`, it is the admin role bearer   - if using `renounceRole`, it is the role bearer (i.e. `account`)"
      },
      "TransferBatch(address,address,address,uint256[],uint256[])": {
        "details": "Equivalent to multiple {TransferSingle} events, where `operator`, `from` and `to` are the same for all transfers."
      },
      "TransferSingle(address,address,address,uint256,uint256)": {
        "details": "Emitted when `value` tokens of token type `id` are transferred from `from` to `to` by `operator`."
      },
      "URI(string,uint256)": {
        "details": "Emitted when the URI for token type `id` changes to `value`, if it is a non-programmatic URI. If an {URI} event was emitted for `id`, the standard https://eips.ethereum.org/EIPS/eip-1155#metadata-extensions[guarantees] that `value` will equal the value returned by {IERC1155MetadataURI-uri}."
      },
      "Unpaused(address)": {
        "details": "Emitted when the pause is lifted by `account`."
      }
    },
    "kind": "dev",
    "methods": {
      "airdrop(uint256,address[],uint256[])": {
        "details": "Creates `amounts[i]` new tokens for `recipients[i]` of toke type `tokenId`."
      },
      "balanceOf(address,uint256)": {
        "details": "See {IERC1155-balanceOf}. Requirements: - `account` cannot be the zero address."
      },
      "balanceOfBatch(address[],uint256[])": {
        "details": "See {IERC1155-balanceOfBatch}. Requirements: - `accounts` and `ids` must have the same length."
      },
      "getRoleAdmin(bytes32)": {
        "details": "Returns the admin role that controls `role`. See {grantRole} and {revokeRole}. To change a role's admin, use {_setRoleAdmin}."
      },
      "getRoleMember(bytes32,uint256)": {
        "details": "Returns one of the accounts that have `role`. `index` must be a value between 0 and {getRoleMemberCount}, non-inclusive. Role bearers are not sorted in any particular way, and their ordering may change at any point. WARNING: When using {getRoleMember} and {getRoleMemberCount}, make sure you perform all queries on the same block. See the following https://forum.openzeppelin.com/t/iterating-over-elements-on-enumerableset-in-openzeppelin-contracts/2296[forum post] for more information."
      },
      "getRoleMemberCount(bytes32)": {
        "details": "Returns the number of accounts that have `role`. Can be used together with {getRoleMember} to enumerate all bearers of a role."
      },
      "grantRole(bytes32,address)": {
        "details": "Grants `role` to `account`. If `account` had not been already granted `role`, emits a {RoleGranted} event. Requirements: - the caller must have ``role``'s admin role. May emit a {RoleGranted} event."
      },
      "hasRole(bytes32,address)": {
        "details": "Returns `true` if `account` has been granted `role`."
      },
      "isApprovedForAll(address,address)": {
        "details": "See {IERC1155-isApprovedForAll}."
      },
      "mint(address,uint256,uint256,bytes)": {
        "details": "Creates `amount` new tokens for `to`, of token type `id`. See {ERC1155-_mint}. Requirements: - the caller must have the `MINTER_ROLE`."
      },
      "mintBatch(address,uint256[],uint256[],bytes)": {
        "details": "xref:ROOT:erc1155.adoc#batch-operations[Batched] variant of {mint}."
      },
      "pause()": {
        "details": "Pauses all token transfers. See {ERC1155Pausable} and {Pausable-_pause}. Requirements: - the caller must have the `PAUSER_ROLE`."
      },
      "paused()": {
        "details": "Returns true if the contract is paused, and false otherwise."
      },
      "renounceRole(bytes32,address)": {
        "details": "Revokes `role` from the calling account. Roles are often managed via {grantRole} and {revokeRole}: this function's purpose is to provide a mechanism for accounts to lose their privileges if they are compromised (such as when a trusted device is misplaced). If the calling account had been revoked `role`, emits a {RoleRevoked} event. Requirements: - the caller must be `account`. May emit a {RoleRevoked} event."
      },
      "revokeRole(bytes32,address)": {
        "details": "Revokes `role` from `account`. If `account` had been granted `role`, emits a {RoleRevoked} event. Requirements: - the caller must have ``role``'s admin role. May emit a {RoleRevoked} event."
      },
      "safeBatchTransferFrom(address,address,uint256[],uint256[],bytes)": {
        "details": "See {IERC1155-safeBatchTransferFrom}."
      },
      "safeTransferFrom(address,address,uint256,uint256,bytes)": {
        "details": "See {IERC1155-safeTransferFrom}."
      },
      "setApprovalForAll(address,bool)": {
        "details": "See {IERC1155-setApprovalForAll}."
      },
      "setTokenURI(uint256,string)": {
        "details": "Sets the URI for token of type `tokenId` to `tokenURI`."
      },
      "supportsInterface(bytes4)": {
        "details": "See {IERC165-supportsInterface}."
      },
      "unpause()": {
        "details": "Unpauses all token transfers. See {ERC1155Pausable} and {Pausable-_unpause}. Requirements: - the caller must have the `PAUSER_ROLE`."
      },
      "uri(uint256)": {
        "details": "Instead of returning the same URI for *all* token types, we return the uri set by `setTokenURI` to allow IPFS URIs for token types."
      }
    },
    "version": 1
  },
  "userdoc": {
    "kind": "user",
    "methods": {},
    "version": 1
  },
  "storageLayout": {
    "storage": [
      {
        "astId": 24,
        "contract": "contracts/erc1155/MintableERC1155.sol:MintableERC1155",
        "label": "_roles",
        "offset": 0,
        "slot": "0",
        "type": "t_mapping(t_bytes32,t_struct(RoleData)19_storage)"
      },
      {
        "astId": 338,
        "contract": "contracts/erc1155/MintableERC1155.sol:MintableERC1155",
        "label": "_roleMembers",
        "offset": 0,
        "slot": "1",
        "type": "t_mapping(t_bytes32,t_struct(AddressSet)3257_storage)"
      },
      {
        "astId": 676,
        "contract": "contracts/erc1155/MintableERC1155.sol:MintableERC1155",
        "label": "_balances",
        "offset": 0,
        "slot": "2",
        "type": "t_mapping(t_uint256,t_mapping(t_address,t_uint256))"
      },
      {
        "astId": 682,
        "contract": "contracts/erc1155/MintableERC1155.sol:MintableERC1155",
        "label": "_operatorApprovals",
        "offset": 0,
        "slot": "3",
        "type": "t_mapping(t_address,t_mapping(t_address,t_bool))"
      },
      {
        "astId": 684,
        "contract": "contracts/erc1155/MintableERC1155.sol:MintableERC1155",
        "label": "_uri",
        "offset": 0,
        "slot": "4",
        "type": "t_string_storage"
      },
      {
        "astId": 560,
        "contract": "contracts/erc1155/MintableERC1155.sol:MintableERC1155",
        "label": "_paused",
        "offset": 0,
        "slot": "5",
        "type": "t_bool"
      },
      {
        "astId": 3553,
        "contract": "contracts/erc1155/MintableERC1155.sol:MintableERC1155",
        "label": "_tokenURIs",
        "offset": 0,
        "slot": "6",
        "type": "t_mapping(t_uint256,t_string_storage)"
      }
    ],
    "types": {
      "t_address": {
        "encoding": "inplace",
        "label": "address",
        "numberOfBytes": "20"
      },
      "t_array(t_bytes32)dyn_storage": {
        "base": "t_bytes32",
        "encoding": "dynamic_array",
        "label": "bytes32[]",
        "numberOfBytes": "32"
      },
      "t_bool": {
        "encoding": "inplace",
        "label": "bool",
        "numberOfBytes": "1"
      },
      "t_bytes32": {
        "encoding": "inplace",
        "label": "bytes32",
        "numberOfBytes": "32"
      },
      "t_mapping(t_address,t_bool)": {
        "encoding": "mapping",
        "key": "t_address",
        "label": "mapping(address => bool)",
        "numberOfBytes": "32",
        "value": "t_bool"
      },
      "t_mapping(t_address,t_mapping(t_address,t_bool))": {
        "encoding": "mapping",
        "key": "t_address",
        "label": "mapping(address => mapping(address => bool))",
        "numberOfBytes": "32",
        "value": "t_mapping(t_address,t_bool)"
      },
      "t_mapping(t_address,t_uint256)": {
        "encoding": "mapping",
        "key": "t_address",
        "label": "mapping(address => uint256)",
        "numberOfBytes": "32",
        "value": "t_uint256"
      },
      "t_mapping(t_bytes32,t_struct(AddressSet)3257_storage)": {
        "encoding": "mapping",
        "key": "t_bytes32",
        "label": "mapping(bytes32 => struct EnumerableSet.AddressSet)",
        "numberOfBytes": "32",
        "value": "t_struct(AddressSet)3257_storage"
      },
      "t_mapping(t_bytes32,t_struct(RoleData)19_storage)": {
        "encoding": "mapping",
        "key": "t_bytes32",
        "label": "mapping(bytes32 => struct AccessControl.RoleData)",
        "numberOfBytes": "32",
        "value": "t_struct(RoleData)19_storage"
      },
      "t_mapping(t_bytes32,t_uint256)": {
        "encoding": "mapping",
        "key": "t_bytes32",
        "label": "mapping(bytes32 => uint256)",
        "numberOfBytes": "32",
        "value": "t_uint256"
      },
      "t_mapping(t_uint256,t_mapping(t_address,t_uint256))": {
        "encoding": "mapping",
        "key": "t_uint256",
        "label": "mapping(uint256 => mapping(address => uint256))",
        "numberOfBytes": "32",
        "value": "t_mapping(t_address,t_uint256)"
      },
      "t_mapping(t_uint256,t_string_storage)": {
        "encoding": "mapping",
        "key": "t_uint256",
        "label": "mapping(uint256 => string)",
        "numberOfBytes": "32",
        "value": "t_string_storage"
      },
      "t_string_storage": {
        "encoding": "bytes",
        "label": "string",
        "numberOfBytes": "32"
      },
      "t_struct(AddressSet)3257_storage": {
        "encoding": "inplace",
        "label": "struct EnumerableSet.AddressSet",
        "members": [
          {
            "astId": 3256,
            "contract": "contracts/erc1155/MintableERC1155.sol:MintableERC1155",
            "label": "_inner",
            "offset": 0,
            "slot": "0",
            "type": "t_struct(Set)2956_storage"
          }
        ],
        "numberOfBytes": "64"
      },
      "t_struct(RoleData)19_storage": {
        "encoding": "inplace",
        "label": "struct AccessControl.RoleData",
        "members": [
          {
            "astId": 16,
            "contract": "contracts/erc1155/MintableERC1155.sol:MintableERC1155",
            "label": "members",
            "offset": 0,
            "slot": "0",
            "type": "t_mapping(t_address,t_bool)"
          },
          {
            "astId": 18,
            "contract": "contracts/erc1155/MintableERC1155.sol:MintableERC1155",
            "label": "adminRole",
            "offset": 0,
            "slot": "1",
            "type": "t_bytes32"
          }
        ],
        "numberOfBytes": "64"
      },
      "t_struct(Set)2956_storage": {
        "encoding": "inplace",
        "label": "struct EnumerableSet.Set",
        "members": [
          {
            "astId": 2951,
            "contract": "contracts/erc1155/MintableERC1155.sol:MintableERC1155",
            "label": "_values",
            "offset": 0,
            "slot": "0",
            "type": "t_array(t_bytes32)dyn_storage"
          },
          {
            "astId": 2955,
            "contract": "contracts/erc1155/MintableERC1155.sol:MintableERC1155",
            "label": "_indexes",
            "offset": 0,
            "slot": "1",
            "type": "t_mapping(t_bytes32,t_uint256)"
          }
        ],
        "numberOfBytes": "64"
      },
      "t_uint256": {
        "encoding": "inplace",
        "label": "uint256",
        "numberOfBytes": "32"
      }
    }
  }
}