{
  "address": "0xC50c8cEd449321a6c506a5Da409D9eDe7269ac3a",
  "abi": [
    {
      "inputs": [
        {
          "internalType": "contract PolygonTokenBridger",
          "name": "_polygonTokenBridger",
          "type": "address"
        },
        {
          "internalType": "address",
          "name": "_crossDomainAdmin",
          "type": "address"
        },
        {
          "internalType": "address",
          "name": "_hubPool",
          "type": "address"
        },
        {
          "internalType": "address",
          "name": "_wmaticAddress",
          "type": "address"
        },
        {
          "internalType": "address",
          "name": "_fxChild",
          "type": "address"
        },
        {
          "internalType": "address",
          "name": "timerAddress",
          "type": "address"
        }
      ],
      "stateMutability": "nonpayable",
      "type": "constructor"
    },
    {
      "anonymous": false,
      "inputs": [
        {
          "indexed": true,
          "internalType": "uint256",
          "name": "rootBundleId",
          "type": "uint256"
        }
      ],
      "name": "EmergencyDeleteRootBundle",
      "type": "event"
    },
    {
      "anonymous": false,
      "inputs": [
        {
          "indexed": true,
          "internalType": "address",
          "name": "originToken",
          "type": "address"
        },
        {
          "indexed": true,
          "internalType": "uint256",
          "name": "destinationChainId",
          "type": "uint256"
        },
        {
          "indexed": false,
          "internalType": "bool",
          "name": "enabled",
          "type": "bool"
        }
      ],
      "name": "EnabledDepositRoute",
      "type": "event"
    },
    {
      "anonymous": false,
      "inputs": [
        {
          "indexed": false,
          "internalType": "uint256",
          "name": "amountToReturn",
          "type": "uint256"
        },
        {
          "indexed": true,
          "internalType": "uint256",
          "name": "chainId",
          "type": "uint256"
        },
        {
          "indexed": false,
          "internalType": "uint256[]",
          "name": "refundAmounts",
          "type": "uint256[]"
        },
        {
          "indexed": true,
          "internalType": "uint32",
          "name": "rootBundleId",
          "type": "uint32"
        },
        {
          "indexed": true,
          "internalType": "uint32",
          "name": "leafId",
          "type": "uint32"
        },
        {
          "indexed": false,
          "internalType": "address",
          "name": "l2TokenAddress",
          "type": "address"
        },
        {
          "indexed": false,
          "internalType": "address[]",
          "name": "refundAddresses",
          "type": "address[]"
        },
        {
          "indexed": false,
          "internalType": "address",
          "name": "caller",
          "type": "address"
        }
      ],
      "name": "ExecutedRelayerRefundRoot",
      "type": "event"
    },
    {
      "anonymous": false,
      "inputs": [
        {
          "indexed": true,
          "internalType": "bytes32",
          "name": "relayHash",
          "type": "bytes32"
        },
        {
          "indexed": false,
          "internalType": "uint256",
          "name": "amount",
          "type": "uint256"
        },
        {
          "indexed": false,
          "internalType": "uint256",
          "name": "totalFilledAmount",
          "type": "uint256"
        },
        {
          "indexed": false,
          "internalType": "uint256",
          "name": "fillAmount",
          "type": "uint256"
        },
        {
          "indexed": false,
          "internalType": "uint256",
          "name": "repaymentChainId",
          "type": "uint256"
        },
        {
          "indexed": false,
          "internalType": "uint256",
          "name": "originChainId",
          "type": "uint256"
        },
        {
          "indexed": false,
          "internalType": "uint64",
          "name": "relayerFeePct",
          "type": "uint64"
        },
        {
          "indexed": false,
          "internalType": "uint64",
          "name": "realizedLpFeePct",
          "type": "uint64"
        },
        {
          "indexed": false,
          "internalType": "uint32",
          "name": "depositId",
          "type": "uint32"
        },
        {
          "indexed": false,
          "internalType": "address",
          "name": "destinationToken",
          "type": "address"
        },
        {
          "indexed": true,
          "internalType": "address",
          "name": "relayer",
          "type": "address"
        },
        {
          "indexed": true,
          "internalType": "address",
          "name": "depositor",
          "type": "address"
        },
        {
          "indexed": false,
          "internalType": "address",
          "name": "recipient",
          "type": "address"
        },
        {
          "indexed": false,
          "internalType": "bool",
          "name": "isSlowRelay",
          "type": "bool"
        }
      ],
      "name": "FilledRelay",
      "type": "event"
    },
    {
      "anonymous": false,
      "inputs": [
        {
          "indexed": false,
          "internalType": "uint256",
          "name": "amount",
          "type": "uint256"
        },
        {
          "indexed": false,
          "internalType": "uint256",
          "name": "destinationChainId",
          "type": "uint256"
        },
        {
          "indexed": false,
          "internalType": "uint64",
          "name": "relayerFeePct",
          "type": "uint64"
        },
        {
          "indexed": true,
          "internalType": "uint32",
          "name": "depositId",
          "type": "uint32"
        },
        {
          "indexed": false,
          "internalType": "uint32",
          "name": "quoteTimestamp",
          "type": "uint32"
        },
        {
          "indexed": true,
          "internalType": "address",
          "name": "originToken",
          "type": "address"
        },
        {
          "indexed": false,
          "internalType": "address",
          "name": "recipient",
          "type": "address"
        },
        {
          "indexed": true,
          "internalType": "address",
          "name": "depositor",
          "type": "address"
        }
      ],
      "name": "FundsDeposited",
      "type": "event"
    },
    {
      "anonymous": false,
      "inputs": [
        {
          "indexed": true,
          "internalType": "address",
          "name": "token",
          "type": "address"
        },
        {
          "indexed": true,
          "internalType": "address",
          "name": "receiver",
          "type": "address"
        },
        {
          "indexed": false,
          "internalType": "uint256",
          "name": "amount",
          "type": "uint256"
        }
      ],
      "name": "PolygonTokensBridged",
      "type": "event"
    },
    {
      "anonymous": false,
      "inputs": [
        {
          "indexed": true,
          "internalType": "uint32",
          "name": "rootBundleId",
          "type": "uint32"
        },
        {
          "indexed": false,
          "internalType": "bytes32",
          "name": "relayerRefundRoot",
          "type": "bytes32"
        },
        {
          "indexed": false,
          "internalType": "bytes32",
          "name": "slowRelayRoot",
          "type": "bytes32"
        }
      ],
      "name": "RelayedRootBundle",
      "type": "event"
    },
    {
      "anonymous": false,
      "inputs": [
        {
          "indexed": false,
          "internalType": "uint64",
          "name": "newRelayerFeePct",
          "type": "uint64"
        },
        {
          "indexed": true,
          "internalType": "uint32",
          "name": "depositId",
          "type": "uint32"
        },
        {
          "indexed": true,
          "internalType": "address",
          "name": "depositor",
          "type": "address"
        },
        {
          "indexed": false,
          "internalType": "bytes",
          "name": "depositorSignature",
          "type": "bytes"
        }
      ],
      "name": "RequestedSpeedUpDeposit",
      "type": "event"
    },
    {
      "anonymous": false,
      "inputs": [
        {
          "indexed": false,
          "internalType": "uint32",
          "name": "newBuffer",
          "type": "uint32"
        }
      ],
      "name": "SetDepositQuoteTimeBuffer",
      "type": "event"
    },
    {
      "anonymous": false,
      "inputs": [
        {
          "indexed": true,
          "internalType": "address",
          "name": "newFxChild",
          "type": "address"
        }
      ],
      "name": "SetFxChild",
      "type": "event"
    },
    {
      "anonymous": false,
      "inputs": [
        {
          "indexed": true,
          "internalType": "address",
          "name": "newHubPool",
          "type": "address"
        }
      ],
      "name": "SetHubPool",
      "type": "event"
    },
    {
      "anonymous": false,
      "inputs": [
        {
          "indexed": true,
          "internalType": "address",
          "name": "polygonTokenBridger",
          "type": "address"
        }
      ],
      "name": "SetPolygonTokenBridger",
      "type": "event"
    },
    {
      "anonymous": false,
      "inputs": [
        {
          "indexed": true,
          "internalType": "address",
          "name": "newAdmin",
          "type": "address"
        }
      ],
      "name": "SetXDomainAdmin",
      "type": "event"
    },
    {
      "anonymous": false,
      "inputs": [
        {
          "indexed": false,
          "internalType": "uint256",
          "name": "amountToReturn",
          "type": "uint256"
        },
        {
          "indexed": true,
          "internalType": "uint256",
          "name": "chainId",
          "type": "uint256"
        },
        {
          "indexed": true,
          "internalType": "uint32",
          "name": "leafId",
          "type": "uint32"
        },
        {
          "indexed": true,
          "internalType": "address",
          "name": "l2TokenAddress",
          "type": "address"
        },
        {
          "indexed": false,
          "internalType": "address",
          "name": "caller",
          "type": "address"
        }
      ],
      "name": "TokensBridged",
      "type": "event"
    },
    {
      "inputs": [],
      "name": "chainId",
      "outputs": [
        {
          "internalType": "uint256",
          "name": "",
          "type": "uint256"
        }
      ],
      "stateMutability": "view",
      "type": "function"
    },
    {
      "inputs": [],
      "name": "crossDomainAdmin",
      "outputs": [
        {
          "internalType": "address",
          "name": "",
          "type": "address"
        }
      ],
      "stateMutability": "view",
      "type": "function"
    },
    {
      "inputs": [],
      "name": "deploymentTime",
      "outputs": [
        {
          "internalType": "uint32",
          "name": "",
          "type": "uint32"
        }
      ],
      "stateMutability": "view",
      "type": "function"
    },
    {
      "inputs": [
        {
          "internalType": "address",
          "name": "recipient",
          "type": "address"
        },
        {
          "internalType": "address",
          "name": "originToken",
          "type": "address"
        },
        {
          "internalType": "uint256",
          "name": "amount",
          "type": "uint256"
        },
        {
          "internalType": "uint256",
          "name": "destinationChainId",
          "type": "uint256"
        },
        {
          "internalType": "uint64",
          "name": "relayerFeePct",
          "type": "uint64"
        },
        {
          "internalType": "uint32",
          "name": "quoteTimestamp",
          "type": "uint32"
        }
      ],
      "name": "deposit",
      "outputs": [],
      "stateMutability": "payable",
      "type": "function"
    },
    {
      "inputs": [],
      "name": "depositQuoteTimeBuffer",
      "outputs": [
        {
          "internalType": "uint32",
          "name": "",
          "type": "uint32"
        }
      ],
      "stateMutability": "view",
      "type": "function"
    },
    {
      "inputs": [
        {
          "internalType": "uint256",
          "name": "rootBundleId",
          "type": "uint256"
        }
      ],
      "name": "emergencyDeleteRootBundle",
      "outputs": [],
      "stateMutability": "nonpayable",
      "type": "function"
    },
    {
      "inputs": [
        {
          "internalType": "address",
          "name": "",
          "type": "address"
        },
        {
          "internalType": "uint256",
          "name": "",
          "type": "uint256"
        }
      ],
      "name": "enabledDepositRoutes",
      "outputs": [
        {
          "internalType": "bool",
          "name": "",
          "type": "bool"
        }
      ],
      "stateMutability": "view",
      "type": "function"
    },
    {
      "inputs": [
        {
          "internalType": "uint32",
          "name": "rootBundleId",
          "type": "uint32"
        },
        {
          "components": [
            {
              "internalType": "uint256",
              "name": "amountToReturn",
              "type": "uint256"
            },
            {
              "internalType": "uint256",
              "name": "chainId",
              "type": "uint256"
            },
            {
              "internalType": "uint256[]",
              "name": "refundAmounts",
              "type": "uint256[]"
            },
            {
              "internalType": "uint32",
              "name": "leafId",
              "type": "uint32"
            },
            {
              "internalType": "address",
              "name": "l2TokenAddress",
              "type": "address"
            },
            {
              "internalType": "address[]",
              "name": "refundAddresses",
              "type": "address[]"
            }
          ],
          "internalType": "struct SpokePoolInterface.RelayerRefundLeaf",
          "name": "relayerRefundLeaf",
          "type": "tuple"
        },
        {
          "internalType": "bytes32[]",
          "name": "proof",
          "type": "bytes32[]"
        }
      ],
      "name": "executeRelayerRefundRoot",
      "outputs": [],
      "stateMutability": "nonpayable",
      "type": "function"
    },
    {
      "inputs": [
        {
          "internalType": "address",
          "name": "depositor",
          "type": "address"
        },
        {
          "internalType": "address",
          "name": "recipient",
          "type": "address"
        },
        {
          "internalType": "address",
          "name": "destinationToken",
          "type": "address"
        },
        {
          "internalType": "uint256",
          "name": "amount",
          "type": "uint256"
        },
        {
          "internalType": "uint256",
          "name": "originChainId",
          "type": "uint256"
        },
        {
          "internalType": "uint64",
          "name": "realizedLpFeePct",
          "type": "uint64"
        },
        {
          "internalType": "uint64",
          "name": "relayerFeePct",
          "type": "uint64"
        },
        {
          "internalType": "uint32",
          "name": "depositId",
          "type": "uint32"
        },
        {
          "internalType": "uint32",
          "name": "rootBundleId",
          "type": "uint32"
        },
        {
          "internalType": "bytes32[]",
          "name": "proof",
          "type": "bytes32[]"
        }
      ],
      "name": "executeSlowRelayRoot",
      "outputs": [],
      "stateMutability": "nonpayable",
      "type": "function"
    },
    {
      "inputs": [
        {
          "internalType": "address",
          "name": "depositor",
          "type": "address"
        },
        {
          "internalType": "address",
          "name": "recipient",
          "type": "address"
        },
        {
          "internalType": "address",
          "name": "destinationToken",
          "type": "address"
        },
        {
          "internalType": "uint256",
          "name": "amount",
          "type": "uint256"
        },
        {
          "internalType": "uint256",
          "name": "maxTokensToSend",
          "type": "uint256"
        },
        {
          "internalType": "uint256",
          "name": "repaymentChainId",
          "type": "uint256"
        },
        {
          "internalType": "uint256",
          "name": "originChainId",
          "type": "uint256"
        },
        {
          "internalType": "uint64",
          "name": "realizedLpFeePct",
          "type": "uint64"
        },
        {
          "internalType": "uint64",
          "name": "relayerFeePct",
          "type": "uint64"
        },
        {
          "internalType": "uint32",
          "name": "depositId",
          "type": "uint32"
        }
      ],
      "name": "fillRelay",
      "outputs": [],
      "stateMutability": "nonpayable",
      "type": "function"
    },
    {
      "inputs": [
        {
          "internalType": "address",
          "name": "depositor",
          "type": "address"
        },
        {
          "internalType": "address",
          "name": "recipient",
          "type": "address"
        },
        {
          "internalType": "address",
          "name": "destinationToken",
          "type": "address"
        },
        {
          "internalType": "uint256",
          "name": "amount",
          "type": "uint256"
        },
        {
          "internalType": "uint256",
          "name": "maxTokensToSend",
          "type": "uint256"
        },
        {
          "internalType": "uint256",
          "name": "repaymentChainId",
          "type": "uint256"
        },
        {
          "internalType": "uint256",
          "name": "originChainId",
          "type": "uint256"
        },
        {
          "internalType": "uint64",
          "name": "realizedLpFeePct",
          "type": "uint64"
        },
        {
          "internalType": "uint64",
          "name": "relayerFeePct",
          "type": "uint64"
        },
        {
          "internalType": "uint64",
          "name": "newRelayerFeePct",
          "type": "uint64"
        },
        {
          "internalType": "uint32",
          "name": "depositId",
          "type": "uint32"
        },
        {
          "internalType": "bytes",
          "name": "depositorSignature",
          "type": "bytes"
        }
      ],
      "name": "fillRelayWithUpdatedFee",
      "outputs": [],
      "stateMutability": "nonpayable",
      "type": "function"
    },
    {
      "inputs": [],
      "name": "fxChild",
      "outputs": [
        {
          "internalType": "address",
          "name": "",
          "type": "address"
        }
      ],
      "stateMutability": "view",
      "type": "function"
    },
    {
      "inputs": [],
      "name": "getCurrentTime",
      "outputs": [
        {
          "internalType": "uint256",
          "name": "",
          "type": "uint256"
        }
      ],
      "stateMutability": "view",
      "type": "function"
    },
    {
      "inputs": [],
      "name": "hubPool",
      "outputs": [
        {
          "internalType": "address",
          "name": "",
          "type": "address"
        }
      ],
      "stateMutability": "view",
      "type": "function"
    },
    {
      "inputs": [
        {
          "internalType": "bytes[]",
          "name": "data",
          "type": "bytes[]"
        }
      ],
      "name": "multicall",
      "outputs": [
        {
          "internalType": "bytes[]",
          "name": "results",
          "type": "bytes[]"
        }
      ],
      "stateMutability": "payable",
      "type": "function"
    },
    {
      "inputs": [],
      "name": "numberOfDeposits",
      "outputs": [
        {
          "internalType": "uint32",
          "name": "",
          "type": "uint32"
        }
      ],
      "stateMutability": "view",
      "type": "function"
    },
    {
      "inputs": [],
      "name": "polygonTokenBridger",
      "outputs": [
        {
          "internalType": "contract PolygonTokenBridger",
          "name": "",
          "type": "address"
        }
      ],
      "stateMutability": "view",
      "type": "function"
    },
    {
      "inputs": [
        {
          "internalType": "uint256",
          "name": "",
          "type": "uint256"
        },
        {
          "internalType": "address",
          "name": "rootMessageSender",
          "type": "address"
        },
        {
          "internalType": "bytes",
          "name": "data",
          "type": "bytes"
        }
      ],
      "name": "processMessageFromRoot",
      "outputs": [],
      "stateMutability": "nonpayable",
      "type": "function"
    },
    {
      "inputs": [
        {
          "internalType": "bytes32",
          "name": "",
          "type": "bytes32"
        }
      ],
      "name": "relayFills",
      "outputs": [
        {
          "internalType": "uint256",
          "name": "",
          "type": "uint256"
        }
      ],
      "stateMutability": "view",
      "type": "function"
    },
    {
      "inputs": [
        {
          "internalType": "bytes32",
          "name": "relayerRefundRoot",
          "type": "bytes32"
        },
        {
          "internalType": "bytes32",
          "name": "slowRelayRoot",
          "type": "bytes32"
        }
      ],
      "name": "relayRootBundle",
      "outputs": [],
      "stateMutability": "nonpayable",
      "type": "function"
    },
    {
      "inputs": [
        {
          "internalType": "uint256",
          "name": "",
          "type": "uint256"
        }
      ],
      "name": "rootBundles",
      "outputs": [
        {
          "internalType": "bytes32",
          "name": "slowRelayRoot",
          "type": "bytes32"
        },
        {
          "internalType": "bytes32",
          "name": "relayerRefundRoot",
          "type": "bytes32"
        }
      ],
      "stateMutability": "view",
      "type": "function"
    },
    {
      "inputs": [
        {
          "internalType": "address",
          "name": "newCrossDomainAdmin",
          "type": "address"
        }
      ],
      "name": "setCrossDomainAdmin",
      "outputs": [],
      "stateMutability": "nonpayable",
      "type": "function"
    },
    {
      "inputs": [
        {
          "internalType": "uint256",
          "name": "time",
          "type": "uint256"
        }
      ],
      "name": "setCurrentTime",
      "outputs": [],
      "stateMutability": "nonpayable",
      "type": "function"
    },
    {
      "inputs": [
        {
          "internalType": "uint32",
          "name": "newDepositQuoteTimeBuffer",
          "type": "uint32"
        }
      ],
      "name": "setDepositQuoteTimeBuffer",
      "outputs": [],
      "stateMutability": "nonpayable",
      "type": "function"
    },
    {
      "inputs": [
        {
          "internalType": "address",
          "name": "originToken",
          "type": "address"
        },
        {
          "internalType": "uint256",
          "name": "destinationChainId",
          "type": "uint256"
        },
        {
          "internalType": "bool",
          "name": "enabled",
          "type": "bool"
        }
      ],
      "name": "setEnableRoute",
      "outputs": [],
      "stateMutability": "nonpayable",
      "type": "function"
    },
    {
      "inputs": [
        {
          "internalType": "address",
          "name": "newFxChild",
          "type": "address"
        }
      ],
      "name": "setFxChild",
      "outputs": [],
      "stateMutability": "nonpayable",
      "type": "function"
    },
    {
      "inputs": [
        {
          "internalType": "address",
          "name": "newHubPool",
          "type": "address"
        }
      ],
      "name": "setHubPool",
      "outputs": [],
      "stateMutability": "nonpayable",
      "type": "function"
    },
    {
      "inputs": [
        {
          "internalType": "address payable",
          "name": "newPolygonTokenBridger",
          "type": "address"
        }
      ],
      "name": "setPolygonTokenBridger",
      "outputs": [],
      "stateMutability": "nonpayable",
      "type": "function"
    },
    {
      "inputs": [
        {
          "internalType": "address",
          "name": "depositor",
          "type": "address"
        },
        {
          "internalType": "uint64",
          "name": "newRelayerFeePct",
          "type": "uint64"
        },
        {
          "internalType": "uint32",
          "name": "depositId",
          "type": "uint32"
        },
        {
          "internalType": "bytes",
          "name": "depositorSignature",
          "type": "bytes"
        }
      ],
      "name": "speedUpDeposit",
      "outputs": [],
      "stateMutability": "nonpayable",
      "type": "function"
    },
    {
      "inputs": [],
      "name": "timerAddress",
      "outputs": [
        {
          "internalType": "address",
          "name": "",
          "type": "address"
        }
      ],
      "stateMutability": "view",
      "type": "function"
    },
    {
      "inputs": [],
      "name": "weth",
      "outputs": [
        {
          "internalType": "contract WETH9",
          "name": "",
          "type": "address"
        }
      ],
      "stateMutability": "view",
      "type": "function"
    },
    {
      "stateMutability": "payable",
      "type": "receive"
    }
  ],
  "transactionHash": "0x20606bf46402e0e80612aeb12b1ef526d0aad891494326f2b32686ab1d0c1bcc",
  "args": [
    "0xe9D669a4A28aBF4C77c1c6f98942638b7A9aEaC9",
    "0xe1fC1EB80db9AD0160AEF6998673625bc2a09d14",
    "0xe1fC1EB80db9AD0160AEF6998673625bc2a09d14",
    "0x9c3C9283D3e44854697Cd22D3Faa240Cfb032889",
    "0xCf73231F28B7331BBe3124B907840A94851f9f11",
    "0x0000000000000000000000000000000000000000"
  ],
  "numDeployments": 1,
  "solcInputHash": "a6be65618c7af0eb8c96b985a450affc",
  "bytecode": "0x60806040526003805463ffffffff60c01b1916604b60c31b1790556008805460ff60a01b191690553480156200003457600080fd5b5060405162004796380380620047968339810160408190526200005791620002fe565b600080546001600160a81b0319166001600160a01b03831617600160a01b17905584848483620000878462000108565b6200009283620001ae565b6200009c62000250565b600380546001600160c01b031916600160a01b63ffffffff93909316929092026001600160a01b0319908116929092176001600160a01b039485161790556008805482169b84169b909b17909a55506007805490991694169390931790965550620003ac945050505050565b6001600160a01b038116620001645760405162461bcd60e51b815260206004820152601960248201527f4261642062726964676520726f7574657220616464726573730000000000000060448201526064015b60405180910390fd5b600180546001600160a01b0319166001600160a01b0383169081179091556040517fa9e8c42c9e7fca7f62755189a16b2f5314d43d8fb24e91ba54e6d65f9314e84990600090a250565b6001600160a01b038116620002065760405162461bcd60e51b815260206004820152601460248201527f4261642068756220706f6f6c206164647265737300000000000000000000000060448201526064016200015b565b600280546001600160a01b0319166001600160a01b0383169081179091556040517f1f17a88f67b0f49060a34bec1a4723a563620e6aa265eb640b5046dcee0759a090600090a250565b600080546001600160a01b031615620002e05760008054906101000a90046001600160a01b03166001600160a01b03166329cb924d6040518163ffffffff1660e01b8152600401602060405180830381865afa158015620002b5573d6000803e3d6000fd5b505050506040513d601f19601f82011682018060405250810190620002db919062000392565b905090565b504290565b6001600160a01b0381168114620002fb57600080fd5b50565b60008060008060008060c087890312156200031857600080fd5b86516200032581620002e5565b60208801519096506200033881620002e5565b60408801519095506200034b81620002e5565b60608801519094506200035e81620002e5565b60808801519093506200037181620002e5565b60a08801519092506200038481620002e5565b809150509295509295509295565b600060208284031215620003a557600080fd5b5051919050565b6143da80620003bc6000396000f3fe6080604052600436106101dc5760003560e01c806389a153cc11610102578063de7eba7811610095578063ee2a53f811610064578063ee2a53f814610636578063f06850f61461066b578063f500697c14610698578063ffc351a3146106b857600080fd5b8063de7eba7814610594578063e1904402146105b4578063e282d5b9146105e1578063ecda10f51461060157600080fd5b8063a1244c67116100d1578063a1244c67146104f7578063ac9650d814610534578063b86cfdcf14610554578063c894c0ca1461057457600080fd5b806389a153cc146104845780638a7860ce146104a45780639a7c4b71146104c45780639a8a0592146104e457600080fd5b80633edb89d11161017a578063493a4f8411610149578063493a4f841461039e5780635249fef1146103be5780635285e0581461040957806357f6dcb81461043657600080fd5b80633edb89d1146103045780633fc8cef314610331578063450d11f01461035e578063492289781461038b57600080fd5b806322f8e566116101b657806322f8e56614610281578063272751c7146102a15780632752042e146102c157806329cb924d146102e157600080fd5b806313fb77ee146101e85780631c39c38d1461020a5780631dfb2d021461026157600080fd5b366101e357005b600080fd5b3480156101f457600080fd5b50610208610203366004613424565b6106d8565b005b34801561021657600080fd5b506000546102379073ffffffffffffffffffffffffffffffffffffffff1681565b60405173ffffffffffffffffffffffffffffffffffffffff90911681526020015b60405180910390f35b34801561026d57600080fd5b5061020861027c366004613424565b61074f565b34801561028d57600080fd5b5061020861029c366004613451565b610763565b3480156102ad57600080fd5b506102086102bc366004613478565b61080c565b3480156102cd57600080fd5b506102086102dc3660046134ce565b6108aa565b3480156102ed57600080fd5b506102f6610939565b604051908152602001610258565b34801561031057600080fd5b506008546102379073ffffffffffffffffffffffffffffffffffffffff1681565b34801561033d57600080fd5b506003546102379073ffffffffffffffffffffffffffffffffffffffff1681565b34801561036a57600080fd5b506007546102379073ffffffffffffffffffffffffffffffffffffffff1681565b610208610399366004613501565b6109f1565b3480156103aa57600080fd5b506102086103b936600461356b565b610ea1565b3480156103ca57600080fd5b506103f96103d936600461358d565b600460209081526000928352604080842090915290825290205460ff1681565b6040519015158152602001610258565b34801561041557600080fd5b506001546102379073ffffffffffffffffffffffffffffffffffffffff1681565b34801561044257600080fd5b5060035461046f907801000000000000000000000000000000000000000000000000900463ffffffff1681565b60405163ffffffff9091168152602001610258565b34801561049057600080fd5b5061020861049f3660046135b9565b610f4f565b3480156104b057600080fd5b506102086104bf366004613451565b61109f565b3480156104d057600080fd5b506102086104df36600461365d565b6110fd565b3480156104f057600080fd5b50466102f6565b34801561050357600080fd5b5060035461046f907c0100000000000000000000000000000000000000000000000000000000900463ffffffff1681565b6105476105423660046136e6565b6113bd565b60405161025891906137d1565b34801561056057600080fd5b5061020861056f366004613424565b611597565b34801561058057600080fd5b5061020861058f3660046139eb565b61160e565b3480156105a057600080fd5b506102086105af366004613424565b611697565b3480156105c057600080fd5b506002546102379073ffffffffffffffffffffffffffffffffffffffff1681565b3480156105ed57600080fd5b506102086105fc366004613b7e565b6116a8565b34801561060d57600080fd5b5060035461046f9074010000000000000000000000000000000000000000900463ffffffff1681565b34801561064257600080fd5b50610656610651366004613451565b61178b565b60408051928352602083019190915201610258565b34801561067757600080fd5b506102f6610686366004613451565b60066020526000908152604090205481565b3480156106a457600080fd5b506102086106b3366004613bef565b6117b9565b3480156106c457600080fd5b506102086106d3366004613cbc565b611844565b6106e06119a3565b600880547fffffffffffffffffffffffff00000000000000000000000000000000000000001673ffffffffffffffffffffffffffffffffffffffff83169081179091556040517f6ade7bc58132776cc11d9b570837a732329396078de17b87db95463ca7f5d25f90600090a250565b6107576119a3565b61076081611a29565b50565b60005473ffffffffffffffffffffffffffffffffffffffff1661078557600080fd5b6000546040517f22f8e5660000000000000000000000000000000000000000000000000000000081526004810183905273ffffffffffffffffffffffffffffffffffffffff909116906322f8e56690602401600060405180830381600087803b1580156107f157600080fd5b505af1158015610805573d6000803e3d6000fd5b5050505050565b6108146119a3565b73ffffffffffffffffffffffffffffffffffffffff8316600081815260046020908152604080832086845282529182902080547fffffffffffffffffffffffffffffffffffffffffffffffffffffffffffffff001685151590811790915591519182528492917f0a21fdd43d0ad0c62689ee7230a47309a050755bcc52eba00310add65297692a910160405180910390a3505050565b6108b26119a3565b600380547fffffffff00000000ffffffffffffffffffffffffffffffffffffffffffffffff16780100000000000000000000000000000000000000000000000063ffffffff8416908102919091179091556040519081527f0e55dd180fa793d9036c804d0a116e6a7617a48e72cee1f83d92793a793fcc039060200160405180910390a150565b6000805473ffffffffffffffffffffffffffffffffffffffff16156109ec5760008054906101000a900473ffffffffffffffffffffffffffffffffffffffff1673ffffffffffffffffffffffffffffffffffffffff166329cb924d6040518163ffffffff1660e01b8152600401602060405180830381865afa1580156109c3573d6000803e3d6000fd5b505050506040513d601f19601f820116820180604052508101906109e79190613d9a565b905090565b504290565b73ffffffffffffffffffffffffffffffffffffffff851660009081526004602090815260408083208684529091529020548590849060ff16610a94576040517f08c379a000000000000000000000000000000000000000000000000000000000815260206004820152600e60248201527f44697361626c656420726f75746500000000000000000000000000000000000060448201526064015b60405180910390fd5b610a9c611b15565b610ac9600080547fffffffffffffffffffffff00ffffffffffffffffffffffffffffffffffffffff169055565b6706f05b59d3b200008467ffffffffffffffff1610610b44576040517f08c379a000000000000000000000000000000000000000000000000000000000815260206004820152601360248201527f696e76616c69642072656c6179657220666565000000000000000000000000006044820152606401610a8b565b600354610b73907801000000000000000000000000000000000000000000000000900463ffffffff1684613de2565b63ffffffff16610b81610939565b10158015610bca5750600354610bb9907801000000000000000000000000000000000000000000000000900463ffffffff1684613e07565b63ffffffff16610bc7610939565b11155b610c30576040517f08c379a000000000000000000000000000000000000000000000000000000000815260206004820152601260248201527f696e76616c69642071756f74652074696d6500000000000000000000000000006044820152606401610a8b565b60035473ffffffffffffffffffffffffffffffffffffffff8881169116148015610c5a5750600034115b15610d5057853414610cc8576040517f08c379a000000000000000000000000000000000000000000000000000000000815260206004820152601b60248201527f6d73672e76616c7565206d757374206d6174636820616d6f756e7400000000006044820152606401610a8b565b600360009054906101000a900473ffffffffffffffffffffffffffffffffffffffff1673ffffffffffffffffffffffffffffffffffffffff1663d0e30db0346040518263ffffffff1660e01b81526004016000604051808303818588803b158015610d3257600080fd5b505af1158015610d46573d6000803e3d6000fd5b5050505050610d72565b610d7273ffffffffffffffffffffffffffffffffffffffff8816333089611b99565b600354604080518881526020810188905267ffffffffffffffff87168183015263ffffffff868116606083015273ffffffffffffffffffffffffffffffffffffffff8c8116608084015292513394938c16937c01000000000000000000000000000000000000000000000000000000009004909116917ffc53c5b967d467d4136291c639720626f3d6dda97b4364da813e6858ad48a721919081900360a00190a460016003601c8282829054906101000a900463ffffffff16610e359190613e07565b92506101000a81548163ffffffff021916908363ffffffff160217905550610e97600080547fffffffffffffffffffffff00ffffffffffffffffffffffffffffffffffffffff1674010000000000000000000000000000000000000000179055565b5050505050505050565b610ea96119a3565b60058054600181018255600091909152600381027f036b6384b5eca791c62761152d0c79bb0604c104a5fb6f4eb0703f3154bb3db181018490557f036b6384b5eca791c62761152d0c79bb0604c104a5fb6f4eb0703f3154bb3db001828155604080518581526020810185905263ffffffff8416917fc86ba04c55bc5eb2f2876b91c438849a296dbec7b08751c3074d92e04f0a77af910160405180910390a250505050565b610f57611b15565b610f84600080547fffffffffffffffffffffff00ffffffffffffffffffffffffffffffffffffffff169055565b60006040518061010001604052808c73ffffffffffffffffffffffffffffffffffffffff1681526020018b73ffffffffffffffffffffffffffffffffffffffff1681526020018a73ffffffffffffffffffffffffffffffffffffffff1681526020018981526020018681526020018567ffffffffffffffff1681526020018467ffffffffffffffff1681526020018363ffffffff168152509050600061102982611c75565b9050600061103b82848b886000611ca5565b905061104c82828a88876000611f33565b505050611093600080547fffffffffffffffffffffff00ffffffffffffffffffffffffffffffffffffffff1674010000000000000000000000000000000000000000179055565b50505050505050505050565b6110a76119a3565b600581815481106110ba576110ba613e2f565b60009182526020822060039091020181815560010181905560405182917f3569b846531b754c99cb80df3f49cd72fa6fe106aaee5ab8e0caf35a9d7ce88d91a250565b600880547fffffffffffffffffffffff00ffffffffffffffffffffffffffffffffffffffff1674010000000000000000000000000000000000000000179055611144611b15565b611171600080547fffffffffffffffffffffff00ffffffffffffffffffffffffffffffffffffffff169055565b60075473ffffffffffffffffffffffffffffffffffffffff1633146111f2576040517f08c379a000000000000000000000000000000000000000000000000000000000815260206004820152601060248201527f4e6f742066726f6d2066784368696c64000000000000000000000000000000006044820152606401610a8b565b60015473ffffffffffffffffffffffffffffffffffffffff848116911614611276576040517f08c379a000000000000000000000000000000000000000000000000000000000815260206004820152601660248201527f4e6f742066726f6d206d61696e6e65742061646d696e000000000000000000006044820152606401610a8b565b60003073ffffffffffffffffffffffffffffffffffffffff16838360405161129f929190613e5e565b600060405180830381855af49150503d80600081146112da576040519150601f19603f3d011682016040523d82523d6000602084013e6112df565b606091505b505090508061134a576040517f08c379a000000000000000000000000000000000000000000000000000000000815260206004820152601360248201527f64656c656761746563616c6c206661696c6564000000000000000000000000006044820152606401610a8b565b5061138f600080547fffffffffffffffffffffff00ffffffffffffffffffffffffffffffffffffffff1674010000000000000000000000000000000000000000179055565b5050600880547fffffffffffffffffffffff00ffffffffffffffffffffffffffffffffffffffff1690555050565b60603415611427576040517f08c379a000000000000000000000000000000000000000000000000000000000815260206004820152601b60248201527f4f6e6c79206d756c746963616c6c207769746820302076616c756500000000006044820152606401610a8b565b8167ffffffffffffffff81111561144057611440613851565b60405190808252806020026020018201604052801561147357816020015b606081526020019060019003908161145e5790505b50905060005b82811015611590576000803086868581811061149757611497613e2f565b90506020028101906114a99190613e6e565b6040516114b7929190613e5e565b600060405180830381855af49150503d80600081146114f2576040519150601f19603f3d011682016040523d82523d6000602084013e6114f7565b606091505b50915091508161155d5760448151101561151057600080fd5b6004810190508080602001905181019061152a9190613ed3565b6040517f08c379a0000000000000000000000000000000000000000000000000000000008152600401610a8b9190613f41565b8084848151811061157057611570613e2f565b60200260200101819052505050808061158890613f54565b915050611479565b5092915050565b61159f6119a3565b600780547fffffffffffffffffffffffff00000000000000000000000000000000000000001673ffffffffffffffffffffffffffffffffffffffff83169081179091556040517f573834b6d6901b74ef64eeb676a0b99d7946df822b7021e44ee0da19d846c49590600090a250565b611616611b15565b611643600080547fffffffffffffffffffffff00ffffffffffffffffffffffffffffffffffffffff169055565b61164e838383612058565b611692600080547fffffffffffffffffffffff00ffffffffffffffffffffffffffffffffffffffff1674010000000000000000000000000000000000000000179055565b505050565b61169f6119a3565b6107608161241e565b6116b0611b15565b6116dd600080547fffffffffffffffffffffff00ffffffffffffffffffffffffffffffffffffffff169055565b6116ea844685858561250a565b8373ffffffffffffffffffffffffffffffffffffffff168263ffffffff167fb9de16bf376724405019a10ef4fedac57fecd292bf86c08d81d7c42d394d5d378584604051611739929190613f8d565b60405180910390a3611785600080547fffffffffffffffffffffff00ffffffffffffffffffffffffffffffffffffffff1674010000000000000000000000000000000000000000179055565b50505050565b6005818154811061179b57600080fd5b60009182526020909120600390910201805460019091015490915082565b6117c1611b15565b6117ee600080547fffffffffffffffffffffff00ffffffffffffffffffffffffffffffffffffffff169055565b6118008a8a8a8a8a8a8a8a8a8a6125a7565b611093600080547fffffffffffffffffffffff00ffffffffffffffffffffffffffffffffffffffff1674010000000000000000000000000000000000000000179055565b61184c611b15565b611879600080547fffffffffffffffffffffff00ffffffffffffffffffffffffffffffffffffffff169055565b6118868c8785858561250a565b60006040518061010001604052808e73ffffffffffffffffffffffffffffffffffffffff1681526020018d73ffffffffffffffffffffffffffffffffffffffff1681526020018c73ffffffffffffffffffffffffffffffffffffffff1681526020018b81526020018881526020018767ffffffffffffffff1681526020018667ffffffffffffffff1681526020018463ffffffff168152509050600061192b82611c75565b9050600061193d82848d896000611ca5565b905061194e82828c89876000611f33565b505050611995600080547fffffffffffffffffffffff00ffffffffffffffffffffffffffffffffffffffff1674010000000000000000000000000000000000000000179055565b505050505050505050505050565b60085474010000000000000000000000000000000000000000900460ff16611a27576040517f08c379a000000000000000000000000000000000000000000000000000000000815260206004820181905260248201527f4d7573742063616c6c2070726f636573734d65737361676546726f6d526f6f746044820152606401610a8b565b565b73ffffffffffffffffffffffffffffffffffffffff8116611aa6576040517f08c379a000000000000000000000000000000000000000000000000000000000815260206004820152601460248201527f4261642068756220706f6f6c20616464726573730000000000000000000000006044820152606401610a8b565b600280547fffffffffffffffffffffffff00000000000000000000000000000000000000001673ffffffffffffffffffffffffffffffffffffffff83169081179091556040517f1f17a88f67b0f49060a34bec1a4723a563620e6aa265eb640b5046dcee0759a090600090a250565b60005474010000000000000000000000000000000000000000900460ff16611a27576040517f08c379a000000000000000000000000000000000000000000000000000000000815260206004820152601f60248201527f5265656e7472616e637947756172643a207265656e7472616e742063616c6c006044820152606401610a8b565b60405173ffffffffffffffffffffffffffffffffffffffff808516602483015283166044820152606481018290526117859085907f23b872dd00000000000000000000000000000000000000000000000000000000906084015b604080517fffffffffffffffffffffffffffffffffffffffffffffffffffffffffffffffe08184030181529190526020810180517bffffffffffffffffffffffffffffffffffffffffffffffffffffffff167fffffffff000000000000000000000000000000000000000000000000000000009093169290921790915261271f565b600081604051602001611c889190613fb0565b604051602081830303815290604052805190602001209050919050565b60006706f05b59d3b200008367ffffffffffffffff16108015611cdd57506706f05b59d3b200008560a0015167ffffffffffffffff16105b611d43576040517f08c379a000000000000000000000000000000000000000000000000000000000815260206004820152600c60248201527f696e76616c6964206665657300000000000000000000000000000000000000006044820152606401610a8b565b606085015160008781526006602052604090205410611dbe576040517f08c379a000000000000000000000000000000000000000000000000000000000815260206004820152600c60248201527f72656c61792066696c6c656400000000000000000000000000000000000000006044820152606401610a8b565b83611dcb57506000611f2a565b611de484848760a00151611ddf919061403c565b61282b565b60008781526006602052604081205460608801519293508692611e07919061405f565b905082811015611e3057809250611e2d83868960a00151611e28919061403c565b61286c565b91505b60008881526006602052604081208054859290611e4e908490614076565b9091555050600354604088015173ffffffffffffffffffffffffffffffffffffffff90811691161415611eba5783611ea7576040870151611ea79073ffffffffffffffffffffffffffffffffffffffff16333085611b99565b611eb5876020015183612895565b611f27565b83611ef457611eb5338860200151848a6040015173ffffffffffffffffffffffffffffffffffffffff16611b99909392919063ffffffff16565b611f27876020015183896040015173ffffffffffffffffffffffffffffffffffffffff166129a19092919063ffffffff16565b50505b95945050505050565b816000015173ffffffffffffffffffffffffffffffffffffffff163373ffffffffffffffffffffffffffffffffffffffff16877fedf6b64f49870333280b7dcf98ec56c6b9ff7cf50aa9be7caecb3874e961849f8560600151600660008c8152602001908152602001600020548a8a89608001518b8b60a001518c60e001518d604001518e602001518e6040516120489b9a999897969594939291909a8b5260208b019990995260408a01979097526060890195909552608088019390935267ffffffffffffffff91821660a08801521660c086015263ffffffff1660e085015273ffffffffffffffffffffffffffffffffffffffff9081166101008501521661012083015215156101408201526101600190565b60405180910390a4505050505050565b468260200151146120c5576040517f08c379a000000000000000000000000000000000000000000000000000000000815260206004820152600f60248201527f496e76616c696420636861696e496400000000000000000000000000000000006044820152606401610a8b565b8160400151518260a001515114612138576040517f08c379a000000000000000000000000000000000000000000000000000000000815260206004820152600c60248201527f696e76616c6964206c65616600000000000000000000000000000000000000006044820152606401610a8b565b600060058463ffffffff168154811061215357612153613e2f565b90600052602060002090600302019050612172816001015484846129f7565b6121d8576040517f08c379a000000000000000000000000000000000000000000000000000000000815260206004820152600960248201527f4261642050726f6f6600000000000000000000000000000000000000000000006044820152606401610a8b565b6121ef81600201846060015163ffffffff16612a32565b15612256576040517f08c379a000000000000000000000000000000000000000000000000000000000815260206004820152600f60248201527f416c726561647920636c61696d656400000000000000000000000000000000006044820152606401610a8b565b61226d81600201846060015163ffffffff16612a73565b60005b8360400151518163ffffffff16101561231957600084604001518263ffffffff16815181106122a1576122a1613e2f565b602002602001015190506000811115612306576123068560a001518363ffffffff16815181106122d3576122d3613e2f565b602002602001015182876080015173ffffffffffffffffffffffffffffffffffffffff166129a19092919063ffffffff16565b50806123118161408e565b915050612270565b508251156123b25761232a83612ab1565b826080015173ffffffffffffffffffffffffffffffffffffffff16836060015163ffffffff1684602001517f828fc203220356df8f072a91681caee7d5c75095e2a95e80ed5a14b384697f718660000151336040516123a992919091825273ffffffffffffffffffffffffffffffffffffffff16602082015260400190565b60405180910390a45b826060015163ffffffff168463ffffffff1684602001517ff8bd640004bcec1b89657020f561d0b070cbdf662d0b158db9dccb0a8301bfab8660000151876040015188608001518960a0015133604051612410959493929190614133565b60405180910390a450505050565b73ffffffffffffffffffffffffffffffffffffffff811661249b576040517f08c379a000000000000000000000000000000000000000000000000000000000815260206004820152601960248201527f4261642062726964676520726f757465722061646472657373000000000000006044820152606401610a8b565b600180547fffffffffffffffffffffffff00000000000000000000000000000000000000001673ffffffffffffffffffffffffffffffffffffffff83169081179091556040517fa9e8c42c9e7fca7f62755189a16b2f5314d43d8fb24e91ba54e6d65f9314e84990600090a250565b60408051608060208201819052601160a08301527f4143524f53532d56322d4645452d312e3000000000000000000000000000000060c083015267ffffffffffffffff86169282019290925263ffffffff8416606082015290810185905260009060e001604051602081830303815290604052805190602001209050600061259182612bf5565b905061259e878285612c30565b50505050505050565b60006040518061010001604052808c73ffffffffffffffffffffffffffffffffffffffff1681526020018b73ffffffffffffffffffffffffffffffffffffffff1681526020018a73ffffffffffffffffffffffffffffffffffffffff1681526020018981526020018881526020018767ffffffffffffffff1681526020018667ffffffffffffffff1681526020018563ffffffff16815250905061267660058463ffffffff168154811061265d5761265d613e2f565b9060005260206000209060030201600001548284612ca1565b6126dc576040517f08c379a000000000000000000000000000000000000000000000000000000000815260206004820152600d60248201527f496e76616c69642070726f6f66000000000000000000000000000000000000006044820152606401610a8b565b60006126e782611c75565b905060006126fe8284856060015160006001611ca5565b90506127108282600080876001611f33565b50505050505050505050505050565b6000612781826040518060400160405280602081526020017f5361666545524332303a206c6f772d6c6576656c2063616c6c206661696c65648152508573ffffffffffffffffffffffffffffffffffffffff16612cb99092919063ffffffff16565b805190915015611692578080602001905181019061279f9190614191565b611692576040517f08c379a000000000000000000000000000000000000000000000000000000000815260206004820152602a60248201527f5361666545524332303a204552433230206f7065726174696f6e20646964206e60448201527f6f742073756363656564000000000000000000000000000000000000000000006064820152608401610a8b565b600061283f82670de0b6b3a76400006141ae565b67ffffffffffffffff1661285b84670de0b6b3a76400006141cf565b612865919061423b565b9392505050565b6000670de0b6b3a764000061288183826141ae565b61285b9067ffffffffffffffff16856141cf565b73ffffffffffffffffffffffffffffffffffffffff82163b156128da576003546128d69073ffffffffffffffffffffffffffffffffffffffff1683836129a1565b5050565b6003546040517f2e1a7d4d0000000000000000000000000000000000000000000000000000000081526004810183905273ffffffffffffffffffffffffffffffffffffffff90911690632e1a7d4d90602401600060405180830381600087803b15801561294657600080fd5b505af115801561295a573d6000803e3d6000fd5b505060405173ffffffffffffffffffffffffffffffffffffffff8516925083156108fc02915083906000818181858888f19350505050158015611692573d6000803e3d6000fd5b60405173ffffffffffffffffffffffffffffffffffffffff83166024820152604481018290526116929084907fa9059cbb0000000000000000000000000000000000000000000000000000000090606401611bf3565b6000612a2a828585604051602001612a0f919061424f565b60405160208183030381529060405280519060200120612cc8565b949350505050565b600080612a416101008461423b565b90506000612a51610100856142ea565b6000928352602095909552506040902054600190931b92831690921492915050565b6000612a816101008361423b565b90506000612a91610100846142ea565b600092835260209490945250604090208054600190931b90921790915550565b60085481516080830151612ae09273ffffffffffffffffffffffffffffffffffffffff91821692911690612cde565b600854608082015182516003546040517fd124dc4f00000000000000000000000000000000000000000000000000000000815273ffffffffffffffffffffffffffffffffffffffff938416600482018190526024820193909352908316909114604482015291169063d124dc4f90606401600060405180830381600087803b158015612b6b57600080fd5b505af1158015612b7f573d6000803e3d6000fd5b505050503073ffffffffffffffffffffffffffffffffffffffff16816080015173ffffffffffffffffffffffffffffffffffffffff167ff6003d597c8a5b43987488bd11bfd2ed0c5a14172ae0f7ce18894e7b004915be8360000151604051612bea91815260200190565b60405180910390a350565b6040517f19457468657265756d205369676e6564204d6573736167653a0a3332000000006020820152603c8101829052600090605c01611c88565b612c3b838383612ddc565b611692576040517f08c379a000000000000000000000000000000000000000000000000000000000815260206004820152601160248201527f696e76616c6964207369676e61747572650000000000000000000000000000006044820152606401610a8b565b6000612a2a828585604051602001612a0f9190613fb0565b6060612a2a8484600085612fcb565b600082612cd58584613161565b14949350505050565b6040517fdd62ed3e00000000000000000000000000000000000000000000000000000000815230600482015273ffffffffffffffffffffffffffffffffffffffff8381166024830152600091839186169063dd62ed3e90604401602060405180830381865afa158015612d55573d6000803e3d6000fd5b505050506040513d601f19601f82011682018060405250810190612d799190613d9a565b612d839190614076565b60405173ffffffffffffffffffffffffffffffffffffffff85166024820152604481018290529091506117859085907f095ea7b30000000000000000000000000000000000000000000000000000000090606401611bf3565b6000806000612deb85856131d5565b90925090506000816004811115612e0457612e046142fe565b148015612e3c57508573ffffffffffffffffffffffffffffffffffffffff168273ffffffffffffffffffffffffffffffffffffffff16145b15612e4c57600192505050612865565b6000808773ffffffffffffffffffffffffffffffffffffffff16631626ba7e60e01b8888604051602401612e8192919061432d565b604080517fffffffffffffffffffffffffffffffffffffffffffffffffffffffffffffffe08184030181529181526020820180517bffffffffffffffffffffffffffffffffffffffffffffffffffffffff167fffffffff00000000000000000000000000000000000000000000000000000000909416939093179092529051612f0a9190614346565b600060405180830381855afa9150503d8060008114612f45576040519150601f19603f3d011682016040523d82523d6000602084013e612f4a565b606091505b5091509150818015612f5d575080516020145b8015612fbf575080517f1626ba7e0000000000000000000000000000000000000000000000000000000090612f9b9083016020908101908401614362565b7fffffffff0000000000000000000000000000000000000000000000000000000016145b98975050505050505050565b60608247101561305d576040517f08c379a000000000000000000000000000000000000000000000000000000000815260206004820152602660248201527f416464726573733a20696e73756666696369656e742062616c616e636520666f60448201527f722063616c6c00000000000000000000000000000000000000000000000000006064820152608401610a8b565b73ffffffffffffffffffffffffffffffffffffffff85163b6130db576040517f08c379a000000000000000000000000000000000000000000000000000000000815260206004820152601d60248201527f416464726573733a2063616c6c20746f206e6f6e2d636f6e74726163740000006044820152606401610a8b565b6000808673ffffffffffffffffffffffffffffffffffffffff1685876040516131049190614346565b60006040518083038185875af1925050503d8060008114613141576040519150601f19603f3d011682016040523d82523d6000602084013e613146565b606091505b5091509150613156828286613245565b979650505050505050565b600081815b84518110156131cd57600085828151811061318357613183613e2f565b602002602001015190508083116131a957600083815260208290526040902092506131ba565b600081815260208490526040902092505b50806131c581613f54565b915050613166565b509392505050565b60008082516041141561320c5760208301516040840151606085015160001a61320087828585613298565b9450945050505061323e565b825160401415613236576020830151604084015161322b8683836133b0565b93509350505061323e565b506000905060025b9250929050565b60608315613254575081612865565b8251156132645782518084602001fd5b816040517f08c379a0000000000000000000000000000000000000000000000000000000008152600401610a8b9190613f41565b6000807f7fffffffffffffffffffffffffffffff5d576e7357a4501ddfe92f46681b20a08311156132cf57506000905060036133a7565b8460ff16601b141580156132e757508460ff16601c14155b156132f857506000905060046133a7565b6040805160008082526020820180845289905260ff881692820192909252606081018690526080810185905260019060a0016020604051602081039080840390855afa15801561334c573d6000803e3d6000fd5b50506040517fffffffffffffffffffffffffffffffffffffffffffffffffffffffffffffffe0015191505073ffffffffffffffffffffffffffffffffffffffff81166133a0576000600192509250506133a7565b9150600090505b94509492505050565b6000807f7fffffffffffffffffffffffffffffffffffffffffffffffffffffffffffffff8316816133e660ff86901c601b614076565b90506133f487828885613298565b935093505050935093915050565b73ffffffffffffffffffffffffffffffffffffffff8116811461076057600080fd5b60006020828403121561343657600080fd5b813561286581613402565b803561344c81613402565b919050565b60006020828403121561346357600080fd5b5035919050565b801515811461076057600080fd5b60008060006060848603121561348d57600080fd5b833561349881613402565b92506020840135915060408401356134af8161346a565b809150509250925092565b803563ffffffff8116811461344c57600080fd5b6000602082840312156134e057600080fd5b612865826134ba565b803567ffffffffffffffff8116811461344c57600080fd5b60008060008060008060c0878903121561351a57600080fd5b863561352581613402565b9550602087013561353581613402565b94506040870135935060608701359250613551608088016134e9565b915061355f60a088016134ba565b90509295509295509295565b6000806040838503121561357e57600080fd5b50508035926020909101359150565b600080604083850312156135a057600080fd5b82356135ab81613402565b946020939093013593505050565b6000806000806000806000806000806101408b8d0312156135d957600080fd5b8a356135e481613402565b995060208b01356135f481613402565b985060408b013561360481613402565b975060608b0135965060808b0135955060a08b0135945060c08b0135935061362e60e08c016134e9565b925061363d6101008c016134e9565b915061364c6101208c016134ba565b90509295989b9194979a5092959850565b6000806000806060858703121561367357600080fd5b84359350602085013561368581613402565b9250604085013567ffffffffffffffff808211156136a257600080fd5b818701915087601f8301126136b657600080fd5b8135818111156136c557600080fd5b8860208285010111156136d757600080fd5b95989497505060200194505050565b600080602083850312156136f957600080fd5b823567ffffffffffffffff8082111561371157600080fd5b818501915085601f83011261372557600080fd5b81358181111561373457600080fd5b8660208260051b850101111561374957600080fd5b60209290920196919550909350505050565b60005b8381101561377657818101518382015260200161375e565b838111156117855750506000910152565b6000815180845261379f81602086016020860161375b565b601f017fffffffffffffffffffffffffffffffffffffffffffffffffffffffffffffffe0169290920160200192915050565b6000602080830181845280855180835260408601915060408160051b870101925083870160005b82811015613844577fffffffffffffffffffffffffffffffffffffffffffffffffffffffffffffffc0888603018452613832858351613787565b945092850192908501906001016137f8565b5092979650505050505050565b7f4e487b7100000000000000000000000000000000000000000000000000000000600052604160045260246000fd5b60405160c0810167ffffffffffffffff811182821017156138a3576138a3613851565b60405290565b604051601f82017fffffffffffffffffffffffffffffffffffffffffffffffffffffffffffffffe016810167ffffffffffffffff811182821017156138f0576138f0613851565b604052919050565b600067ffffffffffffffff82111561391257613912613851565b5060051b60200190565b600082601f83011261392d57600080fd5b8135602061394261393d836138f8565b6138a9565b82815260059290921b8401810191818101908684111561396157600080fd5b8286015b8481101561397c5780358352918301918301613965565b509695505050505050565b600082601f83011261399857600080fd5b813560206139a861393d836138f8565b82815260059290921b840181019181810190868411156139c757600080fd5b8286015b8481101561397c5780356139de81613402565b83529183019183016139cb565b600080600060608486031215613a0057600080fd5b613a09846134ba565b9250602084013567ffffffffffffffff80821115613a2657600080fd5b9085019060c08288031215613a3a57600080fd5b613a42613880565b8235815260208301356020820152604083013582811115613a6257600080fd5b613a6e8982860161391c565b604083015250613a80606084016134ba565b6060820152613a9160808401613441565b608082015260a083013582811115613aa857600080fd5b613ab489828601613987565b60a08301525093506040860135915080821115613ad057600080fd5b50613add8682870161391c565b9150509250925092565b600067ffffffffffffffff821115613b0157613b01613851565b50601f017fffffffffffffffffffffffffffffffffffffffffffffffffffffffffffffffe01660200190565b600082601f830112613b3e57600080fd5b8135613b4c61393d82613ae7565b818152846020838601011115613b6157600080fd5b816020850160208301376000918101602001919091529392505050565b60008060008060808587031215613b9457600080fd5b8435613b9f81613402565b9350613bad602086016134e9565b9250613bbb604086016134ba565b9150606085013567ffffffffffffffff811115613bd757600080fd5b613be387828801613b2d565b91505092959194509250565b6000806000806000806000806000806101408b8d031215613c0f57600080fd5b8a35613c1a81613402565b995060208b0135613c2a81613402565b985060408b0135613c3a81613402565b975060608b0135965060808b01359550613c5660a08c016134e9565b9450613c6460c08c016134e9565b9350613c7260e08c016134ba565b9250613c816101008c016134ba565b91506101208b013567ffffffffffffffff811115613c9e57600080fd5b613caa8d828e0161391c565b9150509295989b9194979a5092959850565b6000806000806000806000806000806000806101808d8f031215613cdf57600080fd5b613ce88d613441565b9b50613cf660208e01613441565b9a50613d0460408e01613441565b995060608d0135985060808d0135975060a08d0135965060c08d01359550613d2e60e08e016134e9565b9450613d3d6101008e016134e9565b9350613d4c6101208e016134e9565b9250613d5b6101408e016134ba565b915067ffffffffffffffff6101608e01351115613d7757600080fd5b613d888e6101608f01358f01613b2d565b90509295989b509295989b509295989b565b600060208284031215613dac57600080fd5b5051919050565b7f4e487b7100000000000000000000000000000000000000000000000000000000600052601160045260246000fd5b600063ffffffff83811690831681811015613dff57613dff613db3565b039392505050565b600063ffffffff808316818516808303821115613e2657613e26613db3565b01949350505050565b7f4e487b7100000000000000000000000000000000000000000000000000000000600052603260045260246000fd5b8183823760009101908152919050565b60008083357fffffffffffffffffffffffffffffffffffffffffffffffffffffffffffffffe1843603018112613ea357600080fd5b83018035915067ffffffffffffffff821115613ebe57600080fd5b60200191503681900382131561323e57600080fd5b600060208284031215613ee557600080fd5b815167ffffffffffffffff811115613efc57600080fd5b8201601f81018413613f0d57600080fd5b8051613f1b61393d82613ae7565b818152856020838501011115613f3057600080fd5b611f2a82602083016020860161375b565b6020815260006128656020830184613787565b60007fffffffffffffffffffffffffffffffffffffffffffffffffffffffffffffffff821415613f8657613f86613db3565b5060010190565b67ffffffffffffffff83168152604060208201526000612a2a6040830184613787565b60006101008201905073ffffffffffffffffffffffffffffffffffffffff80845116835280602085015116602084015280604085015116604084015250606083015160608301526080830151608083015260a083015167ffffffffffffffff80821660a08501528060c08601511660c0850152505060e083015161159060e084018263ffffffff169052565b600067ffffffffffffffff808316818516808303821115613e2657613e26613db3565b60008282101561407157614071613db3565b500390565b6000821982111561408957614089613db3565b500190565b600063ffffffff808316818114156140a8576140a8613db3565b6001019392505050565b600081518084526020808501945080840160005b838110156140e2578151875295820195908201906001016140c6565b509495945050505050565b600081518084526020808501945080840160005b838110156140e257815173ffffffffffffffffffffffffffffffffffffffff1687529582019590820190600101614101565b85815260a06020820152600061414c60a08301876140b2565b73ffffffffffffffffffffffffffffffffffffffff8087166040850152838203606085015261417b82876140ed565b9250808516608085015250509695505050505050565b6000602082840312156141a357600080fd5b81516128658161346a565b600067ffffffffffffffff83811690831681811015613dff57613dff613db3565b6000817fffffffffffffffffffffffffffffffffffffffffffffffffffffffffffffffff048311821515161561420757614207613db3565b500290565b7f4e487b7100000000000000000000000000000000000000000000000000000000600052601260045260246000fd5b60008261424a5761424a61420c565b500490565b6020815281516020820152602082015160408201526000604083015160c0606084015261427f60e08401826140b2565b905063ffffffff606085015116608084015273ffffffffffffffffffffffffffffffffffffffff60808501511660a084015260a08401517fffffffffffffffffffffffffffffffffffffffffffffffffffffffffffffffe08483030160c0850152611f2a82826140ed565b6000826142f9576142f961420c565b500690565b7f4e487b7100000000000000000000000000000000000000000000000000000000600052602160045260246000fd5b828152604060208201526000612a2a6040830184613787565b6000825161435881846020870161375b565b9190910192915050565b60006020828403121561437457600080fd5b81517fffffffff000000000000000000000000000000000000000000000000000000008116811461286557600080fdfea264697066735822122057814f8438e18cbe0bb4ce14fd5312f99122d72bf404b9dac176163188539c3464736f6c634300080b0033",
  "devdoc": {
    "kind": "dev",
    "methods": {
      "chainId()": {
        "details": "Some L2s like ZKSync don't support the CHAIN_ID opcode so we allow the implementer to override this."
      },
      "constructor": {
        "params": {
          "_crossDomainAdmin": "Cross domain admin to set. Can be changed by admin.",
          "_fxChild": "FxChild contract, changeable by Admin.",
          "_hubPool": "Hub pool address to set. Can be changed by admin.",
          "_polygonTokenBridger": "Token routing contract that sends tokens from here to HubPool. Changeable by Admin.",
          "_wmaticAddress": "Replaces _wethAddress for this network since MATIC is the gas token and sent via msg.value on Polygon.",
          "timerAddress": "Timer address to set."
        }
      },
      "deposit(address,address,uint256,uint256,uint64,uint32)": {
        "params": {
          "amount": "Amount of tokens to deposit. Will be amount of tokens to receive less fees.",
          "destinationChainId": "Denotes network where user will receive funds from SpokePool by a relayer.",
          "originToken": "Token to lock into this contract to initiate deposit.",
          "quoteTimestamp": "Timestamp used by relayers to compute this deposit's realizedLPFeePct which is paid to LP pool on HubPool.",
          "recipient": "Address to receive funds at on destination chain.",
          "relayerFeePct": "% of deposit amount taken out to incentivize a fast relayer."
        }
      },
      "emergencyDeleteRootBundle(uint256)": {
        "params": {
          "rootBundleId": "Index of the root bundle that needs to be deleted. Note: this is intentionally a uint256 to ensure that a small input range doesn't limit which indices this method is able to reach."
        }
      },
      "executeRelayerRefundRoot(uint32,(uint256,uint256,uint256[],uint32,address,address[]),bytes32[])": {
        "params": {
          "proof": "Inclusion proof for this leaf in relayer refund root in root bundle.",
          "relayerRefundLeaf": "Contains all data neccessary to reconstruct leaf contained in root bundle and to refund relayer. This data structure is explained in detail in the SpokePoolInterface.",
          "rootBundleId": "Unique ID of root bundle containing relayer refund root that this leaf is contained in."
        }
      },
      "executeSlowRelayRoot(address,address,address,uint256,uint256,uint64,uint64,uint32,uint32,bytes32[])": {
        "params": {
          "amount": "Full size of the deposit.",
          "depositId": "Unique deposit ID on origin spoke pool.",
          "depositor": "Depositor on origin chain who set this chain as the destination chain.",
          "destinationToken": "Token to send to recipient. Should be mapped to the origin token, origin chain ID and this chain ID via a mapping on the HubPool.",
          "originChainId": "Chain of SpokePool where deposit originated.",
          "proof": "Inclusion proof for this leaf in slow relay root in root bundle.",
          "realizedLpFeePct": "Fee % based on L1 HubPool utilization at deposit quote time. Deterministic based on quote time.",
          "recipient": "Specified recipient on this chain.",
          "relayerFeePct": "Original fee % to keep as relayer set by depositor.",
          "rootBundleId": "Unique ID of root bundle containing slow relay root that this leaf is contained in."
        }
      },
      "fillRelay(address,address,address,uint256,uint256,uint256,uint256,uint64,uint64,uint32)": {
        "params": {
          "amount": "Full size of the deposit.",
          "depositId": "Unique deposit ID on origin spoke pool.",
          "depositor": "Depositor on origin chain who set this chain as the destination chain.",
          "destinationToken": "Token to send to recipient. Should be mapped to the origin token, origin chain ID and this chain ID via a mapping on the HubPool.",
          "maxTokensToSend": "Max amount of tokens to send recipient. If higher than amount, then caller will send recipient the full relay amount.",
          "originChainId": "Chain of SpokePool where deposit originated.",
          "realizedLpFeePct": "Fee % based on L1 HubPool utilization at deposit quote time. Deterministic based on quote time.",
          "recipient": "Specified recipient on this chain.",
          "relayerFeePct": "Fee % to keep as relayer, specified by depositor.",
          "repaymentChainId": "Chain of SpokePool where relayer wants to be refunded after the challenge window has passed."
        }
      },
      "fillRelayWithUpdatedFee(address,address,address,uint256,uint256,uint256,uint256,uint64,uint64,uint64,uint32,bytes)": {
        "params": {
          "amount": "Full size of the deposit.",
          "depositId": "Unique deposit ID on origin spoke pool.",
          "depositor": "Depositor on origin chain who set this chain as the destination chain.",
          "depositorSignature": "Depositor-signed message containing updated fee %.",
          "destinationToken": "Token to send to recipient. Should be mapped to the origin token, origin chain ID and this chain ID via a mapping on the HubPool.",
          "maxTokensToSend": "Max amount of tokens to send recipient. If higher than amount, then caller will send recipient the full relay amount.",
          "newRelayerFeePct": "New fee % to keep as relayer also specified by depositor.",
          "originChainId": "Chain of SpokePool where deposit originated.",
          "realizedLpFeePct": "Fee % based on L1 HubPool utilization at deposit quote time. Deterministic based on quote time.",
          "recipient": "Specified recipient on this chain.",
          "relayerFeePct": "Original fee % to keep as relayer set by depositor.",
          "repaymentChainId": "Chain of SpokePool where relayer wants to be refunded after the challenge window has passed."
        }
      },
      "getCurrentTime()": {
        "returns": {
          "_0": "uint for the current Testable timestamp."
        }
      },
      "processMessageFromRoot(uint256,address,bytes)": {
        "details": "stateId value isn't used because it isn't relevant for this method. It doesn't care what state sync triggered this call.",
        "params": {
          "data": "ABI encoded function call to execute on this contract.",
          "rootMessageSender": "Original L1 sender of data."
        }
      },
      "relayRootBundle(bytes32,bytes32)": {
        "params": {
          "relayerRefundRoot": "Merkle root containing relayer refund leaves that can be individually executed via executeRelayerRefundRoot().",
          "slowRelayRoot": "Merkle root containing slow relay fulfillment leaves that can be individually executed via executeSlowRelayRoot()."
        }
      },
      "setCrossDomainAdmin(address)": {
        "params": {
          "newCrossDomainAdmin": "New cross domain admin."
        }
      },
      "setCurrentTime(uint256)": {
        "details": "Will revert if not running in test mode.",
        "params": {
          "time": "timestamp to set current Testable time to."
        }
      },
      "setDepositQuoteTimeBuffer(uint32)": {
        "params": {
          "newDepositQuoteTimeBuffer": "New quote time buffer."
        }
      },
      "setEnableRoute(address,uint256,bool)": {
        "params": {
          "destinationChainId": "Chain ID for where depositor wants to receive funds.",
          "enabled": "True to enable deposits, False otherwise.",
          "originToken": "Token that depositor can deposit to this contract."
        }
      },
      "setFxChild(address)": {
        "params": {
          "newFxChild": "New FxChild."
        }
      },
      "setHubPool(address)": {
        "params": {
          "newHubPool": "New hub pool."
        }
      },
      "setPolygonTokenBridger(address)": {
        "params": {
          "newPolygonTokenBridger": "New Polygon Token Bridger contract."
        }
      },
      "speedUpDeposit(address,uint64,uint32,bytes)": {
        "params": {
          "depositId": "Deposit to update fee for that originated in this contract.",
          "depositor": "Signer of the update fee message who originally submitted the deposit. If the deposit doesn't exist, then the relayer will not be able to fill any relay, so the caller should validate that the depositor did in fact submit a relay.",
          "depositorSignature": "Signed message containing the depositor address, this contract chain ID, the updated relayer fee %, and the deposit ID. This signature is produced by signing a hash of data according to the EIP-191 standard. See more in the _verifyUpdateRelayerFeeMessage() comments.",
          "newRelayerFeePct": "New relayer fee that relayers can use."
        }
      }
    },
    "version": 1
  },
  "userdoc": {
    "kind": "user",
    "methods": {
      "chainId()": {
        "notice": "Returns chain ID for this network."
      },
      "constructor": {
        "notice": "Construct the Polygon SpokePool."
      },
      "deposit(address,address,uint256,uint256,uint64,uint32)": {
        "notice": "Called by user to bridge funds from origin to destination chain. Depositor will effectively lock tokens in this contract and receive a destination token on the destination chain. The origin => destination token mapping is stored on the L1 HubPool.The caller must first approve this contract to spend amount of originToken.The originToken => destinationChainId must be enabled.This method is payable because the caller is able to deposit ETH if the originToken is WETH and this function will handle wrapping ETH."
      },
      "emergencyDeleteRootBundle(uint256)": {
        "notice": "This method is intended to only be used in emergencies where a bad root bundle has reached the SpokePool."
      },
      "executeRelayerRefundRoot(uint32,(uint256,uint256,uint256[],uint32,address,address[]),bytes32[])": {
        "notice": "Executes a relayer refund leaf stored as part of a root bundle. Will send the relayer the amount they sent to the recipient plus a relayer fee."
      },
      "executeSlowRelayRoot(address,address,address,uint256,uint256,uint64,uint64,uint32,uint32,bytes32[])": {
        "notice": "Executes a slow relay leaf stored as part of a root bundle. Will send the full amount remaining in the relay to the recipient, less fees."
      },
      "fillRelay(address,address,address,uint256,uint256,uint256,uint256,uint64,uint64,uint32)": {
        "notice": "Called by relayer to fulfill part of a deposit by sending destination tokens to the receipient. Relayer is expected to pass in unique identifying information for deposit that they want to fulfill, and this relay submission will be validated by off-chain data workers who can dispute this relay if any part is invalid. If the relay is valid, then the relayer will be refunded on their desired repayment chain. If relay is invalid, then relayer will not receive any refund.All of the deposit data can be found via on-chain events from the origin SpokePool, except for the realizedLpFeePct which is a function of the HubPool's utilization at the deposit quote time. This fee % is deterministic based on the quote time, so the relayer should just compute it using the canonical algorithm as described in a UMIP linked to the HubPool's identifier."
      },
      "fillRelayWithUpdatedFee(address,address,address,uint256,uint256,uint256,uint256,uint64,uint64,uint64,uint32,bytes)": {
        "notice": "Called by relayer to execute same logic as calling fillRelay except that relayer is using an updated relayer fee %. The fee % must have been emitted in a message cryptographically signed by the depositor.By design, the depositor probably emitted the message with the updated fee by calling speedUpRelay()."
      },
      "getCurrentTime()": {
        "notice": "Gets the current time. Will return the last time set in `setCurrentTime` if running in test mode. Otherwise, it will return the block timestamp."
      },
      "processMessageFromRoot(uint256,address,bytes)": {
        "notice": "Called by FxChild upon receiving L1 message that targets this contract. Performs an additional check that the L1 caller was the expected cross domain admin, and then delegate calls.Polygon bridge only executes this external function on the target Polygon contract when relaying messages from L1, so all functions on this SpokePool are expected to originate via this call."
      },
      "relayRootBundle(bytes32,bytes32)": {
        "notice": "This method stores a new root bundle in this contract that can be executed to refund relayers, fulfill slow relays, and send funds back to the HubPool on L1. This method can only be called by the admin and is designed to be called as part of a cross-chain message from the HubPool's executeRootBundle method."
      },
      "setCrossDomainAdmin(address)": {
        "notice": "Change cross domain admin address. Callable by admin only."
      },
      "setCurrentTime(uint256)": {
        "notice": "Sets the current time."
      },
      "setDepositQuoteTimeBuffer(uint32)": {
        "notice": "Change allowance for deposit quote time to differ from current block time. Callable by admin only."
      },
      "setEnableRoute(address,uint256,bool)": {
        "notice": "Enable/Disable an origin token => destination chain ID route for deposits. Callable by admin only."
      },
      "setFxChild(address)": {
        "notice": "Change FxChild address. Callable only by admin via processMessageFromRoot."
      },
      "setHubPool(address)": {
        "notice": "Change L1 hub pool address. Callable by admin only."
      },
      "setPolygonTokenBridger(address)": {
        "notice": "Change polygonTokenBridger address. Callable only by admin via processMessageFromRoot."
      },
      "speedUpDeposit(address,uint64,uint32,bytes)": {
        "notice": "Convenience method that depositor can use to signal to relayer to use updated fee.Relayer should only use events emitted by this function to submit fills with updated fees, otherwise they risk their fills getting disputed for being invalid, for example if the depositor never actually signed the update fee message.This function will revert if the depositor did not sign a message containing the updated fee for the deposit ID stored in this contract. If the deposit ID is for another contract, or the depositor address is incorrect, or the updated fee is incorrect, then the signature will not match and this function will revert."
      }
    },
    "notice": "Polygon specific SpokePool.",
    "version": 1
  },
  "storageLayout": {
    "storage": [
      {
        "astId": 5884,
        "contract": "contracts/Polygon_SpokePool.sol:Polygon_SpokePool",
        "label": "timerAddress",
        "offset": 0,
        "slot": "0",
        "type": "t_address"
      },
      {
        "astId": 7114,
        "contract": "contracts/Polygon_SpokePool.sol:Polygon_SpokePool",
        "label": "_notEntered",
        "offset": 20,
        "slot": "0",
        "type": "t_bool"
      },
      {
        "astId": 8200,
        "contract": "contracts/Polygon_SpokePool.sol:Polygon_SpokePool",
        "label": "crossDomainAdmin",
        "offset": 0,
        "slot": "1",
        "type": "t_address"
      },
      {
        "astId": 8202,
        "contract": "contracts/Polygon_SpokePool.sol:Polygon_SpokePool",
        "label": "hubPool",
        "offset": 0,
        "slot": "2",
        "type": "t_address"
      },
      {
        "astId": 8205,
        "contract": "contracts/Polygon_SpokePool.sol:Polygon_SpokePool",
        "label": "weth",
        "offset": 0,
        "slot": "3",
        "type": "t_contract(WETH9)10698"
      },
      {
        "astId": 8207,
        "contract": "contracts/Polygon_SpokePool.sol:Polygon_SpokePool",
        "label": "deploymentTime",
        "offset": 20,
        "slot": "3",
        "type": "t_uint32"
      },
      {
        "astId": 8210,
        "contract": "contracts/Polygon_SpokePool.sol:Polygon_SpokePool",
        "label": "depositQuoteTimeBuffer",
        "offset": 24,
        "slot": "3",
        "type": "t_uint32"
      },
      {
        "astId": 8212,
        "contract": "contracts/Polygon_SpokePool.sol:Polygon_SpokePool",
        "label": "numberOfDeposits",
        "offset": 28,
        "slot": "3",
        "type": "t_uint32"
      },
      {
        "astId": 8218,
        "contract": "contracts/Polygon_SpokePool.sol:Polygon_SpokePool",
        "label": "enabledDepositRoutes",
        "offset": 0,
        "slot": "4",
        "type": "t_mapping(t_address,t_mapping(t_uint256,t_bool))"
      },
      {
        "astId": 8231,
        "contract": "contracts/Polygon_SpokePool.sol:Polygon_SpokePool",
        "label": "rootBundles",
        "offset": 0,
        "slot": "5",
        "type": "t_array(t_struct(RootBundle)8227_storage)dyn_storage"
      },
      {
        "astId": 8235,
        "contract": "contracts/Polygon_SpokePool.sol:Polygon_SpokePool",
        "label": "relayFills",
        "offset": 0,
        "slot": "6",
        "type": "t_mapping(t_bytes32,t_uint256)"
      },
      {
        "astId": 7957,
        "contract": "contracts/Polygon_SpokePool.sol:Polygon_SpokePool",
        "label": "fxChild",
        "offset": 0,
        "slot": "7",
        "type": "t_address"
      },
      {
        "astId": 7960,
        "contract": "contracts/Polygon_SpokePool.sol:Polygon_SpokePool",
        "label": "polygonTokenBridger",
        "offset": 0,
        "slot": "8",
        "type": "t_contract(PolygonTokenBridger)7928"
      },
      {
        "astId": 7963,
        "contract": "contracts/Polygon_SpokePool.sol:Polygon_SpokePool",
        "label": "callValidated",
        "offset": 20,
        "slot": "8",
        "type": "t_bool"
      }
    ],
    "types": {
      "t_address": {
        "encoding": "inplace",
        "label": "address",
        "numberOfBytes": "20"
      },
      "t_array(t_struct(RootBundle)8227_storage)dyn_storage": {
        "base": "t_struct(RootBundle)8227_storage",
        "encoding": "dynamic_array",
        "label": "struct SpokePool.RootBundle[]",
        "numberOfBytes": "32"
      },
      "t_bool": {
        "encoding": "inplace",
        "label": "bool",
        "numberOfBytes": "1"
      },
      "t_bytes32": {
        "encoding": "inplace",
        "label": "bytes32",
        "numberOfBytes": "32"
      },
      "t_contract(PolygonTokenBridger)7928": {
        "encoding": "inplace",
        "label": "contract PolygonTokenBridger",
        "numberOfBytes": "20"
      },
      "t_contract(WETH9)10698": {
        "encoding": "inplace",
        "label": "contract WETH9",
        "numberOfBytes": "20"
      },
      "t_mapping(t_address,t_mapping(t_uint256,t_bool))": {
        "encoding": "mapping",
        "key": "t_address",
        "label": "mapping(address => mapping(uint256 => bool))",
        "numberOfBytes": "32",
        "value": "t_mapping(t_uint256,t_bool)"
      },
      "t_mapping(t_bytes32,t_uint256)": {
        "encoding": "mapping",
        "key": "t_bytes32",
        "label": "mapping(bytes32 => uint256)",
        "numberOfBytes": "32",
        "value": "t_uint256"
      },
      "t_mapping(t_uint256,t_bool)": {
        "encoding": "mapping",
        "key": "t_uint256",
        "label": "mapping(uint256 => bool)",
        "numberOfBytes": "32",
        "value": "t_bool"
      },
      "t_mapping(t_uint256,t_uint256)": {
        "encoding": "mapping",
        "key": "t_uint256",
        "label": "mapping(uint256 => uint256)",
        "numberOfBytes": "32",
        "value": "t_uint256"
      },
      "t_struct(RootBundle)8227_storage": {
        "encoding": "inplace",
        "label": "struct SpokePool.RootBundle",
        "members": [
          {
            "astId": 8220,
            "contract": "contracts/Polygon_SpokePool.sol:Polygon_SpokePool",
            "label": "slowRelayRoot",
            "offset": 0,
            "slot": "0",
            "type": "t_bytes32"
          },
          {
            "astId": 8222,
            "contract": "contracts/Polygon_SpokePool.sol:Polygon_SpokePool",
            "label": "relayerRefundRoot",
            "offset": 0,
            "slot": "1",
            "type": "t_bytes32"
          },
          {
            "astId": 8226,
            "contract": "contracts/Polygon_SpokePool.sol:Polygon_SpokePool",
            "label": "claimedBitmap",
            "offset": 0,
            "slot": "2",
            "type": "t_mapping(t_uint256,t_uint256)"
          }
        ],
        "numberOfBytes": "96"
      },
      "t_uint256": {
        "encoding": "inplace",
        "label": "uint256",
        "numberOfBytes": "32"
      },
      "t_uint32": {
        "encoding": "inplace",
        "label": "uint32",
        "numberOfBytes": "4"
      }
    }
  }
}