{
  "address": "0x8D7Eb61CAA4889c152f27Bb8108144DaCC9B01Db",
  "abi": [
    {
      "inputs": [
        {
          "internalType": "address",
          "name": "_destination",
          "type": "address"
        },
        {
          "internalType": "contract PolygonRegistry",
          "name": "_polygonRegistry",
          "type": "address"
        },
        {
          "internalType": "contract WETH9",
          "name": "_l1Weth",
          "type": "address"
        },
        {
          "internalType": "uint256",
          "name": "_l1ChainId",
          "type": "uint256"
        },
        {
          "internalType": "uint256",
          "name": "_l2ChainId",
          "type": "uint256"
        }
      ],
      "stateMutability": "nonpayable",
      "type": "constructor"
    },
    {
      "inputs": [
        {
          "internalType": "bytes",
          "name": "data",
          "type": "bytes"
        }
      ],
      "name": "callExit",
      "outputs": [],
      "stateMutability": "nonpayable",
      "type": "function"
    },
    {
      "inputs": [],
      "name": "destination",
      "outputs": [
        {
          "internalType": "address",
          "name": "",
          "type": "address"
        }
      ],
      "stateMutability": "view",
      "type": "function"
    },
    {
      "inputs": [],
      "name": "l1ChainId",
      "outputs": [
        {
          "internalType": "uint256",
          "name": "",
          "type": "uint256"
        }
      ],
      "stateMutability": "view",
      "type": "function"
    },
    {
      "inputs": [],
      "name": "l1Weth",
      "outputs": [
        {
          "internalType": "contract WETH9",
          "name": "",
          "type": "address"
        }
      ],
      "stateMutability": "view",
      "type": "function"
    },
    {
      "inputs": [],
      "name": "l2ChainId",
      "outputs": [
        {
          "internalType": "uint256",
          "name": "",
          "type": "uint256"
        }
      ],
      "stateMutability": "view",
      "type": "function"
    },
    {
      "inputs": [],
      "name": "maticToken",
      "outputs": [
        {
          "internalType": "contract MaticToken",
          "name": "",
          "type": "address"
        }
      ],
      "stateMutability": "view",
      "type": "function"
    },
    {
      "inputs": [],
      "name": "polygonRegistry",
      "outputs": [
        {
          "internalType": "contract PolygonRegistry",
          "name": "",
          "type": "address"
        }
      ],
      "stateMutability": "view",
      "type": "function"
    },
    {
      "inputs": [
        {
          "internalType": "contract IERC20",
          "name": "token",
          "type": "address"
        }
      ],
      "name": "retrieve",
      "outputs": [],
      "stateMutability": "nonpayable",
      "type": "function"
    },
    {
      "inputs": [
        {
          "internalType": "contract PolygonIERC20",
          "name": "token",
          "type": "address"
        },
        {
          "internalType": "uint256",
          "name": "amount",
          "type": "uint256"
        },
        {
          "internalType": "bool",
          "name": "isWrappedMatic",
          "type": "bool"
        }
      ],
      "name": "send",
      "outputs": [],
      "stateMutability": "nonpayable",
      "type": "function"
    },
    {
      "stateMutability": "payable",
      "type": "receive"
    }
  ],
  "transactionHash": "0xa3fd5219332aca4681b090e15327a5706f02db2baa32d871fd698dbfe620b3e0",
  "args": [
    "0x69CA24D3084a2eea77E061E2D7aF9b76D107b4f6",
    "0xeE11713Fe713b2BfF2942452517483654078154D",
    "0x60D4dB9b534EF9260a88b0BED6c486fe13E604Fc",
    5,
    80001
  ],
  "numDeployments": 1,
  "solcInputHash": "5447891ea04e482f68bb353bcee1cde1",
  "bytecode": "0x61012060405234801561001157600080fd5b506040516111173803806111178339810160408190526100309161007d565b6000805460ff191660011790556001600160a01b0394851660805292841660a052921660c05260e091909152610100526100db565b6001600160a01b038116811461007a57600080fd5b50565b600080600080600060a0868803121561009557600080fd5b85516100a081610065565b60208701519095506100b181610065565b60408701519094506100c281610065565b6060870151608090970151959894975095949392505050565b60805160a05160c05160e05161010051610fc861014f60003960008181610222015261067601526000818160da0152818161029101526104cb015260008181610121015281816102bb015261030e01526000818161017a01526104f70152600081816101ce01526103c00152610fc86000f3fe60806040526004361061009a5760003560e01c80637ffae68811610069578063d124dc4f1161004e578063d124dc4f146101f0578063d6ae3cd514610210578063dc3542961461024457600080fd5b80637ffae6881461019c578063b269681d146101bc57600080fd5b80630a79309b146100a657806312622e5b146100c8578063146bf4b11461010f578063506e28d91461016857600080fd5b366100a157005b600080fd5b3480156100b257600080fd5b506100c66100c1366004610d2f565b61025a565b005b3480156100d457600080fd5b506100fc7f000000000000000000000000000000000000000000000000000000000000000081565b6040519081526020015b60405180910390f35b34801561011b57600080fd5b506101437f000000000000000000000000000000000000000000000000000000000000000081565b60405173ffffffffffffffffffffffffffffffffffffffff9091168152602001610106565b34801561017457600080fd5b506101437f000000000000000000000000000000000000000000000000000000000000000081565b3480156101a857600080fd5b506100c66101b7366004610d7b565b610494565b3480156101c857600080fd5b506101437f000000000000000000000000000000000000000000000000000000000000000081565b3480156101fc57600080fd5b506100c661020b366004610e58565b61063f565b34801561021c57600080fd5b506100fc7f000000000000000000000000000000000000000000000000000000000000000081565b34801561025057600080fd5b5061014361101081565b6102626107eb565b61028f600080547fffffffffffffffffffffffffffffffffffffffffffffffffffffffffffffff00169055565b7f00000000000000000000000000000000000000000000000000000000000000006102b98161085e565b7f000000000000000000000000000000000000000000000000000000000000000073ffffffffffffffffffffffffffffffffffffffff168273ffffffffffffffffffffffffffffffffffffffff160361038e577f000000000000000000000000000000000000000000000000000000000000000073ffffffffffffffffffffffffffffffffffffffff1663d0e30db0476040518263ffffffff1660e01b81526004016000604051808303818588803b15801561037457600080fd5b505af1158015610388573d6000803e3d6000fd5b50505050505b6040517f70a08231000000000000000000000000000000000000000000000000000000008152306004820152610460907f00000000000000000000000000000000000000000000000000000000000000009073ffffffffffffffffffffffffffffffffffffffff8516906370a0823190602401602060405180830381865afa15801561041e573d6000803e3d6000fd5b505050506040513d601f19601f820116820180604052508101906104429190610e9a565b73ffffffffffffffffffffffffffffffffffffffff851691906108c7565b50610491600080547fffffffffffffffffffffffffffffffffffffffffffffffffffffffffffffff00166001179055565b50565b61049c6107eb565b6104c9600080547fffffffffffffffffffffffffffffffffffffffffffffffffffffffffffffff00169055565b7f00000000000000000000000000000000000000000000000000000000000000006104f38161085e565b60007f000000000000000000000000000000000000000000000000000000000000000073ffffffffffffffffffffffffffffffffffffffff1663b68649766040518163ffffffff1660e01b81526004016020604051808303816000875af1158015610562573d6000803e3d6000fd5b505050506040513d601f19601f820116820180604052508101906105869190610eb3565b6040517f7c5264b400000000000000000000000000000000000000000000000000000000815290915073ffffffffffffffffffffffffffffffffffffffff821690637c5264b4906105db908690600401610f46565b600060405180830381600087803b1580156105f557600080fd5b505af1158015610609573d6000803e3d6000fd5b505050505050610491600080547fffffffffffffffffffffffffffffffffffffffffffffffffffffffffffffff00166001179055565b6106476107eb565b610674600080547fffffffffffffffffffffffffffffffffffffffffffffffffffffffffffffff00169055565b7f000000000000000000000000000000000000000000000000000000000000000061069e8161085e565b6106c073ffffffffffffffffffffffffffffffffffffffff851633308661099b565b6040517f2e1a7d4d0000000000000000000000000000000000000000000000000000000081526004810184905273ffffffffffffffffffffffffffffffffffffffff851690632e1a7d4d90602401600060405180830381600087803b15801561072857600080fd5b505af115801561073c573d6000803e3d6000fd5b5050505081156107b5576040517f2e1a7d4d0000000000000000000000000000000000000000000000000000000081526004810184905261101090632e1a7d4d9085906024016000604051808303818588803b15801561079b57600080fd5b505af11580156107af573d6000803e3d6000fd5b50505050505b506107e6600080547fffffffffffffffffffffffffffffffffffffffffffffffffffffffffffffff00166001179055565b505050565b60005460ff1661085c576040517f08c379a000000000000000000000000000000000000000000000000000000000815260206004820152601f60248201527f5265656e7472616e637947756172643a207265656e7472616e742063616c6c0060448201526064015b60405180910390fd5b565b804614610491576040517f08c379a000000000000000000000000000000000000000000000000000000000815260206004820152601f60248201527f43616e6e6f742072756e206d6574686f64206f6e207468697320636861696e006044820152606401610853565b60405173ffffffffffffffffffffffffffffffffffffffff83166024820152604481018290526107e69084907fa9059cbb00000000000000000000000000000000000000000000000000000000906064015b604080517fffffffffffffffffffffffffffffffffffffffffffffffffffffffffffffffe08184030181529190526020810180517bffffffffffffffffffffffffffffffffffffffffffffffffffffffff167fffffffff00000000000000000000000000000000000000000000000000000000909316929092179091526109ff565b60405173ffffffffffffffffffffffffffffffffffffffff808516602483015283166044820152606481018290526109f99085907f23b872dd0000000000000000000000000000000000000000000000000000000090608401610919565b50505050565b6000610a61826040518060400160405280602081526020017f5361666545524332303a206c6f772d6c6576656c2063616c6c206661696c65648152508573ffffffffffffffffffffffffffffffffffffffff16610b0b9092919063ffffffff16565b8051909150156107e65780806020019051810190610a7f9190610f59565b6107e6576040517f08c379a000000000000000000000000000000000000000000000000000000000815260206004820152602a60248201527f5361666545524332303a204552433230206f7065726174696f6e20646964206e60448201527f6f742073756363656564000000000000000000000000000000000000000000006064820152608401610853565b6060610b1a8484600085610b24565b90505b9392505050565b606082471015610bb6576040517f08c379a000000000000000000000000000000000000000000000000000000000815260206004820152602660248201527f416464726573733a20696e73756666696369656e742062616c616e636520666f60448201527f722063616c6c00000000000000000000000000000000000000000000000000006064820152608401610853565b73ffffffffffffffffffffffffffffffffffffffff85163b610c34576040517f08c379a000000000000000000000000000000000000000000000000000000000815260206004820152601d60248201527f416464726573733a2063616c6c20746f206e6f6e2d636f6e74726163740000006044820152606401610853565b6000808673ffffffffffffffffffffffffffffffffffffffff168587604051610c5d9190610f76565b60006040518083038185875af1925050503d8060008114610c9a576040519150601f19603f3d011682016040523d82523d6000602084013e610c9f565b606091505b5091509150610caf828286610cba565b979650505050505050565b60608315610cc9575081610b1d565b825115610cd95782518084602001fd5b816040517f08c379a00000000000000000000000000000000000000000000000000000000081526004016108539190610f46565b73ffffffffffffffffffffffffffffffffffffffff8116811461049157600080fd5b600060208284031215610d4157600080fd5b8135610b1d81610d0d565b7f4e487b7100000000000000000000000000000000000000000000000000000000600052604160045260246000fd5b600060208284031215610d8d57600080fd5b813567ffffffffffffffff80821115610da557600080fd5b818401915084601f830112610db957600080fd5b813581811115610dcb57610dcb610d4c565b604051601f82017fffffffffffffffffffffffffffffffffffffffffffffffffffffffffffffffe0908116603f01168101908382118183101715610e1157610e11610d4c565b81604052828152876020848701011115610e2a57600080fd5b826020860160208301376000928101602001929092525095945050505050565b801515811461049157600080fd5b600080600060608486031215610e6d57600080fd5b8335610e7881610d0d565b9250602084013591506040840135610e8f81610e4a565b809150509250925092565b600060208284031215610eac57600080fd5b5051919050565b600060208284031215610ec557600080fd5b8151610b1d81610d0d565b60005b83811015610eeb578181015183820152602001610ed3565b838111156109f95750506000910152565b60008151808452610f14816020860160208601610ed0565b601f017fffffffffffffffffffffffffffffffffffffffffffffffffffffffffffffffe0169290920160200192915050565b602081526000610b1d6020830184610efc565b600060208284031215610f6b57600080fd5b8151610b1d81610e4a565b60008251610f88818460208701610ed0565b919091019291505056fea2646970667358221220a86b285be2f8c43bf9a66ea18a0bcc8a4ba34632c804d293d8550b479bf0b34b64736f6c634300080d0033",
  "devdoc": {
    "details": "Because Polygon only allows withdrawals from a particular address to go to that same address on mainnet, we need to have some sort of contract that can guarantee identical addresses on Polygon and Ethereum. This contract is intended to be completely immutable, so it's guaranteed that the contract on each side is  configured identically as long as it is created via create2. create2 is an alternative creation method that uses a different address determination mechanism from normal create. Normal create: address = hash(deployer_address, deployer_nonce) create2:       address = hash(0xFF, sender, salt, bytecode)  This ultimately allows create2 to generate deterministic addresses that don't depend on the transaction count of the sender.",
    "kind": "dev",
    "methods": {
      "constructor": {
        "params": {
          "_destination": "Where to send tokens to for this network.",
          "_l1ChainId": "the chain id for the L1 in this environment.",
          "_l1Weth": "L1 WETH address.",
          "_l2ChainId": "the chain id for the L2 in this environment.",
          "_polygonRegistry": "L1 registry that stores updated addresses of polygon contracts."
        }
      },
      "retrieve(address)": {
        "params": {
          "token": "Token to send to destination."
        }
      },
      "send(address,uint256,bool)": {
        "params": {
          "amount": "Amount to bridge.",
          "isWrappedMatic": "True if token is WMATIC.",
          "token": "Token to bridge."
        }
      }
    },
    "version": 1
  },
  "userdoc": {
    "kind": "user",
    "methods": {
      "callExit(bytes)": {
        "notice": "Called to initiate an l1 exit (withdrawal) of matic tokens that have been sent over the plasma bridge."
      },
      "constructor": {
        "notice": "Constructs Token Bridger contract."
      },
      "retrieve(address)": {
        "notice": "Called by someone to send tokens to the destination, which should be set to the HubPool."
      },
      "send(address,uint256,bool)": {
        "notice": "Called by Polygon SpokePool to send tokens over bridge to contract with the same address as this.The caller of this function must approve this contract to spend amount of token."
      }
    },
    "notice": "Contract deployed on Ethereum and Polygon to facilitate token transfers from Polygon to the HubPool and back.",
    "version": 1
  },
  "storageLayout": {
    "storage": [
      {
        "astId": 7084,
        "contract": "contracts/PolygonTokenBridger.sol:PolygonTokenBridger",
        "label": "_notEntered",
        "offset": 0,
        "slot": "0",
        "type": "t_bool"
      }
    ],
    "types": {
      "t_bool": {
        "encoding": "inplace",
        "label": "bool",
        "numberOfBytes": "1"
      }
    }
  }
}