{
  "address": "0x4589Fbf26C6a456f075b5628178AF68abE03C5fF",
  "abi": [
    {
      "anonymous": false,
      "inputs": [
        {
          "indexed": false,
          "internalType": "address",
          "name": "previousAdmin",
          "type": "address"
        },
        {
          "indexed": false,
          "internalType": "address",
          "name": "newAdmin",
          "type": "address"
        }
      ],
      "name": "AdminChanged",
      "type": "event"
    },
    {
      "anonymous": false,
      "inputs": [
        {
          "indexed": true,
          "internalType": "address",
          "name": "beacon",
          "type": "address"
        }
      ],
      "name": "BeaconUpgraded",
      "type": "event"
    },
    {
      "anonymous": false,
      "inputs": [
        {
          "indexed": true,
          "internalType": "uint256",
          "name": "rootBundleId",
          "type": "uint256"
        }
      ],
      "name": "EmergencyDeleteRootBundle",
      "type": "event"
    },
    {
      "anonymous": false,
      "inputs": [
        {
          "indexed": true,
          "internalType": "address",
          "name": "originToken",
          "type": "address"
        },
        {
          "indexed": true,
          "internalType": "uint256",
          "name": "destinationChainId",
          "type": "uint256"
        },
        {
          "indexed": false,
          "internalType": "bool",
          "name": "enabled",
          "type": "bool"
        }
      ],
      "name": "EnabledDepositRoute",
      "type": "event"
    },
    {
      "anonymous": false,
      "inputs": [
        {
          "indexed": false,
          "internalType": "uint256",
          "name": "amountToReturn",
          "type": "uint256"
        },
        {
          "indexed": true,
          "internalType": "uint256",
          "name": "chainId",
          "type": "uint256"
        },
        {
          "indexed": false,
          "internalType": "uint256[]",
          "name": "refundAmounts",
          "type": "uint256[]"
        },
        {
          "indexed": true,
          "internalType": "uint32",
          "name": "rootBundleId",
          "type": "uint32"
        },
        {
          "indexed": true,
          "internalType": "uint32",
          "name": "leafId",
          "type": "uint32"
        },
        {
          "indexed": false,
          "internalType": "address",
          "name": "l2TokenAddress",
          "type": "address"
        },
        {
          "indexed": false,
          "internalType": "address[]",
          "name": "refundAddresses",
          "type": "address[]"
        },
        {
          "indexed": false,
          "internalType": "address",
          "name": "caller",
          "type": "address"
        }
      ],
      "name": "ExecutedRelayerRefundRoot",
      "type": "event"
    },
    {
      "anonymous": false,
      "inputs": [
        {
          "indexed": false,
          "internalType": "uint256",
          "name": "amount",
          "type": "uint256"
        },
        {
          "indexed": false,
          "internalType": "uint256",
          "name": "totalFilledAmount",
          "type": "uint256"
        },
        {
          "indexed": false,
          "internalType": "uint256",
          "name": "fillAmount",
          "type": "uint256"
        },
        {
          "indexed": false,
          "internalType": "uint256",
          "name": "repaymentChainId",
          "type": "uint256"
        },
        {
          "indexed": true,
          "internalType": "uint256",
          "name": "originChainId",
          "type": "uint256"
        },
        {
          "indexed": false,
          "internalType": "uint256",
          "name": "destinationChainId",
          "type": "uint256"
        },
        {
          "indexed": false,
          "internalType": "int64",
          "name": "relayerFeePct",
          "type": "int64"
        },
        {
          "indexed": false,
          "internalType": "int64",
          "name": "realizedLpFeePct",
          "type": "int64"
        },
        {
          "indexed": true,
          "internalType": "uint32",
          "name": "depositId",
          "type": "uint32"
        },
        {
          "indexed": false,
          "internalType": "address",
          "name": "destinationToken",
          "type": "address"
        },
        {
          "indexed": false,
          "internalType": "address",
          "name": "relayer",
          "type": "address"
        },
        {
          "indexed": true,
          "internalType": "address",
          "name": "depositor",
          "type": "address"
        },
        {
          "indexed": false,
          "internalType": "address",
          "name": "recipient",
          "type": "address"
        },
        {
          "indexed": false,
          "internalType": "bytes",
          "name": "message",
          "type": "bytes"
        },
        {
          "components": [
            {
              "internalType": "address",
              "name": "recipient",
              "type": "address"
            },
            {
              "internalType": "bytes",
              "name": "message",
              "type": "bytes"
            },
            {
              "internalType": "int64",
              "name": "relayerFeePct",
              "type": "int64"
            },
            {
              "internalType": "bool",
              "name": "isSlowRelay",
              "type": "bool"
            },
            {
              "internalType": "int256",
              "name": "payoutAdjustmentPct",
              "type": "int256"
            }
          ],
          "indexed": false,
          "internalType": "struct SpokePool.RelayExecutionInfo",
          "name": "updatableRelayData",
          "type": "tuple"
        }
      ],
      "name": "FilledRelay",
      "type": "event"
    },
    {
      "anonymous": false,
      "inputs": [
        {
          "indexed": false,
          "internalType": "uint256",
          "name": "amount",
          "type": "uint256"
        },
        {
          "indexed": false,
          "internalType": "uint256",
          "name": "originChainId",
          "type": "uint256"
        },
        {
          "indexed": true,
          "internalType": "uint256",
          "name": "destinationChainId",
          "type": "uint256"
        },
        {
          "indexed": false,
          "internalType": "int64",
          "name": "relayerFeePct",
          "type": "int64"
        },
        {
          "indexed": true,
          "internalType": "uint32",
          "name": "depositId",
          "type": "uint32"
        },
        {
          "indexed": false,
          "internalType": "uint32",
          "name": "quoteTimestamp",
          "type": "uint32"
        },
        {
          "indexed": false,
          "internalType": "address",
          "name": "originToken",
          "type": "address"
        },
        {
          "indexed": false,
          "internalType": "address",
          "name": "recipient",
          "type": "address"
        },
        {
          "indexed": true,
          "internalType": "address",
          "name": "depositor",
          "type": "address"
        },
        {
          "indexed": false,
          "internalType": "bytes",
          "name": "message",
          "type": "bytes"
        }
      ],
      "name": "FundsDeposited",
      "type": "event"
    },
    {
      "anonymous": false,
      "inputs": [
        {
          "indexed": false,
          "internalType": "uint8",
          "name": "version",
          "type": "uint8"
        }
      ],
      "name": "Initialized",
      "type": "event"
    },
    {
      "anonymous": false,
      "inputs": [
        {
          "indexed": false,
          "internalType": "bool",
          "name": "isPaused",
          "type": "bool"
        }
      ],
      "name": "PausedDeposits",
      "type": "event"
    },
    {
      "anonymous": false,
      "inputs": [
        {
          "indexed": false,
          "internalType": "bool",
          "name": "isPaused",
          "type": "bool"
        }
      ],
      "name": "PausedFills",
      "type": "event"
    },
    {
      "anonymous": false,
      "inputs": [
        {
          "indexed": true,
          "internalType": "address",
          "name": "token",
          "type": "address"
        },
        {
          "indexed": true,
          "internalType": "address",
          "name": "receiver",
          "type": "address"
        },
        {
          "indexed": false,
          "internalType": "uint256",
          "name": "amount",
          "type": "uint256"
        }
      ],
      "name": "PolygonTokensBridged",
      "type": "event"
    },
    {
      "anonymous": false,
      "inputs": [
        {
          "indexed": true,
          "internalType": "address",
          "name": "caller",
          "type": "address"
        },
        {
          "indexed": true,
          "internalType": "address",
          "name": "rootMessageSender",
          "type": "address"
        }
      ],
      "name": "ReceivedMessageFromL1",
      "type": "event"
    },
    {
      "anonymous": false,
      "inputs": [
        {
          "indexed": true,
          "internalType": "address",
          "name": "relayer",
          "type": "address"
        },
        {
          "indexed": false,
          "internalType": "address",
          "name": "refundToken",
          "type": "address"
        },
        {
          "indexed": false,
          "internalType": "uint256",
          "name": "amount",
          "type": "uint256"
        },
        {
          "indexed": true,
          "internalType": "uint256",
          "name": "originChainId",
          "type": "uint256"
        },
        {
          "indexed": false,
          "internalType": "uint256",
          "name": "destinationChainId",
          "type": "uint256"
        },
        {
          "indexed": false,
          "internalType": "int64",
          "name": "realizedLpFeePct",
          "type": "int64"
        },
        {
          "indexed": true,
          "internalType": "uint32",
          "name": "depositId",
          "type": "uint32"
        },
        {
          "indexed": false,
          "internalType": "uint256",
          "name": "fillBlock",
          "type": "uint256"
        },
        {
          "indexed": false,
          "internalType": "uint256",
          "name": "previousIdenticalRequests",
          "type": "uint256"
        }
      ],
      "name": "RefundRequested",
      "type": "event"
    },
    {
      "anonymous": false,
      "inputs": [
        {
          "indexed": true,
          "internalType": "uint32",
          "name": "rootBundleId",
          "type": "uint32"
        },
        {
          "indexed": true,
          "internalType": "bytes32",
          "name": "relayerRefundRoot",
          "type": "bytes32"
        },
        {
          "indexed": true,
          "internalType": "bytes32",
          "name": "slowRelayRoot",
          "type": "bytes32"
        }
      ],
      "name": "RelayedRootBundle",
      "type": "event"
    },
    {
      "anonymous": false,
      "inputs": [
        {
          "indexed": false,
          "internalType": "int64",
          "name": "newRelayerFeePct",
          "type": "int64"
        },
        {
          "indexed": true,
          "internalType": "uint32",
          "name": "depositId",
          "type": "uint32"
        },
        {
          "indexed": true,
          "internalType": "address",
          "name": "depositor",
          "type": "address"
        },
        {
          "indexed": false,
          "internalType": "address",
          "name": "updatedRecipient",
          "type": "address"
        },
        {
          "indexed": false,
          "internalType": "bytes",
          "name": "updatedMessage",
          "type": "bytes"
        },
        {
          "indexed": false,
          "internalType": "bytes",
          "name": "depositorSignature",
          "type": "bytes"
        }
      ],
      "name": "RequestedSpeedUpDeposit",
      "type": "event"
    },
    {
      "anonymous": false,
      "inputs": [
        {
          "indexed": false,
          "internalType": "uint32",
          "name": "newBuffer",
          "type": "uint32"
        }
      ],
      "name": "SetDepositQuoteTimeBuffer",
      "type": "event"
    },
    {
      "anonymous": false,
      "inputs": [
        {
          "indexed": true,
          "internalType": "address",
          "name": "newFxChild",
          "type": "address"
        }
      ],
      "name": "SetFxChild",
      "type": "event"
    },
    {
      "anonymous": false,
      "inputs": [
        {
          "indexed": true,
          "internalType": "address",
          "name": "newHubPool",
          "type": "address"
        }
      ],
      "name": "SetHubPool",
      "type": "event"
    },
    {
      "anonymous": false,
      "inputs": [
        {
          "indexed": true,
          "internalType": "address",
          "name": "polygonTokenBridger",
          "type": "address"
        }
      ],
      "name": "SetPolygonTokenBridger",
      "type": "event"
    },
    {
      "anonymous": false,
      "inputs": [
        {
          "indexed": true,
          "internalType": "address",
          "name": "newAdmin",
          "type": "address"
        }
      ],
      "name": "SetXDomainAdmin",
      "type": "event"
    },
    {
      "anonymous": false,
      "inputs": [
        {
          "indexed": false,
          "internalType": "uint256",
          "name": "amountToReturn",
          "type": "uint256"
        },
        {
          "indexed": true,
          "internalType": "uint256",
          "name": "chainId",
          "type": "uint256"
        },
        {
          "indexed": true,
          "internalType": "uint32",
          "name": "leafId",
          "type": "uint32"
        },
        {
          "indexed": true,
          "internalType": "address",
          "name": "l2TokenAddress",
          "type": "address"
        },
        {
          "indexed": false,
          "internalType": "address",
          "name": "caller",
          "type": "address"
        }
      ],
      "name": "TokensBridged",
      "type": "event"
    },
    {
      "anonymous": false,
      "inputs": [
        {
          "indexed": true,
          "internalType": "address",
          "name": "implementation",
          "type": "address"
        }
      ],
      "name": "Upgraded",
      "type": "event"
    },
    {
      "inputs": [],
      "name": "MAX_TRANSFER_SIZE",
      "outputs": [
        {
          "internalType": "uint256",
          "name": "",
          "type": "uint256"
        }
      ],
      "stateMutability": "view",
      "type": "function"
    },
    {
      "inputs": [],
      "name": "SLOW_FILL_MAX_TOKENS_TO_SEND",
      "outputs": [
        {
          "internalType": "uint256",
          "name": "",
          "type": "uint256"
        }
      ],
      "stateMutability": "view",
      "type": "function"
    },
    {
      "inputs": [],
      "name": "UPDATE_DEPOSIT_DETAILS_HASH",
      "outputs": [
        {
          "internalType": "bytes32",
          "name": "",
          "type": "bytes32"
        }
      ],
      "stateMutability": "view",
      "type": "function"
    },
    {
      "inputs": [
        {
          "internalType": "uint32",
          "name": "_initialDepositId",
          "type": "uint32"
        },
        {
          "internalType": "address",
          "name": "_crossDomainAdmin",
          "type": "address"
        },
        {
          "internalType": "address",
          "name": "_hubPool",
          "type": "address"
        },
        {
          "internalType": "address",
          "name": "_wrappedNativeTokenAddress",
          "type": "address"
        }
      ],
      "name": "__SpokePool_init",
      "outputs": [],
      "stateMutability": "nonpayable",
      "type": "function"
    },
    {
      "inputs": [],
      "name": "chainId",
      "outputs": [
        {
          "internalType": "uint256",
          "name": "",
          "type": "uint256"
        }
      ],
      "stateMutability": "view",
      "type": "function"
    },
    {
      "inputs": [],
      "name": "crossDomainAdmin",
      "outputs": [
        {
          "internalType": "address",
          "name": "",
          "type": "address"
        }
      ],
      "stateMutability": "view",
      "type": "function"
    },
    {
      "inputs": [
        {
          "internalType": "address",
          "name": "recipient",
          "type": "address"
        },
        {
          "internalType": "address",
          "name": "originToken",
          "type": "address"
        },
        {
          "internalType": "uint256",
          "name": "amount",
          "type": "uint256"
        },
        {
          "internalType": "uint256",
          "name": "destinationChainId",
          "type": "uint256"
        },
        {
          "internalType": "int64",
          "name": "relayerFeePct",
          "type": "int64"
        },
        {
          "internalType": "uint32",
          "name": "quoteTimestamp",
          "type": "uint32"
        },
        {
          "internalType": "bytes",
          "name": "message",
          "type": "bytes"
        },
        {
          "internalType": "uint256",
          "name": "maxCount",
          "type": "uint256"
        }
      ],
      "name": "deposit",
      "outputs": [],
      "stateMutability": "payable",
      "type": "function"
    },
    {
      "inputs": [
        {
          "internalType": "address",
          "name": "",
          "type": "address"
        }
      ],
      "name": "depositCounter",
      "outputs": [
        {
          "internalType": "uint256",
          "name": "",
          "type": "uint256"
        }
      ],
      "stateMutability": "view",
      "type": "function"
    },
    {
      "inputs": [],
      "name": "depositQuoteTimeBuffer",
      "outputs": [
        {
          "internalType": "uint32",
          "name": "",
          "type": "uint32"
        }
      ],
      "stateMutability": "view",
      "type": "function"
    },
    {
      "inputs": [
        {
          "internalType": "uint256",
          "name": "rootBundleId",
          "type": "uint256"
        }
      ],
      "name": "emergencyDeleteRootBundle",
      "outputs": [],
      "stateMutability": "nonpayable",
      "type": "function"
    },
    {
      "inputs": [
        {
          "internalType": "address",
          "name": "",
          "type": "address"
        },
        {
          "internalType": "uint256",
          "name": "",
          "type": "uint256"
        }
      ],
      "name": "enabledDepositRoutes",
      "outputs": [
        {
          "internalType": "bool",
          "name": "",
          "type": "bool"
        }
      ],
      "stateMutability": "view",
      "type": "function"
    },
    {
      "inputs": [
        {
          "internalType": "uint32",
          "name": "rootBundleId",
          "type": "uint32"
        },
        {
          "components": [
            {
              "internalType": "uint256",
              "name": "amountToReturn",
              "type": "uint256"
            },
            {
              "internalType": "uint256",
              "name": "chainId",
              "type": "uint256"
            },
            {
              "internalType": "uint256[]",
              "name": "refundAmounts",
              "type": "uint256[]"
            },
            {
              "internalType": "uint32",
              "name": "leafId",
              "type": "uint32"
            },
            {
              "internalType": "address",
              "name": "l2TokenAddress",
              "type": "address"
            },
            {
              "internalType": "address[]",
              "name": "refundAddresses",
              "type": "address[]"
            }
          ],
          "internalType": "struct SpokePoolInterface.RelayerRefundLeaf",
          "name": "relayerRefundLeaf",
          "type": "tuple"
        },
        {
          "internalType": "bytes32[]",
          "name": "proof",
          "type": "bytes32[]"
        }
      ],
      "name": "executeRelayerRefundLeaf",
      "outputs": [],
      "stateMutability": "nonpayable",
      "type": "function"
    },
    {
      "inputs": [
        {
          "internalType": "address",
          "name": "depositor",
          "type": "address"
        },
        {
          "internalType": "address",
          "name": "recipient",
          "type": "address"
        },
        {
          "internalType": "address",
          "name": "destinationToken",
          "type": "address"
        },
        {
          "internalType": "uint256",
          "name": "amount",
          "type": "uint256"
        },
        {
          "internalType": "uint256",
          "name": "originChainId",
          "type": "uint256"
        },
        {
          "internalType": "int64",
          "name": "realizedLpFeePct",
          "type": "int64"
        },
        {
          "internalType": "int64",
          "name": "relayerFeePct",
          "type": "int64"
        },
        {
          "internalType": "uint32",
          "name": "depositId",
          "type": "uint32"
        },
        {
          "internalType": "uint32",
          "name": "rootBundleId",
          "type": "uint32"
        },
        {
          "internalType": "bytes",
          "name": "message",
          "type": "bytes"
        },
        {
          "internalType": "int256",
          "name": "payoutAdjustment",
          "type": "int256"
        },
        {
          "internalType": "bytes32[]",
          "name": "proof",
          "type": "bytes32[]"
        }
      ],
      "name": "executeSlowRelayLeaf",
      "outputs": [],
      "stateMutability": "nonpayable",
      "type": "function"
    },
    {
      "inputs": [
        {
          "internalType": "address",
          "name": "",
          "type": "address"
        }
      ],
      "name": "fillCounter",
      "outputs": [
        {
          "internalType": "uint256",
          "name": "",
          "type": "uint256"
        }
      ],
      "stateMutability": "view",
      "type": "function"
    },
    {
      "inputs": [
        {
          "internalType": "address",
          "name": "depositor",
          "type": "address"
        },
        {
          "internalType": "address",
          "name": "recipient",
          "type": "address"
        },
        {
          "internalType": "address",
          "name": "destinationToken",
          "type": "address"
        },
        {
          "internalType": "uint256",
          "name": "amount",
          "type": "uint256"
        },
        {
          "internalType": "uint256",
          "name": "maxTokensToSend",
          "type": "uint256"
        },
        {
          "internalType": "uint256",
          "name": "repaymentChainId",
          "type": "uint256"
        },
        {
          "internalType": "uint256",
          "name": "originChainId",
          "type": "uint256"
        },
        {
          "internalType": "int64",
          "name": "realizedLpFeePct",
          "type": "int64"
        },
        {
          "internalType": "int64",
          "name": "relayerFeePct",
          "type": "int64"
        },
        {
          "internalType": "uint32",
          "name": "depositId",
          "type": "uint32"
        },
        {
          "internalType": "bytes",
          "name": "message",
          "type": "bytes"
        },
        {
          "internalType": "uint256",
          "name": "maxCount",
          "type": "uint256"
        }
      ],
      "name": "fillRelay",
      "outputs": [],
      "stateMutability": "nonpayable",
      "type": "function"
    },
    {
      "inputs": [
        {
          "internalType": "address",
          "name": "depositor",
          "type": "address"
        },
        {
          "internalType": "address",
          "name": "recipient",
          "type": "address"
        },
        {
          "internalType": "address",
          "name": "updatedRecipient",
          "type": "address"
        },
        {
          "internalType": "address",
          "name": "destinationToken",
          "type": "address"
        },
        {
          "internalType": "uint256",
          "name": "amount",
          "type": "uint256"
        },
        {
          "internalType": "uint256",
          "name": "maxTokensToSend",
          "type": "uint256"
        },
        {
          "internalType": "uint256",
          "name": "repaymentChainId",
          "type": "uint256"
        },
        {
          "internalType": "uint256",
          "name": "originChainId",
          "type": "uint256"
        },
        {
          "internalType": "int64",
          "name": "realizedLpFeePct",
          "type": "int64"
        },
        {
          "internalType": "int64",
          "name": "relayerFeePct",
          "type": "int64"
        },
        {
          "internalType": "int64",
          "name": "updatedRelayerFeePct",
          "type": "int64"
        },
        {
          "internalType": "uint32",
          "name": "depositId",
          "type": "uint32"
        },
        {
          "internalType": "bytes",
          "name": "message",
          "type": "bytes"
        },
        {
          "internalType": "bytes",
          "name": "updatedMessage",
          "type": "bytes"
        },
        {
          "internalType": "bytes",
          "name": "depositorSignature",
          "type": "bytes"
        },
        {
          "internalType": "uint256",
          "name": "maxCount",
          "type": "uint256"
        }
      ],
      "name": "fillRelayWithUpdatedDeposit",
      "outputs": [],
      "stateMutability": "nonpayable",
      "type": "function"
    },
    {
      "inputs": [],
      "name": "fxChild",
      "outputs": [
        {
          "internalType": "address",
          "name": "",
          "type": "address"
        }
      ],
      "stateMutability": "view",
      "type": "function"
    },
    {
      "inputs": [],
      "name": "getCurrentTime",
      "outputs": [
        {
          "internalType": "uint256",
          "name": "",
          "type": "uint256"
        }
      ],
      "stateMutability": "view",
      "type": "function"
    },
    {
      "inputs": [],
      "name": "hubPool",
      "outputs": [
        {
          "internalType": "address",
          "name": "",
          "type": "address"
        }
      ],
      "stateMutability": "view",
      "type": "function"
    },
    {
      "inputs": [
        {
          "internalType": "uint32",
          "name": "_initialDepositId",
          "type": "uint32"
        },
        {
          "internalType": "contract PolygonTokenBridger",
          "name": "_polygonTokenBridger",
          "type": "address"
        },
        {
          "internalType": "address",
          "name": "_crossDomainAdmin",
          "type": "address"
        },
        {
          "internalType": "address",
          "name": "_hubPool",
          "type": "address"
        },
        {
          "internalType": "address",
          "name": "_wmaticAddress",
          "type": "address"
        },
        {
          "internalType": "address",
          "name": "_fxChild",
          "type": "address"
        }
      ],
      "name": "initialize",
      "outputs": [],
      "stateMutability": "nonpayable",
      "type": "function"
    },
    {
      "inputs": [
        {
          "internalType": "bytes[]",
          "name": "data",
          "type": "bytes[]"
        }
      ],
      "name": "multicall",
      "outputs": [
        {
          "internalType": "bytes[]",
          "name": "results",
          "type": "bytes[]"
        }
      ],
      "stateMutability": "nonpayable",
      "type": "function"
    },
    {
      "inputs": [],
      "name": "numberOfDeposits",
      "outputs": [
        {
          "internalType": "uint32",
          "name": "",
          "type": "uint32"
        }
      ],
      "stateMutability": "view",
      "type": "function"
    },
    {
      "inputs": [
        {
          "internalType": "bool",
          "name": "pause",
          "type": "bool"
        }
      ],
      "name": "pauseDeposits",
      "outputs": [],
      "stateMutability": "nonpayable",
      "type": "function"
    },
    {
      "inputs": [
        {
          "internalType": "bool",
          "name": "pause",
          "type": "bool"
        }
      ],
      "name": "pauseFills",
      "outputs": [],
      "stateMutability": "nonpayable",
      "type": "function"
    },
    {
      "inputs": [],
      "name": "pausedDeposits",
      "outputs": [
        {
          "internalType": "bool",
          "name": "",
          "type": "bool"
        }
      ],
      "stateMutability": "view",
      "type": "function"
    },
    {
      "inputs": [],
      "name": "pausedFills",
      "outputs": [
        {
          "internalType": "bool",
          "name": "",
          "type": "bool"
        }
      ],
      "stateMutability": "view",
      "type": "function"
    },
    {
      "inputs": [],
      "name": "polygonTokenBridger",
      "outputs": [
        {
          "internalType": "contract PolygonTokenBridger",
          "name": "",
          "type": "address"
        }
      ],
      "stateMutability": "view",
      "type": "function"
    },
    {
      "inputs": [
        {
          "internalType": "uint256",
          "name": "",
          "type": "uint256"
        },
        {
          "internalType": "address",
          "name": "rootMessageSender",
          "type": "address"
        },
        {
          "internalType": "bytes",
          "name": "data",
          "type": "bytes"
        }
      ],
      "name": "processMessageFromRoot",
      "outputs": [],
      "stateMutability": "nonpayable",
      "type": "function"
    },
    {
      "inputs": [],
      "name": "proxiableUUID",
      "outputs": [
        {
          "internalType": "bytes32",
          "name": "",
          "type": "bytes32"
        }
      ],
      "stateMutability": "view",
      "type": "function"
    },
    {
      "inputs": [
        {
          "internalType": "bytes32",
          "name": "",
          "type": "bytes32"
        }
      ],
      "name": "refundsRequested",
      "outputs": [
        {
          "internalType": "uint256",
          "name": "",
          "type": "uint256"
        }
      ],
      "stateMutability": "view",
      "type": "function"
    },
    {
      "inputs": [
        {
          "internalType": "bytes32",
          "name": "",
          "type": "bytes32"
        }
      ],
      "name": "relayFills",
      "outputs": [
        {
          "internalType": "uint256",
          "name": "",
          "type": "uint256"
        }
      ],
      "stateMutability": "view",
      "type": "function"
    },
    {
      "inputs": [
        {
          "internalType": "bytes32",
          "name": "relayerRefundRoot",
          "type": "bytes32"
        },
        {
          "internalType": "bytes32",
          "name": "slowRelayRoot",
          "type": "bytes32"
        }
      ],
      "name": "relayRootBundle",
      "outputs": [],
      "stateMutability": "nonpayable",
      "type": "function"
    },
    {
      "inputs": [
        {
          "internalType": "address",
          "name": "refundToken",
          "type": "address"
        },
        {
          "internalType": "uint256",
          "name": "amount",
          "type": "uint256"
        },
        {
          "internalType": "uint256",
          "name": "originChainId",
          "type": "uint256"
        },
        {
          "internalType": "uint256",
          "name": "destinationChainId",
          "type": "uint256"
        },
        {
          "internalType": "int64",
          "name": "realizedLpFeePct",
          "type": "int64"
        },
        {
          "internalType": "uint32",
          "name": "depositId",
          "type": "uint32"
        },
        {
          "internalType": "uint256",
          "name": "fillBlock",
          "type": "uint256"
        },
        {
          "internalType": "uint256",
          "name": "maxCount",
          "type": "uint256"
        }
      ],
      "name": "requestRefund",
      "outputs": [],
      "stateMutability": "nonpayable",
      "type": "function"
    },
    {
      "inputs": [
        {
          "internalType": "uint256",
          "name": "",
          "type": "uint256"
        }
      ],
      "name": "rootBundles",
      "outputs": [
        {
          "internalType": "bytes32",
          "name": "slowRelayRoot",
          "type": "bytes32"
        },
        {
          "internalType": "bytes32",
          "name": "relayerRefundRoot",
          "type": "bytes32"
        }
      ],
      "stateMutability": "view",
      "type": "function"
    },
    {
      "inputs": [
        {
          "internalType": "address",
          "name": "newCrossDomainAdmin",
          "type": "address"
        }
      ],
      "name": "setCrossDomainAdmin",
      "outputs": [],
      "stateMutability": "nonpayable",
      "type": "function"
    },
    {
      "inputs": [
        {
          "internalType": "uint32",
          "name": "newDepositQuoteTimeBuffer",
          "type": "uint32"
        }
      ],
      "name": "setDepositQuoteTimeBuffer",
      "outputs": [],
      "stateMutability": "nonpayable",
      "type": "function"
    },
    {
      "inputs": [
        {
          "internalType": "address",
          "name": "originToken",
          "type": "address"
        },
        {
          "internalType": "uint256",
          "name": "destinationChainId",
          "type": "uint256"
        },
        {
          "internalType": "bool",
          "name": "enabled",
          "type": "bool"
        }
      ],
      "name": "setEnableRoute",
      "outputs": [],
      "stateMutability": "nonpayable",
      "type": "function"
    },
    {
      "inputs": [
        {
          "internalType": "address",
          "name": "newFxChild",
          "type": "address"
        }
      ],
      "name": "setFxChild",
      "outputs": [],
      "stateMutability": "nonpayable",
      "type": "function"
    },
    {
      "inputs": [
        {
          "internalType": "address",
          "name": "newHubPool",
          "type": "address"
        }
      ],
      "name": "setHubPool",
      "outputs": [],
      "stateMutability": "nonpayable",
      "type": "function"
    },
    {
      "inputs": [
        {
          "internalType": "address payable",
          "name": "newPolygonTokenBridger",
          "type": "address"
        }
      ],
      "name": "setPolygonTokenBridger",
      "outputs": [],
      "stateMutability": "nonpayable",
      "type": "function"
    },
    {
      "inputs": [
        {
          "internalType": "address",
          "name": "depositor",
          "type": "address"
        },
        {
          "internalType": "int64",
          "name": "updatedRelayerFeePct",
          "type": "int64"
        },
        {
          "internalType": "uint32",
          "name": "depositId",
          "type": "uint32"
        },
        {
          "internalType": "address",
          "name": "updatedRecipient",
          "type": "address"
        },
        {
          "internalType": "bytes",
          "name": "updatedMessage",
          "type": "bytes"
        },
        {
          "internalType": "bytes",
          "name": "depositorSignature",
          "type": "bytes"
        }
      ],
      "name": "speedUpDeposit",
      "outputs": [],
      "stateMutability": "nonpayable",
      "type": "function"
    },
    {
      "inputs": [
        {
          "internalType": "address",
          "name": "newImplementation",
          "type": "address"
        }
      ],
      "name": "upgradeTo",
      "outputs": [],
      "stateMutability": "nonpayable",
      "type": "function"
    },
    {
      "inputs": [
        {
          "internalType": "address",
          "name": "newImplementation",
          "type": "address"
        },
        {
          "internalType": "bytes",
          "name": "data",
          "type": "bytes"
        }
      ],
      "name": "upgradeToAndCall",
      "outputs": [],
      "stateMutability": "payable",
      "type": "function"
    },
    {
      "inputs": [],
      "name": "wrap",
      "outputs": [],
      "stateMutability": "nonpayable",
      "type": "function"
    },
    {
      "inputs": [],
      "name": "wrappedNativeToken",
      "outputs": [
        {
          "internalType": "contract WETH9Interface",
          "name": "",
          "type": "address"
        }
      ],
      "stateMutability": "view",
      "type": "function"
    },
    {
      "stateMutability": "payable",
      "type": "receive"
    }
  ],
  "numDeployments": 2,
  "solcInputHash": "7265ca84110972c4f072d5e41d528f9c",
  "bytecode": "0x60a08060405234620000e157306080526000549060ff8260081c166200008f575060ff8082160362000053575b604051615ef19081620000e782396080518181816110e9015281816116db01526119870152f35b60ff90811916176000557f7f26b83ff96e1f2b6a682f133852f6798a09c465da95921460cefb3847402498602060405160ff8152a1386200002c565b62461bcd60e51b815260206004820152602760248201527f496e697469616c697a61626c653a20636f6e747261637420697320696e697469604482015266616c697a696e6760c81b6064820152608490fd5b600080fdfe6080604052600436101561001b575b361561001957600080fd5b005b60003560e01c80630c2097f7146102eb5780631186ec33146102e657806313fb77ee146102e157806317fcb39b146102dc5780631b3d5559146102d75780631dfb2d02146102d257806323cd9a47146102cd578063272751c7146102c85780632752042e146102c357806329cb924d146102be5780633659cfe6146102b95780633ddf5059146102b45780633edb89d1146102af57806344b8be68146102aa578063450d11f0146102a5578063493a4f84146102a05780634f1ef2861461029b5780635249fef1146102965780635285e0581461029157806352d1902d1461028c57806357f6dcb8146102875780635ceaec32146102825780636068d6cb1461027d578063738b62e5146102785780637bf1a22e146102735780637e688bba1461026e578063872af6ea146102695780638a7860ce1461026457806399cc29681461025f5780639a7c4b711461025a5780639a8a059214610255578063a1244c6714610250578063a634893f1461024b578063a78e4b6014610246578063ac9650d814610241578063b5e1bf5f1461023c578063b86cfdcf14610237578063c0a8bdd114610232578063d46eb1191461022d578063dda5211314610228578063ddd224f114610223578063de7eba781461021e578063e190440214610219578063ee2a53f8146102145763f06850f60361000e57612b02565b612aa6565b6129e3565b612995565b61294d565b612908565b6128c9565b61285f565b6127a7565b61275d565b6126d9565b61259a565b6123a1565b61235b565b612322565b6120d2565b612006565b611f4c565b611ee2565b611e40565b611ca3565b611bd6565b611b91565b611aa6565b611a60565b611941565b6118ee565b611871565b61166b565b6115c5565b611572565b6114c0565b61146d565b6112a4565b611095565b61105c565b610f95565b610eab565b610e56565b610dfc565b610d05565b610c4a565b610b87565b61076d565b6106aa565b73ffffffffffffffffffffffffffffffffffffffff81160361030e57565b600080fd5b60043590610320826102f0565b565b60243590610320826102f0565b60443590610320826102f0565b60643590610320826102f0565b3590610320826102f0565b60a435908160070b820361030e57565b60c435908160070b820361030e57565b608435908160070b820361030e57565b61010435908160070b820361030e57565b61012435908160070b820361030e57565b61014435908160070b820361030e57565b60e4359063ffffffff8216820361030e57565b610104359063ffffffff8216820361030e57565b60a4359063ffffffff8216820361030e57565b6004359063ffffffff8216820361030e57565b610124359063ffffffff8216820361030e57565b610164359063ffffffff8216820361030e57565b6044359063ffffffff8216820361030e57565b359063ffffffff8216820361030e57565b7f4e487b7100000000000000000000000000000000000000000000000000000000600052604160045260246000fd5b67ffffffffffffffff811161049357604052565b610450565b60a0810190811067ffffffffffffffff82111761049357604052565b6020810190811067ffffffffffffffff82111761049357604052565b6040810190811067ffffffffffffffff82111761049357604052565b6060810190811067ffffffffffffffff82111761049357604052565b60e0810190811067ffffffffffffffff82111761049357604052565b90601f7fffffffffffffffffffffffffffffffffffffffffffffffffffffffffffffffe0910116810190811067ffffffffffffffff82111761049357604052565b6040519060c0820182811067ffffffffffffffff82111761049357604052565b60405190610140820182811067ffffffffffffffff82111761049357604052565b6040519061032082610498565b67ffffffffffffffff811161049357601f017fffffffffffffffffffffffffffffffffffffffffffffffffffffffffffffffe01660200190565b81601f8201121561030e57803590610604826105b3565b926106126040519485610524565b8284526020838301011161030e57816000926020809301838601378301015290565b67ffffffffffffffff81116104935760051b60200190565b81601f8201121561030e5780359161066383610634565b926106716040519485610524565b808452602092838086019260051b82010192831161030e578301905b82821061069b575050505090565b8135815290830190830161068d565b3461030e576101807ffffffffffffffffffffffffffffffffffffffffffffffffffffffffffffffffc36011261030e576004356106e6816102f0565b6106ee610322565b906106f761032f565b6106ff610354565b92610708610364565b6107106103b7565b6107186103ca565b91610124359667ffffffffffffffff9788811161030e5761073d9036906004016105ed565b946101643598891161030e5761075a61001999369060040161064c565b9761014435976084359260643592613577565b6101007ffffffffffffffffffffffffffffffffffffffffffffffffffffffffffffffffc36011261030e576004356107a4816102f0565b6024356107b0816102f0565b60443591606435906107c0610374565b6107c86103de565b9060c43567ffffffffffffffff811161030e576107e99036906004016105ed565b946107f26131b0565b61086b95865460ff8160e81c16610b295761085361084e610847896108388773ffffffffffffffffffffffffffffffffffffffff1660005261086d602052604060002090565b90600052602052604060002090565b5460ff1690565b61387b565b6108716706f05b59d3b2000061086b8660070b613d3a565b106138e0565b61088c6ec097ce7bc90715b34b9f10000000008a1115613945565b6108c560e4356108bd8573ffffffffffffffffffffffffffffffffffffffff16600052610870602052604060002090565b5411156139aa565b63ffffffff906108fa828260a01c166108ea6108e1828a613a3e565b63ffffffff1690565b4210159081610b11575b50613a71565b60c01c169661095b61090b89613ad6565b61086b907fffffffff00000000ffffffffffffffffffffffffffffffffffffffffffffffff7bffffffff00000000000000000000000000000000000000000000000083549260c01b169116179055565b6109868373ffffffffffffffffffffffffffffffffffffffff16600052610870602052604060002090565b6109918a8254613aeb565b9055886109d16109b86109b8845473ffffffffffffffffffffffffffffffffffffffff1690565b73ffffffffffffffffffffffffffffffffffffffff1690565b73ffffffffffffffffffffffffffffffffffffffff851690811480610b08575b15610acd5750610a2391610a096109b8923414613af8565b5473ffffffffffffffffffffffffffffffffffffffff1690565b94853b1561030e576000600496604051978880927fd0e30db000000000000000000000000000000000000000000000000000000000825234905af1928315610ac8577fafc4df6845a4ab948b492800d3d8a25d538a102a2bc07cd01f1cfa097fddcff696610aa294610aaf575b505b604051958695339b469088613b5d565b0390a46100196001606555565b80610abc610ac29261047f565b80610c3f565b38610a90565b612c72565b7fafc4df6845a4ab948b492800d3d8a25d538a102a2bc07cd01f1cfa097fddcff6979250610aa29491610b039130903390613bb3565b610a92565b503415156109f1565b610b2091506108e19089613a59565b421115386108f4565b60646040517f08c379a000000000000000000000000000000000000000000000000000000000815260206004820152600f60248201527f506175736564206465706f7369747300000000000000000000000000000000006044820152fd5b3461030e5760207ffffffffffffffffffffffffffffffffffffffffffffffffffffffffffffffffc36011261030e5773ffffffffffffffffffffffffffffffffffffffff600435610bd7816102f0565b610bdf613754565b610be76131b0565b16610c5b817fffffffffffffffffffffffff00000000000000000000000000000000000000008254161790557f6ade7bc58132776cc11d9b570837a732329396078de17b87db95463ca7f5d25f600080a26001606555005b600091031261030e57565b3461030e5760007ffffffffffffffffffffffffffffffffffffffffffffffffffffffffffffffffc36011261030e57602073ffffffffffffffffffffffffffffffffffffffff61086b5416604051908152f35b81601f8201121561030e57803591610cb483610634565b92610cc26040519485610524565b808452602092838086019260051b82010192831161030e578301905b828210610cec575050505090565b8380918335610cfa816102f0565b815201910190610cde565b3461030e577ffffffffffffffffffffffffffffffffffffffffffffffffffffffffffffffffc60608136011261030e57610d3d6103f1565b60243567ffffffffffffffff9283821161030e5760c090823603011261030e57610d65610565565b908060040135825260248101356020830152604481013584811161030e57610d93906004369184010161064c565b6040830152610da46064820161043f565b6060830152610db560848201610349565b608083015260a48101359084821161030e576004610dd69236920101610c9d565b60a082015260443592831161030e57610df661001993369060040161064c565b916132f7565b3461030e5760207ffffffffffffffffffffffffffffffffffffffffffffffffffffffffffffffffc36011261030e57610e4f600435610e3a816102f0565b610e42613754565b610e4a6131b0565b614886565b6001606555005b3461030e5760207ffffffffffffffffffffffffffffffffffffffffffffffffffffffffffffffffc36011261030e576004356000526108716020526020604060002054604051908152f35b8015150361030e57565b3461030e5760607ffffffffffffffffffffffffffffffffffffffffffffffffffffffffffffffffc36011261030e57600435610ee6816102f0565b60243573ffffffffffffffffffffffffffffffffffffffff60443592610f0b84610ea1565b610f13613754565b610f1b6131b0565b167f0a21fdd43d0ad0c62689ee7230a47309a050755bcc52eba00310add65297692a602060009483865261086d825260408620858752825260408620901515907fffffffffffffffffffffffffffffffffffffffffffffffffffffffffffffff0081541660ff8316179055604051908152a3600160655580f35b3461030e5760207ffffffffffffffffffffffffffffffffffffffffffffffffffffffffffffffffc36011261030e577f0e55dd180fa793d9036c804d0a116e6a7617a48e72cee1f83d92793a793fcc036020610fef6103f1565b610ff7613754565b610fff6131b0565b61086b80547fffffffffffffffff00000000ffffffffffffffffffffffffffffffffffffffff77ffffffff00000000000000000000000000000000000000008460a01b16911617905563ffffffff60405191168152a16001606555005b3461030e5760007ffffffffffffffffffffffffffffffffffffffffffffffffffffffffffffffffc36011261030e576020604051428152f35b3461030e5760207ffffffffffffffffffffffffffffffffffffffffffffffffffffffffffffffffc36011261030e576004356110d0816102f0565b73ffffffffffffffffffffffffffffffffffffffff90817f0000000000000000000000000000000000000000000000000000000000000000169161111683301415612b4d565b6111457f360894a13ba1a3210667c828492db98dca3e2076cc3735a920a3ca505d382bbc938285541614612bd8565b61114d613754565b6040519061115a826104b4565b600082527f4910fdfa16fed3260ed0e7147f7cc6da11a60208b5b9406d12a635614ffd91435460ff16156111945750506100199150612d09565b6020600491604094939451928380927f52d1902d00000000000000000000000000000000000000000000000000000000825286165afa60009181611274575b50611261576040517f08c379a000000000000000000000000000000000000000000000000000000000815260206004820152602e60248201527f45524331393637557067726164653a206e657720696d706c656d656e7461746960448201527f6f6e206973206e6f7420555550530000000000000000000000000000000000006064820152608490fd5b0390fd5b6100199361126f9114612c7e565b612df5565b61129691925060203d811161129d575b61128e8183610524565b810190612c63565b90386111d3565b503d611284565b3461030e5760807ffffffffffffffffffffffffffffffffffffffffffffffffffffffffffffffffc36011261030e5761001973ffffffffffffffffffffffffffffffffffffffff6112f36103f1565b611429602435611302816102f0565b610e4a60443591611312836102f0565b61133360643595611322876102f0565b61090b60ff60005460081c166137c3565b60405161133f816104d0565b6009815260208101907f4143524f53532d56320000000000000000000000000000000000000000000000825260405191611378836104d0565b6005835260208301917f312e302e3000000000000000000000000000000000000000000000000000000083526113be60ff60005460081c166113b9816137c3565b6137c3565b519020915190209061047f55610480556113d661384e565b6113de61385f565b61142461086b750e1000000000000000000000000000000000000000007fffffffffffffffff00000000ffffffffffffffffffffffffffffffffffffffff825416179055565b6147ba565b1673ffffffffffffffffffffffffffffffffffffffff61086b91167fffffffffffffffffffffffff0000000000000000000000000000000000000000825416179055565b3461030e5760007ffffffffffffffffffffffffffffffffffffffffffffffffffffffffffffffffc36011261030e57602073ffffffffffffffffffffffffffffffffffffffff610c5b5416604051908152f35b3461030e576101807ffffffffffffffffffffffffffffffffffffffffffffffffffffffffffffffffc36011261030e576004356114fc816102f0565b602435611508816102f0565b604435611514816102f0565b60e4358060070b810361030e57611529610384565b611531610404565b91610144359567ffffffffffffffff871161030e576115576100199736906004016105ed565b94610164359660c4359260a435926084359260643592613dff565b3461030e5760007ffffffffffffffffffffffffffffffffffffffffffffffffffffffffffffffffc36011261030e57602073ffffffffffffffffffffffffffffffffffffffff610c5a5416604051908152f35b3461030e5760407ffffffffffffffffffffffffffffffffffffffffffffffffffffffffffffffffc36011261030e57602435600435611602613754565b61160a6131b0565b61086c8054680100000000000000008110156104935763ffffffff916001820190558361163682612a65565b5084600182015555167fc86ba04c55bc5eb2f2876b91c438849a296dbec7b08751c3074d92e04f0a77af600080a46001606555005b60407ffffffffffffffffffffffffffffffffffffffffffffffffffffffffffffffffc36011261030e576004356116a1816102f0565b60243567ffffffffffffffff811161030e576116c19036906004016105ed565b9073ffffffffffffffffffffffffffffffffffffffff91827f0000000000000000000000000000000000000000000000000000000000000000169261170884301415612b4d565b6117377f360894a13ba1a3210667c828492db98dca3e2076cc3735a920a3ca505d382bbc948286541614612bd8565b61173f613754565b7f4910fdfa16fed3260ed0e7147f7cc6da11a60208b5b9406d12a635614ffd91435460ff16156117755750506100199150612d09565b6020600491604094939451928380927f52d1902d00000000000000000000000000000000000000000000000000000000825286165afa60009181611851575b5061183e576040517f08c379a000000000000000000000000000000000000000000000000000000000815260206004820152602e60248201527f45524331393637557067726164653a206e657720696d706c656d656e7461746960448201527f6f6e206973206e6f7420555550530000000000000000000000000000000000006064820152608490fd5b6100199361184c9114612c7e565b612ed4565b61186a91925060203d811161129d5761128e8183610524565b90386117b4565b3461030e5760407ffffffffffffffffffffffffffffffffffffffffffffffffffffffffffffffffc36011261030e5773ffffffffffffffffffffffffffffffffffffffff6004356118c1816102f0565b1660005261086d6020526040600020602435600052602052602060ff604060002054166040519015158152f35b3461030e5760007ffffffffffffffffffffffffffffffffffffffffffffffffffffffffffffffffc36011261030e57602073ffffffffffffffffffffffffffffffffffffffff6108695416604051908152f35b3461030e5760007ffffffffffffffffffffffffffffffffffffffffffffffffffffffffffffffffc36011261030e5773ffffffffffffffffffffffffffffffffffffffff7f00000000000000000000000000000000000000000000000000000000000000001630036119dc576040517f360894a13ba1a3210667c828492db98dca3e2076cc3735a920a3ca505d382bbc8152602090f35b0390f35b60846040517f08c379a000000000000000000000000000000000000000000000000000000000815260206004820152603860248201527f555550535570677261646561626c653a206d757374206e6f742062652063616c60448201527f6c6564207468726f7567682064656c656761746563616c6c00000000000000006064820152fd5b3461030e5760007ffffffffffffffffffffffffffffffffffffffffffffffffffffffffffffffffc36011261030e57602063ffffffff61086b5460a01c16604051908152f35b3461030e576102007ffffffffffffffffffffffffffffffffffffffffffffffffffffffffffffffffc36011261030e57611ade610313565b611ae6610322565b90611aef61032f565b91611af861033c565b92611b01610384565b93611b0a610395565b611b126103a6565b611b1a610418565b91610184359767ffffffffffffffff9889811161030e57611b3f9036906004016105ed565b946101a4358a811161030e57611b599036906004016105ed565b966101c4359a8b1161030e57611b766100199b36906004016105ed565b986101e4359a60e4359360c4359360a4359360843593613f95565b3461030e5760007ffffffffffffffffffffffffffffffffffffffffffffffffffffffffffffffffc36011261030e57602060ff61086b5460e81c166040519015158152f35b3461030e5760207ffffffffffffffffffffffffffffffffffffffffffffffffffffffffffffffffc36011261030e577fe88463c2f254e2b070013a2dc7ee1e099f9bc00534cbdf03af551dc26ae492196020600435611c3481610ea1565b611c3c613754565b611c446131b0565b151561086b80547fffff00ffffffffffffffffffffffffffffffffffffffffffffffffffffffffff7dff00000000000000000000000000000000000000000000000000000000008460e81b169116179055604051908152a16001606555005b3461030e5760c07ffffffffffffffffffffffffffffffffffffffffffffffffffffffffffffffffc36011261030e57611cda6103f1565b611d7a602435611ce9816102f0565b604435611cf5816102f0565b606435611d01816102f0565b60843591611d0e836102f0565b60a43593611d1b856102f0565b60005496611d4060ff8960081c16158099819a611e32575b8115611e12575b50613038565b87611d7160017fffffffffffffffffffffffffffffffffffffffffffffffffffffffffffffff006000541617600055565b611ddc576130c3565b611d8057005b611dad7fffffffffffffffffffffffffffffffffffffffffffffffffffffffffffff00ff60005416600055565b604051600181527f7f26b83ff96e1f2b6a682f133852f6798a09c465da95921460cefb384740249890602090a1005b611e0d6101007fffffffffffffffffffffffffffffffffffffffffffffffffffffffffffff00ff6000541617600055565b6130c3565b303b15915081611e24575b5038611d3a565b6001915060ff161438611e1d565b600160ff8216109150611d33565b3461030e5760c07ffffffffffffffffffffffffffffffffffffffffffffffffffffffffffffffffc36011261030e57600435611e7b816102f0565b602435908160070b820361030e57611e9161042c565b91606435611e9e816102f0565b67ffffffffffffffff9360843585811161030e57611ec09036906004016105ed565b9260a43595861161030e57611edc6100199636906004016105ed565b94613d4b565b3461030e5760207ffffffffffffffffffffffffffffffffffffffffffffffffffffffffffffffffc36011261030e5773ffffffffffffffffffffffffffffffffffffffff600435611f32816102f0565b1660005261086f6020526020604060002054604051908152f35b3461030e5760207ffffffffffffffffffffffffffffffffffffffffffffffffffffffffffffffffc36011261030e57600435611f86613754565b611f8e6131b0565b611f9781612a65565b919091611fd757600191600092818480935501557f3569b846531b754c99cb80df3f49cd72fa6fe106aaee5ab8e0caf35a9d7ce88d8280a2600160655580f35b7f4e487b7100000000000000000000000000000000000000000000000000000000600052600060045260246000fd5b3461030e5760207ffffffffffffffffffffffffffffffffffffffffffffffffffffffffffffffffc36011261030e577f2d5b62420992e5a4afce0e77742636ca2608ef58289fd2e1baa5161ef6e7e41e602060043561206481610ea1565b61206c613754565b6120746131b0565b151561086b80547fffffff00ffffffffffffffffffffffffffffffffffffffffffffffffffffffff7cff000000000000000000000000000000000000000000000000000000008460e01b169116179055604051908152a16001606555005b3461030e5760607ffffffffffffffffffffffffffffffffffffffffffffffffffffffffffffffffc36011261030e5760243561210d816102f0565b67ffffffffffffffff9060443582811161030e573660238201121561030e57806004013592831161030e57366024848301011161030e57610c5b805460ff8160a01c166122c4577fffffffffffffffffffffff00ffffffffffffffffffffffffffffffffffffffff74010000000000000000000000000000000000000000911617905573ffffffffffffffffffffffffffffffffffffffff80610c5a5416330361226657612210916121e86024926121de6109b86108695473ffffffffffffffffffffffffffffffffffffffff1690565b951694851461321f565b604051806121fd816000988996879601613284565b0390305af461220a612f34565b50613292565b337f5185f02297526865dfbc461916f7dd8d40414c836fa469073ebea66ce68ba8638380a3612263610c5b7fffffffffffffffffffffff00ffffffffffffffffffffffffffffffffffffffff8154169055565b80f35b60646040517f08c379a000000000000000000000000000000000000000000000000000000000815260206004820152601060248201527f4e6f742066726f6d2066784368696c64000000000000000000000000000000006044820152fd5b60646040517f08c379a000000000000000000000000000000000000000000000000000000000815260206004820152601960248201527f63616c6c56616c69646174656420616c726561647920736574000000000000006044820152fd5b3461030e5760007ffffffffffffffffffffffffffffffffffffffffffffffffffffffffffffffffc36011261030e576020604051468152f35b3461030e5760007ffffffffffffffffffffffffffffffffffffffffffffffffffffffffffffffffc36011261030e57602063ffffffff61086b5460c01c16604051908152f35b3461030e576101007ffffffffffffffffffffffffffffffffffffffffffffffffffffffffffffffffc36011261030e576004356123dd816102f0565b60243590604435907face81ce0f8b8d27a1aed0c4df5f6b2743e46fc50fe3e0183dd7cd6a7b9db22fb63ffffffff606435610aa2612419610374565b916124226103de565b9260c4359061242f6131b0565b61244a6ec097ce7bc90715b34b9f10000000008b1115613945565b73ffffffffffffffffffffffffffffffffffffffff881660005261086f60205261247d60e43560406000205411156139aa565b60408051336020820190815273ffffffffffffffffffffffffffffffffffffffff8b1692820192909252606081018c9052608081018b905260a08101859052600783900b60c082015263ffffffff871660e0820152610100810184905261252991906125158161012081015b037fffffffffffffffffffffffffffffffffffffffffffffffffffffffffffffffe08101835282610524565b519020600052610871602052604060002090565b92835493612536856140c8565b90556125438b15156140f5565b61254e89838d6159ac565b604051968796169a3399879260a094919796959273ffffffffffffffffffffffffffffffffffffffff60c08601991685526020850152604084015260070b606083015260808201520152565b3461030e5760007ffffffffffffffffffffffffffffffffffffffffffffffffffffffffffffffffc36011261030e5760206040517f0e058f05b73c62ee68329d2c67c067aaae9a06503cc306378d144d0f0177882b8152f35b60005b8381106126065750506000910152565b81810151838201526020016125f6565b907fffffffffffffffffffffffffffffffffffffffffffffffffffffffffffffffe0601f602093612652815180928187528780880191016125f3565b0116010190565b602080820190808352835180925260408301928160408460051b8301019501936000915b84831061268d5750505050505090565b90919293949584806126c9837fffffffffffffffffffffffffffffffffffffffffffffffffffffffffffffffc086600196030187528a51612616565b980193019301919493929061267d565b3461030e5760207ffffffffffffffffffffffffffffffffffffffffffffffffffffffffffffffffc36011261030e5767ffffffffffffffff60043581811161030e573660238201121561030e57806004013591821161030e573660248360051b8301011161030e576119d89160246127519201615ded565b60405191829182612659565b3461030e5760007ffffffffffffffffffffffffffffffffffffffffffffffffffffffffffffffffc36011261030e576020604051701d6329f1c35ca4bfabb9f56100000000008152f35b3461030e5760207ffffffffffffffffffffffffffffffffffffffffffffffffffffffffffffffffc36011261030e5773ffffffffffffffffffffffffffffffffffffffff6004356127f7816102f0565b6127ff613754565b6128076131b0565b16610c5a817fffffffffffffffffffffffff00000000000000000000000000000000000000008254161790557f573834b6d6901b74ef64eeb676a0b99d7946df822b7021e44ee0da19d846c495600080a26001606555005b3461030e5760207ffffffffffffffffffffffffffffffffffffffffffffffffffffffffffffffffc36011261030e5773ffffffffffffffffffffffffffffffffffffffff6004356128af816102f0565b166000526108706020526020604060002054604051908152f35b3461030e5760007ffffffffffffffffffffffffffffffffffffffffffffffffffffffffffffffffc36011261030e576129006131b0565b610e4f6136e3565b3461030e5760007ffffffffffffffffffffffffffffffffffffffffffffffffffffffffffffffffc36011261030e57602060ff61086b5460e01c166040519015158152f35b3461030e5760007ffffffffffffffffffffffffffffffffffffffffffffffffffffffffffffffffc36011261030e5760206040516ec097ce7bc90715b34b9f10000000008152f35b3461030e5760207ffffffffffffffffffffffffffffffffffffffffffffffffffffffffffffffffc36011261030e57610e4f6004356129d3816102f0565b6129db613754565b6114246131b0565b3461030e5760007ffffffffffffffffffffffffffffffffffffffffffffffffffffffffffffffffc36011261030e57602073ffffffffffffffffffffffffffffffffffffffff61086a5416604051908152f35b7f4e487b7100000000000000000000000000000000000000000000000000000000600052603260045260246000fd5b61086c908154811015612aa157600391600052027f71cd7344f4eb2efc8e30291f6dbdb44d618ca368ea5425d217c1d604bf26b84d0190600090565b612a36565b3461030e5760207ffffffffffffffffffffffffffffffffffffffffffffffffffffffffffffffffc36011261030e5760043561086c5481101561030e57612aee604091612a65565b506001815491015482519182526020820152f35b3461030e5760207ffffffffffffffffffffffffffffffffffffffffffffffffffffffffffffffffc36011261030e5760043560005261086e6020526020604060002054604051908152f35b15612b5457565b60846040517f08c379a000000000000000000000000000000000000000000000000000000000815260206004820152602c60248201527f46756e6374696f6e206d7573742062652063616c6c6564207468726f7567682060448201527f64656c656761746563616c6c00000000000000000000000000000000000000006064820152fd5b15612bdf57565b60846040517f08c379a000000000000000000000000000000000000000000000000000000000815260206004820152602c60248201527f46756e6374696f6e206d7573742062652063616c6c6564207468726f7567682060448201527f6163746976652070726f787900000000000000000000000000000000000000006064820152fd5b9081602091031261030e575190565b6040513d6000823e3d90fd5b15612c8557565b60846040517f08c379a000000000000000000000000000000000000000000000000000000000815260206004820152602960248201527f45524331393637557067726164653a20756e737570706f727465642070726f7860448201527f6961626c655555494400000000000000000000000000000000000000000000006064820152fd5b803b15612d715773ffffffffffffffffffffffffffffffffffffffff7f360894a13ba1a3210667c828492db98dca3e2076cc3735a920a3ca505d382bbc91167fffffffffffffffffffffffff0000000000000000000000000000000000000000825416179055565b60846040517f08c379a000000000000000000000000000000000000000000000000000000000815260206004820152602d60248201527f455243313936373a206e657720696d706c656d656e746174696f6e206973206e60448201527f6f74206120636f6e7472616374000000000000000000000000000000000000006064820152fd5b90612dff82612d09565b73ffffffffffffffffffffffffffffffffffffffff82167fbc7cd75a20ee27fd9adebab32041f755214dbc6bffa90cc0225b39da2e5c2d3b600080a2805115801590612ecc575b612e4e575050565b612ec99160008060405193612e62856104ec565b602785527f416464726573733a206c6f772d6c6576656c2064656c65676174652063616c6c60208601527f206661696c6564000000000000000000000000000000000000000000000000006040860152602081519101845af4612ec3612f34565b91612f64565b50565b506000612e46565b90612ede82612d09565b73ffffffffffffffffffffffffffffffffffffffff82167fbc7cd75a20ee27fd9adebab32041f755214dbc6bffa90cc0225b39da2e5c2d3b600080a2805115801590612f2c57612e4e575050565b506001612e46565b3d15612f5f573d90612f45826105b3565b91612f536040519384610524565b82523d6000602084013e565b606090565b91929015612fdf5750815115612f78575090565b3b15612f815790565b60646040517f08c379a000000000000000000000000000000000000000000000000000000000815260206004820152601d60248201527f416464726573733a2063616c6c20746f206e6f6e2d636f6e74726163740000006044820152fd5b825190915015612ff25750805190602001fd5b61125d906040519182917f08c379a0000000000000000000000000000000000000000000000000000000008352600483015b906020613035928181520190612616565b90565b1561303f57565b60846040517f08c379a000000000000000000000000000000000000000000000000000000000815260206004820152602e60248201527f496e697469616c697a61626c653a20636f6e747261637420697320616c72656160448201527f647920696e697469616c697a65640000000000000000000000000000000000006064820152fd5b610320959461142961316d95610e4a61312a959661133373ffffffffffffffffffffffffffffffffffffffff96610c5b7fffffffffffffffffffffff00ffffffffffffffffffffffffffffffffffffffff815416905561090b60ff60005460081c166137c3565b73ffffffffffffffffffffffffffffffffffffffff610c5b91167fffffffffffffffffffffffff0000000000000000000000000000000000000000825416179055565b73ffffffffffffffffffffffffffffffffffffffff610c5a91167fffffffffffffffffffffffff0000000000000000000000000000000000000000825416179055565b6002606554146131c1576002606555565b60646040517f08c379a000000000000000000000000000000000000000000000000000000000815260206004820152601f60248201527f5265656e7472616e637947756172643a207265656e7472616e742063616c6c006044820152fd5b1561322657565b60646040517f08c379a000000000000000000000000000000000000000000000000000000000815260206004820152601660248201527f4e6f742066726f6d206d61696e6e65742061646d696e000000000000000000006044820152fd5b908092918237016000815290565b1561329957565b60646040517f08c379a000000000000000000000000000000000000000000000000000000000815260206004820152601360248201527f64656c656761746563616c6c206661696c6564000000000000000000000000006044820152fd5b91906133016131b0565b6133096136e3565b602081019061331a8251461461415a565b60a0810190815151926133346040830194855151146141bf565b600261333f87612a65565b50613358613353600198868a85015461445b565b614224565b01946133d460608401966133a461339f61339b61337c6108e18c5163ffffffff1690565b848160081c600052602052600160ff60406000205492161b8091161490565b1590565b614289565b6133b56108e1895163ffffffff1690565b908160081c600052602052604060002090600160ff835492161b179055565b84515160005b81811061350057505050906134627ff8bd640004bcec1b89657020f561d0b070cbdf662d0b158db9dccb0a8301bfab9392825161346f575b613447608061342b855193519851995163ffffffff1690565b94015173ffffffffffffffffffffffffffffffffffffffff1690565b935160405194859463ffffffff8091169a1698339386614380565b0390a46103206001606555565b61347883614562565b825181519061348b895163ffffffff1690565b917f828fc203220356df8f072a91681caee7d5c75095e2a95e80ed5a14b384697f7173ffffffffffffffffffffffffffffffffffffffff6134e3608089015173ffffffffffffffffffffffffffffffffffffffff1690565b6040805195865233602087015291169463ffffffff1693a4613412565b8061350d849289516142ee565b518061351b575b50016133da565b613571906135436109b860808a015173ffffffffffffffffffffffffffffffffffffffff1690565b61356b613551858c516142ee565b5173ffffffffffffffffffffffffffffffffffffffff1690565b906143d4565b38613514565b9a989593919996949290979961358b6131b0565b6135936136e3565b61359b610585565b73ffffffffffffffffffffffffffffffffffffffff909c168c5273ffffffffffffffffffffffffffffffffffffffff891660208d015273ffffffffffffffffffffffffffffffffffffffff1660408c015260608b015260808a01524660a08a015260070b60c089015260070b60e088015263ffffffff166101008781019190915261012091808389015261362d610585565b97885260006020890181815260408a019190915273ffffffffffffffffffffffffffffffffffffffff90951660608901526080880152600060a0880152701d6329f1c35ca4bfabb9f561000000000060c08801527fffffffffffffffffffffffffffffffffffffffffffffffffffffffffffffffff60e088015260019087015285015283516136bb90614e7d565b90526136c79183614cba565b6136d08161521f565b6136d991615b21565b6103206001606555565b47806136ec5750565b73ffffffffffffffffffffffffffffffffffffffff61086b5416803b1561030e576000906004604051809481937fd0e30db00000000000000000000000000000000000000000000000000000000083525af18015610ac85761374b5750565b6103209061047f565b60ff610c5b5460a01c161561376557565b60646040517f08c379a000000000000000000000000000000000000000000000000000000000815260206004820152602060248201527f4d7573742063616c6c2070726f636573734d65737361676546726f6d526f6f746044820152fd5b156137ca57565b60846040517f08c379a000000000000000000000000000000000000000000000000000000000815260206004820152602b60248201527f496e697469616c697a61626c653a20636f6e7472616374206973206e6f74206960448201527f6e697469616c697a696e670000000000000000000000000000000000000000006064820152fd5b61032060ff60005460081c166137c3565b61387460ff60005460081c166113b9816137c3565b6001606555565b1561388257565b60646040517f08c379a000000000000000000000000000000000000000000000000000000000815260206004820152600e60248201527f44697361626c656420726f7574650000000000000000000000000000000000006044820152fd5b156138e757565b60646040517f08c379a000000000000000000000000000000000000000000000000000000000815260206004820152601360248201527f496e76616c69642072656c6179657220666565000000000000000000000000006044820152fd5b1561394c57565b60646040517f08c379a000000000000000000000000000000000000000000000000000000000815260206004820152601060248201527f416d6f756e7420746f6f206c61726765000000000000000000000000000000006044820152fd5b156139b157565b60646040517f08c379a000000000000000000000000000000000000000000000000000000000815260206004820152600f60248201527f41626f7665206d617820636f756e7400000000000000000000000000000000006044820152fd5b7f4e487b7100000000000000000000000000000000000000000000000000000000600052601160045260246000fd5b63ffffffff9182169082160391908211613a5457565b613a0f565b91909163ffffffff80809416911601918211613a5457565b15613a7857565b60646040517f08c379a000000000000000000000000000000000000000000000000000000000815260206004820152601260248201527f696e76616c69642071756f74652074696d6500000000000000000000000000006044820152fd5b63ffffffff809116908114613a545760010190565b91908201809211613a5457565b15613aff57565b60646040517f08c379a000000000000000000000000000000000000000000000000000000000815260206004820152601b60248201527f6d73672e76616c7565206d757374206d6174636820616d6f756e7400000000006044820152fd5b9360e0959361303598979363ffffffff938752602087015260070b604086015216606084015273ffffffffffffffffffffffffffffffffffffffff80921660808401521660a08201528160c08201520190612616565b909261032093604051937f23b872dd00000000000000000000000000000000000000000000000000000000602086015273ffffffffffffffffffffffffffffffffffffffff8092166024860152166044840152606483015260648252613c1882610498565b604051613c7d9173ffffffffffffffffffffffffffffffffffffffff16613c3e826104d0565b6000806020958685527f5361666545524332303a206c6f772d6c6576656c2063616c6c206661696c656487860152868151910182855af1612ec3612f34565b8051828115918215613d1a575b5050905015613c965750565b608490604051907f08c379a00000000000000000000000000000000000000000000000000000000082526004820152602a60248201527f5361666545524332303a204552433230206f7065726174696f6e20646964206e60448201527f6f742073756363656564000000000000000000000000000000000000000000006064820152fd5b838092935001031261030e57810151613d3281610ea1565b808238613c8a565b6000808212613d47575090565b0390565b613df59063ffffffff7fa6aa57bd282fc82378458de27be4eadfa791a0c7321c49562eeba8b2643dd5669597969497613d826131b0565b613daa8887838860070b98613da26706f05b59d3b2000061086b8c613d3a565b468e89614952565b613de3604051968796875273ffffffffffffffffffffffffffffffffffffffff8093166020880152608060408801526080870190612616565b92858403606087015216971695612616565b0390a36001606555565b9a969290989799939591613e116131b0565b61086b5460e01c60ff1615613e2590613f30565b613e2d610585565b73ffffffffffffffffffffffffffffffffffffffff909c168c5273ffffffffffffffffffffffffffffffffffffffff8a1660208d015273ffffffffffffffffffffffffffffffffffffffff1660408c015260608b015260808a01524660a08a015260070b60c0890152600787900b60e08901526101009485890190613eb7919063ffffffff169052565b6101209581878a0152613ec8610585565b988952600060208a0190815260079890980b60408a015273ffffffffffffffffffffffffffffffffffffffff166060890152608088015260a087015260c086015260e08501528301600090528201600090528151613f2590614e7d565b90526136d08161521f565b15613f3757565b60646040517f08c379a000000000000000000000000000000000000000000000000000000000815260206004820152600c60248201527f5061757365642066696c6c7300000000000000000000000000000000000000006044820152fd5b9d9c9b959e9390928e9799939b98929b613fad6131b0565b61086b5460e01c60ff1615613fc190613f30565b613fc9610585565b73ffffffffffffffffffffffffffffffffffffffff909916895273ffffffffffffffffffffffffffffffffffffffff16602089015273ffffffffffffffffffffffffffffffffffffffff1660408801526060870152608086018890524660a087015260070b60c086015260070b60e085015263ffffffff85166101008581019190915291610120938486015261405d610585565b948552600060208601908152600789900b604087015273ffffffffffffffffffffffffffffffffffffffff8a166060870152949c8d8b608082015260a0015260c08d015260e08c01528a016000905289016000905288516140bd90614e7d565b90526136c796614952565b7fffffffffffffffffffffffffffffffffffffffffffffffffffffffffffffffff8114613a545760010190565b156140fc57565b60646040517f08c379a000000000000000000000000000000000000000000000000000000000815260206004820152601260248201527f416d6f756e74206d757374206265203e203000000000000000000000000000006044820152fd5b1561416157565b60646040517f08c379a000000000000000000000000000000000000000000000000000000000815260206004820152600f60248201527f496e76616c696420636861696e496400000000000000000000000000000000006044820152fd5b156141c657565b60646040517f08c379a000000000000000000000000000000000000000000000000000000000815260206004820152600c60248201527f696e76616c6964206c65616600000000000000000000000000000000000000006044820152fd5b1561422b57565b60646040517f08c379a000000000000000000000000000000000000000000000000000000000815260206004820152600960248201527f4261642050726f6f6600000000000000000000000000000000000000000000006044820152fd5b1561429057565b60646040517f08c379a000000000000000000000000000000000000000000000000000000000815260206004820152600f60248201527f416c726561647920636c61696d656400000000000000000000000000000000006044820152fd5b8051821015612aa15760209160051b010190565b90815180825260208080930193019160005b828110614322575050505090565b835185529381019392810192600101614314565b90815180825260208080930193019160005b828110614356575050505090565b835173ffffffffffffffffffffffffffffffffffffffff1685529381019392810192600101614348565b936143a2608094936143cd93989798875260a0602088015260a0870190614302565b9073ffffffffffffffffffffffffffffffffffffffff80941660408701528582036060870152614336565b9416910152565b6040517fa9059cbb00000000000000000000000000000000000000000000000000000000602082015273ffffffffffffffffffffffffffffffffffffffff9092166024830152604482019290925261032091613c1882606481015b037fffffffffffffffffffffffffffffffffffffffffffffffffffffffffffffffe08101845283610524565b6130359291604051614501816124e9602082019460208652805160408401526020810151606084015260a06144a0604083015160c06080870152610100860190614302565b9163ffffffff6060820151168286015273ffffffffffffffffffffffffffffffffffffffff60808201511660c086015201517fffffffffffffffffffffffffffffffffffffffffffffffffffffffffffffffc08483030160e0850152614336565b51902091929091906000915b845183101561455a5761452083866142ee565b5190600082821015614548575060005260205261454260406000205b926140c8565b9161450d565b6040916145429382526020522061453c565b915092501490565b608081016145c06109b86145906109b86109b8855173ffffffffffffffffffffffffffffffffffffffff1690565b610a09610c5b916145b86109b8845473ffffffffffffffffffffffffffffffffffffffff1690565b8751916146ca565b906145e26109b8825173ffffffffffffffffffffffffffffffffffffffff1690565b8351833b1561030e576040517fd0679d3400000000000000000000000000000000000000000000000000000000815273ffffffffffffffffffffffffffffffffffffffff9290921660048301526024820152916000908390604490829084905af1918215610ac85761466e926146b7575b505173ffffffffffffffffffffffffffffffffffffffff1690565b9051604051908152309173ffffffffffffffffffffffffffffffffffffffff16907ff6003d597c8a5b43987488bd11bfd2ed0c5a14172ae0f7ce18894e7b004915be90602090a3565b80610abc6146c49261047f565b38614653565b919091604051917fdd62ed3e00000000000000000000000000000000000000000000000000000000835230600484015260208360448173ffffffffffffffffffffffffffffffffffffffff808916602483015286165afa928315610ac85760009361479a575b508201809211613a54576040517f095ea7b300000000000000000000000000000000000000000000000000000000602082015273ffffffffffffffffffffffffffffffffffffffff909316602484015260448301919091526103209190613c18826064810161442f565b6147b391935060203d811161129d5761128e8183610524565b9138614730565b73ffffffffffffffffffffffffffffffffffffffff16801561482857610869817fffffffffffffffffffffffff00000000000000000000000000000000000000008254161790557fa9e8c42c9e7fca7f62755189a16b2f5314d43d8fb24e91ba54e6d65f9314e849600080a2565b60646040517f08c379a000000000000000000000000000000000000000000000000000000000815260206004820152601960248201527f4261642062726964676520726f757465722061646472657373000000000000006044820152fd5b73ffffffffffffffffffffffffffffffffffffffff1680156148f45761086a817fffffffffffffffffffffffff00000000000000000000000000000000000000008254161790557f1f17a88f67b0f49060a34bec1a4723a563620e6aa265eb640b5046dcee0759a0600080a2565b60646040517f08c379a000000000000000000000000000000000000000000000000000000000815260206004820152601460248201527f4261642068756220706f6f6c20616464726573730000000000000000000000006044820152fd5b939260429373ffffffffffffffffffffffffffffffffffffffff610320989760208151910120916040519363ffffffff60208601967f0e058f05b73c62ee68329d2c67c067aaae9a06503cc306378d144d0f0177882b885216604086015286606086015260070b60808501521660a083015260c082015260c081526149d681610508565b5190209061047f549061048054906040519160208301937fc2f8787176b8ac6bf7215b4adcc1e069bf4ab82d9ab1df05a57a91d425935b6e855260408401526060830152608082015260808152614a2c81610498565b51902090604051917f19010000000000000000000000000000000000000000000000000000000000008352600283015260228201522090614acd565b15614a6f57565b60646040517f08c379a000000000000000000000000000000000000000000000000000000000815260206004820152601160248201527f696e76616c6964207369676e61747572650000000000000000000000000000006044820152fd5b9190614ad98282614bf3565b9390926005851015614bc45761032094159384614ba1575b508315614b01575b505050614a68565b6000929350908291604051614b53816124e960208201947f1626ba7e00000000000000000000000000000000000000000000000000000000998a87526024840152604060448401526064830190612616565b51915afa90614b60612f34565b82614b93575b82614b76575b5050388080614af9565b614b8b91925060208082518301019101612c63565b143880614b6c565b915060208251101591614b66565b73ffffffffffffffffffffffffffffffffffffffff838116911614935038614af1565b7f4e487b7100000000000000000000000000000000000000000000000000000000600052602160045260246000fd5b906041815114600014614c2157614c1d916020820151906060604084015193015160001a90614c2b565b9091565b5050600090600290565b9291907f7fffffffffffffffffffffffffffffff5d576e7357a4501ddfe92f46681b20a08311614cae5791608094939160ff602094604051948552168484015260408301526060820152600093849182805260015afa15610ac857815173ffffffffffffffffffffffffffffffffffffffff811615614ca8579190565b50600190565b50505050600090600390565b909161012082519201516040938451908582019082821067ffffffffffffffff83111761049357614d5295614cf9928852835260208301938452612a65565b50549161450186518092614d1f602083019560208752518a808501526080840190614db7565b90516060830152037fffffffffffffffffffffffffffffffffffffffffffffffffffffffffffffffe08101835282610524565b15614d5a5750565b606490517f08c379a000000000000000000000000000000000000000000000000000000000815260206004820152601860248201527f496e76616c696420736c6f772072656c61792070726f6f6600000000000000006044820152fd5b805173ffffffffffffffffffffffffffffffffffffffff168252613035919060208181015173ffffffffffffffffffffffffffffffffffffffff169083015260408181015173ffffffffffffffffffffffffffffffffffffffff1690830152606081015160608301526080810151608083015260a081015160a0830152614e4860c082015160c084019060070b9052565b60e08181015160070b908301526101008181015163ffffffff1690830152610120809101519161014080928201520190612616565b604051614e9a816124e96020820194602086526040830190614db7565b51902090565b15614ea757565b60646040517f08c379a000000000000000000000000000000000000000000000000000000000815260206004820152600c60248201527f696e76616c6964206665657300000000000000000000000000000000000000006044820152fd5b15614f0c57565b60646040517f08c379a000000000000000000000000000000000000000000000000000000000815260206004820152600c60248201527f72656c61792066696c6c656400000000000000000000000000000000000000006044820152fd5b9060070b9060070b01907fffffffffffffffffffffffffffffffffffffffffffffffff80000000000000008212677fffffffffffffff831317613a5457565b15614fb057565b60646040517f08c379a000000000000000000000000000000000000000000000000000000000815260206004820152601960248201527f66696c6c20616d6f756e742070726520666565732069732030000000000000006044820152fd5b91908203918211613a5457565b1561502257565b60646040517f08c379a000000000000000000000000000000000000000000000000000000000815260206004820152601d60248201527f7061796f757441646a7573746d656e7450637420746f6f20736d616c6c0000006044820152fd5b1561508757565b60646040517f08c379a000000000000000000000000000000000000000000000000000000000815260206004820152601d60248201527f7061796f757441646a7573746d656e7450637420746f6f206c617267650000006044820152fd5b7f80000000000000000000000000000000000000000000000000000000000000008114613a545760000390565b1561511957565b60646040517f08c379a000000000000000000000000000000000000000000000000000000000815260206004820152601c60248201527f536f6d65686f7720686974206d6178546f6b656e73546f53656e6421000000006044820152fd5b1561517e57565b60646040517f08c379a000000000000000000000000000000000000000000000000000000000815260206004820152601760248201527f696e76616c69642072657061796d656e7420636861696e0000000000000000006044820152fd5b919360a093613035969573ffffffffffffffffffffffffffffffffffffffff80941685526020850152151560408401521660608201528160808201520190612616565b90815191604081019261525f6706f05b59d3b200008061525161524c615246895160070b90565b60070b90565b613d3a565b10908161573b575b50614ea0565b60608101906152806ec097ce7bc90715b34b9f100000000083511115613945565b60208301906152a761529e835160005261086e602052604060002090565b54845111614f05565b60408101906153046152f76152d0845173ffffffffffffffffffffffffffffffffffffffff1690565b73ffffffffffffffffffffffffffffffffffffffff1660005261086f602052604060002090565b5460e087015110156139aa565b60c085019361533360c0865193019261532d615321855160070b90565b8b5160070b5b90614f6a565b90615758565b9761533f891515614fa9565b615361825161535a875160005261086e602052604060002090565b549061500e565b898110615731575b5061538a61524661539092615327615382875160070b90565b915160070b90565b896157c2565b9461012087018051806156c5575b50505061542360a08701519287519360a0850151148a819582156156b7575b5050801561569e575b6153cf90615177565b6153e5865160005261086e602052604060002090565b54906153f48451915160070b90565b865173ffffffffffffffffffffffffffffffffffffffff16916101008b019661541d8851151590565b946159ee565b615439845160005261086e602052604060002090565b615444898254613aeb565b905560608601805173ffffffffffffffffffffffffffffffffffffffff939084163381148061568b575b6156805790615507929188615497885173ffffffffffffffffffffffffffffffffffffffff1690565b91876154bf6109b86109b861086b5473ffffffffffffffffffffffffffffffffffffffff1690565b93169283036156165750505061339b6154d89151151590565b6155e3575b613551876155026109b8845173ffffffffffffffffffffffffffffffffffffffff1690565b6157f9565b91823b1515806155d5575b615520575b50505050505050565b6155466155599160809416945173ffffffffffffffffffffffffffffffffffffffff1690565b945160005261086e602052604060002090565b549051111594015193813b1561030e57600080946155a8604051978896879586947f0ea1f9380000000000000000000000000000000000000000000000000000000086523392600487016151dc565b03925af18015610ac8576155c2575b808080808080615517565b80610abc6155cf9261047f565b386155b7565b506080870151511515615512565b615611876156086109b8885173ffffffffffffffffffffffffffffffffffffffff1690565b30903390613bb3565b6154dd565b90919261339b6156269151151590565b15615677575061567291506156526109b8885173ffffffffffffffffffffffffffffffffffffffff1690565b835173ffffffffffffffffffffffffffffffffffffffff16903390613bb3565b613551565b615672926143d4565b505050505050505050565b5061569961339b8351151590565b61546e565b506153cf6156b06101008a0151151590565b90506153c6565b606001511490508a386153bd565b9661571961571f926156fd7ffffffffffffffffffffffffffffffffffffffffffffffffff21f494c589c0000615729969b121561501b565b61571368056bc75e2d6310000082511315615080565b516150e5565b906157c2565b9551861115615112565b38808061539e565b985061538a615369565b905061575161524c61524660c086015160070b90565b1038615259565b670de0b6b3a7640000918183029183830403613a545760070b808303926000821281851281169082861390151617613a545714615793570490565b7f4e487b7100000000000000000000000000000000000000000000000000000000600052601260045260246000fd5b90670de0b6b3a7640000916000828403921283831281169084841390151617613a5457818102918183041490151715613a54570490565b73ffffffffffffffffffffffffffffffffffffffff90811690813b1561584a575090610320916158456109b86109b861086b5473ffffffffffffffffffffffffffffffffffffffff1690565b6143d4565b61086b541691823b1561030e5760405180937f2e1a7d4d0000000000000000000000000000000000000000000000000000000082528260048301528160246000968780945af18015610ac85761599d575b5080471061593f578280929181925af16158b3612f34565b50156158bb57565b60846040517f08c379a000000000000000000000000000000000000000000000000000000000815260206004820152603a60248201527f416464726573733a20756e61626c6520746f2073656e642076616c75652c207260448201527f6563697069656e74206d617920686176652072657665727465640000000000006064820152fd5b60646040517f08c379a000000000000000000000000000000000000000000000000000000000815260206004820152601d60248201527f416464726573733a20696e73756666696369656e742062616c616e63650000006044820152fd5b6159a69061047f565b3861589b565b6159cf9073ffffffffffffffffffffffffffffffffffffffff9260070b906157c2565b911660005261086f60205260406000208054918201809211613a545755565b949193948215615a37575b508115615a2e575b50615a295773ffffffffffffffffffffffffffffffffffffffff916159cf9160070b906157c2565b505050565b90501538615a01565b15159150386159f9565b9073ffffffffffffffffffffffffffffffffffffffff8251168152608080615a78602085015160a0602086015260a0850190612616565b93604081015160070b6040850152606081015115156060850152015191015290565b9a979491926130359c9a9693615b129a9895928d5260208d015260408c015260608b015260808a015260070b60a089015260070b60c088015273ffffffffffffffffffffffffffffffffffffffff928380921660e0890152166101008701521661012085015261018080610140860152840190612616565b91610160818403910152615a41565b906040820151615b319060070b90565b916060810151615b549073ffffffffffffffffffffffffffffffffffffffff1690565b906080810151936101009485830151615b6c90151590565b610120928385015192615b7d6105a6565b73ffffffffffffffffffffffffffffffffffffffff9097168752602087015260070b60408601521515606085015260808401528151606001516020830151615bd09060005261086e602052604060002090565b549360a084015193519460808601519560a08101519160e0820151615bf59060070b90565b60c083015160070b9a83015163ffffffff169a6040840151615c2a9073ffffffffffffffffffffffffffffffffffffffff1690565b918451615c4a9073ffffffffffffffffffffffffffffffffffffffff1690565b986020860151615c6d9073ffffffffffffffffffffffffffffffffffffffff1690565b950151956040519a73ffffffffffffffffffffffffffffffffffffffff8c9b169e63ffffffff169d3396615ca19b8d615a9a565b037f8ab9dc6c19fe88e69bc70221b339c84332752fdd49591b7c51e66bae3947b73c91a4565b90615cd182610634565b615cde6040519182610524565b8281527fffffffffffffffffffffffffffffffffffffffffffffffffffffffffffffffe0615d0c8294610634565b019060005b828110615d1d57505050565b806060602080938501015201615d11565b9190811015612aa15760051b810135907fffffffffffffffffffffffffffffffffffffffffffffffffffffffffffffffe18136030182121561030e57019081359167ffffffffffffffff831161030e57602001823603811361030e579190565b60208183031261030e5780519067ffffffffffffffff821161030e570181601f8201121561030e578051615dc1816105b3565b92615dcf6040519485610524565b8184526020828401011161030e5761303591602080850191016125f3565b919091615df983615cc7565b9260005b818110615e0957505050565b600080615e17838587615d2e565b60409391615e29855180938193613284565b0390305af490615e37612f34565b91829015615e6657505090615e6191615e5082886142ee565b52615e5b81876142ee565b506140c8565b615dfd565b6044839293511061030e57615e8c61125d91600480940160248091518301019101615d8e565b92519283927f08c379a0000000000000000000000000000000000000000000000000000000008452830161302456fea2646970667358221220d58eaf7123d99bcbe5f18d4a2e32ea18ba5db523c5b4bfdaa2ee5078457f71ba64736f6c63430008120033",
  "devdoc": {
    "events": {
      "AdminChanged(address,address)": {
        "details": "Emitted when the admin account has changed."
      },
      "BeaconUpgraded(address)": {
        "details": "Emitted when the beacon is changed."
      },
      "Initialized(uint8)": {
        "details": "Triggered when the contract has been initialized or reinitialized."
      },
      "Upgraded(address)": {
        "details": "Emitted when the implementation is upgraded."
      }
    },
    "kind": "dev",
    "methods": {
      "__SpokePool_init(uint32,address,address,address)": {
        "params": {
          "_crossDomainAdmin": "Cross domain admin to set. Can be changed by admin.",
          "_hubPool": "Hub pool address to set. Can be changed by admin.",
          "_initialDepositId": "Starting deposit ID. Set to 0 unless this is a re-deployment in order to mitigate relay hash collisions.",
          "_wrappedNativeTokenAddress": "wrappedNativeToken address for this network to set."
        }
      },
      "chainId()": {
        "details": "Some L2s like ZKSync don't support the CHAIN_ID opcode so we allow the implementer to override this."
      },
      "deposit(address,address,uint256,uint256,int64,uint32,bytes,uint256)": {
        "params": {
          "amount": "Amount of tokens to deposit. Will be amount of tokens to receive less fees.",
          "destinationChainId": "Denotes network where user will receive funds from SpokePool by a relayer.",
          "maxCount": "used to protect the depositor from frontrunning to guarantee their quote remains valid.",
          "message": "Arbitrary data that can be used to pass additional information to the recipient along with the tokens. Note: this is intended to be used to pass along instructions for how a contract should use or allocate the tokens.",
          "originToken": "Token to lock into this contract to initiate deposit.",
          "quoteTimestamp": "Timestamp used by relayers to compute this deposit's realizedLPFeePct which is paid to LP pool on HubPool.",
          "recipient": "Address to receive funds at on destination chain.",
          "relayerFeePct": "% of deposit amount taken out to incentivize a fast relayer."
        }
      },
      "emergencyDeleteRootBundle(uint256)": {
        "params": {
          "rootBundleId": "Index of the root bundle that needs to be deleted. Note: this is intentionally a uint256 to ensure that a small input range doesn't limit which indices this method is able to reach."
        }
      },
      "executeRelayerRefundLeaf(uint32,(uint256,uint256,uint256[],uint32,address,address[]),bytes32[])": {
        "details": "this is only overridden to wrap any matic the contract holds before running.",
        "params": {
          "proof": "Inclusion proof for this leaf in relayer refund root in root bundle.",
          "relayerRefundLeaf": "Contains all data necessary to reconstruct leaf contained in root bundle and to refund relayer. This data structure is explained in detail in the SpokePoolInterface.",
          "rootBundleId": "Unique ID of root bundle containing relayer refund root that this leaf is contained in."
        }
      },
      "executeSlowRelayLeaf(address,address,address,uint256,uint256,int64,int64,uint32,uint32,bytes,int256,bytes32[])": {
        "details": "This function assumes that the relay's destination chain ID is the current chain ID, which prevents the caller from executing a slow relay intended for another chain on this chain. This is only overridden to call wrap before running the function.",
        "params": {
          "amount": "Full size of the deposit.",
          "depositId": "Unique deposit ID on origin spoke pool.",
          "depositor": "Depositor on origin chain who set this chain as the destination chain.",
          "destinationToken": "Token to send to recipient. Should be mapped to the origin token, origin chain ID and this chain ID via a mapping on the HubPool.",
          "originChainId": "Chain of SpokePool where deposit originated.",
          "proof": "Inclusion proof for this leaf in slow relay root in root bundle.",
          "realizedLpFeePct": "Fee % based on L1 HubPool utilization at deposit quote time. Deterministic based on quote time.",
          "recipient": "Specified recipient on this chain.",
          "relayerFeePct": "Original fee % to keep as relayer set by depositor.",
          "rootBundleId": "Unique ID of root bundle containing slow relay root that this leaf is contained in."
        }
      },
      "fillRelay(address,address,address,uint256,uint256,uint256,uint256,int64,int64,uint32,bytes,uint256)": {
        "params": {
          "amount": "Full size of the deposit.",
          "depositId": "Unique deposit ID on origin spoke pool.",
          "depositor": "Depositor on origin chain who set this chain as the destination chain.",
          "destinationToken": "Token to send to recipient. Should be mapped to the origin token, origin chain ID and this chain ID via a mapping on the HubPool.",
          "maxCount": "Max count to protect the relayer from frontrunning.",
          "maxTokensToSend": "Max amount of tokens to send recipient. If higher than amount, then caller will send recipient the full relay amount.",
          "message": "Message to send to recipient along with tokens.",
          "originChainId": "Chain of SpokePool where deposit originated.",
          "realizedLpFeePct": "Fee % based on L1 HubPool utilization at deposit quote time. Deterministic based on quote time.",
          "recipient": "Specified recipient on this chain.",
          "relayerFeePct": "Fee % to keep as relayer, specified by depositor.",
          "repaymentChainId": "Chain of SpokePool where relayer wants to be refunded after the challenge window has passed."
        }
      },
      "fillRelayWithUpdatedDeposit(address,address,address,address,uint256,uint256,uint256,uint256,int64,int64,int64,uint32,bytes,bytes,bytes,uint256)": {
        "params": {
          "amount": "Full size of the deposit.",
          "depositId": "Unique deposit ID on origin spoke pool.",
          "depositor": "Depositor on origin chain who set this chain as the destination chain.",
          "depositorSignature": "Signed message containing the depositor address, this contract chain ID, the updated relayer fee %, and the deposit ID. This signature is produced by signing a hash of data according to the EIP-712 standard. See more in the _verifyUpdateRelayerFeeMessage() comments.",
          "destinationToken": "Token to send to recipient. Should be mapped to the origin token, origin chain ID and this chain ID via a mapping on the HubPool.",
          "maxCount": "Max fill count to protect the relayer from frontrunning.",
          "maxTokensToSend": "Max amount of tokens to send recipient. If higher than amount, then caller will send recipient the full relay amount.",
          "message": "Original message that was sent along with this deposit.",
          "originChainId": "Chain of SpokePool where deposit originated.",
          "realizedLpFeePct": "Fee % based on L1 HubPool utilization at deposit quote time. Deterministic based on quote time.",
          "recipient": "Specified recipient on this chain.",
          "relayerFeePct": "Original fee % to keep as relayer set by depositor.",
          "repaymentChainId": "Chain of SpokePool where relayer wants to be refunded after the challenge window has passed.",
          "updatedMessage": "Modified message that the depositor signed when updating parameters.",
          "updatedRelayerFeePct": "New fee % to keep as relayer also specified by depositor."
        }
      },
      "getCurrentTime()": {
        "returns": {
          "_0": "uint for the current timestamp."
        }
      },
      "initialize(uint32,address,address,address,address,address)": {
        "params": {
          "_crossDomainAdmin": "Cross domain admin to set. Can be changed by admin.",
          "_fxChild": "FxChild contract, changeable by Admin.",
          "_hubPool": "Hub pool address to set. Can be changed by admin.",
          "_initialDepositId": "Starting deposit ID. Set to 0 unless this is a re-deployment in order to mitigate relay hash collisions.",
          "_polygonTokenBridger": "Token routing contract that sends tokens from here to HubPool. Changeable by Admin.",
          "_wmaticAddress": "Replaces wrappedNativeToken for this network since MATIC is the native currency on polygon."
        }
      },
      "pauseDeposits(bool)": {
        "details": "Affects `deposit()` but not `speedUpDeposit()`, so that existing deposits can be sped up and still relayed.",
        "params": {
          "pause": "true if the call is meant to pause the system, false if the call is meant to unpause it."
        }
      },
      "pauseFills(bool)": {
        "details": "Affects fillRelayWithUpdatedDeposit() and fillRelay().",
        "params": {
          "pause": "true if the call is meant to pause the system, false if the call is meant to unpause it."
        }
      },
      "processMessageFromRoot(uint256,address,bytes)": {
        "details": "stateId value isn't used because it isn't relevant for this method. It doesn't care what state sync triggered this call.",
        "params": {
          "data": "ABI encoded function call to execute on this contract.",
          "rootMessageSender": "Original L1 sender of data."
        }
      },
      "proxiableUUID()": {
        "details": "Implementation of the ERC1822 {proxiableUUID} function. This returns the storage slot used by the implementation. It is used to validate the implementation's compatibility when performing an upgrade. IMPORTANT: A proxy pointing at a proxiable contract should not be considered proxiable itself, because this risks bricking a proxy that upgrades to it, by delegating to itself until out of gas. Thus it is critical that this function revert if invoked through a proxy. This is guaranteed by the `notDelegated` modifier."
      },
      "relayRootBundle(bytes32,bytes32)": {
        "params": {
          "relayerRefundRoot": "Merkle root containing relayer refund leaves that can be individually executed via executeRelayerRefundLeaf().",
          "slowRelayRoot": "Merkle root containing slow relay fulfillment leaves that can be individually executed via executeSlowRelayLeaf()."
        }
      },
      "requestRefund(address,uint256,uint256,uint256,int64,uint32,uint256,uint256)": {
        "details": "This function could be used to artificially inflate the `fillCounter`, allowing the caller to \"frontrun\" and cancel pending fills in the mempool. This would in the worst case censor fills at the cost of the caller's gas costs. We don't view this as a major issue as the fill can be resubmitted and obtain the same incentive, since incentives are based on validated refunds and would ignore these censoring attempts. This is no different from calling `fillRelay` and setting msg.sender = recipient.Caller needs to pass in `fillBlock` that the FilledRelay event was emitted on the `destinationChainId`. This is to make it hard to request a refund before a fill has been mined and to make lookups of the original fill as simple as possible.",
        "params": {
          "amount": "Original deposit amount.",
          "depositId": "Original deposit ID.",
          "destinationChainId": "Original destination chain ID.",
          "maxCount": "Max count to protect the refund recipient from frontrunning.",
          "originChainId": "Original origin chain ID.",
          "realizedLpFeePct": "Original realized LP fee %.",
          "refundToken": "This chain's token equivalent for original fill destination token."
        }
      },
      "setCrossDomainAdmin(address)": {
        "params": {
          "newCrossDomainAdmin": "New cross domain admin."
        }
      },
      "setDepositQuoteTimeBuffer(uint32)": {
        "params": {
          "newDepositQuoteTimeBuffer": "New quote time buffer."
        }
      },
      "setEnableRoute(address,uint256,bool)": {
        "params": {
          "destinationChainId": "Chain ID for where depositor wants to receive funds.",
          "enabled": "True to enable deposits, False otherwise.",
          "originToken": "Token that depositor can deposit to this contract."
        }
      },
      "setFxChild(address)": {
        "params": {
          "newFxChild": "New FxChild."
        }
      },
      "setHubPool(address)": {
        "params": {
          "newHubPool": "New hub pool."
        }
      },
      "setPolygonTokenBridger(address)": {
        "params": {
          "newPolygonTokenBridger": "New Polygon Token Bridger contract."
        }
      },
      "speedUpDeposit(address,int64,uint32,address,bytes,bytes)": {
        "params": {
          "depositId": "Deposit to update fee for that originated in this contract.",
          "depositor": "Signer of the update fee message who originally submitted the deposit. If the deposit doesn't exist, then the relayer will not be able to fill any relay, so the caller should validate that the depositor did in fact submit a relay.",
          "depositorSignature": "Signed message containing the depositor address, this contract chain ID, the updated relayer fee %, and the deposit ID. This signature is produced by signing a hash of data according to the EIP-712 standard. See more in the _verifyUpdateRelayerFeeMessage() comments.",
          "updatedMessage": "New message that should be provided to the recipient.",
          "updatedRecipient": "New recipient address that should receive the tokens.",
          "updatedRelayerFeePct": "New relayer fee that relayers can use."
        }
      },
      "upgradeTo(address)": {
        "custom:oz-upgrades-unsafe-allow-reachable": "delegatecall",
        "details": "Upgrade the implementation of the proxy to `newImplementation`. Calls {_authorizeUpgrade}. Emits an {Upgraded} event."
      },
      "upgradeToAndCall(address,bytes)": {
        "custom:oz-upgrades-unsafe-allow-reachable": "delegatecall",
        "details": "Upgrade the implementation of the proxy to `newImplementation`, and subsequently execute the function call encoded in `data`. Calls {_authorizeUpgrade}. Emits an {Upgraded} event."
      },
      "wrap()": {
        "details": "Unlike other ERC20 transfers, Matic transfers from L1 -> L2 bridging don't result in an L2 call into the contract receiving the tokens, so wrapping must be done via a separate transaction. In other words, we can't rely upon a `fallback()` method being triggered to wrap MATIC upon receiving it."
      }
    },
    "version": 1
  },
  "userdoc": {
    "kind": "user",
    "methods": {
      "__SpokePool_init(uint32,address,address,address)": {
        "notice": "Construct the base SpokePool."
      },
      "chainId()": {
        "notice": "Returns chain ID for this network."
      },
      "deposit(address,address,uint256,uint256,int64,uint32,bytes,uint256)": {
        "notice": "Called by user to bridge funds from origin to destination chain. Depositor will effectively lock tokens in this contract and receive a destination token on the destination chain. The origin => destination token mapping is stored on the L1 HubPool.The caller must first approve this contract to spend amount of originToken.The originToken => destinationChainId must be enabled.This method is payable because the caller is able to deposit native token if the originToken is wrappedNativeToken and this function will handle wrapping the native token to wrappedNativeToken."
      },
      "emergencyDeleteRootBundle(uint256)": {
        "notice": "This method is intended to only be used in emergencies where a bad root bundle has reached the SpokePool."
      },
      "executeRelayerRefundLeaf(uint32,(uint256,uint256,uint256[],uint32,address,address[]),bytes32[])": {
        "notice": "Executes a relayer refund leaf stored as part of a root bundle. Will send the relayer the amount they sent to the recipient plus a relayer fee."
      },
      "executeSlowRelayLeaf(address,address,address,uint256,uint256,int64,int64,uint32,uint32,bytes,int256,bytes32[])": {
        "notice": "Executes a slow relay leaf stored as part of a root bundle. Will send the full amount remaining in the relay to the recipient, less fees."
      },
      "fillRelay(address,address,address,uint256,uint256,uint256,uint256,int64,int64,uint32,bytes,uint256)": {
        "notice": "Called by relayer to fulfill part of a deposit by sending destination tokens to the recipient. Relayer is expected to pass in unique identifying information for deposit that they want to fulfill, and this relay submission will be validated by off-chain data workers who can dispute this relay if any part is invalid. If the relay is valid, then the relayer will be refunded on their desired repayment chain. If relay is invalid, then relayer will not receive any refund.All of the deposit data can be found via on-chain events from the origin SpokePool, except for the realizedLpFeePct which is a function of the HubPool's utilization at the deposit quote time. This fee % is deterministic based on the quote time, so the relayer should just compute it using the canonical algorithm as described in a UMIP linked to the HubPool's identifier."
      },
      "fillRelayWithUpdatedDeposit(address,address,address,address,uint256,uint256,uint256,uint256,int64,int64,int64,uint32,bytes,bytes,bytes,uint256)": {
        "notice": "Called by relayer to execute same logic as calling fillRelay except that relayer is using an updated relayer fee %. The fee % must have been emitted in a message cryptographically signed by the depositor.By design, the depositor probably emitted the message with the updated fee by calling speedUpDeposit()."
      },
      "getCurrentTime()": {
        "notice": "Gets the current time."
      },
      "initialize(uint32,address,address,address,address,address)": {
        "notice": "Construct the Polygon SpokePool."
      },
      "pauseDeposits(bool)": {
        "notice": "Pauses deposit-related functions. This is intended to be used if this contract is deprecated or when something goes awry."
      },
      "pauseFills(bool)": {
        "notice": "Pauses fill-related functions. This is intended to be used if this contract is deprecated or when something goes awry."
      },
      "processMessageFromRoot(uint256,address,bytes)": {
        "notice": "Called by FxChild upon receiving L1 message that targets this contract. Performs an additional check that the L1 caller was the expected cross domain admin, and then delegate calls.Polygon bridge only executes this external function on the target Polygon contract when relaying messages from L1, so all functions on this SpokePool are expected to originate via this call."
      },
      "relayRootBundle(bytes32,bytes32)": {
        "notice": "This method stores a new root bundle in this contract that can be executed to refund relayers, fulfill slow relays, and send funds back to the HubPool on L1. This method can only be called by the admin and is designed to be called as part of a cross-chain message from the HubPool's executeRootBundle method."
      },
      "requestRefund(address,uint256,uint256,uint256,int64,uint32,uint256,uint256)": {
        "notice": "Caller signals to the system that they want a refund on this chain, which they set as the `repaymentChainId` on the original fillRelay() call on the `destinationChainId`. An observer should be be able to 1-to-1 match the emitted RefundRequested event with the FilledRelay event on the `destinationChainId`."
      },
      "setCrossDomainAdmin(address)": {
        "notice": "Change cross domain admin address. Callable by admin only."
      },
      "setDepositQuoteTimeBuffer(uint32)": {
        "notice": "Change allowance for deposit quote time to differ from current block time. Callable by admin only."
      },
      "setEnableRoute(address,uint256,bool)": {
        "notice": "Enable/Disable an origin token => destination chain ID route for deposits. Callable by admin only."
      },
      "setFxChild(address)": {
        "notice": "Change FxChild address. Callable only by admin via processMessageFromRoot."
      },
      "setHubPool(address)": {
        "notice": "Change L1 hub pool address. Callable by admin only."
      },
      "setPolygonTokenBridger(address)": {
        "notice": "Change polygonTokenBridger address. Callable only by admin via processMessageFromRoot."
      },
      "speedUpDeposit(address,int64,uint32,address,bytes,bytes)": {
        "notice": "Convenience method that depositor can use to signal to relayer to use updated fee.Relayer should only use events emitted by this function to submit fills with updated fees, otherwise they risk their fills getting disputed for being invalid, for example if the depositor never actually signed the update fee message.This function will revert if the depositor did not sign a message containing the updated fee for the deposit ID stored in this contract. If the deposit ID is for another contract, or the depositor address is incorrect, or the updated fee is incorrect, then the signature will not match and this function will revert.This function is not subject to a deposit pause on the off chance that deposits sent before all deposits are paused have very low fees and the user wants to entice a relayer to fill them with a higher fee."
      },
      "wrap()": {
        "notice": "Allows the caller to trigger the wrapping of any unwrapped matic tokens."
      }
    },
    "notice": "Polygon specific SpokePool.",
    "version": 1
  },
  "storageLayout": {
    "storage": [
      {
        "astId": 597,
        "contract": "contracts/Polygon_SpokePool.sol:Polygon_SpokePool",
        "label": "_initialized",
        "offset": 0,
        "slot": "0",
        "type": "t_uint8"
      },
      {
        "astId": 600,
        "contract": "contracts/Polygon_SpokePool.sol:Polygon_SpokePool",
        "label": "_initializing",
        "offset": 1,
        "slot": "0",
        "type": "t_bool"
      },
      {
        "astId": 579,
        "contract": "contracts/Polygon_SpokePool.sol:Polygon_SpokePool",
        "label": "__gap",
        "offset": 0,
        "slot": "1",
        "type": "t_array(t_uint256)50_storage"
      },
      {
        "astId": 894,
        "contract": "contracts/Polygon_SpokePool.sol:Polygon_SpokePool",
        "label": "__gap",
        "offset": 0,
        "slot": "51",
        "type": "t_array(t_uint256)50_storage"
      },
      {
        "astId": 909,
        "contract": "contracts/Polygon_SpokePool.sol:Polygon_SpokePool",
        "label": "_status",
        "offset": 0,
        "slot": "101",
        "type": "t_uint256"
      },
      {
        "astId": 978,
        "contract": "contracts/Polygon_SpokePool.sol:Polygon_SpokePool",
        "label": "__gap",
        "offset": 0,
        "slot": "102",
        "type": "t_array(t_uint256)49_storage"
      },
      {
        "astId": 13667,
        "contract": "contracts/Polygon_SpokePool.sol:Polygon_SpokePool",
        "label": "__gap",
        "offset": 0,
        "slot": "151",
        "type": "t_array(t_uint256)1000_storage"
      },
      {
        "astId": 13483,
        "contract": "contracts/Polygon_SpokePool.sol:Polygon_SpokePool",
        "label": "_HASHED_NAME",
        "offset": 0,
        "slot": "1151",
        "type": "t_bytes32"
      },
      {
        "astId": 13485,
        "contract": "contracts/Polygon_SpokePool.sol:Polygon_SpokePool",
        "label": "_HASHED_VERSION",
        "offset": 0,
        "slot": "1152",
        "type": "t_bytes32"
      },
      {
        "astId": 13584,
        "contract": "contracts/Polygon_SpokePool.sol:Polygon_SpokePool",
        "label": "__gap",
        "offset": 0,
        "slot": "1153",
        "type": "t_array(t_uint256)1000_storage"
      },
      {
        "astId": 9693,
        "contract": "contracts/Polygon_SpokePool.sol:Polygon_SpokePool",
        "label": "crossDomainAdmin",
        "offset": 0,
        "slot": "2153",
        "type": "t_address"
      },
      {
        "astId": 9695,
        "contract": "contracts/Polygon_SpokePool.sol:Polygon_SpokePool",
        "label": "hubPool",
        "offset": 0,
        "slot": "2154",
        "type": "t_address"
      },
      {
        "astId": 9698,
        "contract": "contracts/Polygon_SpokePool.sol:Polygon_SpokePool",
        "label": "wrappedNativeToken",
        "offset": 0,
        "slot": "2155",
        "type": "t_contract(WETH9Interface)12360"
      },
      {
        "astId": 9700,
        "contract": "contracts/Polygon_SpokePool.sol:Polygon_SpokePool",
        "label": "depositQuoteTimeBuffer",
        "offset": 20,
        "slot": "2155",
        "type": "t_uint32"
      },
      {
        "astId": 9702,
        "contract": "contracts/Polygon_SpokePool.sol:Polygon_SpokePool",
        "label": "numberOfDeposits",
        "offset": 24,
        "slot": "2155",
        "type": "t_uint32"
      },
      {
        "astId": 9704,
        "contract": "contracts/Polygon_SpokePool.sol:Polygon_SpokePool",
        "label": "pausedFills",
        "offset": 28,
        "slot": "2155",
        "type": "t_bool"
      },
      {
        "astId": 9706,
        "contract": "contracts/Polygon_SpokePool.sol:Polygon_SpokePool",
        "label": "pausedDeposits",
        "offset": 29,
        "slot": "2155",
        "type": "t_bool"
      },
      {
        "astId": 9710,
        "contract": "contracts/Polygon_SpokePool.sol:Polygon_SpokePool",
        "label": "rootBundles",
        "offset": 0,
        "slot": "2156",
        "type": "t_array(t_struct(RootBundle)12652_storage)dyn_storage"
      },
      {
        "astId": 9716,
        "contract": "contracts/Polygon_SpokePool.sol:Polygon_SpokePool",
        "label": "enabledDepositRoutes",
        "offset": 0,
        "slot": "2157",
        "type": "t_mapping(t_address,t_mapping(t_uint256,t_bool))"
      },
      {
        "astId": 9720,
        "contract": "contracts/Polygon_SpokePool.sol:Polygon_SpokePool",
        "label": "relayFills",
        "offset": 0,
        "slot": "2158",
        "type": "t_mapping(t_bytes32,t_uint256)"
      },
      {
        "astId": 9724,
        "contract": "contracts/Polygon_SpokePool.sol:Polygon_SpokePool",
        "label": "fillCounter",
        "offset": 0,
        "slot": "2159",
        "type": "t_mapping(t_address,t_uint256)"
      },
      {
        "astId": 9728,
        "contract": "contracts/Polygon_SpokePool.sol:Polygon_SpokePool",
        "label": "depositCounter",
        "offset": 0,
        "slot": "2160",
        "type": "t_mapping(t_address,t_uint256)"
      },
      {
        "astId": 9732,
        "contract": "contracts/Polygon_SpokePool.sol:Polygon_SpokePool",
        "label": "refundsRequested",
        "offset": 0,
        "slot": "2161",
        "type": "t_mapping(t_bytes32,t_uint256)"
      },
      {
        "astId": 11723,
        "contract": "contracts/Polygon_SpokePool.sol:Polygon_SpokePool",
        "label": "__gap",
        "offset": 0,
        "slot": "2162",
        "type": "t_array(t_uint256)1000_storage"
      },
      {
        "astId": 9304,
        "contract": "contracts/Polygon_SpokePool.sol:Polygon_SpokePool",
        "label": "fxChild",
        "offset": 0,
        "slot": "3162",
        "type": "t_address"
      },
      {
        "astId": 9307,
        "contract": "contracts/Polygon_SpokePool.sol:Polygon_SpokePool",
        "label": "polygonTokenBridger",
        "offset": 0,
        "slot": "3163",
        "type": "t_contract(PolygonTokenBridger)9275"
      },
      {
        "astId": 9309,
        "contract": "contracts/Polygon_SpokePool.sol:Polygon_SpokePool",
        "label": "callValidated",
        "offset": 20,
        "slot": "3163",
        "type": "t_bool"
      }
    ],
    "types": {
      "t_address": {
        "encoding": "inplace",
        "label": "address",
        "numberOfBytes": "20"
      },
      "t_array(t_struct(RootBundle)12652_storage)dyn_storage": {
        "base": "t_struct(RootBundle)12652_storage",
        "encoding": "dynamic_array",
        "label": "struct SpokePoolInterface.RootBundle[]",
        "numberOfBytes": "32"
      },
      "t_array(t_uint256)1000_storage": {
        "base": "t_uint256",
        "encoding": "inplace",
        "label": "uint256[1000]",
        "numberOfBytes": "32000"
      },
      "t_array(t_uint256)49_storage": {
        "base": "t_uint256",
        "encoding": "inplace",
        "label": "uint256[49]",
        "numberOfBytes": "1568"
      },
      "t_array(t_uint256)50_storage": {
        "base": "t_uint256",
        "encoding": "inplace",
        "label": "uint256[50]",
        "numberOfBytes": "1600"
      },
      "t_bool": {
        "encoding": "inplace",
        "label": "bool",
        "numberOfBytes": "1"
      },
      "t_bytes32": {
        "encoding": "inplace",
        "label": "bytes32",
        "numberOfBytes": "32"
      },
      "t_contract(PolygonTokenBridger)9275": {
        "encoding": "inplace",
        "label": "contract PolygonTokenBridger",
        "numberOfBytes": "20"
      },
      "t_contract(WETH9Interface)12360": {
        "encoding": "inplace",
        "label": "contract WETH9Interface",
        "numberOfBytes": "20"
      },
      "t_mapping(t_address,t_mapping(t_uint256,t_bool))": {
        "encoding": "mapping",
        "key": "t_address",
        "label": "mapping(address => mapping(uint256 => bool))",
        "numberOfBytes": "32",
        "value": "t_mapping(t_uint256,t_bool)"
      },
      "t_mapping(t_address,t_uint256)": {
        "encoding": "mapping",
        "key": "t_address",
        "label": "mapping(address => uint256)",
        "numberOfBytes": "32",
        "value": "t_uint256"
      },
      "t_mapping(t_bytes32,t_uint256)": {
        "encoding": "mapping",
        "key": "t_bytes32",
        "label": "mapping(bytes32 => uint256)",
        "numberOfBytes": "32",
        "value": "t_uint256"
      },
      "t_mapping(t_uint256,t_bool)": {
        "encoding": "mapping",
        "key": "t_uint256",
        "label": "mapping(uint256 => bool)",
        "numberOfBytes": "32",
        "value": "t_bool"
      },
      "t_mapping(t_uint256,t_uint256)": {
        "encoding": "mapping",
        "key": "t_uint256",
        "label": "mapping(uint256 => uint256)",
        "numberOfBytes": "32",
        "value": "t_uint256"
      },
      "t_struct(RootBundle)12652_storage": {
        "encoding": "inplace",
        "label": "struct SpokePoolInterface.RootBundle",
        "members": [
          {
            "astId": 12645,
            "contract": "contracts/Polygon_SpokePool.sol:Polygon_SpokePool",
            "label": "slowRelayRoot",
            "offset": 0,
            "slot": "0",
            "type": "t_bytes32"
          },
          {
            "astId": 12647,
            "contract": "contracts/Polygon_SpokePool.sol:Polygon_SpokePool",
            "label": "relayerRefundRoot",
            "offset": 0,
            "slot": "1",
            "type": "t_bytes32"
          },
          {
            "astId": 12651,
            "contract": "contracts/Polygon_SpokePool.sol:Polygon_SpokePool",
            "label": "claimedBitmap",
            "offset": 0,
            "slot": "2",
            "type": "t_mapping(t_uint256,t_uint256)"
          }
        ],
        "numberOfBytes": "96"
      },
      "t_uint256": {
        "encoding": "inplace",
        "label": "uint256",
        "numberOfBytes": "32"
      },
      "t_uint32": {
        "encoding": "inplace",
        "label": "uint32",
        "numberOfBytes": "4"
      },
      "t_uint8": {
        "encoding": "inplace",
        "label": "uint8",
        "numberOfBytes": "1"
      }
    }
  }
}