{
  "address": "0x6dd28353f97343EB2cb4E5864bb7Cec4289a1bD0",
  "abi": [
    {
      "inputs": [],
      "name": "ArrayLengthMismatch",
      "type": "error"
    },
    {
      "inputs": [],
      "name": "HypTokenMismatch",
      "type": "error"
    },
    {
      "inputs": [],
      "name": "OFTTokenMismatch",
      "type": "error"
    },
    {
      "anonymous": false,
      "inputs": [
        {
          "indexed": true,
          "internalType": "uint256",
          "name": "adapterChainId",
          "type": "uint256"
        },
        {
          "indexed": true,
          "internalType": "address",
          "name": "l1Token",
          "type": "address"
        },
        {
          "indexed": false,
          "internalType": "address",
          "name": "oftMessenger",
          "type": "address"
        }
      ],
      "name": "HypXERC20RouterSet",
      "type": "event"
    },
    {
      "anonymous": false,
      "inputs": [
        {
          "indexed": true,
          "internalType": "uint256",
          "name": "adapterChainId",
          "type": "uint256"
        },
        {
          "indexed": true,
          "internalType": "address",
          "name": "l1Token",
          "type": "address"
        },
        {
          "indexed": false,
          "internalType": "address",
          "name": "oftMessenger",
          "type": "address"
        }
      ],
      "name": "OFTMessengerSet",
      "type": "event"
    },
    {
      "anonymous": false,
      "inputs": [
        {
          "indexed": true,
          "internalType": "address",
          "name": "previousOwner",
          "type": "address"
        },
        {
          "indexed": true,
          "internalType": "address",
          "name": "newOwner",
          "type": "address"
        }
      ],
      "name": "OwnershipTransferred",
      "type": "event"
    },
    {
      "inputs": [
        {
          "internalType": "uint256[]",
          "name": "adapterChainIds",
          "type": "uint256[]"
        },
        {
          "internalType": "address[]",
          "name": "tokens",
          "type": "address[]"
        },
        {
          "internalType": "address[]",
          "name": "routers",
          "type": "address[]"
        }
      ],
      "name": "batchSetHypXERC20Routers",
      "outputs": [],
      "stateMutability": "nonpayable",
      "type": "function"
    },
    {
      "inputs": [
        {
          "internalType": "uint256[]",
          "name": "adapterChainIds",
          "type": "uint256[]"
        },
        {
          "internalType": "address[]",
          "name": "tokens",
          "type": "address[]"
        },
        {
          "internalType": "address[]",
          "name": "messengers",
          "type": "address[]"
        }
      ],
      "name": "batchSetOFTMessengers",
      "outputs": [],
      "stateMutability": "nonpayable",
      "type": "function"
    },
    {
      "inputs": [
        {
          "internalType": "uint256",
          "name": "",
          "type": "uint256"
        },
        {
          "internalType": "address",
          "name": "",
          "type": "address"
        }
      ],
      "name": "hypXERC20Routers",
      "outputs": [
        {
          "internalType": "address",
          "name": "",
          "type": "address"
        }
      ],
      "stateMutability": "view",
      "type": "function"
    },
    {
      "inputs": [
        {
          "internalType": "uint256",
          "name": "",
          "type": "uint256"
        },
        {
          "internalType": "address",
          "name": "",
          "type": "address"
        }
      ],
      "name": "oftMessengers",
      "outputs": [
        {
          "internalType": "address",
          "name": "",
          "type": "address"
        }
      ],
      "stateMutability": "view",
      "type": "function"
    },
    {
      "inputs": [],
      "name": "owner",
      "outputs": [
        {
          "internalType": "address",
          "name": "",
          "type": "address"
        }
      ],
      "stateMutability": "view",
      "type": "function"
    },
    {
      "inputs": [],
      "name": "renounceOwnership",
      "outputs": [],
      "stateMutability": "nonpayable",
      "type": "function"
    },
    {
      "inputs": [
        {
          "internalType": "uint256",
          "name": "adapterChainId",
          "type": "uint256"
        },
        {
          "internalType": "address",
          "name": "l1Token",
          "type": "address"
        },
        {
          "internalType": "address",
          "name": "hypXERC20Router",
          "type": "address"
        }
      ],
      "name": "setHypXERC20Router",
      "outputs": [],
      "stateMutability": "nonpayable",
      "type": "function"
    },
    {
      "inputs": [
        {
          "internalType": "uint256",
          "name": "adapterChainId",
          "type": "uint256"
        },
        {
          "internalType": "address",
          "name": "l1Token",
          "type": "address"
        },
        {
          "internalType": "address",
          "name": "oftMessenger",
          "type": "address"
        }
      ],
      "name": "setOFTMessenger",
      "outputs": [],
      "stateMutability": "nonpayable",
      "type": "function"
    },
    {
      "inputs": [
        {
          "internalType": "address",
          "name": "newOwner",
          "type": "address"
        }
      ],
      "name": "transferOwnership",
      "outputs": [],
      "stateMutability": "nonpayable",
      "type": "function"
    }
  ],
  "transactionHash": "0x3cb3ccfead53e61271d7ef6691c0a0a900ae73d8fb92464951438120d7ac8c5f",
  "args": [],
  "numDeployments": 1,
  "solcInputHash": "2dc0a95909ca19cdcc5cdfeb0071eaef",
  "bytecode": "0x6080806040523461005a575f8054336001600160a01b0319821681178355916001600160a01b03909116907f8be0079c531659141344cd1fd0a4f28419497f9722a3daafe3b4186f6b6457e09080a3610927908161005f8239f35b5f80fdfe60406080815260049081361015610014575f80fd5b5f3560e01c908163354aa8a2146104405781635d5afc041461041f5781635d79e603146103b1578163715018a6146103175781638da5cb5b146102c757816393b9c0f1146102595781639502c8fc146101db578163e027c37414610132575063f2fde38b14610081575f80fd5b3461012e5760207ffffffffffffffffffffffffffffffffffffffffffffffffffffffffffffffffc36011261012e573573ffffffffffffffffffffffffffffffffffffffff80821680920361012e576100d86105f5565b811561012e575f54827fffffffffffffffffffffffff00000000000000000000000000000000000000008216175f55167f8be0079c531659141344cd1fd0a4f28419497f9722a3daafe3b4186f6b6457e05f80a3005b5f80fd5b90503461012e5761014236610513565b9496909293956101506105f5565b8287148015906101d1575b6101ab5750505f5b85811061016c57005b806101a561017d600193898b610597565b3561019161018c84878a610597565b6105d4565b61019f61018c858b8a610597565b916106af565b01610163565b517fa24a13a6000000000000000000000000000000000000000000000000000000008152fd5b508587141561015b565b90503461012e576101eb36610513565b9496909293956101f96105f5565b82871480159061024f575b6101ab5750505f5b85811061021557005b80610249610226600193898b610597565b3561023561018c84878a610597565b61024361018c858b8a610597565b916107dd565b0161020c565b5085871415610204565b90503461012e57807ffffffffffffffffffffffffffffffffffffffffffffffffffffffffffffffffc36011261012e5760209161029461045f565b90355f5260028352815f2073ffffffffffffffffffffffffffffffffffffffff8092165f528352815f2054169051908152f35b3461012e575f7ffffffffffffffffffffffffffffffffffffffffffffffffffffffffffffffffc36011261012e5760209073ffffffffffffffffffffffffffffffffffffffff5f54169051908152f35b3461012e575f7ffffffffffffffffffffffffffffffffffffffffffffffffffffffffffffffffc36011261012e5761034d6105f5565b5f73ffffffffffffffffffffffffffffffffffffffff81547fffffffffffffffffffffffff000000000000000000000000000000000000000081168355167f8be0079c531659141344cd1fd0a4f28419497f9722a3daafe3b4186f6b6457e08280a3005b90503461012e57807ffffffffffffffffffffffffffffffffffffffffffffffffffffffffffffffffc36011261012e576020916103ec61045f565b90355f5260018352815f2073ffffffffffffffffffffffffffffffffffffffff8092165f528352815f2054169051908152f35b3461012e5761043e61043036610482565b916104396105f5565b6107dd565b005b3461012e5761043e61045136610482565b9161045a6105f5565b6106af565b6024359073ffffffffffffffffffffffffffffffffffffffff8216820361012e57565b7ffffffffffffffffffffffffffffffffffffffffffffffffffffffffffffffffc606091011261012e576004359073ffffffffffffffffffffffffffffffffffffffff90602435828116810361012e5791604435908116810361012e5790565b9181601f8401121561012e5782359167ffffffffffffffff831161012e576020808501948460051b01011161012e57565b9060607ffffffffffffffffffffffffffffffffffffffffffffffffffffffffffffffffc83011261012e5767ffffffffffffffff60043581811161012e578361055e916004016104e2565b9390939260243583811161012e5782610579916004016104e2565b9390939260443591821161012e57610593916004016104e2565b9091565b91908110156105a75760051b0190565b7f4e487b71000000000000000000000000000000000000000000000000000000005f52603260045260245ffd5b3573ffffffffffffffffffffffffffffffffffffffff8116810361012e5790565b73ffffffffffffffffffffffffffffffffffffffff5f5416330361012e57565b90601f7fffffffffffffffffffffffffffffffffffffffffffffffffffffffffffffffe0910116810190811067ffffffffffffffff82111761065657604052565b7f4e487b71000000000000000000000000000000000000000000000000000000005f52604160045260245ffd5b9081602091031261012e575173ffffffffffffffffffffffffffffffffffffffff8116810361012e5790565b9073ffffffffffffffffffffffffffffffffffffffff809316604080517f996c6cc30000000000000000000000000000000000000000000000000000000081526020938482600481875afa9182156107d3579087915f936107a4575b5016958691160361077b57907fb1b68a68486e7d2022a50dfc06bc98372a4caa313a0eeb2cef39b4392068ef309291845f5260028352805f20865f528352805f20827fffffffffffffffffffffffff000000000000000000000000000000000000000082541617905551908152a3565b600490517fcbd1e420000000000000000000000000000000000000000000000000000000008152fd5b6107c5919350863d88116107cc575b6107bd8183610615565b810190610683565b915f61070b565b503d6107b3565b83513d5f823e3d90fd5b9073ffffffffffffffffffffffffffffffffffffffff809316604080517ffc0c546a0000000000000000000000000000000000000000000000000000000081526020938482600481875afa9182156107d3579087915f936108d2575b501695869116036108a957907f586deec24810cd04def6b1abe613578c26c50f96f235ee401950b229a6d765589291845f5260018352805f20865f528352805f20827fffffffffffffffffffffffff000000000000000000000000000000000000000082541617905551908152a3565b600490517fa63e8c6b000000000000000000000000000000000000000000000000000000008152fd5b6108ea919350863d88116107cc576107bd8183610615565b915f61083956fea26469706673582212204689231dc65fe9f9549f71ddadc78668c3eaa1fc32f9caa0262701d7972f165064736f6c63430008170033",
  "devdoc": {
    "details": "A helper contract for chain adapters that support OFT or XERC20 messaging(via Hyperlane) on L1Handles token => messenger/router mapping storage, as adapters are called via delegatecall and don't have relevant storage space",
    "kind": "dev",
    "methods": {
      "owner()": {
        "details": "Returns the address of the current owner."
      },
      "renounceOwnership()": {
        "details": "Leaves the contract without owner. It will not be possible to call `onlyOwner` functions. Can only be called by the current owner. NOTE: Renouncing ownership will leave the contract without an owner, thereby disabling any functionality that is only available to the owner."
      },
      "transferOwnership(address)": {
        "details": "Transfers ownership of the contract to a new account (`newOwner`). Can only be called by the current owner."
      }
    },
    "version": 1
  },
  "userdoc": {
    "kind": "user",
    "methods": {},
    "version": 1
  },
  "storageLayout": {
    "storage": [
      {
        "astId": 4146,
        "contract": "contracts/libraries/AdapterStore.sol:AdapterStore",
        "label": "_owner",
        "offset": 0,
        "slot": "0",
        "type": "t_address"
      },
      {
        "astId": 37999,
        "contract": "contracts/libraries/AdapterStore.sol:AdapterStore",
        "label": "oftMessengers",
        "offset": 0,
        "slot": "1",
        "type": "t_mapping(t_uint256,t_mapping(t_address,t_address))"
      },
      {
        "astId": 38005,
        "contract": "contracts/libraries/AdapterStore.sol:AdapterStore",
        "label": "hypXERC20Routers",
        "offset": 0,
        "slot": "2",
        "type": "t_mapping(t_uint256,t_mapping(t_address,t_address))"
      }
    ],
    "types": {
      "t_address": {
        "encoding": "inplace",
        "label": "address",
        "numberOfBytes": "20"
      },
      "t_mapping(t_address,t_address)": {
        "encoding": "mapping",
        "key": "t_address",
        "label": "mapping(address => address)",
        "numberOfBytes": "32",
        "value": "t_address"
      },
      "t_mapping(t_uint256,t_mapping(t_address,t_address))": {
        "encoding": "mapping",
        "key": "t_uint256",
        "label": "mapping(uint256 => mapping(address => address))",
        "numberOfBytes": "32",
        "value": "t_mapping(t_address,t_address)"
      },
      "t_uint256": {
        "encoding": "inplace",
        "label": "uint256",
        "numberOfBytes": "32"
      }
    }
  }
}