{
  "address": "0x5289721D840E390352fc939C4399517ff9D17D43",
  "abi": [
    {
      "inputs": [],
      "name": "ArrayLengthMismatch",
      "type": "error"
    },
    {
      "inputs": [],
      "name": "HypTokenMismatch",
      "type": "error"
    },
    {
      "inputs": [],
      "name": "OFTTokenMismatch",
      "type": "error"
    },
    {
      "anonymous": false,
      "inputs": [
        {
          "indexed": false,
          "internalType": "address",
          "name": "previousAdmin",
          "type": "address"
        },
        {
          "indexed": false,
          "internalType": "address",
          "name": "newAdmin",
          "type": "address"
        }
      ],
      "name": "AdminChanged",
      "type": "event"
    },
    {
      "anonymous": false,
      "inputs": [
        {
          "indexed": true,
          "internalType": "address",
          "name": "beacon",
          "type": "address"
        }
      ],
      "name": "BeaconUpgraded",
      "type": "event"
    },
    {
      "anonymous": false,
      "inputs": [
        {
          "indexed": true,
          "internalType": "uint256",
          "name": "adapterChainId",
          "type": "uint256"
        },
        {
          "indexed": true,
          "internalType": "address",
          "name": "l1Token",
          "type": "address"
        },
        {
          "indexed": false,
          "internalType": "address",
          "name": "oftMessenger",
          "type": "address"
        }
      ],
      "name": "HypXERC20RouterSet",
      "type": "event"
    },
    {
      "anonymous": false,
      "inputs": [
        {
          "indexed": false,
          "internalType": "uint8",
          "name": "version",
          "type": "uint8"
        }
      ],
      "name": "Initialized",
      "type": "event"
    },
    {
      "anonymous": false,
      "inputs": [
        {
          "indexed": true,
          "internalType": "uint256",
          "name": "adapterChainId",
          "type": "uint256"
        },
        {
          "indexed": true,
          "internalType": "address",
          "name": "l1Token",
          "type": "address"
        },
        {
          "indexed": false,
          "internalType": "address",
          "name": "oftMessenger",
          "type": "address"
        }
      ],
      "name": "OFTMessengerSet",
      "type": "event"
    },
    {
      "anonymous": false,
      "inputs": [
        {
          "indexed": true,
          "internalType": "address",
          "name": "previousOwner",
          "type": "address"
        },
        {
          "indexed": true,
          "internalType": "address",
          "name": "newOwner",
          "type": "address"
        }
      ],
      "name": "OwnershipTransferred",
      "type": "event"
    },
    {
      "anonymous": false,
      "inputs": [
        {
          "indexed": true,
          "internalType": "address",
          "name": "implementation",
          "type": "address"
        }
      ],
      "name": "Upgraded",
      "type": "event"
    },
    {
      "inputs": [
        {
          "internalType": "uint256[]",
          "name": "adapterChainIds",
          "type": "uint256[]"
        },
        {
          "internalType": "address[]",
          "name": "tokens",
          "type": "address[]"
        },
        {
          "internalType": "address[]",
          "name": "routers",
          "type": "address[]"
        }
      ],
      "name": "batchSetHypXERC20Routers",
      "outputs": [],
      "stateMutability": "nonpayable",
      "type": "function"
    },
    {
      "inputs": [
        {
          "internalType": "uint256[]",
          "name": "adapterChainIds",
          "type": "uint256[]"
        },
        {
          "internalType": "address[]",
          "name": "tokens",
          "type": "address[]"
        },
        {
          "internalType": "address[]",
          "name": "messengers",
          "type": "address[]"
        }
      ],
      "name": "batchSetOFTMessengers",
      "outputs": [],
      "stateMutability": "nonpayable",
      "type": "function"
    },
    {
      "inputs": [
        {
          "internalType": "uint256",
          "name": "",
          "type": "uint256"
        },
        {
          "internalType": "address",
          "name": "",
          "type": "address"
        }
      ],
      "name": "hypXERC20Routers",
      "outputs": [
        {
          "internalType": "address",
          "name": "",
          "type": "address"
        }
      ],
      "stateMutability": "view",
      "type": "function"
    },
    {
      "inputs": [],
      "name": "initialize",
      "outputs": [],
      "stateMutability": "nonpayable",
      "type": "function"
    },
    {
      "inputs": [
        {
          "internalType": "uint256",
          "name": "",
          "type": "uint256"
        },
        {
          "internalType": "address",
          "name": "",
          "type": "address"
        }
      ],
      "name": "oftMessengers",
      "outputs": [
        {
          "internalType": "address",
          "name": "",
          "type": "address"
        }
      ],
      "stateMutability": "view",
      "type": "function"
    },
    {
      "inputs": [],
      "name": "owner",
      "outputs": [
        {
          "internalType": "address",
          "name": "",
          "type": "address"
        }
      ],
      "stateMutability": "view",
      "type": "function"
    },
    {
      "inputs": [],
      "name": "proxiableUUID",
      "outputs": [
        {
          "internalType": "bytes32",
          "name": "",
          "type": "bytes32"
        }
      ],
      "stateMutability": "view",
      "type": "function"
    },
    {
      "inputs": [],
      "name": "renounceOwnership",
      "outputs": [],
      "stateMutability": "nonpayable",
      "type": "function"
    },
    {
      "inputs": [
        {
          "internalType": "uint256",
          "name": "adapterChainId",
          "type": "uint256"
        },
        {
          "internalType": "address",
          "name": "l1Token",
          "type": "address"
        },
        {
          "internalType": "address",
          "name": "hypXERC20Router",
          "type": "address"
        }
      ],
      "name": "setHypXERC20Router",
      "outputs": [],
      "stateMutability": "nonpayable",
      "type": "function"
    },
    {
      "inputs": [
        {
          "internalType": "uint256",
          "name": "adapterChainId",
          "type": "uint256"
        },
        {
          "internalType": "address",
          "name": "l1Token",
          "type": "address"
        },
        {
          "internalType": "address",
          "name": "oftMessenger",
          "type": "address"
        }
      ],
      "name": "setOFTMessenger",
      "outputs": [],
      "stateMutability": "nonpayable",
      "type": "function"
    },
    {
      "inputs": [
        {
          "internalType": "address",
          "name": "newOwner",
          "type": "address"
        }
      ],
      "name": "transferOwnership",
      "outputs": [],
      "stateMutability": "nonpayable",
      "type": "function"
    },
    {
      "inputs": [
        {
          "internalType": "address",
          "name": "newImplementation",
          "type": "address"
        }
      ],
      "name": "upgradeTo",
      "outputs": [],
      "stateMutability": "nonpayable",
      "type": "function"
    },
    {
      "inputs": [
        {
          "internalType": "address",
          "name": "newImplementation",
          "type": "address"
        },
        {
          "internalType": "bytes",
          "name": "data",
          "type": "bytes"
        }
      ],
      "name": "upgradeToAndCall",
      "outputs": [],
      "stateMutability": "payable",
      "type": "function"
    }
  ],
  "numDeployments": 3,
  "solcInputHash": "335233c2266724d7f46f5181dbe6e93c",
  "bytecode": "0x60a0806040523461003157306080526110d9908161003682396080518181816105ad015281816106a301526108df0152f35b5f80fdfe604060808152600480361015610013575f80fd5b5f3560e01c918263354aa8a214610a7b5782633659cfe61461088e5782634f1ef286146105fc57826352d1902d146105685782635d5afc04146105495782635d79e603146104dd578263715018a6146104415782638129fc1c146102f75782638da5cb5b146102a657826393b9c0f11461023a5782639502c8fc146101be578263e027c3741461011757505063f2fde38b146100ad575f80fd5b346101135760207ffffffffffffffffffffffffffffffffffffffffffffffffffffffffffffffffc360112610113576100e4610a9a565b6100ec610d17565b73ffffffffffffffffffffffffffffffffffffffff8116156101135761011190610fa6565b005b5f80fd5b346101135761012536610c35565b949690929395610133610d17565b8287148015906101b4575b61018e5750505f5b85811061014f57005b80610188610160600193898b610cb9565b3561017461016f84878a610cb9565b610cf6565b61018261016f858b8a610cb9565b91610d64565b01610146565b517fa24a13a6000000000000000000000000000000000000000000000000000000008152fd5b508587141561013e565b34610113576101cc36610c35565b9496909293956101da610d17565b828714801590610230575b61018e5750505f5b8581106101f657005b8061022a610207600193898b610cb9565b3561021661016f84878a610cb9565b61022461016f858b8a610cb9565b91610e92565b016101ed565b50858714156101e5565b3461011357807ffffffffffffffffffffffffffffffffffffffffffffffffffffffffffffffffc36011261011357602091610273610abd565b90355f5260ca8352815f2073ffffffffffffffffffffffffffffffffffffffff8092165f528352815f2054169051908152f35b34610113575f7ffffffffffffffffffffffffffffffffffffffffffffffffffffffffffffffffc3601126101135760209073ffffffffffffffffffffffffffffffffffffffff609754169051908152f35b34610113575f7ffffffffffffffffffffffffffffffffffffffffffffffffffffffffffffffffc360112610113575f5460ff8160081c161590818092610434575b801561041d575b15610113578160017fffffffffffffffffffffffffffffffffffffffffffffffffffffffffffffff008316175f556103ef575b5060ff5f5460081c16156101135761038933610fa6565b5f549060ff8260081c16156101135761039e57005b7f7f26b83ff96e1f2b6a682f133852f6798a09c465da95921460cefb3847402498917fffffffffffffffffffffffffffffffffffffffffffffffffffffffffffff00ff602092165f555160018152a1005b7fffffffffffffffffffffffffffffffffffffffffffffffffffffffffffff000016610101175f5582610372565b50303b15801561033f5750600160ff82161461033f565b50600160ff821610610338565b34610113575f7ffffffffffffffffffffffffffffffffffffffffffffffffffffffffffffffffc36011261011357610477610d17565b5f73ffffffffffffffffffffffffffffffffffffffff6097547fffffffffffffffffffffffff00000000000000000000000000000000000000008116609755167f8be0079c531659141344cd1fd0a4f28419497f9722a3daafe3b4186f6b6457e08280a3005b3461011357807ffffffffffffffffffffffffffffffffffffffffffffffffffffffffffffffffc36011261011357602091610516610abd565b90355f5260c98352815f2073ffffffffffffffffffffffffffffffffffffffff8092165f528352815f2054169051908152f35b346101135761011161055a36610ae0565b91610563610d17565b610e92565b34610113575f7ffffffffffffffffffffffffffffffffffffffffffffffffffffffffffffffffc3601126101135773ffffffffffffffffffffffffffffffffffffffff7f000000000000000000000000000000000000000000000000000000000000000016300361011357602090517f360894a13ba1a3210667c828492db98dca3e2076cc3735a920a3ca505d382bbc8152f35b807ffffffffffffffffffffffffffffffffffffffffffffffffffffffffffffffffc3601126101135761062d610a9a565b906024359067ffffffffffffffff8211610113573660238301121561011357818401359161065a83610bca565b9461066783519687610b89565b83865260209384870192366024838301011161011357815f92602488930186378801015273ffffffffffffffffffffffffffffffffffffffff807f00000000000000000000000000000000000000000000000000000000000000001690813014610113577f360894a13ba1a3210667c828492db98dca3e2076cc3735a920a3ca505d382bbc918183541603610113576106fe610d17565b7f4910fdfa16fed3260ed0e7147f7cc6da11a60208b5b9406d12a635614ffd91435460ff1615610738575050505050506101119150611012565b86949596169186865180927f52d1902d00000000000000000000000000000000000000000000000000000000825281865afa5f918161085f575b5061077b575f80fd5b036101135761078983611012565b7fbc7cd75a20ee27fd9adebab32041f755214dbc6bffa90cc0225b39da2e5c2d3b5f80a2845115801590610857575b6107be57005b5f8091610111967f206661696c6564000000000000000000000000000000000000000000000000008680516107f281610b40565b602781527f416464726573733a206c6f772d6c6576656c2064656c65676174652063616c6c8a82015201525190845af4913d1561084d573d61083f61083682610bca565b92519283610b89565b81525f81943d92013e61107a565b506060925061107a565b5060016107b8565b9091508781813d8311610887575b6108778183610b89565b8101031261011357519089610772565b503d61086d565b34610113576020807ffffffffffffffffffffffffffffffffffffffffffffffffffffffffffffffffc360112610113576108c6610a9a565b9173ffffffffffffffffffffffffffffffffffffffff807f00000000000000000000000000000000000000000000000000000000000000001694853014610113577f360894a13ba1a3210667c828492db98dca3e2076cc3735a920a3ca505d382bbc9582875416036101135761093a610d17565b8251958487019287841067ffffffffffffffff851117610a4f578385525f88527f4910fdfa16fed3260ed0e7147f7cc6da11a60208b5b9406d12a635614ffd91435460ff1615610994575050505050506101119150611012565b86949596169186865180927f52d1902d00000000000000000000000000000000000000000000000000000000825281865afa5f9181610a20575b506109d7575f80fd5b03610113576109e583611012565b7fbc7cd75a20ee27fd9adebab32041f755214dbc6bffa90cc0225b39da2e5c2d3b5f80a2845115801590610a19576107be57005b505f6107b8565b9091508781813d8311610a48575b610a388183610b89565b81010312610113575190896109ce565b503d610a2e565b6041837f4e487b71000000000000000000000000000000000000000000000000000000005f525260245ffd5b3461011357610111610a8c36610ae0565b91610a95610d17565b610d64565b6004359073ffffffffffffffffffffffffffffffffffffffff8216820361011357565b6024359073ffffffffffffffffffffffffffffffffffffffff8216820361011357565b7ffffffffffffffffffffffffffffffffffffffffffffffffffffffffffffffffc6060910112610113576004359073ffffffffffffffffffffffffffffffffffffffff906024358281168103610113579160443590811681036101135790565b6060810190811067ffffffffffffffff821117610b5c57604052565b7f4e487b71000000000000000000000000000000000000000000000000000000005f52604160045260245ffd5b90601f7fffffffffffffffffffffffffffffffffffffffffffffffffffffffffffffffe0910116810190811067ffffffffffffffff821117610b5c57604052565b67ffffffffffffffff8111610b5c57601f017fffffffffffffffffffffffffffffffffffffffffffffffffffffffffffffffe01660200190565b9181601f840112156101135782359167ffffffffffffffff8311610113576020808501948460051b01011161011357565b9060607ffffffffffffffffffffffffffffffffffffffffffffffffffffffffffffffffc8301126101135767ffffffffffffffff6004358181116101135783610c8091600401610c04565b939093926024358381116101135782610c9b91600401610c04565b9390939260443591821161011357610cb591600401610c04565b9091565b9190811015610cc95760051b0190565b7f4e487b71000000000000000000000000000000000000000000000000000000005f52603260045260245ffd5b3573ffffffffffffffffffffffffffffffffffffffff811681036101135790565b73ffffffffffffffffffffffffffffffffffffffff60975416330361011357565b90816020910312610113575173ffffffffffffffffffffffffffffffffffffffff811681036101135790565b9073ffffffffffffffffffffffffffffffffffffffff809316604080517f996c6cc30000000000000000000000000000000000000000000000000000000081526020938482600481875afa918215610e88579087915f93610e59575b50169586911603610e3057907fb1b68a68486e7d2022a50dfc06bc98372a4caa313a0eeb2cef39b4392068ef309291845f5260ca8352805f20865f528352805f20827fffffffffffffffffffffffff000000000000000000000000000000000000000082541617905551908152a3565b600490517fcbd1e420000000000000000000000000000000000000000000000000000000008152fd5b610e7a919350863d8811610e81575b610e728183610b89565b810190610d38565b915f610dc0565b503d610e68565b83513d5f823e3d90fd5b9073ffffffffffffffffffffffffffffffffffffffff809316604080517ffc0c546a0000000000000000000000000000000000000000000000000000000081526020938482600481875afa918215610e88579087915f93610f87575b50169586911603610f5e57907f586deec24810cd04def6b1abe613578c26c50f96f235ee401950b229a6d765589291845f5260c98352805f20865f528352805f20827fffffffffffffffffffffffff000000000000000000000000000000000000000082541617905551908152a3565b600490517fa63e8c6b000000000000000000000000000000000000000000000000000000008152fd5b610f9f919350863d8811610e8157610e728183610b89565b915f610eee565b6097549073ffffffffffffffffffffffffffffffffffffffff80911691827fffffffffffffffffffffffff0000000000000000000000000000000000000000821617609755167f8be0079c531659141344cd1fd0a4f28419497f9722a3daafe3b4186f6b6457e05f80a3565b803b156101135773ffffffffffffffffffffffffffffffffffffffff7f360894a13ba1a3210667c828492db98dca3e2076cc3735a920a3ca505d382bbc91167fffffffffffffffffffffffff0000000000000000000000000000000000000000825416179055565b90156110945781511561108b575090565b3b156101135790565b50805190811561011357602001fdfea26469706673582212203d70dc9b2426f6cb8900972181a55fed69a9677dc996ae8b414c0792813a54cd64736f6c63430008170033",
  "devdoc": {
    "details": "A helper contract for chain adapters that support OFT or XERC20 messaging(via Hyperlane) on L1Handles token => messenger/router mapping storage, as adapters are called via delegatecall and don't have relevant storage space",
    "events": {
      "AdminChanged(address,address)": {
        "details": "Emitted when the admin account has changed."
      },
      "BeaconUpgraded(address)": {
        "details": "Emitted when the beacon is changed."
      },
      "Initialized(uint8)": {
        "details": "Triggered when the contract has been initialized or reinitialized."
      },
      "Upgraded(address)": {
        "details": "Emitted when the implementation is upgraded."
      }
    },
    "kind": "dev",
    "methods": {
      "owner()": {
        "details": "Returns the address of the current owner."
      },
      "proxiableUUID()": {
        "details": "Implementation of the ERC1822 {proxiableUUID} function. This returns the storage slot used by the implementation. It is used to validate the implementation's compatibility when performing an upgrade. IMPORTANT: A proxy pointing at a proxiable contract should not be considered proxiable itself, because this risks bricking a proxy that upgrades to it, by delegating to itself until out of gas. Thus it is critical that this function revert if invoked through a proxy. This is guaranteed by the `notDelegated` modifier."
      },
      "renounceOwnership()": {
        "details": "Leaves the contract without owner. It will not be possible to call `onlyOwner` functions. Can only be called by the current owner. NOTE: Renouncing ownership will leave the contract without an owner, thereby disabling any functionality that is only available to the owner."
      },
      "transferOwnership(address)": {
        "details": "Transfers ownership of the contract to a new account (`newOwner`). Can only be called by the current owner."
      },
      "upgradeTo(address)": {
        "custom:oz-upgrades-unsafe-allow-reachable": "delegatecall",
        "details": "Upgrade the implementation of the proxy to `newImplementation`. Calls {_authorizeUpgrade}. Emits an {Upgraded} event."
      },
      "upgradeToAndCall(address,bytes)": {
        "custom:oz-upgrades-unsafe-allow-reachable": "delegatecall",
        "details": "Upgrade the implementation of the proxy to `newImplementation`, and subsequently execute the function call encoded in `data`. Calls {_authorizeUpgrade}. Emits an {Upgraded} event."
      }
    },
    "version": 1
  },
  "userdoc": {
    "kind": "user",
    "methods": {},
    "version": 1
  },
  "storageLayout": {
    "storage": [
      {
        "astId": 779,
        "contract": "contracts/AdapterStore.sol:AdapterStore",
        "label": "_initialized",
        "offset": 0,
        "slot": "0",
        "type": "t_uint8"
      },
      {
        "astId": 782,
        "contract": "contracts/AdapterStore.sol:AdapterStore",
        "label": "_initializing",
        "offset": 1,
        "slot": "0",
        "type": "t_bool"
      },
      {
        "astId": 761,
        "contract": "contracts/AdapterStore.sol:AdapterStore",
        "label": "__gap",
        "offset": 0,
        "slot": "1",
        "type": "t_array(t_uint256)50_storage"
      },
      {
        "astId": 1077,
        "contract": "contracts/AdapterStore.sol:AdapterStore",
        "label": "__gap",
        "offset": 0,
        "slot": "51",
        "type": "t_array(t_uint256)50_storage"
      },
      {
        "astId": 2033,
        "contract": "contracts/AdapterStore.sol:AdapterStore",
        "label": "__gap",
        "offset": 0,
        "slot": "101",
        "type": "t_array(t_uint256)50_storage"
      },
      {
        "astId": 231,
        "contract": "contracts/AdapterStore.sol:AdapterStore",
        "label": "_owner",
        "offset": 0,
        "slot": "151",
        "type": "t_address"
      },
      {
        "astId": 351,
        "contract": "contracts/AdapterStore.sol:AdapterStore",
        "label": "__gap",
        "offset": 0,
        "slot": "152",
        "type": "t_array(t_uint256)49_storage"
      },
      {
        "astId": 17952,
        "contract": "contracts/AdapterStore.sol:AdapterStore",
        "label": "oftMessengers",
        "offset": 0,
        "slot": "201",
        "type": "t_mapping(t_uint256,t_mapping(t_address,t_address))"
      },
      {
        "astId": 17958,
        "contract": "contracts/AdapterStore.sol:AdapterStore",
        "label": "hypXERC20Routers",
        "offset": 0,
        "slot": "202",
        "type": "t_mapping(t_uint256,t_mapping(t_address,t_address))"
      }
    ],
    "types": {
      "t_address": {
        "encoding": "inplace",
        "label": "address",
        "numberOfBytes": "20"
      },
      "t_array(t_uint256)49_storage": {
        "base": "t_uint256",
        "encoding": "inplace",
        "label": "uint256[49]",
        "numberOfBytes": "1568"
      },
      "t_array(t_uint256)50_storage": {
        "base": "t_uint256",
        "encoding": "inplace",
        "label": "uint256[50]",
        "numberOfBytes": "1600"
      },
      "t_bool": {
        "encoding": "inplace",
        "label": "bool",
        "numberOfBytes": "1"
      },
      "t_mapping(t_address,t_address)": {
        "encoding": "mapping",
        "key": "t_address",
        "label": "mapping(address => address)",
        "numberOfBytes": "32",
        "value": "t_address"
      },
      "t_mapping(t_uint256,t_mapping(t_address,t_address))": {
        "encoding": "mapping",
        "key": "t_uint256",
        "label": "mapping(uint256 => mapping(address => address))",
        "numberOfBytes": "32",
        "value": "t_mapping(t_address,t_address)"
      },
      "t_uint256": {
        "encoding": "inplace",
        "label": "uint256",
        "numberOfBytes": "32"
      },
      "t_uint8": {
        "encoding": "inplace",
        "label": "uint8",
        "numberOfBytes": "1"
      }
    }
  }
}