{
  "address": "0xE262FbF715DbcEa062B7408cC02197C83C74A62E",
  "abi": [
    {
      "inputs": [
        {
          "internalType": "address",
          "name": "_wrappedNativeTokenAddress",
          "type": "address"
        },
        {
          "internalType": "uint32",
          "name": "_depositQuoteTimeBuffer",
          "type": "uint32"
        },
        {
          "internalType": "uint32",
          "name": "_fillDeadlineBuffer",
          "type": "uint32"
        }
      ],
      "stateMutability": "nonpayable",
      "type": "constructor"
    },
    {
      "inputs": [],
      "name": "ClaimedMerkleLeaf",
      "type": "error"
    },
    {
      "inputs": [],
      "name": "DisabledRoute",
      "type": "error"
    },
    {
      "inputs": [],
      "name": "ExpiredFillDeadline",
      "type": "error"
    },
    {
      "inputs": [],
      "name": "InvalidChainId",
      "type": "error"
    },
    {
      "inputs": [],
      "name": "InvalidFillDeadline",
      "type": "error"
    },
    {
      "inputs": [],
      "name": "InvalidMerkleLeaf",
      "type": "error"
    },
    {
      "inputs": [],
      "name": "InvalidMerkleProof",
      "type": "error"
    },
    {
      "inputs": [],
      "name": "InvalidPayoutAdjustmentPct",
      "type": "error"
    },
    {
      "inputs": [],
      "name": "InvalidQuoteTimestamp",
      "type": "error"
    },
    {
      "inputs": [],
      "name": "InvalidSlowFillRequest",
      "type": "error"
    },
    {
      "inputs": [],
      "name": "MsgValueDoesNotMatchInputAmount",
      "type": "error"
    },
    {
      "inputs": [],
      "name": "NotEOA",
      "type": "error"
    },
    {
      "inputs": [],
      "name": "NotExclusiveRelayer",
      "type": "error"
    },
    {
      "inputs": [],
      "name": "RelayFilled",
      "type": "error"
    },
    {
      "anonymous": false,
      "inputs": [
        {
          "indexed": false,
          "internalType": "address",
          "name": "previousAdmin",
          "type": "address"
        },
        {
          "indexed": false,
          "internalType": "address",
          "name": "newAdmin",
          "type": "address"
        }
      ],
      "name": "AdminChanged",
      "type": "event"
    },
    {
      "anonymous": false,
      "inputs": [
        {
          "indexed": true,
          "internalType": "address",
          "name": "beacon",
          "type": "address"
        }
      ],
      "name": "BeaconUpgraded",
      "type": "event"
    },
    {
      "anonymous": false,
      "inputs": [
        {
          "indexed": true,
          "internalType": "uint256",
          "name": "rootBundleId",
          "type": "uint256"
        }
      ],
      "name": "EmergencyDeleteRootBundle",
      "type": "event"
    },
    {
      "anonymous": false,
      "inputs": [
        {
          "indexed": true,
          "internalType": "address",
          "name": "originToken",
          "type": "address"
        },
        {
          "indexed": true,
          "internalType": "uint256",
          "name": "destinationChainId",
          "type": "uint256"
        },
        {
          "indexed": false,
          "internalType": "bool",
          "name": "enabled",
          "type": "bool"
        }
      ],
      "name": "EnabledDepositRoute",
      "type": "event"
    },
    {
      "anonymous": false,
      "inputs": [
        {
          "indexed": false,
          "internalType": "uint256",
          "name": "amountToReturn",
          "type": "uint256"
        },
        {
          "indexed": true,
          "internalType": "uint256",
          "name": "chainId",
          "type": "uint256"
        },
        {
          "indexed": false,
          "internalType": "uint256[]",
          "name": "refundAmounts",
          "type": "uint256[]"
        },
        {
          "indexed": true,
          "internalType": "uint32",
          "name": "rootBundleId",
          "type": "uint32"
        },
        {
          "indexed": true,
          "internalType": "uint32",
          "name": "leafId",
          "type": "uint32"
        },
        {
          "indexed": false,
          "internalType": "address",
          "name": "l2TokenAddress",
          "type": "address"
        },
        {
          "indexed": false,
          "internalType": "address[]",
          "name": "refundAddresses",
          "type": "address[]"
        },
        {
          "indexed": false,
          "internalType": "address",
          "name": "caller",
          "type": "address"
        }
      ],
      "name": "ExecutedRelayerRefundRoot",
      "type": "event"
    },
    {
      "anonymous": false,
      "inputs": [
        {
          "indexed": false,
          "internalType": "uint256",
          "name": "amountToReturn",
          "type": "uint256"
        },
        {
          "indexed": true,
          "internalType": "uint256",
          "name": "chainId",
          "type": "uint256"
        },
        {
          "indexed": false,
          "internalType": "uint256[]",
          "name": "refundAmounts",
          "type": "uint256[]"
        },
        {
          "indexed": true,
          "internalType": "uint32",
          "name": "rootBundleId",
          "type": "uint32"
        },
        {
          "indexed": true,
          "internalType": "uint32",
          "name": "leafId",
          "type": "uint32"
        },
        {
          "indexed": false,
          "internalType": "address",
          "name": "l2TokenAddress",
          "type": "address"
        },
        {
          "indexed": false,
          "internalType": "address[]",
          "name": "refundAddresses",
          "type": "address[]"
        },
        {
          "indexed": false,
          "internalType": "bytes32",
          "name": "fillsRefundedRoot",
          "type": "bytes32"
        },
        {
          "indexed": false,
          "internalType": "string",
          "name": "fillsRefundedIpfsHash",
          "type": "string"
        }
      ],
      "name": "ExecutedV3RelayerRefundRoot",
      "type": "event"
    },
    {
      "anonymous": false,
      "inputs": [
        {
          "indexed": false,
          "internalType": "uint256",
          "name": "amount",
          "type": "uint256"
        },
        {
          "indexed": false,
          "internalType": "uint256",
          "name": "totalFilledAmount",
          "type": "uint256"
        },
        {
          "indexed": false,
          "internalType": "uint256",
          "name": "fillAmount",
          "type": "uint256"
        },
        {
          "indexed": false,
          "internalType": "uint256",
          "name": "repaymentChainId",
          "type": "uint256"
        },
        {
          "indexed": true,
          "internalType": "uint256",
          "name": "originChainId",
          "type": "uint256"
        },
        {
          "indexed": false,
          "internalType": "uint256",
          "name": "destinationChainId",
          "type": "uint256"
        },
        {
          "indexed": false,
          "internalType": "int64",
          "name": "relayerFeePct",
          "type": "int64"
        },
        {
          "indexed": false,
          "internalType": "int64",
          "name": "realizedLpFeePct",
          "type": "int64"
        },
        {
          "indexed": true,
          "internalType": "uint32",
          "name": "depositId",
          "type": "uint32"
        },
        {
          "indexed": false,
          "internalType": "address",
          "name": "destinationToken",
          "type": "address"
        },
        {
          "indexed": false,
          "internalType": "address",
          "name": "relayer",
          "type": "address"
        },
        {
          "indexed": true,
          "internalType": "address",
          "name": "depositor",
          "type": "address"
        },
        {
          "indexed": false,
          "internalType": "address",
          "name": "recipient",
          "type": "address"
        },
        {
          "indexed": false,
          "internalType": "bytes",
          "name": "message",
          "type": "bytes"
        },
        {
          "components": [
            {
              "internalType": "address",
              "name": "recipient",
              "type": "address"
            },
            {
              "internalType": "bytes",
              "name": "message",
              "type": "bytes"
            },
            {
              "internalType": "int64",
              "name": "relayerFeePct",
              "type": "int64"
            },
            {
              "internalType": "bool",
              "name": "isSlowRelay",
              "type": "bool"
            },
            {
              "internalType": "int256",
              "name": "payoutAdjustmentPct",
              "type": "int256"
            }
          ],
          "indexed": false,
          "internalType": "struct SpokePool.RelayExecutionInfo",
          "name": "updatableRelayData",
          "type": "tuple"
        }
      ],
      "name": "FilledRelay",
      "type": "event"
    },
    {
      "anonymous": false,
      "inputs": [
        {
          "indexed": false,
          "internalType": "address",
          "name": "inputToken",
          "type": "address"
        },
        {
          "indexed": false,
          "internalType": "address",
          "name": "outputToken",
          "type": "address"
        },
        {
          "indexed": false,
          "internalType": "uint256",
          "name": "inputAmount",
          "type": "uint256"
        },
        {
          "indexed": false,
          "internalType": "uint256",
          "name": "outputAmount",
          "type": "uint256"
        },
        {
          "indexed": false,
          "internalType": "uint256",
          "name": "repaymentChainId",
          "type": "uint256"
        },
        {
          "indexed": true,
          "internalType": "uint256",
          "name": "originChainId",
          "type": "uint256"
        },
        {
          "indexed": true,
          "internalType": "uint32",
          "name": "depositId",
          "type": "uint32"
        },
        {
          "indexed": false,
          "internalType": "uint32",
          "name": "fillDeadline",
          "type": "uint32"
        },
        {
          "indexed": false,
          "internalType": "uint32",
          "name": "exclusivityDeadline",
          "type": "uint32"
        },
        {
          "indexed": false,
          "internalType": "address",
          "name": "exclusiveRelayer",
          "type": "address"
        },
        {
          "indexed": true,
          "internalType": "address",
          "name": "relayer",
          "type": "address"
        },
        {
          "indexed": false,
          "internalType": "address",
          "name": "depositor",
          "type": "address"
        },
        {
          "indexed": false,
          "internalType": "address",
          "name": "recipient",
          "type": "address"
        },
        {
          "indexed": false,
          "internalType": "bytes",
          "name": "message",
          "type": "bytes"
        },
        {
          "components": [
            {
              "internalType": "address",
              "name": "updatedRecipient",
              "type": "address"
            },
            {
              "internalType": "bytes",
              "name": "updatedMessage",
              "type": "bytes"
            },
            {
              "internalType": "uint256",
              "name": "updatedOutputAmount",
              "type": "uint256"
            },
            {
              "internalType": "enum V3SpokePoolInterface.FillType",
              "name": "fillType",
              "type": "uint8"
            }
          ],
          "indexed": false,
          "internalType": "struct V3SpokePoolInterface.V3RelayExecutionEventInfo",
          "name": "relayExecutionInfo",
          "type": "tuple"
        }
      ],
      "name": "FilledV3Relay",
      "type": "event"
    },
    {
      "anonymous": false,
      "inputs": [
        {
          "indexed": false,
          "internalType": "uint256",
          "name": "amount",
          "type": "uint256"
        },
        {
          "indexed": false,
          "internalType": "uint256",
          "name": "originChainId",
          "type": "uint256"
        },
        {
          "indexed": true,
          "internalType": "uint256",
          "name": "destinationChainId",
          "type": "uint256"
        },
        {
          "indexed": false,
          "internalType": "int64",
          "name": "relayerFeePct",
          "type": "int64"
        },
        {
          "indexed": true,
          "internalType": "uint32",
          "name": "depositId",
          "type": "uint32"
        },
        {
          "indexed": false,
          "internalType": "uint32",
          "name": "quoteTimestamp",
          "type": "uint32"
        },
        {
          "indexed": false,
          "internalType": "address",
          "name": "originToken",
          "type": "address"
        },
        {
          "indexed": false,
          "internalType": "address",
          "name": "recipient",
          "type": "address"
        },
        {
          "indexed": true,
          "internalType": "address",
          "name": "depositor",
          "type": "address"
        },
        {
          "indexed": false,
          "internalType": "bytes",
          "name": "message",
          "type": "bytes"
        }
      ],
      "name": "FundsDeposited",
      "type": "event"
    },
    {
      "anonymous": false,
      "inputs": [
        {
          "indexed": false,
          "internalType": "uint8",
          "name": "version",
          "type": "uint8"
        }
      ],
      "name": "Initialized",
      "type": "event"
    },
    {
      "anonymous": false,
      "inputs": [
        {
          "indexed": true,
          "internalType": "address",
          "name": "previousOwner",
          "type": "address"
        },
        {
          "indexed": true,
          "internalType": "address",
          "name": "newOwner",
          "type": "address"
        }
      ],
      "name": "OwnershipTransferred",
      "type": "event"
    },
    {
      "anonymous": false,
      "inputs": [
        {
          "indexed": false,
          "internalType": "bool",
          "name": "isPaused",
          "type": "bool"
        }
      ],
      "name": "PausedDeposits",
      "type": "event"
    },
    {
      "anonymous": false,
      "inputs": [
        {
          "indexed": false,
          "internalType": "bool",
          "name": "isPaused",
          "type": "bool"
        }
      ],
      "name": "PausedFills",
      "type": "event"
    },
    {
      "anonymous": false,
      "inputs": [
        {
          "indexed": true,
          "internalType": "address",
          "name": "relayer",
          "type": "address"
        },
        {
          "indexed": false,
          "internalType": "address",
          "name": "refundToken",
          "type": "address"
        },
        {
          "indexed": false,
          "internalType": "uint256",
          "name": "amount",
          "type": "uint256"
        },
        {
          "indexed": true,
          "internalType": "uint256",
          "name": "originChainId",
          "type": "uint256"
        },
        {
          "indexed": false,
          "internalType": "uint256",
          "name": "destinationChainId",
          "type": "uint256"
        },
        {
          "indexed": false,
          "internalType": "int64",
          "name": "realizedLpFeePct",
          "type": "int64"
        },
        {
          "indexed": true,
          "internalType": "uint32",
          "name": "depositId",
          "type": "uint32"
        },
        {
          "indexed": false,
          "internalType": "uint256",
          "name": "fillBlock",
          "type": "uint256"
        },
        {
          "indexed": false,
          "internalType": "uint256",
          "name": "previousIdenticalRequests",
          "type": "uint256"
        }
      ],
      "name": "RefundRequested",
      "type": "event"
    },
    {
      "anonymous": false,
      "inputs": [
        {
          "indexed": true,
          "internalType": "uint32",
          "name": "rootBundleId",
          "type": "uint32"
        },
        {
          "indexed": true,
          "internalType": "bytes32",
          "name": "relayerRefundRoot",
          "type": "bytes32"
        },
        {
          "indexed": true,
          "internalType": "bytes32",
          "name": "slowRelayRoot",
          "type": "bytes32"
        }
      ],
      "name": "RelayedRootBundle",
      "type": "event"
    },
    {
      "anonymous": false,
      "inputs": [
        {
          "indexed": false,
          "internalType": "int64",
          "name": "newRelayerFeePct",
          "type": "int64"
        },
        {
          "indexed": true,
          "internalType": "uint32",
          "name": "depositId",
          "type": "uint32"
        },
        {
          "indexed": true,
          "internalType": "address",
          "name": "depositor",
          "type": "address"
        },
        {
          "indexed": false,
          "internalType": "address",
          "name": "updatedRecipient",
          "type": "address"
        },
        {
          "indexed": false,
          "internalType": "bytes",
          "name": "updatedMessage",
          "type": "bytes"
        },
        {
          "indexed": false,
          "internalType": "bytes",
          "name": "depositorSignature",
          "type": "bytes"
        }
      ],
      "name": "RequestedSpeedUpDeposit",
      "type": "event"
    },
    {
      "anonymous": false,
      "inputs": [
        {
          "indexed": false,
          "internalType": "uint256",
          "name": "updatedOutputAmount",
          "type": "uint256"
        },
        {
          "indexed": true,
          "internalType": "uint32",
          "name": "depositId",
          "type": "uint32"
        },
        {
          "indexed": true,
          "internalType": "address",
          "name": "depositor",
          "type": "address"
        },
        {
          "indexed": false,
          "internalType": "address",
          "name": "updatedRecipient",
          "type": "address"
        },
        {
          "indexed": false,
          "internalType": "bytes",
          "name": "updatedMessage",
          "type": "bytes"
        },
        {
          "indexed": false,
          "internalType": "bytes",
          "name": "depositorSignature",
          "type": "bytes"
        }
      ],
      "name": "RequestedSpeedUpV3Deposit",
      "type": "event"
    },
    {
      "anonymous": false,
      "inputs": [
        {
          "indexed": false,
          "internalType": "address",
          "name": "inputToken",
          "type": "address"
        },
        {
          "indexed": false,
          "internalType": "address",
          "name": "outputToken",
          "type": "address"
        },
        {
          "indexed": false,
          "internalType": "uint256",
          "name": "inputAmount",
          "type": "uint256"
        },
        {
          "indexed": false,
          "internalType": "uint256",
          "name": "outputAmount",
          "type": "uint256"
        },
        {
          "indexed": true,
          "internalType": "uint256",
          "name": "originChainId",
          "type": "uint256"
        },
        {
          "indexed": true,
          "internalType": "uint32",
          "name": "depositId",
          "type": "uint32"
        },
        {
          "indexed": false,
          "internalType": "uint32",
          "name": "fillDeadline",
          "type": "uint32"
        },
        {
          "indexed": false,
          "internalType": "uint32",
          "name": "exclusivityDeadline",
          "type": "uint32"
        },
        {
          "indexed": false,
          "internalType": "address",
          "name": "exclusiveRelayer",
          "type": "address"
        },
        {
          "indexed": false,
          "internalType": "address",
          "name": "depositor",
          "type": "address"
        },
        {
          "indexed": false,
          "internalType": "address",
          "name": "recipient",
          "type": "address"
        },
        {
          "indexed": false,
          "internalType": "bytes",
          "name": "message",
          "type": "bytes"
        }
      ],
      "name": "RequestedV3SlowFill",
      "type": "event"
    },
    {
      "anonymous": false,
      "inputs": [
        {
          "indexed": true,
          "internalType": "address",
          "name": "newHubPool",
          "type": "address"
        }
      ],
      "name": "SetHubPool",
      "type": "event"
    },
    {
      "anonymous": false,
      "inputs": [
        {
          "indexed": true,
          "internalType": "address",
          "name": "newAdmin",
          "type": "address"
        }
      ],
      "name": "SetXDomainAdmin",
      "type": "event"
    },
    {
      "anonymous": false,
      "inputs": [
        {
          "indexed": false,
          "internalType": "uint256",
          "name": "amountToReturn",
          "type": "uint256"
        },
        {
          "indexed": true,
          "internalType": "uint256",
          "name": "chainId",
          "type": "uint256"
        },
        {
          "indexed": true,
          "internalType": "uint32",
          "name": "leafId",
          "type": "uint32"
        },
        {
          "indexed": true,
          "internalType": "address",
          "name": "l2TokenAddress",
          "type": "address"
        },
        {
          "indexed": false,
          "internalType": "address",
          "name": "caller",
          "type": "address"
        }
      ],
      "name": "TokensBridged",
      "type": "event"
    },
    {
      "anonymous": false,
      "inputs": [
        {
          "indexed": true,
          "internalType": "address",
          "name": "implementation",
          "type": "address"
        }
      ],
      "name": "Upgraded",
      "type": "event"
    },
    {
      "anonymous": false,
      "inputs": [
        {
          "indexed": false,
          "internalType": "address",
          "name": "inputToken",
          "type": "address"
        },
        {
          "indexed": false,
          "internalType": "address",
          "name": "outputToken",
          "type": "address"
        },
        {
          "indexed": false,
          "internalType": "uint256",
          "name": "inputAmount",
          "type": "uint256"
        },
        {
          "indexed": false,
          "internalType": "uint256",
          "name": "outputAmount",
          "type": "uint256"
        },
        {
          "indexed": true,
          "internalType": "uint256",
          "name": "destinationChainId",
          "type": "uint256"
        },
        {
          "indexed": true,
          "internalType": "uint32",
          "name": "depositId",
          "type": "uint32"
        },
        {
          "indexed": false,
          "internalType": "uint32",
          "name": "quoteTimestamp",
          "type": "uint32"
        },
        {
          "indexed": false,
          "internalType": "uint32",
          "name": "fillDeadline",
          "type": "uint32"
        },
        {
          "indexed": false,
          "internalType": "uint32",
          "name": "exclusivityDeadline",
          "type": "uint32"
        },
        {
          "indexed": true,
          "internalType": "address",
          "name": "depositor",
          "type": "address"
        },
        {
          "indexed": false,
          "internalType": "address",
          "name": "recipient",
          "type": "address"
        },
        {
          "indexed": false,
          "internalType": "address",
          "name": "relayer",
          "type": "address"
        },
        {
          "indexed": false,
          "internalType": "bytes",
          "name": "message",
          "type": "bytes"
        }
      ],
      "name": "V3FundsDeposited",
      "type": "event"
    },
    {
      "inputs": [],
      "name": "MAX_TRANSFER_SIZE",
      "outputs": [
        {
          "internalType": "uint256",
          "name": "",
          "type": "uint256"
        }
      ],
      "stateMutability": "view",
      "type": "function"
    },
    {
      "inputs": [],
      "name": "SLOW_FILL_MAX_TOKENS_TO_SEND",
      "outputs": [
        {
          "internalType": "uint256",
          "name": "",
          "type": "uint256"
        }
      ],
      "stateMutability": "view",
      "type": "function"
    },
    {
      "inputs": [],
      "name": "UPDATE_DEPOSIT_DETAILS_HASH",
      "outputs": [
        {
          "internalType": "bytes32",
          "name": "",
          "type": "bytes32"
        }
      ],
      "stateMutability": "view",
      "type": "function"
    },
    {
      "inputs": [],
      "name": "UPDATE_V3_DEPOSIT_DETAILS_HASH",
      "outputs": [
        {
          "internalType": "bytes32",
          "name": "",
          "type": "bytes32"
        }
      ],
      "stateMutability": "view",
      "type": "function"
    },
    {
      "inputs": [
        {
          "internalType": "uint32",
          "name": "_initialDepositId",
          "type": "uint32"
        },
        {
          "internalType": "address",
          "name": "_crossDomainAdmin",
          "type": "address"
        },
        {
          "internalType": "address",
          "name": "_hubPool",
          "type": "address"
        }
      ],
      "name": "__SpokePool_init",
      "outputs": [],
      "stateMutability": "nonpayable",
      "type": "function"
    },
    {
      "inputs": [],
      "name": "chainId",
      "outputs": [
        {
          "internalType": "uint256",
          "name": "",
          "type": "uint256"
        }
      ],
      "stateMutability": "view",
      "type": "function"
    },
    {
      "inputs": [],
      "name": "crossDomainAdmin",
      "outputs": [
        {
          "internalType": "address",
          "name": "",
          "type": "address"
        }
      ],
      "stateMutability": "view",
      "type": "function"
    },
    {
      "inputs": [
        {
          "internalType": "address",
          "name": "recipient",
          "type": "address"
        },
        {
          "internalType": "address",
          "name": "originToken",
          "type": "address"
        },
        {
          "internalType": "uint256",
          "name": "amount",
          "type": "uint256"
        },
        {
          "internalType": "uint256",
          "name": "destinationChainId",
          "type": "uint256"
        },
        {
          "internalType": "int64",
          "name": "relayerFeePct",
          "type": "int64"
        },
        {
          "internalType": "uint32",
          "name": "quoteTimestamp",
          "type": "uint32"
        },
        {
          "internalType": "bytes",
          "name": "message",
          "type": "bytes"
        },
        {
          "internalType": "uint256",
          "name": "",
          "type": "uint256"
        }
      ],
      "name": "deposit",
      "outputs": [],
      "stateMutability": "payable",
      "type": "function"
    },
    {
      "inputs": [
        {
          "internalType": "address",
          "name": "depositor",
          "type": "address"
        },
        {
          "internalType": "address",
          "name": "recipient",
          "type": "address"
        },
        {
          "internalType": "address",
          "name": "originToken",
          "type": "address"
        },
        {
          "internalType": "uint256",
          "name": "amount",
          "type": "uint256"
        },
        {
          "internalType": "uint256",
          "name": "destinationChainId",
          "type": "uint256"
        },
        {
          "internalType": "int64",
          "name": "relayerFeePct",
          "type": "int64"
        },
        {
          "internalType": "uint32",
          "name": "quoteTimestamp",
          "type": "uint32"
        },
        {
          "internalType": "bytes",
          "name": "message",
          "type": "bytes"
        },
        {
          "internalType": "uint256",
          "name": "",
          "type": "uint256"
        }
      ],
      "name": "depositFor",
      "outputs": [],
      "stateMutability": "payable",
      "type": "function"
    },
    {
      "inputs": [
        {
          "internalType": "address",
          "name": "depositor",
          "type": "address"
        },
        {
          "internalType": "address",
          "name": "recipient",
          "type": "address"
        },
        {
          "internalType": "address",
          "name": "originToken",
          "type": "address"
        },
        {
          "internalType": "uint256",
          "name": "amount",
          "type": "uint256"
        },
        {
          "internalType": "uint256",
          "name": "destinationChainId",
          "type": "uint256"
        },
        {
          "internalType": "int64",
          "name": "relayerFeePct",
          "type": "int64"
        },
        {
          "internalType": "bytes",
          "name": "message",
          "type": "bytes"
        },
        {
          "internalType": "uint256",
          "name": "maxCount",
          "type": "uint256"
        }
      ],
      "name": "depositForNow",
      "outputs": [],
      "stateMutability": "payable",
      "type": "function"
    },
    {
      "inputs": [
        {
          "internalType": "address",
          "name": "recipient",
          "type": "address"
        },
        {
          "internalType": "address",
          "name": "originToken",
          "type": "address"
        },
        {
          "internalType": "uint256",
          "name": "amount",
          "type": "uint256"
        },
        {
          "internalType": "uint256",
          "name": "destinationChainId",
          "type": "uint256"
        },
        {
          "internalType": "int64",
          "name": "relayerFeePct",
          "type": "int64"
        },
        {
          "internalType": "bytes",
          "name": "message",
          "type": "bytes"
        },
        {
          "internalType": "uint256",
          "name": "maxCount",
          "type": "uint256"
        }
      ],
      "name": "depositNow",
      "outputs": [],
      "stateMutability": "payable",
      "type": "function"
    },
    {
      "inputs": [],
      "name": "depositQuoteTimeBuffer",
      "outputs": [
        {
          "internalType": "uint32",
          "name": "",
          "type": "uint32"
        }
      ],
      "stateMutability": "view",
      "type": "function"
    },
    {
      "inputs": [
        {
          "internalType": "address",
          "name": "recipient",
          "type": "address"
        },
        {
          "internalType": "address",
          "name": "originToken",
          "type": "address"
        },
        {
          "internalType": "uint256",
          "name": "amount",
          "type": "uint256"
        },
        {
          "internalType": "uint256",
          "name": "destinationChainId",
          "type": "uint256"
        },
        {
          "internalType": "int64",
          "name": "relayerFeePct",
          "type": "int64"
        },
        {
          "internalType": "uint32",
          "name": "quoteTimestamp",
          "type": "uint32"
        },
        {
          "internalType": "bytes",
          "name": "message",
          "type": "bytes"
        },
        {
          "internalType": "uint256",
          "name": "",
          "type": "uint256"
        }
      ],
      "name": "depositV2",
      "outputs": [],
      "stateMutability": "payable",
      "type": "function"
    },
    {
      "inputs": [
        {
          "internalType": "address",
          "name": "depositor",
          "type": "address"
        },
        {
          "internalType": "address",
          "name": "recipient",
          "type": "address"
        },
        {
          "internalType": "address",
          "name": "inputToken",
          "type": "address"
        },
        {
          "internalType": "address",
          "name": "outputToken",
          "type": "address"
        },
        {
          "internalType": "uint256",
          "name": "inputAmount",
          "type": "uint256"
        },
        {
          "internalType": "uint256",
          "name": "outputAmount",
          "type": "uint256"
        },
        {
          "internalType": "uint256",
          "name": "destinationChainId",
          "type": "uint256"
        },
        {
          "internalType": "address",
          "name": "exclusiveRelayer",
          "type": "address"
        },
        {
          "internalType": "uint32",
          "name": "quoteTimestamp",
          "type": "uint32"
        },
        {
          "internalType": "uint32",
          "name": "fillDeadline",
          "type": "uint32"
        },
        {
          "internalType": "uint32",
          "name": "exclusivityDeadline",
          "type": "uint32"
        },
        {
          "internalType": "bytes",
          "name": "message",
          "type": "bytes"
        }
      ],
      "name": "depositV3",
      "outputs": [],
      "stateMutability": "payable",
      "type": "function"
    },
    {
      "inputs": [
        {
          "internalType": "uint256",
          "name": "rootBundleId",
          "type": "uint256"
        }
      ],
      "name": "emergencyDeleteRootBundle",
      "outputs": [],
      "stateMutability": "nonpayable",
      "type": "function"
    },
    {
      "inputs": [
        {
          "internalType": "address",
          "name": "",
          "type": "address"
        },
        {
          "internalType": "uint256",
          "name": "",
          "type": "uint256"
        }
      ],
      "name": "enabledDepositRoutes",
      "outputs": [
        {
          "internalType": "bool",
          "name": "",
          "type": "bool"
        }
      ],
      "stateMutability": "view",
      "type": "function"
    },
    {
      "inputs": [
        {
          "internalType": "uint32",
          "name": "rootBundleId",
          "type": "uint32"
        },
        {
          "components": [
            {
              "internalType": "uint256",
              "name": "amountToReturn",
              "type": "uint256"
            },
            {
              "internalType": "uint256",
              "name": "chainId",
              "type": "uint256"
            },
            {
              "internalType": "uint256[]",
              "name": "refundAmounts",
              "type": "uint256[]"
            },
            {
              "internalType": "uint32",
              "name": "leafId",
              "type": "uint32"
            },
            {
              "internalType": "address",
              "name": "l2TokenAddress",
              "type": "address"
            },
            {
              "internalType": "address[]",
              "name": "refundAddresses",
              "type": "address[]"
            }
          ],
          "internalType": "struct SpokePoolInterface.RelayerRefundLeaf",
          "name": "relayerRefundLeaf",
          "type": "tuple"
        },
        {
          "internalType": "bytes32[]",
          "name": "proof",
          "type": "bytes32[]"
        }
      ],
      "name": "executeRelayerRefundLeaf",
      "outputs": [],
      "stateMutability": "payable",
      "type": "function"
    },
    {
      "inputs": [
        {
          "internalType": "address",
          "name": "depositor",
          "type": "address"
        },
        {
          "internalType": "address",
          "name": "recipient",
          "type": "address"
        },
        {
          "internalType": "address",
          "name": "destinationToken",
          "type": "address"
        },
        {
          "internalType": "uint256",
          "name": "amount",
          "type": "uint256"
        },
        {
          "internalType": "uint256",
          "name": "originChainId",
          "type": "uint256"
        },
        {
          "internalType": "int64",
          "name": "realizedLpFeePct",
          "type": "int64"
        },
        {
          "internalType": "int64",
          "name": "relayerFeePct",
          "type": "int64"
        },
        {
          "internalType": "uint32",
          "name": "depositId",
          "type": "uint32"
        },
        {
          "internalType": "uint32",
          "name": "rootBundleId",
          "type": "uint32"
        },
        {
          "internalType": "bytes",
          "name": "message",
          "type": "bytes"
        },
        {
          "internalType": "int256",
          "name": "payoutAdjustment",
          "type": "int256"
        },
        {
          "internalType": "bytes32[]",
          "name": "proof",
          "type": "bytes32[]"
        }
      ],
      "name": "executeSlowRelayLeaf",
      "outputs": [],
      "stateMutability": "nonpayable",
      "type": "function"
    },
    {
      "inputs": [
        {
          "internalType": "uint32",
          "name": "rootBundleId",
          "type": "uint32"
        },
        {
          "components": [
            {
              "internalType": "uint256",
              "name": "amountToReturn",
              "type": "uint256"
            },
            {
              "internalType": "uint256",
              "name": "chainId",
              "type": "uint256"
            },
            {
              "internalType": "uint256[]",
              "name": "refundAmounts",
              "type": "uint256[]"
            },
            {
              "internalType": "uint32",
              "name": "leafId",
              "type": "uint32"
            },
            {
              "internalType": "address",
              "name": "l2TokenAddress",
              "type": "address"
            },
            {
              "internalType": "address[]",
              "name": "refundAddresses",
              "type": "address[]"
            },
            {
              "internalType": "bytes32",
              "name": "fillsRefundedRoot",
              "type": "bytes32"
            },
            {
              "internalType": "string",
              "name": "fillsRefundedHash",
              "type": "string"
            }
          ],
          "internalType": "struct V3SpokePoolInterface.V3RelayerRefundLeaf",
          "name": "relayerRefundLeaf",
          "type": "tuple"
        },
        {
          "internalType": "bytes32[]",
          "name": "proof",
          "type": "bytes32[]"
        }
      ],
      "name": "executeV3RelayerRefundLeaf",
      "outputs": [],
      "stateMutability": "payable",
      "type": "function"
    },
    {
      "inputs": [
        {
          "components": [
            {
              "components": [
                {
                  "internalType": "address",
                  "name": "depositor",
                  "type": "address"
                },
                {
                  "internalType": "address",
                  "name": "recipient",
                  "type": "address"
                },
                {
                  "internalType": "address",
                  "name": "exclusiveRelayer",
                  "type": "address"
                },
                {
                  "internalType": "address",
                  "name": "inputToken",
                  "type": "address"
                },
                {
                  "internalType": "address",
                  "name": "outputToken",
                  "type": "address"
                },
                {
                  "internalType": "uint256",
                  "name": "inputAmount",
                  "type": "uint256"
                },
                {
                  "internalType": "uint256",
                  "name": "outputAmount",
                  "type": "uint256"
                },
                {
                  "internalType": "uint256",
                  "name": "originChainId",
                  "type": "uint256"
                },
                {
                  "internalType": "uint32",
                  "name": "depositId",
                  "type": "uint32"
                },
                {
                  "internalType": "uint32",
                  "name": "fillDeadline",
                  "type": "uint32"
                },
                {
                  "internalType": "uint32",
                  "name": "exclusivityDeadline",
                  "type": "uint32"
                },
                {
                  "internalType": "bytes",
                  "name": "message",
                  "type": "bytes"
                }
              ],
              "internalType": "struct V3SpokePoolInterface.V3RelayData",
              "name": "relayData",
              "type": "tuple"
            },
            {
              "internalType": "uint256",
              "name": "chainId",
              "type": "uint256"
            },
            {
              "internalType": "uint256",
              "name": "updatedOutputAmount",
              "type": "uint256"
            }
          ],
          "internalType": "struct V3SpokePoolInterface.V3SlowFill",
          "name": "slowFillLeaf",
          "type": "tuple"
        },
        {
          "internalType": "uint32",
          "name": "rootBundleId",
          "type": "uint32"
        },
        {
          "internalType": "bytes32[]",
          "name": "proof",
          "type": "bytes32[]"
        }
      ],
      "name": "executeV3SlowRelayLeaf",
      "outputs": [],
      "stateMutability": "nonpayable",
      "type": "function"
    },
    {
      "inputs": [],
      "name": "fillDeadlineBuffer",
      "outputs": [
        {
          "internalType": "uint32",
          "name": "",
          "type": "uint32"
        }
      ],
      "stateMutability": "view",
      "type": "function"
    },
    {
      "inputs": [
        {
          "internalType": "address",
          "name": "depositor",
          "type": "address"
        },
        {
          "internalType": "address",
          "name": "recipient",
          "type": "address"
        },
        {
          "internalType": "address",
          "name": "destinationToken",
          "type": "address"
        },
        {
          "internalType": "uint256",
          "name": "amount",
          "type": "uint256"
        },
        {
          "internalType": "uint256",
          "name": "maxTokensToSend",
          "type": "uint256"
        },
        {
          "internalType": "uint256",
          "name": "repaymentChainId",
          "type": "uint256"
        },
        {
          "internalType": "uint256",
          "name": "originChainId",
          "type": "uint256"
        },
        {
          "internalType": "int64",
          "name": "realizedLpFeePct",
          "type": "int64"
        },
        {
          "internalType": "int64",
          "name": "relayerFeePct",
          "type": "int64"
        },
        {
          "internalType": "uint32",
          "name": "depositId",
          "type": "uint32"
        },
        {
          "internalType": "bytes",
          "name": "message",
          "type": "bytes"
        },
        {
          "internalType": "uint256",
          "name": "maxCount",
          "type": "uint256"
        }
      ],
      "name": "fillRelay",
      "outputs": [],
      "stateMutability": "nonpayable",
      "type": "function"
    },
    {
      "inputs": [
        {
          "internalType": "address",
          "name": "depositor",
          "type": "address"
        },
        {
          "internalType": "address",
          "name": "recipient",
          "type": "address"
        },
        {
          "internalType": "address",
          "name": "updatedRecipient",
          "type": "address"
        },
        {
          "internalType": "address",
          "name": "destinationToken",
          "type": "address"
        },
        {
          "internalType": "uint256",
          "name": "amount",
          "type": "uint256"
        },
        {
          "internalType": "uint256",
          "name": "maxTokensToSend",
          "type": "uint256"
        },
        {
          "internalType": "uint256",
          "name": "repaymentChainId",
          "type": "uint256"
        },
        {
          "internalType": "uint256",
          "name": "originChainId",
          "type": "uint256"
        },
        {
          "internalType": "int64",
          "name": "realizedLpFeePct",
          "type": "int64"
        },
        {
          "internalType": "int64",
          "name": "relayerFeePct",
          "type": "int64"
        },
        {
          "internalType": "int64",
          "name": "updatedRelayerFeePct",
          "type": "int64"
        },
        {
          "internalType": "uint32",
          "name": "depositId",
          "type": "uint32"
        },
        {
          "internalType": "bytes",
          "name": "message",
          "type": "bytes"
        },
        {
          "internalType": "bytes",
          "name": "updatedMessage",
          "type": "bytes"
        },
        {
          "internalType": "bytes",
          "name": "depositorSignature",
          "type": "bytes"
        },
        {
          "internalType": "uint256",
          "name": "maxCount",
          "type": "uint256"
        }
      ],
      "name": "fillRelayWithUpdatedDeposit",
      "outputs": [],
      "stateMutability": "nonpayable",
      "type": "function"
    },
    {
      "inputs": [
        {
          "internalType": "bytes32",
          "name": "",
          "type": "bytes32"
        }
      ],
      "name": "fillStatuses",
      "outputs": [
        {
          "internalType": "uint256",
          "name": "",
          "type": "uint256"
        }
      ],
      "stateMutability": "view",
      "type": "function"
    },
    {
      "inputs": [
        {
          "components": [
            {
              "internalType": "address",
              "name": "depositor",
              "type": "address"
            },
            {
              "internalType": "address",
              "name": "recipient",
              "type": "address"
            },
            {
              "internalType": "address",
              "name": "exclusiveRelayer",
              "type": "address"
            },
            {
              "internalType": "address",
              "name": "inputToken",
              "type": "address"
            },
            {
              "internalType": "address",
              "name": "outputToken",
              "type": "address"
            },
            {
              "internalType": "uint256",
              "name": "inputAmount",
              "type": "uint256"
            },
            {
              "internalType": "uint256",
              "name": "outputAmount",
              "type": "uint256"
            },
            {
              "internalType": "uint256",
              "name": "originChainId",
              "type": "uint256"
            },
            {
              "internalType": "uint32",
              "name": "depositId",
              "type": "uint32"
            },
            {
              "internalType": "uint32",
              "name": "fillDeadline",
              "type": "uint32"
            },
            {
              "internalType": "uint32",
              "name": "exclusivityDeadline",
              "type": "uint32"
            },
            {
              "internalType": "bytes",
              "name": "message",
              "type": "bytes"
            }
          ],
          "internalType": "struct V3SpokePoolInterface.V3RelayData",
          "name": "relayData",
          "type": "tuple"
        },
        {
          "internalType": "uint256",
          "name": "repaymentChainId",
          "type": "uint256"
        }
      ],
      "name": "fillV3Relay",
      "outputs": [],
      "stateMutability": "nonpayable",
      "type": "function"
    },
    {
      "inputs": [
        {
          "components": [
            {
              "internalType": "address",
              "name": "depositor",
              "type": "address"
            },
            {
              "internalType": "address",
              "name": "recipient",
              "type": "address"
            },
            {
              "internalType": "address",
              "name": "exclusiveRelayer",
              "type": "address"
            },
            {
              "internalType": "address",
              "name": "inputToken",
              "type": "address"
            },
            {
              "internalType": "address",
              "name": "outputToken",
              "type": "address"
            },
            {
              "internalType": "uint256",
              "name": "inputAmount",
              "type": "uint256"
            },
            {
              "internalType": "uint256",
              "name": "outputAmount",
              "type": "uint256"
            },
            {
              "internalType": "uint256",
              "name": "originChainId",
              "type": "uint256"
            },
            {
              "internalType": "uint32",
              "name": "depositId",
              "type": "uint32"
            },
            {
              "internalType": "uint32",
              "name": "fillDeadline",
              "type": "uint32"
            },
            {
              "internalType": "uint32",
              "name": "exclusivityDeadline",
              "type": "uint32"
            },
            {
              "internalType": "bytes",
              "name": "message",
              "type": "bytes"
            }
          ],
          "internalType": "struct V3SpokePoolInterface.V3RelayData",
          "name": "relayData",
          "type": "tuple"
        },
        {
          "internalType": "uint256",
          "name": "repaymentChainId",
          "type": "uint256"
        },
        {
          "internalType": "uint256",
          "name": "updatedOutputAmount",
          "type": "uint256"
        },
        {
          "internalType": "address",
          "name": "updatedRecipient",
          "type": "address"
        },
        {
          "internalType": "bytes",
          "name": "updatedMessage",
          "type": "bytes"
        },
        {
          "internalType": "bytes",
          "name": "depositorSignature",
          "type": "bytes"
        }
      ],
      "name": "fillV3RelayWithUpdatedDeposit",
      "outputs": [],
      "stateMutability": "nonpayable",
      "type": "function"
    },
    {
      "inputs": [],
      "name": "getCurrentTime",
      "outputs": [
        {
          "internalType": "uint256",
          "name": "",
          "type": "uint256"
        }
      ],
      "stateMutability": "view",
      "type": "function"
    },
    {
      "inputs": [],
      "name": "hubPool",
      "outputs": [
        {
          "internalType": "address",
          "name": "",
          "type": "address"
        }
      ],
      "stateMutability": "view",
      "type": "function"
    },
    {
      "inputs": [
        {
          "internalType": "uint32",
          "name": "_initialDepositId",
          "type": "uint32"
        },
        {
          "internalType": "address",
          "name": "_hubPool",
          "type": "address"
        }
      ],
      "name": "initialize",
      "outputs": [],
      "stateMutability": "nonpayable",
      "type": "function"
    },
    {
      "inputs": [
        {
          "internalType": "bytes[]",
          "name": "data",
          "type": "bytes[]"
        }
      ],
      "name": "multicall",
      "outputs": [
        {
          "internalType": "bytes[]",
          "name": "results",
          "type": "bytes[]"
        }
      ],
      "stateMutability": "nonpayable",
      "type": "function"
    },
    {
      "inputs": [],
      "name": "numberOfDeposits",
      "outputs": [
        {
          "internalType": "uint32",
          "name": "",
          "type": "uint32"
        }
      ],
      "stateMutability": "view",
      "type": "function"
    },
    {
      "inputs": [],
      "name": "owner",
      "outputs": [
        {
          "internalType": "address",
          "name": "",
          "type": "address"
        }
      ],
      "stateMutability": "view",
      "type": "function"
    },
    {
      "inputs": [
        {
          "internalType": "bool",
          "name": "pause",
          "type": "bool"
        }
      ],
      "name": "pauseDeposits",
      "outputs": [],
      "stateMutability": "nonpayable",
      "type": "function"
    },
    {
      "inputs": [
        {
          "internalType": "bool",
          "name": "pause",
          "type": "bool"
        }
      ],
      "name": "pauseFills",
      "outputs": [],
      "stateMutability": "nonpayable",
      "type": "function"
    },
    {
      "inputs": [],
      "name": "pausedDeposits",
      "outputs": [
        {
          "internalType": "bool",
          "name": "",
          "type": "bool"
        }
      ],
      "stateMutability": "view",
      "type": "function"
    },
    {
      "inputs": [],
      "name": "pausedFills",
      "outputs": [
        {
          "internalType": "bool",
          "name": "",
          "type": "bool"
        }
      ],
      "stateMutability": "view",
      "type": "function"
    },
    {
      "inputs": [],
      "name": "proxiableUUID",
      "outputs": [
        {
          "internalType": "bytes32",
          "name": "",
          "type": "bytes32"
        }
      ],
      "stateMutability": "view",
      "type": "function"
    },
    {
      "inputs": [
        {
          "internalType": "bytes32",
          "name": "relayerRefundRoot",
          "type": "bytes32"
        },
        {
          "internalType": "bytes32",
          "name": "slowRelayRoot",
          "type": "bytes32"
        }
      ],
      "name": "relayRootBundle",
      "outputs": [],
      "stateMutability": "nonpayable",
      "type": "function"
    },
    {
      "inputs": [],
      "name": "renounceOwnership",
      "outputs": [],
      "stateMutability": "nonpayable",
      "type": "function"
    },
    {
      "inputs": [
        {
          "components": [
            {
              "internalType": "address",
              "name": "depositor",
              "type": "address"
            },
            {
              "internalType": "address",
              "name": "recipient",
              "type": "address"
            },
            {
              "internalType": "address",
              "name": "exclusiveRelayer",
              "type": "address"
            },
            {
              "internalType": "address",
              "name": "inputToken",
              "type": "address"
            },
            {
              "internalType": "address",
              "name": "outputToken",
              "type": "address"
            },
            {
              "internalType": "uint256",
              "name": "inputAmount",
              "type": "uint256"
            },
            {
              "internalType": "uint256",
              "name": "outputAmount",
              "type": "uint256"
            },
            {
              "internalType": "uint256",
              "name": "originChainId",
              "type": "uint256"
            },
            {
              "internalType": "uint32",
              "name": "depositId",
              "type": "uint32"
            },
            {
              "internalType": "uint32",
              "name": "fillDeadline",
              "type": "uint32"
            },
            {
              "internalType": "uint32",
              "name": "exclusivityDeadline",
              "type": "uint32"
            },
            {
              "internalType": "bytes",
              "name": "message",
              "type": "bytes"
            }
          ],
          "internalType": "struct V3SpokePoolInterface.V3RelayData",
          "name": "relayData",
          "type": "tuple"
        }
      ],
      "name": "requestV3SlowFill",
      "outputs": [],
      "stateMutability": "nonpayable",
      "type": "function"
    },
    {
      "inputs": [
        {
          "internalType": "uint256",
          "name": "",
          "type": "uint256"
        }
      ],
      "name": "rootBundles",
      "outputs": [
        {
          "internalType": "bytes32",
          "name": "slowRelayRoot",
          "type": "bytes32"
        },
        {
          "internalType": "bytes32",
          "name": "relayerRefundRoot",
          "type": "bytes32"
        }
      ],
      "stateMutability": "view",
      "type": "function"
    },
    {
      "inputs": [
        {
          "internalType": "address",
          "name": "newCrossDomainAdmin",
          "type": "address"
        }
      ],
      "name": "setCrossDomainAdmin",
      "outputs": [],
      "stateMutability": "nonpayable",
      "type": "function"
    },
    {
      "inputs": [
        {
          "internalType": "address",
          "name": "originToken",
          "type": "address"
        },
        {
          "internalType": "uint256",
          "name": "destinationChainId",
          "type": "uint256"
        },
        {
          "internalType": "bool",
          "name": "enabled",
          "type": "bool"
        }
      ],
      "name": "setEnableRoute",
      "outputs": [],
      "stateMutability": "nonpayable",
      "type": "function"
    },
    {
      "inputs": [
        {
          "internalType": "address",
          "name": "newHubPool",
          "type": "address"
        }
      ],
      "name": "setHubPool",
      "outputs": [],
      "stateMutability": "nonpayable",
      "type": "function"
    },
    {
      "inputs": [
        {
          "internalType": "address",
          "name": "depositor",
          "type": "address"
        },
        {
          "internalType": "int64",
          "name": "updatedRelayerFeePct",
          "type": "int64"
        },
        {
          "internalType": "uint32",
          "name": "depositId",
          "type": "uint32"
        },
        {
          "internalType": "address",
          "name": "updatedRecipient",
          "type": "address"
        },
        {
          "internalType": "bytes",
          "name": "updatedMessage",
          "type": "bytes"
        },
        {
          "internalType": "bytes",
          "name": "depositorSignature",
          "type": "bytes"
        }
      ],
      "name": "speedUpDeposit",
      "outputs": [],
      "stateMutability": "nonpayable",
      "type": "function"
    },
    {
      "inputs": [
        {
          "internalType": "address",
          "name": "depositor",
          "type": "address"
        },
        {
          "internalType": "uint32",
          "name": "depositId",
          "type": "uint32"
        },
        {
          "internalType": "uint256",
          "name": "updatedOutputAmount",
          "type": "uint256"
        },
        {
          "internalType": "address",
          "name": "updatedRecipient",
          "type": "address"
        },
        {
          "internalType": "bytes",
          "name": "updatedMessage",
          "type": "bytes"
        },
        {
          "internalType": "bytes",
          "name": "depositorSignature",
          "type": "bytes"
        }
      ],
      "name": "speedUpV3Deposit",
      "outputs": [],
      "stateMutability": "nonpayable",
      "type": "function"
    },
    {
      "inputs": [
        {
          "internalType": "address",
          "name": "newOwner",
          "type": "address"
        }
      ],
      "name": "transferOwnership",
      "outputs": [],
      "stateMutability": "nonpayable",
      "type": "function"
    },
    {
      "inputs": [
        {
          "internalType": "address",
          "name": "newImplementation",
          "type": "address"
        }
      ],
      "name": "upgradeTo",
      "outputs": [],
      "stateMutability": "nonpayable",
      "type": "function"
    },
    {
      "inputs": [
        {
          "internalType": "address",
          "name": "newImplementation",
          "type": "address"
        },
        {
          "internalType": "bytes",
          "name": "data",
          "type": "bytes"
        }
      ],
      "name": "upgradeToAndCall",
      "outputs": [],
      "stateMutability": "payable",
      "type": "function"
    },
    {
      "inputs": [],
      "name": "wrappedNativeToken",
      "outputs": [
        {
          "internalType": "contract WETH9Interface",
          "name": "",
          "type": "address"
        }
      ],
      "stateMutability": "view",
      "type": "function"
    },
    {
      "stateMutability": "payable",
      "type": "receive"
    }
  ],
  "solcInputHash": "9b070eff3253ee9c2aad4451e3843fe1",
  "bytecode": "0x61010034620001c357601f6200615438819003918201601f19168301916001600160401b03831184841017620001c757808492606094604052833981010312620001c35780516001600160a01b0381169190829003620001c3576200007560406200006d60208401620001db565b9201620001db565b913060805260a05260c05260e0525f5460ff8160081c166200016e5760ff8082160362000133575b604051615f669081620001ee8239608051818181610ed20152818161130101526114f3015260a0518181816108940152818161235f0152818161317b01528181613c0a015281816144c30152818161478201528181614e06015281816157af01526157d6015260c0518181816116620152818161231a015281816131160152613bbd015260e05181818161036801526131420152f35b60ff90811916175f557f7f26b83ff96e1f2b6a682f133852f6798a09c465da95921460cefb3847402498602060405160ff8152a15f6200009d565b60405162461bcd60e51b815260206004820152602760248201527f496e697469616c697a61626c653a20636f6e747261637420697320696e697469604482015266616c697a696e6760c81b6064820152608490fd5b5f80fd5b634e487b7160e01b5f52604160045260245ffd5b519063ffffffff82168203620001c35756fe6080604052600436101561001a575b3615610018575f80fd5b005b5f3560e01c8063079bd2c7146103395780630c2097f7146103345780631186ec331461032f57806317fcb39b1461032a5780631b3d5559146103255780631dfb2d021461032057806323c89a821461031b578063272751c71461031657806329cb924d146103115780632cfc26c51461030c5780632e378115146103075780633659cfe61461030257806344b8be68146102fd578063493a4f84146102f85780634e0fb8f5146102f35780634f1ef286146102ee5780635249fef1146102e95780635285e058146102e457806352d1902d146102df578063541f4f14146102da57806357f6dcb8146102d55780635ceaec32146102d05780636068d6cb146102cb578063715018a6146102c6578063738b62e5146102c15780637b939232146102bc5780637e688bba146102b75780638624c35c146102b25780638a7860ce146102ad5780638da5cb5b146102a8578063979f2bc2146102a35780639963e5a81461029e57806399cc2968146102995780639a8a059214610294578063a1244c671461028f578063a78e4b601461028a578063ac9650d814610285578063ae527fbb14610280578063b5e1bf5f1461027b578063bbca7db014610276578063bdcb53a514610271578063c35c83fc1461026c578063ccfa597114610267578063dda5211314610262578063ddd224f11461025d578063de7eba7814610258578063e190440214610253578063ee2a53f81461024e578063f2fde38b146102495763fd7c10540361000e576126fa565b612653565b612615565b61259b565b61256b565b612542565b61251c565b612499565b61246e565b61225c565b61215c565b612131565b6120ae565b611fcd565b611eea565b611ec3565b611ea9565b611dfb565b611c39565b611b44565b611b1d565b611aa5565b6119b3565b61192b565b611883565b6117d4565b611779565b611753565b611686565b611646565b6115b2565b6114d9565b6114b2565b611464565b6112bc565b6111a2565b6110ed565b611059565b610ea9565b610d62565b610d19565b610cff565b610c60565b610a69565b610a03565b61092b565b610875565b610839565b610724565b61034c565b5f91031261034857565b5f80fd5b34610348575f36600319011261034857602060405163ffffffff7f0000000000000000000000000000000000000000000000000000000000000000168152f35b6001600160a01b0381160361034857565b600435906103aa8261038c565b565b602435906103aa8261038c565b604435906103aa8261038c565b606435906103aa8261038c565b35906103aa8261038c565b60a435908160070b820361034857565b60c435908160070b820361034857565b61010435908160070b820361034857565b61012435908160070b820361034857565b61014435908160070b820361034857565b608435908160070b820361034857565b63ffffffff81160361034857565b60e435906103aa82610441565b61010435906103aa82610441565b61012435906103aa82610441565b61016435906103aa82610441565b61014435906103aa82610441565b35906103aa82610441565b634e487b7160e01b5f52604160045260245ffd5b67ffffffffffffffff81116104c757604052565b61049f565b6060810190811067ffffffffffffffff8211176104c757604052565b6080810190811067ffffffffffffffff8211176104c757604052565b60a0810190811067ffffffffffffffff8211176104c757604052565b6020810190811067ffffffffffffffff8211176104c757604052565b6040810190811067ffffffffffffffff8211176104c757604052565b60e0810190811067ffffffffffffffff8211176104c757604052565b90601f8019910116810190811067ffffffffffffffff8211176104c757604052565b6040519060c0820182811067ffffffffffffffff8211176104c757604052565b60405190610140820182811067ffffffffffffffff8211176104c757604052565b60405190610100820182811067ffffffffffffffff8211176104c757604052565b60405190610180820182811067ffffffffffffffff8211176104c757604052565b604051906103aa826104e8565b604051906103aa82610504565b67ffffffffffffffff81116104c757601f01601f191660200190565b92919261065b82610633565b916106696040519384610574565b829481845281830111610348578281602093845f960137010152565b9080601f83011215610348578160206106a09335910161064f565b90565b67ffffffffffffffff81116104c75760051b60200190565b92916106c6826106a3565b916106d46040519384610574565b829481845260208094019160051b810192831161034857905b8282106106fa5750505050565b813581529083019083016106ed565b9080601f83011215610348578160206106a0933591016106bb565b3461034857610180366003190112610348576004356107428161038c565b61074a6103ac565b906107536103b9565b61075b6103de565b926107646103ee565b61076c61044f565b61077461045c565b91610124359667ffffffffffffffff9788811161034857610799903690600401610685565b9461016435988911610348576107b6610018993690600401610709565b9761014435976084359260643592612789565b610100600319820112610348576004356107e28161038c565b916024356107ef8161038c565b9160443591606435916084358060070b8103610348579160a43561081281610441565b9160c4359067ffffffffffffffff82116103485761083291600401610685565b9060e43590565b61086e610845366107c9565b5095610855959195949294613a90565b61086860ff61086b5460e81c1615612898565b33613b43565b6001606555005b34610348575f3660031901126103485760206040516001600160a01b037f0000000000000000000000000000000000000000000000000000000000000000168152f35b92916108c3826106a3565b916108d16040519384610574565b829481845260208094019160051b810192831161034857905b8282106108f75750505050565b83809183356109058161038c565b8152019101906108ea565b9080601f83011215610348578160206106a0933591016108b8565b6003196060368201126103485760043561094481610441565b60243567ffffffffffffffff928382116103485760c09082360301126103485761096c610596565b90806004013582526024810135602083015260448101358481116103485761099a9060043691840101610709565b60408301526109ab60648201610494565b60608301526109bc608482016103d3565b608083015260a4810135908482116103485760046109dd9236920101610910565b60a0820152604435928311610348576109fd610018933690600401610709565b916128e3565b346103485760203660031901126103485761086e600435610a238161038c565b610a2b61538d565b610a33613a90565b613f7a565b9181601f840112156103485782359167ffffffffffffffff8311610348576020808501948460051b01011161034857565b6003196060368201126103485760043590610a8382610441565b6024359067ffffffffffffffff80831161034857610100836004019284360301126103485760443590811161034857610ac0903690600401610a38565b9190610aca613a90565b6084840190610ad882612a8e565b50602485013593468503610c2c57610b1c91610b1891610b126001610afc8b6125d6565b50015492610b0a3689612a98565b9236916106bb565b91614006565b1590565b610c1b576064840191610b2e83612b4a565b610b389087613e15565b80359060448601610b498183612b54565b9190610b5487612b4a565b610b5d87612a8e565b60a48b0194610b6c8688612b54565b9490913690610b7a926106bb565b933690610b86926108b8565b91610b9293888c613e82565b610b9c9083612b54565b95610ba690612b4a565b94610bb090612a8e565b91610bbb9084612b54565b909360e48a01610bca91612b8a565b94909363ffffffff98896040519a8b9a169d169b60c4013594610bed988a612bdd565b037fb89613053f0ed7f585819b5a108348fd1bac1f64eca872dca9bc91f2cae2842a91a46100186001606555565b600460405163582f497d60e11b8152fd5b60046040517f7a47c9a2000000000000000000000000000000000000000000000000000000008152fd5b8015150361034857565b3461034857606036600319011261034857600435610c7d8161038c565b602435907f0a21fdd43d0ad0c62689ee7230a47309a050755bcc52eba00310add65297692a60206001600160a01b0360443593610cb985610c56565b610cc161538d565b610cc9613a90565b1692835f5261086d825260405f20855f52825260405f209015159060ff1981541660ff8316179055604051908152a36001606555005b34610348575f366003190112610348576020604051428152f35b34610348575f3660031901126103485760206040517f152eb71524aef34d838ab76573c14b1ebfa5e385d9ab29d7cf5398daa2438bd98152f35b90816101809103126103485790565b346103485760403660031901126103485760043567ffffffffffffffff811161034857610d93903690600401610d53565b610d9b613a90565b610dae60ff61086b5460e01c1615612ca0565b610dba60408201612a8e565b6001600160a01b031633141580610e8c575b610e6257610e5890610e44610de9610de43684612ceb565b614176565b9160c0610e3d610dfb60208401612a8e565b610e09610160850185612b8a565b939094610e14610596565b97610e1f3683612ceb565b89526020890152013560408701526001600160a01b03166060860152565b369161064f565b608082015260243560a082015233906142c9565b6100186001606555565b60046040517fc3a9b9d0000000000000000000000000000000000000000000000000000000008152fd5b50610e9a6101408201612b4a565b63ffffffff4291161015610dcc565b3461034857602036600319011261034857600435610ec68161038c565b6001600160a01b0390817f00000000000000000000000000000000000000000000000000000000000000001691610eff83301415612dcb565b610f2e7f360894a13ba1a3210667c828492db98dca3e2076cc3735a920a3ca505d382bbc938285541614612e3c565b610f3661538d565b60405190610f4382610520565b5f82527f4910fdfa16fed3260ed0e7147f7cc6da11a60208b5b9406d12a635614ffd91435460ff1615610f7c5750506100189150615a3d565b6020600491604094939451928380926352d1902d60e01b825286165afa5f9181611028575b506110155760405162461bcd60e51b815260206004820152602e60248201527f45524331393637557067726164653a206e657720696d706c656d656e7461746960448201527f6f6e206973206e6f7420555550530000000000000000000000000000000000006064820152608490fd5b0390fd5b610018936110239114614889565b61591c565b61104b91925060203d602011611052575b6110438183610574565b81019061487a565b905f610fa1565b503d611039565b3461034857610180366003190112610348576004356110778161038c565b6024356110838161038c565b60443561108f8161038c565b60e4358060070b8103610348576110a46103fe565b6110ac61046a565b91610144359567ffffffffffffffff8711610348576110d2610018973690600401610685565b94610164359660c4359260a435926084359260643592612ead565b346103485760403660031901126103485760243560043561110c61538d565b611114613a90565b61086c8054680100000000000000008110156104c75763ffffffff9160018201905583611140826125d6565b5084600182015555167fc86ba04c55bc5eb2f2876b91c438849a296dbec7b08751c3074d92e04f0a77af5f80a46001606555005b9181601f840112156103485782359167ffffffffffffffff8311610348576020838186019501011161034857565b346103485760c0366003190112610348576004356111bf8161038c565b602435906111cc82610441565b6044356064356111db8161038c565b67ffffffffffffffff91608435838111610348576111fd903690600401611174565b93909460a435918211610348576112a063ffffffff7fb0a29aed3d389a1041194255878b423f7780be3ed2324d4693508c6ff189845e966112456112b2953690600401611174565b939099611250613a90565b6112778c8c8b8b61126e611265368a8961064f565b938b369161064f565b9346908c615292565b6001600160a01b0392836040519a8b9a8b521660208a0152608060408a01526080890191612bbd565b93868503606088015216981696612bbd565b0390a36001606555005b6040366003190112610348576004356112d48161038c565b60243567ffffffffffffffff8111610348576112f4903690600401610685565b906001600160a01b0391827f0000000000000000000000000000000000000000000000000000000000000000169261132e84301415612dcb565b61135d7f360894a13ba1a3210667c828492db98dca3e2076cc3735a920a3ca505d382bbc948286541614612e3c565b61136561538d565b7f4910fdfa16fed3260ed0e7147f7cc6da11a60208b5b9406d12a635614ffd91435460ff161561139b5750506100189150615a3d565b6020600491604094939451928380926352d1902d60e01b825286165afa5f9181611443575b506114305760405162461bcd60e51b815260206004820152602e60248201527f45524331393637557067726164653a206e657720696d706c656d656e7461746960448201527f6f6e206973206e6f7420555550530000000000000000000000000000000000006064820152608490fd5b6100189361143e9114614889565b6159eb565b61145d91925060203d602011611052576110438183610574565b905f6113c0565b34610348576040366003190112610348576001600160a01b036004356114898161038c565b165f5261086d60205260405f206024355f52602052602060ff60405f2054166040519015158152f35b34610348575f3660031901126103485760206001600160a01b036108695416604051908152f35b34610348575f366003190112610348576001600160a01b037f0000000000000000000000000000000000000000000000000000000000000000163003611548576040517f360894a13ba1a3210667c828492db98dca3e2076cc3735a920a3ca505d382bbc8152602090f35b0390f35b608460405162461bcd60e51b815260206004820152603860248201527f555550535570677261646561626c653a206d757374206e6f742062652063616c60448201527f6c6564207468726f7567682064656c656761746563616c6c00000000000000006064820152fd5b610120366003190112610348576004356115cb8161038c565b6024356115d78161038c565b604435906115e48261038c565b6115ec6103de565b60c435916115f983610441565b60e4359467ffffffffffffffff86116103485761161d61086e963690600401610685565b94611626613a90565b61163960ff61086b5460e81c1615612898565b6084359260643592613b43565b34610348575f36600319011261034857602060405163ffffffff7f0000000000000000000000000000000000000000000000000000000000000000168152f35b3461034857610200366003190112610348576116a061039d565b6116a86103ac565b906116b16103b9565b916116ba6103c6565b926116c36103fe565b936116cc61040f565b6116d4610420565b6116dc610478565b91610184359767ffffffffffffffff9889811161034857611701903690600401610685565b946101a4358a81116103485761171b903690600401610685565b966101c4359a8b11610348576117386100189b3690600401610685565b986101e4359a60e4359360c4359360a4359360843593612fa7565b34610348575f36600319011261034857602060ff61086b5460e81c166040519015158152f35b34610348575f3660031901126103485761179161538d565b5f6001600160a01b03610c8c8054906001600160a01b031982169055167f8be0079c531659141344cd1fd0a4f28419497f9722a3daafe3b4186f6b6457e08280a3005b34610348576020366003190112610348577fe88463c2f254e2b070013a2dc7ee1e099f9bc00534cbdf03af551dc26ae49219602060043561181481610c56565b61181c61538d565b611824613a90565b151561086b80547fffff00ffffffffffffffffffffffffffffffffffffffffffffffffffffffffff7dff00000000000000000000000000000000000000000000000000000000008460e81b169116179055604051908152a16001606555005b6101803660031901126103485760043561189c8161038c565b602435906118a98261038c565b6044356118b58161038c565b606435906118c28261038c565b60e4356118ce8161038c565b610104356118db81610441565b61012435916118e983610441565b6118f1610486565b93610164359767ffffffffffffffff891161034857611917610018993690600401611174565b98909760c4359360a43593608435936130a3565b346103485760c0366003190112610348576004356119488161038c565b602435908160070b8203610348576044359161196383610441565b60643561196f8161038c565b67ffffffffffffffff9360843585811161034857611991903690600401610685565b9260a435958611610348576119ad610018963690600401610685565b946133f2565b34610348576040366003190112610348576004356119d081610441565b611a1d6024356119df8161038c565b5f5492611a0360ff8560081c161580958196611a97575b8115611a77575b506134e3565b83611a14600160ff195f5416175f55565b611a6057613554565b611a2357005b611a3161ff00195f54165f55565b604051600181527f7f26b83ff96e1f2b6a682f133852f6798a09c465da95921460cefb384740249890602090a1005b611a7261010061ff00195f5416175f55565b613554565b303b15915081611a89575b505f6119fd565b6001915060ff16145f611a82565b600160ff82161091506119f6565b3461034857602036600319011261034857600435611ac161538d565b611ac9613a90565b611ad2816125d6565b611b0a576001815f80935501557f3569b846531b754c99cb80df3f49cd72fa6fe106aaee5ab8e0caf35a9d7ce88d5f80a26001606555005b634e487b7160e01b5f525f60045260245ffd5b34610348575f3660031901126103485760206001600160a01b03610c8c5416604051908152f35b3461034857606036600319011261034857610018600435611b6481610441565b610a33602435611b738161038c565b611bb660443593611b838561038c565b611b9360ff5f5460081c166135fb565b61086b9063ffffffff60c01b1963ffffffff60c01b83549260c01b169116179055565b604051611bc28161053c565b6009815260208101906820a1a927a9a996ab1960b91b825260405191611be78361053c565b600583526020830191640312e302e360dc1b8352611c1460ff5f5460081c16611c0f816135fb565b6135fb565b519020915190209061047f5561048055611c2c61549a565b611c346154aa565b6154c5565b346103485760203660031901126103485760043567ffffffffffffffff811161034857611c6a903690600401610d53565b611c72613a90565b611c8560ff61086b5460e01c1615612ca0565b610120810190611c9482612b4a565b63ffffffff908142911610611dd157611cb0610de43684612ceb565b90611cc4825f5261087260205260405f2090565b54611da757611d06611d007f923794976d026d6b119735adc163cb71decfc903e17c3dc226c00789593c04e1935f5261087260205260405f2090565b60019055565b611d1260608401612a8e565b93611d9a611d2260808601612a8e565b94611d39611d336101008301612b4a565b93612b4a565b90611d476101408201612b4a565b611d5360408301612a8e565b611d5c83612a8e565b90611d6960208501612a8e565b92611d78610160860186612b8a565b9690956040519a8b9a169d60e08201359d60a060c0840135930135918c61368f565b0390a36100186001606555565b60046040517f012f9e44000000000000000000000000000000000000000000000000000000008152fd5b60046040517fd642b7d9000000000000000000000000000000000000000000000000000000008152fd5b34610348576020366003190112610348577f2d5b62420992e5a4afce0e77742636ca2608ef58289fd2e1baa5161ef6e7e41e6020600435611e3b81610c56565b611e4361538d565b611e4b613a90565b151561086b80547fffffff00ffffffffffffffffffffffffffffffffffffffffffffffffffffffff7cff000000000000000000000000000000000000000000000000000000008460e01b169116179055604051908152a16001606555005b34610348575f366003190112610348576020604051468152f35b34610348575f36600319011261034857602063ffffffff61086b5460c01c16604051908152f35b34610348575f3660031901126103485760206040517f0e058f05b73c62ee68329d2c67c067aaae9a06503cc306378d144d0f0177882b8152f35b5f5b838110611f355750505f910152565b8181015183820152602001611f26565b90602091611f5e81518092818552858086019101611f24565b601f01601f1916010190565b6020808201906020835283518092526040830192602060408460051b8301019501935f915b848310611f9f5750505050505090565b9091929394958480611fbd600193603f198682030187528a51611f45565b9801930193019194939290611f8f565b34610348576020366003190112610348576004803567ffffffffffffffff811161034857611fff903690600401610a38565b91612009836136f7565b925f5b81811061202157604051806115448782611f6a565b5f8061202e838588613740565b6040939161204085518093819361375b565b0390305af49061204e613768565b91156120755750906001916120638288613807565b5261206e8187613807565b500161200c565b84826044815110610348576120998183611011930151602480918301019101613797565b925192839262461bcd60e51b845283016137f6565b60e0366003190112610348576004356120c68161038c565b6024356120d28161038c565b6120da610431565b9160a4359267ffffffffffffffff8411610348576120ff61086e943690600401610685565b92612108613a90565b61211b60ff61086b5460e81c1615612898565b63ffffffff421692606435916044359133613b43565b34610348575f366003190112610348576020604051701d6329f1c35ca4bfabb9f56100000000008152f35b34610348576003196060368201126103485760043567ffffffffffffffff80821161034857606082360393840112610348576024359061219b82610441565b604435908111610348576121b3903690600401610a38565b9190936121be613a90565b600484013590610182190181121561034857610e5894612257936121eb6122509360043691890101612ceb565b9561223e6121f888614176565b91604461220f60208b01516001600160a01b031690565b916101608b01519461221f610596565b9b8c5260208c0152013560408a01526001600160a01b03166060890152565b60808701525f60a087015236916106bb565b9083615551565b6145c3565b612265366107c9565b509461227696939496929192613a90565b61086b5461228a60ff8260e81c1615612898565b6122c96122c46122bd886122b0866001600160a01b03165f5261086d60205260405f2090565b905f5260205260405f2090565b5460ff1690565b61381b565b6122e76706f05b59d3b200006122e18560070b61548b565b10613498565b6123026ec097ce7bc90715b34b9f1000000000891115613866565b63ffffffff906123416123178387164261334b565b837f00000000000000000000000000000000000000000000000000000000000000001610156138b1565b60c01c1695612352611b9388613375565b6001600160a01b039488867f00000000000000000000000000000000000000000000000000000000000000001696841687811480612465575b1561242b575061239c9034146138fc565b853b15610348575f60049660405197888092630d0e30db60e41b825234905af1928315612426577fafc4df6845a4ab948b492800d3d8a25d538a102a2bc07cd01f1cfa097fddcff6966124009461240d575b505b604051958695339b469088613947565b0390a46100186001606555565b8061241a612420926104b3565b8061033e565b5f6123ee565b61336a565b7fafc4df6845a4ab948b492800d3d8a25d538a102a2bc07cd01f1cfa097fddcff697506124009491612460913090339061542e565b6123f0565b5034151561238b565b34610348576020366003190112610348576004355f52610872602052602060405f2054604051908152f35b346103485760c03660031901126103485767ffffffffffffffff600435818111610348576124cb903690600401610d53565b606435906124d88261038c565b608435838111610348576124f0903690600401611174565b9060a4359485116103485761250c610018953690600401611174565b9490936044359060243590613990565b34610348575f36600319011261034857602060ff61086b5460e01c166040519015158152f35b34610348575f3660031901126103485760206040516ec097ce7bc90715b34b9f10000000008152f35b346103485760203660031901126103485761086e60043561258b8161038c565b61259361538d565b611c34613a90565b34610348575f3660031901126103485760206001600160a01b0361086a5416604051908152f35b634e487b7160e01b5f52603260045260245ffd5b61086c908154811015612610576003915f52027f71cd7344f4eb2efc8e30291f6dbdb44d618ca368ea5425d217c1d604bf26b84d01905f90565b6125c2565b346103485760203660031901126103485760043561086c548110156103485761263f6040916125d6565b506001815491015482519182526020820152f35b34610348576020366003190112610348576004356126708161038c565b61267861538d565b6001600160a01b0381161561269057610018906153e6565b608460405162461bcd60e51b815260206004820152602660248201527f4f776e61626c653a206e6577206f776e657220697320746865207a65726f206160448201527f64647265737300000000000000000000000000000000000000000000000000006064820152fd5b610100366003190112610348576004356127138161038c565b602435906127208261038c565b60443561272c8161038c565b6127346103de565b60c4359367ffffffffffffffff85116103485761275861086e953690600401610685565b93612761613a90565b61277460ff61086b5460e81c1615612898565b63ffffffff4216936084359260643592613b43565b9a989593919996949290979961279d613a90565b6127a56105b6565b6001600160a01b03909c168c526001600160a01b03891660208d01526001600160a01b031660408c015260608b015260808a01524660a08a015260070b60c089015260070b60e088015263ffffffff16610100878101919091526101209180838901526128106105b6565b9788525f6020890181815260408a01919091526001600160a01b03909516606089015260808801525f60a0880152701d6329f1c35ca4bfabb9f561000000000060c08801525f1960e0880152600190870152850152835161287090614998565b905261287c91836155e1565b61288581614c4c565b61288e9161513c565b6103aa6001606555565b1561289f57565b606460405162461bcd60e51b815260206004820152600f60248201527f506175736564206465706f7369747300000000000000000000000000000000006044820152fd5b91906128ed613a90565b602081019182514603610c2c57610b186129159183600161290d886125d6565b500154613d83565b610c1b577ff8bd640004bcec1b89657020f561d0b070cbdf662d0b158db9dccb0a8301bfab6060820192612956612950855163ffffffff1690565b86613e15565b80516129db8451926129c06129b260408801976129a289519661297d8c5163ffffffff1690565b9760808401986129948a516001600160a01b031690565b9160a086019b8c5194613e82565b5192519751985163ffffffff1690565b93516001600160a01b031690565b935163ffffffff9485604051968796169a16983393866129e8565b0390a46103aa6001606555565b95949392919060a0870190875260209060a08289015282518091528160c089019301905f5b818110612a7a575050506001600160a01b03809316604088015286820360608801528080855193848152019401925f905b838210612a615750505050509060806103aa929401906001600160a01b03169052565b8451811686529482019493820193600190910190612a3e565b825185529383019391830191600101612a0d565b356106a08161038c565b9190916101008184031261034857612aae6105d7565b928135845260208201356020850152604082013567ffffffffffffffff908181116103485782612adf918501610709565b6040860152612af060608401610494565b6060860152612b01608084016103d3565b608086015260a08301358181116103485782612b1e918501610910565b60a086015260c083013560c086015260e083013590811161034857612b439201610685565b60e0830152565b356106a081610441565b903590601e1981360301821215610348570180359067ffffffffffffffff821161034857602001918160051b3603831361034857565b903590601e1981360301821215610348570180359067ffffffffffffffff82116103485760200191813603831361034857565b908060209392818452848401375f828201840152601f01601f1916010190565b94979592909998969399855260209160c060208701528160c08701527f07ffffffffffffffffffffffffffffffffffffffffffffffffffffffffffffff8211610348576101009160059493941b809160e088013785018260e082016001600160a01b03809d16604089015260e0888403016060890152520196915f5b828110612c7c57505050506106a0959650608082015260a0818503910152612bbd565b9091929782806001928d8c35612c918161038c565b16815201990193929101612c59565b15612ca757565b606460405162461bcd60e51b815260206004820152600c60248201527f5061757365642066696c6c7300000000000000000000000000000000000000006044820152fd5b91906101808382031261034857612d006105f8565b92612d0a816103d3565b8452612d18602082016103d3565b6020850152612d29604082016103d3565b6040850152612d3a606082016103d3565b6060850152612d4b608082016103d3565b608085015260a081013560a085015260c081013560c085015260e081013560e0850152610100612d7c818301610494565b90850152610120612d8e818301610494565b90850152610140612da0818301610494565b90850152610160918282013567ffffffffffffffff811161034857612dc59201610685565b90830152565b15612dd257565b608460405162461bcd60e51b815260206004820152602c60248201527f46756e6374696f6e206d7573742062652063616c6c6564207468726f7567682060448201527f64656c656761746563616c6c00000000000000000000000000000000000000006064820152fd5b15612e4357565b608460405162461bcd60e51b815260206004820152602c60248201527f46756e6374696f6e206d7573742062652063616c6c6564207468726f7567682060448201527f6163746976652070726f787900000000000000000000000000000000000000006064820152fd5b9a969290989799939591612ebf613a90565b61086b5460e01c60ff1615612ed390612ca0565b612edb6105b6565b6001600160a01b03909c168c526001600160a01b038a1660208d01526001600160a01b031660408c015260608b015260808a01524660a08a015260070b60c0890152600787900b60e08901526101009485890190612f3e919063ffffffff169052565b6101209581878a0152612f4f6105b6565b9889525f60208a0190815260079890980b60408a01526001600160a01b03166060890152608088015260a087015260c086015260e085015283015f905282015f90528151612f9c90614998565b905261288581614c4c565b9d9c9b959e9390928e9799939b98929b612fbf613a90565b61086b5460e01c60ff1615612fd390612ca0565b612fdb6105b6565b6001600160a01b0390991689526001600160a01b031660208901526001600160a01b031660408801526060870152608086018890524660a087015260070b60c086015260070b60e085015263ffffffff8516610100858101919091529161012093848601526130486105b6565b9485525f60208601908152600789900b60408701526001600160a01b038a166060870152949c8d8b608082015260a0015260c08d015260e08c01528a015f905289015f9052885161309890614998565b905261287c96615315565b979b95999196939b9a949890929a6130b9613a90565b61086b998a5460e81c60ff16156130cf90612898565b8b6130ec8a6001600160a01b03165f5261086d60205260405f2090565b5f918252602052604090205460ff161561330d5763ffffffff9d8e6131138185164261334b565b907f000000000000000000000000000000000000000000000000000000000000000016106132e3578e613168817f0000000000000000000000000000000000000000000000000000000000000000164261335d565b908516116132b9576001600160a01b039b7f00000000000000000000000000000000000000000000000000000000000000008d16828c8f16808314806132b0575b1561329d5750340361327357803b15610348575f60049160405192838092630d0e30db60e41b825234905af1801561242657613260575b505b5460c01c63ffffffff169e8f6131f790613375565b61321e9061086b9063ffffffff60c01b1963ffffffff60c01b83549260c01b169116179055565b6040519c8d9c169f169d6132329a8c61338a565b037fa123dc29aebf7d0c3322c8eeb5b999e859f39937950ed31056532713d0de396f91a46103aa6001606555565b8061241a61326d926104b3565b5f6131e0565b60046040517f6452a35d000000000000000000000000000000000000000000000000000000008152fd5b6132ab92503090339061542e565b6131e2565b503415156131a9565b60046040517f582e3889000000000000000000000000000000000000000000000000000000008152fd5b60046040517ff722177f000000000000000000000000000000000000000000000000000000008152fd5b60046040517f2a58c4f3000000000000000000000000000000000000000000000000000000008152fd5b634e487b7160e01b5f52601160045260245ffd5b9190820391821161335857565b613337565b9190820180921161335857565b6040513d5f823e3d90fd5b63ffffffff8091169081146133585760010190565b6001600160a01b03918216815291811660208301526040820192909252606081019290925263ffffffff928316608083015292821660a0820152921660c083015291821660e0820152911661010082015261014061012082018190526106a093910191612bbd565b61348e9063ffffffff7fa6aa57bd282fc82378458de27be4eadfa791a0c7321c49562eeba8b2643dd56695949796613428613a90565b6134508882888860070b986134486706f05b59d3b200006122e18c61548b565b468e89615315565b61347c6001600160a01b0391826040519889988952166020880152608060408801526080870190611f45565b92858403606087015216971695611f45565b0390a36001606555565b1561349f57565b606460405162461bcd60e51b815260206004820152601360248201527f496e76616c69642072656c6179657220666565000000000000000000000000006044820152fd5b156134ea57565b608460405162461bcd60e51b815260206004820152602e60248201527f496e697469616c697a61626c653a20636f6e747261637420697320616c72656160448201527f647920696e697469616c697a65640000000000000000000000000000000000006064820152fd5b906135796103aa9261357060ff5f5460081c16611c0f816135fb565b611b83336153e6565b6040516135858161053c565b6009815260208101906820a1a927a9a996ab1960b91b8252604051916135aa8361053c565b600583526020830191640312e302e360dc1b83526135d260ff5f5460081c16611c0f816135fb565b519020915190209061047f55610480556135ea61549a565b6135f26154aa565b610a33816154c5565b1561360257565b608460405162461bcd60e51b815260206004820152602b60248201527f496e697469616c697a61626c653a20636f6e7472616374206973206e6f74206960448201527f6e697469616c697a696e670000000000000000000000000000000000000000006064820152fd5b634e487b7160e01b5f52602160045260245ffd5b6003111561368a57565b61366c565b96909193979295946106a09b9995610140996001600160a01b0398898098818098168d521660208c015260408b015260608a015263ffffffff80921660808a01521660a08801521660c08601521660e084015216610100820152816101208201520191612bbd565b90613701826106a3565b61370e6040519182610574565b828152809261371f601f19916106a3565b01905f5b82811061372f57505050565b806060602080938501015201613723565b90821015612610576137579160051b810190612b8a565b9091565b908092918237015f815290565b3d15613792573d9061377982610633565b916137876040519384610574565b82523d5f602084013e565b606090565b6020818303126103485780519067ffffffffffffffff8211610348570181601f820112156103485780516137ca81610633565b926137d86040519485610574565b81845260208284010111610348576106a09160208085019101611f24565b9060206106a0928181520190611f45565b80518210156126105760209160051b010190565b1561382257565b606460405162461bcd60e51b815260206004820152600e60248201527f44697361626c656420726f7574650000000000000000000000000000000000006044820152fd5b1561386d57565b606460405162461bcd60e51b815260206004820152601060248201527f416d6f756e7420746f6f206c61726765000000000000000000000000000000006044820152fd5b156138b857565b606460405162461bcd60e51b815260206004820152601660248201527f696e76616c69642071756f746554696d657374616d70000000000000000000006044820152fd5b1561390357565b606460405162461bcd60e51b815260206004820152601b60248201527f6d73672e76616c7565206d757374206d6174636820616d6f756e7400000000006044820152fd5b9360e095936106a098979363ffffffff938752602087015260070b60408601521660608401526001600160a01b0380921660808401521660a08201528160c08201520190611f45565b949096939561399d613a90565b6139b060ff61086b5460e01c1615612ca0565b6139bc60408701612a8e565b6001600160a01b031633141580613a73575b610e62576139dc3687612ceb565b6139e590614176565b976139ee610596565b986139f93689612ceb565b8a5260208a0152604089018490526001600160a01b03851660608a0152613a2136848a61064f565b60808a015260a0890152613a3486612a8e565b96613a426101008801612b4a565b923690613a4e9261064f565b943690613a5a9261064f565b9460e0013590613a6996615292565b3361288e916142c9565b50613a816101408701612b4a565b63ffffffff42911610156139ce565b600260655414613aa1576002606555565b606460405162461bcd60e51b815260206004820152601f60248201527f5265656e7472616e637947756172643a207265656e7472616e742063616c6c006044820152fd5b92936106a09695919294610140956001600160a01b0380951686525f60208701526040860152606085015263ffffffff809116608085015260a08401525f60c08401521660e08201525f610100820152816101208201520190611f45565b9195969394929092613b716122c46122bd886122b08b6001600160a01b03165f5261086d60205260405f2090565b60070b93613b8a6706f05b59d3b200006122e18761548b565b613ba56ec097ce7bc90715b34b9f1000000000831115613866565b63ffffffff93613be4613bba868b164261334b565b867f00000000000000000000000000000000000000000000000000000000000000001610156138b1565b61086b5460c01c63ffffffff1698613bfe611b938b613375565b6001600160a01b0395867f00000000000000000000000000000000000000000000000000000000000000001694878b1686811480613d0b575b15613cce5750613c488134146138fc565b853b15610348575f60049660405197888092630d0e30db60e41b825234905af18015612426577fa123dc29aebf7d0c3322c8eeb5b999e859f39937950ed31056532713d0de396f99613cb697613ca592613cbb575b505b826156a6565b91604051988998169c169a87613ae5565b0390a4565b8061241a613cc8926104b3565b5f613c9d565b613cb696507fa123dc29aebf7d0c3322c8eeb5b999e859f39937950ed31056532713d0de396f99613d0683613ca5933090339061542e565b613c9f565b50341515613c37565b9081518082526020808093019301915f5b828110613d33575050505090565b835185529381019392810192600101613d25565b9081518082526020808093019301915f5b828110613d66575050505090565b83516001600160a01b031685529381019392810192600101613d58565b6106a09291604051613e0c81613dfe602082019460208652805160408401526020810151606084015260a0613dc8604083015160c06080870152610100860190613d14565b606083015163ffffffff168583015260808301516001600160a01b031660c0860152910151838203603f190160e0850152613d47565b03601f198101835282610574565b519020916156dc565b613e206002916125d6565b500162ffffff8260081c16805f5281602052600160ff60405f205494161b8080941614613e58575f5260205260405f20908154179055565b60046040517f954476d9000000000000000000000000000000000000000000000000000000008152fd5b9294939190938051825103613f50578151915f5b838110613f02575050505082613ead575b50505050565b6001600160a01b0381613ee17f828fc203220356df8f072a91681caee7d5c75095e2a95e80ed5a14b384697f71938661577b565b6040805195865233602087015291169463ffffffff1693a45f808080613ea7565b80613f0f60019284613807565b5180613f1d575b5001613e96565b613f4a90613f3b613f2e8488613807565b516001600160a01b031690565b6001600160a01b03891661572d565b5f613f16565b60046040517fcd298b38000000000000000000000000000000000000000000000000000000008152fd5b6001600160a01b03168015613fc25761086a816001600160a01b03198254161790557f1f17a88f67b0f49060a34bec1a4723a563620e6aa265eb640b5046dcee0759a05f80a2565b606460405162461bcd60e51b815260206004820152601460248201527f4261642068756220706f6f6c20616464726573730000000000000000000000006044820152fd5b6106a09291604051613e0c81613dfe602082019460208652805160408401526020810151606084015260408101519060e061404f61010093846080880152610140870190613d14565b606083015163ffffffff1660a08701529160808101516001600160a01b031660c087015261408e60a082015193603f19948589830301858a0152613d47565b9360c08201519087015201519084830301610120850152611f45565b80516001600160a01b031682526106a091610180906020838101516001600160a01b0316908201526040838101516001600160a01b0316908201526060838101516001600160a01b0316908201526080838101516001600160a01b03169082015260a083015160a082015260c083015160c082015260e083015160e0820152614141610100808501519083019063ffffffff169052565b6101208381015163ffffffff16908201526101408381015163ffffffff16908201528161016080940151938201520190611f45565b6040516141a78161419360208201946040865260608301906140aa565b46604083015203601f198101835282610574565b51902090565b6141b682613680565b52565b906001600160a01b0382511681526060806141e36020850151608060208601526080850190611f45565b93604081015160408501520151916141fa83613680565b015290565b9a9790969561427d966106a09d9b9660808e61426c9861428c9e986101809d6001600160a01b03998a80921685521660208401526040830152606082015201528c60a063ffffffff8094169101521660c08c01521660e08a01526101008901906001600160a01b03169052565b6001600160a01b0316610120870152565b80610140860152840190611f45565b916101608184039101526141b9565b906106a094936080936001600160a01b03809316845260208401521660408201528160608201520190611f45565b8051916101208301906142e0825163ffffffff1690565b63ffffffff42911610611dd15760208301516001614307825f5261087260205260405f2090565b54036145bc576001905b6002614326825f5261087260205260405f2090565b54146145925761433f905f5261087260205260405f2090565b6002905560608501516001600160a01b031660808601516001600160a01b03169260a0870151918660c0890151948960a08301519660e08201519761010083015161438d9063ffffffff1690565b9a5163ffffffff1661014084015163ffffffff169060408501516143b7906001600160a01b031690565b9285516143ca906001600160a01b031690565b9460208701516143e0906001600160a01b031690565b9661016001519760608a01516143fc906001600160a01b031690565b996080810151906040015190614410610619565b6001600160a01b03909c168c5260208c015260408b01526144349060608b016141ad565b6040519b6001600160a01b038d9c169f63ffffffff169e6144559b8d6141ff565b037f571749edf1d5c9599318cdbc4e28a6475d65e87fd3b2ddbe1e9a8d5e7a0f0ff791a460608101516001600160a01b03169182903382148061458a575b613ea757608001516001600160a01b03169260806040840151936001600160a01b03861685856001600160a01b037f00000000000000000000000000000000000000000000000000000000000000001683145f1461457a57506144f9913090339061542e565b6145038584615794565b0151913b151580614570575b6145195750505050565b803b1561034857614546935f809460405196879586948593633a5be8cb60e01b855233916004860161429b565b03925af180156124265761455d575b808080613ea7565b8061241a61456a926104b3565b5f614555565b508151151561450f565b61458592339061542e565b614503565b506001614493565b60046040517f8f260c60000000000000000000000000000000000000000000000000000000008152fd5b5f90614311565b905f825161012081016145da815163ffffffff1690565b63ffffffff42911610611dd15760208501516002614601825f5261087260205260405f2090565b54146145925761461a905f5261087260205260405f2090565b6002905560608201516001600160a01b031660808301516001600160a01b03169060a08401519260c0850151918860a0810151938760e0810151956101008201516146689063ffffffff1690565b955163ffffffff1661014083015163ffffffff1660408401516001600160a01b031691845161469d906001600160a01b031690565b9360208601516146b3906001600160a01b031690565b9561016001519660608901516146cf906001600160a01b031690565b9860808101519060400151906146e3610619565b6001600160a01b03909b168b5260208b015260408a0152600260608a01526040519d63ffffffff8f9c169d6147189b8d6141ff565b037f571749edf1d5c9599318cdbc4e28a6475d65e87fd3b2ddbe1e9a8d5e7a0f0ff7905f94a460608401516001600160a01b0316906001600160a01b03948583169182331480614873575b61486a57608001516001600160a01b03169060408101519687818416917f00000000000000000000000000000000000000000000000000000000000000001682145f146148535790608092918761483f575b6147c0915085615794565b0151923b151580614835575b6147d9575b505050509050565b813b156148315783614805959660405196879586948593633a5be8cb60e01b855233916004860161429b565b03925af180156124265761481e575b80808084936147d1565b8061241a61482b926104b3565b5f614814565b8380fd5b50825115156147cc565b61484c913090339061542e565b5f886147b5565b60809291965061486590865f9861572d565b6147c0565b50505050509050565b505f614763565b90816020910312610348575190565b1561489057565b608460405162461bcd60e51b815260206004820152602960248201527f45524331393637557067726164653a20756e737570706f727465642070726f7860448201527f6961626c655555494400000000000000000000000000000000000000000000006064820152fd5b80516001600160a01b031682526106a091610140906020838101516001600160a01b0316908201526040838101516001600160a01b031690820152606083015160608201526080830151608082015260a083015160a082015261496760c084015160c083019060070b9052565b60e08381015160070b908201526101008381015163ffffffff16908201528161012080940151938201520190611f45565b6040516141a781613dfe60208201946020865260408301906148fa565b156149bc57565b606460405162461bcd60e51b815260206004820152600c60248201527f696e76616c6964206665657300000000000000000000000000000000000000006044820152fd5b15614a0757565b606460405162461bcd60e51b815260206004820152600c60248201527f72656c61792066696c6c656400000000000000000000000000000000000000006044820152fd5b9060070b9060070b0190677fffffffffffffff198212677fffffffffffffff83131761335857565b15614a7a57565b606460405162461bcd60e51b815260206004820152601960248201527f66696c6c20616d6f756e742070726520666565732069732030000000000000006044820152fd5b15614ac557565b606460405162461bcd60e51b815260206004820152601d60248201527f7061796f757441646a7573746d656e7450637420746f6f20736d616c6c0000006044820152fd5b15614b1057565b606460405162461bcd60e51b815260206004820152601d60248201527f7061796f757441646a7573746d656e7450637420746f6f206c617267650000006044820152fd5b7f80000000000000000000000000000000000000000000000000000000000000008114613358575f0390565b15614b8757565b606460405162461bcd60e51b815260206004820152601c60248201527f536f6d65686f7720686974206d6178546f6b656e73546f53656e6421000000006044820152fd5b15614bd257565b606460405162461bcd60e51b815260206004820152601760248201527f696e76616c69642072657061796d656e7420636861696e0000000000000000006044820152fd5b919360a0936106a096956001600160a01b0380941685526020850152151560408401521660608201528160808201520190611f45565b908151916040810192614c8c6706f05b59d3b2000080614c7e614c79614c73895160070b90565b60070b90565b61548b565b109081615059575b506149b5565b60608101614cac6ec097ce7bc90715b34b9f100000000082511115613866565b6020830190614cd1614cc883515f5261086e60205260405f2090565b54825111614a00565b60c0840192835196614d0160c0830198614cfb614cef8b5160070b90565b845160070b5b90614a4b565b90615aea565b97614d0d891515614a73565b614d2d8451614d2687515f5261086e60205260405f2090565b549061334b565b89811061504f575b50614c73614d5c92614cf5614d4e614d56945160070b90565b915160070b90565b886156a6565b936101208601805180614ffa575b50505060a08501518786519160a083015114918215614fec575b50508015614fd3575b614d9690614bcb565b614daa83515f5261086e60205260405f2090565b614db588825461335d565b90556060850191614dcd83516001600160a01b031690565b926001600160a01b0392838516331480614fbc575b614fb257906040614e6f9201948785614e0288516001600160a01b031690565b16917f000000000000000000000000000000000000000000000000000000000000000087168303614f6157505050614e41610b186101008a0151151590565b614f3b575b613f2e87614e6a614e5e84516001600160a01b031690565b6001600160a01b031690565b615794565b91823b151580614f2d575b614e88575b50505050505050565b614ea1614eb2916080941694516001600160a01b031690565b94515f5261086e60205260405f2090565b549051111594015193813b15610348575f8094614f00604051978896879586947f0ea1f938000000000000000000000000000000000000000000000000000000008652339260048701614c16565b03925af1801561242657614f1a575b808080808080614e7f565b8061241a614f27926104b3565b5f614f0f565b506080870151511515614e7a565b614f5c87614f53614e5e88516001600160a01b031690565b3090339061542e565b614e46565b614f72610b186101008d0151151590565b15614fa95750614fa49150614f91614e5e88516001600160a01b031690565b83516001600160a01b031690339061542e565b613f2e565b614fa49261572d565b5050505050505050565b50614fce610b186101008a0151151590565b614de2565b50614d96614fe5610100870151151590565b9050614d8d565b60600151149050875f614d84565b9561503761503d9261501b6150479599670de0b6b3a763ffff191315614abe565b61503168056bc75e2d6310000082511315614b09565b51614b54565b906156a6565b9451851115614b80565b5f8080614d6a565b9850614c73614d35565b905061506f614c79614c7360c086015160070b90565b105f614c86565b906001600160a01b0382511681526080806150a0602085015160a0602086015260a0850190611f45565b93604081015160070b6040850152606081015115156060850152015191015290565b9a97936106a09c9a9591979361512d9a979360208e6101809b8152015260408d015260608c015260808b015260070b60a08a015260070b60c08901526001600160a01b03928380921660e08a0152166101008801521661012086015280610140860152840190611f45565b91610160818403910152615076565b90604082015161514c9060070b90565b916060810151615162906001600160a01b031690565b90608081015193610100948583015161517a90151590565b61012092838501519261518b610626565b6001600160a01b039097168752602087015260070b604086015215156060850152608084015281516060015160208301516151cf905f5261086e60205260405f2090565b549360a084015193519460808601519560a08101519160e08201516151f49060070b90565b60c083015160070b9a83015163ffffffff169a604084015161521c906001600160a01b031690565b91845161522f906001600160a01b031690565b986020860151615245906001600160a01b031690565b950151956040519a6001600160a01b038c9b169e63ffffffff169d339661526c9b8d6150c2565b037f8ab9dc6c19fe88e69bc70221b339c84332752fdd49591b7c51e66bae3947b73c91a4565b939261530f936001600160a01b036103aa989760208151910120916040519363ffffffff60208601967f152eb71524aef34d838ab76573c14b1ebfa5e385d9ab29d7cf5398daa2438bd9885216604086015286606086015260808501521660a083015260c082015260c0815261530781610558565b519020615b38565b90615c11565b939261530f936001600160a01b036103aa989760208151910120916040519363ffffffff60208601967f0e058f05b73c62ee68329d2c67c067aaae9a06503cc306378d144d0f0177882b885216604086015286606086015260070b60808501521660a083015260c082015260c0815261530781610558565b6001600160a01b03610c8c541633036153a257565b606460405162461bcd60e51b815260206004820152602060248201527f4f776e61626c653a2063616c6c6572206973206e6f7420746865206f776e65726044820152fd5b610c8c9081546001600160a01b0380921692836001600160a01b03198316179055167f8be0079c531659141344cd1fd0a4f28419497f9722a3daafe3b4186f6b6457e05f80a3565b90926103aa93604051937f23b872dd0000000000000000000000000000000000000000000000000000000060208601526001600160a01b03809216602486015216604484015260648301526064825261548682610504565b615cfa565b5f81126154955790565b5f0390565b6103aa60ff5f5460081c166135fb565b6154be60ff5f5460081c16611c0f816135fb565b6001606555565b6001600160a01b0316801561550d57610869816001600160a01b03198254161790557fa9e8c42c9e7fca7f62755189a16b2f5314d43d8fb24e91ba54e6d65f9314e8495f80a2565b606460405162461bcd60e51b815260206004820152601960248201527f4261642062726964676520726f757465722061646472657373000000000000006044820152fd5b91610b18906155ca9284516040809601519186519161556f836104cc565b8252613e0c61558a60208401924684528985019586526125d6565b50549388519283916155af6020840196602088525160608d86015260a08501906140aa565b9151606084015251608083015203601f198101835282610574565b6155d15750565b6004905163582f497d60e11b8152fd5b909161012082519201516040938451908582019082821067ffffffffffffffff8311176104c75761565b956156209288528352602083019384526125d6565b505491613e0c86518092615646602083019560208752518a8085015260808401906148fa565b9051606083015203601f198101835282610574565b156156635750565b6064905162461bcd60e51b815260206004820152601860248201527f496e76616c696420736c6f772072656c61792070726f6f6600000000000000006044820152fd5b90670de0b6b3a7640000915f82840392128383128116908484139015161761335857818102918183041490151715613358570490565b929091905f915b8451831015615725576156f68386613807565b519081811015615714575f52602052600160405f205b9201916156e3565b905f52602052600160405f2061570c565b915092501490565b6103aa926001600160a01b03604051937fa9059cbb000000000000000000000000000000000000000000000000000000006020860152166024840152604483015260448252615486826104e8565b6103aa916001600160a01b038061086a5416911661572d565b6001600160a01b0390811690813b156157d457906103aa92917f00000000000000000000000000000000000000000000000000000000000000001661572d565b7f000000000000000000000000000000000000000000000000000000000000000016803b15610348575f80916024604051809481937f2e1a7d4d0000000000000000000000000000000000000000000000000000000083528860048401525af180156124265761590d575b508147106158c9575f80809381935af1615857613768565b501561585f57565b608460405162461bcd60e51b815260206004820152603a60248201527f416464726573733a20756e61626c6520746f2073656e642076616c75652c207260448201527f6563697069656e74206d617920686176652072657665727465640000000000006064820152fd5b606460405162461bcd60e51b815260206004820152601d60248201527f416464726573733a20696e73756666696369656e742062616c616e63650000006044820152fd5b615916906104b3565b5f61583f565b9061592682615a3d565b6001600160a01b0382167fbc7cd75a20ee27fd9adebab32041f755214dbc6bffa90cc0225b39da2e5c2d3b5f80a28051158015906159e4575b615967575050565b6159e1915f806040519361597a856104cc565b602785527f416464726573733a206c6f772d6c6576656c2064656c65676174652063616c6c60208601527f206661696c6564000000000000000000000000000000000000000000000000006040860152602081519101845af46159db613768565b91615e25565b50565b505f61595f565b906159f582615a3d565b6001600160a01b0382167fbc7cd75a20ee27fd9adebab32041f755214dbc6bffa90cc0225b39da2e5c2d3b5f80a2805115801590615a3557615967575050565b50600161595f565b803b15615a80576001600160a01b037f360894a13ba1a3210667c828492db98dca3e2076cc3735a920a3ca505d382bbc91166001600160a01b0319825416179055565b608460405162461bcd60e51b815260206004820152602d60248201527f455243313936373a206e657720696d706c656d656e746174696f6e206973206e60448201527f6f74206120636f6e7472616374000000000000000000000000000000000000006064820152fd5b670de0b6b3a76400009181830291838304036133585760070b808303925f8212818512811690828613901516176133585714615b24570490565b634e487b7160e01b5f52601260045260245ffd5b60429161047f549061048054906040519160208301937fc2f8787176b8ac6bf7215b4adcc1e069bf4ab82d9ab1df05a57a91d425935b6e855260408401526060830152608082015260808152615b8d81610504565b51902090604051917f19010000000000000000000000000000000000000000000000000000000000008352600283015260228201522090565b15615bcd57565b606460405162461bcd60e51b815260206004820152601160248201527f696e76616c6964207369676e61747572650000000000000000000000000000006044820152fd5b9190615c1d8282615df4565b939092600585101561368a576103aa94159384615ce4575b508315615c45575b505050615bc6565b5f929350908291604051615c9681613dfe60208201947f1626ba7e00000000000000000000000000000000000000000000000000000000998a87526024840152604060448401526064830190611f45565b51915afa90615ca3613768565b82615cd6575b82615cb9575b50505f8080615c3d565b615cce9192506020808251830101910161487a565b145f80615caf565b915060208251101591615ca9565b6001600160a01b0383811691161493505f615c35565b604051615d51916001600160a01b0316615d138261053c565b5f806020958685527f5361666545524332303a206c6f772d6c6576656c2063616c6c206661696c656487860152868151910182855af16159db613768565b8051828115918215615dd4575b5050905015615d6a5750565b6084906040519062461bcd60e51b82526004820152602a60248201527f5361666545524332303a204552433230206f7065726174696f6e20646964206e60448201527f6f742073756363656564000000000000000000000000000000000000000000006064820152fd5b838092935001031261034857810151615dec81610c56565b80825f615d5e565b9060418151145f14615e1c5761375791602082015190606060408401519301515f1a90615eb5565b50505f90600290565b91929015615e865750815115615e39575090565b3b15615e425790565b606460405162461bcd60e51b815260206004820152601d60248201527f416464726573733a2063616c6c20746f206e6f6e2d636f6e74726163740000006044820152fd5b825190915015615e995750805190602001fd5b6110119060405191829162461bcd60e51b8352600483016137f6565b7f7fffffffffffffffffffffffffffffff5d576e7357a4501ddfe92f46681b20a08411615f25576020935f9360ff60809460405194855216868401526040830152606082015282805260015afa15612426575f516001600160a01b03811615615f1d57905f90565b505f90600190565b505050505f9060039056fea26469706673582212208d798a4694e30f70dd374ddfe1a90c3a3412155c8066c56843f9d79494202e7764736f6c63430008170033"
}