{
  "address": "0x5ef6C01E11889d86803e0B23e3cB3F9E9d97B662",
  "abi": [
    {
      "inputs": [
        {
          "internalType": "address",
          "name": "_wrappedNativeTokenAddress",
          "type": "address"
        },
        {
          "internalType": "uint32",
          "name": "_depositQuoteTimeBuffer",
          "type": "uint32"
        },
        {
          "internalType": "uint32",
          "name": "_fillDeadlineBuffer",
          "type": "uint32"
        }
      ],
      "stateMutability": "nonpayable",
      "type": "constructor"
    },
    {
      "inputs": [],
      "name": "ClaimedMerkleLeaf",
      "type": "error"
    },
    {
      "inputs": [],
      "name": "DisabledRoute",
      "type": "error"
    },
    {
      "inputs": [],
      "name": "ExpiredFillDeadline",
      "type": "error"
    },
    {
      "inputs": [],
      "name": "InvalidChainId",
      "type": "error"
    },
    {
      "inputs": [],
      "name": "InvalidExclusiveRelayer",
      "type": "error"
    },
    {
      "inputs": [],
      "name": "InvalidExclusivityDeadline",
      "type": "error"
    },
    {
      "inputs": [],
      "name": "InvalidFillDeadline",
      "type": "error"
    },
    {
      "inputs": [],
      "name": "InvalidMerkleLeaf",
      "type": "error"
    },
    {
      "inputs": [],
      "name": "InvalidMerkleProof",
      "type": "error"
    },
    {
      "inputs": [],
      "name": "InvalidPayoutAdjustmentPct",
      "type": "error"
    },
    {
      "inputs": [],
      "name": "InvalidQuoteTimestamp",
      "type": "error"
    },
    {
      "inputs": [],
      "name": "InvalidSlowFillRequest",
      "type": "error"
    },
    {
      "inputs": [],
      "name": "MsgValueDoesNotMatchInputAmount",
      "type": "error"
    },
    {
      "inputs": [],
      "name": "NoSlowFillsInExclusivityWindow",
      "type": "error"
    },
    {
      "inputs": [],
      "name": "NotEOA",
      "type": "error"
    },
    {
      "inputs": [],
      "name": "NotExclusiveRelayer",
      "type": "error"
    },
    {
      "inputs": [],
      "name": "RelayFilled",
      "type": "error"
    },
    {
      "anonymous": false,
      "inputs": [
        {
          "indexed": false,
          "internalType": "address",
          "name": "previousAdmin",
          "type": "address"
        },
        {
          "indexed": false,
          "internalType": "address",
          "name": "newAdmin",
          "type": "address"
        }
      ],
      "name": "AdminChanged",
      "type": "event"
    },
    {
      "anonymous": false,
      "inputs": [
        {
          "indexed": true,
          "internalType": "address",
          "name": "beacon",
          "type": "address"
        }
      ],
      "name": "BeaconUpgraded",
      "type": "event"
    },
    {
      "anonymous": false,
      "inputs": [
        {
          "indexed": true,
          "internalType": "uint256",
          "name": "rootBundleId",
          "type": "uint256"
        }
      ],
      "name": "EmergencyDeleteRootBundle",
      "type": "event"
    },
    {
      "anonymous": false,
      "inputs": [
        {
          "indexed": true,
          "internalType": "address",
          "name": "originToken",
          "type": "address"
        },
        {
          "indexed": true,
          "internalType": "uint256",
          "name": "destinationChainId",
          "type": "uint256"
        },
        {
          "indexed": false,
          "internalType": "bool",
          "name": "enabled",
          "type": "bool"
        }
      ],
      "name": "EnabledDepositRoute",
      "type": "event"
    },
    {
      "anonymous": false,
      "inputs": [
        {
          "indexed": false,
          "internalType": "uint256",
          "name": "amountToReturn",
          "type": "uint256"
        },
        {
          "indexed": true,
          "internalType": "uint256",
          "name": "chainId",
          "type": "uint256"
        },
        {
          "indexed": false,
          "internalType": "uint256[]",
          "name": "refundAmounts",
          "type": "uint256[]"
        },
        {
          "indexed": true,
          "internalType": "uint32",
          "name": "rootBundleId",
          "type": "uint32"
        },
        {
          "indexed": true,
          "internalType": "uint32",
          "name": "leafId",
          "type": "uint32"
        },
        {
          "indexed": false,
          "internalType": "address",
          "name": "l2TokenAddress",
          "type": "address"
        },
        {
          "indexed": false,
          "internalType": "address[]",
          "name": "refundAddresses",
          "type": "address[]"
        },
        {
          "indexed": false,
          "internalType": "address",
          "name": "caller",
          "type": "address"
        }
      ],
      "name": "ExecutedRelayerRefundRoot",
      "type": "event"
    },
    {
      "anonymous": false,
      "inputs": [
        {
          "indexed": false,
          "internalType": "uint256",
          "name": "amountToReturn",
          "type": "uint256"
        },
        {
          "indexed": true,
          "internalType": "uint256",
          "name": "chainId",
          "type": "uint256"
        },
        {
          "indexed": false,
          "internalType": "uint256[]",
          "name": "refundAmounts",
          "type": "uint256[]"
        },
        {
          "indexed": true,
          "internalType": "uint32",
          "name": "rootBundleId",
          "type": "uint32"
        },
        {
          "indexed": true,
          "internalType": "uint32",
          "name": "leafId",
          "type": "uint32"
        },
        {
          "indexed": false,
          "internalType": "address",
          "name": "caller",
          "type": "address"
        }
      ],
      "name": "ExecutedRelayerRefundRoot",
      "type": "event"
    },
    {
      "anonymous": false,
      "inputs": [
        {
          "indexed": false,
          "internalType": "uint256",
          "name": "amount",
          "type": "uint256"
        },
        {
          "indexed": false,
          "internalType": "uint256",
          "name": "totalFilledAmount",
          "type": "uint256"
        },
        {
          "indexed": false,
          "internalType": "uint256",
          "name": "fillAmount",
          "type": "uint256"
        },
        {
          "indexed": false,
          "internalType": "uint256",
          "name": "repaymentChainId",
          "type": "uint256"
        },
        {
          "indexed": true,
          "internalType": "uint256",
          "name": "originChainId",
          "type": "uint256"
        },
        {
          "indexed": false,
          "internalType": "uint256",
          "name": "destinationChainId",
          "type": "uint256"
        },
        {
          "indexed": false,
          "internalType": "int64",
          "name": "relayerFeePct",
          "type": "int64"
        },
        {
          "indexed": false,
          "internalType": "int64",
          "name": "realizedLpFeePct",
          "type": "int64"
        },
        {
          "indexed": true,
          "internalType": "uint32",
          "name": "depositId",
          "type": "uint32"
        },
        {
          "indexed": false,
          "internalType": "address",
          "name": "destinationToken",
          "type": "address"
        },
        {
          "indexed": false,
          "internalType": "address",
          "name": "relayer",
          "type": "address"
        },
        {
          "indexed": true,
          "internalType": "address",
          "name": "depositor",
          "type": "address"
        },
        {
          "indexed": false,
          "internalType": "address",
          "name": "recipient",
          "type": "address"
        },
        {
          "indexed": false,
          "internalType": "bytes",
          "name": "message",
          "type": "bytes"
        },
        {
          "components": [
            {
              "internalType": "address",
              "name": "recipient",
              "type": "address"
            },
            {
              "internalType": "bytes",
              "name": "message",
              "type": "bytes"
            },
            {
              "internalType": "int64",
              "name": "relayerFeePct",
              "type": "int64"
            },
            {
              "internalType": "bool",
              "name": "isSlowRelay",
              "type": "bool"
            },
            {
              "internalType": "int256",
              "name": "payoutAdjustmentPct",
              "type": "int256"
            }
          ],
          "indexed": false,
          "internalType": "struct SpokePool.RelayExecutionInfo",
          "name": "updatableRelayData",
          "type": "tuple"
        }
      ],
      "name": "FilledRelay",
      "type": "event"
    },
    {
      "anonymous": false,
      "inputs": [
        {
          "indexed": false,
          "internalType": "address",
          "name": "inputToken",
          "type": "address"
        },
        {
          "indexed": false,
          "internalType": "address",
          "name": "outputToken",
          "type": "address"
        },
        {
          "indexed": false,
          "internalType": "uint256",
          "name": "inputAmount",
          "type": "uint256"
        },
        {
          "indexed": false,
          "internalType": "uint256",
          "name": "outputAmount",
          "type": "uint256"
        },
        {
          "indexed": false,
          "internalType": "uint256",
          "name": "repaymentChainId",
          "type": "uint256"
        },
        {
          "indexed": true,
          "internalType": "uint256",
          "name": "originChainId",
          "type": "uint256"
        },
        {
          "indexed": true,
          "internalType": "uint32",
          "name": "depositId",
          "type": "uint32"
        },
        {
          "indexed": false,
          "internalType": "uint32",
          "name": "fillDeadline",
          "type": "uint32"
        },
        {
          "indexed": false,
          "internalType": "uint32",
          "name": "exclusivityDeadline",
          "type": "uint32"
        },
        {
          "indexed": false,
          "internalType": "address",
          "name": "exclusiveRelayer",
          "type": "address"
        },
        {
          "indexed": true,
          "internalType": "address",
          "name": "relayer",
          "type": "address"
        },
        {
          "indexed": false,
          "internalType": "address",
          "name": "depositor",
          "type": "address"
        },
        {
          "indexed": false,
          "internalType": "address",
          "name": "recipient",
          "type": "address"
        },
        {
          "indexed": false,
          "internalType": "bytes",
          "name": "message",
          "type": "bytes"
        },
        {
          "components": [
            {
              "internalType": "address",
              "name": "updatedRecipient",
              "type": "address"
            },
            {
              "internalType": "bytes",
              "name": "updatedMessage",
              "type": "bytes"
            },
            {
              "internalType": "uint256",
              "name": "updatedOutputAmount",
              "type": "uint256"
            },
            {
              "internalType": "enum V3SpokePoolInterface.FillType",
              "name": "fillType",
              "type": "uint8"
            }
          ],
          "indexed": false,
          "internalType": "struct V3SpokePoolInterface.V3RelayExecutionEventInfo",
          "name": "relayExecutionInfo",
          "type": "tuple"
        }
      ],
      "name": "FilledV3Relay",
      "type": "event"
    },
    {
      "anonymous": false,
      "inputs": [
        {
          "indexed": false,
          "internalType": "uint256",
          "name": "amount",
          "type": "uint256"
        },
        {
          "indexed": false,
          "internalType": "uint256",
          "name": "originChainId",
          "type": "uint256"
        },
        {
          "indexed": true,
          "internalType": "uint256",
          "name": "destinationChainId",
          "type": "uint256"
        },
        {
          "indexed": false,
          "internalType": "int64",
          "name": "relayerFeePct",
          "type": "int64"
        },
        {
          "indexed": true,
          "internalType": "uint32",
          "name": "depositId",
          "type": "uint32"
        },
        {
          "indexed": false,
          "internalType": "uint32",
          "name": "quoteTimestamp",
          "type": "uint32"
        },
        {
          "indexed": false,
          "internalType": "address",
          "name": "originToken",
          "type": "address"
        },
        {
          "indexed": false,
          "internalType": "address",
          "name": "recipient",
          "type": "address"
        },
        {
          "indexed": true,
          "internalType": "address",
          "name": "depositor",
          "type": "address"
        },
        {
          "indexed": false,
          "internalType": "bytes",
          "name": "message",
          "type": "bytes"
        }
      ],
      "name": "FundsDeposited",
      "type": "event"
    },
    {
      "anonymous": false,
      "inputs": [
        {
          "indexed": false,
          "internalType": "uint8",
          "name": "version",
          "type": "uint8"
        }
      ],
      "name": "Initialized",
      "type": "event"
    },
    {
      "anonymous": false,
      "inputs": [
        {
          "indexed": true,
          "internalType": "address",
          "name": "previousOwner",
          "type": "address"
        },
        {
          "indexed": true,
          "internalType": "address",
          "name": "newOwner",
          "type": "address"
        }
      ],
      "name": "OwnershipTransferred",
      "type": "event"
    },
    {
      "anonymous": false,
      "inputs": [
        {
          "indexed": false,
          "internalType": "bool",
          "name": "isPaused",
          "type": "bool"
        }
      ],
      "name": "PausedDeposits",
      "type": "event"
    },
    {
      "anonymous": false,
      "inputs": [
        {
          "indexed": false,
          "internalType": "bool",
          "name": "isPaused",
          "type": "bool"
        }
      ],
      "name": "PausedFills",
      "type": "event"
    },
    {
      "anonymous": false,
      "inputs": [
        {
          "indexed": true,
          "internalType": "uint32",
          "name": "rootBundleId",
          "type": "uint32"
        },
        {
          "indexed": true,
          "internalType": "bytes32",
          "name": "relayerRefundRoot",
          "type": "bytes32"
        },
        {
          "indexed": true,
          "internalType": "bytes32",
          "name": "slowRelayRoot",
          "type": "bytes32"
        }
      ],
      "name": "RelayedRootBundle",
      "type": "event"
    },
    {
      "anonymous": false,
      "inputs": [
        {
          "indexed": false,
          "internalType": "int64",
          "name": "newRelayerFeePct",
          "type": "int64"
        },
        {
          "indexed": true,
          "internalType": "uint32",
          "name": "depositId",
          "type": "uint32"
        },
        {
          "indexed": true,
          "internalType": "address",
          "name": "depositor",
          "type": "address"
        },
        {
          "indexed": false,
          "internalType": "address",
          "name": "updatedRecipient",
          "type": "address"
        },
        {
          "indexed": false,
          "internalType": "bytes",
          "name": "updatedMessage",
          "type": "bytes"
        },
        {
          "indexed": false,
          "internalType": "bytes",
          "name": "depositorSignature",
          "type": "bytes"
        }
      ],
      "name": "RequestedSpeedUpDeposit",
      "type": "event"
    },
    {
      "anonymous": false,
      "inputs": [
        {
          "indexed": false,
          "internalType": "uint256",
          "name": "updatedOutputAmount",
          "type": "uint256"
        },
        {
          "indexed": true,
          "internalType": "uint32",
          "name": "depositId",
          "type": "uint32"
        },
        {
          "indexed": true,
          "internalType": "address",
          "name": "depositor",
          "type": "address"
        },
        {
          "indexed": false,
          "internalType": "address",
          "name": "updatedRecipient",
          "type": "address"
        },
        {
          "indexed": false,
          "internalType": "bytes",
          "name": "updatedMessage",
          "type": "bytes"
        },
        {
          "indexed": false,
          "internalType": "bytes",
          "name": "depositorSignature",
          "type": "bytes"
        }
      ],
      "name": "RequestedSpeedUpV3Deposit",
      "type": "event"
    },
    {
      "anonymous": false,
      "inputs": [
        {
          "indexed": false,
          "internalType": "uint256",
          "name": "updatedOutputAmount",
          "type": "uint256"
        },
        {
          "indexed": true,
          "internalType": "uint32",
          "name": "depositId",
          "type": "uint32"
        },
        {
          "indexed": true,
          "internalType": "address",
          "name": "depositor",
          "type": "address"
        },
        {
          "indexed": false,
          "internalType": "address",
          "name": "updatedRecipient",
          "type": "address"
        },
        {
          "indexed": false,
          "internalType": "bytes",
          "name": "updatedMessage",
          "type": "bytes"
        },
        {
          "indexed": false,
          "internalType": "bytes",
          "name": "depositorSignature",
          "type": "bytes"
        }
      ],
      "name": "RequestedSpeedUpV3Deposit",
      "type": "event"
    },
    {
      "anonymous": false,
      "inputs": [
        {
          "indexed": false,
          "internalType": "address",
          "name": "inputToken",
          "type": "address"
        },
        {
          "indexed": false,
          "internalType": "address",
          "name": "outputToken",
          "type": "address"
        },
        {
          "indexed": false,
          "internalType": "uint256",
          "name": "inputAmount",
          "type": "uint256"
        },
        {
          "indexed": false,
          "internalType": "uint256",
          "name": "outputAmount",
          "type": "uint256"
        },
        {
          "indexed": true,
          "internalType": "uint256",
          "name": "originChainId",
          "type": "uint256"
        },
        {
          "indexed": true,
          "internalType": "uint32",
          "name": "depositId",
          "type": "uint32"
        },
        {
          "indexed": false,
          "internalType": "uint32",
          "name": "fillDeadline",
          "type": "uint32"
        },
        {
          "indexed": false,
          "internalType": "uint32",
          "name": "exclusivityDeadline",
          "type": "uint32"
        },
        {
          "indexed": false,
          "internalType": "address",
          "name": "exclusiveRelayer",
          "type": "address"
        },
        {
          "indexed": false,
          "internalType": "address",
          "name": "depositor",
          "type": "address"
        },
        {
          "indexed": false,
          "internalType": "address",
          "name": "recipient",
          "type": "address"
        },
        {
          "indexed": false,
          "internalType": "bytes",
          "name": "message",
          "type": "bytes"
        }
      ],
      "name": "RequestedV3SlowFill",
      "type": "event"
    },
    {
      "anonymous": false,
      "inputs": [
        {
          "indexed": true,
          "internalType": "address",
          "name": "newHubPool",
          "type": "address"
        }
      ],
      "name": "SetHubPool",
      "type": "event"
    },
    {
      "anonymous": false,
      "inputs": [
        {
          "indexed": true,
          "internalType": "address",
          "name": "newAdmin",
          "type": "address"
        }
      ],
      "name": "SetXDomainAdmin",
      "type": "event"
    },
    {
      "anonymous": false,
      "inputs": [
        {
          "indexed": false,
          "internalType": "uint256",
          "name": "amountToReturn",
          "type": "uint256"
        },
        {
          "indexed": true,
          "internalType": "uint256",
          "name": "chainId",
          "type": "uint256"
        },
        {
          "indexed": true,
          "internalType": "uint32",
          "name": "leafId",
          "type": "uint32"
        },
        {
          "indexed": true,
          "internalType": "address",
          "name": "l2TokenAddress",
          "type": "address"
        },
        {
          "indexed": false,
          "internalType": "address",
          "name": "caller",
          "type": "address"
        }
      ],
      "name": "TokensBridged",
      "type": "event"
    },
    {
      "anonymous": false,
      "inputs": [
        {
          "indexed": true,
          "internalType": "address",
          "name": "implementation",
          "type": "address"
        }
      ],
      "name": "Upgraded",
      "type": "event"
    },
    {
      "anonymous": false,
      "inputs": [
        {
          "indexed": false,
          "internalType": "address",
          "name": "inputToken",
          "type": "address"
        },
        {
          "indexed": false,
          "internalType": "address",
          "name": "outputToken",
          "type": "address"
        },
        {
          "indexed": false,
          "internalType": "uint256",
          "name": "inputAmount",
          "type": "uint256"
        },
        {
          "indexed": false,
          "internalType": "uint256",
          "name": "outputAmount",
          "type": "uint256"
        },
        {
          "indexed": true,
          "internalType": "uint256",
          "name": "destinationChainId",
          "type": "uint256"
        },
        {
          "indexed": true,
          "internalType": "uint32",
          "name": "depositId",
          "type": "uint32"
        },
        {
          "indexed": false,
          "internalType": "uint32",
          "name": "quoteTimestamp",
          "type": "uint32"
        },
        {
          "indexed": false,
          "internalType": "uint32",
          "name": "fillDeadline",
          "type": "uint32"
        },
        {
          "indexed": false,
          "internalType": "uint32",
          "name": "exclusivityDeadline",
          "type": "uint32"
        },
        {
          "indexed": true,
          "internalType": "address",
          "name": "depositor",
          "type": "address"
        },
        {
          "indexed": false,
          "internalType": "address",
          "name": "recipient",
          "type": "address"
        },
        {
          "indexed": false,
          "internalType": "address",
          "name": "exclusiveRelayer",
          "type": "address"
        },
        {
          "indexed": false,
          "internalType": "bytes",
          "name": "message",
          "type": "bytes"
        }
      ],
      "name": "V3FundsDeposited",
      "type": "event"
    },
    {
      "inputs": [],
      "name": "EMPTY_RELAYER",
      "outputs": [
        {
          "internalType": "address",
          "name": "",
          "type": "address"
        }
      ],
      "stateMutability": "view",
      "type": "function"
    },
    {
      "inputs": [],
      "name": "EMPTY_REPAYMENT_CHAIN_ID",
      "outputs": [
        {
          "internalType": "uint256",
          "name": "",
          "type": "uint256"
        }
      ],
      "stateMutability": "view",
      "type": "function"
    },
    {
      "inputs": [],
      "name": "INFINITE_FILL_DEADLINE",
      "outputs": [
        {
          "internalType": "uint32",
          "name": "",
          "type": "uint32"
        }
      ],
      "stateMutability": "view",
      "type": "function"
    },
    {
      "inputs": [],
      "name": "MAX_TRANSFER_SIZE",
      "outputs": [
        {
          "internalType": "uint256",
          "name": "",
          "type": "uint256"
        }
      ],
      "stateMutability": "view",
      "type": "function"
    },
    {
      "inputs": [],
      "name": "SLOW_FILL_MAX_TOKENS_TO_SEND",
      "outputs": [
        {
          "internalType": "uint256",
          "name": "",
          "type": "uint256"
        }
      ],
      "stateMutability": "view",
      "type": "function"
    },
    {
      "inputs": [],
      "name": "UPDATE_DEPOSIT_DETAILS_HASH",
      "outputs": [
        {
          "internalType": "bytes32",
          "name": "",
          "type": "bytes32"
        }
      ],
      "stateMutability": "view",
      "type": "function"
    },
    {
      "inputs": [],
      "name": "UPDATE_V3_DEPOSIT_DETAILS_HASH",
      "outputs": [
        {
          "internalType": "bytes32",
          "name": "",
          "type": "bytes32"
        }
      ],
      "stateMutability": "view",
      "type": "function"
    },
    {
      "inputs": [
        {
          "internalType": "uint32",
          "name": "_initialDepositId",
          "type": "uint32"
        },
        {
          "internalType": "address",
          "name": "_crossDomainAdmin",
          "type": "address"
        },
        {
          "internalType": "address",
          "name": "_hubPool",
          "type": "address"
        }
      ],
      "name": "__SpokePool_init",
      "outputs": [],
      "stateMutability": "nonpayable",
      "type": "function"
    },
    {
      "inputs": [],
      "name": "chainId",
      "outputs": [
        {
          "internalType": "uint256",
          "name": "",
          "type": "uint256"
        }
      ],
      "stateMutability": "view",
      "type": "function"
    },
    {
      "inputs": [],
      "name": "crossDomainAdmin",
      "outputs": [
        {
          "internalType": "address",
          "name": "",
          "type": "address"
        }
      ],
      "stateMutability": "view",
      "type": "function"
    },
    {
      "inputs": [
        {
          "internalType": "address",
          "name": "recipient",
          "type": "address"
        },
        {
          "internalType": "address",
          "name": "originToken",
          "type": "address"
        },
        {
          "internalType": "uint256",
          "name": "amount",
          "type": "uint256"
        },
        {
          "internalType": "uint256",
          "name": "destinationChainId",
          "type": "uint256"
        },
        {
          "internalType": "int64",
          "name": "relayerFeePct",
          "type": "int64"
        },
        {
          "internalType": "uint32",
          "name": "quoteTimestamp",
          "type": "uint32"
        },
        {
          "internalType": "bytes",
          "name": "message",
          "type": "bytes"
        },
        {
          "internalType": "uint256",
          "name": "",
          "type": "uint256"
        }
      ],
      "name": "deposit",
      "outputs": [],
      "stateMutability": "payable",
      "type": "function"
    },
    {
      "inputs": [
        {
          "internalType": "address",
          "name": "depositor",
          "type": "address"
        },
        {
          "internalType": "address",
          "name": "recipient",
          "type": "address"
        },
        {
          "internalType": "address",
          "name": "originToken",
          "type": "address"
        },
        {
          "internalType": "uint256",
          "name": "amount",
          "type": "uint256"
        },
        {
          "internalType": "uint256",
          "name": "destinationChainId",
          "type": "uint256"
        },
        {
          "internalType": "int64",
          "name": "relayerFeePct",
          "type": "int64"
        },
        {
          "internalType": "uint32",
          "name": "quoteTimestamp",
          "type": "uint32"
        },
        {
          "internalType": "bytes",
          "name": "message",
          "type": "bytes"
        },
        {
          "internalType": "uint256",
          "name": "",
          "type": "uint256"
        }
      ],
      "name": "depositFor",
      "outputs": [],
      "stateMutability": "payable",
      "type": "function"
    },
    {
      "inputs": [
        {
          "internalType": "address",
          "name": "depositor",
          "type": "address"
        },
        {
          "internalType": "address",
          "name": "recipient",
          "type": "address"
        },
        {
          "internalType": "address",
          "name": "originToken",
          "type": "address"
        },
        {
          "internalType": "uint256",
          "name": "amount",
          "type": "uint256"
        },
        {
          "internalType": "uint256",
          "name": "destinationChainId",
          "type": "uint256"
        },
        {
          "internalType": "int64",
          "name": "relayerFeePct",
          "type": "int64"
        },
        {
          "internalType": "bytes",
          "name": "message",
          "type": "bytes"
        },
        {
          "internalType": "uint256",
          "name": "maxCount",
          "type": "uint256"
        }
      ],
      "name": "depositForNow",
      "outputs": [],
      "stateMutability": "payable",
      "type": "function"
    },
    {
      "inputs": [
        {
          "internalType": "address",
          "name": "recipient",
          "type": "address"
        },
        {
          "internalType": "address",
          "name": "originToken",
          "type": "address"
        },
        {
          "internalType": "uint256",
          "name": "amount",
          "type": "uint256"
        },
        {
          "internalType": "uint256",
          "name": "destinationChainId",
          "type": "uint256"
        },
        {
          "internalType": "int64",
          "name": "relayerFeePct",
          "type": "int64"
        },
        {
          "internalType": "bytes",
          "name": "message",
          "type": "bytes"
        },
        {
          "internalType": "uint256",
          "name": "maxCount",
          "type": "uint256"
        }
      ],
      "name": "depositNow",
      "outputs": [],
      "stateMutability": "payable",
      "type": "function"
    },
    {
      "inputs": [],
      "name": "depositQuoteTimeBuffer",
      "outputs": [
        {
          "internalType": "uint32",
          "name": "",
          "type": "uint32"
        }
      ],
      "stateMutability": "view",
      "type": "function"
    },
    {
      "inputs": [
        {
          "internalType": "address",
          "name": "recipient",
          "type": "address"
        },
        {
          "internalType": "address",
          "name": "originToken",
          "type": "address"
        },
        {
          "internalType": "uint256",
          "name": "amount",
          "type": "uint256"
        },
        {
          "internalType": "uint256",
          "name": "destinationChainId",
          "type": "uint256"
        },
        {
          "internalType": "int64",
          "name": "relayerFeePct",
          "type": "int64"
        },
        {
          "internalType": "uint32",
          "name": "quoteTimestamp",
          "type": "uint32"
        },
        {
          "internalType": "bytes",
          "name": "message",
          "type": "bytes"
        },
        {
          "internalType": "uint256",
          "name": "",
          "type": "uint256"
        }
      ],
      "name": "depositV2",
      "outputs": [],
      "stateMutability": "payable",
      "type": "function"
    },
    {
      "inputs": [
        {
          "internalType": "address",
          "name": "depositor",
          "type": "address"
        },
        {
          "internalType": "address",
          "name": "recipient",
          "type": "address"
        },
        {
          "internalType": "address",
          "name": "inputToken",
          "type": "address"
        },
        {
          "internalType": "address",
          "name": "outputToken",
          "type": "address"
        },
        {
          "internalType": "uint256",
          "name": "inputAmount",
          "type": "uint256"
        },
        {
          "internalType": "uint256",
          "name": "outputAmount",
          "type": "uint256"
        },
        {
          "internalType": "uint256",
          "name": "destinationChainId",
          "type": "uint256"
        },
        {
          "internalType": "address",
          "name": "exclusiveRelayer",
          "type": "address"
        },
        {
          "internalType": "uint32",
          "name": "quoteTimestamp",
          "type": "uint32"
        },
        {
          "internalType": "uint32",
          "name": "fillDeadline",
          "type": "uint32"
        },
        {
          "internalType": "uint32",
          "name": "exclusivityDeadline",
          "type": "uint32"
        },
        {
          "internalType": "bytes",
          "name": "message",
          "type": "bytes"
        }
      ],
      "name": "depositV3",
      "outputs": [],
      "stateMutability": "payable",
      "type": "function"
    },
    {
      "inputs": [
        {
          "internalType": "uint256",
          "name": "rootBundleId",
          "type": "uint256"
        }
      ],
      "name": "emergencyDeleteRootBundle",
      "outputs": [],
      "stateMutability": "nonpayable",
      "type": "function"
    },
    {
      "inputs": [
        {
          "internalType": "address",
          "name": "",
          "type": "address"
        },
        {
          "internalType": "uint256",
          "name": "",
          "type": "uint256"
        }
      ],
      "name": "enabledDepositRoutes",
      "outputs": [
        {
          "internalType": "bool",
          "name": "",
          "type": "bool"
        }
      ],
      "stateMutability": "view",
      "type": "function"
    },
    {
      "inputs": [
        {
          "internalType": "uint32",
          "name": "rootBundleId",
          "type": "uint32"
        },
        {
          "components": [
            {
              "internalType": "uint256",
              "name": "amountToReturn",
              "type": "uint256"
            },
            {
              "internalType": "uint256",
              "name": "chainId",
              "type": "uint256"
            },
            {
              "internalType": "uint256[]",
              "name": "refundAmounts",
              "type": "uint256[]"
            },
            {
              "internalType": "uint32",
              "name": "leafId",
              "type": "uint32"
            },
            {
              "internalType": "address",
              "name": "l2TokenAddress",
              "type": "address"
            },
            {
              "internalType": "address[]",
              "name": "refundAddresses",
              "type": "address[]"
            }
          ],
          "internalType": "struct SpokePoolInterface.RelayerRefundLeaf",
          "name": "relayerRefundLeaf",
          "type": "tuple"
        },
        {
          "internalType": "bytes32[]",
          "name": "proof",
          "type": "bytes32[]"
        }
      ],
      "name": "executeRelayerRefundLeaf",
      "outputs": [],
      "stateMutability": "payable",
      "type": "function"
    },
    {
      "inputs": [
        {
          "internalType": "address",
          "name": "depositor",
          "type": "address"
        },
        {
          "internalType": "address",
          "name": "recipient",
          "type": "address"
        },
        {
          "internalType": "address",
          "name": "destinationToken",
          "type": "address"
        },
        {
          "internalType": "uint256",
          "name": "amount",
          "type": "uint256"
        },
        {
          "internalType": "uint256",
          "name": "originChainId",
          "type": "uint256"
        },
        {
          "internalType": "int64",
          "name": "realizedLpFeePct",
          "type": "int64"
        },
        {
          "internalType": "int64",
          "name": "relayerFeePct",
          "type": "int64"
        },
        {
          "internalType": "uint32",
          "name": "depositId",
          "type": "uint32"
        },
        {
          "internalType": "uint32",
          "name": "rootBundleId",
          "type": "uint32"
        },
        {
          "internalType": "bytes",
          "name": "message",
          "type": "bytes"
        },
        {
          "internalType": "int256",
          "name": "payoutAdjustment",
          "type": "int256"
        },
        {
          "internalType": "bytes32[]",
          "name": "proof",
          "type": "bytes32[]"
        }
      ],
      "name": "executeSlowRelayLeaf",
      "outputs": [],
      "stateMutability": "nonpayable",
      "type": "function"
    },
    {
      "inputs": [
        {
          "components": [
            {
              "components": [
                {
                  "internalType": "address",
                  "name": "depositor",
                  "type": "address"
                },
                {
                  "internalType": "address",
                  "name": "recipient",
                  "type": "address"
                },
                {
                  "internalType": "address",
                  "name": "exclusiveRelayer",
                  "type": "address"
                },
                {
                  "internalType": "address",
                  "name": "inputToken",
                  "type": "address"
                },
                {
                  "internalType": "address",
                  "name": "outputToken",
                  "type": "address"
                },
                {
                  "internalType": "uint256",
                  "name": "inputAmount",
                  "type": "uint256"
                },
                {
                  "internalType": "uint256",
                  "name": "outputAmount",
                  "type": "uint256"
                },
                {
                  "internalType": "uint256",
                  "name": "originChainId",
                  "type": "uint256"
                },
                {
                  "internalType": "uint32",
                  "name": "depositId",
                  "type": "uint32"
                },
                {
                  "internalType": "uint32",
                  "name": "fillDeadline",
                  "type": "uint32"
                },
                {
                  "internalType": "uint32",
                  "name": "exclusivityDeadline",
                  "type": "uint32"
                },
                {
                  "internalType": "bytes",
                  "name": "message",
                  "type": "bytes"
                }
              ],
              "internalType": "struct V3SpokePoolInterface.V3RelayData",
              "name": "relayData",
              "type": "tuple"
            },
            {
              "internalType": "uint256",
              "name": "chainId",
              "type": "uint256"
            },
            {
              "internalType": "uint256",
              "name": "updatedOutputAmount",
              "type": "uint256"
            }
          ],
          "internalType": "struct V3SpokePoolInterface.V3SlowFill",
          "name": "slowFillLeaf",
          "type": "tuple"
        },
        {
          "internalType": "uint32",
          "name": "rootBundleId",
          "type": "uint32"
        },
        {
          "internalType": "bytes32[]",
          "name": "proof",
          "type": "bytes32[]"
        }
      ],
      "name": "executeV3SlowRelayLeaf",
      "outputs": [],
      "stateMutability": "nonpayable",
      "type": "function"
    },
    {
      "inputs": [],
      "name": "fillDeadlineBuffer",
      "outputs": [
        {
          "internalType": "uint32",
          "name": "",
          "type": "uint32"
        }
      ],
      "stateMutability": "view",
      "type": "function"
    },
    {
      "inputs": [
        {
          "internalType": "address",
          "name": "depositor",
          "type": "address"
        },
        {
          "internalType": "address",
          "name": "recipient",
          "type": "address"
        },
        {
          "internalType": "address",
          "name": "destinationToken",
          "type": "address"
        },
        {
          "internalType": "uint256",
          "name": "amount",
          "type": "uint256"
        },
        {
          "internalType": "uint256",
          "name": "maxTokensToSend",
          "type": "uint256"
        },
        {
          "internalType": "uint256",
          "name": "repaymentChainId",
          "type": "uint256"
        },
        {
          "internalType": "uint256",
          "name": "originChainId",
          "type": "uint256"
        },
        {
          "internalType": "int64",
          "name": "realizedLpFeePct",
          "type": "int64"
        },
        {
          "internalType": "int64",
          "name": "relayerFeePct",
          "type": "int64"
        },
        {
          "internalType": "uint32",
          "name": "depositId",
          "type": "uint32"
        },
        {
          "internalType": "bytes",
          "name": "message",
          "type": "bytes"
        },
        {
          "internalType": "uint256",
          "name": "maxCount",
          "type": "uint256"
        }
      ],
      "name": "fillRelay",
      "outputs": [],
      "stateMutability": "nonpayable",
      "type": "function"
    },
    {
      "inputs": [
        {
          "internalType": "address",
          "name": "depositor",
          "type": "address"
        },
        {
          "internalType": "address",
          "name": "recipient",
          "type": "address"
        },
        {
          "internalType": "address",
          "name": "updatedRecipient",
          "type": "address"
        },
        {
          "internalType": "address",
          "name": "destinationToken",
          "type": "address"
        },
        {
          "internalType": "uint256",
          "name": "amount",
          "type": "uint256"
        },
        {
          "internalType": "uint256",
          "name": "maxTokensToSend",
          "type": "uint256"
        },
        {
          "internalType": "uint256",
          "name": "repaymentChainId",
          "type": "uint256"
        },
        {
          "internalType": "uint256",
          "name": "originChainId",
          "type": "uint256"
        },
        {
          "internalType": "int64",
          "name": "realizedLpFeePct",
          "type": "int64"
        },
        {
          "internalType": "int64",
          "name": "relayerFeePct",
          "type": "int64"
        },
        {
          "internalType": "int64",
          "name": "updatedRelayerFeePct",
          "type": "int64"
        },
        {
          "internalType": "uint32",
          "name": "depositId",
          "type": "uint32"
        },
        {
          "internalType": "bytes",
          "name": "message",
          "type": "bytes"
        },
        {
          "internalType": "bytes",
          "name": "updatedMessage",
          "type": "bytes"
        },
        {
          "internalType": "bytes",
          "name": "depositorSignature",
          "type": "bytes"
        },
        {
          "internalType": "uint256",
          "name": "maxCount",
          "type": "uint256"
        }
      ],
      "name": "fillRelayWithUpdatedDeposit",
      "outputs": [],
      "stateMutability": "nonpayable",
      "type": "function"
    },
    {
      "inputs": [
        {
          "internalType": "bytes32",
          "name": "",
          "type": "bytes32"
        }
      ],
      "name": "fillStatuses",
      "outputs": [
        {
          "internalType": "uint256",
          "name": "",
          "type": "uint256"
        }
      ],
      "stateMutability": "view",
      "type": "function"
    },
    {
      "inputs": [
        {
          "components": [
            {
              "internalType": "address",
              "name": "depositor",
              "type": "address"
            },
            {
              "internalType": "address",
              "name": "recipient",
              "type": "address"
            },
            {
              "internalType": "address",
              "name": "exclusiveRelayer",
              "type": "address"
            },
            {
              "internalType": "address",
              "name": "inputToken",
              "type": "address"
            },
            {
              "internalType": "address",
              "name": "outputToken",
              "type": "address"
            },
            {
              "internalType": "uint256",
              "name": "inputAmount",
              "type": "uint256"
            },
            {
              "internalType": "uint256",
              "name": "outputAmount",
              "type": "uint256"
            },
            {
              "internalType": "uint256",
              "name": "originChainId",
              "type": "uint256"
            },
            {
              "internalType": "uint32",
              "name": "depositId",
              "type": "uint32"
            },
            {
              "internalType": "uint32",
              "name": "fillDeadline",
              "type": "uint32"
            },
            {
              "internalType": "uint32",
              "name": "exclusivityDeadline",
              "type": "uint32"
            },
            {
              "internalType": "bytes",
              "name": "message",
              "type": "bytes"
            }
          ],
          "internalType": "struct V3SpokePoolInterface.V3RelayData",
          "name": "relayData",
          "type": "tuple"
        },
        {
          "internalType": "uint256",
          "name": "repaymentChainId",
          "type": "uint256"
        }
      ],
      "name": "fillV3Relay",
      "outputs": [],
      "stateMutability": "nonpayable",
      "type": "function"
    },
    {
      "inputs": [
        {
          "components": [
            {
              "internalType": "address",
              "name": "depositor",
              "type": "address"
            },
            {
              "internalType": "address",
              "name": "recipient",
              "type": "address"
            },
            {
              "internalType": "address",
              "name": "exclusiveRelayer",
              "type": "address"
            },
            {
              "internalType": "address",
              "name": "inputToken",
              "type": "address"
            },
            {
              "internalType": "address",
              "name": "outputToken",
              "type": "address"
            },
            {
              "internalType": "uint256",
              "name": "inputAmount",
              "type": "uint256"
            },
            {
              "internalType": "uint256",
              "name": "outputAmount",
              "type": "uint256"
            },
            {
              "internalType": "uint256",
              "name": "originChainId",
              "type": "uint256"
            },
            {
              "internalType": "uint32",
              "name": "depositId",
              "type": "uint32"
            },
            {
              "internalType": "uint32",
              "name": "fillDeadline",
              "type": "uint32"
            },
            {
              "internalType": "uint32",
              "name": "exclusivityDeadline",
              "type": "uint32"
            },
            {
              "internalType": "bytes",
              "name": "message",
              "type": "bytes"
            }
          ],
          "internalType": "struct V3SpokePoolInterface.V3RelayData",
          "name": "relayData",
          "type": "tuple"
        },
        {
          "internalType": "uint256",
          "name": "repaymentChainId",
          "type": "uint256"
        },
        {
          "internalType": "uint256",
          "name": "updatedOutputAmount",
          "type": "uint256"
        },
        {
          "internalType": "address",
          "name": "updatedRecipient",
          "type": "address"
        },
        {
          "internalType": "bytes",
          "name": "updatedMessage",
          "type": "bytes"
        },
        {
          "internalType": "bytes",
          "name": "depositorSignature",
          "type": "bytes"
        }
      ],
      "name": "fillV3RelayWithUpdatedDeposit",
      "outputs": [],
      "stateMutability": "nonpayable",
      "type": "function"
    },
    {
      "inputs": [],
      "name": "getCurrentTime",
      "outputs": [
        {
          "internalType": "uint256",
          "name": "",
          "type": "uint256"
        }
      ],
      "stateMutability": "view",
      "type": "function"
    },
    {
      "inputs": [],
      "name": "hubPool",
      "outputs": [
        {
          "internalType": "address",
          "name": "",
          "type": "address"
        }
      ],
      "stateMutability": "view",
      "type": "function"
    },
    {
      "inputs": [
        {
          "internalType": "uint32",
          "name": "_initialDepositId",
          "type": "uint32"
        },
        {
          "internalType": "address",
          "name": "_hubPool",
          "type": "address"
        }
      ],
      "name": "initialize",
      "outputs": [],
      "stateMutability": "nonpayable",
      "type": "function"
    },
    {
      "inputs": [
        {
          "internalType": "bytes[]",
          "name": "data",
          "type": "bytes[]"
        }
      ],
      "name": "multicall",
      "outputs": [
        {
          "internalType": "bytes[]",
          "name": "results",
          "type": "bytes[]"
        }
      ],
      "stateMutability": "nonpayable",
      "type": "function"
    },
    {
      "inputs": [],
      "name": "numberOfDeposits",
      "outputs": [
        {
          "internalType": "uint32",
          "name": "",
          "type": "uint32"
        }
      ],
      "stateMutability": "view",
      "type": "function"
    },
    {
      "inputs": [],
      "name": "owner",
      "outputs": [
        {
          "internalType": "address",
          "name": "",
          "type": "address"
        }
      ],
      "stateMutability": "view",
      "type": "function"
    },
    {
      "inputs": [
        {
          "internalType": "bool",
          "name": "pause",
          "type": "bool"
        }
      ],
      "name": "pauseDeposits",
      "outputs": [],
      "stateMutability": "nonpayable",
      "type": "function"
    },
    {
      "inputs": [
        {
          "internalType": "bool",
          "name": "pause",
          "type": "bool"
        }
      ],
      "name": "pauseFills",
      "outputs": [],
      "stateMutability": "nonpayable",
      "type": "function"
    },
    {
      "inputs": [],
      "name": "pausedDeposits",
      "outputs": [
        {
          "internalType": "bool",
          "name": "",
          "type": "bool"
        }
      ],
      "stateMutability": "view",
      "type": "function"
    },
    {
      "inputs": [],
      "name": "pausedFills",
      "outputs": [
        {
          "internalType": "bool",
          "name": "",
          "type": "bool"
        }
      ],
      "stateMutability": "view",
      "type": "function"
    },
    {
      "inputs": [],
      "name": "proxiableUUID",
      "outputs": [
        {
          "internalType": "bytes32",
          "name": "",
          "type": "bytes32"
        }
      ],
      "stateMutability": "view",
      "type": "function"
    },
    {
      "inputs": [
        {
          "internalType": "bytes32",
          "name": "relayerRefundRoot",
          "type": "bytes32"
        },
        {
          "internalType": "bytes32",
          "name": "slowRelayRoot",
          "type": "bytes32"
        }
      ],
      "name": "relayRootBundle",
      "outputs": [],
      "stateMutability": "nonpayable",
      "type": "function"
    },
    {
      "inputs": [],
      "name": "renounceOwnership",
      "outputs": [],
      "stateMutability": "nonpayable",
      "type": "function"
    },
    {
      "inputs": [
        {
          "components": [
            {
              "internalType": "address",
              "name": "depositor",
              "type": "address"
            },
            {
              "internalType": "address",
              "name": "recipient",
              "type": "address"
            },
            {
              "internalType": "address",
              "name": "exclusiveRelayer",
              "type": "address"
            },
            {
              "internalType": "address",
              "name": "inputToken",
              "type": "address"
            },
            {
              "internalType": "address",
              "name": "outputToken",
              "type": "address"
            },
            {
              "internalType": "uint256",
              "name": "inputAmount",
              "type": "uint256"
            },
            {
              "internalType": "uint256",
              "name": "outputAmount",
              "type": "uint256"
            },
            {
              "internalType": "uint256",
              "name": "originChainId",
              "type": "uint256"
            },
            {
              "internalType": "uint32",
              "name": "depositId",
              "type": "uint32"
            },
            {
              "internalType": "uint32",
              "name": "fillDeadline",
              "type": "uint32"
            },
            {
              "internalType": "uint32",
              "name": "exclusivityDeadline",
              "type": "uint32"
            },
            {
              "internalType": "bytes",
              "name": "message",
              "type": "bytes"
            }
          ],
          "internalType": "struct V3SpokePoolInterface.V3RelayData",
          "name": "relayData",
          "type": "tuple"
        }
      ],
      "name": "requestV3SlowFill",
      "outputs": [],
      "stateMutability": "nonpayable",
      "type": "function"
    },
    {
      "inputs": [
        {
          "internalType": "uint256",
          "name": "",
          "type": "uint256"
        }
      ],
      "name": "rootBundles",
      "outputs": [
        {
          "internalType": "bytes32",
          "name": "slowRelayRoot",
          "type": "bytes32"
        },
        {
          "internalType": "bytes32",
          "name": "relayerRefundRoot",
          "type": "bytes32"
        }
      ],
      "stateMutability": "view",
      "type": "function"
    },
    {
      "inputs": [
        {
          "internalType": "address",
          "name": "newCrossDomainAdmin",
          "type": "address"
        }
      ],
      "name": "setCrossDomainAdmin",
      "outputs": [],
      "stateMutability": "nonpayable",
      "type": "function"
    },
    {
      "inputs": [
        {
          "internalType": "address",
          "name": "originToken",
          "type": "address"
        },
        {
          "internalType": "uint256",
          "name": "destinationChainId",
          "type": "uint256"
        },
        {
          "internalType": "bool",
          "name": "enabled",
          "type": "bool"
        }
      ],
      "name": "setEnableRoute",
      "outputs": [],
      "stateMutability": "nonpayable",
      "type": "function"
    },
    {
      "inputs": [
        {
          "internalType": "address",
          "name": "newHubPool",
          "type": "address"
        }
      ],
      "name": "setHubPool",
      "outputs": [],
      "stateMutability": "nonpayable",
      "type": "function"
    },
    {
      "inputs": [
        {
          "internalType": "address",
          "name": "depositor",
          "type": "address"
        },
        {
          "internalType": "int64",
          "name": "updatedRelayerFeePct",
          "type": "int64"
        },
        {
          "internalType": "uint32",
          "name": "depositId",
          "type": "uint32"
        },
        {
          "internalType": "address",
          "name": "updatedRecipient",
          "type": "address"
        },
        {
          "internalType": "bytes",
          "name": "updatedMessage",
          "type": "bytes"
        },
        {
          "internalType": "bytes",
          "name": "depositorSignature",
          "type": "bytes"
        }
      ],
      "name": "speedUpDeposit",
      "outputs": [],
      "stateMutability": "nonpayable",
      "type": "function"
    },
    {
      "inputs": [
        {
          "internalType": "address",
          "name": "depositor",
          "type": "address"
        },
        {
          "internalType": "uint32",
          "name": "depositId",
          "type": "uint32"
        },
        {
          "internalType": "uint256",
          "name": "updatedOutputAmount",
          "type": "uint256"
        },
        {
          "internalType": "address",
          "name": "updatedRecipient",
          "type": "address"
        },
        {
          "internalType": "bytes",
          "name": "updatedMessage",
          "type": "bytes"
        },
        {
          "internalType": "bytes",
          "name": "depositorSignature",
          "type": "bytes"
        }
      ],
      "name": "speedUpV3Deposit",
      "outputs": [],
      "stateMutability": "nonpayable",
      "type": "function"
    },
    {
      "inputs": [
        {
          "internalType": "address",
          "name": "newOwner",
          "type": "address"
        }
      ],
      "name": "transferOwnership",
      "outputs": [],
      "stateMutability": "nonpayable",
      "type": "function"
    },
    {
      "inputs": [
        {
          "internalType": "address",
          "name": "newImplementation",
          "type": "address"
        }
      ],
      "name": "upgradeTo",
      "outputs": [],
      "stateMutability": "nonpayable",
      "type": "function"
    },
    {
      "inputs": [
        {
          "internalType": "address",
          "name": "newImplementation",
          "type": "address"
        },
        {
          "internalType": "bytes",
          "name": "data",
          "type": "bytes"
        }
      ],
      "name": "upgradeToAndCall",
      "outputs": [],
      "stateMutability": "payable",
      "type": "function"
    },
    {
      "inputs": [],
      "name": "wrappedNativeToken",
      "outputs": [
        {
          "internalType": "contract WETH9Interface",
          "name": "",
          "type": "address"
        }
      ],
      "stateMutability": "view",
      "type": "function"
    },
    {
      "stateMutability": "payable",
      "type": "receive"
    }
  ],
  "solcInputHash": "bd2e664d3fd0af3860e2b8ca34018725",
  "bytecode": "0x61010034620001bc57601f62005e2538819003918201601f19168301916001600160401b03831184841017620001c057808492606094604052833981010312620001bc5780516001600160a01b0381169190829003620001bc576200007560406200006d60208401620001d4565b9201620001d4565b913060805260a05260c05260e0525f5460ff8160081c16620001675760ff808216036200012c575b604051615c3e9081620001e78239608051818181610d1f0152818161114e0152611340015260a0518181816108a80152818161217201528181612e340152818161398b0152818161419b0152818161445a01528181614ade0152818161548701526154ae015260c0518181816114af01528181612ddb015261393e015260e05181818161038301526130100152f35b60ff90811916175f557f7f26b83ff96e1f2b6a682f133852f6798a09c465da95921460cefb3847402498602060405160ff8152a15f6200009d565b60405162461bcd60e51b815260206004820152602760248201527f496e697469616c697a61626c653a20636f6e747261637420697320696e697469604482015266616c697a696e6760c81b6064820152608490fd5b5f80fd5b634e487b7160e01b5f52604160045260245ffd5b519063ffffffff82168203620001bc5756fe6080604052600436101561001a575b3615610018575f80fd5b005b5f3560e01c8063079bd2c7146103545780630c2097f71461034f5780631186ec331461034a57806315348e44146102e657806317fcb39b146103455780631b3d5559146103405780631dfb2d021461033b578063272751c71461033657806329cb924d146103315780632cfc26c51461032c5780632e378115146103275780633659cfe61461032257806344b8be681461031d578063493a4f84146103185780634e0fb8f5146103135780634f1ef2861461030e5780635249fef1146103095780635285e0581461030457806352d1902d146102ff578063541f4f14146102fa57806357f6dcb8146102f55780635ceaec32146102f05780636068d6cb146102eb5780636bbbcd2e146102e6578063715018a6146102e1578063738b62e5146102dc5780637b939232146102d75780637e688bba146102d25780638624c35c146102cd5780638a7860ce146102c85780638da5cb5b146102c3578063979f2bc2146102be5780639963e5a8146102b957806399cc2968146102b45780639a8a0592146102af578063a1244c67146102aa578063a78e4b60146102a5578063ac9650d8146102a0578063ae527fbb1461029b578063b5e1bf5f14610296578063bbca7db014610291578063bdcb53a51461028c578063c35c83fc14610287578063ccfa597114610282578063ceb4c9871461027d578063dda5211314610278578063ddd224f114610273578063de7eba781461026e578063e190440214610269578063ee2a53f814610264578063f2fde38b1461025f5763fd7c10540361000e5761252b565b612484565b612446565b6123cc565b61239c565b612373565b61234d565b61232f565b6122ac565b612281565b612121565b612021565b611ff6565b611f73565b611e92565b611d7e565b611d57565b611d3d565b611c8f565b611a86565b611991565b61196a565b6118f2565b611800565b611778565b6116d0565b611621565b6115c6565b61086f565b6115a0565b6114d3565b611493565b6113ff565b611326565b6112ff565b6112b1565b611109565b610fef565b610f3a565b610ea6565b610cf6565b610baf565b610b66565b610b4c565b610aad565b610a6e565b610996565b610889565b610833565b61071e565b610367565b5f91031261036357565b5f80fd5b34610363575f36600319011261036357602060405163ffffffff7f0000000000000000000000000000000000000000000000000000000000000000168152f35b6001600160a01b0381160361036357565b600435906103c5826103a7565b565b602435906103c5826103a7565b604435906103c5826103a7565b606435906103c5826103a7565b35906103c5826103a7565b60a435908160070b820361036357565b60c435908160070b820361036357565b61010435908160070b820361036357565b61012435908160070b820361036357565b61014435908160070b820361036357565b608435908160070b820361036357565b63ffffffff81160361036357565b60e435906103c58261045c565b61010435906103c58261045c565b61012435906103c58261045c565b61016435906103c58261045c565b61014435906103c58261045c565b35906103c58261045c565b634e487b7160e01b5f52604160045260245ffd5b67ffffffffffffffff81116104e257604052565b6104ba565b6060810190811067ffffffffffffffff8211176104e257604052565b6080810190811067ffffffffffffffff8211176104e257604052565b60a0810190811067ffffffffffffffff8211176104e257604052565b6020810190811067ffffffffffffffff8211176104e257604052565b6040810190811067ffffffffffffffff8211176104e257604052565b60e0810190811067ffffffffffffffff8211176104e257604052565b90601f8019910116810190811067ffffffffffffffff8211176104e257604052565b6040519060c0820182811067ffffffffffffffff8211176104e257604052565b60405190610140820182811067ffffffffffffffff8211176104e257604052565b60405190610180820182811067ffffffffffffffff8211176104e257604052565b604051906103c582610503565b604051906103c58261051f565b67ffffffffffffffff81116104e257601f01601f191660200190565b9291926106558261062d565b91610663604051938461058f565b829481845281830111610363578281602093845f960137010152565b9080601f830112156103635781602061069a93359101610649565b90565b67ffffffffffffffff81116104e25760051b60200190565b92916106c08261069d565b916106ce604051938461058f565b829481845260208094019160051b810192831161036357905b8282106106f45750505050565b813581529083019083016106e7565b9080601f830112156103635781602061069a933591016106b5565b34610363576101803660031901126103635760043561073c816103a7565b6107446103c7565b9061074d6103d4565b6107556103f9565b9261075e610409565b61076661046a565b61076e610477565b91610124359667ffffffffffffffff978881116103635761079390369060040161067f565b9461016435988911610363576107b0610018993690600401610703565b97610144359760843592606435926125ba565b610100600319820112610363576004356107dc816103a7565b916024356107e9816103a7565b9160443591606435916084358060070b8103610363579160a43561080c8161045c565b9160c4359067ffffffffffffffff82116103635761082c9160040161067f565b9060e43590565b61086861083f366107c3565b509561084f9591959492946136cc565b61086260ff61086b5460e81c16156126c9565b336138ab565b6001606555005b34610363575f3660031901126103635760206040515f8152f35b34610363575f3660031901126103635760206040516001600160a01b037f0000000000000000000000000000000000000000000000000000000000000000168152f35b9080601f830112156103635760209082356108e68161069d565b936108f4604051958661058f565b81855260208086019260051b82010192831161036357602001905b82821061091d575050505090565b8135815290830190830161090f565b9080601f830112156103635760209082356109468161069d565b93610954604051958661058f565b81855260208086019260051b82010192831161036357602001905b82821061097d575050505090565b838091833561098b816103a7565b81520191019061096f565b600319606036820112610363576004356109af8161045c565b60243567ffffffffffffffff928382116103635760c0908236030112610363576109d76105b1565b908060040135825260248101356020830152604481013584811161036357610a0590600436918401016108cc565b6040830152610a16606482016104af565b6060830152610a27608482016103ee565b608083015260a481013590848211610363576004610a48923692010161092c565b60a082015260443592831161036357610a68610018933690600401610703565b91612714565b3461036357602036600319011261036357610868600435610a8e816103a7565b610a96615065565b610a9e6136cc565b613cf6565b8015150361036357565b3461036357606036600319011261036357600435610aca816103a7565b602435907f0a21fdd43d0ad0c62689ee7230a47309a050755bcc52eba00310add65297692a60206001600160a01b0360443593610b0685610aa3565b610b0e615065565b610b166136cc565b1692835f5261086d825260405f20855f52825260405f209015159060ff1981541660ff8316179055604051908152a36001606555005b34610363575f366003190112610363576020604051428152f35b34610363575f3660031901126103635760206040517f152eb71524aef34d838ab76573c14b1ebfa5e385d9ab29d7cf5398daa2438bd98152f35b90816101809103126103635790565b346103635760403660031901126103635760043567ffffffffffffffff811161036357610be0903690600401610ba0565b610be86136cc565b610bfb60ff61086b5460e01c16156128fe565b610c086101408201612949565b63ffffffff429116101580610cd8575b610cae57610ca490610c90610c35610c30368461295d565b613e4e565b9160c0610c89610c4760208401612953565b610c55610160850185612a3d565b939094610c606105b1565b97610c6b368361295d565b89526020890152013560408701526001600160a01b03166060860152565b3691610649565b608082015260243560a08201523390613fa1565b6100186001606555565b60046040517fc3a9b9d0000000000000000000000000000000000000000000000000000000008152fd5b50610ce560408201612953565b6001600160a01b0316331415610c18565b3461036357602036600319011261036357600435610d13816103a7565b6001600160a01b0390817f00000000000000000000000000000000000000000000000000000000000000001691610d4c83301415612a70565b610d7b7f360894a13ba1a3210667c828492db98dca3e2076cc3735a920a3ca505d382bbc938285541614612ae1565b610d83615065565b60405190610d908261053b565b5f82527f4910fdfa16fed3260ed0e7147f7cc6da11a60208b5b9406d12a635614ffd91435460ff1615610dc95750506100189150615715565b6020600491604094939451928380926352d1902d60e01b825286165afa5f9181610e75575b50610e625760405162461bcd60e51b815260206004820152602e60248201527f45524331393637557067726164653a206e657720696d706c656d656e7461746960448201527f6f6e206973206e6f7420555550530000000000000000000000000000000000006064820152608490fd5b0390fd5b61001893610e709114614561565b6155f4565b610e9891925060203d602011610e9f575b610e90818361058f565b810190614552565b905f610dee565b503d610e86565b346103635761018036600319011261036357600435610ec4816103a7565b602435610ed0816103a7565b604435610edc816103a7565b60e4358060070b810361036357610ef1610419565b610ef9610485565b91610144359567ffffffffffffffff871161036357610f1f61001897369060040161067f565b94610164359660c4359260a435926084359260643592612b52565b3461036357604036600319011261036357602435600435610f59615065565b610f616136cc565b61086c8054680100000000000000008110156104e25763ffffffff9160018201905583610f8d82612407565b5084600182015555167fc86ba04c55bc5eb2f2876b91c438849a296dbec7b08751c3074d92e04f0a77af5f80a46001606555005b9181601f840112156103635782359167ffffffffffffffff8311610363576020838186019501011161036357565b346103635760c03660031901126103635760043561100c816103a7565b602435906110198261045c565b604435606435611028816103a7565b67ffffffffffffffff916084358381116103635761104a903690600401610fc1565b93909460a435918211610363576110ed63ffffffff7fb0a29aed3d389a1041194255878b423f7780be3ed2324d4693508c6ff189845e966110926110ff953690600401610fc1565b93909961109d6136cc565b6110c48c8c8b8b6110bb6110b2368a89610649565b938b3691610649565b9346908c614f6a565b6001600160a01b0392836040519a8b9a8b521660208a0152608060408a01526080890191612c4c565b93868503606088015216981696612c4c565b0390a36001606555005b604036600319011261036357600435611121816103a7565b60243567ffffffffffffffff81116103635761114190369060040161067f565b906001600160a01b0391827f0000000000000000000000000000000000000000000000000000000000000000169261117b84301415612a70565b6111aa7f360894a13ba1a3210667c828492db98dca3e2076cc3735a920a3ca505d382bbc948286541614612ae1565b6111b2615065565b7f4910fdfa16fed3260ed0e7147f7cc6da11a60208b5b9406d12a635614ffd91435460ff16156111e85750506100189150615715565b6020600491604094939451928380926352d1902d60e01b825286165afa5f9181611290575b5061127d5760405162461bcd60e51b815260206004820152602e60248201527f45524331393637557067726164653a206e657720696d706c656d656e7461746960448201527f6f6e206973206e6f7420555550530000000000000000000000000000000000006064820152608490fd5b6100189361128b9114614561565b6156c3565b6112aa91925060203d602011610e9f57610e90818361058f565b905f61120d565b34610363576040366003190112610363576001600160a01b036004356112d6816103a7565b165f5261086d60205260405f206024355f52602052602060ff60405f2054166040519015158152f35b34610363575f3660031901126103635760206001600160a01b036108695416604051908152f35b34610363575f366003190112610363576001600160a01b037f0000000000000000000000000000000000000000000000000000000000000000163003611395576040517f360894a13ba1a3210667c828492db98dca3e2076cc3735a920a3ca505d382bbc8152602090f35b0390f35b608460405162461bcd60e51b815260206004820152603860248201527f555550535570677261646561626c653a206d757374206e6f742062652063616c60448201527f6c6564207468726f7567682064656c656761746563616c6c00000000000000006064820152fd5b61012036600319011261036357600435611418816103a7565b602435611424816103a7565b60443590611431826103a7565b6114396103f9565b60c435916114468361045c565b60e4359467ffffffffffffffff86116103635761146a61086896369060040161067f565b946114736136cc565b61148660ff61086b5460e81c16156126c9565b60843592606435926138ab565b34610363575f36600319011261036357602060405163ffffffff7f0000000000000000000000000000000000000000000000000000000000000000168152f35b3461036357610200366003190112610363576114ed6103b8565b6114f56103c7565b906114fe6103d4565b916115076103e1565b92611510610419565b9361151961042a565b61152161043b565b611529610493565b91610184359767ffffffffffffffff988981116103635761154e90369060040161067f565b946101a4358a81116103635761156890369060040161067f565b966101c4359a8b11610363576115856100189b369060040161067f565b986101e4359a60e4359360c4359360a4359360843593612c6c565b34610363575f36600319011261036357602060ff61086b5460e81c166040519015158152f35b34610363575f366003190112610363576115de615065565b5f6001600160a01b03610c8c8054906001600160a01b031982169055167f8be0079c531659141344cd1fd0a4f28419497f9722a3daafe3b4186f6b6457e08280a3005b34610363576020366003190112610363577fe88463c2f254e2b070013a2dc7ee1e099f9bc00534cbdf03af551dc26ae49219602060043561166181610aa3565b611669615065565b6116716136cc565b151561086b80547fffff00ffffffffffffffffffffffffffffffffffffffffffffffffffffffffff7dff00000000000000000000000000000000000000000000000000000000008460e81b169116179055604051908152a16001606555005b610180366003190112610363576004356116e9816103a7565b602435906116f6826103a7565b604435611702816103a7565b6064359061170f826103a7565b60e43561171b816103a7565b610104356117288161045c565b61012435916117368361045c565b61173e6104a1565b93610164359767ffffffffffffffff891161036357611764610018993690600401610fc1565b98909760c4359360a4359360843593612d68565b346103635760c036600319011261036357600435611795816103a7565b602435908160070b820361036357604435916117b08361045c565b6064356117bc816103a7565b67ffffffffffffffff93608435858111610363576117de90369060040161067f565b9260a435958611610363576117fa61001896369060040161067f565b9461314d565b346103635760403660031901126103635760043561181d8161045c565b61186a60243561182c816103a7565b5f549261185060ff8560081c1615809581966118e4575b81156118c4575b50613244565b83611861600160ff195f5416175f55565b6118ad576132b5565b61187057005b61187e61ff00195f54165f55565b604051600181527f7f26b83ff96e1f2b6a682f133852f6798a09c465da95921460cefb384740249890602090a1005b6118bf61010061ff00195f5416175f55565b6132b5565b303b159150816118d6575b505f61184a565b6001915060ff16145f6118cf565b600160ff8216109150611843565b346103635760203660031901126103635760043561190e615065565b6119166136cc565b61191f81612407565b611957576001815f80935501557f3569b846531b754c99cb80df3f49cd72fa6fe106aaee5ab8e0caf35a9d7ce88d5f80a26001606555005b634e487b7160e01b5f525f60045260245ffd5b34610363575f3660031901126103635760206001600160a01b03610c8c5416604051908152f35b34610363576060366003190112610363576100186004356119b18161045c565b610a9e6024356119c0816103a7565b611a03604435936119d0856103a7565b6119e060ff5f5460081c1661335c565b61086b9063ffffffff60c01b1963ffffffff60c01b83549260c01b169116179055565b604051611a0f81610557565b6009815260208101906820a1a927a9a996ab1960b91b825260405191611a3483610557565b600583526020830191640312e302e360dc1b8352611a6160ff5f5460081c16611a5c8161335c565b61335c565b519020915190209061047f5561048055611a79615172565b611a81615182565b61519d565b346103635760203660031901126103635760043567ffffffffffffffff811161036357611ab7903690600401610ba0565b611abf6136cc565b611ad260ff61086b5460e01c16156128fe565b610140810190611ae182612949565b63ffffffff90814291161015611c655761012082019042611b0d611b0484612949565b63ffffffff1690565b10611c3b57611b1f610c30368561295d565b91611b33835f5261087260205260405f2090565b54611c1157611b75611b6f7f923794976d026d6b119735adc163cb71decfc903e17c3dc226c00789593c04e1945f5261087260205260405f2090565b60019055565b611c04611b8460608601612953565b95611b9160808701612953565b95611bb1611bab611ba56101008401612949565b95612949565b92612949565b611bbd60408301612953565b611bc683612953565b90611bd360208501612953565b92611be2610160860186612a3d565b9690956040519a8b9a169d60e08201359d60a060c0840135930135918c6133f0565b0390a36100186001606555565b60046040517f012f9e44000000000000000000000000000000000000000000000000000000008152fd5b60046040517fd642b7d9000000000000000000000000000000000000000000000000000000008152fd5b60046040517f09deb9ec000000000000000000000000000000000000000000000000000000008152fd5b34610363576020366003190112610363577f2d5b62420992e5a4afce0e77742636ca2608ef58289fd2e1baa5161ef6e7e41e6020600435611ccf81610aa3565b611cd7615065565b611cdf6136cc565b151561086b80547fffffff00ffffffffffffffffffffffffffffffffffffffffffffffffffffffff7cff000000000000000000000000000000000000000000000000000000008460e01b169116179055604051908152a16001606555005b34610363575f366003190112610363576020604051468152f35b34610363575f36600319011261036357602063ffffffff61086b5460c01c16604051908152f35b34610363575f3660031901126103635760206040517f0e058f05b73c62ee68329d2c67c067aaae9a06503cc306378d144d0f0177882b8152f35b9181601f840112156103635782359167ffffffffffffffff8311610363576020808501948460051b01011161036357565b5f5b838110611dfa5750505f910152565b8181015183820152602001611deb565b90602091611e2381518092818552858086019101611de9565b601f01601f1916010190565b6020808201906020835283518092526040830192602060408460051b8301019501935f915b848310611e645750505050505090565b9091929394958480611e82600193603f198682030187528a51611e0a565b9801930193019194939290611e54565b34610363576020366003190112610363576004803567ffffffffffffffff811161036357611ec4903690600401611db8565b91611ece83613458565b925f5b818110611ee657604051806113918782611e2f565b5f80611ef38385886134a1565b60409391611f058551809381936134bc565b0390305af490611f136134c9565b9115611f3a575090600191611f288288613568565b52611f338187613568565b5001611ed1565b8482604481511061036357611f5e8183610e5e9301516024809183010191016134f8565b925192839262461bcd60e51b84528301613557565b60e036600319011261036357600435611f8b816103a7565b602435611f97816103a7565b611f9f61044c565b9160a4359267ffffffffffffffff841161036357611fc461086894369060040161067f565b92611fcd6136cc565b611fe060ff61086b5460e81c16156126c9565b63ffffffff4216926064359160443591336138ab565b34610363575f366003190112610363576020604051701d6329f1c35ca4bfabb9f56100000000008152f35b34610363576003196060368201126103635760043567ffffffffffffffff8082116103635760608236039384011261036357602435906120608261045c565b60443590811161036357612078903690600401611db8565b9190936120836136cc565b600484013590610182190181121561036357610ca49461211c936120b0612115936004369189010161295d565b956121036120bd88613e4e565b9160446120d460208b01516001600160a01b031690565b916101608b0151946120e46105b1565b9b8c5260208c0152013560408a01526001600160a01b03166060890152565b60808701525f60a087015236916106b5565b9083615229565b61429b565b61212a366107c3565b509461213b969394969291926136cc565b63ffffffff61086b5461215460ff8260e81c16156126c9565b60c01c16956121656119e0886130d0565b6001600160a01b039488867f00000000000000000000000000000000000000000000000000000000000000001696841687811480612278575b1561223e57506121af90341461357c565b853b15610363575f60049660405197888092630d0e30db60e41b825234905af1928315612239577fafc4df6845a4ab948b492800d3d8a25d538a102a2bc07cd01f1cfa097fddcff69661221394612220575b505b604051958695339b469088613583565b0390a46100186001606555565b8061222d612233926104ce565b80610359565b5f612201565b6130c5565b7fafc4df6845a4ab948b492800d3d8a25d538a102a2bc07cd01f1cfa097fddcff6975061221394916122739130903390615106565b612203565b5034151561219e565b34610363576020366003190112610363576004355f52610872602052602060405f2054604051908152f35b346103635760c03660031901126103635767ffffffffffffffff600435818111610363576122de903690600401610ba0565b606435906122eb826103a7565b60843583811161036357612303903690600401610fc1565b9060a4359485116103635761231f610018953690600401610fc1565b94909360443590602435906135cc565b34610363575f36600319011261036357602060405163ffffffff8152f35b34610363575f36600319011261036357602060ff61086b5460e01c166040519015158152f35b34610363575f3660031901126103635760206040516ec097ce7bc90715b34b9f10000000008152f35b34610363576020366003190112610363576108686004356123bc816103a7565b6123c4615065565b611a816136cc565b34610363575f3660031901126103635760206001600160a01b0361086a5416604051908152f35b634e487b7160e01b5f52603260045260245ffd5b61086c908154811015612441576003915f52027f71cd7344f4eb2efc8e30291f6dbdb44d618ca368ea5425d217c1d604bf26b84d01905f90565b6123f3565b346103635760203660031901126103635760043561086c5481101561036357612470604091612407565b506001815491015482519182526020820152f35b34610363576020366003190112610363576004356124a1816103a7565b6124a9615065565b6001600160a01b038116156124c157610018906150be565b608460405162461bcd60e51b815260206004820152602660248201527f4f776e61626c653a206e6577206f776e657220697320746865207a65726f206160448201527f64647265737300000000000000000000000000000000000000000000000000006064820152fd5b61010036600319011261036357600435612544816103a7565b60243590612551826103a7565b60443561255d816103a7565b6125656103f9565b60c4359367ffffffffffffffff85116103635761258961086895369060040161067f565b936125926136cc565b6125a560ff61086b5460e81c16156126c9565b63ffffffff42169360843592606435926138ab565b9a98959391999694929097996125ce6136cc565b6125d66105d1565b6001600160a01b03909c168c526001600160a01b03891660208d01526001600160a01b031660408c015260608b015260808a01524660a08a015260070b60c089015260070b60e088015263ffffffff16610100878101919091526101209180838901526126416105d1565b9788525f6020890181815260408a01919091526001600160a01b03909516606089015260808801525f60a0880152701d6329f1c35ca4bfabb9f561000000000060c08801525f1960e088015260019087015285015283516126a190614670565b90526126ad91836152b9565b6126b681614924565b6126bf91614e14565b6103c56001606555565b156126d057565b606460405162461bcd60e51b815260206004820152600f60248201527f506175736564206465706f7369747300000000000000000000000000000000006044820152fd5b919061271e6136cc565b60208101918251460361282e5761274661274a9183600161273e88612407565b500154613ad1565b1590565b61281d577ff8bd640004bcec1b89657020f561d0b070cbdf662d0b158db9dccb0a8301bfab606082019261278b612785855163ffffffff1690565b86613b91565b80516128108451926127f56127e760408801976127d78951966127b28c5163ffffffff1690565b9760808401986127c98a516001600160a01b031690565b9160a086019b8c5194613bfe565b5192519751985163ffffffff1690565b93516001600160a01b031690565b935163ffffffff9485604051968796169a1698339386612858565b0390a46103c56001606555565b600460405163582f497d60e11b8152fd5b60046040517f7a47c9a2000000000000000000000000000000000000000000000000000000008152fd5b95949392919060a0870190875260209060a08289015282518091528160c089019301905f5b8181106128ea575050506001600160a01b03809316604088015286820360608801528080855193848152019401925f905b8382106128d15750505050509060806103c5929401906001600160a01b03169052565b84518116865294820194938201936001909101906128ae565b82518552938301939183019160010161287d565b1561290557565b606460405162461bcd60e51b815260206004820152600c60248201527f5061757365642066696c6c7300000000000000000000000000000000000000006044820152fd5b3561069a8161045c565b3561069a816103a7565b919061018083820312610363576129726105f2565b9261297c816103ee565b845261298a602082016103ee565b602085015261299b604082016103ee565b60408501526129ac606082016103ee565b60608501526129bd608082016103ee565b608085015260a081013560a085015260c081013560c085015260e081013560e08501526101006129ee8183016104af565b90850152610120612a008183016104af565b90850152610140612a128183016104af565b90850152610160918282013567ffffffffffffffff811161036357612a37920161067f565b90830152565b903590601e1981360301821215610363570180359067ffffffffffffffff82116103635760200191813603831361036357565b15612a7757565b608460405162461bcd60e51b815260206004820152602c60248201527f46756e6374696f6e206d7573742062652063616c6c6564207468726f7567682060448201527f64656c656761746563616c6c00000000000000000000000000000000000000006064820152fd5b15612ae857565b608460405162461bcd60e51b815260206004820152602c60248201527f46756e6374696f6e206d7573742062652063616c6c6564207468726f7567682060448201527f6163746976652070726f787900000000000000000000000000000000000000006064820152fd5b9a969290989799939591612b646136cc565b61086b5460e01c60ff1615612b78906128fe565b612b806105d1565b6001600160a01b03909c168c526001600160a01b038a1660208d01526001600160a01b031660408c015260608b015260808a01524660a08a015260070b60c0890152600787900b60e08901526101009485890190612be3919063ffffffff169052565b6101209581878a0152612bf46105d1565b9889525f60208a0190815260079890980b60408a01526001600160a01b03166060890152608088015260a087015260c086015260e085015283015f905282015f90528151612c4190614670565b90526126b681614924565b908060209392818452848401375f828201840152601f01601f1916010190565b9d9c9b959e9390928e9799939b98929b612c846136cc565b61086b5460e01c60ff1615612c98906128fe565b612ca06105d1565b6001600160a01b0390991689526001600160a01b031660208901526001600160a01b031660408801526060870152608086018890524660a087015260070b60c086015260070b60e085015263ffffffff851661010085810191909152916101209384860152612d0d6105d1565b9485525f60208601908152600789900b60408701526001600160a01b038a166060870152949c8d8b608082015260a0015260c08d015260e08c01528a015f905289015f90528851612d5d90614670565b90526126ad96614fed565b979b95999196939b9a949890929a612d7e6136cc565b61086b998a5460e81c60ff1615612d94906126c9565b8b612db18a6001600160a01b03165f5261086d60205260405f2090565b5f918252602052604090205460ff16156130685763ffffffff9d8e612dd8818516426130a6565b907f0000000000000000000000000000000000000000000000000000000000000000161061303e578e808516428110918215613008575b5050612fde578e9b6001600160a01b039c8d891690871690818117612f78575b50508c7f0000000000000000000000000000000000000000000000000000000000000000168d8c1681811480612f6f575b15612f555750823403612f2b57803b15610363575f60049160405192838092630d0e30db60e41b825234905af1801561223957612f18575b505b5460c01c63ffffffff169e8f612eaf906130d0565b612ed69061086b9063ffffffff60c01b1963ffffffff60c01b83549260c01b169116179055565b6040519c8d9c169f169d612eea9a8c6130e5565b037fa123dc29aebf7d0c3322c8eeb5b999e859f39937950ed31056532713d0de396f91a46103c56001606555565b8061222d612f25926104ce565b5f612e98565b60046040517f6452a35d000000000000000000000000000000000000000000000000000000008152fd5b905034612f2b5782612f6a9130903390615106565b612e9a565b50341515612e60565b15612fb4574211612f8a575f80612e2f565b60046040517f25a63a5b000000000000000000000000000000000000000000000000000000008152fd5b60046040517f495d907f000000000000000000000000000000000000000000000000000000008152fd5b60046040517f582e3889000000000000000000000000000000000000000000000000000000008152fd5b6130369192507f000000000000000000000000000000000000000000000000000000000000000016426130b8565b108f80612e0f565b60046040517ff722177f000000000000000000000000000000000000000000000000000000008152fd5b60046040517f2a58c4f3000000000000000000000000000000000000000000000000000000008152fd5b634e487b7160e01b5f52601160045260245ffd5b919082039182116130b357565b613092565b919082018092116130b357565b6040513d5f823e3d90fd5b63ffffffff8091169081146130b35760010190565b6001600160a01b03918216815291811660208301526040820192909252606081019290925263ffffffff928316608083015292821660a0820152921660c083015291821660e08201529116610100820152610140610120820181905261069a93910191612c4c565b6131ef9063ffffffff7fa6aa57bd282fc82378458de27be4eadfa791a0c7321c49562eeba8b2643dd566959497966131836136cc565b6131b18882888860070b986131a96706f05b59d3b200006131a38c615163565b106131f9565b468e89614fed565b6131dd6001600160a01b0391826040519889988952166020880152608060408801526080870190611e0a565b92858403606087015216971695611e0a565b0390a36001606555565b1561320057565b606460405162461bcd60e51b815260206004820152601360248201527f496e76616c69642072656c6179657220666565000000000000000000000000006044820152fd5b1561324b57565b608460405162461bcd60e51b815260206004820152602e60248201527f496e697469616c697a61626c653a20636f6e747261637420697320616c72656160448201527f647920696e697469616c697a65640000000000000000000000000000000000006064820152fd5b906132da6103c5926132d160ff5f5460081c16611a5c8161335c565b6119d0336150be565b6040516132e681610557565b6009815260208101906820a1a927a9a996ab1960b91b82526040519161330b83610557565b600583526020830191640312e302e360dc1b835261333360ff5f5460081c16611a5c8161335c565b519020915190209061047f556104805561334b615172565b613353615182565b610a9e8161519d565b1561336357565b608460405162461bcd60e51b815260206004820152602b60248201527f496e697469616c697a61626c653a20636f6e7472616374206973206e6f74206960448201527f6e697469616c697a696e670000000000000000000000000000000000000000006064820152fd5b634e487b7160e01b5f52602160045260245ffd5b600311156133eb57565b6133cd565b969091939792959461069a9b9995610140996001600160a01b0398898098818098168d521660208c015260408b015260608a015263ffffffff80921660808a01521660a08801521660c08601521660e084015216610100820152816101208201520191612c4c565b906134628261069d565b61346f604051918261058f565b8281528092613480601f199161069d565b01905f5b82811061349057505050565b806060602080938501015201613484565b90821015612441576134b89160051b810190612a3d565b9091565b908092918237015f815290565b3d156134f3573d906134da8261062d565b916134e8604051938461058f565b82523d5f602084013e565b606090565b6020818303126103635780519067ffffffffffffffff8211610363570181601f8201121561036357805161352b8161062d565b92613539604051948561058f565b818452602082840101116103635761069a9160208085019101611de9565b90602061069a928181520190611e0a565b80518210156124415760209160051b010190565b1561036357565b9360e0959361069a98979363ffffffff938752602087015260070b60408601521660608401526001600160a01b0380921660808401521660a08201528160c08201520190611e0a565b94909693956135d96136cc565b6135ec60ff61086b5460e01c16156128fe565b6135f96101408701612949565b63ffffffff4291161015806136ae575b610cae57613617368761295d565b61362090613e4e565b976136296105b1565b98613634368961295d565b8a5260208a0152604089018490526001600160a01b03851660608a015261365c36848a610649565b60808a015260a089015261366f86612953565b9661367d6101008801612949565b92369061368992610649565b94369061369592610649565b9460e00135906136a496614f6a565b336126bf91613fa1565b506136bb60408701612953565b6001600160a01b0316331415613609565b6002606554146136dd576002606555565b606460405162461bcd60e51b815260206004820152601f60248201527f5265656e7472616e637947756172643a207265656e7472616e742063616c6c006044820152fd5b1561372857565b606460405162461bcd60e51b815260206004820152600e60248201527f44697361626c656420726f7574650000000000000000000000000000000000006044820152fd5b1561377357565b606460405162461bcd60e51b815260206004820152601060248201527f416d6f756e7420746f6f206c61726765000000000000000000000000000000006044820152fd5b156137be57565b606460405162461bcd60e51b815260206004820152601660248201527f696e76616c69642071756f746554696d657374616d70000000000000000000006044820152fd5b1561380957565b606460405162461bcd60e51b815260206004820152601b60248201527f6d73672e76616c7565206d757374206d6174636820616d6f756e7400000000006044820152fd5b929361069a9695919294610140956001600160a01b0380951686525f60208701526040860152606085015263ffffffff809116608085015260a08401525f60c08401521660e08201525f610100820152816101208201520190611e0a565b91959693949290926138f26138ed6138e6886138d98b6001600160a01b03165f5261086d60205260405f2090565b905f5260205260405f2090565b5460ff1690565b613721565b60070b9361390b6706f05b59d3b200006131a387615163565b6139266ec097ce7bc90715b34b9f100000000083111561376c565b63ffffffff9361396561393b868b16426130a6565b867f00000000000000000000000000000000000000000000000000000000000000001610156137b7565b61086b5460c01c63ffffffff169861397f6119e08b6130d0565b6001600160a01b0395867f00000000000000000000000000000000000000000000000000000000000000001694878b1686811480613a8c575b15613a4f57506139c9813414613802565b853b15610363575f60049660405197888092630d0e30db60e41b825234905af18015612239577fa123dc29aebf7d0c3322c8eeb5b999e859f39937950ed31056532713d0de396f99613a3797613a2692613a3c575b505b8261537e565b91604051988998169c169a8761384d565b0390a4565b8061222d613a49926104ce565b5f613a1e565b613a3796507fa123dc29aebf7d0c3322c8eeb5b999e859f39937950ed31056532713d0de396f99613a8783613a269330903390615106565b613a20565b503415156139b8565b9081518082526020808093019301915f5b828110613ab4575050505090565b83516001600160a01b031685529381019392810192600101613aa6565b6040805160208082018181528551838501528186015160608401529285015160c0608084015280516101008401819052610120840198979692918201915f5b828110613b7d575050505081613b6661069a979860a084613b406060613b749701518387019063ffffffff169052565b60808101516001600160a01b031660c08601520151838203603f190160e0850152613a95565b03601f19810183528261058f565b519020916153b4565b83518b529981019992810192600101613b10565b613b9c600291612407565b500162ffffff8260081c16805f5281602052600160ff60405f205494161b8080941614613bd4575f5260205260405f20908154179055565b60046040517f954476d9000000000000000000000000000000000000000000000000000000008152fd5b9294939190938051825103613ccc578151915f5b838110613c7e575050505082613c29575b50505050565b6001600160a01b0381613c5d7f828fc203220356df8f072a91681caee7d5c75095e2a95e80ed5a14b384697f719386615453565b6040805195865233602087015291169463ffffffff1693a45f808080613c23565b80613c8b60019284613568565b5180613c99575b5001613c12565b613cc690613cb7613caa8488613568565b516001600160a01b031690565b6001600160a01b038916615405565b5f613c92565b60046040517fcd298b38000000000000000000000000000000000000000000000000000000008152fd5b6001600160a01b03168015613d3e5761086a816001600160a01b03198254161790557f1f17a88f67b0f49060a34bec1a4723a563620e6aa265eb640b5046dcee0759a05f80a2565b606460405162461bcd60e51b815260206004820152601460248201527f4261642068756220706f6f6c20616464726573730000000000000000000000006044820152fd5b80516001600160a01b0316825261069a91610180906020838101516001600160a01b0316908201526040838101516001600160a01b0316908201526060838101516001600160a01b0316908201526080838101516001600160a01b03169082015260a083015160a082015260c083015160c082015260e083015160e0820152613e19610100808501519083019063ffffffff169052565b6101208381015163ffffffff16908201526101408381015163ffffffff16908201528161016080940151938201520190611e0a565b604051613e7f81613e6b6020820194604086526060830190613d82565b46604083015203601f19810183528261058f565b51902090565b613e8e826133e1565b52565b906001600160a01b038251168152606080613ebb6020850151608060208601526080850190611e0a565b9360408101516040850152015191613ed2836133e1565b015290565b9a97909695613f559661069a9d9b9660808e613f4498613f649e986101809d6001600160a01b03998a80921685521660208401526040830152606082015201528c60a063ffffffff8094169101521660c08c01521660e08a01526101008901906001600160a01b03169052565b6001600160a01b0316610120870152565b80610140860152840190611e0a565b91610160818403910152613e91565b9061069a94936080936001600160a01b03809316845260208401521660408201528160608201520190611e0a565b805191610120830190613fb8825163ffffffff1690565b63ffffffff42911610611c3b5760208301516001613fdf825f5261087260205260405f2090565b5403614294576001905b6002613ffe825f5261087260205260405f2090565b541461426a57614017905f5261087260205260405f2090565b6002905560608501516001600160a01b031660808601516001600160a01b03169260a0870151918660c0890151948960a08301519660e0820151976101008301516140659063ffffffff1690565b9a5163ffffffff1661014084015163ffffffff1690604085015161408f906001600160a01b031690565b9285516140a2906001600160a01b031690565b9460208701516140b8906001600160a01b031690565b9661016001519760608a01516140d4906001600160a01b031690565b9960808101519060400151906140e8610613565b6001600160a01b03909c168c5260208c015260408b015261410c9060608b01613e85565b6040519b6001600160a01b038d9c169f63ffffffff169e61412d9b8d613ed7565b037f571749edf1d5c9599318cdbc4e28a6475d65e87fd3b2ddbe1e9a8d5e7a0f0ff791a460608101516001600160a01b031691829033821480614262575b613c2357608001516001600160a01b03169260806040840151936001600160a01b03861685856001600160a01b037f00000000000000000000000000000000000000000000000000000000000000001683145f1461425257506141d19130903390615106565b6141db858461546c565b0151913b151580614248575b6141f15750505050565b803b156103635761421e935f809460405196879586948593633a5be8cb60e01b8552339160048601613f73565b03925af1801561223957614235575b808080613c23565b8061222d614242926104ce565b5f61422d565b50815115156141e7565b61425d923390615106565b6141db565b50600161416b565b60046040517f8f260c60000000000000000000000000000000000000000000000000000000008152fd5b5f90613fe9565b905f825161012081016142b2815163ffffffff1690565b63ffffffff42911610611c3b57602085015160026142d9825f5261087260205260405f2090565b541461426a576142f2905f5261087260205260405f2090565b6002905560608201516001600160a01b031660808301516001600160a01b03169060a08401519260c0850151918860a0810151938760e0810151956101008201516143409063ffffffff1690565b955163ffffffff1661014083015163ffffffff1660408401516001600160a01b0316918451614375906001600160a01b031690565b93602086015161438b906001600160a01b031690565b9561016001519660608901516143a7906001600160a01b031690565b9860808101519060400151906143bb610613565b6001600160a01b03909b168b5260208b015260408a0152600260608a01526040519d63ffffffff8f9c169d6143f09b8d613ed7565b037f571749edf1d5c9599318cdbc4e28a6475d65e87fd3b2ddbe1e9a8d5e7a0f0ff7905f94a460608401516001600160a01b0316906001600160a01b0394858316918233148061454b575b61454257608001516001600160a01b03169060408101519687818416917f00000000000000000000000000000000000000000000000000000000000000001682145f1461452b57906080929187614517575b61449891508561546c565b0151923b15158061450d575b6144b1575b505050509050565b813b1561450957836144dd959660405196879586948593633a5be8cb60e01b8552339160048601613f73565b03925af18015612239576144f6575b80808084936144a9565b8061222d614503926104ce565b5f6144ec565b8380fd5b50825115156144a4565b6145249130903390615106565b5f8861448d565b60809291965061453d90865f98615405565b614498565b50505050509050565b505f61443b565b90816020910312610363575190565b1561456857565b608460405162461bcd60e51b815260206004820152602960248201527f45524331393637557067726164653a20756e737570706f727465642070726f7860448201527f6961626c655555494400000000000000000000000000000000000000000000006064820152fd5b80516001600160a01b0316825261069a91610140906020838101516001600160a01b0316908201526040838101516001600160a01b031690820152606083015160608201526080830151608082015260a083015160a082015261463f60c084015160c083019060070b9052565b60e08381015160070b908201526101008381015163ffffffff16908201528161012080940151938201520190611e0a565b604051613e7f81613b6660208201946020865260408301906145d2565b1561469457565b606460405162461bcd60e51b815260206004820152600c60248201527f696e76616c6964206665657300000000000000000000000000000000000000006044820152fd5b156146df57565b606460405162461bcd60e51b815260206004820152600c60248201527f72656c61792066696c6c656400000000000000000000000000000000000000006044820152fd5b9060070b9060070b0190677fffffffffffffff198212677fffffffffffffff8313176130b357565b1561475257565b606460405162461bcd60e51b815260206004820152601960248201527f66696c6c20616d6f756e742070726520666565732069732030000000000000006044820152fd5b1561479d57565b606460405162461bcd60e51b815260206004820152601d60248201527f7061796f757441646a7573746d656e7450637420746f6f20736d616c6c0000006044820152fd5b156147e857565b606460405162461bcd60e51b815260206004820152601d60248201527f7061796f757441646a7573746d656e7450637420746f6f206c617267650000006044820152fd5b7f800000000000000000000000000000000000000000000000000000000000000081146130b3575f0390565b1561485f57565b606460405162461bcd60e51b815260206004820152601c60248201527f536f6d65686f7720686974206d6178546f6b656e73546f53656e6421000000006044820152fd5b156148aa57565b606460405162461bcd60e51b815260206004820152601760248201527f696e76616c69642072657061796d656e7420636861696e0000000000000000006044820152fd5b919360a09361069a96956001600160a01b0380941685526020850152151560408401521660608201528160808201520190611e0a565b9081519160408101926149646706f05b59d3b200008061495661495161494b895160070b90565b60070b90565b615163565b109081614d31575b5061468d565b606081016149846ec097ce7bc90715b34b9f10000000008251111561376c565b60208301906149a96149a083515f5261086e60205260405f2090565b548251116146d8565b60c08401928351966149d960c08301986149d36149c78b5160070b90565b845160070b5b90614723565b906157c2565b976149e589151561474b565b614a0584516149fe87515f5261086e60205260405f2090565b54906130a6565b898110614d27575b5061494b614a34926149cd614a26614a2e945160070b90565b915160070b90565b8861537e565b936101208601805180614cd2575b50505060a08501518786519160a083015114918215614cc4575b50508015614cab575b614a6e906148a3565b614a8283515f5261086e60205260405f2090565b614a8d8882546130b8565b90556060850191614aa583516001600160a01b031690565b926001600160a01b0392838516331480614c94575b614c8a57906040614b479201948785614ada88516001600160a01b031690565b16917f000000000000000000000000000000000000000000000000000000000000000087168303614c3957505050614b196127466101008a0151151590565b614c13575b613caa87614b42614b3684516001600160a01b031690565b6001600160a01b031690565b61546c565b91823b151580614c05575b614b60575b50505050505050565b614b79614b8a916080941694516001600160a01b031690565b94515f5261086e60205260405f2090565b549051111594015193813b15610363575f8094614bd8604051978896879586947f0ea1f9380000000000000000000000000000000000000000000000000000000086523392600487016148ee565b03925af1801561223957614bf2575b808080808080614b57565b8061222d614bff926104ce565b5f614be7565b506080870151511515614b52565b614c3487614c2b614b3688516001600160a01b031690565b30903390615106565b614b1e565b614c4a6127466101008d0151151590565b15614c815750614c7c9150614c69614b3688516001600160a01b031690565b83516001600160a01b0316903390615106565b613caa565b614c7c92615405565b5050505050505050565b50614ca66127466101008a0151151590565b614aba565b50614a6e614cbd610100870151151590565b9050614a65565b60600151149050875f614a5c565b95614d0f614d1592614cf3614d1f9599670de0b6b3a763ffff191315614796565b614d0968056bc75e2d63100000825113156147e1565b5161482c565b9061537e565b9451851115614858565b5f8080614a42565b985061494b614a0d565b9050614d4761495161494b60c086015160070b90565b105f61495e565b906001600160a01b038251168152608080614d78602085015160a0602086015260a0850190611e0a565b93604081015160070b6040850152606081015115156060850152015191015290565b9a979361069a9c9a95919793614e059a979360208e6101809b8152015260408d015260608c015260808b015260070b60a08a015260070b60c08901526001600160a01b03928380921660e08a0152166101008801521661012086015280610140860152840190611e0a565b91610160818403910152614d4e565b906040820151614e249060070b90565b916060810151614e3a906001600160a01b031690565b906080810151936101009485830151614e5290151590565b610120928385015192614e63610620565b6001600160a01b039097168752602087015260070b60408601521515606085015260808401528151606001516020830151614ea7905f5261086e60205260405f2090565b549360a084015193519460808601519560a08101519160e0820151614ecc9060070b90565b60c083015160070b9a83015163ffffffff169a6040840151614ef4906001600160a01b031690565b918451614f07906001600160a01b031690565b986020860151614f1d906001600160a01b031690565b950151956040519a6001600160a01b038c9b169e63ffffffff169d3396614f449b8d614d9a565b037f8ab9dc6c19fe88e69bc70221b339c84332752fdd49591b7c51e66bae3947b73c91a4565b9392614fe7936001600160a01b036103c5989760208151910120916040519363ffffffff60208601967f152eb71524aef34d838ab76573c14b1ebfa5e385d9ab29d7cf5398daa2438bd9885216604086015286606086015260808501521660a083015260c082015260c08152614fdf81610573565b519020615810565b906158e9565b9392614fe7936001600160a01b036103c5989760208151910120916040519363ffffffff60208601967f0e058f05b73c62ee68329d2c67c067aaae9a06503cc306378d144d0f0177882b885216604086015286606086015260070b60808501521660a083015260c082015260c08152614fdf81610573565b6001600160a01b03610c8c5416330361507a57565b606460405162461bcd60e51b815260206004820152602060248201527f4f776e61626c653a2063616c6c6572206973206e6f7420746865206f776e65726044820152fd5b610c8c9081546001600160a01b0380921692836001600160a01b03198316179055167f8be0079c531659141344cd1fd0a4f28419497f9722a3daafe3b4186f6b6457e05f80a3565b90926103c593604051937f23b872dd0000000000000000000000000000000000000000000000000000000060208601526001600160a01b03809216602486015216604484015260648301526064825261515e8261051f565b6159d2565b5f811261516d5790565b5f0390565b6103c560ff5f5460081c1661335c565b61519660ff5f5460081c16611a5c8161335c565b6001606555565b6001600160a01b031680156151e557610869816001600160a01b03198254161790557fa9e8c42c9e7fca7f62755189a16b2f5314d43d8fb24e91ba54e6d65f9314e8495f80a2565b606460405162461bcd60e51b815260206004820152601960248201527f4261642062726964676520726f757465722061646472657373000000000000006044820152fd5b91612746906152a292845160408096015191865191615247836104e7565b8252613b746152626020840192468452898501958652612407565b50549388519283916152876020840196602088525160608d86015260a0850190613d82565b9151606084015251608083015203601f19810183528261058f565b6152a95750565b6004905163582f497d60e11b8152fd5b909161012082519201516040938451908582019082821067ffffffffffffffff8311176104e257615333956152f8928852835260208301938452612407565b505491613b748651809261531e602083019560208752518a8085015260808401906145d2565b9051606083015203601f19810183528261058f565b1561533b5750565b6064905162461bcd60e51b815260206004820152601860248201527f496e76616c696420736c6f772072656c61792070726f6f6600000000000000006044820152fd5b90670de0b6b3a7640000915f8284039212838312811690848413901516176130b3578181029181830414901517156130b3570490565b929091905f915b84518310156153fd576153ce8386613568565b5190818110156153ec575f52602052600160405f205b9201916153bb565b905f52602052600160405f206153e4565b915092501490565b6103c5926001600160a01b03604051937fa9059cbb00000000000000000000000000000000000000000000000000000000602086015216602484015260448301526044825261515e82610503565b6103c5916001600160a01b038061086a54169116615405565b6001600160a01b0390811690813b156154ac57906103c592917f000000000000000000000000000000000000000000000000000000000000000016615405565b7f000000000000000000000000000000000000000000000000000000000000000016803b15610363575f80916024604051809481937f2e1a7d4d0000000000000000000000000000000000000000000000000000000083528860048401525af18015612239576155e5575b508147106155a1575f80809381935af161552f6134c9565b501561553757565b608460405162461bcd60e51b815260206004820152603a60248201527f416464726573733a20756e61626c6520746f2073656e642076616c75652c207260448201527f6563697069656e74206d617920686176652072657665727465640000000000006064820152fd5b606460405162461bcd60e51b815260206004820152601d60248201527f416464726573733a20696e73756666696369656e742062616c616e63650000006044820152fd5b6155ee906104ce565b5f615517565b906155fe82615715565b6001600160a01b0382167fbc7cd75a20ee27fd9adebab32041f755214dbc6bffa90cc0225b39da2e5c2d3b5f80a28051158015906156bc575b61563f575050565b6156b9915f8060405193615652856104e7565b602785527f416464726573733a206c6f772d6c6576656c2064656c65676174652063616c6c60208601527f206661696c6564000000000000000000000000000000000000000000000000006040860152602081519101845af46156b36134c9565b91615afd565b50565b505f615637565b906156cd82615715565b6001600160a01b0382167fbc7cd75a20ee27fd9adebab32041f755214dbc6bffa90cc0225b39da2e5c2d3b5f80a280511580159061570d5761563f575050565b506001615637565b803b15615758576001600160a01b037f360894a13ba1a3210667c828492db98dca3e2076cc3735a920a3ca505d382bbc91166001600160a01b0319825416179055565b608460405162461bcd60e51b815260206004820152602d60248201527f455243313936373a206e657720696d706c656d656e746174696f6e206973206e60448201527f6f74206120636f6e7472616374000000000000000000000000000000000000006064820152fd5b670de0b6b3a76400009181830291838304036130b35760070b808303925f8212818512811690828613901516176130b357146157fc570490565b634e487b7160e01b5f52601260045260245ffd5b60429161047f549061048054906040519160208301937fc2f8787176b8ac6bf7215b4adcc1e069bf4ab82d9ab1df05a57a91d425935b6e8552604084015260608301526080820152608081526158658161051f565b51902090604051917f19010000000000000000000000000000000000000000000000000000000000008352600283015260228201522090565b156158a557565b606460405162461bcd60e51b815260206004820152601160248201527f696e76616c6964207369676e61747572650000000000000000000000000000006044820152fd5b91906158f58282615acc565b93909260058510156133eb576103c5941593846159bc575b50831561591d575b50505061589e565b5f92935090829160405161596e81613b6660208201947f1626ba7e00000000000000000000000000000000000000000000000000000000998a87526024840152604060448401526064830190611e0a565b51915afa9061597b6134c9565b826159ae575b82615991575b50505f8080615915565b6159a691925060208082518301019101614552565b145f80615987565b915060208251101591615981565b6001600160a01b0383811691161493505f61590d565b604051615a29916001600160a01b03166159eb82610557565b5f806020958685527f5361666545524332303a206c6f772d6c6576656c2063616c6c206661696c656487860152868151910182855af16156b36134c9565b8051828115918215615aac575b5050905015615a425750565b6084906040519062461bcd60e51b82526004820152602a60248201527f5361666545524332303a204552433230206f7065726174696f6e20646964206e60448201527f6f742073756363656564000000000000000000000000000000000000000000006064820152fd5b838092935001031261036357810151615ac481610aa3565b80825f615a36565b9060418151145f14615af4576134b891602082015190606060408401519301515f1a90615b8d565b50505f90600290565b91929015615b5e5750815115615b11575090565b3b15615b1a5790565b606460405162461bcd60e51b815260206004820152601d60248201527f416464726573733a2063616c6c20746f206e6f6e2d636f6e74726163740000006044820152fd5b825190915015615b715750805190602001fd5b610e5e9060405191829162461bcd60e51b835260048301613557565b7f7fffffffffffffffffffffffffffffff5d576e7357a4501ddfe92f46681b20a08411615bfd576020935f9360ff60809460405194855216868401526040830152606082015282805260015afa15612239575f516001600160a01b03811615615bf557905f90565b505f90600190565b505050505f9060039056fea2646970667358221220ca21d4893cefde97153a043aedb5d1cd978331c32fc38e033dcdae01810e4b5064736f6c63430008170033"
}