{
  "address": "0x1771c470d41b8c39338450C380bf2C080a2CEdD8",
  "abi": [
    {
      "inputs": [
        {
          "internalType": "address",
          "name": "_wrappedNativeTokenAddress",
          "type": "address"
        },
        {
          "internalType": "uint32",
          "name": "_depositQuoteTimeBuffer",
          "type": "uint32"
        },
        {
          "internalType": "uint32",
          "name": "_fillDeadlineBuffer",
          "type": "uint32"
        }
      ],
      "stateMutability": "nonpayable",
      "type": "constructor"
    },
    {
      "inputs": [],
      "name": "ClaimedMerkleLeaf",
      "type": "error"
    },
    {
      "inputs": [],
      "name": "DisabledRoute",
      "type": "error"
    },
    {
      "inputs": [],
      "name": "ExpiredFillDeadline",
      "type": "error"
    },
    {
      "inputs": [],
      "name": "InvalidChainId",
      "type": "error"
    },
    {
      "inputs": [],
      "name": "InvalidFillDeadline",
      "type": "error"
    },
    {
      "inputs": [],
      "name": "InvalidMerkleLeaf",
      "type": "error"
    },
    {
      "inputs": [],
      "name": "InvalidMerkleProof",
      "type": "error"
    },
    {
      "inputs": [],
      "name": "InvalidPayoutAdjustmentPct",
      "type": "error"
    },
    {
      "inputs": [],
      "name": "InvalidQuoteTimestamp",
      "type": "error"
    },
    {
      "inputs": [],
      "name": "InvalidSlowFillRequest",
      "type": "error"
    },
    {
      "inputs": [],
      "name": "MsgValueDoesNotMatchInputAmount",
      "type": "error"
    },
    {
      "inputs": [],
      "name": "NotExclusiveRelayer",
      "type": "error"
    },
    {
      "inputs": [],
      "name": "RelayFilled",
      "type": "error"
    },
    {
      "anonymous": false,
      "inputs": [
        {
          "indexed": false,
          "internalType": "address",
          "name": "previousAdmin",
          "type": "address"
        },
        {
          "indexed": false,
          "internalType": "address",
          "name": "newAdmin",
          "type": "address"
        }
      ],
      "name": "AdminChanged",
      "type": "event"
    },
    {
      "anonymous": false,
      "inputs": [
        {
          "indexed": true,
          "internalType": "address",
          "name": "beacon",
          "type": "address"
        }
      ],
      "name": "BeaconUpgraded",
      "type": "event"
    },
    {
      "anonymous": false,
      "inputs": [
        {
          "indexed": true,
          "internalType": "uint256",
          "name": "rootBundleId",
          "type": "uint256"
        }
      ],
      "name": "EmergencyDeleteRootBundle",
      "type": "event"
    },
    {
      "anonymous": false,
      "inputs": [
        {
          "indexed": true,
          "internalType": "address",
          "name": "originToken",
          "type": "address"
        },
        {
          "indexed": true,
          "internalType": "uint256",
          "name": "destinationChainId",
          "type": "uint256"
        },
        {
          "indexed": false,
          "internalType": "bool",
          "name": "enabled",
          "type": "bool"
        }
      ],
      "name": "EnabledDepositRoute",
      "type": "event"
    },
    {
      "anonymous": false,
      "inputs": [
        {
          "indexed": false,
          "internalType": "uint256",
          "name": "amountToReturn",
          "type": "uint256"
        },
        {
          "indexed": true,
          "internalType": "uint256",
          "name": "chainId",
          "type": "uint256"
        },
        {
          "indexed": false,
          "internalType": "uint256[]",
          "name": "refundAmounts",
          "type": "uint256[]"
        },
        {
          "indexed": true,
          "internalType": "uint32",
          "name": "rootBundleId",
          "type": "uint32"
        },
        {
          "indexed": true,
          "internalType": "uint32",
          "name": "leafId",
          "type": "uint32"
        },
        {
          "indexed": false,
          "internalType": "address",
          "name": "l2TokenAddress",
          "type": "address"
        },
        {
          "indexed": false,
          "internalType": "address[]",
          "name": "refundAddresses",
          "type": "address[]"
        }
      ],
      "name": "ExecutedRelayerRefundRoot",
      "type": "event"
    },
    {
      "anonymous": false,
      "inputs": [
        {
          "indexed": false,
          "internalType": "uint256",
          "name": "amountToReturn",
          "type": "uint256"
        },
        {
          "indexed": true,
          "internalType": "uint256",
          "name": "chainId",
          "type": "uint256"
        },
        {
          "indexed": false,
          "internalType": "uint256[]",
          "name": "refundAmounts",
          "type": "uint256[]"
        },
        {
          "indexed": true,
          "internalType": "uint32",
          "name": "rootBundleId",
          "type": "uint32"
        },
        {
          "indexed": true,
          "internalType": "uint32",
          "name": "leafId",
          "type": "uint32"
        },
        {
          "indexed": false,
          "internalType": "address",
          "name": "l2TokenAddress",
          "type": "address"
        },
        {
          "indexed": false,
          "internalType": "address[]",
          "name": "refundAddresses",
          "type": "address[]"
        },
        {
          "indexed": false,
          "internalType": "bytes32",
          "name": "fillsRefundedRoot",
          "type": "bytes32"
        },
        {
          "indexed": false,
          "internalType": "string",
          "name": "fillsRefundedIpfsHash",
          "type": "string"
        }
      ],
      "name": "ExecutedUSSRelayerRefundRoot",
      "type": "event"
    },
    {
      "anonymous": false,
      "inputs": [
        {
          "indexed": false,
          "internalType": "uint256",
          "name": "amount",
          "type": "uint256"
        },
        {
          "indexed": false,
          "internalType": "uint256",
          "name": "totalFilledAmount",
          "type": "uint256"
        },
        {
          "indexed": false,
          "internalType": "uint256",
          "name": "fillAmount",
          "type": "uint256"
        },
        {
          "indexed": false,
          "internalType": "uint256",
          "name": "repaymentChainId",
          "type": "uint256"
        },
        {
          "indexed": true,
          "internalType": "uint256",
          "name": "originChainId",
          "type": "uint256"
        },
        {
          "indexed": false,
          "internalType": "uint256",
          "name": "destinationChainId",
          "type": "uint256"
        },
        {
          "indexed": false,
          "internalType": "int64",
          "name": "relayerFeePct",
          "type": "int64"
        },
        {
          "indexed": false,
          "internalType": "int64",
          "name": "realizedLpFeePct",
          "type": "int64"
        },
        {
          "indexed": true,
          "internalType": "uint32",
          "name": "depositId",
          "type": "uint32"
        },
        {
          "indexed": false,
          "internalType": "address",
          "name": "destinationToken",
          "type": "address"
        },
        {
          "indexed": false,
          "internalType": "address",
          "name": "relayer",
          "type": "address"
        },
        {
          "indexed": true,
          "internalType": "address",
          "name": "depositor",
          "type": "address"
        },
        {
          "indexed": false,
          "internalType": "address",
          "name": "recipient",
          "type": "address"
        },
        {
          "indexed": false,
          "internalType": "bytes",
          "name": "message",
          "type": "bytes"
        },
        {
          "components": [
            {
              "internalType": "address",
              "name": "recipient",
              "type": "address"
            },
            {
              "internalType": "bytes",
              "name": "message",
              "type": "bytes"
            },
            {
              "internalType": "int64",
              "name": "relayerFeePct",
              "type": "int64"
            },
            {
              "internalType": "bool",
              "name": "isSlowRelay",
              "type": "bool"
            },
            {
              "internalType": "int256",
              "name": "payoutAdjustmentPct",
              "type": "int256"
            }
          ],
          "indexed": false,
          "internalType": "struct SpokePool.RelayExecutionInfo",
          "name": "updatableRelayData",
          "type": "tuple"
        }
      ],
      "name": "FilledRelay",
      "type": "event"
    },
    {
      "anonymous": false,
      "inputs": [
        {
          "indexed": false,
          "internalType": "address",
          "name": "inputToken",
          "type": "address"
        },
        {
          "indexed": false,
          "internalType": "address",
          "name": "outputToken",
          "type": "address"
        },
        {
          "indexed": false,
          "internalType": "uint256",
          "name": "inputAmount",
          "type": "uint256"
        },
        {
          "indexed": false,
          "internalType": "uint256",
          "name": "outputAmount",
          "type": "uint256"
        },
        {
          "indexed": false,
          "internalType": "uint256",
          "name": "repaymentChainId",
          "type": "uint256"
        },
        {
          "indexed": true,
          "internalType": "uint256",
          "name": "originChainId",
          "type": "uint256"
        },
        {
          "indexed": true,
          "internalType": "uint32",
          "name": "depositId",
          "type": "uint32"
        },
        {
          "indexed": false,
          "internalType": "uint32",
          "name": "fillDeadline",
          "type": "uint32"
        },
        {
          "indexed": false,
          "internalType": "uint32",
          "name": "exclusivityDeadline",
          "type": "uint32"
        },
        {
          "indexed": false,
          "internalType": "address",
          "name": "exclusiveRelayer",
          "type": "address"
        },
        {
          "indexed": true,
          "internalType": "address",
          "name": "relayer",
          "type": "address"
        },
        {
          "indexed": false,
          "internalType": "address",
          "name": "depositor",
          "type": "address"
        },
        {
          "indexed": false,
          "internalType": "address",
          "name": "recipient",
          "type": "address"
        },
        {
          "indexed": false,
          "internalType": "bytes",
          "name": "message",
          "type": "bytes"
        },
        {
          "components": [
            {
              "internalType": "address",
              "name": "updatedRecipient",
              "type": "address"
            },
            {
              "internalType": "bytes",
              "name": "updatedMessage",
              "type": "bytes"
            },
            {
              "internalType": "uint256",
              "name": "updatedOutputAmount",
              "type": "uint256"
            },
            {
              "internalType": "enum USSSpokePoolInterface.FillType",
              "name": "fillType",
              "type": "uint8"
            }
          ],
          "indexed": false,
          "internalType": "struct USSSpokePoolInterface.USSRelayExecutionEventInfo",
          "name": "relayExecutionInfo",
          "type": "tuple"
        }
      ],
      "name": "FilledUSSRelay",
      "type": "event"
    },
    {
      "anonymous": false,
      "inputs": [
        {
          "indexed": false,
          "internalType": "uint8",
          "name": "version",
          "type": "uint8"
        }
      ],
      "name": "Initialized",
      "type": "event"
    },
    {
      "anonymous": false,
      "inputs": [
        {
          "indexed": true,
          "internalType": "address",
          "name": "previousOwner",
          "type": "address"
        },
        {
          "indexed": true,
          "internalType": "address",
          "name": "newOwner",
          "type": "address"
        }
      ],
      "name": "OwnershipTransferred",
      "type": "event"
    },
    {
      "anonymous": false,
      "inputs": [
        {
          "indexed": false,
          "internalType": "bool",
          "name": "isPaused",
          "type": "bool"
        }
      ],
      "name": "PausedDeposits",
      "type": "event"
    },
    {
      "anonymous": false,
      "inputs": [
        {
          "indexed": false,
          "internalType": "bool",
          "name": "isPaused",
          "type": "bool"
        }
      ],
      "name": "PausedFills",
      "type": "event"
    },
    {
      "anonymous": false,
      "inputs": [
        {
          "indexed": true,
          "internalType": "address",
          "name": "relayer",
          "type": "address"
        },
        {
          "indexed": false,
          "internalType": "address",
          "name": "refundToken",
          "type": "address"
        },
        {
          "indexed": false,
          "internalType": "uint256",
          "name": "amount",
          "type": "uint256"
        },
        {
          "indexed": true,
          "internalType": "uint256",
          "name": "originChainId",
          "type": "uint256"
        },
        {
          "indexed": false,
          "internalType": "uint256",
          "name": "destinationChainId",
          "type": "uint256"
        },
        {
          "indexed": false,
          "internalType": "int64",
          "name": "realizedLpFeePct",
          "type": "int64"
        },
        {
          "indexed": true,
          "internalType": "uint32",
          "name": "depositId",
          "type": "uint32"
        },
        {
          "indexed": false,
          "internalType": "uint256",
          "name": "fillBlock",
          "type": "uint256"
        },
        {
          "indexed": false,
          "internalType": "uint256",
          "name": "previousIdenticalRequests",
          "type": "uint256"
        }
      ],
      "name": "RefundRequested",
      "type": "event"
    },
    {
      "anonymous": false,
      "inputs": [
        {
          "indexed": true,
          "internalType": "uint32",
          "name": "rootBundleId",
          "type": "uint32"
        },
        {
          "indexed": true,
          "internalType": "bytes32",
          "name": "relayerRefundRoot",
          "type": "bytes32"
        },
        {
          "indexed": true,
          "internalType": "bytes32",
          "name": "slowRelayRoot",
          "type": "bytes32"
        }
      ],
      "name": "RelayedRootBundle",
      "type": "event"
    },
    {
      "anonymous": false,
      "inputs": [
        {
          "indexed": false,
          "internalType": "int64",
          "name": "newRelayerFeePct",
          "type": "int64"
        },
        {
          "indexed": true,
          "internalType": "uint32",
          "name": "depositId",
          "type": "uint32"
        },
        {
          "indexed": true,
          "internalType": "address",
          "name": "depositor",
          "type": "address"
        },
        {
          "indexed": false,
          "internalType": "address",
          "name": "updatedRecipient",
          "type": "address"
        },
        {
          "indexed": false,
          "internalType": "bytes",
          "name": "updatedMessage",
          "type": "bytes"
        },
        {
          "indexed": false,
          "internalType": "bytes",
          "name": "depositorSignature",
          "type": "bytes"
        }
      ],
      "name": "RequestedSpeedUpDeposit",
      "type": "event"
    },
    {
      "anonymous": false,
      "inputs": [
        {
          "indexed": false,
          "internalType": "address",
          "name": "inputToken",
          "type": "address"
        },
        {
          "indexed": false,
          "internalType": "address",
          "name": "outputToken",
          "type": "address"
        },
        {
          "indexed": false,
          "internalType": "uint256",
          "name": "inputAmount",
          "type": "uint256"
        },
        {
          "indexed": false,
          "internalType": "uint256",
          "name": "outputAmount",
          "type": "uint256"
        },
        {
          "indexed": true,
          "internalType": "uint256",
          "name": "originChainId",
          "type": "uint256"
        },
        {
          "indexed": true,
          "internalType": "uint32",
          "name": "depositId",
          "type": "uint32"
        },
        {
          "indexed": false,
          "internalType": "uint32",
          "name": "fillDeadline",
          "type": "uint32"
        },
        {
          "indexed": false,
          "internalType": "uint32",
          "name": "exclusivityDeadline",
          "type": "uint32"
        },
        {
          "indexed": false,
          "internalType": "address",
          "name": "exclusiveRelayer",
          "type": "address"
        },
        {
          "indexed": false,
          "internalType": "address",
          "name": "depositor",
          "type": "address"
        },
        {
          "indexed": false,
          "internalType": "address",
          "name": "recipient",
          "type": "address"
        },
        {
          "indexed": false,
          "internalType": "bytes",
          "name": "message",
          "type": "bytes"
        }
      ],
      "name": "RequestedUSSSlowFill",
      "type": "event"
    },
    {
      "anonymous": false,
      "inputs": [
        {
          "indexed": true,
          "internalType": "address",
          "name": "newHubPool",
          "type": "address"
        }
      ],
      "name": "SetHubPool",
      "type": "event"
    },
    {
      "anonymous": false,
      "inputs": [
        {
          "indexed": true,
          "internalType": "address",
          "name": "newAdmin",
          "type": "address"
        }
      ],
      "name": "SetXDomainAdmin",
      "type": "event"
    },
    {
      "anonymous": false,
      "inputs": [
        {
          "indexed": false,
          "internalType": "uint256",
          "name": "amountToReturn",
          "type": "uint256"
        },
        {
          "indexed": true,
          "internalType": "uint256",
          "name": "chainId",
          "type": "uint256"
        },
        {
          "indexed": true,
          "internalType": "uint32",
          "name": "leafId",
          "type": "uint32"
        },
        {
          "indexed": true,
          "internalType": "address",
          "name": "l2TokenAddress",
          "type": "address"
        }
      ],
      "name": "TokensBridged",
      "type": "event"
    },
    {
      "anonymous": false,
      "inputs": [
        {
          "indexed": false,
          "internalType": "address",
          "name": "inputToken",
          "type": "address"
        },
        {
          "indexed": false,
          "internalType": "address",
          "name": "outputToken",
          "type": "address"
        },
        {
          "indexed": false,
          "internalType": "uint256",
          "name": "inputAmount",
          "type": "uint256"
        },
        {
          "indexed": false,
          "internalType": "uint256",
          "name": "outputAmount",
          "type": "uint256"
        },
        {
          "indexed": true,
          "internalType": "uint256",
          "name": "destinationChainId",
          "type": "uint256"
        },
        {
          "indexed": true,
          "internalType": "uint32",
          "name": "depositId",
          "type": "uint32"
        },
        {
          "indexed": false,
          "internalType": "uint32",
          "name": "quoteTimestamp",
          "type": "uint32"
        },
        {
          "indexed": false,
          "internalType": "uint32",
          "name": "fillDeadline",
          "type": "uint32"
        },
        {
          "indexed": false,
          "internalType": "uint32",
          "name": "exclusivityDeadline",
          "type": "uint32"
        },
        {
          "indexed": true,
          "internalType": "address",
          "name": "depositor",
          "type": "address"
        },
        {
          "indexed": false,
          "internalType": "address",
          "name": "recipient",
          "type": "address"
        },
        {
          "indexed": false,
          "internalType": "address",
          "name": "relayer",
          "type": "address"
        },
        {
          "indexed": false,
          "internalType": "bytes",
          "name": "message",
          "type": "bytes"
        }
      ],
      "name": "USSFundsDeposited",
      "type": "event"
    },
    {
      "anonymous": false,
      "inputs": [
        {
          "indexed": true,
          "internalType": "address",
          "name": "implementation",
          "type": "address"
        }
      ],
      "name": "Upgraded",
      "type": "event"
    },
    {
      "inputs": [],
      "name": "MAX_TRANSFER_SIZE",
      "outputs": [
        {
          "internalType": "uint256",
          "name": "",
          "type": "uint256"
        }
      ],
      "stateMutability": "view",
      "type": "function"
    },
    {
      "inputs": [],
      "name": "SLOW_FILL_MAX_TOKENS_TO_SEND",
      "outputs": [
        {
          "internalType": "uint256",
          "name": "",
          "type": "uint256"
        }
      ],
      "stateMutability": "view",
      "type": "function"
    },
    {
      "inputs": [],
      "name": "UPDATE_DEPOSIT_DETAILS_HASH",
      "outputs": [
        {
          "internalType": "bytes32",
          "name": "",
          "type": "bytes32"
        }
      ],
      "stateMutability": "view",
      "type": "function"
    },
    {
      "inputs": [
        {
          "internalType": "uint32",
          "name": "_initialDepositId",
          "type": "uint32"
        },
        {
          "internalType": "address",
          "name": "_crossDomainAdmin",
          "type": "address"
        },
        {
          "internalType": "address",
          "name": "_hubPool",
          "type": "address"
        }
      ],
      "name": "__SpokePool_init",
      "outputs": [],
      "stateMutability": "nonpayable",
      "type": "function"
    },
    {
      "inputs": [],
      "name": "chainId",
      "outputs": [
        {
          "internalType": "uint256",
          "name": "",
          "type": "uint256"
        }
      ],
      "stateMutability": "view",
      "type": "function"
    },
    {
      "inputs": [],
      "name": "crossDomainAdmin",
      "outputs": [
        {
          "internalType": "address",
          "name": "",
          "type": "address"
        }
      ],
      "stateMutability": "view",
      "type": "function"
    },
    {
      "inputs": [
        {
          "internalType": "address",
          "name": "recipient",
          "type": "address"
        },
        {
          "internalType": "address",
          "name": "originToken",
          "type": "address"
        },
        {
          "internalType": "uint256",
          "name": "amount",
          "type": "uint256"
        },
        {
          "internalType": "uint256",
          "name": "destinationChainId",
          "type": "uint256"
        },
        {
          "internalType": "int64",
          "name": "relayerFeePct",
          "type": "int64"
        },
        {
          "internalType": "uint32",
          "name": "quoteTimestamp",
          "type": "uint32"
        },
        {
          "internalType": "bytes",
          "name": "message",
          "type": "bytes"
        },
        {
          "internalType": "uint256",
          "name": "maxCount",
          "type": "uint256"
        }
      ],
      "name": "deposit",
      "outputs": [],
      "stateMutability": "payable",
      "type": "function"
    },
    {
      "inputs": [
        {
          "internalType": "address",
          "name": "",
          "type": "address"
        }
      ],
      "name": "depositCounter",
      "outputs": [
        {
          "internalType": "uint256",
          "name": "",
          "type": "uint256"
        }
      ],
      "stateMutability": "view",
      "type": "function"
    },
    {
      "inputs": [
        {
          "internalType": "address",
          "name": "depositor",
          "type": "address"
        },
        {
          "internalType": "address",
          "name": "recipient",
          "type": "address"
        },
        {
          "internalType": "address",
          "name": "originToken",
          "type": "address"
        },
        {
          "internalType": "uint256",
          "name": "amount",
          "type": "uint256"
        },
        {
          "internalType": "uint256",
          "name": "destinationChainId",
          "type": "uint256"
        },
        {
          "internalType": "int64",
          "name": "relayerFeePct",
          "type": "int64"
        },
        {
          "internalType": "uint32",
          "name": "quoteTimestamp",
          "type": "uint32"
        },
        {
          "internalType": "bytes",
          "name": "message",
          "type": "bytes"
        },
        {
          "internalType": "uint256",
          "name": "maxCount",
          "type": "uint256"
        }
      ],
      "name": "depositFor",
      "outputs": [],
      "stateMutability": "payable",
      "type": "function"
    },
    {
      "inputs": [
        {
          "internalType": "address",
          "name": "depositor",
          "type": "address"
        },
        {
          "internalType": "address",
          "name": "recipient",
          "type": "address"
        },
        {
          "internalType": "address",
          "name": "originToken",
          "type": "address"
        },
        {
          "internalType": "uint256",
          "name": "amount",
          "type": "uint256"
        },
        {
          "internalType": "uint256",
          "name": "destinationChainId",
          "type": "uint256"
        },
        {
          "internalType": "int64",
          "name": "relayerFeePct",
          "type": "int64"
        },
        {
          "internalType": "bytes",
          "name": "message",
          "type": "bytes"
        },
        {
          "internalType": "uint256",
          "name": "maxCount",
          "type": "uint256"
        }
      ],
      "name": "depositForNow",
      "outputs": [],
      "stateMutability": "payable",
      "type": "function"
    },
    {
      "inputs": [
        {
          "internalType": "address",
          "name": "recipient",
          "type": "address"
        },
        {
          "internalType": "address",
          "name": "originToken",
          "type": "address"
        },
        {
          "internalType": "uint256",
          "name": "amount",
          "type": "uint256"
        },
        {
          "internalType": "uint256",
          "name": "destinationChainId",
          "type": "uint256"
        },
        {
          "internalType": "int64",
          "name": "relayerFeePct",
          "type": "int64"
        },
        {
          "internalType": "bytes",
          "name": "message",
          "type": "bytes"
        },
        {
          "internalType": "uint256",
          "name": "maxCount",
          "type": "uint256"
        }
      ],
      "name": "depositNow",
      "outputs": [],
      "stateMutability": "payable",
      "type": "function"
    },
    {
      "inputs": [],
      "name": "depositQuoteTimeBuffer",
      "outputs": [
        {
          "internalType": "uint32",
          "name": "",
          "type": "uint32"
        }
      ],
      "stateMutability": "view",
      "type": "function"
    },
    {
      "inputs": [
        {
          "internalType": "address",
          "name": "depositor",
          "type": "address"
        },
        {
          "internalType": "address",
          "name": "recipient",
          "type": "address"
        },
        {
          "internalType": "address",
          "name": "inputToken",
          "type": "address"
        },
        {
          "internalType": "address",
          "name": "outputToken",
          "type": "address"
        },
        {
          "internalType": "uint256",
          "name": "inputAmount",
          "type": "uint256"
        },
        {
          "internalType": "uint256",
          "name": "outputAmount",
          "type": "uint256"
        },
        {
          "internalType": "uint256",
          "name": "destinationChainId",
          "type": "uint256"
        },
        {
          "internalType": "address",
          "name": "exclusiveRelayer",
          "type": "address"
        },
        {
          "internalType": "uint32",
          "name": "quoteTimestamp",
          "type": "uint32"
        },
        {
          "internalType": "uint32",
          "name": "fillDeadline",
          "type": "uint32"
        },
        {
          "internalType": "uint32",
          "name": "exclusivityDeadline",
          "type": "uint32"
        },
        {
          "internalType": "bytes",
          "name": "message",
          "type": "bytes"
        }
      ],
      "name": "depositUSS",
      "outputs": [],
      "stateMutability": "payable",
      "type": "function"
    },
    {
      "inputs": [
        {
          "internalType": "uint256",
          "name": "rootBundleId",
          "type": "uint256"
        }
      ],
      "name": "emergencyDeleteRootBundle",
      "outputs": [],
      "stateMutability": "nonpayable",
      "type": "function"
    },
    {
      "inputs": [
        {
          "internalType": "address",
          "name": "",
          "type": "address"
        },
        {
          "internalType": "uint256",
          "name": "",
          "type": "uint256"
        }
      ],
      "name": "enabledDepositRoutes",
      "outputs": [
        {
          "internalType": "bool",
          "name": "",
          "type": "bool"
        }
      ],
      "stateMutability": "view",
      "type": "function"
    },
    {
      "inputs": [
        {
          "internalType": "uint32",
          "name": "rootBundleId",
          "type": "uint32"
        },
        {
          "components": [
            {
              "internalType": "uint256",
              "name": "amountToReturn",
              "type": "uint256"
            },
            {
              "internalType": "uint256",
              "name": "chainId",
              "type": "uint256"
            },
            {
              "internalType": "uint256[]",
              "name": "refundAmounts",
              "type": "uint256[]"
            },
            {
              "internalType": "uint32",
              "name": "leafId",
              "type": "uint32"
            },
            {
              "internalType": "address",
              "name": "l2TokenAddress",
              "type": "address"
            },
            {
              "internalType": "address[]",
              "name": "refundAddresses",
              "type": "address[]"
            }
          ],
          "internalType": "struct SpokePoolInterface.RelayerRefundLeaf",
          "name": "relayerRefundLeaf",
          "type": "tuple"
        },
        {
          "internalType": "bytes32[]",
          "name": "proof",
          "type": "bytes32[]"
        }
      ],
      "name": "executeRelayerRefundLeaf",
      "outputs": [],
      "stateMutability": "nonpayable",
      "type": "function"
    },
    {
      "inputs": [
        {
          "internalType": "address",
          "name": "depositor",
          "type": "address"
        },
        {
          "internalType": "address",
          "name": "recipient",
          "type": "address"
        },
        {
          "internalType": "address",
          "name": "destinationToken",
          "type": "address"
        },
        {
          "internalType": "uint256",
          "name": "amount",
          "type": "uint256"
        },
        {
          "internalType": "uint256",
          "name": "originChainId",
          "type": "uint256"
        },
        {
          "internalType": "int64",
          "name": "realizedLpFeePct",
          "type": "int64"
        },
        {
          "internalType": "int64",
          "name": "relayerFeePct",
          "type": "int64"
        },
        {
          "internalType": "uint32",
          "name": "depositId",
          "type": "uint32"
        },
        {
          "internalType": "uint32",
          "name": "rootBundleId",
          "type": "uint32"
        },
        {
          "internalType": "bytes",
          "name": "message",
          "type": "bytes"
        },
        {
          "internalType": "int256",
          "name": "payoutAdjustment",
          "type": "int256"
        },
        {
          "internalType": "bytes32[]",
          "name": "proof",
          "type": "bytes32[]"
        }
      ],
      "name": "executeSlowRelayLeaf",
      "outputs": [],
      "stateMutability": "nonpayable",
      "type": "function"
    },
    {
      "inputs": [
        {
          "internalType": "uint32",
          "name": "rootBundleId",
          "type": "uint32"
        },
        {
          "components": [
            {
              "internalType": "uint256",
              "name": "amountToReturn",
              "type": "uint256"
            },
            {
              "internalType": "uint256",
              "name": "chainId",
              "type": "uint256"
            },
            {
              "internalType": "uint256[]",
              "name": "refundAmounts",
              "type": "uint256[]"
            },
            {
              "internalType": "uint32",
              "name": "leafId",
              "type": "uint32"
            },
            {
              "internalType": "address",
              "name": "l2TokenAddress",
              "type": "address"
            },
            {
              "internalType": "address[]",
              "name": "refundAddresses",
              "type": "address[]"
            },
            {
              "internalType": "bytes32",
              "name": "fillsRefundedRoot",
              "type": "bytes32"
            },
            {
              "internalType": "string",
              "name": "fillsRefundedHash",
              "type": "string"
            }
          ],
          "internalType": "struct USSSpokePoolInterface.USSRelayerRefundLeaf",
          "name": "relayerRefundLeaf",
          "type": "tuple"
        },
        {
          "internalType": "bytes32[]",
          "name": "proof",
          "type": "bytes32[]"
        }
      ],
      "name": "executeUSSRelayerRefundLeaf",
      "outputs": [],
      "stateMutability": "nonpayable",
      "type": "function"
    },
    {
      "inputs": [
        {
          "components": [
            {
              "components": [
                {
                  "internalType": "address",
                  "name": "depositor",
                  "type": "address"
                },
                {
                  "internalType": "address",
                  "name": "recipient",
                  "type": "address"
                },
                {
                  "internalType": "address",
                  "name": "exclusiveRelayer",
                  "type": "address"
                },
                {
                  "internalType": "address",
                  "name": "inputToken",
                  "type": "address"
                },
                {
                  "internalType": "address",
                  "name": "outputToken",
                  "type": "address"
                },
                {
                  "internalType": "uint256",
                  "name": "inputAmount",
                  "type": "uint256"
                },
                {
                  "internalType": "uint256",
                  "name": "outputAmount",
                  "type": "uint256"
                },
                {
                  "internalType": "uint256",
                  "name": "originChainId",
                  "type": "uint256"
                },
                {
                  "internalType": "uint256",
                  "name": "destinationChainId",
                  "type": "uint256"
                },
                {
                  "internalType": "uint32",
                  "name": "depositId",
                  "type": "uint32"
                },
                {
                  "internalType": "uint32",
                  "name": "fillDeadline",
                  "type": "uint32"
                },
                {
                  "internalType": "uint32",
                  "name": "exclusivityDeadline",
                  "type": "uint32"
                },
                {
                  "internalType": "bytes",
                  "name": "message",
                  "type": "bytes"
                }
              ],
              "internalType": "struct USSSpokePoolInterface.USSRelayData",
              "name": "relayData",
              "type": "tuple"
            },
            {
              "internalType": "uint256",
              "name": "updatedOutputAmount",
              "type": "uint256"
            }
          ],
          "internalType": "struct USSSpokePoolInterface.USSSlowFill",
          "name": "slowFillLeaf",
          "type": "tuple"
        },
        {
          "internalType": "uint32",
          "name": "rootBundleId",
          "type": "uint32"
        },
        {
          "internalType": "bytes32[]",
          "name": "proof",
          "type": "bytes32[]"
        }
      ],
      "name": "executeUSSSlowRelayLeaf",
      "outputs": [],
      "stateMutability": "nonpayable",
      "type": "function"
    },
    {
      "inputs": [
        {
          "internalType": "address",
          "name": "",
          "type": "address"
        }
      ],
      "name": "fillCounter",
      "outputs": [
        {
          "internalType": "uint256",
          "name": "",
          "type": "uint256"
        }
      ],
      "stateMutability": "view",
      "type": "function"
    },
    {
      "inputs": [],
      "name": "fillDeadlineBuffer",
      "outputs": [
        {
          "internalType": "uint32",
          "name": "",
          "type": "uint32"
        }
      ],
      "stateMutability": "view",
      "type": "function"
    },
    {
      "inputs": [
        {
          "internalType": "address",
          "name": "depositor",
          "type": "address"
        },
        {
          "internalType": "address",
          "name": "recipient",
          "type": "address"
        },
        {
          "internalType": "address",
          "name": "destinationToken",
          "type": "address"
        },
        {
          "internalType": "uint256",
          "name": "amount",
          "type": "uint256"
        },
        {
          "internalType": "uint256",
          "name": "maxTokensToSend",
          "type": "uint256"
        },
        {
          "internalType": "uint256",
          "name": "repaymentChainId",
          "type": "uint256"
        },
        {
          "internalType": "uint256",
          "name": "originChainId",
          "type": "uint256"
        },
        {
          "internalType": "int64",
          "name": "realizedLpFeePct",
          "type": "int64"
        },
        {
          "internalType": "int64",
          "name": "relayerFeePct",
          "type": "int64"
        },
        {
          "internalType": "uint32",
          "name": "depositId",
          "type": "uint32"
        },
        {
          "internalType": "bytes",
          "name": "message",
          "type": "bytes"
        },
        {
          "internalType": "uint256",
          "name": "maxCount",
          "type": "uint256"
        }
      ],
      "name": "fillRelay",
      "outputs": [],
      "stateMutability": "nonpayable",
      "type": "function"
    },
    {
      "inputs": [
        {
          "internalType": "address",
          "name": "depositor",
          "type": "address"
        },
        {
          "internalType": "address",
          "name": "recipient",
          "type": "address"
        },
        {
          "internalType": "address",
          "name": "updatedRecipient",
          "type": "address"
        },
        {
          "internalType": "address",
          "name": "destinationToken",
          "type": "address"
        },
        {
          "internalType": "uint256",
          "name": "amount",
          "type": "uint256"
        },
        {
          "internalType": "uint256",
          "name": "maxTokensToSend",
          "type": "uint256"
        },
        {
          "internalType": "uint256",
          "name": "repaymentChainId",
          "type": "uint256"
        },
        {
          "internalType": "uint256",
          "name": "originChainId",
          "type": "uint256"
        },
        {
          "internalType": "int64",
          "name": "realizedLpFeePct",
          "type": "int64"
        },
        {
          "internalType": "int64",
          "name": "relayerFeePct",
          "type": "int64"
        },
        {
          "internalType": "int64",
          "name": "updatedRelayerFeePct",
          "type": "int64"
        },
        {
          "internalType": "uint32",
          "name": "depositId",
          "type": "uint32"
        },
        {
          "internalType": "bytes",
          "name": "message",
          "type": "bytes"
        },
        {
          "internalType": "bytes",
          "name": "updatedMessage",
          "type": "bytes"
        },
        {
          "internalType": "bytes",
          "name": "depositorSignature",
          "type": "bytes"
        },
        {
          "internalType": "uint256",
          "name": "maxCount",
          "type": "uint256"
        }
      ],
      "name": "fillRelayWithUpdatedDeposit",
      "outputs": [],
      "stateMutability": "nonpayable",
      "type": "function"
    },
    {
      "inputs": [
        {
          "internalType": "bytes32",
          "name": "",
          "type": "bytes32"
        }
      ],
      "name": "fillStatuses",
      "outputs": [
        {
          "internalType": "uint256",
          "name": "",
          "type": "uint256"
        }
      ],
      "stateMutability": "view",
      "type": "function"
    },
    {
      "inputs": [
        {
          "components": [
            {
              "internalType": "address",
              "name": "depositor",
              "type": "address"
            },
            {
              "internalType": "address",
              "name": "recipient",
              "type": "address"
            },
            {
              "internalType": "address",
              "name": "exclusiveRelayer",
              "type": "address"
            },
            {
              "internalType": "address",
              "name": "inputToken",
              "type": "address"
            },
            {
              "internalType": "address",
              "name": "outputToken",
              "type": "address"
            },
            {
              "internalType": "uint256",
              "name": "inputAmount",
              "type": "uint256"
            },
            {
              "internalType": "uint256",
              "name": "outputAmount",
              "type": "uint256"
            },
            {
              "internalType": "uint256",
              "name": "originChainId",
              "type": "uint256"
            },
            {
              "internalType": "uint256",
              "name": "destinationChainId",
              "type": "uint256"
            },
            {
              "internalType": "uint32",
              "name": "depositId",
              "type": "uint32"
            },
            {
              "internalType": "uint32",
              "name": "fillDeadline",
              "type": "uint32"
            },
            {
              "internalType": "uint32",
              "name": "exclusivityDeadline",
              "type": "uint32"
            },
            {
              "internalType": "bytes",
              "name": "message",
              "type": "bytes"
            }
          ],
          "internalType": "struct USSSpokePoolInterface.USSRelayData",
          "name": "relayData",
          "type": "tuple"
        },
        {
          "internalType": "uint256",
          "name": "repaymentChainId",
          "type": "uint256"
        }
      ],
      "name": "fillUSSRelay",
      "outputs": [],
      "stateMutability": "nonpayable",
      "type": "function"
    },
    {
      "inputs": [],
      "name": "getCurrentTime",
      "outputs": [
        {
          "internalType": "uint256",
          "name": "",
          "type": "uint256"
        }
      ],
      "stateMutability": "view",
      "type": "function"
    },
    {
      "inputs": [],
      "name": "hubPool",
      "outputs": [
        {
          "internalType": "address",
          "name": "",
          "type": "address"
        }
      ],
      "stateMutability": "view",
      "type": "function"
    },
    {
      "inputs": [
        {
          "internalType": "uint32",
          "name": "_initialDepositId",
          "type": "uint32"
        },
        {
          "internalType": "address",
          "name": "_hubPool",
          "type": "address"
        }
      ],
      "name": "initialize",
      "outputs": [],
      "stateMutability": "nonpayable",
      "type": "function"
    },
    {
      "inputs": [
        {
          "internalType": "bytes[]",
          "name": "data",
          "type": "bytes[]"
        }
      ],
      "name": "multicall",
      "outputs": [
        {
          "internalType": "bytes[]",
          "name": "results",
          "type": "bytes[]"
        }
      ],
      "stateMutability": "nonpayable",
      "type": "function"
    },
    {
      "inputs": [],
      "name": "numberOfDeposits",
      "outputs": [
        {
          "internalType": "uint32",
          "name": "",
          "type": "uint32"
        }
      ],
      "stateMutability": "view",
      "type": "function"
    },
    {
      "inputs": [],
      "name": "owner",
      "outputs": [
        {
          "internalType": "address",
          "name": "",
          "type": "address"
        }
      ],
      "stateMutability": "view",
      "type": "function"
    },
    {
      "inputs": [
        {
          "internalType": "bool",
          "name": "pause",
          "type": "bool"
        }
      ],
      "name": "pauseDeposits",
      "outputs": [],
      "stateMutability": "nonpayable",
      "type": "function"
    },
    {
      "inputs": [
        {
          "internalType": "bool",
          "name": "pause",
          "type": "bool"
        }
      ],
      "name": "pauseFills",
      "outputs": [],
      "stateMutability": "nonpayable",
      "type": "function"
    },
    {
      "inputs": [],
      "name": "pausedDeposits",
      "outputs": [
        {
          "internalType": "bool",
          "name": "",
          "type": "bool"
        }
      ],
      "stateMutability": "view",
      "type": "function"
    },
    {
      "inputs": [],
      "name": "pausedFills",
      "outputs": [
        {
          "internalType": "bool",
          "name": "",
          "type": "bool"
        }
      ],
      "stateMutability": "view",
      "type": "function"
    },
    {
      "inputs": [],
      "name": "proxiableUUID",
      "outputs": [
        {
          "internalType": "bytes32",
          "name": "",
          "type": "bytes32"
        }
      ],
      "stateMutability": "view",
      "type": "function"
    },
    {
      "inputs": [
        {
          "internalType": "bytes32",
          "name": "",
          "type": "bytes32"
        }
      ],
      "name": "refundsRequested",
      "outputs": [
        {
          "internalType": "uint256",
          "name": "",
          "type": "uint256"
        }
      ],
      "stateMutability": "view",
      "type": "function"
    },
    {
      "inputs": [
        {
          "internalType": "bytes32",
          "name": "relayerRefundRoot",
          "type": "bytes32"
        },
        {
          "internalType": "bytes32",
          "name": "slowRelayRoot",
          "type": "bytes32"
        }
      ],
      "name": "relayRootBundle",
      "outputs": [],
      "stateMutability": "nonpayable",
      "type": "function"
    },
    {
      "inputs": [],
      "name": "renounceOwnership",
      "outputs": [],
      "stateMutability": "nonpayable",
      "type": "function"
    },
    {
      "inputs": [
        {
          "internalType": "address",
          "name": "refundToken",
          "type": "address"
        },
        {
          "internalType": "uint256",
          "name": "amount",
          "type": "uint256"
        },
        {
          "internalType": "uint256",
          "name": "originChainId",
          "type": "uint256"
        },
        {
          "internalType": "uint256",
          "name": "destinationChainId",
          "type": "uint256"
        },
        {
          "internalType": "int64",
          "name": "realizedLpFeePct",
          "type": "int64"
        },
        {
          "internalType": "uint32",
          "name": "depositId",
          "type": "uint32"
        },
        {
          "internalType": "uint256",
          "name": "fillBlock",
          "type": "uint256"
        },
        {
          "internalType": "uint256",
          "name": "maxCount",
          "type": "uint256"
        }
      ],
      "name": "requestRefund",
      "outputs": [],
      "stateMutability": "nonpayable",
      "type": "function"
    },
    {
      "inputs": [
        {
          "components": [
            {
              "internalType": "address",
              "name": "depositor",
              "type": "address"
            },
            {
              "internalType": "address",
              "name": "recipient",
              "type": "address"
            },
            {
              "internalType": "address",
              "name": "exclusiveRelayer",
              "type": "address"
            },
            {
              "internalType": "address",
              "name": "inputToken",
              "type": "address"
            },
            {
              "internalType": "address",
              "name": "outputToken",
              "type": "address"
            },
            {
              "internalType": "uint256",
              "name": "inputAmount",
              "type": "uint256"
            },
            {
              "internalType": "uint256",
              "name": "outputAmount",
              "type": "uint256"
            },
            {
              "internalType": "uint256",
              "name": "originChainId",
              "type": "uint256"
            },
            {
              "internalType": "uint256",
              "name": "destinationChainId",
              "type": "uint256"
            },
            {
              "internalType": "uint32",
              "name": "depositId",
              "type": "uint32"
            },
            {
              "internalType": "uint32",
              "name": "fillDeadline",
              "type": "uint32"
            },
            {
              "internalType": "uint32",
              "name": "exclusivityDeadline",
              "type": "uint32"
            },
            {
              "internalType": "bytes",
              "name": "message",
              "type": "bytes"
            }
          ],
          "internalType": "struct USSSpokePoolInterface.USSRelayData",
          "name": "relayData",
          "type": "tuple"
        }
      ],
      "name": "requestUSSSlowFill",
      "outputs": [],
      "stateMutability": "nonpayable",
      "type": "function"
    },
    {
      "inputs": [
        {
          "internalType": "uint256",
          "name": "",
          "type": "uint256"
        }
      ],
      "name": "rootBundles",
      "outputs": [
        {
          "internalType": "bytes32",
          "name": "slowRelayRoot",
          "type": "bytes32"
        },
        {
          "internalType": "bytes32",
          "name": "relayerRefundRoot",
          "type": "bytes32"
        }
      ],
      "stateMutability": "view",
      "type": "function"
    },
    {
      "inputs": [
        {
          "internalType": "address",
          "name": "newCrossDomainAdmin",
          "type": "address"
        }
      ],
      "name": "setCrossDomainAdmin",
      "outputs": [],
      "stateMutability": "nonpayable",
      "type": "function"
    },
    {
      "inputs": [
        {
          "internalType": "address",
          "name": "originToken",
          "type": "address"
        },
        {
          "internalType": "uint256",
          "name": "destinationChainId",
          "type": "uint256"
        },
        {
          "internalType": "bool",
          "name": "enabled",
          "type": "bool"
        }
      ],
      "name": "setEnableRoute",
      "outputs": [],
      "stateMutability": "nonpayable",
      "type": "function"
    },
    {
      "inputs": [
        {
          "internalType": "address",
          "name": "newHubPool",
          "type": "address"
        }
      ],
      "name": "setHubPool",
      "outputs": [],
      "stateMutability": "nonpayable",
      "type": "function"
    },
    {
      "inputs": [
        {
          "internalType": "address",
          "name": "depositor",
          "type": "address"
        },
        {
          "internalType": "int64",
          "name": "updatedRelayerFeePct",
          "type": "int64"
        },
        {
          "internalType": "uint32",
          "name": "depositId",
          "type": "uint32"
        },
        {
          "internalType": "address",
          "name": "updatedRecipient",
          "type": "address"
        },
        {
          "internalType": "bytes",
          "name": "updatedMessage",
          "type": "bytes"
        },
        {
          "internalType": "bytes",
          "name": "depositorSignature",
          "type": "bytes"
        }
      ],
      "name": "speedUpDeposit",
      "outputs": [],
      "stateMutability": "nonpayable",
      "type": "function"
    },
    {
      "inputs": [
        {
          "internalType": "address",
          "name": "newOwner",
          "type": "address"
        }
      ],
      "name": "transferOwnership",
      "outputs": [],
      "stateMutability": "nonpayable",
      "type": "function"
    },
    {
      "inputs": [
        {
          "internalType": "address",
          "name": "newImplementation",
          "type": "address"
        }
      ],
      "name": "upgradeTo",
      "outputs": [],
      "stateMutability": "nonpayable",
      "type": "function"
    },
    {
      "inputs": [
        {
          "internalType": "address",
          "name": "newImplementation",
          "type": "address"
        },
        {
          "internalType": "bytes",
          "name": "data",
          "type": "bytes"
        }
      ],
      "name": "upgradeToAndCall",
      "outputs": [],
      "stateMutability": "payable",
      "type": "function"
    },
    {
      "inputs": [],
      "name": "wrappedNativeToken",
      "outputs": [
        {
          "internalType": "contract WETH9Interface",
          "name": "",
          "type": "address"
        }
      ],
      "stateMutability": "view",
      "type": "function"
    },
    {
      "stateMutability": "payable",
      "type": "receive"
    }
  ],
  "numDeployments": 3,
  "solcInputHash": "2612d7a486b71566f6fb1e0fffc9f5ae",
  "bytecode": "0x61010034620001b557601f62005e4738819003918201601f19168301916001600160401b03831184841017620001b957808492606094604052833981010312620001b55780516001600160a01b0381169190829003620001b5576200007560406200006d60208401620001cd565b9201620001cd565b913060805260a05260c05260e0525f5460ff8160081c16620001605760ff8082160362000125575b604051615c679081620001e08239608051818181610ba601528181610f1a0152611108015260a0518181816108a101528181612aeb015281816139e70152818161443901528181614ee4015281816151a301528181615756015261577d015260c05181818161127501528181612a850152613971015260e0518181816103680152612ab10152f35b60ff90811916175f557f7f26b83ff96e1f2b6a682f133852f6798a09c465da95921460cefb3847402498602060405160ff8152a15f6200009d565b60405162461bcd60e51b815260206004820152602760248201527f496e697469616c697a61626c653a20636f6e747261637420697320696e697469604482015266616c697a696e6760c81b6064820152608490fd5b5f80fd5b634e487b7160e01b5f52604160045260245ffd5b519063ffffffff82168203620001b55756fe6080604052600436101561001a575b3615610018575f80fd5b005b5f3560e01c8063079bd2c7146103395780630c2097f7146103345780631186ec331461032f57806317fcb39b1461032a5780631b3d5559146103255780631dfb2d021461032057806323cd9a471461031b578063272751c71461031657806329cb924d146103115780633659cfe61461030c57806344b8be6814610307578063486424b514610302578063493a4f84146102fd5780634f1ef286146102f85780635249fef1146102f35780635285e058146102ee57806352d1902d146102e9578063541f4f14146102e457806357f6dcb8146102df5780635ceaec32146102da5780636068d6cb146102d5578063715018a6146102d0578063738b62e5146102cb5780637e688bba146102c65780638624c35c146102c1578063872af6ea146102bc5780638a7860ce146102b75780638da5cb5b146102b2578063979f2bc2146102ad57806399cc2968146102a85780639a8a0592146102a3578063a1244c671461029e578063a50bd16214610299578063a634893f14610294578063a78e4b601461028f578063ab2b88621461028a578063ac9650d814610285578063ae527fbb14610280578063b5e1bf5f1461027b578063c0a8bdd114610276578063c35c83fc14610271578063c5b9709c1461026c578063dda5211314610267578063ddd224f114610262578063de7eba781461025d578063e190440214610258578063e97adbd514610253578063ee2a53f81461024e578063f2fde38b146102495763fd7c10540361000e57612432565b61238f565b612351565b61210a565b6120e3565b6120b7565b61208e565b612068565b611f63565b611f38565b611eff565b611ed4565b611e56565b611df0565b611c04565b611bca565b611a2f565b61199f565b61188d565b611873565b6117c5565b6116dc565b6116b5565b61163d565b611604565b61151a565b611496565b6113e7565b61138c565b611366565b611299565b611259565b6111c7565b6110ee565b6110c7565b61107d565b610ed9565b610e52565b610db5565b610d2d565b610b81565b610b67565b610acc565b610a97565b610a66565b61098d565b610882565b6107fa565b610754565b61034c565b5f91031261034857565b5f80fd5b34610348575f36600319011261034857602060405163ffffffff7f0000000000000000000000000000000000000000000000000000000000000000168152f35b600435906001600160a01b038216820361034857565b602435906001600160a01b038216820361034857565b604435906001600160a01b038216820361034857565b606435906001600160a01b038216820361034857565b35906001600160a01b038216820361034857565b60a435908160070b820361034857565b608435908160070b820361034857565b61010435908160070b820361034857565b61012435908160070b820361034857565b61014435908160070b820361034857565b60e4359063ffffffff8216820361034857565b610104359063ffffffff8216820361034857565b60a4359063ffffffff8216820361034857565b6004359063ffffffff8216820361034857565b610124359063ffffffff8216820361034857565b610164359063ffffffff8216820361034857565b6024359063ffffffff8216820361034857565b359063ffffffff8216820361034857565b634e487b7160e01b5f52604160045260245ffd5b6040810190811067ffffffffffffffff82111761051457604052565b6104e4565b67ffffffffffffffff811161051457604052565b60a0810190811067ffffffffffffffff82111761051457604052565b6080810190811067ffffffffffffffff82111761051457604052565b6020810190811067ffffffffffffffff82111761051457604052565b60e0810190811067ffffffffffffffff82111761051457604052565b6060810190811067ffffffffffffffff82111761051457604052565b90601f8019910116810190811067ffffffffffffffff82111761051457604052565b6040519060c0820182811067ffffffffffffffff82111761051457604052565b604051906101a0820182811067ffffffffffffffff82111761051457604052565b60405190610100820182811067ffffffffffffffff82111761051457604052565b60405190610140820182811067ffffffffffffffff82111761051457604052565b6040519061066b8261052d565b565b6040519061066b82610549565b67ffffffffffffffff811161051457601f01601f191660200190565b81601f82011215610348578035906106ad8261067a565b926106bb60405194856105b9565b8284526020838301011161034857815f926020809301838601378301015290565b67ffffffffffffffff81116105145760051b60200190565b9080601f8301121561034857602090823561070e816106dc565b9361071c60405195866105b9565b81855260208086019260051b82010192831161034857602001905b828210610745575050505090565b81358152908301908301610737565b34610348576101803660031901126103485761076e61038c565b6107766103a2565b9061077f6103b8565b6107876103f8565b9260c4358060070b81036103485761079d61044b565b6107a561045e565b91610124359667ffffffffffffffff97888111610348576107ca903690600401610696565b9461016435988911610348576107e76100189936906004016106f4565b97610144359760843592606435926124bb565b6101003660031901126103485761080f61038c565b6108176103a2565b90610820610408565b91610829610472565b60c4359367ffffffffffffffff85116103485761084d61087b953690600401610696565b92610856613736565b61086960ff61086b5460e81c16156125ca565b60e435946064359160443591336138ca565b6001606555005b34610348575f3660031901126103485760206040516001600160a01b037f0000000000000000000000000000000000000000000000000000000000000000168152f35b9080601f830112156103485760209082356108df816106dc565b936108ed60405195866105b9565b81855260208086019260051b82010192831161034857602001905b828210610916575050505090565b81358152908301908301610908565b9080601f8301121561034857602090823561093f816106dc565b9361094d60405195866105b9565b81855260208086019260051b82010192831161034857602001905b828210610976575050505090565b838091610982846103e4565b815201910190610968565b3461034857600319606036820112610348576109a7610485565b60243567ffffffffffffffff928382116103485760c0908236030112610348576109cf6105db565b9080600401358252602481013560208301526044810135848111610348576109fd90600436918401016108c5565b6040830152610a0e606482016104d3565b6060830152610a1f608482016103e4565b608083015260a481013590848211610348576004610a409236920101610925565b60a082015260443592831161034857610a606100189336906004016106f4565b91612615565b346103485760203660031901126103485761087b610a8261038c565b610a8a614a17565b610a92613736565b613d6e565b34610348576020366003190112610348576004355f52610872602052602060405f2054604051908152f35b8015150361034857565b3461034857606036600319011261034857610ae561038c565b602435907f0a21fdd43d0ad0c62689ee7230a47309a050755bcc52eba00310add65297692a60206001600160a01b0360443593610b2185610ac2565b610b29614a17565b610b31613736565b1692835f5261086d825260405f20855f52825260405f209015159060ff1981541660ff8316179055604051908152a36001606555005b34610348575f366003190112610348576020604051428152f35b3461034857602036600319011261034857610b9a61038c565b6001600160a01b0390817f00000000000000000000000000000000000000000000000000000000000000001691610bd3833014156127e1565b610c027f360894a13ba1a3210667c828492db98dca3e2076cc3735a920a3ca505d382bbc938285541614612852565b610c0a614a17565b60405190610c1782610565565b5f82527f4910fdfa16fed3260ed0e7147f7cc6da11a60208b5b9406d12a635614ffd91435460ff1615610c505750506100189150615640565b6020600491604094939451928380926352d1902d60e01b825286165afa5f9181610cfc575b50610ce95760405162461bcd60e51b815260206004820152602e60248201527f45524331393637557067726164653a206e657720696d706c656d656e7461746960448201527f6f6e206973206e6f7420555550530000000000000000000000000000000000006064820152608490fd5b0390fd5b61001893610cf79114613e09565b61551f565b610d1f91925060203d602011610d26575b610d1781836105b9565b810190613dfa565b905f610c75565b503d610d0d565b346103485761018036600319011261034857610d4761038c565b610d4f6103a2565b610d576103b8565b60e4358060070b810361034857610d6c610418565b610d74610498565b91610144359567ffffffffffffffff871161034857610d9a610018973690600401610696565b94610164359660c4359260a4359260843592606435926128c3565b61018036600319011261034857610dca61038c565b610dd26103a2565b610dda6103b8565b90610de36103ce565b9160e4356001600160a01b038116810361034857610dff61045e565b90610e08610498565b92610144359463ffffffff8616860361034857610164359767ffffffffffffffff891161034857610e40610018993690600401610696565b9760c4359360a4359360843593612a08565b3461034857604036600319011261034857602435600435610e71614a17565b610e79613736565b61086c8054680100000000000000008110156105145763ffffffff9160018201905583610ea582612312565b5084600182015555167fc86ba04c55bc5eb2f2876b91c438849a296dbec7b08751c3074d92e04f0a77af5f80a46001606555005b604036600319011261034857610eed61038c565b60243567ffffffffffffffff811161034857610f0d903690600401610696565b906001600160a01b0391827f00000000000000000000000000000000000000000000000000000000000000001692610f47843014156127e1565b610f767f360894a13ba1a3210667c828492db98dca3e2076cc3735a920a3ca505d382bbc948286541614612852565b610f7e614a17565b7f4910fdfa16fed3260ed0e7147f7cc6da11a60208b5b9406d12a635614ffd91435460ff1615610fb45750506100189150615640565b6020600491604094939451928380926352d1902d60e01b825286165afa5f918161105c575b506110495760405162461bcd60e51b815260206004820152602e60248201527f45524331393637557067726164653a206e657720696d706c656d656e7461746960448201527f6f6e206973206e6f7420555550530000000000000000000000000000000000006064820152608490fd5b610018936110579114613e09565b6155ee565b61107691925060203d602011610d2657610d1781836105b9565b905f610fd9565b34610348576040366003190112610348576001600160a01b0361109e61038c565b165f5261086d60205260405f206024355f52602052602060ff60405f2054166040519015158152f35b34610348575f3660031901126103485760206001600160a01b036108695416604051908152f35b34610348575f366003190112610348576001600160a01b037f000000000000000000000000000000000000000000000000000000000000000016300361115d576040517f360894a13ba1a3210667c828492db98dca3e2076cc3735a920a3ca505d382bbc8152602090f35b0390f35b608460405162461bcd60e51b815260206004820152603860248201527f555550535570677261646561626c653a206d757374206e6f742062652063616c60448201527f6c6564207468726f7567682064656c656761746563616c6c00000000000000006064820152fd5b610120366003190112610348576111dc61038c565b6111e46103a2565b906111ed6103b8565b906111f66103f8565b60c4359063ffffffff821682036103485760e4359467ffffffffffffffff86116103485761122b61087b963690600401610696565b93611234613736565b61124760ff61086b5460e81c16156125ca565b610104359560843592606435926138ca565b34610348575f36600319011261034857602060405163ffffffff7f0000000000000000000000000000000000000000000000000000000000000000168152f35b3461034857610200366003190112610348576112b361038c565b6112bb6103a2565b906112c46103b8565b916112cd6103ce565b926112d6610418565b936112df610429565b6112e761043a565b6112ef6104ac565b91610184359767ffffffffffffffff9889811161034857611314903690600401610696565b946101a4358a81116103485761132e903690600401610696565b966101c4359a8b116103485761134b6100189b3690600401610696565b986101e4359a60e4359360c4359360a4359360843593612d6b565b34610348575f36600319011261034857602060ff61086b5460e81c166040519015158152f35b34610348575f366003190112610348576113a4614a17565b5f6001600160a01b03610c8d8054906001600160a01b031982169055167f8be0079c531659141344cd1fd0a4f28419497f9722a3daafe3b4186f6b6457e08280a3005b34610348576020366003190112610348577fe88463c2f254e2b070013a2dc7ee1e099f9bc00534cbdf03af551dc26ae49219602060043561142781610ac2565b61142f614a17565b611437613736565b151561086b80547fffff00ffffffffffffffffffffffffffffffffffffffffffffffffffffffffff7dff00000000000000000000000000000000000000000000000000000000008460e81b169116179055604051908152a16001606555005b346103485760c0366003190112610348576114af61038c565b602435908160070b8203610348576044359163ffffffff83168303610348576114d66103ce565b67ffffffffffffffff93608435858111610348576114f8903690600401610696565b9260a43595861161034857611514610018963690600401610696565b94612e67565b3461034857604036600319011261034857611533610485565b61157c61153e6103a2565b5f549261156260ff8560081c1615809581966115f6575b81156115d6575b50612f5e565b83611573600160ff195f5416175f55565b6115bf57612fcf565b61158257005b61159061ff00195f54165f55565b604051600181527f7f26b83ff96e1f2b6a682f133852f6798a09c465da95921460cefb384740249890602090a1005b6115d161010061ff00195f5416175f55565b612fcf565b303b159150816115e8575b505f61155c565b6001915060ff16145f6115e1565b600160ff8216109150611555565b34610348576020366003190112610348576001600160a01b0361162561038c565b165f52610870602052602060405f2054604051908152f35b3461034857602036600319011261034857600435611659614a17565b611661613736565b61166a81612312565b6116a2576001815f80935501557f3569b846531b754c99cb80df3f49cd72fa6fe106aaee5ab8e0caf35a9d7ce88d5f80a26001606555005b634e487b7160e01b5f525f60045260245ffd5b34610348575f3660031901126103485760206001600160a01b03610c8d5416604051908152f35b34610348576060366003190112610348576100186116f8610485565b610a926117036103a2565b61174261170e6103b8565b9361171f60ff5f5460081c16613086565b61086b9063ffffffff60c01b1963ffffffff60c01b83549260c01b169116179055565b60405161174e816104f8565b6009815260208101906820a1a927a9a996ab1960b91b825260405191611773836104f8565b600583526020830191640312e302e360dc1b83526117a060ff5f5460081c1661179b81613086565b613086565b519020915190209061047f55610480556117b8614ac7565b6117c0614ad7565b614af2565b34610348576020366003190112610348577f2d5b62420992e5a4afce0e77742636ca2608ef58289fd2e1baa5161ef6e7e41e602060043561180581610ac2565b61180d614a17565b611815613736565b151561086b80547fffffff00ffffffffffffffffffffffffffffffffffffffffffffffffffffffff7cff000000000000000000000000000000000000000000000000000000008460e01b169116179055604051908152a16001606555005b34610348575f366003190112610348576020604051468152f35b34610348575f36600319011261034857602063ffffffff61086b5460c01c16604051908152f35b91906101a083820312610348576118c96105fb565b926118d3816103e4565b84526118e1602082016103e4565b60208501526118f2604082016103e4565b6040850152611903606082016103e4565b6060850152611914608082016103e4565b608085015260a081013560a085015260c081013560c085015260e081013560e085015261010080820135908501526101206119508183016104d3565b908501526101406119628183016104d3565b908501526101606119748183016104d3565b90850152610180918282013567ffffffffffffffff8111610348576119999201610696565b90830152565b34610348576003196060368201126103485760043567ffffffffffffffff9182821161034857604090823603011261034857604051906119de826104f8565b806004013590838211610348576119fd602492600436918401016118b4565b835201356020820152611a0e6104c0565b60443592831161034857611a296100189336906004016106f4565b916130f7565b346103485761010036600319011261034857611a4961038c565b60243590604435907face81ce0f8b8d27a1aed0c4df5f6b2743e46fc50fe3e0183dd7cd6a7b9db22fb63ffffffff606435611bbd611a85610408565b91611a8e610472565b9260c43590611a9b613736565b611ab66ec097ce7bc90715b34b9f10000000008b1115613278565b6001600160a01b0388165f52610870602052611ada60e43560405f205411156132c3565b6040805133602082019081526001600160a01b038b1692820192909252606081018c9052608081018b905260a08101859052600783900b60c082015263ffffffff871660e08201526101008101849052611b599190611b478161012081015b03601f1981018352826105b9565b5190205f5261087260205260405f2090565b92835493611b668561330e565b9055611b738b151561331c565b611b7e89838d61529b565b604051968796169a3399879260a09491979695926001600160a01b0360c08601991685526020850152604084015260070b606083015260808201520152565b0390a46100186001606555565b34610348575f3660031901126103485760206040517f0e058f05b73c62ee68329d2c67c067aaae9a06503cc306378d144d0f0177882b8152f35b346103485760403660031901126103485760043567ffffffffffffffff811161034857611c359036906004016118b4565b611c3d613736565b611c5060ff61086b5460e01c16156129bd565b60408101516001600160a01b03166001600160a01b031633141580611d30575b611d0657611cfc904661010082015260c0810151611c9860208301516001600160a01b031690565b611ccc61018084015191611caa6105db565b94855260208501935f8552604086015260608501906001600160a01b03169052565b608083015260243560a08301528151604051611cf081611b39602082019485613267565b51902090523390614cea565b6100186001606555565b60046040517fc3a9b9d0000000000000000000000000000000000000000000000000000000008152fd5b506101608101514263ffffffff9091161015611c70565b5f5b838110611d585750505f910152565b8181015183820152602001611d49565b90602091611d8181518092818552858086019101611d47565b601f01601f1916010190565b6020808201906020835283518092526040830192602060408460051b8301019501935f915b848310611dc25750505050505090565b9091929394958480611de0600193603f198682030187528a51611d68565b9801930193019194939290611db2565b346103485760203660031901126103485767ffffffffffffffff6004358181116103485736602382011215610348578060040135918211610348573660248360051b8301011161034857611159916024611e4a92016134b2565b60405191829182611d8d565b60e036600319011261034857611e6a61038c565b611e726103a2565b611e7a610408565b60a4359267ffffffffffffffff841161034857611e9e61087b943690600401610696565b91611ea7613736565b611eba60ff61086b5460e81c16156125ca565b60c4359363ffffffff4216926064359160443591336138ca565b34610348575f366003190112610348576020604051701d6329f1c35ca4bfabb9f56100000000008152f35b34610348576020366003190112610348576001600160a01b03611f2061038c565b165f52610871602052602060405f2054604051908152f35b34610348576020366003190112610348576004355f5261086f602052602060405f2054604051908152f35b346103485760031960603682011261034857611f7d610485565b60243567ffffffffffffffff928382116103485761010090823603011261034857611fa661061c565b908060040135825260248101356020830152604481013584811161034857611fd490600436918401016108c5565b6040830152611fe5606482016104d3565b6060830152611ff6608482016103e4565b608083015260a4810135848111610348576120179060043691840101610925565b60a083015260c481013560c083015260e4810135908482116103485760046120429236920101610696565b60e0820152604435928311610348576120626100189336906004016106f4565b9161355b565b34610348575f36600319011261034857602060ff61086b5460e01c166040519015158152f35b34610348575f3660031901126103485760206040516ec097ce7bc90715b34b9f10000000008152f35b346103485760203660031901126103485761087b6120d361038c565b6120db614a17565b6117c0613736565b34610348575f3660031901126103485760206001600160a01b0361086a5416604051908152f35b346103485760203660031901126103485760043567ffffffffffffffff81116103485761213b9036906004016118b4565b612143613736565b61215660ff61086b5460e01c16156129bd565b61014081019061216a825163ffffffff1690565b63ffffffff9081429116106122d457604051602081019061218f81611b398685613267565b519020906121a6825f5261086f60205260405f2090565b546122aa576121e86121e27fe4b7a167221330bacd6975b417a1f4cb0b64a529213adee334653b69556ed957935f5261086f60205260405f2090565b60019055565b60608301516001600160a01b03169361229d61220e60808601516001600160a01b031690565b60a08601519560c08101519660e08201519761224061223561012085015163ffffffff1690565b965163ffffffff1690565b61016084015163ffffffff169061226160408601516001600160a01b031690565b9261227386516001600160a01b031690565b9461018061228b60208901516001600160a01b031690565b970151976040519b8c9b169e8b6136ce565b0390a36100186001606555565b60046040517f012f9e44000000000000000000000000000000000000000000000000000000008152fd5b60046040517fd642b7d9000000000000000000000000000000000000000000000000000000008152fd5b634e487b7160e01b5f52603260045260245ffd5b61086c90815481101561234c576003915f52027f71cd7344f4eb2efc8e30291f6dbdb44d618ca368ea5425d217c1d604bf26b84d01905f90565b6122fe565b346103485760203660031901126103485760043561086c548110156103485761237b604091612312565b506001815491015482519182526020820152f35b34610348576020366003190112610348576123a861038c565b6123b0614a17565b6001600160a01b038116156123c85761001890614a70565b608460405162461bcd60e51b815260206004820152602660248201527f4f776e61626c653a206e6577206f776e657220697320746865207a65726f206160448201527f64647265737300000000000000000000000000000000000000000000000000006064820152fd5b6101003660031901126103485761244761038c565b61244f6103a2565b906124586103b8565b916124616103f8565b9260c4359367ffffffffffffffff85116103485761248661087b953690600401610696565b9261248f613736565b6124a260ff61086b5460e81c16156125ca565b60e4359463ffffffff42169360843592606435926138ca565b9a98959391999694929097996124cf613736565b6124d761063d565b6001600160a01b03909c168c526001600160a01b03891660208d01526001600160a01b031660408c015260608b015260808a01524660a08a015260070b60c089015260070b60e088015263ffffffff166101008781019190915261012091808389015261254261063d565b9788525f6020890181815260408a01919091526001600160a01b03909516606089015260808801525f60a0880152701d6329f1c35ca4bfabb9f561000000000060c08801525f1960e088015260019087015285015283516125a290613f18565b90526125ae91836153b8565b6125b781614207565b6125c09161475b565b61066b6001606555565b156125d157565b606460405162461bcd60e51b815260206004820152600f60248201527f506175736564206465706f7369747300000000000000000000000000000000006044820152fd5b9161261e613736565b602082019182519161265c61265860a08401926126448451966040870197885191613af1565b8460016126508a612312565b500154613bc4565b1590565b612725578161271860607fef58a0c572350b3e7cd0a4cb92368d9b834017a49338338f295d1a3e0535dcf49401926126a161269b855163ffffffff1690565b89613c48565b6126fe6126f08851946126e08151968a51976126c18a5163ffffffff1690565b60808501996126d78b516001600160a01b031690565b92895194613cb5565b5198519751955163ffffffff1690565b93516001600160a01b031690565b90519063ffffffff9485604051968796169a1698856127a5565b0390a461066b6001606555565b600460405163582f497d60e11b8152fd5b9081518082526020808093019301915f5b828110612755575050505090565b835185529381019392810192600101612747565b9081518082526020808093019301915f5b828110612788575050505090565b83516001600160a01b03168552938101939281019260010161277a565b906127ca6127de95936001600160a01b03928452608060208501526080840190612736565b931660408201526060818403910152612769565b90565b156127e857565b608460405162461bcd60e51b815260206004820152602c60248201527f46756e6374696f6e206d7573742062652063616c6c6564207468726f7567682060448201527f64656c656761746563616c6c00000000000000000000000000000000000000006064820152fd5b1561285957565b608460405162461bcd60e51b815260206004820152602c60248201527f46756e6374696f6e206d7573742062652063616c6c6564207468726f7567682060448201527f6163746976652070726f787900000000000000000000000000000000000000006064820152fd5b9a9692909897999395916128d5613736565b61086b5460e01c60ff16156128e9906129bd565b6128f161063d565b6001600160a01b03909c168c526001600160a01b038a1660208d01526001600160a01b031660408c015260608b015260808a01524660a08a015260070b60c0890152600787900b60e08901526101009485890190612954919063ffffffff169052565b6101209581878a015261296561063d565b9889525f60208a0190815260079890980b60408a01526001600160a01b03166060890152608088015260a087015260c086015260e085015283015f905282015f905281516129b290613f18565b90526125b781614207565b156129c457565b606460405162461bcd60e51b815260206004820152600c60248201527f5061757365642066696c6c7300000000000000000000000000000000000000006044820152fd5b96939a949799919598909299612a1c613736565b61086b98612a3160ff8b5460e81c16156125ca565b612a6b612658612a648d612a578c6001600160a01b03165f5261086d60205260405f2090565b905f5260205260405f2090565b5460ff1690565b612c865763ffffffff9c8d612a8281851642612cc4565b907f00000000000000000000000000000000000000000000000000000000000000001610612c5c578d612ad7817f00000000000000000000000000000000000000000000000000000000000000001642612cd6565b90851611612c32576001600160a01b039a8b7f000000000000000000000000000000000000000000000000000000000000000016828d8c1682811480612c29575b15612c1657503403612bec57803b15610348575f60049160405192838092630d0e30db60e41b825234905af18015612be757612bce575b505b5460c01c63ffffffff169d612b658f612cee565b612b8c9061086b9063ffffffff60c01b1963ffffffff60c01b83549260c01b169116179055565b6040519b8c9b169e169c612ba0998b612d03565b037fc289887301839694cf27e1d254c3b54c9bba4824f29bba3a63c2c138e7e4e18191a461066b6001606555565b80612bdb612be192610519565b8061033e565b5f612b4f565b612ce3565b60046040517f6452a35d000000000000000000000000000000000000000000000000000000008152fd5b612c249250309033906148b1565b612b51565b50341515612b18565b60046040517f582e3889000000000000000000000000000000000000000000000000000000008152fd5b60046040517ff722177f000000000000000000000000000000000000000000000000000000008152fd5b60046040517f2a58c4f3000000000000000000000000000000000000000000000000000000008152fd5b634e487b7160e01b5f52601160045260245ffd5b91908203918211612cd157565b612cb0565b91908201809211612cd157565b6040513d5f823e3d90fd5b63ffffffff809116908114612cd15760010190565b6001600160a01b03918216815291811660208301526040820192909252606081019290925263ffffffff928316608083015292821660a0820152921660c083015291821660e0820152911661010082015261014061012082018190526127de92910190611d68565b9d9c9b959e9390928e9799939b98929b612d83613736565b61086b5460e01c60ff1615612d97906129bd565b612d9f61063d565b6001600160a01b0390991689526001600160a01b031660208901526001600160a01b031660408801526060870152608086018890524660a087015260070b60c086015260070b60e085015263ffffffff851661010085810191909152916101209384860152612e0c61063d565b9485525f60208601908152600789900b60408701526001600160a01b038a166060870152949c8d8b608082015260a0015260c08d015260e08c01528a015f905289015f90528851612e5c90613f18565b90526125ae9661490e565b612f099063ffffffff7fa6aa57bd282fc82378458de27be4eadfa791a0c7321c49562eeba8b2643dd56695949796612e9d613736565b612ecb8882888860070b98612ec36706f05b59d3b20000612ebd8c614ab8565b10612f13565b468e8961490e565b612ef76001600160a01b0391826040519889988952166020880152608060408801526080870190611d68565b92858403606087015216971695611d68565b0390a36001606555565b15612f1a57565b606460405162461bcd60e51b815260206004820152601360248201527f496e76616c69642072656c6179657220666565000000000000000000000000006044820152fd5b15612f6557565b608460405162461bcd60e51b815260206004820152602e60248201527f496e697469616c697a61626c653a20636f6e747261637420697320616c72656160448201527f647920696e697469616c697a65640000000000000000000000000000000000006064820152fd5b9061300461066b92612feb60ff5f5460081c1661179b81613086565b612ff433614a70565b61171f60ff5f5460081c16613086565b604051613010816104f8565b6009815260208101906820a1a927a9a996ab1960b91b825260405191613035836104f8565b600583526020830191640312e302e360dc1b835261305d60ff5f5460081c1661179b81613086565b519020915190209061047f5561048055613075614ac7565b61307d614ad7565b610a9281614af2565b1561308d57565b608460405162461bcd60e51b815260206004820152602b60248201527f496e697469616c697a61626c653a20636f6e7472616374206973206e6f74206960448201527f6e697469616c697a696e670000000000000000000000000000000000000000006064820152fd5b906125c09261318b91613108613736565b602084519446610100870152015161312a60208601516001600160a01b031690565b61315e6101808701519161313c6105db565b97885260208801935f8552604089015260608801906001600160a01b03169052565b60808601525f60a0860152845160405161318081611b39602082019485613267565b519020905283614b7e565b614fe4565b80516001600160a01b031682526127de916101a0906020838101516001600160a01b0316908201526040838101516001600160a01b0316908201526060838101516001600160a01b0316908201526080838101516001600160a01b03169082015260a083015160a082015260c083015160c082015260e083015160e08201526101008084015190820152613232610120808501519083019063ffffffff169052565b6101408381015163ffffffff16908201526101608381015163ffffffff16908201528161018080940151938201520190611d68565b9060206127de928181520190613190565b1561327f57565b606460405162461bcd60e51b815260206004820152601060248201527f416d6f756e7420746f6f206c61726765000000000000000000000000000000006044820152fd5b156132ca57565b606460405162461bcd60e51b815260206004820152600f60248201527f41626f7665206d617820636f756e7400000000000000000000000000000000006044820152fd5b5f198114612cd15760010190565b1561332357565b606460405162461bcd60e51b815260206004820152601260248201527f416d6f756e74206d757374206265203e203000000000000000000000000000006044820152fd5b90613371826106dc565b61337e60405191826105b9565b828152809261338f601f19916106dc565b01905f5b82811061339f57505050565b806060602080938501015201613393565b919081101561234c5760051b81013590601e198136030182121561034857019081359167ffffffffffffffff8311610348576020018236038113610348579190565b908092918237015f815290565b3d15613429573d906134108261067a565b9161341e60405193846105b9565b82523d5f602084013e565b606090565b6020818303126103485780519067ffffffffffffffff8211610348570181601f820112156103485780516134618161067a565b9261346f60405194856105b9565b81845260208284010111610348576127de9160208085019101611d47565b9060206127de928181520190611d68565b805182101561234c5760209160051b010190565b9190916134be83613367565b925f5b8181106134cd57505050565b5f806134da8385876133b0565b604093916134ec8551809381936133f2565b0390305af4906134fa6133ff565b911561352157509060019161350f828861349e565b5261351a818761349e565b50016134c1565b90604481511061034857610ce56135466004928381015160248091830101910161342e565b925192839262461bcd60e51b8452830161348d565b91613564613736565b602082019182519161359e61265860a084019261358a8451966040870197885191613af1565b8460016135968a612312565b500154615314565b612725578161271860607f168b5e636f384f487d11ee278507b1ff985b7dc751a0fb6ef7ad1432e8dec1da9401926135dd61269b855163ffffffff1690565b8651926136168151948851956135f7885163ffffffff1690565b608085019761360d89516001600160a01b031690565b92875194613cb5565b61363b61362d825199519851965163ffffffff1690565b94516001600160a01b031690565b915160e060c08301519201519263ffffffff9687604051988998169c169a879290936001600160a01b03613684613698946127de9997875260c0602088015260c0870190612736565b921660408501528382036060850152612769565b92608082015260a0818403910152611d68565b634e487b7160e01b5f52602160045260245ffd5b600311156136c957565b6136ab565b96909193979295946127de9a9995610140996001600160a01b0398898098818098168d521660208c015260408b015260608a015263ffffffff80921660808a01521660a08801521660c08601521660e084015216610100820152816101208201520190611d68565b600260655414613747576002606555565b606460405162461bcd60e51b815260206004820152601f60248201527f5265656e7472616e637947756172643a207265656e7472616e742063616c6c006044820152fd5b1561379257565b606460405162461bcd60e51b815260206004820152600e60248201527f44697361626c656420726f7574650000000000000000000000000000000000006044820152fd5b156137dd57565b606460405162461bcd60e51b815260206004820152601660248201527f696e76616c69642071756f746554696d657374616d70000000000000000000006044820152fd5b1561382857565b606460405162461bcd60e51b815260206004820152601b60248201527f6d73672e76616c7565206d757374206d6174636820616d6f756e7400000000006044820152fd5b92936127de9695919294610140956001600160a01b0380951686525f60208701526040860152606085015263ffffffff809116608085015260a08401525f60c08401521660e08201525f610100820152816101208201520190611d68565b9291969093959794613959906139016138fc612a648a612a578d6001600160a01b03165f5261086d60205260405f2090565b61378b565b60070b9561391a6706f05b59d3b20000612ebd89614ab8565b6139356ec097ce7bc90715b34b9f1000000000851115613278565b613951896001600160a01b03165f5261087160205260405f2090565b5411156132c3565b63ffffffff9361399861396e868b1642612cc4565b867f00000000000000000000000000000000000000000000000000000000000000001610156137d6565b61086b5460c01c63ffffffff16986139b261171f8b612cee565b6139ce896001600160a01b03165f5261087160205260405f2090565b6139d9858254612cd6565b90556001600160a01b0395867f00000000000000000000000000000000000000000000000000000000000000001694878b1686811480613ae8575b15613aab5750613a25813414613821565b853b15610348575f60049660405197888092630d0e30db60e41b825234905af18015612be7577fc289887301839694cf27e1d254c3b54c9bba4824f29bba3a63c2c138e7e4e18199613a9397613a8292613a98575b505b8261544a565b91604051988998169c169a8761386c565b0390a4565b80612bdb613aa592610519565b5f613a7a565b613a9396507fc289887301839694cf27e1d254c3b54c9bba4824f29bba3a63c2c138e7e4e18199613ae383613a8293309033906148b1565b613a7c565b50341515613a14565b4603613b2b5751905103613b0157565b60046040517fcd298b38000000000000000000000000000000000000000000000000000000008152fd5b60046040517f7a47c9a2000000000000000000000000000000000000000000000000000000008152fd5b9081518082526020808093019301915f5b828110613b74575050505090565b835185529381019392810192600101613b66565b9081518082526020808093019301915f5b828110613ba7575050505090565b83516001600160a01b031685529381019392810192600101613b99565b6127de9291604051613c3f81611b39602082019460208652805160408401526020810151606084015260a0613c09604083015160c06080870152610100860190613b55565b606083015163ffffffff168583015260808301516001600160a01b031660c0860152910151838203603f190160e0850152613b88565b51902091615480565b613c53600291612312565b500162ffffff8260081c16805f5281602052600160ff60405f205494161b8080941614613c8b575f5260205260405f20908154179055565b60046040517f954476d9000000000000000000000000000000000000000000000000000000008152fd5b92919093948151915f5b838110613d2c575050505082613cd6575b50505050565b602063ffffffff7f7c3d4d7fa0beeb997103f1aeca4922365ea469a3e7e88db965a128bbe6a2f63292613d1a866001600160a01b038099169861086a5416896154d1565b6040519586521693a45f808080613cd0565b80613d396001928461349e565b5180613d47575b5001613cbf565b613d68906001600160a01b0380613d5e858961349e565b5116908c166154d1565b5f613d40565b6001600160a01b03168015613db65761086a816001600160a01b03198254161790557f1f17a88f67b0f49060a34bec1a4723a563620e6aa265eb640b5046dcee0759a05f80a2565b606460405162461bcd60e51b815260206004820152601460248201527f4261642068756220706f6f6c20616464726573730000000000000000000000006044820152fd5b90816020910312610348575190565b15613e1057565b608460405162461bcd60e51b815260206004820152602960248201527f45524331393637557067726164653a20756e737570706f727465642070726f7860448201527f6961626c655555494400000000000000000000000000000000000000000000006064820152fd5b80516001600160a01b031682526127de91610140906020838101516001600160a01b0316908201526040838101516001600160a01b031690820152606083015160608201526080830151608082015260a083015160a0820152613ee760c084015160c083019060070b9052565b60e08381015160070b908201526101008381015163ffffffff16908201528161012080940151938201520190611d68565b604051613f3581611b396020820194602086526040830190613e7a565b51902090565b15613f4257565b606460405162461bcd60e51b815260206004820152600c60248201527f696e76616c6964206665657300000000000000000000000000000000000000006044820152fd5b15613f8d57565b606460405162461bcd60e51b815260206004820152600c60248201527f72656c61792066696c6c656400000000000000000000000000000000000000006044820152fd5b9060070b9060070b0190677fffffffffffffff198212677fffffffffffffff831317612cd157565b1561400057565b606460405162461bcd60e51b815260206004820152601960248201527f66696c6c20616d6f756e742070726520666565732069732030000000000000006044820152fd5b1561404b57565b606460405162461bcd60e51b815260206004820152601d60248201527f7061796f757441646a7573746d656e7450637420746f6f20736d616c6c0000006044820152fd5b1561409657565b606460405162461bcd60e51b815260206004820152601d60248201527f7061796f757441646a7573746d656e7450637420746f6f206c617267650000006044820152fd5b7f80000000000000000000000000000000000000000000000000000000000000008114612cd1575f0390565b1561410d57565b606460405162461bcd60e51b815260206004820152601c60248201527f536f6d65686f7720686974206d6178546f6b656e73546f53656e6421000000006044820152fd5b1561415857565b606460405162461bcd60e51b815260206004820152601760248201527f696e76616c69642072657061796d656e7420636861696e0000000000000000006044820152fd5b906127de949360a0936001600160a01b0380931684526020840152600160408401521660608201528160808201520190611d68565b919360a0936127de96956001600160a01b0380941685526020850152151560408401521660608201528160808201520190611d68565b9081519160408101926142476706f05b59d3b200008061423961423461422e895160070b90565b60070b90565b614ab8565b109081614678575b50613f3b565b60608101906142686ec097ce7bc90715b34b9f100000000083511115613278565b602083019061428d61428483515f5261086e60205260405f2090565b54845111613f86565b60408101906142ce6142c16142a984516001600160a01b031690565b6001600160a01b03165f5261087060205260405f2090565b5460e087015110156132c3565b60c08501936142fd60c086519301926142f76142eb855160070b90565b8b5160070b5b90613fd1565b906156ed565b97614309891515613ff9565b614329825161432287515f5261086e60205260405f2090565b5490612cc4565b89811061466e575b5061435261422e614358926142f161434a875160070b90565b915160070b90565b8961544a565b946101208701805180614619575b5050506143dc60a08701519287519360a0850151148a8195821561460b575b505080156145f2575b61439790614151565b6143ab86515f5261086e60205260405f2090565b54906143ba8451915160070b90565b86516001600160a01b0316916101008b01966143d68851151590565b946152ce565b6143f084515f5261086e60205260405f2090565b6143fb898254612cd6565b90556060860180516001600160a01b0393908416338114806145df575b6145d457906144ab9291888661443589516001600160a01b031690565b16917f000000000000000000000000000000000000000000000000000000000000000088168303614584575050506126586144709151151590565b61455e575b61449e8761449961448d84516001600160a01b031690565b6001600160a01b031690565b61573b565b516001600160a01b031690565b91823b151580614550575b6144c4575b50505050505050565b6144dd6144ee916080941694516001600160a01b031690565b94515f5261086e60205260405f2090565b549051111594015193813b15610348575f8094614523604051978896879586946301d43f2760e31b86523392600487016141d1565b03925af18015612be75761453d575b8080808080806144bb565b80612bdb61454a92610519565b5f614532565b5060808701515115156144b6565b61457f8761457661448d88516001600160a01b031690565b309033906148b1565b614475565b9091926126586145949151151590565b156145cb57506145c691506145b361448d88516001600160a01b031690565b83516001600160a01b03169033906148b1565b61449e565b6145c6926154d1565b505050505050505050565b506145ed6126588351151590565b614418565b506143976146046101008a0151151590565b905061438e565b606001511490508a5f614385565b9661465661465c9261463a614666959a670de0b6b3a763ffff191315614044565b61465068056bc75e2d631000008251131561408f565b516140da565b9061544a565b9551861115614106565b5f8080614366565b9850614352614331565b905061468e61423461422e60c086015160070b90565b105f614241565b906001600160a01b0382511681526080806146bf602085015160a0602086015260a0850190611d68565b93604081015160070b6040850152606081015115156060850152015191015290565b9a97936127de9c9a9591979361474c9a979360208e6101809b8152015260408d015260608c015260808b015260070b60a08a015260070b60c08901526001600160a01b03928380921660e08a0152166101008801521661012086015280610140860152840190611d68565b91610160818403910152614695565b90604082015161476b9060070b90565b916060810151614781906001600160a01b031690565b90608081015193610100948583015161479990151590565b6101209283850151926147aa61065e565b6001600160a01b039097168752602087015260070b604086015215156060850152608084015281516060015160208301516147ee905f5261086e60205260405f2090565b549360a084015193519460808601519560a08101519160e08201516148139060070b90565b60c083015160070b9a83015163ffffffff169a604084015161483b906001600160a01b031690565b91845161484e906001600160a01b031690565b986020860151614864906001600160a01b031690565b950151956040519a6001600160a01b038c9b169e63ffffffff169d339661488b9b8d6146e1565b037f8ab9dc6c19fe88e69bc70221b339c84332752fdd49591b7c51e66bae3947b73c91a4565b909261066b93604051937f23b872dd0000000000000000000000000000000000000000000000000000000060208601526001600160a01b0380921660248601521660448401526064830152606482526149098261052d565b6158c3565b93926042936001600160a01b0361066b989760208151910120916040519363ffffffff60208601967f0e058f05b73c62ee68329d2c67c067aaae9a06503cc306378d144d0f0177882b885216604086015286606086015260070b60808501521660a083015260c082015260c0815261498581610581565b5190209061047f549061048054906040519160208301937fc2f8787176b8ac6bf7215b4adcc1e069bf4ab82d9ab1df05a57a91d425935b6e8552604084015260608301526080820152608081526149db8161052d565b51902090604051917f19010000000000000000000000000000000000000000000000000000000000008352600283015260228201522090615a08565b6001600160a01b03610c8d54163303614a2c57565b606460405162461bcd60e51b815260206004820152602060248201527f4f776e61626c653a2063616c6c6572206973206e6f7420746865206f776e65726044820152fd5b610c8d9081546001600160a01b0380921692836001600160a01b03198316179055167f8be0079c531659141344cd1fd0a4f28419497f9722a3daafe3b4186f6b6457e05f80a3565b5f8112614ac25790565b5f0390565b61066b60ff5f5460081c16613086565b614aeb60ff5f5460081c1661179b81613086565b6001606555565b6001600160a01b03168015614b3a57610869816001600160a01b03198254161790557fa9e8c42c9e7fca7f62755189a16b2f5314d43d8fb24e91ba54e6d65f9314e8495f80a2565b606460405162461bcd60e51b815260206004820152601960248201527f4261642062726964676520726f757465722061646472657373000000000000006044820152fd5b91614be4918351614ba960408096015192865192614b9b846104f8565b835260208301938452612312565b505491613c3f86518092614bcf602083019560208752518a808501526080840190613190565b9051606083015203601f1981018352826105b9565b15614bec5750565b6004905163582f497d60e11b8152fd5b614c05826136bf565b52565b906001600160a01b038251168152606080614c326020850151608060208601526080850190611d68565b9360408101516040850152015191614c49836136bf565b015290565b9a97909695614ccc966127de9d9b9660808e614cbb98614cdb9e986101809d6001600160a01b03998a80921685521660208401526040830152606082015201528c60a063ffffffff8094169101521660c08c01521660e08a01526101008901906001600160a01b03169052565b6001600160a01b0316610120870152565b80610140860152840190611d68565b91610160818403910152614c08565b805191610140830190614d01825163ffffffff1690565b63ffffffff429116106122d45760208301516001614d28825f5261086f60205260405f2090565b5403614fdd576001905b6002614d47825f5261086f60205260405f2090565b5414614fb357614d60905f5261086f60205260405f2090565b6002905560608501516001600160a01b031660808601516001600160a01b03169260a0870151918660c0890151948960a08301519660e082015197610120830151614dae9063ffffffff1690565b9a5163ffffffff1661016084015163ffffffff16906040850151614dd8906001600160a01b031690565b928551614deb906001600160a01b031690565b946020870151614e01906001600160a01b031690565b9661018001519760608a0151614e1d906001600160a01b031690565b996080810151906040015190614e3161066d565b6001600160a01b03909c168c5260208c015260408b0152614e559060608b01614bfc565b6040519b6001600160a01b038d9c169f63ffffffff169e614e769b8d614c4e565b037f32cb2beef51cc3e8592639aa435309d1087da595cff201a7640ce5c2187d719791a460608101516001600160a01b031691829033821480614fab575b613cd057608001516001600160a01b03169260806040840151936001600160a01b03861685856001600160a01b037f00000000000000000000000000000000000000000000000000000000000000001683145f14614f9b5750614f1a91309033906148b1565b614f24858461573b565b0151913b151580614f91575b614f3a5750505050565b803b1561034857614f67935f8094604051968795869485936301d43f2760e31b855233916004860161419c565b03925af18015612be757614f7e575b808080613cd0565b80612bdb614f8b92610519565b5f614f76565b5081511515614f30565b614fa69233906148b1565b614f24565b506001614eb4565b60046040517f8f260c60000000000000000000000000000000000000000000000000000000008152fd5b5f90614d32565b905f82516101408101614ffb815163ffffffff1690565b63ffffffff429116106122d45760208501516002615022825f5261086f60205260405f2090565b5414614fb35761503b905f5261086f60205260405f2090565b6002905560608201516001600160a01b031660808301516001600160a01b03169060a08401519260c0850151918860a0810151938760e0810151956101208201516150899063ffffffff1690565b955163ffffffff1661016083015163ffffffff1660408401516001600160a01b03169184516150be906001600160a01b031690565b9360208601516150d4906001600160a01b031690565b9561018001519660608901516150f0906001600160a01b031690565b98608081015190604001519061510461066d565b6001600160a01b03909b168b5260208b015260408a0152600260608a01526040519d63ffffffff8f9c169d6151399b8d614c4e565b037f32cb2beef51cc3e8592639aa435309d1087da595cff201a7640ce5c2187d7197905f94a460608401516001600160a01b0316906001600160a01b03948583169182331480615294575b61528b57608001516001600160a01b03169060408101519687818416917f00000000000000000000000000000000000000000000000000000000000000001682145f1461527457906080929187615260575b6151e191508561573b565b0151923b151580615256575b6151fa575b505050509050565b813b1561525257836152269596604051968795869485936301d43f2760e31b855233916004860161419c565b03925af18015612be75761523f575b80808084936151f2565b80612bdb61524c92610519565b5f615235565b8380fd5b50825115156151ed565b61526d91309033906148b1565b5f886151d6565b60809291965061528690865f986154d1565b6151e1565b50505050509050565b505f615184565b6152b1906001600160a01b039260070b9061544a565b91165f5261087060205260405f208054918201809211612cd15755565b94919394821561530a575b508115615301575b506152fc576001600160a01b03916152b19160070b9061544a565b505050565b9050155f6152e1565b151591505f6152d9565b6127de9291604051613c3f81611b39602082019460208652805160408401526020810151606084015260408101519060e061535d61010093846080880152610140870190613b55565b606083015163ffffffff1660a08701529160808101516001600160a01b031660c087015261539c60a082015193603f19948589830301858a0152613b88565b9360c08201519087015201519084830301610120850152611d68565b906153ff92916153d761012082519201519260405192614b9b846104f8565b505491613c3f6040518092614bcf602083019560208752516040808501526080840190613e7a565b1561540657565b606460405162461bcd60e51b815260206004820152601860248201527f496e76616c696420736c6f772072656c61792070726f6f6600000000000000006044820152fd5b90670de0b6b3a7640000915f828403921283831281169084841390151617612cd157818102918183041490151715612cd1570490565b929091905f915b84518310156154c95761549a838661349e565b5190818110156154b8575f52602052600160405f205b920191615487565b905f52602052600160405f206154b0565b915092501490565b61066b926001600160a01b03604051937fa9059cbb00000000000000000000000000000000000000000000000000000000602086015216602484015260448301526044825261490982610549565b9061552982615640565b6001600160a01b0382167fbc7cd75a20ee27fd9adebab32041f755214dbc6bffa90cc0225b39da2e5c2d3b5f80a28051158015906155e7575b61556a575050565b6155e4915f806040519361557d8561059d565b602785527f416464726573733a206c6f772d6c6576656c2064656c65676174652063616c6c60208601527f206661696c6564000000000000000000000000000000000000000000000000006040860152602081519101845af46155de6133ff565b91615b26565b50565b505f615562565b906155f882615640565b6001600160a01b0382167fbc7cd75a20ee27fd9adebab32041f755214dbc6bffa90cc0225b39da2e5c2d3b5f80a28051158015906156385761556a575050565b506001615562565b803b15615683576001600160a01b037f360894a13ba1a3210667c828492db98dca3e2076cc3735a920a3ca505d382bbc91166001600160a01b0319825416179055565b608460405162461bcd60e51b815260206004820152602d60248201527f455243313936373a206e657720696d706c656d656e746174696f6e206973206e60448201527f6f74206120636f6e7472616374000000000000000000000000000000000000006064820152fd5b670de0b6b3a7640000918183029183830403612cd15760070b808303925f821281851281169082861390151617612cd15714615727570490565b634e487b7160e01b5f52601260045260245ffd5b6001600160a01b0390811690813b1561577b579061066b92917f0000000000000000000000000000000000000000000000000000000000000000166154d1565b7f000000000000000000000000000000000000000000000000000000000000000016803b15610348575f80916024604051809481937f2e1a7d4d0000000000000000000000000000000000000000000000000000000083528860048401525af18015612be7576158b4575b50814710615870575f80809381935af16157fe6133ff565b501561580657565b608460405162461bcd60e51b815260206004820152603a60248201527f416464726573733a20756e61626c6520746f2073656e642076616c75652c207260448201527f6563697069656e74206d617920686176652072657665727465640000000000006064820152fd5b606460405162461bcd60e51b815260206004820152601d60248201527f416464726573733a20696e73756666696369656e742062616c616e63650000006044820152fd5b6158bd90610519565b5f6157e6565b60405161591a916001600160a01b03166158dc826104f8565b5f806020958685527f5361666545524332303a206c6f772d6c6576656c2063616c6c206661696c656487860152868151910182855af16155de6133ff565b805182811591821561599d575b50509050156159335750565b6084906040519062461bcd60e51b82526004820152602a60248201527f5361666545524332303a204552433230206f7065726174696f6e20646964206e60448201527f6f742073756363656564000000000000000000000000000000000000000000006064820152fd5b8380929350010312610348578101516159b581610ac2565b80825f615927565b156159c457565b606460405162461bcd60e51b815260206004820152601160248201527f696e76616c6964207369676e61747572650000000000000000000000000000006044820152fd5b9190615a148282615af1565b93909260058510156136c95761066b94159384615adb575b508315615a3c575b5050506159bd565b5f929350908291604051615a8d81611b3960208201947f1626ba7e00000000000000000000000000000000000000000000000000000000998a87526024840152604060448401526064830190611d68565b51915afa90615a9a6133ff565b82615acd575b82615ab0575b50505f8080615a34565b615ac591925060208082518301019101613dfa565b145f80615aa6565b915060208251101591615aa0565b6001600160a01b0383811691161493505f615a2c565b9060418151145f14615b1d57615b1991602082015190606060408401519301515f1a90615bb6565b9091565b50505f90600290565b91929015615b875750815115615b3a575090565b3b15615b435790565b606460405162461bcd60e51b815260206004820152601d60248201527f416464726573733a2063616c6c20746f206e6f6e2d636f6e74726163740000006044820152fd5b825190915015615b9a5750805190602001fd5b610ce59060405191829162461bcd60e51b83526004830161348d565b7f7fffffffffffffffffffffffffffffff5d576e7357a4501ddfe92f46681b20a08411615c26576020935f9360ff60809460405194855216868401526040830152606082015282805260015afa15612be7575f516001600160a01b03811615615c1e57905f90565b505f90600190565b505050505f9060039056fea2646970667358221220a6a61fb8374b910b51d449ba5a4a3c14562bf01d094177b69bae52164dd9ded764736f6c63430008170033"
}