{
  "address": "0x14224e63716afAcE30C9a417E0542281869f7d9e",
  "abi": [
    {
      "inputs": [
        {
          "internalType": "contract LpTokenFactoryInterface",
          "name": "_lpTokenFactory",
          "type": "address"
        },
        {
          "internalType": "contract FinderInterface",
          "name": "_finder",
          "type": "address"
        },
        {
          "internalType": "contract WETH9Interface",
          "name": "_weth",
          "type": "address"
        },
        {
          "internalType": "address",
          "name": "_timer",
          "type": "address"
        }
      ],
      "stateMutability": "nonpayable",
      "type": "constructor"
    },
    {
      "anonymous": false,
      "inputs": [
        {
          "indexed": true,
          "internalType": "address",
          "name": "newBondToken",
          "type": "address"
        },
        {
          "indexed": false,
          "internalType": "uint256",
          "name": "newBondAmount",
          "type": "uint256"
        }
      ],
      "name": "BondSet",
      "type": "event"
    },
    {
      "anonymous": false,
      "inputs": [
        {
          "indexed": false,
          "internalType": "uint256",
          "name": "l2ChainId",
          "type": "uint256"
        },
        {
          "indexed": false,
          "internalType": "address",
          "name": "adapter",
          "type": "address"
        },
        {
          "indexed": false,
          "internalType": "address",
          "name": "spokePool",
          "type": "address"
        }
      ],
      "name": "CrossChainContractsSet",
      "type": "event"
    },
    {
      "anonymous": false,
      "inputs": [
        {
          "indexed": true,
          "internalType": "bytes32",
          "name": "poolRebalanceRoot",
          "type": "bytes32"
        },
        {
          "indexed": true,
          "internalType": "bytes32",
          "name": "relayerRefundRoot",
          "type": "bytes32"
        },
        {
          "indexed": false,
          "internalType": "bytes32",
          "name": "slowRelayRoot",
          "type": "bytes32"
        },
        {
          "indexed": true,
          "internalType": "address",
          "name": "proposer",
          "type": "address"
        }
      ],
      "name": "EmergencyRootBundleDeleted",
      "type": "event"
    },
    {
      "anonymous": false,
      "inputs": [
        {
          "indexed": false,
          "internalType": "bytes32",
          "name": "newIdentifier",
          "type": "bytes32"
        }
      ],
      "name": "IdentifierSet",
      "type": "event"
    },
    {
      "anonymous": false,
      "inputs": [
        {
          "indexed": false,
          "internalType": "address",
          "name": "l1Token",
          "type": "address"
        },
        {
          "indexed": false,
          "internalType": "address",
          "name": "lpToken",
          "type": "address"
        }
      ],
      "name": "L1TokenEnabledForLiquidityProvision",
      "type": "event"
    },
    {
      "anonymous": false,
      "inputs": [
        {
          "indexed": false,
          "internalType": "address",
          "name": "l1Token",
          "type": "address"
        },
        {
          "indexed": false,
          "internalType": "address",
          "name": "lpToken",
          "type": "address"
        }
      ],
      "name": "L2TokenDisabledForLiquidityProvision",
      "type": "event"
    },
    {
      "anonymous": false,
      "inputs": [
        {
          "indexed": true,
          "internalType": "address",
          "name": "l1Token",
          "type": "address"
        },
        {
          "indexed": false,
          "internalType": "uint256",
          "name": "amount",
          "type": "uint256"
        },
        {
          "indexed": false,
          "internalType": "uint256",
          "name": "lpTokensMinted",
          "type": "uint256"
        },
        {
          "indexed": true,
          "internalType": "address",
          "name": "liquidityProvider",
          "type": "address"
        }
      ],
      "name": "LiquidityAdded",
      "type": "event"
    },
    {
      "anonymous": false,
      "inputs": [
        {
          "indexed": true,
          "internalType": "address",
          "name": "l1Token",
          "type": "address"
        },
        {
          "indexed": false,
          "internalType": "uint256",
          "name": "amount",
          "type": "uint256"
        },
        {
          "indexed": false,
          "internalType": "uint256",
          "name": "lpTokensBurnt",
          "type": "uint256"
        },
        {
          "indexed": true,
          "internalType": "address",
          "name": "liquidityProvider",
          "type": "address"
        }
      ],
      "name": "LiquidityRemoved",
      "type": "event"
    },
    {
      "anonymous": false,
      "inputs": [
        {
          "indexed": false,
          "internalType": "uint256",
          "name": "newLiveness",
          "type": "uint256"
        }
      ],
      "name": "LivenessSet",
      "type": "event"
    },
    {
      "anonymous": false,
      "inputs": [
        {
          "indexed": true,
          "internalType": "address",
          "name": "previousOwner",
          "type": "address"
        },
        {
          "indexed": true,
          "internalType": "address",
          "name": "newOwner",
          "type": "address"
        }
      ],
      "name": "OwnershipTransferred",
      "type": "event"
    },
    {
      "anonymous": false,
      "inputs": [
        {
          "indexed": true,
          "internalType": "bool",
          "name": "isPaused",
          "type": "bool"
        }
      ],
      "name": "Paused",
      "type": "event"
    },
    {
      "anonymous": false,
      "inputs": [
        {
          "indexed": false,
          "internalType": "uint32",
          "name": "challengePeriodEndTimestamp",
          "type": "uint32"
        },
        {
          "indexed": false,
          "internalType": "uint8",
          "name": "poolRebalanceLeafCount",
          "type": "uint8"
        },
        {
          "indexed": false,
          "internalType": "uint256[]",
          "name": "bundleEvaluationBlockNumbers",
          "type": "uint256[]"
        },
        {
          "indexed": true,
          "internalType": "bytes32",
          "name": "poolRebalanceRoot",
          "type": "bytes32"
        },
        {
          "indexed": true,
          "internalType": "bytes32",
          "name": "relayerRefundRoot",
          "type": "bytes32"
        },
        {
          "indexed": false,
          "internalType": "bytes32",
          "name": "slowRelayRoot",
          "type": "bytes32"
        },
        {
          "indexed": true,
          "internalType": "address",
          "name": "proposer",
          "type": "address"
        }
      ],
      "name": "ProposeRootBundle",
      "type": "event"
    },
    {
      "anonymous": false,
      "inputs": [
        {
          "indexed": true,
          "internalType": "address",
          "name": "newProtocolFeeCaptureAddress",
          "type": "address"
        },
        {
          "indexed": true,
          "internalType": "uint256",
          "name": "newProtocolFeeCapturePct",
          "type": "uint256"
        }
      ],
      "name": "ProtocolFeeCaptureSet",
      "type": "event"
    },
    {
      "anonymous": false,
      "inputs": [
        {
          "indexed": true,
          "internalType": "address",
          "name": "l1Token",
          "type": "address"
        },
        {
          "indexed": true,
          "internalType": "uint256",
          "name": "accumulatedFees",
          "type": "uint256"
        }
      ],
      "name": "ProtocolFeesCapturedClaimed",
      "type": "event"
    },
    {
      "anonymous": false,
      "inputs": [
        {
          "indexed": true,
          "internalType": "address",
          "name": "disputer",
          "type": "address"
        },
        {
          "indexed": false,
          "internalType": "uint256",
          "name": "requestTime",
          "type": "uint256"
        }
      ],
      "name": "RootBundleCanceled",
      "type": "event"
    },
    {
      "anonymous": false,
      "inputs": [
        {
          "indexed": true,
          "internalType": "address",
          "name": "disputer",
          "type": "address"
        },
        {
          "indexed": false,
          "internalType": "uint256",
          "name": "requestTime",
          "type": "uint256"
        }
      ],
      "name": "RootBundleDisputed",
      "type": "event"
    },
    {
      "anonymous": false,
      "inputs": [
        {
          "indexed": false,
          "internalType": "uint256",
          "name": "groupIndex",
          "type": "uint256"
        },
        {
          "indexed": true,
          "internalType": "uint256",
          "name": "leafId",
          "type": "uint256"
        },
        {
          "indexed": true,
          "internalType": "uint256",
          "name": "chainId",
          "type": "uint256"
        },
        {
          "indexed": false,
          "internalType": "address[]",
          "name": "l1Tokens",
          "type": "address[]"
        },
        {
          "indexed": false,
          "internalType": "uint256[]",
          "name": "bundleLpFees",
          "type": "uint256[]"
        },
        {
          "indexed": false,
          "internalType": "int256[]",
          "name": "netSendAmounts",
          "type": "int256[]"
        },
        {
          "indexed": false,
          "internalType": "int256[]",
          "name": "runningBalances",
          "type": "int256[]"
        },
        {
          "indexed": true,
          "internalType": "address",
          "name": "caller",
          "type": "address"
        }
      ],
      "name": "RootBundleExecuted",
      "type": "event"
    },
    {
      "anonymous": false,
      "inputs": [
        {
          "indexed": true,
          "internalType": "uint256",
          "name": "originChainId",
          "type": "uint256"
        },
        {
          "indexed": true,
          "internalType": "uint256",
          "name": "destinationChainId",
          "type": "uint256"
        },
        {
          "indexed": true,
          "internalType": "address",
          "name": "originToken",
          "type": "address"
        },
        {
          "indexed": false,
          "internalType": "bool",
          "name": "depositsEnabled",
          "type": "bool"
        }
      ],
      "name": "SetEnableDepositRoute",
      "type": "event"
    },
    {
      "anonymous": false,
      "inputs": [
        {
          "indexed": true,
          "internalType": "uint256",
          "name": "destinationChainId",
          "type": "uint256"
        },
        {
          "indexed": true,
          "internalType": "address",
          "name": "l1Token",
          "type": "address"
        },
        {
          "indexed": true,
          "internalType": "address",
          "name": "destinationToken",
          "type": "address"
        }
      ],
      "name": "SetPoolRebalanceRoute",
      "type": "event"
    },
    {
      "anonymous": false,
      "inputs": [
        {
          "indexed": true,
          "internalType": "uint256",
          "name": "chainId",
          "type": "uint256"
        },
        {
          "indexed": false,
          "internalType": "bytes",
          "name": "message",
          "type": "bytes"
        }
      ],
      "name": "SpokePoolAdminFunctionTriggered",
      "type": "event"
    },
    {
      "stateMutability": "payable",
      "type": "fallback"
    },
    {
      "inputs": [
        {
          "internalType": "address",
          "name": "l1Token",
          "type": "address"
        },
        {
          "internalType": "uint256",
          "name": "l1TokenAmount",
          "type": "uint256"
        }
      ],
      "name": "addLiquidity",
      "outputs": [],
      "stateMutability": "payable",
      "type": "function"
    },
    {
      "inputs": [],
      "name": "bondAmount",
      "outputs": [
        {
          "internalType": "uint256",
          "name": "",
          "type": "uint256"
        }
      ],
      "stateMutability": "view",
      "type": "function"
    },
    {
      "inputs": [],
      "name": "bondToken",
      "outputs": [
        {
          "internalType": "contract IERC20",
          "name": "",
          "type": "address"
        }
      ],
      "stateMutability": "view",
      "type": "function"
    },
    {
      "inputs": [
        {
          "internalType": "address",
          "name": "l1Token",
          "type": "address"
        }
      ],
      "name": "claimProtocolFeesCaptured",
      "outputs": [],
      "stateMutability": "nonpayable",
      "type": "function"
    },
    {
      "inputs": [
        {
          "internalType": "uint256",
          "name": "",
          "type": "uint256"
        }
      ],
      "name": "crossChainContracts",
      "outputs": [
        {
          "internalType": "address",
          "name": "adapter",
          "type": "address"
        },
        {
          "internalType": "address",
          "name": "spokePool",
          "type": "address"
        }
      ],
      "stateMutability": "view",
      "type": "function"
    },
    {
      "inputs": [
        {
          "internalType": "address",
          "name": "l1Token",
          "type": "address"
        }
      ],
      "name": "disableL1TokenForLiquidityProvision",
      "outputs": [],
      "stateMutability": "nonpayable",
      "type": "function"
    },
    {
      "inputs": [],
      "name": "disputeRootBundle",
      "outputs": [],
      "stateMutability": "nonpayable",
      "type": "function"
    },
    {
      "inputs": [],
      "name": "emergencyDeleteProposal",
      "outputs": [],
      "stateMutability": "nonpayable",
      "type": "function"
    },
    {
      "inputs": [
        {
          "internalType": "address",
          "name": "l1Token",
          "type": "address"
        }
      ],
      "name": "enableL1TokenForLiquidityProvision",
      "outputs": [],
      "stateMutability": "nonpayable",
      "type": "function"
    },
    {
      "inputs": [
        {
          "internalType": "address",
          "name": "l1Token",
          "type": "address"
        }
      ],
      "name": "exchangeRateCurrent",
      "outputs": [
        {
          "internalType": "uint256",
          "name": "",
          "type": "uint256"
        }
      ],
      "stateMutability": "nonpayable",
      "type": "function"
    },
    {
      "inputs": [
        {
          "internalType": "uint256",
          "name": "chainId",
          "type": "uint256"
        },
        {
          "internalType": "uint256",
          "name": "groupIndex",
          "type": "uint256"
        },
        {
          "internalType": "uint256[]",
          "name": "bundleLpFees",
          "type": "uint256[]"
        },
        {
          "internalType": "int256[]",
          "name": "netSendAmounts",
          "type": "int256[]"
        },
        {
          "internalType": "int256[]",
          "name": "runningBalances",
          "type": "int256[]"
        },
        {
          "internalType": "uint8",
          "name": "leafId",
          "type": "uint8"
        },
        {
          "internalType": "address[]",
          "name": "l1Tokens",
          "type": "address[]"
        },
        {
          "internalType": "bytes32[]",
          "name": "proof",
          "type": "bytes32[]"
        }
      ],
      "name": "executeRootBundle",
      "outputs": [],
      "stateMutability": "nonpayable",
      "type": "function"
    },
    {
      "inputs": [],
      "name": "finder",
      "outputs": [
        {
          "internalType": "contract FinderInterface",
          "name": "",
          "type": "address"
        }
      ],
      "stateMutability": "view",
      "type": "function"
    },
    {
      "inputs": [],
      "name": "getCurrentTime",
      "outputs": [
        {
          "internalType": "uint256",
          "name": "",
          "type": "uint256"
        }
      ],
      "stateMutability": "view",
      "type": "function"
    },
    {
      "inputs": [
        {
          "internalType": "address",
          "name": "l1Token",
          "type": "address"
        },
        {
          "internalType": "int256",
          "name": "haircutAmount",
          "type": "int256"
        }
      ],
      "name": "haircutReserves",
      "outputs": [],
      "stateMutability": "nonpayable",
      "type": "function"
    },
    {
      "inputs": [],
      "name": "identifier",
      "outputs": [
        {
          "internalType": "bytes32",
          "name": "",
          "type": "bytes32"
        }
      ],
      "stateMutability": "view",
      "type": "function"
    },
    {
      "inputs": [
        {
          "internalType": "address",
          "name": "l1Token",
          "type": "address"
        }
      ],
      "name": "liquidityUtilizationCurrent",
      "outputs": [
        {
          "internalType": "uint256",
          "name": "",
          "type": "uint256"
        }
      ],
      "stateMutability": "nonpayable",
      "type": "function"
    },
    {
      "inputs": [
        {
          "internalType": "address",
          "name": "l1Token",
          "type": "address"
        },
        {
          "internalType": "uint256",
          "name": "relayedAmount",
          "type": "uint256"
        }
      ],
      "name": "liquidityUtilizationPostRelay",
      "outputs": [
        {
          "internalType": "uint256",
          "name": "",
          "type": "uint256"
        }
      ],
      "stateMutability": "nonpayable",
      "type": "function"
    },
    {
      "inputs": [],
      "name": "liveness",
      "outputs": [
        {
          "internalType": "uint32",
          "name": "",
          "type": "uint32"
        }
      ],
      "stateMutability": "view",
      "type": "function"
    },
    {
      "inputs": [],
      "name": "loadEthForL2Calls",
      "outputs": [],
      "stateMutability": "payable",
      "type": "function"
    },
    {
      "inputs": [],
      "name": "lpFeeRatePerSecond",
      "outputs": [
        {
          "internalType": "uint256",
          "name": "",
          "type": "uint256"
        }
      ],
      "stateMutability": "view",
      "type": "function"
    },
    {
      "inputs": [],
      "name": "lpTokenFactory",
      "outputs": [
        {
          "internalType": "contract LpTokenFactoryInterface",
          "name": "",
          "type": "address"
        }
      ],
      "stateMutability": "view",
      "type": "function"
    },
    {
      "inputs": [
        {
          "internalType": "bytes[]",
          "name": "data",
          "type": "bytes[]"
        }
      ],
      "name": "multicall",
      "outputs": [
        {
          "internalType": "bytes[]",
          "name": "results",
          "type": "bytes[]"
        }
      ],
      "stateMutability": "nonpayable",
      "type": "function"
    },
    {
      "inputs": [],
      "name": "owner",
      "outputs": [
        {
          "internalType": "address",
          "name": "",
          "type": "address"
        }
      ],
      "stateMutability": "view",
      "type": "function"
    },
    {
      "inputs": [],
      "name": "paused",
      "outputs": [
        {
          "internalType": "bool",
          "name": "",
          "type": "bool"
        }
      ],
      "stateMutability": "view",
      "type": "function"
    },
    {
      "inputs": [
        {
          "internalType": "uint256",
          "name": "destinationChainId",
          "type": "uint256"
        },
        {
          "internalType": "address",
          "name": "l1Token",
          "type": "address"
        }
      ],
      "name": "poolRebalanceRoute",
      "outputs": [
        {
          "internalType": "address",
          "name": "destinationToken",
          "type": "address"
        }
      ],
      "stateMutability": "view",
      "type": "function"
    },
    {
      "inputs": [
        {
          "internalType": "address",
          "name": "",
          "type": "address"
        }
      ],
      "name": "pooledTokens",
      "outputs": [
        {
          "internalType": "address",
          "name": "lpToken",
          "type": "address"
        },
        {
          "internalType": "bool",
          "name": "isEnabled",
          "type": "bool"
        },
        {
          "internalType": "uint32",
          "name": "lastLpFeeUpdate",
          "type": "uint32"
        },
        {
          "internalType": "int256",
          "name": "utilizedReserves",
          "type": "int256"
        },
        {
          "internalType": "uint256",
          "name": "liquidReserves",
          "type": "uint256"
        },
        {
          "internalType": "uint256",
          "name": "undistributedLpFees",
          "type": "uint256"
        }
      ],
      "stateMutability": "view",
      "type": "function"
    },
    {
      "inputs": [
        {
          "internalType": "uint256[]",
          "name": "bundleEvaluationBlockNumbers",
          "type": "uint256[]"
        },
        {
          "internalType": "uint8",
          "name": "poolRebalanceLeafCount",
          "type": "uint8"
        },
        {
          "internalType": "bytes32",
          "name": "poolRebalanceRoot",
          "type": "bytes32"
        },
        {
          "internalType": "bytes32",
          "name": "relayerRefundRoot",
          "type": "bytes32"
        },
        {
          "internalType": "bytes32",
          "name": "slowRelayRoot",
          "type": "bytes32"
        }
      ],
      "name": "proposeRootBundle",
      "outputs": [],
      "stateMutability": "nonpayable",
      "type": "function"
    },
    {
      "inputs": [],
      "name": "protocolFeeCaptureAddress",
      "outputs": [
        {
          "internalType": "address",
          "name": "",
          "type": "address"
        }
      ],
      "stateMutability": "view",
      "type": "function"
    },
    {
      "inputs": [],
      "name": "protocolFeeCapturePct",
      "outputs": [
        {
          "internalType": "uint256",
          "name": "",
          "type": "uint256"
        }
      ],
      "stateMutability": "view",
      "type": "function"
    },
    {
      "inputs": [
        {
          "internalType": "uint256",
          "name": "chainId",
          "type": "uint256"
        },
        {
          "internalType": "bytes",
          "name": "functionData",
          "type": "bytes"
        }
      ],
      "name": "relaySpokePoolAdminFunction",
      "outputs": [],
      "stateMutability": "nonpayable",
      "type": "function"
    },
    {
      "inputs": [
        {
          "internalType": "address",
          "name": "l1Token",
          "type": "address"
        },
        {
          "internalType": "uint256",
          "name": "lpTokenAmount",
          "type": "uint256"
        },
        {
          "internalType": "bool",
          "name": "sendEth",
          "type": "bool"
        }
      ],
      "name": "removeLiquidity",
      "outputs": [],
      "stateMutability": "nonpayable",
      "type": "function"
    },
    {
      "inputs": [],
      "name": "renounceOwnership",
      "outputs": [],
      "stateMutability": "nonpayable",
      "type": "function"
    },
    {
      "inputs": [],
      "name": "rootBundleProposal",
      "outputs": [
        {
          "internalType": "bytes32",
          "name": "poolRebalanceRoot",
          "type": "bytes32"
        },
        {
          "internalType": "bytes32",
          "name": "relayerRefundRoot",
          "type": "bytes32"
        },
        {
          "internalType": "bytes32",
          "name": "slowRelayRoot",
          "type": "bytes32"
        },
        {
          "internalType": "uint256",
          "name": "claimedBitMap",
          "type": "uint256"
        },
        {
          "internalType": "address",
          "name": "proposer",
          "type": "address"
        },
        {
          "internalType": "uint8",
          "name": "unclaimedPoolRebalanceLeafCount",
          "type": "uint8"
        },
        {
          "internalType": "uint32",
          "name": "challengePeriodEndTimestamp",
          "type": "uint32"
        }
      ],
      "stateMutability": "view",
      "type": "function"
    },
    {
      "inputs": [
        {
          "internalType": "contract IERC20",
          "name": "newBondToken",
          "type": "address"
        },
        {
          "internalType": "uint256",
          "name": "newBondAmount",
          "type": "uint256"
        }
      ],
      "name": "setBond",
      "outputs": [],
      "stateMutability": "nonpayable",
      "type": "function"
    },
    {
      "inputs": [
        {
          "internalType": "uint256",
          "name": "l2ChainId",
          "type": "uint256"
        },
        {
          "internalType": "address",
          "name": "adapter",
          "type": "address"
        },
        {
          "internalType": "address",
          "name": "spokePool",
          "type": "address"
        }
      ],
      "name": "setCrossChainContracts",
      "outputs": [],
      "stateMutability": "nonpayable",
      "type": "function"
    },
    {
      "inputs": [
        {
          "internalType": "uint256",
          "name": "time",
          "type": "uint256"
        }
      ],
      "name": "setCurrentTime",
      "outputs": [],
      "stateMutability": "nonpayable",
      "type": "function"
    },
    {
      "inputs": [
        {
          "internalType": "uint256",
          "name": "originChainId",
          "type": "uint256"
        },
        {
          "internalType": "uint256",
          "name": "destinationChainId",
          "type": "uint256"
        },
        {
          "internalType": "address",
          "name": "originToken",
          "type": "address"
        },
        {
          "internalType": "bool",
          "name": "depositsEnabled",
          "type": "bool"
        }
      ],
      "name": "setDepositRoute",
      "outputs": [],
      "stateMutability": "nonpayable",
      "type": "function"
    },
    {
      "inputs": [
        {
          "internalType": "bytes32",
          "name": "newIdentifier",
          "type": "bytes32"
        }
      ],
      "name": "setIdentifier",
      "outputs": [],
      "stateMutability": "nonpayable",
      "type": "function"
    },
    {
      "inputs": [
        {
          "internalType": "uint32",
          "name": "newLiveness",
          "type": "uint32"
        }
      ],
      "name": "setLiveness",
      "outputs": [],
      "stateMutability": "nonpayable",
      "type": "function"
    },
    {
      "inputs": [
        {
          "internalType": "bool",
          "name": "pause",
          "type": "bool"
        }
      ],
      "name": "setPaused",
      "outputs": [],
      "stateMutability": "nonpayable",
      "type": "function"
    },
    {
      "inputs": [
        {
          "internalType": "uint256",
          "name": "destinationChainId",
          "type": "uint256"
        },
        {
          "internalType": "address",
          "name": "l1Token",
          "type": "address"
        },
        {
          "internalType": "address",
          "name": "destinationToken",
          "type": "address"
        }
      ],
      "name": "setPoolRebalanceRoute",
      "outputs": [],
      "stateMutability": "nonpayable",
      "type": "function"
    },
    {
      "inputs": [
        {
          "internalType": "address",
          "name": "newProtocolFeeCaptureAddress",
          "type": "address"
        },
        {
          "internalType": "uint256",
          "name": "newProtocolFeeCapturePct",
          "type": "uint256"
        }
      ],
      "name": "setProtocolFeeCapture",
      "outputs": [],
      "stateMutability": "nonpayable",
      "type": "function"
    },
    {
      "inputs": [
        {
          "internalType": "address",
          "name": "l1Token",
          "type": "address"
        }
      ],
      "name": "sync",
      "outputs": [],
      "stateMutability": "nonpayable",
      "type": "function"
    },
    {
      "inputs": [],
      "name": "timerAddress",
      "outputs": [
        {
          "internalType": "address",
          "name": "",
          "type": "address"
        }
      ],
      "stateMutability": "view",
      "type": "function"
    },
    {
      "inputs": [
        {
          "internalType": "address",
          "name": "newOwner",
          "type": "address"
        }
      ],
      "name": "transferOwnership",
      "outputs": [],
      "stateMutability": "nonpayable",
      "type": "function"
    },
    {
      "inputs": [
        {
          "internalType": "address",
          "name": "",
          "type": "address"
        }
      ],
      "name": "unclaimedAccumulatedProtocolFees",
      "outputs": [
        {
          "internalType": "uint256",
          "name": "",
          "type": "uint256"
        }
      ],
      "stateMutability": "view",
      "type": "function"
    },
    {
      "inputs": [],
      "name": "weth",
      "outputs": [
        {
          "internalType": "contract WETH9Interface",
          "name": "",
          "type": "address"
        }
      ],
      "stateMutability": "view",
      "type": "function"
    },
    {
      "stateMutability": "payable",
      "type": "receive"
    }
  ],
  "transactionHash": "0xcd8458f01caaa8d5cbd23edb50a75c502b6e92e9659a667554783a36ebda5587",
  "args": [
    "0xFB87Ac52Bac7ccF497b6053610A9c59B87a0cE7D",
    "0xeF684C38F94F48775959ECf2012D7E864ffb9dd4",
    "0xfFf9976782d46CC05630D1f6eBAb18b2324d6B14",
    "0x0000000000000000000000000000000000000000"
  ],
  "numDeployments": 1,
  "solcInputHash": "d2ba8e8f586b33b06a6565783bb75885",
  "bytecode": "0x60e034620001a357601f6200469838819003918201601f19168301916001600160401b03831184841017620001a757808492608094604052833981010312620001a35780516001600160a01b03918282168203620001a35760208101518381168103620001a3576040820151918483168303620001a35760600151848116809103620001a3575f80546001600160a81b031916909117600160a01b178155600180546001600160a01b031981163390811792839055604051979296939092909116907f8be0079c531659141344cd1fd0a4f28419497f9722a3daafe3b4186f6b6457e09080a3600c805463ffffffff60a01b191660e160a51b1790556820a1a927a9a996ab1960b91b600d5565015d3ef79800600e5560a05260c052608052600b8054610100600160a81b03191660089290921b610100600160a81b03169190911790556144dc9081620001bc823960805181818161080301528181611074015281816111950152614143015260a05181818161168e0152611eee015260c05181818161052601528181610f030152818161200701528181613876015261398a0152f35b5f80fd5b634e487b7160e01b5f52604160045260245ffdfe60806040526004361015610026575b361561001e5761001c61412b565b005b61001c61412b565b5f3560e01c8062660b5314610313578062c992061461030e578063084d05131461030957806309474ae2146103045780630c501af9146102ff5780630ee28a88146102fa57806310b99527146102f557806311cfc159146102f057806316c38b3c146102eb5780631c39c38d146102e657806322395aaa146102e157806322f8e566146102dc578063240f475f146102d757806326205d80146102d257806329cb924d146102cd5780632d0f6f84146102c85780632d32d557146102c357806333dc09ca146102be5780633fc8cef3146102b95780634144fd61146102b45780634f7473ff146102af57806356688700146102aa57806356864f38146102a55780635c975abb146102a0578063625997c01461029b57806369b62502146102965780636ad0690a14610291578063715018a61461028c57806376ec08dd146102875780637998a1c41461028257806380c09a821461027d57806380f323a7146102785780638bda0c00146102735780638da5cb5b1461026e578063a16fd6e914610269578063a584119414610264578063ac9650d81461025f578063b60c2d7d1461025a578063b9a3c84c14610255578063c28f439214610250578063cd9499951461024b578063dd70e5e814610246578063e0f339e314610241578063e40064d71461023c578063e460e35c14610237578063f0056a7d146102325763f2fde38b0361000e576123ce565b612351565b612264565b612228565b6121ee565b612179565b612051565b61202b565b611fe8565b611daf565b611cca565b611be9565b611baf565b611b89565b6119b9565b61199c565b6118f1565b6116b2565b61166f565b611616565b6115f0565b6115e3565b611483565b611461565b611378565b611118565b6110fb565b611098565b611055565b610e63565b610e1b565b610d81565b610d67565b610cf3565b610cca565b610c4f565b610bee565b610bc9565b610b46565b610b29565b610a77565b6107a9565b61070b565b6106c0565b610664565b61049f565b61032d565b6001600160a01b0381160361032957565b5f80fd5b346103295760403660031901126103295760043561034a81610318565b602435906103566133c0565b61035e613418565b5f5460ff60a01b19165f55670de0b6b3a7640000821161045b576001600160a01b038116908115610417576103d4907fffffffffffffffffffffff0000000000000000000000000000000000000000ff74ffffffffffffffffffffffffffffffffffffffff00600b549260081b16911617600b55565b6103dd82600f55565b7fc1993b89fd79a19ece7beb067ddc8534ca26d29c0ff94ea2f53b4a508d1eedc95f80a361001c600160a01b60ff60a01b195f5416175f55565b606460405162461bcd60e51b815260206004820152601d60248201527f4261642070726f746f636f6c46656543617074757265416464726573730000006044820152fd5b606460405162461bcd60e51b815260206004820152601960248201527f4261642070726f746f636f6c46656543617074757265506374000000000000006044820152fd5b3461032957602080600319360112610329576004356104bc6133c0565b6104ce60ff60065460a01c16156124a9565b6104d6613418565b5f805460ff60a01b191690556040516302abf57960e61b81527f4964656e74696669657257686974656c6973740000000000000000000000000060048201526001600160a01b03919083816024817f000000000000000000000000000000000000000000000000000000000000000087165afa9283156106305784915f94610635575b506040517f90978d1b000000000000000000000000000000000000000000000000000000008152600481018490529384916024918391165afa928315610630577ff45367c278fcceff23d601ce4bdd191e5bd61687ff9f29dc7276a08fe54c0c5d936105ea936105d1925f92610603575b5050612529565b6105da81600d55565b6040519081529081906020820190565b0390a161001c600160a01b60ff60a01b195f5416175f55565b6106229250803d10610629575b61061a818361176c565b810190612514565b5f806105ca565b503d610610565b612509565b610656919450823d841161065d575b61064e818361176c565b8101906124f4565b925f610559565b503d610644565b346103295760403660031901126103295760206106a260043561068681610318565b61068e613418565b60ff60a01b195f54165f556024359061352e565b6106b8600160a01b60ff60a01b195f5416175f55565b604051908152f35b34610329576020366003190112610329576004355f90815260096020908152604091829020805460019091015483516001600160a01b039283168152911691810191909152f35b0390f35b34610329576020366003190112610329577fac111b3b527b307393c94d98f26140effb71411054466818be97912d2d65f77660043561074981610318565b6107516133c0565b610759613418565b5f805460ff60a01b1990811682556001600160a01b03928316808352600760209081526040938490208054938416905583519182529190931690830152819081016105ea565b8015150361032957565b34610329576060366003190112610329576004356107c681610318565b6044356024356107d58261079f565b6107dd613418565b5f5460ff60a01b19165f556107f760ff600b541615612574565b6001600160a01b0390817f000000000000000000000000000000000000000000000000000000000000000016918416928383148015610a43575b61083a906125bf565b61085d61084f610849876135f4565b84612640565b670de0b6b3a7640000900490565b9461089b61088f61088f610882846001600160a01b03165f52600760205260405f2090565b546001600160a01b031690565b6001600160a01b031690565b6040517f79cc6790000000000000000000000000000000000000000000000000000000008152336004820152602481018590529190602090839060449082905f905af19081156106305760029261090992610a24575b506001600160a01b03165f52600760205260405f2090565b01610915868254612671565b9055156109ed57813b15610329575f60405180937f2e1a7d4d0000000000000000000000000000000000000000000000000000000082528183816109618a600483019190602083019252565b03925af1908115610630577fcda1185f28599e6bd14ab8a68b3c30a11e1dce4256b5e67e94dd3fd846a6c589926109bb926109d4575b506109a28533613722565b6040805195865260208601919091523394918291820190565b0390a361001c600160a01b60ff60a01b195f5416175f55565b806109e16109e7926116e3565b80610b1f565b5f610997565b7fcda1185f28599e6bd14ab8a68b3c30a11e1dce4256b5e67e94dd3fd846a6c58991506109bb90610a1f8533866136da565b6109a2565b610a3c9060203d6020116106295761061a818361176c565b505f6108f1565b508015610831565b60609060031901126103295760043590602435610a6781610318565b90604435610a7481610318565b90565b3461032957610a8536610a4b565b610a909291926133c0565b610a98613418565b60ff60a01b195f54165f55610aad82846137f8565b5f526008602052610ad78160405f20906001600160a01b03166001600160a01b0319825416179055565b6001600160a01b038091169216907f234e7af08f77827792cc909447f27d2e6a3e2d839b04e26b50b71704a131c8a85f80a461001c600160a01b60ff60a01b195f5416175f55565b5f91031261032957565b34610329575f366003190112610329576020600e54604051908152f35b3461032957602036600319011261032957600435610b638161079f565b610b6b6133c0565b610b73613418565b60ff60a01b195f54165f55151560ff19600b541660ff821617600b557f0e2fb031ee032dc02d8011dc50b816eb450cf856abd8261680dac74f72165bd25f80a261001c600160a01b60ff60a01b195f5416175f55565b34610329575f3660031901126103295760206001600160a01b035f5416604051908152f35b34610329575f36600319011261032957610c06613418565b60ff60a01b195f54165f55610c196127d9565b610c396001600160a01b0380600c541690610c32613832565b16906138c7565b61001c600160a01b60ff60a01b195f5416175f55565b34610329575f6020366003190112610329576001600160a01b035f5416801561032957803b15610329575f80916024604051809481937f22f8e56600000000000000000000000000000000000000000000000000000000835260043560048401525af1801561063057610cc0575080f35b61001c91506116e3565b34610329575f3660031901126103295760206001600160a01b03600b5460081c16604051908152f35b34610329576040366003190112610329576001600160a01b03600435610d1881610318565b610d206133c0565b610d28613418565b60ff60a01b195f54165f55165f526007602052600160405f2001610d4f6024358254612b2f565b905561001c600160a01b60ff60a01b195f5416175f55565b34610329575f3660031901126103295760206106b8612b47565b34610329576020366003190112610329575f600435610d9f81610318565b610da7613418565b60ff60a01b198254168255610de16001600160a01b0380921691828452600a6020526040842090815494859255600b5460081c16836136da565b7f74740239d7d696c84422b720e125e1f47c4138c66d1f4d2a48e99f4197cdb79c5f80a361001c600160a01b60ff60a01b195f5416175f55565b3461032957604036600319011261032957610e44602435610e3b81610318565b600435906137f8565b5f52600860205260206001600160a01b0360405f205416604051908152f35b3461032957604036600319011261032957600435610e8081610318565b60243590610e8c6133c0565b610e9e60ff60065460a01c16156124a9565b610ea6613418565b5f5460ff60a01b19165f55610ebc821515612bb8565b6040516302abf57960e61b81527f436f6c6c61746572616c57686974656c6973740000000000000000000000000060048201526001600160a01b03926020919082826024817f000000000000000000000000000000000000000000000000000000000000000089165afa918215610630575f92611036575b508285851695604051938480927f3a3ab67200000000000000000000000000000000000000000000000000000000825281610f828b600483019190916001600160a01b036020820193169052565b0392165afa918215610630577fbfa9a96010167e98ce8c004f718932cbbfd33a58d681c752e693be7d457a1b3b94610fcd610ff794610fe993611000975f92611019575b5050612c03565b6001600160a01b03166001600160a01b0319600c541617600c55565b610ff1613944565b90612c4e565b6105da81601055565b0390a261001c600160a01b60ff60a01b195f5416175f55565b61102f9250803d106106295761061a818361176c565b5f80610fc6565b61104e919250833d851161065d5761064e818361176c565b905f610f34565b34610329575f3660031901126103295760206040516001600160a01b037f0000000000000000000000000000000000000000000000000000000000000000168152f35b34610329575f3660031901126103295760e060025463ffffffff60035460045460055490600654926040519586526020860152604085015260608401526001600160a01b038116608084015260ff8160a01c1660a084015260a81c1660c0820152f35b34610329575f366003190112610329576020600f54604051908152f35b60403660031901126103295760043561113081610318565b6024359061113c613418565b5f5460ff60a01b19165f5561115660ff600b541615612574565b611186611181611177836001600160a01b03165f52600760205260405f2090565b5460a01c60ff1690565b612c5b565b6001600160a01b0381811691907f0000000000000000000000000000000000000000000000000000000000000000168214808061136f575b8015611367575b6111ce90612ca6565b61123861088f61088f6108826111f56111e68961261e565b6111ef886135f4565b90612653565b956002611213826001600160a01b03165f52600760205260405f2090565b0161121f8a8254612c4e565b90556001600160a01b03165f52600760205260405f2090565b6040517f40c10f190000000000000000000000000000000000000000000000000000000081523360048201526024810184905290602090829060449082905f905af1801561063057611348575b508061133f575b1561130e57813b156103295760405190630d0e30db60e41b82525f8260048134875af1908115610630577f3c69701a61c79a92ef9692903aaa0068bce8771361ecb09547391e4fb4df8537926109bb926112fb575b506040805195865260208601919091523394918291820190565b806109e1611308926116e3565b5f6112e1565b6109bb7f3c69701a61c79a92ef9692903aaa0068bce8771361ecb09547391e4fb4df853791610a1f85303387613bfd565b5034151561128c565b6113609060203d6020116106295761061a818361176c565b505f611285565b5034156111c5565b508334146111be565b346103295760803660031901126103295760443560243560043561139b83610318565b7fb7d00a563842efb2c121a0eb02b7bb7ba1a34625bbc3d65057f1f0dbec0ec2a16020606435946113cb8661079f565b6113d3613418565b5f5460ff60a01b19165f556113e66133c0565b6114446001600160a01b03604051927f272751c7000000000000000000000000000000000000000000000000000000008585015216968760248401528660448401521515918260648201526064815261143e81611750565b85613c55565b604051908152a461001c600160a01b60ff60a01b195f5416175f55565b34610329575f36600319011261032957602060ff600b54166040519015158152f35b34610329575f3660031901126103295761149b6133c0565b6114a3613418565b5f5460ff60a01b19165f556040516114ba816116fc565b600254815260035460208201908152600454906040830191825260055460608401527f993cba33f9b140c9ce20ba10d7eda92128d5beb6df856f064916108a11647a7361159c6006549461158a6001600160a01b039160ff61157160808301998581168b5261155163ffffffff60a086019261153e868260a01c16859060ff169052565b60a81c1660c086019063ffffffff169052565b61156a5f6002555f6003555f6004555f6005555f600655565b5160ff1690565b166115b5575b519451955196516001600160a01b031690565b60405196875216949081906020820190565b0390a461001c600160a01b60ff60a01b195f5416175f55565b6115de6115ca600c546001600160a01b031690565b89516001600160a01b0316601054916136da565b611577565b5f36600319011261032957005b34610329575f36600319011261032957602063ffffffff600c5460a01c16604051908152f35b34610329575f3660031901126103295761162e6133c0565b5f6001600160a01b036001546001600160a01b03198116600155167f8be0079c531659141344cd1fd0a4f28419497f9722a3daafe3b4186f6b6457e08280a3005b34610329575f3660031901126103295760206040516001600160a01b037f0000000000000000000000000000000000000000000000000000000000000000168152f35b34610329575f366003190112610329576020600d54604051908152f35b634e487b7160e01b5f52604160045260245ffd5b67ffffffffffffffff81116116f757604052565b6116cf565b60e0810190811067ffffffffffffffff8211176116f757604052565b6040810190811067ffffffffffffffff8211176116f757604052565b60c0810190811067ffffffffffffffff8211176116f757604052565b60a0810190811067ffffffffffffffff8211176116f757604052565b90601f8019910116810190811067ffffffffffffffff8211176116f757604052565b60405190610160820182811067ffffffffffffffff8211176116f757604052565b604051906117bc826116fc565b565b67ffffffffffffffff81116116f75760051b60200190565b9080601f830112156103295760209082356117f0816117be565b936117fe604051958661176c565b81855260208086019260051b82010192831161032957602001905b828210611827575050505090565b81358152908301908301611819565b60a4359060ff8216820361032957565b6024359060ff8216820361032957565b9080601f83011215610329576020908235611870816117be565b9361187e604051958661176c565b81855260208086019260051b82010192831161032957602001905b8282106118a7575050505090565b83809183356118b581610318565b815201910190611899565b9181601f840112156103295782359167ffffffffffffffff8311610329576020808501948460051b01011161032957565b34610329576101003660031901126103295767ffffffffffffffff60046044358281116103295761192590369083016117d6565b906064358381116103295761193d90369083016117d6565b6084358481116103295761195490369084016117d6565b61195c611836565b9060c435868111610329576119749036908601611856565b9260e4359687116103295761198f61001c97369087016118c0565b9690956024359035612cf1565b34610329575f366003190112610329576020601054604051908152f35b346103295760a03660031901126103295760043567ffffffffffffffff8111610329576119ea9036906004016118c0565b906119f3611846565b604435906064359260843591611a07613418565b5f5460ff60a01b19165f55611a2460ff60065460a01c16156124a9565b611a3360ff600b541615612574565b60ff811615611b455761159c7f3185fa6fac8e91dc65e7424a8081c73353151d2715bddb71db0982c1fe4c0fd493611a8a611a78611a6f612b47565b63ffffffff1690565b600c5460a01c63ffffffff16906126d8565b97611aa45f6002555f6003555f6004555f6005555f600655565b611ac98963ffffffff60a81b1963ffffffff60a81b6006549260a81b16911617600655565b611ae88460ff60a01b1960ff60a01b6006549260a01b16911617600655565b611af187600255565b611afa88600355565b611b0382600455565b600680546001600160a01b03191633179055611b37611b2a600c546001600160a01b031690565b6010549030903390613bfd565b604051948594339a866131f0565b606460405162461bcd60e51b815260206004820152602060248201527f42756e646c65206d7573742068617665206174206c656173742031206c6561666044820152fd5b34610329575f3660031901126103295760206001600160a01b0360015416604051908152f35b346103295760203660031901126103295760206106a2600435611bd181610318565b611bd9613418565b60ff60a01b195f54165f5561346b565b3461032957602036600319011261032957610c39600435611c0981610318565b611c11613418565b60ff60a01b195f54165f55613ff0565b5f5b838110611c325750505f910152565b8181015183820152602001611c23565b90602091611c5b81518092818552858086019101611c21565b601f01601f1916010190565b6020808201906020835283518092526040830192602060408460051b8301019501935f915b848310611c9c5750505050505090565b9091929394958480611cba600193603f198682030187528a51611c42565b9801930193019194939290611c8c565b34610329576020366003190112610329576004803567ffffffffffffffff811161032957611cfc9036906004016118c0565b91611d0683613250565b925f5b818110611d1e57604051806107078782611c67565b5f80611d2b8385886132ad565b60409391611d3d8551809381936132f4565b0390305af490611d4b6130b8565b9115611d72575090600191611d608288613371565b52611d6b8187613371565b5001611d09565b8482604481511061032957611d968183611dab930151602480918301019101613301565b925192839262461bcd60e51b84528301613360565b0390fd5b3461032957602036600319011261032957600435611dcc81610318565b611dd46133c0565b611ddc613418565b5f5460ff60a01b19165f556001600160a01b039081611e0f610882836001600160a01b03165f52600760205260405f2090565b1615611eaa575b80611e69611e567f04e291c80180d65a57b5bf1bed775777ec0d6f283ef34bcf130712714d8bb7f7936001600160a01b03165f52600760205260405f2090565b600160a01b60ff60a01b19825416179055565b611e87610882826001600160a01b03165f52600760205260405f2090565b604080516001600160a01b039384168152929091166020830152819081016105ea565b6040517ffc2f1b6e0000000000000000000000000000000000000000000000000000000081526001600160a01b038216600482015291602090839060249082905f907f0000000000000000000000000000000000000000000000000000000000000000165af1918215610630577f04e291c80180d65a57b5bf1bed775777ec0d6f283ef34bcf130712714d8bb7f792611f7b915f91611fc9575b50611f60836001600160a01b03165f52600760205260405f2090565b906001600160a01b03166001600160a01b0319825416179055565b611fc4611f89611a6f612b47565b611fa4836001600160a01b03165f52600760205260405f2090565b9063ffffffff60a81b1963ffffffff60a81b83549260a81b169116179055565b611e16565b611fe2915060203d60201161065d5761064e818361176c565b5f611f44565b34610329575f3660031901126103295760206040516001600160a01b037f0000000000000000000000000000000000000000000000000000000000000000168152f35b34610329575f3660031901126103295760206001600160a01b03600c5416604051908152f35b346103295760203660031901126103295760043563ffffffff8116808203610329576102589061207f6133c0565b612087613418565b5f5460ff60a01b19165f55111561211957600c80547fffffffffffffffff00000000ffffffffffffffffffffffffffffffffffffffff1660a083901b77ffffffff00000000000000000000000000000000000000001617905560405163ffffffff90911681527f04dd1d84d387f404568a7954b5e398518bdd716e1a8f4a790be9a1a225ad93479080602081016105ea565b606460405162461bcd60e51b815260206004820152601260248201527f4c6976656e65737320746f6f2073686f727400000000000000000000000000006044820152fd5b67ffffffffffffffff81116116f757601f01601f191660200190565b346103295760403660031901126103295760243567ffffffffffffffff811161032957366023820112156103295780600401356121b58161215d565b906121c3604051928361176c565b8082523660248285010111610329576020815f92602461001c96018386013783010152600435613385565b346103295760203660031901126103295760206106a260043561221081610318565b612218613418565b60ff60a01b195f54165f556135f4565b34610329576020366003190112610329576001600160a01b0360043561224d81610318565b165f52600a602052602060405f2054604051908152f35b34610329577f36050d958750e6ac3aa674ac7bbe8d0ae6a2f7d4b808e8c2c42c1f22fc9fc4bb606061229536610a4b565b9061229e6133c0565b6122a6613418565b60ff60a01b195f54165f5561232a6040516122c081611718565b60016001600160a01b03809416938483528060208401961695868152875f52600960205261230b8260405f2095511685906001600160a01b03166001600160a01b0319825416179055565b51169101906001600160a01b03166001600160a01b0319825416179055565b60405192835260208301526040820152a161001c600160a01b60ff60a01b195f5416175f55565b346103295760203660031901126103295760c060043561237081610318565b6001600160a01b038091165f52600760205260405f20805490600181015463ffffffff6003600284015493015493604051958116865260ff8160a01c161515602087015260a81c1660408501526060840152608083015260a0820152f35b34610329576020366003190112610329576004356123eb81610318565b6123f36133c0565b6001600160a01b0380911690811561243f57600154826001600160a01b0319821617600155167f8be0079c531659141344cd1fd0a4f28419497f9722a3daafe3b4186f6b6457e05f80a3005b608460405162461bcd60e51b815260206004820152602660248201527f4f776e61626c653a206e6577206f776e657220697320746865207a65726f206160448201527f64647265737300000000000000000000000000000000000000000000000000006064820152fd5b156124b057565b606460405162461bcd60e51b815260206004820152601d60248201527f50726f706f73616c2068617320756e636c61696d6564206c65617665730000006044820152fd5b908160209103126103295751610a7481610318565b6040513d5f823e3d90fd5b908160209103126103295751610a748161079f565b1561253057565b606460405162461bcd60e51b815260206004820152601860248201527f4964656e746966696572206e6f7420737570706f7274656400000000000000006044820152fd5b1561257b57565b606460405162461bcd60e51b815260206004820152601260248201527f436f6e74726163742069732070617573656400000000000000000000000000006044820152fd5b156125c657565b606460405162461bcd60e51b815260206004820152600d60248201527f43616e742073656e6420657468000000000000000000000000000000000000006044820152fd5b634e487b7160e01b5f52601160045260245ffd5b90670de0b6b3a76400009182810292818404149015171561263b57565b61260a565b8181029291811591840414171561263b57565b811561265d570490565b634e487b7160e01b5f52601260045260245ffd5b9190820391821161263b57565b1561268557565b606460405162461bcd60e51b815260206004820152601760248201527f5265717565737420706173736564206c6976656e6573730000000000000000006044820152fd5b90816020910312610329575190565b91909163ffffffff8080941691160191821161263b57565b906117bc945f6127ca9263ffffffff6101e0969a99979a6102009287521660208601528060408601528401526102208301976127386060850182516001600160a01b03169052565b60208101516001600160a01b0316608085015260408101516001600160a01b031660a08501526060810151151560c0850152608081015160e085015260a081015190610100918286015260c0810151610120908187015260e082015192610140938488015282015161016087015281015161018086015201516101a08401526101c08301906001600160a01b03169052565b01906001600160a01b03169052565b6127e4611a6f612b47565b6006546127f99060a81c63ffffffff16611a6f565b61280c63ffffffff91828416111561267e565b612814613944565b906010918254811015612b2357612829613832565b91600c93845461283f906001600160a01b031690565b936001600160a01b03809116948583549061285992613b37565b600d5495805496888685549061286e91612671565b98600654612882906001600160a01b031690565b9060405193849283927faf355d1e00000000000000000000000000000000000000000000000000000000845260209d8e968a8d8460a01c169316906004870195612927969291670de0b6b3a7640000955f6101009699989361012090875263ffffffff80941660208801528060408801528601526101408501986001600160a01b0380951660608701525f608087015260a08601521660c08401521660e08201520152565b03818a5a905f91f19081612b06575b5061294b5750505050505050506117bc613a7f565b878692889661296a8561296586546001600160a01b031690565b6138c7565b6006546001600160a01b031696845492818460a01c16948561298b916126d8565b908389549061299991612671565b946129a261178e565b6001600160a01b03909b168b525f8c8c0152166001600160a01b031660408a0152606089015f905260808901670de0b6b3a7640000905260a089015f90521660c088015260e087015f9052610100870152610120860152610140850152612a185f6002555f6003555f6004555f6005555f600655565b80546001600160a01b031683543033612a3093613bfd565b546001600160a01b0316915490612a4692613b37565b600d549260405180809581947f9ce320c8000000000000000000000000000000000000000000000000000000008352309033908b6004860194612a88956126f0565b03915a905f91f1801561063057612ad8575b505060405163ffffffff909116815233907f15951cb2ef6993bc23a55912e7d0bcac13e4797c432aaa334816aed6914a7a909080602081015b0390a2565b81612af792903d10612aff575b612aef818361176c565b8101906126c9565b505f80612a9a565b503d612ae5565b612b1c90893d8b11612aff57612aef818361176c565b505f612936565b505050506117bc613a7f565b81810392915f13801582851316918412161761263b57565b5f546001600160a01b03168015612bb3576020600491604051928380927f29cb924d0000000000000000000000000000000000000000000000000000000082525afa908115610630575f91612b9a575090565b610a74915060203d602011612aff57612aef818361176c565b504290565b15612bbf57565b606460405162461bcd60e51b815260206004820152601760248201527f626f6e6420657175616c20746f2066696e616c206665650000000000000000006044820152fd5b15612c0a57565b606460405162461bcd60e51b815260206004820152601060248201527f4e6f74206f6e2077686974656c697374000000000000000000000000000000006044820152fd5b9190820180921161263b57565b15612c6257565b606460405162461bcd60e51b815260206004820152601160248201527f546f6b656e206e6f7420656e61626c65640000000000000000000000000000006044820152fd5b15612cad57565b606460405162461bcd60e51b815260206004820152600d60248201527f426164206d73672e76616c7565000000000000000000000000000000000000006044820152fd5b969795929491939097612d02613418565b5f5460ff60a01b19165f55600b5460ff1615612d1d90612574565b612d25612b47565b60065460a81c63ffffffff1663ffffffff1610612d4190612f5a565b60055496612d59600160ff86161b808a161415612fa5565b60025491612d656117af565b918a83528760208401528860408401528460608401528b60808401528560a0840190612d93919060ff169052565b8660c08401523690612da492612ff0565b90612dae92613cc0565b612db79061303e565b612dc087613d60565b95909260ff16966001881b17612dd590600555565b60065460a01c60ff16612de790613089565b612e069060ff60a01b1960ff60a01b6006549260a01b16911617600655565b612e148582868b8a88613e61565b7ff652dd63b1aedbf9e740f3152fb67b0d94d069cf1182811ebd88921850d9356795612e62938a15612eaa575b505060065460ff8160a01c1615612e7b575b50604051948594339a866131a1565b0390a46117bc600160a01b60ff60a01b195f5416175f55565b612ea490612e91600c546001600160a01b031690565b6001600160a01b036010549216906136da565b5f612e53565b5f8091612f5393612f35612f4160035460045490612f036040519283927f493a4f840000000000000000000000000000000000000000000000000000000060208501526024840160209093929193604081019481520152565b0390612f17601f199283810183528261176c565b6040519384916020830196637375c56f60e11b885260248401613098565b0390810183528261176c565b51915af4612f4d6130b8565b506130e7565b5f80612e41565b15612f6157565b606460405162461bcd60e51b815260206004820152601360248201527f4e6f7420706173736564206c6976656e657373000000000000000000000000006044820152fd5b15612fac57565b606460405162461bcd60e51b815260206004820152600f60248201527f416c726561647920636c61696d656400000000000000000000000000000000006044820152fd5b9291612ffb826117be565b91613009604051938461176c565b829481845260208094019160051b810192831161032957905b82821061302f5750505050565b81358152908301908301613022565b1561304557565b606460405162461bcd60e51b815260206004820152600960248201527f4261642050726f6f6600000000000000000000000000000000000000000000006044820152fd5b60ff16801561263b575f190190565b6040906001600160a01b03610a7494931681528160208201520190611c42565b3d156130e2573d906130c98261215d565b916130d7604051938461176c565b82523d5f602084013e565b606090565b156130ee57565b606460405162461bcd60e51b815260206004820152601360248201527f64656c656761746563616c6c206661696c6564000000000000000000000000006044820152fd5b9081518082526020808093019301915f5b828110613151575050505090565b83516001600160a01b031685529381019392810192600101613143565b9081518082526020808093019301915f5b82811061318d575050505090565b83518552938101939281019260010161317f565b9390610a7495936131c66131e2946131d493885260a0602089015260a0880190613132565b90868203604088015261316e565b90848203606086015261316e565b91608081840391015261316e565b9594939163ffffffff60ff92168752166020860152608060408601528060808601527f07ffffffffffffffffffffffffffffffffffffffffffffffffffffffffffffff81116103295760609160a09160051b809183880137850101930152565b9061325a826117be565b613267604051918261176c565b8281528092613278601f19916117be565b01905f5b82811061328857505050565b80606060208093850101520161327c565b634e487b7160e01b5f52603260045260245ffd5b91908110156132ef5760051b81013590601e198136030182121561032957019081359167ffffffffffffffff8311610329576020018236038113610329579190565b613299565b908092918237015f815290565b6020818303126103295780519067ffffffffffffffff8211610329570181601f820112156103295780516133348161215d565b92613342604051948561176c565b8184526020828401011161032957610a749160208085019101611c21565b906020610a74928181520190611c42565b80518210156132ef5760209160051b010190565b906133aa916133926133c0565b61339a613418565b60ff60a01b195f54165f55613c55565b6117bc600160a01b60ff60a01b195f5416175f55565b6001600160a01b036001541633036133d457565b606460405162461bcd60e51b815260206004820152602060248201527f4f776e61626c653a2063616c6c6572206973206e6f7420746865206f776e65726044820152fd5b60ff5f5460a01c161561342757565b606460405162461bcd60e51b815260206004820152601f60248201527f5265656e7472616e637947756172643a207265656e7472616e742063616c6c006044820152fd5b61347481613ff0565b6001600160a01b038091165f52600760205260405f20906134c863ffffffff604051926134a084611734565b8454908116845260ff8160a01c161515602085015260a81c16604083019063ffffffff169052565b60018201549081606082015260a0600360028501549485608085015201549101525f81135f14613522576134fd908092612c4e565b80156135145761350f610a749261261e565b612653565b5050670de0b6b3a764000090565b506134fd5f8092612c4e565b906134fd9061353c83613ff0565b6001600160a01b038093165f52600760205260405f209261359063ffffffff6040519261356884611734565b8654908116845260ff8160a01c161515602085015260a81c16604083019063ffffffff169052565b60018401549081606082015260a060036002870154966080840197885201549101525f81135f146135cd576135c6908092612c4e565b9251612c4e565b506135c65f8092612c4e565b9190915f838201938412911290801582169115161761263b57565b6004613611826001600160a01b03165f52600760205260405f2090565b602061362a61088f61088f84546001600160a01b031690565b604051938480927f18160ddd0000000000000000000000000000000000000000000000000000000082525afa918215610630575f926136b9575b5081156136aa576136a581613687610a749561368261350f95614199565b613ff0565b600361369c60028301546001840154906135d9565b91015490612b2f565b61261e565b505050670de0b6b3a764000090565b6136d391925060203d602011612aff57612aef818361176c565b905f613664565b60405163a9059cbb60e01b60208201526001600160a01b03909216602483015260448201929092526117bc9161371d82606481015b03601f19810184528361176c565b614223565b8147106137b4575f8080936001600160a01b038294165af16137426130b8565b501561374a57565b608460405162461bcd60e51b815260206004820152603a60248201527f416464726573733a20756e61626c6520746f2073656e642076616c75652c207260448201527f6563697069656e74206d617920686176652072657665727465640000000000006064820152fd5b606460405162461bcd60e51b815260206004820152601d60248201527f416464726573733a20696e73756666696369656e742062616c616e63650000006044820152fd5b604080516001600160a01b03909216602083019081529082019290925261382c81606081015b03601f19810183528261176c565b51902090565b6001600160a01b036040516302abf57960e61b81527f536b696e6e794f7074696d69737469634f7261636c65000000000000000000006004820152602081602481857f0000000000000000000000000000000000000000000000000000000000000000165afa908115610630575f916138aa57501690565b6138c3915060203d60201161065d5761064e818361176c565b1690565b906001600160a01b036040519163095ea7b360e01b60208401521660248201525f604482015260448152608081019181831067ffffffffffffffff8411176116f7576117bc92604052614223565b9081602091031261032957604051906020820182811067ffffffffffffffff8211176116f75760405251815290565b6040516302abf57960e61b81527f53746f726500000000000000000000000000000000000000000000000000000060048201526020906001600160a01b039082816024817f000000000000000000000000000000000000000000000000000000000000000086165afa908115610630578391613a1c915f91613a62575b506139d761088f600c546001600160a01b031690565b6040519485809481937f5b97aadd000000000000000000000000000000000000000000000000000000008352600483019190916001600160a01b036020820193169052565b0392165afa918215610630575f92613a35575b50505190565b613a549250803d10613a5b575b613a4c818361176c565b810190613915565b5f80613a2f565b503d613a42565b613a799150833d851161065d5761064e818361176c565b5f6139c1565b600c5460065460105460405163a9059cbb60e01b81526001600160a01b039283166004820152602481019190915291602091839160449183915f91165af1801561063057613b18575b50613ae25f6002555f6003555f6004555f6005555f600655565b613aea612b47565b6040519081527f0cfbbf45ab7f5225663454de7117b1b0ed5a7c133b61f54ccf367dcf8b6d4d5960203392a2565b613b309060203d6020116106295761061a818361176c565b505f613ac8565b6040517fdd62ed3e0000000000000000000000000000000000000000000000000000000081523060048201526001600160a01b03831660248201529192602083806044810103816001600160a01b0386165afa928315610630575f93613bdc575b50820180921161263b5760405163095ea7b360e01b60208201526001600160a01b03909316602484015260448301919091526117bc919061371d826064810161370f565b613bf691935060203d602011612aff57612aef818361176c565b915f613b98565b90926117bc93604051937f23b872dd0000000000000000000000000000000000000000000000000000000060208601526001600160a01b03809216602486015216604484015260648301526064825261371d82611750565b90612ad37f218987b934c2f6bc596136829fbf43a5fef4d6fafce41f3f6254d9a870c2deec91613cac5f80613c8987613d60565b604051612f418161381e896020830195637375c56f60e11b875260248401613098565b604051918291602083526020830190611c42565b610a749291604051613d578161381e60208201946020865280516040840152613cf9602082015160e0606086015261012085019061316e565b60c0613d2e613d1a604085015193603f1994858983030160808a015261316e565b6060850151848883030160a089015261316e565b9260808101518287015260ff60a08201511660e087015201519084830301610100850152613132565b5190209161431b565b5f52600960205260405f20906001600160a01b0360018184541693015416908115613dd257823b15613d8e57565b606460405162461bcd60e51b815260206004820152601760248201527f41646170746572206e6f7420696e697469616c697a65640000000000000000006044820152fd5b606460405162461bcd60e51b815260206004820152601960248201527f53706f6b65506f6f6c206e6f7420696e697469616c697a6564000000000000006044820152fd5b15613e1d57565b606460405162461bcd60e51b815260206004820152601560248201527f526f757465206e6f742077686974656c697374656400000000000000000000006044820152fd5b92949391908551955f5b878110613e7c575050505050505050565b80613ef7613e9c613e8f60019486613371565b516001600160a01b031690565b858389613ebd610882613eaf8c876137f8565b5f52600860205260405f2090565b613ed16001600160a01b0382161515613e16565b5f613edc8484613371565b5113613efd575b5050613ef091508b613371565b519061436c565b01613e6b565b613f7c93613f6f613f105f958695613371565b516040517f52c8c75c00000000000000000000000000000000000000000000000000000000602082019081526001600160a01b038a81166024840152958616604483015260648201929092529290931660848301528160a4810161381e565b51908d5af4612f4d6130b8565b613f868389613371565b51613faf85613fa6846001600160a01b03165f52600760205260405f2090565b019182546135d9565b9055613fbb8389613371565b51613fe56002613fdc846001600160a01b03165f52600760205260405f2090565b01918254612671565b90558583895f613ee3565b6040517f70a082310000000000000000000000000000000000000000000000000000000081523060048201526001600160a01b038216602082602481845afa918215610630575f9261410a575b5061405661088f61088f600c546001600160a01b031690565b14806140f9575b156140f35760105461406e91612671565b905b600261408d826001600160a01b03165f52600760205260405f2090565b01548211614099575050565b6140ef816140c660026140be81956001600160a01b03165f52600760205260405f2090565b015485612671565b61121f60016140e6846001600160a01b03165f52600760205260405f2090565b01918254612b2f565b0155565b90614070565b5060ff60065460a01c16151561405d565b61412491925060203d602011612aff57612aef818361176c565b905f61403d565b60ff5f5460a01c1661413957565b6001600160a01b037f000000000000000000000000000000000000000000000000000000000000000016803b15610329575f60049160405192838092630d0e30db60e41b825234905af18015610630576141905750565b6117bc906116e3565b6003810190815463ffffffff9081835460a81c166141b5612b47565b90810390811161263b576141dd670de0b6b3a7640000916141d8600e5485612640565b612640565b048181101561421c575b810390811161263b576117bc93556141fd612b47565b825463ffffffff60a81b1916911660a81b63ffffffff60a81b16179055565b50806141e7565b604051614280916001600160a01b031661423c82611718565b5f806020958685527f5361666545524332303a206c6f772d6c6576656c2063616c6c206661696c656487860152868151910182855af161427a6130b8565b91614416565b805190828215928315614303575b505050156142995750565b6084906040519062461bcd60e51b82526004820152602a60248201527f5361666545524332303a204552433230206f7065726174696f6e20646964206e60448201527f6f742073756363656564000000000000000000000000000000000000000000006064820152fd5b6143139350820181019101612514565b5f828161428e565b929091905f915b8451831015614364576143358386613371565b519081811015614353575f52602052600160405f205b920191614322565b905f52602052600160405f2061434b565b915092501490565b670de0b6b3a7640000614381600f5484612640565b04918281039080821161263b5783036143c2575b508161439f575050565b6001600160a01b03165f52600a60205260405f20805491820180921161263b5755565b60036143df836001600160a01b03165f52600760205260405f2090565b0180549082820180921161263b575561440e6001613fa6846001600160a01b03165f52600760205260405f2090565b90555f614395565b91929015614477575081511561442a575090565b3b156144335790565b606460405162461bcd60e51b815260206004820152601d60248201527f416464726573733a2063616c6c20746f206e6f6e2d636f6e74726163740000006044820152fd5b82519091501561448a5750805190602001fd5b611dab9060405191829162461bcd60e51b83526004830161336056fea26469706673582212204dfff232c2b426506998b07af745c2a2656ae3b020acc9e4d93928547f88f63d64736f6c63430008170033",
  "libraries": {
    "MerkleLib": "0xFB87Ac52Bac7ccF497b6053610A9c59B87a0cE7D"
  }
}