{
  "address": "0x8654585e4dc09A72248cc97d0Dc4E079df855D82",
  "abi": [
    {
      "inputs": [
        {
          "internalType": "contract IL1GatewayRouter",
          "name": "_l1GatewayRouter",
          "type": "address"
        },
        {
          "internalType": "contract IL1ScrollMessenger",
          "name": "_l1ScrollMessenger",
          "type": "address"
        },
        {
          "internalType": "contract IL2GasPriceOracle",
          "name": "_l2GasPriceOracle",
          "type": "address"
        },
        {
          "internalType": "uint32",
          "name": "_l2GasLimit",
          "type": "uint32"
        }
      ],
      "stateMutability": "nonpayable",
      "type": "constructor"
    },
    {
      "anonymous": false,
      "inputs": [
        {
          "indexed": false,
          "internalType": "address",
          "name": "target",
          "type": "address"
        },
        {
          "indexed": false,
          "internalType": "bytes",
          "name": "message",
          "type": "bytes"
        }
      ],
      "name": "MessageRelayed",
      "type": "event"
    },
    {
      "anonymous": false,
      "inputs": [
        {
          "indexed": false,
          "internalType": "address",
          "name": "l1Token",
          "type": "address"
        },
        {
          "indexed": false,
          "internalType": "address",
          "name": "l2Token",
          "type": "address"
        },
        {
          "indexed": false,
          "internalType": "uint256",
          "name": "amount",
          "type": "uint256"
        },
        {
          "indexed": false,
          "internalType": "address",
          "name": "to",
          "type": "address"
        }
      ],
      "name": "TokensRelayed",
      "type": "event"
    },
    {
      "inputs": [],
      "name": "l1GatewayRouter",
      "outputs": [
        {
          "internalType": "contract IL1GatewayRouter",
          "name": "",
          "type": "address"
        }
      ],
      "stateMutability": "view",
      "type": "function"
    },
    {
      "inputs": [],
      "name": "l1ScrollMessenger",
      "outputs": [
        {
          "internalType": "contract IL1ScrollMessenger",
          "name": "",
          "type": "address"
        }
      ],
      "stateMutability": "view",
      "type": "function"
    },
    {
      "inputs": [],
      "name": "l2GasLimit",
      "outputs": [
        {
          "internalType": "uint32",
          "name": "",
          "type": "uint32"
        }
      ],
      "stateMutability": "view",
      "type": "function"
    },
    {
      "inputs": [],
      "name": "l2GasPriceOracle",
      "outputs": [
        {
          "internalType": "contract IL2GasPriceOracle",
          "name": "",
          "type": "address"
        }
      ],
      "stateMutability": "view",
      "type": "function"
    },
    {
      "inputs": [
        {
          "internalType": "address",
          "name": "target",
          "type": "address"
        },
        {
          "internalType": "bytes",
          "name": "message",
          "type": "bytes"
        }
      ],
      "name": "relayMessage",
      "outputs": [],
      "stateMutability": "payable",
      "type": "function"
    },
    {
      "inputs": [
        {
          "internalType": "address",
          "name": "l1Token",
          "type": "address"
        },
        {
          "internalType": "address",
          "name": "l2Token",
          "type": "address"
        },
        {
          "internalType": "uint256",
          "name": "amount",
          "type": "uint256"
        },
        {
          "internalType": "address",
          "name": "to",
          "type": "address"
        }
      ],
      "name": "relayTokens",
      "outputs": [],
      "stateMutability": "payable",
      "type": "function"
    }
  ],
  "transactionHash": "0xf12606e9e2ad8b04907e22c6b6521d41805ed2fffa4f3461618ab9333ec7677d",
  "args": [
    "0x13FBE0D0e5552b8c9c4AE9e2435F38f37355998a",
    "0x50c7d3e7f7c656493D1D76aaa1a836CedfCBB16A",
    "0x247969F4fad93a33d4826046bc3eAE0D36BdE548",
    150000
  ],
  "numDeployments": 7,
  "solcInputHash": "01b9e635159e9f88edd38b42ed83ae01",
  "bytecode": "0x610100346100eb57601f610db838819003918201601f19168301916001600160401b038311848410176100ef578084926080946040528339810103126100eb578051906001600160a01b039081831683036100eb5760208101519082821682036100eb57604081015192831683036100eb57606001519263ffffffff841684036100eb5760a05260c05260e052608052604051610cb4908161010482396080518181816101720152818161024e015281816106470152610a45015260a0518181816102bd0152610434015260c05181818160eb015261032c015260e05181818161039b0152610a870152f35b5f80fd5b634e487b7160e01b5f52604160045260245ffdfe6080604081815260049081361015610015575f80fd5b5f925f3560e01c90816352c8c75c146103bf57508063a4edd2da14610350578063a98f7044146102e1578063ad06895b14610272578063cf6e65b7146102135763e6eb8ade14610063575f80fd5b807ffffffffffffffffffffffffffffffffffffffffffffffffffffffffffffffffc36011261020f57610094610934565b91602435928467ffffffffffffffff9182861161020b573660238701121561020b578584013592831161020b576024860195602484369201011161020b5773ffffffffffffffffffffffffffffffffffffffff90817f00000000000000000000000000000000000000000000000000000000000000001691610114610a17565b92803b156101fd578492885194859384927fb2267a7b000000000000000000000000000000000000000000000000000000008452168099830152846024830152608060448301528161016b8c8a60848401916109d9565b63ffffffff7f000000000000000000000000000000000000000000000000000000000000000016606483015203925af18015610201576101e9575b50507f9e6c52944e331ba6270e7fe4cea2a4086bae8f7a27e1cdba07f416806f5d0ac4936101e391845194859485528060208601528401916109d9565b0390a180f35b6101f290610957565b6101fd57845f6101a6565b8480fd5b85513d84823e3d90fd5b5080fd5b8280fd5b83823461020b57817ffffffffffffffffffffffffffffffffffffffffffffffffffffffffffffffffc36011261020b576020905163ffffffff7f0000000000000000000000000000000000000000000000000000000000000000168152f35b83823461020b57817ffffffffffffffffffffffffffffffffffffffffffffffffffffffffffffffffc36011261020b576020905173ffffffffffffffffffffffffffffffffffffffff7f0000000000000000000000000000000000000000000000000000000000000000168152f35b83823461020b57817ffffffffffffffffffffffffffffffffffffffffffffffffffffffffffffffffc36011261020b576020905173ffffffffffffffffffffffffffffffffffffffff7f0000000000000000000000000000000000000000000000000000000000000000168152f35b83823461020b57817ffffffffffffffffffffffffffffffffffffffffffffffffffffffffffffffffc36011261020b576020905173ffffffffffffffffffffffffffffffffffffffff7f0000000000000000000000000000000000000000000000000000000000000000168152f35b9291905060807ffffffffffffffffffffffffffffffffffffffffffffffffffffffffffffffffc3601126106ff576103f5610934565b9060249384359073ffffffffffffffffffffffffffffffffffffffff958683168093036106ff57604495863595606435978989168099036106ff5789807f000000000000000000000000000000000000000000000000000000000000000016927fc676ad2900000000000000000000000000000000000000000000000000000000875216998a8487015260209586818781875afa90811561092a57908892915f916108ee575b5016036108945786517fdd62ed3e0000000000000000000000000000000000000000000000000000000081523084820152848101839052858183818e5afa90811561088a575f9161085d575b50888101809111610832578751868101917f095ea7b3000000000000000000000000000000000000000000000000000000008352848783015283820152828152608081019167ffffffffffffffff91808410838511176108075760c08101848110848211176107dc575f928f91849384918f528c88527f5361666545524332303a206c6f772d6c6576656c2063616c6c206661696c656460a082015251925af13d156107ce573d9182116107a357906105de92918a51916105cf8a7fffffffffffffffffffffffffffffffffffffffffffffffffffffffffffffffe0601f8401160184610998565b82523d5f8a84013e5b8d610b5e565b8051868115918215610783575b5050905015610703576105fc610a17565b92823b156106ff575f938b938a6084948d8c51998a9889977ff219fa6600000000000000000000000000000000000000000000000000000000895288015286015284015263ffffffff7f00000000000000000000000000000000000000000000000000000000000000001660648401525af180156106f5576106b3575b50825195865285015283015260608201527fd7e09655439c3932e55857df3220186e5a7f0980825f20691c2b35d941dee75b90608090a180f35b60809593919750916106e77fd7e09655439c3932e55857df3220186e5a7f0980825f20691c2b35d941dee75b979593610957565b5f9791939550919395610679565b84513d5f823e3d90fd5b5f80fd5b7f5361666545524332303a204552433230206f7065726174696f6e20646964206e9150602a608494868951957f08c379a00000000000000000000000000000000000000000000000000000000087528601528401528201527f6f742073756363656564000000000000000000000000000000000000000000006064820152fd5b83809293500103126106ff5785015180151581036106ff5780865f6105eb565b866041877f4e487b71000000000000000000000000000000000000000000000000000000005f52525ffd5b6105de9291506060906105d8565b886041897f4e487b71000000000000000000000000000000000000000000000000000000005f52525ffd5b876041887f4e487b71000000000000000000000000000000000000000000000000000000005f52525ffd5b846011857f4e487b71000000000000000000000000000000000000000000000000000000005f52525ffd5b90508581813d8311610883575b6108748183610998565b810103126106ff57515f6104e7565b503d61086a565b88513d5f823e3d90fd5b7f6c32546f6b656e204d69736d617463680000000000000000000000000000000091506010606494868951957f08c379a0000000000000000000000000000000000000000000000000000000008752860152840152820152fd5b80929350888092503d8311610923575b6109088183610998565b810103126106ff57519080821682036106ff5787915f61049b565b503d6108fe565b89513d5f823e3d90fd5b6004359073ffffffffffffffffffffffffffffffffffffffff821682036106ff57565b67ffffffffffffffff811161096b57604052565b7f4e487b71000000000000000000000000000000000000000000000000000000005f52604160045260245ffd5b90601f7fffffffffffffffffffffffffffffffffffffffffffffffffffffffffffffffe0910116810190811067ffffffffffffffff82111761096b57604052565b601f82602094937fffffffffffffffffffffffffffffffffffffffffffffffffffffffffffffffe093818652868601375f8582860101520116010190565b604051907fd7704bae00000000000000000000000000000000000000000000000000000000825263ffffffff7f000000000000000000000000000000000000000000000000000000000000000016600483015260208260248173ffffffffffffffffffffffffffffffffffffffff7f0000000000000000000000000000000000000000000000000000000000000000165afa918215610b53575f92610b1f575b50814710610ac157565b60646040517f08c379a000000000000000000000000000000000000000000000000000000000815260206004820152601860248201527f496e73756666696369656e74204554482062616c616e636500000000000000006044820152fd5b9091506020813d602011610b4b575b81610b3b60209383610998565b810103126106ff5751905f610ab7565b3d9150610b2e565b6040513d5f823e3d90fd5b91929015610bd95750815115610b72575090565b3b15610b7b5790565b60646040517f08c379a000000000000000000000000000000000000000000000000000000000815260206004820152601d60248201527f416464726573733a2063616c6c20746f206e6f6e2d636f6e74726163740000006044820152fd5b825190915015610bec5750805190602001fd5b604051907f08c379a00000000000000000000000000000000000000000000000000000000082528160208060048301528251928360248401525f5b848110610c67575050507fffffffffffffffffffffffffffffffffffffffffffffffffffffffffffffffe0601f835f604480968601015201168101030190fd5b818101830151868201604401528593508201610c2756fea264697066735822122037622bf925748cc3dea2e043c527fc323c46fd79335b30ff2ab039aca84e15ff64736f6c63430008170033",
  "devdoc": {
    "kind": "dev",
    "methods": {
      "constructor": {
        "params": {
          "_l1GatewayRouter": "Standard bridge contract.",
          "_l1ScrollMessenger": "Scroll Messenger contract.",
          "_l2GasLimit": "Gas limit for relaying messages to L2.",
          "_l2GasPriceOracle": "Gas price oracle contract."
        }
      },
      "relayMessage(address,bytes)": {
        "details": "This message is marked payable because relaying the message will require a fee that needs to be propagated to the Scroll Bridge. It will not send msg.value to the target contract on L2.",
        "params": {
          "message": "Message to send to `target`.",
          "target": "L2 address to send message to."
        }
      },
      "relayTokens(address,address,uint256,address)": {
        "details": "This method is marked payable because relaying the message might require a fee to be paid by the sender to forward the message to L2. However, it will not send msg.value to the target contract on L2.",
        "params": {
          "amount": "Amount of `l1Token` to bridge.",
          "l1Token": "L1 token to bridge.",
          "l2Token": "L2 token to receive.",
          "to": "Bridge recipient."
        }
      }
    },
    "stateVariables": {
      "l1GatewayRouter": {
        "details": "We can find these (main/test)net deployments here: https://docs.scroll.io/en/developers/scroll-contracts/#scroll-contracts"
      },
      "l1ScrollMessenger": {
        "details": "We can find these (main/test)net deployments here: https://docs.scroll.io/en/developers/scroll-contracts/#scroll-contracts"
      },
      "l2GasPriceOracle": {
        "details": "We can find these (main/test)net deployments here: https://docs.scroll.io/en/developers/scroll-contracts/#scroll-contracts"
      }
    },
    "title": "Scroll_Adapter",
    "version": 1
  },
  "userdoc": {
    "kind": "user",
    "methods": {
      "constructor": {
        "notice": "Constructs new Adapter."
      },
      "l1GatewayRouter()": {
        "notice": "The address of the official l1GatewayRouter contract for Scroll for bridging tokens from L1 -> L2"
      },
      "l1ScrollMessenger()": {
        "notice": "The address of the official messenger contract for Scroll from L1 -> L2"
      },
      "l2GasLimit()": {
        "notice": "Used as the gas limit for relaying messages to L2."
      },
      "l2GasPriceOracle()": {
        "notice": "The address of the official gas price oracle contract for Scroll for estimating the relayer fee"
      },
      "relayMessage(address,bytes)": {
        "notice": "Send message to `target` on Scroll."
      },
      "relayTokens(address,address,uint256,address)": {
        "notice": "Send `amount` of `l1Token` to `to` on Scroll. `l2Token` is the Scroll address equivalent of `l1Token`."
      }
    },
    "notice": "Adapter contract deployed on L1 alongside the HubPool to facilitate token transfers and arbitrary message relaying from L1 to L2.",
    "version": 1
  },
  "storageLayout": {
    "storage": [],
    "types": null
  }
}