{
  "address": "0xb3AED6A86B43De70dfe814C5ac549e722CF635D2",
  "abi": [
    {
      "inputs": [
        {
          "internalType": "contract IERC20",
          "name": "_l1Usdc",
          "type": "address"
        },
        {
          "internalType": "contract ITokenMessenger",
          "name": "_cctpTokenMessenger",
          "type": "address"
        },
        {
          "internalType": "contract IMessageTransmitter",
          "name": "_cctpMessageTransmitter",
          "type": "address"
        },
        {
          "internalType": "bytes32",
          "name": "solanaSpokePool",
          "type": "bytes32"
        },
        {
          "internalType": "bytes32",
          "name": "solanaUsdc",
          "type": "bytes32"
        },
        {
          "internalType": "bytes32",
          "name": "solanaSpokePoolUsdcVault",
          "type": "bytes32"
        }
      ],
      "stateMutability": "nonpayable",
      "type": "constructor"
    },
    {
      "inputs": [
        {
          "internalType": "uint256",
          "name": "amount",
          "type": "uint256"
        }
      ],
      "name": "InvalidAmount",
      "type": "error"
    },
    {
      "inputs": [
        {
          "internalType": "address",
          "name": "messageTransmitter",
          "type": "address"
        }
      ],
      "name": "InvalidCctpMessageTransmitter",
      "type": "error"
    },
    {
      "inputs": [
        {
          "internalType": "address",
          "name": "tokenMessenger",
          "type": "address"
        }
      ],
      "name": "InvalidCctpTokenMessenger",
      "type": "error"
    },
    {
      "inputs": [
        {
          "internalType": "uint256",
          "name": "destinationChainId",
          "type": "uint256"
        }
      ],
      "name": "InvalidDestinationChainId",
      "type": "error"
    },
    {
      "inputs": [
        {
          "internalType": "address",
          "name": "l1Token",
          "type": "address"
        }
      ],
      "name": "InvalidL1Token",
      "type": "error"
    },
    {
      "inputs": [
        {
          "internalType": "address",
          "name": "l2Token",
          "type": "address"
        }
      ],
      "name": "InvalidL2Token",
      "type": "error"
    },
    {
      "inputs": [
        {
          "internalType": "address",
          "name": "originToken",
          "type": "address"
        }
      ],
      "name": "InvalidOriginToken",
      "type": "error"
    },
    {
      "inputs": [
        {
          "internalType": "address",
          "name": "target",
          "type": "address"
        }
      ],
      "name": "InvalidRelayMessageTarget",
      "type": "error"
    },
    {
      "inputs": [
        {
          "internalType": "address",
          "name": "to",
          "type": "address"
        }
      ],
      "name": "InvalidTokenRecipient",
      "type": "error"
    },
    {
      "anonymous": false,
      "inputs": [
        {
          "indexed": false,
          "internalType": "address",
          "name": "target",
          "type": "address"
        },
        {
          "indexed": false,
          "internalType": "bytes",
          "name": "message",
          "type": "bytes"
        }
      ],
      "name": "MessageRelayed",
      "type": "event"
    },
    {
      "anonymous": false,
      "inputs": [
        {
          "indexed": false,
          "internalType": "address",
          "name": "l1Token",
          "type": "address"
        },
        {
          "indexed": false,
          "internalType": "address",
          "name": "l2Token",
          "type": "address"
        },
        {
          "indexed": false,
          "internalType": "uint256",
          "name": "amount",
          "type": "uint256"
        },
        {
          "indexed": false,
          "internalType": "address",
          "name": "to",
          "type": "address"
        }
      ],
      "name": "TokensRelayed",
      "type": "event"
    },
    {
      "inputs": [],
      "name": "SOLANA_SPOKE_POOL_ADDRESS",
      "outputs": [
        {
          "internalType": "address",
          "name": "",
          "type": "address"
        }
      ],
      "stateMutability": "view",
      "type": "function"
    },
    {
      "inputs": [],
      "name": "SOLANA_SPOKE_POOL_BYTES32",
      "outputs": [
        {
          "internalType": "bytes32",
          "name": "",
          "type": "bytes32"
        }
      ],
      "stateMutability": "view",
      "type": "function"
    },
    {
      "inputs": [],
      "name": "SOLANA_SPOKE_POOL_USDC_VAULT",
      "outputs": [
        {
          "internalType": "bytes32",
          "name": "",
          "type": "bytes32"
        }
      ],
      "stateMutability": "view",
      "type": "function"
    },
    {
      "inputs": [],
      "name": "SOLANA_USDC_ADDRESS",
      "outputs": [
        {
          "internalType": "address",
          "name": "",
          "type": "address"
        }
      ],
      "stateMutability": "view",
      "type": "function"
    },
    {
      "inputs": [],
      "name": "SOLANA_USDC_BYTES32",
      "outputs": [
        {
          "internalType": "bytes32",
          "name": "",
          "type": "bytes32"
        }
      ],
      "stateMutability": "view",
      "type": "function"
    },
    {
      "inputs": [],
      "name": "cctpMessageTransmitter",
      "outputs": [
        {
          "internalType": "contract IMessageTransmitter",
          "name": "",
          "type": "address"
        }
      ],
      "stateMutability": "view",
      "type": "function"
    },
    {
      "inputs": [],
      "name": "cctpTokenMessenger",
      "outputs": [
        {
          "internalType": "contract ITokenMessenger",
          "name": "",
          "type": "address"
        }
      ],
      "stateMutability": "view",
      "type": "function"
    },
    {
      "inputs": [],
      "name": "recipientCircleDomainId",
      "outputs": [
        {
          "internalType": "uint32",
          "name": "",
          "type": "uint32"
        }
      ],
      "stateMutability": "view",
      "type": "function"
    },
    {
      "inputs": [
        {
          "internalType": "address",
          "name": "target",
          "type": "address"
        },
        {
          "internalType": "bytes",
          "name": "message",
          "type": "bytes"
        }
      ],
      "name": "relayMessage",
      "outputs": [],
      "stateMutability": "payable",
      "type": "function"
    },
    {
      "inputs": [
        {
          "internalType": "address",
          "name": "l1Token",
          "type": "address"
        },
        {
          "internalType": "address",
          "name": "l2Token",
          "type": "address"
        },
        {
          "internalType": "uint256",
          "name": "amount",
          "type": "uint256"
        },
        {
          "internalType": "address",
          "name": "to",
          "type": "address"
        }
      ],
      "name": "relayTokens",
      "outputs": [],
      "stateMutability": "payable",
      "type": "function"
    },
    {
      "inputs": [],
      "name": "usdcToken",
      "outputs": [
        {
          "internalType": "contract IERC20",
          "name": "",
          "type": "address"
        }
      ],
      "stateMutability": "view",
      "type": "function"
    }
  ],
  "transactionHash": "0x98fea88020aaf7928e0b1433c7838dad807cd92e6d3cf68b44c9bb1ac783c02f",
  "args": [
    "0x1c7D4B196Cb0C7B01d743Fbc6116a902379C7238",
    "0x9f3B8679c73C2Fef8b59B4f3444d4e156fb70AA5",
    "0x7865fAfC2db2093669d92c0F33AeEF291086BEFD",
    "0x0811100222dadd9109993345ddc3960fdf4516d761ef179cf3cd3bfde65c44af",
    "0x3b442cb3912157f13a933d0134282d032b5ffecd01a2dbf1b7790608df002ea7",
    "0xb03a0f9e7273815c284e6b7f045dcb6179f2add8d490673c3d1d7fe3e020a220"
  ],
  "numDeployments": 3,
  "solcInputHash": "e844978155a96ddef9985cf3d3daae45",
  "bytecode": "0x6101a0346101de57601f61153138819003918201601f19168301916001600160401b038311848410176101e25780849260c0946040528339810103126101de5780516001600160a01b03919082811681036101de576020820151918383168084036101de57604082015190858216908183036101de5760608401519560a060808601519501519560a05260c052600560805280156101c6575080156101ae575060e05261010093838552806101209416845261014090828252610160921682526101809283526040519361133a95866101f787396080518681816107f60152610d6a015260a0518681816108fc01528181610a7401528181610baa01528181610c3d01528181610d3101528181610e6c015261119f015260c05186818161064e01528181610a3201528181610af201528181610cb90152610eaf015260e0518681816103790152818161054b01526106bc01525185818160ca015281816102ff015261050c0152518481816101800152818161079801526109b301525183818161028901526111f601525182818161022c0152818161072a015261094f01525181818161084f0152610e310152f35b602490604051906375c5f81760e01b82526004820152fd5b60249060405190631449966960e21b82526004820152fd5b5f80fd5b634e487b7160e01b5f52604160045260245ffdfe6080806040526004361015610012575f80fd5b5f3560e01c90816309808916146111c35750806311eac8551461115557806352c8c75c146108725780635ba132191461081a5780636e400983146107bc5780637d292d131461074e57806381921399146106e05780638c73eb04146106725780639748cf7c14610604578063e6eb8ade146100f15763f85fea6714610095575f80fd5b346100ed575f7ffffffffffffffffffffffffffffffffffffffffffffffffffffffffffffffffc3601126100ed5760206040517f00000000000000000000000000000000000000000000000000000000000000008152f35b5f80fd5b7ffffffffffffffffffffffffffffffffffffffffffffffffffffffffffffffffc6040813601126100ed57610124611219565b60249182359167ffffffffffffffff908184116100ed57366023850112156100ed578360040135938285116100ed57858101918582019436888701116100ed5773ffffffffffffffffffffffffffffffffffffffff80921695827f00000000000000000000000000000000000000000000000000000000000000001687036105d457876004116100ed5784357fffffffff00000000000000000000000000000000000000000000000000000000167f272751c700000000000000000000000000000000000000000000000000000000036104d05790836060920301126100ed576028820135968188168098036100ed5760686048840135930135978815158099036100ed57827f00000000000000000000000000000000000000000000000000000000000000001681036104a257508483116104735760405197856020947ff069012c00000000000000000000000000000000000000000000000000000000868c01527f0000000000000000000000000000000000000000000000000000000000000000848c01521660448a015260648901526064885260a0880194888610908611176104485750838291816040527f0ba469bc000000000000000000000000000000000000000000000000000000008252600560a48a01527f000000000000000000000000000000000000000000000000000000000000000060c48a0152606060e48a0152888051806101048301525f5b81811061042d57506084827fffffffffffffffffffffffffffffffffffffffffffffffffffffffffffffffe0601f845f61012481978b99010152011681010301927f0000000000000000000000000000000000000000000000000000000000000000165af1928315610422577f9e6c52944e331ba6270e7fe4cea2a4086bae8f7a27e1cdba07f416806f5d0ac4966103ea946103ef575b5050505b604051938493845260406020850152604084019161129d565b0390a1005b8260a09161041194913d1061041a575b610409828561123c565b01019061127d565b508580806103cd565b3d91506103ff565b6040513d5f823e3d90fd5b918201808601516101249091015285948894508b9201610336565b7f4e487b71000000000000000000000000000000000000000000000000000000005f5260416004525ffd5b82604051907fc3776a2c0000000000000000000000000000000000000000000000000000000082526004820152fd5b604051907fea0211c00000000000000000000000000000000000000000000000000000000082526004820152fd5b505095905060209192506040519586917f0ba469bc000000000000000000000000000000000000000000000000000000008352600560048401527f00000000000000000000000000000000000000000000000000000000000000009083015260606044830152815f81610547606482018a8961129d565b03927f0000000000000000000000000000000000000000000000000000000000000000165af1908115610422577f9e6c52944e331ba6270e7fe4cea2a4086bae8f7a27e1cdba07f416806f5d0ac4946103ea926105a5575b506103d1565b6105c69060203d6020116105cd575b6105be818361123c565b81019061127d565b508561059f565b503d6105b4565b8887604051907fc5bab9030000000000000000000000000000000000000000000000000000000082526004820152fd5b346100ed575f7ffffffffffffffffffffffffffffffffffffffffffffffffffffffffffffffffc3601126100ed57602060405173ffffffffffffffffffffffffffffffffffffffff7f0000000000000000000000000000000000000000000000000000000000000000168152f35b346100ed575f7ffffffffffffffffffffffffffffffffffffffffffffffffffffffffffffffffc3601126100ed57602060405173ffffffffffffffffffffffffffffffffffffffff7f0000000000000000000000000000000000000000000000000000000000000000168152f35b346100ed575f7ffffffffffffffffffffffffffffffffffffffffffffffffffffffffffffffffc3601126100ed57602060405173ffffffffffffffffffffffffffffffffffffffff7f0000000000000000000000000000000000000000000000000000000000000000168152f35b346100ed575f7ffffffffffffffffffffffffffffffffffffffffffffffffffffffffffffffffc3601126100ed57602060405173ffffffffffffffffffffffffffffffffffffffff7f0000000000000000000000000000000000000000000000000000000000000000168152f35b346100ed575f7ffffffffffffffffffffffffffffffffffffffffffffffffffffffffffffffffc3601126100ed57602060405163ffffffff7f0000000000000000000000000000000000000000000000000000000000000000168152f35b346100ed575f7ffffffffffffffffffffffffffffffffffffffffffffffffffffffffffffffffc3601126100ed5760206040517f00000000000000000000000000000000000000000000000000000000000000008152f35b60807ffffffffffffffffffffffffffffffffffffffffffffffffffffffffffffffffc3601126100ed576108a4611219565b60243573ffffffffffffffffffffffffffffffffffffffff811681036100ed576064359073ffffffffffffffffffffffffffffffffffffffff821682036100ed5773ffffffffffffffffffffffffffffffffffffffff7f00000000000000000000000000000000000000000000000000000000000000001673ffffffffffffffffffffffffffffffffffffffff84160361110e5773ffffffffffffffffffffffffffffffffffffffff7f00000000000000000000000000000000000000000000000000000000000000001673ffffffffffffffffffffffffffffffffffffffff8216036110c75767ffffffffffffffff604435116110955773ffffffffffffffffffffffffffffffffffffffff7f00000000000000000000000000000000000000000000000000000000000000001673ffffffffffffffffffffffffffffffffffffffff83160361104e576040517fdd62ed3e00000000000000000000000000000000000000000000000000000000815230600482015273ffffffffffffffffffffffffffffffffffffffff7f000000000000000000000000000000000000000000000000000000000000000016602482015260208160448173ffffffffffffffffffffffffffffffffffffffff7f0000000000000000000000000000000000000000000000000000000000000000165afa908115610422575f9161101c575b506044358101809111610eec57604051907f095ea7b300000000000000000000000000000000000000000000000000000000602083015273ffffffffffffffffffffffffffffffffffffffff7f000000000000000000000000000000000000000000000000000000000000000016602483015260448201526044815280608081011067ffffffffffffffff608083011117610fe3576080810160c082011067ffffffffffffffff60c083011117610fe3575f8160c0829301604052602060808201527f5361666545524332303a206c6f772d6c6576656c2063616c6c206661696c656460a08201526020815191018273ffffffffffffffffffffffffffffffffffffffff7f0000000000000000000000000000000000000000000000000000000000000000165af13d15611010573d67ffffffffffffffff8111610fe357610c629160405191610c1c60207fffffffffffffffffffffffffffffffffffffffffffffffffffffffffffffffe0601f840116018461123c565b82523d5f602084013e5b73ffffffffffffffffffffffffffffffffffffffff7f0000000000000000000000000000000000000000000000000000000000000000166112db565b8051908115918215610fc0575b5050156100ed576040517fcb75c11c00000000000000000000000000000000000000000000000000000000815260208160048173ffffffffffffffffffffffffffffffffffffffff7f0000000000000000000000000000000000000000000000000000000000000000165afa908115610422575f91610f70575b50602073ffffffffffffffffffffffffffffffffffffffff916024604051809481937fa56ec632000000000000000000000000000000000000000000000000000000008352817f0000000000000000000000000000000000000000000000000000000000000000166004840152165afa908115610422575f91610f3e575b507f000000000000000000000000000000000000000000000000000000000000000063ffffffff16604435805b610df3577fd7e09655439c3932e55857df3220186e5a7f0980825f20691c2b35d941dee75b60808773ffffffffffffffffffffffffffffffffffffffff88818981604051951685521660208401526044356040840152166060820152a1005b82811115610f3857825b6040517f6fd3504e0000000000000000000000000000000000000000000000000000000081528160048201528360248201527f0000000000000000000000000000000000000000000000000000000000000000604482015273ffffffffffffffffffffffffffffffffffffffff7f00000000000000000000000000000000000000000000000000000000000000001660648201526020816084815f73ffffffffffffffffffffffffffffffffffffffff7f0000000000000000000000000000000000000000000000000000000000000000165af1801561042257610f19575b508103908111610eec5780610d94565b7f4e487b71000000000000000000000000000000000000000000000000000000005f52601160045260245ffd5b610f319060203d6020116105cd576105be818361123c565b5087610edc565b80610dfd565b90506020813d602011610f68575b81610f596020938361123c565b810103126100ed575184610d67565b3d9150610f4c565b90506020813d602011610fb8575b81610f8b6020938361123c565b810103126100ed575173ffffffffffffffffffffffffffffffffffffffff811681036100ed576020610ce9565b3d9150610f7e565b81925090602091810103126100ed576020015180151581036100ed578480610c6f565b7f4e487b71000000000000000000000000000000000000000000000000000000005f52604160045260245ffd5b610c6290606090610c26565b90506020813d602011611046575b816110376020938361123c565b810103126100ed575184610aa4565b3d915061102a565b60248273ffffffffffffffffffffffffffffffffffffffff604051917ff72f3b1e000000000000000000000000000000000000000000000000000000008352166004820152fd5b60246040517f3728b83d0000000000000000000000000000000000000000000000000000000081526044356004820152fd5b60249073ffffffffffffffffffffffffffffffffffffffff604051917f9d253c4f000000000000000000000000000000000000000000000000000000008352166004820152fd5b60248373ffffffffffffffffffffffffffffffffffffffff604051917feb5f4c6f000000000000000000000000000000000000000000000000000000008352166004820152fd5b346100ed575f7ffffffffffffffffffffffffffffffffffffffffffffffffffffffffffffffffc3601126100ed57602060405173ffffffffffffffffffffffffffffffffffffffff7f0000000000000000000000000000000000000000000000000000000000000000168152f35b346100ed575f7ffffffffffffffffffffffffffffffffffffffffffffffffffffffffffffffffc3601126100ed576020907f00000000000000000000000000000000000000000000000000000000000000008152f35b6004359073ffffffffffffffffffffffffffffffffffffffff821682036100ed57565b90601f7fffffffffffffffffffffffffffffffffffffffffffffffffffffffffffffffe0910116810190811067ffffffffffffffff821117610fe357604052565b908160209103126100ed575167ffffffffffffffff811681036100ed5790565b601f82602094937fffffffffffffffffffffffffffffffffffffffffffffffffffffffffffffffe093818652868601375f8582860101520116010190565b90156112f5578151156112ec575090565b3b156100ed5790565b5080519081156100ed57602001fdfea2646970667358221220e95efea26fdbd689f59265c3a6f522eaaf0e0c53faaafe490e21286b1569191164736f6c63430008170033",
  "devdoc": {
    "custom:security-contact": "bugs@across.to",
    "details": "Public functions calling external contracts do not guard against reentrancy because they are expected to be called via delegatecall, which will execute this contract's logic within the context of the originating contract. For example, the HubPool will delegatecall these functions, therefore it's only necessary that the HubPool's methods that call this contract's logic guard against reentrancy.",
    "kind": "dev",
    "methods": {
      "constructor": {
        "params": {
          "_cctpMessageTransmitter": "MessageTransmitter contract to bridge messages via CCTP.",
          "_cctpTokenMessenger": "TokenMessenger contract to bridge tokens via CCTP.",
          "_l1Usdc": "USDC address on L1.",
          "solanaSpokePool": "Solana spoke pool address, decoded from Base58 to bytes32.",
          "solanaSpokePoolUsdcVault": "USDC token address on Solana for the spoke pool, decoded from Base58 to bytes32.",
          "solanaUsdc": "USDC mint address on Solana, decoded from Base58 to bytes32."
        }
      },
      "relayMessage(address,bytes)": {
        "details": "Only allows sending messages to the Solana spoke pool.",
        "params": {
          "message": "Data to send to target.",
          "target": "Program on Solana (translated as EVM address) that will receive message."
        }
      },
      "relayTokens(address,address,uint256,address)": {
        "details": "Only allows bridging USDC to Solana spoke pool.",
        "params": {
          "amount": "Amount of L1 tokens to deposit and L2 tokens to receive.",
          "l1Token": "L1 token to deposit.",
          "l2Token": "L2 token to receive.",
          "to": "Bridge recipient."
        }
      }
    },
    "stateVariables": {
      "cctpMessageTransmitter": {
        "details": "Posted officially here: https://developers.circle.com/stablecoins/docs/evm-smart-contracts"
      }
    },
    "version": 1
  },
  "userdoc": {
    "kind": "user",
    "methods": {
      "cctpMessageTransmitter()": {
        "notice": "The official Circle CCTP MessageTransmitter contract endpoint."
      },
      "constructor": {
        "notice": "Constructs new Adapter."
      },
      "relayMessage(address,bytes)": {
        "notice": "Send cross-chain message to target on Solana."
      },
      "relayTokens(address,address,uint256,address)": {
        "notice": "Bridge tokens to Solana."
      }
    },
    "notice": "Contract containing logic to send messages from L1 to Solana via CCTP.",
    "version": 1
  },
  "storageLayout": {
    "storage": [],
    "types": null
  }
}