{
  "address": "0x8fac6F764ae0b4F632FE2E6c938ED5637E629ff2",
  "abi": [
    {
      "inputs": [
        {
          "internalType": "uint256",
          "name": "_chainId",
          "type": "uint256"
        },
        {
          "internalType": "contract BridgeHubInterface",
          "name": "_bridgeHub",
          "type": "address"
        },
        {
          "internalType": "contract WETH9Interface",
          "name": "_l1Weth",
          "type": "address"
        },
        {
          "internalType": "address",
          "name": "_l2RefundAddress",
          "type": "address"
        },
        {
          "internalType": "contract FunderInterface",
          "name": "_customGasTokenFunder",
          "type": "address"
        },
        {
          "internalType": "uint256",
          "name": "_l2GasLimit",
          "type": "uint256"
        },
        {
          "internalType": "uint256",
          "name": "_l1GasToL2GasPerPubDataLimit",
          "type": "uint256"
        },
        {
          "internalType": "uint256",
          "name": "_maxTxGasprice",
          "type": "uint256"
        }
      ],
      "stateMutability": "nonpayable",
      "type": "constructor"
    },
    {
      "inputs": [],
      "name": "ETHGasTokenNotAllowed",
      "type": "error"
    },
    {
      "inputs": [],
      "name": "TransactionFeeTooHigh",
      "type": "error"
    },
    {
      "anonymous": false,
      "inputs": [
        {
          "indexed": false,
          "internalType": "address",
          "name": "target",
          "type": "address"
        },
        {
          "indexed": false,
          "internalType": "bytes",
          "name": "message",
          "type": "bytes"
        }
      ],
      "name": "MessageRelayed",
      "type": "event"
    },
    {
      "anonymous": false,
      "inputs": [
        {
          "indexed": false,
          "internalType": "address",
          "name": "l1Token",
          "type": "address"
        },
        {
          "indexed": false,
          "internalType": "address",
          "name": "l2Token",
          "type": "address"
        },
        {
          "indexed": false,
          "internalType": "uint256",
          "name": "amount",
          "type": "uint256"
        },
        {
          "indexed": false,
          "internalType": "address",
          "name": "to",
          "type": "address"
        }
      ],
      "name": "TokensRelayed",
      "type": "event"
    },
    {
      "anonymous": false,
      "inputs": [
        {
          "indexed": true,
          "internalType": "bytes32",
          "name": "canonicalTxHash",
          "type": "bytes32"
        }
      ],
      "name": "ZkStackMessageRelayed",
      "type": "event"
    },
    {
      "inputs": [],
      "name": "BRIDGE_HUB",
      "outputs": [
        {
          "internalType": "contract BridgeHubInterface",
          "name": "",
          "type": "address"
        }
      ],
      "stateMutability": "view",
      "type": "function"
    },
    {
      "inputs": [],
      "name": "CHAIN_ID",
      "outputs": [
        {
          "internalType": "uint256",
          "name": "",
          "type": "uint256"
        }
      ],
      "stateMutability": "view",
      "type": "function"
    },
    {
      "inputs": [],
      "name": "CUSTOM_GAS_TOKEN",
      "outputs": [
        {
          "internalType": "address",
          "name": "",
          "type": "address"
        }
      ],
      "stateMutability": "view",
      "type": "function"
    },
    {
      "inputs": [],
      "name": "CUSTOM_GAS_TOKEN_FUNDER",
      "outputs": [
        {
          "internalType": "contract FunderInterface",
          "name": "",
          "type": "address"
        }
      ],
      "stateMutability": "view",
      "type": "function"
    },
    {
      "inputs": [],
      "name": "L1_GAS_TO_L2_GAS_PER_PUB_DATA_LIMIT",
      "outputs": [
        {
          "internalType": "uint256",
          "name": "",
          "type": "uint256"
        }
      ],
      "stateMutability": "view",
      "type": "function"
    },
    {
      "inputs": [],
      "name": "L1_WETH",
      "outputs": [
        {
          "internalType": "contract WETH9Interface",
          "name": "",
          "type": "address"
        }
      ],
      "stateMutability": "view",
      "type": "function"
    },
    {
      "inputs": [],
      "name": "L2_GAS_LIMIT",
      "outputs": [
        {
          "internalType": "uint256",
          "name": "",
          "type": "uint256"
        }
      ],
      "stateMutability": "view",
      "type": "function"
    },
    {
      "inputs": [],
      "name": "L2_REFUND_ADDRESS",
      "outputs": [
        {
          "internalType": "address",
          "name": "",
          "type": "address"
        }
      ],
      "stateMutability": "view",
      "type": "function"
    },
    {
      "inputs": [],
      "name": "SHARED_BRIDGE",
      "outputs": [
        {
          "internalType": "address",
          "name": "",
          "type": "address"
        }
      ],
      "stateMutability": "view",
      "type": "function"
    },
    {
      "inputs": [
        {
          "internalType": "address",
          "name": "target",
          "type": "address"
        },
        {
          "internalType": "bytes",
          "name": "message",
          "type": "bytes"
        }
      ],
      "name": "relayMessage",
      "outputs": [],
      "stateMutability": "payable",
      "type": "function"
    },
    {
      "inputs": [
        {
          "internalType": "address",
          "name": "l1Token",
          "type": "address"
        },
        {
          "internalType": "address",
          "name": "l2Token",
          "type": "address"
        },
        {
          "internalType": "uint256",
          "name": "amount",
          "type": "uint256"
        },
        {
          "internalType": "address",
          "name": "to",
          "type": "address"
        }
      ],
      "name": "relayTokens",
      "outputs": [],
      "stateMutability": "payable",
      "type": "function"
    }
  ],
  "transactionHash": "0xdf6aec7fba105f9185edab42c7456466c83a60251193e2ee51e8ae3fe9e3841a",
  "args": [
    "37111",
    "0x236D1c3Ff32Bd0Ca26b72Af287E895627c0478cE",
    "0xfFf9976782d46CC05630D1f6eBAb18b2324d6B14",
    "0x07aE8551Be970cB1cCa11Dd7a11F47Ae82e70E67",
    "0x74f00724075443Cbbf55129F17CbAB0F77bA0722",
    2000000,
    800,
    "10000000000000"
  ],
  "numDeployments": 1,
  "solcInputHash": "7181ccde94919d66e297cab663ce9775",
  "bytecode": "0x6101c0604081815234620002a4578162001991803803809162000023828562000303565b833961010093849181010312620002a45780516020808301516001600160a01b038082169593949390868303620002a45781850151968188168803620002a45762000071606087016200033b565b906080870151968388168803620002a457600495879360a08301519160e060c08501519401519b60e0528d526101209b8c5260c0526101809889526080526101a098895260a05283519485809263070e40ef60e31b82525afa928315620002f9575f93620002ba575b50610140928352808851168460e0516024855180948193632cf632d160e11b835260048301525afa948515620002b0575f956200026a575b505061016084815293166001146200025a575194611640968762000351883960805187818161012b015281816104d801526106b4015260a0518781816102150152818161047f0152818161081101528181610a8b01528181610c7d015261127c015260c0518781816102410152818161083801528181610ab701528181610ca40152610e69015260e0518781816101d601528181610426015281816107e201528181610a4101528181610c4e015261124b01525186818161029e01528181610546015281816108a601528181610b1401528181610d1201526112a90152518581816106e40152610dfd0152518481816101710152818161062401528181610762015281816109f90152610bea015251838181610193015281816105b501528181610789015281816109b101526113380152518281816103c801526112dd015251816111e80152f35b5163958e6ea160e01b8152600490fd5b9080929550813d8311620002a8575b62000285818362000303565b81010312620002a4576200029b6001916200033b565b93905f62000112565b5f80fd5b503d62000279565b83513d5f823e3d90fd5b9092508381813d8311620002f1575b620002d5818362000303565b81010312620002a457620002e9906200033b565b915f620000da565b503d620002c9565b82513d5f823e3d90fd5b601f909101601f19168101906001600160401b038211908210176200032757604052565b634e487b7160e01b5f52604160045260245ffd5b51906001600160a01b0382168203620002a45756fe60806040818152600480361015610014575f80fd5b5f925f3560e01c90816303c0501914610e21575080631efd482a14610db357806352c8c75c14610648578063546b6d2a146105d957806358f76b651461056a5780635d4edca7146104fb5780635e743ef7146104a25780636c9075b71461044957806385e1f4d0146103f0578063e58921a21461037d5763e6eb8ade14610099575f80fd5b817ffffffffffffffffffffffffffffffffffffffffffffffffffffffffffffffffc360112610379576100ca610e8d565b906024359167ffffffffffffffff8311610375573660238401121561037557828201356100f681610f87565b9061010386519283610f46565b8082526020938736602484890101116103725785838194602461029a9a0183880137850101527f000000000000000000000000000000000000000000000000000000000000000093610154856111e6565b9173ffffffffffffffffffffffffffffffffffffffff916101b8847f0000000000000000000000000000000000000000000000000000000000000000857f0000000000000000000000000000000000000000000000000000000000000000166113e5565b828a51916101c583610f2a565b5f83528b51956101d487610eb0565b7f00000000000000000000000000000000000000000000000000000000000000008752878701521696878b8601528b606086015286608086015260a08501527f000000000000000000000000000000000000000000000000000000000000000060c085015260e0840152817f0000000000000000000000000000000000000000000000000000000000000000166101008401528989518099819582947fd52471c100000000000000000000000000000000000000000000000000000000845283016110e0565b03927f0000000000000000000000000000000000000000000000000000000000000000165af1938415610368578694610333575b506103099085807f9e6c52944e331ba6270e7fe4cea2a4086bae8f7a27e1cdba07f416806f5d0ac49697519586958652850152830190610fc1565b0390a17fb50bccea676fbc831e47d257acd0dbaa101ff4d469933d6d9e6ad85c2d4b63b98280a280f35b9093508281813d8311610361575b61034b8183610f46565b8101031261035d5751926103096102ce565b5f80fd5b503d610341565b85513d88823e3d90fd5b80fd5b8480fd5b8280fd5b5050346103ec57817ffffffffffffffffffffffffffffffffffffffffffffffffffffffffffffffffc3601126103ec576020905173ffffffffffffffffffffffffffffffffffffffff7f0000000000000000000000000000000000000000000000000000000000000000168152f35b5080fd5b5050346103ec57817ffffffffffffffffffffffffffffffffffffffffffffffffffffffffffffffffc3601126103ec57602090517f00000000000000000000000000000000000000000000000000000000000000008152f35b5050346103ec57817ffffffffffffffffffffffffffffffffffffffffffffffffffffffffffffffffc3601126103ec57602090517f00000000000000000000000000000000000000000000000000000000000000008152f35b5050346103ec57817ffffffffffffffffffffffffffffffffffffffffffffffffffffffffffffffffc3601126103ec57602090517f00000000000000000000000000000000000000000000000000000000000000008152f35b5050346103ec57817ffffffffffffffffffffffffffffffffffffffffffffffffffffffffffffffffc3601126103ec576020905173ffffffffffffffffffffffffffffffffffffffff7f0000000000000000000000000000000000000000000000000000000000000000168152f35b5050346103ec57817ffffffffffffffffffffffffffffffffffffffffffffffffffffffffffffffffc3601126103ec576020905173ffffffffffffffffffffffffffffffffffffffff7f0000000000000000000000000000000000000000000000000000000000000000168152f35b5050346103ec57817ffffffffffffffffffffffffffffffffffffffffffffffffffffffffffffffffc3601126103ec576020905173ffffffffffffffffffffffffffffffffffffffff7f0000000000000000000000000000000000000000000000000000000000000000168152f35b509060807ffffffffffffffffffffffffffffffffffffffffffffffffffffffffffffffffc36011261035d5761067c610e8d565b6024359273ffffffffffffffffffffffffffffffffffffffff9081851680950361035d57604435906064359280841680940361035d577f0000000000000000000000000000000000000000000000000000000000000000916106dd836111e6565b95821695927f00000000000000000000000000000000000000000000000000000000000000008316858882036109a75750803b1561035d575f809160248b51809481937f2e1a7d4d0000000000000000000000000000000000000000000000000000000083528b898401525af1801561099d5761097d575b50928288928b956108a2957f00000000000000000000000000000000000000000000000000000000000000006107ae8682847f0000000000000000000000000000000000000000000000000000000000000000166113e5565b8651926020998a9860018a8701525f818701528d6060870152606086526107d486610f0e565b8051986107e08a610eb0565b7f00000000000000000000000000000000000000000000000000000000000000008a528a8a015288015260608701527f00000000000000000000000000000000000000000000000000000000000000006080870152817f00000000000000000000000000000000000000000000000000000000000000001660a08701521660c08501528760e0850152610100840152868a518096819582947f24fd57fb000000000000000000000000000000000000000000000000000000008452830161101d565b03927f0000000000000000000000000000000000000000000000000000000000000000165af191821561097357889261093c575b5050907fd7e09655439c3932e55857df3220186e5a7f0980825f20691c2b35d941dee75b946080949392965b815194855260208501528301526060820152a17fb50bccea676fbc831e47d257acd0dbaa101ff4d469933d6d9e6ad85c2d4b63b98280a280f35b90809594939250813d831161096c575b6109568183610f46565b8101031261035d579251919290918460806108d6565b503d61094c565b86513d8a823e3d90fd5b919950926108a292889261099090610efa565b5f9a925092939093610755565b89513d5f823e3d90fd5b91939490508888867f0000000000000000000000000000000000000000000000000000000000000000168082145f14610bd75750505091610a238284610a1e6109f7610b109996602099986110a6565b7f00000000000000000000000000000000000000000000000000000000000000008d6113e5565b6110a6565b92895190610a3082610f2a565b5f82528a5194610a3f86610eb0565b7f0000000000000000000000000000000000000000000000000000000000000000865286860152888b8601528760608601528a51610a7c81610f2a565b5f8152608086015260a08501527f000000000000000000000000000000000000000000000000000000000000000060c085015260e0840152817f0000000000000000000000000000000000000000000000000000000000000000166101008401525f89518096819582947fd52471c100000000000000000000000000000000000000000000000000000000845283016110e0565b03927f0000000000000000000000000000000000000000000000000000000000000000165af1908115610bcd575f91610b73575b50907fd7e09655439c3932e55857df3220186e5a7f0980825f20691c2b35d941dee75b94608094939296610902565b93929190506020843d602011610bc5575b81610b9160209383610f46565b8101031261035d579251919290917fd7e09655439c3932e55857df3220186e5a7f0980825f20691c2b35d941dee75b610b44565b3d9150610b84565b85513d5f823e3d90fd5b83945096610d0e9691959297610c1082957f000000000000000000000000000000000000000000000000000000000000000080936113e5565b610c1b8a82896113e5565b8851925f60209a8b998a8701528c818701528d606087015260608652610c4086610f0e565b805198610c4c8a610eb0565b7f00000000000000000000000000000000000000000000000000000000000000008a528a8a015288015260608701527f00000000000000000000000000000000000000000000000000000000000000006080870152817f00000000000000000000000000000000000000000000000000000000000000001660a08701521660c08501525f60e08501526101008401525f8a518096819582947f24fd57fb000000000000000000000000000000000000000000000000000000008452830161101d565b03927f0000000000000000000000000000000000000000000000000000000000000000165af1918215610da9575f92610d72575b5050907fd7e09655439c3932e55857df3220186e5a7f0980825f20691c2b35d941dee75b94608094939296610902565b90809594939250813d8311610da2575b610d8c8183610f46565b8101031261035d57925191929091846080610d42565b503d610d82565b86513d5f823e3d90fd5b823461035d575f7ffffffffffffffffffffffffffffffffffffffffffffffffffffffffffffffffc36011261035d576020905173ffffffffffffffffffffffffffffffffffffffff7f0000000000000000000000000000000000000000000000000000000000000000168152f35b3461035d575f7ffffffffffffffffffffffffffffffffffffffffffffffffffffffffffffffffc36011261035d5760209073ffffffffffffffffffffffffffffffffffffffff7f0000000000000000000000000000000000000000000000000000000000000000168152f35b6004359073ffffffffffffffffffffffffffffffffffffffff8216820361035d57565b610120810190811067ffffffffffffffff821117610ecd57604052565b7f4e487b71000000000000000000000000000000000000000000000000000000005f52604160045260245ffd5b67ffffffffffffffff8111610ecd57604052565b6080810190811067ffffffffffffffff821117610ecd57604052565b6020810190811067ffffffffffffffff821117610ecd57604052565b90601f7fffffffffffffffffffffffffffffffffffffffffffffffffffffffffffffffe0910116810190811067ffffffffffffffff821117610ecd57604052565b67ffffffffffffffff8111610ecd57601f017fffffffffffffffffffffffffffffffffffffffffffffffffffffffffffffffe01660200190565b91908251928382525f5b8481106110095750507fffffffffffffffffffffffffffffffffffffffffffffffffffffffffffffffe0601f845f6020809697860101520116010190565b602081830181015184830182015201610fcb565b6101406110a3926020835280516020840152602081015160408401526040810151606084015260608101516080840152608081015160a084015260a081015173ffffffffffffffffffffffffffffffffffffffff80911660c085015260c08201511660e084015260e0810151906101009182850152015191610120808201520190610fc1565b90565b919082018092116110b357565b7f4e487b71000000000000000000000000000000000000000000000000000000005f52601160045260245ffd5b6020808252825181830152808301516040830152604083015173ffffffffffffffffffffffffffffffffffffffff80911660608401526060840151608084015260808401519161113e610120938460a0870152610140860190610fc1565b9460a081015160c086015260c081015160e086015260e0810151957fffffffffffffffffffffffffffffffffffffffffffffffffffffffffffffffe0906101009382888303018589015288519182815281810182808560051b8401019b01945f925b8584106111b7575050505050505001511691015290565b9091929394959b85806111d58f936001948787830301895251610fc1565b9e01940194019295949391906111a0565b7f00000000000000000000000000000000000000000000000000000000000000003a116113bb5773ffffffffffffffffffffffffffffffffffffffff604051917f716232740000000000000000000000000000000000000000000000000000000083527f000000000000000000000000000000000000000000000000000000000000000060048401523a602484015260448301527f00000000000000000000000000000000000000000000000000000000000000006064830152602082608481847f0000000000000000000000000000000000000000000000000000000000000000165afa91821561137c575f92611387575b50807f00000000000000000000000000000000000000000000000000000000000000001690813b1561035d575f916044839260405194859384927ff3fef3a30000000000000000000000000000000000000000000000000000000084527f00000000000000000000000000000000000000000000000000000000000000001660048401528760248401525af1801561137c57611373575090565b6110a390610efa565b6040513d5f823e3d90fd5b9091506020813d6020116113b3575b816113a360209383610f46565b8101031261035d5751905f6112d9565b3d9150611396565b60046040517fb33009b4000000000000000000000000000000000000000000000000000000008152fd5b91909160405191602083015f807f095ea7b3000000000000000000000000000000000000000000000000000000009687845273ffffffffffffffffffffffffffffffffffffffff8091169485602489015260448801526044875261144887610f0e565b85169286519082855af19061145b6114ef565b826114bd575b50816114b2575b5015611475575b50505050565b6114a9936114a49160405191602083015260248201525f60448201526044815261149e81610f0e565b82611536565b611536565b5f80808061146f565b90503b15155f611468565b805191925081159182156114d5575b5050905f611461565b6114e8925060208091830101910161151e565b5f806114cc565b3d15611519573d9061150082610f87565b9161150e6040519384610f46565b82523d5f602084013e565b606090565b9081602091031261035d5751801515810361035d5790565b73ffffffffffffffffffffffffffffffffffffffff166040516040810181811067ffffffffffffffff821117610ecd576115b1937f5361666545524332303a206c6f772d6c6576656c2063616c6c206661696c656460205f948594604052818152015260208151910182855af16115ab6114ef565b916115e1565b80519081159182156115c7575b50501561035d57565b6115da925060208091830101910161151e565b5f806115be565b90156115fb578151156115f2575090565b3b1561035d5790565b50805190811561035d57602001fdfea264697066735822122083b06967ec48b38cb0c247396a70f7c7726c52a2dbb91f96a1a0aedd3817770e64736f6c63430008170033",
  "devdoc": {
    "custom:security-contact": "bugs@across.to",
    "details": "Public functions calling external contracts do not guard against reentrancy because they are expected to be called via delegatecall, which will execute this contract's logic within the context of the originating contract. For example, the HubPool will delegatecall these functions, therefore its only necessary that the HubPool's methods that call this contract's logic guard against reentrancy.",
    "kind": "dev",
    "methods": {
      "constructor": {
        "params": {
          "_bridgeHub": "The bridge hub contract address for the ZkStack network.",
          "_chainId": "The target ZkStack network's chain ID.",
          "_customGasTokenFunder": "Contract on L1 which funds bridge fees with amounts in the custom gas token.",
          "_l1GasToL2GasPerPubDataLimit": "The exchange rate of l1 gas to l2 gas.",
          "_l1Weth": "WETH address on L1.",
          "_l2GasLimit": "The maximum amount of gas this contract is willing to pay to execute a transaction on L2.",
          "_l2RefundAddress": "address that recieves excess gas refunds on L2.",
          "_maxTxGasprice": "The maximum effective gas price any transaction sent to this adapter may have."
        }
      },
      "relayMessage(address,bytes)": {
        "details": "The CUSTOM_GAS_TOKEN_FUNDER must hold enough of the gas token to pay for the L2 txn.",
        "params": {
          "message": "Data to send to target.",
          "target": "Contract on L2 that will receive message."
        }
      },
      "relayTokens(address,address,uint256,address)": {
        "details": "The CUSTOM_GAS_TOKEN_FUNDER must hold enough of the gas token to pay for the L2 txn.",
        "params": {
          "amount": "Amount of L1 tokens to deposit and L2 tokens to receive.",
          "l1Token": "L1 token to deposit.",
          "l2Token": "L2 token to receive.",
          "to": "Bridge recipient."
        }
      }
    },
    "version": 1
  },
  "userdoc": {
    "kind": "user",
    "methods": {
      "constructor": {
        "notice": "Constructs new Adapter."
      },
      "relayMessage(address,bytes)": {
        "notice": "Send cross-chain message to target on ZkStack."
      },
      "relayTokens(address,address,uint256,address)": {
        "notice": "Bridge tokens to ZkStack."
      }
    },
    "notice": "Contract containing logic to send messages from L1 to ZkStack with a custom gas token.",
    "version": 1
  },
  "storageLayout": {
    "storage": [],
    "types": null
  }
}