{
  "address": "0xf7820cF9629bbC161bA7A482D7cF613Ef865D48c",
  "abi": [
    {
      "inputs": [
        {
          "internalType": "address",
          "name": "_wrappedNativeTokenAddress",
          "type": "address"
        },
        {
          "internalType": "uint32",
          "name": "_depositQuoteTimeBuffer",
          "type": "uint32"
        },
        {
          "internalType": "uint32",
          "name": "_fillDeadlineBuffer",
          "type": "uint32"
        }
      ],
      "stateMutability": "nonpayable",
      "type": "constructor"
    },
    {
      "inputs": [],
      "name": "ClaimedMerkleLeaf",
      "type": "error"
    },
    {
      "inputs": [],
      "name": "DisabledRoute",
      "type": "error"
    },
    {
      "inputs": [],
      "name": "ExpiredFillDeadline",
      "type": "error"
    },
    {
      "inputs": [],
      "name": "InvalidChainId",
      "type": "error"
    },
    {
      "inputs": [],
      "name": "InvalidFillDeadline",
      "type": "error"
    },
    {
      "inputs": [],
      "name": "InvalidMerkleLeaf",
      "type": "error"
    },
    {
      "inputs": [],
      "name": "InvalidMerkleProof",
      "type": "error"
    },
    {
      "inputs": [],
      "name": "InvalidPayoutAdjustmentPct",
      "type": "error"
    },
    {
      "inputs": [],
      "name": "InvalidQuoteTimestamp",
      "type": "error"
    },
    {
      "inputs": [],
      "name": "InvalidSlowFillRequest",
      "type": "error"
    },
    {
      "inputs": [],
      "name": "MsgValueDoesNotMatchInputAmount",
      "type": "error"
    },
    {
      "inputs": [],
      "name": "NotEOA",
      "type": "error"
    },
    {
      "inputs": [],
      "name": "NotExclusiveRelayer",
      "type": "error"
    },
    {
      "inputs": [],
      "name": "RelayFilled",
      "type": "error"
    },
    {
      "anonymous": false,
      "inputs": [
        {
          "indexed": false,
          "internalType": "address",
          "name": "previousAdmin",
          "type": "address"
        },
        {
          "indexed": false,
          "internalType": "address",
          "name": "newAdmin",
          "type": "address"
        }
      ],
      "name": "AdminChanged",
      "type": "event"
    },
    {
      "anonymous": false,
      "inputs": [
        {
          "indexed": true,
          "internalType": "address",
          "name": "beacon",
          "type": "address"
        }
      ],
      "name": "BeaconUpgraded",
      "type": "event"
    },
    {
      "anonymous": false,
      "inputs": [
        {
          "indexed": true,
          "internalType": "uint256",
          "name": "rootBundleId",
          "type": "uint256"
        }
      ],
      "name": "EmergencyDeleteRootBundle",
      "type": "event"
    },
    {
      "anonymous": false,
      "inputs": [
        {
          "indexed": true,
          "internalType": "address",
          "name": "originToken",
          "type": "address"
        },
        {
          "indexed": true,
          "internalType": "uint256",
          "name": "destinationChainId",
          "type": "uint256"
        },
        {
          "indexed": false,
          "internalType": "bool",
          "name": "enabled",
          "type": "bool"
        }
      ],
      "name": "EnabledDepositRoute",
      "type": "event"
    },
    {
      "anonymous": false,
      "inputs": [
        {
          "indexed": false,
          "internalType": "uint256",
          "name": "amountToReturn",
          "type": "uint256"
        },
        {
          "indexed": true,
          "internalType": "uint256",
          "name": "chainId",
          "type": "uint256"
        },
        {
          "indexed": false,
          "internalType": "uint256[]",
          "name": "refundAmounts",
          "type": "uint256[]"
        },
        {
          "indexed": true,
          "internalType": "uint32",
          "name": "rootBundleId",
          "type": "uint32"
        },
        {
          "indexed": true,
          "internalType": "uint32",
          "name": "leafId",
          "type": "uint32"
        },
        {
          "indexed": false,
          "internalType": "address",
          "name": "l2TokenAddress",
          "type": "address"
        },
        {
          "indexed": false,
          "internalType": "address[]",
          "name": "refundAddresses",
          "type": "address[]"
        }
      ],
      "name": "ExecutedRelayerRefundRoot",
      "type": "event"
    },
    {
      "anonymous": false,
      "inputs": [
        {
          "indexed": false,
          "internalType": "uint256",
          "name": "amountToReturn",
          "type": "uint256"
        },
        {
          "indexed": true,
          "internalType": "uint256",
          "name": "chainId",
          "type": "uint256"
        },
        {
          "indexed": false,
          "internalType": "uint256[]",
          "name": "refundAmounts",
          "type": "uint256[]"
        },
        {
          "indexed": true,
          "internalType": "uint32",
          "name": "rootBundleId",
          "type": "uint32"
        },
        {
          "indexed": true,
          "internalType": "uint32",
          "name": "leafId",
          "type": "uint32"
        },
        {
          "indexed": false,
          "internalType": "address",
          "name": "l2TokenAddress",
          "type": "address"
        },
        {
          "indexed": false,
          "internalType": "address[]",
          "name": "refundAddresses",
          "type": "address[]"
        },
        {
          "indexed": false,
          "internalType": "bytes32",
          "name": "fillsRefundedRoot",
          "type": "bytes32"
        },
        {
          "indexed": false,
          "internalType": "string",
          "name": "fillsRefundedIpfsHash",
          "type": "string"
        }
      ],
      "name": "ExecutedUSSRelayerRefundRoot",
      "type": "event"
    },
    {
      "anonymous": false,
      "inputs": [
        {
          "indexed": false,
          "internalType": "uint256",
          "name": "amount",
          "type": "uint256"
        },
        {
          "indexed": false,
          "internalType": "uint256",
          "name": "totalFilledAmount",
          "type": "uint256"
        },
        {
          "indexed": false,
          "internalType": "uint256",
          "name": "fillAmount",
          "type": "uint256"
        },
        {
          "indexed": false,
          "internalType": "uint256",
          "name": "repaymentChainId",
          "type": "uint256"
        },
        {
          "indexed": true,
          "internalType": "uint256",
          "name": "originChainId",
          "type": "uint256"
        },
        {
          "indexed": false,
          "internalType": "uint256",
          "name": "destinationChainId",
          "type": "uint256"
        },
        {
          "indexed": false,
          "internalType": "int64",
          "name": "relayerFeePct",
          "type": "int64"
        },
        {
          "indexed": false,
          "internalType": "int64",
          "name": "realizedLpFeePct",
          "type": "int64"
        },
        {
          "indexed": true,
          "internalType": "uint32",
          "name": "depositId",
          "type": "uint32"
        },
        {
          "indexed": false,
          "internalType": "address",
          "name": "destinationToken",
          "type": "address"
        },
        {
          "indexed": false,
          "internalType": "address",
          "name": "relayer",
          "type": "address"
        },
        {
          "indexed": true,
          "internalType": "address",
          "name": "depositor",
          "type": "address"
        },
        {
          "indexed": false,
          "internalType": "address",
          "name": "recipient",
          "type": "address"
        },
        {
          "indexed": false,
          "internalType": "bytes",
          "name": "message",
          "type": "bytes"
        },
        {
          "components": [
            {
              "internalType": "address",
              "name": "recipient",
              "type": "address"
            },
            {
              "internalType": "bytes",
              "name": "message",
              "type": "bytes"
            },
            {
              "internalType": "int64",
              "name": "relayerFeePct",
              "type": "int64"
            },
            {
              "internalType": "bool",
              "name": "isSlowRelay",
              "type": "bool"
            },
            {
              "internalType": "int256",
              "name": "payoutAdjustmentPct",
              "type": "int256"
            }
          ],
          "indexed": false,
          "internalType": "struct SpokePool.RelayExecutionInfo",
          "name": "updatableRelayData",
          "type": "tuple"
        }
      ],
      "name": "FilledRelay",
      "type": "event"
    },
    {
      "anonymous": false,
      "inputs": [
        {
          "indexed": false,
          "internalType": "address",
          "name": "inputToken",
          "type": "address"
        },
        {
          "indexed": false,
          "internalType": "address",
          "name": "outputToken",
          "type": "address"
        },
        {
          "indexed": false,
          "internalType": "uint256",
          "name": "inputAmount",
          "type": "uint256"
        },
        {
          "indexed": false,
          "internalType": "uint256",
          "name": "outputAmount",
          "type": "uint256"
        },
        {
          "indexed": false,
          "internalType": "uint256",
          "name": "repaymentChainId",
          "type": "uint256"
        },
        {
          "indexed": true,
          "internalType": "uint256",
          "name": "originChainId",
          "type": "uint256"
        },
        {
          "indexed": true,
          "internalType": "uint32",
          "name": "depositId",
          "type": "uint32"
        },
        {
          "indexed": false,
          "internalType": "uint32",
          "name": "fillDeadline",
          "type": "uint32"
        },
        {
          "indexed": false,
          "internalType": "uint32",
          "name": "exclusivityDeadline",
          "type": "uint32"
        },
        {
          "indexed": false,
          "internalType": "address",
          "name": "exclusiveRelayer",
          "type": "address"
        },
        {
          "indexed": true,
          "internalType": "address",
          "name": "relayer",
          "type": "address"
        },
        {
          "indexed": false,
          "internalType": "address",
          "name": "depositor",
          "type": "address"
        },
        {
          "indexed": false,
          "internalType": "address",
          "name": "recipient",
          "type": "address"
        },
        {
          "indexed": false,
          "internalType": "bytes",
          "name": "message",
          "type": "bytes"
        },
        {
          "components": [
            {
              "internalType": "address",
              "name": "updatedRecipient",
              "type": "address"
            },
            {
              "internalType": "bytes",
              "name": "updatedMessage",
              "type": "bytes"
            },
            {
              "internalType": "uint256",
              "name": "updatedOutputAmount",
              "type": "uint256"
            },
            {
              "internalType": "enum USSSpokePoolInterface.FillType",
              "name": "fillType",
              "type": "uint8"
            }
          ],
          "indexed": false,
          "internalType": "struct USSSpokePoolInterface.USSRelayExecutionEventInfo",
          "name": "relayExecutionInfo",
          "type": "tuple"
        }
      ],
      "name": "FilledUSSRelay",
      "type": "event"
    },
    {
      "anonymous": false,
      "inputs": [
        {
          "indexed": false,
          "internalType": "uint8",
          "name": "version",
          "type": "uint8"
        }
      ],
      "name": "Initialized",
      "type": "event"
    },
    {
      "anonymous": false,
      "inputs": [
        {
          "indexed": false,
          "internalType": "bool",
          "name": "isPaused",
          "type": "bool"
        }
      ],
      "name": "PausedDeposits",
      "type": "event"
    },
    {
      "anonymous": false,
      "inputs": [
        {
          "indexed": false,
          "internalType": "bool",
          "name": "isPaused",
          "type": "bool"
        }
      ],
      "name": "PausedFills",
      "type": "event"
    },
    {
      "anonymous": false,
      "inputs": [
        {
          "indexed": true,
          "internalType": "address",
          "name": "l2Token",
          "type": "address"
        },
        {
          "indexed": false,
          "internalType": "address",
          "name": "target",
          "type": "address"
        },
        {
          "indexed": false,
          "internalType": "uint256",
          "name": "numberOfTokensBridged",
          "type": "uint256"
        }
      ],
      "name": "PolygonZkEVMTokensBridged",
      "type": "event"
    },
    {
      "anonymous": false,
      "inputs": [
        {
          "indexed": true,
          "internalType": "address",
          "name": "caller",
          "type": "address"
        },
        {
          "indexed": true,
          "internalType": "address",
          "name": "originAddress",
          "type": "address"
        }
      ],
      "name": "ReceivedMessageFromL1",
      "type": "event"
    },
    {
      "anonymous": false,
      "inputs": [
        {
          "indexed": true,
          "internalType": "address",
          "name": "relayer",
          "type": "address"
        },
        {
          "indexed": false,
          "internalType": "address",
          "name": "refundToken",
          "type": "address"
        },
        {
          "indexed": false,
          "internalType": "uint256",
          "name": "amount",
          "type": "uint256"
        },
        {
          "indexed": true,
          "internalType": "uint256",
          "name": "originChainId",
          "type": "uint256"
        },
        {
          "indexed": false,
          "internalType": "uint256",
          "name": "destinationChainId",
          "type": "uint256"
        },
        {
          "indexed": false,
          "internalType": "int64",
          "name": "realizedLpFeePct",
          "type": "int64"
        },
        {
          "indexed": true,
          "internalType": "uint32",
          "name": "depositId",
          "type": "uint32"
        },
        {
          "indexed": false,
          "internalType": "uint256",
          "name": "fillBlock",
          "type": "uint256"
        },
        {
          "indexed": false,
          "internalType": "uint256",
          "name": "previousIdenticalRequests",
          "type": "uint256"
        }
      ],
      "name": "RefundRequested",
      "type": "event"
    },
    {
      "anonymous": false,
      "inputs": [
        {
          "indexed": true,
          "internalType": "uint32",
          "name": "rootBundleId",
          "type": "uint32"
        },
        {
          "indexed": true,
          "internalType": "bytes32",
          "name": "relayerRefundRoot",
          "type": "bytes32"
        },
        {
          "indexed": true,
          "internalType": "bytes32",
          "name": "slowRelayRoot",
          "type": "bytes32"
        }
      ],
      "name": "RelayedRootBundle",
      "type": "event"
    },
    {
      "anonymous": false,
      "inputs": [
        {
          "indexed": false,
          "internalType": "int64",
          "name": "newRelayerFeePct",
          "type": "int64"
        },
        {
          "indexed": true,
          "internalType": "uint32",
          "name": "depositId",
          "type": "uint32"
        },
        {
          "indexed": true,
          "internalType": "address",
          "name": "depositor",
          "type": "address"
        },
        {
          "indexed": false,
          "internalType": "address",
          "name": "updatedRecipient",
          "type": "address"
        },
        {
          "indexed": false,
          "internalType": "bytes",
          "name": "updatedMessage",
          "type": "bytes"
        },
        {
          "indexed": false,
          "internalType": "bytes",
          "name": "depositorSignature",
          "type": "bytes"
        }
      ],
      "name": "RequestedSpeedUpDeposit",
      "type": "event"
    },
    {
      "anonymous": false,
      "inputs": [
        {
          "indexed": false,
          "internalType": "uint256",
          "name": "updatedOutputAmount",
          "type": "uint256"
        },
        {
          "indexed": true,
          "internalType": "uint32",
          "name": "depositId",
          "type": "uint32"
        },
        {
          "indexed": true,
          "internalType": "address",
          "name": "depositor",
          "type": "address"
        },
        {
          "indexed": false,
          "internalType": "address",
          "name": "updatedRecipient",
          "type": "address"
        },
        {
          "indexed": false,
          "internalType": "bytes",
          "name": "updatedMessage",
          "type": "bytes"
        },
        {
          "indexed": false,
          "internalType": "bytes",
          "name": "depositorSignature",
          "type": "bytes"
        }
      ],
      "name": "RequestedSpeedUpUSSDeposit",
      "type": "event"
    },
    {
      "anonymous": false,
      "inputs": [
        {
          "indexed": false,
          "internalType": "address",
          "name": "inputToken",
          "type": "address"
        },
        {
          "indexed": false,
          "internalType": "address",
          "name": "outputToken",
          "type": "address"
        },
        {
          "indexed": false,
          "internalType": "uint256",
          "name": "inputAmount",
          "type": "uint256"
        },
        {
          "indexed": false,
          "internalType": "uint256",
          "name": "outputAmount",
          "type": "uint256"
        },
        {
          "indexed": true,
          "internalType": "uint256",
          "name": "originChainId",
          "type": "uint256"
        },
        {
          "indexed": true,
          "internalType": "uint32",
          "name": "depositId",
          "type": "uint32"
        },
        {
          "indexed": false,
          "internalType": "uint32",
          "name": "fillDeadline",
          "type": "uint32"
        },
        {
          "indexed": false,
          "internalType": "uint32",
          "name": "exclusivityDeadline",
          "type": "uint32"
        },
        {
          "indexed": false,
          "internalType": "address",
          "name": "exclusiveRelayer",
          "type": "address"
        },
        {
          "indexed": false,
          "internalType": "address",
          "name": "depositor",
          "type": "address"
        },
        {
          "indexed": false,
          "internalType": "address",
          "name": "recipient",
          "type": "address"
        },
        {
          "indexed": false,
          "internalType": "bytes",
          "name": "message",
          "type": "bytes"
        }
      ],
      "name": "RequestedUSSSlowFill",
      "type": "event"
    },
    {
      "anonymous": false,
      "inputs": [
        {
          "indexed": true,
          "internalType": "address",
          "name": "newHubPool",
          "type": "address"
        }
      ],
      "name": "SetHubPool",
      "type": "event"
    },
    {
      "anonymous": false,
      "inputs": [
        {
          "indexed": true,
          "internalType": "address",
          "name": "newPolygonZkEVMBridge",
          "type": "address"
        },
        {
          "indexed": true,
          "internalType": "address",
          "name": "oldPolygonZkEVMBridge",
          "type": "address"
        }
      ],
      "name": "SetPolygonZkEVMBridge",
      "type": "event"
    },
    {
      "anonymous": false,
      "inputs": [
        {
          "indexed": true,
          "internalType": "address",
          "name": "newAdmin",
          "type": "address"
        }
      ],
      "name": "SetXDomainAdmin",
      "type": "event"
    },
    {
      "anonymous": false,
      "inputs": [
        {
          "indexed": false,
          "internalType": "uint256",
          "name": "amountToReturn",
          "type": "uint256"
        },
        {
          "indexed": true,
          "internalType": "uint256",
          "name": "chainId",
          "type": "uint256"
        },
        {
          "indexed": true,
          "internalType": "uint32",
          "name": "leafId",
          "type": "uint32"
        },
        {
          "indexed": true,
          "internalType": "address",
          "name": "l2TokenAddress",
          "type": "address"
        }
      ],
      "name": "TokensBridged",
      "type": "event"
    },
    {
      "anonymous": false,
      "inputs": [
        {
          "indexed": false,
          "internalType": "address",
          "name": "inputToken",
          "type": "address"
        },
        {
          "indexed": false,
          "internalType": "address",
          "name": "outputToken",
          "type": "address"
        },
        {
          "indexed": false,
          "internalType": "uint256",
          "name": "inputAmount",
          "type": "uint256"
        },
        {
          "indexed": false,
          "internalType": "uint256",
          "name": "outputAmount",
          "type": "uint256"
        },
        {
          "indexed": true,
          "internalType": "uint256",
          "name": "destinationChainId",
          "type": "uint256"
        },
        {
          "indexed": true,
          "internalType": "uint32",
          "name": "depositId",
          "type": "uint32"
        },
        {
          "indexed": false,
          "internalType": "uint32",
          "name": "quoteTimestamp",
          "type": "uint32"
        },
        {
          "indexed": false,
          "internalType": "uint32",
          "name": "fillDeadline",
          "type": "uint32"
        },
        {
          "indexed": false,
          "internalType": "uint32",
          "name": "exclusivityDeadline",
          "type": "uint32"
        },
        {
          "indexed": true,
          "internalType": "address",
          "name": "depositor",
          "type": "address"
        },
        {
          "indexed": false,
          "internalType": "address",
          "name": "recipient",
          "type": "address"
        },
        {
          "indexed": false,
          "internalType": "address",
          "name": "relayer",
          "type": "address"
        },
        {
          "indexed": false,
          "internalType": "bytes",
          "name": "message",
          "type": "bytes"
        }
      ],
      "name": "USSFundsDeposited",
      "type": "event"
    },
    {
      "anonymous": false,
      "inputs": [
        {
          "indexed": true,
          "internalType": "address",
          "name": "implementation",
          "type": "address"
        }
      ],
      "name": "Upgraded",
      "type": "event"
    },
    {
      "inputs": [],
      "name": "MAX_TRANSFER_SIZE",
      "outputs": [
        {
          "internalType": "uint256",
          "name": "",
          "type": "uint256"
        }
      ],
      "stateMutability": "view",
      "type": "function"
    },
    {
      "inputs": [],
      "name": "SLOW_FILL_MAX_TOKENS_TO_SEND",
      "outputs": [
        {
          "internalType": "uint256",
          "name": "",
          "type": "uint256"
        }
      ],
      "stateMutability": "view",
      "type": "function"
    },
    {
      "inputs": [],
      "name": "UPDATE_DEPOSIT_DETAILS_HASH",
      "outputs": [
        {
          "internalType": "bytes32",
          "name": "",
          "type": "bytes32"
        }
      ],
      "stateMutability": "view",
      "type": "function"
    },
    {
      "inputs": [],
      "name": "UPDATE_USS_DEPOSIT_DETAILS_HASH",
      "outputs": [
        {
          "internalType": "bytes32",
          "name": "",
          "type": "bytes32"
        }
      ],
      "stateMutability": "view",
      "type": "function"
    },
    {
      "inputs": [
        {
          "internalType": "uint32",
          "name": "_initialDepositId",
          "type": "uint32"
        },
        {
          "internalType": "address",
          "name": "_crossDomainAdmin",
          "type": "address"
        },
        {
          "internalType": "address",
          "name": "_hubPool",
          "type": "address"
        }
      ],
      "name": "__SpokePool_init",
      "outputs": [],
      "stateMutability": "nonpayable",
      "type": "function"
    },
    {
      "inputs": [],
      "name": "chainId",
      "outputs": [
        {
          "internalType": "uint256",
          "name": "",
          "type": "uint256"
        }
      ],
      "stateMutability": "view",
      "type": "function"
    },
    {
      "inputs": [],
      "name": "crossDomainAdmin",
      "outputs": [
        {
          "internalType": "address",
          "name": "",
          "type": "address"
        }
      ],
      "stateMutability": "view",
      "type": "function"
    },
    {
      "inputs": [
        {
          "internalType": "address",
          "name": "recipient",
          "type": "address"
        },
        {
          "internalType": "address",
          "name": "originToken",
          "type": "address"
        },
        {
          "internalType": "uint256",
          "name": "amount",
          "type": "uint256"
        },
        {
          "internalType": "uint256",
          "name": "destinationChainId",
          "type": "uint256"
        },
        {
          "internalType": "int64",
          "name": "relayerFeePct",
          "type": "int64"
        },
        {
          "internalType": "uint32",
          "name": "quoteTimestamp",
          "type": "uint32"
        },
        {
          "internalType": "bytes",
          "name": "message",
          "type": "bytes"
        },
        {
          "internalType": "uint256",
          "name": "",
          "type": "uint256"
        }
      ],
      "name": "deposit",
      "outputs": [],
      "stateMutability": "payable",
      "type": "function"
    },
    {
      "inputs": [
        {
          "internalType": "address",
          "name": "depositor",
          "type": "address"
        },
        {
          "internalType": "address",
          "name": "recipient",
          "type": "address"
        },
        {
          "internalType": "address",
          "name": "originToken",
          "type": "address"
        },
        {
          "internalType": "uint256",
          "name": "amount",
          "type": "uint256"
        },
        {
          "internalType": "uint256",
          "name": "destinationChainId",
          "type": "uint256"
        },
        {
          "internalType": "int64",
          "name": "relayerFeePct",
          "type": "int64"
        },
        {
          "internalType": "uint32",
          "name": "quoteTimestamp",
          "type": "uint32"
        },
        {
          "internalType": "bytes",
          "name": "message",
          "type": "bytes"
        },
        {
          "internalType": "uint256",
          "name": "",
          "type": "uint256"
        }
      ],
      "name": "depositFor",
      "outputs": [],
      "stateMutability": "payable",
      "type": "function"
    },
    {
      "inputs": [
        {
          "internalType": "address",
          "name": "depositor",
          "type": "address"
        },
        {
          "internalType": "address",
          "name": "recipient",
          "type": "address"
        },
        {
          "internalType": "address",
          "name": "originToken",
          "type": "address"
        },
        {
          "internalType": "uint256",
          "name": "amount",
          "type": "uint256"
        },
        {
          "internalType": "uint256",
          "name": "destinationChainId",
          "type": "uint256"
        },
        {
          "internalType": "int64",
          "name": "relayerFeePct",
          "type": "int64"
        },
        {
          "internalType": "bytes",
          "name": "message",
          "type": "bytes"
        },
        {
          "internalType": "uint256",
          "name": "maxCount",
          "type": "uint256"
        }
      ],
      "name": "depositForNow",
      "outputs": [],
      "stateMutability": "payable",
      "type": "function"
    },
    {
      "inputs": [
        {
          "internalType": "address",
          "name": "recipient",
          "type": "address"
        },
        {
          "internalType": "address",
          "name": "originToken",
          "type": "address"
        },
        {
          "internalType": "uint256",
          "name": "amount",
          "type": "uint256"
        },
        {
          "internalType": "uint256",
          "name": "destinationChainId",
          "type": "uint256"
        },
        {
          "internalType": "int64",
          "name": "relayerFeePct",
          "type": "int64"
        },
        {
          "internalType": "bytes",
          "name": "message",
          "type": "bytes"
        },
        {
          "internalType": "uint256",
          "name": "maxCount",
          "type": "uint256"
        }
      ],
      "name": "depositNow",
      "outputs": [],
      "stateMutability": "payable",
      "type": "function"
    },
    {
      "inputs": [],
      "name": "depositQuoteTimeBuffer",
      "outputs": [
        {
          "internalType": "uint32",
          "name": "",
          "type": "uint32"
        }
      ],
      "stateMutability": "view",
      "type": "function"
    },
    {
      "inputs": [
        {
          "internalType": "address",
          "name": "depositor",
          "type": "address"
        },
        {
          "internalType": "address",
          "name": "recipient",
          "type": "address"
        },
        {
          "internalType": "address",
          "name": "inputToken",
          "type": "address"
        },
        {
          "internalType": "address",
          "name": "outputToken",
          "type": "address"
        },
        {
          "internalType": "uint256",
          "name": "inputAmount",
          "type": "uint256"
        },
        {
          "internalType": "uint256",
          "name": "outputAmount",
          "type": "uint256"
        },
        {
          "internalType": "uint256",
          "name": "destinationChainId",
          "type": "uint256"
        },
        {
          "internalType": "address",
          "name": "exclusiveRelayer",
          "type": "address"
        },
        {
          "internalType": "uint32",
          "name": "quoteTimestamp",
          "type": "uint32"
        },
        {
          "internalType": "uint32",
          "name": "fillDeadline",
          "type": "uint32"
        },
        {
          "internalType": "uint32",
          "name": "exclusivityDeadline",
          "type": "uint32"
        },
        {
          "internalType": "bytes",
          "name": "message",
          "type": "bytes"
        }
      ],
      "name": "depositUSS",
      "outputs": [],
      "stateMutability": "payable",
      "type": "function"
    },
    {
      "inputs": [
        {
          "internalType": "uint256",
          "name": "rootBundleId",
          "type": "uint256"
        }
      ],
      "name": "emergencyDeleteRootBundle",
      "outputs": [],
      "stateMutability": "nonpayable",
      "type": "function"
    },
    {
      "inputs": [
        {
          "internalType": "address",
          "name": "",
          "type": "address"
        },
        {
          "internalType": "uint256",
          "name": "",
          "type": "uint256"
        }
      ],
      "name": "enabledDepositRoutes",
      "outputs": [
        {
          "internalType": "bool",
          "name": "",
          "type": "bool"
        }
      ],
      "stateMutability": "view",
      "type": "function"
    },
    {
      "inputs": [
        {
          "internalType": "uint32",
          "name": "rootBundleId",
          "type": "uint32"
        },
        {
          "components": [
            {
              "internalType": "uint256",
              "name": "amountToReturn",
              "type": "uint256"
            },
            {
              "internalType": "uint256",
              "name": "chainId",
              "type": "uint256"
            },
            {
              "internalType": "uint256[]",
              "name": "refundAmounts",
              "type": "uint256[]"
            },
            {
              "internalType": "uint32",
              "name": "leafId",
              "type": "uint32"
            },
            {
              "internalType": "address",
              "name": "l2TokenAddress",
              "type": "address"
            },
            {
              "internalType": "address[]",
              "name": "refundAddresses",
              "type": "address[]"
            }
          ],
          "internalType": "struct SpokePoolInterface.RelayerRefundLeaf",
          "name": "relayerRefundLeaf",
          "type": "tuple"
        },
        {
          "internalType": "bytes32[]",
          "name": "proof",
          "type": "bytes32[]"
        }
      ],
      "name": "executeRelayerRefundLeaf",
      "outputs": [],
      "stateMutability": "payable",
      "type": "function"
    },
    {
      "inputs": [
        {
          "internalType": "address",
          "name": "depositor",
          "type": "address"
        },
        {
          "internalType": "address",
          "name": "recipient",
          "type": "address"
        },
        {
          "internalType": "address",
          "name": "destinationToken",
          "type": "address"
        },
        {
          "internalType": "uint256",
          "name": "amount",
          "type": "uint256"
        },
        {
          "internalType": "uint256",
          "name": "originChainId",
          "type": "uint256"
        },
        {
          "internalType": "int64",
          "name": "realizedLpFeePct",
          "type": "int64"
        },
        {
          "internalType": "int64",
          "name": "relayerFeePct",
          "type": "int64"
        },
        {
          "internalType": "uint32",
          "name": "depositId",
          "type": "uint32"
        },
        {
          "internalType": "uint32",
          "name": "rootBundleId",
          "type": "uint32"
        },
        {
          "internalType": "bytes",
          "name": "message",
          "type": "bytes"
        },
        {
          "internalType": "int256",
          "name": "payoutAdjustment",
          "type": "int256"
        },
        {
          "internalType": "bytes32[]",
          "name": "proof",
          "type": "bytes32[]"
        }
      ],
      "name": "executeSlowRelayLeaf",
      "outputs": [],
      "stateMutability": "nonpayable",
      "type": "function"
    },
    {
      "inputs": [
        {
          "internalType": "uint32",
          "name": "rootBundleId",
          "type": "uint32"
        },
        {
          "components": [
            {
              "internalType": "uint256",
              "name": "amountToReturn",
              "type": "uint256"
            },
            {
              "internalType": "uint256",
              "name": "chainId",
              "type": "uint256"
            },
            {
              "internalType": "uint256[]",
              "name": "refundAmounts",
              "type": "uint256[]"
            },
            {
              "internalType": "uint32",
              "name": "leafId",
              "type": "uint32"
            },
            {
              "internalType": "address",
              "name": "l2TokenAddress",
              "type": "address"
            },
            {
              "internalType": "address[]",
              "name": "refundAddresses",
              "type": "address[]"
            },
            {
              "internalType": "bytes32",
              "name": "fillsRefundedRoot",
              "type": "bytes32"
            },
            {
              "internalType": "string",
              "name": "fillsRefundedHash",
              "type": "string"
            }
          ],
          "internalType": "struct USSSpokePoolInterface.USSRelayerRefundLeaf",
          "name": "relayerRefundLeaf",
          "type": "tuple"
        },
        {
          "internalType": "bytes32[]",
          "name": "proof",
          "type": "bytes32[]"
        }
      ],
      "name": "executeUSSRelayerRefundLeaf",
      "outputs": [],
      "stateMutability": "payable",
      "type": "function"
    },
    {
      "inputs": [
        {
          "components": [
            {
              "components": [
                {
                  "internalType": "address",
                  "name": "depositor",
                  "type": "address"
                },
                {
                  "internalType": "address",
                  "name": "recipient",
                  "type": "address"
                },
                {
                  "internalType": "address",
                  "name": "exclusiveRelayer",
                  "type": "address"
                },
                {
                  "internalType": "address",
                  "name": "inputToken",
                  "type": "address"
                },
                {
                  "internalType": "address",
                  "name": "outputToken",
                  "type": "address"
                },
                {
                  "internalType": "uint256",
                  "name": "inputAmount",
                  "type": "uint256"
                },
                {
                  "internalType": "uint256",
                  "name": "outputAmount",
                  "type": "uint256"
                },
                {
                  "internalType": "uint256",
                  "name": "originChainId",
                  "type": "uint256"
                },
                {
                  "internalType": "uint32",
                  "name": "depositId",
                  "type": "uint32"
                },
                {
                  "internalType": "uint32",
                  "name": "fillDeadline",
                  "type": "uint32"
                },
                {
                  "internalType": "uint32",
                  "name": "exclusivityDeadline",
                  "type": "uint32"
                },
                {
                  "internalType": "bytes",
                  "name": "message",
                  "type": "bytes"
                }
              ],
              "internalType": "struct USSSpokePoolInterface.USSRelayData",
              "name": "relayData",
              "type": "tuple"
            },
            {
              "internalType": "uint256",
              "name": "chainId",
              "type": "uint256"
            },
            {
              "internalType": "uint256",
              "name": "updatedOutputAmount",
              "type": "uint256"
            }
          ],
          "internalType": "struct USSSpokePoolInterface.USSSlowFill",
          "name": "slowFillLeaf",
          "type": "tuple"
        },
        {
          "internalType": "uint32",
          "name": "rootBundleId",
          "type": "uint32"
        },
        {
          "internalType": "bytes32[]",
          "name": "proof",
          "type": "bytes32[]"
        }
      ],
      "name": "executeUSSSlowRelayLeaf",
      "outputs": [],
      "stateMutability": "nonpayable",
      "type": "function"
    },
    {
      "inputs": [],
      "name": "fillDeadlineBuffer",
      "outputs": [
        {
          "internalType": "uint32",
          "name": "",
          "type": "uint32"
        }
      ],
      "stateMutability": "view",
      "type": "function"
    },
    {
      "inputs": [
        {
          "internalType": "address",
          "name": "depositor",
          "type": "address"
        },
        {
          "internalType": "address",
          "name": "recipient",
          "type": "address"
        },
        {
          "internalType": "address",
          "name": "destinationToken",
          "type": "address"
        },
        {
          "internalType": "uint256",
          "name": "amount",
          "type": "uint256"
        },
        {
          "internalType": "uint256",
          "name": "maxTokensToSend",
          "type": "uint256"
        },
        {
          "internalType": "uint256",
          "name": "repaymentChainId",
          "type": "uint256"
        },
        {
          "internalType": "uint256",
          "name": "originChainId",
          "type": "uint256"
        },
        {
          "internalType": "int64",
          "name": "realizedLpFeePct",
          "type": "int64"
        },
        {
          "internalType": "int64",
          "name": "relayerFeePct",
          "type": "int64"
        },
        {
          "internalType": "uint32",
          "name": "depositId",
          "type": "uint32"
        },
        {
          "internalType": "bytes",
          "name": "message",
          "type": "bytes"
        },
        {
          "internalType": "uint256",
          "name": "maxCount",
          "type": "uint256"
        }
      ],
      "name": "fillRelay",
      "outputs": [],
      "stateMutability": "nonpayable",
      "type": "function"
    },
    {
      "inputs": [
        {
          "internalType": "address",
          "name": "depositor",
          "type": "address"
        },
        {
          "internalType": "address",
          "name": "recipient",
          "type": "address"
        },
        {
          "internalType": "address",
          "name": "updatedRecipient",
          "type": "address"
        },
        {
          "internalType": "address",
          "name": "destinationToken",
          "type": "address"
        },
        {
          "internalType": "uint256",
          "name": "amount",
          "type": "uint256"
        },
        {
          "internalType": "uint256",
          "name": "maxTokensToSend",
          "type": "uint256"
        },
        {
          "internalType": "uint256",
          "name": "repaymentChainId",
          "type": "uint256"
        },
        {
          "internalType": "uint256",
          "name": "originChainId",
          "type": "uint256"
        },
        {
          "internalType": "int64",
          "name": "realizedLpFeePct",
          "type": "int64"
        },
        {
          "internalType": "int64",
          "name": "relayerFeePct",
          "type": "int64"
        },
        {
          "internalType": "int64",
          "name": "updatedRelayerFeePct",
          "type": "int64"
        },
        {
          "internalType": "uint32",
          "name": "depositId",
          "type": "uint32"
        },
        {
          "internalType": "bytes",
          "name": "message",
          "type": "bytes"
        },
        {
          "internalType": "bytes",
          "name": "updatedMessage",
          "type": "bytes"
        },
        {
          "internalType": "bytes",
          "name": "depositorSignature",
          "type": "bytes"
        },
        {
          "internalType": "uint256",
          "name": "maxCount",
          "type": "uint256"
        }
      ],
      "name": "fillRelayWithUpdatedDeposit",
      "outputs": [],
      "stateMutability": "nonpayable",
      "type": "function"
    },
    {
      "inputs": [
        {
          "internalType": "bytes32",
          "name": "",
          "type": "bytes32"
        }
      ],
      "name": "fillStatuses",
      "outputs": [
        {
          "internalType": "uint256",
          "name": "",
          "type": "uint256"
        }
      ],
      "stateMutability": "view",
      "type": "function"
    },
    {
      "inputs": [
        {
          "components": [
            {
              "internalType": "address",
              "name": "depositor",
              "type": "address"
            },
            {
              "internalType": "address",
              "name": "recipient",
              "type": "address"
            },
            {
              "internalType": "address",
              "name": "exclusiveRelayer",
              "type": "address"
            },
            {
              "internalType": "address",
              "name": "inputToken",
              "type": "address"
            },
            {
              "internalType": "address",
              "name": "outputToken",
              "type": "address"
            },
            {
              "internalType": "uint256",
              "name": "inputAmount",
              "type": "uint256"
            },
            {
              "internalType": "uint256",
              "name": "outputAmount",
              "type": "uint256"
            },
            {
              "internalType": "uint256",
              "name": "originChainId",
              "type": "uint256"
            },
            {
              "internalType": "uint32",
              "name": "depositId",
              "type": "uint32"
            },
            {
              "internalType": "uint32",
              "name": "fillDeadline",
              "type": "uint32"
            },
            {
              "internalType": "uint32",
              "name": "exclusivityDeadline",
              "type": "uint32"
            },
            {
              "internalType": "bytes",
              "name": "message",
              "type": "bytes"
            }
          ],
          "internalType": "struct USSSpokePoolInterface.USSRelayData",
          "name": "relayData",
          "type": "tuple"
        },
        {
          "internalType": "uint256",
          "name": "repaymentChainId",
          "type": "uint256"
        }
      ],
      "name": "fillUSSRelay",
      "outputs": [],
      "stateMutability": "nonpayable",
      "type": "function"
    },
    {
      "inputs": [
        {
          "components": [
            {
              "internalType": "address",
              "name": "depositor",
              "type": "address"
            },
            {
              "internalType": "address",
              "name": "recipient",
              "type": "address"
            },
            {
              "internalType": "address",
              "name": "exclusiveRelayer",
              "type": "address"
            },
            {
              "internalType": "address",
              "name": "inputToken",
              "type": "address"
            },
            {
              "internalType": "address",
              "name": "outputToken",
              "type": "address"
            },
            {
              "internalType": "uint256",
              "name": "inputAmount",
              "type": "uint256"
            },
            {
              "internalType": "uint256",
              "name": "outputAmount",
              "type": "uint256"
            },
            {
              "internalType": "uint256",
              "name": "originChainId",
              "type": "uint256"
            },
            {
              "internalType": "uint32",
              "name": "depositId",
              "type": "uint32"
            },
            {
              "internalType": "uint32",
              "name": "fillDeadline",
              "type": "uint32"
            },
            {
              "internalType": "uint32",
              "name": "exclusivityDeadline",
              "type": "uint32"
            },
            {
              "internalType": "bytes",
              "name": "message",
              "type": "bytes"
            }
          ],
          "internalType": "struct USSSpokePoolInterface.USSRelayData",
          "name": "relayData",
          "type": "tuple"
        },
        {
          "internalType": "uint256",
          "name": "repaymentChainId",
          "type": "uint256"
        },
        {
          "internalType": "uint256",
          "name": "updatedOutputAmount",
          "type": "uint256"
        },
        {
          "internalType": "address",
          "name": "updatedRecipient",
          "type": "address"
        },
        {
          "internalType": "bytes",
          "name": "updatedMessage",
          "type": "bytes"
        },
        {
          "internalType": "bytes",
          "name": "depositorSignature",
          "type": "bytes"
        }
      ],
      "name": "fillUSSRelayWithUpdatedDeposit",
      "outputs": [],
      "stateMutability": "nonpayable",
      "type": "function"
    },
    {
      "inputs": [],
      "name": "getCurrentTime",
      "outputs": [
        {
          "internalType": "uint256",
          "name": "",
          "type": "uint256"
        }
      ],
      "stateMutability": "view",
      "type": "function"
    },
    {
      "inputs": [],
      "name": "hubPool",
      "outputs": [
        {
          "internalType": "address",
          "name": "",
          "type": "address"
        }
      ],
      "stateMutability": "view",
      "type": "function"
    },
    {
      "inputs": [
        {
          "internalType": "contract IPolygonZkEVMBridge",
          "name": "_l2PolygonZkEVMBridge",
          "type": "address"
        },
        {
          "internalType": "uint32",
          "name": "_initialDepositId",
          "type": "uint32"
        },
        {
          "internalType": "address",
          "name": "_crossDomainAdmin",
          "type": "address"
        },
        {
          "internalType": "address",
          "name": "_hubPool",
          "type": "address"
        }
      ],
      "name": "initialize",
      "outputs": [],
      "stateMutability": "nonpayable",
      "type": "function"
    },
    {
      "inputs": [],
      "name": "l1NetworkId",
      "outputs": [
        {
          "internalType": "uint32",
          "name": "",
          "type": "uint32"
        }
      ],
      "stateMutability": "view",
      "type": "function"
    },
    {
      "inputs": [],
      "name": "l2PolygonZkEVMBridge",
      "outputs": [
        {
          "internalType": "contract IPolygonZkEVMBridge",
          "name": "",
          "type": "address"
        }
      ],
      "stateMutability": "view",
      "type": "function"
    },
    {
      "inputs": [
        {
          "internalType": "bytes[]",
          "name": "data",
          "type": "bytes[]"
        }
      ],
      "name": "multicall",
      "outputs": [
        {
          "internalType": "bytes[]",
          "name": "results",
          "type": "bytes[]"
        }
      ],
      "stateMutability": "nonpayable",
      "type": "function"
    },
    {
      "inputs": [],
      "name": "numberOfDeposits",
      "outputs": [
        {
          "internalType": "uint32",
          "name": "",
          "type": "uint32"
        }
      ],
      "stateMutability": "view",
      "type": "function"
    },
    {
      "inputs": [
        {
          "internalType": "address",
          "name": "_originAddress",
          "type": "address"
        },
        {
          "internalType": "uint32",
          "name": "_originNetwork",
          "type": "uint32"
        },
        {
          "internalType": "bytes",
          "name": "_data",
          "type": "bytes"
        }
      ],
      "name": "onMessageReceived",
      "outputs": [],
      "stateMutability": "payable",
      "type": "function"
    },
    {
      "inputs": [
        {
          "internalType": "bool",
          "name": "pause",
          "type": "bool"
        }
      ],
      "name": "pauseDeposits",
      "outputs": [],
      "stateMutability": "nonpayable",
      "type": "function"
    },
    {
      "inputs": [
        {
          "internalType": "bool",
          "name": "pause",
          "type": "bool"
        }
      ],
      "name": "pauseFills",
      "outputs": [],
      "stateMutability": "nonpayable",
      "type": "function"
    },
    {
      "inputs": [],
      "name": "pausedDeposits",
      "outputs": [
        {
          "internalType": "bool",
          "name": "",
          "type": "bool"
        }
      ],
      "stateMutability": "view",
      "type": "function"
    },
    {
      "inputs": [],
      "name": "pausedFills",
      "outputs": [
        {
          "internalType": "bool",
          "name": "",
          "type": "bool"
        }
      ],
      "stateMutability": "view",
      "type": "function"
    },
    {
      "inputs": [],
      "name": "proxiableUUID",
      "outputs": [
        {
          "internalType": "bytes32",
          "name": "",
          "type": "bytes32"
        }
      ],
      "stateMutability": "view",
      "type": "function"
    },
    {
      "inputs": [
        {
          "internalType": "bytes32",
          "name": "relayerRefundRoot",
          "type": "bytes32"
        },
        {
          "internalType": "bytes32",
          "name": "slowRelayRoot",
          "type": "bytes32"
        }
      ],
      "name": "relayRootBundle",
      "outputs": [],
      "stateMutability": "nonpayable",
      "type": "function"
    },
    {
      "inputs": [
        {
          "components": [
            {
              "internalType": "address",
              "name": "depositor",
              "type": "address"
            },
            {
              "internalType": "address",
              "name": "recipient",
              "type": "address"
            },
            {
              "internalType": "address",
              "name": "exclusiveRelayer",
              "type": "address"
            },
            {
              "internalType": "address",
              "name": "inputToken",
              "type": "address"
            },
            {
              "internalType": "address",
              "name": "outputToken",
              "type": "address"
            },
            {
              "internalType": "uint256",
              "name": "inputAmount",
              "type": "uint256"
            },
            {
              "internalType": "uint256",
              "name": "outputAmount",
              "type": "uint256"
            },
            {
              "internalType": "uint256",
              "name": "originChainId",
              "type": "uint256"
            },
            {
              "internalType": "uint32",
              "name": "depositId",
              "type": "uint32"
            },
            {
              "internalType": "uint32",
              "name": "fillDeadline",
              "type": "uint32"
            },
            {
              "internalType": "uint32",
              "name": "exclusivityDeadline",
              "type": "uint32"
            },
            {
              "internalType": "bytes",
              "name": "message",
              "type": "bytes"
            }
          ],
          "internalType": "struct USSSpokePoolInterface.USSRelayData",
          "name": "relayData",
          "type": "tuple"
        }
      ],
      "name": "requestUSSSlowFill",
      "outputs": [],
      "stateMutability": "nonpayable",
      "type": "function"
    },
    {
      "inputs": [
        {
          "internalType": "uint256",
          "name": "",
          "type": "uint256"
        }
      ],
      "name": "rootBundles",
      "outputs": [
        {
          "internalType": "bytes32",
          "name": "slowRelayRoot",
          "type": "bytes32"
        },
        {
          "internalType": "bytes32",
          "name": "relayerRefundRoot",
          "type": "bytes32"
        }
      ],
      "stateMutability": "view",
      "type": "function"
    },
    {
      "inputs": [
        {
          "internalType": "address",
          "name": "newCrossDomainAdmin",
          "type": "address"
        }
      ],
      "name": "setCrossDomainAdmin",
      "outputs": [],
      "stateMutability": "nonpayable",
      "type": "function"
    },
    {
      "inputs": [
        {
          "internalType": "address",
          "name": "originToken",
          "type": "address"
        },
        {
          "internalType": "uint256",
          "name": "destinationChainId",
          "type": "uint256"
        },
        {
          "internalType": "bool",
          "name": "enabled",
          "type": "bool"
        }
      ],
      "name": "setEnableRoute",
      "outputs": [],
      "stateMutability": "nonpayable",
      "type": "function"
    },
    {
      "inputs": [
        {
          "internalType": "address",
          "name": "newHubPool",
          "type": "address"
        }
      ],
      "name": "setHubPool",
      "outputs": [],
      "stateMutability": "nonpayable",
      "type": "function"
    },
    {
      "inputs": [
        {
          "internalType": "contract IPolygonZkEVMBridge",
          "name": "_l2PolygonZkEVMBridge",
          "type": "address"
        }
      ],
      "name": "setL2PolygonZkEVMBridge",
      "outputs": [],
      "stateMutability": "nonpayable",
      "type": "function"
    },
    {
      "inputs": [
        {
          "internalType": "address",
          "name": "depositor",
          "type": "address"
        },
        {
          "internalType": "int64",
          "name": "updatedRelayerFeePct",
          "type": "int64"
        },
        {
          "internalType": "uint32",
          "name": "depositId",
          "type": "uint32"
        },
        {
          "internalType": "address",
          "name": "updatedRecipient",
          "type": "address"
        },
        {
          "internalType": "bytes",
          "name": "updatedMessage",
          "type": "bytes"
        },
        {
          "internalType": "bytes",
          "name": "depositorSignature",
          "type": "bytes"
        }
      ],
      "name": "speedUpDeposit",
      "outputs": [],
      "stateMutability": "nonpayable",
      "type": "function"
    },
    {
      "inputs": [
        {
          "internalType": "address",
          "name": "depositor",
          "type": "address"
        },
        {
          "internalType": "uint32",
          "name": "depositId",
          "type": "uint32"
        },
        {
          "internalType": "uint256",
          "name": "updatedOutputAmount",
          "type": "uint256"
        },
        {
          "internalType": "address",
          "name": "updatedRecipient",
          "type": "address"
        },
        {
          "internalType": "bytes",
          "name": "updatedMessage",
          "type": "bytes"
        },
        {
          "internalType": "bytes",
          "name": "depositorSignature",
          "type": "bytes"
        }
      ],
      "name": "speedUpUSSDeposit",
      "outputs": [],
      "stateMutability": "nonpayable",
      "type": "function"
    },
    {
      "inputs": [
        {
          "internalType": "address",
          "name": "newImplementation",
          "type": "address"
        }
      ],
      "name": "upgradeTo",
      "outputs": [],
      "stateMutability": "nonpayable",
      "type": "function"
    },
    {
      "inputs": [
        {
          "internalType": "address",
          "name": "newImplementation",
          "type": "address"
        },
        {
          "internalType": "bytes",
          "name": "data",
          "type": "bytes"
        }
      ],
      "name": "upgradeToAndCall",
      "outputs": [],
      "stateMutability": "payable",
      "type": "function"
    },
    {
      "inputs": [],
      "name": "wrappedNativeToken",
      "outputs": [
        {
          "internalType": "contract WETH9Interface",
          "name": "",
          "type": "address"
        }
      ],
      "stateMutability": "view",
      "type": "function"
    },
    {
      "stateMutability": "payable",
      "type": "receive"
    }
  ],
  "numDeployments": 1,
  "solcInputHash": "ea39ead48417276791ffd391ed727b4f",
  "bytecode": "0x610100346200016e57601f6200518b38819003918201601f19168301916001600160401b0383118484101762000172578084926060946040528339810103126200016e5780516001600160a01b03811691908290036200016e576200007560406200006d6020840162000186565b920162000186565b913060805260a05260c05260e0525f5460ff8160081c166200016e5760ff8082160362000133575b604051614ff29081620001998239608051818181610c2301528181610f3601526110c9015260a05181818161085e01528181612763015281816130fc01528181613284015281816138450152818161413001528181614399015281816147ee01528181614b050152614b2c015260c0518181816111b9015281816126fe0152613233015260e051818181610368015261272a0152f35b60ff90811916175f557f7f26b83ff96e1f2b6a682f133852f6798a09c465da95921460cefb3847402498602060405160ff8152a15f6200009d565b5f80fd5b634e487b7160e01b5f52604160045260245ffd5b519063ffffffff821682036200016e5756fe6080604052600436101561001a575b3615610018575f80fd5b005b5f3560e01c8063079bd2c7146103395780630c2097f7146103345780631186ec331461032f57806317fcb39b1461032a5780631806b5f2146103255780631b3d5559146103205780631dfb2d021461031b578063272751c714610316578063291dc2aa1461031157806329cb924d1461030c5780633659cfe61461030757806344b8be6814610302578063486424b5146102fd578063493a4f84146102f85780634f1ef286146102f35780635249fef1146102ee5780635285e058146102e957806352d1902d146102e4578063541f4f14146102df57806357f6dcb8146102da5780635910aa24146102d55780635ceaec32146102d05780636068d6cb146102cb578063611033fe146102c65780636af75ec9146102c1578063738b62e5146102bc5780637e688bba146102b757806387a547d2146102b25780638a7860ce146102ad578063979f2bc2146102a8578063983cb80f146102a357806399cc29681461029e5780639a8a059214610299578063a1244c6714610294578063a78e4b601461028f578063a797533d1461028a578063ac9650d814610285578063ae527fbb14610280578063b5e1bf5f1461027b578063c35c83fc14610276578063c5b9709c14610271578063dda521131461026c578063ddd224f114610267578063de7eba7814610262578063e062ebcc1461025d578063e190440214610258578063e50a60f514610253578063e8ae7b7a1461024e578063ee2a53f8146102495763fd7c10540361000e57612222565b6121e4565b6120ae565b611f37565b611f0e565b611ee1565b611eb1565b611e88565b611e62565b611c86565b611c5b565b611c31565b611bb3565b611aec565b6119f9565b6119d2565b6119ab565b611991565b611913565b611809565b61173f565b6116c7565b6116a0565b611619565b61159b565b611519565b6113f7565b6113c2565b6112f5565b6111dd565b61119d565b61110e565b6110b7565b61108e565b611034565b610ef5565b610e73565b610dca565b610d08565b610bfc565b610be2565b610bb9565b610b1b565b610adc565b610a04565b61088d565b610849565b6107c0565b61071b565b61034c565b5f91031261034857565b5f80fd5b34610348575f36600319011261034857602060405163ffffffff7f0000000000000000000000000000000000000000000000000000000000000000168152f35b6001600160a01b031690565b6001600160a01b0381160361034857565b600435906103b682610398565b565b602435906103b682610398565b604435906103b682610398565b606435906103b682610398565b35906103b682610398565b60a435908160070b820361034857565b60c435908160070b820361034857565b608435908160070b820361034857565b61010435908160070b820361034857565b61012435908160070b820361034857565b61014435908160070b820361034857565b63ffffffff81160361034857565b60e435906103b68261044d565b61010435906103b68261044d565b61012435906103b68261044d565b61014435906103b68261044d565b61016435906103b68261044d565b35906103b68261044d565b634e487b7160e01b5f52604160045260245ffd5b6001600160401b0381116104d257604052565b6104ab565b606081019081106001600160401b038211176104d257604052565b60a081019081106001600160401b038211176104d257604052565b602081019081106001600160401b038211176104d257604052565b604081019081106001600160401b038211176104d257604052565b60e081019081106001600160401b038211176104d257604052565b601f909101601f19168101906001600160401b038211908210176104d257604052565b6040519060c082016001600160401b038111838210176104d257604052565b6040519061014082016001600160401b038111838210176104d257604052565b6040519061018082016001600160401b038111838210176104d257604052565b6040519061010082016001600160401b038111838210176104d257604052565b604051906103b6826104f2565b60405190608082016001600160401b038111838210176104d257604052565b6001600160401b0381116104d257601f01601f191660200190565b9291926106538261062c565b91610661604051938461055e565b829481845281830111610348578281602093845f960137010152565b9080601f830112156103485781602061069893359101610647565b90565b6001600160401b0381116104d25760051b60200190565b92916106bd8261069b565b916106cb604051938461055e565b829481845260208094019160051b810192831161034857905b8282106106f15750505050565b813581529083019083016106e4565b9080601f8301121561034857816020610698933591016106b2565b34610348576101803660031901126103485760043561073981610398565b6107416103b8565b9061074a6103c5565b6107526103ea565b9261075b6103fa565b61076361045b565b61076b610468565b6001600160401b0396909290610124358881116103485761079090369060040161067d565b9461016435988911610348576107ad610018993690600401610700565b97610144359760843592606435926122aa565b610100366003190112610348576004356107d981610398565b6024356107e581610398565b6107ed61040a565b60a435906107fa8261044d565b60c4356001600160401b0381116103485761081990369060040161067d565b926108226130e1565b60ff61086b5460e81c1661034857610842946064359160443591336131c2565b6001606555005b34610348575f366003190112610348576040517f00000000000000000000000000000000000000000000000000000000000000006001600160a01b03168152602090f35b6060366003190112610348576004356108a581610398565b6024356108b18161044d565b6044356001600160401b038111610348576108d090369060040161067d565b610c5a9182549160ff8360a01c1661034857600160a01b60ff60a01b1984161790935561095c925f9283926109459163ffffffff919061093e906001600160a01b039061092090821633146123b8565b61093461092f6108695461038c565b61038c565b99169889146123b8565b16156123b8565b602081519101305af46109566123bf565b506123b8565b337f5185f02297526865dfbc461916f7dd8d40414c836fa469073ebea66ce68ba8635f80a3610c5a805460ff60a01b19169055005b929161099c8261069b565b916109aa604051938461055e565b829481845260208094019160051b810192831161034857905b8282106109d05750505050565b83809183356109de81610398565b8152019101906109c3565b9080601f830112156103485781602061069893359101610991565b60031960603682011261034857600435610a1d8161044d565b6001600160401b0391602435908382116103485760c090823603011261034857610a45610581565b908060040135825260248101356020830152604481013584811161034857610a739060043691840101610700565b6040830152610a84606482016104a0565b6060830152610a95608482016103df565b608083015260a481013590848211610348576004610ab692369201016109e9565b60a082015260443592831161034857610ad6610018933690600401610700565b916123ee565b3461034857602036600319011261034857610842600435610afc81610398565b610b04613528565b610b0c6130e1565b613539565b8015150361034857565b3461034857606036600319011261034857600435610b3881610398565b602435907f0a21fdd43d0ad0c62689ee7230a47309a050755bcc52eba00310add65297692a602060443592610b6c84610b11565b610b74613528565b610b7c6130e1565b60018060a01b031692835f5261086d825260405f20855f52825260405f209015159060ff1981541660ff8316179055604051908152a36001606555005b34610348575f36600319011261034857610c5a546040516001600160a01b039091168152602090f35b34610348575f366003190112610348576020604051428152f35b3461034857602036600319011261034857600435610c1981610398565b6001600160a01b037f00000000000000000000000000000000000000000000000000000000000000008116308114610348575f80516020614f1d83398151915290828254160361034857610c6b613528565b60405191610c788361050d565b5f83525f80516020614edd8339815191525460ff1615610c9e5750505061001890614a68565b6020600491604051928380926352d1902d60e01b825288165afa5f9181610cd7575b50610cc9575f80fd5b03610348576100189161498b565b610cfa91925060203d602011610d01575b610cf2818361055e565b810190613581565b905f610cc0565b503d610ce8565b346103485761018036600319011261034857600435610d2681610398565b602435610d3281610398565b604435610d3e81610398565b60e4358060070b810361034857610d5361041a565b610d5b610476565b61014435959092906001600160401b03871161034857610d8261001897369060040161067d565b94610164359660c4359260a43592608435926064359261259a565b9181601f84011215610348578235916001600160401b038311610348576020838186019501011161034857565b61018036600319011261034857600435610de381610398565b60243590610df082610398565b604435610dfc81610398565b60643590610e0982610398565b60e435610e1581610398565b61010435610e228161044d565b6101243591610e308361044d565b610e38610484565b61016435979094906001600160401b03891161034857610e5f610018993690600401610d9d565b98909760c4359360a4359360843593612697565b3461034857604036600319011261034857602435600435610e92613528565b610e9a6130e1565b61086c8054600160401b8110156104d25763ffffffff9160018201905583610ec1826121c3565b5084600182015555167fc86ba04c55bc5eb2f2876b91c438849a296dbec7b08751c3074d92e04f0a77af5f80a46001606555005b604036600319011261034857600435610f0d81610398565b6024356001600160401b03811161034857610f2c90369060040161067d565b6001600160a01b037f0000000000000000000000000000000000000000000000000000000000000000811690308214610348575f80516020614f1d83398151915291818354160361034857610f7f613528565b5f80516020614edd8339815191525460ff1615610fa25750505061001890614a68565b6020600491604051928380926352d1902d60e01b825288165afa5f9181610fdb575b50610fcd575f80fd5b036103485761001891614a2a565b610ff591925060203d602011610d0157610cf2818361055e565b905f610fc4565b6001600160a01b03165f90815261086d6020526040902090565b5f5261087260205260405f2090565b5f5261086e60205260405f2090565b346103485760403660031901126103485760043561105181610398565b60018060a01b03165f5261086d60205260405f206024355f52602052602060ff60405f2054166040519015158152f35b6001600160a01b03169052565b34610348575f36600319011261034857610869546040516001600160a01b039091168152602090f35b34610348575f366003190112610348577f00000000000000000000000000000000000000000000000000000000000000006001600160a01b031630036103485760206040515f80516020614f1d8339815191528152f35b6101203660031901126103485760043561112781610398565b6024359061113482610398565b6044359161114183610398565b6111496103ea565b60c435916111568361044d565b60e4356001600160401b0381116103485761117590369060040161067d565b9361117e6130e1565b60ff61086b5460e81c16610348576108429560843592606435926131c2565b34610348575f36600319011261034857602060405163ffffffff7f0000000000000000000000000000000000000000000000000000000000000000168152f35b346103485760c0366003190112610348576004356111fa81610398565b602435906112078261044d565b60443560643561121681610398565b6001600160401b039160843583811161034857611237903690600401610d9d565b93909460a435918211610348576112d963ffffffff7fc19b1460629d39e4a7dc4df644c1a86cfe962988a6ef2d60fbf4c8ef2373957d9661127f6112eb953690600401610d9d565b93909961128a6130e1565b6112b18c8c8b8b6112a861129f368a89610647565b938b3691610647565b9346908c613ca6565b60018060a01b0392836040519a8b9a8b521660208a0152608060408a01526080890191612912565b93868503606088015216981696612912565b0390a36001606555005b34610348576102003660031901126103485761130f6103a9565b6113176103b8565b906113206103c5565b916113296103d2565b9261133261041a565b9361133b61042b565b61134361043c565b61134b610492565b6001600160401b0397909290610184358981116103485761137090369060040161067d565b946101a4358a81116103485761138a90369060040161067d565b966101c4359a8b11610348576113a76100189b369060040161067d565b986101e4359a60e4359360c4359360a435936084359361299a565b34610348575f36600319011261034857602060ff61086b5460e81c166040519015158152f35b90816101809103126103485790565b34610348576040366003190112610348576004356001600160401b038111610348576114279036906004016113e8565b61142f6130e1565b60ff61086b5460e01c166103485761144960408201612a8c565b6001600160a01b0316331415806114fc575b6114ea576114e0906114cc6114786114733684612aa0565b613e3f565b9160c06114c561148a60208401612a8c565b611498610160850185612b7f565b9390946114a3610581565b976114ae3683612aa0565b895260208901520135604087015260608601612688565b3691610647565b608082015260243560a08201523390613f7b565b6100186001606555565b604051630c3a9b9d60e41b8152600490fd5b5061150a6101408201612a96565b63ffffffff429116101561145b565b346103485760c0366003190112610348576001600160401b036004358181116103485761154a9036906004016113e8565b6064359061155782610398565b6084358381116103485761156f903690600401610d9d565b9060a4359485116103485761158b610018953690600401610d9d565b9490936044359060243590612bb1565b34610348576020366003190112610348577fe88463c2f254e2b070013a2dc7ee1e099f9bc00534cbdf03af551dc26ae4921960206004356115db81610b11565b6115e3613528565b6115eb6130e1565b61086b805460ff60e81b191691151560e881901b60ff60e81b16929092179055604051908152a16001606555005b346103485760c03660031901126103485760043561163681610398565b602435908160070b820361034857604435916116518361044d565b60643561165d81610398565b6001600160401b03936084358581116103485761167e90369060040161067d565b9260a4359586116103485761169a61001896369060040161067d565b94612caa565b34610348575f3660031901126103485760206040515f80516020614f9d8339815191528152f35b34610348576020366003190112610348576004356116e3613528565b6116eb6130e1565b6116f4816121c3565b61172c576001815f80935501557f3569b846531b754c99cb80df3f49cd72fa6fe106aaee5ab8e0caf35a9d7ce88d5f80a26001606555005b634e487b7160e01b5f525f60045260245ffd5b346103485760603660031901126103485760043561175c8161044d565b6024359061176982610398565b6044359061177682610398565b60ff5f5460081c16156103485761178c906128ec565b6040519161179983610528565b6009835260208301906820a1a927a9a996ab1960b91b825260206040516117bf81610528565b6005815201640312e302e360dc1b815260ff5f5460081c1615610348576005610b0c936100189651902091209061047f55610480556117fc6144a0565b6118046144af565b6144c3565b346103485760803660031901126103485760043561182681610398565b61188b6024356118358161044d565b60443561184181610398565b6064359161184e83610398565b5f549461187160ff8760081c161580978198611905575b81156118e557506123b8565b85611882600160ff195f5416175f55565b6118ce57612d55565b61189157005b61189f61ff00195f54165f55565b604051600181527f7f26b83ff96e1f2b6a682f133852f6798a09c465da95921460cefb384740249890602090a1005b6118e061010061ff00195f5416175f55565b612d55565b303b159150816118f7575b505f610956565b6001915060ff16145f6118f0565b600160ff8216109150611865565b34610348576020366003190112610348577f2d5b62420992e5a4afce0e77742636ca2608ef58289fd2e1baa5161ef6e7e41e602060043561195381610b11565b61195b613528565b6119636130e1565b61086b805460ff60e01b191691151560e081901b60ff60e01b16929092179055604051908152a16001606555005b34610348575f366003190112610348576020604051468152f35b34610348575f36600319011261034857602063ffffffff61086b5460c01c16604051908152f35b34610348575f3660031901126103485760206040515f80516020614f7d8339815191528152f35b34610348575f3660031901126103485760206040515f8152f35b9181601f84011215610348578235916001600160401b038311610348576020808501948460051b01011161034857565b5f5b838110611a545750505f910152565b8181015183820152602001611a45565b90602091611a7d81518092818552858086019101611a43565b601f01601f1916010190565b6020808201906020835283518092526040830192602060408460051b8301019501935f915b848310611abe5750505050505090565b9091929394958480611adc600193603f198682030187528a51611a64565b9801930193019194939290611aae565b3461034857602036600319011261034857600480356001600160401b03811161034857611b1d903690600401611a13565b91611b2783612de2565b925f5b818110611b435760405180611b3f8782611a89565b0390f35b5f80611b50838588612e2b565b90611b6060405180938193612e46565b0390305af4611b6d6123bf565b9015611b935790600191611b818288612eb1565b52611b8c8187612eb1565b5001611b2a565b806044859251106103485761034891810151602480918301019101612e53565b60e036600319011261034857600435611bcb81610398565b60243590611bd882610398565b611be061040a565b9060a4356001600160401b03811161034857611c0090369060040161067d565b91611c096130e1565b60ff61086b5460e81c16610348576108429363ffffffff4216926064359160443591336131c2565b34610348575f366003190112610348576040516b1d6329f1c35ca4bfabb9f56160281b8152602090f35b34610348576020366003190112610348576004355f52610872602052602060405f2054604051908152f35b6003196060368201126103485760043590611ca08261044d565b602435906001600160401b0380831161034857610100836004019284360301126103485760443590811161034857611cdc903690600401611a13565b9190611ce66130e1565b6084840190611cfc611cf783612a8c565b6130f2565b602485013593468503611e5057611d3f91611d3b91611d356001611d1f8b6121c3565b50015492611d2d3689612ec5565b9236916106b2565b91614556565b1590565b611e3e576064840191611d5183612a96565b611d5b90876133fa565b80359060448601611d6c8183612f75565b9190611d7787612a96565b611d8087612a8c565b60a48b0194611d8f8688612f75565b9490913690611d9d926106b2565b933690611da992610991565b91611db593888c61344f565b611dbf9083612f75565b95611dc990612a96565b94611dd390612a8c565b91611dde9084612f75565b909360e48a01611ded91612b7f565b94909363ffffffff98896040519a8b9a169d169b60c4013594611e10988a612faa565b037f168b5e636f384f487d11ee278507b1ff985b7dc751a0fb6ef7ad1432e8dec1da91a46100186001606555565b60405163582f497d60e11b8152600490fd5b604051633d23e4d160e11b8152600490fd5b34610348575f36600319011261034857602060ff61086b5460e01c166040519015158152f35b34610348575f366003190112610348576040516a0c097ce7bc90715b34b9f160241b8152602090f35b3461034857602036600319011261034857610842600435611ed181610398565b611ed9613528565b6118046130e1565b3461034857602036600319011261034857610018600435611f0181610398565b611f09613528565b61450b565b34610348575f3660031901126103485761086a546040516001600160a01b039091168152602090f35b34610348576020366003190112610348576004356001600160401b03811161034857611f679036906004016113e8565b611f6f6130e1565b60ff61086b5460e01c1661034857610120810190611f8c82612a96565b63ffffffff90814291161061209c57611fa86114733684612aa0565b90611fb282611016565b5461208b57611fea611fe47fe4b7a167221330bacd6975b417a1f4cb0b64a529213adee334653b69556ed95793611016565b60019055565b611ff660608401612a8c565b9361207e61200660808601612a8c565b9461201d6120176101008301612a96565b93612a96565b9061202b6101408201612a96565b61203760408301612a8c565b61204083612a8c565b9061204d60208501612a8c565b9261205c610160860186612b7f565b9690956040519a8b9a169d60e08201359d60a060c0840135930135918c613077565b0390a36100186001606555565b604051624be79160e21b8152600490fd5b60405163d642b7d960e01b8152600490fd5b3461034857600319606036820112610348576004356001600160401b038082116103485760608236039384011261034857602435906120ec8261044d565b60443590811161034857612104903690600401611a13565b91909361210f6130e1565b6004840135906101821901811215610348576114e0946121aa9361213c6121a39360043691890101612aa0565b9561214d611cf7608089015161038c565b61219161215988613e3f565b91604461216960208b015161038c565b916101608b015194612179610581565b9b8c5260208c0152013560408a015260608901612688565b60808701525f60a087015236916106b2565b90836145f9565b614216565b634e487b7160e01b5f52603260045260245ffd5b61086c80548210156121df575f52600360205f20910201905f90565b6121af565b346103485760203660031901126103485760043561086c548110156103485761220e6040916121c3565b506001815491015482519182526020820152f35b6101003660031901126103485760043561223b81610398565b60243561224781610398565b60443561225381610398565b61225b6103ea565b60c4356001600160401b0381116103485761227a90369060040161067d565b926122836130e1565b60ff61086b5460e81c16610348576108429463ffffffff42169360843592606435926131c2565b9a98959391999694929097996122be6130e1565b6122c7816130f2565b6122cf6105a0565b9b6122da908d612688565b6122e78960208e01612688565b6122f49060408d01612688565b60608b015260808a01524660a08a015260070b60c089015260070b60e088015263ffffffff16610100878101919091526101209180838901526123356105a0565b97885260208801945f8652604089015f9052606089019061235591612688565b60808801525f60a08801526b1d6329f1c35ca4bfabb9f56160281b60c08801525f1960e088015260019087015285015283516123909061362a565b905261239c9183614689565b6123a5816136bb565b6123ae91613b30565b6103b66001606555565b1561034857565b3d156123e9573d906123d08261062c565b916123de604051938461055e565b82523d5f602084013e565b606090565b91906123f86130e1565b60808101612409611cf7825161038c565b602082019283514603611e5057611d3b61243191846001612429896121c3565b500154613369565b611e3e577fef58a0c572350b3e7cd0a4cb92368d9b834017a49338338f295d1a3e0535dcf490606083019061247361246d835163ffffffff1690565b876133fa565b6124e38551946124c96124c28251926124b260408201998a5161249a8a5163ffffffff1690565b6124a48a5161038c565b9160a086019889519461344f565b5198519751955163ffffffff1690565b935161038c565b90519063ffffffff9485604051968796169a16988561255f565b0390a46103b66001606555565b9081518082526020808093019301915f5b82811061250f575050505090565b835185529381019392810192600101612501565b9081518082526020808093019301915f5b828110612542575050505090565b83516001600160a01b031685529381019392810192600101612534565b90610698949261257c9183526080602084015260808301906124f0565b6001600160a01b039093166040820152808303606090910152612523565b9a9692909897999395916125ac6130e1565b60ff61086b5460e01c16610348576125c26105a0565b9b6125cd908d612688565b6125da8a60208e01612688565b6125e79060408d01612688565b60608b015260808a01524660a08a015260070b60c0890152600787900b60e08901526101009485890190612620919063ffffffff169052565b6101209581878a01526126316105a0565b9889525f60208a0190815260079890980b60408a01526126549060608a01612688565b608088015260a087015260c086015260e085015283015f905282015f9052815161267d9061362a565b90526123a5816136bb565b6001600160a01b039091169052565b979b95999196939b9a949890929a6126ad6130e1565b61086b9960ff8b5460e81c16610348576126e4611d3b6126dd8e6126d08d610ffc565b905f5260205260405f2090565b5460ff1690565b6128875763ffffffff9d8e6126fb818516426128ad565b907f00000000000000000000000000000000000000000000000000000000000000001610612875578e612750817f000000000000000000000000000000000000000000000000000000000000000016426128bf565b90851611612863576001600160a01b039b7f00000000000000000000000000000000000000000000000000000000000000008d16828c8f168083148061285a575b156128475750340361283557803b15610348575f60049160405192838092630d0e30db60e41b825234905af1801561283057612817575b505b5460c01c63ffffffff169e8f6127df906128d7565b6127e8906128ec565b6040519c8d9c169f169d6127fc9a8c612932565b035f80516020614f3d83398151915291a46103b66001606555565b8061282461282a926104bf565b8061033e565b5f6127c8565b6128cc565b604051636452a35d60e01b8152600490fd5b612855925030903390613c5f565b6127ca565b50341515612791565b60405163582e388960e01b8152600490fd5b60405163f722177f60e01b8152600490fd5b604051632a58c4f360e01b8152600490fd5b634e487b7160e01b5f52601160045260245ffd5b919082039182116128ba57565b612899565b919082018092116128ba57565b6040513d5f823e3d90fd5b63ffffffff8091169081146128ba5760010190565b61086b805463ffffffff60c01b191660c09290921b63ffffffff60c01b16919091179055565b908060209392818452848401375f828201840152601f01601f1916010190565b6001600160a01b03918216815291811660208301526040820192909252606081019290925263ffffffff928316608083015292821660a0820152921660c083015291821660e08201529116610100820152610140610120820181905261069893910191612912565b9d9c9b959e93909698929a97919a6129b06130e1565b60ff61086b5460e01c16610348578e976129c86105a0565b986129d3908a612688565b6129e09060208a01612688565b6129ed9060408901612688565b6060870152608086018890524660a087015260070b60c086015260070b60e085015263ffffffff851661010085810191909152916101209384860152612a316105a0565b9485525f60208601908152600789900b6040870152949c898e60600190612a5791612688565b8d8b608082015260a0015260c08d015260e08c01528a015f905289015f90528851612a819061362a565b905261239c96613d15565b3561069881610398565b356106988161044d565b91906101808382031261034857612ab56105c0565b92612abf816103df565b8452612acd602082016103df565b6020850152612ade604082016103df565b6040850152612aef606082016103df565b6060850152612b00608082016103df565b608085015260a081013560a085015260c081013560c085015260e081013560e0850152610100612b318183016104a0565b90850152610120612b438183016104a0565b90850152610140612b558183016104a0565b9085015261016091818301356001600160401b03811161034857612b79920161067d565b90830152565b903590601e198136030182121561034857018035906001600160401b0382116103485760200191813603831361034857565b9490969395612bbe6130e1565b60ff61086b5460e01c1661034857612bd860408701612a8c565b6001600160a01b031633141580612c8d575b6114ea57612bf83687612aa0565b612c0190613e3f565b97612c0a610581565b98612c153689612aa0565b8a5260208a015260408901849052612c308560608b01612688565b612c3b36848a610647565b60808a015260a0890152612c4e86612a8c565b96612c5c6101008801612a96565b923690612c6892610647565b943690612c7492610647565b9460e0013590612c8396613ca6565b336123ae91613f7b565b50612c9b6101408701612a96565b63ffffffff4291161015612bea565b9092919493612cb76130e1565b8360070b916706f05b59d3b20000612cce84614491565b10156103485763ffffffff82612d0e88612d4b95887fa6aa57bd282fc82378458de27be4eadfa791a0c7321c49562eeba8b2643dd5669a8d469089613d15565b612d3960018060a01b0391826040519889988952166020880152608060408801526080870190611a64565b92858403606087015216971695611a64565b0390a36001606555565b91929060ff5f5460081c161561034857612d6e906128ec565b60405190612d7b82610528565b60098252602082016820a1a927a9a996ab1960b91b81526020604051612da081610528565b600581520194640312e302e360dc1b865260ff5f5460081c1615610348576103b6956005610b0c93611f099651902091209061047f55610480556117fc6144a0565b90612dec8261069b565b612df9604051918261055e565b8281528092612e0a601f199161069b565b01905f5b828110612e1a57505050565b806060602080938501015201612e0e565b908210156121df57612e429160051b810190612b7f565b9091565b908092918237015f815290565b602081830312610348578051906001600160401b038211610348570181601f82011215610348578051612e858161062c565b92612e93604051948561055e565b81845260208284010111610348576106989160208085019101611a43565b80518210156121df5760209160051b010190565b9190916101008184031261034857612edb6105e0565b8135815260208083013590820152926001600160401b0360408301358181116103485782612f0a918501610700565b6040860152612f1b606084016104a0565b6060860152612f2c608084016103df565b608086015260a08301358181116103485782612f499185016109e9565b60a086015260c083013560c086015260e083013590811161034857612f6e920161067d565b60e0830152565b903590601e198136030182121561034857018035906001600160401b03821161034857602001918160051b3603831361034857565b94979592909998969399855260209160c060208701528160c087015260018060fb1b038211610348576101009160059493941b809160e08801376001600160a01b039a8b166040870152850185810360e0908101606088015281018390520196915f5b8281106130305750505050610698959650608082015260a0818503910152612912565b9091929782806001928d8c3561304581610398565b1681520199019392910161300d565b634e487b7160e01b5f52602160045260245ffd5b6003111561307257565b613054565b6001600160a01b03918216815291811660208301526040820192909252606081019290925263ffffffff92831660808301529290911660a082015291811660c083015291821660e08201529116610100820152610140610120820181905261069893910191612912565b600260655414610348576002606555565b6001600160a01b037f0000000000000000000000000000000000000000000000000000000000000000811691168114613129575b50565b476131315750565b4790803b15610348575f90600460405180948193630d0e30db60e41b83525af180156128305715613126576103b6906104bf565b929361069896959192946101409560018060a01b0380951686525f60208701526040860152606085015263ffffffff809116608085015260a08401525f60c08401521660e08201525f610100820152816101208201520190611a64565b91959693949290926131e26131dd6126dd886126d08b610ffc565b6123b8565b60070b936132016706f05b59d3b200006131fb87614491565b106123b8565b61321b6a0c097ce7bc90715b34b9f160241b8311156123b8565b63ffffffff9361325a613230868b16426128ad565b867f00000000000000000000000000000000000000000000000000000000000000001610156123b8565b61086b5460c01c63ffffffff16986132796132748b6128d7565b6128ec565b6001600160a01b03957f00000000000000000000000000000000000000000000000000000000000000008716948a881680871480613360575b1561333657506132c38134146123b8565b853b15610348575f60049660405197888092630d0e30db60e41b825234905af18015612830575f80516020614f3d8339815191529961331e9761330d92613323575b505b82614707565b91604051988998169c169a87613165565b0390a4565b80612824613330926104bf565b5f613305565b61331e96505f80516020614f3d8339815191529961335b8361330d9330903390613c5f565b613307565b503415156132b2565b61069892916040516133f1816133e3602082019460208652805160408401526020810151606084015260a06133ae604083015160c060808701526101008601906124f0565b606083015163ffffffff168583015260808301515f196001841b011660c0860152910151838203603f190160e0850152612523565b03601f19810183528261055e565b5190209161473d565b6134056002916121c3565b500162ffffff8260081c16805f5281602052600160ff60405f205494161b808094161461343d575f5260205260405f20908154179055565b60405163954476d960e01b8152600490fd5b9294939190938051825103613516578151915f5b8381106134ca57505050508261347a575b50505050565b63ffffffff816134ab7f7c3d4d7fa0beeb997103f1aeca4922365ea469a3e7e88db965a128bbe6a2f63293866147de565b6040519485526001600160a01b0316941692602090a45f808080613474565b806134d760019284612eb1565b51806134e5575b5001613463565b613510906135036134f68488612eb1565b516001600160a01b031690565b848060a01b0389166147a9565b5f6134de565b6040516319a5316760e31b8152600490fd5b60ff610c5a5460a01c161561034857565b6001600160a01b031680156103485761086a80546001600160a01b031916821790557f1f17a88f67b0f49060a34bec1a4723a563620e6aa265eb640b5046dcee0759a05f80a2565b90816020910312610348575190565b61069891610140906135a3818451611081565b6135b560208401516020830190611081565b6135c760408401516040830190611081565b606083015160608201526080830151608082015260a083015160a08201526135f960c084015160c083019060070b9052565b60e08381015160070b908201526101008381015163ffffffff16908201528161012080940151938201520190611a64565b604051613647816133e36020820194602086526040830190613590565b51902090565b600791820b910b019060016001603f1b0319821260016001603f1b038313176128ba57565b600160ff1b81146128ba575f0390565b6001600160a01b039182168152602081019290925291151560408201529116606082015260a06080820181905261069892910190611a64565b9081519160408101926136fa6706f05b59d3b20000806136ed6136e86136e2895160070b90565b60070b90565b614491565b109081613a4f57506123b8565b606081016137196a0c097ce7bc90715b34b9f160241b825111156123b8565b602083019061373461372b8351611025565b548251116123b8565b60c084019283519661376460c083019861375e6137528b5160070b90565b845160070b5b9061364d565b90614a9c565b976137708915156123b8565b613786845161377f8751611025565b54906128ad565b898110613a45575b506136e26137b5926137586137a76137af945160070b90565b915160070b90565b88614707565b93610120860151806139f3575b505060a08501518786519160a0830151149182156139e5575b505080156139cc575b6137ed906123b8565b6137f78351611025565b6138028882546128bf565b90556060850191613813835161038c565b926001600160a01b03923384861614806139b5575b6139ab579060406138a19201948785613841885161038c565b16917f00000000000000000000000000000000000000000000000000000000000000008716830361396257505050613880611d3b6101008a0151151590565b613943575b61389b8761389661092f845161038c565b614aea565b5161038c565b91823b151580613935575b6138ba575b50505050505050565b6138cc6138d39160809416945161038c565b9451611025565b549051111594015193813b15610348575f8094613908604051978896879586946301d43f2760e31b8652339260048701613682565b03925af1801561283057613922575b8080808080806138b1565b8061282461392f926104bf565b5f613917565b5060808701515115156138ac565b61395d8761395461092f885161038c565b30903390613c5f565b613885565b613973611d3b6101008d0151151590565b156139a2575061399d915061398b61092f885161038c565b613995845161038c565b903390613c5f565b61389b565b61399d926147a9565b5050505050505050565b506139c7611d3b6101008a0151151590565b613828565b506137ed6139de610100870151151590565b90506137e4565b60600151149050875f6137db565b613a3e9195613a2e613a3492613a14670de0b6b3a763ffff198212156123b8565b613a2968056bc75e2d631000008213156123b8565b613672565b90614707565b94518511156123b8565b5f806137c2565b98506136e261378e565b9050613a656136e86136e260c086015160070b90565b105f610956565b9060018060a01b038251168152608080613a95602085015160a0602086015260a0850190611a64565b93604081015160070b6040850152606081015115156060850152015191015290565b9a97936106989c9a95919793613b219a979360208e6101809b8152015260408d015260608c015260808b015260070b60a08a015260070b60c089015260018060a01b03928380921660e08a0152166101008801521661012086015280610140860152840190611a64565b91610160818403910152613a6c565b906040820151613b409060070b90565b916060810151613b4f9061038c565b906080810151936101009485830151613b6790151590565b610120928385015192613b78610600565b96613b839088612688565b602087015260070b60408601521515606085015260808401528151606001516020830151613bb090611025565b549360a084015193519460808601519560a08101519160e0820151613bd59060070b90565b60c083015160070b9a83015163ffffffff169a6040840151613bf69061038c565b918451613c029061038c565b986020860151613c119061038c565b950151956040519a8b9a600160a01b60019003169e63ffffffff169d3396613c399b8d613ab7565b037f8ab9dc6c19fe88e69bc70221b339c84332752fdd49591b7c51e66bae3947b73c91a4565b6040516323b872dd60e01b60208201526001600160a01b0392831660248201529290911660448301526064808301939093529181526103b691613ca1826104f2565b614bab565b9392613d0f936103b6979660208151910120906040519263ffffffff60208501955f80516020614f9d8339815191528752166040850152856060850152608084015260018060a01b031660a083015260c082015260c08152613d0781610543565b519020614c3a565b90614cad565b9392613d0f936103b6979660208151910120906040519263ffffffff60208501955f80516020614f7d833981519152875216604085015285606085015260070b608084015260018060a01b031660a083015260c082015260c08152613d0781610543565b6106989161018090613d8c818451611081565b613d9e60208401516020830190611081565b613db060408401516040830190611081565b613dc260608401516060830190611081565b613dd460808401516080830190611081565b60a083015160a082015260c083015160c082015260e083015160e0820152613e0a610100808501519083019063ffffffff169052565b6101208381015163ffffffff16908201526101408381015163ffffffff16908201528161016080940151938201520190611a64565b60405161364781613e5c6020820194604086526060830190613d79565b46604083015203601f19810183528261055e565b613e7982613068565b52565b9060018060a01b038251168152606080613ea56020850151608060208601526080850190611a64565b9360408101516040850152015191613ebc83613068565b015290565b9a97909695613f30966106989d9b9660808e613f2598613f3f9e986101809d60018060a01b03998a80921685521660208401526040830152606082015201528c60a063ffffffff8094169101521660c08c01521660e08a0152610100890190611081565b610120870190611081565b80610140860152840190611a64565b91610160818403910152613e7c565b90610698949360809360018060a01b03809316845260208401521660408201528160608201520190611a64565b805191610120830190613f92825163ffffffff1690565b63ffffffff4291161061209c5760208301516001613faf82611016565b540361420f576001905b6002613fc482611016565b54146141fd57613fd390611016565b600290556060850151613fe59061038c565b6080860151613ff39061038c565b9260a0870151918660c0890151948960a08301519660e0820151976101008301516140219063ffffffff1690565b9a5163ffffffff1661014084015163ffffffff169060408501516140449061038c565b9285516140509061038c565b94602087015161405f9061038c565b9661016001519760608a01516140749061038c565b99608081015190604001519061408861060d565b9b614093908d612688565b60208c015260408b01526140aa9060608b01613e70565b6040516001600160a01b03909b169e63ffffffff169d9a9b8c9b6140ce9b8d613ec1565b035f80516020614efd83398151915291a460608101516140ed9061038c565b6001600160a01b03811692338414806141f5575b61347457608061411291015161038c565b6040830151909390926080906001600160a01b0380871690869086907f00000000000000000000000000000000000000000000000000000000000000001683036141e557506141649130903390613c5f565b61416e8584614aea565b0151913b1515806141db575b6141845750505050565b803b15610348576141b1935f80946040519687958694859363d49cdc7960e01b8552339160048601613f4e565b03925af18015612830576141c8575b808080613474565b806128246141d5926104bf565b5f6141c0565b508151151561417a565b6141f0923390613c5f565b61416e565b506001614101565b604051630479306360e51b8152600490fd5b5f90613fb9565b905f8251610120810161422d815163ffffffff1690565b63ffffffff4291161061209c576020850151600261424a82611016565b54146141fd5761425990611016565b60029055606082015161426b9061038c565b60808301516142799061038c565b9060a08401519260c0850151918860a0810151938760e0810151956101008201516142a79063ffffffff1690565b955163ffffffff1661014083015163ffffffff1660408401516142c99061038c565b9184516142d59061038c565b9360208601516142e49061038c565b9561016001519660608901516142f99061038c565b98608081015190604001519061430d61060d565b9a614318908c612688565b60208b015260408a0152600260608a01526040519d63ffffffff8f9c169d6143409b8d613ec1565b035f80516020614efd833981519152905f94a460608401516143619061038c565b6001600160a01b0394909185831691903383148061448a575b61448157608061438b91015161038c565b9060408101519687818416917f00000000000000000000000000000000000000000000000000000000000000001682145f1461446a57906080929187614456575b6143d7915085614aea565b0151923b15158061444c575b6143f0575b505050509050565b813b15614448578361441c95966040519687958694859363d49cdc7960e01b8552339160048601613f4e565b03925af1801561283057614435575b80808084936143e8565b80612824614442926104bf565b5f61442b565b8380fd5b50825115156143e3565b6144639130903390613c5f565b5f886143cc565b60809291965061447c90865f986147a9565b6143d7565b50505050509050565b505f61437a565b5f811261449b5790565b5f0390565b60ff5f5460081c161561034857565b60ff5f5460081c1615610348576001606555565b6001600160a01b031680156103485761086980546001600160a01b031916821790557fa9e8c42c9e7fca7f62755189a16b2f5314d43d8fb24e91ba54e6d65f9314e8495f80a2565b610c5a80546001600160a01b039283166001600160a01b03198216811790925591909116907fadbc50c98ab7fb1d3a35b4fc0d37eef0251e0aa6f831f8a3c5f6ed8c1efac8ce5f80a3565b61069892916040516133f1816133e3602082019460208652805160408401526020810151606084015260408101519060e061459f610100938460808801526101408701906124f0565b606083015163ffffffff1660a0870152916145c2608082015160c0880190611081565b6145dd60a082015193603f19948589830301858a0152612523565b9360c08201519087015201519084830301610120850152611a64565b91611d3b9061467292845160408096015191865191614617836104d7565b82526133f161463260208401924684528985019586526121c3565b50549388519283916146576020840196602088525160608d86015260a0850190613d79565b9151606084015251608083015203601f19810183528261055e565b6146795750565b5163582f497d60e11b8152600490fd5b80516101209091015160408051808201959492939092916001600160401b038711848810176104d2576146d16146f2936133f1936123b89984528652602086019687526121c3565b50549481519384926020840196602088525190808501526080840190613590565b9051606083015203601f19810183528261055e565b90670de0b6b3a7640000915f8284039212838312811690848413901516176128ba578181029181830414901517156128ba570490565b929091905f915b8451831015614786576147578386612eb1565b519081811015614775575f52602052600160405f205b920191614744565b905f52602052600160405f2061476d565b915092501490565b6001600160a01b039091168152602081019190915260400190565b613ca16103b693926147d060405194859263a9059cbb60e01b60208501526024840161478e565b03601f19810184528361055e565b906001600160a01b0380821691907f00000000000000000000000000000000000000000000000000000000000000001682036148f25750803b1561034857604051632e1a7d4d60e01b815260048101839052905f908290602490829084905af18015612830576148df575b5061485961092f610c5a5461038c565b9061486661086a5461038c565b90823b156103485760405163cd58657960e01b81525f600482018190526001600160a01b03909316602482015260448101829052606481018390526001608482015260c060a482015260c4810183905292839182908160e481015b03925af18015612830576148d25750565b806128246103b6926104bf565b806128246148ec926104bf565b5f614849565b9061092f61491b9161491585610c5a9261490f61092f855461038c565b90614d7d565b5461038c565b9061492861086a5461038c565b91803b156103485760405163cd58657960e01b81525f600482018190526001600160a01b03948516602483015260448201959095529190921660648201526001608482015260c060a482015260c481018390529190829081838160e481016148c1565b61499481614a68565b6001600160a01b0381165f80516020614f5d8339815191525f80a2815115801590614a23575b6149c2575050565b5f8061312693660819985a5b195960ca1b604080516149e0816104d7565b602781527f416464726573733a206c6f772d6c6576656c2064656c65676174652063616c6c60208201520152602081519101845af4614a1d6123bf565b91614e42565b505f6149ba565b614a3381614a68565b6001600160a01b0381165f80516020614f5d8339815191525f80a2815115801590614a60576149c2575050565b5060016149ba565b803b15610348575f80516020614f1d83398151915280546001600160a01b0319166001600160a01b03909216919091179055565b670de0b6b3a76400009181830291838304036128ba5760070b808303925f8212818512811690828613901516176128ba5714614ad6570490565b634e487b7160e01b5f52601260045260245ffd5b6001600160a01b0390811690813b15614b2a57906103b692917f0000000000000000000000000000000000000000000000000000000000000000166147a9565b7f000000000000000000000000000000000000000000000000000000000000000016803b15610348575f8091602460405180948193632e1a7d4d60e01b83528860048401525af1801561283057614b9c575b50814710610348575f80809381935af1614b946123bf565b501561034857565b614ba5906104bf565b5f614b7c565b905f80614c019360018060a01b0316927f5361666545524332303a206c6f772d6c6576656c2063616c6c206661696c65646020604051614bea81610528565b818152015260208151910182855af1614a1d6123bf565b8051908115918215614c17575b50501561034857565b81925090602091810103126103485760200151614c3381610b11565b5f80614c0e565b60429161047f549061048054906040519160208301937fc2f8787176b8ac6bf7215b4adcc1e069bf4ab82d9ab1df05a57a91d425935b6e855260408401526060830152608082015260808152614c8f816104f2565b519020906040519161190160f01b8352600283015260228201522090565b9190614cb98282614e11565b9390926005851015613072576103b694159384614d67575b508315614ce1575b5050506123b8565b5f929350908291604051614d19816133e36020820194630b135d3f60e11b998a87526024840152604060448401526064830190611a64565b51915afa90614d266123bf565b82614d59575b82614d3c575b50505f8080614cd9565b614d5191925060208082518301019101613581565b145f80614d32565b915060208251101591614d2c565b6001600160a01b0383811691161493505f614cd1565b604051636eb1769f60e11b81523060048201526001600160a01b038084166024830152929390926020908490604490829086165afa928315612830575f93614df0575b5082018092116128ba57613ca16103b6936147d060405194859263095ea7b360e01b60208501526024840161478e565b614e0a91935060203d602011610d0157610cf2818361055e565b915f614dc0565b9060418151145f14614e3957612e4291602082015190606060408401519301515f1a90614e6b565b50505f90600290565b9015614e5c57815115614e53575090565b3b156103485790565b50805190811561034857602001fd5b6fa2a8918ca85bafe22016d0b997e4df60600160ff1b038411614ed1576020935f9360ff60809460405194855216868401526040830152606082015282805260015afa15612830575f516001600160a01b03811615614ec957905f90565b505f90600190565b505050505f9060039056fe4910fdfa16fed3260ed0e7147f7cc6da11a60208b5b9406d12a635614ffd914332cb2beef51cc3e8592639aa435309d1087da595cff201a7640ce5c2187d7197360894a13ba1a3210667c828492db98dca3e2076cc3735a920a3ca505d382bbcc289887301839694cf27e1d254c3b54c9bba4824f29bba3a63c2c138e7e4e181bc7cd75a20ee27fd9adebab32041f755214dbc6bffa90cc0225b39da2e5c2d3b0e058f05b73c62ee68329d2c67c067aaae9a06503cc306378d144d0f0177882b152eb71524aef34d838ab76573c14b1ebfa5e385d9ab29d7cf5398daa2438bd9a264697066735822122018a09642e2eec47817d0f3f500920cc6e70d8231b5eba4bc19b805f2a4875b2264736f6c63430008170033"
}