{
  "address": "0xeC41F75c686e376Ab2a4F18bde263ab5822c4511",
  "abi": [
    {
      "inputs": [
        {
          "internalType": "uint256",
          "name": "index",
          "type": "uint256"
        },
        {
          "components": [
            {
              "internalType": "address",
              "name": "target",
              "type": "address"
            },
            {
              "internalType": "bytes",
              "name": "callData",
              "type": "bytes"
            },
            {
              "internalType": "uint256",
              "name": "value",
              "type": "uint256"
            }
          ],
          "internalType": "struct MulticallHandler.Call[]",
          "name": "calls",
          "type": "tuple[]"
        }
      ],
      "name": "CallReverted",
      "type": "error"
    },
    {
      "inputs": [
        {
          "internalType": "uint256",
          "name": "callDataLength",
          "type": "uint256"
        },
        {
          "internalType": "uint256",
          "name": "offset",
          "type": "uint256"
        }
      ],
      "name": "CalldataTooShort",
      "type": "error"
    },
    {
      "inputs": [
        {
          "internalType": "uint256",
          "name": "index",
          "type": "uint256"
        },
        {
          "components": [
            {
              "internalType": "address",
              "name": "target",
              "type": "address"
            },
            {
              "internalType": "bytes",
              "name": "callData",
              "type": "bytes"
            },
            {
              "internalType": "uint256",
              "name": "value",
              "type": "uint256"
            }
          ],
          "internalType": "struct MulticallHandler.Call[]",
          "name": "calls",
          "type": "tuple[]"
        }
      ],
      "name": "InvalidCall",
      "type": "error"
    },
    {
      "inputs": [],
      "name": "NotSelf",
      "type": "error"
    },
    {
      "inputs": [
        {
          "internalType": "bytes",
          "name": "callData",
          "type": "bytes"
        }
      ],
      "name": "ReplacementCallFailed",
      "type": "error"
    },
    {
      "anonymous": false,
      "inputs": [
        {
          "components": [
            {
              "internalType": "address",
              "name": "target",
              "type": "address"
            },
            {
              "internalType": "bytes",
              "name": "callData",
              "type": "bytes"
            },
            {
              "internalType": "uint256",
              "name": "value",
              "type": "uint256"
            }
          ],
          "indexed": false,
          "internalType": "struct MulticallHandler.Call[]",
          "name": "calls",
          "type": "tuple[]"
        },
        {
          "indexed": true,
          "internalType": "address",
          "name": "fallbackRecipient",
          "type": "address"
        }
      ],
      "name": "CallsFailed",
      "type": "event"
    },
    {
      "anonymous": false,
      "inputs": [
        {
          "indexed": true,
          "internalType": "address",
          "name": "recipient",
          "type": "address"
        },
        {
          "indexed": true,
          "internalType": "address",
          "name": "token",
          "type": "address"
        },
        {
          "indexed": true,
          "internalType": "uint256",
          "name": "amount",
          "type": "uint256"
        }
      ],
      "name": "DrainedTokens",
      "type": "event"
    },
    {
      "inputs": [
        {
          "components": [
            {
              "internalType": "address",
              "name": "target",
              "type": "address"
            },
            {
              "internalType": "bytes",
              "name": "callData",
              "type": "bytes"
            },
            {
              "internalType": "uint256",
              "name": "value",
              "type": "uint256"
            }
          ],
          "internalType": "struct MulticallHandler.Call[]",
          "name": "calls",
          "type": "tuple[]"
        }
      ],
      "name": "attemptCalls",
      "outputs": [],
      "stateMutability": "nonpayable",
      "type": "function"
    },
    {
      "inputs": [
        {
          "internalType": "address",
          "name": "token",
          "type": "address"
        },
        {
          "internalType": "address payable",
          "name": "destination",
          "type": "address"
        }
      ],
      "name": "drainLeftoverTokens",
      "outputs": [],
      "stateMutability": "nonpayable",
      "type": "function"
    },
    {
      "inputs": [
        {
          "internalType": "address",
          "name": "token",
          "type": "address"
        },
        {
          "internalType": "uint256",
          "name": "",
          "type": "uint256"
        },
        {
          "internalType": "address",
          "name": "",
          "type": "address"
        },
        {
          "internalType": "bytes",
          "name": "message",
          "type": "bytes"
        }
      ],
      "name": "handleV3AcrossMessage",
      "outputs": [],
      "stateMutability": "nonpayable",
      "type": "function"
    },
    {
      "inputs": [
        {
          "internalType": "address",
          "name": "target",
          "type": "address"
        },
        {
          "internalType": "bytes",
          "name": "callData",
          "type": "bytes"
        },
        {
          "internalType": "uint256",
          "name": "value",
          "type": "uint256"
        },
        {
          "components": [
            {
              "internalType": "address",
              "name": "token",
              "type": "address"
            },
            {
              "internalType": "uint256",
              "name": "offset",
              "type": "uint256"
            }
          ],
          "internalType": "struct MulticallHandler.Replacement[]",
          "name": "replacement",
          "type": "tuple[]"
        }
      ],
      "name": "makeCallWithBalance",
      "outputs": [],
      "stateMutability": "nonpayable",
      "type": "function"
    },
    {
      "stateMutability": "payable",
      "type": "receive"
    }
  ],
  "transactionHash": "0xabb9995498569a98b72278608f9c138021eda73cfbfc133f1da3503d12430aa1",
  "args": [],
  "numDeployments": 1,
  "solcInputHash": "6980606c5b3f8e92902b971447683d9e",
  "bytecode": "0x6080806040523460195760015f55610e9c908161001e8239f35b5f80fdfe6080604052600436101561001a575b3615610018575f80fd5b005b5f3560e01c80633a5be8cb146105b3578063a58d50d31461033b578063c41e8295146100b65763ef8738d30361000e57346100b25760407ffffffffffffffffffffffffffffffffffffffffffffffffffffffffffffffffc3601126100b25761008161062f565b60243573ffffffffffffffffffffffffffffffffffffffff811681036100b257610018916100ad610e0a565b610c1f565b5f80fd5b346100b25760807ffffffffffffffffffffffffffffffffffffffffffffffffffffffffffffffffc3601126100b2576100ed61062f565b60243567ffffffffffffffff81116100b25761010d903690600401610739565b906064359067ffffffffffffffff82116100b257366023830112156100b257816004013567ffffffffffffffff81116100b2576024830192602436918360061b0101116100b25761015c610e0a565b604435925f5b8281106101ca57855f80878784519160208601915af16101806108a4565b501561018857005b6101c6906040519182917fb3beda730000000000000000000000000000000000000000000000000000000083526020600484015260248301906107b8565b0390fd5b73ffffffffffffffffffffffffffffffffffffffff6101f26101ed838686610bee565b610bfe565b1615610332576024602073ffffffffffffffffffffffffffffffffffffffff61021f6101ed858888610bee565b16604051928380927f70a082310000000000000000000000000000000000000000000000000000000082523060048301525afa908115610327575f916102f6575b505b602061026f838686610bee565b0135602081018082116102c957885180821161029b575050870160200180519091179052600101610162565b7f4d3ae48d000000000000000000000000000000000000000000000000000000005f5260045260245260445ffd5b7f4e487b71000000000000000000000000000000000000000000000000000000005f52601160045260245ffd5b90506020813d821161031f575b81610310602093836106be565b810103126100b2575187610260565b3d9150610303565b6040513d5f823e3d90fd5b47945084610262565b346100b25760207ffffffffffffffffffffffffffffffffffffffffffffffffffffffffffffffffc3601126100b25760043567ffffffffffffffff81116100b257366023820112156100b25780600401356103958161077f565b916103a360405193846106be565b8183526024602084019260051b820101903682116100b25760248101925b82841061050157846103d1610e0a565b80515f5b8181106103de57005b82518110156104d45760208160051b8401015160208101908151511515806104b4575b61047f575f9181604073ffffffffffffffffffffffffffffffffffffffff85945116910151915191602083519301915af161043a6108a4565b5015610448576001016103d5565b90506101c66040519283927fe462c44000000000000000000000000000000000000000000000000000000000845260048401610bd4565b6040517fe237730c000000000000000000000000000000000000000000000000000000008152806101c6878660048401610bd4565b5073ffffffffffffffffffffffffffffffffffffffff8151163b15610401565b7f4e487b71000000000000000000000000000000000000000000000000000000005f52603260045260245ffd5b833567ffffffffffffffff81116100b257820160607fffffffffffffffffffffffffffffffffffffffffffffffffffffffffffffffdc82360301126100b2576040519161054d83610675565b602482013573ffffffffffffffffffffffffffffffffffffffff811681036100b257835260448201359267ffffffffffffffff84116100b25760646020949361059d869560243691840101610739565b85840152013560408201528152019301926103c1565b346100b25760807ffffffffffffffffffffffffffffffffffffffffffffffffffffffffffffffffc3601126100b2576105ea61062f565b6105f2610652565b5060643567ffffffffffffffff81116100b257610613903690600401610739565b60025f54146100b2576106299160025f556108d3565b60015f55005b6004359073ffffffffffffffffffffffffffffffffffffffff821682036100b257565b6044359073ffffffffffffffffffffffffffffffffffffffff821682036100b257565b6060810190811067ffffffffffffffff82111761069157604052565b7f4e487b71000000000000000000000000000000000000000000000000000000005f52604160045260245ffd5b90601f7fffffffffffffffffffffffffffffffffffffffffffffffffffffffffffffffe0910116810190811067ffffffffffffffff82111761069157604052565b67ffffffffffffffff811161069157601f017fffffffffffffffffffffffffffffffffffffffffffffffffffffffffffffffe01660200190565b81601f820112156100b257803590610750826106ff565b9261075e60405194856106be565b828452602083830101116100b257815f926020809301838601378301015290565b67ffffffffffffffff81116106915760051b60200190565b519073ffffffffffffffffffffffffffffffffffffffff821682036100b257565b907fffffffffffffffffffffffffffffffffffffffffffffffffffffffffffffffe0601f602080948051918291828752018686015e5f8582860101520116010190565b9080602083519182815201916020808360051b8301019401925f915b83831061082657505050505090565b9091929394602080827fffffffffffffffffffffffffffffffffffffffffffffffffffffffffffffffe0856001950301865288519073ffffffffffffffffffffffffffffffffffffffff825116815260408061088f8585015160608786015260608501906107b8565b93015191015297019301930191939290610817565b3d156108ce573d906108b5826106ff565b916108c360405193846106be565b82523d5f602084013e565b606090565b815182019160208301905f906020818603126100b25760208101519067ffffffffffffffff82116100b257016040818603126100b257604051926040840184811067ffffffffffffffff82111761069157604052602082015167ffffffffffffffff81116100b25760209083010181601f820112156100b2578051966109588861077f565b97610966604051998a6106be565b8089526020808a019160051b840101928484116100b25760208101915b848310610b2157505050505050604061099f9186855201610797565b9373ffffffffffffffffffffffffffffffffffffffff60208401958087521615610ab85750928184610a6f9573ffffffffffffffffffffffffffffffffffffffff9451604051610a5181610a2560208201947fa58d50d30000000000000000000000000000000000000000000000000000000086526020602484015260448301906107fb565b037fffffffffffffffffffffffffffffffffffffffffffffffffffffffffffffffe081018352826106be565b519082305af1610a5f6108a4565b5015610a71575b50511690610c1f565b565b517f5296f22c5d0413b66d0bf45c479c4e2ca5b278634bdbd028b48e49502105f966610aaf84845116926040519182916020835260208301906107fb565b0390a25f610a66565b9350505050303b156100b2575f610b0491604051809381927fa58d50d30000000000000000000000000000000000000000000000000000000083526020600484015260248301906107fb565b038183305af1801561032757610b175750565b5f610a6f916106be565b825167ffffffffffffffff81116100b2578201906060828603126100b25760405190610b4c82610675565b610b5860208401610797565b8252604083015167ffffffffffffffff81116100b2576020908401019188601f840112156100b257825192610b8c846106ff565b94610b9a60405196876106be565b8486528a602086840101116100b2576020955f8787819882606097018386015e830101528584015201516040820152815201920191610983565b604090610beb9392815281602082015201906107fb565b90565b91908110156104d45760061b0190565b3573ffffffffffffffffffffffffffffffffffffffff811681036100b25790565b73ffffffffffffffffffffffffffffffffffffffff168015610dc957604051917f70a08231000000000000000000000000000000000000000000000000000000008352306004840152602083602481855afa928315610327575f93610d95575b5082610c8a57505050565b73ffffffffffffffffffffffffffffffffffffffff16610d386040515f80602083017fa9059cbb00000000000000000000000000000000000000000000000000000000815285602485015287604485015260448452610cea6064856106be565b60405193610cf96040866106be565b602085527f5361666545524332303a206c6f772d6c6576656c2063616c6c206661696c65646020860152519082885af1610d316108a4565b9085610e3b565b8051908115918215610d72575b5050156100b2577f74d3741ef03417659087d2ec6af11dade8713f9b7f592569d60cf1ea0c9a44555f80a4565b81925090602091810103126100b2576020015180151581036100b2575f80610d45565b9092506020813d602011610dc1575b81610db1602093836106be565b810103126100b25751915f610c7f565b3d9150610da4565b50479081610dd5575050565b8147106100b2575f80809373ffffffffffffffffffffffffffffffffffffffff8294165af1610e026108a4565b50156100b257565b303303610e1357565b7f29c3b7ee000000000000000000000000000000000000000000000000000000005f5260045ffd5b91925015610e5757815115610e4e575090565b3b156100b25790565b5080519081156100b257602001fdfea26469706673582212206eabad6743b7fa556c6c73c4beb331280db5408902583e1f0ce57d38ce051a2564736f6c634300081e0033",
  "devdoc": {
    "details": "This contract makes the calls blindly. The contract will send any remaining tokens The caller should ensure that the tokens recieved by the handler are completely consumed.",
    "kind": "dev",
    "methods": {
      "handleV3AcrossMessage(address,uint256,address,bytes)": {
        "details": "This will execute all calls encoded in the msg. The caller is responsible for making sure all tokens are drained from this contract by the end of the series of calls. If not, they can be stolen. A drainLeftoverTokens call can be included as a way to drain any remaining tokens from this contract.",
        "params": {
          "message": "abi encoded array of Call structs, containing a target, callData, and value for each call that the contract should make."
        }
      },
      "makeCallWithBalance(address,bytes,uint256,(address,uint256)[])": {
        "details": "Modifies calldata in-place using OR operations. Target calldata positions must be zeroed out. Cannot handle negative balances, making it incompatible with DEXs requiring negative input amounts. For native balance (token = address(0)), the entire balance is used as call value.",
        "params": {
          "callData": "The calldata to execute, with zero values at replacement positions",
          "replacement": "Array of Replacement structs specifying token addresses and byte offsets for balance injection",
          "target": "The contract address to call",
          "value": "The native token value to send (ignored if native balance replacement is used)"
        }
      }
    },
    "title": "Across Multicall contract that allows a user to specify a series of calls that should be made by the handler via the message field in the deposit.",
    "version": 1
  },
  "userdoc": {
    "kind": "user",
    "methods": {
      "handleV3AcrossMessage(address,uint256,address,bytes)": {
        "notice": "Main entrypoint for the handler called by the SpokePool contract."
      },
      "makeCallWithBalance(address,bytes,uint256,(address,uint256)[])": {
        "notice": "Executes a call while replacing specified calldata offsets with current token/native balances."
      }
    },
    "version": 1
  },
  "storageLayout": {
    "storage": [
      {
        "astId": 4301,
        "contract": "contracts/handlers/MulticallHandler.sol:MulticallHandler",
        "label": "_status",
        "offset": 0,
        "slot": "0",
        "type": "t_uint256"
      }
    ],
    "types": {
      "t_uint256": {
        "encoding": "inplace",
        "label": "uint256",
        "numberOfBytes": "32"
      }
    }
  }
}