{
  "address": "0xe9b0666DFfC176Df6686726CB9aaC78fD83D20d7",
  "abi": [
    {
      "inputs": [
        {
          "internalType": "contract IPermit2",
          "name": "_permit2",
          "type": "address"
        }
      ],
      "stateMutability": "nonpayable",
      "type": "constructor"
    },
    {
      "inputs": [],
      "name": "InvalidMinExpectedInputAmount",
      "type": "error"
    },
    {
      "inputs": [],
      "name": "InvalidMsgValue",
      "type": "error"
    },
    {
      "inputs": [],
      "name": "InvalidNonce",
      "type": "error"
    },
    {
      "inputs": [],
      "name": "InvalidShortString",
      "type": "error"
    },
    {
      "inputs": [],
      "name": "InvalidSignature",
      "type": "error"
    },
    {
      "inputs": [],
      "name": "InvalidSignature",
      "type": "error"
    },
    {
      "inputs": [],
      "name": "MinimumExpectedInputAmount",
      "type": "error"
    },
    {
      "inputs": [
        {
          "internalType": "string",
          "name": "str",
          "type": "string"
        }
      ],
      "name": "StringTooLong",
      "type": "error"
    },
    {
      "anonymous": false,
      "inputs": [],
      "name": "EIP712DomainChanged",
      "type": "event"
    },
    {
      "anonymous": false,
      "inputs": [
        {
          "indexed": false,
          "internalType": "address",
          "name": "exchange",
          "type": "address"
        },
        {
          "indexed": false,
          "internalType": "bytes",
          "name": "exchangeCalldata",
          "type": "bytes"
        },
        {
          "indexed": true,
          "internalType": "address",
          "name": "swapToken",
          "type": "address"
        },
        {
          "indexed": true,
          "internalType": "address",
          "name": "acrossInputToken",
          "type": "address"
        },
        {
          "indexed": false,
          "internalType": "uint256",
          "name": "swapTokenAmount",
          "type": "uint256"
        },
        {
          "indexed": false,
          "internalType": "uint256",
          "name": "acrossInputAmount",
          "type": "uint256"
        },
        {
          "indexed": true,
          "internalType": "bytes32",
          "name": "acrossOutputToken",
          "type": "bytes32"
        },
        {
          "indexed": false,
          "internalType": "uint256",
          "name": "acrossOutputAmount",
          "type": "uint256"
        }
      ],
      "name": "SwapBeforeBridge",
      "type": "event"
    },
    {
      "inputs": [
        {
          "internalType": "address",
          "name": "spokePool",
          "type": "address"
        },
        {
          "internalType": "bytes32",
          "name": "recipient",
          "type": "bytes32"
        },
        {
          "internalType": "address",
          "name": "inputToken",
          "type": "address"
        },
        {
          "internalType": "uint256",
          "name": "inputAmount",
          "type": "uint256"
        },
        {
          "internalType": "bytes32",
          "name": "outputToken",
          "type": "bytes32"
        },
        {
          "internalType": "uint256",
          "name": "outputAmount",
          "type": "uint256"
        },
        {
          "internalType": "uint256",
          "name": "destinationChainId",
          "type": "uint256"
        },
        {
          "internalType": "bytes32",
          "name": "exclusiveRelayer",
          "type": "bytes32"
        },
        {
          "internalType": "uint32",
          "name": "quoteTimestamp",
          "type": "uint32"
        },
        {
          "internalType": "uint32",
          "name": "fillDeadline",
          "type": "uint32"
        },
        {
          "internalType": "uint32",
          "name": "exclusivityParameter",
          "type": "uint32"
        },
        {
          "internalType": "bytes",
          "name": "message",
          "type": "bytes"
        }
      ],
      "name": "depositNative",
      "outputs": [],
      "stateMutability": "payable",
      "type": "function"
    },
    {
      "inputs": [
        {
          "internalType": "address",
          "name": "signatureOwner",
          "type": "address"
        },
        {
          "components": [
            {
              "components": [
                {
                  "internalType": "uint256",
                  "name": "amount",
                  "type": "uint256"
                },
                {
                  "internalType": "address",
                  "name": "recipient",
                  "type": "address"
                }
              ],
              "internalType": "struct SpokePoolPeripheryInterface.Fees",
              "name": "submissionFees",
              "type": "tuple"
            },
            {
              "components": [
                {
                  "internalType": "address",
                  "name": "inputToken",
                  "type": "address"
                },
                {
                  "internalType": "bytes32",
                  "name": "outputToken",
                  "type": "bytes32"
                },
                {
                  "internalType": "uint256",
                  "name": "outputAmount",
                  "type": "uint256"
                },
                {
                  "internalType": "address",
                  "name": "depositor",
                  "type": "address"
                },
                {
                  "internalType": "bytes32",
                  "name": "recipient",
                  "type": "bytes32"
                },
                {
                  "internalType": "uint256",
                  "name": "destinationChainId",
                  "type": "uint256"
                },
                {
                  "internalType": "bytes32",
                  "name": "exclusiveRelayer",
                  "type": "bytes32"
                },
                {
                  "internalType": "uint32",
                  "name": "quoteTimestamp",
                  "type": "uint32"
                },
                {
                  "internalType": "uint32",
                  "name": "fillDeadline",
                  "type": "uint32"
                },
                {
                  "internalType": "uint32",
                  "name": "exclusivityParameter",
                  "type": "uint32"
                },
                {
                  "internalType": "bytes",
                  "name": "message",
                  "type": "bytes"
                }
              ],
              "internalType": "struct SpokePoolPeripheryInterface.BaseDepositData",
              "name": "baseDepositData",
              "type": "tuple"
            },
            {
              "internalType": "uint256",
              "name": "inputAmount",
              "type": "uint256"
            },
            {
              "internalType": "address",
              "name": "spokePool",
              "type": "address"
            },
            {
              "internalType": "uint256",
              "name": "nonce",
              "type": "uint256"
            }
          ],
          "internalType": "struct SpokePoolPeripheryInterface.DepositData",
          "name": "depositData",
          "type": "tuple"
        },
        {
          "internalType": "uint256",
          "name": "validAfter",
          "type": "uint256"
        },
        {
          "internalType": "uint256",
          "name": "validBefore",
          "type": "uint256"
        },
        {
          "internalType": "bytes",
          "name": "receiveWithAuthSignature",
          "type": "bytes"
        },
        {
          "internalType": "bytes",
          "name": "depositDataSignature",
          "type": "bytes"
        }
      ],
      "name": "depositWithAuthorization",
      "outputs": [],
      "stateMutability": "nonpayable",
      "type": "function"
    },
    {
      "inputs": [
        {
          "internalType": "address",
          "name": "signatureOwner",
          "type": "address"
        },
        {
          "components": [
            {
              "components": [
                {
                  "internalType": "uint256",
                  "name": "amount",
                  "type": "uint256"
                },
                {
                  "internalType": "address",
                  "name": "recipient",
                  "type": "address"
                }
              ],
              "internalType": "struct SpokePoolPeripheryInterface.Fees",
              "name": "submissionFees",
              "type": "tuple"
            },
            {
              "components": [
                {
                  "internalType": "address",
                  "name": "inputToken",
                  "type": "address"
                },
                {
                  "internalType": "bytes32",
                  "name": "outputToken",
                  "type": "bytes32"
                },
                {
                  "internalType": "uint256",
                  "name": "outputAmount",
                  "type": "uint256"
                },
                {
                  "internalType": "address",
                  "name": "depositor",
                  "type": "address"
                },
                {
                  "internalType": "bytes32",
                  "name": "recipient",
                  "type": "bytes32"
                },
                {
                  "internalType": "uint256",
                  "name": "destinationChainId",
                  "type": "uint256"
                },
                {
                  "internalType": "bytes32",
                  "name": "exclusiveRelayer",
                  "type": "bytes32"
                },
                {
                  "internalType": "uint32",
                  "name": "quoteTimestamp",
                  "type": "uint32"
                },
                {
                  "internalType": "uint32",
                  "name": "fillDeadline",
                  "type": "uint32"
                },
                {
                  "internalType": "uint32",
                  "name": "exclusivityParameter",
                  "type": "uint32"
                },
                {
                  "internalType": "bytes",
                  "name": "message",
                  "type": "bytes"
                }
              ],
              "internalType": "struct SpokePoolPeripheryInterface.BaseDepositData",
              "name": "baseDepositData",
              "type": "tuple"
            },
            {
              "internalType": "uint256",
              "name": "inputAmount",
              "type": "uint256"
            },
            {
              "internalType": "address",
              "name": "spokePool",
              "type": "address"
            },
            {
              "internalType": "uint256",
              "name": "nonce",
              "type": "uint256"
            }
          ],
          "internalType": "struct SpokePoolPeripheryInterface.DepositData",
          "name": "depositData",
          "type": "tuple"
        },
        {
          "internalType": "uint256",
          "name": "deadline",
          "type": "uint256"
        },
        {
          "internalType": "bytes",
          "name": "permitSignature",
          "type": "bytes"
        },
        {
          "internalType": "bytes",
          "name": "depositDataSignature",
          "type": "bytes"
        }
      ],
      "name": "depositWithPermit",
      "outputs": [],
      "stateMutability": "nonpayable",
      "type": "function"
    },
    {
      "inputs": [
        {
          "internalType": "address",
          "name": "signatureOwner",
          "type": "address"
        },
        {
          "components": [
            {
              "components": [
                {
                  "internalType": "uint256",
                  "name": "amount",
                  "type": "uint256"
                },
                {
                  "internalType": "address",
                  "name": "recipient",
                  "type": "address"
                }
              ],
              "internalType": "struct SpokePoolPeripheryInterface.Fees",
              "name": "submissionFees",
              "type": "tuple"
            },
            {
              "components": [
                {
                  "internalType": "address",
                  "name": "inputToken",
                  "type": "address"
                },
                {
                  "internalType": "bytes32",
                  "name": "outputToken",
                  "type": "bytes32"
                },
                {
                  "internalType": "uint256",
                  "name": "outputAmount",
                  "type": "uint256"
                },
                {
                  "internalType": "address",
                  "name": "depositor",
                  "type": "address"
                },
                {
                  "internalType": "bytes32",
                  "name": "recipient",
                  "type": "bytes32"
                },
                {
                  "internalType": "uint256",
                  "name": "destinationChainId",
                  "type": "uint256"
                },
                {
                  "internalType": "bytes32",
                  "name": "exclusiveRelayer",
                  "type": "bytes32"
                },
                {
                  "internalType": "uint32",
                  "name": "quoteTimestamp",
                  "type": "uint32"
                },
                {
                  "internalType": "uint32",
                  "name": "fillDeadline",
                  "type": "uint32"
                },
                {
                  "internalType": "uint32",
                  "name": "exclusivityParameter",
                  "type": "uint32"
                },
                {
                  "internalType": "bytes",
                  "name": "message",
                  "type": "bytes"
                }
              ],
              "internalType": "struct SpokePoolPeripheryInterface.BaseDepositData",
              "name": "baseDepositData",
              "type": "tuple"
            },
            {
              "internalType": "uint256",
              "name": "inputAmount",
              "type": "uint256"
            },
            {
              "internalType": "address",
              "name": "spokePool",
              "type": "address"
            },
            {
              "internalType": "uint256",
              "name": "nonce",
              "type": "uint256"
            }
          ],
          "internalType": "struct SpokePoolPeripheryInterface.DepositData",
          "name": "depositData",
          "type": "tuple"
        },
        {
          "components": [
            {
              "components": [
                {
                  "internalType": "address",
                  "name": "token",
                  "type": "address"
                },
                {
                  "internalType": "uint256",
                  "name": "amount",
                  "type": "uint256"
                }
              ],
              "internalType": "struct IPermit2.TokenPermissions",
              "name": "permitted",
              "type": "tuple"
            },
            {
              "internalType": "uint256",
              "name": "nonce",
              "type": "uint256"
            },
            {
              "internalType": "uint256",
              "name": "deadline",
              "type": "uint256"
            }
          ],
          "internalType": "struct IPermit2.PermitTransferFrom",
          "name": "permit",
          "type": "tuple"
        },
        {
          "internalType": "bytes",
          "name": "signature",
          "type": "bytes"
        }
      ],
      "name": "depositWithPermit2",
      "outputs": [],
      "stateMutability": "nonpayable",
      "type": "function"
    },
    {
      "inputs": [],
      "name": "domainSeparator",
      "outputs": [
        {
          "internalType": "bytes32",
          "name": "",
          "type": "bytes32"
        }
      ],
      "stateMutability": "view",
      "type": "function"
    },
    {
      "inputs": [],
      "name": "eip712Domain",
      "outputs": [
        {
          "internalType": "bytes1",
          "name": "fields",
          "type": "bytes1"
        },
        {
          "internalType": "string",
          "name": "name",
          "type": "string"
        },
        {
          "internalType": "string",
          "name": "version",
          "type": "string"
        },
        {
          "internalType": "uint256",
          "name": "chainId",
          "type": "uint256"
        },
        {
          "internalType": "address",
          "name": "verifyingContract",
          "type": "address"
        },
        {
          "internalType": "bytes32",
          "name": "salt",
          "type": "bytes32"
        },
        {
          "internalType": "uint256[]",
          "name": "extensions",
          "type": "uint256[]"
        }
      ],
      "stateMutability": "view",
      "type": "function"
    },
    {
      "inputs": [
        {
          "internalType": "bytes[]",
          "name": "data",
          "type": "bytes[]"
        }
      ],
      "name": "multicall",
      "outputs": [
        {
          "internalType": "bytes[]",
          "name": "results",
          "type": "bytes[]"
        }
      ],
      "stateMutability": "nonpayable",
      "type": "function"
    },
    {
      "inputs": [],
      "name": "permit2",
      "outputs": [
        {
          "internalType": "contract IPermit2",
          "name": "",
          "type": "address"
        }
      ],
      "stateMutability": "view",
      "type": "function"
    },
    {
      "inputs": [
        {
          "internalType": "address",
          "name": "",
          "type": "address"
        }
      ],
      "name": "permitNonces",
      "outputs": [
        {
          "internalType": "uint256",
          "name": "",
          "type": "uint256"
        }
      ],
      "stateMutability": "view",
      "type": "function"
    },
    {
      "inputs": [
        {
          "components": [
            {
              "components": [
                {
                  "internalType": "uint256",
                  "name": "amount",
                  "type": "uint256"
                },
                {
                  "internalType": "address",
                  "name": "recipient",
                  "type": "address"
                }
              ],
              "internalType": "struct SpokePoolPeripheryInterface.Fees",
              "name": "submissionFees",
              "type": "tuple"
            },
            {
              "components": [
                {
                  "internalType": "address",
                  "name": "inputToken",
                  "type": "address"
                },
                {
                  "internalType": "bytes32",
                  "name": "outputToken",
                  "type": "bytes32"
                },
                {
                  "internalType": "uint256",
                  "name": "outputAmount",
                  "type": "uint256"
                },
                {
                  "internalType": "address",
                  "name": "depositor",
                  "type": "address"
                },
                {
                  "internalType": "bytes32",
                  "name": "recipient",
                  "type": "bytes32"
                },
                {
                  "internalType": "uint256",
                  "name": "destinationChainId",
                  "type": "uint256"
                },
                {
                  "internalType": "bytes32",
                  "name": "exclusiveRelayer",
                  "type": "bytes32"
                },
                {
                  "internalType": "uint32",
                  "name": "quoteTimestamp",
                  "type": "uint32"
                },
                {
                  "internalType": "uint32",
                  "name": "fillDeadline",
                  "type": "uint32"
                },
                {
                  "internalType": "uint32",
                  "name": "exclusivityParameter",
                  "type": "uint32"
                },
                {
                  "internalType": "bytes",
                  "name": "message",
                  "type": "bytes"
                }
              ],
              "internalType": "struct SpokePoolPeripheryInterface.BaseDepositData",
              "name": "depositData",
              "type": "tuple"
            },
            {
              "internalType": "address",
              "name": "swapToken",
              "type": "address"
            },
            {
              "internalType": "address",
              "name": "exchange",
              "type": "address"
            },
            {
              "internalType": "enum SpokePoolPeripheryInterface.TransferType",
              "name": "transferType",
              "type": "uint8"
            },
            {
              "internalType": "uint256",
              "name": "swapTokenAmount",
              "type": "uint256"
            },
            {
              "internalType": "uint256",
              "name": "minExpectedInputTokenAmount",
              "type": "uint256"
            },
            {
              "internalType": "bytes",
              "name": "routerCalldata",
              "type": "bytes"
            },
            {
              "internalType": "bool",
              "name": "enableProportionalAdjustment",
              "type": "bool"
            },
            {
              "internalType": "address",
              "name": "spokePool",
              "type": "address"
            },
            {
              "internalType": "uint256",
              "name": "nonce",
              "type": "uint256"
            }
          ],
          "internalType": "struct SpokePoolPeripheryInterface.SwapAndDepositData",
          "name": "swapAndDepositData",
          "type": "tuple"
        }
      ],
      "name": "swapAndBridge",
      "outputs": [],
      "stateMutability": "payable",
      "type": "function"
    },
    {
      "inputs": [
        {
          "internalType": "address",
          "name": "signatureOwner",
          "type": "address"
        },
        {
          "components": [
            {
              "components": [
                {
                  "internalType": "uint256",
                  "name": "amount",
                  "type": "uint256"
                },
                {
                  "internalType": "address",
                  "name": "recipient",
                  "type": "address"
                }
              ],
              "internalType": "struct SpokePoolPeripheryInterface.Fees",
              "name": "submissionFees",
              "type": "tuple"
            },
            {
              "components": [
                {
                  "internalType": "address",
                  "name": "inputToken",
                  "type": "address"
                },
                {
                  "internalType": "bytes32",
                  "name": "outputToken",
                  "type": "bytes32"
                },
                {
                  "internalType": "uint256",
                  "name": "outputAmount",
                  "type": "uint256"
                },
                {
                  "internalType": "address",
                  "name": "depositor",
                  "type": "address"
                },
                {
                  "internalType": "bytes32",
                  "name": "recipient",
                  "type": "bytes32"
                },
                {
                  "internalType": "uint256",
                  "name": "destinationChainId",
                  "type": "uint256"
                },
                {
                  "internalType": "bytes32",
                  "name": "exclusiveRelayer",
                  "type": "bytes32"
                },
                {
                  "internalType": "uint32",
                  "name": "quoteTimestamp",
                  "type": "uint32"
                },
                {
                  "internalType": "uint32",
                  "name": "fillDeadline",
                  "type": "uint32"
                },
                {
                  "internalType": "uint32",
                  "name": "exclusivityParameter",
                  "type": "uint32"
                },
                {
                  "internalType": "bytes",
                  "name": "message",
                  "type": "bytes"
                }
              ],
              "internalType": "struct SpokePoolPeripheryInterface.BaseDepositData",
              "name": "depositData",
              "type": "tuple"
            },
            {
              "internalType": "address",
              "name": "swapToken",
              "type": "address"
            },
            {
              "internalType": "address",
              "name": "exchange",
              "type": "address"
            },
            {
              "internalType": "enum SpokePoolPeripheryInterface.TransferType",
              "name": "transferType",
              "type": "uint8"
            },
            {
              "internalType": "uint256",
              "name": "swapTokenAmount",
              "type": "uint256"
            },
            {
              "internalType": "uint256",
              "name": "minExpectedInputTokenAmount",
              "type": "uint256"
            },
            {
              "internalType": "bytes",
              "name": "routerCalldata",
              "type": "bytes"
            },
            {
              "internalType": "bool",
              "name": "enableProportionalAdjustment",
              "type": "bool"
            },
            {
              "internalType": "address",
              "name": "spokePool",
              "type": "address"
            },
            {
              "internalType": "uint256",
              "name": "nonce",
              "type": "uint256"
            }
          ],
          "internalType": "struct SpokePoolPeripheryInterface.SwapAndDepositData",
          "name": "swapAndDepositData",
          "type": "tuple"
        },
        {
          "internalType": "uint256",
          "name": "validAfter",
          "type": "uint256"
        },
        {
          "internalType": "uint256",
          "name": "validBefore",
          "type": "uint256"
        },
        {
          "internalType": "bytes",
          "name": "receiveWithAuthSignature",
          "type": "bytes"
        },
        {
          "internalType": "bytes",
          "name": "swapAndDepositDataSignature",
          "type": "bytes"
        }
      ],
      "name": "swapAndBridgeWithAuthorization",
      "outputs": [],
      "stateMutability": "nonpayable",
      "type": "function"
    },
    {
      "inputs": [
        {
          "internalType": "address",
          "name": "signatureOwner",
          "type": "address"
        },
        {
          "components": [
            {
              "components": [
                {
                  "internalType": "uint256",
                  "name": "amount",
                  "type": "uint256"
                },
                {
                  "internalType": "address",
                  "name": "recipient",
                  "type": "address"
                }
              ],
              "internalType": "struct SpokePoolPeripheryInterface.Fees",
              "name": "submissionFees",
              "type": "tuple"
            },
            {
              "components": [
                {
                  "internalType": "address",
                  "name": "inputToken",
                  "type": "address"
                },
                {
                  "internalType": "bytes32",
                  "name": "outputToken",
                  "type": "bytes32"
                },
                {
                  "internalType": "uint256",
                  "name": "outputAmount",
                  "type": "uint256"
                },
                {
                  "internalType": "address",
                  "name": "depositor",
                  "type": "address"
                },
                {
                  "internalType": "bytes32",
                  "name": "recipient",
                  "type": "bytes32"
                },
                {
                  "internalType": "uint256",
                  "name": "destinationChainId",
                  "type": "uint256"
                },
                {
                  "internalType": "bytes32",
                  "name": "exclusiveRelayer",
                  "type": "bytes32"
                },
                {
                  "internalType": "uint32",
                  "name": "quoteTimestamp",
                  "type": "uint32"
                },
                {
                  "internalType": "uint32",
                  "name": "fillDeadline",
                  "type": "uint32"
                },
                {
                  "internalType": "uint32",
                  "name": "exclusivityParameter",
                  "type": "uint32"
                },
                {
                  "internalType": "bytes",
                  "name": "message",
                  "type": "bytes"
                }
              ],
              "internalType": "struct SpokePoolPeripheryInterface.BaseDepositData",
              "name": "depositData",
              "type": "tuple"
            },
            {
              "internalType": "address",
              "name": "swapToken",
              "type": "address"
            },
            {
              "internalType": "address",
              "name": "exchange",
              "type": "address"
            },
            {
              "internalType": "enum SpokePoolPeripheryInterface.TransferType",
              "name": "transferType",
              "type": "uint8"
            },
            {
              "internalType": "uint256",
              "name": "swapTokenAmount",
              "type": "uint256"
            },
            {
              "internalType": "uint256",
              "name": "minExpectedInputTokenAmount",
              "type": "uint256"
            },
            {
              "internalType": "bytes",
              "name": "routerCalldata",
              "type": "bytes"
            },
            {
              "internalType": "bool",
              "name": "enableProportionalAdjustment",
              "type": "bool"
            },
            {
              "internalType": "address",
              "name": "spokePool",
              "type": "address"
            },
            {
              "internalType": "uint256",
              "name": "nonce",
              "type": "uint256"
            }
          ],
          "internalType": "struct SpokePoolPeripheryInterface.SwapAndDepositData",
          "name": "swapAndDepositData",
          "type": "tuple"
        },
        {
          "internalType": "uint256",
          "name": "deadline",
          "type": "uint256"
        },
        {
          "internalType": "bytes",
          "name": "permitSignature",
          "type": "bytes"
        },
        {
          "internalType": "bytes",
          "name": "swapAndDepositDataSignature",
          "type": "bytes"
        }
      ],
      "name": "swapAndBridgeWithPermit",
      "outputs": [],
      "stateMutability": "nonpayable",
      "type": "function"
    },
    {
      "inputs": [
        {
          "internalType": "address",
          "name": "signatureOwner",
          "type": "address"
        },
        {
          "components": [
            {
              "components": [
                {
                  "internalType": "uint256",
                  "name": "amount",
                  "type": "uint256"
                },
                {
                  "internalType": "address",
                  "name": "recipient",
                  "type": "address"
                }
              ],
              "internalType": "struct SpokePoolPeripheryInterface.Fees",
              "name": "submissionFees",
              "type": "tuple"
            },
            {
              "components": [
                {
                  "internalType": "address",
                  "name": "inputToken",
                  "type": "address"
                },
                {
                  "internalType": "bytes32",
                  "name": "outputToken",
                  "type": "bytes32"
                },
                {
                  "internalType": "uint256",
                  "name": "outputAmount",
                  "type": "uint256"
                },
                {
                  "internalType": "address",
                  "name": "depositor",
                  "type": "address"
                },
                {
                  "internalType": "bytes32",
                  "name": "recipient",
                  "type": "bytes32"
                },
                {
                  "internalType": "uint256",
                  "name": "destinationChainId",
                  "type": "uint256"
                },
                {
                  "internalType": "bytes32",
                  "name": "exclusiveRelayer",
                  "type": "bytes32"
                },
                {
                  "internalType": "uint32",
                  "name": "quoteTimestamp",
                  "type": "uint32"
                },
                {
                  "internalType": "uint32",
                  "name": "fillDeadline",
                  "type": "uint32"
                },
                {
                  "internalType": "uint32",
                  "name": "exclusivityParameter",
                  "type": "uint32"
                },
                {
                  "internalType": "bytes",
                  "name": "message",
                  "type": "bytes"
                }
              ],
              "internalType": "struct SpokePoolPeripheryInterface.BaseDepositData",
              "name": "depositData",
              "type": "tuple"
            },
            {
              "internalType": "address",
              "name": "swapToken",
              "type": "address"
            },
            {
              "internalType": "address",
              "name": "exchange",
              "type": "address"
            },
            {
              "internalType": "enum SpokePoolPeripheryInterface.TransferType",
              "name": "transferType",
              "type": "uint8"
            },
            {
              "internalType": "uint256",
              "name": "swapTokenAmount",
              "type": "uint256"
            },
            {
              "internalType": "uint256",
              "name": "minExpectedInputTokenAmount",
              "type": "uint256"
            },
            {
              "internalType": "bytes",
              "name": "routerCalldata",
              "type": "bytes"
            },
            {
              "internalType": "bool",
              "name": "enableProportionalAdjustment",
              "type": "bool"
            },
            {
              "internalType": "address",
              "name": "spokePool",
              "type": "address"
            },
            {
              "internalType": "uint256",
              "name": "nonce",
              "type": "uint256"
            }
          ],
          "internalType": "struct SpokePoolPeripheryInterface.SwapAndDepositData",
          "name": "swapAndDepositData",
          "type": "tuple"
        },
        {
          "components": [
            {
              "components": [
                {
                  "internalType": "address",
                  "name": "token",
                  "type": "address"
                },
                {
                  "internalType": "uint256",
                  "name": "amount",
                  "type": "uint256"
                }
              ],
              "internalType": "struct IPermit2.TokenPermissions",
              "name": "permitted",
              "type": "tuple"
            },
            {
              "internalType": "uint256",
              "name": "nonce",
              "type": "uint256"
            },
            {
              "internalType": "uint256",
              "name": "deadline",
              "type": "uint256"
            }
          ],
          "internalType": "struct IPermit2.PermitTransferFrom",
          "name": "permit",
          "type": "tuple"
        },
        {
          "internalType": "bytes",
          "name": "signature",
          "type": "bytes"
        }
      ],
      "name": "swapAndBridgeWithPermit2",
      "outputs": [],
      "stateMutability": "nonpayable",
      "type": "function"
    },
    {
      "inputs": [],
      "name": "swapProxy",
      "outputs": [
        {
          "internalType": "contract SwapProxy",
          "name": "",
          "type": "address"
        }
      ],
      "stateMutability": "view",
      "type": "function"
    }
  ],
  "transactionHash": "0x8ba342c28c0543a4de237d41470c97dec3c9db7517993f0f1008338b51e014ec",
  "args": [
    "0x000000000022d473030f116ddee9f6b43ac78ba3"
  ],
  "numDeployments": 2,
  "solcInputHash": "7d84ab026277853440aceca83f20bcc3",
  "bytecode": "0x6101a080604052346101fb57602081614397803803809161002082856101ff565b8339810103126101fb57516001600160a01b038116908181036101fb5760405161004b6040826101ff565b6010815260208101906f4143524f53532d50455249504845525960801b8252604051916100796040846101ff565b600583526020830191640312e302e360dc1b835260015f5561009a81610222565b610120526100a7846103bd565b61014052519020918260e05251902080610100524660a0526040519060208201927f8b73c3c69bb8fe3d512ecc4cf759cc79239f7b179b0ffacaa9a75d522b39400f8452604083015260608201524660808201523060a082015260a0815261011060c0826101ff565b5190206080523060c05281156101fb57813b156101fb576101605260405190610afc8083016001600160401b038111848210176101e757602092849261389b843981520301905ff080156101dc57610180526040516133a590816104f6823960805181612e94015260a05181612f4b015260c05181612e65015260e05181612ee301526101005181612f0901526101205181610a2e01526101405181610a570152610160518181816102ba015281816105fc0152610dde0152610180518181816108e5015261221c0152f35b6040513d5f823e3d90fd5b634e487b7160e01b5f52604160045260245ffd5b5f80fd5b601f909101601f19168101906001600160401b038211908210176101e757604052565b908151602081105f1461029c575090601f81511161025c57602081519101516020821061024d571790565b5f198260200360031b1b161790565b604460209160405192839163305a27a960e01b83528160048401528051918291826024860152018484015e5f828201840152601f01601f19168101030190fd5b6001600160401b0381116101e757600154600181811c911680156103b3575b602082101461039f57601f811161036c575b50602092601f821160011461030b57928192935f92610300575b50508160011b915f199060031b1c19161760015560ff90565b015190505f806102e7565b601f1982169360015f52805f20915f5b868110610354575083600195961061033c575b505050811b0160015560ff90565b01515f1960f88460031b161c191690555f808061032e565b9192602060018192868501518155019401920161031b565b60015f52601f60205f20910160051c810190601f830160051c015b81811061039457506102cd565b5f8155600101610387565b634e487b7160e01b5f52602260045260245ffd5b90607f16906102bb565b908151602081105f146103e8575090601f81511161025c57602081519101516020821061024d571790565b6001600160401b0381116101e757600254600181811c911680156104eb575b602082101461039f57601f81116104b8575b50602092601f821160011461045757928192935f9261044c575b50508160011b915f199060031b1c19161760025560ff90565b015190505f80610433565b601f1982169360025f52805f20915f5b8681106104a05750836001959610610488575b505050811b0160025560ff90565b01515f1960f88460031b161c191690555f808061047a565b91926020600181928685015181550194019201610467565b60025f52601f60205f20910160051c810190601f830160051c015b8181106104e05750610419565b5f81556001016104d3565b90607f169061040756fe60806040526004361015610011575f80fd5b5f3560e01c8063110560ad146100f457806312261ee7146100ef5780631542ce53146100ea578063191d0ffc146100e5578063501f1053146100e057806356da359a146100db578063656a20e6146100d65780636ec4be90146100d1578063805e1148146100cc57806384b0196e146100c7578063ac9650d8146100c2578063b3cfd79e146100bd578063d2aca1a4146100b85763f698da25146100b3575f80fd5b610f8a565b610d09565b610c5a565b610bca565b6109f8565b610909565b61089b565b6107ff565b610529565b61044b565b6103e4565b610338565b610270565b61010c565b90816101809103126101085790565b5f80fd5b60207ffffffffffffffffffffffffffffffffffffffffffffffffffffffffffffffffc3601126101085760043567ffffffffffffffff8111610108576101569036906004016100f9565b61015e611fed565b341561023c5760c081013534036102145761019a61018161018160608401610fca565b73ffffffffffffffffffffffffffffffffffffffff1690565b90813b15610108575f600492604051938480927fd0e30db000000000000000000000000000000000000000000000000000000000825234905af191821561020f576101ea926101f5575b506121b7565b6101f360015f55565b005b806102035f6102099361071c565b80610266565b5f6101e4565b610fd4565b7f1841b4e1000000000000000000000000000000000000000000000000000000005f5260045ffd5b8061026161025261018160606101ea9501610fca565b60c08301359030903390611ffc565b6121b7565b5f91031261010857565b34610108575f7ffffffffffffffffffffffffffffffffffffffffffffffffffffffffffffffffc36011261010857602060405173ffffffffffffffffffffffffffffffffffffffff7f0000000000000000000000000000000000000000000000000000000000000000168152f35b73ffffffffffffffffffffffffffffffffffffffff81160361010857565b908160c09103126101085790565b9181601f840112156101085782359167ffffffffffffffff8311610108576020838186019501011161010857565b346101085760a07ffffffffffffffffffffffffffffffffffffffffffffffffffffffffffffffffc36011261010857600435610373816102de565b60243567ffffffffffffffff8111610108576103939036906004016102fc565b6044359160643567ffffffffffffffff8111610108576103b790369060040161030a565b906084359467ffffffffffffffff8611610108576103dc6101f396369060040161030a565b959094610fdf565b346101085760207ffffffffffffffffffffffffffffffffffffffffffffffffffffffffffffffffc3601126101085773ffffffffffffffffffffffffffffffffffffffff600435610434816102de565b165f526003602052602060405f2054604051908152f35b346101085760c07ffffffffffffffffffffffffffffffffffffffffffffffffffffffffffffffffc36011261010857600435610486816102de565b60243567ffffffffffffffff8111610108576104a69036906004016100f9565b6044359160643560843567ffffffffffffffff8111610108576104cd90369060040161030a565b9160a4359567ffffffffffffffff8711610108576104f26101f397369060040161030a565b9690956112c7565b7fffffffffffffffffffffffffffffffffffffffffffffffffffffffffffffffbc608091011261010857604490565b346101085760e07ffffffffffffffffffffffffffffffffffffffffffffffffffffffffffffffffc36011261010857600435610564816102de565b60243567ffffffffffffffff8111610108576105849036906004016100f9565b61058d366104fa565b9160c43567ffffffffffffffff8111610108576105ae90369060040161030a565b90916105b8611fed565b6105c184612b96565b948435936105d38560c088013561125a565b906105dc610762565b30815291602083015273ffffffffffffffffffffffffffffffffffffffff7f0000000000000000000000000000000000000000000000000000000000000000169261062561177c565b843b15610108575f96879361066a926040519c8d998a9889977f137c29fe00000000000000000000000000000000000000000000000000000000895260048901611852565b03925af190811561020f576101ea93610261926106a1575b5061068f60608401610fca565b61069b60208501610fca565b90612543565b806102035f6106af9361071c565b5f610682565b63ffffffff81160361010857565b61010435906106d1826106b5565b565b61012435906106d1826106b5565b61014435906106d1826106b5565b7f4e487b71000000000000000000000000000000000000000000000000000000005f52604160045260245ffd5b90601f7fffffffffffffffffffffffffffffffffffffffffffffffffffffffffffffffe0910116810190811067ffffffffffffffff82111761075d57604052565b6106ef565b604051906106d160408361071c565b67ffffffffffffffff811161075d57601f017fffffffffffffffffffffffffffffffffffffffffffffffffffffffffffffffe01660200190565b9291926107b782610771565b916107c5604051938461071c565b829481845281830111610108578281602093845f960137010152565b9080601f83011215610108578160206107fc933591016107ab565b90565b6101807ffffffffffffffffffffffffffffffffffffffffffffffffffffffffffffffffc36011261010857600435610836816102de565b60243590604435610846816102de565b60643560843560e43560c43560a43561085d6106c3565b936108666106d3565b9561086f6106e1565b97610164359a67ffffffffffffffff8c11610108576108956101f39c36906004016107e1565b9a61190e565b34610108575f7ffffffffffffffffffffffffffffffffffffffffffffffffffffffffffffffffc36011261010857602060405173ffffffffffffffffffffffffffffffffffffffff7f0000000000000000000000000000000000000000000000000000000000000000168152f35b346101085760a07ffffffffffffffffffffffffffffffffffffffffffffffffffffffffffffffffc36011261010857600435610944816102de565b60243567ffffffffffffffff8111610108576109649036906004016100f9565b6044359160643567ffffffffffffffff81116101085761098890369060040161030a565b906084359467ffffffffffffffff8611610108576109ad6101f396369060040161030a565b959094611a06565b907fffffffffffffffffffffffffffffffffffffffffffffffffffffffffffffffe0601f602080948051918291828752018686015e5f8582860101520116010190565b34610108575f7ffffffffffffffffffffffffffffffffffffffffffffffffffffffffffffffffc36011261010857610af4610a527f0000000000000000000000000000000000000000000000000000000000000000612c79565b610a7b7f0000000000000000000000000000000000000000000000000000000000000000612d96565b6020604051610a8a828261071c565b5f815281610b02818301947fffffffffffffffffffffffffffffffffffffffffffffffffffffffffffffffe083013687376040519788977f0f00000000000000000000000000000000000000000000000000000000000000895260e0858a015260e08901906109b5565b9087820360408901526109b5565b914660608701523060808701525f60a087015285830360c087015251918281520192915f5b828110610b3657505050500390f35b835185528695509381019392810192600101610b27565b602081016020825282518091526040820191602060408360051b8301019401925f915b838310610b7f57505050505090565b9091929394602080610bbb837fffffffffffffffffffffffffffffffffffffffffffffffffffffffffffffffc0866001960301875289516109b5565b97019301930191939290610b70565b346101085760207ffffffffffffffffffffffffffffffffffffffffffffffffffffffffffffffffc3601126101085760043567ffffffffffffffff811161010857366023820112156101085780600401359067ffffffffffffffff8211610108573660248360051b8301011161010857610c56916024610c4a9201611ca6565b60405191829182610b4d565b0390f35b346101085760c07ffffffffffffffffffffffffffffffffffffffffffffffffffffffffffffffffc36011261010857600435610c95816102de565b60243567ffffffffffffffff811161010857610cb59036906004016102fc565b6044359160643560843567ffffffffffffffff811161010857610cdc90369060040161030a565b9160a4359567ffffffffffffffff871161010857610d016101f397369060040161030a565b969095611d30565b346101085760e07ffffffffffffffffffffffffffffffffffffffffffffffffffffffffffffffffc36011261010857600435610d44816102de565b60243567ffffffffffffffff811161010857610d649036906004016102fc565b610d6d366104fa565b60c43567ffffffffffffffff811161010857610d8d90369060040161030a565b610d98949194611fed565b610da184612636565b91843593606086013596610db5868961125a565b90610dbe610762565b30815291602083015273ffffffffffffffffffffffffffffffffffffffff7f00000000000000000000000000000000000000000000000000000000000000001692610e07611f87565b843b15610108575f968793610e4c926040519a8b998a9889977f137c29fe00000000000000000000000000000000000000000000000000000000895260048901611852565b03925af1801561020f57610f76575b506040820190610e6b82846111fa565b610e7490610fca565b90610e8160208501610fca565b610e8a92612543565b610e9660808301610fca565b90610ea181846111fa565b606001610ead90610fca565b92610eb882826111fa565b6080013594610ec783836111fa565b610ed090610fca565b90610edb84846111fa565b6020013590610eea85856111fa565b60400135610ef886866111fa565b60a0013591610f0787876111fa565b60c0013593610f1688886111fa565b60e001610f229061126c565b95610f2d89896111fa565b61010001610f3a9061126c565b97610f458a826111fa565b61012001610f529061126c565b99610f5c916111fa565b6101408101610f6a91611276565b9b6101ea9d919b6128bb565b806102035f610f849361071c565b5f610e5b565b34610108575f7ffffffffffffffffffffffffffffffffffffffffffffffffffffffffffffffffc360112610108576020610fc2612e4e565b604051908152f35b356107fc816102de565b6040513d5f823e3d90fd5b919293610ff49194610fef611fed565b6124e5565b6040869893979298019461101061100b87896111fa565b610fca565b9760608801359988359261102660208b01610fca565b946110318d8661125a565b9273ffffffffffffffffffffffffffffffffffffffff8d1694853b15610108576040517fd505accf00000000000000000000000000000000000000000000000000000000815273ffffffffffffffffffffffffffffffffffffffff8c16600482015230602482015260448101869052606481019490945260ff92909216608484015260a483019190915260c48201525f8160e48183875af16111e6575b508630906110db93611ffc565b6110e59188612543565b6110f360a0860135846125aa565b6110fc85612636565b611105936126f7565b61111160808301610fca565b9161111c82826111fa565b60600161112890610fca565b9361113383836111fa565b608001359561114284846111fa565b602001359061115185856111fa565b6040013561115f86866111fa565b60a001359161116e87876111fa565b60c001359361117d88886111fa565b60e0016111899061126c565b9561119489896111fa565b610100016111a19061126c565b976111ac8a826111fa565b610120016111b99061126c565b996111c3916111fa565b61014081016111d191611276565b9b6111dd9d919b6128bb565b6106d160015f55565b806102035f6111f49361071c565b5f6110ce565b9035907ffffffffffffffffffffffffffffffffffffffffffffffffffffffffffffffea181360301821215610108570190565b7f4e487b71000000000000000000000000000000000000000000000000000000005f52601160045260245ffd5b9190820180921161126757565b61122d565b356107fc816106b5565b9035907fffffffffffffffffffffffffffffffffffffffffffffffffffffffffffffffe181360301821215610108570180359067ffffffffffffffff82116101085760200191813603831361010857565b919693946112da91969395610fef611fed565b95919787359860608901976112f46101816101818b610fca565b916113038c60c08d013561125a565b916101608c0135843b15610108576040517fef55bec600000000000000000000000000000000000000000000000000000000815273ffffffffffffffffffffffffffffffffffffffff8a16600482015230602482015260448101949094526064840195909552608483019690965260a482019390935260ff90941660c485015260e48401919091526101048301919091525f90829061012490829084905af196871561020f576113c3610261966113cf936111dd9a6113de575b50610fca565b61069b60208901610fca565b6113d885612b96565b906126f7565b806102035f6113ec9361071c565b5f6113bd565b604051906114026101208361071c565b60f882527f506172616d657465722c6279746573206d657373616765290000000000000000610100837f426173654465706f73697444617461286164647265737320696e707574546f6b60208201527f656e2c62797465733332206f7574707574546f6b656e2c75696e74323536206f60408201527f7574707574416d6f756e742c61646472657373206465706f7369746f722c627960608201527f746573333220726563697069656e742c75696e743235362064657374696e617460808201527f696f6e436861696e49642c62797465733332206578636c757369766552656c6160a08201527f7965722c75696e7433322071756f746554696d657374616d702c75696e74333260c08201527f2066696c6c446561646c696e652c75696e743332206578636c7573697669747960e08201520152565b6040519061154860608361071c565b602682527f7069656e742900000000000000000000000000000000000000000000000000006040837f466565732875696e7432353620616d6f756e742c61646472657373207265636960208201520152565b604051906115aa6101408361071c565b61010c82527f6e74323536206e6f6e6365290000000000000000000000000000000000000000610120837f53776170416e644465706f736974446174612846656573207375626d6973736960208201527f6f6e466565732c426173654465706f73697444617461206465706f736974446160408201527f74612c616464726573732073776170546f6b656e2c616464726573732065786360608201527f68616e67652c75696e7438207472616e73666572547970652c75696e7432353660808201527f2073776170546f6b656e416d6f756e742c75696e74323536206d696e4578706560a08201527f63746564496e707574546f6b656e416d6f756e742c627974657320726f75746560c08201527f7243616c6c646174612c626f6f6c20656e61626c6550726f706f7274696f6e6160e08201527f6c41646a7573746d656e742c616464726573732073706f6b65506f6f6c2c75696101008201520152565b6040519061171860608361071c565b602e82527f696e7432353620616d6f756e74290000000000000000000000000000000000006040837f546f6b656e5065726d697373696f6e73286164647265737320746f6b656e2c7560208201520152565b805191908290602001825e015f815290565b6117e26107fc61178a6113f2565b6117e8611795611539565b6117e26117a061159a565b6117e26117ab611709565b936040519889977f53776170416e644465706f73697444617461207769746e65737329000000000060208a0152603b89019061176a565b9061176a565b037fffffffffffffffffffffffffffffffffffffffffffffffffffffffffffffffe0810183528261071c565b601f82602094937fffffffffffffffffffffffffffffffffffffffffffffffffffffffffffffffe093818652868601375f8582860101520116010190565b9593906118ff9360206107fc99979460606118e69473ffffffffffffffffffffffffffffffffffffffff8135611887816102de565b168c5283810135848d0152604081013560408d0152013560608b015273ffffffffffffffffffffffffffffffffffffffff81511660808b0152015160a089015260c088019073ffffffffffffffffffffffffffffffffffffffff169052565b60e08601526101406101008601526101408501906109b5565b92610120818503910152611814565b73ffffffffffffffffffffffffffffffffffffffff80919c98949a969299959c9b97939b61193a611fed565b169a16988a3b15610108576040519b8c9a8b9a7fad5425c6000000000000000000000000000000000000000000000000000000008c523360048d015260248c015260448b015260648a0152608489015260a488015260c487015260e486015263ffffffff1661010485015263ffffffff1661012484015263ffffffff166101448301526101648201610180905261018482016119d5916109b5565b0381345a945f95f1801561020f576119f2575b506106d160015f55565b806102035f611a009361071c565b5f6119e8565b93611a179195929693610fef611fed565b94916060870135611a27816102de565b60c088013590883592611a46611a3f60208c01610fca565b938561125a565b73ffffffffffffffffffffffffffffffffffffffff8316803b15610108576040517fd505accf00000000000000000000000000000000000000000000000000000000815273ffffffffffffffffffffffffffffffffffffffff8916600482015230602482015260448101839052606481019d909d5260ff9a909a1660848d015260a48c019190915260c48b01949094526111dd9961026198611b0595611b00929091905f8160e48183865af1611b14575b50873091611ffc565b612543565b6113cf610160860135826125aa565b806102035f611b229361071c565b5f611af7565b67ffffffffffffffff811161075d5760051b60200190565b90611b4a82611b28565b611b57604051918261071c565b8281527fffffffffffffffffffffffffffffffffffffffffffffffffffffffffffffffe0611b858294611b28565b01905f5b828110611b9557505050565b806060602080938501015201611b89565b7f4e487b71000000000000000000000000000000000000000000000000000000005f52603260045260245ffd5b90821015611bee57611bea9160051b810190611276565b9091565b611ba6565b908092918237015f815290565b3d15611c2a573d90611c1182610771565b91611c1f604051938461071c565b82523d5f602084013e565b606090565b6020818303126101085780519067ffffffffffffffff8211610108570181601f8201121561010857805190611c6382610771565b92611c71604051948561071c565b8284526020838301011161010857815f9260208093018386015e8301015290565b8051821015611bee5760209160051b010190565b919091611cb283611b40565b925f5b818110611cc157505050565b5f80611cce838587611bd3565b90611cde60405180938193611bf3565b0390305af4611ceb611c00565b9015611d115790600191611cff8288611c92565b52611d0a8187611c92565b5001611cb5565b6044815110610108578060248060046101089401518301019101611c2f565b9390959196928695611d40611fed565b6060870135988735938492611d54916124e5565b9093918c60408c019b8c611d67916111fa565b611d7090610fca565b73ffffffffffffffffffffffffffffffffffffffff1693611d909161125a565b9160a08d0135843b15610108576040517fef55bec600000000000000000000000000000000000000000000000000000000815273ffffffffffffffffffffffffffffffffffffffff8d16600482015230602482015260448101949094526064840195909552608483019690965260a482019390935260ff90941660c485015260e48401919091526101048301919091525f90829061012490829084905af1801561020f57611ec6575b50611e4485876111fa565b611e4d90610fca565b90611e5a60208801610fca565b611e6392612543565b611e6c85612636565b611e75936126f7565b611e8160808301610fca565b90611e8c81846111fa565b606001611e9890610fca565b92611ea382826111fa565b6080013594611eb283836111fa565b611ebb90610fca565b9061114284846111fa565b806102035f611ed49361071c565b5f611e39565b60405190611ee960a08361071c565b607482527f65506f6f6c2c75696e74323536206e6f6e6365290000000000000000000000006080837f4465706f736974446174612846656573207375626d697373696f6e466565732c60208201527f426173654465706f7369744461746120626173654465706f736974446174612c60408201527f75696e7432353620696e707574416d6f756e742c616464726573732073706f6b60608201520152565b6117e26107fc611f956113f2565b6117e8611fa0611eda565b6117e2611fab611539565b6117e2611fb6611709565b936040519889977f4465706f73697444617461207769746e6573732900000000000000000000000060208a0152603489019061176a565b60025f54146101085760025f55565b90919273ffffffffffffffffffffffffffffffffffffffff6106d19481604051957f23b872dd00000000000000000000000000000000000000000000000000000000602088015216602486015216604484015260648301526064825261206360848361071c565b612f86565b7f4e487b71000000000000000000000000000000000000000000000000000000005f52602160045260245ffd5b3560038110156101085790565b90816020910312610108575190565b9060038210156120be5752565b612068565b9260c09473ffffffffffffffffffffffffffffffffffffffff918261210795816107fc9c9a96168852166020870152604086015216606084015260808301906120b1565b8160a08201520191611814565b8015150361010857565b356107fc81612114565b8181029291811591840414171561126757565b8115612145570490565b7f4e487b71000000000000000000000000000000000000000000000000000000005f52601260045260245ffd5b92916080949796959273ffffffffffffffffffffffffffffffffffffffff6121a89316855260a0602086015260a0850191611814565b95604083015260608201520152565b6121c360608201610fca565b73ffffffffffffffffffffffffffffffffffffffff16604082016121e781846111fa565b6121f090610fca565b73ffffffffffffffffffffffffffffffffffffffff169061221360808501610fca565b9360c0810135857f000000000000000000000000000000000000000000000000000000000000000073ffffffffffffffffffffffffffffffffffffffff169561225d838883613024565b73ffffffffffffffffffffffffffffffffffffffff958616951661228360a08501612095565b9683878361010088019a6122978c8a611276565b916040519e8f9687967fc0437b7c00000000000000000000000000000000000000000000000000000000885260048801966122d1976120c3565b03815a6020945f91f197881561020f575f986124b4575b5060e08401359182891061248c57821561246457869261230b610120870161211e565b1561244c5761233361233b9161232e8c60406123278c8c6111fa565b0135612128565b61213b565b985b86611276565b91898b6123488a8a6111fa565b602001359760405195869561235d9587612172565b037f32da500ab49223322bf87d13ba63ef4e5efd139c75f982183d27f59fc31fb25091a461238e6101408201610fca565b9261239983836111fa565b6060016123a590610fca565b946123b084846111fa565b60800135966123bf85856111fa565b60200135916123ce86866111fa565b60a00135916123dd87876111fa565b60c00135936123ec88886111fa565b60e0016123f89061126c565b9561240389896111fa565b610100016124109061126c565b9761241b8a826111fa565b610120016124289061126c565b99612432916111fa565b610140810161244091611276565b9b6106d19d919b6128bb565b5061233b604061245c88886111fa565b013598612335565b7f2d696302000000000000000000000000000000000000000000000000000000005f5260045ffd5b7f0492ff87000000000000000000000000000000000000000000000000000000005f5260045ffd5b6124d791985060203d6020116124de575b6124cf818361071c565b8101906120a2565b965f6122e8565b503d6124c5565b9190916041830361251b578260401015611bee57604081013560f81c908360201161010857803593604011610108576020013591565b7f8baa579f000000000000000000000000000000000000000000000000000000005f5260045ffd5b9190918161255057505050565b6106d19273ffffffffffffffffffffffffffffffffffffffff811661258e575073ffffffffffffffffffffffffffffffffffffffff33915b16613024565b73ffffffffffffffffffffffffffffffffffffffff9091612588565b73ffffffffffffffffffffffffffffffffffffffff1690815f52600360205260405f20540361260e575f52600360205260405f2080547fffffffffffffffffffffffffffffffffffffffffffffffffffffffffffffffff8114611267576001019055565b7f756688fe000000000000000000000000000000000000000000000000000000005f5260045ffd5b61263e611eda565b6117e261266b61264c6113f2565b6117e8612657611539565b6040519485936117e260208601809961176a565b5190209061267881613086565b9073ffffffffffffffffffffffffffffffffffffffff6126a361269e60408401846111fa565b61310e565b91606081013560a06080830135926126ba846102de565b01359360405195602087019788526040870152606086015260808501521660a083015260c082015260c081526126f160e08261071c565b51902090565b9291604261274292612707612e4e565b90604051917f1901000000000000000000000000000000000000000000000000000000000000835260028301526022820152209236916107ab565b9161274d838361328b565b60058194929410156120be57159283612833575b508215612775575b50501590505b61251b57565b5f938493506127c56117e89160405192839160208301957f1626ba7e00000000000000000000000000000000000000000000000000000000875260248401526040604484015260648301906109b5565b51915afa6127d1611c00565b9080612827575b806127ea575b61276f91505f80612769565b50602081805181010312610108577f1626ba7e00000000000000000000000000000000000000000000000000000000602061276f920151146127de565b506020815110156127d8565b73ffffffffffffffffffffffffffffffffffffffff83811691161492505f612761565b9892956101809a9563ffffffff9993956107fc9f9d9993988b999760208e8c9a8152015260408d015260608c015260808b015260a08a015260c089015260e0880152166101008601521661012084015216610140820152816101608201520191611814565b6101816129be859b969f9a95889e99949f9a959d986129d89473ffffffffffffffffffffffffffffffffffffffff91826101819416905f806040519261297f8461295360208201937f095ea7b300000000000000000000000000000000000000000000000000000000855289602484016020909392919373ffffffffffffffffffffffffffffffffffffffff60408201951681520152565b037fffffffffffffffffffffffffffffffffffffffffffffffffffffffffffffffe0810186528561071c565b83519082865af161298e611c00565b81612ab3575b5080612aa9575b15612a3b575b5050169f73ffffffffffffffffffffffffffffffffffffffff1690565b9a73ffffffffffffffffffffffffffffffffffffffff1690565b9a8c3b15610108576040517fad5425c60000000000000000000000000000000000000000000000000000000081529d8e9c8d9c612a189c60048f01612856565b03815a5f948591f1801561020f57612a2d5750565b806102035f6106d19361071c565b6040517f095ea7b300000000000000000000000000000000000000000000000000000000602082015273ffffffffffffffffffffffffffffffffffffffff841660248201525f6044820152612aa2929061206390612a9c81606481016117e8565b82612f86565b5f806129a1565b50813b151561299b565b8051801592508215612ac8575b50505f612994565b612adb9250602080918301019101612f71565b5f80612ac0565b612aea61159a565b6117e26126f161264c6113f2565b99979593919c9b9a98969492909c6101808b019d8b5260208b015260408a015273ffffffffffffffffffffffffffffffffffffffff16606089015273ffffffffffffffffffffffffffffffffffffffff16608088015260a08701612b5b916120b1565b60c086015260e0850152610100840152151561012083015273ffffffffffffffffffffffffffffffffffffffff166101408201526101600152565b612b9e612ae2565b90612ba881613086565b91612bb660408301836111fa565b612bbf9061310e565b90612bcc60608401610fca565b92612bd960808201610fca565b90612be660a08201612095565b60c082013560e0830135612bfe610100850185611276565b3690612c09926107ab565b80519060200120916101208501612c1f9061211e565b93612c2d6101408701610fca565b956101600135966040519a8b9a60208c019d612c499b8f612af8565b037fffffffffffffffffffffffffffffffffffffffffffffffffffffffffffffffe0810182526126f1908261071c565b60ff8114612c8a576107fc90613234565b506040515f6001548060011c91600182168015612d8c575b602084108114612d5f5783855284926020840191908115612d285750600114612cd3575b506107fc9250038261071c565b60015f90815291507fb10e2d527612073b26eecdfd717e6a320cf44b4afac2b0732d9fcbe2b7fa0cf65b848310612d1157506107fc9350015f612cc6565b805482840152859350602090920191600101612cfd565b7fffffffffffffffffffffffffffffffffffffffffffffffffffffffffffffff00168252506107fc93151560051b0190505f612cc6565b7f4e487b71000000000000000000000000000000000000000000000000000000005f52602260045260245ffd5b92607f1692612ca2565b60ff8114612da7576107fc90613234565b506040515f6002548060011c91600182168015612e44575b602084108114612d5f5783855284926020840191908115612d285750600114612def57506107fc9250038261071c565b60025f90815291507f405787fa12a823e0f2b7631cc41b3ba8828b3321ca811111fa75cd3aa3bb5ace5b848310612e2d57506107fc9350015f612cc6565b805482840152859350602090920191600101612e19565b92607f1692612dbf565b73ffffffffffffffffffffffffffffffffffffffff7f000000000000000000000000000000000000000000000000000000000000000016301480612f48575b15612eb6577f000000000000000000000000000000000000000000000000000000000000000090565b60405160208101907f8b73c3c69bb8fe3d512ecc4cf759cc79239f7b179b0ffacaa9a75d522b39400f82527f000000000000000000000000000000000000000000000000000000000000000060408201527f000000000000000000000000000000000000000000000000000000000000000060608201524660808201523060a082015260a081526126f160c08261071c565b507f00000000000000000000000000000000000000000000000000000000000000004614612e8d565b9081602091031261010857516107fc81612114565b9073ffffffffffffffffffffffffffffffffffffffff612ff492165f8060405193612fb260408661071c565b602085527f5361666545524332303a206c6f772d6c6576656c2063616c6c206661696c6564602086015260208151910182855af1612fee611c00565b91613344565b805190811591821561300a575b50501561010857565b61301d9250602080918301019101612f71565b5f80613001565b6040517fa9059cbb00000000000000000000000000000000000000000000000000000000602082015273ffffffffffffffffffffffffffffffffffffffff9290921660248301526044808301939093529181526106d19161206360648361071c565b61308e611539565b6040516130a3816117e860208201809561176a565b5190209073ffffffffffffffffffffffffffffffffffffffff602082359201356130cc816102de565b60405192602084019485526040840152166060820152606081526126f160808261071c565b6130f96113f2565b6040516126f1816117e860208201809561176a565b6131166130f1565b9061312081610fca565b916020820135906040830135926060810161313a90610fca565b90608081013560a082013560c083013561315660e0850161126c565b91613164610100860161126c565b93613172610120870161126c565b95610140810161318191611276565b369061318c926107ab565b80519060200120966040519a8b9a60208c019d612c499b8f99979593919c9b9a98969492909c6101808b019d8b5273ffffffffffffffffffffffffffffffffffffffff1660208b015260408a0152606089015273ffffffffffffffffffffffffffffffffffffffff16608088015260a087015260c086015260e085015263ffffffff1661010084015263ffffffff1661012083015263ffffffff166101408201526101600152565b60ff811690601f8211613263576040519161325060408461071c565b6020808452838101919036833783525290565b7fb3512b0c000000000000000000000000000000000000000000000000000000005f5260045ffd5b9060418151145f146132b357611bea91602082015190606060408401519301515f1a906132bc565b50505f90600290565b7f7fffffffffffffffffffffffffffffff5d576e7357a4501ddfe92f46681b20a08411613339576020935f9360ff60809460405194855216868401526040830152606082015282805260015afa1561020f575f5173ffffffffffffffffffffffffffffffffffffffff81161561333157905f90565b505f90600190565b505050505f90600390565b9192501561336057815115613357575090565b3b156101085790565b50805190811561010857602001fdfea2646970667358221220c0aa13f751c576ba0deb892a2885a51d9a6d9598753672920a6f762298b2291564736f6c634300081e003360a034607a57601f610afc38819003918201601f19168301916001600160401b03831184841017607e57808492602094604052833981010312607a57516001600160a01b03811690819003607a5760015f55608052604051610a699081610093823960805181818161012b015281816105bc01526106b30152f35b5f80fd5b634e487b7160e01b5f52604160045260245ffdfe6080806040526004361015610012575f80fd5b5f905f3560e01c90816312261ee71461066b575080631626ba7e146105545763c0437b7c1461003f575f80fd5b346104a65760c07ffffffffffffffffffffffffffffffffffffffffffffffffffffffffffffffffc3601126104a65760043573ffffffffffffffffffffffffffffffffffffffff81168091036104a6576024359073ffffffffffffffffffffffffffffffffffffffff82168092036104a6576044359060643573ffffffffffffffffffffffffffffffffffffffff8116918282036104a6576084359260038410156104a65760a43567ffffffffffffffff81116104a6576101049036906004016106d7565b92909160025f54146104a65760025f5573ffffffffffffffffffffffffffffffffffffffff7f00000000000000000000000000000000000000000000000000000000000000001680821461052c57899680610255575050509061016a85968587946107a3565b826040519384928337810182815203925af1610184610746565b501561022d57604051907f70a08231000000000000000000000000000000000000000000000000000000008252306004830152602082602481845afa9182156102225783926101e9575b506020926101e08360019333906108f0565b55604051908152f35b9091506020813d60201161021a575b8161020560209383610705565b8101031261021657519060206101ce565b8280fd5b3d91506101f8565b6040513d85823e3d90fd5b6004827f81ceff30000000000000000000000000000000000000000000000000000000008152fd5b60018103610273575050509061026e85968587946108f0565b61016a565b6002919392949698959750145f14610504576102908483836107a3565b60017fffffffffffffffffffffffffffffffffffffffffffffffffffffffffffffff006002541617600255805f52600160205260405f20835f5260205260405f209081549165ffffffffffff83169265ffffffffffff84146104d7577fffffffffffffffffffffffffffffffffffffffffffffffffffff000000000000166001840165ffffffffffff1617905560405194608086019167ffffffffffffffff8311878410176104aa5773ffffffffffffffffffffffffffffffffffffffff92604052865216602085015265ffffffffffff421660408501526060840152604051926060840184811067ffffffffffffffff8211176104aa5760405283526020830191825260408301428152813b156104a65765ffffffffffff935f6060936101249373ffffffffffffffffffffffffffffffffffffffff8397604051998a9889977f2b67b5700000000000000000000000000000000000000000000000000000000089523060048a0152518481511660248a01528460208201511660448a01528260408201511660648a01520151166084870152511660a48501525160c484015261010060e4840152816101048401525af1801561049b57610482575b50918492918380937fffffffffffffffffffffffffffffffffffffffffffffffffffffffffffffff006002541660025561016a565b61049191929395505f90610705565b5f9391905f61044d565b6040513d5f823e3d90fd5b5f80fd5b7f4e487b71000000000000000000000000000000000000000000000000000000005f52604160045260245ffd5b7f4e487b71000000000000000000000000000000000000000000000000000000005f52601160045260245ffd5b7f4b26f70d000000000000000000000000000000000000000000000000000000005f5260045ffd5b7f40892c33000000000000000000000000000000000000000000000000000000005f5260045ffd5b346104a65760407ffffffffffffffffffffffffffffffffffffffffffffffffffffffffffffffffc3601126104a65760243567ffffffffffffffff81116104a6576105a39036906004016106d7565b505073ffffffffffffffffffffffffffffffffffffffff7f00000000000000000000000000000000000000000000000000000000000000001633148061065f575b156106375760207f1626ba7e000000000000000000000000000000000000000000000000000000005b7fffffffff0000000000000000000000000000000000000000000000000000000060405191168152f35b60207fffffffff0000000000000000000000000000000000000000000000000000000061060d565b5060ff600254166105e4565b346104a6575f7ffffffffffffffffffffffffffffffffffffffffffffffffffffffffffffffffc3601126104a65760209073ffffffffffffffffffffffffffffffffffffffff7f0000000000000000000000000000000000000000000000000000000000000000168152f35b9181601f840112156104a65782359167ffffffffffffffff83116104a657602083818601950101116104a657565b90601f7fffffffffffffffffffffffffffffffffffffffffffffffffffffffffffffffe0910116810190811067ffffffffffffffff8211176104aa57604052565b3d1561079e573d9067ffffffffffffffff82116104aa5760405191610793601f82017fffffffffffffffffffffffffffffffffffffffffffffffffffffffffffffffe01660200184610705565b82523d5f602084013e565b606090565b6040517f095ea7b3000000000000000000000000000000000000000000000000000000006020820190815273ffffffffffffffffffffffffffffffffffffffff841660248301526044808301959095529381529192610803606484610705565b5f8073ffffffffffffffffffffffffffffffffffffffff84169285519082855af19061082d610746565b826108be575b50816108b3575b501561084557505050565b6108ac6108b19373ffffffffffffffffffffffffffffffffffffffff604051917f095ea7b30000000000000000000000000000000000000000000000000000000060208401521660248201525f6044820152604481526108a6606482610705565b8261096a565b61096a565b565b90503b15155f61083a565b805191925081159182156108d6575b5050905f610833565b6108e99250602080918301019101610952565b5f806108cd565b6040517fa9059cbb00000000000000000000000000000000000000000000000000000000602082015273ffffffffffffffffffffffffffffffffffffffff9290921660248301526044808301939093529181526108b1916108ac606483610705565b908160209103126104a6575180151581036104a65790565b9073ffffffffffffffffffffffffffffffffffffffff6109d892165f8060405193610996604086610705565b602085527f5361666545524332303a206c6f772d6c6576656c2063616c6c206661696c6564602086015260208151910182855af16109d2610746565b91610a08565b80519081159182156109ee575b5050156104a657565b610a019250602080918301019101610952565b5f806109e5565b91925015610a2457815115610a1b575090565b3b156104a65790565b5080519081156104a657602001fdfea2646970667358221220692ab35a712c437c02cdb3d7cd7daa057cd3a307823bc589e912276373f8cffe64736f6c634300081e0033",
  "devdoc": {
    "custom:security-contact": "bugs@across.to",
    "events": {
      "EIP712DomainChanged()": {
        "details": "MAY be emitted to signal that the domain could have changed."
      }
    },
    "kind": "dev",
    "methods": {
      "constructor": {
        "params": {
          "_permit2": "Address of the canonical permit2 contract."
        }
      },
      "depositNative(address,bytes32,address,uint256,bytes32,uint256,uint256,bytes32,uint32,uint32,uint32,bytes)": {
        "details": "Protects the caller from losing their ETH (or other native token) by reverting if the SpokePool address they intended to call does not exist on this chain. Because this contract can be deployed at the same address everywhere callers should be protected even if the transaction is submitted to an unintended network. This contract should only be used for native token deposits, as this problem only exists for native tokens.",
        "params": {
          "destinationChainId": "Denotes network where user will receive funds from SpokePool by a relayer.",
          "exclusiveRelayer": "Address (as bytes32) of the relayer who has exclusive rights to fill this deposit. Can be set to 0x0 if no period is desired. If so, then must set exclusivityParameter to 0.",
          "exclusivityParameter": "Timestamp or offset, after which any relayer can fill this deposit. Must set to 0 if exclusiveRelayer is set to 0x0, and vice versa.",
          "fillDeadline": "Timestamp after which this deposit can no longer be filled.",
          "inputAmount": "Amount of tokens to deposit.",
          "inputToken": "Token to lock into this contract to initiate deposit.",
          "message": "Arbitrary data that can be used to pass additional information to the recipient along with the tokens. Note: this is intended to be used to pass along instructions for how a contract should use or allocate the tokens.",
          "outputAmount": "Amount of tokens to receive on destination chain.",
          "quoteTimestamp": "Timestamp used by relayers to compute this deposit's realizedLPFeePct which is paid to LP pool on HubPool.",
          "recipient": "Address (as bytes32) to receive funds on destination chain."
        }
      },
      "depositWithAuthorization(address,((uint256,address),(address,bytes32,uint256,address,bytes32,uint256,bytes32,uint32,uint32,uint32,bytes),uint256,address,uint256),uint256,uint256,bytes,bytes)": {
        "details": "If `acrossInputToken` does not implement `receiveWithAuthorization` to the specifications of EIP-3009, this call will revert.The nonce for the receiveWithAuthorization signature should match the nonce in the DepositData. This nonce is managed by the ERC-3009 token contract.",
        "params": {
          "depositData": "Specifies the Across deposit params to send.",
          "depositDataSignature": "The signature against the input depositData encoded as (bytes32 r, bytes32 s, uint8 v).",
          "receiveWithAuthSignature": "EIP3009 signature encoded as (bytes32 r, bytes32 s, uint8 v).",
          "signatureOwner": "The owner of the EIP3009 signature and depositData signature. Assumed to be the depositor for the Across spoke pool.",
          "validAfter": "The unix time after which the `receiveWithAuthorization` signature is valid.",
          "validBefore": "The unix time before which the `receiveWithAuthorization` signature is valid."
        }
      },
      "depositWithPermit(address,((uint256,address),(address,bytes32,uint256,address,bytes32,uint256,bytes32,uint32,uint32,uint32,bytes),uint256,address,uint256),uint256,bytes,bytes)": {
        "details": "If the token does not implement `permit` to the specifications of EIP-2612, the permit call result will be ignored and the function will continue.If `acrossInputToken` does not implement `permit` to the specifications of EIP-2612, this function will fail.The nonce for the depositData signature must be retrieved from permitNonces(signatureOwner).Design Decision: We use separate nonce tracking for permit-based functions versus receiveWithAuthorization-based functions, which creates a theoretical replay attack that we think is incredibly unlikely because this would require: 1. A token implementing both ERC-2612 and ERC-3009 2. A user using the same nonces for depositWithPermit and for depositWithAuthorization 3. Issuing these signatures within a short amount of time (limited by fillDeadlineBuffer)",
        "params": {
          "deadline": "Deadline before which the permit signature is valid.",
          "depositData": "Specifies the Across deposit params to send.",
          "depositDataSignature": "The signature against the input depositData encoded as (bytes32 r, bytes32 s, uint8 v).",
          "permitSignature": "Permit signature encoded as (bytes32 r, bytes32 s, uint8 v).",
          "signatureOwner": "The owner of the permit signature and depositData signature. Assumed to be the depositor for the Across spoke pool."
        }
      },
      "depositWithPermit2(address,((uint256,address),(address,bytes32,uint256,address,bytes32,uint256,bytes32,uint32,uint32,uint32,bytes),uint256,address,uint256),((address,uint256),uint256,uint256),bytes)": {
        "details": "This function assumes the caller has properly set an allowance for the permit2 contract on this network.This function assumes that the amount of token to be swapped is equal to the amount of the token to be received from permit2.",
        "params": {
          "depositData": "Specifies the Across deposit params we'll send after the swap.",
          "permit": "The permit data signed over by the owner.",
          "signature": "The permit2 signature to verify against the deposit data.",
          "signatureOwner": "The owner of the permit2 signature and depositor for the Across spoke pool."
        }
      },
      "eip712Domain()": {
        "details": "See {EIP-5267}. _Available since v4.9._"
      },
      "swapAndBridge(((uint256,address),(address,bytes32,uint256,address,bytes32,uint256,bytes32,uint32,uint32,uint32,bytes),address,address,uint8,uint256,uint256,bytes,bool,address,uint256))": {
        "details": "Revert case: When enableProportionalAdjustment is true, the calculation depositData.outputAmount * returnAmount may overflow if the product exceeds 2^256-1, causing immediate transaction revert even when the final division result would fit. This case should be extremely rare as both values would need to be > 1e18 * 1e18. Users will only see a generic failure without explanatory error message.Does not support native tokens as swap output. Only ERC20 tokens can be deposited via this function.",
        "params": {
          "swapAndDepositData": "Specifies the data needed to perform a swap on a generic exchange."
        }
      },
      "swapAndBridgeWithAuthorization(address,((uint256,address),(address,bytes32,uint256,address,bytes32,uint256,bytes32,uint32,uint32,uint32,bytes),address,address,uint8,uint256,uint256,bytes,bool,address,uint256),uint256,uint256,bytes,bytes)": {
        "details": "Revert case: When enableProportionalAdjustment is true, the calculation depositData.outputAmount * returnAmount may overflow if the product exceeds 2^256-1, causing immediate transaction revert even when the final division result would fit. This case should be extremely rare as both values would need to be > 1e18 * 1e18. Users will only see a generic failure without explanatory error message.Does not support native tokens as swap output. Only ERC20 tokens can be deposited via this function.",
        "params": {
          "receiveWithAuthSignature": "EIP3009 signature encoded as (bytes32 r, bytes32 s, uint8 v).",
          "signatureOwner": "The owner of the EIP3009 signature and swapAndDepositData signature. Assumed to be the depositor for the Across spoke pool.",
          "swapAndDepositData": "Specifies the params we need to perform a swap on a generic exchange.",
          "swapAndDepositDataSignature": "The signature against the input swapAndDepositData encoded as (bytes32 r, bytes32 s, uint8 v).",
          "validAfter": "The unix time after which the `receiveWithAuthorization` signature is valid.",
          "validBefore": "The unix time before which the `receiveWithAuthorization` signature is valid."
        }
      },
      "swapAndBridgeWithPermit(address,((uint256,address),(address,bytes32,uint256,address,bytes32,uint256,bytes32,uint32,uint32,uint32,bytes),address,address,uint8,uint256,uint256,bytes,bool,address,uint256),uint256,bytes,bytes)": {
        "details": "Revert case: When enableProportionalAdjustment is true, the calculation depositData.outputAmount * returnAmount may overflow if the product exceeds 2^256-1, causing immediate transaction revert even when the final division result would fit. This case should be extremely rare as both values would need to be > 1e18 * 1e18. Users will only see a generic failure without explanatory error message.Does not support native tokens as swap output. Only ERC20 tokens can be deposited via this function.",
        "params": {
          "deadline": "Deadline before which the permit signature is valid.",
          "permitSignature": "Permit signature encoded as (bytes32 r, bytes32 s, uint8 v).",
          "signatureOwner": "The owner of the permit signature and swapAndDepositData signature. Assumed to be the depositor for the Across spoke pool.",
          "swapAndDepositData": "Specifies the params we need to perform a swap on a generic exchange.",
          "swapAndDepositDataSignature": "The signature against the input swapAndDepositData encoded as (bytes32 r, bytes32 s, uint8 v)."
        }
      },
      "swapAndBridgeWithPermit2(address,((uint256,address),(address,bytes32,uint256,address,bytes32,uint256,bytes32,uint32,uint32,uint32,bytes),address,address,uint8,uint256,uint256,bytes,bool,address,uint256),((address,uint256),uint256,uint256),bytes)": {
        "details": "Revert case: When enableProportionalAdjustment is true, the calculation depositData.outputAmount * returnAmount may overflow if the product exceeds 2^256-1, causing immediate transaction revert even when the final division result would fit. This case should be extremely rare as both values would need to be > 1e18 * 1e18. Users will only see a generic failure without explanatory error message.Does not support native tokens as swap output. Only ERC20 tokens can be deposited via this function.",
        "params": {
          "permit": "The permit data signed over by the owner.",
          "signature": "The permit2 signature to verify against the deposit data.",
          "signatureOwner": "The owner of the permit2 signature and depositor for the Across spoke pool.",
          "swapAndDepositData": "Specifies the params we need to perform a swap on a generic exchange."
        }
      }
    },
    "stateVariables": {
      "permitNonces": {
        "params": {
          "user": "The user whose nonce to return."
        },
        "return": "The current permit nonce for the user.",
        "returns": {
          "_0": "The current permit nonce for the user."
        }
      }
    },
    "title": "SpokePoolPeriphery",
    "version": 1
  },
  "userdoc": {
    "kind": "user",
    "methods": {
      "constructor": {
        "notice": "Construct a new Periphery contract."
      },
      "depositNative(address,bytes32,address,uint256,bytes32,uint256,uint256,bytes32,uint32,uint32,uint32,bytes)": {
        "notice": "Passthrough function to `depositV3()` on the SpokePool contract for native token deposits."
      },
      "depositWithAuthorization(address,((uint256,address),(address,bytes32,uint256,address,bytes32,uint256,bytes32,uint32,uint32,uint32,bytes),uint256,address,uint256),uint256,uint256,bytes,bytes)": {
        "notice": "Deposits an EIP-3009 compliant Across input token into the Spoke Pool contract."
      },
      "depositWithPermit(address,((uint256,address),(address,bytes32,uint256,address,bytes32,uint256,bytes32,uint32,uint32,uint32,bytes),uint256,address,uint256),uint256,bytes,bytes)": {
        "notice": "Deposits an EIP-2612 token Across input token into the Spoke Pool contract."
      },
      "depositWithPermit2(address,((uint256,address),(address,bytes32,uint256,address,bytes32,uint256,bytes32,uint32,uint32,uint32,bytes),uint256,address,uint256),((address,uint256),uint256,uint256),bytes)": {
        "notice": "Uses permit2 to transfer and submit an Across deposit to the Spoke Pool contract."
      },
      "domainSeparator()": {
        "notice": "Returns the contract's EIP712 domain separator, used to sign hashed DepositData/SwapAndDepositData types."
      },
      "permitNonces(address)": {
        "notice": "Returns the current permit nonce for a user."
      },
      "swapAndBridge(((uint256,address),(address,bytes32,uint256,address,bytes32,uint256,bytes32,uint32,uint32,uint32,bytes),address,address,uint8,uint256,uint256,bytes,bool,address,uint256))": {
        "notice": "Swaps tokens on this chain via specified router before submitting Across deposit atomically. Caller can specify their slippage tolerance for the swap and Across deposit params."
      },
      "swapAndBridgeWithAuthorization(address,((uint256,address),(address,bytes32,uint256,address,bytes32,uint256,bytes32,uint32,uint32,uint32,bytes),address,address,uint8,uint256,uint256,bytes,bool,address,uint256),uint256,uint256,bytes,bytes)": {
        "notice": "Swaps an EIP-3009 token on this chain via specified router before submitting Across deposit atomically. Caller can specify their slippage tolerance for the swap and Across deposit params."
      },
      "swapAndBridgeWithPermit(address,((uint256,address),(address,bytes32,uint256,address,bytes32,uint256,bytes32,uint32,uint32,uint32,bytes),address,address,uint8,uint256,uint256,bytes,bool,address,uint256),uint256,bytes,bytes)": {
        "notice": "Swaps an EIP-2612 token on this chain via specified router before submitting Across deposit atomically. Caller can specify their slippage tolerance for the swap and Across deposit params."
      },
      "swapAndBridgeWithPermit2(address,((uint256,address),(address,bytes32,uint256,address,bytes32,uint256,bytes32,uint32,uint32,uint32,bytes),address,address,uint8,uint256,uint256,bytes,bool,address,uint256),((address,uint256),uint256,uint256),bytes)": {
        "notice": "Uses permit2 to transfer tokens from a user before swapping a token on this chain via specified router and submitting an Across deposit atomically. Caller can specify their slippage tolerance for the swap and Across deposit params."
      }
    },
    "notice": "Contract for performing more complex interactions with an Across spoke pool deployment.",
    "version": 1
  },
  "storageLayout": {
    "storage": [
      {
        "astId": 4301,
        "contract": "contracts/SpokePoolPeriphery.sol:SpokePoolPeriphery",
        "label": "_status",
        "offset": 0,
        "slot": "0",
        "type": "t_uint256"
      },
      {
        "astId": 8418,
        "contract": "contracts/SpokePoolPeriphery.sol:SpokePoolPeriphery",
        "label": "_nameFallback",
        "offset": 0,
        "slot": "1",
        "type": "t_string_storage"
      },
      {
        "astId": 8420,
        "contract": "contracts/SpokePoolPeriphery.sol:SpokePoolPeriphery",
        "label": "_versionFallback",
        "offset": 0,
        "slot": "2",
        "type": "t_string_storage"
      },
      {
        "astId": 20585,
        "contract": "contracts/SpokePoolPeriphery.sol:SpokePoolPeriphery",
        "label": "permitNonces",
        "offset": 0,
        "slot": "3",
        "type": "t_mapping(t_address,t_uint256)"
      }
    ],
    "types": {
      "t_address": {
        "encoding": "inplace",
        "label": "address",
        "numberOfBytes": "20"
      },
      "t_mapping(t_address,t_uint256)": {
        "encoding": "mapping",
        "key": "t_address",
        "label": "mapping(address => uint256)",
        "numberOfBytes": "32",
        "value": "t_uint256"
      },
      "t_string_storage": {
        "encoding": "bytes",
        "label": "string",
        "numberOfBytes": "32"
      },
      "t_uint256": {
        "encoding": "inplace",
        "label": "uint256",
        "numberOfBytes": "32"
      }
    }
  }
}