{
  "address": "0xd2ecb3afe598b746F8123CaE365a598DA831A449",
  "abi": [
    {
      "inputs": [
        {
          "internalType": "uint256",
          "name": "_adminUpdateBufferSeconds",
          "type": "uint256"
        },
        {
          "internalType": "address",
          "name": "_helios",
          "type": "address"
        },
        {
          "internalType": "address",
          "name": "_hubPoolStore",
          "type": "address"
        },
        {
          "internalType": "address",
          "name": "_wrappedNativeTokenAddress",
          "type": "address"
        },
        {
          "internalType": "uint32",
          "name": "_depositQuoteTimeBuffer",
          "type": "uint32"
        },
        {
          "internalType": "uint32",
          "name": "_fillDeadlineBuffer",
          "type": "uint32"
        },
        {
          "internalType": "contract IERC20",
          "name": "_l2Usdc",
          "type": "address"
        },
        {
          "internalType": "contract ITokenMessenger",
          "name": "_cctpTokenMessenger",
          "type": "address"
        },
        {
          "internalType": "uint32",
          "name": "_oftDstEid",
          "type": "uint32"
        },
        {
          "internalType": "uint256",
          "name": "_oftFeeCap",
          "type": "uint256"
        }
      ],
      "stateMutability": "nonpayable",
      "type": "constructor"
    },
    {
      "inputs": [],
      "name": "AdminCallAlreadySet",
      "type": "error"
    },
    {
      "inputs": [],
      "name": "AdminCallNotValidated",
      "type": "error"
    },
    {
      "inputs": [],
      "name": "AdminUpdateTooCloseToLastHeliosUpdate",
      "type": "error"
    },
    {
      "inputs": [],
      "name": "AlreadyExecuted",
      "type": "error"
    },
    {
      "inputs": [],
      "name": "ClaimedMerkleLeaf",
      "type": "error"
    },
    {
      "inputs": [],
      "name": "DelegateCallFailed",
      "type": "error"
    },
    {
      "inputs": [],
      "name": "DepositsArePaused",
      "type": "error"
    },
    {
      "inputs": [],
      "name": "DisabledRoute",
      "type": "error"
    },
    {
      "inputs": [],
      "name": "ExpiredFillDeadline",
      "type": "error"
    },
    {
      "inputs": [],
      "name": "ExternalCallExecutionFailed",
      "type": "error"
    },
    {
      "inputs": [],
      "name": "FillsArePaused",
      "type": "error"
    },
    {
      "inputs": [],
      "name": "InsufficientSpokePoolBalanceToExecuteLeaf",
      "type": "error"
    },
    {
      "inputs": [],
      "name": "InvalidBytes32",
      "type": "error"
    },
    {
      "inputs": [],
      "name": "InvalidChainId",
      "type": "error"
    },
    {
      "inputs": [],
      "name": "InvalidCrossDomainAdmin",
      "type": "error"
    },
    {
      "inputs": [],
      "name": "InvalidDepositorSignature",
      "type": "error"
    },
    {
      "inputs": [],
      "name": "InvalidExclusiveRelayer",
      "type": "error"
    },
    {
      "inputs": [],
      "name": "InvalidFillDeadline",
      "type": "error"
    },
    {
      "inputs": [],
      "name": "InvalidMerkleLeaf",
      "type": "error"
    },
    {
      "inputs": [],
      "name": "InvalidMerkleProof",
      "type": "error"
    },
    {
      "inputs": [],
      "name": "InvalidPayoutAdjustmentPct",
      "type": "error"
    },
    {
      "inputs": [],
      "name": "InvalidQuoteTimestamp",
      "type": "error"
    },
    {
      "inputs": [],
      "name": "InvalidRelayerFeePct",
      "type": "error"
    },
    {
      "inputs": [],
      "name": "InvalidSlowFillRequest",
      "type": "error"
    },
    {
      "inputs": [],
      "name": "InvalidWithdrawalRecipient",
      "type": "error"
    },
    {
      "inputs": [
        {
          "internalType": "bytes",
          "name": "data",
          "type": "bytes"
        }
      ],
      "name": "LowLevelCallFailed",
      "type": "error"
    },
    {
      "inputs": [],
      "name": "MaxTransferSizeExceeded",
      "type": "error"
    },
    {
      "inputs": [],
      "name": "MessageTooShort",
      "type": "error"
    },
    {
      "inputs": [],
      "name": "MsgValueDoesNotMatchInputAmount",
      "type": "error"
    },
    {
      "inputs": [],
      "name": "NoRelayerRefundToClaim",
      "type": "error"
    },
    {
      "inputs": [],
      "name": "NoSlowFillsInExclusivityWindow",
      "type": "error"
    },
    {
      "inputs": [],
      "name": "NotEOA",
      "type": "error"
    },
    {
      "inputs": [],
      "name": "NotExclusiveRelayer",
      "type": "error"
    },
    {
      "inputs": [],
      "name": "NotImplemented",
      "type": "error"
    },
    {
      "inputs": [],
      "name": "NotTarget",
      "type": "error"
    },
    {
      "inputs": [],
      "name": "OFTFeeUnderpaid",
      "type": "error"
    },
    {
      "inputs": [],
      "name": "OFTTokenMismatch",
      "type": "error"
    },
    {
      "inputs": [],
      "name": "OftFeeCapExceeded",
      "type": "error"
    },
    {
      "inputs": [],
      "name": "OftIncorrectAmountReceivedLD",
      "type": "error"
    },
    {
      "inputs": [],
      "name": "OftIncorrectAmountSentLD",
      "type": "error"
    },
    {
      "inputs": [],
      "name": "OftInsufficientBalanceForFee",
      "type": "error"
    },
    {
      "inputs": [],
      "name": "OftLzFeeNotZero",
      "type": "error"
    },
    {
      "inputs": [],
      "name": "RelayFilled",
      "type": "error"
    },
    {
      "inputs": [],
      "name": "SlotValueMismatch",
      "type": "error"
    },
    {
      "inputs": [],
      "name": "WrongERC7683OrderId",
      "type": "error"
    },
    {
      "inputs": [],
      "name": "ZeroAddressTarget",
      "type": "error"
    },
    {
      "anonymous": false,
      "inputs": [
        {
          "indexed": false,
          "internalType": "address",
          "name": "previousAdmin",
          "type": "address"
        },
        {
          "indexed": false,
          "internalType": "address",
          "name": "newAdmin",
          "type": "address"
        }
      ],
      "name": "AdminChanged",
      "type": "event"
    },
    {
      "anonymous": false,
      "inputs": [
        {
          "indexed": true,
          "internalType": "address",
          "name": "target",
          "type": "address"
        },
        {
          "indexed": false,
          "internalType": "bytes",
          "name": "data",
          "type": "bytes"
        }
      ],
      "name": "AdminExternalCallExecuted",
      "type": "event"
    },
    {
      "anonymous": false,
      "inputs": [
        {
          "indexed": true,
          "internalType": "address",
          "name": "beacon",
          "type": "address"
        }
      ],
      "name": "BeaconUpgraded",
      "type": "event"
    },
    {
      "anonymous": false,
      "inputs": [
        {
          "indexed": true,
          "internalType": "bytes32",
          "name": "l2TokenAddress",
          "type": "bytes32"
        },
        {
          "indexed": true,
          "internalType": "bytes32",
          "name": "refundAddress",
          "type": "bytes32"
        },
        {
          "indexed": false,
          "internalType": "uint256",
          "name": "amount",
          "type": "uint256"
        },
        {
          "indexed": true,
          "internalType": "address",
          "name": "caller",
          "type": "address"
        }
      ],
      "name": "ClaimedRelayerRefund",
      "type": "event"
    },
    {
      "anonymous": false,
      "inputs": [
        {
          "indexed": true,
          "internalType": "uint256",
          "name": "rootBundleId",
          "type": "uint256"
        }
      ],
      "name": "EmergencyDeletedRootBundle",
      "type": "event"
    },
    {
      "anonymous": false,
      "inputs": [
        {
          "indexed": true,
          "internalType": "address",
          "name": "originToken",
          "type": "address"
        },
        {
          "indexed": true,
          "internalType": "uint256",
          "name": "destinationChainId",
          "type": "uint256"
        },
        {
          "indexed": false,
          "internalType": "bool",
          "name": "enabled",
          "type": "bool"
        }
      ],
      "name": "EnabledDepositRoute",
      "type": "event"
    },
    {
      "anonymous": false,
      "inputs": [
        {
          "indexed": false,
          "internalType": "uint256",
          "name": "amountToReturn",
          "type": "uint256"
        },
        {
          "indexed": true,
          "internalType": "uint256",
          "name": "chainId",
          "type": "uint256"
        },
        {
          "indexed": false,
          "internalType": "uint256[]",
          "name": "refundAmounts",
          "type": "uint256[]"
        },
        {
          "indexed": true,
          "internalType": "uint32",
          "name": "rootBundleId",
          "type": "uint32"
        },
        {
          "indexed": true,
          "internalType": "uint32",
          "name": "leafId",
          "type": "uint32"
        },
        {
          "indexed": false,
          "internalType": "address",
          "name": "l2TokenAddress",
          "type": "address"
        },
        {
          "indexed": false,
          "internalType": "address[]",
          "name": "refundAddresses",
          "type": "address[]"
        },
        {
          "indexed": false,
          "internalType": "bool",
          "name": "deferredRefunds",
          "type": "bool"
        },
        {
          "indexed": false,
          "internalType": "address",
          "name": "caller",
          "type": "address"
        }
      ],
      "name": "ExecutedRelayerRefundRoot",
      "type": "event"
    },
    {
      "anonymous": false,
      "inputs": [
        {
          "indexed": false,
          "internalType": "bytes32",
          "name": "inputToken",
          "type": "bytes32"
        },
        {
          "indexed": false,
          "internalType": "bytes32",
          "name": "outputToken",
          "type": "bytes32"
        },
        {
          "indexed": false,
          "internalType": "uint256",
          "name": "inputAmount",
          "type": "uint256"
        },
        {
          "indexed": false,
          "internalType": "uint256",
          "name": "outputAmount",
          "type": "uint256"
        },
        {
          "indexed": false,
          "internalType": "uint256",
          "name": "repaymentChainId",
          "type": "uint256"
        },
        {
          "indexed": true,
          "internalType": "uint256",
          "name": "originChainId",
          "type": "uint256"
        },
        {
          "indexed": true,
          "internalType": "uint256",
          "name": "depositId",
          "type": "uint256"
        },
        {
          "indexed": false,
          "internalType": "uint32",
          "name": "fillDeadline",
          "type": "uint32"
        },
        {
          "indexed": false,
          "internalType": "uint32",
          "name": "exclusivityDeadline",
          "type": "uint32"
        },
        {
          "indexed": false,
          "internalType": "bytes32",
          "name": "exclusiveRelayer",
          "type": "bytes32"
        },
        {
          "indexed": true,
          "internalType": "bytes32",
          "name": "relayer",
          "type": "bytes32"
        },
        {
          "indexed": false,
          "internalType": "bytes32",
          "name": "depositor",
          "type": "bytes32"
        },
        {
          "indexed": false,
          "internalType": "bytes32",
          "name": "recipient",
          "type": "bytes32"
        },
        {
          "indexed": false,
          "internalType": "bytes32",
          "name": "messageHash",
          "type": "bytes32"
        },
        {
          "components": [
            {
              "internalType": "bytes32",
              "name": "updatedRecipient",
              "type": "bytes32"
            },
            {
              "internalType": "bytes32",
              "name": "updatedMessageHash",
              "type": "bytes32"
            },
            {
              "internalType": "uint256",
              "name": "updatedOutputAmount",
              "type": "uint256"
            },
            {
              "internalType": "enum V3SpokePoolInterface.FillType",
              "name": "fillType",
              "type": "uint8"
            }
          ],
          "indexed": false,
          "internalType": "struct V3SpokePoolInterface.V3RelayExecutionEventInfo",
          "name": "relayExecutionInfo",
          "type": "tuple"
        }
      ],
      "name": "FilledRelay",
      "type": "event"
    },
    {
      "anonymous": false,
      "inputs": [
        {
          "indexed": false,
          "internalType": "address",
          "name": "inputToken",
          "type": "address"
        },
        {
          "indexed": false,
          "internalType": "address",
          "name": "outputToken",
          "type": "address"
        },
        {
          "indexed": false,
          "internalType": "uint256",
          "name": "inputAmount",
          "type": "uint256"
        },
        {
          "indexed": false,
          "internalType": "uint256",
          "name": "outputAmount",
          "type": "uint256"
        },
        {
          "indexed": false,
          "internalType": "uint256",
          "name": "repaymentChainId",
          "type": "uint256"
        },
        {
          "indexed": true,
          "internalType": "uint256",
          "name": "originChainId",
          "type": "uint256"
        },
        {
          "indexed": true,
          "internalType": "uint32",
          "name": "depositId",
          "type": "uint32"
        },
        {
          "indexed": false,
          "internalType": "uint32",
          "name": "fillDeadline",
          "type": "uint32"
        },
        {
          "indexed": false,
          "internalType": "uint32",
          "name": "exclusivityDeadline",
          "type": "uint32"
        },
        {
          "indexed": false,
          "internalType": "address",
          "name": "exclusiveRelayer",
          "type": "address"
        },
        {
          "indexed": true,
          "internalType": "address",
          "name": "relayer",
          "type": "address"
        },
        {
          "indexed": false,
          "internalType": "address",
          "name": "depositor",
          "type": "address"
        },
        {
          "indexed": false,
          "internalType": "address",
          "name": "recipient",
          "type": "address"
        },
        {
          "indexed": false,
          "internalType": "bytes",
          "name": "message",
          "type": "bytes"
        },
        {
          "components": [
            {
              "internalType": "address",
              "name": "updatedRecipient",
              "type": "address"
            },
            {
              "internalType": "bytes",
              "name": "updatedMessage",
              "type": "bytes"
            },
            {
              "internalType": "uint256",
              "name": "updatedOutputAmount",
              "type": "uint256"
            },
            {
              "internalType": "enum V3SpokePoolInterface.FillType",
              "name": "fillType",
              "type": "uint8"
            }
          ],
          "indexed": false,
          "internalType": "struct V3SpokePoolInterface.LegacyV3RelayExecutionEventInfo",
          "name": "relayExecutionInfo",
          "type": "tuple"
        }
      ],
      "name": "FilledV3Relay",
      "type": "event"
    },
    {
      "anonymous": false,
      "inputs": [
        {
          "indexed": false,
          "internalType": "bytes32",
          "name": "inputToken",
          "type": "bytes32"
        },
        {
          "indexed": false,
          "internalType": "bytes32",
          "name": "outputToken",
          "type": "bytes32"
        },
        {
          "indexed": false,
          "internalType": "uint256",
          "name": "inputAmount",
          "type": "uint256"
        },
        {
          "indexed": false,
          "internalType": "uint256",
          "name": "outputAmount",
          "type": "uint256"
        },
        {
          "indexed": true,
          "internalType": "uint256",
          "name": "destinationChainId",
          "type": "uint256"
        },
        {
          "indexed": true,
          "internalType": "uint256",
          "name": "depositId",
          "type": "uint256"
        },
        {
          "indexed": false,
          "internalType": "uint32",
          "name": "quoteTimestamp",
          "type": "uint32"
        },
        {
          "indexed": false,
          "internalType": "uint32",
          "name": "fillDeadline",
          "type": "uint32"
        },
        {
          "indexed": false,
          "internalType": "uint32",
          "name": "exclusivityDeadline",
          "type": "uint32"
        },
        {
          "indexed": true,
          "internalType": "bytes32",
          "name": "depositor",
          "type": "bytes32"
        },
        {
          "indexed": false,
          "internalType": "bytes32",
          "name": "recipient",
          "type": "bytes32"
        },
        {
          "indexed": false,
          "internalType": "bytes32",
          "name": "exclusiveRelayer",
          "type": "bytes32"
        },
        {
          "indexed": false,
          "internalType": "bytes",
          "name": "message",
          "type": "bytes"
        }
      ],
      "name": "FundsDeposited",
      "type": "event"
    },
    {
      "anonymous": false,
      "inputs": [
        {
          "indexed": false,
          "internalType": "uint8",
          "name": "version",
          "type": "uint8"
        }
      ],
      "name": "Initialized",
      "type": "event"
    },
    {
      "anonymous": false,
      "inputs": [
        {
          "indexed": true,
          "internalType": "address",
          "name": "previousOwner",
          "type": "address"
        },
        {
          "indexed": true,
          "internalType": "address",
          "name": "newOwner",
          "type": "address"
        }
      ],
      "name": "OwnershipTransferred",
      "type": "event"
    },
    {
      "anonymous": false,
      "inputs": [
        {
          "indexed": false,
          "internalType": "bool",
          "name": "isPaused",
          "type": "bool"
        }
      ],
      "name": "PausedDeposits",
      "type": "event"
    },
    {
      "anonymous": false,
      "inputs": [
        {
          "indexed": false,
          "internalType": "bool",
          "name": "isPaused",
          "type": "bool"
        }
      ],
      "name": "PausedFills",
      "type": "event"
    },
    {
      "anonymous": false,
      "inputs": [
        {
          "indexed": true,
          "internalType": "uint256",
          "name": "nonce",
          "type": "uint256"
        },
        {
          "indexed": false,
          "internalType": "address",
          "name": "caller",
          "type": "address"
        }
      ],
      "name": "RelayedCallData",
      "type": "event"
    },
    {
      "anonymous": false,
      "inputs": [
        {
          "indexed": true,
          "internalType": "uint32",
          "name": "rootBundleId",
          "type": "uint32"
        },
        {
          "indexed": true,
          "internalType": "bytes32",
          "name": "relayerRefundRoot",
          "type": "bytes32"
        },
        {
          "indexed": true,
          "internalType": "bytes32",
          "name": "slowRelayRoot",
          "type": "bytes32"
        }
      ],
      "name": "RelayedRootBundle",
      "type": "event"
    },
    {
      "anonymous": false,
      "inputs": [
        {
          "indexed": false,
          "internalType": "bytes32",
          "name": "inputToken",
          "type": "bytes32"
        },
        {
          "indexed": false,
          "internalType": "bytes32",
          "name": "outputToken",
          "type": "bytes32"
        },
        {
          "indexed": false,
          "internalType": "uint256",
          "name": "inputAmount",
          "type": "uint256"
        },
        {
          "indexed": false,
          "internalType": "uint256",
          "name": "outputAmount",
          "type": "uint256"
        },
        {
          "indexed": true,
          "internalType": "uint256",
          "name": "originChainId",
          "type": "uint256"
        },
        {
          "indexed": true,
          "internalType": "uint256",
          "name": "depositId",
          "type": "uint256"
        },
        {
          "indexed": false,
          "internalType": "uint32",
          "name": "fillDeadline",
          "type": "uint32"
        },
        {
          "indexed": false,
          "internalType": "uint32",
          "name": "exclusivityDeadline",
          "type": "uint32"
        },
        {
          "indexed": false,
          "internalType": "bytes32",
          "name": "exclusiveRelayer",
          "type": "bytes32"
        },
        {
          "indexed": false,
          "internalType": "bytes32",
          "name": "depositor",
          "type": "bytes32"
        },
        {
          "indexed": false,
          "internalType": "bytes32",
          "name": "recipient",
          "type": "bytes32"
        },
        {
          "indexed": false,
          "internalType": "bytes32",
          "name": "messageHash",
          "type": "bytes32"
        }
      ],
      "name": "RequestedSlowFill",
      "type": "event"
    },
    {
      "anonymous": false,
      "inputs": [
        {
          "indexed": false,
          "internalType": "uint256",
          "name": "updatedOutputAmount",
          "type": "uint256"
        },
        {
          "indexed": true,
          "internalType": "uint256",
          "name": "depositId",
          "type": "uint256"
        },
        {
          "indexed": true,
          "internalType": "bytes32",
          "name": "depositor",
          "type": "bytes32"
        },
        {
          "indexed": false,
          "internalType": "bytes32",
          "name": "updatedRecipient",
          "type": "bytes32"
        },
        {
          "indexed": false,
          "internalType": "bytes",
          "name": "updatedMessage",
          "type": "bytes"
        },
        {
          "indexed": false,
          "internalType": "bytes",
          "name": "depositorSignature",
          "type": "bytes"
        }
      ],
      "name": "RequestedSpeedUpDeposit",
      "type": "event"
    },
    {
      "anonymous": false,
      "inputs": [
        {
          "indexed": false,
          "internalType": "uint256",
          "name": "updatedOutputAmount",
          "type": "uint256"
        },
        {
          "indexed": true,
          "internalType": "uint32",
          "name": "depositId",
          "type": "uint32"
        },
        {
          "indexed": true,
          "internalType": "address",
          "name": "depositor",
          "type": "address"
        },
        {
          "indexed": false,
          "internalType": "address",
          "name": "updatedRecipient",
          "type": "address"
        },
        {
          "indexed": false,
          "internalType": "bytes",
          "name": "updatedMessage",
          "type": "bytes"
        },
        {
          "indexed": false,
          "internalType": "bytes",
          "name": "depositorSignature",
          "type": "bytes"
        }
      ],
      "name": "RequestedSpeedUpV3Deposit",
      "type": "event"
    },
    {
      "anonymous": false,
      "inputs": [
        {
          "indexed": false,
          "internalType": "address",
          "name": "inputToken",
          "type": "address"
        },
        {
          "indexed": false,
          "internalType": "address",
          "name": "outputToken",
          "type": "address"
        },
        {
          "indexed": false,
          "internalType": "uint256",
          "name": "inputAmount",
          "type": "uint256"
        },
        {
          "indexed": false,
          "internalType": "uint256",
          "name": "outputAmount",
          "type": "uint256"
        },
        {
          "indexed": true,
          "internalType": "uint256",
          "name": "originChainId",
          "type": "uint256"
        },
        {
          "indexed": true,
          "internalType": "uint32",
          "name": "depositId",
          "type": "uint32"
        },
        {
          "indexed": false,
          "internalType": "uint32",
          "name": "fillDeadline",
          "type": "uint32"
        },
        {
          "indexed": false,
          "internalType": "uint32",
          "name": "exclusivityDeadline",
          "type": "uint32"
        },
        {
          "indexed": false,
          "internalType": "address",
          "name": "exclusiveRelayer",
          "type": "address"
        },
        {
          "indexed": false,
          "internalType": "address",
          "name": "depositor",
          "type": "address"
        },
        {
          "indexed": false,
          "internalType": "address",
          "name": "recipient",
          "type": "address"
        },
        {
          "indexed": false,
          "internalType": "bytes",
          "name": "message",
          "type": "bytes"
        }
      ],
      "name": "RequestedV3SlowFill",
      "type": "event"
    },
    {
      "anonymous": false,
      "inputs": [
        {
          "indexed": true,
          "internalType": "address",
          "name": "token",
          "type": "address"
        },
        {
          "indexed": true,
          "internalType": "address",
          "name": "messenger",
          "type": "address"
        }
      ],
      "name": "SetOFTMessenger",
      "type": "event"
    },
    {
      "anonymous": false,
      "inputs": [
        {
          "indexed": true,
          "internalType": "address",
          "name": "newWithdrawalRecipient",
          "type": "address"
        }
      ],
      "name": "SetWithdrawalRecipient",
      "type": "event"
    },
    {
      "anonymous": false,
      "inputs": [
        {
          "indexed": true,
          "internalType": "address",
          "name": "newAdmin",
          "type": "address"
        }
      ],
      "name": "SetXDomainAdmin",
      "type": "event"
    },
    {
      "anonymous": false,
      "inputs": [
        {
          "indexed": false,
          "internalType": "uint256",
          "name": "amountToReturn",
          "type": "uint256"
        },
        {
          "indexed": true,
          "internalType": "uint256",
          "name": "chainId",
          "type": "uint256"
        },
        {
          "indexed": true,
          "internalType": "uint32",
          "name": "leafId",
          "type": "uint32"
        },
        {
          "indexed": true,
          "internalType": "bytes32",
          "name": "l2TokenAddress",
          "type": "bytes32"
        },
        {
          "indexed": false,
          "internalType": "address",
          "name": "caller",
          "type": "address"
        }
      ],
      "name": "TokensBridged",
      "type": "event"
    },
    {
      "anonymous": false,
      "inputs": [
        {
          "indexed": true,
          "internalType": "address",
          "name": "implementation",
          "type": "address"
        }
      ],
      "name": "Upgraded",
      "type": "event"
    },
    {
      "anonymous": false,
      "inputs": [
        {
          "indexed": false,
          "internalType": "address",
          "name": "inputToken",
          "type": "address"
        },
        {
          "indexed": false,
          "internalType": "address",
          "name": "outputToken",
          "type": "address"
        },
        {
          "indexed": false,
          "internalType": "uint256",
          "name": "inputAmount",
          "type": "uint256"
        },
        {
          "indexed": false,
          "internalType": "uint256",
          "name": "outputAmount",
          "type": "uint256"
        },
        {
          "indexed": true,
          "internalType": "uint256",
          "name": "destinationChainId",
          "type": "uint256"
        },
        {
          "indexed": true,
          "internalType": "uint32",
          "name": "depositId",
          "type": "uint32"
        },
        {
          "indexed": false,
          "internalType": "uint32",
          "name": "quoteTimestamp",
          "type": "uint32"
        },
        {
          "indexed": false,
          "internalType": "uint32",
          "name": "fillDeadline",
          "type": "uint32"
        },
        {
          "indexed": false,
          "internalType": "uint32",
          "name": "exclusivityDeadline",
          "type": "uint32"
        },
        {
          "indexed": true,
          "internalType": "address",
          "name": "depositor",
          "type": "address"
        },
        {
          "indexed": false,
          "internalType": "address",
          "name": "recipient",
          "type": "address"
        },
        {
          "indexed": false,
          "internalType": "address",
          "name": "exclusiveRelayer",
          "type": "address"
        },
        {
          "indexed": false,
          "internalType": "bytes",
          "name": "message",
          "type": "bytes"
        }
      ],
      "name": "V3FundsDeposited",
      "type": "event"
    },
    {
      "inputs": [],
      "name": "ADMIN_UPDATE_BUFFER",
      "outputs": [
        {
          "internalType": "uint256",
          "name": "",
          "type": "uint256"
        }
      ],
      "stateMutability": "view",
      "type": "function"
    },
    {
      "inputs": [],
      "name": "EMPTY_MSG_BYTES",
      "outputs": [
        {
          "internalType": "bytes",
          "name": "",
          "type": "bytes"
        }
      ],
      "stateMutability": "view",
      "type": "function"
    },
    {
      "inputs": [],
      "name": "EMPTY_RELAYER",
      "outputs": [
        {
          "internalType": "bytes32",
          "name": "",
          "type": "bytes32"
        }
      ],
      "stateMutability": "view",
      "type": "function"
    },
    {
      "inputs": [],
      "name": "EMPTY_REPAYMENT_CHAIN_ID",
      "outputs": [
        {
          "internalType": "uint256",
          "name": "",
          "type": "uint256"
        }
      ],
      "stateMutability": "view",
      "type": "function"
    },
    {
      "inputs": [],
      "name": "HUB_POOL_STORE_CALLDATA_MAPPING_SLOT_INDEX",
      "outputs": [
        {
          "internalType": "uint256",
          "name": "",
          "type": "uint256"
        }
      ],
      "stateMutability": "view",
      "type": "function"
    },
    {
      "inputs": [],
      "name": "INFINITE_FILL_DEADLINE",
      "outputs": [
        {
          "internalType": "uint32",
          "name": "",
          "type": "uint32"
        }
      ],
      "stateMutability": "view",
      "type": "function"
    },
    {
      "inputs": [],
      "name": "MAX_EXCLUSIVITY_PERIOD_SECONDS",
      "outputs": [
        {
          "internalType": "uint32",
          "name": "",
          "type": "uint32"
        }
      ],
      "stateMutability": "view",
      "type": "function"
    },
    {
      "inputs": [],
      "name": "MAX_TRANSFER_SIZE",
      "outputs": [
        {
          "internalType": "uint256",
          "name": "",
          "type": "uint256"
        }
      ],
      "stateMutability": "view",
      "type": "function"
    },
    {
      "inputs": [],
      "name": "OFT_DST_EID",
      "outputs": [
        {
          "internalType": "uint32",
          "name": "",
          "type": "uint32"
        }
      ],
      "stateMutability": "view",
      "type": "function"
    },
    {
      "inputs": [],
      "name": "OFT_FEE_CAP",
      "outputs": [
        {
          "internalType": "uint256",
          "name": "",
          "type": "uint256"
        }
      ],
      "stateMutability": "view",
      "type": "function"
    },
    {
      "inputs": [],
      "name": "UPDATE_BYTES32_DEPOSIT_DETAILS_HASH",
      "outputs": [
        {
          "internalType": "bytes32",
          "name": "",
          "type": "bytes32"
        }
      ],
      "stateMutability": "view",
      "type": "function"
    },
    {
      "inputs": [
        {
          "internalType": "uint32",
          "name": "_initialDepositId",
          "type": "uint32"
        },
        {
          "internalType": "address",
          "name": "_crossDomainAdmin",
          "type": "address"
        },
        {
          "internalType": "address",
          "name": "_withdrawalRecipient",
          "type": "address"
        }
      ],
      "name": "__SpokePool_init",
      "outputs": [],
      "stateMutability": "nonpayable",
      "type": "function"
    },
    {
      "inputs": [
        {
          "internalType": "bytes",
          "name": "_message",
          "type": "bytes"
        }
      ],
      "name": "adminExecuteMessage",
      "outputs": [],
      "stateMutability": "nonpayable",
      "type": "function"
    },
    {
      "inputs": [],
      "name": "cctpTokenMessenger",
      "outputs": [
        {
          "internalType": "contract ITokenMessenger",
          "name": "",
          "type": "address"
        }
      ],
      "stateMutability": "view",
      "type": "function"
    },
    {
      "inputs": [],
      "name": "cctpV2",
      "outputs": [
        {
          "internalType": "bool",
          "name": "",
          "type": "bool"
        }
      ],
      "stateMutability": "view",
      "type": "function"
    },
    {
      "inputs": [],
      "name": "chainId",
      "outputs": [
        {
          "internalType": "uint256",
          "name": "",
          "type": "uint256"
        }
      ],
      "stateMutability": "view",
      "type": "function"
    },
    {
      "inputs": [
        {
          "internalType": "bytes32",
          "name": "l2TokenAddress",
          "type": "bytes32"
        },
        {
          "internalType": "bytes32",
          "name": "refundAddress",
          "type": "bytes32"
        }
      ],
      "name": "claimRelayerRefund",
      "outputs": [],
      "stateMutability": "nonpayable",
      "type": "function"
    },
    {
      "inputs": [],
      "name": "crossDomainAdmin",
      "outputs": [
        {
          "internalType": "address",
          "name": "",
          "type": "address"
        }
      ],
      "stateMutability": "view",
      "type": "function"
    },
    {
      "inputs": [
        {
          "internalType": "bytes32",
          "name": "depositor",
          "type": "bytes32"
        },
        {
          "internalType": "bytes32",
          "name": "recipient",
          "type": "bytes32"
        },
        {
          "internalType": "bytes32",
          "name": "inputToken",
          "type": "bytes32"
        },
        {
          "internalType": "bytes32",
          "name": "outputToken",
          "type": "bytes32"
        },
        {
          "internalType": "uint256",
          "name": "inputAmount",
          "type": "uint256"
        },
        {
          "internalType": "uint256",
          "name": "outputAmount",
          "type": "uint256"
        },
        {
          "internalType": "uint256",
          "name": "destinationChainId",
          "type": "uint256"
        },
        {
          "internalType": "bytes32",
          "name": "exclusiveRelayer",
          "type": "bytes32"
        },
        {
          "internalType": "uint32",
          "name": "quoteTimestamp",
          "type": "uint32"
        },
        {
          "internalType": "uint32",
          "name": "fillDeadline",
          "type": "uint32"
        },
        {
          "internalType": "uint32",
          "name": "exclusivityParameter",
          "type": "uint32"
        },
        {
          "internalType": "bytes",
          "name": "message",
          "type": "bytes"
        }
      ],
      "name": "deposit",
      "outputs": [],
      "stateMutability": "payable",
      "type": "function"
    },
    {
      "inputs": [
        {
          "internalType": "address",
          "name": "recipient",
          "type": "address"
        },
        {
          "internalType": "address",
          "name": "originToken",
          "type": "address"
        },
        {
          "internalType": "uint256",
          "name": "amount",
          "type": "uint256"
        },
        {
          "internalType": "uint256",
          "name": "destinationChainId",
          "type": "uint256"
        },
        {
          "internalType": "int64",
          "name": "relayerFeePct",
          "type": "int64"
        },
        {
          "internalType": "uint32",
          "name": "quoteTimestamp",
          "type": "uint32"
        },
        {
          "internalType": "bytes",
          "name": "message",
          "type": "bytes"
        },
        {
          "internalType": "uint256",
          "name": "",
          "type": "uint256"
        }
      ],
      "name": "depositDeprecated_5947912356",
      "outputs": [],
      "stateMutability": "payable",
      "type": "function"
    },
    {
      "inputs": [
        {
          "internalType": "address",
          "name": "depositor",
          "type": "address"
        },
        {
          "internalType": "address",
          "name": "recipient",
          "type": "address"
        },
        {
          "internalType": "address",
          "name": "originToken",
          "type": "address"
        },
        {
          "internalType": "uint256",
          "name": "amount",
          "type": "uint256"
        },
        {
          "internalType": "uint256",
          "name": "destinationChainId",
          "type": "uint256"
        },
        {
          "internalType": "int64",
          "name": "relayerFeePct",
          "type": "int64"
        },
        {
          "internalType": "uint32",
          "name": "quoteTimestamp",
          "type": "uint32"
        },
        {
          "internalType": "bytes",
          "name": "message",
          "type": "bytes"
        },
        {
          "internalType": "uint256",
          "name": "",
          "type": "uint256"
        }
      ],
      "name": "depositFor",
      "outputs": [],
      "stateMutability": "payable",
      "type": "function"
    },
    {
      "inputs": [
        {
          "internalType": "bytes32",
          "name": "depositor",
          "type": "bytes32"
        },
        {
          "internalType": "bytes32",
          "name": "recipient",
          "type": "bytes32"
        },
        {
          "internalType": "bytes32",
          "name": "inputToken",
          "type": "bytes32"
        },
        {
          "internalType": "bytes32",
          "name": "outputToken",
          "type": "bytes32"
        },
        {
          "internalType": "uint256",
          "name": "inputAmount",
          "type": "uint256"
        },
        {
          "internalType": "uint256",
          "name": "outputAmount",
          "type": "uint256"
        },
        {
          "internalType": "uint256",
          "name": "destinationChainId",
          "type": "uint256"
        },
        {
          "internalType": "bytes32",
          "name": "exclusiveRelayer",
          "type": "bytes32"
        },
        {
          "internalType": "uint32",
          "name": "fillDeadlineOffset",
          "type": "uint32"
        },
        {
          "internalType": "uint32",
          "name": "exclusivityParameter",
          "type": "uint32"
        },
        {
          "internalType": "bytes",
          "name": "message",
          "type": "bytes"
        }
      ],
      "name": "depositNow",
      "outputs": [],
      "stateMutability": "payable",
      "type": "function"
    },
    {
      "inputs": [],
      "name": "depositQuoteTimeBuffer",
      "outputs": [
        {
          "internalType": "uint32",
          "name": "",
          "type": "uint32"
        }
      ],
      "stateMutability": "view",
      "type": "function"
    },
    {
      "inputs": [
        {
          "internalType": "address",
          "name": "depositor",
          "type": "address"
        },
        {
          "internalType": "address",
          "name": "recipient",
          "type": "address"
        },
        {
          "internalType": "address",
          "name": "inputToken",
          "type": "address"
        },
        {
          "internalType": "address",
          "name": "outputToken",
          "type": "address"
        },
        {
          "internalType": "uint256",
          "name": "inputAmount",
          "type": "uint256"
        },
        {
          "internalType": "uint256",
          "name": "outputAmount",
          "type": "uint256"
        },
        {
          "internalType": "uint256",
          "name": "destinationChainId",
          "type": "uint256"
        },
        {
          "internalType": "address",
          "name": "exclusiveRelayer",
          "type": "address"
        },
        {
          "internalType": "uint32",
          "name": "quoteTimestamp",
          "type": "uint32"
        },
        {
          "internalType": "uint32",
          "name": "fillDeadline",
          "type": "uint32"
        },
        {
          "internalType": "uint32",
          "name": "exclusivityParameter",
          "type": "uint32"
        },
        {
          "internalType": "bytes",
          "name": "message",
          "type": "bytes"
        }
      ],
      "name": "depositV3",
      "outputs": [],
      "stateMutability": "payable",
      "type": "function"
    },
    {
      "inputs": [
        {
          "internalType": "address",
          "name": "depositor",
          "type": "address"
        },
        {
          "internalType": "address",
          "name": "recipient",
          "type": "address"
        },
        {
          "internalType": "address",
          "name": "inputToken",
          "type": "address"
        },
        {
          "internalType": "address",
          "name": "outputToken",
          "type": "address"
        },
        {
          "internalType": "uint256",
          "name": "inputAmount",
          "type": "uint256"
        },
        {
          "internalType": "uint256",
          "name": "outputAmount",
          "type": "uint256"
        },
        {
          "internalType": "uint256",
          "name": "destinationChainId",
          "type": "uint256"
        },
        {
          "internalType": "address",
          "name": "exclusiveRelayer",
          "type": "address"
        },
        {
          "internalType": "uint32",
          "name": "fillDeadlineOffset",
          "type": "uint32"
        },
        {
          "internalType": "uint32",
          "name": "exclusivityParameter",
          "type": "uint32"
        },
        {
          "internalType": "bytes",
          "name": "message",
          "type": "bytes"
        }
      ],
      "name": "depositV3Now",
      "outputs": [],
      "stateMutability": "payable",
      "type": "function"
    },
    {
      "inputs": [
        {
          "internalType": "uint256",
          "name": "rootBundleId",
          "type": "uint256"
        }
      ],
      "name": "emergencyDeleteRootBundle",
      "outputs": [],
      "stateMutability": "nonpayable",
      "type": "function"
    },
    {
      "inputs": [
        {
          "internalType": "bytes",
          "name": "message",
          "type": "bytes"
        }
      ],
      "name": "executeExternalCall",
      "outputs": [
        {
          "internalType": "bytes",
          "name": "returnData",
          "type": "bytes"
        }
      ],
      "stateMutability": "nonpayable",
      "type": "function"
    },
    {
      "inputs": [
        {
          "internalType": "uint256",
          "name": "_messageNonce",
          "type": "uint256"
        },
        {
          "internalType": "bytes",
          "name": "_message",
          "type": "bytes"
        },
        {
          "internalType": "uint256",
          "name": "_blockNumber",
          "type": "uint256"
        }
      ],
      "name": "executeMessage",
      "outputs": [],
      "stateMutability": "nonpayable",
      "type": "function"
    },
    {
      "inputs": [
        {
          "internalType": "uint32",
          "name": "rootBundleId",
          "type": "uint32"
        },
        {
          "components": [
            {
              "internalType": "uint256",
              "name": "amountToReturn",
              "type": "uint256"
            },
            {
              "internalType": "uint256",
              "name": "chainId",
              "type": "uint256"
            },
            {
              "internalType": "uint256[]",
              "name": "refundAmounts",
              "type": "uint256[]"
            },
            {
              "internalType": "uint32",
              "name": "leafId",
              "type": "uint32"
            },
            {
              "internalType": "address",
              "name": "l2TokenAddress",
              "type": "address"
            },
            {
              "internalType": "address[]",
              "name": "refundAddresses",
              "type": "address[]"
            }
          ],
          "internalType": "struct SpokePoolInterface.RelayerRefundLeaf",
          "name": "relayerRefundLeaf",
          "type": "tuple"
        },
        {
          "internalType": "bytes32[]",
          "name": "proof",
          "type": "bytes32[]"
        }
      ],
      "name": "executeRelayerRefundLeaf",
      "outputs": [],
      "stateMutability": "payable",
      "type": "function"
    },
    {
      "inputs": [
        {
          "components": [
            {
              "components": [
                {
                  "internalType": "bytes32",
                  "name": "depositor",
                  "type": "bytes32"
                },
                {
                  "internalType": "bytes32",
                  "name": "recipient",
                  "type": "bytes32"
                },
                {
                  "internalType": "bytes32",
                  "name": "exclusiveRelayer",
                  "type": "bytes32"
                },
                {
                  "internalType": "bytes32",
                  "name": "inputToken",
                  "type": "bytes32"
                },
                {
                  "internalType": "bytes32",
                  "name": "outputToken",
                  "type": "bytes32"
                },
                {
                  "internalType": "uint256",
                  "name": "inputAmount",
                  "type": "uint256"
                },
                {
                  "internalType": "uint256",
                  "name": "outputAmount",
                  "type": "uint256"
                },
                {
                  "internalType": "uint256",
                  "name": "originChainId",
                  "type": "uint256"
                },
                {
                  "internalType": "uint256",
                  "name": "depositId",
                  "type": "uint256"
                },
                {
                  "internalType": "uint32",
                  "name": "fillDeadline",
                  "type": "uint32"
                },
                {
                  "internalType": "uint32",
                  "name": "exclusivityDeadline",
                  "type": "uint32"
                },
                {
                  "internalType": "bytes",
                  "name": "message",
                  "type": "bytes"
                }
              ],
              "internalType": "struct V3SpokePoolInterface.V3RelayData",
              "name": "relayData",
              "type": "tuple"
            },
            {
              "internalType": "uint256",
              "name": "chainId",
              "type": "uint256"
            },
            {
              "internalType": "uint256",
              "name": "updatedOutputAmount",
              "type": "uint256"
            }
          ],
          "internalType": "struct V3SpokePoolInterface.V3SlowFill",
          "name": "slowFillLeaf",
          "type": "tuple"
        },
        {
          "internalType": "uint32",
          "name": "rootBundleId",
          "type": "uint32"
        },
        {
          "internalType": "bytes32[]",
          "name": "proof",
          "type": "bytes32[]"
        }
      ],
      "name": "executeSlowRelayLeaf",
      "outputs": [],
      "stateMutability": "nonpayable",
      "type": "function"
    },
    {
      "inputs": [
        {
          "internalType": "uint256",
          "name": "",
          "type": "uint256"
        }
      ],
      "name": "executedMessages",
      "outputs": [
        {
          "internalType": "bool",
          "name": "",
          "type": "bool"
        }
      ],
      "stateMutability": "view",
      "type": "function"
    },
    {
      "inputs": [
        {
          "internalType": "bytes32",
          "name": "orderId",
          "type": "bytes32"
        },
        {
          "internalType": "bytes",
          "name": "originData",
          "type": "bytes"
        },
        {
          "internalType": "bytes",
          "name": "fillerData",
          "type": "bytes"
        }
      ],
      "name": "fill",
      "outputs": [],
      "stateMutability": "nonpayable",
      "type": "function"
    },
    {
      "inputs": [],
      "name": "fillDeadlineBuffer",
      "outputs": [
        {
          "internalType": "uint32",
          "name": "",
          "type": "uint32"
        }
      ],
      "stateMutability": "view",
      "type": "function"
    },
    {
      "inputs": [
        {
          "components": [
            {
              "internalType": "bytes32",
              "name": "depositor",
              "type": "bytes32"
            },
            {
              "internalType": "bytes32",
              "name": "recipient",
              "type": "bytes32"
            },
            {
              "internalType": "bytes32",
              "name": "exclusiveRelayer",
              "type": "bytes32"
            },
            {
              "internalType": "bytes32",
              "name": "inputToken",
              "type": "bytes32"
            },
            {
              "internalType": "bytes32",
              "name": "outputToken",
              "type": "bytes32"
            },
            {
              "internalType": "uint256",
              "name": "inputAmount",
              "type": "uint256"
            },
            {
              "internalType": "uint256",
              "name": "outputAmount",
              "type": "uint256"
            },
            {
              "internalType": "uint256",
              "name": "originChainId",
              "type": "uint256"
            },
            {
              "internalType": "uint256",
              "name": "depositId",
              "type": "uint256"
            },
            {
              "internalType": "uint32",
              "name": "fillDeadline",
              "type": "uint32"
            },
            {
              "internalType": "uint32",
              "name": "exclusivityDeadline",
              "type": "uint32"
            },
            {
              "internalType": "bytes",
              "name": "message",
              "type": "bytes"
            }
          ],
          "internalType": "struct V3SpokePoolInterface.V3RelayData",
          "name": "relayData",
          "type": "tuple"
        },
        {
          "internalType": "uint256",
          "name": "repaymentChainId",
          "type": "uint256"
        },
        {
          "internalType": "bytes32",
          "name": "repaymentAddress",
          "type": "bytes32"
        }
      ],
      "name": "fillRelay",
      "outputs": [],
      "stateMutability": "nonpayable",
      "type": "function"
    },
    {
      "inputs": [
        {
          "components": [
            {
              "internalType": "bytes32",
              "name": "depositor",
              "type": "bytes32"
            },
            {
              "internalType": "bytes32",
              "name": "recipient",
              "type": "bytes32"
            },
            {
              "internalType": "bytes32",
              "name": "exclusiveRelayer",
              "type": "bytes32"
            },
            {
              "internalType": "bytes32",
              "name": "inputToken",
              "type": "bytes32"
            },
            {
              "internalType": "bytes32",
              "name": "outputToken",
              "type": "bytes32"
            },
            {
              "internalType": "uint256",
              "name": "inputAmount",
              "type": "uint256"
            },
            {
              "internalType": "uint256",
              "name": "outputAmount",
              "type": "uint256"
            },
            {
              "internalType": "uint256",
              "name": "originChainId",
              "type": "uint256"
            },
            {
              "internalType": "uint256",
              "name": "depositId",
              "type": "uint256"
            },
            {
              "internalType": "uint32",
              "name": "fillDeadline",
              "type": "uint32"
            },
            {
              "internalType": "uint32",
              "name": "exclusivityDeadline",
              "type": "uint32"
            },
            {
              "internalType": "bytes",
              "name": "message",
              "type": "bytes"
            }
          ],
          "internalType": "struct V3SpokePoolInterface.V3RelayData",
          "name": "relayData",
          "type": "tuple"
        },
        {
          "internalType": "uint256",
          "name": "repaymentChainId",
          "type": "uint256"
        },
        {
          "internalType": "bytes32",
          "name": "repaymentAddress",
          "type": "bytes32"
        },
        {
          "internalType": "uint256",
          "name": "updatedOutputAmount",
          "type": "uint256"
        },
        {
          "internalType": "bytes32",
          "name": "updatedRecipient",
          "type": "bytes32"
        },
        {
          "internalType": "bytes",
          "name": "updatedMessage",
          "type": "bytes"
        },
        {
          "internalType": "bytes",
          "name": "depositorSignature",
          "type": "bytes"
        }
      ],
      "name": "fillRelayWithUpdatedDeposit",
      "outputs": [],
      "stateMutability": "nonpayable",
      "type": "function"
    },
    {
      "inputs": [
        {
          "internalType": "bytes32",
          "name": "",
          "type": "bytes32"
        }
      ],
      "name": "fillStatuses",
      "outputs": [
        {
          "internalType": "uint256",
          "name": "",
          "type": "uint256"
        }
      ],
      "stateMutability": "view",
      "type": "function"
    },
    {
      "inputs": [
        {
          "components": [
            {
              "internalType": "address",
              "name": "depositor",
              "type": "address"
            },
            {
              "internalType": "address",
              "name": "recipient",
              "type": "address"
            },
            {
              "internalType": "address",
              "name": "exclusiveRelayer",
              "type": "address"
            },
            {
              "internalType": "address",
              "name": "inputToken",
              "type": "address"
            },
            {
              "internalType": "address",
              "name": "outputToken",
              "type": "address"
            },
            {
              "internalType": "uint256",
              "name": "inputAmount",
              "type": "uint256"
            },
            {
              "internalType": "uint256",
              "name": "outputAmount",
              "type": "uint256"
            },
            {
              "internalType": "uint256",
              "name": "originChainId",
              "type": "uint256"
            },
            {
              "internalType": "uint32",
              "name": "depositId",
              "type": "uint32"
            },
            {
              "internalType": "uint32",
              "name": "fillDeadline",
              "type": "uint32"
            },
            {
              "internalType": "uint32",
              "name": "exclusivityDeadline",
              "type": "uint32"
            },
            {
              "internalType": "bytes",
              "name": "message",
              "type": "bytes"
            }
          ],
          "internalType": "struct V3SpokePoolInterface.V3RelayDataLegacy",
          "name": "relayData",
          "type": "tuple"
        },
        {
          "internalType": "uint256",
          "name": "repaymentChainId",
          "type": "uint256"
        }
      ],
      "name": "fillV3Relay",
      "outputs": [],
      "stateMutability": "nonpayable",
      "type": "function"
    },
    {
      "inputs": [],
      "name": "getCurrentTime",
      "outputs": [
        {
          "internalType": "uint256",
          "name": "",
          "type": "uint256"
        }
      ],
      "stateMutability": "view",
      "type": "function"
    },
    {
      "inputs": [
        {
          "internalType": "address",
          "name": "l2TokenAddress",
          "type": "address"
        },
        {
          "internalType": "address",
          "name": "refundAddress",
          "type": "address"
        }
      ],
      "name": "getRelayerRefund",
      "outputs": [
        {
          "internalType": "uint256",
          "name": "",
          "type": "uint256"
        }
      ],
      "stateMutability": "view",
      "type": "function"
    },
    {
      "inputs": [
        {
          "internalType": "uint256",
          "name": "_nonce",
          "type": "uint256"
        }
      ],
      "name": "getSlotKey",
      "outputs": [
        {
          "internalType": "bytes32",
          "name": "",
          "type": "bytes32"
        }
      ],
      "stateMutability": "pure",
      "type": "function"
    },
    {
      "inputs": [
        {
          "internalType": "address",
          "name": "msgSender",
          "type": "address"
        },
        {
          "internalType": "bytes32",
          "name": "depositor",
          "type": "bytes32"
        },
        {
          "internalType": "uint256",
          "name": "depositNonce",
          "type": "uint256"
        }
      ],
      "name": "getUnsafeDepositId",
      "outputs": [
        {
          "internalType": "uint256",
          "name": "",
          "type": "uint256"
        }
      ],
      "stateMutability": "pure",
      "type": "function"
    },
    {
      "inputs": [
        {
          "components": [
            {
              "internalType": "bytes32",
              "name": "depositor",
              "type": "bytes32"
            },
            {
              "internalType": "bytes32",
              "name": "recipient",
              "type": "bytes32"
            },
            {
              "internalType": "bytes32",
              "name": "exclusiveRelayer",
              "type": "bytes32"
            },
            {
              "internalType": "bytes32",
              "name": "inputToken",
              "type": "bytes32"
            },
            {
              "internalType": "bytes32",
              "name": "outputToken",
              "type": "bytes32"
            },
            {
              "internalType": "uint256",
              "name": "inputAmount",
              "type": "uint256"
            },
            {
              "internalType": "uint256",
              "name": "outputAmount",
              "type": "uint256"
            },
            {
              "internalType": "uint256",
              "name": "originChainId",
              "type": "uint256"
            },
            {
              "internalType": "uint256",
              "name": "depositId",
              "type": "uint256"
            },
            {
              "internalType": "uint32",
              "name": "fillDeadline",
              "type": "uint32"
            },
            {
              "internalType": "uint32",
              "name": "exclusivityDeadline",
              "type": "uint32"
            },
            {
              "internalType": "bytes",
              "name": "message",
              "type": "bytes"
            }
          ],
          "internalType": "struct V3SpokePoolInterface.V3RelayData",
          "name": "relayData",
          "type": "tuple"
        }
      ],
      "name": "getV3RelayHash",
      "outputs": [
        {
          "internalType": "bytes32",
          "name": "",
          "type": "bytes32"
        }
      ],
      "stateMutability": "view",
      "type": "function"
    },
    {
      "inputs": [],
      "name": "helios",
      "outputs": [
        {
          "internalType": "address",
          "name": "",
          "type": "address"
        }
      ],
      "stateMutability": "view",
      "type": "function"
    },
    {
      "inputs": [],
      "name": "hubPoolStore",
      "outputs": [
        {
          "internalType": "address",
          "name": "",
          "type": "address"
        }
      ],
      "stateMutability": "view",
      "type": "function"
    },
    {
      "inputs": [
        {
          "internalType": "uint32",
          "name": "_initialDepositId",
          "type": "uint32"
        },
        {
          "internalType": "address",
          "name": "_crossDomainAdmin",
          "type": "address"
        },
        {
          "internalType": "address",
          "name": "_withdrawalRecipient",
          "type": "address"
        }
      ],
      "name": "initialize",
      "outputs": [],
      "stateMutability": "nonpayable",
      "type": "function"
    },
    {
      "inputs": [
        {
          "internalType": "bytes[]",
          "name": "data",
          "type": "bytes[]"
        }
      ],
      "name": "multicall",
      "outputs": [
        {
          "internalType": "bytes[]",
          "name": "results",
          "type": "bytes[]"
        }
      ],
      "stateMutability": "nonpayable",
      "type": "function"
    },
    {
      "inputs": [],
      "name": "numberOfDeposits",
      "outputs": [
        {
          "internalType": "uint32",
          "name": "",
          "type": "uint32"
        }
      ],
      "stateMutability": "view",
      "type": "function"
    },
    {
      "inputs": [
        {
          "internalType": "address",
          "name": "l2TokenAddress",
          "type": "address"
        }
      ],
      "name": "oftMessengers",
      "outputs": [
        {
          "internalType": "address",
          "name": "l2OftMessenger",
          "type": "address"
        }
      ],
      "stateMutability": "view",
      "type": "function"
    },
    {
      "inputs": [],
      "name": "owner",
      "outputs": [
        {
          "internalType": "address",
          "name": "",
          "type": "address"
        }
      ],
      "stateMutability": "view",
      "type": "function"
    },
    {
      "inputs": [
        {
          "internalType": "bool",
          "name": "pause",
          "type": "bool"
        }
      ],
      "name": "pauseDeposits",
      "outputs": [],
      "stateMutability": "nonpayable",
      "type": "function"
    },
    {
      "inputs": [
        {
          "internalType": "bool",
          "name": "pause",
          "type": "bool"
        }
      ],
      "name": "pauseFills",
      "outputs": [],
      "stateMutability": "nonpayable",
      "type": "function"
    },
    {
      "inputs": [],
      "name": "pausedDeposits",
      "outputs": [
        {
          "internalType": "bool",
          "name": "",
          "type": "bool"
        }
      ],
      "stateMutability": "view",
      "type": "function"
    },
    {
      "inputs": [],
      "name": "pausedFills",
      "outputs": [
        {
          "internalType": "bool",
          "name": "",
          "type": "bool"
        }
      ],
      "stateMutability": "view",
      "type": "function"
    },
    {
      "inputs": [],
      "name": "proxiableUUID",
      "outputs": [
        {
          "internalType": "bytes32",
          "name": "",
          "type": "bytes32"
        }
      ],
      "stateMutability": "view",
      "type": "function"
    },
    {
      "inputs": [],
      "name": "recipientCircleDomainId",
      "outputs": [
        {
          "internalType": "uint32",
          "name": "",
          "type": "uint32"
        }
      ],
      "stateMutability": "view",
      "type": "function"
    },
    {
      "inputs": [
        {
          "internalType": "bytes32",
          "name": "relayerRefundRoot",
          "type": "bytes32"
        },
        {
          "internalType": "bytes32",
          "name": "slowRelayRoot",
          "type": "bytes32"
        }
      ],
      "name": "relayRootBundle",
      "outputs": [],
      "stateMutability": "nonpayable",
      "type": "function"
    },
    {
      "inputs": [
        {
          "internalType": "address",
          "name": "",
          "type": "address"
        },
        {
          "internalType": "address",
          "name": "",
          "type": "address"
        }
      ],
      "name": "relayerRefund",
      "outputs": [
        {
          "internalType": "uint256",
          "name": "",
          "type": "uint256"
        }
      ],
      "stateMutability": "view",
      "type": "function"
    },
    {
      "inputs": [],
      "name": "renounceOwnership",
      "outputs": [],
      "stateMutability": "nonpayable",
      "type": "function"
    },
    {
      "inputs": [
        {
          "components": [
            {
              "internalType": "bytes32",
              "name": "depositor",
              "type": "bytes32"
            },
            {
              "internalType": "bytes32",
              "name": "recipient",
              "type": "bytes32"
            },
            {
              "internalType": "bytes32",
              "name": "exclusiveRelayer",
              "type": "bytes32"
            },
            {
              "internalType": "bytes32",
              "name": "inputToken",
              "type": "bytes32"
            },
            {
              "internalType": "bytes32",
              "name": "outputToken",
              "type": "bytes32"
            },
            {
              "internalType": "uint256",
              "name": "inputAmount",
              "type": "uint256"
            },
            {
              "internalType": "uint256",
              "name": "outputAmount",
              "type": "uint256"
            },
            {
              "internalType": "uint256",
              "name": "originChainId",
              "type": "uint256"
            },
            {
              "internalType": "uint256",
              "name": "depositId",
              "type": "uint256"
            },
            {
              "internalType": "uint32",
              "name": "fillDeadline",
              "type": "uint32"
            },
            {
              "internalType": "uint32",
              "name": "exclusivityDeadline",
              "type": "uint32"
            },
            {
              "internalType": "bytes",
              "name": "message",
              "type": "bytes"
            }
          ],
          "internalType": "struct V3SpokePoolInterface.V3RelayData",
          "name": "relayData",
          "type": "tuple"
        }
      ],
      "name": "requestSlowFill",
      "outputs": [],
      "stateMutability": "nonpayable",
      "type": "function"
    },
    {
      "inputs": [
        {
          "internalType": "uint256",
          "name": "",
          "type": "uint256"
        }
      ],
      "name": "rootBundles",
      "outputs": [
        {
          "internalType": "bytes32",
          "name": "slowRelayRoot",
          "type": "bytes32"
        },
        {
          "internalType": "bytes32",
          "name": "relayerRefundRoot",
          "type": "bytes32"
        }
      ],
      "stateMutability": "view",
      "type": "function"
    },
    {
      "inputs": [
        {
          "internalType": "address",
          "name": "newCrossDomainAdmin",
          "type": "address"
        }
      ],
      "name": "setCrossDomainAdmin",
      "outputs": [],
      "stateMutability": "nonpayable",
      "type": "function"
    },
    {
      "inputs": [
        {
          "internalType": "address",
          "name": "token",
          "type": "address"
        },
        {
          "internalType": "address",
          "name": "messenger",
          "type": "address"
        }
      ],
      "name": "setOftMessenger",
      "outputs": [],
      "stateMutability": "nonpayable",
      "type": "function"
    },
    {
      "inputs": [
        {
          "internalType": "address",
          "name": "newWithdrawalRecipient",
          "type": "address"
        }
      ],
      "name": "setWithdrawalRecipient",
      "outputs": [],
      "stateMutability": "nonpayable",
      "type": "function"
    },
    {
      "inputs": [
        {
          "internalType": "bytes32",
          "name": "depositor",
          "type": "bytes32"
        },
        {
          "internalType": "uint256",
          "name": "depositId",
          "type": "uint256"
        },
        {
          "internalType": "uint256",
          "name": "updatedOutputAmount",
          "type": "uint256"
        },
        {
          "internalType": "bytes32",
          "name": "updatedRecipient",
          "type": "bytes32"
        },
        {
          "internalType": "bytes",
          "name": "updatedMessage",
          "type": "bytes"
        },
        {
          "internalType": "bytes",
          "name": "depositorSignature",
          "type": "bytes"
        }
      ],
      "name": "speedUpDeposit",
      "outputs": [],
      "stateMutability": "nonpayable",
      "type": "function"
    },
    {
      "inputs": [
        {
          "internalType": "address",
          "name": "depositor",
          "type": "address"
        },
        {
          "internalType": "uint256",
          "name": "depositId",
          "type": "uint256"
        },
        {
          "internalType": "uint256",
          "name": "updatedOutputAmount",
          "type": "uint256"
        },
        {
          "internalType": "address",
          "name": "updatedRecipient",
          "type": "address"
        },
        {
          "internalType": "bytes",
          "name": "updatedMessage",
          "type": "bytes"
        },
        {
          "internalType": "bytes",
          "name": "depositorSignature",
          "type": "bytes"
        }
      ],
      "name": "speedUpV3Deposit",
      "outputs": [],
      "stateMutability": "nonpayable",
      "type": "function"
    },
    {
      "inputs": [
        {
          "internalType": "address",
          "name": "newOwner",
          "type": "address"
        }
      ],
      "name": "transferOwnership",
      "outputs": [],
      "stateMutability": "nonpayable",
      "type": "function"
    },
    {
      "inputs": [
        {
          "internalType": "bytes[]",
          "name": "data",
          "type": "bytes[]"
        }
      ],
      "name": "tryMulticall",
      "outputs": [
        {
          "components": [
            {
              "internalType": "bool",
              "name": "success",
              "type": "bool"
            },
            {
              "internalType": "bytes",
              "name": "returnData",
              "type": "bytes"
            }
          ],
          "internalType": "struct MultiCallerUpgradeable.Result[]",
          "name": "results",
          "type": "tuple[]"
        }
      ],
      "stateMutability": "nonpayable",
      "type": "function"
    },
    {
      "inputs": [
        {
          "internalType": "bytes32",
          "name": "depositor",
          "type": "bytes32"
        },
        {
          "internalType": "bytes32",
          "name": "recipient",
          "type": "bytes32"
        },
        {
          "internalType": "bytes32",
          "name": "inputToken",
          "type": "bytes32"
        },
        {
          "internalType": "bytes32",
          "name": "outputToken",
          "type": "bytes32"
        },
        {
          "internalType": "uint256",
          "name": "inputAmount",
          "type": "uint256"
        },
        {
          "internalType": "uint256",
          "name": "outputAmount",
          "type": "uint256"
        },
        {
          "internalType": "uint256",
          "name": "destinationChainId",
          "type": "uint256"
        },
        {
          "internalType": "bytes32",
          "name": "exclusiveRelayer",
          "type": "bytes32"
        },
        {
          "internalType": "uint256",
          "name": "depositNonce",
          "type": "uint256"
        },
        {
          "internalType": "uint32",
          "name": "quoteTimestamp",
          "type": "uint32"
        },
        {
          "internalType": "uint32",
          "name": "fillDeadline",
          "type": "uint32"
        },
        {
          "internalType": "uint32",
          "name": "exclusivityParameter",
          "type": "uint32"
        },
        {
          "internalType": "bytes",
          "name": "message",
          "type": "bytes"
        }
      ],
      "name": "unsafeDeposit",
      "outputs": [],
      "stateMutability": "payable",
      "type": "function"
    },
    {
      "inputs": [
        {
          "internalType": "address",
          "name": "newImplementation",
          "type": "address"
        }
      ],
      "name": "upgradeTo",
      "outputs": [],
      "stateMutability": "nonpayable",
      "type": "function"
    },
    {
      "inputs": [
        {
          "internalType": "address",
          "name": "newImplementation",
          "type": "address"
        },
        {
          "internalType": "bytes",
          "name": "data",
          "type": "bytes"
        }
      ],
      "name": "upgradeToAndCall",
      "outputs": [],
      "stateMutability": "payable",
      "type": "function"
    },
    {
      "inputs": [],
      "name": "usdcToken",
      "outputs": [
        {
          "internalType": "contract IERC20",
          "name": "",
          "type": "address"
        }
      ],
      "stateMutability": "view",
      "type": "function"
    },
    {
      "inputs": [],
      "name": "withdrawalRecipient",
      "outputs": [
        {
          "internalType": "address",
          "name": "",
          "type": "address"
        }
      ],
      "stateMutability": "view",
      "type": "function"
    },
    {
      "inputs": [],
      "name": "wrappedNativeToken",
      "outputs": [
        {
          "internalType": "contract WETH9Interface",
          "name": "",
          "type": "address"
        }
      ],
      "stateMutability": "view",
      "type": "function"
    },
    {
      "stateMutability": "payable",
      "type": "receive"
    }
  ],
  "args": [
    86400,
    "0x09aea4b2242abc8bb4bb78d537a67a245a7bec64",
    "0x1Ace3BbD69b63063F859514Eca29C9BDd8310E61",
    "0x3bd359C1119dA7Da1D913D1C4D2B7c461115433A",
    3600,
    21600,
    "0x754704Bc059F8C67012fEd69BC8A327a5aafb603",
    "0x28b5a0e9C621a5BadaA536219b3a228C8168cf5d",
    30101,
    "78000000000000000000000"
  ],
  "numDeployments": 6,
  "solcInputHash": "f60d070290cf2a84c5a27f0b692df0b5",
  "bytecode": "0x61022080604052346103385761014081615c618038038091610021828561033c565b8339810103126103385780516100396020830161035f565b906100466040840161035f565b926100536060820161035f565b61005f60808301610373565b9161006c60a08201610373565b60c0820151936001600160a01b03851685036103385760e0830151936001600160a01b03851693848603610338576101206100aa6101008301610373565b9101513060805260c09190915260a0526001600160a01b031660e05261010052610120525f5491600883901c60ff16610338575f938360ff80879616036102fe575b5061016052610180528161014052604051602081019063011a412160e61b82526004815261011b60248261033c565b51915afa3d156102f7573d6001600160401b0381116102e3576040519061014c601f8201601f19166020018361033c565b81523d5f602083013e5b816102d7575b816102a1575b506101a052610200526101e0526101c0526040516158dc908161038582396080518181816112f00152818161168d01526117e4015260a051818181611ac9015261549d015260c051818181611c990152614e37015260e05181818161082101528181613a690152818161431101528181614a38015281816151fa015261527d015261010051818181611a68015281816139fd01526144c60152610120518181816104c901526142bd015261014051818181611c590152818161504e01526150f60152610160518181816107c4015281816148260152614f350152610180518181816122bf015281816147970152614f5e01526101a051818181611efe0152614ff401526101c051818181610db0015261292d01526101e051818181610df60152818161191c0152612c7a01526102005181818161198a01526129680152f35b90506020815191015190602081106102c6575b506001600160a01b031615155f610162565b5f199060200360031b1b165f6102b4565b8051602014915061015c565b634e487b7160e01b5f52604160045260245ffd5b6060610156565b60ff908119161784557f7f26b83ff96e1f2b6a682f133852f6798a09c465da95921460cefb3847402498602060405160ff8152a15f6100ec565b5f80fd5b601f909101601f19168101906001600160401b038211908210176102e357604052565b51906001600160a01b038216820361033857565b519063ffffffff821682036103385756fe6080604052600436101561001a575b3615610018575f80fd5b005b5f3560e01c8063079bd2c71461049a5780630cb84d9a146104955780631186ec331461049057806311eac8551461048b57806315348e44146103f057806317fcb39b1461048657806319c1648c146104815780631b3d55591461047c5780631fab657c1461047757806326b105d21461047257806329cb924d1461046d5780632e378115146104685780632e63e59a146104635780633659cfe61461045e578063437b911614610459578063490e49ef14610454578063493a4f841461044f5780634f1ef2861461044a5780635285e0581461044557806352d1902d14610440578063541f4f141461043b5780635743a7b914610436578063577f51f81461043157806357f6dcb81461042c5780636068d6cb1461042757806361a04d3014610422578063647c576c1461041d578063670fa8ac146104185780636bbbcd2e146103f05780636e400983146104135780636fd5c10e1461040e578063715018a614610409578063738b62e51461040457806373fd4836146103ff5780637659f9e0146103fa578063775c0d03146103f5578063793d2be0146103f05780637aef642c146103eb5780637b939232146103e65780637ef413e1146103e157806382e2c43f146103dc5780638a7860ce146103d75780638b15788e146103d25780638da5cb5b146103cd5780639748cf7c146103c857806397943aa9146103c3578063979f2bc2146103be57806399cc2968146103b95780639a8a0592146103b4578063a1244c67146103af578063a18a096e146103aa578063ac9650d8146103a5578063ad5425c6146103a0578063adb5a6a61461034b578063b370b7f51461039b578063b4c0d7ab14610396578063babb6aac14610391578063bce63c001461038c578063c2bb0c5514610387578063c35c83fc14610382578063ceb4c9871461037d578063d7e1583a14610378578063dda5211314610373578063ddd224f11461036e578063de7eba7814610369578063deff4b2414610364578063e45a46941461035f578063ea86bd461461035a578063ee2a53f814610355578063f2fde38b14610350578063f79f29ed1461034b578063fb4c3749146103465763fc8a584f0361000e57612ded565b612dbd565b612777565b612d80565b612d42565b612c9e565b612c5b565b612b69565b612b39565b612b10565b612aea565b612ab4565b6129b6565b61298b565b612951565b61290e565b61282f565b612800565b6127be565b612706565b612667565b61250f565b6124e8565b6124ce565b612438565b612371565b6122e3565b6122a0565b61227a565b612209565b612191565b61207b565b61204d565b611fb5565b611f23565b6107e8565b611ee7565b611ded565b611db6565b611d20565b611cbd565b611c7d565b611c3d565b611c03565b611b1e565b611ab2565b611a8c565b611a4c565b6119cf565b6118b7565b611834565b6117ca565b6117a3565b61164a565b6115c2565b6115a4565b6114d7565b6112c9565b6110d0565b610f7d565b610f54565b610d23565b610bf4565b610ad2565b61086a565b610802565b6107a5565b610708565b610524565b6104ad565b5f9103126104a957565b5f80fd5b346104a9575f3660031901126104a957602060405163ffffffff7f0000000000000000000000000000000000000000000000000000000000000000168152f35b6001600160a01b031690565b6001600160a01b038116036104a957565b60e43590610517826104f9565b565b3590610517826104f9565b346104a95760203660031901126104a9576001600160a01b03600435610549816104f9565b165f526108d860205260206001600160a01b0360405f205416604051908152f35b63ffffffff8116036104a957565b61010435906105178261056a565b61012435906105178261056a565b61014435906105178261056a565b61016435906105178261056a565b35906105178261056a565b634e487b7160e01b5f52604160045260245ffd5b6040810190811067ffffffffffffffff8211176105eb57604052565b6105bb565b6101a0810190811067ffffffffffffffff8211176105eb57604052565b6060810190811067ffffffffffffffff8211176105eb57604052565b90601f8019910116810190811067ffffffffffffffff8211176105eb57604052565b6040519061051760c083610629565b6040519061051761018083610629565b604051906105176101a083610629565b60405190610517608083610629565b6040519061051760e083610629565b67ffffffffffffffff81116105eb57601f01601f191660200190565b9291926106c082610698565b916106ce6040519384610629565b8294818452818301116104a9578281602093845f960137010152565b9080601f830112156104a957816020610705933591016106b4565b90565b6101003660031901126104a957600435610721816104f9565b60243561072d816104f9565b604435606435608435908160070b82036104a95760a4359261074e8461056a565b60c43567ffffffffffffffff81116104a95761076e9036906004016106ea565b94610777613946565b60ff6108cf5460e81c166107965761078f96336139ab565b600160c955005b630b4cba3160e31b5f5260045ffd5b346104a9575f3660031901126104a95760206040516001600160a01b037f0000000000000000000000000000000000000000000000000000000000000000168152f35b346104a9575f3660031901126104a95760206040515f8152f35b346104a9575f3660031901126104a95760206040516001600160a01b037f0000000000000000000000000000000000000000000000000000000000000000168152f35b60409060031901126104a95760043561085d816104f9565b90602435610705816104f9565b346104a95761087836610845565b610880613c0a565b610888613946565b6001600160a01b0381169182151580610921575b610912576108e36001600160a01b03926108c8836001600160a01b03165f526108d860205260405f2090565b906001600160a01b03166001600160a01b0319825416179055565b167f323983f5343e25b2c1396361b1b791be31484841fdfb95b8615cd02d910b1e085f80a3610018600160c955565b63a63e8c6b60e01b5f5260045ffd5b50604051637e062a3560e11b8152602081600481875afa90811561098a575f9161095b575b506001600160a01b038083169116141561089c565b61097d915060203d602011610983575b6109758183610629565b810190613c27565b5f610946565b503d61096b565b613019565b67ffffffffffffffff81116105eb5760051b60200190565b9080601f830112156104a95781356109be8161098f565b926109cc6040519485610629565b81845260208085019260051b8201019283116104a957602001905b8282106109f45750505090565b81358152602091820191016109e7565b9080601f830112156104a9578135610a1b8161098f565b92610a296040519485610629565b81845260208085019260051b8201019283116104a957602001905b828210610a515750505090565b602080918335610a60816104f9565b815201910190610a44565b929190610a778161098f565b93610a856040519586610629565b602085838152019160051b81019283116104a957905b828210610aa757505050565b8135815260209182019101610a9b565b9080601f830112156104a95781602061070593359101610a6b565b60603660031901126104a957600435610aea8161056a565b6024359067ffffffffffffffff82116104a95760c060031983360301126104a957610b1361064b565b918060040135835260248101356020840152604481013567ffffffffffffffff81116104a957610b4990600436918401016109a7565b6040840152610b5a606482016105b0565b6060840152610b6b60848201610519565b608084015260a48101359067ffffffffffffffff82116104a9576004610b949236920101610a04565b60a08301526044359167ffffffffffffffff83116104a957610bbd610018933690600401610ab7565b91612e1d565b9181601f840112156104a95782359167ffffffffffffffff83116104a9576020808501948460051b0101116104a957565b346104a95760603660031901126104a95760043567ffffffffffffffff81116104a9578036039060606003198301126104a957602435610c338161056a565b60443567ffffffffffffffff81116104a957610c53903690600401610bc3565b919093610c5e613946565b60048401359061018219018112156104a957610ceb94610ce693610c896004610cdf94880101612fff565b95610c976080880151613efc565b506044610ca388613888565b91013560208801519061016089015192610cbb61064b565b998a5260208a01526040890152606088015260808701525f60a08701523691610a6b565b9083613f12565b613f94565b610018600160c955565b9181601f840112156104a95782359167ffffffffffffffff83116104a957602083818601950101116104a957565b346104a95760603660031901126104a95760043560243567ffffffffffffffff81116104a957610d57903690600401610cf5565b610cbf5460443560ff8216610f45576001610dea9260ff191617610cbf556020610d8086613301565b610d8b3686886106b4565b805190830120604051630829c59f60e01b815260048101949094526001600160a01b037f000000000000000000000000000000000000000000000000000000000000000016602485015260448401919091529192839081906064820190565b03816001600160a01b037f0000000000000000000000000000000000000000000000000000000000000000165afa91821561098a575f92610f14575b5003610f055781610e41916001600160a01b03930190613024565b91168015159081610efa575b50610eeb57610e6f610e68835f52610cbe60205260405f2090565b5460ff1690565b610edc5781610e9a610e8d610ecb945f52610cbe60205260405f2090565b805460ff19166001179055565b6040513381527f3b0b856314838f509dfe81e9e13c651b0e544b42639c58be2c161b2c3892949d90602090a2614096565b61001860ff19610cbf5416610cbf55565b630dc1019760e01b5f5260045ffd5b6332f602d160e11b5f5260045ffd5b90503014155f610e4d565b6301b6e1e760e21b5f5260045ffd5b610f3791925060203d602011610f3e575b610f2f8183610629565b81019061300a565b905f610e26565b503d610f25565b63087f80c160e31b5f5260045ffd5b346104a9575f3660031901126104a9576020604051428152f35b90816101809103126104a95790565b346104a95760403660031901126104a95760043567ffffffffffffffff81116104a957610fae903690600401610f6e565b602435610fba8261305b565b6001600160a01b031691610fd06020820161305b565b6001600160a01b031690610fe66040820161305b565b6001600160a01b031690610ffc6060820161305b565b6001600160a01b03166110116080830161305b565b6001600160a01b031660e083013560c084013560a08501356110366101008701613065565b936110446101208801613065565b956110526101408901613065565b9761016081016110619161306f565b99909a61106c61065a565b9d8e5260208e015260408d015260608c015260808b015260a08a015260c089015260e088015263ffffffff9081166101008801521661012086015263ffffffff1661014085015236906110be926106b4565b610160830152610018913391906138b9565b346104a95760203660031901126104a95760043567ffffffffffffffff81116104a957611101903690600401610f6e565b611109613946565b60ff6108cf5460e01c166112ba5763ffffffff4216906101408101906111418361113284613065565b63ffffffff9182169116101590565b6112ab5761012081019263ffffffff61115985613065565b161061129c5761117161116c36836129d4565b613888565b90611185825f526108d660205260405f2090565b5461128e576111c76111c17f3cee3e290f36226751cd0b3321b213890fe9c768e922f267fa6111836ce05c32935f526108d660205260405f2090565b60019055565b606081013561128160808301359260a08101359060c081013560e0820135976111fe6111f86101008501359b613065565b91613065565b60408401359184359361122d61122861122160208901359861016081019061306f565b36916106b4565b6140c1565b966040519a8b9a8b969394610120989563ffffffff9485939d9c9b98946101408b019e8b5260208b015260408a015260608901521660808701521660a085015260c084015260e08301526101008201520152565b0390a3610018600160c955565b624be79160e21b5f5260045ffd5b63d642b7d960e01b5f5260045ffd5b630277ae7b60e21b5f5260045ffd5b633d90fc5560e11b5f5260045ffd5b346104a95760203660031901126104a9576004356112e6816104f9565b6001600160a01b037f0000000000000000000000000000000000000000000000000000000000000000168030146104a9576001600160a01b037f360894a13ba1a3210667c828492db98dca3e2076cc3735a920a3ca505d382bbc5416036104a95761134f613c0a565b6113576127e5565b7f4910fdfa16fed3260ed0e7147f7cc6da11a60208b5b9406d12a635614ffd91435460ff161561138b575061001890614c03565b6040516352d1902d60e01b8152906020826004816001600160a01b0387165afa5f92816113f1575b506113bc575f80fd5b610018926113ec7f360894a13ba1a3210667c828492db98dca3e2076cc3735a920a3ca505d382bbc5f94146130c5565b614b2f565b61140b91935060203d602011610f3e57610f2f8183610629565b915f6113b3565b60206003198201126104a9576004359067ffffffffffffffff82116104a95761143d91600401610bc3565b9091565b805180835260209291819084018484015e5f828201840152601f01601f1916010190565b602081016020825282518091526040820191602060408360051b8301019401925f915b83831061149757505050505090565b90919293946020806114c8600193603f198682030187526040838b5180511515845201519181858201520190611441565b97019301930191939290611488565b346104a9576114e536611412565b6114ee8161098f565b916114fc6040519384610629565b818352601f1961150b8361098f565b015f5b8181106115805750505f5b828110611532576040518061152e8682611465565b0390f35b8061157a611542600193876130cc565b515f806115508589896130e0565b90611560604051809381936130f7565b0390305af49061156e613104565b60208201529015159052565b01611519565b60209060405161158f816105cf565b5f81526060838201528282880101520161150e565b346104a9575f3660031901126104a95760206040516301e133808152f35b346104a95760403660031901126104a9576024356004356115e1613c0a565b6115e9613946565b6108d054680100000000000000008110156105eb5780600163ffffffff92016108d0558361161682612d1f565b5084600182015555167fc86ba04c55bc5eb2f2876b91c438849a296dbec7b08751c3074d92e04f0a77af5f80a4600160c955005b60403660031901126104a957600435611662816104f9565b60243567ffffffffffffffff81116104a9576116829036906004016106ea565b906001600160a01b037f0000000000000000000000000000000000000000000000000000000000000000168030146104a9576001600160a01b037f360894a13ba1a3210667c828492db98dca3e2076cc3735a920a3ca505d382bbc5416036104a9576116ec613c0a565b7f4910fdfa16fed3260ed0e7147f7cc6da11a60208b5b9406d12a635614ffd91435460ff1615611720576100189150614c03565b6040516352d1902d60e01b81526020816004816001600160a01b0386165afa5f9181611782575b50611750575f80fd5b7f360894a13ba1a3210667c828492db98dca3e2076cc3735a920a3ca505d382bbc036104a95761001891600191614b2f565b61179c91925060203d602011610f3e57610f2f8183610629565b905f611747565b346104a9575f3660031901126104a95760206001600160a01b036108cd5416604051908152f35b346104a9575f3660031901126104a9576001600160a01b037f00000000000000000000000000000000000000000000000000000000000000001630036104a95760206040517f360894a13ba1a3210667c828492db98dca3e2076cc3735a920a3ca505d382bbc8152f35b6101203660031901126104a95760043561184d816104f9565b6024359061185a826104f9565b60443591611867836104f9565b60643560843560a435908160070b82036104a95760c435926118888461056a565b60e4359667ffffffffffffffff88116104a9576118ac6100189836906004016106ea565b956101043597613133565b346104a95760203660031901126104a95760043567ffffffffffffffff81116104a9576118e89036906004016106ea565b6118f06140d6565b610cbf5460ff8116610f455760ff1916600117610cbf556040516349b5c56d60e01b81526020816004817f00000000000000000000000000000000000000000000000000000000000000006001600160a01b03165afa90811561098a575f916119b0575b5042811190811561197d575b5061196e57610ecb90614096565b633ff377d160e11b5f5260045ffd5b61198891504261316f565b7f0000000000000000000000000000000000000000000000000000000000000000115f611960565b6119c9915060203d602011610f3e57610f2f8183610629565b5f611954565b346104a95760c03660031901126104a9576004356119ec816104f9565b602435604435916064356119ff816104f9565b60843567ffffffffffffffff81116104a957611a1f903690600401610cf5565b9160a4359567ffffffffffffffff87116104a957611a44610018973690600401610cf5565b9690956131d4565b346104a9575f3660031901126104a957602060405163ffffffff7f0000000000000000000000000000000000000000000000000000000000000000168152f35b346104a9575f3660031901126104a957602060ff6108cf5460e81c166040519015158152f35b346104a9575f3660031901126104a95760206040517f00000000000000000000000000000000000000000000000000000000000000008152f35b60609060031901126104a957600435611b048161056a565b90602435611b11816104f9565b90604435610705816104f9565b346104a957611b7b611b2f36611aec565b5f549392909190611b6160ff600887901c1615611b4b565b1590565b80968197611bf5575b8115611bd5575b506130c5565b84611b72600160ff195f5416175f55565b611bbe57613243565b611b8157005b611b8f61ff00195f54165f55565b604051600181527f7f26b83ff96e1f2b6a682f133852f6798a09c465da95921460cefb384740249890602090a1005b611bd061010061ff00195f5416175f55565b613243565b303b15915081611be7575b505f611b5b565b60ff1660011490505f611be0565b600160ff8216109150611b54565b346104a9575f3660031901126104a95760206040517f8d1994e2bbbd77564cdca06dd819e7ee2a5efa06c80dcb59a4a7b6e39edc538f8152f35b346104a9575f3660031901126104a957602060405163ffffffff7f0000000000000000000000000000000000000000000000000000000000000000168152f35b346104a9575f3660031901126104a957602060405163ffffffff7f0000000000000000000000000000000000000000000000000000000000000000168152f35b346104a9575f3660031901126104a957611cd56140d6565b5f6001600160a01b036033546001600160a01b03198116603355167f8be0079c531659141344cd1fd0a4f28419497f9722a3daafe3b4186f6b6457e08280a3005b801515036104a957565b346104a95760203660031901126104a9577fe88463c2f254e2b070013a2dc7ee1e099f9bc00534cbdf03af551dc26ae492196020600435611d6081611d16565b611d68613c0a565b611d70613946565b15156108cf547fffff00ffffffffffffffffffffffffffffffffffffffffffffffffffffffffff60ff60e81b8360e81b169116176108cf55604051908152a1600160c955005b346104a95760203660031901126104a9576020611dd4600435613301565b604051908152f35b906020610705928181520190611441565b346104a95760203660031901126104a95760043567ffffffffffffffff81116104a957611e41611e296001600160a01b03923690600401610cf5565b611e31613c0a565b611e39613946565b810190613024565b91168015611ed8576004825110611ec9575f8083516020850182855af190611e67613104565b9115611eba577f41a941b8313293eca483f41d8faa2498e005e6d7700e2e93f41d3cb7e70a897d611ea161152e9460405191829182611ddc565b0390a2611eae600160c955565b60405191829182611ddc565b6348ebf0a960e11b5f5260045ffd5b637f5e6be560e01b5f5260045ffd5b634e93b52160e11b5f5260045ffd5b346104a9575f3660031901126104a95760206040517f000000000000000000000000000000000000000000000000000000000000000015158152f35b6101603660031901126104a957600435611f3c816104f9565b602435611f48816104f9565b60443591611f55836104f9565b606435611f61816104f9565b60843560e43560c43560a435611f76836104f9565b611f7e610578565b93611f87610586565b95610144359967ffffffffffffffff8b116104a957611fad6100189b3690600401610cf5565b9a9099613340565b6101803660031901126104a957600435611fce816104f9565b602435611fda816104f9565b60443591611fe7836104f9565b606435611ff3816104f9565b60843560a43560c43561200461050a565b9061200d610578565b92612016610586565b9461201f610594565b96610164359a67ffffffffffffffff8c116104a9576120456100189c3690600401610cf5565b9b909a613362565b346104a95760603660031901126104a9576020611dd460043561206f816104f9565b60243560443591613479565b346104a95760603660031901126104a95760043560243567ffffffffffffffff81116104a9576120af903690600401610cf5565b9060443567ffffffffffffffff81116104a9576120d0903690600401610cf5565b91909360405160208101906120f9816120eb468988876134b1565b03601f198101835282610629565b51902003612182575f9361211482869561211d940190612a8e565b928101906134ce565b5161214c61212a336104ed565b916120eb60405193849260208401966337bfd2c960e21b885260248501613599565b5190305af4612159613104565b901561216157005b60405163b8fe37a760e01b815290819061217e9060048301611ddc565b0390fd5b630f0c8f4760e11b5f5260045ffd5b346104a95760203660031901126104a9576004356121ad613c0a565b6121b5613946565b6121be81612d1f565b6121f6576001815f80935501557f7c1af0646963afc3343245b103731965735a893347bfa0d58a5dc77a77ae691c5f80a2600160c955005b634e487b7160e01b5f525f60045260245ffd5b6101a03660031901126104a95760443560243560043560643560843560a4356101043560e43560c43561223a610586565b93612243610594565b9561224c6105a2565b97610184359b67ffffffffffffffff8d116104a9576122726100189d3690600401610cf5565b9c909b6135bb565b346104a9575f3660031901126104a95760206001600160a01b0360335416604051908152f35b346104a9575f3660031901126104a95760206040516001600160a01b037f0000000000000000000000000000000000000000000000000000000000000000168152f35b346104a95760e03660031901126104a95760043567ffffffffffffffff81116104a957612314903690600401610f6e565b602435604435916064356084359060a43567ffffffffffffffff81116104a957612342903690600401610cf5565b92909160c4359667ffffffffffffffff88116104a957612369610018983690600401610cf5565b979096613633565b346104a95761237f36611aec565b909160ff5f5460081c16156104a9576123b59063ffffffff60c01b1963ffffffff60c01b6108cf549260c01b169116176108cf55565b60408051926123c48285610629565b600984526020808501926820a1a927a9a996ab1960b91b84526123e981519182610629565b6005815201640312e302e360dc1b815260ff5f5460081c16156104a957600561243393610018965190209120906104e3556104e4556124266144ed565b61242e6144fc565b614510565b614568565b346104a95760203660031901126104a9577f2d5b62420992e5a4afce0e77742636ca2608ef58289fd2e1baa5161ef6e7e41e602060043561247881611d16565b612480613c0a565b612488613946565b15156108cf547fffffff00ffffffffffffffffffffffffffffffffffffffffffffffffffffffff60ff60e01b8360e01b169116176108cf55604051908152a1600160c955005b346104a9575f3660031901126104a9576020604051468152f35b346104a9575f3660031901126104a957602063ffffffff6108cf5460c01c16604051908152f35b346104a95760403660031901126104a95760043560243561252f8261484d565b6001600160a01b03821691825f526108d760205261256060405f20336001600160a01b03165f5260205260405f2090565b549283156125f9576125a95f916125768461484d565b61259333916001600160a01b03165f526108d760205260405f2090565b906001600160a01b03165f5260205260405f2090565b556125c9836125ba6104ed84613efc565b6125c385613efc565b906145c0565b60405192835233927f6c172ea51018fb2eb2118f3f8a507c4df71eb519b8c0052834dc3c920182fef490602090a4005b6336542bf760e21b5f5260045ffd5b602081016020825282518091526040820191602060408360051b8301019401925f915b83831061263a57505050505090565b9091929394602080612658600193603f198682030187528951611441565b9701930193019193929061262b565b346104a95761267536611412565b9061267f82613721565b915f5b818110612697576040518061152e8682612608565b5f806126a48385876130e0565b906126b4604051809381936130f7565b0390305af46126c1613104565b90156126e757906001916126d582876130cc565b526126e081866130cc565b5001612682565b60448151106104a9578060248060046104a9940151830101910161376a565b6101803660031901126104a9576044356024356004356064356084356101043560e43560c43560a4356127388461056a565b612740610586565b94612749610594565b96610164359a67ffffffffffffffff8c116104a95761276f6100189c3690600401610cf5565b9b909a6137cd565b346104a95760206127b56001600160a01b0361279236610845565b91165f526108d7835260405f20906001600160a01b03165f5260205260405f2090565b54604051908152f35b346104a9575f3660031901126104a95760206001600160a01b036108ce5416604051908152f35b604051906127f4602083610629565b5f808352366020840137565b346104a9575f3660031901126104a95761152e61281b6127e5565b604051918291602083526020830190611441565b346104a95760c03660031901126104a95760043560243560443560643560843567ffffffffffffffff81116104a95761286c903690600401610cf5565b60a4939193359067ffffffffffffffff82116104a9577f45e04bc8f121ba11466985789ca2822a91109f31bb8ac85504a37b7eaf873c26946128b5612904933690600401610cf5565b9290916128c0613946565b6128c98a61484d565b6128f8898b89896128db3688886106b4565b926128e7368b8b6106b4565b946001600160a01b034692166140ea565b604051968796876131a1565b0390a3600160c955005b346104a9575f3660031901126104a95760206040516001600160a01b037f0000000000000000000000000000000000000000000000000000000000000000168152f35b346104a9575f3660031901126104a95760206040517f00000000000000000000000000000000000000000000000000000000000000008152f35b346104a95760203660031901126104a9576004355f526108d6602052602060405f2054604051908152f35b346104a9575f3660031901126104a957602060405163ffffffff8152f35b919091610180818403126104a9576129ea61065a565b92813584526020820135602085015260408201356040850152606082013560608501526080820135608085015260a082013560a085015260c082013560c085015260e082013560e0850152610100820135610100850152612a4e61012083016105b0565b610120850152612a6161014083016105b0565b61014085015261016082013567ffffffffffffffff81116104a957612a8692016106ea565b610160830152565b906020828203126104a957813567ffffffffffffffff81116104a95761070592016129d4565b346104a95760203660031901126104a95760043567ffffffffffffffff81116104a957611dd461116c60209236906004016129d4565b346104a9575f3660031901126104a957602060ff6108cf5460e01c166040519015158152f35b346104a9575f3660031901126104a95760206040516ec097ce7bc90715b34b9f10000000008152f35b346104a95760203660031901126104a95761078f600435612b59816104f9565b612b61613c0a565b61242e613946565b346104a95760603660031901126104a95760043567ffffffffffffffff81116104a957612b9a9036906004016129d4565b6024359060443590612baa613946565b60ff6108cf5460e01c166112ba5761014081015163ffffffff16612bd94263ffffffff165b9163ffffffff1690565b101580612c3c575b612c2d57610ceb92612bf282613888565b60c083015160208401519061016085015192612c0c61064b565b958652602086015260408501526060840152608083015260a082015261400d565b630c3a9b9d60e41b5f5260045ffd5b50612c4a6040820151613efc565b6001600160a01b0316331415612be1565b346104a9575f3660031901126104a95760206040516001600160a01b037f0000000000000000000000000000000000000000000000000000000000000000168152f35b6101603660031901126104a9576044356024356004356064356101043560e43560c43560a435608435612cd08561056a565b6101243595612cde8761056a565b610144359967ffffffffffffffff8b116104a957612d036100189b3690600401610cf5565b9a9099613925565b634e487b7160e01b5f52603260045260245ffd5b6108d054811015612d3d576108d05f52600360205f20910201905f90565b612d0b565b346104a95760203660031901126104a9576004356108d0548110156104a957612d6c604091612d1f565b506001815491015482519182526020820152f35b346104a95760203660031901126104a957600435612d9d816104f9565b612da56140d6565b6001600160a01b038116156104a957610018906141ca565b346104a95760203660031901126104a9576004355f52610cbe602052602060ff60405f2054166040519015158152f35b346104a95760203660031901126104a95761078f600435612e0d816104f9565b612e15613c0a565b612433613946565b9190612e27613946565b602081019182514603612f3357611b47612e4f91836001612e4788612d1f565b500154613c3c565b612f24577ff4ad92585b1bc117fbdd644990adf0827bc4c95baeae8a23322af807b6d0020e63ffffffff6060830193612e95612e8f865163ffffffff1690565b87613cc0565b612f178151918551956040810196612f01612ef3612ee28a5197612ebd8d5163ffffffff1690565b986080870199612ed48b516001600160a01b031690565b9160a0890197885194613d29565b9351945199519a5163ffffffff1690565b95516001600160a01b031690565b90519086604051978897169b1699339487612fb1565b0390a4610517600160c955565b63582f497d60e11b5f5260045ffd5b633d23e4d160e11b5f5260045ffd5b90602080835192838152019201905f5b818110612f5f5750505090565b8251845260209384019390920191600101612f52565b90602080835192838152019201905f5b818110612f925750505090565b82516001600160a01b0316845260209384019390920191600101612f85565b949695919260a0946001600160a01b03612fdd8196612ff1958a5260c060208b015260c08a0190612f42565b921660408801528682036060880152612f75565b951515608085015216910152565b6107059036906129d4565b908160209103126104a9575190565b6040513d5f823e3d90fd5b9190916040818403126104a957803561303c816104f9565b92602082013567ffffffffffffffff81116104a95761070592016106ea565b35610705816104f9565b356107058161056a565b903590601e19813603018212156104a9570180359067ffffffffffffffff82116104a9576020019181360383136104a957565b634e487b7160e01b5f52602160045260245ffd5b600311156130c057565b6130a2565b156104a957565b8051821015612d3d5760209160051b010190565b90821015612d3d5761143d9160051b81019061306f565b908092918237015f815290565b3d1561312e573d9061311582610698565b916131236040519384610629565b82523d5f602084013e565b606090565b975061313d613946565b60ff6108cf5460e81c1661079657613154976139ab565b600160c955565b634e487b7160e01b5f52601160045260245ffd5b9190820391821161317c57565b61315b565b908060209392818452848401375f828201840152601f01601f1916010190565b949290936131c692610705979587526020870152608060408701526080860191613181565b926060818503910152613181565b92957f45e04bc8f121ba11466985789ca2822a91109f31bb8ac85504a37b7eaf873c26956001600160a01b03958661323e959a9499166132308a8c8361321b3688886106b4565b91613227368b8b6106b4565b9346908d6140ea565b604051978897169a876131a1565b0390a3565b91909160ff5f5460081c16156104a95761325c336141ca565b60ff5f5460081c16156104a9576132909063ffffffff60c01b1963ffffffff60c01b6108cf549260c01b169116176108cf55565b604080519261329f8285610629565b600984526020808501926820a1a927a9a996ab1960b91b84526132c481519182610629565b6005815201640312e302e360dc1b815260ff5f5460081c16156104a957600561243393610517965190209120906104e3556104e4556124266144ed565b604051602081019182525f604082015260408152613320606082610629565b51902090565b9063ffffffff8091169116019063ffffffff821161317c57565b96949290916105179b9a999896949261336063ffffffff42169889613326565b985b9593919b999897969492909b613376613946565b6108cf5460ff8160e81c166107965760c01c63ffffffff169661339888613871565b6133bf9063ffffffff60c01b1963ffffffff60c01b6108cf549260c01b169116176108cf55565b6133c761066a565b9d6001600160a01b038f921682526001600160a01b031690602001526001600160a01b031660408d01526001600160a01b031660608c015260808b015260a08a015260c08901526001600160a01b031660e088015263ffffffff1661010087015261012086019061343d919063ffffffff169052565b63ffffffff1661014085015263ffffffff166101608401523690613460926106b4565b61018082015261346f90614265565b610517600160c955565b916040519160208301936bffffffffffffffffffffffff199060601b1684526034830152605482015260548152613320607482610629565b9392916020916134c991604087526040870191613181565b930152565b908160209103126104a957604051906020820182811067ffffffffffffffff8211176105eb5760405235815290565b9061018061016061070593805184526020810151602085015260408101516040850152606081015160608501526080810151608085015260a081015160a085015260c081015160c085015260e081015160e085015261010081015161010085015261357761012082015161012086019063ffffffff169052565b6101408181015163ffffffff1690850152015191816101608201520190611441565b6135b1604092959493956060835260608301906134fd565b9460208201520152565b9c9a99989796959493929190966135d0613946565b60ff6108cf5460e81c16610796576135e9908e33613479565b96604051809e6135f8826105f0565b81526020015260408d015260608c015260808b015260a08a015260c089015260e088015261010087015263ffffffff1661012086015261343d565b979290959694939196613644613946565b60ff6108cf5460e01c166112ba5761365f6101408a01613065565b61366e4263ffffffff16612bcf565b101580613702575b612c2d5761346f986136f76136fd9761369261116c36856129d4565b9961369b61064b565b9a6136a636866129d4565b8c5260208c01528560408c01528660608c01526136c436868b6106b4565b60808c015260a08b01526136ef6136db8435613efc565b9860e06101008601359501359536916106b4565b9636916106b4565b956140ea565b61400d565b5061371060408a0135613efc565b6001600160a01b0316331415613676565b9061372b8261098f565b6137386040519182610629565b8281528092613749601f199161098f565b01905f5b82811061375957505050565b80606060208093850101520161374d565b6020818303126104a95780519067ffffffffffffffff82116104a9570181601f820112156104a95780519061379e82610698565b926137ac6040519485610629565b828452602083830101116104a957815f9260208093018386015e8301015290565b9b999897969492909593916137e0613946565b6108cf5460ff8160e81c166107965760c01c63ffffffff169661380288613871565b6138299063ffffffff60c01b1963ffffffff60c01b6108cf549260c01b169116176108cf55565b61383161066a565b9d8e5260208e015260408d015260608c015260808b015260a08a015260c089015260e088015263ffffffff9081166101008801521661012086015261343d565b63ffffffff1663ffffffff811461317c5760010190565b604051613320816138a560208201946040865260608301906134fd565b46604083015203601f198101835282610629565b9190916138c4613946565b60ff6108cf5460e01c166112ba5761014081015163ffffffff166138ed4263ffffffff16612bcf565b101580613906575b612c2d5761346f92612bf282613888565b506139146040820151613efc565b6001600160a01b03163314156138f5565b9a9897959296939094919661394163ffffffff42169788613326565b976137e05b600260c954146104a957600260c955565b92936101409461070597969363ffffffff9386525f60208701526040860152606085015216608083015263ffffffff60a08301525f60c083015260e08201525f610100820152816101208201520190611441565b93949695909692919260070b956706f05b59d3b200006139ca88614608565b1015613bfb576ec097ce7bc90715b34b9f10000000008311613bec576139f663ffffffff83164261316f565b63ffffffff7f00000000000000000000000000000000000000000000000000000000000000001610613bdd576108cf5460c01c63ffffffff1692613a5f613a3c85613871565b63ffffffff60c01b1963ffffffff60c01b6108cf549260c01b169116176108cf55565b6001600160a01b037f000000000000000000000000000000000000000000000000000000000000000016926001600160a01b03861684811480613bd4575b15613b835750813403613b7457833b156104a9575f60049460405195868092630d0e30db60e41b825234905af196871561098a57613b466104ed613b396104ed613b2c613b256104ed63ffffffff9d7f32ed1a409ef04c7b0227189c3a103dc5ac10e775a15b785dcc510201f7c25ad39f9c613b559d613b5a575b506001600160a01b031690565b9e88614658565b946001600160a01b031690565b9c6001600160a01b031690565b92604051978897169a87613957565b0390a4565b80613b685f613b6e93610629565b8061049f565b5f613b18565b636452a35d60e01b5f5260045ffd5b613b55945096613b466104ed613b396104ed613b2c613b256104ed63ffffffff9d7f32ed1a409ef04c7b0227189c3a103dc5ac10e775a15b785dcc510201f7c25ad39f8b6104ed9130903390614617565b50341515613a9d565b63f722177f60e01b5f5260045ffd5b63622db5a960e11b5f5260045ffd5b63284f109760e21b5f5260045ffd5b60ff610cbf541615613c1857565b631147e02f60e11b5f5260045ffd5b908160209103126104a95751610705816104f9565b6107059291604051613cb7816120eb602082019460208652805160408401526020810151606084015260a0613c81604083015160c06080870152610100860190612f42565b606083015163ffffffff168583015260808301516001600160a01b031660c0860152910151838203603f190160e0850152612f75565b519020916146a5565b613ccb600291612d1f565b500162ffffff8260081c1691825f5281602052600160ff60405f205492161b8080921614613d0d57825f528160205260405f205417915f5260205260405f2055565b63954476d960e01b5f5260045ffd5b9190820180921161317c57565b91959495939092935f9681519081815103613eed5781613da8575b50505082613d53575b50505050565b63ffffffff613d8a6104ed836104ed7ffa7fa7cf6d7dde5f9be65a67e6a1a747e7aa864dcd2d793353c722d80fbbb3579588614768565b6040805195865233602087015290959190911693a45f808080613d4d565b6040516370a0823160e01b81523060048201526020816024816001600160a01b0389165afa90811561098a575f91613ece575b505f5f5b848110613dee57505050613d44565b613df881876130cc565b51613e06575b600101613ddf565b90613e1c90613e1583886130cc565b5190613d1c565b90828211613ebf57613e56611b47613e44613e3784886130cc565b516001600160a01b031690565b613e4e848a6130cc565b51908a6146f6565b15613dfe579a50613e678b866130cc565b51613eb5613ead8d613e98613e37613e918c6001600160a01b03165f526108d760205260405f2090565b92896130cc565b6001600160a01b03165f5260205260405f2090565b918254613d1c565b905560019a613dfe565b632ddaa83160e11b5f5260045ffd5b613ee7915060203d602011610f3e57610f2f8183610629565b5f613ddb565b6319a5316760e31b5f5260045ffd5b6001600160a01b0390613f0e8161484d565b1690565b91611b4791613f8e93604081519101519160405191613f308361060d565b8252613cb7613f4c602084019246845260408501958652612d1f565b505493604051928391613f73602084019660208852516060604086015260a08501906134fd565b9151606084015251608083015203601f198101835282610629565b612f2457565b805163ffffffff6101208201511663ffffffff4291161061129c576020820151906002613fca835f526108d660205260405f2090565b5414613ffe57610517926002613feb6001945f526108d660205260405f2090565b55613ff960025f84846148fa565b6149fc565b630479306360e51b5f5260045ffd5b90815163ffffffff6101208201511663ffffffff4291161061129c576020830151926001614044855f526108d660205260405f2090565b540361408f576001935b6002614063825f526108d660205260405f2090565b5414613ffe57610517945f946002614087613ff9945f526108d660205260405f2090565b5584846148fa565b5f9361404e565b5f8091602081519101305af46140aa613104565b50156140b257565b6318cecad560e01b5f5260045ffd5b805190816140cf5750505f90565b6020012090565b6001600160a01b036033541633036104a957565b9392604293610517979660208151910120906040519260208401947f8d1994e2bbbd77564cdca06dd819e7ee2a5efa06c80dcb59a4a7b6e39edc538f86526040850152856060850152608084015260a083015260c082015260c0815261415160e082610629565b519020906104e354906104e454906040519160208301937fc2f8787176b8ac6bf7215b4adcc1e069bf4ab82d9ab1df05a57a91d425935b6e8552604084015260608301526080820152608081526141a960a082610629565b519020906040519161190160f01b8352600283015260228201522090614c64565b6001600160a01b0380603354921691826001600160a01b0319821617603355167f8be0079c531659141344cd1fd0a4f28419497f9722a3daafe3b4186f6b6457e05f80a3565b9692610140989563ffffffff9586949285936107059e9d9a958c5260208c015260408b015260608a01521660808801521660a08601521660c084015260e0830152610100820152816101208201520190611441565b61426f815161484d565b610120810161428e614285825163ffffffff1690565b63ffffffff1690565b8042109081156144b4575b50613bdd576101408201916142b2835163ffffffff1690565b63ffffffff6142e3817f00000000000000000000000000000000000000000000000000000000000000001642613d1c565b9116116144a55761016081015163ffffffff16908180614462575b5060408101908151916001600160a01b037f00000000000000000000000000000000000000000000000000000000000000001680931480614459575b1561440c5760808201513403613b7457823b156104a9575f60049360405194858092630d0e30db60e41b825234905af192831561098a577f32ed1a409ef04c7b0227189c3a103dc5ac10e775a15b785dcc510201f7c25ad3936143f8575b505b51613b5560608301519260808101519060a081015160c0820151976143d76143cc6101008501519b5163ffffffff1690565b9b5163ffffffff1690565b83519b60208501519361018060e0870151960151966040519a8b9a8b614210565b80613b685f61440693610629565b5f614398565b915034613b7457816144546144456104ed7f32ed1a409ef04c7b0227189c3a103dc5ac10e775a15b785dcc510201f7c25ad39551613efc565b60808401519030903390614617565b61439a565b5034151561433a565b6301e13380101561448d575b60e08101511561447e575f6142fe565b63495d907f60e01b5f5260045ffd5b9061449f9063ffffffff421690613326565b9061446e565b63582e388960e01b5f5260045ffd5b6144bf91504261316f565b63ffffffff7f000000000000000000000000000000000000000000000000000000000000000016105f614299565b60ff5f5460081c16156104a957565b60ff5f5460081c16156104a957600160c955565b6001600160a01b0316801561455957806001600160a01b03196108cd5416176108cd557fa9e8c42c9e7fca7f62755189a16b2f5314d43d8fb24e91ba54e6d65f9314e8495f80a2565b63ba97b39d60e01b5f5260045ffd5b6001600160a01b031680156145b157806001600160a01b03196108ce5416176108ce557fa73e8909f8616742d7fe701153d82666f7b7cd480552e23ebb05d358c22fd04e5f80a2565b635b03092b60e11b5f5260045ffd5b60405163a9059cbb60e01b60208201526001600160a01b03909216602483015260448201929092526105179161460382606481015b03601f198101845283610629565b614d65565b5f81126146125790565b5f0390565b9091926001600160a01b036105179481604051956323b872dd60e01b6020880152166024860152166044840152606483015260648252614603608483610629565b5f82670de0b6b3a7640000039212670de0b6b3a76400008312811690670de0b6b3a764000084139015161761317c5781810291818304149015171561317c57670de0b6b3a7640000900490565b929091905f915b84518310156146ee576146bf83866130cc565b5190818110156146dd575f52602052600160405f205b9201916146ac565b905f52602052600160405f206146d5565b915092501490565b60405163a9059cbb60e01b60208281019182526001600160a01b039094166024830152604482019490945290925f9161473281606481016120eb565b519082855af1903d5f519083614749575b50505090565b9192509061475e57503b15155b5f8080614743565b6001915014614756565b906001600160a01b031690815f526108d86020526001600160a01b0360405f2054166147bc6001600160a01b037f000000000000000000000000000000000000000000000000000000000000000016151590565b8061481b575b156147df57506108ce5461051792506001600160a01b0316614f29565b6001600160a01b031691821561480c57610517926148066108ce546001600160a01b031690565b91614df0565b63d623472560e01b5f5260045ffd5b506001600160a01b037f00000000000000000000000000000000000000000000000000000000000000001683146147c2565b60a01c61485657565b6379ec0ed760e11b5f5260045ffd5b61486e826130b6565b52565b9a98969492909c9b99979593916101e08c019d8c5260208c015260408b015260608a0152608089015263ffffffff1660a088015263ffffffff1660c087015260e08601526101008501526101208401526101408301528051610160830152602081015161018083015260408101516101a083015260600151906148f3826130b6565b6101c00152565b7f44b559f101f8fbcc8a0ea43fa91a05a729a5ea6e14a7c75aa750374690137208909392936060830151613b5560808501519260a08601519660c08701519660a08301519860e0820151986101008301519a61495e61012085015163ffffffff1690565b61014085015163ffffffff16916040860151938651956149c261498a61016060208b01519a01516140c1565b9960608c01519b60406149a060808301516140c1565b9101519060206149ae61067a565b9e8f528e015260408d015260608c01614865565b6040519c8d9c8d614871565b9061070594936080936001600160a01b03809316845260208401521660408201528160608201520190611441565b906080614a0a910151613efc565b916080604083015192614a206060820151613efc565b92846001600160a01b03871691856001600160a01b037f00000000000000000000000000000000000000000000000000000000000000001684145f14614b11575015614afd575b614a7b91506001600160a01b0385166151d5565b0151908151151580614af3575b614a925750505050565b6001600160a01b0316803b156104a957614ac8935f809460405196879586948593633a5be8cb60e01b85523391600486016149ce565b03925af1801561098a57614adf575b808080613d4d565b80613b685f614aed93610629565b5f614ad7565b50803b1515614a88565b614b0a9130903390614617565b5f84614a67565b90614b2657614b21923390614617565b614a7b565b614b21926145c0565b91614b3983614c03565b6001600160a01b0383167fbc7cd75a20ee27fd9adebab32041f755214dbc6bffa90cc0225b39da2e5c2d3b5f80a281511590811591614bfb575b50614b7c575050565b614bf8915f8060405193614b91606086610629565b602785527f416464726573733a206c6f772d6c6576656c2064656c65676174652063616c6c60208601527f206661696c6564000000000000000000000000000000000000000000000000006040860152602081519101845af4614bf2613104565b91615800565b50565b90505f614b73565b803b156104a9576001600160a01b03166001600160a01b03197f360894a13ba1a3210667c828492db98dca3e2076cc3735a920a3ca505d382bbc5416177f360894a13ba1a3210667c828492db98dca3e2076cc3735a920a3ca505d382bbc55565b919091614c71828461563a565b93909260058510156130c057614c9a94159384614d3a575b508315614caf575b50505015151590565b614ca057565b63938a182160e01b5f5260045ffd5b5f9350906120eb614ce78594936040519283916020830195630b135d3f60e11b87526024840152604060448401526064830190611441565b51915afa614cf3613104565b81614d2c575b81614d08575b505f8080614c91565b9050614d25630b135d3f60e11b916020808251830101910161300a565b145f614cff565b905060208151101590614cf9565b6001600160a01b0384811691161493505f614c89565b908160209103126104a9575161070581611d16565b906001600160a01b03614dc092165f8060405193614d84604086610629565b602085527f5361666545524332303a206c6f772d6c6576656c2063616c6c206661696c6564602086015260208151910182855af1614bf2613104565b8051908115918215614dd6575b5050156104a957565b614de99250602080918301019101614d50565b5f80614dcd565b92919091614dfc6152b1565b50614e056152f8565b50614e0e6127e5565b614e166127e5565b90614e1f6127e5565b926001600160a01b03614e30610689565b63ffffffff7f0000000000000000000000000000000000000000000000000000000000000000168152951660208601528060408601526060850152608084015260a083015260c082015260405191633b6f743b60e01b835260408380614e9985600483016153b9565b03816001600160a01b0385165afa92831561098a575f93614ef8575b5082513410614ee95761051793614ecd84513461316f565b80614ed9575b50615497565b614ee390336153d0565b5f614ed3565b63557a94ff60e11b5f5260045ffd5b614f1b91935060403d604011614f22575b614f138183610629565b810190615338565b915f614eb5565b503d614f09565b6001600160a01b0316907f00000000000000000000000000000000000000000000000000000000000000006001600160a01b037f00000000000000000000000000000000000000000000000000000000000000001692614f8a83858461575a565b6040516332dd704760e21b815291602083600481885afa92831561098a575f936151ab575b506040516352b7631960e11b81526001600160a01b0391821660048201819052949093909160209185916024918391165afa92831561098a575f9361518a575b5092837f0000000000000000000000000000000000000000000000000000000000000000945b61502157505050505050565b8381111561518457835b85156150e057863b156104a957604051634701287760e11b8152600481018290527f000000000000000000000000000000000000000000000000000000000000000063ffffffff166024820152604481018590526001600160a01b03841660648201525f6084820181905260a482018190526107d060c48301529092908360e481838c5af192831561098a576150c6936150cc575b5061316f565b80615015565b80613b685f6150da93610629565b5f6150c0565b6040516337e9a82760e11b8152600481018290527f000000000000000000000000000000000000000000000000000000000000000063ffffffff166024820152604481018590526001600160a01b0384166064820152916020836084815f8c5af192831561098a576150c693615156575061316f565b6151769060203d811161517d575b61516e8183610629565b8101906155b4565b505f6150c0565b503d615164565b8061502b565b6151a491935060203d602011610f3e57610f2f8183610629565b915f614fef565b6001600160a01b039193506151ce9060203d602011610983576109758183610629565b9290614faf565b906001600160a01b038216803b1580156152a2575b1561526e57506001600160a01b037f00000000000000000000000000000000000000000000000000000000000000001691823b156104a957604051632e1a7d4d60e01b815260048101839052925f908490602490829084905af192831561098a576105179361525a575b506153d0565b80613b685f61526893610629565b5f615254565b61051792506001600160a01b037f0000000000000000000000000000000000000000000000000000000000000000166145c0565b506152ac816155c8565b6151ea565b6040519060e0820182811067ffffffffffffffff8211176105eb57604052606060c0835f81525f60208201525f60408201525f838201528260808201528260a08201520152565b60405190615305826105cf565b5f6020838281520152565b91908260409103126104a957604051615328816105cf565b6020808294805184520151910152565b906040828203126104a95761070591615310565b6107059163ffffffff825116815260208201516020820152604082015160408201526060820151606082015260c06153a8615396608085015160e0608086015260e0850190611441565b60a085015184820360a0860152611441565b9201519060c0818403910152611441565b919060206134c95f9260408652604086019061534c565b8147106104a9575f8080936001600160a01b038294165af16153f0613104565b50156104a957565b519067ffffffffffffffff821682036104a957565b919082810360c081126104a9576080136104a9576107059060806040516154338161060d565b85518152615443602087016153f8565b60208201526154558360408801615310565b60408201529401615310565b9193926001600160a01b0390602061548360609460808752608087019061534c565b968051828701520151604085015216910152565b918351927f000000000000000000000000000000000000000000000000000000000000000084116155a557478411615596576020850151615587576001600160a01b0394615513946154f560c095604086015198899116809561566b565b60405180968195829463c7c7f5b360e01b8452309160048501615461565b03925af190811561098a575f91615556575b506020810151820361554757510361553957565b623c548b60ea1b5f5260045ffd5b631bfc3cb560e11b5f5260045ffd5b615578915060c03d60c011615580575b6155708183610629565b81019061540d565b90505f615525565b503d615566565b630e282ec960e21b5f5260045ffd5b63a6226f8560e01b5f5260045ffd5b631754d7a960e01b5f5260045ffd5b908160209103126104a957610705906153f8565b803b6155d381610698565b906155e16040519283610629565b8082525f6020830180943c5190516001600160e81b0319811691906003821061561b575b50506001600160e81b03191661ef0160f01b1490565b6001600160e81b0319600392830390921b82901b161690505f80615605565b9060418151145f146156625761143d91602082015190606060408401519301515f1a9061582b565b50505f90600290565b60405163095ea7b360e01b602082019081526001600160a01b038416602483015260448083019590955293815291926156d7906156a9606485610629565b5f806001600160a01b0385169286519082855af1906156c6613104565b82615728575b508161572157501590565b6156e057505050565b60405163095ea7b360e01b60208201526001600160a01b0390931660248401525f6044840152610517926146039061571b81606481016120eb565b82614d65565b3b15919050565b80519192508115918215615740575b5050905f6156cc565b6157539250602080918301019101614d50565b5f80615737565b604051636eb1769f60e11b81523060048201526001600160a01b0383166024820152602081806044810103816001600160a01b0386165afa90811561098a5761051794614603926157b2925f916157e1575b50613d1c565b60405163095ea7b360e01b60208201526001600160a01b039094166024850152604484015282606481016145f5565b6157fa915060203d602011610f3e57610f2f8183610629565b5f6157ac565b9192501561581c57815115615813575090565b3b156104a95790565b5080519081156104a957602001fd5b7f7fffffffffffffffffffffffffffffff5d576e7357a4501ddfe92f46681b20a0841161589b576020935f9360ff60809460405194855216868401526040830152606082015282805260015afa1561098a575f516001600160a01b0381161561589357905f90565b505f90600190565b505050505f9060039056fea26469706673582212207d9c998d2aad656f96cc4e51032200dbf9296936e38d7a18d9f13fb42738544764736f6c634300081e0033"
}