{
  "address": "0xeF684C38F94F48775959ECf2012D7E864ffb9dd4",
  "abi": [
    {
      "inputs": [],
      "name": "NotCrossChainCall",
      "type": "error"
    },
    {
      "anonymous": false,
      "inputs": [
        {
          "indexed": false,
          "internalType": "address",
          "name": "previousAdmin",
          "type": "address"
        },
        {
          "indexed": false,
          "internalType": "address",
          "name": "newAdmin",
          "type": "address"
        }
      ],
      "name": "AdminChanged",
      "type": "event"
    },
    {
      "anonymous": false,
      "inputs": [
        {
          "indexed": true,
          "internalType": "address",
          "name": "beacon",
          "type": "address"
        }
      ],
      "name": "BeaconUpgraded",
      "type": "event"
    },
    {
      "anonymous": false,
      "inputs": [
        {
          "indexed": true,
          "internalType": "uint256",
          "name": "rootBundleId",
          "type": "uint256"
        }
      ],
      "name": "EmergencyDeleteRootBundle",
      "type": "event"
    },
    {
      "anonymous": false,
      "inputs": [
        {
          "indexed": true,
          "internalType": "address",
          "name": "originToken",
          "type": "address"
        },
        {
          "indexed": true,
          "internalType": "uint256",
          "name": "destinationChainId",
          "type": "uint256"
        },
        {
          "indexed": false,
          "internalType": "bool",
          "name": "enabled",
          "type": "bool"
        }
      ],
      "name": "EnabledDepositRoute",
      "type": "event"
    },
    {
      "anonymous": false,
      "inputs": [
        {
          "indexed": false,
          "internalType": "uint256",
          "name": "amountToReturn",
          "type": "uint256"
        },
        {
          "indexed": true,
          "internalType": "uint256",
          "name": "chainId",
          "type": "uint256"
        },
        {
          "indexed": false,
          "internalType": "uint256[]",
          "name": "refundAmounts",
          "type": "uint256[]"
        },
        {
          "indexed": true,
          "internalType": "uint32",
          "name": "rootBundleId",
          "type": "uint32"
        },
        {
          "indexed": true,
          "internalType": "uint32",
          "name": "leafId",
          "type": "uint32"
        },
        {
          "indexed": false,
          "internalType": "address",
          "name": "l2TokenAddress",
          "type": "address"
        },
        {
          "indexed": false,
          "internalType": "address[]",
          "name": "refundAddresses",
          "type": "address[]"
        },
        {
          "indexed": false,
          "internalType": "address",
          "name": "caller",
          "type": "address"
        }
      ],
      "name": "ExecutedRelayerRefundRoot",
      "type": "event"
    },
    {
      "anonymous": false,
      "inputs": [
        {
          "indexed": false,
          "internalType": "uint256",
          "name": "amount",
          "type": "uint256"
        },
        {
          "indexed": false,
          "internalType": "uint256",
          "name": "totalFilledAmount",
          "type": "uint256"
        },
        {
          "indexed": false,
          "internalType": "uint256",
          "name": "fillAmount",
          "type": "uint256"
        },
        {
          "indexed": false,
          "internalType": "uint256",
          "name": "repaymentChainId",
          "type": "uint256"
        },
        {
          "indexed": true,
          "internalType": "uint256",
          "name": "originChainId",
          "type": "uint256"
        },
        {
          "indexed": false,
          "internalType": "uint256",
          "name": "destinationChainId",
          "type": "uint256"
        },
        {
          "indexed": false,
          "internalType": "int64",
          "name": "relayerFeePct",
          "type": "int64"
        },
        {
          "indexed": false,
          "internalType": "int64",
          "name": "realizedLpFeePct",
          "type": "int64"
        },
        {
          "indexed": true,
          "internalType": "uint32",
          "name": "depositId",
          "type": "uint32"
        },
        {
          "indexed": false,
          "internalType": "address",
          "name": "destinationToken",
          "type": "address"
        },
        {
          "indexed": false,
          "internalType": "address",
          "name": "relayer",
          "type": "address"
        },
        {
          "indexed": true,
          "internalType": "address",
          "name": "depositor",
          "type": "address"
        },
        {
          "indexed": false,
          "internalType": "address",
          "name": "recipient",
          "type": "address"
        },
        {
          "indexed": false,
          "internalType": "bytes",
          "name": "message",
          "type": "bytes"
        },
        {
          "components": [
            {
              "internalType": "address",
              "name": "recipient",
              "type": "address"
            },
            {
              "internalType": "bytes",
              "name": "message",
              "type": "bytes"
            },
            {
              "internalType": "int64",
              "name": "relayerFeePct",
              "type": "int64"
            },
            {
              "internalType": "bool",
              "name": "isSlowRelay",
              "type": "bool"
            },
            {
              "internalType": "int256",
              "name": "payoutAdjustmentPct",
              "type": "int256"
            }
          ],
          "indexed": false,
          "internalType": "struct SpokePool.RelayExecutionInfo",
          "name": "updatableRelayData",
          "type": "tuple"
        }
      ],
      "name": "FilledRelay",
      "type": "event"
    },
    {
      "anonymous": false,
      "inputs": [
        {
          "indexed": false,
          "internalType": "uint256",
          "name": "amount",
          "type": "uint256"
        },
        {
          "indexed": false,
          "internalType": "uint256",
          "name": "originChainId",
          "type": "uint256"
        },
        {
          "indexed": true,
          "internalType": "uint256",
          "name": "destinationChainId",
          "type": "uint256"
        },
        {
          "indexed": false,
          "internalType": "int64",
          "name": "relayerFeePct",
          "type": "int64"
        },
        {
          "indexed": true,
          "internalType": "uint32",
          "name": "depositId",
          "type": "uint32"
        },
        {
          "indexed": false,
          "internalType": "uint32",
          "name": "quoteTimestamp",
          "type": "uint32"
        },
        {
          "indexed": false,
          "internalType": "address",
          "name": "originToken",
          "type": "address"
        },
        {
          "indexed": false,
          "internalType": "address",
          "name": "recipient",
          "type": "address"
        },
        {
          "indexed": true,
          "internalType": "address",
          "name": "depositor",
          "type": "address"
        },
        {
          "indexed": false,
          "internalType": "bytes",
          "name": "message",
          "type": "bytes"
        }
      ],
      "name": "FundsDeposited",
      "type": "event"
    },
    {
      "anonymous": false,
      "inputs": [
        {
          "indexed": false,
          "internalType": "uint8",
          "name": "version",
          "type": "uint8"
        }
      ],
      "name": "Initialized",
      "type": "event"
    },
    {
      "anonymous": false,
      "inputs": [
        {
          "indexed": true,
          "internalType": "address",
          "name": "l2Token",
          "type": "address"
        },
        {
          "indexed": false,
          "internalType": "address",
          "name": "target",
          "type": "address"
        },
        {
          "indexed": false,
          "internalType": "uint256",
          "name": "numberOfTokensBridged",
          "type": "uint256"
        },
        {
          "indexed": false,
          "internalType": "uint256",
          "name": "l1Gas",
          "type": "uint256"
        }
      ],
      "name": "OptimismTokensBridged",
      "type": "event"
    },
    {
      "anonymous": false,
      "inputs": [
        {
          "indexed": false,
          "internalType": "bool",
          "name": "isPaused",
          "type": "bool"
        }
      ],
      "name": "PausedDeposits",
      "type": "event"
    },
    {
      "anonymous": false,
      "inputs": [
        {
          "indexed": false,
          "internalType": "bool",
          "name": "isPaused",
          "type": "bool"
        }
      ],
      "name": "PausedFills",
      "type": "event"
    },
    {
      "anonymous": false,
      "inputs": [
        {
          "indexed": true,
          "internalType": "address",
          "name": "relayer",
          "type": "address"
        },
        {
          "indexed": false,
          "internalType": "address",
          "name": "refundToken",
          "type": "address"
        },
        {
          "indexed": false,
          "internalType": "uint256",
          "name": "amount",
          "type": "uint256"
        },
        {
          "indexed": true,
          "internalType": "uint256",
          "name": "originChainId",
          "type": "uint256"
        },
        {
          "indexed": false,
          "internalType": "uint256",
          "name": "destinationChainId",
          "type": "uint256"
        },
        {
          "indexed": false,
          "internalType": "int64",
          "name": "realizedLpFeePct",
          "type": "int64"
        },
        {
          "indexed": true,
          "internalType": "uint32",
          "name": "depositId",
          "type": "uint32"
        },
        {
          "indexed": false,
          "internalType": "uint256",
          "name": "fillBlock",
          "type": "uint256"
        },
        {
          "indexed": false,
          "internalType": "uint256",
          "name": "previousIdenticalRequests",
          "type": "uint256"
        }
      ],
      "name": "RefundRequested",
      "type": "event"
    },
    {
      "anonymous": false,
      "inputs": [
        {
          "indexed": true,
          "internalType": "uint32",
          "name": "rootBundleId",
          "type": "uint32"
        },
        {
          "indexed": true,
          "internalType": "bytes32",
          "name": "relayerRefundRoot",
          "type": "bytes32"
        },
        {
          "indexed": true,
          "internalType": "bytes32",
          "name": "slowRelayRoot",
          "type": "bytes32"
        }
      ],
      "name": "RelayedRootBundle",
      "type": "event"
    },
    {
      "anonymous": false,
      "inputs": [
        {
          "indexed": false,
          "internalType": "int64",
          "name": "newRelayerFeePct",
          "type": "int64"
        },
        {
          "indexed": true,
          "internalType": "uint32",
          "name": "depositId",
          "type": "uint32"
        },
        {
          "indexed": true,
          "internalType": "address",
          "name": "depositor",
          "type": "address"
        },
        {
          "indexed": false,
          "internalType": "address",
          "name": "updatedRecipient",
          "type": "address"
        },
        {
          "indexed": false,
          "internalType": "bytes",
          "name": "updatedMessage",
          "type": "bytes"
        },
        {
          "indexed": false,
          "internalType": "bytes",
          "name": "depositorSignature",
          "type": "bytes"
        }
      ],
      "name": "RequestedSpeedUpDeposit",
      "type": "event"
    },
    {
      "anonymous": false,
      "inputs": [
        {
          "indexed": false,
          "internalType": "uint32",
          "name": "newBuffer",
          "type": "uint32"
        }
      ],
      "name": "SetDepositQuoteTimeBuffer",
      "type": "event"
    },
    {
      "anonymous": false,
      "inputs": [
        {
          "indexed": true,
          "internalType": "address",
          "name": "newHubPool",
          "type": "address"
        }
      ],
      "name": "SetHubPool",
      "type": "event"
    },
    {
      "anonymous": false,
      "inputs": [
        {
          "indexed": true,
          "internalType": "uint32",
          "name": "newL1Gas",
          "type": "uint32"
        }
      ],
      "name": "SetL1Gas",
      "type": "event"
    },
    {
      "anonymous": false,
      "inputs": [
        {
          "indexed": true,
          "internalType": "address",
          "name": "l2Token",
          "type": "address"
        },
        {
          "indexed": true,
          "internalType": "address",
          "name": "tokenBridge",
          "type": "address"
        }
      ],
      "name": "SetL2TokenBridge",
      "type": "event"
    },
    {
      "anonymous": false,
      "inputs": [
        {
          "indexed": true,
          "internalType": "address",
          "name": "newAdmin",
          "type": "address"
        }
      ],
      "name": "SetXDomainAdmin",
      "type": "event"
    },
    {
      "anonymous": false,
      "inputs": [
        {
          "indexed": false,
          "internalType": "uint256",
          "name": "amountToReturn",
          "type": "uint256"
        },
        {
          "indexed": true,
          "internalType": "uint256",
          "name": "chainId",
          "type": "uint256"
        },
        {
          "indexed": true,
          "internalType": "uint32",
          "name": "leafId",
          "type": "uint32"
        },
        {
          "indexed": true,
          "internalType": "address",
          "name": "l2TokenAddress",
          "type": "address"
        },
        {
          "indexed": false,
          "internalType": "address",
          "name": "caller",
          "type": "address"
        }
      ],
      "name": "TokensBridged",
      "type": "event"
    },
    {
      "anonymous": false,
      "inputs": [
        {
          "indexed": true,
          "internalType": "address",
          "name": "implementation",
          "type": "address"
        }
      ],
      "name": "Upgraded",
      "type": "event"
    },
    {
      "inputs": [],
      "name": "MAX_TRANSFER_SIZE",
      "outputs": [
        {
          "internalType": "uint256",
          "name": "",
          "type": "uint256"
        }
      ],
      "stateMutability": "view",
      "type": "function"
    },
    {
      "inputs": [],
      "name": "SLOW_FILL_MAX_TOKENS_TO_SEND",
      "outputs": [
        {
          "internalType": "uint256",
          "name": "",
          "type": "uint256"
        }
      ],
      "stateMutability": "view",
      "type": "function"
    },
    {
      "inputs": [],
      "name": "UPDATE_DEPOSIT_DETAILS_HASH",
      "outputs": [
        {
          "internalType": "bytes32",
          "name": "",
          "type": "bytes32"
        }
      ],
      "stateMutability": "view",
      "type": "function"
    },
    {
      "inputs": [
        {
          "internalType": "uint32",
          "name": "_initialDepositId",
          "type": "uint32"
        },
        {
          "internalType": "address",
          "name": "_crossDomainAdmin",
          "type": "address"
        },
        {
          "internalType": "address",
          "name": "_hubPool",
          "type": "address"
        },
        {
          "internalType": "address",
          "name": "_l2Eth",
          "type": "address"
        },
        {
          "internalType": "address",
          "name": "_wrappedNativeToken",
          "type": "address"
        }
      ],
      "name": "__OvmSpokePool_init",
      "outputs": [],
      "stateMutability": "nonpayable",
      "type": "function"
    },
    {
      "inputs": [
        {
          "internalType": "uint32",
          "name": "_initialDepositId",
          "type": "uint32"
        },
        {
          "internalType": "address",
          "name": "_crossDomainAdmin",
          "type": "address"
        },
        {
          "internalType": "address",
          "name": "_hubPool",
          "type": "address"
        },
        {
          "internalType": "address",
          "name": "_wrappedNativeTokenAddress",
          "type": "address"
        }
      ],
      "name": "__SpokePool_init",
      "outputs": [],
      "stateMutability": "nonpayable",
      "type": "function"
    },
    {
      "inputs": [],
      "name": "chainId",
      "outputs": [
        {
          "internalType": "uint256",
          "name": "",
          "type": "uint256"
        }
      ],
      "stateMutability": "view",
      "type": "function"
    },
    {
      "inputs": [],
      "name": "crossDomainAdmin",
      "outputs": [
        {
          "internalType": "address",
          "name": "",
          "type": "address"
        }
      ],
      "stateMutability": "view",
      "type": "function"
    },
    {
      "inputs": [
        {
          "internalType": "address",
          "name": "recipient",
          "type": "address"
        },
        {
          "internalType": "address",
          "name": "originToken",
          "type": "address"
        },
        {
          "internalType": "uint256",
          "name": "amount",
          "type": "uint256"
        },
        {
          "internalType": "uint256",
          "name": "destinationChainId",
          "type": "uint256"
        },
        {
          "internalType": "int64",
          "name": "relayerFeePct",
          "type": "int64"
        },
        {
          "internalType": "uint32",
          "name": "quoteTimestamp",
          "type": "uint32"
        },
        {
          "internalType": "bytes",
          "name": "message",
          "type": "bytes"
        },
        {
          "internalType": "uint256",
          "name": "maxCount",
          "type": "uint256"
        }
      ],
      "name": "deposit",
      "outputs": [],
      "stateMutability": "payable",
      "type": "function"
    },
    {
      "inputs": [
        {
          "internalType": "address",
          "name": "",
          "type": "address"
        }
      ],
      "name": "depositCounter",
      "outputs": [
        {
          "internalType": "uint256",
          "name": "",
          "type": "uint256"
        }
      ],
      "stateMutability": "view",
      "type": "function"
    },
    {
      "inputs": [
        {
          "internalType": "address",
          "name": "recipient",
          "type": "address"
        },
        {
          "internalType": "address",
          "name": "originToken",
          "type": "address"
        },
        {
          "internalType": "uint256",
          "name": "amount",
          "type": "uint256"
        },
        {
          "internalType": "uint256",
          "name": "destinationChainId",
          "type": "uint256"
        },
        {
          "internalType": "int64",
          "name": "relayerFeePct",
          "type": "int64"
        },
        {
          "internalType": "bytes",
          "name": "message",
          "type": "bytes"
        },
        {
          "internalType": "uint256",
          "name": "maxCount",
          "type": "uint256"
        }
      ],
      "name": "depositNow",
      "outputs": [],
      "stateMutability": "payable",
      "type": "function"
    },
    {
      "inputs": [],
      "name": "depositQuoteTimeBuffer",
      "outputs": [
        {
          "internalType": "uint32",
          "name": "",
          "type": "uint32"
        }
      ],
      "stateMutability": "view",
      "type": "function"
    },
    {
      "inputs": [
        {
          "internalType": "uint256",
          "name": "rootBundleId",
          "type": "uint256"
        }
      ],
      "name": "emergencyDeleteRootBundle",
      "outputs": [],
      "stateMutability": "nonpayable",
      "type": "function"
    },
    {
      "inputs": [
        {
          "internalType": "address",
          "name": "",
          "type": "address"
        },
        {
          "internalType": "uint256",
          "name": "",
          "type": "uint256"
        }
      ],
      "name": "enabledDepositRoutes",
      "outputs": [
        {
          "internalType": "bool",
          "name": "",
          "type": "bool"
        }
      ],
      "stateMutability": "view",
      "type": "function"
    },
    {
      "inputs": [
        {
          "internalType": "uint32",
          "name": "rootBundleId",
          "type": "uint32"
        },
        {
          "components": [
            {
              "internalType": "uint256",
              "name": "amountToReturn",
              "type": "uint256"
            },
            {
              "internalType": "uint256",
              "name": "chainId",
              "type": "uint256"
            },
            {
              "internalType": "uint256[]",
              "name": "refundAmounts",
              "type": "uint256[]"
            },
            {
              "internalType": "uint32",
              "name": "leafId",
              "type": "uint32"
            },
            {
              "internalType": "address",
              "name": "l2TokenAddress",
              "type": "address"
            },
            {
              "internalType": "address[]",
              "name": "refundAddresses",
              "type": "address[]"
            }
          ],
          "internalType": "struct SpokePoolInterface.RelayerRefundLeaf",
          "name": "relayerRefundLeaf",
          "type": "tuple"
        },
        {
          "internalType": "bytes32[]",
          "name": "proof",
          "type": "bytes32[]"
        }
      ],
      "name": "executeRelayerRefundLeaf",
      "outputs": [],
      "stateMutability": "nonpayable",
      "type": "function"
    },
    {
      "inputs": [
        {
          "internalType": "address",
          "name": "depositor",
          "type": "address"
        },
        {
          "internalType": "address",
          "name": "recipient",
          "type": "address"
        },
        {
          "internalType": "address",
          "name": "destinationToken",
          "type": "address"
        },
        {
          "internalType": "uint256",
          "name": "totalRelayAmount",
          "type": "uint256"
        },
        {
          "internalType": "uint256",
          "name": "originChainId",
          "type": "uint256"
        },
        {
          "internalType": "int64",
          "name": "realizedLpFeePct",
          "type": "int64"
        },
        {
          "internalType": "int64",
          "name": "relayerFeePct",
          "type": "int64"
        },
        {
          "internalType": "uint32",
          "name": "depositId",
          "type": "uint32"
        },
        {
          "internalType": "uint32",
          "name": "rootBundleId",
          "type": "uint32"
        },
        {
          "internalType": "bytes",
          "name": "message",
          "type": "bytes"
        },
        {
          "internalType": "int256",
          "name": "payoutAdjustment",
          "type": "int256"
        },
        {
          "internalType": "bytes32[]",
          "name": "proof",
          "type": "bytes32[]"
        }
      ],
      "name": "executeSlowRelayLeaf",
      "outputs": [],
      "stateMutability": "nonpayable",
      "type": "function"
    },
    {
      "inputs": [
        {
          "internalType": "address",
          "name": "",
          "type": "address"
        }
      ],
      "name": "fillCounter",
      "outputs": [
        {
          "internalType": "uint256",
          "name": "",
          "type": "uint256"
        }
      ],
      "stateMutability": "view",
      "type": "function"
    },
    {
      "inputs": [
        {
          "internalType": "address",
          "name": "depositor",
          "type": "address"
        },
        {
          "internalType": "address",
          "name": "recipient",
          "type": "address"
        },
        {
          "internalType": "address",
          "name": "destinationToken",
          "type": "address"
        },
        {
          "internalType": "uint256",
          "name": "amount",
          "type": "uint256"
        },
        {
          "internalType": "uint256",
          "name": "maxTokensToSend",
          "type": "uint256"
        },
        {
          "internalType": "uint256",
          "name": "repaymentChainId",
          "type": "uint256"
        },
        {
          "internalType": "uint256",
          "name": "originChainId",
          "type": "uint256"
        },
        {
          "internalType": "int64",
          "name": "realizedLpFeePct",
          "type": "int64"
        },
        {
          "internalType": "int64",
          "name": "relayerFeePct",
          "type": "int64"
        },
        {
          "internalType": "uint32",
          "name": "depositId",
          "type": "uint32"
        },
        {
          "internalType": "bytes",
          "name": "message",
          "type": "bytes"
        },
        {
          "internalType": "uint256",
          "name": "maxCount",
          "type": "uint256"
        }
      ],
      "name": "fillRelay",
      "outputs": [],
      "stateMutability": "nonpayable",
      "type": "function"
    },
    {
      "inputs": [
        {
          "internalType": "address",
          "name": "depositor",
          "type": "address"
        },
        {
          "internalType": "address",
          "name": "recipient",
          "type": "address"
        },
        {
          "internalType": "address",
          "name": "updatedRecipient",
          "type": "address"
        },
        {
          "internalType": "address",
          "name": "destinationToken",
          "type": "address"
        },
        {
          "internalType": "uint256",
          "name": "amount",
          "type": "uint256"
        },
        {
          "internalType": "uint256",
          "name": "maxTokensToSend",
          "type": "uint256"
        },
        {
          "internalType": "uint256",
          "name": "repaymentChainId",
          "type": "uint256"
        },
        {
          "internalType": "uint256",
          "name": "originChainId",
          "type": "uint256"
        },
        {
          "internalType": "int64",
          "name": "realizedLpFeePct",
          "type": "int64"
        },
        {
          "internalType": "int64",
          "name": "relayerFeePct",
          "type": "int64"
        },
        {
          "internalType": "int64",
          "name": "updatedRelayerFeePct",
          "type": "int64"
        },
        {
          "internalType": "uint32",
          "name": "depositId",
          "type": "uint32"
        },
        {
          "internalType": "bytes",
          "name": "message",
          "type": "bytes"
        },
        {
          "internalType": "bytes",
          "name": "updatedMessage",
          "type": "bytes"
        },
        {
          "internalType": "bytes",
          "name": "depositorSignature",
          "type": "bytes"
        },
        {
          "internalType": "uint256",
          "name": "maxCount",
          "type": "uint256"
        }
      ],
      "name": "fillRelayWithUpdatedDeposit",
      "outputs": [],
      "stateMutability": "nonpayable",
      "type": "function"
    },
    {
      "inputs": [],
      "name": "getCurrentTime",
      "outputs": [
        {
          "internalType": "uint256",
          "name": "",
          "type": "uint256"
        }
      ],
      "stateMutability": "view",
      "type": "function"
    },
    {
      "inputs": [],
      "name": "hubPool",
      "outputs": [
        {
          "internalType": "address",
          "name": "",
          "type": "address"
        }
      ],
      "stateMutability": "view",
      "type": "function"
    },
    {
      "inputs": [
        {
          "internalType": "uint32",
          "name": "_initialDepositId",
          "type": "uint32"
        },
        {
          "internalType": "address",
          "name": "_crossDomainAdmin",
          "type": "address"
        },
        {
          "internalType": "address",
          "name": "_hubPool",
          "type": "address"
        }
      ],
      "name": "initialize",
      "outputs": [],
      "stateMutability": "nonpayable",
      "type": "function"
    },
    {
      "inputs": [],
      "name": "l1Gas",
      "outputs": [
        {
          "internalType": "uint32",
          "name": "",
          "type": "uint32"
        }
      ],
      "stateMutability": "view",
      "type": "function"
    },
    {
      "inputs": [],
      "name": "l2Eth",
      "outputs": [
        {
          "internalType": "address",
          "name": "",
          "type": "address"
        }
      ],
      "stateMutability": "view",
      "type": "function"
    },
    {
      "inputs": [],
      "name": "messenger",
      "outputs": [
        {
          "internalType": "address",
          "name": "",
          "type": "address"
        }
      ],
      "stateMutability": "view",
      "type": "function"
    },
    {
      "inputs": [
        {
          "internalType": "bytes[]",
          "name": "data",
          "type": "bytes[]"
        }
      ],
      "name": "multicall",
      "outputs": [
        {
          "internalType": "bytes[]",
          "name": "results",
          "type": "bytes[]"
        }
      ],
      "stateMutability": "nonpayable",
      "type": "function"
    },
    {
      "inputs": [],
      "name": "numberOfDeposits",
      "outputs": [
        {
          "internalType": "uint32",
          "name": "",
          "type": "uint32"
        }
      ],
      "stateMutability": "view",
      "type": "function"
    },
    {
      "inputs": [
        {
          "internalType": "bool",
          "name": "pause",
          "type": "bool"
        }
      ],
      "name": "pauseDeposits",
      "outputs": [],
      "stateMutability": "nonpayable",
      "type": "function"
    },
    {
      "inputs": [
        {
          "internalType": "bool",
          "name": "pause",
          "type": "bool"
        }
      ],
      "name": "pauseFills",
      "outputs": [],
      "stateMutability": "nonpayable",
      "type": "function"
    },
    {
      "inputs": [],
      "name": "pausedDeposits",
      "outputs": [
        {
          "internalType": "bool",
          "name": "",
          "type": "bool"
        }
      ],
      "stateMutability": "view",
      "type": "function"
    },
    {
      "inputs": [],
      "name": "pausedFills",
      "outputs": [
        {
          "internalType": "bool",
          "name": "",
          "type": "bool"
        }
      ],
      "stateMutability": "view",
      "type": "function"
    },
    {
      "inputs": [],
      "name": "proxiableUUID",
      "outputs": [
        {
          "internalType": "bytes32",
          "name": "",
          "type": "bytes32"
        }
      ],
      "stateMutability": "view",
      "type": "function"
    },
    {
      "inputs": [
        {
          "internalType": "bytes32",
          "name": "",
          "type": "bytes32"
        }
      ],
      "name": "refundsRequested",
      "outputs": [
        {
          "internalType": "uint256",
          "name": "",
          "type": "uint256"
        }
      ],
      "stateMutability": "view",
      "type": "function"
    },
    {
      "inputs": [
        {
          "internalType": "bytes32",
          "name": "",
          "type": "bytes32"
        }
      ],
      "name": "relayFills",
      "outputs": [
        {
          "internalType": "uint256",
          "name": "",
          "type": "uint256"
        }
      ],
      "stateMutability": "view",
      "type": "function"
    },
    {
      "inputs": [
        {
          "internalType": "bytes32",
          "name": "relayerRefundRoot",
          "type": "bytes32"
        },
        {
          "internalType": "bytes32",
          "name": "slowRelayRoot",
          "type": "bytes32"
        }
      ],
      "name": "relayRootBundle",
      "outputs": [],
      "stateMutability": "nonpayable",
      "type": "function"
    },
    {
      "inputs": [
        {
          "internalType": "address",
          "name": "refundToken",
          "type": "address"
        },
        {
          "internalType": "uint256",
          "name": "amount",
          "type": "uint256"
        },
        {
          "internalType": "uint256",
          "name": "originChainId",
          "type": "uint256"
        },
        {
          "internalType": "uint256",
          "name": "destinationChainId",
          "type": "uint256"
        },
        {
          "internalType": "int64",
          "name": "realizedLpFeePct",
          "type": "int64"
        },
        {
          "internalType": "uint32",
          "name": "depositId",
          "type": "uint32"
        },
        {
          "internalType": "uint256",
          "name": "fillBlock",
          "type": "uint256"
        },
        {
          "internalType": "uint256",
          "name": "maxCount",
          "type": "uint256"
        }
      ],
      "name": "requestRefund",
      "outputs": [],
      "stateMutability": "nonpayable",
      "type": "function"
    },
    {
      "inputs": [
        {
          "internalType": "uint256",
          "name": "",
          "type": "uint256"
        }
      ],
      "name": "rootBundles",
      "outputs": [
        {
          "internalType": "bytes32",
          "name": "slowRelayRoot",
          "type": "bytes32"
        },
        {
          "internalType": "bytes32",
          "name": "relayerRefundRoot",
          "type": "bytes32"
        }
      ],
      "stateMutability": "view",
      "type": "function"
    },
    {
      "inputs": [
        {
          "internalType": "address",
          "name": "newCrossDomainAdmin",
          "type": "address"
        }
      ],
      "name": "setCrossDomainAdmin",
      "outputs": [],
      "stateMutability": "nonpayable",
      "type": "function"
    },
    {
      "inputs": [
        {
          "internalType": "uint32",
          "name": "newDepositQuoteTimeBuffer",
          "type": "uint32"
        }
      ],
      "name": "setDepositQuoteTimeBuffer",
      "outputs": [],
      "stateMutability": "nonpayable",
      "type": "function"
    },
    {
      "inputs": [
        {
          "internalType": "address",
          "name": "originToken",
          "type": "address"
        },
        {
          "internalType": "uint256",
          "name": "destinationChainId",
          "type": "uint256"
        },
        {
          "internalType": "bool",
          "name": "enabled",
          "type": "bool"
        }
      ],
      "name": "setEnableRoute",
      "outputs": [],
      "stateMutability": "nonpayable",
      "type": "function"
    },
    {
      "inputs": [
        {
          "internalType": "address",
          "name": "newHubPool",
          "type": "address"
        }
      ],
      "name": "setHubPool",
      "outputs": [],
      "stateMutability": "nonpayable",
      "type": "function"
    },
    {
      "inputs": [
        {
          "internalType": "uint32",
          "name": "newl1Gas",
          "type": "uint32"
        }
      ],
      "name": "setL1GasLimit",
      "outputs": [],
      "stateMutability": "nonpayable",
      "type": "function"
    },
    {
      "inputs": [
        {
          "internalType": "address",
          "name": "l2Token",
          "type": "address"
        },
        {
          "internalType": "address",
          "name": "tokenBridge",
          "type": "address"
        }
      ],
      "name": "setTokenBridge",
      "outputs": [],
      "stateMutability": "nonpayable",
      "type": "function"
    },
    {
      "inputs": [
        {
          "internalType": "address",
          "name": "depositor",
          "type": "address"
        },
        {
          "internalType": "int64",
          "name": "updatedRelayerFeePct",
          "type": "int64"
        },
        {
          "internalType": "uint32",
          "name": "depositId",
          "type": "uint32"
        },
        {
          "internalType": "address",
          "name": "updatedRecipient",
          "type": "address"
        },
        {
          "internalType": "bytes",
          "name": "updatedMessage",
          "type": "bytes"
        },
        {
          "internalType": "bytes",
          "name": "depositorSignature",
          "type": "bytes"
        }
      ],
      "name": "speedUpDeposit",
      "outputs": [],
      "stateMutability": "nonpayable",
      "type": "function"
    },
    {
      "inputs": [
        {
          "internalType": "address",
          "name": "",
          "type": "address"
        }
      ],
      "name": "tokenBridges",
      "outputs": [
        {
          "internalType": "address",
          "name": "",
          "type": "address"
        }
      ],
      "stateMutability": "view",
      "type": "function"
    },
    {
      "inputs": [
        {
          "internalType": "address",
          "name": "newImplementation",
          "type": "address"
        }
      ],
      "name": "upgradeTo",
      "outputs": [],
      "stateMutability": "nonpayable",
      "type": "function"
    },
    {
      "inputs": [
        {
          "internalType": "address",
          "name": "newImplementation",
          "type": "address"
        },
        {
          "internalType": "bytes",
          "name": "data",
          "type": "bytes"
        }
      ],
      "name": "upgradeToAndCall",
      "outputs": [],
      "stateMutability": "payable",
      "type": "function"
    },
    {
      "inputs": [],
      "name": "wrappedNativeToken",
      "outputs": [
        {
          "internalType": "contract WETH9Interface",
          "name": "",
          "type": "address"
        }
      ],
      "stateMutability": "view",
      "type": "function"
    },
    {
      "stateMutability": "payable",
      "type": "receive"
    }
  ],
  "numDeployments": 1,
  "solcInputHash": "f6ffb1bc02a144bc386704b19917b4bf",
  "bytecode": "0x60a08060405234620000e157306080526000549060ff8260081c166200008f575060ff8082160362000053575b604051614a139081620000e78239608051818181610dba0152818161118501526113150152f35b60ff90811916176000557f7f26b83ff96e1f2b6a682f133852f6798a09c465da95921460cefb3847402498602060405160ff8152a1386200002c565b62461bcd60e51b815260206004820152602760248201527f496e697469616c697a61626c653a20636f6e747261637420697320696e697469604482015266616c697a696e6760c81b6064820152608490fd5b600080fdfe6080604052600436101561001b575b361561001957600080fd5b005b60003560e01c80630c2097f71461030b5780630eaac9f0146103065780631186ec331461030157806317fcb39b146102fc5780631b3d5559146102f75780631dfb2d02146102f257806323cd9a47146102ed578063272751c7146102e85780632752042e146102e357806329cb924d146102de5780633659cfe6146102d95780633cb747bf146102d45780633ddf5059146102cf57806344b8be68146102ca578063493a4f84146102c55780634f1ef286146102c05780635249fef1146102bb5780635285e058146102b657806352d1902d146102b157806357f6dcb8146102ac5780635ceaec32146102a75780636068d6cb146102a2578063647c576c1461029d578063738b62e514610298578063766e0703146102935780637e688bba1461028e578063872af6ea146102895780638a7860ce1461028457806399cc29681461027f5780639a8a05921461027a578063a1244c6714610275578063a634893f14610270578063a78e4b601461026b578063ac9650d814610266578063ae527fbb14610261578063b27a43001461025c578063b5e1bf5f14610257578063c0a8bdd114610252578063dda521131461024d578063ddd224f114610248578063de7eba7814610243578063e19044021461023e578063e322921114610239578063e4509cb514610234578063ee2a53f81461022f578063f06850f61461022a5763fbbba9ac0361000e57611f82565b611f55565b611f17565b611df0565b611dc6565b611d9c565b611d6c565b611d42565b611d1b565b611cdd565b611cb1565b611c71565b611b6d565b611b08565b611a23565b611890565b611868565b61184d565b6117cf565b61174c565b61170e565b61168b565b611666565b6115e8565b6114e6565b6114bf565b6113f3565b6113cb565b611302565b6112d8565b611287565b611144565b6110bc565b611029565b610f0a565b610ee0565b610d93565b610d78565b610cf6565b610c56565b610c1f565b610be3565b610b0b565b610a79565b61076b565b610700565b61065c565b6001600160a01b0381160361032157565b600080fd5b6004359061033382610310565b565b6024359061033382610310565b6044359061033382610310565b6064359061033382610310565b359061033382610310565b60a435908160070b820361032157565b60c435908160070b820361032157565b608435908160070b820361032157565b61010435908160070b820361032157565b61012435908160070b820361032157565b61014435908160070b820361032157565b60e4359063ffffffff8216820361032157565b610104359063ffffffff8216820361032157565b6004359063ffffffff8216820361032157565b60a4359063ffffffff8216820361032157565b610124359063ffffffff8216820361032157565b610164359063ffffffff8216820361032157565b6044359063ffffffff8216820361032157565b359063ffffffff8216820361032157565b634e487b7160e01b600052604160045260246000fd5b6001600160401b03811161048c57604052565b610463565b60a081019081106001600160401b0382111761048c57604052565b602081019081106001600160401b0382111761048c57604052565b604081019081106001600160401b0382111761048c57604052565b606081019081106001600160401b0382111761048c57604052565b60e081019081106001600160401b0382111761048c57604052565b90601f801991011681019081106001600160401b0382111761048c57604052565b6040519060c082018281106001600160401b0382111761048c57604052565b6040519061014082018281106001600160401b0382111761048c57604052565b6040519061033382610491565b6001600160401b03811161048c57601f01601f191660200190565b81601f82011215610321578035906105b782610585565b926105c56040519485610518565b8284526020838301011161032157816000926020809301838601378301015290565b6001600160401b03811161048c5760051b60200190565b81601f8201121561032157803591610615836105e7565b926106236040519485610518565b808452602092838086019260051b820101928311610321578301905b82821061064d575050505090565b8135815290830190830161063f565b34610321576101803660031901126103215760043561067a81610310565b610682610335565b9061068b610342565b610693610367565b9261069c610377565b6106a46103ca565b6106ac6103dd565b9161012435966001600160401b0397888111610321576106d09036906004016105a0565b9461016435988911610321576106ed6100199936906004016105fe565b97610144359760843592606435926125b0565b346103215760203660031901126103215763ffffffff61071e6103f1565b6107266129ee565b61072e61255a565b16610c5a8163ffffffff198254161790557fe486a5c4bd7b36eabbfe274c99b39130277417be8d2209b4dae04c4fba64ee3a600080a26001606555005b6101003660031901126103215760043561078481610310565b60243561079081610310565b60443591606435906107a0610387565b6107a8610404565b9060c4356001600160401b038111610321576107c89036906004016105a0565b946107d161255a565b61086b95865460ff8160e81c16610a375761082461081f610818896108098760018060a01b031660005261086d602052604060002090565b90600052602052604060002090565b5460ff1690565b612ad8565b6108426706f05b59d3b2000061083c8660070b612e21565b10612b15565b61085d6ec097ce7bc90715b34b9f10000000008a1115612b57565b6001600160a01b0383166000908152610870602052604090206108879060e435905b541115612b96565b63ffffffff906108a961089c83881642612bea565b838360a01c161015612bfc565b60c01c16966108e06108ba89612c41565b61086b805463ffffffff60c01b191660c09290921b63ffffffff60c01b16919091179055565b6001600160a01b0383166000908152610870602052604090206109048a8254612c56565b90558054899061092a9061091e906001600160a01b031681565b6001600160a01b031690565b6001600160a01b03851690811480610a2e575b156109f357506109629161095561091e923414612c63565b546001600160a01b031690565b94853b1561032157600060049660405197888092630d0e30db60e41b825234905af19283156109ee577fafc4df6845a4ab948b492800d3d8a25d538a102a2bc07cd01f1cfa097fddcff6966109c8946109d5575b505b604051958695339b469088612caf565b0390a46100196001606555565b806109e26109e892610479565b80610a6e565b386109b6565b6120e8565b7fafc4df6845a4ab948b492800d3d8a25d538a102a2bc07cd01f1cfa097fddcff69792506109c89491610a299130903390612cf7565b6109b8565b5034151561093d565b60405162461bcd60e51b815260206004820152600f60248201526e506175736564206465706f7369747360881b6044820152606490fd5b600091031261032157565b346103215760003660031901126103215761086b546040516001600160a01b039091168152602090f35b81601f8201121561032157803591610aba836105e7565b92610ac86040519485610518565b808452602092838086019260051b820101928311610321578301905b828210610af2575050505090565b8380918335610b0081610310565b815201910190610ae4565b346103215760031960603682011261032157610b256103f1565b6024356001600160401b03928382116103215760c090823603011261032157610b4c610539565b908060040135825260248101356020830152604481013584811161032157610b7a90600436918401016105fe565b6040830152610b8b60648201610452565b6060830152610b9c6084820161035c565b608083015260a481013590848211610321576004610bbd9236920101610aa3565b60a082015260443592831161032157610bdd6100199336906004016105fe565b916126e6565b3461032157602036600319011261032157610c18600435610c0381610310565b610c0b6129ee565b610c1361255a565b61382a565b6001606555005b34610321576020366003190112610321576004356000526108716020526020604060002054604051908152f35b8015150361032157565b3461032157606036600319011261032157600435610c7381610310565b60243560443591610c8383610c4c565b610c8b6129ee565b610c9361255a565b60018060a01b03167f0a21fdd43d0ad0c62689ee7230a47309a050755bcc52eba00310add65297692a602060009483865261086d8252604086208587528252604086209015159060ff1981541660ff8316179055604051908152a3600160655580f35b34610321576020366003190112610321577f0e55dd180fa793d9036c804d0a116e6a7617a48e72cee1f83d92793a793fcc036020610d326103f1565b610d3a6129ee565b610d4261255a565b61086b805463ffffffff60a01b191660a083901b63ffffffff60a01b1617905560405163ffffffff919091168152a16001606555005b34610321576000366003190112610321576020604051428152f35b3461032157602036600319011261032157600435610db081610310565b6001600160a01b037f000000000000000000000000000000000000000000000000000000000000000081169190610de930841415612017565b610e066000805160206149be833981519152938285541614612078565b610e0e6129ee565b60405190610e1b826104ac565b600082527f4910fdfa16fed3260ed0e7147f7cc6da11a60208b5b9406d12a635614ffd91435460ff1615610e5557505061001991506121a1565b6020600491604094939451928380926352d1902d60e01b825286165afa60009181610eb0575b50610e9d5760405162461bcd60e51b815280610e9960048201612152565b0390fd5b61001993610eab91146120f4565b612231565b610ed291925060203d8111610ed9575b610eca8183610518565b8101906120d9565b9038610e7b565b503d610ec0565b3461032157600036600319011261032157610c5b546040516001600160a01b039091168152602090f35b3461032157608036600319011261032157610019610f266103f1565b611006602435610f3581610310565b610c1360443591610f4583610310565b610f6660643595610f5587610310565b6108ba60ff60005460081c166124fa565b604051610f72816104c7565b6009815260208101906820a1a927a9a996ab1960b91b825260405191610f97836104c7565b600583526020830191640312e302e360dc1b8352610fc560ff60005460081c16610fc0816124fa565b6124fa565b519020915190209061047f5561048055610fdd612aab565b610fe5612abc565b61086b805463ffffffff60a01b191660e160a41b17905561379c565b61379c565b61086b80546001600160a01b0319166001600160a01b0392909216919091179055565b34610321576101803660031901126103215760043561104781610310565b60243561105381610310565b60443561105f81610310565b60e4358060070b810361032157611074610397565b61107c610417565b9161014435956001600160401b038711610321576110a16100199736906004016105a0565b94610164359660c4359260a435926084359260643592612ed8565b34610321576040366003190112610321576024356004356110db6129ee565b6110e361255a565b61086c80546801000000000000000081101561048c5763ffffffff916001820190558361110f82611ed6565b5084600182015555167fc86ba04c55bc5eb2f2876b91c438849a296dbec7b08751c3074d92e04f0a77af600080a46001606555005b60403660031901126103215760043561115c81610310565b6024356001600160401b0381116103215761117b9036906004016105a0565b6001600160a01b037f000000000000000000000000000000000000000000000000000000000000000081169291906111b530851415612017565b6111d26000805160206149be833981519152948286541614612078565b6111da6129ee565b7f4910fdfa16fed3260ed0e7147f7cc6da11a60208b5b9406d12a635614ffd91435460ff161561121057505061001991506121a1565b6020600491604094939451928380926352d1902d60e01b825286165afa60009181611267575b506112545760405162461bcd60e51b815280610e9960048201612152565b6100199361126291146120f4565b6122ed565b61128091925060203d8111610ed957610eca8183610518565b9038611236565b34610321576040366003190112610321576004356112a481610310565b60018060a01b031660005261086d6020526040600020602435600052602052602060ff604060002054166040519015158152f35b3461032157600036600319011261032157610869546040516001600160a01b039091168152602090f35b34610321576000366003190112610321577f00000000000000000000000000000000000000000000000000000000000000006001600160a01b03163003611360576040516000805160206149be8339815191528152602090f35b0390f35b60405162461bcd60e51b815260206004820152603860248201527f555550535570677261646561626c653a206d757374206e6f742062652063616c60448201527f6c6564207468726f7567682064656c656761746563616c6c00000000000000006064820152608490fd5b3461032157600036600319011261032157602063ffffffff61086b5460a01c16604051908152f35b34610321576102003660031901126103215761140d610326565b611415610335565b9061141e610342565b9161142761034f565b92611430610397565b936114396103a8565b6114416103b9565b61144961042b565b9161018435976001600160401b03988981116103215761146d9036906004016105a0565b946101a4358a8111610321576114879036906004016105a0565b966101c4359a8b11610321576114a46100199b36906004016105a0565b986101e4359a60e4359360c4359360a4359360843593613010565b3461032157600036600319011261032157602060ff61086b5460e81c166040519015158152f35b34610321576060366003190112610321576114ff6103f1565b61155c60243561150e81610310565b6044359061151b82610310565b6000549361154060ff8660081c1615809681976115da575b81156115ba575b50612411565b84611553600160ff196000541617600055565b6115a157612474565b61156257005b61157261ff001960005416600055565b604051600181527f7f26b83ff96e1f2b6a682f133852f6798a09c465da95921460cefb384740249890602090a1005b6115b561010061ff00196000541617600055565b612474565b303b159150816115cc575b503861153a565b6001915060ff1614386115c5565b600160ff8216109150611533565b34610321576020366003190112610321577fe88463c2f254e2b070013a2dc7ee1e099f9bc00534cbdf03af551dc26ae49219602060043561162881610c4c565b6116306129ee565b61163861255a565b61086b805460ff60e81b191691151560e881901b60ff60e81b16929092179055604051908152a16001606555005b3461032157600036600319011261032157602063ffffffff610c5a5416604051908152f35b346103215760c0366003190112610321576004356116a881610310565b602435908160070b8203610321576116be61043f565b916064356116cb81610310565b6001600160401b0393608435858111610321576116ec9036906004016105a0565b9260a435958611610321576117086100199636906004016105a0565b94612e32565b346103215760203660031901126103215760043561172b81610310565b60018060a01b031660005261086f6020526020604060002054604051908152f35b34610321576020366003190112610321576004356117686129ee565b61177061255a565b61177981611ed6565b9190916117b957600191600092818480935501557f3569b846531b754c99cb80df3f49cd72fa6fe106aaee5ab8e0caf35a9d7ce88d8280a2600160655580f35b634e487b7160e01b600052600060045260246000fd5b34610321576020366003190112610321577f2d5b62420992e5a4afce0e77742636ca2608ef58289fd2e1baa5161ef6e7e41e602060043561180f81610c4c565b6118176129ee565b61181f61255a565b61086b805460ff60e01b191691151560e081901b60ff60e01b16929092179055604051908152a16001606555005b34610321576000366003190112610321576020604051468152f35b3461032157600036600319011261032157602063ffffffff61086b5460c01c16604051908152f35b3461032157610100366003190112610321576004356118ae81610310565b60243590604435907face81ce0f8b8d27a1aed0c4df5f6b2743e46fc50fe3e0183dd7cd6a7b9db22fb63ffffffff6064356109c86118ea610387565b916118f3610404565b9260c4359061190061255a565b61191b6ec097ce7bc90715b34b9f10000000008b1115612b57565b60018060a01b03881660005261086f60205261194060e4356040600020541115612b96565b6040805133602082019081526001600160a01b038b1692820192909252606081018c9052608081018b905260a08101859052600783900b60c082015263ffffffff871660e082015261010081018490526119c191906119ad8161012081015b03601f198101835282610518565b519020600052610871602052604060002090565b928354936119ce85613114565b90556119db8b1515613123565b6119e689838d61459e565b604051968796169a3399879260a094919796959260c0850198600180881b031685526020850152604084015260070b606083015260808201520152565b346103215760003660031901126103215760206040517f0e058f05b73c62ee68329d2c67c067aaae9a06503cc306378d144d0f0177882b8152f35b60005b838110611a715750506000910152565b8181015183820152602001611a61565b90602091611a9a81518092818552858086019101611a5e565b601f01601f1916010190565b602080820190808352835180925260408301928160408460051b8301019501936000915b848310611ada5750505050505090565b9091929394958480611af8600193603f198682030187528a51611a81565b9801930193019194939290611aca565b34610321576020366003190112610321576001600160401b036004358181116103215736602382011215610321578060040135918211610321573660248360051b830101116103215761135c916024611b619201614909565b60405191829182611aa6565b60e036600319011261032157600435611b8581610310565b602435611b9181610310565b6044359160643590611ba1610387565b60a4356001600160401b03811161032157611bc09036906004016105a0565b9063ffffffff9485421692611bd361255a565b61086b96875460ff8160e81c16610a3757611c0b61081f6108188a6108098860018060a01b031660005261086d602052604060002090565b611c236706f05b59d3b2000061083c8760070b612e21565b611c3e6ec097ce7bc90715b34b9f10000000008b1115612b57565b6001600160a01b038416600090815261087060205260409020611c649060c4359061087f565b6108a961089c8742612bea565b34610321576020366003190112610321576020600435611c9081610310565b60018060a01b03809116600052610c5c825260406000205416604051908152f35b34610321576000366003190112610321576020604051701d6329f1c35ca4bfabb9f56100000000008152f35b3461032157602036600319011261032157600435611cfa81610310565b60018060a01b03166000526108706020526020604060002054604051908152f35b3461032157600036600319011261032157602060ff61086b5460e01c166040519015158152f35b346103215760003660031901126103215760206040516ec097ce7bc90715b34b9f10000000008152f35b3461032157602036600319011261032157610c18600435611d8c81610310565b611d946129ee565b61100161255a565b346103215760003660031901126103215761086a546040516001600160a01b039091168152602090f35b3461032157600036600319011261032157610c5a54604051602091821c6001600160a01b03168152f35b346103215760a036600319011261032157610019611e0c6103f1565b611e7860243591611e1c83610310565b611006604435611e2b81610310565b610c1360643595611e3b87610310565b610f6660843595611e4b87610310565b6108ba60ff60005460081c16611e60816124fa565b610c5a805463ffffffff1916624c4b401790556124fa565b610c5b80546001600160a01b0319166007602160991b01179055610c5a8054640100000000600160c01b03191660209290921b640100000000600160c01b0316919091179055565b634e487b7160e01b600052603260045260246000fd5b61086c908154811015611f1257600391600052027f71cd7344f4eb2efc8e30291f6dbdb44d618ca368ea5425d217c1d604bf26b84d0190600090565b611ec0565b346103215760203660031901126103215760043561086c5481101561032157611f41604091611ed6565b506001815491015482519182526020820152f35b346103215760203660031901126103215760043560005261086e6020526020604060002054604051908152f35b3461032157604036600319011261032157600435611f9f81610310565b602435611fab81610310565b611fb36129ee565b611fbb61255a565b6001600160a01b039182166000818152610c5c6020526040812080546001600160a01b031916939094169283179093557ff3dc137d2246f9b8abd0bb821e185ba01122c9b3ea3745ffca6208037674d6708380a3600160655580f35b1561201e57565b60405162461bcd60e51b815260206004820152602c60248201527f46756e6374696f6e206d7573742062652063616c6c6564207468726f7567682060448201526b19195b1959d85d1958d85b1b60a21b6064820152608490fd5b1561207f57565b60405162461bcd60e51b815260206004820152602c60248201527f46756e6374696f6e206d7573742062652063616c6c6564207468726f7567682060448201526b6163746976652070726f787960a01b6064820152608490fd5b90816020910312610321575190565b6040513d6000823e3d90fd5b156120fb57565b60405162461bcd60e51b815260206004820152602960248201527f45524331393637557067726164653a20756e737570706f727465642070726f786044820152681a58589b195555525160ba1b6064820152608490fd5b60809060208152602e60208201527f45524331393637557067726164653a206e657720696d706c656d656e7461746960408201526d6f6e206973206e6f74205555505360901b60608201520190565b803b156121d6576000805160206149be83398151915280546001600160a01b0319166001600160a01b03909216919091179055565b60405162461bcd60e51b815260206004820152602d60248201527f455243313936373a206e657720696d706c656d656e746174696f6e206973206e60448201526c1bdd08184818dbdb9d1c9858dd609a1b6064820152608490fd5b9061223b826121a1565b6001600160a01b0382167fbc7cd75a20ee27fd9adebab32041f755214dbc6bffa90cc0225b39da2e5c2d3b600080a28051158015906122e5575b61227d575050565b6122e29160008060405193612291856104e2565b602785527f416464726573733a206c6f772d6c6576656c2064656c65676174652063616c6c6020860152660819985a5b195960ca1b6040860152602081519101845af46122dc612340565b91612370565b50565b506000612275565b906122f7826121a1565b6001600160a01b0382167fbc7cd75a20ee27fd9adebab32041f755214dbc6bffa90cc0225b39da2e5c2d3b600080a28051158015906123385761227d575050565b506001612275565b3d1561236b573d9061235182610585565b9161235f6040519384610518565b82523d6000602084013e565b606090565b919290156123d25750815115612384575090565b3b1561238d5790565b60405162461bcd60e51b815260206004820152601d60248201527f416464726573733a2063616c6c20746f206e6f6e2d636f6e74726163740000006044820152606490fd5b8251909150156123e55750805190602001fd5b60405162461bcd60e51b8152908190610e9990600483015b90602061240e928181520190611a81565b90565b1561241857565b60405162461bcd60e51b815260206004820152602e60248201527f496e697469616c697a61626c653a20636f6e747261637420697320616c72656160448201526d191e481a5b9a5d1a585b1a5e995960921b6064820152608490fd5b6124959291610f66610c13926108ba60ff60005460081c16611e60816124fa565b61086b80546001600160a01b0319166006602160991b01179055610c5b80546001600160a01b0319166007602160991b01179055610c5a8054640100000000600160c01b03191677deaddeaddeaddeaddeaddeaddeaddeaddead000000000000179055565b1561250157565b60405162461bcd60e51b815260206004820152602b60248201527f496e697469616c697a61626c653a20636f6e7472616374206973206e6f74206960448201526a6e697469616c697a696e6760a81b6064820152608490fd5b60026065541461256b576002606555565b60405162461bcd60e51b815260206004820152601f60248201527f5265656e7472616e637947756172643a207265656e7472616e742063616c6c006044820152606490fd5b9a98959391999694929097996125c461255a565b61086b546001600160a01b038281169116146126d9575b6125e3610558565b6001600160a01b03909c168c526001600160a01b03891660208d01526001600160a01b031660408c015260608b015260808a01524660a08a015260070b60c089015260070b60e088015263ffffffff166101008781019190915261012091808389015261264e610558565b97885260006020890181815260408a01919091526001600160a01b0390951660608901526080880152600060a0880152701d6329f1c35ca4bfabb9f561000000000060c088015260001960e088015260019087015285015283516126b190613ce0565b90526126bd9183613b7d565b6126c681613f67565b6126cf916146d3565b6103336001606555565b6126e161293e565b6125db565b91612781916126f361255a565b60808101805161086b546001600160a01b039391841690841614612931575b602081019061272382514614613164565b60a08101938451519561273d6040840197885151146131a2565b6127e2600261274b8b611ed6565b5061276461275f600195888785015461335b565b6131dd565b016127b26127ad6127a961278a606089019d8e5163ffffffff1690565b63ffffffff1690565b848160081c600052602052600160ff60406000205492161b8091161490565b1590565b613215565b6127c36127818b5163ffffffff1690565b908160081c600052602052604060002090600160ff835492161b179055565b86515160005b8181106128cc5750505091612847612839837ff8bd640004bcec1b89657020f561d0b070cbdf662d0b158db9dccb0a8301bfab979695612862955161286f575b505192519751985163ffffffff1690565b93516001600160a01b031690565b935160405194859463ffffffff8091169a16983393866132d8565b0390a46103336001606555565b61287882613437565b815185518c5189516040805194855233602086015294166001600160a01b03169363ffffffff909116927f828fc203220356df8f072a91681caee7d5c75095e2a95e80ed5a14b384697f719190a438612828565b80876128da85938c51613253565b518a83826128ed575b50505050016127e8565b92516129289361292291612915919061290e906001600160a01b031661091e565b9351613253565b516001600160a01b031690565b9061331f565b87388a836128e3565b61293961293e565b612712565b4761294557565b61086b5447906001600160a01b0316803b1561032157600090600460405180948193630d0e30db60e41b83525af180156109ee576129805750565b61033390610479565b1561299057565b60405162461bcd60e51b815260206004820152603060248201527f4f564d5f58434841494e3a2077726f6e672073656e646572206f662063726f7360448201526f732d646f6d61696e206d65737361676560801b6064820152608490fd5b610c5b546001600160a01b03908116919033839003612a9957602060049360405194858092636e296e4560e01b82525afa9283156109ee57600093612a56575b5061086954919261033392909190612a4e906001600160a01b031661091e565b911614612989565b6020813d8211612a91575b81612a6e60209383610518565b81010312612a8d5761033392935051612a8681610310565b9291612a2e565b8380fd5b3d9150612a61565b60405163253a6fc960e11b8152600490fd5b61033360ff60005460081c166124fa565b612ad160ff60005460081c16610fc0816124fa565b6001606555565b15612adf57565b60405162461bcd60e51b815260206004820152600e60248201526d44697361626c656420726f75746560901b6044820152606490fd5b15612b1c57565b60405162461bcd60e51b8152602060048201526013602482015272496e76616c69642072656c617965722066656560681b6044820152606490fd5b15612b5e57565b60405162461bcd60e51b815260206004820152601060248201526f416d6f756e7420746f6f206c6172676560801b6044820152606490fd5b15612b9d57565b60405162461bcd60e51b815260206004820152600f60248201526e10589bdd99481b585e0818dbdd5b9d608a1b6044820152606490fd5b634e487b7160e01b600052601160045260246000fd5b91908203918211612bf757565b612bd4565b15612c0357565b60405162461bcd60e51b81526020600482015260166024820152750696e76616c69642071756f746554696d657374616d760541b6044820152606490fd5b63ffffffff809116908114612bf75760010190565b91908201809211612bf757565b15612c6a57565b60405162461bcd60e51b815260206004820152601b60248201527f6d73672e76616c7565206d757374206d6174636820616d6f756e7400000000006044820152606490fd5b9360e0959361240e98979363ffffffff938752602087015260070b604086015216606084015260018060a01b0380921660808401521660a08201528160c08201520190611a81565b6040516323b872dd60e01b60208201526001600160a01b03928316602482015292909116604483015260648083019390935291815261033391612d3982610491565b604051612d91916001600160a01b0316612d52826104c7565b6000806020958685527f5361666545524332303a206c6f772d6c6576656c2063616c6c206661696c656487860152868151910182855af16122dc612340565b8051828115918215612e01575b5050905015612daa5750565b6084906040519062461bcd60e51b82526004820152602a60248201527f5361666545524332303a204552433230206f7065726174696f6e20646964206e6044820152691bdd081cdd58d8d9595960b21b6064820152fd5b838092935001031261032157810151612e1981610c4c565b808238612d9e565b6000808212612e2e575090565b0390565b612ece9063ffffffff7fa6aa57bd282fc82378458de27be4eadfa791a0c7321c49562eeba8b2643dd5669597969497612e6961255a565b612e918887838860070b98612e896706f05b59d3b2000061083c8c612e21565b468e896138af565b612ebc604051968796875260018060a01b038093166020880152608060408801526080870190611a81565b92858403606087015216971695611a81565b0390a36001606555565b9a969290989799939591612eea61255a565b61086b5460e01c60ff1615612efe90612fd5565b612f06610558565b6001600160a01b03909c168c526001600160a01b038a1660208d01526001600160a01b031660408c015260608b015260808a01524660a08a015260070b60c0890152600787900b60e08901526101009485890190612f69919063ffffffff169052565b6101209581878a0152612f7a610558565b988952600060208a0190815260079890980b60408a01526001600160a01b03166060890152608088015260a087015260c086015260e08501528301600090528201600090528151612fca90613ce0565b90526126c681613f67565b15612fdc57565b60405162461bcd60e51b815260206004820152600c60248201526b5061757365642066696c6c7360a01b6044820152606490fd5b9d9c9b959e9390928e9799939b98929b61302861255a565b61086b5460e01c60ff161561303c90612fd5565b613044610558565b6001600160a01b0390991689526001600160a01b031660208901526001600160a01b031660408801526060870152608086018890524660a087015260070b60c086015260070b60e085015263ffffffff8516610100858101919091529161012093848601526130b1610558565b948552600060208601908152600789900b6040870152949c898e6001600160a01b03909116606091909101528d8b608082015260a0015260c08d015260e08c01528a0160009052890160009052885161310990613ce0565b90526126bd966138af565b6000198114612bf75760010190565b1561312a57565b60405162461bcd60e51b81526020600482015260126024820152710416d6f756e74206d757374206265203e20360741b6044820152606490fd5b1561316b57565b60405162461bcd60e51b815260206004820152600f60248201526e125b9d985b1a590818da185a5b9259608a1b6044820152606490fd5b156131a957565b60405162461bcd60e51b815260206004820152600c60248201526b34b73b30b634b2103632b0b360a11b6044820152606490fd5b156131e457565b60405162461bcd60e51b81526020600482015260096024820152682130b210283937b7b360b91b6044820152606490fd5b1561321c57565b60405162461bcd60e51b815260206004820152600f60248201526e105b1c9958591e4818db185a5b5959608a1b6044820152606490fd5b8051821015611f125760209160051b010190565b90815180825260208080930193019160005b828110613287575050505090565b835185529381019392810192600101613279565b90815180825260208080930193019160005b8281106132bb575050505090565b83516001600160a01b0316855293810193928101926001016132ad565b936132fa6080949361331893989798875260a0602088015260a0870190613267565b6001600160a01b03938416604087015285810360608701529061329b565b9416910152565b60405163a9059cbb60e01b60208201526001600160a01b0392909216602483015260448083019390935291815261033391612d39606483610518565b61240e92916040516133d68161199f602082019460208652805160408401526020810151606084015260a06133a0604083015160c06080870152610100860190613267565b606083015163ffffffff168583015260808301516000196001841b011660c0860152910151838203603f190160e085015261329b565b51902091929091906000915b845183101561342f576133f58386613253565b519060008282101561341d575060005260205261341760406000205b92613114565b916133e2565b60409161341793825260205220613411565b915092501490565b6080810180516001600160a01b031661086b5461345e9061091e906001600160a01b031681565b6001600160a01b039182918183169081036135ed575050825161348c915061091e906001600160a01b031681565b835190803b1561032157604051632e1a7d4d60e01b815260048101929092526000908290602490829084905af180156109ee576135da575b50610c5a546001600160a01b03602082901c83168116808552855161086a54909593919216906010602160991b0190813b1561032157604051631474f2a960e31b81526001600160a01b0394851660048201529290931660248301526044820186905263ffffffff909216606482015260a06084820152600060a4820181905290949091859160c4918391905af19081156109ee577f46b77e3c29797b94890fd3438da74f697480742358a3e26b9d13a227f1ac0ac993613592926135c7575b50516001600160a01b031690565b61086a549351610c5a54604080516001600160a01b039097168752602087019290925263ffffffff16908501521691606090a2565b806109e26135d492610479565b38613584565b806109e26135e792610479565b386134c4565b738700daec35af8ff88c16bdf0418774cb3d7599b4036136b657505061086a546001600160a01b03169183519273136b1ec699c62b0606854056f02dc7bb80482d6393843b156103215760405163040b850f60e31b81526001600160a01b0390921660048301526024820152926000908490818381604481015b03925af19081156109ee577f46b77e3c29797b94890fd3438da74f697480742358a3e26b9d13a227f1ac0ac993613592926136a3575b50612915565b806109e26136b092610479565b3861369d565b6001600160a01b039081166000908152610c5c6020526040902054161661377257806010602160991b015b8351911692906001600160a01b031661086a546001600160a01b031693855190613711610c5a5463ffffffff1690565b95813b1561032157604051631474f2a960e31b81526001600160a01b03948516600482015293166024840152604483019190915263ffffffff909416606482015260a06084820152600060a482018190529093849081838160c48101613667565b81516001600160a01b03166000908152610c5c60205260409020819061379790610955565b6136e1565b6001600160a01b031680156137e55761086980546001600160a01b031916821790557fa9e8c42c9e7fca7f62755189a16b2f5314d43d8fb24e91ba54e6d65f9314e849600080a2565b60405162461bcd60e51b815260206004820152601960248201527f4261642062726964676520726f757465722061646472657373000000000000006044820152606490fd5b6001600160a01b031680156138735761086a80546001600160a01b031916821790557f1f17a88f67b0f49060a34bec1a4723a563620e6aa265eb640b5046dcee0759a0600080a2565b60405162461bcd60e51b81526020600482015260146024820152734261642068756220706f6f6c206164647265737360601b6044820152606490fd5b9392604293610333979660208151910120906040519263ffffffff60208501957f0e058f05b73c62ee68329d2c67c067aaae9a06503cc306378d144d0f0177882b875216604085015285606085015260070b608084015260018060a01b031660a083015260c082015260c08152613925816104fd565b5190209061047f549061048054906040519160208301937fc2f8787176b8ac6bf7215b4adcc1e069bf4ab82d9ab1df05a57a91d425935b6e85526040840152606083015260808201526080815261397b81610491565b519020906040519161190160f01b83526002830152602282015220906139dc565b156139a357565b60405162461bcd60e51b8152602060048201526011602482015270696e76616c6964207369676e617475726560781b6044820152606490fd5b91906139e88282613ac3565b9390926005851015613aad5761033394159384613a97575b508315613a10575b50505061399c565b6000929350908291604051613a498161199f6020820194630b135d3f60e11b998a87526024840152604060448401526064830190611a81565b51915afa90613a56612340565b82613a89575b82613a6c575b5050388080613a08565b613a81919250602080825183010191016120d9565b143880613a62565b915060208251101591613a5c565b6001600160a01b03838116911614935038613a00565b634e487b7160e01b600052602160045260246000fd5b906041815114600014613af157613aed916020820151906060604084015193015160001a90613afb565b9091565b5050600090600290565b9291907f7fffffffffffffffffffffffffffffff5d576e7357a4501ddfe92f46681b20a08311613b715791608094939160ff602094604051948552168484015260408301526060820152600093849182805260015afa156109ee5781516001600160a01b03811615613b6b579190565b50600190565b50505050600090600390565b90916101208251920151604093845190858201908282106001600160401b0383111761048c57613bf695613bbb928852835260208301938452611ed6565b5054916133d686518092613be1602083019560208752518a808501526080840190613c41565b9051606083015203601f198101835282610518565b15613bfe5750565b5162461bcd60e51b815260206004820152601860248201527f496e76616c696420736c6f772072656c61792070726f6f6600000000000000006044820152606490fd5b80516001600160a01b0316825261240e91906020818101516001600160a01b0316908301526040818101516001600160a01b031690830152606081015160608301526080810151608083015260a081015160a0830152613cab60c082015160c084019060070b9052565b60e08181015160070b908301526101008181015163ffffffff1690830152610120809101519161014080928201520190611a81565b604051613cfd8161199f6020820194602086526040830190613c41565b51902090565b15613d0a57565b60405162461bcd60e51b815260206004820152600c60248201526b696e76616c6964206665657360a01b6044820152606490fd5b15613d4557565b60405162461bcd60e51b815260206004820152600c60248201526b1c995b185e48199a5b1b195960a21b6044820152606490fd5b9060070b9060070b0190677fffffffffffffff198212677fffffffffffffff831317612bf757565b15613da857565b60405162461bcd60e51b815260206004820152601960248201527f66696c6c20616d6f756e742070726520666565732069732030000000000000006044820152606490fd5b15613df457565b60405162461bcd60e51b815260206004820152601d60248201527f7061796f757441646a7573746d656e7450637420746f6f20736d616c6c0000006044820152606490fd5b15613e4057565b60405162461bcd60e51b815260206004820152601d60248201527f7061796f757441646a7573746d656e7450637420746f6f206c617267650000006044820152606490fd5b600160ff1b8114612bf75760000390565b15613e9d57565b60405162461bcd60e51b815260206004820152601c60248201527f536f6d65686f7720686974206d6178546f6b656e73546f53656e6421000000006044820152606490fd5b15613ee957565b60405162461bcd60e51b815260206004820152601760248201527f696e76616c69642072657061796d656e7420636861696e0000000000000000006044820152606490fd5b6001600160a01b039182168152602081019290925291151560408201529116606082015260a06080820181905261240e92910190611a81565b908151916040810192613fa76706f05b59d3b2000080613f99613f94613f8e895160070b90565b60070b90565b612e21565b1090816143ab575b50613d03565b6060810190613fc86ec097ce7bc90715b34b9f100000000083511115612b57565b6020830190613fef613fe6835160005261086e602052604060002090565b54845111613d3e565b604081810180516001600160a01b0316600090815261086f60205291909120909190614022905460e08701511015612b96565b60c085019361405160c0865193019261404b61403f855160070b90565b8b5160070b5b90613d79565b906143c8565b9761405d891515613da1565b61407f8251614078875160005261086e602052604060002090565b5490612bea565b8981106143a1575b506140a8613f8e6140ae926140456140a0875160070b90565b915160070b90565b89614419565b94610120870180518061434c575b50505061413460a08701519287519360a0850151148a8195821561433e575b50508015614325575b6140ed90613ee2565b614103865160005261086e602052604060002090565b54906141128451915160070b90565b86516001600160a01b0316916101008b019661412e8851151590565b946145d1565b61414a845160005261086e602052604060002090565b614155898254612c56565b90556060860180516001600160a01b039390841633811480614312575b61430757855161086b546141db9493926001600160a01b03928316928b92899161419e9161091e911681565b93169283036142b7575050506127a96141b79151151590565b61428f575b80516129159088906141d6906001600160a01b031661091e565b614450565b91823b151580614281575b6141f4575b50505050505050565b9251919092169160809161421e906001600160a01b0316945160005261086e602052604060002090565b549051111594015193813b156103215760008094614254604051978896879586946301d43f2760e31b8652339260048701613f2e565b03925af180156109ee5761426e575b8080808080806141eb565b806109e261427b92610479565b38614263565b5060808701515115156141e6565b84516142b29088906142a9906001600160a01b031661091e565b30903390612cf7565b6141bc565b9091926127a96142c79151151590565b156142fe575086516142f992506142e6906001600160a01b031661091e565b83516001600160a01b0316903390612cf7565b612915565b6142f99261331f565b505050505050505050565b506143206127a98351151590565b614172565b506140ed6143376101008a0151151590565b90506140e4565b606001511490508a386140db565b9661438961438f9261436d614399959a670de0b6b3a763ffff191315613ded565b61438368056bc75e2d6310000082511315613e39565b51613e85565b90614419565b9551861115613e96565b3880806140bc565b98506140a8614087565b90506143c1613f94613f8e60c086015160070b90565b1038613fa1565b670de0b6b3a7640000918183029183830403612bf75760070b808303926000821281851281169082861390151617612bf75714614403570490565b634e487b7160e01b600052601260045260246000fd5b90670de0b6b3a7640000916000828403921283831281169084841390151617612bf757818102918183041490151715612bf7570490565b6001600160a01b0390811690813b15614487575061086b546103339291906144829061091e906001600160a01b031681565b61331f565b61086b541691823b15610321576040518093632e1a7d4d60e01b82528260048301528160246000968780945af180156109ee5761458f575b5080471061454a578280929181925af16144d7612340565b50156144df57565b60405162461bcd60e51b815260206004820152603a60248201527f416464726573733a20756e61626c6520746f2073656e642076616c75652c207260448201527f6563697069656e74206d617920686176652072657665727465640000000000006064820152608490fd5b60405162461bcd60e51b815260206004820152601d60248201527f416464726573733a20696e73756666696369656e742062616c616e63650000006044820152606490fd5b61459890610479565b386144bf565b6145ab9160070b90614419565b9060018060a01b031660005261086f60205260406000208054918201809211612bf75755565b94919293948215614605575b5081156145fc575b506145f7576145ab9160070b90614419565b505050565b905015386145e5565b15159150386145dd565b9060018060a01b038251168152608080614638602085015160a0602086015260a0850190611a81565b93604081015160070b6040850152606081015115156060850152015191015290565b9a9794919261240e9c9a96936146c49a9895928d5260208d015260408c015260608b015260808a015260070b60a089015260070b60c088015260018060a01b03928380921660e0890152166101008701521661012085015261018080610140860152840190611a81565b9161016081840391015261460f565b9060408201516146e39060070b90565b606083015160808401516101008086015190956001600160a01b039093169391901515610120928385015192614717610578565b6001600160a01b039097168752602087015260070b6040860152151560608501526080840152815160600151602083015161475d9060005261086e602052604060002090565b549360a084015193519460808601519560a08101519160e08201516147829060070b90565b60c083015160070b9a83015163ffffffff166040840151909b906001600160a01b031684519092906001600160a01b031660208601519099906001600160a01b0316950151956040519a8b9a600160a01b60019003169e63ffffffff169d33966147ec9b8d61465a565b037f8ab9dc6c19fe88e69bc70221b339c84332752fdd49591b7c51e66bae3947b73c91a4565b9061481c826105e7565b6148296040519182610518565b828152809261483a601f19916105e7565b019060005b82811061484b57505050565b80606060208093850101520161483f565b9190811015611f125760051b81013590601e19813603018212156103215701908135916001600160401b038311610321576020018236038113610321579190565b908092918237016000815290565b602081830312610321578051906001600160401b038211610321570181601f820112156103215780516148dd81610585565b926148eb6040519485610518565b818452602082840101116103215761240e9160208085019101611a5e565b91909161491583614812565b9260005b81811061492557505050565b60008061493383858761485c565b6040939161494585518093819361489d565b0390305af490614953612340565b918290156149825750509061497d9161496c8288613253565b526149778187613253565b50613114565b614919565b60448392935110610321576149a8610e99916004809401602480915183010191016148ab565b925162461bcd60e51b815292839283016123fd56fe360894a13ba1a3210667c828492db98dca3e2076cc3735a920a3ca505d382bbca2646970667358221220b7071a0dc482ae1300f1dd0e01618af25d0e96b9900e2184a88510e861d45ba064736f6c63430008120033"
}