{
  "address": "0xfa3DA25059F4ff59dA7566B58D3299dB8a04691F",
  "abi": [
    {
      "inputs": [
        {
          "internalType": "address",
          "name": "_wrappedNativeTokenAddress",
          "type": "address"
        },
        {
          "internalType": "uint32",
          "name": "_depositQuoteTimeBuffer",
          "type": "uint32"
        },
        {
          "internalType": "uint32",
          "name": "_fillDeadlineBuffer",
          "type": "uint32"
        }
      ],
      "stateMutability": "nonpayable",
      "type": "constructor"
    },
    {
      "inputs": [],
      "name": "ClaimedMerkleLeaf",
      "type": "error"
    },
    {
      "inputs": [],
      "name": "DisabledRoute",
      "type": "error"
    },
    {
      "inputs": [],
      "name": "ExpiredFillDeadline",
      "type": "error"
    },
    {
      "inputs": [],
      "name": "InvalidChainId",
      "type": "error"
    },
    {
      "inputs": [],
      "name": "InvalidFillDeadline",
      "type": "error"
    },
    {
      "inputs": [],
      "name": "InvalidMerkleLeaf",
      "type": "error"
    },
    {
      "inputs": [],
      "name": "InvalidMerkleProof",
      "type": "error"
    },
    {
      "inputs": [],
      "name": "InvalidPayoutAdjustmentPct",
      "type": "error"
    },
    {
      "inputs": [],
      "name": "InvalidQuoteTimestamp",
      "type": "error"
    },
    {
      "inputs": [],
      "name": "InvalidSlowFillRequest",
      "type": "error"
    },
    {
      "inputs": [],
      "name": "MsgValueDoesNotMatchInputAmount",
      "type": "error"
    },
    {
      "inputs": [],
      "name": "NotEOA",
      "type": "error"
    },
    {
      "inputs": [],
      "name": "NotExclusiveRelayer",
      "type": "error"
    },
    {
      "inputs": [],
      "name": "RelayFilled",
      "type": "error"
    },
    {
      "anonymous": false,
      "inputs": [
        {
          "indexed": false,
          "internalType": "address",
          "name": "previousAdmin",
          "type": "address"
        },
        {
          "indexed": false,
          "internalType": "address",
          "name": "newAdmin",
          "type": "address"
        }
      ],
      "name": "AdminChanged",
      "type": "event"
    },
    {
      "anonymous": false,
      "inputs": [
        {
          "indexed": true,
          "internalType": "address",
          "name": "beacon",
          "type": "address"
        }
      ],
      "name": "BeaconUpgraded",
      "type": "event"
    },
    {
      "anonymous": false,
      "inputs": [
        {
          "indexed": true,
          "internalType": "uint256",
          "name": "rootBundleId",
          "type": "uint256"
        }
      ],
      "name": "EmergencyDeleteRootBundle",
      "type": "event"
    },
    {
      "anonymous": false,
      "inputs": [
        {
          "indexed": true,
          "internalType": "address",
          "name": "originToken",
          "type": "address"
        },
        {
          "indexed": true,
          "internalType": "uint256",
          "name": "destinationChainId",
          "type": "uint256"
        },
        {
          "indexed": false,
          "internalType": "bool",
          "name": "enabled",
          "type": "bool"
        }
      ],
      "name": "EnabledDepositRoute",
      "type": "event"
    },
    {
      "anonymous": false,
      "inputs": [
        {
          "indexed": false,
          "internalType": "uint256",
          "name": "amountToReturn",
          "type": "uint256"
        },
        {
          "indexed": true,
          "internalType": "uint256",
          "name": "chainId",
          "type": "uint256"
        },
        {
          "indexed": false,
          "internalType": "uint256[]",
          "name": "refundAmounts",
          "type": "uint256[]"
        },
        {
          "indexed": true,
          "internalType": "uint32",
          "name": "rootBundleId",
          "type": "uint32"
        },
        {
          "indexed": true,
          "internalType": "uint32",
          "name": "leafId",
          "type": "uint32"
        },
        {
          "indexed": false,
          "internalType": "address",
          "name": "l2TokenAddress",
          "type": "address"
        },
        {
          "indexed": false,
          "internalType": "address[]",
          "name": "refundAddresses",
          "type": "address[]"
        }
      ],
      "name": "ExecutedRelayerRefundRoot",
      "type": "event"
    },
    {
      "anonymous": false,
      "inputs": [
        {
          "indexed": false,
          "internalType": "uint256",
          "name": "amountToReturn",
          "type": "uint256"
        },
        {
          "indexed": true,
          "internalType": "uint256",
          "name": "chainId",
          "type": "uint256"
        },
        {
          "indexed": false,
          "internalType": "uint256[]",
          "name": "refundAmounts",
          "type": "uint256[]"
        },
        {
          "indexed": true,
          "internalType": "uint32",
          "name": "rootBundleId",
          "type": "uint32"
        },
        {
          "indexed": true,
          "internalType": "uint32",
          "name": "leafId",
          "type": "uint32"
        },
        {
          "indexed": false,
          "internalType": "address",
          "name": "l2TokenAddress",
          "type": "address"
        },
        {
          "indexed": false,
          "internalType": "address[]",
          "name": "refundAddresses",
          "type": "address[]"
        },
        {
          "indexed": false,
          "internalType": "bytes32",
          "name": "fillsRefundedRoot",
          "type": "bytes32"
        },
        {
          "indexed": false,
          "internalType": "string",
          "name": "fillsRefundedIpfsHash",
          "type": "string"
        }
      ],
      "name": "ExecutedUSSRelayerRefundRoot",
      "type": "event"
    },
    {
      "anonymous": false,
      "inputs": [
        {
          "indexed": false,
          "internalType": "uint256",
          "name": "amount",
          "type": "uint256"
        },
        {
          "indexed": false,
          "internalType": "uint256",
          "name": "totalFilledAmount",
          "type": "uint256"
        },
        {
          "indexed": false,
          "internalType": "uint256",
          "name": "fillAmount",
          "type": "uint256"
        },
        {
          "indexed": false,
          "internalType": "uint256",
          "name": "repaymentChainId",
          "type": "uint256"
        },
        {
          "indexed": true,
          "internalType": "uint256",
          "name": "originChainId",
          "type": "uint256"
        },
        {
          "indexed": false,
          "internalType": "uint256",
          "name": "destinationChainId",
          "type": "uint256"
        },
        {
          "indexed": false,
          "internalType": "int64",
          "name": "relayerFeePct",
          "type": "int64"
        },
        {
          "indexed": false,
          "internalType": "int64",
          "name": "realizedLpFeePct",
          "type": "int64"
        },
        {
          "indexed": true,
          "internalType": "uint32",
          "name": "depositId",
          "type": "uint32"
        },
        {
          "indexed": false,
          "internalType": "address",
          "name": "destinationToken",
          "type": "address"
        },
        {
          "indexed": false,
          "internalType": "address",
          "name": "relayer",
          "type": "address"
        },
        {
          "indexed": true,
          "internalType": "address",
          "name": "depositor",
          "type": "address"
        },
        {
          "indexed": false,
          "internalType": "address",
          "name": "recipient",
          "type": "address"
        },
        {
          "indexed": false,
          "internalType": "bytes",
          "name": "message",
          "type": "bytes"
        },
        {
          "components": [
            {
              "internalType": "address",
              "name": "recipient",
              "type": "address"
            },
            {
              "internalType": "bytes",
              "name": "message",
              "type": "bytes"
            },
            {
              "internalType": "int64",
              "name": "relayerFeePct",
              "type": "int64"
            },
            {
              "internalType": "bool",
              "name": "isSlowRelay",
              "type": "bool"
            },
            {
              "internalType": "int256",
              "name": "payoutAdjustmentPct",
              "type": "int256"
            }
          ],
          "indexed": false,
          "internalType": "struct SpokePool.RelayExecutionInfo",
          "name": "updatableRelayData",
          "type": "tuple"
        }
      ],
      "name": "FilledRelay",
      "type": "event"
    },
    {
      "anonymous": false,
      "inputs": [
        {
          "indexed": false,
          "internalType": "address",
          "name": "inputToken",
          "type": "address"
        },
        {
          "indexed": false,
          "internalType": "address",
          "name": "outputToken",
          "type": "address"
        },
        {
          "indexed": false,
          "internalType": "uint256",
          "name": "inputAmount",
          "type": "uint256"
        },
        {
          "indexed": false,
          "internalType": "uint256",
          "name": "outputAmount",
          "type": "uint256"
        },
        {
          "indexed": false,
          "internalType": "uint256",
          "name": "repaymentChainId",
          "type": "uint256"
        },
        {
          "indexed": true,
          "internalType": "uint256",
          "name": "originChainId",
          "type": "uint256"
        },
        {
          "indexed": true,
          "internalType": "uint32",
          "name": "depositId",
          "type": "uint32"
        },
        {
          "indexed": false,
          "internalType": "uint32",
          "name": "fillDeadline",
          "type": "uint32"
        },
        {
          "indexed": false,
          "internalType": "uint32",
          "name": "exclusivityDeadline",
          "type": "uint32"
        },
        {
          "indexed": false,
          "internalType": "address",
          "name": "exclusiveRelayer",
          "type": "address"
        },
        {
          "indexed": true,
          "internalType": "address",
          "name": "relayer",
          "type": "address"
        },
        {
          "indexed": false,
          "internalType": "address",
          "name": "depositor",
          "type": "address"
        },
        {
          "indexed": false,
          "internalType": "address",
          "name": "recipient",
          "type": "address"
        },
        {
          "indexed": false,
          "internalType": "bytes",
          "name": "message",
          "type": "bytes"
        },
        {
          "components": [
            {
              "internalType": "address",
              "name": "updatedRecipient",
              "type": "address"
            },
            {
              "internalType": "bytes",
              "name": "updatedMessage",
              "type": "bytes"
            },
            {
              "internalType": "uint256",
              "name": "updatedOutputAmount",
              "type": "uint256"
            },
            {
              "internalType": "enum USSSpokePoolInterface.FillType",
              "name": "fillType",
              "type": "uint8"
            }
          ],
          "indexed": false,
          "internalType": "struct USSSpokePoolInterface.USSRelayExecutionEventInfo",
          "name": "relayExecutionInfo",
          "type": "tuple"
        }
      ],
      "name": "FilledUSSRelay",
      "type": "event"
    },
    {
      "anonymous": false,
      "inputs": [
        {
          "indexed": false,
          "internalType": "uint8",
          "name": "version",
          "type": "uint8"
        }
      ],
      "name": "Initialized",
      "type": "event"
    },
    {
      "anonymous": false,
      "inputs": [
        {
          "indexed": true,
          "internalType": "address",
          "name": "l2Token",
          "type": "address"
        },
        {
          "indexed": false,
          "internalType": "address",
          "name": "target",
          "type": "address"
        },
        {
          "indexed": false,
          "internalType": "uint256",
          "name": "numberOfTokensBridged",
          "type": "uint256"
        }
      ],
      "name": "LineaTokensBridged",
      "type": "event"
    },
    {
      "anonymous": false,
      "inputs": [
        {
          "indexed": false,
          "internalType": "bool",
          "name": "isPaused",
          "type": "bool"
        }
      ],
      "name": "PausedDeposits",
      "type": "event"
    },
    {
      "anonymous": false,
      "inputs": [
        {
          "indexed": false,
          "internalType": "bool",
          "name": "isPaused",
          "type": "bool"
        }
      ],
      "name": "PausedFills",
      "type": "event"
    },
    {
      "anonymous": false,
      "inputs": [
        {
          "indexed": true,
          "internalType": "address",
          "name": "relayer",
          "type": "address"
        },
        {
          "indexed": false,
          "internalType": "address",
          "name": "refundToken",
          "type": "address"
        },
        {
          "indexed": false,
          "internalType": "uint256",
          "name": "amount",
          "type": "uint256"
        },
        {
          "indexed": true,
          "internalType": "uint256",
          "name": "originChainId",
          "type": "uint256"
        },
        {
          "indexed": false,
          "internalType": "uint256",
          "name": "destinationChainId",
          "type": "uint256"
        },
        {
          "indexed": false,
          "internalType": "int64",
          "name": "realizedLpFeePct",
          "type": "int64"
        },
        {
          "indexed": true,
          "internalType": "uint32",
          "name": "depositId",
          "type": "uint32"
        },
        {
          "indexed": false,
          "internalType": "uint256",
          "name": "fillBlock",
          "type": "uint256"
        },
        {
          "indexed": false,
          "internalType": "uint256",
          "name": "previousIdenticalRequests",
          "type": "uint256"
        }
      ],
      "name": "RefundRequested",
      "type": "event"
    },
    {
      "anonymous": false,
      "inputs": [
        {
          "indexed": true,
          "internalType": "uint32",
          "name": "rootBundleId",
          "type": "uint32"
        },
        {
          "indexed": true,
          "internalType": "bytes32",
          "name": "relayerRefundRoot",
          "type": "bytes32"
        },
        {
          "indexed": true,
          "internalType": "bytes32",
          "name": "slowRelayRoot",
          "type": "bytes32"
        }
      ],
      "name": "RelayedRootBundle",
      "type": "event"
    },
    {
      "anonymous": false,
      "inputs": [
        {
          "indexed": false,
          "internalType": "int64",
          "name": "newRelayerFeePct",
          "type": "int64"
        },
        {
          "indexed": true,
          "internalType": "uint32",
          "name": "depositId",
          "type": "uint32"
        },
        {
          "indexed": true,
          "internalType": "address",
          "name": "depositor",
          "type": "address"
        },
        {
          "indexed": false,
          "internalType": "address",
          "name": "updatedRecipient",
          "type": "address"
        },
        {
          "indexed": false,
          "internalType": "bytes",
          "name": "updatedMessage",
          "type": "bytes"
        },
        {
          "indexed": false,
          "internalType": "bytes",
          "name": "depositorSignature",
          "type": "bytes"
        }
      ],
      "name": "RequestedSpeedUpDeposit",
      "type": "event"
    },
    {
      "anonymous": false,
      "inputs": [
        {
          "indexed": false,
          "internalType": "uint256",
          "name": "updatedOutputAmount",
          "type": "uint256"
        },
        {
          "indexed": true,
          "internalType": "uint32",
          "name": "depositId",
          "type": "uint32"
        },
        {
          "indexed": true,
          "internalType": "address",
          "name": "depositor",
          "type": "address"
        },
        {
          "indexed": false,
          "internalType": "address",
          "name": "updatedRecipient",
          "type": "address"
        },
        {
          "indexed": false,
          "internalType": "bytes",
          "name": "updatedMessage",
          "type": "bytes"
        },
        {
          "indexed": false,
          "internalType": "bytes",
          "name": "depositorSignature",
          "type": "bytes"
        }
      ],
      "name": "RequestedSpeedUpUSSDeposit",
      "type": "event"
    },
    {
      "anonymous": false,
      "inputs": [
        {
          "indexed": false,
          "internalType": "address",
          "name": "inputToken",
          "type": "address"
        },
        {
          "indexed": false,
          "internalType": "address",
          "name": "outputToken",
          "type": "address"
        },
        {
          "indexed": false,
          "internalType": "uint256",
          "name": "inputAmount",
          "type": "uint256"
        },
        {
          "indexed": false,
          "internalType": "uint256",
          "name": "outputAmount",
          "type": "uint256"
        },
        {
          "indexed": true,
          "internalType": "uint256",
          "name": "originChainId",
          "type": "uint256"
        },
        {
          "indexed": true,
          "internalType": "uint32",
          "name": "depositId",
          "type": "uint32"
        },
        {
          "indexed": false,
          "internalType": "uint32",
          "name": "fillDeadline",
          "type": "uint32"
        },
        {
          "indexed": false,
          "internalType": "uint32",
          "name": "exclusivityDeadline",
          "type": "uint32"
        },
        {
          "indexed": false,
          "internalType": "address",
          "name": "exclusiveRelayer",
          "type": "address"
        },
        {
          "indexed": false,
          "internalType": "address",
          "name": "depositor",
          "type": "address"
        },
        {
          "indexed": false,
          "internalType": "address",
          "name": "recipient",
          "type": "address"
        },
        {
          "indexed": false,
          "internalType": "bytes",
          "name": "message",
          "type": "bytes"
        }
      ],
      "name": "RequestedUSSSlowFill",
      "type": "event"
    },
    {
      "anonymous": false,
      "inputs": [
        {
          "indexed": true,
          "internalType": "address",
          "name": "newHubPool",
          "type": "address"
        }
      ],
      "name": "SetHubPool",
      "type": "event"
    },
    {
      "anonymous": false,
      "inputs": [
        {
          "indexed": true,
          "internalType": "address",
          "name": "newMessageService",
          "type": "address"
        },
        {
          "indexed": false,
          "internalType": "address",
          "name": "oldMessageService",
          "type": "address"
        }
      ],
      "name": "SetL2MessageService",
      "type": "event"
    },
    {
      "anonymous": false,
      "inputs": [
        {
          "indexed": true,
          "internalType": "address",
          "name": "newTokenBridge",
          "type": "address"
        },
        {
          "indexed": false,
          "internalType": "address",
          "name": "oldTokenBridge",
          "type": "address"
        }
      ],
      "name": "SetL2TokenBridge",
      "type": "event"
    },
    {
      "anonymous": false,
      "inputs": [
        {
          "indexed": true,
          "internalType": "address",
          "name": "newUsdcBridge",
          "type": "address"
        },
        {
          "indexed": false,
          "internalType": "address",
          "name": "oldUsdcBridge",
          "type": "address"
        }
      ],
      "name": "SetL2UsdcBridge",
      "type": "event"
    },
    {
      "anonymous": false,
      "inputs": [
        {
          "indexed": true,
          "internalType": "address",
          "name": "newAdmin",
          "type": "address"
        }
      ],
      "name": "SetXDomainAdmin",
      "type": "event"
    },
    {
      "anonymous": false,
      "inputs": [
        {
          "indexed": false,
          "internalType": "uint256",
          "name": "amountToReturn",
          "type": "uint256"
        },
        {
          "indexed": true,
          "internalType": "uint256",
          "name": "chainId",
          "type": "uint256"
        },
        {
          "indexed": true,
          "internalType": "uint32",
          "name": "leafId",
          "type": "uint32"
        },
        {
          "indexed": true,
          "internalType": "address",
          "name": "l2TokenAddress",
          "type": "address"
        }
      ],
      "name": "TokensBridged",
      "type": "event"
    },
    {
      "anonymous": false,
      "inputs": [
        {
          "indexed": false,
          "internalType": "address",
          "name": "inputToken",
          "type": "address"
        },
        {
          "indexed": false,
          "internalType": "address",
          "name": "outputToken",
          "type": "address"
        },
        {
          "indexed": false,
          "internalType": "uint256",
          "name": "inputAmount",
          "type": "uint256"
        },
        {
          "indexed": false,
          "internalType": "uint256",
          "name": "outputAmount",
          "type": "uint256"
        },
        {
          "indexed": true,
          "internalType": "uint256",
          "name": "destinationChainId",
          "type": "uint256"
        },
        {
          "indexed": true,
          "internalType": "uint32",
          "name": "depositId",
          "type": "uint32"
        },
        {
          "indexed": false,
          "internalType": "uint32",
          "name": "quoteTimestamp",
          "type": "uint32"
        },
        {
          "indexed": false,
          "internalType": "uint32",
          "name": "fillDeadline",
          "type": "uint32"
        },
        {
          "indexed": false,
          "internalType": "uint32",
          "name": "exclusivityDeadline",
          "type": "uint32"
        },
        {
          "indexed": true,
          "internalType": "address",
          "name": "depositor",
          "type": "address"
        },
        {
          "indexed": false,
          "internalType": "address",
          "name": "recipient",
          "type": "address"
        },
        {
          "indexed": false,
          "internalType": "address",
          "name": "relayer",
          "type": "address"
        },
        {
          "indexed": false,
          "internalType": "bytes",
          "name": "message",
          "type": "bytes"
        }
      ],
      "name": "USSFundsDeposited",
      "type": "event"
    },
    {
      "anonymous": false,
      "inputs": [
        {
          "indexed": true,
          "internalType": "address",
          "name": "implementation",
          "type": "address"
        }
      ],
      "name": "Upgraded",
      "type": "event"
    },
    {
      "inputs": [],
      "name": "MAX_TRANSFER_SIZE",
      "outputs": [
        {
          "internalType": "uint256",
          "name": "",
          "type": "uint256"
        }
      ],
      "stateMutability": "view",
      "type": "function"
    },
    {
      "inputs": [],
      "name": "SLOW_FILL_MAX_TOKENS_TO_SEND",
      "outputs": [
        {
          "internalType": "uint256",
          "name": "",
          "type": "uint256"
        }
      ],
      "stateMutability": "view",
      "type": "function"
    },
    {
      "inputs": [],
      "name": "UPDATE_DEPOSIT_DETAILS_HASH",
      "outputs": [
        {
          "internalType": "bytes32",
          "name": "",
          "type": "bytes32"
        }
      ],
      "stateMutability": "view",
      "type": "function"
    },
    {
      "inputs": [],
      "name": "UPDATE_USS_DEPOSIT_DETAILS_HASH",
      "outputs": [
        {
          "internalType": "bytes32",
          "name": "",
          "type": "bytes32"
        }
      ],
      "stateMutability": "view",
      "type": "function"
    },
    {
      "inputs": [
        {
          "internalType": "uint32",
          "name": "_initialDepositId",
          "type": "uint32"
        },
        {
          "internalType": "address",
          "name": "_crossDomainAdmin",
          "type": "address"
        },
        {
          "internalType": "address",
          "name": "_hubPool",
          "type": "address"
        }
      ],
      "name": "__SpokePool_init",
      "outputs": [],
      "stateMutability": "nonpayable",
      "type": "function"
    },
    {
      "inputs": [],
      "name": "chainId",
      "outputs": [
        {
          "internalType": "uint256",
          "name": "",
          "type": "uint256"
        }
      ],
      "stateMutability": "view",
      "type": "function"
    },
    {
      "inputs": [],
      "name": "crossDomainAdmin",
      "outputs": [
        {
          "internalType": "address",
          "name": "",
          "type": "address"
        }
      ],
      "stateMutability": "view",
      "type": "function"
    },
    {
      "inputs": [
        {
          "internalType": "address",
          "name": "recipient",
          "type": "address"
        },
        {
          "internalType": "address",
          "name": "originToken",
          "type": "address"
        },
        {
          "internalType": "uint256",
          "name": "amount",
          "type": "uint256"
        },
        {
          "internalType": "uint256",
          "name": "destinationChainId",
          "type": "uint256"
        },
        {
          "internalType": "int64",
          "name": "relayerFeePct",
          "type": "int64"
        },
        {
          "internalType": "uint32",
          "name": "quoteTimestamp",
          "type": "uint32"
        },
        {
          "internalType": "bytes",
          "name": "message",
          "type": "bytes"
        },
        {
          "internalType": "uint256",
          "name": "",
          "type": "uint256"
        }
      ],
      "name": "deposit",
      "outputs": [],
      "stateMutability": "payable",
      "type": "function"
    },
    {
      "inputs": [
        {
          "internalType": "address",
          "name": "depositor",
          "type": "address"
        },
        {
          "internalType": "address",
          "name": "recipient",
          "type": "address"
        },
        {
          "internalType": "address",
          "name": "originToken",
          "type": "address"
        },
        {
          "internalType": "uint256",
          "name": "amount",
          "type": "uint256"
        },
        {
          "internalType": "uint256",
          "name": "destinationChainId",
          "type": "uint256"
        },
        {
          "internalType": "int64",
          "name": "relayerFeePct",
          "type": "int64"
        },
        {
          "internalType": "uint32",
          "name": "quoteTimestamp",
          "type": "uint32"
        },
        {
          "internalType": "bytes",
          "name": "message",
          "type": "bytes"
        },
        {
          "internalType": "uint256",
          "name": "",
          "type": "uint256"
        }
      ],
      "name": "depositFor",
      "outputs": [],
      "stateMutability": "payable",
      "type": "function"
    },
    {
      "inputs": [
        {
          "internalType": "address",
          "name": "depositor",
          "type": "address"
        },
        {
          "internalType": "address",
          "name": "recipient",
          "type": "address"
        },
        {
          "internalType": "address",
          "name": "originToken",
          "type": "address"
        },
        {
          "internalType": "uint256",
          "name": "amount",
          "type": "uint256"
        },
        {
          "internalType": "uint256",
          "name": "destinationChainId",
          "type": "uint256"
        },
        {
          "internalType": "int64",
          "name": "relayerFeePct",
          "type": "int64"
        },
        {
          "internalType": "bytes",
          "name": "message",
          "type": "bytes"
        },
        {
          "internalType": "uint256",
          "name": "maxCount",
          "type": "uint256"
        }
      ],
      "name": "depositForNow",
      "outputs": [],
      "stateMutability": "payable",
      "type": "function"
    },
    {
      "inputs": [
        {
          "internalType": "address",
          "name": "recipient",
          "type": "address"
        },
        {
          "internalType": "address",
          "name": "originToken",
          "type": "address"
        },
        {
          "internalType": "uint256",
          "name": "amount",
          "type": "uint256"
        },
        {
          "internalType": "uint256",
          "name": "destinationChainId",
          "type": "uint256"
        },
        {
          "internalType": "int64",
          "name": "relayerFeePct",
          "type": "int64"
        },
        {
          "internalType": "bytes",
          "name": "message",
          "type": "bytes"
        },
        {
          "internalType": "uint256",
          "name": "maxCount",
          "type": "uint256"
        }
      ],
      "name": "depositNow",
      "outputs": [],
      "stateMutability": "payable",
      "type": "function"
    },
    {
      "inputs": [],
      "name": "depositQuoteTimeBuffer",
      "outputs": [
        {
          "internalType": "uint32",
          "name": "",
          "type": "uint32"
        }
      ],
      "stateMutability": "view",
      "type": "function"
    },
    {
      "inputs": [
        {
          "internalType": "address",
          "name": "depositor",
          "type": "address"
        },
        {
          "internalType": "address",
          "name": "recipient",
          "type": "address"
        },
        {
          "internalType": "address",
          "name": "inputToken",
          "type": "address"
        },
        {
          "internalType": "address",
          "name": "outputToken",
          "type": "address"
        },
        {
          "internalType": "uint256",
          "name": "inputAmount",
          "type": "uint256"
        },
        {
          "internalType": "uint256",
          "name": "outputAmount",
          "type": "uint256"
        },
        {
          "internalType": "uint256",
          "name": "destinationChainId",
          "type": "uint256"
        },
        {
          "internalType": "address",
          "name": "exclusiveRelayer",
          "type": "address"
        },
        {
          "internalType": "uint32",
          "name": "quoteTimestamp",
          "type": "uint32"
        },
        {
          "internalType": "uint32",
          "name": "fillDeadline",
          "type": "uint32"
        },
        {
          "internalType": "uint32",
          "name": "exclusivityDeadline",
          "type": "uint32"
        },
        {
          "internalType": "bytes",
          "name": "message",
          "type": "bytes"
        }
      ],
      "name": "depositUSS",
      "outputs": [],
      "stateMutability": "payable",
      "type": "function"
    },
    {
      "inputs": [
        {
          "internalType": "uint256",
          "name": "rootBundleId",
          "type": "uint256"
        }
      ],
      "name": "emergencyDeleteRootBundle",
      "outputs": [],
      "stateMutability": "nonpayable",
      "type": "function"
    },
    {
      "inputs": [
        {
          "internalType": "address",
          "name": "",
          "type": "address"
        },
        {
          "internalType": "uint256",
          "name": "",
          "type": "uint256"
        }
      ],
      "name": "enabledDepositRoutes",
      "outputs": [
        {
          "internalType": "bool",
          "name": "",
          "type": "bool"
        }
      ],
      "stateMutability": "view",
      "type": "function"
    },
    {
      "inputs": [
        {
          "internalType": "uint32",
          "name": "rootBundleId",
          "type": "uint32"
        },
        {
          "components": [
            {
              "internalType": "uint256",
              "name": "amountToReturn",
              "type": "uint256"
            },
            {
              "internalType": "uint256",
              "name": "chainId",
              "type": "uint256"
            },
            {
              "internalType": "uint256[]",
              "name": "refundAmounts",
              "type": "uint256[]"
            },
            {
              "internalType": "uint32",
              "name": "leafId",
              "type": "uint32"
            },
            {
              "internalType": "address",
              "name": "l2TokenAddress",
              "type": "address"
            },
            {
              "internalType": "address[]",
              "name": "refundAddresses",
              "type": "address[]"
            }
          ],
          "internalType": "struct SpokePoolInterface.RelayerRefundLeaf",
          "name": "relayerRefundLeaf",
          "type": "tuple"
        },
        {
          "internalType": "bytes32[]",
          "name": "proof",
          "type": "bytes32[]"
        }
      ],
      "name": "executeRelayerRefundLeaf",
      "outputs": [],
      "stateMutability": "payable",
      "type": "function"
    },
    {
      "inputs": [
        {
          "internalType": "address",
          "name": "depositor",
          "type": "address"
        },
        {
          "internalType": "address",
          "name": "recipient",
          "type": "address"
        },
        {
          "internalType": "address",
          "name": "destinationToken",
          "type": "address"
        },
        {
          "internalType": "uint256",
          "name": "amount",
          "type": "uint256"
        },
        {
          "internalType": "uint256",
          "name": "originChainId",
          "type": "uint256"
        },
        {
          "internalType": "int64",
          "name": "realizedLpFeePct",
          "type": "int64"
        },
        {
          "internalType": "int64",
          "name": "relayerFeePct",
          "type": "int64"
        },
        {
          "internalType": "uint32",
          "name": "depositId",
          "type": "uint32"
        },
        {
          "internalType": "uint32",
          "name": "rootBundleId",
          "type": "uint32"
        },
        {
          "internalType": "bytes",
          "name": "message",
          "type": "bytes"
        },
        {
          "internalType": "int256",
          "name": "payoutAdjustment",
          "type": "int256"
        },
        {
          "internalType": "bytes32[]",
          "name": "proof",
          "type": "bytes32[]"
        }
      ],
      "name": "executeSlowRelayLeaf",
      "outputs": [],
      "stateMutability": "nonpayable",
      "type": "function"
    },
    {
      "inputs": [
        {
          "internalType": "uint32",
          "name": "rootBundleId",
          "type": "uint32"
        },
        {
          "components": [
            {
              "internalType": "uint256",
              "name": "amountToReturn",
              "type": "uint256"
            },
            {
              "internalType": "uint256",
              "name": "chainId",
              "type": "uint256"
            },
            {
              "internalType": "uint256[]",
              "name": "refundAmounts",
              "type": "uint256[]"
            },
            {
              "internalType": "uint32",
              "name": "leafId",
              "type": "uint32"
            },
            {
              "internalType": "address",
              "name": "l2TokenAddress",
              "type": "address"
            },
            {
              "internalType": "address[]",
              "name": "refundAddresses",
              "type": "address[]"
            },
            {
              "internalType": "bytes32",
              "name": "fillsRefundedRoot",
              "type": "bytes32"
            },
            {
              "internalType": "string",
              "name": "fillsRefundedHash",
              "type": "string"
            }
          ],
          "internalType": "struct USSSpokePoolInterface.USSRelayerRefundLeaf",
          "name": "relayerRefundLeaf",
          "type": "tuple"
        },
        {
          "internalType": "bytes32[]",
          "name": "proof",
          "type": "bytes32[]"
        }
      ],
      "name": "executeUSSRelayerRefundLeaf",
      "outputs": [],
      "stateMutability": "payable",
      "type": "function"
    },
    {
      "inputs": [
        {
          "components": [
            {
              "components": [
                {
                  "internalType": "address",
                  "name": "depositor",
                  "type": "address"
                },
                {
                  "internalType": "address",
                  "name": "recipient",
                  "type": "address"
                },
                {
                  "internalType": "address",
                  "name": "exclusiveRelayer",
                  "type": "address"
                },
                {
                  "internalType": "address",
                  "name": "inputToken",
                  "type": "address"
                },
                {
                  "internalType": "address",
                  "name": "outputToken",
                  "type": "address"
                },
                {
                  "internalType": "uint256",
                  "name": "inputAmount",
                  "type": "uint256"
                },
                {
                  "internalType": "uint256",
                  "name": "outputAmount",
                  "type": "uint256"
                },
                {
                  "internalType": "uint256",
                  "name": "originChainId",
                  "type": "uint256"
                },
                {
                  "internalType": "uint256",
                  "name": "destinationChainId",
                  "type": "uint256"
                },
                {
                  "internalType": "uint32",
                  "name": "depositId",
                  "type": "uint32"
                },
                {
                  "internalType": "uint32",
                  "name": "fillDeadline",
                  "type": "uint32"
                },
                {
                  "internalType": "uint32",
                  "name": "exclusivityDeadline",
                  "type": "uint32"
                },
                {
                  "internalType": "bytes",
                  "name": "message",
                  "type": "bytes"
                }
              ],
              "internalType": "struct USSSpokePoolInterface.USSRelayData",
              "name": "relayData",
              "type": "tuple"
            },
            {
              "internalType": "uint256",
              "name": "updatedOutputAmount",
              "type": "uint256"
            }
          ],
          "internalType": "struct USSSpokePoolInterface.USSSlowFill",
          "name": "slowFillLeaf",
          "type": "tuple"
        },
        {
          "internalType": "uint32",
          "name": "rootBundleId",
          "type": "uint32"
        },
        {
          "internalType": "bytes32[]",
          "name": "proof",
          "type": "bytes32[]"
        }
      ],
      "name": "executeUSSSlowRelayLeaf",
      "outputs": [],
      "stateMutability": "nonpayable",
      "type": "function"
    },
    {
      "inputs": [],
      "name": "fillDeadlineBuffer",
      "outputs": [
        {
          "internalType": "uint32",
          "name": "",
          "type": "uint32"
        }
      ],
      "stateMutability": "view",
      "type": "function"
    },
    {
      "inputs": [
        {
          "internalType": "address",
          "name": "depositor",
          "type": "address"
        },
        {
          "internalType": "address",
          "name": "recipient",
          "type": "address"
        },
        {
          "internalType": "address",
          "name": "destinationToken",
          "type": "address"
        },
        {
          "internalType": "uint256",
          "name": "amount",
          "type": "uint256"
        },
        {
          "internalType": "uint256",
          "name": "maxTokensToSend",
          "type": "uint256"
        },
        {
          "internalType": "uint256",
          "name": "repaymentChainId",
          "type": "uint256"
        },
        {
          "internalType": "uint256",
          "name": "originChainId",
          "type": "uint256"
        },
        {
          "internalType": "int64",
          "name": "realizedLpFeePct",
          "type": "int64"
        },
        {
          "internalType": "int64",
          "name": "relayerFeePct",
          "type": "int64"
        },
        {
          "internalType": "uint32",
          "name": "depositId",
          "type": "uint32"
        },
        {
          "internalType": "bytes",
          "name": "message",
          "type": "bytes"
        },
        {
          "internalType": "uint256",
          "name": "maxCount",
          "type": "uint256"
        }
      ],
      "name": "fillRelay",
      "outputs": [],
      "stateMutability": "nonpayable",
      "type": "function"
    },
    {
      "inputs": [
        {
          "internalType": "address",
          "name": "depositor",
          "type": "address"
        },
        {
          "internalType": "address",
          "name": "recipient",
          "type": "address"
        },
        {
          "internalType": "address",
          "name": "updatedRecipient",
          "type": "address"
        },
        {
          "internalType": "address",
          "name": "destinationToken",
          "type": "address"
        },
        {
          "internalType": "uint256",
          "name": "amount",
          "type": "uint256"
        },
        {
          "internalType": "uint256",
          "name": "maxTokensToSend",
          "type": "uint256"
        },
        {
          "internalType": "uint256",
          "name": "repaymentChainId",
          "type": "uint256"
        },
        {
          "internalType": "uint256",
          "name": "originChainId",
          "type": "uint256"
        },
        {
          "internalType": "int64",
          "name": "realizedLpFeePct",
          "type": "int64"
        },
        {
          "internalType": "int64",
          "name": "relayerFeePct",
          "type": "int64"
        },
        {
          "internalType": "int64",
          "name": "updatedRelayerFeePct",
          "type": "int64"
        },
        {
          "internalType": "uint32",
          "name": "depositId",
          "type": "uint32"
        },
        {
          "internalType": "bytes",
          "name": "message",
          "type": "bytes"
        },
        {
          "internalType": "bytes",
          "name": "updatedMessage",
          "type": "bytes"
        },
        {
          "internalType": "bytes",
          "name": "depositorSignature",
          "type": "bytes"
        },
        {
          "internalType": "uint256",
          "name": "maxCount",
          "type": "uint256"
        }
      ],
      "name": "fillRelayWithUpdatedDeposit",
      "outputs": [],
      "stateMutability": "nonpayable",
      "type": "function"
    },
    {
      "inputs": [
        {
          "internalType": "bytes32",
          "name": "",
          "type": "bytes32"
        }
      ],
      "name": "fillStatuses",
      "outputs": [
        {
          "internalType": "uint256",
          "name": "",
          "type": "uint256"
        }
      ],
      "stateMutability": "view",
      "type": "function"
    },
    {
      "inputs": [
        {
          "components": [
            {
              "internalType": "address",
              "name": "depositor",
              "type": "address"
            },
            {
              "internalType": "address",
              "name": "recipient",
              "type": "address"
            },
            {
              "internalType": "address",
              "name": "exclusiveRelayer",
              "type": "address"
            },
            {
              "internalType": "address",
              "name": "inputToken",
              "type": "address"
            },
            {
              "internalType": "address",
              "name": "outputToken",
              "type": "address"
            },
            {
              "internalType": "uint256",
              "name": "inputAmount",
              "type": "uint256"
            },
            {
              "internalType": "uint256",
              "name": "outputAmount",
              "type": "uint256"
            },
            {
              "internalType": "uint256",
              "name": "originChainId",
              "type": "uint256"
            },
            {
              "internalType": "uint256",
              "name": "destinationChainId",
              "type": "uint256"
            },
            {
              "internalType": "uint32",
              "name": "depositId",
              "type": "uint32"
            },
            {
              "internalType": "uint32",
              "name": "fillDeadline",
              "type": "uint32"
            },
            {
              "internalType": "uint32",
              "name": "exclusivityDeadline",
              "type": "uint32"
            },
            {
              "internalType": "bytes",
              "name": "message",
              "type": "bytes"
            }
          ],
          "internalType": "struct USSSpokePoolInterface.USSRelayData",
          "name": "relayData",
          "type": "tuple"
        },
        {
          "internalType": "uint256",
          "name": "repaymentChainId",
          "type": "uint256"
        }
      ],
      "name": "fillUSSRelay",
      "outputs": [],
      "stateMutability": "nonpayable",
      "type": "function"
    },
    {
      "inputs": [
        {
          "components": [
            {
              "internalType": "address",
              "name": "depositor",
              "type": "address"
            },
            {
              "internalType": "address",
              "name": "recipient",
              "type": "address"
            },
            {
              "internalType": "address",
              "name": "exclusiveRelayer",
              "type": "address"
            },
            {
              "internalType": "address",
              "name": "inputToken",
              "type": "address"
            },
            {
              "internalType": "address",
              "name": "outputToken",
              "type": "address"
            },
            {
              "internalType": "uint256",
              "name": "inputAmount",
              "type": "uint256"
            },
            {
              "internalType": "uint256",
              "name": "outputAmount",
              "type": "uint256"
            },
            {
              "internalType": "uint256",
              "name": "originChainId",
              "type": "uint256"
            },
            {
              "internalType": "uint256",
              "name": "destinationChainId",
              "type": "uint256"
            },
            {
              "internalType": "uint32",
              "name": "depositId",
              "type": "uint32"
            },
            {
              "internalType": "uint32",
              "name": "fillDeadline",
              "type": "uint32"
            },
            {
              "internalType": "uint32",
              "name": "exclusivityDeadline",
              "type": "uint32"
            },
            {
              "internalType": "bytes",
              "name": "message",
              "type": "bytes"
            }
          ],
          "internalType": "struct USSSpokePoolInterface.USSRelayData",
          "name": "relayData",
          "type": "tuple"
        },
        {
          "internalType": "uint256",
          "name": "repaymentChainId",
          "type": "uint256"
        },
        {
          "internalType": "uint256",
          "name": "updatedOutputAmount",
          "type": "uint256"
        },
        {
          "internalType": "address",
          "name": "updatedRecipient",
          "type": "address"
        },
        {
          "internalType": "bytes",
          "name": "updatedMessage",
          "type": "bytes"
        },
        {
          "internalType": "bytes",
          "name": "depositorSignature",
          "type": "bytes"
        }
      ],
      "name": "fillUSSRelayWithUpdatedDeposit",
      "outputs": [],
      "stateMutability": "nonpayable",
      "type": "function"
    },
    {
      "inputs": [],
      "name": "getCurrentTime",
      "outputs": [
        {
          "internalType": "uint256",
          "name": "",
          "type": "uint256"
        }
      ],
      "stateMutability": "view",
      "type": "function"
    },
    {
      "inputs": [],
      "name": "hubPool",
      "outputs": [
        {
          "internalType": "address",
          "name": "",
          "type": "address"
        }
      ],
      "stateMutability": "view",
      "type": "function"
    },
    {
      "inputs": [
        {
          "internalType": "uint32",
          "name": "_initialDepositId",
          "type": "uint32"
        },
        {
          "internalType": "contract IMessageService",
          "name": "_l2MessageService",
          "type": "address"
        },
        {
          "internalType": "contract ITokenBridge",
          "name": "_l2TokenBridge",
          "type": "address"
        },
        {
          "internalType": "contract IUSDCBridge",
          "name": "_l2UsdcBridge",
          "type": "address"
        },
        {
          "internalType": "address",
          "name": "_crossDomainAdmin",
          "type": "address"
        },
        {
          "internalType": "address",
          "name": "_hubPool",
          "type": "address"
        }
      ],
      "name": "initialize",
      "outputs": [],
      "stateMutability": "nonpayable",
      "type": "function"
    },
    {
      "inputs": [],
      "name": "l2MessageService",
      "outputs": [
        {
          "internalType": "contract IMessageService",
          "name": "",
          "type": "address"
        }
      ],
      "stateMutability": "view",
      "type": "function"
    },
    {
      "inputs": [],
      "name": "l2TokenBridge",
      "outputs": [
        {
          "internalType": "contract ITokenBridge",
          "name": "",
          "type": "address"
        }
      ],
      "stateMutability": "view",
      "type": "function"
    },
    {
      "inputs": [],
      "name": "l2UsdcBridge",
      "outputs": [
        {
          "internalType": "contract IUSDCBridge",
          "name": "",
          "type": "address"
        }
      ],
      "stateMutability": "view",
      "type": "function"
    },
    {
      "inputs": [],
      "name": "minimumFeeInWei",
      "outputs": [
        {
          "internalType": "uint256",
          "name": "",
          "type": "uint256"
        }
      ],
      "stateMutability": "view",
      "type": "function"
    },
    {
      "inputs": [
        {
          "internalType": "bytes[]",
          "name": "data",
          "type": "bytes[]"
        }
      ],
      "name": "multicall",
      "outputs": [
        {
          "internalType": "bytes[]",
          "name": "results",
          "type": "bytes[]"
        }
      ],
      "stateMutability": "nonpayable",
      "type": "function"
    },
    {
      "inputs": [],
      "name": "numberOfDeposits",
      "outputs": [
        {
          "internalType": "uint32",
          "name": "",
          "type": "uint32"
        }
      ],
      "stateMutability": "view",
      "type": "function"
    },
    {
      "inputs": [
        {
          "internalType": "bool",
          "name": "pause",
          "type": "bool"
        }
      ],
      "name": "pauseDeposits",
      "outputs": [],
      "stateMutability": "nonpayable",
      "type": "function"
    },
    {
      "inputs": [
        {
          "internalType": "bool",
          "name": "pause",
          "type": "bool"
        }
      ],
      "name": "pauseFills",
      "outputs": [],
      "stateMutability": "nonpayable",
      "type": "function"
    },
    {
      "inputs": [],
      "name": "pausedDeposits",
      "outputs": [
        {
          "internalType": "bool",
          "name": "",
          "type": "bool"
        }
      ],
      "stateMutability": "view",
      "type": "function"
    },
    {
      "inputs": [],
      "name": "pausedFills",
      "outputs": [
        {
          "internalType": "bool",
          "name": "",
          "type": "bool"
        }
      ],
      "stateMutability": "view",
      "type": "function"
    },
    {
      "inputs": [],
      "name": "proxiableUUID",
      "outputs": [
        {
          "internalType": "bytes32",
          "name": "",
          "type": "bytes32"
        }
      ],
      "stateMutability": "view",
      "type": "function"
    },
    {
      "inputs": [
        {
          "internalType": "bytes32",
          "name": "relayerRefundRoot",
          "type": "bytes32"
        },
        {
          "internalType": "bytes32",
          "name": "slowRelayRoot",
          "type": "bytes32"
        }
      ],
      "name": "relayRootBundle",
      "outputs": [],
      "stateMutability": "nonpayable",
      "type": "function"
    },
    {
      "inputs": [
        {
          "components": [
            {
              "internalType": "address",
              "name": "depositor",
              "type": "address"
            },
            {
              "internalType": "address",
              "name": "recipient",
              "type": "address"
            },
            {
              "internalType": "address",
              "name": "exclusiveRelayer",
              "type": "address"
            },
            {
              "internalType": "address",
              "name": "inputToken",
              "type": "address"
            },
            {
              "internalType": "address",
              "name": "outputToken",
              "type": "address"
            },
            {
              "internalType": "uint256",
              "name": "inputAmount",
              "type": "uint256"
            },
            {
              "internalType": "uint256",
              "name": "outputAmount",
              "type": "uint256"
            },
            {
              "internalType": "uint256",
              "name": "originChainId",
              "type": "uint256"
            },
            {
              "internalType": "uint256",
              "name": "destinationChainId",
              "type": "uint256"
            },
            {
              "internalType": "uint32",
              "name": "depositId",
              "type": "uint32"
            },
            {
              "internalType": "uint32",
              "name": "fillDeadline",
              "type": "uint32"
            },
            {
              "internalType": "uint32",
              "name": "exclusivityDeadline",
              "type": "uint32"
            },
            {
              "internalType": "bytes",
              "name": "message",
              "type": "bytes"
            }
          ],
          "internalType": "struct USSSpokePoolInterface.USSRelayData",
          "name": "relayData",
          "type": "tuple"
        }
      ],
      "name": "requestUSSSlowFill",
      "outputs": [],
      "stateMutability": "nonpayable",
      "type": "function"
    },
    {
      "inputs": [
        {
          "internalType": "uint256",
          "name": "",
          "type": "uint256"
        }
      ],
      "name": "rootBundles",
      "outputs": [
        {
          "internalType": "bytes32",
          "name": "slowRelayRoot",
          "type": "bytes32"
        },
        {
          "internalType": "bytes32",
          "name": "relayerRefundRoot",
          "type": "bytes32"
        }
      ],
      "stateMutability": "view",
      "type": "function"
    },
    {
      "inputs": [
        {
          "internalType": "address",
          "name": "newCrossDomainAdmin",
          "type": "address"
        }
      ],
      "name": "setCrossDomainAdmin",
      "outputs": [],
      "stateMutability": "nonpayable",
      "type": "function"
    },
    {
      "inputs": [
        {
          "internalType": "address",
          "name": "originToken",
          "type": "address"
        },
        {
          "internalType": "uint256",
          "name": "destinationChainId",
          "type": "uint256"
        },
        {
          "internalType": "bool",
          "name": "enabled",
          "type": "bool"
        }
      ],
      "name": "setEnableRoute",
      "outputs": [],
      "stateMutability": "nonpayable",
      "type": "function"
    },
    {
      "inputs": [
        {
          "internalType": "address",
          "name": "newHubPool",
          "type": "address"
        }
      ],
      "name": "setHubPool",
      "outputs": [],
      "stateMutability": "nonpayable",
      "type": "function"
    },
    {
      "inputs": [
        {
          "internalType": "contract IMessageService",
          "name": "_l2MessageService",
          "type": "address"
        }
      ],
      "name": "setL2MessageService",
      "outputs": [],
      "stateMutability": "nonpayable",
      "type": "function"
    },
    {
      "inputs": [
        {
          "internalType": "contract ITokenBridge",
          "name": "_l2TokenBridge",
          "type": "address"
        }
      ],
      "name": "setL2TokenBridge",
      "outputs": [],
      "stateMutability": "nonpayable",
      "type": "function"
    },
    {
      "inputs": [
        {
          "internalType": "contract IUSDCBridge",
          "name": "_l2UsdcBridge",
          "type": "address"
        }
      ],
      "name": "setL2UsdcBridge",
      "outputs": [],
      "stateMutability": "nonpayable",
      "type": "function"
    },
    {
      "inputs": [
        {
          "internalType": "address",
          "name": "depositor",
          "type": "address"
        },
        {
          "internalType": "int64",
          "name": "updatedRelayerFeePct",
          "type": "int64"
        },
        {
          "internalType": "uint32",
          "name": "depositId",
          "type": "uint32"
        },
        {
          "internalType": "address",
          "name": "updatedRecipient",
          "type": "address"
        },
        {
          "internalType": "bytes",
          "name": "updatedMessage",
          "type": "bytes"
        },
        {
          "internalType": "bytes",
          "name": "depositorSignature",
          "type": "bytes"
        }
      ],
      "name": "speedUpDeposit",
      "outputs": [],
      "stateMutability": "nonpayable",
      "type": "function"
    },
    {
      "inputs": [
        {
          "internalType": "address",
          "name": "depositor",
          "type": "address"
        },
        {
          "internalType": "uint32",
          "name": "depositId",
          "type": "uint32"
        },
        {
          "internalType": "uint256",
          "name": "updatedOutputAmount",
          "type": "uint256"
        },
        {
          "internalType": "address",
          "name": "updatedRecipient",
          "type": "address"
        },
        {
          "internalType": "bytes",
          "name": "updatedMessage",
          "type": "bytes"
        },
        {
          "internalType": "bytes",
          "name": "depositorSignature",
          "type": "bytes"
        }
      ],
      "name": "speedUpUSSDeposit",
      "outputs": [],
      "stateMutability": "nonpayable",
      "type": "function"
    },
    {
      "inputs": [
        {
          "internalType": "address",
          "name": "newImplementation",
          "type": "address"
        }
      ],
      "name": "upgradeTo",
      "outputs": [],
      "stateMutability": "nonpayable",
      "type": "function"
    },
    {
      "inputs": [
        {
          "internalType": "address",
          "name": "newImplementation",
          "type": "address"
        },
        {
          "internalType": "bytes",
          "name": "data",
          "type": "bytes"
        }
      ],
      "name": "upgradeToAndCall",
      "outputs": [],
      "stateMutability": "payable",
      "type": "function"
    },
    {
      "inputs": [],
      "name": "wrappedNativeToken",
      "outputs": [
        {
          "internalType": "contract WETH9Interface",
          "name": "",
          "type": "address"
        }
      ],
      "stateMutability": "view",
      "type": "function"
    },
    {
      "stateMutability": "payable",
      "type": "receive"
    }
  ],
  "numDeployments": 7,
  "solcInputHash": "f569051d03da3055b4a7fdf670ffdc79",
  "bytecode": "0x61010034620001c557601f620061dc38819003918201601f19168301916001600160401b03831184841017620001ca57808492606094604052833981010312620001c55780516001600160a01b0381169190829003620001c5576200007560406200006d60208401620001e0565b9201620001e0565b913060805260a05260c05260e05260005460ff8160081c16620001705760ff8082160362000134575b604051615fe99081620001f38239608051818181610b3801528181610e7b0152611043015260a05181818161089d01528181612ee1015281816139b701528181614153015281816142bb0152818161514d015281816153e40152818161540b015281816157cb0152615a8c015260c0518181816111a401528181612e7c0152614107015260e05181818161039d0152612ea80152f35b60ff90811916176000557f7f26b83ff96e1f2b6a682f133852f6798a09c465da95921460cefb3847402498602060405160ff8152a1386200009e565b60405162461bcd60e51b815260206004820152602760248201527f496e697469616c697a61626c653a20636f6e747261637420697320696e697469604482015266616c697a696e6760c81b6064820152608490fd5b600080fd5b634e487b7160e01b600052604160045260246000fd5b519063ffffffff82168203620001c55756fe6080604052600436101561001b575b361561001957600080fd5b005b60003560e01c8063079bd2c71461036b5780630c2097f7146103665780631186ec331461036157806317fcb39b1461035c5780631b3d5559146103575780631dfb2d0214610352578063272751c71461034d57806329cb924d146103485780633659cfe61461034357806344b8be681461033e578063486424b514610339578063493a4f84146103345780634f1ef2861461032f5780635249fef11461032a5780635285e0581461032557806352d1902d14610320578063541f4f141461031b57806357f6dcb8146103165780635910aa241461031157806359c80a2d1461030c5780635ceaec32146103075780635d467759146103025780636068d6cb146102fd5780636f908a15146102f8578063738b62e5146102f35780637bf1a22e146102ee5780637e688bba146102e957806387a547d2146102e457806389945883146102df5780638a7860ce146102da57806391c49bf8146102d5578063979f2bc2146102d057806399cc2968146102cb5780639a2e0820146102c65780639a8a0592146102c1578063a1244c67146102bc578063a50bd162146102b7578063a78e4b60146102b2578063ab2b8862146102ad578063ac9650d8146102a8578063ae527fbb146102a3578063b5e1bf5f1461029e578063c35c83fc14610299578063c5b9709c14610294578063dda521131461028f578063ddd224f11461028a578063de7eba7814610285578063e190440214610280578063e691498a1461027b578063e97adbd514610276578063ee2a53f814610271578063f1429b5a1461026c5763fd7c10540361000e57612543565b61250e565b6124d0565b612305565b6121e6565b6121bc565b61218c565b612162565b61213b565b611f4e565b611f21565b611ef6565b611e74565b611d8a565b611ba2565b611b79565b611a35565b6119dd565b6119c2565b61198d565b61190f565b611836565b61180c565b611789565b611715565b6116ec565b611665565b61153a565b6114bc565b61143a565b611404565b6113da565b61130d565b6112e3565b6111c8565b611187565b6110f4565b611030565b611006565b610fa8565b610e3a565b610db7565b610d0e565b610c4c565b610b11565b610af6565b610a56565b610a17565b61093f565b610887565b6107f8565b610753565b610380565b600091031261037b57565b600080fd5b3461037b57600036600319011261037b57602060405163ffffffff7f0000000000000000000000000000000000000000000000000000000000000000168152f35b6001600160a01b031690565b6001600160a01b0381160361037b57565b600435906103eb826103cd565b565b602435906103eb826103cd565b604435906103eb826103cd565b606435906103eb826103cd565b35906103eb826103cd565b60a435908160070b820361037b57565b60c435908160070b820361037b57565b608435908160070b820361037b57565b61010435908160070b820361037b57565b61012435908160070b820361037b57565b61014435908160070b820361037b57565b63ffffffff81160361037b57565b60e435906103eb82610482565b61010435906103eb82610482565b61012435906103eb82610482565b61014435906103eb82610482565b61016435906103eb82610482565b35906103eb82610482565b634e487b7160e01b600052604160045260246000fd5b6001600160401b03811161050957604052565b6104e0565b604081019081106001600160401b0382111761050957604052565b60a081019081106001600160401b0382111761050957604052565b602081019081106001600160401b0382111761050957604052565b606081019081106001600160401b0382111761050957604052565b60e081019081106001600160401b0382111761050957604052565b601f909101601f19168101906001600160401b0382119082101761050957604052565b6040519060c082016001600160401b0381118382101761050957604052565b604051906101a082016001600160401b0381118382101761050957604052565b6040519061014082016001600160401b0381118382101761050957604052565b6040519061010082016001600160401b0381118382101761050957604052565b60405190608082016001600160401b0381118382101761050957604052565b604051906103eb82610529565b6001600160401b03811161050957601f01601f191660200190565b92919261068a82610663565b916106986040519384610595565b82948184528183011161037b578281602093846000960137010152565b9080601f8301121561037b578160206106d09335910161067e565b90565b6001600160401b0381116105095760051b60200190565b92916106f5826106d3565b916107036040519384610595565b829481845260208094019160051b810192831161037b57905b8282106107295750505050565b8135815290830190830161071c565b9080601f8301121561037b578160206106d0933591016106ea565b3461037b5761018036600319011261037b57600435610771816103cd565b6107796103ed565b906107826103fa565b61078a61041f565b9261079361042f565b61079b610490565b6107a361049d565b6001600160401b03969092906101243588811161037b576107c89036906004016106b5565b946101643598891161037b576107e5610019993690600401610738565b97610144359760843592606435926138b7565b61010036600319011261037b57600435610811816103cd565b6024359061081e826103cd565b61082661043f565b60a4359061083382610482565b60c435936001600160401b03851161037b576108566108809536906004016106b5565b9361085f612a18565b61087260ff61086b5460e81c1615612cde565b606435916044359133614086565b6001606555005b3461037b57600036600319011261037b576040517f00000000000000000000000000000000000000000000000000000000000000006001600160a01b03168152602090f35b92916108d7826106d3565b916108e56040519384610595565b829481845260208094019160051b810192831161037b57905b82821061090b5750505050565b8380918335610919816103cd565b8152019101906108fe565b9080601f8301121561037b578160206106d0933591016108cc565b60031960603682011261037b5760043561095881610482565b6001600160401b03916024359083821161037b5760c090823603011261037b576109806105b8565b908060040135825260248101356020830152604481013584811161037b576109ae9060043691840101610738565b60408301526109bf606482016104d5565b60608301526109d060848201610414565b608083015260a48101359084821161037b5760046109f19236920101610924565b60a082015260443592831161037b57610a11610019933690600401610738565b91613a36565b3461037b57602036600319011261037b57610880600435610a37816103cd565b610a3f612a83565b610a47612a18565b6147d3565b8015150361037b57565b3461037b57606036600319011261037b57600435610a73816103cd565b60243560443591610a8383610a4c565b610a8b612a83565b610a93612a18565b60018060a01b03167f0a21fdd43d0ad0c62689ee7230a47309a050755bcc52eba00310add65297692a602060009483865261086d8252604086208587528252604086209015159060ff1981541660ff8316179055604051908152a3600160655580f35b3461037b57600036600319011261037b576020604051428152f35b3461037b57602036600319011261037b57600435610b2e816103cd565b6001600160a01b037f000000000000000000000000000000000000000000000000000000000000000081169190610b67308414156125d1565b610b84600080516020615ef4833981519152938285541614612620565b610b8c612a83565b60405190610b9982610544565b60008252600080516020615e948339815191525460ff1615610bc15750506100199150612737565b6020600491604094939451928380926352d1902d60e01b825286165afa60009181610c1c575b50610c095760405162461bcd60e51b815280610c05600482016126e8565b0390fd5b61001993610c17911461268a565b6127c7565b610c3e91925060203d8111610c45575b610c368183610595565b81019061266f565b9038610be7565b503d610c2c565b3461037b5761018036600319011261037b57600435610c6a816103cd565b602435610c76816103cd565b604435610c82816103cd565b60e4358060070b810361037b57610c9761044f565b610c9f6104ab565b61014435959092906001600160401b03871161037b57610cc66100199736906004016106b5565b94610164359660c4359260a435926084359260643592613211565b9181601f8401121561037b578235916001600160401b03831161037b576020838186019501011161037b57565b61018036600319011261037b57600435610d27816103cd565b60243590610d34826103cd565b604435610d40816103cd565b60643590610d4d826103cd565b60e435610d59816103cd565b61010435610d6681610482565b6101243591610d7483610482565b610d7c6104b9565b61016435979094906001600160401b03891161037b57610da3610019993690600401610ce1565b98909760c4359360a4359360843593612e1b565b3461037b57604036600319011261037b57602435600435610dd6612a83565b610dde612a18565b61086c8054600160401b8110156105095763ffffffff9160018201905583610e05826124ac565b5084600182015555167fc86ba04c55bc5eb2f2876b91c438849a296dbec7b08751c3074d92e04f0a77af600080a46001606555005b604036600319011261037b57600435610e52816103cd565b6024356001600160401b03811161037b57610e719036906004016106b5565b6001600160a01b037f00000000000000000000000000000000000000000000000000000000000000008116929190610eab308514156125d1565b610ec8600080516020615ef4833981519152948286541614612620565b610ed0612a83565b600080516020615e948339815191525460ff1615610ef45750506100199150612737565b6020600491604094939451928380926352d1902d60e01b825286165afa60009181610f4b575b50610f385760405162461bcd60e51b815280610c05600482016126e8565b61001993610f46911461268a565b612871565b610f6491925060203d8111610c4557610c368183610595565b9038610f1a565b6001600160a01b0316600090815261086d6020526040902090565b60005261086f602052604060002090565b60005261086e602052604060002090565b3461037b57604036600319011261037b57600435610fc5816103cd565b60018060a01b031660005261086d6020526040600020602435600052602052602060ff604060002054166040519015158152f35b6001600160a01b03169052565b3461037b57600036600319011261037b57610869546040516001600160a01b039091168152602090f35b3461037b57600036600319011261037b577f00000000000000000000000000000000000000000000000000000000000000006001600160a01b0316300361108e57604051600080516020615ef48339815191528152602090f35b0390f35b60405162461bcd60e51b815260206004820152603860248201527f555550535570677261646561626c653a206d757374206e6f742062652063616c6044820152771b1959081d1a1c9bdd59da0819195b1959d85d1958d85b1b60421b6064820152608490fd5b61012036600319011261037b5760043561110d816103cd565b602435611119816103cd565b60443590611126826103cd565b61112e61041f565b60c4359161113b83610482565b60e435946001600160401b03861161037b5761115e6108809636906004016106b5565b94611167612a18565b61117a60ff61086b5460e81c1615612cde565b6084359260643592614086565b3461037b57600036600319011261037b57602060405163ffffffff7f0000000000000000000000000000000000000000000000000000000000000000168152f35b3461037b5760c036600319011261037b576004356111e5816103cd565b602435906111f282610482565b60643590604435611202836103cd565b6001600160401b0360843581811161037b57611222903690600401610ce1565b93909160a43590811161037b5761123d903690600401610ce1565b959092611248612a18565b8461125436888461067e565b61125f368a8861067e565b9084469361126e948d89614946565b6040519586958652600160a01b6001900380931660208701526040860160809052608086019061129d9261305e565b918483036060860152169563ffffffff16946112b89261305e565b037fc19b1460629d39e4a7dc4df644c1a86cfe962988a6ef2d60fbf4c8ef2373957d91a36001606555005b3461037b57600036600319011261037b57610c5d546040516001600160a01b039091168152602090f35b3461037b5761020036600319011261037b576113276103de565b61132f6103ed565b906113386103fa565b91611341610407565b9261134a61044f565b93611353610460565b61135b610471565b6113636104c7565b6001600160401b03979092906101843589811161037b576113889036906004016106b5565b946101a4358a811161037b576113a29036906004016106b5565b966101c4359a8b1161037b576113bf6100199b36906004016106b5565b986101e4359a60e4359360c4359360a4359360843593613365565b3461037b57600036600319011261037b57610c5b546040516001600160a01b039091168152602090f35b3461037b57600036600319011261037b57602060ff61086b5460e81c166040519015158152f35b90816101a091031261037b5790565b3461037b5760c036600319011261037b576001600160401b0360043581811161037b5761146b90369060040161142b565b60643590611478826103cd565b60843583811161037b57611490903690600401610ce1565b9060a43594851161037b576114ac610019953690600401610ce1565b9490936044359060243590613614565b3461037b57602036600319011261037b577fe88463c2f254e2b070013a2dc7ee1e099f9bc00534cbdf03af551dc26ae4921960206004356114fc81610a4c565b611504612a83565b61150c612a18565b61086b805460ff60e81b191691151560e881901b60ff60e81b16929092179055604051908152a16001606555005b3461037b5760c036600319011261037b5760043561155781610482565b6115d9602435611566816103cd565b604435611572816103cd565b60643561157e816103cd565b6084359161158b836103cd565b60a43593611598856103cd565b600054966115bd60ff8960081c16158099819a611657575b8115611637575b5061298c565b876115d0600160ff196000541617600055565b61161e576129ef565b6115df57005b6115ef61ff001960005416600055565b604051600181527f7f26b83ff96e1f2b6a682f133852f6798a09c465da95921460cefb384740249890602090a1005b61163261010061ff00196000541617600055565b6129ef565b303b15915081611649575b50386115b7565b6001915060ff161438611642565b600160ff82161091506115b0565b3461037b5760c036600319011261037b57600435611682816103cd565b602435908160070b820361037b576044359161169d83610482565b6064356116a9816103cd565b6001600160401b039360843585811161037b576116ca9036906004016106b5565b9260a43595861161037b576116e66100199636906004016106b5565b94612d1c565b3461037b57600036600319011261037b576020604051600080516020615f748339815191528152f35b3461037b57600036600319011261037b57610c5b54604051638994588360e01b815290602090829060049082906001600160a01b03165afa801561178457602091600091611767575b50604051908152f35b61177e9150823d8111610c4557610c368183610595565b3861175e565b61267e565b3461037b57602036600319011261037b576004356117a5612a83565b6117ad612a18565b6117b6816124ac565b9190916117f657600191600092818480935501557f3569b846531b754c99cb80df3f49cd72fa6fe106aaee5ab8e0caf35a9d7ce88d8280a2600160655580f35b634e487b7160e01b600052600060045260246000fd5b3461037b57600036600319011261037b57610c5c546040516001600160a01b039091168152602090f35b3461037b57606036600319011261037b5761001960043561185681610482565b610a47602435611865816103cd565b61188b60443593611875856103cd565b61188660ff60005460081c16612c2b565b612c8b565b6040516118978161050e565b6009815260208101906820a1a927a9a996ab1960b91b8252604051916118bc8361050e565b600583526020830191640312e302e360dc1b83526118ea60ff60005460081c166118e581612c2b565b612c2b565b519020915190209061047f5561048055611902612cb1565b61190a612cc2565b614749565b3461037b57602036600319011261037b577f2d5b62420992e5a4afce0e77742636ca2608ef58289fd2e1baa5161ef6e7e41e602060043561194f81610a4c565b611957612a83565b61195f612a18565b61086b805460ff60e01b191691151560e081901b60ff60e01b16929092179055604051908152a16001606555005b3461037b57602036600319011261037b576108806004356119ad816103cd565b6119b5612a83565b6119bd612a18565b612bdb565b3461037b57600036600319011261037b576020604051468152f35b3461037b57600036600319011261037b57602063ffffffff61086b5460c01c16604051908152f35b9181601f8401121561037b578235916001600160401b03831161037b576020808501948460051b01011161037b57565b3461037b5760031960603682011261037b576004356001600160401b0380821161037b5760408260040193833603011261037b57602435611a7581610482565b60443591821161037b57611aa9611a93611aa4933690600401611a05565b939095611a9e612a18565b80613a20565b613609565b92611abf611aba60808601516103c1565b6139ad565b6101008401514603611b6757611b5d94611b5893611b5192611ae460208801516103c1565b611b1461018089015191611af66105b8565b998a52602460208b019460008652013560408b015260608a01613356565b6080880152600060a08801528651604051611b4581611b37602082019485613817565b03601f198101835282610595565b519020905236916106ea565b9083614cb5565b615646565b6100196001606555565b604051633d23e4d160e11b8152600490fd5b3461037b57600036600319011261037b576020604051600080516020615f548339815191528152f35b3461037b5760408060031936011261037b576004356001600160401b03811161037b57611bd390369060040161142b565b90611bdc612a18565b611bef60ff61086b5460e01c161561331b565b611bfa818301613469565b6001600160a01b031633141580611cc3575b611cb3574661010083013503611ca357611c8f611b5d9260c0611c8884516020810190611c3d81611b3787856134af565b51902094611c4d60208501613469565b90611c5c6101808601866135d7565b949095611c676105b8565b98611c72368361221b565b8a5260208a015201359087015260608601613356565b369161067e565b608082015260243560a082015233906158d2565b51633d23e4d160e11b8152600490fd5b51630c3a9b9d60e41b8152600490fd5b50611cd16101608301613473565b63ffffffff4291161015611c0c565b60005b838110611cf35750506000910152565b8181015183820152602001611ce3565b90602091611d1c81518092818552858086019101611ce0565b601f01601f1916010190565b602080820190808352835180925260408301928160408460051b8301019501936000915b848310611d5c5750505050505090565b9091929394958480611d7a600193603f198682030187528a51611d03565b9801930193019194939290611d4c565b3461037b57602036600319011261037b57600480356001600160401b03811161037b57611dba9036908301611a05565b90611dc482615dc6565b9160005b818110611ddd576040518061108a8682611d28565b600080611deb838587615e10565b60409391611dfd855180938193615e27565b0390305af490611e0b6128b2565b91829015611e3a57505090611e3591611e248287613cd6565b52611e2f8186613cd6565b50613cc7565b611dc8565b826044899394511061037b57610c059183611e5f920160248091518301019101615e35565b925162461bcd60e51b8152928392830161297b565b60e036600319011261037b57600435611e8c816103cd565b602435611e98816103cd565b611ea061043f565b60a43592906001600160401b03841161037b57611ec46108809436906004016106b5565b92611ecd612a18565b611ee060ff61086b5460e81c1615612cde565b63ffffffff421692606435916044359133614086565b3461037b57600036600319011261037b576040516b1d6329f1c35ca4bfabb9f56160281b8152602090f35b3461037b57602036600319011261037b5760043560005261086f6020526020604060002054604051908152f35b60031960603682011261037b5760043590611f6882610482565b602435906001600160401b0380831161037b576101008360040192843603011261037b5760443590811161037b57611fa4903690600401611a05565b9091611fae612a18565b61200d6084850191611fc2611aba84613469565b61203361202f60248801359660a4890196611fdd8886613cea565b969061200660448d0198611ffe611ff48b8b613cea565b94909236916108cc565b9236916106ea565b908b614858565b612029600161201b8d6124ac565b50015492611ffe3688613d1f565b91613e79565b1590565b61212957606486019361204585613473565b61204f908961487a565b81359261205c8184613cea565b61206588613473565b9061206f88613469565b9061207a8688613cea565b9490913690612088926106ea565b933690612094926108cc565b916120a093888c61423b565b6120aa9083613cea565b956120b490613473565b946120be90613469565b916120c99084613cea565b909360e48a016120d8916135d7565b94909360405198899863ffffffff8091169d169b60c40135946120fb988a613dcf565b037f168b5e636f384f487d11ee278507b1ff985b7dc751a0fb6ef7ad1432e8dec1da91a46100196001606555565b60405163582f497d60e11b8152600490fd5b3461037b57600036600319011261037b57602060ff61086b5460e01c166040519015158152f35b3461037b57600036600319011261037b576040516a0c097ce7bc90715b34b9f160241b8152602090f35b3461037b57602036600319011261037b576108806004356121ac816103cd565b6121b4612a83565b61190a612a18565b3461037b57600036600319011261037b5761086a546040516001600160a01b039091168152602090f35b3461037b57602036600319011261037b57610880600435612206816103cd565b61220e612a83565b612216612a18565b612b8b565b91906101a08382031261037b576122306105d7565b9261223a81610414565b845261224860208201610414565b602085015261225960408201610414565b604085015261226a60608201610414565b606085015261227b60808201610414565b608085015260a081013560a085015260c081013560c085015260e081013560e085015261010080820135908501526101206122b78183016104d5565b908501526101406122c98183016104d5565b908501526101606122db8183016104d5565b9085015261018091818301356001600160401b03811161037b576122ff92016106b5565b90830152565b3461037b57602036600319011261037b576004356001600160401b03811161037b5761233590369060040161221b565b61233d612a18565b61235060ff61086b5460e01c161561331b565b610140810190612364825163ffffffff1690565b63ffffffff90814291161061248457604051602081019061238981611b378685613817565b5190209061239682610f86565b54612473576123ce6123c87fe4b7a167221330bacd6975b417a1f4cb0b64a529213adee334653b69556ed95793610f86565b60019055565b6123db60608401516103c1565b936124666123ec60808601516103c1565b60a08601519560c08101519660e08201519761241e61241361012085015163ffffffff1690565b965163ffffffff1690565b61016084015163ffffffff169061243860408601516103c1565b9261244386516103c1565b9461018061245460208901516103c1565b970151976040519b8c9b169e8b61384d565b0390a36100196001606555565b604051624be79160e21b8152600490fd5b60405163d642b7d960e01b8152600490fd5b634e487b7160e01b600052603260045260246000fd5b61086c80548210156124cb576000526003602060002091020190600090565b612496565b3461037b57602036600319011261037b5760043561086c5481101561037b576124fa6040916124ac565b506001815491015482519182526020820152f35b3461037b57602036600319011261037b5761088060043561252e816103cd565b612536612a83565b61253e612a18565b612b3b565b61010036600319011261037b5760043561255c816103cd565b60243590612569826103cd565b604435612575816103cd565b61257d61041f565b60c435936001600160401b03851161037b576125a06108809536906004016106b5565b936125a9612a18565b6125bc60ff61086b5460e81c1615612cde565b63ffffffff4216936084359260643592614086565b156125d857565b60405162461bcd60e51b815260206004820152602c6024820152600080516020615ed483398151915260448201526b19195b1959d85d1958d85b1b60a21b6064820152608490fd5b1561262757565b60405162461bcd60e51b815260206004820152602c6024820152600080516020615ed483398151915260448201526b6163746976652070726f787960a01b6064820152608490fd5b9081602091031261037b575190565b6040513d6000823e3d90fd5b1561269157565b60405162461bcd60e51b815260206004820152602960248201527f45524331393637557067726164653a20756e737570706f727465642070726f786044820152681a58589b195555525160ba1b6064820152608490fd5b60809060208152602e60208201527f45524331393637557067726164653a206e657720696d706c656d656e7461746960408201526d6f6e206973206e6f74205555505360901b60608201520190565b803b1561276c57600080516020615ef483398151915280546001600160a01b0319166001600160a01b03909216919091179055565b60405162461bcd60e51b815260206004820152602d60248201527f455243313936373a206e657720696d706c656d656e746174696f6e206973206e60448201526c1bdd08184818dbdb9d1c9858dd609a1b6064820152608490fd5b906127d182612737565b6001600160a01b038216600080516020615f34833981519152600080a2805115801590612869575b612801575050565b61286691600080604051936128158561055f565b602785527f416464726573733a206c6f772d6c6576656c2064656c65676174652063616c6c6020860152660819985a5b195960ca1b6040860152602081519101845af46128606128b2565b916128e2565b50565b5060006127f9565b9061287b82612737565b6001600160a01b038216600080516020615f34833981519152600080a28051158015906128aa57612801575050565b5060016127f9565b3d156128dd573d906128c382610663565b916128d16040519384610595565b82523d6000602084013e565b606090565b9192901561294457508151156128f6575090565b3b156128ff5790565b60405162461bcd60e51b815260206004820152601d60248201527f416464726573733a2063616c6c20746f206e6f6e2d636f6e74726163740000006044820152606490fd5b8251909150156129575750805190602001fd5b60405162461bcd60e51b815260206004820152908190610c05906024830190611d03565b9060206106d0928181520190611d03565b1561299357565b60405162461bcd60e51b815260206004820152602e60248201527f496e697469616c697a61626c653a20636f6e747261637420697320616c72656160448201526d191e481a5b9a5d1a585b1a5e995960921b6064820152608490fd5b9161253e6103eb96610a47612216969761188b6119bd969761188660ff60005460081c16612c2b565b600260655414612a29576002606555565b60405162461bcd60e51b815260206004820152601f60248201527f5265656e7472616e637947756172643a207265656e7472616e742063616c6c006044820152606490fd5b9081602091031261037b57516106d0816103cd565b610c5b546040516333f2026760e11b8152906001600160a01b03906020908390600490829085165afa91821561178457600092612b0b575b50806108695416911603612acb57565b60405162461bcd60e51b81526020600482015260186024820152774f4e4c595f434f554e544552504152545f4741544557415960401b6044820152606490fd5b612b2d91925060203d8111612b34575b612b258183610595565b810190612a6e565b9038612abb565b503d612b1b565b610c5c80546001600160a01b039283166001600160a01b03198216811790925560405192168252907ff3dc137d2246f9b8abd0bb821e185ba01122c9b3ea3745ffca6208037674d67090602090a2565b610c5d80546001600160a01b039283166001600160a01b03198216811790925560405192168252907f6f15007ffd88f54cef03a7cb2c9feb2cb5f4880c1a7b3728678a08ab0241f66190602090a2565b610c5b80546001600160a01b039283166001600160a01b03198216811790925560405192168252907ff4afd54e7ed26702d892bb2e04050d1414c6eb040dde0e9ca2d919f423f3608790602090a2565b15612c3257565b60405162461bcd60e51b815260206004820152602b60248201527f496e697469616c697a61626c653a20636f6e7472616374206973206e6f74206960448201526a6e697469616c697a696e6760a81b6064820152608490fd5b61086b805463ffffffff60c01b191660c09290921b63ffffffff60c01b16919091179055565b6103eb60ff60005460081c16612c2b565b612cd760ff60005460081c166118e581612c2b565b6001606555565b15612ce557565b60405162461bcd60e51b815260206004820152600f60248201526e506175736564206465706f7369747360881b6044820152606490fd5b612dbe9063ffffffff7fa6aa57bd282fc82378458de27be4eadfa791a0c7321c49562eeba8b2643dd5669597969497612d53612a18565b612d818887838860070b98612d796706f05b59d3b20000612d738c612e0a565b10612dc8565b468e896148d3565b612dac604051968796875260018060a01b038093166020880152608060408801526080870190611d03565b92858403606087015216971695611d03565b0390a36001606555565b15612dcf57565b60405162461bcd60e51b8152602060048201526013602482015272496e76616c69642072656c617965722066656560681b6044820152606490fd5b6000808212612e17575090565b0390565b979b95999196939b9a949890929a612e31612a18565b61086b998a5460e81c60ff1615612e4790612cde565b8b612e518a610f6b565b6000918252602052604090205460ff16156130025763ffffffff9d8e612e798185164261302a565b907f00000000000000000000000000000000000000000000000000000000000000001610612ff0578e612ece817f0000000000000000000000000000000000000000000000000000000000000000164261303c565b90851611612fde576001600160a01b039b7f00000000000000000000000000000000000000000000000000000000000000008d16828c8f1680831480612fd5575b15612fc257503403612fb057803b1561037b57600060049160405192838092630d0e30db60e41b825234905af1801561178457612f97575b505b5460c01c63ffffffff169e8f612f5e90613049565b612f6790612c8b565b6040519c8d9c169f169d612f7b9a8c61307f565b03600080516020615f1483398151915291a46103eb6001606555565b80612fa4612faa926104f6565b80610370565b38612f47565b604051636452a35d60e01b8152600490fd5b612fd09250309033906130e7565b612f49565b50341515612f0f565b60405163582e388960e01b8152600490fd5b60405163f722177f60e01b8152600490fd5b604051632a58c4f360e01b8152600490fd5b634e487b7160e01b600052601160045260246000fd5b9190820391821161303757565b613014565b9190820180921161303757565b63ffffffff8091169081146130375760010190565b908060209392818452848401376000828201840152601f01601f1916010190565b6001600160a01b03918216815291811660208301526040820192909252606081019290925263ffffffff928316608083015292821660a0820152921660c083015291821660e0820152911661010082015261014061012082018190526106d09391019161305e565b6040516323b872dd60e01b60208201526001600160a01b0392831660248201529290911660448301526064808301939093529181526103eb9161312982610529565b604051613181916001600160a01b03166131428261050e565b6000806020958685527f5361666545524332303a206c6f772d6c6576656c2063616c6c206661696c656487860152868151910182855af16128606128b2565b80518281159182156131f1575b505090501561319a5750565b6084906040519062461bcd60e51b82526004820152602a60248201527f5361666545524332303a204552433230206f7065726174696f6e20646964206e6044820152691bdd081cdd58d8d9595960b21b6064820152fd5b838092935001031261037b5781015161320981610a4c565b80823861318e565b9a969290989799939591613223612a18565b61086b5460e01c60ff16156132379061331b565b61323f6105f7565b9b61324a908d613356565b6132578a60208e01613356565b6132649060408d01613356565b60608b015260808a01524660a08a015260070b60c0890152600787900b60e0890152610100948589019061329d919063ffffffff169052565b6101209581878a01526132ae6105f7565b988952600060208a0190815260079890980b60408a01526132d29060608a01613356565b608088015260a087015260c086015260e085015283016000905282016000905281516132fd90614d47565b905261330881614fc0565b61331191615c24565b6103eb6001606555565b1561332257565b60405162461bcd60e51b815260206004820152600c60248201526b5061757365642066696c6c7360a01b6044820152606490fd5b6001600160a01b039091169052565b9d9c9b959e9390928e9799939b98929b61337d612a18565b61086b5460e01c60ff16156133919061331b565b6133996105f7565b986133a4908a613356565b6133b19060208a01613356565b6133be9060408901613356565b6060870152608086018890524660a087015260070b60c086015260070b60e085015263ffffffff8516610100858101919091529161012093848601526134026105f7565b948552600060208601908152600789900b6040870152949c898e6060019061342991613356565b8d8b608082015260a0015260c08d015260e08c01528a0160009052890160009052885161345590614d47565b9052613460966148d3565b61330881614fc0565b356106d0816103cd565b356106d081610482565b9035601e198236030181121561037b570160208101919035906001600160401b03821161037b57813603831361037b57565b6101c06135c66106d093602084526134d2602085016134cd83610414565b610ff9565b6134eb6134e160208301610414565b6040860190610ff9565b6135046134fa60408301610414565b6060860190610ff9565b61351d61351360608301610414565b6080860190610ff9565b61353661352c60808301610414565b60a0860190610ff9565b60a081013560c085015260c081013560e08501526135a961358d61357161010060e085013581890152610120908501358189015284016104d5565b613586610140918289019063ffffffff169052565b83016104d5565b6135a2610160918288019063ffffffff169052565b82016104d5565b6135be610180918287019063ffffffff169052565b81019061347d565b9190926101a080820152019161305e565b903590601e198136030182121561037b57018035906001600160401b03821161037b5760200191813603831361037b57565b6106d090369061221b565b9490969395613621612a18565b61363460ff61086b5460e01c161561331b565b61364060408701613469565b6001600160a01b031633141580613728575b613716574661010087013503611b675760405160208101908061367589846134af565b03601f19810182526136879082610595565b519020976136936105b8565b9861369e368961221b565b8a5260208a0152604089018490526136b98560608b01613356565b6136c436848a61067e565b60808a015260a08901526136d786613469565b966136e56101208801613473565b9236906136f19261067e565b9436906136fd9261067e565b9460e001359061370c96614946565b33613311916158d2565b604051630c3a9b9d60e41b8152600490fd5b506137366101608701613473565b63ffffffff4291161015613652565b906106d091613755828251610ff9565b61376760208201516020840190610ff9565b61377960408201516040840190610ff9565b61378b60608201516060840190610ff9565b61379d60808201516080840190610ff9565b60a081015160a083015260c081015160c083015260e081015160e083015261010080820151908301526137de610120808301519084019063ffffffff169052565b6101408181015163ffffffff16908301526101608181015163ffffffff169083015261018080910151916101a080928201520190611d03565b9060206106d0928181520190613745565b634e487b7160e01b600052602160045260246000fd5b6003111561384857565b613828565b6001600160a01b03918216815291811660208301526040820192909252606081019290925263ffffffff92831660808301529290911660a082015291811660c083015291821660e0820152911661010082015261014061012082018190526106d092910190611d03565b9a98959391999694929097996138cb612a18565b6138d4816139ad565b6138dc6105f7565b9b6138e7908d613356565b6138f48960208e01613356565b6139019060408d01613356565b60608b015260808a01524660a08a015260070b60c089015260070b60e088015263ffffffff16610100878101919091526101209180838901526139426105f7565b9788526020880194600086526040890160009052606089019061396491613356565b6080880152600060a08801526b1d6329f1c35ca4bfabb9f56160281b60c088015260001960e088015260019087015285015283516139a190614d47565b90526134609183614b69565b6001600160a01b037f00000000000000000000000000000000000000000000000000000000000000008116911681146139e35750565b476139eb5750565b4790803b1561037b57600090600460405180948193630d0e30db60e41b83525af180156117845715612866576103eb906104f6565b90359061019e198136030182121561037b570190565b91613a3f612a18565b6080820190613a51611aba83516103c1565b6020830192835192613a8b61202f60a0840194613a778651976040870198895191614858565b846001613a838b6124ac565b500154613beb565b61212957613b327fef58a0c572350b3e7cd0a4cb92368d9b834017a49338338f295d1a3e0535dcf493613b18613b116060860195613ad6613ad0885163ffffffff1690565b8c61487a565b613b018a5182518b51613aed8b5163ffffffff1690565b90613af88b516103c1565b9289519461423b565b5198519751955163ffffffff1690565b93516103c1565b90519060405194859463ffffffff8091169a169885613bb0565b0390a46103eb6001606555565b90815180825260208080930193019160005b828110613b5f575050505090565b835185529381019392810192600101613b51565b90815180825260208080930193019160005b828110613b93575050505090565b83516001600160a01b031685529381019392810192600101613b85565b906106d09492613bcd918352608060208401526080830190613b3f565b6001600160a01b039093166040820152808303606090910152613b73565b6106d09291604051613c6681611b37602082019460208652805160408401526020810151606084015260a0613c30604083015160c06080870152610100860190613b3f565b606083015163ffffffff168583015260808301516000196001841b011660c0860152910151838203603f190160e0850152613b73565b51902091929091906000915b8451831015613cbf57613c858386613cd6565b5190600082821015613cad5750600052602052613ca760406000205b92613cc7565b91613c72565b604091613ca793825260205220613ca1565b915092501490565b60001981146130375760010190565b80518210156124cb5760209160051b010190565b903590601e198136030182121561037b57018035906001600160401b03821161037b57602001918160051b3603831361037b57565b9190916101008184031261037b57613d35610617565b8135815260208083013590820152926001600160401b03604083013581811161037b5782613d64918501610738565b6040860152613d75606084016104d5565b6060860152613d8660808401610414565b608086015260a083013581811161037b5782613da3918501610924565b60a086015260c083013560c086015260e083013590811161037b57613dc892016106b5565b60e0830152565b94979592909998969399855260209160c0838701528160c087015260018060fb1b03821161037b576101009160059493941b809160e08801376001600160a01b039a8b166040870152850185810360e09081016060880152810183905201969160005b828110613e5557505050506106d0959650608082015260a081850391015261305e565b9091929782806001928d8c35613e6a816103cd565b16815201990193929101613e32565b6106d09291604051613c6681611b37602082019460208652805160408401526020810151606084015260408101519060e0613ec261010093846080880152610140870190613b3f565b606083015163ffffffff1660a087015291613ee5608082015160c0880190610ff9565b613f0060a082015193603f19948589830301858a0152613b73565b9360c08201519087015201519084830301610120850152611d03565b15613f2357565b60405162461bcd60e51b815260206004820152600e60248201526d44697361626c656420726f75746560901b6044820152606490fd5b15613f6057565b60405162461bcd60e51b815260206004820152601060248201526f416d6f756e7420746f6f206c6172676560801b6044820152606490fd5b15613f9f57565b60405162461bcd60e51b81526020600482015260166024820152750696e76616c69642071756f746554696d657374616d760541b6044820152606490fd5b15613fe457565b60405162461bcd60e51b815260206004820152601b60248201527a1b5cd9cb9d985b1d59481b5d5cdd081b585d18da08185b5bdd5b9d602a1b6044820152606490fd5b9390926106d096959260018060a01b038095168652600060208701526040860152606085015263ffffffff809116608085015260a0840152600060c08401521660e0820152600061010082015261014090816101208201520190611d03565b91959693949290926140bc6140b76140b0886140a18b610f6b565b90600052602052604060002090565b5460ff1690565b613f1c565b60070b936140d56706f05b59d3b20000612d7387612e0a565b6140ef6a0c097ce7bc90715b34b9f160241b831115613f59565b63ffffffff9361412e614104868b164261302a565b867f0000000000000000000000000000000000000000000000000000000000000000161015613f98565b61086b5460c01c63ffffffff16986141486118868b613049565b6001600160a01b03957f00000000000000000000000000000000000000000000000000000000000000008716948a881680871480614232575b156142075750614192813414613fdd565b853b1561037b57600060049660405197888092630d0e30db60e41b825234905af1801561178457600080516020615f14833981519152996141ef976141de926141f4575b505b82614d10565b91604051988998169c169a87614027565b0390a4565b80612fa4614201926104f6565b386141d6565b6141ef9650600080516020615f148339815191529961422d836141de93309033906130e7565b6141d8565b50341515614181565b929190939481519160005b8381106145dc57505050508261425d575b50505050565b610c5b9061427361426e83546103c1565b6103c1565b906040928351808094638994588360e01b8252602092839160049788915afa8015611784576142ac916000916145bf575b503414614672565b6001600160a01b0388811698907f000000000000000000000000000000000000000000000000000000000000000081168a0361443c57505050863b1561037b57835190632e1a7d4d60e01b82526000828061430e8a8883019190602083019252565b0381838c5af19081156117845761432f9261426e92614429575b50546103c1565b9161433a348761303c565b9061434761086a546103c1565b93803b1561037b578551634f9e72ad60e11b81526001600160a01b039095169185019182523460208301526060604083018190526000908301819052928592839190829060800103925af1801561178457600080516020615f948339815191529363ffffffff9361440a92614416575b505b877f6b586bc6fa39c7102331e79907a18b84ebbed7742125b742dd5ecc6620502fac886143e861086a546103c1565b6143f6855192839283614622565b0390a2519283921695829190602083019252565b0390a438808080614257565b80612fa4614423926104f6565b386143b7565b80612fa4614436926104f6565b38614328565b90919250610c5d92858161445361426e87546103c1565b8951631f209df760e11b815292839182905afa918215611784576000926145a2575b505016880361452d575061426e8161449d8861449761426e6144a396546103c1565b8b6146b5565b546103c1565b916144b061086a546103c1565b833b1561037b5784516370aff70f60e01b81529182018781526001600160a01b0390911660208201529092600091849190829081906040015b039134905af1801561178457600080516020615f948339815191529363ffffffff9361440a9261451a575b506143b9565b80612fa4614527926104f6565b38614514565b905061454f61426e610c5c61449d8961454961426e84546103c1565b8c6146b5565b9261455c61086a546103c1565b93803b1561037b578551632917540d60e11b81526001600160a01b03938416928101928352602083018990529490921660408201526000918491829081906060016144e9565b6145b89250803d10612b3457612b258183610595565b3880614475565b6145d69150833d8511610c4557610c368183610595565b386142a4565b806145ea6145f69284613cd6565b51806145fb5750613cc7565b614246565b61461c906001600160a01b03806146128589613cd6565b5116908c1661463d565b38611e2f565b6001600160a01b039091168152602081019190915260400190565b6131296103eb939261466460405194859263a9059cbb60e01b602085015260248401614622565b03601f198101845283610595565b1561467957565b60405162461bcd60e51b815260206004820152601460248201527309a8aa6a6828e8abe8c8a8abe9a92a69a82a886960631b6044820152606490fd5b604051636eb1769f60e11b81523060048201526001600160a01b038084166024830152929390926020908490604490829086165afa92831561178457600093614729575b508201809211613037576131296103eb9361466460405194859263095ea7b360e01b602085015260248401614622565b61474291935060203d8111610c4557610c368183610595565b91386146f9565b6001600160a01b031680156147925761086980546001600160a01b031916821790557fa9e8c42c9e7fca7f62755189a16b2f5314d43d8fb24e91ba54e6d65f9314e849600080a2565b60405162461bcd60e51b81526020600482015260196024820152784261642062726964676520726f75746572206164647265737360381b6044820152606490fd5b6001600160a01b0316801561481c5761086a80546001600160a01b031916821790557f1f17a88f67b0f49060a34bec1a4723a563620e6aa265eb640b5046dcee0759a0600080a2565b60405162461bcd60e51b81526020600482015260146024820152734261642068756220706f6f6c206164647265737360601b6044820152606490fd5b4603611b67575190510361486857565b6040516319a5316760e31b8152600490fd5b6148856002916124ac565b500162ffffff8260081c168060005281602052600160ff60406000205494161b80809416146148c1576000526020526040600020908154179055565b60405163954476d960e01b8152600490fd5b9392614940936103eb979660208151910120906040519263ffffffff6020850195600080516020615f54833981519152875216604085015285606085015260070b608084015260018060a01b031660a083015260c082015260c081526149388161057a565b519020615d53565b906149e8565b9392614940936103eb979660208151910120906040519263ffffffff6020850195600080516020615f748339815191528752166040850152856060850152608084015260018060a01b031660a083015260c082015260c081526149388161057a565b156149af57565b60405162461bcd60e51b8152602060048201526011602482015270696e76616c6964207369676e617475726560781b6044820152606490fd5b91906149f48282614ab9565b9390926005851015613848576103eb94159384614aa3575b508315614a1c575b5050506149a8565b6000929350908291604051614a5581611b376020820194630b135d3f60e11b998a87526024840152604060448401526064830190611d03565b51915afa90614a626128b2565b82614a95575b82614a78575b5050388080614a14565b614a8d9192506020808251830101910161266f565b143880614a6e565b915060208251101591614a68565b6001600160a01b03838116911614935038614a0c565b906041815114600014614ae757614ae3916020820151906060604084015193015160001a90614af1565b9091565b5050600090600290565b9291906fa2a8918ca85bafe22016d0b997e4df60600160ff1b038311614b5d5791608094939160ff602094604051948552168484015260408301526060820152600093849182805260015afa156117845781516001600160a01b03811615614b57579190565b50600190565b50505050600090600390565b90614bd39291614b9661012082519201519260405192614b888461050e565b8352602083019384526124ac565b505491613c666040518092614bbe602083019560208752516040808501526080840190614c1a565b9051606083015203601f198101835282610595565b15614bda57565b60405162461bcd60e51b815260206004820152601860248201527724b73b30b634b21039b637bb903932b630bc90383937b7b360411b6044820152606490fd5b906106d091614c2a828251610ff9565b614c3c60208201516020840190610ff9565b614c4e60408201516040840190610ff9565b606081015160608301526080810151608083015260a081015160a0830152614c8060c082015160c084019060070b9052565b60e08181015160070b908301526101008181015163ffffffff1690830152610120809101519161014080928201520190611d03565b91614cf8918351614cd260408096015192865192614b888461050e565b505491613c6686518092614bbe602083019560208752518a808501526080840190613745565b15614d005750565b5163582f497d60e11b8152600490fd5b90670de0b6b3a764000091600082840392128383128116908484139015161761303757818102918183041490151715613037570490565b604051614d6481611b376020820194602086526040830190614c1a565b51902090565b15614d7157565b60405162461bcd60e51b815260206004820152600c60248201526b696e76616c6964206665657360a01b6044820152606490fd5b15614dac57565b60405162461bcd60e51b815260206004820152600c60248201526b1c995b185e48199a5b1b195960a21b6044820152606490fd5b600791820b910b019060016001603f1b0319821260016001603f1b0383131761303757565b15614e0c57565b60405162461bcd60e51b8152602060048201526019602482015278066696c6c20616d6f756e74207072652066656573206973203603c1b6044820152606490fd5b15614e5457565b60405162461bcd60e51b815260206004820152601d60248201527f7061796f757441646a7573746d656e7450637420746f6f20736d616c6c0000006044820152606490fd5b15614ea057565b60405162461bcd60e51b815260206004820152601d60248201527f7061796f757441646a7573746d656e7450637420746f6f206c617267650000006044820152606490fd5b600160ff1b81146130375760000390565b15614efd57565b60405162461bcd60e51b815260206004820152601c60248201527b536f6d65686f7720686974206d6178546f6b656e73546f53656e642160201b6044820152606490fd5b15614f4857565b60405162461bcd60e51b815260206004820152601760248201527634b73b30b634b2103932b830bcb6b2b73a1031b430b4b760491b6044820152606490fd5b6001600160a01b039182168152602081019290925291151560408201529116606082015260a0608082018190526106d092910190611d03565b9081519160408101926150006706f05b59d3b2000080614ff2614fed614fe7895160070b90565b60070b90565b612e0a565b10908161535b575b50614d6a565b6060810161501f6a0c097ce7bc90715b34b9f160241b82511115613f59565b602083019061503a6150318351610f97565b54825111614da5565b60c084019283519661506a60c08301986150646150588b5160070b90565b845160070b5b90614de0565b90615378565b97615076891515614e05565b61508c84516150858751610f97565b549061302a565b898110615351575b50614fe76150bb9261505e6150ad6150b5945160070b90565b915160070b90565b88614d10565b9361012086018051806152fc575b50505060a08501518786519160a0830151149182156152ee575b505080156152d5575b6150f590614f41565b6150ff8351610f97565b61510a88825461303c565b9055606085019161511b83516103c1565b926001600160a01b03923384861614806152be575b6152b4579060406151a9920194878561514988516103c1565b16917f00000000000000000000000000000000000000000000000000000000000000008716830361526b5750505061518861202f6101008a0151151590565b61524c575b6151a38761519e61426e84516103c1565b6153c9565b516103c1565b91823b15158061523e575b6151c2575b50505050505050565b6151d46151db916080941694516103c1565b9451610f97565b549051111594015193813b1561037b5760008094615211604051978896879586946301d43f2760e31b8652339260048701614f87565b03925af180156117845761522b575b8080808080806151b9565b80612fa4615238926104f6565b38615220565b5060808701515115156151b4565b6152668761525d61426e88516103c1565b309033906130e7565b61518d565b61527c61202f6101008d0151151590565b156152ab57506152a6915061529461426e88516103c1565b61529e84516103c1565b9033906130e7565b6151a3565b6152a69261463d565b5050505050505050565b506152d061202f6101008a0151151590565b615130565b506150f56152e7610100870151151590565b90506150ec565b6060015114905087386150e3565b9561533961533f9261531d6153499599670de0b6b3a763ffff191315614e4d565b61533368056bc75e2d6310000082511315614e99565b51614ee5565b90614d10565b9451851115614ef6565b3880806150c9565b9850614fe7615094565b9050615371614fed614fe760c086015160070b90565b1038614ffa565b670de0b6b3a76400009181830291838304036130375760070b80830392600082128185128116908286139015161761303757146153b3570490565b634e487b7160e01b600052601260045260246000fd5b6001600160a01b0390811690813b1561540957906103eb92917f00000000000000000000000000000000000000000000000000000000000000001661463d565b7f00000000000000000000000000000000000000000000000000000000000000001691823b1561037b576040518093632e1a7d4d60e01b82528260048301528160246000968780945af180156117845761552b575b508047106154e6578280929181925af16154766128b2565b501561547e57565b60405162461bcd60e51b815260206004820152603a60248201527f416464726573733a20756e61626c6520746f2073656e642076616c75652c20726044820152791958da5c1a595b9d081b585e481a185d99481c995d995c9d195960321b6064820152608490fd5b60405162461bcd60e51b815260206004820152601d60248201527f416464726573733a20696e73756666696369656e742062616c616e63650000006044820152606490fd5b615534906104f6565b3861545e565b6155438261383e565b52565b9060018060a01b03825116815260608061556f6020850151608060208601526080850190611d03565b93604081015160408501520151916155868361383e565b015290565b9a979192966155ed9561560a9a9560606106d09f9d99948f909b6155f89c60018060a01b03998a80921684521660208301526040820152015260808d015263ffffffff80921660a08d01521660c08b01521660e0890152610100880190610ff9565b610120860190610ff9565b61018080610140860152840190611d03565b91610160818403910152615546565b906106d0949360809360018060a01b03809316845260208401521660408201528160608201520190611d03565b9060008251610140810161565e815163ffffffff1690565b63ffffffff4291161061248457602085015190600261567c83610f86565b54146158c05761568c8492610f86565b60029055606083015161569e906103c1565b60808401516156ac906103c1565b9160a08501519060c0860151928960a0810151948860e0810151966101208201516156da9063ffffffff1690565b955163ffffffff1661016083015163ffffffff1660408401516156fc906103c1565b918451615708906103c1565b936020860151615717906103c1565b95610180015196606089015161572c906103c1565b986080810151906040015190615740610637565b9a61574b908c613356565b60208b015260408a0152600260608a01526040519b63ffffffff8d9c169e6157739b8d61558b565b03600080516020615eb483398151915291a46060840151615793906103c1565b6001600160a01b039490918583169190338314806158b9575b6158b05760806157bd9101516103c1565b9060408101519687818416917f000000000000000000000000000000000000000000000000000000000000000016821460001461589d57906080929187615889575b61580a9150856153c9565b0151923b15158061587f575b615823575b505050509050565b813b1561587b578361584f95966040519687958694859363d49cdc7960e01b8552339160048601615619565b03925af1801561178457615868575b808080849361581b565b80612fa4615875926104f6565b3861585e565b8380fd5b5082511515615816565b61589691309033906130e7565b38886157ff565b6158ab90866080949361463d565b61580a565b50505050509050565b50846157ac565b604051630479306360e51b8152600490fd5b8051916101408301906158e9825163ffffffff1690565b63ffffffff42911610612484576020830151600161590682610f86565b5460009103615b5a57506001905b600261591f82610f86565b54146158c05761592e90610f86565b600290556060850151615940906103c1565b608086015161594e906103c1565b9260a0870151918660c0890151948960a08301519660e08201519761012083015161597c9063ffffffff1690565b9a5163ffffffff1661016084015163ffffffff1690604085015161599f906103c1565b9285516159ab906103c1565b9460208701516159ba906103c1565b9661018001519760608a01516159cf906103c1565b9960808101519060400151906159e3610637565b9b6159ee908d613356565b60208c015260408b0152615a059060608b0161553a565b6040516001600160a01b03909b169e63ffffffff169d9a9b8c9b615a299b8d61558b565b03600080516020615eb483398151915291a46060810151615a49906103c1565b6001600160a01b0381169233841480615b52575b614257576080615a6e9101516103c1565b6040830151909390926080906001600160a01b0380871690869086907f0000000000000000000000000000000000000000000000000000000000000000168303615b425750615ac091309033906130e7565b615aca85846153c9565b0151913b151580615b38575b615ae05750505050565b803b1561037b57615b0e93600080946040519687958694859363d49cdc7960e01b8552339160048601615619565b03925af1801561178457615b25575b808080614257565b80612fa4615b32926104f6565b38615b1d565b5081511515615ad6565b615b4d9233906130e7565b615aca565b506001615a5d565b90615914565b9060018060a01b038251168152608080615b89602085015160a0602086015260a0850190611d03565b93604081015160070b6040850152606081015115156060850152015191015290565b9a979491926106d09c9a9693615c159a9895928d5260208d015260408c015260608b015260808a015260070b60a089015260070b60c088015260018060a01b03928380921660e0890152166101008701521661012085015261018080610140860152840190611d03565b91610160818403910152615b60565b906040820151615c349060070b90565b916060810151615c43906103c1565b906080810151936101009485830151615c5b90151590565b610120928385015192615c6c610656565b96615c779088613356565b602087015260070b60408601521515606085015260808401528151606001516020830151615ca490610f97565b549360a084015193519460808601519560a08101519160e0820151615cc99060070b90565b60c083015160070b9a83015163ffffffff169a6040840151615cea906103c1565b918451615cf6906103c1565b986020860151615d05906103c1565b950151956040519a8b9a600160a01b60019003169e63ffffffff169d3396615d2d9b8d615bab565b037f8ab9dc6c19fe88e69bc70221b339c84332752fdd49591b7c51e66bae3947b73c91a4565b60429161047f549061048054906040519160208301937fc2f8787176b8ac6bf7215b4adcc1e069bf4ab82d9ab1df05a57a91d425935b6e855260408401526060830152608082015260808152615da881610529565b519020906040519161190160f01b8352600283015260228201522090565b90615dd0826106d3565b615ddd6040519182610595565b8281528092615dee601f19916106d3565b019060005b828110615dff57505050565b806060602080938501015201615df3565b908210156124cb57614ae39160051b8101906135d7565b908092918237016000815290565b60208183031261037b578051906001600160401b03821161037b570181601f8201121561037b578051615e6781610663565b92615e756040519485610595565b8184526020828401011161037b576106d09160208085019101611ce056fe4910fdfa16fed3260ed0e7147f7cc6da11a60208b5b9406d12a635614ffd914332cb2beef51cc3e8592639aa435309d1087da595cff201a7640ce5c2187d719746756e6374696f6e206d7573742062652063616c6c6564207468726f75676820360894a13ba1a3210667c828492db98dca3e2076cc3735a920a3ca505d382bbcc289887301839694cf27e1d254c3b54c9bba4824f29bba3a63c2c138e7e4e181bc7cd75a20ee27fd9adebab32041f755214dbc6bffa90cc0225b39da2e5c2d3b0e058f05b73c62ee68329d2c67c067aaae9a06503cc306378d144d0f0177882b152eb71524aef34d838ab76573c14b1ebfa5e385d9ab29d7cf5398daa2438bd97c3d4d7fa0beeb997103f1aeca4922365ea469a3e7e88db965a128bbe6a2f632a2646970667358221220d48c6010243ce09651a338fdc2d8335a9884ce6690e8b23e770ca01c2ad0120b64736f6c63430008130033"
}