{
  "address": "0x9FC7700c4Fd1e689f0c9cd25a1BC9B82328fe0C5",
  "abi": [
    {
      "inputs": [
        {
          "internalType": "address",
          "name": "_wrappedNativeTokenAddress",
          "type": "address"
        },
        {
          "internalType": "uint32",
          "name": "_depositQuoteTimeBuffer",
          "type": "uint32"
        },
        {
          "internalType": "uint32",
          "name": "_fillDeadlineBuffer",
          "type": "uint32"
        }
      ],
      "stateMutability": "nonpayable",
      "type": "constructor"
    },
    {
      "inputs": [],
      "name": "ClaimedMerkleLeaf",
      "type": "error"
    },
    {
      "inputs": [],
      "name": "DisabledRoute",
      "type": "error"
    },
    {
      "inputs": [],
      "name": "ExpiredFillDeadline",
      "type": "error"
    },
    {
      "inputs": [],
      "name": "InvalidChainId",
      "type": "error"
    },
    {
      "inputs": [],
      "name": "InvalidFillDeadline",
      "type": "error"
    },
    {
      "inputs": [],
      "name": "InvalidMerkleLeaf",
      "type": "error"
    },
    {
      "inputs": [],
      "name": "InvalidMerkleProof",
      "type": "error"
    },
    {
      "inputs": [],
      "name": "InvalidPayoutAdjustmentPct",
      "type": "error"
    },
    {
      "inputs": [],
      "name": "InvalidQuoteTimestamp",
      "type": "error"
    },
    {
      "inputs": [],
      "name": "InvalidSlowFillRequest",
      "type": "error"
    },
    {
      "inputs": [],
      "name": "MsgValueDoesNotMatchInputAmount",
      "type": "error"
    },
    {
      "inputs": [],
      "name": "NotExclusiveRelayer",
      "type": "error"
    },
    {
      "inputs": [],
      "name": "RelayFilled",
      "type": "error"
    },
    {
      "anonymous": false,
      "inputs": [
        {
          "indexed": false,
          "internalType": "address",
          "name": "previousAdmin",
          "type": "address"
        },
        {
          "indexed": false,
          "internalType": "address",
          "name": "newAdmin",
          "type": "address"
        }
      ],
      "name": "AdminChanged",
      "type": "event"
    },
    {
      "anonymous": false,
      "inputs": [
        {
          "indexed": true,
          "internalType": "address",
          "name": "beacon",
          "type": "address"
        }
      ],
      "name": "BeaconUpgraded",
      "type": "event"
    },
    {
      "anonymous": false,
      "inputs": [
        {
          "indexed": true,
          "internalType": "uint256",
          "name": "rootBundleId",
          "type": "uint256"
        }
      ],
      "name": "EmergencyDeleteRootBundle",
      "type": "event"
    },
    {
      "anonymous": false,
      "inputs": [
        {
          "indexed": true,
          "internalType": "address",
          "name": "originToken",
          "type": "address"
        },
        {
          "indexed": true,
          "internalType": "uint256",
          "name": "destinationChainId",
          "type": "uint256"
        },
        {
          "indexed": false,
          "internalType": "bool",
          "name": "enabled",
          "type": "bool"
        }
      ],
      "name": "EnabledDepositRoute",
      "type": "event"
    },
    {
      "anonymous": false,
      "inputs": [
        {
          "indexed": false,
          "internalType": "uint256",
          "name": "amountToReturn",
          "type": "uint256"
        },
        {
          "indexed": true,
          "internalType": "uint256",
          "name": "chainId",
          "type": "uint256"
        },
        {
          "indexed": false,
          "internalType": "uint256[]",
          "name": "refundAmounts",
          "type": "uint256[]"
        },
        {
          "indexed": true,
          "internalType": "uint32",
          "name": "rootBundleId",
          "type": "uint32"
        },
        {
          "indexed": true,
          "internalType": "uint32",
          "name": "leafId",
          "type": "uint32"
        },
        {
          "indexed": false,
          "internalType": "address",
          "name": "l2TokenAddress",
          "type": "address"
        },
        {
          "indexed": false,
          "internalType": "address[]",
          "name": "refundAddresses",
          "type": "address[]"
        }
      ],
      "name": "ExecutedRelayerRefundRoot",
      "type": "event"
    },
    {
      "anonymous": false,
      "inputs": [
        {
          "indexed": false,
          "internalType": "uint256",
          "name": "amountToReturn",
          "type": "uint256"
        },
        {
          "indexed": true,
          "internalType": "uint256",
          "name": "chainId",
          "type": "uint256"
        },
        {
          "indexed": false,
          "internalType": "uint256[]",
          "name": "refundAmounts",
          "type": "uint256[]"
        },
        {
          "indexed": true,
          "internalType": "uint32",
          "name": "rootBundleId",
          "type": "uint32"
        },
        {
          "indexed": true,
          "internalType": "uint32",
          "name": "leafId",
          "type": "uint32"
        },
        {
          "indexed": false,
          "internalType": "address",
          "name": "l2TokenAddress",
          "type": "address"
        },
        {
          "indexed": false,
          "internalType": "address[]",
          "name": "refundAddresses",
          "type": "address[]"
        },
        {
          "indexed": false,
          "internalType": "bytes32",
          "name": "fillsRefundedRoot",
          "type": "bytes32"
        },
        {
          "indexed": false,
          "internalType": "string",
          "name": "fillsRefundedIpfsHash",
          "type": "string"
        }
      ],
      "name": "ExecutedUSSRelayerRefundRoot",
      "type": "event"
    },
    {
      "anonymous": false,
      "inputs": [
        {
          "indexed": false,
          "internalType": "uint256",
          "name": "amount",
          "type": "uint256"
        },
        {
          "indexed": false,
          "internalType": "uint256",
          "name": "totalFilledAmount",
          "type": "uint256"
        },
        {
          "indexed": false,
          "internalType": "uint256",
          "name": "fillAmount",
          "type": "uint256"
        },
        {
          "indexed": false,
          "internalType": "uint256",
          "name": "repaymentChainId",
          "type": "uint256"
        },
        {
          "indexed": true,
          "internalType": "uint256",
          "name": "originChainId",
          "type": "uint256"
        },
        {
          "indexed": false,
          "internalType": "uint256",
          "name": "destinationChainId",
          "type": "uint256"
        },
        {
          "indexed": false,
          "internalType": "int64",
          "name": "relayerFeePct",
          "type": "int64"
        },
        {
          "indexed": false,
          "internalType": "int64",
          "name": "realizedLpFeePct",
          "type": "int64"
        },
        {
          "indexed": true,
          "internalType": "uint32",
          "name": "depositId",
          "type": "uint32"
        },
        {
          "indexed": false,
          "internalType": "address",
          "name": "destinationToken",
          "type": "address"
        },
        {
          "indexed": false,
          "internalType": "address",
          "name": "relayer",
          "type": "address"
        },
        {
          "indexed": true,
          "internalType": "address",
          "name": "depositor",
          "type": "address"
        },
        {
          "indexed": false,
          "internalType": "address",
          "name": "recipient",
          "type": "address"
        },
        {
          "indexed": false,
          "internalType": "bytes",
          "name": "message",
          "type": "bytes"
        },
        {
          "components": [
            {
              "internalType": "address",
              "name": "recipient",
              "type": "address"
            },
            {
              "internalType": "bytes",
              "name": "message",
              "type": "bytes"
            },
            {
              "internalType": "int64",
              "name": "relayerFeePct",
              "type": "int64"
            },
            {
              "internalType": "bool",
              "name": "isSlowRelay",
              "type": "bool"
            },
            {
              "internalType": "int256",
              "name": "payoutAdjustmentPct",
              "type": "int256"
            }
          ],
          "indexed": false,
          "internalType": "struct SpokePool.RelayExecutionInfo",
          "name": "updatableRelayData",
          "type": "tuple"
        }
      ],
      "name": "FilledRelay",
      "type": "event"
    },
    {
      "anonymous": false,
      "inputs": [
        {
          "indexed": false,
          "internalType": "address",
          "name": "inputToken",
          "type": "address"
        },
        {
          "indexed": false,
          "internalType": "address",
          "name": "outputToken",
          "type": "address"
        },
        {
          "indexed": false,
          "internalType": "uint256",
          "name": "inputAmount",
          "type": "uint256"
        },
        {
          "indexed": false,
          "internalType": "uint256",
          "name": "outputAmount",
          "type": "uint256"
        },
        {
          "indexed": false,
          "internalType": "uint256",
          "name": "repaymentChainId",
          "type": "uint256"
        },
        {
          "indexed": true,
          "internalType": "uint256",
          "name": "originChainId",
          "type": "uint256"
        },
        {
          "indexed": true,
          "internalType": "uint32",
          "name": "depositId",
          "type": "uint32"
        },
        {
          "indexed": false,
          "internalType": "uint32",
          "name": "fillDeadline",
          "type": "uint32"
        },
        {
          "indexed": false,
          "internalType": "uint32",
          "name": "exclusivityDeadline",
          "type": "uint32"
        },
        {
          "indexed": false,
          "internalType": "address",
          "name": "exclusiveRelayer",
          "type": "address"
        },
        {
          "indexed": true,
          "internalType": "address",
          "name": "relayer",
          "type": "address"
        },
        {
          "indexed": false,
          "internalType": "address",
          "name": "depositor",
          "type": "address"
        },
        {
          "indexed": false,
          "internalType": "address",
          "name": "recipient",
          "type": "address"
        },
        {
          "indexed": false,
          "internalType": "bytes",
          "name": "message",
          "type": "bytes"
        },
        {
          "components": [
            {
              "internalType": "address",
              "name": "updatedRecipient",
              "type": "address"
            },
            {
              "internalType": "bytes",
              "name": "updatedMessage",
              "type": "bytes"
            },
            {
              "internalType": "uint256",
              "name": "updatedOutputAmount",
              "type": "uint256"
            },
            {
              "internalType": "enum USSSpokePoolInterface.FillType",
              "name": "fillType",
              "type": "uint8"
            }
          ],
          "indexed": false,
          "internalType": "struct USSSpokePoolInterface.USSRelayExecutionEventInfo",
          "name": "relayExecutionInfo",
          "type": "tuple"
        }
      ],
      "name": "FilledUSSRelay",
      "type": "event"
    },
    {
      "anonymous": false,
      "inputs": [
        {
          "indexed": false,
          "internalType": "uint8",
          "name": "version",
          "type": "uint8"
        }
      ],
      "name": "Initialized",
      "type": "event"
    },
    {
      "anonymous": false,
      "inputs": [
        {
          "indexed": true,
          "internalType": "address",
          "name": "l2Token",
          "type": "address"
        },
        {
          "indexed": false,
          "internalType": "address",
          "name": "target",
          "type": "address"
        },
        {
          "indexed": false,
          "internalType": "uint256",
          "name": "numberOfTokensBridged",
          "type": "uint256"
        }
      ],
      "name": "LineaTokensBridged",
      "type": "event"
    },
    {
      "anonymous": false,
      "inputs": [
        {
          "indexed": false,
          "internalType": "bool",
          "name": "isPaused",
          "type": "bool"
        }
      ],
      "name": "PausedDeposits",
      "type": "event"
    },
    {
      "anonymous": false,
      "inputs": [
        {
          "indexed": false,
          "internalType": "bool",
          "name": "isPaused",
          "type": "bool"
        }
      ],
      "name": "PausedFills",
      "type": "event"
    },
    {
      "anonymous": false,
      "inputs": [
        {
          "indexed": true,
          "internalType": "address",
          "name": "relayer",
          "type": "address"
        },
        {
          "indexed": false,
          "internalType": "address",
          "name": "refundToken",
          "type": "address"
        },
        {
          "indexed": false,
          "internalType": "uint256",
          "name": "amount",
          "type": "uint256"
        },
        {
          "indexed": true,
          "internalType": "uint256",
          "name": "originChainId",
          "type": "uint256"
        },
        {
          "indexed": false,
          "internalType": "uint256",
          "name": "destinationChainId",
          "type": "uint256"
        },
        {
          "indexed": false,
          "internalType": "int64",
          "name": "realizedLpFeePct",
          "type": "int64"
        },
        {
          "indexed": true,
          "internalType": "uint32",
          "name": "depositId",
          "type": "uint32"
        },
        {
          "indexed": false,
          "internalType": "uint256",
          "name": "fillBlock",
          "type": "uint256"
        },
        {
          "indexed": false,
          "internalType": "uint256",
          "name": "previousIdenticalRequests",
          "type": "uint256"
        }
      ],
      "name": "RefundRequested",
      "type": "event"
    },
    {
      "anonymous": false,
      "inputs": [
        {
          "indexed": true,
          "internalType": "uint32",
          "name": "rootBundleId",
          "type": "uint32"
        },
        {
          "indexed": true,
          "internalType": "bytes32",
          "name": "relayerRefundRoot",
          "type": "bytes32"
        },
        {
          "indexed": true,
          "internalType": "bytes32",
          "name": "slowRelayRoot",
          "type": "bytes32"
        }
      ],
      "name": "RelayedRootBundle",
      "type": "event"
    },
    {
      "anonymous": false,
      "inputs": [
        {
          "indexed": false,
          "internalType": "int64",
          "name": "newRelayerFeePct",
          "type": "int64"
        },
        {
          "indexed": true,
          "internalType": "uint32",
          "name": "depositId",
          "type": "uint32"
        },
        {
          "indexed": true,
          "internalType": "address",
          "name": "depositor",
          "type": "address"
        },
        {
          "indexed": false,
          "internalType": "address",
          "name": "updatedRecipient",
          "type": "address"
        },
        {
          "indexed": false,
          "internalType": "bytes",
          "name": "updatedMessage",
          "type": "bytes"
        },
        {
          "indexed": false,
          "internalType": "bytes",
          "name": "depositorSignature",
          "type": "bytes"
        }
      ],
      "name": "RequestedSpeedUpDeposit",
      "type": "event"
    },
    {
      "anonymous": false,
      "inputs": [
        {
          "indexed": false,
          "internalType": "address",
          "name": "inputToken",
          "type": "address"
        },
        {
          "indexed": false,
          "internalType": "address",
          "name": "outputToken",
          "type": "address"
        },
        {
          "indexed": false,
          "internalType": "uint256",
          "name": "inputAmount",
          "type": "uint256"
        },
        {
          "indexed": false,
          "internalType": "uint256",
          "name": "outputAmount",
          "type": "uint256"
        },
        {
          "indexed": true,
          "internalType": "uint256",
          "name": "originChainId",
          "type": "uint256"
        },
        {
          "indexed": true,
          "internalType": "uint32",
          "name": "depositId",
          "type": "uint32"
        },
        {
          "indexed": false,
          "internalType": "uint32",
          "name": "fillDeadline",
          "type": "uint32"
        },
        {
          "indexed": false,
          "internalType": "uint32",
          "name": "exclusivityDeadline",
          "type": "uint32"
        },
        {
          "indexed": false,
          "internalType": "address",
          "name": "exclusiveRelayer",
          "type": "address"
        },
        {
          "indexed": false,
          "internalType": "address",
          "name": "depositor",
          "type": "address"
        },
        {
          "indexed": false,
          "internalType": "address",
          "name": "recipient",
          "type": "address"
        },
        {
          "indexed": false,
          "internalType": "bytes",
          "name": "message",
          "type": "bytes"
        }
      ],
      "name": "RequestedUSSSlowFill",
      "type": "event"
    },
    {
      "anonymous": false,
      "inputs": [
        {
          "indexed": true,
          "internalType": "address",
          "name": "newHubPool",
          "type": "address"
        }
      ],
      "name": "SetHubPool",
      "type": "event"
    },
    {
      "anonymous": false,
      "inputs": [
        {
          "indexed": true,
          "internalType": "address",
          "name": "newMessageService",
          "type": "address"
        },
        {
          "indexed": false,
          "internalType": "address",
          "name": "oldMessageService",
          "type": "address"
        }
      ],
      "name": "SetL2MessageService",
      "type": "event"
    },
    {
      "anonymous": false,
      "inputs": [
        {
          "indexed": true,
          "internalType": "address",
          "name": "newTokenBridge",
          "type": "address"
        },
        {
          "indexed": false,
          "internalType": "address",
          "name": "oldTokenBridge",
          "type": "address"
        }
      ],
      "name": "SetL2TokenBridge",
      "type": "event"
    },
    {
      "anonymous": false,
      "inputs": [
        {
          "indexed": true,
          "internalType": "address",
          "name": "newUsdcBridge",
          "type": "address"
        },
        {
          "indexed": false,
          "internalType": "address",
          "name": "oldUsdcBridge",
          "type": "address"
        }
      ],
      "name": "SetL2UsdcBridge",
      "type": "event"
    },
    {
      "anonymous": false,
      "inputs": [
        {
          "indexed": true,
          "internalType": "address",
          "name": "newAdmin",
          "type": "address"
        }
      ],
      "name": "SetXDomainAdmin",
      "type": "event"
    },
    {
      "anonymous": false,
      "inputs": [
        {
          "indexed": false,
          "internalType": "uint256",
          "name": "amountToReturn",
          "type": "uint256"
        },
        {
          "indexed": true,
          "internalType": "uint256",
          "name": "chainId",
          "type": "uint256"
        },
        {
          "indexed": true,
          "internalType": "uint32",
          "name": "leafId",
          "type": "uint32"
        },
        {
          "indexed": true,
          "internalType": "address",
          "name": "l2TokenAddress",
          "type": "address"
        }
      ],
      "name": "TokensBridged",
      "type": "event"
    },
    {
      "anonymous": false,
      "inputs": [
        {
          "indexed": false,
          "internalType": "address",
          "name": "inputToken",
          "type": "address"
        },
        {
          "indexed": false,
          "internalType": "address",
          "name": "outputToken",
          "type": "address"
        },
        {
          "indexed": false,
          "internalType": "uint256",
          "name": "inputAmount",
          "type": "uint256"
        },
        {
          "indexed": false,
          "internalType": "uint256",
          "name": "outputAmount",
          "type": "uint256"
        },
        {
          "indexed": true,
          "internalType": "uint256",
          "name": "destinationChainId",
          "type": "uint256"
        },
        {
          "indexed": true,
          "internalType": "uint32",
          "name": "depositId",
          "type": "uint32"
        },
        {
          "indexed": false,
          "internalType": "uint32",
          "name": "quoteTimestamp",
          "type": "uint32"
        },
        {
          "indexed": false,
          "internalType": "uint32",
          "name": "fillDeadline",
          "type": "uint32"
        },
        {
          "indexed": false,
          "internalType": "uint32",
          "name": "exclusivityDeadline",
          "type": "uint32"
        },
        {
          "indexed": true,
          "internalType": "address",
          "name": "depositor",
          "type": "address"
        },
        {
          "indexed": false,
          "internalType": "address",
          "name": "recipient",
          "type": "address"
        },
        {
          "indexed": false,
          "internalType": "address",
          "name": "relayer",
          "type": "address"
        },
        {
          "indexed": false,
          "internalType": "bytes",
          "name": "message",
          "type": "bytes"
        }
      ],
      "name": "USSFundsDeposited",
      "type": "event"
    },
    {
      "anonymous": false,
      "inputs": [
        {
          "indexed": true,
          "internalType": "address",
          "name": "implementation",
          "type": "address"
        }
      ],
      "name": "Upgraded",
      "type": "event"
    },
    {
      "inputs": [],
      "name": "MAX_TRANSFER_SIZE",
      "outputs": [
        {
          "internalType": "uint256",
          "name": "",
          "type": "uint256"
        }
      ],
      "stateMutability": "view",
      "type": "function"
    },
    {
      "inputs": [],
      "name": "SLOW_FILL_MAX_TOKENS_TO_SEND",
      "outputs": [
        {
          "internalType": "uint256",
          "name": "",
          "type": "uint256"
        }
      ],
      "stateMutability": "view",
      "type": "function"
    },
    {
      "inputs": [],
      "name": "UPDATE_DEPOSIT_DETAILS_HASH",
      "outputs": [
        {
          "internalType": "bytes32",
          "name": "",
          "type": "bytes32"
        }
      ],
      "stateMutability": "view",
      "type": "function"
    },
    {
      "inputs": [
        {
          "internalType": "uint32",
          "name": "_initialDepositId",
          "type": "uint32"
        },
        {
          "internalType": "address",
          "name": "_crossDomainAdmin",
          "type": "address"
        },
        {
          "internalType": "address",
          "name": "_hubPool",
          "type": "address"
        }
      ],
      "name": "__SpokePool_init",
      "outputs": [],
      "stateMutability": "nonpayable",
      "type": "function"
    },
    {
      "inputs": [],
      "name": "chainId",
      "outputs": [
        {
          "internalType": "uint256",
          "name": "",
          "type": "uint256"
        }
      ],
      "stateMutability": "view",
      "type": "function"
    },
    {
      "inputs": [],
      "name": "crossDomainAdmin",
      "outputs": [
        {
          "internalType": "address",
          "name": "",
          "type": "address"
        }
      ],
      "stateMutability": "view",
      "type": "function"
    },
    {
      "inputs": [
        {
          "internalType": "address",
          "name": "recipient",
          "type": "address"
        },
        {
          "internalType": "address",
          "name": "originToken",
          "type": "address"
        },
        {
          "internalType": "uint256",
          "name": "amount",
          "type": "uint256"
        },
        {
          "internalType": "uint256",
          "name": "destinationChainId",
          "type": "uint256"
        },
        {
          "internalType": "int64",
          "name": "relayerFeePct",
          "type": "int64"
        },
        {
          "internalType": "uint32",
          "name": "quoteTimestamp",
          "type": "uint32"
        },
        {
          "internalType": "bytes",
          "name": "message",
          "type": "bytes"
        },
        {
          "internalType": "uint256",
          "name": "",
          "type": "uint256"
        }
      ],
      "name": "deposit",
      "outputs": [],
      "stateMutability": "payable",
      "type": "function"
    },
    {
      "inputs": [
        {
          "internalType": "address",
          "name": "depositor",
          "type": "address"
        },
        {
          "internalType": "address",
          "name": "recipient",
          "type": "address"
        },
        {
          "internalType": "address",
          "name": "originToken",
          "type": "address"
        },
        {
          "internalType": "uint256",
          "name": "amount",
          "type": "uint256"
        },
        {
          "internalType": "uint256",
          "name": "destinationChainId",
          "type": "uint256"
        },
        {
          "internalType": "int64",
          "name": "relayerFeePct",
          "type": "int64"
        },
        {
          "internalType": "uint32",
          "name": "quoteTimestamp",
          "type": "uint32"
        },
        {
          "internalType": "bytes",
          "name": "message",
          "type": "bytes"
        },
        {
          "internalType": "uint256",
          "name": "",
          "type": "uint256"
        }
      ],
      "name": "depositFor",
      "outputs": [],
      "stateMutability": "payable",
      "type": "function"
    },
    {
      "inputs": [
        {
          "internalType": "address",
          "name": "depositor",
          "type": "address"
        },
        {
          "internalType": "address",
          "name": "recipient",
          "type": "address"
        },
        {
          "internalType": "address",
          "name": "originToken",
          "type": "address"
        },
        {
          "internalType": "uint256",
          "name": "amount",
          "type": "uint256"
        },
        {
          "internalType": "uint256",
          "name": "destinationChainId",
          "type": "uint256"
        },
        {
          "internalType": "int64",
          "name": "relayerFeePct",
          "type": "int64"
        },
        {
          "internalType": "bytes",
          "name": "message",
          "type": "bytes"
        },
        {
          "internalType": "uint256",
          "name": "maxCount",
          "type": "uint256"
        }
      ],
      "name": "depositForNow",
      "outputs": [],
      "stateMutability": "payable",
      "type": "function"
    },
    {
      "inputs": [
        {
          "internalType": "address",
          "name": "recipient",
          "type": "address"
        },
        {
          "internalType": "address",
          "name": "originToken",
          "type": "address"
        },
        {
          "internalType": "uint256",
          "name": "amount",
          "type": "uint256"
        },
        {
          "internalType": "uint256",
          "name": "destinationChainId",
          "type": "uint256"
        },
        {
          "internalType": "int64",
          "name": "relayerFeePct",
          "type": "int64"
        },
        {
          "internalType": "bytes",
          "name": "message",
          "type": "bytes"
        },
        {
          "internalType": "uint256",
          "name": "maxCount",
          "type": "uint256"
        }
      ],
      "name": "depositNow",
      "outputs": [],
      "stateMutability": "payable",
      "type": "function"
    },
    {
      "inputs": [],
      "name": "depositQuoteTimeBuffer",
      "outputs": [
        {
          "internalType": "uint32",
          "name": "",
          "type": "uint32"
        }
      ],
      "stateMutability": "view",
      "type": "function"
    },
    {
      "inputs": [
        {
          "internalType": "address",
          "name": "depositor",
          "type": "address"
        },
        {
          "internalType": "address",
          "name": "recipient",
          "type": "address"
        },
        {
          "internalType": "address",
          "name": "inputToken",
          "type": "address"
        },
        {
          "internalType": "address",
          "name": "outputToken",
          "type": "address"
        },
        {
          "internalType": "uint256",
          "name": "inputAmount",
          "type": "uint256"
        },
        {
          "internalType": "uint256",
          "name": "outputAmount",
          "type": "uint256"
        },
        {
          "internalType": "uint256",
          "name": "destinationChainId",
          "type": "uint256"
        },
        {
          "internalType": "address",
          "name": "exclusiveRelayer",
          "type": "address"
        },
        {
          "internalType": "uint32",
          "name": "quoteTimestamp",
          "type": "uint32"
        },
        {
          "internalType": "uint32",
          "name": "fillDeadline",
          "type": "uint32"
        },
        {
          "internalType": "uint32",
          "name": "exclusivityDeadline",
          "type": "uint32"
        },
        {
          "internalType": "bytes",
          "name": "message",
          "type": "bytes"
        }
      ],
      "name": "depositUSS",
      "outputs": [],
      "stateMutability": "payable",
      "type": "function"
    },
    {
      "inputs": [
        {
          "internalType": "uint256",
          "name": "rootBundleId",
          "type": "uint256"
        }
      ],
      "name": "emergencyDeleteRootBundle",
      "outputs": [],
      "stateMutability": "nonpayable",
      "type": "function"
    },
    {
      "inputs": [
        {
          "internalType": "address",
          "name": "",
          "type": "address"
        },
        {
          "internalType": "uint256",
          "name": "",
          "type": "uint256"
        }
      ],
      "name": "enabledDepositRoutes",
      "outputs": [
        {
          "internalType": "bool",
          "name": "",
          "type": "bool"
        }
      ],
      "stateMutability": "view",
      "type": "function"
    },
    {
      "inputs": [
        {
          "internalType": "uint32",
          "name": "rootBundleId",
          "type": "uint32"
        },
        {
          "components": [
            {
              "internalType": "uint256",
              "name": "amountToReturn",
              "type": "uint256"
            },
            {
              "internalType": "uint256",
              "name": "chainId",
              "type": "uint256"
            },
            {
              "internalType": "uint256[]",
              "name": "refundAmounts",
              "type": "uint256[]"
            },
            {
              "internalType": "uint32",
              "name": "leafId",
              "type": "uint32"
            },
            {
              "internalType": "address",
              "name": "l2TokenAddress",
              "type": "address"
            },
            {
              "internalType": "address[]",
              "name": "refundAddresses",
              "type": "address[]"
            }
          ],
          "internalType": "struct SpokePoolInterface.RelayerRefundLeaf",
          "name": "relayerRefundLeaf",
          "type": "tuple"
        },
        {
          "internalType": "bytes32[]",
          "name": "proof",
          "type": "bytes32[]"
        }
      ],
      "name": "executeRelayerRefundLeaf",
      "outputs": [],
      "stateMutability": "payable",
      "type": "function"
    },
    {
      "inputs": [
        {
          "internalType": "address",
          "name": "depositor",
          "type": "address"
        },
        {
          "internalType": "address",
          "name": "recipient",
          "type": "address"
        },
        {
          "internalType": "address",
          "name": "destinationToken",
          "type": "address"
        },
        {
          "internalType": "uint256",
          "name": "amount",
          "type": "uint256"
        },
        {
          "internalType": "uint256",
          "name": "originChainId",
          "type": "uint256"
        },
        {
          "internalType": "int64",
          "name": "realizedLpFeePct",
          "type": "int64"
        },
        {
          "internalType": "int64",
          "name": "relayerFeePct",
          "type": "int64"
        },
        {
          "internalType": "uint32",
          "name": "depositId",
          "type": "uint32"
        },
        {
          "internalType": "uint32",
          "name": "rootBundleId",
          "type": "uint32"
        },
        {
          "internalType": "bytes",
          "name": "message",
          "type": "bytes"
        },
        {
          "internalType": "int256",
          "name": "payoutAdjustment",
          "type": "int256"
        },
        {
          "internalType": "bytes32[]",
          "name": "proof",
          "type": "bytes32[]"
        }
      ],
      "name": "executeSlowRelayLeaf",
      "outputs": [],
      "stateMutability": "nonpayable",
      "type": "function"
    },
    {
      "inputs": [
        {
          "internalType": "uint32",
          "name": "rootBundleId",
          "type": "uint32"
        },
        {
          "components": [
            {
              "internalType": "uint256",
              "name": "amountToReturn",
              "type": "uint256"
            },
            {
              "internalType": "uint256",
              "name": "chainId",
              "type": "uint256"
            },
            {
              "internalType": "uint256[]",
              "name": "refundAmounts",
              "type": "uint256[]"
            },
            {
              "internalType": "uint32",
              "name": "leafId",
              "type": "uint32"
            },
            {
              "internalType": "address",
              "name": "l2TokenAddress",
              "type": "address"
            },
            {
              "internalType": "address[]",
              "name": "refundAddresses",
              "type": "address[]"
            },
            {
              "internalType": "bytes32",
              "name": "fillsRefundedRoot",
              "type": "bytes32"
            },
            {
              "internalType": "string",
              "name": "fillsRefundedHash",
              "type": "string"
            }
          ],
          "internalType": "struct USSSpokePoolInterface.USSRelayerRefundLeaf",
          "name": "relayerRefundLeaf",
          "type": "tuple"
        },
        {
          "internalType": "bytes32[]",
          "name": "proof",
          "type": "bytes32[]"
        }
      ],
      "name": "executeUSSRelayerRefundLeaf",
      "outputs": [],
      "stateMutability": "payable",
      "type": "function"
    },
    {
      "inputs": [
        {
          "components": [
            {
              "components": [
                {
                  "internalType": "address",
                  "name": "depositor",
                  "type": "address"
                },
                {
                  "internalType": "address",
                  "name": "recipient",
                  "type": "address"
                },
                {
                  "internalType": "address",
                  "name": "exclusiveRelayer",
                  "type": "address"
                },
                {
                  "internalType": "address",
                  "name": "inputToken",
                  "type": "address"
                },
                {
                  "internalType": "address",
                  "name": "outputToken",
                  "type": "address"
                },
                {
                  "internalType": "uint256",
                  "name": "inputAmount",
                  "type": "uint256"
                },
                {
                  "internalType": "uint256",
                  "name": "outputAmount",
                  "type": "uint256"
                },
                {
                  "internalType": "uint256",
                  "name": "originChainId",
                  "type": "uint256"
                },
                {
                  "internalType": "uint256",
                  "name": "destinationChainId",
                  "type": "uint256"
                },
                {
                  "internalType": "uint32",
                  "name": "depositId",
                  "type": "uint32"
                },
                {
                  "internalType": "uint32",
                  "name": "fillDeadline",
                  "type": "uint32"
                },
                {
                  "internalType": "uint32",
                  "name": "exclusivityDeadline",
                  "type": "uint32"
                },
                {
                  "internalType": "bytes",
                  "name": "message",
                  "type": "bytes"
                }
              ],
              "internalType": "struct USSSpokePoolInterface.USSRelayData",
              "name": "relayData",
              "type": "tuple"
            },
            {
              "internalType": "uint256",
              "name": "updatedOutputAmount",
              "type": "uint256"
            }
          ],
          "internalType": "struct USSSpokePoolInterface.USSSlowFill",
          "name": "slowFillLeaf",
          "type": "tuple"
        },
        {
          "internalType": "uint32",
          "name": "rootBundleId",
          "type": "uint32"
        },
        {
          "internalType": "bytes32[]",
          "name": "proof",
          "type": "bytes32[]"
        }
      ],
      "name": "executeUSSSlowRelayLeaf",
      "outputs": [],
      "stateMutability": "nonpayable",
      "type": "function"
    },
    {
      "inputs": [],
      "name": "fillDeadlineBuffer",
      "outputs": [
        {
          "internalType": "uint32",
          "name": "",
          "type": "uint32"
        }
      ],
      "stateMutability": "view",
      "type": "function"
    },
    {
      "inputs": [
        {
          "internalType": "address",
          "name": "depositor",
          "type": "address"
        },
        {
          "internalType": "address",
          "name": "recipient",
          "type": "address"
        },
        {
          "internalType": "address",
          "name": "destinationToken",
          "type": "address"
        },
        {
          "internalType": "uint256",
          "name": "amount",
          "type": "uint256"
        },
        {
          "internalType": "uint256",
          "name": "maxTokensToSend",
          "type": "uint256"
        },
        {
          "internalType": "uint256",
          "name": "repaymentChainId",
          "type": "uint256"
        },
        {
          "internalType": "uint256",
          "name": "originChainId",
          "type": "uint256"
        },
        {
          "internalType": "int64",
          "name": "realizedLpFeePct",
          "type": "int64"
        },
        {
          "internalType": "int64",
          "name": "relayerFeePct",
          "type": "int64"
        },
        {
          "internalType": "uint32",
          "name": "depositId",
          "type": "uint32"
        },
        {
          "internalType": "bytes",
          "name": "message",
          "type": "bytes"
        },
        {
          "internalType": "uint256",
          "name": "maxCount",
          "type": "uint256"
        }
      ],
      "name": "fillRelay",
      "outputs": [],
      "stateMutability": "nonpayable",
      "type": "function"
    },
    {
      "inputs": [
        {
          "internalType": "address",
          "name": "depositor",
          "type": "address"
        },
        {
          "internalType": "address",
          "name": "recipient",
          "type": "address"
        },
        {
          "internalType": "address",
          "name": "updatedRecipient",
          "type": "address"
        },
        {
          "internalType": "address",
          "name": "destinationToken",
          "type": "address"
        },
        {
          "internalType": "uint256",
          "name": "amount",
          "type": "uint256"
        },
        {
          "internalType": "uint256",
          "name": "maxTokensToSend",
          "type": "uint256"
        },
        {
          "internalType": "uint256",
          "name": "repaymentChainId",
          "type": "uint256"
        },
        {
          "internalType": "uint256",
          "name": "originChainId",
          "type": "uint256"
        },
        {
          "internalType": "int64",
          "name": "realizedLpFeePct",
          "type": "int64"
        },
        {
          "internalType": "int64",
          "name": "relayerFeePct",
          "type": "int64"
        },
        {
          "internalType": "int64",
          "name": "updatedRelayerFeePct",
          "type": "int64"
        },
        {
          "internalType": "uint32",
          "name": "depositId",
          "type": "uint32"
        },
        {
          "internalType": "bytes",
          "name": "message",
          "type": "bytes"
        },
        {
          "internalType": "bytes",
          "name": "updatedMessage",
          "type": "bytes"
        },
        {
          "internalType": "bytes",
          "name": "depositorSignature",
          "type": "bytes"
        },
        {
          "internalType": "uint256",
          "name": "maxCount",
          "type": "uint256"
        }
      ],
      "name": "fillRelayWithUpdatedDeposit",
      "outputs": [],
      "stateMutability": "nonpayable",
      "type": "function"
    },
    {
      "inputs": [
        {
          "internalType": "bytes32",
          "name": "",
          "type": "bytes32"
        }
      ],
      "name": "fillStatuses",
      "outputs": [
        {
          "internalType": "uint256",
          "name": "",
          "type": "uint256"
        }
      ],
      "stateMutability": "view",
      "type": "function"
    },
    {
      "inputs": [
        {
          "components": [
            {
              "internalType": "address",
              "name": "depositor",
              "type": "address"
            },
            {
              "internalType": "address",
              "name": "recipient",
              "type": "address"
            },
            {
              "internalType": "address",
              "name": "exclusiveRelayer",
              "type": "address"
            },
            {
              "internalType": "address",
              "name": "inputToken",
              "type": "address"
            },
            {
              "internalType": "address",
              "name": "outputToken",
              "type": "address"
            },
            {
              "internalType": "uint256",
              "name": "inputAmount",
              "type": "uint256"
            },
            {
              "internalType": "uint256",
              "name": "outputAmount",
              "type": "uint256"
            },
            {
              "internalType": "uint256",
              "name": "originChainId",
              "type": "uint256"
            },
            {
              "internalType": "uint256",
              "name": "destinationChainId",
              "type": "uint256"
            },
            {
              "internalType": "uint32",
              "name": "depositId",
              "type": "uint32"
            },
            {
              "internalType": "uint32",
              "name": "fillDeadline",
              "type": "uint32"
            },
            {
              "internalType": "uint32",
              "name": "exclusivityDeadline",
              "type": "uint32"
            },
            {
              "internalType": "bytes",
              "name": "message",
              "type": "bytes"
            }
          ],
          "internalType": "struct USSSpokePoolInterface.USSRelayData",
          "name": "relayData",
          "type": "tuple"
        },
        {
          "internalType": "uint256",
          "name": "repaymentChainId",
          "type": "uint256"
        }
      ],
      "name": "fillUSSRelay",
      "outputs": [],
      "stateMutability": "nonpayable",
      "type": "function"
    },
    {
      "inputs": [],
      "name": "getCurrentTime",
      "outputs": [
        {
          "internalType": "uint256",
          "name": "",
          "type": "uint256"
        }
      ],
      "stateMutability": "view",
      "type": "function"
    },
    {
      "inputs": [],
      "name": "hubPool",
      "outputs": [
        {
          "internalType": "address",
          "name": "",
          "type": "address"
        }
      ],
      "stateMutability": "view",
      "type": "function"
    },
    {
      "inputs": [
        {
          "internalType": "uint32",
          "name": "_initialDepositId",
          "type": "uint32"
        },
        {
          "internalType": "contract IMessageService",
          "name": "_l2MessageService",
          "type": "address"
        },
        {
          "internalType": "contract ITokenBridge",
          "name": "_l2TokenBridge",
          "type": "address"
        },
        {
          "internalType": "contract IUSDCBridge",
          "name": "_l2UsdcBridge",
          "type": "address"
        },
        {
          "internalType": "address",
          "name": "_crossDomainAdmin",
          "type": "address"
        },
        {
          "internalType": "address",
          "name": "_hubPool",
          "type": "address"
        }
      ],
      "name": "initialize",
      "outputs": [],
      "stateMutability": "nonpayable",
      "type": "function"
    },
    {
      "inputs": [],
      "name": "l2MessageService",
      "outputs": [
        {
          "internalType": "contract IMessageService",
          "name": "",
          "type": "address"
        }
      ],
      "stateMutability": "view",
      "type": "function"
    },
    {
      "inputs": [],
      "name": "l2TokenBridge",
      "outputs": [
        {
          "internalType": "contract ITokenBridge",
          "name": "",
          "type": "address"
        }
      ],
      "stateMutability": "view",
      "type": "function"
    },
    {
      "inputs": [],
      "name": "l2UsdcBridge",
      "outputs": [
        {
          "internalType": "contract IUSDCBridge",
          "name": "",
          "type": "address"
        }
      ],
      "stateMutability": "view",
      "type": "function"
    },
    {
      "inputs": [
        {
          "internalType": "bytes[]",
          "name": "data",
          "type": "bytes[]"
        }
      ],
      "name": "multicall",
      "outputs": [
        {
          "internalType": "bytes[]",
          "name": "results",
          "type": "bytes[]"
        }
      ],
      "stateMutability": "nonpayable",
      "type": "function"
    },
    {
      "inputs": [],
      "name": "numberOfDeposits",
      "outputs": [
        {
          "internalType": "uint32",
          "name": "",
          "type": "uint32"
        }
      ],
      "stateMutability": "view",
      "type": "function"
    },
    {
      "inputs": [
        {
          "internalType": "bool",
          "name": "pause",
          "type": "bool"
        }
      ],
      "name": "pauseDeposits",
      "outputs": [],
      "stateMutability": "nonpayable",
      "type": "function"
    },
    {
      "inputs": [
        {
          "internalType": "bool",
          "name": "pause",
          "type": "bool"
        }
      ],
      "name": "pauseFills",
      "outputs": [],
      "stateMutability": "nonpayable",
      "type": "function"
    },
    {
      "inputs": [],
      "name": "pausedDeposits",
      "outputs": [
        {
          "internalType": "bool",
          "name": "",
          "type": "bool"
        }
      ],
      "stateMutability": "view",
      "type": "function"
    },
    {
      "inputs": [],
      "name": "pausedFills",
      "outputs": [
        {
          "internalType": "bool",
          "name": "",
          "type": "bool"
        }
      ],
      "stateMutability": "view",
      "type": "function"
    },
    {
      "inputs": [],
      "name": "proxiableUUID",
      "outputs": [
        {
          "internalType": "bytes32",
          "name": "",
          "type": "bytes32"
        }
      ],
      "stateMutability": "view",
      "type": "function"
    },
    {
      "inputs": [
        {
          "internalType": "bytes32",
          "name": "relayerRefundRoot",
          "type": "bytes32"
        },
        {
          "internalType": "bytes32",
          "name": "slowRelayRoot",
          "type": "bytes32"
        }
      ],
      "name": "relayRootBundle",
      "outputs": [],
      "stateMutability": "nonpayable",
      "type": "function"
    },
    {
      "inputs": [
        {
          "components": [
            {
              "internalType": "address",
              "name": "depositor",
              "type": "address"
            },
            {
              "internalType": "address",
              "name": "recipient",
              "type": "address"
            },
            {
              "internalType": "address",
              "name": "exclusiveRelayer",
              "type": "address"
            },
            {
              "internalType": "address",
              "name": "inputToken",
              "type": "address"
            },
            {
              "internalType": "address",
              "name": "outputToken",
              "type": "address"
            },
            {
              "internalType": "uint256",
              "name": "inputAmount",
              "type": "uint256"
            },
            {
              "internalType": "uint256",
              "name": "outputAmount",
              "type": "uint256"
            },
            {
              "internalType": "uint256",
              "name": "originChainId",
              "type": "uint256"
            },
            {
              "internalType": "uint256",
              "name": "destinationChainId",
              "type": "uint256"
            },
            {
              "internalType": "uint32",
              "name": "depositId",
              "type": "uint32"
            },
            {
              "internalType": "uint32",
              "name": "fillDeadline",
              "type": "uint32"
            },
            {
              "internalType": "uint32",
              "name": "exclusivityDeadline",
              "type": "uint32"
            },
            {
              "internalType": "bytes",
              "name": "message",
              "type": "bytes"
            }
          ],
          "internalType": "struct USSSpokePoolInterface.USSRelayData",
          "name": "relayData",
          "type": "tuple"
        }
      ],
      "name": "requestUSSSlowFill",
      "outputs": [],
      "stateMutability": "nonpayable",
      "type": "function"
    },
    {
      "inputs": [
        {
          "internalType": "uint256",
          "name": "",
          "type": "uint256"
        }
      ],
      "name": "rootBundles",
      "outputs": [
        {
          "internalType": "bytes32",
          "name": "slowRelayRoot",
          "type": "bytes32"
        },
        {
          "internalType": "bytes32",
          "name": "relayerRefundRoot",
          "type": "bytes32"
        }
      ],
      "stateMutability": "view",
      "type": "function"
    },
    {
      "inputs": [
        {
          "internalType": "address",
          "name": "newCrossDomainAdmin",
          "type": "address"
        }
      ],
      "name": "setCrossDomainAdmin",
      "outputs": [],
      "stateMutability": "nonpayable",
      "type": "function"
    },
    {
      "inputs": [
        {
          "internalType": "address",
          "name": "originToken",
          "type": "address"
        },
        {
          "internalType": "uint256",
          "name": "destinationChainId",
          "type": "uint256"
        },
        {
          "internalType": "bool",
          "name": "enabled",
          "type": "bool"
        }
      ],
      "name": "setEnableRoute",
      "outputs": [],
      "stateMutability": "nonpayable",
      "type": "function"
    },
    {
      "inputs": [
        {
          "internalType": "address",
          "name": "newHubPool",
          "type": "address"
        }
      ],
      "name": "setHubPool",
      "outputs": [],
      "stateMutability": "nonpayable",
      "type": "function"
    },
    {
      "inputs": [
        {
          "internalType": "contract IMessageService",
          "name": "_l2MessageService",
          "type": "address"
        }
      ],
      "name": "setL2MessageService",
      "outputs": [],
      "stateMutability": "nonpayable",
      "type": "function"
    },
    {
      "inputs": [
        {
          "internalType": "contract ITokenBridge",
          "name": "_l2TokenBridge",
          "type": "address"
        }
      ],
      "name": "setL2TokenBridge",
      "outputs": [],
      "stateMutability": "nonpayable",
      "type": "function"
    },
    {
      "inputs": [
        {
          "internalType": "contract IUSDCBridge",
          "name": "_l2UsdcBridge",
          "type": "address"
        }
      ],
      "name": "setL2UsdcBridge",
      "outputs": [],
      "stateMutability": "nonpayable",
      "type": "function"
    },
    {
      "inputs": [
        {
          "internalType": "address",
          "name": "depositor",
          "type": "address"
        },
        {
          "internalType": "int64",
          "name": "updatedRelayerFeePct",
          "type": "int64"
        },
        {
          "internalType": "uint32",
          "name": "depositId",
          "type": "uint32"
        },
        {
          "internalType": "address",
          "name": "updatedRecipient",
          "type": "address"
        },
        {
          "internalType": "bytes",
          "name": "updatedMessage",
          "type": "bytes"
        },
        {
          "internalType": "bytes",
          "name": "depositorSignature",
          "type": "bytes"
        }
      ],
      "name": "speedUpDeposit",
      "outputs": [],
      "stateMutability": "nonpayable",
      "type": "function"
    },
    {
      "inputs": [
        {
          "internalType": "address",
          "name": "newImplementation",
          "type": "address"
        }
      ],
      "name": "upgradeTo",
      "outputs": [],
      "stateMutability": "nonpayable",
      "type": "function"
    },
    {
      "inputs": [
        {
          "internalType": "address",
          "name": "newImplementation",
          "type": "address"
        },
        {
          "internalType": "bytes",
          "name": "data",
          "type": "bytes"
        }
      ],
      "name": "upgradeToAndCall",
      "outputs": [],
      "stateMutability": "payable",
      "type": "function"
    },
    {
      "inputs": [],
      "name": "wrappedNativeToken",
      "outputs": [
        {
          "internalType": "contract WETH9Interface",
          "name": "",
          "type": "address"
        }
      ],
      "stateMutability": "view",
      "type": "function"
    },
    {
      "stateMutability": "payable",
      "type": "receive"
    }
  ],
  "numDeployments": 6,
  "solcInputHash": "87f19b475a897b3dacdf1c44ed5605ac",
  "bytecode": "0x61010034620001c557601f62005a8d38819003918201601f19168301916001600160401b03831184841017620001ca57808492606094604052833981010312620001c55780516001600160a01b0381169190829003620001c5576200007560406200006d60208401620001e0565b9201620001e0565b913060805260a05260c05260e05260005460ff8160081c16620001705760ff8082160362000134575b60405161589a9081620001f38239608051818181610b0f01528181610e210152610fe9015260a051818181610883015281816129e1015281816131b9015281816139a001528181613b09015281816149e601528181614c7d01528181614ca40152818161506c01526152d7015260c05181818161114e0152818161297c0152613954015260e05181818161035d01526129a80152f35b60ff90811916176000557f7f26b83ff96e1f2b6a682f133852f6798a09c465da95921460cefb3847402498602060405160ff8152a1386200009e565b60405162461bcd60e51b815260206004820152602760248201527f496e697469616c697a61626c653a20636f6e747261637420697320696e697469604482015266616c697a696e6760c81b6064820152608490fd5b600080fd5b634e487b7160e01b600052604160045260246000fd5b519063ffffffff82168203620001c55756fe6080604052600436101561001b575b361561001957600080fd5b005b60003560e01c8063079bd2c71461032b5780630c2097f7146103265780631186ec331461032157806317fcb39b1461031c5780631b3d5559146103175780631dfb2d0214610312578063272751c71461030d57806329cb924d146103085780633659cfe61461030357806344b8be68146102fe578063486424b5146102f9578063493a4f84146102f45780634f1ef286146102ef5780635249fef1146102ea5780635285e058146102e557806352d1902d146102e0578063541f4f14146102db57806357f6dcb8146102d657806359c80a2d146102d15780635ceaec32146102cc5780635d467759146102c75780636068d6cb146102c2578063738b62e5146102bd5780637bf1a22e146102b85780637e688bba146102b35780638a7860ce146102ae57806391c49bf8146102a9578063979f2bc2146102a457806399cc29681461029f5780639a2e08201461029a5780639a8a059214610295578063a1244c6714610290578063a50bd1621461028b578063a78e4b6014610286578063ab2b886214610281578063ac9650d81461027c578063ae527fbb14610277578063b5e1bf5f14610272578063c35c83fc1461026d578063c5b9709c14610268578063dda5211314610263578063ddd224f11461025e578063de7eba7814610259578063e190440214610254578063e691498a1461024f578063e97adbd51461024a578063ee2a53f814610245578063f1429b5a146102405763fd7c10540361000e5761202c565b611ff7565b611fb9565b611dee565b611db9565b611d8f565b611d5f565b611d35565b611d0e565b611c0e565b611be1565b611bb6565b611b34565b611acf565b6118fd565b6118d4565b611844565b611732565b611717565b6116e2565b611664565b61158f565b611565565b6114e2565b61145f565b611338565b6112ba565b611293565b611269565b61119c565b611172565b611131565b61109a565b610fd6565b610fac565b610f4e565b610de0565b610d5d565b610cb8565b610c23565b610ae8565b610acd565b610a2d565b6109ee565b61091a565b61086d565b6107da565b610735565b610340565b600091031261033b57565b600080fd5b3461033b57600036600319011261033b57602060405163ffffffff7f0000000000000000000000000000000000000000000000000000000000000000168152f35b6001600160a01b031690565b6001600160a01b0381160361033b57565b600435906103ab8261038d565b565b602435906103ab8261038d565b604435906103ab8261038d565b606435906103ab8261038d565b35906103ab8261038d565b60a435908160070b820361033b57565b60c435908160070b820361033b57565b608435908160070b820361033b57565b61010435908160070b820361033b57565b61012435908160070b820361033b57565b61014435908160070b820361033b57565b60e4359063ffffffff8216820361033b57565b610104359063ffffffff8216820361033b57565b6004359063ffffffff8216820361033b57565b610124359063ffffffff8216820361033b57565b610164359063ffffffff8216820361033b57565b6044359063ffffffff8216820361033b57565b6024359063ffffffff8216820361033b57565b359063ffffffff8216820361033b57565b634e487b7160e01b600052604160045260246000fd5b604081019081106001600160401b0382111761050c57604052565b6104db565b6001600160401b03811161050c57604052565b60a081019081106001600160401b0382111761050c57604052565b602081019081106001600160401b0382111761050c57604052565b606081019081106001600160401b0382111761050c57604052565b60e081019081106001600160401b0382111761050c57604052565b601f909101601f19168101906001600160401b0382119082101761050c57604052565b6040519060c082016001600160401b0381118382101761050c57604052565b604051906101a082016001600160401b0381118382101761050c57604052565b6040519061010082016001600160401b0381118382101761050c57604052565b6040519061014082016001600160401b0381118382101761050c57604052565b60405190608082016001600160401b0381118382101761050c57604052565b604051906103ab82610524565b6001600160401b03811161050c57601f01601f191660200190565b81601f8201121561033b578035906106908261065e565b9261069e6040519485610590565b8284526020838301011161033b57816000926020809301838601378301015290565b6001600160401b03811161050c5760051b60200190565b81601f8201121561033b578035916106ee836106c0565b926106fc6040519485610590565b808452602092838086019260051b82010192831161033b578301905b828210610726575050505090565b81358152908301908301610718565b3461033b5761018036600319011261033b576004356107538161038d565b61075b6103ad565b906107646103ba565b61076c6103df565b926107756103ef565b61077d610442565b610785610455565b6001600160401b03969092906101243588811161033b576107aa903690600401610679565b946101643598891161033b576107c76100199936906004016106d7565b97610144359760843592606435926130b9565b61010036600319011261033b576004356107f38161038d565b602435906108008261038d565b6108086103ff565b60a4359063ffffffff8216820361033b5760c435936001600160401b03851161033b5761083c610866953690600401610679565b93610845612504565b61085860ff61086b5460e81c16156127cf565b6064359160443591336138e9565b6001606555005b3461033b57600036600319011261033b576040517f00000000000000000000000000000000000000000000000000000000000000006001600160a01b03168152602090f35b81601f8201121561033b578035916108c9836106c0565b926108d76040519485610590565b808452602092838086019260051b82010192831161033b578301905b828210610901575050505090565b838091833561090f8161038d565b8152019101906108f3565b60031960603682011261033b5761092f610469565b6001600160401b03916024359083821161033b5760c090823603011261033b576109576105b3565b908060040135825260248101356020830152604481013584811161033b5761098590600436918401016106d7565b6040830152610996606482016104ca565b60608301526109a7608482016103d4565b608083015260a48101359084821161033b5760046109c892369201016108b2565b60a082015260443592831161033b576109e86100199336906004016106d7565b916132c2565b3461033b57602036600319011261033b57610866600435610a0e8161038d565b610a1661256f565b610a1e612504565b614021565b8015150361033b57565b3461033b57606036600319011261033b57600435610a4a8161038d565b60243560443591610a5a83610a23565b610a6261256f565b610a6a612504565b60018060a01b03167f0a21fdd43d0ad0c62689ee7230a47309a050755bcc52eba00310add65297692a602060009483865261086d8252604086208587528252604086209015159060ff1981541660ff8316179055604051908152a3600160655580f35b3461033b57600036600319011261033b576020604051428152f35b3461033b57602036600319011261033b57600435610b058161038d565b6001600160a01b037f000000000000000000000000000000000000000000000000000000000000000081169190610b3e308414156120ba565b610b5b6000805160206157c5833981519152938285541614612109565b610b6361256f565b60405190610b708261053f565b600082526000805160206157658339815191525460ff1615610b985750506100199150612220565b6020600491604094939451928380926352d1902d60e01b825286165afa60009181610bf3575b50610be05760405162461bcd60e51b815280610bdc600482016121d1565b0390fd5b61001993610bee9114612173565b6122b0565b610c1591925060203d8111610c1c575b610c0d8183610590565b810190612158565b9038610bbe565b503d610c03565b3461033b5761018036600319011261033b57600435610c418161038d565b602435610c4d8161038d565b604435610c598161038d565b60e4358060070b810361033b57610c6e61040f565b610c7661047c565b61014435959092906001600160401b03871161033b57610c9d610019973690600401610679565b94610164359660c4359260a435926084359260643592612cef565b61018036600319011261033b57600435610cd18161038d565b602435610cdd8161038d565b60443590610cea8261038d565b60643591610cf78361038d565b60e435610d038161038d565b610d0b610455565b90610d1461047c565b92610144359463ffffffff8616860361033b5761016435976001600160401b03891161033b57610d4b610019993690600401610679565b9760c4359360a435936084359361290c565b3461033b57604036600319011261033b57602435600435610d7c61256f565b610d84612504565b61086c8054600160401b81101561050c5763ffffffff9160018201905583610dab82611f95565b5084600182015555167fc86ba04c55bc5eb2f2876b91c438849a296dbec7b08751c3074d92e04f0a77af600080a46001606555005b604036600319011261033b57600435610df88161038d565b6024356001600160401b03811161033b57610e17903690600401610679565b6001600160a01b037f00000000000000000000000000000000000000000000000000000000000000008116929190610e51308514156120ba565b610e6e6000805160206157c5833981519152948286541614612109565b610e7661256f565b6000805160206157658339815191525460ff1615610e9a5750506100199150612220565b6020600491604094939451928380926352d1902d60e01b825286165afa60009181610ef1575b50610ede5760405162461bcd60e51b815280610bdc600482016121d1565b61001993610eec9114612173565b61235a565b610f0a91925060203d8111610c1c57610c0d8183610590565b9038610ec0565b6001600160a01b0316600090815261086d6020526040902090565b60005261086f602052604060002090565b60005261086e602052604060002090565b3461033b57604036600319011261033b57600435610f6b8161038d565b60018060a01b031660005261086d6020526040600020602435600052602052602060ff604060002054166040519015158152f35b6001600160a01b03169052565b3461033b57600036600319011261033b57610869546040516001600160a01b039091168152602090f35b3461033b57600036600319011261033b577f00000000000000000000000000000000000000000000000000000000000000006001600160a01b03163003611034576040516000805160206157c58339815191528152602090f35b0390f35b60405162461bcd60e51b815260206004820152603860248201527f555550535570677261646561626c653a206d757374206e6f742062652063616c6044820152771b1959081d1a1c9bdd59da0819195b1959d85d1958d85b1b60421b6064820152608490fd5b61012036600319011261033b576004356110b38161038d565b6024356110bf8161038d565b604435906110cc8261038d565b6110d46103df565b60c4359163ffffffff8316830361033b5760e435946001600160401b03861161033b57611108610866963690600401610679565b94611111612504565b61112460ff61086b5460e81c16156127cf565b60843592606435926138e9565b3461033b57600036600319011261033b57602060405163ffffffff7f0000000000000000000000000000000000000000000000000000000000000000168152f35b3461033b57600036600319011261033b57610c5d546040516001600160a01b039091168152602090f35b3461033b5761020036600319011261033b576111b661039e565b6111be6103ad565b906111c76103ba565b916111d06103c7565b926111d961040f565b936111e2610420565b6111ea610431565b6111f2610490565b6001600160401b03979092906101843589811161033b57611217903690600401610679565b946101a4358a811161033b57611231903690600401610679565b966101c4359a8b1161033b5761124e6100199b3690600401610679565b986101e4359a60e4359360c4359360a4359360843593612e43565b3461033b57600036600319011261033b57610c5b546040516001600160a01b039091168152602090f35b3461033b57600036600319011261033b57602060ff61086b5460e81c166040519015158152f35b3461033b57602036600319011261033b577fe88463c2f254e2b070013a2dc7ee1e099f9bc00534cbdf03af551dc26ae4921960206004356112fa81610a23565b61130261256f565b61130a612504565b61086b805460ff60e81b191691151560e881901b60ff60e81b16929092179055604051908152a16001606555005b3461033b5760c036600319011261033b57611351610469565b6113d36024356113608161038d565b60443561136c8161038d565b6064356113788161038d565b608435916113858361038d565b60a435936113928561038d565b600054966113b760ff8960081c16158099819a611451575b8115611431575b50612478565b876113ca600160ff196000541617600055565b611418576124db565b6113d957005b6113e961ff001960005416600055565b604051600181527f7f26b83ff96e1f2b6a682f133852f6798a09c465da95921460cefb384740249890602090a1005b61142c61010061ff00196000541617600055565b6124db565b303b15915081611443575b50386113b1565b6001915060ff16143861143c565b600160ff82161091506113aa565b3461033b5760c036600319011261033b5760043561147c8161038d565b602435908160070b820361033b576114926104a4565b9160643561149f8161038d565b6001600160401b039360843585811161033b576114c0903690600401610679565b9260a43595861161033b576114dc610019963690600401610679565b9461280d565b3461033b57602036600319011261033b576004356114fe61256f565b611506612504565b61150f81611f95565b91909161154f57600191600092818480935501557f3569b846531b754c99cb80df3f49cd72fa6fe106aaee5ab8e0caf35a9d7ce88d8280a2600160655580f35b634e487b7160e01b600052600060045260246000fd5b3461033b57600036600319011261033b57610c5c546040516001600160a01b039091168152602090f35b3461033b57606036600319011261033b576100196115ab610469565b610a1e6024356115ba8161038d565b6115e0604435936115ca8561038d565b6115db60ff60005460081c1661271c565b61277c565b6040516115ec816104f1565b6009815260208101906820a1a927a9a996ab1960b91b825260405191611611836104f1565b600583526020830191640312e302e360dc1b835261163f60ff60005460081c1661163a8161271c565b61271c565b519020915190209061047f55610480556116576127a2565b61165f6127b3565b613f97565b3461033b57602036600319011261033b577f2d5b62420992e5a4afce0e77742636ca2608ef58289fd2e1baa5161ef6e7e41e60206004356116a481610a23565b6116ac61256f565b6116b4612504565b61086b805460ff60e01b191691151560e081901b60ff60e01b16929092179055604051908152a16001606555005b3461033b57602036600319011261033b576108666004356117028161038d565b61170a61256f565b611712612504565b6126cc565b3461033b57600036600319011261033b576020604051468152f35b3461033b57600036600319011261033b57602063ffffffff61086b5460c01c16604051908152f35b91906101a08382031261033b5761176f6105d2565b92611779816103d4565b8452611787602082016103d4565b6020850152611798604082016103d4565b60408501526117a9606082016103d4565b60608501526117ba608082016103d4565b608085015260a081013560a085015260c081013560c085015260e081013560e085015261010080820135908501526101206117f68183016104ca565b908501526101406118088183016104ca565b9085015261016061181a8183016104ca565b9085015261018091818301356001600160401b03811161033b5761183e9201610679565b90830152565b3461033b5760031960603682011261033b576001600160401b03906004359082821161033b57604090823603011261033b5760405190611883826104f1565b80600401359083821161033b576118a26024926004369184010161175a565b8352013560208201526118b36104b7565b60443592831161033b576118ce6100199336906004016106d7565b91613222565b3461033b57600036600319011261033b5760206040516000805160206158258339815191528152f35b3461033b57604036600319011261033b576004356001600160401b03811161033b5761192d90369060040161175a565b611935612504565b61194860ff61086b5460e01c1615612df9565b6119556040820151610381565b6001600160a01b031633141580611a0e575b6119fc576119f2904661010082015260c08101516119886020830151610381565b6119b46101808401519161199a6105b3565b948552602085019360008552604086015260608501612e34565b608083015260243560a083015281516040516119e6816119d8602082019485613019565b03601f198101835282610590565b51902090523390614eb2565b6100196001606555565b604051630c3a9b9d60e41b8152600490fd5b506101608101514263ffffffff9091161015611967565b60005b838110611a385750506000910152565b8181015183820152602001611a28565b90602091611a6181518092818552858086019101611a25565b601f01601f1916010190565b602080820190808352835180925260408301928160408460051b8301019501936000915b848310611aa15750505050505090565b9091929394958480611abf600193603f198682030187528a51611a48565b9801930193019194939290611a91565b3461033b57602036600319011261033b576001600160401b0360043581811161033b573660238201121561033b57806004013591821161033b573660248360051b8301011161033b57611030916024611b2892016156b6565b60405191829182611a6d565b60e036600319011261033b57600435611b4c8161038d565b602435611b588161038d565b611b606103ff565b60a43592906001600160401b03841161033b57611b84610866943690600401610679565b92611b8d612504565b611ba060ff61086b5460e81c16156127cf565b63ffffffff4216926064359160443591336138e9565b3461033b57600036600319011261033b576040516b1d6329f1c35ca4bfabb9f56160281b8152602090f35b3461033b57602036600319011261033b5760043560005261086f6020526020604060002054604051908152f35b60031960603682011261033b57611c23610469565b6001600160401b03916024359083821161033b5761010090823603011261033b57611c4c6105f2565b908060040135825260248101356020830152604481013584811161033b57611c7a90600436918401016106d7565b6040830152611c8b606482016104ca565b6060830152611c9c608482016103d4565b608083015260a481013584811161033b57611cbd90600436918401016108b2565b60a083015260c481013560c083015260e48101359084821161033b576004611ce89236920101610679565b60e082015260443592831161033b57611d086100199336906004016106d7565b91613588565b3461033b57600036600319011261033b57602060ff61086b5460e01c166040519015158152f35b3461033b57600036600319011261033b576040516a0c097ce7bc90715b34b9f160241b8152602090f35b3461033b57602036600319011261033b57610866600435611d7f8161038d565b611d8761256f565b61165f612504565b3461033b57600036600319011261033b5761086a546040516001600160a01b039091168152602090f35b3461033b57602036600319011261033b57610866600435611dd98161038d565b611de161256f565b611de9612504565b61267c565b3461033b57602036600319011261033b576004356001600160401b03811161033b57611e1e90369060040161175a565b611e26612504565b611e3960ff61086b5460e01c1615612df9565b610140810190611e4d825163ffffffff1690565b63ffffffff908142911610611f6d576040516020810190611e72816119d88685613019565b51902090611e7f82610f2c565b54611f5c57611eb7611eb17fe4b7a167221330bacd6975b417a1f4cb0b64a529213adee334653b69556ed95793610f2c565b60019055565b611ec46060840151610381565b93611f4f611ed56080860151610381565b60a08601519560c08101519660e082015197611f07611efc61012085015163ffffffff1690565b965163ffffffff1690565b61016084015163ffffffff1690611f216040860151610381565b92611f2c8651610381565b94610180611f3d6020890151610381565b970151976040519b8c9b169e8b61304f565b0390a36100196001606555565b604051624be79160e21b8152600490fd5b60405163d642b7d960e01b8152600490fd5b634e487b7160e01b600052603260045260246000fd5b61086c8054821015611fb4576000526003602060002091020190600090565b611f7f565b3461033b57602036600319011261033b5760043561086c5481101561033b57611fe3604091611f95565b506001815491015482519182526020820152f35b3461033b57602036600319011261033b576108666004356120178161038d565b61201f61256f565b612027612504565b61262c565b61010036600319011261033b576004356120458161038d565b602435906120528261038d565b60443561205e8161038d565b6120666103df565b60c435936001600160401b03851161033b57612089610866953690600401610679565b93612092612504565b6120a560ff61086b5460e81c16156127cf565b63ffffffff42169360843592606435926138e9565b156120c157565b60405162461bcd60e51b815260206004820152602c60248201526000805160206157a583398151915260448201526b19195b1959d85d1958d85b1b60a21b6064820152608490fd5b1561211057565b60405162461bcd60e51b815260206004820152602c60248201526000805160206157a583398151915260448201526b6163746976652070726f787960a01b6064820152608490fd5b9081602091031261033b575190565b6040513d6000823e3d90fd5b1561217a57565b60405162461bcd60e51b815260206004820152602960248201527f45524331393637557067726164653a20756e737570706f727465642070726f786044820152681a58589b195555525160ba1b6064820152608490fd5b60809060208152602e60208201527f45524331393637557067726164653a206e657720696d706c656d656e7461746960408201526d6f6e206973206e6f74205555505360901b60608201520190565b803b15612255576000805160206157c583398151915280546001600160a01b0319166001600160a01b03909216919091179055565b60405162461bcd60e51b815260206004820152602d60248201527f455243313936373a206e657720696d706c656d656e746174696f6e206973206e60448201526c1bdd08184818dbdb9d1c9858dd609a1b6064820152608490fd5b906122ba82612220565b6001600160a01b038216600080516020615805833981519152600080a2805115801590612352575b6122ea575050565b61234f91600080604051936122fe8561055a565b602785527f416464726573733a206c6f772d6c6576656c2064656c65676174652063616c6c6020860152660819985a5b195960ca1b6040860152602081519101845af461234961239b565b916123cb565b50565b5060006122e2565b9061236482612220565b6001600160a01b038216600080516020615805833981519152600080a2805115801590612393576122ea575050565b5060016122e2565b3d156123c6573d906123ac8261065e565b916123ba6040519384610590565b82523d6000602084013e565b606090565b9192901561242d57508151156123df575090565b3b156123e85790565b60405162461bcd60e51b815260206004820152601d60248201527f416464726573733a2063616c6c20746f206e6f6e2d636f6e74726163740000006044820152606490fd5b8251909150156124405750805190602001fd5b60405162461bcd60e51b815260206004820152908190610bdc906024830190611a48565b906020612475928181520190611a48565b90565b1561247f57565b60405162461bcd60e51b815260206004820152602e60248201527f496e697469616c697a61626c653a20636f6e747261637420697320616c72656160448201526d191e481a5b9a5d1a585b1a5e995960921b6064820152608490fd5b916120276103ab96610a1e611de996976115e061171296976115db60ff60005460081c1661271c565b600260655414612515576002606555565b60405162461bcd60e51b815260206004820152601f60248201527f5265656e7472616e637947756172643a207265656e7472616e742063616c6c006044820152606490fd5b9081602091031261033b57516124758161038d565b610c5b546040516333f2026760e11b8152906001600160a01b03906020908390600490829085165afa918215612627576000926125f7575b508061086954169116036125b757565b60405162461bcd60e51b81526020600482015260186024820152774f4e4c595f434f554e544552504152545f4741544557415960401b6044820152606490fd5b61261991925060203d8111612620575b6126118183610590565b81019061255a565b90386125a7565b503d612607565b612167565b610c5c80546001600160a01b039283166001600160a01b03198216811790925560405192168252907ff3dc137d2246f9b8abd0bb821e185ba01122c9b3ea3745ffca6208037674d67090602090a2565b610c5d80546001600160a01b039283166001600160a01b03198216811790925560405192168252907f6f15007ffd88f54cef03a7cb2c9feb2cb5f4880c1a7b3728678a08ab0241f66190602090a2565b610c5b80546001600160a01b039283166001600160a01b03198216811790925560405192168252907ff4afd54e7ed26702d892bb2e04050d1414c6eb040dde0e9ca2d919f423f3608790602090a2565b1561272357565b60405162461bcd60e51b815260206004820152602b60248201527f496e697469616c697a61626c653a20636f6e7472616374206973206e6f74206960448201526a6e697469616c697a696e6760a81b6064820152608490fd5b61086b805463ffffffff60c01b191660c09290921b63ffffffff60c01b16919091179055565b6103ab60ff60005460081c1661271c565b6127c860ff60005460081c1661163a8161271c565b6001606555565b156127d657565b60405162461bcd60e51b815260206004820152600f60248201526e506175736564206465706f7369747360881b6044820152606490fd5b6128af9063ffffffff7fa6aa57bd282fc82378458de27be4eadfa791a0c7321c49562eeba8b2643dd5669597969497612844612504565b6128728887838860070b9861286a6706f05b59d3b200006128648c6128fb565b106128b9565b468e89614133565b61289d604051968796875260018060a01b038093166020880152608060408801526080870190611a48565b92858403606087015216971695611a48565b0390a36001606555565b156128c057565b60405162461bcd60e51b8152602060048201526013602482015272496e76616c69642072656c617965722066656560681b6044820152606490fd5b6000808212612908575090565b0390565b96939a949799919598909299612920612504565b61086b9861293560ff8b5460e81c16156127cf565b61296261295e6129578d6129488c610f11565b90600052602052604060002090565b5460ff1690565b1590565b612b015763ffffffff9c8d61297981851642612b29565b907f00000000000000000000000000000000000000000000000000000000000000001610612aef578d6129ce817f00000000000000000000000000000000000000000000000000000000000000001642612b3b565b90851611612add576001600160a01b039a7f00000000000000000000000000000000000000000000000000000000000000008c16828b8e1680831480612ad4575b15612ac157503403612aaf57803b1561033b57600060049160405192838092630d0e30db60e41b825234905af1801561262757612a96575b505b5460c01c63ffffffff169d612a5d8f612b48565b612a669061277c565b6040519b8c9b169e169c612a7a998b612b5d565b036000805160206157e583398151915291a46103ab6001606555565b80612aa3612aa992610511565b80610330565b38612a47565b604051636452a35d60e01b8152600490fd5b612acf925030903390612bc5565b612a49565b50341515612a0f565b60405163582e388960e01b8152600490fd5b60405163f722177f60e01b8152600490fd5b604051632a58c4f360e01b8152600490fd5b634e487b7160e01b600052601160045260246000fd5b91908203918211612b3657565b612b13565b91908201809211612b3657565b63ffffffff809116908114612b365760010190565b6001600160a01b03918216815291811660208301526040820192909252606081019290925263ffffffff928316608083015292821660a0820152921660c083015291821660e08201529116610100820152610140610120820181905261247592910190611a48565b6040516323b872dd60e01b60208201526001600160a01b0392831660248201529290911660448301526064808301939093529181526103ab91612c0782610524565b604051612c5f916001600160a01b0316612c20826104f1565b6000806020958685527f5361666545524332303a206c6f772d6c6576656c2063616c6c206661696c656487860152868151910182855af161234961239b565b8051828115918215612ccf575b5050905015612c785750565b6084906040519062461bcd60e51b82526004820152602a60248201527f5361666545524332303a204552433230206f7065726174696f6e20646964206e6044820152691bdd081cdd58d8d9595960b21b6064820152fd5b838092935001031261033b57810151612ce781610a23565b808238612c6c565b9a969290989799939591612d01612504565b61086b5460e01c60ff1615612d1590612df9565b612d1d610612565b9b612d28908d612e34565b612d358a60208e01612e34565b612d429060408d01612e34565b60608b015260808a01524660a08a015260070b60c0890152600787900b60e08901526101009485890190612d7b919063ffffffff169052565b6101209581878a0152612d8c610612565b988952600060208a0190815260079890980b60408a0152612db09060608a01612e34565b608088015260a087015260c086015260e08501528301600090528201600090528151612ddb906145ad565b9052612de681614859565b612def91615490565b6103ab6001606555565b15612e0057565b60405162461bcd60e51b815260206004820152600c60248201526b5061757365642066696c6c7360a01b6044820152606490fd5b6001600160a01b039091169052565b9d9c9b959e9390928e9799939b98929b612e5b612504565b61086b5460e01c60ff1615612e6f90612df9565b612e77610612565b98612e82908a612e34565b612e8f9060208a01612e34565b612e9c9060408901612e34565b6060870152608086018890524660a087015260070b60c086015260070b60e085015263ffffffff851661010085810191909152916101209384860152612ee0610612565b948552600060208601908152600789900b6040870152949c898e60600190612f0791612e34565b8d8b608082015260a0015260c08d015260e08c01528a01600090528901600090528851612f33906145ad565b9052612f3e96614133565b612de681614859565b9061247591612f57828251610f9f565b612f6960208201516020840190610f9f565b612f7b60408201516040840190610f9f565b612f8d60608201516060840190610f9f565b612f9f60808201516080840190610f9f565b60a081015160a083015260c081015160c083015260e081015160e08301526101008082015190830152612fe0610120808301519084019063ffffffff169052565b6101408181015163ffffffff16908301526101608181015163ffffffff169083015261018080910151916101a080928201520190611a48565b906020612475928181520190612f47565b634e487b7160e01b600052602160045260246000fd5b6003111561304a57565b61302a565b6001600160a01b03918216815291811660208301526040820192909252606081019290925263ffffffff92831660808301529290911660a082015291811660c083015291821660e08201529116610100820152610140610120820181905261247592910190611a48565b9a98959391999694929097996130cd612504565b6130d6816131af565b6130de610612565b9b6130e9908d612e34565b6130f68960208e01612e34565b6131039060408d01612e34565b60608b015260808a01524660a08a015260070b60c089015260070b60e088015263ffffffff1661010087810191909152610120918083890152613144610612565b9788526020880194600086526040890160009052606089019061316691612e34565b6080880152600060a08801526b1d6329f1c35ca4bfabb9f56160281b60c088015260001960e088015260019087015285015283516131a3906145ad565b9052612f3e91836143cf565b6001600160a01b037f00000000000000000000000000000000000000000000000000000000000000008116911681146131e55750565b476131ed5750565b4790803b1561033b57600090600460405180948193630d0e30db60e41b83525af18015612627571561234f576103ab90610511565b90612def926132bd91613233612504565b602084519461324d6132486080880151610381565b6131af565b4661010087015201516132636020860151610381565b61328f610180870151916132756105b3565b978852602088019360008552604089015260608801612e34565b6080860152600060a086015284516040516132b2816119d8602082019485613019565b51902090528361451b565b615152565b916132cb612504565b60808201906132dd6132488351610381565b602083019283519261331761295e60a084019461330386519760408701988951916140a6565b84600161330f8b611f95565b500154613489565b6133cb576133be7fef58a0c572350b3e7cd0a4cb92368d9b834017a49338338f295d1a3e0535dcf4936133a461339d606086019561336261335c885163ffffffff1690565b8c6140da565b61338d8a5182518b516133798b5163ffffffff1690565b906133848b51610381565b92895194613a88565b5198519751955163ffffffff1690565b9351610381565b90519060405194859463ffffffff8091169a16988561344e565b0390a46103ab6001606555565b60405163582f497d60e11b8152600490fd5b90815180825260208080930193019160005b8281106133fd575050505090565b8351855293810193928101926001016133ef565b90815180825260208080930193019160005b828110613431575050505090565b83516001600160a01b031685529381019392810192600101613423565b90612475949261346b9183526080602084015260808301906133dd565b6001600160a01b039093166040820152808303606090910152613411565b6124759291604051613504816119d8602082019460208652805160408401526020810151606084015260a06134ce604083015160c060808701526101008601906133dd565b606083015163ffffffff168583015260808301516000196001841b011660c0860152910151838203603f190160e0850152613411565b51902091929091906000915b845183101561355d576135238386613574565b519060008282101561354b575060005260205261354560406000205b92613565565b91613510565b6040916135459382526020522061353f565b915092501490565b6000198114612b365760010190565b8051821015611fb45760209160051b010190565b91613591612504565b60808201906135a36132488351610381565b60208301928351926135dd61295e60a08401946135c986519760408701988951916140a6565b8460016135d58b611f95565b5001546136dc565b6133cb576133be7f168b5e636f384f487d11ee278507b1ff985b7dc751a0fb6ef7ad1432e8dec1da93606084019361362261361c865163ffffffff1690565b8a6140da565b61364d885182518951613639895163ffffffff1690565b906136448951610381565b92875194613a88565b61366b613664825199519851965163ffffffff1690565b9451610381565b915160e060c08301519201519260405196879663ffffffff8091169c169a879290936136ac6136c9936124759896865260c0602087015260c08601906133dd565b6001600160a01b0390921660408501528382036060850152613411565b92608082015260a0818403910152611a48565b6124759291604051613504816119d8602082019460208652805160408401526020810151606084015260408101519060e0613725610100938460808801526101408701906133dd565b606083015163ffffffff1660a087015291613748608082015160c0880190610f9f565b61376360a082015193603f19948589830301858a0152613411565b9360c08201519087015201519084830301610120850152611a48565b1561378657565b60405162461bcd60e51b815260206004820152600e60248201526d44697361626c656420726f75746560901b6044820152606490fd5b156137c357565b60405162461bcd60e51b815260206004820152601060248201526f416d6f756e7420746f6f206c6172676560801b6044820152606490fd5b1561380257565b60405162461bcd60e51b81526020600482015260166024820152750696e76616c69642071756f746554696d657374616d760541b6044820152606490fd5b1561384757565b60405162461bcd60e51b815260206004820152601b60248201527a1b5cd9cb9d985b1d59481b5d5cdd081b585d18da08185b5bdd5b9d602a1b6044820152606490fd5b93909261247596959260018060a01b038095168652600060208701526040860152606085015263ffffffff809116608085015260a0840152600060c08401521660e0820152600061010082015261014090816101208201520190611a48565b9195969394929092613909613904612957886129488b610f11565b61377f565b60070b936139226706f05b59d3b20000612864876128fb565b61393c6a0c097ce7bc90715b34b9f160241b8311156137bc565b63ffffffff9361397b613951868b1642612b29565b867f00000000000000000000000000000000000000000000000000000000000000001610156137fb565b61086b5460c01c63ffffffff16986139956115db8b612b48565b6001600160a01b03957f00000000000000000000000000000000000000000000000000000000000000008716948a881680871480613a7f575b15613a5457506139df813414613840565b853b1561033b57600060049660405197888092630d0e30db60e41b825234905af18015612627576000805160206157e583398151915299613a3c97613a2b92613a41575b505b82614576565b91604051988998169c169a8761388a565b0390a4565b80612aa3613a4e92610511565b38613a23565b613a3c96506000805160206157e583398151915299613a7a83613a2b9330903390612bc5565b613a25565b503415156139ce565b929190939481519160005b838110613e2a575050505082613aaa575b50505050565b610c5b90613ac0613abb8354610381565b610381565b906040928351808094638994588360e01b8252602092839160049788915afa801561262757613afa91600091613e0d575b50341015613ec1565b6001600160a01b0388811698907f000000000000000000000000000000000000000000000000000000000000000081168a03613c8a57505050863b1561033b57835190632e1a7d4d60e01b825260008280613b5c8a8883019190602083019252565b0381838c5af190811561262757613b7d92613abb92613c77575b5054610381565b91613b883487612b3b565b90613b9561086a54610381565b93803b1561033b578551634f9e72ad60e11b81526001600160a01b039095169185019182523460208301526060604083018190526000908301819052928592839190829060800103925af18015612627576000805160206158458339815191529363ffffffff93613c5892613c64575b505b877f6b586bc6fa39c7102331e79907a18b84ebbed7742125b742dd5ecc6620502fac88613c3661086a54610381565b613c44855192839283613e71565b0390a2519283921695829190602083019252565b0390a438808080613aa4565b80612aa3613c7192610511565b38613c05565b80612aa3613c8492610511565b38613b76565b90919250610c5d928581613ca1613abb8754610381565b8951631f209df760e11b815292839182905afa91821561262757600092613df0575b5050168803613d7b5750613abb81613ceb88613ce5613abb613cf19654610381565b8b613f03565b54610381565b91613cfe61086a54610381565b833b1561033b5784516370aff70f60e01b81529182018781526001600160a01b0390911660208201529092600091849190829081906040015b039134905af18015612627576000805160206158458339815191529363ffffffff93613c5892613d68575b50613c07565b80612aa3613d7592610511565b38613d62565b9050613d9d613abb610c5c613ceb89613d97613abb8454610381565b8c613f03565b92613daa61086a54610381565b93803b1561033b578551632917540d60e11b81526001600160a01b0393841692810192835260208301899052949092166040820152600091849182908190606001613d37565b613e069250803d10612620576126118183610590565b3880613cc3565b613e249150833d8511610c1c57610c0d8183610590565b38613af1565b80613e38613e459284613574565b5180613e4a575b50613565565b613a93565b613e6b906001600160a01b0380613e618589613574565b5116908c16613e8c565b38613e3f565b6001600160a01b039091168152602081019190915260400190565b612c076103ab9392613eb360405194859263a9059cbb60e01b602085015260248401613e71565b03601f198101845283610590565b15613ec857565b60405162461bcd60e51b81526020600482015260136024820152724d4553534147455f4645455f544f4f5f4c4f5760681b6044820152606490fd5b604051636eb1769f60e11b81523060048201526001600160a01b038084166024830152929390926020908490604490829086165afa92831561262757600093613f77575b508201809211612b3657612c076103ab93613eb360405194859263095ea7b360e01b602085015260248401613e71565b613f9091935060203d8111610c1c57610c0d8183610590565b9138613f47565b6001600160a01b03168015613fe05761086980546001600160a01b031916821790557fa9e8c42c9e7fca7f62755189a16b2f5314d43d8fb24e91ba54e6d65f9314e849600080a2565b60405162461bcd60e51b81526020600482015260196024820152784261642062726964676520726f75746572206164647265737360381b6044820152606490fd5b6001600160a01b0316801561406a5761086a80546001600160a01b031916821790557f1f17a88f67b0f49060a34bec1a4723a563620e6aa265eb640b5046dcee0759a0600080a2565b60405162461bcd60e51b81526020600482015260146024820152734261642068756220706f6f6c206164647265737360601b6044820152606490fd5b46036140c857519051036140b657565b6040516319a5316760e31b8152600490fd5b604051633d23e4d160e11b8152600490fd5b6140e5600291611f95565b500162ffffff8260081c168060005281602052600160ff60406000205494161b8080941614614121576000526020526040600020908154179055565b60405163954476d960e01b8152600490fd5b93926042936103ab979660208151910120906040519263ffffffff6020850195600080516020615825833981519152875216604085015285606085015260070b608084015260018060a01b031660a083015260c082015260c0815261419781610575565b5190209061047f549061048054906040519160208301937fc2f8787176b8ac6bf7215b4adcc1e069bf4ab82d9ab1df05a57a91d425935b6e8552604084015260608301526080820152608081526141ed81610524565b519020906040519161190160f01b835260028301526022820152209061424e565b1561421557565b60405162461bcd60e51b8152602060048201526011602482015270696e76616c6964207369676e617475726560781b6044820152606490fd5b919061425a828261431f565b939092600585101561304a576103ab94159384614309575b508315614282575b50505061420e565b60009293509082916040516142bb816119d86020820194630b135d3f60e11b998a87526024840152604060448401526064830190611a48565b51915afa906142c861239b565b826142fb575b826142de575b505038808061427a565b6142f391925060208082518301019101612158565b1438806142d4565b9150602082511015916142ce565b6001600160a01b03838116911614935038614272565b90604181511460001461434d57614349916020820151906060604084015193015160001a90614357565b9091565b5050600090600290565b9291906fa2a8918ca85bafe22016d0b997e4df60600160ff1b0383116143c35791608094939160ff602094604051948552168484015260408301526060820152600093849182805260015afa156126275781516001600160a01b038116156143bd579190565b50600190565b50505050600090600390565b9061443992916143fc610120825192015192604051926143ee846104f1565b835260208301938452611f95565b5054916135046040518092614424602083019560208752516040808501526080840190614480565b9051606083015203601f198101835282610590565b1561444057565b60405162461bcd60e51b815260206004820152601860248201527724b73b30b634b21039b637bb903932b630bc90383937b7b360411b6044820152606490fd5b9061247591614490828251610f9f565b6144a260208201516020840190610f9f565b6144b460408201516040840190610f9f565b606081015160608301526080810151608083015260a081015160a08301526144e660c082015160c084019060070b9052565b60e08181015160070b908301526101008181015163ffffffff1690830152610120809101519161014080928201520190611a48565b9161455e918351614538604080960151928651926143ee846104f1565b50549161350486518092614424602083019560208752518a808501526080840190612f47565b156145665750565b5163582f497d60e11b8152600490fd5b90670de0b6b3a7640000916000828403921283831281169084841390151617612b3657818102918183041490151715612b36570490565b6040516145ca816119d86020820194602086526040830190614480565b51902090565b156145d757565b60405162461bcd60e51b815260206004820152600c60248201526b696e76616c6964206665657360a01b6044820152606490fd5b1561461257565b60405162461bcd60e51b815260206004820152600c60248201526b1c995b185e48199a5b1b195960a21b6044820152606490fd5b600791820b910b019060016001603f1b0319821260016001603f1b03831317612b3657565b1561467257565b60405162461bcd60e51b8152602060048201526019602482015278066696c6c20616d6f756e74207072652066656573206973203603c1b6044820152606490fd5b156146ba57565b60405162461bcd60e51b815260206004820152601d60248201527f7061796f757441646a7573746d656e7450637420746f6f20736d616c6c0000006044820152606490fd5b1561470657565b60405162461bcd60e51b815260206004820152601d60248201527f7061796f757441646a7573746d656e7450637420746f6f206c617267650000006044820152606490fd5b600160ff1b8114612b365760000390565b1561476357565b60405162461bcd60e51b815260206004820152601c60248201527b536f6d65686f7720686974206d6178546f6b656e73546f53656e642160201b6044820152606490fd5b156147ae57565b60405162461bcd60e51b815260206004820152601760248201527634b73b30b634b2103932b830bcb6b2b73a1031b430b4b760491b6044820152606490fd5b90612475949360a093600180861b0380931684526020840152600160408401521660608201528160808201520190611a48565b6001600160a01b039182168152602081019290925291151560408201529116606082015260a06080820181905261247592910190611a48565b9081519160408101926148996706f05b59d3b200008061488b614886614880895160070b90565b60070b90565b6128fb565b109081614bf4575b506145d0565b606081016148b86a0c097ce7bc90715b34b9f160241b825111156137bc565b60208301906148d36148ca8351610f3d565b5482511161460b565b60c084019283519661490360c08301986148fd6148f18b5160070b90565b845160070b5b90614646565b90614c11565b9761490f89151561466b565b614925845161491e8751610f3d565b5490612b29565b898110614bea575b50614880614954926148f761494661494e945160070b90565b915160070b90565b88614576565b936101208601805180614b95575b50505060a08501518786519160a083015114918215614b87575b50508015614b6e575b61498e906147a7565b6149988351610f3d565b6149a3888254612b3b565b905560608501916149b48351610381565b926001600160a01b0392338486161480614b57575b614b4d57906040614a4292019487856149e28851610381565b16917f000000000000000000000000000000000000000000000000000000000000000087168303614b0457505050614a2161295e6101008a0151151590565b614ae5575b614a3c87614a37613abb8451610381565b614c62565b51610381565b91823b151580614ad7575b614a5b575b50505050505050565b614a6d614a7491608094169451610381565b9451610f3d565b549051111594015193813b1561033b5760008094614aaa604051978896879586946301d43f2760e31b8652339260048701614820565b03925af1801561262757614ac4575b808080808080614a52565b80612aa3614ad192610511565b38614ab9565b506080870151511515614a4d565b614aff87614af6613abb8851610381565b30903390612bc5565b614a26565b614b1561295e6101008d0151151590565b15614b445750614b3f9150614b2d613abb8851610381565b614b378451610381565b903390612bc5565b614a3c565b614b3f92613e8c565b5050505050505050565b50614b6961295e6101008a0151151590565b6149c9565b5061498e614b80610100870151151590565b9050614985565b60600151149050873861497c565b95614bd2614bd892614bb6614be29599670de0b6b3a763ffff1913156146b3565b614bcc68056bc75e2d63100000825113156146ff565b5161474b565b90614576565b945185111561475c565b388080614962565b985061488061492d565b9050614c0a61488661488060c086015160070b90565b1038614893565b670de0b6b3a7640000918183029183830403612b365760070b808303926000821281851281169082861390151617612b365714614c4c570490565b634e487b7160e01b600052601260045260246000fd5b6001600160a01b0390811690813b15614ca257906103ab92917f000000000000000000000000000000000000000000000000000000000000000016613e8c565b7f00000000000000000000000000000000000000000000000000000000000000001691823b1561033b576040518093632e1a7d4d60e01b82528260048301528160246000968780945af1801561262757614dc4575b50804710614d7f578280929181925af1614d0f61239b565b5015614d1757565b60405162461bcd60e51b815260206004820152603a60248201527f416464726573733a20756e61626c6520746f2073656e642076616c75652c20726044820152791958da5c1a595b9d081b585e481a185d99481c995d995c9d195960321b6064820152608490fd5b60405162461bcd60e51b815260206004820152601d60248201527f416464726573733a20696e73756666696369656e742062616c616e63650000006044820152606490fd5b614dcd90610511565b38614cf7565b614ddc82613040565b52565b9060018060a01b038251168152606080614e086020850151608060208601526080850190611a48565b9360408101516040850152015191614e1f83613040565b015290565b9a97919296614e8695614ea39a9560606124759f9d99948f909b614e919c60018060a01b03998a80921684521660208301526040820152015260808d015263ffffffff80921660a08d01521660c08b01521660e0890152610100880190610f9f565b610120860190610f9f565b61018080610140860152840190611a48565b91610160818403910152614ddf565b805191610140830190614ec9825163ffffffff1690565b63ffffffff42911610611f6d5760208301516001614ee682610f2c565b546000910361514c57506001905b6002614eff82610f2c565b541461513a57614f0e90610f2c565b600290556060850151614f2090610381565b6080860151614f2e90610381565b9260a0870151918660c0890151948960a08301519660e082015197610120830151614f5c9063ffffffff1690565b9a5163ffffffff1661016084015163ffffffff16906040850151614f7f90610381565b928551614f8b90610381565b946020870151614f9a90610381565b9661018001519760608a0151614faf90610381565b996080810151906040015190614fc3610632565b9b614fce908d612e34565b60208c015260408b0152614fe59060608b01614dd3565b6040516001600160a01b03909b169e63ffffffff169d9a9b8c9b6150099b8d614e24565b0360008051602061578583398151915291a4606081015161502990610381565b6001600160a01b0381169233841480615132575b613aa457608061504e910151610381565b6040830151909390926080906001600160a01b0380871690869086907f000000000000000000000000000000000000000000000000000000000000000016830361512257506150a09130903390612bc5565b6150aa8584614c62565b0151913b151580615118575b6150c05750505050565b803b1561033b576150ee9360008094604051968795869485936301d43f2760e31b85523391600486016147ed565b03925af1801561262757615105575b808080613aa4565b80612aa361511292610511565b386150fd565b50815115156150b6565b61512d923390612bc5565b6150aa565b50600161503d565b604051630479306360e51b8152600490fd5b90614ef4565b9060008251610140810161516a815163ffffffff1690565b63ffffffff42911610611f6d57602085015190600261518883610f2c565b541461513a576151988492610f2c565b6002905560608301516151aa90610381565b60808401516151b890610381565b9160a08501519060c0860151928960a0810151948860e0810151966101208201516151e69063ffffffff1690565b955163ffffffff1661016083015163ffffffff16604084015161520890610381565b91845161521490610381565b93602086015161522390610381565b95610180015196606089015161523890610381565b98608081015190604001519061524c610632565b9a615257908c612e34565b60208b015260408a0152600260608a01526040519b63ffffffff8d9c169e61527f9b8d614e24565b0360008051602061578583398151915291a4606084015161529f90610381565b6001600160a01b039490918583169190338314806153c5575b6153bc5760806152c9910151610381565b9060408101519687818416917f00000000000000000000000000000000000000000000000000000000000000001682146000146153a957906080929187615395575b615316915085614c62565b0151923b15158061538b575b61532f575b505050509050565b813b15615387578361535b9596604051968795869485936301d43f2760e31b85523391600486016147ed565b03925af1801561262757615374575b8080808493615327565b80612aa361538192610511565b3861536a565b8380fd5b5082511515615322565b6153a29130903390612bc5565b388861530b565b6153b7908660809493613e8c565b615316565b50505050509050565b50846152b8565b9060018060a01b0382511681526080806153f5602085015160a0602086015260a0850190611a48565b93604081015160070b6040850152606081015115156060850152015191015290565b9a979491926124759c9a96936154819a9895928d5260208d015260408c015260608b015260808a015260070b60a089015260070b60c088015260018060a01b03928380921660e0890152166101008701521661012085015261018080610140860152840190611a48565b916101608184039101526153cc565b9060408201516154a09060070b90565b9160608101516154af90610381565b9060808101519361010094858301516154c790151590565b6101209283850151926154d8610651565b966154e39088612e34565b602087015260070b6040860152151560608501526080840152815160600151602083015161551090610f3d565b549360a084015193519460808601519560a08101519160e08201516155359060070b90565b60c083015160070b9a83015163ffffffff169a604084015161555690610381565b91845161556290610381565b98602086015161557190610381565b950151956040519a8b9a600160a01b60019003169e63ffffffff169d33966155999b8d615417565b037f8ab9dc6c19fe88e69bc70221b339c84332752fdd49591b7c51e66bae3947b73c91a4565b906155c9826106c0565b6155d66040519182610590565b82815280926155e7601f19916106c0565b019060005b8281106155f857505050565b8060606020809385010152016155ec565b9190811015611fb45760051b81013590601e198136030182121561033b5701803591906001600160401b03831161033b57602001823603811361033b579190565b908092918237016000815290565b60208183031261033b578051906001600160401b03821161033b570181601f8201121561033b57805161568a8161065e565b926156986040519485610590565b8184526020828401011161033b576124759160208085019101611a25565b9190916156c2836155bf565b9260005b8181106156d257505050565b6000806156e0838587615609565b604093916156f285518093819361564a565b0390305af49061570061239b565b9182901561572957505090615724916157198288613574565b52613e3f8187613574565b6156c6565b6044839293511061033b5761574f610bdc91600480940160248091518301019101615658565b925162461bcd60e51b8152928392830161246456fe4910fdfa16fed3260ed0e7147f7cc6da11a60208b5b9406d12a635614ffd914332cb2beef51cc3e8592639aa435309d1087da595cff201a7640ce5c2187d719746756e6374696f6e206d7573742062652063616c6c6564207468726f75676820360894a13ba1a3210667c828492db98dca3e2076cc3735a920a3ca505d382bbcc289887301839694cf27e1d254c3b54c9bba4824f29bba3a63c2c138e7e4e181bc7cd75a20ee27fd9adebab32041f755214dbc6bffa90cc0225b39da2e5c2d3b0e058f05b73c62ee68329d2c67c067aaae9a06503cc306378d144d0f0177882b7c3d4d7fa0beeb997103f1aeca4922365ea469a3e7e88db965a128bbe6a2f632a264697066735822122024055c6af3c9b0c7af675a0675368cd0af7b14d01106f978c71afa646aa1b44564736f6c63430008130033"
}