{
  "address": "0x7B2Ad09Bd985F614015f9E6a5a2cf0616CF3edC9",
  "abi": [
    {
      "inputs": [
        {
          "internalType": "address",
          "name": "_wrappedNativeTokenAddress",
          "type": "address"
        },
        {
          "internalType": "uint32",
          "name": "_depositQuoteTimeBuffer",
          "type": "uint32"
        },
        {
          "internalType": "uint32",
          "name": "_fillDeadlineBuffer",
          "type": "uint32"
        }
      ],
      "stateMutability": "nonpayable",
      "type": "constructor"
    },
    {
      "inputs": [],
      "name": "ClaimedMerkleLeaf",
      "type": "error"
    },
    {
      "inputs": [],
      "name": "DisabledRoute",
      "type": "error"
    },
    {
      "inputs": [],
      "name": "ExpiredFillDeadline",
      "type": "error"
    },
    {
      "inputs": [],
      "name": "InvalidChainId",
      "type": "error"
    },
    {
      "inputs": [],
      "name": "InvalidFillDeadline",
      "type": "error"
    },
    {
      "inputs": [],
      "name": "InvalidMerkleLeaf",
      "type": "error"
    },
    {
      "inputs": [],
      "name": "InvalidMerkleProof",
      "type": "error"
    },
    {
      "inputs": [],
      "name": "InvalidPayoutAdjustmentPct",
      "type": "error"
    },
    {
      "inputs": [],
      "name": "InvalidQuoteTimestamp",
      "type": "error"
    },
    {
      "inputs": [],
      "name": "InvalidSlowFillRequest",
      "type": "error"
    },
    {
      "inputs": [],
      "name": "MsgValueDoesNotMatchInputAmount",
      "type": "error"
    },
    {
      "inputs": [],
      "name": "NotExclusiveRelayer",
      "type": "error"
    },
    {
      "inputs": [],
      "name": "RelayFilled",
      "type": "error"
    },
    {
      "anonymous": false,
      "inputs": [
        {
          "indexed": false,
          "internalType": "address",
          "name": "previousAdmin",
          "type": "address"
        },
        {
          "indexed": false,
          "internalType": "address",
          "name": "newAdmin",
          "type": "address"
        }
      ],
      "name": "AdminChanged",
      "type": "event"
    },
    {
      "anonymous": false,
      "inputs": [
        {
          "indexed": true,
          "internalType": "address",
          "name": "beacon",
          "type": "address"
        }
      ],
      "name": "BeaconUpgraded",
      "type": "event"
    },
    {
      "anonymous": false,
      "inputs": [
        {
          "indexed": true,
          "internalType": "uint256",
          "name": "rootBundleId",
          "type": "uint256"
        }
      ],
      "name": "EmergencyDeleteRootBundle",
      "type": "event"
    },
    {
      "anonymous": false,
      "inputs": [
        {
          "indexed": true,
          "internalType": "address",
          "name": "originToken",
          "type": "address"
        },
        {
          "indexed": true,
          "internalType": "uint256",
          "name": "destinationChainId",
          "type": "uint256"
        },
        {
          "indexed": false,
          "internalType": "bool",
          "name": "enabled",
          "type": "bool"
        }
      ],
      "name": "EnabledDepositRoute",
      "type": "event"
    },
    {
      "anonymous": false,
      "inputs": [
        {
          "indexed": false,
          "internalType": "uint256",
          "name": "amountToReturn",
          "type": "uint256"
        },
        {
          "indexed": true,
          "internalType": "uint256",
          "name": "chainId",
          "type": "uint256"
        },
        {
          "indexed": false,
          "internalType": "uint256[]",
          "name": "refundAmounts",
          "type": "uint256[]"
        },
        {
          "indexed": true,
          "internalType": "uint32",
          "name": "rootBundleId",
          "type": "uint32"
        },
        {
          "indexed": true,
          "internalType": "uint32",
          "name": "leafId",
          "type": "uint32"
        },
        {
          "indexed": false,
          "internalType": "address",
          "name": "l2TokenAddress",
          "type": "address"
        },
        {
          "indexed": false,
          "internalType": "address[]",
          "name": "refundAddresses",
          "type": "address[]"
        }
      ],
      "name": "ExecutedRelayerRefundRoot",
      "type": "event"
    },
    {
      "anonymous": false,
      "inputs": [
        {
          "indexed": false,
          "internalType": "uint256",
          "name": "amountToReturn",
          "type": "uint256"
        },
        {
          "indexed": true,
          "internalType": "uint256",
          "name": "chainId",
          "type": "uint256"
        },
        {
          "indexed": false,
          "internalType": "uint256[]",
          "name": "refundAmounts",
          "type": "uint256[]"
        },
        {
          "indexed": true,
          "internalType": "uint32",
          "name": "rootBundleId",
          "type": "uint32"
        },
        {
          "indexed": true,
          "internalType": "uint32",
          "name": "leafId",
          "type": "uint32"
        },
        {
          "indexed": false,
          "internalType": "address",
          "name": "l2TokenAddress",
          "type": "address"
        },
        {
          "indexed": false,
          "internalType": "address[]",
          "name": "refundAddresses",
          "type": "address[]"
        },
        {
          "indexed": false,
          "internalType": "bytes32",
          "name": "fillsRefundedRoot",
          "type": "bytes32"
        },
        {
          "indexed": false,
          "internalType": "string",
          "name": "fillsRefundedIpfsHash",
          "type": "string"
        }
      ],
      "name": "ExecutedUSSRelayerRefundRoot",
      "type": "event"
    },
    {
      "anonymous": false,
      "inputs": [
        {
          "indexed": false,
          "internalType": "uint256",
          "name": "amount",
          "type": "uint256"
        },
        {
          "indexed": false,
          "internalType": "uint256",
          "name": "totalFilledAmount",
          "type": "uint256"
        },
        {
          "indexed": false,
          "internalType": "uint256",
          "name": "fillAmount",
          "type": "uint256"
        },
        {
          "indexed": false,
          "internalType": "uint256",
          "name": "repaymentChainId",
          "type": "uint256"
        },
        {
          "indexed": true,
          "internalType": "uint256",
          "name": "originChainId",
          "type": "uint256"
        },
        {
          "indexed": false,
          "internalType": "uint256",
          "name": "destinationChainId",
          "type": "uint256"
        },
        {
          "indexed": false,
          "internalType": "int64",
          "name": "relayerFeePct",
          "type": "int64"
        },
        {
          "indexed": false,
          "internalType": "int64",
          "name": "realizedLpFeePct",
          "type": "int64"
        },
        {
          "indexed": true,
          "internalType": "uint32",
          "name": "depositId",
          "type": "uint32"
        },
        {
          "indexed": false,
          "internalType": "address",
          "name": "destinationToken",
          "type": "address"
        },
        {
          "indexed": false,
          "internalType": "address",
          "name": "relayer",
          "type": "address"
        },
        {
          "indexed": true,
          "internalType": "address",
          "name": "depositor",
          "type": "address"
        },
        {
          "indexed": false,
          "internalType": "address",
          "name": "recipient",
          "type": "address"
        },
        {
          "indexed": false,
          "internalType": "bytes",
          "name": "message",
          "type": "bytes"
        },
        {
          "components": [
            {
              "internalType": "address",
              "name": "recipient",
              "type": "address"
            },
            {
              "internalType": "bytes",
              "name": "message",
              "type": "bytes"
            },
            {
              "internalType": "int64",
              "name": "relayerFeePct",
              "type": "int64"
            },
            {
              "internalType": "bool",
              "name": "isSlowRelay",
              "type": "bool"
            },
            {
              "internalType": "int256",
              "name": "payoutAdjustmentPct",
              "type": "int256"
            }
          ],
          "indexed": false,
          "internalType": "struct SpokePool.RelayExecutionInfo",
          "name": "updatableRelayData",
          "type": "tuple"
        }
      ],
      "name": "FilledRelay",
      "type": "event"
    },
    {
      "anonymous": false,
      "inputs": [
        {
          "indexed": false,
          "internalType": "address",
          "name": "inputToken",
          "type": "address"
        },
        {
          "indexed": false,
          "internalType": "address",
          "name": "outputToken",
          "type": "address"
        },
        {
          "indexed": false,
          "internalType": "uint256",
          "name": "inputAmount",
          "type": "uint256"
        },
        {
          "indexed": false,
          "internalType": "uint256",
          "name": "outputAmount",
          "type": "uint256"
        },
        {
          "indexed": false,
          "internalType": "uint256",
          "name": "repaymentChainId",
          "type": "uint256"
        },
        {
          "indexed": true,
          "internalType": "uint256",
          "name": "originChainId",
          "type": "uint256"
        },
        {
          "indexed": true,
          "internalType": "uint32",
          "name": "depositId",
          "type": "uint32"
        },
        {
          "indexed": false,
          "internalType": "uint32",
          "name": "fillDeadline",
          "type": "uint32"
        },
        {
          "indexed": false,
          "internalType": "uint32",
          "name": "exclusivityDeadline",
          "type": "uint32"
        },
        {
          "indexed": false,
          "internalType": "address",
          "name": "exclusiveRelayer",
          "type": "address"
        },
        {
          "indexed": true,
          "internalType": "address",
          "name": "relayer",
          "type": "address"
        },
        {
          "indexed": false,
          "internalType": "address",
          "name": "depositor",
          "type": "address"
        },
        {
          "indexed": false,
          "internalType": "address",
          "name": "recipient",
          "type": "address"
        },
        {
          "indexed": false,
          "internalType": "bytes",
          "name": "message",
          "type": "bytes"
        },
        {
          "components": [
            {
              "internalType": "address",
              "name": "updatedRecipient",
              "type": "address"
            },
            {
              "internalType": "bytes",
              "name": "updatedMessage",
              "type": "bytes"
            },
            {
              "internalType": "uint256",
              "name": "updatedOutputAmount",
              "type": "uint256"
            },
            {
              "internalType": "enum USSSpokePoolInterface.FillType",
              "name": "fillType",
              "type": "uint8"
            }
          ],
          "indexed": false,
          "internalType": "struct USSSpokePoolInterface.USSRelayExecutionEventInfo",
          "name": "relayExecutionInfo",
          "type": "tuple"
        }
      ],
      "name": "FilledUSSRelay",
      "type": "event"
    },
    {
      "anonymous": false,
      "inputs": [
        {
          "indexed": false,
          "internalType": "uint8",
          "name": "version",
          "type": "uint8"
        }
      ],
      "name": "Initialized",
      "type": "event"
    },
    {
      "anonymous": false,
      "inputs": [
        {
          "indexed": true,
          "internalType": "address",
          "name": "l2Token",
          "type": "address"
        },
        {
          "indexed": false,
          "internalType": "address",
          "name": "target",
          "type": "address"
        },
        {
          "indexed": false,
          "internalType": "uint256",
          "name": "numberOfTokensBridged",
          "type": "uint256"
        }
      ],
      "name": "LineaTokensBridged",
      "type": "event"
    },
    {
      "anonymous": false,
      "inputs": [
        {
          "indexed": false,
          "internalType": "bool",
          "name": "isPaused",
          "type": "bool"
        }
      ],
      "name": "PausedDeposits",
      "type": "event"
    },
    {
      "anonymous": false,
      "inputs": [
        {
          "indexed": false,
          "internalType": "bool",
          "name": "isPaused",
          "type": "bool"
        }
      ],
      "name": "PausedFills",
      "type": "event"
    },
    {
      "anonymous": false,
      "inputs": [
        {
          "indexed": true,
          "internalType": "address",
          "name": "relayer",
          "type": "address"
        },
        {
          "indexed": false,
          "internalType": "address",
          "name": "refundToken",
          "type": "address"
        },
        {
          "indexed": false,
          "internalType": "uint256",
          "name": "amount",
          "type": "uint256"
        },
        {
          "indexed": true,
          "internalType": "uint256",
          "name": "originChainId",
          "type": "uint256"
        },
        {
          "indexed": false,
          "internalType": "uint256",
          "name": "destinationChainId",
          "type": "uint256"
        },
        {
          "indexed": false,
          "internalType": "int64",
          "name": "realizedLpFeePct",
          "type": "int64"
        },
        {
          "indexed": true,
          "internalType": "uint32",
          "name": "depositId",
          "type": "uint32"
        },
        {
          "indexed": false,
          "internalType": "uint256",
          "name": "fillBlock",
          "type": "uint256"
        },
        {
          "indexed": false,
          "internalType": "uint256",
          "name": "previousIdenticalRequests",
          "type": "uint256"
        }
      ],
      "name": "RefundRequested",
      "type": "event"
    },
    {
      "anonymous": false,
      "inputs": [
        {
          "indexed": true,
          "internalType": "uint32",
          "name": "rootBundleId",
          "type": "uint32"
        },
        {
          "indexed": true,
          "internalType": "bytes32",
          "name": "relayerRefundRoot",
          "type": "bytes32"
        },
        {
          "indexed": true,
          "internalType": "bytes32",
          "name": "slowRelayRoot",
          "type": "bytes32"
        }
      ],
      "name": "RelayedRootBundle",
      "type": "event"
    },
    {
      "anonymous": false,
      "inputs": [
        {
          "indexed": false,
          "internalType": "int64",
          "name": "newRelayerFeePct",
          "type": "int64"
        },
        {
          "indexed": true,
          "internalType": "uint32",
          "name": "depositId",
          "type": "uint32"
        },
        {
          "indexed": true,
          "internalType": "address",
          "name": "depositor",
          "type": "address"
        },
        {
          "indexed": false,
          "internalType": "address",
          "name": "updatedRecipient",
          "type": "address"
        },
        {
          "indexed": false,
          "internalType": "bytes",
          "name": "updatedMessage",
          "type": "bytes"
        },
        {
          "indexed": false,
          "internalType": "bytes",
          "name": "depositorSignature",
          "type": "bytes"
        }
      ],
      "name": "RequestedSpeedUpDeposit",
      "type": "event"
    },
    {
      "anonymous": false,
      "inputs": [
        {
          "indexed": false,
          "internalType": "address",
          "name": "inputToken",
          "type": "address"
        },
        {
          "indexed": false,
          "internalType": "address",
          "name": "outputToken",
          "type": "address"
        },
        {
          "indexed": false,
          "internalType": "uint256",
          "name": "inputAmount",
          "type": "uint256"
        },
        {
          "indexed": false,
          "internalType": "uint256",
          "name": "outputAmount",
          "type": "uint256"
        },
        {
          "indexed": true,
          "internalType": "uint256",
          "name": "originChainId",
          "type": "uint256"
        },
        {
          "indexed": true,
          "internalType": "uint32",
          "name": "depositId",
          "type": "uint32"
        },
        {
          "indexed": false,
          "internalType": "uint32",
          "name": "fillDeadline",
          "type": "uint32"
        },
        {
          "indexed": false,
          "internalType": "uint32",
          "name": "exclusivityDeadline",
          "type": "uint32"
        },
        {
          "indexed": false,
          "internalType": "address",
          "name": "exclusiveRelayer",
          "type": "address"
        },
        {
          "indexed": false,
          "internalType": "address",
          "name": "depositor",
          "type": "address"
        },
        {
          "indexed": false,
          "internalType": "address",
          "name": "recipient",
          "type": "address"
        },
        {
          "indexed": false,
          "internalType": "bytes",
          "name": "message",
          "type": "bytes"
        }
      ],
      "name": "RequestedUSSSlowFill",
      "type": "event"
    },
    {
      "anonymous": false,
      "inputs": [
        {
          "indexed": true,
          "internalType": "address",
          "name": "newHubPool",
          "type": "address"
        }
      ],
      "name": "SetHubPool",
      "type": "event"
    },
    {
      "anonymous": false,
      "inputs": [
        {
          "indexed": true,
          "internalType": "address",
          "name": "newMessageService",
          "type": "address"
        },
        {
          "indexed": false,
          "internalType": "address",
          "name": "oldMessageService",
          "type": "address"
        }
      ],
      "name": "SetL2MessageService",
      "type": "event"
    },
    {
      "anonymous": false,
      "inputs": [
        {
          "indexed": true,
          "internalType": "address",
          "name": "newTokenBridge",
          "type": "address"
        },
        {
          "indexed": false,
          "internalType": "address",
          "name": "oldTokenBridge",
          "type": "address"
        }
      ],
      "name": "SetL2TokenBridge",
      "type": "event"
    },
    {
      "anonymous": false,
      "inputs": [
        {
          "indexed": true,
          "internalType": "address",
          "name": "newUsdcBridge",
          "type": "address"
        },
        {
          "indexed": false,
          "internalType": "address",
          "name": "oldUsdcBridge",
          "type": "address"
        }
      ],
      "name": "SetL2UsdcBridge",
      "type": "event"
    },
    {
      "anonymous": false,
      "inputs": [
        {
          "indexed": true,
          "internalType": "address",
          "name": "newAdmin",
          "type": "address"
        }
      ],
      "name": "SetXDomainAdmin",
      "type": "event"
    },
    {
      "anonymous": false,
      "inputs": [
        {
          "indexed": false,
          "internalType": "uint256",
          "name": "amountToReturn",
          "type": "uint256"
        },
        {
          "indexed": true,
          "internalType": "uint256",
          "name": "chainId",
          "type": "uint256"
        },
        {
          "indexed": true,
          "internalType": "uint32",
          "name": "leafId",
          "type": "uint32"
        },
        {
          "indexed": true,
          "internalType": "address",
          "name": "l2TokenAddress",
          "type": "address"
        }
      ],
      "name": "TokensBridged",
      "type": "event"
    },
    {
      "anonymous": false,
      "inputs": [
        {
          "indexed": false,
          "internalType": "address",
          "name": "inputToken",
          "type": "address"
        },
        {
          "indexed": false,
          "internalType": "address",
          "name": "outputToken",
          "type": "address"
        },
        {
          "indexed": false,
          "internalType": "uint256",
          "name": "inputAmount",
          "type": "uint256"
        },
        {
          "indexed": false,
          "internalType": "uint256",
          "name": "outputAmount",
          "type": "uint256"
        },
        {
          "indexed": true,
          "internalType": "uint256",
          "name": "destinationChainId",
          "type": "uint256"
        },
        {
          "indexed": true,
          "internalType": "uint32",
          "name": "depositId",
          "type": "uint32"
        },
        {
          "indexed": false,
          "internalType": "uint32",
          "name": "quoteTimestamp",
          "type": "uint32"
        },
        {
          "indexed": false,
          "internalType": "uint32",
          "name": "fillDeadline",
          "type": "uint32"
        },
        {
          "indexed": false,
          "internalType": "uint32",
          "name": "exclusivityDeadline",
          "type": "uint32"
        },
        {
          "indexed": true,
          "internalType": "address",
          "name": "depositor",
          "type": "address"
        },
        {
          "indexed": false,
          "internalType": "address",
          "name": "recipient",
          "type": "address"
        },
        {
          "indexed": false,
          "internalType": "address",
          "name": "relayer",
          "type": "address"
        },
        {
          "indexed": false,
          "internalType": "bytes",
          "name": "message",
          "type": "bytes"
        }
      ],
      "name": "USSFundsDeposited",
      "type": "event"
    },
    {
      "anonymous": false,
      "inputs": [
        {
          "indexed": true,
          "internalType": "address",
          "name": "implementation",
          "type": "address"
        }
      ],
      "name": "Upgraded",
      "type": "event"
    },
    {
      "inputs": [],
      "name": "MAX_TRANSFER_SIZE",
      "outputs": [
        {
          "internalType": "uint256",
          "name": "",
          "type": "uint256"
        }
      ],
      "stateMutability": "view",
      "type": "function"
    },
    {
      "inputs": [],
      "name": "SLOW_FILL_MAX_TOKENS_TO_SEND",
      "outputs": [
        {
          "internalType": "uint256",
          "name": "",
          "type": "uint256"
        }
      ],
      "stateMutability": "view",
      "type": "function"
    },
    {
      "inputs": [],
      "name": "UPDATE_DEPOSIT_DETAILS_HASH",
      "outputs": [
        {
          "internalType": "bytes32",
          "name": "",
          "type": "bytes32"
        }
      ],
      "stateMutability": "view",
      "type": "function"
    },
    {
      "inputs": [
        {
          "internalType": "uint32",
          "name": "_initialDepositId",
          "type": "uint32"
        },
        {
          "internalType": "address",
          "name": "_crossDomainAdmin",
          "type": "address"
        },
        {
          "internalType": "address",
          "name": "_hubPool",
          "type": "address"
        }
      ],
      "name": "__SpokePool_init",
      "outputs": [],
      "stateMutability": "nonpayable",
      "type": "function"
    },
    {
      "inputs": [],
      "name": "chainId",
      "outputs": [
        {
          "internalType": "uint256",
          "name": "",
          "type": "uint256"
        }
      ],
      "stateMutability": "view",
      "type": "function"
    },
    {
      "inputs": [],
      "name": "crossDomainAdmin",
      "outputs": [
        {
          "internalType": "address",
          "name": "",
          "type": "address"
        }
      ],
      "stateMutability": "view",
      "type": "function"
    },
    {
      "inputs": [
        {
          "internalType": "address",
          "name": "recipient",
          "type": "address"
        },
        {
          "internalType": "address",
          "name": "originToken",
          "type": "address"
        },
        {
          "internalType": "uint256",
          "name": "amount",
          "type": "uint256"
        },
        {
          "internalType": "uint256",
          "name": "destinationChainId",
          "type": "uint256"
        },
        {
          "internalType": "int64",
          "name": "relayerFeePct",
          "type": "int64"
        },
        {
          "internalType": "uint32",
          "name": "quoteTimestamp",
          "type": "uint32"
        },
        {
          "internalType": "bytes",
          "name": "message",
          "type": "bytes"
        },
        {
          "internalType": "uint256",
          "name": "",
          "type": "uint256"
        }
      ],
      "name": "deposit",
      "outputs": [],
      "stateMutability": "payable",
      "type": "function"
    },
    {
      "inputs": [
        {
          "internalType": "address",
          "name": "depositor",
          "type": "address"
        },
        {
          "internalType": "address",
          "name": "recipient",
          "type": "address"
        },
        {
          "internalType": "address",
          "name": "originToken",
          "type": "address"
        },
        {
          "internalType": "uint256",
          "name": "amount",
          "type": "uint256"
        },
        {
          "internalType": "uint256",
          "name": "destinationChainId",
          "type": "uint256"
        },
        {
          "internalType": "int64",
          "name": "relayerFeePct",
          "type": "int64"
        },
        {
          "internalType": "uint32",
          "name": "quoteTimestamp",
          "type": "uint32"
        },
        {
          "internalType": "bytes",
          "name": "message",
          "type": "bytes"
        },
        {
          "internalType": "uint256",
          "name": "",
          "type": "uint256"
        }
      ],
      "name": "depositFor",
      "outputs": [],
      "stateMutability": "payable",
      "type": "function"
    },
    {
      "inputs": [
        {
          "internalType": "address",
          "name": "depositor",
          "type": "address"
        },
        {
          "internalType": "address",
          "name": "recipient",
          "type": "address"
        },
        {
          "internalType": "address",
          "name": "originToken",
          "type": "address"
        },
        {
          "internalType": "uint256",
          "name": "amount",
          "type": "uint256"
        },
        {
          "internalType": "uint256",
          "name": "destinationChainId",
          "type": "uint256"
        },
        {
          "internalType": "int64",
          "name": "relayerFeePct",
          "type": "int64"
        },
        {
          "internalType": "bytes",
          "name": "message",
          "type": "bytes"
        },
        {
          "internalType": "uint256",
          "name": "maxCount",
          "type": "uint256"
        }
      ],
      "name": "depositForNow",
      "outputs": [],
      "stateMutability": "payable",
      "type": "function"
    },
    {
      "inputs": [
        {
          "internalType": "address",
          "name": "recipient",
          "type": "address"
        },
        {
          "internalType": "address",
          "name": "originToken",
          "type": "address"
        },
        {
          "internalType": "uint256",
          "name": "amount",
          "type": "uint256"
        },
        {
          "internalType": "uint256",
          "name": "destinationChainId",
          "type": "uint256"
        },
        {
          "internalType": "int64",
          "name": "relayerFeePct",
          "type": "int64"
        },
        {
          "internalType": "bytes",
          "name": "message",
          "type": "bytes"
        },
        {
          "internalType": "uint256",
          "name": "maxCount",
          "type": "uint256"
        }
      ],
      "name": "depositNow",
      "outputs": [],
      "stateMutability": "payable",
      "type": "function"
    },
    {
      "inputs": [],
      "name": "depositQuoteTimeBuffer",
      "outputs": [
        {
          "internalType": "uint32",
          "name": "",
          "type": "uint32"
        }
      ],
      "stateMutability": "view",
      "type": "function"
    },
    {
      "inputs": [
        {
          "internalType": "address",
          "name": "depositor",
          "type": "address"
        },
        {
          "internalType": "address",
          "name": "recipient",
          "type": "address"
        },
        {
          "internalType": "address",
          "name": "inputToken",
          "type": "address"
        },
        {
          "internalType": "address",
          "name": "outputToken",
          "type": "address"
        },
        {
          "internalType": "uint256",
          "name": "inputAmount",
          "type": "uint256"
        },
        {
          "internalType": "uint256",
          "name": "outputAmount",
          "type": "uint256"
        },
        {
          "internalType": "uint256",
          "name": "destinationChainId",
          "type": "uint256"
        },
        {
          "internalType": "address",
          "name": "exclusiveRelayer",
          "type": "address"
        },
        {
          "internalType": "uint32",
          "name": "quoteTimestamp",
          "type": "uint32"
        },
        {
          "internalType": "uint32",
          "name": "fillDeadline",
          "type": "uint32"
        },
        {
          "internalType": "uint32",
          "name": "exclusivityDeadline",
          "type": "uint32"
        },
        {
          "internalType": "bytes",
          "name": "message",
          "type": "bytes"
        }
      ],
      "name": "depositUSS",
      "outputs": [],
      "stateMutability": "payable",
      "type": "function"
    },
    {
      "inputs": [
        {
          "internalType": "uint256",
          "name": "rootBundleId",
          "type": "uint256"
        }
      ],
      "name": "emergencyDeleteRootBundle",
      "outputs": [],
      "stateMutability": "nonpayable",
      "type": "function"
    },
    {
      "inputs": [
        {
          "internalType": "address",
          "name": "",
          "type": "address"
        },
        {
          "internalType": "uint256",
          "name": "",
          "type": "uint256"
        }
      ],
      "name": "enabledDepositRoutes",
      "outputs": [
        {
          "internalType": "bool",
          "name": "",
          "type": "bool"
        }
      ],
      "stateMutability": "view",
      "type": "function"
    },
    {
      "inputs": [
        {
          "internalType": "uint32",
          "name": "rootBundleId",
          "type": "uint32"
        },
        {
          "components": [
            {
              "internalType": "uint256",
              "name": "amountToReturn",
              "type": "uint256"
            },
            {
              "internalType": "uint256",
              "name": "chainId",
              "type": "uint256"
            },
            {
              "internalType": "uint256[]",
              "name": "refundAmounts",
              "type": "uint256[]"
            },
            {
              "internalType": "uint32",
              "name": "leafId",
              "type": "uint32"
            },
            {
              "internalType": "address",
              "name": "l2TokenAddress",
              "type": "address"
            },
            {
              "internalType": "address[]",
              "name": "refundAddresses",
              "type": "address[]"
            }
          ],
          "internalType": "struct SpokePoolInterface.RelayerRefundLeaf",
          "name": "relayerRefundLeaf",
          "type": "tuple"
        },
        {
          "internalType": "bytes32[]",
          "name": "proof",
          "type": "bytes32[]"
        }
      ],
      "name": "executeRelayerRefundLeaf",
      "outputs": [],
      "stateMutability": "nonpayable",
      "type": "function"
    },
    {
      "inputs": [
        {
          "internalType": "address",
          "name": "depositor",
          "type": "address"
        },
        {
          "internalType": "address",
          "name": "recipient",
          "type": "address"
        },
        {
          "internalType": "address",
          "name": "destinationToken",
          "type": "address"
        },
        {
          "internalType": "uint256",
          "name": "amount",
          "type": "uint256"
        },
        {
          "internalType": "uint256",
          "name": "originChainId",
          "type": "uint256"
        },
        {
          "internalType": "int64",
          "name": "realizedLpFeePct",
          "type": "int64"
        },
        {
          "internalType": "int64",
          "name": "relayerFeePct",
          "type": "int64"
        },
        {
          "internalType": "uint32",
          "name": "depositId",
          "type": "uint32"
        },
        {
          "internalType": "uint32",
          "name": "rootBundleId",
          "type": "uint32"
        },
        {
          "internalType": "bytes",
          "name": "message",
          "type": "bytes"
        },
        {
          "internalType": "int256",
          "name": "payoutAdjustment",
          "type": "int256"
        },
        {
          "internalType": "bytes32[]",
          "name": "proof",
          "type": "bytes32[]"
        }
      ],
      "name": "executeSlowRelayLeaf",
      "outputs": [],
      "stateMutability": "nonpayable",
      "type": "function"
    },
    {
      "inputs": [
        {
          "internalType": "uint32",
          "name": "rootBundleId",
          "type": "uint32"
        },
        {
          "components": [
            {
              "internalType": "uint256",
              "name": "amountToReturn",
              "type": "uint256"
            },
            {
              "internalType": "uint256",
              "name": "chainId",
              "type": "uint256"
            },
            {
              "internalType": "uint256[]",
              "name": "refundAmounts",
              "type": "uint256[]"
            },
            {
              "internalType": "uint32",
              "name": "leafId",
              "type": "uint32"
            },
            {
              "internalType": "address",
              "name": "l2TokenAddress",
              "type": "address"
            },
            {
              "internalType": "address[]",
              "name": "refundAddresses",
              "type": "address[]"
            },
            {
              "internalType": "bytes32",
              "name": "fillsRefundedRoot",
              "type": "bytes32"
            },
            {
              "internalType": "string",
              "name": "fillsRefundedHash",
              "type": "string"
            }
          ],
          "internalType": "struct USSSpokePoolInterface.USSRelayerRefundLeaf",
          "name": "relayerRefundLeaf",
          "type": "tuple"
        },
        {
          "internalType": "bytes32[]",
          "name": "proof",
          "type": "bytes32[]"
        }
      ],
      "name": "executeUSSRelayerRefundLeaf",
      "outputs": [],
      "stateMutability": "nonpayable",
      "type": "function"
    },
    {
      "inputs": [
        {
          "components": [
            {
              "components": [
                {
                  "internalType": "address",
                  "name": "depositor",
                  "type": "address"
                },
                {
                  "internalType": "address",
                  "name": "recipient",
                  "type": "address"
                },
                {
                  "internalType": "address",
                  "name": "exclusiveRelayer",
                  "type": "address"
                },
                {
                  "internalType": "address",
                  "name": "inputToken",
                  "type": "address"
                },
                {
                  "internalType": "address",
                  "name": "outputToken",
                  "type": "address"
                },
                {
                  "internalType": "uint256",
                  "name": "inputAmount",
                  "type": "uint256"
                },
                {
                  "internalType": "uint256",
                  "name": "outputAmount",
                  "type": "uint256"
                },
                {
                  "internalType": "uint256",
                  "name": "originChainId",
                  "type": "uint256"
                },
                {
                  "internalType": "uint256",
                  "name": "destinationChainId",
                  "type": "uint256"
                },
                {
                  "internalType": "uint32",
                  "name": "depositId",
                  "type": "uint32"
                },
                {
                  "internalType": "uint32",
                  "name": "fillDeadline",
                  "type": "uint32"
                },
                {
                  "internalType": "uint32",
                  "name": "exclusivityDeadline",
                  "type": "uint32"
                },
                {
                  "internalType": "bytes",
                  "name": "message",
                  "type": "bytes"
                }
              ],
              "internalType": "struct USSSpokePoolInterface.USSRelayData",
              "name": "relayData",
              "type": "tuple"
            },
            {
              "internalType": "uint256",
              "name": "updatedOutputAmount",
              "type": "uint256"
            }
          ],
          "internalType": "struct USSSpokePoolInterface.USSSlowFill",
          "name": "slowFillLeaf",
          "type": "tuple"
        },
        {
          "internalType": "uint32",
          "name": "rootBundleId",
          "type": "uint32"
        },
        {
          "internalType": "bytes32[]",
          "name": "proof",
          "type": "bytes32[]"
        }
      ],
      "name": "executeUSSSlowRelayLeaf",
      "outputs": [],
      "stateMutability": "nonpayable",
      "type": "function"
    },
    {
      "inputs": [],
      "name": "fillDeadlineBuffer",
      "outputs": [
        {
          "internalType": "uint32",
          "name": "",
          "type": "uint32"
        }
      ],
      "stateMutability": "view",
      "type": "function"
    },
    {
      "inputs": [
        {
          "internalType": "address",
          "name": "depositor",
          "type": "address"
        },
        {
          "internalType": "address",
          "name": "recipient",
          "type": "address"
        },
        {
          "internalType": "address",
          "name": "destinationToken",
          "type": "address"
        },
        {
          "internalType": "uint256",
          "name": "amount",
          "type": "uint256"
        },
        {
          "internalType": "uint256",
          "name": "maxTokensToSend",
          "type": "uint256"
        },
        {
          "internalType": "uint256",
          "name": "repaymentChainId",
          "type": "uint256"
        },
        {
          "internalType": "uint256",
          "name": "originChainId",
          "type": "uint256"
        },
        {
          "internalType": "int64",
          "name": "realizedLpFeePct",
          "type": "int64"
        },
        {
          "internalType": "int64",
          "name": "relayerFeePct",
          "type": "int64"
        },
        {
          "internalType": "uint32",
          "name": "depositId",
          "type": "uint32"
        },
        {
          "internalType": "bytes",
          "name": "message",
          "type": "bytes"
        },
        {
          "internalType": "uint256",
          "name": "maxCount",
          "type": "uint256"
        }
      ],
      "name": "fillRelay",
      "outputs": [],
      "stateMutability": "nonpayable",
      "type": "function"
    },
    {
      "inputs": [
        {
          "internalType": "address",
          "name": "depositor",
          "type": "address"
        },
        {
          "internalType": "address",
          "name": "recipient",
          "type": "address"
        },
        {
          "internalType": "address",
          "name": "updatedRecipient",
          "type": "address"
        },
        {
          "internalType": "address",
          "name": "destinationToken",
          "type": "address"
        },
        {
          "internalType": "uint256",
          "name": "amount",
          "type": "uint256"
        },
        {
          "internalType": "uint256",
          "name": "maxTokensToSend",
          "type": "uint256"
        },
        {
          "internalType": "uint256",
          "name": "repaymentChainId",
          "type": "uint256"
        },
        {
          "internalType": "uint256",
          "name": "originChainId",
          "type": "uint256"
        },
        {
          "internalType": "int64",
          "name": "realizedLpFeePct",
          "type": "int64"
        },
        {
          "internalType": "int64",
          "name": "relayerFeePct",
          "type": "int64"
        },
        {
          "internalType": "int64",
          "name": "updatedRelayerFeePct",
          "type": "int64"
        },
        {
          "internalType": "uint32",
          "name": "depositId",
          "type": "uint32"
        },
        {
          "internalType": "bytes",
          "name": "message",
          "type": "bytes"
        },
        {
          "internalType": "bytes",
          "name": "updatedMessage",
          "type": "bytes"
        },
        {
          "internalType": "bytes",
          "name": "depositorSignature",
          "type": "bytes"
        },
        {
          "internalType": "uint256",
          "name": "maxCount",
          "type": "uint256"
        }
      ],
      "name": "fillRelayWithUpdatedDeposit",
      "outputs": [],
      "stateMutability": "nonpayable",
      "type": "function"
    },
    {
      "inputs": [
        {
          "internalType": "bytes32",
          "name": "",
          "type": "bytes32"
        }
      ],
      "name": "fillStatuses",
      "outputs": [
        {
          "internalType": "uint256",
          "name": "",
          "type": "uint256"
        }
      ],
      "stateMutability": "view",
      "type": "function"
    },
    {
      "inputs": [
        {
          "components": [
            {
              "internalType": "address",
              "name": "depositor",
              "type": "address"
            },
            {
              "internalType": "address",
              "name": "recipient",
              "type": "address"
            },
            {
              "internalType": "address",
              "name": "exclusiveRelayer",
              "type": "address"
            },
            {
              "internalType": "address",
              "name": "inputToken",
              "type": "address"
            },
            {
              "internalType": "address",
              "name": "outputToken",
              "type": "address"
            },
            {
              "internalType": "uint256",
              "name": "inputAmount",
              "type": "uint256"
            },
            {
              "internalType": "uint256",
              "name": "outputAmount",
              "type": "uint256"
            },
            {
              "internalType": "uint256",
              "name": "originChainId",
              "type": "uint256"
            },
            {
              "internalType": "uint256",
              "name": "destinationChainId",
              "type": "uint256"
            },
            {
              "internalType": "uint32",
              "name": "depositId",
              "type": "uint32"
            },
            {
              "internalType": "uint32",
              "name": "fillDeadline",
              "type": "uint32"
            },
            {
              "internalType": "uint32",
              "name": "exclusivityDeadline",
              "type": "uint32"
            },
            {
              "internalType": "bytes",
              "name": "message",
              "type": "bytes"
            }
          ],
          "internalType": "struct USSSpokePoolInterface.USSRelayData",
          "name": "relayData",
          "type": "tuple"
        },
        {
          "internalType": "uint256",
          "name": "repaymentChainId",
          "type": "uint256"
        }
      ],
      "name": "fillUSSRelay",
      "outputs": [],
      "stateMutability": "nonpayable",
      "type": "function"
    },
    {
      "inputs": [],
      "name": "getCurrentTime",
      "outputs": [
        {
          "internalType": "uint256",
          "name": "",
          "type": "uint256"
        }
      ],
      "stateMutability": "view",
      "type": "function"
    },
    {
      "inputs": [],
      "name": "hubPool",
      "outputs": [
        {
          "internalType": "address",
          "name": "",
          "type": "address"
        }
      ],
      "stateMutability": "view",
      "type": "function"
    },
    {
      "inputs": [
        {
          "internalType": "uint32",
          "name": "_initialDepositId",
          "type": "uint32"
        },
        {
          "internalType": "contract IMessageService",
          "name": "_l2MessageService",
          "type": "address"
        },
        {
          "internalType": "contract ITokenBridge",
          "name": "_l2TokenBridge",
          "type": "address"
        },
        {
          "internalType": "contract IUSDCBridge",
          "name": "_l2UsdcBridge",
          "type": "address"
        },
        {
          "internalType": "address",
          "name": "_crossDomainAdmin",
          "type": "address"
        },
        {
          "internalType": "address",
          "name": "_hubPool",
          "type": "address"
        }
      ],
      "name": "initialize",
      "outputs": [],
      "stateMutability": "nonpayable",
      "type": "function"
    },
    {
      "inputs": [],
      "name": "l2MessageService",
      "outputs": [
        {
          "internalType": "contract IMessageService",
          "name": "",
          "type": "address"
        }
      ],
      "stateMutability": "view",
      "type": "function"
    },
    {
      "inputs": [],
      "name": "l2TokenBridge",
      "outputs": [
        {
          "internalType": "contract ITokenBridge",
          "name": "",
          "type": "address"
        }
      ],
      "stateMutability": "view",
      "type": "function"
    },
    {
      "inputs": [],
      "name": "l2UsdcBridge",
      "outputs": [
        {
          "internalType": "contract IUSDCBridge",
          "name": "",
          "type": "address"
        }
      ],
      "stateMutability": "view",
      "type": "function"
    },
    {
      "inputs": [
        {
          "internalType": "bytes[]",
          "name": "data",
          "type": "bytes[]"
        }
      ],
      "name": "multicall",
      "outputs": [
        {
          "internalType": "bytes[]",
          "name": "results",
          "type": "bytes[]"
        }
      ],
      "stateMutability": "nonpayable",
      "type": "function"
    },
    {
      "inputs": [],
      "name": "numberOfDeposits",
      "outputs": [
        {
          "internalType": "uint32",
          "name": "",
          "type": "uint32"
        }
      ],
      "stateMutability": "view",
      "type": "function"
    },
    {
      "inputs": [
        {
          "internalType": "bool",
          "name": "pause",
          "type": "bool"
        }
      ],
      "name": "pauseDeposits",
      "outputs": [],
      "stateMutability": "nonpayable",
      "type": "function"
    },
    {
      "inputs": [
        {
          "internalType": "bool",
          "name": "pause",
          "type": "bool"
        }
      ],
      "name": "pauseFills",
      "outputs": [],
      "stateMutability": "nonpayable",
      "type": "function"
    },
    {
      "inputs": [],
      "name": "pausedDeposits",
      "outputs": [
        {
          "internalType": "bool",
          "name": "",
          "type": "bool"
        }
      ],
      "stateMutability": "view",
      "type": "function"
    },
    {
      "inputs": [],
      "name": "pausedFills",
      "outputs": [
        {
          "internalType": "bool",
          "name": "",
          "type": "bool"
        }
      ],
      "stateMutability": "view",
      "type": "function"
    },
    {
      "inputs": [],
      "name": "proxiableUUID",
      "outputs": [
        {
          "internalType": "bytes32",
          "name": "",
          "type": "bytes32"
        }
      ],
      "stateMutability": "view",
      "type": "function"
    },
    {
      "inputs": [
        {
          "internalType": "bytes32",
          "name": "relayerRefundRoot",
          "type": "bytes32"
        },
        {
          "internalType": "bytes32",
          "name": "slowRelayRoot",
          "type": "bytes32"
        }
      ],
      "name": "relayRootBundle",
      "outputs": [],
      "stateMutability": "nonpayable",
      "type": "function"
    },
    {
      "inputs": [
        {
          "components": [
            {
              "internalType": "address",
              "name": "depositor",
              "type": "address"
            },
            {
              "internalType": "address",
              "name": "recipient",
              "type": "address"
            },
            {
              "internalType": "address",
              "name": "exclusiveRelayer",
              "type": "address"
            },
            {
              "internalType": "address",
              "name": "inputToken",
              "type": "address"
            },
            {
              "internalType": "address",
              "name": "outputToken",
              "type": "address"
            },
            {
              "internalType": "uint256",
              "name": "inputAmount",
              "type": "uint256"
            },
            {
              "internalType": "uint256",
              "name": "outputAmount",
              "type": "uint256"
            },
            {
              "internalType": "uint256",
              "name": "originChainId",
              "type": "uint256"
            },
            {
              "internalType": "uint256",
              "name": "destinationChainId",
              "type": "uint256"
            },
            {
              "internalType": "uint32",
              "name": "depositId",
              "type": "uint32"
            },
            {
              "internalType": "uint32",
              "name": "fillDeadline",
              "type": "uint32"
            },
            {
              "internalType": "uint32",
              "name": "exclusivityDeadline",
              "type": "uint32"
            },
            {
              "internalType": "bytes",
              "name": "message",
              "type": "bytes"
            }
          ],
          "internalType": "struct USSSpokePoolInterface.USSRelayData",
          "name": "relayData",
          "type": "tuple"
        }
      ],
      "name": "requestUSSSlowFill",
      "outputs": [],
      "stateMutability": "nonpayable",
      "type": "function"
    },
    {
      "inputs": [
        {
          "internalType": "uint256",
          "name": "",
          "type": "uint256"
        }
      ],
      "name": "rootBundles",
      "outputs": [
        {
          "internalType": "bytes32",
          "name": "slowRelayRoot",
          "type": "bytes32"
        },
        {
          "internalType": "bytes32",
          "name": "relayerRefundRoot",
          "type": "bytes32"
        }
      ],
      "stateMutability": "view",
      "type": "function"
    },
    {
      "inputs": [
        {
          "internalType": "address",
          "name": "newCrossDomainAdmin",
          "type": "address"
        }
      ],
      "name": "setCrossDomainAdmin",
      "outputs": [],
      "stateMutability": "nonpayable",
      "type": "function"
    },
    {
      "inputs": [
        {
          "internalType": "address",
          "name": "originToken",
          "type": "address"
        },
        {
          "internalType": "uint256",
          "name": "destinationChainId",
          "type": "uint256"
        },
        {
          "internalType": "bool",
          "name": "enabled",
          "type": "bool"
        }
      ],
      "name": "setEnableRoute",
      "outputs": [],
      "stateMutability": "nonpayable",
      "type": "function"
    },
    {
      "inputs": [
        {
          "internalType": "address",
          "name": "newHubPool",
          "type": "address"
        }
      ],
      "name": "setHubPool",
      "outputs": [],
      "stateMutability": "nonpayable",
      "type": "function"
    },
    {
      "inputs": [
        {
          "internalType": "contract IMessageService",
          "name": "_l2MessageService",
          "type": "address"
        }
      ],
      "name": "setL2MessageService",
      "outputs": [],
      "stateMutability": "nonpayable",
      "type": "function"
    },
    {
      "inputs": [
        {
          "internalType": "contract ITokenBridge",
          "name": "_l2TokenBridge",
          "type": "address"
        }
      ],
      "name": "setL2TokenBridge",
      "outputs": [],
      "stateMutability": "nonpayable",
      "type": "function"
    },
    {
      "inputs": [
        {
          "internalType": "contract IUSDCBridge",
          "name": "_l2UsdcBridge",
          "type": "address"
        }
      ],
      "name": "setL2UsdcBridge",
      "outputs": [],
      "stateMutability": "nonpayable",
      "type": "function"
    },
    {
      "inputs": [
        {
          "internalType": "address",
          "name": "depositor",
          "type": "address"
        },
        {
          "internalType": "int64",
          "name": "updatedRelayerFeePct",
          "type": "int64"
        },
        {
          "internalType": "uint32",
          "name": "depositId",
          "type": "uint32"
        },
        {
          "internalType": "address",
          "name": "updatedRecipient",
          "type": "address"
        },
        {
          "internalType": "bytes",
          "name": "updatedMessage",
          "type": "bytes"
        },
        {
          "internalType": "bytes",
          "name": "depositorSignature",
          "type": "bytes"
        }
      ],
      "name": "speedUpDeposit",
      "outputs": [],
      "stateMutability": "nonpayable",
      "type": "function"
    },
    {
      "inputs": [
        {
          "internalType": "address",
          "name": "newImplementation",
          "type": "address"
        }
      ],
      "name": "upgradeTo",
      "outputs": [],
      "stateMutability": "nonpayable",
      "type": "function"
    },
    {
      "inputs": [
        {
          "internalType": "address",
          "name": "newImplementation",
          "type": "address"
        },
        {
          "internalType": "bytes",
          "name": "data",
          "type": "bytes"
        }
      ],
      "name": "upgradeToAndCall",
      "outputs": [],
      "stateMutability": "payable",
      "type": "function"
    },
    {
      "inputs": [],
      "name": "wrappedNativeToken",
      "outputs": [
        {
          "internalType": "contract WETH9Interface",
          "name": "",
          "type": "address"
        }
      ],
      "stateMutability": "view",
      "type": "function"
    },
    {
      "stateMutability": "payable",
      "type": "receive"
    }
  ],
  "numDeployments": 4,
  "solcInputHash": "c5e6e8350960c1884a787d621d042595",
  "bytecode": "0x61010034620001c557601f62005a2738819003918201601f19168301916001600160401b03831184841017620001ca57808492606094604052833981010312620001c55780516001600160a01b0381169190829003620001c5576200007560406200006d60208401620001e0565b9201620001e0565b913060805260a05260c05260e05260005460ff8160081c16620001705760ff8082160362000134575b6040516158349081620001f38239608051818181610b1401528181610e260152610fee015260a05181818161088301528181612a540152818161322c01528181613a1301528181613b2b0152818161498001528181614c1701528181614c3e015281816150060152615271015260c051818181611153015281816129ef01526139c7015260e05181818161035d0152612a1b0152f35b60ff90811916176000557f7f26b83ff96e1f2b6a682f133852f6798a09c465da95921460cefb3847402498602060405160ff8152a1386200009e565b60405162461bcd60e51b815260206004820152602760248201527f496e697469616c697a61626c653a20636f6e747261637420697320696e697469604482015266616c697a696e6760c81b6064820152608490fd5b600080fd5b634e487b7160e01b600052604160045260246000fd5b519063ffffffff82168203620001c55756fe6080604052600436101561001b575b361561001957600080fd5b005b60003560e01c8063079bd2c71461032b5780630c2097f7146103265780631186ec331461032157806317fcb39b1461031c5780631b3d5559146103175780631dfb2d0214610312578063272751c71461030d57806329cb924d146103085780633659cfe61461030357806344b8be68146102fe578063486424b5146102f9578063493a4f84146102f45780634f1ef286146102ef5780635249fef1146102ea5780635285e058146102e557806352d1902d146102e0578063541f4f14146102db57806357f6dcb8146102d657806359c80a2d146102d15780635ceaec32146102cc5780635d467759146102c75780636068d6cb146102c2578063738b62e5146102bd5780637bf1a22e146102b85780637e688bba146102b35780638a7860ce146102ae57806391c49bf8146102a9578063979f2bc2146102a457806399cc29681461029f5780639a2e08201461029a5780639a8a059214610295578063a1244c6714610290578063a50bd1621461028b578063a78e4b6014610286578063ab2b886214610281578063ac9650d81461027c578063ae527fbb14610277578063b5e1bf5f14610272578063c35c83fc1461026d578063c5b9709c14610268578063dda5211314610263578063ddd224f11461025e578063de7eba7814610259578063e190440214610254578063e691498a1461024f578063e97adbd51461024a578063ee2a53f814610245578063f1429b5a146102405763fd7c10540361000e57612036565b612001565b611fc3565b611df8565b611dc3565b611d99565b611d69565b611d3f565b611d18565b611c13565b611be6565b611bbb565b611b39565b611ad4565b611902565b6118d9565b611849565b611737565b61171c565b6116e7565b611669565b611594565b61156a565b6114e7565b611464565b61133d565b6112bf565b611298565b61126e565b6111a1565b611177565b611136565b61109f565b610fdb565b610fb1565b610f53565b610de5565b610d62565b610cbd565b610c28565b610aed565b610ad2565b610a32565b6109f3565b61091a565b61086d565b6107da565b610735565b610340565b600091031261033b57565b600080fd5b3461033b57600036600319011261033b57602060405163ffffffff7f0000000000000000000000000000000000000000000000000000000000000000168152f35b6001600160a01b031690565b6001600160a01b0381160361033b57565b600435906103ab8261038d565b565b602435906103ab8261038d565b604435906103ab8261038d565b606435906103ab8261038d565b35906103ab8261038d565b60a435908160070b820361033b57565b60c435908160070b820361033b57565b608435908160070b820361033b57565b61010435908160070b820361033b57565b61012435908160070b820361033b57565b61014435908160070b820361033b57565b60e4359063ffffffff8216820361033b57565b610104359063ffffffff8216820361033b57565b6004359063ffffffff8216820361033b57565b610124359063ffffffff8216820361033b57565b610164359063ffffffff8216820361033b57565b6044359063ffffffff8216820361033b57565b6024359063ffffffff8216820361033b57565b359063ffffffff8216820361033b57565b634e487b7160e01b600052604160045260246000fd5b604081019081106001600160401b0382111761050c57604052565b6104db565b6001600160401b03811161050c57604052565b60a081019081106001600160401b0382111761050c57604052565b602081019081106001600160401b0382111761050c57604052565b606081019081106001600160401b0382111761050c57604052565b60e081019081106001600160401b0382111761050c57604052565b601f909101601f19168101906001600160401b0382119082101761050c57604052565b6040519060c082016001600160401b0381118382101761050c57604052565b604051906101a082016001600160401b0381118382101761050c57604052565b6040519061010082016001600160401b0381118382101761050c57604052565b6040519061014082016001600160401b0381118382101761050c57604052565b60405190608082016001600160401b0381118382101761050c57604052565b604051906103ab82610524565b6001600160401b03811161050c57601f01601f191660200190565b81601f8201121561033b578035906106908261065e565b9261069e6040519485610590565b8284526020838301011161033b57816000926020809301838601378301015290565b6001600160401b03811161050c5760051b60200190565b81601f8201121561033b578035916106ee836106c0565b926106fc6040519485610590565b808452602092838086019260051b82010192831161033b578301905b828210610726575050505090565b81358152908301908301610718565b3461033b5761018036600319011261033b576004356107538161038d565b61075b6103ad565b906107646103ba565b61076c6103df565b926107756103ef565b61077d610442565b610785610455565b6001600160401b03969092906101243588811161033b576107aa903690600401610679565b946101643598891161033b576107c76100199936906004016106d7565b976101443597608435926064359261312c565b61010036600319011261033b576004356107f38161038d565b602435906108008261038d565b6108086103ff565b60a4359063ffffffff8216820361033b5760c435936001600160401b03851161033b5761083c610866953690600401610679565b9361084561250e565b61085860ff61086b5460e81c1615612842565b60643591604435913361395c565b6001606555005b3461033b57600036600319011261033b576040517f00000000000000000000000000000000000000000000000000000000000000006001600160a01b03168152602090f35b81601f8201121561033b578035916108c9836106c0565b926108d76040519485610590565b808452602092838086019260051b82010192831161033b578301905b828210610901575050505090565b838091833561090f8161038d565b8152019101906108f3565b3461033b5760031960603682011261033b57610934610469565b6001600160401b03916024359083821161033b5760c090823603011261033b5761095c6105b3565b908060040135825260248101356020830152604481013584811161033b5761098a90600436918401016106d7565b604083015261099b606482016104ca565b60608301526109ac608482016103d4565b608083015260a48101359084821161033b5760046109cd92369201016108b2565b60a082015260443592831161033b576109ed6100199336906004016106d7565b91613335565b3461033b57602036600319011261033b57610866600435610a138161038d565b610a1b6125c5565b610a2361250e565b613fbb565b8015150361033b57565b3461033b57606036600319011261033b57600435610a4f8161038d565b60243560443591610a5f83610a28565b610a676125c5565b610a6f61250e565b60018060a01b03167f0a21fdd43d0ad0c62689ee7230a47309a050755bcc52eba00310add65297692a602060009483865261086d8252604086208587528252604086209015159060ff1981541660ff8316179055604051908152a3600160655580f35b3461033b57600036600319011261033b576020604051428152f35b3461033b57602036600319011261033b57600435610b0a8161038d565b6001600160a01b037f000000000000000000000000000000000000000000000000000000000000000081169190610b43308414156120c4565b610b6060008051602061575f833981519152938285541614612113565b610b686125c5565b60405190610b758261053f565b600082526000805160206156ff8339815191525460ff1615610b9d575050610019915061222a565b6020600491604094939451928380926352d1902d60e01b825286165afa60009181610bf8575b50610be55760405162461bcd60e51b815280610be1600482016121db565b0390fd5b61001993610bf3911461217d565b6122ba565b610c1a91925060203d8111610c21575b610c128183610590565b810190612162565b9038610bc3565b503d610c08565b3461033b5761018036600319011261033b57600435610c468161038d565b602435610c528161038d565b604435610c5e8161038d565b60e4358060070b810361033b57610c7361040f565b610c7b61047c565b61014435959092906001600160401b03871161033b57610ca2610019973690600401610679565b94610164359660c4359260a435926084359260643592612d62565b61018036600319011261033b57600435610cd68161038d565b602435610ce28161038d565b60443590610cef8261038d565b60643591610cfc8361038d565b60e435610d088161038d565b610d10610455565b90610d1961047c565b92610144359463ffffffff8616860361033b5761016435976001600160401b03891161033b57610d50610019993690600401610679565b9760c4359360a435936084359361297f565b3461033b57604036600319011261033b57602435600435610d816125c5565b610d8961250e565b61086c8054600160401b81101561050c5763ffffffff9160018201905583610db082611f9f565b5084600182015555167fc86ba04c55bc5eb2f2876b91c438849a296dbec7b08751c3074d92e04f0a77af600080a46001606555005b604036600319011261033b57600435610dfd8161038d565b6024356001600160401b03811161033b57610e1c903690600401610679565b6001600160a01b037f00000000000000000000000000000000000000000000000000000000000000008116929190610e56308514156120c4565b610e7360008051602061575f833981519152948286541614612113565b610e7b6125c5565b6000805160206156ff8339815191525460ff1615610e9f575050610019915061222a565b6020600491604094939451928380926352d1902d60e01b825286165afa60009181610ef6575b50610ee35760405162461bcd60e51b815280610be1600482016121db565b61001993610ef1911461217d565b612364565b610f0f91925060203d8111610c2157610c128183610590565b9038610ec5565b6001600160a01b0316600090815261086d6020526040902090565b60005261086f602052604060002090565b60005261086e602052604060002090565b3461033b57604036600319011261033b57600435610f708161038d565b60018060a01b031660005261086d6020526040600020602435600052602052602060ff604060002054166040519015158152f35b6001600160a01b03169052565b3461033b57600036600319011261033b57610869546040516001600160a01b039091168152602090f35b3461033b57600036600319011261033b577f00000000000000000000000000000000000000000000000000000000000000006001600160a01b031630036110395760405160008051602061575f8339815191528152602090f35b0390f35b60405162461bcd60e51b815260206004820152603860248201527f555550535570677261646561626c653a206d757374206e6f742062652063616c6044820152771b1959081d1a1c9bdd59da0819195b1959d85d1958d85b1b60421b6064820152608490fd5b61012036600319011261033b576004356110b88161038d565b6024356110c48161038d565b604435906110d18261038d565b6110d96103df565b60c4359163ffffffff8316830361033b5760e435946001600160401b03861161033b5761110d610866963690600401610679565b9461111661250e565b61112960ff61086b5460e81c1615612842565b608435926064359261395c565b3461033b57600036600319011261033b57602060405163ffffffff7f0000000000000000000000000000000000000000000000000000000000000000168152f35b3461033b57600036600319011261033b57610c5d546040516001600160a01b039091168152602090f35b3461033b5761020036600319011261033b576111bb61039e565b6111c36103ad565b906111cc6103ba565b916111d56103c7565b926111de61040f565b936111e7610420565b6111ef610431565b6111f7610490565b6001600160401b03979092906101843589811161033b5761121c903690600401610679565b946101a4358a811161033b57611236903690600401610679565b966101c4359a8b1161033b576112536100199b3690600401610679565b986101e4359a60e4359360c4359360a4359360843593612eb6565b3461033b57600036600319011261033b57610c5b546040516001600160a01b039091168152602090f35b3461033b57600036600319011261033b57602060ff61086b5460e81c166040519015158152f35b3461033b57602036600319011261033b577fe88463c2f254e2b070013a2dc7ee1e099f9bc00534cbdf03af551dc26ae4921960206004356112ff81610a28565b6113076125c5565b61130f61250e565b61086b805460ff60e81b191691151560e881901b60ff60e81b16929092179055604051908152a16001606555005b3461033b5760c036600319011261033b57611356610469565b6113d86024356113658161038d565b6044356113718161038d565b60643561137d8161038d565b6084359161138a8361038d565b60a435936113978561038d565b600054966113bc60ff8960081c16158099819a611456575b8115611436575b50612482565b876113cf600160ff196000541617600055565b61141d576124e5565b6113de57005b6113ee61ff001960005416600055565b604051600181527f7f26b83ff96e1f2b6a682f133852f6798a09c465da95921460cefb384740249890602090a1005b61143161010061ff00196000541617600055565b6124e5565b303b15915081611448575b50386113b6565b6001915060ff161438611441565b600160ff82161091506113af565b3461033b5760c036600319011261033b576004356114818161038d565b602435908160070b820361033b576114976104a4565b916064356114a48161038d565b6001600160401b039360843585811161033b576114c5903690600401610679565b9260a43595861161033b576114e1610019963690600401610679565b94612880565b3461033b57602036600319011261033b576004356115036125c5565b61150b61250e565b61151481611f9f565b91909161155457600191600092818480935501557f3569b846531b754c99cb80df3f49cd72fa6fe106aaee5ab8e0caf35a9d7ce88d8280a2600160655580f35b634e487b7160e01b600052600060045260246000fd5b3461033b57600036600319011261033b57610c5c546040516001600160a01b039091168152602090f35b3461033b57606036600319011261033b576100196115b0610469565b610a236024356115bf8161038d565b6115e5604435936115cf8561038d565b6115e060ff60005460081c1661278f565b6127ef565b6040516115f1816104f1565b6009815260208101906820a1a927a9a996ab1960b91b825260405191611616836104f1565b600583526020830191640312e302e360dc1b835261164460ff60005460081c1661163f8161278f565b61278f565b519020915190209061047f556104805561165c612815565b611664612826565b613f31565b3461033b57602036600319011261033b577f2d5b62420992e5a4afce0e77742636ca2608ef58289fd2e1baa5161ef6e7e41e60206004356116a981610a28565b6116b16125c5565b6116b961250e565b61086b805460ff60e01b191691151560e081901b60ff60e01b16929092179055604051908152a16001606555005b3461033b57602036600319011261033b576108666004356117078161038d565b61170f6125c5565b61171761250e565b61273f565b3461033b57600036600319011261033b576020604051468152f35b3461033b57600036600319011261033b57602063ffffffff61086b5460c01c16604051908152f35b91906101a08382031261033b576117746105d2565b9261177e816103d4565b845261178c602082016103d4565b602085015261179d604082016103d4565b60408501526117ae606082016103d4565b60608501526117bf608082016103d4565b608085015260a081013560a085015260c081013560c085015260e081013560e085015261010080820135908501526101206117fb8183016104ca565b9085015261014061180d8183016104ca565b9085015261016061181f8183016104ca565b9085015261018091818301356001600160401b03811161033b576118439201610679565b90830152565b3461033b5760031960603682011261033b576001600160401b03906004359082821161033b57604090823603011261033b5760405190611888826104f1565b80600401359083821161033b576118a76024926004369184010161175f565b8352013560208201526118b86104b7565b60443592831161033b576118d36100199336906004016106d7565b91613295565b3461033b57600036600319011261033b5760206040516000805160206157bf8339815191528152f35b3461033b57604036600319011261033b576004356001600160401b03811161033b5761193290369060040161175f565b61193a61250e565b61194d60ff61086b5460e01c1615612e6c565b61195a6040820151610381565b6001600160a01b031633141580611a13575b611a01576119f7904661010082015260c081015161198d6020830151610381565b6119b96101808401519161199f6105b3565b948552602085019360008552604086015260608501612ea7565b608083015260243560a083015281516040516119eb816119dd60208201948561308c565b03601f198101835282610590565b51902090523390614e4c565b6100196001606555565b604051630c3a9b9d60e41b8152600490fd5b506101608101514263ffffffff909116101561196c565b60005b838110611a3d5750506000910152565b8181015183820152602001611a2d565b90602091611a6681518092818552858086019101611a2a565b601f01601f1916010190565b602080820190808352835180925260408301928160408460051b8301019501936000915b848310611aa65750505050505090565b9091929394958480611ac4600193603f198682030187528a51611a4d565b9801930193019194939290611a96565b3461033b57602036600319011261033b576001600160401b0360043581811161033b573660238201121561033b57806004013591821161033b573660248360051b8301011161033b57611035916024611b2d9201615650565b60405191829182611a72565b60e036600319011261033b57600435611b518161038d565b602435611b5d8161038d565b611b656103ff565b60a43592906001600160401b03841161033b57611b89610866943690600401610679565b92611b9261250e565b611ba560ff61086b5460e81c1615612842565b63ffffffff42169260643591604435913361395c565b3461033b57600036600319011261033b576040516b1d6329f1c35ca4bfabb9f56160281b8152602090f35b3461033b57602036600319011261033b5760043560005261086f6020526020604060002054604051908152f35b3461033b5760031960603682011261033b57611c2d610469565b6001600160401b03916024359083821161033b5761010090823603011261033b57611c566105f2565b908060040135825260248101356020830152604481013584811161033b57611c8490600436918401016106d7565b6040830152611c95606482016104ca565b6060830152611ca6608482016103d4565b608083015260a481013584811161033b57611cc790600436918401016108b2565b60a083015260c481013560c083015260e48101359084821161033b576004611cf29236920101610679565b60e082015260443592831161033b57611d126100199336906004016106d7565b916135fb565b3461033b57600036600319011261033b57602060ff61086b5460e01c166040519015158152f35b3461033b57600036600319011261033b576040516a0c097ce7bc90715b34b9f160241b8152602090f35b3461033b57602036600319011261033b57610866600435611d898161038d565b611d916125c5565b61166461250e565b3461033b57600036600319011261033b5761086a546040516001600160a01b039091168152602090f35b3461033b57602036600319011261033b57610866600435611de38161038d565b611deb6125c5565b611df361250e565b6126ef565b3461033b57602036600319011261033b576004356001600160401b03811161033b57611e2890369060040161175f565b611e3061250e565b611e4360ff61086b5460e01c1615612e6c565b610140810190611e57825163ffffffff1690565b63ffffffff908142911610611f77576040516020810190611e7c816119dd868561308c565b51902090611e8982610f31565b54611f6657611ec1611ebb7fe4b7a167221330bacd6975b417a1f4cb0b64a529213adee334653b69556ed95793610f31565b60019055565b611ece6060840151610381565b93611f59611edf6080860151610381565b60a08601519560c08101519660e082015197611f11611f0661012085015163ffffffff1690565b965163ffffffff1690565b61016084015163ffffffff1690611f2b6040860151610381565b92611f368651610381565b94610180611f476020890151610381565b970151976040519b8c9b169e8b6130c2565b0390a36100196001606555565b604051624be79160e21b8152600490fd5b60405163d642b7d960e01b8152600490fd5b634e487b7160e01b600052603260045260246000fd5b61086c8054821015611fbe576000526003602060002091020190600090565b611f89565b3461033b57602036600319011261033b5760043561086c5481101561033b57611fed604091611f9f565b506001815491015482519182526020820152f35b3461033b57602036600319011261033b576108666004356120218161038d565b6120296125c5565b61203161250e565b61269f565b61010036600319011261033b5760043561204f8161038d565b6024359061205c8261038d565b6044356120688161038d565b6120706103df565b60c435936001600160401b03851161033b57612093610866953690600401610679565b9361209c61250e565b6120af60ff61086b5460e81c1615612842565b63ffffffff421693608435926064359261395c565b156120cb57565b60405162461bcd60e51b815260206004820152602c602482015260008051602061573f83398151915260448201526b19195b1959d85d1958d85b1b60a21b6064820152608490fd5b1561211a57565b60405162461bcd60e51b815260206004820152602c602482015260008051602061573f83398151915260448201526b6163746976652070726f787960a01b6064820152608490fd5b9081602091031261033b575190565b6040513d6000823e3d90fd5b1561218457565b60405162461bcd60e51b815260206004820152602960248201527f45524331393637557067726164653a20756e737570706f727465642070726f786044820152681a58589b195555525160ba1b6064820152608490fd5b60809060208152602e60208201527f45524331393637557067726164653a206e657720696d706c656d656e7461746960408201526d6f6e206973206e6f74205555505360901b60608201520190565b803b1561225f5760008051602061575f83398151915280546001600160a01b0319166001600160a01b03909216919091179055565b60405162461bcd60e51b815260206004820152602d60248201527f455243313936373a206e657720696d706c656d656e746174696f6e206973206e60448201526c1bdd08184818dbdb9d1c9858dd609a1b6064820152608490fd5b906122c48261222a565b6001600160a01b03821660008051602061579f833981519152600080a280511580159061235c575b6122f4575050565b61235991600080604051936123088561055a565b602785527f416464726573733a206c6f772d6c6576656c2064656c65676174652063616c6c6020860152660819985a5b195960ca1b6040860152602081519101845af46123536123a5565b916123d5565b50565b5060006122ec565b9061236e8261222a565b6001600160a01b03821660008051602061579f833981519152600080a280511580159061239d576122f4575050565b5060016122ec565b3d156123d0573d906123b68261065e565b916123c46040519384610590565b82523d6000602084013e565b606090565b9192901561243757508151156123e9575090565b3b156123f25790565b60405162461bcd60e51b815260206004820152601d60248201527f416464726573733a2063616c6c20746f206e6f6e2d636f6e74726163740000006044820152606490fd5b82519091501561244a5750805190602001fd5b60405162461bcd60e51b815260206004820152908190610be1906024830190611a4d565b90602061247f928181520190611a4d565b90565b1561248957565b60405162461bcd60e51b815260206004820152602e60248201527f496e697469616c697a61626c653a20636f6e747261637420697320616c72656160448201526d191e481a5b9a5d1a585b1a5e995960921b6064820152608490fd5b916120316103ab96610a23611df396976115e561171796976115e060ff60005460081c1661278f565b60026065541461251f576002606555565b60405162461bcd60e51b815260206004820152601f60248201527f5265656e7472616e637947756172643a207265656e7472616e742063616c6c006044820152606490fd5b9081602091031261033b575161247f8161038d565b1561258057565b60405162461bcd60e51b815260206004820152601d60248201527f4f726967696e616c2073656e646572206d7573742062652061646d696e0000006044820152606490fd5b610c5b546001600160a01b03908116903382900361265a576020600492604051938480926333f2026760e11b82525afa908115612655576103ab92600092612625575b5061261d61261861086954610381565b610381565b911614612579565b61264791925060203d811161264e575b61263f8183610590565b810190612564565b9038612608565b503d612635565b612171565b60405162461bcd60e51b815260206004820152601e60248201527f53656e646572206d757374206265206d657373616765207365727669636500006044820152606490fd5b610c5c80546001600160a01b039283166001600160a01b03198216811790925560405192168252907ff3dc137d2246f9b8abd0bb821e185ba01122c9b3ea3745ffca6208037674d67090602090a2565b610c5d80546001600160a01b039283166001600160a01b03198216811790925560405192168252907f6f15007ffd88f54cef03a7cb2c9feb2cb5f4880c1a7b3728678a08ab0241f66190602090a2565b610c5b80546001600160a01b039283166001600160a01b03198216811790925560405192168252907ff4afd54e7ed26702d892bb2e04050d1414c6eb040dde0e9ca2d919f423f3608790602090a2565b1561279657565b60405162461bcd60e51b815260206004820152602b60248201527f496e697469616c697a61626c653a20636f6e7472616374206973206e6f74206960448201526a6e697469616c697a696e6760a81b6064820152608490fd5b61086b805463ffffffff60c01b191660c09290921b63ffffffff60c01b16919091179055565b6103ab60ff60005460081c1661278f565b61283b60ff60005460081c1661163f8161278f565b6001606555565b1561284957565b60405162461bcd60e51b815260206004820152600f60248201526e506175736564206465706f7369747360881b6044820152606490fd5b6129229063ffffffff7fa6aa57bd282fc82378458de27be4eadfa791a0c7321c49562eeba8b2643dd56695979694976128b761250e565b6128e58887838860070b986128dd6706f05b59d3b200006128d78c61296e565b1061292c565b468e896140cd565b612910604051968796875260018060a01b038093166020880152608060408801526080870190611a4d565b92858403606087015216971695611a4d565b0390a36001606555565b1561293357565b60405162461bcd60e51b8152602060048201526013602482015272496e76616c69642072656c617965722066656560681b6044820152606490fd5b600080821261297b575090565b0390565b96939a94979991959890929961299361250e565b61086b986129a860ff8b5460e81c1615612842565b6129d56129d16129ca8d6129bb8c610f16565b90600052602052604060002090565b5460ff1690565b1590565b612b745763ffffffff9c8d6129ec81851642612b9c565b907f00000000000000000000000000000000000000000000000000000000000000001610612b62578d612a41817f00000000000000000000000000000000000000000000000000000000000000001642612bae565b90851611612b50576001600160a01b039a7f00000000000000000000000000000000000000000000000000000000000000008c16828b8e1680831480612b47575b15612b3457503403612b2257803b1561033b57600060049160405192838092630d0e30db60e41b825234905af1801561265557612b09575b505b5460c01c63ffffffff169d612ad08f612bbb565b612ad9906127ef565b6040519b8c9b169e169c612aed998b612bd0565b0360008051602061577f83398151915291a46103ab6001606555565b80612b16612b1c92610511565b80610330565b38612aba565b604051636452a35d60e01b8152600490fd5b612b42925030903390612c38565b612abc565b50341515612a82565b60405163582e388960e01b8152600490fd5b60405163f722177f60e01b8152600490fd5b604051632a58c4f360e01b8152600490fd5b634e487b7160e01b600052601160045260246000fd5b91908203918211612ba957565b612b86565b91908201809211612ba957565b63ffffffff809116908114612ba95760010190565b6001600160a01b03918216815291811660208301526040820192909252606081019290925263ffffffff928316608083015292821660a0820152921660c083015291821660e08201529116610100820152610140610120820181905261247f92910190611a4d565b6040516323b872dd60e01b60208201526001600160a01b0392831660248201529290911660448301526064808301939093529181526103ab91612c7a82610524565b604051612cd2916001600160a01b0316612c93826104f1565b6000806020958685527f5361666545524332303a206c6f772d6c6576656c2063616c6c206661696c656487860152868151910182855af16123536123a5565b8051828115918215612d42575b5050905015612ceb5750565b6084906040519062461bcd60e51b82526004820152602a60248201527f5361666545524332303a204552433230206f7065726174696f6e20646964206e6044820152691bdd081cdd58d8d9595960b21b6064820152fd5b838092935001031261033b57810151612d5a81610a28565b808238612cdf565b9a969290989799939591612d7461250e565b61086b5460e01c60ff1615612d8890612e6c565b612d90610612565b9b612d9b908d612ea7565b612da88a60208e01612ea7565b612db59060408d01612ea7565b60608b015260808a01524660a08a015260070b60c0890152600787900b60e08901526101009485890190612dee919063ffffffff169052565b6101209581878a0152612dff610612565b988952600060208a0190815260079890980b60408a0152612e239060608a01612ea7565b608088015260a087015260c086015260e08501528301600090528201600090528151612e4e90614547565b9052612e59816147f3565b612e629161542a565b6103ab6001606555565b15612e7357565b60405162461bcd60e51b815260206004820152600c60248201526b5061757365642066696c6c7360a01b6044820152606490fd5b6001600160a01b039091169052565b9d9c9b959e9390928e9799939b98929b612ece61250e565b61086b5460e01c60ff1615612ee290612e6c565b612eea610612565b98612ef5908a612ea7565b612f029060208a01612ea7565b612f0f9060408901612ea7565b6060870152608086018890524660a087015260070b60c086015260070b60e085015263ffffffff851661010085810191909152916101209384860152612f53610612565b948552600060208601908152600789900b6040870152949c898e60600190612f7a91612ea7565b8d8b608082015260a0015260c08d015260e08c01528a01600090528901600090528851612fa690614547565b9052612fb1966140cd565b612e59816147f3565b9061247f91612fca828251610fa4565b612fdc60208201516020840190610fa4565b612fee60408201516040840190610fa4565b61300060608201516060840190610fa4565b61301260808201516080840190610fa4565b60a081015160a083015260c081015160c083015260e081015160e08301526101008082015190830152613053610120808301519084019063ffffffff169052565b6101408181015163ffffffff16908301526101608181015163ffffffff169083015261018080910151916101a080928201520190611a4d565b90602061247f928181520190612fba565b634e487b7160e01b600052602160045260246000fd5b600311156130bd57565b61309d565b6001600160a01b03918216815291811660208301526040820192909252606081019290925263ffffffff92831660808301529290911660a082015291811660c083015291821660e08201529116610100820152610140610120820181905261247f92910190611a4d565b9a989593919996949290979961314061250e565b61314981613222565b613151610612565b9b61315c908d612ea7565b6131698960208e01612ea7565b6131769060408d01612ea7565b60608b015260808a01524660a08a015260070b60c089015260070b60e088015263ffffffff16610100878101919091526101209180838901526131b7610612565b978852602088019460008652604089016000905260608901906131d991612ea7565b6080880152600060a08801526b1d6329f1c35ca4bfabb9f56160281b60c088015260001960e0880152600190870152850152835161321690614547565b9052612fb19183614369565b6001600160a01b037f00000000000000000000000000000000000000000000000000000000000000008116911681146132585750565b476132605750565b4790803b1561033b57600090600460405180948193630d0e30db60e41b83525af180156126555715612359576103ab90610511565b90612e6292613330916132a661250e565b60208451946132c06132bb6080880151610381565b613222565b4661010087015201516132d66020860151610381565b613302610180870151916132e86105b3565b978852602088019360008552604089015260608801612ea7565b6080860152600060a08601528451604051613325816119dd60208201948561308c565b5190209052836144b5565b6150ec565b9161333e61250e565b60808201906133506132bb8351610381565b602083019283519261338a6129d160a08401946133768651976040870198895191614040565b8460016133828b611f9f565b5001546134fc565b61343e576134317fef58a0c572350b3e7cd0a4cb92368d9b834017a49338338f295d1a3e0535dcf49361341761341060608601956133d56133cf885163ffffffff1690565b8c614074565b6134008a5182518b516133ec8b5163ffffffff1690565b906133f78b51610381565b92895194613afb565b5198519751955163ffffffff1690565b9351610381565b90519060405194859463ffffffff8091169a1698856134c1565b0390a46103ab6001606555565b60405163582f497d60e11b8152600490fd5b90815180825260208080930193019160005b828110613470575050505090565b835185529381019392810192600101613462565b90815180825260208080930193019160005b8281106134a4575050505090565b83516001600160a01b031685529381019392810192600101613496565b9061247f94926134de918352608060208401526080830190613450565b6001600160a01b039093166040820152808303606090910152613484565b61247f9291604051613577816119dd602082019460208652805160408401526020810151606084015260a0613541604083015160c06080870152610100860190613450565b606083015163ffffffff168583015260808301516000196001841b011660c0860152910151838203603f190160e0850152613484565b51902091929091906000915b84518310156135d05761359683866135e7565b51906000828210156135be57506000526020526135b860406000205b926135d8565b91613583565b6040916135b8938252602052206135b2565b915092501490565b6000198114612ba95760010190565b8051821015611fbe5760209160051b010190565b9161360461250e565b60808201906136166132bb8351610381565b60208301928351926136506129d160a084019461363c8651976040870198895191614040565b8460016136488b611f9f565b50015461374f565b61343e576134317f168b5e636f384f487d11ee278507b1ff985b7dc751a0fb6ef7ad1432e8dec1da93606084019361369561368f865163ffffffff1690565b8a614074565b6136c08851825189516136ac895163ffffffff1690565b906136b78951610381565b92875194613afb565b6136de6136d7825199519851965163ffffffff1690565b9451610381565b915160e060c08301519201519260405196879663ffffffff8091169c169a8792909361371f61373c9361247f9896865260c0602087015260c0860190613450565b6001600160a01b0390921660408501528382036060850152613484565b92608082015260a0818403910152611a4d565b61247f9291604051613577816119dd602082019460208652805160408401526020810151606084015260408101519060e061379861010093846080880152610140870190613450565b606083015163ffffffff1660a0870152916137bb608082015160c0880190610fa4565b6137d660a082015193603f19948589830301858a0152613484565b9360c08201519087015201519084830301610120850152611a4d565b156137f957565b60405162461bcd60e51b815260206004820152600e60248201526d44697361626c656420726f75746560901b6044820152606490fd5b1561383657565b60405162461bcd60e51b815260206004820152601060248201526f416d6f756e7420746f6f206c6172676560801b6044820152606490fd5b1561387557565b60405162461bcd60e51b81526020600482015260166024820152750696e76616c69642071756f746554696d657374616d760541b6044820152606490fd5b156138ba57565b60405162461bcd60e51b815260206004820152601b60248201527a1b5cd9cb9d985b1d59481b5d5cdd081b585d18da08185b5bdd5b9d602a1b6044820152606490fd5b93909261247f96959260018060a01b038095168652600060208701526040860152606085015263ffffffff809116608085015260a0840152600060c08401521660e0820152600061010082015261014090816101208201520190611a4d565b919596939492909261397c6139776129ca886129bb8b610f16565b6137f2565b60070b936139956706f05b59d3b200006128d78761296e565b6139af6a0c097ce7bc90715b34b9f160241b83111561382f565b63ffffffff936139ee6139c4868b1642612b9c565b867f000000000000000000000000000000000000000000000000000000000000000016101561386e565b61086b5460c01c63ffffffff1698613a086115e08b612bbb565b6001600160a01b03957f00000000000000000000000000000000000000000000000000000000000000008716948a881680871480613af2575b15613ac75750613a528134146138b3565b853b1561033b57600060049660405197888092630d0e30db60e41b825234905af180156126555760008051602061577f83398151915299613aaf97613a9e92613ab4575b505b82614510565b91604051988998169c169a876138fd565b0390a4565b80612b16613ac192610511565b38613a96565b613aaf965060008051602061577f83398151915299613aed83613a9e9330903390612c38565b613a98565b50341515613a41565b929190939481519160005b838110613e06575050505082613b1d575b50505050565b6001600160a01b03848116947f000000000000000000000000000000000000000000000000000000000000000082168603613c8a575050833b1561033b57604051632e1a7d4d60e01b81526004810184905260008160248183895af1801561265557613c77575b50613b94612618610c5b54610381565b90613ba161086a54610381565b91803b1561033b57604051634f9e72ad60e11b81526001600160a01b039390931660048401526000602484018190526060604485015260648401819052908390608490829088905af1908115612655576000805160206157df8339815191529263ffffffff92613c64575b505b857f6b586bc6fa39c7102331e79907a18b84ebbed7742125b742dd5ecc6620502fac86613c3d61086a54610381565b613c4c60405192839283613e4d565b0390a26040519485521692602090a438808080613b17565b80612b16613c7192610511565b38613c0c565b80612b16613c8492610511565b38613b84565b610c5d9160046020613c9f6126188654610381565b604051631f209df760e11b815292839182905afa90811561265557600091613de8575b50168603613d74575061261881613ce986613ce3612618613cef9654610381565b89613e9d565b54610381565b90613cfc61086a54610381565b91803b1561033b576040516370aff70f60e01b8152600481018690526001600160a01b0390931660248401526000908390818381604481015b03925af1908115612655576000805160206157df8339815191529263ffffffff92613d61575b50613c0e565b80612b16613d6e92610511565b38613d5b565b919050613d97612618610c5c613ce987613d916126188454610381565b8a613e9d565b91613da461086a54610381565b833b1561033b57604051632917540d60e11b81526001600160a01b039283166004820152602481018790529116604482015291600090839081838160648101613d35565b613e00915060203d811161264e5761263f8183610590565b38613cc2565b80613e14613e2192846135e7565b5180613e26575b506135d8565b613b06565b613e47906001600160a01b0380613e3d85896135e7565b5116908c16613e68565b38613e1b565b6001600160a01b039091168152602081019190915260400190565b612c7a6103ab9392613e8f60405194859263a9059cbb60e01b602085015260248401613e4d565b03601f198101845283610590565b604051636eb1769f60e11b81523060048201526001600160a01b038084166024830152929390926020908490604490829086165afa92831561265557600093613f11575b508201809211612ba957612c7a6103ab93613e8f60405194859263095ea7b360e01b602085015260248401613e4d565b613f2a91935060203d8111610c2157610c128183610590565b9138613ee1565b6001600160a01b03168015613f7a5761086980546001600160a01b031916821790557fa9e8c42c9e7fca7f62755189a16b2f5314d43d8fb24e91ba54e6d65f9314e849600080a2565b60405162461bcd60e51b81526020600482015260196024820152784261642062726964676520726f75746572206164647265737360381b6044820152606490fd5b6001600160a01b031680156140045761086a80546001600160a01b031916821790557f1f17a88f67b0f49060a34bec1a4723a563620e6aa265eb640b5046dcee0759a0600080a2565b60405162461bcd60e51b81526020600482015260146024820152734261642068756220706f6f6c206164647265737360601b6044820152606490fd5b4603614062575190510361405057565b6040516319a5316760e31b8152600490fd5b604051633d23e4d160e11b8152600490fd5b61407f600291611f9f565b500162ffffff8260081c168060005281602052600160ff60406000205494161b80809416146140bb576000526020526040600020908154179055565b60405163954476d960e01b8152600490fd5b93926042936103ab979660208151910120906040519263ffffffff60208501956000805160206157bf833981519152875216604085015285606085015260070b608084015260018060a01b031660a083015260c082015260c0815261413181610575565b5190209061047f549061048054906040519160208301937fc2f8787176b8ac6bf7215b4adcc1e069bf4ab82d9ab1df05a57a91d425935b6e85526040840152606083015260808201526080815261418781610524565b519020906040519161190160f01b83526002830152602282015220906141e8565b156141af57565b60405162461bcd60e51b8152602060048201526011602482015270696e76616c6964207369676e617475726560781b6044820152606490fd5b91906141f482826142b9565b93909260058510156130bd576103ab941593846142a3575b50831561421c575b5050506141a8565b6000929350908291604051614255816119dd6020820194630b135d3f60e11b998a87526024840152604060448401526064830190611a4d565b51915afa906142626123a5565b82614295575b82614278575b5050388080614214565b61428d91925060208082518301019101612162565b14388061426e565b915060208251101591614268565b6001600160a01b0383811691161493503861420c565b9060418151146000146142e7576142e3916020820151906060604084015193015160001a906142f1565b9091565b5050600090600290565b9291906fa2a8918ca85bafe22016d0b997e4df60600160ff1b03831161435d5791608094939160ff602094604051948552168484015260408301526060820152600093849182805260015afa156126555781516001600160a01b03811615614357579190565b50600190565b50505050600090600390565b906143d3929161439661012082519201519260405192614388846104f1565b835260208301938452611f9f565b50549161357760405180926143be60208301956020875251604080850152608084019061441a565b9051606083015203601f198101835282610590565b156143da57565b60405162461bcd60e51b815260206004820152601860248201527724b73b30b634b21039b637bb903932b630bc90383937b7b360411b6044820152606490fd5b9061247f9161442a828251610fa4565b61443c60208201516020840190610fa4565b61444e60408201516040840190610fa4565b606081015160608301526080810151608083015260a081015160a083015261448060c082015160c084019060070b9052565b60e08181015160070b908301526101008181015163ffffffff1690830152610120809101519161014080928201520190611a4d565b916144f89183516144d260408096015192865192614388846104f1565b505491613577865180926143be602083019560208752518a808501526080840190612fba565b156145005750565b5163582f497d60e11b8152600490fd5b90670de0b6b3a7640000916000828403921283831281169084841390151617612ba957818102918183041490151715612ba9570490565b604051614564816119dd602082019460208652604083019061441a565b51902090565b1561457157565b60405162461bcd60e51b815260206004820152600c60248201526b696e76616c6964206665657360a01b6044820152606490fd5b156145ac57565b60405162461bcd60e51b815260206004820152600c60248201526b1c995b185e48199a5b1b195960a21b6044820152606490fd5b600791820b910b019060016001603f1b0319821260016001603f1b03831317612ba957565b1561460c57565b60405162461bcd60e51b8152602060048201526019602482015278066696c6c20616d6f756e74207072652066656573206973203603c1b6044820152606490fd5b1561465457565b60405162461bcd60e51b815260206004820152601d60248201527f7061796f757441646a7573746d656e7450637420746f6f20736d616c6c0000006044820152606490fd5b156146a057565b60405162461bcd60e51b815260206004820152601d60248201527f7061796f757441646a7573746d656e7450637420746f6f206c617267650000006044820152606490fd5b600160ff1b8114612ba95760000390565b156146fd57565b60405162461bcd60e51b815260206004820152601c60248201527b536f6d65686f7720686974206d6178546f6b656e73546f53656e642160201b6044820152606490fd5b1561474857565b60405162461bcd60e51b815260206004820152601760248201527634b73b30b634b2103932b830bcb6b2b73a1031b430b4b760491b6044820152606490fd5b9061247f949360a093600180861b0380931684526020840152600160408401521660608201528160808201520190611a4d565b6001600160a01b039182168152602081019290925291151560408201529116606082015260a06080820181905261247f92910190611a4d565b9081519160408101926148336706f05b59d3b200008061482561482061481a895160070b90565b60070b90565b61296e565b109081614b8e575b5061456a565b606081016148526a0c097ce7bc90715b34b9f160241b8251111561382f565b602083019061486d6148648351610f42565b548251116145a5565b60c084019283519661489d60c083019861489761488b8b5160070b90565b845160070b5b906145e0565b90614bab565b976148a9891515614605565b6148bf84516148b88751610f42565b5490612b9c565b898110614b84575b5061481a6148ee926148916148e06148e8945160070b90565b915160070b90565b88614510565b936101208601805180614b2f575b50505060a08501518786519160a083015114918215614b21575b50508015614b08575b61492890614741565b6149328351610f42565b61493d888254612bae565b9055606085019161494e8351610381565b926001600160a01b0392338486161480614af1575b614ae7579060406149dc920194878561497c8851610381565b16917f000000000000000000000000000000000000000000000000000000000000000087168303614a9e575050506149bb6129d16101008a0151151590565b614a7f575b6149d6876149d16126188451610381565b614bfc565b51610381565b91823b151580614a71575b6149f5575b50505050505050565b614a07614a0e91608094169451610381565b9451610f42565b549051111594015193813b1561033b5760008094614a44604051978896879586946301d43f2760e31b86523392600487016147ba565b03925af1801561265557614a5e575b8080808080806149ec565b80612b16614a6b92610511565b38614a53565b5060808701515115156149e7565b614a9987614a906126188851610381565b30903390612c38565b6149c0565b614aaf6129d16101008d0151151590565b15614ade5750614ad99150614ac76126188851610381565b614ad18451610381565b903390612c38565b6149d6565b614ad992613e68565b5050505050505050565b50614b036129d16101008a0151151590565b614963565b50614928614b1a610100870151151590565b905061491f565b606001511490508738614916565b95614b6c614b7292614b50614b7c9599670de0b6b3a763ffff19131561464d565b614b6668056bc75e2d6310000082511315614699565b516146e5565b90614510565b94518511156146f6565b3880806148fc565b985061481a6148c7565b9050614ba461482061481a60c086015160070b90565b103861482d565b670de0b6b3a7640000918183029183830403612ba95760070b808303926000821281851281169082861390151617612ba95714614be6570490565b634e487b7160e01b600052601260045260246000fd5b6001600160a01b0390811690813b15614c3c57906103ab92917f000000000000000000000000000000000000000000000000000000000000000016613e68565b7f00000000000000000000000000000000000000000000000000000000000000001691823b1561033b576040518093632e1a7d4d60e01b82528260048301528160246000968780945af1801561265557614d5e575b50804710614d19578280929181925af1614ca96123a5565b5015614cb157565b60405162461bcd60e51b815260206004820152603a60248201527f416464726573733a20756e61626c6520746f2073656e642076616c75652c20726044820152791958da5c1a595b9d081b585e481a185d99481c995d995c9d195960321b6064820152608490fd5b60405162461bcd60e51b815260206004820152601d60248201527f416464726573733a20696e73756666696369656e742062616c616e63650000006044820152606490fd5b614d6790610511565b38614c91565b614d76826130b3565b52565b9060018060a01b038251168152606080614da26020850151608060208601526080850190611a4d565b9360408101516040850152015191614db9836130b3565b015290565b9a97919296614e2095614e3d9a95606061247f9f9d99948f909b614e2b9c60018060a01b03998a80921684521660208301526040820152015260808d015263ffffffff80921660a08d01521660c08b01521660e0890152610100880190610fa4565b610120860190610fa4565b61018080610140860152840190611a4d565b91610160818403910152614d79565b805191610140830190614e63825163ffffffff1690565b63ffffffff42911610611f775760208301516001614e8082610f31565b54600091036150e657506001905b6002614e9982610f31565b54146150d457614ea890610f31565b600290556060850151614eba90610381565b6080860151614ec890610381565b9260a0870151918660c0890151948960a08301519660e082015197610120830151614ef69063ffffffff1690565b9a5163ffffffff1661016084015163ffffffff16906040850151614f1990610381565b928551614f2590610381565b946020870151614f3490610381565b9661018001519760608a0151614f4990610381565b996080810151906040015190614f5d610632565b9b614f68908d612ea7565b60208c015260408b0152614f7f9060608b01614d6d565b6040516001600160a01b03909b169e63ffffffff169d9a9b8c9b614fa39b8d614dbe565b0360008051602061571f83398151915291a46060810151614fc390610381565b6001600160a01b03811692338414806150cc575b613b17576080614fe8910151610381565b6040830151909390926080906001600160a01b0380871690869086907f00000000000000000000000000000000000000000000000000000000000000001683036150bc575061503a9130903390612c38565b6150448584614bfc565b0151913b1515806150b2575b61505a5750505050565b803b1561033b576150889360008094604051968795869485936301d43f2760e31b8552339160048601614787565b03925af180156126555761509f575b808080613b17565b80612b166150ac92610511565b38615097565b5081511515615050565b6150c7923390612c38565b615044565b506001614fd7565b604051630479306360e51b8152600490fd5b90614e8e565b90600082516101408101615104815163ffffffff1690565b63ffffffff42911610611f7757602085015190600261512283610f31565b54146150d4576151328492610f31565b60029055606083015161514490610381565b608084015161515290610381565b9160a08501519060c0860151928960a0810151948860e0810151966101208201516151809063ffffffff1690565b955163ffffffff1661016083015163ffffffff1660408401516151a290610381565b9184516151ae90610381565b9360208601516151bd90610381565b9561018001519660608901516151d290610381565b9860808101519060400151906151e6610632565b9a6151f1908c612ea7565b60208b015260408a0152600260608a01526040519b63ffffffff8d9c169e6152199b8d614dbe565b0360008051602061571f83398151915291a4606084015161523990610381565b6001600160a01b0394909185831691903383148061535f575b615356576080615263910151610381565b9060408101519687818416917f00000000000000000000000000000000000000000000000000000000000000001682146000146153435790608092918761532f575b6152b0915085614bfc565b0151923b151580615325575b6152c9575b505050509050565b813b1561532157836152f59596604051968795869485936301d43f2760e31b8552339160048601614787565b03925af180156126555761530e575b80808084936152c1565b80612b1661531b92610511565b38615304565b8380fd5b50825115156152bc565b61533c9130903390612c38565b38886152a5565b615351908660809493613e68565b6152b0565b50505050509050565b5084615252565b9060018060a01b03825116815260808061538f602085015160a0602086015260a0850190611a4d565b93604081015160070b6040850152606081015115156060850152015191015290565b9a9794919261247f9c9a969361541b9a9895928d5260208d015260408c015260608b015260808a015260070b60a089015260070b60c088015260018060a01b03928380921660e0890152166101008701521661012085015261018080610140860152840190611a4d565b91610160818403910152615366565b90604082015161543a9060070b90565b91606081015161544990610381565b90608081015193610100948583015161546190151590565b610120928385015192615472610651565b9661547d9088612ea7565b602087015260070b604086015215156060850152608084015281516060015160208301516154aa90610f42565b549360a084015193519460808601519560a08101519160e08201516154cf9060070b90565b60c083015160070b9a83015163ffffffff169a60408401516154f090610381565b9184516154fc90610381565b98602086015161550b90610381565b950151956040519a8b9a600160a01b60019003169e63ffffffff169d33966155339b8d6153b1565b037f8ab9dc6c19fe88e69bc70221b339c84332752fdd49591b7c51e66bae3947b73c91a4565b90615563826106c0565b6155706040519182610590565b8281528092615581601f19916106c0565b019060005b82811061559257505050565b806060602080938501015201615586565b9190811015611fbe5760051b81013590601e198136030182121561033b5701803591906001600160401b03831161033b57602001823603811361033b579190565b908092918237016000815290565b60208183031261033b578051906001600160401b03821161033b570181601f8201121561033b5780516156248161065e565b926156326040519485610590565b8184526020828401011161033b5761247f9160208085019101611a2a565b91909161565c83615559565b9260005b81811061566c57505050565b60008061567a8385876155a3565b6040939161568c8551809381936155e4565b0390305af49061569a6123a5565b918290156156c3575050906156be916156b382886135e7565b52613e1b81876135e7565b615660565b6044839293511061033b576156e9610be1916004809401602480915183010191016155f2565b925162461bcd60e51b8152928392830161246e56fe4910fdfa16fed3260ed0e7147f7cc6da11a60208b5b9406d12a635614ffd914332cb2beef51cc3e8592639aa435309d1087da595cff201a7640ce5c2187d719746756e6374696f6e206d7573742062652063616c6c6564207468726f75676820360894a13ba1a3210667c828492db98dca3e2076cc3735a920a3ca505d382bbcc289887301839694cf27e1d254c3b54c9bba4824f29bba3a63c2c138e7e4e181bc7cd75a20ee27fd9adebab32041f755214dbc6bffa90cc0225b39da2e5c2d3b0e058f05b73c62ee68329d2c67c067aaae9a06503cc306378d144d0f0177882b7c3d4d7fa0beeb997103f1aeca4922365ea469a3e7e88db965a128bbe6a2f632a2646970667358221220b897167e3dd5c02d9842c17b2e1e780cfe5134b96441409b9f486298eed9d85264736f6c63430008130033"
}