{
  "address": "0x5991E7f6317b9D5e0044d5331FB8Fa6B33731EFA",
  "abi": [
    {
      "inputs": [
        {
          "internalType": "uint256",
          "name": "index",
          "type": "uint256"
        },
        {
          "components": [
            {
              "internalType": "address",
              "name": "target",
              "type": "address"
            },
            {
              "internalType": "bytes",
              "name": "callData",
              "type": "bytes"
            },
            {
              "internalType": "uint256",
              "name": "value",
              "type": "uint256"
            }
          ],
          "internalType": "struct MulticallHandler.Call[]",
          "name": "calls",
          "type": "tuple[]"
        }
      ],
      "name": "CallReverted",
      "type": "error"
    },
    {
      "inputs": [
        {
          "internalType": "uint256",
          "name": "index",
          "type": "uint256"
        },
        {
          "components": [
            {
              "internalType": "address",
              "name": "target",
              "type": "address"
            },
            {
              "internalType": "bytes",
              "name": "callData",
              "type": "bytes"
            },
            {
              "internalType": "uint256",
              "name": "value",
              "type": "uint256"
            }
          ],
          "internalType": "struct MulticallHandler.Call[]",
          "name": "calls",
          "type": "tuple[]"
        }
      ],
      "name": "InvalidCall",
      "type": "error"
    },
    {
      "inputs": [],
      "name": "NotSelf",
      "type": "error"
    },
    {
      "anonymous": false,
      "inputs": [
        {
          "components": [
            {
              "internalType": "address",
              "name": "target",
              "type": "address"
            },
            {
              "internalType": "bytes",
              "name": "callData",
              "type": "bytes"
            },
            {
              "internalType": "uint256",
              "name": "value",
              "type": "uint256"
            }
          ],
          "indexed": false,
          "internalType": "struct MulticallHandler.Call[]",
          "name": "calls",
          "type": "tuple[]"
        },
        {
          "indexed": true,
          "internalType": "address",
          "name": "fallbackRecipient",
          "type": "address"
        }
      ],
      "name": "CallsFailed",
      "type": "event"
    },
    {
      "anonymous": false,
      "inputs": [
        {
          "indexed": true,
          "internalType": "address",
          "name": "recipient",
          "type": "address"
        },
        {
          "indexed": true,
          "internalType": "address",
          "name": "token",
          "type": "address"
        },
        {
          "indexed": true,
          "internalType": "uint256",
          "name": "amount",
          "type": "uint256"
        }
      ],
      "name": "DrainedTokens",
      "type": "event"
    },
    {
      "inputs": [
        {
          "components": [
            {
              "internalType": "address",
              "name": "target",
              "type": "address"
            },
            {
              "internalType": "bytes",
              "name": "callData",
              "type": "bytes"
            },
            {
              "internalType": "uint256",
              "name": "value",
              "type": "uint256"
            }
          ],
          "internalType": "struct MulticallHandler.Call[]",
          "name": "calls",
          "type": "tuple[]"
        }
      ],
      "name": "attemptCalls",
      "outputs": [],
      "stateMutability": "nonpayable",
      "type": "function"
    },
    {
      "inputs": [
        {
          "internalType": "address",
          "name": "token",
          "type": "address"
        },
        {
          "internalType": "address payable",
          "name": "destination",
          "type": "address"
        }
      ],
      "name": "drainLeftoverTokens",
      "outputs": [],
      "stateMutability": "nonpayable",
      "type": "function"
    },
    {
      "inputs": [
        {
          "internalType": "address",
          "name": "token",
          "type": "address"
        },
        {
          "internalType": "uint256",
          "name": "",
          "type": "uint256"
        },
        {
          "internalType": "address",
          "name": "",
          "type": "address"
        },
        {
          "internalType": "bytes",
          "name": "message",
          "type": "bytes"
        }
      ],
      "name": "handleV3AcrossMessage",
      "outputs": [],
      "stateMutability": "nonpayable",
      "type": "function"
    },
    {
      "stateMutability": "payable",
      "type": "receive"
    }
  ],
  "transactionHash": "0x69e653a502aaecbd30099073bb9917c031dab882c09299a9c99c51daf67f2d5c",
  "args": [],
  "numDeployments": 1,
  "solcInputHash": "b63cc48fc05ecada8e97193bface5a63",
  "bytecode": "0x6080806040523461001b576001600055610bf390816100218239f35b600080fdfe60406080815260049081361015610020575b5050361561001e57600080fd5b005b600091823560e01c9081633a5be8cb14610353578163a58d50d3146100be575063ef8738d30361001157346100ba577ffffffffffffffffffffffffffffffffffffffffffffffffffffffffffffffffc3601126100b75761007f6103e8565b60243573ffffffffffffffffffffffffffffffffffffffff811681036100b3576100b0916100ab610b61565b61096d565b80f35b8280fd5b80fd5b5080fd5b9050346100b3576020807ffffffffffffffffffffffffffffffffffffffffffffffffffffffffffffffffc36011261034f5781359267ffffffffffffffff9081851161034b573660238601121561034b5784840135946024906101208761051d565b9361012d8451958661045b565b878552858501908360059960051b8401019236841161034757848101925b8484106102a257505050505061015f610b61565b825195875b87811061016f578880f35b8451811015610277578581831b8601015186810190815151151580610257575b610218578a91818773ffffffffffffffffffffffffffffffffffffffff859451169101519151918a83519301915af16101c661063d565b50156101d457600101610164565b965050610214935081519586957fe462c4400000000000000000000000000000000000000000000000000000000087528601528401526044830190610579565b0390fd5b85517fe237730c000000000000000000000000000000000000000000000000000000008152808a0184905280860187905280610214604482018a610579565b5073ffffffffffffffffffffffffffffffffffffffff8151163b1561018f565b82896032897f4e487b7100000000000000000000000000000000000000000000000000000000835252fd5b833583811161034357820160607fffffffffffffffffffffffffffffffffffffffffffffffffffffffffffffffdc8236030112610343578751916102e583610410565b8782013573ffffffffffffffffffffffffffffffffffffffff8116810361033f57835260448201359285841161033f5760648c949361032a86958c36918401016104d6565b8584015201358a82015281520193019261014b565b8e80fd5b8c80fd5b8a80fd5b8580fd5b8380fd5b8390346100ba5760807ffffffffffffffffffffffffffffffffffffffffffffffffffffffffffffffffc3601126100ba5761038c6103e8565b9060443573ffffffffffffffffffffffffffffffffffffffff8116036100b3576064359067ffffffffffffffff821161034f576103cb913691016104d6565b60028354146100b3576103e1916002845561066d565b6001815580f35b6004359073ffffffffffffffffffffffffffffffffffffffff8216820361040b57565b600080fd5b6060810190811067ffffffffffffffff82111761042c57604052565b7f4e487b7100000000000000000000000000000000000000000000000000000000600052604160045260246000fd5b90601f7fffffffffffffffffffffffffffffffffffffffffffffffffffffffffffffffe0910116810190811067ffffffffffffffff82111761042c57604052565b67ffffffffffffffff811161042c57601f017fffffffffffffffffffffffffffffffffffffffffffffffffffffffffffffffe01660200190565b81601f8201121561040b578035906104ed8261049c565b926104fb604051948561045b565b8284526020838301011161040b57816000926020809301838601378301015290565b67ffffffffffffffff811161042c5760051b60200190565b519073ffffffffffffffffffffffffffffffffffffffff8216820361040b57565b60005b8381106105695750506000910152565b8181015183820152602001610559565b908082519081815260208091019281808460051b8301019501936000915b8483106105a75750505050505090565b90919293949584806001927fffffffffffffffffffffffffffffffffffffffffffffffffffffffffffffffe090818682030187528a5191601f606073ffffffffffffffffffffffffffffffffffffffff8551168452858501519481878601528551809286015261061f82608097898989019101610556565b60408091015190850152011601019801930193019194939290610597565b3d15610668573d9061064e8261049c565b9161065c604051938461045b565b82523d6000602084013e565b606090565b815160209083019281840193828282031261040b578282015167ffffffffffffffff9283821161040b570190604091828183031261040b578251918383018381108682111761042c5784528582015185811161040b5782019088603f8301121561040b57868201516106de8161051d565b996106eb87519b8c61045b565b818b5286898c019260051b8501019381851161040b57908188809695949301925b8584106108a1575050505050506107269188845201610535565b938082019385855273ffffffffffffffffffffffffffffffffffffffff8096161561082a57506107e29650600080835185516107c281610796878201947fa58d50d30000000000000000000000000000000000000000000000000000000086528860248401526044830190610579565b037fffffffffffffffffffffffffffffffffffffffffffffffffffffffffffffffe0810183528261045b565b519082305af16107d061063d565b50156107e4575b50505051169061096d565b565b7f5296f22c5d0413b66d0bf45c479c4e2ca5b278634bdbd028b48e49502105f96691519061081f868651169451928284938452830190610579565b0390a23880806107d7565b94509250509250303b1561040b5761087893600091845195869283927fa58d50d300000000000000000000000000000000000000000000000000000000845260048401526024830190610579565b038183305af180156108965761088d57505050565b821161042c5752565b82513d6000823e3d90fd5b9091928094959650518a811161040b5782019060607fffffffffffffffffffffffffffffffffffffffffffffffffffffffffffffffe0838803011261040b578951906108ec82610410565b6108f78b8401610535565b825260608301518c811161040b5783019185605f8401121561040b57828c01518c9461092e6109258361049c565b9651968761045b565b818652876060838701011161040b578f95610953608093889760608985019101610556565b8584015201518c820152815201930191908895949361070c565b73ffffffffffffffffffffffffffffffffffffffff91908216908115610b2f57604051927f70a082310000000000000000000000000000000000000000000000000000000084523060048501526020918285602481875afa948515610b2357600095610af4575b50846109e2575b5050505050565b16906040518181017fa9059cbb000000000000000000000000000000000000000000000000000000008152836024830152856044830152604482526080820167ffffffffffffffff918382108383111761042c5760c084019283118284101761042c57610a8f9385600094938594604052527f5361666545524332303a206c6f772d6c6576656c2063616c6c206661696c656460a0820152519082885af1610a8861063d565b9085610b94565b8051918215918215610ad4575b505090501561040b577f74d3741ef03417659087d2ec6af11dade8713f9b7f592569d60cf1ea0c9a4455600080a438808080806109db565b80925081938101031261040b570151801515810361040b57803880610a9c565b90948382813d8311610b1c575b610b0b818361045b565b810103126100b757505193386109d4565b503d610b01565b6040513d6000823e3d90fd5b4792915082610b3d57505050565b82471061040b57600080809481948294165af1610b5861063d565b50156100b75750565b303303610b6a57565b60046040517f29c3b7ee000000000000000000000000000000000000000000000000000000008152fd5b9015610bae57815115610ba5575090565b3b1561040b5790565b50805190811561040b57602001fdfea264697066735822122061cba1e20a6cd6c8b7e838b05112a8135e580c2315cef579b1c9838d8763ed8564736f6c63430008170033",
  "devdoc": {
    "details": "This contract makes the calls blindly. The contract will send any remaining tokens The caller should ensure that the tokens recieved by the handler are completely consumed.",
    "kind": "dev",
    "methods": {
      "handleV3AcrossMessage(address,uint256,address,bytes)": {
        "details": "This will execute all calls encoded in the msg. The caller is responsible for making sure all tokens are drained from this contract by the end of the series of calls. If not, they can be stolen. A drainLeftoverTokens call can be included as a way to drain any remaining tokens from this contract.",
        "params": {
          "message": "abi encoded array of Call structs, containing a target, callData, and value for each call that the contract should make."
        }
      }
    },
    "title": "Across Multicall contract that allows a user to specify a series of calls that should be made by the handler via the message field in the deposit.",
    "version": 1
  },
  "userdoc": {
    "kind": "user",
    "methods": {
      "handleV3AcrossMessage(address,uint256,address,bytes)": {
        "notice": "Main entrypoint for the handler called by the SpokePool contract."
      }
    },
    "version": 1
  },
  "storageLayout": {
    "storage": [
      {
        "astId": 5310,
        "contract": "contracts/handlers/MulticallHandler.sol:MulticallHandler",
        "label": "_status",
        "offset": 0,
        "slot": "0",
        "type": "t_uint256"
      }
    ],
    "types": {
      "t_uint256": {
        "encoding": "inplace",
        "label": "uint256",
        "numberOfBytes": "32"
      }
    }
  }
}