{
  "address": "0x09aea4b2242abC8bb4BB78D537A67a245A7bEC64",
  "abi": [
    {
      "inputs": [
        {
          "internalType": "address",
          "name": "_wrappedNativeTokenAddress",
          "type": "address"
        },
        {
          "internalType": "uint32",
          "name": "_depositQuoteTimeBuffer",
          "type": "uint32"
        },
        {
          "internalType": "uint32",
          "name": "_fillDeadlineBuffer",
          "type": "uint32"
        }
      ],
      "stateMutability": "nonpayable",
      "type": "constructor"
    },
    {
      "inputs": [],
      "name": "AdminCallNotValidated",
      "type": "error"
    },
    {
      "inputs": [],
      "name": "AdminCallValidatedAlreadySet",
      "type": "error"
    },
    {
      "inputs": [],
      "name": "CallerNotBridge",
      "type": "error"
    },
    {
      "inputs": [],
      "name": "ClaimedMerkleLeaf",
      "type": "error"
    },
    {
      "inputs": [],
      "name": "DepositsArePaused",
      "type": "error"
    },
    {
      "inputs": [],
      "name": "DisabledRoute",
      "type": "error"
    },
    {
      "inputs": [],
      "name": "ExpiredFillDeadline",
      "type": "error"
    },
    {
      "inputs": [],
      "name": "FillsArePaused",
      "type": "error"
    },
    {
      "inputs": [],
      "name": "InsufficientSpokePoolBalanceToExecuteLeaf",
      "type": "error"
    },
    {
      "inputs": [],
      "name": "InvalidBytes32",
      "type": "error"
    },
    {
      "inputs": [],
      "name": "InvalidChainId",
      "type": "error"
    },
    {
      "inputs": [],
      "name": "InvalidCrossDomainAdmin",
      "type": "error"
    },
    {
      "inputs": [],
      "name": "InvalidDepositorSignature",
      "type": "error"
    },
    {
      "inputs": [],
      "name": "InvalidExclusiveRelayer",
      "type": "error"
    },
    {
      "inputs": [],
      "name": "InvalidFillDeadline",
      "type": "error"
    },
    {
      "inputs": [],
      "name": "InvalidMerkleLeaf",
      "type": "error"
    },
    {
      "inputs": [],
      "name": "InvalidMerkleProof",
      "type": "error"
    },
    {
      "inputs": [],
      "name": "InvalidPayoutAdjustmentPct",
      "type": "error"
    },
    {
      "inputs": [],
      "name": "InvalidQuoteTimestamp",
      "type": "error"
    },
    {
      "inputs": [],
      "name": "InvalidRelayerFeePct",
      "type": "error"
    },
    {
      "inputs": [],
      "name": "InvalidSlowFillRequest",
      "type": "error"
    },
    {
      "inputs": [],
      "name": "InvalidWithdrawalRecipient",
      "type": "error"
    },
    {
      "inputs": [
        {
          "internalType": "bytes",
          "name": "data",
          "type": "bytes"
        }
      ],
      "name": "LowLevelCallFailed",
      "type": "error"
    },
    {
      "inputs": [],
      "name": "MaxTransferSizeExceeded",
      "type": "error"
    },
    {
      "inputs": [],
      "name": "MsgValueDoesNotMatchInputAmount",
      "type": "error"
    },
    {
      "inputs": [],
      "name": "NoRelayerRefundToClaim",
      "type": "error"
    },
    {
      "inputs": [],
      "name": "NoSlowFillsInExclusivityWindow",
      "type": "error"
    },
    {
      "inputs": [],
      "name": "NotEOA",
      "type": "error"
    },
    {
      "inputs": [],
      "name": "NotExclusiveRelayer",
      "type": "error"
    },
    {
      "inputs": [],
      "name": "OriginSenderNotCrossDomain",
      "type": "error"
    },
    {
      "inputs": [],
      "name": "RelayFilled",
      "type": "error"
    },
    {
      "inputs": [],
      "name": "SourceChainNotHubChain",
      "type": "error"
    },
    {
      "inputs": [],
      "name": "WrongERC7683OrderId",
      "type": "error"
    },
    {
      "anonymous": false,
      "inputs": [
        {
          "indexed": false,
          "internalType": "address",
          "name": "previousAdmin",
          "type": "address"
        },
        {
          "indexed": false,
          "internalType": "address",
          "name": "newAdmin",
          "type": "address"
        }
      ],
      "name": "AdminChanged",
      "type": "event"
    },
    {
      "anonymous": false,
      "inputs": [
        {
          "indexed": true,
          "internalType": "address",
          "name": "beacon",
          "type": "address"
        }
      ],
      "name": "BeaconUpgraded",
      "type": "event"
    },
    {
      "anonymous": false,
      "inputs": [
        {
          "indexed": true,
          "internalType": "bytes32",
          "name": "l2TokenAddress",
          "type": "bytes32"
        },
        {
          "indexed": true,
          "internalType": "bytes32",
          "name": "refundAddress",
          "type": "bytes32"
        },
        {
          "indexed": false,
          "internalType": "uint256",
          "name": "amount",
          "type": "uint256"
        },
        {
          "indexed": true,
          "internalType": "address",
          "name": "caller",
          "type": "address"
        }
      ],
      "name": "ClaimedRelayerRefund",
      "type": "event"
    },
    {
      "anonymous": false,
      "inputs": [
        {
          "indexed": true,
          "internalType": "uint256",
          "name": "rootBundleId",
          "type": "uint256"
        }
      ],
      "name": "EmergencyDeletedRootBundle",
      "type": "event"
    },
    {
      "anonymous": false,
      "inputs": [
        {
          "indexed": true,
          "internalType": "address",
          "name": "originToken",
          "type": "address"
        },
        {
          "indexed": true,
          "internalType": "uint256",
          "name": "destinationChainId",
          "type": "uint256"
        },
        {
          "indexed": false,
          "internalType": "bool",
          "name": "enabled",
          "type": "bool"
        }
      ],
      "name": "EnabledDepositRoute",
      "type": "event"
    },
    {
      "anonymous": false,
      "inputs": [
        {
          "indexed": false,
          "internalType": "uint256",
          "name": "amountToReturn",
          "type": "uint256"
        },
        {
          "indexed": true,
          "internalType": "uint256",
          "name": "chainId",
          "type": "uint256"
        },
        {
          "indexed": false,
          "internalType": "uint256[]",
          "name": "refundAmounts",
          "type": "uint256[]"
        },
        {
          "indexed": true,
          "internalType": "uint32",
          "name": "rootBundleId",
          "type": "uint32"
        },
        {
          "indexed": true,
          "internalType": "uint32",
          "name": "leafId",
          "type": "uint32"
        },
        {
          "indexed": false,
          "internalType": "address",
          "name": "l2TokenAddress",
          "type": "address"
        },
        {
          "indexed": false,
          "internalType": "address[]",
          "name": "refundAddresses",
          "type": "address[]"
        },
        {
          "indexed": false,
          "internalType": "bool",
          "name": "deferredRefunds",
          "type": "bool"
        },
        {
          "indexed": false,
          "internalType": "address",
          "name": "caller",
          "type": "address"
        }
      ],
      "name": "ExecutedRelayerRefundRoot",
      "type": "event"
    },
    {
      "anonymous": false,
      "inputs": [
        {
          "indexed": false,
          "internalType": "bytes32",
          "name": "inputToken",
          "type": "bytes32"
        },
        {
          "indexed": false,
          "internalType": "bytes32",
          "name": "outputToken",
          "type": "bytes32"
        },
        {
          "indexed": false,
          "internalType": "uint256",
          "name": "inputAmount",
          "type": "uint256"
        },
        {
          "indexed": false,
          "internalType": "uint256",
          "name": "outputAmount",
          "type": "uint256"
        },
        {
          "indexed": false,
          "internalType": "uint256",
          "name": "repaymentChainId",
          "type": "uint256"
        },
        {
          "indexed": true,
          "internalType": "uint256",
          "name": "originChainId",
          "type": "uint256"
        },
        {
          "indexed": true,
          "internalType": "uint256",
          "name": "depositId",
          "type": "uint256"
        },
        {
          "indexed": false,
          "internalType": "uint32",
          "name": "fillDeadline",
          "type": "uint32"
        },
        {
          "indexed": false,
          "internalType": "uint32",
          "name": "exclusivityDeadline",
          "type": "uint32"
        },
        {
          "indexed": false,
          "internalType": "bytes32",
          "name": "exclusiveRelayer",
          "type": "bytes32"
        },
        {
          "indexed": true,
          "internalType": "bytes32",
          "name": "relayer",
          "type": "bytes32"
        },
        {
          "indexed": false,
          "internalType": "bytes32",
          "name": "depositor",
          "type": "bytes32"
        },
        {
          "indexed": false,
          "internalType": "bytes32",
          "name": "recipient",
          "type": "bytes32"
        },
        {
          "indexed": false,
          "internalType": "bytes32",
          "name": "messageHash",
          "type": "bytes32"
        },
        {
          "components": [
            {
              "internalType": "bytes32",
              "name": "updatedRecipient",
              "type": "bytes32"
            },
            {
              "internalType": "bytes32",
              "name": "updatedMessageHash",
              "type": "bytes32"
            },
            {
              "internalType": "uint256",
              "name": "updatedOutputAmount",
              "type": "uint256"
            },
            {
              "internalType": "enum V3SpokePoolInterface.FillType",
              "name": "fillType",
              "type": "uint8"
            }
          ],
          "indexed": false,
          "internalType": "struct V3SpokePoolInterface.V3RelayExecutionEventInfo",
          "name": "relayExecutionInfo",
          "type": "tuple"
        }
      ],
      "name": "FilledRelay",
      "type": "event"
    },
    {
      "anonymous": false,
      "inputs": [
        {
          "indexed": false,
          "internalType": "address",
          "name": "inputToken",
          "type": "address"
        },
        {
          "indexed": false,
          "internalType": "address",
          "name": "outputToken",
          "type": "address"
        },
        {
          "indexed": false,
          "internalType": "uint256",
          "name": "inputAmount",
          "type": "uint256"
        },
        {
          "indexed": false,
          "internalType": "uint256",
          "name": "outputAmount",
          "type": "uint256"
        },
        {
          "indexed": false,
          "internalType": "uint256",
          "name": "repaymentChainId",
          "type": "uint256"
        },
        {
          "indexed": true,
          "internalType": "uint256",
          "name": "originChainId",
          "type": "uint256"
        },
        {
          "indexed": true,
          "internalType": "uint32",
          "name": "depositId",
          "type": "uint32"
        },
        {
          "indexed": false,
          "internalType": "uint32",
          "name": "fillDeadline",
          "type": "uint32"
        },
        {
          "indexed": false,
          "internalType": "uint32",
          "name": "exclusivityDeadline",
          "type": "uint32"
        },
        {
          "indexed": false,
          "internalType": "address",
          "name": "exclusiveRelayer",
          "type": "address"
        },
        {
          "indexed": true,
          "internalType": "address",
          "name": "relayer",
          "type": "address"
        },
        {
          "indexed": false,
          "internalType": "address",
          "name": "depositor",
          "type": "address"
        },
        {
          "indexed": false,
          "internalType": "address",
          "name": "recipient",
          "type": "address"
        },
        {
          "indexed": false,
          "internalType": "bytes",
          "name": "message",
          "type": "bytes"
        },
        {
          "components": [
            {
              "internalType": "address",
              "name": "updatedRecipient",
              "type": "address"
            },
            {
              "internalType": "bytes",
              "name": "updatedMessage",
              "type": "bytes"
            },
            {
              "internalType": "uint256",
              "name": "updatedOutputAmount",
              "type": "uint256"
            },
            {
              "internalType": "enum V3SpokePoolInterface.FillType",
              "name": "fillType",
              "type": "uint8"
            }
          ],
          "indexed": false,
          "internalType": "struct V3SpokePoolInterface.LegacyV3RelayExecutionEventInfo",
          "name": "relayExecutionInfo",
          "type": "tuple"
        }
      ],
      "name": "FilledV3Relay",
      "type": "event"
    },
    {
      "anonymous": false,
      "inputs": [
        {
          "indexed": false,
          "internalType": "bytes32",
          "name": "inputToken",
          "type": "bytes32"
        },
        {
          "indexed": false,
          "internalType": "bytes32",
          "name": "outputToken",
          "type": "bytes32"
        },
        {
          "indexed": false,
          "internalType": "uint256",
          "name": "inputAmount",
          "type": "uint256"
        },
        {
          "indexed": false,
          "internalType": "uint256",
          "name": "outputAmount",
          "type": "uint256"
        },
        {
          "indexed": true,
          "internalType": "uint256",
          "name": "destinationChainId",
          "type": "uint256"
        },
        {
          "indexed": true,
          "internalType": "uint256",
          "name": "depositId",
          "type": "uint256"
        },
        {
          "indexed": false,
          "internalType": "uint32",
          "name": "quoteTimestamp",
          "type": "uint32"
        },
        {
          "indexed": false,
          "internalType": "uint32",
          "name": "fillDeadline",
          "type": "uint32"
        },
        {
          "indexed": false,
          "internalType": "uint32",
          "name": "exclusivityDeadline",
          "type": "uint32"
        },
        {
          "indexed": true,
          "internalType": "bytes32",
          "name": "depositor",
          "type": "bytes32"
        },
        {
          "indexed": false,
          "internalType": "bytes32",
          "name": "recipient",
          "type": "bytes32"
        },
        {
          "indexed": false,
          "internalType": "bytes32",
          "name": "exclusiveRelayer",
          "type": "bytes32"
        },
        {
          "indexed": false,
          "internalType": "bytes",
          "name": "message",
          "type": "bytes"
        }
      ],
      "name": "FundsDeposited",
      "type": "event"
    },
    {
      "anonymous": false,
      "inputs": [
        {
          "indexed": false,
          "internalType": "uint8",
          "name": "version",
          "type": "uint8"
        }
      ],
      "name": "Initialized",
      "type": "event"
    },
    {
      "anonymous": false,
      "inputs": [
        {
          "indexed": false,
          "internalType": "bool",
          "name": "isPaused",
          "type": "bool"
        }
      ],
      "name": "PausedDeposits",
      "type": "event"
    },
    {
      "anonymous": false,
      "inputs": [
        {
          "indexed": false,
          "internalType": "bool",
          "name": "isPaused",
          "type": "bool"
        }
      ],
      "name": "PausedFills",
      "type": "event"
    },
    {
      "anonymous": false,
      "inputs": [
        {
          "indexed": true,
          "internalType": "address",
          "name": "caller",
          "type": "address"
        },
        {
          "indexed": true,
          "internalType": "address",
          "name": "originAddress",
          "type": "address"
        }
      ],
      "name": "ReceivedMessageFromL1",
      "type": "event"
    },
    {
      "anonymous": false,
      "inputs": [
        {
          "indexed": true,
          "internalType": "uint32",
          "name": "rootBundleId",
          "type": "uint32"
        },
        {
          "indexed": true,
          "internalType": "bytes32",
          "name": "relayerRefundRoot",
          "type": "bytes32"
        },
        {
          "indexed": true,
          "internalType": "bytes32",
          "name": "slowRelayRoot",
          "type": "bytes32"
        }
      ],
      "name": "RelayedRootBundle",
      "type": "event"
    },
    {
      "anonymous": false,
      "inputs": [
        {
          "indexed": false,
          "internalType": "bytes32",
          "name": "inputToken",
          "type": "bytes32"
        },
        {
          "indexed": false,
          "internalType": "bytes32",
          "name": "outputToken",
          "type": "bytes32"
        },
        {
          "indexed": false,
          "internalType": "uint256",
          "name": "inputAmount",
          "type": "uint256"
        },
        {
          "indexed": false,
          "internalType": "uint256",
          "name": "outputAmount",
          "type": "uint256"
        },
        {
          "indexed": true,
          "internalType": "uint256",
          "name": "originChainId",
          "type": "uint256"
        },
        {
          "indexed": true,
          "internalType": "uint256",
          "name": "depositId",
          "type": "uint256"
        },
        {
          "indexed": false,
          "internalType": "uint32",
          "name": "fillDeadline",
          "type": "uint32"
        },
        {
          "indexed": false,
          "internalType": "uint32",
          "name": "exclusivityDeadline",
          "type": "uint32"
        },
        {
          "indexed": false,
          "internalType": "bytes32",
          "name": "exclusiveRelayer",
          "type": "bytes32"
        },
        {
          "indexed": false,
          "internalType": "bytes32",
          "name": "depositor",
          "type": "bytes32"
        },
        {
          "indexed": false,
          "internalType": "bytes32",
          "name": "recipient",
          "type": "bytes32"
        },
        {
          "indexed": false,
          "internalType": "bytes32",
          "name": "messageHash",
          "type": "bytes32"
        }
      ],
      "name": "RequestedSlowFill",
      "type": "event"
    },
    {
      "anonymous": false,
      "inputs": [
        {
          "indexed": false,
          "internalType": "uint256",
          "name": "updatedOutputAmount",
          "type": "uint256"
        },
        {
          "indexed": true,
          "internalType": "uint256",
          "name": "depositId",
          "type": "uint256"
        },
        {
          "indexed": true,
          "internalType": "bytes32",
          "name": "depositor",
          "type": "bytes32"
        },
        {
          "indexed": false,
          "internalType": "bytes32",
          "name": "updatedRecipient",
          "type": "bytes32"
        },
        {
          "indexed": false,
          "internalType": "bytes",
          "name": "updatedMessage",
          "type": "bytes"
        },
        {
          "indexed": false,
          "internalType": "bytes",
          "name": "depositorSignature",
          "type": "bytes"
        }
      ],
      "name": "RequestedSpeedUpDeposit",
      "type": "event"
    },
    {
      "anonymous": false,
      "inputs": [
        {
          "indexed": false,
          "internalType": "uint256",
          "name": "updatedOutputAmount",
          "type": "uint256"
        },
        {
          "indexed": true,
          "internalType": "uint32",
          "name": "depositId",
          "type": "uint32"
        },
        {
          "indexed": true,
          "internalType": "address",
          "name": "depositor",
          "type": "address"
        },
        {
          "indexed": false,
          "internalType": "address",
          "name": "updatedRecipient",
          "type": "address"
        },
        {
          "indexed": false,
          "internalType": "bytes",
          "name": "updatedMessage",
          "type": "bytes"
        },
        {
          "indexed": false,
          "internalType": "bytes",
          "name": "depositorSignature",
          "type": "bytes"
        }
      ],
      "name": "RequestedSpeedUpV3Deposit",
      "type": "event"
    },
    {
      "anonymous": false,
      "inputs": [
        {
          "indexed": false,
          "internalType": "address",
          "name": "inputToken",
          "type": "address"
        },
        {
          "indexed": false,
          "internalType": "address",
          "name": "outputToken",
          "type": "address"
        },
        {
          "indexed": false,
          "internalType": "uint256",
          "name": "inputAmount",
          "type": "uint256"
        },
        {
          "indexed": false,
          "internalType": "uint256",
          "name": "outputAmount",
          "type": "uint256"
        },
        {
          "indexed": true,
          "internalType": "uint256",
          "name": "originChainId",
          "type": "uint256"
        },
        {
          "indexed": true,
          "internalType": "uint32",
          "name": "depositId",
          "type": "uint32"
        },
        {
          "indexed": false,
          "internalType": "uint32",
          "name": "fillDeadline",
          "type": "uint32"
        },
        {
          "indexed": false,
          "internalType": "uint32",
          "name": "exclusivityDeadline",
          "type": "uint32"
        },
        {
          "indexed": false,
          "internalType": "address",
          "name": "exclusiveRelayer",
          "type": "address"
        },
        {
          "indexed": false,
          "internalType": "address",
          "name": "depositor",
          "type": "address"
        },
        {
          "indexed": false,
          "internalType": "address",
          "name": "recipient",
          "type": "address"
        },
        {
          "indexed": false,
          "internalType": "bytes",
          "name": "message",
          "type": "bytes"
        }
      ],
      "name": "RequestedV3SlowFill",
      "type": "event"
    },
    {
      "anonymous": false,
      "inputs": [
        {
          "indexed": true,
          "internalType": "address",
          "name": "newPolygonZkEVMBridge",
          "type": "address"
        },
        {
          "indexed": true,
          "internalType": "address",
          "name": "oldPolygonZkEVMBridge",
          "type": "address"
        }
      ],
      "name": "SetPolygonZkEVMBridge",
      "type": "event"
    },
    {
      "anonymous": false,
      "inputs": [
        {
          "indexed": true,
          "internalType": "address",
          "name": "newWithdrawalRecipient",
          "type": "address"
        }
      ],
      "name": "SetWithdrawalRecipient",
      "type": "event"
    },
    {
      "anonymous": false,
      "inputs": [
        {
          "indexed": true,
          "internalType": "address",
          "name": "newAdmin",
          "type": "address"
        }
      ],
      "name": "SetXDomainAdmin",
      "type": "event"
    },
    {
      "anonymous": false,
      "inputs": [
        {
          "indexed": false,
          "internalType": "uint256",
          "name": "amountToReturn",
          "type": "uint256"
        },
        {
          "indexed": true,
          "internalType": "uint256",
          "name": "chainId",
          "type": "uint256"
        },
        {
          "indexed": true,
          "internalType": "uint32",
          "name": "leafId",
          "type": "uint32"
        },
        {
          "indexed": true,
          "internalType": "bytes32",
          "name": "l2TokenAddress",
          "type": "bytes32"
        },
        {
          "indexed": false,
          "internalType": "address",
          "name": "caller",
          "type": "address"
        }
      ],
      "name": "TokensBridged",
      "type": "event"
    },
    {
      "anonymous": false,
      "inputs": [
        {
          "indexed": true,
          "internalType": "address",
          "name": "implementation",
          "type": "address"
        }
      ],
      "name": "Upgraded",
      "type": "event"
    },
    {
      "anonymous": false,
      "inputs": [
        {
          "indexed": false,
          "internalType": "address",
          "name": "inputToken",
          "type": "address"
        },
        {
          "indexed": false,
          "internalType": "address",
          "name": "outputToken",
          "type": "address"
        },
        {
          "indexed": false,
          "internalType": "uint256",
          "name": "inputAmount",
          "type": "uint256"
        },
        {
          "indexed": false,
          "internalType": "uint256",
          "name": "outputAmount",
          "type": "uint256"
        },
        {
          "indexed": true,
          "internalType": "uint256",
          "name": "destinationChainId",
          "type": "uint256"
        },
        {
          "indexed": true,
          "internalType": "uint32",
          "name": "depositId",
          "type": "uint32"
        },
        {
          "indexed": false,
          "internalType": "uint32",
          "name": "quoteTimestamp",
          "type": "uint32"
        },
        {
          "indexed": false,
          "internalType": "uint32",
          "name": "fillDeadline",
          "type": "uint32"
        },
        {
          "indexed": false,
          "internalType": "uint32",
          "name": "exclusivityDeadline",
          "type": "uint32"
        },
        {
          "indexed": true,
          "internalType": "address",
          "name": "depositor",
          "type": "address"
        },
        {
          "indexed": false,
          "internalType": "address",
          "name": "recipient",
          "type": "address"
        },
        {
          "indexed": false,
          "internalType": "address",
          "name": "exclusiveRelayer",
          "type": "address"
        },
        {
          "indexed": false,
          "internalType": "bytes",
          "name": "message",
          "type": "bytes"
        }
      ],
      "name": "V3FundsDeposited",
      "type": "event"
    },
    {
      "inputs": [],
      "name": "EMPTY_RELAYER",
      "outputs": [
        {
          "internalType": "bytes32",
          "name": "",
          "type": "bytes32"
        }
      ],
      "stateMutability": "view",
      "type": "function"
    },
    {
      "inputs": [],
      "name": "EMPTY_REPAYMENT_CHAIN_ID",
      "outputs": [
        {
          "internalType": "uint256",
          "name": "",
          "type": "uint256"
        }
      ],
      "stateMutability": "view",
      "type": "function"
    },
    {
      "inputs": [],
      "name": "INFINITE_FILL_DEADLINE",
      "outputs": [
        {
          "internalType": "uint32",
          "name": "",
          "type": "uint32"
        }
      ],
      "stateMutability": "view",
      "type": "function"
    },
    {
      "inputs": [],
      "name": "MAX_EXCLUSIVITY_PERIOD_SECONDS",
      "outputs": [
        {
          "internalType": "uint32",
          "name": "",
          "type": "uint32"
        }
      ],
      "stateMutability": "view",
      "type": "function"
    },
    {
      "inputs": [],
      "name": "MAX_TRANSFER_SIZE",
      "outputs": [
        {
          "internalType": "uint256",
          "name": "",
          "type": "uint256"
        }
      ],
      "stateMutability": "view",
      "type": "function"
    },
    {
      "inputs": [],
      "name": "POLYGON_ZKEVM_L1_NETWORK_ID",
      "outputs": [
        {
          "internalType": "uint32",
          "name": "",
          "type": "uint32"
        }
      ],
      "stateMutability": "view",
      "type": "function"
    },
    {
      "inputs": [],
      "name": "UPDATE_ADDRESS_DEPOSIT_DETAILS_HASH",
      "outputs": [
        {
          "internalType": "bytes32",
          "name": "",
          "type": "bytes32"
        }
      ],
      "stateMutability": "view",
      "type": "function"
    },
    {
      "inputs": [],
      "name": "UPDATE_BYTES32_DEPOSIT_DETAILS_HASH",
      "outputs": [
        {
          "internalType": "bytes32",
          "name": "",
          "type": "bytes32"
        }
      ],
      "stateMutability": "view",
      "type": "function"
    },
    {
      "inputs": [
        {
          "internalType": "uint32",
          "name": "_initialDepositId",
          "type": "uint32"
        },
        {
          "internalType": "address",
          "name": "_crossDomainAdmin",
          "type": "address"
        },
        {
          "internalType": "address",
          "name": "_withdrawalRecipient",
          "type": "address"
        }
      ],
      "name": "__SpokePool_init",
      "outputs": [],
      "stateMutability": "nonpayable",
      "type": "function"
    },
    {
      "inputs": [],
      "name": "chainId",
      "outputs": [
        {
          "internalType": "uint256",
          "name": "",
          "type": "uint256"
        }
      ],
      "stateMutability": "view",
      "type": "function"
    },
    {
      "inputs": [
        {
          "internalType": "bytes32",
          "name": "l2TokenAddress",
          "type": "bytes32"
        },
        {
          "internalType": "bytes32",
          "name": "refundAddress",
          "type": "bytes32"
        }
      ],
      "name": "claimRelayerRefund",
      "outputs": [],
      "stateMutability": "nonpayable",
      "type": "function"
    },
    {
      "inputs": [],
      "name": "crossDomainAdmin",
      "outputs": [
        {
          "internalType": "address",
          "name": "",
          "type": "address"
        }
      ],
      "stateMutability": "view",
      "type": "function"
    },
    {
      "inputs": [
        {
          "internalType": "bytes32",
          "name": "depositor",
          "type": "bytes32"
        },
        {
          "internalType": "bytes32",
          "name": "recipient",
          "type": "bytes32"
        },
        {
          "internalType": "bytes32",
          "name": "inputToken",
          "type": "bytes32"
        },
        {
          "internalType": "bytes32",
          "name": "outputToken",
          "type": "bytes32"
        },
        {
          "internalType": "uint256",
          "name": "inputAmount",
          "type": "uint256"
        },
        {
          "internalType": "uint256",
          "name": "outputAmount",
          "type": "uint256"
        },
        {
          "internalType": "uint256",
          "name": "destinationChainId",
          "type": "uint256"
        },
        {
          "internalType": "bytes32",
          "name": "exclusiveRelayer",
          "type": "bytes32"
        },
        {
          "internalType": "uint32",
          "name": "quoteTimestamp",
          "type": "uint32"
        },
        {
          "internalType": "uint32",
          "name": "fillDeadline",
          "type": "uint32"
        },
        {
          "internalType": "uint32",
          "name": "exclusivityParameter",
          "type": "uint32"
        },
        {
          "internalType": "bytes",
          "name": "message",
          "type": "bytes"
        }
      ],
      "name": "deposit",
      "outputs": [],
      "stateMutability": "payable",
      "type": "function"
    },
    {
      "inputs": [
        {
          "internalType": "address",
          "name": "recipient",
          "type": "address"
        },
        {
          "internalType": "address",
          "name": "originToken",
          "type": "address"
        },
        {
          "internalType": "uint256",
          "name": "amount",
          "type": "uint256"
        },
        {
          "internalType": "uint256",
          "name": "destinationChainId",
          "type": "uint256"
        },
        {
          "internalType": "int64",
          "name": "relayerFeePct",
          "type": "int64"
        },
        {
          "internalType": "uint32",
          "name": "quoteTimestamp",
          "type": "uint32"
        },
        {
          "internalType": "bytes",
          "name": "message",
          "type": "bytes"
        },
        {
          "internalType": "uint256",
          "name": "",
          "type": "uint256"
        }
      ],
      "name": "depositDeprecated_5947912356",
      "outputs": [],
      "stateMutability": "payable",
      "type": "function"
    },
    {
      "inputs": [
        {
          "internalType": "address",
          "name": "depositor",
          "type": "address"
        },
        {
          "internalType": "address",
          "name": "recipient",
          "type": "address"
        },
        {
          "internalType": "address",
          "name": "originToken",
          "type": "address"
        },
        {
          "internalType": "uint256",
          "name": "amount",
          "type": "uint256"
        },
        {
          "internalType": "uint256",
          "name": "destinationChainId",
          "type": "uint256"
        },
        {
          "internalType": "int64",
          "name": "relayerFeePct",
          "type": "int64"
        },
        {
          "internalType": "uint32",
          "name": "quoteTimestamp",
          "type": "uint32"
        },
        {
          "internalType": "bytes",
          "name": "message",
          "type": "bytes"
        },
        {
          "internalType": "uint256",
          "name": "",
          "type": "uint256"
        }
      ],
      "name": "depositFor",
      "outputs": [],
      "stateMutability": "payable",
      "type": "function"
    },
    {
      "inputs": [
        {
          "internalType": "bytes32",
          "name": "depositor",
          "type": "bytes32"
        },
        {
          "internalType": "bytes32",
          "name": "recipient",
          "type": "bytes32"
        },
        {
          "internalType": "bytes32",
          "name": "inputToken",
          "type": "bytes32"
        },
        {
          "internalType": "bytes32",
          "name": "outputToken",
          "type": "bytes32"
        },
        {
          "internalType": "uint256",
          "name": "inputAmount",
          "type": "uint256"
        },
        {
          "internalType": "uint256",
          "name": "outputAmount",
          "type": "uint256"
        },
        {
          "internalType": "uint256",
          "name": "destinationChainId",
          "type": "uint256"
        },
        {
          "internalType": "bytes32",
          "name": "exclusiveRelayer",
          "type": "bytes32"
        },
        {
          "internalType": "uint32",
          "name": "fillDeadlineOffset",
          "type": "uint32"
        },
        {
          "internalType": "uint32",
          "name": "exclusivityParameter",
          "type": "uint32"
        },
        {
          "internalType": "bytes",
          "name": "message",
          "type": "bytes"
        }
      ],
      "name": "depositNow",
      "outputs": [],
      "stateMutability": "payable",
      "type": "function"
    },
    {
      "inputs": [],
      "name": "depositQuoteTimeBuffer",
      "outputs": [
        {
          "internalType": "uint32",
          "name": "",
          "type": "uint32"
        }
      ],
      "stateMutability": "view",
      "type": "function"
    },
    {
      "inputs": [
        {
          "internalType": "address",
          "name": "depositor",
          "type": "address"
        },
        {
          "internalType": "address",
          "name": "recipient",
          "type": "address"
        },
        {
          "internalType": "address",
          "name": "inputToken",
          "type": "address"
        },
        {
          "internalType": "address",
          "name": "outputToken",
          "type": "address"
        },
        {
          "internalType": "uint256",
          "name": "inputAmount",
          "type": "uint256"
        },
        {
          "internalType": "uint256",
          "name": "outputAmount",
          "type": "uint256"
        },
        {
          "internalType": "uint256",
          "name": "destinationChainId",
          "type": "uint256"
        },
        {
          "internalType": "address",
          "name": "exclusiveRelayer",
          "type": "address"
        },
        {
          "internalType": "uint32",
          "name": "quoteTimestamp",
          "type": "uint32"
        },
        {
          "internalType": "uint32",
          "name": "fillDeadline",
          "type": "uint32"
        },
        {
          "internalType": "uint32",
          "name": "exclusivityParameter",
          "type": "uint32"
        },
        {
          "internalType": "bytes",
          "name": "message",
          "type": "bytes"
        }
      ],
      "name": "depositV3",
      "outputs": [],
      "stateMutability": "payable",
      "type": "function"
    },
    {
      "inputs": [
        {
          "internalType": "address",
          "name": "depositor",
          "type": "address"
        },
        {
          "internalType": "address",
          "name": "recipient",
          "type": "address"
        },
        {
          "internalType": "address",
          "name": "inputToken",
          "type": "address"
        },
        {
          "internalType": "address",
          "name": "outputToken",
          "type": "address"
        },
        {
          "internalType": "uint256",
          "name": "inputAmount",
          "type": "uint256"
        },
        {
          "internalType": "uint256",
          "name": "outputAmount",
          "type": "uint256"
        },
        {
          "internalType": "uint256",
          "name": "destinationChainId",
          "type": "uint256"
        },
        {
          "internalType": "address",
          "name": "exclusiveRelayer",
          "type": "address"
        },
        {
          "internalType": "uint32",
          "name": "fillDeadlineOffset",
          "type": "uint32"
        },
        {
          "internalType": "uint32",
          "name": "exclusivityParameter",
          "type": "uint32"
        },
        {
          "internalType": "bytes",
          "name": "message",
          "type": "bytes"
        }
      ],
      "name": "depositV3Now",
      "outputs": [],
      "stateMutability": "payable",
      "type": "function"
    },
    {
      "inputs": [
        {
          "internalType": "uint256",
          "name": "rootBundleId",
          "type": "uint256"
        }
      ],
      "name": "emergencyDeleteRootBundle",
      "outputs": [],
      "stateMutability": "nonpayable",
      "type": "function"
    },
    {
      "inputs": [
        {
          "internalType": "address",
          "name": "",
          "type": "address"
        },
        {
          "internalType": "uint256",
          "name": "",
          "type": "uint256"
        }
      ],
      "name": "enabledDepositRoutes",
      "outputs": [
        {
          "internalType": "bool",
          "name": "",
          "type": "bool"
        }
      ],
      "stateMutability": "view",
      "type": "function"
    },
    {
      "inputs": [
        {
          "internalType": "uint32",
          "name": "rootBundleId",
          "type": "uint32"
        },
        {
          "components": [
            {
              "internalType": "uint256",
              "name": "amountToReturn",
              "type": "uint256"
            },
            {
              "internalType": "uint256",
              "name": "chainId",
              "type": "uint256"
            },
            {
              "internalType": "uint256[]",
              "name": "refundAmounts",
              "type": "uint256[]"
            },
            {
              "internalType": "uint32",
              "name": "leafId",
              "type": "uint32"
            },
            {
              "internalType": "address",
              "name": "l2TokenAddress",
              "type": "address"
            },
            {
              "internalType": "address[]",
              "name": "refundAddresses",
              "type": "address[]"
            }
          ],
          "internalType": "struct SpokePoolInterface.RelayerRefundLeaf",
          "name": "relayerRefundLeaf",
          "type": "tuple"
        },
        {
          "internalType": "bytes32[]",
          "name": "proof",
          "type": "bytes32[]"
        }
      ],
      "name": "executeRelayerRefundLeaf",
      "outputs": [],
      "stateMutability": "payable",
      "type": "function"
    },
    {
      "inputs": [
        {
          "components": [
            {
              "components": [
                {
                  "internalType": "bytes32",
                  "name": "depositor",
                  "type": "bytes32"
                },
                {
                  "internalType": "bytes32",
                  "name": "recipient",
                  "type": "bytes32"
                },
                {
                  "internalType": "bytes32",
                  "name": "exclusiveRelayer",
                  "type": "bytes32"
                },
                {
                  "internalType": "bytes32",
                  "name": "inputToken",
                  "type": "bytes32"
                },
                {
                  "internalType": "bytes32",
                  "name": "outputToken",
                  "type": "bytes32"
                },
                {
                  "internalType": "uint256",
                  "name": "inputAmount",
                  "type": "uint256"
                },
                {
                  "internalType": "uint256",
                  "name": "outputAmount",
                  "type": "uint256"
                },
                {
                  "internalType": "uint256",
                  "name": "originChainId",
                  "type": "uint256"
                },
                {
                  "internalType": "uint256",
                  "name": "depositId",
                  "type": "uint256"
                },
                {
                  "internalType": "uint32",
                  "name": "fillDeadline",
                  "type": "uint32"
                },
                {
                  "internalType": "uint32",
                  "name": "exclusivityDeadline",
                  "type": "uint32"
                },
                {
                  "internalType": "bytes",
                  "name": "message",
                  "type": "bytes"
                }
              ],
              "internalType": "struct V3SpokePoolInterface.V3RelayData",
              "name": "relayData",
              "type": "tuple"
            },
            {
              "internalType": "uint256",
              "name": "chainId",
              "type": "uint256"
            },
            {
              "internalType": "uint256",
              "name": "updatedOutputAmount",
              "type": "uint256"
            }
          ],
          "internalType": "struct V3SpokePoolInterface.V3SlowFill",
          "name": "slowFillLeaf",
          "type": "tuple"
        },
        {
          "internalType": "uint32",
          "name": "rootBundleId",
          "type": "uint32"
        },
        {
          "internalType": "bytes32[]",
          "name": "proof",
          "type": "bytes32[]"
        }
      ],
      "name": "executeSlowRelayLeaf",
      "outputs": [],
      "stateMutability": "nonpayable",
      "type": "function"
    },
    {
      "inputs": [
        {
          "internalType": "bytes32",
          "name": "orderId",
          "type": "bytes32"
        },
        {
          "internalType": "bytes",
          "name": "originData",
          "type": "bytes"
        },
        {
          "internalType": "bytes",
          "name": "fillerData",
          "type": "bytes"
        }
      ],
      "name": "fill",
      "outputs": [],
      "stateMutability": "nonpayable",
      "type": "function"
    },
    {
      "inputs": [],
      "name": "fillDeadlineBuffer",
      "outputs": [
        {
          "internalType": "uint32",
          "name": "",
          "type": "uint32"
        }
      ],
      "stateMutability": "view",
      "type": "function"
    },
    {
      "inputs": [
        {
          "components": [
            {
              "internalType": "bytes32",
              "name": "depositor",
              "type": "bytes32"
            },
            {
              "internalType": "bytes32",
              "name": "recipient",
              "type": "bytes32"
            },
            {
              "internalType": "bytes32",
              "name": "exclusiveRelayer",
              "type": "bytes32"
            },
            {
              "internalType": "bytes32",
              "name": "inputToken",
              "type": "bytes32"
            },
            {
              "internalType": "bytes32",
              "name": "outputToken",
              "type": "bytes32"
            },
            {
              "internalType": "uint256",
              "name": "inputAmount",
              "type": "uint256"
            },
            {
              "internalType": "uint256",
              "name": "outputAmount",
              "type": "uint256"
            },
            {
              "internalType": "uint256",
              "name": "originChainId",
              "type": "uint256"
            },
            {
              "internalType": "uint256",
              "name": "depositId",
              "type": "uint256"
            },
            {
              "internalType": "uint32",
              "name": "fillDeadline",
              "type": "uint32"
            },
            {
              "internalType": "uint32",
              "name": "exclusivityDeadline",
              "type": "uint32"
            },
            {
              "internalType": "bytes",
              "name": "message",
              "type": "bytes"
            }
          ],
          "internalType": "struct V3SpokePoolInterface.V3RelayData",
          "name": "relayData",
          "type": "tuple"
        },
        {
          "internalType": "uint256",
          "name": "repaymentChainId",
          "type": "uint256"
        },
        {
          "internalType": "bytes32",
          "name": "repaymentAddress",
          "type": "bytes32"
        }
      ],
      "name": "fillRelay",
      "outputs": [],
      "stateMutability": "nonpayable",
      "type": "function"
    },
    {
      "inputs": [
        {
          "components": [
            {
              "internalType": "bytes32",
              "name": "depositor",
              "type": "bytes32"
            },
            {
              "internalType": "bytes32",
              "name": "recipient",
              "type": "bytes32"
            },
            {
              "internalType": "bytes32",
              "name": "exclusiveRelayer",
              "type": "bytes32"
            },
            {
              "internalType": "bytes32",
              "name": "inputToken",
              "type": "bytes32"
            },
            {
              "internalType": "bytes32",
              "name": "outputToken",
              "type": "bytes32"
            },
            {
              "internalType": "uint256",
              "name": "inputAmount",
              "type": "uint256"
            },
            {
              "internalType": "uint256",
              "name": "outputAmount",
              "type": "uint256"
            },
            {
              "internalType": "uint256",
              "name": "originChainId",
              "type": "uint256"
            },
            {
              "internalType": "uint256",
              "name": "depositId",
              "type": "uint256"
            },
            {
              "internalType": "uint32",
              "name": "fillDeadline",
              "type": "uint32"
            },
            {
              "internalType": "uint32",
              "name": "exclusivityDeadline",
              "type": "uint32"
            },
            {
              "internalType": "bytes",
              "name": "message",
              "type": "bytes"
            }
          ],
          "internalType": "struct V3SpokePoolInterface.V3RelayData",
          "name": "relayData",
          "type": "tuple"
        },
        {
          "internalType": "uint256",
          "name": "repaymentChainId",
          "type": "uint256"
        },
        {
          "internalType": "bytes32",
          "name": "repaymentAddress",
          "type": "bytes32"
        },
        {
          "internalType": "uint256",
          "name": "updatedOutputAmount",
          "type": "uint256"
        },
        {
          "internalType": "bytes32",
          "name": "updatedRecipient",
          "type": "bytes32"
        },
        {
          "internalType": "bytes",
          "name": "updatedMessage",
          "type": "bytes"
        },
        {
          "internalType": "bytes",
          "name": "depositorSignature",
          "type": "bytes"
        }
      ],
      "name": "fillRelayWithUpdatedDeposit",
      "outputs": [],
      "stateMutability": "nonpayable",
      "type": "function"
    },
    {
      "inputs": [
        {
          "internalType": "bytes32",
          "name": "",
          "type": "bytes32"
        }
      ],
      "name": "fillStatuses",
      "outputs": [
        {
          "internalType": "uint256",
          "name": "",
          "type": "uint256"
        }
      ],
      "stateMutability": "view",
      "type": "function"
    },
    {
      "inputs": [
        {
          "components": [
            {
              "internalType": "address",
              "name": "depositor",
              "type": "address"
            },
            {
              "internalType": "address",
              "name": "recipient",
              "type": "address"
            },
            {
              "internalType": "address",
              "name": "exclusiveRelayer",
              "type": "address"
            },
            {
              "internalType": "address",
              "name": "inputToken",
              "type": "address"
            },
            {
              "internalType": "address",
              "name": "outputToken",
              "type": "address"
            },
            {
              "internalType": "uint256",
              "name": "inputAmount",
              "type": "uint256"
            },
            {
              "internalType": "uint256",
              "name": "outputAmount",
              "type": "uint256"
            },
            {
              "internalType": "uint256",
              "name": "originChainId",
              "type": "uint256"
            },
            {
              "internalType": "uint32",
              "name": "depositId",
              "type": "uint32"
            },
            {
              "internalType": "uint32",
              "name": "fillDeadline",
              "type": "uint32"
            },
            {
              "internalType": "uint32",
              "name": "exclusivityDeadline",
              "type": "uint32"
            },
            {
              "internalType": "bytes",
              "name": "message",
              "type": "bytes"
            }
          ],
          "internalType": "struct V3SpokePoolInterface.V3RelayDataLegacy",
          "name": "relayData",
          "type": "tuple"
        },
        {
          "internalType": "uint256",
          "name": "repaymentChainId",
          "type": "uint256"
        }
      ],
      "name": "fillV3Relay",
      "outputs": [],
      "stateMutability": "nonpayable",
      "type": "function"
    },
    {
      "inputs": [],
      "name": "getCurrentTime",
      "outputs": [
        {
          "internalType": "uint256",
          "name": "",
          "type": "uint256"
        }
      ],
      "stateMutability": "view",
      "type": "function"
    },
    {
      "inputs": [
        {
          "internalType": "address",
          "name": "l2TokenAddress",
          "type": "address"
        },
        {
          "internalType": "address",
          "name": "refundAddress",
          "type": "address"
        }
      ],
      "name": "getRelayerRefund",
      "outputs": [
        {
          "internalType": "uint256",
          "name": "",
          "type": "uint256"
        }
      ],
      "stateMutability": "view",
      "type": "function"
    },
    {
      "inputs": [
        {
          "internalType": "address",
          "name": "msgSender",
          "type": "address"
        },
        {
          "internalType": "bytes32",
          "name": "depositor",
          "type": "bytes32"
        },
        {
          "internalType": "uint256",
          "name": "depositNonce",
          "type": "uint256"
        }
      ],
      "name": "getUnsafeDepositId",
      "outputs": [
        {
          "internalType": "uint256",
          "name": "",
          "type": "uint256"
        }
      ],
      "stateMutability": "pure",
      "type": "function"
    },
    {
      "inputs": [
        {
          "components": [
            {
              "internalType": "bytes32",
              "name": "depositor",
              "type": "bytes32"
            },
            {
              "internalType": "bytes32",
              "name": "recipient",
              "type": "bytes32"
            },
            {
              "internalType": "bytes32",
              "name": "exclusiveRelayer",
              "type": "bytes32"
            },
            {
              "internalType": "bytes32",
              "name": "inputToken",
              "type": "bytes32"
            },
            {
              "internalType": "bytes32",
              "name": "outputToken",
              "type": "bytes32"
            },
            {
              "internalType": "uint256",
              "name": "inputAmount",
              "type": "uint256"
            },
            {
              "internalType": "uint256",
              "name": "outputAmount",
              "type": "uint256"
            },
            {
              "internalType": "uint256",
              "name": "originChainId",
              "type": "uint256"
            },
            {
              "internalType": "uint256",
              "name": "depositId",
              "type": "uint256"
            },
            {
              "internalType": "uint32",
              "name": "fillDeadline",
              "type": "uint32"
            },
            {
              "internalType": "uint32",
              "name": "exclusivityDeadline",
              "type": "uint32"
            },
            {
              "internalType": "bytes",
              "name": "message",
              "type": "bytes"
            }
          ],
          "internalType": "struct V3SpokePoolInterface.V3RelayData",
          "name": "relayData",
          "type": "tuple"
        }
      ],
      "name": "getV3RelayHash",
      "outputs": [
        {
          "internalType": "bytes32",
          "name": "",
          "type": "bytes32"
        }
      ],
      "stateMutability": "view",
      "type": "function"
    },
    {
      "inputs": [
        {
          "internalType": "contract IPolygonZkEVMBridge",
          "name": "_l2PolygonZkEVMBridge",
          "type": "address"
        },
        {
          "internalType": "uint32",
          "name": "_initialDepositId",
          "type": "uint32"
        },
        {
          "internalType": "address",
          "name": "_crossDomainAdmin",
          "type": "address"
        },
        {
          "internalType": "address",
          "name": "_withdrawalRecipient",
          "type": "address"
        }
      ],
      "name": "initialize",
      "outputs": [],
      "stateMutability": "nonpayable",
      "type": "function"
    },
    {
      "inputs": [],
      "name": "l2PolygonZkEVMBridge",
      "outputs": [
        {
          "internalType": "contract IPolygonZkEVMBridge",
          "name": "",
          "type": "address"
        }
      ],
      "stateMutability": "view",
      "type": "function"
    },
    {
      "inputs": [
        {
          "internalType": "bytes[]",
          "name": "data",
          "type": "bytes[]"
        }
      ],
      "name": "multicall",
      "outputs": [
        {
          "internalType": "bytes[]",
          "name": "results",
          "type": "bytes[]"
        }
      ],
      "stateMutability": "nonpayable",
      "type": "function"
    },
    {
      "inputs": [],
      "name": "numberOfDeposits",
      "outputs": [
        {
          "internalType": "uint32",
          "name": "",
          "type": "uint32"
        }
      ],
      "stateMutability": "view",
      "type": "function"
    },
    {
      "inputs": [
        {
          "internalType": "address",
          "name": "_originAddress",
          "type": "address"
        },
        {
          "internalType": "uint32",
          "name": "_originNetwork",
          "type": "uint32"
        },
        {
          "internalType": "bytes",
          "name": "_data",
          "type": "bytes"
        }
      ],
      "name": "onMessageReceived",
      "outputs": [],
      "stateMutability": "payable",
      "type": "function"
    },
    {
      "inputs": [
        {
          "internalType": "bool",
          "name": "pause",
          "type": "bool"
        }
      ],
      "name": "pauseDeposits",
      "outputs": [],
      "stateMutability": "nonpayable",
      "type": "function"
    },
    {
      "inputs": [
        {
          "internalType": "bool",
          "name": "pause",
          "type": "bool"
        }
      ],
      "name": "pauseFills",
      "outputs": [],
      "stateMutability": "nonpayable",
      "type": "function"
    },
    {
      "inputs": [],
      "name": "pausedDeposits",
      "outputs": [
        {
          "internalType": "bool",
          "name": "",
          "type": "bool"
        }
      ],
      "stateMutability": "view",
      "type": "function"
    },
    {
      "inputs": [],
      "name": "pausedFills",
      "outputs": [
        {
          "internalType": "bool",
          "name": "",
          "type": "bool"
        }
      ],
      "stateMutability": "view",
      "type": "function"
    },
    {
      "inputs": [],
      "name": "proxiableUUID",
      "outputs": [
        {
          "internalType": "bytes32",
          "name": "",
          "type": "bytes32"
        }
      ],
      "stateMutability": "view",
      "type": "function"
    },
    {
      "inputs": [
        {
          "internalType": "bytes32",
          "name": "relayerRefundRoot",
          "type": "bytes32"
        },
        {
          "internalType": "bytes32",
          "name": "slowRelayRoot",
          "type": "bytes32"
        }
      ],
      "name": "relayRootBundle",
      "outputs": [],
      "stateMutability": "nonpayable",
      "type": "function"
    },
    {
      "inputs": [
        {
          "internalType": "address",
          "name": "",
          "type": "address"
        },
        {
          "internalType": "address",
          "name": "",
          "type": "address"
        }
      ],
      "name": "relayerRefund",
      "outputs": [
        {
          "internalType": "uint256",
          "name": "",
          "type": "uint256"
        }
      ],
      "stateMutability": "view",
      "type": "function"
    },
    {
      "inputs": [
        {
          "components": [
            {
              "internalType": "bytes32",
              "name": "depositor",
              "type": "bytes32"
            },
            {
              "internalType": "bytes32",
              "name": "recipient",
              "type": "bytes32"
            },
            {
              "internalType": "bytes32",
              "name": "exclusiveRelayer",
              "type": "bytes32"
            },
            {
              "internalType": "bytes32",
              "name": "inputToken",
              "type": "bytes32"
            },
            {
              "internalType": "bytes32",
              "name": "outputToken",
              "type": "bytes32"
            },
            {
              "internalType": "uint256",
              "name": "inputAmount",
              "type": "uint256"
            },
            {
              "internalType": "uint256",
              "name": "outputAmount",
              "type": "uint256"
            },
            {
              "internalType": "uint256",
              "name": "originChainId",
              "type": "uint256"
            },
            {
              "internalType": "uint256",
              "name": "depositId",
              "type": "uint256"
            },
            {
              "internalType": "uint32",
              "name": "fillDeadline",
              "type": "uint32"
            },
            {
              "internalType": "uint32",
              "name": "exclusivityDeadline",
              "type": "uint32"
            },
            {
              "internalType": "bytes",
              "name": "message",
              "type": "bytes"
            }
          ],
          "internalType": "struct V3SpokePoolInterface.V3RelayData",
          "name": "relayData",
          "type": "tuple"
        }
      ],
      "name": "requestSlowFill",
      "outputs": [],
      "stateMutability": "nonpayable",
      "type": "function"
    },
    {
      "inputs": [
        {
          "internalType": "uint256",
          "name": "",
          "type": "uint256"
        }
      ],
      "name": "rootBundles",
      "outputs": [
        {
          "internalType": "bytes32",
          "name": "slowRelayRoot",
          "type": "bytes32"
        },
        {
          "internalType": "bytes32",
          "name": "relayerRefundRoot",
          "type": "bytes32"
        }
      ],
      "stateMutability": "view",
      "type": "function"
    },
    {
      "inputs": [
        {
          "internalType": "address",
          "name": "newCrossDomainAdmin",
          "type": "address"
        }
      ],
      "name": "setCrossDomainAdmin",
      "outputs": [],
      "stateMutability": "nonpayable",
      "type": "function"
    },
    {
      "inputs": [
        {
          "internalType": "address",
          "name": "originToken",
          "type": "address"
        },
        {
          "internalType": "uint256",
          "name": "destinationChainId",
          "type": "uint256"
        },
        {
          "internalType": "bool",
          "name": "enabled",
          "type": "bool"
        }
      ],
      "name": "setEnableRoute",
      "outputs": [],
      "stateMutability": "nonpayable",
      "type": "function"
    },
    {
      "inputs": [
        {
          "internalType": "contract IPolygonZkEVMBridge",
          "name": "_l2PolygonZkEVMBridge",
          "type": "address"
        }
      ],
      "name": "setL2PolygonZkEVMBridge",
      "outputs": [],
      "stateMutability": "nonpayable",
      "type": "function"
    },
    {
      "inputs": [
        {
          "internalType": "address",
          "name": "newWithdrawalRecipient",
          "type": "address"
        }
      ],
      "name": "setWithdrawalRecipient",
      "outputs": [],
      "stateMutability": "nonpayable",
      "type": "function"
    },
    {
      "inputs": [
        {
          "internalType": "bytes32",
          "name": "depositor",
          "type": "bytes32"
        },
        {
          "internalType": "uint256",
          "name": "depositId",
          "type": "uint256"
        },
        {
          "internalType": "uint256",
          "name": "updatedOutputAmount",
          "type": "uint256"
        },
        {
          "internalType": "bytes32",
          "name": "updatedRecipient",
          "type": "bytes32"
        },
        {
          "internalType": "bytes",
          "name": "updatedMessage",
          "type": "bytes"
        },
        {
          "internalType": "bytes",
          "name": "depositorSignature",
          "type": "bytes"
        }
      ],
      "name": "speedUpDeposit",
      "outputs": [],
      "stateMutability": "nonpayable",
      "type": "function"
    },
    {
      "inputs": [
        {
          "internalType": "address",
          "name": "depositor",
          "type": "address"
        },
        {
          "internalType": "uint256",
          "name": "depositId",
          "type": "uint256"
        },
        {
          "internalType": "uint256",
          "name": "updatedOutputAmount",
          "type": "uint256"
        },
        {
          "internalType": "address",
          "name": "updatedRecipient",
          "type": "address"
        },
        {
          "internalType": "bytes",
          "name": "updatedMessage",
          "type": "bytes"
        },
        {
          "internalType": "bytes",
          "name": "depositorSignature",
          "type": "bytes"
        }
      ],
      "name": "speedUpV3Deposit",
      "outputs": [],
      "stateMutability": "nonpayable",
      "type": "function"
    },
    {
      "inputs": [
        {
          "internalType": "bytes[]",
          "name": "data",
          "type": "bytes[]"
        }
      ],
      "name": "tryMulticall",
      "outputs": [
        {
          "components": [
            {
              "internalType": "bool",
              "name": "success",
              "type": "bool"
            },
            {
              "internalType": "bytes",
              "name": "returnData",
              "type": "bytes"
            }
          ],
          "internalType": "struct MultiCallerUpgradeable.Result[]",
          "name": "results",
          "type": "tuple[]"
        }
      ],
      "stateMutability": "nonpayable",
      "type": "function"
    },
    {
      "inputs": [
        {
          "internalType": "bytes32",
          "name": "depositor",
          "type": "bytes32"
        },
        {
          "internalType": "bytes32",
          "name": "recipient",
          "type": "bytes32"
        },
        {
          "internalType": "bytes32",
          "name": "inputToken",
          "type": "bytes32"
        },
        {
          "internalType": "bytes32",
          "name": "outputToken",
          "type": "bytes32"
        },
        {
          "internalType": "uint256",
          "name": "inputAmount",
          "type": "uint256"
        },
        {
          "internalType": "uint256",
          "name": "outputAmount",
          "type": "uint256"
        },
        {
          "internalType": "uint256",
          "name": "destinationChainId",
          "type": "uint256"
        },
        {
          "internalType": "bytes32",
          "name": "exclusiveRelayer",
          "type": "bytes32"
        },
        {
          "internalType": "uint256",
          "name": "depositNonce",
          "type": "uint256"
        },
        {
          "internalType": "uint32",
          "name": "quoteTimestamp",
          "type": "uint32"
        },
        {
          "internalType": "uint32",
          "name": "fillDeadline",
          "type": "uint32"
        },
        {
          "internalType": "uint32",
          "name": "exclusivityParameter",
          "type": "uint32"
        },
        {
          "internalType": "bytes",
          "name": "message",
          "type": "bytes"
        }
      ],
      "name": "unsafeDeposit",
      "outputs": [],
      "stateMutability": "payable",
      "type": "function"
    },
    {
      "inputs": [
        {
          "internalType": "address",
          "name": "newImplementation",
          "type": "address"
        }
      ],
      "name": "upgradeTo",
      "outputs": [],
      "stateMutability": "nonpayable",
      "type": "function"
    },
    {
      "inputs": [
        {
          "internalType": "address",
          "name": "newImplementation",
          "type": "address"
        },
        {
          "internalType": "bytes",
          "name": "data",
          "type": "bytes"
        }
      ],
      "name": "upgradeToAndCall",
      "outputs": [],
      "stateMutability": "payable",
      "type": "function"
    },
    {
      "inputs": [],
      "name": "withdrawalRecipient",
      "outputs": [
        {
          "internalType": "address",
          "name": "",
          "type": "address"
        }
      ],
      "stateMutability": "view",
      "type": "function"
    },
    {
      "inputs": [],
      "name": "wrappedNativeToken",
      "outputs": [
        {
          "internalType": "contract WETH9Interface",
          "name": "",
          "type": "address"
        }
      ],
      "stateMutability": "view",
      "type": "function"
    },
    {
      "stateMutability": "payable",
      "type": "receive"
    }
  ],
  "numDeployments": 1,
  "solcInputHash": "567092b87707696fb1a6e972f5d7c0ff",
  "bytecode": "0x610100346200016957601f6200502b38819003918201601f19168301916001600160401b038311848410176200016e57808492606094604052833981010312620001695780516001600160a01b038116919082900362000169576200007560406200006d6020840162000184565b920162000184565b913060805260a05260c05260e05260005460ff8160081c16620001695760ff808216036200012d575b604051614e9490816200019782396080518181816110aa0152818161146801526115ea015260a0518181816107160152818161350c0152818161368301528181613cb001528181613f2e01528181614270015281816147650152818161495f0152614986015260c0518181816118b8015281816134c0015261445f015260e05181818161040a015261421e0152f35b60ff90811916176000557f7f26b83ff96e1f2b6a682f133852f6798a09c465da95921460cefb3847402498602060405160ff8152a1386200009e565b600080fd5b634e487b7160e01b600052604160045260246000fd5b519063ffffffff82168203620001695756fe6080604052600436101561001b575b361561001957600080fd5b005b60003560e01c80630620b2121461033f578063079bd2c7146103bc5780631186ec33146103b757806315348e441461033f57806317fcb39b146103b25780631806b5f2146103ad5780631b3d5559146103a85780631fab657c146103a3578063272751c71461039e578063291dc2aa1461039957806329cb924d146103945780632e3781151461038f5780632e63e59a1461038a57806333a84ff0146103855780633659cfe614610380578063437b91161461037b578063490e49ef14610376578063493a4f84146103715780634f1ef2861461036c5780635249fef1146103675780635285e0581461036257806352d1902d1461035d578063541f4f1414610358578063577f51f81461035357806357f6dcb81461034e5780636068d6cb14610349578063670fa8ac146103445780636bbbcd2e1461033f578063738b62e51461033a5780637aef642c146103355780637b939232146103305780637ef413e11461032b57806382e2c43f146103265780638a7860ce146103215780638b15788e1461031c57806397943aa914610317578063979f2bc214610312578063983cb80f1461030d57806399cc2968146103085780639a8a059214610303578063a1244c67146102fe578063a18a096e146102f9578063ac9650d8146102f4578063ad5425c6146102ef578063adb5a6a6146102ae578063b370b7f5146102ea578063babb6aac146102e5578063c35c83fc146102e0578063ceb4c987146102db578063d7e1583a146102d6578063dda52113146102d1578063ddd224f1146102cc578063de7eba78146102c7578063deff4b24146102c2578063e062ebcc146102bd578063ea86bd46146102b8578063ee2a53f8146102b3578063f79f29ed146102ae5763fc8a584f0361000e576129d6565b61242b565b612998565b612891565b612864565b61276f565b61273f565b612715565b6126ee565b6126b8565b6125bd565b612590565b6124b9565b612491565b6122ef565b61224d565b6120e8565b6120c0565b6120a5565b612010565b611eff565b611def565b611d6f565b611cf1565b611c6e565b611b52565b611b1b565b611a73565b6119d3565b61193e565b6103d1565b611903565b6118dc565b61189b565b6116fd565b61163a565b6115cf565b6115a7565b611555565b611425565b61139d565b61137e565b6112ad565b611081565b611046565b610e48565b610ce8565b610cbe565b610c96565b610bf5565b610ae8565b6109df565b61073a565b6106f6565b610655565b6103ed565b60009103126103cc57565b600080fd5b346103cc5760003660031901126103cc57602060405160008152f35b346103cc5760003660031901126103cc57602060405163ffffffff7f0000000000000000000000000000000000000000000000000000000000000000168152f35b6001600160a01b038116036103cc57565b359061044a8261042e565b565b63ffffffff8116036103cc57565b610144359061044a8261044c565b359061044a8261044c565b634e487b7160e01b600052604160045260246000fd5b6040810190811067ffffffffffffffff8211176104a557604052565b610473565b6101a0810190811067ffffffffffffffff8211176104a557604052565b67ffffffffffffffff81116104a557604052565b6060810190811067ffffffffffffffff8211176104a557604052565b6080810190811067ffffffffffffffff8211176104a557604052565b6020810190811067ffffffffffffffff8211176104a557604052565b60e0810190811067ffffffffffffffff8211176104a557604052565b60a0810190811067ffffffffffffffff8211176104a557604052565b90601f8019910116810190811067ffffffffffffffff8211176104a557604052565b6040519060c0820182811067ffffffffffffffff8211176104a557604052565b60405190610180820182811067ffffffffffffffff8211176104a557604052565b6040519061044a826104aa565b6040519061044a826104f7565b67ffffffffffffffff81116104a557601f01601f191660200190565b92919261060c826105e4565b9161061a6040519384610567565b8294818452818301116103cc578281602093846000960137010152565b9080601f830112156103cc5781602061065293359101610600565b90565b6101003660031901126103cc5760043561066e8161042e565b60243561067a8161042e565b6084358060070b81036103cc5760a435906106948261044c565b60c43567ffffffffffffffff81116103cc576106b4903690600401610637565b926106bd6133b1565b60ff61086b5460e81c166106e4576106dd94606435916044359133613430565b6001606555005b604051630b4cba3160e31b8152600490fd5b346103cc5760003660031901126103cc5760206040516001600160a01b037f0000000000000000000000000000000000000000000000000000000000000000168152f35b60603660031901126103cc57600480356107538161042e565b602435916107608361044c565b60443567ffffffffffffffff81116103cc5761077f9036908301610637565b92610c5a80549060ff8260a01c16610883577401000000000000000000000000000000000000000060ff60a01b1983161790556001600160a01b038091163303610872576107e56107d9610869546001600160a01b031690565b6001600160a01b031690565b93169283036108625763ffffffff1661085357506108186000808460208296519101305af4610812612a06565b50612a36565b337f5185f02297526865dfbc461916f7dd8d40414c836fa469073ebea66ce68ba8638380a3610850610c5a60ff60a01b198154169055565b80f35b6040516334645e6160e01b8152fd5b50604051631877afe360e21b8152fd5b60405163356a0b3d60e21b81528390fd5b60405163c3490b1560e01b81528490fd5b67ffffffffffffffff81116104a55760051b60200190565b9080601f830112156103cc5760209082356108c681610894565b936108d46040519586610567565b81855260208086019260051b8201019283116103cc57602001905b8282106108fd575050505090565b813581529083019083016108ef565b9080601f830112156103cc57602090823561092681610894565b936109346040519586610567565b81855260208086019260051b8201019283116103cc57602001905b82821061095d575050505090565b838091833561096b8161042e565b81520191019061094f565b929161098182610894565b9161098f6040519384610567565b829481845260208094019160051b81019283116103cc57905b8282106109b55750505050565b813581529083019083016109a8565b9080601f830112156103cc5781602061065293359101610976565b6003196060368201126103cc576004356109f88161044c565b60243567ffffffffffffffff928382116103cc5760c09082360301126103cc57610a20610589565b90806004013582526024810135602083015260448101358481116103cc57610a4e90600436918401016108ac565b6040830152610a5f60648201610468565b6060830152610a706084820161043f565b608083015260a4810135908482116103cc576004610a91923692010161090c565b60a08201526044359283116103cc57610ab16100199336906004016109c4565b91612a3d565b9181601f840112156103cc5782359167ffffffffffffffff83116103cc576020808501948460051b0101116103cc57565b346103cc576003196060368201126103cc5760043567ffffffffffffffff8082116103cc576060823603938401126103cc5760243590610b278261044c565b6044359081116103cc57610b3f903690600401610ab7565b919093610b4a6133b1565b60048401359061018219018112156103cc57610be194610bdc93610b77610bd593600436918901016125dc565b95610b8d610b8860808901516139dc565b613679565b610b96876132e4565b9060446020890151916101608a015193610bae610589565b9a8b5260208b01520135604089015260608801526080870152600060a08701523691610976565b90836139f2565b613b43565b6100196001606555565b801515036103cc57565b346103cc5760603660031901126103cc57600435610c128161042e565b6024356001600160a01b0360443592610c2a84610beb565b610c32614006565b610c3a6133b1565b167f0a21fdd43d0ad0c62689ee7230a47309a050755bcc52eba00310add65297692a602060009483865261086d8252604086208587528252604086209015159060ff1981541660ff8316179055604051908152a3600160655580f35b346103cc5760003660031901126103cc5760206001600160a01b03610c5a5416604051908152f35b346103cc5760003660031901126103cc576020604051428152f35b90816101809103126103cc5790565b346103cc5760403660031901126103cc5760043567ffffffffffffffff81116103cc57610d19903690600401610cd9565b610d2281612c37565b6001600160a01b031690610d3860208201612c37565b6001600160a01b031691610d4e60408301612c37565b6001600160a01b0316610d6360608401612c37565b6001600160a01b031692610d7960808201612c37565b6001600160a01b031690610100610d91818301612c41565b9061012090610da1848301612c41565b9261014094858101610db290612c41565b966101609a8b8301610dc49084612c4b565b9a909b610dcf6105a9565b9e8f91825260208201526040015260608d015260808c015260a081013560a08c015260c081013560c08c015260e0013560e08b015263ffffffff1690890152870190610e20919063ffffffff169052565b63ffffffff909116908501523690610e3792610600565b908201523360243561001992613315565b346103cc5760203660031901126103cc576004803567ffffffffffffffff81116103cc57610e799036908301610cd9565b610e816133b1565b60ff61086b5460e01c166110365763ffffffff80421692610140830193610eba81610eab87612c41565b63ffffffff9182169116101590565b61102657610120840192610ecd84612c41565b161061101757610ee5610ee036856125dc565b6132e4565b90610efb82600052610872602052604060002090565b546110095750610f4c7f3cee3e290f36226751cd0b3321b213890fe9c768e922f267fa6111836ce05c3292610f47610f41610f5294600052610872602052604060002090565b60019055565b612c41565b93612c41565b610f72610f6d610f66610160860186612c4b565b3691610600565b614029565b90610ffc6040519283926101008701359760e08801359760208101359281359260408301359260c08101359060a081013590606060808201359101358b9693909a999895919261012098959361014089019c895260208901526040880152606087015263ffffffff80921660808701521660a085015260c084015260e08301526101008201520152565b0390a36100196001606555565b604051624be79160e21b8152fd5b60405163d642b7d960e01b8152fd5b50604051630277ae7b60e21b8152fd5b50604051633d90fc5560e11b8152fd5b346103cc5760003660031901126103cc5760206040517f9c6dfd61d811b9950a4f2b9adf46357b717c816d22c420d0bde8f2360148f7cd8152f35b346103cc5760203660031901126103cc5760043561109e8161042e565b6001600160a01b0390817f0000000000000000000000000000000000000000000000000000000000000000168030146103cc577f360894a13ba1a3210667c828492db98dca3e2076cc3735a920a3ca505d382bbc9083825416036103cc57611104614006565b6040519061111182610513565b60009384835260ff7f4910fdfa16fed3260ed0e7147f7cc6da11a60208b5b9406d12a635614ffd9143541660001461114f5750505061085090614b26565b6020600491604051928380926352d1902d60e01b825288165afa85918161118c575b5061117a578480fd5b036111885761085091614a09565b8280fd5b6111af91925060203d6020116111b6575b6111a78183610567565b8101906137d8565b9038611171565b503d61119d565b60206003198201126103cc576004359067ffffffffffffffff82116103cc576111e891600401610ab7565b9091565b60005b8381106111ff5750506000910152565b81810151838201526020016111ef565b90602091611228815180928185528580860191016111ec565b601f01601f1916010190565b6020808201908083528351809252604092604081018260408560051b8401019601946000925b85841061126b575050505050505090565b90919293949596858061129c600193603f1986820301885286838d518051151584520151918185820152019061120f565b99019401940192959493919061125a565b346103cc576112bb366111bd565b6112c481610894565b9160406112d46040519485610567565b828452601f196112e384610894565b0160005b81811061135a57505060005b83811061130c57604051806113088782611234565b0390f35b8061135461131c60019388612ca3565b5160008061132b858a8a612cb7565b9061133a895180938193612cce565b0390305af490611348612a06565b60208201529015159052565b016112f3565b602090835161136881610489565b60008152826060818301528289010152016112e7565b346103cc5760003660031901126103cc5760206040516301e133808152f35b346103cc5760403660031901126103cc576024356004356113bc614006565b6113c46133b1565b61086c8054680100000000000000008110156104a55763ffffffff91600182019055836113f082612957565b5084600182015555167fc86ba04c55bc5eb2f2876b91c438849a296dbec7b08751c3074d92e04f0a77af600080a46001606555005b60403660031901126103cc5760043561143d8161042e565b60243567ffffffffffffffff81116103cc5761145d903690600401610637565b6001600160a01b03807f000000000000000000000000000000000000000000000000000000000000000016908130146103cc577f360894a13ba1a3210667c828492db98dca3e2076cc3735a920a3ca505d382bbc9181835416036103cc576114c3614006565b7f4910fdfa16fed3260ed0e7147f7cc6da11a60208b5b9406d12a635614ffd91435460ff16156114f95750505061001990614b26565b6020600491604051928380926352d1902d60e01b825288165afa60009181611534575b5061152657600080fd5b036103cc5761001991614ad4565b61154e91925060203d6020116111b6576111a78183610567565b903861151c565b346103cc5760403660031901126103cc576001600160a01b0360043561157a8161042e565b1660005261086d6020526040600020602435600052602052602060ff604060002054166040519015158152f35b346103cc5760003660031901126103cc5760206001600160a01b036108695416604051908152f35b346103cc5760003660031901126103cc576001600160a01b037f00000000000000000000000000000000000000000000000000000000000000001630036103cc5760206040517f360894a13ba1a3210667c828492db98dca3e2076cc3735a920a3ca505d382bbc8152f35b6101203660031901126103cc576004356116538161042e565b602435906116608261042e565b6044359161166d8361042e565b60a4358060070b81036103cc5760c435916116878361044c565b60e43567ffffffffffffffff81116103cc576116a7903690600401610637565b936116b06133b1565b60ff61086b5460e81c166106e4576106dd956084359260643592613430565b9181601f840112156103cc5782359167ffffffffffffffff83116103cc57602083818601950101116103cc57565b346103cc5760c03660031901126103cc5760043561171a8161042e565b6024356044359160643561172d8161042e565b67ffffffffffffffff916084358381116103cc5761174f9036906004016116cf565b60a4949194359182116103cc577f45e04bc8f121ba11466985789ca2822a91109f31bb8ac85504a37b7eaf873c269461178f6118969336906004016116cf565b9290916001600160a01b038097168a61188a6117ac368686610600565b60428d6117ba368b8b610600565b92602081519101209460409586519160208301937f9c6dfd61d811b9950a4f2b9adf46357b717c816d22c420d0bde8f2360148f7cd85528884015246606084015260808301528760a083015260c082015260c081526118188161052f565b51902061047f546104805486519060208201927fc2f8787176b8ac6bf7215b4adcc1e069bf4ab82d9ab1df05a57a91d425935b6e84528883015260608201524660808201526080815261186a8161054b565b5190209085519161190160f01b835260028301526022820152208a614b69565b51978897169a87612cfd565b0390a3005b346103cc5760003660031901126103cc57602060405163ffffffff7f0000000000000000000000000000000000000000000000000000000000000000168152f35b346103cc5760003660031901126103cc57602060ff61086b5460e81c166040519015158152f35b346103cc5760003660031901126103cc5760206040517f8d1994e2bbbd77564cdca06dd819e7ee2a5efa06c80dcb59a4a7b6e39edc538f8152f35b346103cc5760203660031901126103cc577fe88463c2f254e2b070013a2dc7ee1e099f9bc00534cbdf03af551dc26ae49219602060043561197e81610beb565b611986614006565b61198e6133b1565b151561086b80547fffff00ffffffffffffffffffffffffffffffffffffffffffffffffffffffffff60ff60e81b8460e81b169116179055604051908152a16001606555005b6101603660031901126103cc576004356119ec8161042e565b602435906119f98261042e565b604435611a058161042e565b60643590611a128261042e565b60e435611a1e8161042e565b6101043590611a2c8261044c565b6101243592611a3a8461044c565b610144359667ffffffffffffffff88116103cc57611a5f6100199836906004016116cf565b97909660c4359360a4359360843593612d63565b6101803660031901126103cc57600435611a8c8161042e565b60243590611a998261042e565b604435611aa58161042e565b60643590611ab28261042e565b60e435611abe8161042e565b61010435611acb8161044c565b6101243591611ad98361044c565b611ae161045a565b93610164359767ffffffffffffffff89116103cc57611b076100199936906004016116cf565b98909760c4359360a4359360843593612d85565b346103cc5760603660031901126103cc576020611b4a600435611b3d8161042e565b6044359060243590612ea0565b604051908152f35b346103cc5760603660031901126103cc5767ffffffffffffffff6024358181116103cc57611b849036906004016116cf565b916044359081116103cc57611b9d9036906004016116cf565b9060405193602085019480611bb44684888a612edc565b0395611bc8601f1997888101845283610567565b6004359151902003611c5c57600094611bf8611c1a93611bef87611c26958a990190612692565b95810190612ef9565b519360405193849160208301966337bfd2c960e21b8852339160248501612fc1565b03908101835282610567565b5190305af4611c33612a06565b9015611c3b57005b60405163b8fe37a760e01b8152908190611c589060048301612fe3565b0390fd5b604051630f0c8f4760e11b8152600490fd5b346103cc5760203660031901126103cc57600435611c8a614006565b611c926133b1565b611c9b81612957565b919091611cdb57600191600092818480935501557f7c1af0646963afc3343245b103731965735a893347bfa0d58a5dc77a77ae691c8280a2600160655580f35b634e487b7160e01b600052600060045260246000fd5b6101a03660031901126103cc5761012435611d0b8161044c565b61014435611d188161044c565b6101643591611d268361044c565b610184359267ffffffffffffffff84116103cc57611d4b6100199436906004016116cf565b9390926101043560e43560c43560a435608435606435604435602435600435612ff4565b346103cc5760e03660031901126103cc5767ffffffffffffffff6004358181116103cc57611da1903690600401610cd9565b60a4358281116103cc57611db99036906004016116cf565b60c4929192359384116103cc57611dd76100199436906004016116cf565b9390926084359060643590604435906024359061306c565b346103cc5760603660031901126103cc57600435611e0c8161044c565b602435611e188161042e565b604435611e248161042e565b60009260ff845460081c1615611efb57611e5b9061086b9063ffffffff60c01b1963ffffffff60c01b83549260c01b169116179055565b604051611e6781610489565b6009815260208101926820a1a927a9a996ab1960b91b8452640312e302e360dc1b6020604051611e9681610489565b60058152015260ff855460081c1615611ef75761085093611ef29251902061047f557f06c015bd22b4c69690933c1058878ebdfef31f9aaae40bbe86d8a09fe1b2972c61048055611ee5614496565b611eed6144a6565b6144bb565b614516565b8480fd5b8380fd5b346103cc5760803660031901126103cc57600435611f1c8161042e565b611f84602435611f2b8161044c565b604435611f378161042e565b60643591611f448361042e565b60005494611f6860ff8760081c161580978198612002575b8115611fe25750612a36565b85611f7b600160ff196000541617600055565b611fc957613155565b611f8a57005b611f9a61ff001960005416600055565b604051600181527f7f26b83ff96e1f2b6a682f133852f6798a09c465da95921460cefb384740249890602090a1005b611fdd61010061ff00196000541617600055565b613155565b303b15915081611ff4575b5038610812565b6001915060ff161438611fed565b600160ff8216109150611f5c565b346103cc5760203660031901126103cc577f2d5b62420992e5a4afce0e77742636ca2608ef58289fd2e1baa5161ef6e7e41e602060043561205081610beb565b612058614006565b6120606133b1565b151561086b80547fffffff00ffffffffffffffffffffffffffffffffffffffffffffffffffffffff60ff60e01b8460e01b169116179055604051908152a16001606555005b346103cc5760003660031901126103cc576020604051468152f35b346103cc5760003660031901126103cc57602063ffffffff61086b5460c01c16604051908152f35b346103cc5760403660031901126103cc5760043560243561210882614929565b6001600160a01b03821660005261087360205261213b6040600020336001600160a01b0316600052602052604060002090565b549182156121d75760006121873361216f612155856139dc565b6001600160a01b0316600052610873602052604060002090565b906001600160a01b0316600052602052604060002090565b556121a7836121986107d9846139dc565b6121a1856139dc565b906145bb565b60405192835233927f6c172ea51018fb2eb2118f3f8a507c4df71eb519b8c0052834dc3c920182fef490602090a4005b6040516336542bf760e21b8152600490fd5b6020808201906020835283518092526040830192602060408460051b8301019501936000915b84831061221f5750505050505090565b909192939495848061223d600193603f198682030187528a5161120f565b980193019301919493929061220f565b346103cc5761225b366111bd565b9061226582613226565b9160005b81811061227e576040518061130886826121e9565b60008061228c838587612cb7565b9061229c60405180938193612cce565b0390305af46122a9612a06565b90156122cf57906001916122bd8287612ca3565b526122c88186612ca3565b5001612269565b60448151106103cc578060046103cc920151602480918301019101613270565b610180806003193601126103cc576101043561230a8161044c565b61012435916123188361044c565b61014435926123268461044c565b6101643567ffffffffffffffff81116103cc576123479036906004016116cf565b61234f6133b1565b61086b549260ff8460e81c166106e457610be196612414610f669261240663ffffffff6124229860c01c16996123aa6123878c6132cf565b61086b9063ffffffff60c01b1963ffffffff60c01b83549260c01b169116179055565b6123b26105ca565b9a6004358c5260243560208d015260443560408d015260643560608d015260843560808d015260a43560a08d015260c43560c08d015260e43560e08d01526101008c01526101208b019063ffffffff169052565b63ffffffff16610140890152565b63ffffffff16610160870152565b90820152614171565b346103cc5760403660031901126103cc57602061248860043561244d8161042e565b6001600160a01b03602435916124628361042e565b1660005261087383526040600020906001600160a01b0316600052602052604060002090565b54604051908152f35b346103cc5760003660031901126103cc5760206001600160a01b0361086a5416604051908152f35b346103cc5760c03660031901126103cc5760043560243567ffffffffffffffff6064356044356084358381116103cc576124f79036906004016116cf565b60a4949194359182116103cc577f45e04bc8f121ba11466985789ca2822a91109f31bb8ac85504a37b7eaf873c26946125376125869336906004016116cf565b9290916125426133b1565b61254b8a614929565b61257a898b898961255d368888610600565b92612569368b8b610600565b946001600160a01b0346921661403f565b60405196879687612cfd565b0390a36001606555005b346103cc5760203660031901126103cc576004356000526108726020526020604060002054604051908152f35b346103cc5760003660031901126103cc57602060405163ffffffff8152f35b9190610180838203126103cc576125f16105a9565b92803584526020810135602085015260408101356040850152606081013560608501526080810135608085015260a081013560a085015260c081013560c085015260e081013560e08501526101008082013590850152610120612655818301610468565b90850152610140612667818301610468565b90850152610160918282013567ffffffffffffffff81116103cc5761268c9201610637565b90830152565b906020828203126103cc57813567ffffffffffffffff81116103cc5761065292016125dc565b346103cc5760203660031901126103cc5760043567ffffffffffffffff81116103cc57611b4a610ee060209236906004016125dc565b346103cc5760003660031901126103cc57602060ff61086b5460e01c166040519015158152f35b346103cc5760003660031901126103cc5760206040516ec097ce7bc90715b34b9f10000000008152f35b346103cc5760203660031901126103cc576106dd60043561275f8161042e565b612767614006565b611eed6133b1565b346103cc5760603660031901126103cc5760043567ffffffffffffffff81116103cc576127a09036906004016125dc565b6127a86133b1565b60ff61086b5460e01c166128525761014081015163ffffffff4281169116101580612833575b61282157806127df610be1926132e4565b60c0820151602083015190610160840151926127f9610589565b948552602085015260408401526060830152608082015260243560a082015260443590613db7565b604051630c3a9b9d60e41b8152600490fd5b5061284160408201516139dc565b6001600160a01b03163314156127ce565b604051633d90fc5560e11b8152600490fd5b346103cc5760203660031901126103cc576100196004356128848161042e565b61288c614006565b614571565b610160806003193601126103cc57610104356128ac8161044c565b610124356128b98161044c565b6101443567ffffffffffffffff81116103cc576128da9036906004016116cf565b63ffffffff946128ed8642169586612d46565b936128f66133b1565b61086b549160ff8360e81c166106e45761292961293696612406610be19a610f669660c01c16996123aa6123878c6132cf565b86019063ffffffff169052565b610180820152614171565b634e487b7160e01b600052603260045260246000fd5b61086c90815481101561299357600391600052027f71cd7344f4eb2efc8e30291f6dbdb44d618ca368ea5425d217c1d604bf26b84d0190600090565b612941565b346103cc5760203660031901126103cc5760043561086c548110156103cc576129c2604091612957565b506001815491015482519182526020820152f35b346103cc5760203660031901126103cc576106dd6004356129f68161042e565b6129fe614006565b611ef26133b1565b3d15612a31573d90612a17826105e4565b91612a256040519384610567565b82523d6000602084013e565b606090565b156103cc57565b91612a466133b1565b6080820191612a5f610b8884516001600160a01b031690565b602081019182514603612b6657612a87612a8b91836001612a7f89612957565b5001546136ed565b1590565b612b54578060607ff4ad92585b1bc117fbdd644990adf0827bc4c95baeae8a23322af807b6d0020e920193612acd612ac7865163ffffffff1690565b8761377f565b612b47845194835193612b2c612b1e612b0d60408401998a51612af48d5163ffffffff1690565b89516001600160a01b03169160a088019b8c51946137f4565b925193519851995163ffffffff1690565b94516001600160a01b031690565b945163ffffffff9586604051978897169b1699339487612be9565b0390a461044a6001606555565b60405163582f497d60e11b8152600490fd5b604051633d23e4d160e11b8152600490fd5b90815180825260208080930193019160005b828110612b98575050505090565b835185529381019392810192600101612b8a565b90815180825260208080930193019160005b828110612bcc575050505090565b83516001600160a01b031685529381019392810192600101612bbe565b9496959193612c0b60a095612c2993885260c0602089015260c0880190612b78565b906001600160a01b0380951660408801528682036060880152612bac565b951515608085015216910152565b356106528161042e565b356106528161044c565b903590601e19813603018212156103cc570180359067ffffffffffffffff82116103cc576020019181360383136103cc57565b634e487b7160e01b600052602160045260246000fd5b60031115612c9e57565b612c7e565b80518210156129935760209160051b010190565b90821015612993576111e89160051b810190612c4b565b908092918237016000815290565b908060209392818452848401376000828201840152601f01601f1916010190565b94929093612d2292610652979587526020870152608060408701526080860191612cdc565b926060818503910152612cdc565b634e487b7160e01b600052601160045260246000fd5b91909163ffffffff80809416911601918211612d5e57565b612d30565b969492909161044a9b9a9998969492612d8363ffffffff42169889612d46565b985b9593919b999897969492909b612d996133b1565b61086b549660ff8860e81c166106e4578760c01c63ffffffff16612dbc906132cf565b612de39061086b9063ffffffff60c01b1963ffffffff60c01b83549260c01b169116179055565b612deb6105ca565b9d6001600160a01b038f921682526001600160a01b031690602001526001600160a01b031660408d01526001600160a01b031660608c015260808b015260a08a015260c08901526001600160a01b031660e088015260c01c63ffffffff16610100870152610120860190612e64919063ffffffff169052565b63ffffffff1661014085015263ffffffff166101608401523690612e8792610600565b610180820152612e9690614171565b61044a6001606555565b916040519160208301936bffffffffffffffffffffffff199060601b1684526034830152605482015260548152612ed6816104f7565b51902090565b939291602091612ef491604087526040870191612cdc565b930152565b908160209103126103cc57604051906020820182811067ffffffffffffffff8211176104a55760405235815290565b6106529161018090825181526020830151602082015260408301516040820152606083015160608201526080830151608082015260a083015160a082015260c083015160c082015260e083015160e08201526101008084015190820152612f9d610120808501519083019063ffffffff169052565b6101408381015163ffffffff1690820152816101608094015193820152019061120f565b612fd960409295949395606083526060830190612f28565b9460208201520152565b90602061065292818152019061120f565b9c9a99989796959493929190966130096133b1565b60ff61086b5460e81c166106e457613022908e33612ea0565b96604051809e613031826104aa565b81526020015260408d015260608c015260808b015260a08a015260c089015260e088015261010087015263ffffffff16610120860152612e64565b97929095939196949761307d6133b1565b60ff61086b5460e01c16612852576130986101408201612c41565b63ffffffff8042169116101580613136575b6128215761311f61313196613117612e969b6130c9610ee036876125dc565b9a6130d2610589565b9b6130dd36886125dc565b8d5260208d01528660408d01528760608d01526130fb368b84610600565b60808d015260a08c015261310f85356139dc565b983691610600565b953691610600565b9461010060e08301359201359061403f565b613db7565b5061314460408201356139dc565b6001600160a01b03163314156130aa565b92919060009060ff825460081c16156132225761318f9061086b9063ffffffff60c01b1963ffffffff60c01b83549260c01b169116179055565b60405161319b81610489565b6009815260208101916820a1a927a9a996ab1960b91b8352640312e302e360dc1b60206040516131ca81610489565b60058152015260ff815460081c161561321f575051902061047f557f06c015bd22b4c69690933c1058878ebdfef31f9aaae40bbe86d8a09fe1b2972c6104805561044a929161288c91611ef290611ee5614496565b80fd5b5080fd5b9061323082610894565b61323d6040519182610567565b828152809261324e601f1991610894565b019060005b82811061325f57505050565b806060602080938501015201613253565b6020818303126103cc5780519067ffffffffffffffff82116103cc570181601f820112156103cc5780516132a3816105e4565b926132b16040519485610567565b818452602082840101116103cc5761065291602080850191016111ec565b63ffffffff809116908114612d5e5760010190565b604051612ed6816133016020820194604086526060830190612f28565b46604083015203601f198101835282610567565b9190916133206133b1565b60ff61086b5460e01c166128525761014081015163ffffffff4281169116101580613392575b61282157612e9692613357826132e4565b60c083015160208401519061016085015192613371610589565b958652602086015260408501526060840152608083015260a0820152613db7565b506133a060408201516139dc565b6001600160a01b0316331415613346565b6002606554146103cc576002606555565b91908203918211612d5e57565b6040513d6000823e3d90fd5b92610652969592949194610140958552600060208601526040850152606084015263ffffffff809116608084015260a0830152600060c083015260e0820152600061010082015281610120820152019061120f565b91939496909596613475612a8761346e8861345f896001600160a01b031660005261086d602052604060002090565b90600052602052604060002090565b5460ff1690565b6136675760070b906706f05b59d3b2000061348f83614603565b1015613655576ec097ce7bc90715b34b9f100000000084116136435763ffffffff936134bd858a16426133c2565b857f000000000000000000000000000000000000000000000000000000000000000016106136315761086b5460c01c63ffffffff16986134ff6123878b6132cf565b6001600160a01b039586807f00000000000000000000000000000000000000000000000000000000000000001698169288841480613628575b156135ec578034036135da57883b156103cc5760006004996040519a8b8092630d0e30db60e41b825234905af19889156135d5576135a46135b7978a927f32ed1a409ef04c7b0227189c3a103dc5ac10e775a15b785dcc510201f7c25ad39c6135bc575b505b83614653565b92604051998a99169d169b1693876133db565b0390a4565b806135c96135cf926104c7565b806103c1565b3861359c565b6133cf565b604051636452a35d60e01b8152600490fd5b7f32ed1a409ef04c7b0227189c3a103dc5ac10e775a15b785dcc510201f7c25ad39850876135a46135b7976136238430338a614614565b61359e565b50341515613538565b60405163f722177f60e01b8152600490fd5b60405163622db5a960e11b8152600490fd5b60405163284f109760e21b8152600490fd5b604051632a58c4f360e01b8152600490fd5b6001600160a01b037f00000000000000000000000000000000000000000000000000000000000000008116911681146136b0575b50565b476136b85750565b4790803b156103cc57600090600460405180948193630d0e30db60e41b83525af180156135d557156136ad5761044a906104c7565b610652929160405161377681613768602082019460208652805160408401526020810151606084015260a0613732604083015160c06080870152610100860190612b78565b606083015163ffffffff168583015260808301516001600160a01b031660c0860152910151838203603f190160e0850152612bac565b03601f198101835282610567565b5190209161468a565b61378a600291612957565b500162ffffff8260081c168060005281602052600160ff60406000205494161b80809416146137c6576000526020526040600020908154179055565b60405163954476d960e01b8152600490fd5b908160209103126103cc575190565b91908201809211612d5e57565b9195949593909293600096815190818151036139ca5781613874575b5050508261381f575b50505050565b6001600160a01b03816138537ffa7fa7cf6d7dde5f9be65a67e6a1a747e7aa864dcd2d793353c722d80fbbb3579386614755565b6040805195865233602087015291169463ffffffff1693a438808080613819565b604080516370a0823160e01b81523060048083019190915291906020816024816001600160a01b038b165afa9081156135d5576000916139ab575b506000805b8681106138c5575050505050613810565b6138cf8189612ca3565b516138dd575b6001016138b4565b906138f3906138ec838a612ca3565b51906137e7565b9082821161399b5761392d612a8761391b61390e848a612ca3565b516001600160a01b031690565b613925848c612ca3565b51908c6146e1565b156138d5579c50876139916139898f61397261390e61396b61394f848f612ca3565b51966001600160a01b0316600052610873602052604060002090565b928b612ca3565b6001600160a01b0316600052602052604060002090565b9182546137e7565b905560019c6138d5565b50505051632ddaa83160e11b8152fd5b6139c4915060203d6020116111b6576111a78183610567565b386138af565b6040516319a5316760e31b8152600490fd5b6001600160a01b03906139ee81614929565b1690565b91612a8790613a6b92845160408096015191865191613a10836104db565b8252613776613a2b6020840192468452898501958652612957565b5054938851928391613a506020840196602088525160608d86015260a0850190612f28565b9151606084015251608083015203601f198101835282610567565b613a725750565b5163582f497d60e11b8152600490fd5b613a8b82612c94565b52565b9a989693919c9b9997959492909c6101e08c019d8c5260208c015260408b015260608a0152608089015263ffffffff80921660a08901521660c087015260e08601526101008501526101208401526101408301528051610160830152602081015161018083015260408101516101a08301526060015190613b0e82612c94565b6101c00152565b9061065294936080936001600160a01b0380931684526020840152166040820152816060820152019061120f565b90600082516101208101613b5b815163ffffffff1690565b63ffffffff42911610613da5576020850151906002613b8583600052610872602052604060002090565b5414613d9357613baa613ba48593600052610872602052604060002090565b60029055565b60608301517f44b559f101f8fbcc8a0ea43fa91a05a729a5ea6e14a7c75aa750374690137208608085015160a086015192613c728a60c0890151958960a08301519760e082015198613c066101008401519b5163ffffffff1690565b61014084015163ffffffff1690604085015192855194613c2f6101606020890151980151614029565b9760608a0151996040613c456080830151614029565b91015190613c516105d7565b9b8c5260208c015260408b0152600260608b01525b6040519c8d9c8d613a8e565b0390a4613c8260808201516139dc565b604085015194613ca26080613c9a60608401516139dc565b9401516139dc565b6001600160a01b03919082167f0000000000000000000000000000000000000000000000000000000000000000831603613d7e5760809085613d6b575b613ceb88848716614944565b0151928351151580613d61575b613d06575b50505050509050565b1690813b15611efb5783613d34959660405196879586948593633a5be8cb60e01b8552339160048601613b15565b03925af180156135d557613d4e575b808080808594613cfd565b806135c9613d5b926104c7565b38613d43565b50803b1515613cf8565b613d79883033868816614614565b613cdf565b608090613d8e88868686166145bb565b613ceb565b604051630479306360e51b8152600490fd5b60405163d642b7d960e01b8152600490fd5b8051916101208301613dcd815163ffffffff1690565b63ffffffff42911610613da55760208301516001613df682600052610872602052604060002090565b5403613ffe576001905b6002613e1782600052610872602052604060002090565b5414613d9357613ba4613e3591600052610872602052604060002090565b7f44b559f101f8fbcc8a0ea43fa91a05a729a5ea6e14a7c75aa7503746901372086060860151608087015190613ef68760a08a0151958a60c08101519760a08401519860e083015199613e926101008501519c5163ffffffff1690565b61014085015163ffffffff1691604086015193865195613c66613ebe61016060208b01519a0151614029565b9960608c01519b6040613ed46080830151614029565b910151906020613ee26105d7565b9e8f528e015260408d015260608c01613a82565b0390a4613f0660808301516139dc565b916040820151916080613f2081613c9a60608501516139dc565b6001600160a01b03929083167f0000000000000000000000000000000000000000000000000000000000000000841603613feb57613f62853033868a16614614565b613f6e85848616614944565b0151918251151580613fe1575b613f87575b5050505050565b16803b156103cc57613fb6936000809460405196879586948593633a5be8cb60e01b8552339160048601613b15565b03925af180156135d557613fce575b80808080613f80565b806135c9613fdb926104c7565b38613fc5565b50803b1515613f7b565b613ff9858533868a16614614565b613f6e565b600090613e00565b60ff610c5a5460a01c161561401757565b604051631147e02f60e11b8152600490fd5b80519081614038575050600090565b6020012090565b939260429361044a979660208151910120906040519260208401947f8d1994e2bbbd77564cdca06dd819e7ee2a5efa06c80dcb59a4a7b6e39edc538f86526040850152856060850152608084015260a083015260c082015260c081526140a48161052f565b5190209061047f549061048054906040519160208301937fc2f8787176b8ac6bf7215b4adcc1e069bf4ab82d9ab1df05a57a91d425935b6e8552604084015260608301526080820152608081526140fa8161054b565b519020906040519161190160f01b8352600283015260228201522090614b69565b96926106529a9996949198959261014099895260208901526040880152606087015263ffffffff928380921660808801521660a08601521660c084015260e083015261010082015281610120820152019061120f565b61417b8151614929565b604090818101906141a961418f83516139dc565b6001600160a01b031660005261086d602052604060002090565b926141c8612a8761346e60c08501968751600052602052604060002090565b614486576101208201926141ec6141e3855163ffffffff1690565b63ffffffff1690565b80421090811561444d575b5061443c57610140830192614210845163ffffffff1690565b9163ffffffff9283614244817f000000000000000000000000000000000000000000000000000000000000000016426137e7565b91161161442b5761016082015163ffffffff1692808416806143e7575b50508051936001600160a01b037f000000000000000000000000000000000000000000000000000000000000000016809514806143de575b15614378576080830151340361436857843b156103cc576000600495825196878092630d0e30db60e41b825234905af19182156135d5577f32ed1a409ef04c7b0227189c3a103dc5ac10e775a15b785dcc510201f7c25ad3956135b793614355575b505b519260608101519460808201519060a08301519a519861433561432a6101008601519c5163ffffffff1690565b915163ffffffff1690565b9084519c60208601519461018060e088015197015197519a8b9a8b61411b565b806135c9614362926104c7565b386142fb565b51636452a35d60e01b8152600490fd5b91929350346143cd577f32ed1a409ef04c7b0227189c3a103dc5ac10e775a15b785dcc510201f7c25ad3939291816143c86143b96107d96135b795516139dc565b60808601519030903390614614565b6142fd565b8151636452a35d60e01b8152600490fd5b50341515614299565b6301e133801015614416575b5060e082015115614405573880614261565b835163495d907f60e01b8152600490fd5b926144249193421690612d46565b91386143f3565b835163582e388960e01b8152600490fd5b815163f722177f60e01b8152600490fd5b6144589150426133c2565b63ffffffff7f00000000000000000000000000000000000000000000000000000000000000001610386141f7565b51632a58c4f360e01b8152600490fd5b60ff60005460081c16156103cc57565b60ff60005460081c16156103cc576001606555565b6001600160a01b0316801561450457610869816001600160a01b03198254161790557fa9e8c42c9e7fca7f62755189a16b2f5314d43d8fb24e91ba54e6d65f9314e849600080a2565b60405163ba97b39d60e01b8152600490fd5b6001600160a01b0316801561455f5761086a816001600160a01b03198254161790557fa73e8909f8616742d7fe701153d82666f7b7cd480552e23ebb05d358c22fd04e600080a2565b604051635b03092b60e11b8152600490fd5b610c5a9081546001600160a01b0380921692836001600160a01b0319831617905516907fadbc50c98ab7fb1d3a35b4fc0d37eef0251e0aa6f831f8a3c5f6ed8c1efac8ce600080a3565b60405163a9059cbb60e01b60208201526001600160a01b039092166024830152604482019290925261044a916145fe82606481015b03601f198101845283610567565b614c48565b6000811261460e5790565b60000390565b909261044a93604051936323b872dd60e01b60208601526001600160a01b0380921660248601521660448401526064830152606482526145fe8261054b565b90670de0b6b3a7640000916000828403921283831281169084841390151617612d5e57818102918183041490151715612d5e570490565b929091906000915b84518310156146d9576146a58386612ca3565b51906000828210156146c85750600052602052600160406000205b920191614692565b6040916001938252602052206146c0565b915092501490565b60405163a9059cbb60e01b60208281019182526001600160a01b0390941660248301526044820194909452909260009161471e8160648101613768565b519082855af1903d6000519083614736575b50505090565b9192509061474b57503b15155b388080614730565b6001915014614743565b906001600160a01b0380821691907f00000000000000000000000000000000000000000000000000000000000000001682036148795750803b156103cc57604051632e1a7d4d60e01b815260048101839052906000908290602490829084905af180156135d557614866575b506147d86107d9610c5a546001600160a01b031690565b906147ec61086a546001600160a01b031690565b90823b156103cc5760405163cd58657960e01b81526000600482018190526001600160a01b03909316602482015260448101829052606481018390526001608482015260c060a482015260c4810183905292839182908160e481015b03925af180156135d5576148595750565b806135c961044a926104c7565b806135c9614873926104c7565b386147c1565b906107d96148b0916148a385610c5a9261489d6107d985546001600160a01b031690565b90614cda565b546001600160a01b031690565b906148c461086a546001600160a01b031690565b91803b156103cc5761484893600080946040519687958694859363cd58657960e01b855260048501919260e093600084526001600160a01b03809316602085015260408401521660608201526001608082015260c060a0820152600060c08201520190565b60a01c61493257565b6040516379ec0ed760e11b8152600490fd5b6001600160a01b039081169190823b15614984579161044a927f0000000000000000000000000000000000000000000000000000000000000000166145bb565b7f00000000000000000000000000000000000000000000000000000000000000001691823b156103cc576040518093632e1a7d4d60e01b82528360048301528160246000968780945af180156135d5576149fa575b50814710611188578280809381935af16149f1612a06565b501561321f5750565b614a03906104c7565b386149d9565b614a1281614b26565b6001600160a01b0381167fbc7cd75a20ee27fd9adebab32041f755214dbc6bffa90cc0225b39da2e5c2d3b600080a2815115801590614acc575b614a54575050565b6000806136ad937f206661696c65640000000000000000000000000000000000000000000000000060408051614a89816104db565b602781527f416464726573733a206c6f772d6c6576656c2064656c65676174652063616c6c60208201520152602081519101845af4614ac6612a06565b91614db3565b506000614a4c565b614add81614b26565b6001600160a01b0381167fbc7cd75a20ee27fd9adebab32041f755214dbc6bffa90cc0225b39da2e5c2d3b600080a2815115801590614b1e57614a54575050565b506001614a4c565b803b156103cc576001600160a01b037f360894a13ba1a3210667c828492db98dca3e2076cc3735a920a3ca505d382bbc91166001600160a01b0319825416179055565b614b738383614d7f565b6005819592951015612c9e57159384614c32575b508315614bab575b50505015614b9957565b60405163938a182160e01b8152600490fd5b6000929350908291604051614be4816137686020820194630b135d3f60e11b998a8752602484015260406044840152606483019061120f565b51915afa90614bf1612a06565b82614c24575b82614c07575b5050388080614b8f565b614c1c919250602080825183010191016137d8565b143880614bfd565b915060208251101591614bf7565b6001600160a01b03838116911614935038614b87565b6001600160a01b03614ca091167f5361666545524332303a206c6f772d6c6576656c2063616c6c206661696c65646020604051614c8481610489565b8181520152600080846020829651910182855af1614ac6612a06565b8051908115918215614cb7575b50501561321f5750565b81925090602091810103126132225760200151614cd381610beb565b3880614cad565b6044919260206001600160a01b0360405194858092636eb1769f60e11b8252306004830152808916602483015286165afa9283156135d557600093614d5e575b508201809211612d5e5760405163095ea7b360e01b60208201526001600160a01b039093166024840152604483019190915261044a91906145fe82606481016145f0565b614d7891935060203d6020116111b6576111a78183610567565b9138614d1a565b906041815114600014614da9576111e8916020820151906060604084015193015160001a90614ddc565b5050600090600290565b9015614dcd57815115614dc4575090565b3b156103cc5790565b5080519081156103cc57602001fd5b9291907f7fffffffffffffffffffffffffffffff5d576e7357a4501ddfe92f46681b20a08311614e525791608094939160ff602094604051948552168484015260408301526060820152600093849182805260015afa156135d55781516001600160a01b03811615614e4c579190565b50600190565b5050505060009060039056fea26469706673582212206b8ded8d2722dd104150d69126ca960b0b9e742f18ab580dd4941199702da21d64736f6c63430008170033"
}