{
  "address": "0x54e38A62ED3dC88e2B80cBA50deB940580511D26",
  "abi": [
    {
      "inputs": [
        {
          "internalType": "address",
          "name": "_crossDomainAdmin",
          "type": "address"
        },
        {
          "internalType": "address",
          "name": "_hubPool",
          "type": "address"
        },
        {
          "internalType": "address",
          "name": "timerAddress",
          "type": "address"
        }
      ],
      "stateMutability": "nonpayable",
      "type": "constructor"
    },
    {
      "anonymous": false,
      "inputs": [
        {
          "indexed": true,
          "internalType": "address",
          "name": "originToken",
          "type": "address"
        },
        {
          "indexed": true,
          "internalType": "uint256",
          "name": "destinationChainId",
          "type": "uint256"
        },
        {
          "indexed": false,
          "internalType": "bool",
          "name": "enabled",
          "type": "bool"
        }
      ],
      "name": "EnabledDepositRoute",
      "type": "event"
    },
    {
      "anonymous": false,
      "inputs": [
        {
          "indexed": false,
          "internalType": "uint256",
          "name": "amountToReturn",
          "type": "uint256"
        },
        {
          "indexed": false,
          "internalType": "uint256",
          "name": "chainId",
          "type": "uint256"
        },
        {
          "indexed": false,
          "internalType": "uint256[]",
          "name": "refundAmounts",
          "type": "uint256[]"
        },
        {
          "indexed": true,
          "internalType": "uint32",
          "name": "rootBundleId",
          "type": "uint32"
        },
        {
          "indexed": true,
          "internalType": "uint32",
          "name": "leafId",
          "type": "uint32"
        },
        {
          "indexed": false,
          "internalType": "address",
          "name": "l2TokenAddress",
          "type": "address"
        },
        {
          "indexed": false,
          "internalType": "address[]",
          "name": "refundAddresses",
          "type": "address[]"
        },
        {
          "indexed": true,
          "internalType": "address",
          "name": "caller",
          "type": "address"
        }
      ],
      "name": "ExecutedRelayerRefundRoot",
      "type": "event"
    },
    {
      "anonymous": false,
      "inputs": [
        {
          "indexed": true,
          "internalType": "bytes32",
          "name": "relayHash",
          "type": "bytes32"
        },
        {
          "indexed": false,
          "internalType": "uint256",
          "name": "amount",
          "type": "uint256"
        },
        {
          "indexed": false,
          "internalType": "uint256",
          "name": "totalFilledAmount",
          "type": "uint256"
        },
        {
          "indexed": false,
          "internalType": "uint256",
          "name": "fillAmount",
          "type": "uint256"
        },
        {
          "indexed": false,
          "internalType": "uint256",
          "name": "originChainId",
          "type": "uint256"
        },
        {
          "indexed": false,
          "internalType": "uint64",
          "name": "relayerFeePct",
          "type": "uint64"
        },
        {
          "indexed": false,
          "internalType": "uint64",
          "name": "realizedLpFeePct",
          "type": "uint64"
        },
        {
          "indexed": false,
          "internalType": "uint32",
          "name": "depositId",
          "type": "uint32"
        },
        {
          "indexed": false,
          "internalType": "address",
          "name": "destinationToken",
          "type": "address"
        },
        {
          "indexed": true,
          "internalType": "address",
          "name": "caller",
          "type": "address"
        },
        {
          "indexed": false,
          "internalType": "address",
          "name": "depositor",
          "type": "address"
        },
        {
          "indexed": false,
          "internalType": "address",
          "name": "recipient",
          "type": "address"
        }
      ],
      "name": "ExecutedSlowRelayRoot",
      "type": "event"
    },
    {
      "anonymous": false,
      "inputs": [
        {
          "indexed": true,
          "internalType": "bytes32",
          "name": "relayHash",
          "type": "bytes32"
        },
        {
          "indexed": false,
          "internalType": "uint256",
          "name": "amount",
          "type": "uint256"
        },
        {
          "indexed": false,
          "internalType": "uint256",
          "name": "totalFilledAmount",
          "type": "uint256"
        },
        {
          "indexed": false,
          "internalType": "uint256",
          "name": "fillAmount",
          "type": "uint256"
        },
        {
          "indexed": true,
          "internalType": "uint256",
          "name": "repaymentChainId",
          "type": "uint256"
        },
        {
          "indexed": false,
          "internalType": "uint256",
          "name": "originChainId",
          "type": "uint256"
        },
        {
          "indexed": false,
          "internalType": "uint64",
          "name": "relayerFeePct",
          "type": "uint64"
        },
        {
          "indexed": false,
          "internalType": "uint64",
          "name": "realizedLpFeePct",
          "type": "uint64"
        },
        {
          "indexed": false,
          "internalType": "uint32",
          "name": "depositId",
          "type": "uint32"
        },
        {
          "indexed": false,
          "internalType": "address",
          "name": "destinationToken",
          "type": "address"
        },
        {
          "indexed": true,
          "internalType": "address",
          "name": "relayer",
          "type": "address"
        },
        {
          "indexed": false,
          "internalType": "address",
          "name": "depositor",
          "type": "address"
        },
        {
          "indexed": false,
          "internalType": "address",
          "name": "recipient",
          "type": "address"
        }
      ],
      "name": "FilledRelay",
      "type": "event"
    },
    {
      "anonymous": false,
      "inputs": [
        {
          "indexed": false,
          "internalType": "uint256",
          "name": "amount",
          "type": "uint256"
        },
        {
          "indexed": false,
          "internalType": "uint256",
          "name": "destinationChainId",
          "type": "uint256"
        },
        {
          "indexed": false,
          "internalType": "uint64",
          "name": "relayerFeePct",
          "type": "uint64"
        },
        {
          "indexed": true,
          "internalType": "uint32",
          "name": "depositId",
          "type": "uint32"
        },
        {
          "indexed": false,
          "internalType": "uint32",
          "name": "quoteTimestamp",
          "type": "uint32"
        },
        {
          "indexed": true,
          "internalType": "address",
          "name": "originToken",
          "type": "address"
        },
        {
          "indexed": false,
          "internalType": "address",
          "name": "recipient",
          "type": "address"
        },
        {
          "indexed": true,
          "internalType": "address",
          "name": "depositor",
          "type": "address"
        }
      ],
      "name": "FundsDeposited",
      "type": "event"
    },
    {
      "anonymous": false,
      "inputs": [
        {
          "indexed": true,
          "internalType": "address",
          "name": "l2Token",
          "type": "address"
        },
        {
          "indexed": false,
          "internalType": "address",
          "name": "target",
          "type": "address"
        },
        {
          "indexed": false,
          "internalType": "uint256",
          "name": "numberOfTokensBridged",
          "type": "uint256"
        },
        {
          "indexed": false,
          "internalType": "uint256",
          "name": "l1Gas",
          "type": "uint256"
        }
      ],
      "name": "OptimismTokensBridged",
      "type": "event"
    },
    {
      "anonymous": false,
      "inputs": [
        {
          "indexed": true,
          "internalType": "uint32",
          "name": "rootBundleId",
          "type": "uint32"
        },
        {
          "indexed": false,
          "internalType": "bytes32",
          "name": "relayerRefundRoot",
          "type": "bytes32"
        },
        {
          "indexed": false,
          "internalType": "bytes32",
          "name": "slowRelayRoot",
          "type": "bytes32"
        }
      ],
      "name": "RelayedRootBundle",
      "type": "event"
    },
    {
      "anonymous": false,
      "inputs": [
        {
          "indexed": false,
          "internalType": "uint64",
          "name": "newRelayerFeePct",
          "type": "uint64"
        },
        {
          "indexed": true,
          "internalType": "uint32",
          "name": "depositId",
          "type": "uint32"
        },
        {
          "indexed": true,
          "internalType": "address",
          "name": "depositor",
          "type": "address"
        },
        {
          "indexed": false,
          "internalType": "bytes",
          "name": "depositorSignature",
          "type": "bytes"
        }
      ],
      "name": "RequestedSpeedUpDeposit",
      "type": "event"
    },
    {
      "anonymous": false,
      "inputs": [
        {
          "indexed": false,
          "internalType": "uint32",
          "name": "newBuffer",
          "type": "uint32"
        }
      ],
      "name": "SetDepositQuoteTimeBuffer",
      "type": "event"
    },
    {
      "anonymous": false,
      "inputs": [
        {
          "indexed": true,
          "internalType": "address",
          "name": "newHubPool",
          "type": "address"
        }
      ],
      "name": "SetHubPool",
      "type": "event"
    },
    {
      "anonymous": false,
      "inputs": [
        {
          "indexed": true,
          "internalType": "uint32",
          "name": "newL1Gas",
          "type": "uint32"
        }
      ],
      "name": "SetL1Gas",
      "type": "event"
    },
    {
      "anonymous": false,
      "inputs": [
        {
          "indexed": true,
          "internalType": "address",
          "name": "newAdmin",
          "type": "address"
        }
      ],
      "name": "SetXDomainAdmin",
      "type": "event"
    },
    {
      "anonymous": false,
      "inputs": [
        {
          "indexed": false,
          "internalType": "uint256",
          "name": "amountToReturn",
          "type": "uint256"
        },
        {
          "indexed": true,
          "internalType": "uint256",
          "name": "chainId",
          "type": "uint256"
        },
        {
          "indexed": true,
          "internalType": "uint32",
          "name": "leafId",
          "type": "uint32"
        },
        {
          "indexed": true,
          "internalType": "address",
          "name": "l2TokenAddress",
          "type": "address"
        },
        {
          "indexed": false,
          "internalType": "address",
          "name": "caller",
          "type": "address"
        }
      ],
      "name": "TokensBridged",
      "type": "event"
    },
    {
      "inputs": [],
      "name": "chainId",
      "outputs": [
        {
          "internalType": "uint256",
          "name": "",
          "type": "uint256"
        }
      ],
      "stateMutability": "view",
      "type": "function"
    },
    {
      "inputs": [],
      "name": "crossDomainAdmin",
      "outputs": [
        {
          "internalType": "address",
          "name": "",
          "type": "address"
        }
      ],
      "stateMutability": "view",
      "type": "function"
    },
    {
      "inputs": [],
      "name": "deploymentTime",
      "outputs": [
        {
          "internalType": "uint32",
          "name": "",
          "type": "uint32"
        }
      ],
      "stateMutability": "view",
      "type": "function"
    },
    {
      "inputs": [
        {
          "internalType": "address",
          "name": "recipient",
          "type": "address"
        },
        {
          "internalType": "address",
          "name": "originToken",
          "type": "address"
        },
        {
          "internalType": "uint256",
          "name": "amount",
          "type": "uint256"
        },
        {
          "internalType": "uint256",
          "name": "destinationChainId",
          "type": "uint256"
        },
        {
          "internalType": "uint64",
          "name": "relayerFeePct",
          "type": "uint64"
        },
        {
          "internalType": "uint32",
          "name": "quoteTimestamp",
          "type": "uint32"
        }
      ],
      "name": "deposit",
      "outputs": [],
      "stateMutability": "payable",
      "type": "function"
    },
    {
      "inputs": [],
      "name": "depositQuoteTimeBuffer",
      "outputs": [
        {
          "internalType": "uint32",
          "name": "",
          "type": "uint32"
        }
      ],
      "stateMutability": "view",
      "type": "function"
    },
    {
      "inputs": [
        {
          "internalType": "address",
          "name": "",
          "type": "address"
        },
        {
          "internalType": "uint256",
          "name": "",
          "type": "uint256"
        }
      ],
      "name": "enabledDepositRoutes",
      "outputs": [
        {
          "internalType": "bool",
          "name": "",
          "type": "bool"
        }
      ],
      "stateMutability": "view",
      "type": "function"
    },
    {
      "inputs": [
        {
          "internalType": "uint32",
          "name": "rootBundleId",
          "type": "uint32"
        },
        {
          "components": [
            {
              "internalType": "uint256",
              "name": "amountToReturn",
              "type": "uint256"
            },
            {
              "internalType": "uint256",
              "name": "chainId",
              "type": "uint256"
            },
            {
              "internalType": "uint256[]",
              "name": "refundAmounts",
              "type": "uint256[]"
            },
            {
              "internalType": "uint32",
              "name": "leafId",
              "type": "uint32"
            },
            {
              "internalType": "address",
              "name": "l2TokenAddress",
              "type": "address"
            },
            {
              "internalType": "address[]",
              "name": "refundAddresses",
              "type": "address[]"
            }
          ],
          "internalType": "struct SpokePoolInterface.RelayerRefundLeaf",
          "name": "relayerRefundLeaf",
          "type": "tuple"
        },
        {
          "internalType": "bytes32[]",
          "name": "proof",
          "type": "bytes32[]"
        }
      ],
      "name": "executeRelayerRefundRoot",
      "outputs": [],
      "stateMutability": "nonpayable",
      "type": "function"
    },
    {
      "inputs": [
        {
          "internalType": "address",
          "name": "depositor",
          "type": "address"
        },
        {
          "internalType": "address",
          "name": "recipient",
          "type": "address"
        },
        {
          "internalType": "address",
          "name": "destinationToken",
          "type": "address"
        },
        {
          "internalType": "uint256",
          "name": "totalRelayAmount",
          "type": "uint256"
        },
        {
          "internalType": "uint256",
          "name": "originChainId",
          "type": "uint256"
        },
        {
          "internalType": "uint64",
          "name": "realizedLpFeePct",
          "type": "uint64"
        },
        {
          "internalType": "uint64",
          "name": "relayerFeePct",
          "type": "uint64"
        },
        {
          "internalType": "uint32",
          "name": "depositId",
          "type": "uint32"
        },
        {
          "internalType": "uint32",
          "name": "rootBundleId",
          "type": "uint32"
        },
        {
          "internalType": "bytes32[]",
          "name": "proof",
          "type": "bytes32[]"
        }
      ],
      "name": "executeSlowRelayRoot",
      "outputs": [],
      "stateMutability": "nonpayable",
      "type": "function"
    },
    {
      "inputs": [
        {
          "internalType": "address",
          "name": "depositor",
          "type": "address"
        },
        {
          "internalType": "address",
          "name": "recipient",
          "type": "address"
        },
        {
          "internalType": "address",
          "name": "destinationToken",
          "type": "address"
        },
        {
          "internalType": "uint256",
          "name": "amount",
          "type": "uint256"
        },
        {
          "internalType": "uint256",
          "name": "maxTokensToSend",
          "type": "uint256"
        },
        {
          "internalType": "uint256",
          "name": "repaymentChainId",
          "type": "uint256"
        },
        {
          "internalType": "uint256",
          "name": "originChainId",
          "type": "uint256"
        },
        {
          "internalType": "uint64",
          "name": "realizedLpFeePct",
          "type": "uint64"
        },
        {
          "internalType": "uint64",
          "name": "relayerFeePct",
          "type": "uint64"
        },
        {
          "internalType": "uint32",
          "name": "depositId",
          "type": "uint32"
        }
      ],
      "name": "fillRelay",
      "outputs": [],
      "stateMutability": "nonpayable",
      "type": "function"
    },
    {
      "inputs": [
        {
          "internalType": "address",
          "name": "depositor",
          "type": "address"
        },
        {
          "internalType": "address",
          "name": "recipient",
          "type": "address"
        },
        {
          "internalType": "address",
          "name": "destinationToken",
          "type": "address"
        },
        {
          "internalType": "uint256",
          "name": "amount",
          "type": "uint256"
        },
        {
          "internalType": "uint256",
          "name": "maxTokensToSend",
          "type": "uint256"
        },
        {
          "internalType": "uint256",
          "name": "repaymentChainId",
          "type": "uint256"
        },
        {
          "internalType": "uint256",
          "name": "originChainId",
          "type": "uint256"
        },
        {
          "internalType": "uint64",
          "name": "realizedLpFeePct",
          "type": "uint64"
        },
        {
          "internalType": "uint64",
          "name": "relayerFeePct",
          "type": "uint64"
        },
        {
          "internalType": "uint64",
          "name": "newRelayerFeePct",
          "type": "uint64"
        },
        {
          "internalType": "uint32",
          "name": "depositId",
          "type": "uint32"
        },
        {
          "internalType": "bytes",
          "name": "depositorSignature",
          "type": "bytes"
        }
      ],
      "name": "fillRelayWithUpdatedFee",
      "outputs": [],
      "stateMutability": "nonpayable",
      "type": "function"
    },
    {
      "inputs": [],
      "name": "getCurrentTime",
      "outputs": [
        {
          "internalType": "uint256",
          "name": "",
          "type": "uint256"
        }
      ],
      "stateMutability": "view",
      "type": "function"
    },
    {
      "inputs": [],
      "name": "hubPool",
      "outputs": [
        {
          "internalType": "address",
          "name": "",
          "type": "address"
        }
      ],
      "stateMutability": "view",
      "type": "function"
    },
    {
      "inputs": [],
      "name": "l1Gas",
      "outputs": [
        {
          "internalType": "uint32",
          "name": "",
          "type": "uint32"
        }
      ],
      "stateMutability": "view",
      "type": "function"
    },
    {
      "inputs": [],
      "name": "l2Eth",
      "outputs": [
        {
          "internalType": "address",
          "name": "",
          "type": "address"
        }
      ],
      "stateMutability": "view",
      "type": "function"
    },
    {
      "inputs": [],
      "name": "messenger",
      "outputs": [
        {
          "internalType": "address",
          "name": "",
          "type": "address"
        }
      ],
      "stateMutability": "view",
      "type": "function"
    },
    {
      "inputs": [
        {
          "internalType": "bytes[]",
          "name": "data",
          "type": "bytes[]"
        }
      ],
      "name": "multicall",
      "outputs": [
        {
          "internalType": "bytes[]",
          "name": "results",
          "type": "bytes[]"
        }
      ],
      "stateMutability": "payable",
      "type": "function"
    },
    {
      "inputs": [],
      "name": "numberOfDeposits",
      "outputs": [
        {
          "internalType": "uint32",
          "name": "",
          "type": "uint32"
        }
      ],
      "stateMutability": "view",
      "type": "function"
    },
    {
      "inputs": [
        {
          "internalType": "bytes32",
          "name": "",
          "type": "bytes32"
        }
      ],
      "name": "relayFills",
      "outputs": [
        {
          "internalType": "uint256",
          "name": "",
          "type": "uint256"
        }
      ],
      "stateMutability": "view",
      "type": "function"
    },
    {
      "inputs": [
        {
          "internalType": "bytes32",
          "name": "relayerRefundRoot",
          "type": "bytes32"
        },
        {
          "internalType": "bytes32",
          "name": "slowRelayRoot",
          "type": "bytes32"
        }
      ],
      "name": "relayRootBundle",
      "outputs": [],
      "stateMutability": "nonpayable",
      "type": "function"
    },
    {
      "inputs": [
        {
          "internalType": "uint256",
          "name": "",
          "type": "uint256"
        }
      ],
      "name": "rootBundles",
      "outputs": [
        {
          "internalType": "bytes32",
          "name": "slowRelayRoot",
          "type": "bytes32"
        },
        {
          "internalType": "bytes32",
          "name": "relayerRefundRoot",
          "type": "bytes32"
        }
      ],
      "stateMutability": "view",
      "type": "function"
    },
    {
      "inputs": [
        {
          "internalType": "address",
          "name": "newCrossDomainAdmin",
          "type": "address"
        }
      ],
      "name": "setCrossDomainAdmin",
      "outputs": [],
      "stateMutability": "nonpayable",
      "type": "function"
    },
    {
      "inputs": [
        {
          "internalType": "uint256",
          "name": "time",
          "type": "uint256"
        }
      ],
      "name": "setCurrentTime",
      "outputs": [],
      "stateMutability": "nonpayable",
      "type": "function"
    },
    {
      "inputs": [
        {
          "internalType": "uint32",
          "name": "newDepositQuoteTimeBuffer",
          "type": "uint32"
        }
      ],
      "name": "setDepositQuoteTimeBuffer",
      "outputs": [],
      "stateMutability": "nonpayable",
      "type": "function"
    },
    {
      "inputs": [
        {
          "internalType": "address",
          "name": "originToken",
          "type": "address"
        },
        {
          "internalType": "uint256",
          "name": "destinationChainId",
          "type": "uint256"
        },
        {
          "internalType": "bool",
          "name": "enabled",
          "type": "bool"
        }
      ],
      "name": "setEnableRoute",
      "outputs": [],
      "stateMutability": "nonpayable",
      "type": "function"
    },
    {
      "inputs": [
        {
          "internalType": "address",
          "name": "newHubPool",
          "type": "address"
        }
      ],
      "name": "setHubPool",
      "outputs": [],
      "stateMutability": "nonpayable",
      "type": "function"
    },
    {
      "inputs": [
        {
          "internalType": "uint32",
          "name": "newl1Gas",
          "type": "uint32"
        }
      ],
      "name": "setL1GasLimit",
      "outputs": [],
      "stateMutability": "nonpayable",
      "type": "function"
    },
    {
      "inputs": [
        {
          "internalType": "address",
          "name": "depositor",
          "type": "address"
        },
        {
          "internalType": "uint64",
          "name": "newRelayerFeePct",
          "type": "uint64"
        },
        {
          "internalType": "uint32",
          "name": "depositId",
          "type": "uint32"
        },
        {
          "internalType": "bytes",
          "name": "depositorSignature",
          "type": "bytes"
        }
      ],
      "name": "speedUpDeposit",
      "outputs": [],
      "stateMutability": "nonpayable",
      "type": "function"
    },
    {
      "inputs": [],
      "name": "timerAddress",
      "outputs": [
        {
          "internalType": "address",
          "name": "",
          "type": "address"
        }
      ],
      "stateMutability": "view",
      "type": "function"
    },
    {
      "inputs": [],
      "name": "weth",
      "outputs": [
        {
          "internalType": "contract WETH9",
          "name": "",
          "type": "address"
        }
      ],
      "stateMutability": "view",
      "type": "function"
    },
    {
      "stateMutability": "payable",
      "type": "receive"
    }
  ],
  "transactionHash": "0xde4efd99cde6b3ac97dc427c9d935360fccaa7b46d401a7a0e8613581a2fa7d6",
  "args": [
    "0x1467332AD6C534B8F3e3aee27DFf216Df94BC227",
    "0x1467332AD6C534B8F3e3aee27DFf216Df94BC227",
    "0x0000000000000000000000000000000000000000"
  ],
  "numDeployments": 1,
  "solcInputHash": "983bbb6073f39aed5d267ccd9a13909e",
  "bytecode": "0x60806040526004805463ffffffff60c01b1916604b60c31b179055600880546001600160c01b03191677deaddeaddeaddeaddeaddeaddeaddeaddead0000004c4b401790553480156200005157600080fd5b50604051620046573803806200465783398101604081905262000074916200033d565b600080546001600160a01b031916734200000000000000000000000000000000000007179055600180546001600160a81b0319166001600160a01b03831617600160a01b179055828273420000000000000000000000000000000000000683620000de846200013f565b620000e983620001e5565b620000f362000287565b600480546001600160a01b039094166001600160a01b031963ffffffff93909316600160a01b02929092166001600160c01b0319909416939093171790915550620003a1945050505050565b6001600160a01b0381166200019b5760405162461bcd60e51b815260206004820152601960248201527f4261642062726964676520726f7574657220616464726573730000000000000060448201526064015b60405180910390fd5b600280546001600160a01b0319166001600160a01b0383169081179091556040517fa9e8c42c9e7fca7f62755189a16b2f5314d43d8fb24e91ba54e6d65f9314e84990600090a250565b6001600160a01b0381166200023d5760405162461bcd60e51b815260206004820152601460248201527f4261642068756220706f6f6c2061646472657373000000000000000000000000604482015260640162000192565b600380546001600160a01b0319166001600160a01b0383169081179091556040517f1f17a88f67b0f49060a34bec1a4723a563620e6aa265eb640b5046dcee0759a090600090a250565b6001546000906001600160a01b0316156200031b57600160009054906101000a90046001600160a01b03166001600160a01b03166329cb924d6040518163ffffffff1660e01b8152600401602060405180830381865afa158015620002f0573d6000803e3d6000fd5b505050506040513d601f19601f8201168201806040525081019062000316919062000387565b905090565b504290565b80516001600160a01b03811681146200033857600080fd5b919050565b6000806000606084860312156200035357600080fd5b6200035e8462000320565b92506200036e6020850162000320565b91506200037e6040850162000320565b90509250925092565b6000602082840312156200039a57600080fd5b5051919050565b6142a680620003b16000396000f3fe6080604052600436106101c65760003560e01c8063766e0703116100f7578063e190440211610095578063ee2a53f811610064578063ee2a53f8146105e5578063f06850f61461061a578063f500697c14610647578063ffc351a31461066757600080fd5b8063e19044021461052e578063e282d5b91461055b578063e32292111461057b578063ecda10f5146105b057600080fd5b8063a1244c67116100d1578063a1244c6714610491578063ac9650d8146104ce578063c894c0ca146104ee578063de7eba781461050e57600080fd5b8063766e07031461044157806389a153cc1461045e5780639a8a05921461047e57600080fd5b80633cb747bf11610164578063493a4f841161013e578063493a4f841461035b5780635249fef11461037b5780635285e058146103c657806357f6dcb8146103f357600080fd5b80633cb747bf146102ee5780633fc8cef31461031b578063492289781461034857600080fd5b806322f8e566116101a057806322f8e5661461026b578063272751c71461028b5780632752042e146102ab57806329cb924d146102cb57600080fd5b80630eaac9f0146101d25780631c39c38d146101f45780631dfb2d021461024b57600080fd5b366101cd57005b600080fd5b3480156101de57600080fd5b506101f26101ed366004613364565b610687565b005b34801561020057600080fd5b506001546102219073ffffffffffffffffffffffffffffffffffffffff1681565b60405173ffffffffffffffffffffffffffffffffffffffff90911681526020015b60405180910390f35b34801561025757600080fd5b506101f26102663660046133ac565b6106ee565b34801561027757600080fd5b506101f26102863660046133c9565b610702565b34801561029757600080fd5b506101f26102a63660046133f0565b6107ab565b3480156102b757600080fd5b506101f26102c6366004613364565b61084a565b3480156102d757600080fd5b506102e06108d9565b604051908152602001610242565b3480156102fa57600080fd5b506000546102219073ffffffffffffffffffffffffffffffffffffffff1681565b34801561032757600080fd5b506004546102219073ffffffffffffffffffffffffffffffffffffffff1681565b6101f261035636600461344a565b610995565b34801561036757600080fd5b506101f26103763660046134b4565b610e46565b34801561038757600080fd5b506103b66103963660046134d6565b600560209081526000928352604080842090915290825290205460ff1681565b6040519015158152602001610242565b3480156103d257600080fd5b506002546102219073ffffffffffffffffffffffffffffffffffffffff1681565b3480156103ff57600080fd5b5060045461042c907801000000000000000000000000000000000000000000000000900463ffffffff1681565b60405163ffffffff9091168152602001610242565b34801561044d57600080fd5b5060085461042c9063ffffffff1681565b34801561046a57600080fd5b506101f2610479366004613502565b610ef4565b34801561048a57600080fd5b50466102e0565b34801561049d57600080fd5b5060045461042c907c0100000000000000000000000000000000000000000000000000000000900463ffffffff1681565b6104e16104dc3660046135a6565b611042565b6040516102429190613691565b3480156104fa57600080fd5b506101f26105093660046138ab565b61121c565b34801561051a57600080fd5b506101f26105293660046133ac565b6112d5565b34801561053a57600080fd5b506003546102219073ffffffffffffffffffffffffffffffffffffffff1681565b34801561056757600080fd5b506101f2610576366004613a3e565b6112e6565b34801561058757600080fd5b5060085461022190640100000000900473ffffffffffffffffffffffffffffffffffffffff1681565b3480156105bc57600080fd5b5060045461042c9074010000000000000000000000000000000000000000900463ffffffff1681565b3480156105f157600080fd5b506106056106003660046133c9565b6113c9565b60408051928352602083019190915201610242565b34801561062657600080fd5b506102e06106353660046133c9565b60076020526000908152604090205481565b34801561065357600080fd5b506101f2610662366004613aaf565b6113f7565b34801561067357600080fd5b506101f2610682366004613b7c565b6114ad565b61068f61160a565b600880547fffffffffffffffffffffffffffffffffffffffffffffffffffffffff000000001663ffffffff83169081179091556040517fe486a5c4bd7b36eabbfe274c99b39130277417be8d2209b4dae04c4fba64ee3a90600090a250565b6106f661160a565b6106ff81611843565b50565b60015473ffffffffffffffffffffffffffffffffffffffff1661072457600080fd5b6001546040517f22f8e5660000000000000000000000000000000000000000000000000000000081526004810183905273ffffffffffffffffffffffffffffffffffffffff909116906322f8e56690602401600060405180830381600087803b15801561079057600080fd5b505af11580156107a4573d6000803e3d6000fd5b5050505050565b6107b361160a565b73ffffffffffffffffffffffffffffffffffffffff8316600081815260056020908152604080832086845282529182902080547fffffffffffffffffffffffffffffffffffffffffffffffffffffffffffffff001685151590811790915591519182528492917f0a21fdd43d0ad0c62689ee7230a47309a050755bcc52eba00310add65297692a91015b60405180910390a3505050565b61085261160a565b600480547fffffffff00000000ffffffffffffffffffffffffffffffffffffffffffffffff16780100000000000000000000000000000000000000000000000063ffffffff8416908102919091179091556040519081527f0e55dd180fa793d9036c804d0a116e6a7617a48e72cee1f83d92793a793fcc039060200160405180910390a150565b60015460009073ffffffffffffffffffffffffffffffffffffffff161561099057600160009054906101000a900473ffffffffffffffffffffffffffffffffffffffff1673ffffffffffffffffffffffffffffffffffffffff166329cb924d6040518163ffffffff1660e01b8152600401602060405180830381865afa158015610967573d6000803e3d6000fd5b505050506040513d601f19601f8201168201806040525081019061098b9190613c5a565b905090565b504290565b73ffffffffffffffffffffffffffffffffffffffff851660009081526005602090815260408083208684529091529020548590849060ff16610a38576040517f08c379a000000000000000000000000000000000000000000000000000000000815260206004820152600e60248201527f44697361626c656420726f75746500000000000000000000000000000000000060448201526064015b60405180910390fd5b610a4061192f565b610a6d600180547fffffffffffffffffffffff00ffffffffffffffffffffffffffffffffffffffff169055565b6706f05b59d3b200008467ffffffffffffffff1610610ae8576040517f08c379a000000000000000000000000000000000000000000000000000000000815260206004820152601360248201527f696e76616c69642072656c6179657220666565000000000000000000000000006044820152606401610a2f565b600454610b17907801000000000000000000000000000000000000000000000000900463ffffffff1684613ca2565b63ffffffff16610b256108d9565b10158015610b6e5750600454610b5d907801000000000000000000000000000000000000000000000000900463ffffffff1684613cc7565b63ffffffff16610b6b6108d9565b11155b610bd4576040517f08c379a000000000000000000000000000000000000000000000000000000000815260206004820152601260248201527f696e76616c69642071756f74652074696d6500000000000000000000000000006044820152606401610a2f565b60045473ffffffffffffffffffffffffffffffffffffffff8881169116148015610bfe5750600034115b15610cf557853414610c6c576040517f08c379a000000000000000000000000000000000000000000000000000000000815260206004820152601b60248201527f6d73672e76616c7565206d757374206d6174636820616d6f756e7400000000006044820152606401610a2f565b60048054604080517fd0e30db0000000000000000000000000000000000000000000000000000000008152905173ffffffffffffffffffffffffffffffffffffffff9092169263d0e30db0923492808301926000929182900301818588803b158015610cd757600080fd5b505af1158015610ceb573d6000803e3d6000fd5b5050505050610d17565b610d1773ffffffffffffffffffffffffffffffffffffffff88163330896119b5565b600454604080518881526020810188905267ffffffffffffffff87168183015263ffffffff868116606083015273ffffffffffffffffffffffffffffffffffffffff8c8116608084015292513394938c16937c01000000000000000000000000000000000000000000000000000000009004909116917ffc53c5b967d467d4136291c639720626f3d6dda97b4364da813e6858ad48a721919081900360a00190a460016004601c8282829054906101000a900463ffffffff16610dda9190613cc7565b92506101000a81548163ffffffff021916908363ffffffff160217905550610e3c600180547fffffffffffffffffffffff00ffffffffffffffffffffffffffffffffffffffff1674010000000000000000000000000000000000000000179055565b5050505050505050565b610e4e61160a565b60068054600181018255600091909152600381027ff652222313e28459528d920b65115c16c04f3efc82aaedc97be59f3f377c0d4081018490557ff652222313e28459528d920b65115c16c04f3efc82aaedc97be59f3f377c0d3f01828155604080518581526020810185905263ffffffff8416917fc86ba04c55bc5eb2f2876b91c438849a296dbec7b08751c3074d92e04f0a77af910160405180910390a250505050565b610efc61192f565b610f29600180547fffffffffffffffffffffff00ffffffffffffffffffffffffffffffffffffffff169055565b60006040518061010001604052808c73ffffffffffffffffffffffffffffffffffffffff1681526020018b73ffffffffffffffffffffffffffffffffffffffff1681526020018a73ffffffffffffffffffffffffffffffffffffffff1681526020018981526020018681526020018567ffffffffffffffff1681526020018467ffffffffffffffff1681526020018363ffffffff1681525090506000610fce82611a91565b90506000610fe082848b886000611ac1565b9050610fef82828a8887611d4f565b505050611036600180547fffffffffffffffffffffff00ffffffffffffffffffffffffffffffffffffffff1674010000000000000000000000000000000000000000179055565b50505050505050505050565b606034156110ac576040517f08c379a000000000000000000000000000000000000000000000000000000000815260206004820152601b60248201527f4f6e6c79206d756c746963616c6c207769746820302076616c756500000000006044820152606401610a2f565b8167ffffffffffffffff8111156110c5576110c5613711565b6040519080825280602002602001820160405280156110f857816020015b60608152602001906001900390816110e35790505b50905060005b82811015611215576000803086868581811061111c5761111c613cef565b905060200281019061112e9190613d1e565b60405161113c929190613d83565b600060405180830381855af49150503d8060008114611177576040519150601f19603f3d011682016040523d82523d6000602084013e61117c565b606091505b5091509150816111e25760448151101561119557600080fd5b600481019050808060200190518101906111af9190613d93565b6040517f08c379a0000000000000000000000000000000000000000000000000000000008152600401610a2f9190613e01565b808484815181106111f5576111f5613cef565b60200260200101819052505050808061120d90613e14565b9150506110fe565b5092915050565b61122461192f565b611251600180547fffffffffffffffffffffff00ffffffffffffffffffffffffffffffffffffffff169055565b600454608083015173ffffffffffffffffffffffffffffffffffffffff9081169116141561128157611281611e54565b61128c838383611ec5565b6112d0600180547fffffffffffffffffffffff00ffffffffffffffffffffffffffffffffffffffff1674010000000000000000000000000000000000000000179055565b505050565b6112dd61160a565b6106ff816122a1565b6112ee61192f565b61131b600180547fffffffffffffffffffffff00ffffffffffffffffffffffffffffffffffffffff169055565b611328844685858561238d565b8373ffffffffffffffffffffffffffffffffffffffff168263ffffffff167fb9de16bf376724405019a10ef4fedac57fecd292bf86c08d81d7c42d394d5d378584604051611377929190613e4d565b60405180910390a36113c3600180547fffffffffffffffffffffff00ffffffffffffffffffffffffffffffffffffffff1674010000000000000000000000000000000000000000179055565b50505050565b600681815481106113d957600080fd5b60009182526020909120600390910201805460019091015490915082565b6113ff61192f565b61142c600180547fffffffffffffffffffffff00ffffffffffffffffffffffffffffffffffffffff169055565b60045473ffffffffffffffffffffffffffffffffffffffff8981169116141561145757611457611e54565b6114698a8a8a8a8a8a8a8a8a8a61242a565b611036600180547fffffffffffffffffffffff00ffffffffffffffffffffffffffffffffffffffff1674010000000000000000000000000000000000000000179055565b6114b561192f565b6114e2600180547fffffffffffffffffffffff00ffffffffffffffffffffffffffffffffffffffff169055565b6114ef8c8785858561238d565b60006040518061010001604052808e73ffffffffffffffffffffffffffffffffffffffff1681526020018d73ffffffffffffffffffffffffffffffffffffffff1681526020018c73ffffffffffffffffffffffffffffffffffffffff1681526020018b81526020018881526020018767ffffffffffffffff1681526020018667ffffffffffffffff1681526020018463ffffffff168152509050600061159482611a91565b905060006115a682848d896000611ac1565b90506115b582828c8987611d4f565b5050506115fc600180547fffffffffffffffffffffff00ffffffffffffffffffffffffffffffffffffffff1674010000000000000000000000000000000000000000179055565b505050505050505050505050565b60025473ffffffffffffffffffffffffffffffffffffffff1661164260005473ffffffffffffffffffffffffffffffffffffffff1690565b73ffffffffffffffffffffffffffffffffffffffff163373ffffffffffffffffffffffffffffffffffffffff16146116fc576040517f08c379a000000000000000000000000000000000000000000000000000000000815260206004820152602e60248201527f4f564d5f58434841494e3a206d657373656e67657220636f6e7472616374207560448201527f6e61757468656e746963617465640000000000000000000000000000000000006064820152608401610a2f565b8073ffffffffffffffffffffffffffffffffffffffff1661173260005473ffffffffffffffffffffffffffffffffffffffff1690565b73ffffffffffffffffffffffffffffffffffffffff16636e296e456040518163ffffffff1660e01b8152600401602060405180830381865afa15801561177c573d6000803e3d6000fd5b505050506040513d601f19601f820116820180604052508101906117a09190613e70565b73ffffffffffffffffffffffffffffffffffffffff16146106ff576040517f08c379a000000000000000000000000000000000000000000000000000000000815260206004820152603060248201527f4f564d5f58434841494e3a2077726f6e672073656e646572206f662063726f7360448201527f732d646f6d61696e206d657373616765000000000000000000000000000000006064820152608401610a2f565b73ffffffffffffffffffffffffffffffffffffffff81166118c0576040517f08c379a000000000000000000000000000000000000000000000000000000000815260206004820152601460248201527f4261642068756220706f6f6c20616464726573730000000000000000000000006044820152606401610a2f565b600380547fffffffffffffffffffffffff00000000000000000000000000000000000000001673ffffffffffffffffffffffffffffffffffffffff83169081179091556040517f1f17a88f67b0f49060a34bec1a4723a563620e6aa265eb640b5046dcee0759a090600090a250565b60015474010000000000000000000000000000000000000000900460ff166119b3576040517f08c379a000000000000000000000000000000000000000000000000000000000815260206004820152601f60248201527f5265656e7472616e637947756172643a207265656e7472616e742063616c6c006044820152606401610a2f565b565b60405173ffffffffffffffffffffffffffffffffffffffff808516602483015283166044820152606481018290526113c39085907f23b872dd00000000000000000000000000000000000000000000000000000000906084015b604080517fffffffffffffffffffffffffffffffffffffffffffffffffffffffffffffffe08184030181529190526020810180517bffffffffffffffffffffffffffffffffffffffffffffffffffffffff167fffffffff000000000000000000000000000000000000000000000000000000009093169290921790915261259c565b600081604051602001611aa49190613e8d565b604051602081830303815290604052805190602001209050919050565b60006706f05b59d3b200008367ffffffffffffffff16108015611af957506706f05b59d3b200008560a0015167ffffffffffffffff16105b611b5f576040517f08c379a000000000000000000000000000000000000000000000000000000000815260206004820152600c60248201527f696e76616c6964206665657300000000000000000000000000000000000000006044820152606401610a2f565b606085015160008781526007602052604090205410611bda576040517f08c379a000000000000000000000000000000000000000000000000000000000815260206004820152600c60248201527f72656c61792066696c6c656400000000000000000000000000000000000000006044820152606401610a2f565b83611be757506000611d46565b611c0084848760a00151611bfb9190613f19565b6126a8565b60008781526007602052604081205460608801519293508692611c239190613f3c565b905082811015611c4c57809250611c4983868960a00151611c449190613f19565b6126e9565b91505b60008881526007602052604081208054859290611c6a908490613f53565b9091555050600454604088015173ffffffffffffffffffffffffffffffffffffffff90811691161415611cd65783611cc3576040870151611cc39073ffffffffffffffffffffffffffffffffffffffff163330856119b5565b611cd1876020015183612712565b611d43565b83611d1057611cd1338860200151848a6040015173ffffffffffffffffffffffffffffffffffffffff166119b5909392919063ffffffff16565b611d43876020015183896040015173ffffffffffffffffffffffffffffffffffffffff1661281c9092919063ffffffff16565b50505b95945050505050565b3373ffffffffffffffffffffffffffffffffffffffff1683867f393f1765f382b5310a9186fa707a84040f8241b280a30b74112689a92a156f698460600151600760008b815260200190815260200160002054898760800151898960a001518a60e001518b604001518c600001518d60200151604051611e459a99989796959493929190998a5260208a01989098526040890196909652606088019490945267ffffffffffffffff9283166080880152911660a086015263ffffffff1660c085015273ffffffffffffffffffffffffffffffffffffffff90811660e0850152908116610100840152166101208201526101400190565b60405180910390a45050505050565b47156119b35760048054604080517fd0e30db0000000000000000000000000000000000000000000000000000000008152905173ffffffffffffffffffffffffffffffffffffffff9092169263d0e30db0924792808301926000929182900301818588803b15801561079057600080fd5b46826020015114611f32576040517f08c379a000000000000000000000000000000000000000000000000000000000815260206004820152600f60248201527f496e76616c696420636861696e496400000000000000000000000000000000006044820152606401610a2f565b8160400151518260a001515114611fa5576040517f08c379a000000000000000000000000000000000000000000000000000000000815260206004820152600c60248201527f696e76616c6964206c65616600000000000000000000000000000000000000006044820152606401610a2f565b600060068463ffffffff1681548110611fc057611fc0613cef565b90600052602060002090600302019050611fdf81600101548484612872565b612045576040517f08c379a000000000000000000000000000000000000000000000000000000000815260206004820152600960248201527f4261642050726f6f6600000000000000000000000000000000000000000000006044820152606401610a2f565b61205c81600201846060015163ffffffff166128ad565b156120c3576040517f08c379a000000000000000000000000000000000000000000000000000000000815260206004820152600f60248201527f416c726561647920636c61696d656400000000000000000000000000000000006044820152606401610a2f565b6120da81600201846060015163ffffffff166128ee565b60005b8360400151518163ffffffff16101561218657600084604001518263ffffffff168151811061210e5761210e613cef565b602002602001015190506000811115612173576121738560a001518363ffffffff168151811061214057612140613cef565b602002602001015182876080015173ffffffffffffffffffffffffffffffffffffffff1661281c9092919063ffffffff16565b508061217e81613f6b565b9150506120dd565b5082511561221f576121978361292c565b826080015173ffffffffffffffffffffffffffffffffffffffff16836060015163ffffffff1684602001517f828fc203220356df8f072a91681caee7d5c75095e2a95e80ed5a14b384697f7186600001513360405161221692919091825273ffffffffffffffffffffffffffffffffffffffff16602082015260400190565b60405180910390a45b3373ffffffffffffffffffffffffffffffffffffffff16836060015163ffffffff168563ffffffff167ff8bd640004bcec1b89657020f561d0b070cbdf662d0b158db9dccb0a8301bfab86600001518760200151886040015189608001518a60a00151604051612293959493929190614010565b60405180910390a450505050565b73ffffffffffffffffffffffffffffffffffffffff811661231e576040517f08c379a000000000000000000000000000000000000000000000000000000000815260206004820152601960248201527f4261642062726964676520726f757465722061646472657373000000000000006044820152606401610a2f565b600280547fffffffffffffffffffffffff00000000000000000000000000000000000000001673ffffffffffffffffffffffffffffffffffffffff83169081179091556040517fa9e8c42c9e7fca7f62755189a16b2f5314d43d8fb24e91ba54e6d65f9314e84990600090a250565b60408051608060208201819052601160a08301527f4143524f53532d56322d4645452d312e3000000000000000000000000000000060c083015267ffffffffffffffff86169282019290925263ffffffff8416606082015290810185905260009060e001604051602081830303815290604052805190602001209050600061241482612b43565b9050612421878285612b7e565b50505050505050565b60006040518061010001604052808c73ffffffffffffffffffffffffffffffffffffffff1681526020018b73ffffffffffffffffffffffffffffffffffffffff1681526020018a73ffffffffffffffffffffffffffffffffffffffff1681526020018981526020018881526020018767ffffffffffffffff1681526020018667ffffffffffffffff1681526020018563ffffffff1681525090506124f960068463ffffffff16815481106124e0576124e0613cef565b9060005260206000209060030201600001548284612bef565b61255f576040517f08c379a000000000000000000000000000000000000000000000000000000000815260206004820152600d60248201527f496e76616c69642070726f6f66000000000000000000000000000000000000006044820152606401610a2f565b600061256a82611a91565b90506000612580828485606001518a6001611ac1565b905061258d828285612c07565b50505050505050505050505050565b60006125fe826040518060400160405280602081526020017f5361666545524332303a206c6f772d6c6576656c2063616c6c206661696c65648152508573ffffffffffffffffffffffffffffffffffffffff16612d009092919063ffffffff16565b8051909150156112d0578080602001905181019061261c919061405d565b6112d0576040517f08c379a000000000000000000000000000000000000000000000000000000000815260206004820152602a60248201527f5361666545524332303a204552433230206f7065726174696f6e20646964206e60448201527f6f742073756363656564000000000000000000000000000000000000000000006064820152608401610a2f565b60006126bc82670de0b6b3a764000061407a565b67ffffffffffffffff166126d884670de0b6b3a764000061409b565b6126e29190614107565b9392505050565b6000670de0b6b3a76400006126fe838261407a565b6126d89067ffffffffffffffff168561409b565b73ffffffffffffffffffffffffffffffffffffffff82163b15612757576004546127539073ffffffffffffffffffffffffffffffffffffffff16838361281c565b5050565b600480546040517f2e1a7d4d00000000000000000000000000000000000000000000000000000000815291820183905273ffffffffffffffffffffffffffffffffffffffff1690632e1a7d4d90602401600060405180830381600087803b1580156127c157600080fd5b505af11580156127d5573d6000803e3d6000fd5b505060405173ffffffffffffffffffffffffffffffffffffffff8516925083156108fc02915083906000818181858888f193505050501580156112d0573d6000803e3d6000fd5b60405173ffffffffffffffffffffffffffffffffffffffff83166024820152604481018290526112d09084907fa9059cbb0000000000000000000000000000000000000000000000000000000090606401611a0f565b60006128a582858560405160200161288a919061411b565b60405160208183030381529060405280519060200120612d0f565b949350505050565b6000806128bc61010084614107565b905060006128cc610100856141b6565b6000928352602095909552506040902054600190931b92831690921492915050565b60006128fc61010083614107565b9050600061290c610100846141b6565b600092835260209490945250604090208054600190931b90921790915550565b600454608082015173ffffffffffffffffffffffffffffffffffffffff90811691161415612a0957608081015181516040517f2e1a7d4d00000000000000000000000000000000000000000000000000000000815273ffffffffffffffffffffffffffffffffffffffff90921691632e1a7d4d916129b09160040190815260200190565b600060405180830381600087803b1580156129ca57600080fd5b505af11580156129de573d6000803e3d6000fd5b5050600854640100000000900473ffffffffffffffffffffffffffffffffffffffff16608084015250505b608081015160035482516008546040517fa3a7954800000000000000000000000000000000000000000000000000000000815273ffffffffffffffffffffffffffffffffffffffff9485166004820152939092166024840152604483015263ffffffff16606482015260a06084820152600060a48201527342000000000000000000000000000000000000109063a3a795489060c401600060405180830381600087803b158015612ab957600080fd5b505af1158015612acd573d6000803e3d6000fd5b50505050608081015160035482516008546040805173ffffffffffffffffffffffffffffffffffffffff9485168152602081019390935263ffffffff909116908201529116907f46b77e3c29797b94890fd3438da74f697480742358a3e26b9d13a227f1ac0ac99060600160405180910390a250565b6040517f19457468657265756d205369676e6564204d6573736167653a0a3332000000006020820152603c8101829052600090605c01611aa4565b612b89838383612d25565b6112d0576040517f08c379a000000000000000000000000000000000000000000000000000000000815260206004820152601160248201527f696e76616c6964207369676e61747572650000000000000000000000000000006044820152606401610a2f565b60006128a582858560405160200161288a9190613e8d565b3373ffffffffffffffffffffffffffffffffffffffff16837fac5d07bd4046afd057f85211a1bec5e4dc2dc43d537b20d9dfcef5ce596215e6836060015160076000888152602001908152602001600020548686608001518760c001518860a001518960e001518a604001518b600001518c6020015160405161083d9a99989796959493929190998a5260208a01989098526040890196909652606088019490945267ffffffffffffffff9283166080880152911660a086015263ffffffff1660c085015273ffffffffffffffffffffffffffffffffffffffff90811660e0850152908116610100840152166101208201526101400190565b60606128a58484600085612f14565b600082612d1c85846130aa565b14949350505050565b6000806000612d34858561311e565b90925090506000816004811115612d4d57612d4d6141ca565b148015612d8557508573ffffffffffffffffffffffffffffffffffffffff168273ffffffffffffffffffffffffffffffffffffffff16145b15612d95576001925050506126e2565b6000808773ffffffffffffffffffffffffffffffffffffffff16631626ba7e60e01b8888604051602401612dca9291906141f9565b604080517fffffffffffffffffffffffffffffffffffffffffffffffffffffffffffffffe08184030181529181526020820180517bffffffffffffffffffffffffffffffffffffffffffffffffffffffff167fffffffff00000000000000000000000000000000000000000000000000000000909416939093179092529051612e539190614212565b600060405180830381855afa9150503d8060008114612e8e576040519150601f19603f3d011682016040523d82523d6000602084013e612e93565b606091505b5091509150818015612ea6575080516020145b8015612f08575080517f1626ba7e0000000000000000000000000000000000000000000000000000000090612ee4908301602090810190840161422e565b7fffffffff0000000000000000000000000000000000000000000000000000000016145b98975050505050505050565b606082471015612fa6576040517f08c379a000000000000000000000000000000000000000000000000000000000815260206004820152602660248201527f416464726573733a20696e73756666696369656e742062616c616e636520666f60448201527f722063616c6c00000000000000000000000000000000000000000000000000006064820152608401610a2f565b73ffffffffffffffffffffffffffffffffffffffff85163b613024576040517f08c379a000000000000000000000000000000000000000000000000000000000815260206004820152601d60248201527f416464726573733a2063616c6c20746f206e6f6e2d636f6e74726163740000006044820152606401610a2f565b6000808673ffffffffffffffffffffffffffffffffffffffff16858760405161304d9190614212565b60006040518083038185875af1925050503d806000811461308a576040519150601f19603f3d011682016040523d82523d6000602084013e61308f565b606091505b509150915061309f82828661318e565b979650505050505050565b600081815b84518110156131165760008582815181106130cc576130cc613cef565b602002602001015190508083116130f25760008381526020829052604090209250613103565b600081815260208490526040902092505b508061310e81613e14565b9150506130af565b509392505050565b6000808251604114156131555760208301516040840151606085015160001a613149878285856131e1565b94509450505050613187565b82516040141561317f57602083015160408401516131748683836132f9565b935093505050613187565b506000905060025b9250929050565b6060831561319d5750816126e2565b8251156131ad5782518084602001fd5b816040517f08c379a0000000000000000000000000000000000000000000000000000000008152600401610a2f9190613e01565b6000807f7fffffffffffffffffffffffffffffff5d576e7357a4501ddfe92f46681b20a083111561321857506000905060036132f0565b8460ff16601b1415801561323057508460ff16601c14155b1561324157506000905060046132f0565b6040805160008082526020820180845289905260ff881692820192909252606081018690526080810185905260019060a0016020604051602081039080840390855afa158015613295573d6000803e3d6000fd5b50506040517fffffffffffffffffffffffffffffffffffffffffffffffffffffffffffffffe0015191505073ffffffffffffffffffffffffffffffffffffffff81166132e9576000600192509250506132f0565b9150600090505b94509492505050565b6000807f7fffffffffffffffffffffffffffffffffffffffffffffffffffffffffffffff83168161332f60ff86901c601b613f53565b905061333d878288856131e1565b935093505050935093915050565b803563ffffffff8116811461335f57600080fd5b919050565b60006020828403121561337657600080fd5b6126e28261334b565b73ffffffffffffffffffffffffffffffffffffffff811681146106ff57600080fd5b803561335f8161337f565b6000602082840312156133be57600080fd5b81356126e28161337f565b6000602082840312156133db57600080fd5b5035919050565b80151581146106ff57600080fd5b60008060006060848603121561340557600080fd5b83356134108161337f565b9250602084013591506040840135613427816133e2565b809150509250925092565b803567ffffffffffffffff8116811461335f57600080fd5b60008060008060008060c0878903121561346357600080fd5b863561346e8161337f565b9550602087013561347e8161337f565b9450604087013593506060870135925061349a60808801613432565b91506134a860a0880161334b565b90509295509295509295565b600080604083850312156134c757600080fd5b50508035926020909101359150565b600080604083850312156134e957600080fd5b82356134f48161337f565b946020939093013593505050565b6000806000806000806000806000806101408b8d03121561352257600080fd5b8a3561352d8161337f565b995060208b013561353d8161337f565b985060408b013561354d8161337f565b975060608b0135965060808b0135955060a08b0135945060c08b0135935061357760e08c01613432565b92506135866101008c01613432565b91506135956101208c0161334b565b90509295989b9194979a5092959850565b600080602083850312156135b957600080fd5b823567ffffffffffffffff808211156135d157600080fd5b818501915085601f8301126135e557600080fd5b8135818111156135f457600080fd5b8660208260051b850101111561360957600080fd5b60209290920196919550909350505050565b60005b8381101561363657818101518382015260200161361e565b838111156113c35750506000910152565b6000815180845261365f81602086016020860161361b565b601f017fffffffffffffffffffffffffffffffffffffffffffffffffffffffffffffffe0169290920160200192915050565b6000602080830181845280855180835260408601915060408160051b870101925083870160005b82811015613704577fffffffffffffffffffffffffffffffffffffffffffffffffffffffffffffffc08886030184526136f2858351613647565b945092850192908501906001016136b8565b5092979650505050505050565b7f4e487b7100000000000000000000000000000000000000000000000000000000600052604160045260246000fd5b60405160c0810167ffffffffffffffff8111828210171561376357613763613711565b60405290565b604051601f82017fffffffffffffffffffffffffffffffffffffffffffffffffffffffffffffffe016810167ffffffffffffffff811182821017156137b0576137b0613711565b604052919050565b600067ffffffffffffffff8211156137d2576137d2613711565b5060051b60200190565b600082601f8301126137ed57600080fd5b813560206138026137fd836137b8565b613769565b82815260059290921b8401810191818101908684111561382157600080fd5b8286015b8481101561383c5780358352918301918301613825565b509695505050505050565b600082601f83011261385857600080fd5b813560206138686137fd836137b8565b82815260059290921b8401810191818101908684111561388757600080fd5b8286015b8481101561383c57803561389e8161337f565b835291830191830161388b565b6000806000606084860312156138c057600080fd5b6138c98461334b565b9250602084013567ffffffffffffffff808211156138e657600080fd5b9085019060c082880312156138fa57600080fd5b613902613740565b823581526020830135602082015260408301358281111561392257600080fd5b61392e898286016137dc565b6040830152506139406060840161334b565b6060820152613951608084016133a1565b608082015260a08301358281111561396857600080fd5b61397489828601613847565b60a0830152509350604086013591508082111561399057600080fd5b5061399d868287016137dc565b9150509250925092565b600067ffffffffffffffff8211156139c1576139c1613711565b50601f017fffffffffffffffffffffffffffffffffffffffffffffffffffffffffffffffe01660200190565b600082601f8301126139fe57600080fd5b8135613a0c6137fd826139a7565b818152846020838601011115613a2157600080fd5b816020850160208301376000918101602001919091529392505050565b60008060008060808587031215613a5457600080fd5b8435613a5f8161337f565b9350613a6d60208601613432565b9250613a7b6040860161334b565b9150606085013567ffffffffffffffff811115613a9757600080fd5b613aa3878288016139ed565b91505092959194509250565b6000806000806000806000806000806101408b8d031215613acf57600080fd5b8a35613ada8161337f565b995060208b0135613aea8161337f565b985060408b0135613afa8161337f565b975060608b0135965060808b01359550613b1660a08c01613432565b9450613b2460c08c01613432565b9350613b3260e08c0161334b565b9250613b416101008c0161334b565b91506101208b013567ffffffffffffffff811115613b5e57600080fd5b613b6a8d828e016137dc565b9150509295989b9194979a5092959850565b6000806000806000806000806000806000806101808d8f031215613b9f57600080fd5b613ba88d6133a1565b9b50613bb660208e016133a1565b9a50613bc460408e016133a1565b995060608d0135985060808d0135975060a08d0135965060c08d01359550613bee60e08e01613432565b9450613bfd6101008e01613432565b9350613c0c6101208e01613432565b9250613c1b6101408e0161334b565b915067ffffffffffffffff6101608e01351115613c3757600080fd5b613c488e6101608f01358f016139ed565b90509295989b509295989b509295989b565b600060208284031215613c6c57600080fd5b5051919050565b7f4e487b7100000000000000000000000000000000000000000000000000000000600052601160045260246000fd5b600063ffffffff83811690831681811015613cbf57613cbf613c73565b039392505050565b600063ffffffff808316818516808303821115613ce657613ce6613c73565b01949350505050565b7f4e487b7100000000000000000000000000000000000000000000000000000000600052603260045260246000fd5b60008083357fffffffffffffffffffffffffffffffffffffffffffffffffffffffffffffffe1843603018112613d5357600080fd5b83018035915067ffffffffffffffff821115613d6e57600080fd5b60200191503681900382131561318757600080fd5b8183823760009101908152919050565b600060208284031215613da557600080fd5b815167ffffffffffffffff811115613dbc57600080fd5b8201601f81018413613dcd57600080fd5b8051613ddb6137fd826139a7565b818152856020838501011115613df057600080fd5b611d4682602083016020860161361b565b6020815260006126e26020830184613647565b60007fffffffffffffffffffffffffffffffffffffffffffffffffffffffffffffffff821415613e4657613e46613c73565b5060010190565b67ffffffffffffffff831681526040602082015260006128a56040830184613647565b600060208284031215613e8257600080fd5b81516126e28161337f565b60006101008201905073ffffffffffffffffffffffffffffffffffffffff80845116835280602085015116602084015280604085015116604084015250606083015160608301526080830151608083015260a083015167ffffffffffffffff80821660a08501528060c08601511660c0850152505060e083015161121560e084018263ffffffff169052565b600067ffffffffffffffff808316818516808303821115613ce657613ce6613c73565b600082821015613f4e57613f4e613c73565b500390565b60008219821115613f6657613f66613c73565b500190565b600063ffffffff80831681811415613f8557613f85613c73565b6001019392505050565b600081518084526020808501945080840160005b83811015613fbf57815187529582019590820190600101613fa3565b509495945050505050565b600081518084526020808501945080840160005b83811015613fbf57815173ffffffffffffffffffffffffffffffffffffffff1687529582019590820190600101613fde565b85815284602082015260a06040820152600061402f60a0830186613f8f565b73ffffffffffffffffffffffffffffffffffffffff851660608401528281036080840152612f088185613fca565b60006020828403121561406f57600080fd5b81516126e2816133e2565b600067ffffffffffffffff83811690831681811015613cbf57613cbf613c73565b6000817fffffffffffffffffffffffffffffffffffffffffffffffffffffffffffffffff04831182151516156140d3576140d3613c73565b500290565b7f4e487b7100000000000000000000000000000000000000000000000000000000600052601260045260246000fd5b600082614116576141166140d8565b500490565b6020815281516020820152602082015160408201526000604083015160c0606084015261414b60e0840182613f8f565b905063ffffffff606085015116608084015273ffffffffffffffffffffffffffffffffffffffff60808501511660a084015260a08401517fffffffffffffffffffffffffffffffffffffffffffffffffffffffffffffffe08483030160c0850152611d468282613fca565b6000826141c5576141c56140d8565b500690565b7f4e487b7100000000000000000000000000000000000000000000000000000000600052602160045260246000fd5b8281526040602082015260006128a56040830184613647565b6000825161422481846020870161361b565b9190910192915050565b60006020828403121561424057600080fd5b81517fffffffff00000000000000000000000000000000000000000000000000000000811681146126e257600080fdfea2646970667358221220bc43612fcdf1f2cafe850f1d34a162c0683ff96afabb66afdc083b86b56f83e264736f6c634300080b0033",
  "devdoc": {
    "kind": "dev",
    "methods": {
      "chainId()": {
        "details": "Some L2s like ZKSync don't support the CHAIN_ID opcode so we allow the implementer to override this."
      },
      "constructor": {
        "params": {
          "_crossDomainAdmin": "Cross domain admin to set. Can be changed by admin.",
          "_hubPool": "Hub pool address to set. Can be changed by admin.",
          "timerAddress": "Timer address to set."
        }
      },
      "deposit(address,address,uint256,uint256,uint64,uint32)": {
        "params": {
          "amount": "Amount of tokens to deposit. Will be amount of tokens to receive less fees.",
          "destinationChainId": "Denotes network where user will receive funds from SpokePool by a relayer.",
          "originToken": "Token to lock into this contract to initiate deposit.",
          "quoteTimestamp": "Timestamp used by relayers to compute this deposit's realizedLPFeePct which is paid to LP pool on HubPool.",
          "recipient": "Address to receive funds at on destination chain.",
          "relayerFeePct": "% of deposit amount taken out to incentivize a fast relayer."
        }
      },
      "executeRelayerRefundRoot(uint32,(uint256,uint256,uint256[],uint32,address,address[]),bytes32[])": {
        "params": {
          "proof": "Inclusion proof for this leaf in relayer refund root in root bundle.",
          "relayerRefundLeaf": "Contains all data neccessary to reconstruct leaf contained in root bundle and to refund relayer. This data structure is explained in detail in the SpokePoolInterface.",
          "rootBundleId": "Unique ID of root bundle containing relayer refund root that this leaf is contained in."
        }
      },
      "executeSlowRelayRoot(address,address,address,uint256,uint256,uint64,uint64,uint32,uint32,bytes32[])": {
        "params": {
          "amount": "Full size of the deposit.",
          "depositId": "Unique deposit ID on origin spoke pool.",
          "depositor": "Depositor on origin chain who set this chain as the destination chain.",
          "destinationToken": "Token to send to recipient. Should be mapped to the origin token, origin chain ID and this chain ID via a mapping on the HubPool.",
          "originChainId": "Chain of SpokePool where deposit originated.",
          "proof": "Inclusion proof for this leaf in slow relay root in root bundle.",
          "realizedLpFeePct": "Fee % based on L1 HubPool utilization at deposit quote time. Deterministic based on quote time.",
          "recipient": "Specified recipient on this chain.",
          "relayerFeePct": "Original fee % to keep as relayer set by depositor.",
          "rootBundleId": "Unique ID of root bundle containing slow relay root that this leaf is contained in."
        }
      },
      "fillRelay(address,address,address,uint256,uint256,uint256,uint256,uint64,uint64,uint32)": {
        "params": {
          "amount": "Full size of the deposit.",
          "depositId": "Unique deposit ID on origin spoke pool.",
          "depositor": "Depositor on origin chain who set this chain as the destination chain.",
          "destinationToken": "Token to send to recipient. Should be mapped to the origin token, origin chain ID and this chain ID via a mapping on the HubPool.",
          "maxTokensToSend": "Max amount of tokens to send recipient. If higher than amount, then caller will send recipient the full relay amount.",
          "originChainId": "Chain of SpokePool where deposit originated.",
          "realizedLpFeePct": "Fee % based on L1 HubPool utilization at deposit quote time. Deterministic based on quote time.",
          "recipient": "Specified recipient on this chain.",
          "relayerFeePct": "Fee % to keep as relayer, specified by depositor.",
          "repaymentChainId": "Chain of SpokePool where relayer wants to be refunded after the challenge window has passed."
        }
      },
      "fillRelayWithUpdatedFee(address,address,address,uint256,uint256,uint256,uint256,uint64,uint64,uint64,uint32,bytes)": {
        "params": {
          "amount": "Full size of the deposit.",
          "depositId": "Unique deposit ID on origin spoke pool.",
          "depositor": "Depositor on origin chain who set this chain as the destination chain.",
          "depositorSignature": "Depositor-signed message containing updated fee %.",
          "destinationToken": "Token to send to recipient. Should be mapped to the origin token, origin chain ID and this chain ID via a mapping on the HubPool.",
          "maxTokensToSend": "Max amount of tokens to send recipient. If higher than amount, then caller will send recipient the full relay amount.",
          "newRelayerFeePct": "New fee % to keep as relayer also specified by depositor.",
          "originChainId": "Chain of SpokePool where deposit originated.",
          "realizedLpFeePct": "Fee % based on L1 HubPool utilization at deposit quote time. Deterministic based on quote time.",
          "recipient": "Specified recipient on this chain.",
          "relayerFeePct": "Original fee % to keep as relayer set by depositor.",
          "repaymentChainId": "Chain of SpokePool where relayer wants to be refunded after the challenge window has passed."
        }
      },
      "getCurrentTime()": {
        "returns": {
          "_0": "uint for the current Testable timestamp."
        }
      },
      "relayRootBundle(bytes32,bytes32)": {
        "params": {
          "relayerRefundRoot": "Merkle root containing relayer refund leaves that can be individually executed via executeRelayerRefundRoot().",
          "slowRelayRoot": "Merkle root containing slow relay fulfillment leaves that can be individually executed via executeSlowRelayRoot()."
        }
      },
      "setCrossDomainAdmin(address)": {
        "params": {
          "newCrossDomainAdmin": "New cross domain admin."
        }
      },
      "setCurrentTime(uint256)": {
        "details": "Will revert if not running in test mode.",
        "params": {
          "time": "timestamp to set current Testable time to."
        }
      },
      "setDepositQuoteTimeBuffer(uint32)": {
        "params": {
          "newDepositQuoteTimeBuffer": "New quote time buffer."
        }
      },
      "setEnableRoute(address,uint256,bool)": {
        "params": {
          "destinationChainId": "Chain ID for where depositor wants to receive funds.",
          "enabled": "True to enable deposits, False otherwise.",
          "originToken": "Token that depositor can deposit to this contract."
        }
      },
      "setHubPool(address)": {
        "params": {
          "newHubPool": "New hub pool."
        }
      },
      "setL1GasLimit(uint32)": {
        "params": {
          "newl1Gas": "New L1 gas limit to set."
        }
      },
      "speedUpDeposit(address,uint64,uint32,bytes)": {
        "params": {
          "depositId": "Deposit to update fee for that originated in this contract.",
          "depositor": "Signer of the update fee message who originally submitted the deposit. If the deposit doesn't exist, then the relayer will not be able to fill any relay, so the caller should validate that the depositor did in fact submit a relay.",
          "depositorSignature": "Signed message containing the depositor address, this contract chain ID, the updated relayer fee %, and the deposit ID. This signature is produced by signing a hash of data according to the EIP-191 standard. See more in the _verifyUpdateRelayerFeeMessage() comments.",
          "newRelayerFeePct": "New relayer fee that relayers can use."
        }
      }
    },
    "version": 1
  },
  "userdoc": {
    "kind": "user",
    "methods": {
      "chainId()": {
        "notice": "Returns chain ID for this network."
      },
      "constructor": {
        "notice": "Construct the OVM SpokePool."
      },
      "deposit(address,address,uint256,uint256,uint64,uint32)": {
        "notice": "Called by user to bridge funds from origin to destination chain. Depositor will effectively lock tokens in this contract and receive a destination token on the destination chain. The origin => destination token mapping is stored on the L1 HubPool.The caller must first approve this contract to spend amount of originToken.The originToken => destinationChainId must be enabled.This method is payable because the caller is able to deposit ETH if the originToken is WETH and this function will handle wrapping ETH."
      },
      "executeRelayerRefundRoot(uint32,(uint256,uint256,uint256[],uint32,address,address[]),bytes32[])": {
        "notice": "Wraps any ETH into WETH before executing base function. This is necessary because SpokePool receives ETH over the canonical token bridge instead of WETH."
      },
      "executeSlowRelayRoot(address,address,address,uint256,uint256,uint64,uint64,uint32,uint32,bytes32[])": {
        "notice": "Wraps any ETH into WETH before executing base function. This is neccessary because SpokePool receives ETH over the canonical token bridge instead of WETH."
      },
      "fillRelay(address,address,address,uint256,uint256,uint256,uint256,uint64,uint64,uint32)": {
        "notice": "Called by relayer to fulfill part of a deposit by sending destination tokens to the receipient. Relayer is expected to pass in unique identifying information for deposit that they want to fulfill, and this relay submission will be validated by off-chain data workers who can dispute this relay if any part is invalid. If the relay is valid, then the relayer will be refunded on their desired repayment chain. If relay is invalid, then relayer will not receive any refund.All of the deposit data can be found via on-chain events from the origin SpokePool, except for the realizedLpFeePct which is a function of the HubPool's utilization at the deposit quote time. This fee % is deterministic based on the quote time, so the relayer should just compute it using the canonical algorithm as described in a UMIP linked to the HubPool's identifier."
      },
      "fillRelayWithUpdatedFee(address,address,address,uint256,uint256,uint256,uint256,uint64,uint64,uint64,uint32,bytes)": {
        "notice": "Called by relayer to execute same logic as calling fillRelay except that relayer is using an updated relayer fee %. The fee % must have been emitted in a message cryptographically signed by the depositor.By design, the depositor probably emitted the message with the updated fee by calling speedUpRelay()."
      },
      "getCurrentTime()": {
        "notice": "Gets the current time. Will return the last time set in `setCurrentTime` if running in test mode. Otherwise, it will return the block timestamp."
      },
      "relayRootBundle(bytes32,bytes32)": {
        "notice": "This method stores a new root bundle in this contract that can be executed to refund relayers, fulfill slow relays, and send funds back to the HubPool on L1. This method can only be called by the admin and is designed to be called as part of a cross-chain message from the HubPool's executeRootBundle method."
      },
      "setCrossDomainAdmin(address)": {
        "notice": "Change cross domain admin address. Callable by admin only."
      },
      "setCurrentTime(uint256)": {
        "notice": "Sets the current time."
      },
      "setDepositQuoteTimeBuffer(uint32)": {
        "notice": "Change allowance for deposit quote time to differ from current block time. Callable by admin only."
      },
      "setEnableRoute(address,uint256,bool)": {
        "notice": "Enable/Disable an origin token => destination chain ID route for deposits. Callable by admin only."
      },
      "setHubPool(address)": {
        "notice": "Change L1 hub pool address. Callable by admin only."
      },
      "setL1GasLimit(uint32)": {
        "notice": "Change L1 gas limit. Callable only by admin."
      },
      "speedUpDeposit(address,uint64,uint32,bytes)": {
        "notice": "Convenience method that depositor can use to signal to relayer to use updated fee.Relayer should only use events emitted by this function to submit fills with updated fees, otherwise they risk their fills getting disputed for being invalid, for example if the depositor never actually signed the update fee message.This function will revert if the depositor did not sign a message containing the updated fee for the deposit ID stored in this contract. If the deposit ID is for another contract, or the depositor address is incorrect, or the updated fee is incorrect, then the signature will not match and this function will revert."
      }
    },
    "notice": "OVM specific SpokePool. Uses OVM cross-domain-enabled logic to implement admin only access to functions.",
    "version": 1
  },
  "storageLayout": {
    "storage": [
      {
        "astId": 241,
        "contract": "contracts/Optimism_SpokePool.sol:Optimism_SpokePool",
        "label": "messenger",
        "offset": 0,
        "slot": "0",
        "type": "t_address"
      },
      {
        "astId": 5884,
        "contract": "contracts/Optimism_SpokePool.sol:Optimism_SpokePool",
        "label": "timerAddress",
        "offset": 0,
        "slot": "1",
        "type": "t_address"
      },
      {
        "astId": 7104,
        "contract": "contracts/Optimism_SpokePool.sol:Optimism_SpokePool",
        "label": "_notEntered",
        "offset": 20,
        "slot": "1",
        "type": "t_bool"
      },
      {
        "astId": 8144,
        "contract": "contracts/Optimism_SpokePool.sol:Optimism_SpokePool",
        "label": "crossDomainAdmin",
        "offset": 0,
        "slot": "2",
        "type": "t_address"
      },
      {
        "astId": 8146,
        "contract": "contracts/Optimism_SpokePool.sol:Optimism_SpokePool",
        "label": "hubPool",
        "offset": 0,
        "slot": "3",
        "type": "t_address"
      },
      {
        "astId": 8149,
        "contract": "contracts/Optimism_SpokePool.sol:Optimism_SpokePool",
        "label": "weth",
        "offset": 0,
        "slot": "4",
        "type": "t_contract(WETH9)10630"
      },
      {
        "astId": 8151,
        "contract": "contracts/Optimism_SpokePool.sol:Optimism_SpokePool",
        "label": "deploymentTime",
        "offset": 20,
        "slot": "4",
        "type": "t_uint32"
      },
      {
        "astId": 8154,
        "contract": "contracts/Optimism_SpokePool.sol:Optimism_SpokePool",
        "label": "depositQuoteTimeBuffer",
        "offset": 24,
        "slot": "4",
        "type": "t_uint32"
      },
      {
        "astId": 8156,
        "contract": "contracts/Optimism_SpokePool.sol:Optimism_SpokePool",
        "label": "numberOfDeposits",
        "offset": 28,
        "slot": "4",
        "type": "t_uint32"
      },
      {
        "astId": 8162,
        "contract": "contracts/Optimism_SpokePool.sol:Optimism_SpokePool",
        "label": "enabledDepositRoutes",
        "offset": 0,
        "slot": "5",
        "type": "t_mapping(t_address,t_mapping(t_uint256,t_bool))"
      },
      {
        "astId": 8175,
        "contract": "contracts/Optimism_SpokePool.sol:Optimism_SpokePool",
        "label": "rootBundles",
        "offset": 0,
        "slot": "6",
        "type": "t_array(t_struct(RootBundle)8171_storage)dyn_storage"
      },
      {
        "astId": 8179,
        "contract": "contracts/Optimism_SpokePool.sol:Optimism_SpokePool",
        "label": "relayFills",
        "offset": 0,
        "slot": "7",
        "type": "t_mapping(t_bytes32,t_uint256)"
      },
      {
        "astId": 7495,
        "contract": "contracts/Optimism_SpokePool.sol:Optimism_SpokePool",
        "label": "l1Gas",
        "offset": 0,
        "slot": "8",
        "type": "t_uint32"
      },
      {
        "astId": 7502,
        "contract": "contracts/Optimism_SpokePool.sol:Optimism_SpokePool",
        "label": "l2Eth",
        "offset": 4,
        "slot": "8",
        "type": "t_address"
      }
    ],
    "types": {
      "t_address": {
        "encoding": "inplace",
        "label": "address",
        "numberOfBytes": "20"
      },
      "t_array(t_struct(RootBundle)8171_storage)dyn_storage": {
        "base": "t_struct(RootBundle)8171_storage",
        "encoding": "dynamic_array",
        "label": "struct SpokePool.RootBundle[]",
        "numberOfBytes": "32"
      },
      "t_bool": {
        "encoding": "inplace",
        "label": "bool",
        "numberOfBytes": "1"
      },
      "t_bytes32": {
        "encoding": "inplace",
        "label": "bytes32",
        "numberOfBytes": "32"
      },
      "t_contract(WETH9)10630": {
        "encoding": "inplace",
        "label": "contract WETH9",
        "numberOfBytes": "20"
      },
      "t_mapping(t_address,t_mapping(t_uint256,t_bool))": {
        "encoding": "mapping",
        "key": "t_address",
        "label": "mapping(address => mapping(uint256 => bool))",
        "numberOfBytes": "32",
        "value": "t_mapping(t_uint256,t_bool)"
      },
      "t_mapping(t_bytes32,t_uint256)": {
        "encoding": "mapping",
        "key": "t_bytes32",
        "label": "mapping(bytes32 => uint256)",
        "numberOfBytes": "32",
        "value": "t_uint256"
      },
      "t_mapping(t_uint256,t_bool)": {
        "encoding": "mapping",
        "key": "t_uint256",
        "label": "mapping(uint256 => bool)",
        "numberOfBytes": "32",
        "value": "t_bool"
      },
      "t_mapping(t_uint256,t_uint256)": {
        "encoding": "mapping",
        "key": "t_uint256",
        "label": "mapping(uint256 => uint256)",
        "numberOfBytes": "32",
        "value": "t_uint256"
      },
      "t_struct(RootBundle)8171_storage": {
        "encoding": "inplace",
        "label": "struct SpokePool.RootBundle",
        "members": [
          {
            "astId": 8164,
            "contract": "contracts/Optimism_SpokePool.sol:Optimism_SpokePool",
            "label": "slowRelayRoot",
            "offset": 0,
            "slot": "0",
            "type": "t_bytes32"
          },
          {
            "astId": 8166,
            "contract": "contracts/Optimism_SpokePool.sol:Optimism_SpokePool",
            "label": "relayerRefundRoot",
            "offset": 0,
            "slot": "1",
            "type": "t_bytes32"
          },
          {
            "astId": 8170,
            "contract": "contracts/Optimism_SpokePool.sol:Optimism_SpokePool",
            "label": "claimedBitmap",
            "offset": 0,
            "slot": "2",
            "type": "t_mapping(t_uint256,t_uint256)"
          }
        ],
        "numberOfBytes": "96"
      },
      "t_uint256": {
        "encoding": "inplace",
        "label": "uint256",
        "numberOfBytes": "32"
      },
      "t_uint32": {
        "encoding": "inplace",
        "label": "uint32",
        "numberOfBytes": "4"
      }
    }
  }
}