{
  "address": "0x14224e63716afAcE30C9a417E0542281869f7d9e",
  "abi": [
    {
      "inputs": [
        {
          "internalType": "address",
          "name": "_crossDomainAdmin",
          "type": "address"
        },
        {
          "internalType": "address",
          "name": "_hubPool",
          "type": "address"
        },
        {
          "internalType": "address",
          "name": "timerAddress",
          "type": "address"
        }
      ],
      "stateMutability": "nonpayable",
      "type": "constructor"
    },
    {
      "anonymous": false,
      "inputs": [
        {
          "indexed": true,
          "internalType": "bytes32",
          "name": "relayHash",
          "type": "bytes32"
        },
        {
          "indexed": false,
          "internalType": "uint256",
          "name": "totalRelayAmount",
          "type": "uint256"
        },
        {
          "indexed": false,
          "internalType": "uint256",
          "name": "totalFilledAmount",
          "type": "uint256"
        },
        {
          "indexed": false,
          "internalType": "uint256",
          "name": "fillAmount",
          "type": "uint256"
        },
        {
          "indexed": false,
          "internalType": "uint256",
          "name": "originChainId",
          "type": "uint256"
        },
        {
          "indexed": false,
          "internalType": "uint64",
          "name": "relayerFeePct",
          "type": "uint64"
        },
        {
          "indexed": false,
          "internalType": "uint64",
          "name": "realizedLpFeePct",
          "type": "uint64"
        },
        {
          "indexed": false,
          "internalType": "uint32",
          "name": "depositId",
          "type": "uint32"
        },
        {
          "indexed": false,
          "internalType": "address",
          "name": "destinationToken",
          "type": "address"
        },
        {
          "indexed": true,
          "internalType": "address",
          "name": "caller",
          "type": "address"
        },
        {
          "indexed": false,
          "internalType": "address",
          "name": "depositor",
          "type": "address"
        },
        {
          "indexed": false,
          "internalType": "address",
          "name": "recipient",
          "type": "address"
        }
      ],
      "name": "DistributeRelaySlow",
      "type": "event"
    },
    {
      "anonymous": false,
      "inputs": [
        {
          "indexed": false,
          "internalType": "uint256",
          "name": "amountToReturn",
          "type": "uint256"
        },
        {
          "indexed": false,
          "internalType": "uint256",
          "name": "chainId",
          "type": "uint256"
        },
        {
          "indexed": false,
          "internalType": "uint256[]",
          "name": "refundAmounts",
          "type": "uint256[]"
        },
        {
          "indexed": true,
          "internalType": "uint32",
          "name": "relayerRefundId",
          "type": "uint32"
        },
        {
          "indexed": true,
          "internalType": "uint32",
          "name": "leafId",
          "type": "uint32"
        },
        {
          "indexed": false,
          "internalType": "address",
          "name": "l2TokenAddress",
          "type": "address"
        },
        {
          "indexed": false,
          "internalType": "address[]",
          "name": "refundAddresses",
          "type": "address[]"
        },
        {
          "indexed": true,
          "internalType": "address",
          "name": "caller",
          "type": "address"
        }
      ],
      "name": "DistributedRelayerRefund",
      "type": "event"
    },
    {
      "anonymous": false,
      "inputs": [
        {
          "indexed": true,
          "internalType": "address",
          "name": "originToken",
          "type": "address"
        },
        {
          "indexed": true,
          "internalType": "uint256",
          "name": "destinationChainId",
          "type": "uint256"
        },
        {
          "indexed": false,
          "internalType": "bool",
          "name": "enabled",
          "type": "bool"
        }
      ],
      "name": "EnabledDepositRoute",
      "type": "event"
    },
    {
      "anonymous": false,
      "inputs": [
        {
          "indexed": true,
          "internalType": "bytes32",
          "name": "relayHash",
          "type": "bytes32"
        },
        {
          "indexed": false,
          "internalType": "uint256",
          "name": "totalRelayAmount",
          "type": "uint256"
        },
        {
          "indexed": false,
          "internalType": "uint256",
          "name": "totalFilledAmount",
          "type": "uint256"
        },
        {
          "indexed": false,
          "internalType": "uint256",
          "name": "fillAmount",
          "type": "uint256"
        },
        {
          "indexed": true,
          "internalType": "uint256",
          "name": "repaymentChain",
          "type": "uint256"
        },
        {
          "indexed": false,
          "internalType": "uint256",
          "name": "originChainId",
          "type": "uint256"
        },
        {
          "indexed": false,
          "internalType": "uint64",
          "name": "relayerFeePct",
          "type": "uint64"
        },
        {
          "indexed": false,
          "internalType": "uint64",
          "name": "realizedLpFeePct",
          "type": "uint64"
        },
        {
          "indexed": false,
          "internalType": "uint32",
          "name": "depositId",
          "type": "uint32"
        },
        {
          "indexed": false,
          "internalType": "address",
          "name": "destinationToken",
          "type": "address"
        },
        {
          "indexed": true,
          "internalType": "address",
          "name": "relayer",
          "type": "address"
        },
        {
          "indexed": false,
          "internalType": "address",
          "name": "depositor",
          "type": "address"
        },
        {
          "indexed": false,
          "internalType": "address",
          "name": "recipient",
          "type": "address"
        }
      ],
      "name": "FilledRelay",
      "type": "event"
    },
    {
      "anonymous": false,
      "inputs": [
        {
          "indexed": false,
          "internalType": "uint256",
          "name": "amount",
          "type": "uint256"
        },
        {
          "indexed": false,
          "internalType": "uint256",
          "name": "destinationChainId",
          "type": "uint256"
        },
        {
          "indexed": false,
          "internalType": "uint64",
          "name": "relayerFeePct",
          "type": "uint64"
        },
        {
          "indexed": true,
          "internalType": "uint32",
          "name": "depositId",
          "type": "uint32"
        },
        {
          "indexed": false,
          "internalType": "uint32",
          "name": "quoteTimestamp",
          "type": "uint32"
        },
        {
          "indexed": true,
          "internalType": "address",
          "name": "originToken",
          "type": "address"
        },
        {
          "indexed": false,
          "internalType": "address",
          "name": "recipient",
          "type": "address"
        },
        {
          "indexed": true,
          "internalType": "address",
          "name": "depositor",
          "type": "address"
        }
      ],
      "name": "FundsDeposited",
      "type": "event"
    },
    {
      "anonymous": false,
      "inputs": [
        {
          "indexed": true,
          "internalType": "uint32",
          "name": "relayerRefundId",
          "type": "uint32"
        },
        {
          "indexed": false,
          "internalType": "bytes32",
          "name": "relayerRepaymentDistributionRoot",
          "type": "bytes32"
        },
        {
          "indexed": false,
          "internalType": "bytes32",
          "name": "slowRelayFulfillmentRoot",
          "type": "bytes32"
        }
      ],
      "name": "InitializedRelayerRefund",
      "type": "event"
    },
    {
      "anonymous": false,
      "inputs": [
        {
          "indexed": true,
          "internalType": "address",
          "name": "l2Token",
          "type": "address"
        },
        {
          "indexed": false,
          "internalType": "address",
          "name": "target",
          "type": "address"
        },
        {
          "indexed": false,
          "internalType": "uint256",
          "name": "numberOfTokensBridged",
          "type": "uint256"
        },
        {
          "indexed": false,
          "internalType": "uint256",
          "name": "l1Gas",
          "type": "uint256"
        }
      ],
      "name": "OptimismTokensBridged",
      "type": "event"
    },
    {
      "anonymous": false,
      "inputs": [
        {
          "indexed": false,
          "internalType": "uint32",
          "name": "newBuffer",
          "type": "uint32"
        }
      ],
      "name": "SetDepositQuoteTimeBuffer",
      "type": "event"
    },
    {
      "anonymous": false,
      "inputs": [
        {
          "indexed": true,
          "internalType": "address",
          "name": "newHubPool",
          "type": "address"
        }
      ],
      "name": "SetHubPool",
      "type": "event"
    },
    {
      "anonymous": false,
      "inputs": [
        {
          "indexed": true,
          "internalType": "uint32",
          "name": "newL1Gas",
          "type": "uint32"
        }
      ],
      "name": "SetL1Gas",
      "type": "event"
    },
    {
      "anonymous": false,
      "inputs": [
        {
          "indexed": true,
          "internalType": "address",
          "name": "newAdmin",
          "type": "address"
        }
      ],
      "name": "SetXDomainAdmin",
      "type": "event"
    },
    {
      "anonymous": false,
      "inputs": [
        {
          "indexed": false,
          "internalType": "uint256",
          "name": "amountToReturn",
          "type": "uint256"
        },
        {
          "indexed": true,
          "internalType": "uint256",
          "name": "chainId",
          "type": "uint256"
        },
        {
          "indexed": true,
          "internalType": "uint32",
          "name": "leafId",
          "type": "uint32"
        },
        {
          "indexed": true,
          "internalType": "address",
          "name": "l2TokenAddress",
          "type": "address"
        },
        {
          "indexed": false,
          "internalType": "address",
          "name": "caller",
          "type": "address"
        }
      ],
      "name": "TokensBridged",
      "type": "event"
    },
    {
      "inputs": [],
      "name": "chainId",
      "outputs": [
        {
          "internalType": "uint256",
          "name": "",
          "type": "uint256"
        }
      ],
      "stateMutability": "view",
      "type": "function"
    },
    {
      "inputs": [],
      "name": "crossDomainAdmin",
      "outputs": [
        {
          "internalType": "address",
          "name": "",
          "type": "address"
        }
      ],
      "stateMutability": "view",
      "type": "function"
    },
    {
      "inputs": [],
      "name": "deploymentTime",
      "outputs": [
        {
          "internalType": "uint32",
          "name": "",
          "type": "uint32"
        }
      ],
      "stateMutability": "view",
      "type": "function"
    },
    {
      "inputs": [
        {
          "internalType": "address",
          "name": "recipient",
          "type": "address"
        },
        {
          "internalType": "address",
          "name": "originToken",
          "type": "address"
        },
        {
          "internalType": "uint256",
          "name": "amount",
          "type": "uint256"
        },
        {
          "internalType": "uint256",
          "name": "destinationChainId",
          "type": "uint256"
        },
        {
          "internalType": "uint64",
          "name": "relayerFeePct",
          "type": "uint64"
        },
        {
          "internalType": "uint32",
          "name": "quoteTimestamp",
          "type": "uint32"
        }
      ],
      "name": "deposit",
      "outputs": [],
      "stateMutability": "payable",
      "type": "function"
    },
    {
      "inputs": [],
      "name": "depositQuoteTimeBuffer",
      "outputs": [
        {
          "internalType": "uint32",
          "name": "",
          "type": "uint32"
        }
      ],
      "stateMutability": "view",
      "type": "function"
    },
    {
      "inputs": [
        {
          "internalType": "address",
          "name": "depositor",
          "type": "address"
        },
        {
          "internalType": "address",
          "name": "recipient",
          "type": "address"
        },
        {
          "internalType": "address",
          "name": "destinationToken",
          "type": "address"
        },
        {
          "internalType": "uint256",
          "name": "totalRelayAmount",
          "type": "uint256"
        },
        {
          "internalType": "uint256",
          "name": "originChainId",
          "type": "uint256"
        },
        {
          "internalType": "uint64",
          "name": "realizedLpFeePct",
          "type": "uint64"
        },
        {
          "internalType": "uint64",
          "name": "relayerFeePct",
          "type": "uint64"
        },
        {
          "internalType": "uint32",
          "name": "depositId",
          "type": "uint32"
        },
        {
          "internalType": "uint32",
          "name": "relayerRefundId",
          "type": "uint32"
        },
        {
          "internalType": "bytes32[]",
          "name": "proof",
          "type": "bytes32[]"
        }
      ],
      "name": "distributeRelaySlow",
      "outputs": [],
      "stateMutability": "nonpayable",
      "type": "function"
    },
    {
      "inputs": [
        {
          "internalType": "uint32",
          "name": "relayerRefundId",
          "type": "uint32"
        },
        {
          "components": [
            {
              "internalType": "uint256",
              "name": "amountToReturn",
              "type": "uint256"
            },
            {
              "internalType": "uint256",
              "name": "chainId",
              "type": "uint256"
            },
            {
              "internalType": "uint256[]",
              "name": "refundAmounts",
              "type": "uint256[]"
            },
            {
              "internalType": "uint32",
              "name": "leafId",
              "type": "uint32"
            },
            {
              "internalType": "address",
              "name": "l2TokenAddress",
              "type": "address"
            },
            {
              "internalType": "address[]",
              "name": "refundAddresses",
              "type": "address[]"
            }
          ],
          "internalType": "struct SpokePoolInterface.DestinationDistributionLeaf",
          "name": "distributionLeaf",
          "type": "tuple"
        },
        {
          "internalType": "bytes32[]",
          "name": "proof",
          "type": "bytes32[]"
        }
      ],
      "name": "distributeRelayerRefund",
      "outputs": [],
      "stateMutability": "nonpayable",
      "type": "function"
    },
    {
      "inputs": [
        {
          "internalType": "address",
          "name": "",
          "type": "address"
        },
        {
          "internalType": "uint256",
          "name": "",
          "type": "uint256"
        }
      ],
      "name": "enabledDepositRoutes",
      "outputs": [
        {
          "internalType": "bool",
          "name": "",
          "type": "bool"
        }
      ],
      "stateMutability": "view",
      "type": "function"
    },
    {
      "inputs": [
        {
          "internalType": "address",
          "name": "depositor",
          "type": "address"
        },
        {
          "internalType": "address",
          "name": "recipient",
          "type": "address"
        },
        {
          "internalType": "address",
          "name": "destinationToken",
          "type": "address"
        },
        {
          "internalType": "uint256",
          "name": "totalRelayAmount",
          "type": "uint256"
        },
        {
          "internalType": "uint256",
          "name": "maxTokensToSend",
          "type": "uint256"
        },
        {
          "internalType": "uint256",
          "name": "repaymentChain",
          "type": "uint256"
        },
        {
          "internalType": "uint256",
          "name": "originChainId",
          "type": "uint256"
        },
        {
          "internalType": "uint64",
          "name": "realizedLpFeePct",
          "type": "uint64"
        },
        {
          "internalType": "uint64",
          "name": "relayerFeePct",
          "type": "uint64"
        },
        {
          "internalType": "uint32",
          "name": "depositId",
          "type": "uint32"
        }
      ],
      "name": "fillRelay",
      "outputs": [],
      "stateMutability": "nonpayable",
      "type": "function"
    },
    {
      "inputs": [
        {
          "internalType": "address",
          "name": "depositor",
          "type": "address"
        },
        {
          "internalType": "address",
          "name": "recipient",
          "type": "address"
        },
        {
          "internalType": "address",
          "name": "destinationToken",
          "type": "address"
        },
        {
          "internalType": "uint256",
          "name": "totalRelayAmount",
          "type": "uint256"
        },
        {
          "internalType": "uint256",
          "name": "maxTokensToSend",
          "type": "uint256"
        },
        {
          "internalType": "uint256",
          "name": "repaymentChain",
          "type": "uint256"
        },
        {
          "internalType": "uint256",
          "name": "originChainId",
          "type": "uint256"
        },
        {
          "internalType": "uint64",
          "name": "realizedLpFeePct",
          "type": "uint64"
        },
        {
          "internalType": "uint64",
          "name": "relayerFeePct",
          "type": "uint64"
        },
        {
          "internalType": "uint64",
          "name": "newRelayerFeePct",
          "type": "uint64"
        },
        {
          "internalType": "uint32",
          "name": "depositId",
          "type": "uint32"
        },
        {
          "internalType": "bytes",
          "name": "depositorSignature",
          "type": "bytes"
        }
      ],
      "name": "fillRelayWithUpdatedFee",
      "outputs": [],
      "stateMutability": "nonpayable",
      "type": "function"
    },
    {
      "inputs": [],
      "name": "getCurrentTime",
      "outputs": [
        {
          "internalType": "uint256",
          "name": "",
          "type": "uint256"
        }
      ],
      "stateMutability": "view",
      "type": "function"
    },
    {
      "inputs": [],
      "name": "hubPool",
      "outputs": [
        {
          "internalType": "address",
          "name": "",
          "type": "address"
        }
      ],
      "stateMutability": "view",
      "type": "function"
    },
    {
      "inputs": [
        {
          "internalType": "bytes32",
          "name": "relayerRepaymentDistributionRoot",
          "type": "bytes32"
        },
        {
          "internalType": "bytes32",
          "name": "slowRelayRoot",
          "type": "bytes32"
        }
      ],
      "name": "initializeRelayerRefund",
      "outputs": [],
      "stateMutability": "nonpayable",
      "type": "function"
    },
    {
      "inputs": [],
      "name": "l1Gas",
      "outputs": [
        {
          "internalType": "uint32",
          "name": "",
          "type": "uint32"
        }
      ],
      "stateMutability": "view",
      "type": "function"
    },
    {
      "inputs": [],
      "name": "l2Eth",
      "outputs": [
        {
          "internalType": "address",
          "name": "",
          "type": "address"
        }
      ],
      "stateMutability": "view",
      "type": "function"
    },
    {
      "inputs": [],
      "name": "messenger",
      "outputs": [
        {
          "internalType": "address",
          "name": "",
          "type": "address"
        }
      ],
      "stateMutability": "view",
      "type": "function"
    },
    {
      "inputs": [
        {
          "internalType": "bytes[]",
          "name": "data",
          "type": "bytes[]"
        }
      ],
      "name": "multicall",
      "outputs": [
        {
          "internalType": "bytes[]",
          "name": "results",
          "type": "bytes[]"
        }
      ],
      "stateMutability": "payable",
      "type": "function"
    },
    {
      "inputs": [],
      "name": "numberOfDeposits",
      "outputs": [
        {
          "internalType": "uint32",
          "name": "",
          "type": "uint32"
        }
      ],
      "stateMutability": "view",
      "type": "function"
    },
    {
      "inputs": [
        {
          "internalType": "bytes32",
          "name": "",
          "type": "bytes32"
        }
      ],
      "name": "relayFills",
      "outputs": [
        {
          "internalType": "uint256",
          "name": "",
          "type": "uint256"
        }
      ],
      "stateMutability": "view",
      "type": "function"
    },
    {
      "inputs": [
        {
          "internalType": "uint256",
          "name": "",
          "type": "uint256"
        }
      ],
      "name": "relayerRefunds",
      "outputs": [
        {
          "internalType": "bytes32",
          "name": "slowRelayFulfillmentRoot",
          "type": "bytes32"
        },
        {
          "internalType": "bytes32",
          "name": "distributionRoot",
          "type": "bytes32"
        }
      ],
      "stateMutability": "view",
      "type": "function"
    },
    {
      "inputs": [
        {
          "internalType": "address",
          "name": "newCrossDomainAdmin",
          "type": "address"
        }
      ],
      "name": "setCrossDomainAdmin",
      "outputs": [],
      "stateMutability": "nonpayable",
      "type": "function"
    },
    {
      "inputs": [
        {
          "internalType": "uint256",
          "name": "time",
          "type": "uint256"
        }
      ],
      "name": "setCurrentTime",
      "outputs": [],
      "stateMutability": "nonpayable",
      "type": "function"
    },
    {
      "inputs": [
        {
          "internalType": "uint32",
          "name": "buffer",
          "type": "uint32"
        }
      ],
      "name": "setDepositQuoteTimeBuffer",
      "outputs": [],
      "stateMutability": "nonpayable",
      "type": "function"
    },
    {
      "inputs": [
        {
          "internalType": "address",
          "name": "originToken",
          "type": "address"
        },
        {
          "internalType": "uint256",
          "name": "destinationChainId",
          "type": "uint256"
        },
        {
          "internalType": "bool",
          "name": "enable",
          "type": "bool"
        }
      ],
      "name": "setEnableRoute",
      "outputs": [],
      "stateMutability": "nonpayable",
      "type": "function"
    },
    {
      "inputs": [
        {
          "internalType": "address",
          "name": "newHubPool",
          "type": "address"
        }
      ],
      "name": "setHubPool",
      "outputs": [],
      "stateMutability": "nonpayable",
      "type": "function"
    },
    {
      "inputs": [
        {
          "internalType": "uint32",
          "name": "newl1Gas",
          "type": "uint32"
        }
      ],
      "name": "setL1GasLimit",
      "outputs": [],
      "stateMutability": "nonpayable",
      "type": "function"
    },
    {
      "inputs": [],
      "name": "timerAddress",
      "outputs": [
        {
          "internalType": "address",
          "name": "",
          "type": "address"
        }
      ],
      "stateMutability": "view",
      "type": "function"
    },
    {
      "inputs": [],
      "name": "weth",
      "outputs": [
        {
          "internalType": "contract WETH9",
          "name": "",
          "type": "address"
        }
      ],
      "stateMutability": "view",
      "type": "function"
    },
    {
      "stateMutability": "payable",
      "type": "receive"
    }
  ],
  "transactionHash": "0xd66a28569da577b82de580f791a491d64520ca212d4db0b4de29121cbd9d13c6",
  "args": [
    "0xd99eF92F934f670Adf345d57473C46b9446A9E6a",
    "0x3933Ad92aB507fb3CeeFCF15de04A330Ac9cCd37",
    "0x0000000000000000000000000000000000000000"
  ],
  "numDeployments": 1,
  "solcInputHash": "a8ba4a0874b41d84e42606c001695699",
  "bytecode": "0x60806040526004805463ffffffff60c01b1916604b60c31b179055600880546001600160c01b03191677deaddeaddeaddeaddeaddeaddeaddeaddead0000004c4b401790553480156200005157600080fd5b50604051620051e4380380620051e483398101604081905262000074916200033d565b600080546001600160a01b031916734200000000000000000000000000000000000007179055600180546001600160a81b0319166001600160a01b03831617600160a01b179055828273420000000000000000000000000000000000000683620000de846200013f565b620000e983620001e5565b620000f362000287565b600480546001600160a01b039094166001600160a01b031963ffffffff93909316600160a01b02929092166001600160c01b0319909416939093171790915550620003a1945050505050565b6001600160a01b0381166200019b5760405162461bcd60e51b815260206004820152601960248201527f4261642062726964676520726f7574657220616464726573730000000000000060448201526064015b60405180910390fd5b600280546001600160a01b0319166001600160a01b0383169081179091556040517fa9e8c42c9e7fca7f62755189a16b2f5314d43d8fb24e91ba54e6d65f9314e84990600090a250565b6001600160a01b0381166200023d5760405162461bcd60e51b815260206004820152601460248201527f4261642068756220706f6f6c2061646472657373000000000000000000000000604482015260640162000192565b600380546001600160a01b0319166001600160a01b0383169081179091556040517f1f17a88f67b0f49060a34bec1a4723a563620e6aa265eb640b5046dcee0759a090600090a250565b6001546000906001600160a01b0316156200031b57600160009054906101000a90046001600160a01b03166001600160a01b03166329cb924d6040518163ffffffff1660e01b8152600401602060405180830381865afa158015620002f0573d6000803e3d6000fd5b505050506040513d601f19601f8201168201806040525081019062000316919062000387565b905090565b504290565b80516001600160a01b03811681146200033857600080fd5b919050565b6000806000606084860312156200035357600080fd5b6200035e8462000320565b92506200036e6020850162000320565b91506200037e6040850162000320565b90509250925092565b6000602082840312156200039a57600080fd5b5051919050565b614e3380620003b16000396000f3fe6080604052600436106101bb5760003560e01c8063766e0703116100ec578063de7eba781161008a578063ecda10f511610064578063ecda10f5146105a5578063f06850f6146105da578063fb301f2314610607578063ffc351a31461063c57600080fd5b8063de7eba7814610523578063e190440214610543578063e32292111461057057600080fd5b80639a8a0592116100c65780639a8a059214610493578063a1244c67146104a6578063ac9650d8146104e3578063cd56680d1461050357600080fd5b8063766e07031461043657806389a153cc146104535780638c04972e1461047357600080fd5b80632e7f20a7116101595780634922897811610133578063492289781461035d5780635249fef1146103705780635285e058146103bb57806357f6dcb8146103e857600080fd5b80632e7f20a7146102e35780633cb747bf146103035780633fc8cef31461033057600080fd5b806322f8e5661161019557806322f8e56614610260578063272751c7146102805780632752042e146102a057806329cb924d146102c057600080fd5b80630eaac9f0146101c75780631c39c38d146101e95780631dfb2d021461024057600080fd5b366101c257005b600080fd5b3480156101d357600080fd5b506101e76101e2366004613e6d565b61065c565b005b3480156101f557600080fd5b506001546102169073ffffffffffffffffffffffffffffffffffffffff1681565b60405173ffffffffffffffffffffffffffffffffffffffff90911681526020015b60405180910390f35b34801561024c57600080fd5b506101e761025b366004613eb8565b6108a7565b34801561026c57600080fd5b506101e761027b366004613ed5565b610b62565b34801561028c57600080fd5b506101e761029b366004613efc565b610c0b565b3480156102ac57600080fd5b506101e76102bb366004613e6d565b610ece565b3480156102cc57600080fd5b506102d5611145565b604051908152602001610237565b3480156102ef57600080fd5b506101e76102fe3660046140d8565b611201565b34801561030f57600080fd5b506000546102169073ffffffffffffffffffffffffffffffffffffffff1681565b34801561033c57600080fd5b506004546102169073ffffffffffffffffffffffffffffffffffffffff1681565b6101e761036b3660046141ec565b6117ca565b34801561037c57600080fd5b506103ab61038b366004614256565b600560209081526000928352604080842090915290825290205460ff1681565b6040519015158152602001610237565b3480156103c757600080fd5b506002546102169073ffffffffffffffffffffffffffffffffffffffff1681565b3480156103f457600080fd5b50600454610421907801000000000000000000000000000000000000000000000000900463ffffffff1681565b60405163ffffffff9091168152602001610237565b34801561044257600080fd5b506008546104219063ffffffff1681565b34801561045f57600080fd5b506101e761046e366004614282565b611c77565b34801561047f57600080fd5b506101e761048e366004614326565b611dc5565b34801561049f57600080fd5b50466102d5565b3480156104b257600080fd5b50600454610421907c0100000000000000000000000000000000000000000000000000000000900463ffffffff1681565b6104f66104f13660046143f3565b611fce565b60405161023791906144de565b34801561050f57600080fd5b506101e761051e36600461455e565b6121a8565b34801561052f57600080fd5b506101e761053e366004613eb8565b612464565b34801561054f57600080fd5b506003546102169073ffffffffffffffffffffffffffffffffffffffff1681565b34801561057c57600080fd5b5060085461021690640100000000900473ffffffffffffffffffffffffffffffffffffffff1681565b3480156105b157600080fd5b506004546104219074010000000000000000000000000000000000000000900463ffffffff1681565b3480156105e657600080fd5b506102d56105f5366004613ed5565b60076020526000908152604090205481565b34801561061357600080fd5b50610627610622366004613ed5565b6126db565b60408051928352602083019190915201610237565b34801561064857600080fd5b506101e7610657366004614617565b612709565b60025473ffffffffffffffffffffffffffffffffffffffff1661069460005473ffffffffffffffffffffffffffffffffffffffff1690565b73ffffffffffffffffffffffffffffffffffffffff163373ffffffffffffffffffffffffffffffffffffffff1614610753576040517f08c379a000000000000000000000000000000000000000000000000000000000815260206004820152602e60248201527f4f564d5f58434841494e3a206d657373656e67657220636f6e7472616374207560448201527f6e61757468656e7469636174656400000000000000000000000000000000000060648201526084015b60405180910390fd5b8073ffffffffffffffffffffffffffffffffffffffff1661078960005473ffffffffffffffffffffffffffffffffffffffff1690565b73ffffffffffffffffffffffffffffffffffffffff16636e296e456040518163ffffffff1660e01b8152600401602060405180830381865afa1580156107d3573d6000803e3d6000fd5b505050506040513d601f19601f820116820180604052508101906107f791906146f5565b73ffffffffffffffffffffffffffffffffffffffff161461089a576040517f08c379a000000000000000000000000000000000000000000000000000000000815260206004820152603060248201527f4f564d5f58434841494e3a2077726f6e672073656e646572206f662063726f7360448201527f732d646f6d61696e206d65737361676500000000000000000000000000000000606482015260840161074a565b6108a382612955565b5050565b60025473ffffffffffffffffffffffffffffffffffffffff166108df60005473ffffffffffffffffffffffffffffffffffffffff1690565b73ffffffffffffffffffffffffffffffffffffffff163373ffffffffffffffffffffffffffffffffffffffff1614610999576040517f08c379a000000000000000000000000000000000000000000000000000000000815260206004820152602e60248201527f4f564d5f58434841494e3a206d657373656e67657220636f6e7472616374207560448201527f6e61757468656e74696361746564000000000000000000000000000000000000606482015260840161074a565b8073ffffffffffffffffffffffffffffffffffffffff166109cf60005473ffffffffffffffffffffffffffffffffffffffff1690565b73ffffffffffffffffffffffffffffffffffffffff16636e296e456040518163ffffffff1660e01b8152600401602060405180830381865afa158015610a19573d6000803e3d6000fd5b505050506040513d601f19601f82011682018060405250810190610a3d91906146f5565b73ffffffffffffffffffffffffffffffffffffffff1614610ae0576040517f08c379a000000000000000000000000000000000000000000000000000000000815260206004820152603060248201527f4f564d5f58434841494e3a2077726f6e672073656e646572206f662063726f7360448201527f732d646f6d61696e206d65737361676500000000000000000000000000000000606482015260840161074a565b610ae86129b4565b610b15600180547fffffffffffffffffffffff00ffffffffffffffffffffffffffffffffffffffff169055565b610b1e82612a3a565b6108a3600180547fffffffffffffffffffffff00ffffffffffffffffffffffffffffffffffffffff1674010000000000000000000000000000000000000000179055565b60015473ffffffffffffffffffffffffffffffffffffffff16610b8457600080fd5b6001546040517f22f8e5660000000000000000000000000000000000000000000000000000000081526004810183905273ffffffffffffffffffffffffffffffffffffffff909116906322f8e56690602401600060405180830381600087803b158015610bf057600080fd5b505af1158015610c04573d6000803e3d6000fd5b5050505050565b60025473ffffffffffffffffffffffffffffffffffffffff16610c4360005473ffffffffffffffffffffffffffffffffffffffff1690565b73ffffffffffffffffffffffffffffffffffffffff163373ffffffffffffffffffffffffffffffffffffffff1614610cfd576040517f08c379a000000000000000000000000000000000000000000000000000000000815260206004820152602e60248201527f4f564d5f58434841494e3a206d657373656e67657220636f6e7472616374207560448201527f6e61757468656e74696361746564000000000000000000000000000000000000606482015260840161074a565b8073ffffffffffffffffffffffffffffffffffffffff16610d3360005473ffffffffffffffffffffffffffffffffffffffff1690565b73ffffffffffffffffffffffffffffffffffffffff16636e296e456040518163ffffffff1660e01b8152600401602060405180830381865afa158015610d7d573d6000803e3d6000fd5b505050506040513d601f19601f82011682018060405250810190610da191906146f5565b73ffffffffffffffffffffffffffffffffffffffff1614610e44576040517f08c379a000000000000000000000000000000000000000000000000000000000815260206004820152603060248201527f4f564d5f58434841494e3a2077726f6e672073656e646572206f662063726f7360448201527f732d646f6d61696e206d65737361676500000000000000000000000000000000606482015260840161074a565b610e4c6129b4565b610e79600180547fffffffffffffffffffffff00ffffffffffffffffffffffffffffffffffffffff169055565b610e84848484612b26565b610ec8600180547fffffffffffffffffffffff00ffffffffffffffffffffffffffffffffffffffff1674010000000000000000000000000000000000000000179055565b50505050565b60025473ffffffffffffffffffffffffffffffffffffffff16610f0660005473ffffffffffffffffffffffffffffffffffffffff1690565b73ffffffffffffffffffffffffffffffffffffffff163373ffffffffffffffffffffffffffffffffffffffff1614610fc0576040517f08c379a000000000000000000000000000000000000000000000000000000000815260206004820152602e60248201527f4f564d5f58434841494e3a206d657373656e67657220636f6e7472616374207560448201527f6e61757468656e74696361746564000000000000000000000000000000000000606482015260840161074a565b8073ffffffffffffffffffffffffffffffffffffffff16610ff660005473ffffffffffffffffffffffffffffffffffffffff1690565b73ffffffffffffffffffffffffffffffffffffffff16636e296e456040518163ffffffff1660e01b8152600401602060405180830381865afa158015611040573d6000803e3d6000fd5b505050506040513d601f19601f8201168201806040525081019061106491906146f5565b73ffffffffffffffffffffffffffffffffffffffff1614611107576040517f08c379a000000000000000000000000000000000000000000000000000000000815260206004820152603060248201527f4f564d5f58434841494e3a2077726f6e672073656e646572206f662063726f7360448201527f732d646f6d61696e206d65737361676500000000000000000000000000000000606482015260840161074a565b61110f6129b4565b61113c600180547fffffffffffffffffffffff00ffffffffffffffffffffffffffffffffffffffff169055565b610b1e82612bbd565b60015460009073ffffffffffffffffffffffffffffffffffffffff16156111fc57600160009054906101000a900473ffffffffffffffffffffffffffffffffffffffff1673ffffffffffffffffffffffffffffffffffffffff166329cb924d6040518163ffffffff1660e01b8152600401602060405180830381865afa1580156111d3573d6000803e3d6000fd5b505050506040513d601f19601f820116820180604052508101906111f79190614712565b905090565b504290565b6112096129b4565b611236600180547fffffffffffffffffffffff00ffffffffffffffffffffffffffffffffffffffff169055565b468260200151146112a3576040517f08c379a000000000000000000000000000000000000000000000000000000000815260206004820152600f60248201527f496e76616c696420636861696e49640000000000000000000000000000000000604482015260640161074a565b8160400151518260a001515114611316576040517f08c379a000000000000000000000000000000000000000000000000000000000815260206004820152600c60248201527f696e76616c6964206c6561660000000000000000000000000000000000000000604482015260640161074a565b600060068463ffffffff16815481106113315761133161472b565b9060005260206000209060030201905073FB87Ac52Bac7ccF497b6053610A9c59B87a0cE7D63e43b33e7826001015485856040518463ffffffff1660e01b8152600401611380939291906147db565b602060405180830381865af415801561139d573d6000803e3d6000fd5b505050506040513d601f19601f820116820180604052508101906113c191906148ce565b611427576040517f08c379a000000000000000000000000000000000000000000000000000000000815260206004820152600960248201527f4261642050726f6f660000000000000000000000000000000000000000000000604482015260640161074a565b60608301516040517fb33f255000000000000000000000000000000000000000000000000000000000815260028301600482015263ffffffff909116602482015273FB87Ac52Bac7ccF497b6053610A9c59B87a0cE7D9063b33f255090604401602060405180830381865af41580156114a4573d6000803e3d6000fd5b505050506040513d601f19601f820116820180604052508101906114c891906148ce565b1561152f576040517f08c379a000000000000000000000000000000000000000000000000000000000815260206004820152600f60248201527f416c726561647920636c61696d65640000000000000000000000000000000000604482015260640161074a565b60608301516040517f1624b19a00000000000000000000000000000000000000000000000000000000815260028301600482015263ffffffff909116602482015273FB87Ac52Bac7ccF497b6053610A9c59B87a0cE7D90631624b19a9060440160006040518083038186803b1580156115a757600080fd5b505af41580156115bb573d6000803e3d6000fd5b5050505060005b8360400151518163ffffffff16101561166b57600084604001518263ffffffff16815181106115f3576115f361472b565b602002602001015190506000811115611658576116588560a001518363ffffffff16815181106116255761162561472b565b602002602001015182876080015173ffffffffffffffffffffffffffffffffffffffff16612c449092919063ffffffff16565b50806116638161491a565b9150506115c2565b508251156117045761167c83612d18565b826080015173ffffffffffffffffffffffffffffffffffffffff16836060015163ffffffff1684602001517f828fc203220356df8f072a91681caee7d5c75095e2a95e80ed5a14b384697f718660000151336040516116fb92919091825273ffffffffffffffffffffffffffffffffffffffff16602082015260400190565b60405180910390a45b3373ffffffffffffffffffffffffffffffffffffffff16836060015163ffffffff168563ffffffff167ffbd182e5fa6b8e274eb792166aaa74e017f2f1ea6544916a2774460afa69228a86600001518760200151886040015189608001518a60a0015160405161177895949392919061493e565b60405180910390a4506117c5600180547fffffffffffffffffffffff00ffffffffffffffffffffffffffffffffffffffff1674010000000000000000000000000000000000000000179055565b505050565b73ffffffffffffffffffffffffffffffffffffffff851660009081526005602090815260408083208684529091529020548590849060ff16611868576040517f08c379a000000000000000000000000000000000000000000000000000000000815260206004820152600e60248201527f44697361626c656420726f757465000000000000000000000000000000000000604482015260640161074a565b6118706129b4565b61189d600180547fffffffffffffffffffffff00ffffffffffffffffffffffffffffffffffffffff169055565b6706f05b59d3b200008467ffffffffffffffff161115611919576040517f08c379a000000000000000000000000000000000000000000000000000000000815260206004820152601360248201527f696e76616c69642072656c617965722066656500000000000000000000000000604482015260640161074a565b600454611948907801000000000000000000000000000000000000000000000000900463ffffffff16846149c3565b63ffffffff16611956611145565b1015801561199f575060045461198e907801000000000000000000000000000000000000000000000000900463ffffffff16846149e8565b63ffffffff1661199c611145565b11155b611a05576040517f08c379a000000000000000000000000000000000000000000000000000000000815260206004820152601260248201527f696e76616c69642071756f74652074696d650000000000000000000000000000604482015260640161074a565b60045473ffffffffffffffffffffffffffffffffffffffff8881169116148015611a2f5750600034115b15611b2657853414611a9d576040517f08c379a000000000000000000000000000000000000000000000000000000000815260206004820152601b60248201527f6d73672e76616c7565206d757374206d6174636820616d6f756e740000000000604482015260640161074a565b60048054604080517fd0e30db0000000000000000000000000000000000000000000000000000000008152905173ffffffffffffffffffffffffffffffffffffffff9092169263d0e30db0923492808301926000929182900301818588803b158015611b0857600080fd5b505af1158015611b1c573d6000803e3d6000fd5b5050505050611b48565b611b4873ffffffffffffffffffffffffffffffffffffffff8816333089612f2f565b600454604080518881526020810188905267ffffffffffffffff87168183015263ffffffff868116606083015273ffffffffffffffffffffffffffffffffffffffff8c8116608084015292513394938c16937c01000000000000000000000000000000000000000000000000000000009004909116917ffc53c5b967d467d4136291c639720626f3d6dda97b4364da813e6858ad48a721919081900360a00190a460016004601c8282829054906101000a900463ffffffff16611c0b91906149e8565b92506101000a81548163ffffffff021916908363ffffffff160217905550611c6d600180547fffffffffffffffffffffff00ffffffffffffffffffffffffffffffffffffffff1674010000000000000000000000000000000000000000179055565b5050505050505050565b611c7f6129b4565b611cac600180547fffffffffffffffffffffff00ffffffffffffffffffffffffffffffffffffffff169055565b60006040518061010001604052808c73ffffffffffffffffffffffffffffffffffffffff1681526020018b73ffffffffffffffffffffffffffffffffffffffff1681526020018a73ffffffffffffffffffffffffffffffffffffffff1681526020018981526020018681526020018567ffffffffffffffff1681526020018467ffffffffffffffff1681526020018363ffffffff1681525090506000611d5182612f8d565b90506000611d6382848b886000612fbd565b9050611d7282828a8887613260565b505050611db9600180547fffffffffffffffffffffff00ffffffffffffffffffffffffffffffffffffffff1674010000000000000000000000000000000000000000179055565b50505050505050505050565b611dcd6129b4565b611dfa600180547fffffffffffffffffffffff00ffffffffffffffffffffffffffffffffffffffff169055565b60006040518061010001604052808c73ffffffffffffffffffffffffffffffffffffffff1681526020018b73ffffffffffffffffffffffffffffffffffffffff1681526020018a73ffffffffffffffffffffffffffffffffffffffff1681526020018981526020018881526020018767ffffffffffffffff1681526020018667ffffffffffffffff1681526020018563ffffffff16815250905073FB87Ac52Bac7ccF497b6053610A9c59B87a0cE7D63da1d404960068563ffffffff1681548110611ec757611ec761472b565b90600052602060002090600302016000015483856040518463ffffffff1660e01b8152600401611ef993929190614a10565b602060405180830381865af4158015611f16573d6000803e3d6000fd5b505050506040513d601f19601f82011682018060405250810190611f3a91906148ce565b611fa0576040517f08c379a000000000000000000000000000000000000000000000000000000000815260206004820152600d60248201527f496e76616c69642070726f6f6600000000000000000000000000000000000000604482015260640161074a565b6000611fab82612f8d565b90506000611fc1828485606001518a6001612fbd565b9050611d72828285613365565b60603415612038576040517f08c379a000000000000000000000000000000000000000000000000000000000815260206004820152601b60248201527f4f6e6c79206d756c746963616c6c207769746820302076616c75650000000000604482015260640161074a565b8167ffffffffffffffff81111561205157612051613f3e565b60405190808252806020026020018201604052801561208457816020015b606081526020019060019003908161206f5790505b50905060005b828110156121a157600080308686858181106120a8576120a861472b565b90506020028101906120ba9190614ab3565b6040516120c8929190614b18565b600060405180830381855af49150503d8060008114612103576040519150601f19603f3d011682016040523d82523d6000602084013e612108565b606091505b50915091508161216e5760448151101561212157600080fd5b6004810190508080602001905181019061213b9190614b28565b6040517f08c379a000000000000000000000000000000000000000000000000000000000815260040161074a9190614b96565b808484815181106121815761218161472b565b60200260200101819052505050808061219990614ba9565b91505061208a565b5092915050565b60025473ffffffffffffffffffffffffffffffffffffffff166121e060005473ffffffffffffffffffffffffffffffffffffffff1690565b73ffffffffffffffffffffffffffffffffffffffff163373ffffffffffffffffffffffffffffffffffffffff161461229a576040517f08c379a000000000000000000000000000000000000000000000000000000000815260206004820152602e60248201527f4f564d5f58434841494e3a206d657373656e67657220636f6e7472616374207560448201527f6e61757468656e74696361746564000000000000000000000000000000000000606482015260840161074a565b8073ffffffffffffffffffffffffffffffffffffffff166122d060005473ffffffffffffffffffffffffffffffffffffffff1690565b73ffffffffffffffffffffffffffffffffffffffff16636e296e456040518163ffffffff1660e01b8152600401602060405180830381865afa15801561231a573d6000803e3d6000fd5b505050506040513d601f19601f8201168201806040525081019061233e91906146f5565b73ffffffffffffffffffffffffffffffffffffffff16146123e1576040517f08c379a000000000000000000000000000000000000000000000000000000000815260206004820152603060248201527f4f564d5f58434841494e3a2077726f6e672073656e646572206f662063726f7360448201527f732d646f6d61696e206d65737361676500000000000000000000000000000000606482015260840161074a565b6123e96129b4565b612416600180547fffffffffffffffffffffff00ffffffffffffffffffffffffffffffffffffffff169055565b612420838361345e565b6117c5600180547fffffffffffffffffffffff00ffffffffffffffffffffffffffffffffffffffff1674010000000000000000000000000000000000000000179055565b60025473ffffffffffffffffffffffffffffffffffffffff1661249c60005473ffffffffffffffffffffffffffffffffffffffff1690565b73ffffffffffffffffffffffffffffffffffffffff163373ffffffffffffffffffffffffffffffffffffffff1614612556576040517f08c379a000000000000000000000000000000000000000000000000000000000815260206004820152602e60248201527f4f564d5f58434841494e3a206d657373656e67657220636f6e7472616374207560448201527f6e61757468656e74696361746564000000000000000000000000000000000000606482015260840161074a565b8073ffffffffffffffffffffffffffffffffffffffff1661258c60005473ffffffffffffffffffffffffffffffffffffffff1690565b73ffffffffffffffffffffffffffffffffffffffff16636e296e456040518163ffffffff1660e01b8152600401602060405180830381865afa1580156125d6573d6000803e3d6000fd5b505050506040513d601f19601f820116820180604052508101906125fa91906146f5565b73ffffffffffffffffffffffffffffffffffffffff161461269d576040517f08c379a000000000000000000000000000000000000000000000000000000000815260206004820152603060248201527f4f564d5f58434841494e3a2077726f6e672073656e646572206f662063726f7360448201527f732d646f6d61696e206d65737361676500000000000000000000000000000000606482015260840161074a565b6126a56129b4565b6126d2600180547fffffffffffffffffffffff00ffffffffffffffffffffffffffffffffffffffff169055565b610b1e82613504565b600681815481106126eb57600080fd5b60009182526020909120600390910201805460019091015490915082565b6127116129b4565b61273e600180547fffffffffffffffffffffff00ffffffffffffffffffffffffffffffffffffffff169055565b60408051608060208201819052601160a08301527f4143524f53532d56322d4645452d312e3000000000000000000000000000000060c083015267ffffffffffffffff86169282019290925263ffffffff8416606082015290810187905260009060e00160405160208183030381529060405280519060200120905060006127c5826135f0565b90506127d28e828561362b565b612838576040517f08c379a000000000000000000000000000000000000000000000000000000000815260206004820152601160248201527f696e76616c6964207369676e6174757265000000000000000000000000000000604482015260640161074a565b505060006040518061010001604052808e73ffffffffffffffffffffffffffffffffffffffff1681526020018d73ffffffffffffffffffffffffffffffffffffffff1681526020018c73ffffffffffffffffffffffffffffffffffffffff1681526020018b81526020018881526020018767ffffffffffffffff1681526020018667ffffffffffffffff1681526020018463ffffffff16815250905060006128df82612f8d565b905060006128f182848d896000612fbd565b905061290082828c8987613260565b505050612947600180547fffffffffffffffffffffff00ffffffffffffffffffffffffffffffffffffffff1674010000000000000000000000000000000000000000179055565b505050505050505050505050565b600880547fffffffffffffffffffffffffffffffffffffffffffffffffffffffff000000001663ffffffff83169081179091556040517fe486a5c4bd7b36eabbfe274c99b39130277417be8d2209b4dae04c4fba64ee3a90600090a250565b60015474010000000000000000000000000000000000000000900460ff16612a38576040517f08c379a000000000000000000000000000000000000000000000000000000000815260206004820152601f60248201527f5265656e7472616e637947756172643a207265656e7472616e742063616c6c00604482015260640161074a565b565b73ffffffffffffffffffffffffffffffffffffffff8116612ab7576040517f08c379a000000000000000000000000000000000000000000000000000000000815260206004820152601460248201527f4261642068756220706f6f6c2061646472657373000000000000000000000000604482015260640161074a565b600380547fffffffffffffffffffffffff00000000000000000000000000000000000000001673ffffffffffffffffffffffffffffffffffffffff83169081179091556040517f1f17a88f67b0f49060a34bec1a4723a563620e6aa265eb640b5046dcee0759a090600090a250565b73ffffffffffffffffffffffffffffffffffffffff8316600081815260056020908152604080832086845282529182902080547fffffffffffffffffffffffffffffffffffffffffffffffffffffffffffffff001685151590811790915591519182528492917f0a21fdd43d0ad0c62689ee7230a47309a050755bcc52eba00310add65297692a91015b60405180910390a3505050565b600480547fffffffff00000000ffffffffffffffffffffffffffffffffffffffffffffffff16780100000000000000000000000000000000000000000000000063ffffffff8416908102919091179091556040519081527f0e55dd180fa793d9036c804d0a116e6a7617a48e72cee1f83d92793a793fcc039060200160405180910390a150565b60405173ffffffffffffffffffffffffffffffffffffffff83166024820152604481018290526117c59084907fa9059cbb00000000000000000000000000000000000000000000000000000000906064015b604080517fffffffffffffffffffffffffffffffffffffffffffffffffffffffffffffffe08184030181529190526020810180517bffffffffffffffffffffffffffffffffffffffffffffffffffffffff167fffffffff000000000000000000000000000000000000000000000000000000009093169290921790915261381c565b600454608082015173ffffffffffffffffffffffffffffffffffffffff90811691161415612df557608081015181516040517f2e1a7d4d00000000000000000000000000000000000000000000000000000000815273ffffffffffffffffffffffffffffffffffffffff90921691632e1a7d4d91612d9c9160040190815260200190565b600060405180830381600087803b158015612db657600080fd5b505af1158015612dca573d6000803e3d6000fd5b5050600854640100000000900473ffffffffffffffffffffffffffffffffffffffff16608084015250505b608081015160035482516008546040517fa3a7954800000000000000000000000000000000000000000000000000000000815273ffffffffffffffffffffffffffffffffffffffff9485166004820152939092166024840152604483015263ffffffff16606482015260a06084820152600060a48201527342000000000000000000000000000000000000109063a3a795489060c401600060405180830381600087803b158015612ea557600080fd5b505af1158015612eb9573d6000803e3d6000fd5b50505050608081015160035482516008546040805173ffffffffffffffffffffffffffffffffffffffff9485168152602081019390935263ffffffff909116908201529116907f46b77e3c29797b94890fd3438da74f697480742358a3e26b9d13a227f1ac0ac99060600160405180910390a250565b60405173ffffffffffffffffffffffffffffffffffffffff80851660248301528316604482015260648101829052610ec89085907f23b872dd0000000000000000000000000000000000000000000000000000000090608401612c96565b600081604051602001612fa09190614be2565b604051602081830303815290604052805190602001209050919050565b60006706f05b59d3b200008367ffffffffffffffff16108015612ff557506706f05b59d3b200008560a0015167ffffffffffffffff16105b61305b576040517f08c379a000000000000000000000000000000000000000000000000000000000815260206004820152600c60248201527f696e76616c696420666565730000000000000000000000000000000000000000604482015260640161074a565b6060850151600087815260076020526040902054106130d6576040517f08c379a000000000000000000000000000000000000000000000000000000000815260206004820152600c60248201527f72656c61792066696c6c65640000000000000000000000000000000000000000604482015260640161074a565b5060008315613257576130f884848760a001516130f39190614c6c565b613928565b60008781526007602052604090205460608701519192508591839161311c91614c8f565b101561315e5760008781526007602052604090205460608701516131409190614c8f565b915061315b82858860a001516131569190614c6c565b61396b565b90505b6000878152600760205260408120805484929061317c908490614ca6565b9091555050600454604087015173ffffffffffffffffffffffffffffffffffffffff908116911614156131e857826131d55760408601516131d59073ffffffffffffffffffffffffffffffffffffffff16333084612f2f565b6131e3866020015182613994565b613255565b82613222576131e333876020015183896040015173ffffffffffffffffffffffffffffffffffffffff16612f2f909392919063ffffffff16565b613255866020015182886040015173ffffffffffffffffffffffffffffffffffffffff16612c449092919063ffffffff16565b505b95945050505050565b3373ffffffffffffffffffffffffffffffffffffffff1683867f393f1765f382b5310a9186fa707a84040f8241b280a30b74112689a92a156f698460600151600760008b815260200190815260200160002054898760800151898960a001518a60e001518b604001518c600001518d602001516040516133569a99989796959493929190998a5260208a01989098526040890196909652606088019490945267ffffffffffffffff9283166080880152911660a086015263ffffffff1660c085015273ffffffffffffffffffffffffffffffffffffffff90811660e0850152908116610100840152166101208201526101400190565b60405180910390a45050505050565b3373ffffffffffffffffffffffffffffffffffffffff16837fd36f1c2b03628e7d450e0a3462bb732f422f13c93103602d8a5e9ea90f6d6f03836060015160076000888152602001908152602001600020548686608001518760c001518860a001518960e001518a604001518b600001518c60200151604051612bb09a99989796959493929190998a5260208a01989098526040890196909652606088019490945267ffffffffffffffff9283166080880152911660a086015263ffffffff1660c085015273ffffffffffffffffffffffffffffffffffffffff90811660e0850152908116610100840152166101208201526101400190565b60068054600181018255600091909152600381027ff652222313e28459528d920b65115c16c04f3efc82aaedc97be59f3f377c0d4081018490557ff652222313e28459528d920b65115c16c04f3efc82aaedc97be59f3f377c0d3f01828155604080518581526020810185905263ffffffff8416917f3d34570a23210ddca3729c7dbc782ee881db874e04dd42320b370c5e91fef2ac910160405180910390a250505050565b73ffffffffffffffffffffffffffffffffffffffff8116613581576040517f08c379a000000000000000000000000000000000000000000000000000000000815260206004820152601960248201527f4261642062726964676520726f75746572206164647265737300000000000000604482015260640161074a565b600280547fffffffffffffffffffffffff00000000000000000000000000000000000000001673ffffffffffffffffffffffffffffffffffffffff83169081179091556040517fa9e8c42c9e7fca7f62755189a16b2f5314d43d8fb24e91ba54e6d65f9314e84990600090a250565b6040517f19457468657265756d205369676e6564204d6573736167653a0a3332000000006020820152603c8101829052600090605c01612fa0565b600080600061363a8585613a9a565b9092509050600081600481111561365357613653614cbe565b14801561368b57508573ffffffffffffffffffffffffffffffffffffffff168273ffffffffffffffffffffffffffffffffffffffff16145b1561369b57600192505050613815565b6000808773ffffffffffffffffffffffffffffffffffffffff16631626ba7e60e01b88886040516024016136d0929190614ced565b604080517fffffffffffffffffffffffffffffffffffffffffffffffffffffffffffffffe08184030181529181526020820180517bffffffffffffffffffffffffffffffffffffffffffffffffffffffff167fffffffff000000000000000000000000000000000000000000000000000000009094169390931790925290516137599190614d06565b600060405180830381855afa9150503d8060008114613794576040519150601f19603f3d011682016040523d82523d6000602084013e613799565b606091505b50915091508180156137ac575080516020145b801561380e575080517f1626ba7e00000000000000000000000000000000000000000000000000000000906137ea9083016020908101908401614d22565b7fffffffff0000000000000000000000000000000000000000000000000000000016145b9450505050505b9392505050565b600061387e826040518060400160405280602081526020017f5361666545524332303a206c6f772d6c6576656c2063616c6c206661696c65648152508573ffffffffffffffffffffffffffffffffffffffff16613b0a9092919063ffffffff16565b8051909150156117c5578080602001905181019061389c91906148ce565b6117c5576040517f08c379a000000000000000000000000000000000000000000000000000000000815260206004820152602a60248201527f5361666545524332303a204552433230206f7065726174696f6e20646964206e60448201527f6f74207375636365656400000000000000000000000000000000000000000000606482015260840161074a565b600061393c82670de0b6b3a7640000614d64565b67ffffffffffffffff1661395884670de0b6b3a7640000614d85565b6139629190614dc2565b90505b92915050565b6000670de0b6b3a76400006139808382614d64565b6139589067ffffffffffffffff1685614d85565b73ffffffffffffffffffffffffffffffffffffffff82163b156139d5576004546108a39073ffffffffffffffffffffffffffffffffffffffff168383612c44565b600480546040517f2e1a7d4d00000000000000000000000000000000000000000000000000000000815291820183905273ffffffffffffffffffffffffffffffffffffffff1690632e1a7d4d90602401600060405180830381600087803b158015613a3f57600080fd5b505af1158015613a53573d6000803e3d6000fd5b505060405173ffffffffffffffffffffffffffffffffffffffff8516925083156108fc02915083906000818181858888f193505050501580156117c5573d6000803e3d6000fd5b600080825160411415613ad15760208301516040840151606085015160001a613ac587828585613b21565b94509450505050613b03565b825160401415613afb5760208301516040840151613af0868383613c39565b935093505050613b03565b506000905060025b9250929050565b6060613b198484600085613c81565b949350505050565b6000807f7fffffffffffffffffffffffffffffff5d576e7357a4501ddfe92f46681b20a0831115613b585750600090506003613c30565b8460ff16601b14158015613b7057508460ff16601c14155b15613b815750600090506004613c30565b6040805160008082526020820180845289905260ff881692820192909252606081018690526080810185905260019060a0016020604051602081039080840390855afa158015613bd5573d6000803e3d6000fd5b50506040517fffffffffffffffffffffffffffffffffffffffffffffffffffffffffffffffe0015191505073ffffffffffffffffffffffffffffffffffffffff8116613c2957600060019250925050613c30565b9150600090505b94509492505050565b6000807f7fffffffffffffffffffffffffffffffffffffffffffffffffffffffffffffff831660ff84901c601b01613c7387828885613b21565b935093505050935093915050565b606082471015613d13576040517f08c379a000000000000000000000000000000000000000000000000000000000815260206004820152602660248201527f416464726573733a20696e73756666696369656e742062616c616e636520666f60448201527f722063616c6c0000000000000000000000000000000000000000000000000000606482015260840161074a565b843b613d7b576040517f08c379a000000000000000000000000000000000000000000000000000000000815260206004820152601d60248201527f416464726573733a2063616c6c20746f206e6f6e2d636f6e7472616374000000604482015260640161074a565b6000808673ffffffffffffffffffffffffffffffffffffffff168587604051613da49190614d06565b60006040518083038185875af1925050503d8060008114613de1576040519150601f19603f3d011682016040523d82523d6000602084013e613de6565b606091505b5091509150613df6828286613e01565b979650505050505050565b60608315613e10575081613815565b825115613e205782518084602001fd5b816040517f08c379a000000000000000000000000000000000000000000000000000000000815260040161074a9190614b96565b803563ffffffff81168114613e6857600080fd5b919050565b600060208284031215613e7f57600080fd5b61396282613e54565b73ffffffffffffffffffffffffffffffffffffffff81168114613eaa57600080fd5b50565b8035613e6881613e88565b600060208284031215613eca57600080fd5b813561381581613e88565b600060208284031215613ee757600080fd5b5035919050565b8015158114613eaa57600080fd5b600080600060608486031215613f1157600080fd5b8335613f1c81613e88565b9250602084013591506040840135613f3381613eee565b809150509250925092565b7f4e487b7100000000000000000000000000000000000000000000000000000000600052604160045260246000fd5b60405160c0810167ffffffffffffffff81118282101715613f9057613f90613f3e565b60405290565b604051601f82017fffffffffffffffffffffffffffffffffffffffffffffffffffffffffffffffe016810167ffffffffffffffff81118282101715613fdd57613fdd613f3e565b604052919050565b600067ffffffffffffffff821115613fff57613fff613f3e565b5060051b60200190565b600082601f83011261401a57600080fd5b8135602061402f61402a83613fe5565b613f96565b82815260059290921b8401810191818101908684111561404e57600080fd5b8286015b848110156140695780358352918301918301614052565b509695505050505050565b600082601f83011261408557600080fd5b8135602061409561402a83613fe5565b82815260059290921b840181019181810190868411156140b457600080fd5b8286015b848110156140695780356140cb81613e88565b83529183019183016140b8565b6000806000606084860312156140ed57600080fd5b6140f684613e54565b9250602084013567ffffffffffffffff8082111561411357600080fd5b9085019060c0828803121561412757600080fd5b61412f613f6d565b823581526020830135602082015260408301358281111561414f57600080fd5b61415b89828601614009565b60408301525061416d60608401613e54565b606082015261417e60808401613ead565b608082015260a08301358281111561419557600080fd5b6141a189828601614074565b60a083015250935060408601359150808211156141bd57600080fd5b506141ca86828701614009565b9150509250925092565b803567ffffffffffffffff81168114613e6857600080fd5b60008060008060008060c0878903121561420557600080fd5b863561421081613e88565b9550602087013561422081613e88565b9450604087013593506060870135925061423c608088016141d4565b915061424a60a08801613e54565b90509295509295509295565b6000806040838503121561426957600080fd5b823561427481613e88565b946020939093013593505050565b6000806000806000806000806000806101408b8d0312156142a257600080fd5b8a356142ad81613e88565b995060208b01356142bd81613e88565b985060408b01356142cd81613e88565b975060608b0135965060808b0135955060a08b0135945060c08b013593506142f760e08c016141d4565b92506143066101008c016141d4565b91506143156101208c01613e54565b90509295989b9194979a5092959850565b6000806000806000806000806000806101408b8d03121561434657600080fd5b8a3561435181613e88565b995060208b013561436181613e88565b985060408b013561437181613e88565b975060608b0135965060808b0135955061438d60a08c016141d4565b945061439b60c08c016141d4565b93506143a960e08c01613e54565b92506143b86101008c01613e54565b91506101208b013567ffffffffffffffff8111156143d557600080fd5b6143e18d828e01614009565b9150509295989b9194979a5092959850565b6000806020838503121561440657600080fd5b823567ffffffffffffffff8082111561441e57600080fd5b818501915085601f83011261443257600080fd5b81358181111561444157600080fd5b8660208260051b850101111561445657600080fd5b60209290920196919550909350505050565b60005b8381101561448357818101518382015260200161446b565b83811115610ec85750506000910152565b600081518084526144ac816020860160208601614468565b601f017fffffffffffffffffffffffffffffffffffffffffffffffffffffffffffffffe0169290920160200192915050565b6000602080830181845280855180835260408601915060408160051b870101925083870160005b82811015614551577fffffffffffffffffffffffffffffffffffffffffffffffffffffffffffffffc088860301845261453f858351614494565b94509285019290850190600101614505565b5092979650505050505050565b6000806040838503121561457157600080fd5b50508035926020909101359150565b600067ffffffffffffffff82111561459a5761459a613f3e565b50601f017fffffffffffffffffffffffffffffffffffffffffffffffffffffffffffffffe01660200190565b600082601f8301126145d757600080fd5b81356145e561402a82614580565b8181528460208386010111156145fa57600080fd5b816020850160208301376000918101602001919091529392505050565b6000806000806000806000806000806000806101808d8f03121561463a57600080fd5b6146438d613ead565b9b5061465160208e01613ead565b9a5061465f60408e01613ead565b995060608d0135985060808d0135975060a08d0135965060c08d0135955061468960e08e016141d4565b94506146986101008e016141d4565b93506146a76101208e016141d4565b92506146b66101408e01613e54565b915067ffffffffffffffff6101608e013511156146d257600080fd5b6146e38e6101608f01358f016145c6565b90509295989b509295989b509295989b565b60006020828403121561470757600080fd5b815161381581613e88565b60006020828403121561472457600080fd5b5051919050565b7f4e487b7100000000000000000000000000000000000000000000000000000000600052603260045260246000fd5b600081518084526020808501945080840160005b838110156147a057815173ffffffffffffffffffffffffffffffffffffffff168752958201959082019060010161476e565b509495945050505050565b600081518084526020808501945080840160005b838110156147a0578151875295820195908201906001016147bf565b83815260006020606081840152610120830185516060850152818601516080850152604086015160c060a0860152818151808452610140870191508483019350600092505b808310156148405783518252928401926001929092019190840190614820565b50606088015163ffffffff1660c0870152608088015173ffffffffffffffffffffffffffffffffffffffff1660e087015260a08801518682037fffffffffffffffffffffffffffffffffffffffffffffffffffffffffffffffa00161010088015293506148ad818561475a565b935050505082810360408401526148c481856147ab565b9695505050505050565b6000602082840312156148e057600080fd5b815161381581613eee565b7f4e487b7100000000000000000000000000000000000000000000000000000000600052601160045260246000fd5b600063ffffffff80831681811415614934576149346148eb565b6001019392505050565b600060a082018783526020878185015260a0604085015281875180845260c086019150828901935060005b8181101561498557845183529383019391830191600101614969565b505073ffffffffffffffffffffffffffffffffffffffff8716606086015284810360808601526149b5818761475a565b9a9950505050505050505050565b600063ffffffff838116908316818110156149e0576149e06148eb565b039392505050565b600063ffffffff808316818516808303821115614a0757614a076148eb565b01949350505050565b6000610140858352614aa0602084018673ffffffffffffffffffffffffffffffffffffffff80825116835280602083015116602084015280604083015116604084015250606081015160608301526080810151608083015260a081015167ffffffffffffffff80821660a08501528060c08401511660c0850152505063ffffffff60e08201511660e08301525050565b806101208401526148c4818401856147ab565b60008083357fffffffffffffffffffffffffffffffffffffffffffffffffffffffffffffffe1843603018112614ae857600080fd5b83018035915067ffffffffffffffff821115614b0357600080fd5b602001915036819003821315613b0357600080fd5b8183823760009101908152919050565b600060208284031215614b3a57600080fd5b815167ffffffffffffffff811115614b5157600080fd5b8201601f81018413614b6257600080fd5b8051614b7061402a82614580565b818152856020838501011115614b8557600080fd5b613257826020830160208601614468565b6020815260006139626020830184614494565b60007fffffffffffffffffffffffffffffffffffffffffffffffffffffffffffffffff821415614bdb57614bdb6148eb565b5060010190565b6101008101613965828473ffffffffffffffffffffffffffffffffffffffff80825116835280602083015116602084015280604083015116604084015250606081015160608301526080810151608083015260a081015167ffffffffffffffff80821660a08501528060c08401511660c0850152505063ffffffff60e08201511660e08301525050565b600067ffffffffffffffff808316818516808303821115614a0757614a076148eb565b600082821015614ca157614ca16148eb565b500390565b60008219821115614cb957614cb96148eb565b500190565b7f4e487b7100000000000000000000000000000000000000000000000000000000600052602160045260246000fd5b828152604060208201526000613b196040830184614494565b60008251614d18818460208701614468565b9190910192915050565b600060208284031215614d3457600080fd5b81517fffffffff000000000000000000000000000000000000000000000000000000008116811461381557600080fd5b600067ffffffffffffffff838116908316818110156149e0576149e06148eb565b6000817fffffffffffffffffffffffffffffffffffffffffffffffffffffffffffffffff0483118215151615614dbd57614dbd6148eb565b500290565b600082614df8577f4e487b7100000000000000000000000000000000000000000000000000000000600052601260045260246000fd5b50049056fea2646970667358221220ac94b68094f80e9bd0cdc3980083ea1af0b1f8c97467c04cbf4572ceafb6ff0464736f6c634300080b0033",
  "deployedBytecode": "0x6080604052600436106101bb5760003560e01c8063766e0703116100ec578063de7eba781161008a578063ecda10f511610064578063ecda10f5146105a5578063f06850f6146105da578063fb301f2314610607578063ffc351a31461063c57600080fd5b8063de7eba7814610523578063e190440214610543578063e32292111461057057600080fd5b80639a8a0592116100c65780639a8a059214610493578063a1244c67146104a6578063ac9650d8146104e3578063cd56680d1461050357600080fd5b8063766e07031461043657806389a153cc146104535780638c04972e1461047357600080fd5b80632e7f20a7116101595780634922897811610133578063492289781461035d5780635249fef1146103705780635285e058146103bb57806357f6dcb8146103e857600080fd5b80632e7f20a7146102e35780633cb747bf146103035780633fc8cef31461033057600080fd5b806322f8e5661161019557806322f8e56614610260578063272751c7146102805780632752042e146102a057806329cb924d146102c057600080fd5b80630eaac9f0146101c75780631c39c38d146101e95780631dfb2d021461024057600080fd5b366101c257005b600080fd5b3480156101d357600080fd5b506101e76101e2366004613e6d565b61065c565b005b3480156101f557600080fd5b506001546102169073ffffffffffffffffffffffffffffffffffffffff1681565b60405173ffffffffffffffffffffffffffffffffffffffff90911681526020015b60405180910390f35b34801561024c57600080fd5b506101e761025b366004613eb8565b6108a7565b34801561026c57600080fd5b506101e761027b366004613ed5565b610b62565b34801561028c57600080fd5b506101e761029b366004613efc565b610c0b565b3480156102ac57600080fd5b506101e76102bb366004613e6d565b610ece565b3480156102cc57600080fd5b506102d5611145565b604051908152602001610237565b3480156102ef57600080fd5b506101e76102fe3660046140d8565b611201565b34801561030f57600080fd5b506000546102169073ffffffffffffffffffffffffffffffffffffffff1681565b34801561033c57600080fd5b506004546102169073ffffffffffffffffffffffffffffffffffffffff1681565b6101e761036b3660046141ec565b6117ca565b34801561037c57600080fd5b506103ab61038b366004614256565b600560209081526000928352604080842090915290825290205460ff1681565b6040519015158152602001610237565b3480156103c757600080fd5b506002546102169073ffffffffffffffffffffffffffffffffffffffff1681565b3480156103f457600080fd5b50600454610421907801000000000000000000000000000000000000000000000000900463ffffffff1681565b60405163ffffffff9091168152602001610237565b34801561044257600080fd5b506008546104219063ffffffff1681565b34801561045f57600080fd5b506101e761046e366004614282565b611c77565b34801561047f57600080fd5b506101e761048e366004614326565b611dc5565b34801561049f57600080fd5b50466102d5565b3480156104b257600080fd5b50600454610421907c0100000000000000000000000000000000000000000000000000000000900463ffffffff1681565b6104f66104f13660046143f3565b611fce565b60405161023791906144de565b34801561050f57600080fd5b506101e761051e36600461455e565b6121a8565b34801561052f57600080fd5b506101e761053e366004613eb8565b612464565b34801561054f57600080fd5b506003546102169073ffffffffffffffffffffffffffffffffffffffff1681565b34801561057c57600080fd5b5060085461021690640100000000900473ffffffffffffffffffffffffffffffffffffffff1681565b3480156105b157600080fd5b506004546104219074010000000000000000000000000000000000000000900463ffffffff1681565b3480156105e657600080fd5b506102d56105f5366004613ed5565b60076020526000908152604090205481565b34801561061357600080fd5b50610627610622366004613ed5565b6126db565b60408051928352602083019190915201610237565b34801561064857600080fd5b506101e7610657366004614617565b612709565b60025473ffffffffffffffffffffffffffffffffffffffff1661069460005473ffffffffffffffffffffffffffffffffffffffff1690565b73ffffffffffffffffffffffffffffffffffffffff163373ffffffffffffffffffffffffffffffffffffffff1614610753576040517f08c379a000000000000000000000000000000000000000000000000000000000815260206004820152602e60248201527f4f564d5f58434841494e3a206d657373656e67657220636f6e7472616374207560448201527f6e61757468656e7469636174656400000000000000000000000000000000000060648201526084015b60405180910390fd5b8073ffffffffffffffffffffffffffffffffffffffff1661078960005473ffffffffffffffffffffffffffffffffffffffff1690565b73ffffffffffffffffffffffffffffffffffffffff16636e296e456040518163ffffffff1660e01b8152600401602060405180830381865afa1580156107d3573d6000803e3d6000fd5b505050506040513d601f19601f820116820180604052508101906107f791906146f5565b73ffffffffffffffffffffffffffffffffffffffff161461089a576040517f08c379a000000000000000000000000000000000000000000000000000000000815260206004820152603060248201527f4f564d5f58434841494e3a2077726f6e672073656e646572206f662063726f7360448201527f732d646f6d61696e206d65737361676500000000000000000000000000000000606482015260840161074a565b6108a382612955565b5050565b60025473ffffffffffffffffffffffffffffffffffffffff166108df60005473ffffffffffffffffffffffffffffffffffffffff1690565b73ffffffffffffffffffffffffffffffffffffffff163373ffffffffffffffffffffffffffffffffffffffff1614610999576040517f08c379a000000000000000000000000000000000000000000000000000000000815260206004820152602e60248201527f4f564d5f58434841494e3a206d657373656e67657220636f6e7472616374207560448201527f6e61757468656e74696361746564000000000000000000000000000000000000606482015260840161074a565b8073ffffffffffffffffffffffffffffffffffffffff166109cf60005473ffffffffffffffffffffffffffffffffffffffff1690565b73ffffffffffffffffffffffffffffffffffffffff16636e296e456040518163ffffffff1660e01b8152600401602060405180830381865afa158015610a19573d6000803e3d6000fd5b505050506040513d601f19601f82011682018060405250810190610a3d91906146f5565b73ffffffffffffffffffffffffffffffffffffffff1614610ae0576040517f08c379a000000000000000000000000000000000000000000000000000000000815260206004820152603060248201527f4f564d5f58434841494e3a2077726f6e672073656e646572206f662063726f7360448201527f732d646f6d61696e206d65737361676500000000000000000000000000000000606482015260840161074a565b610ae86129b4565b610b15600180547fffffffffffffffffffffff00ffffffffffffffffffffffffffffffffffffffff169055565b610b1e82612a3a565b6108a3600180547fffffffffffffffffffffff00ffffffffffffffffffffffffffffffffffffffff1674010000000000000000000000000000000000000000179055565b60015473ffffffffffffffffffffffffffffffffffffffff16610b8457600080fd5b6001546040517f22f8e5660000000000000000000000000000000000000000000000000000000081526004810183905273ffffffffffffffffffffffffffffffffffffffff909116906322f8e56690602401600060405180830381600087803b158015610bf057600080fd5b505af1158015610c04573d6000803e3d6000fd5b5050505050565b60025473ffffffffffffffffffffffffffffffffffffffff16610c4360005473ffffffffffffffffffffffffffffffffffffffff1690565b73ffffffffffffffffffffffffffffffffffffffff163373ffffffffffffffffffffffffffffffffffffffff1614610cfd576040517f08c379a000000000000000000000000000000000000000000000000000000000815260206004820152602e60248201527f4f564d5f58434841494e3a206d657373656e67657220636f6e7472616374207560448201527f6e61757468656e74696361746564000000000000000000000000000000000000606482015260840161074a565b8073ffffffffffffffffffffffffffffffffffffffff16610d3360005473ffffffffffffffffffffffffffffffffffffffff1690565b73ffffffffffffffffffffffffffffffffffffffff16636e296e456040518163ffffffff1660e01b8152600401602060405180830381865afa158015610d7d573d6000803e3d6000fd5b505050506040513d601f19601f82011682018060405250810190610da191906146f5565b73ffffffffffffffffffffffffffffffffffffffff1614610e44576040517f08c379a000000000000000000000000000000000000000000000000000000000815260206004820152603060248201527f4f564d5f58434841494e3a2077726f6e672073656e646572206f662063726f7360448201527f732d646f6d61696e206d65737361676500000000000000000000000000000000606482015260840161074a565b610e4c6129b4565b610e79600180547fffffffffffffffffffffff00ffffffffffffffffffffffffffffffffffffffff169055565b610e84848484612b26565b610ec8600180547fffffffffffffffffffffff00ffffffffffffffffffffffffffffffffffffffff1674010000000000000000000000000000000000000000179055565b50505050565b60025473ffffffffffffffffffffffffffffffffffffffff16610f0660005473ffffffffffffffffffffffffffffffffffffffff1690565b73ffffffffffffffffffffffffffffffffffffffff163373ffffffffffffffffffffffffffffffffffffffff1614610fc0576040517f08c379a000000000000000000000000000000000000000000000000000000000815260206004820152602e60248201527f4f564d5f58434841494e3a206d657373656e67657220636f6e7472616374207560448201527f6e61757468656e74696361746564000000000000000000000000000000000000606482015260840161074a565b8073ffffffffffffffffffffffffffffffffffffffff16610ff660005473ffffffffffffffffffffffffffffffffffffffff1690565b73ffffffffffffffffffffffffffffffffffffffff16636e296e456040518163ffffffff1660e01b8152600401602060405180830381865afa158015611040573d6000803e3d6000fd5b505050506040513d601f19601f8201168201806040525081019061106491906146f5565b73ffffffffffffffffffffffffffffffffffffffff1614611107576040517f08c379a000000000000000000000000000000000000000000000000000000000815260206004820152603060248201527f4f564d5f58434841494e3a2077726f6e672073656e646572206f662063726f7360448201527f732d646f6d61696e206d65737361676500000000000000000000000000000000606482015260840161074a565b61110f6129b4565b61113c600180547fffffffffffffffffffffff00ffffffffffffffffffffffffffffffffffffffff169055565b610b1e82612bbd565b60015460009073ffffffffffffffffffffffffffffffffffffffff16156111fc57600160009054906101000a900473ffffffffffffffffffffffffffffffffffffffff1673ffffffffffffffffffffffffffffffffffffffff166329cb924d6040518163ffffffff1660e01b8152600401602060405180830381865afa1580156111d3573d6000803e3d6000fd5b505050506040513d601f19601f820116820180604052508101906111f79190614712565b905090565b504290565b6112096129b4565b611236600180547fffffffffffffffffffffff00ffffffffffffffffffffffffffffffffffffffff169055565b468260200151146112a3576040517f08c379a000000000000000000000000000000000000000000000000000000000815260206004820152600f60248201527f496e76616c696420636861696e49640000000000000000000000000000000000604482015260640161074a565b8160400151518260a001515114611316576040517f08c379a000000000000000000000000000000000000000000000000000000000815260206004820152600c60248201527f696e76616c6964206c6561660000000000000000000000000000000000000000604482015260640161074a565b600060068463ffffffff16815481106113315761133161472b565b9060005260206000209060030201905073__$61dd25696c02d5bd2863c8d2c1a2324a87$__63e43b33e7826001015485856040518463ffffffff1660e01b8152600401611380939291906147db565b602060405180830381865af415801561139d573d6000803e3d6000fd5b505050506040513d601f19601f820116820180604052508101906113c191906148ce565b611427576040517f08c379a000000000000000000000000000000000000000000000000000000000815260206004820152600960248201527f4261642050726f6f660000000000000000000000000000000000000000000000604482015260640161074a565b60608301516040517fb33f255000000000000000000000000000000000000000000000000000000000815260028301600482015263ffffffff909116602482015273__$61dd25696c02d5bd2863c8d2c1a2324a87$__9063b33f255090604401602060405180830381865af41580156114a4573d6000803e3d6000fd5b505050506040513d601f19601f820116820180604052508101906114c891906148ce565b1561152f576040517f08c379a000000000000000000000000000000000000000000000000000000000815260206004820152600f60248201527f416c726561647920636c61696d65640000000000000000000000000000000000604482015260640161074a565b60608301516040517f1624b19a00000000000000000000000000000000000000000000000000000000815260028301600482015263ffffffff909116602482015273__$61dd25696c02d5bd2863c8d2c1a2324a87$__90631624b19a9060440160006040518083038186803b1580156115a757600080fd5b505af41580156115bb573d6000803e3d6000fd5b5050505060005b8360400151518163ffffffff16101561166b57600084604001518263ffffffff16815181106115f3576115f361472b565b602002602001015190506000811115611658576116588560a001518363ffffffff16815181106116255761162561472b565b602002602001015182876080015173ffffffffffffffffffffffffffffffffffffffff16612c449092919063ffffffff16565b50806116638161491a565b9150506115c2565b508251156117045761167c83612d18565b826080015173ffffffffffffffffffffffffffffffffffffffff16836060015163ffffffff1684602001517f828fc203220356df8f072a91681caee7d5c75095e2a95e80ed5a14b384697f718660000151336040516116fb92919091825273ffffffffffffffffffffffffffffffffffffffff16602082015260400190565b60405180910390a45b3373ffffffffffffffffffffffffffffffffffffffff16836060015163ffffffff168563ffffffff167ffbd182e5fa6b8e274eb792166aaa74e017f2f1ea6544916a2774460afa69228a86600001518760200151886040015189608001518a60a0015160405161177895949392919061493e565b60405180910390a4506117c5600180547fffffffffffffffffffffff00ffffffffffffffffffffffffffffffffffffffff1674010000000000000000000000000000000000000000179055565b505050565b73ffffffffffffffffffffffffffffffffffffffff851660009081526005602090815260408083208684529091529020548590849060ff16611868576040517f08c379a000000000000000000000000000000000000000000000000000000000815260206004820152600e60248201527f44697361626c656420726f757465000000000000000000000000000000000000604482015260640161074a565b6118706129b4565b61189d600180547fffffffffffffffffffffff00ffffffffffffffffffffffffffffffffffffffff169055565b6706f05b59d3b200008467ffffffffffffffff161115611919576040517f08c379a000000000000000000000000000000000000000000000000000000000815260206004820152601360248201527f696e76616c69642072656c617965722066656500000000000000000000000000604482015260640161074a565b600454611948907801000000000000000000000000000000000000000000000000900463ffffffff16846149c3565b63ffffffff16611956611145565b1015801561199f575060045461198e907801000000000000000000000000000000000000000000000000900463ffffffff16846149e8565b63ffffffff1661199c611145565b11155b611a05576040517f08c379a000000000000000000000000000000000000000000000000000000000815260206004820152601260248201527f696e76616c69642071756f74652074696d650000000000000000000000000000604482015260640161074a565b60045473ffffffffffffffffffffffffffffffffffffffff8881169116148015611a2f5750600034115b15611b2657853414611a9d576040517f08c379a000000000000000000000000000000000000000000000000000000000815260206004820152601b60248201527f6d73672e76616c7565206d757374206d6174636820616d6f756e740000000000604482015260640161074a565b60048054604080517fd0e30db0000000000000000000000000000000000000000000000000000000008152905173ffffffffffffffffffffffffffffffffffffffff9092169263d0e30db0923492808301926000929182900301818588803b158015611b0857600080fd5b505af1158015611b1c573d6000803e3d6000fd5b5050505050611b48565b611b4873ffffffffffffffffffffffffffffffffffffffff8816333089612f2f565b600454604080518881526020810188905267ffffffffffffffff87168183015263ffffffff868116606083015273ffffffffffffffffffffffffffffffffffffffff8c8116608084015292513394938c16937c01000000000000000000000000000000000000000000000000000000009004909116917ffc53c5b967d467d4136291c639720626f3d6dda97b4364da813e6858ad48a721919081900360a00190a460016004601c8282829054906101000a900463ffffffff16611c0b91906149e8565b92506101000a81548163ffffffff021916908363ffffffff160217905550611c6d600180547fffffffffffffffffffffff00ffffffffffffffffffffffffffffffffffffffff1674010000000000000000000000000000000000000000179055565b5050505050505050565b611c7f6129b4565b611cac600180547fffffffffffffffffffffff00ffffffffffffffffffffffffffffffffffffffff169055565b60006040518061010001604052808c73ffffffffffffffffffffffffffffffffffffffff1681526020018b73ffffffffffffffffffffffffffffffffffffffff1681526020018a73ffffffffffffffffffffffffffffffffffffffff1681526020018981526020018681526020018567ffffffffffffffff1681526020018467ffffffffffffffff1681526020018363ffffffff1681525090506000611d5182612f8d565b90506000611d6382848b886000612fbd565b9050611d7282828a8887613260565b505050611db9600180547fffffffffffffffffffffff00ffffffffffffffffffffffffffffffffffffffff1674010000000000000000000000000000000000000000179055565b50505050505050505050565b611dcd6129b4565b611dfa600180547fffffffffffffffffffffff00ffffffffffffffffffffffffffffffffffffffff169055565b60006040518061010001604052808c73ffffffffffffffffffffffffffffffffffffffff1681526020018b73ffffffffffffffffffffffffffffffffffffffff1681526020018a73ffffffffffffffffffffffffffffffffffffffff1681526020018981526020018881526020018767ffffffffffffffff1681526020018667ffffffffffffffff1681526020018563ffffffff16815250905073__$61dd25696c02d5bd2863c8d2c1a2324a87$__63da1d404960068563ffffffff1681548110611ec757611ec761472b565b90600052602060002090600302016000015483856040518463ffffffff1660e01b8152600401611ef993929190614a10565b602060405180830381865af4158015611f16573d6000803e3d6000fd5b505050506040513d601f19601f82011682018060405250810190611f3a91906148ce565b611fa0576040517f08c379a000000000000000000000000000000000000000000000000000000000815260206004820152600d60248201527f496e76616c69642070726f6f6600000000000000000000000000000000000000604482015260640161074a565b6000611fab82612f8d565b90506000611fc1828485606001518a6001612fbd565b9050611d72828285613365565b60603415612038576040517f08c379a000000000000000000000000000000000000000000000000000000000815260206004820152601b60248201527f4f6e6c79206d756c746963616c6c207769746820302076616c75650000000000604482015260640161074a565b8167ffffffffffffffff81111561205157612051613f3e565b60405190808252806020026020018201604052801561208457816020015b606081526020019060019003908161206f5790505b50905060005b828110156121a157600080308686858181106120a8576120a861472b565b90506020028101906120ba9190614ab3565b6040516120c8929190614b18565b600060405180830381855af49150503d8060008114612103576040519150601f19603f3d011682016040523d82523d6000602084013e612108565b606091505b50915091508161216e5760448151101561212157600080fd5b6004810190508080602001905181019061213b9190614b28565b6040517f08c379a000000000000000000000000000000000000000000000000000000000815260040161074a9190614b96565b808484815181106121815761218161472b565b60200260200101819052505050808061219990614ba9565b91505061208a565b5092915050565b60025473ffffffffffffffffffffffffffffffffffffffff166121e060005473ffffffffffffffffffffffffffffffffffffffff1690565b73ffffffffffffffffffffffffffffffffffffffff163373ffffffffffffffffffffffffffffffffffffffff161461229a576040517f08c379a000000000000000000000000000000000000000000000000000000000815260206004820152602e60248201527f4f564d5f58434841494e3a206d657373656e67657220636f6e7472616374207560448201527f6e61757468656e74696361746564000000000000000000000000000000000000606482015260840161074a565b8073ffffffffffffffffffffffffffffffffffffffff166122d060005473ffffffffffffffffffffffffffffffffffffffff1690565b73ffffffffffffffffffffffffffffffffffffffff16636e296e456040518163ffffffff1660e01b8152600401602060405180830381865afa15801561231a573d6000803e3d6000fd5b505050506040513d601f19601f8201168201806040525081019061233e91906146f5565b73ffffffffffffffffffffffffffffffffffffffff16146123e1576040517f08c379a000000000000000000000000000000000000000000000000000000000815260206004820152603060248201527f4f564d5f58434841494e3a2077726f6e672073656e646572206f662063726f7360448201527f732d646f6d61696e206d65737361676500000000000000000000000000000000606482015260840161074a565b6123e96129b4565b612416600180547fffffffffffffffffffffff00ffffffffffffffffffffffffffffffffffffffff169055565b612420838361345e565b6117c5600180547fffffffffffffffffffffff00ffffffffffffffffffffffffffffffffffffffff1674010000000000000000000000000000000000000000179055565b60025473ffffffffffffffffffffffffffffffffffffffff1661249c60005473ffffffffffffffffffffffffffffffffffffffff1690565b73ffffffffffffffffffffffffffffffffffffffff163373ffffffffffffffffffffffffffffffffffffffff1614612556576040517f08c379a000000000000000000000000000000000000000000000000000000000815260206004820152602e60248201527f4f564d5f58434841494e3a206d657373656e67657220636f6e7472616374207560448201527f6e61757468656e74696361746564000000000000000000000000000000000000606482015260840161074a565b8073ffffffffffffffffffffffffffffffffffffffff1661258c60005473ffffffffffffffffffffffffffffffffffffffff1690565b73ffffffffffffffffffffffffffffffffffffffff16636e296e456040518163ffffffff1660e01b8152600401602060405180830381865afa1580156125d6573d6000803e3d6000fd5b505050506040513d601f19601f820116820180604052508101906125fa91906146f5565b73ffffffffffffffffffffffffffffffffffffffff161461269d576040517f08c379a000000000000000000000000000000000000000000000000000000000815260206004820152603060248201527f4f564d5f58434841494e3a2077726f6e672073656e646572206f662063726f7360448201527f732d646f6d61696e206d65737361676500000000000000000000000000000000606482015260840161074a565b6126a56129b4565b6126d2600180547fffffffffffffffffffffff00ffffffffffffffffffffffffffffffffffffffff169055565b610b1e82613504565b600681815481106126eb57600080fd5b60009182526020909120600390910201805460019091015490915082565b6127116129b4565b61273e600180547fffffffffffffffffffffff00ffffffffffffffffffffffffffffffffffffffff169055565b60408051608060208201819052601160a08301527f4143524f53532d56322d4645452d312e3000000000000000000000000000000060c083015267ffffffffffffffff86169282019290925263ffffffff8416606082015290810187905260009060e00160405160208183030381529060405280519060200120905060006127c5826135f0565b90506127d28e828561362b565b612838576040517f08c379a000000000000000000000000000000000000000000000000000000000815260206004820152601160248201527f696e76616c6964207369676e6174757265000000000000000000000000000000604482015260640161074a565b505060006040518061010001604052808e73ffffffffffffffffffffffffffffffffffffffff1681526020018d73ffffffffffffffffffffffffffffffffffffffff1681526020018c73ffffffffffffffffffffffffffffffffffffffff1681526020018b81526020018881526020018767ffffffffffffffff1681526020018667ffffffffffffffff1681526020018463ffffffff16815250905060006128df82612f8d565b905060006128f182848d896000612fbd565b905061290082828c8987613260565b505050612947600180547fffffffffffffffffffffff00ffffffffffffffffffffffffffffffffffffffff1674010000000000000000000000000000000000000000179055565b505050505050505050505050565b600880547fffffffffffffffffffffffffffffffffffffffffffffffffffffffff000000001663ffffffff83169081179091556040517fe486a5c4bd7b36eabbfe274c99b39130277417be8d2209b4dae04c4fba64ee3a90600090a250565b60015474010000000000000000000000000000000000000000900460ff16612a38576040517f08c379a000000000000000000000000000000000000000000000000000000000815260206004820152601f60248201527f5265656e7472616e637947756172643a207265656e7472616e742063616c6c00604482015260640161074a565b565b73ffffffffffffffffffffffffffffffffffffffff8116612ab7576040517f08c379a000000000000000000000000000000000000000000000000000000000815260206004820152601460248201527f4261642068756220706f6f6c2061646472657373000000000000000000000000604482015260640161074a565b600380547fffffffffffffffffffffffff00000000000000000000000000000000000000001673ffffffffffffffffffffffffffffffffffffffff83169081179091556040517f1f17a88f67b0f49060a34bec1a4723a563620e6aa265eb640b5046dcee0759a090600090a250565b73ffffffffffffffffffffffffffffffffffffffff8316600081815260056020908152604080832086845282529182902080547fffffffffffffffffffffffffffffffffffffffffffffffffffffffffffffff001685151590811790915591519182528492917f0a21fdd43d0ad0c62689ee7230a47309a050755bcc52eba00310add65297692a91015b60405180910390a3505050565b600480547fffffffff00000000ffffffffffffffffffffffffffffffffffffffffffffffff16780100000000000000000000000000000000000000000000000063ffffffff8416908102919091179091556040519081527f0e55dd180fa793d9036c804d0a116e6a7617a48e72cee1f83d92793a793fcc039060200160405180910390a150565b60405173ffffffffffffffffffffffffffffffffffffffff83166024820152604481018290526117c59084907fa9059cbb00000000000000000000000000000000000000000000000000000000906064015b604080517fffffffffffffffffffffffffffffffffffffffffffffffffffffffffffffffe08184030181529190526020810180517bffffffffffffffffffffffffffffffffffffffffffffffffffffffff167fffffffff000000000000000000000000000000000000000000000000000000009093169290921790915261381c565b600454608082015173ffffffffffffffffffffffffffffffffffffffff90811691161415612df557608081015181516040517f2e1a7d4d00000000000000000000000000000000000000000000000000000000815273ffffffffffffffffffffffffffffffffffffffff90921691632e1a7d4d91612d9c9160040190815260200190565b600060405180830381600087803b158015612db657600080fd5b505af1158015612dca573d6000803e3d6000fd5b5050600854640100000000900473ffffffffffffffffffffffffffffffffffffffff16608084015250505b608081015160035482516008546040517fa3a7954800000000000000000000000000000000000000000000000000000000815273ffffffffffffffffffffffffffffffffffffffff9485166004820152939092166024840152604483015263ffffffff16606482015260a06084820152600060a48201527342000000000000000000000000000000000000109063a3a795489060c401600060405180830381600087803b158015612ea557600080fd5b505af1158015612eb9573d6000803e3d6000fd5b50505050608081015160035482516008546040805173ffffffffffffffffffffffffffffffffffffffff9485168152602081019390935263ffffffff909116908201529116907f46b77e3c29797b94890fd3438da74f697480742358a3e26b9d13a227f1ac0ac99060600160405180910390a250565b60405173ffffffffffffffffffffffffffffffffffffffff80851660248301528316604482015260648101829052610ec89085907f23b872dd0000000000000000000000000000000000000000000000000000000090608401612c96565b600081604051602001612fa09190614be2565b604051602081830303815290604052805190602001209050919050565b60006706f05b59d3b200008367ffffffffffffffff16108015612ff557506706f05b59d3b200008560a0015167ffffffffffffffff16105b61305b576040517f08c379a000000000000000000000000000000000000000000000000000000000815260206004820152600c60248201527f696e76616c696420666565730000000000000000000000000000000000000000604482015260640161074a565b6060850151600087815260076020526040902054106130d6576040517f08c379a000000000000000000000000000000000000000000000000000000000815260206004820152600c60248201527f72656c61792066696c6c65640000000000000000000000000000000000000000604482015260640161074a565b5060008315613257576130f884848760a001516130f39190614c6c565b613928565b60008781526007602052604090205460608701519192508591839161311c91614c8f565b101561315e5760008781526007602052604090205460608701516131409190614c8f565b915061315b82858860a001516131569190614c6c565b61396b565b90505b6000878152600760205260408120805484929061317c908490614ca6565b9091555050600454604087015173ffffffffffffffffffffffffffffffffffffffff908116911614156131e857826131d55760408601516131d59073ffffffffffffffffffffffffffffffffffffffff16333084612f2f565b6131e3866020015182613994565b613255565b82613222576131e333876020015183896040015173ffffffffffffffffffffffffffffffffffffffff16612f2f909392919063ffffffff16565b613255866020015182886040015173ffffffffffffffffffffffffffffffffffffffff16612c449092919063ffffffff16565b505b95945050505050565b3373ffffffffffffffffffffffffffffffffffffffff1683867f393f1765f382b5310a9186fa707a84040f8241b280a30b74112689a92a156f698460600151600760008b815260200190815260200160002054898760800151898960a001518a60e001518b604001518c600001518d602001516040516133569a99989796959493929190998a5260208a01989098526040890196909652606088019490945267ffffffffffffffff9283166080880152911660a086015263ffffffff1660c085015273ffffffffffffffffffffffffffffffffffffffff90811660e0850152908116610100840152166101208201526101400190565b60405180910390a45050505050565b3373ffffffffffffffffffffffffffffffffffffffff16837fd36f1c2b03628e7d450e0a3462bb732f422f13c93103602d8a5e9ea90f6d6f03836060015160076000888152602001908152602001600020548686608001518760c001518860a001518960e001518a604001518b600001518c60200151604051612bb09a99989796959493929190998a5260208a01989098526040890196909652606088019490945267ffffffffffffffff9283166080880152911660a086015263ffffffff1660c085015273ffffffffffffffffffffffffffffffffffffffff90811660e0850152908116610100840152166101208201526101400190565b60068054600181018255600091909152600381027ff652222313e28459528d920b65115c16c04f3efc82aaedc97be59f3f377c0d4081018490557ff652222313e28459528d920b65115c16c04f3efc82aaedc97be59f3f377c0d3f01828155604080518581526020810185905263ffffffff8416917f3d34570a23210ddca3729c7dbc782ee881db874e04dd42320b370c5e91fef2ac910160405180910390a250505050565b73ffffffffffffffffffffffffffffffffffffffff8116613581576040517f08c379a000000000000000000000000000000000000000000000000000000000815260206004820152601960248201527f4261642062726964676520726f75746572206164647265737300000000000000604482015260640161074a565b600280547fffffffffffffffffffffffff00000000000000000000000000000000000000001673ffffffffffffffffffffffffffffffffffffffff83169081179091556040517fa9e8c42c9e7fca7f62755189a16b2f5314d43d8fb24e91ba54e6d65f9314e84990600090a250565b6040517f19457468657265756d205369676e6564204d6573736167653a0a3332000000006020820152603c8101829052600090605c01612fa0565b600080600061363a8585613a9a565b9092509050600081600481111561365357613653614cbe565b14801561368b57508573ffffffffffffffffffffffffffffffffffffffff168273ffffffffffffffffffffffffffffffffffffffff16145b1561369b57600192505050613815565b6000808773ffffffffffffffffffffffffffffffffffffffff16631626ba7e60e01b88886040516024016136d0929190614ced565b604080517fffffffffffffffffffffffffffffffffffffffffffffffffffffffffffffffe08184030181529181526020820180517bffffffffffffffffffffffffffffffffffffffffffffffffffffffff167fffffffff000000000000000000000000000000000000000000000000000000009094169390931790925290516137599190614d06565b600060405180830381855afa9150503d8060008114613794576040519150601f19603f3d011682016040523d82523d6000602084013e613799565b606091505b50915091508180156137ac575080516020145b801561380e575080517f1626ba7e00000000000000000000000000000000000000000000000000000000906137ea9083016020908101908401614d22565b7fffffffff0000000000000000000000000000000000000000000000000000000016145b9450505050505b9392505050565b600061387e826040518060400160405280602081526020017f5361666545524332303a206c6f772d6c6576656c2063616c6c206661696c65648152508573ffffffffffffffffffffffffffffffffffffffff16613b0a9092919063ffffffff16565b8051909150156117c5578080602001905181019061389c91906148ce565b6117c5576040517f08c379a000000000000000000000000000000000000000000000000000000000815260206004820152602a60248201527f5361666545524332303a204552433230206f7065726174696f6e20646964206e60448201527f6f74207375636365656400000000000000000000000000000000000000000000606482015260840161074a565b600061393c82670de0b6b3a7640000614d64565b67ffffffffffffffff1661395884670de0b6b3a7640000614d85565b6139629190614dc2565b90505b92915050565b6000670de0b6b3a76400006139808382614d64565b6139589067ffffffffffffffff1685614d85565b73ffffffffffffffffffffffffffffffffffffffff82163b156139d5576004546108a39073ffffffffffffffffffffffffffffffffffffffff168383612c44565b600480546040517f2e1a7d4d00000000000000000000000000000000000000000000000000000000815291820183905273ffffffffffffffffffffffffffffffffffffffff1690632e1a7d4d90602401600060405180830381600087803b158015613a3f57600080fd5b505af1158015613a53573d6000803e3d6000fd5b505060405173ffffffffffffffffffffffffffffffffffffffff8516925083156108fc02915083906000818181858888f193505050501580156117c5573d6000803e3d6000fd5b600080825160411415613ad15760208301516040840151606085015160001a613ac587828585613b21565b94509450505050613b03565b825160401415613afb5760208301516040840151613af0868383613c39565b935093505050613b03565b506000905060025b9250929050565b6060613b198484600085613c81565b949350505050565b6000807f7fffffffffffffffffffffffffffffff5d576e7357a4501ddfe92f46681b20a0831115613b585750600090506003613c30565b8460ff16601b14158015613b7057508460ff16601c14155b15613b815750600090506004613c30565b6040805160008082526020820180845289905260ff881692820192909252606081018690526080810185905260019060a0016020604051602081039080840390855afa158015613bd5573d6000803e3d6000fd5b50506040517fffffffffffffffffffffffffffffffffffffffffffffffffffffffffffffffe0015191505073ffffffffffffffffffffffffffffffffffffffff8116613c2957600060019250925050613c30565b9150600090505b94509492505050565b6000807f7fffffffffffffffffffffffffffffffffffffffffffffffffffffffffffffff831660ff84901c601b01613c7387828885613b21565b935093505050935093915050565b606082471015613d13576040517f08c379a000000000000000000000000000000000000000000000000000000000815260206004820152602660248201527f416464726573733a20696e73756666696369656e742062616c616e636520666f60448201527f722063616c6c0000000000000000000000000000000000000000000000000000606482015260840161074a565b843b613d7b576040517f08c379a000000000000000000000000000000000000000000000000000000000815260206004820152601d60248201527f416464726573733a2063616c6c20746f206e6f6e2d636f6e7472616374000000604482015260640161074a565b6000808673ffffffffffffffffffffffffffffffffffffffff168587604051613da49190614d06565b60006040518083038185875af1925050503d8060008114613de1576040519150601f19603f3d011682016040523d82523d6000602084013e613de6565b606091505b5091509150613df6828286613e01565b979650505050505050565b60608315613e10575081613815565b825115613e205782518084602001fd5b816040517f08c379a000000000000000000000000000000000000000000000000000000000815260040161074a9190614b96565b803563ffffffff81168114613e6857600080fd5b919050565b600060208284031215613e7f57600080fd5b61396282613e54565b73ffffffffffffffffffffffffffffffffffffffff81168114613eaa57600080fd5b50565b8035613e6881613e88565b600060208284031215613eca57600080fd5b813561381581613e88565b600060208284031215613ee757600080fd5b5035919050565b8015158114613eaa57600080fd5b600080600060608486031215613f1157600080fd5b8335613f1c81613e88565b9250602084013591506040840135613f3381613eee565b809150509250925092565b7f4e487b7100000000000000000000000000000000000000000000000000000000600052604160045260246000fd5b60405160c0810167ffffffffffffffff81118282101715613f9057613f90613f3e565b60405290565b604051601f82017fffffffffffffffffffffffffffffffffffffffffffffffffffffffffffffffe016810167ffffffffffffffff81118282101715613fdd57613fdd613f3e565b604052919050565b600067ffffffffffffffff821115613fff57613fff613f3e565b5060051b60200190565b600082601f83011261401a57600080fd5b8135602061402f61402a83613fe5565b613f96565b82815260059290921b8401810191818101908684111561404e57600080fd5b8286015b848110156140695780358352918301918301614052565b509695505050505050565b600082601f83011261408557600080fd5b8135602061409561402a83613fe5565b82815260059290921b840181019181810190868411156140b457600080fd5b8286015b848110156140695780356140cb81613e88565b83529183019183016140b8565b6000806000606084860312156140ed57600080fd5b6140f684613e54565b9250602084013567ffffffffffffffff8082111561411357600080fd5b9085019060c0828803121561412757600080fd5b61412f613f6d565b823581526020830135602082015260408301358281111561414f57600080fd5b61415b89828601614009565b60408301525061416d60608401613e54565b606082015261417e60808401613ead565b608082015260a08301358281111561419557600080fd5b6141a189828601614074565b60a083015250935060408601359150808211156141bd57600080fd5b506141ca86828701614009565b9150509250925092565b803567ffffffffffffffff81168114613e6857600080fd5b60008060008060008060c0878903121561420557600080fd5b863561421081613e88565b9550602087013561422081613e88565b9450604087013593506060870135925061423c608088016141d4565b915061424a60a08801613e54565b90509295509295509295565b6000806040838503121561426957600080fd5b823561427481613e88565b946020939093013593505050565b6000806000806000806000806000806101408b8d0312156142a257600080fd5b8a356142ad81613e88565b995060208b01356142bd81613e88565b985060408b01356142cd81613e88565b975060608b0135965060808b0135955060a08b0135945060c08b013593506142f760e08c016141d4565b92506143066101008c016141d4565b91506143156101208c01613e54565b90509295989b9194979a5092959850565b6000806000806000806000806000806101408b8d03121561434657600080fd5b8a3561435181613e88565b995060208b013561436181613e88565b985060408b013561437181613e88565b975060608b0135965060808b0135955061438d60a08c016141d4565b945061439b60c08c016141d4565b93506143a960e08c01613e54565b92506143b86101008c01613e54565b91506101208b013567ffffffffffffffff8111156143d557600080fd5b6143e18d828e01614009565b9150509295989b9194979a5092959850565b6000806020838503121561440657600080fd5b823567ffffffffffffffff8082111561441e57600080fd5b818501915085601f83011261443257600080fd5b81358181111561444157600080fd5b8660208260051b850101111561445657600080fd5b60209290920196919550909350505050565b60005b8381101561448357818101518382015260200161446b565b83811115610ec85750506000910152565b600081518084526144ac816020860160208601614468565b601f017fffffffffffffffffffffffffffffffffffffffffffffffffffffffffffffffe0169290920160200192915050565b6000602080830181845280855180835260408601915060408160051b870101925083870160005b82811015614551577fffffffffffffffffffffffffffffffffffffffffffffffffffffffffffffffc088860301845261453f858351614494565b94509285019290850190600101614505565b5092979650505050505050565b6000806040838503121561457157600080fd5b50508035926020909101359150565b600067ffffffffffffffff82111561459a5761459a613f3e565b50601f017fffffffffffffffffffffffffffffffffffffffffffffffffffffffffffffffe01660200190565b600082601f8301126145d757600080fd5b81356145e561402a82614580565b8181528460208386010111156145fa57600080fd5b816020850160208301376000918101602001919091529392505050565b6000806000806000806000806000806000806101808d8f03121561463a57600080fd5b6146438d613ead565b9b5061465160208e01613ead565b9a5061465f60408e01613ead565b995060608d0135985060808d0135975060a08d0135965060c08d0135955061468960e08e016141d4565b94506146986101008e016141d4565b93506146a76101208e016141d4565b92506146b66101408e01613e54565b915067ffffffffffffffff6101608e013511156146d257600080fd5b6146e38e6101608f01358f016145c6565b90509295989b509295989b509295989b565b60006020828403121561470757600080fd5b815161381581613e88565b60006020828403121561472457600080fd5b5051919050565b7f4e487b7100000000000000000000000000000000000000000000000000000000600052603260045260246000fd5b600081518084526020808501945080840160005b838110156147a057815173ffffffffffffffffffffffffffffffffffffffff168752958201959082019060010161476e565b509495945050505050565b600081518084526020808501945080840160005b838110156147a0578151875295820195908201906001016147bf565b83815260006020606081840152610120830185516060850152818601516080850152604086015160c060a0860152818151808452610140870191508483019350600092505b808310156148405783518252928401926001929092019190840190614820565b50606088015163ffffffff1660c0870152608088015173ffffffffffffffffffffffffffffffffffffffff1660e087015260a08801518682037fffffffffffffffffffffffffffffffffffffffffffffffffffffffffffffffa00161010088015293506148ad818561475a565b935050505082810360408401526148c481856147ab565b9695505050505050565b6000602082840312156148e057600080fd5b815161381581613eee565b7f4e487b7100000000000000000000000000000000000000000000000000000000600052601160045260246000fd5b600063ffffffff80831681811415614934576149346148eb565b6001019392505050565b600060a082018783526020878185015260a0604085015281875180845260c086019150828901935060005b8181101561498557845183529383019391830191600101614969565b505073ffffffffffffffffffffffffffffffffffffffff8716606086015284810360808601526149b5818761475a565b9a9950505050505050505050565b600063ffffffff838116908316818110156149e0576149e06148eb565b039392505050565b600063ffffffff808316818516808303821115614a0757614a076148eb565b01949350505050565b6000610140858352614aa0602084018673ffffffffffffffffffffffffffffffffffffffff80825116835280602083015116602084015280604083015116604084015250606081015160608301526080810151608083015260a081015167ffffffffffffffff80821660a08501528060c08401511660c0850152505063ffffffff60e08201511660e08301525050565b806101208401526148c4818401856147ab565b60008083357fffffffffffffffffffffffffffffffffffffffffffffffffffffffffffffffe1843603018112614ae857600080fd5b83018035915067ffffffffffffffff821115614b0357600080fd5b602001915036819003821315613b0357600080fd5b8183823760009101908152919050565b600060208284031215614b3a57600080fd5b815167ffffffffffffffff811115614b5157600080fd5b8201601f81018413614b6257600080fd5b8051614b7061402a82614580565b818152856020838501011115614b8557600080fd5b613257826020830160208601614468565b6020815260006139626020830184614494565b60007fffffffffffffffffffffffffffffffffffffffffffffffffffffffffffffffff821415614bdb57614bdb6148eb565b5060010190565b6101008101613965828473ffffffffffffffffffffffffffffffffffffffff80825116835280602083015116602084015280604083015116604084015250606081015160608301526080810151608083015260a081015167ffffffffffffffff80821660a08501528060c08401511660c0850152505063ffffffff60e08201511660e08301525050565b600067ffffffffffffffff808316818516808303821115614a0757614a076148eb565b600082821015614ca157614ca16148eb565b500390565b60008219821115614cb957614cb96148eb565b500190565b7f4e487b7100000000000000000000000000000000000000000000000000000000600052602160045260246000fd5b828152604060208201526000613b196040830184614494565b60008251614d18818460208701614468565b9190910192915050565b600060208284031215614d3457600080fd5b81517fffffffff000000000000000000000000000000000000000000000000000000008116811461381557600080fd5b600067ffffffffffffffff838116908316818110156149e0576149e06148eb565b6000817fffffffffffffffffffffffffffffffffffffffffffffffffffffffffffffffff0483118215151615614dbd57614dbd6148eb565b500290565b600082614df8577f4e487b7100000000000000000000000000000000000000000000000000000000600052601260045260246000fd5b50049056fea2646970667358221220ac94b68094f80e9bd0cdc3980083ea1af0b1f8c97467c04cbf4572ceafb6ff0464736f6c634300080b0033",
  "libraries": {
    "MerkleLib": "0xFB87Ac52Bac7ccF497b6053610A9c59B87a0cE7D"
  },
  "devdoc": {
    "details": "Uses OVM cross-domain-enabled logic for access control.",
    "kind": "dev",
    "methods": {
      "deposit(address,address,uint256,uint256,uint64,uint32)": {
        "details": "The caller must first approve this contract to spend `amount` of `originToken`."
      },
      "getCurrentTime()": {
        "returns": {
          "_0": "uint for the current Testable timestamp."
        }
      },
      "setCurrentTime(uint256)": {
        "details": "Will revert if not running in test mode.",
        "params": {
          "time": "timestamp to set current Testable time to."
        }
      }
    },
    "version": 1
  },
  "userdoc": {
    "kind": "user",
    "methods": {
      "deposit(address,address,uint256,uint256,uint64,uint32)": {
        "notice": "Called by user to bridge funds from origin to destination chain."
      },
      "getCurrentTime()": {
        "notice": "Gets the current time. Will return the last time set in `setCurrentTime` if running in test mode. Otherwise, it will return the block timestamp."
      },
      "setCurrentTime(uint256)": {
        "notice": "Sets the current time."
      }
    },
    "notice": "OVM specific SpokePool.",
    "version": 1
  },
  "storageLayout": {
    "storage": [
      {
        "astId": 241,
        "contract": "contracts/Optimism_SpokePool.sol:Optimism_SpokePool",
        "label": "messenger",
        "offset": 0,
        "slot": "0",
        "type": "t_address"
      },
      {
        "astId": 5882,
        "contract": "contracts/Optimism_SpokePool.sol:Optimism_SpokePool",
        "label": "timerAddress",
        "offset": 0,
        "slot": "1",
        "type": "t_address"
      },
      {
        "astId": 5108,
        "contract": "contracts/Optimism_SpokePool.sol:Optimism_SpokePool",
        "label": "_notEntered",
        "offset": 20,
        "slot": "1",
        "type": "t_bool"
      },
      {
        "astId": 7788,
        "contract": "contracts/Optimism_SpokePool.sol:Optimism_SpokePool",
        "label": "crossDomainAdmin",
        "offset": 0,
        "slot": "2",
        "type": "t_address"
      },
      {
        "astId": 7790,
        "contract": "contracts/Optimism_SpokePool.sol:Optimism_SpokePool",
        "label": "hubPool",
        "offset": 0,
        "slot": "3",
        "type": "t_address"
      },
      {
        "astId": 7793,
        "contract": "contracts/Optimism_SpokePool.sol:Optimism_SpokePool",
        "label": "weth",
        "offset": 0,
        "slot": "4",
        "type": "t_contract(WETH9)9827"
      },
      {
        "astId": 7795,
        "contract": "contracts/Optimism_SpokePool.sol:Optimism_SpokePool",
        "label": "deploymentTime",
        "offset": 20,
        "slot": "4",
        "type": "t_uint32"
      },
      {
        "astId": 7798,
        "contract": "contracts/Optimism_SpokePool.sol:Optimism_SpokePool",
        "label": "depositQuoteTimeBuffer",
        "offset": 24,
        "slot": "4",
        "type": "t_uint32"
      },
      {
        "astId": 7800,
        "contract": "contracts/Optimism_SpokePool.sol:Optimism_SpokePool",
        "label": "numberOfDeposits",
        "offset": 28,
        "slot": "4",
        "type": "t_uint32"
      },
      {
        "astId": 7806,
        "contract": "contracts/Optimism_SpokePool.sol:Optimism_SpokePool",
        "label": "enabledDepositRoutes",
        "offset": 0,
        "slot": "5",
        "type": "t_mapping(t_address,t_mapping(t_uint256,t_bool))"
      },
      {
        "astId": 7819,
        "contract": "contracts/Optimism_SpokePool.sol:Optimism_SpokePool",
        "label": "relayerRefunds",
        "offset": 0,
        "slot": "6",
        "type": "t_array(t_struct(RelayerRefund)7815_storage)dyn_storage"
      },
      {
        "astId": 7823,
        "contract": "contracts/Optimism_SpokePool.sol:Optimism_SpokePool",
        "label": "relayFills",
        "offset": 0,
        "slot": "7",
        "type": "t_mapping(t_bytes32,t_uint256)"
      },
      {
        "astId": 7543,
        "contract": "contracts/Optimism_SpokePool.sol:Optimism_SpokePool",
        "label": "l1Gas",
        "offset": 0,
        "slot": "8",
        "type": "t_uint32"
      },
      {
        "astId": 7550,
        "contract": "contracts/Optimism_SpokePool.sol:Optimism_SpokePool",
        "label": "l2Eth",
        "offset": 4,
        "slot": "8",
        "type": "t_address"
      }
    ],
    "types": {
      "t_address": {
        "encoding": "inplace",
        "label": "address",
        "numberOfBytes": "20"
      },
      "t_array(t_struct(RelayerRefund)7815_storage)dyn_storage": {
        "base": "t_struct(RelayerRefund)7815_storage",
        "encoding": "dynamic_array",
        "label": "struct SpokePool.RelayerRefund[]",
        "numberOfBytes": "32"
      },
      "t_bool": {
        "encoding": "inplace",
        "label": "bool",
        "numberOfBytes": "1"
      },
      "t_bytes32": {
        "encoding": "inplace",
        "label": "bytes32",
        "numberOfBytes": "32"
      },
      "t_contract(WETH9)9827": {
        "encoding": "inplace",
        "label": "contract WETH9",
        "numberOfBytes": "20"
      },
      "t_mapping(t_address,t_mapping(t_uint256,t_bool))": {
        "encoding": "mapping",
        "key": "t_address",
        "label": "mapping(address => mapping(uint256 => bool))",
        "numberOfBytes": "32",
        "value": "t_mapping(t_uint256,t_bool)"
      },
      "t_mapping(t_bytes32,t_uint256)": {
        "encoding": "mapping",
        "key": "t_bytes32",
        "label": "mapping(bytes32 => uint256)",
        "numberOfBytes": "32",
        "value": "t_uint256"
      },
      "t_mapping(t_uint256,t_bool)": {
        "encoding": "mapping",
        "key": "t_uint256",
        "label": "mapping(uint256 => bool)",
        "numberOfBytes": "32",
        "value": "t_bool"
      },
      "t_mapping(t_uint256,t_uint256)": {
        "encoding": "mapping",
        "key": "t_uint256",
        "label": "mapping(uint256 => uint256)",
        "numberOfBytes": "32",
        "value": "t_uint256"
      },
      "t_struct(RelayerRefund)7815_storage": {
        "encoding": "inplace",
        "label": "struct SpokePool.RelayerRefund",
        "members": [
          {
            "astId": 7808,
            "contract": "contracts/Optimism_SpokePool.sol:Optimism_SpokePool",
            "label": "slowRelayFulfillmentRoot",
            "offset": 0,
            "slot": "0",
            "type": "t_bytes32"
          },
          {
            "astId": 7810,
            "contract": "contracts/Optimism_SpokePool.sol:Optimism_SpokePool",
            "label": "distributionRoot",
            "offset": 0,
            "slot": "1",
            "type": "t_bytes32"
          },
          {
            "astId": 7814,
            "contract": "contracts/Optimism_SpokePool.sol:Optimism_SpokePool",
            "label": "claimedBitmap",
            "offset": 0,
            "slot": "2",
            "type": "t_mapping(t_uint256,t_uint256)"
          }
        ],
        "numberOfBytes": "96"
      },
      "t_uint256": {
        "encoding": "inplace",
        "label": "uint256",
        "numberOfBytes": "32"
      },
      "t_uint32": {
        "encoding": "inplace",
        "label": "uint32",
        "numberOfBytes": "4"
      }
    }
  }
}