{
  "address": "0xa5eA165AfAc780807DE19aefa2B8a21079B8A627",
  "abi": [
    {
      "inputs": [
        {
          "internalType": "address",
          "name": "_crossDomainAdmin",
          "type": "address"
        },
        {
          "internalType": "address",
          "name": "_hubPool",
          "type": "address"
        },
        {
          "internalType": "address",
          "name": "timerAddress",
          "type": "address"
        }
      ],
      "stateMutability": "nonpayable",
      "type": "constructor"
    },
    {
      "anonymous": false,
      "inputs": [
        {
          "indexed": true,
          "internalType": "address",
          "name": "originToken",
          "type": "address"
        },
        {
          "indexed": true,
          "internalType": "uint256",
          "name": "destinationChainId",
          "type": "uint256"
        },
        {
          "indexed": false,
          "internalType": "bool",
          "name": "enabled",
          "type": "bool"
        }
      ],
      "name": "EnabledDepositRoute",
      "type": "event"
    },
    {
      "anonymous": false,
      "inputs": [
        {
          "indexed": false,
          "internalType": "uint256",
          "name": "amountToReturn",
          "type": "uint256"
        },
        {
          "indexed": false,
          "internalType": "uint256",
          "name": "chainId",
          "type": "uint256"
        },
        {
          "indexed": false,
          "internalType": "uint256[]",
          "name": "refundAmounts",
          "type": "uint256[]"
        },
        {
          "indexed": true,
          "internalType": "uint32",
          "name": "rootBundleId",
          "type": "uint32"
        },
        {
          "indexed": true,
          "internalType": "uint32",
          "name": "leafId",
          "type": "uint32"
        },
        {
          "indexed": false,
          "internalType": "address",
          "name": "l2TokenAddress",
          "type": "address"
        },
        {
          "indexed": false,
          "internalType": "address[]",
          "name": "refundAddresses",
          "type": "address[]"
        },
        {
          "indexed": true,
          "internalType": "address",
          "name": "caller",
          "type": "address"
        }
      ],
      "name": "ExecutedRelayerRefundRoot",
      "type": "event"
    },
    {
      "anonymous": false,
      "inputs": [
        {
          "indexed": true,
          "internalType": "bytes32",
          "name": "relayHash",
          "type": "bytes32"
        },
        {
          "indexed": false,
          "internalType": "uint256",
          "name": "totalRelayAmount",
          "type": "uint256"
        },
        {
          "indexed": false,
          "internalType": "uint256",
          "name": "totalFilledAmount",
          "type": "uint256"
        },
        {
          "indexed": false,
          "internalType": "uint256",
          "name": "fillAmount",
          "type": "uint256"
        },
        {
          "indexed": false,
          "internalType": "uint256",
          "name": "originChainId",
          "type": "uint256"
        },
        {
          "indexed": false,
          "internalType": "uint64",
          "name": "relayerFeePct",
          "type": "uint64"
        },
        {
          "indexed": false,
          "internalType": "uint64",
          "name": "realizedLpFeePct",
          "type": "uint64"
        },
        {
          "indexed": false,
          "internalType": "uint32",
          "name": "depositId",
          "type": "uint32"
        },
        {
          "indexed": false,
          "internalType": "address",
          "name": "destinationToken",
          "type": "address"
        },
        {
          "indexed": true,
          "internalType": "address",
          "name": "caller",
          "type": "address"
        },
        {
          "indexed": false,
          "internalType": "address",
          "name": "depositor",
          "type": "address"
        },
        {
          "indexed": false,
          "internalType": "address",
          "name": "recipient",
          "type": "address"
        }
      ],
      "name": "ExecutedSlowRelayFulfillmentRoot",
      "type": "event"
    },
    {
      "anonymous": false,
      "inputs": [
        {
          "indexed": true,
          "internalType": "bytes32",
          "name": "relayHash",
          "type": "bytes32"
        },
        {
          "indexed": false,
          "internalType": "uint256",
          "name": "totalRelayAmount",
          "type": "uint256"
        },
        {
          "indexed": false,
          "internalType": "uint256",
          "name": "totalFilledAmount",
          "type": "uint256"
        },
        {
          "indexed": false,
          "internalType": "uint256",
          "name": "fillAmount",
          "type": "uint256"
        },
        {
          "indexed": true,
          "internalType": "uint256",
          "name": "repaymentChain",
          "type": "uint256"
        },
        {
          "indexed": false,
          "internalType": "uint256",
          "name": "originChainId",
          "type": "uint256"
        },
        {
          "indexed": false,
          "internalType": "uint64",
          "name": "relayerFeePct",
          "type": "uint64"
        },
        {
          "indexed": false,
          "internalType": "uint64",
          "name": "realizedLpFeePct",
          "type": "uint64"
        },
        {
          "indexed": false,
          "internalType": "uint32",
          "name": "depositId",
          "type": "uint32"
        },
        {
          "indexed": false,
          "internalType": "address",
          "name": "destinationToken",
          "type": "address"
        },
        {
          "indexed": true,
          "internalType": "address",
          "name": "relayer",
          "type": "address"
        },
        {
          "indexed": false,
          "internalType": "address",
          "name": "depositor",
          "type": "address"
        },
        {
          "indexed": false,
          "internalType": "address",
          "name": "recipient",
          "type": "address"
        }
      ],
      "name": "FilledRelay",
      "type": "event"
    },
    {
      "anonymous": false,
      "inputs": [
        {
          "indexed": false,
          "internalType": "uint256",
          "name": "amount",
          "type": "uint256"
        },
        {
          "indexed": false,
          "internalType": "uint256",
          "name": "destinationChainId",
          "type": "uint256"
        },
        {
          "indexed": false,
          "internalType": "uint64",
          "name": "relayerFeePct",
          "type": "uint64"
        },
        {
          "indexed": true,
          "internalType": "uint32",
          "name": "depositId",
          "type": "uint32"
        },
        {
          "indexed": false,
          "internalType": "uint32",
          "name": "quoteTimestamp",
          "type": "uint32"
        },
        {
          "indexed": true,
          "internalType": "address",
          "name": "originToken",
          "type": "address"
        },
        {
          "indexed": false,
          "internalType": "address",
          "name": "recipient",
          "type": "address"
        },
        {
          "indexed": true,
          "internalType": "address",
          "name": "depositor",
          "type": "address"
        }
      ],
      "name": "FundsDeposited",
      "type": "event"
    },
    {
      "anonymous": false,
      "inputs": [
        {
          "indexed": true,
          "internalType": "address",
          "name": "l2Token",
          "type": "address"
        },
        {
          "indexed": false,
          "internalType": "address",
          "name": "target",
          "type": "address"
        },
        {
          "indexed": false,
          "internalType": "uint256",
          "name": "numberOfTokensBridged",
          "type": "uint256"
        },
        {
          "indexed": false,
          "internalType": "uint256",
          "name": "l1Gas",
          "type": "uint256"
        }
      ],
      "name": "OptimismTokensBridged",
      "type": "event"
    },
    {
      "anonymous": false,
      "inputs": [
        {
          "indexed": true,
          "internalType": "uint32",
          "name": "rootBundleId",
          "type": "uint32"
        },
        {
          "indexed": false,
          "internalType": "bytes32",
          "name": "relayerRefundRoot",
          "type": "bytes32"
        },
        {
          "indexed": false,
          "internalType": "bytes32",
          "name": "slowRelayFulfillmentRoot",
          "type": "bytes32"
        }
      ],
      "name": "RelayedRootBundle",
      "type": "event"
    },
    {
      "anonymous": false,
      "inputs": [
        {
          "indexed": false,
          "internalType": "uint32",
          "name": "newBuffer",
          "type": "uint32"
        }
      ],
      "name": "SetDepositQuoteTimeBuffer",
      "type": "event"
    },
    {
      "anonymous": false,
      "inputs": [
        {
          "indexed": true,
          "internalType": "address",
          "name": "newHubPool",
          "type": "address"
        }
      ],
      "name": "SetHubPool",
      "type": "event"
    },
    {
      "anonymous": false,
      "inputs": [
        {
          "indexed": true,
          "internalType": "uint32",
          "name": "newL1Gas",
          "type": "uint32"
        }
      ],
      "name": "SetL1Gas",
      "type": "event"
    },
    {
      "anonymous": false,
      "inputs": [
        {
          "indexed": true,
          "internalType": "address",
          "name": "newAdmin",
          "type": "address"
        }
      ],
      "name": "SetXDomainAdmin",
      "type": "event"
    },
    {
      "anonymous": false,
      "inputs": [
        {
          "indexed": false,
          "internalType": "uint256",
          "name": "amountToReturn",
          "type": "uint256"
        },
        {
          "indexed": true,
          "internalType": "uint256",
          "name": "chainId",
          "type": "uint256"
        },
        {
          "indexed": true,
          "internalType": "uint32",
          "name": "leafId",
          "type": "uint32"
        },
        {
          "indexed": true,
          "internalType": "address",
          "name": "l2TokenAddress",
          "type": "address"
        },
        {
          "indexed": false,
          "internalType": "address",
          "name": "caller",
          "type": "address"
        }
      ],
      "name": "TokensBridged",
      "type": "event"
    },
    {
      "inputs": [],
      "name": "chainId",
      "outputs": [
        {
          "internalType": "uint256",
          "name": "",
          "type": "uint256"
        }
      ],
      "stateMutability": "view",
      "type": "function"
    },
    {
      "inputs": [],
      "name": "crossDomainAdmin",
      "outputs": [
        {
          "internalType": "address",
          "name": "",
          "type": "address"
        }
      ],
      "stateMutability": "view",
      "type": "function"
    },
    {
      "inputs": [],
      "name": "deploymentTime",
      "outputs": [
        {
          "internalType": "uint32",
          "name": "",
          "type": "uint32"
        }
      ],
      "stateMutability": "view",
      "type": "function"
    },
    {
      "inputs": [
        {
          "internalType": "address",
          "name": "recipient",
          "type": "address"
        },
        {
          "internalType": "address",
          "name": "originToken",
          "type": "address"
        },
        {
          "internalType": "uint256",
          "name": "amount",
          "type": "uint256"
        },
        {
          "internalType": "uint256",
          "name": "destinationChainId",
          "type": "uint256"
        },
        {
          "internalType": "uint64",
          "name": "relayerFeePct",
          "type": "uint64"
        },
        {
          "internalType": "uint32",
          "name": "quoteTimestamp",
          "type": "uint32"
        }
      ],
      "name": "deposit",
      "outputs": [],
      "stateMutability": "payable",
      "type": "function"
    },
    {
      "inputs": [],
      "name": "depositQuoteTimeBuffer",
      "outputs": [
        {
          "internalType": "uint32",
          "name": "",
          "type": "uint32"
        }
      ],
      "stateMutability": "view",
      "type": "function"
    },
    {
      "inputs": [
        {
          "internalType": "address",
          "name": "",
          "type": "address"
        },
        {
          "internalType": "uint256",
          "name": "",
          "type": "uint256"
        }
      ],
      "name": "enabledDepositRoutes",
      "outputs": [
        {
          "internalType": "bool",
          "name": "",
          "type": "bool"
        }
      ],
      "stateMutability": "view",
      "type": "function"
    },
    {
      "inputs": [
        {
          "internalType": "uint32",
          "name": "rootBundleId",
          "type": "uint32"
        },
        {
          "components": [
            {
              "internalType": "uint256",
              "name": "amountToReturn",
              "type": "uint256"
            },
            {
              "internalType": "uint256",
              "name": "chainId",
              "type": "uint256"
            },
            {
              "internalType": "uint256[]",
              "name": "refundAmounts",
              "type": "uint256[]"
            },
            {
              "internalType": "uint32",
              "name": "leafId",
              "type": "uint32"
            },
            {
              "internalType": "address",
              "name": "l2TokenAddress",
              "type": "address"
            },
            {
              "internalType": "address[]",
              "name": "refundAddresses",
              "type": "address[]"
            }
          ],
          "internalType": "struct SpokePoolInterface.RelayerRefundLeaf",
          "name": "relayerRefundLeaf",
          "type": "tuple"
        },
        {
          "internalType": "bytes32[]",
          "name": "proof",
          "type": "bytes32[]"
        }
      ],
      "name": "executeRelayerRefundRoot",
      "outputs": [],
      "stateMutability": "nonpayable",
      "type": "function"
    },
    {
      "inputs": [
        {
          "internalType": "address",
          "name": "depositor",
          "type": "address"
        },
        {
          "internalType": "address",
          "name": "recipient",
          "type": "address"
        },
        {
          "internalType": "address",
          "name": "destinationToken",
          "type": "address"
        },
        {
          "internalType": "uint256",
          "name": "totalRelayAmount",
          "type": "uint256"
        },
        {
          "internalType": "uint256",
          "name": "originChainId",
          "type": "uint256"
        },
        {
          "internalType": "uint64",
          "name": "realizedLpFeePct",
          "type": "uint64"
        },
        {
          "internalType": "uint64",
          "name": "relayerFeePct",
          "type": "uint64"
        },
        {
          "internalType": "uint32",
          "name": "depositId",
          "type": "uint32"
        },
        {
          "internalType": "uint32",
          "name": "rootBundleId",
          "type": "uint32"
        },
        {
          "internalType": "bytes32[]",
          "name": "proof",
          "type": "bytes32[]"
        }
      ],
      "name": "executeSlowRelayFulfillmentRoot",
      "outputs": [],
      "stateMutability": "nonpayable",
      "type": "function"
    },
    {
      "inputs": [
        {
          "internalType": "address",
          "name": "depositor",
          "type": "address"
        },
        {
          "internalType": "address",
          "name": "recipient",
          "type": "address"
        },
        {
          "internalType": "address",
          "name": "destinationToken",
          "type": "address"
        },
        {
          "internalType": "uint256",
          "name": "totalRelayAmount",
          "type": "uint256"
        },
        {
          "internalType": "uint256",
          "name": "maxTokensToSend",
          "type": "uint256"
        },
        {
          "internalType": "uint256",
          "name": "repaymentChain",
          "type": "uint256"
        },
        {
          "internalType": "uint256",
          "name": "originChainId",
          "type": "uint256"
        },
        {
          "internalType": "uint64",
          "name": "realizedLpFeePct",
          "type": "uint64"
        },
        {
          "internalType": "uint64",
          "name": "relayerFeePct",
          "type": "uint64"
        },
        {
          "internalType": "uint32",
          "name": "depositId",
          "type": "uint32"
        }
      ],
      "name": "fillRelay",
      "outputs": [],
      "stateMutability": "nonpayable",
      "type": "function"
    },
    {
      "inputs": [
        {
          "internalType": "address",
          "name": "depositor",
          "type": "address"
        },
        {
          "internalType": "address",
          "name": "recipient",
          "type": "address"
        },
        {
          "internalType": "address",
          "name": "destinationToken",
          "type": "address"
        },
        {
          "internalType": "uint256",
          "name": "totalRelayAmount",
          "type": "uint256"
        },
        {
          "internalType": "uint256",
          "name": "maxTokensToSend",
          "type": "uint256"
        },
        {
          "internalType": "uint256",
          "name": "repaymentChain",
          "type": "uint256"
        },
        {
          "internalType": "uint256",
          "name": "originChainId",
          "type": "uint256"
        },
        {
          "internalType": "uint64",
          "name": "realizedLpFeePct",
          "type": "uint64"
        },
        {
          "internalType": "uint64",
          "name": "relayerFeePct",
          "type": "uint64"
        },
        {
          "internalType": "uint64",
          "name": "newRelayerFeePct",
          "type": "uint64"
        },
        {
          "internalType": "uint32",
          "name": "depositId",
          "type": "uint32"
        },
        {
          "internalType": "bytes",
          "name": "depositorSignature",
          "type": "bytes"
        }
      ],
      "name": "fillRelayWithUpdatedFee",
      "outputs": [],
      "stateMutability": "nonpayable",
      "type": "function"
    },
    {
      "inputs": [],
      "name": "getCurrentTime",
      "outputs": [
        {
          "internalType": "uint256",
          "name": "",
          "type": "uint256"
        }
      ],
      "stateMutability": "view",
      "type": "function"
    },
    {
      "inputs": [],
      "name": "hubPool",
      "outputs": [
        {
          "internalType": "address",
          "name": "",
          "type": "address"
        }
      ],
      "stateMutability": "view",
      "type": "function"
    },
    {
      "inputs": [],
      "name": "l1Gas",
      "outputs": [
        {
          "internalType": "uint32",
          "name": "",
          "type": "uint32"
        }
      ],
      "stateMutability": "view",
      "type": "function"
    },
    {
      "inputs": [],
      "name": "l2Eth",
      "outputs": [
        {
          "internalType": "address",
          "name": "",
          "type": "address"
        }
      ],
      "stateMutability": "view",
      "type": "function"
    },
    {
      "inputs": [],
      "name": "messenger",
      "outputs": [
        {
          "internalType": "address",
          "name": "",
          "type": "address"
        }
      ],
      "stateMutability": "view",
      "type": "function"
    },
    {
      "inputs": [
        {
          "internalType": "bytes[]",
          "name": "data",
          "type": "bytes[]"
        }
      ],
      "name": "multicall",
      "outputs": [
        {
          "internalType": "bytes[]",
          "name": "results",
          "type": "bytes[]"
        }
      ],
      "stateMutability": "payable",
      "type": "function"
    },
    {
      "inputs": [],
      "name": "numberOfDeposits",
      "outputs": [
        {
          "internalType": "uint32",
          "name": "",
          "type": "uint32"
        }
      ],
      "stateMutability": "view",
      "type": "function"
    },
    {
      "inputs": [
        {
          "internalType": "bytes32",
          "name": "",
          "type": "bytes32"
        }
      ],
      "name": "relayFills",
      "outputs": [
        {
          "internalType": "uint256",
          "name": "",
          "type": "uint256"
        }
      ],
      "stateMutability": "view",
      "type": "function"
    },
    {
      "inputs": [
        {
          "internalType": "bytes32",
          "name": "relayerRefundRoot",
          "type": "bytes32"
        },
        {
          "internalType": "bytes32",
          "name": "slowRelayFulfillmentRoot",
          "type": "bytes32"
        }
      ],
      "name": "relayRootBundle",
      "outputs": [],
      "stateMutability": "nonpayable",
      "type": "function"
    },
    {
      "inputs": [
        {
          "internalType": "uint256",
          "name": "",
          "type": "uint256"
        }
      ],
      "name": "rootBundles",
      "outputs": [
        {
          "internalType": "bytes32",
          "name": "slowRelayFulfillmentRoot",
          "type": "bytes32"
        },
        {
          "internalType": "bytes32",
          "name": "relayerRefundRoot",
          "type": "bytes32"
        }
      ],
      "stateMutability": "view",
      "type": "function"
    },
    {
      "inputs": [
        {
          "internalType": "address",
          "name": "newCrossDomainAdmin",
          "type": "address"
        }
      ],
      "name": "setCrossDomainAdmin",
      "outputs": [],
      "stateMutability": "nonpayable",
      "type": "function"
    },
    {
      "inputs": [
        {
          "internalType": "uint256",
          "name": "time",
          "type": "uint256"
        }
      ],
      "name": "setCurrentTime",
      "outputs": [],
      "stateMutability": "nonpayable",
      "type": "function"
    },
    {
      "inputs": [
        {
          "internalType": "uint32",
          "name": "buffer",
          "type": "uint32"
        }
      ],
      "name": "setDepositQuoteTimeBuffer",
      "outputs": [],
      "stateMutability": "nonpayable",
      "type": "function"
    },
    {
      "inputs": [
        {
          "internalType": "address",
          "name": "originToken",
          "type": "address"
        },
        {
          "internalType": "uint256",
          "name": "destinationChainId",
          "type": "uint256"
        },
        {
          "internalType": "bool",
          "name": "enable",
          "type": "bool"
        }
      ],
      "name": "setEnableRoute",
      "outputs": [],
      "stateMutability": "nonpayable",
      "type": "function"
    },
    {
      "inputs": [
        {
          "internalType": "address",
          "name": "newHubPool",
          "type": "address"
        }
      ],
      "name": "setHubPool",
      "outputs": [],
      "stateMutability": "nonpayable",
      "type": "function"
    },
    {
      "inputs": [
        {
          "internalType": "uint32",
          "name": "newl1Gas",
          "type": "uint32"
        }
      ],
      "name": "setL1GasLimit",
      "outputs": [],
      "stateMutability": "nonpayable",
      "type": "function"
    },
    {
      "inputs": [],
      "name": "timerAddress",
      "outputs": [
        {
          "internalType": "address",
          "name": "",
          "type": "address"
        }
      ],
      "stateMutability": "view",
      "type": "function"
    },
    {
      "inputs": [],
      "name": "weth",
      "outputs": [
        {
          "internalType": "contract WETH9",
          "name": "",
          "type": "address"
        }
      ],
      "stateMutability": "view",
      "type": "function"
    },
    {
      "stateMutability": "payable",
      "type": "receive"
    }
  ],
  "transactionHash": "0xca621ad7b2148f35cbb582bef4f644b7ea3fbc724a21e9117e4d3b2598231f56",
  "args": [
    "0x784905f21A43f74CEa1B1fe2d2307ea926cB4B4B",
    "0x2bd28a88A4f9a6D22cF9Bfab99a737E948434780",
    "0x0000000000000000000000000000000000000000"
  ],
  "numDeployments": 1,
  "solcInputHash": "c0beb8850f78f3f9834fc055cedc5ece",
  "bytecode": "0x60806040526004805463ffffffff60c01b1916604b60c31b179055600880546001600160c01b03191677deaddeaddeaddeaddeaddeaddeaddeaddead0000004c4b401790553480156200005157600080fd5b506040516200506d3803806200506d83398101604081905262000074916200033d565b600080546001600160a01b031916734200000000000000000000000000000000000007179055600180546001600160a81b0319166001600160a01b03831617600160a01b179055828273420000000000000000000000000000000000000683620000de846200013f565b620000e983620001e5565b620000f362000287565b600480546001600160a01b039094166001600160a01b031963ffffffff93909316600160a01b02929092166001600160c01b0319909416939093171790915550620003a1945050505050565b6001600160a01b0381166200019b5760405162461bcd60e51b815260206004820152601960248201527f4261642062726964676520726f7574657220616464726573730000000000000060448201526064015b60405180910390fd5b600280546001600160a01b0319166001600160a01b0383169081179091556040517fa9e8c42c9e7fca7f62755189a16b2f5314d43d8fb24e91ba54e6d65f9314e84990600090a250565b6001600160a01b0381166200023d5760405162461bcd60e51b815260206004820152601460248201527f4261642068756220706f6f6c2061646472657373000000000000000000000000604482015260640162000192565b600380546001600160a01b0319166001600160a01b0383169081179091556040517f1f17a88f67b0f49060a34bec1a4723a563620e6aa265eb640b5046dcee0759a090600090a250565b6001546000906001600160a01b0316156200031b57600160009054906101000a90046001600160a01b03166001600160a01b03166329cb924d6040518163ffffffff1660e01b8152600401602060405180830381865afa158015620002f0573d6000803e3d6000fd5b505050506040513d601f19601f8201168201806040525081019062000316919062000387565b905090565b504290565b80516001600160a01b03811681146200033857600080fd5b919050565b6000806000606084860312156200035357600080fd5b6200035e8462000320565b92506200036e6020850162000320565b91506200037e6040850162000320565b90509250925092565b6000602082840312156200039a57600080fd5b5051919050565b614cbc80620003b16000396000f3fe6080604052600436106101bb5760003560e01c8063766e0703116100ec578063e19044021161008a578063ee2a53f811610064578063ee2a53f8146105ba578063f06850f6146105ef578063fe45399c1461061c578063ffc351a31461063c57600080fd5b8063e190440214610523578063e322921114610550578063ecda10f51461058557600080fd5b8063a1244c67116100c6578063a1244c6714610486578063ac9650d8146104c3578063c894c0ca146104e3578063de7eba781461050357600080fd5b8063766e07031461043657806389a153cc146104535780639a8a05921461047357600080fd5b80633cb747bf11610159578063493a4f8411610133578063493a4f84146103505780635249fef1146103705780635285e058146103bb57806357f6dcb8146103e857600080fd5b80633cb747bf146102e35780633fc8cef314610310578063492289781461033d57600080fd5b806322f8e5661161019557806322f8e56614610260578063272751c7146102805780632752042e146102a057806329cb924d146102c057600080fd5b80630eaac9f0146101c75780631c39c38d146101e95780631dfb2d021461024057600080fd5b366101c257005b600080fd5b3480156101d357600080fd5b506101e76101e2366004613e0b565b61065c565b005b3480156101f557600080fd5b506001546102169073ffffffffffffffffffffffffffffffffffffffff1681565b60405173ffffffffffffffffffffffffffffffffffffffff90911681526020015b60405180910390f35b34801561024c57600080fd5b506101e761025b366004613e56565b6108a7565b34801561026c57600080fd5b506101e761027b366004613e73565b610b62565b34801561028c57600080fd5b506101e761029b366004613e9a565b610c0b565b3480156102ac57600080fd5b506101e76102bb366004613e0b565b610ece565b3480156102cc57600080fd5b506102d5611145565b604051908152602001610237565b3480156102ef57600080fd5b506000546102169073ffffffffffffffffffffffffffffffffffffffff1681565b34801561031c57600080fd5b506004546102169073ffffffffffffffffffffffffffffffffffffffff1681565b6101e761034b366004613ef4565b611201565b34801561035c57600080fd5b506101e761036b366004613f5e565b6116ae565b34801561037c57600080fd5b506103ab61038b366004613f80565b600560209081526000928352604080842090915290825290205460ff1681565b6040519015158152602001610237565b3480156103c757600080fd5b506002546102169073ffffffffffffffffffffffffffffffffffffffff1681565b3480156103f457600080fd5b50600454610421907801000000000000000000000000000000000000000000000000900463ffffffff1681565b60405163ffffffff9091168152602001610237565b34801561044257600080fd5b506008546104219063ffffffff1681565b34801561045f57600080fd5b506101e761046e366004613fac565b61196f565b34801561047f57600080fd5b50466102d5565b34801561049257600080fd5b50600454610421907c0100000000000000000000000000000000000000000000000000000000900463ffffffff1681565b6104d66104d1366004614050565b611abd565b604051610237919061413b565b3480156104ef57600080fd5b506101e76104fe366004614355565b611c97565b34801561050f57600080fd5b506101e761051e366004613e56565b6120e7565b34801561052f57600080fd5b506003546102169073ffffffffffffffffffffffffffffffffffffffff1681565b34801561055c57600080fd5b5060085461021690640100000000900473ffffffffffffffffffffffffffffffffffffffff1681565b34801561059157600080fd5b506004546104219074010000000000000000000000000000000000000000900463ffffffff1681565b3480156105c657600080fd5b506105da6105d5366004613e73565b61235e565b60408051928352602083019190915201610237565b3480156105fb57600080fd5b506102d561060a366004613e73565b60076020526000908152604090205481565b34801561062857600080fd5b506101e7610637366004614451565b61238c565b34801561064857600080fd5b506101e76106573660046145b5565b612524565b60025473ffffffffffffffffffffffffffffffffffffffff1661069460005473ffffffffffffffffffffffffffffffffffffffff1690565b73ffffffffffffffffffffffffffffffffffffffff163373ffffffffffffffffffffffffffffffffffffffff1614610753576040517f08c379a000000000000000000000000000000000000000000000000000000000815260206004820152602e60248201527f4f564d5f58434841494e3a206d657373656e67657220636f6e7472616374207560448201527f6e61757468656e7469636174656400000000000000000000000000000000000060648201526084015b60405180910390fd5b8073ffffffffffffffffffffffffffffffffffffffff1661078960005473ffffffffffffffffffffffffffffffffffffffff1690565b73ffffffffffffffffffffffffffffffffffffffff16636e296e456040518163ffffffff1660e01b8152600401602060405180830381865afa1580156107d3573d6000803e3d6000fd5b505050506040513d601f19601f820116820180604052508101906107f79190614693565b73ffffffffffffffffffffffffffffffffffffffff161461089a576040517f08c379a000000000000000000000000000000000000000000000000000000000815260206004820152603060248201527f4f564d5f58434841494e3a2077726f6e672073656e646572206f662063726f7360448201527f732d646f6d61696e206d65737361676500000000000000000000000000000000606482015260840161074a565b6108a382612770565b5050565b60025473ffffffffffffffffffffffffffffffffffffffff166108df60005473ffffffffffffffffffffffffffffffffffffffff1690565b73ffffffffffffffffffffffffffffffffffffffff163373ffffffffffffffffffffffffffffffffffffffff1614610999576040517f08c379a000000000000000000000000000000000000000000000000000000000815260206004820152602e60248201527f4f564d5f58434841494e3a206d657373656e67657220636f6e7472616374207560448201527f6e61757468656e74696361746564000000000000000000000000000000000000606482015260840161074a565b8073ffffffffffffffffffffffffffffffffffffffff166109cf60005473ffffffffffffffffffffffffffffffffffffffff1690565b73ffffffffffffffffffffffffffffffffffffffff16636e296e456040518163ffffffff1660e01b8152600401602060405180830381865afa158015610a19573d6000803e3d6000fd5b505050506040513d601f19601f82011682018060405250810190610a3d9190614693565b73ffffffffffffffffffffffffffffffffffffffff1614610ae0576040517f08c379a000000000000000000000000000000000000000000000000000000000815260206004820152603060248201527f4f564d5f58434841494e3a2077726f6e672073656e646572206f662063726f7360448201527f732d646f6d61696e206d65737361676500000000000000000000000000000000606482015260840161074a565b610ae86127cf565b610b15600180547fffffffffffffffffffffff00ffffffffffffffffffffffffffffffffffffffff169055565b610b1e82612855565b6108a3600180547fffffffffffffffffffffff00ffffffffffffffffffffffffffffffffffffffff1674010000000000000000000000000000000000000000179055565b60015473ffffffffffffffffffffffffffffffffffffffff16610b8457600080fd5b6001546040517f22f8e5660000000000000000000000000000000000000000000000000000000081526004810183905273ffffffffffffffffffffffffffffffffffffffff909116906322f8e56690602401600060405180830381600087803b158015610bf057600080fd5b505af1158015610c04573d6000803e3d6000fd5b5050505050565b60025473ffffffffffffffffffffffffffffffffffffffff16610c4360005473ffffffffffffffffffffffffffffffffffffffff1690565b73ffffffffffffffffffffffffffffffffffffffff163373ffffffffffffffffffffffffffffffffffffffff1614610cfd576040517f08c379a000000000000000000000000000000000000000000000000000000000815260206004820152602e60248201527f4f564d5f58434841494e3a206d657373656e67657220636f6e7472616374207560448201527f6e61757468656e74696361746564000000000000000000000000000000000000606482015260840161074a565b8073ffffffffffffffffffffffffffffffffffffffff16610d3360005473ffffffffffffffffffffffffffffffffffffffff1690565b73ffffffffffffffffffffffffffffffffffffffff16636e296e456040518163ffffffff1660e01b8152600401602060405180830381865afa158015610d7d573d6000803e3d6000fd5b505050506040513d601f19601f82011682018060405250810190610da19190614693565b73ffffffffffffffffffffffffffffffffffffffff1614610e44576040517f08c379a000000000000000000000000000000000000000000000000000000000815260206004820152603060248201527f4f564d5f58434841494e3a2077726f6e672073656e646572206f662063726f7360448201527f732d646f6d61696e206d65737361676500000000000000000000000000000000606482015260840161074a565b610e4c6127cf565b610e79600180547fffffffffffffffffffffff00ffffffffffffffffffffffffffffffffffffffff169055565b610e84848484612941565b610ec8600180547fffffffffffffffffffffff00ffffffffffffffffffffffffffffffffffffffff1674010000000000000000000000000000000000000000179055565b50505050565b60025473ffffffffffffffffffffffffffffffffffffffff16610f0660005473ffffffffffffffffffffffffffffffffffffffff1690565b73ffffffffffffffffffffffffffffffffffffffff163373ffffffffffffffffffffffffffffffffffffffff1614610fc0576040517f08c379a000000000000000000000000000000000000000000000000000000000815260206004820152602e60248201527f4f564d5f58434841494e3a206d657373656e67657220636f6e7472616374207560448201527f6e61757468656e74696361746564000000000000000000000000000000000000606482015260840161074a565b8073ffffffffffffffffffffffffffffffffffffffff16610ff660005473ffffffffffffffffffffffffffffffffffffffff1690565b73ffffffffffffffffffffffffffffffffffffffff16636e296e456040518163ffffffff1660e01b8152600401602060405180830381865afa158015611040573d6000803e3d6000fd5b505050506040513d601f19601f820116820180604052508101906110649190614693565b73ffffffffffffffffffffffffffffffffffffffff1614611107576040517f08c379a000000000000000000000000000000000000000000000000000000000815260206004820152603060248201527f4f564d5f58434841494e3a2077726f6e672073656e646572206f662063726f7360448201527f732d646f6d61696e206d65737361676500000000000000000000000000000000606482015260840161074a565b61110f6127cf565b61113c600180547fffffffffffffffffffffff00ffffffffffffffffffffffffffffffffffffffff169055565b610b1e826129d8565b60015460009073ffffffffffffffffffffffffffffffffffffffff16156111fc57600160009054906101000a900473ffffffffffffffffffffffffffffffffffffffff1673ffffffffffffffffffffffffffffffffffffffff166329cb924d6040518163ffffffff1660e01b8152600401602060405180830381865afa1580156111d3573d6000803e3d6000fd5b505050506040513d601f19601f820116820180604052508101906111f791906146b0565b905090565b504290565b73ffffffffffffffffffffffffffffffffffffffff851660009081526005602090815260408083208684529091529020548590849060ff1661129f576040517f08c379a000000000000000000000000000000000000000000000000000000000815260206004820152600e60248201527f44697361626c656420726f757465000000000000000000000000000000000000604482015260640161074a565b6112a76127cf565b6112d4600180547fffffffffffffffffffffff00ffffffffffffffffffffffffffffffffffffffff169055565b6706f05b59d3b200008467ffffffffffffffff161115611350576040517f08c379a000000000000000000000000000000000000000000000000000000000815260206004820152601360248201527f696e76616c69642072656c617965722066656500000000000000000000000000604482015260640161074a565b60045461137f907801000000000000000000000000000000000000000000000000900463ffffffff16846146f8565b63ffffffff1661138d611145565b101580156113d657506004546113c5907801000000000000000000000000000000000000000000000000900463ffffffff168461471d565b63ffffffff166113d3611145565b11155b61143c576040517f08c379a000000000000000000000000000000000000000000000000000000000815260206004820152601260248201527f696e76616c69642071756f74652074696d650000000000000000000000000000604482015260640161074a565b60045473ffffffffffffffffffffffffffffffffffffffff88811691161480156114665750600034115b1561155d578534146114d4576040517f08c379a000000000000000000000000000000000000000000000000000000000815260206004820152601b60248201527f6d73672e76616c7565206d757374206d6174636820616d6f756e740000000000604482015260640161074a565b60048054604080517fd0e30db0000000000000000000000000000000000000000000000000000000008152905173ffffffffffffffffffffffffffffffffffffffff9092169263d0e30db0923492808301926000929182900301818588803b15801561153f57600080fd5b505af1158015611553573d6000803e3d6000fd5b505050505061157f565b61157f73ffffffffffffffffffffffffffffffffffffffff8816333089612a5f565b600454604080518881526020810188905267ffffffffffffffff87168183015263ffffffff868116606083015273ffffffffffffffffffffffffffffffffffffffff8c8116608084015292513394938c16937c01000000000000000000000000000000000000000000000000000000009004909116917ffc53c5b967d467d4136291c639720626f3d6dda97b4364da813e6858ad48a721919081900360a00190a460016004601c8282829054906101000a900463ffffffff16611642919061471d565b92506101000a81548163ffffffff021916908363ffffffff1602179055506116a4600180547fffffffffffffffffffffff00ffffffffffffffffffffffffffffffffffffffff1674010000000000000000000000000000000000000000179055565b5050505050505050565b60025473ffffffffffffffffffffffffffffffffffffffff166116e660005473ffffffffffffffffffffffffffffffffffffffff1690565b73ffffffffffffffffffffffffffffffffffffffff163373ffffffffffffffffffffffffffffffffffffffff16146117a0576040517f08c379a000000000000000000000000000000000000000000000000000000000815260206004820152602e60248201527f4f564d5f58434841494e3a206d657373656e67657220636f6e7472616374207560448201527f6e61757468656e74696361746564000000000000000000000000000000000000606482015260840161074a565b8073ffffffffffffffffffffffffffffffffffffffff166117d660005473ffffffffffffffffffffffffffffffffffffffff1690565b73ffffffffffffffffffffffffffffffffffffffff16636e296e456040518163ffffffff1660e01b8152600401602060405180830381865afa158015611820573d6000803e3d6000fd5b505050506040513d601f19601f820116820180604052508101906118449190614693565b73ffffffffffffffffffffffffffffffffffffffff16146118e7576040517f08c379a000000000000000000000000000000000000000000000000000000000815260206004820152603060248201527f4f564d5f58434841494e3a2077726f6e672073656e646572206f662063726f7360448201527f732d646f6d61696e206d65737361676500000000000000000000000000000000606482015260840161074a565b6118ef6127cf565b61191c600180547fffffffffffffffffffffff00ffffffffffffffffffffffffffffffffffffffff169055565b6119268383612b3b565b61196a600180547fffffffffffffffffffffff00ffffffffffffffffffffffffffffffffffffffff1674010000000000000000000000000000000000000000179055565b505050565b6119776127cf565b6119a4600180547fffffffffffffffffffffff00ffffffffffffffffffffffffffffffffffffffff169055565b60006040518061010001604052808c73ffffffffffffffffffffffffffffffffffffffff1681526020018b73ffffffffffffffffffffffffffffffffffffffff1681526020018a73ffffffffffffffffffffffffffffffffffffffff1681526020018981526020018681526020018567ffffffffffffffff1681526020018467ffffffffffffffff1681526020018363ffffffff1681525090506000611a4982612be1565b90506000611a5b82848b886000612c11565b9050611a6a82828a8887612eb4565b505050611ab1600180547fffffffffffffffffffffff00ffffffffffffffffffffffffffffffffffffffff1674010000000000000000000000000000000000000000179055565b50505050505050505050565b60603415611b27576040517f08c379a000000000000000000000000000000000000000000000000000000000815260206004820152601b60248201527f4f6e6c79206d756c746963616c6c207769746820302076616c75650000000000604482015260640161074a565b8167ffffffffffffffff811115611b4057611b406141bb565b604051908082528060200260200182016040528015611b7357816020015b6060815260200190600190039081611b5e5790505b50905060005b82811015611c905760008030868685818110611b9757611b97614745565b9050602002810190611ba99190614774565b604051611bb79291906147d9565b600060405180830381855af49150503d8060008114611bf2576040519150601f19603f3d011682016040523d82523d6000602084013e611bf7565b606091505b509150915081611c5d57604481511015611c1057600080fd5b60048101905080806020019051810190611c2a91906147e9565b6040517f08c379a000000000000000000000000000000000000000000000000000000000815260040161074a9190614857565b80848481518110611c7057611c70614745565b602002602001018190525050508080611c889061486a565b915050611b79565b5092915050565b611c9f6127cf565b611ccc600180547fffffffffffffffffffffff00ffffffffffffffffffffffffffffffffffffffff169055565b46826020015114611d39576040517f08c379a000000000000000000000000000000000000000000000000000000000815260206004820152600f60248201527f496e76616c696420636861696e49640000000000000000000000000000000000604482015260640161074a565b8160400151518260a001515114611dac576040517f08c379a000000000000000000000000000000000000000000000000000000000815260206004820152600c60248201527f696e76616c6964206c6561660000000000000000000000000000000000000000604482015260640161074a565b600060068463ffffffff1681548110611dc757611dc7614745565b90600052602060002090600302019050611de681600101548484612fb9565b611e4c576040517f08c379a000000000000000000000000000000000000000000000000000000000815260206004820152600960248201527f4261642050726f6f660000000000000000000000000000000000000000000000604482015260640161074a565b611e6381600201846060015163ffffffff16612ff6565b15611eca576040517f08c379a000000000000000000000000000000000000000000000000000000000815260206004820152600f60248201527f416c726561647920636c61696d65640000000000000000000000000000000000604482015260640161074a565b611ee181600201846060015163ffffffff16613037565b60005b8360400151518163ffffffff161015611f8d57600084604001518263ffffffff1681518110611f1557611f15614745565b602002602001015190506000811115611f7a57611f7a8560a001518363ffffffff1681518110611f4757611f47614745565b602002602001015182876080015173ffffffffffffffffffffffffffffffffffffffff166130759092919063ffffffff16565b5080611f85816148a3565b915050611ee4565b5082511561202657611f9e836130cb565b826080015173ffffffffffffffffffffffffffffffffffffffff16836060015163ffffffff1684602001517f828fc203220356df8f072a91681caee7d5c75095e2a95e80ed5a14b384697f7186600001513360405161201d92919091825273ffffffffffffffffffffffffffffffffffffffff16602082015260400190565b60405180910390a45b3373ffffffffffffffffffffffffffffffffffffffff16836060015163ffffffff168563ffffffff167ff8bd640004bcec1b89657020f561d0b070cbdf662d0b158db9dccb0a8301bfab86600001518760200151886040015189608001518a60a0015160405161209a959493929190614948565b60405180910390a45061196a600180547fffffffffffffffffffffff00ffffffffffffffffffffffffffffffffffffffff1674010000000000000000000000000000000000000000179055565b60025473ffffffffffffffffffffffffffffffffffffffff1661211f60005473ffffffffffffffffffffffffffffffffffffffff1690565b73ffffffffffffffffffffffffffffffffffffffff163373ffffffffffffffffffffffffffffffffffffffff16146121d9576040517f08c379a000000000000000000000000000000000000000000000000000000000815260206004820152602e60248201527f4f564d5f58434841494e3a206d657373656e67657220636f6e7472616374207560448201527f6e61757468656e74696361746564000000000000000000000000000000000000606482015260840161074a565b8073ffffffffffffffffffffffffffffffffffffffff1661220f60005473ffffffffffffffffffffffffffffffffffffffff1690565b73ffffffffffffffffffffffffffffffffffffffff16636e296e456040518163ffffffff1660e01b8152600401602060405180830381865afa158015612259573d6000803e3d6000fd5b505050506040513d601f19601f8201168201806040525081019061227d9190614693565b73ffffffffffffffffffffffffffffffffffffffff1614612320576040517f08c379a000000000000000000000000000000000000000000000000000000000815260206004820152603060248201527f4f564d5f58434841494e3a2077726f6e672073656e646572206f662063726f7360448201527f732d646f6d61696e206d65737361676500000000000000000000000000000000606482015260840161074a565b6123286127cf565b612355600180547fffffffffffffffffffffff00ffffffffffffffffffffffffffffffffffffffff169055565b610b1e826132e2565b6006818154811061236e57600080fd5b60009182526020909120600390910201805460019091015490915082565b6123946127cf565b6123c1600180547fffffffffffffffffffffff00ffffffffffffffffffffffffffffffffffffffff169055565b60006040518061010001604052808c73ffffffffffffffffffffffffffffffffffffffff1681526020018b73ffffffffffffffffffffffffffffffffffffffff1681526020018a73ffffffffffffffffffffffffffffffffffffffff1681526020018981526020018881526020018767ffffffffffffffff1681526020018667ffffffffffffffff1681526020018563ffffffff16815250905061249060068463ffffffff168154811061247757612477614745565b90600052602060002090600302016000015482846133ce565b6124f6576040517f08c379a000000000000000000000000000000000000000000000000000000000815260206004820152600d60248201527f496e76616c69642070726f6f6600000000000000000000000000000000000000604482015260640161074a565b600061250182612be1565b90506000612517828485606001518a6001612c11565b9050611a6a8282856133e6565b61252c6127cf565b612559600180547fffffffffffffffffffffff00ffffffffffffffffffffffffffffffffffffffff169055565b60408051608060208201819052601160a08301527f4143524f53532d56322d4645452d312e3000000000000000000000000000000060c083015267ffffffffffffffff86169282019290925263ffffffff8416606082015290810187905260009060e00160405160208183030381529060405280519060200120905060006125e0826134df565b90506125ed8e828561351a565b612653576040517f08c379a000000000000000000000000000000000000000000000000000000000815260206004820152601160248201527f696e76616c6964207369676e6174757265000000000000000000000000000000604482015260640161074a565b505060006040518061010001604052808e73ffffffffffffffffffffffffffffffffffffffff1681526020018d73ffffffffffffffffffffffffffffffffffffffff1681526020018c73ffffffffffffffffffffffffffffffffffffffff1681526020018b81526020018881526020018767ffffffffffffffff1681526020018667ffffffffffffffff1681526020018463ffffffff16815250905060006126fa82612be1565b9050600061270c82848d896000612c11565b905061271b82828c8987612eb4565b505050612762600180547fffffffffffffffffffffff00ffffffffffffffffffffffffffffffffffffffff1674010000000000000000000000000000000000000000179055565b505050505050505050505050565b600880547fffffffffffffffffffffffffffffffffffffffffffffffffffffffff000000001663ffffffff83169081179091556040517fe486a5c4bd7b36eabbfe274c99b39130277417be8d2209b4dae04c4fba64ee3a90600090a250565b60015474010000000000000000000000000000000000000000900460ff16612853576040517f08c379a000000000000000000000000000000000000000000000000000000000815260206004820152601f60248201527f5265656e7472616e637947756172643a207265656e7472616e742063616c6c00604482015260640161074a565b565b73ffffffffffffffffffffffffffffffffffffffff81166128d2576040517f08c379a000000000000000000000000000000000000000000000000000000000815260206004820152601460248201527f4261642068756220706f6f6c2061646472657373000000000000000000000000604482015260640161074a565b600380547fffffffffffffffffffffffff00000000000000000000000000000000000000001673ffffffffffffffffffffffffffffffffffffffff83169081179091556040517f1f17a88f67b0f49060a34bec1a4723a563620e6aa265eb640b5046dcee0759a090600090a250565b73ffffffffffffffffffffffffffffffffffffffff8316600081815260056020908152604080832086845282529182902080547fffffffffffffffffffffffffffffffffffffffffffffffffffffffffffffff001685151590811790915591519182528492917f0a21fdd43d0ad0c62689ee7230a47309a050755bcc52eba00310add65297692a91015b60405180910390a3505050565b600480547fffffffff00000000ffffffffffffffffffffffffffffffffffffffffffffffff16780100000000000000000000000000000000000000000000000063ffffffff8416908102919091179091556040519081527f0e55dd180fa793d9036c804d0a116e6a7617a48e72cee1f83d92793a793fcc039060200160405180910390a150565b60405173ffffffffffffffffffffffffffffffffffffffff80851660248301528316604482015260648101829052610ec89085907f23b872dd00000000000000000000000000000000000000000000000000000000906084015b604080517fffffffffffffffffffffffffffffffffffffffffffffffffffffffffffffffe08184030181529190526020810180517bffffffffffffffffffffffffffffffffffffffffffffffffffffffff167fffffffff0000000000000000000000000000000000000000000000000000000090931692909217909152613709565b60068054600181018255600091909152600381027ff652222313e28459528d920b65115c16c04f3efc82aaedc97be59f3f377c0d4081018490557ff652222313e28459528d920b65115c16c04f3efc82aaedc97be59f3f377c0d3f01828155604080518581526020810185905263ffffffff8416917fc86ba04c55bc5eb2f2876b91c438849a296dbec7b08751c3074d92e04f0a77af910160405180910390a250505050565b600081604051602001612bf49190614995565b604051602081830303815290604052805190602001209050919050565b60006706f05b59d3b200008367ffffffffffffffff16108015612c4957506706f05b59d3b200008560a0015167ffffffffffffffff16105b612caf576040517f08c379a000000000000000000000000000000000000000000000000000000000815260206004820152600c60248201527f696e76616c696420666565730000000000000000000000000000000000000000604482015260640161074a565b606085015160008781526007602052604090205410612d2a576040517f08c379a000000000000000000000000000000000000000000000000000000000815260206004820152600c60248201527f72656c61792066696c6c65640000000000000000000000000000000000000000604482015260640161074a565b5060008315612eab57612d4c84848760a00151612d479190614a21565b613815565b600087815260076020526040902054606087015191925085918391612d7091614a44565b1015612db2576000878152600760205260409020546060870151612d949190614a44565b9150612daf82858860a00151612daa9190614a21565b61384f565b90505b60008781526007602052604081208054849290612dd0908490614a5b565b9091555050600454604087015173ffffffffffffffffffffffffffffffffffffffff90811691161415612e3c5782612e29576040860151612e299073ffffffffffffffffffffffffffffffffffffffff16333084612a5f565b612e37866020015182613878565b612ea9565b82612e7657612e3733876020015183896040015173ffffffffffffffffffffffffffffffffffffffff16612a5f909392919063ffffffff16565b612ea9866020015182886040015173ffffffffffffffffffffffffffffffffffffffff166130759092919063ffffffff16565b505b95945050505050565b3373ffffffffffffffffffffffffffffffffffffffff1683867f393f1765f382b5310a9186fa707a84040f8241b280a30b74112689a92a156f698460600151600760008b815260200190815260200160002054898760800151898960a001518a60e001518b604001518c600001518d60200151604051612faa9a99989796959493929190998a5260208a01989098526040890196909652606088019490945267ffffffffffffffff9283166080880152911660a086015263ffffffff1660c085015273ffffffffffffffffffffffffffffffffffffffff90811660e0850152908116610100840152166101208201526101400190565b60405180910390a45050505050565b6000612fec828585604051602001612fd19190614a73565b6040516020818303038152906040528051906020012061397e565b90505b9392505050565b60008061300561010084614b3d565b9050600061301561010085614b51565b6000928352602095909552506040902054600190931b92831690921492915050565b600061304561010083614b3d565b9050600061305561010084614b51565b600092835260209490945250604090208054600190931b90921790915550565b60405173ffffffffffffffffffffffffffffffffffffffff831660248201526044810182905261196a9084907fa9059cbb0000000000000000000000000000000000000000000000000000000090606401612ab9565b600454608082015173ffffffffffffffffffffffffffffffffffffffff908116911614156131a857608081015181516040517f2e1a7d4d00000000000000000000000000000000000000000000000000000000815273ffffffffffffffffffffffffffffffffffffffff90921691632e1a7d4d9161314f9160040190815260200190565b600060405180830381600087803b15801561316957600080fd5b505af115801561317d573d6000803e3d6000fd5b5050600854640100000000900473ffffffffffffffffffffffffffffffffffffffff16608084015250505b608081015160035482516008546040517fa3a7954800000000000000000000000000000000000000000000000000000000815273ffffffffffffffffffffffffffffffffffffffff9485166004820152939092166024840152604483015263ffffffff16606482015260a06084820152600060a48201527342000000000000000000000000000000000000109063a3a795489060c401600060405180830381600087803b15801561325857600080fd5b505af115801561326c573d6000803e3d6000fd5b50505050608081015160035482516008546040805173ffffffffffffffffffffffffffffffffffffffff9485168152602081019390935263ffffffff909116908201529116907f46b77e3c29797b94890fd3438da74f697480742358a3e26b9d13a227f1ac0ac99060600160405180910390a250565b73ffffffffffffffffffffffffffffffffffffffff811661335f576040517f08c379a000000000000000000000000000000000000000000000000000000000815260206004820152601960248201527f4261642062726964676520726f75746572206164647265737300000000000000604482015260640161074a565b600280547fffffffffffffffffffffffff00000000000000000000000000000000000000001673ffffffffffffffffffffffffffffffffffffffff83169081179091556040517fa9e8c42c9e7fca7f62755189a16b2f5314d43d8fb24e91ba54e6d65f9314e84990600090a250565b6000612fec828585604051602001612fd19190614995565b3373ffffffffffffffffffffffffffffffffffffffff16837fc1c02fe71abee2530563583daac3d7b681ef4c00db95adc3847b886da8098bc1836060015160076000888152602001908152602001600020548686608001518760c001518860a001518960e001518a604001518b600001518c602001516040516129cb9a99989796959493929190998a5260208a01989098526040890196909652606088019490945267ffffffffffffffff9283166080880152911660a086015263ffffffff1660c085015273ffffffffffffffffffffffffffffffffffffffff90811660e0850152908116610100840152166101208201526101400190565b6040517f19457468657265756d205369676e6564204d6573736167653a0a3332000000006020820152603c8101829052600090605c01612bf4565b60008060006135298585613994565b9092509050600081600481111561354257613542614b65565b14801561357a57508573ffffffffffffffffffffffffffffffffffffffff168273ffffffffffffffffffffffffffffffffffffffff16145b1561358a57600192505050612fef565b6000808773ffffffffffffffffffffffffffffffffffffffff16631626ba7e60e01b88886040516024016135bf929190614b94565b604080517fffffffffffffffffffffffffffffffffffffffffffffffffffffffffffffffe08184030181529181526020820180517bffffffffffffffffffffffffffffffffffffffffffffffffffffffff167fffffffff000000000000000000000000000000000000000000000000000000009094169390931790925290516136489190614bad565b600060405180830381855afa9150503d8060008114613683576040519150601f19603f3d011682016040523d82523d6000602084013e613688565b606091505b509150915081801561369b575080516020145b80156136fd575080517f1626ba7e00000000000000000000000000000000000000000000000000000000906136d99083016020908101908401614bc9565b7fffffffff0000000000000000000000000000000000000000000000000000000016145b98975050505050505050565b600061376b826040518060400160405280602081526020017f5361666545524332303a206c6f772d6c6576656c2063616c6c206661696c65648152508573ffffffffffffffffffffffffffffffffffffffff16613a049092919063ffffffff16565b80519091501561196a57808060200190518101906137899190614c0b565b61196a576040517f08c379a000000000000000000000000000000000000000000000000000000000815260206004820152602a60248201527f5361666545524332303a204552433230206f7065726174696f6e20646964206e60448201527f6f74207375636365656400000000000000000000000000000000000000000000606482015260840161074a565b600061382982670de0b6b3a7640000614c28565b67ffffffffffffffff1661384584670de0b6b3a7640000614c49565b612fef9190614b3d565b6000670de0b6b3a76400006138648382614c28565b6138459067ffffffffffffffff1685614c49565b73ffffffffffffffffffffffffffffffffffffffff82163b156138b9576004546108a39073ffffffffffffffffffffffffffffffffffffffff168383613075565b600480546040517f2e1a7d4d00000000000000000000000000000000000000000000000000000000815291820183905273ffffffffffffffffffffffffffffffffffffffff1690632e1a7d4d90602401600060405180830381600087803b15801561392357600080fd5b505af1158015613937573d6000803e3d6000fd5b505060405173ffffffffffffffffffffffffffffffffffffffff8516925083156108fc02915083906000818181858888f1935050505015801561196a573d6000803e3d6000fd5b60008261398b8584613a13565b14949350505050565b6000808251604114156139cb5760208301516040840151606085015160001a6139bf87828585613abf565b945094505050506139fd565b8251604014156139f557602083015160408401516139ea868383613bd7565b9350935050506139fd565b506000905060025b9250929050565b6060612fec8484600085613c1f565b600081815b8451811015613ab7576000858281518110613a3557613a35614745565b60200260200101519050808311613a77576040805160208101859052908101829052606001604051602081830303815290604052805190602001209250613aa4565b60408051602081018390529081018490526060016040516020818303038152906040528051906020012092505b5080613aaf8161486a565b915050613a18565b509392505050565b6000807f7fffffffffffffffffffffffffffffff5d576e7357a4501ddfe92f46681b20a0831115613af65750600090506003613bce565b8460ff16601b14158015613b0e57508460ff16601c14155b15613b1f5750600090506004613bce565b6040805160008082526020820180845289905260ff881692820192909252606081018690526080810185905260019060a0016020604051602081039080840390855afa158015613b73573d6000803e3d6000fd5b50506040517fffffffffffffffffffffffffffffffffffffffffffffffffffffffffffffffe0015191505073ffffffffffffffffffffffffffffffffffffffff8116613bc757600060019250925050613bce565b9150600090505b94509492505050565b6000807f7fffffffffffffffffffffffffffffffffffffffffffffffffffffffffffffff831660ff84901c601b01613c1187828885613abf565b935093505050935093915050565b606082471015613cb1576040517f08c379a000000000000000000000000000000000000000000000000000000000815260206004820152602660248201527f416464726573733a20696e73756666696369656e742062616c616e636520666f60448201527f722063616c6c0000000000000000000000000000000000000000000000000000606482015260840161074a565b843b613d19576040517f08c379a000000000000000000000000000000000000000000000000000000000815260206004820152601d60248201527f416464726573733a2063616c6c20746f206e6f6e2d636f6e7472616374000000604482015260640161074a565b6000808673ffffffffffffffffffffffffffffffffffffffff168587604051613d429190614bad565b60006040518083038185875af1925050503d8060008114613d7f576040519150601f19603f3d011682016040523d82523d6000602084013e613d84565b606091505b5091509150613d94828286613d9f565b979650505050505050565b60608315613dae575081612fef565b825115613dbe5782518084602001fd5b816040517f08c379a000000000000000000000000000000000000000000000000000000000815260040161074a9190614857565b803563ffffffff81168114613e0657600080fd5b919050565b600060208284031215613e1d57600080fd5b612fef82613df2565b73ffffffffffffffffffffffffffffffffffffffff81168114613e4857600080fd5b50565b8035613e0681613e26565b600060208284031215613e6857600080fd5b8135612fef81613e26565b600060208284031215613e8557600080fd5b5035919050565b8015158114613e4857600080fd5b600080600060608486031215613eaf57600080fd5b8335613eba81613e26565b9250602084013591506040840135613ed181613e8c565b809150509250925092565b803567ffffffffffffffff81168114613e0657600080fd5b60008060008060008060c08789031215613f0d57600080fd5b8635613f1881613e26565b95506020870135613f2881613e26565b94506040870135935060608701359250613f4460808801613edc565b9150613f5260a08801613df2565b90509295509295509295565b60008060408385031215613f7157600080fd5b50508035926020909101359150565b60008060408385031215613f9357600080fd5b8235613f9e81613e26565b946020939093013593505050565b6000806000806000806000806000806101408b8d031215613fcc57600080fd5b8a35613fd781613e26565b995060208b0135613fe781613e26565b985060408b0135613ff781613e26565b975060608b0135965060808b0135955060a08b0135945060c08b0135935061402160e08c01613edc565b92506140306101008c01613edc565b915061403f6101208c01613df2565b90509295989b9194979a5092959850565b6000806020838503121561406357600080fd5b823567ffffffffffffffff8082111561407b57600080fd5b818501915085601f83011261408f57600080fd5b81358181111561409e57600080fd5b8660208260051b85010111156140b357600080fd5b60209290920196919550909350505050565b60005b838110156140e05781810151838201526020016140c8565b83811115610ec85750506000910152565b600081518084526141098160208601602086016140c5565b601f017fffffffffffffffffffffffffffffffffffffffffffffffffffffffffffffffe0169290920160200192915050565b6000602080830181845280855180835260408601915060408160051b870101925083870160005b828110156141ae577fffffffffffffffffffffffffffffffffffffffffffffffffffffffffffffffc088860301845261419c8583516140f1565b94509285019290850190600101614162565b5092979650505050505050565b7f4e487b7100000000000000000000000000000000000000000000000000000000600052604160045260246000fd5b60405160c0810167ffffffffffffffff8111828210171561420d5761420d6141bb565b60405290565b604051601f82017fffffffffffffffffffffffffffffffffffffffffffffffffffffffffffffffe016810167ffffffffffffffff8111828210171561425a5761425a6141bb565b604052919050565b600067ffffffffffffffff82111561427c5761427c6141bb565b5060051b60200190565b600082601f83011261429757600080fd5b813560206142ac6142a783614262565b614213565b82815260059290921b840181019181810190868411156142cb57600080fd5b8286015b848110156142e657803583529183019183016142cf565b509695505050505050565b600082601f83011261430257600080fd5b813560206143126142a783614262565b82815260059290921b8401810191818101908684111561433157600080fd5b8286015b848110156142e657803561434881613e26565b8352918301918301614335565b60008060006060848603121561436a57600080fd5b61437384613df2565b9250602084013567ffffffffffffffff8082111561439057600080fd5b9085019060c082880312156143a457600080fd5b6143ac6141ea565b82358152602083013560208201526040830135828111156143cc57600080fd5b6143d889828601614286565b6040830152506143ea60608401613df2565b60608201526143fb60808401613e4b565b608082015260a08301358281111561441257600080fd5b61441e898286016142f1565b60a0830152509350604086013591508082111561443a57600080fd5b5061444786828701614286565b9150509250925092565b6000806000806000806000806000806101408b8d03121561447157600080fd5b8a3561447c81613e26565b995060208b013561448c81613e26565b985060408b013561449c81613e26565b975060608b0135965060808b013595506144b860a08c01613edc565b94506144c660c08c01613edc565b93506144d460e08c01613df2565b92506144e36101008c01613df2565b91506101208b013567ffffffffffffffff81111561450057600080fd5b61450c8d828e01614286565b9150509295989b9194979a5092959850565b600067ffffffffffffffff821115614538576145386141bb565b50601f017fffffffffffffffffffffffffffffffffffffffffffffffffffffffffffffffe01660200190565b600082601f83011261457557600080fd5b81356145836142a78261451e565b81815284602083860101111561459857600080fd5b816020850160208301376000918101602001919091529392505050565b6000806000806000806000806000806000806101808d8f0312156145d857600080fd5b6145e18d613e4b565b9b506145ef60208e01613e4b565b9a506145fd60408e01613e4b565b995060608d0135985060808d0135975060a08d0135965060c08d0135955061462760e08e01613edc565b94506146366101008e01613edc565b93506146456101208e01613edc565b92506146546101408e01613df2565b915067ffffffffffffffff6101608e0135111561467057600080fd5b6146818e6101608f01358f01614564565b90509295989b509295989b509295989b565b6000602082840312156146a557600080fd5b8151612fef81613e26565b6000602082840312156146c257600080fd5b5051919050565b7f4e487b7100000000000000000000000000000000000000000000000000000000600052601160045260246000fd5b600063ffffffff83811690831681811015614715576147156146c9565b039392505050565b600063ffffffff80831681851680830382111561473c5761473c6146c9565b01949350505050565b7f4e487b7100000000000000000000000000000000000000000000000000000000600052603260045260246000fd5b60008083357fffffffffffffffffffffffffffffffffffffffffffffffffffffffffffffffe18436030181126147a957600080fd5b83018035915067ffffffffffffffff8211156147c457600080fd5b6020019150368190038213156139fd57600080fd5b8183823760009101908152919050565b6000602082840312156147fb57600080fd5b815167ffffffffffffffff81111561481257600080fd5b8201601f8101841361482357600080fd5b80516148316142a78261451e565b81815285602083850101111561484657600080fd5b612eab8260208301602086016140c5565b602081526000612fef60208301846140f1565b60007fffffffffffffffffffffffffffffffffffffffffffffffffffffffffffffffff82141561489c5761489c6146c9565b5060010190565b600063ffffffff808316818114156148bd576148bd6146c9565b6001019392505050565b600081518084526020808501945080840160005b838110156148f7578151875295820195908201906001016148db565b509495945050505050565b600081518084526020808501945080840160005b838110156148f757815173ffffffffffffffffffffffffffffffffffffffff1687529582019590820190600101614916565b85815284602082015260a06040820152600061496760a08301866148c7565b73ffffffffffffffffffffffffffffffffffffffff8516606084015282810360808401526136fd8185614902565b60006101008201905073ffffffffffffffffffffffffffffffffffffffff80845116835280602085015116602084015280604085015116604084015250606083015160608301526080830151608083015260a083015167ffffffffffffffff80821660a08501528060c08601511660c0850152505060e0830151611c9060e084018263ffffffff169052565b600067ffffffffffffffff80831681851680830382111561473c5761473c6146c9565b600082821015614a5657614a566146c9565b500390565b60008219821115614a6e57614a6e6146c9565b500190565b6020815281516020820152602082015160408201526000604083015160c06060840152614aa360e08401826148c7565b905063ffffffff606085015116608084015273ffffffffffffffffffffffffffffffffffffffff60808501511660a084015260a08401517fffffffffffffffffffffffffffffffffffffffffffffffffffffffffffffffe08483030160c0850152612eab8282614902565b7f4e487b7100000000000000000000000000000000000000000000000000000000600052601260045260246000fd5b600082614b4c57614b4c614b0e565b500490565b600082614b6057614b60614b0e565b500690565b7f4e487b7100000000000000000000000000000000000000000000000000000000600052602160045260246000fd5b828152604060208201526000612fec60408301846140f1565b60008251614bbf8184602087016140c5565b9190910192915050565b600060208284031215614bdb57600080fd5b81517fffffffff0000000000000000000000000000000000000000000000000000000081168114612fef57600080fd5b600060208284031215614c1d57600080fd5b8151612fef81613e8c565b600067ffffffffffffffff83811690831681811015614715576147156146c9565b6000817fffffffffffffffffffffffffffffffffffffffffffffffffffffffffffffffff0483118215151615614c8157614c816146c9565b50029056fea2646970667358221220320413fd84709b8487deb7cef0800a0852db667547fa67161dcf61c81cee1a3364736f6c634300080b0033",
  "devdoc": {
    "details": "Uses OVM cross-domain-enabled logic for access control.",
    "kind": "dev",
    "methods": {
      "deposit(address,address,uint256,uint256,uint64,uint32)": {
        "details": "The caller must first approve this contract to spend `amount` of `originToken`."
      },
      "getCurrentTime()": {
        "returns": {
          "_0": "uint for the current Testable timestamp."
        }
      },
      "setCurrentTime(uint256)": {
        "details": "Will revert if not running in test mode.",
        "params": {
          "time": "timestamp to set current Testable time to."
        }
      }
    },
    "version": 1
  },
  "userdoc": {
    "kind": "user",
    "methods": {
      "deposit(address,address,uint256,uint256,uint64,uint32)": {
        "notice": "Called by user to bridge funds from origin to destination chain."
      },
      "getCurrentTime()": {
        "notice": "Gets the current time. Will return the last time set in `setCurrentTime` if running in test mode. Otherwise, it will return the block timestamp."
      },
      "setCurrentTime(uint256)": {
        "notice": "Sets the current time."
      }
    },
    "notice": "OVM specific SpokePool.",
    "version": 1
  },
  "storageLayout": {
    "storage": [
      {
        "astId": 241,
        "contract": "contracts/Optimism_SpokePool.sol:Optimism_SpokePool",
        "label": "messenger",
        "offset": 0,
        "slot": "0",
        "type": "t_address"
      },
      {
        "astId": 5882,
        "contract": "contracts/Optimism_SpokePool.sol:Optimism_SpokePool",
        "label": "timerAddress",
        "offset": 0,
        "slot": "1",
        "type": "t_address"
      },
      {
        "astId": 5108,
        "contract": "contracts/Optimism_SpokePool.sol:Optimism_SpokePool",
        "label": "_notEntered",
        "offset": 20,
        "slot": "1",
        "type": "t_bool"
      },
      {
        "astId": 7788,
        "contract": "contracts/Optimism_SpokePool.sol:Optimism_SpokePool",
        "label": "crossDomainAdmin",
        "offset": 0,
        "slot": "2",
        "type": "t_address"
      },
      {
        "astId": 7790,
        "contract": "contracts/Optimism_SpokePool.sol:Optimism_SpokePool",
        "label": "hubPool",
        "offset": 0,
        "slot": "3",
        "type": "t_address"
      },
      {
        "astId": 7793,
        "contract": "contracts/Optimism_SpokePool.sol:Optimism_SpokePool",
        "label": "weth",
        "offset": 0,
        "slot": "4",
        "type": "t_contract(WETH9)9815"
      },
      {
        "astId": 7795,
        "contract": "contracts/Optimism_SpokePool.sol:Optimism_SpokePool",
        "label": "deploymentTime",
        "offset": 20,
        "slot": "4",
        "type": "t_uint32"
      },
      {
        "astId": 7798,
        "contract": "contracts/Optimism_SpokePool.sol:Optimism_SpokePool",
        "label": "depositQuoteTimeBuffer",
        "offset": 24,
        "slot": "4",
        "type": "t_uint32"
      },
      {
        "astId": 7800,
        "contract": "contracts/Optimism_SpokePool.sol:Optimism_SpokePool",
        "label": "numberOfDeposits",
        "offset": 28,
        "slot": "4",
        "type": "t_uint32"
      },
      {
        "astId": 7806,
        "contract": "contracts/Optimism_SpokePool.sol:Optimism_SpokePool",
        "label": "enabledDepositRoutes",
        "offset": 0,
        "slot": "5",
        "type": "t_mapping(t_address,t_mapping(t_uint256,t_bool))"
      },
      {
        "astId": 7819,
        "contract": "contracts/Optimism_SpokePool.sol:Optimism_SpokePool",
        "label": "rootBundles",
        "offset": 0,
        "slot": "6",
        "type": "t_array(t_struct(RootBundle)7815_storage)dyn_storage"
      },
      {
        "astId": 7823,
        "contract": "contracts/Optimism_SpokePool.sol:Optimism_SpokePool",
        "label": "relayFills",
        "offset": 0,
        "slot": "7",
        "type": "t_mapping(t_bytes32,t_uint256)"
      },
      {
        "astId": 7543,
        "contract": "contracts/Optimism_SpokePool.sol:Optimism_SpokePool",
        "label": "l1Gas",
        "offset": 0,
        "slot": "8",
        "type": "t_uint32"
      },
      {
        "astId": 7550,
        "contract": "contracts/Optimism_SpokePool.sol:Optimism_SpokePool",
        "label": "l2Eth",
        "offset": 4,
        "slot": "8",
        "type": "t_address"
      }
    ],
    "types": {
      "t_address": {
        "encoding": "inplace",
        "label": "address",
        "numberOfBytes": "20"
      },
      "t_array(t_struct(RootBundle)7815_storage)dyn_storage": {
        "base": "t_struct(RootBundle)7815_storage",
        "encoding": "dynamic_array",
        "label": "struct SpokePool.RootBundle[]",
        "numberOfBytes": "32"
      },
      "t_bool": {
        "encoding": "inplace",
        "label": "bool",
        "numberOfBytes": "1"
      },
      "t_bytes32": {
        "encoding": "inplace",
        "label": "bytes32",
        "numberOfBytes": "32"
      },
      "t_contract(WETH9)9815": {
        "encoding": "inplace",
        "label": "contract WETH9",
        "numberOfBytes": "20"
      },
      "t_mapping(t_address,t_mapping(t_uint256,t_bool))": {
        "encoding": "mapping",
        "key": "t_address",
        "label": "mapping(address => mapping(uint256 => bool))",
        "numberOfBytes": "32",
        "value": "t_mapping(t_uint256,t_bool)"
      },
      "t_mapping(t_bytes32,t_uint256)": {
        "encoding": "mapping",
        "key": "t_bytes32",
        "label": "mapping(bytes32 => uint256)",
        "numberOfBytes": "32",
        "value": "t_uint256"
      },
      "t_mapping(t_uint256,t_bool)": {
        "encoding": "mapping",
        "key": "t_uint256",
        "label": "mapping(uint256 => bool)",
        "numberOfBytes": "32",
        "value": "t_bool"
      },
      "t_mapping(t_uint256,t_uint256)": {
        "encoding": "mapping",
        "key": "t_uint256",
        "label": "mapping(uint256 => uint256)",
        "numberOfBytes": "32",
        "value": "t_uint256"
      },
      "t_struct(RootBundle)7815_storage": {
        "encoding": "inplace",
        "label": "struct SpokePool.RootBundle",
        "members": [
          {
            "astId": 7808,
            "contract": "contracts/Optimism_SpokePool.sol:Optimism_SpokePool",
            "label": "slowRelayFulfillmentRoot",
            "offset": 0,
            "slot": "0",
            "type": "t_bytes32"
          },
          {
            "astId": 7810,
            "contract": "contracts/Optimism_SpokePool.sol:Optimism_SpokePool",
            "label": "relayerRefundRoot",
            "offset": 0,
            "slot": "1",
            "type": "t_bytes32"
          },
          {
            "astId": 7814,
            "contract": "contracts/Optimism_SpokePool.sol:Optimism_SpokePool",
            "label": "claimedBitmap",
            "offset": 0,
            "slot": "2",
            "type": "t_mapping(t_uint256,t_uint256)"
          }
        ],
        "numberOfBytes": "96"
      },
      "t_uint256": {
        "encoding": "inplace",
        "label": "uint256",
        "numberOfBytes": "32"
      },
      "t_uint32": {
        "encoding": "inplace",
        "label": "uint32",
        "numberOfBytes": "4"
      }
    }
  }
}