{
  "address": "0x1020Ae36548ab28Bc0c41Fd2a08D24132C82cc55",
  "abi": [
    {
      "inputs": [
        {
          "internalType": "address",
          "name": "_wrappedNativeTokenAddress",
          "type": "address"
        },
        {
          "internalType": "uint32",
          "name": "_depositQuoteTimeBuffer",
          "type": "uint32"
        },
        {
          "internalType": "uint32",
          "name": "_fillDeadlineBuffer",
          "type": "uint32"
        },
        {
          "internalType": "contract IERC20",
          "name": "_l2Usdc",
          "type": "address"
        },
        {
          "internalType": "contract ITokenMessenger",
          "name": "_cctpTokenMessenger",
          "type": "address"
        }
      ],
      "stateMutability": "nonpayable",
      "type": "constructor"
    },
    {
      "inputs": [],
      "name": "ClaimedMerkleLeaf",
      "type": "error"
    },
    {
      "inputs": [],
      "name": "DisabledRoute",
      "type": "error"
    },
    {
      "inputs": [],
      "name": "ExpiredFillDeadline",
      "type": "error"
    },
    {
      "inputs": [],
      "name": "InvalidChainId",
      "type": "error"
    },
    {
      "inputs": [],
      "name": "InvalidFillDeadline",
      "type": "error"
    },
    {
      "inputs": [],
      "name": "InvalidMerkleLeaf",
      "type": "error"
    },
    {
      "inputs": [],
      "name": "InvalidMerkleProof",
      "type": "error"
    },
    {
      "inputs": [],
      "name": "InvalidPayoutAdjustmentPct",
      "type": "error"
    },
    {
      "inputs": [],
      "name": "InvalidQuoteTimestamp",
      "type": "error"
    },
    {
      "inputs": [],
      "name": "InvalidSlowFillRequest",
      "type": "error"
    },
    {
      "inputs": [],
      "name": "MsgValueDoesNotMatchInputAmount",
      "type": "error"
    },
    {
      "inputs": [],
      "name": "NotCrossChainCall",
      "type": "error"
    },
    {
      "inputs": [],
      "name": "NotEOA",
      "type": "error"
    },
    {
      "inputs": [],
      "name": "NotExclusiveRelayer",
      "type": "error"
    },
    {
      "inputs": [],
      "name": "RelayFilled",
      "type": "error"
    },
    {
      "anonymous": false,
      "inputs": [
        {
          "indexed": false,
          "internalType": "address",
          "name": "previousAdmin",
          "type": "address"
        },
        {
          "indexed": false,
          "internalType": "address",
          "name": "newAdmin",
          "type": "address"
        }
      ],
      "name": "AdminChanged",
      "type": "event"
    },
    {
      "anonymous": false,
      "inputs": [
        {
          "indexed": true,
          "internalType": "address",
          "name": "beacon",
          "type": "address"
        }
      ],
      "name": "BeaconUpgraded",
      "type": "event"
    },
    {
      "anonymous": false,
      "inputs": [
        {
          "indexed": true,
          "internalType": "uint256",
          "name": "rootBundleId",
          "type": "uint256"
        }
      ],
      "name": "EmergencyDeleteRootBundle",
      "type": "event"
    },
    {
      "anonymous": false,
      "inputs": [
        {
          "indexed": true,
          "internalType": "address",
          "name": "originToken",
          "type": "address"
        },
        {
          "indexed": true,
          "internalType": "uint256",
          "name": "destinationChainId",
          "type": "uint256"
        },
        {
          "indexed": false,
          "internalType": "bool",
          "name": "enabled",
          "type": "bool"
        }
      ],
      "name": "EnabledDepositRoute",
      "type": "event"
    },
    {
      "anonymous": false,
      "inputs": [
        {
          "indexed": false,
          "internalType": "uint256",
          "name": "amountToReturn",
          "type": "uint256"
        },
        {
          "indexed": true,
          "internalType": "uint256",
          "name": "chainId",
          "type": "uint256"
        },
        {
          "indexed": false,
          "internalType": "uint256[]",
          "name": "refundAmounts",
          "type": "uint256[]"
        },
        {
          "indexed": true,
          "internalType": "uint32",
          "name": "rootBundleId",
          "type": "uint32"
        },
        {
          "indexed": true,
          "internalType": "uint32",
          "name": "leafId",
          "type": "uint32"
        },
        {
          "indexed": false,
          "internalType": "address",
          "name": "l2TokenAddress",
          "type": "address"
        },
        {
          "indexed": false,
          "internalType": "address[]",
          "name": "refundAddresses",
          "type": "address[]"
        },
        {
          "indexed": false,
          "internalType": "address",
          "name": "caller",
          "type": "address"
        }
      ],
      "name": "ExecutedRelayerRefundRoot",
      "type": "event"
    },
    {
      "anonymous": false,
      "inputs": [
        {
          "indexed": false,
          "internalType": "uint256",
          "name": "amountToReturn",
          "type": "uint256"
        },
        {
          "indexed": true,
          "internalType": "uint256",
          "name": "chainId",
          "type": "uint256"
        },
        {
          "indexed": false,
          "internalType": "uint256[]",
          "name": "refundAmounts",
          "type": "uint256[]"
        },
        {
          "indexed": true,
          "internalType": "uint32",
          "name": "rootBundleId",
          "type": "uint32"
        },
        {
          "indexed": true,
          "internalType": "uint32",
          "name": "leafId",
          "type": "uint32"
        },
        {
          "indexed": false,
          "internalType": "address",
          "name": "l2TokenAddress",
          "type": "address"
        },
        {
          "indexed": false,
          "internalType": "address[]",
          "name": "refundAddresses",
          "type": "address[]"
        },
        {
          "indexed": false,
          "internalType": "bytes32",
          "name": "fillsRefundedRoot",
          "type": "bytes32"
        },
        {
          "indexed": false,
          "internalType": "string",
          "name": "fillsRefundedIpfsHash",
          "type": "string"
        }
      ],
      "name": "ExecutedV3RelayerRefundRoot",
      "type": "event"
    },
    {
      "anonymous": false,
      "inputs": [
        {
          "indexed": false,
          "internalType": "uint256",
          "name": "amount",
          "type": "uint256"
        },
        {
          "indexed": false,
          "internalType": "uint256",
          "name": "totalFilledAmount",
          "type": "uint256"
        },
        {
          "indexed": false,
          "internalType": "uint256",
          "name": "fillAmount",
          "type": "uint256"
        },
        {
          "indexed": false,
          "internalType": "uint256",
          "name": "repaymentChainId",
          "type": "uint256"
        },
        {
          "indexed": true,
          "internalType": "uint256",
          "name": "originChainId",
          "type": "uint256"
        },
        {
          "indexed": false,
          "internalType": "uint256",
          "name": "destinationChainId",
          "type": "uint256"
        },
        {
          "indexed": false,
          "internalType": "int64",
          "name": "relayerFeePct",
          "type": "int64"
        },
        {
          "indexed": false,
          "internalType": "int64",
          "name": "realizedLpFeePct",
          "type": "int64"
        },
        {
          "indexed": true,
          "internalType": "uint32",
          "name": "depositId",
          "type": "uint32"
        },
        {
          "indexed": false,
          "internalType": "address",
          "name": "destinationToken",
          "type": "address"
        },
        {
          "indexed": false,
          "internalType": "address",
          "name": "relayer",
          "type": "address"
        },
        {
          "indexed": true,
          "internalType": "address",
          "name": "depositor",
          "type": "address"
        },
        {
          "indexed": false,
          "internalType": "address",
          "name": "recipient",
          "type": "address"
        },
        {
          "indexed": false,
          "internalType": "bytes",
          "name": "message",
          "type": "bytes"
        },
        {
          "components": [
            {
              "internalType": "address",
              "name": "recipient",
              "type": "address"
            },
            {
              "internalType": "bytes",
              "name": "message",
              "type": "bytes"
            },
            {
              "internalType": "int64",
              "name": "relayerFeePct",
              "type": "int64"
            },
            {
              "internalType": "bool",
              "name": "isSlowRelay",
              "type": "bool"
            },
            {
              "internalType": "int256",
              "name": "payoutAdjustmentPct",
              "type": "int256"
            }
          ],
          "indexed": false,
          "internalType": "struct SpokePool.RelayExecutionInfo",
          "name": "updatableRelayData",
          "type": "tuple"
        }
      ],
      "name": "FilledRelay",
      "type": "event"
    },
    {
      "anonymous": false,
      "inputs": [
        {
          "indexed": false,
          "internalType": "address",
          "name": "inputToken",
          "type": "address"
        },
        {
          "indexed": false,
          "internalType": "address",
          "name": "outputToken",
          "type": "address"
        },
        {
          "indexed": false,
          "internalType": "uint256",
          "name": "inputAmount",
          "type": "uint256"
        },
        {
          "indexed": false,
          "internalType": "uint256",
          "name": "outputAmount",
          "type": "uint256"
        },
        {
          "indexed": false,
          "internalType": "uint256",
          "name": "repaymentChainId",
          "type": "uint256"
        },
        {
          "indexed": true,
          "internalType": "uint256",
          "name": "originChainId",
          "type": "uint256"
        },
        {
          "indexed": true,
          "internalType": "uint32",
          "name": "depositId",
          "type": "uint32"
        },
        {
          "indexed": false,
          "internalType": "uint32",
          "name": "fillDeadline",
          "type": "uint32"
        },
        {
          "indexed": false,
          "internalType": "uint32",
          "name": "exclusivityDeadline",
          "type": "uint32"
        },
        {
          "indexed": false,
          "internalType": "address",
          "name": "exclusiveRelayer",
          "type": "address"
        },
        {
          "indexed": true,
          "internalType": "address",
          "name": "relayer",
          "type": "address"
        },
        {
          "indexed": false,
          "internalType": "address",
          "name": "depositor",
          "type": "address"
        },
        {
          "indexed": false,
          "internalType": "address",
          "name": "recipient",
          "type": "address"
        },
        {
          "indexed": false,
          "internalType": "bytes",
          "name": "message",
          "type": "bytes"
        },
        {
          "components": [
            {
              "internalType": "address",
              "name": "updatedRecipient",
              "type": "address"
            },
            {
              "internalType": "bytes",
              "name": "updatedMessage",
              "type": "bytes"
            },
            {
              "internalType": "uint256",
              "name": "updatedOutputAmount",
              "type": "uint256"
            },
            {
              "internalType": "enum V3SpokePoolInterface.FillType",
              "name": "fillType",
              "type": "uint8"
            }
          ],
          "indexed": false,
          "internalType": "struct V3SpokePoolInterface.V3RelayExecutionEventInfo",
          "name": "relayExecutionInfo",
          "type": "tuple"
        }
      ],
      "name": "FilledV3Relay",
      "type": "event"
    },
    {
      "anonymous": false,
      "inputs": [
        {
          "indexed": false,
          "internalType": "uint256",
          "name": "amount",
          "type": "uint256"
        },
        {
          "indexed": false,
          "internalType": "uint256",
          "name": "originChainId",
          "type": "uint256"
        },
        {
          "indexed": true,
          "internalType": "uint256",
          "name": "destinationChainId",
          "type": "uint256"
        },
        {
          "indexed": false,
          "internalType": "int64",
          "name": "relayerFeePct",
          "type": "int64"
        },
        {
          "indexed": true,
          "internalType": "uint32",
          "name": "depositId",
          "type": "uint32"
        },
        {
          "indexed": false,
          "internalType": "uint32",
          "name": "quoteTimestamp",
          "type": "uint32"
        },
        {
          "indexed": false,
          "internalType": "address",
          "name": "originToken",
          "type": "address"
        },
        {
          "indexed": false,
          "internalType": "address",
          "name": "recipient",
          "type": "address"
        },
        {
          "indexed": true,
          "internalType": "address",
          "name": "depositor",
          "type": "address"
        },
        {
          "indexed": false,
          "internalType": "bytes",
          "name": "message",
          "type": "bytes"
        }
      ],
      "name": "FundsDeposited",
      "type": "event"
    },
    {
      "anonymous": false,
      "inputs": [
        {
          "indexed": false,
          "internalType": "uint8",
          "name": "version",
          "type": "uint8"
        }
      ],
      "name": "Initialized",
      "type": "event"
    },
    {
      "anonymous": false,
      "inputs": [
        {
          "indexed": true,
          "internalType": "address",
          "name": "l2Token",
          "type": "address"
        },
        {
          "indexed": false,
          "internalType": "address",
          "name": "target",
          "type": "address"
        },
        {
          "indexed": false,
          "internalType": "uint256",
          "name": "numberOfTokensBridged",
          "type": "uint256"
        },
        {
          "indexed": false,
          "internalType": "uint256",
          "name": "l1Gas",
          "type": "uint256"
        }
      ],
      "name": "OptimismTokensBridged",
      "type": "event"
    },
    {
      "anonymous": false,
      "inputs": [
        {
          "indexed": false,
          "internalType": "bool",
          "name": "isPaused",
          "type": "bool"
        }
      ],
      "name": "PausedDeposits",
      "type": "event"
    },
    {
      "anonymous": false,
      "inputs": [
        {
          "indexed": false,
          "internalType": "bool",
          "name": "isPaused",
          "type": "bool"
        }
      ],
      "name": "PausedFills",
      "type": "event"
    },
    {
      "anonymous": false,
      "inputs": [
        {
          "indexed": true,
          "internalType": "address",
          "name": "relayer",
          "type": "address"
        },
        {
          "indexed": false,
          "internalType": "address",
          "name": "refundToken",
          "type": "address"
        },
        {
          "indexed": false,
          "internalType": "uint256",
          "name": "amount",
          "type": "uint256"
        },
        {
          "indexed": true,
          "internalType": "uint256",
          "name": "originChainId",
          "type": "uint256"
        },
        {
          "indexed": false,
          "internalType": "uint256",
          "name": "destinationChainId",
          "type": "uint256"
        },
        {
          "indexed": false,
          "internalType": "int64",
          "name": "realizedLpFeePct",
          "type": "int64"
        },
        {
          "indexed": true,
          "internalType": "uint32",
          "name": "depositId",
          "type": "uint32"
        },
        {
          "indexed": false,
          "internalType": "uint256",
          "name": "fillBlock",
          "type": "uint256"
        },
        {
          "indexed": false,
          "internalType": "uint256",
          "name": "previousIdenticalRequests",
          "type": "uint256"
        }
      ],
      "name": "RefundRequested",
      "type": "event"
    },
    {
      "anonymous": false,
      "inputs": [
        {
          "indexed": true,
          "internalType": "uint32",
          "name": "rootBundleId",
          "type": "uint32"
        },
        {
          "indexed": true,
          "internalType": "bytes32",
          "name": "relayerRefundRoot",
          "type": "bytes32"
        },
        {
          "indexed": true,
          "internalType": "bytes32",
          "name": "slowRelayRoot",
          "type": "bytes32"
        }
      ],
      "name": "RelayedRootBundle",
      "type": "event"
    },
    {
      "anonymous": false,
      "inputs": [
        {
          "indexed": false,
          "internalType": "int64",
          "name": "newRelayerFeePct",
          "type": "int64"
        },
        {
          "indexed": true,
          "internalType": "uint32",
          "name": "depositId",
          "type": "uint32"
        },
        {
          "indexed": true,
          "internalType": "address",
          "name": "depositor",
          "type": "address"
        },
        {
          "indexed": false,
          "internalType": "address",
          "name": "updatedRecipient",
          "type": "address"
        },
        {
          "indexed": false,
          "internalType": "bytes",
          "name": "updatedMessage",
          "type": "bytes"
        },
        {
          "indexed": false,
          "internalType": "bytes",
          "name": "depositorSignature",
          "type": "bytes"
        }
      ],
      "name": "RequestedSpeedUpDeposit",
      "type": "event"
    },
    {
      "anonymous": false,
      "inputs": [
        {
          "indexed": false,
          "internalType": "uint256",
          "name": "updatedOutputAmount",
          "type": "uint256"
        },
        {
          "indexed": true,
          "internalType": "uint32",
          "name": "depositId",
          "type": "uint32"
        },
        {
          "indexed": true,
          "internalType": "address",
          "name": "depositor",
          "type": "address"
        },
        {
          "indexed": false,
          "internalType": "address",
          "name": "updatedRecipient",
          "type": "address"
        },
        {
          "indexed": false,
          "internalType": "bytes",
          "name": "updatedMessage",
          "type": "bytes"
        },
        {
          "indexed": false,
          "internalType": "bytes",
          "name": "depositorSignature",
          "type": "bytes"
        }
      ],
      "name": "RequestedSpeedUpV3Deposit",
      "type": "event"
    },
    {
      "anonymous": false,
      "inputs": [
        {
          "indexed": false,
          "internalType": "address",
          "name": "inputToken",
          "type": "address"
        },
        {
          "indexed": false,
          "internalType": "address",
          "name": "outputToken",
          "type": "address"
        },
        {
          "indexed": false,
          "internalType": "uint256",
          "name": "inputAmount",
          "type": "uint256"
        },
        {
          "indexed": false,
          "internalType": "uint256",
          "name": "outputAmount",
          "type": "uint256"
        },
        {
          "indexed": true,
          "internalType": "uint256",
          "name": "originChainId",
          "type": "uint256"
        },
        {
          "indexed": true,
          "internalType": "uint32",
          "name": "depositId",
          "type": "uint32"
        },
        {
          "indexed": false,
          "internalType": "uint32",
          "name": "fillDeadline",
          "type": "uint32"
        },
        {
          "indexed": false,
          "internalType": "uint32",
          "name": "exclusivityDeadline",
          "type": "uint32"
        },
        {
          "indexed": false,
          "internalType": "address",
          "name": "exclusiveRelayer",
          "type": "address"
        },
        {
          "indexed": false,
          "internalType": "address",
          "name": "depositor",
          "type": "address"
        },
        {
          "indexed": false,
          "internalType": "address",
          "name": "recipient",
          "type": "address"
        },
        {
          "indexed": false,
          "internalType": "bytes",
          "name": "message",
          "type": "bytes"
        }
      ],
      "name": "RequestedV3SlowFill",
      "type": "event"
    },
    {
      "anonymous": false,
      "inputs": [
        {
          "indexed": true,
          "internalType": "address",
          "name": "newHubPool",
          "type": "address"
        }
      ],
      "name": "SetHubPool",
      "type": "event"
    },
    {
      "anonymous": false,
      "inputs": [
        {
          "indexed": true,
          "internalType": "uint32",
          "name": "newL1Gas",
          "type": "uint32"
        }
      ],
      "name": "SetL1Gas",
      "type": "event"
    },
    {
      "anonymous": false,
      "inputs": [
        {
          "indexed": true,
          "internalType": "address",
          "name": "l2Token",
          "type": "address"
        },
        {
          "indexed": true,
          "internalType": "address",
          "name": "tokenBridge",
          "type": "address"
        }
      ],
      "name": "SetL2TokenBridge",
      "type": "event"
    },
    {
      "anonymous": false,
      "inputs": [
        {
          "indexed": true,
          "internalType": "address",
          "name": "newAdmin",
          "type": "address"
        }
      ],
      "name": "SetXDomainAdmin",
      "type": "event"
    },
    {
      "anonymous": false,
      "inputs": [
        {
          "indexed": false,
          "internalType": "uint256",
          "name": "amountToReturn",
          "type": "uint256"
        },
        {
          "indexed": true,
          "internalType": "uint256",
          "name": "chainId",
          "type": "uint256"
        },
        {
          "indexed": true,
          "internalType": "uint32",
          "name": "leafId",
          "type": "uint32"
        },
        {
          "indexed": true,
          "internalType": "address",
          "name": "l2TokenAddress",
          "type": "address"
        },
        {
          "indexed": false,
          "internalType": "address",
          "name": "caller",
          "type": "address"
        }
      ],
      "name": "TokensBridged",
      "type": "event"
    },
    {
      "anonymous": false,
      "inputs": [
        {
          "indexed": true,
          "internalType": "address",
          "name": "implementation",
          "type": "address"
        }
      ],
      "name": "Upgraded",
      "type": "event"
    },
    {
      "anonymous": false,
      "inputs": [
        {
          "indexed": false,
          "internalType": "address",
          "name": "inputToken",
          "type": "address"
        },
        {
          "indexed": false,
          "internalType": "address",
          "name": "outputToken",
          "type": "address"
        },
        {
          "indexed": false,
          "internalType": "uint256",
          "name": "inputAmount",
          "type": "uint256"
        },
        {
          "indexed": false,
          "internalType": "uint256",
          "name": "outputAmount",
          "type": "uint256"
        },
        {
          "indexed": true,
          "internalType": "uint256",
          "name": "destinationChainId",
          "type": "uint256"
        },
        {
          "indexed": true,
          "internalType": "uint32",
          "name": "depositId",
          "type": "uint32"
        },
        {
          "indexed": false,
          "internalType": "uint32",
          "name": "quoteTimestamp",
          "type": "uint32"
        },
        {
          "indexed": false,
          "internalType": "uint32",
          "name": "fillDeadline",
          "type": "uint32"
        },
        {
          "indexed": false,
          "internalType": "uint32",
          "name": "exclusivityDeadline",
          "type": "uint32"
        },
        {
          "indexed": true,
          "internalType": "address",
          "name": "depositor",
          "type": "address"
        },
        {
          "indexed": false,
          "internalType": "address",
          "name": "recipient",
          "type": "address"
        },
        {
          "indexed": false,
          "internalType": "address",
          "name": "relayer",
          "type": "address"
        },
        {
          "indexed": false,
          "internalType": "bytes",
          "name": "message",
          "type": "bytes"
        }
      ],
      "name": "V3FundsDeposited",
      "type": "event"
    },
    {
      "inputs": [],
      "name": "MAX_TRANSFER_SIZE",
      "outputs": [
        {
          "internalType": "uint256",
          "name": "",
          "type": "uint256"
        }
      ],
      "stateMutability": "view",
      "type": "function"
    },
    {
      "inputs": [],
      "name": "SLOW_FILL_MAX_TOKENS_TO_SEND",
      "outputs": [
        {
          "internalType": "uint256",
          "name": "",
          "type": "uint256"
        }
      ],
      "stateMutability": "view",
      "type": "function"
    },
    {
      "inputs": [],
      "name": "UPDATE_DEPOSIT_DETAILS_HASH",
      "outputs": [
        {
          "internalType": "bytes32",
          "name": "",
          "type": "bytes32"
        }
      ],
      "stateMutability": "view",
      "type": "function"
    },
    {
      "inputs": [],
      "name": "UPDATE_V3_DEPOSIT_DETAILS_HASH",
      "outputs": [
        {
          "internalType": "bytes32",
          "name": "",
          "type": "bytes32"
        }
      ],
      "stateMutability": "view",
      "type": "function"
    },
    {
      "inputs": [
        {
          "internalType": "uint32",
          "name": "_initialDepositId",
          "type": "uint32"
        },
        {
          "internalType": "address",
          "name": "_crossDomainAdmin",
          "type": "address"
        },
        {
          "internalType": "address",
          "name": "_hubPool",
          "type": "address"
        },
        {
          "internalType": "address",
          "name": "_l2Eth",
          "type": "address"
        }
      ],
      "name": "__OvmSpokePool_init",
      "outputs": [],
      "stateMutability": "nonpayable",
      "type": "function"
    },
    {
      "inputs": [
        {
          "internalType": "uint32",
          "name": "_initialDepositId",
          "type": "uint32"
        },
        {
          "internalType": "address",
          "name": "_crossDomainAdmin",
          "type": "address"
        },
        {
          "internalType": "address",
          "name": "_hubPool",
          "type": "address"
        }
      ],
      "name": "__SpokePool_init",
      "outputs": [],
      "stateMutability": "nonpayable",
      "type": "function"
    },
    {
      "inputs": [],
      "name": "cctpTokenMessenger",
      "outputs": [
        {
          "internalType": "contract ITokenMessenger",
          "name": "",
          "type": "address"
        }
      ],
      "stateMutability": "view",
      "type": "function"
    },
    {
      "inputs": [],
      "name": "chainId",
      "outputs": [
        {
          "internalType": "uint256",
          "name": "",
          "type": "uint256"
        }
      ],
      "stateMutability": "view",
      "type": "function"
    },
    {
      "inputs": [],
      "name": "crossDomainAdmin",
      "outputs": [
        {
          "internalType": "address",
          "name": "",
          "type": "address"
        }
      ],
      "stateMutability": "view",
      "type": "function"
    },
    {
      "inputs": [
        {
          "internalType": "address",
          "name": "recipient",
          "type": "address"
        },
        {
          "internalType": "address",
          "name": "originToken",
          "type": "address"
        },
        {
          "internalType": "uint256",
          "name": "amount",
          "type": "uint256"
        },
        {
          "internalType": "uint256",
          "name": "destinationChainId",
          "type": "uint256"
        },
        {
          "internalType": "int64",
          "name": "relayerFeePct",
          "type": "int64"
        },
        {
          "internalType": "uint32",
          "name": "quoteTimestamp",
          "type": "uint32"
        },
        {
          "internalType": "bytes",
          "name": "message",
          "type": "bytes"
        },
        {
          "internalType": "uint256",
          "name": "",
          "type": "uint256"
        }
      ],
      "name": "deposit",
      "outputs": [],
      "stateMutability": "payable",
      "type": "function"
    },
    {
      "inputs": [
        {
          "internalType": "address",
          "name": "depositor",
          "type": "address"
        },
        {
          "internalType": "address",
          "name": "recipient",
          "type": "address"
        },
        {
          "internalType": "address",
          "name": "originToken",
          "type": "address"
        },
        {
          "internalType": "uint256",
          "name": "amount",
          "type": "uint256"
        },
        {
          "internalType": "uint256",
          "name": "destinationChainId",
          "type": "uint256"
        },
        {
          "internalType": "int64",
          "name": "relayerFeePct",
          "type": "int64"
        },
        {
          "internalType": "uint32",
          "name": "quoteTimestamp",
          "type": "uint32"
        },
        {
          "internalType": "bytes",
          "name": "message",
          "type": "bytes"
        },
        {
          "internalType": "uint256",
          "name": "",
          "type": "uint256"
        }
      ],
      "name": "depositFor",
      "outputs": [],
      "stateMutability": "payable",
      "type": "function"
    },
    {
      "inputs": [
        {
          "internalType": "address",
          "name": "depositor",
          "type": "address"
        },
        {
          "internalType": "address",
          "name": "recipient",
          "type": "address"
        },
        {
          "internalType": "address",
          "name": "originToken",
          "type": "address"
        },
        {
          "internalType": "uint256",
          "name": "amount",
          "type": "uint256"
        },
        {
          "internalType": "uint256",
          "name": "destinationChainId",
          "type": "uint256"
        },
        {
          "internalType": "int64",
          "name": "relayerFeePct",
          "type": "int64"
        },
        {
          "internalType": "bytes",
          "name": "message",
          "type": "bytes"
        },
        {
          "internalType": "uint256",
          "name": "maxCount",
          "type": "uint256"
        }
      ],
      "name": "depositForNow",
      "outputs": [],
      "stateMutability": "payable",
      "type": "function"
    },
    {
      "inputs": [
        {
          "internalType": "address",
          "name": "recipient",
          "type": "address"
        },
        {
          "internalType": "address",
          "name": "originToken",
          "type": "address"
        },
        {
          "internalType": "uint256",
          "name": "amount",
          "type": "uint256"
        },
        {
          "internalType": "uint256",
          "name": "destinationChainId",
          "type": "uint256"
        },
        {
          "internalType": "int64",
          "name": "relayerFeePct",
          "type": "int64"
        },
        {
          "internalType": "bytes",
          "name": "message",
          "type": "bytes"
        },
        {
          "internalType": "uint256",
          "name": "maxCount",
          "type": "uint256"
        }
      ],
      "name": "depositNow",
      "outputs": [],
      "stateMutability": "payable",
      "type": "function"
    },
    {
      "inputs": [],
      "name": "depositQuoteTimeBuffer",
      "outputs": [
        {
          "internalType": "uint32",
          "name": "",
          "type": "uint32"
        }
      ],
      "stateMutability": "view",
      "type": "function"
    },
    {
      "inputs": [
        {
          "internalType": "address",
          "name": "recipient",
          "type": "address"
        },
        {
          "internalType": "address",
          "name": "originToken",
          "type": "address"
        },
        {
          "internalType": "uint256",
          "name": "amount",
          "type": "uint256"
        },
        {
          "internalType": "uint256",
          "name": "destinationChainId",
          "type": "uint256"
        },
        {
          "internalType": "int64",
          "name": "relayerFeePct",
          "type": "int64"
        },
        {
          "internalType": "uint32",
          "name": "quoteTimestamp",
          "type": "uint32"
        },
        {
          "internalType": "bytes",
          "name": "message",
          "type": "bytes"
        },
        {
          "internalType": "uint256",
          "name": "",
          "type": "uint256"
        }
      ],
      "name": "depositV2",
      "outputs": [],
      "stateMutability": "payable",
      "type": "function"
    },
    {
      "inputs": [
        {
          "internalType": "address",
          "name": "depositor",
          "type": "address"
        },
        {
          "internalType": "address",
          "name": "recipient",
          "type": "address"
        },
        {
          "internalType": "address",
          "name": "inputToken",
          "type": "address"
        },
        {
          "internalType": "address",
          "name": "outputToken",
          "type": "address"
        },
        {
          "internalType": "uint256",
          "name": "inputAmount",
          "type": "uint256"
        },
        {
          "internalType": "uint256",
          "name": "outputAmount",
          "type": "uint256"
        },
        {
          "internalType": "uint256",
          "name": "destinationChainId",
          "type": "uint256"
        },
        {
          "internalType": "address",
          "name": "exclusiveRelayer",
          "type": "address"
        },
        {
          "internalType": "uint32",
          "name": "quoteTimestamp",
          "type": "uint32"
        },
        {
          "internalType": "uint32",
          "name": "fillDeadline",
          "type": "uint32"
        },
        {
          "internalType": "uint32",
          "name": "exclusivityDeadline",
          "type": "uint32"
        },
        {
          "internalType": "bytes",
          "name": "message",
          "type": "bytes"
        }
      ],
      "name": "depositV3",
      "outputs": [],
      "stateMutability": "payable",
      "type": "function"
    },
    {
      "inputs": [
        {
          "internalType": "uint256",
          "name": "rootBundleId",
          "type": "uint256"
        }
      ],
      "name": "emergencyDeleteRootBundle",
      "outputs": [],
      "stateMutability": "nonpayable",
      "type": "function"
    },
    {
      "inputs": [
        {
          "internalType": "address",
          "name": "",
          "type": "address"
        },
        {
          "internalType": "uint256",
          "name": "",
          "type": "uint256"
        }
      ],
      "name": "enabledDepositRoutes",
      "outputs": [
        {
          "internalType": "bool",
          "name": "",
          "type": "bool"
        }
      ],
      "stateMutability": "view",
      "type": "function"
    },
    {
      "inputs": [
        {
          "internalType": "uint32",
          "name": "rootBundleId",
          "type": "uint32"
        },
        {
          "components": [
            {
              "internalType": "uint256",
              "name": "amountToReturn",
              "type": "uint256"
            },
            {
              "internalType": "uint256",
              "name": "chainId",
              "type": "uint256"
            },
            {
              "internalType": "uint256[]",
              "name": "refundAmounts",
              "type": "uint256[]"
            },
            {
              "internalType": "uint32",
              "name": "leafId",
              "type": "uint32"
            },
            {
              "internalType": "address",
              "name": "l2TokenAddress",
              "type": "address"
            },
            {
              "internalType": "address[]",
              "name": "refundAddresses",
              "type": "address[]"
            }
          ],
          "internalType": "struct SpokePoolInterface.RelayerRefundLeaf",
          "name": "relayerRefundLeaf",
          "type": "tuple"
        },
        {
          "internalType": "bytes32[]",
          "name": "proof",
          "type": "bytes32[]"
        }
      ],
      "name": "executeRelayerRefundLeaf",
      "outputs": [],
      "stateMutability": "payable",
      "type": "function"
    },
    {
      "inputs": [
        {
          "internalType": "address",
          "name": "depositor",
          "type": "address"
        },
        {
          "internalType": "address",
          "name": "recipient",
          "type": "address"
        },
        {
          "internalType": "address",
          "name": "destinationToken",
          "type": "address"
        },
        {
          "internalType": "uint256",
          "name": "amount",
          "type": "uint256"
        },
        {
          "internalType": "uint256",
          "name": "originChainId",
          "type": "uint256"
        },
        {
          "internalType": "int64",
          "name": "realizedLpFeePct",
          "type": "int64"
        },
        {
          "internalType": "int64",
          "name": "relayerFeePct",
          "type": "int64"
        },
        {
          "internalType": "uint32",
          "name": "depositId",
          "type": "uint32"
        },
        {
          "internalType": "uint32",
          "name": "rootBundleId",
          "type": "uint32"
        },
        {
          "internalType": "bytes",
          "name": "message",
          "type": "bytes"
        },
        {
          "internalType": "int256",
          "name": "payoutAdjustment",
          "type": "int256"
        },
        {
          "internalType": "bytes32[]",
          "name": "proof",
          "type": "bytes32[]"
        }
      ],
      "name": "executeSlowRelayLeaf",
      "outputs": [],
      "stateMutability": "nonpayable",
      "type": "function"
    },
    {
      "inputs": [
        {
          "internalType": "uint32",
          "name": "rootBundleId",
          "type": "uint32"
        },
        {
          "components": [
            {
              "internalType": "uint256",
              "name": "amountToReturn",
              "type": "uint256"
            },
            {
              "internalType": "uint256",
              "name": "chainId",
              "type": "uint256"
            },
            {
              "internalType": "uint256[]",
              "name": "refundAmounts",
              "type": "uint256[]"
            },
            {
              "internalType": "uint32",
              "name": "leafId",
              "type": "uint32"
            },
            {
              "internalType": "address",
              "name": "l2TokenAddress",
              "type": "address"
            },
            {
              "internalType": "address[]",
              "name": "refundAddresses",
              "type": "address[]"
            },
            {
              "internalType": "bytes32",
              "name": "fillsRefundedRoot",
              "type": "bytes32"
            },
            {
              "internalType": "string",
              "name": "fillsRefundedHash",
              "type": "string"
            }
          ],
          "internalType": "struct V3SpokePoolInterface.V3RelayerRefundLeaf",
          "name": "relayerRefundLeaf",
          "type": "tuple"
        },
        {
          "internalType": "bytes32[]",
          "name": "proof",
          "type": "bytes32[]"
        }
      ],
      "name": "executeV3RelayerRefundLeaf",
      "outputs": [],
      "stateMutability": "payable",
      "type": "function"
    },
    {
      "inputs": [
        {
          "components": [
            {
              "components": [
                {
                  "internalType": "address",
                  "name": "depositor",
                  "type": "address"
                },
                {
                  "internalType": "address",
                  "name": "recipient",
                  "type": "address"
                },
                {
                  "internalType": "address",
                  "name": "exclusiveRelayer",
                  "type": "address"
                },
                {
                  "internalType": "address",
                  "name": "inputToken",
                  "type": "address"
                },
                {
                  "internalType": "address",
                  "name": "outputToken",
                  "type": "address"
                },
                {
                  "internalType": "uint256",
                  "name": "inputAmount",
                  "type": "uint256"
                },
                {
                  "internalType": "uint256",
                  "name": "outputAmount",
                  "type": "uint256"
                },
                {
                  "internalType": "uint256",
                  "name": "originChainId",
                  "type": "uint256"
                },
                {
                  "internalType": "uint32",
                  "name": "depositId",
                  "type": "uint32"
                },
                {
                  "internalType": "uint32",
                  "name": "fillDeadline",
                  "type": "uint32"
                },
                {
                  "internalType": "uint32",
                  "name": "exclusivityDeadline",
                  "type": "uint32"
                },
                {
                  "internalType": "bytes",
                  "name": "message",
                  "type": "bytes"
                }
              ],
              "internalType": "struct V3SpokePoolInterface.V3RelayData",
              "name": "relayData",
              "type": "tuple"
            },
            {
              "internalType": "uint256",
              "name": "chainId",
              "type": "uint256"
            },
            {
              "internalType": "uint256",
              "name": "updatedOutputAmount",
              "type": "uint256"
            }
          ],
          "internalType": "struct V3SpokePoolInterface.V3SlowFill",
          "name": "slowFillLeaf",
          "type": "tuple"
        },
        {
          "internalType": "uint32",
          "name": "rootBundleId",
          "type": "uint32"
        },
        {
          "internalType": "bytes32[]",
          "name": "proof",
          "type": "bytes32[]"
        }
      ],
      "name": "executeV3SlowRelayLeaf",
      "outputs": [],
      "stateMutability": "nonpayable",
      "type": "function"
    },
    {
      "inputs": [],
      "name": "fillDeadlineBuffer",
      "outputs": [
        {
          "internalType": "uint32",
          "name": "",
          "type": "uint32"
        }
      ],
      "stateMutability": "view",
      "type": "function"
    },
    {
      "inputs": [
        {
          "internalType": "address",
          "name": "depositor",
          "type": "address"
        },
        {
          "internalType": "address",
          "name": "recipient",
          "type": "address"
        },
        {
          "internalType": "address",
          "name": "destinationToken",
          "type": "address"
        },
        {
          "internalType": "uint256",
          "name": "amount",
          "type": "uint256"
        },
        {
          "internalType": "uint256",
          "name": "maxTokensToSend",
          "type": "uint256"
        },
        {
          "internalType": "uint256",
          "name": "repaymentChainId",
          "type": "uint256"
        },
        {
          "internalType": "uint256",
          "name": "originChainId",
          "type": "uint256"
        },
        {
          "internalType": "int64",
          "name": "realizedLpFeePct",
          "type": "int64"
        },
        {
          "internalType": "int64",
          "name": "relayerFeePct",
          "type": "int64"
        },
        {
          "internalType": "uint32",
          "name": "depositId",
          "type": "uint32"
        },
        {
          "internalType": "bytes",
          "name": "message",
          "type": "bytes"
        },
        {
          "internalType": "uint256",
          "name": "maxCount",
          "type": "uint256"
        }
      ],
      "name": "fillRelay",
      "outputs": [],
      "stateMutability": "nonpayable",
      "type": "function"
    },
    {
      "inputs": [
        {
          "internalType": "address",
          "name": "depositor",
          "type": "address"
        },
        {
          "internalType": "address",
          "name": "recipient",
          "type": "address"
        },
        {
          "internalType": "address",
          "name": "updatedRecipient",
          "type": "address"
        },
        {
          "internalType": "address",
          "name": "destinationToken",
          "type": "address"
        },
        {
          "internalType": "uint256",
          "name": "amount",
          "type": "uint256"
        },
        {
          "internalType": "uint256",
          "name": "maxTokensToSend",
          "type": "uint256"
        },
        {
          "internalType": "uint256",
          "name": "repaymentChainId",
          "type": "uint256"
        },
        {
          "internalType": "uint256",
          "name": "originChainId",
          "type": "uint256"
        },
        {
          "internalType": "int64",
          "name": "realizedLpFeePct",
          "type": "int64"
        },
        {
          "internalType": "int64",
          "name": "relayerFeePct",
          "type": "int64"
        },
        {
          "internalType": "int64",
          "name": "updatedRelayerFeePct",
          "type": "int64"
        },
        {
          "internalType": "uint32",
          "name": "depositId",
          "type": "uint32"
        },
        {
          "internalType": "bytes",
          "name": "message",
          "type": "bytes"
        },
        {
          "internalType": "bytes",
          "name": "updatedMessage",
          "type": "bytes"
        },
        {
          "internalType": "bytes",
          "name": "depositorSignature",
          "type": "bytes"
        },
        {
          "internalType": "uint256",
          "name": "maxCount",
          "type": "uint256"
        }
      ],
      "name": "fillRelayWithUpdatedDeposit",
      "outputs": [],
      "stateMutability": "nonpayable",
      "type": "function"
    },
    {
      "inputs": [
        {
          "internalType": "bytes32",
          "name": "",
          "type": "bytes32"
        }
      ],
      "name": "fillStatuses",
      "outputs": [
        {
          "internalType": "uint256",
          "name": "",
          "type": "uint256"
        }
      ],
      "stateMutability": "view",
      "type": "function"
    },
    {
      "inputs": [
        {
          "components": [
            {
              "internalType": "address",
              "name": "depositor",
              "type": "address"
            },
            {
              "internalType": "address",
              "name": "recipient",
              "type": "address"
            },
            {
              "internalType": "address",
              "name": "exclusiveRelayer",
              "type": "address"
            },
            {
              "internalType": "address",
              "name": "inputToken",
              "type": "address"
            },
            {
              "internalType": "address",
              "name": "outputToken",
              "type": "address"
            },
            {
              "internalType": "uint256",
              "name": "inputAmount",
              "type": "uint256"
            },
            {
              "internalType": "uint256",
              "name": "outputAmount",
              "type": "uint256"
            },
            {
              "internalType": "uint256",
              "name": "originChainId",
              "type": "uint256"
            },
            {
              "internalType": "uint32",
              "name": "depositId",
              "type": "uint32"
            },
            {
              "internalType": "uint32",
              "name": "fillDeadline",
              "type": "uint32"
            },
            {
              "internalType": "uint32",
              "name": "exclusivityDeadline",
              "type": "uint32"
            },
            {
              "internalType": "bytes",
              "name": "message",
              "type": "bytes"
            }
          ],
          "internalType": "struct V3SpokePoolInterface.V3RelayData",
          "name": "relayData",
          "type": "tuple"
        },
        {
          "internalType": "uint256",
          "name": "repaymentChainId",
          "type": "uint256"
        }
      ],
      "name": "fillV3Relay",
      "outputs": [],
      "stateMutability": "nonpayable",
      "type": "function"
    },
    {
      "inputs": [
        {
          "components": [
            {
              "internalType": "address",
              "name": "depositor",
              "type": "address"
            },
            {
              "internalType": "address",
              "name": "recipient",
              "type": "address"
            },
            {
              "internalType": "address",
              "name": "exclusiveRelayer",
              "type": "address"
            },
            {
              "internalType": "address",
              "name": "inputToken",
              "type": "address"
            },
            {
              "internalType": "address",
              "name": "outputToken",
              "type": "address"
            },
            {
              "internalType": "uint256",
              "name": "inputAmount",
              "type": "uint256"
            },
            {
              "internalType": "uint256",
              "name": "outputAmount",
              "type": "uint256"
            },
            {
              "internalType": "uint256",
              "name": "originChainId",
              "type": "uint256"
            },
            {
              "internalType": "uint32",
              "name": "depositId",
              "type": "uint32"
            },
            {
              "internalType": "uint32",
              "name": "fillDeadline",
              "type": "uint32"
            },
            {
              "internalType": "uint32",
              "name": "exclusivityDeadline",
              "type": "uint32"
            },
            {
              "internalType": "bytes",
              "name": "message",
              "type": "bytes"
            }
          ],
          "internalType": "struct V3SpokePoolInterface.V3RelayData",
          "name": "relayData",
          "type": "tuple"
        },
        {
          "internalType": "uint256",
          "name": "repaymentChainId",
          "type": "uint256"
        },
        {
          "internalType": "uint256",
          "name": "updatedOutputAmount",
          "type": "uint256"
        },
        {
          "internalType": "address",
          "name": "updatedRecipient",
          "type": "address"
        },
        {
          "internalType": "bytes",
          "name": "updatedMessage",
          "type": "bytes"
        },
        {
          "internalType": "bytes",
          "name": "depositorSignature",
          "type": "bytes"
        }
      ],
      "name": "fillV3RelayWithUpdatedDeposit",
      "outputs": [],
      "stateMutability": "nonpayable",
      "type": "function"
    },
    {
      "inputs": [],
      "name": "getCurrentTime",
      "outputs": [
        {
          "internalType": "uint256",
          "name": "",
          "type": "uint256"
        }
      ],
      "stateMutability": "view",
      "type": "function"
    },
    {
      "inputs": [],
      "name": "hubPool",
      "outputs": [
        {
          "internalType": "address",
          "name": "",
          "type": "address"
        }
      ],
      "stateMutability": "view",
      "type": "function"
    },
    {
      "inputs": [
        {
          "internalType": "uint32",
          "name": "_initialDepositId",
          "type": "uint32"
        },
        {
          "internalType": "address",
          "name": "_crossDomainAdmin",
          "type": "address"
        },
        {
          "internalType": "address",
          "name": "_hubPool",
          "type": "address"
        }
      ],
      "name": "initialize",
      "outputs": [],
      "stateMutability": "nonpayable",
      "type": "function"
    },
    {
      "inputs": [],
      "name": "l1Gas",
      "outputs": [
        {
          "internalType": "uint32",
          "name": "",
          "type": "uint32"
        }
      ],
      "stateMutability": "view",
      "type": "function"
    },
    {
      "inputs": [],
      "name": "l2Eth",
      "outputs": [
        {
          "internalType": "address",
          "name": "",
          "type": "address"
        }
      ],
      "stateMutability": "view",
      "type": "function"
    },
    {
      "inputs": [],
      "name": "messenger",
      "outputs": [
        {
          "internalType": "address",
          "name": "",
          "type": "address"
        }
      ],
      "stateMutability": "view",
      "type": "function"
    },
    {
      "inputs": [
        {
          "internalType": "bytes[]",
          "name": "data",
          "type": "bytes[]"
        }
      ],
      "name": "multicall",
      "outputs": [
        {
          "internalType": "bytes[]",
          "name": "results",
          "type": "bytes[]"
        }
      ],
      "stateMutability": "nonpayable",
      "type": "function"
    },
    {
      "inputs": [],
      "name": "numberOfDeposits",
      "outputs": [
        {
          "internalType": "uint32",
          "name": "",
          "type": "uint32"
        }
      ],
      "stateMutability": "view",
      "type": "function"
    },
    {
      "inputs": [
        {
          "internalType": "bool",
          "name": "pause",
          "type": "bool"
        }
      ],
      "name": "pauseDeposits",
      "outputs": [],
      "stateMutability": "nonpayable",
      "type": "function"
    },
    {
      "inputs": [
        {
          "internalType": "bool",
          "name": "pause",
          "type": "bool"
        }
      ],
      "name": "pauseFills",
      "outputs": [],
      "stateMutability": "nonpayable",
      "type": "function"
    },
    {
      "inputs": [],
      "name": "pausedDeposits",
      "outputs": [
        {
          "internalType": "bool",
          "name": "",
          "type": "bool"
        }
      ],
      "stateMutability": "view",
      "type": "function"
    },
    {
      "inputs": [],
      "name": "pausedFills",
      "outputs": [
        {
          "internalType": "bool",
          "name": "",
          "type": "bool"
        }
      ],
      "stateMutability": "view",
      "type": "function"
    },
    {
      "inputs": [],
      "name": "proxiableUUID",
      "outputs": [
        {
          "internalType": "bytes32",
          "name": "",
          "type": "bytes32"
        }
      ],
      "stateMutability": "view",
      "type": "function"
    },
    {
      "inputs": [],
      "name": "recipientCircleDomainId",
      "outputs": [
        {
          "internalType": "uint32",
          "name": "",
          "type": "uint32"
        }
      ],
      "stateMutability": "view",
      "type": "function"
    },
    {
      "inputs": [
        {
          "internalType": "bytes32",
          "name": "relayerRefundRoot",
          "type": "bytes32"
        },
        {
          "internalType": "bytes32",
          "name": "slowRelayRoot",
          "type": "bytes32"
        }
      ],
      "name": "relayRootBundle",
      "outputs": [],
      "stateMutability": "nonpayable",
      "type": "function"
    },
    {
      "inputs": [
        {
          "components": [
            {
              "internalType": "address",
              "name": "depositor",
              "type": "address"
            },
            {
              "internalType": "address",
              "name": "recipient",
              "type": "address"
            },
            {
              "internalType": "address",
              "name": "exclusiveRelayer",
              "type": "address"
            },
            {
              "internalType": "address",
              "name": "inputToken",
              "type": "address"
            },
            {
              "internalType": "address",
              "name": "outputToken",
              "type": "address"
            },
            {
              "internalType": "uint256",
              "name": "inputAmount",
              "type": "uint256"
            },
            {
              "internalType": "uint256",
              "name": "outputAmount",
              "type": "uint256"
            },
            {
              "internalType": "uint256",
              "name": "originChainId",
              "type": "uint256"
            },
            {
              "internalType": "uint32",
              "name": "depositId",
              "type": "uint32"
            },
            {
              "internalType": "uint32",
              "name": "fillDeadline",
              "type": "uint32"
            },
            {
              "internalType": "uint32",
              "name": "exclusivityDeadline",
              "type": "uint32"
            },
            {
              "internalType": "bytes",
              "name": "message",
              "type": "bytes"
            }
          ],
          "internalType": "struct V3SpokePoolInterface.V3RelayData",
          "name": "relayData",
          "type": "tuple"
        }
      ],
      "name": "requestV3SlowFill",
      "outputs": [],
      "stateMutability": "nonpayable",
      "type": "function"
    },
    {
      "inputs": [
        {
          "internalType": "uint256",
          "name": "",
          "type": "uint256"
        }
      ],
      "name": "rootBundles",
      "outputs": [
        {
          "internalType": "bytes32",
          "name": "slowRelayRoot",
          "type": "bytes32"
        },
        {
          "internalType": "bytes32",
          "name": "relayerRefundRoot",
          "type": "bytes32"
        }
      ],
      "stateMutability": "view",
      "type": "function"
    },
    {
      "inputs": [
        {
          "internalType": "address",
          "name": "newCrossDomainAdmin",
          "type": "address"
        }
      ],
      "name": "setCrossDomainAdmin",
      "outputs": [],
      "stateMutability": "nonpayable",
      "type": "function"
    },
    {
      "inputs": [
        {
          "internalType": "address",
          "name": "originToken",
          "type": "address"
        },
        {
          "internalType": "uint256",
          "name": "destinationChainId",
          "type": "uint256"
        },
        {
          "internalType": "bool",
          "name": "enabled",
          "type": "bool"
        }
      ],
      "name": "setEnableRoute",
      "outputs": [],
      "stateMutability": "nonpayable",
      "type": "function"
    },
    {
      "inputs": [
        {
          "internalType": "address",
          "name": "newHubPool",
          "type": "address"
        }
      ],
      "name": "setHubPool",
      "outputs": [],
      "stateMutability": "nonpayable",
      "type": "function"
    },
    {
      "inputs": [
        {
          "internalType": "uint32",
          "name": "newl1Gas",
          "type": "uint32"
        }
      ],
      "name": "setL1GasLimit",
      "outputs": [],
      "stateMutability": "nonpayable",
      "type": "function"
    },
    {
      "inputs": [
        {
          "internalType": "address",
          "name": "l2Token",
          "type": "address"
        },
        {
          "internalType": "address",
          "name": "tokenBridge",
          "type": "address"
        }
      ],
      "name": "setTokenBridge",
      "outputs": [],
      "stateMutability": "nonpayable",
      "type": "function"
    },
    {
      "inputs": [
        {
          "internalType": "address",
          "name": "depositor",
          "type": "address"
        },
        {
          "internalType": "int64",
          "name": "updatedRelayerFeePct",
          "type": "int64"
        },
        {
          "internalType": "uint32",
          "name": "depositId",
          "type": "uint32"
        },
        {
          "internalType": "address",
          "name": "updatedRecipient",
          "type": "address"
        },
        {
          "internalType": "bytes",
          "name": "updatedMessage",
          "type": "bytes"
        },
        {
          "internalType": "bytes",
          "name": "depositorSignature",
          "type": "bytes"
        }
      ],
      "name": "speedUpDeposit",
      "outputs": [],
      "stateMutability": "nonpayable",
      "type": "function"
    },
    {
      "inputs": [
        {
          "internalType": "address",
          "name": "depositor",
          "type": "address"
        },
        {
          "internalType": "uint32",
          "name": "depositId",
          "type": "uint32"
        },
        {
          "internalType": "uint256",
          "name": "updatedOutputAmount",
          "type": "uint256"
        },
        {
          "internalType": "address",
          "name": "updatedRecipient",
          "type": "address"
        },
        {
          "internalType": "bytes",
          "name": "updatedMessage",
          "type": "bytes"
        },
        {
          "internalType": "bytes",
          "name": "depositorSignature",
          "type": "bytes"
        }
      ],
      "name": "speedUpV3Deposit",
      "outputs": [],
      "stateMutability": "nonpayable",
      "type": "function"
    },
    {
      "inputs": [
        {
          "internalType": "address",
          "name": "",
          "type": "address"
        }
      ],
      "name": "tokenBridges",
      "outputs": [
        {
          "internalType": "address",
          "name": "",
          "type": "address"
        }
      ],
      "stateMutability": "view",
      "type": "function"
    },
    {
      "inputs": [
        {
          "internalType": "address",
          "name": "newImplementation",
          "type": "address"
        }
      ],
      "name": "upgradeTo",
      "outputs": [],
      "stateMutability": "nonpayable",
      "type": "function"
    },
    {
      "inputs": [
        {
          "internalType": "address",
          "name": "newImplementation",
          "type": "address"
        },
        {
          "internalType": "bytes",
          "name": "data",
          "type": "bytes"
        }
      ],
      "name": "upgradeToAndCall",
      "outputs": [],
      "stateMutability": "payable",
      "type": "function"
    },
    {
      "inputs": [],
      "name": "usdcToken",
      "outputs": [
        {
          "internalType": "contract IERC20",
          "name": "",
          "type": "address"
        }
      ],
      "stateMutability": "view",
      "type": "function"
    },
    {
      "inputs": [],
      "name": "wrappedNativeToken",
      "outputs": [
        {
          "internalType": "contract WETH9Interface",
          "name": "",
          "type": "address"
        }
      ],
      "stateMutability": "view",
      "type": "function"
    },
    {
      "stateMutability": "payable",
      "type": "receive"
    }
  ],
  "solcInputHash": "1b4f1cb42b35980ee6d80f2745005081",
  "bytecode": "0x61016034620001e957601f62005a2f38819003918201601f19168301916001600160401b03831184841017620001ed5780849260a094604052833981010312620001e95780516001600160a01b03919082811690819003620001e957620000696020830162000201565b620000776040840162000201565b916060840151938585168503620001e957608001519485168503620001e9573060805260a05260c05260e0525f5460ff8160081c16620001e95760ff80821603620001ae575b50610120908152610140918252610100915f83526040519161581b9384620002148539608051848181610f9a015281816114730152611613015260a05184818161099e01528181612327015281816130580152818161360a0152818161383201528181613f88015281816141f1015281816145a801528181614d840152818161509301526150ba015260c051848181611703015281816122e001528181612ff301526137e6015260e0518481816103d8015261301f01525183818161193f015261555a01525182818161095a0152818161505101526154d3015251818181611bc201528181614ed701526154a60152f35b60ff90811916175f557f7f26b83ff96e1f2b6a682f133852f6798a09c465da95921460cefb3847402498602060405160ff8152a15f620000bd565b5f80fd5b634e487b7160e01b5f52604160045260245ffd5b519063ffffffff82168203620001e95756fe6080604052600436101561001a575b3615610018575f80fd5b005b5f3560e01c8063079bd2c7146103a95780630c2097f7146103a45780630eaac9f01461039f5780631186ec331461039a57806311eac8551461039557806317fcb39b146103905780631b3d55591461038b5780631dfb2d021461038657806323c89a8214610381578063272751c71461037c57806329cb924d146103775780632cfc26c5146103725780632e3781151461036d5780633659cfe6146103685780633cb747bf14610363578063431023b81461035e57806344b8be6814610359578063493a4f84146103545780634e0fb8f51461034f5780634f1ef2861461034a5780635249fef1146103455780635285e0581461034057806352d1902d1461033b578063541f4f141461033657806357f6dcb8146103315780635ceaec321461032c5780636068d6cb14610327578063647c576c146103225780636e4009831461031d578063738b62e514610318578063766e0703146103135780637b9392321461030e5780637e688bba146103095780638a7860ce146103045780639748cf7c146102ff578063979f2bc2146102fa5780639963e5a8146102f557806399cc2968146102f05780639a8a0592146102eb578063a1244c67146102e6578063a78e4b60146102e1578063ac9650d8146102dc578063ae527fbb146102d7578063b27a4300146102d2578063b5e1bf5f146102cd578063bbca7db0146102c8578063bdcb53a5146102c3578063c35c83fc146102be578063ccfa5971146102b9578063dda52113146102b4578063ddd224f1146102af578063de7eba78146102aa578063e1904402146102a5578063e3229211146102a0578063ee2a53f81461029b578063fbbba9ac146102965763fd7c10540361000e5761269a565b612605565b6125c7565b612569565b612540565b612510565b6124e7565b6124c1565b61243f565b612414565b61223b565b61213a565b612110565b6120d2565b612054565b611f8d565b611ebd565b611e96565b611e7c565b611dfe565b611c87565b611bf1565b611bad565b611b35565b611aae565b611a05565b6119e1565b611963565b611923565b61184c565b6117f4565b611727565b6116e7565b611658565b611601565b6115d8565b61158b565b611432565b61131a565b61126b565b6111d6565b6110b5565b61108c565b610f73565b610e51565b610e1b565b610e01565b610d63565b610b7d565b610b18565b610a40565b610989565b610945565b61090d565b610830565b61078b565b6103bc565b5f9103126103b857565b5f80fd5b346103b8575f3660031901126103b857602060405163ffffffff7f0000000000000000000000000000000000000000000000000000000000000000168152f35b6001600160a01b031690565b6001600160a01b038116036103b857565b6004359061042682610408565b565b6024359061042682610408565b6044359061042682610408565b6064359061042682610408565b359061042682610408565b60a435908160070b82036103b857565b60c435908160070b82036103b857565b61010435908160070b82036103b857565b61012435908160070b82036103b857565b61014435908160070b82036103b857565b608435908160070b82036103b857565b63ffffffff8116036103b857565b60e43590610426826104bd565b6101043590610426826104bd565b6101243590610426826104bd565b6101643590610426826104bd565b6101443590610426826104bd565b3590610426826104bd565b634e487b7160e01b5f52604160045260245ffd5b6001600160401b03811161054257604052565b61051b565b606081019081106001600160401b0382111761054257604052565b60a081019081106001600160401b0382111761054257604052565b602081019081106001600160401b0382111761054257604052565b604081019081106001600160401b0382111761054257604052565b60e081019081106001600160401b0382111761054257604052565b601f909101601f19168101906001600160401b0382119082101761054257604052565b6040519060c082016001600160401b0381118382101761054257604052565b6040519061014082016001600160401b0381118382101761054257604052565b6040519061010082016001600160401b0381118382101761054257604052565b6040519061018082016001600160401b0381118382101761054257604052565b60405190608082016001600160401b0381118382101761054257604052565b6040519061042682610562565b6001600160401b03811161054257601f01601f191660200190565b9291926106c38261069c565b916106d160405193846105ce565b8294818452818301116103b8578281602093845f960137010152565b9080601f830112156103b857816020610708933591016106b7565b90565b6001600160401b0381116105425760051b60200190565b929161072d8261070b565b9161073b60405193846105ce565b829481845260208094019160051b81019283116103b857905b8282106107615750505050565b81358152908301908301610754565b9080601f830112156103b85781602061070893359101610722565b346103b8576101803660031901126103b8576004356107a981610408565b6107b1610428565b906107ba610435565b6107c261045a565b926107cb61046a565b6107d36104cb565b6107db6104d8565b6001600160401b0396909290610124358881116103b8576108009036906004016106ed565b94610164359889116103b85761081d610018993690600401610770565b9761014435976084359260643592612722565b346103b85760203660031901126103b85763ffffffff600435610852816104bd565b61085a613673565b6108626135ef565b16610c5a8163ffffffff198254161790557fe486a5c4bd7b36eabbfe274c99b39130277417be8d2209b4dae04c4fba64ee3a5f80a26001606555005b6101006003198201126103b8576004356108b781610408565b916024356108c481610408565b9160443591606435916084358060070b81036103b8579160a4356108e7816104bd565b9160c435906001600160401b0382116103b857610906916004016106ed565b9060e43590565b6109163661089e565b50946109269491949392936135ef565b60ff61086b5460e81c166103b85761093e9633613780565b6001606555005b346103b8575f3660031901126103b8576040517f00000000000000000000000000000000000000000000000000000000000000006001600160a01b03168152602090f35b346103b8575f3660031901126103b8576040517f00000000000000000000000000000000000000000000000000000000000000006001600160a01b03168152602090f35b92916109d88261070b565b916109e660405193846105ce565b829481845260208094019160051b81019283116103b857905b828210610a0c5750505050565b8380918335610a1a81610408565b8152019101906109ff565b9080601f830112156103b857816020610708933591016109cd565b6003196060368201126103b857600435610a59816104bd565b6001600160401b0391602435908382116103b85760c09082360301126103b857610a816105f1565b90806004013582526024810135602083015260448101358481116103b857610aaf9060043691840101610770565b6040830152610ac060648201610510565b6060830152610ad16084820161044f565b608083015260a4810135908482116103b8576004610af29236920101610a25565b60a08201526044359283116103b857610b12610018933690600401610770565b91612837565b346103b85760203660031901126103b85761093e600435610b3881610408565b610b40613673565b610b486135ef565b613ae0565b9181601f840112156103b8578235916001600160401b0383116103b8576020808501948460051b0101116103b857565b6003196060368201126103b85760043590610b97826104bd565b602435906001600160401b038083116103b857610100836004019284360301126103b8576044359081116103b857610bd3903690600401610b4d565b9190610bdd6135ef565b6084840190610bf3610bee836129f0565b613600565b602485013593468503610d4757610c3691610c3291610c2c6001610c168b6125a6565b50015492610c2436896129fa565b923691610722565b91613b28565b1590565b610d35576064840191610c4883612aaa565b610c5290876139a8565b80359060448601610c638183612ab4565b9190610c6e87612aaa565b610c77876129f0565b60a48b0194610c868688612ab4565b9490913690610c9492610722565b933690610ca0926109cd565b91610cac93888c6139fd565b610cb69083612ab4565b95610cc090612aaa565b94610cca906129f0565b91610cd59084612ab4565b909360e48a01610ce491612ae9565b94909363ffffffff98896040519a8b9a169d169b60c4013594610d07988a612b3b565b037fb89613053f0ed7f585819b5a108348fd1bac1f64eca872dca9bc91f2cae2842a91a46100186001606555565b60405163582f497d60e11b8152600490fd5b604051633d23e4d160e11b8152600490fd5b801515036103b857565b346103b85760603660031901126103b857600435610d8081610408565b602435907f0a21fdd43d0ad0c62689ee7230a47309a050755bcc52eba00310add65297692a602060443592610db484610d59565b610dbc613673565b610dc46135ef565b60018060a01b031692835f5261086d825260405f20855f52825260405f209015159060ff1981541660ff8316179055604051908152a36001606555005b346103b8575f3660031901126103b8576020604051428152f35b346103b8575f3660031901126103b85760206040515f805160206157c68339815191528152f35b90816101809103126103b85790565b346103b85760403660031901126103b8576004356001600160401b0381116103b857610e81903690600401610e42565b610e896135ef565b60ff61086b5460e01c166103b857610ea3604082016129f0565b6001600160a01b031633141580610f56575b610f4457610f3a90610f26610ed2610ecd3684612be5565b613c91565b9160c0610f1f610ee4602084016129f0565b610ef2610160850185612ae9565b939094610efd6105f1565b97610f083683612be5565b895260208901520135604087015260608601612cc4565b36916106b7565b608082015260243560a08201523390613dd3565b6100186001606555565b604051630c3a9b9d60e41b8152600490fd5b50610f646101408201612aaa565b63ffffffff4291161015610eb5565b346103b85760203660031901126103b857600435610f9081610408565b6001600160a01b037f000000000000000000000000000000000000000000000000000000000000000081163081146103b8575f805160206157268339815191529082825416036103b857610fe2613673565b60405191610fef8361057d565b5f83525f805160206156e68339815191525460ff16156110155750505061001890615216565b6020600491604051928380926352d1902d60e01b825288165afa5f918161104e575b50611040575f80fd5b036103b85761001891615139565b61107191925060203d602011611078575b61106981836105ce565b8101906142e9565b905f611037565b503d61105f565b6001600160a01b03169052565b346103b8575f3660031901126103b857610c5b546040516001600160a01b039091168152602090f35b346103b85760803660031901126103b8576004356110d2816104bd565b602435906110df82610408565b6044356110eb81610408565b606435916110f883610408565b60ff5f5460081c16156103b857610c5a805463ffffffff1916624c4b40179055611121906131d6565b6040519061112e82610598565b60098252602082016820a1a927a9a996ab1960b91b8152602060405161115381610598565b600581520194640312e302e360dc1b865260ff5f5460081c16156103b857610018956005610b48936111a29651902091209061047f5561048055611195614aeb565b61119d614afa565b614b0e565b6111aa612cd3565b610c5a8054600160201b600160c01b03191660209290921b600160201b600160c01b0316919091179055565b346103b8576101803660031901126103b8576004356111f481610408565b60243561120081610408565b60443561120c81610408565b60e4358060070b81036103b85761122161047a565b6112296104e6565b61014435959092906001600160401b0387116103b8576112506100189736906004016106ed565b94610164359660c4359260a435926084359260643592612cef565b346103b85760403660031901126103b85760243560043561128a613673565b6112926135ef565b61086c8054600160401b8110156105425763ffffffff91600182019055836112b9826125a6565b5084600182015555167fc86ba04c55bc5eb2f2876b91c438849a296dbec7b08751c3074d92e04f0a77af5f80a46001606555005b9181601f840112156103b8578235916001600160401b0383116103b857602083818601950101116103b857565b346103b85760c03660031901126103b85760043561133781610408565b60243590611344826104bd565b60443560643561135381610408565b6001600160401b03916084358381116103b8576113749036906004016112ed565b93909460a4359182116103b85761141663ffffffff7fb0a29aed3d389a1041194255878b423f7780be3ed2324d4693508c6ff189845e966113bc6114289536906004016112ed565b9390996113c76135ef565b6113ee8c8c8b8b6113e56113dc368a896106b7565b938b36916106b7565b9346908c6149c2565b60018060a01b0392836040519a8b9a8b521660208a0152608060408a01526080890191612b1b565b93868503606088015216981696612b1b565b0390a36001606555005b60403660031901126103b85760043561144a81610408565b6024356001600160401b0381116103b8576114699036906004016106ed565b6001600160a01b037f00000000000000000000000000000000000000000000000000000000000000008116903082146103b8575f805160206157268339815191529181835416036103b8576114bc613673565b5f805160206156e68339815191525460ff16156114df5750505061001890615216565b6020600491604051928380926352d1902d60e01b825288165afa5f9181611518575b5061150a575f80fd5b036103b857610018916151d8565b61153291925060203d6020116110785761106981836105ce565b905f611501565b6001600160a01b03165f90815261086d6020526040902090565b6001600160a01b03165f908152610c5c6020526040902090565b5f5261087260205260405f2090565b5f5261086e60205260405f2090565b346103b85760403660031901126103b8576004356115a881610408565b60018060a01b03165f5261086d60205260405f206024355f52602052602060ff60405f2054166040519015158152f35b346103b8575f3660031901126103b857610869546040516001600160a01b039091168152602090f35b346103b8575f3660031901126103b8577f00000000000000000000000000000000000000000000000000000000000000006001600160a01b031630036103b85760206040515f805160206157268339815191528152f35b6101203660031901126103b85760043561167181610408565b6024359061167e82610408565b6044359161168b83610408565b61169361045a565b60c435916116a0836104bd565b60e4356001600160401b0381116103b8576116bf9036906004016106ed565b936116c86135ef565b60ff61086b5460e81c166103b85761093e956084359260643592613780565b346103b8575f3660031901126103b857602060405163ffffffff7f0000000000000000000000000000000000000000000000000000000000000000168152f35b346103b8576102003660031901126103b857611741610419565b611749610428565b90611752610435565b9161175b610442565b9261176461047a565b9361176d61048b565b61177561049c565b61177d6104f4565b6001600160401b0397909290610184358981116103b8576117a29036906004016106ed565b946101a4358a81116103b8576117bc9036906004016106ed565b966101c4359a8b116103b8576117d96100189b36906004016106ed565b986101e4359a60e4359360c4359360a4359360843593612ddd565b346103b8575f3660031901126103b857602060ff61086b5460e81c166040519015158152f35b60609060031901126103b857600435611832816104bd565b9060243561183f81610408565b9060443561070881610408565b346103b85761185a3661181a565b5f54600881901c60ff1615939290849081611915575b81156118f5575b50156103b85761189b9284611892600160ff195f5416175f55565b6118de57612ecf565b6118a157005b6118af61ff00195f54165f55565b604051600181527f7f26b83ff96e1f2b6a682f133852f6798a09c465da95921460cefb384740249890602090a1005b6118f061010061ff00195f5416175f55565b612ecf565b303b15915081611907575b505f611877565b6001915060ff16145f611900565b600160ff8216109150611870565b346103b8575f3660031901126103b857602060405163ffffffff7f0000000000000000000000000000000000000000000000000000000000000000168152f35b346103b85760203660031901126103b8577fe88463c2f254e2b070013a2dc7ee1e099f9bc00534cbdf03af551dc26ae4921960206004356119a381610d59565b6119ab613673565b6119b36135ef565b61086b805460ff60e81b191691151560e881901b60ff60e81b16929092179055604051908152a16001606555005b346103b8575f3660031901126103b857602063ffffffff610c5a5416604051908152f35b6101803660031901126103b857600435611a1e81610408565b60243590611a2b82610408565b604435611a3781610408565b60643590611a4482610408565b60e435611a5081610408565b61010435611a5d816104bd565b6101243591611a6b836104bd565b611a73610502565b61016435979094906001600160401b0389116103b857611a9a6100189936906004016112ed565b98909760c4359360a4359360843593612fa0565b346103b85760c03660031901126103b857600435611acb81610408565b602435908160070b82036103b85760443591611ae6836104bd565b606435611af281610408565b6001600160401b03936084358581116103b857611b139036906004016106ed565b9260a4359586116103b857611b2f6100189636906004016106ed565b94613264565b346103b85760203660031901126103b857600435611b51613673565b611b596135ef565b611b62816125a6565b611b9a576001815f80935501557f3569b846531b754c99cb80df3f49cd72fa6fe106aaee5ab8e0caf35a9d7ce88d5f80a26001606555005b634e487b7160e01b5f525f60045260245ffd5b346103b8575f3660031901126103b8576040517f00000000000000000000000000000000000000000000000000000000000000006001600160a01b03168152602090f35b346103b857611bff3661181a565b909160ff5f5460081c16156103b857611c17906131d6565b60405191611c2483610598565b6009835260208301906820a1a927a9a996ab1960b91b82526020604051611c4a81610598565b6005815201640312e302e360dc1b815260ff5f5460081c16156103b8576005610b48936100189651902091209061047f5561048055611195614aeb565b346103b85760203660031901126103b8576004356001600160401b0381116103b857611cb7903690600401610e42565b611cbf6135ef565b60ff61086b5460e01c166103b857610120810190611cdc82612aaa565b63ffffffff908142911610611dec57611cf8610ecd3684612be5565b90611d028261156d565b54611ddb57611d3a611d347f923794976d026d6b119735adc163cb71decfc903e17c3dc226c00789593c04e19361156d565b60019055565b611d46606084016129f0565b93611dce611d56608086016129f0565b94611d6d611d676101008301612aaa565b93612aaa565b90611d7b6101408201612aaa565b611d87604083016129f0565b611d90836129f0565b90611d9d602085016129f0565b92611dac610160860186612ae9565b9690956040519a8b9a169d60e08201359d60a060c0840135930135918c613332565b0390a36100186001606555565b604051624be79160e21b8152600490fd5b60405163d642b7d960e01b8152600490fd5b346103b85760203660031901126103b8577f2d5b62420992e5a4afce0e77742636ca2608ef58289fd2e1baa5161ef6e7e41e6020600435611e3e81610d59565b611e46613673565b611e4e6135ef565b61086b805460ff60e01b191691151560e081901b60ff60e01b16929092179055604051908152a16001606555005b346103b8575f3660031901126103b8576020604051468152f35b346103b8575f3660031901126103b857602063ffffffff61086b5460c01c16604051908152f35b346103b8575f3660031901126103b85760206040515f805160206157868339815191528152f35b5f5b838110611ef55750505f910152565b8181015183820152602001611ee6565b90602091611f1e81518092818552858086019101611ee4565b601f01601f1916010190565b6020808201906020835283518092526040830192602060408460051b8301019501935f915b848310611f5f5750505050505090565b9091929394958480611f7d600193603f198682030187528a51611f05565b9801930193019194939290611f4f565b346103b85760203660031901126103b857600480356001600160401b0381116103b857611fbe903690600401610b4d565b91611fc88361339c565b925f5b818110611fe45760405180611fe08782611f2a565b0390f35b5f80611ff18385886133e5565b9061200160405180938193613400565b0390305af461200e61340d565b90156120345790600191612022828861349a565b5261202d818761349a565b5001611fcb565b806044859251106103b8576103b89181015160248091830101910161343c565b60e03660031901126103b85760043561206c81610408565b6024359061207982610408565b6120816104ad565b9060a4356001600160401b0381116103b8576120a19036906004016106ed565b916120aa6135ef565b60ff61086b5460e81c166103b85761093e9363ffffffff421692606435916044359133613780565b346103b85760203660031901126103b85760206004356120f181610408565b60018060a01b038091165f52610c5c825260405f205416604051908152f35b346103b8575f3660031901126103b8576040516b1d6329f1c35ca4bfabb9f56160281b8152602090f35b346103b8576003196060368201126103b8576004356001600160401b038082116103b8576060823603938401126103b85760243590612178826104bd565b6044359081116103b857612190903690600401610b4d565b91909361219b6135ef565b60048401359061018219018112156103b857610f3a94612236936121c861222f9360043691890101612be5565b956121d9610bee60808901516103fc565b61221d6121e588613c91565b9160446121f560208b01516103fc565b916101608b0151946122056105f1565b9b8c5260208c0152013560408a015260608901612cc4565b60808701525f60a08701523691610722565b9083614b56565b61406e565b6122443661089e565b5094612255969394969291926135ef565b61086b5460ff8160e81c166103b85761229061228b6122848861227786611539565b905f5260205260405f2090565b5460ff1690565b612830565b6122ae6706f05b59d3b200006122a88560070b614adc565b10612830565b6122c86a0c097ce7bc90715b34b9f160241b891115612830565b63ffffffff906123076122dd83871642613197565b837f0000000000000000000000000000000000000000000000000000000000000000161015612830565b60c01c169561231d612318886131c1565b6131d6565b6001600160a01b037f000000000000000000000000000000000000000000000000000000000000000081169590899084168088148061240b575b156123e45750612368903414612830565b853b156103b8575f60049660405197888092630d0e30db60e41b825234905af19283156123df575f80516020615746833981519152966123b9946123c6575b505b604051958695339b4690886134ae565b0390a46100186001606555565b806123d36123d99261052f565b806103ae565b5f6123a7565b6131b6565b5f8051602061574683398151915297506123b994916124069130903390614a95565b6123a9565b50341515612357565b346103b85760203660031901126103b8576004355f52610872602052602060405f2054604051908152f35b346103b85760c03660031901126103b8576001600160401b036004358181116103b857612470903690600401610e42565b6064359061247d82610408565b6084358381116103b8576124959036906004016112ed565b9060a4359485116103b8576124b16100189536906004016112ed565b94909360443590602435906134f6565b346103b8575f3660031901126103b857602060ff61086b5460e01c166040519015158152f35b346103b8575f3660031901126103b8576040516a0c097ce7bc90715b34b9f160241b8152602090f35b346103b85760203660031901126103b85761093e60043561253081610408565b612538613673565b61119d6135ef565b346103b8575f3660031901126103b85761086a546040516001600160a01b039091168152602090f35b346103b8575f3660031901126103b857610c5a54604051602091821c6001600160a01b03168152f35b634e487b7160e01b5f52603260045260245ffd5b61086c80548210156125c2575f52600360205f20910201905f90565b612592565b346103b85760203660031901126103b85760043561086c548110156103b8576125f16040916125a6565b506001815491015482519182526020820152f35b346103b85760403660031901126103b85760043561262281610408565b6024359061262f82610408565b612637613673565b61263f6135ef565b6001600160a01b039081165f818152610c5c6020526040812080546001600160a01b03191694909316938417909255907ff3dc137d2246f9b8abd0bb821e185ba01122c9b3ea3745ffca6208037674d6709080a36001606555005b6101003660031901126103b8576004356126b381610408565b6024356126bf81610408565b6044356126cb81610408565b6126d361045a565b60c4356001600160401b0381116103b8576126f29036906004016106ed565b926126fb6135ef565b60ff61086b5460e81c166103b85761093e9463ffffffff4216936084359260643592613780565b9a98959391999694929097996127366135ef565b61273f81613600565b612747610610565b9b612752908d612cc4565b61275f8960208e01612cc4565b61276c9060408d01612cc4565b60608b015260808a01524660a08a015260070b60c089015260070b60e088015263ffffffff16610100878101919091526101209180838901526127ad610610565b97885260208801945f8652604089015f905260608901906127cd91612cc4565b60808801525f60a08801526b1d6329f1c35ca4bfabb9f56160281b60c08801525f1960e0880152600190870152850152835161280890614392565b90526128149183614be6565b61281d8161441d565b61282691614893565b6104266001606555565b156103b857565b916128406135ef565b6080820191612852610bee84516103fc565b602081019182514603610d4757610c3261287a91836001612872896125a6565b500154613917565b610d35578060607ff8bd640004bcec1b89657020f561d0b070cbdf662d0b158db9dccb0a8301bfab9201936128bc6128b6865163ffffffff1690565b876139a8565b61292d84519461291261290b8551956128fb60408201998a516128e38d5163ffffffff1690565b6128ed8a516103fc565b9160a086019b8c51946139fd565b5192519751985163ffffffff1690565b93516103fc565b935163ffffffff9485604051968796169a16983393866129a9565b0390a46104266001606555565b9081518082526020808093019301915f5b828110612959575050505090565b83518552938101939281019260010161294b565b9081518082526020808093019301915f5b82811061298c575050505090565b83516001600160a01b03168552938101939281019260010161297e565b936129cb608094936129e993989798875260a0602088015260a087019061293a565b6001600160a01b03938416604087015285810360608701529061296d565b9416910152565b3561070881610408565b919091610100818403126103b857612a10610630565b8135815260208083013590820152926001600160401b0360408301358181116103b85782612a3f918501610770565b6040860152612a5060608401610510565b6060860152612a616080840161044f565b608086015260a08301358181116103b85782612a7e918501610a25565b60a086015260c083013560c086015260e08301359081116103b857612aa392016106ed565b60e0830152565b35610708816104bd565b903590601e19813603018212156103b857018035906001600160401b0382116103b857602001918160051b360383136103b857565b903590601e19813603018212156103b857018035906001600160401b0382116103b8576020019181360383136103b857565b908060209392818452848401375f828201840152601f01601f1916010190565b94979592909998969399855260209160c060208701528160c087015260018060fb1b0382116103b8576101009160059493941b809160e08801376001600160a01b039a8b166040870152850185810360e0908101606088015281018390520196915f5b828110612bc15750505050610708959650608082015260a0818503910152612b1b565b9091929782806001928d8c35612bd681610408565b16815201990193929101612b9e565b9190610180838203126103b857612bfa610650565b92612c048161044f565b8452612c126020820161044f565b6020850152612c236040820161044f565b6040850152612c346060820161044f565b6060850152612c456080820161044f565b608085015260a081013560a085015260c081013560c085015260e081013560e0850152610100612c76818301610510565b90850152610120612c88818301610510565b90850152610140612c9a818301610510565b9085015261016091818301356001600160401b0381116103b857612cbe92016106ed565b90830152565b6001600160a01b039091169052565b610c5b80546001600160a01b0319166007602160991b01179055565b9a969290989799939591612d016135ef565b60ff61086b5460e01c166103b857612d17610610565b9b612d22908d612cc4565b612d2f8a60208e01612cc4565b612d3c9060408d01612cc4565b60608b015260808a01524660a08a015260070b60c0890152600787900b60e08901526101009485890190612d75919063ffffffff169052565b6101209581878a0152612d86610610565b9889525f60208a0190815260079890980b60408a0152612da99060608a01612cc4565b608088015260a087015260c086015260e085015283015f905282015f90528151612dd290614392565b905261281d8161441d565b9d9c9b959e93909698929a97919a612df36135ef565b60ff61086b5460e01c166103b8578e97612e0b610610565b98612e16908a612cc4565b612e239060208a01612cc4565b612e309060408901612cc4565b6060870152608086018890524660a087015260070b60c086015260070b60e085015263ffffffff851661010085810191909152916101209384860152612e74610610565b9485525f60208601908152600789900b6040870152949c898e60600190612e9a91612cc4565b8d8b608082015260a0015260c08d015260e08c01528a015f905289015f90528851612ec490614392565b905261281496614a31565b91909160ff5f5460081c16156103b857610c5a805463ffffffff1916624c4b40179055612efb906131d6565b60405191612f0883610598565b6009835260208301906820a1a927a9a996ab1960b91b82526020604051612f2e81610598565b6005815201640312e302e360dc1b815260ff5f5460081c16156103b8576005610b4893612f6b9651902091209061047f5561048055611195614aeb565b612f73612cd3565b610c5a8054600160201b600160c01b03191671deaddeaddeaddeaddeaddeaddeaddeaddead60301b179055565b979b95999196939b9a949890929a612fb66135ef565b61086b9960ff8b5460e81c166103b857612fd9610c326122848e6122778d611539565b6131715763ffffffff9d8e612ff081851642613197565b907f0000000000000000000000000000000000000000000000000000000000000000161061315f578e613045817f000000000000000000000000000000000000000000000000000000000000000016426131a9565b9085161161314d576001600160a01b039b7f00000000000000000000000000000000000000000000000000000000000000008d16828c8f1680831480613144575b156131315750340361311f57803b156103b8575f60049160405192838092630d0e30db60e41b825234905af180156123df5761310c575b505b5460c01c63ffffffff169e8f6130d4906131c1565b6130dd906131d6565b6040519c8d9c169f169d6130f19a8c6131fc565b035f805160206156c683398151915291a46104266001606555565b806123d36131199261052f565b5f6130bd565b604051636452a35d60e01b8152600490fd5b61313f925030903390614a95565b6130bf565b50341515613086565b60405163582e388960e01b8152600490fd5b60405163f722177f60e01b8152600490fd5b604051632a58c4f360e01b8152600490fd5b634e487b7160e01b5f52601160045260245ffd5b919082039182116131a457565b613183565b919082018092116131a457565b6040513d5f823e3d90fd5b63ffffffff8091169081146131a45760010190565b61086b805463ffffffff60c01b191660c09290921b63ffffffff60c01b16919091179055565b6001600160a01b03918216815291811660208301526040820192909252606081019290925263ffffffff928316608083015292821660a0820152921660c083015291821660e08201529116610100820152610140610120820181905261070893910191612b1b565b90929194936132716135ef565b8360070b916706f05b59d3b2000061328884614adc565b10156103b85763ffffffff826132c88861330595887fa6aa57bd282fc82378458de27be4eadfa791a0c7321c49562eeba8b2643dd5669a8d469089614a31565b6132f360018060a01b0391826040519889988952166020880152608060408801526080870190611f05565b92858403606087015216971695611f05565b0390a36001606555565b634e487b7160e01b5f52602160045260245ffd5b6003111561332d57565b61330f565b6001600160a01b03918216815291811660208301526040820192909252606081019290925263ffffffff92831660808301529290911660a082015291811660c083015291821660e08201529116610100820152610140610120820181905261070893910191612b1b565b906133a68261070b565b6133b360405191826105ce565b82815280926133c4601f199161070b565b01905f5b8281106133d457505050565b8060606020809385010152016133c8565b908210156125c2576133fc9160051b810190612ae9565b9091565b908092918237015f815290565b3d15613437573d9061341e8261069c565b9161342c60405193846105ce565b82523d5f602084013e565b606090565b6020818303126103b8578051906001600160401b0382116103b8570181601f820112156103b857805161346e8161069c565b9261347c60405194856105ce565b818452602082840101116103b8576107089160208085019101611ee4565b80518210156125c25760209160051b010190565b9360e0959361070898979363ffffffff938752602087015260070b604086015216606084015260018060a01b0380921660808401521660a08201528160c08201520190611f05565b94909693956135036135ef565b60ff61086b5460e01c166103b85761351d604087016129f0565b6001600160a01b0316331415806135d2575b610f445761353d3687612be5565b61354690613c91565b9761354f6105f1565b9861355a3689612be5565b8a5260208a0152604089018490526135758560608b01612cc4565b61358036848a6106b7565b60808a015260a0890152613593866129f0565b966135a16101008801612aaa565b9236906135ad926106b7565b9436906135b9926106b7565b9460e00135906135c8966149c2565b3361282691613dd3565b506135e06101408701612aaa565b63ffffffff429116101561352f565b6002606554146103b8576002606555565b6001600160a01b037f0000000000000000000000000000000000000000000000000000000000000000811691168114613637575b50565b4761363f5750565b4790803b156103b8575f90600460405180948193630d0e30db60e41b83525af180156123df5715613634576104269061052f565b610c5b546001600160a01b03908116903382900361371157602060049260405193848092636e296e4560e01b82525afa9081156123df575f916136d2575b61042692506136ca6136c5610869546103fc565b6103fc565b911614612830565b90506020823d602011613709575b816136ed602093836105ce565b810103126103b857610426915161370381610408565b906136b1565b3d91506136e0565b60405163253a6fc960e11b8152600490fd5b929361070896959192946101409560018060a01b0380951686525f60208701526040860152606085015263ffffffff809116608085015260a08401525f60c08401521660e08201525f610100820152816101208201520190611f05565b919596939492909261379b61228b612284886122778b611539565b60070b936137b46706f05b59d3b200006122a887614adc565b6137ce6a0c097ce7bc90715b34b9f160241b831115612830565b63ffffffff9361380d6137e3868b1642613197565b867f0000000000000000000000000000000000000000000000000000000000000000161015612830565b61086b5460c01c63ffffffff16986138276123188b6131c1565b6001600160a01b03957f00000000000000000000000000000000000000000000000000000000000000008716948a88168087148061390e575b156138e45750613871813414612830565b853b156103b8575f60049660405197888092630d0e30db60e41b825234905af180156123df575f805160206156c6833981519152996138cc976138bb926138d1575b505b82614c64565b91604051988998169c169a87613723565b0390a4565b806123d36138de9261052f565b5f6138b3565b6138cc96505f805160206156c683398151915299613909836138bb9330903390614a95565b6138b5565b50341515613860565b610708929160405161399f81613991602082019460208652805160408401526020810151606084015260a061395c604083015160c0608087015261010086019061293a565b606083015163ffffffff168583015260808301515f196001841b011660c0860152910151838203603f190160e085015261296d565b03601f1981018352826105ce565b51902091614c9a565b6139b36002916125a6565b500162ffffff8260081c16805f5281602052600160ff60405f205494161b80809416146139eb575f5260205260405f20908154179055565b60405163954476d960e01b8152600490fd5b9294939190938051825103613ace578151915f5b838110613a82575050505082613a28575b50505050565b63ffffffff81613a597f828fc203220356df8f072a91681caee7d5c75095e2a95e80ed5a14b384697f719386614d74565b604080519586523360208701526001600160a01b0391909116959190911693a45f808080613a22565b80613a8f6001928461349a565b5180613a9d575b5001613a11565b613ac890613abb613aae848861349a565b516001600160a01b031690565b848060a01b038916614d06565b5f613a96565b6040516319a5316760e31b8152600490fd5b6001600160a01b031680156103b85761086a80546001600160a01b031916821790557f1f17a88f67b0f49060a34bec1a4723a563620e6aa265eb640b5046dcee0759a05f80a2565b610708929160405161399f81613991602082019460208652805160408401526020810151606084015260408101519060e0613b716101009384608088015261014087019061293a565b606083015163ffffffff1660a087015291613b94608082015160c088019061107f565b613baf60a082015193603f19948589830301858a015261296d565b9360c08201519087015201519084830301610120850152611f05565b6107089161018090613bde81845161107f565b613bf06020840151602083019061107f565b613c026040840151604083019061107f565b613c146060840151606083019061107f565b613c266080840151608083019061107f565b60a083015160a082015260c083015160c082015260e083015160e0820152613c5c610100808501519083019063ffffffff169052565b6101208381015163ffffffff16908201526101408381015163ffffffff16908201528161016080940151938201520190611f05565b604051613cc281613cae6020820194604086526060830190613bcb565b46604083015203601f1981018352826105ce565b51902090565b613cd182613323565b52565b9060018060a01b038251168152606080613cfd6020850151608060208601526080850190611f05565b9360408101516040850152015191613d1483613323565b015290565b9a97909695613d88966107089d9b9660808e613d7d98613d979e986101809d60018060a01b03998a80921685521660208401526040830152606082015201528c60a063ffffffff8094169101521660c08c01521660e08a015261010089019061107f565b61012087019061107f565b80610140860152840190611f05565b91610160818403910152613cd4565b90610708949360809360018060a01b03809316845260208401521660408201528160608201520190611f05565b805191610120830190613dea825163ffffffff1690565b63ffffffff42911610611dec5760208301516001613e078261156d565b5403614067576001905b6002613e1c8261156d565b541461405557613e2b9061156d565b600290556060850151613e3d906103fc565b6080860151613e4b906103fc565b9260a0870151918660c0890151948960a08301519660e082015197610100830151613e799063ffffffff1690565b9a5163ffffffff1661014084015163ffffffff16906040850151613e9c906103fc565b928551613ea8906103fc565b946020870151613eb7906103fc565b9661016001519760608a0151613ecc906103fc565b996080810151906040015190613ee0610670565b9b613eeb908d612cc4565b60208c015260408b0152613f029060608b01613cc8565b6040516001600160a01b03909b169e63ffffffff169d9a9b8c9b613f269b8d613d19565b035f8051602061570683398151915291a46060810151613f45906103fc565b6001600160a01b038116923384148061404d575b613a22576080613f6a9101516103fc565b6040830151909390926080906001600160a01b0380871690869086907f000000000000000000000000000000000000000000000000000000000000000016830361403d5750613fbc9130903390614a95565b613fc68584615078565b0151913b151580614033575b613fdc5750505050565b803b156103b857614009935f809460405196879586948593633a5be8cb60e01b8552339160048601613da6565b03925af180156123df57614020575b808080613a22565b806123d361402d9261052f565b5f614018565b5081511515613fd2565b614048923390614a95565b613fc6565b506001613f59565b604051630479306360e51b8152600490fd5b5f90613e11565b905f82516101208101614085815163ffffffff1690565b63ffffffff42911610611dec57602085015160026140a28261156d565b5414614055576140b19061156d565b6002905560608201516140c3906103fc565b60808301516140d1906103fc565b9060a08401519260c0850151918860a0810151938760e0810151956101008201516140ff9063ffffffff1690565b955163ffffffff1661014083015163ffffffff166040840151614121906103fc565b91845161412d906103fc565b93602086015161413c906103fc565b956101600151966060890151614151906103fc565b986080810151906040015190614165610670565b9a614170908c612cc4565b60208b015260408a0152600260608a01526040519d63ffffffff8f9c169d6141989b8d613d19565b035f80516020615706833981519152905f94a460608401516141b9906103fc565b6001600160a01b039490918583169190338314806142e2575b6142d95760806141e39101516103fc565b9060408101519687818416917f00000000000000000000000000000000000000000000000000000000000000001682145f146142c2579060809291876142ae575b61422f915085615078565b0151923b1515806142a4575b614248575b505050509050565b813b156142a05783614274959660405196879586948593633a5be8cb60e01b8552339160048601613da6565b03925af180156123df5761428d575b8080808493614240565b806123d361429a9261052f565b5f614283565b8380fd5b508251151561423b565b6142bb9130903390614a95565b5f88614224565b6080929196506142d490865f98614d06565b61422f565b50505050509050565b505f6141d2565b908160209103126103b8575190565b610708916101409061430b81845161107f565b61431d6020840151602083019061107f565b61432f6040840151604083019061107f565b606083015160608201526080830151608082015260a083015160a082015261436160c084015160c083019060070b9052565b60e08381015160070b908201526101008381015163ffffffff16908201528161012080940151938201520190611f05565b604051613cc28161399160208201946020865260408301906142f8565b600791820b910b019060016001603f1b0319821260016001603f1b038313176131a457565b600160ff1b81146131a4575f0390565b6001600160a01b039182168152602081019290925291151560408201529116606082015260a06080820181905261070892910190611f05565b90815191604081019261445d6706f05b59d3b200008061444f61444a614444895160070b90565b60070b90565b614adc565b1090816147b2575b50612830565b6060810161447c6a0c097ce7bc90715b34b9f160241b82511115612830565b602083019061449761448e835161157c565b54825111612830565b60c08401928351966144c760c08301986144c16144b58b5160070b90565b845160070b5b906143af565b9061524a565b976144d3891515612830565b6144e984516144e2875161157c565b5490613197565b8981106147a8575b50614444614518926144bb61450a614512945160070b90565b915160070b90565b88614c64565b9361012086015180614756575b505060a08501518786519160a083015114918215614748575b5050801561472f575b61455090612830565b61455a835161157c565b6145658882546131a9565b9055606085019161457683516103fc565b926001600160a01b0392338486161480614718575b61470e5790604061460492019487856145a488516103fc565b16917f0000000000000000000000000000000000000000000000000000000000000000871683036146c5575050506145e3610c326101008a0151151590565b6146a6575b6145fe876145f96136c584516103fc565b615078565b516103fc565b91823b151580614698575b61461d575b50505050505050565b61462f614636916080941694516103fc565b945161157c565b549051111594015193813b156103b8575f809461466b604051978896879586946301d43f2760e31b86523392600487016143e4565b03925af180156123df57614685575b808080808080614614565b806123d36146929261052f565b5f61467a565b50608087015151151561460f565b6146c0876146b76136c588516103fc565b30903390614a95565b6145e8565b6146d6610c326101008d0151151590565b15614705575061470091506146ee6136c588516103fc565b6146f884516103fc565b903390614a95565b6145fe565b61470092614d06565b5050505050505050565b5061472a610c326101008a0151151590565b61458b565b50614550614741610100870151151590565b9050614547565b60600151149050875f61453e565b6147a1919561479161479792614777670de0b6b3a763ffff19821215612830565b61478c68056bc75e2d63100000821315612830565b6143d4565b90614c64565b9451851115612830565b5f80614525565b98506144446144f1565b90506147c861444a61444460c086015160070b90565b105f614457565b9060018060a01b0382511681526080806147f8602085015160a0602086015260a0850190611f05565b93604081015160070b6040850152606081015115156060850152015191015290565b9a97936107089c9a959197936148849a979360208e6101809b8152015260408d015260608c015260808b015260070b60a08a015260070b60c089015260018060a01b03928380921660e08a0152166101008801521661012086015280610140860152840190611f05565b916101608184039101526147cf565b9060408201516148a39060070b90565b9160608101516148b2906103fc565b9060808101519361010094858301516148ca90151590565b6101209283850151926148db61068f565b966148e69088612cc4565b602087015260070b604086015215156060850152608084015281516060015160208301516149139061157c565b549360a084015193519460808601519560a08101519160e08201516149389060070b90565b60c083015160070b9a83015163ffffffff169a6040840151614959906103fc565b918451614965906103fc565b986020860151614974906103fc565b950151956040519a8b9a600160a01b60019003169e63ffffffff169d339661499c9b8d61481a565b037f8ab9dc6c19fe88e69bc70221b339c84332752fdd49591b7c51e66bae3947b73c91a4565b9392614a2b93610426979660208151910120906040519263ffffffff60208501955f805160206157c68339815191528752166040850152856060850152608084015260018060a01b031660a083015260c082015260c08152614a23816105b3565b519020615298565b9061530b565b9392614a2b93610426979660208151910120906040519263ffffffff60208501955f80516020615786833981519152875216604085015285606085015260070b608084015260018060a01b031660a083015260c082015260c08152614a23816105b3565b6040516323b872dd60e01b60208201526001600160a01b03928316602482015292909116604483015260648083019390935291815261042691614ad782610562565b6153db565b5f8112614ae65790565b5f0390565b60ff5f5460081c16156103b857565b60ff5f5460081c16156103b8576001606555565b6001600160a01b031680156103b85761086980546001600160a01b031916821790557fa9e8c42c9e7fca7f62755189a16b2f5314d43d8fb24e91ba54e6d65f9314e8495f80a2565b91610c3290614bcf92845160408096015191865191614b7483610547565b825261399f614b8f60208401924684528985019586526125a6565b5054938851928391614bb46020840196602088525160608d86015260a0850190613bcb565b9151606084015251608083015203601f1981018352826105ce565b614bd65750565b5163582f497d60e11b8152600490fd5b80516101209091015160408051808201959492939092916001600160401b0387118488101761054257614c2e614c4f9361399f936128309984528652602086019687526125a6565b505494815193849260208401966020885251908085015260808401906142f8565b9051606083015203601f1981018352826105ce565b90670de0b6b3a7640000915f8284039212838312811690848413901516176131a4578181029181830414901517156131a4570490565b929091905f915b8451831015614ce357614cb4838661349a565b519081811015614cd2575f52602052600160405f205b920191614ca1565b905f52602052600160405f20614cca565b915092501490565b6001600160a01b039091168152602081019190915260400190565b614ad76104269392614d2d60405194859263a9059cbb60e01b602085015260248401614ceb565b03601f1981018452836105ce565b9260c0949163ffffffff9360018060a01b038092168652166020850152604084015216606082015260a060808201525f60a08201520190565b906001600160a01b0390818116907f000000000000000000000000000000000000000000000000000000000000000083168203614ed25750803b156103b857604051632e1a7d4d60e01b815260048101849052905f908290602490829084905af180156123df57614ebf575b50610c5a5490808260201c16614df861086a546103fc565b926010602160991b0190813b156103b8575f9163ffffffff878093614e36604051998a9687958694631474f2a960e31b865216918a60048601614d3b565b03925af19283156123df575f805160206157a683398151915293614eac575b505b614ea7614e6661086a546103fc565b94614e77610c5a5463ffffffff1690565b604080516001600160a01b039098168852602088019290925263ffffffff16908601529116929081906060820190565b0390a2565b806123d3614eb99261052f565b5f614e55565b806123d3614ecc9261052f565b5f614de0565b9190817f00000000000000000000000000000000000000000000000000000000000000001615158061504d575b15614f2e57505f805160206157a683398151915291614f2984614f2461086a546103fc565b615489565b614e57565b738700daec35af8ff88c16bdf0418774cb3d7599b403614fcd57614f5461086a546103fc565b9173136b1ec699c62b0606854056f02dc7bb80482d63803b156103b857845f91614f95958360405180988195829463040b850f60e31b845260048401614ceb565b03925af19283156123df575f805160206157a683398151915293614fba575b50614e57565b806123d3614fc79261052f565b5f614fb4565b80614fe7614fda84611553565b546001600160a01b031690565b1661503b57806010602160991b015b169161500461086a546103fc565b610c5a5463ffffffff16843b156103b857614f9594865f809460405198899586948593631474f2a960e31b85528a60048601614d3b565b80615048614fda84611553565b614ff6565b50817f0000000000000000000000000000000000000000000000000000000000000000168114614eff565b6001600160a01b0390811690813b156150b8579061042692917f000000000000000000000000000000000000000000000000000000000000000016614d06565b7f000000000000000000000000000000000000000000000000000000000000000016803b156103b8575f8091602460405180948193632e1a7d4d60e01b83528860048401525af180156123df5761512a575b508147106103b8575f80809381935af161512261340d565b50156103b857565b6151339061052f565b5f61510a565b61514281615216565b6001600160a01b0381165f805160206157668339815191525f80a28151158015906151d1575b615170575050565b5f8061363493660819985a5b195960ca1b6040805161518e81610547565b602781527f416464726573733a206c6f772d6c6576656c2064656c65676174652063616c6c60208201520152602081519101845af46151cb61340d565b9161562b565b505f615168565b6151e181615216565b6001600160a01b0381165f805160206157668339815191525f80a281511580159061520e57615170575050565b506001615168565b803b156103b8575f8051602061572683398151915280546001600160a01b0319166001600160a01b03909216919091179055565b670de0b6b3a76400009181830291838304036131a45760070b808303925f8212818512811690828613901516176131a45714615284570490565b634e487b7160e01b5f52601260045260245ffd5b60429161047f549061048054906040519160208301937fc2f8787176b8ac6bf7215b4adcc1e069bf4ab82d9ab1df05a57a91d425935b6e8552604084015260608301526080820152608081526152ed81610562565b519020906040519161190160f01b8352600283015260228201522090565b919061531782826155fa565b939092600585101561332d57610426941593846153c5575b50831561533f575b505050612830565b5f929350908291604051615377816139916020820194630b135d3f60e11b998a87526024840152604060448401526064830190611f05565b51915afa9061538461340d565b826153b7575b8261539a575b50505f8080615337565b6153af919250602080825183010191016142e9565b145f80615390565b91506020825110159161538a565b6001600160a01b0383811691161493505f61532f565b905f806154319360018060a01b0316927f5361666545524332303a206c6f772d6c6576656c2063616c6c206661696c6564602060405161541a81610598565b818152015260208151910182855af16151cb61340d565b8051908115918215615447575b5050156103b857565b81925090602091810103126103b8576020015161546381610d59565b5f8061543e565b908160209103126103b857516001600160401b03811681036103b85790565b604051636eb1769f60e11b81523060048201526001600160a01b037f00000000000000000000000000000000000000000000000000000000000000008116602483018190526020947f00000000000000000000000000000000000000000000000000000000000000008084169591939187866044818a5afa9586156123df57614d2d5f93614ad7615527898d9b6155439689916155dd575b506131a9565b60405163095ea7b360e01b8c8201529384918a60248401614ceb565b6040516337e9a82760e11b815260048101959095527f000000000000000000000000000000000000000000000000000000000000000063ffffffff1660248601529190911660448401526001600160a01b039490941660648301529092839160849183915af180156123df576155b7575050565b8161363492903d106155d6575b6155ce81836105ce565b81019061546a565b503d6155c4565b6155f491508d803d106110785761106981836105ce565b5f615521565b9060418151145f14615622576133fc91602082015190606060408401519301515f1a90615654565b50505f90600290565b90156156455781511561563c575090565b3b156103b85790565b5080519081156103b857602001fd5b6fa2a8918ca85bafe22016d0b997e4df60600160ff1b0384116156ba576020935f9360ff60809460405194855216868401526040830152606082015282805260015afa156123df575f516001600160a01b038116156156b257905f90565b505f90600190565b505050505f9060039056fea123dc29aebf7d0c3322c8eeb5b999e859f39937950ed31056532713d0de396f4910fdfa16fed3260ed0e7147f7cc6da11a60208b5b9406d12a635614ffd9143571749edf1d5c9599318cdbc4e28a6475d65e87fd3b2ddbe1e9a8d5e7a0f0ff7360894a13ba1a3210667c828492db98dca3e2076cc3735a920a3ca505d382bbcafc4df6845a4ab948b492800d3d8a25d538a102a2bc07cd01f1cfa097fddcff6bc7cd75a20ee27fd9adebab32041f755214dbc6bffa90cc0225b39da2e5c2d3b0e058f05b73c62ee68329d2c67c067aaae9a06503cc306378d144d0f0177882b46b77e3c29797b94890fd3438da74f697480742358a3e26b9d13a227f1ac0ac9152eb71524aef34d838ab76573c14b1ebfa5e385d9ab29d7cf5398daa2438bd9a26469706673582212203f60c820e7497886efb7aa27ff7f869b7ab30474959f87672d6d533351daab6c64736f6c63430008170033"
}