{
  "address": "0x82B564983aE7274c86695917BBf8C99ECb6F0F8F",
  "abi": [
    {
      "inputs": [
        {
          "internalType": "address",
          "name": "_wrappedNativeTokenAddress",
          "type": "address"
        },
        {
          "internalType": "uint32",
          "name": "_depositQuoteTimeBuffer",
          "type": "uint32"
        },
        {
          "internalType": "uint32",
          "name": "_fillDeadlineBuffer",
          "type": "uint32"
        },
        {
          "internalType": "contract IERC20",
          "name": "_l2Usdc",
          "type": "address"
        },
        {
          "internalType": "contract ITokenMessenger",
          "name": "_cctpTokenMessenger",
          "type": "address"
        }
      ],
      "stateMutability": "nonpayable",
      "type": "constructor"
    },
    {
      "inputs": [],
      "name": "ClaimedMerkleLeaf",
      "type": "error"
    },
    {
      "inputs": [],
      "name": "DisabledRoute",
      "type": "error"
    },
    {
      "inputs": [],
      "name": "ExpiredFillDeadline",
      "type": "error"
    },
    {
      "inputs": [],
      "name": "InvalidChainId",
      "type": "error"
    },
    {
      "inputs": [],
      "name": "InvalidExclusiveRelayer",
      "type": "error"
    },
    {
      "inputs": [],
      "name": "InvalidExclusivityDeadline",
      "type": "error"
    },
    {
      "inputs": [],
      "name": "InvalidFillDeadline",
      "type": "error"
    },
    {
      "inputs": [],
      "name": "InvalidMerkleLeaf",
      "type": "error"
    },
    {
      "inputs": [],
      "name": "InvalidMerkleProof",
      "type": "error"
    },
    {
      "inputs": [],
      "name": "InvalidPayoutAdjustmentPct",
      "type": "error"
    },
    {
      "inputs": [],
      "name": "InvalidQuoteTimestamp",
      "type": "error"
    },
    {
      "inputs": [],
      "name": "InvalidSlowFillRequest",
      "type": "error"
    },
    {
      "inputs": [],
      "name": "MsgValueDoesNotMatchInputAmount",
      "type": "error"
    },
    {
      "inputs": [],
      "name": "NoSlowFillsInExclusivityWindow",
      "type": "error"
    },
    {
      "inputs": [],
      "name": "NotCrossChainCall",
      "type": "error"
    },
    {
      "inputs": [],
      "name": "NotEOA",
      "type": "error"
    },
    {
      "inputs": [],
      "name": "NotExclusiveRelayer",
      "type": "error"
    },
    {
      "inputs": [],
      "name": "RelayFilled",
      "type": "error"
    },
    {
      "anonymous": false,
      "inputs": [
        {
          "indexed": false,
          "internalType": "address",
          "name": "previousAdmin",
          "type": "address"
        },
        {
          "indexed": false,
          "internalType": "address",
          "name": "newAdmin",
          "type": "address"
        }
      ],
      "name": "AdminChanged",
      "type": "event"
    },
    {
      "anonymous": false,
      "inputs": [
        {
          "indexed": true,
          "internalType": "address",
          "name": "beacon",
          "type": "address"
        }
      ],
      "name": "BeaconUpgraded",
      "type": "event"
    },
    {
      "anonymous": false,
      "inputs": [
        {
          "indexed": true,
          "internalType": "uint256",
          "name": "rootBundleId",
          "type": "uint256"
        }
      ],
      "name": "EmergencyDeleteRootBundle",
      "type": "event"
    },
    {
      "anonymous": false,
      "inputs": [
        {
          "indexed": true,
          "internalType": "address",
          "name": "originToken",
          "type": "address"
        },
        {
          "indexed": true,
          "internalType": "uint256",
          "name": "destinationChainId",
          "type": "uint256"
        },
        {
          "indexed": false,
          "internalType": "bool",
          "name": "enabled",
          "type": "bool"
        }
      ],
      "name": "EnabledDepositRoute",
      "type": "event"
    },
    {
      "anonymous": false,
      "inputs": [
        {
          "indexed": false,
          "internalType": "uint256",
          "name": "amountToReturn",
          "type": "uint256"
        },
        {
          "indexed": true,
          "internalType": "uint256",
          "name": "chainId",
          "type": "uint256"
        },
        {
          "indexed": false,
          "internalType": "uint256[]",
          "name": "refundAmounts",
          "type": "uint256[]"
        },
        {
          "indexed": true,
          "internalType": "uint32",
          "name": "rootBundleId",
          "type": "uint32"
        },
        {
          "indexed": true,
          "internalType": "uint32",
          "name": "leafId",
          "type": "uint32"
        },
        {
          "indexed": false,
          "internalType": "address",
          "name": "l2TokenAddress",
          "type": "address"
        },
        {
          "indexed": false,
          "internalType": "address[]",
          "name": "refundAddresses",
          "type": "address[]"
        },
        {
          "indexed": false,
          "internalType": "address",
          "name": "caller",
          "type": "address"
        }
      ],
      "name": "ExecutedRelayerRefundRoot",
      "type": "event"
    },
    {
      "anonymous": false,
      "inputs": [
        {
          "indexed": false,
          "internalType": "uint256",
          "name": "amountToReturn",
          "type": "uint256"
        },
        {
          "indexed": true,
          "internalType": "uint256",
          "name": "chainId",
          "type": "uint256"
        },
        {
          "indexed": false,
          "internalType": "uint256[]",
          "name": "refundAmounts",
          "type": "uint256[]"
        },
        {
          "indexed": true,
          "internalType": "uint32",
          "name": "rootBundleId",
          "type": "uint32"
        },
        {
          "indexed": true,
          "internalType": "uint32",
          "name": "leafId",
          "type": "uint32"
        },
        {
          "indexed": false,
          "internalType": "address",
          "name": "l2TokenAddress",
          "type": "address"
        },
        {
          "indexed": false,
          "internalType": "address[]",
          "name": "refundAddresses",
          "type": "address[]"
        },
        {
          "indexed": false,
          "internalType": "bytes32",
          "name": "fillsRefundedRoot",
          "type": "bytes32"
        },
        {
          "indexed": false,
          "internalType": "string",
          "name": "fillsRefundedIpfsHash",
          "type": "string"
        }
      ],
      "name": "ExecutedV3RelayerRefundRoot",
      "type": "event"
    },
    {
      "anonymous": false,
      "inputs": [
        {
          "indexed": false,
          "internalType": "uint256",
          "name": "amount",
          "type": "uint256"
        },
        {
          "indexed": false,
          "internalType": "uint256",
          "name": "totalFilledAmount",
          "type": "uint256"
        },
        {
          "indexed": false,
          "internalType": "uint256",
          "name": "fillAmount",
          "type": "uint256"
        },
        {
          "indexed": false,
          "internalType": "uint256",
          "name": "repaymentChainId",
          "type": "uint256"
        },
        {
          "indexed": true,
          "internalType": "uint256",
          "name": "originChainId",
          "type": "uint256"
        },
        {
          "indexed": false,
          "internalType": "uint256",
          "name": "destinationChainId",
          "type": "uint256"
        },
        {
          "indexed": false,
          "internalType": "int64",
          "name": "relayerFeePct",
          "type": "int64"
        },
        {
          "indexed": false,
          "internalType": "int64",
          "name": "realizedLpFeePct",
          "type": "int64"
        },
        {
          "indexed": true,
          "internalType": "uint32",
          "name": "depositId",
          "type": "uint32"
        },
        {
          "indexed": false,
          "internalType": "address",
          "name": "destinationToken",
          "type": "address"
        },
        {
          "indexed": false,
          "internalType": "address",
          "name": "relayer",
          "type": "address"
        },
        {
          "indexed": true,
          "internalType": "address",
          "name": "depositor",
          "type": "address"
        },
        {
          "indexed": false,
          "internalType": "address",
          "name": "recipient",
          "type": "address"
        },
        {
          "indexed": false,
          "internalType": "bytes",
          "name": "message",
          "type": "bytes"
        },
        {
          "components": [
            {
              "internalType": "address",
              "name": "recipient",
              "type": "address"
            },
            {
              "internalType": "bytes",
              "name": "message",
              "type": "bytes"
            },
            {
              "internalType": "int64",
              "name": "relayerFeePct",
              "type": "int64"
            },
            {
              "internalType": "bool",
              "name": "isSlowRelay",
              "type": "bool"
            },
            {
              "internalType": "int256",
              "name": "payoutAdjustmentPct",
              "type": "int256"
            }
          ],
          "indexed": false,
          "internalType": "struct SpokePool.RelayExecutionInfo",
          "name": "updatableRelayData",
          "type": "tuple"
        }
      ],
      "name": "FilledRelay",
      "type": "event"
    },
    {
      "anonymous": false,
      "inputs": [
        {
          "indexed": false,
          "internalType": "address",
          "name": "inputToken",
          "type": "address"
        },
        {
          "indexed": false,
          "internalType": "address",
          "name": "outputToken",
          "type": "address"
        },
        {
          "indexed": false,
          "internalType": "uint256",
          "name": "inputAmount",
          "type": "uint256"
        },
        {
          "indexed": false,
          "internalType": "uint256",
          "name": "outputAmount",
          "type": "uint256"
        },
        {
          "indexed": false,
          "internalType": "uint256",
          "name": "repaymentChainId",
          "type": "uint256"
        },
        {
          "indexed": true,
          "internalType": "uint256",
          "name": "originChainId",
          "type": "uint256"
        },
        {
          "indexed": true,
          "internalType": "uint32",
          "name": "depositId",
          "type": "uint32"
        },
        {
          "indexed": false,
          "internalType": "uint32",
          "name": "fillDeadline",
          "type": "uint32"
        },
        {
          "indexed": false,
          "internalType": "uint32",
          "name": "exclusivityDeadline",
          "type": "uint32"
        },
        {
          "indexed": false,
          "internalType": "address",
          "name": "exclusiveRelayer",
          "type": "address"
        },
        {
          "indexed": true,
          "internalType": "address",
          "name": "relayer",
          "type": "address"
        },
        {
          "indexed": false,
          "internalType": "address",
          "name": "depositor",
          "type": "address"
        },
        {
          "indexed": false,
          "internalType": "address",
          "name": "recipient",
          "type": "address"
        },
        {
          "indexed": false,
          "internalType": "bytes",
          "name": "message",
          "type": "bytes"
        },
        {
          "components": [
            {
              "internalType": "address",
              "name": "updatedRecipient",
              "type": "address"
            },
            {
              "internalType": "bytes",
              "name": "updatedMessage",
              "type": "bytes"
            },
            {
              "internalType": "uint256",
              "name": "updatedOutputAmount",
              "type": "uint256"
            },
            {
              "internalType": "enum V3SpokePoolInterface.FillType",
              "name": "fillType",
              "type": "uint8"
            }
          ],
          "indexed": false,
          "internalType": "struct V3SpokePoolInterface.V3RelayExecutionEventInfo",
          "name": "relayExecutionInfo",
          "type": "tuple"
        }
      ],
      "name": "FilledV3Relay",
      "type": "event"
    },
    {
      "anonymous": false,
      "inputs": [
        {
          "indexed": false,
          "internalType": "uint256",
          "name": "amount",
          "type": "uint256"
        },
        {
          "indexed": false,
          "internalType": "uint256",
          "name": "originChainId",
          "type": "uint256"
        },
        {
          "indexed": true,
          "internalType": "uint256",
          "name": "destinationChainId",
          "type": "uint256"
        },
        {
          "indexed": false,
          "internalType": "int64",
          "name": "relayerFeePct",
          "type": "int64"
        },
        {
          "indexed": true,
          "internalType": "uint32",
          "name": "depositId",
          "type": "uint32"
        },
        {
          "indexed": false,
          "internalType": "uint32",
          "name": "quoteTimestamp",
          "type": "uint32"
        },
        {
          "indexed": false,
          "internalType": "address",
          "name": "originToken",
          "type": "address"
        },
        {
          "indexed": false,
          "internalType": "address",
          "name": "recipient",
          "type": "address"
        },
        {
          "indexed": true,
          "internalType": "address",
          "name": "depositor",
          "type": "address"
        },
        {
          "indexed": false,
          "internalType": "bytes",
          "name": "message",
          "type": "bytes"
        }
      ],
      "name": "FundsDeposited",
      "type": "event"
    },
    {
      "anonymous": false,
      "inputs": [
        {
          "indexed": false,
          "internalType": "uint8",
          "name": "version",
          "type": "uint8"
        }
      ],
      "name": "Initialized",
      "type": "event"
    },
    {
      "anonymous": false,
      "inputs": [
        {
          "indexed": true,
          "internalType": "address",
          "name": "l2Token",
          "type": "address"
        },
        {
          "indexed": false,
          "internalType": "address",
          "name": "target",
          "type": "address"
        },
        {
          "indexed": false,
          "internalType": "uint256",
          "name": "numberOfTokensBridged",
          "type": "uint256"
        },
        {
          "indexed": false,
          "internalType": "uint256",
          "name": "l1Gas",
          "type": "uint256"
        }
      ],
      "name": "OptimismTokensBridged",
      "type": "event"
    },
    {
      "anonymous": false,
      "inputs": [
        {
          "indexed": false,
          "internalType": "bool",
          "name": "isPaused",
          "type": "bool"
        }
      ],
      "name": "PausedDeposits",
      "type": "event"
    },
    {
      "anonymous": false,
      "inputs": [
        {
          "indexed": false,
          "internalType": "bool",
          "name": "isPaused",
          "type": "bool"
        }
      ],
      "name": "PausedFills",
      "type": "event"
    },
    {
      "anonymous": false,
      "inputs": [
        {
          "indexed": true,
          "internalType": "address",
          "name": "relayer",
          "type": "address"
        },
        {
          "indexed": false,
          "internalType": "address",
          "name": "refundToken",
          "type": "address"
        },
        {
          "indexed": false,
          "internalType": "uint256",
          "name": "amount",
          "type": "uint256"
        },
        {
          "indexed": true,
          "internalType": "uint256",
          "name": "originChainId",
          "type": "uint256"
        },
        {
          "indexed": false,
          "internalType": "uint256",
          "name": "destinationChainId",
          "type": "uint256"
        },
        {
          "indexed": false,
          "internalType": "int64",
          "name": "realizedLpFeePct",
          "type": "int64"
        },
        {
          "indexed": true,
          "internalType": "uint32",
          "name": "depositId",
          "type": "uint32"
        },
        {
          "indexed": false,
          "internalType": "uint256",
          "name": "fillBlock",
          "type": "uint256"
        },
        {
          "indexed": false,
          "internalType": "uint256",
          "name": "previousIdenticalRequests",
          "type": "uint256"
        }
      ],
      "name": "RefundRequested",
      "type": "event"
    },
    {
      "anonymous": false,
      "inputs": [
        {
          "indexed": true,
          "internalType": "uint32",
          "name": "rootBundleId",
          "type": "uint32"
        },
        {
          "indexed": true,
          "internalType": "bytes32",
          "name": "relayerRefundRoot",
          "type": "bytes32"
        },
        {
          "indexed": true,
          "internalType": "bytes32",
          "name": "slowRelayRoot",
          "type": "bytes32"
        }
      ],
      "name": "RelayedRootBundle",
      "type": "event"
    },
    {
      "anonymous": false,
      "inputs": [
        {
          "indexed": false,
          "internalType": "int64",
          "name": "newRelayerFeePct",
          "type": "int64"
        },
        {
          "indexed": true,
          "internalType": "uint32",
          "name": "depositId",
          "type": "uint32"
        },
        {
          "indexed": true,
          "internalType": "address",
          "name": "depositor",
          "type": "address"
        },
        {
          "indexed": false,
          "internalType": "address",
          "name": "updatedRecipient",
          "type": "address"
        },
        {
          "indexed": false,
          "internalType": "bytes",
          "name": "updatedMessage",
          "type": "bytes"
        },
        {
          "indexed": false,
          "internalType": "bytes",
          "name": "depositorSignature",
          "type": "bytes"
        }
      ],
      "name": "RequestedSpeedUpDeposit",
      "type": "event"
    },
    {
      "anonymous": false,
      "inputs": [
        {
          "indexed": false,
          "internalType": "uint256",
          "name": "updatedOutputAmount",
          "type": "uint256"
        },
        {
          "indexed": true,
          "internalType": "uint32",
          "name": "depositId",
          "type": "uint32"
        },
        {
          "indexed": true,
          "internalType": "address",
          "name": "depositor",
          "type": "address"
        },
        {
          "indexed": false,
          "internalType": "address",
          "name": "updatedRecipient",
          "type": "address"
        },
        {
          "indexed": false,
          "internalType": "bytes",
          "name": "updatedMessage",
          "type": "bytes"
        },
        {
          "indexed": false,
          "internalType": "bytes",
          "name": "depositorSignature",
          "type": "bytes"
        }
      ],
      "name": "RequestedSpeedUpV3Deposit",
      "type": "event"
    },
    {
      "anonymous": false,
      "inputs": [
        {
          "indexed": false,
          "internalType": "address",
          "name": "inputToken",
          "type": "address"
        },
        {
          "indexed": false,
          "internalType": "address",
          "name": "outputToken",
          "type": "address"
        },
        {
          "indexed": false,
          "internalType": "uint256",
          "name": "inputAmount",
          "type": "uint256"
        },
        {
          "indexed": false,
          "internalType": "uint256",
          "name": "outputAmount",
          "type": "uint256"
        },
        {
          "indexed": true,
          "internalType": "uint256",
          "name": "originChainId",
          "type": "uint256"
        },
        {
          "indexed": true,
          "internalType": "uint32",
          "name": "depositId",
          "type": "uint32"
        },
        {
          "indexed": false,
          "internalType": "uint32",
          "name": "fillDeadline",
          "type": "uint32"
        },
        {
          "indexed": false,
          "internalType": "uint32",
          "name": "exclusivityDeadline",
          "type": "uint32"
        },
        {
          "indexed": false,
          "internalType": "address",
          "name": "exclusiveRelayer",
          "type": "address"
        },
        {
          "indexed": false,
          "internalType": "address",
          "name": "depositor",
          "type": "address"
        },
        {
          "indexed": false,
          "internalType": "address",
          "name": "recipient",
          "type": "address"
        },
        {
          "indexed": false,
          "internalType": "bytes",
          "name": "message",
          "type": "bytes"
        }
      ],
      "name": "RequestedV3SlowFill",
      "type": "event"
    },
    {
      "anonymous": false,
      "inputs": [
        {
          "indexed": true,
          "internalType": "address",
          "name": "newHubPool",
          "type": "address"
        }
      ],
      "name": "SetHubPool",
      "type": "event"
    },
    {
      "anonymous": false,
      "inputs": [
        {
          "indexed": true,
          "internalType": "uint32",
          "name": "newL1Gas",
          "type": "uint32"
        }
      ],
      "name": "SetL1Gas",
      "type": "event"
    },
    {
      "anonymous": false,
      "inputs": [
        {
          "indexed": true,
          "internalType": "address",
          "name": "l2Token",
          "type": "address"
        },
        {
          "indexed": true,
          "internalType": "address",
          "name": "tokenBridge",
          "type": "address"
        }
      ],
      "name": "SetL2TokenBridge",
      "type": "event"
    },
    {
      "anonymous": false,
      "inputs": [
        {
          "indexed": true,
          "internalType": "address",
          "name": "newAdmin",
          "type": "address"
        }
      ],
      "name": "SetXDomainAdmin",
      "type": "event"
    },
    {
      "anonymous": false,
      "inputs": [
        {
          "indexed": false,
          "internalType": "uint256",
          "name": "amountToReturn",
          "type": "uint256"
        },
        {
          "indexed": true,
          "internalType": "uint256",
          "name": "chainId",
          "type": "uint256"
        },
        {
          "indexed": true,
          "internalType": "uint32",
          "name": "leafId",
          "type": "uint32"
        },
        {
          "indexed": true,
          "internalType": "address",
          "name": "l2TokenAddress",
          "type": "address"
        },
        {
          "indexed": false,
          "internalType": "address",
          "name": "caller",
          "type": "address"
        }
      ],
      "name": "TokensBridged",
      "type": "event"
    },
    {
      "anonymous": false,
      "inputs": [
        {
          "indexed": true,
          "internalType": "address",
          "name": "implementation",
          "type": "address"
        }
      ],
      "name": "Upgraded",
      "type": "event"
    },
    {
      "anonymous": false,
      "inputs": [
        {
          "indexed": false,
          "internalType": "address",
          "name": "inputToken",
          "type": "address"
        },
        {
          "indexed": false,
          "internalType": "address",
          "name": "outputToken",
          "type": "address"
        },
        {
          "indexed": false,
          "internalType": "uint256",
          "name": "inputAmount",
          "type": "uint256"
        },
        {
          "indexed": false,
          "internalType": "uint256",
          "name": "outputAmount",
          "type": "uint256"
        },
        {
          "indexed": true,
          "internalType": "uint256",
          "name": "destinationChainId",
          "type": "uint256"
        },
        {
          "indexed": true,
          "internalType": "uint32",
          "name": "depositId",
          "type": "uint32"
        },
        {
          "indexed": false,
          "internalType": "uint32",
          "name": "quoteTimestamp",
          "type": "uint32"
        },
        {
          "indexed": false,
          "internalType": "uint32",
          "name": "fillDeadline",
          "type": "uint32"
        },
        {
          "indexed": false,
          "internalType": "uint32",
          "name": "exclusivityDeadline",
          "type": "uint32"
        },
        {
          "indexed": true,
          "internalType": "address",
          "name": "depositor",
          "type": "address"
        },
        {
          "indexed": false,
          "internalType": "address",
          "name": "recipient",
          "type": "address"
        },
        {
          "indexed": false,
          "internalType": "address",
          "name": "exclusiveRelayer",
          "type": "address"
        },
        {
          "indexed": false,
          "internalType": "bytes",
          "name": "message",
          "type": "bytes"
        }
      ],
      "name": "V3FundsDeposited",
      "type": "event"
    },
    {
      "inputs": [],
      "name": "EMPTY_RELAYER",
      "outputs": [
        {
          "internalType": "address",
          "name": "",
          "type": "address"
        }
      ],
      "stateMutability": "view",
      "type": "function"
    },
    {
      "inputs": [],
      "name": "EMPTY_REPAYMENT_CHAIN_ID",
      "outputs": [
        {
          "internalType": "uint256",
          "name": "",
          "type": "uint256"
        }
      ],
      "stateMutability": "view",
      "type": "function"
    },
    {
      "inputs": [],
      "name": "INFINITE_FILL_DEADLINE",
      "outputs": [
        {
          "internalType": "uint32",
          "name": "",
          "type": "uint32"
        }
      ],
      "stateMutability": "view",
      "type": "function"
    },
    {
      "inputs": [],
      "name": "MAX_TRANSFER_SIZE",
      "outputs": [
        {
          "internalType": "uint256",
          "name": "",
          "type": "uint256"
        }
      ],
      "stateMutability": "view",
      "type": "function"
    },
    {
      "inputs": [],
      "name": "MESSENGER",
      "outputs": [
        {
          "internalType": "address",
          "name": "",
          "type": "address"
        }
      ],
      "stateMutability": "view",
      "type": "function"
    },
    {
      "inputs": [],
      "name": "SLOW_FILL_MAX_TOKENS_TO_SEND",
      "outputs": [
        {
          "internalType": "uint256",
          "name": "",
          "type": "uint256"
        }
      ],
      "stateMutability": "view",
      "type": "function"
    },
    {
      "inputs": [],
      "name": "UPDATE_DEPOSIT_DETAILS_HASH",
      "outputs": [
        {
          "internalType": "bytes32",
          "name": "",
          "type": "bytes32"
        }
      ],
      "stateMutability": "view",
      "type": "function"
    },
    {
      "inputs": [],
      "name": "UPDATE_V3_DEPOSIT_DETAILS_HASH",
      "outputs": [
        {
          "internalType": "bytes32",
          "name": "",
          "type": "bytes32"
        }
      ],
      "stateMutability": "view",
      "type": "function"
    },
    {
      "inputs": [
        {
          "internalType": "uint32",
          "name": "_initialDepositId",
          "type": "uint32"
        },
        {
          "internalType": "address",
          "name": "_crossDomainAdmin",
          "type": "address"
        },
        {
          "internalType": "address",
          "name": "_hubPool",
          "type": "address"
        },
        {
          "internalType": "address",
          "name": "_l2Eth",
          "type": "address"
        }
      ],
      "name": "__OvmSpokePool_init",
      "outputs": [],
      "stateMutability": "nonpayable",
      "type": "function"
    },
    {
      "inputs": [
        {
          "internalType": "uint32",
          "name": "_initialDepositId",
          "type": "uint32"
        },
        {
          "internalType": "address",
          "name": "_crossDomainAdmin",
          "type": "address"
        },
        {
          "internalType": "address",
          "name": "_hubPool",
          "type": "address"
        }
      ],
      "name": "__SpokePool_init",
      "outputs": [],
      "stateMutability": "nonpayable",
      "type": "function"
    },
    {
      "inputs": [],
      "name": "cctpTokenMessenger",
      "outputs": [
        {
          "internalType": "contract ITokenMessenger",
          "name": "",
          "type": "address"
        }
      ],
      "stateMutability": "view",
      "type": "function"
    },
    {
      "inputs": [],
      "name": "chainId",
      "outputs": [
        {
          "internalType": "uint256",
          "name": "",
          "type": "uint256"
        }
      ],
      "stateMutability": "view",
      "type": "function"
    },
    {
      "inputs": [],
      "name": "crossDomainAdmin",
      "outputs": [
        {
          "internalType": "address",
          "name": "",
          "type": "address"
        }
      ],
      "stateMutability": "view",
      "type": "function"
    },
    {
      "inputs": [
        {
          "internalType": "address",
          "name": "recipient",
          "type": "address"
        },
        {
          "internalType": "address",
          "name": "originToken",
          "type": "address"
        },
        {
          "internalType": "uint256",
          "name": "amount",
          "type": "uint256"
        },
        {
          "internalType": "uint256",
          "name": "destinationChainId",
          "type": "uint256"
        },
        {
          "internalType": "int64",
          "name": "relayerFeePct",
          "type": "int64"
        },
        {
          "internalType": "uint32",
          "name": "quoteTimestamp",
          "type": "uint32"
        },
        {
          "internalType": "bytes",
          "name": "message",
          "type": "bytes"
        },
        {
          "internalType": "uint256",
          "name": "",
          "type": "uint256"
        }
      ],
      "name": "deposit",
      "outputs": [],
      "stateMutability": "payable",
      "type": "function"
    },
    {
      "inputs": [
        {
          "internalType": "address",
          "name": "depositor",
          "type": "address"
        },
        {
          "internalType": "address",
          "name": "recipient",
          "type": "address"
        },
        {
          "internalType": "address",
          "name": "originToken",
          "type": "address"
        },
        {
          "internalType": "uint256",
          "name": "amount",
          "type": "uint256"
        },
        {
          "internalType": "uint256",
          "name": "destinationChainId",
          "type": "uint256"
        },
        {
          "internalType": "int64",
          "name": "relayerFeePct",
          "type": "int64"
        },
        {
          "internalType": "uint32",
          "name": "quoteTimestamp",
          "type": "uint32"
        },
        {
          "internalType": "bytes",
          "name": "message",
          "type": "bytes"
        },
        {
          "internalType": "uint256",
          "name": "",
          "type": "uint256"
        }
      ],
      "name": "depositFor",
      "outputs": [],
      "stateMutability": "payable",
      "type": "function"
    },
    {
      "inputs": [
        {
          "internalType": "address",
          "name": "depositor",
          "type": "address"
        },
        {
          "internalType": "address",
          "name": "recipient",
          "type": "address"
        },
        {
          "internalType": "address",
          "name": "originToken",
          "type": "address"
        },
        {
          "internalType": "uint256",
          "name": "amount",
          "type": "uint256"
        },
        {
          "internalType": "uint256",
          "name": "destinationChainId",
          "type": "uint256"
        },
        {
          "internalType": "int64",
          "name": "relayerFeePct",
          "type": "int64"
        },
        {
          "internalType": "bytes",
          "name": "message",
          "type": "bytes"
        },
        {
          "internalType": "uint256",
          "name": "maxCount",
          "type": "uint256"
        }
      ],
      "name": "depositForNow",
      "outputs": [],
      "stateMutability": "payable",
      "type": "function"
    },
    {
      "inputs": [
        {
          "internalType": "address",
          "name": "recipient",
          "type": "address"
        },
        {
          "internalType": "address",
          "name": "originToken",
          "type": "address"
        },
        {
          "internalType": "uint256",
          "name": "amount",
          "type": "uint256"
        },
        {
          "internalType": "uint256",
          "name": "destinationChainId",
          "type": "uint256"
        },
        {
          "internalType": "int64",
          "name": "relayerFeePct",
          "type": "int64"
        },
        {
          "internalType": "bytes",
          "name": "message",
          "type": "bytes"
        },
        {
          "internalType": "uint256",
          "name": "maxCount",
          "type": "uint256"
        }
      ],
      "name": "depositNow",
      "outputs": [],
      "stateMutability": "payable",
      "type": "function"
    },
    {
      "inputs": [],
      "name": "depositQuoteTimeBuffer",
      "outputs": [
        {
          "internalType": "uint32",
          "name": "",
          "type": "uint32"
        }
      ],
      "stateMutability": "view",
      "type": "function"
    },
    {
      "inputs": [
        {
          "internalType": "address",
          "name": "recipient",
          "type": "address"
        },
        {
          "internalType": "address",
          "name": "originToken",
          "type": "address"
        },
        {
          "internalType": "uint256",
          "name": "amount",
          "type": "uint256"
        },
        {
          "internalType": "uint256",
          "name": "destinationChainId",
          "type": "uint256"
        },
        {
          "internalType": "int64",
          "name": "relayerFeePct",
          "type": "int64"
        },
        {
          "internalType": "uint32",
          "name": "quoteTimestamp",
          "type": "uint32"
        },
        {
          "internalType": "bytes",
          "name": "message",
          "type": "bytes"
        },
        {
          "internalType": "uint256",
          "name": "",
          "type": "uint256"
        }
      ],
      "name": "depositV2",
      "outputs": [],
      "stateMutability": "payable",
      "type": "function"
    },
    {
      "inputs": [
        {
          "internalType": "address",
          "name": "depositor",
          "type": "address"
        },
        {
          "internalType": "address",
          "name": "recipient",
          "type": "address"
        },
        {
          "internalType": "address",
          "name": "inputToken",
          "type": "address"
        },
        {
          "internalType": "address",
          "name": "outputToken",
          "type": "address"
        },
        {
          "internalType": "uint256",
          "name": "inputAmount",
          "type": "uint256"
        },
        {
          "internalType": "uint256",
          "name": "outputAmount",
          "type": "uint256"
        },
        {
          "internalType": "uint256",
          "name": "destinationChainId",
          "type": "uint256"
        },
        {
          "internalType": "address",
          "name": "exclusiveRelayer",
          "type": "address"
        },
        {
          "internalType": "uint32",
          "name": "quoteTimestamp",
          "type": "uint32"
        },
        {
          "internalType": "uint32",
          "name": "fillDeadline",
          "type": "uint32"
        },
        {
          "internalType": "uint32",
          "name": "exclusivityDeadline",
          "type": "uint32"
        },
        {
          "internalType": "bytes",
          "name": "message",
          "type": "bytes"
        }
      ],
      "name": "depositV3",
      "outputs": [],
      "stateMutability": "payable",
      "type": "function"
    },
    {
      "inputs": [
        {
          "internalType": "uint256",
          "name": "rootBundleId",
          "type": "uint256"
        }
      ],
      "name": "emergencyDeleteRootBundle",
      "outputs": [],
      "stateMutability": "nonpayable",
      "type": "function"
    },
    {
      "inputs": [
        {
          "internalType": "address",
          "name": "",
          "type": "address"
        },
        {
          "internalType": "uint256",
          "name": "",
          "type": "uint256"
        }
      ],
      "name": "enabledDepositRoutes",
      "outputs": [
        {
          "internalType": "bool",
          "name": "",
          "type": "bool"
        }
      ],
      "stateMutability": "view",
      "type": "function"
    },
    {
      "inputs": [
        {
          "internalType": "uint32",
          "name": "rootBundleId",
          "type": "uint32"
        },
        {
          "components": [
            {
              "internalType": "uint256",
              "name": "amountToReturn",
              "type": "uint256"
            },
            {
              "internalType": "uint256",
              "name": "chainId",
              "type": "uint256"
            },
            {
              "internalType": "uint256[]",
              "name": "refundAmounts",
              "type": "uint256[]"
            },
            {
              "internalType": "uint32",
              "name": "leafId",
              "type": "uint32"
            },
            {
              "internalType": "address",
              "name": "l2TokenAddress",
              "type": "address"
            },
            {
              "internalType": "address[]",
              "name": "refundAddresses",
              "type": "address[]"
            }
          ],
          "internalType": "struct SpokePoolInterface.RelayerRefundLeaf",
          "name": "relayerRefundLeaf",
          "type": "tuple"
        },
        {
          "internalType": "bytes32[]",
          "name": "proof",
          "type": "bytes32[]"
        }
      ],
      "name": "executeRelayerRefundLeaf",
      "outputs": [],
      "stateMutability": "payable",
      "type": "function"
    },
    {
      "inputs": [
        {
          "internalType": "address",
          "name": "depositor",
          "type": "address"
        },
        {
          "internalType": "address",
          "name": "recipient",
          "type": "address"
        },
        {
          "internalType": "address",
          "name": "destinationToken",
          "type": "address"
        },
        {
          "internalType": "uint256",
          "name": "amount",
          "type": "uint256"
        },
        {
          "internalType": "uint256",
          "name": "originChainId",
          "type": "uint256"
        },
        {
          "internalType": "int64",
          "name": "realizedLpFeePct",
          "type": "int64"
        },
        {
          "internalType": "int64",
          "name": "relayerFeePct",
          "type": "int64"
        },
        {
          "internalType": "uint32",
          "name": "depositId",
          "type": "uint32"
        },
        {
          "internalType": "uint32",
          "name": "rootBundleId",
          "type": "uint32"
        },
        {
          "internalType": "bytes",
          "name": "message",
          "type": "bytes"
        },
        {
          "internalType": "int256",
          "name": "payoutAdjustment",
          "type": "int256"
        },
        {
          "internalType": "bytes32[]",
          "name": "proof",
          "type": "bytes32[]"
        }
      ],
      "name": "executeSlowRelayLeaf",
      "outputs": [],
      "stateMutability": "nonpayable",
      "type": "function"
    },
    {
      "inputs": [
        {
          "internalType": "uint32",
          "name": "rootBundleId",
          "type": "uint32"
        },
        {
          "components": [
            {
              "internalType": "uint256",
              "name": "amountToReturn",
              "type": "uint256"
            },
            {
              "internalType": "uint256",
              "name": "chainId",
              "type": "uint256"
            },
            {
              "internalType": "uint256[]",
              "name": "refundAmounts",
              "type": "uint256[]"
            },
            {
              "internalType": "uint32",
              "name": "leafId",
              "type": "uint32"
            },
            {
              "internalType": "address",
              "name": "l2TokenAddress",
              "type": "address"
            },
            {
              "internalType": "address[]",
              "name": "refundAddresses",
              "type": "address[]"
            },
            {
              "internalType": "bytes32",
              "name": "fillsRefundedRoot",
              "type": "bytes32"
            },
            {
              "internalType": "string",
              "name": "fillsRefundedHash",
              "type": "string"
            }
          ],
          "internalType": "struct V3SpokePoolInterface.V3RelayerRefundLeaf",
          "name": "relayerRefundLeaf",
          "type": "tuple"
        },
        {
          "internalType": "bytes32[]",
          "name": "proof",
          "type": "bytes32[]"
        }
      ],
      "name": "executeV3RelayerRefundLeaf",
      "outputs": [],
      "stateMutability": "payable",
      "type": "function"
    },
    {
      "inputs": [
        {
          "components": [
            {
              "components": [
                {
                  "internalType": "address",
                  "name": "depositor",
                  "type": "address"
                },
                {
                  "internalType": "address",
                  "name": "recipient",
                  "type": "address"
                },
                {
                  "internalType": "address",
                  "name": "exclusiveRelayer",
                  "type": "address"
                },
                {
                  "internalType": "address",
                  "name": "inputToken",
                  "type": "address"
                },
                {
                  "internalType": "address",
                  "name": "outputToken",
                  "type": "address"
                },
                {
                  "internalType": "uint256",
                  "name": "inputAmount",
                  "type": "uint256"
                },
                {
                  "internalType": "uint256",
                  "name": "outputAmount",
                  "type": "uint256"
                },
                {
                  "internalType": "uint256",
                  "name": "originChainId",
                  "type": "uint256"
                },
                {
                  "internalType": "uint32",
                  "name": "depositId",
                  "type": "uint32"
                },
                {
                  "internalType": "uint32",
                  "name": "fillDeadline",
                  "type": "uint32"
                },
                {
                  "internalType": "uint32",
                  "name": "exclusivityDeadline",
                  "type": "uint32"
                },
                {
                  "internalType": "bytes",
                  "name": "message",
                  "type": "bytes"
                }
              ],
              "internalType": "struct V3SpokePoolInterface.V3RelayData",
              "name": "relayData",
              "type": "tuple"
            },
            {
              "internalType": "uint256",
              "name": "chainId",
              "type": "uint256"
            },
            {
              "internalType": "uint256",
              "name": "updatedOutputAmount",
              "type": "uint256"
            }
          ],
          "internalType": "struct V3SpokePoolInterface.V3SlowFill",
          "name": "slowFillLeaf",
          "type": "tuple"
        },
        {
          "internalType": "uint32",
          "name": "rootBundleId",
          "type": "uint32"
        },
        {
          "internalType": "bytes32[]",
          "name": "proof",
          "type": "bytes32[]"
        }
      ],
      "name": "executeV3SlowRelayLeaf",
      "outputs": [],
      "stateMutability": "nonpayable",
      "type": "function"
    },
    {
      "inputs": [],
      "name": "fillDeadlineBuffer",
      "outputs": [
        {
          "internalType": "uint32",
          "name": "",
          "type": "uint32"
        }
      ],
      "stateMutability": "view",
      "type": "function"
    },
    {
      "inputs": [
        {
          "internalType": "address",
          "name": "depositor",
          "type": "address"
        },
        {
          "internalType": "address",
          "name": "recipient",
          "type": "address"
        },
        {
          "internalType": "address",
          "name": "destinationToken",
          "type": "address"
        },
        {
          "internalType": "uint256",
          "name": "amount",
          "type": "uint256"
        },
        {
          "internalType": "uint256",
          "name": "maxTokensToSend",
          "type": "uint256"
        },
        {
          "internalType": "uint256",
          "name": "repaymentChainId",
          "type": "uint256"
        },
        {
          "internalType": "uint256",
          "name": "originChainId",
          "type": "uint256"
        },
        {
          "internalType": "int64",
          "name": "realizedLpFeePct",
          "type": "int64"
        },
        {
          "internalType": "int64",
          "name": "relayerFeePct",
          "type": "int64"
        },
        {
          "internalType": "uint32",
          "name": "depositId",
          "type": "uint32"
        },
        {
          "internalType": "bytes",
          "name": "message",
          "type": "bytes"
        },
        {
          "internalType": "uint256",
          "name": "maxCount",
          "type": "uint256"
        }
      ],
      "name": "fillRelay",
      "outputs": [],
      "stateMutability": "nonpayable",
      "type": "function"
    },
    {
      "inputs": [
        {
          "internalType": "address",
          "name": "depositor",
          "type": "address"
        },
        {
          "internalType": "address",
          "name": "recipient",
          "type": "address"
        },
        {
          "internalType": "address",
          "name": "updatedRecipient",
          "type": "address"
        },
        {
          "internalType": "address",
          "name": "destinationToken",
          "type": "address"
        },
        {
          "internalType": "uint256",
          "name": "amount",
          "type": "uint256"
        },
        {
          "internalType": "uint256",
          "name": "maxTokensToSend",
          "type": "uint256"
        },
        {
          "internalType": "uint256",
          "name": "repaymentChainId",
          "type": "uint256"
        },
        {
          "internalType": "uint256",
          "name": "originChainId",
          "type": "uint256"
        },
        {
          "internalType": "int64",
          "name": "realizedLpFeePct",
          "type": "int64"
        },
        {
          "internalType": "int64",
          "name": "relayerFeePct",
          "type": "int64"
        },
        {
          "internalType": "int64",
          "name": "updatedRelayerFeePct",
          "type": "int64"
        },
        {
          "internalType": "uint32",
          "name": "depositId",
          "type": "uint32"
        },
        {
          "internalType": "bytes",
          "name": "message",
          "type": "bytes"
        },
        {
          "internalType": "bytes",
          "name": "updatedMessage",
          "type": "bytes"
        },
        {
          "internalType": "bytes",
          "name": "depositorSignature",
          "type": "bytes"
        },
        {
          "internalType": "uint256",
          "name": "maxCount",
          "type": "uint256"
        }
      ],
      "name": "fillRelayWithUpdatedDeposit",
      "outputs": [],
      "stateMutability": "nonpayable",
      "type": "function"
    },
    {
      "inputs": [
        {
          "internalType": "bytes32",
          "name": "",
          "type": "bytes32"
        }
      ],
      "name": "fillStatuses",
      "outputs": [
        {
          "internalType": "uint256",
          "name": "",
          "type": "uint256"
        }
      ],
      "stateMutability": "view",
      "type": "function"
    },
    {
      "inputs": [
        {
          "components": [
            {
              "internalType": "address",
              "name": "depositor",
              "type": "address"
            },
            {
              "internalType": "address",
              "name": "recipient",
              "type": "address"
            },
            {
              "internalType": "address",
              "name": "exclusiveRelayer",
              "type": "address"
            },
            {
              "internalType": "address",
              "name": "inputToken",
              "type": "address"
            },
            {
              "internalType": "address",
              "name": "outputToken",
              "type": "address"
            },
            {
              "internalType": "uint256",
              "name": "inputAmount",
              "type": "uint256"
            },
            {
              "internalType": "uint256",
              "name": "outputAmount",
              "type": "uint256"
            },
            {
              "internalType": "uint256",
              "name": "originChainId",
              "type": "uint256"
            },
            {
              "internalType": "uint32",
              "name": "depositId",
              "type": "uint32"
            },
            {
              "internalType": "uint32",
              "name": "fillDeadline",
              "type": "uint32"
            },
            {
              "internalType": "uint32",
              "name": "exclusivityDeadline",
              "type": "uint32"
            },
            {
              "internalType": "bytes",
              "name": "message",
              "type": "bytes"
            }
          ],
          "internalType": "struct V3SpokePoolInterface.V3RelayData",
          "name": "relayData",
          "type": "tuple"
        },
        {
          "internalType": "uint256",
          "name": "repaymentChainId",
          "type": "uint256"
        }
      ],
      "name": "fillV3Relay",
      "outputs": [],
      "stateMutability": "nonpayable",
      "type": "function"
    },
    {
      "inputs": [
        {
          "components": [
            {
              "internalType": "address",
              "name": "depositor",
              "type": "address"
            },
            {
              "internalType": "address",
              "name": "recipient",
              "type": "address"
            },
            {
              "internalType": "address",
              "name": "exclusiveRelayer",
              "type": "address"
            },
            {
              "internalType": "address",
              "name": "inputToken",
              "type": "address"
            },
            {
              "internalType": "address",
              "name": "outputToken",
              "type": "address"
            },
            {
              "internalType": "uint256",
              "name": "inputAmount",
              "type": "uint256"
            },
            {
              "internalType": "uint256",
              "name": "outputAmount",
              "type": "uint256"
            },
            {
              "internalType": "uint256",
              "name": "originChainId",
              "type": "uint256"
            },
            {
              "internalType": "uint32",
              "name": "depositId",
              "type": "uint32"
            },
            {
              "internalType": "uint32",
              "name": "fillDeadline",
              "type": "uint32"
            },
            {
              "internalType": "uint32",
              "name": "exclusivityDeadline",
              "type": "uint32"
            },
            {
              "internalType": "bytes",
              "name": "message",
              "type": "bytes"
            }
          ],
          "internalType": "struct V3SpokePoolInterface.V3RelayData",
          "name": "relayData",
          "type": "tuple"
        },
        {
          "internalType": "uint256",
          "name": "repaymentChainId",
          "type": "uint256"
        },
        {
          "internalType": "uint256",
          "name": "updatedOutputAmount",
          "type": "uint256"
        },
        {
          "internalType": "address",
          "name": "updatedRecipient",
          "type": "address"
        },
        {
          "internalType": "bytes",
          "name": "updatedMessage",
          "type": "bytes"
        },
        {
          "internalType": "bytes",
          "name": "depositorSignature",
          "type": "bytes"
        }
      ],
      "name": "fillV3RelayWithUpdatedDeposit",
      "outputs": [],
      "stateMutability": "nonpayable",
      "type": "function"
    },
    {
      "inputs": [],
      "name": "getCurrentTime",
      "outputs": [
        {
          "internalType": "uint256",
          "name": "",
          "type": "uint256"
        }
      ],
      "stateMutability": "view",
      "type": "function"
    },
    {
      "inputs": [],
      "name": "hubPool",
      "outputs": [
        {
          "internalType": "address",
          "name": "",
          "type": "address"
        }
      ],
      "stateMutability": "view",
      "type": "function"
    },
    {
      "inputs": [
        {
          "internalType": "uint32",
          "name": "_initialDepositId",
          "type": "uint32"
        },
        {
          "internalType": "address",
          "name": "_crossDomainAdmin",
          "type": "address"
        },
        {
          "internalType": "address",
          "name": "_hubPool",
          "type": "address"
        }
      ],
      "name": "initialize",
      "outputs": [],
      "stateMutability": "nonpayable",
      "type": "function"
    },
    {
      "inputs": [],
      "name": "l1Gas",
      "outputs": [
        {
          "internalType": "uint32",
          "name": "",
          "type": "uint32"
        }
      ],
      "stateMutability": "view",
      "type": "function"
    },
    {
      "inputs": [],
      "name": "l2Eth",
      "outputs": [
        {
          "internalType": "address",
          "name": "",
          "type": "address"
        }
      ],
      "stateMutability": "view",
      "type": "function"
    },
    {
      "inputs": [],
      "name": "messenger",
      "outputs": [
        {
          "internalType": "address",
          "name": "",
          "type": "address"
        }
      ],
      "stateMutability": "view",
      "type": "function"
    },
    {
      "inputs": [
        {
          "internalType": "bytes[]",
          "name": "data",
          "type": "bytes[]"
        }
      ],
      "name": "multicall",
      "outputs": [
        {
          "internalType": "bytes[]",
          "name": "results",
          "type": "bytes[]"
        }
      ],
      "stateMutability": "nonpayable",
      "type": "function"
    },
    {
      "inputs": [],
      "name": "numberOfDeposits",
      "outputs": [
        {
          "internalType": "uint32",
          "name": "",
          "type": "uint32"
        }
      ],
      "stateMutability": "view",
      "type": "function"
    },
    {
      "inputs": [
        {
          "internalType": "bool",
          "name": "pause",
          "type": "bool"
        }
      ],
      "name": "pauseDeposits",
      "outputs": [],
      "stateMutability": "nonpayable",
      "type": "function"
    },
    {
      "inputs": [
        {
          "internalType": "bool",
          "name": "pause",
          "type": "bool"
        }
      ],
      "name": "pauseFills",
      "outputs": [],
      "stateMutability": "nonpayable",
      "type": "function"
    },
    {
      "inputs": [],
      "name": "pausedDeposits",
      "outputs": [
        {
          "internalType": "bool",
          "name": "",
          "type": "bool"
        }
      ],
      "stateMutability": "view",
      "type": "function"
    },
    {
      "inputs": [],
      "name": "pausedFills",
      "outputs": [
        {
          "internalType": "bool",
          "name": "",
          "type": "bool"
        }
      ],
      "stateMutability": "view",
      "type": "function"
    },
    {
      "inputs": [],
      "name": "proxiableUUID",
      "outputs": [
        {
          "internalType": "bytes32",
          "name": "",
          "type": "bytes32"
        }
      ],
      "stateMutability": "view",
      "type": "function"
    },
    {
      "inputs": [],
      "name": "recipientCircleDomainId",
      "outputs": [
        {
          "internalType": "uint32",
          "name": "",
          "type": "uint32"
        }
      ],
      "stateMutability": "view",
      "type": "function"
    },
    {
      "inputs": [
        {
          "internalType": "bytes32",
          "name": "relayerRefundRoot",
          "type": "bytes32"
        },
        {
          "internalType": "bytes32",
          "name": "slowRelayRoot",
          "type": "bytes32"
        }
      ],
      "name": "relayRootBundle",
      "outputs": [],
      "stateMutability": "nonpayable",
      "type": "function"
    },
    {
      "inputs": [
        {
          "components": [
            {
              "internalType": "address",
              "name": "depositor",
              "type": "address"
            },
            {
              "internalType": "address",
              "name": "recipient",
              "type": "address"
            },
            {
              "internalType": "address",
              "name": "exclusiveRelayer",
              "type": "address"
            },
            {
              "internalType": "address",
              "name": "inputToken",
              "type": "address"
            },
            {
              "internalType": "address",
              "name": "outputToken",
              "type": "address"
            },
            {
              "internalType": "uint256",
              "name": "inputAmount",
              "type": "uint256"
            },
            {
              "internalType": "uint256",
              "name": "outputAmount",
              "type": "uint256"
            },
            {
              "internalType": "uint256",
              "name": "originChainId",
              "type": "uint256"
            },
            {
              "internalType": "uint32",
              "name": "depositId",
              "type": "uint32"
            },
            {
              "internalType": "uint32",
              "name": "fillDeadline",
              "type": "uint32"
            },
            {
              "internalType": "uint32",
              "name": "exclusivityDeadline",
              "type": "uint32"
            },
            {
              "internalType": "bytes",
              "name": "message",
              "type": "bytes"
            }
          ],
          "internalType": "struct V3SpokePoolInterface.V3RelayData",
          "name": "relayData",
          "type": "tuple"
        }
      ],
      "name": "requestV3SlowFill",
      "outputs": [],
      "stateMutability": "nonpayable",
      "type": "function"
    },
    {
      "inputs": [
        {
          "internalType": "uint256",
          "name": "",
          "type": "uint256"
        }
      ],
      "name": "rootBundles",
      "outputs": [
        {
          "internalType": "bytes32",
          "name": "slowRelayRoot",
          "type": "bytes32"
        },
        {
          "internalType": "bytes32",
          "name": "relayerRefundRoot",
          "type": "bytes32"
        }
      ],
      "stateMutability": "view",
      "type": "function"
    },
    {
      "inputs": [
        {
          "internalType": "address",
          "name": "newCrossDomainAdmin",
          "type": "address"
        }
      ],
      "name": "setCrossDomainAdmin",
      "outputs": [],
      "stateMutability": "nonpayable",
      "type": "function"
    },
    {
      "inputs": [
        {
          "internalType": "address",
          "name": "originToken",
          "type": "address"
        },
        {
          "internalType": "uint256",
          "name": "destinationChainId",
          "type": "uint256"
        },
        {
          "internalType": "bool",
          "name": "enabled",
          "type": "bool"
        }
      ],
      "name": "setEnableRoute",
      "outputs": [],
      "stateMutability": "nonpayable",
      "type": "function"
    },
    {
      "inputs": [
        {
          "internalType": "address",
          "name": "newHubPool",
          "type": "address"
        }
      ],
      "name": "setHubPool",
      "outputs": [],
      "stateMutability": "nonpayable",
      "type": "function"
    },
    {
      "inputs": [
        {
          "internalType": "uint32",
          "name": "newl1Gas",
          "type": "uint32"
        }
      ],
      "name": "setL1GasLimit",
      "outputs": [],
      "stateMutability": "nonpayable",
      "type": "function"
    },
    {
      "inputs": [
        {
          "internalType": "address",
          "name": "l2Token",
          "type": "address"
        },
        {
          "internalType": "address",
          "name": "tokenBridge",
          "type": "address"
        }
      ],
      "name": "setTokenBridge",
      "outputs": [],
      "stateMutability": "nonpayable",
      "type": "function"
    },
    {
      "inputs": [
        {
          "internalType": "address",
          "name": "depositor",
          "type": "address"
        },
        {
          "internalType": "int64",
          "name": "updatedRelayerFeePct",
          "type": "int64"
        },
        {
          "internalType": "uint32",
          "name": "depositId",
          "type": "uint32"
        },
        {
          "internalType": "address",
          "name": "updatedRecipient",
          "type": "address"
        },
        {
          "internalType": "bytes",
          "name": "updatedMessage",
          "type": "bytes"
        },
        {
          "internalType": "bytes",
          "name": "depositorSignature",
          "type": "bytes"
        }
      ],
      "name": "speedUpDeposit",
      "outputs": [],
      "stateMutability": "nonpayable",
      "type": "function"
    },
    {
      "inputs": [
        {
          "internalType": "address",
          "name": "depositor",
          "type": "address"
        },
        {
          "internalType": "uint32",
          "name": "depositId",
          "type": "uint32"
        },
        {
          "internalType": "uint256",
          "name": "updatedOutputAmount",
          "type": "uint256"
        },
        {
          "internalType": "address",
          "name": "updatedRecipient",
          "type": "address"
        },
        {
          "internalType": "bytes",
          "name": "updatedMessage",
          "type": "bytes"
        },
        {
          "internalType": "bytes",
          "name": "depositorSignature",
          "type": "bytes"
        }
      ],
      "name": "speedUpV3Deposit",
      "outputs": [],
      "stateMutability": "nonpayable",
      "type": "function"
    },
    {
      "inputs": [
        {
          "internalType": "address",
          "name": "",
          "type": "address"
        }
      ],
      "name": "tokenBridges",
      "outputs": [
        {
          "internalType": "address",
          "name": "",
          "type": "address"
        }
      ],
      "stateMutability": "view",
      "type": "function"
    },
    {
      "inputs": [
        {
          "internalType": "address",
          "name": "newImplementation",
          "type": "address"
        }
      ],
      "name": "upgradeTo",
      "outputs": [],
      "stateMutability": "nonpayable",
      "type": "function"
    },
    {
      "inputs": [
        {
          "internalType": "address",
          "name": "newImplementation",
          "type": "address"
        },
        {
          "internalType": "bytes",
          "name": "data",
          "type": "bytes"
        }
      ],
      "name": "upgradeToAndCall",
      "outputs": [],
      "stateMutability": "payable",
      "type": "function"
    },
    {
      "inputs": [],
      "name": "usdcToken",
      "outputs": [
        {
          "internalType": "contract IERC20",
          "name": "",
          "type": "address"
        }
      ],
      "stateMutability": "view",
      "type": "function"
    },
    {
      "inputs": [],
      "name": "wrappedNativeToken",
      "outputs": [
        {
          "internalType": "contract WETH9Interface",
          "name": "",
          "type": "address"
        }
      ],
      "stateMutability": "view",
      "type": "function"
    },
    {
      "stateMutability": "payable",
      "type": "receive"
    }
  ],
  "solcInputHash": "c5be59496a9cb090d68307ae1cea83e9",
  "bytecode": "0x61016034620001e257601f620055e238819003918201601f19168301916001600160401b03831184841017620001e65780849260a094604052833981010312620001e25780516001600160a01b03919082811690819003620001e2576200006960208301620001fa565b6200007760408401620001fa565b916060840151938585168503620001e257608001519485168503620001e2573060805260a05260c05260e0525f5460ff8160081c16620001e25760ff80821603620001a7575b50610120908152610140918252610100915f8352604051916153d593846200020d8539608051848181610dfa015281816112950152611442015260a0518481816109b30152818161213e01528181612d090152818161332d0152818161356501528181613c1801528181613e810152818161423801528181614a1401528181614c6d0152614c94015260c05184818161153201528181612cb10152613519015260e0518481816103f30152612e5401525183818161176e015261513401525182818161095501528181614c2b01526150ad015251818181611a1301528181614af701526150800152f35b60ff90811916175f557f7f26b83ff96e1f2b6a682f133852f6798a09c465da95921460cefb3847402498602060405160ff8152a15f620000bd565b5f80fd5b634e487b7160e01b5f52604160045260245ffd5b519063ffffffff82168203620001e25756fe6080604052600436101561001a575b3615610018575f80fd5b005b5f3560e01c8063079bd2c7146103c45780630c2097f7146103bf5780630eaac9f0146103ba5780631186ec33146103b557806311eac855146103b057806315348e441461034257806317fcb39b146103ab5780631b3d5559146103a65780631dfb2d02146103a1578063272751c71461039c57806329cb924d146103975780632cfc26c5146103925780632e3781151461038d5780633659cfe614610388578063431023b81461038357806344b8be681461037e578063493a4f84146103795780634e0fb8f5146103745780634f1ef2861461036f5780635249fef11461036a5780635285e0581461036557806352d1902d14610360578063541f4f141461035b57806357f6dcb8146103565780635ceaec32146103515780636068d6cb1461034c578063647c576c146103475780636bbbcd2e146103425780636e4009831461033d578063738b62e514610338578063766e0703146103335780637b9392321461032e5780637e688bba146103295780638a7860ce14610324578063927ede2d1461031f5780639748cf7c1461031a578063979f2bc2146103155780639963e5a81461031057806399cc29681461030b5780639a8a059214610306578063a1244c6714610301578063a78e4b60146102fc578063ac9650d8146102f7578063ae527fbb146102f2578063b27a4300146102ed578063b5e1bf5f146102e8578063bbca7db0146102e3578063bdcb53a5146102de578063c35c83fc146102d9578063ccfa5971146102d4578063ceb4c987146102cf578063dda52113146102ca578063ddd224f1146102c5578063de7eba78146102c0578063e1904402146102bb578063e3229211146102b6578063ee2a53f8146102b1578063fbbba9ac146102ac5763fd7c10540361000e576124cf565b61243a565b6123fc565b61239e565b612375565b612345565b61231c565b6122f6565b6122d8565b612256565b61222b565b6120f0565b611fea565b611fc0565b611f82565b611f04565b611e3d565b611d3d565b611d16565b611cfc565b611c7e565b611ad8565b611a42565b6119fe565b6119dc565b611964565b6118dd565b611834565b611810565b611792565b611752565b610984565b61167b565b611623565b611556565b611516565b611487565b611430565b611407565b6113ad565b611254565b61113c565b61108d565b610ff8565b610edf565b610dd3565b610cb1565b610c7b565b610c61565b610bc3565b610b84565b610aac565b61099e565b610940565b610908565b61082b565b610786565b6103d7565b5f9103126103d357565b5f80fd5b346103d3575f3660031901126103d357602060405163ffffffff7f0000000000000000000000000000000000000000000000000000000000000000168152f35b6001600160a01b031690565b6001600160a01b038116036103d357565b6004359061044182610423565b565b6024359061044182610423565b6044359061044182610423565b6064359061044182610423565b359061044182610423565b60a435908160070b82036103d357565b60c435908160070b82036103d357565b61010435908160070b82036103d357565b61012435908160070b82036103d357565b61014435908160070b82036103d357565b608435908160070b82036103d357565b63ffffffff8116036103d357565b60e43590610441826104d8565b6101043590610441826104d8565b6101243590610441826104d8565b6101643590610441826104d8565b6101443590610441826104d8565b3590610441826104d8565b634e487b7160e01b5f52604160045260245ffd5b6001600160401b03811161055d57604052565b610536565b606081019081106001600160401b0382111761055d57604052565b60a081019081106001600160401b0382111761055d57604052565b602081019081106001600160401b0382111761055d57604052565b604081019081106001600160401b0382111761055d57604052565b60e081019081106001600160401b0382111761055d57604052565b601f909101601f19168101906001600160401b0382119082101761055d57604052565b6040519060c082016001600160401b0381118382101761055d57604052565b6040519061014082016001600160401b0381118382101761055d57604052565b6040519061018082016001600160401b0381118382101761055d57604052565b60405190608082016001600160401b0381118382101761055d57604052565b604051906104418261057d565b6001600160401b03811161055d57601f01601f191660200190565b9291926106be82610697565b916106cc60405193846105e9565b8294818452818301116103d3578281602093845f960137010152565b9080601f830112156103d357816020610703933591016106b2565b90565b6001600160401b03811161055d5760051b60200190565b929161072882610706565b9161073660405193846105e9565b829481845260208094019160051b81019283116103d357905b82821061075c5750505050565b8135815290830190830161074f565b9080601f830112156103d3578160206107039335910161071d565b346103d3576101803660031901126103d3576004356107a481610423565b6107ac610443565b906107b5610450565b6107bd610475565b926107c6610485565b6107ce6104e6565b6107d66104f3565b6001600160401b0396909290610124358881116103d3576107fb9036906004016106e8565b94610164359889116103d35761081861001899369060040161076b565b9761014435976084359260643592612557565b346103d35760203660031901126103d35763ffffffff60043561084d816104d8565b610855613396565b61085d613312565b16610c5a8163ffffffff198254161790557fe486a5c4bd7b36eabbfe274c99b39130277417be8d2209b4dae04c4fba64ee3a5f80a26001606555005b6101006003198201126103d3576004356108b281610423565b916024356108bf81610423565b9160443591606435916084358060070b81036103d3579160a4356108e2816104d8565b9160c435906001600160401b0382116103d357610901916004016106e8565b9060e43590565b61091136610899565b5094610921949194939293613312565b60ff61086b5460e81c166103d35761093996336134a8565b6001606555005b346103d3575f3660031901126103d3576040517f00000000000000000000000000000000000000000000000000000000000000006001600160a01b03168152602090f35b346103d3575f3660031901126103d35760206040515f8152f35b346103d3575f3660031901126103d3576040517f00000000000000000000000000000000000000000000000000000000000000006001600160a01b03168152602090f35b9080601f830112156103d35760209082356109fc81610706565b93610a0a60405195866105e9565b81855260208086019260051b8201019283116103d357602001905b828210610a33575050505090565b81358152908301908301610a25565b9080601f830112156103d3576020908235610a5c81610706565b93610a6a60405195866105e9565b81855260208086019260051b8201019283116103d357602001905b828210610a93575050505090565b8380918335610aa181610423565b815201910190610a85565b6003196060368201126103d357600435610ac5816104d8565b6001600160401b0391602435908382116103d35760c09082360301126103d357610aed61060c565b90806004013582526024810135602083015260448101358481116103d357610b1b90600436918401016109e2565b6040830152610b2c6064820161052b565b6060830152610b3d6084820161046a565b608083015260a4810135908482116103d3576004610b5e9236920101610a42565b60a08201526044359283116103d357610b7e61001893369060040161076b565b9161266c565b346103d35760203660031901126103d357610939600435610ba481610423565b610bac613396565b610bb4613312565b613813565b801515036103d357565b346103d35760603660031901126103d357600435610be081610423565b602435907f0a21fdd43d0ad0c62689ee7230a47309a050755bcc52eba00310add65297692a602060443592610c1484610bb9565b610c1c613396565b610c24613312565b60018060a01b031692835f5261086d825260405f20855f52825260405f209015159060ff1981541660ff8316179055604051908152a36001606555005b346103d3575f3660031901126103d3576020604051428152f35b346103d3575f3660031901126103d35760206040515f805160206153808339815191528152f35b90816101809103126103d35790565b346103d35760403660031901126103d3576004356001600160401b0381116103d357610ce1903690600401610ca2565b610ce9613312565b60ff61086b5460e01c166103d357610d04610140820161284d565b63ffffffff429116101580610db5575b610da357610d9990610d85610d31610d2c3684612861565b613921565b9160c0610d7e610d4360208401612857565b610d51610160850185612940565b939094610d5c61060c565b97610d673683612861565b895260208901520135604087015260608601612972565b36916106b2565b608082015260243560a08201523390613a63565b6100186001606555565b604051630c3a9b9d60e41b8152600490fd5b50610dc260408201612857565b6001600160a01b0316331415610d14565b346103d35760203660031901126103d357600435610df081610423565b6001600160a01b037f000000000000000000000000000000000000000000000000000000000000000081163081146103d3575f805160206153008339815191529082825416036103d357610e42613396565b60405191610e4f83610598565b5f83525f805160206152c08339815191525460ff1615610e755750505061001890614df0565b6020600491604051928380926352d1902d60e01b825288165afa5f9181610eae575b50610ea0575f80fd5b036103d35761001891614d13565b610ed191925060203d602011610ed8575b610ec981836105e9565b810190613f79565b905f610e97565b503d610ebf565b346103d35760803660031901126103d357600435610efc816104d8565b60243590610f0982610423565b604435610f1581610423565b60643591610f2283610423565b60ff5f5460081c16156103d357610c5a805463ffffffff1916624c4b40179055610f4b90612ef9565b60405190610f58826105b3565b60098252602082016820a1a927a9a996ab1960b91b81526020604051610f7d816105b3565b600581520194640312e302e360dc1b865260ff5f5460081c16156103d357610018956005610bb493610fcc9651902091209061047f5561048055610fbf61477b565b610fc761478a565b61479e565b610c5a8054600160201b600160c01b03191660209290921b600160201b600160c01b0316919091179055565b346103d3576101803660031901126103d35760043561101681610423565b60243561102281610423565b60443561102e81610423565b60e4358060070b81036103d357611043610495565b61104b610501565b61014435959092906001600160401b0387116103d3576110726100189736906004016106e8565b94610164359660c4359260a435926084359260643592612981565b346103d35760403660031901126103d3576024356004356110ac613396565b6110b4613312565b61086c8054600160401b81101561055d5763ffffffff91600182019055836110db826123db565b5084600182015555167fc86ba04c55bc5eb2f2876b91c438849a296dbec7b08751c3074d92e04f0a77af5f80a46001606555005b9181601f840112156103d3578235916001600160401b0383116103d357602083818601950101116103d357565b346103d35760c03660031901126103d35760043561115981610423565b60243590611166826104d8565b60443560643561117581610423565b6001600160401b03916084358381116103d35761119690369060040161110f565b93909460a4359182116103d35761123863ffffffff7fb0a29aed3d389a1041194255878b423f7780be3ed2324d4693508c6ff189845e966111de61124a95369060040161110f565b9390996111e9613312565b6112108c8c8b8b6112076111fe368a896106b2565b938b36916106b2565b9346908c614652565b60018060a01b0392836040519a8b9a8b521660208a0152608060408a01526080890191612a6f565b93868503606088015216981696612a6f565b0390a36001606555005b60403660031901126103d35760043561126c81610423565b6024356001600160401b0381116103d35761128b9036906004016106e8565b6001600160a01b037f00000000000000000000000000000000000000000000000000000000000000008116903082146103d3575f805160206153008339815191529181835416036103d3576112de613396565b5f805160206152c08339815191525460ff16156113015750505061001890614df0565b6020600491604051928380926352d1902d60e01b825288165afa5f918161133a575b5061132c575f80fd5b036103d35761001891614db2565b61135491925060203d602011610ed857610ec981836105e9565b905f611323565b6001600160a01b03165f90815261086d6020526040902090565b6001600160a01b03165f908152610c5b6020526040902090565b5f5261087260205260405f2090565b5f5261086e60205260405f2090565b346103d35760403660031901126103d3576004356113ca81610423565b60018060a01b03165f5261086d60205260405f206024355f52602052602060ff60405f2054166040519015158152f35b6001600160a01b03169052565b346103d3575f3660031901126103d357610869546040516001600160a01b039091168152602090f35b346103d3575f3660031901126103d3577f00000000000000000000000000000000000000000000000000000000000000006001600160a01b031630036103d35760206040515f805160206153008339815191528152f35b6101203660031901126103d3576004356114a081610423565b602435906114ad82610423565b604435916114ba83610423565b6114c2610475565b60c435916114cf836104d8565b60e4356001600160401b0381116103d3576114ee9036906004016106e8565b936114f7613312565b60ff61086b5460e81c166103d3576109399560843592606435926134a8565b346103d3575f3660031901126103d357602060405163ffffffff7f0000000000000000000000000000000000000000000000000000000000000000168152f35b346103d3576102003660031901126103d357611570610434565b611578610443565b90611581610450565b9161158a61045d565b92611593610495565b9361159c6104a6565b6115a46104b7565b6115ac61050f565b6001600160401b0397909290610184358981116103d3576115d19036906004016106e8565b946101a4358a81116103d3576115eb9036906004016106e8565b966101c4359a8b116103d3576116086100189b36906004016106e8565b986101e4359a60e4359360c4359360a4359360843593612a8f565b346103d3575f3660031901126103d357602060ff61086b5460e81c166040519015158152f35b60609060031901126103d357600435611661816104d8565b9060243561166e81610423565b9060443561070381610423565b346103d35761168936611649565b5f54600881901c60ff1615939290849081611744575b8115611724575b50156103d3576116ca92846116c1600160ff195f5416175f55565b61170d57612b81565b6116d057005b6116de61ff00195f54165f55565b604051600181527f7f26b83ff96e1f2b6a682f133852f6798a09c465da95921460cefb384740249890602090a1005b61171f61010061ff00195f5416175f55565b612b81565b303b15915081611736575b505f6116a6565b6001915060ff16145f61172f565b600160ff821610915061169f565b346103d3575f3660031901126103d357602060405163ffffffff7f0000000000000000000000000000000000000000000000000000000000000000168152f35b346103d35760203660031901126103d3577fe88463c2f254e2b070013a2dc7ee1e099f9bc00534cbdf03af551dc26ae4921960206004356117d281610bb9565b6117da613396565b6117e2613312565b61086b805460ff60e81b191691151560e881901b60ff60e81b16929092179055604051908152a16001606555005b346103d3575f3660031901126103d357602063ffffffff610c5a5416604051908152f35b6101803660031901126103d35760043561184d81610423565b6024359061185a82610423565b60443561186681610423565b6064359061187382610423565b60e43561187f81610423565b6101043561188c816104d8565b610124359161189a836104d8565b6118a261051d565b61016435979094906001600160401b0389116103d3576118c961001899369060040161110f565b98909760c4359360a4359360843593612c4a565b346103d35760c03660031901126103d3576004356118fa81610423565b602435908160070b82036103d35760443591611915836104d8565b60643561192181610423565b6001600160401b03936084358581116103d3576119429036906004016106e8565b9260a4359586116103d35761195e6100189636906004016106e8565b94612f87565b346103d35760203660031901126103d357600435611980613396565b611988613312565b611991816123db565b6119c9576001815f80935501557f3569b846531b754c99cb80df3f49cd72fa6fe106aaee5ab8e0caf35a9d7ce88d5f80a26001606555005b634e487b7160e01b5f525f60045260245ffd5b346103d3575f3660031901126103d3576040516007602160991b018152602090f35b346103d3575f3660031901126103d3576040517f00000000000000000000000000000000000000000000000000000000000000006001600160a01b03168152602090f35b346103d357611a5036611649565b909160ff5f5460081c16156103d357611a6890612ef9565b60405191611a75836105b3565b6009835260208301906820a1a927a9a996ab1960b91b82526020604051611a9b816105b3565b6005815201640312e302e360dc1b815260ff5f5460081c16156103d3576005610bb4936100189651902091209061047f5561048055610fbf61477b565b346103d35760203660031901126103d3576004356001600160401b0381116103d357611b08903690600401610ca2565b611b10613312565b60ff61086b5460e01c166103d357610140810190611b2d8261284d565b63ffffffff90814291161015611c6c5761012082019042611b59611b508461284d565b63ffffffff1690565b10611c5a57611b6b610d2c3685612861565b91611b758361138f565b54611c4957611bad611ba77f923794976d026d6b119735adc163cb71decfc903e17c3dc226c00789593c04e19461138f565b60019055565b611c3c611bbc60608601612857565b95611bc960808701612857565b95611be9611be3611bdd610100840161284d565b9561284d565b9261284d565b611bf560408301612857565b611bfe83612857565b90611c0b60208501612857565b92611c1a610160860186612940565b9690956040519a8b9a169d60e08201359d60a060c0840135930135918c613055565b0390a36100186001606555565b604051624be79160e21b8152600490fd5b60405163d642b7d960e01b8152600490fd5b604051630277ae7b60e21b8152600490fd5b346103d35760203660031901126103d3577f2d5b62420992e5a4afce0e77742636ca2608ef58289fd2e1baa5161ef6e7e41e6020600435611cbe81610bb9565b611cc6613396565b611cce613312565b61086b805460ff60e01b191691151560e081901b60ff60e01b16929092179055604051908152a16001606555005b346103d3575f3660031901126103d3576020604051468152f35b346103d3575f3660031901126103d357602063ffffffff61086b5460c01c16604051908152f35b346103d3575f3660031901126103d35760206040515f805160206153608339815191528152f35b9181601f840112156103d3578235916001600160401b0383116103d3576020808501948460051b0101116103d357565b5f5b838110611da55750505f910152565b8181015183820152602001611d96565b90602091611dce81518092818552858086019101611d94565b601f01601f1916010190565b6020808201906020835283518092526040830192602060408460051b8301019501935f915b848310611e0f5750505050505090565b9091929394958480611e2d600193603f198682030187528a51611db5565b9801930193019194939290611dff565b346103d35760203660031901126103d357600480356001600160401b0381116103d357611e6e903690600401611d64565b91611e78836130bf565b925f5b818110611e945760405180611e908782611dda565b0390f35b5f80611ea1838588613108565b90611eb160405180938193613123565b0390305af4611ebe613130565b9015611ee45790600191611ed282886131bd565b52611edd81876131bd565b5001611e7b565b806044859251106103d3576103d39181015160248091830101910161315f565b60e03660031901126103d357600435611f1c81610423565b60243590611f2982610423565b611f316104c8565b9060a4356001600160401b0381116103d357611f519036906004016106e8565b91611f5a613312565b60ff61086b5460e81c166103d3576109399363ffffffff4216926064359160443591336134a8565b346103d35760203660031901126103d3576020600435611fa181610423565b60018060a01b038091165f52610c5b825260405f205416604051908152f35b346103d3575f3660031901126103d3576040516b1d6329f1c35ca4bfabb9f56160281b8152602090f35b346103d3576003196060368201126103d3576004356001600160401b038082116103d3576060823603938401126103d35760243590612028826104d8565b6044359081116103d357612040903690600401611d64565b91909361204b613312565b60048401359061018219018112156103d357610d99946120eb936120786120e49360043691890101612861565b9561208e6120896080890151610417565b613323565b6120d261209a88613921565b9160446120aa60208b0151610417565b916101608b0151946120ba61060c565b9b8c5260208c0152013560408a015260608901612972565b60808701525f60a0870152369161071d565b90836147e6565b613cfe565b6120f936610899565b509461210a96939496929192613312565b61086b5460ff8160e81c166103d35760c01c63ffffffff169561213461212f88612ee4565b612ef9565b6001600160a01b037f0000000000000000000000000000000000000000000000000000000000000000811695908990841680881480612222575b156121fb575061217f903414612665565b853b156103d3575f60049660405197888092630d0e30db60e41b825234905af19283156121f6575f80516020615320833981519152966121d0946121dd575b505b604051958695339b4690886131d1565b0390a46100186001606555565b806121ea6121f09261054a565b806103c9565b5f6121be565b612ed9565b5f8051602061532083398151915297506121d0949161221d9130903390614725565b6121c0565b5034151561216e565b346103d35760203660031901126103d3576004355f52610872602052602060405f2054604051908152f35b346103d35760c03660031901126103d3576001600160401b036004358181116103d357612287903690600401610ca2565b6064359061229482610423565b6084358381116103d3576122ac90369060040161110f565b9060a4359485116103d3576122c861001895369060040161110f565b9490936044359060243590613219565b346103d3575f3660031901126103d357602060405163ffffffff8152f35b346103d3575f3660031901126103d357602060ff61086b5460e01c166040519015158152f35b346103d3575f3660031901126103d3576040516a0c097ce7bc90715b34b9f160241b8152602090f35b346103d35760203660031901126103d35761093960043561236581610423565b61236d613396565b610fc7613312565b346103d3575f3660031901126103d35761086a546040516001600160a01b039091168152602090f35b346103d3575f3660031901126103d357610c5a54604051602091821c6001600160a01b03168152f35b634e487b7160e01b5f52603260045260245ffd5b61086c80548210156123f7575f52600360205f20910201905f90565b6123c7565b346103d35760203660031901126103d35760043561086c548110156103d3576124266040916123db565b506001815491015482519182526020820152f35b346103d35760403660031901126103d35760043561245781610423565b6024359061246482610423565b61246c613396565b612474613312565b6001600160a01b039081165f818152610c5b6020526040812080546001600160a01b03191694909316938417909255907ff3dc137d2246f9b8abd0bb821e185ba01122c9b3ea3745ffca6208037674d6709080a36001606555005b6101003660031901126103d3576004356124e881610423565b6024356124f481610423565b60443561250081610423565b612508610475565b60c4356001600160401b0381116103d3576125279036906004016106e8565b92612530613312565b60ff61086b5460e81c166103d3576109399463ffffffff42169360843592606435926134a8565b9a989593919996949290979961256b613312565b61257481613323565b61257c61062b565b9b612587908d612972565b6125948960208e01612972565b6125a19060408d01612972565b60608b015260808a01524660a08a015260070b60c089015260070b60e088015263ffffffff16610100878101919091526101209180838901526125e261062b565b97885260208801945f8652604089015f9052606089019061260291612972565b60808801525f60a08801526b1d6329f1c35ca4bfabb9f56160281b60c08801525f1960e0880152600190870152850152835161263d90614022565b90526126499183614876565b612652816140ad565b61265b91614523565b6104416001606555565b156103d357565b91612675613312565b60808201916126876120898451610417565b602081019182514603612785576126af6126b3918360016126a7896123db565b50015461364a565b1590565b612773578060607ff8bd640004bcec1b89657020f561d0b070cbdf662d0b158db9dccb0a8301bfab9201936126f56126ef865163ffffffff1690565b876136db565b61276684519461274b61274485519561273460408201998a5161271c8d5163ffffffff1690565b6127268a51610417565b9160a086019b8c5194613730565b5192519751985163ffffffff1690565b9351610417565b935163ffffffff9485604051968796169a1698339386612806565b0390a46104416001606555565b60405163582f497d60e11b8152600490fd5b604051633d23e4d160e11b8152600490fd5b9081518082526020808093019301915f5b8281106127b6575050505090565b8351855293810193928101926001016127a8565b9081518082526020808093019301915f5b8281106127e9575050505090565b83516001600160a01b0316855293810193928101926001016127db565b936128286080949361284693989798875260a0602088015260a0870190612797565b6001600160a01b0393841660408701528581036060870152906127ca565b9416910152565b35610703816104d8565b3561070381610423565b9190610180838203126103d35761287661064b565b926128808161046a565b845261288e6020820161046a565b602085015261289f6040820161046a565b60408501526128b06060820161046a565b60608501526128c16080820161046a565b608085015260a081013560a085015260c081013560c085015260e081013560e08501526101006128f281830161052b565b9085015261012061290481830161052b565b9085015261014061291681830161052b565b9085015261016091818301356001600160401b0381116103d35761293a92016106e8565b90830152565b903590601e19813603018212156103d357018035906001600160401b0382116103d3576020019181360383136103d357565b6001600160a01b039091169052565b9a969290989799939591612993613312565b60ff61086b5460e01c166103d3576129a961062b565b9b6129b4908d612972565b6129c18a60208e01612972565b6129ce9060408d01612972565b60608b015260808a01524660a08a015260070b60c0890152600787900b60e08901526101009485890190612a07919063ffffffff169052565b6101209581878a0152612a1861062b565b9889525f60208a0190815260079890980b60408a0152612a3b9060608a01612972565b608088015260a087015260c086015260e085015283015f905282015f90528151612a6490614022565b9052612652816140ad565b908060209392818452848401375f828201840152601f01601f1916010190565b9d9c9b959e93909698929a97919a612aa5613312565b60ff61086b5460e01c166103d3578e97612abd61062b565b98612ac8908a612972565b612ad59060208a01612972565b612ae29060408901612972565b6060870152608086018890524660a087015260070b60c086015260070b60e085015263ffffffff851661010085810191909152916101209384860152612b2661062b565b9485525f60208601908152600789900b6040870152949c898e60600190612b4c91612972565b8d8b608082015260a0015260c08d015260e08c01528a015f905289015f90528851612b7690614022565b9052612649966146c1565b91909160ff5f5460081c16156103d357610c5a805463ffffffff1916624c4b40179055612bad90612ef9565b60405191612bba836105b3565b6009835260208301906820a1a927a9a996ab1960b91b82526020604051612be0816105b3565b6005815201640312e302e360dc1b815260ff5f5460081c16156103d3576005610bb493612c1d9651902091209061047f5561048055610fbf61477b565b610c5a8054600160201b600160c01b03191671deaddeaddeaddeaddeaddeaddeaddeaddead60301b179055565b979b95999196939b9a949890929a612c60613312565b61086b9960ff8b5460e81c166103d357612c976126af612c908e612c838d61135b565b905f5260205260405f2090565b5460ff1690565b612e945763ffffffff9d8e612cae81851642612eba565b907f00000000000000000000000000000000000000000000000000000000000000001610612e82578e808516428110918215612e4c575b5050612e3a578e9b60018060a01b039c8d891690871690818117612e04575b50508c7f0000000000000000000000000000000000000000000000000000000000000000168d8c1681811480612dfb575b15612de15750823403612dcf57803b156103d3575f60049160405192838092630d0e30db60e41b825234905af180156121f657612dbc575b505b5460c01c63ffffffff169e8f612d8490612ee4565b612d8d90612ef9565b6040519c8d9c169f169d612da19a8c612f1f565b035f805160206152a083398151915291a46104416001606555565b806121ea612dc99261054a565b5f612d6d565b604051636452a35d60e01b8152600490fd5b905034612dcf5782612df69130903390614725565b612d6f565b50341515612d35565b15612e28574211612e16575f80612d04565b6040516325a63a5b60e01b8152600490fd5b60405163495d907f60e01b8152600490fd5b60405163582e388960e01b8152600490fd5b612e7a9192507f00000000000000000000000000000000000000000000000000000000000000001642612ecc565b108f80612ce5565b60405163f722177f60e01b8152600490fd5b604051632a58c4f360e01b8152600490fd5b634e487b7160e01b5f52601160045260245ffd5b91908203918211612ec757565b612ea6565b91908201809211612ec757565b6040513d5f823e3d90fd5b63ffffffff809116908114612ec75760010190565b61086b805463ffffffff60c01b191660c09290921b63ffffffff60c01b16919091179055565b6001600160a01b03918216815291811660208301526040820192909252606081019290925263ffffffff928316608083015292821660a0820152921660c083015291821660e08201529116610100820152610140610120820181905261070393910191612a6f565b9092919493612f94613312565b8360070b916706f05b59d3b20000612fab8461476c565b10156103d35763ffffffff82612feb8861302895887fa6aa57bd282fc82378458de27be4eadfa791a0c7321c49562eeba8b2643dd5669a8d4690896146c1565b61301660018060a01b0391826040519889988952166020880152608060408801526080870190611db5565b92858403606087015216971695611db5565b0390a36001606555565b634e487b7160e01b5f52602160045260245ffd5b6003111561305057565b613032565b6001600160a01b03918216815291811660208301526040820192909252606081019290925263ffffffff92831660808301529290911660a082015291811660c083015291821660e08201529116610100820152610140610120820181905261070393910191612a6f565b906130c982610706565b6130d660405191826105e9565b82815280926130e7601f1991610706565b01905f5b8281106130f757505050565b8060606020809385010152016130eb565b908210156123f75761311f9160051b810190612940565b9091565b908092918237015f815290565b3d1561315a573d9061314182610697565b9161314f60405193846105e9565b82523d5f602084013e565b606090565b6020818303126103d3578051906001600160401b0382116103d3570181601f820112156103d357805161319181610697565b9261319f60405194856105e9565b818452602082840101116103d3576107039160208085019101611d94565b80518210156123f75760209160051b010190565b9360e0959361070398979363ffffffff938752602087015260070b604086015216606084015260018060a01b0380921660808401521660a08201528160c08201520190611db5565b9490969395613226613312565b60ff61086b5460e01c166103d357613241610140870161284d565b63ffffffff4291161015806132f4575b610da35761325f3687612861565b61326890613921565b9761327161060c565b9861327c3689612861565b8a5260208a0152604089018490526132978560608b01612972565b6132a236848a6106b2565b60808a015260a08901526132b586612857565b966132c3610100880161284d565b9236906132cf926106b2565b9436906132db926106b2565b9460e00135906132ea96614652565b3361265b91613a63565b5061330160408701612857565b6001600160a01b0316331415613251565b6002606554146103d3576002606555565b6001600160a01b037f000000000000000000000000000000000000000000000000000000000000000081169116811461335a575b50565b476133625750565b4790803b156103d3575f90600460405180948193630d0e30db60e41b83525af180156121f65715613357576104419061054a565b6007602160991b016006602160991b0119330161343957602060049160405192838092636e296e4560e01b82525afa80156121f6575f906133fc575b61044191506133eb6133e661086954610417565b610417565b6001600160a01b0390911614612665565b506020813d602011613431575b81613416602093836105e9565b810103126103d357610441905161342c81610423565b6133d2565b3d9150613409565b60405163253a6fc960e11b8152600490fd5b929361070396959192946101409560018060a01b0380951686525f60208701526040860152606085015263ffffffff809116608085015260a08401525f60c08401521660e08201525f610100820152816101208201520190611db5565b91959693949290926134c86134c3612c9088612c838b61135b565b612665565b60070b936134e76706f05b59d3b200006134e18761476c565b10612665565b6135016a0c097ce7bc90715b34b9f160241b831115612665565b63ffffffff93613540613516868b1642612eba565b867f0000000000000000000000000000000000000000000000000000000000000000161015612665565b61086b5460c01c63ffffffff169861355a61212f8b612ee4565b6001600160a01b03957f00000000000000000000000000000000000000000000000000000000000000008716948a881680871480613641575b1561361757506135a4813414612665565b853b156103d3575f60049660405197888092630d0e30db60e41b825234905af180156121f6575f805160206152a0833981519152996135ff976135ee92613604575b505b826148f4565b91604051988998169c169a8761344b565b0390a4565b806121ea6136119261054a565b5f6135e6565b6135ff96505f805160206152a08339815191529961363c836135ee9330903390614725565b6135e8565b50341515613593565b61070392916040516136d2816136c4602082019460208652805160408401526020810151606084015260a061368f604083015160c06080870152610100860190612797565b606083015163ffffffff168583015260808301515f196001841b011660c0860152910151838203603f190160e08501526127ca565b03601f1981018352826105e9565b5190209161492a565b6136e66002916123db565b500162ffffff8260081c16805f5281602052600160ff60405f205494161b808094161461371e575f5260205260405f20908154179055565b60405163954476d960e01b8152600490fd5b9294939190938051825103613801578151915f5b8381106137b557505050508261375b575b50505050565b63ffffffff8161378c7f828fc203220356df8f072a91681caee7d5c75095e2a95e80ed5a14b384697f719386614a04565b604080519586523360208701526001600160a01b0391909116959190911693a45f808080613755565b806137c2600192846131bd565b51806137d0575b5001613744565b6137fb906137ee6137e184886131bd565b516001600160a01b031690565b848060a01b038916614996565b5f6137c9565b6040516319a5316760e31b8152600490fd5b6001600160a01b031680156103d35761086a80546001600160a01b031916821790557f1f17a88f67b0f49060a34bec1a4723a563620e6aa265eb640b5046dcee0759a05f80a2565b610703916101809061386e8184516113fa565b613880602084015160208301906113fa565b613892604084015160408301906113fa565b6138a4606084015160608301906113fa565b6138b6608084015160808301906113fa565b60a083015160a082015260c083015160c082015260e083015160e08201526138ec610100808501519083019063ffffffff169052565b6101208381015163ffffffff16908201526101408381015163ffffffff16908201528161016080940151938201520190611db5565b6040516139528161393e602082019460408652606083019061385b565b46604083015203601f1981018352826105e9565b51902090565b61396182613046565b52565b9060018060a01b03825116815260608061398d6020850151608060208601526080850190611db5565b93604081015160408501520151916139a483613046565b015290565b9a97909695613a18966107039d9b9660808e613a0d98613a279e986101809d60018060a01b03998a80921685521660208401526040830152606082015201528c60a063ffffffff8094169101521660c08c01521660e08a01526101008901906113fa565b6101208701906113fa565b80610140860152840190611db5565b91610160818403910152613964565b90610703949360809360018060a01b03809316845260208401521660408201528160608201520190611db5565b805191610120830190613a7a825163ffffffff1690565b63ffffffff42911610611c5a5760208301516001613a978261138f565b5403613cf7576001905b6002613aac8261138f565b5414613ce557613abb9061138f565b600290556060850151613acd90610417565b6080860151613adb90610417565b9260a0870151918660c0890151948960a08301519660e082015197610100830151613b099063ffffffff1690565b9a5163ffffffff1661014084015163ffffffff16906040850151613b2c90610417565b928551613b3890610417565b946020870151613b4790610417565b9661016001519760608a0151613b5c90610417565b996080810151906040015190613b7061066b565b9b613b7b908d612972565b60208c015260408b0152613b929060608b01613958565b6040516001600160a01b03909b169e63ffffffff169d9a9b8c9b613bb69b8d6139a9565b035f805160206152e083398151915291a46060810151613bd590610417565b6001600160a01b0381169233841480613cdd575b613755576080613bfa910151610417565b6040830151909390926080906001600160a01b0380871690869086907f0000000000000000000000000000000000000000000000000000000000000000168303613ccd5750613c4c9130903390614725565b613c568584614c52565b0151913b151580613cc3575b613c6c5750505050565b803b156103d357613c99935f809460405196879586948593633a5be8cb60e01b8552339160048601613a36565b03925af180156121f657613cb0575b808080613755565b806121ea613cbd9261054a565b5f613ca8565b5081511515613c62565b613cd8923390614725565b613c56565b506001613be9565b604051630479306360e51b8152600490fd5b5f90613aa1565b905f82516101208101613d15815163ffffffff1690565b63ffffffff42911610611c5a5760208501516002613d328261138f565b5414613ce557613d419061138f565b600290556060820151613d5390610417565b6080830151613d6190610417565b9060a08401519260c0850151918860a0810151938760e081015195610100820151613d8f9063ffffffff1690565b955163ffffffff1661014083015163ffffffff166040840151613db190610417565b918451613dbd90610417565b936020860151613dcc90610417565b956101600151966060890151613de190610417565b986080810151906040015190613df561066b565b9a613e00908c612972565b60208b015260408a0152600260608a01526040519d63ffffffff8f9c169d613e289b8d6139a9565b035f805160206152e0833981519152905f94a46060840151613e4990610417565b6001600160a01b03949091858316919033831480613f72575b613f69576080613e73910151610417565b9060408101519687818416917f00000000000000000000000000000000000000000000000000000000000000001682145f14613f5257906080929187613f3e575b613ebf915085614c52565b0151923b151580613f34575b613ed8575b505050509050565b813b15613f305783613f04959660405196879586948593633a5be8cb60e01b8552339160048601613a36565b03925af180156121f657613f1d575b8080808493613ed0565b806121ea613f2a9261054a565b5f613f13565b8380fd5b5082511515613ecb565b613f4b9130903390614725565b5f88613eb4565b608092919650613f6490865f98614996565b613ebf565b50505050509050565b505f613e62565b908160209103126103d3575190565b6107039161014090613f9b8184516113fa565b613fad602084015160208301906113fa565b613fbf604084015160408301906113fa565b606083015160608201526080830151608082015260a083015160a0820152613ff160c084015160c083019060070b9052565b60e08381015160070b908201526101008381015163ffffffff16908201528161012080940151938201520190611db5565b604051613952816136c46020820194602086526040830190613f88565b600791820b910b019060016001603f1b0319821260016001603f1b03831317612ec757565b600160ff1b8114612ec7575f0390565b6001600160a01b039182168152602081019290925291151560408201529116606082015260a06080820181905261070392910190611db5565b9081519160408101926140ed6706f05b59d3b20000806140df6140da6140d4895160070b90565b60070b90565b61476c565b109081614442575b50612665565b6060810161410c6a0c097ce7bc90715b34b9f160241b82511115612665565b602083019061412761411e835161139e565b54825111612665565b60c084019283519661415760c08301986141516141458b5160070b90565b845160070b5b9061403f565b90614e24565b97614163891515612665565b6141798451614172875161139e565b5490612eba565b898110614438575b506140d46141a89261414b61419a6141a2945160070b90565b915160070b90565b886148f4565b93610120860151806143e6575b505060a08501518786519160a0830151149182156143d8575b505080156143bf575b6141e090612665565b6141ea835161139e565b6141f5888254612ecc565b905560608501916142068351610417565b926001600160a01b03923384861614806143a8575b61439e5790604061429492019487856142348851610417565b16917f000000000000000000000000000000000000000000000000000000000000000087168303614355575050506142736126af6101008a0151151590565b614336575b61428e876142896133e68451610417565b614c52565b51610417565b91823b151580614328575b6142ad575b50505050505050565b6142bf6142c691608094169451610417565b945161139e565b549051111594015193813b156103d3575f80946142fb604051978896879586946301d43f2760e31b8652339260048701614074565b03925af180156121f657614315575b8080808080806142a4565b806121ea6143229261054a565b5f61430a565b50608087015151151561429f565b614350876143476133e68851610417565b30903390614725565b614278565b6143666126af6101008d0151151590565b156143955750614390915061437e6133e68851610417565b6143888451610417565b903390614725565b61428e565b61439092614996565b5050505050505050565b506143ba6126af6101008a0151151590565b61421b565b506141e06143d1610100870151151590565b90506141d7565b60600151149050875f6141ce565b614431919561442161442792614407670de0b6b3a763ffff19821215612665565b61441c68056bc75e2d63100000821315612665565b614064565b906148f4565b9451851115612665565b5f806141b5565b98506140d4614181565b90506144586140da6140d460c086015160070b90565b105f6140e7565b9060018060a01b038251168152608080614488602085015160a0602086015260a0850190611db5565b93604081015160070b6040850152606081015115156060850152015191015290565b9a97936107039c9a959197936145149a979360208e6101809b8152015260408d015260608c015260808b015260070b60a08a015260070b60c089015260018060a01b03928380921660e08a0152166101008801521661012086015280610140860152840190611db5565b9161016081840391015261445f565b9060408201516145339060070b90565b91606081015161454290610417565b90608081015193610100948583015161455a90151590565b61012092838501519261456b61068a565b966145769088612972565b602087015260070b604086015215156060850152608084015281516060015160208301516145a39061139e565b549360a084015193519460808601519560a08101519160e08201516145c89060070b90565b60c083015160070b9a83015163ffffffff169a60408401516145e990610417565b9184516145f590610417565b98602086015161460490610417565b950151956040519a8b9a600160a01b60019003169e63ffffffff169d339661462c9b8d6144aa565b037f8ab9dc6c19fe88e69bc70221b339c84332752fdd49591b7c51e66bae3947b73c91a4565b93926146bb93610441979660208151910120906040519263ffffffff60208501955f805160206153808339815191528752166040850152856060850152608084015260018060a01b031660a083015260c082015260c081526146b3816105ce565b519020614e72565b90614ee5565b93926146bb93610441979660208151910120906040519263ffffffff60208501955f80516020615360833981519152875216604085015285606085015260070b608084015260018060a01b031660a083015260c082015260c081526146b3816105ce565b6040516323b872dd60e01b60208201526001600160a01b039283166024820152929091166044830152606480830193909352918152610441916147678261057d565b614fb5565b5f81126147765790565b5f0390565b60ff5f5460081c16156103d357565b60ff5f5460081c16156103d3576001606555565b6001600160a01b031680156103d35761086980546001600160a01b031916821790557fa9e8c42c9e7fca7f62755189a16b2f5314d43d8fb24e91ba54e6d65f9314e8495f80a2565b916126af9061485f9284516040809601519186519161480483610562565b82526136d261481f60208401924684528985019586526123db565b50549388519283916148446020840196602088525160608d86015260a085019061385b565b9151606084015251608083015203601f1981018352826105e9565b6148665750565b5163582f497d60e11b8152600490fd5b80516101209091015160408051808201959492939092916001600160401b0387118488101761055d576148be6148df936136d2936126659984528652602086019687526123db565b50549481519384926020840196602088525190808501526080840190613f88565b9051606083015203601f1981018352826105e9565b90670de0b6b3a7640000915f828403921283831281169084841390151617612ec757818102918183041490151715612ec7570490565b929091905f915b84518310156149735761494483866131bd565b519081811015614962575f52602052600160405f205b920191614931565b905f52602052600160405f2061495a565b915092501490565b6001600160a01b039091168152602081019190915260400190565b61476761044193926149bd60405194859263a9059cbb60e01b60208501526024840161497b565b03601f1981018452836105e9565b9260c0949163ffffffff9360018060a01b038092168652166020850152604084015216606082015260a060808201525f60a08201520190565b906001600160a01b0390818116907f000000000000000000000000000000000000000000000000000000000000000083168203614af25750803b156103d357604051632e1a7d4d60e01b815260048101849052905f908290602490829084905af180156121f657614adf575b50610c5a5491614a8261086a54610417565b6010602160991b0190813b156103d357825f94614ac160405197889687958694631474f2a960e31b865263ffffffff84169360201c16600486016149cb565b03925af180156121f657614ad25750565b806121ea6104419261054a565b806121ea614aec9261054a565b5f614a70565b9190817f000000000000000000000000000000000000000000000000000000000000000016151580614c27575b15614b3c5750505061044190614b3761086a54610417565b615063565b738700daec35af8ff88c16bdf0418774cb3d7599b403614ba4575050614b6461086a54610417565b73136b1ec699c62b0606854056f02dc7bb80482d6391823b156103d357614ac1925f928360405180968195829463040b850f60e31b84526004840161497b565b80614bbe614bb184611375565b546001600160a01b031690565b16614c16576010602160991b015b1691614bda61086a54610417565b92614beb610c5a5463ffffffff1690565b93813b156103d3575f8094614ac160405197889687958694631474f2a960e31b8652600486016149cb565b614c22614bb183611375565b614bcc565b50817f0000000000000000000000000000000000000000000000000000000000000000168114614b1f565b6001600160a01b0390811690813b15614c92579061044192917f000000000000000000000000000000000000000000000000000000000000000016614996565b7f000000000000000000000000000000000000000000000000000000000000000016803b156103d3575f8091602460405180948193632e1a7d4d60e01b83528860048401525af180156121f657614d04575b508147106103d3575f80809381935af1614cfc613130565b50156103d357565b614d0d9061054a565b5f614ce4565b614d1c81614df0565b6001600160a01b0381165f805160206153408339815191525f80a2815115801590614dab575b614d4a575050565b5f8061335793660819985a5b195960ca1b60408051614d6881610562565b602781527f416464726573733a206c6f772d6c6576656c2064656c65676174652063616c6c60208201520152602081519101845af4614da5613130565b91615205565b505f614d42565b614dbb81614df0565b6001600160a01b0381165f805160206153408339815191525f80a2815115801590614de857614d4a575050565b506001614d42565b803b156103d3575f8051602061530083398151915280546001600160a01b0319166001600160a01b03909216919091179055565b670de0b6b3a7640000918183029183830403612ec75760070b808303925f821281851281169082861390151617612ec75714614e5e570490565b634e487b7160e01b5f52601260045260245ffd5b60429161047f549061048054906040519160208301937fc2f8787176b8ac6bf7215b4adcc1e069bf4ab82d9ab1df05a57a91d425935b6e855260408401526060830152608082015260808152614ec78161057d565b519020906040519161190160f01b8352600283015260228201522090565b9190614ef182826151d4565b93909260058510156130505761044194159384614f9f575b508315614f19575b505050612665565b5f929350908291604051614f51816136c46020820194630b135d3f60e11b998a87526024840152604060448401526064830190611db5565b51915afa90614f5e613130565b82614f91575b82614f74575b50505f8080614f11565b614f8991925060208082518301019101613f79565b145f80614f6a565b915060208251101591614f64565b6001600160a01b0383811691161493505f614f09565b905f8061500b9360018060a01b0316927f5361666545524332303a206c6f772d6c6576656c2063616c6c206661696c65646020604051614ff4816105b3565b818152015260208151910182855af1614da5613130565b8051908115918215615021575b5050156103d357565b81925090602091810103126103d3576020015161503d81610bb9565b5f80615018565b908160209103126103d357516001600160401b03811681036103d35790565b604051636eb1769f60e11b81523060048201526001600160a01b037f00000000000000000000000000000000000000000000000000000000000000008116602483018190526020947f00000000000000000000000000000000000000000000000000000000000000008084169591939187866044818a5afa9586156121f6576149bd5f93614767615101898d9b61511d9689916151b7575b50612ecc565b60405163095ea7b360e01b8c8201529384918a6024840161497b565b6040516337e9a82760e11b815260048101959095527f000000000000000000000000000000000000000000000000000000000000000063ffffffff1660248601529190911660448401526001600160a01b039490941660648301529092839160849183915af180156121f657615191575050565b8161335792903d106151b0575b6151a881836105e9565b810190615044565b503d61519e565b6151ce91508d803d10610ed857610ec981836105e9565b5f6150fb565b9060418151145f146151fc5761311f91602082015190606060408401519301515f1a9061522e565b50505f90600290565b901561521f57815115615216575090565b3b156103d35790565b5080519081156103d357602001fd5b6fa2a8918ca85bafe22016d0b997e4df60600160ff1b038411615294576020935f9360ff60809460405194855216868401526040830152606082015282805260015afa156121f6575f516001600160a01b0381161561528c57905f90565b505f90600190565b505050505f9060039056fea123dc29aebf7d0c3322c8eeb5b999e859f39937950ed31056532713d0de396f4910fdfa16fed3260ed0e7147f7cc6da11a60208b5b9406d12a635614ffd9143571749edf1d5c9599318cdbc4e28a6475d65e87fd3b2ddbe1e9a8d5e7a0f0ff7360894a13ba1a3210667c828492db98dca3e2076cc3735a920a3ca505d382bbcafc4df6845a4ab948b492800d3d8a25d538a102a2bc07cd01f1cfa097fddcff6bc7cd75a20ee27fd9adebab32041f755214dbc6bffa90cc0225b39da2e5c2d3b0e058f05b73c62ee68329d2c67c067aaae9a06503cc306378d144d0f0177882b152eb71524aef34d838ab76573c14b1ebfa5e385d9ab29d7cf5398daa2438bd9a264697066735822122077f96c8cbdc68293afdf78790d4ae69b82e7b2719ba64d80dda034d0eaf7f91364736f6c63430008170033"
}