{
  "address": "0x28077B47Cd03326De7838926A63699849DD4fa87",
  "abi": [
    {
      "inputs": [
        {
          "internalType": "address",
          "name": "_wrappedNativeTokenAddress",
          "type": "address"
        },
        {
          "internalType": "uint32",
          "name": "_depositQuoteTimeBuffer",
          "type": "uint32"
        },
        {
          "internalType": "uint32",
          "name": "_fillDeadlineBuffer",
          "type": "uint32"
        },
        {
          "internalType": "contract IERC20",
          "name": "_l2Usdc",
          "type": "address"
        },
        {
          "internalType": "contract ITokenMessenger",
          "name": "_cctpTokenMessenger",
          "type": "address"
        }
      ],
      "stateMutability": "nonpayable",
      "type": "constructor"
    },
    {
      "inputs": [],
      "name": "ClaimedMerkleLeaf",
      "type": "error"
    },
    {
      "inputs": [],
      "name": "DepositsArePaused",
      "type": "error"
    },
    {
      "inputs": [],
      "name": "DisabledRoute",
      "type": "error"
    },
    {
      "inputs": [],
      "name": "ExpiredFillDeadline",
      "type": "error"
    },
    {
      "inputs": [],
      "name": "FillsArePaused",
      "type": "error"
    },
    {
      "inputs": [],
      "name": "InvalidChainId",
      "type": "error"
    },
    {
      "inputs": [],
      "name": "InvalidCrossDomainAdmin",
      "type": "error"
    },
    {
      "inputs": [],
      "name": "InvalidDepositorSignature",
      "type": "error"
    },
    {
      "inputs": [],
      "name": "InvalidExclusiveRelayer",
      "type": "error"
    },
    {
      "inputs": [],
      "name": "InvalidExclusivityDeadline",
      "type": "error"
    },
    {
      "inputs": [],
      "name": "InvalidFillDeadline",
      "type": "error"
    },
    {
      "inputs": [],
      "name": "InvalidHubPool",
      "type": "error"
    },
    {
      "inputs": [],
      "name": "InvalidMerkleLeaf",
      "type": "error"
    },
    {
      "inputs": [],
      "name": "InvalidMerkleProof",
      "type": "error"
    },
    {
      "inputs": [],
      "name": "InvalidPayoutAdjustmentPct",
      "type": "error"
    },
    {
      "inputs": [],
      "name": "InvalidQuoteTimestamp",
      "type": "error"
    },
    {
      "inputs": [],
      "name": "InvalidRelayerFeePct",
      "type": "error"
    },
    {
      "inputs": [],
      "name": "InvalidSlowFillRequest",
      "type": "error"
    },
    {
      "inputs": [],
      "name": "MaxTransferSizeExceeded",
      "type": "error"
    },
    {
      "inputs": [],
      "name": "MsgValueDoesNotMatchInputAmount",
      "type": "error"
    },
    {
      "inputs": [],
      "name": "NoSlowFillsInExclusivityWindow",
      "type": "error"
    },
    {
      "inputs": [],
      "name": "NotCrossChainCall",
      "type": "error"
    },
    {
      "inputs": [],
      "name": "NotCrossDomainAdmin",
      "type": "error"
    },
    {
      "inputs": [],
      "name": "NotEOA",
      "type": "error"
    },
    {
      "inputs": [],
      "name": "NotExclusiveRelayer",
      "type": "error"
    },
    {
      "inputs": [],
      "name": "RelayFilled",
      "type": "error"
    },
    {
      "anonymous": false,
      "inputs": [
        {
          "indexed": false,
          "internalType": "address",
          "name": "previousAdmin",
          "type": "address"
        },
        {
          "indexed": false,
          "internalType": "address",
          "name": "newAdmin",
          "type": "address"
        }
      ],
      "name": "AdminChanged",
      "type": "event"
    },
    {
      "anonymous": false,
      "inputs": [
        {
          "indexed": true,
          "internalType": "address",
          "name": "beacon",
          "type": "address"
        }
      ],
      "name": "BeaconUpgraded",
      "type": "event"
    },
    {
      "anonymous": false,
      "inputs": [
        {
          "indexed": true,
          "internalType": "uint256",
          "name": "rootBundleId",
          "type": "uint256"
        }
      ],
      "name": "EmergencyDeleteRootBundle",
      "type": "event"
    },
    {
      "anonymous": false,
      "inputs": [
        {
          "indexed": true,
          "internalType": "address",
          "name": "originToken",
          "type": "address"
        },
        {
          "indexed": true,
          "internalType": "uint256",
          "name": "destinationChainId",
          "type": "uint256"
        },
        {
          "indexed": false,
          "internalType": "bool",
          "name": "enabled",
          "type": "bool"
        }
      ],
      "name": "EnabledDepositRoute",
      "type": "event"
    },
    {
      "anonymous": false,
      "inputs": [
        {
          "indexed": false,
          "internalType": "uint256",
          "name": "amountToReturn",
          "type": "uint256"
        },
        {
          "indexed": true,
          "internalType": "uint256",
          "name": "chainId",
          "type": "uint256"
        },
        {
          "indexed": false,
          "internalType": "uint256[]",
          "name": "refundAmounts",
          "type": "uint256[]"
        },
        {
          "indexed": true,
          "internalType": "uint32",
          "name": "rootBundleId",
          "type": "uint32"
        },
        {
          "indexed": true,
          "internalType": "uint32",
          "name": "leafId",
          "type": "uint32"
        },
        {
          "indexed": false,
          "internalType": "address",
          "name": "l2TokenAddress",
          "type": "address"
        },
        {
          "indexed": false,
          "internalType": "address[]",
          "name": "refundAddresses",
          "type": "address[]"
        },
        {
          "indexed": false,
          "internalType": "address",
          "name": "caller",
          "type": "address"
        }
      ],
      "name": "ExecutedRelayerRefundRoot",
      "type": "event"
    },
    {
      "anonymous": false,
      "inputs": [
        {
          "indexed": false,
          "internalType": "uint256",
          "name": "amount",
          "type": "uint256"
        },
        {
          "indexed": false,
          "internalType": "uint256",
          "name": "totalFilledAmount",
          "type": "uint256"
        },
        {
          "indexed": false,
          "internalType": "uint256",
          "name": "fillAmount",
          "type": "uint256"
        },
        {
          "indexed": false,
          "internalType": "uint256",
          "name": "repaymentChainId",
          "type": "uint256"
        },
        {
          "indexed": true,
          "internalType": "uint256",
          "name": "originChainId",
          "type": "uint256"
        },
        {
          "indexed": false,
          "internalType": "uint256",
          "name": "destinationChainId",
          "type": "uint256"
        },
        {
          "indexed": false,
          "internalType": "int64",
          "name": "relayerFeePct",
          "type": "int64"
        },
        {
          "indexed": false,
          "internalType": "int64",
          "name": "realizedLpFeePct",
          "type": "int64"
        },
        {
          "indexed": true,
          "internalType": "uint32",
          "name": "depositId",
          "type": "uint32"
        },
        {
          "indexed": false,
          "internalType": "address",
          "name": "destinationToken",
          "type": "address"
        },
        {
          "indexed": false,
          "internalType": "address",
          "name": "relayer",
          "type": "address"
        },
        {
          "indexed": true,
          "internalType": "address",
          "name": "depositor",
          "type": "address"
        },
        {
          "indexed": false,
          "internalType": "address",
          "name": "recipient",
          "type": "address"
        },
        {
          "indexed": false,
          "internalType": "bytes",
          "name": "message",
          "type": "bytes"
        },
        {
          "components": [
            {
              "internalType": "address",
              "name": "recipient",
              "type": "address"
            },
            {
              "internalType": "bytes",
              "name": "message",
              "type": "bytes"
            },
            {
              "internalType": "int64",
              "name": "relayerFeePct",
              "type": "int64"
            },
            {
              "internalType": "bool",
              "name": "isSlowRelay",
              "type": "bool"
            },
            {
              "internalType": "int256",
              "name": "payoutAdjustmentPct",
              "type": "int256"
            }
          ],
          "indexed": false,
          "internalType": "struct SpokePool.RelayExecutionInfo",
          "name": "updatableRelayData",
          "type": "tuple"
        }
      ],
      "name": "FilledRelay",
      "type": "event"
    },
    {
      "anonymous": false,
      "inputs": [
        {
          "indexed": false,
          "internalType": "address",
          "name": "inputToken",
          "type": "address"
        },
        {
          "indexed": false,
          "internalType": "address",
          "name": "outputToken",
          "type": "address"
        },
        {
          "indexed": false,
          "internalType": "uint256",
          "name": "inputAmount",
          "type": "uint256"
        },
        {
          "indexed": false,
          "internalType": "uint256",
          "name": "outputAmount",
          "type": "uint256"
        },
        {
          "indexed": false,
          "internalType": "uint256",
          "name": "repaymentChainId",
          "type": "uint256"
        },
        {
          "indexed": true,
          "internalType": "uint256",
          "name": "originChainId",
          "type": "uint256"
        },
        {
          "indexed": true,
          "internalType": "uint32",
          "name": "depositId",
          "type": "uint32"
        },
        {
          "indexed": false,
          "internalType": "uint32",
          "name": "fillDeadline",
          "type": "uint32"
        },
        {
          "indexed": false,
          "internalType": "uint32",
          "name": "exclusivityDeadline",
          "type": "uint32"
        },
        {
          "indexed": false,
          "internalType": "address",
          "name": "exclusiveRelayer",
          "type": "address"
        },
        {
          "indexed": true,
          "internalType": "address",
          "name": "relayer",
          "type": "address"
        },
        {
          "indexed": false,
          "internalType": "address",
          "name": "depositor",
          "type": "address"
        },
        {
          "indexed": false,
          "internalType": "address",
          "name": "recipient",
          "type": "address"
        },
        {
          "indexed": false,
          "internalType": "bytes",
          "name": "message",
          "type": "bytes"
        },
        {
          "components": [
            {
              "internalType": "address",
              "name": "updatedRecipient",
              "type": "address"
            },
            {
              "internalType": "bytes",
              "name": "updatedMessage",
              "type": "bytes"
            },
            {
              "internalType": "uint256",
              "name": "updatedOutputAmount",
              "type": "uint256"
            },
            {
              "internalType": "enum V3SpokePoolInterface.FillType",
              "name": "fillType",
              "type": "uint8"
            }
          ],
          "indexed": false,
          "internalType": "struct V3SpokePoolInterface.V3RelayExecutionEventInfo",
          "name": "relayExecutionInfo",
          "type": "tuple"
        }
      ],
      "name": "FilledV3Relay",
      "type": "event"
    },
    {
      "anonymous": false,
      "inputs": [
        {
          "indexed": false,
          "internalType": "uint256",
          "name": "amount",
          "type": "uint256"
        },
        {
          "indexed": false,
          "internalType": "uint256",
          "name": "originChainId",
          "type": "uint256"
        },
        {
          "indexed": true,
          "internalType": "uint256",
          "name": "destinationChainId",
          "type": "uint256"
        },
        {
          "indexed": false,
          "internalType": "int64",
          "name": "relayerFeePct",
          "type": "int64"
        },
        {
          "indexed": true,
          "internalType": "uint32",
          "name": "depositId",
          "type": "uint32"
        },
        {
          "indexed": false,
          "internalType": "uint32",
          "name": "quoteTimestamp",
          "type": "uint32"
        },
        {
          "indexed": false,
          "internalType": "address",
          "name": "originToken",
          "type": "address"
        },
        {
          "indexed": false,
          "internalType": "address",
          "name": "recipient",
          "type": "address"
        },
        {
          "indexed": true,
          "internalType": "address",
          "name": "depositor",
          "type": "address"
        },
        {
          "indexed": false,
          "internalType": "bytes",
          "name": "message",
          "type": "bytes"
        }
      ],
      "name": "FundsDeposited",
      "type": "event"
    },
    {
      "anonymous": false,
      "inputs": [
        {
          "indexed": false,
          "internalType": "uint8",
          "name": "version",
          "type": "uint8"
        }
      ],
      "name": "Initialized",
      "type": "event"
    },
    {
      "anonymous": false,
      "inputs": [
        {
          "indexed": false,
          "internalType": "bool",
          "name": "isPaused",
          "type": "bool"
        }
      ],
      "name": "PausedDeposits",
      "type": "event"
    },
    {
      "anonymous": false,
      "inputs": [
        {
          "indexed": false,
          "internalType": "bool",
          "name": "isPaused",
          "type": "bool"
        }
      ],
      "name": "PausedFills",
      "type": "event"
    },
    {
      "anonymous": false,
      "inputs": [
        {
          "indexed": true,
          "internalType": "uint32",
          "name": "rootBundleId",
          "type": "uint32"
        },
        {
          "indexed": true,
          "internalType": "bytes32",
          "name": "relayerRefundRoot",
          "type": "bytes32"
        },
        {
          "indexed": true,
          "internalType": "bytes32",
          "name": "slowRelayRoot",
          "type": "bytes32"
        }
      ],
      "name": "RelayedRootBundle",
      "type": "event"
    },
    {
      "anonymous": false,
      "inputs": [
        {
          "indexed": false,
          "internalType": "int64",
          "name": "newRelayerFeePct",
          "type": "int64"
        },
        {
          "indexed": true,
          "internalType": "uint32",
          "name": "depositId",
          "type": "uint32"
        },
        {
          "indexed": true,
          "internalType": "address",
          "name": "depositor",
          "type": "address"
        },
        {
          "indexed": false,
          "internalType": "address",
          "name": "updatedRecipient",
          "type": "address"
        },
        {
          "indexed": false,
          "internalType": "bytes",
          "name": "updatedMessage",
          "type": "bytes"
        },
        {
          "indexed": false,
          "internalType": "bytes",
          "name": "depositorSignature",
          "type": "bytes"
        }
      ],
      "name": "RequestedSpeedUpDeposit",
      "type": "event"
    },
    {
      "anonymous": false,
      "inputs": [
        {
          "indexed": false,
          "internalType": "uint256",
          "name": "updatedOutputAmount",
          "type": "uint256"
        },
        {
          "indexed": true,
          "internalType": "uint32",
          "name": "depositId",
          "type": "uint32"
        },
        {
          "indexed": true,
          "internalType": "address",
          "name": "depositor",
          "type": "address"
        },
        {
          "indexed": false,
          "internalType": "address",
          "name": "updatedRecipient",
          "type": "address"
        },
        {
          "indexed": false,
          "internalType": "bytes",
          "name": "updatedMessage",
          "type": "bytes"
        },
        {
          "indexed": false,
          "internalType": "bytes",
          "name": "depositorSignature",
          "type": "bytes"
        }
      ],
      "name": "RequestedSpeedUpV3Deposit",
      "type": "event"
    },
    {
      "anonymous": false,
      "inputs": [
        {
          "indexed": false,
          "internalType": "address",
          "name": "inputToken",
          "type": "address"
        },
        {
          "indexed": false,
          "internalType": "address",
          "name": "outputToken",
          "type": "address"
        },
        {
          "indexed": false,
          "internalType": "uint256",
          "name": "inputAmount",
          "type": "uint256"
        },
        {
          "indexed": false,
          "internalType": "uint256",
          "name": "outputAmount",
          "type": "uint256"
        },
        {
          "indexed": true,
          "internalType": "uint256",
          "name": "originChainId",
          "type": "uint256"
        },
        {
          "indexed": true,
          "internalType": "uint32",
          "name": "depositId",
          "type": "uint32"
        },
        {
          "indexed": false,
          "internalType": "uint32",
          "name": "fillDeadline",
          "type": "uint32"
        },
        {
          "indexed": false,
          "internalType": "uint32",
          "name": "exclusivityDeadline",
          "type": "uint32"
        },
        {
          "indexed": false,
          "internalType": "address",
          "name": "exclusiveRelayer",
          "type": "address"
        },
        {
          "indexed": false,
          "internalType": "address",
          "name": "depositor",
          "type": "address"
        },
        {
          "indexed": false,
          "internalType": "address",
          "name": "recipient",
          "type": "address"
        },
        {
          "indexed": false,
          "internalType": "bytes",
          "name": "message",
          "type": "bytes"
        }
      ],
      "name": "RequestedV3SlowFill",
      "type": "event"
    },
    {
      "anonymous": false,
      "inputs": [
        {
          "indexed": true,
          "internalType": "address",
          "name": "newHubPool",
          "type": "address"
        }
      ],
      "name": "SetHubPool",
      "type": "event"
    },
    {
      "anonymous": false,
      "inputs": [
        {
          "indexed": true,
          "internalType": "uint32",
          "name": "newL1Gas",
          "type": "uint32"
        }
      ],
      "name": "SetL1Gas",
      "type": "event"
    },
    {
      "anonymous": false,
      "inputs": [
        {
          "indexed": true,
          "internalType": "address",
          "name": "l2Token",
          "type": "address"
        },
        {
          "indexed": true,
          "internalType": "address",
          "name": "tokenBridge",
          "type": "address"
        }
      ],
      "name": "SetL2TokenBridge",
      "type": "event"
    },
    {
      "anonymous": false,
      "inputs": [
        {
          "indexed": true,
          "internalType": "address",
          "name": "l2Token",
          "type": "address"
        },
        {
          "indexed": true,
          "internalType": "address",
          "name": "l1Token",
          "type": "address"
        }
      ],
      "name": "SetRemoteL1Token",
      "type": "event"
    },
    {
      "anonymous": false,
      "inputs": [
        {
          "indexed": true,
          "internalType": "address",
          "name": "newAdmin",
          "type": "address"
        }
      ],
      "name": "SetXDomainAdmin",
      "type": "event"
    },
    {
      "anonymous": false,
      "inputs": [
        {
          "indexed": false,
          "internalType": "uint256",
          "name": "amountToReturn",
          "type": "uint256"
        },
        {
          "indexed": true,
          "internalType": "uint256",
          "name": "chainId",
          "type": "uint256"
        },
        {
          "indexed": true,
          "internalType": "uint32",
          "name": "leafId",
          "type": "uint32"
        },
        {
          "indexed": true,
          "internalType": "address",
          "name": "l2TokenAddress",
          "type": "address"
        },
        {
          "indexed": false,
          "internalType": "address",
          "name": "caller",
          "type": "address"
        }
      ],
      "name": "TokensBridged",
      "type": "event"
    },
    {
      "anonymous": false,
      "inputs": [
        {
          "indexed": true,
          "internalType": "address",
          "name": "implementation",
          "type": "address"
        }
      ],
      "name": "Upgraded",
      "type": "event"
    },
    {
      "anonymous": false,
      "inputs": [
        {
          "indexed": false,
          "internalType": "address",
          "name": "inputToken",
          "type": "address"
        },
        {
          "indexed": false,
          "internalType": "address",
          "name": "outputToken",
          "type": "address"
        },
        {
          "indexed": false,
          "internalType": "uint256",
          "name": "inputAmount",
          "type": "uint256"
        },
        {
          "indexed": false,
          "internalType": "uint256",
          "name": "outputAmount",
          "type": "uint256"
        },
        {
          "indexed": true,
          "internalType": "uint256",
          "name": "destinationChainId",
          "type": "uint256"
        },
        {
          "indexed": true,
          "internalType": "uint32",
          "name": "depositId",
          "type": "uint32"
        },
        {
          "indexed": false,
          "internalType": "uint32",
          "name": "quoteTimestamp",
          "type": "uint32"
        },
        {
          "indexed": false,
          "internalType": "uint32",
          "name": "fillDeadline",
          "type": "uint32"
        },
        {
          "indexed": false,
          "internalType": "uint32",
          "name": "exclusivityDeadline",
          "type": "uint32"
        },
        {
          "indexed": true,
          "internalType": "address",
          "name": "depositor",
          "type": "address"
        },
        {
          "indexed": false,
          "internalType": "address",
          "name": "recipient",
          "type": "address"
        },
        {
          "indexed": false,
          "internalType": "address",
          "name": "exclusiveRelayer",
          "type": "address"
        },
        {
          "indexed": false,
          "internalType": "bytes",
          "name": "message",
          "type": "bytes"
        }
      ],
      "name": "V3FundsDeposited",
      "type": "event"
    },
    {
      "inputs": [],
      "name": "EMPTY_RELAYER",
      "outputs": [
        {
          "internalType": "address",
          "name": "",
          "type": "address"
        }
      ],
      "stateMutability": "view",
      "type": "function"
    },
    {
      "inputs": [],
      "name": "EMPTY_REPAYMENT_CHAIN_ID",
      "outputs": [
        {
          "internalType": "uint256",
          "name": "",
          "type": "uint256"
        }
      ],
      "stateMutability": "view",
      "type": "function"
    },
    {
      "inputs": [],
      "name": "INFINITE_FILL_DEADLINE",
      "outputs": [
        {
          "internalType": "uint32",
          "name": "",
          "type": "uint32"
        }
      ],
      "stateMutability": "view",
      "type": "function"
    },
    {
      "inputs": [],
      "name": "MAX_TRANSFER_SIZE",
      "outputs": [
        {
          "internalType": "uint256",
          "name": "",
          "type": "uint256"
        }
      ],
      "stateMutability": "view",
      "type": "function"
    },
    {
      "inputs": [],
      "name": "MESSENGER",
      "outputs": [
        {
          "internalType": "address",
          "name": "",
          "type": "address"
        }
      ],
      "stateMutability": "view",
      "type": "function"
    },
    {
      "inputs": [],
      "name": "UPDATE_V3_DEPOSIT_DETAILS_HASH",
      "outputs": [
        {
          "internalType": "bytes32",
          "name": "",
          "type": "bytes32"
        }
      ],
      "stateMutability": "view",
      "type": "function"
    },
    {
      "inputs": [
        {
          "internalType": "uint32",
          "name": "_initialDepositId",
          "type": "uint32"
        },
        {
          "internalType": "address",
          "name": "_crossDomainAdmin",
          "type": "address"
        },
        {
          "internalType": "address",
          "name": "_hubPool",
          "type": "address"
        },
        {
          "internalType": "address",
          "name": "_l2Eth",
          "type": "address"
        }
      ],
      "name": "__OvmSpokePool_init",
      "outputs": [],
      "stateMutability": "nonpayable",
      "type": "function"
    },
    {
      "inputs": [
        {
          "internalType": "uint32",
          "name": "_initialDepositId",
          "type": "uint32"
        },
        {
          "internalType": "address",
          "name": "_crossDomainAdmin",
          "type": "address"
        },
        {
          "internalType": "address",
          "name": "_hubPool",
          "type": "address"
        }
      ],
      "name": "__SpokePool_init",
      "outputs": [],
      "stateMutability": "nonpayable",
      "type": "function"
    },
    {
      "inputs": [],
      "name": "cctpTokenMessenger",
      "outputs": [
        {
          "internalType": "contract ITokenMessenger",
          "name": "",
          "type": "address"
        }
      ],
      "stateMutability": "view",
      "type": "function"
    },
    {
      "inputs": [],
      "name": "chainId",
      "outputs": [
        {
          "internalType": "uint256",
          "name": "",
          "type": "uint256"
        }
      ],
      "stateMutability": "view",
      "type": "function"
    },
    {
      "inputs": [],
      "name": "crossDomainAdmin",
      "outputs": [
        {
          "internalType": "address",
          "name": "",
          "type": "address"
        }
      ],
      "stateMutability": "view",
      "type": "function"
    },
    {
      "inputs": [
        {
          "internalType": "address",
          "name": "recipient",
          "type": "address"
        },
        {
          "internalType": "address",
          "name": "originToken",
          "type": "address"
        },
        {
          "internalType": "uint256",
          "name": "amount",
          "type": "uint256"
        },
        {
          "internalType": "uint256",
          "name": "destinationChainId",
          "type": "uint256"
        },
        {
          "internalType": "int64",
          "name": "relayerFeePct",
          "type": "int64"
        },
        {
          "internalType": "uint32",
          "name": "quoteTimestamp",
          "type": "uint32"
        },
        {
          "internalType": "bytes",
          "name": "message",
          "type": "bytes"
        },
        {
          "internalType": "uint256",
          "name": "",
          "type": "uint256"
        }
      ],
      "name": "deposit",
      "outputs": [],
      "stateMutability": "payable",
      "type": "function"
    },
    {
      "inputs": [
        {
          "internalType": "address",
          "name": "depositor",
          "type": "address"
        },
        {
          "internalType": "address",
          "name": "recipient",
          "type": "address"
        },
        {
          "internalType": "address",
          "name": "inputToken",
          "type": "address"
        },
        {
          "internalType": "address",
          "name": "outputToken",
          "type": "address"
        },
        {
          "internalType": "uint256",
          "name": "inputAmount",
          "type": "uint256"
        },
        {
          "internalType": "uint256",
          "name": "outputAmount",
          "type": "uint256"
        },
        {
          "internalType": "uint256",
          "name": "destinationChainId",
          "type": "uint256"
        },
        {
          "internalType": "address",
          "name": "exclusiveRelayer",
          "type": "address"
        },
        {
          "internalType": "uint32",
          "name": "quoteTimestamp",
          "type": "uint32"
        },
        {
          "internalType": "uint32",
          "name": "fillDeadline",
          "type": "uint32"
        },
        {
          "internalType": "uint32",
          "name": "exclusivityDeadlineOffset",
          "type": "uint32"
        },
        {
          "internalType": "bytes",
          "name": "message",
          "type": "bytes"
        }
      ],
      "name": "depositExclusive",
      "outputs": [],
      "stateMutability": "payable",
      "type": "function"
    },
    {
      "inputs": [
        {
          "internalType": "address",
          "name": "depositor",
          "type": "address"
        },
        {
          "internalType": "address",
          "name": "recipient",
          "type": "address"
        },
        {
          "internalType": "address",
          "name": "originToken",
          "type": "address"
        },
        {
          "internalType": "uint256",
          "name": "amount",
          "type": "uint256"
        },
        {
          "internalType": "uint256",
          "name": "destinationChainId",
          "type": "uint256"
        },
        {
          "internalType": "int64",
          "name": "relayerFeePct",
          "type": "int64"
        },
        {
          "internalType": "uint32",
          "name": "quoteTimestamp",
          "type": "uint32"
        },
        {
          "internalType": "bytes",
          "name": "message",
          "type": "bytes"
        },
        {
          "internalType": "uint256",
          "name": "",
          "type": "uint256"
        }
      ],
      "name": "depositFor",
      "outputs": [],
      "stateMutability": "payable",
      "type": "function"
    },
    {
      "inputs": [],
      "name": "depositQuoteTimeBuffer",
      "outputs": [
        {
          "internalType": "uint32",
          "name": "",
          "type": "uint32"
        }
      ],
      "stateMutability": "view",
      "type": "function"
    },
    {
      "inputs": [
        {
          "internalType": "address",
          "name": "depositor",
          "type": "address"
        },
        {
          "internalType": "address",
          "name": "recipient",
          "type": "address"
        },
        {
          "internalType": "address",
          "name": "inputToken",
          "type": "address"
        },
        {
          "internalType": "address",
          "name": "outputToken",
          "type": "address"
        },
        {
          "internalType": "uint256",
          "name": "inputAmount",
          "type": "uint256"
        },
        {
          "internalType": "uint256",
          "name": "outputAmount",
          "type": "uint256"
        },
        {
          "internalType": "uint256",
          "name": "destinationChainId",
          "type": "uint256"
        },
        {
          "internalType": "address",
          "name": "exclusiveRelayer",
          "type": "address"
        },
        {
          "internalType": "uint32",
          "name": "quoteTimestamp",
          "type": "uint32"
        },
        {
          "internalType": "uint32",
          "name": "fillDeadline",
          "type": "uint32"
        },
        {
          "internalType": "uint32",
          "name": "exclusivityDeadline",
          "type": "uint32"
        },
        {
          "internalType": "bytes",
          "name": "message",
          "type": "bytes"
        }
      ],
      "name": "depositV3",
      "outputs": [],
      "stateMutability": "payable",
      "type": "function"
    },
    {
      "inputs": [
        {
          "internalType": "address",
          "name": "depositor",
          "type": "address"
        },
        {
          "internalType": "address",
          "name": "recipient",
          "type": "address"
        },
        {
          "internalType": "address",
          "name": "inputToken",
          "type": "address"
        },
        {
          "internalType": "address",
          "name": "outputToken",
          "type": "address"
        },
        {
          "internalType": "uint256",
          "name": "inputAmount",
          "type": "uint256"
        },
        {
          "internalType": "uint256",
          "name": "outputAmount",
          "type": "uint256"
        },
        {
          "internalType": "uint256",
          "name": "destinationChainId",
          "type": "uint256"
        },
        {
          "internalType": "address",
          "name": "exclusiveRelayer",
          "type": "address"
        },
        {
          "internalType": "uint32",
          "name": "fillDeadlineOffset",
          "type": "uint32"
        },
        {
          "internalType": "uint32",
          "name": "exclusivityDeadline",
          "type": "uint32"
        },
        {
          "internalType": "bytes",
          "name": "message",
          "type": "bytes"
        }
      ],
      "name": "depositV3Now",
      "outputs": [],
      "stateMutability": "payable",
      "type": "function"
    },
    {
      "inputs": [
        {
          "internalType": "uint256",
          "name": "rootBundleId",
          "type": "uint256"
        }
      ],
      "name": "emergencyDeleteRootBundle",
      "outputs": [],
      "stateMutability": "nonpayable",
      "type": "function"
    },
    {
      "inputs": [
        {
          "internalType": "address",
          "name": "",
          "type": "address"
        },
        {
          "internalType": "uint256",
          "name": "",
          "type": "uint256"
        }
      ],
      "name": "enabledDepositRoutes",
      "outputs": [
        {
          "internalType": "bool",
          "name": "",
          "type": "bool"
        }
      ],
      "stateMutability": "view",
      "type": "function"
    },
    {
      "inputs": [
        {
          "internalType": "uint32",
          "name": "rootBundleId",
          "type": "uint32"
        },
        {
          "components": [
            {
              "internalType": "uint256",
              "name": "amountToReturn",
              "type": "uint256"
            },
            {
              "internalType": "uint256",
              "name": "chainId",
              "type": "uint256"
            },
            {
              "internalType": "uint256[]",
              "name": "refundAmounts",
              "type": "uint256[]"
            },
            {
              "internalType": "uint32",
              "name": "leafId",
              "type": "uint32"
            },
            {
              "internalType": "address",
              "name": "l2TokenAddress",
              "type": "address"
            },
            {
              "internalType": "address[]",
              "name": "refundAddresses",
              "type": "address[]"
            }
          ],
          "internalType": "struct SpokePoolInterface.RelayerRefundLeaf",
          "name": "relayerRefundLeaf",
          "type": "tuple"
        },
        {
          "internalType": "bytes32[]",
          "name": "proof",
          "type": "bytes32[]"
        }
      ],
      "name": "executeRelayerRefundLeaf",
      "outputs": [],
      "stateMutability": "payable",
      "type": "function"
    },
    {
      "inputs": [
        {
          "components": [
            {
              "components": [
                {
                  "internalType": "address",
                  "name": "depositor",
                  "type": "address"
                },
                {
                  "internalType": "address",
                  "name": "recipient",
                  "type": "address"
                },
                {
                  "internalType": "address",
                  "name": "exclusiveRelayer",
                  "type": "address"
                },
                {
                  "internalType": "address",
                  "name": "inputToken",
                  "type": "address"
                },
                {
                  "internalType": "address",
                  "name": "outputToken",
                  "type": "address"
                },
                {
                  "internalType": "uint256",
                  "name": "inputAmount",
                  "type": "uint256"
                },
                {
                  "internalType": "uint256",
                  "name": "outputAmount",
                  "type": "uint256"
                },
                {
                  "internalType": "uint256",
                  "name": "originChainId",
                  "type": "uint256"
                },
                {
                  "internalType": "uint32",
                  "name": "depositId",
                  "type": "uint32"
                },
                {
                  "internalType": "uint32",
                  "name": "fillDeadline",
                  "type": "uint32"
                },
                {
                  "internalType": "uint32",
                  "name": "exclusivityDeadline",
                  "type": "uint32"
                },
                {
                  "internalType": "bytes",
                  "name": "message",
                  "type": "bytes"
                }
              ],
              "internalType": "struct V3SpokePoolInterface.V3RelayData",
              "name": "relayData",
              "type": "tuple"
            },
            {
              "internalType": "uint256",
              "name": "chainId",
              "type": "uint256"
            },
            {
              "internalType": "uint256",
              "name": "updatedOutputAmount",
              "type": "uint256"
            }
          ],
          "internalType": "struct V3SpokePoolInterface.V3SlowFill",
          "name": "slowFillLeaf",
          "type": "tuple"
        },
        {
          "internalType": "uint32",
          "name": "rootBundleId",
          "type": "uint32"
        },
        {
          "internalType": "bytes32[]",
          "name": "proof",
          "type": "bytes32[]"
        }
      ],
      "name": "executeV3SlowRelayLeaf",
      "outputs": [],
      "stateMutability": "nonpayable",
      "type": "function"
    },
    {
      "inputs": [],
      "name": "fillDeadlineBuffer",
      "outputs": [
        {
          "internalType": "uint32",
          "name": "",
          "type": "uint32"
        }
      ],
      "stateMutability": "view",
      "type": "function"
    },
    {
      "inputs": [
        {
          "internalType": "bytes32",
          "name": "",
          "type": "bytes32"
        }
      ],
      "name": "fillStatuses",
      "outputs": [
        {
          "internalType": "uint256",
          "name": "",
          "type": "uint256"
        }
      ],
      "stateMutability": "view",
      "type": "function"
    },
    {
      "inputs": [
        {
          "components": [
            {
              "internalType": "address",
              "name": "depositor",
              "type": "address"
            },
            {
              "internalType": "address",
              "name": "recipient",
              "type": "address"
            },
            {
              "internalType": "address",
              "name": "exclusiveRelayer",
              "type": "address"
            },
            {
              "internalType": "address",
              "name": "inputToken",
              "type": "address"
            },
            {
              "internalType": "address",
              "name": "outputToken",
              "type": "address"
            },
            {
              "internalType": "uint256",
              "name": "inputAmount",
              "type": "uint256"
            },
            {
              "internalType": "uint256",
              "name": "outputAmount",
              "type": "uint256"
            },
            {
              "internalType": "uint256",
              "name": "originChainId",
              "type": "uint256"
            },
            {
              "internalType": "uint32",
              "name": "depositId",
              "type": "uint32"
            },
            {
              "internalType": "uint32",
              "name": "fillDeadline",
              "type": "uint32"
            },
            {
              "internalType": "uint32",
              "name": "exclusivityDeadline",
              "type": "uint32"
            },
            {
              "internalType": "bytes",
              "name": "message",
              "type": "bytes"
            }
          ],
          "internalType": "struct V3SpokePoolInterface.V3RelayData",
          "name": "relayData",
          "type": "tuple"
        },
        {
          "internalType": "uint256",
          "name": "repaymentChainId",
          "type": "uint256"
        }
      ],
      "name": "fillV3Relay",
      "outputs": [],
      "stateMutability": "nonpayable",
      "type": "function"
    },
    {
      "inputs": [
        {
          "components": [
            {
              "internalType": "address",
              "name": "depositor",
              "type": "address"
            },
            {
              "internalType": "address",
              "name": "recipient",
              "type": "address"
            },
            {
              "internalType": "address",
              "name": "exclusiveRelayer",
              "type": "address"
            },
            {
              "internalType": "address",
              "name": "inputToken",
              "type": "address"
            },
            {
              "internalType": "address",
              "name": "outputToken",
              "type": "address"
            },
            {
              "internalType": "uint256",
              "name": "inputAmount",
              "type": "uint256"
            },
            {
              "internalType": "uint256",
              "name": "outputAmount",
              "type": "uint256"
            },
            {
              "internalType": "uint256",
              "name": "originChainId",
              "type": "uint256"
            },
            {
              "internalType": "uint32",
              "name": "depositId",
              "type": "uint32"
            },
            {
              "internalType": "uint32",
              "name": "fillDeadline",
              "type": "uint32"
            },
            {
              "internalType": "uint32",
              "name": "exclusivityDeadline",
              "type": "uint32"
            },
            {
              "internalType": "bytes",
              "name": "message",
              "type": "bytes"
            }
          ],
          "internalType": "struct V3SpokePoolInterface.V3RelayData",
          "name": "relayData",
          "type": "tuple"
        },
        {
          "internalType": "uint256",
          "name": "repaymentChainId",
          "type": "uint256"
        },
        {
          "internalType": "uint256",
          "name": "updatedOutputAmount",
          "type": "uint256"
        },
        {
          "internalType": "address",
          "name": "updatedRecipient",
          "type": "address"
        },
        {
          "internalType": "bytes",
          "name": "updatedMessage",
          "type": "bytes"
        },
        {
          "internalType": "bytes",
          "name": "depositorSignature",
          "type": "bytes"
        }
      ],
      "name": "fillV3RelayWithUpdatedDeposit",
      "outputs": [],
      "stateMutability": "nonpayable",
      "type": "function"
    },
    {
      "inputs": [],
      "name": "getCurrentTime",
      "outputs": [
        {
          "internalType": "uint256",
          "name": "",
          "type": "uint256"
        }
      ],
      "stateMutability": "view",
      "type": "function"
    },
    {
      "inputs": [],
      "name": "hubPool",
      "outputs": [
        {
          "internalType": "address",
          "name": "",
          "type": "address"
        }
      ],
      "stateMutability": "view",
      "type": "function"
    },
    {
      "inputs": [
        {
          "internalType": "uint32",
          "name": "_initialDepositId",
          "type": "uint32"
        },
        {
          "internalType": "address",
          "name": "_crossDomainAdmin",
          "type": "address"
        },
        {
          "internalType": "address",
          "name": "_hubPool",
          "type": "address"
        }
      ],
      "name": "initialize",
      "outputs": [],
      "stateMutability": "nonpayable",
      "type": "function"
    },
    {
      "inputs": [],
      "name": "l1Gas",
      "outputs": [
        {
          "internalType": "uint32",
          "name": "",
          "type": "uint32"
        }
      ],
      "stateMutability": "view",
      "type": "function"
    },
    {
      "inputs": [],
      "name": "l2Eth",
      "outputs": [
        {
          "internalType": "address",
          "name": "",
          "type": "address"
        }
      ],
      "stateMutability": "view",
      "type": "function"
    },
    {
      "inputs": [
        {
          "internalType": "bytes[]",
          "name": "data",
          "type": "bytes[]"
        }
      ],
      "name": "multicall",
      "outputs": [
        {
          "internalType": "bytes[]",
          "name": "results",
          "type": "bytes[]"
        }
      ],
      "stateMutability": "nonpayable",
      "type": "function"
    },
    {
      "inputs": [],
      "name": "numberOfDeposits",
      "outputs": [
        {
          "internalType": "uint32",
          "name": "",
          "type": "uint32"
        }
      ],
      "stateMutability": "view",
      "type": "function"
    },
    {
      "inputs": [
        {
          "internalType": "bool",
          "name": "pause",
          "type": "bool"
        }
      ],
      "name": "pauseDeposits",
      "outputs": [],
      "stateMutability": "nonpayable",
      "type": "function"
    },
    {
      "inputs": [
        {
          "internalType": "bool",
          "name": "pause",
          "type": "bool"
        }
      ],
      "name": "pauseFills",
      "outputs": [],
      "stateMutability": "nonpayable",
      "type": "function"
    },
    {
      "inputs": [],
      "name": "pausedDeposits",
      "outputs": [
        {
          "internalType": "bool",
          "name": "",
          "type": "bool"
        }
      ],
      "stateMutability": "view",
      "type": "function"
    },
    {
      "inputs": [],
      "name": "pausedFills",
      "outputs": [
        {
          "internalType": "bool",
          "name": "",
          "type": "bool"
        }
      ],
      "stateMutability": "view",
      "type": "function"
    },
    {
      "inputs": [],
      "name": "proxiableUUID",
      "outputs": [
        {
          "internalType": "bytes32",
          "name": "",
          "type": "bytes32"
        }
      ],
      "stateMutability": "view",
      "type": "function"
    },
    {
      "inputs": [],
      "name": "recipientCircleDomainId",
      "outputs": [
        {
          "internalType": "uint32",
          "name": "",
          "type": "uint32"
        }
      ],
      "stateMutability": "view",
      "type": "function"
    },
    {
      "inputs": [
        {
          "internalType": "bytes32",
          "name": "relayerRefundRoot",
          "type": "bytes32"
        },
        {
          "internalType": "bytes32",
          "name": "slowRelayRoot",
          "type": "bytes32"
        }
      ],
      "name": "relayRootBundle",
      "outputs": [],
      "stateMutability": "nonpayable",
      "type": "function"
    },
    {
      "inputs": [
        {
          "internalType": "address",
          "name": "",
          "type": "address"
        }
      ],
      "name": "remoteL1Tokens",
      "outputs": [
        {
          "internalType": "address",
          "name": "",
          "type": "address"
        }
      ],
      "stateMutability": "view",
      "type": "function"
    },
    {
      "inputs": [
        {
          "components": [
            {
              "internalType": "address",
              "name": "depositor",
              "type": "address"
            },
            {
              "internalType": "address",
              "name": "recipient",
              "type": "address"
            },
            {
              "internalType": "address",
              "name": "exclusiveRelayer",
              "type": "address"
            },
            {
              "internalType": "address",
              "name": "inputToken",
              "type": "address"
            },
            {
              "internalType": "address",
              "name": "outputToken",
              "type": "address"
            },
            {
              "internalType": "uint256",
              "name": "inputAmount",
              "type": "uint256"
            },
            {
              "internalType": "uint256",
              "name": "outputAmount",
              "type": "uint256"
            },
            {
              "internalType": "uint256",
              "name": "originChainId",
              "type": "uint256"
            },
            {
              "internalType": "uint32",
              "name": "depositId",
              "type": "uint32"
            },
            {
              "internalType": "uint32",
              "name": "fillDeadline",
              "type": "uint32"
            },
            {
              "internalType": "uint32",
              "name": "exclusivityDeadline",
              "type": "uint32"
            },
            {
              "internalType": "bytes",
              "name": "message",
              "type": "bytes"
            }
          ],
          "internalType": "struct V3SpokePoolInterface.V3RelayData",
          "name": "relayData",
          "type": "tuple"
        }
      ],
      "name": "requestV3SlowFill",
      "outputs": [],
      "stateMutability": "nonpayable",
      "type": "function"
    },
    {
      "inputs": [
        {
          "internalType": "uint256",
          "name": "",
          "type": "uint256"
        }
      ],
      "name": "rootBundles",
      "outputs": [
        {
          "internalType": "bytes32",
          "name": "slowRelayRoot",
          "type": "bytes32"
        },
        {
          "internalType": "bytes32",
          "name": "relayerRefundRoot",
          "type": "bytes32"
        }
      ],
      "stateMutability": "view",
      "type": "function"
    },
    {
      "inputs": [
        {
          "internalType": "address",
          "name": "newCrossDomainAdmin",
          "type": "address"
        }
      ],
      "name": "setCrossDomainAdmin",
      "outputs": [],
      "stateMutability": "nonpayable",
      "type": "function"
    },
    {
      "inputs": [
        {
          "internalType": "address",
          "name": "originToken",
          "type": "address"
        },
        {
          "internalType": "uint256",
          "name": "destinationChainId",
          "type": "uint256"
        },
        {
          "internalType": "bool",
          "name": "enabled",
          "type": "bool"
        }
      ],
      "name": "setEnableRoute",
      "outputs": [],
      "stateMutability": "nonpayable",
      "type": "function"
    },
    {
      "inputs": [
        {
          "internalType": "address",
          "name": "newHubPool",
          "type": "address"
        }
      ],
      "name": "setHubPool",
      "outputs": [],
      "stateMutability": "nonpayable",
      "type": "function"
    },
    {
      "inputs": [
        {
          "internalType": "uint32",
          "name": "newl1Gas",
          "type": "uint32"
        }
      ],
      "name": "setL1GasLimit",
      "outputs": [],
      "stateMutability": "nonpayable",
      "type": "function"
    },
    {
      "inputs": [
        {
          "internalType": "address",
          "name": "l2Token",
          "type": "address"
        },
        {
          "internalType": "address",
          "name": "l1Token",
          "type": "address"
        }
      ],
      "name": "setRemoteL1Token",
      "outputs": [],
      "stateMutability": "nonpayable",
      "type": "function"
    },
    {
      "inputs": [
        {
          "internalType": "address",
          "name": "l2Token",
          "type": "address"
        },
        {
          "internalType": "address",
          "name": "tokenBridge",
          "type": "address"
        }
      ],
      "name": "setTokenBridge",
      "outputs": [],
      "stateMutability": "nonpayable",
      "type": "function"
    },
    {
      "inputs": [
        {
          "internalType": "address",
          "name": "depositor",
          "type": "address"
        },
        {
          "internalType": "uint32",
          "name": "depositId",
          "type": "uint32"
        },
        {
          "internalType": "uint256",
          "name": "updatedOutputAmount",
          "type": "uint256"
        },
        {
          "internalType": "address",
          "name": "updatedRecipient",
          "type": "address"
        },
        {
          "internalType": "bytes",
          "name": "updatedMessage",
          "type": "bytes"
        },
        {
          "internalType": "bytes",
          "name": "depositorSignature",
          "type": "bytes"
        }
      ],
      "name": "speedUpV3Deposit",
      "outputs": [],
      "stateMutability": "nonpayable",
      "type": "function"
    },
    {
      "inputs": [
        {
          "internalType": "address",
          "name": "",
          "type": "address"
        }
      ],
      "name": "tokenBridges",
      "outputs": [
        {
          "internalType": "address",
          "name": "",
          "type": "address"
        }
      ],
      "stateMutability": "view",
      "type": "function"
    },
    {
      "inputs": [
        {
          "internalType": "bytes[]",
          "name": "data",
          "type": "bytes[]"
        }
      ],
      "name": "tryMulticall",
      "outputs": [
        {
          "components": [
            {
              "internalType": "bool",
              "name": "success",
              "type": "bool"
            },
            {
              "internalType": "bytes",
              "name": "returnData",
              "type": "bytes"
            }
          ],
          "internalType": "struct MultiCallerUpgradeable.Result[]",
          "name": "results",
          "type": "tuple[]"
        }
      ],
      "stateMutability": "nonpayable",
      "type": "function"
    },
    {
      "inputs": [
        {
          "internalType": "address",
          "name": "newImplementation",
          "type": "address"
        }
      ],
      "name": "upgradeTo",
      "outputs": [],
      "stateMutability": "nonpayable",
      "type": "function"
    },
    {
      "inputs": [
        {
          "internalType": "address",
          "name": "newImplementation",
          "type": "address"
        },
        {
          "internalType": "bytes",
          "name": "data",
          "type": "bytes"
        }
      ],
      "name": "upgradeToAndCall",
      "outputs": [],
      "stateMutability": "payable",
      "type": "function"
    },
    {
      "inputs": [],
      "name": "usdcToken",
      "outputs": [
        {
          "internalType": "contract IERC20",
          "name": "",
          "type": "address"
        }
      ],
      "stateMutability": "view",
      "type": "function"
    },
    {
      "inputs": [],
      "name": "wrappedNativeToken",
      "outputs": [
        {
          "internalType": "contract WETH9Interface",
          "name": "",
          "type": "address"
        }
      ],
      "stateMutability": "view",
      "type": "function"
    },
    {
      "stateMutability": "payable",
      "type": "receive"
    }
  ],
  "numDeployments": 1,
  "solcInputHash": "d052c77d24253d89ebc9a6687a0cb263",
  "bytecode": "0x61016034620001e957601f6200517d38819003918201601f19168301916001600160401b03831184841017620001ed5780849260a094604052833981010312620001e95780516001600160a01b03919082811690819003620001e957620000696020830162000201565b620000776040840162000201565b916060840151938585168503620001e957608001519485168503620001e9573060805260a05260c05260e0525f5460ff8160081c16620001e95760ff80821603620001ae575b50610120908152610140918252610100915f835260405191614f699384620002148539608051848181610c9f015281816113180152611492015260a05184818161079c01528181611a1c01528181612d08015281816133ac0152818161351001528181613c6501528181613f35015281816143db0152818161478901526147b0015260c051848181611593015281816119c301528181612caf015261333e015260e0518481816103b301528181611c030152612e3c0152518381816117020152614d2801525182818161073f015281816147470152614c22015251818181611d4a015281816145000152614c4e0152f35b60ff90811916175f557f7f26b83ff96e1f2b6a682f133852f6798a09c465da95921460cefb3847402498602060405160ff8152a15f620000bd565b5f80fd5b634e487b7160e01b5f52604160045260245ffd5b519063ffffffff82168203620001e95756fe6080604052600436101561001a575b3615610018575f80fd5b005b5f3560e01c8063079bd2c7146103845780630c5d5f731461037f5780630eaac9f01461037a5780631186ec331461037557806311eac8551461037057806315348e441461030757806317fcb39b1461036b5780631b3d5559146103665780631dfb2d0214610361578063272751c71461035c57806329cb924d146103575780632cfc26c5146103525780632e3781151461034d5780633659cfe614610348578063431023b814610343578063437b91161461033e578063493a4f84146103395780634e0fb8f5146103345780634f1ef2861461032f5780635249fef11461032a5780635285e0581461032557806352d1902d14610320578063541f4f141461031b57806357f6dcb8146103165780636068d6cb14610311578063647c576c1461030c5780636bbbcd2e146103075780636e40098314610302578063738b62e5146102fd578063766e0703146102f85780637aef642c146102f35780637b939232146102ee5780638a7860ce146102e9578063927ede2d146102e45780639748cf7c146102df578063979f2bc2146102da5780639963e5a8146102d557806399cc2968146102d05780639a8a0592146102cb578063a1244c67146102c6578063ac9650d8146102c1578063add051a3146102bc578063b27a4300146102b7578063bbca7db0146102b2578063bf10268d146102ad578063c35c83fc146102a8578063ccfa5971146102a3578063ceb4c9871461029e578063dda5211314610299578063ddd224f114610294578063de7eba781461028f578063e19044021461028a578063e322921114610285578063ee2a53f8146102805763fbbba9ac0361000e576126cd565b61268f565b612613565b6125ec565b6125bc565b612593565b61256d565b61254f565b6124cc565b6124a1565b61241d565b6122dc565b61229d565b612227565b612187565b6120fd565b6120e3565b612035565b611e3c565b611d6e565b611d2b565b611cfd565b611c85565b61193e565b6117f9565b6117d5565b611726565b6116e6565b610763565b61160f565b6115b7565b611577565b6114e2565b611478565b611451565b611403565b6112d5565b6111bb565b611106565b611039565b610da9565b610c77565b610b24565b610adb565b610ac1565b610a22565b6109e3565b61090b565b61077d565b610720565b610667565b61044d565b6103f5565b610397565b5f91031261039357565b5f80fd5b34610393575f36600319011261039357602060405163ffffffff7f0000000000000000000000000000000000000000000000000000000000000000168152f35b6001600160a01b0381160361039357565b35906103f3826103d7565b565b34610393576020366003190112610393576020600435610414816103d7565b6001600160a01b038091165f52610c5d825260405f205416604051908152f35b63ffffffff81160361039357565b35906103f382610434565b346103935760203660031901126103935763ffffffff60043561046f81610434565b610477613144565b61047f613256565b16610c5a8163ffffffff198254161790557fe486a5c4bd7b36eabbfe274c99b39130277417be8d2209b4dae04c4fba64ee3a5f80a26001606555005b634e487b7160e01b5f52604160045260245ffd5b6040810190811067ffffffffffffffff8211176104eb57604052565b6104bb565b67ffffffffffffffff81116104eb57604052565b6060810190811067ffffffffffffffff8211176104eb57604052565b6020810190811067ffffffffffffffff8211176104eb57604052565b60e0810190811067ffffffffffffffff8211176104eb57604052565b60a0810190811067ffffffffffffffff8211176104eb57604052565b90601f8019910116810190811067ffffffffffffffff8211176104eb57604052565b6040519060c0820182811067ffffffffffffffff8211176104eb57604052565b60405190610180820182811067ffffffffffffffff8211176104eb57604052565b604051906080820182811067ffffffffffffffff8211176104eb57604052565b67ffffffffffffffff81116104eb57601f01601f191660200190565b92919261061f826105f7565b9161062d6040519384610574565b829481845281830111610393578281602093845f960137010152565b9080601f830112156103935781602061066493359101610613565b90565b61010036600319011261039357600435610680816103d7565b60243561068c816103d7565b6084358060070b81036103935760a435906106a682610434565b60c43567ffffffffffffffff8111610393576106c6903690600401610649565b926106cf613256565b60ff61086b5460e81c166106f6576106ef946064359160443591336132c5565b6001606555005b60046040517f5a65d188000000000000000000000000000000000000000000000000000000008152fd5b34610393575f3660031901126103935760206040516001600160a01b037f0000000000000000000000000000000000000000000000000000000000000000168152f35b34610393575f3660031901126103935760206040515f8152f35b34610393575f3660031901126103935760206040516001600160a01b037f0000000000000000000000000000000000000000000000000000000000000000168152f35b67ffffffffffffffff81116104eb5760051b60200190565b9080601f830112156103935760209082356107f2816107c0565b936108006040519586610574565b81855260208086019260051b82010192831161039357602001905b828210610829575050505090565b8135815290830190830161081b565b9080601f83011215610393576020908235610852816107c0565b936108606040519586610574565b81855260208086019260051b82010192831161039357602001905b828210610889575050505090565b8380918335610897816103d7565b81520191019061087b565b92916108ad826107c0565b916108bb6040519384610574565b829481845260208094019160051b810192831161039357905b8282106108e15750505050565b813581529083019083016108d4565b9080601f8301121561039357816020610664933591016108a2565b6003196060368201126103935760043561092481610434565b60243567ffffffffffffffff928382116103935760c09082360301126103935761094c610596565b90806004013582526024810135602083015260448101358481116103935761097a90600436918401016107d8565b604083015261098b60648201610442565b606083015261099c608482016103e8565b608083015260a4810135908482116103935760046109bd9236920101610838565b60a0820152604435928311610393576109dd6100189336906004016108f0565b91612751565b34610393576020366003190112610393576106ef600435610a03816103d7565b610a0b613144565b610a13613256565b6137da565b8015150361039357565b3461039357606036600319011261039357600435610a3f816103d7565b602435907f0a21fdd43d0ad0c62689ee7230a47309a050755bcc52eba00310add65297692a60206001600160a01b0360443593610a7b85610a18565b610a83613144565b610a8b613256565b1692835f5261086d825260405f20855f52825260405f209015159060ff1981541660ff8316179055604051908152a36001606555005b34610393575f366003190112610393576020604051428152f35b34610393575f3660031901126103935760206040517f152eb71524aef34d838ab76573c14b1ebfa5e385d9ab29d7cf5398daa2438bd98152f35b90816101809103126103935790565b346103935760403660031901126103935760043567ffffffffffffffff811161039357610b55903690600401610b15565b610b5d613256565b60ff61086b5460e01c16610c6657610b786101408201612944565b63ffffffff429116101580610c48575b610c1e57610c1490610c00610ba5610ba03684612958565b613918565b9160c0610bf9610bb76020840161294e565b610bc5610160850185612a38565b939094610bd0610596565b97610bdb3683612958565b89526020890152013560408701526001600160a01b03166060860152565b3691610613565b608082015260243560a08201523390613a6b565b6100186001606555565b60046040517fc3a9b9d0000000000000000000000000000000000000000000000000000000008152fd5b50610c556040820161294e565b6001600160a01b0316331415610b88565b6004604051633d90fc5560e11b8152fd5b3461039357602036600319011261039357600435610c94816103d7565b6001600160a01b03807f000000000000000000000000000000000000000000000000000000000000000016803014610393577f360894a13ba1a3210667c828492db98dca3e2076cc3735a920a3ca505d382bbc90828254160361039357610cf9613144565b60405191610d0683610520565b5f83527f4910fdfa16fed3260ed0e7147f7cc6da11a60208b5b9406d12a635614ffd91435460ff1615610d3f5750505061001890614948565b6020600491604051928380926352d1902d60e01b825288165afa5f9181610d78575b50610d6a575f80fd5b03610393576100189161482f565b610d9b91925060203d602011610da2575b610d938183610574565b81019061402d565b905f610d61565b503d610d89565b3461039357608036600319011261039357600435610dc681610434565b60243590610dd3826103d7565b604435610ddf816103d7565b60643591610dec836103d7565b60ff5f5460081c161561039357610e3390610c5a624c4b4063ffffffff1982541617905561086b9063ffffffff60c01b1963ffffffff60c01b83549260c01b169116179055565b60405190610e40826104cf565b6009825260208201916820a1a927a9a996ab1960b91b8352640312e302e360dc1b6020604051610e6f816104cf565b60058152015260ff5f5460081c16156103935761001894610ecf93610a139251902061047f557f06c015bd22b4c69690933c1058878ebdfef31f9aaae40bbe86d8a09fe1b2972c61048055610ec261419f565b610eca6141ae565b6141c2565b610c5a907fffffffffffffffff0000000000000000000000000000000000000000ffffffff77ffffffffffffffffffffffffffffffffffffffff0000000083549260201b169116179055565b9181601f840112156103935782359167ffffffffffffffff8311610393576020808501948460051b01011161039357565b6020600319820112610393576004359067ffffffffffffffff821161039357610f7791600401610f1b565b9091565b5f5b838110610f8c5750505f910152565b8181015183820152602001610f7d565b90602091610fb581518092818552858086019101610f7b565b601f01601f1916010190565b6020808201908083528351809252604092604081018260408560051b8401019601945f925b858410610ff7575050505050505090565b909192939495968580611028600193603f1986820301885286838d5180511515845201519181858201520190610f9c565b990194019401929594939190610fe6565b346103935761104736610f4c565b611050816107c0565b9160406110606040519485610574565b828452601f1961106f846107c0565b015f5b8181106110e35750505f5b83811061109657604051806110928782610fc1565b0390f35b806110dd6110a660019388612a6b565b515f806110b4858a8a612a7f565b906110c3895180938193612a96565b0390305af4906110d1612aa3565b60208201529015159052565b0161107d565b60209083516110f1816104cf565b5f815282606081830152828901015201611072565b3461039357604036600319011261039357602435600435611125613144565b61112d613256565b61086c8054680100000000000000008110156104eb5763ffffffff916001820190558361115982612650565b5084600182015555167fc86ba04c55bc5eb2f2876b91c438849a296dbec7b08751c3074d92e04f0a77af5f80a46001606555005b9181601f840112156103935782359167ffffffffffffffff8311610393576020838186019501011161039357565b346103935760c0366003190112610393576004356111d8816103d7565b602435906111e582610434565b6044356064356111f4816103d7565b67ffffffffffffffff916084358381116103935761121690369060040161118d565b93909460a435918211610393576112b963ffffffff7fb0a29aed3d389a1041194255878b423f7780be3ed2324d4693508c6ff189845e9661125e6112cb95369060040161118d565b939099611269613256565b6112908c8c8b8b61128761127e368a89610613565b938b3691610613565b9346908c61403c565b6001600160a01b0392836040519a8b9a8b521660208a0152608060408a01526080890191612ad2565b93868503606088015216981696612ad2565b0390a36001606555005b6040366003190112610393576004356112ed816103d7565b60243567ffffffffffffffff81116103935761130d903690600401610649565b6001600160a01b03807f00000000000000000000000000000000000000000000000000000000000000001690813014610393577f360894a13ba1a3210667c828492db98dca3e2076cc3735a920a3ca505d382bbc91818354160361039357611373613144565b7f4910fdfa16fed3260ed0e7147f7cc6da11a60208b5b9406d12a635614ffd91435460ff16156113a95750505061001890614948565b6020600491604051928380926352d1902d60e01b825288165afa5f91816113e2575b506113d4575f80fd5b0361039357610018916148f7565b6113fc91925060203d602011610da257610d938183610574565b905f6113cb565b34610393576040366003190112610393576001600160a01b03600435611428816103d7565b165f5261086d60205260405f206024355f52602052602060ff60405f2054166040519015158152f35b34610393575f3660031901126103935760206001600160a01b036108695416604051908152f35b34610393575f366003190112610393576001600160a01b037f00000000000000000000000000000000000000000000000000000000000000001630036103935760206040517f360894a13ba1a3210667c828492db98dca3e2076cc3735a920a3ca505d382bbc8152f35b610120366003190112610393576004356114fb816103d7565b60243590611508826103d7565b60443591611515836103d7565b60a4358060070b81036103935760c4359161152f83610434565b60e43567ffffffffffffffff81116103935761154f903690600401610649565b93611558613256565b60ff61086b5460e81c166106f6576106ef9560843592606435926132c5565b34610393575f36600319011261039357602060405163ffffffff7f0000000000000000000000000000000000000000000000000000000000000000168152f35b34610393575f36600319011261039357602060ff61086b5460e81c166040519015158152f35b6060906003190112610393576004356115f581610434565b90602435611602816103d7565b90604435610664816103d7565b346103935761161d366115dd565b5f54600881901c60ff16159392908490816116d8575b81156116b8575b50156103935761165e9284611655600160ff195f5416175f55565b6116a157612af2565b61166457005b61167261ff00195f54165f55565b604051600181527f7f26b83ff96e1f2b6a682f133852f6798a09c465da95921460cefb384740249890602090a1005b6116b361010061ff00195f5416175f55565b612af2565b303b159150816116ca575b505f61163a565b6001915060ff16145f6116c3565b600160ff8216109150611633565b34610393575f36600319011261039357602060405163ffffffff7f0000000000000000000000000000000000000000000000000000000000000000168152f35b34610393576020366003190112610393577fe88463c2f254e2b070013a2dc7ee1e099f9bc00534cbdf03af551dc26ae49219602060043561176681610a18565b61176e613144565b611776613256565b151561086b80547fffff00ffffffffffffffffffffffffffffffffffffffffffffffffffffffffff7dff00000000000000000000000000000000000000000000000000000000008460e81b169116179055604051908152a16001606555005b34610393575f36600319011261039357602063ffffffff610c5a5416604051908152f35b61016036600319011261039357600435611812816103d7565b6024359061181f826103d7565b60443561182b816103d7565b60643590611838826103d7565b60e435611844816103d7565b610104359061185282610434565b610124359261186084610434565b610144359667ffffffffffffffff88116103935761188561001898369060040161118d565b97909660c4359360a4359360843593612c3f565b90610180600319830112610393576004356118b3816103d7565b916024356118c0816103d7565b916044356118cd816103d7565b916064356118da816103d7565b916084359160a4359160c4359160e4356118f3816103d7565b916101043561190181610434565b916101243561190f81610434565b916101443561191d81610434565b91610164359067ffffffffffffffff821161039357610f779160040161118d565b61194736611899565b959996989a9290949361195b9c989c613256565b61086b9960ff8b5460e81c166106f6576119a96119a561199e8e6119918d6001600160a01b03165f5261086d60205260405f2090565b905f5260205260405f2090565b5460ff1690565b1590565b611c5b5763ffffffff9d8e6119c081851642612e6a565b907f00000000000000000000000000000000000000000000000000000000000000001610611c31578e808516428110918215611bfb575b5050611bd1578e9b6001600160a01b039c8d891690871690818117611b6b575b50508c7f0000000000000000000000000000000000000000000000000000000000000000168d8c1681811480611b62575b15611b485750823403611b1e57803b15610393575f60049160405192838092630d0e30db60e41b825234905af18015611b1957611b00575b505b5460c01c63ffffffff169e8f611a9790612e8f565b611abe9061086b9063ffffffff60c01b1963ffffffff60c01b83549260c01b169116179055565b6040519c8d9c169f169d611ad29a8c612ea4565b037fa123dc29aebf7d0c3322c8eeb5b999e859f39937950ed31056532713d0de396f91a46100186001606555565b80611b0d611b13926104f0565b80610389565b5f611a80565b612e84565b60046040517f6452a35d000000000000000000000000000000000000000000000000000000008152fd5b905034611b1e5782611b5d9130903390614142565b611a82565b50341515611a48565b15611ba7574211611b7d575f80611a17565b60046040517f25a63a5b000000000000000000000000000000000000000000000000000000008152fd5b60046040517f495d907f000000000000000000000000000000000000000000000000000000008152fd5b60046040517f582e3889000000000000000000000000000000000000000000000000000000008152fd5b611c299192507f00000000000000000000000000000000000000000000000000000000000000001642612e77565b108f806119f7565b60046040517ff722177f000000000000000000000000000000000000000000000000000000008152fd5b60046040517f2a58c4f3000000000000000000000000000000000000000000000000000000008152fd5b3461039357602036600319011261039357600435611ca1613144565b611ca9613256565b611cb281612650565b611cea576001815f80935501557f3569b846531b754c99cb80df3f49cd72fa6fe106aaee5ab8e0caf35a9d7ce88d5f80a26001606555005b634e487b7160e01b5f525f60045260245ffd5b34610393575f3660031901126103935760206040517342000000000000000000000000000000000000078152f35b34610393575f3660031901126103935760206040516001600160a01b037f0000000000000000000000000000000000000000000000000000000000000000168152f35b3461039357611d7c366115dd565b909160ff5f5460081c161561039357611db29061086b9063ffffffff60c01b1963ffffffff60c01b83549260c01b169116179055565b604051611dbe816104cf565b6009815260208101926820a1a927a9a996ab1960b91b8452640312e302e360dc1b6020604051611ded816104cf565b60058152015260ff5f5460081c16156103935761001893610a139251902061047f557f06c015bd22b4c69690933c1058878ebdfef31f9aaae40bbe86d8a09fe1b2972c61048055610ec261419f565b34610393576020366003190112610393576004803567ffffffffffffffff811161039357611e6d9036908301610b15565b611e75613256565b60ff61086b5460e01c1661202557610140810191611e9283612944565b9063ffffffff91824291161015611ffd5761012083019042611ebf611eb684612944565b63ffffffff1690565b10611fee57611ed1610ba03686612958565b90611ee5825f5261087260205260405f2090565b54611fc6575090611f2a611f247f923794976d026d6b119735adc163cb71decfc903e17c3dc226c00789593c04e194935f5261087260205260405f2090565b60019055565b611fb9611f396060860161294e565b95611f466080870161294e565b95611f66611f60611f5a6101008401612944565b95612944565b92612944565b611f726040830161294e565b611f7b8361294e565b90611f886020850161294e565b92611f97610160860186612a38565b9690956040519a8b9a169d60e08201359d60a060c0840135930135918c612f2f565b0390a36100186001606555565b6040517f012f9e44000000000000000000000000000000000000000000000000000000008152fd5b60405163d642b7d960e01b8152fd5b6040517f09deb9ec000000000000000000000000000000000000000000000000000000008152fd5b50604051633d90fc5560e11b8152fd5b34610393576020366003190112610393577f2d5b62420992e5a4afce0e77742636ca2608ef58289fd2e1baa5161ef6e7e41e602060043561207581610a18565b61207d613144565b612085613256565b151561086b80547fffffff00ffffffffffffffffffffffffffffffffffffffffffffffffffffffff7cff000000000000000000000000000000000000000000000000000000008460e01b169116179055604051908152a16001606555005b34610393575f366003190112610393576020604051468152f35b34610393575f36600319011261039357602063ffffffff61086b5460c01c16604051908152f35b6020808201906020835283518092526040830192602060408460051b8301019501935f915b8483106121595750505050505090565b9091929394958480612177600193603f198682030187528a51610f9c565b9801930193019194939290612149565b346103935761219536610f4c565b9061219f82612f97565b915f5b8181106121b757604051806110928682612124565b5f806121c4838587612a7f565b906121d460405180938193612a96565b0390305af46121e1612aa3565b901561220757906001916121f58287612a6b565b526122008186612a6b565b50016121a2565b604481511061039357806004610393920151602480918301019101612fe0565b61223036611899565b959996919b97989a9290949361224d63ffffffff9d8e4216612c22565b92612256613256565b61086b9a60ff8c5460e81c166106f65761228c6119a561199e8f6119918e6001600160a01b03165f5261086d60205260405f2090565b611c5b578e6119c081851642612e6a565b346103935760203660031901126103935760206004356122bc816103d7565b6001600160a01b038091165f52610c5c825260405f205416604051908152f35b34610393576003196060368201126103935760043567ffffffffffffffff80821161039357606082360393840112610393576024359061231b82610434565b60443590811161039357612333903690600401610f1b565b91909361233e613256565b600484013590610182190181121561039357610c14946123f39361236b6123ec9360043691890101612958565b9561238861238360808901516001600160a01b031690565b613506565b6123da61239488613918565b9160446123ab60208b01516001600160a01b031690565b916101608b0151946123bb610596565b9b8c5260208c0152013560408a01526001600160a01b03166060890152565b60808701525f60a087015236916108a2565b9083614234565b613d76565b604090600319011261039357600435612410816103d7565b90602435610664816103d7565b346103935761242b366123f8565b90612434613144565b61243c613256565b6001600160a01b0380911691825f52610c5d6020526124748160405f20906001600160a01b03166001600160a01b0319825416179055565b16907fcb84c2022106a6f2b6f805d446f32fbfd2a528474364fa755f37dac1c0c1b6c85f80a36001606555005b34610393576020366003190112610393576004355f52610872602052602060405f2054604051908152f35b346103935760c03660031901126103935767ffffffffffffffff600435818111610393576124fe903690600401610b15565b6064359061250b826103d7565b6084358381116103935761252390369060040161118d565b9060a4359485116103935761253f61001895369060040161118d565b949093604435906024359061303f565b34610393575f36600319011261039357602060405163ffffffff8152f35b34610393575f36600319011261039357602060ff61086b5460e01c166040519015158152f35b34610393575f3660031901126103935760206040516ec097ce7bc90715b34b9f10000000008152f35b34610393576020366003190112610393576106ef6004356125dc816103d7565b6125e4613144565b610eca613256565b34610393575f3660031901126103935760206001600160a01b0361086a5416604051908152f35b34610393575f366003190112610393576020610c5a546001600160a01b0360405191831c168152f35b634e487b7160e01b5f52603260045260245ffd5b61086c90815481101561268a576003915f52027f71cd7344f4eb2efc8e30291f6dbdb44d618ca368ea5425d217c1d604bf26b84d01905f90565b61263c565b346103935760203660031901126103935760043561086c54811015610393576126b9604091612650565b506001815491015482519182526020820152f35b34610393576126db366123f8565b906126e4613144565b6126ec613256565b6001600160a01b0380911691825f52610c5c6020526127248160405f20906001600160a01b03166001600160a01b0319825416179055565b16907ff3dc137d2246f9b8abd0bb821e185ba01122c9b3ea3745ffca6208037674d6705f80a36001606555005b9161275a613256565b608082019161277361238384516001600160a01b031690565b602081019182514603612874576119a561279b9183600161279389612650565b5001546135b5565b612863578060607ff8bd640004bcec1b89657020f561d0b070cbdf662d0b158db9dccb0a8301bfab9201936127dd6127d7865163ffffffff1690565b87613675565b61285684519461283b61282d85519561281d60408201998a516128048d5163ffffffff1690565b89516001600160a01b03169160a086019b8c51946136e2565b5192519751985163ffffffff1690565b93516001600160a01b031690565b935163ffffffff9485604051968796169a169833938661289e565b0390a46103f36001606555565b600460405163582f497d60e11b8152fd5b60046040517f7a47c9a2000000000000000000000000000000000000000000000000000000008152fd5b95949392919060a0870190875260209060a08289015282518091528160c089019301905f5b818110612930575050506001600160a01b03809316604088015286820360608801528080855193848152019401925f905b8382106129175750505050509060806103f3929401906001600160a01b03169052565b84518116865294820194938201936001909101906128f4565b8251855293830193918301916001016128c3565b3561066481610434565b35610664816103d7565b9190610180838203126103935761296d6105b6565b92612977816103e8565b8452612985602082016103e8565b6020850152612996604082016103e8565b60408501526129a7606082016103e8565b60608501526129b8608082016103e8565b608085015260a081013560a085015260c081013560c085015260e081013560e08501526101006129e9818301610442565b908501526101206129fb818301610442565b90850152610140612a0d818301610442565b90850152610160918282013567ffffffffffffffff811161039357612a329201610649565b90830152565b903590601e1981360301821215610393570180359067ffffffffffffffff82116103935760200191813603831361039357565b805182101561268a5760209160051b010190565b9082101561268a57610f779160051b810190612a38565b908092918237015f815290565b3d15612acd573d90612ab4826105f7565b91612ac26040519384610574565b82523d5f602084013e565b606090565b908060209392818452848401375f828201840152601f01601f1916010190565b91909160ff5f5460081c161561039357612b3c90610c5a624c4b4063ffffffff1982541617905561086b9063ffffffff60c01b1963ffffffff60c01b83549260c01b169116179055565b604051612b48816104cf565b6009815260208101926820a1a927a9a996ab1960b91b8452640312e302e360dc1b6020604051612b77816104cf565b60058152015260ff5f5460081c161561039357612bc693610a139251902061047f557f06c015bd22b4c69690933c1058878ebdfef31f9aaae40bbe86d8a09fe1b2972c61048055610ec261419f565b6103f3610c5a77deaddeaddeaddeaddeaddeaddeaddeaddead0000000000007fffffffffffffffff0000000000000000000000000000000000000000ffffffff825416179055565b634e487b7160e01b5f52601160045260245ffd5b91909163ffffffff80809416911601918211612c3a57565b612c0e565b96929993979a94989091959863ffffffff9b612c5e8d42169182612c22565b91612c67613256565b61086b9a60ff8c5460e81c166106f657612c9d6119a561199e8f6119918e6001600160a01b03165f5261086d60205260405f2090565b611c5b578e612cac8442612e6a565b907f00000000000000000000000000000000000000000000000000000000000000001610611c31578e808516428110918215612e34575b5050611bd1578e9b6001600160a01b039c8d891690871690818117612e22575b50508c7f0000000000000000000000000000000000000000000000000000000000000000168d8c1681811480612e19575b15612dff5750823403611b1e57803b15610393575f60049160405192838092630d0e30db60e41b825234905af18015611b1957612dec575b505b5460c01c63ffffffff169e8f612d8390612e8f565b612daa9061086b9063ffffffff60c01b1963ffffffff60c01b83549260c01b169116179055565b6040519c8d9c169f169d612dbe9a8c612ea4565b037fa123dc29aebf7d0c3322c8eeb5b999e859f39937950ed31056532713d0de396f91a46103f36001606555565b80611b0d612df9926104f0565b5f612d6c565b905034611b1e5782612e149130903390614142565b612d6e565b50341515612d34565b15611ba7574211611b7d575f80612d03565b612e629192507f00000000000000000000000000000000000000000000000000000000000000001642612e77565b108f80612ce3565b91908203918211612c3a57565b91908201809211612c3a57565b6040513d5f823e3d90fd5b63ffffffff809116908114612c3a5760010190565b6001600160a01b03918216815291811660208301526040820192909252606081019290925263ffffffff928316608083015292821660a0820152921660c083015291821660e08201529116610100820152610140610120820181905261066493910191612ad2565b634e487b7160e01b5f52602160045260245ffd5b60031115612f2a57565b612f0c565b96909193979295946106649b9995610140996001600160a01b0398898098818098168d521660208c015260408b015260608a015263ffffffff80921660808a01521660a08801521660c08601521660e084015216610100820152816101208201520191612ad2565b90612fa1826107c0565b612fae6040519182610574565b8281528092612fbf601f19916107c0565b01905f5b828110612fcf57505050565b806060602080938501015201612fc3565b6020818303126103935780519067ffffffffffffffff8211610393570181601f82011215610393578051613013816105f7565b926130216040519485610574565b81845260208284010111610393576106649160208085019101610f7b565b949096939561304c613256565b60ff61086b5460e01c16610c66576130676101408701612944565b63ffffffff429116101580613126575b610c1e576130853687612958565b61308e90613918565b97613097610596565b986130a23689612958565b8a5260208a0152604089018490526001600160a01b03851660608a01526130ca36848a610613565b60808a015260a08901526130dd8661294e565b966130eb6101008801612944565b9236906130f792610613565b94369061310392610613565b9460e00135906131129661403c565b3361311c91613a6b565b6103f36001606555565b506131336040870161294e565b6001600160a01b0316331415613077565b73420000000000000000000000000000000000000780330361322c576020600491604051928380927f6e296e450000000000000000000000000000000000000000000000000000000082525afa908115611b19575f916131fd575b506001600160a01b036131ca6131be610869546001600160a01b031690565b6001600160a01b031690565b9116036131d357565b60046040517f36a816d9000000000000000000000000000000000000000000000000000000008152fd5b61321f915060203d602011613225575b6132178183610574565b8101906142c4565b5f61319f565b503d61320d565b60046040517f4a74df92000000000000000000000000000000000000000000000000000000008152fd5b600260655414610393576002606555565b92936106649695919294610140956001600160a01b0380951686525f60208701526040860152606085015263ffffffff809116608085015260a08401525f60c08401521660e08201525f610100820152816101208201520190610f9c565b91959693949290926132f36119a561199e886119918b6001600160a01b03165f5261086d60205260405f2090565b611c5b5760070b936706f05b59d3b2000061330d866142d9565b10156134dc576ec097ce7bc90715b34b9f100000000082116134b25763ffffffff9361333b858a1642612e6a565b857f00000000000000000000000000000000000000000000000000000000000000001610611c315761086b5460c01c63ffffffff16986133a061337d8b612e8f565b61086b9063ffffffff60c01b1963ffffffff60c01b83549260c01b169116179055565b6001600160a01b0395867f00000000000000000000000000000000000000000000000000000000000000001694878b16868114806134a9575b1561346c5750803403611b1e57853b15610393575f60049660405197888092630d0e30db60e41b825234905af18015611b19577fa123dc29aebf7d0c3322c8eeb5b999e859f39937950ed31056532713d0de396f996134549761344392613459575b505b826142e8565b91604051988998169c169a87613267565b0390a4565b80611b0d613466926104f0565b5f61343b565b61345496507fa123dc29aebf7d0c3322c8eeb5b999e859f39937950ed31056532713d0de396f996134a4836134439330903390614142565b61343d565b503415156133d9565b60046040517fc45b6b52000000000000000000000000000000000000000000000000000000008152fd5b60046040517fa13c425c000000000000000000000000000000000000000000000000000000008152fd5b6001600160a01b037f000000000000000000000000000000000000000000000000000000000000000081169116811461353d575b50565b476135455750565b4790803b15610393575f90600460405180948193630d0e30db60e41b83525af18015611b19571561353a576103f3906104f0565b9081518082526020808093019301915f5b828110613598575050505090565b83516001600160a01b03168552938101939281019260010161358a565b6040805160208082018181528551838501528186015160608401529285015160c0608084015280516101008401819052610120840198979692918201915f5b82811061366157505050508161364a610664979860a08461362460606136589701518387019063ffffffff169052565b60808101516001600160a01b031660c08601520151838203603f190160e0850152613579565b03601f198101835282610574565b5190209161431e565b83518b5299810199928101926001016135f4565b613680600291612650565b500162ffffff8260081c16805f5281602052600160ff60405f205494161b80809416146136b8575f5260205260405f20908154179055565b60046040517f954476d9000000000000000000000000000000000000000000000000000000008152fd5b92949391909380518251036137b0578151915f5b83811061376257505050508261370d575b50505050565b6001600160a01b03816137417f828fc203220356df8f072a91681caee7d5c75095e2a95e80ed5a14b384697f7193866143cb565b6040805195865233602087015291169463ffffffff1693a45f808080613707565b8061376f60019284612a6b565b518061377d575b50016136f6565b6137aa9061379b61378e8488612a6b565b516001600160a01b031690565b6001600160a01b03891661436f565b5f613776565b60046040517fcd298b38000000000000000000000000000000000000000000000000000000008152fd5b6001600160a01b031680156138225761086a816001600160a01b03198254161790557f1f17a88f67b0f49060a34bec1a4723a563620e6aa265eb640b5046dcee0759a05f80a2565b60046040517f2d234e48000000000000000000000000000000000000000000000000000000008152fd5b80516001600160a01b0316825261066491610180906020838101516001600160a01b0316908201526040838101516001600160a01b0316908201526060838101516001600160a01b0316908201526080838101516001600160a01b03169082015260a083015160a082015260c083015160c082015260e083015160e08201526138e3610100808501519083019063ffffffff169052565b6101208381015163ffffffff16908201526101408381015163ffffffff16908201528161016080940151938201520190610f9c565b60405161394981613935602082019460408652606083019061384c565b46604083015203601f198101835282610574565b51902090565b61395882612f20565b52565b906001600160a01b0382511681526060806139856020850151608060208601526080850190610f9c565b936040810151604085015201519161399c83612f20565b015290565b9a97909695613a1f966106649d9b9660808e613a0e98613a2e9e986101809d6001600160a01b03998a80921685521660208401526040830152606082015201528c60a063ffffffff8094169101521660c08c01521660e08a01526101008901906001600160a01b03169052565b6001600160a01b0316610120870152565b80610140860152840190610f9c565b9161016081840391015261395b565b9061066494936080936001600160a01b03809316845260208401521660408201528160608201520190610f9c565b805191610120830190613a82825163ffffffff1690565b63ffffffff42911610613d655760208301516001613aa9825f5261087260205260405f2090565b5403613d5e576001905b6002613ac8825f5261087260205260405f2090565b5414613d3457613ae1905f5261087260205260405f2090565b6002905560608501516001600160a01b031660808601516001600160a01b03169260a0870151918660c0890151948960a08301519660e082015197610100830151613b2f9063ffffffff1690565b9a5163ffffffff1661014084015163ffffffff16906040850151613b59906001600160a01b031690565b928551613b6c906001600160a01b031690565b946020870151613b82906001600160a01b031690565b9661016001519760608a0151613b9e906001600160a01b031690565b996080810151906040015190613bb26105d7565b6001600160a01b03909c168c5260208c015260408b0152613bd69060608b0161394f565b6040519b6001600160a01b038d9c169f63ffffffff169e613bf79b8d6139a1565b037f571749edf1d5c9599318cdbc4e28a6475d65e87fd3b2ddbe1e9a8d5e7a0f0ff791a460608101516001600160a01b031691829033821480613d2c575b61370757608001516001600160a01b03169260806040840151936001600160a01b03861685856001600160a01b037f00000000000000000000000000000000000000000000000000000000000000001683145f14613d1c5750613c9b9130903390614142565b613ca5858461476e565b0151913b151580613d12575b613cbb5750505050565b803b1561039357613ce8935f809460405196879586948593633a5be8cb60e01b8552339160048601613a3d565b03925af18015611b1957613cff575b808080613707565b80611b0d613d0c926104f0565b5f613cf7565b5081511515613cb1565b613d27923390614142565b613ca5565b506001613c35565b60046040517f8f260c60000000000000000000000000000000000000000000000000000000008152fd5b5f90613ab3565b600460405163d642b7d960e01b8152fd5b905f82516101208101613d8d815163ffffffff1690565b63ffffffff42911610613d655760208501516002613db4825f5261087260205260405f2090565b5414613d3457613dcd905f5261087260205260405f2090565b6002905560608201516001600160a01b031660808301516001600160a01b03169060a08401519260c0850151918860a0810151938760e081015195610100820151613e1b9063ffffffff1690565b955163ffffffff1661014083015163ffffffff1660408401516001600160a01b0316918451613e50906001600160a01b031690565b936020860151613e66906001600160a01b031690565b956101600151966060890151613e82906001600160a01b031690565b986080810151906040015190613e966105d7565b6001600160a01b03909b168b5260208b015260408a0152600260608a01526040519d63ffffffff8f9c169d613ecb9b8d6139a1565b037f571749edf1d5c9599318cdbc4e28a6475d65e87fd3b2ddbe1e9a8d5e7a0f0ff7905f94a460608401516001600160a01b0316906001600160a01b03948583169182331480614026575b61401d57608001516001600160a01b03169060408101519687818416917f00000000000000000000000000000000000000000000000000000000000000001682145f1461400657906080929187613ff2575b613f7391508561476e565b0151923b151580613fe8575b613f8c575b505050509050565b813b15613fe45783613fb8959660405196879586948593633a5be8cb60e01b8552339160048601613a3d565b03925af18015611b1957613fd1575b8080808493613f84565b80611b0d613fde926104f0565b5f613fc7565b8380fd5b5082511515613f7f565b613fff9130903390614142565b5f88613f68565b60809291965061401890865f9861436f565b613f73565b50505050509050565b505f613f16565b90816020910312610393575190565b93926042936001600160a01b036103f3989760208151910120916040519363ffffffff60208601967f152eb71524aef34d838ab76573c14b1ebfa5e385d9ab29d7cf5398daa2438bd9885216604086015286606086015260808501521660a083015260c082015260c081526140b08161053c565b5190209061047f549061048054906040519160208301937fc2f8787176b8ac6bf7215b4adcc1e069bf4ab82d9ab1df05a57a91d425935b6e85526040840152606083015260808201526080815261410681610558565b51902090604051917f1901000000000000000000000000000000000000000000000000000000000000835260028301526022820152209061498b565b90926103f393604051937f23b872dd0000000000000000000000000000000000000000000000000000000060208601526001600160a01b03809216602486015216604484015260648301526064825261419a82610558565b614a9a565b60ff5f5460081c161561039357565b60ff5f5460081c1615610393576001606555565b6001600160a01b0316801561420a57610869816001600160a01b03198254161790557fa9e8c42c9e7fca7f62755189a16b2f5314d43d8fb24e91ba54e6d65f9314e8495f80a2565b60046040517fba97b39d000000000000000000000000000000000000000000000000000000008152fd5b916119a5906142ad9284516040809601519186519161425283610504565b825261365861426d6020840192468452898501958652612650565b50549388519283916142926020840196602088525160608d86015260a085019061384c565b9151606084015251608083015203601f198101835282610574565b6142b45750565b6004905163582f497d60e11b8152fd5b908160209103126103935751610664816103d7565b5f81126142e35790565b5f0390565b90670de0b6b3a7640000915f828403921283831281169084841390151617612c3a57818102918183041490151715612c3a570490565b929091905f915b8451831015614367576143388386612a6b565b519081811015614356575f52602052600160405f205b920191614325565b905f52602052600160405f2061434e565b915092501490565b6040517fa9059cbb0000000000000000000000000000000000000000000000000000000060208201526001600160a01b03909216602483015260448201929092526103f39161419a82606481015b03601f198101845283610574565b906001600160a01b0390818116907f0000000000000000000000000000000000000000000000000000000000000000831682036144fc5750803b15610393575f6040518092632e1a7d4d60e01b825281838161442f89600483019190602083019252565b03925af18015611b19576144e9575b50610c5a549161445761086a546001600160a01b031690565b73420000000000000000000000000000000000001090813b1561039357604051631474f2a960e31b8152602086901c949094166001600160a01b0390811660048601521660248401526044830182905263ffffffff909316606483015260a060848301525f60a483018190529192839160c4918391905af18015611b19576144dc5750565b80611b0d6103f3926104f0565b80611b0d6144f6926104f0565b5f61443e565b91807f000000000000000000000000000000000000000000000000000000000000000016151580614743575b1561454c575050506103f39061454761086a546001600160a01b031690565b614c20565b8061457961456c856001600160a01b03165f52610c5c60205260405f2090565b546001600160a01b031690565b1661471f577342000000000000000000000000000000000000105b16906145b86131be61456c856001600160a01b03165f52610c5d60205260405f2090565b156146995783826145c892614b2a565b6145e761456c836001600160a01b03165f52610c5d60205260405f2090565b906145fb61086a546001600160a01b031690565b9161460c610c5a5463ffffffff1690565b823b15610393576040517f4823f1140000000000000000000000000000000000000000000000000000000081526001600160a01b0395861660048201529185166024830152929093166044840152606483019390935263ffffffff16608482015260c060a48201525f60c482018190529091829081838160e481015b03925af18015611b19576144dc5750565b50916146ae61086a546001600160a01b031690565b926146bf610c5a5463ffffffff1690565b93813b15610393575f809461468860405197889687958694631474f2a960e31b8652600486019260c0949163ffffffff936001600160a01b038092168652166020850152604084015216606082015260a060808201525f60a08201520190565b61473e61456c846001600160a01b03165f52610c5c60205260405f2090565b614594565b50807f0000000000000000000000000000000000000000000000000000000000000000168214614528565b6001600160a01b0390811690813b156147ae57906103f392917f00000000000000000000000000000000000000000000000000000000000000001661436f565b7f000000000000000000000000000000000000000000000000000000000000000016803b15610393575f8091602460405180948193632e1a7d4d60e01b83528860048401525af18015611b1957614820575b50814710610393575f80809381935af1614818612aa3565b501561039357565b614829906104f0565b5f614800565b61483881614948565b6001600160a01b0381167fbc7cd75a20ee27fd9adebab32041f755214dbc6bffa90cc0225b39da2e5c2d3b5f80a28151158015906148f0575b614879575050565b5f8061353a937f206661696c656400000000000000000000000000000000000000000000000000604080516148ad81610504565b602781527f416464726573733a206c6f772d6c6576656c2064656c65676174652063616c6c60208201520152602081519101845af46148ea612aa3565b91614e8f565b505f614871565b61490081614948565b6001600160a01b0381167fbc7cd75a20ee27fd9adebab32041f755214dbc6bffa90cc0225b39da2e5c2d3b5f80a281511580159061494057614879575050565b506001614871565b803b15610393576001600160a01b037f360894a13ba1a3210667c828492db98dca3e2076cc3735a920a3ca505d382bbc91166001600160a01b0319825416179055565b6149958383614e5e565b6005819592951015612f2a57159384614a84575b5083156149e5575b505050156149bb57565b60046040517f938a1821000000000000000000000000000000000000000000000000000000008152fd5b5f929350908291604051614a368161364a60208201947f1626ba7e00000000000000000000000000000000000000000000000000000000998a87526024840152604060448401526064830190610f9c565b51915afa90614a43612aa3565b82614a76575b82614a59575b50505f80806149b1565b614a6e9192506020808251830101910161402d565b145f80614a4f565b915060208251101591614a49565b6001600160a01b0383811691161493505f6149a9565b905f806001600160a01b03614af19416927f5361666545524332303a206c6f772d6c6576656c2063616c6c206661696c65646020604051614ada816104cf565b818152015260208151910182855af16148ea612aa3565b8051908115918215614b07575b50501561039357565b81925090602091810103126103935760200151614b2381610a18565b5f80614afe565b6044919260206001600160a01b03604051948580927fdd62ed3e000000000000000000000000000000000000000000000000000000008252306004830152808916602483015286165afa928315611b19575f93614bdf575b508201809211612c3a576040517f095ea7b30000000000000000000000000000000000000000000000000000000060208201526001600160a01b03909316602484015260448301919091526103f3919061419a82606481016143bd565b614bf991935060203d602011610da257610d938183610574565b915f614b82565b90816020910312610393575167ffffffffffffffff811681036103935790565b7f0000000000000000000000000000000000000000000000000000000000000000906001600160a01b0392837f00000000000000000000000000000000000000000000000000000000000000001691614c7a828486614b2a565b604092604051937fcb75c11c0000000000000000000000000000000000000000000000000000000085526020936004908587600481875afa978815611b195789975f99614e37575b506040517fa56ec6320000000000000000000000000000000000000000000000000000000081526001600160a01b03918916918216600482015299909887918b9190829081602481015b0392165afa988915611b19575f99614e18575b509390951696947f000000000000000000000000000000000000000000000000000000000000000093805b614d5957505050505050505050565b614dc39087811115614e125787905b84517f6fd3504e00000000000000000000000000000000000000000000000000000000815284810183815263ffffffff89166020820152604081018d90526001600160a01b038c166060820152909389918591829160800190565b03815f8a5af1928315611b1957614ddf93614de5575b50612e6a565b80614d4a565b614e0490893d8b11614e0b575b614dfc8183610574565b810190614c00565b505f614dd9565b503d614df2565b80614d68565b614e30919950863d8811610da257610d938183610574565b975f614d1f565b8791995088614e55614d0c92843d8611613225576132178183610574565b9a925050614cc2565b9060418151145f14614e8657610f7791602082015190606060408401519301515f1a90614eb8565b50505f90600290565b9015614ea957815115614ea0575090565b3b156103935790565b50805190811561039357602001fd5b7f7fffffffffffffffffffffffffffffff5d576e7357a4501ddfe92f46681b20a08411614f28576020935f9360ff60809460405194855216868401526040830152606082015282805260015afa15611b19575f516001600160a01b03811615614f2057905f90565b505f90600190565b505050505f9060039056fea26469706673582212208aa2cc0d2203c3db53ced5a5c4128873e277724ca836e282fc1b3540d375b1fb64736f6c63430008170033"
}