{
  "address": "0xB4A8d45647445EA9FC3E1058096142390683dBC2",
  "abi": [
    {
      "inputs": [
        {
          "internalType": "contract SpokePoolInterface",
          "name": "spokePool",
          "type": "address"
        },
        {
          "internalType": "address",
          "name": "recipient",
          "type": "address"
        },
        {
          "internalType": "address",
          "name": "originToken",
          "type": "address"
        },
        {
          "internalType": "uint256",
          "name": "amount",
          "type": "uint256"
        },
        {
          "internalType": "uint256",
          "name": "destinationChainId",
          "type": "uint256"
        },
        {
          "internalType": "int64",
          "name": "relayerFeePct",
          "type": "int64"
        },
        {
          "internalType": "uint32",
          "name": "quoteTimestamp",
          "type": "uint32"
        },
        {
          "internalType": "bytes",
          "name": "message",
          "type": "bytes"
        },
        {
          "internalType": "uint256",
          "name": "maxCount",
          "type": "uint256"
        }
      ],
      "name": "deposit",
      "outputs": [],
      "stateMutability": "payable",
      "type": "function"
    }
  ],
  "transactionHash": "0x9e4d8823da246fdaa7b293d6156ba71b5536b8a4b696d8ebcdc2b82f00408fb9",
  "args": [],
  "numDeployments": 4,
  "solcInputHash": "53ab13385da43753d9a657e7780a0560",
  "bytecode": "0x608080604052346100165761034b908161001c8239f35b600080fdfe600436101561000d57600080fd5b6000803560e01c63e0db3fcf1461002357600080fd5b610120807ffffffffffffffffffffffffffffffffffffffffffffffffffffffffffffffffc3601126103115773ffffffffffffffffffffffffffffffffffffffff600435818116810361030d576024359282841684036103095760443583811681036103055760a4358060070b81036103015760c4359063ffffffff8216820361029b5760e43567ffffffffffffffff81116102fd57366023820112156102fd57806004013567ffffffffffffffff81116102d0577fffffffffffffffffffffffffffffffffffffffffffffffffffffffffffffffe0603f81601f84011601166080016080811067ffffffffffffffff8211176102a357908a929160405280608052366024828401011161029f57602091819060240160a0376080010152606435340361029b578585163b1561029b578585163b1561029b57859694929163ffffffff91878a9896946040519a8b997f541f4f14000000000000000000000000000000000000000000000000000000008b523360048c01521660248a01521660448801526064356064880152608435608488015260070b60a48701521660c485015260e484015260805180610124850152845b8181106102805750908391827fffffffffffffffffffffffffffffffffffffffffffffffffffffffffffffffe0601f6101449389858286010152610104803590850152011681010301923491165af1801561027557610233575080f35b67ffffffffffffffff81116102485760405280f35b6024827f4e487b710000000000000000000000000000000000000000000000000000000081526041600452fd5b6040513d84823e3d90fd5b60a081015187820161014401528795508694506020016101d6565b8780fd5b8280fd5b60248b7f4e487b710000000000000000000000000000000000000000000000000000000081526041600452fd5b60248a7f4e487b710000000000000000000000000000000000000000000000000000000081526041600452fd5b8880fd5b8680fd5b8580fd5b8480fd5b8380fd5b5080fdfea26469706673582212204f81f550f00970671d0755020f959a6599fd76306000e67b424172e1089b949a64736f6c63430008130033",
  "devdoc": {
    "details": "This contract must be deployed via Create2 to the same address on all chains. That way, an errant transaction sent to the wrong chain will be blocked by this contract rather than hitting a dead address. This means that this contract will not work to protect chains, like zkSync, where Create2 address derivations don't match other chains. Source: https://era.zksync.io/docs/reference/architecture/differences-with-ethereum.html#create-create2",
    "kind": "dev",
    "methods": {
      "deposit(address,address,address,uint256,uint256,int64,uint32,bytes,uint256)": {
        "details": "Protects the caller from losing their ETH (or other native token) by reverting if the SpokePool address they intended to call does not exist on this chain. Because this contract can be deployed at the same address everywhere callers should be protected even if the transaction is submitted to an unintended network. This contract should only be used for native token deposits, as this problem only exists for native tokens.",
        "params": {
          "amount": "Amount of tokens to deposit. Will be amount of tokens to receive less fees.",
          "destinationChainId": "Denotes network where user will receive funds from SpokePool by a relayer.",
          "maxCount": "used to protect the depositor from frontrunning to guarantee their quote remains valid. Note: this is intended to be used to pass along instructions for how a contract should use or allocate the tokens.",
          "message": "Arbitrary data that can be used to pass additional information to the recipient along with the tokens. Note: this is intended to be used to pass along instructions for how a contract should use or allocate the tokens.",
          "originToken": "Token to lock into this contract to initiate deposit.",
          "quoteTimestamp": "Timestamp used by relayers to compute this deposit's realizedLPFeePct which is paid to LP pool on HubPool.",
          "recipient": "Address to receive funds at on destination chain.",
          "relayerFeePct": "% of deposit amount taken out to incentivize a fast relayer.",
          "spokePool": "Address of the SpokePool contract that the user is intending to call."
        }
      }
    },
    "version": 1
  },
  "userdoc": {
    "kind": "user",
    "methods": {
      "deposit(address,address,address,uint256,uint256,int64,uint32,bytes,uint256)": {
        "notice": "Passthrough function to `depositV3()` on the SpokePool contract."
      }
    },
    "notice": "SpokePoolVerifier is a contract that verifies that the SpokePool exists on this chain before sending ETH to it.",
    "version": 1
  },
  "storageLayout": {
    "storage": [],
    "types": null
  }
}