{
  "address": "0x40ad479382Ad2a5c3061487A5094a677B00f6Cb0",
  "abi": [
    {
      "inputs": [
        {
          "internalType": "address",
          "name": "_wrappedNativeTokenAddress",
          "type": "address"
        },
        {
          "internalType": "uint32",
          "name": "_depositQuoteTimeBuffer",
          "type": "uint32"
        },
        {
          "internalType": "uint32",
          "name": "_fillDeadlineBuffer",
          "type": "uint32"
        },
        {
          "internalType": "contract IERC20",
          "name": "_l2Usdc",
          "type": "address"
        },
        {
          "internalType": "contract ITokenMessenger",
          "name": "_cctpTokenMessenger",
          "type": "address"
        }
      ],
      "stateMutability": "nonpayable",
      "type": "constructor"
    },
    {
      "inputs": [],
      "name": "ClaimedMerkleLeaf",
      "type": "error"
    },
    {
      "inputs": [],
      "name": "DepositsArePaused",
      "type": "error"
    },
    {
      "inputs": [],
      "name": "DisabledRoute",
      "type": "error"
    },
    {
      "inputs": [],
      "name": "ExpiredFillDeadline",
      "type": "error"
    },
    {
      "inputs": [],
      "name": "FillsArePaused",
      "type": "error"
    },
    {
      "inputs": [],
      "name": "InsufficientSpokePoolBalanceToExecuteLeaf",
      "type": "error"
    },
    {
      "inputs": [],
      "name": "InvalidBytes32",
      "type": "error"
    },
    {
      "inputs": [],
      "name": "InvalidChainId",
      "type": "error"
    },
    {
      "inputs": [],
      "name": "InvalidCrossDomainAdmin",
      "type": "error"
    },
    {
      "inputs": [],
      "name": "InvalidDepositorSignature",
      "type": "error"
    },
    {
      "inputs": [],
      "name": "InvalidExclusiveRelayer",
      "type": "error"
    },
    {
      "inputs": [],
      "name": "InvalidFillDeadline",
      "type": "error"
    },
    {
      "inputs": [],
      "name": "InvalidMerkleLeaf",
      "type": "error"
    },
    {
      "inputs": [],
      "name": "InvalidMerkleProof",
      "type": "error"
    },
    {
      "inputs": [],
      "name": "InvalidPayoutAdjustmentPct",
      "type": "error"
    },
    {
      "inputs": [],
      "name": "InvalidQuoteTimestamp",
      "type": "error"
    },
    {
      "inputs": [],
      "name": "InvalidRelayerFeePct",
      "type": "error"
    },
    {
      "inputs": [],
      "name": "InvalidSlowFillRequest",
      "type": "error"
    },
    {
      "inputs": [],
      "name": "InvalidWithdrawalRecipient",
      "type": "error"
    },
    {
      "inputs": [
        {
          "internalType": "bytes",
          "name": "data",
          "type": "bytes"
        }
      ],
      "name": "LowLevelCallFailed",
      "type": "error"
    },
    {
      "inputs": [],
      "name": "MaxTransferSizeExceeded",
      "type": "error"
    },
    {
      "inputs": [],
      "name": "MsgValueDoesNotMatchInputAmount",
      "type": "error"
    },
    {
      "inputs": [],
      "name": "NoRelayerRefundToClaim",
      "type": "error"
    },
    {
      "inputs": [],
      "name": "NoSlowFillsInExclusivityWindow",
      "type": "error"
    },
    {
      "inputs": [],
      "name": "NotCrossChainCall",
      "type": "error"
    },
    {
      "inputs": [],
      "name": "NotCrossDomainAdmin",
      "type": "error"
    },
    {
      "inputs": [],
      "name": "NotEOA",
      "type": "error"
    },
    {
      "inputs": [],
      "name": "NotExclusiveRelayer",
      "type": "error"
    },
    {
      "inputs": [],
      "name": "RelayFilled",
      "type": "error"
    },
    {
      "inputs": [],
      "name": "WrongERC7683OrderId",
      "type": "error"
    },
    {
      "anonymous": false,
      "inputs": [
        {
          "indexed": false,
          "internalType": "address",
          "name": "previousAdmin",
          "type": "address"
        },
        {
          "indexed": false,
          "internalType": "address",
          "name": "newAdmin",
          "type": "address"
        }
      ],
      "name": "AdminChanged",
      "type": "event"
    },
    {
      "anonymous": false,
      "inputs": [
        {
          "indexed": true,
          "internalType": "address",
          "name": "beacon",
          "type": "address"
        }
      ],
      "name": "BeaconUpgraded",
      "type": "event"
    },
    {
      "anonymous": false,
      "inputs": [
        {
          "indexed": true,
          "internalType": "bytes32",
          "name": "l2TokenAddress",
          "type": "bytes32"
        },
        {
          "indexed": true,
          "internalType": "bytes32",
          "name": "refundAddress",
          "type": "bytes32"
        },
        {
          "indexed": false,
          "internalType": "uint256",
          "name": "amount",
          "type": "uint256"
        },
        {
          "indexed": true,
          "internalType": "address",
          "name": "caller",
          "type": "address"
        }
      ],
      "name": "ClaimedRelayerRefund",
      "type": "event"
    },
    {
      "anonymous": false,
      "inputs": [
        {
          "indexed": true,
          "internalType": "uint256",
          "name": "rootBundleId",
          "type": "uint256"
        }
      ],
      "name": "EmergencyDeletedRootBundle",
      "type": "event"
    },
    {
      "anonymous": false,
      "inputs": [
        {
          "indexed": true,
          "internalType": "address",
          "name": "originToken",
          "type": "address"
        },
        {
          "indexed": true,
          "internalType": "uint256",
          "name": "destinationChainId",
          "type": "uint256"
        },
        {
          "indexed": false,
          "internalType": "bool",
          "name": "enabled",
          "type": "bool"
        }
      ],
      "name": "EnabledDepositRoute",
      "type": "event"
    },
    {
      "anonymous": false,
      "inputs": [
        {
          "indexed": false,
          "internalType": "uint256",
          "name": "amountToReturn",
          "type": "uint256"
        },
        {
          "indexed": true,
          "internalType": "uint256",
          "name": "chainId",
          "type": "uint256"
        },
        {
          "indexed": false,
          "internalType": "uint256[]",
          "name": "refundAmounts",
          "type": "uint256[]"
        },
        {
          "indexed": true,
          "internalType": "uint32",
          "name": "rootBundleId",
          "type": "uint32"
        },
        {
          "indexed": true,
          "internalType": "uint32",
          "name": "leafId",
          "type": "uint32"
        },
        {
          "indexed": false,
          "internalType": "address",
          "name": "l2TokenAddress",
          "type": "address"
        },
        {
          "indexed": false,
          "internalType": "address[]",
          "name": "refundAddresses",
          "type": "address[]"
        },
        {
          "indexed": false,
          "internalType": "bool",
          "name": "deferredRefunds",
          "type": "bool"
        },
        {
          "indexed": false,
          "internalType": "address",
          "name": "caller",
          "type": "address"
        }
      ],
      "name": "ExecutedRelayerRefundRoot",
      "type": "event"
    },
    {
      "anonymous": false,
      "inputs": [
        {
          "indexed": false,
          "internalType": "bytes32",
          "name": "inputToken",
          "type": "bytes32"
        },
        {
          "indexed": false,
          "internalType": "bytes32",
          "name": "outputToken",
          "type": "bytes32"
        },
        {
          "indexed": false,
          "internalType": "uint256",
          "name": "inputAmount",
          "type": "uint256"
        },
        {
          "indexed": false,
          "internalType": "uint256",
          "name": "outputAmount",
          "type": "uint256"
        },
        {
          "indexed": false,
          "internalType": "uint256",
          "name": "repaymentChainId",
          "type": "uint256"
        },
        {
          "indexed": true,
          "internalType": "uint256",
          "name": "originChainId",
          "type": "uint256"
        },
        {
          "indexed": true,
          "internalType": "uint256",
          "name": "depositId",
          "type": "uint256"
        },
        {
          "indexed": false,
          "internalType": "uint32",
          "name": "fillDeadline",
          "type": "uint32"
        },
        {
          "indexed": false,
          "internalType": "uint32",
          "name": "exclusivityDeadline",
          "type": "uint32"
        },
        {
          "indexed": false,
          "internalType": "bytes32",
          "name": "exclusiveRelayer",
          "type": "bytes32"
        },
        {
          "indexed": true,
          "internalType": "bytes32",
          "name": "relayer",
          "type": "bytes32"
        },
        {
          "indexed": false,
          "internalType": "bytes32",
          "name": "depositor",
          "type": "bytes32"
        },
        {
          "indexed": false,
          "internalType": "bytes32",
          "name": "recipient",
          "type": "bytes32"
        },
        {
          "indexed": false,
          "internalType": "bytes32",
          "name": "messageHash",
          "type": "bytes32"
        },
        {
          "components": [
            {
              "internalType": "bytes32",
              "name": "updatedRecipient",
              "type": "bytes32"
            },
            {
              "internalType": "bytes32",
              "name": "updatedMessageHash",
              "type": "bytes32"
            },
            {
              "internalType": "uint256",
              "name": "updatedOutputAmount",
              "type": "uint256"
            },
            {
              "internalType": "enum V3SpokePoolInterface.FillType",
              "name": "fillType",
              "type": "uint8"
            }
          ],
          "indexed": false,
          "internalType": "struct V3SpokePoolInterface.V3RelayExecutionEventInfo",
          "name": "relayExecutionInfo",
          "type": "tuple"
        }
      ],
      "name": "FilledRelay",
      "type": "event"
    },
    {
      "anonymous": false,
      "inputs": [
        {
          "indexed": false,
          "internalType": "address",
          "name": "inputToken",
          "type": "address"
        },
        {
          "indexed": false,
          "internalType": "address",
          "name": "outputToken",
          "type": "address"
        },
        {
          "indexed": false,
          "internalType": "uint256",
          "name": "inputAmount",
          "type": "uint256"
        },
        {
          "indexed": false,
          "internalType": "uint256",
          "name": "outputAmount",
          "type": "uint256"
        },
        {
          "indexed": false,
          "internalType": "uint256",
          "name": "repaymentChainId",
          "type": "uint256"
        },
        {
          "indexed": true,
          "internalType": "uint256",
          "name": "originChainId",
          "type": "uint256"
        },
        {
          "indexed": true,
          "internalType": "uint32",
          "name": "depositId",
          "type": "uint32"
        },
        {
          "indexed": false,
          "internalType": "uint32",
          "name": "fillDeadline",
          "type": "uint32"
        },
        {
          "indexed": false,
          "internalType": "uint32",
          "name": "exclusivityDeadline",
          "type": "uint32"
        },
        {
          "indexed": false,
          "internalType": "address",
          "name": "exclusiveRelayer",
          "type": "address"
        },
        {
          "indexed": true,
          "internalType": "address",
          "name": "relayer",
          "type": "address"
        },
        {
          "indexed": false,
          "internalType": "address",
          "name": "depositor",
          "type": "address"
        },
        {
          "indexed": false,
          "internalType": "address",
          "name": "recipient",
          "type": "address"
        },
        {
          "indexed": false,
          "internalType": "bytes",
          "name": "message",
          "type": "bytes"
        },
        {
          "components": [
            {
              "internalType": "address",
              "name": "updatedRecipient",
              "type": "address"
            },
            {
              "internalType": "bytes",
              "name": "updatedMessage",
              "type": "bytes"
            },
            {
              "internalType": "uint256",
              "name": "updatedOutputAmount",
              "type": "uint256"
            },
            {
              "internalType": "enum V3SpokePoolInterface.FillType",
              "name": "fillType",
              "type": "uint8"
            }
          ],
          "indexed": false,
          "internalType": "struct V3SpokePoolInterface.LegacyV3RelayExecutionEventInfo",
          "name": "relayExecutionInfo",
          "type": "tuple"
        }
      ],
      "name": "FilledV3Relay",
      "type": "event"
    },
    {
      "anonymous": false,
      "inputs": [
        {
          "indexed": false,
          "internalType": "bytes32",
          "name": "inputToken",
          "type": "bytes32"
        },
        {
          "indexed": false,
          "internalType": "bytes32",
          "name": "outputToken",
          "type": "bytes32"
        },
        {
          "indexed": false,
          "internalType": "uint256",
          "name": "inputAmount",
          "type": "uint256"
        },
        {
          "indexed": false,
          "internalType": "uint256",
          "name": "outputAmount",
          "type": "uint256"
        },
        {
          "indexed": true,
          "internalType": "uint256",
          "name": "destinationChainId",
          "type": "uint256"
        },
        {
          "indexed": true,
          "internalType": "uint256",
          "name": "depositId",
          "type": "uint256"
        },
        {
          "indexed": false,
          "internalType": "uint32",
          "name": "quoteTimestamp",
          "type": "uint32"
        },
        {
          "indexed": false,
          "internalType": "uint32",
          "name": "fillDeadline",
          "type": "uint32"
        },
        {
          "indexed": false,
          "internalType": "uint32",
          "name": "exclusivityDeadline",
          "type": "uint32"
        },
        {
          "indexed": true,
          "internalType": "bytes32",
          "name": "depositor",
          "type": "bytes32"
        },
        {
          "indexed": false,
          "internalType": "bytes32",
          "name": "recipient",
          "type": "bytes32"
        },
        {
          "indexed": false,
          "internalType": "bytes32",
          "name": "exclusiveRelayer",
          "type": "bytes32"
        },
        {
          "indexed": false,
          "internalType": "bytes",
          "name": "message",
          "type": "bytes"
        }
      ],
      "name": "FundsDeposited",
      "type": "event"
    },
    {
      "anonymous": false,
      "inputs": [
        {
          "indexed": false,
          "internalType": "uint8",
          "name": "version",
          "type": "uint8"
        }
      ],
      "name": "Initialized",
      "type": "event"
    },
    {
      "anonymous": false,
      "inputs": [
        {
          "indexed": false,
          "internalType": "bool",
          "name": "isPaused",
          "type": "bool"
        }
      ],
      "name": "PausedDeposits",
      "type": "event"
    },
    {
      "anonymous": false,
      "inputs": [
        {
          "indexed": false,
          "internalType": "bool",
          "name": "isPaused",
          "type": "bool"
        }
      ],
      "name": "PausedFills",
      "type": "event"
    },
    {
      "anonymous": false,
      "inputs": [
        {
          "indexed": true,
          "internalType": "uint32",
          "name": "rootBundleId",
          "type": "uint32"
        },
        {
          "indexed": true,
          "internalType": "bytes32",
          "name": "relayerRefundRoot",
          "type": "bytes32"
        },
        {
          "indexed": true,
          "internalType": "bytes32",
          "name": "slowRelayRoot",
          "type": "bytes32"
        }
      ],
      "name": "RelayedRootBundle",
      "type": "event"
    },
    {
      "anonymous": false,
      "inputs": [
        {
          "indexed": false,
          "internalType": "bytes32",
          "name": "inputToken",
          "type": "bytes32"
        },
        {
          "indexed": false,
          "internalType": "bytes32",
          "name": "outputToken",
          "type": "bytes32"
        },
        {
          "indexed": false,
          "internalType": "uint256",
          "name": "inputAmount",
          "type": "uint256"
        },
        {
          "indexed": false,
          "internalType": "uint256",
          "name": "outputAmount",
          "type": "uint256"
        },
        {
          "indexed": true,
          "internalType": "uint256",
          "name": "originChainId",
          "type": "uint256"
        },
        {
          "indexed": true,
          "internalType": "uint256",
          "name": "depositId",
          "type": "uint256"
        },
        {
          "indexed": false,
          "internalType": "uint32",
          "name": "fillDeadline",
          "type": "uint32"
        },
        {
          "indexed": false,
          "internalType": "uint32",
          "name": "exclusivityDeadline",
          "type": "uint32"
        },
        {
          "indexed": false,
          "internalType": "bytes32",
          "name": "exclusiveRelayer",
          "type": "bytes32"
        },
        {
          "indexed": false,
          "internalType": "bytes32",
          "name": "depositor",
          "type": "bytes32"
        },
        {
          "indexed": false,
          "internalType": "bytes32",
          "name": "recipient",
          "type": "bytes32"
        },
        {
          "indexed": false,
          "internalType": "bytes32",
          "name": "messageHash",
          "type": "bytes32"
        }
      ],
      "name": "RequestedSlowFill",
      "type": "event"
    },
    {
      "anonymous": false,
      "inputs": [
        {
          "indexed": false,
          "internalType": "uint256",
          "name": "updatedOutputAmount",
          "type": "uint256"
        },
        {
          "indexed": true,
          "internalType": "uint256",
          "name": "depositId",
          "type": "uint256"
        },
        {
          "indexed": true,
          "internalType": "bytes32",
          "name": "depositor",
          "type": "bytes32"
        },
        {
          "indexed": false,
          "internalType": "bytes32",
          "name": "updatedRecipient",
          "type": "bytes32"
        },
        {
          "indexed": false,
          "internalType": "bytes",
          "name": "updatedMessage",
          "type": "bytes"
        },
        {
          "indexed": false,
          "internalType": "bytes",
          "name": "depositorSignature",
          "type": "bytes"
        }
      ],
      "name": "RequestedSpeedUpDeposit",
      "type": "event"
    },
    {
      "anonymous": false,
      "inputs": [
        {
          "indexed": false,
          "internalType": "uint256",
          "name": "updatedOutputAmount",
          "type": "uint256"
        },
        {
          "indexed": true,
          "internalType": "uint32",
          "name": "depositId",
          "type": "uint32"
        },
        {
          "indexed": true,
          "internalType": "address",
          "name": "depositor",
          "type": "address"
        },
        {
          "indexed": false,
          "internalType": "address",
          "name": "updatedRecipient",
          "type": "address"
        },
        {
          "indexed": false,
          "internalType": "bytes",
          "name": "updatedMessage",
          "type": "bytes"
        },
        {
          "indexed": false,
          "internalType": "bytes",
          "name": "depositorSignature",
          "type": "bytes"
        }
      ],
      "name": "RequestedSpeedUpV3Deposit",
      "type": "event"
    },
    {
      "anonymous": false,
      "inputs": [
        {
          "indexed": false,
          "internalType": "address",
          "name": "inputToken",
          "type": "address"
        },
        {
          "indexed": false,
          "internalType": "address",
          "name": "outputToken",
          "type": "address"
        },
        {
          "indexed": false,
          "internalType": "uint256",
          "name": "inputAmount",
          "type": "uint256"
        },
        {
          "indexed": false,
          "internalType": "uint256",
          "name": "outputAmount",
          "type": "uint256"
        },
        {
          "indexed": true,
          "internalType": "uint256",
          "name": "originChainId",
          "type": "uint256"
        },
        {
          "indexed": true,
          "internalType": "uint32",
          "name": "depositId",
          "type": "uint32"
        },
        {
          "indexed": false,
          "internalType": "uint32",
          "name": "fillDeadline",
          "type": "uint32"
        },
        {
          "indexed": false,
          "internalType": "uint32",
          "name": "exclusivityDeadline",
          "type": "uint32"
        },
        {
          "indexed": false,
          "internalType": "address",
          "name": "exclusiveRelayer",
          "type": "address"
        },
        {
          "indexed": false,
          "internalType": "address",
          "name": "depositor",
          "type": "address"
        },
        {
          "indexed": false,
          "internalType": "address",
          "name": "recipient",
          "type": "address"
        },
        {
          "indexed": false,
          "internalType": "bytes",
          "name": "message",
          "type": "bytes"
        }
      ],
      "name": "RequestedV3SlowFill",
      "type": "event"
    },
    {
      "anonymous": false,
      "inputs": [
        {
          "indexed": true,
          "internalType": "uint32",
          "name": "newL1Gas",
          "type": "uint32"
        }
      ],
      "name": "SetL1Gas",
      "type": "event"
    },
    {
      "anonymous": false,
      "inputs": [
        {
          "indexed": true,
          "internalType": "address",
          "name": "l2Token",
          "type": "address"
        },
        {
          "indexed": true,
          "internalType": "address",
          "name": "tokenBridge",
          "type": "address"
        }
      ],
      "name": "SetL2TokenBridge",
      "type": "event"
    },
    {
      "anonymous": false,
      "inputs": [
        {
          "indexed": true,
          "internalType": "address",
          "name": "l2Token",
          "type": "address"
        },
        {
          "indexed": true,
          "internalType": "address",
          "name": "l1Token",
          "type": "address"
        }
      ],
      "name": "SetRemoteL1Token",
      "type": "event"
    },
    {
      "anonymous": false,
      "inputs": [
        {
          "indexed": true,
          "internalType": "address",
          "name": "newWithdrawalRecipient",
          "type": "address"
        }
      ],
      "name": "SetWithdrawalRecipient",
      "type": "event"
    },
    {
      "anonymous": false,
      "inputs": [
        {
          "indexed": true,
          "internalType": "address",
          "name": "newAdmin",
          "type": "address"
        }
      ],
      "name": "SetXDomainAdmin",
      "type": "event"
    },
    {
      "anonymous": false,
      "inputs": [
        {
          "indexed": false,
          "internalType": "uint256",
          "name": "amountToReturn",
          "type": "uint256"
        },
        {
          "indexed": true,
          "internalType": "uint256",
          "name": "chainId",
          "type": "uint256"
        },
        {
          "indexed": true,
          "internalType": "uint32",
          "name": "leafId",
          "type": "uint32"
        },
        {
          "indexed": true,
          "internalType": "bytes32",
          "name": "l2TokenAddress",
          "type": "bytes32"
        },
        {
          "indexed": false,
          "internalType": "address",
          "name": "caller",
          "type": "address"
        }
      ],
      "name": "TokensBridged",
      "type": "event"
    },
    {
      "anonymous": false,
      "inputs": [
        {
          "indexed": true,
          "internalType": "address",
          "name": "implementation",
          "type": "address"
        }
      ],
      "name": "Upgraded",
      "type": "event"
    },
    {
      "anonymous": false,
      "inputs": [
        {
          "indexed": false,
          "internalType": "address",
          "name": "inputToken",
          "type": "address"
        },
        {
          "indexed": false,
          "internalType": "address",
          "name": "outputToken",
          "type": "address"
        },
        {
          "indexed": false,
          "internalType": "uint256",
          "name": "inputAmount",
          "type": "uint256"
        },
        {
          "indexed": false,
          "internalType": "uint256",
          "name": "outputAmount",
          "type": "uint256"
        },
        {
          "indexed": true,
          "internalType": "uint256",
          "name": "destinationChainId",
          "type": "uint256"
        },
        {
          "indexed": true,
          "internalType": "uint32",
          "name": "depositId",
          "type": "uint32"
        },
        {
          "indexed": false,
          "internalType": "uint32",
          "name": "quoteTimestamp",
          "type": "uint32"
        },
        {
          "indexed": false,
          "internalType": "uint32",
          "name": "fillDeadline",
          "type": "uint32"
        },
        {
          "indexed": false,
          "internalType": "uint32",
          "name": "exclusivityDeadline",
          "type": "uint32"
        },
        {
          "indexed": true,
          "internalType": "address",
          "name": "depositor",
          "type": "address"
        },
        {
          "indexed": false,
          "internalType": "address",
          "name": "recipient",
          "type": "address"
        },
        {
          "indexed": false,
          "internalType": "address",
          "name": "exclusiveRelayer",
          "type": "address"
        },
        {
          "indexed": false,
          "internalType": "bytes",
          "name": "message",
          "type": "bytes"
        }
      ],
      "name": "V3FundsDeposited",
      "type": "event"
    },
    {
      "inputs": [],
      "name": "EMPTY_RELAYER",
      "outputs": [
        {
          "internalType": "bytes32",
          "name": "",
          "type": "bytes32"
        }
      ],
      "stateMutability": "view",
      "type": "function"
    },
    {
      "inputs": [],
      "name": "EMPTY_REPAYMENT_CHAIN_ID",
      "outputs": [
        {
          "internalType": "uint256",
          "name": "",
          "type": "uint256"
        }
      ],
      "stateMutability": "view",
      "type": "function"
    },
    {
      "inputs": [],
      "name": "INFINITE_FILL_DEADLINE",
      "outputs": [
        {
          "internalType": "uint32",
          "name": "",
          "type": "uint32"
        }
      ],
      "stateMutability": "view",
      "type": "function"
    },
    {
      "inputs": [],
      "name": "MAX_EXCLUSIVITY_PERIOD_SECONDS",
      "outputs": [
        {
          "internalType": "uint32",
          "name": "",
          "type": "uint32"
        }
      ],
      "stateMutability": "view",
      "type": "function"
    },
    {
      "inputs": [],
      "name": "MAX_TRANSFER_SIZE",
      "outputs": [
        {
          "internalType": "uint256",
          "name": "",
          "type": "uint256"
        }
      ],
      "stateMutability": "view",
      "type": "function"
    },
    {
      "inputs": [],
      "name": "MESSENGER",
      "outputs": [
        {
          "internalType": "address",
          "name": "",
          "type": "address"
        }
      ],
      "stateMutability": "view",
      "type": "function"
    },
    {
      "inputs": [],
      "name": "UPDATE_BYTES32_DEPOSIT_DETAILS_HASH",
      "outputs": [
        {
          "internalType": "bytes32",
          "name": "",
          "type": "bytes32"
        }
      ],
      "stateMutability": "view",
      "type": "function"
    },
    {
      "inputs": [],
      "name": "USDC_BRIDGE",
      "outputs": [
        {
          "internalType": "address",
          "name": "",
          "type": "address"
        }
      ],
      "stateMutability": "view",
      "type": "function"
    },
    {
      "inputs": [
        {
          "internalType": "uint32",
          "name": "_initialDepositId",
          "type": "uint32"
        },
        {
          "internalType": "address",
          "name": "_crossDomainAdmin",
          "type": "address"
        },
        {
          "internalType": "address",
          "name": "_withdrawalRecipient",
          "type": "address"
        },
        {
          "internalType": "address",
          "name": "_l2Eth",
          "type": "address"
        }
      ],
      "name": "__OvmSpokePool_init",
      "outputs": [],
      "stateMutability": "nonpayable",
      "type": "function"
    },
    {
      "inputs": [
        {
          "internalType": "uint32",
          "name": "_initialDepositId",
          "type": "uint32"
        },
        {
          "internalType": "address",
          "name": "_crossDomainAdmin",
          "type": "address"
        },
        {
          "internalType": "address",
          "name": "_withdrawalRecipient",
          "type": "address"
        }
      ],
      "name": "__SpokePool_init",
      "outputs": [],
      "stateMutability": "nonpayable",
      "type": "function"
    },
    {
      "inputs": [],
      "name": "cctpTokenMessenger",
      "outputs": [
        {
          "internalType": "contract ITokenMessenger",
          "name": "",
          "type": "address"
        }
      ],
      "stateMutability": "view",
      "type": "function"
    },
    {
      "inputs": [],
      "name": "cctpV2",
      "outputs": [
        {
          "internalType": "bool",
          "name": "",
          "type": "bool"
        }
      ],
      "stateMutability": "view",
      "type": "function"
    },
    {
      "inputs": [],
      "name": "chainId",
      "outputs": [
        {
          "internalType": "uint256",
          "name": "",
          "type": "uint256"
        }
      ],
      "stateMutability": "view",
      "type": "function"
    },
    {
      "inputs": [
        {
          "internalType": "bytes32",
          "name": "l2TokenAddress",
          "type": "bytes32"
        },
        {
          "internalType": "bytes32",
          "name": "refundAddress",
          "type": "bytes32"
        }
      ],
      "name": "claimRelayerRefund",
      "outputs": [],
      "stateMutability": "nonpayable",
      "type": "function"
    },
    {
      "inputs": [],
      "name": "crossDomainAdmin",
      "outputs": [
        {
          "internalType": "address",
          "name": "",
          "type": "address"
        }
      ],
      "stateMutability": "view",
      "type": "function"
    },
    {
      "inputs": [
        {
          "internalType": "bytes32",
          "name": "depositor",
          "type": "bytes32"
        },
        {
          "internalType": "bytes32",
          "name": "recipient",
          "type": "bytes32"
        },
        {
          "internalType": "bytes32",
          "name": "inputToken",
          "type": "bytes32"
        },
        {
          "internalType": "bytes32",
          "name": "outputToken",
          "type": "bytes32"
        },
        {
          "internalType": "uint256",
          "name": "inputAmount",
          "type": "uint256"
        },
        {
          "internalType": "uint256",
          "name": "outputAmount",
          "type": "uint256"
        },
        {
          "internalType": "uint256",
          "name": "destinationChainId",
          "type": "uint256"
        },
        {
          "internalType": "bytes32",
          "name": "exclusiveRelayer",
          "type": "bytes32"
        },
        {
          "internalType": "uint32",
          "name": "quoteTimestamp",
          "type": "uint32"
        },
        {
          "internalType": "uint32",
          "name": "fillDeadline",
          "type": "uint32"
        },
        {
          "internalType": "uint32",
          "name": "exclusivityParameter",
          "type": "uint32"
        },
        {
          "internalType": "bytes",
          "name": "message",
          "type": "bytes"
        }
      ],
      "name": "deposit",
      "outputs": [],
      "stateMutability": "payable",
      "type": "function"
    },
    {
      "inputs": [
        {
          "internalType": "address",
          "name": "recipient",
          "type": "address"
        },
        {
          "internalType": "address",
          "name": "originToken",
          "type": "address"
        },
        {
          "internalType": "uint256",
          "name": "amount",
          "type": "uint256"
        },
        {
          "internalType": "uint256",
          "name": "destinationChainId",
          "type": "uint256"
        },
        {
          "internalType": "int64",
          "name": "relayerFeePct",
          "type": "int64"
        },
        {
          "internalType": "uint32",
          "name": "quoteTimestamp",
          "type": "uint32"
        },
        {
          "internalType": "bytes",
          "name": "message",
          "type": "bytes"
        },
        {
          "internalType": "uint256",
          "name": "",
          "type": "uint256"
        }
      ],
      "name": "depositDeprecated_5947912356",
      "outputs": [],
      "stateMutability": "payable",
      "type": "function"
    },
    {
      "inputs": [
        {
          "internalType": "address",
          "name": "depositor",
          "type": "address"
        },
        {
          "internalType": "address",
          "name": "recipient",
          "type": "address"
        },
        {
          "internalType": "address",
          "name": "originToken",
          "type": "address"
        },
        {
          "internalType": "uint256",
          "name": "amount",
          "type": "uint256"
        },
        {
          "internalType": "uint256",
          "name": "destinationChainId",
          "type": "uint256"
        },
        {
          "internalType": "int64",
          "name": "relayerFeePct",
          "type": "int64"
        },
        {
          "internalType": "uint32",
          "name": "quoteTimestamp",
          "type": "uint32"
        },
        {
          "internalType": "bytes",
          "name": "message",
          "type": "bytes"
        },
        {
          "internalType": "uint256",
          "name": "",
          "type": "uint256"
        }
      ],
      "name": "depositFor",
      "outputs": [],
      "stateMutability": "payable",
      "type": "function"
    },
    {
      "inputs": [
        {
          "internalType": "bytes32",
          "name": "depositor",
          "type": "bytes32"
        },
        {
          "internalType": "bytes32",
          "name": "recipient",
          "type": "bytes32"
        },
        {
          "internalType": "bytes32",
          "name": "inputToken",
          "type": "bytes32"
        },
        {
          "internalType": "bytes32",
          "name": "outputToken",
          "type": "bytes32"
        },
        {
          "internalType": "uint256",
          "name": "inputAmount",
          "type": "uint256"
        },
        {
          "internalType": "uint256",
          "name": "outputAmount",
          "type": "uint256"
        },
        {
          "internalType": "uint256",
          "name": "destinationChainId",
          "type": "uint256"
        },
        {
          "internalType": "bytes32",
          "name": "exclusiveRelayer",
          "type": "bytes32"
        },
        {
          "internalType": "uint32",
          "name": "fillDeadlineOffset",
          "type": "uint32"
        },
        {
          "internalType": "uint32",
          "name": "exclusivityParameter",
          "type": "uint32"
        },
        {
          "internalType": "bytes",
          "name": "message",
          "type": "bytes"
        }
      ],
      "name": "depositNow",
      "outputs": [],
      "stateMutability": "payable",
      "type": "function"
    },
    {
      "inputs": [],
      "name": "depositQuoteTimeBuffer",
      "outputs": [
        {
          "internalType": "uint32",
          "name": "",
          "type": "uint32"
        }
      ],
      "stateMutability": "view",
      "type": "function"
    },
    {
      "inputs": [
        {
          "internalType": "address",
          "name": "depositor",
          "type": "address"
        },
        {
          "internalType": "address",
          "name": "recipient",
          "type": "address"
        },
        {
          "internalType": "address",
          "name": "inputToken",
          "type": "address"
        },
        {
          "internalType": "address",
          "name": "outputToken",
          "type": "address"
        },
        {
          "internalType": "uint256",
          "name": "inputAmount",
          "type": "uint256"
        },
        {
          "internalType": "uint256",
          "name": "outputAmount",
          "type": "uint256"
        },
        {
          "internalType": "uint256",
          "name": "destinationChainId",
          "type": "uint256"
        },
        {
          "internalType": "address",
          "name": "exclusiveRelayer",
          "type": "address"
        },
        {
          "internalType": "uint32",
          "name": "quoteTimestamp",
          "type": "uint32"
        },
        {
          "internalType": "uint32",
          "name": "fillDeadline",
          "type": "uint32"
        },
        {
          "internalType": "uint32",
          "name": "exclusivityParameter",
          "type": "uint32"
        },
        {
          "internalType": "bytes",
          "name": "message",
          "type": "bytes"
        }
      ],
      "name": "depositV3",
      "outputs": [],
      "stateMutability": "payable",
      "type": "function"
    },
    {
      "inputs": [
        {
          "internalType": "address",
          "name": "depositor",
          "type": "address"
        },
        {
          "internalType": "address",
          "name": "recipient",
          "type": "address"
        },
        {
          "internalType": "address",
          "name": "inputToken",
          "type": "address"
        },
        {
          "internalType": "address",
          "name": "outputToken",
          "type": "address"
        },
        {
          "internalType": "uint256",
          "name": "inputAmount",
          "type": "uint256"
        },
        {
          "internalType": "uint256",
          "name": "outputAmount",
          "type": "uint256"
        },
        {
          "internalType": "uint256",
          "name": "destinationChainId",
          "type": "uint256"
        },
        {
          "internalType": "address",
          "name": "exclusiveRelayer",
          "type": "address"
        },
        {
          "internalType": "uint32",
          "name": "fillDeadlineOffset",
          "type": "uint32"
        },
        {
          "internalType": "uint32",
          "name": "exclusivityParameter",
          "type": "uint32"
        },
        {
          "internalType": "bytes",
          "name": "message",
          "type": "bytes"
        }
      ],
      "name": "depositV3Now",
      "outputs": [],
      "stateMutability": "payable",
      "type": "function"
    },
    {
      "inputs": [
        {
          "internalType": "uint256",
          "name": "rootBundleId",
          "type": "uint256"
        }
      ],
      "name": "emergencyDeleteRootBundle",
      "outputs": [],
      "stateMutability": "nonpayable",
      "type": "function"
    },
    {
      "inputs": [
        {
          "internalType": "uint32",
          "name": "rootBundleId",
          "type": "uint32"
        },
        {
          "components": [
            {
              "internalType": "uint256",
              "name": "amountToReturn",
              "type": "uint256"
            },
            {
              "internalType": "uint256",
              "name": "chainId",
              "type": "uint256"
            },
            {
              "internalType": "uint256[]",
              "name": "refundAmounts",
              "type": "uint256[]"
            },
            {
              "internalType": "uint32",
              "name": "leafId",
              "type": "uint32"
            },
            {
              "internalType": "address",
              "name": "l2TokenAddress",
              "type": "address"
            },
            {
              "internalType": "address[]",
              "name": "refundAddresses",
              "type": "address[]"
            }
          ],
          "internalType": "struct SpokePoolInterface.RelayerRefundLeaf",
          "name": "relayerRefundLeaf",
          "type": "tuple"
        },
        {
          "internalType": "bytes32[]",
          "name": "proof",
          "type": "bytes32[]"
        }
      ],
      "name": "executeRelayerRefundLeaf",
      "outputs": [],
      "stateMutability": "payable",
      "type": "function"
    },
    {
      "inputs": [
        {
          "components": [
            {
              "components": [
                {
                  "internalType": "bytes32",
                  "name": "depositor",
                  "type": "bytes32"
                },
                {
                  "internalType": "bytes32",
                  "name": "recipient",
                  "type": "bytes32"
                },
                {
                  "internalType": "bytes32",
                  "name": "exclusiveRelayer",
                  "type": "bytes32"
                },
                {
                  "internalType": "bytes32",
                  "name": "inputToken",
                  "type": "bytes32"
                },
                {
                  "internalType": "bytes32",
                  "name": "outputToken",
                  "type": "bytes32"
                },
                {
                  "internalType": "uint256",
                  "name": "inputAmount",
                  "type": "uint256"
                },
                {
                  "internalType": "uint256",
                  "name": "outputAmount",
                  "type": "uint256"
                },
                {
                  "internalType": "uint256",
                  "name": "originChainId",
                  "type": "uint256"
                },
                {
                  "internalType": "uint256",
                  "name": "depositId",
                  "type": "uint256"
                },
                {
                  "internalType": "uint32",
                  "name": "fillDeadline",
                  "type": "uint32"
                },
                {
                  "internalType": "uint32",
                  "name": "exclusivityDeadline",
                  "type": "uint32"
                },
                {
                  "internalType": "bytes",
                  "name": "message",
                  "type": "bytes"
                }
              ],
              "internalType": "struct V3SpokePoolInterface.V3RelayData",
              "name": "relayData",
              "type": "tuple"
            },
            {
              "internalType": "uint256",
              "name": "chainId",
              "type": "uint256"
            },
            {
              "internalType": "uint256",
              "name": "updatedOutputAmount",
              "type": "uint256"
            }
          ],
          "internalType": "struct V3SpokePoolInterface.V3SlowFill",
          "name": "slowFillLeaf",
          "type": "tuple"
        },
        {
          "internalType": "uint32",
          "name": "rootBundleId",
          "type": "uint32"
        },
        {
          "internalType": "bytes32[]",
          "name": "proof",
          "type": "bytes32[]"
        }
      ],
      "name": "executeSlowRelayLeaf",
      "outputs": [],
      "stateMutability": "nonpayable",
      "type": "function"
    },
    {
      "inputs": [
        {
          "internalType": "bytes32",
          "name": "orderId",
          "type": "bytes32"
        },
        {
          "internalType": "bytes",
          "name": "originData",
          "type": "bytes"
        },
        {
          "internalType": "bytes",
          "name": "fillerData",
          "type": "bytes"
        }
      ],
      "name": "fill",
      "outputs": [],
      "stateMutability": "nonpayable",
      "type": "function"
    },
    {
      "inputs": [],
      "name": "fillDeadlineBuffer",
      "outputs": [
        {
          "internalType": "uint32",
          "name": "",
          "type": "uint32"
        }
      ],
      "stateMutability": "view",
      "type": "function"
    },
    {
      "inputs": [
        {
          "components": [
            {
              "internalType": "bytes32",
              "name": "depositor",
              "type": "bytes32"
            },
            {
              "internalType": "bytes32",
              "name": "recipient",
              "type": "bytes32"
            },
            {
              "internalType": "bytes32",
              "name": "exclusiveRelayer",
              "type": "bytes32"
            },
            {
              "internalType": "bytes32",
              "name": "inputToken",
              "type": "bytes32"
            },
            {
              "internalType": "bytes32",
              "name": "outputToken",
              "type": "bytes32"
            },
            {
              "internalType": "uint256",
              "name": "inputAmount",
              "type": "uint256"
            },
            {
              "internalType": "uint256",
              "name": "outputAmount",
              "type": "uint256"
            },
            {
              "internalType": "uint256",
              "name": "originChainId",
              "type": "uint256"
            },
            {
              "internalType": "uint256",
              "name": "depositId",
              "type": "uint256"
            },
            {
              "internalType": "uint32",
              "name": "fillDeadline",
              "type": "uint32"
            },
            {
              "internalType": "uint32",
              "name": "exclusivityDeadline",
              "type": "uint32"
            },
            {
              "internalType": "bytes",
              "name": "message",
              "type": "bytes"
            }
          ],
          "internalType": "struct V3SpokePoolInterface.V3RelayData",
          "name": "relayData",
          "type": "tuple"
        },
        {
          "internalType": "uint256",
          "name": "repaymentChainId",
          "type": "uint256"
        },
        {
          "internalType": "bytes32",
          "name": "repaymentAddress",
          "type": "bytes32"
        }
      ],
      "name": "fillRelay",
      "outputs": [],
      "stateMutability": "nonpayable",
      "type": "function"
    },
    {
      "inputs": [
        {
          "components": [
            {
              "internalType": "bytes32",
              "name": "depositor",
              "type": "bytes32"
            },
            {
              "internalType": "bytes32",
              "name": "recipient",
              "type": "bytes32"
            },
            {
              "internalType": "bytes32",
              "name": "exclusiveRelayer",
              "type": "bytes32"
            },
            {
              "internalType": "bytes32",
              "name": "inputToken",
              "type": "bytes32"
            },
            {
              "internalType": "bytes32",
              "name": "outputToken",
              "type": "bytes32"
            },
            {
              "internalType": "uint256",
              "name": "inputAmount",
              "type": "uint256"
            },
            {
              "internalType": "uint256",
              "name": "outputAmount",
              "type": "uint256"
            },
            {
              "internalType": "uint256",
              "name": "originChainId",
              "type": "uint256"
            },
            {
              "internalType": "uint256",
              "name": "depositId",
              "type": "uint256"
            },
            {
              "internalType": "uint32",
              "name": "fillDeadline",
              "type": "uint32"
            },
            {
              "internalType": "uint32",
              "name": "exclusivityDeadline",
              "type": "uint32"
            },
            {
              "internalType": "bytes",
              "name": "message",
              "type": "bytes"
            }
          ],
          "internalType": "struct V3SpokePoolInterface.V3RelayData",
          "name": "relayData",
          "type": "tuple"
        },
        {
          "internalType": "uint256",
          "name": "repaymentChainId",
          "type": "uint256"
        },
        {
          "internalType": "bytes32",
          "name": "repaymentAddress",
          "type": "bytes32"
        },
        {
          "internalType": "uint256",
          "name": "updatedOutputAmount",
          "type": "uint256"
        },
        {
          "internalType": "bytes32",
          "name": "updatedRecipient",
          "type": "bytes32"
        },
        {
          "internalType": "bytes",
          "name": "updatedMessage",
          "type": "bytes"
        },
        {
          "internalType": "bytes",
          "name": "depositorSignature",
          "type": "bytes"
        }
      ],
      "name": "fillRelayWithUpdatedDeposit",
      "outputs": [],
      "stateMutability": "nonpayable",
      "type": "function"
    },
    {
      "inputs": [
        {
          "internalType": "bytes32",
          "name": "",
          "type": "bytes32"
        }
      ],
      "name": "fillStatuses",
      "outputs": [
        {
          "internalType": "uint256",
          "name": "",
          "type": "uint256"
        }
      ],
      "stateMutability": "view",
      "type": "function"
    },
    {
      "inputs": [
        {
          "components": [
            {
              "internalType": "address",
              "name": "depositor",
              "type": "address"
            },
            {
              "internalType": "address",
              "name": "recipient",
              "type": "address"
            },
            {
              "internalType": "address",
              "name": "exclusiveRelayer",
              "type": "address"
            },
            {
              "internalType": "address",
              "name": "inputToken",
              "type": "address"
            },
            {
              "internalType": "address",
              "name": "outputToken",
              "type": "address"
            },
            {
              "internalType": "uint256",
              "name": "inputAmount",
              "type": "uint256"
            },
            {
              "internalType": "uint256",
              "name": "outputAmount",
              "type": "uint256"
            },
            {
              "internalType": "uint256",
              "name": "originChainId",
              "type": "uint256"
            },
            {
              "internalType": "uint32",
              "name": "depositId",
              "type": "uint32"
            },
            {
              "internalType": "uint32",
              "name": "fillDeadline",
              "type": "uint32"
            },
            {
              "internalType": "uint32",
              "name": "exclusivityDeadline",
              "type": "uint32"
            },
            {
              "internalType": "bytes",
              "name": "message",
              "type": "bytes"
            }
          ],
          "internalType": "struct V3SpokePoolInterface.V3RelayDataLegacy",
          "name": "relayData",
          "type": "tuple"
        },
        {
          "internalType": "uint256",
          "name": "repaymentChainId",
          "type": "uint256"
        }
      ],
      "name": "fillV3Relay",
      "outputs": [],
      "stateMutability": "nonpayable",
      "type": "function"
    },
    {
      "inputs": [],
      "name": "getCurrentTime",
      "outputs": [
        {
          "internalType": "uint256",
          "name": "",
          "type": "uint256"
        }
      ],
      "stateMutability": "view",
      "type": "function"
    },
    {
      "inputs": [
        {
          "internalType": "address",
          "name": "l2TokenAddress",
          "type": "address"
        },
        {
          "internalType": "address",
          "name": "refundAddress",
          "type": "address"
        }
      ],
      "name": "getRelayerRefund",
      "outputs": [
        {
          "internalType": "uint256",
          "name": "",
          "type": "uint256"
        }
      ],
      "stateMutability": "view",
      "type": "function"
    },
    {
      "inputs": [
        {
          "internalType": "address",
          "name": "msgSender",
          "type": "address"
        },
        {
          "internalType": "bytes32",
          "name": "depositor",
          "type": "bytes32"
        },
        {
          "internalType": "uint256",
          "name": "depositNonce",
          "type": "uint256"
        }
      ],
      "name": "getUnsafeDepositId",
      "outputs": [
        {
          "internalType": "uint256",
          "name": "",
          "type": "uint256"
        }
      ],
      "stateMutability": "pure",
      "type": "function"
    },
    {
      "inputs": [
        {
          "components": [
            {
              "internalType": "bytes32",
              "name": "depositor",
              "type": "bytes32"
            },
            {
              "internalType": "bytes32",
              "name": "recipient",
              "type": "bytes32"
            },
            {
              "internalType": "bytes32",
              "name": "exclusiveRelayer",
              "type": "bytes32"
            },
            {
              "internalType": "bytes32",
              "name": "inputToken",
              "type": "bytes32"
            },
            {
              "internalType": "bytes32",
              "name": "outputToken",
              "type": "bytes32"
            },
            {
              "internalType": "uint256",
              "name": "inputAmount",
              "type": "uint256"
            },
            {
              "internalType": "uint256",
              "name": "outputAmount",
              "type": "uint256"
            },
            {
              "internalType": "uint256",
              "name": "originChainId",
              "type": "uint256"
            },
            {
              "internalType": "uint256",
              "name": "depositId",
              "type": "uint256"
            },
            {
              "internalType": "uint32",
              "name": "fillDeadline",
              "type": "uint32"
            },
            {
              "internalType": "uint32",
              "name": "exclusivityDeadline",
              "type": "uint32"
            },
            {
              "internalType": "bytes",
              "name": "message",
              "type": "bytes"
            }
          ],
          "internalType": "struct V3SpokePoolInterface.V3RelayData",
          "name": "relayData",
          "type": "tuple"
        }
      ],
      "name": "getV3RelayHash",
      "outputs": [
        {
          "internalType": "bytes32",
          "name": "",
          "type": "bytes32"
        }
      ],
      "stateMutability": "view",
      "type": "function"
    },
    {
      "inputs": [
        {
          "internalType": "uint32",
          "name": "_initialDepositId",
          "type": "uint32"
        },
        {
          "internalType": "address",
          "name": "_crossDomainAdmin",
          "type": "address"
        },
        {
          "internalType": "address",
          "name": "_withdrawalRecipient",
          "type": "address"
        }
      ],
      "name": "initialize",
      "outputs": [],
      "stateMutability": "nonpayable",
      "type": "function"
    },
    {
      "inputs": [],
      "name": "l1Gas",
      "outputs": [
        {
          "internalType": "uint32",
          "name": "",
          "type": "uint32"
        }
      ],
      "stateMutability": "view",
      "type": "function"
    },
    {
      "inputs": [],
      "name": "l2Eth",
      "outputs": [
        {
          "internalType": "address",
          "name": "",
          "type": "address"
        }
      ],
      "stateMutability": "view",
      "type": "function"
    },
    {
      "inputs": [
        {
          "internalType": "bytes[]",
          "name": "data",
          "type": "bytes[]"
        }
      ],
      "name": "multicall",
      "outputs": [
        {
          "internalType": "bytes[]",
          "name": "results",
          "type": "bytes[]"
        }
      ],
      "stateMutability": "nonpayable",
      "type": "function"
    },
    {
      "inputs": [],
      "name": "numberOfDeposits",
      "outputs": [
        {
          "internalType": "uint32",
          "name": "",
          "type": "uint32"
        }
      ],
      "stateMutability": "view",
      "type": "function"
    },
    {
      "inputs": [
        {
          "internalType": "bool",
          "name": "pause",
          "type": "bool"
        }
      ],
      "name": "pauseDeposits",
      "outputs": [],
      "stateMutability": "nonpayable",
      "type": "function"
    },
    {
      "inputs": [
        {
          "internalType": "bool",
          "name": "pause",
          "type": "bool"
        }
      ],
      "name": "pauseFills",
      "outputs": [],
      "stateMutability": "nonpayable",
      "type": "function"
    },
    {
      "inputs": [],
      "name": "pausedDeposits",
      "outputs": [
        {
          "internalType": "bool",
          "name": "",
          "type": "bool"
        }
      ],
      "stateMutability": "view",
      "type": "function"
    },
    {
      "inputs": [],
      "name": "pausedFills",
      "outputs": [
        {
          "internalType": "bool",
          "name": "",
          "type": "bool"
        }
      ],
      "stateMutability": "view",
      "type": "function"
    },
    {
      "inputs": [],
      "name": "proxiableUUID",
      "outputs": [
        {
          "internalType": "bytes32",
          "name": "",
          "type": "bytes32"
        }
      ],
      "stateMutability": "view",
      "type": "function"
    },
    {
      "inputs": [],
      "name": "recipientCircleDomainId",
      "outputs": [
        {
          "internalType": "uint32",
          "name": "",
          "type": "uint32"
        }
      ],
      "stateMutability": "view",
      "type": "function"
    },
    {
      "inputs": [
        {
          "internalType": "bytes32",
          "name": "relayerRefundRoot",
          "type": "bytes32"
        },
        {
          "internalType": "bytes32",
          "name": "slowRelayRoot",
          "type": "bytes32"
        }
      ],
      "name": "relayRootBundle",
      "outputs": [],
      "stateMutability": "nonpayable",
      "type": "function"
    },
    {
      "inputs": [
        {
          "internalType": "address",
          "name": "",
          "type": "address"
        },
        {
          "internalType": "address",
          "name": "",
          "type": "address"
        }
      ],
      "name": "relayerRefund",
      "outputs": [
        {
          "internalType": "uint256",
          "name": "",
          "type": "uint256"
        }
      ],
      "stateMutability": "view",
      "type": "function"
    },
    {
      "inputs": [
        {
          "internalType": "address",
          "name": "",
          "type": "address"
        }
      ],
      "name": "remoteL1Tokens",
      "outputs": [
        {
          "internalType": "address",
          "name": "",
          "type": "address"
        }
      ],
      "stateMutability": "view",
      "type": "function"
    },
    {
      "inputs": [
        {
          "components": [
            {
              "internalType": "bytes32",
              "name": "depositor",
              "type": "bytes32"
            },
            {
              "internalType": "bytes32",
              "name": "recipient",
              "type": "bytes32"
            },
            {
              "internalType": "bytes32",
              "name": "exclusiveRelayer",
              "type": "bytes32"
            },
            {
              "internalType": "bytes32",
              "name": "inputToken",
              "type": "bytes32"
            },
            {
              "internalType": "bytes32",
              "name": "outputToken",
              "type": "bytes32"
            },
            {
              "internalType": "uint256",
              "name": "inputAmount",
              "type": "uint256"
            },
            {
              "internalType": "uint256",
              "name": "outputAmount",
              "type": "uint256"
            },
            {
              "internalType": "uint256",
              "name": "originChainId",
              "type": "uint256"
            },
            {
              "internalType": "uint256",
              "name": "depositId",
              "type": "uint256"
            },
            {
              "internalType": "uint32",
              "name": "fillDeadline",
              "type": "uint32"
            },
            {
              "internalType": "uint32",
              "name": "exclusivityDeadline",
              "type": "uint32"
            },
            {
              "internalType": "bytes",
              "name": "message",
              "type": "bytes"
            }
          ],
          "internalType": "struct V3SpokePoolInterface.V3RelayData",
          "name": "relayData",
          "type": "tuple"
        }
      ],
      "name": "requestSlowFill",
      "outputs": [],
      "stateMutability": "nonpayable",
      "type": "function"
    },
    {
      "inputs": [
        {
          "internalType": "uint256",
          "name": "",
          "type": "uint256"
        }
      ],
      "name": "rootBundles",
      "outputs": [
        {
          "internalType": "bytes32",
          "name": "slowRelayRoot",
          "type": "bytes32"
        },
        {
          "internalType": "bytes32",
          "name": "relayerRefundRoot",
          "type": "bytes32"
        }
      ],
      "stateMutability": "view",
      "type": "function"
    },
    {
      "inputs": [
        {
          "internalType": "address",
          "name": "newCrossDomainAdmin",
          "type": "address"
        }
      ],
      "name": "setCrossDomainAdmin",
      "outputs": [],
      "stateMutability": "nonpayable",
      "type": "function"
    },
    {
      "inputs": [
        {
          "internalType": "uint32",
          "name": "newl1Gas",
          "type": "uint32"
        }
      ],
      "name": "setL1GasLimit",
      "outputs": [],
      "stateMutability": "nonpayable",
      "type": "function"
    },
    {
      "inputs": [
        {
          "internalType": "address",
          "name": "l2Token",
          "type": "address"
        },
        {
          "internalType": "address",
          "name": "l1Token",
          "type": "address"
        }
      ],
      "name": "setRemoteL1Token",
      "outputs": [],
      "stateMutability": "nonpayable",
      "type": "function"
    },
    {
      "inputs": [
        {
          "internalType": "address",
          "name": "l2Token",
          "type": "address"
        },
        {
          "internalType": "address",
          "name": "tokenBridge",
          "type": "address"
        }
      ],
      "name": "setTokenBridge",
      "outputs": [],
      "stateMutability": "nonpayable",
      "type": "function"
    },
    {
      "inputs": [
        {
          "internalType": "address",
          "name": "newWithdrawalRecipient",
          "type": "address"
        }
      ],
      "name": "setWithdrawalRecipient",
      "outputs": [],
      "stateMutability": "nonpayable",
      "type": "function"
    },
    {
      "inputs": [
        {
          "internalType": "bytes32",
          "name": "depositor",
          "type": "bytes32"
        },
        {
          "internalType": "uint256",
          "name": "depositId",
          "type": "uint256"
        },
        {
          "internalType": "uint256",
          "name": "updatedOutputAmount",
          "type": "uint256"
        },
        {
          "internalType": "bytes32",
          "name": "updatedRecipient",
          "type": "bytes32"
        },
        {
          "internalType": "bytes",
          "name": "updatedMessage",
          "type": "bytes"
        },
        {
          "internalType": "bytes",
          "name": "depositorSignature",
          "type": "bytes"
        }
      ],
      "name": "speedUpDeposit",
      "outputs": [],
      "stateMutability": "nonpayable",
      "type": "function"
    },
    {
      "inputs": [
        {
          "internalType": "address",
          "name": "depositor",
          "type": "address"
        },
        {
          "internalType": "uint256",
          "name": "depositId",
          "type": "uint256"
        },
        {
          "internalType": "uint256",
          "name": "updatedOutputAmount",
          "type": "uint256"
        },
        {
          "internalType": "address",
          "name": "updatedRecipient",
          "type": "address"
        },
        {
          "internalType": "bytes",
          "name": "updatedMessage",
          "type": "bytes"
        },
        {
          "internalType": "bytes",
          "name": "depositorSignature",
          "type": "bytes"
        }
      ],
      "name": "speedUpV3Deposit",
      "outputs": [],
      "stateMutability": "nonpayable",
      "type": "function"
    },
    {
      "inputs": [
        {
          "internalType": "address",
          "name": "",
          "type": "address"
        }
      ],
      "name": "tokenBridges",
      "outputs": [
        {
          "internalType": "address",
          "name": "",
          "type": "address"
        }
      ],
      "stateMutability": "view",
      "type": "function"
    },
    {
      "inputs": [
        {
          "internalType": "bytes[]",
          "name": "data",
          "type": "bytes[]"
        }
      ],
      "name": "tryMulticall",
      "outputs": [
        {
          "components": [
            {
              "internalType": "bool",
              "name": "success",
              "type": "bool"
            },
            {
              "internalType": "bytes",
              "name": "returnData",
              "type": "bytes"
            }
          ],
          "internalType": "struct MultiCallerUpgradeable.Result[]",
          "name": "results",
          "type": "tuple[]"
        }
      ],
      "stateMutability": "nonpayable",
      "type": "function"
    },
    {
      "inputs": [
        {
          "internalType": "bytes32",
          "name": "depositor",
          "type": "bytes32"
        },
        {
          "internalType": "bytes32",
          "name": "recipient",
          "type": "bytes32"
        },
        {
          "internalType": "bytes32",
          "name": "inputToken",
          "type": "bytes32"
        },
        {
          "internalType": "bytes32",
          "name": "outputToken",
          "type": "bytes32"
        },
        {
          "internalType": "uint256",
          "name": "inputAmount",
          "type": "uint256"
        },
        {
          "internalType": "uint256",
          "name": "outputAmount",
          "type": "uint256"
        },
        {
          "internalType": "uint256",
          "name": "destinationChainId",
          "type": "uint256"
        },
        {
          "internalType": "bytes32",
          "name": "exclusiveRelayer",
          "type": "bytes32"
        },
        {
          "internalType": "uint256",
          "name": "depositNonce",
          "type": "uint256"
        },
        {
          "internalType": "uint32",
          "name": "quoteTimestamp",
          "type": "uint32"
        },
        {
          "internalType": "uint32",
          "name": "fillDeadline",
          "type": "uint32"
        },
        {
          "internalType": "uint32",
          "name": "exclusivityParameter",
          "type": "uint32"
        },
        {
          "internalType": "bytes",
          "name": "message",
          "type": "bytes"
        }
      ],
      "name": "unsafeDeposit",
      "outputs": [],
      "stateMutability": "payable",
      "type": "function"
    },
    {
      "inputs": [
        {
          "internalType": "address",
          "name": "newImplementation",
          "type": "address"
        }
      ],
      "name": "upgradeTo",
      "outputs": [],
      "stateMutability": "nonpayable",
      "type": "function"
    },
    {
      "inputs": [
        {
          "internalType": "address",
          "name": "newImplementation",
          "type": "address"
        },
        {
          "internalType": "bytes",
          "name": "data",
          "type": "bytes"
        }
      ],
      "name": "upgradeToAndCall",
      "outputs": [],
      "stateMutability": "payable",
      "type": "function"
    },
    {
      "inputs": [],
      "name": "usdcToken",
      "outputs": [
        {
          "internalType": "contract IERC20",
          "name": "",
          "type": "address"
        }
      ],
      "stateMutability": "view",
      "type": "function"
    },
    {
      "inputs": [],
      "name": "withdrawalRecipient",
      "outputs": [
        {
          "internalType": "address",
          "name": "",
          "type": "address"
        }
      ],
      "stateMutability": "view",
      "type": "function"
    },
    {
      "inputs": [],
      "name": "wrappedNativeToken",
      "outputs": [
        {
          "internalType": "contract WETH9Interface",
          "name": "",
          "type": "address"
        }
      ],
      "stateMutability": "view",
      "type": "function"
    },
    {
      "stateMutability": "payable",
      "type": "receive"
    }
  ],
  "numDeployments": 11,
  "solcInputHash": "fb6db3be4894773645e716a541cb72fe",
  "bytecode": "0x61018060409080825234620002c65760a081620058b28038038091620000268285620002ca565b833981010312620002c65780516001600160a01b038082169391849003620002c65760209162000058838501620002ee565b9162000066828601620002ee565b6060860151958287168703620002c657608001519382851697888603620002c6573060805260a05260c05260e0525f5460ff8160081c16620002c65760ff808216036200028d575b506101209485526101409283525f610100908152825163011a412160e61b8682019081526004825291976001600160401b03928286019190848311848410176200026f575f938493885251915afa943d1562000283573d9182116200026f5783519162000125601f8201601f1916830184620002ca565b82523d5f8284013e5b8562000263575b856200022e575b50505061016092835251926155b19485620003018639608051858181610f95015281816114b101526115dd015260a051858181610870015281816137160152818161387501528181613e9601528181614128015281816143f701528181614996015281816149bd0152614d16015260c0518581816117e5015281816136ca01526145b0015260e05185818161045e01526143a001525184818161198e0152818161530601526153b1015251838181610813015281816148550152818161504801526151e7015251828181611e8e0152818161493901528181614e1d015261520a015251818181611a8c01526152a60152f35b90919294508082519201519181811062000252575b5050161515915f80806200013c565b5f19910360031b1b165f8062000243565b81518114955062000135565b634e487b7160e01b5f52604160045260245ffd5b606091506200012e565b60ff90811916175f557f7f26b83ff96e1f2b6a682f133852f6798a09c465da95921460cefb384740249884835160ff8152a15f620000ae565b5f80fd5b601f909101601f19168101906001600160401b038211908210176200026f57604052565b519063ffffffff82168203620002c65756fe6080604052600436101561001a575b3615610018575f80fd5b005b5f3560e01c8063079bd2c71461042f5780630c5d5f731461042a5780630eaac9f0146104255780631186ec331461042057806311eac8551461041b57806315348e44146103b257806317fcb39b146104165780631b3d5559146104115780631fab657c1461040c57806329cb924d146104075780632e378115146104025780632e63e59a146103fd5780633659cfe6146103f8578063431023b8146103f3578063437b9116146103ee578063490e49ef146103e9578063493a4f84146103e45780634f1ef286146103df5780635285e058146103da57806352d1902d146103d5578063541f4f14146103d0578063577f51f8146103cb57806357f6dcb8146103c65780636068d6cb146103c1578063647c576c146103bc578063670fa8ac146103b75780636bbbcd2e146103b25780636e400983146103ad578063738b62e5146103a8578063766e0703146103a3578063775c0d031461039e5780637aef642c146103995780637b939232146103945780637ef413e11461038f57806382e2c43f1461038a5780638a7860ce146103855780638b15788e14610380578063927ede2d1461037b5780639748cf7c1461037657806397943aa914610371578063979f2bc21461036c57806399cc2968146103675780639a8a059214610362578063a1244c671461035d578063a18a096e14610358578063ac9650d814610353578063ad5425c61461034e578063adb5a6a6146102fe578063b27a430014610349578063b370b7f514610344578063babb6aac1461033f578063bf10268d1461033a578063c35c83fc14610335578063c7b0637014610330578063ceb4c9871461032b578063d7e1583a14610326578063dda5211314610321578063ddd224f11461031c578063de7eba7814610317578063deff4b2414610312578063e32292111461030d578063ea86bd4614610308578063ee2a53f814610303578063f79f29ed146102fe578063fbbba9ac146102f95763fc8a584f0361000e57612b31565b612aad565b61243e565b612a6f565b61296c565b612943565b61284e565b61281e565b6127f5565b6127cf565b612799565b61269f565b612671565b612646565b6125c2565b6124eb565b6124c4565b612485565b6122dd565b61223d565b6120d6565b6120af565b612095565b612000565b611f32565b611eb2565b611e6f565b611e41565b611dc3565b611d4b565b611c30565b611bf9565b611b51565b611ab1565b611a75565b611a51565b6119bc565b611972565b610837565b611938565b611861565b611809565b6117c9565b6116f0565b61162d565b6115c3565b61159c565b61146e565b6113e7565b6113c9565b6112fc565b61109f565b610f6d565b610d73565b610c13565b610bea565b610ae8565b6109df565b610851565b6107f4565b610753565b610506565b6104a0565b610442565b5f91031261043e57565b5f80fd5b3461043e575f36600319011261043e57602060405163ffffffff7f0000000000000000000000000000000000000000000000000000000000000000168152f35b6001600160a01b0381160361043e57565b359061049e82610482565b565b3461043e57602036600319011261043e5760206004356104bf81610482565b6001600160a01b038091165f52610c5d825260405f205416604051908152f35b63ffffffff81160361043e57565b610144359061049e826104df565b359061049e826104df565b3461043e57602036600319011261043e5763ffffffff600435610528816104df565b61053061353f565b610538613601565b16610c5a8163ffffffff198254161790557fe486a5c4bd7b36eabbfe274c99b39130277417be8d2209b4dae04c4fba64ee3a5f80a26001606555005b634e487b7160e01b5f52604160045260245ffd5b6040810190811067ffffffffffffffff8211176105a457604052565b610574565b6101a0810190811067ffffffffffffffff8211176105a457604052565b67ffffffffffffffff81116105a457604052565b6060810190811067ffffffffffffffff8211176105a457604052565b6080810190811067ffffffffffffffff8211176105a457604052565b6020810190811067ffffffffffffffff8211176105a457604052565b60e0810190811067ffffffffffffffff8211176105a457604052565b60a0810190811067ffffffffffffffff8211176105a457604052565b90601f8019910116810190811067ffffffffffffffff8211176105a457604052565b6040519060c0820182811067ffffffffffffffff8211176105a457604052565b60405190610180820182811067ffffffffffffffff8211176105a457604052565b6040519061049e826105a9565b6040519061049e826105f6565b67ffffffffffffffff81116105a457601f01601f191660200190565b92919261070b826106e3565b916107196040519384610666565b82948184528183011161043e578281602093845f960137010152565b9080601f8301121561043e57816020610750933591016106ff565b90565b61010036600319011261043e5760043561076c81610482565b60243561077881610482565b6084358060070b810361043e5760a43590610792826104df565b60c43567ffffffffffffffff811161043e576107b2903690600401610735565b926107bb613601565b60ff61086b5460e81c166107e2576107db9460643591604435913361367c565b6001606555005b604051630b4cba3160e31b8152600490fd5b3461043e575f36600319011261043e5760206040516001600160a01b037f0000000000000000000000000000000000000000000000000000000000000000168152f35b3461043e575f36600319011261043e5760206040515f8152f35b3461043e575f36600319011261043e5760206040516001600160a01b037f0000000000000000000000000000000000000000000000000000000000000000168152f35b67ffffffffffffffff81116105a45760051b60200190565b9080601f8301121561043e5760209082356108c681610894565b936108d46040519586610666565b81855260208086019260051b82010192831161043e57602001905b8282106108fd575050505090565b813581529083019083016108ef565b9080601f8301121561043e57602090823561092681610894565b936109346040519586610666565b81855260208086019260051b82010192831161043e57602001905b82821061095d575050505090565b838091833561096b81610482565b81520191019061094f565b929161098182610894565b9161098f6040519384610666565b829481845260208094019160051b810192831161043e57905b8282106109b55750505050565b813581529083019083016109a8565b9080601f8301121561043e5781602061075093359101610976565b60031960603682011261043e576004356109f8816104df565b60243567ffffffffffffffff9283821161043e5760c090823603011261043e57610a20610688565b908060040135825260248101356020830152604481013584811161043e57610a4e90600436918401016108ac565b6040830152610a5f606482016104fb565b6060830152610a7060848201610493565b608083015260a48101359084821161043e576004610a91923692010161090c565b60a082015260443592831161043e57610ab16100189336906004016109c4565b91612b61565b9181601f8401121561043e5782359167ffffffffffffffff831161043e576020808501948460051b01011161043e57565b3461043e5760031960603682011261043e5760043567ffffffffffffffff80821161043e5760608236039384011261043e5760243590610b27826104df565b60443590811161043e57610b3f903690600401610ab7565b919093610b4a613601565b600484013590610182190181121561043e57610be094610bdb93610b77610bd493600436918901016126bd565b95610b8d610b886080890151613bc2565b61386b565b610b9687613472565b9060446020890151916101608a015193610bae610688565b9a8b5260208b015201356040890152606088015260808701525f60a08701523691610976565b9083613bd8565b613d29565b6100186001606555565b3461043e575f36600319011261043e576020604051428152f35b908161018091031261043e5790565b3461043e57604036600319011261043e5760043567ffffffffffffffff811161043e57610c44903690600401610c04565b610c4d81612d59565b6001600160a01b031690610c6360208201612d59565b6001600160a01b031691610c7960408301612d59565b6001600160a01b0316610c8e60608401612d59565b6001600160a01b031692610ca460808201612d59565b6001600160a01b031690610100610cbc818301612d63565b9061012090610ccc848301612d63565b9261014094858101610cdd90612d63565b966101609a8b8301610cef9084612d6d565b9a909b610cfa6106a8565b9e8f91825260208201526040015260608d015260808c015260a081013560a08c015260c081013560c08c015260e0013560e08b015263ffffffff1690890152870190610d4b919063ffffffff169052565b63ffffffff909116908501523690610d62926106ff565b9082015233602435610018926134a3565b3461043e57602036600319011261043e576004803567ffffffffffffffff811161043e57610da49036908301610c04565b610dac613601565b60ff61086b5460e01c16610f5d5763ffffffff80421692610140830193610de581610dd687612d63565b63ffffffff9182169116101590565b610f4d57610120840192610df884612d63565b1610610f3e57610e10610e0b36856126bd565b613472565b90610e24825f5261087260205260405f2090565b54610f305750610e737f3cee3e290f36226751cd0b3321b213890fe9c768e922f267fa6111836ce05c3292610e6e610e68610e79945f5261087260205260405f2090565b60019055565b612d63565b93612d63565b610e99610e94610e8d610160860186612d6d565b36916106ff565b6141fe565b90610f236040519283926101008701359760e08801359760208101359281359260408301359260c08101359060a081013590606060808201359101358b9693909a999895919261012098959361014089019c895260208901526040880152606087015263ffffffff80921660808701521660a085015260c084015260e08301526101008201520152565b0390a36100186001606555565b604051624be79160e21b8152fd5b60405163d642b7d960e01b8152fd5b50604051630277ae7b60e21b8152fd5b50604051633d90fc5560e11b8152fd5b3461043e57602036600319011261043e57600435610f8a81610482565b6001600160a01b03807f00000000000000000000000000000000000000000000000000000000000000001680301461043e577f360894a13ba1a3210667c828492db98dca3e2076cc3735a920a3ca505d382bbc90828254160361043e57610fef61353f565b60405191610ffc83610612565b5f83527f4910fdfa16fed3260ed0e7147f7cc6da11a60208b5b9406d12a635614ffd91435460ff16156110355750505061001890614b55565b6020600491604051928380926352d1902d60e01b825288165afa5f918161106e575b50611060575f80fd5b0361043e5761001891614a3c565b61109191925060203d602011611098575b6110898183610666565b8101906139c5565b905f611057565b503d61107f565b3461043e57608036600319011261043e576004356110bc816104df565b602435906110c982610482565b6044356110d581610482565b606435916110e283610482565b60ff5f5460081c161561043e5761112990610c5a624c4b4063ffffffff1982541617905561086b9063ffffffff60c01b1963ffffffff60c01b83549260c01b169116179055565b6040519061113682610588565b6009825260208201916820a1a927a9a996ab1960b91b8352640312e302e360dc1b602060405161116581610588565b60058152015260ff5f5460081c161561043e57610018946111ca936111c59251902061047f557f06c015bd22b4c69690933c1058878ebdfef31f9aaae40bbe86d8a09fe1b2972c610480556111b86145d7565b6111c06145e6565b6145fa565b614654565b610c5a9077ffffffffffffffffffffffffffffffffffffffff000000001977ffffffffffffffffffffffffffffffffffffffff0000000083549260201b169116179055565b602060031982011261043e576004359067ffffffffffffffff821161043e5761123a91600401610ab7565b9091565b5f5b83811061124f5750505f910152565b8181015183820152602001611240565b906020916112788151809281855285808601910161123e565b601f01601f1916010190565b6020808201908083528351809252604092604081018260408560051b8401019601945f925b8584106112ba575050505050505090565b9091929394959685806112eb600193603f1986820301885286838d518051151584520151918185820152019061125f565b9901940194019295949391906112a9565b3461043e5761130a3661120f565b61131381610894565b9160406113236040519485610666565b828452601f1961133284610894565b015f5b8181106113a65750505f5b83811061135957604051806113558782611284565b0390f35b806113a061136960019388612dc3565b515f80611377858a8a612dd7565b90611386895180938193612dee565b0390305af490611394612dfb565b60208201529015159052565b01611340565b60209083516113b481610588565b5f815282606081830152828901015201611335565b3461043e575f36600319011261043e5760206040516301e133808152f35b3461043e57604036600319011261043e5760243560043561140661353f565b61140e613601565b61086c8054680100000000000000008110156105a45763ffffffff916001820190558361143a82612a30565b5084600182015555167fc86ba04c55bc5eb2f2876b91c438849a296dbec7b08751c3074d92e04f0a77af5f80a46001606555005b604036600319011261043e5760043561148681610482565b60243567ffffffffffffffff811161043e576114a6903690600401610735565b6001600160a01b03807f0000000000000000000000000000000000000000000000000000000000000000169081301461043e577f360894a13ba1a3210667c828492db98dca3e2076cc3735a920a3ca505d382bbc91818354160361043e5761150c61353f565b7f4910fdfa16fed3260ed0e7147f7cc6da11a60208b5b9406d12a635614ffd91435460ff16156115425750505061001890614b55565b6020600491604051928380926352d1902d60e01b825288165afa5f918161157b575b5061156d575f80fd5b0361043e5761001891614b04565b61159591925060203d602011611098576110898183610666565b905f611564565b3461043e575f36600319011261043e5760206001600160a01b036108695416604051908152f35b3461043e575f36600319011261043e576001600160a01b037f000000000000000000000000000000000000000000000000000000000000000016300361043e5760206040517f360894a13ba1a3210667c828492db98dca3e2076cc3735a920a3ca505d382bbc8152f35b61012036600319011261043e5760043561164681610482565b6024359061165382610482565b6044359161166083610482565b60a4358060070b810361043e5760c4359161167a836104df565b60e43567ffffffffffffffff811161043e5761169a903690600401610735565b936116a3613601565b60ff61086b5460e81c166107e2576107db95608435926064359261367c565b9181601f8401121561043e5782359167ffffffffffffffff831161043e576020838186019501011161043e57565b3461043e5760c036600319011261043e5760043561170d81610482565b6024356044359160643561172081610482565b67ffffffffffffffff9160843583811161043e576117429036906004016116c2565b60a49491943591821161043e577f45e04bc8f121ba11466985789ca2822a91109f31bb8ac85504a37b7eaf873c26946117826117c49336906004016116c2565b9290916001600160a01b038097166117b68a8c836117a13688886106ff565b916117ad368b8b6106ff565b9346908d614213565b604051978897169a87612e4a565b0390a3005b3461043e575f36600319011261043e57602060405163ffffffff7f0000000000000000000000000000000000000000000000000000000000000000168152f35b3461043e575f36600319011261043e57602060ff61086b5460e81c166040519015158152f35b606090600319011261043e57600435611847816104df565b9060243561185481610482565b9060443561075081610482565b3461043e5761186f3661182f565b5f54600881901c60ff161593929084908161192a575b811561190a575b501561043e576118b092846118a7600160ff195f5416175f55565b6118f357612e7d565b6118b657005b6118c461ff00195f54165f55565b604051600181527f7f26b83ff96e1f2b6a682f133852f6798a09c465da95921460cefb384740249890602090a1005b61190561010061ff00195f5416175f55565b612e7d565b303b1591508161191c575b505f61188c565b6001915060ff16145f611915565b600160ff8216109150611885565b3461043e575f36600319011261043e5760206040517f8d1994e2bbbd77564cdca06dd819e7ee2a5efa06c80dcb59a4a7b6e39edc538f8152f35b3461043e575f36600319011261043e57602060405163ffffffff7f0000000000000000000000000000000000000000000000000000000000000000168152f35b8015150361043e57565b3461043e57602036600319011261043e577fe88463c2f254e2b070013a2dc7ee1e099f9bc00534cbdf03af551dc26ae4921960206004356119fc816119b2565b611a0461353f565b611a0c613601565b151561086b80547fffff00ffffffffffffffffffffffffffffffffffffffffffffffffffffffffff60ff60e81b8460e81b169116179055604051908152a16001606555005b3461043e575f36600319011261043e57602063ffffffff610c5a5416604051908152f35b3461043e575f36600319011261043e5760206040517f000000000000000000000000000000000000000000000000000000000000000015158152f35b61016036600319011261043e57600435611aca81610482565b60243590611ad782610482565b604435611ae381610482565b60643590611af082610482565b60e435611afc81610482565b6101043590611b0a826104df565b6101243592611b18846104df565b610144359667ffffffffffffffff881161043e57611b3d6100189836906004016116c2565b97909660c4359360a4359360843593612fc3565b61018036600319011261043e57600435611b6a81610482565b60243590611b7782610482565b604435611b8381610482565b60643590611b9082610482565b60e435611b9c81610482565b61010435611ba9816104df565b6101243591611bb7836104df565b611bbf6104ed565b93610164359767ffffffffffffffff891161043e57611be56100189936906004016116c2565b98909760c4359360a4359360843593612fe5565b3461043e57606036600319011261043e576020611c28600435611c1b81610482565b6044359060243590613100565b604051908152f35b3461043e57606036600319011261043e5767ffffffffffffffff60243581811161043e57611c629036906004016116c2565b9160443590811161043e57611c7b9036906004016116c2565b9060405193602085019480611c924684888a61313c565b0395611ca6601f1997888101845283610666565b6004359151902003611d39575f94611cd5611cf793611ccc87611d03958a990190612773565b95810190613159565b519360405193849160208301966337bfd2c960e21b8852339160248501613221565b03908101835282610666565b5190305af4611d10612dfb565b9015611d1857005b60405163b8fe37a760e01b8152908190611d359060048301613243565b0390fd5b604051630f0c8f4760e11b8152600490fd5b3461043e57602036600319011261043e57600435611d6761353f565b611d6f613601565b611d7881612a30565b611db0576001815f80935501557f7c1af0646963afc3343245b103731965735a893347bfa0d58a5dc77a77ae691c5f80a26001606555005b634e487b7160e01b5f525f60045260245ffd5b6101a036600319011261043e5761012435611ddd816104df565b61014435611dea816104df565b6101643591611df8836104df565b610184359267ffffffffffffffff841161043e57611e1d6100189436906004016116c2565b9390926101043560e43560c43560a435608435606435604435602435600435613254565b3461043e575f36600319011261043e5760206040517342000000000000000000000000000000000000078152f35b3461043e575f36600319011261043e5760206040516001600160a01b037f0000000000000000000000000000000000000000000000000000000000000000168152f35b3461043e5760e036600319011261043e5767ffffffffffffffff60043581811161043e57611ee4903690600401610c04565b60a43582811161043e57611efc9036906004016116c2565b60c49291923593841161043e57611f1a6100189436906004016116c2565b939092608435906064359060443590602435906132cc565b3461043e57611f403661182f565b909160ff5f5460081c161561043e57611f769061086b9063ffffffff60c01b1963ffffffff60c01b83549260c01b169116179055565b604051611f8281610588565b6009815260208101926820a1a927a9a996ab1960b91b8452640312e302e360dc1b6020604051611fb181610588565b60058152015260ff5f5460081c161561043e57610018936111c59251902061047f557f06c015bd22b4c69690933c1058878ebdfef31f9aaae40bbe86d8a09fe1b2972c610480556111b86145d7565b3461043e57602036600319011261043e577f2d5b62420992e5a4afce0e77742636ca2608ef58289fd2e1baa5161ef6e7e41e6020600435612040816119b2565b61204861353f565b612050613601565b151561086b80547fffffff00ffffffffffffffffffffffffffffffffffffffffffffffffffffffff60ff60e01b8460e01b169116179055604051908152a16001606555005b3461043e575f36600319011261043e576020604051468152f35b3461043e575f36600319011261043e57602063ffffffff61086b5460c01c16604051908152f35b3461043e57604036600319011261043e576004356024356120f682614960565b6001600160a01b0382165f5261087360205261212560405f20336001600160a01b03165f5260205260405f2090565b549182156121c8575f61216c3361215661213e85613bc2565b6001600160a01b03165f5261087360205260405f2090565b906001600160a01b03165f5260205260405f2090565b556121988361218961217d84613bc2565b6001600160a01b031690565b61219285613bc2565b906146ae565b60405192835233927f6c172ea51018fb2eb2118f3f8a507c4df71eb519b8c0052834dc3c920182fef490602090a4005b6040516336542bf760e21b8152600490fd5b6020808201906020835283518092526040830192602060408460051b8301019501935f915b84831061220f5750505050505090565b909192939495848061222d600193603f198682030187528a5161125f565b98019301930191949392906121ff565b3461043e5761224b3661120f565b90612255826133b5565b915f5b81811061226d576040518061135586826121da565b5f8061227a838587612dd7565b9061228a60405180938193612dee565b0390305af4612297612dfb565b90156122bd57906001916122ab8287612dc3565b526122b68186612dc3565b5001612258565b604481511061043e5780600461043e9201516024809183010191016133fe565b6101808060031936011261043e57610104356122f8816104df565b6101243591612306836104df565b6101443592612314846104df565b6101643567ffffffffffffffff811161043e576123359036906004016116c2565b61233d613601565b61086b549260ff8460e81c166107e257610be096612402610e8d926123f463ffffffff6124109860c01c16996123986123758c61345d565b61086b9063ffffffff60c01b1963ffffffff60c01b83549260c01b169116179055565b6123a06106c9565b9a6004358c5260243560208d015260443560408d015260643560608d015260843560808d015260a43560a08d015260c43560c08d015260e43560e08d01526101008c01526101208b019063ffffffff169052565b63ffffffff16610140890152565b63ffffffff16610160870152565b90820152614345565b604090600319011261043e5760043561243181610482565b9060243561075081610482565b3461043e57602061247c6001600160a01b0361245936612419565b91165f52610873835260405f20906001600160a01b03165f5260205260405f2090565b54604051908152f35b3461043e57602036600319011261043e5760206004356124a481610482565b6001600160a01b038091165f52610c5c825260405f205416604051908152f35b3461043e575f36600319011261043e5760206001600160a01b0361086a5416604051908152f35b3461043e5760c036600319011261043e5760043560243567ffffffffffffffff60643560443560843583811161043e576125299036906004016116c2565b60a49491943591821161043e577f45e04bc8f121ba11466985789ca2822a91109f31bb8ac85504a37b7eaf873c26946125696125b89336906004016116c2565b929091612574613601565b61257d8a614960565b6125ac898b898961258f3688886106ff565b9261259b368b8b6106ff565b946001600160a01b03469216614213565b60405196879687612e4a565b0390a36001606555005b3461043e576125d036612419565b906125d961353f565b6125e1613601565b6001600160a01b0380911691825f52610c5d6020526126198160405f20906001600160a01b03166001600160a01b0319825416179055565b16907fcb84c2022106a6f2b6f805d446f32fbfd2a528474364fa755f37dac1c0c1b6c85f80a36001606555005b3461043e57602036600319011261043e576004355f52610872602052602060405f2054604051908152f35b3461043e575f36600319011261043e576020604051733b1ac69368eb6447f5db2d4e1641380fa9e40d298152f35b3461043e575f36600319011261043e57602060405163ffffffff8152f35b91906101808382031261043e576126d26106a8565b92803584526020810135602085015260408101356040850152606081013560608501526080810135608085015260a081013560a085015260c081013560c085015260e081013560e085015261010080820135908501526101206127368183016104fb565b908501526101406127488183016104fb565b90850152610160918282013567ffffffffffffffff811161043e5761276d9201610735565b90830152565b9060208282031261043e57813567ffffffffffffffff811161043e5761075092016126bd565b3461043e57602036600319011261043e5760043567ffffffffffffffff811161043e57611c28610e0b60209236906004016126bd565b3461043e575f36600319011261043e57602060ff61086b5460e01c166040519015158152f35b3461043e575f36600319011261043e5760206040516ec097ce7bc90715b34b9f10000000008152f35b3461043e57602036600319011261043e576107db60043561283e81610482565b61284661353f565b6111c0613601565b3461043e57606036600319011261043e5760043567ffffffffffffffff811161043e5761287f9036906004016126bd565b612887613601565b60ff61086b5460e01c166129315761014081015163ffffffff4281169116101580612912575b61290057806128be610be092613472565b60c0820151602083015190610160840151926128d8610688565b948552602085015260408401526060830152608082015260243560a082015260443590613f9d565b604051630c3a9b9d60e41b8152600490fd5b506129206040820151613bc2565b6001600160a01b03163314156128ad565b604051633d90fc5560e11b8152600490fd5b3461043e575f36600319011261043e576020610c5a546001600160a01b0360405191831c168152f35b6101608060031936011261043e5761010435612987816104df565b61012435612994816104df565b6101443567ffffffffffffffff811161043e576129b59036906004016116c2565b63ffffffff946129c88642169586612fa6565b936129d1613601565b61086b549160ff8360e81c166107e257612a04612a11966123f4610be09a610e8d9660c01c16996123986123758c61345d565b86019063ffffffff169052565b610180820152614345565b634e487b7160e01b5f52603260045260245ffd5b61086c908154811015612a6a576003915f52027f71cd7344f4eb2efc8e30291f6dbdb44d618ca368ea5425d217c1d604bf26b84d01905f90565b612a1c565b3461043e57602036600319011261043e5760043561086c5481101561043e57612a99604091612a30565b506001815491015482519182526020820152f35b3461043e57612abb36612419565b90612ac461353f565b612acc613601565b6001600160a01b0380911691825f52610c5c602052612b048160405f20906001600160a01b03166001600160a01b0319825416179055565b16907ff3dc137d2246f9b8abd0bb821e185ba01122c9b3ea3745ffca6208037674d6705f80a36001606555005b3461043e57602036600319011261043e576107db600435612b5181610482565b612b5961353f565b6111c5613601565b91612b6a613601565b6080820191612b83610b8884516001600160a01b031690565b602081019182514603612c8a57612bab612baf91836001612ba389612a30565b5001546138de565b1590565b612c78578060607ff4ad92585b1bc117fbdd644990adf0827bc4c95baeae8a23322af807b6d0020e920193612bf1612beb865163ffffffff1690565b87613970565b612c6b845194835193612c50612c42612c3160408401998a51612c188d5163ffffffff1690565b89516001600160a01b03169160a088019b8c51946139e1565b925193519851995163ffffffff1690565b94516001600160a01b031690565b945163ffffffff9586604051978897169b1699339487612d0b565b0390a461049e6001606555565b60405163582f497d60e11b8152600490fd5b604051633d23e4d160e11b8152600490fd5b9081518082526020808093019301915f5b828110612cbb575050505090565b835185529381019392810192600101612cad565b9081518082526020808093019301915f5b828110612cee575050505090565b83516001600160a01b031685529381019392810192600101612ce0565b9496959193612d2d60a095612d4b93885260c0602089015260c0880190612c9c565b906001600160a01b0380951660408801528682036060880152612ccf565b951515608085015216910152565b3561075081610482565b35610750816104df565b903590601e198136030182121561043e570180359067ffffffffffffffff821161043e5760200191813603831361043e57565b634e487b7160e01b5f52602160045260245ffd5b60031115612dbe57565b612da0565b8051821015612a6a5760209160051b010190565b90821015612a6a5761123a9160051b810190612d6d565b908092918237015f815290565b3d15612e25573d90612e0c826106e3565b91612e1a6040519384610666565b82523d5f602084013e565b606090565b908060209392818452848401375f828201840152601f01601f1916010190565b94929093612e6f92610750979587526020870152608060408701526080860191612e2a565b926060818503910152612e2a565b91909160ff5f5460081c161561043e57612ec790610c5a624c4b4063ffffffff1982541617905561086b9063ffffffff60c01b1963ffffffff60c01b83549260c01b169116179055565b604051612ed381610588565b6009815260208101926820a1a927a9a996ab1960b91b8452640312e302e360dc1b6020604051612f0281610588565b60058152015260ff5f5460081c161561043e57612f51936111c59251902061047f557f06c015bd22b4c69690933c1058878ebdfef31f9aaae40bbe86d8a09fe1b2972c610480556111b86145d7565b61049e610c5a77deaddeaddeaddeaddeaddeaddeaddeaddead00000000000077ffffffffffffffffffffffffffffffffffffffff0000000019825416179055565b634e487b7160e01b5f52601160045260245ffd5b91909163ffffffff80809416911601918211612fbe57565b612f92565b969492909161049e9b9a9998969492612fe363ffffffff42169889612fa6565b985b9593919b999897969492909b612ff9613601565b61086b549660ff8860e81c166107e2578760c01c63ffffffff1661301c9061345d565b6130439061086b9063ffffffff60c01b1963ffffffff60c01b83549260c01b169116179055565b61304b6106c9565b9d6001600160a01b038f921682526001600160a01b031690602001526001600160a01b031660408d01526001600160a01b031660608c015260808b015260a08a015260c08901526001600160a01b031660e088015260c01c63ffffffff166101008701526101208601906130c4919063ffffffff169052565b63ffffffff1661014085015263ffffffff1661016084015236906130e7926106ff565b6101808201526130f690614345565b61049e6001606555565b916040519160208301936bffffffffffffffffffffffff199060601b1684526034830152605482015260548152613136816105f6565b51902090565b93929160209161315491604087526040870191612e2a565b930152565b9081602091031261043e57604051906020820182811067ffffffffffffffff8211176105a45760405235815290565b6107509161018090825181526020830151602082015260408301516040820152606083015160608201526080830151608082015260a083015160a082015260c083015160c082015260e083015160e082015261010080840151908201526131fd610120808501519083019063ffffffff169052565b6101408381015163ffffffff1690820152816101608094015193820152019061125f565b61323960409295949395606083526060830190613188565b9460208201520152565b90602061075092818152019061125f565b9c9a9998979695949392919096613269613601565b60ff61086b5460e81c166107e257613282908e33613100565b96604051809e613291826105a9565b81526020015260408d015260608c015260808b015260a08a015260c089015260e088015261010087015263ffffffff166101208601526130c4565b9792909593919694976132dd613601565b60ff61086b5460e01c16612931576132f86101408201612d63565b63ffffffff8042169116101580613396575b6129005761337f613391966133776130f69b613329610e0b36876126bd565b9a613332610688565b9b61333d36886126bd565b8d5260208d01528660408d01528760608d015261335b368b846106ff565b60808d015260a08c015261336f8535613bc2565b9836916106ff565b9536916106ff565b9461010060e083013592013590614213565b613f9d565b506133a46040820135613bc2565b6001600160a01b031633141561330a565b906133bf82610894565b6133cc6040519182610666565b82815280926133dd601f1991610894565b01905f5b8281106133ed57505050565b8060606020809385010152016133e1565b60208183031261043e5780519067ffffffffffffffff821161043e570181601f8201121561043e578051613431816106e3565b9261343f6040519485610666565b8184526020828401011161043e57610750916020808501910161123e565b63ffffffff809116908114612fbe5760010190565b6040516131368161348f6020820194604086526060830190613188565b46604083015203601f198101835282610666565b9190916134ae613601565b60ff61086b5460e01c166129315761014081015163ffffffff4281169116101580613520575b612900576130f6926134e582613472565b60c0830151602084015190610160850151926134ff610688565b958652602086015260408501526060840152608083015260a0820152613f9d565b5061352e6040820151613bc2565b6001600160a01b03163314156134d4565b7342000000000000000000000000000000000000078033036135ef57602060049160405192838092636e296e4560e01b82525afa9081156135ea575f916135bb575b506001600160a01b036135a061217d610869546001600160a01b031690565b9116036135a957565b6040516336a816d960e01b8152600490fd5b6135dd915060203d6020116135e3575b6135d58183610666565b8101906146f6565b5f613581565b503d6135cb565b61361f565b60405163253a6fc960e11b8152600490fd5b60026065541461043e576002606555565b91908203918211612fbe57565b6040513d5f823e3d90fd5b926107509695929491946101409585525f60208601526040850152606084015263ffffffff809116608084015260a08301525f60c083015260e08201525f61010082015281610120820152019061125f565b9193949690959660070b906706f05b59d3b200006136998361470b565b1015613859576ec097ce7bc90715b34b9f100000000084116138475763ffffffff936136c7858a1642613612565b857f000000000000000000000000000000000000000000000000000000000000000016106138355761086b5460c01c63ffffffff16986137096123758b61345d565b6001600160a01b039586807f0000000000000000000000000000000000000000000000000000000000000000169816928884148061382c575b156137f0578034036137de57883b1561043e575f6004996040519a8b8092630d0e30db60e41b825234905af19889156135ea576137ad6137c0978a927f32ed1a409ef04c7b0227189c3a103dc5ac10e775a15b785dcc510201f7c25ad39c6137c5575b505b83614759565b92604051998a99169d169b16938761362a565b0390a4565b806137d26137d8926105c6565b80610434565b5f6137a5565b604051636452a35d60e01b8152600490fd5b7f32ed1a409ef04c7b0227189c3a103dc5ac10e775a15b785dcc510201f7c25ad39850876137ad6137c0976138278430338a61471a565b6137a7565b50341515613742565b60405163f722177f60e01b8152600490fd5b60405163622db5a960e11b8152600490fd5b60405163284f109760e21b8152600490fd5b6001600160a01b037f00000000000000000000000000000000000000000000000000000000000000008116911681146138a2575b50565b476138aa5750565b4790803b1561043e575f90600460405180948193630d0e30db60e41b83525af180156135ea571561389f5761049e906105c6565b610750929160405161396781613959602082019460208652805160408401526020810151606084015260a0613923604083015160c06080870152610100860190612c9c565b606083015163ffffffff168583015260808301516001600160a01b031660c0860152910151838203603f190160e0850152612ccf565b03601f198101835282610666565b5190209161478f565b61397b600291612a30565b500162ffffff8260081c16805f5281602052600160ff60405f205494161b80809416146139b3575f5260205260405f20908154179055565b60405163954476d960e01b8152600490fd5b9081602091031261043e575190565b91908201809211612fbe57565b91959495939092935f9681519081815103613bb05781613a60575b50505082613a0b575b50505050565b6001600160a01b0381613a3f7ffa7fa7cf6d7dde5f9be65a67e6a1a747e7aa864dcd2d793353c722d80fbbb3579386614852565b6040805195865233602087015291169463ffffffff1693a45f808080613a05565b604080516370a0823160e01b81523060048083019190915291906020816024816001600160a01b038b165afa9081156135ea575f91613b91575b505f805b868110613aaf5750505050506139fc565b613ab98189612dc3565b51613ac7575b600101613a9e565b90613add90613ad6838a612dc3565b51906139d4565b90828211613b8157613b17612bab613b05613af8848a612dc3565b516001600160a01b031690565b613b0f848c612dc3565b51908c6147e0565b15613abf579c5087613b77613b6f8f613b5a613af8613b53613b39848f612dc3565b51966001600160a01b03165f5261087360205260405f2090565b928b612dc3565b6001600160a01b03165f5260205260405f2090565b9182546139d4565b905560019c613abf565b50505051632ddaa83160e11b8152fd5b613baa915060203d602011611098576110898183610666565b5f613a9a565b6040516319a5316760e31b8152600490fd5b6001600160a01b0390613bd481614960565b1690565b91612bab90613c5192845160408096015191865191613bf6836105da565b8252613967613c116020840192468452898501958652612a30565b5054938851928391613c366020840196602088525160608d86015260a0850190613188565b9151606084015251608083015203601f198101835282610666565b613c585750565b5163582f497d60e11b8152600490fd5b613c7182612db4565b52565b9a989693919c9b9997959492909c6101e08c019d8c5260208c015260408b015260608a0152608089015263ffffffff80921660a08901521660c087015260e08601526101008501526101208401526101408301528051610160830152602081015161018083015260408101516101a08301526060015190613cf482612db4565b6101c00152565b9061075094936080936001600160a01b0380931684526020840152166040820152816060820152019061125f565b905f82516101208101613d40815163ffffffff1690565b63ffffffff42911610613f8b576020850151906002613d68835f5261087260205260405f2090565b5414613f7957613d8286925f5261087260205260405f2090565b6002905560608301519060808401519160a08501519260c0860151918560a0810151938860e0810151956101008201519751613dc19063ffffffff1690565b61014083015163ffffffff166040840151918451936020860151956101600151613dea906141fe565b966060890151986080019e8f51613e00906141fe565b906040015190613e0e6106d6565b9a8b5260208b015260408a0152600260608a01526040519d8e9b613e329b8d613c74565b037f44b559f101f8fbcc8a0ea43fa91a05a729a5ea6e14a7c75aa750374690137208905f94a46080820151613e6690613bc2565b9060408601519560600151613e7a90613bc2565b9260800151613e8890613bc2565b6001600160a01b03919082167f0000000000000000000000000000000000000000000000000000000000000000831603613f645784613f51575b613ece8783861661497b565b51928351151580613f47575b613ee8575b50505050509050565b1690813b15613f435783613f16959660405196879586948593633a5be8cb60e01b8552339160048601613cfb565b03925af180156135ea57613f30575b808080808594613edf565b806137d2613f3d926105c6565b5f613f25565b8380fd5b50803b1515613eda565b613f5f87303385871661471a565b613ec2565b5f9450613f7487858585166146ae565b613ece565b604051630479306360e51b8152600490fd5b60405163d642b7d960e01b8152600490fd5b8051916101208301613fb3815163ffffffff1690565b63ffffffff42911610613f8b5760208301516001613fda825f5261087260205260405f2090565b54036141f7576001905b6002613ff9825f5261087260205260405f2090565b5414613f795761401561401b915f5261087260205260405f2090565b60029055565b7f44b559f101f8fbcc8a0ea43fa91a05a729a5ea6e14a7c75aa75037469013720860608601516080870151906140e88760a08a0151958a60c08101519760a08401519860e0830151996140786101008501519c5163ffffffff1690565b61014085015163ffffffff16916040860151938651956140dc6140a461016060208b01519a01516141fe565b9960608c01519b60406140ba60808301516141fe565b9101519060206140c86106d6565b9e8f528e015260408d015260608c01613c68565b6040519c8d9c8d613c74565b0390a46140f86080830151613bc2565b91604082015191608061411a816141126060850151613bc2565b940151613bc2565b6001600160a01b03929083167f00000000000000000000000000000000000000000000000000000000000000008416036141e45761415c853033868a1661471a565b6141688584861661497b565b01519182511515806141da575b614181575b5050505050565b16803b1561043e576141af935f809460405196879586948593633a5be8cb60e01b8552339160048601613cfb565b03925af180156135ea576141c7575b8080808061417a565b806137d26141d4926105c6565b5f6141be565b50803b1515614175565b6141f2858533868a1661471a565b614168565b5f90613fe4565b8051908161420c5750505f90565b6020012090565b939260429361049e979660208151910120906040519260208401947f8d1994e2bbbd77564cdca06dd819e7ee2a5efa06c80dcb59a4a7b6e39edc538f86526040850152856060850152608084015260a083015260c082015260c081526142788161062e565b5190209061047f549061048054906040519160208301937fc2f8787176b8ac6bf7215b4adcc1e069bf4ab82d9ab1df05a57a91d425935b6e8552604084015260608301526080820152608081526142ce8161064a565b519020906040519161190160f01b8352600283015260228201522090614b98565b96926107509a9996949198959261014099895260208901526040880152606087015263ffffffff928380921660808801521660a08601521660c084015260e083015261010082015281610120820152019061125f565b61434f8151614960565b610120810161436e614365825163ffffffff1690565b63ffffffff1690565b80421090811561459e575b5061383557610140820191614392835163ffffffff1690565b9063ffffffff91826143c6817f000000000000000000000000000000000000000000000000000000000000000016426139d4565b91161161458c5761016081015163ffffffff169180831680614547575b505060408101908151916001600160a01b037f0000000000000000000000000000000000000000000000000000000000000000168093148061453e575b156144f157608082015134036137de57823b1561043e575f60049360405194858092630d0e30db60e41b825234905af19283156135ea577f32ed1a409ef04c7b0227189c3a103dc5ac10e775a15b785dcc510201f7c25ad3936144de575b505b516137c060608301519260808101519060a081015160c0820151976144bd6144b26101008501519b5163ffffffff1690565b9b5163ffffffff1690565b83519b60208501519361018060e0870151960151966040519a8b9a8b6142ef565b806137d26144eb926105c6565b5f61447e565b9150346137de578161453961452a61217d7f32ed1a409ef04c7b0227189c3a103dc5ac10e775a15b785dcc510201f7c25ad39551613bc2565b6080840151903090339061471a565b614480565b50341515614420565b6301e133801015614577575b5060e081015115614565575f806143e3565b60405163495d907f60e01b8152600490fd5b916145859192421690612fa6565b905f614553565b60405163582e388960e01b8152600490fd5b6145a9915042613612565b63ffffffff7f000000000000000000000000000000000000000000000000000000000000000016105f614379565b60ff5f5460081c161561043e57565b60ff5f5460081c161561043e576001606555565b6001600160a01b0316801561464257610869816001600160a01b03198254161790557fa9e8c42c9e7fca7f62755189a16b2f5314d43d8fb24e91ba54e6d65f9314e8495f80a2565b60405163ba97b39d60e01b8152600490fd5b6001600160a01b0316801561469c5761086a816001600160a01b03198254161790557fa73e8909f8616742d7fe701153d82666f7b7cd480552e23ebb05d358c22fd04e5f80a2565b604051635b03092b60e11b8152600490fd5b60405163a9059cbb60e01b60208201526001600160a01b039092166024830152604482019290925261049e916146f182606481015b03601f198101845283610666565b614c76565b9081602091031261043e575161075081610482565b5f81126147155790565b5f0390565b909261049e93604051936323b872dd60e01b60208601526001600160a01b0380921660248601521660448401526064830152606482526146f18261064a565b90670de0b6b3a7640000915f828403921283831281169084841390151617612fbe57818102918183041490151715612fbe570490565b929091905f915b84518310156147d8576147a98386612dc3565b5190818110156147c7575f52602052600160405f205b920191614796565b905f52602052600160405f206147bf565b915092501490565b60405163a9059cbb60e01b60208281019182526001600160a01b039094166024830152604482019490945290925f9161481c8160648101613959565b519082855af1903d5f519083614833575b50505090565b9192509061484857503b15155b5f808061482d565b6001915014614840565b907f0000000000000000000000000000000000000000000000000000000000000000906001600160a01b03808316818316149081614935575b501561492a57508161489c9161506f565b61086a546001600160a01b0316610c5a5463ffffffff16733b1ac69368eb6447f5db2d4e1641380fa9e40d29803b1561043e5760405163262cc5ab60e11b81526001600160a01b039093166004840152602483019390935263ffffffff166044820152905f908290818381606481015b03925af180156135ea5761491d5750565b806137d261049e926105c6565b905061049e91614d06565b90507f000000000000000000000000000000000000000000000000000000000000000016155f61488b565b60a01c61496957565b6040516379ec0ed760e11b8152600490fd5b6001600160a01b0390811690813b156149bb579061049e92917f0000000000000000000000000000000000000000000000000000000000000000166146ae565b7f000000000000000000000000000000000000000000000000000000000000000016803b1561043e575f8091602460405180948193632e1a7d4d60e01b83528860048401525af180156135ea57614a2d575b5081471061043e575f80809381935af1614a25612dfb565b501561043e57565b614a36906105c6565b5f614a0d565b614a4581614b55565b6001600160a01b0381167fbc7cd75a20ee27fd9adebab32041f755214dbc6bffa90cc0225b39da2e5c2d3b5f80a2815115801590614afd575b614a86575050565b5f8061389f937f206661696c65640000000000000000000000000000000000000000000000000060408051614aba816105da565b602781527f416464726573733a206c6f772d6c6576656c2064656c65676174652063616c6c60208201520152602081519101845af4614af7612dfb565b916154d7565b505f614a7e565b614b0d81614b55565b6001600160a01b0381167fbc7cd75a20ee27fd9adebab32041f755214dbc6bffa90cc0225b39da2e5c2d3b5f80a2815115801590614b4d57614a86575050565b506001614a7e565b803b1561043e576001600160a01b037f360894a13ba1a3210667c828492db98dca3e2076cc3735a920a3ca505d382bbc91166001600160a01b0319825416179055565b614ba28383615486565b6005819592951015612dbe57159384614c60575b508315614bda575b50505015614bc857565b60405163938a182160e01b8152600490fd5b5f929350908291604051614c12816139596020820194630b135d3f60e11b998a8752602484015260406044840152606483019061125f565b51915afa90614c1f612dfb565b82614c52575b82614c35575b50505f8080614bbe565b614c4a919250602080825183010191016139c5565b145f80614c2b565b915060208251101591614c25565b6001600160a01b0383811691161493505f614bb6565b905f806001600160a01b03614ccd9416927f5361666545524332303a206c6f772d6c6576656c2063616c6c206661696c65646020604051614cb681610588565b818152015260208151910182855af1614af7612dfb565b8051908115918215614ce3575b50501561043e57565b819250906020918101031261043e5760200151614cff816119b2565b5f80614cda565b906001600160a01b0390818116907f000000000000000000000000000000000000000000000000000000000000000083168203614e195750803b1561043e57604051632e1a7d4d60e01b815260048101849052905f908290602490829084905af180156135ea57614e06575b50610c5a5491614d8b61086a546001600160a01b031690565b73420000000000000000000000000000000000001090813b1561043e57604051631474f2a960e31b81526001600160a01b03602087901c90951685166004820152931660248401526044830182905263ffffffff909316606483015260a060848301525f60a483018190529192839182908160c4810161490c565b806137d2614e13926105c6565b5f614d72565b91807f000000000000000000000000000000000000000000000000000000000000000016151580615044575b15614e695750505061049e90614e6461086a546001600160a01b031690565b6151d9565b80614e96614e89856001600160a01b03165f52610c5c60205260405f2090565b546001600160a01b031690565b16615020577342000000000000000000000000000000000000105b1690614ed561217d614e89856001600160a01b03165f52610c5d60205260405f2090565b15614f9a578382614ee59261512c565b614f04614e89836001600160a01b03165f52610c5d60205260405f2090565b90614f1861086a546001600160a01b031690565b91614f29610c5a5463ffffffff1690565b823b1561043e5760405163540abf7360e01b81526001600160a01b0395861660048201529185166024830152929093166044840152606483019390935263ffffffff16608482015260c060a48201525f60c482018190529091829060e490829084905af180156135ea5761491d5750565b5091614faf61086a546001600160a01b031690565b92614fc0610c5a5463ffffffff1690565b93813b1561043e57604051631474f2a960e31b81526001600160a01b03948516600482015293166024840152604483019190915263ffffffff909216606482015260a060848201525f60a482018190529091829081838160c4810161490c565b61503f614e89846001600160a01b03165f52610c5c60205260405f2090565b614eb1565b50807f0000000000000000000000000000000000000000000000000000000000000000168214614e45565b604051636eb1769f60e11b8152306004820152733b1ac69368eb6447f5db2d4e1641380fa9e40d29602482015290916020826044816001600160a01b0387165afa9182156135ea575f9261510b575b508101809111612fbe5760405163095ea7b360e01b6020820152733b1ac69368eb6447f5db2d4e1641380fa9e40d296024820152604481019190915261049e916146f182606481016146e3565b61512591925060203d602011611098576110898183610666565b905f6150be565b604051636eb1769f60e11b81523060048201526001600160a01b03831660248201529192602083806044810103816001600160a01b0386165afa9283156135ea575f936151b8575b508201809211612fbe5760405163095ea7b360e01b60208201526001600160a01b039093166024840152604483019190915261049e91906146f182606481016146e3565b6151d291935060203d602011611098576110898183610666565b915f615174565b906001600160a01b038092167f000000000000000000000000000000000000000000000000000000000000000090837f0000000000000000000000000000000000000000000000000000000000000000169361523684868561512c565b604094604051926332dd704760e21b84526020956004948781600481875afa9687156135ea5788915f98615465575b506040516352b7631960e11b81529086166001600160a01b03811660048301529097909588916024918391165afa9586156135ea575f96615446575b5095867f0000000000000000000000000000000000000000000000000000000000000000975b6152d657505050505050505050565b8681111561544057865b881561539857843b1561043e578951634701287760e11b815287810182815263ffffffff7f0000000000000000000000000000000000000000000000000000000000000000166020820152604081018690526001600160a01b03881660608201525f6080820181905260a082018190526107d060c0830152919391908490819060e0010381838a5af19283156135ea5761537f93615385575b50613612565b806152c7565b806137d2615392926105c6565b5f615379565b89516337e9a82760e11b815287810182815263ffffffff7f0000000000000000000000000000000000000000000000000000000000000000166020820152604081018690526001600160a01b038816606082015290929084908490819060800103815f8a5af19283156135ea5761537f936154135750613612565b61543290853d8711615439575b61542a8183610666565b8101906154b7565b505f615379565b503d615420565b806152e0565b61545e919650873d8911611098576110898183610666565b945f6152a1565b8691985061547f90833d85116135e3576135d58183610666565b9790615265565b9060418151145f146154ae5761123a91602082015190606060408401519301515f1a90615500565b50505f90600290565b9081602091031261043e575167ffffffffffffffff8116810361043e5790565b90156154f1578151156154e8575090565b3b1561043e5790565b50805190811561043e57602001fd5b7f7fffffffffffffffffffffffffffffff5d576e7357a4501ddfe92f46681b20a08411615570576020935f9360ff60809460405194855216868401526040830152606082015282805260015afa156135ea575f516001600160a01b0381161561556857905f90565b505f90600190565b505050505f9060039056fea26469706673582212203e22cb9a844801dbebfe8d8da5d6c45458c90c944752e5475cb13c1a3ce2325564736f6c63430008170033"
}