{
  "address": "0x5D834948E9Aed31D9955346269A346Baa007B2eA",
  "abi": [
    {
      "inputs": [
        {
          "internalType": "address",
          "name": "_wrappedNativeTokenAddress",
          "type": "address"
        },
        {
          "internalType": "uint32",
          "name": "_depositQuoteTimeBuffer",
          "type": "uint32"
        },
        {
          "internalType": "uint32",
          "name": "_fillDeadlineBuffer",
          "type": "uint32"
        },
        {
          "internalType": "contract IERC20",
          "name": "_l2Usdc",
          "type": "address"
        },
        {
          "internalType": "contract ITokenMessenger",
          "name": "_cctpTokenMessenger",
          "type": "address"
        }
      ],
      "stateMutability": "nonpayable",
      "type": "constructor"
    },
    {
      "inputs": [],
      "name": "ClaimedMerkleLeaf",
      "type": "error"
    },
    {
      "inputs": [],
      "name": "DepositsArePaused",
      "type": "error"
    },
    {
      "inputs": [],
      "name": "DisabledRoute",
      "type": "error"
    },
    {
      "inputs": [],
      "name": "ExpiredFillDeadline",
      "type": "error"
    },
    {
      "inputs": [],
      "name": "FillsArePaused",
      "type": "error"
    },
    {
      "inputs": [],
      "name": "InvalidChainId",
      "type": "error"
    },
    {
      "inputs": [],
      "name": "InvalidCrossDomainAdmin",
      "type": "error"
    },
    {
      "inputs": [],
      "name": "InvalidDepositorSignature",
      "type": "error"
    },
    {
      "inputs": [],
      "name": "InvalidExclusivityDeadline",
      "type": "error"
    },
    {
      "inputs": [],
      "name": "InvalidFillDeadline",
      "type": "error"
    },
    {
      "inputs": [],
      "name": "InvalidMerkleLeaf",
      "type": "error"
    },
    {
      "inputs": [],
      "name": "InvalidMerkleProof",
      "type": "error"
    },
    {
      "inputs": [],
      "name": "InvalidPayoutAdjustmentPct",
      "type": "error"
    },
    {
      "inputs": [],
      "name": "InvalidQuoteTimestamp",
      "type": "error"
    },
    {
      "inputs": [],
      "name": "InvalidRelayerFeePct",
      "type": "error"
    },
    {
      "inputs": [],
      "name": "InvalidSlowFillRequest",
      "type": "error"
    },
    {
      "inputs": [],
      "name": "InvalidWithdrawalRecipient",
      "type": "error"
    },
    {
      "inputs": [
        {
          "internalType": "bytes",
          "name": "data",
          "type": "bytes"
        }
      ],
      "name": "LowLevelCallFailed",
      "type": "error"
    },
    {
      "inputs": [],
      "name": "MaxTransferSizeExceeded",
      "type": "error"
    },
    {
      "inputs": [],
      "name": "MsgValueDoesNotMatchInputAmount",
      "type": "error"
    },
    {
      "inputs": [],
      "name": "NoSlowFillsInExclusivityWindow",
      "type": "error"
    },
    {
      "inputs": [],
      "name": "NotCrossChainCall",
      "type": "error"
    },
    {
      "inputs": [],
      "name": "NotCrossDomainAdmin",
      "type": "error"
    },
    {
      "inputs": [],
      "name": "NotEOA",
      "type": "error"
    },
    {
      "inputs": [],
      "name": "NotExclusiveRelayer",
      "type": "error"
    },
    {
      "inputs": [],
      "name": "RelayFilled",
      "type": "error"
    },
    {
      "inputs": [],
      "name": "WrongERC7683OrderId",
      "type": "error"
    },
    {
      "anonymous": false,
      "inputs": [
        {
          "indexed": false,
          "internalType": "address",
          "name": "previousAdmin",
          "type": "address"
        },
        {
          "indexed": false,
          "internalType": "address",
          "name": "newAdmin",
          "type": "address"
        }
      ],
      "name": "AdminChanged",
      "type": "event"
    },
    {
      "anonymous": false,
      "inputs": [
        {
          "indexed": true,
          "internalType": "address",
          "name": "beacon",
          "type": "address"
        }
      ],
      "name": "BeaconUpgraded",
      "type": "event"
    },
    {
      "anonymous": false,
      "inputs": [
        {
          "indexed": true,
          "internalType": "uint256",
          "name": "rootBundleId",
          "type": "uint256"
        }
      ],
      "name": "EmergencyDeleteRootBundle",
      "type": "event"
    },
    {
      "anonymous": false,
      "inputs": [
        {
          "indexed": true,
          "internalType": "address",
          "name": "originToken",
          "type": "address"
        },
        {
          "indexed": true,
          "internalType": "uint256",
          "name": "destinationChainId",
          "type": "uint256"
        },
        {
          "indexed": false,
          "internalType": "bool",
          "name": "enabled",
          "type": "bool"
        }
      ],
      "name": "EnabledDepositRoute",
      "type": "event"
    },
    {
      "anonymous": false,
      "inputs": [
        {
          "indexed": false,
          "internalType": "uint256",
          "name": "amountToReturn",
          "type": "uint256"
        },
        {
          "indexed": true,
          "internalType": "uint256",
          "name": "chainId",
          "type": "uint256"
        },
        {
          "indexed": false,
          "internalType": "uint256[]",
          "name": "refundAmounts",
          "type": "uint256[]"
        },
        {
          "indexed": true,
          "internalType": "uint32",
          "name": "rootBundleId",
          "type": "uint32"
        },
        {
          "indexed": true,
          "internalType": "uint32",
          "name": "leafId",
          "type": "uint32"
        },
        {
          "indexed": false,
          "internalType": "address",
          "name": "l2TokenAddress",
          "type": "address"
        },
        {
          "indexed": false,
          "internalType": "address[]",
          "name": "refundAddresses",
          "type": "address[]"
        },
        {
          "indexed": false,
          "internalType": "address",
          "name": "caller",
          "type": "address"
        }
      ],
      "name": "ExecutedRelayerRefundRoot",
      "type": "event"
    },
    {
      "anonymous": false,
      "inputs": [
        {
          "indexed": false,
          "internalType": "address",
          "name": "inputToken",
          "type": "address"
        },
        {
          "indexed": false,
          "internalType": "address",
          "name": "outputToken",
          "type": "address"
        },
        {
          "indexed": false,
          "internalType": "uint256",
          "name": "inputAmount",
          "type": "uint256"
        },
        {
          "indexed": false,
          "internalType": "uint256",
          "name": "outputAmount",
          "type": "uint256"
        },
        {
          "indexed": false,
          "internalType": "uint256",
          "name": "repaymentChainId",
          "type": "uint256"
        },
        {
          "indexed": true,
          "internalType": "uint256",
          "name": "originChainId",
          "type": "uint256"
        },
        {
          "indexed": true,
          "internalType": "uint32",
          "name": "depositId",
          "type": "uint32"
        },
        {
          "indexed": false,
          "internalType": "uint32",
          "name": "fillDeadline",
          "type": "uint32"
        },
        {
          "indexed": false,
          "internalType": "uint32",
          "name": "exclusivityDeadline",
          "type": "uint32"
        },
        {
          "indexed": false,
          "internalType": "address",
          "name": "exclusiveRelayer",
          "type": "address"
        },
        {
          "indexed": true,
          "internalType": "address",
          "name": "relayer",
          "type": "address"
        },
        {
          "indexed": false,
          "internalType": "address",
          "name": "depositor",
          "type": "address"
        },
        {
          "indexed": false,
          "internalType": "address",
          "name": "recipient",
          "type": "address"
        },
        {
          "indexed": false,
          "internalType": "bytes",
          "name": "message",
          "type": "bytes"
        },
        {
          "components": [
            {
              "internalType": "address",
              "name": "updatedRecipient",
              "type": "address"
            },
            {
              "internalType": "bytes",
              "name": "updatedMessage",
              "type": "bytes"
            },
            {
              "internalType": "uint256",
              "name": "updatedOutputAmount",
              "type": "uint256"
            },
            {
              "internalType": "enum V3SpokePoolInterface.FillType",
              "name": "fillType",
              "type": "uint8"
            }
          ],
          "indexed": false,
          "internalType": "struct V3SpokePoolInterface.V3RelayExecutionEventInfo",
          "name": "relayExecutionInfo",
          "type": "tuple"
        }
      ],
      "name": "FilledV3Relay",
      "type": "event"
    },
    {
      "anonymous": false,
      "inputs": [
        {
          "indexed": false,
          "internalType": "uint8",
          "name": "version",
          "type": "uint8"
        }
      ],
      "name": "Initialized",
      "type": "event"
    },
    {
      "anonymous": false,
      "inputs": [
        {
          "indexed": false,
          "internalType": "bool",
          "name": "isPaused",
          "type": "bool"
        }
      ],
      "name": "PausedDeposits",
      "type": "event"
    },
    {
      "anonymous": false,
      "inputs": [
        {
          "indexed": false,
          "internalType": "bool",
          "name": "isPaused",
          "type": "bool"
        }
      ],
      "name": "PausedFills",
      "type": "event"
    },
    {
      "anonymous": false,
      "inputs": [
        {
          "indexed": true,
          "internalType": "uint32",
          "name": "rootBundleId",
          "type": "uint32"
        },
        {
          "indexed": true,
          "internalType": "bytes32",
          "name": "relayerRefundRoot",
          "type": "bytes32"
        },
        {
          "indexed": true,
          "internalType": "bytes32",
          "name": "slowRelayRoot",
          "type": "bytes32"
        }
      ],
      "name": "RelayedRootBundle",
      "type": "event"
    },
    {
      "anonymous": false,
      "inputs": [
        {
          "indexed": false,
          "internalType": "uint256",
          "name": "updatedOutputAmount",
          "type": "uint256"
        },
        {
          "indexed": true,
          "internalType": "uint32",
          "name": "depositId",
          "type": "uint32"
        },
        {
          "indexed": true,
          "internalType": "address",
          "name": "depositor",
          "type": "address"
        },
        {
          "indexed": false,
          "internalType": "address",
          "name": "updatedRecipient",
          "type": "address"
        },
        {
          "indexed": false,
          "internalType": "bytes",
          "name": "updatedMessage",
          "type": "bytes"
        },
        {
          "indexed": false,
          "internalType": "bytes",
          "name": "depositorSignature",
          "type": "bytes"
        }
      ],
      "name": "RequestedSpeedUpV3Deposit",
      "type": "event"
    },
    {
      "anonymous": false,
      "inputs": [
        {
          "indexed": false,
          "internalType": "address",
          "name": "inputToken",
          "type": "address"
        },
        {
          "indexed": false,
          "internalType": "address",
          "name": "outputToken",
          "type": "address"
        },
        {
          "indexed": false,
          "internalType": "uint256",
          "name": "inputAmount",
          "type": "uint256"
        },
        {
          "indexed": false,
          "internalType": "uint256",
          "name": "outputAmount",
          "type": "uint256"
        },
        {
          "indexed": true,
          "internalType": "uint256",
          "name": "originChainId",
          "type": "uint256"
        },
        {
          "indexed": true,
          "internalType": "uint32",
          "name": "depositId",
          "type": "uint32"
        },
        {
          "indexed": false,
          "internalType": "uint32",
          "name": "fillDeadline",
          "type": "uint32"
        },
        {
          "indexed": false,
          "internalType": "uint32",
          "name": "exclusivityDeadline",
          "type": "uint32"
        },
        {
          "indexed": false,
          "internalType": "address",
          "name": "exclusiveRelayer",
          "type": "address"
        },
        {
          "indexed": false,
          "internalType": "address",
          "name": "depositor",
          "type": "address"
        },
        {
          "indexed": false,
          "internalType": "address",
          "name": "recipient",
          "type": "address"
        },
        {
          "indexed": false,
          "internalType": "bytes",
          "name": "message",
          "type": "bytes"
        }
      ],
      "name": "RequestedV3SlowFill",
      "type": "event"
    },
    {
      "anonymous": false,
      "inputs": [
        {
          "indexed": true,
          "internalType": "uint32",
          "name": "newL1Gas",
          "type": "uint32"
        }
      ],
      "name": "SetL1Gas",
      "type": "event"
    },
    {
      "anonymous": false,
      "inputs": [
        {
          "indexed": true,
          "internalType": "address",
          "name": "l2Token",
          "type": "address"
        },
        {
          "indexed": true,
          "internalType": "address",
          "name": "tokenBridge",
          "type": "address"
        }
      ],
      "name": "SetL2TokenBridge",
      "type": "event"
    },
    {
      "anonymous": false,
      "inputs": [
        {
          "indexed": true,
          "internalType": "address",
          "name": "l2Token",
          "type": "address"
        },
        {
          "indexed": true,
          "internalType": "address",
          "name": "l1Token",
          "type": "address"
        }
      ],
      "name": "SetRemoteL1Token",
      "type": "event"
    },
    {
      "anonymous": false,
      "inputs": [
        {
          "indexed": true,
          "internalType": "address",
          "name": "newWithdrawalRecipient",
          "type": "address"
        }
      ],
      "name": "SetWithdrawalRecipient",
      "type": "event"
    },
    {
      "anonymous": false,
      "inputs": [
        {
          "indexed": true,
          "internalType": "address",
          "name": "newAdmin",
          "type": "address"
        }
      ],
      "name": "SetXDomainAdmin",
      "type": "event"
    },
    {
      "anonymous": false,
      "inputs": [
        {
          "indexed": false,
          "internalType": "uint256",
          "name": "amountToReturn",
          "type": "uint256"
        },
        {
          "indexed": true,
          "internalType": "uint256",
          "name": "chainId",
          "type": "uint256"
        },
        {
          "indexed": true,
          "internalType": "uint32",
          "name": "leafId",
          "type": "uint32"
        },
        {
          "indexed": true,
          "internalType": "address",
          "name": "l2TokenAddress",
          "type": "address"
        },
        {
          "indexed": false,
          "internalType": "address",
          "name": "caller",
          "type": "address"
        }
      ],
      "name": "TokensBridged",
      "type": "event"
    },
    {
      "anonymous": false,
      "inputs": [
        {
          "indexed": true,
          "internalType": "address",
          "name": "implementation",
          "type": "address"
        }
      ],
      "name": "Upgraded",
      "type": "event"
    },
    {
      "anonymous": false,
      "inputs": [
        {
          "indexed": false,
          "internalType": "address",
          "name": "inputToken",
          "type": "address"
        },
        {
          "indexed": false,
          "internalType": "address",
          "name": "outputToken",
          "type": "address"
        },
        {
          "indexed": false,
          "internalType": "uint256",
          "name": "inputAmount",
          "type": "uint256"
        },
        {
          "indexed": false,
          "internalType": "uint256",
          "name": "outputAmount",
          "type": "uint256"
        },
        {
          "indexed": true,
          "internalType": "uint256",
          "name": "destinationChainId",
          "type": "uint256"
        },
        {
          "indexed": true,
          "internalType": "uint32",
          "name": "depositId",
          "type": "uint32"
        },
        {
          "indexed": false,
          "internalType": "uint32",
          "name": "quoteTimestamp",
          "type": "uint32"
        },
        {
          "indexed": false,
          "internalType": "uint32",
          "name": "fillDeadline",
          "type": "uint32"
        },
        {
          "indexed": false,
          "internalType": "uint32",
          "name": "exclusivityDeadline",
          "type": "uint32"
        },
        {
          "indexed": true,
          "internalType": "address",
          "name": "depositor",
          "type": "address"
        },
        {
          "indexed": false,
          "internalType": "address",
          "name": "recipient",
          "type": "address"
        },
        {
          "indexed": false,
          "internalType": "address",
          "name": "exclusiveRelayer",
          "type": "address"
        },
        {
          "indexed": false,
          "internalType": "bytes",
          "name": "message",
          "type": "bytes"
        }
      ],
      "name": "V3FundsDeposited",
      "type": "event"
    },
    {
      "inputs": [],
      "name": "EMPTY_RELAYER",
      "outputs": [
        {
          "internalType": "address",
          "name": "",
          "type": "address"
        }
      ],
      "stateMutability": "view",
      "type": "function"
    },
    {
      "inputs": [],
      "name": "EMPTY_REPAYMENT_CHAIN_ID",
      "outputs": [
        {
          "internalType": "uint256",
          "name": "",
          "type": "uint256"
        }
      ],
      "stateMutability": "view",
      "type": "function"
    },
    {
      "inputs": [],
      "name": "INFINITE_FILL_DEADLINE",
      "outputs": [
        {
          "internalType": "uint32",
          "name": "",
          "type": "uint32"
        }
      ],
      "stateMutability": "view",
      "type": "function"
    },
    {
      "inputs": [],
      "name": "MAX_TRANSFER_SIZE",
      "outputs": [
        {
          "internalType": "uint256",
          "name": "",
          "type": "uint256"
        }
      ],
      "stateMutability": "view",
      "type": "function"
    },
    {
      "inputs": [],
      "name": "MESSENGER",
      "outputs": [
        {
          "internalType": "address",
          "name": "",
          "type": "address"
        }
      ],
      "stateMutability": "view",
      "type": "function"
    },
    {
      "inputs": [],
      "name": "UPDATE_V3_DEPOSIT_DETAILS_HASH",
      "outputs": [
        {
          "internalType": "bytes32",
          "name": "",
          "type": "bytes32"
        }
      ],
      "stateMutability": "view",
      "type": "function"
    },
    {
      "inputs": [
        {
          "internalType": "uint32",
          "name": "_initialDepositId",
          "type": "uint32"
        },
        {
          "internalType": "address",
          "name": "_crossDomainAdmin",
          "type": "address"
        },
        {
          "internalType": "address",
          "name": "_withdrawalRecipient",
          "type": "address"
        },
        {
          "internalType": "address",
          "name": "_l2Eth",
          "type": "address"
        }
      ],
      "name": "__OvmSpokePool_init",
      "outputs": [],
      "stateMutability": "nonpayable",
      "type": "function"
    },
    {
      "inputs": [
        {
          "internalType": "uint32",
          "name": "_initialDepositId",
          "type": "uint32"
        },
        {
          "internalType": "address",
          "name": "_crossDomainAdmin",
          "type": "address"
        },
        {
          "internalType": "address",
          "name": "_withdrawalRecipient",
          "type": "address"
        }
      ],
      "name": "__SpokePool_init",
      "outputs": [],
      "stateMutability": "nonpayable",
      "type": "function"
    },
    {
      "inputs": [],
      "name": "cctpTokenMessenger",
      "outputs": [
        {
          "internalType": "contract ITokenMessenger",
          "name": "",
          "type": "address"
        }
      ],
      "stateMutability": "view",
      "type": "function"
    },
    {
      "inputs": [],
      "name": "chainId",
      "outputs": [
        {
          "internalType": "uint256",
          "name": "",
          "type": "uint256"
        }
      ],
      "stateMutability": "view",
      "type": "function"
    },
    {
      "inputs": [],
      "name": "crossDomainAdmin",
      "outputs": [
        {
          "internalType": "address",
          "name": "",
          "type": "address"
        }
      ],
      "stateMutability": "view",
      "type": "function"
    },
    {
      "inputs": [
        {
          "internalType": "address",
          "name": "recipient",
          "type": "address"
        },
        {
          "internalType": "address",
          "name": "originToken",
          "type": "address"
        },
        {
          "internalType": "uint256",
          "name": "amount",
          "type": "uint256"
        },
        {
          "internalType": "uint256",
          "name": "destinationChainId",
          "type": "uint256"
        },
        {
          "internalType": "int64",
          "name": "relayerFeePct",
          "type": "int64"
        },
        {
          "internalType": "uint32",
          "name": "quoteTimestamp",
          "type": "uint32"
        },
        {
          "internalType": "bytes",
          "name": "message",
          "type": "bytes"
        },
        {
          "internalType": "uint256",
          "name": "",
          "type": "uint256"
        }
      ],
      "name": "deposit",
      "outputs": [],
      "stateMutability": "payable",
      "type": "function"
    },
    {
      "inputs": [
        {
          "internalType": "address",
          "name": "depositor",
          "type": "address"
        },
        {
          "internalType": "address",
          "name": "recipient",
          "type": "address"
        },
        {
          "internalType": "address",
          "name": "inputToken",
          "type": "address"
        },
        {
          "internalType": "address",
          "name": "outputToken",
          "type": "address"
        },
        {
          "internalType": "uint256",
          "name": "inputAmount",
          "type": "uint256"
        },
        {
          "internalType": "uint256",
          "name": "outputAmount",
          "type": "uint256"
        },
        {
          "internalType": "uint256",
          "name": "destinationChainId",
          "type": "uint256"
        },
        {
          "internalType": "address",
          "name": "exclusiveRelayer",
          "type": "address"
        },
        {
          "internalType": "uint32",
          "name": "quoteTimestamp",
          "type": "uint32"
        },
        {
          "internalType": "uint32",
          "name": "fillDeadline",
          "type": "uint32"
        },
        {
          "internalType": "uint32",
          "name": "exclusivityPeriod",
          "type": "uint32"
        },
        {
          "internalType": "bytes",
          "name": "message",
          "type": "bytes"
        }
      ],
      "name": "depositExclusive",
      "outputs": [],
      "stateMutability": "payable",
      "type": "function"
    },
    {
      "inputs": [
        {
          "internalType": "address",
          "name": "depositor",
          "type": "address"
        },
        {
          "internalType": "address",
          "name": "recipient",
          "type": "address"
        },
        {
          "internalType": "address",
          "name": "originToken",
          "type": "address"
        },
        {
          "internalType": "uint256",
          "name": "amount",
          "type": "uint256"
        },
        {
          "internalType": "uint256",
          "name": "destinationChainId",
          "type": "uint256"
        },
        {
          "internalType": "int64",
          "name": "relayerFeePct",
          "type": "int64"
        },
        {
          "internalType": "uint32",
          "name": "quoteTimestamp",
          "type": "uint32"
        },
        {
          "internalType": "bytes",
          "name": "message",
          "type": "bytes"
        },
        {
          "internalType": "uint256",
          "name": "",
          "type": "uint256"
        }
      ],
      "name": "depositFor",
      "outputs": [],
      "stateMutability": "payable",
      "type": "function"
    },
    {
      "inputs": [],
      "name": "depositQuoteTimeBuffer",
      "outputs": [
        {
          "internalType": "uint32",
          "name": "",
          "type": "uint32"
        }
      ],
      "stateMutability": "view",
      "type": "function"
    },
    {
      "inputs": [
        {
          "internalType": "address",
          "name": "depositor",
          "type": "address"
        },
        {
          "internalType": "address",
          "name": "recipient",
          "type": "address"
        },
        {
          "internalType": "address",
          "name": "inputToken",
          "type": "address"
        },
        {
          "internalType": "address",
          "name": "outputToken",
          "type": "address"
        },
        {
          "internalType": "uint256",
          "name": "inputAmount",
          "type": "uint256"
        },
        {
          "internalType": "uint256",
          "name": "outputAmount",
          "type": "uint256"
        },
        {
          "internalType": "uint256",
          "name": "destinationChainId",
          "type": "uint256"
        },
        {
          "internalType": "address",
          "name": "exclusiveRelayer",
          "type": "address"
        },
        {
          "internalType": "uint32",
          "name": "quoteTimestamp",
          "type": "uint32"
        },
        {
          "internalType": "uint32",
          "name": "fillDeadline",
          "type": "uint32"
        },
        {
          "internalType": "uint32",
          "name": "exclusivityPeriod",
          "type": "uint32"
        },
        {
          "internalType": "bytes",
          "name": "message",
          "type": "bytes"
        }
      ],
      "name": "depositV3",
      "outputs": [],
      "stateMutability": "payable",
      "type": "function"
    },
    {
      "inputs": [
        {
          "internalType": "address",
          "name": "depositor",
          "type": "address"
        },
        {
          "internalType": "address",
          "name": "recipient",
          "type": "address"
        },
        {
          "internalType": "address",
          "name": "inputToken",
          "type": "address"
        },
        {
          "internalType": "address",
          "name": "outputToken",
          "type": "address"
        },
        {
          "internalType": "uint256",
          "name": "inputAmount",
          "type": "uint256"
        },
        {
          "internalType": "uint256",
          "name": "outputAmount",
          "type": "uint256"
        },
        {
          "internalType": "uint256",
          "name": "destinationChainId",
          "type": "uint256"
        },
        {
          "internalType": "address",
          "name": "exclusiveRelayer",
          "type": "address"
        },
        {
          "internalType": "uint32",
          "name": "fillDeadlineOffset",
          "type": "uint32"
        },
        {
          "internalType": "uint32",
          "name": "exclusivityPeriod",
          "type": "uint32"
        },
        {
          "internalType": "bytes",
          "name": "message",
          "type": "bytes"
        }
      ],
      "name": "depositV3Now",
      "outputs": [],
      "stateMutability": "payable",
      "type": "function"
    },
    {
      "inputs": [
        {
          "internalType": "uint256",
          "name": "rootBundleId",
          "type": "uint256"
        }
      ],
      "name": "emergencyDeleteRootBundle",
      "outputs": [],
      "stateMutability": "nonpayable",
      "type": "function"
    },
    {
      "inputs": [
        {
          "internalType": "address",
          "name": "",
          "type": "address"
        },
        {
          "internalType": "uint256",
          "name": "",
          "type": "uint256"
        }
      ],
      "name": "enabledDepositRoutes",
      "outputs": [
        {
          "internalType": "bool",
          "name": "",
          "type": "bool"
        }
      ],
      "stateMutability": "view",
      "type": "function"
    },
    {
      "inputs": [
        {
          "internalType": "uint32",
          "name": "rootBundleId",
          "type": "uint32"
        },
        {
          "components": [
            {
              "internalType": "uint256",
              "name": "amountToReturn",
              "type": "uint256"
            },
            {
              "internalType": "uint256",
              "name": "chainId",
              "type": "uint256"
            },
            {
              "internalType": "uint256[]",
              "name": "refundAmounts",
              "type": "uint256[]"
            },
            {
              "internalType": "uint32",
              "name": "leafId",
              "type": "uint32"
            },
            {
              "internalType": "address",
              "name": "l2TokenAddress",
              "type": "address"
            },
            {
              "internalType": "address[]",
              "name": "refundAddresses",
              "type": "address[]"
            }
          ],
          "internalType": "struct SpokePoolInterface.RelayerRefundLeaf",
          "name": "relayerRefundLeaf",
          "type": "tuple"
        },
        {
          "internalType": "bytes32[]",
          "name": "proof",
          "type": "bytes32[]"
        }
      ],
      "name": "executeRelayerRefundLeaf",
      "outputs": [],
      "stateMutability": "payable",
      "type": "function"
    },
    {
      "inputs": [
        {
          "components": [
            {
              "components": [
                {
                  "internalType": "address",
                  "name": "depositor",
                  "type": "address"
                },
                {
                  "internalType": "address",
                  "name": "recipient",
                  "type": "address"
                },
                {
                  "internalType": "address",
                  "name": "exclusiveRelayer",
                  "type": "address"
                },
                {
                  "internalType": "address",
                  "name": "inputToken",
                  "type": "address"
                },
                {
                  "internalType": "address",
                  "name": "outputToken",
                  "type": "address"
                },
                {
                  "internalType": "uint256",
                  "name": "inputAmount",
                  "type": "uint256"
                },
                {
                  "internalType": "uint256",
                  "name": "outputAmount",
                  "type": "uint256"
                },
                {
                  "internalType": "uint256",
                  "name": "originChainId",
                  "type": "uint256"
                },
                {
                  "internalType": "uint32",
                  "name": "depositId",
                  "type": "uint32"
                },
                {
                  "internalType": "uint32",
                  "name": "fillDeadline",
                  "type": "uint32"
                },
                {
                  "internalType": "uint32",
                  "name": "exclusivityDeadline",
                  "type": "uint32"
                },
                {
                  "internalType": "bytes",
                  "name": "message",
                  "type": "bytes"
                }
              ],
              "internalType": "struct V3SpokePoolInterface.V3RelayData",
              "name": "relayData",
              "type": "tuple"
            },
            {
              "internalType": "uint256",
              "name": "chainId",
              "type": "uint256"
            },
            {
              "internalType": "uint256",
              "name": "updatedOutputAmount",
              "type": "uint256"
            }
          ],
          "internalType": "struct V3SpokePoolInterface.V3SlowFill",
          "name": "slowFillLeaf",
          "type": "tuple"
        },
        {
          "internalType": "uint32",
          "name": "rootBundleId",
          "type": "uint32"
        },
        {
          "internalType": "bytes32[]",
          "name": "proof",
          "type": "bytes32[]"
        }
      ],
      "name": "executeV3SlowRelayLeaf",
      "outputs": [],
      "stateMutability": "nonpayable",
      "type": "function"
    },
    {
      "inputs": [
        {
          "internalType": "bytes32",
          "name": "orderId",
          "type": "bytes32"
        },
        {
          "internalType": "bytes",
          "name": "originData",
          "type": "bytes"
        },
        {
          "internalType": "bytes",
          "name": "fillerData",
          "type": "bytes"
        }
      ],
      "name": "fill",
      "outputs": [],
      "stateMutability": "nonpayable",
      "type": "function"
    },
    {
      "inputs": [],
      "name": "fillDeadlineBuffer",
      "outputs": [
        {
          "internalType": "uint32",
          "name": "",
          "type": "uint32"
        }
      ],
      "stateMutability": "view",
      "type": "function"
    },
    {
      "inputs": [
        {
          "internalType": "bytes32",
          "name": "",
          "type": "bytes32"
        }
      ],
      "name": "fillStatuses",
      "outputs": [
        {
          "internalType": "uint256",
          "name": "",
          "type": "uint256"
        }
      ],
      "stateMutability": "view",
      "type": "function"
    },
    {
      "inputs": [
        {
          "components": [
            {
              "internalType": "address",
              "name": "depositor",
              "type": "address"
            },
            {
              "internalType": "address",
              "name": "recipient",
              "type": "address"
            },
            {
              "internalType": "address",
              "name": "exclusiveRelayer",
              "type": "address"
            },
            {
              "internalType": "address",
              "name": "inputToken",
              "type": "address"
            },
            {
              "internalType": "address",
              "name": "outputToken",
              "type": "address"
            },
            {
              "internalType": "uint256",
              "name": "inputAmount",
              "type": "uint256"
            },
            {
              "internalType": "uint256",
              "name": "outputAmount",
              "type": "uint256"
            },
            {
              "internalType": "uint256",
              "name": "originChainId",
              "type": "uint256"
            },
            {
              "internalType": "uint32",
              "name": "depositId",
              "type": "uint32"
            },
            {
              "internalType": "uint32",
              "name": "fillDeadline",
              "type": "uint32"
            },
            {
              "internalType": "uint32",
              "name": "exclusivityDeadline",
              "type": "uint32"
            },
            {
              "internalType": "bytes",
              "name": "message",
              "type": "bytes"
            }
          ],
          "internalType": "struct V3SpokePoolInterface.V3RelayData",
          "name": "relayData",
          "type": "tuple"
        },
        {
          "internalType": "uint256",
          "name": "repaymentChainId",
          "type": "uint256"
        }
      ],
      "name": "fillV3Relay",
      "outputs": [],
      "stateMutability": "nonpayable",
      "type": "function"
    },
    {
      "inputs": [
        {
          "components": [
            {
              "internalType": "address",
              "name": "depositor",
              "type": "address"
            },
            {
              "internalType": "address",
              "name": "recipient",
              "type": "address"
            },
            {
              "internalType": "address",
              "name": "exclusiveRelayer",
              "type": "address"
            },
            {
              "internalType": "address",
              "name": "inputToken",
              "type": "address"
            },
            {
              "internalType": "address",
              "name": "outputToken",
              "type": "address"
            },
            {
              "internalType": "uint256",
              "name": "inputAmount",
              "type": "uint256"
            },
            {
              "internalType": "uint256",
              "name": "outputAmount",
              "type": "uint256"
            },
            {
              "internalType": "uint256",
              "name": "originChainId",
              "type": "uint256"
            },
            {
              "internalType": "uint32",
              "name": "depositId",
              "type": "uint32"
            },
            {
              "internalType": "uint32",
              "name": "fillDeadline",
              "type": "uint32"
            },
            {
              "internalType": "uint32",
              "name": "exclusivityDeadline",
              "type": "uint32"
            },
            {
              "internalType": "bytes",
              "name": "message",
              "type": "bytes"
            }
          ],
          "internalType": "struct V3SpokePoolInterface.V3RelayData",
          "name": "relayData",
          "type": "tuple"
        },
        {
          "internalType": "uint256",
          "name": "repaymentChainId",
          "type": "uint256"
        },
        {
          "internalType": "uint256",
          "name": "updatedOutputAmount",
          "type": "uint256"
        },
        {
          "internalType": "address",
          "name": "updatedRecipient",
          "type": "address"
        },
        {
          "internalType": "bytes",
          "name": "updatedMessage",
          "type": "bytes"
        },
        {
          "internalType": "bytes",
          "name": "depositorSignature",
          "type": "bytes"
        }
      ],
      "name": "fillV3RelayWithUpdatedDeposit",
      "outputs": [],
      "stateMutability": "nonpayable",
      "type": "function"
    },
    {
      "inputs": [],
      "name": "getCurrentTime",
      "outputs": [
        {
          "internalType": "uint256",
          "name": "",
          "type": "uint256"
        }
      ],
      "stateMutability": "view",
      "type": "function"
    },
    {
      "inputs": [
        {
          "internalType": "uint32",
          "name": "_initialDepositId",
          "type": "uint32"
        },
        {
          "internalType": "address",
          "name": "_crossDomainAdmin",
          "type": "address"
        },
        {
          "internalType": "address",
          "name": "_withdrawalRecipient",
          "type": "address"
        }
      ],
      "name": "initialize",
      "outputs": [],
      "stateMutability": "nonpayable",
      "type": "function"
    },
    {
      "inputs": [],
      "name": "l1Gas",
      "outputs": [
        {
          "internalType": "uint32",
          "name": "",
          "type": "uint32"
        }
      ],
      "stateMutability": "view",
      "type": "function"
    },
    {
      "inputs": [],
      "name": "l2Eth",
      "outputs": [
        {
          "internalType": "address",
          "name": "",
          "type": "address"
        }
      ],
      "stateMutability": "view",
      "type": "function"
    },
    {
      "inputs": [
        {
          "internalType": "bytes[]",
          "name": "data",
          "type": "bytes[]"
        }
      ],
      "name": "multicall",
      "outputs": [
        {
          "internalType": "bytes[]",
          "name": "results",
          "type": "bytes[]"
        }
      ],
      "stateMutability": "nonpayable",
      "type": "function"
    },
    {
      "inputs": [],
      "name": "numberOfDeposits",
      "outputs": [
        {
          "internalType": "uint32",
          "name": "",
          "type": "uint32"
        }
      ],
      "stateMutability": "view",
      "type": "function"
    },
    {
      "inputs": [
        {
          "internalType": "bool",
          "name": "pause",
          "type": "bool"
        }
      ],
      "name": "pauseDeposits",
      "outputs": [],
      "stateMutability": "nonpayable",
      "type": "function"
    },
    {
      "inputs": [
        {
          "internalType": "bool",
          "name": "pause",
          "type": "bool"
        }
      ],
      "name": "pauseFills",
      "outputs": [],
      "stateMutability": "nonpayable",
      "type": "function"
    },
    {
      "inputs": [],
      "name": "pausedDeposits",
      "outputs": [
        {
          "internalType": "bool",
          "name": "",
          "type": "bool"
        }
      ],
      "stateMutability": "view",
      "type": "function"
    },
    {
      "inputs": [],
      "name": "pausedFills",
      "outputs": [
        {
          "internalType": "bool",
          "name": "",
          "type": "bool"
        }
      ],
      "stateMutability": "view",
      "type": "function"
    },
    {
      "inputs": [],
      "name": "proxiableUUID",
      "outputs": [
        {
          "internalType": "bytes32",
          "name": "",
          "type": "bytes32"
        }
      ],
      "stateMutability": "view",
      "type": "function"
    },
    {
      "inputs": [],
      "name": "recipientCircleDomainId",
      "outputs": [
        {
          "internalType": "uint32",
          "name": "",
          "type": "uint32"
        }
      ],
      "stateMutability": "view",
      "type": "function"
    },
    {
      "inputs": [
        {
          "internalType": "bytes32",
          "name": "relayerRefundRoot",
          "type": "bytes32"
        },
        {
          "internalType": "bytes32",
          "name": "slowRelayRoot",
          "type": "bytes32"
        }
      ],
      "name": "relayRootBundle",
      "outputs": [],
      "stateMutability": "nonpayable",
      "type": "function"
    },
    {
      "inputs": [
        {
          "internalType": "address",
          "name": "",
          "type": "address"
        }
      ],
      "name": "remoteL1Tokens",
      "outputs": [
        {
          "internalType": "address",
          "name": "",
          "type": "address"
        }
      ],
      "stateMutability": "view",
      "type": "function"
    },
    {
      "inputs": [
        {
          "components": [
            {
              "internalType": "address",
              "name": "depositor",
              "type": "address"
            },
            {
              "internalType": "address",
              "name": "recipient",
              "type": "address"
            },
            {
              "internalType": "address",
              "name": "exclusiveRelayer",
              "type": "address"
            },
            {
              "internalType": "address",
              "name": "inputToken",
              "type": "address"
            },
            {
              "internalType": "address",
              "name": "outputToken",
              "type": "address"
            },
            {
              "internalType": "uint256",
              "name": "inputAmount",
              "type": "uint256"
            },
            {
              "internalType": "uint256",
              "name": "outputAmount",
              "type": "uint256"
            },
            {
              "internalType": "uint256",
              "name": "originChainId",
              "type": "uint256"
            },
            {
              "internalType": "uint32",
              "name": "depositId",
              "type": "uint32"
            },
            {
              "internalType": "uint32",
              "name": "fillDeadline",
              "type": "uint32"
            },
            {
              "internalType": "uint32",
              "name": "exclusivityDeadline",
              "type": "uint32"
            },
            {
              "internalType": "bytes",
              "name": "message",
              "type": "bytes"
            }
          ],
          "internalType": "struct V3SpokePoolInterface.V3RelayData",
          "name": "relayData",
          "type": "tuple"
        }
      ],
      "name": "requestV3SlowFill",
      "outputs": [],
      "stateMutability": "nonpayable",
      "type": "function"
    },
    {
      "inputs": [
        {
          "internalType": "uint256",
          "name": "",
          "type": "uint256"
        }
      ],
      "name": "rootBundles",
      "outputs": [
        {
          "internalType": "bytes32",
          "name": "slowRelayRoot",
          "type": "bytes32"
        },
        {
          "internalType": "bytes32",
          "name": "relayerRefundRoot",
          "type": "bytes32"
        }
      ],
      "stateMutability": "view",
      "type": "function"
    },
    {
      "inputs": [
        {
          "internalType": "address",
          "name": "newCrossDomainAdmin",
          "type": "address"
        }
      ],
      "name": "setCrossDomainAdmin",
      "outputs": [],
      "stateMutability": "nonpayable",
      "type": "function"
    },
    {
      "inputs": [
        {
          "internalType": "address",
          "name": "originToken",
          "type": "address"
        },
        {
          "internalType": "uint256",
          "name": "destinationChainId",
          "type": "uint256"
        },
        {
          "internalType": "bool",
          "name": "enabled",
          "type": "bool"
        }
      ],
      "name": "setEnableRoute",
      "outputs": [],
      "stateMutability": "nonpayable",
      "type": "function"
    },
    {
      "inputs": [
        {
          "internalType": "uint32",
          "name": "newl1Gas",
          "type": "uint32"
        }
      ],
      "name": "setL1GasLimit",
      "outputs": [],
      "stateMutability": "nonpayable",
      "type": "function"
    },
    {
      "inputs": [
        {
          "internalType": "address",
          "name": "l2Token",
          "type": "address"
        },
        {
          "internalType": "address",
          "name": "l1Token",
          "type": "address"
        }
      ],
      "name": "setRemoteL1Token",
      "outputs": [],
      "stateMutability": "nonpayable",
      "type": "function"
    },
    {
      "inputs": [
        {
          "internalType": "address",
          "name": "l2Token",
          "type": "address"
        },
        {
          "internalType": "address",
          "name": "tokenBridge",
          "type": "address"
        }
      ],
      "name": "setTokenBridge",
      "outputs": [],
      "stateMutability": "nonpayable",
      "type": "function"
    },
    {
      "inputs": [
        {
          "internalType": "address",
          "name": "newWithdrawalRecipient",
          "type": "address"
        }
      ],
      "name": "setWithdrawalRecipient",
      "outputs": [],
      "stateMutability": "nonpayable",
      "type": "function"
    },
    {
      "inputs": [
        {
          "internalType": "address",
          "name": "depositor",
          "type": "address"
        },
        {
          "internalType": "uint32",
          "name": "depositId",
          "type": "uint32"
        },
        {
          "internalType": "uint256",
          "name": "updatedOutputAmount",
          "type": "uint256"
        },
        {
          "internalType": "address",
          "name": "updatedRecipient",
          "type": "address"
        },
        {
          "internalType": "bytes",
          "name": "updatedMessage",
          "type": "bytes"
        },
        {
          "internalType": "bytes",
          "name": "depositorSignature",
          "type": "bytes"
        }
      ],
      "name": "speedUpV3Deposit",
      "outputs": [],
      "stateMutability": "nonpayable",
      "type": "function"
    },
    {
      "inputs": [
        {
          "internalType": "address",
          "name": "",
          "type": "address"
        }
      ],
      "name": "tokenBridges",
      "outputs": [
        {
          "internalType": "address",
          "name": "",
          "type": "address"
        }
      ],
      "stateMutability": "view",
      "type": "function"
    },
    {
      "inputs": [
        {
          "internalType": "bytes[]",
          "name": "data",
          "type": "bytes[]"
        }
      ],
      "name": "tryMulticall",
      "outputs": [
        {
          "components": [
            {
              "internalType": "bool",
              "name": "success",
              "type": "bool"
            },
            {
              "internalType": "bytes",
              "name": "returnData",
              "type": "bytes"
            }
          ],
          "internalType": "struct MultiCallerUpgradeable.Result[]",
          "name": "results",
          "type": "tuple[]"
        }
      ],
      "stateMutability": "nonpayable",
      "type": "function"
    },
    {
      "inputs": [
        {
          "internalType": "address",
          "name": "newImplementation",
          "type": "address"
        }
      ],
      "name": "upgradeTo",
      "outputs": [],
      "stateMutability": "nonpayable",
      "type": "function"
    },
    {
      "inputs": [
        {
          "internalType": "address",
          "name": "newImplementation",
          "type": "address"
        },
        {
          "internalType": "bytes",
          "name": "data",
          "type": "bytes"
        }
      ],
      "name": "upgradeToAndCall",
      "outputs": [],
      "stateMutability": "payable",
      "type": "function"
    },
    {
      "inputs": [],
      "name": "usdcToken",
      "outputs": [
        {
          "internalType": "contract IERC20",
          "name": "",
          "type": "address"
        }
      ],
      "stateMutability": "view",
      "type": "function"
    },
    {
      "inputs": [],
      "name": "withdrawalRecipient",
      "outputs": [
        {
          "internalType": "address",
          "name": "",
          "type": "address"
        }
      ],
      "stateMutability": "view",
      "type": "function"
    },
    {
      "inputs": [],
      "name": "wrappedNativeToken",
      "outputs": [
        {
          "internalType": "contract WETH9Interface",
          "name": "",
          "type": "address"
        }
      ],
      "stateMutability": "view",
      "type": "function"
    },
    {
      "stateMutability": "payable",
      "type": "receive"
    }
  ],
  "numDeployments": 1,
  "solcInputHash": "55c0033f8d42fe00d249ee34bda78b96",
  "bytecode": "0x610160346200024c57601f6200593b38819003918201601f19168301916001600160401b03831184841017620002505780849260a0946040528339810103126200024c5780516001600160a01b039190828116908190036200024c57620000696020830162000264565b620000776040840162000264565b9160608401519385851685036200024c576080015194851685036200024c573060805260a05260c05260e0525f5460ff8160081c16620001f75760ff80821603620001bc575b50610120908152610140918252610100915f8352604051916156c49384620002778539608051848181610c89015281816113ad015261159f015260a0518481816107a701528181611be901528181612f9c015281816137c50152818161392901528181613f3c01528181614218015281816148d1015281816148f80152614e09015260c05184818161170b01528181611ba501528181612f58015261377a015260e0518481816103be01528181611d7701526130c90152518381816118e4015261541401525182818161074a015281816147920152818161515b015261530e01525181818161201b0152818161488f01528181614f17015261533a0152f35b60ff90811916175f557f7f26b83ff96e1f2b6a682f133852f6798a09c465da95921460cefb3847402498602060405160ff8152a15f620000bd565b60405162461bcd60e51b815260206004820152602760248201527f496e697469616c697a61626c653a20636f6e747261637420697320696e697469604482015266616c697a696e6760c81b6064820152608490fd5b5f80fd5b634e487b7160e01b5f52604160045260245ffd5b519063ffffffff821682036200024c5756fe6080604052600436101561001a575b3615610018575f80fd5b005b5f3560e01c8063079bd2c71461038f5780630c5d5f731461038a5780630eaac9f0146103855780631186ec331461038057806311eac8551461037b57806315348e441461031757806317fcb39b146103765780631b3d555914610371578063272751c71461036c57806329cb924d146103675780632cfc26c5146103625780632e3781151461035d5780633659cfe614610358578063431023b814610353578063437b91161461034e578063493a4f84146103495780634e0fb8f5146103445780634f1ef2861461033f5780635249fef11461033a5780635285e0581461033557806352d1902d14610330578063541f4f141461032b57806357f6dcb8146103265780636068d6cb14610321578063647c576c1461031c5780636bbbcd2e146103175780636e40098314610312578063738b62e51461030d578063766e0703146103085780637aef642c146103035780637b939232146102cc57806382e2c43f146102fe5780638a7860ce146102f9578063927ede2d146102f45780639748cf7c146102ef578063979f2bc2146102ea5780639963e5a8146102e557806399cc2968146102e05780639a8a0592146102db578063a1244c67146102d6578063ac9650d8146102d1578063add051a3146102cc578063b27a4300146102c7578063b370b7f5146102c2578063bbca7db0146102bd578063bf10268d146102b8578063c35c83fc146102b3578063ccfa5971146102ae578063ceb4c987146102a9578063dda52113146102a4578063ddd224f11461029f578063de7eba781461029a578063e322921114610295578063ee2a53f814610290578063fbbba9ac1461028b5763fc8a584f0361000e5761292d565b6128a9565b61286b565b6127ef565b6127bf565b612796565b612770565b612752565b6126cf565b6126a4565b612620565b6124df565b6124b8565b612479565b611b20565b6123bb565b612331565b612317565b612269565b612069565b61203f565b611ffc565b611fce565b611f56565b611df8565b6119db565b6119b7565b611908565b6118c8565b61076e565b611787565b61172f565b6116ef565b61165a565b611585565b61155e565b611510565b611368565b61124e565b611199565b6110cc565b610e10565b610c60565b610afa565b610ab1565b610a97565b6109f8565b610916565b610788565b61072b565b610672565b610458565b610400565b6103a2565b5f91031261039e57565b5f80fd5b3461039e575f36600319011261039e57602060405163ffffffff7f0000000000000000000000000000000000000000000000000000000000000000168152f35b6001600160a01b0381160361039e57565b35906103fe826103e2565b565b3461039e57602036600319011261039e57602060043561041f816103e2565b6001600160a01b038091165f52610c5d825260405f205416604051908152f35b63ffffffff81160361039e57565b35906103fe8261043f565b3461039e57602036600319011261039e5763ffffffff60043561047a8161043f565b61048261353c565b61048a61364e565b16610c5a8163ffffffff198254161790557fe486a5c4bd7b36eabbfe274c99b39130277417be8d2209b4dae04c4fba64ee3a5f80a26001606555005b634e487b7160e01b5f52604160045260245ffd5b6040810190811067ffffffffffffffff8211176104f657604052565b6104c6565b67ffffffffffffffff81116104f657604052565b6060810190811067ffffffffffffffff8211176104f657604052565b6020810190811067ffffffffffffffff8211176104f657604052565b60e0810190811067ffffffffffffffff8211176104f657604052565b60a0810190811067ffffffffffffffff8211176104f657604052565b90601f8019910116810190811067ffffffffffffffff8211176104f657604052565b6040519060c0820182811067ffffffffffffffff8211176104f657604052565b60405190610180820182811067ffffffffffffffff8211176104f657604052565b604051906080820182811067ffffffffffffffff8211176104f657604052565b67ffffffffffffffff81116104f657601f01601f191660200190565b92919261062a82610602565b91610638604051938461057f565b82948184528183011161039e578281602093845f960137010152565b9080601f8301121561039e5781602061066f9335910161061e565b90565b61010036600319011261039e5760043561068b816103e2565b602435610697816103e2565b6084358060070b810361039e5760a435906106b18261043f565b60c43567ffffffffffffffff811161039e576106d1903690600401610654565b926106da61364e565b60ff61086b5460e81c16610701576106fa94606435916044359133613701565b6001606555005b60046040517f5a65d188000000000000000000000000000000000000000000000000000000008152fd5b3461039e575f36600319011261039e5760206040516001600160a01b037f0000000000000000000000000000000000000000000000000000000000000000168152f35b3461039e575f36600319011261039e5760206040515f8152f35b3461039e575f36600319011261039e5760206040516001600160a01b037f0000000000000000000000000000000000000000000000000000000000000000168152f35b67ffffffffffffffff81116104f65760051b60200190565b9080601f8301121561039e5760209082356107fd816107cb565b9361080b604051958661057f565b81855260208086019260051b82010192831161039e57602001905b828210610834575050505090565b81358152908301908301610826565b9080601f8301121561039e57602090823561085d816107cb565b9361086b604051958661057f565b81855260208086019260051b82010192831161039e57602001905b828210610894575050505090565b83809183356108a2816103e2565b815201910190610886565b92916108b8826107cb565b916108c6604051938461057f565b829481845260208094019160051b810192831161039e57905b8282106108ec5750505050565b813581529083019083016108df565b9080601f8301121561039e5781602061066f933591016108ad565b60031960603682011261039e5760043561092f8161043f565b60243567ffffffffffffffff9283821161039e5760c090823603011261039e576109576105a1565b908060040135825260248101356020830152604481013584811161039e5761098590600436918401016107e3565b60408301526109966064820161044d565b60608301526109a7608482016103f3565b608083015260a48101359084821161039e5760046109c89236920101610843565b60a082015260443592831161039e576109e86100189336906004016108fb565b9161295d565b8015150361039e57565b3461039e57606036600319011261039e57600435610a15816103e2565b602435907f0a21fdd43d0ad0c62689ee7230a47309a050755bcc52eba00310add65297692a60206001600160a01b0360443593610a51856109ee565b610a5961353c565b610a6161364e565b1692835f5261086d825260405f20855f52825260405f209015159060ff1981541660ff8316179055604051908152a36001606555005b3461039e575f36600319011261039e576020604051428152f35b3461039e575f36600319011261039e5760206040517f152eb71524aef34d838ab76573c14b1ebfa5e385d9ab29d7cf5398daa2438bd98152f35b908161018091031261039e5790565b3461039e57604036600319011261039e5760043567ffffffffffffffff811161039e57610b2b903690600401610aeb565b610b3361364e565b60ff61086b5460e01c16610c4f5760408101610b6b610b5182612b50565b610b5e6101408501612b5a565b63ffffffff421691613bf3565b9081610c33575b50610c0957610bff90610beb610b90610b8b3684612b64565b613c1a565b9160c0610be4610ba260208401612b50565b610bb0610160850185612c44565b939094610bbb6105a1565b97610bc63683612b64565b89526020890152013560408701526001600160a01b03166060860152565b369161061e565b608082015260243560a08201523390613d53565b6100186001606555565b60046040517fc3a9b9d0000000000000000000000000000000000000000000000000000000008152fd5b610c3d9150612b50565b6001600160a01b03163314155f610b72565b6004604051633d90fc5560e11b8152fd5b3461039e57602036600319011261039e57600435610c7d816103e2565b6001600160a01b0390817f00000000000000000000000000000000000000000000000000000000000000001691610cb683301415612c77565b610ce57f360894a13ba1a3210667c828492db98dca3e2076cc3735a920a3ca505d382bbc938285541614612ce8565b610ced61353c565b60405190610cfa8261052b565b5f82527f4910fdfa16fed3260ed0e7147f7cc6da11a60208b5b9406d12a635614ffd91435460ff1615610d335750506100189150614b43565b6020600491604094939451928380926352d1902d60e01b825286165afa5f9181610ddf575b50610dcc5760405162461bcd60e51b815260206004820152602e60248201527f45524331393637557067726164653a206e657720696d706c656d656e7461746960448201527f6f6e206973206e6f7420555550530000000000000000000000000000000000006064820152608490fd5b0390fd5b61001893610dda9114614315565b614a25565b610e0291925060203d602011610e09575b610dfa818361057f565b810190614306565b905f610d58565b503d610df0565b3461039e57608036600319011261039e57610018600435610e308161043f565b610f62602435610e3f816103e2565b610f5d60443591610e4f836103e2565b610eae60643595610e5f876103e2565b610e8b60ff5f5460081c16610e7381612d59565b610c5a805463ffffffff1916624c4b40179055612d59565b61086b9063ffffffff60c01b1963ffffffff60c01b83549260c01b169116179055565b604051610eba816104da565b6009815260208101907f4143524f53532d56320000000000000000000000000000000000000000000000825260405191610ef3836104da565b6005835260208301917f312e302e300000000000000000000000000000000000000000000000000000008352610f3860ff5f5460081c16610f3381612d59565b612d59565b519020915190209061047f5561048055610f506144e9565b610f586144f9565b614514565b614586565b610c5a907fffffffffffffffff0000000000000000000000000000000000000000ffffffff77ffffffffffffffffffffffffffffffffffffffff0000000083549260201b169116179055565b9181601f8401121561039e5782359167ffffffffffffffff831161039e576020808501948460051b01011161039e57565b602060031982011261039e576004359067ffffffffffffffff821161039e5761100a91600401610fae565b9091565b5f5b83811061101f5750505f910152565b8181015183820152602001611010565b906020916110488151809281855285808601910161100e565b601f01601f1916010190565b6020808201908083528351809252604092604081018260408560051b8401019601945f925b85841061108a575050505050505090565b9091929394959685806110bb600193603f1986820301885286838d518051151584520151918185820152019061102f565b990194019401929594939190611079565b3461039e576110da36610fdf565b6110e3816107cb565b9160406110f3604051948561057f565b828452601f19611102846107cb565b015f5b8181106111765750505f5b83811061112957604051806111258782611054565b0390f35b8061117061113960019388612dca565b515f80611147858a8a612dde565b90611156895180938193612df5565b0390305af490611164612e02565b60208201529015159052565b01611110565b6020908351611184816104da565b5f815282606081830152828901015201611105565b3461039e57604036600319011261039e576024356004356111b861353c565b6111c061364e565b61086c8054680100000000000000008110156104f65763ffffffff91600182019055836111ec8261282c565b5084600182015555167fc86ba04c55bc5eb2f2876b91c438849a296dbec7b08751c3074d92e04f0a77af5f80a46001606555005b9181601f8401121561039e5782359167ffffffffffffffff831161039e576020838186019501011161039e57565b3461039e5760c036600319011261039e5760043561126b816103e2565b602435906112788261043f565b604435606435611287816103e2565b67ffffffffffffffff9160843583811161039e576112a9903690600401611220565b93909460a43591821161039e5761134c63ffffffff7fb0a29aed3d389a1041194255878b423f7780be3ed2324d4693508c6ff189845e966112f161135e953690600401611220565b9390996112fc61364e565b6113238c8c8b8b61131a611311368a8961061e565b938b369161061e565b9346908c614386565b6001600160a01b0392836040519a8b9a8b521660208a0152608060408a01526080890191612e31565b93868503606088015216981696612e31565b0390a36001606555005b604036600319011261039e57600435611380816103e2565b60243567ffffffffffffffff811161039e576113a0903690600401610654565b906001600160a01b0391827f000000000000000000000000000000000000000000000000000000000000000016926113da84301415612c77565b6114097f360894a13ba1a3210667c828492db98dca3e2076cc3735a920a3ca505d382bbc948286541614612ce8565b61141161353c565b7f4910fdfa16fed3260ed0e7147f7cc6da11a60208b5b9406d12a635614ffd91435460ff16156114475750506100189150614b43565b6020600491604094939451928380926352d1902d60e01b825286165afa5f91816114ef575b506114dc5760405162461bcd60e51b815260206004820152602e60248201527f45524331393637557067726164653a206e657720696d706c656d656e7461746960448201527f6f6e206973206e6f7420555550530000000000000000000000000000000000006064820152608490fd5b610018936114ea9114614315565b614af1565b61150991925060203d602011610e0957610dfa818361057f565b905f61146c565b3461039e57604036600319011261039e576001600160a01b03600435611535816103e2565b165f5261086d60205260405f206024355f52602052602060ff60405f2054166040519015158152f35b3461039e575f36600319011261039e5760206001600160a01b036108695416604051908152f35b3461039e575f36600319011261039e576001600160a01b037f00000000000000000000000000000000000000000000000000000000000000001630036115f0576040517f360894a13ba1a3210667c828492db98dca3e2076cc3735a920a3ca505d382bbc8152602090f35b608460405162461bcd60e51b815260206004820152603860248201527f555550535570677261646561626c653a206d757374206e6f742062652063616c60448201527f6c6564207468726f7567682064656c656761746563616c6c00000000000000006064820152fd5b61012036600319011261039e57600435611673816103e2565b60243590611680826103e2565b6044359161168d836103e2565b60a4358060070b810361039e5760c435916116a78361043f565b60e43567ffffffffffffffff811161039e576116c7903690600401610654565b936116d061364e565b60ff61086b5460e81c16610701576106fa956084359260643592613701565b3461039e575f36600319011261039e57602060405163ffffffff7f0000000000000000000000000000000000000000000000000000000000000000168152f35b3461039e575f36600319011261039e57602060ff61086b5460e81c166040519015158152f35b606090600319011261039e5760043561176d8161043f565b9060243561177a816103e2565b9060443561066f816103e2565b3461039e5761179536611755565b5f54600881901c60ff16159392908490816118ba575b811561189a575b5015611830576117d692846117cd600160ff195f5416175f55565b61181957612e51565b6117dc57005b6117ea61ff00195f54165f55565b604051600181527f7f26b83ff96e1f2b6a682f133852f6798a09c465da95921460cefb384740249890602090a1005b61182b61010061ff00195f5416175f55565b612e51565b608460405162461bcd60e51b815260206004820152602e60248201527f496e697469616c697a61626c653a20636f6e747261637420697320616c72656160448201527f647920696e697469616c697a65640000000000000000000000000000000000006064820152fd5b303b159150816118ac575b505f6117b2565b6001915060ff16145f6118a5565b600160ff82161091506117ab565b3461039e575f36600319011261039e57602060405163ffffffff7f0000000000000000000000000000000000000000000000000000000000000000168152f35b3461039e57602036600319011261039e577fe88463c2f254e2b070013a2dc7ee1e099f9bc00534cbdf03af551dc26ae492196020600435611948816109ee565b61195061353c565b61195861364e565b151561086b80547fffff00ffffffffffffffffffffffffffffffffffffffffffffffffffffffffff7dff00000000000000000000000000000000000000000000000000000000008460e81b169116179055604051908152a16001606555005b3461039e575f36600319011261039e57602063ffffffff610c5a5416604051908152f35b61016036600319011261039e576004356119f4816103e2565b60243590611a01826103e2565b604435611a0d816103e2565b60643590611a1a826103e2565b60e435611a26816103e2565b6101043590611a348261043f565b6101243592611a428461043f565b610144359667ffffffffffffffff881161039e57611a67610018983690600401611220565b97909660c4359360a4359360843593612eea565b9061018060031983011261039e57600435611a95816103e2565b91602435611aa2816103e2565b91604435611aaf816103e2565b91606435611abc816103e2565b916084359160a4359160c4359160e435611ad5816103e2565b9161010435611ae38161043f565b9161012435611af18161043f565b9161014435611aff8161043f565b91610164359067ffffffffffffffff821161039e5761100a91600401611220565b611b2936611a7b565b959996989a92909493611b3e9c98929c61364e565b61086b9960ff8b5460e81c1661070157611b8c611b88611b818e611b748d6001600160a01b03165f5261086d60205260405f2090565b905f5260205260405f2090565b5460ff1690565b1590565b611dce5763ffffffff93611ba2858416426130f6565b857f00000000000000000000000000000000000000000000000000000000000000001610611da457848416428110908115611d6f575b50611d45576001600160a01b039b8c7f0000000000000000000000000000000000000000000000000000000000000000168d8c1681811480611d3c575b15611d225750823403611cf857803b1561039e575f60049160405192838092630d0e30db60e41b825234905af18015611cf357611cda575b505b5460c01c63ffffffff169e8f611c649061311b565b611c8b9061086b9063ffffffff60c01b1963ffffffff60c01b83549260c01b169116179055565b611c9790428716612ecd565b946040519c8d9c169f169d611cac9a8c613130565b037fa123dc29aebf7d0c3322c8eeb5b999e859f39937950ed31056532713d0de396f91a46100186001606555565b80611ce7611ced926104fb565b80610394565b5f611c4d565b613110565b60046040517f6452a35d000000000000000000000000000000000000000000000000000000008152fd5b905034611cf85782611d37913090339061448c565b611c4f565b50341515611c15565b60046040517f582e3889000000000000000000000000000000000000000000000000000000008152fd5b9050611d9d867f00000000000000000000000000000000000000000000000000000000000000001642613103565b105f611bd8565b60046040517ff722177f000000000000000000000000000000000000000000000000000000008152fd5b60046040517f2a58c4f3000000000000000000000000000000000000000000000000000000008152fd5b3461039e57606036600319011261039e5767ffffffffffffffff60243581811161039e57611e2a903690600401611220565b9160443590811161039e57611e43903690600401611220565b9060405193602085019480611e5a4684888a613198565b0395611e6e601f199788810184528361057f565b6004359151902003611f2c575f94611e9d611ed593611e9487611ee1958a9901906131b5565b958101906131db565b5160405193849160208301967f2e378115000000000000000000000000000000000000000000000000000000008852602484016132d6565b0390810183528261057f565b5190305af4611eee612e02565b9015611ef657005b610dc8906040519182917fb8fe37a7000000000000000000000000000000000000000000000000000000008352600483016132ed565b60046040517f1e191e8e000000000000000000000000000000000000000000000000000000008152fd5b3461039e57602036600319011261039e57600435611f7261353c565b611f7a61364e565b611f838161282c565b611fbb576001815f80935501557f3569b846531b754c99cb80df3f49cd72fa6fe106aaee5ab8e0caf35a9d7ce88d5f80a26001606555005b634e487b7160e01b5f525f60045260245ffd5b3461039e575f36600319011261039e5760206040517342000000000000000000000000000000000000078152f35b3461039e575f36600319011261039e5760206040516001600160a01b037f0000000000000000000000000000000000000000000000000000000000000000168152f35b3461039e57610018610eae610f5d61205636611755565b939091610e8b60ff5f5460081c16612d59565b3461039e57602036600319011261039e576004803567ffffffffffffffff811161039e5761209a9036908301610aeb565b906120a361364e565b60ff61086b5460e01c1661225a5763ffffffff80421660408401926120c784612b50565b906120e1836101408801936120db85612b5a565b90613bf3565b61223257610120860192846120f585612b5a565b161061222357612108610b8b3688612b64565b9061211c825f5261087260205260405f2090565b546121fb57507f923794976d026d6b119735adc163cb71decfc903e17c3dc226c00789593c04e193929161216561215f6121ee935f5261087260205260405f2090565b60019055565b61217160608801612b50565b9661217e60808201612b50565b966121a76121a161219b6121956101008601612b5a565b97612b5a565b94612b5a565b91612b50565b6121b083612b50565b906121bd60208501612b50565b926121cc610160860186612c44565b9690956040519a8b9a169d60e08201359d60a060c0840135930135918c613321565b0390a36100186001606555565b6040517f012f9e44000000000000000000000000000000000000000000000000000000008152fd5b60405163d642b7d960e01b8152fd5b6040517f09deb9ec000000000000000000000000000000000000000000000000000000008152fd5b604051633d90fc5560e11b8152fd5b3461039e57602036600319011261039e577f2d5b62420992e5a4afce0e77742636ca2608ef58289fd2e1baa5161ef6e7e41e60206004356122a9816109ee565b6122b161353c565b6122b961364e565b151561086b80547fffffff00ffffffffffffffffffffffffffffffffffffffffffffffffffffffff7cff000000000000000000000000000000000000000000000000000000008460e01b169116179055604051908152a16001606555005b3461039e575f36600319011261039e576020604051468152f35b3461039e575f36600319011261039e57602063ffffffff61086b5460c01c16604051908152f35b6020808201906020835283518092526040830192602060408460051b8301019501935f915b84831061238d5750505050505090565b90919293949584806123ab600193603f198682030187528a5161102f565b980193019301919493929061237d565b3461039e576123c936610fdf565b906123d382613389565b915f5b8181106123eb57604051806111258682612358565b5f806123f8838587612dde565b6040939161240a855180938193612df5565b0390305af490612418612e02565b911561243f57509060019161242d8287612dca565b526124388186612dca565b50016123d6565b90604481511061039e57610dc8612464600492838101516024809183010191016133d2565b925192839262461bcd60e51b845283016132ed565b3461039e57602036600319011261039e576020600435612498816103e2565b6001600160a01b038091165f52610c5c825260405f205416604051908152f35b3461039e575f36600319011261039e5760206001600160a01b0361086a5416604051908152f35b3461039e5760031960603682011261039e5760043567ffffffffffffffff80821161039e5760608236039384011261039e576024359061251e8261043f565b60443590811161039e57612536903690600401610fae565b91909361254161364e565b600484013590610182190181121561039e57610bff946125f69361256e6125ef9360043691890101612b64565b9561258b61258660808901516001600160a01b031690565b61391f565b6125dd61259788613c1a565b9160446125ae60208b01516001600160a01b031690565b916101608b0151946125be6105a1565b9b8c5260208c0152013560408a01526001600160a01b03166060890152565b60808701525f60a087015236916108ad565b90836145f8565b614064565b604090600319011261039e57600435612613816103e2565b9060243561066f816103e2565b3461039e5761262e366125fb565b9061263761353c565b61263f61364e565b6001600160a01b0380911691825f52610c5d6020526126778160405f20906001600160a01b03166001600160a01b0319825416179055565b16907fcb84c2022106a6f2b6f805d446f32fbfd2a528474364fa755f37dac1c0c1b6c85f80a36001606555005b3461039e57602036600319011261039e576004355f52610872602052602060405f2054604051908152f35b3461039e5760c036600319011261039e5767ffffffffffffffff60043581811161039e57612701903690600401610aeb565b6064359061270e826103e2565b60843583811161039e57612726903690600401611220565b9060a43594851161039e57612742610018953690600401611220565b9490936044359060243590613431565b3461039e575f36600319011261039e57602060405163ffffffff8152f35b3461039e575f36600319011261039e57602060ff61086b5460e01c166040519015158152f35b3461039e575f36600319011261039e5760206040516ec097ce7bc90715b34b9f10000000008152f35b3461039e57602036600319011261039e576106fa6004356127df816103e2565b6127e761353c565b610f5861364e565b3461039e575f36600319011261039e576020610c5a546001600160a01b0360405191831c168152f35b634e487b7160e01b5f52603260045260245ffd5b61086c908154811015612866576003915f52027f71cd7344f4eb2efc8e30291f6dbdb44d618ca368ea5425d217c1d604bf26b84d01905f90565b612818565b3461039e57602036600319011261039e5760043561086c5481101561039e5761289560409161282c565b506001815491015482519182526020820152f35b3461039e576128b7366125fb565b906128c061353c565b6128c861364e565b6001600160a01b0380911691825f52610c5c6020526129008160405f20906001600160a01b03166001600160a01b0319825416179055565b16907ff3dc137d2246f9b8abd0bb821e185ba01122c9b3ea3745ffca6208037674d6705f80a36001606555005b3461039e57602036600319011261039e576106fa60043561294d816103e2565b61295561353c565b610f5d61364e565b9161296661364e565b608082019161297f61258684516001600160a01b031690565b602081019182514603612a8057611b886129a79183600161299f8961282c565b5001546139ce565b612a6f578060607ff8bd640004bcec1b89657020f561d0b070cbdf662d0b158db9dccb0a8301bfab9201936129e96129e3865163ffffffff1690565b87613a8e565b612a62845194612a47612a39855195612a2960408201998a51612a108d5163ffffffff1690565b89516001600160a01b03169160a086019b8c5194613afb565b5192519751985163ffffffff1690565b93516001600160a01b031690565b935163ffffffff9485604051968796169a1698339386612aaa565b0390a46103fe6001606555565b600460405163582f497d60e11b8152fd5b60046040517f7a47c9a2000000000000000000000000000000000000000000000000000000008152fd5b95949392919060a0870190875260209060a08289015282518091528160c089019301905f5b818110612b3c575050506001600160a01b03809316604088015286820360608801528080855193848152019401925f905b838210612b235750505050509060806103fe929401906001600160a01b03169052565b8451811686529482019493820193600190910190612b00565b825185529383019391830191600101612acf565b3561066f816103e2565b3561066f8161043f565b91906101808382031261039e57612b796105c1565b92612b83816103f3565b8452612b91602082016103f3565b6020850152612ba2604082016103f3565b6040850152612bb3606082016103f3565b6060850152612bc4608082016103f3565b608085015260a081013560a085015260c081013560c085015260e081013560e0850152610100612bf581830161044d565b90850152610120612c0781830161044d565b90850152610140612c1981830161044d565b90850152610160918282013567ffffffffffffffff811161039e57612c3e9201610654565b90830152565b903590601e198136030182121561039e570180359067ffffffffffffffff821161039e5760200191813603831361039e57565b15612c7e57565b608460405162461bcd60e51b815260206004820152602c60248201527f46756e6374696f6e206d7573742062652063616c6c6564207468726f7567682060448201527f64656c656761746563616c6c00000000000000000000000000000000000000006064820152fd5b15612cef57565b608460405162461bcd60e51b815260206004820152602c60248201527f46756e6374696f6e206d7573742062652063616c6c6564207468726f7567682060448201527f6163746976652070726f787900000000000000000000000000000000000000006064820152fd5b15612d6057565b608460405162461bcd60e51b815260206004820152602b60248201527f496e697469616c697a61626c653a20636f6e7472616374206973206e6f74206960448201527f6e697469616c697a696e670000000000000000000000000000000000000000006064820152fd5b80518210156128665760209160051b010190565b908210156128665761100a9160051b810190612c44565b908092918237015f815290565b3d15612e2c573d90612e1382610602565b91612e21604051938461057f565b82523d5f602084013e565b606090565b908060209392818452848401375f828201840152601f01601f1916010190565b612e719291610eae610f5d92610e8b60ff5f5460081c16610e7381612d59565b6103fe610c5a77deaddeaddeaddeaddeaddeaddeaddeaddead0000000000007fffffffffffffffff0000000000000000000000000000000000000000ffffffff825416179055565b634e487b7160e01b5f52601160045260245ffd5b91909163ffffffff80809416911601918211612ee557565b612eb9565b9692999397909195989a9463ffffffff91612f088342169182612ecd565b91612f1161364e565b61086b9a60ff8c5460e81c1661070157612f47611b88611b818f611b748e6001600160a01b03165f5261086d60205260405f2090565b611dce57612f5583426130f6565b857f00000000000000000000000000000000000000000000000000000000000000001610611da4578484164281109081156130c1575b50611d45576001600160a01b039b8c7f0000000000000000000000000000000000000000000000000000000000000000168d8c16818114806130b8575b1561309e5750823403611cf857803b1561039e575f60049160405192838092630d0e30db60e41b825234905af18015611cf35761308b575b505b5460c01c63ffffffff169e8f6130179061311b565b61303e9061086b9063ffffffff60c01b1963ffffffff60c01b83549260c01b169116179055565b6130489084612ecd565b946040519c8d9c169f169d61305d9a8c613130565b037fa123dc29aebf7d0c3322c8eeb5b999e859f39937950ed31056532713d0de396f91a46103fe6001606555565b80611ce7613098926104fb565b5f613000565b905034611cf857826130b3913090339061448c565b613002565b50341515612fc8565b90506130ef867f00000000000000000000000000000000000000000000000000000000000000001642613103565b105f612f8b565b91908203918211612ee557565b91908201809211612ee557565b6040513d5f823e3d90fd5b63ffffffff809116908114612ee55760010190565b6001600160a01b03918216815291811660208301526040820192909252606081019290925263ffffffff928316608083015292821660a0820152921660c083015291821660e08201529116610100820152610140610120820181905261066f93910191612e31565b9392916020916131b091604087526040870191612e31565b930152565b9060208282031261039e57813567ffffffffffffffff811161039e5761066f9201612b64565b9081602091031261039e57604051906020820182811067ffffffffffffffff8211176104f65760405235815290565b80516001600160a01b0316825261066f91610180906020838101516001600160a01b0316908201526040838101516001600160a01b0316908201526060838101516001600160a01b0316908201526080838101516001600160a01b03169082015260a083015160a082015260c083015160c082015260e083015160e08201526132a1610100808501519083019063ffffffff169052565b6101208381015163ffffffff16908201526101408381015163ffffffff1690820152816101608094015193820152019061102f565b9291906131b060209160408652604086019061320a565b90602061066f92818152019061102f565b634e487b7160e01b5f52602160045260245ffd5b6003111561331c57565b6132fe565b969091939792959461066f9b9995610140996001600160a01b0398898098818098168d521660208c015260408b015260608a015263ffffffff80921660808a01521660a08801521660c08601521660e084015216610100820152816101208201520191612e31565b90613393826107cb565b6133a0604051918261057f565b82815280926133b1601f19916107cb565b01905f5b8281106133c157505050565b8060606020809385010152016133b5565b60208183031261039e5780519067ffffffffffffffff821161039e570181601f8201121561039e57805161340581610602565b92613413604051948561057f565b8184526020828401011161039e5761066f916020808501910161100e565b949096939561343e61364e565b60ff61086b5460e01c16610c4f576040860161346961345c82612b50565b610b5e6101408a01612b5a565b9081613520575b50610c095761347f3687612b64565b61348890613c1a565b976134916105a1565b9861349c3689612b64565b8a5260208a0152604089018490526001600160a01b03851660608a01526134c436848a61061e565b60808a015260a08901526134d786612b50565b966134e56101008801612b5a565b9236906134f19261061e565b9436906134fd9261061e565b9460e001359061350c96614386565b3361351691613d53565b6103fe6001606555565b61352a9150612b50565b6001600160a01b03163314155f613470565b734200000000000000000000000000000000000007803303613624576020600491604051928380927f6e296e450000000000000000000000000000000000000000000000000000000082525afa908115611cf3575f916135f5575b506001600160a01b036135c26135b6610869546001600160a01b031690565b6001600160a01b031690565b9116036135cb57565b60046040517f36a816d9000000000000000000000000000000000000000000000000000000008152fd5b613617915060203d60201161361d575b61360f818361057f565b810190614688565b5f613597565b503d613605565b60046040517f4a74df92000000000000000000000000000000000000000000000000000000008152fd5b60026065541461365f576002606555565b606460405162461bcd60e51b815260206004820152601f60248201527f5265656e7472616e637947756172643a207265656e7472616e742063616c6c006044820152fd5b929361066f9695919294610140956001600160a01b0380951686525f60208701526040860152606085015263ffffffff809116608085015260a08401525f60c08401521660e08201525f61010082015281610120820152019061102f565b919596939492909261372f611b88611b8188611b748b6001600160a01b03165f5261086d60205260405f2090565b611dce5760070b936706f05b59d3b200006137498661469d565b10156138f5576ec097ce7bc90715b34b9f100000000082116138cb5763ffffffff93613777858a16426130f6565b857f00000000000000000000000000000000000000000000000000000000000000001610611da45761086b5460c01c63ffffffff16986137b9610e8b8b61311b565b6001600160a01b0395867f00000000000000000000000000000000000000000000000000000000000000001694878b16868114806138c2575b156138855750803403611cf857853b1561039e575f60049660405197888092630d0e30db60e41b825234905af18015611cf3577fa123dc29aebf7d0c3322c8eeb5b999e859f39937950ed31056532713d0de396f9961386d9761385c92613872575b505b826146ac565b91604051988998169c169a876136a3565b0390a4565b80611ce761387f926104fb565b5f613854565b61386d96507fa123dc29aebf7d0c3322c8eeb5b999e859f39937950ed31056532713d0de396f996138bd8361385c933090339061448c565b613856565b503415156137f2565b60046040517fc45b6b52000000000000000000000000000000000000000000000000000000008152fd5b60046040517fa13c425c000000000000000000000000000000000000000000000000000000008152fd5b6001600160a01b037f0000000000000000000000000000000000000000000000000000000000000000811691168114613956575b50565b4761395e5750565b4790803b1561039e575f90600460405180948193630d0e30db60e41b83525af18015611cf35715613953576103fe906104fb565b9081518082526020808093019301915f5b8281106139b1575050505090565b83516001600160a01b0316855293810193928101926001016139a3565b6040805160208082018181528551838501528186015160608401529285015160c0608084015280516101008401819052610120840198979692918201915f5b828110613a7a575050505081613a6361066f979860a084613a3d6060613a719701518387019063ffffffff169052565b60808101516001600160a01b031660c08601520151838203603f190160e0850152613992565b03601f19810183528261057f565b519020916146e2565b83518b529981019992810192600101613a0d565b613a9960029161282c565b500162ffffff8260081c16805f5281602052600160ff60405f205494161b8080941614613ad1575f5260205260405f20908154179055565b60046040517f954476d9000000000000000000000000000000000000000000000000000000008152fd5b9294939190938051825103613bc9578151915f5b838110613b7b575050505082613b26575b50505050565b6001600160a01b0381613b5a7f828fc203220356df8f072a91681caee7d5c75095e2a95e80ed5a14b384697f71938661478f565b6040805195865233602087015291169463ffffffff1693a45f808080613b20565b80613b8860019284612dca565b5180613b96575b5001613b0f565b613bc390613bb4613ba78488612dca565b516001600160a01b031690565b6001600160a01b038916614733565b5f613b8f565b60046040517fcd298b38000000000000000000000000000000000000000000000000000000008152fd5b9163ffffffff809116911610159081613c0a575090565b6001600160a01b03915016151590565b604051613c3181613a6360208201944690866132d6565b51902090565b613c4082613312565b52565b906001600160a01b038251168152606080613c6d602085015160806020860152608085019061102f565b9360408101516040850152015191613c8483613312565b015290565b9a97909695613d079661066f9d9b9660808e613cf698613d169e986101809d6001600160a01b03998a80921685521660208401526040830152606082015201528c60a063ffffffff8094169101521660c08c01521660e08a01526101008901906001600160a01b03169052565b6001600160a01b0316610120870152565b8061014086015284019061102f565b91610160818403910152613c43565b9061066f94936080936001600160a01b0380931684526020840152166040820152816060820152019061102f565b90815190610120820190613d6b825163ffffffff1690565b63ffffffff429116106140535760208401516001613d92825f5261087260205260405f2090565b540361404c576001905b6002613db1825f5261087260205260405f2090565b541461402257613dca905f5261087260205260405f2090565b6002905560608401516001600160a01b031660808501516001600160a01b03169260a0860151918760c0880151948860a08301519660e082015197610100830151613e189063ffffffff1690565b9a5163ffffffff1661014084015163ffffffff16906040850151613e42906001600160a01b031690565b928551613e55906001600160a01b031690565b946020870151613e6b906001600160a01b031690565b9661016001519760608a0151613e87906001600160a01b031690565b996080810151906040015190613e9b6105e2565b6001600160a01b03909c168c5260208c015260408b0152613ebf9060608b01613c37565b6040519b6001600160a01b038d9c169f63ffffffff169e613ee09b8d613c89565b037f571749edf1d5c9599318cdbc4e28a6475d65e87fd3b2ddbe1e9a8d5e7a0f0ff791a4608001516001600160a01b0316906040810151906060810151613f2d906001600160a01b031690565b80916001600160a01b038516847f00000000000000000000000000000000000000000000000000000000000000006001600160a01b031682145f14936080946140125750613f7e913090339061448c565b613f91846001600160a01b0385166148b6565b0151908151151580614008575b613fa85750505050565b6001600160a01b0316803b1561039e57613fde935f809460405196879586948593633a5be8cb60e01b8552339160048601613d25565b03925af18015611cf357613ff5575b808080613b20565b80611ce7614002926104fb565b5f613fed565b50803b1515613f9e565b61401d92339061448c565b613f91565b60046040517f8f260c60000000000000000000000000000000000000000000000000000000008152fd5b5f90613d9c565b600460405163d642b7d960e01b8152fd5b905f8251610120810161407b815163ffffffff1690565b63ffffffff4291161061405357602085015160026140a2825f5261087260205260405f2090565b5414614022576140bb905f5261087260205260405f2090565b6002905560608201516001600160a01b031660808301516001600160a01b03169060a08401519260c0850151918860a0810151938760e0810151956101008201516141099063ffffffff1690565b955163ffffffff1661014083015163ffffffff1660408401516001600160a01b031691845161413e906001600160a01b031690565b936020860151614154906001600160a01b031690565b956101600151966060890151614170906001600160a01b031690565b9860808101519060400151906141846105e2565b6001600160a01b03909b168b5260208b015260408a0152600260608a01526040519d63ffffffff8f9c169d6141b99b8d613c89565b037f571749edf1d5c9599318cdbc4e28a6475d65e87fd3b2ddbe1e9a8d5e7a0f0ff7905f94a4608001516001600160a01b0316926040810151936060820151614208906001600160a01b031690565b916001600160a01b0390828216877f0000000000000000000000000000000000000000000000000000000000000000841682036142ef579060809291876142db575b61425791508487166148b6565b01519283511515806142d1575b614272575b50505050509050565b1690813b156142cd57836142a0959660405196879586948593633a5be8cb60e01b8552339160048601613d25565b03925af18015611cf3576142ba575b808080808594614269565b80611ce76142c7926104fb565b5f6142af565b8380fd5b50803b1515614264565b6142e8913090339061448c565b5f8861424a565b60809291965061430190865f98614733565b614257565b9081602091031261039e575190565b1561431c57565b608460405162461bcd60e51b815260206004820152602960248201527f45524331393637557067726164653a20756e737570706f727465642070726f7860448201527f6961626c655555494400000000000000000000000000000000000000000000006064820152fd5b93926042936001600160a01b036103fe989760208151910120916040519363ffffffff60208601967f152eb71524aef34d838ab76573c14b1ebfa5e385d9ab29d7cf5398daa2438bd9885216604086015286606086015260808501521660a083015260c082015260c081526143fa81610547565b5190209061047f549061048054906040519160208301937fc2f8787176b8ac6bf7215b4adcc1e069bf4ab82d9ab1df05a57a91d425935b6e85526040840152606083015260808201526080815261445081610563565b51902090604051917f19010000000000000000000000000000000000000000000000000000000000008352600283015260228201522090614bf0565b90926103fe93604051937f23b872dd0000000000000000000000000000000000000000000000000000000060208601526001600160a01b0380921660248601521660448401526064830152606482526144e482610563565b614cff565b6103fe60ff5f5460081c16612d59565b61450d60ff5f5460081c16610f3381612d59565b6001606555565b6001600160a01b0316801561455c57610869816001600160a01b03198254161790557fa9e8c42c9e7fca7f62755189a16b2f5314d43d8fb24e91ba54e6d65f9314e8495f80a2565b60046040517fba97b39d000000000000000000000000000000000000000000000000000000008152fd5b6001600160a01b031680156145ce5761086a816001600160a01b03198254161790557fa73e8909f8616742d7fe701153d82666f7b7cd480552e23ebb05d358c22fd04e5f80a2565b60046040517fb6061256000000000000000000000000000000000000000000000000000000008152fd5b91611b8890614671928451604080960151918651916146168361050f565b8252613a71614631602084019246845289850195865261282c565b50549388519283916146566020840196602088525160608d86015260a085019061320a565b9151606084015251608083015203601f19810183528261057f565b6146785750565b6004905163582f497d60e11b8152fd5b9081602091031261039e575161066f816103e2565b5f81126146a75790565b5f0390565b90670de0b6b3a7640000915f828403921283831281169084841390151617612ee557818102918183041490151715612ee5570490565b929091905f915b845183101561472b576146fc8386612dca565b51908181101561471a575f52602052600160405f205b9201916146e9565b905f52602052600160405f20614712565b915092501490565b6040517fa9059cbb0000000000000000000000000000000000000000000000000000000060208201526001600160a01b03909216602483015260448201929092526103fe916144e482606481015b03601f19810184528361057f565b907f0000000000000000000000000000000000000000000000000000000000000000906001600160a01b0380831681831614908161488b575b50156148805750816147d991615182565b61086a546001600160a01b0316610c5a5463ffffffff16738be79275fcfd08a931087ecf70ba8a99aee3ac59803b1561039e576040517f4c598b560000000000000000000000000000000000000000000000000000000081526001600160a01b039093166004840152602483019390935263ffffffff166044820152905f908290818381606481015b03925af18015611cf3576148735750565b80611ce76103fe926104fb565b90506103fe91614df9565b90507f000000000000000000000000000000000000000000000000000000000000000016155f6147c8565b6001600160a01b0390811690813b156148f657906103fe92917f000000000000000000000000000000000000000000000000000000000000000016614733565b7f000000000000000000000000000000000000000000000000000000000000000016803b1561039e575f8091602460405180948193632e1a7d4d60e01b83528860048401525af18015611cf357614a16575b508147106149d2575f80809381935af1614960612e02565b501561496857565b608460405162461bcd60e51b815260206004820152603a60248201527f416464726573733a20756e61626c6520746f2073656e642076616c75652c207260448201527f6563697069656e74206d617920686176652072657665727465640000000000006064820152fd5b606460405162461bcd60e51b815260206004820152601d60248201527f416464726573733a20696e73756666696369656e742062616c616e63650000006044820152fd5b614a1f906104fb565b5f614948565b90614a2f82614b43565b6001600160a01b0382167fbc7cd75a20ee27fd9adebab32041f755214dbc6bffa90cc0225b39da2e5c2d3b5f80a2805115801590614aea575b614a70575050565b613953915f8060405193614a838561050f565b602785527f416464726573733a206c6f772d6c6576656c2064656c65676174652063616c6c60208601527f206661696c6564000000000000000000000000000000000000000000000000006040860152602081519101845af4614ae4612e02565b9161557b565b505f614a68565b90614afb82614b43565b6001600160a01b0382167fbc7cd75a20ee27fd9adebab32041f755214dbc6bffa90cc0225b39da2e5c2d3b5f80a2805115801590614b3b57614a70575050565b506001614a68565b803b15614b86576001600160a01b037f360894a13ba1a3210667c828492db98dca3e2076cc3735a920a3ca505d382bbc91166001600160a01b0319825416179055565b608460405162461bcd60e51b815260206004820152602d60248201527f455243313936373a206e657720696d706c656d656e746174696f6e206973206e60448201527f6f74206120636f6e7472616374000000000000000000000000000000000000006064820152fd5b614bfa838361554a565b600581959295101561331c57159384614ce9575b508315614c4a575b50505015614c2057565b60046040517f938a1821000000000000000000000000000000000000000000000000000000008152fd5b5f929350908291604051614c9b81613a6360208201947f1626ba7e00000000000000000000000000000000000000000000000000000000998a8752602484015260406044840152606483019061102f565b51915afa90614ca8612e02565b82614cdb575b82614cbe575b50505f8080614c16565b614cd391925060208082518301019101614306565b145f80614cb4565b915060208251101591614cae565b6001600160a01b0383811691161493505f614c0e565b604051614d56916001600160a01b0316614d18826104da565b5f806020958685527f5361666545524332303a206c6f772d6c6576656c2063616c6c206661696c656487860152868151910182855af1614ae4612e02565b8051828115918215614dd9575b5050905015614d6f5750565b6084906040519062461bcd60e51b82526004820152602a60248201527f5361666545524332303a204552433230206f7065726174696f6e20646964206e60448201527f6f742073756363656564000000000000000000000000000000000000000000006064820152fd5b838092935001031261039e57810151614df1816109ee565b80825f614d63565b906001600160a01b0390818116907f000000000000000000000000000000000000000000000000000000000000000083168203614f135750803b1561039e575f6040518092632e1a7d4d60e01b8252818381614e5d89600483019190602083019252565b03925af18015611cf357614f00575b50610c5a5491614e8561086a546001600160a01b031690565b73420000000000000000000000000000000000001090813b1561039e57604051631474f2a960e31b81526001600160a01b03602087901c90951685166004820152931660248401526044830182905263ffffffff909316606483015260a060848301525f60a483018190529192839182908160c48101614862565b80611ce7614f0d926104fb565b5f614e6c565b91807f000000000000000000000000000000000000000000000000000000000000000016151580615157575b15614f63575050506103fe90614f5e61086a546001600160a01b031690565b61530c565b80614f90614f83856001600160a01b03165f52610c5c60205260405f2090565b546001600160a01b031690565b16615133577342000000000000000000000000000000000000105b1690614fcf6135b6614f83856001600160a01b03165f52610c5d60205260405f2090565b156150ad578382614fdf9261523f565b614ffe614f83836001600160a01b03165f52610c5d60205260405f2090565b9061501261086a546001600160a01b031690565b91615023610c5a5463ffffffff1690565b823b1561039e576040517f540abf730000000000000000000000000000000000000000000000000000000081526001600160a01b0395861660048201529185166024830152929093166044840152606483019390935263ffffffff16608482015260c060a48201525f60c482018190529091829060e490829084905af18015611cf3576148735750565b50916150c261086a546001600160a01b031690565b926150d3610c5a5463ffffffff1690565b93813b1561039e575f809461486260405197889687958694631474f2a960e31b8652600486019260c0949163ffffffff936001600160a01b038092168652166020850152604084015216606082015260a060808201525f60a08201520190565b615152614f83846001600160a01b03165f52610c5c60205260405f2090565b614fab565b50807f0000000000000000000000000000000000000000000000000000000000000000168214614f3f565b9060405190636eb1769f60e11b8252306004830152738be79275fcfd08a931087ecf70ba8a99aee3ac5960248301526020826044816001600160a01b0387165afa918215611cf3575f9261521e575b508101809111612ee55760405163095ea7b360e01b6020820152738be79275fcfd08a931087ecf70ba8a99aee3ac59602482015260448101919091526103fe916144e48260648101614781565b61523891925060203d602011610e0957610dfa818361057f565b905f6151d1565b604051636eb1769f60e11b81523060048201526001600160a01b03831660248201529192602083806044810103816001600160a01b0386165afa928315611cf3575f936152cb575b508201809211612ee55760405163095ea7b360e01b60208201526001600160a01b03909316602484015260448301919091526103fe91906144e48260648101614781565b6152e591935060203d602011610e0957610dfa818361057f565b915f615287565b9081602091031261039e575167ffffffffffffffff8116810361039e5790565b7f0000000000000000000000000000000000000000000000000000000000000000906001600160a01b0392837f0000000000000000000000000000000000000000000000000000000000000000169161536682848661523f565b604092604051937fcb75c11c0000000000000000000000000000000000000000000000000000000085526020936004908587600481875afa978815611cf35789975f99615523575b506040517fa56ec6320000000000000000000000000000000000000000000000000000000081526001600160a01b03918916918216600482015299909887918b9190829081602481015b0392165afa988915611cf3575f99615504575b509390951696947f000000000000000000000000000000000000000000000000000000000000000093805b61544557505050505050505050565b6154af90878111156154fe5787905b84517f6fd3504e00000000000000000000000000000000000000000000000000000000815284810183815263ffffffff89166020820152604081018d90526001600160a01b038c166060820152909389918591829160800190565b03815f8a5af1928315611cf3576154cb936154d1575b506130f6565b80615436565b6154f090893d8b116154f7575b6154e8818361057f565b8101906152ec565b505f6154c5565b503d6154de565b80615454565b61551c919950863d8811610e0957610dfa818361057f565b975f61540b565b87919950886155416153f892843d861161361d5761360f818361057f565b9a9250506153ae565b9060418151145f146155725761100a91602082015190606060408401519301515f1a90615613565b50505f90600290565b919290156155dc575081511561558f575090565b3b156155985790565b606460405162461bcd60e51b815260206004820152601d60248201527f416464726573733a2063616c6c20746f206e6f6e2d636f6e74726163740000006044820152fd5b8251909150156155ef5750805190602001fd5b610dc89060405191829162461bcd60e51b835260206004840152602483019061102f565b7f7fffffffffffffffffffffffffffffff5d576e7357a4501ddfe92f46681b20a08411615683576020935f9360ff60809460405194855216868401526040830152606082015282805260015afa15611cf3575f516001600160a01b0381161561567b57905f90565b505f90600190565b505050505f9060039056fea2646970667358221220ddae89b03d612065a6f55f8ed261569b958e8e395af49dc3f8df83240af0b90f64736f6c63430008170033"
}