{
  "address": "0x9552a0a6624A23B848060AE5901659CDDa1f83f8",
  "abi": [
    {
      "inputs": [
        {
          "internalType": "address",
          "name": "_wrappedNativeTokenAddress",
          "type": "address"
        },
        {
          "internalType": "uint32",
          "name": "_depositQuoteTimeBuffer",
          "type": "uint32"
        },
        {
          "internalType": "uint32",
          "name": "_fillDeadlineBuffer",
          "type": "uint32"
        },
        {
          "internalType": "contract IERC20",
          "name": "_l2Usdc",
          "type": "address"
        },
        {
          "internalType": "contract ITokenMessenger",
          "name": "_cctpTokenMessenger",
          "type": "address"
        }
      ],
      "stateMutability": "nonpayable",
      "type": "constructor"
    },
    {
      "inputs": [],
      "name": "ClaimedMerkleLeaf",
      "type": "error"
    },
    {
      "inputs": [],
      "name": "DepositsArePaused",
      "type": "error"
    },
    {
      "inputs": [],
      "name": "DisabledRoute",
      "type": "error"
    },
    {
      "inputs": [],
      "name": "ExpiredFillDeadline",
      "type": "error"
    },
    {
      "inputs": [],
      "name": "FillsArePaused",
      "type": "error"
    },
    {
      "inputs": [],
      "name": "InsufficientSpokePoolBalanceToExecuteLeaf",
      "type": "error"
    },
    {
      "inputs": [],
      "name": "InvalidBytes32",
      "type": "error"
    },
    {
      "inputs": [],
      "name": "InvalidChainId",
      "type": "error"
    },
    {
      "inputs": [],
      "name": "InvalidCrossDomainAdmin",
      "type": "error"
    },
    {
      "inputs": [],
      "name": "InvalidDepositorSignature",
      "type": "error"
    },
    {
      "inputs": [],
      "name": "InvalidExclusiveRelayer",
      "type": "error"
    },
    {
      "inputs": [],
      "name": "InvalidFillDeadline",
      "type": "error"
    },
    {
      "inputs": [],
      "name": "InvalidMerkleLeaf",
      "type": "error"
    },
    {
      "inputs": [],
      "name": "InvalidMerkleProof",
      "type": "error"
    },
    {
      "inputs": [],
      "name": "InvalidPayoutAdjustmentPct",
      "type": "error"
    },
    {
      "inputs": [],
      "name": "InvalidQuoteTimestamp",
      "type": "error"
    },
    {
      "inputs": [],
      "name": "InvalidRelayerFeePct",
      "type": "error"
    },
    {
      "inputs": [],
      "name": "InvalidSlowFillRequest",
      "type": "error"
    },
    {
      "inputs": [],
      "name": "InvalidWithdrawalRecipient",
      "type": "error"
    },
    {
      "inputs": [
        {
          "internalType": "bytes",
          "name": "data",
          "type": "bytes"
        }
      ],
      "name": "LowLevelCallFailed",
      "type": "error"
    },
    {
      "inputs": [],
      "name": "MaxTransferSizeExceeded",
      "type": "error"
    },
    {
      "inputs": [],
      "name": "MsgValueDoesNotMatchInputAmount",
      "type": "error"
    },
    {
      "inputs": [],
      "name": "NoRelayerRefundToClaim",
      "type": "error"
    },
    {
      "inputs": [],
      "name": "NoSlowFillsInExclusivityWindow",
      "type": "error"
    },
    {
      "inputs": [],
      "name": "NotCrossChainCall",
      "type": "error"
    },
    {
      "inputs": [],
      "name": "NotCrossDomainAdmin",
      "type": "error"
    },
    {
      "inputs": [],
      "name": "NotEOA",
      "type": "error"
    },
    {
      "inputs": [],
      "name": "NotExclusiveRelayer",
      "type": "error"
    },
    {
      "inputs": [],
      "name": "RelayFilled",
      "type": "error"
    },
    {
      "inputs": [],
      "name": "WrongERC7683OrderId",
      "type": "error"
    },
    {
      "anonymous": false,
      "inputs": [
        {
          "indexed": false,
          "internalType": "address",
          "name": "previousAdmin",
          "type": "address"
        },
        {
          "indexed": false,
          "internalType": "address",
          "name": "newAdmin",
          "type": "address"
        }
      ],
      "name": "AdminChanged",
      "type": "event"
    },
    {
      "anonymous": false,
      "inputs": [
        {
          "indexed": true,
          "internalType": "address",
          "name": "beacon",
          "type": "address"
        }
      ],
      "name": "BeaconUpgraded",
      "type": "event"
    },
    {
      "anonymous": false,
      "inputs": [
        {
          "indexed": true,
          "internalType": "bytes32",
          "name": "l2TokenAddress",
          "type": "bytes32"
        },
        {
          "indexed": true,
          "internalType": "bytes32",
          "name": "refundAddress",
          "type": "bytes32"
        },
        {
          "indexed": false,
          "internalType": "uint256",
          "name": "amount",
          "type": "uint256"
        },
        {
          "indexed": true,
          "internalType": "address",
          "name": "caller",
          "type": "address"
        }
      ],
      "name": "ClaimedRelayerRefund",
      "type": "event"
    },
    {
      "anonymous": false,
      "inputs": [
        {
          "indexed": true,
          "internalType": "uint256",
          "name": "rootBundleId",
          "type": "uint256"
        }
      ],
      "name": "EmergencyDeletedRootBundle",
      "type": "event"
    },
    {
      "anonymous": false,
      "inputs": [
        {
          "indexed": true,
          "internalType": "address",
          "name": "originToken",
          "type": "address"
        },
        {
          "indexed": true,
          "internalType": "uint256",
          "name": "destinationChainId",
          "type": "uint256"
        },
        {
          "indexed": false,
          "internalType": "bool",
          "name": "enabled",
          "type": "bool"
        }
      ],
      "name": "EnabledDepositRoute",
      "type": "event"
    },
    {
      "anonymous": false,
      "inputs": [
        {
          "indexed": false,
          "internalType": "uint256",
          "name": "amountToReturn",
          "type": "uint256"
        },
        {
          "indexed": true,
          "internalType": "uint256",
          "name": "chainId",
          "type": "uint256"
        },
        {
          "indexed": false,
          "internalType": "uint256[]",
          "name": "refundAmounts",
          "type": "uint256[]"
        },
        {
          "indexed": true,
          "internalType": "uint32",
          "name": "rootBundleId",
          "type": "uint32"
        },
        {
          "indexed": true,
          "internalType": "uint32",
          "name": "leafId",
          "type": "uint32"
        },
        {
          "indexed": false,
          "internalType": "address",
          "name": "l2TokenAddress",
          "type": "address"
        },
        {
          "indexed": false,
          "internalType": "address[]",
          "name": "refundAddresses",
          "type": "address[]"
        },
        {
          "indexed": false,
          "internalType": "bool",
          "name": "deferredRefunds",
          "type": "bool"
        },
        {
          "indexed": false,
          "internalType": "address",
          "name": "caller",
          "type": "address"
        }
      ],
      "name": "ExecutedRelayerRefundRoot",
      "type": "event"
    },
    {
      "anonymous": false,
      "inputs": [
        {
          "indexed": false,
          "internalType": "bytes32",
          "name": "inputToken",
          "type": "bytes32"
        },
        {
          "indexed": false,
          "internalType": "bytes32",
          "name": "outputToken",
          "type": "bytes32"
        },
        {
          "indexed": false,
          "internalType": "uint256",
          "name": "inputAmount",
          "type": "uint256"
        },
        {
          "indexed": false,
          "internalType": "uint256",
          "name": "outputAmount",
          "type": "uint256"
        },
        {
          "indexed": false,
          "internalType": "uint256",
          "name": "repaymentChainId",
          "type": "uint256"
        },
        {
          "indexed": true,
          "internalType": "uint256",
          "name": "originChainId",
          "type": "uint256"
        },
        {
          "indexed": true,
          "internalType": "uint256",
          "name": "depositId",
          "type": "uint256"
        },
        {
          "indexed": false,
          "internalType": "uint32",
          "name": "fillDeadline",
          "type": "uint32"
        },
        {
          "indexed": false,
          "internalType": "uint32",
          "name": "exclusivityDeadline",
          "type": "uint32"
        },
        {
          "indexed": false,
          "internalType": "bytes32",
          "name": "exclusiveRelayer",
          "type": "bytes32"
        },
        {
          "indexed": true,
          "internalType": "bytes32",
          "name": "relayer",
          "type": "bytes32"
        },
        {
          "indexed": false,
          "internalType": "bytes32",
          "name": "depositor",
          "type": "bytes32"
        },
        {
          "indexed": false,
          "internalType": "bytes32",
          "name": "recipient",
          "type": "bytes32"
        },
        {
          "indexed": false,
          "internalType": "bytes32",
          "name": "messageHash",
          "type": "bytes32"
        },
        {
          "components": [
            {
              "internalType": "bytes32",
              "name": "updatedRecipient",
              "type": "bytes32"
            },
            {
              "internalType": "bytes32",
              "name": "updatedMessageHash",
              "type": "bytes32"
            },
            {
              "internalType": "uint256",
              "name": "updatedOutputAmount",
              "type": "uint256"
            },
            {
              "internalType": "enum V3SpokePoolInterface.FillType",
              "name": "fillType",
              "type": "uint8"
            }
          ],
          "indexed": false,
          "internalType": "struct V3SpokePoolInterface.V3RelayExecutionEventInfo",
          "name": "relayExecutionInfo",
          "type": "tuple"
        }
      ],
      "name": "FilledRelay",
      "type": "event"
    },
    {
      "anonymous": false,
      "inputs": [
        {
          "indexed": false,
          "internalType": "address",
          "name": "inputToken",
          "type": "address"
        },
        {
          "indexed": false,
          "internalType": "address",
          "name": "outputToken",
          "type": "address"
        },
        {
          "indexed": false,
          "internalType": "uint256",
          "name": "inputAmount",
          "type": "uint256"
        },
        {
          "indexed": false,
          "internalType": "uint256",
          "name": "outputAmount",
          "type": "uint256"
        },
        {
          "indexed": false,
          "internalType": "uint256",
          "name": "repaymentChainId",
          "type": "uint256"
        },
        {
          "indexed": true,
          "internalType": "uint256",
          "name": "originChainId",
          "type": "uint256"
        },
        {
          "indexed": true,
          "internalType": "uint32",
          "name": "depositId",
          "type": "uint32"
        },
        {
          "indexed": false,
          "internalType": "uint32",
          "name": "fillDeadline",
          "type": "uint32"
        },
        {
          "indexed": false,
          "internalType": "uint32",
          "name": "exclusivityDeadline",
          "type": "uint32"
        },
        {
          "indexed": false,
          "internalType": "address",
          "name": "exclusiveRelayer",
          "type": "address"
        },
        {
          "indexed": true,
          "internalType": "address",
          "name": "relayer",
          "type": "address"
        },
        {
          "indexed": false,
          "internalType": "address",
          "name": "depositor",
          "type": "address"
        },
        {
          "indexed": false,
          "internalType": "address",
          "name": "recipient",
          "type": "address"
        },
        {
          "indexed": false,
          "internalType": "bytes",
          "name": "message",
          "type": "bytes"
        },
        {
          "components": [
            {
              "internalType": "address",
              "name": "updatedRecipient",
              "type": "address"
            },
            {
              "internalType": "bytes",
              "name": "updatedMessage",
              "type": "bytes"
            },
            {
              "internalType": "uint256",
              "name": "updatedOutputAmount",
              "type": "uint256"
            },
            {
              "internalType": "enum V3SpokePoolInterface.FillType",
              "name": "fillType",
              "type": "uint8"
            }
          ],
          "indexed": false,
          "internalType": "struct V3SpokePoolInterface.LegacyV3RelayExecutionEventInfo",
          "name": "relayExecutionInfo",
          "type": "tuple"
        }
      ],
      "name": "FilledV3Relay",
      "type": "event"
    },
    {
      "anonymous": false,
      "inputs": [
        {
          "indexed": false,
          "internalType": "bytes32",
          "name": "inputToken",
          "type": "bytes32"
        },
        {
          "indexed": false,
          "internalType": "bytes32",
          "name": "outputToken",
          "type": "bytes32"
        },
        {
          "indexed": false,
          "internalType": "uint256",
          "name": "inputAmount",
          "type": "uint256"
        },
        {
          "indexed": false,
          "internalType": "uint256",
          "name": "outputAmount",
          "type": "uint256"
        },
        {
          "indexed": true,
          "internalType": "uint256",
          "name": "destinationChainId",
          "type": "uint256"
        },
        {
          "indexed": true,
          "internalType": "uint256",
          "name": "depositId",
          "type": "uint256"
        },
        {
          "indexed": false,
          "internalType": "uint32",
          "name": "quoteTimestamp",
          "type": "uint32"
        },
        {
          "indexed": false,
          "internalType": "uint32",
          "name": "fillDeadline",
          "type": "uint32"
        },
        {
          "indexed": false,
          "internalType": "uint32",
          "name": "exclusivityDeadline",
          "type": "uint32"
        },
        {
          "indexed": true,
          "internalType": "bytes32",
          "name": "depositor",
          "type": "bytes32"
        },
        {
          "indexed": false,
          "internalType": "bytes32",
          "name": "recipient",
          "type": "bytes32"
        },
        {
          "indexed": false,
          "internalType": "bytes32",
          "name": "exclusiveRelayer",
          "type": "bytes32"
        },
        {
          "indexed": false,
          "internalType": "bytes",
          "name": "message",
          "type": "bytes"
        }
      ],
      "name": "FundsDeposited",
      "type": "event"
    },
    {
      "anonymous": false,
      "inputs": [
        {
          "indexed": false,
          "internalType": "uint8",
          "name": "version",
          "type": "uint8"
        }
      ],
      "name": "Initialized",
      "type": "event"
    },
    {
      "anonymous": false,
      "inputs": [
        {
          "indexed": false,
          "internalType": "bool",
          "name": "isPaused",
          "type": "bool"
        }
      ],
      "name": "PausedDeposits",
      "type": "event"
    },
    {
      "anonymous": false,
      "inputs": [
        {
          "indexed": false,
          "internalType": "bool",
          "name": "isPaused",
          "type": "bool"
        }
      ],
      "name": "PausedFills",
      "type": "event"
    },
    {
      "anonymous": false,
      "inputs": [
        {
          "indexed": true,
          "internalType": "uint32",
          "name": "rootBundleId",
          "type": "uint32"
        },
        {
          "indexed": true,
          "internalType": "bytes32",
          "name": "relayerRefundRoot",
          "type": "bytes32"
        },
        {
          "indexed": true,
          "internalType": "bytes32",
          "name": "slowRelayRoot",
          "type": "bytes32"
        }
      ],
      "name": "RelayedRootBundle",
      "type": "event"
    },
    {
      "anonymous": false,
      "inputs": [
        {
          "indexed": false,
          "internalType": "bytes32",
          "name": "inputToken",
          "type": "bytes32"
        },
        {
          "indexed": false,
          "internalType": "bytes32",
          "name": "outputToken",
          "type": "bytes32"
        },
        {
          "indexed": false,
          "internalType": "uint256",
          "name": "inputAmount",
          "type": "uint256"
        },
        {
          "indexed": false,
          "internalType": "uint256",
          "name": "outputAmount",
          "type": "uint256"
        },
        {
          "indexed": true,
          "internalType": "uint256",
          "name": "originChainId",
          "type": "uint256"
        },
        {
          "indexed": true,
          "internalType": "uint256",
          "name": "depositId",
          "type": "uint256"
        },
        {
          "indexed": false,
          "internalType": "uint32",
          "name": "fillDeadline",
          "type": "uint32"
        },
        {
          "indexed": false,
          "internalType": "uint32",
          "name": "exclusivityDeadline",
          "type": "uint32"
        },
        {
          "indexed": false,
          "internalType": "bytes32",
          "name": "exclusiveRelayer",
          "type": "bytes32"
        },
        {
          "indexed": false,
          "internalType": "bytes32",
          "name": "depositor",
          "type": "bytes32"
        },
        {
          "indexed": false,
          "internalType": "bytes32",
          "name": "recipient",
          "type": "bytes32"
        },
        {
          "indexed": false,
          "internalType": "bytes32",
          "name": "messageHash",
          "type": "bytes32"
        }
      ],
      "name": "RequestedSlowFill",
      "type": "event"
    },
    {
      "anonymous": false,
      "inputs": [
        {
          "indexed": false,
          "internalType": "uint256",
          "name": "updatedOutputAmount",
          "type": "uint256"
        },
        {
          "indexed": true,
          "internalType": "uint256",
          "name": "depositId",
          "type": "uint256"
        },
        {
          "indexed": true,
          "internalType": "bytes32",
          "name": "depositor",
          "type": "bytes32"
        },
        {
          "indexed": false,
          "internalType": "bytes32",
          "name": "updatedRecipient",
          "type": "bytes32"
        },
        {
          "indexed": false,
          "internalType": "bytes",
          "name": "updatedMessage",
          "type": "bytes"
        },
        {
          "indexed": false,
          "internalType": "bytes",
          "name": "depositorSignature",
          "type": "bytes"
        }
      ],
      "name": "RequestedSpeedUpDeposit",
      "type": "event"
    },
    {
      "anonymous": false,
      "inputs": [
        {
          "indexed": false,
          "internalType": "uint256",
          "name": "updatedOutputAmount",
          "type": "uint256"
        },
        {
          "indexed": true,
          "internalType": "uint32",
          "name": "depositId",
          "type": "uint32"
        },
        {
          "indexed": true,
          "internalType": "address",
          "name": "depositor",
          "type": "address"
        },
        {
          "indexed": false,
          "internalType": "address",
          "name": "updatedRecipient",
          "type": "address"
        },
        {
          "indexed": false,
          "internalType": "bytes",
          "name": "updatedMessage",
          "type": "bytes"
        },
        {
          "indexed": false,
          "internalType": "bytes",
          "name": "depositorSignature",
          "type": "bytes"
        }
      ],
      "name": "RequestedSpeedUpV3Deposit",
      "type": "event"
    },
    {
      "anonymous": false,
      "inputs": [
        {
          "indexed": false,
          "internalType": "address",
          "name": "inputToken",
          "type": "address"
        },
        {
          "indexed": false,
          "internalType": "address",
          "name": "outputToken",
          "type": "address"
        },
        {
          "indexed": false,
          "internalType": "uint256",
          "name": "inputAmount",
          "type": "uint256"
        },
        {
          "indexed": false,
          "internalType": "uint256",
          "name": "outputAmount",
          "type": "uint256"
        },
        {
          "indexed": true,
          "internalType": "uint256",
          "name": "originChainId",
          "type": "uint256"
        },
        {
          "indexed": true,
          "internalType": "uint32",
          "name": "depositId",
          "type": "uint32"
        },
        {
          "indexed": false,
          "internalType": "uint32",
          "name": "fillDeadline",
          "type": "uint32"
        },
        {
          "indexed": false,
          "internalType": "uint32",
          "name": "exclusivityDeadline",
          "type": "uint32"
        },
        {
          "indexed": false,
          "internalType": "address",
          "name": "exclusiveRelayer",
          "type": "address"
        },
        {
          "indexed": false,
          "internalType": "address",
          "name": "depositor",
          "type": "address"
        },
        {
          "indexed": false,
          "internalType": "address",
          "name": "recipient",
          "type": "address"
        },
        {
          "indexed": false,
          "internalType": "bytes",
          "name": "message",
          "type": "bytes"
        }
      ],
      "name": "RequestedV3SlowFill",
      "type": "event"
    },
    {
      "anonymous": false,
      "inputs": [
        {
          "indexed": true,
          "internalType": "uint32",
          "name": "newL1Gas",
          "type": "uint32"
        }
      ],
      "name": "SetL1Gas",
      "type": "event"
    },
    {
      "anonymous": false,
      "inputs": [
        {
          "indexed": true,
          "internalType": "address",
          "name": "l2Token",
          "type": "address"
        },
        {
          "indexed": true,
          "internalType": "address",
          "name": "tokenBridge",
          "type": "address"
        }
      ],
      "name": "SetL2TokenBridge",
      "type": "event"
    },
    {
      "anonymous": false,
      "inputs": [
        {
          "indexed": true,
          "internalType": "address",
          "name": "l2Token",
          "type": "address"
        },
        {
          "indexed": true,
          "internalType": "address",
          "name": "l1Token",
          "type": "address"
        }
      ],
      "name": "SetRemoteL1Token",
      "type": "event"
    },
    {
      "anonymous": false,
      "inputs": [
        {
          "indexed": true,
          "internalType": "address",
          "name": "newWithdrawalRecipient",
          "type": "address"
        }
      ],
      "name": "SetWithdrawalRecipient",
      "type": "event"
    },
    {
      "anonymous": false,
      "inputs": [
        {
          "indexed": true,
          "internalType": "address",
          "name": "newAdmin",
          "type": "address"
        }
      ],
      "name": "SetXDomainAdmin",
      "type": "event"
    },
    {
      "anonymous": false,
      "inputs": [
        {
          "indexed": false,
          "internalType": "uint256",
          "name": "amountToReturn",
          "type": "uint256"
        },
        {
          "indexed": true,
          "internalType": "uint256",
          "name": "chainId",
          "type": "uint256"
        },
        {
          "indexed": true,
          "internalType": "uint32",
          "name": "leafId",
          "type": "uint32"
        },
        {
          "indexed": true,
          "internalType": "bytes32",
          "name": "l2TokenAddress",
          "type": "bytes32"
        },
        {
          "indexed": false,
          "internalType": "address",
          "name": "caller",
          "type": "address"
        }
      ],
      "name": "TokensBridged",
      "type": "event"
    },
    {
      "anonymous": false,
      "inputs": [
        {
          "indexed": true,
          "internalType": "address",
          "name": "implementation",
          "type": "address"
        }
      ],
      "name": "Upgraded",
      "type": "event"
    },
    {
      "anonymous": false,
      "inputs": [
        {
          "indexed": false,
          "internalType": "address",
          "name": "inputToken",
          "type": "address"
        },
        {
          "indexed": false,
          "internalType": "address",
          "name": "outputToken",
          "type": "address"
        },
        {
          "indexed": false,
          "internalType": "uint256",
          "name": "inputAmount",
          "type": "uint256"
        },
        {
          "indexed": false,
          "internalType": "uint256",
          "name": "outputAmount",
          "type": "uint256"
        },
        {
          "indexed": true,
          "internalType": "uint256",
          "name": "destinationChainId",
          "type": "uint256"
        },
        {
          "indexed": true,
          "internalType": "uint32",
          "name": "depositId",
          "type": "uint32"
        },
        {
          "indexed": false,
          "internalType": "uint32",
          "name": "quoteTimestamp",
          "type": "uint32"
        },
        {
          "indexed": false,
          "internalType": "uint32",
          "name": "fillDeadline",
          "type": "uint32"
        },
        {
          "indexed": false,
          "internalType": "uint32",
          "name": "exclusivityDeadline",
          "type": "uint32"
        },
        {
          "indexed": true,
          "internalType": "address",
          "name": "depositor",
          "type": "address"
        },
        {
          "indexed": false,
          "internalType": "address",
          "name": "recipient",
          "type": "address"
        },
        {
          "indexed": false,
          "internalType": "address",
          "name": "exclusiveRelayer",
          "type": "address"
        },
        {
          "indexed": false,
          "internalType": "bytes",
          "name": "message",
          "type": "bytes"
        }
      ],
      "name": "V3FundsDeposited",
      "type": "event"
    },
    {
      "inputs": [],
      "name": "EMPTY_RELAYER",
      "outputs": [
        {
          "internalType": "bytes32",
          "name": "",
          "type": "bytes32"
        }
      ],
      "stateMutability": "view",
      "type": "function"
    },
    {
      "inputs": [],
      "name": "EMPTY_REPAYMENT_CHAIN_ID",
      "outputs": [
        {
          "internalType": "uint256",
          "name": "",
          "type": "uint256"
        }
      ],
      "stateMutability": "view",
      "type": "function"
    },
    {
      "inputs": [],
      "name": "INFINITE_FILL_DEADLINE",
      "outputs": [
        {
          "internalType": "uint32",
          "name": "",
          "type": "uint32"
        }
      ],
      "stateMutability": "view",
      "type": "function"
    },
    {
      "inputs": [],
      "name": "MAX_EXCLUSIVITY_PERIOD_SECONDS",
      "outputs": [
        {
          "internalType": "uint32",
          "name": "",
          "type": "uint32"
        }
      ],
      "stateMutability": "view",
      "type": "function"
    },
    {
      "inputs": [],
      "name": "MAX_TRANSFER_SIZE",
      "outputs": [
        {
          "internalType": "uint256",
          "name": "",
          "type": "uint256"
        }
      ],
      "stateMutability": "view",
      "type": "function"
    },
    {
      "inputs": [],
      "name": "MESSENGER",
      "outputs": [
        {
          "internalType": "address",
          "name": "",
          "type": "address"
        }
      ],
      "stateMutability": "view",
      "type": "function"
    },
    {
      "inputs": [],
      "name": "UPDATE_ADDRESS_DEPOSIT_DETAILS_HASH",
      "outputs": [
        {
          "internalType": "bytes32",
          "name": "",
          "type": "bytes32"
        }
      ],
      "stateMutability": "view",
      "type": "function"
    },
    {
      "inputs": [],
      "name": "UPDATE_BYTES32_DEPOSIT_DETAILS_HASH",
      "outputs": [
        {
          "internalType": "bytes32",
          "name": "",
          "type": "bytes32"
        }
      ],
      "stateMutability": "view",
      "type": "function"
    },
    {
      "inputs": [
        {
          "internalType": "uint32",
          "name": "_initialDepositId",
          "type": "uint32"
        },
        {
          "internalType": "address",
          "name": "_crossDomainAdmin",
          "type": "address"
        },
        {
          "internalType": "address",
          "name": "_withdrawalRecipient",
          "type": "address"
        },
        {
          "internalType": "address",
          "name": "_l2Eth",
          "type": "address"
        }
      ],
      "name": "__OvmSpokePool_init",
      "outputs": [],
      "stateMutability": "nonpayable",
      "type": "function"
    },
    {
      "inputs": [
        {
          "internalType": "uint32",
          "name": "_initialDepositId",
          "type": "uint32"
        },
        {
          "internalType": "address",
          "name": "_crossDomainAdmin",
          "type": "address"
        },
        {
          "internalType": "address",
          "name": "_withdrawalRecipient",
          "type": "address"
        }
      ],
      "name": "__SpokePool_init",
      "outputs": [],
      "stateMutability": "nonpayable",
      "type": "function"
    },
    {
      "inputs": [],
      "name": "cctpTokenMessenger",
      "outputs": [
        {
          "internalType": "contract ITokenMessenger",
          "name": "",
          "type": "address"
        }
      ],
      "stateMutability": "view",
      "type": "function"
    },
    {
      "inputs": [],
      "name": "chainId",
      "outputs": [
        {
          "internalType": "uint256",
          "name": "",
          "type": "uint256"
        }
      ],
      "stateMutability": "view",
      "type": "function"
    },
    {
      "inputs": [
        {
          "internalType": "bytes32",
          "name": "l2TokenAddress",
          "type": "bytes32"
        },
        {
          "internalType": "bytes32",
          "name": "refundAddress",
          "type": "bytes32"
        }
      ],
      "name": "claimRelayerRefund",
      "outputs": [],
      "stateMutability": "nonpayable",
      "type": "function"
    },
    {
      "inputs": [],
      "name": "crossDomainAdmin",
      "outputs": [
        {
          "internalType": "address",
          "name": "",
          "type": "address"
        }
      ],
      "stateMutability": "view",
      "type": "function"
    },
    {
      "inputs": [
        {
          "internalType": "bytes32",
          "name": "depositor",
          "type": "bytes32"
        },
        {
          "internalType": "bytes32",
          "name": "recipient",
          "type": "bytes32"
        },
        {
          "internalType": "bytes32",
          "name": "inputToken",
          "type": "bytes32"
        },
        {
          "internalType": "bytes32",
          "name": "outputToken",
          "type": "bytes32"
        },
        {
          "internalType": "uint256",
          "name": "inputAmount",
          "type": "uint256"
        },
        {
          "internalType": "uint256",
          "name": "outputAmount",
          "type": "uint256"
        },
        {
          "internalType": "uint256",
          "name": "destinationChainId",
          "type": "uint256"
        },
        {
          "internalType": "bytes32",
          "name": "exclusiveRelayer",
          "type": "bytes32"
        },
        {
          "internalType": "uint32",
          "name": "quoteTimestamp",
          "type": "uint32"
        },
        {
          "internalType": "uint32",
          "name": "fillDeadline",
          "type": "uint32"
        },
        {
          "internalType": "uint32",
          "name": "exclusivityParameter",
          "type": "uint32"
        },
        {
          "internalType": "bytes",
          "name": "message",
          "type": "bytes"
        }
      ],
      "name": "deposit",
      "outputs": [],
      "stateMutability": "payable",
      "type": "function"
    },
    {
      "inputs": [
        {
          "internalType": "address",
          "name": "recipient",
          "type": "address"
        },
        {
          "internalType": "address",
          "name": "originToken",
          "type": "address"
        },
        {
          "internalType": "uint256",
          "name": "amount",
          "type": "uint256"
        },
        {
          "internalType": "uint256",
          "name": "destinationChainId",
          "type": "uint256"
        },
        {
          "internalType": "int64",
          "name": "relayerFeePct",
          "type": "int64"
        },
        {
          "internalType": "uint32",
          "name": "quoteTimestamp",
          "type": "uint32"
        },
        {
          "internalType": "bytes",
          "name": "message",
          "type": "bytes"
        },
        {
          "internalType": "uint256",
          "name": "",
          "type": "uint256"
        }
      ],
      "name": "depositDeprecated_5947912356",
      "outputs": [],
      "stateMutability": "payable",
      "type": "function"
    },
    {
      "inputs": [
        {
          "internalType": "address",
          "name": "depositor",
          "type": "address"
        },
        {
          "internalType": "address",
          "name": "recipient",
          "type": "address"
        },
        {
          "internalType": "address",
          "name": "originToken",
          "type": "address"
        },
        {
          "internalType": "uint256",
          "name": "amount",
          "type": "uint256"
        },
        {
          "internalType": "uint256",
          "name": "destinationChainId",
          "type": "uint256"
        },
        {
          "internalType": "int64",
          "name": "relayerFeePct",
          "type": "int64"
        },
        {
          "internalType": "uint32",
          "name": "quoteTimestamp",
          "type": "uint32"
        },
        {
          "internalType": "bytes",
          "name": "message",
          "type": "bytes"
        },
        {
          "internalType": "uint256",
          "name": "",
          "type": "uint256"
        }
      ],
      "name": "depositFor",
      "outputs": [],
      "stateMutability": "payable",
      "type": "function"
    },
    {
      "inputs": [
        {
          "internalType": "bytes32",
          "name": "depositor",
          "type": "bytes32"
        },
        {
          "internalType": "bytes32",
          "name": "recipient",
          "type": "bytes32"
        },
        {
          "internalType": "bytes32",
          "name": "inputToken",
          "type": "bytes32"
        },
        {
          "internalType": "bytes32",
          "name": "outputToken",
          "type": "bytes32"
        },
        {
          "internalType": "uint256",
          "name": "inputAmount",
          "type": "uint256"
        },
        {
          "internalType": "uint256",
          "name": "outputAmount",
          "type": "uint256"
        },
        {
          "internalType": "uint256",
          "name": "destinationChainId",
          "type": "uint256"
        },
        {
          "internalType": "bytes32",
          "name": "exclusiveRelayer",
          "type": "bytes32"
        },
        {
          "internalType": "uint32",
          "name": "fillDeadlineOffset",
          "type": "uint32"
        },
        {
          "internalType": "uint32",
          "name": "exclusivityParameter",
          "type": "uint32"
        },
        {
          "internalType": "bytes",
          "name": "message",
          "type": "bytes"
        }
      ],
      "name": "depositNow",
      "outputs": [],
      "stateMutability": "payable",
      "type": "function"
    },
    {
      "inputs": [],
      "name": "depositQuoteTimeBuffer",
      "outputs": [
        {
          "internalType": "uint32",
          "name": "",
          "type": "uint32"
        }
      ],
      "stateMutability": "view",
      "type": "function"
    },
    {
      "inputs": [
        {
          "internalType": "address",
          "name": "depositor",
          "type": "address"
        },
        {
          "internalType": "address",
          "name": "recipient",
          "type": "address"
        },
        {
          "internalType": "address",
          "name": "inputToken",
          "type": "address"
        },
        {
          "internalType": "address",
          "name": "outputToken",
          "type": "address"
        },
        {
          "internalType": "uint256",
          "name": "inputAmount",
          "type": "uint256"
        },
        {
          "internalType": "uint256",
          "name": "outputAmount",
          "type": "uint256"
        },
        {
          "internalType": "uint256",
          "name": "destinationChainId",
          "type": "uint256"
        },
        {
          "internalType": "address",
          "name": "exclusiveRelayer",
          "type": "address"
        },
        {
          "internalType": "uint32",
          "name": "quoteTimestamp",
          "type": "uint32"
        },
        {
          "internalType": "uint32",
          "name": "fillDeadline",
          "type": "uint32"
        },
        {
          "internalType": "uint32",
          "name": "exclusivityParameter",
          "type": "uint32"
        },
        {
          "internalType": "bytes",
          "name": "message",
          "type": "bytes"
        }
      ],
      "name": "depositV3",
      "outputs": [],
      "stateMutability": "payable",
      "type": "function"
    },
    {
      "inputs": [
        {
          "internalType": "address",
          "name": "depositor",
          "type": "address"
        },
        {
          "internalType": "address",
          "name": "recipient",
          "type": "address"
        },
        {
          "internalType": "address",
          "name": "inputToken",
          "type": "address"
        },
        {
          "internalType": "address",
          "name": "outputToken",
          "type": "address"
        },
        {
          "internalType": "uint256",
          "name": "inputAmount",
          "type": "uint256"
        },
        {
          "internalType": "uint256",
          "name": "outputAmount",
          "type": "uint256"
        },
        {
          "internalType": "uint256",
          "name": "destinationChainId",
          "type": "uint256"
        },
        {
          "internalType": "address",
          "name": "exclusiveRelayer",
          "type": "address"
        },
        {
          "internalType": "uint32",
          "name": "fillDeadlineOffset",
          "type": "uint32"
        },
        {
          "internalType": "uint32",
          "name": "exclusivityParameter",
          "type": "uint32"
        },
        {
          "internalType": "bytes",
          "name": "message",
          "type": "bytes"
        }
      ],
      "name": "depositV3Now",
      "outputs": [],
      "stateMutability": "payable",
      "type": "function"
    },
    {
      "inputs": [
        {
          "internalType": "uint256",
          "name": "rootBundleId",
          "type": "uint256"
        }
      ],
      "name": "emergencyDeleteRootBundle",
      "outputs": [],
      "stateMutability": "nonpayable",
      "type": "function"
    },
    {
      "inputs": [
        {
          "internalType": "address",
          "name": "",
          "type": "address"
        },
        {
          "internalType": "uint256",
          "name": "",
          "type": "uint256"
        }
      ],
      "name": "enabledDepositRoutes",
      "outputs": [
        {
          "internalType": "bool",
          "name": "",
          "type": "bool"
        }
      ],
      "stateMutability": "view",
      "type": "function"
    },
    {
      "inputs": [
        {
          "internalType": "uint32",
          "name": "rootBundleId",
          "type": "uint32"
        },
        {
          "components": [
            {
              "internalType": "uint256",
              "name": "amountToReturn",
              "type": "uint256"
            },
            {
              "internalType": "uint256",
              "name": "chainId",
              "type": "uint256"
            },
            {
              "internalType": "uint256[]",
              "name": "refundAmounts",
              "type": "uint256[]"
            },
            {
              "internalType": "uint32",
              "name": "leafId",
              "type": "uint32"
            },
            {
              "internalType": "address",
              "name": "l2TokenAddress",
              "type": "address"
            },
            {
              "internalType": "address[]",
              "name": "refundAddresses",
              "type": "address[]"
            }
          ],
          "internalType": "struct SpokePoolInterface.RelayerRefundLeaf",
          "name": "relayerRefundLeaf",
          "type": "tuple"
        },
        {
          "internalType": "bytes32[]",
          "name": "proof",
          "type": "bytes32[]"
        }
      ],
      "name": "executeRelayerRefundLeaf",
      "outputs": [],
      "stateMutability": "payable",
      "type": "function"
    },
    {
      "inputs": [
        {
          "components": [
            {
              "components": [
                {
                  "internalType": "bytes32",
                  "name": "depositor",
                  "type": "bytes32"
                },
                {
                  "internalType": "bytes32",
                  "name": "recipient",
                  "type": "bytes32"
                },
                {
                  "internalType": "bytes32",
                  "name": "exclusiveRelayer",
                  "type": "bytes32"
                },
                {
                  "internalType": "bytes32",
                  "name": "inputToken",
                  "type": "bytes32"
                },
                {
                  "internalType": "bytes32",
                  "name": "outputToken",
                  "type": "bytes32"
                },
                {
                  "internalType": "uint256",
                  "name": "inputAmount",
                  "type": "uint256"
                },
                {
                  "internalType": "uint256",
                  "name": "outputAmount",
                  "type": "uint256"
                },
                {
                  "internalType": "uint256",
                  "name": "originChainId",
                  "type": "uint256"
                },
                {
                  "internalType": "uint256",
                  "name": "depositId",
                  "type": "uint256"
                },
                {
                  "internalType": "uint32",
                  "name": "fillDeadline",
                  "type": "uint32"
                },
                {
                  "internalType": "uint32",
                  "name": "exclusivityDeadline",
                  "type": "uint32"
                },
                {
                  "internalType": "bytes",
                  "name": "message",
                  "type": "bytes"
                }
              ],
              "internalType": "struct V3SpokePoolInterface.V3RelayData",
              "name": "relayData",
              "type": "tuple"
            },
            {
              "internalType": "uint256",
              "name": "chainId",
              "type": "uint256"
            },
            {
              "internalType": "uint256",
              "name": "updatedOutputAmount",
              "type": "uint256"
            }
          ],
          "internalType": "struct V3SpokePoolInterface.V3SlowFill",
          "name": "slowFillLeaf",
          "type": "tuple"
        },
        {
          "internalType": "uint32",
          "name": "rootBundleId",
          "type": "uint32"
        },
        {
          "internalType": "bytes32[]",
          "name": "proof",
          "type": "bytes32[]"
        }
      ],
      "name": "executeSlowRelayLeaf",
      "outputs": [],
      "stateMutability": "nonpayable",
      "type": "function"
    },
    {
      "inputs": [
        {
          "internalType": "bytes32",
          "name": "orderId",
          "type": "bytes32"
        },
        {
          "internalType": "bytes",
          "name": "originData",
          "type": "bytes"
        },
        {
          "internalType": "bytes",
          "name": "fillerData",
          "type": "bytes"
        }
      ],
      "name": "fill",
      "outputs": [],
      "stateMutability": "nonpayable",
      "type": "function"
    },
    {
      "inputs": [],
      "name": "fillDeadlineBuffer",
      "outputs": [
        {
          "internalType": "uint32",
          "name": "",
          "type": "uint32"
        }
      ],
      "stateMutability": "view",
      "type": "function"
    },
    {
      "inputs": [
        {
          "components": [
            {
              "internalType": "bytes32",
              "name": "depositor",
              "type": "bytes32"
            },
            {
              "internalType": "bytes32",
              "name": "recipient",
              "type": "bytes32"
            },
            {
              "internalType": "bytes32",
              "name": "exclusiveRelayer",
              "type": "bytes32"
            },
            {
              "internalType": "bytes32",
              "name": "inputToken",
              "type": "bytes32"
            },
            {
              "internalType": "bytes32",
              "name": "outputToken",
              "type": "bytes32"
            },
            {
              "internalType": "uint256",
              "name": "inputAmount",
              "type": "uint256"
            },
            {
              "internalType": "uint256",
              "name": "outputAmount",
              "type": "uint256"
            },
            {
              "internalType": "uint256",
              "name": "originChainId",
              "type": "uint256"
            },
            {
              "internalType": "uint256",
              "name": "depositId",
              "type": "uint256"
            },
            {
              "internalType": "uint32",
              "name": "fillDeadline",
              "type": "uint32"
            },
            {
              "internalType": "uint32",
              "name": "exclusivityDeadline",
              "type": "uint32"
            },
            {
              "internalType": "bytes",
              "name": "message",
              "type": "bytes"
            }
          ],
          "internalType": "struct V3SpokePoolInterface.V3RelayData",
          "name": "relayData",
          "type": "tuple"
        },
        {
          "internalType": "uint256",
          "name": "repaymentChainId",
          "type": "uint256"
        },
        {
          "internalType": "bytes32",
          "name": "repaymentAddress",
          "type": "bytes32"
        }
      ],
      "name": "fillRelay",
      "outputs": [],
      "stateMutability": "nonpayable",
      "type": "function"
    },
    {
      "inputs": [
        {
          "components": [
            {
              "internalType": "bytes32",
              "name": "depositor",
              "type": "bytes32"
            },
            {
              "internalType": "bytes32",
              "name": "recipient",
              "type": "bytes32"
            },
            {
              "internalType": "bytes32",
              "name": "exclusiveRelayer",
              "type": "bytes32"
            },
            {
              "internalType": "bytes32",
              "name": "inputToken",
              "type": "bytes32"
            },
            {
              "internalType": "bytes32",
              "name": "outputToken",
              "type": "bytes32"
            },
            {
              "internalType": "uint256",
              "name": "inputAmount",
              "type": "uint256"
            },
            {
              "internalType": "uint256",
              "name": "outputAmount",
              "type": "uint256"
            },
            {
              "internalType": "uint256",
              "name": "originChainId",
              "type": "uint256"
            },
            {
              "internalType": "uint256",
              "name": "depositId",
              "type": "uint256"
            },
            {
              "internalType": "uint32",
              "name": "fillDeadline",
              "type": "uint32"
            },
            {
              "internalType": "uint32",
              "name": "exclusivityDeadline",
              "type": "uint32"
            },
            {
              "internalType": "bytes",
              "name": "message",
              "type": "bytes"
            }
          ],
          "internalType": "struct V3SpokePoolInterface.V3RelayData",
          "name": "relayData",
          "type": "tuple"
        },
        {
          "internalType": "uint256",
          "name": "repaymentChainId",
          "type": "uint256"
        },
        {
          "internalType": "bytes32",
          "name": "repaymentAddress",
          "type": "bytes32"
        },
        {
          "internalType": "uint256",
          "name": "updatedOutputAmount",
          "type": "uint256"
        },
        {
          "internalType": "bytes32",
          "name": "updatedRecipient",
          "type": "bytes32"
        },
        {
          "internalType": "bytes",
          "name": "updatedMessage",
          "type": "bytes"
        },
        {
          "internalType": "bytes",
          "name": "depositorSignature",
          "type": "bytes"
        }
      ],
      "name": "fillRelayWithUpdatedDeposit",
      "outputs": [],
      "stateMutability": "nonpayable",
      "type": "function"
    },
    {
      "inputs": [
        {
          "internalType": "bytes32",
          "name": "",
          "type": "bytes32"
        }
      ],
      "name": "fillStatuses",
      "outputs": [
        {
          "internalType": "uint256",
          "name": "",
          "type": "uint256"
        }
      ],
      "stateMutability": "view",
      "type": "function"
    },
    {
      "inputs": [
        {
          "components": [
            {
              "internalType": "address",
              "name": "depositor",
              "type": "address"
            },
            {
              "internalType": "address",
              "name": "recipient",
              "type": "address"
            },
            {
              "internalType": "address",
              "name": "exclusiveRelayer",
              "type": "address"
            },
            {
              "internalType": "address",
              "name": "inputToken",
              "type": "address"
            },
            {
              "internalType": "address",
              "name": "outputToken",
              "type": "address"
            },
            {
              "internalType": "uint256",
              "name": "inputAmount",
              "type": "uint256"
            },
            {
              "internalType": "uint256",
              "name": "outputAmount",
              "type": "uint256"
            },
            {
              "internalType": "uint256",
              "name": "originChainId",
              "type": "uint256"
            },
            {
              "internalType": "uint32",
              "name": "depositId",
              "type": "uint32"
            },
            {
              "internalType": "uint32",
              "name": "fillDeadline",
              "type": "uint32"
            },
            {
              "internalType": "uint32",
              "name": "exclusivityDeadline",
              "type": "uint32"
            },
            {
              "internalType": "bytes",
              "name": "message",
              "type": "bytes"
            }
          ],
          "internalType": "struct V3SpokePoolInterface.V3RelayDataLegacy",
          "name": "relayData",
          "type": "tuple"
        },
        {
          "internalType": "uint256",
          "name": "repaymentChainId",
          "type": "uint256"
        }
      ],
      "name": "fillV3Relay",
      "outputs": [],
      "stateMutability": "nonpayable",
      "type": "function"
    },
    {
      "inputs": [],
      "name": "getCurrentTime",
      "outputs": [
        {
          "internalType": "uint256",
          "name": "",
          "type": "uint256"
        }
      ],
      "stateMutability": "view",
      "type": "function"
    },
    {
      "inputs": [
        {
          "internalType": "address",
          "name": "l2TokenAddress",
          "type": "address"
        },
        {
          "internalType": "address",
          "name": "refundAddress",
          "type": "address"
        }
      ],
      "name": "getRelayerRefund",
      "outputs": [
        {
          "internalType": "uint256",
          "name": "",
          "type": "uint256"
        }
      ],
      "stateMutability": "view",
      "type": "function"
    },
    {
      "inputs": [
        {
          "internalType": "address",
          "name": "msgSender",
          "type": "address"
        },
        {
          "internalType": "bytes32",
          "name": "depositor",
          "type": "bytes32"
        },
        {
          "internalType": "uint256",
          "name": "depositNonce",
          "type": "uint256"
        }
      ],
      "name": "getUnsafeDepositId",
      "outputs": [
        {
          "internalType": "uint256",
          "name": "",
          "type": "uint256"
        }
      ],
      "stateMutability": "pure",
      "type": "function"
    },
    {
      "inputs": [
        {
          "components": [
            {
              "internalType": "bytes32",
              "name": "depositor",
              "type": "bytes32"
            },
            {
              "internalType": "bytes32",
              "name": "recipient",
              "type": "bytes32"
            },
            {
              "internalType": "bytes32",
              "name": "exclusiveRelayer",
              "type": "bytes32"
            },
            {
              "internalType": "bytes32",
              "name": "inputToken",
              "type": "bytes32"
            },
            {
              "internalType": "bytes32",
              "name": "outputToken",
              "type": "bytes32"
            },
            {
              "internalType": "uint256",
              "name": "inputAmount",
              "type": "uint256"
            },
            {
              "internalType": "uint256",
              "name": "outputAmount",
              "type": "uint256"
            },
            {
              "internalType": "uint256",
              "name": "originChainId",
              "type": "uint256"
            },
            {
              "internalType": "uint256",
              "name": "depositId",
              "type": "uint256"
            },
            {
              "internalType": "uint32",
              "name": "fillDeadline",
              "type": "uint32"
            },
            {
              "internalType": "uint32",
              "name": "exclusivityDeadline",
              "type": "uint32"
            },
            {
              "internalType": "bytes",
              "name": "message",
              "type": "bytes"
            }
          ],
          "internalType": "struct V3SpokePoolInterface.V3RelayData",
          "name": "relayData",
          "type": "tuple"
        }
      ],
      "name": "getV3RelayHash",
      "outputs": [
        {
          "internalType": "bytes32",
          "name": "",
          "type": "bytes32"
        }
      ],
      "stateMutability": "view",
      "type": "function"
    },
    {
      "inputs": [
        {
          "internalType": "uint32",
          "name": "_initialDepositId",
          "type": "uint32"
        },
        {
          "internalType": "address",
          "name": "_crossDomainAdmin",
          "type": "address"
        },
        {
          "internalType": "address",
          "name": "_withdrawalRecipient",
          "type": "address"
        }
      ],
      "name": "initialize",
      "outputs": [],
      "stateMutability": "nonpayable",
      "type": "function"
    },
    {
      "inputs": [],
      "name": "l1Gas",
      "outputs": [
        {
          "internalType": "uint32",
          "name": "",
          "type": "uint32"
        }
      ],
      "stateMutability": "view",
      "type": "function"
    },
    {
      "inputs": [],
      "name": "l2Eth",
      "outputs": [
        {
          "internalType": "address",
          "name": "",
          "type": "address"
        }
      ],
      "stateMutability": "view",
      "type": "function"
    },
    {
      "inputs": [
        {
          "internalType": "bytes[]",
          "name": "data",
          "type": "bytes[]"
        }
      ],
      "name": "multicall",
      "outputs": [
        {
          "internalType": "bytes[]",
          "name": "results",
          "type": "bytes[]"
        }
      ],
      "stateMutability": "nonpayable",
      "type": "function"
    },
    {
      "inputs": [],
      "name": "numberOfDeposits",
      "outputs": [
        {
          "internalType": "uint32",
          "name": "",
          "type": "uint32"
        }
      ],
      "stateMutability": "view",
      "type": "function"
    },
    {
      "inputs": [
        {
          "internalType": "bool",
          "name": "pause",
          "type": "bool"
        }
      ],
      "name": "pauseDeposits",
      "outputs": [],
      "stateMutability": "nonpayable",
      "type": "function"
    },
    {
      "inputs": [
        {
          "internalType": "bool",
          "name": "pause",
          "type": "bool"
        }
      ],
      "name": "pauseFills",
      "outputs": [],
      "stateMutability": "nonpayable",
      "type": "function"
    },
    {
      "inputs": [],
      "name": "pausedDeposits",
      "outputs": [
        {
          "internalType": "bool",
          "name": "",
          "type": "bool"
        }
      ],
      "stateMutability": "view",
      "type": "function"
    },
    {
      "inputs": [],
      "name": "pausedFills",
      "outputs": [
        {
          "internalType": "bool",
          "name": "",
          "type": "bool"
        }
      ],
      "stateMutability": "view",
      "type": "function"
    },
    {
      "inputs": [],
      "name": "proxiableUUID",
      "outputs": [
        {
          "internalType": "bytes32",
          "name": "",
          "type": "bytes32"
        }
      ],
      "stateMutability": "view",
      "type": "function"
    },
    {
      "inputs": [],
      "name": "recipientCircleDomainId",
      "outputs": [
        {
          "internalType": "uint32",
          "name": "",
          "type": "uint32"
        }
      ],
      "stateMutability": "view",
      "type": "function"
    },
    {
      "inputs": [
        {
          "internalType": "bytes32",
          "name": "relayerRefundRoot",
          "type": "bytes32"
        },
        {
          "internalType": "bytes32",
          "name": "slowRelayRoot",
          "type": "bytes32"
        }
      ],
      "name": "relayRootBundle",
      "outputs": [],
      "stateMutability": "nonpayable",
      "type": "function"
    },
    {
      "inputs": [
        {
          "internalType": "address",
          "name": "",
          "type": "address"
        },
        {
          "internalType": "address",
          "name": "",
          "type": "address"
        }
      ],
      "name": "relayerRefund",
      "outputs": [
        {
          "internalType": "uint256",
          "name": "",
          "type": "uint256"
        }
      ],
      "stateMutability": "view",
      "type": "function"
    },
    {
      "inputs": [
        {
          "internalType": "address",
          "name": "",
          "type": "address"
        }
      ],
      "name": "remoteL1Tokens",
      "outputs": [
        {
          "internalType": "address",
          "name": "",
          "type": "address"
        }
      ],
      "stateMutability": "view",
      "type": "function"
    },
    {
      "inputs": [
        {
          "components": [
            {
              "internalType": "bytes32",
              "name": "depositor",
              "type": "bytes32"
            },
            {
              "internalType": "bytes32",
              "name": "recipient",
              "type": "bytes32"
            },
            {
              "internalType": "bytes32",
              "name": "exclusiveRelayer",
              "type": "bytes32"
            },
            {
              "internalType": "bytes32",
              "name": "inputToken",
              "type": "bytes32"
            },
            {
              "internalType": "bytes32",
              "name": "outputToken",
              "type": "bytes32"
            },
            {
              "internalType": "uint256",
              "name": "inputAmount",
              "type": "uint256"
            },
            {
              "internalType": "uint256",
              "name": "outputAmount",
              "type": "uint256"
            },
            {
              "internalType": "uint256",
              "name": "originChainId",
              "type": "uint256"
            },
            {
              "internalType": "uint256",
              "name": "depositId",
              "type": "uint256"
            },
            {
              "internalType": "uint32",
              "name": "fillDeadline",
              "type": "uint32"
            },
            {
              "internalType": "uint32",
              "name": "exclusivityDeadline",
              "type": "uint32"
            },
            {
              "internalType": "bytes",
              "name": "message",
              "type": "bytes"
            }
          ],
          "internalType": "struct V3SpokePoolInterface.V3RelayData",
          "name": "relayData",
          "type": "tuple"
        }
      ],
      "name": "requestSlowFill",
      "outputs": [],
      "stateMutability": "nonpayable",
      "type": "function"
    },
    {
      "inputs": [
        {
          "internalType": "uint256",
          "name": "",
          "type": "uint256"
        }
      ],
      "name": "rootBundles",
      "outputs": [
        {
          "internalType": "bytes32",
          "name": "slowRelayRoot",
          "type": "bytes32"
        },
        {
          "internalType": "bytes32",
          "name": "relayerRefundRoot",
          "type": "bytes32"
        }
      ],
      "stateMutability": "view",
      "type": "function"
    },
    {
      "inputs": [
        {
          "internalType": "address",
          "name": "newCrossDomainAdmin",
          "type": "address"
        }
      ],
      "name": "setCrossDomainAdmin",
      "outputs": [],
      "stateMutability": "nonpayable",
      "type": "function"
    },
    {
      "inputs": [
        {
          "internalType": "address",
          "name": "originToken",
          "type": "address"
        },
        {
          "internalType": "uint256",
          "name": "destinationChainId",
          "type": "uint256"
        },
        {
          "internalType": "bool",
          "name": "enabled",
          "type": "bool"
        }
      ],
      "name": "setEnableRoute",
      "outputs": [],
      "stateMutability": "nonpayable",
      "type": "function"
    },
    {
      "inputs": [
        {
          "internalType": "uint32",
          "name": "newl1Gas",
          "type": "uint32"
        }
      ],
      "name": "setL1GasLimit",
      "outputs": [],
      "stateMutability": "nonpayable",
      "type": "function"
    },
    {
      "inputs": [
        {
          "internalType": "address",
          "name": "l2Token",
          "type": "address"
        },
        {
          "internalType": "address",
          "name": "l1Token",
          "type": "address"
        }
      ],
      "name": "setRemoteL1Token",
      "outputs": [],
      "stateMutability": "nonpayable",
      "type": "function"
    },
    {
      "inputs": [
        {
          "internalType": "address",
          "name": "l2Token",
          "type": "address"
        },
        {
          "internalType": "address",
          "name": "tokenBridge",
          "type": "address"
        }
      ],
      "name": "setTokenBridge",
      "outputs": [],
      "stateMutability": "nonpayable",
      "type": "function"
    },
    {
      "inputs": [
        {
          "internalType": "address",
          "name": "newWithdrawalRecipient",
          "type": "address"
        }
      ],
      "name": "setWithdrawalRecipient",
      "outputs": [],
      "stateMutability": "nonpayable",
      "type": "function"
    },
    {
      "inputs": [
        {
          "internalType": "bytes32",
          "name": "depositor",
          "type": "bytes32"
        },
        {
          "internalType": "uint256",
          "name": "depositId",
          "type": "uint256"
        },
        {
          "internalType": "uint256",
          "name": "updatedOutputAmount",
          "type": "uint256"
        },
        {
          "internalType": "bytes32",
          "name": "updatedRecipient",
          "type": "bytes32"
        },
        {
          "internalType": "bytes",
          "name": "updatedMessage",
          "type": "bytes"
        },
        {
          "internalType": "bytes",
          "name": "depositorSignature",
          "type": "bytes"
        }
      ],
      "name": "speedUpDeposit",
      "outputs": [],
      "stateMutability": "nonpayable",
      "type": "function"
    },
    {
      "inputs": [
        {
          "internalType": "address",
          "name": "depositor",
          "type": "address"
        },
        {
          "internalType": "uint256",
          "name": "depositId",
          "type": "uint256"
        },
        {
          "internalType": "uint256",
          "name": "updatedOutputAmount",
          "type": "uint256"
        },
        {
          "internalType": "address",
          "name": "updatedRecipient",
          "type": "address"
        },
        {
          "internalType": "bytes",
          "name": "updatedMessage",
          "type": "bytes"
        },
        {
          "internalType": "bytes",
          "name": "depositorSignature",
          "type": "bytes"
        }
      ],
      "name": "speedUpV3Deposit",
      "outputs": [],
      "stateMutability": "nonpayable",
      "type": "function"
    },
    {
      "inputs": [
        {
          "internalType": "address",
          "name": "",
          "type": "address"
        }
      ],
      "name": "tokenBridges",
      "outputs": [
        {
          "internalType": "address",
          "name": "",
          "type": "address"
        }
      ],
      "stateMutability": "view",
      "type": "function"
    },
    {
      "inputs": [
        {
          "internalType": "bytes[]",
          "name": "data",
          "type": "bytes[]"
        }
      ],
      "name": "tryMulticall",
      "outputs": [
        {
          "components": [
            {
              "internalType": "bool",
              "name": "success",
              "type": "bool"
            },
            {
              "internalType": "bytes",
              "name": "returnData",
              "type": "bytes"
            }
          ],
          "internalType": "struct MultiCallerUpgradeable.Result[]",
          "name": "results",
          "type": "tuple[]"
        }
      ],
      "stateMutability": "nonpayable",
      "type": "function"
    },
    {
      "inputs": [
        {
          "internalType": "bytes32",
          "name": "depositor",
          "type": "bytes32"
        },
        {
          "internalType": "bytes32",
          "name": "recipient",
          "type": "bytes32"
        },
        {
          "internalType": "bytes32",
          "name": "inputToken",
          "type": "bytes32"
        },
        {
          "internalType": "bytes32",
          "name": "outputToken",
          "type": "bytes32"
        },
        {
          "internalType": "uint256",
          "name": "inputAmount",
          "type": "uint256"
        },
        {
          "internalType": "uint256",
          "name": "outputAmount",
          "type": "uint256"
        },
        {
          "internalType": "uint256",
          "name": "destinationChainId",
          "type": "uint256"
        },
        {
          "internalType": "bytes32",
          "name": "exclusiveRelayer",
          "type": "bytes32"
        },
        {
          "internalType": "uint256",
          "name": "depositNonce",
          "type": "uint256"
        },
        {
          "internalType": "uint32",
          "name": "quoteTimestamp",
          "type": "uint32"
        },
        {
          "internalType": "uint32",
          "name": "fillDeadline",
          "type": "uint32"
        },
        {
          "internalType": "uint32",
          "name": "exclusivityParameter",
          "type": "uint32"
        },
        {
          "internalType": "bytes",
          "name": "message",
          "type": "bytes"
        }
      ],
      "name": "unsafeDeposit",
      "outputs": [],
      "stateMutability": "payable",
      "type": "function"
    },
    {
      "inputs": [
        {
          "internalType": "address",
          "name": "newImplementation",
          "type": "address"
        }
      ],
      "name": "upgradeTo",
      "outputs": [],
      "stateMutability": "nonpayable",
      "type": "function"
    },
    {
      "inputs": [
        {
          "internalType": "address",
          "name": "newImplementation",
          "type": "address"
        },
        {
          "internalType": "bytes",
          "name": "data",
          "type": "bytes"
        }
      ],
      "name": "upgradeToAndCall",
      "outputs": [],
      "stateMutability": "payable",
      "type": "function"
    },
    {
      "inputs": [],
      "name": "usdcToken",
      "outputs": [
        {
          "internalType": "contract IERC20",
          "name": "",
          "type": "address"
        }
      ],
      "stateMutability": "view",
      "type": "function"
    },
    {
      "inputs": [],
      "name": "withdrawalRecipient",
      "outputs": [
        {
          "internalType": "address",
          "name": "",
          "type": "address"
        }
      ],
      "stateMutability": "view",
      "type": "function"
    },
    {
      "inputs": [],
      "name": "wrappedNativeToken",
      "outputs": [
        {
          "internalType": "contract WETH9Interface",
          "name": "",
          "type": "address"
        }
      ],
      "stateMutability": "view",
      "type": "function"
    },
    {
      "stateMutability": "payable",
      "type": "receive"
    }
  ],
  "numDeployments": 2,
  "solcInputHash": "559c8f55eb0f1551430042c24faabeb5",
  "bytecode": "0x61016034620001e257601f6200596d38819003918201601f19168301916001600160401b03831184841017620001e65780849260a094604052833981010312620001e25780516001600160a01b03919082811690819003620001e2576200006960208301620001fa565b6200007760408401620001fa565b916060840151938585168503620001e257608001519485168503620001e2573060805260a05260c05260e0525f5460ff8160081c16620001e25760ff80821603620001a7575b50610120908152610140918252610100915f83526040519161576093846200020d8539608051848181611088015281816115a4015261171e015260a051848181610880015281816138e601528181613a57015281816140780152818161430a0152818161462201528181614c0601528181614c2d0152614f86015260c0518481816119eb0152818161389a0152614810015260e05184818161046e01526145d0015251838181611b94015261552001525182818161082301528181614ac5015281816152b8015261545701525181818161204e01528181614ba90152818161508d015261547a0152f35b60ff90811916175f557f7f26b83ff96e1f2b6a682f133852f6798a09c465da95921460cefb3847402498602060405160ff8152a15f620000bd565b5f80fd5b634e487b7160e01b5f52604160045260245ffd5b519063ffffffff82168203620001e25756fe6080604052600436101561001a575b3615610018575f80fd5b005b5f3560e01c8063079bd2c71461043f5780630c5d5f731461043a5780630eaac9f0146104355780631186ec331461043057806311eac8551461042b57806315348e44146103b357806317fcb39b146104265780631b3d5559146104215780631fab657c1461041c578063272751c71461041757806329cb924d146104125780632e3781151461040d5780632e63e59a1461040857806333a84ff0146104035780633659cfe6146103fe578063431023b8146103f9578063437b9116146103f4578063490e49ef146103ef578063493a4f84146103ea5780634f1ef286146103e55780635249fef1146103e05780635285e058146103db57806352d1902d146103d6578063541f4f14146103d1578063577f51f8146103cc57806357f6dcb8146103c75780636068d6cb146103c2578063647c576c146103bd578063670fa8ac146103b85780636bbbcd2e146103b35780636e400983146103ae578063738b62e5146103a9578063766e0703146103a45780637aef642c1461039f5780637b9392321461039a5780637ef413e11461039557806382e2c43f146103905780638a7860ce1461038b5780638b15788e14610386578063927ede2d146103815780639748cf7c1461037c57806397943aa914610377578063979f2bc21461037257806399cc29681461036d5780639a8a059214610368578063a1244c6714610363578063a18a096e1461035e578063ac9650d814610359578063ad5425c614610354578063adb5a6a614610309578063b27a43001461034f578063b370b7f51461034a578063babb6aac14610345578063bf10268d14610340578063c35c83fc1461033b578063ceb4c98714610336578063d7e1583a14610331578063dda521131461032c578063ddd224f114610327578063de7eba7814610322578063deff4b241461031d578063e322921114610318578063ea86bd4614610313578063ee2a53f81461030e578063f79f29ed14610309578063fbbba9ac146103045763fc8a584f0361000e57612cc3565b612c3f565b6125fe565b612c01565b612afe565b612ad5565b6129e0565b6129b0565b612987565b612961565b61292b565b612831565b612806565b612782565b6126ab565b612684565b612645565b61249d565b6123fd565b612296565b61226f565b612255565b6121c0565b6120f2565b612072565b61202f565b612001565b611f83565b611f0b565b611df0565b611db9565b611d11565b611c71565b611c4d565b611bb8565b611b78565b610847565b611b3e565b611a67565b611a0f565b6119cf565b611831565b61176e565b611704565b6116dd565b61168f565b611561565b6114da565b6114bc565b6113ef565b611192565b611060565b611026565b610e2c565b610ccc565b610ca3565b610c04565b610af8565b6109ef565b610861565b610804565b610763565b610516565b6104b0565b610452565b5f91031261044e57565b5f80fd5b3461044e575f36600319011261044e57602060405163ffffffff7f0000000000000000000000000000000000000000000000000000000000000000168152f35b6001600160a01b0381160361044e57565b35906104ae82610492565b565b3461044e57602036600319011261044e5760206004356104cf81610492565b6001600160a01b038091165f52610c5d825260405f205416604051908152f35b63ffffffff81160361044e57565b61014435906104ae826104ef565b35906104ae826104ef565b3461044e57602036600319011261044e5763ffffffff600435610538816104ef565b6105406136d1565b610548613793565b16610c5a8163ffffffff198254161790557fe486a5c4bd7b36eabbfe274c99b39130277417be8d2209b4dae04c4fba64ee3a5f80a26001606555005b634e487b7160e01b5f52604160045260245ffd5b6040810190811067ffffffffffffffff8211176105b457604052565b610584565b6101a0810190811067ffffffffffffffff8211176105b457604052565b67ffffffffffffffff81116105b457604052565b6060810190811067ffffffffffffffff8211176105b457604052565b6080810190811067ffffffffffffffff8211176105b457604052565b6020810190811067ffffffffffffffff8211176105b457604052565b60e0810190811067ffffffffffffffff8211176105b457604052565b60a0810190811067ffffffffffffffff8211176105b457604052565b90601f8019910116810190811067ffffffffffffffff8211176105b457604052565b6040519060c0820182811067ffffffffffffffff8211176105b457604052565b60405190610180820182811067ffffffffffffffff8211176105b457604052565b604051906104ae826105b9565b604051906104ae82610606565b67ffffffffffffffff81116105b457601f01601f191660200190565b92919261071b826106f3565b916107296040519384610676565b82948184528183011161044e578281602093845f960137010152565b9080601f8301121561044e578160206107609335910161070f565b90565b61010036600319011261044e5760043561077c81610492565b60243561078881610492565b6084358060070b810361044e5760a435906107a2826104ef565b60c43567ffffffffffffffff811161044e576107c2903690600401610745565b926107cb613793565b60ff61086b5460e81c166107f2576107eb9460643591604435913361380e565b6001606555005b604051630b4cba3160e31b8152600490fd5b3461044e575f36600319011261044e5760206040516001600160a01b037f0000000000000000000000000000000000000000000000000000000000000000168152f35b3461044e575f36600319011261044e5760206040515f8152f35b3461044e575f36600319011261044e5760206040516001600160a01b037f0000000000000000000000000000000000000000000000000000000000000000168152f35b67ffffffffffffffff81116105b45760051b60200190565b9080601f8301121561044e5760209082356108d6816108a4565b936108e46040519586610676565b81855260208086019260051b82010192831161044e57602001905b82821061090d575050505090565b813581529083019083016108ff565b9080601f8301121561044e576020908235610936816108a4565b936109446040519586610676565b81855260208086019260051b82010192831161044e57602001905b82821061096d575050505090565b838091833561097b81610492565b81520191019061095f565b9291610991826108a4565b9161099f6040519384610676565b829481845260208094019160051b810192831161044e57905b8282106109c55750505050565b813581529083019083016109b8565b9080601f8301121561044e5781602061076093359101610986565b60031960603682011261044e57600435610a08816104ef565b60243567ffffffffffffffff9283821161044e5760c090823603011261044e57610a30610698565b908060040135825260248101356020830152604481013584811161044e57610a5e90600436918401016108bc565b6040830152610a6f6064820161050b565b6060830152610a80608482016104a3565b608083015260a48101359084821161044e576004610aa1923692010161091c565b60a082015260443592831161044e57610ac16100189336906004016109d4565b91612cf3565b9181601f8401121561044e5782359167ffffffffffffffff831161044e576020808501948460051b01011161044e57565b3461044e5760031960603682011261044e5760043567ffffffffffffffff80821161044e5760608236039384011261044e5760243590610b37826104ef565b60443590811161044e57610b4f903690600401610ac7565b919093610b5a613793565b600484013590610182190181121561044e57610bf094610beb93610b87610be4936004369189010161284f565b95610b9d610b986080890151613da4565b613a4d565b610ba687613604565b9060446020890151916101608a015193610bbe610698565b9a8b5260208b015201356040890152606088015260808701525f60a08701523691610986565b9083613dba565b613f0b565b6100186001606555565b8015150361044e57565b3461044e57606036600319011261044e57600435610c2181610492565b602435907f0a21fdd43d0ad0c62689ee7230a47309a050755bcc52eba00310add65297692a60206001600160a01b0360443593610c5d85610bfa565b610c656136d1565b610c6d613793565b1692835f5261086d825260405f20855f52825260405f209015159060ff1981541660ff8316179055604051908152a36001606555005b3461044e575f36600319011261044e576020604051428152f35b908161018091031261044e5790565b3461044e57604036600319011261044e5760043567ffffffffffffffff811161044e57610cfd903690600401610cbd565b610d0681612eeb565b6001600160a01b031690610d1c60208201612eeb565b6001600160a01b031691610d3260408301612eeb565b6001600160a01b0316610d4760608401612eeb565b6001600160a01b031692610d5d60808201612eeb565b6001600160a01b031690610100610d75818301612ef5565b9061012090610d85848301612ef5565b9261014094858101610d9690612ef5565b966101609a8b8301610da89084612eff565b9a909b610db36106b8565b9e8f91825260208201526040015260608d015260808c015260a081013560a08c015260c081013560c08c015260e0013560e08b015263ffffffff1690890152870190610e04919063ffffffff169052565b63ffffffff909116908501523690610e1b9261070f565b908201523360243561001892613635565b3461044e57602036600319011261044e576004803567ffffffffffffffff811161044e57610e5d9036908301610cbd565b610e65613793565b60ff61086b5460e01c166110165763ffffffff80421692610140830193610e9e81610e8f87612ef5565b63ffffffff9182169116101590565b61100657610120840192610eb184612ef5565b1610610ff757610ec9610ec4368561284f565b613604565b90610edd825f5261087260205260405f2090565b54610fe95750610f2c7f3cee3e290f36226751cd0b3321b213890fe9c768e922f267fa6111836ce05c3292610f27610f21610f32945f5261087260205260405f2090565b60019055565b612ef5565b93612ef5565b610f52610f4d610f46610160860186612eff565b369161070f565b6143e0565b90610fdc6040519283926101008701359760e08801359760208101359281359260408301359260c08101359060a081013590606060808201359101358b9693909a999895919261012098959361014089019c895260208901526040880152606087015263ffffffff80921660808701521660a085015260c084015260e08301526101008201520152565b0390a36100186001606555565b604051624be79160e21b8152fd5b60405163d642b7d960e01b8152fd5b50604051630277ae7b60e21b8152fd5b50604051633d90fc5560e11b8152fd5b3461044e575f36600319011261044e5760206040517f9c6dfd61d811b9950a4f2b9adf46357b717c816d22c420d0bde8f2360148f7cd8152f35b3461044e57602036600319011261044e5760043561107d81610492565b6001600160a01b03807f00000000000000000000000000000000000000000000000000000000000000001680301461044e577f360894a13ba1a3210667c828492db98dca3e2076cc3735a920a3ca505d382bbc90828254160361044e576110e26136d1565b604051916110ef83610622565b5f83527f4910fdfa16fed3260ed0e7147f7cc6da11a60208b5b9406d12a635614ffd91435460ff16156111285750505061001890614dc5565b6020600491604051928380926352d1902d60e01b825288165afa5f9181611161575b50611153575f80fd5b0361044e5761001891614cac565b61118491925060203d60201161118b575b61117c8183610676565b810190613ba7565b905f61114a565b503d611172565b3461044e57608036600319011261044e576004356111af816104ef565b602435906111bc82610492565b6044356111c881610492565b606435916111d583610492565b60ff5f5460081c161561044e5761121c90610c5a624c4b4063ffffffff1982541617905561086b9063ffffffff60c01b1963ffffffff60c01b83549260c01b169116179055565b6040519061122982610598565b6009825260208201916820a1a927a9a996ab1960b91b8352640312e302e360dc1b602060405161125881610598565b60058152015260ff5f5460081c161561044e57610018946112bd936112b89251902061047f557f06c015bd22b4c69690933c1058878ebdfef31f9aaae40bbe86d8a09fe1b2972c610480556112ab614847565b6112b3614856565b61486a565b6148c4565b610c5a9077ffffffffffffffffffffffffffffffffffffffff000000001977ffffffffffffffffffffffffffffffffffffffff0000000083549260201b169116179055565b602060031982011261044e576004359067ffffffffffffffff821161044e5761132d91600401610ac7565b9091565b5f5b8381106113425750505f910152565b8181015183820152602001611333565b9060209161136b81518092818552858086019101611331565b601f01601f1916010190565b6020808201908083528351809252604092604081018260408560051b8401019601945f925b8584106113ad575050505050505090565b9091929394959685806113de600193603f1986820301885286838d5180511515845201519181858201520190611352565b99019401940192959493919061139c565b3461044e576113fd36611302565b611406816108a4565b9160406114166040519485610676565b828452601f19611425846108a4565b015f5b8181106114995750505f5b83811061144c57604051806114488782611377565b0390f35b8061149361145c60019388612f55565b515f8061146a858a8a612f69565b90611479895180938193612f80565b0390305af490611487612f8d565b60208201529015159052565b01611433565b60209083516114a781610598565b5f815282606081830152828901015201611428565b3461044e575f36600319011261044e5760206040516301e133808152f35b3461044e57604036600319011261044e576024356004356114f96136d1565b611501613793565b61086c8054680100000000000000008110156105b45763ffffffff916001820190558361152d82612bc2565b5084600182015555167fc86ba04c55bc5eb2f2876b91c438849a296dbec7b08751c3074d92e04f0a77af5f80a46001606555005b604036600319011261044e5760043561157981610492565b60243567ffffffffffffffff811161044e57611599903690600401610745565b6001600160a01b03807f0000000000000000000000000000000000000000000000000000000000000000169081301461044e577f360894a13ba1a3210667c828492db98dca3e2076cc3735a920a3ca505d382bbc91818354160361044e576115ff6136d1565b7f4910fdfa16fed3260ed0e7147f7cc6da11a60208b5b9406d12a635614ffd91435460ff16156116355750505061001890614dc5565b6020600491604051928380926352d1902d60e01b825288165afa5f918161166e575b50611660575f80fd5b0361044e5761001891614d74565b61168891925060203d60201161118b5761117c8183610676565b905f611657565b3461044e57604036600319011261044e576001600160a01b036004356116b481610492565b165f5261086d60205260405f206024355f52602052602060ff60405f2054166040519015158152f35b3461044e575f36600319011261044e5760206001600160a01b036108695416604051908152f35b3461044e575f36600319011261044e576001600160a01b037f000000000000000000000000000000000000000000000000000000000000000016300361044e5760206040517f360894a13ba1a3210667c828492db98dca3e2076cc3735a920a3ca505d382bbc8152f35b61012036600319011261044e5760043561178781610492565b6024359061179482610492565b604435916117a183610492565b60a4358060070b810361044e5760c435916117bb836104ef565b60e43567ffffffffffffffff811161044e576117db903690600401610745565b936117e4613793565b60ff61086b5460e81c166107f2576107eb95608435926064359261380e565b9181601f8401121561044e5782359167ffffffffffffffff831161044e576020838186019501011161044e57565b3461044e5760c036600319011261044e5760043561184e81610492565b6024356044359160643561186181610492565b67ffffffffffffffff9160843583811161044e57611883903690600401611803565b60a49491943591821161044e577f45e04bc8f121ba11466985789ca2822a91109f31bb8ac85504a37b7eaf873c26946118c36119ca933690600401611803565b9290916001600160a01b038097168a6119be6118e036868661070f565b60428d6118ee368b8b61070f565b92602081519101209460409586519160208301937f9c6dfd61d811b9950a4f2b9adf46357b717c816d22c420d0bde8f2360148f7cd85528884015246606084015260808301528760a083015260c082015260c0815261194c8161063e565b51902061047f546104805486519060208201927fc2f8787176b8ac6bf7215b4adcc1e069bf4ab82d9ab1df05a57a91d425935b6e84528883015260608201524660808201526080815261199e8161065a565b5190209085519161190160f01b835260028301526022820152208a614e08565b51978897169a87612fdc565b0390a3005b3461044e575f36600319011261044e57602060405163ffffffff7f0000000000000000000000000000000000000000000000000000000000000000168152f35b3461044e575f36600319011261044e57602060ff61086b5460e81c166040519015158152f35b606090600319011261044e57600435611a4d816104ef565b90602435611a5a81610492565b9060443561076081610492565b3461044e57611a7536611a35565b5f54600881901c60ff1615939290849081611b30575b8115611b10575b501561044e57611ab69284611aad600160ff195f5416175f55565b611af95761300f565b611abc57005b611aca61ff00195f54165f55565b604051600181527f7f26b83ff96e1f2b6a682f133852f6798a09c465da95921460cefb384740249890602090a1005b611b0b61010061ff00195f5416175f55565b61300f565b303b15915081611b22575b505f611a92565b6001915060ff16145f611b1b565b600160ff8216109150611a8b565b3461044e575f36600319011261044e5760206040517f8d1994e2bbbd77564cdca06dd819e7ee2a5efa06c80dcb59a4a7b6e39edc538f8152f35b3461044e575f36600319011261044e57602060405163ffffffff7f0000000000000000000000000000000000000000000000000000000000000000168152f35b3461044e57602036600319011261044e577fe88463c2f254e2b070013a2dc7ee1e099f9bc00534cbdf03af551dc26ae492196020600435611bf881610bfa565b611c006136d1565b611c08613793565b151561086b80547fffff00ffffffffffffffffffffffffffffffffffffffffffffffffffffffffff60ff60e81b8460e81b169116179055604051908152a16001606555005b3461044e575f36600319011261044e57602063ffffffff610c5a5416604051908152f35b61016036600319011261044e57600435611c8a81610492565b60243590611c9782610492565b604435611ca381610492565b60643590611cb082610492565b60e435611cbc81610492565b6101043590611cca826104ef565b6101243592611cd8846104ef565b610144359667ffffffffffffffff881161044e57611cfd610018983690600401611803565b97909660c4359360a4359360843593613155565b61018036600319011261044e57600435611d2a81610492565b60243590611d3782610492565b604435611d4381610492565b60643590611d5082610492565b60e435611d5c81610492565b61010435611d69816104ef565b6101243591611d77836104ef565b611d7f6104fd565b93610164359767ffffffffffffffff891161044e57611da5610018993690600401611803565b98909760c4359360a4359360843593613177565b3461044e57606036600319011261044e576020611de8600435611ddb81610492565b6044359060243590613292565b604051908152f35b3461044e57606036600319011261044e5767ffffffffffffffff60243581811161044e57611e22903690600401611803565b9160443590811161044e57611e3b903690600401611803565b9060405193602085019480611e524684888a6132ce565b0395611e66601f1997888101845283610676565b6004359151902003611ef9575f94611e95611eb793611e8c87611ec3958a990190612905565b958101906132eb565b519360405193849160208301966337bfd2c960e21b88523391602485016133b3565b03908101835282610676565b5190305af4611ed0612f8d565b9015611ed857005b60405163b8fe37a760e01b8152908190611ef590600483016133d5565b0390fd5b604051630f0c8f4760e11b8152600490fd5b3461044e57602036600319011261044e57600435611f276136d1565b611f2f613793565b611f3881612bc2565b611f70576001815f80935501557f7c1af0646963afc3343245b103731965735a893347bfa0d58a5dc77a77ae691c5f80a26001606555005b634e487b7160e01b5f525f60045260245ffd5b6101a036600319011261044e5761012435611f9d816104ef565b61014435611faa816104ef565b6101643591611fb8836104ef565b610184359267ffffffffffffffff841161044e57611fdd610018943690600401611803565b9390926101043560e43560c43560a4356084356064356044356024356004356133e6565b3461044e575f36600319011261044e5760206040517342000000000000000000000000000000000000078152f35b3461044e575f36600319011261044e5760206040516001600160a01b037f0000000000000000000000000000000000000000000000000000000000000000168152f35b3461044e5760e036600319011261044e5767ffffffffffffffff60043581811161044e576120a4903690600401610cbd565b60a43582811161044e576120bc903690600401611803565b60c49291923593841161044e576120da610018943690600401611803565b9390926084359060643590604435906024359061345e565b3461044e5761210036611a35565b909160ff5f5460081c161561044e576121369061086b9063ffffffff60c01b1963ffffffff60c01b83549260c01b169116179055565b60405161214281610598565b6009815260208101926820a1a927a9a996ab1960b91b8452640312e302e360dc1b602060405161217181610598565b60058152015260ff5f5460081c161561044e57610018936112b89251902061047f557f06c015bd22b4c69690933c1058878ebdfef31f9aaae40bbe86d8a09fe1b2972c610480556112ab614847565b3461044e57602036600319011261044e577f2d5b62420992e5a4afce0e77742636ca2608ef58289fd2e1baa5161ef6e7e41e602060043561220081610bfa565b6122086136d1565b612210613793565b151561086b80547fffffff00ffffffffffffffffffffffffffffffffffffffffffffffffffffffff60ff60e01b8460e01b169116179055604051908152a16001606555005b3461044e575f36600319011261044e576020604051468152f35b3461044e575f36600319011261044e57602063ffffffff61086b5460c01c16604051908152f35b3461044e57604036600319011261044e576004356024356122b682614bd0565b6001600160a01b0382165f526108736020526122e560405f20336001600160a01b03165f5260205260405f2090565b54918215612388575f61232c336123166122fe85613da4565b6001600160a01b03165f5261087360205260405f2090565b906001600160a01b03165f5260205260405f2090565b556123588361234961233d84613da4565b6001600160a01b031690565b61235285613da4565b9061491e565b60405192835233927f6c172ea51018fb2eb2118f3f8a507c4df71eb519b8c0052834dc3c920182fef490602090a4005b6040516336542bf760e21b8152600490fd5b6020808201906020835283518092526040830192602060408460051b8301019501935f915b8483106123cf5750505050505090565b90919293949584806123ed600193603f198682030187528a51611352565b98019301930191949392906123bf565b3461044e5761240b36611302565b9061241582613547565b915f5b81811061242d5760405180611448868261239a565b5f8061243a838587612f69565b9061244a60405180938193612f80565b0390305af4612457612f8d565b901561247d579060019161246b8287612f55565b526124768186612f55565b5001612418565b604481511061044e5780600461044e920151602480918301019101613590565b6101808060031936011261044e57610104356124b8816104ef565b61012435916124c6836104ef565b61014435926124d4846104ef565b6101643567ffffffffffffffff811161044e576124f5903690600401611803565b6124fd613793565b61086b549260ff8460e81c166107f257610bf0966125c2610f46926125b463ffffffff6125d09860c01c16996125586125358c6135ef565b61086b9063ffffffff60c01b1963ffffffff60c01b83549260c01b169116179055565b6125606106d9565b9a6004358c5260243560208d015260443560408d015260643560608d015260843560808d015260a43560a08d015260c43560c08d015260e43560e08d01526101008c01526101208b019063ffffffff169052565b63ffffffff16610140890152565b63ffffffff16610160870152565b90820152614527565b604090600319011261044e576004356125f181610492565b9060243561076081610492565b3461044e57602061263c6001600160a01b03612619366125d9565b91165f52610873835260405f20906001600160a01b03165f5260205260405f2090565b54604051908152f35b3461044e57602036600319011261044e57602060043561266481610492565b6001600160a01b038091165f52610c5c825260405f205416604051908152f35b3461044e575f36600319011261044e5760206001600160a01b0361086a5416604051908152f35b3461044e5760c036600319011261044e5760043560243567ffffffffffffffff60643560443560843583811161044e576126e9903690600401611803565b60a49491943591821161044e577f45e04bc8f121ba11466985789ca2822a91109f31bb8ac85504a37b7eaf873c2694612729612778933690600401611803565b929091612734613793565b61273d8a614bd0565b61276c898b898961274f36888861070f565b9261275b368b8b61070f565b946001600160a01b034692166143f5565b60405196879687612fdc565b0390a36001606555005b3461044e57612790366125d9565b906127996136d1565b6127a1613793565b6001600160a01b0380911691825f52610c5d6020526127d98160405f20906001600160a01b03166001600160a01b0319825416179055565b16907fcb84c2022106a6f2b6f805d446f32fbfd2a528474364fa755f37dac1c0c1b6c85f80a36001606555005b3461044e57602036600319011261044e576004355f52610872602052602060405f2054604051908152f35b3461044e575f36600319011261044e57602060405163ffffffff8152f35b91906101808382031261044e576128646106b8565b92803584526020810135602085015260408101356040850152606081013560608501526080810135608085015260a081013560a085015260c081013560c085015260e081013560e085015261010080820135908501526101206128c881830161050b565b908501526101406128da81830161050b565b90850152610160918282013567ffffffffffffffff811161044e576128ff9201610745565b90830152565b9060208282031261044e57813567ffffffffffffffff811161044e57610760920161284f565b3461044e57602036600319011261044e5760043567ffffffffffffffff811161044e57611de8610ec4602092369060040161284f565b3461044e575f36600319011261044e57602060ff61086b5460e01c166040519015158152f35b3461044e575f36600319011261044e5760206040516ec097ce7bc90715b34b9f10000000008152f35b3461044e57602036600319011261044e576107eb6004356129d081610492565b6129d86136d1565b6112b3613793565b3461044e57606036600319011261044e5760043567ffffffffffffffff811161044e57612a1190369060040161284f565b612a19613793565b60ff61086b5460e01c16612ac35761014081015163ffffffff4281169116101580612aa4575b612a925780612a50610bf092613604565b60c082015160208301519061016084015192612a6a610698565b948552602085015260408401526060830152608082015260243560a08201526044359061417f565b604051630c3a9b9d60e41b8152600490fd5b50612ab26040820151613da4565b6001600160a01b0316331415612a3f565b604051633d90fc5560e11b8152600490fd5b3461044e575f36600319011261044e576020610c5a546001600160a01b0360405191831c168152f35b6101608060031936011261044e5761010435612b19816104ef565b61012435612b26816104ef565b6101443567ffffffffffffffff811161044e57612b47903690600401611803565b63ffffffff94612b5a8642169586613138565b93612b63613793565b61086b549160ff8360e81c166107f257612b96612ba3966125b4610bf09a610f469660c01c16996125586125358c6135ef565b86019063ffffffff169052565b610180820152614527565b634e487b7160e01b5f52603260045260245ffd5b61086c908154811015612bfc576003915f52027f71cd7344f4eb2efc8e30291f6dbdb44d618ca368ea5425d217c1d604bf26b84d01905f90565b612bae565b3461044e57602036600319011261044e5760043561086c5481101561044e57612c2b604091612bc2565b506001815491015482519182526020820152f35b3461044e57612c4d366125d9565b90612c566136d1565b612c5e613793565b6001600160a01b0380911691825f52610c5c602052612c968160405f20906001600160a01b03166001600160a01b0319825416179055565b16907ff3dc137d2246f9b8abd0bb821e185ba01122c9b3ea3745ffca6208037674d6705f80a36001606555005b3461044e57602036600319011261044e576107eb600435612ce381610492565b612ceb6136d1565b6112b8613793565b91612cfc613793565b6080820191612d15610b9884516001600160a01b031690565b602081019182514603612e1c57612d3d612d4191836001612d3589612bc2565b500154613ac0565b1590565b612e0a578060607ff4ad92585b1bc117fbdd644990adf0827bc4c95baeae8a23322af807b6d0020e920193612d83612d7d865163ffffffff1690565b87613b52565b612dfd845194835193612de2612dd4612dc360408401998a51612daa8d5163ffffffff1690565b89516001600160a01b03169160a088019b8c5194613bc3565b925193519851995163ffffffff1690565b94516001600160a01b031690565b945163ffffffff9586604051978897169b1699339487612e9d565b0390a46104ae6001606555565b60405163582f497d60e11b8152600490fd5b604051633d23e4d160e11b8152600490fd5b9081518082526020808093019301915f5b828110612e4d575050505090565b835185529381019392810192600101612e3f565b9081518082526020808093019301915f5b828110612e80575050505090565b83516001600160a01b031685529381019392810192600101612e72565b9496959193612ebf60a095612edd93885260c0602089015260c0880190612e2e565b906001600160a01b0380951660408801528682036060880152612e61565b951515608085015216910152565b3561076081610492565b35610760816104ef565b903590601e198136030182121561044e570180359067ffffffffffffffff821161044e5760200191813603831361044e57565b634e487b7160e01b5f52602160045260245ffd5b60031115612f5057565b612f32565b8051821015612bfc5760209160051b010190565b90821015612bfc5761132d9160051b810190612eff565b908092918237015f815290565b3d15612fb7573d90612f9e826106f3565b91612fac6040519384610676565b82523d5f602084013e565b606090565b908060209392818452848401375f828201840152601f01601f1916010190565b9492909361300192610760979587526020870152608060408701526080860191612fbc565b926060818503910152612fbc565b91909160ff5f5460081c161561044e5761305990610c5a624c4b4063ffffffff1982541617905561086b9063ffffffff60c01b1963ffffffff60c01b83549260c01b169116179055565b60405161306581610598565b6009815260208101926820a1a927a9a996ab1960b91b8452640312e302e360dc1b602060405161309481610598565b60058152015260ff5f5460081c161561044e576130e3936112b89251902061047f557f06c015bd22b4c69690933c1058878ebdfef31f9aaae40bbe86d8a09fe1b2972c610480556112ab614847565b6104ae610c5a77deaddeaddeaddeaddeaddeaddeaddeaddead00000000000077ffffffffffffffffffffffffffffffffffffffff0000000019825416179055565b634e487b7160e01b5f52601160045260245ffd5b91909163ffffffff8080941691160191821161315057565b613124565b96949290916104ae9b9a999896949261317563ffffffff42169889613138565b985b9593919b999897969492909b61318b613793565b61086b549660ff8860e81c166107f2578760c01c63ffffffff166131ae906135ef565b6131d59061086b9063ffffffff60c01b1963ffffffff60c01b83549260c01b169116179055565b6131dd6106d9565b9d6001600160a01b038f921682526001600160a01b031690602001526001600160a01b031660408d01526001600160a01b031660608c015260808b015260a08a015260c08901526001600160a01b031660e088015260c01c63ffffffff16610100870152610120860190613256919063ffffffff169052565b63ffffffff1661014085015263ffffffff1661016084015236906132799261070f565b61018082015261328890614527565b6104ae6001606555565b916040519160208301936bffffffffffffffffffffffff199060601b16845260348301526054820152605481526132c881610606565b51902090565b9392916020916132e691604087526040870191612fbc565b930152565b9081602091031261044e57604051906020820182811067ffffffffffffffff8211176105b45760405235815290565b6107609161018090825181526020830151602082015260408301516040820152606083015160608201526080830151608082015260a083015160a082015260c083015160c082015260e083015160e0820152610100808401519082015261338f610120808501519083019063ffffffff169052565b6101408381015163ffffffff16908201528161016080940151938201520190611352565b6133cb6040929594939560608352606083019061331a565b9460208201520152565b906020610760928181520190611352565b9c9a99989796959493929190966133fb613793565b60ff61086b5460e81c166107f257613414908e33613292565b96604051809e613423826105b9565b81526020015260408d015260608c015260808b015260a08a015260c089015260e088015261010087015263ffffffff16610120860152613256565b97929095939196949761346f613793565b60ff61086b5460e01c16612ac35761348a6101408201612ef5565b63ffffffff8042169116101580613528575b612a9257613511613523966135096132889b6134bb610ec4368761284f565b9a6134c4610698565b9b6134cf368861284f565b8d5260208d01528660408d01528760608d01526134ed368b8461070f565b60808d015260a08c01526135018535613da4565b98369161070f565b95369161070f565b9461010060e0830135920135906143f5565b61417f565b506135366040820135613da4565b6001600160a01b031633141561349c565b90613551826108a4565b61355e6040519182610676565b828152809261356f601f19916108a4565b01905f5b82811061357f57505050565b806060602080938501015201613573565b60208183031261044e5780519067ffffffffffffffff821161044e570181601f8201121561044e5780516135c3816106f3565b926135d16040519485610676565b8184526020828401011161044e576107609160208085019101611331565b63ffffffff8091169081146131505760010190565b6040516132c881613621602082019460408652606083019061331a565b46604083015203601f198101835282610676565b919091613640613793565b60ff61086b5460e01c16612ac35761014081015163ffffffff42811691161015806136b2575b612a92576132889261367782613604565b60c083015160208401519061016085015192613691610698565b958652602086015260408501526060840152608083015260a082015261417f565b506136c06040820151613da4565b6001600160a01b0316331415613666565b73420000000000000000000000000000000000000780330361378157602060049160405192838092636e296e4560e01b82525afa90811561377c575f9161374d575b506001600160a01b0361373261233d610869546001600160a01b031690565b91160361373b57565b6040516336a816d960e01b8152600490fd5b61376f915060203d602011613775575b6137678183610676565b810190614966565b5f613713565b503d61375d565b6137b1565b60405163253a6fc960e11b8152600490fd5b60026065541461044e576002606555565b9190820391821161315057565b6040513d5f823e3d90fd5b926107609695929491946101409585525f60208601526040850152606084015263ffffffff809116608084015260a08301525f60c083015260e08201525f610100820152816101208201520190611352565b9193949690959661384f612d3d6138488861383b896001600160a01b03165f5261086d60205260405f2090565b905f5260205260405f2090565b5460ff1690565b613a3b5760070b906706f05b59d3b200006138698361497b565b1015613a29576ec097ce7bc90715b34b9f10000000008411613a175763ffffffff93613897858a16426137a4565b857f00000000000000000000000000000000000000000000000000000000000000001610613a055761086b5460c01c63ffffffff16986138d96125358b6135ef565b6001600160a01b039586807f000000000000000000000000000000000000000000000000000000000000000016981692888414806139fc575b156139c0578034036139ae57883b1561044e575f6004996040519a8b8092630d0e30db60e41b825234905af198891561377c5761397d613990978a927f32ed1a409ef04c7b0227189c3a103dc5ac10e775a15b785dcc510201f7c25ad39c613995575b505b836149c9565b92604051998a99169d169b1693876137bc565b0390a4565b806139a26139a8926105d6565b80610444565b5f613975565b604051636452a35d60e01b8152600490fd5b7f32ed1a409ef04c7b0227189c3a103dc5ac10e775a15b785dcc510201f7c25ad398508761397d613990976139f78430338a61498a565b613977565b50341515613912565b60405163f722177f60e01b8152600490fd5b60405163622db5a960e11b8152600490fd5b60405163284f109760e21b8152600490fd5b604051632a58c4f360e01b8152600490fd5b6001600160a01b037f0000000000000000000000000000000000000000000000000000000000000000811691168114613a84575b50565b47613a8c5750565b4790803b1561044e575f90600460405180948193630d0e30db60e41b83525af1801561377c5715613a81576104ae906105d6565b6107609291604051613b4981613b3b602082019460208652805160408401526020810151606084015260a0613b05604083015160c06080870152610100860190612e2e565b606083015163ffffffff168583015260808301516001600160a01b031660c0860152910151838203603f190160e0850152612e61565b03601f198101835282610676565b519020916149ff565b613b5d600291612bc2565b500162ffffff8260081c16805f5281602052600160ff60405f205494161b8080941614613b95575f5260205260405f20908154179055565b60405163954476d960e01b8152600490fd5b9081602091031261044e575190565b9190820180921161315057565b91959495939092935f9681519081815103613d925781613c42575b50505082613bed575b50505050565b6001600160a01b0381613c217ffa7fa7cf6d7dde5f9be65a67e6a1a747e7aa864dcd2d793353c722d80fbbb3579386614ac2565b6040805195865233602087015291169463ffffffff1693a45f808080613be7565b604080516370a0823160e01b81523060048083019190915291906020816024816001600160a01b038b165afa90811561377c575f91613d73575b505f805b868110613c91575050505050613bde565b613c9b8189612f55565b51613ca9575b600101613c80565b90613cbf90613cb8838a612f55565b5190613bb6565b90828211613d6357613cf9612d3d613ce7613cda848a612f55565b516001600160a01b031690565b613cf1848c612f55565b51908c614a50565b15613ca1579c5087613d59613d518f613d3c613cda613d35613d1b848f612f55565b51966001600160a01b03165f5261087360205260405f2090565b928b612f55565b6001600160a01b03165f5260205260405f2090565b918254613bb6565b905560019c613ca1565b50505051632ddaa83160e11b8152fd5b613d8c915060203d60201161118b5761117c8183610676565b5f613c7c565b6040516319a5316760e31b8152600490fd5b6001600160a01b0390613db681614bd0565b1690565b91612d3d90613e3392845160408096015191865191613dd8836105ea565b8252613b49613df36020840192468452898501958652612bc2565b5054938851928391613e186020840196602088525160608d86015260a085019061331a565b9151606084015251608083015203601f198101835282610676565b613e3a5750565b5163582f497d60e11b8152600490fd5b613e5382612f46565b52565b9a989693919c9b9997959492909c6101e08c019d8c5260208c015260408b015260608a0152608089015263ffffffff80921660a08901521660c087015260e08601526101008501526101208401526101408301528051610160830152602081015161018083015260408101516101a08301526060015190613ed682612f46565b6101c00152565b9061076094936080936001600160a01b03809316845260208401521660408201528160608201520190611352565b905f82516101208101613f22815163ffffffff1690565b63ffffffff4291161061416d576020850151906002613f4a835f5261087260205260405f2090565b541461415b57613f6486925f5261087260205260405f2090565b6002905560608301519060808401519160a08501519260c0860151918560a0810151938860e0810151956101008201519751613fa39063ffffffff1690565b61014083015163ffffffff166040840151918451936020860151956101600151613fcc906143e0565b966060890151986080019e8f51613fe2906143e0565b906040015190613ff06106e6565b9a8b5260208b015260408a0152600260608a01526040519d8e9b6140149b8d613e56565b037f44b559f101f8fbcc8a0ea43fa91a05a729a5ea6e14a7c75aa750374690137208905f94a4608082015161404890613da4565b906040860151956060015161405c90613da4565b926080015161406a90613da4565b6001600160a01b03919082167f00000000000000000000000000000000000000000000000000000000000000008316036141465784614133575b6140b087838616614beb565b51928351151580614129575b6140ca575b50505050509050565b1690813b1561412557836140f8959660405196879586948593633a5be8cb60e01b8552339160048601613edd565b03925af1801561377c57614112575b8080808085946140c1565b806139a261411f926105d6565b5f614107565b8380fd5b50803b15156140bc565b61414187303385871661498a565b6140a4565b5f9450614156878585851661491e565b6140b0565b604051630479306360e51b8152600490fd5b60405163d642b7d960e01b8152600490fd5b8051916101208301614195815163ffffffff1690565b63ffffffff4291161061416d57602083015160016141bc825f5261087260205260405f2090565b54036143d9576001905b60026141db825f5261087260205260405f2090565b541461415b576141f76141fd915f5261087260205260405f2090565b60029055565b7f44b559f101f8fbcc8a0ea43fa91a05a729a5ea6e14a7c75aa75037469013720860608601516080870151906142ca8760a08a0151958a60c08101519760a08401519860e08301519961425a6101008501519c5163ffffffff1690565b61014085015163ffffffff16916040860151938651956142be61428661016060208b01519a01516143e0565b9960608c01519b604061429c60808301516143e0565b9101519060206142aa6106e6565b9e8f528e015260408d015260608c01613e4a565b6040519c8d9c8d613e56565b0390a46142da6080830151613da4565b9160408201519160806142fc816142f46060850151613da4565b940151613da4565b6001600160a01b03929083167f00000000000000000000000000000000000000000000000000000000000000008416036143c65761433e853033868a1661498a565b61434a85848616614beb565b01519182511515806143bc575b614363575b5050505050565b16803b1561044e57614391935f809460405196879586948593633a5be8cb60e01b8552339160048601613edd565b03925af1801561377c576143a9575b8080808061435c565b806139a26143b6926105d6565b5f6143a0565b50803b1515614357565b6143d4858533868a1661498a565b61434a565b5f906141c6565b805190816143ee5750505f90565b6020012090565b93926042936104ae979660208151910120906040519260208401947f8d1994e2bbbd77564cdca06dd819e7ee2a5efa06c80dcb59a4a7b6e39edc538f86526040850152856060850152608084015260a083015260c082015260c0815261445a8161063e565b5190209061047f549061048054906040519160208301937fc2f8787176b8ac6bf7215b4adcc1e069bf4ab82d9ab1df05a57a91d425935b6e8552604084015260608301526080820152608081526144b08161065a565b519020906040519161190160f01b8352600283015260228201522090614e08565b96926107609a9996949198959261014099895260208901526040880152606087015263ffffffff928380921660808801521660a08601521660c084015260e0830152610100820152816101208201520190611352565b6145318151614bd0565b6040908181019061455d6145458351613da4565b6001600160a01b03165f5261086d60205260405f2090565b9261457a612d3d61384860c085019687515f5260205260405f2090565b6148375761012082019261459e614595855163ffffffff1690565b63ffffffff1690565b8042109081156147fe575b506147ed576101408301926145c2845163ffffffff1690565b9163ffffffff92836145f6817f00000000000000000000000000000000000000000000000000000000000000001642613bb6565b9116116147dc5761016082015163ffffffff169280841680614798575b50508051936001600160a01b037f0000000000000000000000000000000000000000000000000000000000000000168095148061478f575b15614729576080830151340361471957843b1561044e575f600495825196878092630d0e30db60e41b825234905af191821561377c577f32ed1a409ef04c7b0227189c3a103dc5ac10e775a15b785dcc510201f7c25ad39561399093614706575b505b519260608101519460808201519060a08301519a51986146e66146db6101008601519c5163ffffffff1690565b915163ffffffff1690565b9084519c60208601519461018060e088015197015197519a8b9a8b6144d1565b806139a2614713926105d6565b5f6146ac565b51636452a35d60e01b8152600490fd5b919293503461477e577f32ed1a409ef04c7b0227189c3a103dc5ac10e775a15b785dcc510201f7c25ad39392918161477961476a61233d6139909551613da4565b6080860151903090339061498a565b6146ae565b8151636452a35d60e01b8152600490fd5b5034151561464b565b6301e1338010156147c7575b5060e0820151156147b6575f80614613565b835163495d907f60e01b8152600490fd5b926147d59193421690613138565b915f6147a4565b835163582e388960e01b8152600490fd5b815163f722177f60e01b8152600490fd5b6148099150426137a4565b63ffffffff7f000000000000000000000000000000000000000000000000000000000000000016105f6145a9565b51632a58c4f360e01b8152600490fd5b60ff5f5460081c161561044e57565b60ff5f5460081c161561044e576001606555565b6001600160a01b031680156148b257610869816001600160a01b03198254161790557fa9e8c42c9e7fca7f62755189a16b2f5314d43d8fb24e91ba54e6d65f9314e8495f80a2565b60405163ba97b39d60e01b8152600490fd5b6001600160a01b0316801561490c5761086a816001600160a01b03198254161790557fa73e8909f8616742d7fe701153d82666f7b7cd480552e23ebb05d358c22fd04e5f80a2565b604051635b03092b60e11b8152600490fd5b60405163a9059cbb60e01b60208201526001600160a01b03909216602483015260448201929092526104ae9161496182606481015b03601f198101845283610676565b614ee6565b9081602091031261044e575161076081610492565b5f81126149855790565b5f0390565b90926104ae93604051936323b872dd60e01b60208601526001600160a01b0380921660248601521660448401526064830152606482526149618261065a565b90670de0b6b3a7640000915f82840392128383128116908484139015161761315057818102918183041490151715613150570490565b929091905f915b8451831015614a4857614a198386612f55565b519081811015614a37575f52602052600160405f205b920191614a06565b905f52602052600160405f20614a2f565b915092501490565b60405163a9059cbb60e01b60208281019182526001600160a01b039094166024830152604482019490945290925f91614a8c8160648101613b3b565b519082855af1903d5f519083614aa3575b50505090565b91925090614ab857503b15155b5f8080614a9d565b6001915014614ab0565b907f0000000000000000000000000000000000000000000000000000000000000000906001600160a01b03808316818316149081614ba5575b5015614b9a575081614b0c916152df565b61086a546001600160a01b0316610c5a5463ffffffff16738be79275fcfd08a931087ecf70ba8a99aee3ac59803b1561044e5760405163262cc5ab60e11b81526001600160a01b039093166004840152602483019390935263ffffffff166044820152905f908290818381606481015b03925af1801561377c57614b8d5750565b806139a26104ae926105d6565b90506104ae91614f76565b90507f000000000000000000000000000000000000000000000000000000000000000016155f614afb565b60a01c614bd957565b6040516379ec0ed760e11b8152600490fd5b6001600160a01b0390811690813b15614c2b57906104ae92917f00000000000000000000000000000000000000000000000000000000000000001661491e565b7f000000000000000000000000000000000000000000000000000000000000000016803b1561044e575f8091602460405180948193632e1a7d4d60e01b83528860048401525af1801561377c57614c9d575b5081471061044e575f80809381935af1614c95612f8d565b501561044e57565b614ca6906105d6565b5f614c7d565b614cb581614dc5565b6001600160a01b0381167fbc7cd75a20ee27fd9adebab32041f755214dbc6bffa90cc0225b39da2e5c2d3b5f80a2815115801590614d6d575b614cf6575050565b5f80613a81937f206661696c65640000000000000000000000000000000000000000000000000060408051614d2a816105ea565b602781527f416464726573733a206c6f772d6c6576656c2064656c65676174652063616c6c60208201520152602081519101845af4614d67612f8d565b91615686565b505f614cee565b614d7d81614dc5565b6001600160a01b0381167fbc7cd75a20ee27fd9adebab32041f755214dbc6bffa90cc0225b39da2e5c2d3b5f80a2815115801590614dbd57614cf6575050565b506001614cee565b803b1561044e576001600160a01b037f360894a13ba1a3210667c828492db98dca3e2076cc3735a920a3ca505d382bbc91166001600160a01b0319825416179055565b614e128383615635565b6005819592951015612f5057159384614ed0575b508315614e4a575b50505015614e3857565b60405163938a182160e01b8152600490fd5b5f929350908291604051614e8281613b3b6020820194630b135d3f60e11b998a87526024840152604060448401526064830190611352565b51915afa90614e8f612f8d565b82614ec2575b82614ea5575b50505f8080614e2e565b614eba91925060208082518301019101613ba7565b145f80614e9b565b915060208251101591614e95565b6001600160a01b0383811691161493505f614e26565b905f806001600160a01b03614f3d9416927f5361666545524332303a206c6f772d6c6576656c2063616c6c206661696c65646020604051614f2681610598565b818152015260208151910182855af1614d67612f8d565b8051908115918215614f53575b50501561044e57565b819250906020918101031261044e5760200151614f6f81610bfa565b5f80614f4a565b906001600160a01b0390818116907f0000000000000000000000000000000000000000000000000000000000000000831682036150895750803b1561044e57604051632e1a7d4d60e01b815260048101849052905f908290602490829084905af1801561377c57615076575b50610c5a5491614ffb61086a546001600160a01b031690565b73420000000000000000000000000000000000001090813b1561044e57604051631474f2a960e31b81526001600160a01b03602087901c90951685166004820152931660248401526044830182905263ffffffff909316606483015260a060848301525f60a483018190529192839182908160c48101614b7c565b806139a2615083926105d6565b5f614fe2565b91807f0000000000000000000000000000000000000000000000000000000000000000161515806152b4575b156150d9575050506104ae906150d461086a546001600160a01b031690565b615449565b806151066150f9856001600160a01b03165f52610c5c60205260405f2090565b546001600160a01b031690565b16615290577342000000000000000000000000000000000000105b169061514561233d6150f9856001600160a01b03165f52610c5d60205260405f2090565b1561520a5783826151559261539c565b6151746150f9836001600160a01b03165f52610c5d60205260405f2090565b9061518861086a546001600160a01b031690565b91615199610c5a5463ffffffff1690565b823b1561044e5760405163540abf7360e01b81526001600160a01b0395861660048201529185166024830152929093166044840152606483019390935263ffffffff16608482015260c060a48201525f60c482018190529091829060e490829084905af1801561377c57614b8d5750565b509161521f61086a546001600160a01b031690565b92615230610c5a5463ffffffff1690565b93813b1561044e57604051631474f2a960e31b81526001600160a01b03948516600482015293166024840152604483019190915263ffffffff909216606482015260a060848201525f60a482018190529091829081838160c48101614b7c565b6152af6150f9846001600160a01b03165f52610c5c60205260405f2090565b615121565b50807f00000000000000000000000000000000000000000000000000000000000000001682146150b5565b604051636eb1769f60e11b8152306004820152738be79275fcfd08a931087ecf70ba8a99aee3ac59602482015290916020826044816001600160a01b0387165afa91821561377c575f9261537b575b5081018091116131505760405163095ea7b360e01b6020820152738be79275fcfd08a931087ecf70ba8a99aee3ac59602482015260448101919091526104ae916149618260648101614953565b61539591925060203d60201161118b5761117c8183610676565b905f61532e565b604051636eb1769f60e11b81523060048201526001600160a01b03831660248201529192602083806044810103816001600160a01b0386165afa92831561377c575f93615428575b5082018092116131505760405163095ea7b360e01b60208201526001600160a01b03909316602484015260448301919091526104ae91906149618260648101614953565b61544291935060203d60201161118b5761117c8183610676565b915f6153e4565b6001600160a01b03809116917f000000000000000000000000000000000000000000000000000000000000000090827f0000000000000000000000000000000000000000000000000000000000000000166154a582828561539c565b604090604051916332dd704760e21b83526020936004958585600481875afa94851561377c57869189915f97615616575b501697604051958680926352b7631960e11b8252816155088d600483019190916001600160a01b036020820193169052565b0392165afa93841561377c575f946155f7575b5092947f000000000000000000000000000000000000000000000000000000000000000093805b61555157505050505050505050565b6155a290878111156155f15787905b84516337e9a82760e11b815284810183815263ffffffff89166020820152604081018d90526001600160a01b038c166060820152909389918591829160800190565b03815f8a5af192831561377c576155be936155c4575b506137a4565b80615542565b6155e390893d8b116155ea575b6155db8183610676565b810190615666565b505f6155b8565b503d6155d1565b80615560565b61560f919450853d871161118b5761117c8183610676565b925f61551b565b61562e919750833d8511613775576137678183610676565b955f6154d6565b9060418151145f1461565d5761132d91602082015190606060408401519301515f1a906156af565b50505f90600290565b9081602091031261044e575167ffffffffffffffff8116810361044e5790565b90156156a057815115615697575090565b3b1561044e5790565b50805190811561044e57602001fd5b7f7fffffffffffffffffffffffffffffff5d576e7357a4501ddfe92f46681b20a0841161571f576020935f9360ff60809460405194855216868401526040830152606082015282805260015afa1561377c575f516001600160a01b0381161561571757905f90565b505f90600190565b505050505f9060039056fea2646970667358221220bff9288fb4df6255f8867d010b1d16a4787ec56b43b9ff6c12e06955a7b90b6264736f6c63430008170033"
}