{
  "address": "0xf0f9089a48ABCf9b01eEF70ADA87b7815026A929",
  "abi": [
    {
      "inputs": [
        {
          "internalType": "address",
          "name": "_hubPool",
          "type": "address"
        },
        {
          "internalType": "address",
          "name": "_wethAddress",
          "type": "address"
        },
        {
          "internalType": "address",
          "name": "timerAddress",
          "type": "address"
        }
      ],
      "stateMutability": "nonpayable",
      "type": "constructor"
    },
    {
      "anonymous": false,
      "inputs": [
        {
          "indexed": true,
          "internalType": "address",
          "name": "originToken",
          "type": "address"
        },
        {
          "indexed": true,
          "internalType": "uint256",
          "name": "destinationChainId",
          "type": "uint256"
        },
        {
          "indexed": false,
          "internalType": "bool",
          "name": "enabled",
          "type": "bool"
        }
      ],
      "name": "EnabledDepositRoute",
      "type": "event"
    },
    {
      "anonymous": false,
      "inputs": [
        {
          "indexed": false,
          "internalType": "uint256",
          "name": "amountToReturn",
          "type": "uint256"
        },
        {
          "indexed": false,
          "internalType": "uint256",
          "name": "chainId",
          "type": "uint256"
        },
        {
          "indexed": false,
          "internalType": "uint256[]",
          "name": "refundAmounts",
          "type": "uint256[]"
        },
        {
          "indexed": true,
          "internalType": "uint32",
          "name": "rootBundleId",
          "type": "uint32"
        },
        {
          "indexed": true,
          "internalType": "uint32",
          "name": "leafId",
          "type": "uint32"
        },
        {
          "indexed": false,
          "internalType": "address",
          "name": "l2TokenAddress",
          "type": "address"
        },
        {
          "indexed": false,
          "internalType": "address[]",
          "name": "refundAddresses",
          "type": "address[]"
        },
        {
          "indexed": true,
          "internalType": "address",
          "name": "caller",
          "type": "address"
        }
      ],
      "name": "ExecutedRelayerRefundRoot",
      "type": "event"
    },
    {
      "anonymous": false,
      "inputs": [
        {
          "indexed": true,
          "internalType": "bytes32",
          "name": "relayHash",
          "type": "bytes32"
        },
        {
          "indexed": false,
          "internalType": "uint256",
          "name": "totalRelayAmount",
          "type": "uint256"
        },
        {
          "indexed": false,
          "internalType": "uint256",
          "name": "totalFilledAmount",
          "type": "uint256"
        },
        {
          "indexed": false,
          "internalType": "uint256",
          "name": "fillAmount",
          "type": "uint256"
        },
        {
          "indexed": false,
          "internalType": "uint256",
          "name": "originChainId",
          "type": "uint256"
        },
        {
          "indexed": false,
          "internalType": "uint64",
          "name": "relayerFeePct",
          "type": "uint64"
        },
        {
          "indexed": false,
          "internalType": "uint64",
          "name": "realizedLpFeePct",
          "type": "uint64"
        },
        {
          "indexed": false,
          "internalType": "uint32",
          "name": "depositId",
          "type": "uint32"
        },
        {
          "indexed": false,
          "internalType": "address",
          "name": "destinationToken",
          "type": "address"
        },
        {
          "indexed": true,
          "internalType": "address",
          "name": "caller",
          "type": "address"
        },
        {
          "indexed": false,
          "internalType": "address",
          "name": "depositor",
          "type": "address"
        },
        {
          "indexed": false,
          "internalType": "address",
          "name": "recipient",
          "type": "address"
        }
      ],
      "name": "ExecutedSlowRelayFulfillmentRoot",
      "type": "event"
    },
    {
      "anonymous": false,
      "inputs": [
        {
          "indexed": true,
          "internalType": "bytes32",
          "name": "relayHash",
          "type": "bytes32"
        },
        {
          "indexed": false,
          "internalType": "uint256",
          "name": "totalRelayAmount",
          "type": "uint256"
        },
        {
          "indexed": false,
          "internalType": "uint256",
          "name": "totalFilledAmount",
          "type": "uint256"
        },
        {
          "indexed": false,
          "internalType": "uint256",
          "name": "fillAmount",
          "type": "uint256"
        },
        {
          "indexed": true,
          "internalType": "uint256",
          "name": "repaymentChain",
          "type": "uint256"
        },
        {
          "indexed": false,
          "internalType": "uint256",
          "name": "originChainId",
          "type": "uint256"
        },
        {
          "indexed": false,
          "internalType": "uint64",
          "name": "relayerFeePct",
          "type": "uint64"
        },
        {
          "indexed": false,
          "internalType": "uint64",
          "name": "realizedLpFeePct",
          "type": "uint64"
        },
        {
          "indexed": false,
          "internalType": "uint32",
          "name": "depositId",
          "type": "uint32"
        },
        {
          "indexed": false,
          "internalType": "address",
          "name": "destinationToken",
          "type": "address"
        },
        {
          "indexed": true,
          "internalType": "address",
          "name": "relayer",
          "type": "address"
        },
        {
          "indexed": false,
          "internalType": "address",
          "name": "depositor",
          "type": "address"
        },
        {
          "indexed": false,
          "internalType": "address",
          "name": "recipient",
          "type": "address"
        }
      ],
      "name": "FilledRelay",
      "type": "event"
    },
    {
      "anonymous": false,
      "inputs": [
        {
          "indexed": false,
          "internalType": "uint256",
          "name": "amount",
          "type": "uint256"
        },
        {
          "indexed": false,
          "internalType": "uint256",
          "name": "destinationChainId",
          "type": "uint256"
        },
        {
          "indexed": false,
          "internalType": "uint64",
          "name": "relayerFeePct",
          "type": "uint64"
        },
        {
          "indexed": true,
          "internalType": "uint32",
          "name": "depositId",
          "type": "uint32"
        },
        {
          "indexed": false,
          "internalType": "uint32",
          "name": "quoteTimestamp",
          "type": "uint32"
        },
        {
          "indexed": true,
          "internalType": "address",
          "name": "originToken",
          "type": "address"
        },
        {
          "indexed": false,
          "internalType": "address",
          "name": "recipient",
          "type": "address"
        },
        {
          "indexed": true,
          "internalType": "address",
          "name": "depositor",
          "type": "address"
        }
      ],
      "name": "FundsDeposited",
      "type": "event"
    },
    {
      "anonymous": false,
      "inputs": [
        {
          "indexed": true,
          "internalType": "address",
          "name": "previousOwner",
          "type": "address"
        },
        {
          "indexed": true,
          "internalType": "address",
          "name": "newOwner",
          "type": "address"
        }
      ],
      "name": "OwnershipTransferred",
      "type": "event"
    },
    {
      "anonymous": false,
      "inputs": [
        {
          "indexed": true,
          "internalType": "uint32",
          "name": "rootBundleId",
          "type": "uint32"
        },
        {
          "indexed": false,
          "internalType": "bytes32",
          "name": "relayerRefundRoot",
          "type": "bytes32"
        },
        {
          "indexed": false,
          "internalType": "bytes32",
          "name": "slowRelayFulfillmentRoot",
          "type": "bytes32"
        }
      ],
      "name": "RelayedRootBundle",
      "type": "event"
    },
    {
      "anonymous": false,
      "inputs": [
        {
          "indexed": false,
          "internalType": "uint32",
          "name": "newBuffer",
          "type": "uint32"
        }
      ],
      "name": "SetDepositQuoteTimeBuffer",
      "type": "event"
    },
    {
      "anonymous": false,
      "inputs": [
        {
          "indexed": true,
          "internalType": "address",
          "name": "newHubPool",
          "type": "address"
        }
      ],
      "name": "SetHubPool",
      "type": "event"
    },
    {
      "anonymous": false,
      "inputs": [
        {
          "indexed": true,
          "internalType": "address",
          "name": "newAdmin",
          "type": "address"
        }
      ],
      "name": "SetXDomainAdmin",
      "type": "event"
    },
    {
      "anonymous": false,
      "inputs": [
        {
          "indexed": false,
          "internalType": "uint256",
          "name": "amountToReturn",
          "type": "uint256"
        },
        {
          "indexed": true,
          "internalType": "uint256",
          "name": "chainId",
          "type": "uint256"
        },
        {
          "indexed": true,
          "internalType": "uint32",
          "name": "leafId",
          "type": "uint32"
        },
        {
          "indexed": true,
          "internalType": "address",
          "name": "l2TokenAddress",
          "type": "address"
        },
        {
          "indexed": false,
          "internalType": "address",
          "name": "caller",
          "type": "address"
        }
      ],
      "name": "TokensBridged",
      "type": "event"
    },
    {
      "inputs": [],
      "name": "chainId",
      "outputs": [
        {
          "internalType": "uint256",
          "name": "",
          "type": "uint256"
        }
      ],
      "stateMutability": "view",
      "type": "function"
    },
    {
      "inputs": [],
      "name": "crossDomainAdmin",
      "outputs": [
        {
          "internalType": "address",
          "name": "",
          "type": "address"
        }
      ],
      "stateMutability": "view",
      "type": "function"
    },
    {
      "inputs": [],
      "name": "deploymentTime",
      "outputs": [
        {
          "internalType": "uint32",
          "name": "",
          "type": "uint32"
        }
      ],
      "stateMutability": "view",
      "type": "function"
    },
    {
      "inputs": [
        {
          "internalType": "address",
          "name": "recipient",
          "type": "address"
        },
        {
          "internalType": "address",
          "name": "originToken",
          "type": "address"
        },
        {
          "internalType": "uint256",
          "name": "amount",
          "type": "uint256"
        },
        {
          "internalType": "uint256",
          "name": "destinationChainId",
          "type": "uint256"
        },
        {
          "internalType": "uint64",
          "name": "relayerFeePct",
          "type": "uint64"
        },
        {
          "internalType": "uint32",
          "name": "quoteTimestamp",
          "type": "uint32"
        }
      ],
      "name": "deposit",
      "outputs": [],
      "stateMutability": "payable",
      "type": "function"
    },
    {
      "inputs": [],
      "name": "depositQuoteTimeBuffer",
      "outputs": [
        {
          "internalType": "uint32",
          "name": "",
          "type": "uint32"
        }
      ],
      "stateMutability": "view",
      "type": "function"
    },
    {
      "inputs": [
        {
          "internalType": "address",
          "name": "",
          "type": "address"
        },
        {
          "internalType": "uint256",
          "name": "",
          "type": "uint256"
        }
      ],
      "name": "enabledDepositRoutes",
      "outputs": [
        {
          "internalType": "bool",
          "name": "",
          "type": "bool"
        }
      ],
      "stateMutability": "view",
      "type": "function"
    },
    {
      "inputs": [
        {
          "internalType": "uint32",
          "name": "rootBundleId",
          "type": "uint32"
        },
        {
          "components": [
            {
              "internalType": "uint256",
              "name": "amountToReturn",
              "type": "uint256"
            },
            {
              "internalType": "uint256",
              "name": "chainId",
              "type": "uint256"
            },
            {
              "internalType": "uint256[]",
              "name": "refundAmounts",
              "type": "uint256[]"
            },
            {
              "internalType": "uint32",
              "name": "leafId",
              "type": "uint32"
            },
            {
              "internalType": "address",
              "name": "l2TokenAddress",
              "type": "address"
            },
            {
              "internalType": "address[]",
              "name": "refundAddresses",
              "type": "address[]"
            }
          ],
          "internalType": "struct SpokePoolInterface.RelayerRefundLeaf",
          "name": "relayerRefundLeaf",
          "type": "tuple"
        },
        {
          "internalType": "bytes32[]",
          "name": "proof",
          "type": "bytes32[]"
        }
      ],
      "name": "executeRelayerRefundRoot",
      "outputs": [],
      "stateMutability": "nonpayable",
      "type": "function"
    },
    {
      "inputs": [
        {
          "internalType": "address",
          "name": "depositor",
          "type": "address"
        },
        {
          "internalType": "address",
          "name": "recipient",
          "type": "address"
        },
        {
          "internalType": "address",
          "name": "destinationToken",
          "type": "address"
        },
        {
          "internalType": "uint256",
          "name": "totalRelayAmount",
          "type": "uint256"
        },
        {
          "internalType": "uint256",
          "name": "originChainId",
          "type": "uint256"
        },
        {
          "internalType": "uint64",
          "name": "realizedLpFeePct",
          "type": "uint64"
        },
        {
          "internalType": "uint64",
          "name": "relayerFeePct",
          "type": "uint64"
        },
        {
          "internalType": "uint32",
          "name": "depositId",
          "type": "uint32"
        },
        {
          "internalType": "uint32",
          "name": "rootBundleId",
          "type": "uint32"
        },
        {
          "internalType": "bytes32[]",
          "name": "proof",
          "type": "bytes32[]"
        }
      ],
      "name": "executeSlowRelayFulfillmentRoot",
      "outputs": [],
      "stateMutability": "nonpayable",
      "type": "function"
    },
    {
      "inputs": [
        {
          "internalType": "address",
          "name": "depositor",
          "type": "address"
        },
        {
          "internalType": "address",
          "name": "recipient",
          "type": "address"
        },
        {
          "internalType": "address",
          "name": "destinationToken",
          "type": "address"
        },
        {
          "internalType": "uint256",
          "name": "totalRelayAmount",
          "type": "uint256"
        },
        {
          "internalType": "uint256",
          "name": "maxTokensToSend",
          "type": "uint256"
        },
        {
          "internalType": "uint256",
          "name": "repaymentChain",
          "type": "uint256"
        },
        {
          "internalType": "uint256",
          "name": "originChainId",
          "type": "uint256"
        },
        {
          "internalType": "uint64",
          "name": "realizedLpFeePct",
          "type": "uint64"
        },
        {
          "internalType": "uint64",
          "name": "relayerFeePct",
          "type": "uint64"
        },
        {
          "internalType": "uint32",
          "name": "depositId",
          "type": "uint32"
        }
      ],
      "name": "fillRelay",
      "outputs": [],
      "stateMutability": "nonpayable",
      "type": "function"
    },
    {
      "inputs": [
        {
          "internalType": "address",
          "name": "depositor",
          "type": "address"
        },
        {
          "internalType": "address",
          "name": "recipient",
          "type": "address"
        },
        {
          "internalType": "address",
          "name": "destinationToken",
          "type": "address"
        },
        {
          "internalType": "uint256",
          "name": "totalRelayAmount",
          "type": "uint256"
        },
        {
          "internalType": "uint256",
          "name": "maxTokensToSend",
          "type": "uint256"
        },
        {
          "internalType": "uint256",
          "name": "repaymentChain",
          "type": "uint256"
        },
        {
          "internalType": "uint256",
          "name": "originChainId",
          "type": "uint256"
        },
        {
          "internalType": "uint64",
          "name": "realizedLpFeePct",
          "type": "uint64"
        },
        {
          "internalType": "uint64",
          "name": "relayerFeePct",
          "type": "uint64"
        },
        {
          "internalType": "uint64",
          "name": "newRelayerFeePct",
          "type": "uint64"
        },
        {
          "internalType": "uint32",
          "name": "depositId",
          "type": "uint32"
        },
        {
          "internalType": "bytes",
          "name": "depositorSignature",
          "type": "bytes"
        }
      ],
      "name": "fillRelayWithUpdatedFee",
      "outputs": [],
      "stateMutability": "nonpayable",
      "type": "function"
    },
    {
      "inputs": [],
      "name": "getCurrentTime",
      "outputs": [
        {
          "internalType": "uint256",
          "name": "",
          "type": "uint256"
        }
      ],
      "stateMutability": "view",
      "type": "function"
    },
    {
      "inputs": [],
      "name": "hubPool",
      "outputs": [
        {
          "internalType": "address",
          "name": "",
          "type": "address"
        }
      ],
      "stateMutability": "view",
      "type": "function"
    },
    {
      "inputs": [
        {
          "internalType": "bytes[]",
          "name": "data",
          "type": "bytes[]"
        }
      ],
      "name": "multicall",
      "outputs": [
        {
          "internalType": "bytes[]",
          "name": "results",
          "type": "bytes[]"
        }
      ],
      "stateMutability": "payable",
      "type": "function"
    },
    {
      "inputs": [],
      "name": "numberOfDeposits",
      "outputs": [
        {
          "internalType": "uint32",
          "name": "",
          "type": "uint32"
        }
      ],
      "stateMutability": "view",
      "type": "function"
    },
    {
      "inputs": [],
      "name": "owner",
      "outputs": [
        {
          "internalType": "address",
          "name": "",
          "type": "address"
        }
      ],
      "stateMutability": "view",
      "type": "function"
    },
    {
      "inputs": [
        {
          "internalType": "bytes32",
          "name": "",
          "type": "bytes32"
        }
      ],
      "name": "relayFills",
      "outputs": [
        {
          "internalType": "uint256",
          "name": "",
          "type": "uint256"
        }
      ],
      "stateMutability": "view",
      "type": "function"
    },
    {
      "inputs": [
        {
          "internalType": "bytes32",
          "name": "relayerRefundRoot",
          "type": "bytes32"
        },
        {
          "internalType": "bytes32",
          "name": "slowRelayRoot",
          "type": "bytes32"
        }
      ],
      "name": "relayRootBundle",
      "outputs": [],
      "stateMutability": "nonpayable",
      "type": "function"
    },
    {
      "inputs": [],
      "name": "renounceOwnership",
      "outputs": [],
      "stateMutability": "nonpayable",
      "type": "function"
    },
    {
      "inputs": [
        {
          "internalType": "uint256",
          "name": "",
          "type": "uint256"
        }
      ],
      "name": "rootBundles",
      "outputs": [
        {
          "internalType": "bytes32",
          "name": "slowRelayFulfillmentRoot",
          "type": "bytes32"
        },
        {
          "internalType": "bytes32",
          "name": "relayerRefundRoot",
          "type": "bytes32"
        }
      ],
      "stateMutability": "view",
      "type": "function"
    },
    {
      "inputs": [
        {
          "internalType": "address",
          "name": "newCrossDomainAdmin",
          "type": "address"
        }
      ],
      "name": "setCrossDomainAdmin",
      "outputs": [],
      "stateMutability": "nonpayable",
      "type": "function"
    },
    {
      "inputs": [
        {
          "internalType": "uint256",
          "name": "time",
          "type": "uint256"
        }
      ],
      "name": "setCurrentTime",
      "outputs": [],
      "stateMutability": "nonpayable",
      "type": "function"
    },
    {
      "inputs": [
        {
          "internalType": "uint32",
          "name": "buffer",
          "type": "uint32"
        }
      ],
      "name": "setDepositQuoteTimeBuffer",
      "outputs": [],
      "stateMutability": "nonpayable",
      "type": "function"
    },
    {
      "inputs": [
        {
          "internalType": "address",
          "name": "originToken",
          "type": "address"
        },
        {
          "internalType": "uint256",
          "name": "destinationChainId",
          "type": "uint256"
        },
        {
          "internalType": "bool",
          "name": "enable",
          "type": "bool"
        }
      ],
      "name": "setEnableRoute",
      "outputs": [],
      "stateMutability": "nonpayable",
      "type": "function"
    },
    {
      "inputs": [
        {
          "internalType": "address",
          "name": "newHubPool",
          "type": "address"
        }
      ],
      "name": "setHubPool",
      "outputs": [],
      "stateMutability": "nonpayable",
      "type": "function"
    },
    {
      "inputs": [],
      "name": "timerAddress",
      "outputs": [
        {
          "internalType": "address",
          "name": "",
          "type": "address"
        }
      ],
      "stateMutability": "view",
      "type": "function"
    },
    {
      "inputs": [
        {
          "internalType": "address",
          "name": "newOwner",
          "type": "address"
        }
      ],
      "name": "transferOwnership",
      "outputs": [],
      "stateMutability": "nonpayable",
      "type": "function"
    },
    {
      "inputs": [],
      "name": "weth",
      "outputs": [
        {
          "internalType": "contract WETH9",
          "name": "",
          "type": "address"
        }
      ],
      "stateMutability": "view",
      "type": "function"
    },
    {
      "stateMutability": "payable",
      "type": "receive"
    }
  ],
  "transactionHash": "0xa0e1264640a527c905f3837fa4ba047caebcf2d488b43446ea35e3450862366c",
  "args": [
    "0xFA6326FdF1f149B63d116576fCfbc7e15cc0355A",
    "0xc778417E063141139Fce010982780140Aa0cD5Ab",
    "0x0000000000000000000000000000000000000000"
  ],
  "numDeployments": 1,
  "solcInputHash": "a5765a49a3d11723dab4e70ab648f8a6",
  "bytecode": "0x60806040526003805463ffffffff60c01b1916604b60c31b1790553480156200002757600080fd5b5060405162004681380380620046818339810160408190526200004a916200033a565b600080546001600160a81b0319166001600160a01b03831617600160a01b179055338383836200007a84620000ee565b620000858362000194565b6200008f62000236565b600380546001600160a01b039094166001600160a01b031963ffffffff93909316600160a01b02929092166001600160c01b0319909416939093171790915550620000e59150620000df90503390565b620002cb565b5050506200039e565b6001600160a01b0381166200014a5760405162461bcd60e51b815260206004820152601960248201527f4261642062726964676520726f7574657220616464726573730000000000000060448201526064015b60405180910390fd5b600180546001600160a01b0319166001600160a01b0383169081179091556040517fa9e8c42c9e7fca7f62755189a16b2f5314d43d8fb24e91ba54e6d65f9314e84990600090a250565b6001600160a01b038116620001ec5760405162461bcd60e51b815260206004820152601460248201527f4261642068756220706f6f6c2061646472657373000000000000000000000000604482015260640162000141565b600280546001600160a01b0319166001600160a01b0383169081179091556040517f1f17a88f67b0f49060a34bec1a4723a563620e6aa265eb640b5046dcee0759a090600090a250565b600080546001600160a01b031615620002c65760008054906101000a90046001600160a01b03166001600160a01b03166329cb924d6040518163ffffffff1660e01b8152600401602060405180830381865afa1580156200029b573d6000803e3d6000fd5b505050506040513d601f19601f82011682018060405250810190620002c1919062000384565b905090565b504290565b600780546001600160a01b038381166001600160a01b0319831681179093556040519116919082907f8be0079c531659141344cd1fd0a4f28419497f9722a3daafe3b4186f6b6457e090600090a35050565b80516001600160a01b03811681146200033557600080fd5b919050565b6000806000606084860312156200035057600080fd5b6200035b846200031d565b92506200036b602085016200031d565b91506200037b604085016200031d565b90509250925092565b6000602082840312156200039757600080fd5b5051919050565b6142d380620003ae6000396000f3fe6080604052600436106101b05760003560e01c806389a153cc116100ec578063e19044021161008a578063f06850f611610064578063f06850f614610585578063f2fde38b146105b2578063fe45399c146105d2578063ffc351a3146105f257600080fd5b8063e1904402146104ee578063ecda10f51461051b578063ee2a53f81461055057600080fd5b8063a1244c67116100c6578063a1244c6714610451578063ac9650d81461048e578063c894c0ca146104ae578063de7eba78146104ce57600080fd5b806389a153cc146103f35780638da5cb5b146104135780639a8a05921461043e57600080fd5b80633fc8cef3116101595780635249fef1116101335780635249fef1146103185780635285e0581461036357806357f6dcb814610390578063715018a6146103de57600080fd5b80633fc8cef3146102b857806349228978146102e5578063493a4f84146102f857600080fd5b8063272751c71161018a578063272751c7146102555780632752042e1461027557806329cb924d1461029557600080fd5b80631c39c38d146101bc5780631dfb2d021461021357806322f8e5661461023557600080fd5b366101b757005b600080fd5b3480156101c857600080fd5b506000546101e99073ffffffffffffffffffffffffffffffffffffffff1681565b60405173ffffffffffffffffffffffffffffffffffffffff90911681526020015b60405180910390f35b34801561021f57600080fd5b5061023361022e366004613473565b610612565b005b34801561024157600080fd5b5061023361025036600461348e565b61071d565b34801561026157600080fd5b506102336102703660046134b5565b6107c6565b34801561028157600080fd5b50610233610290366004613509565b6108d0565b3480156102a157600080fd5b506102aa61098f565b60405190815260200161020a565b3480156102c457600080fd5b506003546101e99073ffffffffffffffffffffffffffffffffffffffff1681565b6102336102f336600461353c565b610a47565b34801561030457600080fd5b506102336103133660046135a2565b610ef3565b34801561032457600080fd5b506103536103333660046135c4565b600460209081526000928352604080842090915290825290205460ff1681565b604051901515815260200161020a565b34801561036f57600080fd5b506001546101e99073ffffffffffffffffffffffffffffffffffffffff1681565b34801561039c57600080fd5b506003546103c9907801000000000000000000000000000000000000000000000000900463ffffffff1681565b60405163ffffffff909116815260200161020a565b3480156103ea57600080fd5b50610233610ffb565b3480156103ff57600080fd5b5061023361040e3660046135ee565b611088565b34801561041f57600080fd5b5060075473ffffffffffffffffffffffffffffffffffffffff166101e9565b34801561044a57600080fd5b50466102aa565b34801561045d57600080fd5b506003546103c9907c0100000000000000000000000000000000000000000000000000000000900463ffffffff1681565b6104a161049c36600461368c565b6111d6565b60405161020a9190613777565b3480156104ba57600080fd5b506102336104c936600461398f565b6113b0565b3480156104da57600080fd5b506102336104e9366004613473565b61188a565b3480156104fa57600080fd5b506002546101e99073ffffffffffffffffffffffffffffffffffffffff1681565b34801561052757600080fd5b506003546103c99074010000000000000000000000000000000000000000900463ffffffff1681565b34801561055c57600080fd5b5061057061056b36600461348e565b611949565b6040805192835260208301919091520161020a565b34801561059157600080fd5b506102aa6105a036600461348e565b60066020526000908152604090205481565b3480156105be57600080fd5b506102336105cd366004613473565b611977565b3480156105de57600080fd5b506102336105ed366004613a8b565b611aa4565b3480156105fe57600080fd5b5061023361060d366004613be9565b611cc6565b60075473ffffffffffffffffffffffffffffffffffffffff163314610698576040517f08c379a000000000000000000000000000000000000000000000000000000000815260206004820181905260248201527f4f776e61626c653a2063616c6c6572206973206e6f7420746865206f776e657260448201526064015b60405180910390fd5b6106a0611eac565b6106cd600080547fffffffffffffffffffffff00ffffffffffffffffffffffffffffffffffffffff169055565b6106d681611f30565b61071a600080547fffffffffffffffffffffff00ffffffffffffffffffffffffffffffffffffffff1674010000000000000000000000000000000000000000179055565b50565b60005473ffffffffffffffffffffffffffffffffffffffff1661073f57600080fd5b6000546040517f22f8e5660000000000000000000000000000000000000000000000000000000081526004810183905273ffffffffffffffffffffffffffffffffffffffff909116906322f8e56690602401600060405180830381600087803b1580156107ab57600080fd5b505af11580156107bf573d6000803e3d6000fd5b5050505050565b60075473ffffffffffffffffffffffffffffffffffffffff163314610847576040517f08c379a000000000000000000000000000000000000000000000000000000000815260206004820181905260248201527f4f776e61626c653a2063616c6c6572206973206e6f7420746865206f776e6572604482015260640161068f565b61084f611eac565b61087c600080547fffffffffffffffffffffff00ffffffffffffffffffffffffffffffffffffffff169055565b61088783838361201c565b6108cb600080547fffffffffffffffffffffff00ffffffffffffffffffffffffffffffffffffffff1674010000000000000000000000000000000000000000179055565b505050565b60075473ffffffffffffffffffffffffffffffffffffffff163314610951576040517f08c379a000000000000000000000000000000000000000000000000000000000815260206004820181905260248201527f4f776e61626c653a2063616c6c6572206973206e6f7420746865206f776e6572604482015260640161068f565b610959611eac565b610986600080547fffffffffffffffffffffff00ffffffffffffffffffffffffffffffffffffffff169055565b6106d6816120b3565b6000805473ffffffffffffffffffffffffffffffffffffffff1615610a425760008054906101000a900473ffffffffffffffffffffffffffffffffffffffff1673ffffffffffffffffffffffffffffffffffffffff166329cb924d6040518163ffffffff1660e01b8152600401602060405180830381865afa158015610a19573d6000803e3d6000fd5b505050506040513d601f19601f82011682018060405250810190610a3d9190613cc7565b905090565b504290565b73ffffffffffffffffffffffffffffffffffffffff851660009081526004602090815260408083208684529091529020548590849060ff16610ae5576040517f08c379a000000000000000000000000000000000000000000000000000000000815260206004820152600e60248201527f44697361626c656420726f757465000000000000000000000000000000000000604482015260640161068f565b610aed611eac565b610b1a600080547fffffffffffffffffffffff00ffffffffffffffffffffffffffffffffffffffff169055565b6706f05b59d3b200008467ffffffffffffffff161115610b96576040517f08c379a000000000000000000000000000000000000000000000000000000000815260206004820152601360248201527f696e76616c69642072656c617965722066656500000000000000000000000000604482015260640161068f565b600354610bc5907801000000000000000000000000000000000000000000000000900463ffffffff1684613d0f565b63ffffffff16610bd361098f565b10158015610c1c5750600354610c0b907801000000000000000000000000000000000000000000000000900463ffffffff1684613d34565b63ffffffff16610c1961098f565b11155b610c82576040517f08c379a000000000000000000000000000000000000000000000000000000000815260206004820152601260248201527f696e76616c69642071756f74652074696d650000000000000000000000000000604482015260640161068f565b60035473ffffffffffffffffffffffffffffffffffffffff8881169116148015610cac5750600034115b15610da257853414610d1a576040517f08c379a000000000000000000000000000000000000000000000000000000000815260206004820152601b60248201527f6d73672e76616c7565206d757374206d6174636820616d6f756e740000000000604482015260640161068f565b600360009054906101000a900473ffffffffffffffffffffffffffffffffffffffff1673ffffffffffffffffffffffffffffffffffffffff1663d0e30db0346040518263ffffffff1660e01b81526004016000604051808303818588803b158015610d8457600080fd5b505af1158015610d98573d6000803e3d6000fd5b5050505050610dc4565b610dc473ffffffffffffffffffffffffffffffffffffffff881633308961213a565b600354604080518881526020810188905267ffffffffffffffff87168183015263ffffffff868116606083015273ffffffffffffffffffffffffffffffffffffffff8c8116608084015292513394938c16937c01000000000000000000000000000000000000000000000000000000009004909116917ffc53c5b967d467d4136291c639720626f3d6dda97b4364da813e6858ad48a721919081900360a00190a460016003601c8282829054906101000a900463ffffffff16610e879190613d34565b92506101000a81548163ffffffff021916908363ffffffff160217905550610ee9600080547fffffffffffffffffffffff00ffffffffffffffffffffffffffffffffffffffff1674010000000000000000000000000000000000000000179055565b5050505050505050565b60075473ffffffffffffffffffffffffffffffffffffffff163314610f74576040517f08c379a000000000000000000000000000000000000000000000000000000000815260206004820181905260248201527f4f776e61626c653a2063616c6c6572206973206e6f7420746865206f776e6572604482015260640161068f565b610f7c611eac565b610fa9600080547fffffffffffffffffffffff00ffffffffffffffffffffffffffffffffffffffff169055565b610fb3828261221c565b610ff7600080547fffffffffffffffffffffff00ffffffffffffffffffffffffffffffffffffffff1674010000000000000000000000000000000000000000179055565b5050565b60075473ffffffffffffffffffffffffffffffffffffffff16331461107c576040517f08c379a000000000000000000000000000000000000000000000000000000000815260206004820181905260248201527f4f776e61626c653a2063616c6c6572206973206e6f7420746865206f776e6572604482015260640161068f565b61108660006122c2565b565b611090611eac565b6110bd600080547fffffffffffffffffffffff00ffffffffffffffffffffffffffffffffffffffff169055565b60006040518061010001604052808c73ffffffffffffffffffffffffffffffffffffffff1681526020018b73ffffffffffffffffffffffffffffffffffffffff1681526020018a73ffffffffffffffffffffffffffffffffffffffff1681526020018981526020018681526020018567ffffffffffffffff1681526020018467ffffffffffffffff1681526020018363ffffffff168152509050600061116282612339565b9050600061117482848b886000612369565b905061118382828a888761260c565b5050506111ca600080547fffffffffffffffffffffff00ffffffffffffffffffffffffffffffffffffffff1674010000000000000000000000000000000000000000179055565b50505050505050505050565b60603415611240576040517f08c379a000000000000000000000000000000000000000000000000000000000815260206004820152601b60248201527f4f6e6c79206d756c746963616c6c207769746820302076616c75650000000000604482015260640161068f565b8167ffffffffffffffff811115611259576112596137f7565b60405190808252806020026020018201604052801561128c57816020015b60608152602001906001900390816112775790505b50905060005b828110156113a957600080308686858181106112b0576112b0613d5c565b90506020028101906112c29190613d8b565b6040516112d0929190613df0565b600060405180830381855af49150503d806000811461130b576040519150601f19603f3d011682016040523d82523d6000602084013e611310565b606091505b5091509150816113765760448151101561132957600080fd5b600481019050808060200190518101906113439190613e00565b6040517f08c379a000000000000000000000000000000000000000000000000000000000815260040161068f9190613e6e565b8084848151811061138957611389613d5c565b6020026020010181905250505080806113a190613e81565b915050611292565b5092915050565b6113b8611eac565b6113e5600080547fffffffffffffffffffffff00ffffffffffffffffffffffffffffffffffffffff169055565b46826020015114611452576040517f08c379a000000000000000000000000000000000000000000000000000000000815260206004820152600f60248201527f496e76616c696420636861696e49640000000000000000000000000000000000604482015260640161068f565b8160400151518260a0015151146114c5576040517f08c379a000000000000000000000000000000000000000000000000000000000815260206004820152600c60248201527f696e76616c6964206c6561660000000000000000000000000000000000000000604482015260640161068f565b600060058463ffffffff16815481106114e0576114e0613d5c565b906000526020600020906003020190506114ff81600101548484612711565b611565576040517f08c379a000000000000000000000000000000000000000000000000000000000815260206004820152600960248201527f4261642050726f6f660000000000000000000000000000000000000000000000604482015260640161068f565b61157c81600201846060015163ffffffff1661274e565b156115e3576040517f08c379a000000000000000000000000000000000000000000000000000000000815260206004820152600f60248201527f416c726561647920636c61696d65640000000000000000000000000000000000604482015260640161068f565b6115fa81600201846060015163ffffffff1661278f565b471561168457600360009054906101000a900473ffffffffffffffffffffffffffffffffffffffff1673ffffffffffffffffffffffffffffffffffffffff1663d0e30db0476040518263ffffffff1660e01b81526004016000604051808303818588803b15801561166a57600080fd5b505af115801561167e573d6000803e3d6000fd5b50505050505b60005b8360400151518163ffffffff16101561173057600084604001518263ffffffff16815181106116b8576116b8613d5c565b60200260200101519050600081111561171d5761171d8560a001518363ffffffff16815181106116ea576116ea613d5c565b602002602001015182876080015173ffffffffffffffffffffffffffffffffffffffff166127cd9092919063ffffffff16565b508061172881613eba565b915050611687565b508251156117c95761174183612823565b826080015173ffffffffffffffffffffffffffffffffffffffff16836060015163ffffffff1684602001517f828fc203220356df8f072a91681caee7d5c75095e2a95e80ed5a14b384697f718660000151336040516117c092919091825273ffffffffffffffffffffffffffffffffffffffff16602082015260400190565b60405180910390a45b3373ffffffffffffffffffffffffffffffffffffffff16836060015163ffffffff168563ffffffff167ff8bd640004bcec1b89657020f561d0b070cbdf662d0b158db9dccb0a8301bfab86600001518760200151886040015189608001518a60a0015160405161183d959493929190613f5f565b60405180910390a4506108cb600080547fffffffffffffffffffffff00ffffffffffffffffffffffffffffffffffffffff1674010000000000000000000000000000000000000000179055565b60075473ffffffffffffffffffffffffffffffffffffffff16331461190b576040517f08c379a000000000000000000000000000000000000000000000000000000000815260206004820181905260248201527f4f776e61626c653a2063616c6c6572206973206e6f7420746865206f776e6572604482015260640161068f565b611913611eac565b611940600080547fffffffffffffffffffffff00ffffffffffffffffffffffffffffffffffffffff169055565b6106d6816128c7565b6005818154811061195957600080fd5b60009182526020909120600390910201805460019091015490915082565b60075473ffffffffffffffffffffffffffffffffffffffff1633146119f8576040517f08c379a000000000000000000000000000000000000000000000000000000000815260206004820181905260248201527f4f776e61626c653a2063616c6c6572206973206e6f7420746865206f776e6572604482015260640161068f565b73ffffffffffffffffffffffffffffffffffffffff8116611a9b576040517f08c379a000000000000000000000000000000000000000000000000000000000815260206004820152602660248201527f4f776e61626c653a206e6577206f776e657220697320746865207a65726f206160448201527f6464726573730000000000000000000000000000000000000000000000000000606482015260840161068f565b61071a816122c2565b611aac611eac565b611ad9600080547fffffffffffffffffffffff00ffffffffffffffffffffffffffffffffffffffff169055565b60006040518061010001604052808c73ffffffffffffffffffffffffffffffffffffffff1681526020018b73ffffffffffffffffffffffffffffffffffffffff1681526020018a73ffffffffffffffffffffffffffffffffffffffff1681526020018981526020018881526020018767ffffffffffffffff1681526020018667ffffffffffffffff1681526020018563ffffffff168152509050611ba860058463ffffffff1681548110611b8f57611b8f613d5c565b90600052602060002090600302016000015482846129b3565b611c0e576040517f08c379a000000000000000000000000000000000000000000000000000000000815260206004820152600d60248201527f496e76616c69642070726f6f6600000000000000000000000000000000000000604482015260640161068f565b6000611c1982612339565b90504715611ca557600360009054906101000a900473ffffffffffffffffffffffffffffffffffffffff1673ffffffffffffffffffffffffffffffffffffffff1663d0e30db0476040518263ffffffff1660e01b81526004016000604051808303818588803b158015611c8b57600080fd5b505af1158015611c9f573d6000803e3d6000fd5b50505050505b6000611cb9828485606001518a6001612369565b90506111838282856129cb565b611cce611eac565b611cfb600080547fffffffffffffffffffffff00ffffffffffffffffffffffffffffffffffffffff169055565b60408051608060208201819052601160a08301527f4143524f53532d56322d4645452d312e3000000000000000000000000000000060c083015267ffffffffffffffff86169282019290925263ffffffff8416606082015290810187905260009060e0016040516020818303038152906040528051906020012090506000611d8282612ac4565b9050611d8f8e8285612aff565b505060006040518061010001604052808e73ffffffffffffffffffffffffffffffffffffffff1681526020018d73ffffffffffffffffffffffffffffffffffffffff1681526020018c73ffffffffffffffffffffffffffffffffffffffff1681526020018b81526020018881526020018767ffffffffffffffff1681526020018667ffffffffffffffff1681526020018463ffffffff1681525090506000611e3682612339565b90506000611e4882848d896000612369565b9050611e5782828c898761260c565b505050611e9e600080547fffffffffffffffffffffff00ffffffffffffffffffffffffffffffffffffffff1674010000000000000000000000000000000000000000179055565b505050505050505050505050565b60005474010000000000000000000000000000000000000000900460ff16611086576040517f08c379a000000000000000000000000000000000000000000000000000000000815260206004820152601f60248201527f5265656e7472616e637947756172643a207265656e7472616e742063616c6c00604482015260640161068f565b73ffffffffffffffffffffffffffffffffffffffff8116611fad576040517f08c379a000000000000000000000000000000000000000000000000000000000815260206004820152601460248201527f4261642068756220706f6f6c2061646472657373000000000000000000000000604482015260640161068f565b600280547fffffffffffffffffffffffff00000000000000000000000000000000000000001673ffffffffffffffffffffffffffffffffffffffff83169081179091556040517f1f17a88f67b0f49060a34bec1a4723a563620e6aa265eb640b5046dcee0759a090600090a250565b73ffffffffffffffffffffffffffffffffffffffff8316600081815260046020908152604080832086845282529182902080547fffffffffffffffffffffffffffffffffffffffffffffffffffffffffffffff001685151590811790915591519182528492917f0a21fdd43d0ad0c62689ee7230a47309a050755bcc52eba00310add65297692a91015b60405180910390a3505050565b600380547fffffffff00000000ffffffffffffffffffffffffffffffffffffffffffffffff16780100000000000000000000000000000000000000000000000063ffffffff8416908102919091179091556040519081527f0e55dd180fa793d9036c804d0a116e6a7617a48e72cee1f83d92793a793fcc039060200160405180910390a150565b60405173ffffffffffffffffffffffffffffffffffffffff808516602483015283166044820152606481018290526122169085907f23b872dd00000000000000000000000000000000000000000000000000000000906084015b604080517fffffffffffffffffffffffffffffffffffffffffffffffffffffffffffffffe08184030181529190526020810180517bffffffffffffffffffffffffffffffffffffffffffffffffffffffff167fffffffff0000000000000000000000000000000000000000000000000000000090931692909217909152612b70565b50505050565b60058054600181018255600091909152600381027f036b6384b5eca791c62761152d0c79bb0604c104a5fb6f4eb0703f3154bb3db181018490557f036b6384b5eca791c62761152d0c79bb0604c104a5fb6f4eb0703f3154bb3db001828155604080518581526020810185905263ffffffff8416917fc86ba04c55bc5eb2f2876b91c438849a296dbec7b08751c3074d92e04f0a77af910160405180910390a250505050565b6007805473ffffffffffffffffffffffffffffffffffffffff8381167fffffffffffffffffffffffff0000000000000000000000000000000000000000831681179093556040519116919082907f8be0079c531659141344cd1fd0a4f28419497f9722a3daafe3b4186f6b6457e090600090a35050565b60008160405160200161234c9190613fac565b604051602081830303815290604052805190602001209050919050565b60006706f05b59d3b200008367ffffffffffffffff161080156123a157506706f05b59d3b200008560a0015167ffffffffffffffff16105b612407576040517f08c379a000000000000000000000000000000000000000000000000000000000815260206004820152600c60248201527f696e76616c696420666565730000000000000000000000000000000000000000604482015260640161068f565b606085015160008781526006602052604090205410612482576040517f08c379a000000000000000000000000000000000000000000000000000000000815260206004820152600c60248201527f72656c61792066696c6c65640000000000000000000000000000000000000000604482015260640161068f565b5060008315612603576124a484848760a0015161249f9190614038565b612c7c565b6000878152600660205260409020546060870151919250859183916124c89161405b565b101561250a5760008781526006602052604090205460608701516124ec919061405b565b915061250782858860a001516125029190614038565b612cb6565b90505b60008781526006602052604081208054849290612528908490614072565b9091555050600354604087015173ffffffffffffffffffffffffffffffffffffffff9081169116141561259457826125815760408601516125819073ffffffffffffffffffffffffffffffffffffffff1633308461213a565b61258f866020015182612cdf565b612601565b826125ce5761258f33876020015183896040015173ffffffffffffffffffffffffffffffffffffffff1661213a909392919063ffffffff16565b612601866020015182886040015173ffffffffffffffffffffffffffffffffffffffff166127cd9092919063ffffffff16565b505b95945050505050565b3373ffffffffffffffffffffffffffffffffffffffff1683867f393f1765f382b5310a9186fa707a84040f8241b280a30b74112689a92a156f698460600151600660008b815260200190815260200160002054898760800151898960a001518a60e001518b604001518c600001518d602001516040516127029a99989796959493929190998a5260208a01989098526040890196909652606088019490945267ffffffffffffffff9283166080880152911660a086015263ffffffff1660c085015273ffffffffffffffffffffffffffffffffffffffff90811660e0850152908116610100840152166101208201526101400190565b60405180910390a45050505050565b6000612744828585604051602001612729919061408a565b60405160208183030381529060405280519060200120612de7565b90505b9392505050565b60008061275d61010084614154565b9050600061276d61010085614168565b6000928352602095909552506040902054600190931b92831690921492915050565b600061279d61010083614154565b905060006127ad61010084614168565b600092835260209490945250604090208054600190931b90921790915550565b60405173ffffffffffffffffffffffffffffffffffffffff83166024820152604481018290526108cb9084907fa9059cbb0000000000000000000000000000000000000000000000000000000090606401612194565b608081015160025482516040517fa9059cbb00000000000000000000000000000000000000000000000000000000815273ffffffffffffffffffffffffffffffffffffffff9283166004820152602481019190915291169063a9059cbb906044016020604051808303816000875af11580156128a3573d6000803e3d6000fd5b505050506040513d601f19601f82011682018060405250810190610ff7919061417c565b73ffffffffffffffffffffffffffffffffffffffff8116612944576040517f08c379a000000000000000000000000000000000000000000000000000000000815260206004820152601960248201527f4261642062726964676520726f75746572206164647265737300000000000000604482015260640161068f565b600180547fffffffffffffffffffffffff00000000000000000000000000000000000000001673ffffffffffffffffffffffffffffffffffffffff83169081179091556040517fa9e8c42c9e7fca7f62755189a16b2f5314d43d8fb24e91ba54e6d65f9314e84990600090a250565b60006127448285856040516020016127299190613fac565b3373ffffffffffffffffffffffffffffffffffffffff16837fc1c02fe71abee2530563583daac3d7b681ef4c00db95adc3847b886da8098bc1836060015160066000888152602001908152602001600020548686608001518760c001518860a001518960e001518a604001518b600001518c602001516040516120a69a99989796959493929190998a5260208a01989098526040890196909652606088019490945267ffffffffffffffff9283166080880152911660a086015263ffffffff1660c085015273ffffffffffffffffffffffffffffffffffffffff90811660e0850152908116610100840152166101208201526101400190565b6040517f19457468657265756d205369676e6564204d6573736167653a0a3332000000006020820152603c8101829052600090605c0161234c565b612b0a838383612dfd565b6108cb576040517f08c379a000000000000000000000000000000000000000000000000000000000815260206004820152601160248201527f696e76616c6964207369676e6174757265000000000000000000000000000000604482015260640161068f565b6000612bd2826040518060400160405280602081526020017f5361666545524332303a206c6f772d6c6576656c2063616c6c206661696c65648152508573ffffffffffffffffffffffffffffffffffffffff16612fec9092919063ffffffff16565b8051909150156108cb5780806020019051810190612bf0919061417c565b6108cb576040517f08c379a000000000000000000000000000000000000000000000000000000000815260206004820152602a60248201527f5361666545524332303a204552433230206f7065726174696f6e20646964206e60448201527f6f74207375636365656400000000000000000000000000000000000000000000606482015260840161068f565b6000612c9082670de0b6b3a7640000614199565b67ffffffffffffffff16612cac84670de0b6b3a76400006141ba565b6127479190614154565b6000670de0b6b3a7640000612ccb8382614199565b612cac9067ffffffffffffffff16856141ba565b73ffffffffffffffffffffffffffffffffffffffff82163b15612d2057600354610ff79073ffffffffffffffffffffffffffffffffffffffff1683836127cd565b6003546040517f2e1a7d4d0000000000000000000000000000000000000000000000000000000081526004810183905273ffffffffffffffffffffffffffffffffffffffff90911690632e1a7d4d90602401600060405180830381600087803b158015612d8c57600080fd5b505af1158015612da0573d6000803e3d6000fd5b505060405173ffffffffffffffffffffffffffffffffffffffff8516925083156108fc02915083906000818181858888f193505050501580156108cb573d6000803e3d6000fd5b600082612df48584612ffb565b14949350505050565b6000806000612e0c85856130a7565b90925090506000816004811115612e2557612e256141f7565b148015612e5d57508573ffffffffffffffffffffffffffffffffffffffff168273ffffffffffffffffffffffffffffffffffffffff16145b15612e6d57600192505050612747565b6000808773ffffffffffffffffffffffffffffffffffffffff16631626ba7e60e01b8888604051602401612ea2929190614226565b604080517fffffffffffffffffffffffffffffffffffffffffffffffffffffffffffffffe08184030181529181526020820180517bffffffffffffffffffffffffffffffffffffffffffffffffffffffff167fffffffff00000000000000000000000000000000000000000000000000000000909416939093179092529051612f2b919061423f565b600060405180830381855afa9150503d8060008114612f66576040519150601f19603f3d011682016040523d82523d6000602084013e612f6b565b606091505b5091509150818015612f7e575080516020145b8015612fe0575080517f1626ba7e0000000000000000000000000000000000000000000000000000000090612fbc908301602090810190840161425b565b7fffffffff0000000000000000000000000000000000000000000000000000000016145b98975050505050505050565b60606127448484600085613117565b600081815b845181101561309f57600085828151811061301d5761301d613d5c565b6020026020010151905080831161305f57604080516020810185905290810182905260600160405160208183030381529060405280519060200120925061308c565b60408051602081018390529081018490526060016040516020818303038152906040528051906020012092505b508061309781613e81565b915050613000565b509392505050565b6000808251604114156130de5760208301516040840151606085015160001a6130d287828585613297565b94509450505050613110565b82516040141561310857602083015160408401516130fd8683836133af565b935093505050613110565b506000905060025b9250929050565b6060824710156131a9576040517f08c379a000000000000000000000000000000000000000000000000000000000815260206004820152602660248201527f416464726573733a20696e73756666696369656e742062616c616e636520666f60448201527f722063616c6c0000000000000000000000000000000000000000000000000000606482015260840161068f565b843b613211576040517f08c379a000000000000000000000000000000000000000000000000000000000815260206004820152601d60248201527f416464726573733a2063616c6c20746f206e6f6e2d636f6e7472616374000000604482015260640161068f565b6000808673ffffffffffffffffffffffffffffffffffffffff16858760405161323a919061423f565b60006040518083038185875af1925050503d8060008114613277576040519150601f19603f3d011682016040523d82523d6000602084013e61327c565b606091505b509150915061328c8282866133f7565b979650505050505050565b6000807f7fffffffffffffffffffffffffffffff5d576e7357a4501ddfe92f46681b20a08311156132ce57506000905060036133a6565b8460ff16601b141580156132e657508460ff16601c14155b156132f757506000905060046133a6565b6040805160008082526020820180845289905260ff881692820192909252606081018690526080810185905260019060a0016020604051602081039080840390855afa15801561334b573d6000803e3d6000fd5b50506040517fffffffffffffffffffffffffffffffffffffffffffffffffffffffffffffffe0015191505073ffffffffffffffffffffffffffffffffffffffff811661339f576000600192509250506133a6565b9150600090505b94509492505050565b6000807f7fffffffffffffffffffffffffffffffffffffffffffffffffffffffffffffff831660ff84901c601b016133e987828885613297565b935093505050935093915050565b60608315613406575081612747565b8251156134165782518084602001fd5b816040517f08c379a000000000000000000000000000000000000000000000000000000000815260040161068f9190613e6e565b803573ffffffffffffffffffffffffffffffffffffffff8116811461346e57600080fd5b919050565b60006020828403121561348557600080fd5b6127478261344a565b6000602082840312156134a057600080fd5b5035919050565b801515811461071a57600080fd5b6000806000606084860312156134ca57600080fd5b6134d38461344a565b92506020840135915060408401356134ea816134a7565b809150509250925092565b803563ffffffff8116811461346e57600080fd5b60006020828403121561351b57600080fd5b612747826134f5565b803567ffffffffffffffff8116811461346e57600080fd5b60008060008060008060c0878903121561355557600080fd5b61355e8761344a565b955061356c6020880161344a565b9450604087013593506060870135925061358860808801613524565b915061359660a088016134f5565b90509295509295509295565b600080604083850312156135b557600080fd5b50508035926020909101359150565b600080604083850312156135d757600080fd5b6135e08361344a565b946020939093013593505050565b6000806000806000806000806000806101408b8d03121561360e57600080fd5b6136178b61344a565b995061362560208c0161344a565b985061363360408c0161344a565b975060608b0135965060808b0135955060a08b0135945060c08b0135935061365d60e08c01613524565b925061366c6101008c01613524565b915061367b6101208c016134f5565b90509295989b9194979a5092959850565b6000806020838503121561369f57600080fd5b823567ffffffffffffffff808211156136b757600080fd5b818501915085601f8301126136cb57600080fd5b8135818111156136da57600080fd5b8660208260051b85010111156136ef57600080fd5b60209290920196919550909350505050565b60005b8381101561371c578181015183820152602001613704565b838111156122165750506000910152565b60008151808452613745816020860160208601613701565b601f017fffffffffffffffffffffffffffffffffffffffffffffffffffffffffffffffe0169290920160200192915050565b6000602080830181845280855180835260408601915060408160051b870101925083870160005b828110156137ea577fffffffffffffffffffffffffffffffffffffffffffffffffffffffffffffffc08886030184526137d885835161372d565b9450928501929085019060010161379e565b5092979650505050505050565b7f4e487b7100000000000000000000000000000000000000000000000000000000600052604160045260246000fd5b60405160c0810167ffffffffffffffff81118282101715613849576138496137f7565b60405290565b604051601f82017fffffffffffffffffffffffffffffffffffffffffffffffffffffffffffffffe016810167ffffffffffffffff81118282101715613896576138966137f7565b604052919050565b600067ffffffffffffffff8211156138b8576138b86137f7565b5060051b60200190565b600082601f8301126138d357600080fd5b813560206138e86138e38361389e565b61384f565b82815260059290921b8401810191818101908684111561390757600080fd5b8286015b84811015613922578035835291830191830161390b565b509695505050505050565b600082601f83011261393e57600080fd5b8135602061394e6138e38361389e565b82815260059290921b8401810191818101908684111561396d57600080fd5b8286015b84811015613922576139828161344a565b8352918301918301613971565b6000806000606084860312156139a457600080fd5b6139ad846134f5565b9250602084013567ffffffffffffffff808211156139ca57600080fd5b9085019060c082880312156139de57600080fd5b6139e6613826565b8235815260208301356020820152604083013582811115613a0657600080fd5b613a12898286016138c2565b604083015250613a24606084016134f5565b6060820152613a356080840161344a565b608082015260a083013582811115613a4c57600080fd5b613a588982860161392d565b60a08301525093506040860135915080821115613a7457600080fd5b50613a81868287016138c2565b9150509250925092565b6000806000806000806000806000806101408b8d031215613aab57600080fd5b613ab48b61344a565b9950613ac260208c0161344a565b9850613ad060408c0161344a565b975060608b0135965060808b01359550613aec60a08c01613524565b9450613afa60c08c01613524565b9350613b0860e08c016134f5565b9250613b176101008c016134f5565b91506101208b013567ffffffffffffffff811115613b3457600080fd5b613b408d828e016138c2565b9150509295989b9194979a5092959850565b600067ffffffffffffffff821115613b6c57613b6c6137f7565b50601f017fffffffffffffffffffffffffffffffffffffffffffffffffffffffffffffffe01660200190565b600082601f830112613ba957600080fd5b8135613bb76138e382613b52565b818152846020838601011115613bcc57600080fd5b816020850160208301376000918101602001919091529392505050565b6000806000806000806000806000806000806101808d8f031215613c0c57600080fd5b613c158d61344a565b9b50613c2360208e0161344a565b9a50613c3160408e0161344a565b995060608d0135985060808d0135975060a08d0135965060c08d01359550613c5b60e08e01613524565b9450613c6a6101008e01613524565b9350613c796101208e01613524565b9250613c886101408e016134f5565b915067ffffffffffffffff6101608e01351115613ca457600080fd5b613cb58e6101608f01358f01613b98565b90509295989b509295989b509295989b565b600060208284031215613cd957600080fd5b5051919050565b7f4e487b7100000000000000000000000000000000000000000000000000000000600052601160045260246000fd5b600063ffffffff83811690831681811015613d2c57613d2c613ce0565b039392505050565b600063ffffffff808316818516808303821115613d5357613d53613ce0565b01949350505050565b7f4e487b7100000000000000000000000000000000000000000000000000000000600052603260045260246000fd5b60008083357fffffffffffffffffffffffffffffffffffffffffffffffffffffffffffffffe1843603018112613dc057600080fd5b83018035915067ffffffffffffffff821115613ddb57600080fd5b60200191503681900382131561311057600080fd5b8183823760009101908152919050565b600060208284031215613e1257600080fd5b815167ffffffffffffffff811115613e2957600080fd5b8201601f81018413613e3a57600080fd5b8051613e486138e382613b52565b818152856020838501011115613e5d57600080fd5b612603826020830160208601613701565b602081526000612747602083018461372d565b60007fffffffffffffffffffffffffffffffffffffffffffffffffffffffffffffffff821415613eb357613eb3613ce0565b5060010190565b600063ffffffff80831681811415613ed457613ed4613ce0565b6001019392505050565b600081518084526020808501945080840160005b83811015613f0e57815187529582019590820190600101613ef2565b509495945050505050565b600081518084526020808501945080840160005b83811015613f0e57815173ffffffffffffffffffffffffffffffffffffffff1687529582019590820190600101613f2d565b85815284602082015260a060408201526000613f7e60a0830186613ede565b73ffffffffffffffffffffffffffffffffffffffff851660608401528281036080840152612fe08185613f19565b60006101008201905073ffffffffffffffffffffffffffffffffffffffff80845116835280602085015116602084015280604085015116604084015250606083015160608301526080830151608083015260a083015167ffffffffffffffff80821660a08501528060c08601511660c0850152505060e08301516113a960e084018263ffffffff169052565b600067ffffffffffffffff808316818516808303821115613d5357613d53613ce0565b60008282101561406d5761406d613ce0565b500390565b6000821982111561408557614085613ce0565b500190565b6020815281516020820152602082015160408201526000604083015160c060608401526140ba60e0840182613ede565b905063ffffffff606085015116608084015273ffffffffffffffffffffffffffffffffffffffff60808501511660a084015260a08401517fffffffffffffffffffffffffffffffffffffffffffffffffffffffffffffffe08483030160c08501526126038282613f19565b7f4e487b7100000000000000000000000000000000000000000000000000000000600052601260045260246000fd5b60008261416357614163614125565b500490565b60008261417757614177614125565b500690565b60006020828403121561418e57600080fd5b8151612747816134a7565b600067ffffffffffffffff83811690831681811015613d2c57613d2c613ce0565b6000817fffffffffffffffffffffffffffffffffffffffffffffffffffffffffffffffff04831182151516156141f2576141f2613ce0565b500290565b7f4e487b7100000000000000000000000000000000000000000000000000000000600052602160045260246000fd5b828152604060208201526000612744604083018461372d565b60008251614251818460208701613701565b9190910192915050565b60006020828403121561426d57600080fd5b81517fffffffff000000000000000000000000000000000000000000000000000000008116811461274757600080fdfea264697066735822122034e62a2d7a0c316af494fc65ff7a902b6f838e6440b399cb3e9b88ee19ec45a964736f6c634300080b0033",
  "devdoc": {
    "details": "Used on Ethereum L1 to facilitate L2->L1 transfers.",
    "kind": "dev",
    "methods": {
      "deposit(address,address,uint256,uint256,uint64,uint32)": {
        "details": "The caller must first approve this contract to spend `amount` of `originToken`."
      },
      "getCurrentTime()": {
        "returns": {
          "_0": "uint for the current Testable timestamp."
        }
      },
      "owner()": {
        "details": "Returns the address of the current owner."
      },
      "renounceOwnership()": {
        "details": "Leaves the contract without owner. It will not be possible to call `onlyOwner` functions anymore. Can only be called by the current owner. NOTE: Renouncing ownership will leave the contract without an owner, thereby removing any functionality that is only available to the owner."
      },
      "setCurrentTime(uint256)": {
        "details": "Will revert if not running in test mode.",
        "params": {
          "time": "timestamp to set current Testable time to."
        }
      },
      "transferOwnership(address)": {
        "details": "Transfers ownership of the contract to a new account (`newOwner`). Can only be called by the current owner."
      }
    },
    "version": 1
  },
  "userdoc": {
    "kind": "user",
    "methods": {
      "deposit(address,address,uint256,uint256,uint64,uint32)": {
        "notice": "Called by user to bridge funds from origin to destination chain."
      },
      "getCurrentTime()": {
        "notice": "Gets the current time. Will return the last time set in `setCurrentTime` if running in test mode. Otherwise, it will return the block timestamp."
      },
      "setCurrentTime(uint256)": {
        "notice": "Sets the current time."
      }
    },
    "notice": "Ethereum L1 specific SpokePool.",
    "version": 1
  },
  "storageLayout": {
    "storage": [
      {
        "astId": 5882,
        "contract": "contracts/Ethereum_SpokePool.sol:Ethereum_SpokePool",
        "label": "timerAddress",
        "offset": 0,
        "slot": "0",
        "type": "t_address"
      },
      {
        "astId": 5108,
        "contract": "contracts/Ethereum_SpokePool.sol:Ethereum_SpokePool",
        "label": "_notEntered",
        "offset": 20,
        "slot": "0",
        "type": "t_bool"
      },
      {
        "astId": 7835,
        "contract": "contracts/Ethereum_SpokePool.sol:Ethereum_SpokePool",
        "label": "crossDomainAdmin",
        "offset": 0,
        "slot": "1",
        "type": "t_address"
      },
      {
        "astId": 7837,
        "contract": "contracts/Ethereum_SpokePool.sol:Ethereum_SpokePool",
        "label": "hubPool",
        "offset": 0,
        "slot": "2",
        "type": "t_address"
      },
      {
        "astId": 7840,
        "contract": "contracts/Ethereum_SpokePool.sol:Ethereum_SpokePool",
        "label": "weth",
        "offset": 0,
        "slot": "3",
        "type": "t_contract(WETH9)9916"
      },
      {
        "astId": 7842,
        "contract": "contracts/Ethereum_SpokePool.sol:Ethereum_SpokePool",
        "label": "deploymentTime",
        "offset": 20,
        "slot": "3",
        "type": "t_uint32"
      },
      {
        "astId": 7845,
        "contract": "contracts/Ethereum_SpokePool.sol:Ethereum_SpokePool",
        "label": "depositQuoteTimeBuffer",
        "offset": 24,
        "slot": "3",
        "type": "t_uint32"
      },
      {
        "astId": 7847,
        "contract": "contracts/Ethereum_SpokePool.sol:Ethereum_SpokePool",
        "label": "numberOfDeposits",
        "offset": 28,
        "slot": "3",
        "type": "t_uint32"
      },
      {
        "astId": 7853,
        "contract": "contracts/Ethereum_SpokePool.sol:Ethereum_SpokePool",
        "label": "enabledDepositRoutes",
        "offset": 0,
        "slot": "4",
        "type": "t_mapping(t_address,t_mapping(t_uint256,t_bool))"
      },
      {
        "astId": 7866,
        "contract": "contracts/Ethereum_SpokePool.sol:Ethereum_SpokePool",
        "label": "rootBundles",
        "offset": 0,
        "slot": "5",
        "type": "t_array(t_struct(RootBundle)7862_storage)dyn_storage"
      },
      {
        "astId": 7870,
        "contract": "contracts/Ethereum_SpokePool.sol:Ethereum_SpokePool",
        "label": "relayFills",
        "offset": 0,
        "slot": "6",
        "type": "t_mapping(t_bytes32,t_uint256)"
      },
      {
        "astId": 400,
        "contract": "contracts/Ethereum_SpokePool.sol:Ethereum_SpokePool",
        "label": "_owner",
        "offset": 0,
        "slot": "7",
        "type": "t_address"
      }
    ],
    "types": {
      "t_address": {
        "encoding": "inplace",
        "label": "address",
        "numberOfBytes": "20"
      },
      "t_array(t_struct(RootBundle)7862_storage)dyn_storage": {
        "base": "t_struct(RootBundle)7862_storage",
        "encoding": "dynamic_array",
        "label": "struct SpokePool.RootBundle[]",
        "numberOfBytes": "32"
      },
      "t_bool": {
        "encoding": "inplace",
        "label": "bool",
        "numberOfBytes": "1"
      },
      "t_bytes32": {
        "encoding": "inplace",
        "label": "bytes32",
        "numberOfBytes": "32"
      },
      "t_contract(WETH9)9916": {
        "encoding": "inplace",
        "label": "contract WETH9",
        "numberOfBytes": "20"
      },
      "t_mapping(t_address,t_mapping(t_uint256,t_bool))": {
        "encoding": "mapping",
        "key": "t_address",
        "label": "mapping(address => mapping(uint256 => bool))",
        "numberOfBytes": "32",
        "value": "t_mapping(t_uint256,t_bool)"
      },
      "t_mapping(t_bytes32,t_uint256)": {
        "encoding": "mapping",
        "key": "t_bytes32",
        "label": "mapping(bytes32 => uint256)",
        "numberOfBytes": "32",
        "value": "t_uint256"
      },
      "t_mapping(t_uint256,t_bool)": {
        "encoding": "mapping",
        "key": "t_uint256",
        "label": "mapping(uint256 => bool)",
        "numberOfBytes": "32",
        "value": "t_bool"
      },
      "t_mapping(t_uint256,t_uint256)": {
        "encoding": "mapping",
        "key": "t_uint256",
        "label": "mapping(uint256 => uint256)",
        "numberOfBytes": "32",
        "value": "t_uint256"
      },
      "t_struct(RootBundle)7862_storage": {
        "encoding": "inplace",
        "label": "struct SpokePool.RootBundle",
        "members": [
          {
            "astId": 7855,
            "contract": "contracts/Ethereum_SpokePool.sol:Ethereum_SpokePool",
            "label": "slowRelayFulfillmentRoot",
            "offset": 0,
            "slot": "0",
            "type": "t_bytes32"
          },
          {
            "astId": 7857,
            "contract": "contracts/Ethereum_SpokePool.sol:Ethereum_SpokePool",
            "label": "relayerRefundRoot",
            "offset": 0,
            "slot": "1",
            "type": "t_bytes32"
          },
          {
            "astId": 7861,
            "contract": "contracts/Ethereum_SpokePool.sol:Ethereum_SpokePool",
            "label": "claimedBitmap",
            "offset": 0,
            "slot": "2",
            "type": "t_mapping(t_uint256,t_uint256)"
          }
        ],
        "numberOfBytes": "96"
      },
      "t_uint256": {
        "encoding": "inplace",
        "label": "uint256",
        "numberOfBytes": "32"
      },
      "t_uint32": {
        "encoding": "inplace",
        "label": "uint32",
        "numberOfBytes": "4"
      }
    }
  }
}