{
  "address": "0xFA6326FdF1f149B63d116576fCfbc7e15cc0355A",
  "abi": [
    {
      "inputs": [
        {
          "internalType": "contract LpTokenFactoryInterface",
          "name": "_lpTokenFactory",
          "type": "address"
        },
        {
          "internalType": "contract FinderInterface",
          "name": "_finder",
          "type": "address"
        },
        {
          "internalType": "contract WETH9",
          "name": "_weth",
          "type": "address"
        },
        {
          "internalType": "address",
          "name": "_timer",
          "type": "address"
        }
      ],
      "stateMutability": "nonpayable",
      "type": "constructor"
    },
    {
      "anonymous": false,
      "inputs": [
        {
          "indexed": true,
          "internalType": "address",
          "name": "newBondToken",
          "type": "address"
        },
        {
          "indexed": false,
          "internalType": "uint256",
          "name": "newBondAmount",
          "type": "uint256"
        }
      ],
      "name": "BondSet",
      "type": "event"
    },
    {
      "anonymous": false,
      "inputs": [
        {
          "indexed": false,
          "internalType": "uint256",
          "name": "l2ChainId",
          "type": "uint256"
        },
        {
          "indexed": false,
          "internalType": "address",
          "name": "adapter",
          "type": "address"
        },
        {
          "indexed": false,
          "internalType": "address",
          "name": "spokePool",
          "type": "address"
        }
      ],
      "name": "CrossChainContractsSet",
      "type": "event"
    },
    {
      "anonymous": false,
      "inputs": [
        {
          "indexed": false,
          "internalType": "bytes32",
          "name": "newIdentifier",
          "type": "bytes32"
        }
      ],
      "name": "IdentifierSet",
      "type": "event"
    },
    {
      "anonymous": false,
      "inputs": [
        {
          "indexed": false,
          "internalType": "address",
          "name": "l1Token",
          "type": "address"
        },
        {
          "indexed": false,
          "internalType": "address",
          "name": "lpToken",
          "type": "address"
        }
      ],
      "name": "L1TokenEnabledForLiquidityProvision",
      "type": "event"
    },
    {
      "anonymous": false,
      "inputs": [
        {
          "indexed": false,
          "internalType": "address",
          "name": "l1Token",
          "type": "address"
        },
        {
          "indexed": false,
          "internalType": "address",
          "name": "lpToken",
          "type": "address"
        }
      ],
      "name": "L2TokenDisabledForLiquidityProvision",
      "type": "event"
    },
    {
      "anonymous": false,
      "inputs": [
        {
          "indexed": true,
          "internalType": "address",
          "name": "l1Token",
          "type": "address"
        },
        {
          "indexed": false,
          "internalType": "uint256",
          "name": "amount",
          "type": "uint256"
        },
        {
          "indexed": false,
          "internalType": "uint256",
          "name": "lpTokensMinted",
          "type": "uint256"
        },
        {
          "indexed": true,
          "internalType": "address",
          "name": "liquidityProvider",
          "type": "address"
        }
      ],
      "name": "LiquidityAdded",
      "type": "event"
    },
    {
      "anonymous": false,
      "inputs": [
        {
          "indexed": true,
          "internalType": "address",
          "name": "l1Token",
          "type": "address"
        },
        {
          "indexed": false,
          "internalType": "uint256",
          "name": "amount",
          "type": "uint256"
        },
        {
          "indexed": false,
          "internalType": "uint256",
          "name": "lpTokensBurnt",
          "type": "uint256"
        },
        {
          "indexed": true,
          "internalType": "address",
          "name": "liquidityProvider",
          "type": "address"
        }
      ],
      "name": "LiquidityRemoved",
      "type": "event"
    },
    {
      "anonymous": false,
      "inputs": [
        {
          "indexed": false,
          "internalType": "uint256",
          "name": "newLiveness",
          "type": "uint256"
        }
      ],
      "name": "LivenessSet",
      "type": "event"
    },
    {
      "anonymous": false,
      "inputs": [
        {
          "indexed": true,
          "internalType": "address",
          "name": "previousOwner",
          "type": "address"
        },
        {
          "indexed": true,
          "internalType": "address",
          "name": "newOwner",
          "type": "address"
        }
      ],
      "name": "OwnershipTransferred",
      "type": "event"
    },
    {
      "anonymous": false,
      "inputs": [
        {
          "indexed": false,
          "internalType": "uint64",
          "name": "requestExpirationTimestamp",
          "type": "uint64"
        },
        {
          "indexed": false,
          "internalType": "uint64",
          "name": "unclaimedPoolRebalanceLeafCount",
          "type": "uint64"
        },
        {
          "indexed": false,
          "internalType": "uint256[]",
          "name": "bundleEvaluationBlockNumbers",
          "type": "uint256[]"
        },
        {
          "indexed": true,
          "internalType": "bytes32",
          "name": "poolRebalanceRoot",
          "type": "bytes32"
        },
        {
          "indexed": true,
          "internalType": "bytes32",
          "name": "relayerRefundRoot",
          "type": "bytes32"
        },
        {
          "indexed": false,
          "internalType": "bytes32",
          "name": "slowRelayFulfillmentRoot",
          "type": "bytes32"
        },
        {
          "indexed": true,
          "internalType": "address",
          "name": "proposer",
          "type": "address"
        }
      ],
      "name": "ProposeRootBundle",
      "type": "event"
    },
    {
      "anonymous": false,
      "inputs": [
        {
          "indexed": true,
          "internalType": "address",
          "name": "newProtocolFeeCaptureAddress",
          "type": "address"
        },
        {
          "indexed": true,
          "internalType": "uint256",
          "name": "newProtocolFeeCapturePct",
          "type": "uint256"
        }
      ],
      "name": "ProtocolFeeCaptureSet",
      "type": "event"
    },
    {
      "anonymous": false,
      "inputs": [
        {
          "indexed": true,
          "internalType": "address",
          "name": "l1Token",
          "type": "address"
        },
        {
          "indexed": true,
          "internalType": "uint256",
          "name": "accumulatedFees",
          "type": "uint256"
        }
      ],
      "name": "ProtocolFeesCapturedClaimed",
      "type": "event"
    },
    {
      "anonymous": false,
      "inputs": [
        {
          "indexed": true,
          "internalType": "address",
          "name": "disputer",
          "type": "address"
        },
        {
          "indexed": false,
          "internalType": "uint256",
          "name": "requestTime",
          "type": "uint256"
        },
        {
          "indexed": false,
          "internalType": "bytes",
          "name": "disputedAncillaryData",
          "type": "bytes"
        }
      ],
      "name": "RootBundleDisputed",
      "type": "event"
    },
    {
      "anonymous": false,
      "inputs": [
        {
          "indexed": true,
          "internalType": "uint256",
          "name": "leafId",
          "type": "uint256"
        },
        {
          "indexed": true,
          "internalType": "uint256",
          "name": "chainId",
          "type": "uint256"
        },
        {
          "indexed": false,
          "internalType": "address[]",
          "name": "l1Token",
          "type": "address[]"
        },
        {
          "indexed": false,
          "internalType": "uint256[]",
          "name": "bundleLpFees",
          "type": "uint256[]"
        },
        {
          "indexed": false,
          "internalType": "int256[]",
          "name": "netSendAmount",
          "type": "int256[]"
        },
        {
          "indexed": false,
          "internalType": "int256[]",
          "name": "runningBalance",
          "type": "int256[]"
        },
        {
          "indexed": true,
          "internalType": "address",
          "name": "caller",
          "type": "address"
        }
      ],
      "name": "RootBundleExecuted",
      "type": "event"
    },
    {
      "anonymous": false,
      "inputs": [
        {
          "indexed": true,
          "internalType": "uint256",
          "name": "chainId",
          "type": "uint256"
        },
        {
          "indexed": false,
          "internalType": "bytes",
          "name": "message",
          "type": "bytes"
        }
      ],
      "name": "SpokePoolAdminFunctionTriggered",
      "type": "event"
    },
    {
      "anonymous": false,
      "inputs": [
        {
          "indexed": false,
          "internalType": "uint256",
          "name": "originChainId",
          "type": "uint256"
        },
        {
          "indexed": false,
          "internalType": "uint256",
          "name": "destinationChainId",
          "type": "uint256"
        },
        {
          "indexed": false,
          "internalType": "address",
          "name": "originToken",
          "type": "address"
        },
        {
          "indexed": false,
          "internalType": "address",
          "name": "destinationToken",
          "type": "address"
        }
      ],
      "name": "WhitelistRoute",
      "type": "event"
    },
    {
      "stateMutability": "payable",
      "type": "fallback"
    },
    {
      "inputs": [
        {
          "internalType": "address",
          "name": "l1Token",
          "type": "address"
        },
        {
          "internalType": "uint256",
          "name": "l1TokenAmount",
          "type": "uint256"
        }
      ],
      "name": "addLiquidity",
      "outputs": [],
      "stateMutability": "payable",
      "type": "function"
    },
    {
      "inputs": [],
      "name": "bondAmount",
      "outputs": [
        {
          "internalType": "uint256",
          "name": "",
          "type": "uint256"
        }
      ],
      "stateMutability": "view",
      "type": "function"
    },
    {
      "inputs": [],
      "name": "bondToken",
      "outputs": [
        {
          "internalType": "contract IERC20",
          "name": "",
          "type": "address"
        }
      ],
      "stateMutability": "view",
      "type": "function"
    },
    {
      "inputs": [
        {
          "internalType": "address",
          "name": "l1Token",
          "type": "address"
        }
      ],
      "name": "claimProtocolFeesCaptured",
      "outputs": [],
      "stateMutability": "nonpayable",
      "type": "function"
    },
    {
      "inputs": [
        {
          "internalType": "uint256",
          "name": "",
          "type": "uint256"
        }
      ],
      "name": "crossChainContracts",
      "outputs": [
        {
          "internalType": "contract AdapterInterface",
          "name": "adapter",
          "type": "address"
        },
        {
          "internalType": "address",
          "name": "spokePool",
          "type": "address"
        }
      ],
      "stateMutability": "view",
      "type": "function"
    },
    {
      "inputs": [],
      "name": "depositEthToWeth",
      "outputs": [],
      "stateMutability": "payable",
      "type": "function"
    },
    {
      "inputs": [
        {
          "internalType": "address",
          "name": "l1Token",
          "type": "address"
        }
      ],
      "name": "disableL1TokenForLiquidityProvision",
      "outputs": [],
      "stateMutability": "nonpayable",
      "type": "function"
    },
    {
      "inputs": [],
      "name": "disputeRootBundle",
      "outputs": [],
      "stateMutability": "nonpayable",
      "type": "function"
    },
    {
      "inputs": [
        {
          "internalType": "address",
          "name": "l1Token",
          "type": "address"
        }
      ],
      "name": "enableL1TokenForLiquidityProvision",
      "outputs": [],
      "stateMutability": "nonpayable",
      "type": "function"
    },
    {
      "inputs": [
        {
          "internalType": "address",
          "name": "l1Token",
          "type": "address"
        }
      ],
      "name": "exchangeRateCurrent",
      "outputs": [
        {
          "internalType": "uint256",
          "name": "",
          "type": "uint256"
        }
      ],
      "stateMutability": "nonpayable",
      "type": "function"
    },
    {
      "inputs": [
        {
          "components": [
            {
              "internalType": "uint256",
              "name": "chainId",
              "type": "uint256"
            },
            {
              "internalType": "uint256[]",
              "name": "bundleLpFees",
              "type": "uint256[]"
            },
            {
              "internalType": "int256[]",
              "name": "netSendAmounts",
              "type": "int256[]"
            },
            {
              "internalType": "int256[]",
              "name": "runningBalances",
              "type": "int256[]"
            },
            {
              "internalType": "uint8",
              "name": "leafId",
              "type": "uint8"
            },
            {
              "internalType": "address[]",
              "name": "l1Tokens",
              "type": "address[]"
            }
          ],
          "internalType": "struct HubPoolInterface.PoolRebalanceLeaf",
          "name": "poolRebalanceLeaf",
          "type": "tuple"
        },
        {
          "internalType": "bytes32[]",
          "name": "proof",
          "type": "bytes32[]"
        }
      ],
      "name": "executeRootBundle",
      "outputs": [],
      "stateMutability": "nonpayable",
      "type": "function"
    },
    {
      "inputs": [],
      "name": "finder",
      "outputs": [
        {
          "internalType": "contract FinderInterface",
          "name": "",
          "type": "address"
        }
      ],
      "stateMutability": "view",
      "type": "function"
    },
    {
      "inputs": [],
      "name": "getCurrentTime",
      "outputs": [
        {
          "internalType": "uint256",
          "name": "",
          "type": "uint256"
        }
      ],
      "stateMutability": "view",
      "type": "function"
    },
    {
      "inputs": [],
      "name": "getRootBundleProposalAncillaryData",
      "outputs": [
        {
          "internalType": "bytes",
          "name": "ancillaryData",
          "type": "bytes"
        }
      ],
      "stateMutability": "view",
      "type": "function"
    },
    {
      "inputs": [],
      "name": "identifier",
      "outputs": [
        {
          "internalType": "bytes32",
          "name": "",
          "type": "bytes32"
        }
      ],
      "stateMutability": "view",
      "type": "function"
    },
    {
      "inputs": [
        {
          "internalType": "address",
          "name": "l1Token",
          "type": "address"
        }
      ],
      "name": "liquidityUtilizationCurrent",
      "outputs": [
        {
          "internalType": "uint256",
          "name": "",
          "type": "uint256"
        }
      ],
      "stateMutability": "nonpayable",
      "type": "function"
    },
    {
      "inputs": [
        {
          "internalType": "address",
          "name": "l1Token",
          "type": "address"
        },
        {
          "internalType": "uint256",
          "name": "relayedAmount",
          "type": "uint256"
        }
      ],
      "name": "liquidityUtilizationPostRelay",
      "outputs": [
        {
          "internalType": "uint256",
          "name": "",
          "type": "uint256"
        }
      ],
      "stateMutability": "nonpayable",
      "type": "function"
    },
    {
      "inputs": [],
      "name": "liveness",
      "outputs": [
        {
          "internalType": "uint64",
          "name": "",
          "type": "uint64"
        }
      ],
      "stateMutability": "view",
      "type": "function"
    },
    {
      "inputs": [],
      "name": "lpFeeRatePerSecond",
      "outputs": [
        {
          "internalType": "uint256",
          "name": "",
          "type": "uint256"
        }
      ],
      "stateMutability": "view",
      "type": "function"
    },
    {
      "inputs": [],
      "name": "lpTokenFactory",
      "outputs": [
        {
          "internalType": "contract LpTokenFactoryInterface",
          "name": "",
          "type": "address"
        }
      ],
      "stateMutability": "view",
      "type": "function"
    },
    {
      "inputs": [
        {
          "internalType": "bytes[]",
          "name": "data",
          "type": "bytes[]"
        }
      ],
      "name": "multicall",
      "outputs": [
        {
          "internalType": "bytes[]",
          "name": "results",
          "type": "bytes[]"
        }
      ],
      "stateMutability": "payable",
      "type": "function"
    },
    {
      "inputs": [],
      "name": "owner",
      "outputs": [
        {
          "internalType": "address",
          "name": "",
          "type": "address"
        }
      ],
      "stateMutability": "view",
      "type": "function"
    },
    {
      "inputs": [
        {
          "internalType": "address",
          "name": "",
          "type": "address"
        }
      ],
      "name": "pooledTokens",
      "outputs": [
        {
          "internalType": "address",
          "name": "lpToken",
          "type": "address"
        },
        {
          "internalType": "bool",
          "name": "isEnabled",
          "type": "bool"
        },
        {
          "internalType": "uint32",
          "name": "lastLpFeeUpdate",
          "type": "uint32"
        },
        {
          "internalType": "int256",
          "name": "utilizedReserves",
          "type": "int256"
        },
        {
          "internalType": "uint256",
          "name": "liquidReserves",
          "type": "uint256"
        },
        {
          "internalType": "uint256",
          "name": "undistributedLpFees",
          "type": "uint256"
        }
      ],
      "stateMutability": "view",
      "type": "function"
    },
    {
      "inputs": [
        {
          "internalType": "uint256[]",
          "name": "bundleEvaluationBlockNumbers",
          "type": "uint256[]"
        },
        {
          "internalType": "uint8",
          "name": "poolRebalanceLeafCount",
          "type": "uint8"
        },
        {
          "internalType": "bytes32",
          "name": "poolRebalanceRoot",
          "type": "bytes32"
        },
        {
          "internalType": "bytes32",
          "name": "relayerRefundRoot",
          "type": "bytes32"
        },
        {
          "internalType": "bytes32",
          "name": "slowRelayFulfillmentRoot",
          "type": "bytes32"
        }
      ],
      "name": "proposeRootBundle",
      "outputs": [],
      "stateMutability": "nonpayable",
      "type": "function"
    },
    {
      "inputs": [],
      "name": "protocolFeeCaptureAddress",
      "outputs": [
        {
          "internalType": "address",
          "name": "",
          "type": "address"
        }
      ],
      "stateMutability": "view",
      "type": "function"
    },
    {
      "inputs": [],
      "name": "protocolFeeCapturePct",
      "outputs": [
        {
          "internalType": "uint256",
          "name": "",
          "type": "uint256"
        }
      ],
      "stateMutability": "view",
      "type": "function"
    },
    {
      "inputs": [
        {
          "internalType": "uint256",
          "name": "chainId",
          "type": "uint256"
        },
        {
          "internalType": "bytes",
          "name": "functionData",
          "type": "bytes"
        }
      ],
      "name": "relaySpokePoolAdminFunction",
      "outputs": [],
      "stateMutability": "nonpayable",
      "type": "function"
    },
    {
      "inputs": [
        {
          "internalType": "address",
          "name": "l1Token",
          "type": "address"
        },
        {
          "internalType": "uint256",
          "name": "lpTokenAmount",
          "type": "uint256"
        },
        {
          "internalType": "bool",
          "name": "sendEth",
          "type": "bool"
        }
      ],
      "name": "removeLiquidity",
      "outputs": [],
      "stateMutability": "nonpayable",
      "type": "function"
    },
    {
      "inputs": [],
      "name": "renounceOwnership",
      "outputs": [],
      "stateMutability": "nonpayable",
      "type": "function"
    },
    {
      "inputs": [],
      "name": "rootBundleProposal",
      "outputs": [
        {
          "internalType": "uint64",
          "name": "requestExpirationTimestamp",
          "type": "uint64"
        },
        {
          "internalType": "uint64",
          "name": "unclaimedPoolRebalanceLeafCount",
          "type": "uint64"
        },
        {
          "internalType": "bytes32",
          "name": "poolRebalanceRoot",
          "type": "bytes32"
        },
        {
          "internalType": "bytes32",
          "name": "relayerRefundRoot",
          "type": "bytes32"
        },
        {
          "internalType": "bytes32",
          "name": "slowRelayFulfillmentRoot",
          "type": "bytes32"
        },
        {
          "internalType": "uint256",
          "name": "claimedBitMap",
          "type": "uint256"
        },
        {
          "internalType": "address",
          "name": "proposer",
          "type": "address"
        },
        {
          "internalType": "bool",
          "name": "proposerBondRepaid",
          "type": "bool"
        }
      ],
      "stateMutability": "view",
      "type": "function"
    },
    {
      "inputs": [
        {
          "internalType": "contract IERC20",
          "name": "newBondToken",
          "type": "address"
        },
        {
          "internalType": "uint256",
          "name": "newBondAmount",
          "type": "uint256"
        }
      ],
      "name": "setBond",
      "outputs": [],
      "stateMutability": "nonpayable",
      "type": "function"
    },
    {
      "inputs": [
        {
          "internalType": "uint256",
          "name": "l2ChainId",
          "type": "uint256"
        },
        {
          "internalType": "address",
          "name": "adapter",
          "type": "address"
        },
        {
          "internalType": "address",
          "name": "spokePool",
          "type": "address"
        }
      ],
      "name": "setCrossChainContracts",
      "outputs": [],
      "stateMutability": "nonpayable",
      "type": "function"
    },
    {
      "inputs": [
        {
          "internalType": "uint256",
          "name": "time",
          "type": "uint256"
        }
      ],
      "name": "setCurrentTime",
      "outputs": [],
      "stateMutability": "nonpayable",
      "type": "function"
    },
    {
      "inputs": [
        {
          "internalType": "bytes32",
          "name": "newIdentifier",
          "type": "bytes32"
        }
      ],
      "name": "setIdentifier",
      "outputs": [],
      "stateMutability": "nonpayable",
      "type": "function"
    },
    {
      "inputs": [
        {
          "internalType": "uint64",
          "name": "newLiveness",
          "type": "uint64"
        }
      ],
      "name": "setLiveness",
      "outputs": [],
      "stateMutability": "nonpayable",
      "type": "function"
    },
    {
      "inputs": [
        {
          "internalType": "address",
          "name": "newProtocolFeeCaptureAddress",
          "type": "address"
        },
        {
          "internalType": "uint256",
          "name": "newProtocolFeeCapturePct",
          "type": "uint256"
        }
      ],
      "name": "setProtocolFeeCapture",
      "outputs": [],
      "stateMutability": "nonpayable",
      "type": "function"
    },
    {
      "inputs": [
        {
          "internalType": "address",
          "name": "l1Token",
          "type": "address"
        }
      ],
      "name": "sync",
      "outputs": [],
      "stateMutability": "nonpayable",
      "type": "function"
    },
    {
      "inputs": [],
      "name": "timerAddress",
      "outputs": [
        {
          "internalType": "address",
          "name": "",
          "type": "address"
        }
      ],
      "stateMutability": "view",
      "type": "function"
    },
    {
      "inputs": [
        {
          "internalType": "address",
          "name": "newOwner",
          "type": "address"
        }
      ],
      "name": "transferOwnership",
      "outputs": [],
      "stateMutability": "nonpayable",
      "type": "function"
    },
    {
      "inputs": [
        {
          "internalType": "address",
          "name": "",
          "type": "address"
        }
      ],
      "name": "unclaimedAccumulatedProtocolFees",
      "outputs": [
        {
          "internalType": "uint256",
          "name": "",
          "type": "uint256"
        }
      ],
      "stateMutability": "view",
      "type": "function"
    },
    {
      "inputs": [],
      "name": "weth",
      "outputs": [
        {
          "internalType": "contract WETH9",
          "name": "",
          "type": "address"
        }
      ],
      "stateMutability": "view",
      "type": "function"
    },
    {
      "inputs": [
        {
          "internalType": "uint256",
          "name": "originChainId",
          "type": "uint256"
        },
        {
          "internalType": "uint256",
          "name": "destinationChainId",
          "type": "uint256"
        },
        {
          "internalType": "address",
          "name": "originToken",
          "type": "address"
        },
        {
          "internalType": "address",
          "name": "destinationToken",
          "type": "address"
        }
      ],
      "name": "whitelistRoute",
      "outputs": [],
      "stateMutability": "nonpayable",
      "type": "function"
    },
    {
      "inputs": [
        {
          "internalType": "address",
          "name": "",
          "type": "address"
        },
        {
          "internalType": "uint256",
          "name": "",
          "type": "uint256"
        }
      ],
      "name": "whitelistedRoutes",
      "outputs": [
        {
          "internalType": "address",
          "name": "",
          "type": "address"
        }
      ],
      "stateMutability": "view",
      "type": "function"
    },
    {
      "stateMutability": "payable",
      "type": "receive"
    }
  ],
  "transactionHash": "0x5b4fda9217fa9097111c15f06b797bfc6034812e328dedf4cbddbe6cd24da79b",
  "args": [
    "0x0aF162c78f095bC5924d5a3363aEfd6700962f6B",
    "0xbb6206fb01fAad31e8aaFc3AD303cEA89D8c8157",
    "0xc778417E063141139Fce010982780140Aa0cD5Ab",
    "0x0000000000000000000000000000000000000000"
  ],
  "numDeployments": 1,
  "solcInputHash": "b448085fba4896ef879334e29280c4da",
  "bytecode": "0x60806040527f49535f4143524f53535f56325f42554e444c455f56414c494400000000000000600e5565015d3ef79800600f55601580546001600160401b031916611c201790553480156200005357600080fd5b5060405162004b4438038062004b44833981016040819052620000769162000169565b600080546001600160a81b0319166001600160a01b03831617600160a01b179055620000a9620000a33390565b620000fe565b50600c80546001600160a01b03199081166001600160a01b0395861617909155600d8054821693851693909317909255600b8054831691841691909117905560015460118054919093169116179055620001d1565b600180546001600160a01b038381166001600160a01b0319831681179093556040519116919082907f8be0079c531659141344cd1fd0a4f28419497f9722a3daafe3b4186f6b6457e090600090a35050565b6001600160a01b03811681146200016657600080fd5b50565b600080600080608085870312156200018057600080fd5b84516200018d8162000150565b6020860151909450620001a08162000150565b6040860151909350620001b38162000150565b6060860151909250620001c68162000150565b939692955090935050565b61496380620001e16000396000f3fe60806040526004361061025e5760003560e01c8063552188a711610144578063ac9650d8116100b6578063dd70e5e81161007a578063dd70e5e8146107cc578063e0f339e3146107ec578063e40064d71461080c578063e460e35c14610839578063f0056a7d14610859578063f2fde38b146108fe5761026d565b8063ac9650d81461070b578063b60c2d7d1461072b578063b9a3c84c1461074b578063bb9219a21461076b578063c28f4392146107ac5761026d565b80637998a1c4116101085780637998a1c41461066157806380f323a7146106775780638bda0c001461068d5780638da5cb5b146106ad578063a16fd6e9146106cb578063a5841194146106eb5761026d565b8063552188a71461026d57806356688700146105e15780636ad0690a146105f4578063715018a61461062c57806376ec08dd146106415761026d565b806322f8e566116101dd57806338b9e2ce116101a157806338b9e2ce146104a35780633994a3ce146104c35780633c4432f1146104e35780633fc8cef3146105035780634144fd61146105235780634f7473ff146105cb5761026d565b806322f8e5661461040e578063240f475f1461042e57806329cb924d1461044e5780632d0f6f841461046357806333dc09ca146104835761026d565b80630c501af9116102245780630c501af91461036b5780630ee28a881461038b57806311cfc159146103ab5780631c39c38d146103c157806322395aaa146103f95761026d565b8062660b5314610275578062c9920614610295578063084d0513146102b557806309474ae2146102e85780630a2dc9ec146103495761026d565b3661026d5761026b61091e565b005b61026b61091e565b34801561028157600080fd5b5061026b610290366004613b7f565b61099c565b3480156102a157600080fd5b5061026b6102b0366004613bab565b610a7a565b3480156102c157600080fd5b506102d56102d0366004613b7f565b610c4b565b6040519081526020015b60405180910390f35b3480156102f457600080fd5b50610329610303366004613bab565b600a60205260009081526040902080546001909101546001600160a01b03918216911682565b604080516001600160a01b039384168152929091166020830152016102df565b34801561035557600080fd5b5061035e610c77565b6040516102df9190613c1c565b34801561037757600080fd5b5061026b610386366004613c2f565b610e58565b34801561039757600080fd5b5061026b6103a6366004613c5a565b610eea565b3480156103b757600080fd5b506102d5600f5481565b3480156103cd57600080fd5b506000546103e1906001600160a01b031681565b6040516001600160a01b0390911681526020016102df565b34801561040557600080fd5b5061026b6110ac565b34801561041a57600080fd5b5061026b610429366004613bab565b611401565b34801561043a57600080fd5b506011546103e1906001600160a01b031681565b34801561045a57600080fd5b506102d561145c565b34801561046f57600080fd5b5061026b61047e366004613c2f565b6114e8565b34801561048f57600080fd5b5061026b61049e366004613b7f565b61158a565b3480156104af57600080fd5b5061026b6104be366004613e0d565b61178a565b3480156104cf57600080fd5b5061026b6104de366004613f25565b6119b8565b3480156104ef57600080fd5b5061026b6104fe366004613f6f565b611ac4565b34801561050f57600080fd5b50600b546103e1906001600160a01b031681565b34801561052f57600080fd5b5060025460035460045460055460065460075461057a956001600160401b0380821696600160401b90920416949093909290916001600160a01b03811690600160a01b900460ff1688565b604080516001600160401b03998a168152989097166020890152958701949094526060860192909252608085015260a08401526001600160a01b031660c0830152151560e0820152610100016102df565b3480156105d757600080fd5b506102d560125481565b61026b6105ef366004613b7f565b611b8c565b34801561060057600080fd5b50601554610614906001600160401b031681565b6040516001600160401b0390911681526020016102df565b34801561063857600080fd5b5061026b611e09565b34801561064d57600080fd5b50600c546103e1906001600160a01b031681565b34801561066d57600080fd5b506102d5600e5481565b34801561068357600080fd5b506102d560145481565b34801561069957600080fd5b5061026b6106a8366004613f98565b611e3d565b3480156106b957600080fd5b506001546001600160a01b03166103e1565b3480156106d757600080fd5b506102d56106e6366004613c2f565b611fb4565b3480156106f757600080fd5b5061026b610706366004613c2f565b611fe0565b61071e610719366004613fff565b612001565b6040516102df9190614073565b34801561073757600080fd5b5061026b610746366004613c2f565b6121a6565b34801561075757600080fd5b50600d546103e1906001600160a01b031681565b34801561077757600080fd5b506103e1610786366004613b7f565b60086020908152600092835260408084209091529082529020546001600160a01b031681565b3480156107b857600080fd5b506013546103e1906001600160a01b031681565b3480156107d857600080fd5b5061026b6107e73660046140fc565b612346565b3480156107f857600080fd5b506102d5610807366004613c2f565b612392565b34801561081857600080fd5b506102d5610827366004613c2f565b60106020526000908152604090205481565b34801561084557600080fd5b5061026b610854366004614180565b6123ad565b34801561086557600080fd5b506108bc610874366004613c2f565b60096020526000908152604090208054600182015460028301546003909301546001600160a01b03831693600160a01b840460ff1693600160a81b900463ffffffff16929186565b604080516001600160a01b039097168752941515602087015263ffffffff909316938501939093526060840152608083019190915260a082015260c0016102df565b34801561090a57600080fd5b5061026b610919366004613c2f565b6124a3565b600054600160a01b900460ff161561099a57600b60009054906101000a90046001600160a01b03166001600160a01b031663d0e30db0476040518263ffffffff1660e01b81526004016000604051808303818588803b15801561098057600080fd5b505af1158015610994573d6000803e3d6000fd5b50505050505b565b6001546001600160a01b031633146109cf5760405162461bcd60e51b81526004016109c6906141b7565b60405180910390fd5b670de0b6b3a7640000811115610a275760405162461bcd60e51b815260206004820152601960248201527f4261642070726f746f636f6c466565436170747572655063740000000000000060448201526064016109c6565b601180546001600160a01b0319166001600160a01b03841690811790915560128290556040518291907fc1993b89fd79a19ece7beb067ddc8534ca26d29c0ff94ea2f53b4a508d1eedc990600090a35050565b6001546001600160a01b03163314610aa45760405162461bcd60e51b81526004016109c6906141b7565b600254600160401b90046001600160401b031615610ad45760405162461bcd60e51b81526004016109c6906141ec565b600d546040516302abf57960e61b8152721259195b9d1a599a595c95da1a5d195b1a5cdd606a1b60048201526000916001600160a01b03169063aafd5e4090602401602060405180830381865afa158015610b33573d6000803e3d6000fd5b505050506040513d601f19601f82011682018060405250810190610b579190614223565b6040516390978d1b60e01b8152600481018490529091506001600160a01b038216906390978d1b90602401602060405180830381865afa158015610b9f573d6000803e3d6000fd5b505050506040513d601f19601f82011682018060405250810190610bc39190614240565b610c0f5760405162461bcd60e51b815260206004820152601860248201527f4964656e746966696572206e6f7420737570706f72746564000000000000000060448201526064016109c6565b600e8290556040518281527ff45367c278fcceff23d601ce4bdd191e5bd61687ff9f29dc7276a08fe54c0c5d9060200160405180910390a15050565b6000610c5561253b565b610c5d612594565b610c6783836125a3565b9050610c71612698565b92915050565b6040805160208082018352600082528251808401909352601a83527f7265717565737445787069726174696f6e54696d657374616d7000000000000090830152600254606092610cd092916001600160401b03166126ad565b60408051808201909152601f81527f756e636c61696d6564506f6f6c526562616c616e63654c656166436f756e74006020820152600254919250610d2691839190600160401b90046001600160401b03166126ad565b9050610d6181604051806040016040528060118152602001701c1bdbdb149958985b185b98d9549bdbdd607a1b8152506002600101546126f4565b9050610d9b81604051806040016040528060118152602001701c995b185e595c9499599d5b99149bdbdd607a1b81525060028001546126f4565b9050610de2816040518060400160405280601881526020017f736c6f7752656c617946756c66696c6c6d656e74526f6f7400000000000000008152506002600301546126f4565b9050610e19816040518060400160405280600d81526020016c0636c61696d65644269744d617609c1b8152506002600401546126ad565b604080518082019091526008815267383937b837b9b2b960c11b6020820152600754919250610e53918391906001600160a01b031661270f565b905090565b6001546001600160a01b03163314610e825760405162461bcd60e51b81526004016109c6906141b7565b6001600160a01b03818116600081815260096020908152604091829020805460ff60a01b1981169091558251938452909316928201929092527fac111b3b527b307393c94d98f26140effb71411054466818be97912d2d65f77691015b60405180910390a150565b610ef261253b565b610efa612594565b600b546001600160a01b0384811691161480610f14575080155b610f505760405162461bcd60e51b815260206004820152600d60248201526c086c2dce840e6cadcc840cae8d609b1b60448201526064016109c6565b6000670de0b6b3a7640000610f648561272a565b610f6e9085614273565b610f7891906142a8565b6001600160a01b038581166000908152600960205260409081902054905163079cc67960e41b81523360048201526024810187905292935016906379cc6790906044016020604051808303816000875af1158015610fda573d6000803e3d6000fd5b505050506040513d601f19601f82011682018060405250810190610ffe9190614240565b506001600160a01b0384166000908152600960205260408120600201805483929061102a9084906142bc565b909155505081156110445761103f3382612822565b611058565b6110586001600160a01b03851633836128dd565b604080518281526020810185905233916001600160a01b038716917fcda1185f28599e6bd14ab8a68b3c30a11e1dce4256b5e67e94dd3fd846a6c589910160405180910390a3506110a7612698565b505050565b6110b461253b565b6110bc612594565b6002546001600160401b03166110d061145c565b111561111e5760405162461bcd60e51b815260206004820152601760248201527f5265717565737420706173736564206c6976656e65737300000000000000000060448201526064016109c6565b601454600061112b610c77565b601354909150611146906001600160a01b0316333085612940565b61116f61115161297e565b61115c846002614273565b6013546001600160a01b03169190612a04565b61117761297e565b6001600160a01b031663af355d1e600e5461119061145c565b60135485906001600160a01b031660006111a8612b19565b6014546111b591906142bc565b6015546007546040516001600160e01b031960e08b901b1681526111ff989796959493926001600160401b0316916001600160a01b031690670de0b6b3a7640000906004016142d3565b6020604051808303816000875af115801561121e573d6000803e3d6000fd5b505050506040513d601f19601f820116820180604052508101906112429190614343565b5060408051610160810182526007546001600160a01b0390811682526000602083018190526013549091169282019290925260608101829052670de0b6b3a7640000608082015260a0810182905260155460c08201906001600160401b03166112a961145c565b6112b3919061435c565b8152602001600081526020016112c7612b19565b81526020016112d4612b19565b6014546112e191906142bc565b81526015546001600160401b031660209091015290506112ff61297e565b6001600160a01b0316639ce320c8600e5461131861145c565b858533306040518763ffffffff1660e01b815260040161133d96959493929190614374565b6020604051808303816000875af115801561135c573d6000803e3d6000fd5b505050506040513d601f19601f820116820180604052508101906113809190614343565b50337f4c789f44a7398cb63bf580e03ad5a7ec8228ea4935d3c1a1135eb449f0bb301b6113ab61145c565b846040516113ba929190614473565b60405180910390a25050600280546001600160801b0319169055506000600381905560048190556005819055600655600780546001600160a81b031916905561099a612698565b6000546001600160a01b031661141657600080fd5b60005460405163117c72b360e11b8152600481018390526001600160a01b03909116906322f8e56690602401600060405180830381600087803b15801561098057600080fd5b600080546001600160a01b0316156114e35760008054906101000a90046001600160a01b03166001600160a01b03166329cb924d6040518163ffffffff1660e01b8152600401602060405180830381865afa1580156114bf573d6000803e3d6000fd5b505050506040513d601f19601f82011682018060405250810190610e539190614343565b504290565b6114f061253b565b6114f8612594565b6011546001600160a01b03828116600081815260106020526040902054611524939192909116906128dd565b6001600160a01b0381166000818152601060205260408082205490519092917f74740239d7d696c84422b720e125e1f47c4138c66d1f4d2a48e99f4197cdb79c91a36001600160a01b038116600090815260106020526040812055611587612698565b50565b6001546001600160a01b031633146115b45760405162461bcd60e51b81526004016109c6906141b7565b600254600160401b90046001600160401b0316156115e45760405162461bcd60e51b81526004016109c6906141ec565b600d546040516302abf57960e61b81527210dbdb1b185d195c985b15da1a5d195b1a5cdd606a1b60048201526000916001600160a01b03169063aafd5e4090602401602060405180830381865afa158015611643573d6000803e3d6000fd5b505050506040513d601f19601f820116820180604052508101906116679190614223565b604051631d1d5b3960e11b81526001600160a01b03858116600483015291925090821690633a3ab67290602401602060405180830381865afa1580156116b1573d6000803e3d6000fd5b505050506040513d601f19601f820116820180604052508101906116d59190614240565b6117145760405162461bcd60e51b815260206004820152601060248201526f139bdd081bdb881dda1a5d195b1a5cdd60821b60448201526064016109c6565b601380546001600160a01b0319166001600160a01b038516179055611737612b19565b611741908361435c565b60148190556040519081526001600160a01b038416907fbfa9a96010167e98ce8c004f718932cbbfd33a58d681c752e693be7d457a1b3b906020015b60405180910390a2505050565b61179261253b565b61179a612594565b6002546001600160401b03166117ae61145c565b10156117f25760405162461bcd60e51b81526020600482015260136024820152724e6f7420706173736564206c6976656e65737360681b60448201526064016109c6565b6006546080830151600160ff9091161b90811614156118455760405162461bcd60e51b815260206004820152600f60248201526e105b1c9958591e4818db185a5b5959608a1b60448201526064016109c6565b600354611853908383612c01565b61188b5760405162461bcd60e51b81526020600482015260096024820152682130b210283937b7b360b91b60448201526064016109c6565b6118a1600260040154836080015160ff16612c3c565b60065560028054600160401b90046001600160401b03169060086118c48361448c565b91906101000a8154816001600160401b0302191690836001600160401b031602179055505061190582600001518360a0015184604001518560200151612c9f565b815161191090613085565b600254600160401b90046001600160401b031661194857600754601454601354611948926001600160a01b03918216929116906128dd565b336001600160a01b03168260000151836080015160ff167f269bcb1817facd431d586b474ce46fe1ca2921cd1a19314c01a606804ea8b9458560a001518660200151876040015188606001516040516119a49493929190614523565b60405180910390a46119b4612698565b5050565b6001546001600160a01b031633146119e25760405162461bcd60e51b81526004016109c6906141b7565b6001600160a01b0382811660008181526008602090815260408083208884529091529081902080546001600160a01b03191693851693909317909255905160248101919091526044810184905260016064820152611a6e90859060840160408051601f198184030181529190526020810180516001600160e01b031663272751c760e01b17905261314b565b60408051858152602081018590526001600160a01b03848116828401528316606082015290517f9ea2ac5578d6a787096208b4dbd9fc248858ea249f9c342f10caf9ca943ec9d49181900360800190a150505050565b6001546001600160a01b03163314611aee5760405162461bcd60e51b81526004016109c6906141b7565b610258816001600160401b031611611b3d5760405162461bcd60e51b8152602060048201526012602482015271131a5d995b995cdcc81d1bdbc81cda1bdc9d60721b60448201526064016109c6565b6015805467ffffffffffffffff19166001600160401b0383169081179091556040519081527f04dd1d84d387f404568a7954b5e398518bdd716e1a8f4a790be9a1a225ad934790602001610edf565b6001600160a01b038216600090815260096020526040902054600160a01b900460ff16611bef5760405162461bcd60e51b8152602060048201526011602482015270151bdad95b881b9bdd08195b98589b1959607a1b60448201526064016109c6565b600b546001600160a01b038381169116148015611c0b57508034145b80611c14575034155b611c505760405162461bcd60e51b815260206004820152600d60248201526c426164206d73672e76616c756560981b60448201526064016109c6565b6000611c5b8361272a565b611c6d83670de0b6b3a7640000614273565b611c7791906142a8565b6001600160a01b03848116600090815260096020526040908190205490516340c10f1960e01b81523360048201526024810184905292935016906340c10f19906044016020604051808303816000875af1158015611cd9573d6000803e3d6000fd5b505050506040513d601f19601f82011682018060405250810190611cfd9190614240565b506001600160a01b03831660009081526009602052604081206002018054849290611d2990849061435c565b9091555050600b546001600160a01b038481169116148015611d4b5750600034115b15611da957826001600160a01b031663d0e30db0346040518263ffffffff1660e01b81526004016000604051808303818588803b158015611d8b57600080fd5b505af1158015611d9f573d6000803e3d6000fd5b5050505050611dbe565b611dbe6001600160a01b038416333085612940565b604080518381526020810183905233916001600160a01b038616917f3c69701a61c79a92ef9692903aaa0068bce8771361ecb09547391e4fb4df8537910160405180910390a3505050565b6001546001600160a01b03163314611e335760405162461bcd60e51b81526004016109c6906141b7565b61099a60006131f7565b611e4561253b565b611e4d612594565b600254600160401b90046001600160401b031615611e7d5760405162461bcd60e51b81526004016109c6906141ec565b60008460ff1611611ed05760405162461bcd60e51b815260206004820181905260248201527f42756e646c65206d7573742068617665206174206c656173742031206c65616660448201526064016109c6565b6015546000906001600160401b0316611ee761145c565b611ef1919061435c565b600280546000600655600780546001600160801b03199092166001600160401b03851617600160401b60ff8b1602179092556003879055600486905560058590556001600160a81b03191633908117909155601454601354929350611f62926001600160a01b031691903090612940565b336001600160a01b031683857fc8af40a0d5158e00ff775a1ed68cc732ad2636d1c595398cb3f8fd14ec32295e84898b88604051611fa39493929190614570565b60405180910390a450610994612698565b6000611fbe61253b565b611fc6612594565b611fd18260006125a3565b9050611fdb612698565b919050565b611fe861253b565b611ff0612594565b611ff981613249565b611587612698565b606034156120515760405162461bcd60e51b815260206004820152601b60248201527f4f6e6c79206d756c746963616c6c207769746820302076616c7565000000000060448201526064016109c6565b816001600160401b0381111561206957612069613c9c565b60405190808252806020026020018201604052801561209c57816020015b60608152602001906001900390816120875790505b50905060005b8281101561219f57600080308686858181106120c0576120c06145ac565b90506020028101906120d291906145c2565b6040516120e092919061460f565b600060405180830381855af49150503d806000811461211b576040519150601f19603f3d011682016040523d82523d6000602084013e612120565b606091505b50915091508161216c5760448151101561213957600080fd5b60048101905080806020019051810190612153919061461f565b60405162461bcd60e51b81526004016109c69190613c1c565b8084848151811061217f5761217f6145ac565b6020026020010181905250505080806121979061468c565b9150506120a2565b5092915050565b6001546001600160a01b031633146121d05760405162461bcd60e51b81526004016109c6906141b7565b6001600160a01b038181166000908152600960205260409020541661228f57600c54604051637e178db760e11b81526001600160a01b0383811660048301529091169063fc2f1b6e906024016020604051808303816000875af115801561223b573d6000803e3d6000fd5b505050506040513d601f19601f8201168201806040525081019061225f9190614223565b6001600160a01b03828116600090815260096020526040902080546001600160a01b031916929091169190911790555b6001600160a01b0381166000908152600960205260409020805460ff60a01b1916600160a01b1790556122c061145c565b6001600160a01b0380831660009081526009602052604090819020805463ffffffff94909416600160a81b0263ffffffff60a81b198516811790915590517f04e291c80180d65a57b5bf1bed775777ec0d6f283ef34bcf130712714d8bb7f793610edf9386938116911617906001600160a01b0392831681529116602082015260400190565b6001546001600160a01b031633146123705760405162461bcd60e51b81526004016109c6906141b7565b61237861253b565b612380612594565b61238a828261314b565b6119b4612698565b600061239c61253b565b6123a4612594565b611fd18261272a565b6001546001600160a01b031633146123d75760405162461bcd60e51b81526004016109c6906141b7565b600254600160401b90046001600160401b0316156124075760405162461bcd60e51b81526004016109c6906141ec565b6040805180820182526001600160a01b03848116808352848216602080850182815260008a8152600a8352879020955186549086166001600160a01b031991821617875590516001909601805496909516951694909417909255835187815292830152918101919091527f36050d958750e6ac3aa674ac7bbe8d0ae6a2f7d4b808e8c2c42c1f22fc9fc4bb9060600160405180910390a1505050565b6001546001600160a01b031633146124cd5760405162461bcd60e51b81526004016109c6906141b7565b6001600160a01b0381166125325760405162461bcd60e51b815260206004820152602660248201527f4f776e61626c653a206e6577206f776e657220697320746865207a65726f206160448201526564647265737360d01b60648201526084016109c6565b611587816131f7565b600054600160a01b900460ff1661099a5760405162461bcd60e51b815260206004820152601f60248201527f5265656e7472616e637947756172643a207265656e7472616e742063616c6c0060448201526064016109c6565b6000805460ff60a01b19169055565b60006125ae83613249565b6001600160a01b038381166000908152600960209081526040808320815160c08101835281549586168152600160a01b860460ff16151593810193909352600160a81b90940463ffffffff16908201526001830154606082018190526002840154608083015260039093015460a082015291811261262d576000612633565b81606001515b90506000612641828661435c565b90506000828460800151612655919061435c565b90508061267057670de0b6b3a7640000945050505050610c71565b8061268383670de0b6b3a7640000614273565b61268d91906142a8565b979650505050505050565b6000805460ff60a01b1916600160a01b179055565b606060006126bb8585613350565b905084816126c885613392565b6040516020016126da939291906146a7565b6040516020818303038152906040529150505b9392505050565b606060006127028585613350565b905084816126c8856134ba565b6060600061271d8585613350565b905084816126c8856134fb565b6001600160a01b038082166000908152600960209081526040808320805482516318160ddd60e01b8152925194959194869491909216926318160ddd92600480830193928290030181865afa158015612787573d6000803e3d6000fd5b505050506040513d601f19601f820116820180604052508101906127ab9190614343565b9050806127c35750670de0b6b3a76400009392505050565b6127cc82613552565b6127d584613249565b60008260030154836001015484600201546127f091906146ea565b6127fa919061472b565b90508161280f82670de0b6b3a7640000614273565b61281991906142a8565b95945050505050565b6001600160a01b0382163b1561284957600b546119b4906001600160a01b031683836128dd565b600b54604051632e1a7d4d60e01b8152600481018390526001600160a01b0390911690632e1a7d4d90602401600060405180830381600087803b15801561288f57600080fd5b505af11580156128a3573d6000803e3d6000fd5b50506040516001600160a01b038516925083156108fc02915083906000818181858888f193505050501580156110a7573d6000803e3d6000fd5b6040516001600160a01b0383166024820152604481018290526110a790849063a9059cbb60e01b906064015b60408051601f198184030181529190526020810180516001600160e01b03166001600160e01b0319909316929092179091526135ba565b6040516001600160a01b03808516602483015283166044820152606481018290526129789085906323b872dd60e01b90608401612909565b50505050565b600d546040516302abf57960e61b815275536b696e6e794f7074696d69737469634f7261636c6560501b60048201526000916001600160a01b03169063aafd5e4090602401602060405180830381865afa1580156129e0573d6000803e3d6000fd5b505050506040513d601f19601f82011682018060405250810190610e539190614223565b801580612a7e5750604051636eb1769f60e11b81523060048201526001600160a01b03838116602483015284169063dd62ed3e90604401602060405180830381865afa158015612a58573d6000803e3d6000fd5b505050506040513d601f19601f82011682018060405250810190612a7c9190614343565b155b612ae95760405162461bcd60e51b815260206004820152603660248201527f5361666545524332303a20617070726f76652066726f6d206e6f6e2d7a65726f60448201527520746f206e6f6e2d7a65726f20616c6c6f77616e636560501b60648201526084016109c6565b6040516001600160a01b0383166024820152604481018290526110a790849063095ea7b360e01b90606401612909565b600d546040516302abf57960e61b81526453746f726560d81b60048201526000916001600160a01b03169063aafd5e4090602401602060405180830381865afa158015612b6a573d6000803e3d6000fd5b505050506040513d601f19601f82011682018060405250810190612b8e9190614223565b601354604051635b97aadd60e01b81526001600160a01b039182166004820152911690635b97aadd90602401602060405180830381865afa158015612bd7573d6000803e3d6000fd5b505050506040513d601f19601f82011682018060405250810190612bfb919061476a565b51919050565b6000612c34828585604051602001612c1991906147ab565b6040516020818303038152906040528051906020012061368c565b949350505050565b600060ff821115612c855760405162461bcd60e51b8152602060048201526013602482015272496e646578206f7574206f6620626f756e647360681b60448201526064016109c6565b612c9161010083614837565b6001901b8317905092915050565b6000848152600a60205260408120546001600160a01b0316905b84518163ffffffff16101561307d5760006001600160a01b031660086000878463ffffffff1681518110612cef57612cef6145ac565b6020908102919091018101516001600160a01b03908116835282820193909352604091820160009081208b82529091522054161415612d685760405162461bcd60e51b8152602060048201526015602482015274149bdd5d19481b9bdd081dda1a5d195b1a5cdd1959605a1b60448201526064016109c6565b6000848263ffffffff1681518110612d8257612d826145ac565b6020026020010151131561302357612dec82858363ffffffff1681518110612dac57612dac6145ac565b6020026020010151878463ffffffff1681518110612dcc57612dcc6145ac565b60200260200101516001600160a01b03166128dd9092919063ffffffff16565b816001600160a01b03166352c8c75c868363ffffffff1681518110612e1357612e136145ac565b602002602001015160086000898663ffffffff1681518110612e3757612e376145ac565b60200260200101516001600160a01b03166001600160a01b0316815260200190815260200160002060008a815260200190815260200160002060009054906101000a90046001600160a01b0316878563ffffffff1681518110612e9c57612e9c6145ac565b60209081029190910181015160008c8152600a90925260409182902060010154915160e086901b6001600160e01b03191681526001600160a01b03948516600482015292841660248401526044830152919091166064820152608401600060405180830381600087803b158015612f1257600080fd5b505af1158015612f26573d6000803e3d6000fd5b50505050838163ffffffff1681518110612f4257612f426145ac565b602002602001015160096000878463ffffffff1681518110612f6657612f666145ac565b60200260200101516001600160a01b03166001600160a01b031681526020019081526020016000206001016000828254612fa091906146ea565b92505081905550838163ffffffff1681518110612fbf57612fbf6145ac565b602002602001015160096000878463ffffffff1681518110612fe357612fe36145ac565b60200260200101516001600160a01b03166001600160a01b03168152602001908152602001600020600201600082825461301d91906142bc565b90915550505b61306b858263ffffffff168151811061303e5761303e6145ac565b6020026020010151848363ffffffff168151811061305e5761305e6145ac565b60200260200101516136a2565b806130758161484b565b915050612cb9565b505050505050565b6000818152600a602052604090819020805460019091015460045460055493516001600160a01b0393841694859463e6eb8ade9416926130d392909190602401918252602082015260400190565b60408051601f198184030181529181526020820180516001600160e01b031663124e93e160e21b1790525160e084901b6001600160e01b031916815261311d92919060040161486f565b600060405180830381600087803b15801561313757600080fd5b505af115801561307d573d6000803e3d6000fd5b6000828152600a60205260409081902080546001909101549151637375c56f60e11b81526001600160a01b0391821692839263e6eb8ade926131959290911690869060040161486f565b600060405180830381600087803b1580156131af57600080fd5b505af11580156131c3573d6000803e3d6000fd5b50505050827f218987b934c2f6bc596136829fbf43a5fef4d6fafce41f3f6254d9a870c2deec8360405161177d9190613c1c565b600180546001600160a01b038381166001600160a01b0319831681179093556040519116919082907f8be0079c531659141344cd1fd0a4f28419497f9722a3daafe3b4186f6b6457e090600090a35050565b6040516370a0823160e01b81523060048201526000906001600160a01b038316906370a0823190602401602060405180830381865afa158015613290573d6000803e3d6000fd5b505050506040513d601f19601f820116820180604052508101906132b49190614343565b6001600160a01b0383166000908152600960205260409020600201549091508111156119b4576001600160a01b03821660009081526009602052604090206002015461330090826142bc565b6001600160a01b0383166000908152600960205260408120600101805490919061332b90849061472b565b90915550506001600160a01b0391909116600090815260096020526040902060020155565b815160609015613381578160405160200161336b9190614893565b6040516020818303038152906040529050610c71565b8160405160200161336b91906148c7565b6060816133b65750506040805180820190915260018152600360fc1b602082015290565b8160005b81156133e057806133ca8161468c565b91506133d99050600a836142a8565b91506133ba565b6000816001600160401b038111156133fa576133fa613c9c565b6040519080825280601f01601f191660200182016040528015613424576020820181803683370190505b509050815b85156134b15761343a6001826142bc565b90506000613449600a886142a8565b61345490600a614273565b61345e90886142bc565b6134699060306148ec565b905060008160f81b905080848481518110613486576134866145ac565b60200101906001600160f81b031916908160001a9053506134a8600a896142a8565b97505050613429565b50949350505050565b60606134c9608083901c613775565b6134d283613775565b6040805160208101939093528201526060015b6040516020818303038152906040529050919050565b60606135136001600160801b03602084901c16613775565b61352e8360601b6bffffffffffffffffffffffff1916613775565b6040516020016134e59291909182526001600160c01b031916602082015260280190565b6003810154815460009161357291600160a81b900463ffffffff16613909565b90508082600301600082825461358891906142bc565b90915550613596905061145c565b825463ffffffff91909116600160a81b0263ffffffff60a81b199091161790915550565b600061360f826040518060400160405280602081526020017f5361666545524332303a206c6f772d6c6576656c2063616c6c206661696c6564815250856001600160a01b031661395e9092919063ffffffff16565b8051909150156110a7578080602001905181019061362d9190614240565b6110a75760405162461bcd60e51b815260206004820152602a60248201527f5361666545524332303a204552433230206f7065726174696f6e20646964206e6044820152691bdd081cdd58d8d9595960b21b60648201526084016109c6565b600082613699858461396d565b14949350505050565b6000670de0b6b3a7640000601254836136bb9190614273565b6136c591906142a8565b905060006136d382846142bc565b9050801561373c576001600160a01b0384166000908152600960205260408120600301805483929061370690849061435c565b90915550506001600160a01b038416600090815260096020526040812060010180548392906137369084906146ea565b90915550505b8115612978576001600160a01b0384166000908152601060205260408120805484929061376a90849061435c565b909155505050505050565b6000808260001c9050806001600160801b0316905080600160401b02811777ffffffffffffffff0000000000000000ffffffffffffffff169050806401000000000281177bffffffff00000000ffffffff00000000ffffffff00000000ffffffff16905080620100000281177dffff0000ffff0000ffff0000ffff0000ffff0000ffff0000ffff0000ffff169050806101000281177eff00ff00ff00ff00ff00ff00ff00ff00ff00ff00ff00ff00ff00ff00ff00ff1690508060100281177f0f0f0f0f0f0f0f0f0f0f0f0f0f0f0f0f0f0f0f0f0f0f0f0f0f0f0f0f0f0f0f0f16905060006008827f0808080808080808080808080808080808080808080808080808080808080808168161388b5761388b614292565b0460047f040404040404040404040404040404040404040404040404040404040404040484160460027f020202020202020202020202020202020202020202020202020202020202020285160417166027029091017f3030303030303030303030303030303030303030303030303030303030303030019392505050565b6000808261391561145c565b61391f91906142bc565b90506000670de0b6b3a764000082600f548761393b9190614273565b6139459190614273565b61394f91906142a8565b9050848110612c345784612819565b6060612c348484600085613a19565b600081815b8451811015613a1157600085828151811061398f5761398f6145ac565b602002602001015190508083116139d15760408051602081018590529081018290526060016040516020818303038152906040528051906020012092506139fe565b60408051602081018390529081018490526060016040516020818303038152906040528051906020012092505b5080613a098161468c565b915050613972565b509392505050565b606082471015613a7a5760405162461bcd60e51b815260206004820152602660248201527f416464726573733a20696e73756666696369656e742062616c616e636520666f6044820152651c8818d85b1b60d21b60648201526084016109c6565b843b613ac85760405162461bcd60e51b815260206004820152601d60248201527f416464726573733a2063616c6c20746f206e6f6e2d636f6e747261637400000060448201526064016109c6565b600080866001600160a01b03168587604051613ae49190614911565b60006040518083038185875af1925050503d8060008114613b21576040519150601f19603f3d011682016040523d82523d6000602084013e613b26565b606091505b509150915061268d82828660608315613b405750816126ed565b825115613b505782518084602001fd5b8160405162461bcd60e51b81526004016109c69190613c1c565b6001600160a01b038116811461158757600080fd5b60008060408385031215613b9257600080fd5b8235613b9d81613b6a565b946020939093013593505050565b600060208284031215613bbd57600080fd5b5035919050565b60005b83811015613bdf578181015183820152602001613bc7565b838111156129785750506000910152565b60008151808452613c08816020860160208601613bc4565b601f01601f19169290920160200192915050565b6020815260006126ed6020830184613bf0565b600060208284031215613c4157600080fd5b81356126ed81613b6a565b801515811461158757600080fd5b600080600060608486031215613c6f57600080fd5b8335613c7a81613b6a565b9250602084013591506040840135613c9181613c4c565b809150509250925092565b634e487b7160e01b600052604160045260246000fd5b60405160c081016001600160401b0381118282101715613cd457613cd4613c9c565b60405290565b604051601f8201601f191681016001600160401b0381118282101715613d0257613d02613c9c565b604052919050565b60006001600160401b03821115613d2357613d23613c9c565b5060051b60200190565b600082601f830112613d3e57600080fd5b81356020613d53613d4e83613d0a565b613cda565b82815260059290921b84018101918181019086841115613d7257600080fd5b8286015b84811015613d8d5780358352918301918301613d76565b509695505050505050565b803560ff81168114611fdb57600080fd5b600082601f830112613dba57600080fd5b81356020613dca613d4e83613d0a565b82815260059290921b84018101918181019086841115613de957600080fd5b8286015b84811015613d8d578035613e0081613b6a565b8352918301918301613ded565b60008060408385031215613e2057600080fd5b82356001600160401b0380821115613e3757600080fd5b9084019060c08287031215613e4b57600080fd5b613e53613cb2565b82358152602083013582811115613e6957600080fd5b613e7588828601613d2d565b602083015250604083013582811115613e8d57600080fd5b613e9988828601613d2d565b604083015250606083013582811115613eb157600080fd5b613ebd88828601613d2d565b606083015250613ecf60808401613d98565b608082015260a083013582811115613ee657600080fd5b613ef288828601613da9565b60a08301525093506020850135915080821115613f0e57600080fd5b50613f1b85828601613d2d565b9150509250929050565b60008060008060808587031215613f3b57600080fd5b84359350602085013592506040850135613f5481613b6a565b91506060850135613f6481613b6a565b939692955090935050565b600060208284031215613f8157600080fd5b81356001600160401b03811681146126ed57600080fd5b600080600080600060a08688031215613fb057600080fd5b85356001600160401b03811115613fc657600080fd5b613fd288828901613d2d565b955050613fe160208701613d98565b94979496505050506040830135926060810135926080909101359150565b6000806020838503121561401257600080fd5b82356001600160401b038082111561402957600080fd5b818501915085601f83011261403d57600080fd5b81358181111561404c57600080fd5b8660208260051b850101111561406157600080fd5b60209290920196919550909350505050565b6000602080830181845280855180835260408601915060408160051b870101925083870160005b828110156140c857603f198886030184526140b6858351613bf0565b9450928501929085019060010161409a565b5092979650505050505050565b60006001600160401b038211156140ee576140ee613c9c565b50601f01601f191660200190565b6000806040838503121561410f57600080fd5b8235915060208301356001600160401b0381111561412c57600080fd5b8301601f8101851361413d57600080fd5b803561414b613d4e826140d5565b81815286602083850101111561416057600080fd5b816020840160208301376000602083830101528093505050509250929050565b60008060006060848603121561419557600080fd5b8335925060208401356141a781613b6a565b91506040840135613c9181613b6a565b6020808252818101527f4f776e61626c653a2063616c6c6572206973206e6f7420746865206f776e6572604082015260600190565b6020808252601c908201527f70726f706f73616c2068617320756e636c61696d6564206c6561667300000000604082015260600190565b60006020828403121561423557600080fd5b81516126ed81613b6a565b60006020828403121561425257600080fd5b81516126ed81613c4c565b634e487b7160e01b600052601160045260246000fd5b600081600019048311821515161561428d5761428d61425d565b500290565b634e487b7160e01b600052601260045260246000fd5b6000826142b7576142b7614292565b500490565b6000828210156142ce576142ce61425d565b500390565b60006101208b835263ffffffff8b1660208401528060408401526142f98184018b613bf0565b6001600160a01b03998a1660608501526080840198909852505060a08101949094526001600160401b039290921660c084015290931660e082015261010001919091529392505050565b60006020828403121561435557600080fd5b5051919050565b6000821982111561436f5761436f61425d565b500190565b600061020088835263ffffffff8816602084015280604084015261439a81840188613bf0565b9150506143b36060830186516001600160a01b03169052565b60208501516001600160a01b03811660808401525060408501516001600160a01b03811660a084015250606085015180151560c084015250608085015160e083015260a0850151610100818185015260c08701519150610120828186015260e0880151925061014083818701528289015161016087015281890151610180870152808901516101a0870152505050506144586101c08301856001600160a01b03169052565b6001600160a01b0383166101e0830152979650505050505050565b828152604060208201526000612c346040830184613bf0565b60006001600160401b038216806144a5576144a561425d565b6000190192915050565b600081518084526020808501945080840160005b838110156144e85781516001600160a01b0316875295820195908201906001016144c3565b509495945050505050565b600081518084526020808501945080840160005b838110156144e857815187529582019590820190600101614507565b60808152600061453660808301876144af565b828103602084015261454881876144f3565b9050828103604084015261455c81866144f3565b9050828103606084015261268d81856144f3565b6001600160401b038516815260ff8416602082015260806040820152600061459b60808301856144f3565b905082606083015295945050505050565b634e487b7160e01b600052603260045260246000fd5b6000808335601e198436030181126145d957600080fd5b8301803591506001600160401b038211156145f357600080fd5b60200191503681900382131561460857600080fd5b9250929050565b8183823760009101908152919050565b60006020828403121561463157600080fd5b81516001600160401b0381111561464757600080fd5b8201601f8101841361465857600080fd5b8051614666613d4e826140d5565b81815285602083850101111561467b57600080fd5b612819826020830160208601613bc4565b60006000198214156146a0576146a061425d565b5060010190565b600084516146b9818460208901613bc4565b8451908301906146cd818360208901613bc4565b84519101906146e0818360208801613bc4565b0195945050505050565b600080821280156001600160ff1b038490038513161561470c5761470c61425d565b600160ff1b83900384128116156147255761472561425d565b50500190565b60008083128015600160ff1b8501841216156147495761474961425d565b6001600160ff1b03840183138116156147645761476461425d565b50500390565b60006020828403121561477c57600080fd5b604051602081018181106001600160401b038211171561479e5761479e613c9c565b6040529151825250919050565b60208152815160208201526000602083015160c060408401526147d160e08401826144f3565b90506040840151601f19808584030160608601526147ef83836144f3565b9250606086015191508085840301608086015261480c83836144f3565b925060ff60808701511660a086015260a08601519150808584030160c08601525061281982826144af565b60008261484657614846614292565b500690565b600063ffffffff808316818114156148655761486561425d565b6001019392505050565b6001600160a01b0383168152604060208201819052600090612c3490830184613bf0565b600b60fa1b8152600082516148af816001850160208701613bc4565b601d60f91b6001939091019283015250600201919050565b600082516148d9818460208701613bc4565b601d60f91b920191825250600101919050565b600060ff821660ff84168060ff038211156149095761490961425d565b019392505050565b60008251614923818460208701613bc4565b919091019291505056fea264697066735822122072032f81f08788bd28728ee8debb4d15a1230240734cab3d664d84adc11077b564736f6c634300080b0033",
  "libraries": {
    "MerkleLib": "0x0aF162c78f095bC5924d5a3363aEfd6700962f6B"
  }
}