{
  "address": "0xa1b6DA4AaE90fA16F3A3338c8d1Dc70B4926FCa7",
  "abi": [
    {
      "inputs": [
        {
          "internalType": "contract LpTokenFactoryInterface",
          "name": "_lpTokenFactory",
          "type": "address"
        },
        {
          "internalType": "contract FinderInterface",
          "name": "_finder",
          "type": "address"
        },
        {
          "internalType": "contract WETH9",
          "name": "_weth",
          "type": "address"
        },
        {
          "internalType": "address",
          "name": "_timer",
          "type": "address"
        }
      ],
      "stateMutability": "nonpayable",
      "type": "constructor"
    },
    {
      "anonymous": false,
      "inputs": [
        {
          "indexed": true,
          "internalType": "address",
          "name": "newBondToken",
          "type": "address"
        },
        {
          "indexed": false,
          "internalType": "uint256",
          "name": "newBondAmount",
          "type": "uint256"
        }
      ],
      "name": "BondSet",
      "type": "event"
    },
    {
      "anonymous": false,
      "inputs": [
        {
          "indexed": false,
          "internalType": "uint256",
          "name": "l2ChainId",
          "type": "uint256"
        },
        {
          "indexed": false,
          "internalType": "address",
          "name": "adapter",
          "type": "address"
        },
        {
          "indexed": false,
          "internalType": "address",
          "name": "spokePool",
          "type": "address"
        }
      ],
      "name": "CrossChainContractsSet",
      "type": "event"
    },
    {
      "anonymous": false,
      "inputs": [
        {
          "indexed": true,
          "internalType": "bytes32",
          "name": "poolRebalanceRoot",
          "type": "bytes32"
        },
        {
          "indexed": true,
          "internalType": "bytes32",
          "name": "relayerRefundRoot",
          "type": "bytes32"
        },
        {
          "indexed": false,
          "internalType": "bytes32",
          "name": "slowRelayRoot",
          "type": "bytes32"
        },
        {
          "indexed": true,
          "internalType": "address",
          "name": "proposer",
          "type": "address"
        }
      ],
      "name": "EmergencyRootBundleDeleted",
      "type": "event"
    },
    {
      "anonymous": false,
      "inputs": [
        {
          "indexed": false,
          "internalType": "bytes32",
          "name": "newIdentifier",
          "type": "bytes32"
        }
      ],
      "name": "IdentifierSet",
      "type": "event"
    },
    {
      "anonymous": false,
      "inputs": [
        {
          "indexed": false,
          "internalType": "address",
          "name": "l1Token",
          "type": "address"
        },
        {
          "indexed": false,
          "internalType": "address",
          "name": "lpToken",
          "type": "address"
        }
      ],
      "name": "L1TokenEnabledForLiquidityProvision",
      "type": "event"
    },
    {
      "anonymous": false,
      "inputs": [
        {
          "indexed": false,
          "internalType": "address",
          "name": "l1Token",
          "type": "address"
        },
        {
          "indexed": false,
          "internalType": "address",
          "name": "lpToken",
          "type": "address"
        }
      ],
      "name": "L2TokenDisabledForLiquidityProvision",
      "type": "event"
    },
    {
      "anonymous": false,
      "inputs": [
        {
          "indexed": true,
          "internalType": "address",
          "name": "l1Token",
          "type": "address"
        },
        {
          "indexed": false,
          "internalType": "uint256",
          "name": "amount",
          "type": "uint256"
        },
        {
          "indexed": false,
          "internalType": "uint256",
          "name": "lpTokensMinted",
          "type": "uint256"
        },
        {
          "indexed": true,
          "internalType": "address",
          "name": "liquidityProvider",
          "type": "address"
        }
      ],
      "name": "LiquidityAdded",
      "type": "event"
    },
    {
      "anonymous": false,
      "inputs": [
        {
          "indexed": true,
          "internalType": "address",
          "name": "l1Token",
          "type": "address"
        },
        {
          "indexed": false,
          "internalType": "uint256",
          "name": "amount",
          "type": "uint256"
        },
        {
          "indexed": false,
          "internalType": "uint256",
          "name": "lpTokensBurnt",
          "type": "uint256"
        },
        {
          "indexed": true,
          "internalType": "address",
          "name": "liquidityProvider",
          "type": "address"
        }
      ],
      "name": "LiquidityRemoved",
      "type": "event"
    },
    {
      "anonymous": false,
      "inputs": [
        {
          "indexed": false,
          "internalType": "uint256",
          "name": "newLiveness",
          "type": "uint256"
        }
      ],
      "name": "LivenessSet",
      "type": "event"
    },
    {
      "anonymous": false,
      "inputs": [
        {
          "indexed": true,
          "internalType": "address",
          "name": "previousOwner",
          "type": "address"
        },
        {
          "indexed": true,
          "internalType": "address",
          "name": "newOwner",
          "type": "address"
        }
      ],
      "name": "OwnershipTransferred",
      "type": "event"
    },
    {
      "anonymous": false,
      "inputs": [
        {
          "indexed": true,
          "internalType": "bool",
          "name": "isPaused",
          "type": "bool"
        }
      ],
      "name": "Paused",
      "type": "event"
    },
    {
      "anonymous": false,
      "inputs": [
        {
          "indexed": false,
          "internalType": "uint32",
          "name": "requestExpirationTimestamp",
          "type": "uint32"
        },
        {
          "indexed": false,
          "internalType": "uint64",
          "name": "unclaimedPoolRebalanceLeafCount",
          "type": "uint64"
        },
        {
          "indexed": false,
          "internalType": "uint256[]",
          "name": "bundleEvaluationBlockNumbers",
          "type": "uint256[]"
        },
        {
          "indexed": true,
          "internalType": "bytes32",
          "name": "poolRebalanceRoot",
          "type": "bytes32"
        },
        {
          "indexed": true,
          "internalType": "bytes32",
          "name": "relayerRefundRoot",
          "type": "bytes32"
        },
        {
          "indexed": false,
          "internalType": "bytes32",
          "name": "slowRelayRoot",
          "type": "bytes32"
        },
        {
          "indexed": true,
          "internalType": "address",
          "name": "proposer",
          "type": "address"
        }
      ],
      "name": "ProposeRootBundle",
      "type": "event"
    },
    {
      "anonymous": false,
      "inputs": [
        {
          "indexed": true,
          "internalType": "address",
          "name": "newProtocolFeeCaptureAddress",
          "type": "address"
        },
        {
          "indexed": true,
          "internalType": "uint256",
          "name": "newProtocolFeeCapturePct",
          "type": "uint256"
        }
      ],
      "name": "ProtocolFeeCaptureSet",
      "type": "event"
    },
    {
      "anonymous": false,
      "inputs": [
        {
          "indexed": true,
          "internalType": "address",
          "name": "l1Token",
          "type": "address"
        },
        {
          "indexed": true,
          "internalType": "uint256",
          "name": "accumulatedFees",
          "type": "uint256"
        }
      ],
      "name": "ProtocolFeesCapturedClaimed",
      "type": "event"
    },
    {
      "anonymous": false,
      "inputs": [
        {
          "indexed": true,
          "internalType": "address",
          "name": "disputer",
          "type": "address"
        },
        {
          "indexed": false,
          "internalType": "uint256",
          "name": "requestTime",
          "type": "uint256"
        }
      ],
      "name": "RootBundleCanceled",
      "type": "event"
    },
    {
      "anonymous": false,
      "inputs": [
        {
          "indexed": true,
          "internalType": "address",
          "name": "disputer",
          "type": "address"
        },
        {
          "indexed": false,
          "internalType": "uint256",
          "name": "requestTime",
          "type": "uint256"
        }
      ],
      "name": "RootBundleDisputed",
      "type": "event"
    },
    {
      "anonymous": false,
      "inputs": [
        {
          "indexed": false,
          "internalType": "uint256",
          "name": "groupIndex",
          "type": "uint256"
        },
        {
          "indexed": true,
          "internalType": "uint256",
          "name": "leafId",
          "type": "uint256"
        },
        {
          "indexed": true,
          "internalType": "uint256",
          "name": "chainId",
          "type": "uint256"
        },
        {
          "indexed": false,
          "internalType": "address[]",
          "name": "l1Token",
          "type": "address[]"
        },
        {
          "indexed": false,
          "internalType": "uint256[]",
          "name": "bundleLpFees",
          "type": "uint256[]"
        },
        {
          "indexed": false,
          "internalType": "int256[]",
          "name": "netSendAmount",
          "type": "int256[]"
        },
        {
          "indexed": false,
          "internalType": "int256[]",
          "name": "runningBalance",
          "type": "int256[]"
        },
        {
          "indexed": true,
          "internalType": "address",
          "name": "caller",
          "type": "address"
        }
      ],
      "name": "RootBundleExecuted",
      "type": "event"
    },
    {
      "anonymous": false,
      "inputs": [
        {
          "indexed": true,
          "internalType": "uint256",
          "name": "originChainId",
          "type": "uint256"
        },
        {
          "indexed": true,
          "internalType": "uint256",
          "name": "destinationChainId",
          "type": "uint256"
        },
        {
          "indexed": true,
          "internalType": "address",
          "name": "originToken",
          "type": "address"
        },
        {
          "indexed": false,
          "internalType": "bool",
          "name": "depositsEnabled",
          "type": "bool"
        }
      ],
      "name": "SetEnableDepositRoute",
      "type": "event"
    },
    {
      "anonymous": false,
      "inputs": [
        {
          "indexed": true,
          "internalType": "uint256",
          "name": "destinationChainId",
          "type": "uint256"
        },
        {
          "indexed": true,
          "internalType": "address",
          "name": "l1Token",
          "type": "address"
        },
        {
          "indexed": true,
          "internalType": "address",
          "name": "destinationToken",
          "type": "address"
        }
      ],
      "name": "SetPoolRebalanceRoute",
      "type": "event"
    },
    {
      "anonymous": false,
      "inputs": [
        {
          "indexed": true,
          "internalType": "uint256",
          "name": "chainId",
          "type": "uint256"
        },
        {
          "indexed": false,
          "internalType": "bytes",
          "name": "message",
          "type": "bytes"
        }
      ],
      "name": "SpokePoolAdminFunctionTriggered",
      "type": "event"
    },
    {
      "stateMutability": "payable",
      "type": "fallback"
    },
    {
      "inputs": [
        {
          "internalType": "address",
          "name": "l1Token",
          "type": "address"
        },
        {
          "internalType": "uint256",
          "name": "l1TokenAmount",
          "type": "uint256"
        }
      ],
      "name": "addLiquidity",
      "outputs": [],
      "stateMutability": "payable",
      "type": "function"
    },
    {
      "inputs": [],
      "name": "bondAmount",
      "outputs": [
        {
          "internalType": "uint256",
          "name": "",
          "type": "uint256"
        }
      ],
      "stateMutability": "view",
      "type": "function"
    },
    {
      "inputs": [],
      "name": "bondToken",
      "outputs": [
        {
          "internalType": "contract IERC20",
          "name": "",
          "type": "address"
        }
      ],
      "stateMutability": "view",
      "type": "function"
    },
    {
      "inputs": [
        {
          "internalType": "address",
          "name": "l1Token",
          "type": "address"
        }
      ],
      "name": "claimProtocolFeesCaptured",
      "outputs": [],
      "stateMutability": "nonpayable",
      "type": "function"
    },
    {
      "inputs": [
        {
          "internalType": "uint256",
          "name": "",
          "type": "uint256"
        }
      ],
      "name": "crossChainContracts",
      "outputs": [
        {
          "internalType": "address",
          "name": "adapter",
          "type": "address"
        },
        {
          "internalType": "address",
          "name": "spokePool",
          "type": "address"
        }
      ],
      "stateMutability": "view",
      "type": "function"
    },
    {
      "inputs": [
        {
          "internalType": "address",
          "name": "l1Token",
          "type": "address"
        }
      ],
      "name": "disableL1TokenForLiquidityProvision",
      "outputs": [],
      "stateMutability": "nonpayable",
      "type": "function"
    },
    {
      "inputs": [],
      "name": "disputeRootBundle",
      "outputs": [],
      "stateMutability": "nonpayable",
      "type": "function"
    },
    {
      "inputs": [],
      "name": "emergencyDeleteProposal",
      "outputs": [],
      "stateMutability": "nonpayable",
      "type": "function"
    },
    {
      "inputs": [
        {
          "internalType": "address",
          "name": "l1Token",
          "type": "address"
        }
      ],
      "name": "enableL1TokenForLiquidityProvision",
      "outputs": [],
      "stateMutability": "nonpayable",
      "type": "function"
    },
    {
      "inputs": [
        {
          "internalType": "address",
          "name": "l1Token",
          "type": "address"
        }
      ],
      "name": "exchangeRateCurrent",
      "outputs": [
        {
          "internalType": "uint256",
          "name": "",
          "type": "uint256"
        }
      ],
      "stateMutability": "nonpayable",
      "type": "function"
    },
    {
      "inputs": [
        {
          "internalType": "uint256",
          "name": "chainId",
          "type": "uint256"
        },
        {
          "internalType": "uint256",
          "name": "groupIndex",
          "type": "uint256"
        },
        {
          "internalType": "uint256[]",
          "name": "bundleLpFees",
          "type": "uint256[]"
        },
        {
          "internalType": "int256[]",
          "name": "netSendAmounts",
          "type": "int256[]"
        },
        {
          "internalType": "int256[]",
          "name": "runningBalances",
          "type": "int256[]"
        },
        {
          "internalType": "uint8",
          "name": "leafId",
          "type": "uint8"
        },
        {
          "internalType": "address[]",
          "name": "l1Tokens",
          "type": "address[]"
        },
        {
          "internalType": "bytes32[]",
          "name": "proof",
          "type": "bytes32[]"
        }
      ],
      "name": "executeRootBundle",
      "outputs": [],
      "stateMutability": "nonpayable",
      "type": "function"
    },
    {
      "inputs": [],
      "name": "finder",
      "outputs": [
        {
          "internalType": "contract FinderInterface",
          "name": "",
          "type": "address"
        }
      ],
      "stateMutability": "view",
      "type": "function"
    },
    {
      "inputs": [],
      "name": "getCurrentTime",
      "outputs": [
        {
          "internalType": "uint256",
          "name": "",
          "type": "uint256"
        }
      ],
      "stateMutability": "view",
      "type": "function"
    },
    {
      "inputs": [],
      "name": "identifier",
      "outputs": [
        {
          "internalType": "bytes32",
          "name": "",
          "type": "bytes32"
        }
      ],
      "stateMutability": "view",
      "type": "function"
    },
    {
      "inputs": [
        {
          "internalType": "address",
          "name": "l1Token",
          "type": "address"
        }
      ],
      "name": "liquidityUtilizationCurrent",
      "outputs": [
        {
          "internalType": "uint256",
          "name": "",
          "type": "uint256"
        }
      ],
      "stateMutability": "nonpayable",
      "type": "function"
    },
    {
      "inputs": [
        {
          "internalType": "address",
          "name": "l1Token",
          "type": "address"
        },
        {
          "internalType": "uint256",
          "name": "relayedAmount",
          "type": "uint256"
        }
      ],
      "name": "liquidityUtilizationPostRelay",
      "outputs": [
        {
          "internalType": "uint256",
          "name": "",
          "type": "uint256"
        }
      ],
      "stateMutability": "nonpayable",
      "type": "function"
    },
    {
      "inputs": [],
      "name": "liveness",
      "outputs": [
        {
          "internalType": "uint32",
          "name": "",
          "type": "uint32"
        }
      ],
      "stateMutability": "view",
      "type": "function"
    },
    {
      "inputs": [],
      "name": "loadEthForL2Calls",
      "outputs": [],
      "stateMutability": "payable",
      "type": "function"
    },
    {
      "inputs": [],
      "name": "lpFeeRatePerSecond",
      "outputs": [
        {
          "internalType": "uint256",
          "name": "",
          "type": "uint256"
        }
      ],
      "stateMutability": "view",
      "type": "function"
    },
    {
      "inputs": [],
      "name": "lpTokenFactory",
      "outputs": [
        {
          "internalType": "contract LpTokenFactoryInterface",
          "name": "",
          "type": "address"
        }
      ],
      "stateMutability": "view",
      "type": "function"
    },
    {
      "inputs": [
        {
          "internalType": "bytes[]",
          "name": "data",
          "type": "bytes[]"
        }
      ],
      "name": "multicall",
      "outputs": [
        {
          "internalType": "bytes[]",
          "name": "results",
          "type": "bytes[]"
        }
      ],
      "stateMutability": "payable",
      "type": "function"
    },
    {
      "inputs": [],
      "name": "owner",
      "outputs": [
        {
          "internalType": "address",
          "name": "",
          "type": "address"
        }
      ],
      "stateMutability": "view",
      "type": "function"
    },
    {
      "inputs": [],
      "name": "paused",
      "outputs": [
        {
          "internalType": "bool",
          "name": "",
          "type": "bool"
        }
      ],
      "stateMutability": "view",
      "type": "function"
    },
    {
      "inputs": [
        {
          "internalType": "uint256",
          "name": "destinationChainId",
          "type": "uint256"
        },
        {
          "internalType": "address",
          "name": "l1Token",
          "type": "address"
        }
      ],
      "name": "poolRebalanceRoute",
      "outputs": [
        {
          "internalType": "address",
          "name": "destinationToken",
          "type": "address"
        }
      ],
      "stateMutability": "view",
      "type": "function"
    },
    {
      "inputs": [
        {
          "internalType": "address",
          "name": "",
          "type": "address"
        }
      ],
      "name": "pooledTokens",
      "outputs": [
        {
          "internalType": "address",
          "name": "lpToken",
          "type": "address"
        },
        {
          "internalType": "bool",
          "name": "isEnabled",
          "type": "bool"
        },
        {
          "internalType": "uint32",
          "name": "lastLpFeeUpdate",
          "type": "uint32"
        },
        {
          "internalType": "int256",
          "name": "utilizedReserves",
          "type": "int256"
        },
        {
          "internalType": "uint256",
          "name": "liquidReserves",
          "type": "uint256"
        },
        {
          "internalType": "uint256",
          "name": "undistributedLpFees",
          "type": "uint256"
        }
      ],
      "stateMutability": "view",
      "type": "function"
    },
    {
      "inputs": [
        {
          "internalType": "uint256[]",
          "name": "bundleEvaluationBlockNumbers",
          "type": "uint256[]"
        },
        {
          "internalType": "uint8",
          "name": "poolRebalanceLeafCount",
          "type": "uint8"
        },
        {
          "internalType": "bytes32",
          "name": "poolRebalanceRoot",
          "type": "bytes32"
        },
        {
          "internalType": "bytes32",
          "name": "relayerRefundRoot",
          "type": "bytes32"
        },
        {
          "internalType": "bytes32",
          "name": "slowRelayRoot",
          "type": "bytes32"
        }
      ],
      "name": "proposeRootBundle",
      "outputs": [],
      "stateMutability": "nonpayable",
      "type": "function"
    },
    {
      "inputs": [],
      "name": "protocolFeeCaptureAddress",
      "outputs": [
        {
          "internalType": "address",
          "name": "",
          "type": "address"
        }
      ],
      "stateMutability": "view",
      "type": "function"
    },
    {
      "inputs": [],
      "name": "protocolFeeCapturePct",
      "outputs": [
        {
          "internalType": "uint256",
          "name": "",
          "type": "uint256"
        }
      ],
      "stateMutability": "view",
      "type": "function"
    },
    {
      "inputs": [
        {
          "internalType": "uint256",
          "name": "chainId",
          "type": "uint256"
        },
        {
          "internalType": "bytes",
          "name": "functionData",
          "type": "bytes"
        }
      ],
      "name": "relaySpokePoolAdminFunction",
      "outputs": [],
      "stateMutability": "nonpayable",
      "type": "function"
    },
    {
      "inputs": [
        {
          "internalType": "address",
          "name": "l1Token",
          "type": "address"
        },
        {
          "internalType": "uint256",
          "name": "lpTokenAmount",
          "type": "uint256"
        },
        {
          "internalType": "bool",
          "name": "sendEth",
          "type": "bool"
        }
      ],
      "name": "removeLiquidity",
      "outputs": [],
      "stateMutability": "nonpayable",
      "type": "function"
    },
    {
      "inputs": [],
      "name": "renounceOwnership",
      "outputs": [],
      "stateMutability": "nonpayable",
      "type": "function"
    },
    {
      "inputs": [],
      "name": "rootBundleProposal",
      "outputs": [
        {
          "internalType": "bytes32",
          "name": "poolRebalanceRoot",
          "type": "bytes32"
        },
        {
          "internalType": "bytes32",
          "name": "relayerRefundRoot",
          "type": "bytes32"
        },
        {
          "internalType": "bytes32",
          "name": "slowRelayRoot",
          "type": "bytes32"
        },
        {
          "internalType": "uint256",
          "name": "claimedBitMap",
          "type": "uint256"
        },
        {
          "internalType": "address",
          "name": "proposer",
          "type": "address"
        },
        {
          "internalType": "uint8",
          "name": "unclaimedPoolRebalanceLeafCount",
          "type": "uint8"
        },
        {
          "internalType": "uint32",
          "name": "requestExpirationTimestamp",
          "type": "uint32"
        }
      ],
      "stateMutability": "view",
      "type": "function"
    },
    {
      "inputs": [
        {
          "internalType": "contract IERC20",
          "name": "newBondToken",
          "type": "address"
        },
        {
          "internalType": "uint256",
          "name": "newBondAmount",
          "type": "uint256"
        }
      ],
      "name": "setBond",
      "outputs": [],
      "stateMutability": "nonpayable",
      "type": "function"
    },
    {
      "inputs": [
        {
          "internalType": "uint256",
          "name": "l2ChainId",
          "type": "uint256"
        },
        {
          "internalType": "address",
          "name": "adapter",
          "type": "address"
        },
        {
          "internalType": "address",
          "name": "spokePool",
          "type": "address"
        }
      ],
      "name": "setCrossChainContracts",
      "outputs": [],
      "stateMutability": "nonpayable",
      "type": "function"
    },
    {
      "inputs": [
        {
          "internalType": "uint256",
          "name": "time",
          "type": "uint256"
        }
      ],
      "name": "setCurrentTime",
      "outputs": [],
      "stateMutability": "nonpayable",
      "type": "function"
    },
    {
      "inputs": [
        {
          "internalType": "uint256",
          "name": "originChainId",
          "type": "uint256"
        },
        {
          "internalType": "uint256",
          "name": "destinationChainId",
          "type": "uint256"
        },
        {
          "internalType": "address",
          "name": "originToken",
          "type": "address"
        },
        {
          "internalType": "bool",
          "name": "depositsEnabled",
          "type": "bool"
        }
      ],
      "name": "setDepositRoute",
      "outputs": [],
      "stateMutability": "nonpayable",
      "type": "function"
    },
    {
      "inputs": [
        {
          "internalType": "bytes32",
          "name": "newIdentifier",
          "type": "bytes32"
        }
      ],
      "name": "setIdentifier",
      "outputs": [],
      "stateMutability": "nonpayable",
      "type": "function"
    },
    {
      "inputs": [
        {
          "internalType": "uint32",
          "name": "newLiveness",
          "type": "uint32"
        }
      ],
      "name": "setLiveness",
      "outputs": [],
      "stateMutability": "nonpayable",
      "type": "function"
    },
    {
      "inputs": [
        {
          "internalType": "bool",
          "name": "pause",
          "type": "bool"
        }
      ],
      "name": "setPaused",
      "outputs": [],
      "stateMutability": "nonpayable",
      "type": "function"
    },
    {
      "inputs": [
        {
          "internalType": "uint256",
          "name": "destinationChainId",
          "type": "uint256"
        },
        {
          "internalType": "address",
          "name": "l1Token",
          "type": "address"
        },
        {
          "internalType": "address",
          "name": "destinationToken",
          "type": "address"
        }
      ],
      "name": "setPoolRebalanceRoute",
      "outputs": [],
      "stateMutability": "nonpayable",
      "type": "function"
    },
    {
      "inputs": [
        {
          "internalType": "address",
          "name": "newProtocolFeeCaptureAddress",
          "type": "address"
        },
        {
          "internalType": "uint256",
          "name": "newProtocolFeeCapturePct",
          "type": "uint256"
        }
      ],
      "name": "setProtocolFeeCapture",
      "outputs": [],
      "stateMutability": "nonpayable",
      "type": "function"
    },
    {
      "inputs": [
        {
          "internalType": "address",
          "name": "l1Token",
          "type": "address"
        }
      ],
      "name": "sync",
      "outputs": [],
      "stateMutability": "nonpayable",
      "type": "function"
    },
    {
      "inputs": [],
      "name": "timerAddress",
      "outputs": [
        {
          "internalType": "address",
          "name": "",
          "type": "address"
        }
      ],
      "stateMutability": "view",
      "type": "function"
    },
    {
      "inputs": [
        {
          "internalType": "address",
          "name": "newOwner",
          "type": "address"
        }
      ],
      "name": "transferOwnership",
      "outputs": [],
      "stateMutability": "nonpayable",
      "type": "function"
    },
    {
      "inputs": [
        {
          "internalType": "address",
          "name": "",
          "type": "address"
        }
      ],
      "name": "unclaimedAccumulatedProtocolFees",
      "outputs": [
        {
          "internalType": "uint256",
          "name": "",
          "type": "uint256"
        }
      ],
      "stateMutability": "view",
      "type": "function"
    },
    {
      "inputs": [],
      "name": "weth",
      "outputs": [
        {
          "internalType": "contract WETH9",
          "name": "",
          "type": "address"
        }
      ],
      "stateMutability": "view",
      "type": "function"
    },
    {
      "stateMutability": "payable",
      "type": "receive"
    }
  ],
  "transactionHash": "0x07d298c49009bf45d06d66b102d1efeaca7661b78a6e258a21b303c2e07de7f9",
  "args": [
    "0x0668ab3839346ebf95d969b3e18B2a96b1CC2b02",
    "0xbb6206fb01fAad31e8aaFc3AD303cEA89D8c8157",
    "0xc778417E063141139Fce010982780140Aa0cD5Ab",
    "0x0000000000000000000000000000000000000000"
  ],
  "numDeployments": 1,
  "solcInputHash": "2fe6c4b637a440a1380be3adbf7d9e12",
  "bytecode": "0x60e06040527f49535f4143524f53535f56325f42554e444c455f56414c494400000000000000600b5565015d3ef79800600c556012805463ffffffff1916611c201790553480156200005057600080fd5b5060405162004c2a38038062004c2a833981016040819052620000739162000149565b600080546001600160a81b0319166001600160a01b03831617600160a01b179055620000a6620000a03390565b620000de565b506001600160a01b0392831660a05290821660c0528116608052600154600e80546001600160a01b03191691909216179055620001b1565b600180546001600160a01b038381166001600160a01b0319831681179093556040519116919082907f8be0079c531659141344cd1fd0a4f28419497f9722a3daafe3b4186f6b6457e090600090a35050565b6001600160a01b03811681146200014657600080fd5b50565b600080600080608085870312156200016057600080fd5b84516200016d8162000130565b6020860151909450620001808162000130565b6040860151909350620001938162000130565b6060860151909250620001a68162000130565b939692955090935050565b60805160a05160c051614a0362000227600039600081816107e601528181610c010152818161184001528181612d8a0152612f800152600081816106a8015261266d015260008181610514015281816109ae01528181610e5f01528181610fc801528181611a580152611bbe0152614a036000f3fe60806040526004361061027f5760003560e01c8063625997c01161014f578063a5841194116100c1578063dd70e5e81161007a578063dd70e5e814610848578063e0f339e314610868578063e40064d714610888578063e460e35c146108b5578063f0056a7d146108d5578063f2fde38b1461097a5761028e565b8063a584119414610774578063ac9650d814610794578063b60c2d7d146107b4578063b9a3c84c146107d4578063c28f439214610808578063cd949995146108285761028e565b80637998a1c4116101135780637998a1c4146106ca57806380c09a82146106e057806380f323a7146107005780638bda0c00146107165780638da5cb5b14610736578063a16fd6e9146107545761028e565b8063625997c01461063a57806369b625021461028c5780636ad0690a1461064f578063715018a61461068157806376ec08dd146106965761028e565b806322f8e566116101f35780633fc8cef3116101ac5780633fc8cef3146105025780634144fd61146105365780634f7473ff146105c757806356688700146105dd57806356864f38146105f05780635c975abb146106105761028e565b806322f8e5661461044d578063240f475f1461046d57806329cb924d1461048d5780632d0f6f84146104a25780632d32d557146104c257806333dc09ca146104e25761028e565b80630ee28a88116102455780630ee28a881461038a57806310b99527146103aa57806311cfc159146103ca57806316c38b3c146103e05780631c39c38d1461040057806322395aaa146104385761028e565b8062660b5314610296578062c99206146102b6578063084d0513146102d657806309474ae2146103095780630c501af91461036a5761028e565b3661028e5761028c61099a565b005b61028c61099a565b3480156102a257600080fd5b5061028c6102b1366004613cf9565b610a23565b3480156102c257600080fd5b5061028c6102d1366004613d25565b610b6f565b3480156102e257600080fd5b506102f66102f1366004613cf9565b610d70565b6040519081526020015b60405180910390f35b34801561031557600080fd5b5061034a610324366004613d25565b600a60205260009081526040902080546001909101546001600160a01b03918216911682565b604080516001600160a01b03938416815292909116602083015201610300565b34801561037657600080fd5b5061028c610385366004613d3e565b610d9c565b34801561039657600080fd5b5061028c6103a5366004613d69565b610e43565b3480156103b657600080fd5b5061028c6103c5366004613dab565b6110c7565b3480156103d657600080fd5b506102f6600c5481565b3480156103ec57600080fd5b5061028c6103fb366004613de2565b611175565b34801561040c57600080fd5b50600054610420906001600160a01b031681565b6040516001600160a01b039091168152602001610300565b34801561044457600080fd5b5061028c6111f1565b34801561045957600080fd5b5061028c610468366004613d25565b6115c3565b34801561047957600080fd5b50600e54610420906001600160a01b031681565b34801561049957600080fd5b506102f661161e565b3480156104ae57600080fd5b5061028c6104bd366004613d3e565b6116af565b3480156104ce57600080fd5b506104206104dd366004613dff565b61172d565b3480156104ee57600080fd5b5061028c6104fd366004613cf9565b61175e565b34801561050e57600080fd5b506104207f000000000000000000000000000000000000000000000000000000000000000081565b34801561054257600080fd5b5060025460035460045460055460065461058094939291906001600160a01b03811690600160a01b810460ff1690600160a81b900463ffffffff1687565b6040805197885260208801969096529486019390935260608501919091526001600160a01b0316608084015260ff1660a083015263ffffffff1660c082015260e001610300565b3480156105d357600080fd5b506102f6600f5481565b61028c6105eb366004613cf9565b6119d9565b3480156105fc57600080fd5b5061028c61060b366004613e2f565b611cb5565b34801561061c57600080fd5b5060075461062a9060ff1681565b6040519015158152602001610300565b34801561064657600080fd5b5061028c611d9d565b34801561065b57600080fd5b5060125461066c9063ffffffff1681565b60405163ffffffff9091168152602001610300565b34801561068d57600080fd5b5061028c611e81565b3480156106a257600080fd5b506104207f000000000000000000000000000000000000000000000000000000000000000081565b3480156106d657600080fd5b506102f6600b5481565b3480156106ec57600080fd5b5061028c6106fb366004613fc4565b611eb5565b34801561070c57600080fd5b506102f660115481565b34801561072257600080fd5b5061028c6107313660046140ba565b612238565b34801561074257600080fd5b506001546001600160a01b0316610420565b34801561076057600080fd5b506102f661076f366004613d3e565b612402565b34801561078057600080fd5b5061028c61078f366004613d3e565b61242e565b6107a76107a2366004614122565b61244f565b60405161030091906141ef565b3480156107c057600080fd5b5061028c6107cf366004613d3e565b6125f5565b3480156107e057600080fd5b506104207f000000000000000000000000000000000000000000000000000000000000000081565b34801561081457600080fd5b50601054610420906001600160a01b031681565b34801561083457600080fd5b5061028c610843366004614251565b6127b4565b34801561085457600080fd5b5061028c61086336600461429f565b612882565b34801561087457600080fd5b506102f6610883366004613d3e565b6128ce565b34801561089457600080fd5b506102f66108a3366004613d3e565b600d6020526000908152604090205481565b3480156108c157600080fd5b5061028c6108d0366004613dab565b6128e9565b3480156108e157600080fd5b506109386108f0366004613d3e565b60096020526000908152604090208054600182015460028301546003909301546001600160a01b03831693600160a01b840460ff1693600160a81b900463ffffffff16929186565b604080516001600160a01b039097168752941515602087015263ffffffff909316938501939093526060840152608083019190915260a082015260c001610300565b34801561098657600080fd5b5061028c610995366004613d3e565b6129c2565b600054600160a01b900460ff1615610a21577f00000000000000000000000000000000000000000000000000000000000000006001600160a01b031663d0e30db0346040518263ffffffff1660e01b81526004016000604051808303818588803b158015610a0757600080fd5b505af1158015610a1b573d6000803e3d6000fd5b50505050505b565b6001546001600160a01b03163314610a565760405162461bcd60e51b8152600401610a4d90614324565b60405180910390fd5b610a5e612a5a565b610a66612ab3565b670de0b6b3a7640000811115610abe5760405162461bcd60e51b815260206004820152601960248201527f4261642070726f746f636f6c46656543617074757265506374000000000000006044820152606401610a4d565b6001600160a01b038216610b145760405162461bcd60e51b815260206004820152601d60248201527f4261642070726f746f636f6c46656543617074757265416464726573730000006044820152606401610a4d565b600e80546001600160a01b0319166001600160a01b038416908117909155600f8290556040518291907fc1993b89fd79a19ece7beb067ddc8534ca26d29c0ff94ea2f53b4a508d1eedc990600090a3610b6b612ac2565b5050565b6001546001600160a01b03163314610b995760405162461bcd60e51b8152600401610a4d90614324565b600654600160a01b900460ff1615610bc35760405162461bcd60e51b8152600401610a4d90614359565b610bcb612a5a565b610bd3612ab3565b6040516302abf57960e61b8152721259195b9d1a599a595c95da1a5d195b1a5cdd606a1b60048201526000907f00000000000000000000000000000000000000000000000000000000000000006001600160a01b03169063aafd5e4090602401602060405180830381865afa158015610c50573d6000803e3d6000fd5b505050506040513d601f19601f82011682018060405250810190610c749190614390565b6040516390978d1b60e01b8152600481018490529091506001600160a01b038216906390978d1b90602401602060405180830381865afa158015610cbc573d6000803e3d6000fd5b505050506040513d601f19601f82011682018060405250810190610ce091906143ad565b610d2c5760405162461bcd60e51b815260206004820152601860248201527f4964656e746966696572206e6f7420737570706f7274656400000000000000006044820152606401610a4d565b600b8290556040518281527ff45367c278fcceff23d601ce4bdd191e5bd61687ff9f29dc7276a08fe54c0c5d9060200160405180910390a150610d6d612ac2565b50565b6000610d7a612a5a565b610d82612ab3565b610d8c8383612ad7565b9050610d96612ac2565b92915050565b6001546001600160a01b03163314610dc65760405162461bcd60e51b8152600401610a4d90614324565b610dce612a5a565b610dd6612ab3565b6001600160a01b03818116600081815260096020908152604091829020805460ff60a01b1981169091558251938452909316928201929092527fac111b3b527b307393c94d98f26140effb71411054466818be97912d2d65f77691015b60405180910390a1610d6d612ac2565b610e4b612a5a565b610e53612ab3565b826001600160a01b03167f00000000000000000000000000000000000000000000000000000000000000006001600160a01b03161480610e91575080155b610ecd5760405162461bcd60e51b815260206004820152600d60248201526c086c2dce840e6cadcc840cae8d609b1b6044820152606401610a4d565b6000670de0b6b3a7640000610ee185612bcf565b610eeb90856143e0565b610ef59190614415565b6001600160a01b038581166000908152600960205260409081902054905163079cc67960e41b81523360048201526024810187905292935016906379cc6790906044016020604051808303816000875af1158015610f57573d6000803e3d6000fd5b505050506040513d601f19601f82011682018060405250810190610f7b91906143ad565b506001600160a01b03841660009081526009602052604081206002018054839290610fa7908490614429565b9091555050811561105f57604051632e1a7d4d60e01b8152600481018290527f00000000000000000000000000000000000000000000000000000000000000006001600160a01b031690632e1a7d4d90602401600060405180830381600087803b15801561101457600080fd5b505af1158015611028573d6000803e3d6000fd5b505060405133925083156108fc02915083906000818181858888f19350505050158015611059573d6000803e3d6000fd5b50611073565b6110736001600160a01b0385163383612cca565b604080518281526020810185905233916001600160a01b038716917fcda1185f28599e6bd14ab8a68b3c30a11e1dce4256b5e67e94dd3fd846a6c589910160405180910390a3506110c2612ac2565b505050565b6001546001600160a01b031633146110f15760405162461bcd60e51b8152600401610a4d90614324565b6110f9612a5a565b611101612ab3565b80600860006111108587612d2d565b815260208101919091526040908101600090812080546001600160a01b0319166001600160a01b0394851617905590518383169285169186917f234e7af08f77827792cc909447f27d2e6a3e2d839b04e26b50b71704a131c8a89190a46110c2612ac2565b6001546001600160a01b0316331461119f5760405162461bcd60e51b8152600401610a4d90614324565b6111a7612a5a565b6111af612ab3565b6007805460ff19168215159081179091556040517f0e2fb031ee032dc02d8011dc50b816eb450cf856abd8261680dac74f72165bd290600090a2610d6d612ac2565b6111f9612a5a565b611201612ab3565b600061120b61161e565b60065490915063ffffffff600160a81b909104811690821611156112715760405162461bcd60e51b815260206004820152601760248201527f5265717565737420706173736564206c6976656e6573730000000000000000006044820152606401610a4d565b600061127b612d6a565b905060115481106112955761128e612e70565b505061159c565b600061129f612f4f565b6011546010549192506112bd916001600160a01b0316908390612ff3565b806001600160a01b031663af355d1e600b5485601060009054906101000a90046001600160a01b03166000876011546112f69190614429565b60125460065460405160e089901b6001600160e01b0319168152600481019790975263ffffffff9586166024880152610120604488015260006101248801526001600160a01b039485166064880152608487019390935260a48601919091529290921660c48401521660e4820152670de0b6b3a7640000610104820152610144016020604051808303816000875af19250505080156113b2575060408051601f3d908101601f191682019092526113af91810190614440565b60015b6113c6576113be612e70565b50505061159c565b6010546113de906001600160a01b03168360006130a5565b5060408051610160810182526006546001600160a01b0390811682526000602083018190526010549091169282019290925260608101829052670de0b6b3a7640000608082015260a0810182905260125460c08201906114449063ffffffff1687614459565b63ffffffff168152602001600081526020018481526020018460115461146a9190614429565b815260125463ffffffff9081166020909201919091526000600281905560038190556004819055600555600680546001600160c81b03191690556011546010549293506114c5926001600160a01b031691339130916131ba16565b6011546010546114e2916001600160a01b03909116908490612ff3565b600b5460405163139c641960e31b81526001600160a01b03841691639ce320c89161151891908890869033903090600401614481565b6020604051808303816000875af1158015611537573d6000803e3d6000fd5b505050506040513d601f19601f8201168201806040525081019061155b9190614440565b5060405163ffffffff8516815233907f15951cb2ef6993bc23a55912e7d0bcac13e4797c432aaa334816aed6914a7a909060200160405180910390a2505050505b6115bb6115a7612f4f565b6010546001600160a01b03169060006130a5565b610a21612ac2565b6000546001600160a01b03166115d857600080fd5b60005460405163117c72b360e11b8152600481018390526001600160a01b03909116906322f8e56690602401600060405180830381600087803b158015610a0757600080fd5b600080546001600160a01b0316156116aa5760008054906101000a90046001600160a01b03166001600160a01b03166329cb924d6040518163ffffffff1660e01b8152600401602060405180830381865afa158015611681573d6000803e3d6000fd5b505050506040513d601f19601f820116820180604052508101906116a59190614440565b905090565b504290565b6116b7612a5a565b6116bf612ab3565b6001600160a01b038082166000818152600d602052604081208054919055600e5490926116ee92911683612cca565b60405181906001600160a01b038416907f74740239d7d696c84422b720e125e1f47c4138c66d1f4d2a48e99f4197cdb79c90600090a350610d6d612ac2565b60006008600061173d8486612d2d565b81526020810191909152604001600020546001600160a01b03169392505050565b6001546001600160a01b031633146117885760405162461bcd60e51b8152600401610a4d90614324565b600654600160a01b900460ff16156117b25760405162461bcd60e51b8152600401610a4d90614359565b6117ba612a5a565b6117c2612ab3565b806000036118125760405162461bcd60e51b815260206004820152601760248201527f626f6e6420657175616c20746f2066696e616c206665650000000000000000006044820152606401610a4d565b6040516302abf57960e61b81527210dbdb1b185d195c985b15da1a5d195b1a5cdd606a1b60048201526000907f00000000000000000000000000000000000000000000000000000000000000006001600160a01b03169063aafd5e4090602401602060405180830381865afa15801561188f573d6000803e3d6000fd5b505050506040513d601f19601f820116820180604052508101906118b39190614390565b604051631d1d5b3960e11b81526001600160a01b03858116600483015291925090821690633a3ab67290602401602060405180830381865afa1580156118fd573d6000803e3d6000fd5b505050506040513d601f19601f8201168201806040525081019061192191906143ad565b6119605760405162461bcd60e51b815260206004820152601060248201526f139bdd081bdb881dda1a5d195b1a5cdd60821b6044820152606401610a4d565b601080546001600160a01b0319166001600160a01b038516179055611983612d6a565b61198d9083614574565b60118190556040519081526001600160a01b038416907fbfa9a96010167e98ce8c004f718932cbbfd33a58d681c752e693be7d457a1b3b9060200160405180910390a250610b6b612ac2565b6119e1612a5a565b6119e9612ab3565b6001600160a01b038216600090815260096020526040902054600160a01b900460ff16611a4c5760405162461bcd60e51b8152602060048201526011602482015270151bdad95b881b9bdd08195b98589b1959607a1b6044820152606401610a4d565b816001600160a01b03167f00000000000000000000000000000000000000000000000000000000000000006001600160a01b0316148015611a8c57508034145b80611a95575034155b611ad15760405162461bcd60e51b815260206004820152600d60248201526c426164206d73672e76616c756560981b6044820152606401610a4d565b6000611adc83612bcf565b611aee83670de0b6b3a76400006143e0565b611af89190614415565b6001600160a01b038416600090815260096020526040812060020180549293508492909190611b28908490614574565b90915550506001600160a01b03838116600090815260096020526040908190205490516340c10f1960e01b8152336004820152602481018490529116906340c10f19906044016020604051808303816000875af1158015611b8d573d6000803e3d6000fd5b505050506040513d601f19601f82011682018060405250810190611bb191906143ad565b50826001600160a01b03167f00000000000000000000000000000000000000000000000000000000000000006001600160a01b0316148015611bf35750600034115b15611c5157826001600160a01b031663d0e30db0346040518263ffffffff1660e01b81526004016000604051808303818588803b158015611c3357600080fd5b505af1158015611c47573d6000803e3d6000fd5b5050505050611c66565b611c666001600160a01b0384163330856131ba565b604080518381526020810183905233916001600160a01b038616917f3c69701a61c79a92ef9692903aaa0068bce8771361ecb09547391e4fb4df8537910160405180910390a350610b6b612ac2565b611cbd612a5a565b611cc5612ab3565b6001546001600160a01b03163314611cef5760405162461bcd60e51b8152600401610a4d90614324565b6040516001600160a01b0383166024820152604481018490528115156064820152611d4890859060840160408051601f198184030181529190526020810180516001600160e01b031663272751c760e01b1790526131f2565b816001600160a01b031683857fb7d00a563842efb2c121a0eb02b7bb7ba1a34625bbc3d65057f1f0dbec0ec2a184604051611d87911515815260200190565b60405180910390a4611d97612ac2565b50505050565b6001546001600160a01b03163314611dc75760405162461bcd60e51b8152600401610a4d90614324565b611dcf612a5a565b611dd7612ab3565b600654600160a01b900460ff1615611e0a57600654601154601054611e0a926001600160a01b0391821692911690612cca565b6006546003546002546004546040519081526001600160a01b03909316927f993cba33f9b140c9ce20ba10d7eda92128d5beb6df856f064916108a11647a739060200160405180910390a46000600281905560038190556004819055600555600680546001600160c81b0319169055610a21612ac2565b6001546001600160a01b03163314611eab5760405162461bcd60e51b8152600401610a4d90614324565b610a2160006132f6565b611ebd612a5a565b611ec5612ab3565b60075460ff1615611f185760405162461bcd60e51b815260206004820181905260248201527f50726f706f73616c2070726f6365737320686173206265656e207061757365646044820152606401610a4d565b600654600160a81b900463ffffffff16611f3061161e565b11611f735760405162461bcd60e51b81526020600482015260136024820152724e6f7420706173736564206c6976656e65737360681b6044820152606401610a4d565b600554600160ff85161b90811603611fbf5760405162461bcd60e51b815260206004820152600f60248201526e105b1c9958591e4818db185a5b5959608a1b6044820152606401610a4d565b6120046002600001546040518060e001604052808b81526020018981526020018881526020018781526020018a81526020018660ff1681526020018581525083613348565b61203c5760405162461bcd60e51b81526020600482015260096024820152682130b210283937b7b360b91b6044820152606401610a4d565b6000806120488a613385565b9150915061205b60026003015486613451565b60055560068054600160a01b900460ff169060146120788361458c565b91906101000a81548160ff021916908360ff1602179055505061209f82828c878b8d613474565b886000036121a157600354600454604051602481019290925260448201526000906001600160a01b03841690839060640160408051601f198184030181529181526020820180516001600160e01b031663124e93e160e21b179052516121099291906024016145a9565b60408051601f198184030181529181526020820180516001600160e01b0316637375c56f60e11b1790525161213e91906145cd565b600060405180830381855af49150503d8060008114612179576040519150601f19603f3d011682016040523d82523d6000602084013e61217e565b606091505b505090508061219f5760405162461bcd60e51b8152600401610a4d906145e9565b505b600654600160a01b900460ff166000036121d6576006546011546010546121d6926001600160a01b0391821692911690612cca565b336001600160a01b03168a8660ff167ff652dd63b1aedbf9e740f3152fb67b0d94d069cf1182811ebd88921850d935678c888d8d8d60405161221c95949392919061468a565b60405180910390a4505061222e612ac2565b5050505050505050565b612240612a5a565b612248612ab3565b600654600160a01b900460ff16156122725760405162461bcd60e51b8152600401610a4d90614359565b60075460ff16156122c55760405162461bcd60e51b815260206004820181905260248201527f50726f706f73616c2070726f6365737320686173206265656e207061757365646044820152606401610a4d565b60008460ff16116123185760405162461bcd60e51b815260206004820181905260248201527f42756e646c65206d7573742068617665206174206c656173742031206c6561666044820152606401610a4d565b60125460009063ffffffff1661232c61161e565b6123369190614459565b60006005556006805460028790556003869055600485905560ff8816600160a01b0263ffffffff808516600160a81b0260ff60a01b19166001600160c81b031990931692909217176001600160a01b031916339081179092556011546010549394506123b0936001600160a01b031692913091906131ba16565b336001600160a01b031683857f50e585dd6361c7cb2613ce2334814bb2a789f5a8ad4b161fe0e248043737d1d284898b886040516123f194939291906146e9565b60405180910390a450610a1b612ac2565b600061240c612a5a565b612414612ab3565b61241f826000612ad7565b9050612429612ac2565b919050565b612436612a5a565b61243e612ab3565b61244781613738565b610d6d612ac2565b6060341561249f5760405162461bcd60e51b815260206004820152601b60248201527f4f6e6c79206d756c746963616c6c207769746820302076616c756500000000006044820152606401610a4d565b8167ffffffffffffffff8111156124b8576124b8613e79565b6040519080825280602002602001820160405280156124eb57816020015b60608152602001906001900390816124d65790505b50905060005b828110156125ee576000803086868581811061250f5761250f614722565b90506020028101906125219190614738565b60405161252f929190614786565b600060405180830381855af49150503d806000811461256a576040519150601f19603f3d011682016040523d82523d6000602084013e61256f565b606091505b5091509150816125bb5760448151101561258857600080fd5b600481019050808060200190518101906125a29190614796565b60405162461bcd60e51b8152600401610a4d9190614804565b808484815181106125ce576125ce614722565b6020026020010181905250505080806125e690614817565b9150506124f1565b5092915050565b6001546001600160a01b0316331461261f5760405162461bcd60e51b8152600401610a4d90614324565b612627612a5a565b61262f612ab3565b6001600160a01b038181166000908152600960205260409020541661274d57604051637e178db760e11b81526001600160a01b0382811660048301527f0000000000000000000000000000000000000000000000000000000000000000169063fc2f1b6e906024016020604051808303816000875af11580156126b6573d6000803e3d6000fd5b505050506040513d601f19601f820116820180604052508101906126da9190614390565b6001600160a01b03828116600090815260096020526040902080546001600160a01b0319169290911691909117905561271161161e565b6001600160a01b0382166000908152600960205260409020805463ffffffff92909216600160a81b0263ffffffff60a81b199092169190911790555b6001600160a01b038181166000818152600960209081526040918290208054600160a01b60ff60a01b198216179091558251938452909316928201929092527f04e291c80180d65a57b5bf1bed775777ec0d6f283ef34bcf130712714d8bb7f79101610e33565b6001546001600160a01b031633146127de5760405162461bcd60e51b8152600401610a4d90614324565b6127e6612a5a565b6127ee612ab3565b6102588163ffffffff161161283a5760405162461bcd60e51b8152602060048201526012602482015271131a5d995b995cdcc81d1bdbc81cda1bdc9d60721b6044820152606401610a4d565b6012805463ffffffff191663ffffffff83169081179091556040519081527f04dd1d84d387f404568a7954b5e398518bdd716e1a8f4a790be9a1a225ad934790602001610e33565b6001546001600160a01b031633146128ac5760405162461bcd60e51b8152600401610a4d90614324565b6128b4612a5a565b6128bc612ab3565b6128c682826131f2565b610b6b612ac2565b60006128d8612a5a565b6128e0612ab3565b61241f82612bcf565b6001546001600160a01b031633146129135760405162461bcd60e51b8152600401610a4d90614324565b61291b612a5a565b612923612ab3565b6040805180820182526001600160a01b03848116808352848216602080850182815260008a8152600a8352879020955186549086166001600160a01b031991821617875590516001909601805496909516951694909417909255835187815292830152918101919091527f36050d958750e6ac3aa674ac7bbe8d0ae6a2f7d4b808e8c2c42c1f22fc9fc4bb9060600160405180910390a16110c2612ac2565b6001546001600160a01b031633146129ec5760405162461bcd60e51b8152600401610a4d90614324565b6001600160a01b038116612a515760405162461bcd60e51b815260206004820152602660248201527f4f776e61626c653a206e6577206f776e657220697320746865207a65726f206160448201526564647265737360d01b6064820152608401610a4d565b610d6d816132f6565b600054600160a01b900460ff16610a215760405162461bcd60e51b815260206004820152601f60248201527f5265656e7472616e637947756172643a207265656e7472616e742063616c6c006044820152606401610a4d565b6000805460ff60a01b19169055565b6000805460ff60a01b1916600160a01b179055565b6000612ae283613738565b6001600160a01b038381166000908152600960209081526040808320815160c08101835281549586168152600160a01b860460ff16151593810193909352600160a81b90940463ffffffff16908201526001830154606082018190526002840154608083015260039093015460a0820152918112612b61576000612b67565b81606001515b90506000612b758286614574565b90506000828460800151612b899190614574565b905080600003612ba757670de0b6b3a7640000945050505050610d96565b80612bba83670de0b6b3a76400006143e0565b612bc49190614415565b979650505050505050565b6001600160a01b038082166000908152600960209081526040808320805482516318160ddd60e01b8152925194959194869491909216926318160ddd92600480830193928290030181865afa158015612c2c573d6000803e3d6000fd5b505050506040513d601f19601f82011682018060405250810190612c509190614440565b905080600003612c6b5750670de0b6b3a76400009392505050565b612c7482613887565b612c7d84613738565b6000826003015483600101548460020154612c989190614830565b612ca29190614871565b905081612cb782670de0b6b3a76400006143e0565b612cc19190614415565b95945050505050565b6040516001600160a01b0383166024820152604481018290526110c290849063a9059cbb60e01b906064015b60408051601f198184030181529190526020810180516001600160e01b03166001600160e01b0319909316929092179091526138ef565b604080516001600160a01b038416602082015290810182905260009060600160405160208183030381529060405280519060200120905092915050565b6040516302abf57960e61b81526453746f726560d81b60048201526000907f00000000000000000000000000000000000000000000000000000000000000006001600160a01b03169063aafd5e4090602401602060405180830381865afa158015612dd9573d6000803e3d6000fd5b505050506040513d601f19601f82011682018060405250810190612dfd9190614390565b601054604051635b97aadd60e01b81526001600160a01b039182166004820152911690635b97aadd90602401602060405180830381865afa158015612e46573d6000803e3d6000fd5b505050506040513d601f19601f82011682018060405250810190612e6a91906148b0565b51919050565b60105460065460115460405163a9059cbb60e01b81526001600160a01b039283166004820152602481019190915291169063a9059cbb906044016020604051808303816000875af1158015612ec9573d6000803e3d6000fd5b505050506040513d601f19601f82011682018060405250810190612eed91906143ad565b506000600281905560038190556004819055600555600680546001600160c81b0319169055337f0cfbbf45ab7f5225663454de7117b1b0ed5a7c133b61f54ccf367dcf8b6d4d59612f3c61161e565b60405190815260200160405180910390a2565b6040516302abf57960e61b815275536b696e6e794f7074696d69737469634f7261636c6560501b60048201526000907f00000000000000000000000000000000000000000000000000000000000000006001600160a01b03169063aafd5e4090602401602060405180830381865afa158015612fcf573d6000803e3d6000fd5b505050506040513d601f19601f820116820180604052508101906116a59190614390565b604051636eb1769f60e11b81523060048201526001600160a01b038381166024830152600091839186169063dd62ed3e90604401602060405180830381865afa158015613044573d6000803e3d6000fd5b505050506040513d601f19601f820116820180604052508101906130689190614440565b6130729190614574565b6040516001600160a01b038516602482015260448101829052909150611d9790859063095ea7b360e01b90606401612cf6565b80158061311f5750604051636eb1769f60e11b81523060048201526001600160a01b03838116602483015284169063dd62ed3e90604401602060405180830381865afa1580156130f9573d6000803e3d6000fd5b505050506040513d601f19601f8201168201806040525081019061311d9190614440565b155b61318a5760405162461bcd60e51b815260206004820152603660248201527f5361666545524332303a20617070726f76652066726f6d206e6f6e2d7a65726f60448201527520746f206e6f6e2d7a65726f20616c6c6f77616e636560501b6064820152608401610a4d565b6040516001600160a01b0383166024820152604481018290526110c290849063095ea7b360e01b90606401612cf6565b6040516001600160a01b0380851660248301528316604482015260648101829052611d979085906323b872dd60e01b90608401612cf6565b6000806131fe84613385565b915091506000826001600160a01b031682856040516024016132219291906145a9565b60408051601f198184030181529181526020820180516001600160e01b0316637375c56f60e11b1790525161325691906145cd565b600060405180830381855af49150503d8060008114613291576040519150601f19603f3d011682016040523d82523d6000602084013e613296565b606091505b50509050806132b75760405162461bcd60e51b8152600401610a4d906145e9565b847f218987b934c2f6bc596136829fbf43a5fef4d6fafce41f3f6254d9a870c2deec856040516132e79190614804565b60405180910390a25050505050565b600180546001600160a01b038381166001600160a01b0319831681179093556040519116919082907f8be0079c531659141344cd1fd0a4f28419497f9722a3daafe3b4186f6b6457e090600090a35050565b600061337b82858560405160200161336091906148f2565b604051602081830303815290604052805190602001206139c1565b90505b9392505050565b6000818152600a6020526040902080546001909101546001600160a01b039182169116806133f55760405162461bcd60e51b815260206004820152601960248201527f53706f6b65506f6f6c206e6f7420696e697469616c697a6564000000000000006044820152606401610a4d565b6001600160a01b0382163b61344c5760405162461bcd60e51b815260206004820152601760248201527f41646170746572206e6f7420696e697469616c697a65640000000000000000006044820152606401610a4d565b915091565b600061346261010060ff8416614989565b61ffff166001901b8317905092915050565b60005b83518163ffffffff16101561372f576000848263ffffffff16815181106134a0576134a0614722565b602002602001015190506000600860006134ba848a612d2d565b81526020810191909152604001600020546001600160a01b031690508061351b5760405162461bcd60e51b8152602060048201526015602482015274149bdd5d19481b9bdd081dda1a5d195b1a5cdd1959605a1b6044820152606401610a4d565b6000858463ffffffff168151811061353557613535614722565b602002602001015113156136f1576000896001600160a01b03168383888763ffffffff168151811061356957613569614722565b60209081029190910101516040516001600160a01b03938416602482015291831660448301526064820152908b16608482015260a40160408051601f198184030181529181526020820180516001600160e01b03166314b231d760e21b179052516135d491906145cd565b600060405180830381855af49150503d806000811461360f576040519150601f19603f3d011682016040523d82523d6000602084013e613614565b606091505b50509050806136355760405162461bcd60e51b8152600401610a4d906145e9565b858463ffffffff168151811061364d5761364d614722565b602002602001015160096000856001600160a01b03166001600160a01b03168152602001908152602001600020600101600082825461368c9190614830565b92505081905550858463ffffffff16815181106136ab576136ab614722565b602002602001015160096000856001600160a01b03166001600160a01b0316815260200190815260200160002060020160008282546136ea9190614429565b9091555050505b61371a82858563ffffffff168151811061370d5761370d614722565b60200260200101516139d7565b50508080613727906149aa565b915050613477565b50505050505050565b6040516370a0823160e01b81523060048201526000906001600160a01b038316906370a0823190602401602060405180830381865afa15801561377f573d6000803e3d6000fd5b505050506040513d601f19601f820116820180604052508101906137a39190614440565b6010549091506000906001600160a01b0384811691161480156137d15750600654600160a01b900460ff1615155b6137db57816137e8565b6011546137e89083614429565b6001600160a01b0384166000908152600960205260409020600201549091508111156110c2576001600160a01b0383166000908152600960205260409020600201546138349082614429565b6001600160a01b0384166000908152600960205260408120600101805490919061385f908490614871565b90915550506001600160a01b0383166000908152600960205260409020600201819055505050565b600381015481546000916138a791600160a81b900463ffffffff16613aaa565b9050808260030160008282546138bd9190614429565b909155506138cb905061161e565b825463ffffffff91909116600160a81b0263ffffffff60a81b199091161790915550565b6000613944826040518060400160405280602081526020017f5361666545524332303a206c6f772d6c6576656c2063616c6c206661696c6564815250856001600160a01b0316613b079092919063ffffffff16565b8051909150156110c2578080602001905181019061396291906143ad565b6110c25760405162461bcd60e51b815260206004820152602a60248201527f5361666545524332303a204552433230206f7065726174696f6e20646964206e6044820152691bdd081cdd58d8d9595960b21b6064820152608401610a4d565b6000826139ce8584613b16565b14949350505050565b6000670de0b6b3a7640000600f54836139f091906143e0565b6139fa9190614415565b90506000613a088284614429565b90508015613a71576001600160a01b03841660009081526009602052604081206003018054839290613a3b908490614574565b90915550506001600160a01b03841660009081526009602052604081206001018054839290613a6b908490614830565b90915550505b8115611d97576001600160a01b0384166000908152600d602052604081208054849290613a9f908490614574565b909155505050505050565b60008082613ab661161e565b613ac09190614429565b90506000670de0b6b3a764000082600c5487613adc91906143e0565b613ae691906143e0565b613af09190614415565b9050848110613aff5784612cc1565b949350505050565b606061337b8484600085613b8a565b600081815b8451811015613b82576000858281518110613b3857613b38614722565b60200260200101519050808311613b5e5760008381526020829052604090209250613b6f565b600081815260208490526040902092505b5080613b7a81614817565b915050613b1b565b509392505050565b606082471015613beb5760405162461bcd60e51b815260206004820152602660248201527f416464726573733a20696e73756666696369656e742062616c616e636520666f6044820152651c8818d85b1b60d21b6064820152608401610a4d565b6001600160a01b0385163b613c425760405162461bcd60e51b815260206004820152601d60248201527f416464726573733a2063616c6c20746f206e6f6e2d636f6e74726163740000006044820152606401610a4d565b600080866001600160a01b03168587604051613c5e91906145cd565b60006040518083038185875af1925050503d8060008114613c9b576040519150601f19603f3d011682016040523d82523d6000602084013e613ca0565b606091505b5091509150612bc482828660608315613cba57508161337e565b825115613cca5782518084602001fd5b8160405162461bcd60e51b8152600401610a4d9190614804565b6001600160a01b0381168114610d6d57600080fd5b60008060408385031215613d0c57600080fd5b8235613d1781613ce4565b946020939093013593505050565b600060208284031215613d3757600080fd5b5035919050565b600060208284031215613d5057600080fd5b813561337e81613ce4565b8015158114610d6d57600080fd5b600080600060608486031215613d7e57600080fd5b8335613d8981613ce4565b9250602084013591506040840135613da081613d5b565b809150509250925092565b600080600060608486031215613dc057600080fd5b833592506020840135613dd281613ce4565b91506040840135613da081613ce4565b600060208284031215613df457600080fd5b813561337e81613d5b565b60008060408385031215613e1257600080fd5b823591506020830135613e2481613ce4565b809150509250929050565b60008060008060808587031215613e4557600080fd5b84359350602085013592506040850135613e5e81613ce4565b91506060850135613e6e81613d5b565b939692955090935050565b634e487b7160e01b600052604160045260246000fd5b604051601f8201601f1916810167ffffffffffffffff81118282101715613eb857613eb8613e79565b604052919050565b600067ffffffffffffffff821115613eda57613eda613e79565b5060051b60200190565b600082601f830112613ef557600080fd5b81356020613f0a613f0583613ec0565b613e8f565b82815260059290921b84018101918181019086841115613f2957600080fd5b8286015b84811015613f445780358352918301918301613f2d565b509695505050505050565b803560ff8116811461242957600080fd5b600082601f830112613f7157600080fd5b81356020613f81613f0583613ec0565b82815260059290921b84018101918181019086841115613fa057600080fd5b8286015b84811015613f44578035613fb781613ce4565b8352918301918301613fa4565b600080600080600080600080610100898b031215613fe157600080fd5b8835975060208901359650604089013567ffffffffffffffff8082111561400757600080fd5b6140138c838d01613ee4565b975060608b013591508082111561402957600080fd5b6140358c838d01613ee4565b965060808b013591508082111561404b57600080fd5b6140578c838d01613ee4565b955061406560a08c01613f4f565b945060c08b013591508082111561407b57600080fd5b6140878c838d01613f60565b935060e08b013591508082111561409d57600080fd5b506140aa8b828c01613ee4565b9150509295985092959890939650565b600080600080600060a086880312156140d257600080fd5b853567ffffffffffffffff8111156140e957600080fd5b6140f588828901613ee4565b95505061410460208701613f4f565b94979496505050506040830135926060810135926080909101359150565b6000806020838503121561413557600080fd5b823567ffffffffffffffff8082111561414d57600080fd5b818501915085601f83011261416157600080fd5b81358181111561417057600080fd5b8660208260051b850101111561418557600080fd5b60209290920196919550909350505050565b60005b838110156141b257818101518382015260200161419a565b83811115611d975750506000910152565b600081518084526141db816020860160208601614197565b601f01601f19169290920160200192915050565b6000602080830181845280855180835260408601915060408160051b870101925083870160005b8281101561424457603f198886030184526142328583516141c3565b94509285019290850190600101614216565b5092979650505050505050565b60006020828403121561426357600080fd5b813563ffffffff8116811461337e57600080fd5b600067ffffffffffffffff82111561429157614291613e79565b50601f01601f191660200190565b600080604083850312156142b257600080fd5b82359150602083013567ffffffffffffffff8111156142d057600080fd5b8301601f810185136142e157600080fd5b80356142ef613f0582614277565b81815286602083850101111561430457600080fd5b816020840160208301376000602083830101528093505050509250929050565b6020808252818101527f4f776e61626c653a2063616c6c6572206973206e6f7420746865206f776e6572604082015260600190565b6020808252601d908201527f50726f706f73616c2068617320756e636c61696d6564206c6561766573000000604082015260600190565b6000602082840312156143a257600080fd5b815161337e81613ce4565b6000602082840312156143bf57600080fd5b815161337e81613d5b565b634e487b7160e01b600052601160045260246000fd5b60008160001904831182151516156143fa576143fa6143ca565b500290565b634e487b7160e01b600052601260045260246000fd5b600082614424576144246143ff565b500490565b60008282101561443b5761443b6143ca565b500390565b60006020828403121561445257600080fd5b5051919050565b600063ffffffff808316818516808303821115614478576144786143ca565b01949350505050565b85815263ffffffff851660208201526102006040820181905260009082015283516001600160a01b03166060820152610220810160208501516001600160a01b03811660808401525060408501516001600160a01b03811660a084015250606085015180151560c084015250608085015160e083015260a0850151610100818185015260c08701519150610120828186015260e0880151925061014083818701528289015161016087015281890151610180870152808901516101a08701525050505061455a6101c08301856001600160a01b03169052565b6001600160a01b0383166101e08301529695505050505050565b60008219821115614587576145876143ca565b500190565b600060ff82168061459f5761459f6143ca565b6000190192915050565b6001600160a01b038316815260406020820181905260009061337b908301846141c3565b600082516145df818460208701614197565b9190910192915050565b60208082526013908201527219195b1959d85d1958d85b1b0819985a5b1959606a1b604082015260600190565b600081518084526020808501945080840160005b8381101561464f5781516001600160a01b03168752958201959082019060010161462a565b509495945050505050565b600081518084526020808501945080840160005b8381101561464f5781518752958201959082019060010161466e565b85815260a0602082015260006146a360a0830187614616565b82810360408401526146b5818761465a565b905082810360608401526146c9818661465a565b905082810360808401526146dd818561465a565b98975050505050505050565b63ffffffff8516815260ff84166020820152608060408201526000614711608083018561465a565b905082606083015295945050505050565b634e487b7160e01b600052603260045260246000fd5b6000808335601e1984360301811261474f57600080fd5b83018035915067ffffffffffffffff82111561476a57600080fd5b60200191503681900382131561477f57600080fd5b9250929050565b8183823760009101908152919050565b6000602082840312156147a857600080fd5b815167ffffffffffffffff8111156147bf57600080fd5b8201601f810184136147d057600080fd5b80516147de613f0582614277565b8181528560208385010111156147f357600080fd5b612cc1826020830160208601614197565b60208152600061337e60208301846141c3565b600060018201614829576148296143ca565b5060010190565b600080821280156001600160ff1b0384900385131615614852576148526143ca565b600160ff1b839003841281161561486b5761486b6143ca565b50500190565b60008083128015600160ff1b85018412161561488f5761488f6143ca565b6001600160ff1b03840183138116156148aa576148aa6143ca565b50500390565b6000602082840312156148c257600080fd5b6040516020810181811067ffffffffffffffff821117156148e5576148e5613e79565b6040529151825250919050565b60208152815160208201526000602083015160e0604084015261491961010084018261465a565b90506040840151601f1980858403016060860152614937838361465a565b92506060860151915080858403016080860152614954838361465a565b9250608086015160a086015260ff60a08701511660c086015260c08601519150808584030160e086015250612cc18282614616565b600061ffff8084168061499e5761499e6143ff565b92169190910692915050565b600063ffffffff8083168181036149c3576149c36143ca565b600101939250505056fea2646970667358221220c0f77367fbe7680ae33ec5e4f8cd016f3ab7286f7ccd46b4b1294ff178ce5ac664736f6c634300080d0033",
  "libraries": {
    "MerkleLib": "0x0668ab3839346ebf95d969b3e18B2a96b1CC2b02"
  }
}