{
  "address": "0xd08baaE74D6d2eAb1F3320B2E1a53eeb391ce8e5",
  "abi": [
    {
      "inputs": [
        {
          "internalType": "address",
          "name": "_wrappedNativeTokenAddress",
          "type": "address"
        },
        {
          "internalType": "uint32",
          "name": "_depositQuoteTimeBuffer",
          "type": "uint32"
        },
        {
          "internalType": "uint32",
          "name": "_fillDeadlineBuffer",
          "type": "uint32"
        },
        {
          "internalType": "contract IERC20",
          "name": "_l2Usdc",
          "type": "address"
        },
        {
          "internalType": "contract ITokenMessenger",
          "name": "_cctpTokenMessenger",
          "type": "address"
        }
      ],
      "stateMutability": "nonpayable",
      "type": "constructor"
    },
    {
      "inputs": [],
      "name": "CallValidatedAlreadySet",
      "type": "error"
    },
    {
      "inputs": [],
      "name": "CallValidatedNotSet",
      "type": "error"
    },
    {
      "inputs": [],
      "name": "ClaimedMerkleLeaf",
      "type": "error"
    },
    {
      "inputs": [],
      "name": "DelegateCallFailed",
      "type": "error"
    },
    {
      "inputs": [],
      "name": "DepositsArePaused",
      "type": "error"
    },
    {
      "inputs": [],
      "name": "DisabledRoute",
      "type": "error"
    },
    {
      "inputs": [],
      "name": "ExpiredFillDeadline",
      "type": "error"
    },
    {
      "inputs": [],
      "name": "FillsArePaused",
      "type": "error"
    },
    {
      "inputs": [],
      "name": "InvalidChainId",
      "type": "error"
    },
    {
      "inputs": [],
      "name": "InvalidCrossDomainAdmin",
      "type": "error"
    },
    {
      "inputs": [],
      "name": "InvalidDepositorSignature",
      "type": "error"
    },
    {
      "inputs": [],
      "name": "InvalidExclusiveRelayer",
      "type": "error"
    },
    {
      "inputs": [],
      "name": "InvalidExclusivityDeadline",
      "type": "error"
    },
    {
      "inputs": [],
      "name": "InvalidFillDeadline",
      "type": "error"
    },
    {
      "inputs": [],
      "name": "InvalidHubPool",
      "type": "error"
    },
    {
      "inputs": [],
      "name": "InvalidMerkleLeaf",
      "type": "error"
    },
    {
      "inputs": [],
      "name": "InvalidMerkleProof",
      "type": "error"
    },
    {
      "inputs": [],
      "name": "InvalidPayoutAdjustmentPct",
      "type": "error"
    },
    {
      "inputs": [],
      "name": "InvalidQuoteTimestamp",
      "type": "error"
    },
    {
      "inputs": [],
      "name": "InvalidRelayerFeePct",
      "type": "error"
    },
    {
      "inputs": [],
      "name": "InvalidSlowFillRequest",
      "type": "error"
    },
    {
      "inputs": [],
      "name": "MaxTransferSizeExceeded",
      "type": "error"
    },
    {
      "inputs": [],
      "name": "MsgValueDoesNotMatchInputAmount",
      "type": "error"
    },
    {
      "inputs": [],
      "name": "MulticallExecuteLeaf",
      "type": "error"
    },
    {
      "inputs": [],
      "name": "NoSlowFillsInExclusivityWindow",
      "type": "error"
    },
    {
      "inputs": [],
      "name": "NotEOA",
      "type": "error"
    },
    {
      "inputs": [],
      "name": "NotExclusiveRelayer",
      "type": "error"
    },
    {
      "inputs": [],
      "name": "NotFxChild",
      "type": "error"
    },
    {
      "inputs": [],
      "name": "NotHubPool",
      "type": "error"
    },
    {
      "inputs": [],
      "name": "RelayFilled",
      "type": "error"
    },
    {
      "anonymous": false,
      "inputs": [
        {
          "indexed": false,
          "internalType": "address",
          "name": "previousAdmin",
          "type": "address"
        },
        {
          "indexed": false,
          "internalType": "address",
          "name": "newAdmin",
          "type": "address"
        }
      ],
      "name": "AdminChanged",
      "type": "event"
    },
    {
      "anonymous": false,
      "inputs": [
        {
          "indexed": true,
          "internalType": "address",
          "name": "beacon",
          "type": "address"
        }
      ],
      "name": "BeaconUpgraded",
      "type": "event"
    },
    {
      "anonymous": false,
      "inputs": [
        {
          "indexed": true,
          "internalType": "uint256",
          "name": "rootBundleId",
          "type": "uint256"
        }
      ],
      "name": "EmergencyDeleteRootBundle",
      "type": "event"
    },
    {
      "anonymous": false,
      "inputs": [
        {
          "indexed": true,
          "internalType": "address",
          "name": "originToken",
          "type": "address"
        },
        {
          "indexed": true,
          "internalType": "uint256",
          "name": "destinationChainId",
          "type": "uint256"
        },
        {
          "indexed": false,
          "internalType": "bool",
          "name": "enabled",
          "type": "bool"
        }
      ],
      "name": "EnabledDepositRoute",
      "type": "event"
    },
    {
      "anonymous": false,
      "inputs": [
        {
          "indexed": false,
          "internalType": "uint256",
          "name": "amountToReturn",
          "type": "uint256"
        },
        {
          "indexed": true,
          "internalType": "uint256",
          "name": "chainId",
          "type": "uint256"
        },
        {
          "indexed": false,
          "internalType": "uint256[]",
          "name": "refundAmounts",
          "type": "uint256[]"
        },
        {
          "indexed": true,
          "internalType": "uint32",
          "name": "rootBundleId",
          "type": "uint32"
        },
        {
          "indexed": true,
          "internalType": "uint32",
          "name": "leafId",
          "type": "uint32"
        },
        {
          "indexed": false,
          "internalType": "address",
          "name": "l2TokenAddress",
          "type": "address"
        },
        {
          "indexed": false,
          "internalType": "address[]",
          "name": "refundAddresses",
          "type": "address[]"
        },
        {
          "indexed": false,
          "internalType": "address",
          "name": "caller",
          "type": "address"
        }
      ],
      "name": "ExecutedRelayerRefundRoot",
      "type": "event"
    },
    {
      "anonymous": false,
      "inputs": [
        {
          "indexed": false,
          "internalType": "uint256",
          "name": "amount",
          "type": "uint256"
        },
        {
          "indexed": false,
          "internalType": "uint256",
          "name": "totalFilledAmount",
          "type": "uint256"
        },
        {
          "indexed": false,
          "internalType": "uint256",
          "name": "fillAmount",
          "type": "uint256"
        },
        {
          "indexed": false,
          "internalType": "uint256",
          "name": "repaymentChainId",
          "type": "uint256"
        },
        {
          "indexed": true,
          "internalType": "uint256",
          "name": "originChainId",
          "type": "uint256"
        },
        {
          "indexed": false,
          "internalType": "uint256",
          "name": "destinationChainId",
          "type": "uint256"
        },
        {
          "indexed": false,
          "internalType": "int64",
          "name": "relayerFeePct",
          "type": "int64"
        },
        {
          "indexed": false,
          "internalType": "int64",
          "name": "realizedLpFeePct",
          "type": "int64"
        },
        {
          "indexed": true,
          "internalType": "uint32",
          "name": "depositId",
          "type": "uint32"
        },
        {
          "indexed": false,
          "internalType": "address",
          "name": "destinationToken",
          "type": "address"
        },
        {
          "indexed": false,
          "internalType": "address",
          "name": "relayer",
          "type": "address"
        },
        {
          "indexed": true,
          "internalType": "address",
          "name": "depositor",
          "type": "address"
        },
        {
          "indexed": false,
          "internalType": "address",
          "name": "recipient",
          "type": "address"
        },
        {
          "indexed": false,
          "internalType": "bytes",
          "name": "message",
          "type": "bytes"
        },
        {
          "components": [
            {
              "internalType": "address",
              "name": "recipient",
              "type": "address"
            },
            {
              "internalType": "bytes",
              "name": "message",
              "type": "bytes"
            },
            {
              "internalType": "int64",
              "name": "relayerFeePct",
              "type": "int64"
            },
            {
              "internalType": "bool",
              "name": "isSlowRelay",
              "type": "bool"
            },
            {
              "internalType": "int256",
              "name": "payoutAdjustmentPct",
              "type": "int256"
            }
          ],
          "indexed": false,
          "internalType": "struct SpokePool.RelayExecutionInfo",
          "name": "updatableRelayData",
          "type": "tuple"
        }
      ],
      "name": "FilledRelay",
      "type": "event"
    },
    {
      "anonymous": false,
      "inputs": [
        {
          "indexed": false,
          "internalType": "address",
          "name": "inputToken",
          "type": "address"
        },
        {
          "indexed": false,
          "internalType": "address",
          "name": "outputToken",
          "type": "address"
        },
        {
          "indexed": false,
          "internalType": "uint256",
          "name": "inputAmount",
          "type": "uint256"
        },
        {
          "indexed": false,
          "internalType": "uint256",
          "name": "outputAmount",
          "type": "uint256"
        },
        {
          "indexed": false,
          "internalType": "uint256",
          "name": "repaymentChainId",
          "type": "uint256"
        },
        {
          "indexed": true,
          "internalType": "uint256",
          "name": "originChainId",
          "type": "uint256"
        },
        {
          "indexed": true,
          "internalType": "uint32",
          "name": "depositId",
          "type": "uint32"
        },
        {
          "indexed": false,
          "internalType": "uint32",
          "name": "fillDeadline",
          "type": "uint32"
        },
        {
          "indexed": false,
          "internalType": "uint32",
          "name": "exclusivityDeadline",
          "type": "uint32"
        },
        {
          "indexed": false,
          "internalType": "address",
          "name": "exclusiveRelayer",
          "type": "address"
        },
        {
          "indexed": true,
          "internalType": "address",
          "name": "relayer",
          "type": "address"
        },
        {
          "indexed": false,
          "internalType": "address",
          "name": "depositor",
          "type": "address"
        },
        {
          "indexed": false,
          "internalType": "address",
          "name": "recipient",
          "type": "address"
        },
        {
          "indexed": false,
          "internalType": "bytes",
          "name": "message",
          "type": "bytes"
        },
        {
          "components": [
            {
              "internalType": "address",
              "name": "updatedRecipient",
              "type": "address"
            },
            {
              "internalType": "bytes",
              "name": "updatedMessage",
              "type": "bytes"
            },
            {
              "internalType": "uint256",
              "name": "updatedOutputAmount",
              "type": "uint256"
            },
            {
              "internalType": "enum V3SpokePoolInterface.FillType",
              "name": "fillType",
              "type": "uint8"
            }
          ],
          "indexed": false,
          "internalType": "struct V3SpokePoolInterface.V3RelayExecutionEventInfo",
          "name": "relayExecutionInfo",
          "type": "tuple"
        }
      ],
      "name": "FilledV3Relay",
      "type": "event"
    },
    {
      "anonymous": false,
      "inputs": [
        {
          "indexed": false,
          "internalType": "uint256",
          "name": "amount",
          "type": "uint256"
        },
        {
          "indexed": false,
          "internalType": "uint256",
          "name": "originChainId",
          "type": "uint256"
        },
        {
          "indexed": true,
          "internalType": "uint256",
          "name": "destinationChainId",
          "type": "uint256"
        },
        {
          "indexed": false,
          "internalType": "int64",
          "name": "relayerFeePct",
          "type": "int64"
        },
        {
          "indexed": true,
          "internalType": "uint32",
          "name": "depositId",
          "type": "uint32"
        },
        {
          "indexed": false,
          "internalType": "uint32",
          "name": "quoteTimestamp",
          "type": "uint32"
        },
        {
          "indexed": false,
          "internalType": "address",
          "name": "originToken",
          "type": "address"
        },
        {
          "indexed": false,
          "internalType": "address",
          "name": "recipient",
          "type": "address"
        },
        {
          "indexed": true,
          "internalType": "address",
          "name": "depositor",
          "type": "address"
        },
        {
          "indexed": false,
          "internalType": "bytes",
          "name": "message",
          "type": "bytes"
        }
      ],
      "name": "FundsDeposited",
      "type": "event"
    },
    {
      "anonymous": false,
      "inputs": [
        {
          "indexed": false,
          "internalType": "uint8",
          "name": "version",
          "type": "uint8"
        }
      ],
      "name": "Initialized",
      "type": "event"
    },
    {
      "anonymous": false,
      "inputs": [
        {
          "indexed": false,
          "internalType": "bool",
          "name": "isPaused",
          "type": "bool"
        }
      ],
      "name": "PausedDeposits",
      "type": "event"
    },
    {
      "anonymous": false,
      "inputs": [
        {
          "indexed": false,
          "internalType": "bool",
          "name": "isPaused",
          "type": "bool"
        }
      ],
      "name": "PausedFills",
      "type": "event"
    },
    {
      "anonymous": false,
      "inputs": [
        {
          "indexed": true,
          "internalType": "address",
          "name": "caller",
          "type": "address"
        },
        {
          "indexed": true,
          "internalType": "address",
          "name": "rootMessageSender",
          "type": "address"
        }
      ],
      "name": "ReceivedMessageFromL1",
      "type": "event"
    },
    {
      "anonymous": false,
      "inputs": [
        {
          "indexed": true,
          "internalType": "uint32",
          "name": "rootBundleId",
          "type": "uint32"
        },
        {
          "indexed": true,
          "internalType": "bytes32",
          "name": "relayerRefundRoot",
          "type": "bytes32"
        },
        {
          "indexed": true,
          "internalType": "bytes32",
          "name": "slowRelayRoot",
          "type": "bytes32"
        }
      ],
      "name": "RelayedRootBundle",
      "type": "event"
    },
    {
      "anonymous": false,
      "inputs": [
        {
          "indexed": false,
          "internalType": "int64",
          "name": "newRelayerFeePct",
          "type": "int64"
        },
        {
          "indexed": true,
          "internalType": "uint32",
          "name": "depositId",
          "type": "uint32"
        },
        {
          "indexed": true,
          "internalType": "address",
          "name": "depositor",
          "type": "address"
        },
        {
          "indexed": false,
          "internalType": "address",
          "name": "updatedRecipient",
          "type": "address"
        },
        {
          "indexed": false,
          "internalType": "bytes",
          "name": "updatedMessage",
          "type": "bytes"
        },
        {
          "indexed": false,
          "internalType": "bytes",
          "name": "depositorSignature",
          "type": "bytes"
        }
      ],
      "name": "RequestedSpeedUpDeposit",
      "type": "event"
    },
    {
      "anonymous": false,
      "inputs": [
        {
          "indexed": false,
          "internalType": "uint256",
          "name": "updatedOutputAmount",
          "type": "uint256"
        },
        {
          "indexed": true,
          "internalType": "uint32",
          "name": "depositId",
          "type": "uint32"
        },
        {
          "indexed": true,
          "internalType": "address",
          "name": "depositor",
          "type": "address"
        },
        {
          "indexed": false,
          "internalType": "address",
          "name": "updatedRecipient",
          "type": "address"
        },
        {
          "indexed": false,
          "internalType": "bytes",
          "name": "updatedMessage",
          "type": "bytes"
        },
        {
          "indexed": false,
          "internalType": "bytes",
          "name": "depositorSignature",
          "type": "bytes"
        }
      ],
      "name": "RequestedSpeedUpV3Deposit",
      "type": "event"
    },
    {
      "anonymous": false,
      "inputs": [
        {
          "indexed": false,
          "internalType": "address",
          "name": "inputToken",
          "type": "address"
        },
        {
          "indexed": false,
          "internalType": "address",
          "name": "outputToken",
          "type": "address"
        },
        {
          "indexed": false,
          "internalType": "uint256",
          "name": "inputAmount",
          "type": "uint256"
        },
        {
          "indexed": false,
          "internalType": "uint256",
          "name": "outputAmount",
          "type": "uint256"
        },
        {
          "indexed": true,
          "internalType": "uint256",
          "name": "originChainId",
          "type": "uint256"
        },
        {
          "indexed": true,
          "internalType": "uint32",
          "name": "depositId",
          "type": "uint32"
        },
        {
          "indexed": false,
          "internalType": "uint32",
          "name": "fillDeadline",
          "type": "uint32"
        },
        {
          "indexed": false,
          "internalType": "uint32",
          "name": "exclusivityDeadline",
          "type": "uint32"
        },
        {
          "indexed": false,
          "internalType": "address",
          "name": "exclusiveRelayer",
          "type": "address"
        },
        {
          "indexed": false,
          "internalType": "address",
          "name": "depositor",
          "type": "address"
        },
        {
          "indexed": false,
          "internalType": "address",
          "name": "recipient",
          "type": "address"
        },
        {
          "indexed": false,
          "internalType": "bytes",
          "name": "message",
          "type": "bytes"
        }
      ],
      "name": "RequestedV3SlowFill",
      "type": "event"
    },
    {
      "anonymous": false,
      "inputs": [
        {
          "indexed": true,
          "internalType": "address",
          "name": "newFxChild",
          "type": "address"
        }
      ],
      "name": "SetFxChild",
      "type": "event"
    },
    {
      "anonymous": false,
      "inputs": [
        {
          "indexed": true,
          "internalType": "address",
          "name": "newHubPool",
          "type": "address"
        }
      ],
      "name": "SetHubPool",
      "type": "event"
    },
    {
      "anonymous": false,
      "inputs": [
        {
          "indexed": true,
          "internalType": "address",
          "name": "polygonTokenBridger",
          "type": "address"
        }
      ],
      "name": "SetPolygonTokenBridger",
      "type": "event"
    },
    {
      "anonymous": false,
      "inputs": [
        {
          "indexed": true,
          "internalType": "address",
          "name": "newAdmin",
          "type": "address"
        }
      ],
      "name": "SetXDomainAdmin",
      "type": "event"
    },
    {
      "anonymous": false,
      "inputs": [
        {
          "indexed": false,
          "internalType": "uint256",
          "name": "amountToReturn",
          "type": "uint256"
        },
        {
          "indexed": true,
          "internalType": "uint256",
          "name": "chainId",
          "type": "uint256"
        },
        {
          "indexed": true,
          "internalType": "uint32",
          "name": "leafId",
          "type": "uint32"
        },
        {
          "indexed": true,
          "internalType": "address",
          "name": "l2TokenAddress",
          "type": "address"
        },
        {
          "indexed": false,
          "internalType": "address",
          "name": "caller",
          "type": "address"
        }
      ],
      "name": "TokensBridged",
      "type": "event"
    },
    {
      "anonymous": false,
      "inputs": [
        {
          "indexed": true,
          "internalType": "address",
          "name": "implementation",
          "type": "address"
        }
      ],
      "name": "Upgraded",
      "type": "event"
    },
    {
      "anonymous": false,
      "inputs": [
        {
          "indexed": false,
          "internalType": "address",
          "name": "inputToken",
          "type": "address"
        },
        {
          "indexed": false,
          "internalType": "address",
          "name": "outputToken",
          "type": "address"
        },
        {
          "indexed": false,
          "internalType": "uint256",
          "name": "inputAmount",
          "type": "uint256"
        },
        {
          "indexed": false,
          "internalType": "uint256",
          "name": "outputAmount",
          "type": "uint256"
        },
        {
          "indexed": true,
          "internalType": "uint256",
          "name": "destinationChainId",
          "type": "uint256"
        },
        {
          "indexed": true,
          "internalType": "uint32",
          "name": "depositId",
          "type": "uint32"
        },
        {
          "indexed": false,
          "internalType": "uint32",
          "name": "quoteTimestamp",
          "type": "uint32"
        },
        {
          "indexed": false,
          "internalType": "uint32",
          "name": "fillDeadline",
          "type": "uint32"
        },
        {
          "indexed": false,
          "internalType": "uint32",
          "name": "exclusivityDeadline",
          "type": "uint32"
        },
        {
          "indexed": true,
          "internalType": "address",
          "name": "depositor",
          "type": "address"
        },
        {
          "indexed": false,
          "internalType": "address",
          "name": "recipient",
          "type": "address"
        },
        {
          "indexed": false,
          "internalType": "address",
          "name": "exclusiveRelayer",
          "type": "address"
        },
        {
          "indexed": false,
          "internalType": "bytes",
          "name": "message",
          "type": "bytes"
        }
      ],
      "name": "V3FundsDeposited",
      "type": "event"
    },
    {
      "inputs": [],
      "name": "EMPTY_RELAYER",
      "outputs": [
        {
          "internalType": "address",
          "name": "",
          "type": "address"
        }
      ],
      "stateMutability": "view",
      "type": "function"
    },
    {
      "inputs": [],
      "name": "EMPTY_REPAYMENT_CHAIN_ID",
      "outputs": [
        {
          "internalType": "uint256",
          "name": "",
          "type": "uint256"
        }
      ],
      "stateMutability": "view",
      "type": "function"
    },
    {
      "inputs": [],
      "name": "INFINITE_FILL_DEADLINE",
      "outputs": [
        {
          "internalType": "uint32",
          "name": "",
          "type": "uint32"
        }
      ],
      "stateMutability": "view",
      "type": "function"
    },
    {
      "inputs": [],
      "name": "MAX_TRANSFER_SIZE",
      "outputs": [
        {
          "internalType": "uint256",
          "name": "",
          "type": "uint256"
        }
      ],
      "stateMutability": "view",
      "type": "function"
    },
    {
      "inputs": [],
      "name": "UPDATE_V3_DEPOSIT_DETAILS_HASH",
      "outputs": [
        {
          "internalType": "bytes32",
          "name": "",
          "type": "bytes32"
        }
      ],
      "stateMutability": "view",
      "type": "function"
    },
    {
      "inputs": [
        {
          "internalType": "uint32",
          "name": "_initialDepositId",
          "type": "uint32"
        },
        {
          "internalType": "address",
          "name": "_crossDomainAdmin",
          "type": "address"
        },
        {
          "internalType": "address",
          "name": "_hubPool",
          "type": "address"
        }
      ],
      "name": "__SpokePool_init",
      "outputs": [],
      "stateMutability": "nonpayable",
      "type": "function"
    },
    {
      "inputs": [],
      "name": "cctpTokenMessenger",
      "outputs": [
        {
          "internalType": "contract ITokenMessenger",
          "name": "",
          "type": "address"
        }
      ],
      "stateMutability": "view",
      "type": "function"
    },
    {
      "inputs": [],
      "name": "chainId",
      "outputs": [
        {
          "internalType": "uint256",
          "name": "",
          "type": "uint256"
        }
      ],
      "stateMutability": "view",
      "type": "function"
    },
    {
      "inputs": [],
      "name": "crossDomainAdmin",
      "outputs": [
        {
          "internalType": "address",
          "name": "",
          "type": "address"
        }
      ],
      "stateMutability": "view",
      "type": "function"
    },
    {
      "inputs": [
        {
          "internalType": "address",
          "name": "recipient",
          "type": "address"
        },
        {
          "internalType": "address",
          "name": "originToken",
          "type": "address"
        },
        {
          "internalType": "uint256",
          "name": "amount",
          "type": "uint256"
        },
        {
          "internalType": "uint256",
          "name": "destinationChainId",
          "type": "uint256"
        },
        {
          "internalType": "int64",
          "name": "relayerFeePct",
          "type": "int64"
        },
        {
          "internalType": "uint32",
          "name": "quoteTimestamp",
          "type": "uint32"
        },
        {
          "internalType": "bytes",
          "name": "message",
          "type": "bytes"
        },
        {
          "internalType": "uint256",
          "name": "",
          "type": "uint256"
        }
      ],
      "name": "deposit",
      "outputs": [],
      "stateMutability": "payable",
      "type": "function"
    },
    {
      "inputs": [
        {
          "internalType": "address",
          "name": "depositor",
          "type": "address"
        },
        {
          "internalType": "address",
          "name": "recipient",
          "type": "address"
        },
        {
          "internalType": "address",
          "name": "originToken",
          "type": "address"
        },
        {
          "internalType": "uint256",
          "name": "amount",
          "type": "uint256"
        },
        {
          "internalType": "uint256",
          "name": "destinationChainId",
          "type": "uint256"
        },
        {
          "internalType": "int64",
          "name": "relayerFeePct",
          "type": "int64"
        },
        {
          "internalType": "uint32",
          "name": "quoteTimestamp",
          "type": "uint32"
        },
        {
          "internalType": "bytes",
          "name": "message",
          "type": "bytes"
        },
        {
          "internalType": "uint256",
          "name": "",
          "type": "uint256"
        }
      ],
      "name": "depositFor",
      "outputs": [],
      "stateMutability": "payable",
      "type": "function"
    },
    {
      "inputs": [],
      "name": "depositQuoteTimeBuffer",
      "outputs": [
        {
          "internalType": "uint32",
          "name": "",
          "type": "uint32"
        }
      ],
      "stateMutability": "view",
      "type": "function"
    },
    {
      "inputs": [
        {
          "internalType": "address",
          "name": "depositor",
          "type": "address"
        },
        {
          "internalType": "address",
          "name": "recipient",
          "type": "address"
        },
        {
          "internalType": "address",
          "name": "inputToken",
          "type": "address"
        },
        {
          "internalType": "address",
          "name": "outputToken",
          "type": "address"
        },
        {
          "internalType": "uint256",
          "name": "inputAmount",
          "type": "uint256"
        },
        {
          "internalType": "uint256",
          "name": "outputAmount",
          "type": "uint256"
        },
        {
          "internalType": "uint256",
          "name": "destinationChainId",
          "type": "uint256"
        },
        {
          "internalType": "address",
          "name": "exclusiveRelayer",
          "type": "address"
        },
        {
          "internalType": "uint32",
          "name": "quoteTimestamp",
          "type": "uint32"
        },
        {
          "internalType": "uint32",
          "name": "fillDeadline",
          "type": "uint32"
        },
        {
          "internalType": "uint32",
          "name": "exclusivityDeadline",
          "type": "uint32"
        },
        {
          "internalType": "bytes",
          "name": "message",
          "type": "bytes"
        }
      ],
      "name": "depositV3",
      "outputs": [],
      "stateMutability": "payable",
      "type": "function"
    },
    {
      "inputs": [
        {
          "internalType": "address",
          "name": "depositor",
          "type": "address"
        },
        {
          "internalType": "address",
          "name": "recipient",
          "type": "address"
        },
        {
          "internalType": "address",
          "name": "inputToken",
          "type": "address"
        },
        {
          "internalType": "address",
          "name": "outputToken",
          "type": "address"
        },
        {
          "internalType": "uint256",
          "name": "inputAmount",
          "type": "uint256"
        },
        {
          "internalType": "uint256",
          "name": "outputAmount",
          "type": "uint256"
        },
        {
          "internalType": "uint256",
          "name": "destinationChainId",
          "type": "uint256"
        },
        {
          "internalType": "address",
          "name": "exclusiveRelayer",
          "type": "address"
        },
        {
          "internalType": "uint32",
          "name": "fillDeadlineOffset",
          "type": "uint32"
        },
        {
          "internalType": "uint32",
          "name": "exclusivityDeadline",
          "type": "uint32"
        },
        {
          "internalType": "bytes",
          "name": "message",
          "type": "bytes"
        }
      ],
      "name": "depositV3Now",
      "outputs": [],
      "stateMutability": "payable",
      "type": "function"
    },
    {
      "inputs": [
        {
          "internalType": "uint256",
          "name": "rootBundleId",
          "type": "uint256"
        }
      ],
      "name": "emergencyDeleteRootBundle",
      "outputs": [],
      "stateMutability": "nonpayable",
      "type": "function"
    },
    {
      "inputs": [
        {
          "internalType": "address",
          "name": "",
          "type": "address"
        },
        {
          "internalType": "uint256",
          "name": "",
          "type": "uint256"
        }
      ],
      "name": "enabledDepositRoutes",
      "outputs": [
        {
          "internalType": "bool",
          "name": "",
          "type": "bool"
        }
      ],
      "stateMutability": "view",
      "type": "function"
    },
    {
      "inputs": [
        {
          "internalType": "uint32",
          "name": "rootBundleId",
          "type": "uint32"
        },
        {
          "components": [
            {
              "internalType": "uint256",
              "name": "amountToReturn",
              "type": "uint256"
            },
            {
              "internalType": "uint256",
              "name": "chainId",
              "type": "uint256"
            },
            {
              "internalType": "uint256[]",
              "name": "refundAmounts",
              "type": "uint256[]"
            },
            {
              "internalType": "uint32",
              "name": "leafId",
              "type": "uint32"
            },
            {
              "internalType": "address",
              "name": "l2TokenAddress",
              "type": "address"
            },
            {
              "internalType": "address[]",
              "name": "refundAddresses",
              "type": "address[]"
            }
          ],
          "internalType": "struct SpokePoolInterface.RelayerRefundLeaf",
          "name": "relayerRefundLeaf",
          "type": "tuple"
        },
        {
          "internalType": "bytes32[]",
          "name": "proof",
          "type": "bytes32[]"
        }
      ],
      "name": "executeRelayerRefundLeaf",
      "outputs": [],
      "stateMutability": "payable",
      "type": "function"
    },
    {
      "inputs": [
        {
          "components": [
            {
              "components": [
                {
                  "internalType": "address",
                  "name": "depositor",
                  "type": "address"
                },
                {
                  "internalType": "address",
                  "name": "recipient",
                  "type": "address"
                },
                {
                  "internalType": "address",
                  "name": "exclusiveRelayer",
                  "type": "address"
                },
                {
                  "internalType": "address",
                  "name": "inputToken",
                  "type": "address"
                },
                {
                  "internalType": "address",
                  "name": "outputToken",
                  "type": "address"
                },
                {
                  "internalType": "uint256",
                  "name": "inputAmount",
                  "type": "uint256"
                },
                {
                  "internalType": "uint256",
                  "name": "outputAmount",
                  "type": "uint256"
                },
                {
                  "internalType": "uint256",
                  "name": "originChainId",
                  "type": "uint256"
                },
                {
                  "internalType": "uint32",
                  "name": "depositId",
                  "type": "uint32"
                },
                {
                  "internalType": "uint32",
                  "name": "fillDeadline",
                  "type": "uint32"
                },
                {
                  "internalType": "uint32",
                  "name": "exclusivityDeadline",
                  "type": "uint32"
                },
                {
                  "internalType": "bytes",
                  "name": "message",
                  "type": "bytes"
                }
              ],
              "internalType": "struct V3SpokePoolInterface.V3RelayData",
              "name": "relayData",
              "type": "tuple"
            },
            {
              "internalType": "uint256",
              "name": "chainId",
              "type": "uint256"
            },
            {
              "internalType": "uint256",
              "name": "updatedOutputAmount",
              "type": "uint256"
            }
          ],
          "internalType": "struct V3SpokePoolInterface.V3SlowFill",
          "name": "slowFillLeaf",
          "type": "tuple"
        },
        {
          "internalType": "uint32",
          "name": "rootBundleId",
          "type": "uint32"
        },
        {
          "internalType": "bytes32[]",
          "name": "proof",
          "type": "bytes32[]"
        }
      ],
      "name": "executeV3SlowRelayLeaf",
      "outputs": [],
      "stateMutability": "nonpayable",
      "type": "function"
    },
    {
      "inputs": [],
      "name": "fillDeadlineBuffer",
      "outputs": [
        {
          "internalType": "uint32",
          "name": "",
          "type": "uint32"
        }
      ],
      "stateMutability": "view",
      "type": "function"
    },
    {
      "inputs": [
        {
          "internalType": "bytes32",
          "name": "",
          "type": "bytes32"
        }
      ],
      "name": "fillStatuses",
      "outputs": [
        {
          "internalType": "uint256",
          "name": "",
          "type": "uint256"
        }
      ],
      "stateMutability": "view",
      "type": "function"
    },
    {
      "inputs": [
        {
          "components": [
            {
              "internalType": "address",
              "name": "depositor",
              "type": "address"
            },
            {
              "internalType": "address",
              "name": "recipient",
              "type": "address"
            },
            {
              "internalType": "address",
              "name": "exclusiveRelayer",
              "type": "address"
            },
            {
              "internalType": "address",
              "name": "inputToken",
              "type": "address"
            },
            {
              "internalType": "address",
              "name": "outputToken",
              "type": "address"
            },
            {
              "internalType": "uint256",
              "name": "inputAmount",
              "type": "uint256"
            },
            {
              "internalType": "uint256",
              "name": "outputAmount",
              "type": "uint256"
            },
            {
              "internalType": "uint256",
              "name": "originChainId",
              "type": "uint256"
            },
            {
              "internalType": "uint32",
              "name": "depositId",
              "type": "uint32"
            },
            {
              "internalType": "uint32",
              "name": "fillDeadline",
              "type": "uint32"
            },
            {
              "internalType": "uint32",
              "name": "exclusivityDeadline",
              "type": "uint32"
            },
            {
              "internalType": "bytes",
              "name": "message",
              "type": "bytes"
            }
          ],
          "internalType": "struct V3SpokePoolInterface.V3RelayData",
          "name": "relayData",
          "type": "tuple"
        },
        {
          "internalType": "uint256",
          "name": "repaymentChainId",
          "type": "uint256"
        }
      ],
      "name": "fillV3Relay",
      "outputs": [],
      "stateMutability": "nonpayable",
      "type": "function"
    },
    {
      "inputs": [
        {
          "components": [
            {
              "internalType": "address",
              "name": "depositor",
              "type": "address"
            },
            {
              "internalType": "address",
              "name": "recipient",
              "type": "address"
            },
            {
              "internalType": "address",
              "name": "exclusiveRelayer",
              "type": "address"
            },
            {
              "internalType": "address",
              "name": "inputToken",
              "type": "address"
            },
            {
              "internalType": "address",
              "name": "outputToken",
              "type": "address"
            },
            {
              "internalType": "uint256",
              "name": "inputAmount",
              "type": "uint256"
            },
            {
              "internalType": "uint256",
              "name": "outputAmount",
              "type": "uint256"
            },
            {
              "internalType": "uint256",
              "name": "originChainId",
              "type": "uint256"
            },
            {
              "internalType": "uint32",
              "name": "depositId",
              "type": "uint32"
            },
            {
              "internalType": "uint32",
              "name": "fillDeadline",
              "type": "uint32"
            },
            {
              "internalType": "uint32",
              "name": "exclusivityDeadline",
              "type": "uint32"
            },
            {
              "internalType": "bytes",
              "name": "message",
              "type": "bytes"
            }
          ],
          "internalType": "struct V3SpokePoolInterface.V3RelayData",
          "name": "relayData",
          "type": "tuple"
        },
        {
          "internalType": "uint256",
          "name": "repaymentChainId",
          "type": "uint256"
        },
        {
          "internalType": "uint256",
          "name": "updatedOutputAmount",
          "type": "uint256"
        },
        {
          "internalType": "address",
          "name": "updatedRecipient",
          "type": "address"
        },
        {
          "internalType": "bytes",
          "name": "updatedMessage",
          "type": "bytes"
        },
        {
          "internalType": "bytes",
          "name": "depositorSignature",
          "type": "bytes"
        }
      ],
      "name": "fillV3RelayWithUpdatedDeposit",
      "outputs": [],
      "stateMutability": "nonpayable",
      "type": "function"
    },
    {
      "inputs": [],
      "name": "fxChild",
      "outputs": [
        {
          "internalType": "address",
          "name": "",
          "type": "address"
        }
      ],
      "stateMutability": "view",
      "type": "function"
    },
    {
      "inputs": [],
      "name": "getCurrentTime",
      "outputs": [
        {
          "internalType": "uint256",
          "name": "",
          "type": "uint256"
        }
      ],
      "stateMutability": "view",
      "type": "function"
    },
    {
      "inputs": [],
      "name": "hubPool",
      "outputs": [
        {
          "internalType": "address",
          "name": "",
          "type": "address"
        }
      ],
      "stateMutability": "view",
      "type": "function"
    },
    {
      "inputs": [
        {
          "internalType": "uint32",
          "name": "_initialDepositId",
          "type": "uint32"
        },
        {
          "internalType": "contract PolygonTokenBridger",
          "name": "_polygonTokenBridger",
          "type": "address"
        },
        {
          "internalType": "address",
          "name": "_crossDomainAdmin",
          "type": "address"
        },
        {
          "internalType": "address",
          "name": "_hubPool",
          "type": "address"
        },
        {
          "internalType": "address",
          "name": "_fxChild",
          "type": "address"
        }
      ],
      "name": "initialize",
      "outputs": [],
      "stateMutability": "nonpayable",
      "type": "function"
    },
    {
      "inputs": [
        {
          "internalType": "bytes[]",
          "name": "data",
          "type": "bytes[]"
        }
      ],
      "name": "multicall",
      "outputs": [
        {
          "internalType": "bytes[]",
          "name": "results",
          "type": "bytes[]"
        }
      ],
      "stateMutability": "nonpayable",
      "type": "function"
    },
    {
      "inputs": [],
      "name": "numberOfDeposits",
      "outputs": [
        {
          "internalType": "uint32",
          "name": "",
          "type": "uint32"
        }
      ],
      "stateMutability": "view",
      "type": "function"
    },
    {
      "inputs": [
        {
          "internalType": "bool",
          "name": "pause",
          "type": "bool"
        }
      ],
      "name": "pauseDeposits",
      "outputs": [],
      "stateMutability": "nonpayable",
      "type": "function"
    },
    {
      "inputs": [
        {
          "internalType": "bool",
          "name": "pause",
          "type": "bool"
        }
      ],
      "name": "pauseFills",
      "outputs": [],
      "stateMutability": "nonpayable",
      "type": "function"
    },
    {
      "inputs": [],
      "name": "pausedDeposits",
      "outputs": [
        {
          "internalType": "bool",
          "name": "",
          "type": "bool"
        }
      ],
      "stateMutability": "view",
      "type": "function"
    },
    {
      "inputs": [],
      "name": "pausedFills",
      "outputs": [
        {
          "internalType": "bool",
          "name": "",
          "type": "bool"
        }
      ],
      "stateMutability": "view",
      "type": "function"
    },
    {
      "inputs": [],
      "name": "polygonTokenBridger",
      "outputs": [
        {
          "internalType": "contract PolygonTokenBridger",
          "name": "",
          "type": "address"
        }
      ],
      "stateMutability": "view",
      "type": "function"
    },
    {
      "inputs": [
        {
          "internalType": "uint256",
          "name": "",
          "type": "uint256"
        },
        {
          "internalType": "address",
          "name": "rootMessageSender",
          "type": "address"
        },
        {
          "internalType": "bytes",
          "name": "data",
          "type": "bytes"
        }
      ],
      "name": "processMessageFromRoot",
      "outputs": [],
      "stateMutability": "nonpayable",
      "type": "function"
    },
    {
      "inputs": [],
      "name": "proxiableUUID",
      "outputs": [
        {
          "internalType": "bytes32",
          "name": "",
          "type": "bytes32"
        }
      ],
      "stateMutability": "view",
      "type": "function"
    },
    {
      "inputs": [],
      "name": "recipientCircleDomainId",
      "outputs": [
        {
          "internalType": "uint32",
          "name": "",
          "type": "uint32"
        }
      ],
      "stateMutability": "view",
      "type": "function"
    },
    {
      "inputs": [
        {
          "internalType": "bytes32",
          "name": "relayerRefundRoot",
          "type": "bytes32"
        },
        {
          "internalType": "bytes32",
          "name": "slowRelayRoot",
          "type": "bytes32"
        }
      ],
      "name": "relayRootBundle",
      "outputs": [],
      "stateMutability": "nonpayable",
      "type": "function"
    },
    {
      "inputs": [
        {
          "components": [
            {
              "internalType": "address",
              "name": "depositor",
              "type": "address"
            },
            {
              "internalType": "address",
              "name": "recipient",
              "type": "address"
            },
            {
              "internalType": "address",
              "name": "exclusiveRelayer",
              "type": "address"
            },
            {
              "internalType": "address",
              "name": "inputToken",
              "type": "address"
            },
            {
              "internalType": "address",
              "name": "outputToken",
              "type": "address"
            },
            {
              "internalType": "uint256",
              "name": "inputAmount",
              "type": "uint256"
            },
            {
              "internalType": "uint256",
              "name": "outputAmount",
              "type": "uint256"
            },
            {
              "internalType": "uint256",
              "name": "originChainId",
              "type": "uint256"
            },
            {
              "internalType": "uint32",
              "name": "depositId",
              "type": "uint32"
            },
            {
              "internalType": "uint32",
              "name": "fillDeadline",
              "type": "uint32"
            },
            {
              "internalType": "uint32",
              "name": "exclusivityDeadline",
              "type": "uint32"
            },
            {
              "internalType": "bytes",
              "name": "message",
              "type": "bytes"
            }
          ],
          "internalType": "struct V3SpokePoolInterface.V3RelayData",
          "name": "relayData",
          "type": "tuple"
        }
      ],
      "name": "requestV3SlowFill",
      "outputs": [],
      "stateMutability": "nonpayable",
      "type": "function"
    },
    {
      "inputs": [
        {
          "internalType": "uint256",
          "name": "",
          "type": "uint256"
        }
      ],
      "name": "rootBundles",
      "outputs": [
        {
          "internalType": "bytes32",
          "name": "slowRelayRoot",
          "type": "bytes32"
        },
        {
          "internalType": "bytes32",
          "name": "relayerRefundRoot",
          "type": "bytes32"
        }
      ],
      "stateMutability": "view",
      "type": "function"
    },
    {
      "inputs": [
        {
          "internalType": "address",
          "name": "newCrossDomainAdmin",
          "type": "address"
        }
      ],
      "name": "setCrossDomainAdmin",
      "outputs": [],
      "stateMutability": "nonpayable",
      "type": "function"
    },
    {
      "inputs": [
        {
          "internalType": "address",
          "name": "originToken",
          "type": "address"
        },
        {
          "internalType": "uint256",
          "name": "destinationChainId",
          "type": "uint256"
        },
        {
          "internalType": "bool",
          "name": "enabled",
          "type": "bool"
        }
      ],
      "name": "setEnableRoute",
      "outputs": [],
      "stateMutability": "nonpayable",
      "type": "function"
    },
    {
      "inputs": [
        {
          "internalType": "address",
          "name": "newFxChild",
          "type": "address"
        }
      ],
      "name": "setFxChild",
      "outputs": [],
      "stateMutability": "nonpayable",
      "type": "function"
    },
    {
      "inputs": [
        {
          "internalType": "address",
          "name": "newHubPool",
          "type": "address"
        }
      ],
      "name": "setHubPool",
      "outputs": [],
      "stateMutability": "nonpayable",
      "type": "function"
    },
    {
      "inputs": [
        {
          "internalType": "address payable",
          "name": "newPolygonTokenBridger",
          "type": "address"
        }
      ],
      "name": "setPolygonTokenBridger",
      "outputs": [],
      "stateMutability": "nonpayable",
      "type": "function"
    },
    {
      "inputs": [
        {
          "internalType": "address",
          "name": "depositor",
          "type": "address"
        },
        {
          "internalType": "uint32",
          "name": "depositId",
          "type": "uint32"
        },
        {
          "internalType": "uint256",
          "name": "updatedOutputAmount",
          "type": "uint256"
        },
        {
          "internalType": "address",
          "name": "updatedRecipient",
          "type": "address"
        },
        {
          "internalType": "bytes",
          "name": "updatedMessage",
          "type": "bytes"
        },
        {
          "internalType": "bytes",
          "name": "depositorSignature",
          "type": "bytes"
        }
      ],
      "name": "speedUpV3Deposit",
      "outputs": [],
      "stateMutability": "nonpayable",
      "type": "function"
    },
    {
      "inputs": [
        {
          "internalType": "bytes[]",
          "name": "data",
          "type": "bytes[]"
        }
      ],
      "name": "tryMulticall",
      "outputs": [
        {
          "components": [
            {
              "internalType": "bool",
              "name": "success",
              "type": "bool"
            },
            {
              "internalType": "bytes",
              "name": "returnData",
              "type": "bytes"
            }
          ],
          "internalType": "struct MultiCallerUpgradeable.Result[]",
          "name": "results",
          "type": "tuple[]"
        }
      ],
      "stateMutability": "nonpayable",
      "type": "function"
    },
    {
      "inputs": [
        {
          "internalType": "address",
          "name": "newImplementation",
          "type": "address"
        }
      ],
      "name": "upgradeTo",
      "outputs": [],
      "stateMutability": "nonpayable",
      "type": "function"
    },
    {
      "inputs": [
        {
          "internalType": "address",
          "name": "newImplementation",
          "type": "address"
        },
        {
          "internalType": "bytes",
          "name": "data",
          "type": "bytes"
        }
      ],
      "name": "upgradeToAndCall",
      "outputs": [],
      "stateMutability": "payable",
      "type": "function"
    },
    {
      "inputs": [],
      "name": "usdcToken",
      "outputs": [
        {
          "internalType": "contract IERC20",
          "name": "",
          "type": "address"
        }
      ],
      "stateMutability": "view",
      "type": "function"
    },
    {
      "inputs": [],
      "name": "wrap",
      "outputs": [],
      "stateMutability": "nonpayable",
      "type": "function"
    },
    {
      "inputs": [],
      "name": "wrappedNativeToken",
      "outputs": [
        {
          "internalType": "contract WETH9Interface",
          "name": "",
          "type": "address"
        }
      ],
      "stateMutability": "view",
      "type": "function"
    },
    {
      "stateMutability": "payable",
      "type": "receive"
    }
  ],
  "numDeployments": 1,
  "solcInputHash": "35e2d392a8a60c37ee7fa8da503c0652",
  "bytecode": "0x61016034620001cd57601f62005c0a38819003918201601f19168301916001600160401b03831184841017620001d15780849260a094604052833981010312620001cd5780516001600160a01b03919082811690819003620001cd576200006960208301620001e5565b6200007760408401620001e5565b916060840151938585168503620001cd57608001519485168503620001cd573060805260a05260c05260e0525f5460ff8160081c16620001cd5760ff8082160362000192575b50610120908152610140918252610100915f835260405191615a129384620001f88539608051848181610e630152818161151d0152611731015260a05184818161082301528181613085015281816139fc015281816142cd0152818161465201528181614bc101528181614f7f0152614fa6015260c05184818161186e0152818161301f0152613954015260e05184818161039101526132b201525183818161191001526157a701525182818161072a015281816155210152615687015251818181611c7e015281816153fd01526156c00152f35b60ff90811916175f557f7f26b83ff96e1f2b6a682f133852f6798a09c465da95921460cefb3847402498602060405160ff8152a15f620000bd565b5f80fd5b634e487b7160e01b5f52604160045260245ffd5b519063ffffffff82168203620001cd5756fe6080604052600436101561001a575b3615610018575f80fd5b005b5f3560e01c8063079bd2c7146103445780631186ec331461033f57806311eac8551461033a57806313fb77ee1461033557806315348e44146102cc57806317fcb39b146103305780631b3d55591461032b5780631dfb2d0214610326578063272751c71461032157806329cb924d1461031c5780632cfc26c5146103175780632e378115146103125780633659cfe61461030d5780633edb89d114610308578063437b911614610303578063450d11f0146102fe578063493a4f84146102f95780634e0fb8f5146102f45780634f1ef286146102ef5780635249fef1146102ea5780635285e058146102e557806352d1902d146102e0578063541f4f14146102db57806357f6dcb8146102d65780636068d6cb146102d15780636bbbcd2e146102cc5780636e400983146102c7578063738b62e5146102c25780637aef642c146102bd5780637b939232146102b85780638a7860ce146102b35780639748cf7c146102ae578063979f2bc2146102a95780639963e5a8146102a457806399cc29681461029f5780639a7c4b711461029a5780639a8a059214610295578063a1244c6714610290578063ac9650d81461028b578063b86cfdcf14610286578063bbca7db014610281578063c35c83fc1461027c578063ccfa597114610277578063ceb4c98714610272578063d46eb1191461026d578063dda5211314610268578063ddd224f114610263578063de7eba781461025e578063e190440214610259578063ee2a53f8146102545763f2c209240361000e57612a26565b6129ca565b61290c565b6128be565b612877565b612833565b6127f5565b6127b9565b612718565b6126cf565b612572565b61251f565b612475565b6123af565b612377565b612130565b612064565b611e1b565b611ca2565b611c34565b611b85565b611abf565b611a01565b611934565b6118d6565b6107a1565b611892565b611834565b611781565b6116ec565b61169a565b611621565b6114af565b61136a565b611297565b611245565b611150565b610f86565b610e10565b610c6c565b610c05565b610bcd565b610ae5565b610a88565b610992565b6107d9565b61074e565b6106e0565b610609565b610357565b5f91031261035357565b5f80fd5b34610353575f7ffffffffffffffffffffffffffffffffffffffffffffffffffffffffffffffffc36011261035357602060405163ffffffff7f0000000000000000000000000000000000000000000000000000000000000000168152f35b73ffffffffffffffffffffffffffffffffffffffff81160361035357565b35906103de826103b5565b565b63ffffffff81160361035357565b61014435906103de826103e0565b35906103de826103e0565b7f4e487b71000000000000000000000000000000000000000000000000000000005f52604160045260245ffd5b6040810190811067ffffffffffffffff82111761045057604052565b610407565b67ffffffffffffffff811161045057604052565b6060810190811067ffffffffffffffff82111761045057604052565b6020810190811067ffffffffffffffff82111761045057604052565b60e0810190811067ffffffffffffffff82111761045057604052565b60a0810190811067ffffffffffffffff82111761045057604052565b90601f7fffffffffffffffffffffffffffffffffffffffffffffffffffffffffffffffe0910116810190811067ffffffffffffffff82111761045057604052565b6040519060c0820182811067ffffffffffffffff82111761045057604052565b60405190610180820182811067ffffffffffffffff82111761045057604052565b604051906080820182811067ffffffffffffffff82111761045057604052565b67ffffffffffffffff811161045057601f017fffffffffffffffffffffffffffffffffffffffffffffffffffffffffffffffe01660200190565b9291926105c18261057b565b916105cf60405193846104d9565b829481845281830111610353578281602093845f960137010152565b9080601f8301121561035357816020610606933591016105b5565b90565b6101007ffffffffffffffffffffffffffffffffffffffffffffffffffffffffffffffffc36011261035357600435610640816103b5565b60243561064c816103b5565b6084358060070b81036103535760a43590610666826103e0565b60c43567ffffffffffffffff8111610353576106869036906004016105eb565b9261068f613852565b60ff61086b5460e81c166106b6576106af946064359160443591336138ce565b6001606555005b60046040517f5a65d188000000000000000000000000000000000000000000000000000000008152fd5b34610353575f7ffffffffffffffffffffffffffffffffffffffffffffffffffffffffffffffffc36011261035357602060405173ffffffffffffffffffffffffffffffffffffffff7f0000000000000000000000000000000000000000000000000000000000000000168152f35b346103535760207ffffffffffffffffffffffffffffffffffffffffffffffffffffffffffffffffc360112610353576106af60043561078c816103b5565b610794613b6f565b61079c613852565b613baa565b34610353575f7ffffffffffffffffffffffffffffffffffffffffffffffffffffffffffffffffc3601126103535760206040515f8152f35b34610353575f7ffffffffffffffffffffffffffffffffffffffffffffffffffffffffffffffffc36011261035357602060405173ffffffffffffffffffffffffffffffffffffffff7f0000000000000000000000000000000000000000000000000000000000000000168152f35b67ffffffffffffffff81116104505760051b60200190565b9080601f8301121561035357602090823561087981610847565b9361088760405195866104d9565b81855260208086019260051b82010192831161035357602001905b8282106108b0575050505090565b813581529083019083016108a2565b9080601f830112156103535760209082356108d981610847565b936108e760405195866104d9565b81855260208086019260051b82010192831161035357602001905b828210610910575050505090565b838091833561091e816103b5565b815201910190610902565b929161093482610847565b9161094260405193846104d9565b829481845260208094019160051b810192831161035357905b8282106109685750505050565b8135815290830190830161095b565b9080601f830112156103535781602061060693359101610929565b7ffffffffffffffffffffffffffffffffffffffffffffffffffffffffffffffffc606081360112610353576004356109c9816103e0565b60243567ffffffffffffffff928382116103535760c0908236030112610353576109f161051a565b908060040135825260248101356020830152604481013584811161035357610a1f906004369184010161085f565b6040830152610a30606482016103fc565b6060830152610a41608482016103d3565b608083015260a481013590848211610353576004610a6292369201016108bf565b60a082015260443592831161035357610a82610018933690600401610977565b91612bb4565b346103535760207ffffffffffffffffffffffffffffffffffffffffffffffffffffffffffffffffc360112610353576106af600435610ac6816103b5565b610ace613b6f565b610ad6613852565b613ce1565b8015150361035357565b346103535760607ffffffffffffffffffffffffffffffffffffffffffffffffffffffffffffffffc36011261035357600435610b20816103b5565b602435907f0a21fdd43d0ad0c62689ee7230a47309a050755bcc52eba00310add65297692a602073ffffffffffffffffffffffffffffffffffffffff60443593610b6985610adb565b610b71613b6f565b610b79613852565b1692835f5261086d825260405f20855f52825260405f20901515907fffffffffffffffffffffffffffffffffffffffffffffffffffffffffffffff0081541660ff8316179055604051908152a36001606555005b34610353575f7ffffffffffffffffffffffffffffffffffffffffffffffffffffffffffffffffc360112610353576020604051428152f35b34610353575f7ffffffffffffffffffffffffffffffffffffffffffffffffffffffffffffffffc3601126103535760206040517f152eb71524aef34d838ab76573c14b1ebfa5e385d9ab29d7cf5398daa2438bd98152f35b90816101809103126103535790565b346103535760407ffffffffffffffffffffffffffffffffffffffffffffffffffffffffffffffffc3601126103535760043567ffffffffffffffff811161035357610cbb903690600401610c5d565b610cc3613852565b60ff61086b5460e01c16610de657610cde6101408201612d6e565b63ffffffff429116101580610dbb575b610d9157610d8790610d73610d0b610d063684612d82565b613e85565b9160c0610d6c610d1d60208401612d78565b610d2b610160850185612e62565b939094610d3661051a565b97610d413683612d82565b895260208901520135604087015273ffffffffffffffffffffffffffffffffffffffff166060860152565b36916105b5565b608082015260243560a08201523390614037565b6100186001606555565b60046040517fc3a9b9d0000000000000000000000000000000000000000000000000000000008152fd5b50610dc860408201612d78565b73ffffffffffffffffffffffffffffffffffffffff16331415610cee565b60046040517f7b21f8aa000000000000000000000000000000000000000000000000000000008152fd5b346103535760207ffffffffffffffffffffffffffffffffffffffffffffffffffffffffffffffffc36011261035357600435610e4b816103b5565b73ffffffffffffffffffffffffffffffffffffffff807f000000000000000000000000000000000000000000000000000000000000000016803014610353577f360894a13ba1a3210667c828492db98dca3e2076cc3735a920a3ca505d382bbc90828254160361035357610ebd613b6f565b60405191610eca83610485565b5f83527f4910fdfa16fed3260ed0e7147f7cc6da11a60208b5b9406d12a635614ffd91435460ff1615610f035750505061001890615171565b6020600491604051928380927f52d1902d00000000000000000000000000000000000000000000000000000000825288165afa5f9181610f55575b50610f47575f80fd5b03610353576100189161503e565b610f7891925060203d602011610f7f575b610f7081836104d9565b810190614763565b905f610f3e565b503d610f66565b34610353575f7ffffffffffffffffffffffffffffffffffffffffffffffffffffffffffffffffc36011261035357602073ffffffffffffffffffffffffffffffffffffffff610c5b5416604051908152f35b9181601f840112156103535782359167ffffffffffffffff8311610353576020808501948460051b01011161035357565b60207ffffffffffffffffffffffffffffffffffffffffffffffffffffffffffffffffc820112610353576004359067ffffffffffffffff82116103535761105291600401610fd8565b9091565b5f5b8381106110675750505f910152565b8181015183820152602001611058565b907fffffffffffffffffffffffffffffffffffffffffffffffffffffffffffffffe0601f6020936110b381518092818752878088019101611056565b0116010190565b6020808201908083528351809252604092604081018260408560051b8401019601945f925b8584106110f0575050505050505090565b90919293949596858061113f837fffffffffffffffffffffffffffffffffffffffffffffffffffffffffffffffc0866001960301885286838d5180511515845201519181858201520190611077565b9901940194019295949391906110df565b346103535761115e36611009565b6111688183614772565b61117181610847565b91604061118160405194856104d9565b8284527fffffffffffffffffffffffffffffffffffffffffffffffffffffffffffffffe06111ae84610847565b015f5b8181106112225750505f5b8381106111d557604051806111d187826110ba565b0390f35b8061121c6111e560019388612eba565b515f806111f3858a8a612ece565b90611202895180938193612ee5565b0390305af490611210612ef2565b60208201529015159052565b016111bc565b602090835161123081610434565b5f8152826060818301528289010152016111b1565b34610353575f7ffffffffffffffffffffffffffffffffffffffffffffffffffffffffffffffffc36011261035357602073ffffffffffffffffffffffffffffffffffffffff610c5a5416604051908152f35b346103535760407ffffffffffffffffffffffffffffffffffffffffffffffffffffffffffffffffc360112610353576024356004356112d4613b6f565b6112dc613852565b61086c8054680100000000000000008110156104505763ffffffff91600182019055836113088261298b565b5084600182015555167fc86ba04c55bc5eb2f2876b91c438849a296dbec7b08751c3074d92e04f0a77af5f80a46001606555005b9181601f840112156103535782359167ffffffffffffffff8311610353576020838186019501011161035357565b346103535760c07ffffffffffffffffffffffffffffffffffffffffffffffffffffffffffffffffc360112610353576004356113a5816103b5565b602435906113b2826103e0565b6044356064356113c1816103b5565b67ffffffffffffffff91608435838111610353576113e390369060040161133c565b93909460a4359182116103535761149363ffffffff7fb0a29aed3d389a1041194255878b423f7780be3ed2324d4693508c6ff189845e9661142b6114a595369060040161133c565b939099611436613852565b61145d8c8c8b8b61145461144b368a896105b5565b938b36916105b5565b9346908c614832565b73ffffffffffffffffffffffffffffffffffffffff92836040519a8b9a8b521660208a0152608060408a01526080890191612f21565b93868503606088015216981696612f21565b0390a36001606555005b60407ffffffffffffffffffffffffffffffffffffffffffffffffffffffffffffffffc360112610353576004356114e5816103b5565b60243567ffffffffffffffff8111610353576115059036906004016105eb565b73ffffffffffffffffffffffffffffffffffffffff807f00000000000000000000000000000000000000000000000000000000000000001690813014610353577f360894a13ba1a3210667c828492db98dca3e2076cc3735a920a3ca505d382bbc91818354160361035357611578613b6f565b7f4910fdfa16fed3260ed0e7147f7cc6da11a60208b5b9406d12a635614ffd91435460ff16156115ae5750505061001890615171565b6020600491604051928380927f52d1902d00000000000000000000000000000000000000000000000000000000825288165afa5f9181611600575b506115f2575f80fd5b036103535761001891615113565b61161a91925060203d602011610f7f57610f7081836104d9565b905f6115e9565b346103535760407ffffffffffffffffffffffffffffffffffffffffffffffffffffffffffffffffc3601126103535773ffffffffffffffffffffffffffffffffffffffff600435611671816103b5565b165f5261086d60205260405f206024355f52602052602060ff60405f2054166040519015158152f35b34610353575f7ffffffffffffffffffffffffffffffffffffffffffffffffffffffffffffffffc36011261035357602073ffffffffffffffffffffffffffffffffffffffff6108695416604051908152f35b34610353575f7ffffffffffffffffffffffffffffffffffffffffffffffffffffffffffffffffc3601126103535773ffffffffffffffffffffffffffffffffffffffff7f00000000000000000000000000000000000000000000000000000000000000001630036103535760206040517f360894a13ba1a3210667c828492db98dca3e2076cc3735a920a3ca505d382bbc8152f35b6101207ffffffffffffffffffffffffffffffffffffffffffffffffffffffffffffffffc360112610353576004356117b8816103b5565b602435906117c5826103b5565b604435916117d2836103b5565b60a4358060070b81036103535760c435916117ec836103e0565b60e43567ffffffffffffffff81116103535761180c9036906004016105eb565b93611815613852565b60ff61086b5460e81c166106b6576106af9560843592606435926138ce565b34610353575f7ffffffffffffffffffffffffffffffffffffffffffffffffffffffffffffffffc36011261035357602060405163ffffffff7f0000000000000000000000000000000000000000000000000000000000000000168152f35b34610353575f7ffffffffffffffffffffffffffffffffffffffffffffffffffffffffffffffffc36011261035357602060ff61086b5460e81c166040519015158152f35b34610353575f7ffffffffffffffffffffffffffffffffffffffffffffffffffffffffffffffffc36011261035357602060405163ffffffff7f0000000000000000000000000000000000000000000000000000000000000000168152f35b346103535760207ffffffffffffffffffffffffffffffffffffffffffffffffffffffffffffffffc360112610353577fe88463c2f254e2b070013a2dc7ee1e099f9bc00534cbdf03af551dc26ae49219602060043561199281610adb565b61199a613b6f565b6119a2613852565b151561086b80547fffff00ffffffffffffffffffffffffffffffffffffffffffffffffffffffffff7dff00000000000000000000000000000000000000000000000000000000008460e81b169116179055604051908152a16001606555005b6101607ffffffffffffffffffffffffffffffffffffffffffffffffffffffffffffffffc36011261035357600435611a38816103b5565b60243590611a45826103b5565b604435611a51816103b5565b60643590611a5e826103b5565b60e435611a6a816103b5565b6101043590611a78826103e0565b6101243592611a86846103e0565b610144359667ffffffffffffffff881161035357611aab61001898369060040161133c565b97909660c4359360a4359360843593612f8c565b6101807ffffffffffffffffffffffffffffffffffffffffffffffffffffffffffffffffc36011261035357600435611af6816103b5565b60243590611b03826103b5565b604435611b0f816103b5565b60643590611b1c826103b5565b60e435611b28816103b5565b61010435611b35816103e0565b6101243591611b43836103e0565b611b4b6103ee565b93610164359767ffffffffffffffff891161035357611b7161001899369060040161133c565b98909760c4359360a4359360843593613339565b346103535760207ffffffffffffffffffffffffffffffffffffffffffffffffffffffffffffffffc36011261035357600435611bbf613b6f565b611bc7613852565b611bd08161298b565b611c08576001815f80935501557f3569b846531b754c99cb80df3f49cd72fa6fe106aaee5ab8e0caf35a9d7ce88d5f80a26001606555005b7f4e487b71000000000000000000000000000000000000000000000000000000005f525f60045260245ffd5b34610353575f7ffffffffffffffffffffffffffffffffffffffffffffffffffffffffffffffffc36011261035357602060405173ffffffffffffffffffffffffffffffffffffffff7f0000000000000000000000000000000000000000000000000000000000000000168152f35b346103535760607ffffffffffffffffffffffffffffffffffffffffffffffffffffffffffffffffc36011261035357600435611cdd816103e0565b60243590611cea826103b5565b60443590611cf7826103b5565b60ff5f5460081c161561035357611d589061086b907fffffffff00000000ffffffffffffffffffffffffffffffffffffffffffffffff7bffffffff00000000000000000000000000000000000000000000000083549260c01b169116179055565b604051611d6481610434565b6009815260208101927f4143524f53532d5632000000000000000000000000000000000000000000000084527f312e302e300000000000000000000000000000000000000000000000000000006020604051611dbf81610434565b60058152015260ff5f5460081c16156103535761001893610ad69251902061047f557f06c015bd22b4c69690933c1058878ebdfef31f9aaae40bbe86d8a09fe1b2972c61048055611e0e6149af565b611e166149be565b6149d2565b346103535760207ffffffffffffffffffffffffffffffffffffffffffffffffffffffffffffffffc360112610353576004803567ffffffffffffffff811161035357611e6a9036908301610c5d565b611e72613852565b60ff61086b5460e01c1661203b57610140810191611e8f83612d6e565b9063ffffffff918242911610156120135761012083019042611ebc611eb384612d6e565b63ffffffff1690565b10611feb57611ece610d063686612d82565b90611ee2825f5261087260205260405f2090565b54611fc3575090611f27611f217f923794976d026d6b119735adc163cb71decfc903e17c3dc226c00789593c04e194935f5261087260205260405f2090565b60019055565b611fb6611f3660608601612d78565b95611f4360808701612d78565b95611f63611f5d611f576101008401612d6e565b95612d6e565b92612d6e565b611f6f60408301612d78565b611f7883612d78565b90611f8560208501612d78565b92611f94610160860186612e62565b9690956040519a8b9a169d60e08201359d60a060c0840135930135918c613490565b0390a36100186001606555565b6040517f012f9e44000000000000000000000000000000000000000000000000000000008152fd5b6040517fd642b7d9000000000000000000000000000000000000000000000000000000008152fd5b6040517f09deb9ec000000000000000000000000000000000000000000000000000000008152fd5b506040517f7b21f8aa000000000000000000000000000000000000000000000000000000008152fd5b346103535760207ffffffffffffffffffffffffffffffffffffffffffffffffffffffffffffffffc360112610353577f2d5b62420992e5a4afce0e77742636ca2608ef58289fd2e1baa5161ef6e7e41e60206004356120c281610adb565b6120ca613b6f565b6120d2613852565b151561086b80547fffffff00ffffffffffffffffffffffffffffffffffffffffffffffffffffffff7cff000000000000000000000000000000000000000000000000000000008460e01b169116179055604051908152a16001606555005b346103535760607ffffffffffffffffffffffffffffffffffffffffffffffffffffffffffffffffc3601126103535760243561216b816103b5565b60443567ffffffffffffffff81116103535761218b90369060040161133c565b90610c5b805460ff8160a01c1661234d577fffffffffffffffffffffff00ffffffffffffffffffffffffffffffffffffffff1674010000000000000000000000000000000000000000179055610c5a5461220f9073ffffffffffffffffffffffffffffffffffffffff165b73ffffffffffffffffffffffffffffffffffffffff1690565b33036123235773ffffffffffffffffffffffffffffffffffffffff61224d6121f66108695473ffffffffffffffffffffffffffffffffffffffff1690565b93169283036122f9575f91829161226960405180938193612ee5565b0390305af4612276612ef2565b50156122cf57337f5185f02297526865dfbc461916f7dd8d40414c836fa469073ebea66ce68ba8635f80a3610018610c5b7fffffffffffffffffffffff00ffffffffffffffffffffffffffffffffffffffff8154169055565b60046040517f18cecad5000000000000000000000000000000000000000000000000000000008152fd5b60046040517f339c0f06000000000000000000000000000000000000000000000000000000008152fd5b60046040517fe30ca5a2000000000000000000000000000000000000000000000000000000008152fd5b60046040517fd01d9576000000000000000000000000000000000000000000000000000000008152fd5b34610353575f7ffffffffffffffffffffffffffffffffffffffffffffffffffffffffffffffffc360112610353576020604051468152f35b34610353575f7ffffffffffffffffffffffffffffffffffffffffffffffffffffffffffffffffc36011261035357602063ffffffff61086b5460c01c16604051908152f35b6020808201906020835283518092526040830192602060408460051b8301019501935f915b8483106124295750505050505090565b9091929394958480612465837fffffffffffffffffffffffffffffffffffffffffffffffffffffffffffffffc086600196030187528a51611077565b9801930193019194939290612419565b346103535761248336611009565b9061248e8282614772565b61249782613505565b915f5b8181106124af57604051806111d186826123f4565b5f806124bc838587612ece565b906124cc60405180938193612ee5565b0390305af46124d9612ef2565b90156124ff57906001916124ed8287612eba565b526124f88186612eba565b500161249a565b60448151106103535780600461035392015160248091830101910161356b565b346103535760207ffffffffffffffffffffffffffffffffffffffffffffffffffffffffffffffffc360112610353576106af60043561255d816103b5565b612565613b6f565b61256d613852565b614a69565b34610353577ffffffffffffffffffffffffffffffffffffffffffffffffffffffffffffffffc6060813601126103535760043567ffffffffffffffff8082116103535760608236039384011261035357602435906125cf826103e0565b604435908111610353576125e7903690600401610fd8565b9190936125f2613852565b7ffffffffffffffffffffffffffffffffffffffffffffffffffffffffffffffe7d8460040135910181121561035357610d87946126ca9361263c6126c39360043691890101612d82565b95612645614ba0565b6126b161265188613e85565b91604461267560208b015173ffffffffffffffffffffffffffffffffffffffff1690565b916101608b01519461268561051a565b9b8c5260208c0152013560408a015273ffffffffffffffffffffffffffffffffffffffff166060890152565b60808701525f60a08701523691610929565b9083614ad0565b614411565b346103535760207ffffffffffffffffffffffffffffffffffffffffffffffffffffffffffffffffc360112610353576004355f52610872602052602060405f2054604051908152f35b346103535760c07ffffffffffffffffffffffffffffffffffffffffffffffffffffffffffffffffc3601126103535767ffffffffffffffff60043581811161035357612768903690600401610c5d565b60643590612775826103b5565b6084358381116103535761278d90369060040161133c565b9060a435948511610353576127a961001895369060040161133c565b94909360443590602435906135ca565b34610353575f7ffffffffffffffffffffffffffffffffffffffffffffffffffffffffffffffffc36011261035357602060405163ffffffff8152f35b34610353575f7ffffffffffffffffffffffffffffffffffffffffffffffffffffffffffffffffc3601126103535761282b613852565b6106af614ba0565b34610353575f7ffffffffffffffffffffffffffffffffffffffffffffffffffffffffffffffffc36011261035357602060ff61086b5460e01c166040519015158152f35b34610353575f7ffffffffffffffffffffffffffffffffffffffffffffffffffffffffffffffffc3601126103535760206040516ec097ce7bc90715b34b9f10000000008152f35b346103535760207ffffffffffffffffffffffffffffffffffffffffffffffffffffffffffffffffc360112610353576106af6004356128fc816103b5565b612904613b6f565b611e16613852565b34610353575f7ffffffffffffffffffffffffffffffffffffffffffffffffffffffffffffffffc36011261035357602073ffffffffffffffffffffffffffffffffffffffff61086a5416604051908152f35b7f4e487b71000000000000000000000000000000000000000000000000000000005f52603260045260245ffd5b61086c9081548110156129c5576003915f52027f71cd7344f4eb2efc8e30291f6dbdb44d618ca368ea5425d217c1d604bf26b84d01905f90565b61295e565b346103535760207ffffffffffffffffffffffffffffffffffffffffffffffffffffffffffffffffc3601126103535760043561086c5481101561035357612a1260409161298b565b506001815491015482519182526020820152f35b346103535760a07ffffffffffffffffffffffffffffffffffffffffffffffffffffffffffffffffc36011261035357600435612a61816103e0565b612af2602435612a70816103b5565b604435612a7c816103b5565b60643590612a89826103b5565b60843592612a96846103b5565b5f5495612aba60ff8860081c161580988199612ba6575b8115612b86575b50612eb3565b86612ae960017fffffffffffffffffffffffffffffffffffffffffffffffffffffffffffffff005f5416175f55565b612b52576136e9565b612af857005b612b237fffffffffffffffffffffffffffffffffffffffffffffffffffffffffffff00ff5f54165f55565b604051600181527f7f26b83ff96e1f2b6a682f133852f6798a09c465da95921460cefb384740249890602090a1005b612b816101007fffffffffffffffffffffffffffffffffffffffffffffffffffffffffffff00ff5f5416175f55565b6136e9565b303b15915081612b98575b505f612ab4565b6001915060ff16145f612b91565b600160ff8216109150612aad565b918151151580612d64575b612d3a57612bcb613852565b6080820191612bd8614ba0565b602081019182514603612d1057612c00612c0491836001612bf88961298b565b500154614c73565b1590565b612ce6578060607ff8bd640004bcec1b89657020f561d0b070cbdf662d0b158db9dccb0a8301bfab920193612c46612c40865163ffffffff1690565b87614d45565b612cd9845194612cbe612ca3855195612c9360408201998a51612c6d8d5163ffffffff1690565b895173ffffffffffffffffffffffffffffffffffffffff169160a086019b8c5194614db2565b5192519751985163ffffffff1690565b935173ffffffffffffffffffffffffffffffffffffffff1690565b935163ffffffff9485604051968796169a1698339386613c8d565b0390a46103de6001606555565b60046040517fb05e92fa000000000000000000000000000000000000000000000000000000008152fd5b60046040517f7a47c9a2000000000000000000000000000000000000000000000000000000008152fd5b60046040517fba092d16000000000000000000000000000000000000000000000000000000008152fd5b5032331415612bbf565b35610606816103e0565b35610606816103b5565b91906101808382031261035357612d9761053a565b92612da1816103d3565b8452612daf602082016103d3565b6020850152612dc0604082016103d3565b6040850152612dd1606082016103d3565b6060850152612de2608082016103d3565b608085015260a081013560a085015260c081013560c085015260e081013560e0850152610100612e138183016103fc565b90850152610120612e258183016103fc565b90850152610140612e378183016103fc565b90850152610160918282013567ffffffffffffffff811161035357612e5c92016105eb565b90830152565b9035907fffffffffffffffffffffffffffffffffffffffffffffffffffffffffffffffe181360301821215610353570180359067ffffffffffffffff82116103535760200191813603831361035357565b1561035357565b80518210156129c55760209160051b010190565b908210156129c5576110529160051b810190612e62565b908092918237015f815290565b3d15612f1c573d90612f038261057b565b91612f1160405193846104d9565b82523d5f602084013e565b606090565b601f82602094937fffffffffffffffffffffffffffffffffffffffffffffffffffffffffffffffe093818652868601375f8582860101520116010190565b7f4e487b71000000000000000000000000000000000000000000000000000000005f52601160045260245ffd5b96929993979a94989091959863ffffffff9b8c80421691168101918d831161333457612fb6613852565b61086b9a60ff8c5460e81c166106b65761300d612c006130068f612ff98e73ffffffffffffffffffffffffffffffffffffffff165f5261086d60205260405f2090565b905f5260205260405f2090565b5460ff1690565b61330a578e61301c84426133a5565b907f000000000000000000000000000000000000000000000000000000000000000016106132e0578e8085164281109182156132aa575b5050613280578e9b73ffffffffffffffffffffffffffffffffffffffff9c8d89169087169081811761321a575b50508c7f0000000000000000000000000000000000000000000000000000000000000000168d8c1681811480613211575b156131f757508234036131cd57803b15610353575f600491604051928380927fd0e30db000000000000000000000000000000000000000000000000000000000825234905af180156131c8576131af575b505b5460c01c63ffffffff169e8f613119906133ca565b61316d9061086b907fffffffff00000000ffffffffffffffffffffffffffffffffffffffffffffffff7bffffffff00000000000000000000000000000000000000000000000083549260c01b169116179055565b6040519c8d9c169f169d6131819a8c6133df565b037fa123dc29aebf7d0c3322c8eeb5b999e859f39937950ed31056532713d0de396f91a46103de6001606555565b806131bc6131c292610455565b80610349565b5f613102565b6133bf565b60046040517f6452a35d000000000000000000000000000000000000000000000000000000008152fd5b9050346131cd578261320c9130903390614945565b613104565b503415156130b1565b1561325657421161322c575f80613080565b60046040517f25a63a5b000000000000000000000000000000000000000000000000000000008152fd5b60046040517f495d907f000000000000000000000000000000000000000000000000000000008152fd5b60046040517f582e3889000000000000000000000000000000000000000000000000000000008152fd5b6132d89192507f000000000000000000000000000000000000000000000000000000000000000016426133b2565b108f80613053565b60046040517ff722177f000000000000000000000000000000000000000000000000000000008152fd5b60046040517f2a58c4f3000000000000000000000000000000000000000000000000000000008152fd5b612f5f565b979b95999196939b9a949890929a61334f613852565b61086b9960ff8b5460e81c166106b657613392612c006130068e612ff98d73ffffffffffffffffffffffffffffffffffffffff165f5261086d60205260405f2090565b61330a5763ffffffff9d8e61301c818516425b9190820391821161333457565b9190820180921161333457565b6040513d5f823e3d90fd5b63ffffffff8091169081146133345760010190565b73ffffffffffffffffffffffffffffffffffffffff918216815291811660208301526040820192909252606081019290925263ffffffff928316608083015292821660a0820152921660c083015291821660e08201529116610100820152610140610120820181905261060693910191612f21565b7f4e487b71000000000000000000000000000000000000000000000000000000005f52602160045260245ffd5b6003111561348b57565b613454565b96909193979295946106069b99956101409973ffffffffffffffffffffffffffffffffffffffff98898098818098168d521660208c015260408b015260608a015263ffffffff80921660808a01521660a08801521660c08601521660e084015216610100820152816101208201520191612f21565b9061350f82610847565b61351c60405191826104d9565b8281527fffffffffffffffffffffffffffffffffffffffffffffffffffffffffffffffe061354a8294610847565b01905f5b82811061355a57505050565b80606060208093850101520161354e565b6020818303126103535780519067ffffffffffffffff8211610353570181601f8201121561035357805161359e8161057b565b926135ac60405194856104d9565b81845260208284010111610353576106069160208085019101611056565b94909693956135d7613852565b60ff61086b5460e01c16610de6576135f26101408701612d6e565b63ffffffff4291161015806136be575b610d91576136103687612d82565b61361990613e85565b9761362261051a565b9861362d3689612d82565b8a5260208a01526040890184905273ffffffffffffffffffffffffffffffffffffffff851660608a015261366236848a6105b5565b60808a015260a089015261367586612d78565b966136836101008801612d6e565b92369061368f926105b5565b94369061369b926105b5565b9460e00135906136aa96614832565b336136b491614037565b6103de6001606555565b506136cb60408701612d78565b73ffffffffffffffffffffffffffffffffffffffff16331415613602565b939293919091610c5b7fffffffffffffffffffffff00ffffffffffffffffffffffffffffffffffffffff815416905560ff5f5460081c1615610353576137799061086b907fffffffff00000000ffffffffffffffffffffffffffffffffffffffffffffffff7bffffffff00000000000000000000000000000000000000000000000083549260c01b169116179055565b6040519161378683610434565b60098352602083017f4143524f53532d5632000000000000000000000000000000000000000000000081527f312e302e3000000000000000000000000000000000000000000000000000000060206040516137e081610434565b60058152015260ff5f5460081c1615610353576103de95610ad673ffffffffffffffffffffffffffffffffffffffff9461384c9361256d9751902061047f557f06c015bd22b4c69690933c1058878ebdfef31f9aaae40bbe86d8a09fe1b2972c61048055611e0e6149af565b16613baa565b600260655414610353576002606555565b929361060696959192946101409573ffffffffffffffffffffffffffffffffffffffff80951686525f60208701526040860152606085015263ffffffff809116608085015260a08401525f60c08401521660e08201525f610100820152816101208201520190611077565b9195969394929092613909612c0061300688612ff98b73ffffffffffffffffffffffffffffffffffffffff165f5261086d60205260405f2090565b61330a5760070b936706f05b59d3b2000061392386614c2e565b1015613b45576ec097ce7bc90715b34b9f10000000008211613b1b5763ffffffff93613951858a16426133a5565b857f000000000000000000000000000000000000000000000000000000000000000016106132e05761086b5460c01c63ffffffff16986139e36139938b6133ca565b61086b907fffffffff00000000ffffffffffffffffffffffffffffffffffffffffffffffff7bffffffff00000000000000000000000000000000000000000000000083549260c01b169116179055565b73ffffffffffffffffffffffffffffffffffffffff95867f00000000000000000000000000000000000000000000000000000000000000001694878b1686811480613b12575b15613ad557508034036131cd57853b15610353575f600496604051978880927fd0e30db000000000000000000000000000000000000000000000000000000000825234905af180156131c8577fa123dc29aebf7d0c3322c8eeb5b999e859f39937950ed31056532713d0de396f99613abd97613aac92613ac2575b505b82614c3d565b91604051988998169c169a87613863565b0390a4565b806131bc613acf92610455565b5f613aa4565b613abd96507fa123dc29aebf7d0c3322c8eeb5b999e859f39937950ed31056532713d0de396f99613b0d83613aac9330903390614945565b613aa6565b50341515613a29565b60046040517fc45b6b52000000000000000000000000000000000000000000000000000000008152fd5b60046040517fa13c425c000000000000000000000000000000000000000000000000000000008152fd5b60ff610c5b5460a01c1615613b8057565b60046040517f877d8319000000000000000000000000000000000000000000000000000000008152fd5b73ffffffffffffffffffffffffffffffffffffffff16610c5b817fffffffffffffffffffffffff00000000000000000000000000000000000000008254161790557f6ade7bc58132776cc11d9b570837a732329396078de17b87db95463ca7f5d25f5f80a2565b9081518082526020808093019301915f5b828110613c30575050505090565b835185529381019392810192600101613c22565b9081518082526020808093019301915f5b828110613c63575050505090565b835173ffffffffffffffffffffffffffffffffffffffff1685529381019392810192600101613c55565b93613caf60809493613cda93989798875260a0602088015260a0870190613c11565b9073ffffffffffffffffffffffffffffffffffffffff80941660408701528582036060870152613c44565b9416910152565b73ffffffffffffffffffffffffffffffffffffffff168015613d4e5761086a817fffffffffffffffffffffffff00000000000000000000000000000000000000008254161790557f1f17a88f67b0f49060a34bec1a4723a563620e6aa265eb640b5046dcee0759a05f80a2565b60046040517f2d234e48000000000000000000000000000000000000000000000000000000008152fd5b805173ffffffffffffffffffffffffffffffffffffffff168252610606916101809060208381015173ffffffffffffffffffffffffffffffffffffffff169082015260408381015173ffffffffffffffffffffffffffffffffffffffff169082015260608381015173ffffffffffffffffffffffffffffffffffffffff169082015260808381015173ffffffffffffffffffffffffffffffffffffffff169082015260a083015160a082015260c083015160c082015260e083015160e0820152613e50610100808501519083019063ffffffff169052565b6101208381015163ffffffff16908201526101408381015163ffffffff16908201528161016080940151938201520190611077565b604051613ed481613ea26020820194604086526060830190613d78565b466040830152037fffffffffffffffffffffffffffffffffffffffffffffffffffffffffffffffe081018352826104d9565b51902090565b613ee382613481565b52565b9073ffffffffffffffffffffffffffffffffffffffff8251168152606080613f1d6020850151608060208601526080850190611077565b9360408101516040850152015191613f3483613481565b015290565b9a97909695613fde966106069d9b9660808e613fc098613fed9e986101809d73ffffffffffffffffffffffffffffffffffffffff998a80921685521660208401526040830152606082015201528c60a063ffffffff8094169101521660c08c01521660e08a015261010089019073ffffffffffffffffffffffffffffffffffffffff169052565b73ffffffffffffffffffffffffffffffffffffffff16610120870152565b80610140860152840190611077565b91610160818403910152613ee6565b90610606949360809373ffffffffffffffffffffffffffffffffffffffff809316845260208401521660408201528160608201520190611077565b80519161012083019061404e825163ffffffff1690565b63ffffffff429116106143e75760208301516001614075825f5261087260205260405f2090565b54036143e0576001905b6002614094825f5261087260205260405f2090565b54146143b6576140ad905f5261087260205260405f2090565b60029055606085015173ffffffffffffffffffffffffffffffffffffffff16608086015173ffffffffffffffffffffffffffffffffffffffff169260a0870151918660c0890151948960a08301519660e0820151976101008301516141159063ffffffff1690565b9a5163ffffffff1661014084015163ffffffff1690604085015161414c9073ffffffffffffffffffffffffffffffffffffffff1690565b92855161416c9073ffffffffffffffffffffffffffffffffffffffff1690565b94602087015161418f9073ffffffffffffffffffffffffffffffffffffffff1690565b9661016001519760608a01516141b89073ffffffffffffffffffffffffffffffffffffffff1690565b9960808101519060400151906141cc61055b565b73ffffffffffffffffffffffffffffffffffffffff909c168c5260208c015260408b01526141fd9060608b01613eda565b6040519b73ffffffffffffffffffffffffffffffffffffffff8d9c169f63ffffffff169e61422b9b8d613f39565b037f571749edf1d5c9599318cdbc4e28a6475d65e87fd3b2ddbe1e9a8d5e7a0f0ff791a4606081015173ffffffffffffffffffffffffffffffffffffffff16918290338214806143ae575b61431e576080015173ffffffffffffffffffffffffffffffffffffffff1692608060408401519373ffffffffffffffffffffffffffffffffffffffff8616858573ffffffffffffffffffffffffffffffffffffffff7f00000000000000000000000000000000000000000000000000000000000000001683145f1461439e57506143039130903390614945565b61430d8584614f57565b0151913b151580614394575b614324575b50505050565b803b156103535761436a935f8094604051968795869485937f3a5be8cb000000000000000000000000000000000000000000000000000000008552339160048601613ffc565b03925af180156131c857614381575b80808061431e565b806131bc61438e92610455565b5f614379565b5081511515614319565b6143a9923390614945565b61430d565b506001614276565b60046040517f8f260c60000000000000000000000000000000000000000000000000000000008152fd5b5f9061407f565b60046040517fd642b7d9000000000000000000000000000000000000000000000000000000008152fd5b905f82516101208101614428815163ffffffff1690565b63ffffffff429116106143e7576020850151600261444f825f5261087260205260405f2090565b54146143b657614468905f5261087260205260405f2090565b60029055606082015173ffffffffffffffffffffffffffffffffffffffff16608083015173ffffffffffffffffffffffffffffffffffffffff169060a08401519260c0850151918860a0810151938760e0810151956101008201516144d09063ffffffff1690565b955163ffffffff1661014083015163ffffffff16604084015173ffffffffffffffffffffffffffffffffffffffff1691845161451f9073ffffffffffffffffffffffffffffffffffffffff1690565b9360208601516145429073ffffffffffffffffffffffffffffffffffffffff1690565b95610160015196606089015161456b9073ffffffffffffffffffffffffffffffffffffffff1690565b98608081015190604001519061457f61055b565b73ffffffffffffffffffffffffffffffffffffffff909b168b5260208b015260408a0152600260608a01526040519d63ffffffff8f9c169d6145c19b8d613f39565b037f571749edf1d5c9599318cdbc4e28a6475d65e87fd3b2ddbe1e9a8d5e7a0f0ff7905f94a4606084015173ffffffffffffffffffffffffffffffffffffffff169073ffffffffffffffffffffffffffffffffffffffff94858316918233148061475c575b614753576080015173ffffffffffffffffffffffffffffffffffffffff169060408101519687818416917f00000000000000000000000000000000000000000000000000000000000000001682145f1461473c57906080929187614728575b614690915085614f57565b0151923b15158061471e575b6146a9575b505050509050565b813b1561471a57836146ee9596604051968795869485937f3a5be8cb000000000000000000000000000000000000000000000000000000008552339160048601613ffc565b03925af180156131c857614707575b80808084936146a1565b806131bc61471492610455565b5f6146fd565b8380fd5b508251151561469c565b6147359130903390614945565b5f88614685565b60809291965061474e90865f98614ed0565b614690565b50505050509050565b505f614626565b90816020910312610353575190565b5f80925f935b818510614786575050505050565b614791858386612ece565b9190600492831161035357357fffffffff00000000000000000000000000000000000000000000000000000000167f1b3d555900000000000000000000000000000000000000000000000000000000036148205750826147f85750600180945b0193614778565b6040517f47306cb5000000000000000000000000000000000000000000000000000000008152fd5b809593506147f85750600180926147f1565b939260429373ffffffffffffffffffffffffffffffffffffffff6103de989760208151910120916040519363ffffffff60208601967f152eb71524aef34d838ab76573c14b1ebfa5e385d9ab29d7cf5398daa2438bd9885216604086015286606086015260808501521660a083015260c082015260c081526148b3816104a1565b5190209061047f549061048054906040519160208301937fc2f8787176b8ac6bf7215b4adcc1e069bf4ab82d9ab1df05a57a91d425935b6e855260408401526060830152608082015260808152614909816104bd565b51902090604051917f190100000000000000000000000000000000000000000000000000000000000083526002830152602282015220906151d9565b90926103de93604051937f23b872dd00000000000000000000000000000000000000000000000000000000602086015273ffffffffffffffffffffffffffffffffffffffff80921660248601521660448401526064830152606482526149aa826104bd565b6152f5565b60ff5f5460081c161561035357565b60ff5f5460081c1615610353576001606555565b73ffffffffffffffffffffffffffffffffffffffff168015614a3f57610869817fffffffffffffffffffffffff00000000000000000000000000000000000000008254161790557fa9e8c42c9e7fca7f62755189a16b2f5314d43d8fb24e91ba54e6d65f9314e8495f80a2565b60046040517fba97b39d000000000000000000000000000000000000000000000000000000008152fd5b73ffffffffffffffffffffffffffffffffffffffff16610c5a817fffffffffffffffffffffffff00000000000000000000000000000000000000008254161790557f573834b6d6901b74ef64eeb676a0b99d7946df822b7021e44ee0da19d846c4955f80a2565b91612c0090614b7092845160408096015191865191614aee83610469565b8252614b67614b09602084019246845289850195865261298b565b5054938851928391614b2e6020840196602088525160608d86015260a0850190613d78565b91516060840152516080830152037fffffffffffffffffffffffffffffffffffffffffffffffffffffffffffffffe081018352826104d9565b51902091615392565b614b775750565b600490517fb05e92fa000000000000000000000000000000000000000000000000000000008152fd5b4780614baa575b50565b73ffffffffffffffffffffffffffffffffffffffff7f000000000000000000000000000000000000000000000000000000000000000016803b15610353575f906004604051809481937fd0e30db00000000000000000000000000000000000000000000000000000000083525af180156131c857614c255750565b6103de90610455565b5f8112614c385790565b5f0390565b90670de0b6b3a7640000915f82840392128383128116908484139015161761333457818102918183041490151715613334570490565b6106069291604051614b6781614d19602082019460208652805160408401526020810151606084015260a0614cb8604083015160c06080870152610100860190613c11565b9163ffffffff6060820151168286015273ffffffffffffffffffffffffffffffffffffffff60808201511660c086015201517fffffffffffffffffffffffffffffffffffffffffffffffffffffffffffffffc08483030160e0850152613c44565b037fffffffffffffffffffffffffffffffffffffffffffffffffffffffffffffffe081018352826104d9565b614d5060029161298b565b500162ffffff8260081c16805f5281602052600160ff60405f205494161b8080941614614d88575f5260205260405f20908154179055565b60046040517f954476d9000000000000000000000000000000000000000000000000000000008152fd5b9294939190938051825103614ea6578151915f5b838110614e3e575050505082614ddc5750505050565b73ffffffffffffffffffffffffffffffffffffffff81614e1d7f828fc203220356df8f072a91681caee7d5c75095e2a95e80ed5a14b384697f7193866153e3565b6040805195865233602087015291169463ffffffff1693a45f80808061431e565b80614e4b60019284612eba565b5180614e59575b5001614dc6565b614ea090614e84614e6a8488612eba565b5173ffffffffffffffffffffffffffffffffffffffff1690565b73ffffffffffffffffffffffffffffffffffffffff8916614ed0565b5f614e52565b60046040517fcd298b38000000000000000000000000000000000000000000000000000000008152fd5b6040517fa9059cbb00000000000000000000000000000000000000000000000000000000602082015273ffffffffffffffffffffffffffffffffffffffff909216602483015260448201929092526103de916149aa82606481015b037fffffffffffffffffffffffffffffffffffffffffffffffffffffffffffffffe081018452836104d9565b73ffffffffffffffffffffffffffffffffffffffff90811690813b15614fa457906103de92917f000000000000000000000000000000000000000000000000000000000000000016614ed0565b7f000000000000000000000000000000000000000000000000000000000000000016803b15610353575f80916024604051809481937f2e1a7d4d0000000000000000000000000000000000000000000000000000000083528860048401525af180156131c85761502f575b50814710610353575f80809381935af1615027612ef2565b501561035357565b61503890610455565b5f61500f565b61504781615171565b73ffffffffffffffffffffffffffffffffffffffff81167fbc7cd75a20ee27fd9adebab32041f755214dbc6bffa90cc0225b39da2e5c2d3b5f80a281511580159061510c575b615095575050565b5f80614ba7937f206661696c656400000000000000000000000000000000000000000000000000604080516150c981610469565b602781527f416464726573733a206c6f772d6c6576656c2064656c65676174652063616c6c60208201520152602081519101845af4615106612ef2565b9161592b565b505f61508d565b61511c81615171565b73ffffffffffffffffffffffffffffffffffffffff81167fbc7cd75a20ee27fd9adebab32041f755214dbc6bffa90cc0225b39da2e5c2d3b5f80a281511580159061516957615095575050565b50600161508d565b803b156103535773ffffffffffffffffffffffffffffffffffffffff7f360894a13ba1a3210667c828492db98dca3e2076cc3735a920a3ca505d382bbc91167fffffffffffffffffffffffff0000000000000000000000000000000000000000825416179055565b6151e383836158fa565b600581959295101561348b571593846152d2575b508315615233575b5050501561520957565b60046040517f938a1821000000000000000000000000000000000000000000000000000000008152fd5b5f92935090829160405161528481614d1960208201947f1626ba7e00000000000000000000000000000000000000000000000000000000998a87526024840152604060448401526064830190611077565b51915afa90615291612ef2565b826152c4575b826152a7575b50505f80806151ff565b6152bc91925060208082518301019101614763565b145f8061529d565b915060208251101591615297565b73ffffffffffffffffffffffffffffffffffffffff83811691161493505f6151f7565b905f8073ffffffffffffffffffffffffffffffffffffffff6153599416927f5361666545524332303a206c6f772d6c6576656c2063616c6c206661696c6564602060405161534281610434565b818152015260208151910182855af1615106612ef2565b805190811591821561536f575b50501561035357565b8192509060209181010312610353576020015161538b81610adb565b5f80615366565b929091905f915b84518310156153db576153ac8386612eba565b5190818110156153ca575f52602052600160405f205b920191615399565b905f52602052600160405f206153c2565b915092501490565b9073ffffffffffffffffffffffffffffffffffffffff90817f00000000000000000000000000000000000000000000000000000000000000001615158061551d575b156154555750506103de9061545061086a5473ffffffffffffffffffffffffffffffffffffffff1690565b615685565b166154a46121f6610c5b61548a856154846121f6845473ffffffffffffffffffffffffffffffffffffffff1690565b8661554a565b5473ffffffffffffffffffffffffffffffffffffffff1690565b91823b15610353576040517fd0679d3400000000000000000000000000000000000000000000000000000000815273ffffffffffffffffffffffffffffffffffffffff9290921660048301526024820152905f908290604490829084905af180156131c8576155105750565b806131bc6103de92610455565b50817f00000000000000000000000000000000000000000000000000000000000000001682821614615425565b6040517fdd62ed3e00000000000000000000000000000000000000000000000000000000815230600482015273ffffffffffffffffffffffffffffffffffffffff8316602482015291926020838060448101038173ffffffffffffffffffffffffffffffffffffffff86165afa9283156131c8575f9361562f575b508201809211613334576040517f095ea7b300000000000000000000000000000000000000000000000000000000602082015273ffffffffffffffffffffffffffffffffffffffff909316602484015260448301919091526103de91906149aa8260648101614f2b565b61564991935060203d602011610f7f57610f7081836104d9565b915f6155c5565b908160209103126103535751610606816103b5565b90816020910312610353575167ffffffffffffffff811681036103535790565b7f00000000000000000000000000000000000000000000000000000000000000009073ffffffffffffffffffffffffffffffffffffffff92837f000000000000000000000000000000000000000000000000000000000000000016916156ec82848661554a565b604092604051937fcb75c11c0000000000000000000000000000000000000000000000000000000085526020936004908587600481875afa9788156131c85789975f996158c3575b506040517fa56ec63200000000000000000000000000000000000000000000000000000000815273ffffffffffffffffffffffffffffffffffffffff918916918216600482015299909887918b9190829081602481015b0392165afa9889156131c8575f996158a4575b509390951696947f000000000000000000000000000000000000000000000000000000000000000093805b6157d857505050505050505050565b61584f908781111561589e5787905b84517f6fd3504e00000000000000000000000000000000000000000000000000000000815284810183815263ffffffff89166020820152604081018d905273ffffffffffffffffffffffffffffffffffffffff8c166060820152909389918591829160800190565b03815f8a5af19283156131c85761586b93615871575b506133a5565b806157c9565b61589090893d8b11615897575b61588881836104d9565b810190615665565b505f615865565b503d61587e565b806157e7565b6158bc919950863d8811610f7f57610f7081836104d9565b975f61579e565b87919950886158ea61578b92843d86116158f3575b6158e281836104d9565b810190615650565b9a925050615734565b503d6158d8565b9060418151145f146159225761105291602082015190606060408401519301515f1a90615954565b50505f90600290565b90156159455781511561593c575090565b3b156103535790565b50805190811561035357602001fd5b7f7fffffffffffffffffffffffffffffff5d576e7357a4501ddfe92f46681b20a084116159d1576020935f9360ff60809460405194855216868401526040830152606082015282805260015afa156131c8575f5173ffffffffffffffffffffffffffffffffffffffff8116156159c957905f90565b505f90600190565b505050505f9060039056fea26469706673582212202cadb10b6ae7dd77b21b28a993b6a5f940b442aacbf9345da7a12dea2499f43464736f6c63430008170033",
  "devdoc": {
    "events": {
      "AdminChanged(address,address)": {
        "details": "Emitted when the admin account has changed."
      },
      "BeaconUpgraded(address)": {
        "details": "Emitted when the beacon is changed."
      },
      "FilledRelay(uint256,uint256,uint256,uint256,uint256,uint256,int64,int64,uint32,address,address,address,address,bytes,(address,bytes,int64,bool,int256))": {
        "custom:audit": "FOLLOWING EVENT TO BE DEPRECATED"
      },
      "FundsDeposited(uint256,uint256,uint256,int64,uint32,uint32,address,address,address,bytes)": {
        "custom:audit": "FOLLOWING EVENT TO BE DEPRECATED"
      },
      "Initialized(uint8)": {
        "details": "Triggered when the contract has been initialized or reinitialized."
      },
      "RequestedSpeedUpDeposit(int64,uint32,address,address,bytes,bytes)": {
        "custom:audit": "FOLLOWING EVENT TO BE DEPRECATED"
      },
      "Upgraded(address)": {
        "details": "Emitted when the implementation is upgraded."
      }
    },
    "kind": "dev",
    "methods": {
      "__SpokePool_init(uint32,address,address)": {
        "params": {
          "_crossDomainAdmin": "Cross domain admin to set. Can be changed by admin.",
          "_hubPool": "Hub pool address to set. Can be changed by admin.",
          "_initialDepositId": "Starting deposit ID. Set to 0 unless this is a re-deployment in order to mitigate relay hash collisions."
        }
      },
      "chainId()": {
        "details": "Some L2s like ZKSync don't support the CHAIN_ID opcode so we allow the implementer to override this."
      },
      "constructor": {
        "custom:oz-upgrades-unsafe-allow": "constructor"
      },
      "deposit(address,address,uint256,uint256,int64,uint32,bytes,uint256)": {
        "details": "Produces a V3FundsDeposited event with an infinite expiry, meaning that this deposit can never expire. Moreover, the event's outputToken is set to 0x0 meaning that this deposit can always be slow filled.",
        "params": {
          "amount": "Amount of tokens to deposit. Will be amount of tokens to receive less fees.",
          "destinationChainId": "Denotes network where user will receive funds from SpokePool by a relayer.",
          "message": "Arbitrary data that can be used to pass additional information to the recipient along with the tokens. Note: this is intended to be used to pass along instructions for how a contract should use or allocate the tokens.",
          "originToken": "Token to lock into this contract to initiate deposit.",
          "quoteTimestamp": "Timestamp used by relayers to compute this deposit's realizedLPFeePct which is paid to LP pool on HubPool.",
          "recipient": "Address to receive funds at on destination chain.",
          "relayerFeePct": "% of deposit amount taken out to incentivize a fast relayer."
        }
      },
      "depositFor(address,address,address,uint256,uint256,int64,uint32,bytes,uint256)": {
        "params": {
          "amount": "Amount of tokens to deposit. Will be amount of tokens to receive less fees.",
          "depositor": "Address who is credited for depositing funds on origin chain and can speed up the deposit.",
          "destinationChainId": "Denotes network where user will receive funds from SpokePool by a relayer.",
          "message": "Arbitrary data that can be used to pass additional information to the recipient along with the tokens. Note: this is intended to be used to pass along instructions for how a contract should use or allocate the tokens.",
          "originToken": "Token to lock into this contract to initiate deposit.",
          "quoteTimestamp": "Timestamp used by relayers to compute this deposit's realizedLPFeePct which is paid to LP pool on HubPool.",
          "recipient": "Address to receive funds at on destination chain.",
          "relayerFeePct": "% of deposit amount taken out to incentivize a fast relayer."
        }
      },
      "depositV3(address,address,address,address,uint256,uint256,uint256,address,uint32,uint32,uint32,bytes)": {
        "details": "On the destination chain, the hash of the deposit data will be used to uniquely identify this deposit, so modifying any params in it will result in a different hash and a different deposit. The hash will comprise all parameters to this function along with this chain's chainId(). Relayers are only refunded for filling deposits with deposit hashes that map exactly to the one emitted by this contract.",
        "params": {
          "depositor": "The account credited with the deposit who can request to \"speed up\" this deposit by modifying the output amount, recipient, and message.",
          "destinationChainId": "The destination chain identifier. Must be enabled along with the input token as a valid deposit route from this spoke pool or this transaction will revert.",
          "exclusiveRelayer": "The relayer that will be exclusively allowed to fill this deposit before the exclusivity deadline timestamp. This must be a valid, non-zero address if the exclusivity deadline is greater than the current block.timestamp. If the exclusivity deadline is < currentTime, then this must be address(0), and vice versa if this is address(0).",
          "exclusivityDeadline": "The deadline for the exclusive relayer to fill the deposit. After this destination chain timestamp, anyone can fill this deposit on the destination chain. If exclusiveRelayer is set to address(0), then this also must be set to 0, (and vice versa), otherwise this must be set >= current time.",
          "fillDeadline": "The deadline for the relayer to fill the deposit. After this destination chain timestamp, the fill will revert on the destination chain. Must be set between [currentTime, currentTime + fillDeadlineBuffer] where currentTime is block.timestamp on this chain or this transaction will revert.",
          "inputAmount": "The amount of input tokens to pull from the caller's account and lock into this contract. This amount will be sent to the relayer on their repayment chain of choice as a refund following an optimistic challenge window in the HubPool, less a system fee.",
          "inputToken": "The token pulled from the caller's account and locked into this contract to initiate the deposit. The equivalent of this token on the relayer's repayment chain of choice will be sent as a refund. If this is equal to the wrapped native token then the caller can optionally pass in native token as msg.value, as long as msg.value = inputTokenAmount.",
          "message": "The message to send to the recipient on the destination chain if the recipient is a contract. If the message is not empty, the recipient contract must implement handleV3AcrossMessage() or the fill will revert.",
          "outputAmount": "The amount of output tokens that the relayer will send to the recipient on the destination.",
          "outputToken": "The token that the relayer will send to the recipient on the destination chain. Must be an ERC20.",
          "quoteTimestamp": "The HubPool timestamp that is used to determine the system fee paid by the depositor.  This must be set to some time between [currentTime - depositQuoteTimeBuffer, currentTime] where currentTime is block.timestamp on this chain or this transaction will revert.",
          "recipient": "The account receiving funds on the destination chain. Can be an EOA or a contract. If the output token is the wrapped native token for the chain, then the recipient will receive native token if an EOA or wrapped native token if a contract."
        }
      },
      "depositV3Now(address,address,address,address,uint256,uint256,uint256,address,uint32,uint32,bytes)": {
        "params": {
          "depositor": "The account credited with the deposit who can request to \"speed up\" this deposit by modifying the output amount, recipient, and message.",
          "destinationChainId": "The destination chain identifier. Must be enabled along with the input token as a valid deposit route from this spoke pool or this transaction will revert.",
          "exclusiveRelayer": "The relayer that will be exclusively allowed to fill this deposit before the exclusivity deadline timestamp.",
          "exclusivityDeadline": "The latest timestamp that only the exclusive relayer can fill the deposit. After this destination chain timestamp, anyone can fill this deposit on the destination chain. Should be 0 if exclusive relayer is 0.",
          "fillDeadlineOffset": "Added to the current time to set the fill deadline, which is the deadline for the relayer to fill the deposit. After this destination chain timestamp, the fill will revert on the destination chain.",
          "inputAmount": "The amount of input tokens to pull from the caller's account and lock into this contract. This amount will be sent to the relayer on their repayment chain of choice as a refund following an optimistic challenge window in the HubPool, plus a system fee.",
          "inputToken": "The token pulled from the caller's account and locked into this contract to initiate the deposit. The equivalent of this token on the relayer's repayment chain of choice will be sent as a refund. If this is equal to the wrapped native token then the caller can optionally pass in native token as msg.value, as long as msg.value = inputTokenAmount.",
          "message": "The message to send to the recipient on the destination chain if the recipient is a contract. If the message is not empty, the recipient contract must implement handleV3AcrossMessage() or the fill will revert.",
          "outputAmount": "The amount of output tokens that the relayer will send to the recipient on the destination.",
          "outputToken": "The token that the relayer will send to the recipient on the destination chain. Must be an ERC20.",
          "recipient": "The account receiving funds on the destination chain. Can be an EOA or a contract. If the output token is the wrapped native token for the chain, then the recipient will receive native token if an EOA or wrapped native token if a contract."
        }
      },
      "emergencyDeleteRootBundle(uint256)": {
        "params": {
          "rootBundleId": "Index of the root bundle that needs to be deleted. Note: this is intentionally a uint256 to ensure that a small input range doesn't limit which indices this method is able to reach."
        }
      },
      "executeV3SlowRelayLeaf(((address,address,address,address,address,uint256,uint256,uint256,uint32,uint32,uint32,bytes),uint256,uint256),uint32,bytes32[])": {
        "details": "Executing a slow fill leaf is equivalent to filling the relayData so this function cannot be used to double fill a recipient. The relayData that is filled is included in the slowFillLeaf and is hashed like any other fill sent through fillV3Relay().There is no relayer credited with filling this relay since funds are sent directly out of this contract.",
        "params": {
          "proof": "Inclusion proof for this leaf in slow relay root in root bundle.",
          "rootBundleId": "Unique ID of root bundle containing slow relay root that this leaf is contained in.",
          "slowFillLeaf": "Contains all data necessary to uniquely identify a relay for this chain. This struct is hashed and included in a merkle root that is relayed to all spoke pools. - relayData: struct containing all the data needed to identify the original deposit to be slow filled. - chainId: chain identifier where slow fill leaf should be executed. If this doesn't match this chain's chainId, then this function will revert. - updatedOutputAmount: Amount to be sent to recipient out of this contract's balance. Can be set differently from relayData.outputAmount to charge a different fee because this deposit was \"slow\" filled. Usually, this will be set higher to reimburse the recipient for waiting for the slow fill."
        }
      },
      "fillV3Relay((address,address,address,address,address,uint256,uint256,uint256,uint32,uint32,uint32,bytes),uint256)": {
        "details": "The fee paid to relayers and the system should be captured in the spread between output amount and input amount when adjusted to be denominated in the input token. A relayer on the destination chain will send outputAmount of outputTokens to the recipient and receive inputTokens on a repayment chain of their choice. Therefore, the fee should account for destination fee transaction costs, the relayer's opportunity cost of capital while they wait to be refunded following an optimistic challenge window in the HubPool, and a system fee charged to relayers.The hash of the relayData will be used to uniquely identify the deposit to fill, so modifying any params in it will result in a different hash and a different deposit. The hash will comprise all parameters passed to depositV3() on the origin chain along with that chain's chainId(). This chain's chainId() must therefore match the destinationChainId passed into depositV3. Relayers are only refunded for filling deposits with deposit hashes that map exactly to the one emitted by the origin SpokePool therefore the relayer should not modify any params in relayData.Cannot fill more than once. Partial fills are not supported.",
        "params": {
          "relayData": "struct containing all the data needed to identify the deposit to be filled. Should match all the same-named parameters emitted in the origin chain V3FundsDeposited event. - depositor: The account credited with the deposit who can request to \"speed up\" this deposit by modifying the output amount, recipient, and message. - recipient The account receiving funds on this chain. Can be an EOA or a contract. If the output token is the wrapped native token for the chain, then the recipient will receive native token if an EOA or wrapped native token if a contract. - inputToken: The token pulled from the caller's account to initiate the deposit. The equivalent of this token on the repayment chain will be sent as a refund to the caller. - outputToken The token that the caller will send to the recipient on the destination chain. Must be an ERC20. - inputAmount: This amount, less a system fee, will be sent to the caller on their repayment chain of choice as a refund following an optimistic challenge window in the HubPool. - outputAmount: The amount of output tokens that the caller will send to the recipient. - originChainId: The origin chain identifier. - exclusiveRelayer The relayer that will be exclusively allowed to fill this deposit before the exclusivity deadline timestamp. - fillDeadline The deadline for the caller to fill the deposit. After this timestamp, the fill will revert on the destination chain. - exclusivityDeadline: The deadline for the exclusive relayer to fill the deposit. After this timestamp, anyone can fill this deposit. - message The message to send to the recipient if the recipient is a contract that implements a handleV3AcrossMessage() public function",
          "repaymentChainId": "Chain of SpokePool where relayer wants to be refunded after the challenge window has passed. Will receive inputAmount of the equivalent token to inputToken on the repayment chain."
        }
      },
      "fillV3RelayWithUpdatedDeposit((address,address,address,address,address,uint256,uint256,uint256,uint32,uint32,uint32,bytes),uint256,uint256,address,bytes,bytes)": {
        "details": "Subject to same exclusivity deadline rules as fillV3Relay().",
        "params": {
          "depositorSignature": "Signed EIP712 hashstruct containing the deposit ID. Should be signed by the depositor account.",
          "relayData": "struct containing all the data needed to identify the deposit to be filled. See fillV3Relay().",
          "repaymentChainId": "Chain of SpokePool where relayer wants to be refunded after the challenge window has passed. See fillV3Relay().",
          "updatedMessage": "New message to use for this deposit.",
          "updatedOutputAmount": "New output amount to use for this deposit.",
          "updatedRecipient": "New recipient to use for this deposit."
        }
      },
      "getCurrentTime()": {
        "returns": {
          "_0": "uint for the current timestamp."
        }
      },
      "initialize(uint32,address,address,address,address)": {
        "params": {
          "_crossDomainAdmin": "Cross domain admin to set. Can be changed by admin.",
          "_fxChild": "FxChild contract, changeable by Admin.",
          "_hubPool": "Hub pool address to set. Can be changed by admin.",
          "_initialDepositId": "Starting deposit ID. Set to 0 unless this is a re-deployment in order to mitigate relay hash collisions.",
          "_polygonTokenBridger": "Token routing contract that sends tokens from here to HubPool. Changeable by Admin."
        }
      },
      "pauseDeposits(bool)": {
        "details": "Affects `deposit()` but not `speedUpDeposit()`, so that existing deposits can be sped up and still relayed.",
        "params": {
          "pause": "true if the call is meant to pause the system, false if the call is meant to unpause it."
        }
      },
      "pauseFills(bool)": {
        "details": "Affects fillRelayWithUpdatedDeposit() and fillRelay().",
        "params": {
          "pause": "true if the call is meant to pause the system, false if the call is meant to unpause it."
        }
      },
      "processMessageFromRoot(uint256,address,bytes)": {
        "details": "stateId value isn't used because it isn't relevant for this method. It doesn't care what state sync triggered this call.",
        "params": {
          "data": "ABI encoded function call to execute on this contract.",
          "rootMessageSender": "Original L1 sender of data."
        }
      },
      "proxiableUUID()": {
        "details": "Implementation of the ERC1822 {proxiableUUID} function. This returns the storage slot used by the implementation. It is used to validate the implementation's compatibility when performing an upgrade. IMPORTANT: A proxy pointing at a proxiable contract should not be considered proxiable itself, because this risks bricking a proxy that upgrades to it, by delegating to itself until out of gas. Thus it is critical that this function revert if invoked through a proxy. This is guaranteed by the `notDelegated` modifier."
      },
      "relayRootBundle(bytes32,bytes32)": {
        "params": {
          "relayerRefundRoot": "Merkle root containing relayer refund leaves that can be individually executed via executeRelayerRefundLeaf().",
          "slowRelayRoot": "Merkle root containing slow relay fulfillment leaves that can be individually executed via executeSlowRelayLeaf()."
        }
      },
      "requestV3SlowFill((address,address,address,address,address,uint256,uint256,uint256,uint32,uint32,uint32,bytes))": {
        "details": "Slow fills are not possible unless the input and output tokens are \"equivalent\", i.e. they route to the same L1 token via PoolRebalanceRoutes.Slow fills are created by inserting slow fill objects into a merkle tree that is included in the next HubPool \"root bundle\". Once the optimistic challenge window has passed, the HubPool will relay the slow root to this chain via relayRootBundle(). Once the slow root is relayed, the slow fill can be executed by anyone who calls executeV3SlowRelayLeaf().Cannot request a slow fill if the fill deadline has passed.Cannot request a slow fill if the relay has already been filled or a slow fill has already been requested.",
        "params": {
          "relayData": "struct containing all the data needed to identify the deposit that should be slow filled. If any of the params are missing or different from the origin chain deposit, then Across will not include a slow fill for the intended deposit."
        }
      },
      "setCrossDomainAdmin(address)": {
        "params": {
          "newCrossDomainAdmin": "New cross domain admin."
        }
      },
      "setEnableRoute(address,uint256,bool)": {
        "params": {
          "destinationChainId": "Chain ID for where depositor wants to receive funds.",
          "enabled": "True to enable deposits, False otherwise.",
          "originToken": "Token that depositor can deposit to this contract."
        }
      },
      "setFxChild(address)": {
        "params": {
          "newFxChild": "New FxChild."
        }
      },
      "setHubPool(address)": {
        "params": {
          "newHubPool": "New hub pool."
        }
      },
      "setPolygonTokenBridger(address)": {
        "params": {
          "newPolygonTokenBridger": "New Polygon Token Bridger contract."
        }
      },
      "speedUpV3Deposit(address,uint32,uint256,address,bytes,bytes)": {
        "details": "the depositor and depositId must match the params in a V3FundsDeposited event that the depositor wants to speed up. The relayer has the option but not the obligation to use this updated information when filling the deposit via fillV3RelayWithUpdatedDeposit().",
        "params": {
          "depositId": "Deposit ID to speed up.",
          "depositor": "Depositor that must sign the depositorSignature and was the original depositor.",
          "depositorSignature": "Signed EIP712 hashstruct containing the deposit ID. Should be signed by the depositor account. If depositor is a contract, then should implement EIP1271 to sign as a contract. See _verifyUpdateV3DepositMessage() for more details about how this signature should be constructed.",
          "updatedMessage": "New message to use for this deposit. Can be modified if the recipient is a contract that expects to receive a message from the relay and for some reason needs to be modified.",
          "updatedOutputAmount": "New output amount to use for this deposit. Should be lower than previous value otherwise relayer has no incentive to use this updated value.",
          "updatedRecipient": "New recipient to use for this deposit. Can be modified if the recipient is a contract that expects to receive a message from the relay and for some reason needs to be modified."
        }
      },
      "upgradeTo(address)": {
        "custom:oz-upgrades-unsafe-allow-reachable": "delegatecall",
        "details": "Upgrade the implementation of the proxy to `newImplementation`. Calls {_authorizeUpgrade}. Emits an {Upgraded} event."
      },
      "upgradeToAndCall(address,bytes)": {
        "custom:oz-upgrades-unsafe-allow-reachable": "delegatecall",
        "details": "Upgrade the implementation of the proxy to `newImplementation`, and subsequently execute the function call encoded in `data`. Calls {_authorizeUpgrade}. Emits an {Upgraded} event."
      },
      "wrap()": {
        "details": "Unlike other ERC20 transfers, Matic transfers from L1 -> L2 bridging don't result in an L2 call into the contract receiving the tokens, so wrapping must be done via a separate transaction. In other words, we can't rely upon a `fallback()` method being triggered to wrap MATIC upon receiving it."
      }
    },
    "version": 1
  },
  "userdoc": {
    "events": {
      "FundsDeposited(uint256,uint256,uint256,int64,uint32,uint32,address,address,address,bytes)": {
        "notice": "EVENTS BELOW ARE DEPRECATED AND EXIST FOR BACKWARDS COMPATIBILITY ONLY."
      }
    },
    "kind": "user",
    "methods": {
      "__SpokePool_init(uint32,address,address)": {
        "notice": "Construct the base SpokePool."
      },
      "chainId()": {
        "notice": "Returns chain ID for this network."
      },
      "deposit(address,address,uint256,uint256,int64,uint32,bytes,uint256)": {
        "notice": "Called by user to bridge funds from origin to destination chain. Depositor will effectively lock tokens in this contract and receive a destination token on the destination chain. The origin => destination token mapping is stored on the L1 HubPool.The caller must first approve this contract to spend amount of originToken.The originToken => destinationChainId must be enabled.This method is payable because the caller is able to deposit native token if the originToken is wrappedNativeToken and this function will handle wrapping the native token to wrappedNativeToken."
      },
      "depositFor(address,address,address,uint256,uint256,int64,uint32,bytes,uint256)": {
        "notice": "The only difference between depositFor and deposit is that the depositor address stored in the relay hash can be overridden by the caller. This means that the passed in depositor can speed up the deposit, which is useful if the deposit is taken from the end user to a middle layer contract, like an aggregator or the SpokePoolVerifier, before calling deposit on this contract.The caller must first approve this contract to spend amount of originToken.The originToken => destinationChainId must be enabled.This method is payable because the caller is able to deposit native token if the originToken is wrappedNativeToken and this function will handle wrapping the native token to wrappedNativeToken."
      },
      "depositV3(address,address,address,address,uint256,uint256,uint256,address,uint32,uint32,uint32,bytes)": {
        "notice": "Request to bridge input token cross chain to a destination chain and receive a specified amount of output tokens. The fee paid to relayers and the system should be captured in the spread between output amount and input amount when adjusted to be denominated in the input token. A relayer on the destination chain will send outputAmount of outputTokens to the recipient and receive inputTokens on a repayment chain of their choice. Therefore, the fee should account for destination fee transaction costs, the relayer's opportunity cost of capital while they wait to be refunded following an optimistic challenge window in the HubPool, and the system fee that they'll be charged."
      },
      "depositV3Now(address,address,address,address,uint256,uint256,uint256,address,uint32,uint32,bytes)": {
        "notice": "Submits deposit and sets quoteTimestamp to current Time. Sets fill and exclusivity deadlines as offsets added to the current time. This function is designed to be called by users such as Multisig contracts who do not have certainty when their transaction will mine."
      },
      "emergencyDeleteRootBundle(uint256)": {
        "notice": "This method is intended to only be used in emergencies where a bad root bundle has reached the SpokePool."
      },
      "executeRelayerRefundLeaf(uint32,(uint256,uint256,uint256[],uint32,address,address[]),bytes32[])": {
        "notice": "This function can send an L2 to L1 message so we are extra cautious about preventing a griefing vector whereby someone batches this call with a bunch of other calls and produces a very large L2 burn transaction. This might make the L2 -> L1 message fail due to exceeding the L1 calldata limit."
      },
      "executeV3SlowRelayLeaf(((address,address,address,address,address,uint256,uint256,uint256,uint32,uint32,uint32,bytes),uint256,uint256),uint32,bytes32[])": {
        "notice": "Executes a slow relay leaf stored as part of a root bundle relayed by the HubPool."
      },
      "fillV3Relay((address,address,address,address,address,uint256,uint256,uint256,uint32,uint32,uint32,bytes),uint256)": {
        "notice": "Fulfill request to bridge cross chain by sending specified output tokens to the recipient."
      },
      "fillV3RelayWithUpdatedDeposit((address,address,address,address,address,uint256,uint256,uint256,uint32,uint32,uint32,bytes),uint256,uint256,address,bytes,bytes)": {
        "notice": "Identical to fillV3Relay except that the relayer wants to use a depositor's updated output amount, recipient, and/or message. The relayer should only use this function if they can supply a message signed by the depositor that contains the fill's matching deposit ID along with updated relay parameters. If the signature can be verified, then this function will emit a FilledV3Event that will be used by the system for refund verification purposes. In otherwords, this function is an alternative way to fill a a deposit than fillV3Relay."
      },
      "getCurrentTime()": {
        "notice": "Gets the current time."
      },
      "initialize(uint32,address,address,address,address)": {
        "notice": "Construct the Polygon SpokePool."
      },
      "pauseDeposits(bool)": {
        "notice": "Pauses deposit-related functions. This is intended to be used if this contract is deprecated or when something goes awry."
      },
      "pauseFills(bool)": {
        "notice": "Pauses fill-related functions. This is intended to be used if this contract is deprecated or when something goes awry."
      },
      "processMessageFromRoot(uint256,address,bytes)": {
        "notice": "Called by FxChild upon receiving L1 message that targets this contract. Performs an additional check that the L1 caller was the expected cross domain admin, and then delegate calls.Polygon bridge only executes this external function on the target Polygon contract when relaying messages from L1, so all functions on this SpokePool are expected to originate via this call."
      },
      "relayRootBundle(bytes32,bytes32)": {
        "notice": "This method stores a new root bundle in this contract that can be executed to refund relayers, fulfill slow relays, and send funds back to the HubPool on L1. This method can only be called by the admin and is designed to be called as part of a cross-chain message from the HubPool's executeRootBundle method."
      },
      "requestV3SlowFill((address,address,address,address,address,uint256,uint256,uint256,uint32,uint32,uint32,bytes))": {
        "notice": "Request Across to send LP funds to this contract to fulfill a slow fill relay for a deposit in the next bundle."
      },
      "setCrossDomainAdmin(address)": {
        "notice": "Change cross domain admin address. Callable by admin only."
      },
      "setEnableRoute(address,uint256,bool)": {
        "notice": "Enable/Disable an origin token => destination chain ID route for deposits. Callable by admin only."
      },
      "setFxChild(address)": {
        "notice": "Change FxChild address. Callable only by admin via processMessageFromRoot."
      },
      "setHubPool(address)": {
        "notice": "Change L1 hub pool address. Callable by admin only."
      },
      "setPolygonTokenBridger(address)": {
        "notice": "Change polygonTokenBridger address. Callable only by admin via processMessageFromRoot."
      },
      "speedUpV3Deposit(address,uint32,uint256,address,bytes,bytes)": {
        "notice": "Depositor can use this function to signal to relayer to use updated output amount, recipient, and/or message."
      },
      "wrap()": {
        "notice": "Allows the caller to trigger the wrapping of any unwrapped matic tokens."
      }
    },
    "notice": "Polygon specific SpokePool.",
    "version": 1
  },
  "storageLayout": {
    "storage": [
      {
        "astId": 779,
        "contract": "contracts/Polygon_SpokePool.sol:Polygon_SpokePool",
        "label": "_initialized",
        "offset": 0,
        "slot": "0",
        "type": "t_uint8"
      },
      {
        "astId": 782,
        "contract": "contracts/Polygon_SpokePool.sol:Polygon_SpokePool",
        "label": "_initializing",
        "offset": 1,
        "slot": "0",
        "type": "t_bool"
      },
      {
        "astId": 761,
        "contract": "contracts/Polygon_SpokePool.sol:Polygon_SpokePool",
        "label": "__gap",
        "offset": 0,
        "slot": "1",
        "type": "t_array(t_uint256)50_storage"
      },
      {
        "astId": 1077,
        "contract": "contracts/Polygon_SpokePool.sol:Polygon_SpokePool",
        "label": "__gap",
        "offset": 0,
        "slot": "51",
        "type": "t_array(t_uint256)50_storage"
      },
      {
        "astId": 1093,
        "contract": "contracts/Polygon_SpokePool.sol:Polygon_SpokePool",
        "label": "_status",
        "offset": 0,
        "slot": "101",
        "type": "t_uint256"
      },
      {
        "astId": 1162,
        "contract": "contracts/Polygon_SpokePool.sol:Polygon_SpokePool",
        "label": "__gap",
        "offset": 0,
        "slot": "102",
        "type": "t_array(t_uint256)49_storage"
      },
      {
        "astId": 31778,
        "contract": "contracts/Polygon_SpokePool.sol:Polygon_SpokePool",
        "label": "__gap",
        "offset": 0,
        "slot": "151",
        "type": "t_array(t_uint256)1000_storage"
      },
      {
        "astId": 31510,
        "contract": "contracts/Polygon_SpokePool.sol:Polygon_SpokePool",
        "label": "_HASHED_NAME",
        "offset": 0,
        "slot": "1151",
        "type": "t_bytes32"
      },
      {
        "astId": 31512,
        "contract": "contracts/Polygon_SpokePool.sol:Polygon_SpokePool",
        "label": "_HASHED_VERSION",
        "offset": 0,
        "slot": "1152",
        "type": "t_bytes32"
      },
      {
        "astId": 31611,
        "contract": "contracts/Polygon_SpokePool.sol:Polygon_SpokePool",
        "label": "__gap",
        "offset": 0,
        "slot": "1153",
        "type": "t_array(t_uint256)1000_storage"
      },
      {
        "astId": 19794,
        "contract": "contracts/Polygon_SpokePool.sol:Polygon_SpokePool",
        "label": "crossDomainAdmin",
        "offset": 0,
        "slot": "2153",
        "type": "t_address"
      },
      {
        "astId": 19796,
        "contract": "contracts/Polygon_SpokePool.sol:Polygon_SpokePool",
        "label": "hubPool",
        "offset": 0,
        "slot": "2154",
        "type": "t_address"
      },
      {
        "astId": 19799,
        "contract": "contracts/Polygon_SpokePool.sol:Polygon_SpokePool",
        "label": "DEPRECATED_wrappedNativeToken",
        "offset": 0,
        "slot": "2155",
        "type": "t_contract(WETH9Interface)27248"
      },
      {
        "astId": 19801,
        "contract": "contracts/Polygon_SpokePool.sol:Polygon_SpokePool",
        "label": "DEPRECATED_depositQuoteTimeBuffer",
        "offset": 20,
        "slot": "2155",
        "type": "t_uint32"
      },
      {
        "astId": 19803,
        "contract": "contracts/Polygon_SpokePool.sol:Polygon_SpokePool",
        "label": "numberOfDeposits",
        "offset": 24,
        "slot": "2155",
        "type": "t_uint32"
      },
      {
        "astId": 19805,
        "contract": "contracts/Polygon_SpokePool.sol:Polygon_SpokePool",
        "label": "pausedFills",
        "offset": 28,
        "slot": "2155",
        "type": "t_bool"
      },
      {
        "astId": 19807,
        "contract": "contracts/Polygon_SpokePool.sol:Polygon_SpokePool",
        "label": "pausedDeposits",
        "offset": 29,
        "slot": "2155",
        "type": "t_bool"
      },
      {
        "astId": 19811,
        "contract": "contracts/Polygon_SpokePool.sol:Polygon_SpokePool",
        "label": "rootBundles",
        "offset": 0,
        "slot": "2156",
        "type": "t_array(t_struct(RootBundle)27825_storage)dyn_storage"
      },
      {
        "astId": 19817,
        "contract": "contracts/Polygon_SpokePool.sol:Polygon_SpokePool",
        "label": "enabledDepositRoutes",
        "offset": 0,
        "slot": "2157",
        "type": "t_mapping(t_address,t_mapping(t_uint256,t_bool))"
      },
      {
        "astId": 19821,
        "contract": "contracts/Polygon_SpokePool.sol:Polygon_SpokePool",
        "label": "DEPRECATED_relayFills",
        "offset": 0,
        "slot": "2158",
        "type": "t_mapping(t_bytes32,t_uint256)"
      },
      {
        "astId": 19825,
        "contract": "contracts/Polygon_SpokePool.sol:Polygon_SpokePool",
        "label": "DEPRECATED_fillCounter",
        "offset": 0,
        "slot": "2159",
        "type": "t_mapping(t_address,t_uint256)"
      },
      {
        "astId": 19829,
        "contract": "contracts/Polygon_SpokePool.sol:Polygon_SpokePool",
        "label": "DEPRECATED_depositCounter",
        "offset": 0,
        "slot": "2160",
        "type": "t_mapping(t_address,t_uint256)"
      },
      {
        "astId": 19833,
        "contract": "contracts/Polygon_SpokePool.sol:Polygon_SpokePool",
        "label": "DEPRECATED_refundsRequested",
        "offset": 0,
        "slot": "2161",
        "type": "t_mapping(t_bytes32,t_uint256)"
      },
      {
        "astId": 19837,
        "contract": "contracts/Polygon_SpokePool.sol:Polygon_SpokePool",
        "label": "fillStatuses",
        "offset": 0,
        "slot": "2162",
        "type": "t_mapping(t_bytes32,t_uint256)"
      },
      {
        "astId": 21738,
        "contract": "contracts/Polygon_SpokePool.sol:Polygon_SpokePool",
        "label": "__gap",
        "offset": 0,
        "slot": "2163",
        "type": "t_array(t_uint256)999_storage"
      },
      {
        "astId": 19113,
        "contract": "contracts/Polygon_SpokePool.sol:Polygon_SpokePool",
        "label": "fxChild",
        "offset": 0,
        "slot": "3162",
        "type": "t_address"
      },
      {
        "astId": 19116,
        "contract": "contracts/Polygon_SpokePool.sol:Polygon_SpokePool",
        "label": "polygonTokenBridger",
        "offset": 0,
        "slot": "3163",
        "type": "t_contract(PolygonTokenBridger)18744"
      },
      {
        "astId": 19118,
        "contract": "contracts/Polygon_SpokePool.sol:Polygon_SpokePool",
        "label": "callValidated",
        "offset": 20,
        "slot": "3163",
        "type": "t_bool"
      }
    ],
    "types": {
      "t_address": {
        "encoding": "inplace",
        "label": "address",
        "numberOfBytes": "20"
      },
      "t_array(t_struct(RootBundle)27825_storage)dyn_storage": {
        "base": "t_struct(RootBundle)27825_storage",
        "encoding": "dynamic_array",
        "label": "struct SpokePoolInterface.RootBundle[]",
        "numberOfBytes": "32"
      },
      "t_array(t_uint256)1000_storage": {
        "base": "t_uint256",
        "encoding": "inplace",
        "label": "uint256[1000]",
        "numberOfBytes": "32000"
      },
      "t_array(t_uint256)49_storage": {
        "base": "t_uint256",
        "encoding": "inplace",
        "label": "uint256[49]",
        "numberOfBytes": "1568"
      },
      "t_array(t_uint256)50_storage": {
        "base": "t_uint256",
        "encoding": "inplace",
        "label": "uint256[50]",
        "numberOfBytes": "1600"
      },
      "t_array(t_uint256)999_storage": {
        "base": "t_uint256",
        "encoding": "inplace",
        "label": "uint256[999]",
        "numberOfBytes": "31968"
      },
      "t_bool": {
        "encoding": "inplace",
        "label": "bool",
        "numberOfBytes": "1"
      },
      "t_bytes32": {
        "encoding": "inplace",
        "label": "bytes32",
        "numberOfBytes": "32"
      },
      "t_contract(PolygonTokenBridger)18744": {
        "encoding": "inplace",
        "label": "contract PolygonTokenBridger",
        "numberOfBytes": "20"
      },
      "t_contract(WETH9Interface)27248": {
        "encoding": "inplace",
        "label": "contract WETH9Interface",
        "numberOfBytes": "20"
      },
      "t_mapping(t_address,t_mapping(t_uint256,t_bool))": {
        "encoding": "mapping",
        "key": "t_address",
        "label": "mapping(address => mapping(uint256 => bool))",
        "numberOfBytes": "32",
        "value": "t_mapping(t_uint256,t_bool)"
      },
      "t_mapping(t_address,t_uint256)": {
        "encoding": "mapping",
        "key": "t_address",
        "label": "mapping(address => uint256)",
        "numberOfBytes": "32",
        "value": "t_uint256"
      },
      "t_mapping(t_bytes32,t_uint256)": {
        "encoding": "mapping",
        "key": "t_bytes32",
        "label": "mapping(bytes32 => uint256)",
        "numberOfBytes": "32",
        "value": "t_uint256"
      },
      "t_mapping(t_uint256,t_bool)": {
        "encoding": "mapping",
        "key": "t_uint256",
        "label": "mapping(uint256 => bool)",
        "numberOfBytes": "32",
        "value": "t_bool"
      },
      "t_mapping(t_uint256,t_uint256)": {
        "encoding": "mapping",
        "key": "t_uint256",
        "label": "mapping(uint256 => uint256)",
        "numberOfBytes": "32",
        "value": "t_uint256"
      },
      "t_struct(RootBundle)27825_storage": {
        "encoding": "inplace",
        "label": "struct SpokePoolInterface.RootBundle",
        "members": [
          {
            "astId": 27818,
            "contract": "contracts/Polygon_SpokePool.sol:Polygon_SpokePool",
            "label": "slowRelayRoot",
            "offset": 0,
            "slot": "0",
            "type": "t_bytes32"
          },
          {
            "astId": 27820,
            "contract": "contracts/Polygon_SpokePool.sol:Polygon_SpokePool",
            "label": "relayerRefundRoot",
            "offset": 0,
            "slot": "1",
            "type": "t_bytes32"
          },
          {
            "astId": 27824,
            "contract": "contracts/Polygon_SpokePool.sol:Polygon_SpokePool",
            "label": "claimedBitmap",
            "offset": 0,
            "slot": "2",
            "type": "t_mapping(t_uint256,t_uint256)"
          }
        ],
        "numberOfBytes": "96"
      },
      "t_uint256": {
        "encoding": "inplace",
        "label": "uint256",
        "numberOfBytes": "32"
      },
      "t_uint32": {
        "encoding": "inplace",
        "label": "uint32",
        "numberOfBytes": "4"
      },
      "t_uint8": {
        "encoding": "inplace",
        "label": "uint8",
        "numberOfBytes": "1"
      }
    }
  }
}