{
  "address": "0x36cF4d172c2bad4a238d812CA6c211993ADa41c2",
  "abi": [
    {
      "anonymous": false,
      "inputs": [
        {
          "indexed": true,
          "internalType": "address",
          "name": "caller",
          "type": "address"
        },
        {
          "indexed": false,
          "internalType": "uint256",
          "name": "windowIndex",
          "type": "uint256"
        },
        {
          "indexed": true,
          "internalType": "address",
          "name": "account",
          "type": "address"
        },
        {
          "indexed": false,
          "internalType": "uint256",
          "name": "accountIndex",
          "type": "uint256"
        },
        {
          "indexed": false,
          "internalType": "uint256",
          "name": "amount",
          "type": "uint256"
        },
        {
          "indexed": true,
          "internalType": "address",
          "name": "rewardToken",
          "type": "address"
        }
      ],
      "name": "ClaimFor",
      "type": "event"
    },
    {
      "anonymous": false,
      "inputs": [
        {
          "indexed": true,
          "internalType": "address",
          "name": "caller",
          "type": "address"
        },
        {
          "indexed": false,
          "internalType": "uint256",
          "name": "windowIndex",
          "type": "uint256"
        },
        {
          "indexed": true,
          "internalType": "address",
          "name": "account",
          "type": "address"
        },
        {
          "indexed": false,
          "internalType": "uint256",
          "name": "accountIndex",
          "type": "uint256"
        },
        {
          "indexed": false,
          "internalType": "uint256",
          "name": "amount",
          "type": "uint256"
        },
        {
          "indexed": true,
          "internalType": "address",
          "name": "rewardToken",
          "type": "address"
        }
      ],
      "name": "Claimed",
      "type": "event"
    },
    {
      "anonymous": false,
      "inputs": [
        {
          "indexed": true,
          "internalType": "uint256",
          "name": "windowIndex",
          "type": "uint256"
        },
        {
          "indexed": false,
          "internalType": "uint256",
          "name": "rewardsDeposited",
          "type": "uint256"
        },
        {
          "indexed": true,
          "internalType": "address",
          "name": "rewardToken",
          "type": "address"
        },
        {
          "indexed": false,
          "internalType": "address",
          "name": "owner",
          "type": "address"
        }
      ],
      "name": "CreatedWindow",
      "type": "event"
    },
    {
      "anonymous": false,
      "inputs": [
        {
          "indexed": true,
          "internalType": "uint256",
          "name": "windowIndex",
          "type": "uint256"
        },
        {
          "indexed": false,
          "internalType": "address",
          "name": "owner",
          "type": "address"
        }
      ],
      "name": "DeleteWindow",
      "type": "event"
    },
    {
      "anonymous": false,
      "inputs": [
        {
          "indexed": true,
          "internalType": "address",
          "name": "previousOwner",
          "type": "address"
        },
        {
          "indexed": true,
          "internalType": "address",
          "name": "newOwner",
          "type": "address"
        }
      ],
      "name": "OwnershipTransferred",
      "type": "event"
    },
    {
      "anonymous": false,
      "inputs": [
        {
          "indexed": true,
          "internalType": "address",
          "name": "claimer",
          "type": "address"
        },
        {
          "indexed": true,
          "internalType": "bool",
          "name": "whitelist",
          "type": "bool"
        }
      ],
      "name": "WhitelistedClaimer",
      "type": "event"
    },
    {
      "anonymous": false,
      "inputs": [
        {
          "indexed": true,
          "internalType": "address",
          "name": "owner",
          "type": "address"
        },
        {
          "indexed": false,
          "internalType": "uint256",
          "name": "amount",
          "type": "uint256"
        },
        {
          "indexed": true,
          "internalType": "address",
          "name": "currency",
          "type": "address"
        }
      ],
      "name": "WithdrawRewards",
      "type": "event"
    },
    {
      "inputs": [
        {
          "components": [
            {
              "internalType": "uint256",
              "name": "windowIndex",
              "type": "uint256"
            },
            {
              "internalType": "uint256",
              "name": "amount",
              "type": "uint256"
            },
            {
              "internalType": "uint256",
              "name": "accountIndex",
              "type": "uint256"
            },
            {
              "internalType": "address",
              "name": "account",
              "type": "address"
            },
            {
              "internalType": "bytes32[]",
              "name": "merkleProof",
              "type": "bytes32[]"
            }
          ],
          "internalType": "struct MerkleDistributorInterface.Claim",
          "name": "_claim",
          "type": "tuple"
        }
      ],
      "name": "claim",
      "outputs": [],
      "stateMutability": "nonpayable",
      "type": "function"
    },
    {
      "inputs": [
        {
          "components": [
            {
              "internalType": "uint256",
              "name": "windowIndex",
              "type": "uint256"
            },
            {
              "internalType": "uint256",
              "name": "amount",
              "type": "uint256"
            },
            {
              "internalType": "uint256",
              "name": "accountIndex",
              "type": "uint256"
            },
            {
              "internalType": "address",
              "name": "account",
              "type": "address"
            },
            {
              "internalType": "bytes32[]",
              "name": "merkleProof",
              "type": "bytes32[]"
            }
          ],
          "internalType": "struct MerkleDistributorInterface.Claim",
          "name": "_claim",
          "type": "tuple"
        }
      ],
      "name": "claimFor",
      "outputs": [],
      "stateMutability": "nonpayable",
      "type": "function"
    },
    {
      "inputs": [
        {
          "components": [
            {
              "internalType": "uint256",
              "name": "windowIndex",
              "type": "uint256"
            },
            {
              "internalType": "uint256",
              "name": "amount",
              "type": "uint256"
            },
            {
              "internalType": "uint256",
              "name": "accountIndex",
              "type": "uint256"
            },
            {
              "internalType": "address",
              "name": "account",
              "type": "address"
            },
            {
              "internalType": "bytes32[]",
              "name": "merkleProof",
              "type": "bytes32[]"
            }
          ],
          "internalType": "struct MerkleDistributorInterface.Claim[]",
          "name": "claims",
          "type": "tuple[]"
        }
      ],
      "name": "claimMulti",
      "outputs": [],
      "stateMutability": "nonpayable",
      "type": "function"
    },
    {
      "inputs": [
        {
          "internalType": "uint256",
          "name": "windowIndex",
          "type": "uint256"
        }
      ],
      "name": "deleteWindow",
      "outputs": [],
      "stateMutability": "nonpayable",
      "type": "function"
    },
    {
      "inputs": [
        {
          "internalType": "uint256",
          "name": "windowIndex",
          "type": "uint256"
        }
      ],
      "name": "getRewardTokenForWindow",
      "outputs": [
        {
          "internalType": "address",
          "name": "",
          "type": "address"
        }
      ],
      "stateMutability": "view",
      "type": "function"
    },
    {
      "inputs": [
        {
          "internalType": "uint256",
          "name": "windowIndex",
          "type": "uint256"
        },
        {
          "internalType": "uint256",
          "name": "accountIndex",
          "type": "uint256"
        }
      ],
      "name": "isClaimed",
      "outputs": [
        {
          "internalType": "bool",
          "name": "",
          "type": "bool"
        }
      ],
      "stateMutability": "view",
      "type": "function"
    },
    {
      "inputs": [
        {
          "internalType": "uint256",
          "name": "",
          "type": "uint256"
        }
      ],
      "name": "merkleWindows",
      "outputs": [
        {
          "internalType": "bytes32",
          "name": "merkleRoot",
          "type": "bytes32"
        },
        {
          "internalType": "uint256",
          "name": "remainingAmount",
          "type": "uint256"
        },
        {
          "internalType": "contract IERC20",
          "name": "rewardToken",
          "type": "address"
        },
        {
          "internalType": "string",
          "name": "ipfsHash",
          "type": "string"
        }
      ],
      "stateMutability": "view",
      "type": "function"
    },
    {
      "inputs": [],
      "name": "nextCreatedIndex",
      "outputs": [
        {
          "internalType": "uint256",
          "name": "",
          "type": "uint256"
        }
      ],
      "stateMutability": "view",
      "type": "function"
    },
    {
      "inputs": [],
      "name": "owner",
      "outputs": [
        {
          "internalType": "address",
          "name": "",
          "type": "address"
        }
      ],
      "stateMutability": "view",
      "type": "function"
    },
    {
      "inputs": [],
      "name": "renounceOwnership",
      "outputs": [],
      "stateMutability": "nonpayable",
      "type": "function"
    },
    {
      "inputs": [
        {
          "internalType": "uint256",
          "name": "rewardsToDeposit",
          "type": "uint256"
        },
        {
          "internalType": "address",
          "name": "rewardToken",
          "type": "address"
        },
        {
          "internalType": "bytes32",
          "name": "merkleRoot",
          "type": "bytes32"
        },
        {
          "internalType": "string",
          "name": "ipfsHash",
          "type": "string"
        }
      ],
      "name": "setWindow",
      "outputs": [],
      "stateMutability": "nonpayable",
      "type": "function"
    },
    {
      "inputs": [
        {
          "internalType": "address",
          "name": "newOwner",
          "type": "address"
        }
      ],
      "name": "transferOwnership",
      "outputs": [],
      "stateMutability": "nonpayable",
      "type": "function"
    },
    {
      "inputs": [
        {
          "components": [
            {
              "internalType": "uint256",
              "name": "windowIndex",
              "type": "uint256"
            },
            {
              "internalType": "uint256",
              "name": "amount",
              "type": "uint256"
            },
            {
              "internalType": "uint256",
              "name": "accountIndex",
              "type": "uint256"
            },
            {
              "internalType": "address",
              "name": "account",
              "type": "address"
            },
            {
              "internalType": "bytes32[]",
              "name": "merkleProof",
              "type": "bytes32[]"
            }
          ],
          "internalType": "struct MerkleDistributorInterface.Claim",
          "name": "_claim",
          "type": "tuple"
        }
      ],
      "name": "verifyClaim",
      "outputs": [
        {
          "internalType": "bool",
          "name": "valid",
          "type": "bool"
        }
      ],
      "stateMutability": "view",
      "type": "function"
    },
    {
      "inputs": [
        {
          "internalType": "address",
          "name": "newContract",
          "type": "address"
        },
        {
          "internalType": "bool",
          "name": "whitelist",
          "type": "bool"
        }
      ],
      "name": "whitelistClaimer",
      "outputs": [],
      "stateMutability": "nonpayable",
      "type": "function"
    },
    {
      "inputs": [
        {
          "internalType": "address",
          "name": "",
          "type": "address"
        }
      ],
      "name": "whitelistedClaimers",
      "outputs": [
        {
          "internalType": "bool",
          "name": "",
          "type": "bool"
        }
      ],
      "stateMutability": "view",
      "type": "function"
    },
    {
      "inputs": [
        {
          "internalType": "contract IERC20",
          "name": "rewardCurrency",
          "type": "address"
        },
        {
          "internalType": "uint256",
          "name": "amount",
          "type": "uint256"
        }
      ],
      "name": "withdrawRewards",
      "outputs": [],
      "stateMutability": "nonpayable",
      "type": "function"
    }
  ],
  "transactionHash": "0x1f124f2798b60a197eaad3e724eeea2f6640d66ee362a2aeff3f704e0995b152",
  "args": [],
  "numDeployments": 1,
  "solcInputHash": "0c0f7cf4c33344752a752d4aad8f0613",
  "bytecode": "0x608060405234801561001057600080fd5b5061001a3361001f565b61006f565b600080546001600160a01b038381166001600160a01b0319831681178455604051919092169283917f8be0079c531659141344cd1fd0a4f28419497f9722a3daafe3b4186f6b6457e09190a35050565b611d048061007e6000396000f3fe608060405234801561001057600080fd5b50600436106101005760003560e01c80638da5cb5b11610097578063d6ef7af011610066578063d6ef7af01461026b578063e2e441a31461027e578063f2fde38b14610295578063f364c90c146102a857600080fd5b80638da5cb5b146102145780639f5a967214610232578063a198496c14610245578063d45118681461025857600080fd5b8063743817a0116100d3578063743817a01461016d578063761b42971461018057806388f038a2146101de578063891b0d71146101f157600080fd5b80634f512151146101055780636be651791461012d57806370b53aee14610142578063715018a614610165575b600080fd5b6101186101133660046116c2565b6102bb565b60405190151581526020015b60405180910390f35b61014061013b3660046116f7565b610377565b005b6101186101503660046117a8565b60046020526000908152604090205460ff1681565b61014061045b565b61014061017b3660046117d3565b61046f565b6101b961018e36600461180c565b60009081526001602052604090206002015473ffffffffffffffffffffffffffffffffffffffff1690565b60405173ffffffffffffffffffffffffffffffffffffffff9091168152602001610124565b6101406101ec3660046116c2565b6104f6565b6102046101ff36600461180c565b61063e565b6040516101249493929190611893565b60005473ffffffffffffffffffffffffffffffffffffffff166101b9565b61014061024036600461180c565b610707565b6101406102533660046116c2565b61079a565b6101406102663660046118d8565b610829565b61014061027936600461196e565b610890565b61028760025481565b604051908152602001610124565b6101406102a33660046117a8565b61090a565b6101186102b636600461199a565b6109be565b6000808260600151836020015184604001516040516020016103179392919060609390931b7fffffffffffffffffffffffffffffffffffffffff0000000000000000000000001683526014830191909152603482015260540190565b604080517fffffffffffffffffffffffffffffffffffffffffffffffffffffffffffffffe08184030181529181528151602092830120608086015186516000908152600190945291909220549192506103709183610a0e565b9392505050565b805160005b8181101561044d573373ffffffffffffffffffffffffffffffffffffffff168382815181106103ad576103ad6119bc565b60200260200101516060015173ffffffffffffffffffffffffffffffffffffffff161461043b576040517f08c379a000000000000000000000000000000000000000000000000000000000815260206004820152600f60248201527f696e76616c696420636c61696d6572000000000000000000000000000000000060448201526064015b60405180910390fd5b8061044581611a1a565b91505061037c565b5061045782610a24565b5050565b610463610bb8565b61046d6000610c39565b565b610477610bb8565b73ffffffffffffffffffffffffffffffffffffffff821660008181526004602052604080822080547fffffffffffffffffffffffffffffffffffffffffffffffffffffffffffffff001685151590811790915590519092917fbaa2323ab54d3ecd5bd63d3c3cfc23d7ef896edcbc927b7b7867407f32a3ba2991a35050565b3360009081526004602052604090205460ff1661056f576040517f08c379a000000000000000000000000000000000000000000000000000000000815260206004820152601560248201527f756e77686974656c697374656420636c61696d657200000000000000000000006044820152606401610432565b61057881610cae565b6020808201518251600090815260019092526040909120600201546105b79173ffffffffffffffffffffffffffffffffffffffff909116903390610e81565b805160009081526001602090815260409182902060020154606080850151855185870151858801518751928352958201529485019390935273ffffffffffffffffffffffffffffffffffffffff91821693919092169133917fcfb930b6b49765485460cb1c6853ec3437a78b18d8c9a25b9fed2eea3b6756a991015b60405180910390a450565b60016020819052600091825260409091208054918101546002820154600383018054929373ffffffffffffffffffffffffffffffffffffffff9092169261068490611a52565b80601f01602080910402602001604051908101604052809291908181526020018280546106b090611a52565b80156106fd5780601f106106d2576101008083540402835291602001916106fd565b820191906000526020600020905b8154815290600101906020018083116106e057829003601f168201915b5050505050905084565b61070f610bb8565b600081815260016020819052604082208281559081018290556002810180547fffffffffffffffffffffffff00000000000000000000000000000000000000001690559061076060038301826114b5565b505060405133815281907f8fea52000ecb40f2262c672496dfadccc9d6290439bac487e084de8c57682d669060200160405180910390a250565b606081015173ffffffffffffffffffffffffffffffffffffffff16331461081d576040517f08c379a000000000000000000000000000000000000000000000000000000000815260206004820152600f60248201527f696e76616c696420636c61696d657200000000000000000000000000000000006044820152606401610432565b61082681610f5a565b50565b610831610bb8565b60025461083f816001611aa5565b6002819055506108888187878787878080601f016020809104026020016040519081016040528093929190818152602001838380828437600092019190915250610fa592505050565b505050505050565b610898610bb8565b6108b973ffffffffffffffffffffffffffffffffffffffff83163383610e81565b60405181815273ffffffffffffffffffffffffffffffffffffffff83169033907ffb0872526787ac1be379aa37eaa9913b47d6d50c3f5fe5ec67ffe4282493670e9060200160405180910390a35050565b610912610bb8565b73ffffffffffffffffffffffffffffffffffffffff81166109b5576040517f08c379a000000000000000000000000000000000000000000000000000000000815260206004820152602660248201527f4f776e61626c653a206e6577206f776e657220697320746865207a65726f206160448201527f64647265737300000000000000000000000000000000000000000000000000006064820152608401610432565b61082681610c39565b6000806109cd61010084611ae7565b905060006109dd61010085611afb565b60008681526003602090815260408083209583529490529290922054600190921b9182169091149150505b92915050565b600082610a1b8584611089565b14949350505050565b8051600090815b81811015610bb2576000848281518110610a4757610a476119bc565b60200260200101519050610a5a81610cae565b6020810151610a699085611aa5565b93506000610a78836001611aa5565b825160009081526001602052604090206002015490915073ffffffffffffffffffffffffffffffffffffffff1684821480610b005750826060015173ffffffffffffffffffffffffffffffffffffffff16878381518110610adb57610adb6119bc565b60200260200101516060015173ffffffffffffffffffffffffffffffffffffffff1614155b80610b6b57508073ffffffffffffffffffffffffffffffffffffffff1660016000898581518110610b3357610b336119bc565b6020908102919091018101515182528101919091526040016000206002015473ffffffffffffffffffffffffffffffffffffffff1614155b15610b9c576060830151610b979073ffffffffffffffffffffffffffffffffffffffff83169088610e81565b600095505b5050508080610baa90611a1a565b915050610a2b565b50505050565b60005473ffffffffffffffffffffffffffffffffffffffff16331461046d576040517f08c379a000000000000000000000000000000000000000000000000000000000815260206004820181905260248201527f4f776e61626c653a2063616c6c6572206973206e6f7420746865206f776e65726044820152606401610432565b6000805473ffffffffffffffffffffffffffffffffffffffff8381167fffffffffffffffffffffffff0000000000000000000000000000000000000000831681178455604051919092169283917f8be0079c531659141344cd1fd0a4f28419497f9722a3daafe3b4186f6b6457e09190a35050565b610cb7816102bb565b610d1d576040517f08c379a000000000000000000000000000000000000000000000000000000000815260206004820152601660248201527f496e636f7272656374206d65726b6c652070726f6f66000000000000000000006044820152606401610432565b610d2f816000015182604001516109be565b15610dbc576040517f08c379a000000000000000000000000000000000000000000000000000000000815260206004820152602b60248201527f4163636f756e742068617320616c726561647920636c61696d656420666f722060448201527f746869732077696e646f770000000000000000000000000000000000000000006064820152608401610432565b610dce816000015182604001516110d6565b806020015160016000836000015181526020019081526020016000206001016000828254610dfc9190611b0f565b9091555050805160009081526001602090815260409182902060020154606080850151855185870151858801518751928352958201529485019390935273ffffffffffffffffffffffffffffffffffffffff91821693919092169133917f18bdb6adb84039f917775d1fb8e7b7e7737ad5915d12eef0e4654b85e18d07b49101610633565b60405173ffffffffffffffffffffffffffffffffffffffff8316602482015260448101829052610f559084907fa9059cbb00000000000000000000000000000000000000000000000000000000906064015b604080517fffffffffffffffffffffffffffffffffffffffffffffffffffffffffffffffe08184030181529190526020810180517bffffffffffffffffffffffffffffffffffffffffffffffffffffffff167fffffffff000000000000000000000000000000000000000000000000000000009093169290921790915261111f565b505050565b610f6381610cae565b60608101516020808301518351600090815260019092526040909120600201546108269273ffffffffffffffffffffffffffffffffffffffff90911691610e81565b60008581526001602081905260409091208381559081018590556002810180547fffffffffffffffffffffffff00000000000000000000000000000000000000001673ffffffffffffffffffffffffffffffffffffffff86161790556003810161100f8382611b68565b506040805186815233602082015273ffffffffffffffffffffffffffffffffffffffff86169188917f521fe5bce65ac6af752c1083ec77facc5b6c13f40693e96eeca3747726fee9ad910160405180910390a360028101546108889073ffffffffffffffffffffffffffffffffffffffff1633308861122b565b600081815b84518110156110ce576110ba828683815181106110ad576110ad6119bc565b6020026020010151611289565b9150806110c681611a1a565b91505061108e565b509392505050565b60006110e461010083611ae7565b905060006110f461010084611afb565b6000948552600360209081526040808720948752939052919093208054600190921b90911790555050565b6000611181826040518060400160405280602081526020017f5361666545524332303a206c6f772d6c6576656c2063616c6c206661696c65648152508573ffffffffffffffffffffffffffffffffffffffff166112b59092919063ffffffff16565b805190915015610f55578080602001905181019061119f9190611c82565b610f55576040517f08c379a000000000000000000000000000000000000000000000000000000000815260206004820152602a60248201527f5361666545524332303a204552433230206f7065726174696f6e20646964206e60448201527f6f742073756363656564000000000000000000000000000000000000000000006064820152608401610432565b60405173ffffffffffffffffffffffffffffffffffffffff80851660248301528316604482015260648101829052610bb29085907f23b872dd0000000000000000000000000000000000000000000000000000000090608401610ed3565b60008183106112a5576000828152602084905260409020610370565b5060009182526020526040902090565b60606112c484846000856112cc565b949350505050565b60608247101561135e576040517f08c379a000000000000000000000000000000000000000000000000000000000815260206004820152602660248201527f416464726573733a20696e73756666696369656e742062616c616e636520666f60448201527f722063616c6c00000000000000000000000000000000000000000000000000006064820152608401610432565b73ffffffffffffffffffffffffffffffffffffffff85163b6113dc576040517f08c379a000000000000000000000000000000000000000000000000000000000815260206004820152601d60248201527f416464726573733a2063616c6c20746f206e6f6e2d636f6e74726163740000006044820152606401610432565b6000808673ffffffffffffffffffffffffffffffffffffffff1685876040516114059190611c9f565b60006040518083038185875af1925050503d8060008114611442576040519150601f19603f3d011682016040523d82523d6000602084013e611447565b606091505b5091509150611457828286611462565b979650505050505050565b60608315611471575081610370565b8251156114815782518084602001fd5b816040517f08c379a00000000000000000000000000000000000000000000000000000000081526004016104329190611cbb565b5080546114c190611a52565b6000825580601f106114d1575050565b601f01602090049060005260206000209081019061082691905b808211156114ff57600081556001016114eb565b5090565b7f4e487b7100000000000000000000000000000000000000000000000000000000600052604160045260246000fd5b60405160a0810167ffffffffffffffff8111828210171561155557611555611503565b60405290565b604051601f82017fffffffffffffffffffffffffffffffffffffffffffffffffffffffffffffffe016810167ffffffffffffffff811182821017156115a2576115a2611503565b604052919050565b73ffffffffffffffffffffffffffffffffffffffff8116811461082657600080fd5b600067ffffffffffffffff8211156115e6576115e6611503565b5060051b60200190565b600060a0828403121561160257600080fd5b61160a611532565b90508135815260208083013581830152604083013560408301526060830135611632816115aa565b6060830152608083013567ffffffffffffffff81111561165157600080fd5b8301601f8101851361166257600080fd5b8035611675611670826115cc565b61155b565b81815260059190911b8201830190838101908783111561169457600080fd5b928401925b828410156116b257833582529284019290840190611699565b6080860152509295945050505050565b6000602082840312156116d457600080fd5b813567ffffffffffffffff8111156116eb57600080fd5b6112c4848285016115f0565b6000602080838503121561170a57600080fd5b823567ffffffffffffffff8082111561172257600080fd5b818501915085601f83011261173657600080fd5b8135611744611670826115cc565b81815260059190911b8301840190848101908883111561176357600080fd5b8585015b8381101561179b5780358581111561177f5760008081fd5b61178d8b89838a01016115f0565b845250918601918601611767565b5098975050505050505050565b6000602082840312156117ba57600080fd5b8135610370816115aa565b801515811461082657600080fd5b600080604083850312156117e657600080fd5b82356117f1816115aa565b91506020830135611801816117c5565b809150509250929050565b60006020828403121561181e57600080fd5b5035919050565b60005b83811015611840578181015183820152602001611828565b50506000910152565b60008151808452611861816020860160208601611825565b601f017fffffffffffffffffffffffffffffffffffffffffffffffffffffffffffffffe0169290920160200192915050565b84815283602082015273ffffffffffffffffffffffffffffffffffffffff831660408201526080606082015260006118ce6080830184611849565b9695505050505050565b6000806000806000608086880312156118f057600080fd5b853594506020860135611902816115aa565b935060408601359250606086013567ffffffffffffffff8082111561192657600080fd5b818801915088601f83011261193a57600080fd5b81358181111561194957600080fd5b89602082850101111561195b57600080fd5b9699959850939650602001949392505050565b6000806040838503121561198157600080fd5b823561198c816115aa565b946020939093013593505050565b600080604083850312156119ad57600080fd5b50508035926020909101359150565b7f4e487b7100000000000000000000000000000000000000000000000000000000600052603260045260246000fd5b7f4e487b7100000000000000000000000000000000000000000000000000000000600052601160045260246000fd5b60007fffffffffffffffffffffffffffffffffffffffffffffffffffffffffffffffff8203611a4b57611a4b6119eb565b5060010190565b600181811c90821680611a6657607f821691505b602082108103611a9f577f4e487b7100000000000000000000000000000000000000000000000000000000600052602260045260246000fd5b50919050565b80820180821115610a0857610a086119eb565b7f4e487b7100000000000000000000000000000000000000000000000000000000600052601260045260246000fd5b600082611af657611af6611ab8565b500490565b600082611b0a57611b0a611ab8565b500690565b81810381811115610a0857610a086119eb565b601f821115610f5557600081815260208120601f850160051c81016020861015611b495750805b601f850160051c820191505b8181101561088857828155600101611b55565b815167ffffffffffffffff811115611b8257611b82611503565b611b9681611b908454611a52565b84611b22565b602080601f831160018114611be95760008415611bb35750858301515b7fffffffffffffffffffffffffffffffffffffffffffffffffffffffffffffffff600386901b1c1916600185901b178555610888565b6000858152602081207fffffffffffffffffffffffffffffffffffffffffffffffffffffffffffffffe08616915b82811015611c3657888601518255948401946001909101908401611c17565b5085821015611c7257878501517fffffffffffffffffffffffffffffffffffffffffffffffffffffffffffffffff600388901b60f8161c191681555b5050505050600190811b01905550565b600060208284031215611c9457600080fd5b8151610370816117c5565b60008251611cb1818460208701611825565b9190910192915050565b602081526000610370602083018461184956fea26469706673582212206797e41714a23c87c1f8016c23d653e49524da7c54a684221a23394a042db79864736f6c63430008110033",
  "devdoc": {
    "kind": "dev",
    "methods": {
      "claim((uint256,uint256,uint256,address,bytes32[]))": {
        "details": "Claim recipient must be equal to msg.sender.",
        "params": {
          "_claim": "claim object describing amount, accountIndex, account, window index, and merkle proof."
        }
      },
      "claimFor((uint256,uint256,uint256,address,bytes32[]))": {
        "details": "Caller must be in whitelistedClaimers struct set to \"true\".",
        "params": {
          "_claim": "leaf to claim."
        }
      },
      "claimMulti((uint256,uint256,uint256,address,bytes32[])[])": {
        "details": "All claim recipients must be equal to msg.sender.",
        "params": {
          "claims": "array of claims to claim."
        }
      },
      "deleteWindow(uint256)": {
        "details": "Callable only by owner. Likely to be followed by a withdrawRewards call to clear contract state.",
        "params": {
          "windowIndex": "merkle root index to delete."
        }
      },
      "getRewardTokenForWindow(uint256)": {
        "params": {
          "windowIndex": "merkle root to check."
        },
        "returns": {
          "_0": "address Reward token address"
        }
      },
      "isClaimed(uint256,uint256)": {
        "details": "This method will only work as intended if all `accountIndex`'s are unique for a given `windowIndex`.         The onus is on the Owner of this contract to submit only valid Merkle roots.",
        "params": {
          "accountIndex": "account index to check within window index.",
          "windowIndex": "merkle root to check."
        },
        "returns": {
          "_0": "True if claim has been executed already, False otherwise."
        }
      },
      "owner()": {
        "details": "Returns the address of the current owner."
      },
      "renounceOwnership()": {
        "details": "Leaves the contract without owner. It will not be possible to call `onlyOwner` functions anymore. Can only be called by the current owner. NOTE: Renouncing ownership will leave the contract without an owner, thereby removing any functionality that is only available to the owner."
      },
      "setWindow(uint256,address,bytes32,string)": {
        "params": {
          "ipfsHash": "hash of IPFS object, conveniently stored for clients",
          "merkleRoot": "merkle root describing allocation.",
          "rewardToken": "ERC20 reward token.",
          "rewardsToDeposit": "amount of rewards to deposit to seed this allocation."
        }
      },
      "transferOwnership(address)": {
        "details": "Transfers ownership of the contract to a new account (`newOwner`). Can only be called by the current owner."
      },
      "verifyClaim((uint256,uint256,uint256,address,bytes32[]))": {
        "params": {
          "_claim": "claim object describing amount, accountIndex, account, window index, and merkle proof."
        },
        "returns": {
          "valid": "True if leaf exists."
        }
      },
      "whitelistClaimer(address,bool)": {
        "details": "Callable only by owner.",
        "params": {
          "newContract": "Reset claimer contract to this address.",
          "whitelist": "True to whitelist claimer, False otherwise."
        }
      },
      "withdrawRewards(address,uint256)": {
        "details": "Callable only by owner.",
        "params": {
          "amount": "amount of rewards to withdraw.",
          "rewardCurrency": "rewards to withdraw from contract."
        }
      }
    },
    "title": "Extended MerkleDistributor contract.",
    "version": 1
  },
  "userdoc": {
    "kind": "user",
    "methods": {
      "claim((uint256,uint256,uint256,address,bytes32[]))": {
        "notice": "Claim amount of reward tokens for account, as described by Claim input object."
      },
      "claimFor((uint256,uint256,uint256,address,bytes32[]))": {
        "notice": "Executes merkle leaf claim on behaf of user. This can only be called by a trusted         claimer address. This function is designed to be called atomically with other transactions         that ultimately return the claimed amount to the rightful recipient. For example,         AcceleratingDistributor could call this function and then stake atomically on behalf of the user."
      },
      "claimMulti((uint256,uint256,uint256,address,bytes32[])[])": {
        "notice": "Batch claims to reduce gas versus individual submitting all claims. Method will fail         if any individual claims within the batch would fail."
      },
      "deleteWindow(uint256)": {
        "notice": "Delete merkle root at window index."
      },
      "getRewardTokenForWindow(uint256)": {
        "notice": "Returns rewardToken set by admin for windowIndex."
      },
      "isClaimed(uint256,uint256)": {
        "notice": "Returns True if the claim for `accountIndex` has already been completed for the Merkle root at         `windowIndex`."
      },
      "setWindow(uint256,address,bytes32,string)": {
        "notice": "Set merkle root for the next available window index and seed allocations.Callable only by owner of this contract. Caller must have approved this contract to transfer      `rewardsToDeposit` amount of `rewardToken` or this call will fail. Importantly, we assume that the      owner of this contract correctly chooses an amount `rewardsToDeposit` that is sufficient to cover all      claims within the `merkleRoot`."
      },
      "verifyClaim((uint256,uint256,uint256,address,bytes32[]))": {
        "notice": "Returns True if leaf described by {account, amount, accountIndex} is stored in Merkle root at given         window index."
      },
      "whitelistClaimer(address,bool)": {
        "notice": "Updates whitelisted claimer status."
      },
      "withdrawRewards(address,uint256)": {
        "notice": "Emergency method that transfers rewards out of the contract if the contract was configured improperly."
      }
    },
    "notice": "Adds additional constraints governing who can claim leaves from merkle windows.",
    "version": 1
  },
  "storageLayout": {
    "storage": [
      {
        "astId": 422,
        "contract": "contracts/merkle-distributor/AcrossMerkleDistributor.sol:AcrossMerkleDistributor",
        "label": "_owner",
        "offset": 0,
        "slot": "0",
        "type": "t_address"
      },
      {
        "astId": 6113,
        "contract": "contracts/merkle-distributor/AcrossMerkleDistributor.sol:AcrossMerkleDistributor",
        "label": "merkleWindows",
        "offset": 0,
        "slot": "1",
        "type": "t_mapping(t_uint256,t_struct(Window)6644_storage)"
      },
      {
        "astId": 6115,
        "contract": "contracts/merkle-distributor/AcrossMerkleDistributor.sol:AcrossMerkleDistributor",
        "label": "nextCreatedIndex",
        "offset": 0,
        "slot": "2",
        "type": "t_uint256"
      },
      {
        "astId": 6121,
        "contract": "contracts/merkle-distributor/AcrossMerkleDistributor.sol:AcrossMerkleDistributor",
        "label": "claimedBitMap",
        "offset": 0,
        "slot": "3",
        "type": "t_mapping(t_uint256,t_mapping(t_uint256,t_uint256))"
      },
      {
        "astId": 12997,
        "contract": "contracts/merkle-distributor/AcrossMerkleDistributor.sol:AcrossMerkleDistributor",
        "label": "whitelistedClaimers",
        "offset": 0,
        "slot": "4",
        "type": "t_mapping(t_address,t_bool)"
      }
    ],
    "types": {
      "t_address": {
        "encoding": "inplace",
        "label": "address",
        "numberOfBytes": "20"
      },
      "t_bool": {
        "encoding": "inplace",
        "label": "bool",
        "numberOfBytes": "1"
      },
      "t_bytes32": {
        "encoding": "inplace",
        "label": "bytes32",
        "numberOfBytes": "32"
      },
      "t_contract(IERC20)1191": {
        "encoding": "inplace",
        "label": "contract IERC20",
        "numberOfBytes": "20"
      },
      "t_mapping(t_address,t_bool)": {
        "encoding": "mapping",
        "key": "t_address",
        "label": "mapping(address => bool)",
        "numberOfBytes": "32",
        "value": "t_bool"
      },
      "t_mapping(t_uint256,t_mapping(t_uint256,t_uint256))": {
        "encoding": "mapping",
        "key": "t_uint256",
        "label": "mapping(uint256 => mapping(uint256 => uint256))",
        "numberOfBytes": "32",
        "value": "t_mapping(t_uint256,t_uint256)"
      },
      "t_mapping(t_uint256,t_struct(Window)6644_storage)": {
        "encoding": "mapping",
        "key": "t_uint256",
        "label": "mapping(uint256 => struct MerkleDistributorInterface.Window)",
        "numberOfBytes": "32",
        "value": "t_struct(Window)6644_storage"
      },
      "t_mapping(t_uint256,t_uint256)": {
        "encoding": "mapping",
        "key": "t_uint256",
        "label": "mapping(uint256 => uint256)",
        "numberOfBytes": "32",
        "value": "t_uint256"
      },
      "t_string_storage": {
        "encoding": "bytes",
        "label": "string",
        "numberOfBytes": "32"
      },
      "t_struct(Window)6644_storage": {
        "encoding": "inplace",
        "label": "struct MerkleDistributorInterface.Window",
        "members": [
          {
            "astId": 6636,
            "contract": "contracts/merkle-distributor/AcrossMerkleDistributor.sol:AcrossMerkleDistributor",
            "label": "merkleRoot",
            "offset": 0,
            "slot": "0",
            "type": "t_bytes32"
          },
          {
            "astId": 6638,
            "contract": "contracts/merkle-distributor/AcrossMerkleDistributor.sol:AcrossMerkleDistributor",
            "label": "remainingAmount",
            "offset": 0,
            "slot": "1",
            "type": "t_uint256"
          },
          {
            "astId": 6641,
            "contract": "contracts/merkle-distributor/AcrossMerkleDistributor.sol:AcrossMerkleDistributor",
            "label": "rewardToken",
            "offset": 0,
            "slot": "2",
            "type": "t_contract(IERC20)1191"
          },
          {
            "astId": 6643,
            "contract": "contracts/merkle-distributor/AcrossMerkleDistributor.sol:AcrossMerkleDistributor",
            "label": "ipfsHash",
            "offset": 0,
            "slot": "3",
            "type": "t_string_storage"
          }
        ],
        "numberOfBytes": "128"
      },
      "t_uint256": {
        "encoding": "inplace",
        "label": "uint256",
        "numberOfBytes": "32"
      }
    }
  }
}