{
  "address": "0x42df4D71f35ffBD28ae217d52E83C1DA0007D63b",
  "abi": [
    {
      "inputs": [],
      "name": "ArrayLengthMismatch",
      "type": "error"
    },
    {
      "inputs": [],
      "name": "IOFTTokenMismatch",
      "type": "error"
    },
    {
      "inputs": [],
      "name": "NonExistentMessengerType",
      "type": "error"
    },
    {
      "anonymous": false,
      "inputs": [
        {
          "indexed": true,
          "internalType": "bytes32",
          "name": "messengerType",
          "type": "bytes32"
        },
        {
          "indexed": true,
          "internalType": "uint256",
          "name": "dstDomainId",
          "type": "uint256"
        },
        {
          "indexed": true,
          "internalType": "address",
          "name": "srcChainToken",
          "type": "address"
        },
        {
          "indexed": false,
          "internalType": "address",
          "name": "srcChainMessenger",
          "type": "address"
        }
      ],
      "name": "MessengerSet",
      "type": "event"
    },
    {
      "anonymous": false,
      "inputs": [
        {
          "indexed": true,
          "internalType": "address",
          "name": "previousOwner",
          "type": "address"
        },
        {
          "indexed": true,
          "internalType": "address",
          "name": "newOwner",
          "type": "address"
        }
      ],
      "name": "OwnershipTransferred",
      "type": "event"
    },
    {
      "inputs": [
        {
          "internalType": "bytes32[]",
          "name": "messengerTypes",
          "type": "bytes32[]"
        },
        {
          "internalType": "uint256[]",
          "name": "dstDomainIds",
          "type": "uint256[]"
        },
        {
          "internalType": "address[]",
          "name": "srcChainTokens",
          "type": "address[]"
        },
        {
          "internalType": "address[]",
          "name": "srcChainMessengers",
          "type": "address[]"
        }
      ],
      "name": "batchSetMessengers",
      "outputs": [],
      "stateMutability": "nonpayable",
      "type": "function"
    },
    {
      "inputs": [
        {
          "internalType": "bytes32",
          "name": "messengerType",
          "type": "bytes32"
        },
        {
          "internalType": "uint256",
          "name": "dstDomainId",
          "type": "uint256"
        },
        {
          "internalType": "address",
          "name": "srcChainToken",
          "type": "address"
        }
      ],
      "name": "crossChainMessengers",
      "outputs": [
        {
          "internalType": "address",
          "name": "messengerAddress",
          "type": "address"
        }
      ],
      "stateMutability": "view",
      "type": "function"
    },
    {
      "inputs": [],
      "name": "owner",
      "outputs": [
        {
          "internalType": "address",
          "name": "",
          "type": "address"
        }
      ],
      "stateMutability": "view",
      "type": "function"
    },
    {
      "inputs": [],
      "name": "renounceOwnership",
      "outputs": [],
      "stateMutability": "nonpayable",
      "type": "function"
    },
    {
      "inputs": [
        {
          "internalType": "bytes32",
          "name": "messengerType",
          "type": "bytes32"
        },
        {
          "internalType": "uint256",
          "name": "dstDomainId",
          "type": "uint256"
        },
        {
          "internalType": "address",
          "name": "srcChainToken",
          "type": "address"
        },
        {
          "internalType": "address",
          "name": "srcChainMessenger",
          "type": "address"
        }
      ],
      "name": "setMessenger",
      "outputs": [],
      "stateMutability": "nonpayable",
      "type": "function"
    },
    {
      "inputs": [
        {
          "internalType": "address",
          "name": "newOwner",
          "type": "address"
        }
      ],
      "name": "transferOwnership",
      "outputs": [],
      "stateMutability": "nonpayable",
      "type": "function"
    }
  ],
  "transactionHash": "0x9595eeaf1cc15ebf8b083618ff2d65ebeeb1982cd4b8e0750c020da14894d1a7",
  "args": [],
  "numDeployments": 1,
  "solcInputHash": "a4568173fdd07a4724f5e04f961d9865",
  "bytecode": "0x6080806040523461005a575f8054336001600160a01b0319821681178355916001600160a01b03909116907f8be0079c531659141344cd1fd0a4f28419497f9722a3daafe3b4186f6b6457e09080a3610746908161005f8239f35b5f80fdfe608060409080825260049182361015610016575f80fd5b5f3560e01c918263715018a6146103a25782638da5cb5b14610355575081638f7d9bec146102dc57816395d59d121461018557508063d08a2d8f146101145763f2fde38b14610063575f80fd5b346101105760207ffffffffffffffffffffffffffffffffffffffffffffffffffffffffffffffffc360112610110573573ffffffffffffffffffffffffffffffffffffffff808216809203610110576100ba6104ee565b8115610110575f54827fffffffffffffffffffffffff00000000000000000000000000000000000000008216175f55167f8be0079c531659141344cd1fd0a4f28419497f9722a3daafe3b4186f6b6457e05f80a3005b5f80fd5b50346101105760807ffffffffffffffffffffffffffffffffffffffffffffffffffffffffffffffffc3601126101105761014c61043c565b6064359073ffffffffffffffffffffffffffffffffffffffff8216820361011057610183926101796104ee565b602435903561050e565b005b9050346101105760807ffffffffffffffffffffffffffffffffffffffffffffffffffffffffffffffffc3601126101105767ffffffffffffffff908235828111610110576101d6903690850161045f565b91602435848111610110576101ee903690870161045f565b94909260443582811161011057610208903690890161045f565b969092606435908111610110576102229036908a0161045f565b98909461022d6104ee565b8288148015906102d2575b80156102c8575b6102a25750505f5b81811061025057005b8061029c878b8761029661028a868f8f8261028f926102838f9d8f60019f8261028a9761027c92610490565b359c610490565b3597610490565b6104cd565b948d610490565b9261050e565b01610247565b517fa24a13a6000000000000000000000000000000000000000000000000000000008152fd5b508988141561023f565b5088881415610238565b9050346101105760607ffffffffffffffffffffffffffffffffffffffffffffffffffffffffffffffffc3601126101105760209161031861043c565b90355f5260018352815f206024355f528352815f2073ffffffffffffffffffffffffffffffffffffffff8092165f528352815f2054169051908152f35b34610110575f7ffffffffffffffffffffffffffffffffffffffffffffffffffffffffffffffffc3601126101105760209073ffffffffffffffffffffffffffffffffffffffff5f54168152f35b34610110575f7ffffffffffffffffffffffffffffffffffffffffffffffffffffffffffffffffc360112610110576103d86104ee565b5f73ffffffffffffffffffffffffffffffffffffffff81547fffffffffffffffffffffffff000000000000000000000000000000000000000081168355167f8be0079c531659141344cd1fd0a4f28419497f9722a3daafe3b4186f6b6457e08280a3005b6044359073ffffffffffffffffffffffffffffffffffffffff8216820361011057565b9181601f840112156101105782359167ffffffffffffffff8311610110576020808501948460051b01011161011057565b91908110156104a05760051b0190565b7f4e487b71000000000000000000000000000000000000000000000000000000005f52603260045260245ffd5b3573ffffffffffffffffffffffffffffffffffffffff811681036101105790565b73ffffffffffffffffffffffffffffffffffffffff5f5416330361011057565b90919273ffffffffffffffffffffffffffffffffffffffff80911690816105a6575b7f444623aa961faed91435ed1429e49548d6cf597edc4121dacef3734bebd5984f91602091845f526001835260405f20865f52835260405f20961695865f52825260405f20817fffffffffffffffffffffffff0000000000000000000000000000000000000000825416179055604051908152a4565b7f4f46545f4d455353454e4745520000000000000000000000000000000000000083036106e6576040517ffc0c546a000000000000000000000000000000000000000000000000000000008152602081600481865afa9081156106db575f9161063f575b508116858216146105305760046040517f89541172000000000000000000000000000000000000000000000000000000008152fd5b905060203d6020116106d4575b7fffffffffffffffffffffffffffffffffffffffffffffffffffffffffffffffe0601f820116820182811067ffffffffffffffff8211176106a75760209183916040528101031261011057518181168103610110575f61060a565b7f4e487b71000000000000000000000000000000000000000000000000000000005f52604160045260245ffd5b503d61064c565b6040513d5f823e3d90fd5b60046040517fce3f631c000000000000000000000000000000000000000000000000000000008152fdfea26469706673582212206cb8e5ff1075e3e78ba8e65519d53b6fbe60ec5a4d5c15d0b4acd5d45d527a5964736f6c63430008170033",
  "devdoc": {
    "custom:security-contact": "bugs@across.to",
    "details": "A helper contract for chain adapters on the hub chain that support OFT messaging. Handlestoken => messenger mapping storage. Adapters can't store this themselves as they're calledvia `delegateCall` and their storage is not part of available context.",
    "events": {
      "MessengerSet(bytes32,uint256,address,address)": {
        "params": {
          "dstDomainId": "Destination domain ID",
          "messengerType": "Type of messenger being set",
          "srcChainMessenger": "Source chain messenger address",
          "srcChainToken": "Source chain token address"
        }
      }
    },
    "kind": "dev",
    "methods": {
      "batchSetMessengers(bytes32[],uint256[],address[],address[])": {
        "params": {
          "dstDomainIds": "Array of destination domain IDs",
          "messengerTypes": "Array of messenger types",
          "srcChainMessengers": "Array of source chain messenger addresses",
          "srcChainTokens": "Array of source chain token addresses"
        }
      },
      "owner()": {
        "details": "Returns the address of the current owner."
      },
      "renounceOwnership()": {
        "details": "Leaves the contract without owner. It will not be possible to call `onlyOwner` functions. Can only be called by the current owner. NOTE: Renouncing ownership will leave the contract without an owner, thereby disabling any functionality that is only available to the owner."
      },
      "setMessenger(bytes32,uint256,address,address)": {
        "params": {
          "dstDomainId": "Destination domain ID",
          "messengerType": "Type of messenger to set",
          "srcChainMessenger": "Source chain messenger address",
          "srcChainToken": "Source chain token address"
        }
      },
      "transferOwnership(address)": {
        "details": "Transfers ownership of the contract to a new account (`newOwner`). Can only be called by the current owner."
      }
    },
    "version": 1
  },
  "userdoc": {
    "errors": {
      "ArrayLengthMismatch()": [
        {
          "notice": "Thrown when array lengths don't match in batch operations "
        }
      ],
      "IOFTTokenMismatch()": [
        {
          "notice": "Thrown when IOFT messenger's token doesn't match expected token "
        }
      ],
      "NonExistentMessengerType()": [
        {
          "notice": "Thrown when messenger type is not supported "
        }
      ]
    },
    "events": {
      "MessengerSet(bytes32,uint256,address,address)": {
        "notice": "Emitted when a messenger is set for a specific token and destination"
      }
    },
    "kind": "user",
    "methods": {
      "batchSetMessengers(bytes32[],uint256[],address[],address[])": {
        "notice": "Sets multiple messengers in a single transaction"
      },
      "crossChainMessengers(bytes32,uint256,address)": {
        "notice": "Maps messenger type and destination domain to token-messenger pairs "
      },
      "setMessenger(bytes32,uint256,address,address)": {
        "notice": "Sets a messenger for a specific token and destination domain"
      }
    },
    "version": 1
  },
  "storageLayout": {
    "storage": [
      {
        "astId": 4146,
        "contract": "contracts/AdapterStore.sol:AdapterStore",
        "label": "_owner",
        "offset": 0,
        "slot": "0",
        "type": "t_address"
      },
      {
        "astId": 17879,
        "contract": "contracts/AdapterStore.sol:AdapterStore",
        "label": "crossChainMessengers",
        "offset": 0,
        "slot": "1",
        "type": "t_mapping(t_bytes32,t_mapping(t_uint256,t_mapping(t_address,t_address)))"
      }
    ],
    "types": {
      "t_address": {
        "encoding": "inplace",
        "label": "address",
        "numberOfBytes": "20"
      },
      "t_bytes32": {
        "encoding": "inplace",
        "label": "bytes32",
        "numberOfBytes": "32"
      },
      "t_mapping(t_address,t_address)": {
        "encoding": "mapping",
        "key": "t_address",
        "label": "mapping(address => address)",
        "numberOfBytes": "32",
        "value": "t_address"
      },
      "t_mapping(t_bytes32,t_mapping(t_uint256,t_mapping(t_address,t_address)))": {
        "encoding": "mapping",
        "key": "t_bytes32",
        "label": "mapping(bytes32 => mapping(uint256 => mapping(address => address)))",
        "numberOfBytes": "32",
        "value": "t_mapping(t_uint256,t_mapping(t_address,t_address))"
      },
      "t_mapping(t_uint256,t_mapping(t_address,t_address))": {
        "encoding": "mapping",
        "key": "t_uint256",
        "label": "mapping(uint256 => mapping(address => address))",
        "numberOfBytes": "32",
        "value": "t_mapping(t_address,t_address)"
      },
      "t_uint256": {
        "encoding": "inplace",
        "label": "uint256",
        "numberOfBytes": "32"
      }
    }
  }
}