{
  "address": "0x88C4109a9391C35F28e523cc45754D1a5342364d",
  "abi": [
    {
      "inputs": [],
      "name": "ArrayLengthMismatch",
      "type": "error"
    },
    {
      "anonymous": false,
      "inputs": [
        {
          "indexed": true,
          "internalType": "bytes32",
          "name": "messengerType",
          "type": "bytes32"
        },
        {
          "indexed": true,
          "internalType": "uint256",
          "name": "l2ChainId",
          "type": "uint256"
        },
        {
          "indexed": true,
          "internalType": "address",
          "name": "l1Token",
          "type": "address"
        },
        {
          "indexed": false,
          "internalType": "address",
          "name": "messenger",
          "type": "address"
        }
      ],
      "name": "MessengerSet",
      "type": "event"
    },
    {
      "anonymous": false,
      "inputs": [
        {
          "indexed": true,
          "internalType": "address",
          "name": "previousOwner",
          "type": "address"
        },
        {
          "indexed": true,
          "internalType": "address",
          "name": "newOwner",
          "type": "address"
        }
      ],
      "name": "OwnershipTransferred",
      "type": "event"
    },
    {
      "inputs": [
        {
          "internalType": "bytes32",
          "name": "messengerType",
          "type": "bytes32"
        },
        {
          "internalType": "uint256[]",
          "name": "l2ChainIds",
          "type": "uint256[]"
        },
        {
          "internalType": "address[]",
          "name": "l1Tokens",
          "type": "address[]"
        },
        {
          "internalType": "address[]",
          "name": "messengers",
          "type": "address[]"
        }
      ],
      "name": "batchSetMessengers",
      "outputs": [],
      "stateMutability": "nonpayable",
      "type": "function"
    },
    {
      "inputs": [
        {
          "internalType": "bytes32",
          "name": "",
          "type": "bytes32"
        },
        {
          "internalType": "uint256",
          "name": "",
          "type": "uint256"
        },
        {
          "internalType": "address",
          "name": "",
          "type": "address"
        }
      ],
      "name": "crossChainMessengers",
      "outputs": [
        {
          "internalType": "address",
          "name": "",
          "type": "address"
        }
      ],
      "stateMutability": "view",
      "type": "function"
    },
    {
      "inputs": [],
      "name": "owner",
      "outputs": [
        {
          "internalType": "address",
          "name": "",
          "type": "address"
        }
      ],
      "stateMutability": "view",
      "type": "function"
    },
    {
      "inputs": [],
      "name": "renounceOwnership",
      "outputs": [],
      "stateMutability": "nonpayable",
      "type": "function"
    },
    {
      "inputs": [
        {
          "internalType": "bytes32",
          "name": "messengerType",
          "type": "bytes32"
        },
        {
          "internalType": "uint256",
          "name": "l2ChainId",
          "type": "uint256"
        },
        {
          "internalType": "address",
          "name": "l1Token",
          "type": "address"
        },
        {
          "internalType": "address",
          "name": "messenger",
          "type": "address"
        }
      ],
      "name": "setMessenger",
      "outputs": [],
      "stateMutability": "nonpayable",
      "type": "function"
    },
    {
      "inputs": [
        {
          "internalType": "address",
          "name": "newOwner",
          "type": "address"
        }
      ],
      "name": "transferOwnership",
      "outputs": [],
      "stateMutability": "nonpayable",
      "type": "function"
    }
  ],
  "transactionHash": "0x845b8e831709d8968317f9eeb92a4e35585275244731c02a46a058ccd3da85cd",
  "args": [],
  "numDeployments": 1,
  "solcInputHash": "c7649517923dc4f44307584fc9a076ab",
  "bytecode": "0x6080806040523461005a575f8054336001600160a01b0319821681178355916001600160a01b03909116907f8be0079c531659141344cd1fd0a4f28419497f9722a3daafe3b4186f6b6457e09080a361059f908161005f8239f35b5f80fdfe608060409080825260049182361015610016575f80fd5b5f3560e01c918263715018a61461036b57826386011ebb1461024e575081638da5cb5b146101fe5781638f7d9bec1461018557508063d08a2d8f146101145763f2fde38b14610063575f80fd5b346101105760207ffffffffffffffffffffffffffffffffffffffffffffffffffffffffffffffffc360112610110573573ffffffffffffffffffffffffffffffffffffffff808216809203610110576100ba6104b7565b8115610110575f54827fffffffffffffffffffffffff00000000000000000000000000000000000000008216175f55167f8be0079c531659141344cd1fd0a4f28419497f9722a3daafe3b4186f6b6457e05f80a3005b5f80fd5b50346101105760807ffffffffffffffffffffffffffffffffffffffffffffffffffffffffffffffffc3601126101105761014c610436565b6064359073ffffffffffffffffffffffffffffffffffffffff8216820361011057610183926101796104b7565b60243590356104d7565b005b9050346101105760607ffffffffffffffffffffffffffffffffffffffffffffffffffffffffffffffffc360112610110576020916101c1610436565b90355f5260018352815f206024355f528352815f2073ffffffffffffffffffffffffffffffffffffffff8092165f528352815f2054169051908152f35b34610110575f7ffffffffffffffffffffffffffffffffffffffffffffffffffffffffffffffffc3601126101105760209073ffffffffffffffffffffffffffffffffffffffff5f54169051908152f35b8390346101105760807ffffffffffffffffffffffffffffffffffffffffffffffffffffffffffffffffc3601126101105767ffffffffffffffff918035602435848111610110576102a29036908401610405565b939094604435818111610110576102bc9036908601610405565b9091606435908111610110576102d59036908701610405565b9590936102e06104b7565b828814801590610361575b61033c5750505f5b8681106102fc57005b8061033661030d6001938a8c610459565b3561032161031c848789610459565b610496565b61032f61031c858c8b610459565b91896104d7565b016102f3565b7fa24a13a6000000000000000000000000000000000000000000000000000000008152fd5b50868814156102eb565b34610110575f7ffffffffffffffffffffffffffffffffffffffffffffffffffffffffffffffffc360112610110576103a16104b7565b5f73ffffffffffffffffffffffffffffffffffffffff81547fffffffffffffffffffffffff000000000000000000000000000000000000000081168355167f8be0079c531659141344cd1fd0a4f28419497f9722a3daafe3b4186f6b6457e08280a3005b9181601f840112156101105782359167ffffffffffffffff8311610110576020808501948460051b01011161011057565b6044359073ffffffffffffffffffffffffffffffffffffffff8216820361011057565b91908110156104695760051b0190565b7f4e487b71000000000000000000000000000000000000000000000000000000005f52603260045260245ffd5b3573ffffffffffffffffffffffffffffffffffffffff811681036101105790565b73ffffffffffffffffffffffffffffffffffffffff5f5416330361011057565b90919260207f444623aa961faed91435ed1429e49548d6cf597edc4121dacef3734bebd5984f91835f526001825260405f20855f52825260405f209573ffffffffffffffffffffffffffffffffffffffff80911696875f52835260405f20911690817fffffffffffffffffffffffff0000000000000000000000000000000000000000825416179055604051908152a456fea26469706673582212206df310cc21df56f4b15853652c01780f14c295f36dd5571c1524c9f240684ef864736f6c63430008170033",
  "devdoc": {
    "details": "A helper contract for chain adapters that support OFT or XERC20 messaging(via Hyperlane) on L1Handles token => messenger/router mapping storage, as adapters are called via delegatecall and don't have relevant storage space",
    "kind": "dev",
    "methods": {
      "owner()": {
        "details": "Returns the address of the current owner."
      },
      "renounceOwnership()": {
        "details": "Leaves the contract without owner. It will not be possible to call `onlyOwner` functions. Can only be called by the current owner. NOTE: Renouncing ownership will leave the contract without an owner, thereby disabling any functionality that is only available to the owner."
      },
      "transferOwnership(address)": {
        "details": "Transfers ownership of the contract to a new account (`newOwner`). Can only be called by the current owner."
      }
    },
    "version": 1
  },
  "userdoc": {
    "kind": "user",
    "methods": {},
    "version": 1
  },
  "storageLayout": {
    "storage": [
      {
        "astId": 4146,
        "contract": "contracts/AdapterStore.sol:AdapterStore",
        "label": "_owner",
        "offset": 0,
        "slot": "0",
        "type": "t_address"
      },
      {
        "astId": 17961,
        "contract": "contracts/AdapterStore.sol:AdapterStore",
        "label": "crossChainMessengers",
        "offset": 0,
        "slot": "1",
        "type": "t_mapping(t_bytes32,t_mapping(t_uint256,t_mapping(t_address,t_address)))"
      }
    ],
    "types": {
      "t_address": {
        "encoding": "inplace",
        "label": "address",
        "numberOfBytes": "20"
      },
      "t_bytes32": {
        "encoding": "inplace",
        "label": "bytes32",
        "numberOfBytes": "32"
      },
      "t_mapping(t_address,t_address)": {
        "encoding": "mapping",
        "key": "t_address",
        "label": "mapping(address => address)",
        "numberOfBytes": "32",
        "value": "t_address"
      },
      "t_mapping(t_bytes32,t_mapping(t_uint256,t_mapping(t_address,t_address)))": {
        "encoding": "mapping",
        "key": "t_bytes32",
        "label": "mapping(bytes32 => mapping(uint256 => mapping(address => address)))",
        "numberOfBytes": "32",
        "value": "t_mapping(t_uint256,t_mapping(t_address,t_address))"
      },
      "t_mapping(t_uint256,t_mapping(t_address,t_address))": {
        "encoding": "mapping",
        "key": "t_uint256",
        "label": "mapping(uint256 => mapping(address => address))",
        "numberOfBytes": "32",
        "value": "t_mapping(t_address,t_address)"
      },
      "t_uint256": {
        "encoding": "inplace",
        "label": "uint256",
        "numberOfBytes": "32"
      }
    }
  }
}