{
  "address": "0x64a898c51F9A073f932bb40c95D5ac80f5139A3E",
  "abi": [
    {
      "inputs": [
        {
          "internalType": "address",
          "name": "underlyingAdapter",
          "type": "address"
        }
      ],
      "stateMutability": "nonpayable",
      "type": "constructor"
    },
    {
      "inputs": [],
      "name": "DelegateCallFailed",
      "type": "error"
    },
    {
      "inputs": [],
      "name": "RelayTokensNotSupported",
      "type": "error"
    },
    {
      "inputs": [],
      "name": "TargetSpokeMismatch",
      "type": "error"
    },
    {
      "anonymous": false,
      "inputs": [
        {
          "indexed": false,
          "internalType": "address",
          "name": "target",
          "type": "address"
        },
        {
          "indexed": false,
          "internalType": "bytes",
          "name": "message",
          "type": "bytes"
        }
      ],
      "name": "MessageRelayed",
      "type": "event"
    },
    {
      "anonymous": false,
      "inputs": [
        {
          "indexed": false,
          "internalType": "address",
          "name": "l1Token",
          "type": "address"
        },
        {
          "indexed": false,
          "internalType": "address",
          "name": "l2Token",
          "type": "address"
        },
        {
          "indexed": false,
          "internalType": "uint256",
          "name": "amount",
          "type": "uint256"
        },
        {
          "indexed": false,
          "internalType": "address",
          "name": "to",
          "type": "address"
        }
      ],
      "name": "TokensRelayed",
      "type": "event"
    },
    {
      "inputs": [],
      "name": "UNDERLYING_ADAPTER",
      "outputs": [
        {
          "internalType": "address",
          "name": "",
          "type": "address"
        }
      ],
      "stateMutability": "view",
      "type": "function"
    },
    {
      "inputs": [
        {
          "internalType": "address",
          "name": "target",
          "type": "address"
        },
        {
          "internalType": "bytes",
          "name": "message",
          "type": "bytes"
        }
      ],
      "name": "relayMessage",
      "outputs": [],
      "stateMutability": "payable",
      "type": "function"
    },
    {
      "inputs": [
        {
          "internalType": "address",
          "name": "",
          "type": "address"
        },
        {
          "internalType": "address",
          "name": "",
          "type": "address"
        },
        {
          "internalType": "uint256",
          "name": "",
          "type": "uint256"
        },
        {
          "internalType": "address",
          "name": "",
          "type": "address"
        }
      ],
      "name": "relayTokens",
      "outputs": [],
      "stateMutability": "payable",
      "type": "function"
    }
  ],
  "transactionHash": "0xf30630634ead4c7d50eb04d4fd53c101affede5c8a5446a01a3333593506315b",
  "args": [
    "0x5eC9844936875E27eBF22172f4d92E107D35B57C"
  ],
  "numDeployments": 1,
  "solcInputHash": "a4982dcb12b0123a537e778e4a5eff15",
  "bytecode": "0x60a03461007057601f6104ad38819003918201601f19168301916001600160401b038311848410176100745780849260209460405283398101031261007057516001600160a01b03811681036100705760805260405161042490816100898239608051818181608a01526101d10152f35b5f80fd5b634e487b7160e01b5f52604160045260245ffdfe6080604090808252600480361015610015575f80fd5b5f3560e01c91826352c8c75c1461032757508163e6eb8ade146100b2575063ecf6986314610041575f80fd5b346100ae575f7ffffffffffffffffffffffffffffffffffffffffffffffffffffffffffffffffc3601126100ae576020905173ffffffffffffffffffffffffffffffffffffffff7f0000000000000000000000000000000000000000000000000000000000000000168152f35b5f80fd5b82807ffffffffffffffffffffffffffffffffffffffffffffffffffffffffffffffffc3601126100ae576100e46103aa565b602480359167ffffffffffffffff928381116100ae57366023820112156100ae57808601358481116100ae57810136848201116100ae578160809103126100ae576101308382016103cd565b9161013d604483016103cd565b9161014a608482016103cd565b9073ffffffffffffffffffffffffffffffffffffffff928380931693849116036102ff576064918851948160208701977f52c8c75c00000000000000000000000000000000000000000000000000000000895216888701521660448501520135606483015260848201526084815260c08101818110858211176102d4578552515f918291907f00000000000000000000000000000000000000000000000000000000000000005af4913d156102cd573d908082116102a257845192601f83017fffffffffffffffffffffffffffffffffffffffffffffffffffffffffffffffe0908116603f01168401918211848310176102785750845281525f60203d92013e5b1561025257005b517f18cecad5000000000000000000000000000000000000000000000000000000008152fd5b6041877f4e487b71000000000000000000000000000000000000000000000000000000005f52525ffd5b826041877f4e487b71000000000000000000000000000000000000000000000000000000005f52525ffd5b505061024b565b836041887f4e487b71000000000000000000000000000000000000000000000000000000005f52525ffd5b8888517fd9050a27000000000000000000000000000000000000000000000000000000008152fd5b60807ffffffffffffffffffffffffffffffffffffffffffffffffffffffffffffffffc3601126100ae576103596103aa565b5073ffffffffffffffffffffffffffffffffffffffff602435818116036100ae57606435908116036100ae577f4df03728000000000000000000000000000000000000000000000000000000008152fd5b6004359073ffffffffffffffffffffffffffffffffffffffff821682036100ae57565b359073ffffffffffffffffffffffffffffffffffffffff821682036100ae5756fea2646970667358221220a279947e6715ad27f32a77a9c543a5ecc0c54e6fc29589d0d09c4a5fbed422cf64736f6c63430008170033",
  "devdoc": {
    "details": "A custom adapter that allows admin to delegatecall `relayTokens` on other adapters by calling `relaySpokePoolAdminFunction` on the HubPool",
    "kind": "dev",
    "methods": {
      "relayMessage(address,bytes)": {
        "params": {
          "message": "Abi-encoded arguments params for the `relayTokens` function call: (address l1Token, address l2Token, uint256 amount, address spokePool)",
          "target": "Receiver of tokens on the destination chain. SpokePool address passed in by the HubPool"
        }
      }
    },
    "version": 1
  },
  "userdoc": {
    "kind": "user",
    "methods": {},
    "version": 1
  },
  "storageLayout": {
    "storage": [],
    "types": null
  }
}