{
  "address": "0x937958992799bF4A9a656E6596FD10d7Da5c2216",
  "abi": [
    {
      "inputs": [
        {
          "internalType": "contract ArbitrumL1InboxLike",
          "name": "_l1ArbitrumInbox",
          "type": "address"
        },
        {
          "internalType": "contract ArbitrumL1ERC20GatewayLike",
          "name": "_l1ERC20GatewayRouter",
          "type": "address"
        }
      ],
      "stateMutability": "nonpayable",
      "type": "constructor"
    },
    {
      "anonymous": false,
      "inputs": [
        {
          "indexed": false,
          "internalType": "address",
          "name": "target",
          "type": "address"
        },
        {
          "indexed": false,
          "internalType": "bytes",
          "name": "message",
          "type": "bytes"
        }
      ],
      "name": "MessageRelayed",
      "type": "event"
    },
    {
      "anonymous": false,
      "inputs": [
        {
          "indexed": false,
          "internalType": "address",
          "name": "l1Token",
          "type": "address"
        },
        {
          "indexed": false,
          "internalType": "address",
          "name": "l2Token",
          "type": "address"
        },
        {
          "indexed": false,
          "internalType": "uint256",
          "name": "amount",
          "type": "uint256"
        },
        {
          "indexed": false,
          "internalType": "address",
          "name": "to",
          "type": "address"
        }
      ],
      "name": "TokensRelayed",
      "type": "event"
    },
    {
      "inputs": [],
      "name": "getL1CallValue",
      "outputs": [
        {
          "internalType": "uint256",
          "name": "",
          "type": "uint256"
        }
      ],
      "stateMutability": "pure",
      "type": "function"
    },
    {
      "inputs": [],
      "name": "l1ERC20GatewayRouter",
      "outputs": [
        {
          "internalType": "contract ArbitrumL1ERC20GatewayLike",
          "name": "",
          "type": "address"
        }
      ],
      "stateMutability": "view",
      "type": "function"
    },
    {
      "inputs": [],
      "name": "l1Inbox",
      "outputs": [
        {
          "internalType": "contract ArbitrumL1InboxLike",
          "name": "",
          "type": "address"
        }
      ],
      "stateMutability": "view",
      "type": "function"
    },
    {
      "inputs": [],
      "name": "l2GasLimit",
      "outputs": [
        {
          "internalType": "uint32",
          "name": "",
          "type": "uint32"
        }
      ],
      "stateMutability": "view",
      "type": "function"
    },
    {
      "inputs": [],
      "name": "l2GasPrice",
      "outputs": [
        {
          "internalType": "uint256",
          "name": "",
          "type": "uint256"
        }
      ],
      "stateMutability": "view",
      "type": "function"
    },
    {
      "inputs": [],
      "name": "l2MaxSubmissionCost",
      "outputs": [
        {
          "internalType": "uint256",
          "name": "",
          "type": "uint256"
        }
      ],
      "stateMutability": "view",
      "type": "function"
    },
    {
      "inputs": [],
      "name": "l2RefundL2Address",
      "outputs": [
        {
          "internalType": "address",
          "name": "",
          "type": "address"
        }
      ],
      "stateMutability": "view",
      "type": "function"
    },
    {
      "inputs": [
        {
          "internalType": "address",
          "name": "target",
          "type": "address"
        },
        {
          "internalType": "bytes",
          "name": "message",
          "type": "bytes"
        }
      ],
      "name": "relayMessage",
      "outputs": [],
      "stateMutability": "payable",
      "type": "function"
    },
    {
      "inputs": [
        {
          "internalType": "address",
          "name": "l1Token",
          "type": "address"
        },
        {
          "internalType": "address",
          "name": "l2Token",
          "type": "address"
        },
        {
          "internalType": "uint256",
          "name": "amount",
          "type": "uint256"
        },
        {
          "internalType": "address",
          "name": "to",
          "type": "address"
        }
      ],
      "name": "relayTokens",
      "outputs": [],
      "stateMutability": "payable",
      "type": "function"
    }
  ],
  "transactionHash": "0xab7ccbdff371632c3ca94bb67d4acddf640dbca981c3cc389f2b1817832a7440",
  "args": [
    "0x4Dbd4fc535Ac27206064B68FfCf827b0A60BAB3f",
    "0x72Ce9c846789fdB6fC1f34aC4AD25Dd9ef7031ef"
  ],
  "numDeployments": 1,
  "solcInputHash": "2433465a1be70a13b6719df6fea2831a",
  "bytecode": "0x610140604052662386f26fc1000060805264012a05f20060a052621e848060c05234801561002c57600080fd5b5060405161128438038061128483398101604081905261004b91610080565b6001600160a01b039182166101005216610120523360e0526100ba565b6001600160a01b038116811461007d57600080fd5b50565b6000806040838503121561009357600080fd5b825161009e81610068565b60208401519092506100af81610068565b809150509250929050565b60805160a05160c05160e051610100516101205161111a61016a6000396000818160d501528181610333015261047001526000818161014301526105cd0152600081816101ab0152818161062e015261064f0152600081816101df01528181610269015281816104a501526106700152600081816101770152818161028b015281816104c70152610691015260008181610228015281816102b5015281816103c5015261060d015261111a6000f3fe6080604052600436106100965760003560e01c80639ae3668511610069578063cf6e65b71161004e578063cf6e65b7146101cd578063e599477e14610216578063e6eb8ade1461024a57600080fd5b80639ae36685146101655780639c3ba2001461019957600080fd5b806308f1ed151461009b5780631ba4a9cb146100c357806352c8c75c1461011c5780638134f38514610131575b600080fd5b3480156100a757600080fd5b506100b061025d565b6040519081526020015b60405180910390f35b3480156100cf57600080fd5b506100f77f000000000000000000000000000000000000000000000000000000000000000081565b60405173ffffffffffffffffffffffffffffffffffffffff90911681526020016100ba565b61012f61012a366004610c47565b6102de565b005b34801561013d57600080fd5b506100f77f000000000000000000000000000000000000000000000000000000000000000081565b34801561017157600080fd5b506100b07f000000000000000000000000000000000000000000000000000000000000000081565b3480156101a557600080fd5b506100f77f000000000000000000000000000000000000000000000000000000000000000081565b3480156101d957600080fd5b506102017f000000000000000000000000000000000000000000000000000000000000000081565b60405163ffffffff90911681526020016100ba565b34801561022257600080fd5b506100b07f000000000000000000000000000000000000000000000000000000000000000081565b61012f610258366004610d5e565b6105bf565b60006102af63ffffffff7f0000000000000000000000000000000000000000000000000000000000000000167f0000000000000000000000000000000000000000000000000000000000000000610e20565b6102d9907f0000000000000000000000000000000000000000000000000000000000000000610e5d565b905090565b60006102e8610756565b6040517fbda009fe00000000000000000000000000000000000000000000000000000000815273ffffffffffffffffffffffffffffffffffffffff87811660048301529192506000917f0000000000000000000000000000000000000000000000000000000000000000169063bda009fe90602401602060405180830381865afa15801561037a573d6000803e3d6000fd5b505050506040513d601f19601f8201168201806040525081019061039e9190610e75565b90506103c173ffffffffffffffffffffffffffffffffffffffff871682866107d4565b60007f000000000000000000000000000000000000000000000000000000000000000060405160200161040591815260406020820181905260009082015260600190565b604080517fffffffffffffffffffffffffffffffffffffffffffffffffffffffffffffffe0818403018152908290527fd2ce7d65000000000000000000000000000000000000000000000000000000008252915073ffffffffffffffffffffffffffffffffffffffff7f0000000000000000000000000000000000000000000000000000000000000000169063d2ce7d659085906104f1908b9089908b907f0000000000000000000000000000000000000000000000000000000000000000907f0000000000000000000000000000000000000000000000000000000000000000908a90600401610f08565b60006040518083038185885af115801561050f573d6000803e3d6000fd5b50505050506040513d6000823e601f3d9081017fffffffffffffffffffffffffffffffffffffffffffffffffffffffffffffffe01682016040526105569190810190610f65565b506040805173ffffffffffffffffffffffffffffffffffffffff898116825288811660208301528183018890528616606082015290517fd7e09655439c3932e55857df3220186e5a7f0980825f20691c2b35d941dee75b9181900360800190a150505050505050565b60006105c9610756565b90507f000000000000000000000000000000000000000000000000000000000000000073ffffffffffffffffffffffffffffffffffffffff1663679b6ded828560007f00000000000000000000000000000000000000000000000000000000000000007f00000000000000000000000000000000000000000000000000000000000000007f00000000000000000000000000000000000000000000000000000000000000007f00000000000000000000000000000000000000000000000000000000000000007f00000000000000000000000000000000000000000000000000000000000000008b6040518a63ffffffff1660e01b81526004016106d4989796959493929190610fdc565b60206040518083038185885af11580156106f2573d6000803e3d6000fd5b50505050506040513d601f19601f82011682018060405250810190610717919061104b565b507f9e6c52944e331ba6270e7fe4cea2a4086bae8f7a27e1cdba07f416806f5d0ac48383604051610749929190611064565b60405180910390a1505050565b600061076061025d565b9050804710156107d1576040517f08c379a000000000000000000000000000000000000000000000000000000000815260206004820152601860248201527f496e73756666696369656e74204554482062616c616e6365000000000000000060448201526064015b60405180910390fd5b90565b6040517fdd62ed3e00000000000000000000000000000000000000000000000000000000815230600482015273ffffffffffffffffffffffffffffffffffffffff8381166024830152600091839186169063dd62ed3e90604401602060405180830381865afa15801561084b573d6000803e3d6000fd5b505050506040513d601f19601f8201168201806040525081019061086f919061104b565b6108799190610e5d565b6040805173ffffffffffffffffffffffffffffffffffffffff8616602482015260448082018490528251808303909101815260649091019091526020810180517bffffffffffffffffffffffffffffffffffffffffffffffffffffffff167f095ea7b30000000000000000000000000000000000000000000000000000000017905290915061090990859061090f565b50505050565b6000610971826040518060400160405280602081526020017f5361666545524332303a206c6f772d6c6576656c2063616c6c206661696c65648152508573ffffffffffffffffffffffffffffffffffffffff16610a209092919063ffffffff16565b805190915015610a1b578080602001905181019061098f9190611093565b610a1b576040517f08c379a000000000000000000000000000000000000000000000000000000000815260206004820152602a60248201527f5361666545524332303a204552433230206f7065726174696f6e20646964206e60448201527f6f7420737563636565640000000000000000000000000000000000000000000060648201526084016107c8565b505050565b6060610a2f8484600085610a39565b90505b9392505050565b606082471015610acb576040517f08c379a000000000000000000000000000000000000000000000000000000000815260206004820152602660248201527f416464726573733a20696e73756666696369656e742062616c616e636520666f60448201527f722063616c6c000000000000000000000000000000000000000000000000000060648201526084016107c8565b73ffffffffffffffffffffffffffffffffffffffff85163b610b49576040517f08c379a000000000000000000000000000000000000000000000000000000000815260206004820152601d60248201527f416464726573733a2063616c6c20746f206e6f6e2d636f6e747261637400000060448201526064016107c8565b6000808673ffffffffffffffffffffffffffffffffffffffff168587604051610b7291906110b5565b60006040518083038185875af1925050503d8060008114610baf576040519150601f19603f3d011682016040523d82523d6000602084013e610bb4565b606091505b5091509150610bc4828286610bcf565b979650505050505050565b60608315610bde575081610a32565b825115610bee5782518084602001fd5b816040517f08c379a00000000000000000000000000000000000000000000000000000000081526004016107c891906110d1565b73ffffffffffffffffffffffffffffffffffffffff81168114610c4457600080fd5b50565b60008060008060808587031215610c5d57600080fd5b8435610c6881610c22565b93506020850135610c7881610c22565b9250604085013591506060850135610c8f81610c22565b939692955090935050565b7f4e487b7100000000000000000000000000000000000000000000000000000000600052604160045260246000fd5b604051601f82017fffffffffffffffffffffffffffffffffffffffffffffffffffffffffffffffe016810167ffffffffffffffff81118282101715610d1057610d10610c9a565b604052919050565b600067ffffffffffffffff821115610d3257610d32610c9a565b50601f017fffffffffffffffffffffffffffffffffffffffffffffffffffffffffffffffe01660200190565b60008060408385031215610d7157600080fd5b8235610d7c81610c22565b9150602083013567ffffffffffffffff811115610d9857600080fd5b8301601f81018513610da957600080fd5b8035610dbc610db782610d18565b610cc9565b818152866020838501011115610dd157600080fd5b816020840160208301376000602083830101528093505050509250929050565b7f4e487b7100000000000000000000000000000000000000000000000000000000600052601160045260246000fd5b6000817fffffffffffffffffffffffffffffffffffffffffffffffffffffffffffffffff0483118215151615610e5857610e58610df1565b500290565b60008219821115610e7057610e70610df1565b500190565b600060208284031215610e8757600080fd5b8151610a3281610c22565b60005b83811015610ead578181015183820152602001610e95565b838111156109095750506000910152565b60008151808452610ed6816020860160208601610e92565b601f017fffffffffffffffffffffffffffffffffffffffffffffffffffffffffffffffe0169290920160200192915050565b600073ffffffffffffffffffffffffffffffffffffffff808916835280881660208401525085604083015263ffffffff8516606083015283608083015260c060a0830152610f5960c0830184610ebe565b98975050505050505050565b600060208284031215610f7757600080fd5b815167ffffffffffffffff811115610f8e57600080fd5b8201601f81018413610f9f57600080fd5b8051610fad610db782610d18565b818152856020838501011115610fc257600080fd5b610fd3826020830160208601610e92565b95945050505050565b600061010073ffffffffffffffffffffffffffffffffffffffff808c1684528a6020850152896040850152808916606085015280881660808501525063ffffffff861660a08401528460c08401528060e084015261103c81840185610ebe565b9b9a5050505050505050505050565b60006020828403121561105d57600080fd5b5051919050565b73ffffffffffffffffffffffffffffffffffffffff83168152604060208201526000610a2f6040830184610ebe565b6000602082840312156110a557600080fd5b81518015158114610a3257600080fd5b600082516110c7818460208701610e92565b9190910192915050565b602081526000610a326020830184610ebe56fea26469706673582212203e211fa11542a3146dbf1d5afde804b46ca1cc0ca35ecbd1eccc4f553457584d64736f6c634300080d0033",
  "devdoc": {
    "details": "Public functions calling external contracts do not guard against reentrancy because they are expected to be called via delegatecall, which will execute this contract's logic within the context of the originating contract. For example, the HubPool will delegatecall these functions, therefore its only necessary that the HubPool's methods that call this contract's logic guard against reentrancy.",
    "kind": "dev",
    "methods": {
      "constructor": {
        "params": {
          "_l1ArbitrumInbox": "Inbox helper contract to send messages to Arbitrum.",
          "_l1ERC20GatewayRouter": "ERC20 gateway router contract to send tokens to Arbitrum."
        }
      },
      "getL1CallValue()": {
        "returns": {
          "_0": "amount of ETH that this contract needs to hold in order for relayMessage to succeed."
        }
      },
      "relayMessage(address,bytes)": {
        "params": {
          "message": "Data to send to target.",
          "target": "Contract on Arbitrum that will receive message."
        }
      },
      "relayTokens(address,address,uint256,address)": {
        "params": {
          "amount": "Amount of L1 tokens to deposit and L2 tokens to receive.",
          "l1Token": "L1 token to deposit.",
          "l2Token": "L2 token to receive.",
          "to": "Bridge recipient."
        }
      }
    },
    "version": 1
  },
  "userdoc": {
    "kind": "user",
    "methods": {
      "constructor": {
        "notice": "Constructs new Adapter."
      },
      "getL1CallValue()": {
        "notice": "Returns required amount of ETH to send a message via the Inbox."
      },
      "relayMessage(address,bytes)": {
        "notice": "Send cross-chain message to target on Arbitrum.This contract must hold at least getL1CallValue() amount of ETH to send a message via the Inbox successfully, or the message will get stuck."
      },
      "relayTokens(address,address,uint256,address)": {
        "notice": "Bridge tokens to Arbitrum.This contract must hold at least getL1CallValue() amount of ETH to send a message via the Inbox successfully, or the message will get stuck."
      }
    },
    "notice": "Contract containing logic to send messages from L1 to Arbitrum.",
    "version": 1
  },
  "storageLayout": {
    "storage": [],
    "types": null
  }
}