{
  "address": "0x5eC9844936875E27eBF22172f4d92E107D35B57C",
  "abi": [
    {
      "inputs": [
        {
          "internalType": "contract ArbitrumInboxLike",
          "name": "_l1ArbitrumInbox",
          "type": "address"
        },
        {
          "internalType": "contract ArbitrumL1ERC20GatewayLike",
          "name": "_l1ERC20GatewayRouter",
          "type": "address"
        },
        {
          "internalType": "address",
          "name": "_l2RefundL2Address",
          "type": "address"
        },
        {
          "internalType": "contract IERC20",
          "name": "_l1Usdc",
          "type": "address"
        },
        {
          "internalType": "contract ITokenMessenger",
          "name": "_cctpTokenMessenger",
          "type": "address"
        },
        {
          "internalType": "address",
          "name": "_adapterStore",
          "type": "address"
        },
        {
          "internalType": "uint32",
          "name": "_oftDstEid",
          "type": "uint32"
        },
        {
          "internalType": "uint256",
          "name": "_oftFeeCap",
          "type": "uint256"
        }
      ],
      "stateMutability": "nonpayable",
      "type": "constructor"
    },
    {
      "inputs": [],
      "name": "OftFeeCapExceeded",
      "type": "error"
    },
    {
      "inputs": [],
      "name": "OftIncorrectAmountReceivedLD",
      "type": "error"
    },
    {
      "inputs": [],
      "name": "OftIncorrectAmountSentLD",
      "type": "error"
    },
    {
      "inputs": [],
      "name": "OftInsufficientBalanceForFee",
      "type": "error"
    },
    {
      "inputs": [],
      "name": "OftLzFeeNotZero",
      "type": "error"
    },
    {
      "anonymous": false,
      "inputs": [
        {
          "indexed": false,
          "internalType": "address",
          "name": "target",
          "type": "address"
        },
        {
          "indexed": false,
          "internalType": "bytes",
          "name": "message",
          "type": "bytes"
        }
      ],
      "name": "MessageRelayed",
      "type": "event"
    },
    {
      "anonymous": false,
      "inputs": [
        {
          "indexed": false,
          "internalType": "address",
          "name": "l1Token",
          "type": "address"
        },
        {
          "indexed": false,
          "internalType": "address",
          "name": "l2Token",
          "type": "address"
        },
        {
          "indexed": false,
          "internalType": "uint256",
          "name": "amount",
          "type": "uint256"
        },
        {
          "indexed": false,
          "internalType": "address",
          "name": "to",
          "type": "address"
        }
      ],
      "name": "TokensRelayed",
      "type": "event"
    },
    {
      "inputs": [],
      "name": "EMPTY_MSG_BYTES",
      "outputs": [
        {
          "internalType": "bytes",
          "name": "",
          "type": "bytes"
        }
      ],
      "stateMutability": "view",
      "type": "function"
    },
    {
      "inputs": [],
      "name": "L1_DAI",
      "outputs": [
        {
          "internalType": "address",
          "name": "",
          "type": "address"
        }
      ],
      "stateMutability": "view",
      "type": "function"
    },
    {
      "inputs": [],
      "name": "L1_ERC20_GATEWAY_ROUTER",
      "outputs": [
        {
          "internalType": "contract ArbitrumL1ERC20GatewayLike",
          "name": "",
          "type": "address"
        }
      ],
      "stateMutability": "view",
      "type": "function"
    },
    {
      "inputs": [],
      "name": "L1_INBOX",
      "outputs": [
        {
          "internalType": "contract ArbitrumInboxLike",
          "name": "",
          "type": "address"
        }
      ],
      "stateMutability": "view",
      "type": "function"
    },
    {
      "inputs": [],
      "name": "L2_CALL_VALUE",
      "outputs": [
        {
          "internalType": "uint256",
          "name": "",
          "type": "uint256"
        }
      ],
      "stateMutability": "view",
      "type": "function"
    },
    {
      "inputs": [],
      "name": "L2_GAS_PRICE",
      "outputs": [
        {
          "internalType": "uint256",
          "name": "",
          "type": "uint256"
        }
      ],
      "stateMutability": "view",
      "type": "function"
    },
    {
      "inputs": [],
      "name": "L2_MAX_SUBMISSION_COST",
      "outputs": [
        {
          "internalType": "uint256",
          "name": "",
          "type": "uint256"
        }
      ],
      "stateMutability": "view",
      "type": "function"
    },
    {
      "inputs": [],
      "name": "L2_REFUND_L2_ADDRESS",
      "outputs": [
        {
          "internalType": "address",
          "name": "",
          "type": "address"
        }
      ],
      "stateMutability": "view",
      "type": "function"
    },
    {
      "inputs": [],
      "name": "OFT_ADAPTER_STORE",
      "outputs": [
        {
          "internalType": "contract AdapterStore",
          "name": "",
          "type": "address"
        }
      ],
      "stateMutability": "view",
      "type": "function"
    },
    {
      "inputs": [],
      "name": "OFT_DST_EID",
      "outputs": [
        {
          "internalType": "uint32",
          "name": "",
          "type": "uint32"
        }
      ],
      "stateMutability": "view",
      "type": "function"
    },
    {
      "inputs": [],
      "name": "OFT_FEE_CAP",
      "outputs": [
        {
          "internalType": "uint256",
          "name": "",
          "type": "uint256"
        }
      ],
      "stateMutability": "view",
      "type": "function"
    },
    {
      "inputs": [],
      "name": "RELAY_MESSAGE_L2_GAS_LIMIT",
      "outputs": [
        {
          "internalType": "uint32",
          "name": "",
          "type": "uint32"
        }
      ],
      "stateMutability": "view",
      "type": "function"
    },
    {
      "inputs": [],
      "name": "RELAY_TOKENS_L2_GAS_LIMIT",
      "outputs": [
        {
          "internalType": "uint32",
          "name": "",
          "type": "uint32"
        }
      ],
      "stateMutability": "view",
      "type": "function"
    },
    {
      "inputs": [],
      "name": "cctpTokenMessenger",
      "outputs": [
        {
          "internalType": "contract ITokenMessenger",
          "name": "",
          "type": "address"
        }
      ],
      "stateMutability": "view",
      "type": "function"
    },
    {
      "inputs": [],
      "name": "cctpV2",
      "outputs": [
        {
          "internalType": "bool",
          "name": "",
          "type": "bool"
        }
      ],
      "stateMutability": "view",
      "type": "function"
    },
    {
      "inputs": [
        {
          "internalType": "uint32",
          "name": "l2GasLimit",
          "type": "uint32"
        }
      ],
      "name": "getL1CallValue",
      "outputs": [
        {
          "internalType": "uint256",
          "name": "",
          "type": "uint256"
        }
      ],
      "stateMutability": "pure",
      "type": "function"
    },
    {
      "inputs": [],
      "name": "recipientCircleDomainId",
      "outputs": [
        {
          "internalType": "uint32",
          "name": "",
          "type": "uint32"
        }
      ],
      "stateMutability": "view",
      "type": "function"
    },
    {
      "inputs": [
        {
          "internalType": "address",
          "name": "target",
          "type": "address"
        },
        {
          "internalType": "bytes",
          "name": "message",
          "type": "bytes"
        }
      ],
      "name": "relayMessage",
      "outputs": [],
      "stateMutability": "payable",
      "type": "function"
    },
    {
      "inputs": [
        {
          "internalType": "address",
          "name": "l1Token",
          "type": "address"
        },
        {
          "internalType": "address",
          "name": "l2Token",
          "type": "address"
        },
        {
          "internalType": "uint256",
          "name": "amount",
          "type": "uint256"
        },
        {
          "internalType": "address",
          "name": "to",
          "type": "address"
        }
      ],
      "name": "relayTokens",
      "outputs": [],
      "stateMutability": "payable",
      "type": "function"
    },
    {
      "inputs": [],
      "name": "usdcToken",
      "outputs": [
        {
          "internalType": "contract IERC20",
          "name": "",
          "type": "address"
        }
      ],
      "stateMutability": "view",
      "type": "function"
    }
  ],
  "transactionHash": "0x1873ad65af1f22ea86d3fbe6420eb72a254430e4e8b8ec94913dedba14d98484",
  "args": [
    "0x4Dbd4fc535Ac27206064B68FfCf827b0A60BAB3f",
    "0x72Ce9c846789fdB6fC1f34aC4AD25Dd9ef7031ef",
    "0x07aE8551Be970cB1cCa11Dd7a11F47Ae82e70E67",
    "0xA0b86991c6218b36c1d19D4a2e9Eb0cE3606eB48",
    "0xBd3fa81B58Ba92a82136038B25aDec7066af3155",
    "0x42df4D71f35ffBD28ae217d52E83C1DA0007D63b",
    30110,
    "1000000000000000000"
  ],
  "numDeployments": 4,
  "solcInputHash": "a4568173fdd07a4724f5e04f961d9865",
  "bytecode": "0x6101c0604081815234620002bb578190620021218038038091620000248286620002bf565b843961010093849181010312620002bb5781516001600160a01b038082168203620002bb57602080850151938285168503620002bb5762000067818701620002e3565b9260608701518181168103620002bb5760808801519382851690818603620002bb576200009760a08b01620002e3565b9560c08b01519a63ffffffff8c168c03620002bb5760e0015160a09490945260c0526003608052845163011a412160e61b828201908152600482526001600160401b039382880191858311848410176200029c575f9384938a5251915afa91843d15620002b057503d9081116200029c5784918651916200012282601f19601f8401160184620002bf565b82523d5f8284013e5b8362000290575b836200025e575b50505060e0526101209788528852610140921682526101809384526101a09485526101609283525194611e289687620002f9883960805187818161076501528181610bd70152610d68015260a0518781816109ba01528181610a9901528181610c2f01528181610dc00152818161179801526118e8015260c05187818161064f0152818161094d0152818161099801528181610a2101528181610b7e01528181610c850152610e03015260e0518781816106a80152610b430152518681816107be0152611040015251858181610707015281816108a70152610f6f01525184818161056a01526109050152518381816101f6015281816103fb01526116e301525182818161025001526103410152518181816104fc0152818161148c01526115ef0152f35b815191810151929350908181106200027f575b5050161515825f8062000139565b5f19910360031b1b165f8062000271565b81518114935062000132565b634e487b7160e01b5f52604160045260245ffd5b91606091506200012b565b5f80fd5b601f909101601f19168101906001600160401b038211908210176200029c57604052565b51906001600160a01b0382168203620002bb5756fe6080806040526004361015610012575f80fd5b5f3560e01c90816306dd52481461190c5750806311eac8551461189e5780631fc1ba761461182f57806328f2716e146117f457806352c8c75c146107e157806361a04d30146107895780636e4009831461072b5780636fd5c10e146106cd578063775c0d03146106735780639748cf7c14610605578063a2531669146105c6578063a567bbf01461058e578063a6ec815e14610520578063b077d399146104b2578063b4c0d7ab1461045a578063c735281e1461041f578063cc7a3290146103b1578063e5216af714610365578063e585cc47146102f75763e6eb8ade146100f8575f80fd5b60407ffffffffffffffffffffffffffffffffffffffffffffffffffffffffffffffffc3601126102e15761012a611947565b60243567ffffffffffffffff81116102e157366023820112156102e157806004013591610156836119e3565b9261016460405194856119a2565b80845260209236602483830101116102e157815f926024869301838801378501015266470de4df820000908147106102e1578273ffffffffffffffffffffffffffffffffffffffff9182604051809481937f679b6ded00000000000000000000000000000000000000000000000000000000835216958660048301525f6024830152662386f26fc100006044830152827f0000000000000000000000000000000000000000000000000000000000000000168060648401526084830152621e848060a483015264012a05f20060c483015261010060e48301528161024c61010482018b611a3e565b03927f0000000000000000000000000000000000000000000000000000000000000000165af180156102ec576102be575b506102b97f9e6c52944e331ba6270e7fe4cea2a4086bae8f7a27e1cdba07f416806f5d0ac4936040805194859485528401526040830190611a3e565b0390a1005b8290813d83116102e5575b6102d381836119a2565b810103126102e1575f61027d565b5f80fd5b503d6102c9565b6040513d5f823e3d90fd5b346102e1575f7ffffffffffffffffffffffffffffffffffffffffffffffffffffffffffffffffc3601126102e157602060405173ffffffffffffffffffffffffffffffffffffffff7f0000000000000000000000000000000000000000000000000000000000000000168152f35b346102e1575f7ffffffffffffffffffffffffffffffffffffffffffffffffffffffffffffffffc3601126102e1576020604051736b175474e89094c44da98b954eedeac495271d0f8152f35b346102e1575f7ffffffffffffffffffffffffffffffffffffffffffffffffffffffffffffffffc3601126102e157602060405173ffffffffffffffffffffffffffffffffffffffff7f0000000000000000000000000000000000000000000000000000000000000000168152f35b346102e1575f7ffffffffffffffffffffffffffffffffffffffffffffffffffffffffffffffffc3601126102e1576020604051621e84808152f35b346102e1575f7ffffffffffffffffffffffffffffffffffffffffffffffffffffffffffffffffc3601126102e1576104ae60405161049781611986565b5f8152604051918291602083526020830190611a3e565b0390f35b346102e1575f7ffffffffffffffffffffffffffffffffffffffffffffffffffffffffffffffffc3601126102e157602060405173ffffffffffffffffffffffffffffffffffffffff7f0000000000000000000000000000000000000000000000000000000000000000168152f35b346102e1575f7ffffffffffffffffffffffffffffffffffffffffffffffffffffffffffffffffc3601126102e157602060405173ffffffffffffffffffffffffffffffffffffffff7f0000000000000000000000000000000000000000000000000000000000000000168152f35b346102e1575f7ffffffffffffffffffffffffffffffffffffffffffffffffffffffffffffffffc3601126102e15760206040515f8152f35b346102e1575f7ffffffffffffffffffffffffffffffffffffffffffffffffffffffffffffffffc3601126102e1576020604051662386f26fc100008152f35b346102e1575f7ffffffffffffffffffffffffffffffffffffffffffffffffffffffffffffffffc3601126102e157602060405173ffffffffffffffffffffffffffffffffffffffff7f0000000000000000000000000000000000000000000000000000000000000000168152f35b346102e1575f7ffffffffffffffffffffffffffffffffffffffffffffffffffffffffffffffffc3601126102e15760206040517f000000000000000000000000000000000000000000000000000000000000000015158152f35b346102e1575f7ffffffffffffffffffffffffffffffffffffffffffffffffffffffffffffffffc3601126102e157602060405163ffffffff7f0000000000000000000000000000000000000000000000000000000000000000168152f35b346102e1575f7ffffffffffffffffffffffffffffffffffffffffffffffffffffffffffffffffc3601126102e157602060405163ffffffff7f0000000000000000000000000000000000000000000000000000000000000000168152f35b346102e1575f7ffffffffffffffffffffffffffffffffffffffffffffffffffffffffffffffffc3601126102e15760206040517f00000000000000000000000000000000000000000000000000000000000000008152f35b60807ffffffffffffffffffffffffffffffffffffffffffffffffffffffffffffffffc3601126102e157610813611947565b60243573ffffffffffffffffffffffffffffffffffffffff811681036102e1576064359073ffffffffffffffffffffffffffffffffffffffff821682036102e1576040517f8f7d9bec0000000000000000000000000000000000000000000000000000000081527f4f46545f4d455353454e47455200000000000000000000000000000000000000600482015263ffffffff7f000000000000000000000000000000000000000000000000000000000000000016602482015273ffffffffffffffffffffffffffffffffffffffff8416604482015260208160648173ffffffffffffffffffffffffffffffffffffffff7f0000000000000000000000000000000000000000000000000000000000000000165afa9081156102ec575f916117d5575b5073ffffffffffffffffffffffffffffffffffffffff7f000000000000000000000000000000000000000000000000000000000000000016151580611780575b15610ef757506109de60443573ffffffffffffffffffffffffffffffffffffffff7f0000000000000000000000000000000000000000000000000000000000000000167f0000000000000000000000000000000000000000000000000000000000000000611b0f565b6040517fcb75c11c00000000000000000000000000000000000000000000000000000000815260208160048173ffffffffffffffffffffffffffffffffffffffff7f0000000000000000000000000000000000000000000000000000000000000000165afa9081156102ec575f91610ea7575b50602073ffffffffffffffffffffffffffffffffffffffff916024604051809481937fa56ec632000000000000000000000000000000000000000000000000000000008352817f0000000000000000000000000000000000000000000000000000000000000000166004840152165afa9081156102ec575f91610e75575b50604435805b610b375750509173ffffffffffffffffffffffffffffffffffffffff608092817fd7e09655439c3932e55857df3220186e5a7f0980825f20691c2b35d941dee75b955b81604051951685521660208401526044356040840152166060820152a1005b81811115610e6f57815b7f000000000000000000000000000000000000000000000000000000000000000015610d355773ffffffffffffffffffffffffffffffffffffffff7f0000000000000000000000000000000000000000000000000000000000000000163b156102e1576040517f8e0250ee00000000000000000000000000000000000000000000000000000000815281600482015263ffffffff7f000000000000000000000000000000000000000000000000000000000000000016602482015273ffffffffffffffffffffffffffffffffffffffff8616604482015273ffffffffffffffffffffffffffffffffffffffff7f00000000000000000000000000000000000000000000000000000000000000001660648201525f60848201525f60a48201526107d060c48201525f8160e4818373ffffffffffffffffffffffffffffffffffffffff7f0000000000000000000000000000000000000000000000000000000000000000165af180156102ec57610cf0575b505b8103908111610cc35780610ad5565b7f4e487b71000000000000000000000000000000000000000000000000000000005f52601160045260245ffd5b67ffffffffffffffff8111610d085760405286610cb2565b7f4e487b71000000000000000000000000000000000000000000000000000000005f52604160045260245ffd5b6040517f6fd3504e00000000000000000000000000000000000000000000000000000000815281600482015263ffffffff7f000000000000000000000000000000000000000000000000000000000000000016602482015273ffffffffffffffffffffffffffffffffffffffff8616604482015273ffffffffffffffffffffffffffffffffffffffff7f00000000000000000000000000000000000000000000000000000000000000001660648201526020816084815f73ffffffffffffffffffffffffffffffffffffffff7f0000000000000000000000000000000000000000000000000000000000000000165af180156102ec57610e36575b50610cb4565b6020813d602011610e67575b81610e4f602093836119a2565b810103126102e157610e6090611cc2565b5086610e30565b3d9150610e42565b80610b41565b90506020813d602011610e9f575b81610e90602093836119a2565b810103126102e1575184610acf565b3d9150610e83565b90506020813d602011610eef575b81610ec2602093836119a2565b810103126102e1575173ffffffffffffffffffffffffffffffffffffffff811681036102e1576020610a51565b3d9150610eb5565b90929073ffffffffffffffffffffffffffffffffffffffff81161561141b57604051610f2281611986565b5f8152604051610f3181611986565b5f815260405190610f4182611986565b5f8252604051928360e081011067ffffffffffffffff60e086011117610d085760e0840160405263ffffffff7f000000000000000000000000000000000000000000000000000000000000000016845273ffffffffffffffffffffffffffffffffffffffff8716602085015260443560408501526044356060850152608084015260a083015260c0820152604051917f3b6f743b000000000000000000000000000000000000000000000000000000008352604060048401526040838061100b6044820186611c55565b5f6024830152038173ffffffffffffffffffffffffffffffffffffffff85165afa9283156102ec575f936113e0575b508251907f000000000000000000000000000000000000000000000000000000000000000082116113b65747821161138c5760208401516113625761118b60209273ffffffffffffffffffffffffffffffffffffffff60c095604051868101905f808c7f095ea7b30000000000000000000000000000000000000000000000000000000094858152611128856110fc8d8b6044359116602484016020909392919373ffffffffffffffffffffffffffffffffffffffff60408201951681520152565b037fffffffffffffffffffffffffffffffffffffffffffffffffffffffffffffffe081018752866119a2565b8288865193165af1611138611d9a565b81611335575b5080611329575b156112e8575b5050604051978896879586937fc7c7f5b3000000000000000000000000000000000000000000000000000000008552608060048601526084850190611c55565b9180516024850152015160448301523060648301520393165af19081156102ec575f9161125e575b5060208101516044350361123457516044350361120a5773ffffffffffffffffffffffffffffffffffffffff608092817fd7e09655439c3932e55857df3220186e5a7f0980825f20691c2b35d941dee75b95610b18565b60046040517ff1522c00000000000000000000000000000000000000000000000000000000008152fd5b60046040517f37f8796a000000000000000000000000000000000000000000000000000000008152fd5b905060c03d60c0116112e1575b61127581836119a2565b810181810360c081126102e1576080136102e15760405191606083019083821067ffffffffffffffff831117610d08576112db93608092604052815181526112bf60208301611cc2565b602082015260406112d285828501611c1c565b91015201611c1c565b846111b3565b503d61126b565b61131a61132292604051908a82015285891660248201525f6044820152604481526113128161196a565b858d16611cef565b838b16611cef565b8b8061114b565b50838b163b1515611145565b805180159250821561134a575b50508e61113e565b61135b925081018a01908a01611cd7565b8e80611342565b60046040517f38a0bb24000000000000000000000000000000000000000000000000000000008152fd5b60046040517fa6226f85000000000000000000000000000000000000000000000000000000008152fd5b60046040517f1754d7a9000000000000000000000000000000000000000000000000000000008152fd5b90925060403d604011611414575b6113f881836119a2565b81016040828203126102e15761140d91611c1c565b918661103a565b503d6113ee565b506628db3066eac00092919247106102e1576040517fbda009fe00000000000000000000000000000000000000000000000000000000815273ffffffffffffffffffffffffffffffffffffffff8216600482015260208160248173ffffffffffffffffffffffffffffffffffffffff7f0000000000000000000000000000000000000000000000000000000000000000165afa80156102ec576114e0915f91611751575b506044359073ffffffffffffffffffffffffffffffffffffffff8416611b0f565b604051662386f26fc1000060208201526040808201525f6060820152606081526115098161196a565b73ffffffffffffffffffffffffffffffffffffffff8216736b175474e89094c44da98b954eedeac495271d0f03611681575f6115ce91604051809381927fd2ce7d6500000000000000000000000000000000000000000000000000000000835273ffffffffffffffffffffffffffffffffffffffff8716600484015273ffffffffffffffffffffffffffffffffffffffff891660248401526044356044840152620493e0606484015264012a05f200608484015260c060a484015260c4830190611a3e565b03816628db3066eac00073ffffffffffffffffffffffffffffffffffffffff7f0000000000000000000000000000000000000000000000000000000000000000165af19384156102ec5773ffffffffffffffffffffffffffffffffffffffff60809481937fd7e09655439c3932e55857df3220186e5a7f0980825f20691c2b35d941dee75b9761165f575b50610b18565b61167a903d805f833e61167281836119a2565b810190611aad565b5087611659565b5f6115ce91604051809381927f4fb1a07b00000000000000000000000000000000000000000000000000000000835273ffffffffffffffffffffffffffffffffffffffff8716600484015273ffffffffffffffffffffffffffffffffffffffff7f000000000000000000000000000000000000000000000000000000000000000016602484015273ffffffffffffffffffffffffffffffffffffffff891660448401526044356064840152620493e0608484015264012a05f20060a484015260e060c484015260e4830190611a3e565b611773915060203d602011611779575b61176b81836119a2565b810190611a81565b856114bf565b503d611761565b5073ffffffffffffffffffffffffffffffffffffffff7f00000000000000000000000000000000000000000000000000000000000000001673ffffffffffffffffffffffffffffffffffffffff851614610975565b6117ee915060203d6020116117795761176b81836119a2565b84610935565b346102e1575f7ffffffffffffffffffffffffffffffffffffffffffffffffffffffffffffffffc3601126102e1576020604051620493e08152f35b346102e15760207ffffffffffffffffffffffffffffffffffffffffffffffffffffffffffffffffc3601126102e15760043563ffffffff81168091036102e15764012a05f2009080820291820403610cc357662386f26fc10000908101809111610cc357602090604051908152f35b346102e1575f7ffffffffffffffffffffffffffffffffffffffffffffffffffffffffffffffffc3601126102e157602060405173ffffffffffffffffffffffffffffffffffffffff7f0000000000000000000000000000000000000000000000000000000000000000168152f35b346102e1575f7ffffffffffffffffffffffffffffffffffffffffffffffffffffffffffffffffc3601126102e1578064012a05f20060209252f35b6004359073ffffffffffffffffffffffffffffffffffffffff821682036102e157565b6080810190811067ffffffffffffffff821117610d0857604052565b6020810190811067ffffffffffffffff821117610d0857604052565b90601f7fffffffffffffffffffffffffffffffffffffffffffffffffffffffffffffffe0910116810190811067ffffffffffffffff821117610d0857604052565b67ffffffffffffffff8111610d0857601f017fffffffffffffffffffffffffffffffffffffffffffffffffffffffffffffffe01660200190565b5f5b838110611a2e5750505f910152565b8181015183820152602001611a1f565b907fffffffffffffffffffffffffffffffffffffffffffffffffffffffffffffffe0601f602093611a7a81518092818752878088019101611a1d565b0116010190565b908160209103126102e1575173ffffffffffffffffffffffffffffffffffffffff811681036102e15790565b6020818303126102e15780519067ffffffffffffffff82116102e1570181601f820112156102e1578051611ae0816119e3565b92611aee60405194856119a2565b818452602082840101116102e157611b0c9160208085019101611a1d565b90565b60449192602073ffffffffffffffffffffffffffffffffffffffff604051948580927fdd62ed3e000000000000000000000000000000000000000000000000000000008252306004830152808916602483015286165afa9283156102ec575f93611be8575b508201809211610cc3576040517f095ea7b300000000000000000000000000000000000000000000000000000000602082015273ffffffffffffffffffffffffffffffffffffffff939093166024840152604480840192909252908252611be69190611be16064836119a2565b611cef565b565b9092506020813d602011611c14575b81611c04602093836119a2565b810103126102e15751915f611b74565b3d9150611bf7565b91908260409103126102e1576040516040810181811067ffffffffffffffff821117610d08576040526020808294805184520151910152565b611b0c9163ffffffff825116815260208201516020820152604082015160408201526060820151606082015260c0611cb1611c9f608085015160e0608086015260e0850190611a3e565b60a085015184820360a0860152611a3e565b9201519060c0818403910152611a3e565b519067ffffffffffffffff821682036102e157565b908160209103126102e1575180151581036102e15790565b73ffffffffffffffffffffffffffffffffffffffff166040516040810181811067ffffffffffffffff821117610d0857611d6a937f5361666545524332303a206c6f772d6c6576656c2063616c6c206661696c656460205f948594604052818152015260208151910182855af1611d64611d9a565b91611dc9565b8051908115918215611d80575b5050156102e157565b611d939250602080918301019101611cd7565b5f80611d77565b3d15611dc4573d90611dab826119e3565b91611db960405193846119a2565b82523d5f602084013e565b606090565b9015611de357815115611dda575090565b3b156102e15790565b5080519081156102e157602001fdfea2646970667358221220a7bcb2395f40af6eaee40bf91d8b3810a89a62c34ff9701b9ee145a3eede680164736f6c63430008170033",
  "devdoc": {
    "details": "Public functions calling external contracts do not guard against reentrancy because they are expected to be called via delegatecall, which will execute this contract's logic within the context of the originating contract. For example, the HubPool will delegatecall these functions, therefore its only necessary that the HubPool's methods that call this contract's logic guard against reentrancy.",
    "kind": "dev",
    "methods": {
      "constructor": {
        "params": {
          "_adapterStore": "Helper storage contract to support bridging via OFT",
          "_cctpTokenMessenger": "TokenMessenger contract to bridge via CCTP.",
          "_l1ArbitrumInbox": "Inbox helper contract to send messages to Arbitrum.",
          "_l1ERC20GatewayRouter": "ERC20 gateway router contract to send tokens to Arbitrum.",
          "_l1Usdc": "USDC address on L1.",
          "_l2RefundL2Address": "L2 address to receive gas refunds on after a message is relayed.",
          "_oftDstEid": "destination endpoint id for OFT messaging",
          "_oftFeeCap": "A fee cap we apply to OFT bridge native payment. A good default is 1 ether"
        }
      },
      "getL1CallValue(uint32)": {
        "params": {
          "l2GasLimit": "L2 gas limit for the message."
        },
        "returns": {
          "_0": "amount of ETH that this contract needs to hold in order for relayMessage to succeed."
        }
      },
      "relayMessage(address,bytes)": {
        "params": {
          "message": "Data to send to target.",
          "target": "Contract on Arbitrum that will receive message."
        }
      },
      "relayTokens(address,address,uint256,address)": {
        "params": {
          "amount": "Amount of L1 tokens to deposit and L2 tokens to receive.",
          "l1Token": "L1 token to deposit.",
          "l2Token": "L2 token to receive.",
          "to": "Bridge recipient."
        }
      }
    },
    "version": 1
  },
  "userdoc": {
    "errors": {
      "OftFeeCapExceeded()": [
        {
          "notice": "Thrown when OFT fee exceeds the configured cap "
        }
      ],
      "OftIncorrectAmountReceivedLD()": [
        {
          "notice": "Thrown when amount received differs from expected amount "
        }
      ],
      "OftIncorrectAmountSentLD()": [
        {
          "notice": "Thrown when amount sent differs from expected amount "
        }
      ],
      "OftInsufficientBalanceForFee()": [
        {
          "notice": "Thrown when contract has insufficient balance to pay OFT fees "
        }
      ],
      "OftLzFeeNotZero()": [
        {
          "notice": "Thrown when LayerZero token fee is not zero (only native fees supported) "
        }
      ]
    },
    "kind": "user",
    "methods": {
      "EMPTY_MSG_BYTES()": {
        "notice": "Empty bytes array used for OFT messaging parameters "
      },
      "OFT_ADAPTER_STORE()": {
        "notice": "Helper storage contract to keep track of token => IOFT relationships "
      },
      "constructor": {
        "notice": "Constructs new Adapter."
      },
      "getL1CallValue(uint32)": {
        "notice": "Returns required amount of ETH to send a message via the Inbox."
      },
      "relayMessage(address,bytes)": {
        "notice": "Send cross-chain message to target on Arbitrum.This contract must hold at least getL1CallValue() amount of ETH to send a message via the Inbox successfully, or the message will get stuck."
      },
      "relayTokens(address,address,uint256,address)": {
        "notice": "Bridge tokens to Arbitrum.This contract must hold at least getL1CallValue() amount of ETH to send a message via the Inbox successfully, or the message will get stuck."
      }
    },
    "notice": "Contract containing logic to send messages from L1 to Arbitrum.",
    "version": 1
  },
  "storageLayout": {
    "storage": [],
    "types": null
  }
}