{
  "address": "0xd881A21F17B83AefFd11cc2e7363740449eb8069",
  "abi": [
    {
      "inputs": [
        {
          "internalType": "contract ArbitrumL1InboxLike",
          "name": "_l1ArbitrumInbox",
          "type": "address"
        },
        {
          "internalType": "contract ArbitrumL1ERC20GatewayLike",
          "name": "_l1ERC20GatewayRouter",
          "type": "address"
        },
        {
          "internalType": "address",
          "name": "_l2RefundL2Address",
          "type": "address"
        },
        {
          "internalType": "contract IERC20",
          "name": "_l1Usdc",
          "type": "address"
        },
        {
          "internalType": "contract ITokenMessenger",
          "name": "_cctpTokenMessenger",
          "type": "address"
        }
      ],
      "stateMutability": "nonpayable",
      "type": "constructor"
    },
    {
      "anonymous": false,
      "inputs": [
        {
          "indexed": false,
          "internalType": "address",
          "name": "target",
          "type": "address"
        },
        {
          "indexed": false,
          "internalType": "bytes",
          "name": "message",
          "type": "bytes"
        }
      ],
      "name": "MessageRelayed",
      "type": "event"
    },
    {
      "anonymous": false,
      "inputs": [
        {
          "indexed": false,
          "internalType": "address",
          "name": "l1Token",
          "type": "address"
        },
        {
          "indexed": false,
          "internalType": "address",
          "name": "l2Token",
          "type": "address"
        },
        {
          "indexed": false,
          "internalType": "uint256",
          "name": "amount",
          "type": "uint256"
        },
        {
          "indexed": false,
          "internalType": "address",
          "name": "to",
          "type": "address"
        }
      ],
      "name": "TokensRelayed",
      "type": "event"
    },
    {
      "inputs": [],
      "name": "L1_DAI",
      "outputs": [
        {
          "internalType": "address",
          "name": "",
          "type": "address"
        }
      ],
      "stateMutability": "view",
      "type": "function"
    },
    {
      "inputs": [],
      "name": "L1_ERC20_GATEWAY_ROUTER",
      "outputs": [
        {
          "internalType": "contract ArbitrumL1ERC20GatewayLike",
          "name": "",
          "type": "address"
        }
      ],
      "stateMutability": "view",
      "type": "function"
    },
    {
      "inputs": [],
      "name": "L1_INBOX",
      "outputs": [
        {
          "internalType": "contract ArbitrumL1InboxLike",
          "name": "",
          "type": "address"
        }
      ],
      "stateMutability": "view",
      "type": "function"
    },
    {
      "inputs": [],
      "name": "L2_CALL_VALUE",
      "outputs": [
        {
          "internalType": "uint256",
          "name": "",
          "type": "uint256"
        }
      ],
      "stateMutability": "view",
      "type": "function"
    },
    {
      "inputs": [],
      "name": "L2_GAS_PRICE",
      "outputs": [
        {
          "internalType": "uint256",
          "name": "",
          "type": "uint256"
        }
      ],
      "stateMutability": "view",
      "type": "function"
    },
    {
      "inputs": [],
      "name": "L2_MAX_SUBMISSION_COST",
      "outputs": [
        {
          "internalType": "uint256",
          "name": "",
          "type": "uint256"
        }
      ],
      "stateMutability": "view",
      "type": "function"
    },
    {
      "inputs": [],
      "name": "L2_REFUND_L2_ADDRESS",
      "outputs": [
        {
          "internalType": "address",
          "name": "",
          "type": "address"
        }
      ],
      "stateMutability": "view",
      "type": "function"
    },
    {
      "inputs": [],
      "name": "RELAY_MESSAGE_L2_GAS_LIMIT",
      "outputs": [
        {
          "internalType": "uint32",
          "name": "",
          "type": "uint32"
        }
      ],
      "stateMutability": "view",
      "type": "function"
    },
    {
      "inputs": [],
      "name": "RELAY_TOKENS_L2_GAS_LIMIT",
      "outputs": [
        {
          "internalType": "uint32",
          "name": "",
          "type": "uint32"
        }
      ],
      "stateMutability": "view",
      "type": "function"
    },
    {
      "inputs": [],
      "name": "cctpTokenMessenger",
      "outputs": [
        {
          "internalType": "contract ITokenMessenger",
          "name": "",
          "type": "address"
        }
      ],
      "stateMutability": "view",
      "type": "function"
    },
    {
      "inputs": [
        {
          "internalType": "uint32",
          "name": "l2GasLimit",
          "type": "uint32"
        }
      ],
      "name": "getL1CallValue",
      "outputs": [
        {
          "internalType": "uint256",
          "name": "",
          "type": "uint256"
        }
      ],
      "stateMutability": "pure",
      "type": "function"
    },
    {
      "inputs": [],
      "name": "recipientCircleDomainId",
      "outputs": [
        {
          "internalType": "uint32",
          "name": "",
          "type": "uint32"
        }
      ],
      "stateMutability": "view",
      "type": "function"
    },
    {
      "inputs": [
        {
          "internalType": "address",
          "name": "target",
          "type": "address"
        },
        {
          "internalType": "bytes",
          "name": "message",
          "type": "bytes"
        }
      ],
      "name": "relayMessage",
      "outputs": [],
      "stateMutability": "payable",
      "type": "function"
    },
    {
      "inputs": [
        {
          "internalType": "address",
          "name": "l1Token",
          "type": "address"
        },
        {
          "internalType": "address",
          "name": "l2Token",
          "type": "address"
        },
        {
          "internalType": "uint256",
          "name": "amount",
          "type": "uint256"
        },
        {
          "internalType": "address",
          "name": "to",
          "type": "address"
        }
      ],
      "name": "relayTokens",
      "outputs": [],
      "stateMutability": "payable",
      "type": "function"
    },
    {
      "inputs": [],
      "name": "usdcToken",
      "outputs": [
        {
          "internalType": "contract IERC20",
          "name": "",
          "type": "address"
        }
      ],
      "stateMutability": "view",
      "type": "function"
    }
  ],
  "transactionHash": "0x2f48d51f599c53c492240b8f3d63686388d2555d6b1af37e036d6a8ac73505de",
  "args": [
    "0x4Dbd4fc535Ac27206064B68FfCf827b0A60BAB3f",
    "0x72Ce9c846789fdB6fC1f34aC4AD25Dd9ef7031ef",
    "0x428AB2BA90Eba0a4Be7aF34C9Ac451ab061AC010",
    "0xA0b86991c6218b36c1d19D4a2e9Eb0cE3606eB48",
    "0xBd3fa81B58Ba92a82136038B25aDec7066af3155"
  ],
  "numDeployments": 1,
  "solcInputHash": "9667ff69d218e72037724eb34cec7600",
  "bytecode": "0x6101403461012257601f6110ee38819003918201601f19168301916001600160401b038311848410176101265780849260a094604052833981010312610122578051906001600160a01b03908183168303610122576020810151918083168303610122576040820151918183168303610122576060810151908282168203610122576080015191821682036101225760a05260c052600360805261010092835261012091825260e05260405190610fb3928361013b84396080518381816105ae01526106d8015260a05183818161067801528181610a2b0152610b74015260c0518381816105500152610640015260e0518381816101c0015281816103c2015261098801525182818161021a015261030801525181818161046b01526107c20152f35b5f80fd5b634e487b7160e01b5f52604160045260245ffdfe6080604081815260049182361015610015575f80fd5b5f3560e01c90816306dd524814610b985750806311eac85514610b2a5780631fc1ba7614610a8f57806328f2716e14610a5457806352c8c75c146105d25780636e400983146105745780639748cf7c14610506578063a2531669146104c7578063a567bbf01461048f578063b077d39914610421578063c735281e146103e6578063cc7a329014610378578063e5216af71461032c578063e585cc47146102be5763e6eb8ade146100c4575f80fd5b807ffffffffffffffffffffffffffffffffffffffffffffffffffffffffffffffffc3601126102a9576100f5610bd3565b916024359167ffffffffffffffff83116102a957366023840112156102a957828201359361012285610c80565b9461012f83519687610c3f565b80865260209436602483830101116102a957815f926024889301838a01378701015266470de4df820000908147106102a957849073ffffffffffffffffffffffffffffffffffffffff8091855194859384927f679b6ded0000000000000000000000000000000000000000000000000000000084521680988301525f6024830152662386f26fc100006044830152827f0000000000000000000000000000000000000000000000000000000000000000168060648401526084830152621e848060a483015264012a05f20060c483015261010060e48301528161021661010482018c610d3d565b03927f0000000000000000000000000000000000000000000000000000000000000000165af180156102b457610286575b507f9e6c52944e331ba6270e7fe4cea2a4086bae8f7a27e1cdba07f416806f5d0ac493818061028193519586958652850152830190610d3d565b0390a1005b8390813d83116102ad575b61029b8183610c3f565b810103126102a9575f610247565b5f80fd5b503d610291565b82513d5f823e3d90fd5b50346102a9575f7ffffffffffffffffffffffffffffffffffffffffffffffffffffffffffffffffc3601126102a9576020905173ffffffffffffffffffffffffffffffffffffffff7f0000000000000000000000000000000000000000000000000000000000000000168152f35b50346102a9575f7ffffffffffffffffffffffffffffffffffffffffffffffffffffffffffffffffc3601126102a95760209051736b175474e89094c44da98b954eedeac495271d0f8152f35b50346102a9575f7ffffffffffffffffffffffffffffffffffffffffffffffffffffffffffffffffc3601126102a9576020905173ffffffffffffffffffffffffffffffffffffffff7f0000000000000000000000000000000000000000000000000000000000000000168152f35b50346102a9575f7ffffffffffffffffffffffffffffffffffffffffffffffffffffffffffffffffc3601126102a95760209051621e84808152f35b50346102a9575f7ffffffffffffffffffffffffffffffffffffffffffffffffffffffffffffffffc3601126102a9576020905173ffffffffffffffffffffffffffffffffffffffff7f0000000000000000000000000000000000000000000000000000000000000000168152f35b50346102a9575f7ffffffffffffffffffffffffffffffffffffffffffffffffffffffffffffffffc3601126102a957602090515f8152f35b50346102a9575f7ffffffffffffffffffffffffffffffffffffffffffffffffffffffffffffffffc3601126102a95760209051662386f26fc100008152f35b50346102a9575f7ffffffffffffffffffffffffffffffffffffffffffffffffffffffffffffffffc3601126102a9576020905173ffffffffffffffffffffffffffffffffffffffff7f0000000000000000000000000000000000000000000000000000000000000000168152f35b50346102a9575f7ffffffffffffffffffffffffffffffffffffffffffffffffffffffffffffffffc3601126102a9576020905163ffffffff7f0000000000000000000000000000000000000000000000000000000000000000168152f35b509060807ffffffffffffffffffffffffffffffffffffffffffffffffffffffffffffffffc3601126102a957610606610bd3565b906024359273ffffffffffffffffffffffffffffffffffffffff908185168095036102a95760443591606435938185168095036102a957817f0000000000000000000000000000000000000000000000000000000000000000169081151580610a27575b156107ab578460846020925f7f0000000000000000000000000000000000000000000000000000000000000000956106a3858289610d80565b87895197889687957f6fd3504e00000000000000000000000000000000000000000000000000000000875286015263ffffffff7f00000000000000000000000000000000000000000000000000000000000000001660248601528c60448601521660648401525af180156107a157610757575b50907fd7e09655439c3932e55857df3220186e5a7f0980825f20691c2b35d941dee75b956080959493925b82519516855260208501528301526060820152a1005b6020959493929195813d602011610799575b8161077660209383610c3f565b810103126102a9575167ffffffffffffffff8116036102a957909192935f610716565b3d9150610769565b83513d5f823e3d90fd5b90506628db3066eac0009692968047106102a957827f000000000000000000000000000000000000000000000000000000000000000016908851907fbda009fe000000000000000000000000000000000000000000000000000000008252848916918285820152602081602481875afa8015610a1d5788905f906109de575b610835925084610d80565b895193662386f26fc1000060208601528a808601525f60608601526060855261085d85610bf6565b736b175474e89094c44da98b954eedeac495271d0f830361094d57915f93916108e195938c51968795869485937fd2ce7d650000000000000000000000000000000000000000000000000000000085528401528c60248401528b6044840152620493e0606484015264012a05f200608484015260c060a484015260c4830190610d3d565b03925af180156109435791608096959493917fd7e09655439c3932e55857df3220186e5a7f0980825f20691c2b35d941dee75b9893610921575b50610741565b61093c903d805f833e6109348183610c3f565b810190610cdb565b505f61091b565b87513d5f823e3d90fd5b915f93916108e195938c51968795869485937f4fb1a07b000000000000000000000000000000000000000000000000000000008552840152897f00000000000000000000000000000000000000000000000000000000000000001660248401528c60448401528b6064840152620493e0608484015264012a05f20060a484015260e060c484015260e4830190610d3d565b50506020813d602011610a15575b816109f960209383610c3f565b810103126102a9575185811681036102a957876108359161082a565b3d91506109ec565b8b513d5f823e3d90fd5b50827f0000000000000000000000000000000000000000000000000000000000000000168388161461066a565b50346102a9575f7ffffffffffffffffffffffffffffffffffffffffffffffffffffffffffffffffc3601126102a95760209051620493e08152f35b50346102a95760207ffffffffffffffffffffffffffffffffffffffffffffffffffffffffffffffffc3601126102a95781359063ffffffff82168092036102a95764012a05f2009180830292830403610afe57662386f26fc10000918201809211610afe576020925051908152f35b6011837f4e487b71000000000000000000000000000000000000000000000000000000005f525260245ffd5b50346102a9575f7ffffffffffffffffffffffffffffffffffffffffffffffffffffffffffffffffc3601126102a9576020905173ffffffffffffffffffffffffffffffffffffffff7f0000000000000000000000000000000000000000000000000000000000000000168152f35b346102a9575f7ffffffffffffffffffffffffffffffffffffffffffffffffffffffffffffffffc3601126102a9578064012a05f20060209252f35b6004359073ffffffffffffffffffffffffffffffffffffffff821682036102a957565b6080810190811067ffffffffffffffff821117610c1257604052565b7f4e487b71000000000000000000000000000000000000000000000000000000005f52604160045260245ffd5b90601f7fffffffffffffffffffffffffffffffffffffffffffffffffffffffffffffffe0910116810190811067ffffffffffffffff821117610c1257604052565b67ffffffffffffffff8111610c1257601f017fffffffffffffffffffffffffffffffffffffffffffffffffffffffffffffffe01660200190565b5f5b838110610ccb5750505f910152565b8181015183820152602001610cbc565b6020818303126102a95780519067ffffffffffffffff82116102a9570181601f820112156102a9578051610d0e81610c80565b92610d1c6040519485610c3f565b818452602082840101116102a957610d3a9160208085019101610cba565b90565b907fffffffffffffffffffffffffffffffffffffffffffffffffffffffffffffffe0601f602093610d7981518092818752878088019101610cba565b0116010190565b73ffffffffffffffffffffffffffffffffffffffff8091166040918251937fdd62ed3e000000000000000000000000000000000000000000000000000000008552306004860152168060248501526020948585604481865afa948515610f4a575f95610f1b575b508401809411610eee57825193858501917f095ea7b30000000000000000000000000000000000000000000000000000000083526024860152604485015260448452610e3284610bf6565b8251908382019082821067ffffffffffffffff831117610c1257610ead957f5361666545524332303a206c6f772d6c6576656c2063616c6c206661696c6564885f95869589528181520152519082855af1903d15610ee5573d610ea0610e9782610c80565b94519485610c3f565b83523d5f8685013e610f54565b8051918215918215610ec5575b50509050156102a957565b8092508193810103126102a957015180151581036102a957805f80610eba565b60609250610f54565b7f4e487b71000000000000000000000000000000000000000000000000000000005f52601160045260245ffd5b9094508581813d8311610f43575b610f338183610c3f565b810103126102a95751935f610de7565b503d610f29565b84513d5f823e3d90fd5b9015610f6e57815115610f65575090565b3b156102a95790565b5080519081156102a957602001fdfea2646970667358221220f86b943dc9d28de48c5527bd4b123804133bf7085164fae0973abb18a0d4e79264736f6c63430008170033",
  "devdoc": {
    "details": "Public functions calling external contracts do not guard against reentrancy because they are expected to be called via delegatecall, which will execute this contract's logic within the context of the originating contract. For example, the HubPool will delegatecall these functions, therefore its only necessary that the HubPool's methods that call this contract's logic guard against reentrancy.",
    "kind": "dev",
    "methods": {
      "constructor": {
        "params": {
          "_cctpTokenMessenger": "TokenMessenger contract to bridge via CCTP.",
          "_l1ArbitrumInbox": "Inbox helper contract to send messages to Arbitrum.",
          "_l1ERC20GatewayRouter": "ERC20 gateway router contract to send tokens to Arbitrum.",
          "_l1Usdc": "USDC address on L1.",
          "_l2RefundL2Address": "L2 address to receive gas refunds on after a message is relayed."
        }
      },
      "getL1CallValue(uint32)": {
        "returns": {
          "_0": "amount of ETH that this contract needs to hold in order for relayMessage to succeed."
        }
      },
      "relayMessage(address,bytes)": {
        "params": {
          "message": "Data to send to target.",
          "target": "Contract on Arbitrum that will receive message."
        }
      },
      "relayTokens(address,address,uint256,address)": {
        "params": {
          "amount": "Amount of L1 tokens to deposit and L2 tokens to receive.",
          "l1Token": "L1 token to deposit.",
          "l2Token": "L2 token to receive.",
          "to": "Bridge recipient."
        }
      }
    },
    "version": 1
  },
  "userdoc": {
    "kind": "user",
    "methods": {
      "constructor": {
        "notice": "Constructs new Adapter."
      },
      "getL1CallValue(uint32)": {
        "notice": "Returns required amount of ETH to send a message via the Inbox."
      },
      "relayMessage(address,bytes)": {
        "notice": "Send cross-chain message to target on Arbitrum.This contract must hold at least getL1CallValue() amount of ETH to send a message via the Inbox successfully, or the message will get stuck."
      },
      "relayTokens(address,address,uint256,address)": {
        "notice": "Bridge tokens to Arbitrum.This contract must hold at least getL1CallValue() amount of ETH to send a message via the Inbox successfully, or the message will get stuck."
      }
    },
    "notice": "Contract containing logic to send messages from L1 to Arbitrum.",
    "version": 1
  },
  "storageLayout": {
    "storage": [],
    "types": null
  }
}