{
  "address": "0xBd8f58dF90E90D314d4093e45A809954358C5fdD",
  "abi": [
    {
      "inputs": [
        {
          "internalType": "contract ArbitrumCustomGasTokenInbox",
          "name": "_l1ArbitrumInbox",
          "type": "address"
        },
        {
          "internalType": "contract ArbitrumL1ERC20GatewayLike",
          "name": "_l1ERC20GatewayRouter",
          "type": "address"
        },
        {
          "internalType": "address",
          "name": "_l2RefundL2Address",
          "type": "address"
        },
        {
          "internalType": "contract IERC20",
          "name": "_l1Usdc",
          "type": "address"
        },
        {
          "internalType": "contract ITokenMessenger",
          "name": "_cctpTokenMessenger",
          "type": "address"
        },
        {
          "internalType": "uint32",
          "name": "_cctpDomainId",
          "type": "uint32"
        },
        {
          "internalType": "uint8",
          "name": "_nativeTokenDecimals",
          "type": "uint8"
        },
        {
          "internalType": "contract FunderInterface",
          "name": "_customGasTokenFunder",
          "type": "address"
        },
        {
          "internalType": "uint256",
          "name": "_l2MaxSubmissionCost",
          "type": "uint256"
        },
        {
          "internalType": "uint256",
          "name": "_l2GasPrice",
          "type": "uint256"
        }
      ],
      "stateMutability": "nonpayable",
      "type": "constructor"
    },
    {
      "inputs": [],
      "name": "InsufficientCustomGasToken",
      "type": "error"
    },
    {
      "inputs": [],
      "name": "InvalidCustomGasToken",
      "type": "error"
    },
    {
      "anonymous": false,
      "inputs": [
        {
          "indexed": false,
          "internalType": "address",
          "name": "target",
          "type": "address"
        },
        {
          "indexed": false,
          "internalType": "bytes",
          "name": "message",
          "type": "bytes"
        }
      ],
      "name": "MessageRelayed",
      "type": "event"
    },
    {
      "anonymous": false,
      "inputs": [
        {
          "indexed": false,
          "internalType": "address",
          "name": "l1Token",
          "type": "address"
        },
        {
          "indexed": false,
          "internalType": "address",
          "name": "l2Token",
          "type": "address"
        },
        {
          "indexed": false,
          "internalType": "uint256",
          "name": "amount",
          "type": "uint256"
        },
        {
          "indexed": false,
          "internalType": "address",
          "name": "to",
          "type": "address"
        }
      ],
      "name": "TokensRelayed",
      "type": "event"
    },
    {
      "inputs": [],
      "name": "CUSTOM_GAS_TOKEN",
      "outputs": [
        {
          "internalType": "contract IERC20",
          "name": "",
          "type": "address"
        }
      ],
      "stateMutability": "view",
      "type": "function"
    },
    {
      "inputs": [],
      "name": "CUSTOM_GAS_TOKEN_FUNDER",
      "outputs": [
        {
          "internalType": "contract FunderInterface",
          "name": "",
          "type": "address"
        }
      ],
      "stateMutability": "view",
      "type": "function"
    },
    {
      "inputs": [],
      "name": "L1_ERC20_GATEWAY_ROUTER",
      "outputs": [
        {
          "internalType": "contract ArbitrumL1ERC20GatewayLike",
          "name": "",
          "type": "address"
        }
      ],
      "stateMutability": "view",
      "type": "function"
    },
    {
      "inputs": [],
      "name": "L1_INBOX",
      "outputs": [
        {
          "internalType": "contract ArbitrumCustomGasTokenInbox",
          "name": "",
          "type": "address"
        }
      ],
      "stateMutability": "view",
      "type": "function"
    },
    {
      "inputs": [],
      "name": "L2_CALL_VALUE",
      "outputs": [
        {
          "internalType": "uint256",
          "name": "",
          "type": "uint256"
        }
      ],
      "stateMutability": "view",
      "type": "function"
    },
    {
      "inputs": [],
      "name": "L2_GAS_PRICE",
      "outputs": [
        {
          "internalType": "uint256",
          "name": "",
          "type": "uint256"
        }
      ],
      "stateMutability": "view",
      "type": "function"
    },
    {
      "inputs": [],
      "name": "L2_MAX_SUBMISSION_COST",
      "outputs": [
        {
          "internalType": "uint256",
          "name": "",
          "type": "uint256"
        }
      ],
      "stateMutability": "view",
      "type": "function"
    },
    {
      "inputs": [],
      "name": "L2_REFUND_L2_ADDRESS",
      "outputs": [
        {
          "internalType": "address",
          "name": "",
          "type": "address"
        }
      ],
      "stateMutability": "view",
      "type": "function"
    },
    {
      "inputs": [],
      "name": "NATIVE_TOKEN_DECIMALS",
      "outputs": [
        {
          "internalType": "uint8",
          "name": "",
          "type": "uint8"
        }
      ],
      "stateMutability": "view",
      "type": "function"
    },
    {
      "inputs": [],
      "name": "RELAY_MESSAGE_L2_GAS_LIMIT",
      "outputs": [
        {
          "internalType": "uint32",
          "name": "",
          "type": "uint32"
        }
      ],
      "stateMutability": "view",
      "type": "function"
    },
    {
      "inputs": [],
      "name": "RELAY_TOKENS_L2_GAS_LIMIT",
      "outputs": [
        {
          "internalType": "uint32",
          "name": "",
          "type": "uint32"
        }
      ],
      "stateMutability": "view",
      "type": "function"
    },
    {
      "inputs": [],
      "name": "cctpTokenMessenger",
      "outputs": [
        {
          "internalType": "contract ITokenMessenger",
          "name": "",
          "type": "address"
        }
      ],
      "stateMutability": "view",
      "type": "function"
    },
    {
      "inputs": [
        {
          "internalType": "uint32",
          "name": "l2GasLimit",
          "type": "uint32"
        }
      ],
      "name": "getL1CallValue",
      "outputs": [
        {
          "internalType": "uint256",
          "name": "",
          "type": "uint256"
        }
      ],
      "stateMutability": "view",
      "type": "function"
    },
    {
      "inputs": [],
      "name": "recipientCircleDomainId",
      "outputs": [
        {
          "internalType": "uint32",
          "name": "",
          "type": "uint32"
        }
      ],
      "stateMutability": "view",
      "type": "function"
    },
    {
      "inputs": [
        {
          "internalType": "address",
          "name": "target",
          "type": "address"
        },
        {
          "internalType": "bytes",
          "name": "message",
          "type": "bytes"
        }
      ],
      "name": "relayMessage",
      "outputs": [],
      "stateMutability": "payable",
      "type": "function"
    },
    {
      "inputs": [
        {
          "internalType": "address",
          "name": "l1Token",
          "type": "address"
        },
        {
          "internalType": "address",
          "name": "l2Token",
          "type": "address"
        },
        {
          "internalType": "uint256",
          "name": "amount",
          "type": "uint256"
        },
        {
          "internalType": "address",
          "name": "to",
          "type": "address"
        }
      ],
      "name": "relayTokens",
      "outputs": [],
      "stateMutability": "payable",
      "type": "function"
    },
    {
      "inputs": [],
      "name": "usdcToken",
      "outputs": [
        {
          "internalType": "contract IERC20",
          "name": "",
          "type": "address"
        }
      ],
      "stateMutability": "view",
      "type": "function"
    }
  ],
  "transactionHash": "0x656871250a03ae1c93404170161ddd495af82898d703ad82ce6cc310f7ede7c6",
  "args": [
    "0x56D8EC76a421063e1907503aDd3794c395256AEb",
    "0xeBb17f398ed30d02F2e8733e7c1e5cf566e17812",
    "0x07aE8551Be970cB1cCa11Dd7a11F47Ae82e70E67",
    "0x0000000000000000000000000000000000000000",
    "0x0000000000000000000000000000000000000000",
    4294967295,
    18,
    "0x0d57392895Db5aF3280e9223323e20F3951E81B1",
    "10000000000000000",
    "240000000000"
  ],
  "numDeployments": 1,
  "solcInputHash": "0f513f6f4304eda6605589c67031aa02",
  "bytecode": "0x6101e0604081815234620002b257819062001aec803803809162000024828662000308565b843961014092839181010312620002b25782516001600160a01b03808216929091838103620002b25760209485870151928484168403620002b2576200006c81890162000340565b9560608901518681168103620002b25760808a0151968088168803620002b25760a08b01519963ffffffff8b168b03620002b25760c08c01519360ff85168503620002b25760e08d01519a838c168c03620002b2578d9c6101009e8f01519b6101209e8f01519660a05260c052608052610160988952610180998a52875281865180926373c6754960e11b8252815a91600492fa908115620002be57839183915f91620002c8575b506004885180948193631c2eb17b60e31b8352165afa918215620002be575f926200027c575b505016966101a097808952156200026b5760e05289526101c096875287525195611796978862000356893960805188818161065d0152610847015260a05188818161079001528181610f1401526110c2015260c0518881816105ff0152610760015260e05188818161020d0152818161059201528181610b3401528181610c8f0152818161104801526113df01525187818161026901528181610b9101528181610d53015281816110220152818161111901526113a7015251868181610f7401526112cb0152518581816102330152818161045801528181610b5b0152610d1501525184818161018a015281816103ea0152610ada0152518381816105010152610a510152518281816101b2015281816106cb01528181610a93015261147501525181818161037c015261141b0152f35b835163a44d432f60e01b8152600490fd5b90809250813d8311620002b6575b62000296818362000308565b81010312620002b257620002aa9062000340565b5f806200013a565b5f80fd5b503d6200028a565b86513d5f823e3d90fd5b92505081813d831162000300575b620002e2818362000308565b81010312620002b257518281168103620002b2578183915f62000114565b503d620002d6565b601f909101601f19168101906001600160401b038211908210176200032c57604052565b634e487b7160e01b5f52604160045260245ffd5b51906001600160a01b0382168203620002b25756fe6080604081815260049182361015610015575f80fd5b5f3560e01c90816306dd5248146110e65750806311eac855146110785780631fc1ba7614610fd357806328f2716e14610f985780632e4f1aca14610f3d57806352c8c75c146106ef57806358f76b65146106815780636e400983146106235780639748cf7c146105b5578063a25316691461055d578063a567bbf014610525578063b077d399146104b7578063c735281e1461047c578063cc7a32901461040e578063e585cc47146103a0578063e58921a2146103325763e6eb8ade146100da575f80fd5b807ffffffffffffffffffffffffffffffffffffffffffffffffffffffffffffffffc36011261031d5761010b61113c565b916024359167ffffffffffffffff831161031d573660238401121561031d578282013593610138856111cd565b946101458351968761115f565b808652602094366024838301011161031d57815f926024889301838a013787010152836101706113a1565b9173ffffffffffffffffffffffffffffffffffffffff92837f000000000000000000000000000000000000000000000000000000000000000016906101d681837f0000000000000000000000000000000000000000000000000000000000000000611585565b8486519586947f549e84260000000000000000000000000000000000000000000000000000000086521680988501525f60248501527f000000000000000000000000000000000000000000000000000000000000000060448501527f0000000000000000000000000000000000000000000000000000000000000000168060648501526084840152621e848060a48401527f000000000000000000000000000000000000000000000000000000000000000060c484015260e4830152610120610104830152815f816102ac61012482018c611275565b03925af18015610328576102fa575b507f9e6c52944e331ba6270e7fe4cea2a4086bae8f7a27e1cdba07f416806f5d0ac49381806102f593519586958652850152830190611275565b0390a1005b8390813d8311610321575b61030f818361115f565b8101031261031d575f6102bb565b5f80fd5b503d610305565b82513d5f823e3d90fd5b503461031d575f7ffffffffffffffffffffffffffffffffffffffffffffffffffffffffffffffffc36011261031d576020905173ffffffffffffffffffffffffffffffffffffffff7f0000000000000000000000000000000000000000000000000000000000000000168152f35b503461031d575f7ffffffffffffffffffffffffffffffffffffffffffffffffffffffffffffffffc36011261031d576020905173ffffffffffffffffffffffffffffffffffffffff7f0000000000000000000000000000000000000000000000000000000000000000168152f35b503461031d575f7ffffffffffffffffffffffffffffffffffffffffffffffffffffffffffffffffc36011261031d576020905173ffffffffffffffffffffffffffffffffffffffff7f0000000000000000000000000000000000000000000000000000000000000000168152f35b503461031d575f7ffffffffffffffffffffffffffffffffffffffffffffffffffffffffffffffffc36011261031d5760209051621e84808152f35b503461031d575f7ffffffffffffffffffffffffffffffffffffffffffffffffffffffffffffffffc36011261031d576020905173ffffffffffffffffffffffffffffffffffffffff7f0000000000000000000000000000000000000000000000000000000000000000168152f35b503461031d575f7ffffffffffffffffffffffffffffffffffffffffffffffffffffffffffffffffc36011261031d57602090515f8152f35b503461031d575f7ffffffffffffffffffffffffffffffffffffffffffffffffffffffffffffffffc36011261031d57602090517f00000000000000000000000000000000000000000000000000000000000000008152f35b503461031d575f7ffffffffffffffffffffffffffffffffffffffffffffffffffffffffffffffffc36011261031d576020905173ffffffffffffffffffffffffffffffffffffffff7f0000000000000000000000000000000000000000000000000000000000000000168152f35b503461031d575f7ffffffffffffffffffffffffffffffffffffffffffffffffffffffffffffffffc36011261031d576020905163ffffffff7f0000000000000000000000000000000000000000000000000000000000000000168152f35b503461031d575f7ffffffffffffffffffffffffffffffffffffffffffffffffffffffffffffffffc36011261031d576020905173ffffffffffffffffffffffffffffffffffffffff7f0000000000000000000000000000000000000000000000000000000000000000168152f35b509060807ffffffffffffffffffffffffffffffffffffffffffffffffffffffffffffffffc36011261031d5761072361113c565b91602490813573ffffffffffffffffffffffffffffffffffffffff80821680920361031d57606480358281169660448035979289900361031d57847f00000000000000000000000000000000000000000000000000000000000000001680151580610f10575b15610a15577f0000000000000000000000000000000000000000000000000000000000000000906107bb8a8284611585565b88517fcb75c11c00000000000000000000000000000000000000000000000000000000815260209283828781865afa9182156109ce578993929185915f936109d8575b50841691888d51809681937fa56ec632000000000000000000000000000000000000000000000000000000008352868c840152165afa9283156109ce575f9361099f575b5091967f000000000000000000000000000000000000000000000000000000000000000063ffffffff1692908c805b6108bf5750505050505050505050917fd7e09655439c3932e55857df3220186e5a7f0980825f20691c2b35d941dee75b959391608095935b82519516855260208501528301526060820152a1005b8c8f8b831115610998578b915b51907f6fd3504e000000000000000000000000000000000000000000000000000000008252828b830152878c83015289820152848482015287816084815f8a5af1801561098e57610953575b5081039081116109285780610871565b886011897f4e487b71000000000000000000000000000000000000000000000000000000005f52525ffd5b8781813d8311610987575b610968818361115f565b8101031261031d575167ffffffffffffffff81160361031d575f610918565b503d61095e565b8f513d5f823e3d90fd5b82916108cc565b9092508381813d83116109c7575b6109b7818361115f565b8101031261031d5751915f610842565b503d6109ad565b8b513d5f823e3d90fd5b9250935081813d8311610a0e575b6109f0818361115f565b8101031261031d575191888316830361031d578389809492906107fe565b503d6109e6565b505085517fbda009fe000000000000000000000000000000000000000000000000000000008152898516818301819052959998979695602094507f0000000000000000000000000000000000000000000000000000000000000000861685838681845afa928315610f06575f93610ece575b50610a906113a1565b917f00000000000000000000000000000000000000000000000000000000000000009388851682145f14610c6c5750505084925f8a93610ad3610164948c611247565b610b01818b7f0000000000000000000000000000000000000000000000000000000000000000168094611585565b8b8b5198899788967f549e84260000000000000000000000000000000000000000000000000000000088528701528501527f00000000000000000000000000000000000000000000000000000000000000006044850152897f0000000000000000000000000000000000000000000000000000000000000000168060648601526084850152621e848060a48501527f000000000000000000000000000000000000000000000000000000000000000060c485015260e484015261012061010484015260026101248401527f30780000000000000000000000000000000000000000000000000000000000006101448401525af18015610c6257610c2f575b5050907fd7e09655439c3932e55857df3220186e5a7f0980825f20691c2b35d941dee75b956080959493926108a9565b819695949392963d8311610c5b575b610c48818361115f565b8101031261031d57909192935f80610bff565b503d610c3e565b84513d5f823e3d90fd5b928381958c9d9f9b9c610c8590859697610c8a96611585565b611585565b8851927f00000000000000000000000000000000000000000000000000000000000000008785015260608a8501525f608085015260608401526080835260a083019467ffffffffffffffff9484871086881117610ea45750505f918591828b527f4fb1a07b00000000000000000000000000000000000000000000000000000000835260a4850152877f00000000000000000000000000000000000000000000000000000000000000001660c48501528c60e48501528a610104850152620493e06101248501527f000000000000000000000000000000000000000000000000000000000000000061014485015260e061016485015281837fffffffffffffffffffffffffffffffffffffffffffffffffffffffffffffff6086610db2610184820182611275565b0301925af18015610e9a57610df4575b505050509160809493917fd7e09655439c3932e55857df3220186e5a7f0980825f20691c2b35d941dee75b96936108a9565b9895939197969492983d805f8b3e610e0c818b61115f565b8101988a8260a08c019b031261031d575191821161031d5701978760bf8a01121561031d5760a0890151610e3f816111cd565b98610e4c86519a8b61115f565b818a5260c0828c01011161031d577fd7e09655439c3932e55857df3220186e5a7f0980825f20691c2b35d941dee75b9960c0610e8d9360809b019101611254565b919396819395965f610dc2565b87513d5f823e3d90fd5b6041907f4e487b71000000000000000000000000000000000000000000000000000000005f52525ffd5b9092508581813d8311610eff575b610ee6818361115f565b8101031261031d5751868116810361031d57915f610a87565b503d610edc565b88513d5f823e3d90fd5b50857f000000000000000000000000000000000000000000000000000000000000000016868c1614610789565b503461031d575f7ffffffffffffffffffffffffffffffffffffffffffffffffffffffffffffffffc36011261031d576020905160ff7f0000000000000000000000000000000000000000000000000000000000000000168152f35b503461031d575f7ffffffffffffffffffffffffffffffffffffffffffffffffffffffffffffffffc36011261031d5760209051620493e08152f35b50903461031d5760207ffffffffffffffffffffffffffffffffffffffffffffffffffffffffffffffffc36011261031d57359063ffffffff821680920361031d5761107161106c6110466020947f0000000000000000000000000000000000000000000000000000000000000000611207565b7f0000000000000000000000000000000000000000000000000000000000000000611247565b6112c9565b9051908152f35b503461031d575f7ffffffffffffffffffffffffffffffffffffffffffffffffffffffffffffffffc36011261031d576020905173ffffffffffffffffffffffffffffffffffffffff7f0000000000000000000000000000000000000000000000000000000000000000168152f35b3461031d575f7ffffffffffffffffffffffffffffffffffffffffffffffffffffffffffffffffc36011261031d576020907f00000000000000000000000000000000000000000000000000000000000000008152f35b6004359073ffffffffffffffffffffffffffffffffffffffff8216820361031d57565b90601f7fffffffffffffffffffffffffffffffffffffffffffffffffffffffffffffffe0910116810190811067ffffffffffffffff8211176111a057604052565b7f4e487b71000000000000000000000000000000000000000000000000000000005f52604160045260245ffd5b67ffffffffffffffff81116111a057601f017fffffffffffffffffffffffffffffffffffffffffffffffffffffffffffffffe01660200190565b8181029291811591840414171561121a57565b7f4e487b71000000000000000000000000000000000000000000000000000000005f52601160045260245ffd5b9190820180921161121a57565b5f5b8381106112655750505f910152565b8181015183820152602001611256565b907fffffffffffffffffffffffffffffffffffffffffffffffffffffffffffffffe0601f6020936112b181518092818752878088019101611254565b0116010190565b60ff16604d811161121a57600a0a90565b7f000000000000000000000000000000000000000000000000000000000000000060ff16601281036112f9575090565b60128110156113645760120360ff811161121a57611316906112b8565b801561133757808204910615611334576001810180911161121a5790565b90565b7f4e487b71000000000000000000000000000000000000000000000000000000005f52601260045260245ffd5b7fffffffffffffffffffffffffffffffffffffffffffffffffffffffffffffffee019060ff821161121a5761139b611334926112b8565b90611207565b621e84807f000000000000000000000000000000000000000000000000000000000000000081810291811591830414171561121a5761106c611403917f0000000000000000000000000000000000000000000000000000000000000000611247565b73ffffffffffffffffffffffffffffffffffffffff807f00000000000000000000000000000000000000000000000000000000000000001690813b1561031d5760409182517ff3fef3a30000000000000000000000000000000000000000000000000000000081525f816044818380977f000000000000000000000000000000000000000000000000000000000000000016968760048401528a60248401525af18015610c6257611568575b5060206024918451928380927f70a082310000000000000000000000000000000000000000000000000000000082523060048301525afa91821561155d57908492611528575b50106114ff575090565b600490517ff2a7d102000000000000000000000000000000000000000000000000000000008152fd5b9150506020813d602011611555575b816115446020938361115f565b8101031261031d578290515f6114f5565b3d9150611537565b8351903d90823e3d90fd5b90915067ffffffffffffffff81116111a05782525f9060206114af565b73ffffffffffffffffffffffffffffffffffffffff80911690604051927fdd62ed3e00000000000000000000000000000000000000000000000000000000845230600485015216918260248201526020938482604481865afa801561172c575f906116fd575b6115f59250611247565b9160405192848401917f095ea7b300000000000000000000000000000000000000000000000000000000835260248501526044840152604483526080830167ffffffffffffffff91848210838311176111a05760c08501928311828410176111a0576116bd94865f94938594604052527f5361666545524332303a206c6f772d6c6576656c2063616c6c206661696c656460a0820152519082855af13d156116f5573d916116a2836111cd565b926116b0604051948561115f565b83523d5f8685013e611737565b80519182159182156116d5575b505090501561031d57565b80925081938101031261031d570151801515810361031d57805f806116ca565b606091611737565b508482813d8311611725575b611713818361115f565b8101031261031d576115f591516115eb565b503d611709565b6040513d5f823e3d90fd5b901561175157815115611748575090565b3b1561031d5790565b50805190811561031d57602001fdfea26469706673582212209b0645c0ff6ecd2bcec7ce37ed90556bbebed3b00987376fbd123dbcc8f114db64736f6c63430008170033",
  "devdoc": {
    "details": "Public functions calling external contracts do not guard against reentrancy because they are expected to be called via delegatecall, which will execute this contract's logic within the context of the originating contract. For example, the HubPool will delegatecall these functions, therefore its only necessary that the HubPool's methods that call this contract's logic guard against reentrancy.This contract is very similar to Arbitrum_Adapter but it allows the caller to pay for submission fees using a custom gas token. This is required to support certain Arbitrum orbit L2s and L3s.https://docs.arbitrum.io/launch-orbit-chain/how-tos/use-a-custom-gas-token",
    "kind": "dev",
    "methods": {
      "constructor": {
        "params": {
          "_cctpTokenMessenger": "TokenMessenger contract to bridge via CCTP.",
          "_customGasTokenFunder": "Contract that funds the custom gas token.",
          "_l1ArbitrumInbox": "Inbox helper contract to send messages to Arbitrum.",
          "_l1ERC20GatewayRouter": "ERC20 gateway router contract to send tokens to Arbitrum.",
          "_l1Usdc": "USDC address on L1.",
          "_l2GasPrice": "Gas price bid for L2 execution. Should be set conservatively high to avoid stuck messages.",
          "_l2MaxSubmissionCost": "Amount of gas token allocated to pay for the base submission fee. The base submission fee is a parameter unique to Arbitrum retryable transactions. This value is hardcoded and used for all messages sent by this adapter.",
          "_l2RefundL2Address": "L2 address to receive gas refunds on after a message is relayed."
        }
      },
      "getL1CallValue(uint32)": {
        "details": "Should return a value in the same precision as the gas token's precision.",
        "params": {
          "l2GasLimit": "L2 gas limit for the message."
        },
        "returns": {
          "_0": "amount of gas token that this contract needs to hold in order for relayMessage to succeed."
        }
      },
      "relayMessage(address,bytes)": {
        "params": {
          "message": "Data to send to target.",
          "target": "Contract on Arbitrum that will receive message."
        }
      },
      "relayTokens(address,address,uint256,address)": {
        "params": {
          "amount": "Amount of L1 tokens to deposit and L2 tokens to receive.",
          "l1Token": "L1 token to deposit.",
          "l2Token": "L2 token to receive.",
          "to": "Bridge recipient."
        }
      }
    },
    "version": 1
  },
  "userdoc": {
    "kind": "user",
    "methods": {
      "constructor": {
        "notice": "Constructs new Adapter."
      },
      "getL1CallValue(uint32)": {
        "notice": "Returns required amount of gas token to send a message via the Inbox."
      },
      "relayMessage(address,bytes)": {
        "notice": "Send cross-chain message to target on Arbitrum.This contract must hold at least getL1CallValue() amount of the custom gas token to send a message via the Inbox successfully, or the message will get stuck."
      },
      "relayTokens(address,address,uint256,address)": {
        "notice": "Bridge tokens to Arbitrum.This contract must hold at least getL1CallValue() amount of ETH or custom gas token to send a message via the Inbox successfully, or the message will get stuck."
      }
    },
    "notice": "Contract containing logic to send messages from L1 to Arbitrum.",
    "version": 1
  },
  "storageLayout": {
    "storage": [],
    "types": null
  }
}