{
  "address": "0x9c800fE8A9130d6d29703D0133EBB3c16F4E0e5a",
  "abi": [
    {
      "inputs": [
        {
          "internalType": "contract ArbitrumL1ERC20GatewayLike",
          "name": "_l1ERC20GatewayRouter",
          "type": "address"
        }
      ],
      "stateMutability": "nonpayable",
      "type": "constructor"
    },
    {
      "anonymous": false,
      "inputs": [
        {
          "indexed": false,
          "internalType": "address",
          "name": "target",
          "type": "address"
        },
        {
          "indexed": false,
          "internalType": "bytes",
          "name": "message",
          "type": "bytes"
        }
      ],
      "name": "MessageRelayed",
      "type": "event"
    },
    {
      "anonymous": false,
      "inputs": [
        {
          "indexed": false,
          "internalType": "address",
          "name": "l1Token",
          "type": "address"
        },
        {
          "indexed": false,
          "internalType": "address",
          "name": "l2Token",
          "type": "address"
        },
        {
          "indexed": false,
          "internalType": "uint256",
          "name": "amount",
          "type": "uint256"
        },
        {
          "indexed": false,
          "internalType": "address",
          "name": "to",
          "type": "address"
        }
      ],
      "name": "TokensRelayed",
      "type": "event"
    },
    {
      "inputs": [],
      "name": "RELAY_TOKENS_L2_GAS_LIMIT",
      "outputs": [
        {
          "internalType": "uint32",
          "name": "",
          "type": "uint32"
        }
      ],
      "stateMutability": "view",
      "type": "function"
    },
    {
      "inputs": [],
      "name": "getL1CallValue",
      "outputs": [
        {
          "internalType": "uint256",
          "name": "",
          "type": "uint256"
        }
      ],
      "stateMutability": "pure",
      "type": "function"
    },
    {
      "inputs": [],
      "name": "l1ERC20GatewayRouter",
      "outputs": [
        {
          "internalType": "contract ArbitrumL1ERC20GatewayLike",
          "name": "",
          "type": "address"
        }
      ],
      "stateMutability": "view",
      "type": "function"
    },
    {
      "inputs": [],
      "name": "l2GasPrice",
      "outputs": [
        {
          "internalType": "uint256",
          "name": "",
          "type": "uint256"
        }
      ],
      "stateMutability": "view",
      "type": "function"
    },
    {
      "inputs": [],
      "name": "l2MaxSubmissionCost",
      "outputs": [
        {
          "internalType": "uint256",
          "name": "",
          "type": "uint256"
        }
      ],
      "stateMutability": "view",
      "type": "function"
    },
    {
      "inputs": [
        {
          "internalType": "address",
          "name": "target",
          "type": "address"
        },
        {
          "internalType": "bytes",
          "name": "message",
          "type": "bytes"
        }
      ],
      "name": "relayMessage",
      "outputs": [],
      "stateMutability": "payable",
      "type": "function"
    },
    {
      "inputs": [
        {
          "internalType": "address",
          "name": "",
          "type": "address"
        },
        {
          "internalType": "address",
          "name": "",
          "type": "address"
        },
        {
          "internalType": "uint256",
          "name": "",
          "type": "uint256"
        },
        {
          "internalType": "address",
          "name": "",
          "type": "address"
        }
      ],
      "name": "relayTokens",
      "outputs": [],
      "stateMutability": "payable",
      "type": "function"
    }
  ],
  "transactionHash": "0x92419069082cfb0b88227952e06cb63c0573b8798be3f210e268499695f02d9d",
  "args": [
    "0x72Ce9c846789fdB6fC1f34aC4AD25Dd9ef7031ef"
  ],
  "numDeployments": 1,
  "solcInputHash": "a254ea7a050d78a978809e4c33fcb9ff",
  "bytecode": "0x60e0346100b357601f610bf038819003918201601f19168301916001600160401b038311848410176100b8578084926020946040528339810103126100b357516001600160a01b03811681036100b357662386f26fc1000060805264012a05f20060a05260c052604051610b2190816100cf82396080518181816102d2015281816106750152610ac4015260a05181818161034e015281816106cd0152610a8f015260c05181818161014101526108360152f35b600080fd5b634e487b7160e01b600052604160045260246000fdfe6040608081526004908136101561001557600080fd5b600090813560e01c806308f1ed151461085a5780631ba4a9cb146107ec57806328f2716e146107b157806352c8c75c146106f05780639ae3668514610698578063e599477e146106405763e6eb8ade1461006e57600080fd5b807ffffffffffffffffffffffffffffffffffffffffffffffffffffffffffffffffc36011261063c5761009f61089b565b602480359167ffffffffffffffff9081841161040457366023850112156104045783870135926100ce8461094f565b946100db8751968761090e565b848652602094858701913684838301011161063857818a92858993018537880101528686805181010312610634575173ffffffffffffffffffffffffffffffffffffffff958682168092036106305787015198610136610a89565b908147106105d557877f000000000000000000000000000000000000000000000000000000000000000016938951907fbda009fe000000000000000000000000000000000000000000000000000000008252848383015288828281895afa9182156105cb578c9261058f575b50898b51927fdd62ed3e00000000000000000000000000000000000000000000000000000000845230858501521680828401526044928a8185818a5afa8015610583578f908f9061054e575b6101f892506109ef565b908c51918b8301917f095ea7b30000000000000000000000000000000000000000000000000000000083528484015284830152838252610237826108c3565b8c51918d83018381108c821117610522578e528b83527f5361666545524332303a206c6f772d6c6576656c2063616c6c206661696c65648c840152873b156104c5578e8e81808f946102b59796828e9251925af1913d156104b9573d6102a861029f8261094f565b9351938461090e565b825281933d92013e610a2b565b805180610412575b5050998b9c61038392829d999a9b9c8351938d7f00000000000000000000000000000000000000000000000000000000000000009086015280808601528b60608601526060855261030d856108c3565b519d8e9a8b998a987fd2ce7d65000000000000000000000000000000000000000000000000000000008a528901521690860152840152620493e060648401527f0000000000000000000000000000000000000000000000000000000000000000608484015260c060a484015260c48301906109ac565b03925af1801561040857610395578480f35b3d8086853e6103a4818561090e565b830192828185031261040457805191821161040457019082601f83011215610400578151926103de6103d58561094f565b9551958661090e565b83855281848401011161040057806103f894019101610989565b388080808480f35b8480fd5b8580fd5b84513d87823e3d90fd5b818b91810103126104b5578901518015908115036104b5576104355738806102bd565b60849291602a7f5361666545524332303a204552433230206f7065726174696f6e20646964206e928b8e51957f08c379a00000000000000000000000000000000000000000000000000000000087528601528401528201527f6f742073756363656564000000000000000000000000000000000000000000006064820152fd5b8c80fd5b50509050606090610a2b565b50505060649291601d7f416464726573733a2063616c6c20746f206e6f6e2d636f6e7472616374000000928b8e51957f08c379a0000000000000000000000000000000000000000000000000000000008752860152840152820152fd5b50838f6041887f4e487b7100000000000000000000000000000000000000000000000000000000835252fd5b50508a81813d831161057c575b610565818361090e565b81010312610578578e6101f891516101ee565b8d80fd5b503d61055b565b8e8e51903d90823e3d90fd5b9091508881813d83116105c4575b6105a7818361090e565b810103126105c0575189811681036105c05790386101a2565b8b80fd5b503d61059d565b8b513d8e823e3d90fd5b606490601885898c51937f08c379a00000000000000000000000000000000000000000000000000000000085528401528201527f496e73756666696369656e74204554482062616c616e636500000000000000006044820152fd5b8880fd5b8780fd5b8980fd5b5080fd5b503461063c57817ffffffffffffffffffffffffffffffffffffffffffffffffffffffffffffffffc36011261063c57602090517f00000000000000000000000000000000000000000000000000000000000000008152f35b503461063c57817ffffffffffffffffffffffffffffffffffffffffffffffffffffffffffffffffc36011261063c57602090517f00000000000000000000000000000000000000000000000000000000000000008152f35b50919060807ffffffffffffffffffffffffffffffffffffffffffffffffffffffffffffffffc3601126107ae5761072561089b565b5073ffffffffffffffffffffffffffffffffffffffff6024358181160361063c57606435908116036107ae5750602060649251917f08c379a0000000000000000000000000000000000000000000000000000000008352820152601460248201527f72656c6179546f6b656e732064697361626c65640000000000000000000000006044820152fd5b80fd5b503461063c57817ffffffffffffffffffffffffffffffffffffffffffffffffffffffffffffffffc36011261063c5760209051620493e08152f35b503461063c57817ffffffffffffffffffffffffffffffffffffffffffffffffffffffffffffffffc36011261063c576020905173ffffffffffffffffffffffffffffffffffffffff7f0000000000000000000000000000000000000000000000000000000000000000168152f35b503461063c57817ffffffffffffffffffffffffffffffffffffffffffffffffffffffffffffffffc36011261063c57602090610894610a89565b9051908152f35b6004359073ffffffffffffffffffffffffffffffffffffffff821682036108be57565b600080fd5b6080810190811067ffffffffffffffff8211176108df57604052565b7f4e487b7100000000000000000000000000000000000000000000000000000000600052604160045260246000fd5b90601f7fffffffffffffffffffffffffffffffffffffffffffffffffffffffffffffffe0910116810190811067ffffffffffffffff8211176108df57604052565b67ffffffffffffffff81116108df57601f017fffffffffffffffffffffffffffffffffffffffffffffffffffffffffffffffe01660200190565b60005b83811061099c5750506000910152565b818101518382015260200161098c565b907fffffffffffffffffffffffffffffffffffffffffffffffffffffffffffffffe0601f6020936109e881518092818752878088019101610989565b0116010190565b919082018092116109fc57565b7f4e487b7100000000000000000000000000000000000000000000000000000000600052601160045260246000fd5b90919015610a37575090565b815115610a475750805190602001fd5b610a85906040519182917f08c379a00000000000000000000000000000000000000000000000000000000083526020600484015260248301906109ac565b0390fd5b620493e07f00000000000000000000000000000000000000000000000000000000000000008181029181159183041417156109fc57610ae8907f00000000000000000000000000000000000000000000000000000000000000006109ef565b9056fea26469706673582212201797c074485a1a9a657bdbd0d102fcc046fad644e74d6375f6465cb499ce38d564736f6c63430008120033",
  "devdoc": {
    "kind": "dev",
    "methods": {
      "constructor": {
        "params": {
          "_l1ERC20GatewayRouter": "ERC20 gateway router contract to send tokens to Arbitrum."
        }
      },
      "getL1CallValue()": {
        "returns": {
          "_0": "amount of ETH that this contract needs to hold in order for relayMessage to succeed."
        }
      },
      "relayMessage(address,bytes)": {
        "details": "This performs similar logic to relayTokens in the normal Arbitrum_Adapter by sending tokens the Arbitrum_SpokePool out of the HubPool.",
        "params": {
          "message": "The encoded address of the ERC20 to send to the rescue address."
        }
      }
    },
    "version": 1
  },
  "userdoc": {
    "kind": "user",
    "methods": {
      "constructor": {
        "notice": "Constructs new Adapter."
      },
      "getL1CallValue()": {
        "notice": "Returns required amount of ETH to send a message via the Inbox."
      },
      "relayMessage(address,bytes)": {
        "notice": "Send tokens to SpokePool. Enables HubPool admin to call relaySpokePoolAdminFunction that will trigger this function."
      },
      "relayTokens(address,address,uint256,address)": {
        "notice": "Should never be called."
      }
    },
    "notice": "This adapter is built for emergencies to send funds from the Hub to a Spoke in the event that a spoke pool received a duplicate root bundle relay, due to some replay issue.",
    "version": 1
  },
  "storageLayout": {
    "storage": [],
    "types": null
  }
}