{
  "address": "0x29528780E29abb8Af95a5e5a125b94766987543F",
  "abi": [
    {
      "inputs": [
        {
          "internalType": "contract ArbitrumL1InboxLike",
          "name": "_l1ArbitrumInbox",
          "type": "address"
        },
        {
          "internalType": "contract ArbitrumL1ERC20GatewayLike",
          "name": "_l1ERC20GatewayRouter",
          "type": "address"
        }
      ],
      "stateMutability": "nonpayable",
      "type": "constructor"
    },
    {
      "anonymous": false,
      "inputs": [
        {
          "indexed": false,
          "internalType": "address",
          "name": "target",
          "type": "address"
        },
        {
          "indexed": false,
          "internalType": "bytes",
          "name": "message",
          "type": "bytes"
        }
      ],
      "name": "MessageRelayed",
      "type": "event"
    },
    {
      "anonymous": false,
      "inputs": [
        {
          "indexed": false,
          "internalType": "address",
          "name": "l1Token",
          "type": "address"
        },
        {
          "indexed": false,
          "internalType": "address",
          "name": "l2Token",
          "type": "address"
        },
        {
          "indexed": false,
          "internalType": "uint256",
          "name": "amount",
          "type": "uint256"
        },
        {
          "indexed": false,
          "internalType": "address",
          "name": "to",
          "type": "address"
        }
      ],
      "name": "TokensRelayed",
      "type": "event"
    },
    {
      "inputs": [],
      "name": "RELAY_MESSAGE_L2_GAS_LIMIT",
      "outputs": [
        {
          "internalType": "uint32",
          "name": "",
          "type": "uint32"
        }
      ],
      "stateMutability": "view",
      "type": "function"
    },
    {
      "inputs": [],
      "name": "RELAY_TOKENS_L2_GAS_LIMIT",
      "outputs": [
        {
          "internalType": "uint32",
          "name": "",
          "type": "uint32"
        }
      ],
      "stateMutability": "view",
      "type": "function"
    },
    {
      "inputs": [
        {
          "internalType": "uint32",
          "name": "l2GasLimit",
          "type": "uint32"
        }
      ],
      "name": "getL1CallValue",
      "outputs": [
        {
          "internalType": "uint256",
          "name": "",
          "type": "uint256"
        }
      ],
      "stateMutability": "pure",
      "type": "function"
    },
    {
      "inputs": [],
      "name": "l1ERC20GatewayRouter",
      "outputs": [
        {
          "internalType": "contract ArbitrumL1ERC20GatewayLike",
          "name": "",
          "type": "address"
        }
      ],
      "stateMutability": "view",
      "type": "function"
    },
    {
      "inputs": [],
      "name": "l1Inbox",
      "outputs": [
        {
          "internalType": "contract ArbitrumL1InboxLike",
          "name": "",
          "type": "address"
        }
      ],
      "stateMutability": "view",
      "type": "function"
    },
    {
      "inputs": [],
      "name": "l2GasPrice",
      "outputs": [
        {
          "internalType": "uint256",
          "name": "",
          "type": "uint256"
        }
      ],
      "stateMutability": "view",
      "type": "function"
    },
    {
      "inputs": [],
      "name": "l2MaxSubmissionCost",
      "outputs": [
        {
          "internalType": "uint256",
          "name": "",
          "type": "uint256"
        }
      ],
      "stateMutability": "view",
      "type": "function"
    },
    {
      "inputs": [],
      "name": "l2RefundL2Address",
      "outputs": [
        {
          "internalType": "address",
          "name": "",
          "type": "address"
        }
      ],
      "stateMutability": "view",
      "type": "function"
    },
    {
      "inputs": [
        {
          "internalType": "address",
          "name": "target",
          "type": "address"
        },
        {
          "internalType": "bytes",
          "name": "message",
          "type": "bytes"
        }
      ],
      "name": "relayMessage",
      "outputs": [],
      "stateMutability": "payable",
      "type": "function"
    },
    {
      "inputs": [
        {
          "internalType": "address",
          "name": "l1Token",
          "type": "address"
        },
        {
          "internalType": "address",
          "name": "l2Token",
          "type": "address"
        },
        {
          "internalType": "uint256",
          "name": "amount",
          "type": "uint256"
        },
        {
          "internalType": "address",
          "name": "to",
          "type": "address"
        }
      ],
      "name": "relayTokens",
      "outputs": [],
      "stateMutability": "payable",
      "type": "function"
    }
  ],
  "transactionHash": "0x4b6bf220c915ef47d3e56f3728427b9095c676a0e202da01779e828e22ecebb7",
  "args": [
    "0x4Dbd4fc535Ac27206064B68FfCf827b0A60BAB3f",
    "0x72Ce9c846789fdB6fC1f34aC4AD25Dd9ef7031ef"
  ],
  "numDeployments": 1,
  "solcInputHash": "aa94850b4a0bee17111a41299cfa0033",
  "bytecode": "0x60c060405234801561001057600080fd5b5060405161128338038061128383398101604081905261002f9161005e565b6001600160a01b039182166080521660a052610098565b6001600160a01b038116811461005b57600080fd5b50565b6000806040838503121561007157600080fd5b825161007c81610046565b602084015190925061008d81610046565b809150509250929050565b60805160a0516111ab6100d86000396000818160c8015281816102c40152818161041b015261050c015260008181610195015261064c01526111ab6000f3fe6080604052600436106100b15760003560e01c80639ae3668511610069578063c735281e1161004e578063c735281e146101f8578063e599477e1461020f578063e6eb8ade1461022a57600080fd5b80639ae36685146101b75780639c3ba200146101d057600080fd5b806328f2716e1161009a57806328f2716e1461014257806352c8c75c1461016e5780638134f3851461018357600080fd5b80631ba4a9cb146100b65780631fc1ba7614610114575b600080fd5b3480156100c257600080fd5b506100ea7f000000000000000000000000000000000000000000000000000000000000000081565b60405173ffffffffffffffffffffffffffffffffffffffff90911681526020015b60405180910390f35b34801561012057600080fd5b5061013461012f366004610c27565b61023d565b60405190815260200161010b565b34801561014e57600080fd5b50610159620493e081565b60405163ffffffff909116815260200161010b565b61018161017c366004610c72565b61026b565b005b34801561018f57600080fd5b506100ea7f000000000000000000000000000000000000000000000000000000000000000081565b3480156101c357600080fd5b5061013464012a05f20081565b3480156101dc57600080fd5b506100ea73428ab2ba90eba0a4be7af34c9ac451ab061ac01081565b34801561020457600080fd5b50610159621e848081565b34801561021b57600080fd5b50610134662386f26fc1000081565b610181610238366004610d89565b61063a565b600061025463ffffffff831664012a05f200610e4b565b61026590662386f26fc10000610e88565b92915050565b6000610279620493e0610758565b6040517fbda009fe00000000000000000000000000000000000000000000000000000000815273ffffffffffffffffffffffffffffffffffffffff87811660048301529192506000917f0000000000000000000000000000000000000000000000000000000000000000169063bda009fe90602401602060405180830381865afa15801561030b573d6000803e3d6000fd5b505050506040513d601f19601f8201168201806040525081019061032f9190610ea0565b905061035273ffffffffffffffffffffffffffffffffffffffff871682866107d9565b6000662386f26fc1000060405160200161037d91815260406020820181905260009082015260600190565b604080517fffffffffffffffffffffffffffffffffffffffffffffffffffffffffffffffe0818403018152919052905073ffffffffffffffffffffffffffffffffffffffff8716736b175474e89094c44da98b954eedeac495271d0f036104cf576040517fd2ce7d6500000000000000000000000000000000000000000000000000000000815273ffffffffffffffffffffffffffffffffffffffff7f0000000000000000000000000000000000000000000000000000000000000000169063d2ce7d65908590610464908b9089908b90620493e09064012a05f200908a90600401610f33565b60006040518083038185885af1158015610482573d6000803e3d6000fd5b50505050506040513d6000823e601f3d9081017fffffffffffffffffffffffffffffffffffffffffffffffffffffffffffffffe01682016040526104c99190810190610f90565b506105d2565b6040517f4fb1a07b00000000000000000000000000000000000000000000000000000000815273ffffffffffffffffffffffffffffffffffffffff7f00000000000000000000000000000000000000000000000000000000000000001690634fb1a07b90859061056b908b9073428ab2ba90eba0a4be7af34c9ac451ab061ac010908a908c90620493e09064012a05f200908b90600401611007565b60006040518083038185885af1158015610589573d6000803e3d6000fd5b50505050506040513d6000823e601f3d9081017fffffffffffffffffffffffffffffffffffffffffffffffffffffffffffffffe01682016040526105d09190810190610f90565b505b6040805173ffffffffffffffffffffffffffffffffffffffff898116825288811660208301528183018890528616606082015290517fd7e09655439c3932e55857df3220186e5a7f0980825f20691c2b35d941dee75b9181900360800190a150505050505050565b6000610648621e8480610758565b90507f000000000000000000000000000000000000000000000000000000000000000073ffffffffffffffffffffffffffffffffffffffff1663679b6ded82856000662386f26fc1000073428ab2ba90eba0a4be7af34c9ac451ab061ac01080621e848064012a05f2008b6040518a63ffffffff1660e01b81526004016106d698979695949392919061106d565b60206040518083038185885af11580156106f4573d6000803e3d6000fd5b50505050506040513d601f19601f8201168201806040525081019061071991906110dc565b507f9e6c52944e331ba6270e7fe4cea2a4086bae8f7a27e1cdba07f416806f5d0ac4838360405161074b9291906110f5565b60405180910390a1505050565b60006107638261023d565b9050804710156107d4576040517f08c379a000000000000000000000000000000000000000000000000000000000815260206004820152601860248201527f496e73756666696369656e74204554482062616c616e6365000000000000000060448201526064015b60405180910390fd5b919050565b6040517fdd62ed3e00000000000000000000000000000000000000000000000000000000815230600482015273ffffffffffffffffffffffffffffffffffffffff8381166024830152600091839186169063dd62ed3e90604401602060405180830381865afa158015610850573d6000803e3d6000fd5b505050506040513d601f19601f8201168201806040525081019061087491906110dc565b61087e9190610e88565b6040805173ffffffffffffffffffffffffffffffffffffffff8616602482015260448082018490528251808303909101815260649091019091526020810180517bffffffffffffffffffffffffffffffffffffffffffffffffffffffff167f095ea7b30000000000000000000000000000000000000000000000000000000017905290915061090e908590610914565b50505050565b6000610976826040518060400160405280602081526020017f5361666545524332303a206c6f772d6c6576656c2063616c6c206661696c65648152508573ffffffffffffffffffffffffffffffffffffffff16610a259092919063ffffffff16565b805190915015610a2057808060200190518101906109949190611124565b610a20576040517f08c379a000000000000000000000000000000000000000000000000000000000815260206004820152602a60248201527f5361666545524332303a204552433230206f7065726174696f6e20646964206e60448201527f6f7420737563636565640000000000000000000000000000000000000000000060648201526084016107cb565b505050565b6060610a348484600085610a3e565b90505b9392505050565b606082471015610ad0576040517f08c379a000000000000000000000000000000000000000000000000000000000815260206004820152602660248201527f416464726573733a20696e73756666696369656e742062616c616e636520666f60448201527f722063616c6c000000000000000000000000000000000000000000000000000060648201526084016107cb565b73ffffffffffffffffffffffffffffffffffffffff85163b610b4e576040517f08c379a000000000000000000000000000000000000000000000000000000000815260206004820152601d60248201527f416464726573733a2063616c6c20746f206e6f6e2d636f6e747261637400000060448201526064016107cb565b6000808673ffffffffffffffffffffffffffffffffffffffff168587604051610b779190611146565b60006040518083038185875af1925050503d8060008114610bb4576040519150601f19603f3d011682016040523d82523d6000602084013e610bb9565b606091505b5091509150610bc9828286610bd4565b979650505050505050565b60608315610be3575081610a37565b825115610bf35782518084602001fd5b816040517f08c379a00000000000000000000000000000000000000000000000000000000081526004016107cb9190611162565b600060208284031215610c3957600080fd5b813563ffffffff81168114610a3757600080fd5b73ffffffffffffffffffffffffffffffffffffffff81168114610c6f57600080fd5b50565b60008060008060808587031215610c8857600080fd5b8435610c9381610c4d565b93506020850135610ca381610c4d565b9250604085013591506060850135610cba81610c4d565b939692955090935050565b7f4e487b7100000000000000000000000000000000000000000000000000000000600052604160045260246000fd5b604051601f82017fffffffffffffffffffffffffffffffffffffffffffffffffffffffffffffffe016810167ffffffffffffffff81118282101715610d3b57610d3b610cc5565b604052919050565b600067ffffffffffffffff821115610d5d57610d5d610cc5565b50601f017fffffffffffffffffffffffffffffffffffffffffffffffffffffffffffffffe01660200190565b60008060408385031215610d9c57600080fd5b8235610da781610c4d565b9150602083013567ffffffffffffffff811115610dc357600080fd5b8301601f81018513610dd457600080fd5b8035610de7610de282610d43565b610cf4565b818152866020838501011115610dfc57600080fd5b816020840160208301376000602083830101528093505050509250929050565b7f4e487b7100000000000000000000000000000000000000000000000000000000600052601160045260246000fd5b6000817fffffffffffffffffffffffffffffffffffffffffffffffffffffffffffffffff0483118215151615610e8357610e83610e1c565b500290565b60008219821115610e9b57610e9b610e1c565b500190565b600060208284031215610eb257600080fd5b8151610a3781610c4d565b60005b83811015610ed8578181015183820152602001610ec0565b8381111561090e5750506000910152565b60008151808452610f01816020860160208601610ebd565b601f017fffffffffffffffffffffffffffffffffffffffffffffffffffffffffffffffe0169290920160200192915050565b600073ffffffffffffffffffffffffffffffffffffffff808916835280881660208401525085604083015263ffffffff8516606083015283608083015260c060a0830152610f8460c0830184610ee9565b98975050505050505050565b600060208284031215610fa257600080fd5b815167ffffffffffffffff811115610fb957600080fd5b8201601f81018413610fca57600080fd5b8051610fd8610de282610d43565b818152856020838501011115610fed57600080fd5b610ffe826020830160208601610ebd565b95945050505050565b600073ffffffffffffffffffffffffffffffffffffffff808a168352808916602084015280881660408401525085606083015263ffffffff851660808301528360a083015260e060c083015261106060e0830184610ee9565b9998505050505050505050565b600061010073ffffffffffffffffffffffffffffffffffffffff808c1684528a6020850152896040850152808916606085015280881660808501525063ffffffff861660a08401528460c08401528060e08401526110cd81840185610ee9565b9b9a5050505050505050505050565b6000602082840312156110ee57600080fd5b5051919050565b73ffffffffffffffffffffffffffffffffffffffff83168152604060208201526000610a346040830184610ee9565b60006020828403121561113657600080fd5b81518015158114610a3757600080fd5b60008251611158818460208701610ebd565b9190910192915050565b602081526000610a376020830184610ee956fea2646970667358221220b1f5489e25d9caa366e02e9f1600d99235c2ecffa1dee5130a86e9d1a2b8130064736f6c634300080d0033",
  "devdoc": {
    "details": "Public functions calling external contracts do not guard against reentrancy because they are expected to be called via delegatecall, which will execute this contract's logic within the context of the originating contract. For example, the HubPool will delegatecall these functions, therefore its only necessary that the HubPool's methods that call this contract's logic guard against reentrancy.",
    "kind": "dev",
    "methods": {
      "constructor": {
        "params": {
          "_l1ArbitrumInbox": "Inbox helper contract to send messages to Arbitrum.",
          "_l1ERC20GatewayRouter": "ERC20 gateway router contract to send tokens to Arbitrum."
        }
      },
      "getL1CallValue(uint32)": {
        "returns": {
          "_0": "amount of ETH that this contract needs to hold in order for relayMessage to succeed."
        }
      },
      "relayMessage(address,bytes)": {
        "params": {
          "message": "Data to send to target.",
          "target": "Contract on Arbitrum that will receive message."
        }
      },
      "relayTokens(address,address,uint256,address)": {
        "params": {
          "amount": "Amount of L1 tokens to deposit and L2 tokens to receive.",
          "l1Token": "L1 token to deposit.",
          "l2Token": "L2 token to receive.",
          "to": "Bridge recipient."
        }
      }
    },
    "version": 1
  },
  "userdoc": {
    "kind": "user",
    "methods": {
      "constructor": {
        "notice": "Constructs new Adapter."
      },
      "getL1CallValue(uint32)": {
        "notice": "Returns required amount of ETH to send a message via the Inbox."
      },
      "relayMessage(address,bytes)": {
        "notice": "Send cross-chain message to target on Arbitrum.This contract must hold at least getL1CallValue() amount of ETH to send a message via the Inbox successfully, or the message will get stuck."
      },
      "relayTokens(address,address,uint256,address)": {
        "notice": "Bridge tokens to Arbitrum.This contract must hold at least getL1CallValue() amount of ETH to send a message via the Inbox successfully, or the message will get stuck."
      }
    },
    "notice": "Contract containing logic to send messages from L1 to Arbitrum.",
    "version": 1
  },
  "storageLayout": {
    "storage": [],
    "types": null
  }
}