{
  "address": "0x84f04EcDaAE2Adcf56Cf0936f35015e12d2Fc5E3",
  "abi": [
    {
      "inputs": [
        {
          "internalType": "contract ArbitrumL1InboxLike",
          "name": "_l1ArbitrumInbox",
          "type": "address"
        },
        {
          "internalType": "contract ArbitrumL1ERC20GatewayLike",
          "name": "_l1ERC20GatewayRouter",
          "type": "address"
        }
      ],
      "stateMutability": "nonpayable",
      "type": "constructor"
    },
    {
      "anonymous": false,
      "inputs": [
        {
          "indexed": false,
          "internalType": "address",
          "name": "target",
          "type": "address"
        },
        {
          "indexed": false,
          "internalType": "bytes",
          "name": "message",
          "type": "bytes"
        }
      ],
      "name": "MessageRelayed",
      "type": "event"
    },
    {
      "anonymous": false,
      "inputs": [
        {
          "indexed": false,
          "internalType": "address",
          "name": "l1Token",
          "type": "address"
        },
        {
          "indexed": false,
          "internalType": "address",
          "name": "l2Token",
          "type": "address"
        },
        {
          "indexed": false,
          "internalType": "uint256",
          "name": "amount",
          "type": "uint256"
        },
        {
          "indexed": false,
          "internalType": "address",
          "name": "to",
          "type": "address"
        }
      ],
      "name": "TokensRelayed",
      "type": "event"
    },
    {
      "inputs": [
        {
          "internalType": "uint32",
          "name": "l2GasLimit",
          "type": "uint32"
        }
      ],
      "name": "getL1CallValue",
      "outputs": [
        {
          "internalType": "uint256",
          "name": "",
          "type": "uint256"
        }
      ],
      "stateMutability": "pure",
      "type": "function"
    },
    {
      "inputs": [],
      "name": "l1ERC20GatewayRouter",
      "outputs": [
        {
          "internalType": "contract ArbitrumL1ERC20GatewayLike",
          "name": "",
          "type": "address"
        }
      ],
      "stateMutability": "view",
      "type": "function"
    },
    {
      "inputs": [],
      "name": "l1Inbox",
      "outputs": [
        {
          "internalType": "contract ArbitrumL1InboxLike",
          "name": "",
          "type": "address"
        }
      ],
      "stateMutability": "view",
      "type": "function"
    },
    {
      "inputs": [],
      "name": "l2GasPrice",
      "outputs": [
        {
          "internalType": "uint256",
          "name": "",
          "type": "uint256"
        }
      ],
      "stateMutability": "view",
      "type": "function"
    },
    {
      "inputs": [],
      "name": "l2MaxSubmissionCost",
      "outputs": [
        {
          "internalType": "uint256",
          "name": "",
          "type": "uint256"
        }
      ],
      "stateMutability": "view",
      "type": "function"
    },
    {
      "inputs": [],
      "name": "l2RefundL2Address",
      "outputs": [
        {
          "internalType": "address",
          "name": "",
          "type": "address"
        }
      ],
      "stateMutability": "view",
      "type": "function"
    },
    {
      "inputs": [
        {
          "internalType": "address",
          "name": "target",
          "type": "address"
        },
        {
          "internalType": "bytes",
          "name": "message",
          "type": "bytes"
        }
      ],
      "name": "relayMessage",
      "outputs": [],
      "stateMutability": "payable",
      "type": "function"
    },
    {
      "inputs": [
        {
          "internalType": "address",
          "name": "l1Token",
          "type": "address"
        },
        {
          "internalType": "address",
          "name": "l2Token",
          "type": "address"
        },
        {
          "internalType": "uint256",
          "name": "amount",
          "type": "uint256"
        },
        {
          "internalType": "address",
          "name": "to",
          "type": "address"
        }
      ],
      "name": "relayTokens",
      "outputs": [],
      "stateMutability": "payable",
      "type": "function"
    }
  ],
  "transactionHash": "0x6892c51ae3fb26bdcf8aaaaef6ff41ff253d24a0bb3b1a51a5be9180c2ad9249",
  "args": [
    "0x4Dbd4fc535Ac27206064B68FfCf827b0A60BAB3f",
    "0x72Ce9c846789fdB6fC1f34aC4AD25Dd9ef7031ef"
  ],
  "numDeployments": 1,
  "solcInputHash": "b1c150d01e9b5ae8264d6fba1b3ad3d7",
  "bytecode": "0x610120604052662386f26fc1000060805264012a05f20060a05234801561002557600080fd5b506040516111cf3803806111cf83398101604081905261004491610078565b6001600160a01b0391821660e05216610100523360c0526100b2565b6001600160a01b038116811461007557600080fd5b50565b6000806040838503121561008b57600080fd5b825161009681610060565b60208401519092506100a781610060565b809150509250929050565b60805160a05160c05160e0516101005161108d610142600039600081816092015281816102bf01526103fc015260008181610133015261054001526000818161019b015281816105a101526105c2015260008181610167015281816102120152818161043601526105e70152600081816101cf0152818161023c015281816103510152610580015261108d6000f3fe60806040526004361061007b5760003560e01c80639ae366851161004e5780639ae36685146101555780639c3ba20014610189578063e599477e146101bd578063e6eb8ade146101f157600080fd5b80631ba4a9cb146100805780631fc1ba76146100de57806352c8c75c1461010c5780638134f38514610121575b600080fd5b34801561008c57600080fd5b506100b47f000000000000000000000000000000000000000000000000000000000000000081565b60405173ffffffffffffffffffffffffffffffffffffffff90911681526020015b60405180910390f35b3480156100ea57600080fd5b506100fe6100f9366004610b7b565b610204565b6040519081526020016100d5565b61011f61011a366004610bc6565b610266565b005b34801561012d57600080fd5b506100b47f000000000000000000000000000000000000000000000000000000000000000081565b34801561016157600080fd5b506100fe7f000000000000000000000000000000000000000000000000000000000000000081565b34801561019557600080fd5b506100b47f000000000000000000000000000000000000000000000000000000000000000081565b3480156101c957600080fd5b506100fe7f000000000000000000000000000000000000000000000000000000000000000081565b61011f6101ff366004610cdd565b61052e565b600061023663ffffffff83167f0000000000000000000000000000000000000000000000000000000000000000610d9f565b610260907f0000000000000000000000000000000000000000000000000000000000000000610ddc565b92915050565b6000610274620493e06106ac565b6040517fbda009fe00000000000000000000000000000000000000000000000000000000815273ffffffffffffffffffffffffffffffffffffffff87811660048301529192506000917f0000000000000000000000000000000000000000000000000000000000000000169063bda009fe90602401602060405180830381865afa158015610306573d6000803e3d6000fd5b505050506040513d601f19601f8201168201806040525081019061032a9190610df4565b905061034d73ffffffffffffffffffffffffffffffffffffffff8716828661072d565b60007f000000000000000000000000000000000000000000000000000000000000000060405160200161039191815260406020820181905260009082015260600190565b604080517fffffffffffffffffffffffffffffffffffffffffffffffffffffffffffffffe0818403018152908290527fd2ce7d65000000000000000000000000000000000000000000000000000000008252915073ffffffffffffffffffffffffffffffffffffffff7f0000000000000000000000000000000000000000000000000000000000000000169063d2ce7d65908590610460908b9089908b90620493e0907f0000000000000000000000000000000000000000000000000000000000000000908a90600401610e87565b60006040518083038185885af115801561047e573d6000803e3d6000fd5b50505050506040513d6000823e601f3d9081017fffffffffffffffffffffffffffffffffffffffffffffffffffffffffffffffe01682016040526104c59190810190610ede565b506040805173ffffffffffffffffffffffffffffffffffffffff898116825288811660208301528183018890528616606082015290517fd7e09655439c3932e55857df3220186e5a7f0980825f20691c2b35d941dee75b9181900360800190a150505050505050565b600061053c621e84806106ac565b90507f000000000000000000000000000000000000000000000000000000000000000073ffffffffffffffffffffffffffffffffffffffff1663679b6ded828560007f00000000000000000000000000000000000000000000000000000000000000007f00000000000000000000000000000000000000000000000000000000000000007f0000000000000000000000000000000000000000000000000000000000000000621e84807f00000000000000000000000000000000000000000000000000000000000000008b6040518a63ffffffff1660e01b815260040161062a989796959493929190610f55565b60206040518083038185885af1158015610648573d6000803e3d6000fd5b50505050506040513d601f19601f8201168201806040525081019061066d9190610fbe565b507f9e6c52944e331ba6270e7fe4cea2a4086bae8f7a27e1cdba07f416806f5d0ac4838360405161069f929190610fd7565b60405180910390a1505050565b60006106b782610204565b905080471015610728576040517f08c379a000000000000000000000000000000000000000000000000000000000815260206004820152601860248201527f496e73756666696369656e74204554482062616c616e6365000000000000000060448201526064015b60405180910390fd5b919050565b6040517fdd62ed3e00000000000000000000000000000000000000000000000000000000815230600482015273ffffffffffffffffffffffffffffffffffffffff8381166024830152600091839186169063dd62ed3e90604401602060405180830381865afa1580156107a4573d6000803e3d6000fd5b505050506040513d601f19601f820116820180604052508101906107c89190610fbe565b6107d29190610ddc565b6040805173ffffffffffffffffffffffffffffffffffffffff8616602482015260448082018490528251808303909101815260649091019091526020810180517bffffffffffffffffffffffffffffffffffffffffffffffffffffffff167f095ea7b300000000000000000000000000000000000000000000000000000000179052909150610862908590610868565b50505050565b60006108ca826040518060400160405280602081526020017f5361666545524332303a206c6f772d6c6576656c2063616c6c206661696c65648152508573ffffffffffffffffffffffffffffffffffffffff166109799092919063ffffffff16565b80519091501561097457808060200190518101906108e89190611006565b610974576040517f08c379a000000000000000000000000000000000000000000000000000000000815260206004820152602a60248201527f5361666545524332303a204552433230206f7065726174696f6e20646964206e60448201527f6f74207375636365656400000000000000000000000000000000000000000000606482015260840161071f565b505050565b60606109888484600085610992565b90505b9392505050565b606082471015610a24576040517f08c379a000000000000000000000000000000000000000000000000000000000815260206004820152602660248201527f416464726573733a20696e73756666696369656e742062616c616e636520666f60448201527f722063616c6c0000000000000000000000000000000000000000000000000000606482015260840161071f565b73ffffffffffffffffffffffffffffffffffffffff85163b610aa2576040517f08c379a000000000000000000000000000000000000000000000000000000000815260206004820152601d60248201527f416464726573733a2063616c6c20746f206e6f6e2d636f6e7472616374000000604482015260640161071f565b6000808673ffffffffffffffffffffffffffffffffffffffff168587604051610acb9190611028565b60006040518083038185875af1925050503d8060008114610b08576040519150601f19603f3d011682016040523d82523d6000602084013e610b0d565b606091505b5091509150610b1d828286610b28565b979650505050505050565b60608315610b3757508161098b565b825115610b475782518084602001fd5b816040517f08c379a000000000000000000000000000000000000000000000000000000000815260040161071f9190611044565b600060208284031215610b8d57600080fd5b813563ffffffff8116811461098b57600080fd5b73ffffffffffffffffffffffffffffffffffffffff81168114610bc357600080fd5b50565b60008060008060808587031215610bdc57600080fd5b8435610be781610ba1565b93506020850135610bf781610ba1565b9250604085013591506060850135610c0e81610ba1565b939692955090935050565b7f4e487b7100000000000000000000000000000000000000000000000000000000600052604160045260246000fd5b604051601f82017fffffffffffffffffffffffffffffffffffffffffffffffffffffffffffffffe016810167ffffffffffffffff81118282101715610c8f57610c8f610c19565b604052919050565b600067ffffffffffffffff821115610cb157610cb1610c19565b50601f017fffffffffffffffffffffffffffffffffffffffffffffffffffffffffffffffe01660200190565b60008060408385031215610cf057600080fd5b8235610cfb81610ba1565b9150602083013567ffffffffffffffff811115610d1757600080fd5b8301601f81018513610d2857600080fd5b8035610d3b610d3682610c97565b610c48565b818152866020838501011115610d5057600080fd5b816020840160208301376000602083830101528093505050509250929050565b7f4e487b7100000000000000000000000000000000000000000000000000000000600052601160045260246000fd5b6000817fffffffffffffffffffffffffffffffffffffffffffffffffffffffffffffffff0483118215151615610dd757610dd7610d70565b500290565b60008219821115610def57610def610d70565b500190565b600060208284031215610e0657600080fd5b815161098b81610ba1565b60005b83811015610e2c578181015183820152602001610e14565b838111156108625750506000910152565b60008151808452610e55816020860160208601610e11565b601f017fffffffffffffffffffffffffffffffffffffffffffffffffffffffffffffffe0169290920160200192915050565b600073ffffffffffffffffffffffffffffffffffffffff808916835280881660208401525085604083015284606083015283608083015260c060a0830152610ed260c0830184610e3d565b98975050505050505050565b600060208284031215610ef057600080fd5b815167ffffffffffffffff811115610f0757600080fd5b8201601f81018413610f1857600080fd5b8051610f26610d3682610c97565b818152856020838501011115610f3b57600080fd5b610f4c826020830160208601610e11565b95945050505050565b600061010073ffffffffffffffffffffffffffffffffffffffff808c1684528a602085015289604085015280891660608501528088166080850152508560a08401528460c08401528060e0840152610faf81840185610e3d565b9b9a5050505050505050505050565b600060208284031215610fd057600080fd5b5051919050565b73ffffffffffffffffffffffffffffffffffffffff831681526040602082015260006109886040830184610e3d565b60006020828403121561101857600080fd5b8151801515811461098b57600080fd5b6000825161103a818460208701610e11565b9190910192915050565b60208152600061098b6020830184610e3d56fea26469706673582212200a1bdf9a881827ae5cc63e197afc1d2fc608ded56f138405e684d1fb88cd382564736f6c634300080d0033",
  "devdoc": {
    "details": "Public functions calling external contracts do not guard against reentrancy because they are expected to be called via delegatecall, which will execute this contract's logic within the context of the originating contract. For example, the HubPool will delegatecall these functions, therefore its only necessary that the HubPool's methods that call this contract's logic guard against reentrancy.",
    "kind": "dev",
    "methods": {
      "constructor": {
        "params": {
          "_l1ArbitrumInbox": "Inbox helper contract to send messages to Arbitrum.",
          "_l1ERC20GatewayRouter": "ERC20 gateway router contract to send tokens to Arbitrum."
        }
      },
      "getL1CallValue(uint32)": {
        "returns": {
          "_0": "amount of ETH that this contract needs to hold in order for relayMessage to succeed."
        }
      },
      "relayMessage(address,bytes)": {
        "params": {
          "message": "Data to send to target.",
          "target": "Contract on Arbitrum that will receive message."
        }
      },
      "relayTokens(address,address,uint256,address)": {
        "params": {
          "amount": "Amount of L1 tokens to deposit and L2 tokens to receive.",
          "l1Token": "L1 token to deposit.",
          "l2Token": "L2 token to receive.",
          "to": "Bridge recipient."
        }
      }
    },
    "version": 1
  },
  "userdoc": {
    "kind": "user",
    "methods": {
      "constructor": {
        "notice": "Constructs new Adapter."
      },
      "getL1CallValue(uint32)": {
        "notice": "Returns required amount of ETH to send a message via the Inbox."
      },
      "relayMessage(address,bytes)": {
        "notice": "Send cross-chain message to target on Arbitrum.This contract must hold at least getL1CallValue() amount of ETH to send a message via the Inbox successfully, or the message will get stuck."
      },
      "relayTokens(address,address,uint256,address)": {
        "notice": "Bridge tokens to Arbitrum.This contract must hold at least getL1CallValue() amount of ETH to send a message via the Inbox successfully, or the message will get stuck."
      }
    },
    "notice": "Contract containing logic to send messages from L1 to Arbitrum.",
    "version": 1
  },
  "storageLayout": {
    "storage": [],
    "types": null
  }
}