{
  "address": "0x928095B08d45A2681c3f9655230Ac81a539c26Fa",
  "abi": [
    {
      "inputs": [
        {
          "internalType": "contract ArbitrumL1InboxLike",
          "name": "_l1ArbitrumInbox",
          "type": "address"
        }
      ],
      "stateMutability": "nonpayable",
      "type": "constructor"
    },
    {
      "anonymous": false,
      "inputs": [
        {
          "indexed": false,
          "internalType": "address",
          "name": "target",
          "type": "address"
        },
        {
          "indexed": false,
          "internalType": "bytes",
          "name": "message",
          "type": "bytes"
        }
      ],
      "name": "MessageRelayed",
      "type": "event"
    },
    {
      "anonymous": false,
      "inputs": [
        {
          "indexed": false,
          "internalType": "address",
          "name": "l1Token",
          "type": "address"
        },
        {
          "indexed": false,
          "internalType": "address",
          "name": "l2Token",
          "type": "address"
        },
        {
          "indexed": false,
          "internalType": "uint256",
          "name": "amount",
          "type": "uint256"
        },
        {
          "indexed": false,
          "internalType": "address",
          "name": "to",
          "type": "address"
        }
      ],
      "name": "TokensRelayed",
      "type": "event"
    },
    {
      "inputs": [],
      "name": "aliasedL2HubPoolAddress",
      "outputs": [
        {
          "internalType": "address",
          "name": "",
          "type": "address"
        }
      ],
      "stateMutability": "view",
      "type": "function"
    },
    {
      "inputs": [],
      "name": "getL1CallValue",
      "outputs": [
        {
          "internalType": "uint256",
          "name": "",
          "type": "uint256"
        }
      ],
      "stateMutability": "pure",
      "type": "function"
    },
    {
      "inputs": [],
      "name": "l1Inbox",
      "outputs": [
        {
          "internalType": "contract ArbitrumL1InboxLike",
          "name": "",
          "type": "address"
        }
      ],
      "stateMutability": "view",
      "type": "function"
    },
    {
      "inputs": [],
      "name": "l2GasLimit",
      "outputs": [
        {
          "internalType": "uint32",
          "name": "",
          "type": "uint32"
        }
      ],
      "stateMutability": "view",
      "type": "function"
    },
    {
      "inputs": [],
      "name": "l2GasPrice",
      "outputs": [
        {
          "internalType": "uint256",
          "name": "",
          "type": "uint256"
        }
      ],
      "stateMutability": "view",
      "type": "function"
    },
    {
      "inputs": [],
      "name": "l2MaxSubmissionCost",
      "outputs": [
        {
          "internalType": "uint256",
          "name": "",
          "type": "uint256"
        }
      ],
      "stateMutability": "view",
      "type": "function"
    },
    {
      "inputs": [],
      "name": "l2RefundL2Address",
      "outputs": [
        {
          "internalType": "address",
          "name": "",
          "type": "address"
        }
      ],
      "stateMutability": "view",
      "type": "function"
    },
    {
      "inputs": [
        {
          "internalType": "address",
          "name": "",
          "type": "address"
        },
        {
          "internalType": "bytes",
          "name": "message",
          "type": "bytes"
        }
      ],
      "name": "relayMessage",
      "outputs": [],
      "stateMutability": "payable",
      "type": "function"
    },
    {
      "inputs": [
        {
          "internalType": "address",
          "name": "",
          "type": "address"
        },
        {
          "internalType": "address",
          "name": "",
          "type": "address"
        },
        {
          "internalType": "uint256",
          "name": "",
          "type": "uint256"
        },
        {
          "internalType": "address",
          "name": "",
          "type": "address"
        }
      ],
      "name": "relayTokens",
      "outputs": [],
      "stateMutability": "payable",
      "type": "function"
    }
  ],
  "transactionHash": "0x7bad2d357b0a06a68d818f94bfc9e4dcb5168a6a4d4c64cc2043dac9173dc6ba",
  "args": [
    "0x4Dbd4fc535Ac27206064B68FfCf827b0A60BAB3f"
  ],
  "numDeployments": 1,
  "solcInputHash": "3072c98a5601d5b3f63d7293280ff30d",
  "bytecode": "0x610140604052662386f26fc1000060805264012a05f20060a052621e848060c05273d297fa914353c44b2e33ebe05f21846f1048cfeb6101005234801561004557600080fd5b506040516109633803806109638339810160408190526100649161007a565b6001600160a01b0316610120523360e0526100aa565b60006020828403121561008c57600080fd5b81516001600160a01b03811681146100a357600080fd5b9392505050565b60805160a05160c05160e051610100516101205161082c61013760003960008181610143015261046c01526000818160d501526104e50152600081816101ab01526103a40152600081816101df0152818161026901526104070152600081816101770152818161028b0152610433015260008181610228015281816102b501526103d5015261082c6000f3fe6080604052600436106100965760003560e01c80639ae3668511610069578063cf6e65b71161004e578063cf6e65b7146101cd578063e599477e14610216578063e6eb8ade1461024a57600080fd5b80639ae36685146101655780639c3ba2001461019957600080fd5b806308f1ed151461009b5780631cf3ec03146100c357806352c8c75c1461011c5780638134f38514610131575b600080fd5b3480156100a757600080fd5b506100b061025d565b6040519081526020015b60405180910390f35b3480156100cf57600080fd5b506100f77f000000000000000000000000000000000000000000000000000000000000000081565b60405173ffffffffffffffffffffffffffffffffffffffff90911681526020016100ba565b61012f61012a3660046105fd565b6102de565b005b34801561013d57600080fd5b506100f77f000000000000000000000000000000000000000000000000000000000000000081565b34801561017157600080fd5b506100b07f000000000000000000000000000000000000000000000000000000000000000081565b3480156101a557600080fd5b506100f77f000000000000000000000000000000000000000000000000000000000000000081565b3480156101d957600080fd5b506102017f000000000000000000000000000000000000000000000000000000000000000081565b60405163ffffffff90911681526020016100ba565b34801561022257600080fd5b506100b07f000000000000000000000000000000000000000000000000000000000000000081565b61012f610258366004610679565b610345565b60006102af63ffffffff7f0000000000000000000000000000000000000000000000000000000000000000167f0000000000000000000000000000000000000000000000000000000000000000610788565b6102d9907f00000000000000000000000000000000000000000000000000000000000000006107c5565b905090565b6040517f08c379a000000000000000000000000000000000000000000000000000000000815260206004820152601060248201527f7573656c6573732066756e6374696f6e0000000000000000000000000000000060448201526064015b60405180910390fd5b60008180602001905181019061035b91906107dd565b9050600061036761055b565b6040517f679b6ded00000000000000000000000000000000000000000000000000000000815273ffffffffffffffffffffffffffffffffffffffff7f0000000000000000000000000000000000000000000000000000000000000000811660048301819052602483018690527f000000000000000000000000000000000000000000000000000000000000000060448401526064830181905260848301527f000000000000000000000000000000000000000000000000000000000000000063ffffffff1660a48301527f000000000000000000000000000000000000000000000000000000000000000060c483015261010060e483015260006101048301529192507f00000000000000000000000000000000000000000000000000000000000000009091169063679b6ded9083906101240160206040518083038185885af11580156104b9573d6000803e3d6000fd5b50505050506040513d601f19601f820116820180604052508101906104de91906107dd565b50604080517f000000000000000000000000000000000000000000000000000000000000000073ffffffffffffffffffffffffffffffffffffffff1681526020810182905260008183015290517f9e6c52944e331ba6270e7fe4cea2a4086bae8f7a27e1cdba07f416806f5d0ac49181900360600190a150505050565b600061056561025d565b9050804710156105d1576040517f08c379a000000000000000000000000000000000000000000000000000000000815260206004820152601860248201527f496e73756666696369656e74204554482062616c616e63650000000000000000604482015260640161033c565b90565b803573ffffffffffffffffffffffffffffffffffffffff811681146105f857600080fd5b919050565b6000806000806080858703121561061357600080fd5b61061c856105d4565b935061062a602086016105d4565b92506040850135915061063f606086016105d4565b905092959194509250565b7f4e487b7100000000000000000000000000000000000000000000000000000000600052604160045260246000fd5b6000806040838503121561068c57600080fd5b610695836105d4565b9150602083013567ffffffffffffffff808211156106b257600080fd5b818501915085601f8301126106c657600080fd5b8135818111156106d8576106d861064a565b604051601f82017fffffffffffffffffffffffffffffffffffffffffffffffffffffffffffffffe0908116603f0116810190838211818310171561071e5761071e61064a565b8160405282815288602084870101111561073757600080fd5b8260208601602083013760006020848301015280955050505050509250929050565b7f4e487b7100000000000000000000000000000000000000000000000000000000600052601160045260246000fd5b6000817fffffffffffffffffffffffffffffffffffffffffffffffffffffffffffffffff04831182151516156107c0576107c0610759565b500290565b600082198211156107d8576107d8610759565b500190565b6000602082840312156107ef57600080fd5b505191905056fea2646970667358221220ee6adafd818798b5b80a63ba41c8f8f21db80a7abdbad7d4dce0d4d0af658ec864736f6c634300080d0033",
  "devdoc": {
    "kind": "dev",
    "methods": {
      "constructor": {
        "params": {
          "_l1ArbitrumInbox": "Inbox helper contract to send messages to Arbitrum."
        }
      },
      "getL1CallValue()": {
        "returns": {
          "_0": "amount of ETH that this contract needs to hold in order for relayMessage to succeed."
        }
      },
      "relayMessage(address,bytes)": {
        "params": {
          "message": "Data to send to aliased hub pool."
        }
      }
    },
    "version": 1
  },
  "userdoc": {
    "kind": "user",
    "methods": {
      "constructor": {
        "notice": "Constructs new Adapter."
      },
      "getL1CallValue()": {
        "notice": "Returns required amount of ETH to send a message via the Inbox."
      },
      "relayMessage(address,bytes)": {
        "notice": "Send cross-chain message to aliased hub pool address on Arbitrum.This contract must hold at least getL1CallValue() amount of ETH to send a message via the Inbox successfully, or the message will get stuck."
      },
      "relayTokens(address,address,uint256,address)": {
        "notice": "Should never be called."
      }
    },
    "notice": "Meant to copy the Arbitrum_Adapter exactly in how it sends L1 --> L2 messages but is designed only to be used by the owner of the HubPool to retrieve ETH held by its aliased address on L2. This ETH builds up because `relayTokens` calls `l1ERC20GatewayRouter.outboundTransfer` which does not allow the caller to specify an L2 refund address the same way that `l1Inbox.createRetryableTicket` does. This means that the alias address of the caller, the HubPool in this case, receives ETH on L2. This Adapter can be used to send messages to Arbitrum specifically to send transactions as if called by the aliased HubPool address.",
    "version": 1
  },
  "storageLayout": {
    "storage": [],
    "types": null
  }
}