{
  "address": "0x98Dd57048d7d5337e92D9102743528ea4Fea64aB",
  "abi": [
    {
      "inputs": [
        {
          "internalType": "address",
          "name": "_hubPool",
          "type": "address"
        },
        {
          "internalType": "contract USDYieldManager",
          "name": "_usdYieldManager",
          "type": "address"
        },
        {
          "internalType": "contract IERC20Upgradeable",
          "name": "_dai",
          "type": "address"
        }
      ],
      "stateMutability": "nonpayable",
      "type": "constructor"
    },
    {
      "inputs": [],
      "name": "dai",
      "outputs": [
        {
          "internalType": "contract IERC20Upgradeable",
          "name": "",
          "type": "address"
        }
      ],
      "stateMutability": "view",
      "type": "function"
    },
    {
      "inputs": [],
      "name": "hubPool",
      "outputs": [
        {
          "internalType": "address",
          "name": "",
          "type": "address"
        }
      ],
      "stateMutability": "view",
      "type": "function"
    },
    {
      "inputs": [
        {
          "internalType": "bytes[]",
          "name": "data",
          "type": "bytes[]"
        }
      ],
      "name": "multicall",
      "outputs": [
        {
          "internalType": "bytes[]",
          "name": "results",
          "type": "bytes[]"
        }
      ],
      "stateMutability": "nonpayable",
      "type": "function"
    },
    {
      "inputs": [
        {
          "internalType": "uint256",
          "name": "_requestId",
          "type": "uint256"
        },
        {
          "internalType": "uint256",
          "name": "_hintId",
          "type": "uint256"
        }
      ],
      "name": "retrieve",
      "outputs": [],
      "stateMutability": "nonpayable",
      "type": "function"
    },
    {
      "inputs": [],
      "name": "usdYieldManager",
      "outputs": [
        {
          "internalType": "contract USDYieldManager",
          "name": "",
          "type": "address"
        }
      ],
      "stateMutability": "view",
      "type": "function"
    }
  ],
  "transactionHash": "0x3378fc2abc57581243ba7fd92f495449567b1f1acc1c758c8f167ac0a71823d1",
  "args": [
    "0xc186fA914353c44b2E33eBE05f21846F1048bEda",
    "0xa230285d5683C74935aD14c446e137c8c8828438",
    "0x6B175474E89094C44Da98b954EedeAC495271d0F"
  ],
  "numDeployments": 1,
  "solcInputHash": "920e48615e6861bea91066905c231277",
  "bytecode": "0x60e0346100c257601f610a9838819003918201601f19168301916001600160401b038311848410176100c6578084926060946040528339810103126100c25780516001600160a01b03919082811681036100c25760208201519183831683036100c2576040015192831683036100c257600160ff195f5416175f5560805260a05260c0526040516109bd90816100db82396080518181816101c60152610495015260a05181818161011a01526102c5015260c05181818161018301526105030152f35b5f80fd5b634e487b7160e01b5f52604160045260245ffdfe60806040526004361015610011575f80fd5b5f3560e01c806326a2ebc9146102805780637c2522081461005f578063ac9650d81461005a578063e1904402146100555763f4b9fa7514610050575f80fd5b6104b9565b61044b565b6103c3565b3461027c5760407ffffffffffffffffffffffffffffffffffffffffffffffffffffffffffffffffc36011261027c5760ff5f54161561027c576100c37fffffffffffffffffffffffffffffffffffffffffffffffffffffffffffffff005f54165f55565b6040517ff21340e40000000000000000000000000000000000000000000000000000000081526004803590820152602480359082015260209073ffffffffffffffffffffffffffffffffffffffff9082816044815f7f000000000000000000000000000000000000000000000000000000000000000087165af1801561024a57610154915f9161024f575b506105d9565b6040517f70a08231000000000000000000000000000000000000000000000000000000008152306004820152907f00000000000000000000000000000000000000000000000000000000000000009083908390602490829085165afa91821561024a576101eb935f9361021b575b50507f00000000000000000000000000000000000000000000000000000000000000009061086c565b61021960017fffffffffffffffffffffffffffffffffffffffffffffffffffffffffffffff005f5416175f55565b005b61023b929350803d10610243575b6102338183610575565b8101906105e0565b9083806101c2565b503d610229565b6105ce565b61026f9150843d8611610275575b6102678183610575565b8101906105b6565b8461014e565b503d61025d565b5f80fd5b3461027c575f7ffffffffffffffffffffffffffffffffffffffffffffffffffffffffffffffffc36011261027c5773ffffffffffffffffffffffffffffffffffffffff7f00000000000000000000000000000000000000000000000000000000000000001660805260206080f35b5f5b8381106102ff5750505f910152565b81810151838201526020016102f0565b602080820190808352835180925260408301928160408460051b8301019501935f915b8483106103425750505050505090565b909192939495848080837fffffffffffffffffffffffffffffffffffffffffffffffffffffffffffffffc086600196030187527fffffffffffffffffffffffffffffffffffffffffffffffffffffffffffffffe0601f8c516103af815180928187528780880191016102ee565b011601019801930193019194939290610332565b3461027c5760207ffffffffffffffffffffffffffffffffffffffffffffffffffffffffffffffffc36011261027c5767ffffffffffffffff60043581811161027c573660238201121561027c57806004013591821161027c573660248360051b8301011161027c5761044791602461043b9201610785565b6040519182918261030f565b0390f35b3461027c575f7ffffffffffffffffffffffffffffffffffffffffffffffffffffffffffffffffc36011261027c57602060405173ffffffffffffffffffffffffffffffffffffffff7f0000000000000000000000000000000000000000000000000000000000000000168152f35b3461027c575f7ffffffffffffffffffffffffffffffffffffffffffffffffffffffffffffffffc36011261027c57602060405173ffffffffffffffffffffffffffffffffffffffff7f0000000000000000000000000000000000000000000000000000000000000000168152f35b7f4e487b71000000000000000000000000000000000000000000000000000000005f52604160045260245ffd5b6040810190811067ffffffffffffffff82111761057057604052565b610527565b90601f7fffffffffffffffffffffffffffffffffffffffffffffffffffffffffffffffe0910116810190811067ffffffffffffffff82111761057057604052565b9081602091031261027c5751801515810361027c5790565b6040513d5f823e3d90fd5b1561027c57565b9081602091031261027c575190565b67ffffffffffffffff81116105705760051b60200190565b7f4e487b71000000000000000000000000000000000000000000000000000000005f52603260045260245ffd5b91908110156106945760051b810135907fffffffffffffffffffffffffffffffffffffffffffffffffffffffffffffffe18136030182121561027c57019081359167ffffffffffffffff831161027c57602001823603811361027c579190565b610607565b908092918237015f815290565b67ffffffffffffffff811161057057601f017fffffffffffffffffffffffffffffffffffffffffffffffffffffffffffffffe01660200190565b3d1561070a573d906106f1826106a6565b916106ff6040519384610575565b82523d5f602084013e565b606090565b60208183031261027c5780519067ffffffffffffffff821161027c570181601f8201121561027c578051610742816106a6565b926107506040519485610575565b8184526020828401011161027c5761076e91602080850191016102ee565b90565b80518210156106945760209160051b010190565b919091610791836105ef565b9060406107a16040519384610575565b8483527fffffffffffffffffffffffffffffffffffffffffffffffffffffffffffffffe06107ce866105ef565b015f5b81811061085b57505082945f5b8181106107ec575050505050565b5f806107f9838588610634565b90610808875180938193610699565b0390305af46108156106e0565b901561083b57906001916108298288610771565b526108348187610771565b50016107de565b604481511061027c5780600461027c92015160248091830101910161070f565b8060606020809388010152016107d1565b9190916040519260208401927fa9059cbb00000000000000000000000000000000000000000000000000000000845273ffffffffffffffffffffffffffffffffffffffff8092166024860152604485015260448452608084019284841067ffffffffffffffff8511176105705761092e9460205f949385948760405216956108f381610554565b527f5361666545524332303a206c6f772d6c6576656c2063616c6c206661696c656460a0820152519082855af16109286106e0565b9161095e565b8051908115918215610944575b50501561027c57565b61095792506020809183010191016105b6565b5f8061093b565b90156109785781511561096f575090565b3b1561027c5790565b50805190811561027c57602001fdfea26469706673582212208602369c5245ef7920a55937d6b0e6d681493b1f712ed2cd18012ffe2a7182b364736f6c63430008170033",
  "devdoc": {
    "details": "Blast USDB withdrawals are a two step process where the L2 to L1 withdrawal must first be finalized via the typical OP Stack mechanism, and then a claim from the withdrawal's *recipient* must be made against a USDBYieldManager contract. This means that the Blast_SpokePool must set its recipient to this contract's address and then an EOA can call this contract to retrieve the DAI.",
    "kind": "dev",
    "methods": {
      "constructor": {
        "params": {
          "_dai": "DAI token to be retrieved.",
          "_hubPool": "Where to send DAI to.",
          "_usdYieldManager": "USDCYieldManager contract on Ethereum."
        }
      },
      "retrieve(uint256,uint256)": {
        "params": {
          "_hintId": "Checkpoint hint ID. Can be found by querying USDYieldManager.findCheckpointHint.",
          "_requestId": "L2 withdrawal request ID. Emitted in L1 WithdrawalRequested event when the L2 to L1 withdrawal is first \"finalized\" but still awaiting the recipient to claim the DAI."
        }
      }
    },
    "version": 1
  },
  "userdoc": {
    "kind": "user",
    "methods": {
      "constructor": {
        "notice": "Constructs USDB Retriever"
      },
      "retrieve(uint256,uint256)": {
        "notice": "Calls USDCYieldManager contract to release DAI and send to the hubPool. Required to use this function to retrieve DAI since only the L2 withdrawal recipient can make this call.This can revert if the claim is not ready yet. It takes ~12 hours for a Blast admin to make the DAI available for retrieval following withdrawal finalization."
      }
    },
    "notice": "Contract deployed on Ethereum to facilitate DAI transfers from Blast to the HubPool.",
    "version": 1
  },
  "storageLayout": {
    "storage": [
      {
        "astId": 1815,
        "contract": "contracts/Blast_DaiRetriever.sol:Blast_DaiRetriever",
        "label": "_notEntered",
        "offset": 0,
        "slot": "0",
        "type": "t_bool"
      }
    ],
    "types": {
      "t_bool": {
        "encoding": "inplace",
        "label": "bool",
        "numberOfBytes": "1"
      }
    }
  }
}