{
  "address": "0xE5Dea263511F5caC27b15cBd58Ff103F4Ce90957",
  "abi": [
    {
      "inputs": [
        {
          "internalType": "address",
          "name": "_rescueAddress",
          "type": "address"
        },
        {
          "internalType": "contract USDYieldManager",
          "name": "_usdYieldManager",
          "type": "address"
        }
      ],
      "stateMutability": "nonpayable",
      "type": "constructor"
    },
    {
      "anonymous": false,
      "inputs": [
        {
          "indexed": false,
          "internalType": "address",
          "name": "target",
          "type": "address"
        },
        {
          "indexed": false,
          "internalType": "bytes",
          "name": "message",
          "type": "bytes"
        }
      ],
      "name": "MessageRelayed",
      "type": "event"
    },
    {
      "anonymous": false,
      "inputs": [
        {
          "indexed": false,
          "internalType": "address",
          "name": "l1Token",
          "type": "address"
        },
        {
          "indexed": false,
          "internalType": "address",
          "name": "l2Token",
          "type": "address"
        },
        {
          "indexed": false,
          "internalType": "uint256",
          "name": "amount",
          "type": "uint256"
        },
        {
          "indexed": false,
          "internalType": "address",
          "name": "to",
          "type": "address"
        }
      ],
      "name": "TokensRelayed",
      "type": "event"
    },
    {
      "inputs": [
        {
          "internalType": "address",
          "name": "",
          "type": "address"
        },
        {
          "internalType": "bytes",
          "name": "message",
          "type": "bytes"
        }
      ],
      "name": "relayMessage",
      "outputs": [],
      "stateMutability": "payable",
      "type": "function"
    },
    {
      "inputs": [
        {
          "internalType": "address",
          "name": "",
          "type": "address"
        },
        {
          "internalType": "address",
          "name": "",
          "type": "address"
        },
        {
          "internalType": "uint256",
          "name": "",
          "type": "uint256"
        },
        {
          "internalType": "address",
          "name": "",
          "type": "address"
        }
      ],
      "name": "relayTokens",
      "outputs": [],
      "stateMutability": "payable",
      "type": "function"
    },
    {
      "inputs": [],
      "name": "rescueAddress",
      "outputs": [
        {
          "internalType": "address",
          "name": "",
          "type": "address"
        }
      ],
      "stateMutability": "view",
      "type": "function"
    },
    {
      "inputs": [],
      "name": "usdYieldManager",
      "outputs": [
        {
          "internalType": "contract USDYieldManager",
          "name": "",
          "type": "address"
        }
      ],
      "stateMutability": "view",
      "type": "function"
    }
  ],
  "transactionHash": "0x78712531b97413e112d36f00bcd75e543e0df143b5ca51ec6051d1440db93d63",
  "args": [
    "0xc186fA914353c44b2E33eBE05f21846F1048bEda",
    "0xa230285d5683C74935aD14c446e137c8c8828438"
  ],
  "numDeployments": 1,
  "solcInputHash": "920e48615e6861bea91066905c231277",
  "bytecode": "0x60c03461008c57601f61048338819003918201601f19168301916001600160401b0383118484101761009057808492604094855283398101031261008c5780516001600160a01b0391828216820361008c5760200151918216820361008c5760805260a0526040516103de90816100a58239608051816102b4015260a05181818161015d01526103200152f35b5f80fd5b634e487b7160e01b5f52604160045260245ffdfe60806040908082526004361015610014575f80fd5b5f3560e01c90816326a2ebc9146102d857508063525550ea1461026a57806352c8c75c146102085763e6eb8ade1461004a575f80fd5b807ffffffffffffffffffffffffffffffffffffffffffffffffffffffffffffffffc3601126101975761007b610344565b5067ffffffffffffffff60243581811161019757366023820112156101975780600401359182116101db576020908351926100dd837fffffffffffffffffffffffffffffffffffffffffffffffffffffffffffffffe0601f8401160185610367565b80845282840191366024838301011161019757815f9260248693018537850101528383805181010312610197578390519201518351927ff21340e40000000000000000000000000000000000000000000000000000000084526004840152602483015280826044815f73ffffffffffffffffffffffffffffffffffffffff7f0000000000000000000000000000000000000000000000000000000000000000165af19283156101d257505f9261019b575b50501561019757005b5f80fd5b90809250813d83116101cb575b6101b28183610367565b8101031261019757518015158103610197575f8061018e565b503d6101a8565b513d5f823e3d90fd5b7f4e487b71000000000000000000000000000000000000000000000000000000005f52604160045260245ffd5b60807ffffffffffffffffffffffffffffffffffffffffffffffffffffffffffffffffc3601126101975761023a610344565b5073ffffffffffffffffffffffffffffffffffffffff602435818116036101975760643590811603610197575f80fd5b5034610197575f7ffffffffffffffffffffffffffffffffffffffffffffffffffffffffffffffffc360112610197576020905173ffffffffffffffffffffffffffffffffffffffff7f0000000000000000000000000000000000000000000000000000000000000000168152f35b34610197575f7ffffffffffffffffffffffffffffffffffffffffffffffffffffffffffffffffc3601126101975760209073ffffffffffffffffffffffffffffffffffffffff7f0000000000000000000000000000000000000000000000000000000000000000168152f35b6004359073ffffffffffffffffffffffffffffffffffffffff8216820361019757565b90601f7fffffffffffffffffffffffffffffffffffffffffffffffffffffffffffffffe0910116810190811067ffffffffffffffff8211176101db5760405256fea2646970667358221220595ea9e81245f31c7251004307ecf049d25b050615bf1784f07b0a3efa3f479164736f6c63430008170033",
  "devdoc": {
    "kind": "dev",
    "methods": {
      "constructor": {
        "params": {
          "_rescueAddress": "Rescue address to send funds to."
        }
      },
      "relayMessage(address,bytes)": {
        "params": {
          "message": "The encoded address of the ERC20 to send to the rescue addres."
        }
      }
    },
    "version": 1
  },
  "userdoc": {
    "kind": "user",
    "methods": {
      "constructor": {
        "notice": "Constructs new Adapter."
      },
      "relayMessage(address,bytes)": {
        "notice": "Rescues the tokens from the calling contract."
      },
      "relayTokens(address,address,uint256,address)": {
        "notice": "Should never be called."
      }
    },
    "notice": "This adapter is built to to retrieve Blast USDB from the USDBYieldManager contract on Ethereum that was sent to the HubPool as the `recipient`. These funds should ideally be sent to the BlastRetriever address on Ethereum. This contract can be used to retrieve these funds.",
    "version": 1
  },
  "storageLayout": {
    "storage": [],
    "types": null
  }
}