{
  "address": "0x33B0Ec794c15D6Cc705818E70d4CaCe7bCfB5Af3",
  "abi": [
    {
      "inputs": [
        {
          "internalType": "contract WETH9",
          "name": "_l1Weth",
          "type": "address"
        },
        {
          "internalType": "address",
          "name": "_crossDomainMessenger",
          "type": "address"
        },
        {
          "internalType": "contract IL1StandardBridge",
          "name": "_l1StandardBridge",
          "type": "address"
        }
      ],
      "stateMutability": "nonpayable",
      "type": "constructor"
    },
    {
      "anonymous": false,
      "inputs": [
        {
          "indexed": false,
          "internalType": "address",
          "name": "target",
          "type": "address"
        },
        {
          "indexed": false,
          "internalType": "bytes",
          "name": "message",
          "type": "bytes"
        }
      ],
      "name": "MessageRelayed",
      "type": "event"
    },
    {
      "anonymous": false,
      "inputs": [
        {
          "indexed": false,
          "internalType": "address",
          "name": "l1Token",
          "type": "address"
        },
        {
          "indexed": false,
          "internalType": "address",
          "name": "l2Token",
          "type": "address"
        },
        {
          "indexed": false,
          "internalType": "uint256",
          "name": "amount",
          "type": "uint256"
        },
        {
          "indexed": false,
          "internalType": "address",
          "name": "to",
          "type": "address"
        }
      ],
      "name": "TokensRelayed",
      "type": "event"
    },
    {
      "inputs": [],
      "name": "l1StandardBridge",
      "outputs": [
        {
          "internalType": "contract IL1StandardBridge",
          "name": "",
          "type": "address"
        }
      ],
      "stateMutability": "view",
      "type": "function"
    },
    {
      "inputs": [],
      "name": "l1Weth",
      "outputs": [
        {
          "internalType": "contract WETH9",
          "name": "",
          "type": "address"
        }
      ],
      "stateMutability": "view",
      "type": "function"
    },
    {
      "inputs": [],
      "name": "l2GasLimit",
      "outputs": [
        {
          "internalType": "uint32",
          "name": "",
          "type": "uint32"
        }
      ],
      "stateMutability": "view",
      "type": "function"
    },
    {
      "inputs": [],
      "name": "messenger",
      "outputs": [
        {
          "internalType": "address",
          "name": "",
          "type": "address"
        }
      ],
      "stateMutability": "view",
      "type": "function"
    },
    {
      "inputs": [
        {
          "internalType": "address",
          "name": "target",
          "type": "address"
        },
        {
          "internalType": "bytes",
          "name": "message",
          "type": "bytes"
        }
      ],
      "name": "relayMessage",
      "outputs": [],
      "stateMutability": "payable",
      "type": "function"
    },
    {
      "inputs": [
        {
          "internalType": "address",
          "name": "l1Token",
          "type": "address"
        },
        {
          "internalType": "address",
          "name": "l2Token",
          "type": "address"
        },
        {
          "internalType": "uint256",
          "name": "amount",
          "type": "uint256"
        },
        {
          "internalType": "address",
          "name": "to",
          "type": "address"
        }
      ],
      "name": "relayTokens",
      "outputs": [],
      "stateMutability": "payable",
      "type": "function"
    }
  ],
  "transactionHash": "0xd4d09c56d9d160866cd9b6281c4c05e653fc8e698ca54a3f832596786ca87e92",
  "args": [
    "0xc02aaa39b223fe8d0a0e5c4f27ead9083c756cc2",
    "0x6D4528d192dB72E282265D6092F4B872f9Dff69e",
    "0xdc1664458d2f0B6090bEa60A8793A4E66c2F1c00"
  ],
  "numDeployments": 1,
  "solcInputHash": "80d9895099d6448454133a653020a62d",
  "bytecode": "0x610100604052621e848060a05234801561001857600080fd5b50604051610e93380380610e938339810160408190526100379161006c565b6001600160a01b0391821660805291811660c0521660e0526100b9565b6001600160a01b038116811461006957600080fd5b50565b60008060006060848603121561008157600080fd5b835161008c81610054565b602085015190935061009d81610054565b60408501519092506100ae81610054565b809150509250925092565b60805160a05160c05160e051610d6b61012860003960008181607c01528181610311015261037801526000818160da015281816101a30152610223015260008181610157015281816102dc0152818161041901526104f701526000818161010e01526106d50152610d6b6000f3fe6080604052600436106100655760003560e01c806352c8c75c1161004357806352c8c75c14610130578063cf6e65b714610145578063e6eb8ade1461018e57600080fd5b8063078f29cf1461006a578063146bf4b1146100c85780633cb747bf146100fc575b600080fd5b34801561007657600080fd5b5061009e7f000000000000000000000000000000000000000000000000000000000000000081565b60405173ffffffffffffffffffffffffffffffffffffffff90911681526020015b60405180910390f35b3480156100d457600080fd5b5061009e7f000000000000000000000000000000000000000000000000000000000000000081565b34801561010857600080fd5b5061009e7f000000000000000000000000000000000000000000000000000000000000000081565b61014361013e366004610a89565b6101a1565b005b34801561015157600080fd5b506101797f000000000000000000000000000000000000000000000000000000000000000081565b60405163ffffffff90911681526020016100bf565b61014361019c366004610ad6565b6104f1565b7f000000000000000000000000000000000000000000000000000000000000000073ffffffffffffffffffffffffffffffffffffffff168473ffffffffffffffffffffffffffffffffffffffff1603610376576040517f2e1a7d4d000000000000000000000000000000000000000000000000000000008152600481018390527f000000000000000000000000000000000000000000000000000000000000000073ffffffffffffffffffffffffffffffffffffffff1690632e1a7d4d90602401600060405180830381600087803b15801561027c57600080fd5b505af1158015610290573d6000803e3d6000fd5b50506040517f9a2ac6d500000000000000000000000000000000000000000000000000000000815273ffffffffffffffffffffffffffffffffffffffff848116600483015263ffffffff7f000000000000000000000000000000000000000000000000000000000000000016602483015260606044830152600060648301527f0000000000000000000000000000000000000000000000000000000000000000169250639a2ac6d5915084906084016000604051808303818588803b15801561035857600080fd5b505af115801561036c573d6000803e3d6000fd5b505050505061048c565b7f00000000000000000000000000000000000000000000000000000000000000006103b873ffffffffffffffffffffffffffffffffffffffff8616828561055d565b6040517f838b252000000000000000000000000000000000000000000000000000000000815273ffffffffffffffffffffffffffffffffffffffff8681166004830152858116602483015283811660448301526064820185905263ffffffff7f000000000000000000000000000000000000000000000000000000000000000016608483015260c060a4830152600060c483015282169063838b25209060e401600060405180830381600087803b15801561047257600080fd5b505af1158015610486573d6000803e3d6000fd5b50505050505b6040805173ffffffffffffffffffffffffffffffffffffffff868116825285811660208301528183018590528316606082015290517fd7e09655439c3932e55857df3220186e5a7f0980825f20691c2b35d941dee75b9181900360800190a150505050565b61051d837f00000000000000000000000000000000000000000000000000000000000000008484610698565b7f9e6c52944e331ba6270e7fe4cea2a4086bae8f7a27e1cdba07f416806f5d0ac483838360405161055093929190610ba2565b60405180910390a1505050565b6040517fdd62ed3e00000000000000000000000000000000000000000000000000000000815230600482015273ffffffffffffffffffffffffffffffffffffffff8381166024830152600091839186169063dd62ed3e90604401602060405180830381865afa1580156105d4573d6000803e3d6000fd5b505050506040513d601f19601f820116820180604052508101906105f89190610bdb565b6106029190610bf4565b6040805173ffffffffffffffffffffffffffffffffffffffff8616602482015260448082018490528251808303909101815260649091019091526020810180517bffffffffffffffffffffffffffffffffffffffffffffffffffffffff167f095ea7b300000000000000000000000000000000000000000000000000000000179052909150610692908590610748565b50505050565b6040517f3dbb202b00000000000000000000000000000000000000000000000000000000815273ffffffffffffffffffffffffffffffffffffffff7f00000000000000000000000000000000000000000000000000000000000000001690633dbb202b90610710908790869086908990600401610c33565b600060405180830381600087803b15801561072a57600080fd5b505af115801561073e573d6000803e3d6000fd5b5050505050505050565b60006107aa826040518060400160405280602081526020017f5361666545524332303a206c6f772d6c6576656c2063616c6c206661696c65648152508573ffffffffffffffffffffffffffffffffffffffff1661085e9092919063ffffffff16565b80519091501561085957808060200190518101906107c89190610c7a565b610859576040517f08c379a000000000000000000000000000000000000000000000000000000000815260206004820152602a60248201527f5361666545524332303a204552433230206f7065726174696f6e20646964206e60448201527f6f7420737563636565640000000000000000000000000000000000000000000060648201526084015b60405180910390fd5b505050565b606061086d8484600085610877565b90505b9392505050565b606082471015610909576040517f08c379a000000000000000000000000000000000000000000000000000000000815260206004820152602660248201527f416464726573733a20696e73756666696369656e742062616c616e636520666f60448201527f722063616c6c00000000000000000000000000000000000000000000000000006064820152608401610850565b73ffffffffffffffffffffffffffffffffffffffff85163b610987576040517f08c379a000000000000000000000000000000000000000000000000000000000815260206004820152601d60248201527f416464726573733a2063616c6c20746f206e6f6e2d636f6e74726163740000006044820152606401610850565b6000808673ffffffffffffffffffffffffffffffffffffffff1685876040516109b09190610cc8565b60006040518083038185875af1925050503d80600081146109ed576040519150601f19603f3d011682016040523d82523d6000602084013e6109f2565b606091505b5091509150610a02828286610a0d565b979650505050505050565b60608315610a1c575081610870565b825115610a2c5782518084602001fd5b816040517f08c379a00000000000000000000000000000000000000000000000000000000081526004016108509190610ce4565b803573ffffffffffffffffffffffffffffffffffffffff81168114610a8457600080fd5b919050565b60008060008060808587031215610a9f57600080fd5b610aa885610a60565b9350610ab660208601610a60565b925060408501359150610acb60608601610a60565b905092959194509250565b600080600060408486031215610aeb57600080fd5b610af484610a60565b9250602084013567ffffffffffffffff80821115610b1157600080fd5b818601915086601f830112610b2557600080fd5b813581811115610b3457600080fd5b876020828501011115610b4657600080fd5b6020830194508093505050509250925092565b8183528181602085013750600060208284010152600060207fffffffffffffffffffffffffffffffffffffffffffffffffffffffffffffffe0601f840116840101905092915050565b73ffffffffffffffffffffffffffffffffffffffff84168152604060208201526000610bd2604083018486610b59565b95945050505050565b600060208284031215610bed57600080fd5b5051919050565b60008219821115610c2e577f4e487b7100000000000000000000000000000000000000000000000000000000600052601160045260246000fd5b500190565b73ffffffffffffffffffffffffffffffffffffffff85168152606060208201526000610c63606083018587610b59565b905063ffffffff8316604083015295945050505050565b600060208284031215610c8c57600080fd5b8151801515811461087057600080fd5b60005b83811015610cb7578181015183820152602001610c9f565b838111156106925750506000910152565b60008251610cda818460208701610c9c565b9190910192915050565b6020815260008251806020840152610d03816040850160208701610c9c565b601f017fffffffffffffffffffffffffffffffffffffffffffffffffffffffffffffffe016919091016040019291505056fea26469706673582212207f9bba09fc32ab805ba4eedd30279030757c69a4a4b12e51aea2f961db2c1e5864736f6c634300080d0033",
  "devdoc": {
    "details": "Public functions calling external contracts do not guard against reentrancy because they are expected to be called via delegatecall, which will execute this contract's logic within the context of the originating contract. For example, the HubPool will delegatecall these functions, therefore its only necessary that the HubPool's methods that call this contract's logic guard against reentrancy.",
    "kind": "dev",
    "methods": {
      "constructor": {
        "params": {
          "_crossDomainMessenger": "XDomainMessenger Boba system contract.",
          "_l1StandardBridge": "Standard bridge contract.",
          "_l1Weth": "WETH address on L1."
        }
      },
      "relayMessage(address,bytes)": {
        "params": {
          "message": "Data to send to target.",
          "target": "Contract on Boba that will receive message."
        }
      },
      "relayTokens(address,address,uint256,address)": {
        "params": {
          "amount": "Amount of L1 tokens to deposit and L2 tokens to receive.",
          "l1Token": "L1 token to deposit.",
          "l2Token": "L2 token to receive.",
          "to": "Bridge recipient."
        }
      }
    },
    "version": 1
  },
  "userdoc": {
    "kind": "user",
    "methods": {
      "constructor": {
        "notice": "Constructs new Adapter."
      },
      "relayMessage(address,bytes)": {
        "notice": "Send cross-chain message to target on Boba."
      },
      "relayTokens(address,address,uint256,address)": {
        "notice": "Bridge tokens to Boba."
      }
    },
    "notice": "Contract containing logic to send messages from L1 to Boba. This is a modified version of the Optimism adapter that excludes the custom bridging logic.",
    "version": 1
  },
  "storageLayout": {
    "storage": [],
    "types": null
  }
}