{
  "address": "0x69Cf9315633178Ce43C867167712508B878921F4",
  "abi": [
    {
      "inputs": [
        {
          "internalType": "contract WETH9Interface",
          "name": "_l1Weth",
          "type": "address"
        },
        {
          "internalType": "address",
          "name": "_crossDomainMessenger",
          "type": "address"
        },
        {
          "internalType": "contract IL1StandardBridge",
          "name": "_l1StandardBridge",
          "type": "address"
        },
        {
          "internalType": "contract IERC20",
          "name": "_l1Usdc",
          "type": "address"
        },
        {
          "internalType": "contract ITokenMessenger",
          "name": "_cctpTokenMessenger",
          "type": "address"
        }
      ],
      "stateMutability": "nonpayable",
      "type": "constructor"
    },
    {
      "anonymous": false,
      "inputs": [
        {
          "indexed": false,
          "internalType": "address",
          "name": "target",
          "type": "address"
        },
        {
          "indexed": false,
          "internalType": "bytes",
          "name": "message",
          "type": "bytes"
        }
      ],
      "name": "MessageRelayed",
      "type": "event"
    },
    {
      "anonymous": false,
      "inputs": [
        {
          "indexed": false,
          "internalType": "address",
          "name": "l1Token",
          "type": "address"
        },
        {
          "indexed": false,
          "internalType": "address",
          "name": "l2Token",
          "type": "address"
        },
        {
          "indexed": false,
          "internalType": "uint256",
          "name": "amount",
          "type": "uint256"
        },
        {
          "indexed": false,
          "internalType": "address",
          "name": "to",
          "type": "address"
        }
      ],
      "name": "TokensRelayed",
      "type": "event"
    },
    {
      "inputs": [],
      "name": "L1_STANDARD_BRIDGE",
      "outputs": [
        {
          "internalType": "contract IL1StandardBridge",
          "name": "",
          "type": "address"
        }
      ],
      "stateMutability": "view",
      "type": "function"
    },
    {
      "inputs": [],
      "name": "L1_WETH",
      "outputs": [
        {
          "internalType": "contract WETH9Interface",
          "name": "",
          "type": "address"
        }
      ],
      "stateMutability": "view",
      "type": "function"
    },
    {
      "inputs": [],
      "name": "L2_GAS_LIMIT",
      "outputs": [
        {
          "internalType": "uint32",
          "name": "",
          "type": "uint32"
        }
      ],
      "stateMutability": "view",
      "type": "function"
    },
    {
      "inputs": [],
      "name": "MESSENGER",
      "outputs": [
        {
          "internalType": "address",
          "name": "",
          "type": "address"
        }
      ],
      "stateMutability": "view",
      "type": "function"
    },
    {
      "inputs": [],
      "name": "cctpTokenMessenger",
      "outputs": [
        {
          "internalType": "contract ITokenMessenger",
          "name": "",
          "type": "address"
        }
      ],
      "stateMutability": "view",
      "type": "function"
    },
    {
      "inputs": [],
      "name": "recipientCircleDomainId",
      "outputs": [
        {
          "internalType": "uint32",
          "name": "",
          "type": "uint32"
        }
      ],
      "stateMutability": "view",
      "type": "function"
    },
    {
      "inputs": [
        {
          "internalType": "address",
          "name": "target",
          "type": "address"
        },
        {
          "internalType": "bytes",
          "name": "message",
          "type": "bytes"
        }
      ],
      "name": "relayMessage",
      "outputs": [],
      "stateMutability": "payable",
      "type": "function"
    },
    {
      "inputs": [
        {
          "internalType": "address",
          "name": "l1Token",
          "type": "address"
        },
        {
          "internalType": "address",
          "name": "l2Token",
          "type": "address"
        },
        {
          "internalType": "uint256",
          "name": "amount",
          "type": "uint256"
        },
        {
          "internalType": "address",
          "name": "to",
          "type": "address"
        }
      ],
      "name": "relayTokens",
      "outputs": [],
      "stateMutability": "payable",
      "type": "function"
    },
    {
      "inputs": [],
      "name": "usdcToken",
      "outputs": [
        {
          "internalType": "contract IERC20",
          "name": "",
          "type": "address"
        }
      ],
      "stateMutability": "view",
      "type": "function"
    }
  ],
  "transactionHash": "0xe19099c6586c911d85ac0ef32611d52f0033f73fd4ebb6d84538e5e19d00e765",
  "args": [
    "0xC02aaA39b223FE8D0A0e5C4F27eAD9083C756Cc2",
    "0x9A3D64E386C18Cb1d6d5179a9596A4B5736e98A6",
    "0x81014F44b0a345033bB2b3B21C7a1A308B35fEeA",
    "0xA0b86991c6218b36c1d19D4a2e9Eb0cE3606eB48",
    "0xBd3fa81B58Ba92a82136038B25aDec7066af3155"
  ],
  "numDeployments": 1,
  "solcInputHash": "c2d8c84441606752375fd5e878dde076",
  "bytecode": "0x6101403461013657601f61121838819003918201601f19168301916001600160401b0383118484101761013a5780849260a094604052833981010312610136578051906001600160a01b038083168303610136576020820151918183168303610136576040810151928284168403610136576060820151918383168303610136576080015192831683036101365760805260c05260e052600660a052610100918252610120908152604051906110c9928361014f843960805183818161010901526102be015260a05183818161031d0152610751015260c05183818161061a01528181610b750152610cd6015260e05183818161024f015281816105eb01528181610656015281816106bf01526108570152518281816104090152610c6a0152518181816104ab015281816109c60152610bfc0152f35b5f80fd5b634e487b7160e01b5f52604160045260245ffdfe6080806040526004361015610012575f80fd5b5f905f3560e01c90816311eac85514610c8e575080631efd482a14610c2057806335a2db6a14610bb257806352c8c75c1461037d5780635e743ef7146103415780636e400983146102e2578063927ede2d146102735780639748cf7c146102045763e6eb8ade14610081575f80fd5b60407ffffffffffffffffffffffffffffffffffffffffffffffffffffffffffffffffc360112610201576100b3610cfa565b6024359067ffffffffffffffff908183116101ee57366023840112156101ee5782600401359182116101ee57602483019260248336920101116101ee578373ffffffffffffffffffffffffffffffffffffffff807f00000000000000000000000000000000000000000000000000000000000000001692833b156101fd5782906040519283917f3dbb202b00000000000000000000000000000000000000000000000000000000835216948560048301526060602483015281838161017c606482018b8d610d9f565b62030d40604483015203925af180156101f2576101da575b50506101d47f9e6c52944e331ba6270e7fe4cea2a4086bae8f7a27e1cdba07f416806f5d0ac4936040519384938452604060208501526040840191610d9f565b0390a180f35b6101e390610d1d565b6101ee57835f610194565b8380fd5b6040513d84823e3d90fd5b8280fd5b80fd5b503461020157807ffffffffffffffffffffffffffffffffffffffffffffffffffffffffffffffffc36011261020157602060405173ffffffffffffffffffffffffffffffffffffffff7f0000000000000000000000000000000000000000000000000000000000000000168152f35b503461020157807ffffffffffffffffffffffffffffffffffffffffffffffffffffffffffffffffc36011261020157602060405173ffffffffffffffffffffffffffffffffffffffff7f0000000000000000000000000000000000000000000000000000000000000000168152f35b503461020157807ffffffffffffffffffffffffffffffffffffffffffffffffffffffffffffffffc36011261020157602060405163ffffffff7f0000000000000000000000000000000000000000000000000000000000000000168152f35b503461020157807ffffffffffffffffffffffffffffffffffffffffffffffffffffffffffffffffc36011261020157602060405162030d408152f35b5060807ffffffffffffffffffffffffffffffffffffffffffffffffffffffffffffffffc360112610944576103b0610cfa565b60243573ffffffffffffffffffffffffffffffffffffffff81168103610944576064359073ffffffffffffffffffffffffffffffffffffffff82168203610944578373ffffffffffffffffffffffffffffffffffffffff7f0000000000000000000000000000000000000000000000000000000000000000168073ffffffffffffffffffffffffffffffffffffffff8616145f146105d257803b156105ba578180916024604051809481937f2e1a7d4d00000000000000000000000000000000000000000000000000000000835260443560048401525af180156101f2576105be575b5073ffffffffffffffffffffffffffffffffffffffff7f000000000000000000000000000000000000000000000000000000000000000016803b156105ba5781608491604051928380927f9a2ac6d500000000000000000000000000000000000000000000000000000000825273ffffffffffffffffffffffffffffffffffffffff8916600483015262030d40602483015260606044830152846064830152604435905af180156101f2576105a2575b50509173ffffffffffffffffffffffffffffffffffffffff608092817fd7e09655439c3932e55857df3220186e5a7f0980825f20691c2b35d941dee75b955b81604051951685521660208401526044356040840152166060820152a180f35b6105ae90949294610d1d565b6101ee5791835f610543565b5080fd5b6105c790610d1d565b6101ee57835f610493565b505073ffffffffffffffffffffffffffffffffffffffff7f000000000000000000000000000000000000000000000000000000000000000016151580610b5d575b156109af577f000000000000000000000000000000000000000000000000000000000000000061067c60443573ffffffffffffffffffffffffffffffffffffffff7f00000000000000000000000000000000000000000000000000000000000000001683610ddd565b6040517fcb75c11c00000000000000000000000000000000000000000000000000000000815260208160048173ffffffffffffffffffffffffffffffffffffffff7f0000000000000000000000000000000000000000000000000000000000000000165afa90811561095057869161095b575b50602073ffffffffffffffffffffffffffffffffffffffff916024604051809481937fa56ec6320000000000000000000000000000000000000000000000000000000083528188166004840152165afa90811561095057869161091a575b50907f000000000000000000000000000000000000000000000000000000000000000063ffffffff1690604435805b6107c557505050509173ffffffffffffffffffffffffffffffffffffffff608092817fd7e09655439c3932e55857df3220186e5a7f0980825f20691c2b35d941dee75b95610582565b8381111561091457835b6040517f6fd3504e00000000000000000000000000000000000000000000000000000000815281600482015284602482015273ffffffffffffffffffffffffffffffffffffffff8816604482015273ffffffffffffffffffffffffffffffffffffffff841660648201526020816084818d73ffffffffffffffffffffffffffffffffffffffff7f0000000000000000000000000000000000000000000000000000000000000000165af18015610909576108c1575b508103908111610894578061077c565b6024887f4e487b710000000000000000000000000000000000000000000000000000000081526011600452fd5b6020813d602011610901575b816108da60209383610d5e565b810103126108fd575167ffffffffffffffff8116036108f9575f610884565b8880fd5b8980fd5b3d91506108cd565b6040513d8c823e3d90fd5b806107cf565b90506020813d602011610948575b8161093560209383610d5e565b8101031261094457515f61074d565b5f80fd5b3d9150610928565b6040513d88823e3d90fd5b90506020813d6020116109a7575b8161097660209383610d5e565b810103126109a3575173ffffffffffffffffffffffffffffffffffffffff811681036109a35760206106ef565b8580fd5b3d9150610969565b73ffffffffffffffffffffffffffffffffffffffff7f000000000000000000000000000000000000000000000000000000000000000016610a096044358273ffffffffffffffffffffffffffffffffffffffff8716610ddd565b803b15610944575f809160e4604051809481937f838b252000000000000000000000000000000000000000000000000000000000835273ffffffffffffffffffffffffffffffffffffffff8a16600484015273ffffffffffffffffffffffffffffffffffffffff8816602484015273ffffffffffffffffffffffffffffffffffffffff89166044840152604435606484015262030d40608484015260c060a48401528160c48401525af18015610b5257610b00575b509173ffffffffffffffffffffffffffffffffffffffff608092817fd7e09655439c3932e55857df3220186e5a7f0980825f20691c2b35d941dee75b95610582565b7fd7e09655439c3932e55857df3220186e5a7f0980825f20691c2b35d941dee75b93919450608092610b4673ffffffffffffffffffffffffffffffffffffffff92610d1d565b5f959294509250610abe565b6040513d5f823e3d90fd5b5073ffffffffffffffffffffffffffffffffffffffff7f00000000000000000000000000000000000000000000000000000000000000001673ffffffffffffffffffffffffffffffffffffffff841614610613565b34610944575f7ffffffffffffffffffffffffffffffffffffffffffffffffffffffffffffffffc36011261094457602060405173ffffffffffffffffffffffffffffffffffffffff7f0000000000000000000000000000000000000000000000000000000000000000168152f35b34610944575f7ffffffffffffffffffffffffffffffffffffffffffffffffffffffffffffffffc36011261094457602060405173ffffffffffffffffffffffffffffffffffffffff7f0000000000000000000000000000000000000000000000000000000000000000168152f35b34610944575f7ffffffffffffffffffffffffffffffffffffffffffffffffffffffffffffffffc3601126109445760209073ffffffffffffffffffffffffffffffffffffffff7f0000000000000000000000000000000000000000000000000000000000000000168152f35b6004359073ffffffffffffffffffffffffffffffffffffffff8216820361094457565b67ffffffffffffffff8111610d3157604052565b7f4e487b71000000000000000000000000000000000000000000000000000000005f52604160045260245ffd5b90601f7fffffffffffffffffffffffffffffffffffffffffffffffffffffffffffffffe0910116810190811067ffffffffffffffff821117610d3157604052565b601f82602094937fffffffffffffffffffffffffffffffffffffffffffffffffffffffffffffffe093818652868601375f8582860101520116010190565b9291909273ffffffffffffffffffffffffffffffffffffffff809116604051917fdd62ed3e000000000000000000000000000000000000000000000000000000008352306004840152602495169182868201526020938482604481865afa918215610b52575f9261103b575b50810180911161100f5760405190848201937f095ea7b3000000000000000000000000000000000000000000000000000000008552878301526044820152604481526080810167ffffffffffffffff9382821085831117610fe35760c083019282841086851117610fb757865f94938594604052527f5361666545524332303a206c6f772d6c6576656c2063616c6c206661696c656460a0820152519082855af1903d15610fa6573d928311610f7a57610f429394955060405192610f35867fffffffffffffffffffffffffffffffffffffffffffffffffffffffffffffffe0601f8401160185610d5e565b83523d5f8685013e61106a565b8051918215918215610f5a575b505090501561094457565b809250819381010312610944570151801515810361094457805f80610f4f565b857f4e487b71000000000000000000000000000000000000000000000000000000005f5260416004525ffd5b9150610f429293945060609161106a565b887f4e487b71000000000000000000000000000000000000000000000000000000005f5260416004525ffd5b877f4e487b71000000000000000000000000000000000000000000000000000000005f5260416004525ffd5b857f4e487b71000000000000000000000000000000000000000000000000000000005f5260116004525ffd5b9091508481813d8311611063575b6110538183610d5e565b810103126109445751905f610e49565b503d611049565b90156110845781511561107b575090565b3b156109445790565b50805190811561094457602001fdfea2646970667358221220fd79f817124cb36ddec86c9c010a39db300bb3e59bf3feb860c71219a3abae6864736f6c63430008170033",
  "devdoc": {
    "custom:security-contact": "bugs@across.to",
    "details": "Public functions calling external contracts do not guard against reentrancy because they are expected to be called via delegatecall, which will execute this contract's logic within the context of the originating contract. For example, the HubPool will delegatecall these functions, therefore its only necessary that the HubPool's methods that call this contract's logic guard against reentrancy.",
    "kind": "dev",
    "methods": {
      "constructor": {
        "params": {
          "_cctpTokenMessenger": "TokenMessenger contract to bridge via CCTP.",
          "_crossDomainMessenger": "XDomainMessenger Base system contract.",
          "_l1StandardBridge": "Standard bridge contract.",
          "_l1Usdc": "USDC address on L1.",
          "_l1Weth": "WETH address on L1."
        }
      },
      "relayMessage(address,bytes)": {
        "params": {
          "message": "Data to send to target.",
          "target": "Contract on Base that will receive message."
        }
      },
      "relayTokens(address,address,uint256,address)": {
        "params": {
          "amount": "Amount of L1 tokens to deposit and L2 tokens to receive.",
          "l1Token": "L1 token to deposit.",
          "l2Token": "L2 token to receive.",
          "to": "Bridge recipient."
        }
      }
    },
    "version": 1
  },
  "userdoc": {
    "kind": "user",
    "methods": {
      "constructor": {
        "notice": "Constructs new Adapter."
      },
      "relayMessage(address,bytes)": {
        "notice": "Send cross-chain message to target on Base."
      },
      "relayTokens(address,address,uint256,address)": {
        "notice": "Bridge tokens to Base."
      }
    },
    "notice": "Contract containing logic to send messages from L1 to Base. This is a modified version of the Optimism adapter that excludes the custom bridging logic.",
    "version": 1
  },
  "storageLayout": {
    "storage": [],
    "types": null
  }
}