{
  "address": "0x10409e19dCF2D77941050D52891BB7402C6D6F99",
  "abi": [
    {
      "inputs": [
        {
          "internalType": "address",
          "name": "_wrappedNativeTokenAddress",
          "type": "address"
        },
        {
          "internalType": "uint32",
          "name": "_depositQuoteTimeBuffer",
          "type": "uint32"
        },
        {
          "internalType": "uint32",
          "name": "_fillDeadlineBuffer",
          "type": "uint32"
        }
      ],
      "stateMutability": "nonpayable",
      "type": "constructor"
    },
    {
      "inputs": [],
      "name": "ClaimedMerkleLeaf",
      "type": "error"
    },
    {
      "inputs": [],
      "name": "DisabledRoute",
      "type": "error"
    },
    {
      "inputs": [],
      "name": "ExpiredFillDeadline",
      "type": "error"
    },
    {
      "inputs": [],
      "name": "InvalidChainId",
      "type": "error"
    },
    {
      "inputs": [],
      "name": "InvalidExclusiveRelayer",
      "type": "error"
    },
    {
      "inputs": [],
      "name": "InvalidExclusivityDeadline",
      "type": "error"
    },
    {
      "inputs": [],
      "name": "InvalidFillDeadline",
      "type": "error"
    },
    {
      "inputs": [],
      "name": "InvalidMerkleLeaf",
      "type": "error"
    },
    {
      "inputs": [],
      "name": "InvalidMerkleProof",
      "type": "error"
    },
    {
      "inputs": [],
      "name": "InvalidPayoutAdjustmentPct",
      "type": "error"
    },
    {
      "inputs": [],
      "name": "InvalidQuoteTimestamp",
      "type": "error"
    },
    {
      "inputs": [],
      "name": "InvalidSlowFillRequest",
      "type": "error"
    },
    {
      "inputs": [],
      "name": "MsgValueDoesNotMatchInputAmount",
      "type": "error"
    },
    {
      "inputs": [],
      "name": "NoSlowFillsInExclusivityWindow",
      "type": "error"
    },
    {
      "inputs": [],
      "name": "NotEOA",
      "type": "error"
    },
    {
      "inputs": [],
      "name": "NotExclusiveRelayer",
      "type": "error"
    },
    {
      "inputs": [],
      "name": "RelayFilled",
      "type": "error"
    },
    {
      "anonymous": false,
      "inputs": [
        {
          "indexed": false,
          "internalType": "address",
          "name": "previousAdmin",
          "type": "address"
        },
        {
          "indexed": false,
          "internalType": "address",
          "name": "newAdmin",
          "type": "address"
        }
      ],
      "name": "AdminChanged",
      "type": "event"
    },
    {
      "anonymous": false,
      "inputs": [
        {
          "indexed": true,
          "internalType": "address",
          "name": "beacon",
          "type": "address"
        }
      ],
      "name": "BeaconUpgraded",
      "type": "event"
    },
    {
      "anonymous": false,
      "inputs": [
        {
          "indexed": true,
          "internalType": "uint256",
          "name": "rootBundleId",
          "type": "uint256"
        }
      ],
      "name": "EmergencyDeleteRootBundle",
      "type": "event"
    },
    {
      "anonymous": false,
      "inputs": [
        {
          "indexed": true,
          "internalType": "address",
          "name": "originToken",
          "type": "address"
        },
        {
          "indexed": true,
          "internalType": "uint256",
          "name": "destinationChainId",
          "type": "uint256"
        },
        {
          "indexed": false,
          "internalType": "bool",
          "name": "enabled",
          "type": "bool"
        }
      ],
      "name": "EnabledDepositRoute",
      "type": "event"
    },
    {
      "anonymous": false,
      "inputs": [
        {
          "indexed": false,
          "internalType": "uint256",
          "name": "amountToReturn",
          "type": "uint256"
        },
        {
          "indexed": true,
          "internalType": "uint256",
          "name": "chainId",
          "type": "uint256"
        },
        {
          "indexed": false,
          "internalType": "uint256[]",
          "name": "refundAmounts",
          "type": "uint256[]"
        },
        {
          "indexed": true,
          "internalType": "uint32",
          "name": "rootBundleId",
          "type": "uint32"
        },
        {
          "indexed": true,
          "internalType": "uint32",
          "name": "leafId",
          "type": "uint32"
        },
        {
          "indexed": false,
          "internalType": "address",
          "name": "l2TokenAddress",
          "type": "address"
        },
        {
          "indexed": false,
          "internalType": "address[]",
          "name": "refundAddresses",
          "type": "address[]"
        },
        {
          "indexed": false,
          "internalType": "address",
          "name": "caller",
          "type": "address"
        }
      ],
      "name": "ExecutedRelayerRefundRoot",
      "type": "event"
    },
    {
      "anonymous": false,
      "inputs": [
        {
          "indexed": false,
          "internalType": "uint256",
          "name": "amount",
          "type": "uint256"
        },
        {
          "indexed": false,
          "internalType": "uint256",
          "name": "totalFilledAmount",
          "type": "uint256"
        },
        {
          "indexed": false,
          "internalType": "uint256",
          "name": "fillAmount",
          "type": "uint256"
        },
        {
          "indexed": false,
          "internalType": "uint256",
          "name": "repaymentChainId",
          "type": "uint256"
        },
        {
          "indexed": true,
          "internalType": "uint256",
          "name": "originChainId",
          "type": "uint256"
        },
        {
          "indexed": false,
          "internalType": "uint256",
          "name": "destinationChainId",
          "type": "uint256"
        },
        {
          "indexed": false,
          "internalType": "int64",
          "name": "relayerFeePct",
          "type": "int64"
        },
        {
          "indexed": false,
          "internalType": "int64",
          "name": "realizedLpFeePct",
          "type": "int64"
        },
        {
          "indexed": true,
          "internalType": "uint32",
          "name": "depositId",
          "type": "uint32"
        },
        {
          "indexed": false,
          "internalType": "address",
          "name": "destinationToken",
          "type": "address"
        },
        {
          "indexed": false,
          "internalType": "address",
          "name": "relayer",
          "type": "address"
        },
        {
          "indexed": true,
          "internalType": "address",
          "name": "depositor",
          "type": "address"
        },
        {
          "indexed": false,
          "internalType": "address",
          "name": "recipient",
          "type": "address"
        },
        {
          "indexed": false,
          "internalType": "bytes",
          "name": "message",
          "type": "bytes"
        },
        {
          "components": [
            {
              "internalType": "address",
              "name": "recipient",
              "type": "address"
            },
            {
              "internalType": "bytes",
              "name": "message",
              "type": "bytes"
            },
            {
              "internalType": "int64",
              "name": "relayerFeePct",
              "type": "int64"
            },
            {
              "internalType": "bool",
              "name": "isSlowRelay",
              "type": "bool"
            },
            {
              "internalType": "int256",
              "name": "payoutAdjustmentPct",
              "type": "int256"
            }
          ],
          "indexed": false,
          "internalType": "struct SpokePool.RelayExecutionInfo",
          "name": "updatableRelayData",
          "type": "tuple"
        }
      ],
      "name": "FilledRelay",
      "type": "event"
    },
    {
      "anonymous": false,
      "inputs": [
        {
          "indexed": false,
          "internalType": "address",
          "name": "inputToken",
          "type": "address"
        },
        {
          "indexed": false,
          "internalType": "address",
          "name": "outputToken",
          "type": "address"
        },
        {
          "indexed": false,
          "internalType": "uint256",
          "name": "inputAmount",
          "type": "uint256"
        },
        {
          "indexed": false,
          "internalType": "uint256",
          "name": "outputAmount",
          "type": "uint256"
        },
        {
          "indexed": false,
          "internalType": "uint256",
          "name": "repaymentChainId",
          "type": "uint256"
        },
        {
          "indexed": true,
          "internalType": "uint256",
          "name": "originChainId",
          "type": "uint256"
        },
        {
          "indexed": true,
          "internalType": "uint32",
          "name": "depositId",
          "type": "uint32"
        },
        {
          "indexed": false,
          "internalType": "uint32",
          "name": "fillDeadline",
          "type": "uint32"
        },
        {
          "indexed": false,
          "internalType": "uint32",
          "name": "exclusivityDeadline",
          "type": "uint32"
        },
        {
          "indexed": false,
          "internalType": "address",
          "name": "exclusiveRelayer",
          "type": "address"
        },
        {
          "indexed": true,
          "internalType": "address",
          "name": "relayer",
          "type": "address"
        },
        {
          "indexed": false,
          "internalType": "address",
          "name": "depositor",
          "type": "address"
        },
        {
          "indexed": false,
          "internalType": "address",
          "name": "recipient",
          "type": "address"
        },
        {
          "indexed": false,
          "internalType": "bytes",
          "name": "message",
          "type": "bytes"
        },
        {
          "components": [
            {
              "internalType": "address",
              "name": "updatedRecipient",
              "type": "address"
            },
            {
              "internalType": "bytes",
              "name": "updatedMessage",
              "type": "bytes"
            },
            {
              "internalType": "uint256",
              "name": "updatedOutputAmount",
              "type": "uint256"
            },
            {
              "internalType": "enum V3SpokePoolInterface.FillType",
              "name": "fillType",
              "type": "uint8"
            }
          ],
          "indexed": false,
          "internalType": "struct V3SpokePoolInterface.V3RelayExecutionEventInfo",
          "name": "relayExecutionInfo",
          "type": "tuple"
        }
      ],
      "name": "FilledV3Relay",
      "type": "event"
    },
    {
      "anonymous": false,
      "inputs": [
        {
          "indexed": false,
          "internalType": "uint256",
          "name": "amount",
          "type": "uint256"
        },
        {
          "indexed": false,
          "internalType": "uint256",
          "name": "originChainId",
          "type": "uint256"
        },
        {
          "indexed": true,
          "internalType": "uint256",
          "name": "destinationChainId",
          "type": "uint256"
        },
        {
          "indexed": false,
          "internalType": "int64",
          "name": "relayerFeePct",
          "type": "int64"
        },
        {
          "indexed": true,
          "internalType": "uint32",
          "name": "depositId",
          "type": "uint32"
        },
        {
          "indexed": false,
          "internalType": "uint32",
          "name": "quoteTimestamp",
          "type": "uint32"
        },
        {
          "indexed": false,
          "internalType": "address",
          "name": "originToken",
          "type": "address"
        },
        {
          "indexed": false,
          "internalType": "address",
          "name": "recipient",
          "type": "address"
        },
        {
          "indexed": true,
          "internalType": "address",
          "name": "depositor",
          "type": "address"
        },
        {
          "indexed": false,
          "internalType": "bytes",
          "name": "message",
          "type": "bytes"
        }
      ],
      "name": "FundsDeposited",
      "type": "event"
    },
    {
      "anonymous": false,
      "inputs": [
        {
          "indexed": false,
          "internalType": "uint8",
          "name": "version",
          "type": "uint8"
        }
      ],
      "name": "Initialized",
      "type": "event"
    },
    {
      "anonymous": false,
      "inputs": [
        {
          "indexed": true,
          "internalType": "address",
          "name": "previousOwner",
          "type": "address"
        },
        {
          "indexed": true,
          "internalType": "address",
          "name": "newOwner",
          "type": "address"
        }
      ],
      "name": "OwnershipTransferred",
      "type": "event"
    },
    {
      "anonymous": false,
      "inputs": [
        {
          "indexed": false,
          "internalType": "bool",
          "name": "isPaused",
          "type": "bool"
        }
      ],
      "name": "PausedDeposits",
      "type": "event"
    },
    {
      "anonymous": false,
      "inputs": [
        {
          "indexed": false,
          "internalType": "bool",
          "name": "isPaused",
          "type": "bool"
        }
      ],
      "name": "PausedFills",
      "type": "event"
    },
    {
      "anonymous": false,
      "inputs": [
        {
          "indexed": true,
          "internalType": "uint32",
          "name": "rootBundleId",
          "type": "uint32"
        },
        {
          "indexed": true,
          "internalType": "bytes32",
          "name": "relayerRefundRoot",
          "type": "bytes32"
        },
        {
          "indexed": true,
          "internalType": "bytes32",
          "name": "slowRelayRoot",
          "type": "bytes32"
        }
      ],
      "name": "RelayedRootBundle",
      "type": "event"
    },
    {
      "anonymous": false,
      "inputs": [
        {
          "indexed": false,
          "internalType": "int64",
          "name": "newRelayerFeePct",
          "type": "int64"
        },
        {
          "indexed": true,
          "internalType": "uint32",
          "name": "depositId",
          "type": "uint32"
        },
        {
          "indexed": true,
          "internalType": "address",
          "name": "depositor",
          "type": "address"
        },
        {
          "indexed": false,
          "internalType": "address",
          "name": "updatedRecipient",
          "type": "address"
        },
        {
          "indexed": false,
          "internalType": "bytes",
          "name": "updatedMessage",
          "type": "bytes"
        },
        {
          "indexed": false,
          "internalType": "bytes",
          "name": "depositorSignature",
          "type": "bytes"
        }
      ],
      "name": "RequestedSpeedUpDeposit",
      "type": "event"
    },
    {
      "anonymous": false,
      "inputs": [
        {
          "indexed": false,
          "internalType": "uint256",
          "name": "updatedOutputAmount",
          "type": "uint256"
        },
        {
          "indexed": true,
          "internalType": "uint32",
          "name": "depositId",
          "type": "uint32"
        },
        {
          "indexed": true,
          "internalType": "address",
          "name": "depositor",
          "type": "address"
        },
        {
          "indexed": false,
          "internalType": "address",
          "name": "updatedRecipient",
          "type": "address"
        },
        {
          "indexed": false,
          "internalType": "bytes",
          "name": "updatedMessage",
          "type": "bytes"
        },
        {
          "indexed": false,
          "internalType": "bytes",
          "name": "depositorSignature",
          "type": "bytes"
        }
      ],
      "name": "RequestedSpeedUpV3Deposit",
      "type": "event"
    },
    {
      "anonymous": false,
      "inputs": [
        {
          "indexed": false,
          "internalType": "address",
          "name": "inputToken",
          "type": "address"
        },
        {
          "indexed": false,
          "internalType": "address",
          "name": "outputToken",
          "type": "address"
        },
        {
          "indexed": false,
          "internalType": "uint256",
          "name": "inputAmount",
          "type": "uint256"
        },
        {
          "indexed": false,
          "internalType": "uint256",
          "name": "outputAmount",
          "type": "uint256"
        },
        {
          "indexed": true,
          "internalType": "uint256",
          "name": "originChainId",
          "type": "uint256"
        },
        {
          "indexed": true,
          "internalType": "uint32",
          "name": "depositId",
          "type": "uint32"
        },
        {
          "indexed": false,
          "internalType": "uint32",
          "name": "fillDeadline",
          "type": "uint32"
        },
        {
          "indexed": false,
          "internalType": "uint32",
          "name": "exclusivityDeadline",
          "type": "uint32"
        },
        {
          "indexed": false,
          "internalType": "address",
          "name": "exclusiveRelayer",
          "type": "address"
        },
        {
          "indexed": false,
          "internalType": "address",
          "name": "depositor",
          "type": "address"
        },
        {
          "indexed": false,
          "internalType": "address",
          "name": "recipient",
          "type": "address"
        },
        {
          "indexed": false,
          "internalType": "bytes",
          "name": "message",
          "type": "bytes"
        }
      ],
      "name": "RequestedV3SlowFill",
      "type": "event"
    },
    {
      "anonymous": false,
      "inputs": [
        {
          "indexed": true,
          "internalType": "address",
          "name": "newHubPool",
          "type": "address"
        }
      ],
      "name": "SetHubPool",
      "type": "event"
    },
    {
      "anonymous": false,
      "inputs": [
        {
          "indexed": true,
          "internalType": "address",
          "name": "newAdmin",
          "type": "address"
        }
      ],
      "name": "SetXDomainAdmin",
      "type": "event"
    },
    {
      "anonymous": false,
      "inputs": [
        {
          "indexed": false,
          "internalType": "uint256",
          "name": "amountToReturn",
          "type": "uint256"
        },
        {
          "indexed": true,
          "internalType": "uint256",
          "name": "chainId",
          "type": "uint256"
        },
        {
          "indexed": true,
          "internalType": "uint32",
          "name": "leafId",
          "type": "uint32"
        },
        {
          "indexed": true,
          "internalType": "address",
          "name": "l2TokenAddress",
          "type": "address"
        },
        {
          "indexed": false,
          "internalType": "address",
          "name": "caller",
          "type": "address"
        }
      ],
      "name": "TokensBridged",
      "type": "event"
    },
    {
      "anonymous": false,
      "inputs": [
        {
          "indexed": true,
          "internalType": "address",
          "name": "implementation",
          "type": "address"
        }
      ],
      "name": "Upgraded",
      "type": "event"
    },
    {
      "anonymous": false,
      "inputs": [
        {
          "indexed": false,
          "internalType": "address",
          "name": "inputToken",
          "type": "address"
        },
        {
          "indexed": false,
          "internalType": "address",
          "name": "outputToken",
          "type": "address"
        },
        {
          "indexed": false,
          "internalType": "uint256",
          "name": "inputAmount",
          "type": "uint256"
        },
        {
          "indexed": false,
          "internalType": "uint256",
          "name": "outputAmount",
          "type": "uint256"
        },
        {
          "indexed": true,
          "internalType": "uint256",
          "name": "destinationChainId",
          "type": "uint256"
        },
        {
          "indexed": true,
          "internalType": "uint32",
          "name": "depositId",
          "type": "uint32"
        },
        {
          "indexed": false,
          "internalType": "uint32",
          "name": "quoteTimestamp",
          "type": "uint32"
        },
        {
          "indexed": false,
          "internalType": "uint32",
          "name": "fillDeadline",
          "type": "uint32"
        },
        {
          "indexed": false,
          "internalType": "uint32",
          "name": "exclusivityDeadline",
          "type": "uint32"
        },
        {
          "indexed": true,
          "internalType": "address",
          "name": "depositor",
          "type": "address"
        },
        {
          "indexed": false,
          "internalType": "address",
          "name": "recipient",
          "type": "address"
        },
        {
          "indexed": false,
          "internalType": "address",
          "name": "exclusiveRelayer",
          "type": "address"
        },
        {
          "indexed": false,
          "internalType": "bytes",
          "name": "message",
          "type": "bytes"
        }
      ],
      "name": "V3FundsDeposited",
      "type": "event"
    },
    {
      "inputs": [],
      "name": "EMPTY_RELAYER",
      "outputs": [
        {
          "internalType": "address",
          "name": "",
          "type": "address"
        }
      ],
      "stateMutability": "view",
      "type": "function"
    },
    {
      "inputs": [],
      "name": "EMPTY_REPAYMENT_CHAIN_ID",
      "outputs": [
        {
          "internalType": "uint256",
          "name": "",
          "type": "uint256"
        }
      ],
      "stateMutability": "view",
      "type": "function"
    },
    {
      "inputs": [],
      "name": "INFINITE_FILL_DEADLINE",
      "outputs": [
        {
          "internalType": "uint32",
          "name": "",
          "type": "uint32"
        }
      ],
      "stateMutability": "view",
      "type": "function"
    },
    {
      "inputs": [],
      "name": "MAX_TRANSFER_SIZE",
      "outputs": [
        {
          "internalType": "uint256",
          "name": "",
          "type": "uint256"
        }
      ],
      "stateMutability": "view",
      "type": "function"
    },
    {
      "inputs": [],
      "name": "SLOW_FILL_MAX_TOKENS_TO_SEND",
      "outputs": [
        {
          "internalType": "uint256",
          "name": "",
          "type": "uint256"
        }
      ],
      "stateMutability": "view",
      "type": "function"
    },
    {
      "inputs": [],
      "name": "UPDATE_DEPOSIT_DETAILS_HASH",
      "outputs": [
        {
          "internalType": "bytes32",
          "name": "",
          "type": "bytes32"
        }
      ],
      "stateMutability": "view",
      "type": "function"
    },
    {
      "inputs": [],
      "name": "UPDATE_V3_DEPOSIT_DETAILS_HASH",
      "outputs": [
        {
          "internalType": "bytes32",
          "name": "",
          "type": "bytes32"
        }
      ],
      "stateMutability": "view",
      "type": "function"
    },
    {
      "inputs": [
        {
          "internalType": "uint32",
          "name": "_initialDepositId",
          "type": "uint32"
        },
        {
          "internalType": "address",
          "name": "_crossDomainAdmin",
          "type": "address"
        },
        {
          "internalType": "address",
          "name": "_hubPool",
          "type": "address"
        }
      ],
      "name": "__SpokePool_init",
      "outputs": [],
      "stateMutability": "nonpayable",
      "type": "function"
    },
    {
      "inputs": [],
      "name": "chainId",
      "outputs": [
        {
          "internalType": "uint256",
          "name": "",
          "type": "uint256"
        }
      ],
      "stateMutability": "view",
      "type": "function"
    },
    {
      "inputs": [],
      "name": "crossDomainAdmin",
      "outputs": [
        {
          "internalType": "address",
          "name": "",
          "type": "address"
        }
      ],
      "stateMutability": "view",
      "type": "function"
    },
    {
      "inputs": [
        {
          "internalType": "address",
          "name": "recipient",
          "type": "address"
        },
        {
          "internalType": "address",
          "name": "originToken",
          "type": "address"
        },
        {
          "internalType": "uint256",
          "name": "amount",
          "type": "uint256"
        },
        {
          "internalType": "uint256",
          "name": "destinationChainId",
          "type": "uint256"
        },
        {
          "internalType": "int64",
          "name": "relayerFeePct",
          "type": "int64"
        },
        {
          "internalType": "uint32",
          "name": "quoteTimestamp",
          "type": "uint32"
        },
        {
          "internalType": "bytes",
          "name": "message",
          "type": "bytes"
        },
        {
          "internalType": "uint256",
          "name": "",
          "type": "uint256"
        }
      ],
      "name": "deposit",
      "outputs": [],
      "stateMutability": "payable",
      "type": "function"
    },
    {
      "inputs": [
        {
          "internalType": "address",
          "name": "depositor",
          "type": "address"
        },
        {
          "internalType": "address",
          "name": "recipient",
          "type": "address"
        },
        {
          "internalType": "address",
          "name": "originToken",
          "type": "address"
        },
        {
          "internalType": "uint256",
          "name": "amount",
          "type": "uint256"
        },
        {
          "internalType": "uint256",
          "name": "destinationChainId",
          "type": "uint256"
        },
        {
          "internalType": "int64",
          "name": "relayerFeePct",
          "type": "int64"
        },
        {
          "internalType": "uint32",
          "name": "quoteTimestamp",
          "type": "uint32"
        },
        {
          "internalType": "bytes",
          "name": "message",
          "type": "bytes"
        },
        {
          "internalType": "uint256",
          "name": "",
          "type": "uint256"
        }
      ],
      "name": "depositFor",
      "outputs": [],
      "stateMutability": "payable",
      "type": "function"
    },
    {
      "inputs": [
        {
          "internalType": "address",
          "name": "depositor",
          "type": "address"
        },
        {
          "internalType": "address",
          "name": "recipient",
          "type": "address"
        },
        {
          "internalType": "address",
          "name": "originToken",
          "type": "address"
        },
        {
          "internalType": "uint256",
          "name": "amount",
          "type": "uint256"
        },
        {
          "internalType": "uint256",
          "name": "destinationChainId",
          "type": "uint256"
        },
        {
          "internalType": "int64",
          "name": "relayerFeePct",
          "type": "int64"
        },
        {
          "internalType": "bytes",
          "name": "message",
          "type": "bytes"
        },
        {
          "internalType": "uint256",
          "name": "maxCount",
          "type": "uint256"
        }
      ],
      "name": "depositForNow",
      "outputs": [],
      "stateMutability": "payable",
      "type": "function"
    },
    {
      "inputs": [
        {
          "internalType": "address",
          "name": "recipient",
          "type": "address"
        },
        {
          "internalType": "address",
          "name": "originToken",
          "type": "address"
        },
        {
          "internalType": "uint256",
          "name": "amount",
          "type": "uint256"
        },
        {
          "internalType": "uint256",
          "name": "destinationChainId",
          "type": "uint256"
        },
        {
          "internalType": "int64",
          "name": "relayerFeePct",
          "type": "int64"
        },
        {
          "internalType": "bytes",
          "name": "message",
          "type": "bytes"
        },
        {
          "internalType": "uint256",
          "name": "maxCount",
          "type": "uint256"
        }
      ],
      "name": "depositNow",
      "outputs": [],
      "stateMutability": "payable",
      "type": "function"
    },
    {
      "inputs": [],
      "name": "depositQuoteTimeBuffer",
      "outputs": [
        {
          "internalType": "uint32",
          "name": "",
          "type": "uint32"
        }
      ],
      "stateMutability": "view",
      "type": "function"
    },
    {
      "inputs": [
        {
          "internalType": "address",
          "name": "depositor",
          "type": "address"
        },
        {
          "internalType": "address",
          "name": "recipient",
          "type": "address"
        },
        {
          "internalType": "address",
          "name": "inputToken",
          "type": "address"
        },
        {
          "internalType": "address",
          "name": "outputToken",
          "type": "address"
        },
        {
          "internalType": "uint256",
          "name": "inputAmount",
          "type": "uint256"
        },
        {
          "internalType": "uint256",
          "name": "outputAmount",
          "type": "uint256"
        },
        {
          "internalType": "uint256",
          "name": "destinationChainId",
          "type": "uint256"
        },
        {
          "internalType": "address",
          "name": "exclusiveRelayer",
          "type": "address"
        },
        {
          "internalType": "uint32",
          "name": "quoteTimestamp",
          "type": "uint32"
        },
        {
          "internalType": "uint32",
          "name": "fillDeadline",
          "type": "uint32"
        },
        {
          "internalType": "uint32",
          "name": "exclusivityDeadline",
          "type": "uint32"
        },
        {
          "internalType": "bytes",
          "name": "message",
          "type": "bytes"
        }
      ],
      "name": "depositV3",
      "outputs": [],
      "stateMutability": "payable",
      "type": "function"
    },
    {
      "inputs": [
        {
          "internalType": "uint256",
          "name": "rootBundleId",
          "type": "uint256"
        }
      ],
      "name": "emergencyDeleteRootBundle",
      "outputs": [],
      "stateMutability": "nonpayable",
      "type": "function"
    },
    {
      "inputs": [
        {
          "internalType": "address",
          "name": "",
          "type": "address"
        },
        {
          "internalType": "uint256",
          "name": "",
          "type": "uint256"
        }
      ],
      "name": "enabledDepositRoutes",
      "outputs": [
        {
          "internalType": "bool",
          "name": "",
          "type": "bool"
        }
      ],
      "stateMutability": "view",
      "type": "function"
    },
    {
      "inputs": [
        {
          "internalType": "uint32",
          "name": "rootBundleId",
          "type": "uint32"
        },
        {
          "components": [
            {
              "internalType": "uint256",
              "name": "amountToReturn",
              "type": "uint256"
            },
            {
              "internalType": "uint256",
              "name": "chainId",
              "type": "uint256"
            },
            {
              "internalType": "uint256[]",
              "name": "refundAmounts",
              "type": "uint256[]"
            },
            {
              "internalType": "uint32",
              "name": "leafId",
              "type": "uint32"
            },
            {
              "internalType": "address",
              "name": "l2TokenAddress",
              "type": "address"
            },
            {
              "internalType": "address[]",
              "name": "refundAddresses",
              "type": "address[]"
            }
          ],
          "internalType": "struct SpokePoolInterface.RelayerRefundLeaf",
          "name": "relayerRefundLeaf",
          "type": "tuple"
        },
        {
          "internalType": "bytes32[]",
          "name": "proof",
          "type": "bytes32[]"
        }
      ],
      "name": "executeRelayerRefundLeaf",
      "outputs": [],
      "stateMutability": "payable",
      "type": "function"
    },
    {
      "inputs": [
        {
          "internalType": "address",
          "name": "depositor",
          "type": "address"
        },
        {
          "internalType": "address",
          "name": "recipient",
          "type": "address"
        },
        {
          "internalType": "address",
          "name": "destinationToken",
          "type": "address"
        },
        {
          "internalType": "uint256",
          "name": "amount",
          "type": "uint256"
        },
        {
          "internalType": "uint256",
          "name": "originChainId",
          "type": "uint256"
        },
        {
          "internalType": "int64",
          "name": "realizedLpFeePct",
          "type": "int64"
        },
        {
          "internalType": "int64",
          "name": "relayerFeePct",
          "type": "int64"
        },
        {
          "internalType": "uint32",
          "name": "depositId",
          "type": "uint32"
        },
        {
          "internalType": "uint32",
          "name": "rootBundleId",
          "type": "uint32"
        },
        {
          "internalType": "bytes",
          "name": "message",
          "type": "bytes"
        },
        {
          "internalType": "int256",
          "name": "payoutAdjustment",
          "type": "int256"
        },
        {
          "internalType": "bytes32[]",
          "name": "proof",
          "type": "bytes32[]"
        }
      ],
      "name": "executeSlowRelayLeaf",
      "outputs": [],
      "stateMutability": "nonpayable",
      "type": "function"
    },
    {
      "inputs": [
        {
          "components": [
            {
              "components": [
                {
                  "internalType": "address",
                  "name": "depositor",
                  "type": "address"
                },
                {
                  "internalType": "address",
                  "name": "recipient",
                  "type": "address"
                },
                {
                  "internalType": "address",
                  "name": "exclusiveRelayer",
                  "type": "address"
                },
                {
                  "internalType": "address",
                  "name": "inputToken",
                  "type": "address"
                },
                {
                  "internalType": "address",
                  "name": "outputToken",
                  "type": "address"
                },
                {
                  "internalType": "uint256",
                  "name": "inputAmount",
                  "type": "uint256"
                },
                {
                  "internalType": "uint256",
                  "name": "outputAmount",
                  "type": "uint256"
                },
                {
                  "internalType": "uint256",
                  "name": "originChainId",
                  "type": "uint256"
                },
                {
                  "internalType": "uint32",
                  "name": "depositId",
                  "type": "uint32"
                },
                {
                  "internalType": "uint32",
                  "name": "fillDeadline",
                  "type": "uint32"
                },
                {
                  "internalType": "uint32",
                  "name": "exclusivityDeadline",
                  "type": "uint32"
                },
                {
                  "internalType": "bytes",
                  "name": "message",
                  "type": "bytes"
                }
              ],
              "internalType": "struct V3SpokePoolInterface.V3RelayData",
              "name": "relayData",
              "type": "tuple"
            },
            {
              "internalType": "uint256",
              "name": "chainId",
              "type": "uint256"
            },
            {
              "internalType": "uint256",
              "name": "updatedOutputAmount",
              "type": "uint256"
            }
          ],
          "internalType": "struct V3SpokePoolInterface.V3SlowFill",
          "name": "slowFillLeaf",
          "type": "tuple"
        },
        {
          "internalType": "uint32",
          "name": "rootBundleId",
          "type": "uint32"
        },
        {
          "internalType": "bytes32[]",
          "name": "proof",
          "type": "bytes32[]"
        }
      ],
      "name": "executeV3SlowRelayLeaf",
      "outputs": [],
      "stateMutability": "nonpayable",
      "type": "function"
    },
    {
      "inputs": [],
      "name": "fillDeadlineBuffer",
      "outputs": [
        {
          "internalType": "uint32",
          "name": "",
          "type": "uint32"
        }
      ],
      "stateMutability": "view",
      "type": "function"
    },
    {
      "inputs": [
        {
          "internalType": "address",
          "name": "depositor",
          "type": "address"
        },
        {
          "internalType": "address",
          "name": "recipient",
          "type": "address"
        },
        {
          "internalType": "address",
          "name": "destinationToken",
          "type": "address"
        },
        {
          "internalType": "uint256",
          "name": "amount",
          "type": "uint256"
        },
        {
          "internalType": "uint256",
          "name": "maxTokensToSend",
          "type": "uint256"
        },
        {
          "internalType": "uint256",
          "name": "repaymentChainId",
          "type": "uint256"
        },
        {
          "internalType": "uint256",
          "name": "originChainId",
          "type": "uint256"
        },
        {
          "internalType": "int64",
          "name": "realizedLpFeePct",
          "type": "int64"
        },
        {
          "internalType": "int64",
          "name": "relayerFeePct",
          "type": "int64"
        },
        {
          "internalType": "uint32",
          "name": "depositId",
          "type": "uint32"
        },
        {
          "internalType": "bytes",
          "name": "message",
          "type": "bytes"
        },
        {
          "internalType": "uint256",
          "name": "maxCount",
          "type": "uint256"
        }
      ],
      "name": "fillRelay",
      "outputs": [],
      "stateMutability": "nonpayable",
      "type": "function"
    },
    {
      "inputs": [
        {
          "internalType": "address",
          "name": "depositor",
          "type": "address"
        },
        {
          "internalType": "address",
          "name": "recipient",
          "type": "address"
        },
        {
          "internalType": "address",
          "name": "updatedRecipient",
          "type": "address"
        },
        {
          "internalType": "address",
          "name": "destinationToken",
          "type": "address"
        },
        {
          "internalType": "uint256",
          "name": "amount",
          "type": "uint256"
        },
        {
          "internalType": "uint256",
          "name": "maxTokensToSend",
          "type": "uint256"
        },
        {
          "internalType": "uint256",
          "name": "repaymentChainId",
          "type": "uint256"
        },
        {
          "internalType": "uint256",
          "name": "originChainId",
          "type": "uint256"
        },
        {
          "internalType": "int64",
          "name": "realizedLpFeePct",
          "type": "int64"
        },
        {
          "internalType": "int64",
          "name": "relayerFeePct",
          "type": "int64"
        },
        {
          "internalType": "int64",
          "name": "updatedRelayerFeePct",
          "type": "int64"
        },
        {
          "internalType": "uint32",
          "name": "depositId",
          "type": "uint32"
        },
        {
          "internalType": "bytes",
          "name": "message",
          "type": "bytes"
        },
        {
          "internalType": "bytes",
          "name": "updatedMessage",
          "type": "bytes"
        },
        {
          "internalType": "bytes",
          "name": "depositorSignature",
          "type": "bytes"
        },
        {
          "internalType": "uint256",
          "name": "maxCount",
          "type": "uint256"
        }
      ],
      "name": "fillRelayWithUpdatedDeposit",
      "outputs": [],
      "stateMutability": "nonpayable",
      "type": "function"
    },
    {
      "inputs": [
        {
          "internalType": "bytes32",
          "name": "",
          "type": "bytes32"
        }
      ],
      "name": "fillStatuses",
      "outputs": [
        {
          "internalType": "uint256",
          "name": "",
          "type": "uint256"
        }
      ],
      "stateMutability": "view",
      "type": "function"
    },
    {
      "inputs": [
        {
          "components": [
            {
              "internalType": "address",
              "name": "depositor",
              "type": "address"
            },
            {
              "internalType": "address",
              "name": "recipient",
              "type": "address"
            },
            {
              "internalType": "address",
              "name": "exclusiveRelayer",
              "type": "address"
            },
            {
              "internalType": "address",
              "name": "inputToken",
              "type": "address"
            },
            {
              "internalType": "address",
              "name": "outputToken",
              "type": "address"
            },
            {
              "internalType": "uint256",
              "name": "inputAmount",
              "type": "uint256"
            },
            {
              "internalType": "uint256",
              "name": "outputAmount",
              "type": "uint256"
            },
            {
              "internalType": "uint256",
              "name": "originChainId",
              "type": "uint256"
            },
            {
              "internalType": "uint32",
              "name": "depositId",
              "type": "uint32"
            },
            {
              "internalType": "uint32",
              "name": "fillDeadline",
              "type": "uint32"
            },
            {
              "internalType": "uint32",
              "name": "exclusivityDeadline",
              "type": "uint32"
            },
            {
              "internalType": "bytes",
              "name": "message",
              "type": "bytes"
            }
          ],
          "internalType": "struct V3SpokePoolInterface.V3RelayData",
          "name": "relayData",
          "type": "tuple"
        },
        {
          "internalType": "uint256",
          "name": "repaymentChainId",
          "type": "uint256"
        }
      ],
      "name": "fillV3Relay",
      "outputs": [],
      "stateMutability": "nonpayable",
      "type": "function"
    },
    {
      "inputs": [
        {
          "components": [
            {
              "internalType": "address",
              "name": "depositor",
              "type": "address"
            },
            {
              "internalType": "address",
              "name": "recipient",
              "type": "address"
            },
            {
              "internalType": "address",
              "name": "exclusiveRelayer",
              "type": "address"
            },
            {
              "internalType": "address",
              "name": "inputToken",
              "type": "address"
            },
            {
              "internalType": "address",
              "name": "outputToken",
              "type": "address"
            },
            {
              "internalType": "uint256",
              "name": "inputAmount",
              "type": "uint256"
            },
            {
              "internalType": "uint256",
              "name": "outputAmount",
              "type": "uint256"
            },
            {
              "internalType": "uint256",
              "name": "originChainId",
              "type": "uint256"
            },
            {
              "internalType": "uint32",
              "name": "depositId",
              "type": "uint32"
            },
            {
              "internalType": "uint32",
              "name": "fillDeadline",
              "type": "uint32"
            },
            {
              "internalType": "uint32",
              "name": "exclusivityDeadline",
              "type": "uint32"
            },
            {
              "internalType": "bytes",
              "name": "message",
              "type": "bytes"
            }
          ],
          "internalType": "struct V3SpokePoolInterface.V3RelayData",
          "name": "relayData",
          "type": "tuple"
        },
        {
          "internalType": "uint256",
          "name": "repaymentChainId",
          "type": "uint256"
        },
        {
          "internalType": "uint256",
          "name": "updatedOutputAmount",
          "type": "uint256"
        },
        {
          "internalType": "address",
          "name": "updatedRecipient",
          "type": "address"
        },
        {
          "internalType": "bytes",
          "name": "updatedMessage",
          "type": "bytes"
        },
        {
          "internalType": "bytes",
          "name": "depositorSignature",
          "type": "bytes"
        }
      ],
      "name": "fillV3RelayWithUpdatedDeposit",
      "outputs": [],
      "stateMutability": "nonpayable",
      "type": "function"
    },
    {
      "inputs": [],
      "name": "getCurrentTime",
      "outputs": [
        {
          "internalType": "uint256",
          "name": "",
          "type": "uint256"
        }
      ],
      "stateMutability": "view",
      "type": "function"
    },
    {
      "inputs": [],
      "name": "hubPool",
      "outputs": [
        {
          "internalType": "address",
          "name": "",
          "type": "address"
        }
      ],
      "stateMutability": "view",
      "type": "function"
    },
    {
      "inputs": [
        {
          "internalType": "uint32",
          "name": "_initialDepositId",
          "type": "uint32"
        },
        {
          "internalType": "address",
          "name": "_hubPool",
          "type": "address"
        }
      ],
      "name": "initialize",
      "outputs": [],
      "stateMutability": "nonpayable",
      "type": "function"
    },
    {
      "inputs": [
        {
          "internalType": "bytes[]",
          "name": "data",
          "type": "bytes[]"
        }
      ],
      "name": "multicall",
      "outputs": [
        {
          "internalType": "bytes[]",
          "name": "results",
          "type": "bytes[]"
        }
      ],
      "stateMutability": "nonpayable",
      "type": "function"
    },
    {
      "inputs": [],
      "name": "numberOfDeposits",
      "outputs": [
        {
          "internalType": "uint32",
          "name": "",
          "type": "uint32"
        }
      ],
      "stateMutability": "view",
      "type": "function"
    },
    {
      "inputs": [],
      "name": "owner",
      "outputs": [
        {
          "internalType": "address",
          "name": "",
          "type": "address"
        }
      ],
      "stateMutability": "view",
      "type": "function"
    },
    {
      "inputs": [
        {
          "internalType": "bool",
          "name": "pause",
          "type": "bool"
        }
      ],
      "name": "pauseDeposits",
      "outputs": [],
      "stateMutability": "nonpayable",
      "type": "function"
    },
    {
      "inputs": [
        {
          "internalType": "bool",
          "name": "pause",
          "type": "bool"
        }
      ],
      "name": "pauseFills",
      "outputs": [],
      "stateMutability": "nonpayable",
      "type": "function"
    },
    {
      "inputs": [],
      "name": "pausedDeposits",
      "outputs": [
        {
          "internalType": "bool",
          "name": "",
          "type": "bool"
        }
      ],
      "stateMutability": "view",
      "type": "function"
    },
    {
      "inputs": [],
      "name": "pausedFills",
      "outputs": [
        {
          "internalType": "bool",
          "name": "",
          "type": "bool"
        }
      ],
      "stateMutability": "view",
      "type": "function"
    },
    {
      "inputs": [],
      "name": "proxiableUUID",
      "outputs": [
        {
          "internalType": "bytes32",
          "name": "",
          "type": "bytes32"
        }
      ],
      "stateMutability": "view",
      "type": "function"
    },
    {
      "inputs": [
        {
          "internalType": "bytes32",
          "name": "relayerRefundRoot",
          "type": "bytes32"
        },
        {
          "internalType": "bytes32",
          "name": "slowRelayRoot",
          "type": "bytes32"
        }
      ],
      "name": "relayRootBundle",
      "outputs": [],
      "stateMutability": "nonpayable",
      "type": "function"
    },
    {
      "inputs": [],
      "name": "renounceOwnership",
      "outputs": [],
      "stateMutability": "nonpayable",
      "type": "function"
    },
    {
      "inputs": [
        {
          "components": [
            {
              "internalType": "address",
              "name": "depositor",
              "type": "address"
            },
            {
              "internalType": "address",
              "name": "recipient",
              "type": "address"
            },
            {
              "internalType": "address",
              "name": "exclusiveRelayer",
              "type": "address"
            },
            {
              "internalType": "address",
              "name": "inputToken",
              "type": "address"
            },
            {
              "internalType": "address",
              "name": "outputToken",
              "type": "address"
            },
            {
              "internalType": "uint256",
              "name": "inputAmount",
              "type": "uint256"
            },
            {
              "internalType": "uint256",
              "name": "outputAmount",
              "type": "uint256"
            },
            {
              "internalType": "uint256",
              "name": "originChainId",
              "type": "uint256"
            },
            {
              "internalType": "uint32",
              "name": "depositId",
              "type": "uint32"
            },
            {
              "internalType": "uint32",
              "name": "fillDeadline",
              "type": "uint32"
            },
            {
              "internalType": "uint32",
              "name": "exclusivityDeadline",
              "type": "uint32"
            },
            {
              "internalType": "bytes",
              "name": "message",
              "type": "bytes"
            }
          ],
          "internalType": "struct V3SpokePoolInterface.V3RelayData",
          "name": "relayData",
          "type": "tuple"
        }
      ],
      "name": "requestV3SlowFill",
      "outputs": [],
      "stateMutability": "nonpayable",
      "type": "function"
    },
    {
      "inputs": [
        {
          "internalType": "uint256",
          "name": "",
          "type": "uint256"
        }
      ],
      "name": "rootBundles",
      "outputs": [
        {
          "internalType": "bytes32",
          "name": "slowRelayRoot",
          "type": "bytes32"
        },
        {
          "internalType": "bytes32",
          "name": "relayerRefundRoot",
          "type": "bytes32"
        }
      ],
      "stateMutability": "view",
      "type": "function"
    },
    {
      "inputs": [
        {
          "internalType": "address",
          "name": "newCrossDomainAdmin",
          "type": "address"
        }
      ],
      "name": "setCrossDomainAdmin",
      "outputs": [],
      "stateMutability": "nonpayable",
      "type": "function"
    },
    {
      "inputs": [
        {
          "internalType": "address",
          "name": "originToken",
          "type": "address"
        },
        {
          "internalType": "uint256",
          "name": "destinationChainId",
          "type": "uint256"
        },
        {
          "internalType": "bool",
          "name": "enabled",
          "type": "bool"
        }
      ],
      "name": "setEnableRoute",
      "outputs": [],
      "stateMutability": "nonpayable",
      "type": "function"
    },
    {
      "inputs": [
        {
          "internalType": "address",
          "name": "newHubPool",
          "type": "address"
        }
      ],
      "name": "setHubPool",
      "outputs": [],
      "stateMutability": "nonpayable",
      "type": "function"
    },
    {
      "inputs": [
        {
          "internalType": "address",
          "name": "depositor",
          "type": "address"
        },
        {
          "internalType": "int64",
          "name": "updatedRelayerFeePct",
          "type": "int64"
        },
        {
          "internalType": "uint32",
          "name": "depositId",
          "type": "uint32"
        },
        {
          "internalType": "address",
          "name": "updatedRecipient",
          "type": "address"
        },
        {
          "internalType": "bytes",
          "name": "updatedMessage",
          "type": "bytes"
        },
        {
          "internalType": "bytes",
          "name": "depositorSignature",
          "type": "bytes"
        }
      ],
      "name": "speedUpDeposit",
      "outputs": [],
      "stateMutability": "nonpayable",
      "type": "function"
    },
    {
      "inputs": [
        {
          "internalType": "address",
          "name": "depositor",
          "type": "address"
        },
        {
          "internalType": "uint32",
          "name": "depositId",
          "type": "uint32"
        },
        {
          "internalType": "uint256",
          "name": "updatedOutputAmount",
          "type": "uint256"
        },
        {
          "internalType": "address",
          "name": "updatedRecipient",
          "type": "address"
        },
        {
          "internalType": "bytes",
          "name": "updatedMessage",
          "type": "bytes"
        },
        {
          "internalType": "bytes",
          "name": "depositorSignature",
          "type": "bytes"
        }
      ],
      "name": "speedUpV3Deposit",
      "outputs": [],
      "stateMutability": "nonpayable",
      "type": "function"
    },
    {
      "inputs": [
        {
          "internalType": "address",
          "name": "newOwner",
          "type": "address"
        }
      ],
      "name": "transferOwnership",
      "outputs": [],
      "stateMutability": "nonpayable",
      "type": "function"
    },
    {
      "inputs": [
        {
          "internalType": "address",
          "name": "newImplementation",
          "type": "address"
        }
      ],
      "name": "upgradeTo",
      "outputs": [],
      "stateMutability": "nonpayable",
      "type": "function"
    },
    {
      "inputs": [
        {
          "internalType": "address",
          "name": "newImplementation",
          "type": "address"
        },
        {
          "internalType": "bytes",
          "name": "data",
          "type": "bytes"
        }
      ],
      "name": "upgradeToAndCall",
      "outputs": [],
      "stateMutability": "payable",
      "type": "function"
    },
    {
      "inputs": [],
      "name": "wrappedNativeToken",
      "outputs": [
        {
          "internalType": "contract WETH9Interface",
          "name": "",
          "type": "address"
        }
      ],
      "stateMutability": "view",
      "type": "function"
    },
    {
      "stateMutability": "payable",
      "type": "receive"
    }
  ],
  "numDeployments": 2,
  "solcInputHash": "1afa0bb4f721cd3d7d102fd5d7680a98",
  "bytecode": "0x61010034620001b557601f62005c4d38819003918201601f19168301916001600160401b03831184841017620001b957808492606094604052833981010312620001b55780516001600160a01b0381169190829003620001b5576200007560406200006d60208401620001cd565b9201620001cd565b913060805260a05260c05260e0525f5460ff8160081c16620001605760ff8082160362000125575b604051615a6d9081620001e08239608051818181610cf3015281816111220152611314015260a05181818161087c01528181612ca8015281816137ba01528181613fca015281816142890152818161490d015281816152b601526152dd015260c05181818161148301528181612c4f015261376d015260e0518181816103730152612e8f0152f35b60ff90811916175f557f7f26b83ff96e1f2b6a682f133852f6798a09c465da95921460cefb3847402498602060405160ff8152a15f6200009d565b60405162461bcd60e51b815260206004820152602760248201527f496e697469616c697a61626c653a20636f6e747261637420697320696e697469604482015266616c697a696e6760c81b6064820152608490fd5b5f80fd5b634e487b7160e01b5f52604160045260245ffd5b519063ffffffff82168203620001b55756fe6080604052600436101561001a575b3615610018575f80fd5b005b5f3560e01c8063079bd2c7146103445780630c2097f71461033f5780631186ec331461033a57806315348e44146102d657806317fcb39b146103355780631b3d5559146103305780631dfb2d021461032b578063272751c71461032657806329cb924d146103215780632cfc26c51461031c5780632e378115146103175780633659cfe61461031257806344b8be681461030d578063493a4f84146103085780634e0fb8f5146103035780634f1ef286146102fe5780635249fef1146102f95780635285e058146102f457806352d1902d146102ef578063541f4f14146102ea57806357f6dcb8146102e55780635ceaec32146102e05780636068d6cb146102db5780636bbbcd2e146102d6578063715018a6146102d1578063738b62e5146102cc5780637b939232146102c75780637e688bba146102c25780638624c35c146102bd5780638a7860ce146102b85780638da5cb5b146102b3578063979f2bc2146102ae5780639963e5a8146102a957806399cc2968146102a45780639a8a05921461029f578063a1244c671461029a578063a78e4b6014610295578063ac9650d814610290578063ae527fbb1461028b578063b5e1bf5f14610286578063bbca7db014610281578063c35c83fc1461027c578063ccfa597114610277578063ceb4c98714610272578063dda521131461026d578063ddd224f114610268578063de7eba7814610263578063e19044021461025e578063ee2a53f814610259578063f2fde38b146102545763fd7c10540361000e5761239f565b6122f8565b6122ba565b612240565b612210565b6121e7565b6121c1565b6121a3565b612120565b6120f5565b611ff5565b611fca565b611f47565b611e66565b611d52565b611d2b565b611d11565b611c63565b611a5a565b611965565b61193e565b6118c6565b6117d4565b61174c565b6116a4565b6115f5565b61159a565b610843565b611574565b6114a7565b611467565b6113d3565b6112fa565b6112d3565b611285565b6110dd565b610fc3565b610f0e565b610e7a565b610cca565b610b83565b610b3a565b610b20565b610a81565b610a42565b61096a565b61085d565b6107b3565b61070e565b610357565b5f91031261035357565b5f80fd5b34610353575f36600319011261035357602060405163ffffffff7f0000000000000000000000000000000000000000000000000000000000000000168152f35b6001600160a01b0381160361035357565b600435906103b582610397565b565b602435906103b582610397565b604435906103b582610397565b606435906103b582610397565b35906103b582610397565b60a435908160070b820361035357565b60c435908160070b820361035357565b608435908160070b820361035357565b61010435908160070b820361035357565b61012435908160070b820361035357565b61014435908160070b820361035357565b63ffffffff81160361035357565b60e435906103b58261044c565b61010435906103b58261044c565b61012435906103b58261044c565b61016435906103b58261044c565b61014435906103b58261044c565b35906103b58261044c565b634e487b7160e01b5f52604160045260245ffd5b67ffffffffffffffff81116104d257604052565b6104aa565b6060810190811067ffffffffffffffff8211176104d257604052565b6080810190811067ffffffffffffffff8211176104d257604052565b60a0810190811067ffffffffffffffff8211176104d257604052565b6020810190811067ffffffffffffffff8211176104d257604052565b6040810190811067ffffffffffffffff8211176104d257604052565b60e0810190811067ffffffffffffffff8211176104d257604052565b90601f8019910116810190811067ffffffffffffffff8211176104d257604052565b6040519060c0820182811067ffffffffffffffff8211176104d257604052565b60405190610140820182811067ffffffffffffffff8211176104d257604052565b60405190610180820182811067ffffffffffffffff8211176104d257604052565b604051906103b5826104f3565b604051906103b58261050f565b67ffffffffffffffff81116104d257601f01601f191660200190565b9291926106458261061d565b91610653604051938461057f565b829481845281830111610353578281602093845f960137010152565b9080601f830112156103535781602061068a93359101610639565b90565b67ffffffffffffffff81116104d25760051b60200190565b92916106b08261068d565b916106be604051938461057f565b829481845260208094019160051b810192831161035357905b8282106106e45750505050565b813581529083019083016106d7565b9080601f830112156103535781602061068a933591016106a5565b34610353576101803660031901126103535760043561072c81610397565b6107346103b7565b9061073d6103c4565b6107456103e9565b9261074e6103f9565b61075661045a565b61075e610467565b91610124359667ffffffffffffffff978881116103535761078390369060040161066f565b9461016435988911610353576107a06100189936906004016106f3565b976101443597608435926064359261242e565b610100366003190112610353576004356107cc81610397565b602435906107d982610397565b6107e1610409565b60a435906107ee8261044c565b60c4359367ffffffffffffffff85116103535761081261083c95369060040161066f565b9361081b6134fb565b61082e60ff61086b5460e81c161561253d565b6064359160443591336136da565b6001606555005b34610353575f3660031901126103535760206040515f8152f35b34610353575f3660031901126103535760206040516001600160a01b037f0000000000000000000000000000000000000000000000000000000000000000168152f35b9080601f830112156103535760209082356108ba8161068d565b936108c8604051958661057f565b81855260208086019260051b82010192831161035357602001905b8282106108f1575050505090565b813581529083019083016108e3565b9080601f8301121561035357602090823561091a8161068d565b93610928604051958661057f565b81855260208086019260051b82010192831161035357602001905b828210610951575050505090565b838091833561095f81610397565b815201910190610943565b600319606036820112610353576004356109838161044c565b60243567ffffffffffffffff928382116103535760c0908236030112610353576109ab6105a1565b9080600401358252602481013560208301526044810135848111610353576109d990600436918401016108a0565b60408301526109ea6064820161049f565b60608301526109fb608482016103de565b608083015260a481013590848211610353576004610a1c9236920101610900565b60a082015260443592831161035357610a3c6100189336906004016106f3565b91612588565b346103535760203660031901126103535761083c600435610a6281610397565b610a6a614e94565b610a726134fb565b613b25565b8015150361035357565b3461035357606036600319011261035357600435610a9e81610397565b602435907f0a21fdd43d0ad0c62689ee7230a47309a050755bcc52eba00310add65297692a60206001600160a01b0360443593610ada85610a77565b610ae2614e94565b610aea6134fb565b1692835f5261086d825260405f20855f52825260405f209015159060ff1981541660ff8316179055604051908152a36001606555005b34610353575f366003190112610353576020604051428152f35b34610353575f3660031901126103535760206040517f152eb71524aef34d838ab76573c14b1ebfa5e385d9ab29d7cf5398daa2438bd98152f35b90816101809103126103535790565b346103535760403660031901126103535760043567ffffffffffffffff811161035357610bb4903690600401610b74565b610bbc6134fb565b610bcf60ff61086b5460e01c1615612772565b610bdc61014082016127bd565b63ffffffff429116101580610cac575b610c8257610c7890610c64610c09610c0436846127d1565b613c7d565b9160c0610c5d610c1b602084016127c7565b610c296101608501856128b1565b939094610c346105a1565b97610c3f36836127d1565b89526020890152013560408701526001600160a01b03166060860152565b3691610639565b608082015260243560a08201523390613dd0565b6100186001606555565b60046040517fc3a9b9d0000000000000000000000000000000000000000000000000000000008152fd5b50610cb9604082016127c7565b6001600160a01b0316331415610bec565b3461035357602036600319011261035357600435610ce781610397565b6001600160a01b0390817f00000000000000000000000000000000000000000000000000000000000000001691610d20833014156128e4565b610d4f7f360894a13ba1a3210667c828492db98dca3e2076cc3735a920a3ca505d382bbc938285541614612955565b610d57614e94565b60405190610d648261052b565b5f82527f4910fdfa16fed3260ed0e7147f7cc6da11a60208b5b9406d12a635614ffd91435460ff1615610d9d5750506100189150615544565b6020600491604094939451928380926352d1902d60e01b825286165afa5f9181610e49575b50610e365760405162461bcd60e51b815260206004820152602e60248201527f45524331393637557067726164653a206e657720696d706c656d656e7461746960448201527f6f6e206973206e6f7420555550530000000000000000000000000000000000006064820152608490fd5b0390fd5b61001893610e449114614390565b615423565b610e6c91925060203d602011610e73575b610e64818361057f565b810190614381565b905f610dc2565b503d610e5a565b346103535761018036600319011261035357600435610e9881610397565b602435610ea481610397565b604435610eb081610397565b60e4358060070b810361035357610ec5610419565b610ecd610475565b91610144359567ffffffffffffffff871161035357610ef361001897369060040161066f565b94610164359660c4359260a4359260843592606435926129c6565b3461035357604036600319011261035357602435600435610f2d614e94565b610f356134fb565b61086c8054680100000000000000008110156104d25763ffffffff9160018201905583610f618261227b565b5084600182015555167fc86ba04c55bc5eb2f2876b91c438849a296dbec7b08751c3074d92e04f0a77af5f80a46001606555005b9181601f840112156103535782359167ffffffffffffffff8311610353576020838186019501011161035357565b346103535760c036600319011261035357600435610fe081610397565b60243590610fed8261044c565b604435606435610ffc81610397565b67ffffffffffffffff916084358381116103535761101e903690600401610f95565b93909460a435918211610353576110c163ffffffff7fb0a29aed3d389a1041194255878b423f7780be3ed2324d4693508c6ff189845e966110666110d3953690600401610f95565b9390996110716134fb565b6110988c8c8b8b61108f611086368a89610639565b938b3691610639565b9346908c614d99565b6001600160a01b0392836040519a8b9a8b521660208a0152608060408a01526080890191612ac0565b93868503606088015216981696612ac0565b0390a36001606555005b6040366003190112610353576004356110f581610397565b60243567ffffffffffffffff81116103535761111590369060040161066f565b906001600160a01b0391827f0000000000000000000000000000000000000000000000000000000000000000169261114f843014156128e4565b61117e7f360894a13ba1a3210667c828492db98dca3e2076cc3735a920a3ca505d382bbc948286541614612955565b611186614e94565b7f4910fdfa16fed3260ed0e7147f7cc6da11a60208b5b9406d12a635614ffd91435460ff16156111bc5750506100189150615544565b6020600491604094939451928380926352d1902d60e01b825286165afa5f9181611264575b506112515760405162461bcd60e51b815260206004820152602e60248201527f45524331393637557067726164653a206e657720696d706c656d656e7461746960448201527f6f6e206973206e6f7420555550530000000000000000000000000000000000006064820152608490fd5b6100189361125f9114614390565b6154f2565b61127e91925060203d602011610e7357610e64818361057f565b905f6111e1565b34610353576040366003190112610353576001600160a01b036004356112aa81610397565b165f5261086d60205260405f206024355f52602052602060ff60405f2054166040519015158152f35b34610353575f3660031901126103535760206001600160a01b036108695416604051908152f35b34610353575f366003190112610353576001600160a01b037f0000000000000000000000000000000000000000000000000000000000000000163003611369576040517f360894a13ba1a3210667c828492db98dca3e2076cc3735a920a3ca505d382bbc8152602090f35b0390f35b608460405162461bcd60e51b815260206004820152603860248201527f555550535570677261646561626c653a206d757374206e6f742062652063616c60448201527f6c6564207468726f7567682064656c656761746563616c6c00000000000000006064820152fd5b610120366003190112610353576004356113ec81610397565b6024356113f881610397565b6044359061140582610397565b61140d6103e9565b60c4359161141a8361044c565b60e4359467ffffffffffffffff86116103535761143e61083c96369060040161066f565b946114476134fb565b61145a60ff61086b5460e81c161561253d565b60843592606435926136da565b34610353575f36600319011261035357602060405163ffffffff7f0000000000000000000000000000000000000000000000000000000000000000168152f35b3461035357610200366003190112610353576114c16103a8565b6114c96103b7565b906114d26103c4565b916114db6103d1565b926114e4610419565b936114ed61042a565b6114f561043b565b6114fd610483565b91610184359767ffffffffffffffff988981116103535761152290369060040161066f565b946101a4358a81116103535761153c90369060040161066f565b966101c4359a8b11610353576115596100189b369060040161066f565b986101e4359a60e4359360c4359360a4359360843593612ae0565b34610353575f36600319011261035357602060ff61086b5460e81c166040519015158152f35b34610353575f366003190112610353576115b2614e94565b5f6001600160a01b03610c8c8054906001600160a01b031982169055167f8be0079c531659141344cd1fd0a4f28419497f9722a3daafe3b4186f6b6457e08280a3005b34610353576020366003190112610353577fe88463c2f254e2b070013a2dc7ee1e099f9bc00534cbdf03af551dc26ae49219602060043561163581610a77565b61163d614e94565b6116456134fb565b151561086b80547fffff00ffffffffffffffffffffffffffffffffffffffffffffffffffffffffff7dff00000000000000000000000000000000000000000000000000000000008460e81b169116179055604051908152a16001606555005b610180366003190112610353576004356116bd81610397565b602435906116ca82610397565b6044356116d681610397565b606435906116e382610397565b60e4356116ef81610397565b610104356116fc8161044c565b610124359161170a8361044c565b611712610491565b93610164359767ffffffffffffffff891161035357611738610018993690600401610f95565b98909760c4359360a4359360843593612bdc565b346103535760c03660031901126103535760043561176981610397565b602435908160070b820361035357604435916117848361044c565b60643561179081610397565b67ffffffffffffffff93608435858111610353576117b290369060040161066f565b9260a435958611610353576117ce61001896369060040161066f565b94612fcc565b34610353576040366003190112610353576004356117f18161044c565b61183e60243561180081610397565b5f549261182460ff8560081c1615809581966118b8575b8115611898575b506130c3565b83611835600160ff195f5416175f55565b61188157613134565b61184457005b61185261ff00195f54165f55565b604051600181527f7f26b83ff96e1f2b6a682f133852f6798a09c465da95921460cefb384740249890602090a1005b61189361010061ff00195f5416175f55565b613134565b303b159150816118aa575b505f61181e565b6001915060ff16145f6118a3565b600160ff8216109150611817565b34610353576020366003190112610353576004356118e2614e94565b6118ea6134fb565b6118f38161227b565b61192b576001815f80935501557f3569b846531b754c99cb80df3f49cd72fa6fe106aaee5ab8e0caf35a9d7ce88d5f80a26001606555005b634e487b7160e01b5f525f60045260245ffd5b34610353575f3660031901126103535760206001600160a01b03610c8c5416604051908152f35b34610353576060366003190112610353576100186004356119858161044c565b610a7260243561199481610397565b6119d7604435936119a485610397565b6119b460ff5f5460081c166131db565b61086b9063ffffffff60c01b1963ffffffff60c01b83549260c01b169116179055565b6040516119e381610547565b6009815260208101906820a1a927a9a996ab1960b91b825260405191611a0883610547565b600583526020830191640312e302e360dc1b8352611a3560ff5f5460081c16611a30816131db565b6131db565b519020915190209061047f5561048055611a4d614fa1565b611a55614fb1565b614fcc565b346103535760203660031901126103535760043567ffffffffffffffff811161035357611a8b903690600401610b74565b611a936134fb565b611aa660ff61086b5460e01c1615612772565b610140810190611ab5826127bd565b63ffffffff90814291161015611c395761012082019042611ae1611ad8846127bd565b63ffffffff1690565b10611c0f57611af3610c0436856127d1565b91611b07835f5261087260205260405f2090565b54611be557611b49611b437f923794976d026d6b119735adc163cb71decfc903e17c3dc226c00789593c04e1945f5261087260205260405f2090565b60019055565b611bd8611b58606086016127c7565b95611b65608087016127c7565b95611b85611b7f611b7961010084016127bd565b956127bd565b926127bd565b611b91604083016127c7565b611b9a836127c7565b90611ba7602085016127c7565b92611bb66101608601866128b1565b9690956040519a8b9a169d60e08201359d60a060c0840135930135918c61326f565b0390a36100186001606555565b60046040517f012f9e44000000000000000000000000000000000000000000000000000000008152fd5b60046040517fd642b7d9000000000000000000000000000000000000000000000000000000008152fd5b60046040517f09deb9ec000000000000000000000000000000000000000000000000000000008152fd5b34610353576020366003190112610353577f2d5b62420992e5a4afce0e77742636ca2608ef58289fd2e1baa5161ef6e7e41e6020600435611ca381610a77565b611cab614e94565b611cb36134fb565b151561086b80547fffffff00ffffffffffffffffffffffffffffffffffffffffffffffffffffffff7cff000000000000000000000000000000000000000000000000000000008460e01b169116179055604051908152a16001606555005b34610353575f366003190112610353576020604051468152f35b34610353575f36600319011261035357602063ffffffff61086b5460c01c16604051908152f35b34610353575f3660031901126103535760206040517f0e058f05b73c62ee68329d2c67c067aaae9a06503cc306378d144d0f0177882b8152f35b9181601f840112156103535782359167ffffffffffffffff8311610353576020808501948460051b01011161035357565b5f5b838110611dce5750505f910152565b8181015183820152602001611dbf565b90602091611df781518092818552858086019101611dbd565b601f01601f1916010190565b6020808201906020835283518092526040830192602060408460051b8301019501935f915b848310611e385750505050505090565b9091929394958480611e56600193603f198682030187528a51611dde565b9801930193019194939290611e28565b34610353576020366003190112610353576004803567ffffffffffffffff811161035357611e98903690600401611d8c565b91611ea2836132d7565b925f5b818110611eba57604051806113658782611e03565b5f80611ec7838588613320565b60409391611ed985518093819361333b565b0390305af490611ee7613348565b9115611f0e575090600191611efc82886133e7565b52611f0781876133e7565b5001611ea5565b8482604481511061035357611f328183610e32930151602480918301019101613377565b925192839262461bcd60e51b845283016133d6565b60e036600319011261035357600435611f5f81610397565b602435611f6b81610397565b611f73610409565b9160a4359267ffffffffffffffff841161035357611f9861083c94369060040161066f565b92611fa16134fb565b611fb460ff61086b5460e81c161561253d565b63ffffffff4216926064359160443591336136da565b34610353575f366003190112610353576020604051701d6329f1c35ca4bfabb9f56100000000008152f35b34610353576003196060368201126103535760043567ffffffffffffffff8082116103535760608236039384011261035357602435906120348261044c565b6044359081116103535761204c903690600401611d8c565b9190936120576134fb565b600484013590610182190181121561035357610c78946120f0936120846120e993600436918901016127d1565b956120d761209188613c7d565b9160446120a860208b01516001600160a01b031690565b916101608b0151946120b86105a1565b9b8c5260208c0152013560408a01526001600160a01b03166060890152565b60808701525f60a087015236916106a5565b9083615058565b6140ca565b34610353576020366003190112610353576004355f52610872602052602060405f2054604051908152f35b346103535760c03660031901126103535767ffffffffffffffff60043581811161035357612152903690600401610b74565b6064359061215f82610397565b60843583811161035357612177903690600401610f95565b9060a43594851161035357612193610018953690600401610f95565b94909360443590602435906133fb565b34610353575f36600319011261035357602060405163ffffffff8152f35b34610353575f36600319011261035357602060ff61086b5460e01c166040519015158152f35b34610353575f3660031901126103535760206040516ec097ce7bc90715b34b9f10000000008152f35b346103535760203660031901126103535761083c60043561223081610397565b612238614e94565b611a556134fb565b34610353575f3660031901126103535760206001600160a01b0361086a5416604051908152f35b634e487b7160e01b5f52603260045260245ffd5b61086c9081548110156122b5576003915f52027f71cd7344f4eb2efc8e30291f6dbdb44d618ca368ea5425d217c1d604bf26b84d01905f90565b612267565b346103535760203660031901126103535760043561086c54811015610353576122e460409161227b565b506001815491015482519182526020820152f35b346103535760203660031901126103535760043561231581610397565b61231d614e94565b6001600160a01b038116156123355761001890614eed565b608460405162461bcd60e51b815260206004820152602660248201527f4f776e61626c653a206e6577206f776e657220697320746865207a65726f206160448201527f64647265737300000000000000000000000000000000000000000000000000006064820152fd5b610100366003190112610353576004356123b881610397565b602435906123c582610397565b6044356123d181610397565b6123d96103e9565b60c4359367ffffffffffffffff8511610353576123fd61083c95369060040161066f565b936124066134fb565b61241960ff61086b5460e81c161561253d565b63ffffffff42169360843592606435926136da565b9a98959391999694929097996124426134fb565b61244a6105c1565b6001600160a01b03909c168c526001600160a01b03891660208d01526001600160a01b031660408c015260608b015260808a01524660a08a015260070b60c089015260070b60e088015263ffffffff16610100878101919091526101209180838901526124b56105c1565b9788525f6020890181815260408a01919091526001600160a01b03909516606089015260808801525f60a0880152701d6329f1c35ca4bfabb9f561000000000060c08801525f1960e088015260019087015285015283516125159061449f565b905261252191836150e8565b61252a81614753565b61253391614c43565b6103b56001606555565b1561254457565b606460405162461bcd60e51b815260206004820152600f60248201527f506175736564206465706f7369747300000000000000000000000000000000006044820152fd5b91906125926134fb565b6020810191825146036126a2576125ba6125be918360016125b28861227b565b500154613900565b1590565b612691577ff8bd640004bcec1b89657020f561d0b070cbdf662d0b158db9dccb0a8301bfab60608201926125ff6125f9855163ffffffff1690565b866139c0565b805161268484519261266961265b604088019761264b8951966126268c5163ffffffff1690565b97608084019861263d8a516001600160a01b031690565b9160a086019b8c5194613a2d565b5192519751985163ffffffff1690565b93516001600160a01b031690565b935163ffffffff9485604051968796169a16983393866126cc565b0390a46103b56001606555565b600460405163582f497d60e11b8152fd5b60046040517f7a47c9a2000000000000000000000000000000000000000000000000000000008152fd5b95949392919060a0870190875260209060a08289015282518091528160c089019301905f5b81811061275e575050506001600160a01b03809316604088015286820360608801528080855193848152019401925f905b8382106127455750505050509060806103b5929401906001600160a01b03169052565b8451811686529482019493820193600190910190612722565b8251855293830193918301916001016126f1565b1561277957565b606460405162461bcd60e51b815260206004820152600c60248201527f5061757365642066696c6c7300000000000000000000000000000000000000006044820152fd5b3561068a8161044c565b3561068a81610397565b919061018083820312610353576127e66105e2565b926127f0816103de565b84526127fe602082016103de565b602085015261280f604082016103de565b6040850152612820606082016103de565b6060850152612831608082016103de565b608085015260a081013560a085015260c081013560c085015260e081013560e085015261010061286281830161049f565b9085015261012061287481830161049f565b9085015261014061288681830161049f565b90850152610160918282013567ffffffffffffffff8111610353576128ab920161066f565b90830152565b903590601e1981360301821215610353570180359067ffffffffffffffff82116103535760200191813603831361035357565b156128eb57565b608460405162461bcd60e51b815260206004820152602c60248201527f46756e6374696f6e206d7573742062652063616c6c6564207468726f7567682060448201527f64656c656761746563616c6c00000000000000000000000000000000000000006064820152fd5b1561295c57565b608460405162461bcd60e51b815260206004820152602c60248201527f46756e6374696f6e206d7573742062652063616c6c6564207468726f7567682060448201527f6163746976652070726f787900000000000000000000000000000000000000006064820152fd5b9a9692909897999395916129d86134fb565b61086b5460e01c60ff16156129ec90612772565b6129f46105c1565b6001600160a01b03909c168c526001600160a01b038a1660208d01526001600160a01b031660408c015260608b015260808a01524660a08a015260070b60c0890152600787900b60e08901526101009485890190612a57919063ffffffff169052565b6101209581878a0152612a686105c1565b9889525f60208a0190815260079890980b60408a01526001600160a01b03166060890152608088015260a087015260c086015260e085015283015f905282015f90528151612ab59061449f565b905261252a81614753565b908060209392818452848401375f828201840152601f01601f1916010190565b9d9c9b959e9390928e9799939b98929b612af86134fb565b61086b5460e01c60ff1615612b0c90612772565b612b146105c1565b6001600160a01b0390991689526001600160a01b031660208901526001600160a01b031660408801526060870152608086018890524660a087015260070b60c086015260070b60e085015263ffffffff851661010085810191909152916101209384860152612b816105c1565b9485525f60208601908152600789900b60408701526001600160a01b038a166060870152949c8d8b608082015260a0015260c08d015260e08c01528a015f905289015f90528851612bd19061449f565b905261252196614e1c565b979b95999196939b9a949890929a612bf26134fb565b61086b998a5460e81c60ff1615612c089061253d565b8b612c258a6001600160a01b03165f5261086d60205260405f2090565b5f918252602052604090205460ff1615612ee75763ffffffff9d8e612c4c81851642612f25565b907f00000000000000000000000000000000000000000000000000000000000000001610612ebd578e808516428110918215612e87575b5050612e5d578e9b6001600160a01b039c8d891690871690818117612df7575b50508c7f0000000000000000000000000000000000000000000000000000000000000000168d8c1681811480612dee575b15612dd45750823403612daa57803b15610353575f60049160405192838092630d0e30db60e41b825234905af18015612da557612d8c575b505b5460c01c63ffffffff169e8f612d2390612f4f565b612d4a9061086b9063ffffffff60c01b1963ffffffff60c01b83549260c01b169116179055565b6040519c8d9c169f169d612d5e9a8c612f64565b037fa123dc29aebf7d0c3322c8eeb5b999e859f39937950ed31056532713d0de396f91a46103b56001606555565b80612d99612d9f926104be565b80610349565b5f612d0c565b612f44565b60046040517f6452a35d000000000000000000000000000000000000000000000000000000008152fd5b905034612daa5782612de99130903390614f35565b612d0e565b50341515612cd4565b15612e33574211612e09575f80612ca3565b60046040517f25a63a5b000000000000000000000000000000000000000000000000000000008152fd5b60046040517f495d907f000000000000000000000000000000000000000000000000000000008152fd5b60046040517f582e3889000000000000000000000000000000000000000000000000000000008152fd5b612eb59192507f00000000000000000000000000000000000000000000000000000000000000001642612f37565b108f80612c83565b60046040517ff722177f000000000000000000000000000000000000000000000000000000008152fd5b60046040517f2a58c4f3000000000000000000000000000000000000000000000000000000008152fd5b634e487b7160e01b5f52601160045260245ffd5b91908203918211612f3257565b612f11565b91908201809211612f3257565b6040513d5f823e3d90fd5b63ffffffff809116908114612f325760010190565b6001600160a01b03918216815291811660208301526040820192909252606081019290925263ffffffff928316608083015292821660a0820152921660c083015291821660e08201529116610100820152610140610120820181905261068a93910191612ac0565b61306e9063ffffffff7fa6aa57bd282fc82378458de27be4eadfa791a0c7321c49562eeba8b2643dd566959497966130026134fb565b6130308882888860070b986130286706f05b59d3b200006130228c614f92565b10613078565b468e89614e1c565b61305c6001600160a01b0391826040519889988952166020880152608060408801526080870190611dde565b92858403606087015216971695611dde565b0390a36001606555565b1561307f57565b606460405162461bcd60e51b815260206004820152601360248201527f496e76616c69642072656c6179657220666565000000000000000000000000006044820152fd5b156130ca57565b608460405162461bcd60e51b815260206004820152602e60248201527f496e697469616c697a61626c653a20636f6e747261637420697320616c72656160448201527f647920696e697469616c697a65640000000000000000000000000000000000006064820152fd5b906131596103b59261315060ff5f5460081c16611a30816131db565b6119a433614eed565b60405161316581610547565b6009815260208101906820a1a927a9a996ab1960b91b82526040519161318a83610547565b600583526020830191640312e302e360dc1b83526131b260ff5f5460081c16611a30816131db565b519020915190209061047f55610480556131ca614fa1565b6131d2614fb1565b610a7281614fcc565b156131e257565b608460405162461bcd60e51b815260206004820152602b60248201527f496e697469616c697a61626c653a20636f6e7472616374206973206e6f74206960448201527f6e697469616c697a696e670000000000000000000000000000000000000000006064820152fd5b634e487b7160e01b5f52602160045260245ffd5b6003111561326a57565b61324c565b969091939792959461068a9b9995610140996001600160a01b0398898098818098168d521660208c015260408b015260608a015263ffffffff80921660808a01521660a08801521660c08601521660e084015216610100820152816101208201520191612ac0565b906132e18261068d565b6132ee604051918261057f565b82815280926132ff601f199161068d565b01905f5b82811061330f57505050565b806060602080938501015201613303565b908210156122b5576133379160051b8101906128b1565b9091565b908092918237015f815290565b3d15613372573d906133598261061d565b91613367604051938461057f565b82523d5f602084013e565b606090565b6020818303126103535780519067ffffffffffffffff8211610353570181601f820112156103535780516133aa8161061d565b926133b8604051948561057f565b818452602082840101116103535761068a9160208085019101611dbd565b90602061068a928181520190611dde565b80518210156122b55760209160051b010190565b94909693956134086134fb565b61341b60ff61086b5460e01c1615612772565b61342861014087016127bd565b63ffffffff4291161015806134dd575b610c825761344636876127d1565b61344f90613c7d565b976134586105a1565b9861346336896127d1565b8a5260208a0152604089018490526001600160a01b03851660608a015261348b36848a610639565b60808a015260a089015261349e866127c7565b966134ac61010088016127bd565b9236906134b892610639565b9436906134c492610639565b9460e00135906134d396614d99565b3361253391613dd0565b506134ea604087016127c7565b6001600160a01b0316331415613438565b60026065541461350c576002606555565b606460405162461bcd60e51b815260206004820152601f60248201527f5265656e7472616e637947756172643a207265656e7472616e742063616c6c006044820152fd5b1561355757565b606460405162461bcd60e51b815260206004820152600e60248201527f44697361626c656420726f7574650000000000000000000000000000000000006044820152fd5b156135a257565b606460405162461bcd60e51b815260206004820152601060248201527f416d6f756e7420746f6f206c61726765000000000000000000000000000000006044820152fd5b156135ed57565b606460405162461bcd60e51b815260206004820152601660248201527f696e76616c69642071756f746554696d657374616d70000000000000000000006044820152fd5b1561363857565b606460405162461bcd60e51b815260206004820152601b60248201527f6d73672e76616c7565206d757374206d6174636820616d6f756e7400000000006044820152fd5b929361068a9695919294610140956001600160a01b0380951686525f60208701526040860152606085015263ffffffff809116608085015260a08401525f60c08401521660e08201525f610100820152816101208201520190611dde565b919596939492909261372161371c613715886137088b6001600160a01b03165f5261086d60205260405f2090565b905f5260205260405f2090565b5460ff1690565b613550565b60070b9361373a6706f05b59d3b2000061302287614f92565b6137556ec097ce7bc90715b34b9f100000000083111561359b565b63ffffffff9361379461376a868b1642612f25565b867f00000000000000000000000000000000000000000000000000000000000000001610156135e6565b61086b5460c01c63ffffffff16986137ae6119b48b612f4f565b6001600160a01b0395867f00000000000000000000000000000000000000000000000000000000000000001694878b16868114806138bb575b1561387e57506137f8813414613631565b853b15610353575f60049660405197888092630d0e30db60e41b825234905af18015612da5577fa123dc29aebf7d0c3322c8eeb5b999e859f39937950ed31056532713d0de396f99613866976138559261386b575b505b826151ad565b91604051988998169c169a8761367c565b0390a4565b80612d99613878926104be565b5f61384d565b61386696507fa123dc29aebf7d0c3322c8eeb5b999e859f39937950ed31056532713d0de396f996138b6836138559330903390614f35565b61384f565b503415156137e7565b9081518082526020808093019301915f5b8281106138e3575050505090565b83516001600160a01b0316855293810193928101926001016138d5565b6040805160208082018181528551838501528186015160608401529285015160c0608084015280516101008401819052610120840198979692918201915f5b8281106139ac57505050508161399561068a979860a08461396f60606139a39701518387019063ffffffff169052565b60808101516001600160a01b031660c08601520151838203603f190160e08501526138c4565b03601f19810183528261057f565b519020916151e3565b83518b52998101999281019260010161393f565b6139cb60029161227b565b500162ffffff8260081c16805f5281602052600160ff60405f205494161b8080941614613a03575f5260205260405f20908154179055565b60046040517f954476d9000000000000000000000000000000000000000000000000000000008152fd5b9294939190938051825103613afb578151915f5b838110613aad575050505082613a58575b50505050565b6001600160a01b0381613a8c7f828fc203220356df8f072a91681caee7d5c75095e2a95e80ed5a14b384697f719386615282565b6040805195865233602087015291169463ffffffff1693a45f808080613a52565b80613aba600192846133e7565b5180613ac8575b5001613a41565b613af590613ae6613ad984886133e7565b516001600160a01b031690565b6001600160a01b038916615234565b5f613ac1565b60046040517fcd298b38000000000000000000000000000000000000000000000000000000008152fd5b6001600160a01b03168015613b6d5761086a816001600160a01b03198254161790557f1f17a88f67b0f49060a34bec1a4723a563620e6aa265eb640b5046dcee0759a05f80a2565b606460405162461bcd60e51b815260206004820152601460248201527f4261642068756220706f6f6c20616464726573730000000000000000000000006044820152fd5b80516001600160a01b0316825261068a91610180906020838101516001600160a01b0316908201526040838101516001600160a01b0316908201526060838101516001600160a01b0316908201526080838101516001600160a01b03169082015260a083015160a082015260c083015160c082015260e083015160e0820152613c48610100808501519083019063ffffffff169052565b6101208381015163ffffffff16908201526101408381015163ffffffff16908201528161016080940151938201520190611dde565b604051613cae81613c9a6020820194604086526060830190613bb1565b46604083015203601f19810183528261057f565b51902090565b613cbd82613260565b52565b906001600160a01b038251168152606080613cea6020850151608060208601526080850190611dde565b9360408101516040850152015191613d0183613260565b015290565b9a97909695613d849661068a9d9b9660808e613d7398613d939e986101809d6001600160a01b03998a80921685521660208401526040830152606082015201528c60a063ffffffff8094169101521660c08c01521660e08a01526101008901906001600160a01b03169052565b6001600160a01b0316610120870152565b80610140860152840190611dde565b91610160818403910152613cc0565b9061068a94936080936001600160a01b03809316845260208401521660408201528160608201520190611dde565b805191610120830190613de7825163ffffffff1690565b63ffffffff42911610611c0f5760208301516001613e0e825f5261087260205260405f2090565b54036140c3576001905b6002613e2d825f5261087260205260405f2090565b541461409957613e46905f5261087260205260405f2090565b6002905560608501516001600160a01b031660808601516001600160a01b03169260a0870151918660c0890151948960a08301519660e082015197610100830151613e949063ffffffff1690565b9a5163ffffffff1661014084015163ffffffff16906040850151613ebe906001600160a01b031690565b928551613ed1906001600160a01b031690565b946020870151613ee7906001600160a01b031690565b9661016001519760608a0151613f03906001600160a01b031690565b996080810151906040015190613f17610603565b6001600160a01b03909c168c5260208c015260408b0152613f3b9060608b01613cb4565b6040519b6001600160a01b038d9c169f63ffffffff169e613f5c9b8d613d06565b037f571749edf1d5c9599318cdbc4e28a6475d65e87fd3b2ddbe1e9a8d5e7a0f0ff791a460608101516001600160a01b031691829033821480614091575b613a5257608001516001600160a01b03169260806040840151936001600160a01b03861685856001600160a01b037f00000000000000000000000000000000000000000000000000000000000000001683145f1461408157506140009130903390614f35565b61400a858461529b565b0151913b151580614077575b6140205750505050565b803b156103535761404d935f809460405196879586948593633a5be8cb60e01b8552339160048601613da2565b03925af18015612da557614064575b808080613a52565b80612d99614071926104be565b5f61405c565b5081511515614016565b61408c923390614f35565b61400a565b506001613f9a565b60046040517f8f260c60000000000000000000000000000000000000000000000000000000008152fd5b5f90613e18565b905f825161012081016140e1815163ffffffff1690565b63ffffffff42911610611c0f5760208501516002614108825f5261087260205260405f2090565b541461409957614121905f5261087260205260405f2090565b6002905560608201516001600160a01b031660808301516001600160a01b03169060a08401519260c0850151918860a0810151938760e08101519561010082015161416f9063ffffffff1690565b955163ffffffff1661014083015163ffffffff1660408401516001600160a01b03169184516141a4906001600160a01b031690565b9360208601516141ba906001600160a01b031690565b9561016001519660608901516141d6906001600160a01b031690565b9860808101519060400151906141ea610603565b6001600160a01b03909b168b5260208b015260408a0152600260608a01526040519d63ffffffff8f9c169d61421f9b8d613d06565b037f571749edf1d5c9599318cdbc4e28a6475d65e87fd3b2ddbe1e9a8d5e7a0f0ff7905f94a460608401516001600160a01b0316906001600160a01b0394858316918233148061437a575b61437157608001516001600160a01b03169060408101519687818416917f00000000000000000000000000000000000000000000000000000000000000001682145f1461435a57906080929187614346575b6142c791508561529b565b0151923b15158061433c575b6142e0575b505050509050565b813b15614338578361430c959660405196879586948593633a5be8cb60e01b8552339160048601613da2565b03925af18015612da557614325575b80808084936142d8565b80612d99614332926104be565b5f61431b565b8380fd5b50825115156142d3565b6143539130903390614f35565b5f886142bc565b60809291965061436c90865f98615234565b6142c7565b50505050509050565b505f61426a565b90816020910312610353575190565b1561439757565b608460405162461bcd60e51b815260206004820152602960248201527f45524331393637557067726164653a20756e737570706f727465642070726f7860448201527f6961626c655555494400000000000000000000000000000000000000000000006064820152fd5b80516001600160a01b0316825261068a91610140906020838101516001600160a01b0316908201526040838101516001600160a01b031690820152606083015160608201526080830151608082015260a083015160a082015261446e60c084015160c083019060070b9052565b60e08381015160070b908201526101008381015163ffffffff16908201528161012080940151938201520190611dde565b604051613cae816139956020820194602086526040830190614401565b156144c357565b606460405162461bcd60e51b815260206004820152600c60248201527f696e76616c6964206665657300000000000000000000000000000000000000006044820152fd5b1561450e57565b606460405162461bcd60e51b815260206004820152600c60248201527f72656c61792066696c6c656400000000000000000000000000000000000000006044820152fd5b9060070b9060070b0190677fffffffffffffff198212677fffffffffffffff831317612f3257565b1561458157565b606460405162461bcd60e51b815260206004820152601960248201527f66696c6c20616d6f756e742070726520666565732069732030000000000000006044820152fd5b156145cc57565b606460405162461bcd60e51b815260206004820152601d60248201527f7061796f757441646a7573746d656e7450637420746f6f20736d616c6c0000006044820152fd5b1561461757565b606460405162461bcd60e51b815260206004820152601d60248201527f7061796f757441646a7573746d656e7450637420746f6f206c617267650000006044820152fd5b7f80000000000000000000000000000000000000000000000000000000000000008114612f32575f0390565b1561468e57565b606460405162461bcd60e51b815260206004820152601c60248201527f536f6d65686f7720686974206d6178546f6b656e73546f53656e6421000000006044820152fd5b156146d957565b606460405162461bcd60e51b815260206004820152601760248201527f696e76616c69642072657061796d656e7420636861696e0000000000000000006044820152fd5b919360a09361068a96956001600160a01b0380941685526020850152151560408401521660608201528160808201520190611dde565b9081519160408101926147936706f05b59d3b200008061478561478061477a895160070b90565b60070b90565b614f92565b109081614b60575b506144bc565b606081016147b36ec097ce7bc90715b34b9f10000000008251111561359b565b60208301906147d86147cf83515f5261086e60205260405f2090565b54825111614507565b60c084019283519661480860c08301986148026147f68b5160070b90565b845160070b5b90614552565b906155f1565b9761481489151561457a565b614834845161482d87515f5261086e60205260405f2090565b5490612f25565b898110614b56575b5061477a614863926147fc61485561485d945160070b90565b915160070b90565b886151ad565b936101208601805180614b01575b50505060a08501518786519160a083015114918215614af3575b50508015614ada575b61489d906146d2565b6148b183515f5261086e60205260405f2090565b6148bc888254612f37565b905560608501916148d483516001600160a01b031690565b926001600160a01b0392838516331480614ac3575b614ab957906040614976920194878561490988516001600160a01b031690565b16917f000000000000000000000000000000000000000000000000000000000000000087168303614a68575050506149486125ba6101008a0151151590565b614a42575b613ad98761497161496584516001600160a01b031690565b6001600160a01b031690565b61529b565b91823b151580614a34575b61498f575b50505050505050565b6149a86149b9916080941694516001600160a01b031690565b94515f5261086e60205260405f2090565b549051111594015193813b15610353575f8094614a07604051978896879586947f0ea1f93800000000000000000000000000000000000000000000000000000000865233926004870161471d565b03925af18015612da557614a21575b808080808080614986565b80612d99614a2e926104be565b5f614a16565b506080870151511515614981565b614a6387614a5a61496588516001600160a01b031690565b30903390614f35565b61494d565b614a796125ba6101008d0151151590565b15614ab05750614aab9150614a9861496588516001600160a01b031690565b83516001600160a01b0316903390614f35565b613ad9565b614aab92615234565b5050505050505050565b50614ad56125ba6101008a0151151590565b6148e9565b5061489d614aec610100870151151590565b9050614894565b60600151149050875f61488b565b95614b3e614b4492614b22614b4e9599670de0b6b3a763ffff1913156145c5565b614b3868056bc75e2d6310000082511315614610565b5161465b565b906151ad565b9451851115614687565b5f8080614871565b985061477a61483c565b9050614b7661478061477a60c086015160070b90565b105f61478d565b906001600160a01b038251168152608080614ba7602085015160a0602086015260a0850190611dde565b93604081015160070b6040850152606081015115156060850152015191015290565b9a979361068a9c9a95919793614c349a979360208e6101809b8152015260408d015260608c015260808b015260070b60a08a015260070b60c08901526001600160a01b03928380921660e08a0152166101008801521661012086015280610140860152840190611dde565b91610160818403910152614b7d565b906040820151614c539060070b90565b916060810151614c69906001600160a01b031690565b906080810151936101009485830151614c8190151590565b610120928385015192614c92610610565b6001600160a01b039097168752602087015260070b60408601521515606085015260808401528151606001516020830151614cd6905f5261086e60205260405f2090565b549360a084015193519460808601519560a08101519160e0820151614cfb9060070b90565b60c083015160070b9a83015163ffffffff169a6040840151614d23906001600160a01b031690565b918451614d36906001600160a01b031690565b986020860151614d4c906001600160a01b031690565b950151956040519a6001600160a01b038c9b169e63ffffffff169d3396614d739b8d614bc9565b037f8ab9dc6c19fe88e69bc70221b339c84332752fdd49591b7c51e66bae3947b73c91a4565b9392614e16936001600160a01b036103b5989760208151910120916040519363ffffffff60208601967f152eb71524aef34d838ab76573c14b1ebfa5e385d9ab29d7cf5398daa2438bd9885216604086015286606086015260808501521660a083015260c082015260c08152614e0e81610563565b51902061563f565b90615718565b9392614e16936001600160a01b036103b5989760208151910120916040519363ffffffff60208601967f0e058f05b73c62ee68329d2c67c067aaae9a06503cc306378d144d0f0177882b885216604086015286606086015260070b60808501521660a083015260c082015260c08152614e0e81610563565b6001600160a01b03610c8c54163303614ea957565b606460405162461bcd60e51b815260206004820152602060248201527f4f776e61626c653a2063616c6c6572206973206e6f7420746865206f776e65726044820152fd5b610c8c9081546001600160a01b0380921692836001600160a01b03198316179055167f8be0079c531659141344cd1fd0a4f28419497f9722a3daafe3b4186f6b6457e05f80a3565b90926103b593604051937f23b872dd0000000000000000000000000000000000000000000000000000000060208601526001600160a01b038092166024860152166044840152606483015260648252614f8d8261050f565b615801565b5f8112614f9c5790565b5f0390565b6103b560ff5f5460081c166131db565b614fc560ff5f5460081c16611a30816131db565b6001606555565b6001600160a01b0316801561501457610869816001600160a01b03198254161790557fa9e8c42c9e7fca7f62755189a16b2f5314d43d8fb24e91ba54e6d65f9314e8495f80a2565b606460405162461bcd60e51b815260206004820152601960248201527f4261642062726964676520726f757465722061646472657373000000000000006044820152fd5b916125ba906150d192845160408096015191865191615076836104d7565b82526139a3615091602084019246845289850195865261227b565b50549388519283916150b66020840196602088525160608d86015260a0850190613bb1565b9151606084015251608083015203601f19810183528261057f565b6150d85750565b6004905163582f497d60e11b8152fd5b909161012082519201516040938451908582019082821067ffffffffffffffff8311176104d2576151629561512792885283526020830193845261227b565b5054916139a38651809261514d602083019560208752518a808501526080840190614401565b9051606083015203601f19810183528261057f565b1561516a5750565b6064905162461bcd60e51b815260206004820152601860248201527f496e76616c696420736c6f772072656c61792070726f6f6600000000000000006044820152fd5b90670de0b6b3a7640000915f828403921283831281169084841390151617612f3257818102918183041490151715612f32570490565b929091905f915b845183101561522c576151fd83866133e7565b51908181101561521b575f52602052600160405f205b9201916151ea565b905f52602052600160405f20615213565b915092501490565b6103b5926001600160a01b03604051937fa9059cbb000000000000000000000000000000000000000000000000000000006020860152166024840152604483015260448252614f8d826104f3565b6103b5916001600160a01b038061086a54169116615234565b6001600160a01b0390811690813b156152db57906103b592917f000000000000000000000000000000000000000000000000000000000000000016615234565b7f000000000000000000000000000000000000000000000000000000000000000016803b15610353575f80916024604051809481937f2e1a7d4d0000000000000000000000000000000000000000000000000000000083528860048401525af18015612da557615414575b508147106153d0575f80809381935af161535e613348565b501561536657565b608460405162461bcd60e51b815260206004820152603a60248201527f416464726573733a20756e61626c6520746f2073656e642076616c75652c207260448201527f6563697069656e74206d617920686176652072657665727465640000000000006064820152fd5b606460405162461bcd60e51b815260206004820152601d60248201527f416464726573733a20696e73756666696369656e742062616c616e63650000006044820152fd5b61541d906104be565b5f615346565b9061542d82615544565b6001600160a01b0382167fbc7cd75a20ee27fd9adebab32041f755214dbc6bffa90cc0225b39da2e5c2d3b5f80a28051158015906154eb575b61546e575050565b6154e8915f8060405193615481856104d7565b602785527f416464726573733a206c6f772d6c6576656c2064656c65676174652063616c6c60208601527f206661696c6564000000000000000000000000000000000000000000000000006040860152602081519101845af46154e2613348565b9161592c565b50565b505f615466565b906154fc82615544565b6001600160a01b0382167fbc7cd75a20ee27fd9adebab32041f755214dbc6bffa90cc0225b39da2e5c2d3b5f80a280511580159061553c5761546e575050565b506001615466565b803b15615587576001600160a01b037f360894a13ba1a3210667c828492db98dca3e2076cc3735a920a3ca505d382bbc91166001600160a01b0319825416179055565b608460405162461bcd60e51b815260206004820152602d60248201527f455243313936373a206e657720696d706c656d656e746174696f6e206973206e60448201527f6f74206120636f6e7472616374000000000000000000000000000000000000006064820152fd5b670de0b6b3a7640000918183029183830403612f325760070b808303925f821281851281169082861390151617612f32571461562b570490565b634e487b7160e01b5f52601260045260245ffd5b60429161047f549061048054906040519160208301937fc2f8787176b8ac6bf7215b4adcc1e069bf4ab82d9ab1df05a57a91d425935b6e8552604084015260608301526080820152608081526156948161050f565b51902090604051917f19010000000000000000000000000000000000000000000000000000000000008352600283015260228201522090565b156156d457565b606460405162461bcd60e51b815260206004820152601160248201527f696e76616c6964207369676e61747572650000000000000000000000000000006044820152fd5b919061572482826158fb565b939092600585101561326a576103b5941593846157eb575b50831561574c575b5050506156cd565b5f92935090829160405161579d8161399560208201947f1626ba7e00000000000000000000000000000000000000000000000000000000998a87526024840152604060448401526064830190611dde565b51915afa906157aa613348565b826157dd575b826157c0575b50505f8080615744565b6157d591925060208082518301019101614381565b145f806157b6565b9150602082511015916157b0565b6001600160a01b0383811691161493505f61573c565b604051615858916001600160a01b031661581a82610547565b5f806020958685527f5361666545524332303a206c6f772d6c6576656c2063616c6c206661696c656487860152868151910182855af16154e2613348565b80518281159182156158db575b50509050156158715750565b6084906040519062461bcd60e51b82526004820152602a60248201527f5361666545524332303a204552433230206f7065726174696f6e20646964206e60448201527f6f742073756363656564000000000000000000000000000000000000000000006064820152fd5b8380929350010312610353578101516158f381610a77565b80825f615865565b9060418151145f146159235761333791602082015190606060408401519301515f1a906159bc565b50505f90600290565b9192901561598d5750815115615940575090565b3b156159495790565b606460405162461bcd60e51b815260206004820152601d60248201527f416464726573733a2063616c6c20746f206e6f6e2d636f6e74726163740000006044820152fd5b8251909150156159a05750805190602001fd5b610e329060405191829162461bcd60e51b8352600483016133d6565b7f7fffffffffffffffffffffffffffffff5d576e7357a4501ddfe92f46681b20a08411615a2c576020935f9360ff60809460405194855216868401526040830152606082015282805260015afa15612da5575f516001600160a01b03811615615a2457905f90565b505f90600190565b505050505f9060039056fea26469706673582212201578c54f60661019ca08ec77052ea7a49ea53290bfc1e965e1c1df56f1a3937a64736f6c63430008170033"
}