{
  "address": "0x1Ace3BbD69b63063F859514Eca29C9BDd8310E61",
  "abi": [
    {
      "inputs": [
        {
          "internalType": "address",
          "name": "_hubPool",
          "type": "address"
        }
      ],
      "stateMutability": "nonpayable",
      "type": "constructor"
    },
    {
      "inputs": [],
      "name": "NotHubPool",
      "type": "error"
    },
    {
      "anonymous": false,
      "inputs": [
        {
          "indexed": true,
          "internalType": "address",
          "name": "target",
          "type": "address"
        },
        {
          "indexed": false,
          "internalType": "bytes",
          "name": "data",
          "type": "bytes"
        },
        {
          "indexed": true,
          "internalType": "uint256",
          "name": "nonce",
          "type": "uint256"
        }
      ],
      "name": "StoredCallData",
      "type": "event"
    },
    {
      "inputs": [],
      "name": "hubPool",
      "outputs": [
        {
          "internalType": "address",
          "name": "",
          "type": "address"
        }
      ],
      "stateMutability": "view",
      "type": "function"
    },
    {
      "inputs": [
        {
          "internalType": "uint256",
          "name": "",
          "type": "uint256"
        }
      ],
      "name": "relayMessageCallData",
      "outputs": [
        {
          "internalType": "bytes32",
          "name": "",
          "type": "bytes32"
        }
      ],
      "stateMutability": "view",
      "type": "function"
    },
    {
      "inputs": [
        {
          "internalType": "address",
          "name": "target",
          "type": "address"
        },
        {
          "internalType": "bytes",
          "name": "data",
          "type": "bytes"
        },
        {
          "internalType": "bool",
          "name": "isAdminSender",
          "type": "bool"
        }
      ],
      "name": "storeRelayMessageCalldata",
      "outputs": [],
      "stateMutability": "nonpayable",
      "type": "function"
    }
  ],
  "transactionHash": "0x1e284a72ee02b29a5d3ae750a7cdecd4f74ca606e1b775d5dbbcbebe7c493d73",
  "args": [
    "0xc186fA914353c44b2E33eBE05f21846F1048bEda"
  ],
  "numDeployments": 1,
  "solcInputHash": "d588ac0bd437ae8849ec6f9277b07547",
  "bytecode": "0x60a03461007057601f61065738819003918201601f19168301916001600160401b038311848410176100745780849260209460405283398101031261007057516001600160a01b0381168103610070576080526040516105ce90816100898239608051818181608c01526101550152f35b5f80fd5b634e487b7160e01b5f52604160045260245ffdfe6080604090808252600480361015610015575f80fd5b60e05f35811c9283631251fa801461035c57508263b6a31578146100b457505063e190440214610043575f80fd5b346100b0575f7ffffffffffffffffffffffffffffffffffffffffffffffffffffffffffffffffc3601126100b0576020905173ffffffffffffffffffffffffffffffffffffffff7f0000000000000000000000000000000000000000000000000000000000000000168152f35b5f80fd5b8390346100b05760607ffffffffffffffffffffffffffffffffffffffffffffffffffffffffffffffffc3601126100b05773ffffffffffffffffffffffffffffffffffffffff90833582811681036100b0576024359267ffffffffffffffff908185116100b057366023860112156100b05784870135958287116100b057602486019560248836920101116100b0576044359283151584036100b0578893837f0000000000000000000000000000000000000000000000000000000000000000169081330361033457156101f35750505050509050600154907fffffffffffffffffffffffffffffffffffffffffffffffffffffffffffffffff82146101c7576101c59450600182016001556104fd565b005b6011857f4e487b71000000000000000000000000000000000000000000000000000000005f525260245ffd5b828792939495965051958680927f4144fd610000000000000000000000000000000000000000000000000000000082525afa97881561032a575f9861024c575b50505050505063ffffffff60c06101c59401511661044a565b909192939480985085813d8311610323575b610268818361039e565b810103126100b0578251978801918211888310176102f7575081528251865260208301516020870152808301519086015260608201516060860152608082015190811681036100b057608085015260a08101519060ff821682036100b05760c09160a086015201519263ffffffff841684036100b05760c0816101c5958263ffffffff94015294868080610233565b6041907f4e487b71000000000000000000000000000000000000000000000000000000005f525260245ffd5b503d61025e565b82513d5f823e3d90fd5b8584517f339c0f06000000000000000000000000000000000000000000000000000000008152fd5b905083346100b05760207ffffffffffffffffffffffffffffffffffffffffffffffffffffffffffffffffc3601126100b057602092355f525f83525f20548152f35b90601f7fffffffffffffffffffffffffffffffffffffffffffffffffffffffffffffffe0910116810190811067ffffffffffffffff8211176103df57604052565b7f4e487b71000000000000000000000000000000000000000000000000000000005f52604160045260245ffd5b601f82602094937fffffffffffffffffffffffffffffffffffffffffffffffffffffffffffffffe093818652868601375f8582860101520116010190565b9190825f525f602052604090815f20546104f7575f926104f2837f4ba0c1a2e56506b7c710f056ac26e5fdb506e29d3f760fb4b68857f7e7a61d229451602081019087825282808201526104d2816104a660608201888a61040c565b037fffffffffffffffffffffffffffffffffffffffffffffffffffffffffffffffe0810183528261039e565b51902087875286602052818720555192839260208452602084019161040c565b0390a3565b50505050565b91929092835f525f602052604091825f2054610591576104f2837f4ba0c1a2e56506b7c710f056ac26e5fdb506e29d3f760fb4b68857f7e7a61d2294519573ffffffffffffffffffffffffffffffffffffffff602088019116968782528280820152610571816104a660608201888a61040c565b519020875f525f602052815f20555192839260208452602084019161040c565b505050505056fea26469706673582212200e81ce368a6037e5ef5c9d0890db03a2ec9bc69afa2003d55de26ebfa2f4574264736f6c63430008170033",
  "devdoc": {
    "custom:security-contact": "bugs@across.to",
    "details": "Designed to be used with Universal_Adapter and Universal_SpokePool.This contract DOES NOT prevent replay attacks of storage proofs on the L2 spoke pool if the UniversalStorageProof_Adapters using this contract are mapped to spokepools with the same address on different L2 chains. See comment in storeRelayAdminFunctionCalldata() for more details.",
    "kind": "dev",
    "methods": {
      "storeRelayMessageCalldata(address,bytes,bool)": {
        "details": "Only callable by the HubPool contract.",
        "params": {
          "data": "Data to send to Universal SpokePool.",
          "isAdminSender": "True if the data is an admin function call, false otherwise.",
          "target": "Address of the contract on the destination that will receive the message. Unused if the data is NOT an admin function and can be relayed to any target."
        }
      }
    },
    "version": 1
  },
  "userdoc": {
    "events": {
      "StoredCallData(address,bytes,uint256)": {
        "notice": "Event designed to be queried off chain and relayed to Universal SpokePool."
      }
    },
    "kind": "user",
    "methods": {
      "hubPool()": {
        "notice": "Address of the HubPool contract, the only contract that can store data to this contract."
      },
      "relayMessageCallData(uint256)": {
        "notice": "Maps nonce to hash of calldata."
      },
      "storeRelayMessageCalldata(address,bytes,bool)": {
        "notice": "To be called by HubPool to store calldata that will be relayed to the Universal_SpokePool via storage proofs."
      }
    },
    "notice": "Stores data that can be relayed to L2 SpokePool using storage proof verification and light client contracts on the L2 where the SpokePool is deployed. Only the HubPool can store data to this contract. Each data to be relayed is written to a unique slot key and that slot key's value can never be modified.",
    "version": 1
  },
  "storageLayout": {
    "storage": [
      {
        "astId": 30584,
        "contract": "contracts/chain-adapters/utilities/HubPoolStore.sol:HubPoolStore",
        "label": "relayMessageCallData",
        "offset": 0,
        "slot": "0",
        "type": "t_mapping(t_uint256,t_bytes32)"
      },
      {
        "astId": 30587,
        "contract": "contracts/chain-adapters/utilities/HubPoolStore.sol:HubPoolStore",
        "label": "dataUuid",
        "offset": 0,
        "slot": "1",
        "type": "t_uint256"
      }
    ],
    "types": {
      "t_bytes32": {
        "encoding": "inplace",
        "label": "bytes32",
        "numberOfBytes": "32"
      },
      "t_mapping(t_uint256,t_bytes32)": {
        "encoding": "mapping",
        "key": "t_uint256",
        "label": "mapping(uint256 => bytes32)",
        "numberOfBytes": "32",
        "value": "t_bytes32"
      },
      "t_uint256": {
        "encoding": "inplace",
        "label": "uint256",
        "numberOfBytes": "32"
      }
    }
  }
}