{
  "address": "0xc186fA914353c44b2E33eBE05f21846F1048bEda",
  "abi": [
    {
      "inputs": [
        {
          "internalType": "contract LpTokenFactoryInterface",
          "name": "_lpTokenFactory",
          "type": "address"
        },
        {
          "internalType": "contract FinderInterface",
          "name": "_finder",
          "type": "address"
        },
        {
          "internalType": "contract WETH9",
          "name": "_weth",
          "type": "address"
        },
        {
          "internalType": "address",
          "name": "_timer",
          "type": "address"
        }
      ],
      "stateMutability": "nonpayable",
      "type": "constructor"
    },
    {
      "anonymous": false,
      "inputs": [
        {
          "indexed": true,
          "internalType": "address",
          "name": "newBondToken",
          "type": "address"
        },
        {
          "indexed": false,
          "internalType": "uint256",
          "name": "newBondAmount",
          "type": "uint256"
        }
      ],
      "name": "BondSet",
      "type": "event"
    },
    {
      "anonymous": false,
      "inputs": [
        {
          "indexed": false,
          "internalType": "uint256",
          "name": "l2ChainId",
          "type": "uint256"
        },
        {
          "indexed": false,
          "internalType": "address",
          "name": "adapter",
          "type": "address"
        },
        {
          "indexed": false,
          "internalType": "address",
          "name": "spokePool",
          "type": "address"
        }
      ],
      "name": "CrossChainContractsSet",
      "type": "event"
    },
    {
      "anonymous": false,
      "inputs": [
        {
          "indexed": true,
          "internalType": "bytes32",
          "name": "poolRebalanceRoot",
          "type": "bytes32"
        },
        {
          "indexed": true,
          "internalType": "bytes32",
          "name": "relayerRefundRoot",
          "type": "bytes32"
        },
        {
          "indexed": false,
          "internalType": "bytes32",
          "name": "slowRelayRoot",
          "type": "bytes32"
        },
        {
          "indexed": true,
          "internalType": "address",
          "name": "proposer",
          "type": "address"
        }
      ],
      "name": "EmergencyRootBundleDeleted",
      "type": "event"
    },
    {
      "anonymous": false,
      "inputs": [
        {
          "indexed": false,
          "internalType": "bytes32",
          "name": "newIdentifier",
          "type": "bytes32"
        }
      ],
      "name": "IdentifierSet",
      "type": "event"
    },
    {
      "anonymous": false,
      "inputs": [
        {
          "indexed": false,
          "internalType": "address",
          "name": "l1Token",
          "type": "address"
        },
        {
          "indexed": false,
          "internalType": "address",
          "name": "lpToken",
          "type": "address"
        }
      ],
      "name": "L1TokenEnabledForLiquidityProvision",
      "type": "event"
    },
    {
      "anonymous": false,
      "inputs": [
        {
          "indexed": false,
          "internalType": "address",
          "name": "l1Token",
          "type": "address"
        },
        {
          "indexed": false,
          "internalType": "address",
          "name": "lpToken",
          "type": "address"
        }
      ],
      "name": "L2TokenDisabledForLiquidityProvision",
      "type": "event"
    },
    {
      "anonymous": false,
      "inputs": [
        {
          "indexed": true,
          "internalType": "address",
          "name": "l1Token",
          "type": "address"
        },
        {
          "indexed": false,
          "internalType": "uint256",
          "name": "amount",
          "type": "uint256"
        },
        {
          "indexed": false,
          "internalType": "uint256",
          "name": "lpTokensMinted",
          "type": "uint256"
        },
        {
          "indexed": true,
          "internalType": "address",
          "name": "liquidityProvider",
          "type": "address"
        }
      ],
      "name": "LiquidityAdded",
      "type": "event"
    },
    {
      "anonymous": false,
      "inputs": [
        {
          "indexed": true,
          "internalType": "address",
          "name": "l1Token",
          "type": "address"
        },
        {
          "indexed": false,
          "internalType": "uint256",
          "name": "amount",
          "type": "uint256"
        },
        {
          "indexed": false,
          "internalType": "uint256",
          "name": "lpTokensBurnt",
          "type": "uint256"
        },
        {
          "indexed": true,
          "internalType": "address",
          "name": "liquidityProvider",
          "type": "address"
        }
      ],
      "name": "LiquidityRemoved",
      "type": "event"
    },
    {
      "anonymous": false,
      "inputs": [
        {
          "indexed": false,
          "internalType": "uint256",
          "name": "newLiveness",
          "type": "uint256"
        }
      ],
      "name": "LivenessSet",
      "type": "event"
    },
    {
      "anonymous": false,
      "inputs": [
        {
          "indexed": true,
          "internalType": "address",
          "name": "previousOwner",
          "type": "address"
        },
        {
          "indexed": true,
          "internalType": "address",
          "name": "newOwner",
          "type": "address"
        }
      ],
      "name": "OwnershipTransferred",
      "type": "event"
    },
    {
      "anonymous": false,
      "inputs": [
        {
          "indexed": true,
          "internalType": "bool",
          "name": "isPaused",
          "type": "bool"
        }
      ],
      "name": "Paused",
      "type": "event"
    },
    {
      "anonymous": false,
      "inputs": [
        {
          "indexed": false,
          "internalType": "uint32",
          "name": "challengePeriodEndTimestamp",
          "type": "uint32"
        },
        {
          "indexed": false,
          "internalType": "uint8",
          "name": "poolRebalanceLeafCount",
          "type": "uint8"
        },
        {
          "indexed": false,
          "internalType": "uint256[]",
          "name": "bundleEvaluationBlockNumbers",
          "type": "uint256[]"
        },
        {
          "indexed": true,
          "internalType": "bytes32",
          "name": "poolRebalanceRoot",
          "type": "bytes32"
        },
        {
          "indexed": true,
          "internalType": "bytes32",
          "name": "relayerRefundRoot",
          "type": "bytes32"
        },
        {
          "indexed": false,
          "internalType": "bytes32",
          "name": "slowRelayRoot",
          "type": "bytes32"
        },
        {
          "indexed": true,
          "internalType": "address",
          "name": "proposer",
          "type": "address"
        }
      ],
      "name": "ProposeRootBundle",
      "type": "event"
    },
    {
      "anonymous": false,
      "inputs": [
        {
          "indexed": true,
          "internalType": "address",
          "name": "newProtocolFeeCaptureAddress",
          "type": "address"
        },
        {
          "indexed": true,
          "internalType": "uint256",
          "name": "newProtocolFeeCapturePct",
          "type": "uint256"
        }
      ],
      "name": "ProtocolFeeCaptureSet",
      "type": "event"
    },
    {
      "anonymous": false,
      "inputs": [
        {
          "indexed": true,
          "internalType": "address",
          "name": "l1Token",
          "type": "address"
        },
        {
          "indexed": true,
          "internalType": "uint256",
          "name": "accumulatedFees",
          "type": "uint256"
        }
      ],
      "name": "ProtocolFeesCapturedClaimed",
      "type": "event"
    },
    {
      "anonymous": false,
      "inputs": [
        {
          "indexed": true,
          "internalType": "address",
          "name": "disputer",
          "type": "address"
        },
        {
          "indexed": false,
          "internalType": "uint256",
          "name": "requestTime",
          "type": "uint256"
        }
      ],
      "name": "RootBundleCanceled",
      "type": "event"
    },
    {
      "anonymous": false,
      "inputs": [
        {
          "indexed": true,
          "internalType": "address",
          "name": "disputer",
          "type": "address"
        },
        {
          "indexed": false,
          "internalType": "uint256",
          "name": "requestTime",
          "type": "uint256"
        }
      ],
      "name": "RootBundleDisputed",
      "type": "event"
    },
    {
      "anonymous": false,
      "inputs": [
        {
          "indexed": false,
          "internalType": "uint256",
          "name": "groupIndex",
          "type": "uint256"
        },
        {
          "indexed": true,
          "internalType": "uint256",
          "name": "leafId",
          "type": "uint256"
        },
        {
          "indexed": true,
          "internalType": "uint256",
          "name": "chainId",
          "type": "uint256"
        },
        {
          "indexed": false,
          "internalType": "address[]",
          "name": "l1Tokens",
          "type": "address[]"
        },
        {
          "indexed": false,
          "internalType": "uint256[]",
          "name": "bundleLpFees",
          "type": "uint256[]"
        },
        {
          "indexed": false,
          "internalType": "int256[]",
          "name": "netSendAmounts",
          "type": "int256[]"
        },
        {
          "indexed": false,
          "internalType": "int256[]",
          "name": "runningBalances",
          "type": "int256[]"
        },
        {
          "indexed": true,
          "internalType": "address",
          "name": "caller",
          "type": "address"
        }
      ],
      "name": "RootBundleExecuted",
      "type": "event"
    },
    {
      "anonymous": false,
      "inputs": [
        {
          "indexed": true,
          "internalType": "uint256",
          "name": "originChainId",
          "type": "uint256"
        },
        {
          "indexed": true,
          "internalType": "uint256",
          "name": "destinationChainId",
          "type": "uint256"
        },
        {
          "indexed": true,
          "internalType": "address",
          "name": "originToken",
          "type": "address"
        },
        {
          "indexed": false,
          "internalType": "bool",
          "name": "depositsEnabled",
          "type": "bool"
        }
      ],
      "name": "SetEnableDepositRoute",
      "type": "event"
    },
    {
      "anonymous": false,
      "inputs": [
        {
          "indexed": true,
          "internalType": "uint256",
          "name": "destinationChainId",
          "type": "uint256"
        },
        {
          "indexed": true,
          "internalType": "address",
          "name": "l1Token",
          "type": "address"
        },
        {
          "indexed": true,
          "internalType": "address",
          "name": "destinationToken",
          "type": "address"
        }
      ],
      "name": "SetPoolRebalanceRoute",
      "type": "event"
    },
    {
      "anonymous": false,
      "inputs": [
        {
          "indexed": true,
          "internalType": "uint256",
          "name": "chainId",
          "type": "uint256"
        },
        {
          "indexed": false,
          "internalType": "bytes",
          "name": "message",
          "type": "bytes"
        }
      ],
      "name": "SpokePoolAdminFunctionTriggered",
      "type": "event"
    },
    {
      "stateMutability": "payable",
      "type": "fallback"
    },
    {
      "inputs": [
        {
          "internalType": "address",
          "name": "l1Token",
          "type": "address"
        },
        {
          "internalType": "uint256",
          "name": "l1TokenAmount",
          "type": "uint256"
        }
      ],
      "name": "addLiquidity",
      "outputs": [],
      "stateMutability": "payable",
      "type": "function"
    },
    {
      "inputs": [],
      "name": "bondAmount",
      "outputs": [
        {
          "internalType": "uint256",
          "name": "",
          "type": "uint256"
        }
      ],
      "stateMutability": "view",
      "type": "function"
    },
    {
      "inputs": [],
      "name": "bondToken",
      "outputs": [
        {
          "internalType": "contract IERC20",
          "name": "",
          "type": "address"
        }
      ],
      "stateMutability": "view",
      "type": "function"
    },
    {
      "inputs": [
        {
          "internalType": "address",
          "name": "l1Token",
          "type": "address"
        }
      ],
      "name": "claimProtocolFeesCaptured",
      "outputs": [],
      "stateMutability": "nonpayable",
      "type": "function"
    },
    {
      "inputs": [
        {
          "internalType": "uint256",
          "name": "",
          "type": "uint256"
        }
      ],
      "name": "crossChainContracts",
      "outputs": [
        {
          "internalType": "address",
          "name": "adapter",
          "type": "address"
        },
        {
          "internalType": "address",
          "name": "spokePool",
          "type": "address"
        }
      ],
      "stateMutability": "view",
      "type": "function"
    },
    {
      "inputs": [
        {
          "internalType": "address",
          "name": "l1Token",
          "type": "address"
        }
      ],
      "name": "disableL1TokenForLiquidityProvision",
      "outputs": [],
      "stateMutability": "nonpayable",
      "type": "function"
    },
    {
      "inputs": [],
      "name": "disputeRootBundle",
      "outputs": [],
      "stateMutability": "nonpayable",
      "type": "function"
    },
    {
      "inputs": [],
      "name": "emergencyDeleteProposal",
      "outputs": [],
      "stateMutability": "nonpayable",
      "type": "function"
    },
    {
      "inputs": [
        {
          "internalType": "address",
          "name": "l1Token",
          "type": "address"
        }
      ],
      "name": "enableL1TokenForLiquidityProvision",
      "outputs": [],
      "stateMutability": "nonpayable",
      "type": "function"
    },
    {
      "inputs": [
        {
          "internalType": "address",
          "name": "l1Token",
          "type": "address"
        }
      ],
      "name": "exchangeRateCurrent",
      "outputs": [
        {
          "internalType": "uint256",
          "name": "",
          "type": "uint256"
        }
      ],
      "stateMutability": "nonpayable",
      "type": "function"
    },
    {
      "inputs": [
        {
          "internalType": "uint256",
          "name": "chainId",
          "type": "uint256"
        },
        {
          "internalType": "uint256",
          "name": "groupIndex",
          "type": "uint256"
        },
        {
          "internalType": "uint256[]",
          "name": "bundleLpFees",
          "type": "uint256[]"
        },
        {
          "internalType": "int256[]",
          "name": "netSendAmounts",
          "type": "int256[]"
        },
        {
          "internalType": "int256[]",
          "name": "runningBalances",
          "type": "int256[]"
        },
        {
          "internalType": "uint8",
          "name": "leafId",
          "type": "uint8"
        },
        {
          "internalType": "address[]",
          "name": "l1Tokens",
          "type": "address[]"
        },
        {
          "internalType": "bytes32[]",
          "name": "proof",
          "type": "bytes32[]"
        }
      ],
      "name": "executeRootBundle",
      "outputs": [],
      "stateMutability": "nonpayable",
      "type": "function"
    },
    {
      "inputs": [],
      "name": "finder",
      "outputs": [
        {
          "internalType": "contract FinderInterface",
          "name": "",
          "type": "address"
        }
      ],
      "stateMutability": "view",
      "type": "function"
    },
    {
      "inputs": [],
      "name": "getCurrentTime",
      "outputs": [
        {
          "internalType": "uint256",
          "name": "",
          "type": "uint256"
        }
      ],
      "stateMutability": "view",
      "type": "function"
    },
    {
      "inputs": [
        {
          "internalType": "address",
          "name": "l1Token",
          "type": "address"
        },
        {
          "internalType": "int256",
          "name": "haircutAmount",
          "type": "int256"
        }
      ],
      "name": "haircutReserves",
      "outputs": [],
      "stateMutability": "nonpayable",
      "type": "function"
    },
    {
      "inputs": [],
      "name": "identifier",
      "outputs": [
        {
          "internalType": "bytes32",
          "name": "",
          "type": "bytes32"
        }
      ],
      "stateMutability": "view",
      "type": "function"
    },
    {
      "inputs": [
        {
          "internalType": "address",
          "name": "l1Token",
          "type": "address"
        }
      ],
      "name": "liquidityUtilizationCurrent",
      "outputs": [
        {
          "internalType": "uint256",
          "name": "",
          "type": "uint256"
        }
      ],
      "stateMutability": "nonpayable",
      "type": "function"
    },
    {
      "inputs": [
        {
          "internalType": "address",
          "name": "l1Token",
          "type": "address"
        },
        {
          "internalType": "uint256",
          "name": "relayedAmount",
          "type": "uint256"
        }
      ],
      "name": "liquidityUtilizationPostRelay",
      "outputs": [
        {
          "internalType": "uint256",
          "name": "",
          "type": "uint256"
        }
      ],
      "stateMutability": "nonpayable",
      "type": "function"
    },
    {
      "inputs": [],
      "name": "liveness",
      "outputs": [
        {
          "internalType": "uint32",
          "name": "",
          "type": "uint32"
        }
      ],
      "stateMutability": "view",
      "type": "function"
    },
    {
      "inputs": [],
      "name": "loadEthForL2Calls",
      "outputs": [],
      "stateMutability": "payable",
      "type": "function"
    },
    {
      "inputs": [],
      "name": "lpFeeRatePerSecond",
      "outputs": [
        {
          "internalType": "uint256",
          "name": "",
          "type": "uint256"
        }
      ],
      "stateMutability": "view",
      "type": "function"
    },
    {
      "inputs": [],
      "name": "lpTokenFactory",
      "outputs": [
        {
          "internalType": "contract LpTokenFactoryInterface",
          "name": "",
          "type": "address"
        }
      ],
      "stateMutability": "view",
      "type": "function"
    },
    {
      "inputs": [
        {
          "internalType": "bytes[]",
          "name": "data",
          "type": "bytes[]"
        }
      ],
      "name": "multicall",
      "outputs": [
        {
          "internalType": "bytes[]",
          "name": "results",
          "type": "bytes[]"
        }
      ],
      "stateMutability": "payable",
      "type": "function"
    },
    {
      "inputs": [],
      "name": "owner",
      "outputs": [
        {
          "internalType": "address",
          "name": "",
          "type": "address"
        }
      ],
      "stateMutability": "view",
      "type": "function"
    },
    {
      "inputs": [],
      "name": "paused",
      "outputs": [
        {
          "internalType": "bool",
          "name": "",
          "type": "bool"
        }
      ],
      "stateMutability": "view",
      "type": "function"
    },
    {
      "inputs": [
        {
          "internalType": "uint256",
          "name": "destinationChainId",
          "type": "uint256"
        },
        {
          "internalType": "address",
          "name": "l1Token",
          "type": "address"
        }
      ],
      "name": "poolRebalanceRoute",
      "outputs": [
        {
          "internalType": "address",
          "name": "destinationToken",
          "type": "address"
        }
      ],
      "stateMutability": "view",
      "type": "function"
    },
    {
      "inputs": [
        {
          "internalType": "address",
          "name": "",
          "type": "address"
        }
      ],
      "name": "pooledTokens",
      "outputs": [
        {
          "internalType": "address",
          "name": "lpToken",
          "type": "address"
        },
        {
          "internalType": "bool",
          "name": "isEnabled",
          "type": "bool"
        },
        {
          "internalType": "uint32",
          "name": "lastLpFeeUpdate",
          "type": "uint32"
        },
        {
          "internalType": "int256",
          "name": "utilizedReserves",
          "type": "int256"
        },
        {
          "internalType": "uint256",
          "name": "liquidReserves",
          "type": "uint256"
        },
        {
          "internalType": "uint256",
          "name": "undistributedLpFees",
          "type": "uint256"
        }
      ],
      "stateMutability": "view",
      "type": "function"
    },
    {
      "inputs": [
        {
          "internalType": "uint256[]",
          "name": "bundleEvaluationBlockNumbers",
          "type": "uint256[]"
        },
        {
          "internalType": "uint8",
          "name": "poolRebalanceLeafCount",
          "type": "uint8"
        },
        {
          "internalType": "bytes32",
          "name": "poolRebalanceRoot",
          "type": "bytes32"
        },
        {
          "internalType": "bytes32",
          "name": "relayerRefundRoot",
          "type": "bytes32"
        },
        {
          "internalType": "bytes32",
          "name": "slowRelayRoot",
          "type": "bytes32"
        }
      ],
      "name": "proposeRootBundle",
      "outputs": [],
      "stateMutability": "nonpayable",
      "type": "function"
    },
    {
      "inputs": [],
      "name": "protocolFeeCaptureAddress",
      "outputs": [
        {
          "internalType": "address",
          "name": "",
          "type": "address"
        }
      ],
      "stateMutability": "view",
      "type": "function"
    },
    {
      "inputs": [],
      "name": "protocolFeeCapturePct",
      "outputs": [
        {
          "internalType": "uint256",
          "name": "",
          "type": "uint256"
        }
      ],
      "stateMutability": "view",
      "type": "function"
    },
    {
      "inputs": [
        {
          "internalType": "uint256",
          "name": "chainId",
          "type": "uint256"
        },
        {
          "internalType": "bytes",
          "name": "functionData",
          "type": "bytes"
        }
      ],
      "name": "relaySpokePoolAdminFunction",
      "outputs": [],
      "stateMutability": "nonpayable",
      "type": "function"
    },
    {
      "inputs": [
        {
          "internalType": "address",
          "name": "l1Token",
          "type": "address"
        },
        {
          "internalType": "uint256",
          "name": "lpTokenAmount",
          "type": "uint256"
        },
        {
          "internalType": "bool",
          "name": "sendEth",
          "type": "bool"
        }
      ],
      "name": "removeLiquidity",
      "outputs": [],
      "stateMutability": "nonpayable",
      "type": "function"
    },
    {
      "inputs": [],
      "name": "renounceOwnership",
      "outputs": [],
      "stateMutability": "nonpayable",
      "type": "function"
    },
    {
      "inputs": [],
      "name": "rootBundleProposal",
      "outputs": [
        {
          "internalType": "bytes32",
          "name": "poolRebalanceRoot",
          "type": "bytes32"
        },
        {
          "internalType": "bytes32",
          "name": "relayerRefundRoot",
          "type": "bytes32"
        },
        {
          "internalType": "bytes32",
          "name": "slowRelayRoot",
          "type": "bytes32"
        },
        {
          "internalType": "uint256",
          "name": "claimedBitMap",
          "type": "uint256"
        },
        {
          "internalType": "address",
          "name": "proposer",
          "type": "address"
        },
        {
          "internalType": "uint8",
          "name": "unclaimedPoolRebalanceLeafCount",
          "type": "uint8"
        },
        {
          "internalType": "uint32",
          "name": "challengePeriodEndTimestamp",
          "type": "uint32"
        }
      ],
      "stateMutability": "view",
      "type": "function"
    },
    {
      "inputs": [
        {
          "internalType": "contract IERC20",
          "name": "newBondToken",
          "type": "address"
        },
        {
          "internalType": "uint256",
          "name": "newBondAmount",
          "type": "uint256"
        }
      ],
      "name": "setBond",
      "outputs": [],
      "stateMutability": "nonpayable",
      "type": "function"
    },
    {
      "inputs": [
        {
          "internalType": "uint256",
          "name": "l2ChainId",
          "type": "uint256"
        },
        {
          "internalType": "address",
          "name": "adapter",
          "type": "address"
        },
        {
          "internalType": "address",
          "name": "spokePool",
          "type": "address"
        }
      ],
      "name": "setCrossChainContracts",
      "outputs": [],
      "stateMutability": "nonpayable",
      "type": "function"
    },
    {
      "inputs": [
        {
          "internalType": "uint256",
          "name": "time",
          "type": "uint256"
        }
      ],
      "name": "setCurrentTime",
      "outputs": [],
      "stateMutability": "nonpayable",
      "type": "function"
    },
    {
      "inputs": [
        {
          "internalType": "uint256",
          "name": "originChainId",
          "type": "uint256"
        },
        {
          "internalType": "uint256",
          "name": "destinationChainId",
          "type": "uint256"
        },
        {
          "internalType": "address",
          "name": "originToken",
          "type": "address"
        },
        {
          "internalType": "bool",
          "name": "depositsEnabled",
          "type": "bool"
        }
      ],
      "name": "setDepositRoute",
      "outputs": [],
      "stateMutability": "nonpayable",
      "type": "function"
    },
    {
      "inputs": [
        {
          "internalType": "bytes32",
          "name": "newIdentifier",
          "type": "bytes32"
        }
      ],
      "name": "setIdentifier",
      "outputs": [],
      "stateMutability": "nonpayable",
      "type": "function"
    },
    {
      "inputs": [
        {
          "internalType": "uint32",
          "name": "newLiveness",
          "type": "uint32"
        }
      ],
      "name": "setLiveness",
      "outputs": [],
      "stateMutability": "nonpayable",
      "type": "function"
    },
    {
      "inputs": [
        {
          "internalType": "bool",
          "name": "pause",
          "type": "bool"
        }
      ],
      "name": "setPaused",
      "outputs": [],
      "stateMutability": "nonpayable",
      "type": "function"
    },
    {
      "inputs": [
        {
          "internalType": "uint256",
          "name": "destinationChainId",
          "type": "uint256"
        },
        {
          "internalType": "address",
          "name": "l1Token",
          "type": "address"
        },
        {
          "internalType": "address",
          "name": "destinationToken",
          "type": "address"
        }
      ],
      "name": "setPoolRebalanceRoute",
      "outputs": [],
      "stateMutability": "nonpayable",
      "type": "function"
    },
    {
      "inputs": [
        {
          "internalType": "address",
          "name": "newProtocolFeeCaptureAddress",
          "type": "address"
        },
        {
          "internalType": "uint256",
          "name": "newProtocolFeeCapturePct",
          "type": "uint256"
        }
      ],
      "name": "setProtocolFeeCapture",
      "outputs": [],
      "stateMutability": "nonpayable",
      "type": "function"
    },
    {
      "inputs": [
        {
          "internalType": "address",
          "name": "l1Token",
          "type": "address"
        }
      ],
      "name": "sync",
      "outputs": [],
      "stateMutability": "nonpayable",
      "type": "function"
    },
    {
      "inputs": [],
      "name": "timerAddress",
      "outputs": [
        {
          "internalType": "address",
          "name": "",
          "type": "address"
        }
      ],
      "stateMutability": "view",
      "type": "function"
    },
    {
      "inputs": [
        {
          "internalType": "address",
          "name": "newOwner",
          "type": "address"
        }
      ],
      "name": "transferOwnership",
      "outputs": [],
      "stateMutability": "nonpayable",
      "type": "function"
    },
    {
      "inputs": [
        {
          "internalType": "address",
          "name": "",
          "type": "address"
        }
      ],
      "name": "unclaimedAccumulatedProtocolFees",
      "outputs": [
        {
          "internalType": "uint256",
          "name": "",
          "type": "uint256"
        }
      ],
      "stateMutability": "view",
      "type": "function"
    },
    {
      "inputs": [],
      "name": "weth",
      "outputs": [
        {
          "internalType": "contract WETH9",
          "name": "",
          "type": "address"
        }
      ],
      "stateMutability": "view",
      "type": "function"
    },
    {
      "stateMutability": "payable",
      "type": "receive"
    }
  ],
  "transactionHash": "0x36411fad072ecec1f1299409bd483d987b0bfab63aad46dbe6551b2343886edc",
  "args": [
    "0x7dB69eb9F52eD773E9b03f5068A1ea0275b2fD9d",
    "0x40f941E48A552bF496B154Af6bf55725f18D77c3",
    "0xc02aaa39b223fe8d0a0e5c4f27ead9083c756cc2",
    "0x0000000000000000000000000000000000000000"
  ],
  "numDeployments": 1,
  "solcInputHash": "375f3de1549a735f4b746d114c8a6633",
  "bytecode": "0x60e0604052600c805463ffffffff60a01b191660e160a51b1790557f49535f4143524f53535f56325f42554e444c455f56414c494400000000000000600d5565015d3ef79800600e553480156200005557600080fd5b5060405162004ea538038062004ea5833981016040819052620000789162000153565b600080546001600160a81b0319166001600160a01b03831617600160a01b179055620000ab620000a53390565b620000e8565b506001600160a01b0392831660a05290821660c0528116608052600154600b8054610100600160a81b0319169190921661010002179055620001bb565b600180546001600160a01b038381166001600160a01b0319831681179093556040519116919082907f8be0079c531659141344cd1fd0a4f28419497f9722a3daafe3b4186f6b6457e090600090a35050565b6001600160a01b03811681146200015057600080fd5b50565b600080600080608085870312156200016a57600080fd5b845162000177816200013a565b60208601519094506200018a816200013a565b60408601519093506200019d816200013a565b6060860151909250620001b0816200013a565b939692955090935050565b60805160a05160c051614c74620002316000396000818161081d01528181610c400152818161190501528181612fdd01526131d30152600081816106df015261279b015260008181610544015281816109e501528181610ec10152818161102a01528181611b460152611cac0152614c746000f3fe60806040526004361061028a5760003560e01c80635c975abb1161015a578063a5841194116100c1578063dd70e5e81161007a578063dd70e5e81461087f578063e0f339e31461089f578063e40064d7146108bf578063e460e35c146108ec578063f0056a7d1461090c578063f2fde38b146109b157610299565b8063a5841194146107ab578063ac9650d8146107cb578063b60c2d7d146107eb578063b9a3c84c1461080b578063c28f43921461083f578063cd9499951461085f57610299565b80637998a1c4116101135780637998a1c41461070157806380c09a821461071757806380f323a7146107375780638bda0c001461074d5780638da5cb5b1461076d578063a16fd6e91461078b57610299565b80635c975abb14610640578063625997c01461066a57806369b62502146102975780636ad0690a1461067f578063715018a6146106b857806376ec08dd146106cd57610299565b806322f8e566116101fe57806333dc09ca116101b757806333dc09ca146105125780633fc8cef3146105325780634144fd61146105665780634f7473ff146105f7578063566887001461060d57806356864f381461062057610299565b806322f8e56614610458578063240f475f1461047857806326205d801461049d57806329cb924d146104bd5780632d0f6f84146104d25780632d32d557146104f257610299565b80630ee28a88116102505780630ee28a881461039557806310b99527146103b557806311cfc159146103d557806316c38b3c146103eb5780631c39c38d1461040b57806322395aaa1461044357610299565b8062660b53146102a1578062c99206146102c1578063084d0513146102e157806309474ae2146103145780630c501af91461037557610299565b36610299576102976109d1565b005b6102976109d1565b3480156102ad57600080fd5b506102976102bc366004613f19565b610a5a565b3480156102cd57600080fd5b506102976102dc366004613f45565b610bae565b3480156102ed57600080fd5b506103016102fc366004613f19565b610daf565b6040519081526020015b60405180910390f35b34801561032057600080fd5b5061035561032f366004613f45565b600960205260009081526040902080546001909101546001600160a01b03918216911682565b604080516001600160a01b0393841681529290911660208301520161030b565b34801561038157600080fd5b50610297610390366004613f5e565b610ddb565b3480156103a157600080fd5b506102976103b0366004613f89565b610e82565b3480156103c157600080fd5b506102976103d0366004613fcb565b611105565b3480156103e157600080fd5b50610301600e5481565b3480156103f757600080fd5b50610297610406366004614002565b6111b3565b34801561041757600080fd5b5060005461042b906001600160a01b031681565b6040516001600160a01b03909116815260200161030b565b34801561044f57600080fd5b5061029761122f565b34801561046457600080fd5b50610297610473366004613f45565b611610565b34801561048457600080fd5b50600b5461042b9061010090046001600160a01b031681565b3480156104a957600080fd5b506102976104b8366004613f19565b61166b565b3480156104c957600080fd5b506103016116de565b3480156104de57600080fd5b506102976104ed366004613f5e565b61176f565b3480156104fe57600080fd5b5061042b61050d36600461401f565b6117f2565b34801561051e57600080fd5b5061029761052d366004613f19565b611823565b34801561053e57600080fd5b5061042b7f000000000000000000000000000000000000000000000000000000000000000081565b34801561057257600080fd5b506002546003546004546005546006546105b094939291906001600160a01b03811690600160a01b810460ff1690600160a81b900463ffffffff1687565b6040805197885260208801969096529486019390935260608501919091526001600160a01b0316608084015260ff1660a083015263ffffffff1660c082015260e00161030b565b34801561060357600080fd5b50610301600f5481565b61029761061b366004613f19565b611aa4565b34801561062c57600080fd5b5061029761063b36600461404f565b611da3565b34801561064c57600080fd5b50600b5461065a9060ff1681565b604051901515815260200161030b565b34801561067657600080fd5b50610297611e8b565b34801561068b57600080fd5b50600c546106a390600160a01b900463ffffffff1681565b60405163ffffffff909116815260200161030b565b3480156106c457600080fd5b50610297611fcb565b3480156106d957600080fd5b5061042b7f000000000000000000000000000000000000000000000000000000000000000081565b34801561070d57600080fd5b50610301600d5481565b34801561072357600080fd5b50610297610732366004614230565b611fff565b34801561074357600080fd5b5061030160105481565b34801561075957600080fd5b5061029761076836600461432f565b612385565b34801561077957600080fd5b506001546001600160a01b031661042b565b34801561079757600080fd5b506103016107a6366004613f5e565b612530565b3480156107b757600080fd5b506102976107c6366004613f5e565b61255c565b6107de6107d936600461439f565b61257d565b60405161030b9190614439565b3480156107f757600080fd5b50610297610806366004613f5e565b612723565b34801561081757600080fd5b5061042b7f000000000000000000000000000000000000000000000000000000000000000081565b34801561084b57600080fd5b50600c5461042b906001600160a01b031681565b34801561086b57600080fd5b5061029761087a36600461449b565b6128e2565b34801561088b57600080fd5b5061029761089a3660046144e9565b6129bc565b3480156108ab57600080fd5b506103016108ba366004613f5e565b612a08565b3480156108cb57600080fd5b506103016108da366004613f5e565b600a6020526000908152604090205481565b3480156108f857600080fd5b50610297610907366004613fcb565b612a23565b34801561091857600080fd5b5061096f610927366004613f5e565b60076020526000908152604090208054600182015460028301546003909301546001600160a01b03831693600160a01b840460ff1693600160a81b900463ffffffff16929186565b604080516001600160a01b039097168752941515602087015263ffffffff909316938501939093526060840152608083019190915260a082015260c00161030b565b3480156109bd57600080fd5b506102976109cc366004613f5e565b612afc565b600054600160a01b900460ff1615610a58577f00000000000000000000000000000000000000000000000000000000000000006001600160a01b031663d0e30db0346040518263ffffffff1660e01b81526004016000604051808303818588803b158015610a3e57600080fd5b505af1158015610a52573d6000803e3d6000fd5b50505050505b565b6001546001600160a01b03163314610a8d5760405162461bcd60e51b8152600401610a849061456e565b60405180910390fd5b610a95612b94565b610a9d612bed565b670de0b6b3a7640000811115610af55760405162461bcd60e51b815260206004820152601960248201527f4261642070726f746f636f6c46656543617074757265506374000000000000006044820152606401610a84565b6001600160a01b038216610b4b5760405162461bcd60e51b815260206004820152601d60248201527f4261642070726f746f636f6c46656543617074757265416464726573730000006044820152606401610a84565b600b8054610100600160a81b0319166101006001600160a01b03851690810291909117909155600f8290556040518291907fc1993b89fd79a19ece7beb067ddc8534ca26d29c0ff94ea2f53b4a508d1eedc990600090a3610baa612bfc565b5050565b6001546001600160a01b03163314610bd85760405162461bcd60e51b8152600401610a849061456e565b600654600160a01b900460ff1615610c025760405162461bcd60e51b8152600401610a84906145a3565b610c0a612b94565b610c12612bed565b6040516302abf57960e61b8152721259195b9d1a599a595c95da1a5d195b1a5cdd606a1b60048201526000907f00000000000000000000000000000000000000000000000000000000000000006001600160a01b03169063aafd5e4090602401602060405180830381865afa158015610c8f573d6000803e3d6000fd5b505050506040513d601f19601f82011682018060405250810190610cb391906145da565b6040516390978d1b60e01b8152600481018490529091506001600160a01b038216906390978d1b90602401602060405180830381865afa158015610cfb573d6000803e3d6000fd5b505050506040513d601f19601f82011682018060405250810190610d1f91906145f7565b610d6b5760405162461bcd60e51b815260206004820152601860248201527f4964656e746966696572206e6f7420737570706f7274656400000000000000006044820152606401610a84565b600d8290556040518281527ff45367c278fcceff23d601ce4bdd191e5bd61687ff9f29dc7276a08fe54c0c5d9060200160405180910390a150610dac612bfc565b50565b6000610db9612b94565b610dc1612bed565b610dcb8383612c11565b9050610dd5612bfc565b92915050565b6001546001600160a01b03163314610e055760405162461bcd60e51b8152600401610a849061456e565b610e0d612b94565b610e15612bed565b6001600160a01b03818116600081815260076020908152604091829020805460ff60a01b1981169091558251938452909316928201929092527fac111b3b527b307393c94d98f26140effb71411054466818be97912d2d65f77691015b60405180910390a1610dac612bfc565b610e8a612b94565b610e92612bed565b600b5460ff1615610eb55760405162461bcd60e51b8152600401610a8490614614565b826001600160a01b03167f00000000000000000000000000000000000000000000000000000000000000006001600160a01b03161480610ef3575080155b610f2f5760405162461bcd60e51b815260206004820152600d60248201526c086c2dce840e6cadcc840cae8d609b1b6044820152606401610a84565b6000670de0b6b3a7640000610f4385612d09565b610f4d9085614656565b610f57919061468b565b6001600160a01b038581166000908152600760205260409081902054905163079cc67960e41b81523360048201526024810187905292935016906379cc6790906044016020604051808303816000875af1158015610fb9573d6000803e3d6000fd5b505050506040513d601f19601f82011682018060405250810190610fdd91906145f7565b506001600160a01b0384166000908152600760205260408120600201805483929061100990849061469f565b9091555050811561109d57604051632e1a7d4d60e01b8152600481018290527f00000000000000000000000000000000000000000000000000000000000000006001600160a01b031690632e1a7d4d90602401600060405180830381600087803b15801561107657600080fd5b505af115801561108a573d6000803e3d6000fd5b505050506110983382612e04565b6110b1565b6110b16001600160a01b0385163383612f1d565b604080518281526020810185905233916001600160a01b038716917fcda1185f28599e6bd14ab8a68b3c30a11e1dce4256b5e67e94dd3fd846a6c589910160405180910390a350611100612bfc565b505050565b6001546001600160a01b0316331461112f5760405162461bcd60e51b8152600401610a849061456e565b611137612b94565b61113f612bed565b806008600061114e8587612f80565b815260208101919091526040908101600090812080546001600160a01b0319166001600160a01b0394851617905590518383169285169186917f234e7af08f77827792cc909447f27d2e6a3e2d839b04e26b50b71704a131c8a89190a4611100612bfc565b6001546001600160a01b031633146111dd5760405162461bcd60e51b8152600401610a849061456e565b6111e5612b94565b6111ed612bed565b600b805460ff19168215159081179091556040517f0e2fb031ee032dc02d8011dc50b816eb450cf856abd8261680dac74f72165bd290600090a2610dac612bfc565b611237612b94565b61123f612bed565b60006112496116de565b60065490915063ffffffff600160a81b909104811690821611156112af5760405162461bcd60e51b815260206004820152601760248201527f5265717565737420706173736564206c6976656e6573730000000000000000006044820152606401610a84565b60006112b9612fbd565b905060105481106112d3576112cc6130c3565b50506115e9565b60006112dd6131a2565b601054600c549192506112fb916001600160a01b0316908390613246565b806001600160a01b031663af355d1e600d5485600c60009054906101000a90046001600160a01b0316600087601054611334919061469f565b600c5460065460405160e089901b6001600160e01b0319168152600481019790975263ffffffff9586166024880152610120604488015260006101248801526001600160a01b039485166064880152608487019390935260a4860191909152600160a01b900490921660c48401521660e4820152670de0b6b3a7640000610104820152610144016020604051808303816000875af19250505080156113f6575060408051601f3d908101601f191682019092526113f3918101906146b6565b60015b61140a576114026130c3565b5050506115e9565b600c54611422906001600160a01b03168360006132f8565b5060408051610160810182526006546001600160a01b039081168252600060208301819052600c549182169383019390935260608201839052670de0b6b3a7640000608083015260a0820183905260c082019061148c90600160a01b900463ffffffff16876146cf565b63ffffffff16815260200160008152602001848152602001846010546114b2919061469f565b8152600c5463ffffffff600160a01b820481166020909301929092526000600281905560038190556004819055600555600680546001600160c81b0319169055601054929350611512926001600160a01b03909116913391309161340d16565b601054600c5461152f916001600160a01b03909116908490613246565b600d5460405163139c641960e31b81526001600160a01b03841691639ce320c891611565919088908690339030906004016146f7565b6020604051808303816000875af1158015611584573d6000803e3d6000fd5b505050506040513d601f19601f820116820180604052508101906115a891906146b6565b5060405163ffffffff8516815233907f15951cb2ef6993bc23a55912e7d0bcac13e4797c432aaa334816aed6914a7a909060200160405180910390a2505050505b6116086115f46131a2565b600c546001600160a01b03169060006132f8565b610a58612bfc565b6000546001600160a01b031661162557600080fd5b60005460405163117c72b360e11b8152600481018390526001600160a01b03909116906322f8e56690602401600060405180830381600087803b158015610a3e57600080fd5b6001546001600160a01b031633146116955760405162461bcd60e51b8152600401610a849061456e565b61169d612b94565b6116a5612bed565b6001600160a01b038216600090815260076020526040812060010180548392906116d09084906147ea565b90915550610baa9050612bfc565b600080546001600160a01b03161561176a5760008054906101000a90046001600160a01b03166001600160a01b03166329cb924d6040518163ffffffff1660e01b8152600401602060405180830381865afa158015611741573d6000803e3d6000fd5b505050506040513d601f19601f8201168201806040525081019061176591906146b6565b905090565b504290565b611777612b94565b61177f612bed565b6001600160a01b038082166000818152600a602052604081208054919055600b5490926117b3929161010090041683612f1d565b60405181906001600160a01b038416907f74740239d7d696c84422b720e125e1f47c4138c66d1f4d2a48e99f4197cdb79c90600090a350610dac612bfc565b6000600860006118028486612f80565b81526020810191909152604001600020546001600160a01b03169392505050565b6001546001600160a01b0316331461184d5760405162461bcd60e51b8152600401610a849061456e565b600654600160a01b900460ff16156118775760405162461bcd60e51b8152600401610a84906145a3565b61187f612b94565b611887612bed565b806000036118d75760405162461bcd60e51b815260206004820152601760248201527f626f6e6420657175616c20746f2066696e616c206665650000000000000000006044820152606401610a84565b6040516302abf57960e61b81527210dbdb1b185d195c985b15da1a5d195b1a5cdd606a1b60048201526000907f00000000000000000000000000000000000000000000000000000000000000006001600160a01b03169063aafd5e4090602401602060405180830381865afa158015611954573d6000803e3d6000fd5b505050506040513d601f19601f8201168201806040525081019061197891906145da565b604051631d1d5b3960e11b81526001600160a01b03858116600483015291925090821690633a3ab67290602401602060405180830381865afa1580156119c2573d6000803e3d6000fd5b505050506040513d601f19601f820116820180604052508101906119e691906145f7565b611a255760405162461bcd60e51b815260206004820152601060248201526f139bdd081bdb881dda1a5d195b1a5cdd60821b6044820152606401610a84565b600c80546001600160a01b0319166001600160a01b0385161790556000611a4a612fbd565b611a549084614829565b60108190556040518181529091506001600160a01b038516907fbfa9a96010167e98ce8c004f718932cbbfd33a58d681c752e693be7d457a1b3b9060200160405180910390a25050610baa612bfc565b611aac612b94565b611ab4612bed565b600b5460ff1615611ad75760405162461bcd60e51b8152600401610a8490614614565b6001600160a01b038216600090815260076020526040902054600160a01b900460ff16611b3a5760405162461bcd60e51b8152602060048201526011602482015270151bdad95b881b9bdd08195b98589b1959607a1b6044820152606401610a84565b816001600160a01b03167f00000000000000000000000000000000000000000000000000000000000000006001600160a01b0316148015611b7a57508034145b80611b83575034155b611bbf5760405162461bcd60e51b815260206004820152600d60248201526c426164206d73672e76616c756560981b6044820152606401610a84565b6000611bca83612d09565b611bdc83670de0b6b3a7640000614656565b611be6919061468b565b6001600160a01b038416600090815260076020526040812060020180549293508492909190611c16908490614829565b90915550506001600160a01b03838116600090815260076020526040908190205490516340c10f1960e01b8152336004820152602481018490529116906340c10f19906044016020604051808303816000875af1158015611c7b573d6000803e3d6000fd5b505050506040513d601f19601f82011682018060405250810190611c9f91906145f7565b50826001600160a01b03167f00000000000000000000000000000000000000000000000000000000000000006001600160a01b0316148015611ce15750600034115b15611d3f57826001600160a01b031663d0e30db0346040518263ffffffff1660e01b81526004016000604051808303818588803b158015611d2157600080fd5b505af1158015611d35573d6000803e3d6000fd5b5050505050611d54565b611d546001600160a01b03841633308561340d565b604080518381526020810183905233916001600160a01b038616917f3c69701a61c79a92ef9692903aaa0068bce8771361ecb09547391e4fb4df8537910160405180910390a350610baa612bfc565b611dab612b94565b611db3612bed565b6001546001600160a01b03163314611ddd5760405162461bcd60e51b8152600401610a849061456e565b6040516001600160a01b0383166024820152604481018490528115156064820152611e3690859060840160408051601f198184030181529190526020810180516001600160e01b031663272751c760e01b179052613445565b816001600160a01b031683857fb7d00a563842efb2c121a0eb02b7bb7ba1a34625bbc3d65057f1f0dbec0ec2a184604051611e75911515815260200190565b60405180910390a4611e85612bfc565b50505050565b6001546001600160a01b03163314611eb55760405162461bcd60e51b8152600401610a849061456e565b611ebd612b94565b611ec5612bed565b6040805160e0810182526002805482526003805460208401526004805494840194909452600580546060850152600680546001600160a01b038116608087015260ff600160a01b82041660a0870181905263ffffffff600160a81b83041660c088015260009586905593859055958490559290556001600160c81b031990931690559015611f6d576080810151601054600c54611f6d926001600160a01b0390911691612f1d565b80608001516001600160a01b0316816020015182600001517f993cba33f9b140c9ce20ba10d7eda92128d5beb6df856f064916108a11647a738460400151604051611fba91815260200190565b60405180910390a450610a58612bfc565b6001546001600160a01b03163314611ff55760405162461bcd60e51b8152600401610a849061456e565b610a586000613549565b612007612b94565b61200f612bed565b600b5460ff16156120325760405162461bcd60e51b8152600401610a8490614614565b600654600160a81b900463ffffffff1661204a6116de565b1161208d5760405162461bcd60e51b81526020600482015260136024820152724e6f7420706173736564206c6976656e65737360681b6044820152606401610a84565b600554600160ff86161b908116036120d95760405162461bcd60e51b815260206004820152600f60248201526e105b1c9958591e4818db185a5b5959608a1b6044820152606401610a84565b6121516002600001546040518060e001604052808c81526020018a81526020018981526020018881526020018b81526020018760ff1681526020018681525084848080602002602001604051908101604052809392919081815260200183836020028082843760009201919091525061359b92505050565b6121895760405162461bcd60e51b81526020600482015260096024820152682130b210283937b7b360b91b6044820152606401610a84565b6000806121958b6135d8565b915091506121a8600260030154876136a4565b600555600680546014906121c590600160a01b900460ff16614841565b91906101000a81548160ff021916908360ff1602179055506121eb82828d888c8e6136c7565b896000036122ed57600354600454604051602481019290925260448201526000906001600160a01b03841690839060640160408051601f198184030181529181526020820180516001600160e01b031663124e93e160e21b1790525161225592919060240161485e565b60408051601f198184030181529181526020820180516001600160e01b0316637375c56f60e11b1790525161228a9190614882565b600060405180830381855af49150503d80600081146122c5576040519150601f19603f3d011682016040523d82523d6000602084013e6122ca565b606091505b50509050806122eb5760405162461bcd60e51b8152600401610a849061489e565b505b600654600160a01b900460ff1660000361232257600654601054600c54612322926001600160a01b0391821692911690612f1d565b336001600160a01b03168b8760ff167ff652dd63b1aedbf9e740f3152fb67b0d94d069cf1182811ebd88921850d935678d898e8e8e60405161236895949392919061493f565b60405180910390a4505061237a612bfc565b505050505050505050565b61238d612b94565b612395612bed565b600654600160a01b900460ff16156123bf5760405162461bcd60e51b8152600401610a84906145a3565b600b5460ff16156123e25760405162461bcd60e51b8152600401610a8490614614565b60008460ff16116124355760405162461bcd60e51b815260206004820181905260248201527f42756e646c65206d7573742068617665206174206c656173742031206c6561666044820152606401610a84565b600c54600090600160a01b900463ffffffff166124506116de565b61245a91906146cf565b60006005556006805460028790556003869055600485905560ff8816600160a01b0263ffffffff808516600160a81b0260ff60a01b19166001600160c81b031990931692909217176001600160a01b03191633908117909255601054600c549394506124d4936001600160a01b0316929130919061340d16565b336001600160a01b031683857f3185fa6fac8e91dc65e7424a8081c73353151d2715bddb71db0982c1fe4c0fd484898c8c8960405161251795949392919061499e565b60405180910390a450612528612bfc565b505050505050565b600061253a612b94565b612542612bed565b61254d826000612c11565b9050612557612bfc565b919050565b612564612b94565b61256c612bed565b61257581613958565b610dac612bfc565b606034156125cd5760405162461bcd60e51b815260206004820152601b60248201527f4f6e6c79206d756c746963616c6c207769746820302076616c756500000000006044820152606401610a84565b8167ffffffffffffffff8111156125e6576125e6614099565b60405190808252806020026020018201604052801561261957816020015b60608152602001906001900390816126045790505b50905060005b8281101561271c576000803086868581811061263d5761263d6149fc565b905060200281019061264f9190614a12565b60405161265d929190614a59565b600060405180830381855af49150503d8060008114612698576040519150601f19603f3d011682016040523d82523d6000602084013e61269d565b606091505b5091509150816126e9576044815110156126b657600080fd5b600481019050808060200190518101906126d09190614a69565b60405162461bcd60e51b8152600401610a849190614ad7565b808484815181106126fc576126fc6149fc565b60200260200101819052505050808061271490614aea565b91505061261f565b5092915050565b6001546001600160a01b0316331461274d5760405162461bcd60e51b8152600401610a849061456e565b612755612b94565b61275d612bed565b6001600160a01b038181166000908152600760205260409020541661287b57604051637e178db760e11b81526001600160a01b0382811660048301527f0000000000000000000000000000000000000000000000000000000000000000169063fc2f1b6e906024016020604051808303816000875af11580156127e4573d6000803e3d6000fd5b505050506040513d601f19601f8201168201806040525081019061280891906145da565b6001600160a01b03828116600090815260076020526040902080546001600160a01b0319169290911691909117905561283f6116de565b6001600160a01b0382166000908152600760205260409020805463ffffffff92909216600160a81b0263ffffffff60a81b199092169190911790555b6001600160a01b038181166000818152600760209081526040918290208054600160a01b60ff60a01b198216179091558251938452909316928201929092527f04e291c80180d65a57b5bf1bed775777ec0d6f283ef34bcf130712714d8bb7f79101610e72565b6001546001600160a01b0316331461290c5760405162461bcd60e51b8152600401610a849061456e565b612914612b94565b61291c612bed565b6102588163ffffffff16116129685760405162461bcd60e51b8152602060048201526012602482015271131a5d995b995cdcc81d1bdbc81cda1bdc9d60721b6044820152606401610a84565b600c805463ffffffff60a01b1916600160a01b63ffffffff8416908102919091179091556040519081527f04dd1d84d387f404568a7954b5e398518bdd716e1a8f4a790be9a1a225ad934790602001610e72565b6001546001600160a01b031633146129e65760405162461bcd60e51b8152600401610a849061456e565b6129ee612b94565b6129f6612bed565b612a008282613445565b610baa612bfc565b6000612a12612b94565b612a1a612bed565b61254d82612d09565b6001546001600160a01b03163314612a4d5760405162461bcd60e51b8152600401610a849061456e565b612a55612b94565b612a5d612bed565b6040805180820182526001600160a01b03848116808352848216602080850182815260008a815260098352879020955186549086166001600160a01b031991821617875590516001909601805496909516951694909417909255835187815292830152918101919091527f36050d958750e6ac3aa674ac7bbe8d0ae6a2f7d4b808e8c2c42c1f22fc9fc4bb9060600160405180910390a1611100612bfc565b6001546001600160a01b03163314612b265760405162461bcd60e51b8152600401610a849061456e565b6001600160a01b038116612b8b5760405162461bcd60e51b815260206004820152602660248201527f4f776e61626c653a206e6577206f776e657220697320746865207a65726f206160448201526564647265737360d01b6064820152608401610a84565b610dac81613549565b600054600160a01b900460ff16610a585760405162461bcd60e51b815260206004820152601f60248201527f5265656e7472616e637947756172643a207265656e7472616e742063616c6c006044820152606401610a84565b6000805460ff60a01b19169055565b6000805460ff60a01b1916600160a01b179055565b6000612c1c83613958565b6001600160a01b038381166000908152600760209081526040808320815160c08101835281549586168152600160a01b860460ff16151593810193909352600160a81b90940463ffffffff16908201526001830154606082018190526002840154608083015260039093015460a0820152918112612c9b576000612ca1565b81606001515b90506000612caf8286614829565b90506000828460800151612cc39190614829565b905080600003612ce157670de0b6b3a7640000945050505050610dd5565b80612cf483670de0b6b3a7640000614656565b612cfe919061468b565b979650505050505050565b6001600160a01b038082166000908152600760209081526040808320805482516318160ddd60e01b8152925194959194869491909216926318160ddd92600480830193928290030181865afa158015612d66573d6000803e3d6000fd5b505050506040513d601f19601f82011682018060405250810190612d8a91906146b6565b905080600003612da55750670de0b6b3a76400009392505050565b612dae82613aa7565b612db784613958565b6000826003015483600101548460020154612dd29190614b03565b612ddc91906147ea565b905081612df182670de0b6b3a7640000614656565b612dfb919061468b565b95945050505050565b80471015612e545760405162461bcd60e51b815260206004820152601d60248201527f416464726573733a20696e73756666696369656e742062616c616e63650000006044820152606401610a84565b6000826001600160a01b03168260405160006040518083038185875af1925050503d8060008114612ea1576040519150601f19603f3d011682016040523d82523d6000602084013e612ea6565b606091505b50509050806111005760405162461bcd60e51b815260206004820152603a60248201527f416464726573733a20756e61626c6520746f2073656e642076616c75652c207260448201527f6563697069656e74206d617920686176652072657665727465640000000000006064820152608401610a84565b6040516001600160a01b03831660248201526044810182905261110090849063a9059cbb60e01b906064015b60408051601f198184030181529190526020810180516001600160e01b03166001600160e01b031990931692909217909152613b0f565b604080516001600160a01b038416602082015290810182905260009060600160405160208183030381529060405280519060200120905092915050565b6040516302abf57960e61b81526453746f726560d81b60048201526000907f00000000000000000000000000000000000000000000000000000000000000006001600160a01b03169063aafd5e4090602401602060405180830381865afa15801561302c573d6000803e3d6000fd5b505050506040513d601f19601f8201168201806040525081019061305091906145da565b600c54604051635b97aadd60e01b81526001600160a01b039182166004820152911690635b97aadd90602401602060405180830381865afa158015613099573d6000803e3d6000fd5b505050506040513d601f19601f820116820180604052508101906130bd9190614b44565b51919050565b600c5460065460105460405163a9059cbb60e01b81526001600160a01b039283166004820152602481019190915291169063a9059cbb906044016020604051808303816000875af115801561311c573d6000803e3d6000fd5b505050506040513d601f19601f8201168201806040525081019061314091906145f7565b506000600281905560038190556004819055600555600680546001600160c81b0319169055337f0cfbbf45ab7f5225663454de7117b1b0ed5a7c133b61f54ccf367dcf8b6d4d5961318f6116de565b60405190815260200160405180910390a2565b6040516302abf57960e61b815275536b696e6e794f7074696d69737469634f7261636c6560501b60048201526000907f00000000000000000000000000000000000000000000000000000000000000006001600160a01b03169063aafd5e4090602401602060405180830381865afa158015613222573d6000803e3d6000fd5b505050506040513d601f19601f8201168201806040525081019061176591906145da565b604051636eb1769f60e11b81523060048201526001600160a01b038381166024830152600091839186169063dd62ed3e90604401602060405180830381865afa158015613297573d6000803e3d6000fd5b505050506040513d601f19601f820116820180604052508101906132bb91906146b6565b6132c59190614829565b6040516001600160a01b038516602482015260448101829052909150611e8590859063095ea7b360e01b90606401612f49565b8015806133725750604051636eb1769f60e11b81523060048201526001600160a01b03838116602483015284169063dd62ed3e90604401602060405180830381865afa15801561334c573d6000803e3d6000fd5b505050506040513d601f19601f8201168201806040525081019061337091906146b6565b155b6133dd5760405162461bcd60e51b815260206004820152603660248201527f5361666545524332303a20617070726f76652066726f6d206e6f6e2d7a65726f60448201527520746f206e6f6e2d7a65726f20616c6c6f77616e636560501b6064820152608401610a84565b6040516001600160a01b03831660248201526044810182905261110090849063095ea7b360e01b90606401612f49565b6040516001600160a01b0380851660248301528316604482015260648101829052611e859085906323b872dd60e01b90608401612f49565b600080613451846135d8565b915091506000826001600160a01b0316828560405160240161347492919061485e565b60408051601f198184030181529181526020820180516001600160e01b0316637375c56f60e11b179052516134a99190614882565b600060405180830381855af49150503d80600081146134e4576040519150601f19603f3d011682016040523d82523d6000602084013e6134e9565b606091505b505090508061350a5760405162461bcd60e51b8152600401610a849061489e565b847f218987b934c2f6bc596136829fbf43a5fef4d6fafce41f3f6254d9a870c2deec8560405161353a9190614ad7565b60405180910390a25050505050565b600180546001600160a01b038381166001600160a01b0319831681179093556040519116919082907f8be0079c531659141344cd1fd0a4f28419497f9722a3daafe3b4186f6b6457e090600090a35050565b60006135ce8285856040516020016135b39190614b86565b60405160208183030381529060405280519060200120613be1565b90505b9392505050565b600081815260096020526040902080546001909101546001600160a01b039182169116806136485760405162461bcd60e51b815260206004820152601960248201527f53706f6b65506f6f6c206e6f7420696e697469616c697a6564000000000000006044820152606401610a84565b6001600160a01b0382163b61369f5760405162461bcd60e51b815260206004820152601760248201527f41646170746572206e6f7420696e697469616c697a65640000000000000000006044820152606401610a84565b915091565b60006136b561010060ff8416614c1d565b61ffff166001901b8317905092915050565b825160005b8181101561394e5760008582815181106136e8576136e86149fc565b60200260200101519050600060086000613702848b612f80565b81526020810191909152604001600020546001600160a01b03169050806137635760405162461bcd60e51b8152602060048201526015602482015274149bdd5d19481b9bdd081dda1a5d195b1a5cdd1959605a1b6044820152606401610a84565b6000868481518110613777576137776149fc565b602002602001015113156139215760008a6001600160a01b031683838987815181106137a5576137a56149fc565b60209081029190910101516040516001600160a01b03938416602482015291831660448301526064820152908c16608482015260a40160408051601f198184030181529181526020820180516001600160e01b03166314b231d760e21b179052516138109190614882565b600060405180830381855af49150503d806000811461384b576040519150601f19603f3d011682016040523d82523d6000602084013e613850565b606091505b50509050806138715760405162461bcd60e51b8152600401610a849061489e565b868481518110613883576138836149fc565b602002602001015160076000856001600160a01b03166001600160a01b0316815260200190815260200160002060010160008282546138c29190614b03565b925050819055508684815181106138db576138db6149fc565b602002602001015160076000856001600160a01b03166001600160a01b03168152602001908152602001600020600201600082825461391a919061469f565b9091555050505b61394482868581518110613937576139376149fc565b6020026020010151613bf7565b50506001016136cc565b5050505050505050565b6040516370a0823160e01b81523060048201526000906001600160a01b038316906370a0823190602401602060405180830381865afa15801561399f573d6000803e3d6000fd5b505050506040513d601f19601f820116820180604052508101906139c391906146b6565b600c549091506000906001600160a01b0384811691161480156139f15750600654600160a01b900460ff1615155b6139fb5781613a08565b601054613a08908361469f565b6001600160a01b038416600090815260076020526040902060020154909150811115611100576001600160a01b038316600090815260076020526040902060020154613a54908261469f565b6001600160a01b03841660009081526007602052604081206001018054909190613a7f9084906147ea565b90915550506001600160a01b0383166000908152600760205260409020600201819055505050565b60038101548154600091613ac791600160a81b900463ffffffff16613cca565b905080826003016000828254613add919061469f565b90915550613aeb90506116de565b825463ffffffff91909116600160a81b0263ffffffff60a81b199091161790915550565b6000613b64826040518060400160405280602081526020017f5361666545524332303a206c6f772d6c6576656c2063616c6c206661696c6564815250856001600160a01b0316613d279092919063ffffffff16565b8051909150156111005780806020019051810190613b8291906145f7565b6111005760405162461bcd60e51b815260206004820152602a60248201527f5361666545524332303a204552433230206f7065726174696f6e20646964206e6044820152691bdd081cdd58d8d9595960b21b6064820152608401610a84565b600082613bee8584613d36565b14949350505050565b6000670de0b6b3a7640000600f5483613c109190614656565b613c1a919061468b565b90506000613c28828461469f565b90508015613c91576001600160a01b03841660009081526007602052604081206003018054839290613c5b908490614829565b90915550506001600160a01b03841660009081526007602052604081206001018054839290613c8b908490614b03565b90915550505b8115611e85576001600160a01b0384166000908152600a602052604081208054849290613cbf908490614829565b909155505050505050565b60008082613cd66116de565b613ce0919061469f565b90506000670de0b6b3a764000082600e5487613cfc9190614656565b613d069190614656565b613d10919061468b565b9050848110613d1f5784612dfb565b949350505050565b60606135ce8484600085613daa565b600081815b8451811015613da2576000858281518110613d5857613d586149fc565b60200260200101519050808311613d7e5760008381526020829052604090209250613d8f565b600081815260208490526040902092505b5080613d9a81614aea565b915050613d3b565b509392505050565b606082471015613e0b5760405162461bcd60e51b815260206004820152602660248201527f416464726573733a20696e73756666696369656e742062616c616e636520666f6044820152651c8818d85b1b60d21b6064820152608401610a84565b6001600160a01b0385163b613e625760405162461bcd60e51b815260206004820152601d60248201527f416464726573733a2063616c6c20746f206e6f6e2d636f6e74726163740000006044820152606401610a84565b600080866001600160a01b03168587604051613e7e9190614882565b60006040518083038185875af1925050503d8060008114613ebb576040519150601f19603f3d011682016040523d82523d6000602084013e613ec0565b606091505b5091509150612cfe82828660608315613eda5750816135d1565b825115613eea5782518084602001fd5b8160405162461bcd60e51b8152600401610a849190614ad7565b6001600160a01b0381168114610dac57600080fd5b60008060408385031215613f2c57600080fd5b8235613f3781613f04565b946020939093013593505050565b600060208284031215613f5757600080fd5b5035919050565b600060208284031215613f7057600080fd5b81356135d181613f04565b8015158114610dac57600080fd5b600080600060608486031215613f9e57600080fd5b8335613fa981613f04565b9250602084013591506040840135613fc081613f7b565b809150509250925092565b600080600060608486031215613fe057600080fd5b833592506020840135613ff281613f04565b91506040840135613fc081613f04565b60006020828403121561401457600080fd5b81356135d181613f7b565b6000806040838503121561403257600080fd5b82359150602083013561404481613f04565b809150509250929050565b6000806000806080858703121561406557600080fd5b8435935060208501359250604085013561407e81613f04565b9150606085013561408e81613f7b565b939692955090935050565b634e487b7160e01b600052604160045260246000fd5b604051601f8201601f1916810167ffffffffffffffff811182821017156140d8576140d8614099565b604052919050565b600067ffffffffffffffff8211156140fa576140fa614099565b5060051b60200190565b600082601f83011261411557600080fd5b8135602061412a614125836140e0565b6140af565b82815260059290921b8401810191818101908684111561414957600080fd5b8286015b84811015614164578035835291830191830161414d565b509695505050505050565b803560ff8116811461255757600080fd5b600082601f83011261419157600080fd5b813560206141a1614125836140e0565b82815260059290921b840181019181810190868411156141c057600080fd5b8286015b848110156141645780356141d781613f04565b83529183019183016141c4565b60008083601f8401126141f657600080fd5b50813567ffffffffffffffff81111561420e57600080fd5b6020830191508360208260051b850101111561422957600080fd5b9250929050565b60008060008060008060008060006101008a8c03121561424f57600080fd5b8935985060208a0135975060408a013567ffffffffffffffff8082111561427557600080fd5b6142818d838e01614104565b985060608c013591508082111561429757600080fd5b6142a38d838e01614104565b975060808c01359150808211156142b957600080fd5b6142c58d838e01614104565b96506142d360a08d0161416f565b955060c08c01359150808211156142e957600080fd5b6142f58d838e01614180565b945060e08c013591508082111561430b57600080fd5b506143188c828d016141e4565b915080935050809150509295985092959850929598565b60008060008060008060a0878903121561434857600080fd5b863567ffffffffffffffff81111561435f57600080fd5b61436b89828a016141e4565b909750955061437e90506020880161416f565b93506040870135925060608701359150608087013590509295509295509295565b600080602083850312156143b257600080fd5b823567ffffffffffffffff8111156143c957600080fd5b6143d5858286016141e4565b90969095509350505050565b60005b838110156143fc5781810151838201526020016143e4565b83811115611e855750506000910152565b600081518084526144258160208601602086016143e1565b601f01601f19169290920160200192915050565b6000602080830181845280855180835260408601915060408160051b870101925083870160005b8281101561448e57603f1988860301845261447c85835161440d565b94509285019290850190600101614460565b5092979650505050505050565b6000602082840312156144ad57600080fd5b813563ffffffff811681146135d157600080fd5b600067ffffffffffffffff8211156144db576144db614099565b50601f01601f191660200190565b600080604083850312156144fc57600080fd5b82359150602083013567ffffffffffffffff81111561451a57600080fd5b8301601f8101851361452b57600080fd5b8035614539614125826144c1565b81815286602083850101111561454e57600080fd5b816020840160208301376000602083830101528093505050509250929050565b6020808252818101527f4f776e61626c653a2063616c6c6572206973206e6f7420746865206f776e6572604082015260600190565b6020808252601d908201527f50726f706f73616c2068617320756e636c61696d6564206c6561766573000000604082015260600190565b6000602082840312156145ec57600080fd5b81516135d181613f04565b60006020828403121561460957600080fd5b81516135d181613f7b565b60208082526012908201527110dbdb9d1c9858dd081a5cc81c185d5cd95960721b604082015260600190565b634e487b7160e01b600052601160045260246000fd5b600081600019048311821515161561467057614670614640565b500290565b634e487b7160e01b600052601260045260246000fd5b60008261469a5761469a614675565b500490565b6000828210156146b1576146b1614640565b500390565b6000602082840312156146c857600080fd5b5051919050565b600063ffffffff8083168185168083038211156146ee576146ee614640565b01949350505050565b85815263ffffffff851660208201526102006040820181905260009082015283516001600160a01b03166060820152610220810160208501516001600160a01b03811660808401525060408501516001600160a01b03811660a084015250606085015180151560c084015250608085015160e083015260a0850151610100818185015260c08701519150610120828186015260e0880151925061014083818701528289015161016087015281890151610180870152808901516101a0870152505050506147d06101c08301856001600160a01b03169052565b6001600160a01b0383166101e08301529695505050505050565b60008083128015600160ff1b85018412161561480857614808614640565b6001600160ff1b038401831381161561482357614823614640565b50500390565b6000821982111561483c5761483c614640565b500190565b600060ff82168061485457614854614640565b6000190192915050565b6001600160a01b03831681526040602082018190526000906135ce9083018461440d565b600082516148948184602087016143e1565b9190910192915050565b60208082526013908201527219195b1959d85d1958d85b1b0819985a5b1959606a1b604082015260600190565b600081518084526020808501945080840160005b838110156149045781516001600160a01b0316875295820195908201906001016148df565b509495945050505050565b600081518084526020808501945080840160005b8381101561490457815187529582019590820190600101614923565b85815260a06020820152600061495860a08301876148cb565b828103604084015261496a818761490f565b9050828103606084015261497e818661490f565b90508281036080840152614992818561490f565b98975050505050505050565b63ffffffff8616815260ff85166020820152608060408201819052810183905260006001600160fb1b038411156149d457600080fd5b8360051b808660a0850137600090830160a00190815260609092019290925295945050505050565b634e487b7160e01b600052603260045260246000fd5b6000808335601e19843603018112614a2957600080fd5b83018035915067ffffffffffffffff821115614a4457600080fd5b60200191503681900382131561422957600080fd5b8183823760009101908152919050565b600060208284031215614a7b57600080fd5b815167ffffffffffffffff811115614a9257600080fd5b8201601f81018413614aa357600080fd5b8051614ab1614125826144c1565b818152856020838501011115614ac657600080fd5b612dfb8260208301602086016143e1565b6020815260006135d1602083018461440d565b600060018201614afc57614afc614640565b5060010190565b600080821280156001600160ff1b0384900385131615614b2557614b25614640565b600160ff1b8390038412811615614b3e57614b3e614640565b50500190565b600060208284031215614b5657600080fd5b6040516020810181811067ffffffffffffffff82111715614b7957614b79614099565b6040529151825250919050565b60208152815160208201526000602083015160e06040840152614bad61010084018261490f565b90506040840151601f1980858403016060860152614bcb838361490f565b92506060860151915080858403016080860152614be8838361490f565b9250608086015160a086015260ff60a08701511660c086015260c08601519150808584030160e086015250612dfb82826148cb565b600061ffff80841680614c3257614c32614675565b9216919091069291505056fea2646970667358221220549293ed4d887e16dd2a172492d4a858240db4e1a4aebf6371749bb84a50094b64736f6c634300080d0033",
  "libraries": {
    "MerkleLib": "0x7dB69eb9F52eD773E9b03f5068A1ea0275b2fD9d"
  }
}