{
  "address": "0x5A44A32c13e2C43416bFDE5dDF5DCb3880c42787",
  "abi": [
    {
      "inputs": [
        {
          "internalType": "contract WETH9Interface",
          "name": "_l1Weth",
          "type": "address"
        },
        {
          "internalType": "contract IMessageService",
          "name": "_l1MessageService",
          "type": "address"
        },
        {
          "internalType": "contract ITokenBridge",
          "name": "_l1TokenBridge",
          "type": "address"
        },
        {
          "internalType": "contract IERC20",
          "name": "_l1Usdc",
          "type": "address"
        },
        {
          "internalType": "contract ITokenMessenger",
          "name": "_cctpTokenMessenger",
          "type": "address"
        }
      ],
      "stateMutability": "nonpayable",
      "type": "constructor"
    },
    {
      "anonymous": false,
      "inputs": [
        {
          "indexed": false,
          "internalType": "address",
          "name": "target",
          "type": "address"
        },
        {
          "indexed": false,
          "internalType": "bytes",
          "name": "message",
          "type": "bytes"
        }
      ],
      "name": "MessageRelayed",
      "type": "event"
    },
    {
      "anonymous": false,
      "inputs": [
        {
          "indexed": false,
          "internalType": "address",
          "name": "l1Token",
          "type": "address"
        },
        {
          "indexed": false,
          "internalType": "address",
          "name": "l2Token",
          "type": "address"
        },
        {
          "indexed": false,
          "internalType": "uint256",
          "name": "amount",
          "type": "uint256"
        },
        {
          "indexed": false,
          "internalType": "address",
          "name": "to",
          "type": "address"
        }
      ],
      "name": "TokensRelayed",
      "type": "event"
    },
    {
      "inputs": [],
      "name": "L1_MESSAGE_SERVICE",
      "outputs": [
        {
          "internalType": "contract IMessageService",
          "name": "",
          "type": "address"
        }
      ],
      "stateMutability": "view",
      "type": "function"
    },
    {
      "inputs": [],
      "name": "L1_TOKEN_BRIDGE",
      "outputs": [
        {
          "internalType": "contract ITokenBridge",
          "name": "",
          "type": "address"
        }
      ],
      "stateMutability": "view",
      "type": "function"
    },
    {
      "inputs": [],
      "name": "L1_WETH",
      "outputs": [
        {
          "internalType": "contract WETH9Interface",
          "name": "",
          "type": "address"
        }
      ],
      "stateMutability": "view",
      "type": "function"
    },
    {
      "inputs": [],
      "name": "cctpTokenMessenger",
      "outputs": [
        {
          "internalType": "contract ITokenMessenger",
          "name": "",
          "type": "address"
        }
      ],
      "stateMutability": "view",
      "type": "function"
    },
    {
      "inputs": [],
      "name": "cctpV2",
      "outputs": [
        {
          "internalType": "bool",
          "name": "",
          "type": "bool"
        }
      ],
      "stateMutability": "view",
      "type": "function"
    },
    {
      "inputs": [],
      "name": "recipientCircleDomainId",
      "outputs": [
        {
          "internalType": "uint32",
          "name": "",
          "type": "uint32"
        }
      ],
      "stateMutability": "view",
      "type": "function"
    },
    {
      "inputs": [
        {
          "internalType": "address",
          "name": "target",
          "type": "address"
        },
        {
          "internalType": "bytes",
          "name": "message",
          "type": "bytes"
        }
      ],
      "name": "relayMessage",
      "outputs": [],
      "stateMutability": "payable",
      "type": "function"
    },
    {
      "inputs": [
        {
          "internalType": "address",
          "name": "l1Token",
          "type": "address"
        },
        {
          "internalType": "address",
          "name": "l2Token",
          "type": "address"
        },
        {
          "internalType": "uint256",
          "name": "amount",
          "type": "uint256"
        },
        {
          "internalType": "address",
          "name": "to",
          "type": "address"
        }
      ],
      "name": "relayTokens",
      "outputs": [],
      "stateMutability": "payable",
      "type": "function"
    },
    {
      "inputs": [],
      "name": "usdcToken",
      "outputs": [
        {
          "internalType": "contract IERC20",
          "name": "",
          "type": "address"
        }
      ],
      "stateMutability": "view",
      "type": "function"
    }
  ],
  "transactionHash": "0x8def97cdb986ab13fceb1b38d527dd69be3c7545841d75f1a1c1bb0d0a89e68b",
  "args": [
    "0xC02aaA39b223FE8D0A0e5C4F27eAD9083C756Cc2",
    "0xd19d4B5d358258f05D7B411E21A1460D11B0876F",
    "0x051F1D88f0aF5763fB888eC4378b4D8B29ea3319",
    "0xA0b86991c6218b36c1d19D4a2e9Eb0cE3606eB48",
    "0x28b5a0e9C621a5BadaA536219b3a228C8168cf5d"
  ],
  "numDeployments": 1,
  "solcInputHash": "0e331ee112563bf9d8d36add0a15fd56",
  "bytecode": "0x610160604081815234620002265760a0826200124580380380916200002582856200022a565b83398101031262000226578151916001600160a01b0391828416840362000226576020808301519380851685036200022657828401519381851685036200022657606081015190828216820362000226576080015182811691828203620002265760a05260c052600b608052835163011a412160e61b848201908152600482526001600160401b0392828701918483118484101762000208575f938493895251915afa923d156200021c573d9182116200020857845191620000f1601f8201601f19168301846200022a565b82523d5f8284013e5b83620001fc575b83620001ca575b50505060e0526101009384526101209283526101409182525191610ff693846200024f8539608051848181610306015281816105e901526106f2015260a0518481816103fc0152610b97015260c05184818161024c015281816104360152818161048c0152818161058f0152818161063b015281816107310152610ab8015260e0518481816102a601526105680152518381816108490152610b290152518281816101090152818161037501526108c30152518181816109b10152610c030152f35b81519181015192935090818110620001eb575b50501615155f808062000108565b5f19910360031b1b165f80620001dd565b81518114935062000101565b634e487b7160e01b5f52604160045260245ffd5b60609150620000fa565b5f80fd5b601f909101601f19168101906001600160401b03821190821017620002085760405256fe6080806040526004361015610012575f80fd5b5f905f3560e01c9081630cbae52014610bbb5750806311eac85514610b4d5780631efd482a14610adf57806352c8c75c1461039957806369bd096e1461032a5780636e400983146102cb578063775c0d03146102705780639748cf7c146102015763e6eb8ade14610081575f80fd5b60407ffffffffffffffffffffffffffffffffffffffffffffffffffffffffffffffffc3601126101fe576100b3610c27565b6024359067ffffffffffffffff908183116101eb57366023840112156101eb5782600401359182116101eb57602483019260248336920101116101eb578373ffffffffffffffffffffffffffffffffffffffff807f00000000000000000000000000000000000000000000000000000000000000001692833b156101fa5782906040519283917f9f3ce55a000000000000000000000000000000000000000000000000000000008352169485600483015282602483015260606044830152818381610182606482018b8d610ccc565b03925af180156101ef576101d7575b50506101d17f9e6c52944e331ba6270e7fe4cea2a4086bae8f7a27e1cdba07f416806f5d0ac4936040519384938452604060208501526040840191610ccc565b0390a180f35b6101e090610c4a565b6101eb57835f610191565b8380fd5b6040513d84823e3d90fd5b8280fd5b80fd5b50346101fe57807ffffffffffffffffffffffffffffffffffffffffffffffffffffffffffffffffc3601126101fe57602060405173ffffffffffffffffffffffffffffffffffffffff7f0000000000000000000000000000000000000000000000000000000000000000168152f35b50346101fe57807ffffffffffffffffffffffffffffffffffffffffffffffffffffffffffffffffc3601126101fe5760206040517f000000000000000000000000000000000000000000000000000000000000000015158152f35b50346101fe57807ffffffffffffffffffffffffffffffffffffffffffffffffffffffffffffffffc3601126101fe57602060405163ffffffff7f0000000000000000000000000000000000000000000000000000000000000000168152f35b50346101fe57807ffffffffffffffffffffffffffffffffffffffffffffffffffffffffffffffffc3601126101fe57602060405173ffffffffffffffffffffffffffffffffffffffff7f0000000000000000000000000000000000000000000000000000000000000000168152f35b5060807ffffffffffffffffffffffffffffffffffffffffffffffffffffffffffffffffc3601126107e5576103cc610c27565b73ffffffffffffffffffffffffffffffffffffffff60243581811681036107e5576064359082821682036107e5577f00000000000000000000000000000000000000000000000000000000000000008381168486161480610ab4575b156108415761045c604435857f00000000000000000000000000000000000000000000000000000000000000001683610d0a565b604051907fcb75c11c000000000000000000000000000000000000000000000000000000008252602082600481887f0000000000000000000000000000000000000000000000000000000000000000165afa80156107f157859288916107fc575b506020906024604051809581937fa56ec6320000000000000000000000000000000000000000000000000000000083528187166004840152165afa9182156107f15787926107b9575b50604435805b61055c57505050917fd7e09655439c3932e55857df3220186e5a7f0980825f20691c2b35d941dee75b9391816080945b81604051951685521660208401526044356040840152166060820152a180f35b828111156107b357825b7f0000000000000000000000000000000000000000000000000000000000000000156106bf57867f0000000000000000000000000000000000000000000000000000000000000000163b156106bb57886040517f8e0250ee00000000000000000000000000000000000000000000000000000000815282600482015263ffffffff7f0000000000000000000000000000000000000000000000000000000000000000166024820152888816604482015288851660648201528160848201528160a48201526107d060c4820152818160e481838d7f0000000000000000000000000000000000000000000000000000000000000000165af180156101ef576106a7575b50505b810390811161067a578061050c565b6024887f4e487b710000000000000000000000000000000000000000000000000000000081526011600452fd5b6106b090610c4a565b6106bb57885f610668565b8880fd5b6040517f6fd3504e00000000000000000000000000000000000000000000000000000000815281600482015263ffffffff7f0000000000000000000000000000000000000000000000000000000000000000166024820152878716604482015287841660648201526020816084818d8c7f0000000000000000000000000000000000000000000000000000000000000000165af180156107a857610764575b5061066b565b6020813d6020116107a0575b8161077d60209383610c8b565b8101031261079c575167ffffffffffffffff8116036106bb575f61075e565b8980fd5b3d9150610770565b6040513d8c823e3d90fd5b80610566565b9091506020813d6020116107e9575b816107d560209383610c8b565b810103126107e55751905f610506565b5f80fd5b3d91506107c8565b6040513d89823e3d90fd5b919250506020813d602011610839575b8161081960209383610c8b565b81010312610835575190848216820361083557849160206104bd565b8680fd5b3d915061080c565b5084839294937f00000000000000000000000000000000000000000000000000000000000000001680848616145f146109a957803b15610991578180916024604051809481937f2e1a7d4d00000000000000000000000000000000000000000000000000000000835260443560048401525af180156101ef57610995575b50827f000000000000000000000000000000000000000000000000000000000000000016803b156109915781608491604051928380927f9f3ce55a000000000000000000000000000000000000000000000000000000008252888b16600483015284602483015260606044830152846064830152604435905af180156101ef57610973575b5050907fd7e09655439c3932e55857df3220186e5a7f0980825f20691c2b35d941dee75b93816080949361053c565b6109809094939294610c4a565b61098d579091845f610944565b8480fd5b5080fd5b61099e90610c4a565b61098d57845f6108bf565b5050819293917f0000000000000000000000000000000000000000000000000000000000000000166109e060443582868816610d0a565b803b156107e5575f80916064604051809481937f522ea81a000000000000000000000000000000000000000000000000000000008352898b166004840152604435602484015289891660448401525af18015610aa957610a69575b50917fd7e09655439c3932e55857df3220186e5a7f0980825f20691c2b35d941dee75b93918160809461053c565b60809391955091610a9b7fd7e09655439c3932e55857df3220186e5a7f0980825f20691c2b35d941dee75b9593610c4a565b815f96925093509193610a3b565b6040513d5f823e3d90fd5b50837f0000000000000000000000000000000000000000000000000000000000000000161515610428565b346107e5575f7ffffffffffffffffffffffffffffffffffffffffffffffffffffffffffffffffc3601126107e557602060405173ffffffffffffffffffffffffffffffffffffffff7f0000000000000000000000000000000000000000000000000000000000000000168152f35b346107e5575f7ffffffffffffffffffffffffffffffffffffffffffffffffffffffffffffffffc3601126107e557602060405173ffffffffffffffffffffffffffffffffffffffff7f0000000000000000000000000000000000000000000000000000000000000000168152f35b346107e5575f7ffffffffffffffffffffffffffffffffffffffffffffffffffffffffffffffffc3601126107e55760209073ffffffffffffffffffffffffffffffffffffffff7f0000000000000000000000000000000000000000000000000000000000000000168152f35b6004359073ffffffffffffffffffffffffffffffffffffffff821682036107e557565b67ffffffffffffffff8111610c5e57604052565b7f4e487b71000000000000000000000000000000000000000000000000000000005f52604160045260245ffd5b90601f7fffffffffffffffffffffffffffffffffffffffffffffffffffffffffffffffe0910116810190811067ffffffffffffffff821117610c5e57604052565b601f82602094937fffffffffffffffffffffffffffffffffffffffffffffffffffffffffffffffe093818652868601375f8582860101520116010190565b9291909273ffffffffffffffffffffffffffffffffffffffff809116604051917fdd62ed3e000000000000000000000000000000000000000000000000000000008352306004840152602495169182868201526020938482604481865afa918215610aa9575f92610f68575b508101809111610f3c5760405190848201937f095ea7b3000000000000000000000000000000000000000000000000000000008552878301526044820152604481526080810167ffffffffffffffff9382821085831117610f105760c083019282841086851117610ee457865f94938594604052527f5361666545524332303a206c6f772d6c6576656c2063616c6c206661696c656460a0820152519082855af1903d15610ed3573d928311610ea757610e6f9394955060405192610e62867fffffffffffffffffffffffffffffffffffffffffffffffffffffffffffffffe0601f8401160185610c8b565b83523d5f8685013e610f97565b8051918215918215610e87575b50509050156107e557565b8092508193810103126107e557015180151581036107e557805f80610e7c565b857f4e487b71000000000000000000000000000000000000000000000000000000005f5260416004525ffd5b9150610e6f92939450606091610f97565b887f4e487b71000000000000000000000000000000000000000000000000000000005f5260416004525ffd5b877f4e487b71000000000000000000000000000000000000000000000000000000005f5260416004525ffd5b857f4e487b71000000000000000000000000000000000000000000000000000000005f5260116004525ffd5b9091508481813d8311610f90575b610f808183610c8b565b810103126107e55751905f610d76565b503d610f76565b9015610fb157815115610fa8575090565b3b156107e55790565b5080519081156107e557602001fdfea26469706673582212204b04ee2a775e8ebddf45dbf2881aa6e4b243a326de52caea61da38e7ef331f9b64736f6c63430008170033",
  "devdoc": {
    "custom:security-contact": "bugs@across.to",
    "kind": "dev",
    "methods": {
      "constructor": {
        "params": {
          "_l1MessageService": "Canonical message service contract on L1.",
          "_l1TokenBridge": "Canonical token bridge contract on L1.",
          "_l1Weth": "WETH address on L1."
        }
      },
      "relayMessage(address,bytes)": {
        "params": {
          "message": "Data to send to target.",
          "target": "Contract on Linea that will receive message."
        }
      },
      "relayTokens(address,address,uint256,address)": {
        "params": {
          "amount": "Amount of L1 tokens to deposit and L2 tokens to receive.",
          "l1Token": "L1 token to deposit.",
          "l2Token": "L2 token to receive.",
          "to": "Bridge recipient."
        }
      }
    },
    "version": 1
  },
  "userdoc": {
    "kind": "user",
    "methods": {
      "constructor": {
        "notice": "Constructs new Adapter."
      },
      "relayMessage(address,bytes)": {
        "notice": "Send cross-chain message to target on Linea."
      },
      "relayTokens(address,address,uint256,address)": {
        "notice": "Bridge tokens to Linea."
      }
    },
    "notice": "Supports sending messages and tokens from L1 to Linea.",
    "version": 1
  },
  "storageLayout": {
    "storage": [],
    "types": null
  }
}