{
  "address": "0xf1B59868697f3925b72889ede818B9E7ba0316d0",
  "abi": [
    {
      "inputs": [
        {
          "internalType": "contract WETH9Interface",
          "name": "_l1Weth",
          "type": "address"
        },
        {
          "internalType": "address",
          "name": "_crossDomainMessenger",
          "type": "address"
        },
        {
          "internalType": "contract IL1StandardBridge",
          "name": "_l1StandardBridge",
          "type": "address"
        },
        {
          "internalType": "contract IERC20",
          "name": "_l1Usdc",
          "type": "address"
        },
        {
          "internalType": "contract ITokenMessenger",
          "name": "_cctpTokenMessenger",
          "type": "address"
        }
      ],
      "stateMutability": "nonpayable",
      "type": "constructor"
    },
    {
      "anonymous": false,
      "inputs": [
        {
          "indexed": false,
          "internalType": "address",
          "name": "target",
          "type": "address"
        },
        {
          "indexed": false,
          "internalType": "bytes",
          "name": "message",
          "type": "bytes"
        }
      ],
      "name": "MessageRelayed",
      "type": "event"
    },
    {
      "anonymous": false,
      "inputs": [
        {
          "indexed": false,
          "internalType": "address",
          "name": "l1Token",
          "type": "address"
        },
        {
          "indexed": false,
          "internalType": "address",
          "name": "l2Token",
          "type": "address"
        },
        {
          "indexed": false,
          "internalType": "uint256",
          "name": "amount",
          "type": "uint256"
        },
        {
          "indexed": false,
          "internalType": "address",
          "name": "to",
          "type": "address"
        }
      ],
      "name": "TokensRelayed",
      "type": "event"
    },
    {
      "inputs": [],
      "name": "L1_STANDARD_BRIDGE",
      "outputs": [
        {
          "internalType": "contract IL1StandardBridge",
          "name": "",
          "type": "address"
        }
      ],
      "stateMutability": "view",
      "type": "function"
    },
    {
      "inputs": [],
      "name": "L1_WETH",
      "outputs": [
        {
          "internalType": "contract WETH9Interface",
          "name": "",
          "type": "address"
        }
      ],
      "stateMutability": "view",
      "type": "function"
    },
    {
      "inputs": [],
      "name": "L2_GAS_LIMIT",
      "outputs": [
        {
          "internalType": "uint32",
          "name": "",
          "type": "uint32"
        }
      ],
      "stateMutability": "view",
      "type": "function"
    },
    {
      "inputs": [],
      "name": "MESSENGER",
      "outputs": [
        {
          "internalType": "address",
          "name": "",
          "type": "address"
        }
      ],
      "stateMutability": "view",
      "type": "function"
    },
    {
      "inputs": [],
      "name": "cctpTokenMessenger",
      "outputs": [
        {
          "internalType": "contract ITokenMessenger",
          "name": "",
          "type": "address"
        }
      ],
      "stateMutability": "view",
      "type": "function"
    },
    {
      "inputs": [],
      "name": "recipientCircleDomainId",
      "outputs": [
        {
          "internalType": "uint32",
          "name": "",
          "type": "uint32"
        }
      ],
      "stateMutability": "view",
      "type": "function"
    },
    {
      "inputs": [
        {
          "internalType": "address",
          "name": "target",
          "type": "address"
        },
        {
          "internalType": "bytes",
          "name": "message",
          "type": "bytes"
        }
      ],
      "name": "relayMessage",
      "outputs": [],
      "stateMutability": "payable",
      "type": "function"
    },
    {
      "inputs": [
        {
          "internalType": "address",
          "name": "l1Token",
          "type": "address"
        },
        {
          "internalType": "address",
          "name": "l2Token",
          "type": "address"
        },
        {
          "internalType": "uint256",
          "name": "amount",
          "type": "uint256"
        },
        {
          "internalType": "address",
          "name": "to",
          "type": "address"
        }
      ],
      "name": "relayTokens",
      "outputs": [],
      "stateMutability": "payable",
      "type": "function"
    },
    {
      "inputs": [],
      "name": "usdcToken",
      "outputs": [
        {
          "internalType": "contract IERC20",
          "name": "",
          "type": "address"
        }
      ],
      "stateMutability": "view",
      "type": "function"
    }
  ],
  "transactionHash": "0xbd3c9b67dcb3c9bb08b8763b9ec955775d35fba28a402a220c4e11c96d884cb4",
  "args": [
    "0xc02aaa39b223fe8d0a0e5c4f27ead9083c756cc2",
    "0x95bDCA6c8EdEB69C98Bd5bd17660BaCef1298A6f",
    "0x735aDBbE72226BD52e818E7181953f42E3b0FF21",
    "0xA0b86991c6218b36c1d19D4a2e9Eb0cE3606eB48",
    "0x0000000000000000000000000000000000000000"
  ],
  "numDeployments": 1,
  "solcInputHash": "e38c86e74528d2bb60e1415f3fd3783c",
  "bytecode": "0x6101403461012057601f610e7338819003918201601f19168301916001600160401b038311848410176101245780849260a094604052833981010312610120578051906001600160a01b038083168303610120576020820151918183168303610120576040810151928284168403610120576060820151918383168303610120576080015192831683036101205760805260c05260e0525f60a05261010091825261012090815260405190610d3a9283610139843960805183818161010c01526102c0015260a05183818161031f015261060a015260c0518381816105ab015281816107f1015261093c015260e05183818161025101526105730152518281816103f101526108d0015251818181610467015281816106d601526108620152f35b5f80fd5b634e487b7160e01b5f52604160045260245ffdfe6080604081815260049081361015610015575f80fd5b5f925f3560e01c90816311eac855146108f4575080631efd482a1461088657806335a2db6a1461081857806352c8c75c1461037f5780635e743ef7146103435780636e400983146102e4578063927ede2d146102755780639748cf7c146102065763e6eb8ade14610084575f80fd5b807ffffffffffffffffffffffffffffffffffffffffffffffffffffffffffffffffc360112610202576100b5610960565b91602435928467ffffffffffffffff918286116101fe57366023870112156101fe57858401359283116101fe57602486019560248436920101116101fe5773ffffffffffffffffffffffffffffffffffffffff90817f00000000000000000000000000000000000000000000000000000000000000001690813b156101fa57839187519384927f3dbb202b0000000000000000000000000000000000000000000000000000000084521680978301526060602483015281838161017d8c8a6064840191610a05565b62030d40604483015203925af180156101f0576101d8575b50507f9e6c52944e331ba6270e7fe4cea2a4086bae8f7a27e1cdba07f416806f5d0ac4936101d29184519485948552806020860152840191610a05565b0390a180f35b6101e190610983565b6101ec57845f610195565b8480fd5b85513d84823e3d90fd5b8380fd5b5080fd5b8280fd5b8382346101fe57817ffffffffffffffffffffffffffffffffffffffffffffffffffffffffffffffffc3601126101fe576020905173ffffffffffffffffffffffffffffffffffffffff7f0000000000000000000000000000000000000000000000000000000000000000168152f35b8382346101fe57817ffffffffffffffffffffffffffffffffffffffffffffffffffffffffffffffffc3601126101fe576020905173ffffffffffffffffffffffffffffffffffffffff7f0000000000000000000000000000000000000000000000000000000000000000168152f35b8382346101fe57817ffffffffffffffffffffffffffffffffffffffffffffffffffffffffffffffffc3601126101fe576020905163ffffffff7f0000000000000000000000000000000000000000000000000000000000000000168152f35b8382346101fe57817ffffffffffffffffffffffffffffffffffffffffffffffffffffffffffffffffc3601126101fe576020905162030d408152f35b509060807ffffffffffffffffffffffffffffffffffffffffffffffffffffffffffffffffc3601126107e9576103b3610960565b9060243573ffffffffffffffffffffffffffffffffffffffff908181168091036107e95760443591606435938185168095036107e9579481169487917f0000000000000000000000000000000000000000000000000000000000000000811687810361056e57803b156101fa5783809160248b51809481937f2e1a7d4d0000000000000000000000000000000000000000000000000000000083528b898401525af1908115610564578491610550575b50507f00000000000000000000000000000000000000000000000000000000000000001690813b15610202578560848492878b5195869485937f9a2ac6d500000000000000000000000000000000000000000000000000000000855284015262030d406024840152606060448401528560648401525af1801561054657610526575b5050907fd7e09655439c3932e55857df3220186e5a7f0980825f20691c2b35d941dee75b9460809493925b815194855260208501528301526060820152a180f35b610534909594939295610983565b61054257909192855f6104e5565b8580fd5b87513d84823e3d90fd5b61055990610983565b61020257825f610463565b89513d86823e3d90fd5b5091827f000000000000000000000000000000000000000000000000000000000000000016801515806107ed575b156106cc5760209286926084927f0000000000000000000000000000000000000000000000000000000000000000966105d686838a610a43565b8c5197889687957f6fd3504e00000000000000000000000000000000000000000000000000000000875286015263ffffffff7f00000000000000000000000000000000000000000000000000000000000000001660248601528b60448601521660648401525af180156106c257610676575b50907fd7e09655439c3932e55857df3220186e5a7f0980825f20691c2b35d941dee75b946080949392610510565b60209493929194813d6020116106ba575b81610694602093836109c4565b810103126106b6575167ffffffffffffffff811603610542579091925f610648565b8680fd5b3d9150610687565b86513d89823e3d90fd5b50509095929394957f00000000000000000000000000000000000000000000000000000000000000001690610702858389610a43565b813b156107e9578660e45f9283875195869485937f838b25200000000000000000000000000000000000000000000000000000000085528401528760248401528a604484015289606484015262030d40608484015260c060a48401528160c48401525af180156107df5761079f575b5091608093917fd7e09655439c3932e55857df3220186e5a7f0980825f20691c2b35d941dee75b9593610510565b7fd7e09655439c3932e55857df3220186e5a7f0980825f20691c2b35d941dee75b9593919650916107d260809593610983565b5f96919395509193610771565b83513d5f823e3d90fd5b5f80fd5b50837f000000000000000000000000000000000000000000000000000000000000000016881461059c565b50346107e9575f7ffffffffffffffffffffffffffffffffffffffffffffffffffffffffffffffffc3601126107e9576020905173ffffffffffffffffffffffffffffffffffffffff7f0000000000000000000000000000000000000000000000000000000000000000168152f35b50346107e9575f7ffffffffffffffffffffffffffffffffffffffffffffffffffffffffffffffffc3601126107e9576020905173ffffffffffffffffffffffffffffffffffffffff7f0000000000000000000000000000000000000000000000000000000000000000168152f35b346107e9575f7ffffffffffffffffffffffffffffffffffffffffffffffffffffffffffffffffc3601126107e95760209073ffffffffffffffffffffffffffffffffffffffff7f0000000000000000000000000000000000000000000000000000000000000000168152f35b6004359073ffffffffffffffffffffffffffffffffffffffff821682036107e957565b67ffffffffffffffff811161099757604052565b7f4e487b71000000000000000000000000000000000000000000000000000000005f52604160045260245ffd5b90601f7fffffffffffffffffffffffffffffffffffffffffffffffffffffffffffffffe0910116810190811067ffffffffffffffff82111761099757604052565b601f82602094937fffffffffffffffffffffffffffffffffffffffffffffffffffffffffffffffe093818652868601375f8582860101520116010190565b9291909273ffffffffffffffffffffffffffffffffffffffff809116604051917fdd62ed3e000000000000000000000000000000000000000000000000000000008352306004840152602495169182868201526020938482604481865afa918215610cd0575f92610ca1575b508101809111610c755760405190848201937f095ea7b3000000000000000000000000000000000000000000000000000000008552878301526044820152604481526080810167ffffffffffffffff9382821085831117610c495760c083019282841086851117610c1d57865f94938594604052527f5361666545524332303a206c6f772d6c6576656c2063616c6c206661696c656460a0820152519082855af1903d15610c0c573d928311610be057610ba89394955060405192610b9b867fffffffffffffffffffffffffffffffffffffffffffffffffffffffffffffffe0601f84011601856109c4565b83523d5f8685013e610cdb565b8051918215918215610bc0575b50509050156107e957565b8092508193810103126107e957015180151581036107e957805f80610bb5565b857f4e487b71000000000000000000000000000000000000000000000000000000005f5260416004525ffd5b9150610ba892939450606091610cdb565b887f4e487b71000000000000000000000000000000000000000000000000000000005f5260416004525ffd5b877f4e487b71000000000000000000000000000000000000000000000000000000005f5260416004525ffd5b857f4e487b71000000000000000000000000000000000000000000000000000000005f5260116004525ffd5b9091508481813d8311610cc9575b610cb981836109c4565b810103126107e95751905f610aaf565b503d610caf565b6040513d5f823e3d90fd5b9015610cf557815115610cec575090565b3b156107e95790565b5080519081156107e957602001fdfea26469706673582212200ae634765f6536d226970e3d314238a06058e08a7570e26f5be1b248b765141364736f6c63430008170033",
  "devdoc": {
    "details": "Public functions calling external contracts do not guard against reentrancy because they are expected to be called via delegatecall, which will execute this contract's logic within the context of the originating contract. For example, the HubPool will delegatecall these functions, therefore its only necessary that the HubPool's methods that call this contract's logic guard against reentrancy.",
    "kind": "dev",
    "methods": {
      "constructor": {
        "params": {
          "_cctpTokenMessenger": "TokenMessenger contract to bridge via CCTP.",
          "_crossDomainMessenger": "XDomainMessenger Mode system contract.",
          "_l1StandardBridge": "Standard bridge contract.",
          "_l1Usdc": "USDC address on L1.",
          "_l1Weth": "WETH address on L1."
        }
      },
      "relayMessage(address,bytes)": {
        "params": {
          "message": "Data to send to target.",
          "target": "Contract on Mode that will receive message."
        }
      },
      "relayTokens(address,address,uint256,address)": {
        "params": {
          "amount": "Amount of L1 tokens to deposit and L2 tokens to receive.",
          "l1Token": "L1 token to deposit.",
          "l2Token": "L2 token to receive.",
          "to": "Bridge recipient."
        }
      }
    },
    "version": 1
  },
  "userdoc": {
    "kind": "user",
    "methods": {
      "constructor": {
        "notice": "Constructs new Adapter."
      },
      "relayMessage(address,bytes)": {
        "notice": "Send cross-chain message to target on Mode."
      },
      "relayTokens(address,address,uint256,address)": {
        "notice": "Bridge tokens to Mode."
      }
    },
    "notice": "Contract containing logic to send messages from L1 to Mode. This is a clone of the Mode adapter",
    "version": 1
  },
  "storageLayout": {
    "storage": [],
    "types": null
  }
}