{
  "address": "0xAd1b0a86c98703fd5F4E56fff04F6b2D9b9f246F",
  "abi": [
    {
      "inputs": [
        {
          "internalType": "contract WETH9Interface",
          "name": "_l1Weth",
          "type": "address"
        },
        {
          "internalType": "address",
          "name": "_crossDomainMessenger",
          "type": "address"
        },
        {
          "internalType": "contract IL1StandardBridge",
          "name": "_l1StandardBridge",
          "type": "address"
        }
      ],
      "stateMutability": "nonpayable",
      "type": "constructor"
    },
    {
      "anonymous": false,
      "inputs": [
        {
          "indexed": false,
          "internalType": "address",
          "name": "target",
          "type": "address"
        },
        {
          "indexed": false,
          "internalType": "bytes",
          "name": "message",
          "type": "bytes"
        }
      ],
      "name": "MessageRelayed",
      "type": "event"
    },
    {
      "anonymous": false,
      "inputs": [
        {
          "indexed": false,
          "internalType": "address",
          "name": "l1Token",
          "type": "address"
        },
        {
          "indexed": false,
          "internalType": "address",
          "name": "l2Token",
          "type": "address"
        },
        {
          "indexed": false,
          "internalType": "uint256",
          "name": "amount",
          "type": "uint256"
        },
        {
          "indexed": false,
          "internalType": "address",
          "name": "to",
          "type": "address"
        }
      ],
      "name": "TokensRelayed",
      "type": "event"
    },
    {
      "inputs": [],
      "name": "dai",
      "outputs": [
        {
          "internalType": "address",
          "name": "",
          "type": "address"
        }
      ],
      "stateMutability": "view",
      "type": "function"
    },
    {
      "inputs": [],
      "name": "daiOptimismBridge",
      "outputs": [
        {
          "internalType": "address",
          "name": "",
          "type": "address"
        }
      ],
      "stateMutability": "view",
      "type": "function"
    },
    {
      "inputs": [],
      "name": "l1StandardBridge",
      "outputs": [
        {
          "internalType": "contract IL1StandardBridge",
          "name": "",
          "type": "address"
        }
      ],
      "stateMutability": "view",
      "type": "function"
    },
    {
      "inputs": [],
      "name": "l1Weth",
      "outputs": [
        {
          "internalType": "contract WETH9Interface",
          "name": "",
          "type": "address"
        }
      ],
      "stateMutability": "view",
      "type": "function"
    },
    {
      "inputs": [],
      "name": "l2GasLimit",
      "outputs": [
        {
          "internalType": "uint32",
          "name": "",
          "type": "uint32"
        }
      ],
      "stateMutability": "view",
      "type": "function"
    },
    {
      "inputs": [],
      "name": "messenger",
      "outputs": [
        {
          "internalType": "address",
          "name": "",
          "type": "address"
        }
      ],
      "stateMutability": "view",
      "type": "function"
    },
    {
      "inputs": [
        {
          "internalType": "address",
          "name": "target",
          "type": "address"
        },
        {
          "internalType": "bytes",
          "name": "message",
          "type": "bytes"
        }
      ],
      "name": "relayMessage",
      "outputs": [],
      "stateMutability": "payable",
      "type": "function"
    },
    {
      "inputs": [
        {
          "internalType": "address",
          "name": "l1Token",
          "type": "address"
        },
        {
          "internalType": "address",
          "name": "l2Token",
          "type": "address"
        },
        {
          "internalType": "uint256",
          "name": "amount",
          "type": "uint256"
        },
        {
          "internalType": "address",
          "name": "to",
          "type": "address"
        }
      ],
      "name": "relayTokens",
      "outputs": [],
      "stateMutability": "payable",
      "type": "function"
    },
    {
      "inputs": [],
      "name": "snx",
      "outputs": [
        {
          "internalType": "address",
          "name": "",
          "type": "address"
        }
      ],
      "stateMutability": "view",
      "type": "function"
    },
    {
      "inputs": [],
      "name": "snxOptimismBridge",
      "outputs": [
        {
          "internalType": "address",
          "name": "",
          "type": "address"
        }
      ],
      "stateMutability": "view",
      "type": "function"
    }
  ],
  "transactionHash": "0xab082bfcd87b09e80c50e8fa0f00383846f17dab412ddb0d73bd6d844bd622f4",
  "args": [
    "0xc02aaa39b223fe8d0a0e5c4f27ead9083c756cc2",
    "0x25ace71c97B33Cc4729CF772ae268934F7ab5fA1",
    "0x99C9fc46f92E8a1c0deC1b1747d010903E884bE1"
  ],
  "numDeployments": 2,
  "solcInputHash": "20810613852ee13bb3e169dd123cebfc",
  "bytecode": "0x6101803461018f57601f61117238819003918201601f19168301916001600160401b038311848410176101945780849260609460405283398101031261018f578051906001600160a01b0390818316830361018f57602081015190828216820361018f5760400151918216820361018f5760805262030d4060a05261010091736b175474e89094c44da98b954eedeac495271d0f8352610120917310e6593cdda8c58a1d0f14c5164b376352a55f2f83526101409073c011a73ee8576fb46f5e1c5751ca3b9fe0af2a6f8252610160927339ea01a0298c315d149a490e34b59dbf2ec7e48f845260c05260e05260405192610fc794856101ab86396080518581816101f80152610c14015260a0518581816102720152818161034e01528181610528015261094b015260c0518581816104460152610cf2015260e0518581816104c2015281816105f40152610d6001525184818160d901526106170152518381816103bd0152610ba501525182818161014b0152818161064301526107ff015251818181610b7e0152610c830152f35b600080fd5b634e487b7160e01b600052604160045260246000fdfe608080604052600436101561001357600080fd5b600090813560e01c908163078f29cf14610d1657508063146bf4b114610ca757806328f7c66b14610c385780633cb747bf14610bc957806352c8c75c146103e1578063b708886d14610372578063cf6e65b714610313578063e6eb8ade1461016f578063e7d27998146101005763f4b9fa751461008f57600080fd5b346100fd57807ffffffffffffffffffffffffffffffffffffffffffffffffffffffffffffffffc3601126100fd57602060405173ffffffffffffffffffffffffffffffffffffffff7f0000000000000000000000000000000000000000000000000000000000000000168152f35b80fd5b50346100fd57807ffffffffffffffffffffffffffffffffffffffffffffffffffffffffffffffffc3601126100fd57602060405173ffffffffffffffffffffffffffffffffffffffff7f0000000000000000000000000000000000000000000000000000000000000000168152f35b5060407ffffffffffffffffffffffffffffffffffffffffffffffffffffffffffffffffc3601126100fd576101a2610d84565b6024359067ffffffffffffffff9081831161030057366023840112156103005782600401359182116103005760248301926024833692010111610300578373ffffffffffffffffffffffffffffffffffffffff807f00000000000000000000000000000000000000000000000000000000000000001692833b1561030f5782906040519283917f3dbb202b00000000000000000000000000000000000000000000000000000000835216948560048301526060602483015281838161026b606482018b8d610dac565b63ffffffff7f000000000000000000000000000000000000000000000000000000000000000016604483015203925af18015610304576102ec575b50506102e67f9e6c52944e331ba6270e7fe4cea2a4086bae8f7a27e1cdba07f416806f5d0ac4936040519384938452604060208501526040840191610dac565b0390a180f35b6102f590610deb565b6103005783386102a6565b8380fd5b6040513d84823e3d90fd5b8280fd5b50346100fd57807ffffffffffffffffffffffffffffffffffffffffffffffffffffffffffffffffc3601126100fd57602060405163ffffffff7f0000000000000000000000000000000000000000000000000000000000000000168152f35b50346100fd57807ffffffffffffffffffffffffffffffffffffffffffffffffffffffffffffffffc3601126100fd57602060405173ffffffffffffffffffffffffffffffffffffffff7f0000000000000000000000000000000000000000000000000000000000000000168152f35b5060807ffffffffffffffffffffffffffffffffffffffffffffffffffffffffffffffffc3601126100fd57610414610d84565b73ffffffffffffffffffffffffffffffffffffffff9060243582811681036103005782606435166064350361030057837f0000000000000000000000000000000000000000000000000000000000000000841683851681036105ef57803b156105e0576040517f2e1a7d4d000000000000000000000000000000000000000000000000000000008152828160248183604435968760048401525af19081156105e45783916105cc575b5050847f000000000000000000000000000000000000000000000000000000000000000016803b1561030f5782906084604051809481937f9a2ac6d50000000000000000000000000000000000000000000000000000000083528a60643516600484015263ffffffff7f0000000000000000000000000000000000000000000000000000000000000000166024840152606060448401528560648401525af18015610304576105b4575b505090827fd7e09655439c3932e55857df3220186e5a7f0980825f20691c2b35d941dee75b936080935b81604051941684521660208301526044356040830152606435166060820152a180f35b6105c090939293610deb565b61030057908338610567565b6105d590610deb565b6105e05781386104bd565b5080fd5b6040513d85823e3d90fd5b5050827f000000000000000000000000000000000000000000000000000000000000000016837f00000000000000000000000000000000000000000000000000000000000000001684841614610ba2575b837f00000000000000000000000000000000000000000000000000000000000000001684841614610b7b575b6040517fdd62ed3e00000000000000000000000000000000000000000000000000000000815230600482015284821660248201526020816044818888165afa908115610b70578691610b3e575b506044358101809111610b11576040517f095ea7b300000000000000000000000000000000000000000000000000000000602082015273ffffffffffffffffffffffffffffffffffffffff83166024820152604480820192909252908152610722606482610e2e565b6040519081604081011067ffffffffffffffff604084011117610ae45786809160408401604052602084527f5361666545524332303a206c6f772d6c6576656c2063616c6c206661696c65646020850152602081519101828989165af13d15610ad7573d9067ffffffffffffffff8211610aaa57906107e49291604051916107d260207fffffffffffffffffffffffffffffffffffffffffffffffffffffffffffffffe0601f8401160184610e2e565b82523d89602084013e5b878716610e6f565b8051908115918215610a83575b5050156109ff5784908385167f00000000000000000000000000000000000000000000000000000000000000008616036108e6578481163b156105e0578160405180927fffaad6a500000000000000000000000000000000000000000000000000000000825281838982610890604435606435600484016020909392919373ffffffffffffffffffffffffffffffffffffffff60408201951681520152565b0393165af18015610304576108ce575b505090827fd7e09655439c3932e55857df3220186e5a7f0980825f20691c2b35d941dee75b93608093610591565b6108da90939293610deb565b610300579083386108a0565b8481959495163b156105e0578360e4839260405194859384927f838b2520000000000000000000000000000000000000000000000000000000008452818b166004850152818916602485015281606435166044850152604435606485015263ffffffff7f000000000000000000000000000000000000000000000000000000000000000016608485015260c060a48501528260c4850152165af180156109f4576109b8575b5091816080927fd7e09655439c3932e55857df3220186e5a7f0980825f20691c2b35d941dee75b94610591565b91807fd7e09655439c3932e55857df3220186e5a7f0980825f20691c2b35d941dee75b9492956109e9608095610deb565b95929450925061098b565b6040513d87823e3d90fd5b60846040517f08c379a000000000000000000000000000000000000000000000000000000000815260206004820152602a60248201527f5361666545524332303a204552433230206f7065726174696f6e20646964206e60448201527f6f742073756363656564000000000000000000000000000000000000000000006064820152fd5b8192509060209181010312610aa657602001518015158103610aa65738806107f1565b8580fd5b6024887f4e487b710000000000000000000000000000000000000000000000000000000081526041600452fd5b906107e4916060906107dc565b6024877f4e487b710000000000000000000000000000000000000000000000000000000081526041600452fd5b6024867f4e487b710000000000000000000000000000000000000000000000000000000081526011600452fd5b90506020813d602011610b68575b81610b5960209383610e2e565b81010312610aa65751386106b9565b3d9150610b4c565b6040513d88823e3d90fd5b507f000000000000000000000000000000000000000000000000000000000000000061066c565b507f0000000000000000000000000000000000000000000000000000000000000000610640565b50346100fd57807ffffffffffffffffffffffffffffffffffffffffffffffffffffffffffffffffc3601126100fd57602060405173ffffffffffffffffffffffffffffffffffffffff7f0000000000000000000000000000000000000000000000000000000000000000168152f35b50346100fd57807ffffffffffffffffffffffffffffffffffffffffffffffffffffffffffffffffc3601126100fd57602060405173ffffffffffffffffffffffffffffffffffffffff7f0000000000000000000000000000000000000000000000000000000000000000168152f35b50346100fd57807ffffffffffffffffffffffffffffffffffffffffffffffffffffffffffffffffc3601126100fd57602060405173ffffffffffffffffffffffffffffffffffffffff7f0000000000000000000000000000000000000000000000000000000000000000168152f35b9050346105e057817ffffffffffffffffffffffffffffffffffffffffffffffffffffffffffffffffc3601126105e05760209073ffffffffffffffffffffffffffffffffffffffff7f0000000000000000000000000000000000000000000000000000000000000000168152f35b6004359073ffffffffffffffffffffffffffffffffffffffff82168203610da757565b600080fd5b601f82602094937fffffffffffffffffffffffffffffffffffffffffffffffffffffffffffffffe0938186528686013760008582860101520116010190565b67ffffffffffffffff8111610dff57604052565b7f4e487b7100000000000000000000000000000000000000000000000000000000600052604160045260246000fd5b90601f7fffffffffffffffffffffffffffffffffffffffffffffffffffffffffffffffe0910116810190811067ffffffffffffffff821117610dff57604052565b91929015610eea5750815115610e83575090565b3b15610e8c5790565b60646040517f08c379a000000000000000000000000000000000000000000000000000000000815260206004820152601d60248201527f416464726573733a2063616c6c20746f206e6f6e2d636f6e74726163740000006044820152fd5b825190915015610efd5750805190602001fd5b604051907f08c379a000000000000000000000000000000000000000000000000000000000825281602080600483015282519283602484015260005b848110610f7a575050507fffffffffffffffffffffffffffffffffffffffffffffffffffffffffffffffe0601f836000604480968601015201168101030190fd5b818101830151868201604401528593508201610f3956fea264697066735822122092f52c5f8b6c54603f9ea056d0d83ee39c311494c7716965d6b02a4954ca454c64736f6c63430008120033",
  "devdoc": {
    "details": "Public functions calling external contracts do not guard against reentrancy because they are expected to be called via delegatecall, which will execute this contract's logic within the context of the originating contract. For example, the HubPool will delegatecall these functions, therefore it's only necessary that the HubPool's methods that call this contract's logic guard against reentrancy.",
    "kind": "dev",
    "methods": {
      "constructor": {
        "params": {
          "_crossDomainMessenger": "XDomainMessenger Optimism system contract.",
          "_l1StandardBridge": "Standard bridge contract.",
          "_l1Weth": "WETH address on L1."
        }
      },
      "relayMessage(address,bytes)": {
        "params": {
          "message": "Data to send to target.",
          "target": "Contract on Optimism that will receive message."
        }
      },
      "relayTokens(address,address,uint256,address)": {
        "params": {
          "amount": "Amount of L1 tokens to deposit and L2 tokens to receive.",
          "l1Token": "L1 token to deposit.",
          "l2Token": "L2 token to receive.",
          "to": "Bridge recipient."
        }
      }
    },
    "version": 1
  },
  "userdoc": {
    "kind": "user",
    "methods": {
      "constructor": {
        "notice": "Constructs new Adapter."
      },
      "relayMessage(address,bytes)": {
        "notice": "Send cross-chain message to target on Optimism."
      },
      "relayTokens(address,address,uint256,address)": {
        "notice": "Bridge tokens to Optimism."
      }
    },
    "notice": "Contract containing logic to send messages from L1 to Optimism.",
    "version": 1
  },
  "storageLayout": {
    "storage": [],
    "types": null
  }
}