{
  "address": "0xF71F1e20F75820b484F8A0959C2D9E5cdd89c9F0",
  "abi": [
    {
      "inputs": [
        {
          "internalType": "contract IRootChainManager",
          "name": "_rootChainManager",
          "type": "address"
        },
        {
          "internalType": "contract IFxStateSender",
          "name": "_fxStateSender",
          "type": "address"
        },
        {
          "internalType": "contract DepositManager",
          "name": "_depositManager",
          "type": "address"
        },
        {
          "internalType": "address",
          "name": "_erc20Predicate",
          "type": "address"
        },
        {
          "internalType": "address",
          "name": "_l1Matic",
          "type": "address"
        },
        {
          "internalType": "contract WETH9Interface",
          "name": "_l1Weth",
          "type": "address"
        },
        {
          "internalType": "contract IERC20",
          "name": "_l1Usdc",
          "type": "address"
        },
        {
          "internalType": "contract ITokenMessenger",
          "name": "_cctpTokenMessenger",
          "type": "address"
        },
        {
          "internalType": "address",
          "name": "_adapterStore",
          "type": "address"
        },
        {
          "internalType": "uint32",
          "name": "_oftDstEid",
          "type": "uint32"
        },
        {
          "internalType": "uint256",
          "name": "_oftFeeCap",
          "type": "uint256"
        }
      ],
      "stateMutability": "nonpayable",
      "type": "constructor"
    },
    {
      "inputs": [],
      "name": "OftFeeCapExceeded",
      "type": "error"
    },
    {
      "inputs": [],
      "name": "OftIncorrectAmountReceivedLD",
      "type": "error"
    },
    {
      "inputs": [],
      "name": "OftIncorrectAmountSentLD",
      "type": "error"
    },
    {
      "inputs": [],
      "name": "OftInsufficientBalanceForFee",
      "type": "error"
    },
    {
      "inputs": [],
      "name": "OftLzFeeNotZero",
      "type": "error"
    },
    {
      "anonymous": false,
      "inputs": [
        {
          "indexed": false,
          "internalType": "address",
          "name": "target",
          "type": "address"
        },
        {
          "indexed": false,
          "internalType": "bytes",
          "name": "message",
          "type": "bytes"
        }
      ],
      "name": "MessageRelayed",
      "type": "event"
    },
    {
      "anonymous": false,
      "inputs": [
        {
          "indexed": false,
          "internalType": "address",
          "name": "l1Token",
          "type": "address"
        },
        {
          "indexed": false,
          "internalType": "address",
          "name": "l2Token",
          "type": "address"
        },
        {
          "indexed": false,
          "internalType": "uint256",
          "name": "amount",
          "type": "uint256"
        },
        {
          "indexed": false,
          "internalType": "address",
          "name": "to",
          "type": "address"
        }
      ],
      "name": "TokensRelayed",
      "type": "event"
    },
    {
      "inputs": [],
      "name": "DEPOSIT_MANAGER",
      "outputs": [
        {
          "internalType": "contract DepositManager",
          "name": "",
          "type": "address"
        }
      ],
      "stateMutability": "view",
      "type": "function"
    },
    {
      "inputs": [],
      "name": "EMPTY_MSG_BYTES",
      "outputs": [
        {
          "internalType": "bytes",
          "name": "",
          "type": "bytes"
        }
      ],
      "stateMutability": "view",
      "type": "function"
    },
    {
      "inputs": [],
      "name": "ERC20_PREDICATE",
      "outputs": [
        {
          "internalType": "address",
          "name": "",
          "type": "address"
        }
      ],
      "stateMutability": "view",
      "type": "function"
    },
    {
      "inputs": [],
      "name": "FX_STATE_SENDER",
      "outputs": [
        {
          "internalType": "contract IFxStateSender",
          "name": "",
          "type": "address"
        }
      ],
      "stateMutability": "view",
      "type": "function"
    },
    {
      "inputs": [],
      "name": "L1_MATIC",
      "outputs": [
        {
          "internalType": "address",
          "name": "",
          "type": "address"
        }
      ],
      "stateMutability": "view",
      "type": "function"
    },
    {
      "inputs": [],
      "name": "L1_WETH",
      "outputs": [
        {
          "internalType": "contract WETH9Interface",
          "name": "",
          "type": "address"
        }
      ],
      "stateMutability": "view",
      "type": "function"
    },
    {
      "inputs": [],
      "name": "OFT_ADAPTER_STORE",
      "outputs": [
        {
          "internalType": "contract AdapterStore",
          "name": "",
          "type": "address"
        }
      ],
      "stateMutability": "view",
      "type": "function"
    },
    {
      "inputs": [],
      "name": "OFT_DST_EID",
      "outputs": [
        {
          "internalType": "uint32",
          "name": "",
          "type": "uint32"
        }
      ],
      "stateMutability": "view",
      "type": "function"
    },
    {
      "inputs": [],
      "name": "OFT_FEE_CAP",
      "outputs": [
        {
          "internalType": "uint256",
          "name": "",
          "type": "uint256"
        }
      ],
      "stateMutability": "view",
      "type": "function"
    },
    {
      "inputs": [],
      "name": "ROOT_CHAIN_MANAGER",
      "outputs": [
        {
          "internalType": "contract IRootChainManager",
          "name": "",
          "type": "address"
        }
      ],
      "stateMutability": "view",
      "type": "function"
    },
    {
      "inputs": [],
      "name": "cctpTokenMessenger",
      "outputs": [
        {
          "internalType": "contract ITokenMessenger",
          "name": "",
          "type": "address"
        }
      ],
      "stateMutability": "view",
      "type": "function"
    },
    {
      "inputs": [],
      "name": "cctpV2",
      "outputs": [
        {
          "internalType": "bool",
          "name": "",
          "type": "bool"
        }
      ],
      "stateMutability": "view",
      "type": "function"
    },
    {
      "inputs": [],
      "name": "recipientCircleDomainId",
      "outputs": [
        {
          "internalType": "uint32",
          "name": "",
          "type": "uint32"
        }
      ],
      "stateMutability": "view",
      "type": "function"
    },
    {
      "inputs": [
        {
          "internalType": "address",
          "name": "target",
          "type": "address"
        },
        {
          "internalType": "bytes",
          "name": "message",
          "type": "bytes"
        }
      ],
      "name": "relayMessage",
      "outputs": [],
      "stateMutability": "payable",
      "type": "function"
    },
    {
      "inputs": [
        {
          "internalType": "address",
          "name": "l1Token",
          "type": "address"
        },
        {
          "internalType": "address",
          "name": "l2Token",
          "type": "address"
        },
        {
          "internalType": "uint256",
          "name": "amount",
          "type": "uint256"
        },
        {
          "internalType": "address",
          "name": "to",
          "type": "address"
        }
      ],
      "name": "relayTokens",
      "outputs": [],
      "stateMutability": "payable",
      "type": "function"
    },
    {
      "inputs": [],
      "name": "usdcToken",
      "outputs": [
        {
          "internalType": "contract IERC20",
          "name": "",
          "type": "address"
        }
      ],
      "stateMutability": "view",
      "type": "function"
    }
  ],
  "transactionHash": "0x3454812006edf5e41984ac83e8438db497db57987522eaa38dd6180cf3b8a132",
  "args": [
    "0xA0c68C638235ee32657e8f720a23ceC1bFc77C77",
    "0xfe5e5D361b2ad62c541bAb87C45a0B9B018389a2",
    "0x401F6c983eA34274ec46f84D70b31C151321188b",
    "0x40ec5B33f54e0E8A33A975908C5BA1c14e5BbbDf",
    "0x7D1AfA7B718fb893dB30A3aBc0Cfc608AaCfeBB0",
    "0xC02aaA39b223FE8D0A0e5C4F27eAD9083C756Cc2",
    "0xA0b86991c6218b36c1d19D4a2e9Eb0cE3606eB48",
    "0xBd3fa81B58Ba92a82136038B25aDec7066af3155",
    "0x42df4D71f35ffBD28ae217d52E83C1DA0007D63b",
    30109,
    "1000000000000000000"
  ],
  "numDeployments": 4,
  "solcInputHash": "d10c067446106dff0fadbbfab98548d9",
  "bytecode": "0x6102206040818152346200031b578190620022ae80380380916200002482866200031f565b8439610160928391810103126200031b5782516001600160a01b039390919084831683036200031b576020938482015186811681036200031b57838301519187831683036200031b576200007b6060850162000343565b936200008a6080820162000343565b9560a0820151978a891689036200031b5760c08301519a808c168c036200031b5760e0840151809c8282168092036200031b57620000cf9d6101009e8f880162000343565b926101209e8f8901519263ffffffff841684036200031b57610140998a015160a09590955260c0526007608052875163011a412160e61b828201908152600482526001600160401b0393828b019185831184841017620002fc575f9384938d5251915afa91863d156200031057503d908111620002fc5786918951916200016082601f19601f84011601846200031f565b82523d5f8284013e5b83620002f0575b83620002be575b50505060e0528d528d5216835283526101809384526101a09485526101c09586526101e09687526102009788525197611f55998a620003598b396080518a818161061001528181610c3b0152610da0015260a0518a8181610a3801528181610b1701528181610c9301528181610df80152818161189d0152611a53015260c0518a81816104f7015281816109ca01528181610a1601528181610a9f01528181610be101528181610ce90152610e3b015260e0518a81816105510152610ba601525189818161066a01526110a10152518881816105b1015261075401525187818161048801526107b3015251868181610419015281816108a2015261171a01525185818161018a015261023501525184818161159f015261197901525183818161011801526116c801525182818161035101526115490152518181816107fd01526119e70152f35b81519181015192935090818110620002df575b5050161515845f8062000177565b5f19910360031b1b165f80620002d1565b81518114935062000170565b634e487b7160e01b5f52604160045260245ffd5b916060915062000169565b5f80fd5b601f909101601f19168101906001600160401b03821190821017620002fc57604052565b51906001600160a01b03821682036200031b5756fe6080806040526004361015610012575f80fd5b5f905f3560e01c90816311eac85514611a0b575080631efd482a1461199d57806337a9c9831461192f57806352c8c75c1461068d57806361a04d30146106345780636e400983146105d55780636fd5c10e14610576578063775c0d031461051b5780639748cf7c146104ac578063a6ec815e1461043d578063aeeeae9b146103ce578063b4c0d7ab14610375578063c55e9e3614610306578063e6eb8ade146101ae578063f5ebf4c41461013f5763fd5f2d83146100ce575f80fd5b3461013c57807ffffffffffffffffffffffffffffffffffffffffffffffffffffffffffffffffc36011261013c57602060405173ffffffffffffffffffffffffffffffffffffffff7f0000000000000000000000000000000000000000000000000000000000000000168152f35b80fd5b503461013c57807ffffffffffffffffffffffffffffffffffffffffffffffffffffffffffffffffc36011261013c57602060405173ffffffffffffffffffffffffffffffffffffffff7f0000000000000000000000000000000000000000000000000000000000000000168152f35b5060407ffffffffffffffffffffffffffffffffffffffffffffffffffffffffffffffffc36011261013c576101e1611a77565b60243567ffffffffffffffff918282116102f357366023830112156102f35781600401359283116102f357602482019160248436920101116102f3578373ffffffffffffffffffffffffffffffffffffffff7f000000000000000000000000000000000000000000000000000000000000000016803b15610302578160405180927fb47204770000000000000000000000000000000000000000000000000000000082528183816102978b8b8b60048501611b9f565b03925af180156102f7576102df575b50506102d97f9e6c52944e331ba6270e7fe4cea2a4086bae8f7a27e1cdba07f416806f5d0ac49360405193849384611b9f565b0390a180f35b6102e890611a9a565b6102f357835f6102a6565b8380fd5b6040513d84823e3d90fd5b5080fd5b503461013c57807ffffffffffffffffffffffffffffffffffffffffffffffffffffffffffffffffc36011261013c57602060405173ffffffffffffffffffffffffffffffffffffffff7f0000000000000000000000000000000000000000000000000000000000000000168152f35b503461013c57807ffffffffffffffffffffffffffffffffffffffffffffffffffffffffffffffffc36011261013c576040516103ca916103b482611ae6565b8152604051918291602083526020830190611b43565b0390f35b503461013c57807ffffffffffffffffffffffffffffffffffffffffffffffffffffffffffffffffc36011261013c57602060405173ffffffffffffffffffffffffffffffffffffffff7f0000000000000000000000000000000000000000000000000000000000000000168152f35b503461013c57807ffffffffffffffffffffffffffffffffffffffffffffffffffffffffffffffffc36011261013c57602060405173ffffffffffffffffffffffffffffffffffffffff7f0000000000000000000000000000000000000000000000000000000000000000168152f35b503461013c57807ffffffffffffffffffffffffffffffffffffffffffffffffffffffffffffffffc36011261013c57602060405173ffffffffffffffffffffffffffffffffffffffff7f0000000000000000000000000000000000000000000000000000000000000000168152f35b503461013c57807ffffffffffffffffffffffffffffffffffffffffffffffffffffffffffffffffc36011261013c5760206040517f000000000000000000000000000000000000000000000000000000000000000015158152f35b503461013c57807ffffffffffffffffffffffffffffffffffffffffffffffffffffffffffffffffc36011261013c57602060405163ffffffff7f0000000000000000000000000000000000000000000000000000000000000000168152f35b503461013c57807ffffffffffffffffffffffffffffffffffffffffffffffffffffffffffffffffc36011261013c57602060405163ffffffff7f0000000000000000000000000000000000000000000000000000000000000000168152f35b503461013c57807ffffffffffffffffffffffffffffffffffffffffffffffffffffffffffffffffc36011261013c5760206040517f00000000000000000000000000000000000000000000000000000000000000008152f35b5060807ffffffffffffffffffffffffffffffffffffffffffffffffffffffffffffffffc360112610ee6576106c0611a77565b60243573ffffffffffffffffffffffffffffffffffffffff81168103610ee6576064359073ffffffffffffffffffffffffffffffffffffffff82168203610ee6576040517f8f7d9bec0000000000000000000000000000000000000000000000000000000081527f4f46545f4d455353454e47455200000000000000000000000000000000000000600482015263ffffffff7f00000000000000000000000000000000000000000000000000000000000000001680602483015273ffffffffffffffffffffffffffffffffffffffff8516604483015260208260648173ffffffffffffffffffffffffffffffffffffffff7f0000000000000000000000000000000000000000000000000000000000000000165afa90811561187a5786925f926118da575b5073ffffffffffffffffffffffffffffffffffffffff7f000000000000000000000000000000000000000000000000000000000000000016918273ffffffffffffffffffffffffffffffffffffffff8816145f146109af575050803b15610302578180916024604051809481937f2e1a7d4d00000000000000000000000000000000000000000000000000000000835260443560048401525af180156102f75761099b575b5073ffffffffffffffffffffffffffffffffffffffff7f000000000000000000000000000000000000000000000000000000000000000016803b156103025781602491604051928380927f4faa8a2600000000000000000000000000000000000000000000000000000000825273ffffffffffffffffffffffffffffffffffffffff89166004830152604435905af180156102f757610983575b50509173ffffffffffffffffffffffffffffffffffffffff608092817fd7e09655439c3932e55857df3220186e5a7f0980825f20691c2b35d941dee75b955b81604051951685521660208401526044356040840152166060820152a180f35b61098f90949294611a9a565b6102f35791835f610924565b6109a490611a9a565b6102f357835f61088a565b9150915073ffffffffffffffffffffffffffffffffffffffff7f000000000000000000000000000000000000000000000000000000000000000016151580611885575b15610f51575050610a5c60443573ffffffffffffffffffffffffffffffffffffffff7f0000000000000000000000000000000000000000000000000000000000000000167f0000000000000000000000000000000000000000000000000000000000000000611c00565b6040517fcb75c11c00000000000000000000000000000000000000000000000000000000815260208160048173ffffffffffffffffffffffffffffffffffffffff7f0000000000000000000000000000000000000000000000000000000000000000165afa908115610ef2578591610efd575b50602073ffffffffffffffffffffffffffffffffffffffff916024604051809481937fa56ec632000000000000000000000000000000000000000000000000000000008352817f0000000000000000000000000000000000000000000000000000000000000000166004840152165afa908115610ef2578591610ebc575b50604435805b610b9a5750509173ffffffffffffffffffffffffffffffffffffffff608092817fd7e09655439c3932e55857df3220186e5a7f0980825f20691c2b35d941dee75b95610963565b81811115610eb657815b7f000000000000000000000000000000000000000000000000000000000000000015610d6d5773ffffffffffffffffffffffffffffffffffffffff7f0000000000000000000000000000000000000000000000000000000000000000163b15610d6957866040517f8e0250ee00000000000000000000000000000000000000000000000000000000815282600482015263ffffffff7f000000000000000000000000000000000000000000000000000000000000000016602482015273ffffffffffffffffffffffffffffffffffffffff8716604482015273ffffffffffffffffffffffffffffffffffffffff7f00000000000000000000000000000000000000000000000000000000000000001660648201528160848201528160a48201526107d060c4820152818160e4818373ffffffffffffffffffffffffffffffffffffffff7f0000000000000000000000000000000000000000000000000000000000000000165af180156102f757610d55575b50505b8103908111610d285780610b53565b6024867f4e487b710000000000000000000000000000000000000000000000000000000081526011600452fd5b610d5e90611a9a565b610d6957865f610d16565b8680fd5b6040517f6fd3504e00000000000000000000000000000000000000000000000000000000815281600482015263ffffffff7f000000000000000000000000000000000000000000000000000000000000000016602482015273ffffffffffffffffffffffffffffffffffffffff8616604482015273ffffffffffffffffffffffffffffffffffffffff7f00000000000000000000000000000000000000000000000000000000000000001660648201526020816084818b73ffffffffffffffffffffffffffffffffffffffff7f0000000000000000000000000000000000000000000000000000000000000000165af18015610eab57610e6e575b50610d19565b6020813d602011610ea3575b81610e8760209383611b02565b81010312610e9f57610e9890611e84565b505f610e68565b8780fd5b3d9150610e7a565b6040513d8a823e3d90fd5b80610ba4565b90506020813d602011610eea575b81610ed760209383611b02565b81010312610ee657515f610b4d565b5f80fd5b3d9150610eca565b6040513d87823e3d90fd5b90506020813d602011610f49575b81610f1860209383611b02565b81010312610f45575173ffffffffffffffffffffffffffffffffffffffff81168103610f45576020610acf565b8480fd5b3d9150610f0b565b91939173ffffffffffffffffffffffffffffffffffffffff81161561152f57606060c0604051610f8081611aae565b88815288602082015288604082015288838201528260808201528260a08201520152856020604051610fb181611aca565b8281520152604051610fc281611ae6565b868152604051610fd181611ae6565b87815260405191610fe183611ae6565b88835260405194610ff186611aae565b855273ffffffffffffffffffffffffffffffffffffffff8716602086015260443560408601526044356060860152608085015260a084015260c0830152604051907f3b6f743b000000000000000000000000000000000000000000000000000000008252604060048301526040828061106d6044820187611e14565b8a6024830152038173ffffffffffffffffffffffffffffffffffffffff85165afa9182156115245787926114e4575b5081517f000000000000000000000000000000000000000000000000000000000000000081116114ba574781116114905760208301516114665760408481015190517f095ea7b3000000000000000000000000000000000000000000000000000000006020820190815273ffffffffffffffffffffffffffffffffffffffff85166024830152604480830184905282529195918a90819061113e606485611b02565b8351908273ffffffffffffffffffffffffffffffffffffffff8c165af1611163611e99565b81611437575b5080611417575b15611364575b50916111d460209273ffffffffffffffffffffffffffffffffffffffff60c095604051978896879586937fc7c7f5b3000000000000000000000000000000000000000000000000000000008552608060048601526084850190611e14565b9180516024850152015160448301523060648301520393165af19081156113595786916112a2575b506020810151820361127857510361124e5773ffffffffffffffffffffffffffffffffffffffff608092817fd7e09655439c3932e55857df3220186e5a7f0980825f20691c2b35d941dee75b95610963565b60046040517ff1522c00000000000000000000000000000000000000000000000000000000008152fd5b60046040517f37f8796a000000000000000000000000000000000000000000000000000000008152fd5b905060c03d60c011611352575b6112b98183611b02565b810181810360c08112610e9f57608013610d695760405191606083019083821067ffffffffffffffff8311176113255761131f936080926040528151815261130360208301611e84565b6020820152604061131685828501611dec565b91015201611dec565b5f6111fc565b7f4e487b71000000000000000000000000000000000000000000000000000000005f52604160045260245ffd5b503d6112af565b6040513d88823e3d90fd5b929091604051907f095ea7b300000000000000000000000000000000000000000000000000000000602083015273ffffffffffffffffffffffffffffffffffffffff831660248301528a60448301526044825281608081011067ffffffffffffffff6080840111176113255773ffffffffffffffffffffffffffffffffffffffff60209461140c60c09761140486858e60806111d49a0160405216611d52565b838c16611d52565b939550509250611176565b5073ffffffffffffffffffffffffffffffffffffffff87163b1515611170565b805180159250821561144c575b50505f611169565b61145f9250602080918301019101611d3a565b5f80611444565b60046040517f38a0bb24000000000000000000000000000000000000000000000000000000008152fd5b60046040517fa6226f85000000000000000000000000000000000000000000000000000000008152fd5b60046040517f1754d7a9000000000000000000000000000000000000000000000000000000008152fd5b9091506040903d60401161151c575b6114fd8282611b02565b6040818381010312610e9f5761151591810190611dec565b905f61109c565b3d91506114f3565b6040513d89823e3d90fd5b50509173ffffffffffffffffffffffffffffffffffffffff7f00000000000000000000000000000000000000000000000000000000000000001673ffffffffffffffffffffffffffffffffffffffff8416145f146116c0578373ffffffffffffffffffffffffffffffffffffffff7f0000000000000000000000000000000000000000000000000000000000000000166115e26044358273ffffffffffffffffffffffffffffffffffffffff8816611c00565b803b15610302578180916064604051809481937f8b9e4f9300000000000000000000000000000000000000000000000000000000835273ffffffffffffffffffffffffffffffffffffffff8b16600484015273ffffffffffffffffffffffffffffffffffffffff8a16602484015260443560448401525af180156102f7576116a8575b50509173ffffffffffffffffffffffffffffffffffffffff608092817fd7e09655439c3932e55857df3220186e5a7f0980825f20691c2b35d941dee75b95610963565b6116b490949294611a9a565b6102f35791835f611665565b6117036044357f000000000000000000000000000000000000000000000000000000000000000073ffffffffffffffffffffffffffffffffffffffff8616611c00565b73ffffffffffffffffffffffffffffffffffffffff7f0000000000000000000000000000000000000000000000000000000000000000166040519060443560208301526020825261175382611aca565b803b15610ee6576117d75f929183926040519485809481937fe3dec8fb00000000000000000000000000000000000000000000000000000000835273ffffffffffffffffffffffffffffffffffffffff8b16600484015273ffffffffffffffffffffffffffffffffffffffff8c166024840152606060448401526064830190611b43565b03925af1801561187a57611828575b509173ffffffffffffffffffffffffffffffffffffffff608092817fd7e09655439c3932e55857df3220186e5a7f0980825f20691c2b35d941dee75b95610963565b7fd7e09655439c3932e55857df3220186e5a7f0980825f20691c2b35d941dee75b9391945060809261186e73ffffffffffffffffffffffffffffffffffffffff92611a9a565b5f9592945092506117e6565b6040513d5f823e3d90fd5b5073ffffffffffffffffffffffffffffffffffffffff7f00000000000000000000000000000000000000000000000000000000000000001673ffffffffffffffffffffffffffffffffffffffff8616146109f2565b915091506020813d602011611927575b816118f760209383611b02565b81010312610ee657519073ffffffffffffffffffffffffffffffffffffffff82168203610ee6578591905f6107e5565b3d91506118ea565b34610ee6575f7ffffffffffffffffffffffffffffffffffffffffffffffffffffffffffffffffc360112610ee657602060405173ffffffffffffffffffffffffffffffffffffffff7f0000000000000000000000000000000000000000000000000000000000000000168152f35b34610ee6575f7ffffffffffffffffffffffffffffffffffffffffffffffffffffffffffffffffc360112610ee657602060405173ffffffffffffffffffffffffffffffffffffffff7f0000000000000000000000000000000000000000000000000000000000000000168152f35b34610ee6575f7ffffffffffffffffffffffffffffffffffffffffffffffffffffffffffffffffc360112610ee65760209073ffffffffffffffffffffffffffffffffffffffff7f0000000000000000000000000000000000000000000000000000000000000000168152f35b6004359073ffffffffffffffffffffffffffffffffffffffff82168203610ee657565b67ffffffffffffffff811161132557604052565b60e0810190811067ffffffffffffffff82111761132557604052565b6040810190811067ffffffffffffffff82111761132557604052565b6020810190811067ffffffffffffffff82111761132557604052565b90601f7fffffffffffffffffffffffffffffffffffffffffffffffffffffffffffffffe0910116810190811067ffffffffffffffff82111761132557604052565b91908251928382525f5b848110611b8b5750507fffffffffffffffffffffffffffffffffffffffffffffffffffffffffffffffe0601f845f6020809697860101520116010190565b602081830181015184830182015201611b4d565b9183606094601f9273ffffffffffffffffffffffffffffffffffffffff7fffffffffffffffffffffffffffffffffffffffffffffffffffffffffffffffe09516865260406020870152816040870152868601375f8582860101520116010190565b60449192602073ffffffffffffffffffffffffffffffffffffffff604051948580927fdd62ed3e000000000000000000000000000000000000000000000000000000008252306004830152808916602483015286165afa92831561187a575f93611d06575b508201809211611cd9576040517f095ea7b300000000000000000000000000000000000000000000000000000000602082015273ffffffffffffffffffffffffffffffffffffffff939093166024840152604480840192909252908252611cd79190611cd2606483611b02565b611d52565b565b7f4e487b71000000000000000000000000000000000000000000000000000000005f52601160045260245ffd5b9092506020813d602011611d32575b81611d2260209383611b02565b81010312610ee65751915f611c65565b3d9150611d15565b90816020910312610ee657518015158103610ee65790565b905f8073ffffffffffffffffffffffffffffffffffffffff611dbc9416927f5361666545524332303a206c6f772d6c6576656c2063616c6c206661696c65646020604051611d9f81611aca565b818152015260208151910182855af1611db6611e99565b91611ef6565b8051908115918215611dd2575b505015610ee657565b611de59250602080918301019101611d3a565b5f80611dc9565b9190826040910312610ee657604051611e0481611aca565b6020808294805184520151910152565b611e819163ffffffff825116815260208201516020820152604082015160408201526060820151606082015260c0611e70611e5e608085015160e0608086015260e0850190611b43565b60a085015184820360a0860152611b43565b9201519060c0818403910152611b43565b90565b519067ffffffffffffffff82168203610ee657565b3d15611ef1573d9067ffffffffffffffff82116113255760405191611ee660207fffffffffffffffffffffffffffffffffffffffffffffffffffffffffffffffe0601f8401160184611b02565b82523d5f602084013e565b606090565b9015611f1057815115611f07575090565b3b15610ee65790565b508051908115610ee657602001fdfea264697066735822122073f8b3d3513b4b6ddfad09197ede0ea7f3e902e10875f75df3e374cfd779d39564736f6c63430008170033",
  "devdoc": {
    "custom:security-contact": "bugs@across.to",
    "details": "Public functions calling external contracts do not guard against reentrancy because they are expected to be called via delegatecall, which will execute this contract's logic within the context of the originating contract. For example, the HubPool will delegatecall these functions, therefore its only necessary that the HubPool's methods that call this contract's logic guard against reentrancy.",
    "kind": "dev",
    "methods": {
      "constructor": {
        "params": {
          "_adapterStore": "Helper storage contract to support bridging via OFT",
          "_cctpTokenMessenger": "TokenMessenger contract to bridge via CCTP.",
          "_depositManager": "DepositManager Polygon system contract to deposit tokens over the Plasma bridge (Matic).",
          "_erc20Predicate": "ERC20Predicate Polygon system contract to approve when depositing to the PoS bridge.",
          "_fxStateSender": "FxStateSender Polygon system contract to send arbitrary messages to L2.",
          "_l1Matic": "matic address on l1.",
          "_l1Usdc": "USDC address on L1.",
          "_l1Weth": "WETH address on L1.",
          "_oftDstEid": "destination endpoint id for OFT messaging",
          "_oftFeeCap": "A fee cap we apply to OFT bridge native payment. A good default is 1 ether",
          "_rootChainManager": "RootChainManager Polygon system contract to deposit tokens over the PoS bridge."
        }
      },
      "relayMessage(address,bytes)": {
        "params": {
          "message": "Data to send to target.",
          "target": "Contract on Polygon that will receive message."
        }
      },
      "relayTokens(address,address,uint256,address)": {
        "params": {
          "amount": "Amount of L1 tokens to deposit and L2 tokens to receive.",
          "l1Token": "L1 token to deposit.",
          "l2Token": "L2 token to receive.",
          "to": "Bridge recipient."
        }
      }
    },
    "version": 1
  },
  "userdoc": {
    "errors": {
      "OftFeeCapExceeded()": [
        {
          "notice": "Thrown when OFT fee exceeds the configured cap "
        }
      ],
      "OftIncorrectAmountReceivedLD()": [
        {
          "notice": "Thrown when amount received differs from expected amount "
        }
      ],
      "OftIncorrectAmountSentLD()": [
        {
          "notice": "Thrown when amount sent differs from expected amount "
        }
      ],
      "OftInsufficientBalanceForFee()": [
        {
          "notice": "Thrown when contract has insufficient balance to pay OFT fees "
        }
      ],
      "OftLzFeeNotZero()": [
        {
          "notice": "Thrown when LayerZero token fee is not zero (only native fees supported) "
        }
      ]
    },
    "kind": "user",
    "methods": {
      "EMPTY_MSG_BYTES()": {
        "notice": "Empty bytes array used for OFT messaging parameters "
      },
      "OFT_ADAPTER_STORE()": {
        "notice": "Helper storage contract to keep track of token => IOFT relationships "
      },
      "constructor": {
        "notice": "Constructs new Adapter."
      },
      "relayMessage(address,bytes)": {
        "notice": "Send cross-chain message to target on Polygon."
      },
      "relayTokens(address,address,uint256,address)": {
        "notice": "Bridge tokens to Polygon."
      }
    },
    "notice": "Sends cross chain messages Polygon L2 network.",
    "version": 1
  },
  "storageLayout": {
    "storage": [],
    "types": null
  }
}