{
  "address": "0x9F788694934fD2Ed34D5340B9a76EB34f2bFD7B3",
  "abi": [
    {
      "inputs": [
        {
          "internalType": "contract IERC20",
          "name": "_l1Usdc",
          "type": "address"
        },
        {
          "internalType": "contract ITokenMessenger",
          "name": "_cctpTokenMessenger",
          "type": "address"
        },
        {
          "internalType": "contract IMessageTransmitter",
          "name": "_cctpMessageTransmitter",
          "type": "address"
        },
        {
          "internalType": "bytes32",
          "name": "solanaSpokePool",
          "type": "bytes32"
        },
        {
          "internalType": "bytes32",
          "name": "solanaUsdc",
          "type": "bytes32"
        },
        {
          "internalType": "bytes32",
          "name": "solanaSpokePoolUsdcVault",
          "type": "bytes32"
        }
      ],
      "stateMutability": "nonpayable",
      "type": "constructor"
    },
    {
      "inputs": [
        {
          "internalType": "uint256",
          "name": "amount",
          "type": "uint256"
        }
      ],
      "name": "InvalidAmount",
      "type": "error"
    },
    {
      "inputs": [
        {
          "internalType": "address",
          "name": "messageTransmitter",
          "type": "address"
        }
      ],
      "name": "InvalidCctpMessageTransmitter",
      "type": "error"
    },
    {
      "inputs": [
        {
          "internalType": "address",
          "name": "tokenMessenger",
          "type": "address"
        }
      ],
      "name": "InvalidCctpTokenMessenger",
      "type": "error"
    },
    {
      "inputs": [
        {
          "internalType": "address",
          "name": "l1Token",
          "type": "address"
        }
      ],
      "name": "InvalidL1Token",
      "type": "error"
    },
    {
      "inputs": [
        {
          "internalType": "address",
          "name": "l2Token",
          "type": "address"
        }
      ],
      "name": "InvalidL2Token",
      "type": "error"
    },
    {
      "inputs": [
        {
          "internalType": "address",
          "name": "target",
          "type": "address"
        }
      ],
      "name": "InvalidRelayMessageTarget",
      "type": "error"
    },
    {
      "inputs": [
        {
          "internalType": "address",
          "name": "to",
          "type": "address"
        }
      ],
      "name": "InvalidTokenRecipient",
      "type": "error"
    },
    {
      "anonymous": false,
      "inputs": [
        {
          "indexed": false,
          "internalType": "address",
          "name": "target",
          "type": "address"
        },
        {
          "indexed": false,
          "internalType": "bytes",
          "name": "message",
          "type": "bytes"
        }
      ],
      "name": "MessageRelayed",
      "type": "event"
    },
    {
      "anonymous": false,
      "inputs": [
        {
          "indexed": false,
          "internalType": "address",
          "name": "l1Token",
          "type": "address"
        },
        {
          "indexed": false,
          "internalType": "address",
          "name": "l2Token",
          "type": "address"
        },
        {
          "indexed": false,
          "internalType": "uint256",
          "name": "amount",
          "type": "uint256"
        },
        {
          "indexed": false,
          "internalType": "address",
          "name": "to",
          "type": "address"
        }
      ],
      "name": "TokensRelayed",
      "type": "event"
    },
    {
      "inputs": [],
      "name": "SOLANA_SPOKE_POOL_ADDRESS",
      "outputs": [
        {
          "internalType": "address",
          "name": "",
          "type": "address"
        }
      ],
      "stateMutability": "view",
      "type": "function"
    },
    {
      "inputs": [],
      "name": "SOLANA_SPOKE_POOL_BYTES32",
      "outputs": [
        {
          "internalType": "bytes32",
          "name": "",
          "type": "bytes32"
        }
      ],
      "stateMutability": "view",
      "type": "function"
    },
    {
      "inputs": [],
      "name": "SOLANA_SPOKE_POOL_USDC_VAULT",
      "outputs": [
        {
          "internalType": "bytes32",
          "name": "",
          "type": "bytes32"
        }
      ],
      "stateMutability": "view",
      "type": "function"
    },
    {
      "inputs": [],
      "name": "SOLANA_USDC_ADDRESS",
      "outputs": [
        {
          "internalType": "address",
          "name": "",
          "type": "address"
        }
      ],
      "stateMutability": "view",
      "type": "function"
    },
    {
      "inputs": [],
      "name": "cctpMessageTransmitter",
      "outputs": [
        {
          "internalType": "contract IMessageTransmitter",
          "name": "",
          "type": "address"
        }
      ],
      "stateMutability": "view",
      "type": "function"
    },
    {
      "inputs": [],
      "name": "cctpTokenMessenger",
      "outputs": [
        {
          "internalType": "contract ITokenMessenger",
          "name": "",
          "type": "address"
        }
      ],
      "stateMutability": "view",
      "type": "function"
    },
    {
      "inputs": [],
      "name": "cctpV2",
      "outputs": [
        {
          "internalType": "bool",
          "name": "",
          "type": "bool"
        }
      ],
      "stateMutability": "view",
      "type": "function"
    },
    {
      "inputs": [],
      "name": "recipientCircleDomainId",
      "outputs": [
        {
          "internalType": "uint32",
          "name": "",
          "type": "uint32"
        }
      ],
      "stateMutability": "view",
      "type": "function"
    },
    {
      "inputs": [
        {
          "internalType": "address",
          "name": "target",
          "type": "address"
        },
        {
          "internalType": "bytes",
          "name": "message",
          "type": "bytes"
        }
      ],
      "name": "relayMessage",
      "outputs": [],
      "stateMutability": "payable",
      "type": "function"
    },
    {
      "inputs": [
        {
          "internalType": "address",
          "name": "l1Token",
          "type": "address"
        },
        {
          "internalType": "address",
          "name": "l2Token",
          "type": "address"
        },
        {
          "internalType": "uint256",
          "name": "amount",
          "type": "uint256"
        },
        {
          "internalType": "address",
          "name": "to",
          "type": "address"
        }
      ],
      "name": "relayTokens",
      "outputs": [],
      "stateMutability": "payable",
      "type": "function"
    },
    {
      "inputs": [],
      "name": "usdcToken",
      "outputs": [
        {
          "internalType": "contract IERC20",
          "name": "",
          "type": "address"
        }
      ],
      "stateMutability": "view",
      "type": "function"
    }
  ],
  "transactionHash": "0x5256d567a2ce4cbc96f04cb3b0885fad53fd48d163b67a79d9dfeaaba21f6fc3",
  "args": [
    "0xA0b86991c6218b36c1d19D4a2e9Eb0cE3606eB48",
    "0xBd3fa81B58Ba92a82136038B25aDec7066af3155",
    "0x0a992d191deec32afe36203ad87d7d289a738f81",
    "0xb7664086de37ee70821c10445b162f2c7ec8795bd0800c1462949e2328d1dd5a",
    "0xc6fa7af3bedbad3a3d65f36aabc97431b1bbe4c2d2f6e0e47ca60203452f5d61",
    "0xf5d9ddc2b5d994277e15ea380117a3f8ef04ce1e37e2c678c3be4d11b2a5d034"
  ],
  "numDeployments": 1,
  "solcInputHash": "335735b51fb84a31677c4bf77e2b5d68",
  "bytecode": "0x6101a060409080825234620002ba5760c081620014998038038091620000268285620002be565b833981010312620002ba5780516001600160a01b03918282168203620002ba57602093848201519084821695868303620002ba57818401519686881691828903620002ba5760608601519460a060808801519701519760a05260c05260056080528351908082019163011a412160e61b83526004815285810160018060401b0393828210858311176200029b575f92839289525190865afa91893d15620002af57503d9081116200029b578991865191620000eb82601f19601f8401160184620002be565b82523d5f8284013e5b836200028f575b836200025d575b50505060e052801562000246575080156200023057506101009586526101209482865280610140931683526101609316835261018093845251936111b69586620002e3873960805186818161053d01528181610ba70152610d42015260a051868181610643015281816107bb015281816108e50152818161097801528181610a6c01528181610c0901528181610da40152611071015260c05186818161033b0152818161077901528181610839015281816109f401528181610b4e01528181610c5f0152610de7015260e0518681816104de0152610b1301525185818161021301526103a901525184818160ca01526101d301525183818161017a0152818161048501526106fa015251828181610417015261069601525181818161059601528181610bce0152610d690152f35b60249151906375c5f81760e01b82526004820152fd5b602490835190631449966960e21b82526004820152fd5b815191810151929350908181106200027e575b5050161515875f8062000102565b5f19910360031b1b165f8062000270565b815181149350620000fb565b634e487b7160e01b5f52604160045260245ffd5b9160609150620000f4565b5f80fd5b601f909101601f19168101906001600160401b038211908210176200029b5760405256fe6080806040526004361015610012575f80fd5b5f3560e01c90816311eac855146110295750806352c8c75c146105b95780635ba13219146105615780636e40098314610503578063775c0d03146104a95780637d292d131461043b57806381921399146103cd5780638c73eb041461035f5780639748cf7c146102f1578063e6eb8ade146100f15763f85fea6714610095575f80fd5b346100ed575f7ffffffffffffffffffffffffffffffffffffffffffffffffffffffffffffffffc3601126100ed5760206040517f00000000000000000000000000000000000000000000000000000000000000008152f35b5f80fd5b60407ffffffffffffffffffffffffffffffffffffffffffffffffffffffffffffffffc3601126100ed57610123611095565b67ffffffffffffffff6024358181116100ed57366023820112156100ed5780600401359182116100ed57602481019060248336920101116100ed5773ffffffffffffffffffffffffffffffffffffffff80931690837f00000000000000000000000000000000000000000000000000000000000000001682036102c057602060405180957f0ba469bc000000000000000000000000000000000000000000000000000000008252600560048301527f0000000000000000000000000000000000000000000000000000000000000000602483015260606044830152815f8161020f606482018a89611119565b03927f0000000000000000000000000000000000000000000000000000000000000000165af19081156102b5577f9e6c52944e331ba6270e7fe4cea2a4086bae8f7a27e1cdba07f416806f5d0ac49461028192610286575b506040519384938452604060208501526040840191611119565b0390a1005b6102a79060203d6020116102ae575b61029f81836110b8565b8101906110f9565b5085610267565b503d610295565b6040513d5f823e3d90fd5b602482604051907fc5bab9030000000000000000000000000000000000000000000000000000000082526004820152fd5b346100ed575f7ffffffffffffffffffffffffffffffffffffffffffffffffffffffffffffffffc3601126100ed57602060405173ffffffffffffffffffffffffffffffffffffffff7f0000000000000000000000000000000000000000000000000000000000000000168152f35b346100ed575f7ffffffffffffffffffffffffffffffffffffffffffffffffffffffffffffffffc3601126100ed57602060405173ffffffffffffffffffffffffffffffffffffffff7f0000000000000000000000000000000000000000000000000000000000000000168152f35b346100ed575f7ffffffffffffffffffffffffffffffffffffffffffffffffffffffffffffffffc3601126100ed57602060405173ffffffffffffffffffffffffffffffffffffffff7f0000000000000000000000000000000000000000000000000000000000000000168152f35b346100ed575f7ffffffffffffffffffffffffffffffffffffffffffffffffffffffffffffffffc3601126100ed57602060405173ffffffffffffffffffffffffffffffffffffffff7f0000000000000000000000000000000000000000000000000000000000000000168152f35b346100ed575f7ffffffffffffffffffffffffffffffffffffffffffffffffffffffffffffffffc3601126100ed5760206040517f000000000000000000000000000000000000000000000000000000000000000015158152f35b346100ed575f7ffffffffffffffffffffffffffffffffffffffffffffffffffffffffffffffffc3601126100ed57602060405163ffffffff7f0000000000000000000000000000000000000000000000000000000000000000168152f35b346100ed575f7ffffffffffffffffffffffffffffffffffffffffffffffffffffffffffffffffc3601126100ed5760206040517f00000000000000000000000000000000000000000000000000000000000000008152f35b60807ffffffffffffffffffffffffffffffffffffffffffffffffffffffffffffffffc3601126100ed576105eb611095565b60243573ffffffffffffffffffffffffffffffffffffffff811681036100ed576064359073ffffffffffffffffffffffffffffffffffffffff821682036100ed5773ffffffffffffffffffffffffffffffffffffffff7f00000000000000000000000000000000000000000000000000000000000000001673ffffffffffffffffffffffffffffffffffffffff841603610fe25773ffffffffffffffffffffffffffffffffffffffff7f00000000000000000000000000000000000000000000000000000000000000001673ffffffffffffffffffffffffffffffffffffffff821603610f9b5767ffffffffffffffff60443511610f695773ffffffffffffffffffffffffffffffffffffffff7f00000000000000000000000000000000000000000000000000000000000000001673ffffffffffffffffffffffffffffffffffffffff831603610f22576040517fdd62ed3e00000000000000000000000000000000000000000000000000000000815230600482015273ffffffffffffffffffffffffffffffffffffffff7f000000000000000000000000000000000000000000000000000000000000000016602482015260208160448173ffffffffffffffffffffffffffffffffffffffff7f0000000000000000000000000000000000000000000000000000000000000000165afa9081156102b5575f91610ef0575b506044358101809111610c9d57604051907f095ea7b300000000000000000000000000000000000000000000000000000000602083015273ffffffffffffffffffffffffffffffffffffffff7f00000000000000000000000000000000000000000000000000000000000000001660248301526044820152604481526080810181811067ffffffffffffffff821117610ce25760c082019181831067ffffffffffffffff841117610ce25760205f93928493604052527f5361666545524332303a206c6f772d6c6576656c2063616c6c206661696c656460a08201526020815191018273ffffffffffffffffffffffffffffffffffffffff7f0000000000000000000000000000000000000000000000000000000000000000165af13d15610ee4573d67ffffffffffffffff8111610ce25761099d916040519161095760207fffffffffffffffffffffffffffffffffffffffffffffffffffffffffffffffe0601f84011601846110b8565b82523d5f602084013e5b73ffffffffffffffffffffffffffffffffffffffff7f000000000000000000000000000000000000000000000000000000000000000016611157565b8051908115918215610ec1575b5050156100ed576040517fcb75c11c00000000000000000000000000000000000000000000000000000000815260208160048173ffffffffffffffffffffffffffffffffffffffff7f0000000000000000000000000000000000000000000000000000000000000000165afa9081156102b5575f91610e71575b50602073ffffffffffffffffffffffffffffffffffffffff916024604051809481937fa56ec632000000000000000000000000000000000000000000000000000000008352817f0000000000000000000000000000000000000000000000000000000000000000166004840152165afa9081156102b5575f91610e3f575b50604435805b610b07577fd7e09655439c3932e55857df3220186e5a7f0980825f20691c2b35d941dee75b60808673ffffffffffffffffffffffffffffffffffffffff87818881604051951685521660208401526044356040840152166060820152a1005b81811115610e3957815b7f000000000000000000000000000000000000000000000000000000000000000015610d0f5773ffffffffffffffffffffffffffffffffffffffff7f0000000000000000000000000000000000000000000000000000000000000000163b156100ed576040517f8e0250ee00000000000000000000000000000000000000000000000000000000815281600482015263ffffffff7f00000000000000000000000000000000000000000000000000000000000000001660248201527f0000000000000000000000000000000000000000000000000000000000000000604482015273ffffffffffffffffffffffffffffffffffffffff7f00000000000000000000000000000000000000000000000000000000000000001660648201525f60848201525f60a48201526107d060c48201525f8160e4818373ffffffffffffffffffffffffffffffffffffffff7f0000000000000000000000000000000000000000000000000000000000000000165af180156102b557610cca575b505b8103908111610c9d5780610aa8565b7f4e487b71000000000000000000000000000000000000000000000000000000005f52601160045260245ffd5b67ffffffffffffffff8111610ce25760405286610c8c565b7f4e487b71000000000000000000000000000000000000000000000000000000005f52604160045260245ffd5b6040517f6fd3504e00000000000000000000000000000000000000000000000000000000815281600482015263ffffffff7f00000000000000000000000000000000000000000000000000000000000000001660248201527f0000000000000000000000000000000000000000000000000000000000000000604482015273ffffffffffffffffffffffffffffffffffffffff7f00000000000000000000000000000000000000000000000000000000000000001660648201526020816084815f73ffffffffffffffffffffffffffffffffffffffff7f0000000000000000000000000000000000000000000000000000000000000000165af180156102b557610e1a575b50610c8e565b610e329060203d6020116102ae5761029f81836110b8565b5086610e14565b80610b11565b90506020813d602011610e69575b81610e5a602093836110b8565b810103126100ed575184610aa2565b3d9150610e4d565b90506020813d602011610eb9575b81610e8c602093836110b8565b810103126100ed575173ffffffffffffffffffffffffffffffffffffffff811681036100ed576020610a24565b3d9150610e7f565b81925090602091810103126100ed576020015180151581036100ed5784806109aa565b61099d90606090610961565b90506020813d602011610f1a575b81610f0b602093836110b8565b810103126100ed5751846107eb565b3d9150610efe565b60248273ffffffffffffffffffffffffffffffffffffffff604051917ff72f3b1e000000000000000000000000000000000000000000000000000000008352166004820152fd5b60246040517f3728b83d0000000000000000000000000000000000000000000000000000000081526044356004820152fd5b60249073ffffffffffffffffffffffffffffffffffffffff604051917f9d253c4f000000000000000000000000000000000000000000000000000000008352166004820152fd5b60248373ffffffffffffffffffffffffffffffffffffffff604051917feb5f4c6f000000000000000000000000000000000000000000000000000000008352166004820152fd5b346100ed575f7ffffffffffffffffffffffffffffffffffffffffffffffffffffffffffffffffc3601126100ed5760209073ffffffffffffffffffffffffffffffffffffffff7f0000000000000000000000000000000000000000000000000000000000000000168152f35b6004359073ffffffffffffffffffffffffffffffffffffffff821682036100ed57565b90601f7fffffffffffffffffffffffffffffffffffffffffffffffffffffffffffffffe0910116810190811067ffffffffffffffff821117610ce257604052565b908160209103126100ed575167ffffffffffffffff811681036100ed5790565b601f82602094937fffffffffffffffffffffffffffffffffffffffffffffffffffffffffffffffe093818652868601375f8582860101520116010190565b901561117157815115611168575090565b3b156100ed5790565b5080519081156100ed57602001fdfea2646970667358221220e777440497911c8d252d3050e00fa53e3ddd8275a8463c609f35fef99cb846c964736f6c63430008170033",
  "devdoc": {
    "custom:security-contact": "bugs@across.to",
    "details": "Public functions calling external contracts do not guard against reentrancy because they are expected to be called via delegatecall, which will execute this contract's logic within the context of the originating contract. For example, the HubPool will delegatecall these functions, therefore it's only necessary that the HubPool's methods that call this contract's logic guard against reentrancy.",
    "kind": "dev",
    "methods": {
      "constructor": {
        "params": {
          "_cctpMessageTransmitter": "MessageTransmitter contract to bridge messages via CCTP.",
          "_cctpTokenMessenger": "TokenMessenger contract to bridge tokens via CCTP.",
          "_l1Usdc": "USDC address on L1.",
          "solanaSpokePool": "Solana spoke pool address, decoded from Base58 to bytes32.",
          "solanaSpokePoolUsdcVault": "USDC token address on Solana for the spoke pool, decoded from Base58 to bytes32.",
          "solanaUsdc": "USDC mint address on Solana, decoded from Base58 to bytes32."
        }
      },
      "relayMessage(address,bytes)": {
        "details": "Only allows sending messages to the Solana spoke pool.",
        "params": {
          "message": "Data to send to target.",
          "target": "Program on Solana (translated as EVM address) that will receive message."
        }
      },
      "relayTokens(address,address,uint256,address)": {
        "details": "Only allows bridging USDC to Solana spoke pool.",
        "params": {
          "amount": "Amount of L1 tokens to deposit and L2 tokens to receive.",
          "l1Token": "L1 token to deposit.",
          "l2Token": "L2 token to receive.",
          "to": "Bridge recipient."
        }
      }
    },
    "stateVariables": {
      "cctpMessageTransmitter": {
        "details": "Posted officially here: https://developers.circle.com/stablecoins/docs/evm-smart-contracts"
      }
    },
    "version": 1
  },
  "userdoc": {
    "kind": "user",
    "methods": {
      "cctpMessageTransmitter()": {
        "notice": "The official Circle CCTP MessageTransmitter contract endpoint."
      },
      "constructor": {
        "notice": "Constructs new Adapter."
      },
      "relayMessage(address,bytes)": {
        "notice": "Send cross-chain message to target on Solana."
      },
      "relayTokens(address,address,uint256,address)": {
        "notice": "Bridge tokens to Solana."
      }
    },
    "notice": "Contract containing logic to send messages from L1 to Solana via CCTP.",
    "version": 1
  },
  "storageLayout": {
    "storage": [],
    "types": null
  }
}