{
  "address": "0x22001f37B586792F25Ef9d19d99537C6446e0833",
  "abi": [
    {
      "inputs": [
        {
          "internalType": "contract HubPoolStore",
          "name": "_store",
          "type": "address"
        },
        {
          "internalType": "contract IERC20",
          "name": "_l1Usdc",
          "type": "address"
        },
        {
          "internalType": "contract ITokenMessenger",
          "name": "_cctpTokenMessenger",
          "type": "address"
        },
        {
          "internalType": "uint32",
          "name": "_cctpDestinationDomainId",
          "type": "uint32"
        }
      ],
      "stateMutability": "nonpayable",
      "type": "constructor"
    },
    {
      "inputs": [],
      "name": "NotImplemented",
      "type": "error"
    },
    {
      "anonymous": false,
      "inputs": [
        {
          "indexed": false,
          "internalType": "address",
          "name": "target",
          "type": "address"
        },
        {
          "indexed": false,
          "internalType": "bytes",
          "name": "message",
          "type": "bytes"
        }
      ],
      "name": "MessageRelayed",
      "type": "event"
    },
    {
      "anonymous": false,
      "inputs": [
        {
          "indexed": false,
          "internalType": "address",
          "name": "l1Token",
          "type": "address"
        },
        {
          "indexed": false,
          "internalType": "address",
          "name": "l2Token",
          "type": "address"
        },
        {
          "indexed": false,
          "internalType": "uint256",
          "name": "amount",
          "type": "uint256"
        },
        {
          "indexed": false,
          "internalType": "address",
          "name": "to",
          "type": "address"
        }
      ],
      "name": "TokensRelayed",
      "type": "event"
    },
    {
      "inputs": [],
      "name": "DATA_STORE",
      "outputs": [
        {
          "internalType": "contract HubPoolStore",
          "name": "",
          "type": "address"
        }
      ],
      "stateMutability": "view",
      "type": "function"
    },
    {
      "inputs": [],
      "name": "cctpTokenMessenger",
      "outputs": [
        {
          "internalType": "contract ITokenMessenger",
          "name": "",
          "type": "address"
        }
      ],
      "stateMutability": "view",
      "type": "function"
    },
    {
      "inputs": [],
      "name": "cctpV2",
      "outputs": [
        {
          "internalType": "bool",
          "name": "",
          "type": "bool"
        }
      ],
      "stateMutability": "view",
      "type": "function"
    },
    {
      "inputs": [],
      "name": "recipientCircleDomainId",
      "outputs": [
        {
          "internalType": "uint32",
          "name": "",
          "type": "uint32"
        }
      ],
      "stateMutability": "view",
      "type": "function"
    },
    {
      "inputs": [
        {
          "internalType": "address",
          "name": "target",
          "type": "address"
        },
        {
          "internalType": "bytes",
          "name": "message",
          "type": "bytes"
        }
      ],
      "name": "relayMessage",
      "outputs": [],
      "stateMutability": "payable",
      "type": "function"
    },
    {
      "inputs": [
        {
          "internalType": "address",
          "name": "l1Token",
          "type": "address"
        },
        {
          "internalType": "address",
          "name": "l2Token",
          "type": "address"
        },
        {
          "internalType": "uint256",
          "name": "amount",
          "type": "uint256"
        },
        {
          "internalType": "address",
          "name": "to",
          "type": "address"
        }
      ],
      "name": "relayTokens",
      "outputs": [],
      "stateMutability": "payable",
      "type": "function"
    },
    {
      "inputs": [],
      "name": "usdcToken",
      "outputs": [
        {
          "internalType": "contract IERC20",
          "name": "",
          "type": "address"
        }
      ],
      "stateMutability": "view",
      "type": "function"
    }
  ],
  "transactionHash": "0xe6bb87cfaa6486b70dde9125d449c3ac892a11422ce663ea74a286c54879bc37",
  "args": [
    "0x1Ace3BbD69b63063F859514Eca29C9BDd8310E61",
    "0xA0b86991c6218b36c1d19D4a2e9Eb0cE3606eB48",
    "0x0000000000000000000000000000000000000000",
    4294967295
  ],
  "numDeployments": 1,
  "solcInputHash": "d588ac0bd437ae8849ec6f9277b07547",
  "bytecode": "0x61012060408181523462000218576080826200108b80380380916200002582856200021c565b83398101031262000218578151916001600160a01b0380841684036200021857602091828101518281168103620002185784820151838116928382036200021857606001519163ffffffff83168303620002185760a05260c052608052835163011a412160e61b848201908152600482526001600160401b03928287019184831184841017620001fa575f938493895251915afa923d156200020e573d918211620001fa57845191620000e2601f8201601f19168301846200021c565b82523d5f8284013e5b83620001ee575b83620001bc575b50505060e05261010091825251610e4a91826200024183396080518281816103e3015281816108d90152610a34015260a0518281816105470152818161066e01528181610701015281816107f60152818161093101528181610a8c01528181610ca00152610d11015260c05182818161032b0152818161049301528181610505015281816105c50152818161077d01528181610880015281816109870152610acf015260e051828181610384015261083101525181818161013001526102bd0152f35b81519181015192935090818110620001dd575b50501615155f8080620000f9565b5f19910360031b1b165f80620001cf565b815181149350620000f2565b634e487b7160e01b5f52604160045260245ffd5b60609150620000eb565b5f80fd5b601f909101601f19168101906001600160401b03821190821017620001fa5760405256fe6080806040526004361015610012575f80fd5b5f3560e01c90816311eac85514610cc95750806352c8c75c146104075780636e400983146103a9578063775c0d031461034f5780639748cf7c146102e1578063c1d07cc2146102735763e6eb8ade14610069575f80fd5b60407ffffffffffffffffffffffffffffffffffffffffffffffffffffffffffffffffc36011261021e5761009b610d35565b6024359067ffffffffffffffff9081831161021e573660238401121561021e57826004013591821161021e576024830192602483369201011161021e57604051927f8da5cb5b000000000000000000000000000000000000000000000000000000008452602084600481305afa938415610213575f94610222575b5073ffffffffffffffffffffffffffffffffffffffff91827f00000000000000000000000000000000000000000000000000000000000000001690813b1561021e575f918491836040518099819582947fb6a315780000000000000000000000000000000000000000000000000000000084521698896004840152606060248401526101a6606484018c8b610dad565b91163314604483015203925af1908115610213577f9e6c52944e331ba6270e7fe4cea2a4086bae8f7a27e1cdba07f416806f5d0ac4946101ff92610204575b506040519384938452604060208501526040840191610dad565b0390a1005b61020d90610d58565b5f6101e5565b6040513d5f823e3d90fd5b5f80fd5b9093506020813d60201161026b575b8161023e60209383610d6c565b8101031261021e575173ffffffffffffffffffffffffffffffffffffffff8116810361021e57925f610116565b3d9150610231565b3461021e575f7ffffffffffffffffffffffffffffffffffffffffffffffffffffffffffffffffc36011261021e57602060405173ffffffffffffffffffffffffffffffffffffffff7f0000000000000000000000000000000000000000000000000000000000000000168152f35b3461021e575f7ffffffffffffffffffffffffffffffffffffffffffffffffffffffffffffffffc36011261021e57602060405173ffffffffffffffffffffffffffffffffffffffff7f0000000000000000000000000000000000000000000000000000000000000000168152f35b3461021e575f7ffffffffffffffffffffffffffffffffffffffffffffffffffffffffffffffffc36011261021e5760206040517f000000000000000000000000000000000000000000000000000000000000000015158152f35b3461021e575f7ffffffffffffffffffffffffffffffffffffffffffffffffffffffffffffffffc36011261021e57602060405163ffffffff7f0000000000000000000000000000000000000000000000000000000000000000168152f35b60807ffffffffffffffffffffffffffffffffffffffffffffffffffffffffffffffffc36011261021e57610439610d35565b60243573ffffffffffffffffffffffffffffffffffffffff81160361021e576044356064359173ffffffffffffffffffffffffffffffffffffffff8316830361021e5773ffffffffffffffffffffffffffffffffffffffff7f00000000000000000000000000000000000000000000000000000000000000001615159081610c86575b5015610c5c576040517fdd62ed3e00000000000000000000000000000000000000000000000000000000815230600482015273ffffffffffffffffffffffffffffffffffffffff7f000000000000000000000000000000000000000000000000000000000000000016602482015260208160448173ffffffffffffffffffffffffffffffffffffffff7f0000000000000000000000000000000000000000000000000000000000000000165afa908115610213575f91610c2a575b508181018091116109c5576040519060208201907f095ea7b300000000000000000000000000000000000000000000000000000000825273ffffffffffffffffffffffffffffffffffffffff7f0000000000000000000000000000000000000000000000000000000000000000166024840152604483015260448252608082019082821067ffffffffffffffff831117610bf15760c083019282841067ffffffffffffffff851117610bf15760205f94938594604052527f5361666545524332303a206c6f772d6c6576656c2063616c6c206661696c656460a082015251908273ffffffffffffffffffffffffffffffffffffffff7f0000000000000000000000000000000000000000000000000000000000000000165af13d15610c1e573d67ffffffffffffffff8111610bf15761072691604051916106e060207fffffffffffffffffffffffffffffffffffffffffffffffffffffffffffffffe0601f8401160184610d6c565b82523d5f602084013e5b73ffffffffffffffffffffffffffffffffffffffff7f000000000000000000000000000000000000000000000000000000000000000016610deb565b8051908115918215610bce575b50501561021e576040517fcb75c11c00000000000000000000000000000000000000000000000000000000815260208160048173ffffffffffffffffffffffffffffffffffffffff7f0000000000000000000000000000000000000000000000000000000000000000165afa908115610213575f91610b7c575b5090602073ffffffffffffffffffffffffffffffffffffffff926024604051809581937fa56ec632000000000000000000000000000000000000000000000000000000008352817f0000000000000000000000000000000000000000000000000000000000000000166004840152165afa918215610213575f92610b48575b5090917f000000000000000000000000000000000000000000000000000000000000000091805b61085957005b83811115610b4257835b8315610a015773ffffffffffffffffffffffffffffffffffffffff7f0000000000000000000000000000000000000000000000000000000000000000163b1561021e576040517f8e0250ee00000000000000000000000000000000000000000000000000000000815281600482015263ffffffff7f000000000000000000000000000000000000000000000000000000000000000016602482015273ffffffffffffffffffffffffffffffffffffffff8416604482015273ffffffffffffffffffffffffffffffffffffffff7f00000000000000000000000000000000000000000000000000000000000000001660648201525f60848201525f60a48201526107d060c48201525f8160e4818373ffffffffffffffffffffffffffffffffffffffff7f0000000000000000000000000000000000000000000000000000000000000000165af18015610213576109f2575b505b81039081116109c55780610853565b7f4e487b71000000000000000000000000000000000000000000000000000000005f52601160045260245ffd5b6109fb90610d58565b856109b4565b6040517f6fd3504e00000000000000000000000000000000000000000000000000000000815281600482015263ffffffff7f000000000000000000000000000000000000000000000000000000000000000016602482015273ffffffffffffffffffffffffffffffffffffffff8416604482015273ffffffffffffffffffffffffffffffffffffffff7f00000000000000000000000000000000000000000000000000000000000000001660648201526020816084815f73ffffffffffffffffffffffffffffffffffffffff7f0000000000000000000000000000000000000000000000000000000000000000165af1801561021357610b02575b506109b6565b6020813d602011610b3a575b81610b1b60209383610d6c565b8101031261021e575167ffffffffffffffff81160361021e5785610afc565b3d9150610b0e565b80610863565b9091506020813d602011610b74575b81610b6460209383610d6c565b8101031261021e5751908361082c565b3d9150610b57565b90506020813d602011610bc6575b81610b9760209383610d6c565b8101031261021e57519073ffffffffffffffffffffffffffffffffffffffff8216820361021e579060206107ad565b3d9150610b8a565b819250906020918101031261021e5760200151801515810361021e578380610733565b7f4e487b71000000000000000000000000000000000000000000000000000000005f52604160045260245ffd5b610726906060906106ea565b90506020813d602011610c54575b81610c4560209383610d6c565b8101031261021e575183610577565b3d9150610c38565b60046040517fd6234725000000000000000000000000000000000000000000000000000000008152fd5b905073ffffffffffffffffffffffffffffffffffffffff807f000000000000000000000000000000000000000000000000000000000000000016911614836104bc565b3461021e575f7ffffffffffffffffffffffffffffffffffffffffffffffffffffffffffffffffc36011261021e5760209073ffffffffffffffffffffffffffffffffffffffff7f0000000000000000000000000000000000000000000000000000000000000000168152f35b6004359073ffffffffffffffffffffffffffffffffffffffff8216820361021e57565b67ffffffffffffffff8111610bf157604052565b90601f7fffffffffffffffffffffffffffffffffffffffffffffffffffffffffffffffe0910116810190811067ffffffffffffffff821117610bf157604052565b601f82602094937fffffffffffffffffffffffffffffffffffffffffffffffffffffffffffffffe093818652868601375f8582860101520116010190565b9015610e0557815115610dfc575090565b3b1561021e5790565b50805190811561021e57602001fdfea26469706673582212205aafbc5c47553279d4fcb43410b676938f427ada1ab33e9b041ec0c4b309508064736f6c63430008170033",
  "devdoc": {
    "custom:security-contact": "bugs@across.to",
    "details": "This contract should NOT be reused to send messages to SpokePools that have the same address on different L2s.This contract can be redeployed to point to a new HubPoolStore if the data store gets corrupted and new data can't get written to the store for some reason. The corresponding Universal_SpokePool contract will also need to be redeployed to point to the new HubPoolStore.",
    "kind": "dev",
    "methods": {
      "relayMessage(address,bytes)": {
        "params": {
          "message": "Data to send to target.",
          "target": "Contract on the destination that will receive the message. Unused if the message is created by the HubPool admin."
        }
      },
      "relayTokens(address,address,uint256,address)": {
        "details": "This function only uses the CircleCCTPAdapter to relay USDC tokens to CCTP enabled L2 chains. Relaying other tokens will cause this function to revert.",
        "params": {
          "amount": "Amount of tokens to relay.",
          "l1Token": "Address of the token on L1.",
          "l2Token": "Address of the token on L2. Unused",
          "to": "Address to receive the tokens on L2. Should be SpokePool address."
        }
      }
    },
    "version": 1
  },
  "userdoc": {
    "kind": "user",
    "methods": {
      "DATA_STORE()": {
        "notice": "Contract that stores calldata to be relayed to L2 via storage proofs."
      },
      "relayMessage(address,bytes)": {
        "notice": "Saves calldata in a simple storage contract whose state can be proven and relayed to L2."
      },
      "relayTokens(address,address,uint256,address)": {
        "notice": "Relays tokens from L1 to L2."
      }
    },
    "notice": "Stores data that can be relayed to L2 SpokePool using storage proof verification and light client contracts on the L2 where the SpokePool is deployed. Designed to be used as a singleton contract that can be used to relay messages to multiple SpokePools on different chains.",
    "version": 1
  },
  "storageLayout": {
    "storage": [],
    "types": null
  }
}