{
  "address": "0xf64819Ef8b755341B2A759268A21AF64bc9Fe616",
  "abi": [
    {
      "inputs": [
        {
          "internalType": "contract WETH9Interface",
          "name": "_l1Weth",
          "type": "address"
        },
        {
          "internalType": "address",
          "name": "_crossDomainMessenger",
          "type": "address"
        },
        {
          "internalType": "contract IL1StandardBridge",
          "name": "_l1StandardBridge",
          "type": "address"
        },
        {
          "internalType": "contract IERC20",
          "name": "_l1Usdc",
          "type": "address"
        },
        {
          "internalType": "contract ITokenMessenger",
          "name": "_cctpTokenMessenger",
          "type": "address"
        }
      ],
      "stateMutability": "nonpayable",
      "type": "constructor"
    },
    {
      "anonymous": false,
      "inputs": [
        {
          "indexed": false,
          "internalType": "address",
          "name": "target",
          "type": "address"
        },
        {
          "indexed": false,
          "internalType": "bytes",
          "name": "message",
          "type": "bytes"
        }
      ],
      "name": "MessageRelayed",
      "type": "event"
    },
    {
      "anonymous": false,
      "inputs": [
        {
          "indexed": false,
          "internalType": "address",
          "name": "l1Token",
          "type": "address"
        },
        {
          "indexed": false,
          "internalType": "address",
          "name": "l2Token",
          "type": "address"
        },
        {
          "indexed": false,
          "internalType": "uint256",
          "name": "amount",
          "type": "uint256"
        },
        {
          "indexed": false,
          "internalType": "address",
          "name": "to",
          "type": "address"
        }
      ],
      "name": "TokensRelayed",
      "type": "event"
    },
    {
      "inputs": [],
      "name": "L1_STANDARD_BRIDGE",
      "outputs": [
        {
          "internalType": "contract IL1StandardBridge",
          "name": "",
          "type": "address"
        }
      ],
      "stateMutability": "view",
      "type": "function"
    },
    {
      "inputs": [],
      "name": "L1_WETH",
      "outputs": [
        {
          "internalType": "contract WETH9Interface",
          "name": "",
          "type": "address"
        }
      ],
      "stateMutability": "view",
      "type": "function"
    },
    {
      "inputs": [],
      "name": "L2_GAS_LIMIT",
      "outputs": [
        {
          "internalType": "uint32",
          "name": "",
          "type": "uint32"
        }
      ],
      "stateMutability": "view",
      "type": "function"
    },
    {
      "inputs": [],
      "name": "MESSENGER",
      "outputs": [
        {
          "internalType": "address",
          "name": "",
          "type": "address"
        }
      ],
      "stateMutability": "view",
      "type": "function"
    },
    {
      "inputs": [],
      "name": "cctpTokenMessenger",
      "outputs": [
        {
          "internalType": "contract ITokenMessenger",
          "name": "",
          "type": "address"
        }
      ],
      "stateMutability": "view",
      "type": "function"
    },
    {
      "inputs": [],
      "name": "cctpV2",
      "outputs": [
        {
          "internalType": "bool",
          "name": "",
          "type": "bool"
        }
      ],
      "stateMutability": "view",
      "type": "function"
    },
    {
      "inputs": [],
      "name": "recipientCircleDomainId",
      "outputs": [
        {
          "internalType": "uint32",
          "name": "",
          "type": "uint32"
        }
      ],
      "stateMutability": "view",
      "type": "function"
    },
    {
      "inputs": [
        {
          "internalType": "address",
          "name": "target",
          "type": "address"
        },
        {
          "internalType": "bytes",
          "name": "message",
          "type": "bytes"
        }
      ],
      "name": "relayMessage",
      "outputs": [],
      "stateMutability": "payable",
      "type": "function"
    },
    {
      "inputs": [
        {
          "internalType": "address",
          "name": "l1Token",
          "type": "address"
        },
        {
          "internalType": "address",
          "name": "l2Token",
          "type": "address"
        },
        {
          "internalType": "uint256",
          "name": "amount",
          "type": "uint256"
        },
        {
          "internalType": "address",
          "name": "to",
          "type": "address"
        }
      ],
      "name": "relayTokens",
      "outputs": [],
      "stateMutability": "payable",
      "type": "function"
    },
    {
      "inputs": [],
      "name": "usdcToken",
      "outputs": [
        {
          "internalType": "contract IERC20",
          "name": "",
          "type": "address"
        }
      ],
      "stateMutability": "view",
      "type": "function"
    }
  ],
  "transactionHash": "0x303cb020c0e7a8eabc479f54af6bb1e00cd003ed5d1de09a9aba46ef93bfb516",
  "args": [
    "0xC02aaA39b223FE8D0A0e5C4F27eAD9083C756Cc2",
    "0xf931a81D18B1766d15695ffc7c1920a62b7e710a",
    "0x470458C91978D2d929704489Ad730DC3E3001113",
    "0xA0b86991c6218b36c1d19D4a2e9Eb0cE3606eB48",
    "0x28b5a0e9C621a5BadaA536219b3a228C8168cf5d"
  ],
  "numDeployments": 3,
  "solcInputHash": "dc324d2c58d7b0ed46f2033874127662",
  "bytecode": "0x61016060409080825234620002345760a081620012d9803803809162000026828562000238565b833981010312620002345780516001600160a01b039290919083831683036200023457602093848301518181168103620002345782840151938285168503620002345760608101519083821682036200023457608001519083821692838303620002345760805260c05260e052600e60a052825163011a412160e61b878201908152600482526001600160401b0392828601918483118484101762000216575f938493885251915afa953d156200022a573d9182116200021657835191620000f8601f8201601f191683018462000238565b82523d5f8284013e5b866200020a575b86620001d5575b505050610100938452610120928352610140918252519161107c93846200025d853960805184818161011401526102c9015260a051848181610383015281816107bc01526108c5015260c0518481816105fd01528181610b3c0152610c89015260e05184818161025a015281816105ce015281816106250152818161067b015281816107620152818161080e0152610904015251838181610323015261073b0152518281816104480152610c1d0152518181816104c101528181610a170152610baf0152f35b909192955080825192015191818110620001f9575b5050161515925f80806200010f565b5f19910360031b1b165f80620001ea565b81518114965062000108565b634e487b7160e01b5f52604160045260245ffd5b6060915062000101565b5f80fd5b601f909101601f19168101906001600160401b03821190821017620002165760405256fe6080806040526004361015610012575f80fd5b5f905f3560e01c90816311eac85514610c41575080631efd482a14610bd357806335a2db6a14610b6557806352c8c75c146103e35780635e743ef7146103a75780636e40098314610348578063775c0d03146102ed578063927ede2d1461027e5780639748cf7c1461020f5763e6eb8ade1461008c575f80fd5b60407ffffffffffffffffffffffffffffffffffffffffffffffffffffffffffffffffc36011261020c576100be610cad565b6024359067ffffffffffffffff908183116101f957366023840112156101f95782600401359182116101f957602483019260248336920101116101f9578373ffffffffffffffffffffffffffffffffffffffff807f00000000000000000000000000000000000000000000000000000000000000001692833b156102085782906040519283917f3dbb202b000000000000000000000000000000000000000000000000000000008352169485600483015260606024830152818381610187606482018b8d610d52565b62030d40604483015203925af180156101fd576101e5575b50506101df7f9e6c52944e331ba6270e7fe4cea2a4086bae8f7a27e1cdba07f416806f5d0ac4936040519384938452604060208501526040840191610d52565b0390a180f35b6101ee90610cd0565b6101f957835f61019f565b8380fd5b6040513d84823e3d90fd5b8280fd5b80fd5b503461020c57807ffffffffffffffffffffffffffffffffffffffffffffffffffffffffffffffffc36011261020c57602060405173ffffffffffffffffffffffffffffffffffffffff7f0000000000000000000000000000000000000000000000000000000000000000168152f35b503461020c57807ffffffffffffffffffffffffffffffffffffffffffffffffffffffffffffffffc36011261020c57602060405173ffffffffffffffffffffffffffffffffffffffff7f0000000000000000000000000000000000000000000000000000000000000000168152f35b503461020c57807ffffffffffffffffffffffffffffffffffffffffffffffffffffffffffffffffc36011261020c5760206040517f000000000000000000000000000000000000000000000000000000000000000015158152f35b503461020c57807ffffffffffffffffffffffffffffffffffffffffffffffffffffffffffffffffc36011261020c57602060405163ffffffff7f0000000000000000000000000000000000000000000000000000000000000000168152f35b503461020c57807ffffffffffffffffffffffffffffffffffffffffffffffffffffffffffffffffc36011261020c57602060405162030d408152f35b5060807ffffffffffffffffffffffffffffffffffffffffffffffffffffffffffffffffc3601126109b857610416610cad565b6024359073ffffffffffffffffffffffffffffffffffffffff80831683036109b8576064359281841684036109b857847f0000000000000000000000000000000000000000000000000000000000000000831684841681036105c657803b156105ae578180916024604051809481937f2e1a7d4d00000000000000000000000000000000000000000000000000000000835260443560048401525af180156101fd576105b2575b50827f000000000000000000000000000000000000000000000000000000000000000016803b156105ae5781608491604051928380927f9a2ac6d5000000000000000000000000000000000000000000000000000000008252888b16600483015262030d40602483015260606044830152846064830152604435905af180156101fd57610590575b5050907fd7e09655439c3932e55857df3220186e5a7f0980825f20691c2b35d941dee75b9381608094935b81604051951685521660208401526044356040840152166060820152a180f35b61059d9094939294610cd0565b6105aa579091845f610545565b8480fd5b5080fd5b6105bb90610cd0565b6105aa57845f6104bd565b5050819293917f000000000000000000000000000000000000000000000000000000000000000016151580610b38575b15610a14577f000000000000000000000000000000000000000000000000000000000000000061064b604435857f00000000000000000000000000000000000000000000000000000000000000001683610d90565b604051907fcb75c11c000000000000000000000000000000000000000000000000000000008252602082600481887f0000000000000000000000000000000000000000000000000000000000000000165afa80156109c457859288916109cf575b506020906024604051809581937fa56ec6320000000000000000000000000000000000000000000000000000000083528187166004840152165afa9182156109c457879261098c575b50604435805b61072f57505050917fd7e09655439c3932e55857df3220186e5a7f0980825f20691c2b35d941dee75b939181608094610570565b8281111561098657825b7f00000000000000000000000000000000000000000000000000000000000000001561089257867f0000000000000000000000000000000000000000000000000000000000000000163b1561088e57886040517f8e0250ee00000000000000000000000000000000000000000000000000000000815282600482015263ffffffff7f0000000000000000000000000000000000000000000000000000000000000000166024820152888816604482015288851660648201528160848201528160a48201526107d060c4820152818160e481838d7f0000000000000000000000000000000000000000000000000000000000000000165af180156101fd5761087a575b50505b810390811161084d57806106fb565b6024887f4e487b710000000000000000000000000000000000000000000000000000000081526011600452fd5b61088390610cd0565b61088e57885f61083b565b8880fd5b6040517f6fd3504e00000000000000000000000000000000000000000000000000000000815281600482015263ffffffff7f0000000000000000000000000000000000000000000000000000000000000000166024820152878716604482015287841660648201526020816084818d8c7f0000000000000000000000000000000000000000000000000000000000000000165af1801561097b57610937575b5061083e565b6020813d602011610973575b8161095060209383610d11565b8101031261096f575167ffffffffffffffff81160361088e575f610931565b8980fd5b3d9150610943565b6040513d8c823e3d90fd5b80610739565b9091506020813d6020116109bc575b816109a860209383610d11565b810103126109b85751905f6106f5565b5f80fd5b3d915061099b565b6040513d89823e3d90fd5b919250506020813d602011610a0c575b816109ec60209383610d11565b81010312610a085751908482168203610a0857849160206106ac565b8680fd5b3d91506109df565b827f000000000000000000000000000000000000000000000000000000000000000016610a4660443582868816610d90565b803b156109b8575f809160e4604051809481937f838b2520000000000000000000000000000000000000000000000000000000008352898b16600484015289881660248401528989166044840152604435606484015262030d40608484015260c060a48401528160c48401525af18015610b2d57610aed575b50917fd7e09655439c3932e55857df3220186e5a7f0980825f20691c2b35d941dee75b939181608094610570565b60809391955091610b1f7fd7e09655439c3932e55857df3220186e5a7f0980825f20691c2b35d941dee75b9593610cd0565b815f96925093509193610abf565b6040513d5f823e3d90fd5b50827f000000000000000000000000000000000000000000000000000000000000000016838516146105f6565b346109b8575f7ffffffffffffffffffffffffffffffffffffffffffffffffffffffffffffffffc3601126109b857602060405173ffffffffffffffffffffffffffffffffffffffff7f0000000000000000000000000000000000000000000000000000000000000000168152f35b346109b8575f7ffffffffffffffffffffffffffffffffffffffffffffffffffffffffffffffffc3601126109b857602060405173ffffffffffffffffffffffffffffffffffffffff7f0000000000000000000000000000000000000000000000000000000000000000168152f35b346109b8575f7ffffffffffffffffffffffffffffffffffffffffffffffffffffffffffffffffc3601126109b85760209073ffffffffffffffffffffffffffffffffffffffff7f0000000000000000000000000000000000000000000000000000000000000000168152f35b6004359073ffffffffffffffffffffffffffffffffffffffff821682036109b857565b67ffffffffffffffff8111610ce457604052565b7f4e487b71000000000000000000000000000000000000000000000000000000005f52604160045260245ffd5b90601f7fffffffffffffffffffffffffffffffffffffffffffffffffffffffffffffffe0910116810190811067ffffffffffffffff821117610ce457604052565b601f82602094937fffffffffffffffffffffffffffffffffffffffffffffffffffffffffffffffe093818652868601375f8582860101520116010190565b9291909273ffffffffffffffffffffffffffffffffffffffff809116604051917fdd62ed3e000000000000000000000000000000000000000000000000000000008352306004840152602495169182868201526020938482604481865afa918215610b2d575f92610fee575b508101809111610fc25760405190848201937f095ea7b3000000000000000000000000000000000000000000000000000000008552878301526044820152604481526080810167ffffffffffffffff9382821085831117610f965760c083019282841086851117610f6a57865f94938594604052527f5361666545524332303a206c6f772d6c6576656c2063616c6c206661696c656460a0820152519082855af1903d15610f59573d928311610f2d57610ef59394955060405192610ee8867fffffffffffffffffffffffffffffffffffffffffffffffffffffffffffffffe0601f8401160185610d11565b83523d5f8685013e61101d565b8051918215918215610f0d575b50509050156109b857565b8092508193810103126109b857015180151581036109b857805f80610f02565b857f4e487b71000000000000000000000000000000000000000000000000000000005f5260416004525ffd5b9150610ef59293945060609161101d565b887f4e487b71000000000000000000000000000000000000000000000000000000005f5260416004525ffd5b877f4e487b71000000000000000000000000000000000000000000000000000000005f5260416004525ffd5b857f4e487b71000000000000000000000000000000000000000000000000000000005f5260116004525ffd5b9091508481813d8311611016575b6110068183610d11565b810103126109b85751905f610dfc565b503d610ffc565b90156110375781511561102e575090565b3b156109b85790565b5080519081156109b857602001fdfea26469706673582212205169ea9c27d7ec34300ba04b9ac84f01797bd0d394c238dc623de9c35d11e57c64736f6c63430008170033",
  "devdoc": {
    "custom:security-contact": "bugs@across.to",
    "details": "Public functions calling external contracts do not guard against reentrancy because they are expected to be called via delegatecall, which will execute this contract's logic within the context of the originating contract. For example, the HubPool will delegatecall these functions, therefore its only necessary that the HubPool's methods that call this contract's logic guard against reentrancy.",
    "kind": "dev",
    "methods": {
      "constructor": {
        "params": {
          "_cctpTokenMessenger": "TokenMessenger contract to bridge via CCTP.",
          "_crossDomainMessenger": "XDomainMessenger Doctor Who system contract.",
          "_l1StandardBridge": "Standard bridge contract.",
          "_l1Usdc": "USDC address on L1.",
          "_l1Weth": "WETH address on L1."
        }
      },
      "relayMessage(address,bytes)": {
        "params": {
          "message": "Data to send to target.",
          "target": "Contract on Doctor Who that will receive message."
        }
      },
      "relayTokens(address,address,uint256,address)": {
        "params": {
          "amount": "Amount of L1 tokens to deposit and L2 tokens to receive.",
          "l1Token": "L1 token to deposit.",
          "l2Token": "L2 token to receive.",
          "to": "Bridge recipient."
        }
      }
    },
    "version": 1
  },
  "userdoc": {
    "kind": "user",
    "methods": {
      "constructor": {
        "notice": "Constructs new Adapter."
      },
      "relayMessage(address,bytes)": {
        "notice": "Send cross-chain message to target on Doctor Who."
      },
      "relayTokens(address,address,uint256,address)": {
        "notice": "Bridge tokens to Doctor Who."
      }
    },
    "notice": "Contract containing logic to send messages from L1 to Doctor Who. This is a modified version of the Optimism adapter that excludes the custom bridging logic.",
    "version": 1
  },
  "storageLayout": {
    "storage": [],
    "types": null
  }
}