{
  "address": "0xA374585E6062517Ee367ee5044946A6fBe17724f",
  "abi": [
    {
      "inputs": [
        {
          "internalType": "uint256",
          "name": "_chainId",
          "type": "uint256"
        },
        {
          "internalType": "contract BridgeHubInterface",
          "name": "_bridgeHub",
          "type": "address"
        },
        {
          "internalType": "contract WETH9Interface",
          "name": "_l1Weth",
          "type": "address"
        },
        {
          "internalType": "address",
          "name": "_l2RefundAddress",
          "type": "address"
        },
        {
          "internalType": "uint256",
          "name": "_l2GasLimit",
          "type": "uint256"
        },
        {
          "internalType": "uint256",
          "name": "_l1GasToL2GasPerPubDataLimit",
          "type": "uint256"
        },
        {
          "internalType": "uint256",
          "name": "_maxTxGasprice",
          "type": "uint256"
        }
      ],
      "stateMutability": "nonpayable",
      "type": "constructor"
    },
    {
      "inputs": [],
      "name": "ETHGasTokenRequired",
      "type": "error"
    },
    {
      "inputs": [],
      "name": "TransactionFeeTooHigh",
      "type": "error"
    },
    {
      "anonymous": false,
      "inputs": [
        {
          "indexed": false,
          "internalType": "address",
          "name": "target",
          "type": "address"
        },
        {
          "indexed": false,
          "internalType": "bytes",
          "name": "message",
          "type": "bytes"
        }
      ],
      "name": "MessageRelayed",
      "type": "event"
    },
    {
      "anonymous": false,
      "inputs": [
        {
          "indexed": false,
          "internalType": "address",
          "name": "l1Token",
          "type": "address"
        },
        {
          "indexed": false,
          "internalType": "address",
          "name": "l2Token",
          "type": "address"
        },
        {
          "indexed": false,
          "internalType": "uint256",
          "name": "amount",
          "type": "uint256"
        },
        {
          "indexed": false,
          "internalType": "address",
          "name": "to",
          "type": "address"
        }
      ],
      "name": "TokensRelayed",
      "type": "event"
    },
    {
      "anonymous": false,
      "inputs": [
        {
          "indexed": true,
          "internalType": "bytes32",
          "name": "canonicalTxHash",
          "type": "bytes32"
        }
      ],
      "name": "ZkStackMessageRelayed",
      "type": "event"
    },
    {
      "inputs": [],
      "name": "BRIDGE_HUB",
      "outputs": [
        {
          "internalType": "contract BridgeHubInterface",
          "name": "",
          "type": "address"
        }
      ],
      "stateMutability": "view",
      "type": "function"
    },
    {
      "inputs": [],
      "name": "CHAIN_ID",
      "outputs": [
        {
          "internalType": "uint256",
          "name": "",
          "type": "uint256"
        }
      ],
      "stateMutability": "view",
      "type": "function"
    },
    {
      "inputs": [],
      "name": "L1_GAS_TO_L2_GAS_PER_PUB_DATA_LIMIT",
      "outputs": [
        {
          "internalType": "uint256",
          "name": "",
          "type": "uint256"
        }
      ],
      "stateMutability": "view",
      "type": "function"
    },
    {
      "inputs": [],
      "name": "L1_WETH",
      "outputs": [
        {
          "internalType": "contract WETH9Interface",
          "name": "",
          "type": "address"
        }
      ],
      "stateMutability": "view",
      "type": "function"
    },
    {
      "inputs": [],
      "name": "L2_GAS_LIMIT",
      "outputs": [
        {
          "internalType": "uint256",
          "name": "",
          "type": "uint256"
        }
      ],
      "stateMutability": "view",
      "type": "function"
    },
    {
      "inputs": [],
      "name": "L2_REFUND_ADDRESS",
      "outputs": [
        {
          "internalType": "address",
          "name": "",
          "type": "address"
        }
      ],
      "stateMutability": "view",
      "type": "function"
    },
    {
      "inputs": [],
      "name": "SHARED_BRIDGE",
      "outputs": [
        {
          "internalType": "address",
          "name": "",
          "type": "address"
        }
      ],
      "stateMutability": "view",
      "type": "function"
    },
    {
      "inputs": [
        {
          "internalType": "address",
          "name": "target",
          "type": "address"
        },
        {
          "internalType": "bytes",
          "name": "message",
          "type": "bytes"
        }
      ],
      "name": "relayMessage",
      "outputs": [],
      "stateMutability": "payable",
      "type": "function"
    },
    {
      "inputs": [
        {
          "internalType": "address",
          "name": "l1Token",
          "type": "address"
        },
        {
          "internalType": "address",
          "name": "l2Token",
          "type": "address"
        },
        {
          "internalType": "uint256",
          "name": "amount",
          "type": "uint256"
        },
        {
          "internalType": "address",
          "name": "to",
          "type": "address"
        }
      ],
      "name": "relayTokens",
      "outputs": [],
      "stateMutability": "payable",
      "type": "function"
    }
  ],
  "transactionHash": "0xcf3e3e6d83fd5998bf8eb3c75fc61fa07f6bbb12ee154c28f06ddd66f559d447",
  "args": [
    "324",
    "0x303a465B659cBB0ab36eE643eA362c509EEb5213",
    "0xC02aaA39b223FE8D0A0e5C4F27eAD9083C756Cc2",
    "0x07aE8551Be970cB1cCa11Dd7a11F47Ae82e70E67",
    2000000,
    800,
    "10000000000000"
  ],
  "numDeployments": 1,
  "solcInputHash": "003f063eff5beb84360ac6f5491340ad",
  "bytecode": "0x61018060409080825234620002215760e0816200151a803803809162000026828562000280565b83398101031262000221578051602080830151936001600160a01b038086169290838703620002215782860151958187168703620002215760049481620000716060869401620002b8565b60808201519060c060a08401519301519960e0526101009b8c526101209a8b5260c05260805261016097885260a05284519586809263070e40ef60e31b82525afa93841562000276575f9462000237575b5061014093845280875116918060e0516024865180968193632cf632d160e11b835260048301525afa9081156200022d575f91620001eb575b50600192501603620001db57519261124c9485620002ce863960805185818161010f015281816103ff015261057b015260a0518581816101b0015281816103a7015281816106b1015281816109be0152611023015260c0518581816101dc015281816106f1015281816109f90152610cef015260e0518581816101700152818161034f015281816106670152818161098c0152610ff201525184818161023a0152818161046c0152818161076301528181610b0501526110640152518381816105be0152610c830152518281816104da015261090101525181610fa40152f35b516308ca5c0760e31b8152600490fd5b905082813d831162000225575b62000204818362000280565b8101031262000221576200021a600192620002b8565b5f620000fb565b5f80fd5b503d620001f8565b84513d5f823e3d90fd5b9093508181813d83116200026e575b62000252818362000280565b8101031262000221576200026690620002b8565b925f620000c2565b503d62000246565b83513d5f823e3d90fd5b601f909101601f19168101906001600160401b03821190821017620002a457604052565b634e487b7160e01b5f52604160045260245ffd5b51906001600160a01b0382168203620002215756fe608060408181526004361015610013575f80fd5b5f915f3560e01c90816303c0501914610ca7575080631efd482a14610c3957806352c8c75c146104fe578063546b6d2a146104905780635d4edca7146104225780635e743ef7146103ca5780636c9075b71461037257806385e1f4d01461031a5763e6eb8ade14610082575f80fd5b807ffffffffffffffffffffffffffffffffffffffffffffffffffffffffffffffffc360112610316576100b3610d13565b60243567ffffffffffffffff8111610312573660238201121561031257806004013590846100e083610dcc565b916100ed86519384610d8b565b838352602093366024828401011161030e5780602486930183860137830101527f0000000000000000000000000000000000000000000000000000000000000000908261023661013c84610fa2565b9573ffffffffffffffffffffffffffffffffffffffff90885161015e81610d6f565b5f8152828a519261016e84610d36565b7f000000000000000000000000000000000000000000000000000000000000000084528a878501521696878b8401528b606084015286608084015260a08301527f000000000000000000000000000000000000000000000000000000000000000060c083015260e0820152817f00000000000000000000000000000000000000000000000000000000000000001661010082015288519788809481937fd52471c100000000000000000000000000000000000000000000000000000000835260048301610e9c565b03927f0000000000000000000000000000000000000000000000000000000000000000165af19384156103045786946102cf575b506102a59085807f9e6c52944e331ba6270e7fe4cea2a4086bae8f7a27e1cdba07f416806f5d0ac49697519586958652850152830190610e06565b0390a17fb50bccea676fbc831e47d257acd0dbaa101ff4d469933d6d9e6ad85c2d4b63b98280a280f35b9093508281813d83116102fd575b6102e78183610d8b565b810103126102f95751926102a561026a565b5f80fd5b503d6102dd565b85513d88823e3d90fd5b8280fd5b8380fd5b5080fd5b503461031657817ffffffffffffffffffffffffffffffffffffffffffffffffffffffffffffffffc36011261031657602090517f00000000000000000000000000000000000000000000000000000000000000008152f35b503461031657817ffffffffffffffffffffffffffffffffffffffffffffffffffffffffffffffffc36011261031657602090517f00000000000000000000000000000000000000000000000000000000000000008152f35b503461031657817ffffffffffffffffffffffffffffffffffffffffffffffffffffffffffffffffc36011261031657602090517f00000000000000000000000000000000000000000000000000000000000000008152f35b503461031657817ffffffffffffffffffffffffffffffffffffffffffffffffffffffffffffffffc360112610316576020905173ffffffffffffffffffffffffffffffffffffffff7f0000000000000000000000000000000000000000000000000000000000000000168152f35b503461031657817ffffffffffffffffffffffffffffffffffffffffffffffffffffffffffffffffc360112610316576020905173ffffffffffffffffffffffffffffffffffffffff7f0000000000000000000000000000000000000000000000000000000000000000168152f35b5060807ffffffffffffffffffffffffffffffffffffffffffffffffffffffffffffffffc3601126102f957610531610d13565b906024359173ffffffffffffffffffffffffffffffffffffffff83168093036102f9576044356064359073ffffffffffffffffffffffffffffffffffffffff82168092036102f9577f00000000000000000000000000000000000000000000000000000000000000006105a381610fa2565b73ffffffffffffffffffffffffffffffffffffffff948516947f0000000000000000000000000000000000000000000000000000000000000000168581036108b157803b156102f9575f809160248951809481937f2e1a7d4d0000000000000000000000000000000000000000000000000000000083528960048401525af180156108a75761085c575b5061074a91816106498561064360209582610e62565b92610e62565b9188519061065682610d6f565b5f825289519361066585610d36565b7f0000000000000000000000000000000000000000000000000000000000000000855285850152878a85015286606085015289516106a281610d6f565b8c8152608085015260a08401527f000000000000000000000000000000000000000000000000000000000000000060c084015260e083015273ffffffffffffffffffffffffffffffffffffffff7f000000000000000000000000000000000000000000000000000000000000000016610100830152875180809581947fd52471c100000000000000000000000000000000000000000000000000000000835260048301610e9c565b039173ffffffffffffffffffffffffffffffffffffffff7f0000000000000000000000000000000000000000000000000000000000000000165af19081156108525787916107f8575b50907fd7e09655439c3932e55857df3220186e5a7f0980825f20691c2b35d941dee75b946080949392965b815194855260208501528301526060820152a17fb50bccea676fbc831e47d257acd0dbaa101ff4d469933d6d9e6ad85c2d4b63b98280a280f35b93929190506020843d60201161084a575b8161081660209383610d8b565b810103126102f9579251919290917fd7e09655439c3932e55857df3220186e5a7f0980825f20691c2b35d941dee75b610793565b3d9150610809565b85513d89823e3d90fd5b90975067ffffffffffffffff811161087a5785525f9661074a61062d565b7f4e487b71000000000000000000000000000000000000000000000000000000005f52604160045260245ffd5b87513d5f823e3d90fd5b50610100602091610aec938851848101907f095ea7b300000000000000000000000000000000000000000000000000000000908183525f808c73ffffffffffffffffffffffffffffffffffffffff7f000000000000000000000000000000000000000000000000000000000000000016958660248601528c60448601526044855261093b85610d53565b828551925af16109496110fb565b81610c0c575b5080610c02575b15610bc8575b50508951908986830152878b8301528860608301526060825261097e82610d53565b8a519261098a84610d36565b7f0000000000000000000000000000000000000000000000000000000000000000845284878501525f8c85015260608401527f0000000000000000000000000000000000000000000000000000000000000000608084015273ffffffffffffffffffffffffffffffffffffffff7f00000000000000000000000000000000000000000000000000000000000000001660a084015260c08301525f60e08301528382015288518095819482937f24fd57fb000000000000000000000000000000000000000000000000000000008452876004850152805160248501528781015160448501528c810151606485015260608101516084850152608081015160a485015273ffffffffffffffffffffffffffffffffffffffff60a08201511660c485015273ffffffffffffffffffffffffffffffffffffffff60c08201511660e485015260e08101516101048501520151610120610124840152610144830190610e06565b039173ffffffffffffffffffffffffffffffffffffffff7f0000000000000000000000000000000000000000000000000000000000000000165af1908115610bbe575f91610b64575b50907fd7e09655439c3932e55857df3220186e5a7f0980825f20691c2b35d941dee75b946080949392966107be565b93929190506020843d602011610bb6575b81610b8260209383610d8b565b810103126102f9579251919290917fd7e09655439c3932e55857df3220186e5a7f0980825f20691c2b35d941dee75b610b35565b3d9150610b75565b85513d5f823e3d90fd5b610bf5610bfb928d5190898201528460248201525f604482015260448152610bef81610d53565b8c611142565b8a611142565b5f8061095c565b508a3b1515610956565b8051801592508215610c21575b50505f61094f565b610c3292508101890190890161112a565b5f80610c19565b50346102f9575f7ffffffffffffffffffffffffffffffffffffffffffffffffffffffffffffffffc3601126102f9576020905173ffffffffffffffffffffffffffffffffffffffff7f0000000000000000000000000000000000000000000000000000000000000000168152f35b346102f9575f7ffffffffffffffffffffffffffffffffffffffffffffffffffffffffffffffffc3601126102f95760209073ffffffffffffffffffffffffffffffffffffffff7f0000000000000000000000000000000000000000000000000000000000000000168152f35b6004359073ffffffffffffffffffffffffffffffffffffffff821682036102f957565b610120810190811067ffffffffffffffff82111761087a57604052565b6080810190811067ffffffffffffffff82111761087a57604052565b6020810190811067ffffffffffffffff82111761087a57604052565b90601f7fffffffffffffffffffffffffffffffffffffffffffffffffffffffffffffffe0910116810190811067ffffffffffffffff82111761087a57604052565b67ffffffffffffffff811161087a57601f017fffffffffffffffffffffffffffffffffffffffffffffffffffffffffffffffe01660200190565b91908251928382525f5b848110610e4e5750507fffffffffffffffffffffffffffffffffffffffffffffffffffffffffffffffe0601f845f6020809697860101520116010190565b602081830181015184830182015201610e10565b91908201809211610e6f57565b7f4e487b71000000000000000000000000000000000000000000000000000000005f52601160045260245ffd5b6020808252825181830152808301516040830152604083015173ffffffffffffffffffffffffffffffffffffffff809116606084015260608401516080840152608084015191610efa610120938460a0870152610140860190610e06565b9460a081015160c086015260c081015160e086015260e0810151957fffffffffffffffffffffffffffffffffffffffffffffffffffffffffffffffe0906101009382888303018589015288519182815281810182808560051b8401019b01945f925b858410610f73575050505050505001511691015290565b9091929394959b8580610f918f936001948787830301895251610e06565b9e0194019401929594939190610f5c565b7f00000000000000000000000000000000000000000000000000000000000000003a116110d157604051907f716232740000000000000000000000000000000000000000000000000000000082527f000000000000000000000000000000000000000000000000000000000000000060048301523a602483015260448201527f0000000000000000000000000000000000000000000000000000000000000000606482015260208160848173ffffffffffffffffffffffffffffffffffffffff7f0000000000000000000000000000000000000000000000000000000000000000165afa9081156110c6575f91611097575090565b90506020813d6020116110be575b816110b260209383610d8b565b810103126102f9575190565b3d91506110a5565b6040513d5f823e3d90fd5b60046040517fb33009b4000000000000000000000000000000000000000000000000000000008152fd5b3d15611125573d9061110c82610dcc565b9161111a6040519384610d8b565b82523d5f602084013e565b606090565b908160209103126102f9575180151581036102f95790565b73ffffffffffffffffffffffffffffffffffffffff166040516040810181811067ffffffffffffffff82111761087a576111bd937f5361666545524332303a206c6f772d6c6576656c2063616c6c206661696c656460205f948594604052818152015260208151910182855af16111b76110fb565b916111ed565b80519081159182156111d3575b5050156102f957565b6111e6925060208091830101910161112a565b5f806111ca565b9015611207578151156111fe575090565b3b156102f95790565b5080519081156102f957602001fdfea26469706673582212201a808d296d047f6ed8b56331bd1f245399e66fdf80429494ebf764617d06b26664736f6c63430008170033",
  "devdoc": {
    "custom:security-contact": "bugs@across.to",
    "details": "Public functions calling external contracts do not guard against reentrancy because they are expected to be called via delegatecall, which will execute this contract's logic within the context of the originating contract. For example, the HubPool will delegatecall these functions, therefore its only necessary that the HubPool's methods that call this contract's logic guard against reentrancy.",
    "kind": "dev",
    "methods": {
      "constructor": {
        "params": {
          "_bridgeHub": "The bridge hub contract address for the ZkStack network.",
          "_chainId": "The target ZkStack network's chain ID.",
          "_l1GasToL2GasPerPubDataLimit": "The exchange rate of l1 gas to l2 gas.",
          "_l1Weth": "WETH address on L1.",
          "_l2GasLimit": "The maximum amount of gas this contract is willing to pay to execute a transaction on L2.",
          "_l2RefundAddress": "address that recieves excess gas refunds on L2.",
          "_maxTxGasprice": "The maximum effective gas price any transaction sent to this adapter may have."
        }
      },
      "relayMessage(address,bytes)": {
        "details": "The HubPool must hold enough ETH to pay for the L2 txn.",
        "params": {
          "message": "Data to send to target.",
          "target": "Contract on L2 that will receive message."
        }
      },
      "relayTokens(address,address,uint256,address)": {
        "details": "The HubPool must hold enough ETH to pay for the L2 txn.",
        "params": {
          "amount": "Amount of L1 tokens to deposit and L2 tokens to receive.",
          "l1Token": "L1 token to deposit.",
          "l2Token": "L2 token to receive.",
          "to": "Bridge recipient."
        }
      }
    },
    "version": 1
  },
  "userdoc": {
    "kind": "user",
    "methods": {
      "constructor": {
        "notice": "Constructs new Adapter."
      },
      "relayMessage(address,bytes)": {
        "notice": "Send cross-chain message to target on ZkStack."
      },
      "relayTokens(address,address,uint256,address)": {
        "notice": "Bridge tokens to ZkStack."
      }
    },
    "notice": "Contract containing logic to send messages from L1 to ZkStack with ETH as the gas token.",
    "version": 1
  },
  "storageLayout": {
    "storage": [],
    "types": null
  }
}