{
  "address": "0x3155A91D2EBAe69443B45556e1DE5ed8eB79C90D",
  "abi": [
    {
      "inputs": [
        {
          "internalType": "uint256",
          "name": "_chainId",
          "type": "uint256"
        },
        {
          "internalType": "contract BridgeHubInterface",
          "name": "_bridgeHub",
          "type": "address"
        },
        {
          "internalType": "contract WETH9Interface",
          "name": "_l1Weth",
          "type": "address"
        },
        {
          "internalType": "address",
          "name": "_l2RefundAddress",
          "type": "address"
        },
        {
          "internalType": "uint256",
          "name": "_l2GasLimit",
          "type": "uint256"
        },
        {
          "internalType": "uint256",
          "name": "_l1GasToL2GasPerPubDataLimit",
          "type": "uint256"
        },
        {
          "internalType": "uint256",
          "name": "_maxTxGasprice",
          "type": "uint256"
        }
      ],
      "stateMutability": "nonpayable",
      "type": "constructor"
    },
    {
      "inputs": [],
      "name": "ETHGasTokenRequired",
      "type": "error"
    },
    {
      "inputs": [],
      "name": "TransactionFeeTooHigh",
      "type": "error"
    },
    {
      "anonymous": false,
      "inputs": [
        {
          "indexed": false,
          "internalType": "address",
          "name": "target",
          "type": "address"
        },
        {
          "indexed": false,
          "internalType": "bytes",
          "name": "message",
          "type": "bytes"
        }
      ],
      "name": "MessageRelayed",
      "type": "event"
    },
    {
      "anonymous": false,
      "inputs": [
        {
          "indexed": false,
          "internalType": "address",
          "name": "l1Token",
          "type": "address"
        },
        {
          "indexed": false,
          "internalType": "address",
          "name": "l2Token",
          "type": "address"
        },
        {
          "indexed": false,
          "internalType": "uint256",
          "name": "amount",
          "type": "uint256"
        },
        {
          "indexed": false,
          "internalType": "address",
          "name": "to",
          "type": "address"
        }
      ],
      "name": "TokensRelayed",
      "type": "event"
    },
    {
      "anonymous": false,
      "inputs": [
        {
          "indexed": true,
          "internalType": "bytes32",
          "name": "canonicalTxHash",
          "type": "bytes32"
        }
      ],
      "name": "ZkStackMessageRelayed",
      "type": "event"
    },
    {
      "inputs": [],
      "name": "BRIDGE_HUB",
      "outputs": [
        {
          "internalType": "contract BridgeHubInterface",
          "name": "",
          "type": "address"
        }
      ],
      "stateMutability": "view",
      "type": "function"
    },
    {
      "inputs": [],
      "name": "CHAIN_ID",
      "outputs": [
        {
          "internalType": "uint256",
          "name": "",
          "type": "uint256"
        }
      ],
      "stateMutability": "view",
      "type": "function"
    },
    {
      "inputs": [],
      "name": "L1_GAS_TO_L2_GAS_PER_PUB_DATA_LIMIT",
      "outputs": [
        {
          "internalType": "uint256",
          "name": "",
          "type": "uint256"
        }
      ],
      "stateMutability": "view",
      "type": "function"
    },
    {
      "inputs": [],
      "name": "L1_WETH",
      "outputs": [
        {
          "internalType": "contract WETH9Interface",
          "name": "",
          "type": "address"
        }
      ],
      "stateMutability": "view",
      "type": "function"
    },
    {
      "inputs": [],
      "name": "L2_GAS_LIMIT",
      "outputs": [
        {
          "internalType": "uint256",
          "name": "",
          "type": "uint256"
        }
      ],
      "stateMutability": "view",
      "type": "function"
    },
    {
      "inputs": [],
      "name": "L2_REFUND_ADDRESS",
      "outputs": [
        {
          "internalType": "address",
          "name": "",
          "type": "address"
        }
      ],
      "stateMutability": "view",
      "type": "function"
    },
    {
      "inputs": [],
      "name": "SHARED_BRIDGE",
      "outputs": [
        {
          "internalType": "address",
          "name": "",
          "type": "address"
        }
      ],
      "stateMutability": "view",
      "type": "function"
    },
    {
      "inputs": [
        {
          "internalType": "address",
          "name": "target",
          "type": "address"
        },
        {
          "internalType": "bytes",
          "name": "message",
          "type": "bytes"
        }
      ],
      "name": "relayMessage",
      "outputs": [],
      "stateMutability": "payable",
      "type": "function"
    },
    {
      "inputs": [
        {
          "internalType": "address",
          "name": "l1Token",
          "type": "address"
        },
        {
          "internalType": "address",
          "name": "l2Token",
          "type": "address"
        },
        {
          "internalType": "uint256",
          "name": "amount",
          "type": "uint256"
        },
        {
          "internalType": "address",
          "name": "to",
          "type": "address"
        }
      ],
      "name": "relayTokens",
      "outputs": [],
      "stateMutability": "payable",
      "type": "function"
    },
    {
      "stateMutability": "payable",
      "type": "receive"
    }
  ],
  "transactionHash": "0xd1a509660412fa7ed6e412e51f38254f27a7d1c264c9ad142766484925314445",
  "args": [
    "324",
    "0x303a465B659cBB0ab36eE643eA362c509EEb5213",
    "0xC02aaA39b223FE8D0A0e5C4F27eAD9083C756Cc2",
    "0x07aE8551Be970cB1cCa11Dd7a11F47Ae82e70E67",
    2000000,
    800,
    "10000000000000"
  ],
  "numDeployments": 1,
  "solcInputHash": "52176bdd062b3053719867884494ff14",
  "bytecode": "0x61018060409080825234620002215760e08162001521803803809162000026828562000280565b83398101031262000221578051602080830151936001600160a01b038086169290838703620002215782860151958187168703620002215760049481620000716060869401620002b8565b60808201519060c060a08401519301519960e0526101009b8c526101209a8b5260c05260805261016097885260a05284519586809263070e40ef60e31b82525afa93841562000276575f9462000237575b5061014093845280875116918060e0516024865180968193632cf632d160e11b835260048301525afa9081156200022d575f91620001eb575b50600192501603620001db5751926112539485620002ce8639608051858181610116015281816104060152610582015260a0518581816101b7015281816103ae015281816106b8015281816109c5015261102a015260c0518581816101e3015281816106f801528181610a000152610cf6015260e051858181610177015281816103560152818161066e015281816109930152610ff9015251848181610241015281816104730152818161076a01528181610b0c015261106b0152518381816105c50152610c8a0152518281816104e1015261090801525181610fab0152f35b516308ca5c0760e31b8152600490fd5b905082813d831162000225575b62000204818362000280565b8101031262000221576200021a600192620002b8565b5f620000fb565b5f80fd5b503d620001f8565b84513d5f823e3d90fd5b9093508181813d83116200026e575b62000252818362000280565b8101031262000221576200026690620002b8565b925f620000c2565b503d62000246565b83513d5f823e3d90fd5b601f909101601f19168101906001600160401b03821190821017620002a457604052565b634e487b7160e01b5f52604160045260245ffd5b51906001600160a01b0382168203620002215756fe60806040818152600436101561001e575b5050361561001c575f80fd5b005b5f915f3560e01c90816303c0501914610cae575080631efd482a14610c4057806352c8c75c14610505578063546b6d2a146104975780635d4edca7146104295780635e743ef7146103d15780636c9075b71461037957806385e1f4d0146103215763e6eb8ade0361001057807ffffffffffffffffffffffffffffffffffffffffffffffffffffffffffffffffc36011261031d576100ba610d1a565b60243567ffffffffffffffff8111610319573660238201121561031957806004013590846100e783610dd3565b916100f486519384610d92565b83835260209336602482840101116103155780602486930183860137830101527f0000000000000000000000000000000000000000000000000000000000000000908261023d61014384610fa9565b9573ffffffffffffffffffffffffffffffffffffffff90885161016581610d76565b5f8152828a519261017584610d3d565b7f000000000000000000000000000000000000000000000000000000000000000084528a878501521696878b8401528b606084015286608084015260a08301527f000000000000000000000000000000000000000000000000000000000000000060c083015260e0820152817f00000000000000000000000000000000000000000000000000000000000000001661010082015288519788809481937fd52471c100000000000000000000000000000000000000000000000000000000835260048301610ea3565b03927f0000000000000000000000000000000000000000000000000000000000000000165af193841561030b5786946102d6575b506102ac9085807f9e6c52944e331ba6270e7fe4cea2a4086bae8f7a27e1cdba07f416806f5d0ac49697519586958652850152830190610e0d565b0390a17fb50bccea676fbc831e47d257acd0dbaa101ff4d469933d6d9e6ad85c2d4b63b98280a280f35b9093508281813d8311610304575b6102ee8183610d92565b810103126103005751926102ac610271565b5f80fd5b503d6102e4565b85513d88823e3d90fd5b8280fd5b8380fd5b5080fd5b503461031d57817ffffffffffffffffffffffffffffffffffffffffffffffffffffffffffffffffc36011261031d57602090517f00000000000000000000000000000000000000000000000000000000000000008152f35b503461031d57817ffffffffffffffffffffffffffffffffffffffffffffffffffffffffffffffffc36011261031d57602090517f00000000000000000000000000000000000000000000000000000000000000008152f35b503461031d57817ffffffffffffffffffffffffffffffffffffffffffffffffffffffffffffffffc36011261031d57602090517f00000000000000000000000000000000000000000000000000000000000000008152f35b503461031d57817ffffffffffffffffffffffffffffffffffffffffffffffffffffffffffffffffc36011261031d576020905173ffffffffffffffffffffffffffffffffffffffff7f0000000000000000000000000000000000000000000000000000000000000000168152f35b503461031d57817ffffffffffffffffffffffffffffffffffffffffffffffffffffffffffffffffc36011261031d576020905173ffffffffffffffffffffffffffffffffffffffff7f0000000000000000000000000000000000000000000000000000000000000000168152f35b5060807ffffffffffffffffffffffffffffffffffffffffffffffffffffffffffffffffc36011261030057610538610d1a565b906024359173ffffffffffffffffffffffffffffffffffffffff8316809303610300576044356064359073ffffffffffffffffffffffffffffffffffffffff8216809203610300577f00000000000000000000000000000000000000000000000000000000000000006105aa81610fa9565b73ffffffffffffffffffffffffffffffffffffffff948516947f0000000000000000000000000000000000000000000000000000000000000000168581036108b857803b15610300575f809160248951809481937f2e1a7d4d0000000000000000000000000000000000000000000000000000000083528960048401525af180156108ae57610863575b5061075191816106508561064a60209582610e69565b92610e69565b9188519061065d82610d76565b5f825289519361066c85610d3d565b7f0000000000000000000000000000000000000000000000000000000000000000855285850152878a85015286606085015289516106a981610d76565b8c8152608085015260a08401527f000000000000000000000000000000000000000000000000000000000000000060c084015260e083015273ffffffffffffffffffffffffffffffffffffffff7f000000000000000000000000000000000000000000000000000000000000000016610100830152875180809581947fd52471c100000000000000000000000000000000000000000000000000000000835260048301610ea3565b039173ffffffffffffffffffffffffffffffffffffffff7f0000000000000000000000000000000000000000000000000000000000000000165af19081156108595787916107ff575b50907fd7e09655439c3932e55857df3220186e5a7f0980825f20691c2b35d941dee75b946080949392965b815194855260208501528301526060820152a17fb50bccea676fbc831e47d257acd0dbaa101ff4d469933d6d9e6ad85c2d4b63b98280a280f35b93929190506020843d602011610851575b8161081d60209383610d92565b81010312610300579251919290917fd7e09655439c3932e55857df3220186e5a7f0980825f20691c2b35d941dee75b61079a565b3d9150610810565b85513d89823e3d90fd5b90975067ffffffffffffffff81116108815785525f96610751610634565b7f4e487b71000000000000000000000000000000000000000000000000000000005f52604160045260245ffd5b87513d5f823e3d90fd5b50610100602091610af3938851848101907f095ea7b300000000000000000000000000000000000000000000000000000000908183525f808c73ffffffffffffffffffffffffffffffffffffffff7f000000000000000000000000000000000000000000000000000000000000000016958660248601528c60448601526044855261094285610d5a565b828551925af1610950611102565b81610c13575b5080610c09575b15610bcf575b50508951908986830152878b8301528860608301526060825261098582610d5a565b8a519261099184610d3d565b7f0000000000000000000000000000000000000000000000000000000000000000845284878501525f8c85015260608401527f0000000000000000000000000000000000000000000000000000000000000000608084015273ffffffffffffffffffffffffffffffffffffffff7f00000000000000000000000000000000000000000000000000000000000000001660a084015260c08301525f60e08301528382015288518095819482937f24fd57fb000000000000000000000000000000000000000000000000000000008452876004850152805160248501528781015160448501528c810151606485015260608101516084850152608081015160a485015273ffffffffffffffffffffffffffffffffffffffff60a08201511660c485015273ffffffffffffffffffffffffffffffffffffffff60c08201511660e485015260e08101516101048501520151610120610124840152610144830190610e0d565b039173ffffffffffffffffffffffffffffffffffffffff7f0000000000000000000000000000000000000000000000000000000000000000165af1908115610bc5575f91610b6b575b50907fd7e09655439c3932e55857df3220186e5a7f0980825f20691c2b35d941dee75b946080949392966107c5565b93929190506020843d602011610bbd575b81610b8960209383610d92565b81010312610300579251919290917fd7e09655439c3932e55857df3220186e5a7f0980825f20691c2b35d941dee75b610b3c565b3d9150610b7c565b85513d5f823e3d90fd5b610bfc610c02928d5190898201528460248201525f604482015260448152610bf681610d5a565b8c611149565b8a611149565b5f80610963565b508a3b151561095d565b8051801592508215610c28575b50505f610956565b610c39925081018901908901611131565b5f80610c20565b5034610300575f7ffffffffffffffffffffffffffffffffffffffffffffffffffffffffffffffffc360112610300576020905173ffffffffffffffffffffffffffffffffffffffff7f0000000000000000000000000000000000000000000000000000000000000000168152f35b34610300575f7ffffffffffffffffffffffffffffffffffffffffffffffffffffffffffffffffc3601126103005760209073ffffffffffffffffffffffffffffffffffffffff7f0000000000000000000000000000000000000000000000000000000000000000168152f35b6004359073ffffffffffffffffffffffffffffffffffffffff8216820361030057565b610120810190811067ffffffffffffffff82111761088157604052565b6080810190811067ffffffffffffffff82111761088157604052565b6020810190811067ffffffffffffffff82111761088157604052565b90601f7fffffffffffffffffffffffffffffffffffffffffffffffffffffffffffffffe0910116810190811067ffffffffffffffff82111761088157604052565b67ffffffffffffffff811161088157601f017fffffffffffffffffffffffffffffffffffffffffffffffffffffffffffffffe01660200190565b91908251928382525f5b848110610e555750507fffffffffffffffffffffffffffffffffffffffffffffffffffffffffffffffe0601f845f6020809697860101520116010190565b602081830181015184830182015201610e17565b91908201809211610e7657565b7f4e487b71000000000000000000000000000000000000000000000000000000005f52601160045260245ffd5b6020808252825181830152808301516040830152604083015173ffffffffffffffffffffffffffffffffffffffff809116606084015260608401516080840152608084015191610f01610120938460a0870152610140860190610e0d565b9460a081015160c086015260c081015160e086015260e0810151957fffffffffffffffffffffffffffffffffffffffffffffffffffffffffffffffe0906101009382888303018589015288519182815281810182808560051b8401019b01945f925b858410610f7a575050505050505001511691015290565b9091929394959b8580610f988f936001948787830301895251610e0d565b9e0194019401929594939190610f63565b7f00000000000000000000000000000000000000000000000000000000000000003a116110d857604051907f716232740000000000000000000000000000000000000000000000000000000082527f000000000000000000000000000000000000000000000000000000000000000060048301523a602483015260448201527f0000000000000000000000000000000000000000000000000000000000000000606482015260208160848173ffffffffffffffffffffffffffffffffffffffff7f0000000000000000000000000000000000000000000000000000000000000000165afa9081156110cd575f9161109e575090565b90506020813d6020116110c5575b816110b960209383610d92565b81010312610300575190565b3d91506110ac565b6040513d5f823e3d90fd5b60046040517fb33009b4000000000000000000000000000000000000000000000000000000008152fd5b3d1561112c573d9061111382610dd3565b916111216040519384610d92565b82523d5f602084013e565b606090565b90816020910312610300575180151581036103005790565b73ffffffffffffffffffffffffffffffffffffffff166040516040810181811067ffffffffffffffff821117610881576111c4937f5361666545524332303a206c6f772d6c6576656c2063616c6c206661696c656460205f948594604052818152015260208151910182855af16111be611102565b916111f4565b80519081159182156111da575b50501561030057565b6111ed9250602080918301019101611131565b5f806111d1565b901561120e57815115611205575090565b3b156103005790565b50805190811561030057602001fdfea2646970667358221220deabf7aa25bbf70a797679695bc79e50bca51d1a116597e90cb7530b89f3744464736f6c63430008170033",
  "devdoc": {
    "custom:security-contact": "bugs@across.to",
    "details": "Public functions calling external contracts do not guard against reentrancy because they are expected to be called via delegatecall, which will execute this contract's logic within the context of the originating contract. For example, the HubPool will delegatecall these functions, therefore its only necessary that the HubPool's methods that call this contract's logic guard against reentrancy.",
    "kind": "dev",
    "methods": {
      "constructor": {
        "params": {
          "_bridgeHub": "The bridge hub contract address for the ZkStack network.",
          "_chainId": "The target ZkStack network's chain ID.",
          "_l1GasToL2GasPerPubDataLimit": "The exchange rate of l1 gas to l2 gas.",
          "_l1Weth": "WETH address on L1.",
          "_l2GasLimit": "The maximum amount of gas this contract is willing to pay to execute a transaction on L2.",
          "_l2RefundAddress": "address that recieves excess gas refunds on L2.",
          "_maxTxGasprice": "The maximum effective gas price any transaction sent to this adapter may have."
        }
      },
      "relayMessage(address,bytes)": {
        "details": "The HubPool must hold enough ETH to pay for the L2 txn.",
        "params": {
          "message": "Data to send to target.",
          "target": "Contract on L2 that will receive message."
        }
      },
      "relayTokens(address,address,uint256,address)": {
        "details": "The HubPool must hold enough ETH to pay for the L2 txn.",
        "params": {
          "amount": "Amount of L1 tokens to deposit and L2 tokens to receive.",
          "l1Token": "L1 token to deposit.",
          "l2Token": "L2 token to receive.",
          "to": "Bridge recipient."
        }
      }
    },
    "version": 1
  },
  "userdoc": {
    "kind": "user",
    "methods": {
      "constructor": {
        "notice": "Constructs new Adapter."
      },
      "relayMessage(address,bytes)": {
        "notice": "Send cross-chain message to target on ZkStack."
      },
      "relayTokens(address,address,uint256,address)": {
        "notice": "Bridge tokens to ZkStack."
      }
    },
    "notice": "Contract containing logic to send messages from L1 to ZkStack with ETH as the gas token.",
    "version": 1
  },
  "storageLayout": {
    "storage": [],
    "types": null
  }
}