{
  "address": "0x5e0B7e20a77BDf11812837D30F1326068Bcf24Cf",
  "abi": [
    {
      "inputs": [
        {
          "internalType": "uint256",
          "name": "_chainId",
          "type": "uint256"
        },
        {
          "internalType": "contract BridgeHubInterface",
          "name": "_bridgeHub",
          "type": "address"
        },
        {
          "internalType": "contract IERC20",
          "name": "_circleUSDC",
          "type": "address"
        },
        {
          "internalType": "address",
          "name": "_usdcSharedBridge",
          "type": "address"
        },
        {
          "internalType": "contract ITokenMessenger",
          "name": "_cctpTokenMessenger",
          "type": "address"
        },
        {
          "internalType": "uint32",
          "name": "_recipientCircleDomainId",
          "type": "uint32"
        },
        {
          "internalType": "contract WETH9Interface",
          "name": "_l1Weth",
          "type": "address"
        },
        {
          "internalType": "address",
          "name": "_l2RefundAddress",
          "type": "address"
        },
        {
          "internalType": "contract FunderInterface",
          "name": "_customGasTokenFunder",
          "type": "address"
        },
        {
          "internalType": "uint256",
          "name": "_l2GasLimit",
          "type": "uint256"
        },
        {
          "internalType": "uint256",
          "name": "_l1GasToL2GasPerPubDataLimit",
          "type": "uint256"
        },
        {
          "internalType": "uint256",
          "name": "_maxTxGasprice",
          "type": "uint256"
        }
      ],
      "stateMutability": "nonpayable",
      "type": "constructor"
    },
    {
      "inputs": [],
      "name": "ETHGasTokenNotAllowed",
      "type": "error"
    },
    {
      "inputs": [],
      "name": "InvalidBridgeConfig",
      "type": "error"
    },
    {
      "inputs": [],
      "name": "TransactionFeeTooHigh",
      "type": "error"
    },
    {
      "anonymous": false,
      "inputs": [
        {
          "indexed": false,
          "internalType": "address",
          "name": "target",
          "type": "address"
        },
        {
          "indexed": false,
          "internalType": "bytes",
          "name": "message",
          "type": "bytes"
        }
      ],
      "name": "MessageRelayed",
      "type": "event"
    },
    {
      "anonymous": false,
      "inputs": [
        {
          "indexed": false,
          "internalType": "address",
          "name": "l1Token",
          "type": "address"
        },
        {
          "indexed": false,
          "internalType": "address",
          "name": "l2Token",
          "type": "address"
        },
        {
          "indexed": false,
          "internalType": "uint256",
          "name": "amount",
          "type": "uint256"
        },
        {
          "indexed": false,
          "internalType": "address",
          "name": "to",
          "type": "address"
        }
      ],
      "name": "TokensRelayed",
      "type": "event"
    },
    {
      "inputs": [],
      "name": "BRIDGE_HUB",
      "outputs": [
        {
          "internalType": "contract BridgeHubInterface",
          "name": "",
          "type": "address"
        }
      ],
      "stateMutability": "view",
      "type": "function"
    },
    {
      "inputs": [],
      "name": "CHAIN_ID",
      "outputs": [
        {
          "internalType": "uint256",
          "name": "",
          "type": "uint256"
        }
      ],
      "stateMutability": "view",
      "type": "function"
    },
    {
      "inputs": [],
      "name": "CUSTOM_GAS_TOKEN",
      "outputs": [
        {
          "internalType": "address",
          "name": "",
          "type": "address"
        }
      ],
      "stateMutability": "view",
      "type": "function"
    },
    {
      "inputs": [],
      "name": "CUSTOM_GAS_TOKEN_FUNDER",
      "outputs": [
        {
          "internalType": "contract FunderInterface",
          "name": "",
          "type": "address"
        }
      ],
      "stateMutability": "view",
      "type": "function"
    },
    {
      "inputs": [],
      "name": "L1_GAS_TO_L2_GAS_PER_PUB_DATA_LIMIT",
      "outputs": [
        {
          "internalType": "uint256",
          "name": "",
          "type": "uint256"
        }
      ],
      "stateMutability": "view",
      "type": "function"
    },
    {
      "inputs": [],
      "name": "L1_WETH",
      "outputs": [
        {
          "internalType": "contract WETH9Interface",
          "name": "",
          "type": "address"
        }
      ],
      "stateMutability": "view",
      "type": "function"
    },
    {
      "inputs": [],
      "name": "L2_GAS_LIMIT",
      "outputs": [
        {
          "internalType": "uint256",
          "name": "",
          "type": "uint256"
        }
      ],
      "stateMutability": "view",
      "type": "function"
    },
    {
      "inputs": [],
      "name": "L2_REFUND_ADDRESS",
      "outputs": [
        {
          "internalType": "address",
          "name": "",
          "type": "address"
        }
      ],
      "stateMutability": "view",
      "type": "function"
    },
    {
      "inputs": [],
      "name": "USDC_SHARED_BRIDGE",
      "outputs": [
        {
          "internalType": "address",
          "name": "",
          "type": "address"
        }
      ],
      "stateMutability": "view",
      "type": "function"
    },
    {
      "inputs": [],
      "name": "cctpTokenMessenger",
      "outputs": [
        {
          "internalType": "contract ITokenMessenger",
          "name": "",
          "type": "address"
        }
      ],
      "stateMutability": "view",
      "type": "function"
    },
    {
      "inputs": [],
      "name": "cctpV2",
      "outputs": [
        {
          "internalType": "bool",
          "name": "",
          "type": "bool"
        }
      ],
      "stateMutability": "view",
      "type": "function"
    },
    {
      "inputs": [],
      "name": "recipientCircleDomainId",
      "outputs": [
        {
          "internalType": "uint32",
          "name": "",
          "type": "uint32"
        }
      ],
      "stateMutability": "view",
      "type": "function"
    },
    {
      "inputs": [
        {
          "internalType": "address",
          "name": "target",
          "type": "address"
        },
        {
          "internalType": "bytes",
          "name": "message",
          "type": "bytes"
        }
      ],
      "name": "relayMessage",
      "outputs": [],
      "stateMutability": "payable",
      "type": "function"
    },
    {
      "inputs": [
        {
          "internalType": "address",
          "name": "l1Token",
          "type": "address"
        },
        {
          "internalType": "address",
          "name": "l2Token",
          "type": "address"
        },
        {
          "internalType": "uint256",
          "name": "amount",
          "type": "uint256"
        },
        {
          "internalType": "address",
          "name": "to",
          "type": "address"
        }
      ],
      "name": "relayTokens",
      "outputs": [],
      "stateMutability": "payable",
      "type": "function"
    },
    {
      "inputs": [],
      "name": "usdcToken",
      "outputs": [
        {
          "internalType": "contract IERC20",
          "name": "",
          "type": "address"
        }
      ],
      "stateMutability": "view",
      "type": "function"
    }
  ],
  "transactionHash": "0x5d70f95e3722c0e0e2b5038289b89736065709f717a9de83ada2865ba3960d63",
  "args": [
    "232",
    "0x303a465B659cBB0ab36eE643eA362c509EEb5213",
    "0xA0b86991c6218b36c1d19D4a2e9Eb0cE3606eB48",
    "0xf553E6D903AA43420ED7e3bc2313bE9286A8F987",
    "0x0000000000000000000000000000000000000000",
    4294967295,
    "0xC02aaA39b223FE8D0A0e5C4F27eAD9083C756Cc2",
    "0x07aE8551Be970cB1cCa11Dd7a11F47Ae82e70E67",
    "0x0d57392895Db5aF3280e9223323e20F3951E81B1",
    2000000,
    800,
    "10000000000000"
  ],
  "numDeployments": 6,
  "solcInputHash": "ff32fc5c5317174be2846ed69e6a88d8",
  "bytecode": "0x61024060405234620003d2576101806200218d803803809162000025826102406200047a565b6102403912620003d25761024051610260516001600160a01b0381168103620003d25761028051916001600160a01b0383168303620003d2576200006b6102a06200049e565b6102c051909390916001600160a01b0383168303620003d2576102e0519363ffffffff85168503620003d257610300516001600160a01b0381168103620003d257620000b96103206200049e565b61034051916001600160a01b0383168303620003d25761036051610380516103a05160a089905260c08a905260809a909a526040805163011a412160e61b6020820152600481529197929692919081018082116001600160401b03909111176200045e576040808201905280515f918291906020016001600160a01b038d165afa3d1562000472573d6001600160401b0381116200045e57604051906200016b601f8201601f1916602001836200047a565b81523d5f602083013e5b8162000451575b8162000418575b5060e05261016052610180526101a052610140526102005261010052610220938452610120526001600160a01b0316620003ea575b506101c091825260018060a01b03610180511690602061016051602460405180958193632cf632d160e11b835260048301525afa918215620003df575f9262000397575b506101e0828152916001600160a01b0316600114620003855760405191611cd99384620004b4853960805184818161058e015281816115f301526116d0015260a0518481816108d40152610cee015260c05184818161047e01528181611383015261180a015260e05184818161052f015261151a015261010051848181610152015281816106ad0152610d3f015261012051848181610284015281816105e701528181610eee015281816111140152818161129c01526118c70152610140518481816102af0152818161094001528181610f150152818161113f01526112c3015261016051848181610245015281816104d701528181610ebd015281816110c80152818161126b01526118960152610180518481816101930152818161071a01528181610d6c01526118f401526101a0518481816108660152610ddb015251838181610654015261122f0152518281816102020152818161078801528181610e670152818161105c01526119830152610200518281816104100152611928015251816118330152f35b60405163958e6ea160e01b8152600490fd5b9091506020813d602011620003d6575b81620003b6602093836200047a565b81010312620003d257620003ca906200049e565b905f620001fc565b5f80fd5b3d9150620003a7565b6040513d5f823e3d90fd5b6001600160a01b03838116159116151462000406575f620001b8565b604051635110d79160e01b8152600490fd5b90506020815191015190602081106200043f575b506001600160a01b031615155f62000183565b5f199060200360031b1b165f6200042c565b805160201491506200017c565b634e487b7160e01b5f52604160045260245ffd5b606062000175565b601f909101601f19168101906001600160401b038211908210176200045e57604052565b51906001600160a01b0382168203620003d25756fe60806040908082526004361015610014575f80fd5b5f3560e01c90816303c05019146108f85750806311eac8551461088a5780631efd482a1461081c57806352c8c75c146107ac57806358f76b651461073e5780635d4edca7146106d05780635e743ef71461067857806368c551ad1461060a5780636c9075b7146105b25780636e40098314610554578063775c0d03146104fa57806385e1f4d0146104a25780639748cf7c14610434578063e58921a2146103c65763e6eb8ade146100c3575f80fd5b807ffffffffffffffffffffffffffffffffffffffffffffffffffffffffffffffffc36011261037a576100f4610964565b6024359067ffffffffffffffff821161037a573660238301121561037a5781600401359261012184610a5e565b9361012e82519586610a1d565b808552602093366024838301011161037a57815f92602487930183890137860101527f00000000000000000000000000000000000000000000000000000000000000009161017b83611831565b73ffffffffffffffffffffffffffffffffffffffff807f0000000000000000000000000000000000000000000000000000000000000000169284517f387207780000000000000000000000000000000000000000000000000000000081528781600481885afa9081156103bc57925f9592610227868b9794610309978a9161038f575b50847f000000000000000000000000000000000000000000000000000000000000000016611a30565b81885191610234836109e5565b88835289519461024386610987565b7f0000000000000000000000000000000000000000000000000000000000000000865288860152169889898501528760608501528b608085015260a08401527f000000000000000000000000000000000000000000000000000000000000000060c084015260e08301527f00000000000000000000000000000000000000000000000000000000000000001661010082015285519485809481937fd52471c100000000000000000000000000000000000000000000000000000000835260048301610be3565b03925af1801561038557610357575b507f9e6c52944e331ba6270e7fe4cea2a4086bae8f7a27e1cdba07f416806f5d0ac493818061035293519586958652850152830190610ac4565b0390a1005b8390813d831161037e575b61036c8183610a1d565b8101031261037a575f610318565b5f80fd5b503d610362565b82513d5f823e3d90fd5b6103af9150893d8b116103b5575b6103a78183610a1d565b810190610a98565b5f6101fe565b503d61039d565b86513d5f823e3d90fd5b503461037a575f7ffffffffffffffffffffffffffffffffffffffffffffffffffffffffffffffffc36011261037a576020905173ffffffffffffffffffffffffffffffffffffffff7f0000000000000000000000000000000000000000000000000000000000000000168152f35b503461037a575f7ffffffffffffffffffffffffffffffffffffffffffffffffffffffffffffffffc36011261037a576020905173ffffffffffffffffffffffffffffffffffffffff7f0000000000000000000000000000000000000000000000000000000000000000168152f35b503461037a575f7ffffffffffffffffffffffffffffffffffffffffffffffffffffffffffffffffc36011261037a57602090517f00000000000000000000000000000000000000000000000000000000000000008152f35b503461037a575f7ffffffffffffffffffffffffffffffffffffffffffffffffffffffffffffffffc36011261037a57602090517f000000000000000000000000000000000000000000000000000000000000000015158152f35b503461037a575f7ffffffffffffffffffffffffffffffffffffffffffffffffffffffffffffffffc36011261037a576020905163ffffffff7f0000000000000000000000000000000000000000000000000000000000000000168152f35b503461037a575f7ffffffffffffffffffffffffffffffffffffffffffffffffffffffffffffffffc36011261037a57602090517f00000000000000000000000000000000000000000000000000000000000000008152f35b503461037a575f7ffffffffffffffffffffffffffffffffffffffffffffffffffffffffffffffffc36011261037a576020905173ffffffffffffffffffffffffffffffffffffffff7f0000000000000000000000000000000000000000000000000000000000000000168152f35b503461037a575f7ffffffffffffffffffffffffffffffffffffffffffffffffffffffffffffffffc36011261037a57602090517f00000000000000000000000000000000000000000000000000000000000000008152f35b503461037a575f7ffffffffffffffffffffffffffffffffffffffffffffffffffffffffffffffffc36011261037a576020905173ffffffffffffffffffffffffffffffffffffffff7f0000000000000000000000000000000000000000000000000000000000000000168152f35b503461037a575f7ffffffffffffffffffffffffffffffffffffffffffffffffffffffffffffffffc36011261037a576020905173ffffffffffffffffffffffffffffffffffffffff7f0000000000000000000000000000000000000000000000000000000000000000168152f35b60807ffffffffffffffffffffffffffffffffffffffffffffffffffffffffffffffffc36011261037a576107de610964565b6024359073ffffffffffffffffffffffffffffffffffffffff90818316830361037a57606435918216820361037a5761081a9260443591610ce9565b005b503461037a575f7ffffffffffffffffffffffffffffffffffffffffffffffffffffffffffffffffc36011261037a576020905173ffffffffffffffffffffffffffffffffffffffff7f0000000000000000000000000000000000000000000000000000000000000000168152f35b503461037a575f7ffffffffffffffffffffffffffffffffffffffffffffffffffffffffffffffffc36011261037a576020905173ffffffffffffffffffffffffffffffffffffffff7f0000000000000000000000000000000000000000000000000000000000000000168152f35b3461037a575f7ffffffffffffffffffffffffffffffffffffffffffffffffffffffffffffffffc36011261037a5760209073ffffffffffffffffffffffffffffffffffffffff7f0000000000000000000000000000000000000000000000000000000000000000168152f35b6004359073ffffffffffffffffffffffffffffffffffffffff8216820361037a57565b610120810190811067ffffffffffffffff8211176109a457604052565b7f4e487b71000000000000000000000000000000000000000000000000000000005f52604160045260245ffd5b67ffffffffffffffff81116109a457604052565b6020810190811067ffffffffffffffff8211176109a457604052565b6080810190811067ffffffffffffffff8211176109a457604052565b90601f7fffffffffffffffffffffffffffffffffffffffffffffffffffffffffffffffe0910116810190811067ffffffffffffffff8211176109a457604052565b67ffffffffffffffff81116109a457601f017fffffffffffffffffffffffffffffffffffffffffffffffffffffffffffffffe01660200190565b9081602091031261037a575173ffffffffffffffffffffffffffffffffffffffff8116810361037a5790565b91908251928382525f5b848110610b0c5750507fffffffffffffffffffffffffffffffffffffffffffffffffffffffffffffffe0601f845f6020809697860101520116010190565b602081830181015184830182015201610ace565b610140610ba6926020835280516020840152602081015160408401526040810151606084015260608101516080840152608081015160a084015260a081015173ffffffffffffffffffffffffffffffffffffffff80911660c085015260c08201511660e084015260e0810151906101009182850152015191610120808201520190610ac4565b90565b91908201809211610bb657565b7f4e487b71000000000000000000000000000000000000000000000000000000005f52601160045260245ffd5b6020808252825181830152808301516040830152604083015173ffffffffffffffffffffffffffffffffffffffff809116606084015260608401516080840152608084015191610c41610120938460a0870152610140860190610ac4565b9460a081015160c086015260c081015160e086015260e0810151957fffffffffffffffffffffffffffffffffffffffffffffffffffffffffffffffe0906101009382888303018589015288519182815281810182808560051b8401019b01945f925b858410610cba575050505050505001511691015290565b9091929394959b8580610cd88f936001948787830301895251610ac4565b9e0194019401929594939190610ca3565b9091927f000000000000000000000000000000000000000000000000000000000000000073ffffffffffffffffffffffffffffffffffffffff90818116918085169280841492838094611806575b6113745750507f000000000000000000000000000000000000000000000000000000000000000092610d6884611831565b90827f000000000000000000000000000000000000000000000000000000000000000016906040958651947f387207780000000000000000000000000000000000000000000000000000000086525f95602097600494898387818a5afa92831561136a578f90918b925f9561134b575b507f000000000000000000000000000000000000000000000000000000000000000086169381850361104d5750505050803b1561037a575f80918f6024908d5194859384927f2e1a7d4d0000000000000000000000000000000000000000000000000000000084528b8401525af180156110435791610f7f98979593918a979593611030575b50610e8c8682847f000000000000000000000000000000000000000000000000000000000000000016611a30565b8a51926001888501525f8c850152828d16606085015260608452610eaf84610a01565b8b5196610ebb88610987565b7f0000000000000000000000000000000000000000000000000000000000000000885288880152888c88015260608701527f00000000000000000000000000000000000000000000000000000000000000006080870152817f00000000000000000000000000000000000000000000000000000000000000001660a08701521660c08501528c60e08501526101008401528b88518097819582947f24fd57fb0000000000000000000000000000000000000000000000000000000084528301610b20565b03925af19081156110255750610ff8575b5050907fd7e09655439c3932e55857df3220186e5a7f0980825f20691c2b35d941dee75b94610ff3925b5173ffffffffffffffffffffffffffffffffffffffff948516815294841660208601526040850152909116606083015281906080820190565b0390a1565b819392933d831161101e575b61100e8183610a1d565b8101031261037a57905f80610f90565b503d611004565b8451903d90823e3d90fd5b61103b9198506109d1565b5f965f610e5e565b8a513d5f823e3d90fd5b919492999a50925084979695977f000000000000000000000000000000000000000000000000000000000000000016908184145f1461120c575050976110a583926111989a61109f6110aa9685610ba9565b91611a30565b610ba9565b938851906110b7826109e5565b5f82528951956110c687610987565b7f0000000000000000000000000000000000000000000000000000000000000000875287870152828b168a8701528d60608701528951611105816109e5565b5f8152608087015260a08601527f000000000000000000000000000000000000000000000000000000000000000060c086015260e08501527f0000000000000000000000000000000000000000000000000000000000000000166101008401525f87518096819582947fd52471c10000000000000000000000000000000000000000000000000000000084528301610be3565b03925af18015611202576111d5575b5050907fd7e09655439c3932e55857df3220186e5a7f0980825f20691c2b35d941dee75b94610ff392610fba565b819392933d83116111fb575b6111eb8183610a1d565b8101031261037a57905f806111a7565b503d6111e1565b83513d5f823e3d90fd5b9199979493911561132d5790611229886111989b61125c94611a30565b611255817f00000000000000000000000000000000000000000000000000000000000000008095611a30565b8d8d611b4f565b928a519661126988610987565b7f00000000000000000000000000000000000000000000000000000000000000008852888801525f8b88015260608701527f00000000000000000000000000000000000000000000000000000000000000006080870152817f00000000000000000000000000000000000000000000000000000000000000001660a08701521660c08501525f60e08501526101008401525f87518096819582947f24fd57fb0000000000000000000000000000000000000000000000000000000084528301610b20565b90611255818b80956113468c6111989f61125c98611a30565b611a30565b611363919550833d85116103b5576103a78183610a1d565b935f610dd8565b8b513d5f823e3d90fd5b919250925081849897941692827f000000000000000000000000000000000000000000000000000000000000000016906040948551907fdd62ed3e0000000000000000000000000000000000000000000000000000000082526004933085840152602495818785015260209060449482816044818a5afa90811561136a578b8d86938c935f916117cb575b506114949261141661149997959361146893610ba9565b90517f095ea7b3000000000000000000000000000000000000000000000000000000008982015273ffffffffffffffffffffffffffffffffffffffff9096169286019283526020830152849160400190565b037fffffffffffffffffffffffffffffffffffffffffffffffffffffffffffffffe08101845283610a1d565b611bcf565b88517fcb75c11c00000000000000000000000000000000000000000000000000000000815281818881865afa908115611043579082915f91611793575b50888b51809b81937fa56ec6320000000000000000000000000000000000000000000000000000000083528a8c840152165afa978815611789575f9861175a575b507f00000000000000000000000000000000000000000000000000000000000000008a805b6115ab575050975173ffffffffffffffffffffffffffffffffffffffff9a8b1681529a8a1660208c0152505050506040870194909452505050509092166060830152907fd7e09655439c3932e55857df3220186e5a7f0980825f20691c2b35d941dee75b908060808101610ff3565b8981111561175457895b821561169f57843b1561037a578b517f8e0250ee000000000000000000000000000000000000000000000000000000008152818a82015263ffffffff7f0000000000000000000000000000000000000000000000000000000000000000168b82015286888201528860648201525f60848201525f60a48201526107d060c48201525f8160e481838a5af1801561169557611686575b505b810390811161165b578061153c565b886011897f4e487b71000000000000000000000000000000000000000000000000000000005f52525ffd5b61168f906109d1565b5f61164a565b8d513d5f823e3d90fd5b8b517f6fd3504e000000000000000000000000000000000000000000000000000000008152818a82015263ffffffff7f0000000000000000000000000000000000000000000000000000000000000000168b820152868882015288606482015284816084815f8a5af1801561169557611719575b5061164c565b8481813d831161174d575b61172e8183610a1d565b8101031261037a575167ffffffffffffffff81160361037a575f611713565b503d611724565b806115b5565b9080985081813d8311611782575b6117728183610a1d565b8101031261037a5751965f611517565b503d611768565b89513d5f823e3d90fd5b82819392503d83116117c4575b6117aa8183610a1d565b8101031261037a5751888116810361037a5781905f6114d6565b503d6117a0565b9450505050508281813d83116117ff575b6117e68183610a1d565b8101031261037a5751839089908c908e906114946113ff565b503d6117dc565b50827f0000000000000000000000000000000000000000000000000000000000000000161515610d37565b7f00000000000000000000000000000000000000000000000000000000000000003a11611a065773ffffffffffffffffffffffffffffffffffffffff604051917f716232740000000000000000000000000000000000000000000000000000000083527f000000000000000000000000000000000000000000000000000000000000000060048401523a602484015260448301527f00000000000000000000000000000000000000000000000000000000000000006064830152602082608481847f0000000000000000000000000000000000000000000000000000000000000000165afa9182156119c7575f926119d2575b50807f00000000000000000000000000000000000000000000000000000000000000001690813b1561037a575f916044839260405194859384927ff3fef3a30000000000000000000000000000000000000000000000000000000084527f00000000000000000000000000000000000000000000000000000000000000001660048401528760248401525af180156119c7576119be575090565b610ba6906109d1565b6040513d5f823e3d90fd5b9091506020813d6020116119fe575b816119ee60209383610a1d565b8101031261037a5751905f611924565b3d91506119e1565b60046040517fb33009b4000000000000000000000000000000000000000000000000000000008152fd5b6040517f095ea7b3000000000000000000000000000000000000000000000000000000006020820181815273ffffffffffffffffffffffffffffffffffffffff85166024840152604480840196909652948252909290611a91606485610a1d565b73ffffffffffffffffffffffffffffffffffffffff945f808786169287519082855af190611abd611b88565b82611b1d575b5081611b12575b5015611ad8575b5050505050565b611b0894611494926040519260208401521660248201525f604482015260448152611b0281610a01565b82611bcf565b5f80808080611ad1565b90503b15155f611aca565b80519192508115918215611b35575b5050905f611ac3565b611b489250602080918301019101611bb7565b5f80611b2c565b6040519273ffffffffffffffffffffffffffffffffffffffff8093166020850152604084015216606082015260608152610ba681610a01565b3d15611bb2573d90611b9982610a5e565b91611ba76040519384610a1d565b82523d5f602084013e565b606090565b9081602091031261037a5751801515810361037a5790565b73ffffffffffffffffffffffffffffffffffffffff166040516040810181811067ffffffffffffffff8211176109a457611c4a937f5361666545524332303a206c6f772d6c6576656c2063616c6c206661696c656460205f948594604052818152015260208151910182855af1611c44611b88565b91611c7a565b8051908115918215611c60575b50501561037a57565b611c739250602080918301019101611bb7565b5f80611c57565b9015611c9457815115611c8b575090565b3b1561037a5790565b50805190811561037a57602001fdfea2646970667358221220fd560efbb17c1051604da779759b8f618c776822beca236d3f736b41aebf8b6764736f6c63430008170033",
  "devdoc": {
    "custom:security-contact": "bugs@across.to",
    "details": "Public functions calling external contracts do not guard against reentrancy because they are expected to be called via delegatecall, which will execute this contract's logic within the context of the originating contract. For example, the HubPool will delegatecall these functions, therefore its only necessary that the HubPool's methods that call this contract's logic guard against reentrancy.",
    "kind": "dev",
    "methods": {
      "constructor": {
        "params": {
          "_bridgeHub": "The bridge hub contract address for the ZkStack network.",
          "_cctpTokenMessenger": "address of the CCTP token messenger contract for the configured network.",
          "_chainId": "The target ZkStack network's chain ID.",
          "_circleUSDC": "Circle USDC address on L1. If not set to address(0), then either the USDCSharedBridge or CCTP token messenger must be set and will be used to bridge this token.",
          "_customGasTokenFunder": "Contract on L1 which funds bridge fees with amounts in the custom gas token.",
          "_l1GasToL2GasPerPubDataLimit": "The exchange rate of l1 gas to l2 gas.",
          "_l1Weth": "WETH address on L1.",
          "_l2GasLimit": "The maximum amount of gas this contract is willing to pay to execute a transaction on L2.",
          "_l2RefundAddress": "address that recieves excess gas refunds on L2.",
          "_maxTxGasprice": "The maximum effective gas price any transaction sent to this adapter may have.",
          "_recipientCircleDomainId": "Circle domain ID for the destination network.",
          "_usdcSharedBridge": "Address of the second bridge contract for USDC corresponding to the configured ZkStack network."
        }
      },
      "relayMessage(address,bytes)": {
        "details": "The CUSTOM_GAS_TOKEN_FUNDER must hold enough of the gas token to pay for the L2 txn.",
        "params": {
          "message": "Data to send to target.",
          "target": "Contract on L2 that will receive message."
        }
      },
      "relayTokens(address,address,uint256,address)": {
        "details": "The CUSTOM_GAS_TOKEN_FUNDER must hold enough of the gas token to pay for the L2 txn.",
        "params": {
          "amount": "Amount of L1 tokens to deposit and L2 tokens to receive.",
          "l1Token": "L1 token to deposit.",
          "l2Token": "L2 token to receive.",
          "to": "Bridge recipient."
        }
      }
    },
    "version": 1
  },
  "userdoc": {
    "kind": "user",
    "methods": {
      "constructor": {
        "notice": "Constructs new Adapter.Circle bridged & native USDC are optionally supported via configuration, but are mutually exclusive."
      },
      "relayMessage(address,bytes)": {
        "notice": "Send cross-chain message to target on ZkStack."
      },
      "relayTokens(address,address,uint256,address)": {
        "notice": "Bridge tokens to ZkStack."
      }
    },
    "notice": "Contract containing logic to send messages from L1 to ZkStack with a custom gas token.",
    "version": 1
  },
  "storageLayout": {
    "storage": [],
    "types": null
  }
}