{
  "address": "0x9A177AB7a1021DEF838F018bd09dbad7aDDb728E",
  "abi": [
    {
      "inputs": [
        {
          "internalType": "uint256",
          "name": "_chainId",
          "type": "uint256"
        },
        {
          "internalType": "contract BridgeHubInterface",
          "name": "_bridgeHub",
          "type": "address"
        },
        {
          "internalType": "contract IERC20",
          "name": "_circleUSDC",
          "type": "address"
        },
        {
          "internalType": "address",
          "name": "_usdcSharedBridge",
          "type": "address"
        },
        {
          "internalType": "contract ITokenMessenger",
          "name": "_cctpTokenMessenger",
          "type": "address"
        },
        {
          "internalType": "uint32",
          "name": "_recipientCircleDomainId",
          "type": "uint32"
        },
        {
          "internalType": "contract WETH9Interface",
          "name": "_l1Weth",
          "type": "address"
        },
        {
          "internalType": "address",
          "name": "_l2RefundAddress",
          "type": "address"
        },
        {
          "internalType": "contract FunderInterface",
          "name": "_customGasTokenFunder",
          "type": "address"
        },
        {
          "internalType": "uint256",
          "name": "_l2GasLimit",
          "type": "uint256"
        },
        {
          "internalType": "uint256",
          "name": "_l1GasToL2GasPerPubDataLimit",
          "type": "uint256"
        },
        {
          "internalType": "uint256",
          "name": "_maxTxGasprice",
          "type": "uint256"
        }
      ],
      "stateMutability": "nonpayable",
      "type": "constructor"
    },
    {
      "inputs": [],
      "name": "ETHGasTokenNotAllowed",
      "type": "error"
    },
    {
      "inputs": [],
      "name": "InvalidBridgeConfig",
      "type": "error"
    },
    {
      "inputs": [],
      "name": "TransactionFeeTooHigh",
      "type": "error"
    },
    {
      "anonymous": false,
      "inputs": [
        {
          "indexed": false,
          "internalType": "address",
          "name": "target",
          "type": "address"
        },
        {
          "indexed": false,
          "internalType": "bytes",
          "name": "message",
          "type": "bytes"
        }
      ],
      "name": "MessageRelayed",
      "type": "event"
    },
    {
      "anonymous": false,
      "inputs": [
        {
          "indexed": false,
          "internalType": "address",
          "name": "l1Token",
          "type": "address"
        },
        {
          "indexed": false,
          "internalType": "address",
          "name": "l2Token",
          "type": "address"
        },
        {
          "indexed": false,
          "internalType": "uint256",
          "name": "amount",
          "type": "uint256"
        },
        {
          "indexed": false,
          "internalType": "address",
          "name": "to",
          "type": "address"
        }
      ],
      "name": "TokensRelayed",
      "type": "event"
    },
    {
      "anonymous": false,
      "inputs": [
        {
          "indexed": true,
          "internalType": "bytes32",
          "name": "canonicalTxHash",
          "type": "bytes32"
        }
      ],
      "name": "ZkStackMessageRelayed",
      "type": "event"
    },
    {
      "inputs": [],
      "name": "BRIDGE_HUB",
      "outputs": [
        {
          "internalType": "contract BridgeHubInterface",
          "name": "",
          "type": "address"
        }
      ],
      "stateMutability": "view",
      "type": "function"
    },
    {
      "inputs": [],
      "name": "CHAIN_ID",
      "outputs": [
        {
          "internalType": "uint256",
          "name": "",
          "type": "uint256"
        }
      ],
      "stateMutability": "view",
      "type": "function"
    },
    {
      "inputs": [],
      "name": "CUSTOM_GAS_TOKEN",
      "outputs": [
        {
          "internalType": "address",
          "name": "",
          "type": "address"
        }
      ],
      "stateMutability": "view",
      "type": "function"
    },
    {
      "inputs": [],
      "name": "CUSTOM_GAS_TOKEN_FUNDER",
      "outputs": [
        {
          "internalType": "contract FunderInterface",
          "name": "",
          "type": "address"
        }
      ],
      "stateMutability": "view",
      "type": "function"
    },
    {
      "inputs": [],
      "name": "L1_GAS_TO_L2_GAS_PER_PUB_DATA_LIMIT",
      "outputs": [
        {
          "internalType": "uint256",
          "name": "",
          "type": "uint256"
        }
      ],
      "stateMutability": "view",
      "type": "function"
    },
    {
      "inputs": [],
      "name": "L1_WETH",
      "outputs": [
        {
          "internalType": "contract WETH9Interface",
          "name": "",
          "type": "address"
        }
      ],
      "stateMutability": "view",
      "type": "function"
    },
    {
      "inputs": [],
      "name": "L2_GAS_LIMIT",
      "outputs": [
        {
          "internalType": "uint256",
          "name": "",
          "type": "uint256"
        }
      ],
      "stateMutability": "view",
      "type": "function"
    },
    {
      "inputs": [],
      "name": "L2_REFUND_ADDRESS",
      "outputs": [
        {
          "internalType": "address",
          "name": "",
          "type": "address"
        }
      ],
      "stateMutability": "view",
      "type": "function"
    },
    {
      "inputs": [],
      "name": "USDC_SHARED_BRIDGE",
      "outputs": [
        {
          "internalType": "address",
          "name": "",
          "type": "address"
        }
      ],
      "stateMutability": "view",
      "type": "function"
    },
    {
      "inputs": [],
      "name": "cctpTokenMessenger",
      "outputs": [
        {
          "internalType": "contract ITokenMessenger",
          "name": "",
          "type": "address"
        }
      ],
      "stateMutability": "view",
      "type": "function"
    },
    {
      "inputs": [],
      "name": "cctpV2",
      "outputs": [
        {
          "internalType": "bool",
          "name": "",
          "type": "bool"
        }
      ],
      "stateMutability": "view",
      "type": "function"
    },
    {
      "inputs": [],
      "name": "recipientCircleDomainId",
      "outputs": [
        {
          "internalType": "uint32",
          "name": "",
          "type": "uint32"
        }
      ],
      "stateMutability": "view",
      "type": "function"
    },
    {
      "inputs": [
        {
          "internalType": "address",
          "name": "target",
          "type": "address"
        },
        {
          "internalType": "bytes",
          "name": "message",
          "type": "bytes"
        }
      ],
      "name": "relayMessage",
      "outputs": [],
      "stateMutability": "payable",
      "type": "function"
    },
    {
      "inputs": [
        {
          "internalType": "address",
          "name": "l1Token",
          "type": "address"
        },
        {
          "internalType": "address",
          "name": "l2Token",
          "type": "address"
        },
        {
          "internalType": "uint256",
          "name": "amount",
          "type": "uint256"
        },
        {
          "internalType": "address",
          "name": "to",
          "type": "address"
        }
      ],
      "name": "relayTokens",
      "outputs": [],
      "stateMutability": "payable",
      "type": "function"
    },
    {
      "inputs": [],
      "name": "usdcToken",
      "outputs": [
        {
          "internalType": "contract IERC20",
          "name": "",
          "type": "address"
        }
      ],
      "stateMutability": "view",
      "type": "function"
    }
  ],
  "transactionHash": "0x3662a85dd2590a525c19513431ab80dcb574097ee1890d235fb5b53d14bc7b08",
  "args": [
    "232",
    "0x303a465B659cBB0ab36eE643eA362c509EEb5213",
    "0xA0b86991c6218b36c1d19D4a2e9Eb0cE3606eB48",
    "0xf553E6D903AA43420ED7e3bc2313bE9286A8F987",
    "0x0000000000000000000000000000000000000000",
    4294967295,
    "0xC02aaA39b223FE8D0A0e5C4F27eAD9083C756Cc2",
    "0x07aE8551Be970cB1cCa11Dd7a11F47Ae82e70E67",
    "0x0d57392895Db5aF3280e9223323e20F3951E81B1",
    2000000,
    800,
    "10000000000000"
  ],
  "numDeployments": 4,
  "solcInputHash": "64d3c2f1a3bae5629611989317766d7e",
  "bytecode": "0x6102406040523462000457576101806200271f80380380916200002582610240620004ff565b6102403912620004575761024051610260516001600160a01b0381168103620004575761028051916001600160a01b038316830362000457576200006b6102a062000523565b6102c051909390916001600160a01b038316830362000457576102e0519363ffffffff851685036200045757610300516001600160a01b03811681036200045757620000b961032062000523565b61034051916001600160a01b0383168303620004575761036051610380516103a05160a089905260c08a905260809a909a526040805163011a412160e61b6020820152600481529197929692919081018082116001600160401b0390911117620004e3576040808201905280515f918291906020016001600160a01b038d165afa3d15620004f7573d6001600160401b038111620004e357604051906200016b601f8201601f191660200183620004ff565b81523d5f602083013e5b81620004d6575b816200049d575b5060e05261016052610180526101a052610140526102005261010052610220938452610120526001600160a01b03166200046f575b506101c091825260018060a01b03610180511690602061016051602460405180958193632cf632d160e11b835260048301525afa91821562000464575f926200041c575b506101e0828152916001600160a01b03166001146200040a57604051916121e693846200053985396080518481816105b80152818161136b01526114c8015260a051848181610f7e0152818161107f0152818161116b0152818161124a015281816113c501528181611522015261195c015260c0518481816104a801528181610fbf0152818161103d015281816110f1015281816111d2015281816113120152818161141b0152611565015260e05184818161055901526112d7015261010051848181610152015281816106d70152818161084f01528181610ab601528181610dc801526117830152610120518481816102850152818161061101528181610adc01528181610dee015281816117a90152611dda0152610140518481816102b001528181610b0301528181610e2e015281816117d001526119c80152610160518481816102450152818161050101528181610a8901528181610d67015281816117560152611da901526101805184818161019301528181610744015281816108b601528181610b8b01528181610ea10152611e0701526101a0518481816108ff01528181610955015281816109c701526118ee01525183818161067e015261169f015251828181610200015281816107b201528181610a1901528181610ccb015281816116da015281816118600152611e9601526102005182818161043a0152611e3b01525181611d460152f35b60405163958e6ea160e01b8152600490fd5b9091506020813d6020116200045b575b816200043b60209383620004ff565b8101031262000457576200044f9062000523565b905f620001fc565b5f80fd5b3d91506200042c565b6040513d5f823e3d90fd5b6001600160a01b0383811615911615146200048b575f620001b8565b604051635110d79160e01b8152600490fd5b9050602081519101519060208110620004c4575b506001600160a01b031615155f62000183565b5f199060200360031b1b165f620004b1565b805160201491506200017c565b634e487b7160e01b5f52604160045260245ffd5b606062000175565b601f909101601f19168101906001600160401b03821190821017620004e357604052565b51906001600160a01b0382168203620004575756fe6080806040526004361015610012575f80fd5b5f3560e01c90816303c05019146119805750806311eac855146119125780631efd482a146118a457806352c8c75c146107d657806358f76b65146107685780635d4edca7146106fa5780635e743ef7146106a257806368c551ad146106345780636c9075b7146105dc5780636e4009831461057e578063775c0d031461052457806385e1f4d0146104cc5780639748cf7c1461045e578063e58921a2146103f05763e6eb8ade146100c1575f80fd5b60407ffffffffffffffffffffffffffffffffffffffffffffffffffffffffffffffffc3601126103ad576100f36119ec565b6024359067ffffffffffffffff82116103ad57366023830112156103ad5781600401359161012083611ae6565b9261012e6040519485611aa5565b80845260209136602483830101116103ad57815f92602485930183880137850101527f000000000000000000000000000000000000000000000000000000000000000061017a81611d44565b73ffffffffffffffffffffffffffffffffffffffff90817f000000000000000000000000000000000000000000000000000000000000000016604051917f387207780000000000000000000000000000000000000000000000000000000083528583600481855afa9384156103b8575f9761022583899761030b978c916103c3575b50847f000000000000000000000000000000000000000000000000000000000000000016611f38565b816040519161023383611a6d565b8a83526040519461024386611a0f565b7f000000000000000000000000000000000000000000000000000000000000000086528886015216968760408501528960608501528a608085015260a08401527f000000000000000000000000000000000000000000000000000000000000000060c084015260e08301527f0000000000000000000000000000000000000000000000000000000000000000166101008201526040519687809481937fd52471c100000000000000000000000000000000000000000000000000000000835260048301611c3e565b03925af19283156103b8575f93610383575b5061035a7f9e6c52944e331ba6270e7fe4cea2a4086bae8f7a27e1cdba07f416806f5d0ac493946040805194859485528401526040830190611b4c565b0390a17fb50bccea676fbc831e47d257acd0dbaa101ff4d469933d6d9e6ad85c2d4b63b95f80a2005b92508183813d83116103b1575b61039a8183611aa5565b810103126103ad5791519161035a61031d565b5f80fd5b503d610390565b6040513d5f823e3d90fd5b6103e39150893d8b116103e9575b6103db8183611aa5565b810190611b20565b5f6101fc565b503d6103d1565b346103ad575f7ffffffffffffffffffffffffffffffffffffffffffffffffffffffffffffffffc3601126103ad57602060405173ffffffffffffffffffffffffffffffffffffffff7f0000000000000000000000000000000000000000000000000000000000000000168152f35b346103ad575f7ffffffffffffffffffffffffffffffffffffffffffffffffffffffffffffffffc3601126103ad57602060405173ffffffffffffffffffffffffffffffffffffffff7f0000000000000000000000000000000000000000000000000000000000000000168152f35b346103ad575f7ffffffffffffffffffffffffffffffffffffffffffffffffffffffffffffffffc3601126103ad5760206040517f00000000000000000000000000000000000000000000000000000000000000008152f35b346103ad575f7ffffffffffffffffffffffffffffffffffffffffffffffffffffffffffffffffc3601126103ad5760206040517f000000000000000000000000000000000000000000000000000000000000000015158152f35b346103ad575f7ffffffffffffffffffffffffffffffffffffffffffffffffffffffffffffffffc3601126103ad57602060405163ffffffff7f0000000000000000000000000000000000000000000000000000000000000000168152f35b346103ad575f7ffffffffffffffffffffffffffffffffffffffffffffffffffffffffffffffffc3601126103ad5760206040517f00000000000000000000000000000000000000000000000000000000000000008152f35b346103ad575f7ffffffffffffffffffffffffffffffffffffffffffffffffffffffffffffffffc3601126103ad57602060405173ffffffffffffffffffffffffffffffffffffffff7f0000000000000000000000000000000000000000000000000000000000000000168152f35b346103ad575f7ffffffffffffffffffffffffffffffffffffffffffffffffffffffffffffffffc3601126103ad5760206040517f00000000000000000000000000000000000000000000000000000000000000008152f35b346103ad575f7ffffffffffffffffffffffffffffffffffffffffffffffffffffffffffffffffc3601126103ad57602060405173ffffffffffffffffffffffffffffffffffffffff7f0000000000000000000000000000000000000000000000000000000000000000168152f35b346103ad575f7ffffffffffffffffffffffffffffffffffffffffffffffffffffffffffffffffc3601126103ad57602060405173ffffffffffffffffffffffffffffffffffffffff7f0000000000000000000000000000000000000000000000000000000000000000168152f35b60807ffffffffffffffffffffffffffffffffffffffffffffffffffffffffffffffffc3601126103ad576108086119ec565b6024359073ffffffffffffffffffffffffffffffffffffffff821682036103ad5773ffffffffffffffffffffffffffffffffffffffff60643516606435036103ad576108737f0000000000000000000000000000000000000000000000000000000000000000611d44565b6040517f3872077800000000000000000000000000000000000000000000000000000000815260208160048173ffffffffffffffffffffffffffffffffffffffff7f0000000000000000000000000000000000000000000000000000000000000000165afa9081156103b8575f91611885575b505f73ffffffffffffffffffffffffffffffffffffffff7f00000000000000000000000000000000000000000000000000000000000000001673ffffffffffffffffffffffffffffffffffffffff8516145f14610cb4575073ffffffffffffffffffffffffffffffffffffffff7f0000000000000000000000000000000000000000000000000000000000000000163b156103ad57604051917f2e1a7d4d00000000000000000000000000000000000000000000000000000000835260443560048401525f836024818373ffffffffffffffffffffffffffffffffffffffff7f0000000000000000000000000000000000000000000000000000000000000000165af19182156103b857610b6f93602093610ca5575b50610a3e828273ffffffffffffffffffffffffffffffffffffffff7f000000000000000000000000000000000000000000000000000000000000000016611f38565b73ffffffffffffffffffffffffffffffffffffffff604051916001858401525f60408401528160643516606084015260608352610a7a83611a89565b60405193610a8785611a0f565b7f00000000000000000000000000000000000000000000000000000000000000008552858501525f60408501527f000000000000000000000000000000000000000000000000000000000000000060608501527f00000000000000000000000000000000000000000000000000000000000000006080850152817f00000000000000000000000000000000000000000000000000000000000000001660a08501521660c083015260443560e0830152610100820152604051809381927f24fd57fb00000000000000000000000000000000000000000000000000000000835260048301611ba8565b038160443573ffffffffffffffffffffffffffffffffffffffff7f0000000000000000000000000000000000000000000000000000000000000000165af19081156103b8575f91610c53575b507fd7e09655439c3932e55857df3220186e5a7f0980825f20691c2b35d941dee75b9173ffffffffffffffffffffffffffffffffffffffff608092945b8160405193168352166020820152604435604082015273ffffffffffffffffffffffffffffffffffffffff606435166060820152a17fb50bccea676fbc831e47d257acd0dbaa101ff4d469933d6d9e6ad85c2d4b63b95f80a2005b90506020813d602011610c9d575b81610c6e60209383611aa5565b810103126103ad57517fd7e09655439c3932e55857df3220186e5a7f0980825f20691c2b35d941dee75b610bbb565b3d9150610c61565b610cae90611a59565b866109fc565b73ffffffffffffffffffffffffffffffffffffffff7f00000000000000000000000000000000000000000000000000000000000000001673ffffffffffffffffffffffffffffffffffffffff8516145f14610f645750610d49610e8792610d40602093610d2360443584611c31565b9073ffffffffffffffffffffffffffffffffffffffff8816611f38565b60443590611c31565b604051610d5581611a6d565b5f815260405191610d6583611a0f565b7f000000000000000000000000000000000000000000000000000000000000000083528383015273ffffffffffffffffffffffffffffffffffffffff6064351660408301526044356060830152604051610dbe81611a6d565b5f815260808301527f000000000000000000000000000000000000000000000000000000000000000060a08301527f000000000000000000000000000000000000000000000000000000000000000060c083015260e082015273ffffffffffffffffffffffffffffffffffffffff7f000000000000000000000000000000000000000000000000000000000000000016610100820152604051809381927fd52471c100000000000000000000000000000000000000000000000000000000835260048301611c3e565b03815f73ffffffffffffffffffffffffffffffffffffffff7f0000000000000000000000000000000000000000000000000000000000000000165af19081156103b8575f91610f12575b507fd7e09655439c3932e55857df3220186e5a7f0980825f20691c2b35d941dee75b9173ffffffffffffffffffffffffffffffffffffffff60809294610bf8565b90506020813d602011610f5c575b81610f2d60209383611aa5565b810103126103ad57517fd7e09655439c3932e55857df3220186e5a7f0980825f20691c2b35d941dee75b610ed1565b3d9150610f20565b93919073ffffffffffffffffffffffffffffffffffffffff7f00000000000000000000000000000000000000000000000000000000000000001673ffffffffffffffffffffffffffffffffffffffff8516145f1461183a57507f000000000000000000000000000000000000000000000000000000000000000073ffffffffffffffffffffffffffffffffffffffff161561169457506040517fdd62ed3e00000000000000000000000000000000000000000000000000000000815230600482015273ffffffffffffffffffffffffffffffffffffffff7f000000000000000000000000000000000000000000000000000000000000000016602482015260208160448173ffffffffffffffffffffffffffffffffffffffff7f0000000000000000000000000000000000000000000000000000000000000000165afa9081156103b8575f91611660575b5061113d6111696110c661118f9360443590611c31565b6040517f095ea7b30000000000000000000000000000000000000000000000000000000060208201527f000000000000000000000000000000000000000000000000000000000000000073ffffffffffffffffffffffffffffffffffffffff16602482015260448101919091529182906064820190565b037fffffffffffffffffffffffffffffffffffffffffffffffffffffffffffffffe08101835282611aa5565b7f00000000000000000000000000000000000000000000000000000000000000006120dc565b6040517fcb75c11c00000000000000000000000000000000000000000000000000000000815260208160048173ffffffffffffffffffffffffffffffffffffffff7f0000000000000000000000000000000000000000000000000000000000000000165afa9081156103b8575f91611610575b50602073ffffffffffffffffffffffffffffffffffffffff916024604051809481937fa56ec632000000000000000000000000000000000000000000000000000000008352817f0000000000000000000000000000000000000000000000000000000000000000166004840152165afa9081156103b8575f916115de575b50604435805b6112cb5750507fd7e09655439c3932e55857df3220186e5a7f0980825f20691c2b35d941dee75b9173ffffffffffffffffffffffffffffffffffffffff608092610bf8565b818111156115d857815b7f0000000000000000000000000000000000000000000000000000000000000000156114955773ffffffffffffffffffffffffffffffffffffffff7f0000000000000000000000000000000000000000000000000000000000000000163b156103ad576040517f8e0250ee00000000000000000000000000000000000000000000000000000000815281600482015263ffffffff7f000000000000000000000000000000000000000000000000000000000000000016602482015273ffffffffffffffffffffffffffffffffffffffff60643516604482015273ffffffffffffffffffffffffffffffffffffffff7f00000000000000000000000000000000000000000000000000000000000000001660648201525f60848201525f60a48201526107d060c48201525f8160e4818373ffffffffffffffffffffffffffffffffffffffff7f0000000000000000000000000000000000000000000000000000000000000000165af180156103b857611486575b505b81039081116114595780611286565b7f4e487b71000000000000000000000000000000000000000000000000000000005f52601160045260245ffd5b61148f90611a59565b86611448565b6040517f6fd3504e00000000000000000000000000000000000000000000000000000000815281600482015263ffffffff7f000000000000000000000000000000000000000000000000000000000000000016602482015273ffffffffffffffffffffffffffffffffffffffff60643516604482015273ffffffffffffffffffffffffffffffffffffffff7f00000000000000000000000000000000000000000000000000000000000000001660648201526020816084815f73ffffffffffffffffffffffffffffffffffffffff7f0000000000000000000000000000000000000000000000000000000000000000165af180156103b857611598575b5061144a565b6020813d6020116115d0575b816115b160209383611aa5565b810103126103ad575167ffffffffffffffff8116036103ad5786611592565b3d91506115a4565b806112d5565b90506020813d602011611608575b816115f960209383611aa5565b810103126103ad575184611280565b3d91506115ec565b90506020813d602011611658575b8161162b60209383611aa5565b810103126103ad575173ffffffffffffffffffffffffffffffffffffffff811681036103ad576020611202565b3d915061161e565b90506020813d60201161168c575b8161167b60209383611aa5565b810103126103ad575161113d6110af565b3d915061166e565b610e879193506020907f00000000000000000000000000000000000000000000000000000000000000006116ff828273ffffffffffffffffffffffffffffffffffffffff7f000000000000000000000000000000000000000000000000000000000000000016611f38565b6117226044358273ffffffffffffffffffffffffffffffffffffffff8816611f38565b73ffffffffffffffffffffffffffffffffffffffff6117466044358760643561205c565b916040519361175485611a0f565b7f00000000000000000000000000000000000000000000000000000000000000008552858501525f60408501527f000000000000000000000000000000000000000000000000000000000000000060608501527f00000000000000000000000000000000000000000000000000000000000000006080850152817f00000000000000000000000000000000000000000000000000000000000000001660a08501521660c08301525f60e0830152610100820152604051809381927f24fd57fb00000000000000000000000000000000000000000000000000000000835260048301611ba8565b610e8792945090816116ff8260209473ffffffffffffffffffffffffffffffffffffffff7f000000000000000000000000000000000000000000000000000000000000000016611f38565b61189e915060203d6020116103e9576103db8183611aa5565b846108e6565b346103ad575f7ffffffffffffffffffffffffffffffffffffffffffffffffffffffffffffffffc3601126103ad57602060405173ffffffffffffffffffffffffffffffffffffffff7f0000000000000000000000000000000000000000000000000000000000000000168152f35b346103ad575f7ffffffffffffffffffffffffffffffffffffffffffffffffffffffffffffffffc3601126103ad57602060405173ffffffffffffffffffffffffffffffffffffffff7f0000000000000000000000000000000000000000000000000000000000000000168152f35b346103ad575f7ffffffffffffffffffffffffffffffffffffffffffffffffffffffffffffffffc3601126103ad5760209073ffffffffffffffffffffffffffffffffffffffff7f0000000000000000000000000000000000000000000000000000000000000000168152f35b6004359073ffffffffffffffffffffffffffffffffffffffff821682036103ad57565b610120810190811067ffffffffffffffff821117611a2c57604052565b7f4e487b71000000000000000000000000000000000000000000000000000000005f52604160045260245ffd5b67ffffffffffffffff8111611a2c57604052565b6020810190811067ffffffffffffffff821117611a2c57604052565b6080810190811067ffffffffffffffff821117611a2c57604052565b90601f7fffffffffffffffffffffffffffffffffffffffffffffffffffffffffffffffe0910116810190811067ffffffffffffffff821117611a2c57604052565b67ffffffffffffffff8111611a2c57601f017fffffffffffffffffffffffffffffffffffffffffffffffffffffffffffffffe01660200190565b908160209103126103ad575173ffffffffffffffffffffffffffffffffffffffff811681036103ad5790565b91908251928382525f5b848110611b945750507fffffffffffffffffffffffffffffffffffffffffffffffffffffffffffffffe0601f845f6020809697860101520116010190565b602081830181015184830182015201611b56565b610140611c2e926020835280516020840152602081015160408401526040810151606084015260608101516080840152608081015160a084015260a081015173ffffffffffffffffffffffffffffffffffffffff80911660c085015260c08201511660e084015260e0810151906101009182850152015191610120808201520190611b4c565b90565b9190820180921161145957565b6020808252825181830152808301516040830152604083015173ffffffffffffffffffffffffffffffffffffffff809116606084015260608401516080840152608084015191611c9c610120938460a0870152610140860190611b4c565b9460a081015160c086015260c081015160e086015260e0810151957fffffffffffffffffffffffffffffffffffffffffffffffffffffffffffffffe0906101009382888303018589015288519182815281810182808560051b8401019b01945f925b858410611d15575050505050505001511691015290565b9091929394959b8580611d338f936001948787830301895251611b4c565b9e0194019401929594939190611cfe565b7f00000000000000000000000000000000000000000000000000000000000000003a11611f0e5773ffffffffffffffffffffffffffffffffffffffff604051917f716232740000000000000000000000000000000000000000000000000000000083527f000000000000000000000000000000000000000000000000000000000000000060048401523a602484015260448301527f00000000000000000000000000000000000000000000000000000000000000006064830152602082608481847f0000000000000000000000000000000000000000000000000000000000000000165afa9182156103b8575f92611eda575b50807f00000000000000000000000000000000000000000000000000000000000000001690813b156103ad575f916044839260405194859384927ff3fef3a30000000000000000000000000000000000000000000000000000000084527f00000000000000000000000000000000000000000000000000000000000000001660048401528760248401525af180156103b857611ed1575090565b611c2e90611a59565b9091506020813d602011611f06575b81611ef660209383611aa5565b810103126103ad5751905f611e37565b3d9150611ee9565b60046040517fb33009b4000000000000000000000000000000000000000000000000000000008152fd5b6040517f095ea7b3000000000000000000000000000000000000000000000000000000006020820181815273ffffffffffffffffffffffffffffffffffffffff85166024840152604480840196909652948252909290611f99606485611aa5565b73ffffffffffffffffffffffffffffffffffffffff945f808786169287519082855af190611fc5612095565b8261202a575b508161201f575b5015611fe0575b5050505050565b61201594612010926040519260208401521660248201525f60448201526044815261200a81611a89565b826120dc565b6120dc565b5f80808080611fd9565b90503b15155f611fd2565b80519192508115918215612042575b5050905f611fcb565b61205592506020809183010191016120c4565b5f80612039565b6040519273ffffffffffffffffffffffffffffffffffffffff8093166020850152604084015216606082015260608152611c2e81611a89565b3d156120bf573d906120a682611ae6565b916120b46040519384611aa5565b82523d5f602084013e565b606090565b908160209103126103ad575180151581036103ad5790565b73ffffffffffffffffffffffffffffffffffffffff166040516040810181811067ffffffffffffffff821117611a2c57612157937f5361666545524332303a206c6f772d6c6576656c2063616c6c206661696c656460205f948594604052818152015260208151910182855af1612151612095565b91612187565b805190811591821561216d575b5050156103ad57565b61218092506020809183010191016120c4565b5f80612164565b90156121a157815115612198575090565b3b156103ad5790565b5080519081156103ad57602001fdfea2646970667358221220786c48e8984f13114651954055f9b44c99afccfc87aed17bbd8554363686279d64736f6c63430008170033",
  "devdoc": {
    "custom:security-contact": "bugs@across.to",
    "details": "Public functions calling external contracts do not guard against reentrancy because they are expected to be called via delegatecall, which will execute this contract's logic within the context of the originating contract. For example, the HubPool will delegatecall these functions, therefore its only necessary that the HubPool's methods that call this contract's logic guard against reentrancy.",
    "kind": "dev",
    "methods": {
      "constructor": {
        "params": {
          "_bridgeHub": "The bridge hub contract address for the ZkStack network.",
          "_cctpTokenMessenger": "address of the CCTP token messenger contract for the configured network.",
          "_chainId": "The target ZkStack network's chain ID.",
          "_circleUSDC": "Circle USDC address on L1. If not set to address(0), then either the USDCSharedBridge or CCTP token messenger must be set and will be used to bridge this token.",
          "_customGasTokenFunder": "Contract on L1 which funds bridge fees with amounts in the custom gas token.",
          "_l1GasToL2GasPerPubDataLimit": "The exchange rate of l1 gas to l2 gas.",
          "_l1Weth": "WETH address on L1.",
          "_l2GasLimit": "The maximum amount of gas this contract is willing to pay to execute a transaction on L2.",
          "_l2RefundAddress": "address that recieves excess gas refunds on L2.",
          "_maxTxGasprice": "The maximum effective gas price any transaction sent to this adapter may have.",
          "_recipientCircleDomainId": "Circle domain ID for the destination network.",
          "_usdcSharedBridge": "Address of the second bridge contract for USDC corresponding to the configured ZkStack network."
        }
      },
      "relayMessage(address,bytes)": {
        "details": "The CUSTOM_GAS_TOKEN_FUNDER must hold enough of the gas token to pay for the L2 txn.",
        "params": {
          "message": "Data to send to target.",
          "target": "Contract on L2 that will receive message."
        }
      },
      "relayTokens(address,address,uint256,address)": {
        "details": "The CUSTOM_GAS_TOKEN_FUNDER must hold enough of the gas token to pay for the L2 txn.",
        "params": {
          "amount": "Amount of L1 tokens to deposit and L2 tokens to receive.",
          "l1Token": "L1 token to deposit.",
          "l2Token": "L2 token to receive.",
          "to": "Bridge recipient."
        }
      }
    },
    "version": 1
  },
  "userdoc": {
    "kind": "user",
    "methods": {
      "constructor": {
        "notice": "Constructs new Adapter.Circle bridged & native USDC are optionally supported via configuration, but are mutually exclusive."
      },
      "relayMessage(address,bytes)": {
        "notice": "Send cross-chain message to target on ZkStack."
      },
      "relayTokens(address,address,uint256,address)": {
        "notice": "Bridge tokens to ZkStack."
      }
    },
    "notice": "Contract containing logic to send messages from L1 to ZkStack with a custom gas token.",
    "version": 1
  },
  "storageLayout": {
    "storage": [],
    "types": null
  }
}