{
  "address": "0xE233009838CB898b50e0012a6E783FC9FeE447FB",
  "abi": [
    {
      "inputs": [
        {
          "internalType": "contract WETH9Interface",
          "name": "_l1Weth",
          "type": "address"
        },
        {
          "internalType": "address",
          "name": "_l2RefundAddress",
          "type": "address"
        }
      ],
      "stateMutability": "nonpayable",
      "type": "constructor"
    },
    {
      "anonymous": false,
      "inputs": [
        {
          "indexed": false,
          "internalType": "address",
          "name": "target",
          "type": "address"
        },
        {
          "indexed": false,
          "internalType": "bytes",
          "name": "message",
          "type": "bytes"
        }
      ],
      "name": "MessageRelayed",
      "type": "event"
    },
    {
      "anonymous": false,
      "inputs": [
        {
          "indexed": false,
          "internalType": "address",
          "name": "l1Token",
          "type": "address"
        },
        {
          "indexed": false,
          "internalType": "address",
          "name": "l2Token",
          "type": "address"
        },
        {
          "indexed": false,
          "internalType": "uint256",
          "name": "amount",
          "type": "uint256"
        },
        {
          "indexed": false,
          "internalType": "address",
          "name": "to",
          "type": "address"
        }
      ],
      "name": "TokensRelayed",
      "type": "event"
    },
    {
      "anonymous": false,
      "inputs": [
        {
          "indexed": false,
          "internalType": "bytes32",
          "name": "canonicalTxHash",
          "type": "bytes32"
        }
      ],
      "name": "ZkSyncMessageRelayed",
      "type": "event"
    },
    {
      "inputs": [],
      "name": "L1_GAS_TO_L2_GAS_PER_PUB_DATA_LIMIT",
      "outputs": [
        {
          "internalType": "uint256",
          "name": "",
          "type": "uint256"
        }
      ],
      "stateMutability": "view",
      "type": "function"
    },
    {
      "inputs": [],
      "name": "L2_GAS_LIMIT",
      "outputs": [
        {
          "internalType": "uint256",
          "name": "",
          "type": "uint256"
        }
      ],
      "stateMutability": "view",
      "type": "function"
    },
    {
      "inputs": [],
      "name": "getL1CallValue",
      "outputs": [
        {
          "internalType": "uint256",
          "name": "",
          "type": "uint256"
        }
      ],
      "stateMutability": "view",
      "type": "function"
    },
    {
      "inputs": [],
      "name": "l1Weth",
      "outputs": [
        {
          "internalType": "contract WETH9Interface",
          "name": "",
          "type": "address"
        }
      ],
      "stateMutability": "view",
      "type": "function"
    },
    {
      "inputs": [],
      "name": "l2RefundAddress",
      "outputs": [
        {
          "internalType": "address",
          "name": "",
          "type": "address"
        }
      ],
      "stateMutability": "view",
      "type": "function"
    },
    {
      "inputs": [
        {
          "internalType": "address",
          "name": "target",
          "type": "address"
        },
        {
          "internalType": "bytes",
          "name": "message",
          "type": "bytes"
        }
      ],
      "name": "relayMessage",
      "outputs": [],
      "stateMutability": "payable",
      "type": "function"
    },
    {
      "inputs": [
        {
          "internalType": "address",
          "name": "l1Token",
          "type": "address"
        },
        {
          "internalType": "address",
          "name": "l2Token",
          "type": "address"
        },
        {
          "internalType": "uint256",
          "name": "amount",
          "type": "uint256"
        },
        {
          "internalType": "address",
          "name": "to",
          "type": "address"
        }
      ],
      "name": "relayTokens",
      "outputs": [],
      "stateMutability": "payable",
      "type": "function"
    },
    {
      "inputs": [],
      "name": "zkErc20Bridge",
      "outputs": [
        {
          "internalType": "contract ZkBridgeLike",
          "name": "",
          "type": "address"
        }
      ],
      "stateMutability": "view",
      "type": "function"
    },
    {
      "inputs": [],
      "name": "zkSyncEthBridge",
      "outputs": [
        {
          "internalType": "contract ZkSyncInterface",
          "name": "",
          "type": "address"
        }
      ],
      "stateMutability": "view",
      "type": "function"
    },
    {
      "inputs": [],
      "name": "zkSyncMessageBridge",
      "outputs": [
        {
          "internalType": "contract ZkSyncInterface",
          "name": "",
          "type": "address"
        }
      ],
      "stateMutability": "view",
      "type": "function"
    }
  ],
  "transactionHash": "0x8831cea076259e48ef3d8842964f0b7960d5f5da6766649d024e7b61d644662c",
  "args": [
    "0xc02aaa39b223fe8d0a0e5c4f27ead9083c756cc2",
    "0x428AB2BA90Eba0a4Be7aF34C9Ac451ab061AC010"
  ],
  "numDeployments": 3,
  "solcInputHash": "3ccdbc3aec7e5d23f67dc8d79b0046b9",
  "bytecode": "0x60c0346100a157601f6111a038819003918201601f19168301916001600160401b038311848410176100a65780849260409485528339810103126100a15780516001600160a01b039182821682036100a1576020015191821682036100a15760a0526080526040516110e390816100bd82396080518181816101ba0152818161037a015281816105e20152610990015260a0518181816104a80152610c100152f35b600080fd5b634e487b7160e01b600052604160045260246000fdfe6080604052600436101561001257600080fd5b6000803560e01c806308f1ed1514610c34578063146bf4b114610bc557806352c8c75c146104155780635e743ef7146103d95780636c9075b71461039e5780638446ec811461032f578063bb3e04b5146102df578063c9f5a053146102da578063cdc2b148146102da5763e6eb8ade1461008b57600080fd5b7ffffffffffffffffffffffffffffffffffffffffffffffffffffffffffffffffc6040813601126102d2576100be610c75565b906024359167ffffffffffffffff83116102d657366023840112156102d657826004013591846100ed84610d55565b946100fb6040519687610ce5565b84865236602486830101116102d257846024956020968793018389013786010152826101b761012861103d565b610130610d8f565b936040518096819482937feb67241900000000000000000000000000000000000000000000000000000000845273ffffffffffffffffffffffffffffffffffffffff809316988960048601528d602486015260e060448601526101978d60e4870190610db3565b91621e8480606487015261032060848701528583030160a4860152610e11565b907f00000000000000000000000000000000000000000000000000000000000000001660c483015203917332400084c286cf3e17e7b677ea9583e60a0003245af19182156102c7578592610273575b507f82e577407245f8e8c446b39602dae3fffacbc21172a51c88525e050063929b2f937f9e6c52944e331ba6270e7fe4cea2a4086bae8f7a27e1cdba07f416806f5d0ac49161026660405192839283526040878401526040830190610db3565b0390a1604051908152a180f35b9091508281813d83116102c0575b61028b8183610ce5565b810103126102bb5751907f82e577407245f8e8c446b39602dae3fffacbc21172a51c88525e050063929b2f610206565b600080fd5b503d610281565b6040513d87823e3d90fd5b5080fd5b8380fd5b610c98565b503461032c57807ffffffffffffffffffffffffffffffffffffffffffffffffffffffffffffffffc36011261032c5760206040517357891966931eb4bb6fb81430e6ce0a03aabde0638152f35b80fd5b503461032c57807ffffffffffffffffffffffffffffffffffffffffffffffffffffffffffffffffc36011261032c57602060405173ffffffffffffffffffffffffffffffffffffffff7f0000000000000000000000000000000000000000000000000000000000000000168152f35b503461032c57807ffffffffffffffffffffffffffffffffffffffffffffffffffffffffffffffffc36011261032c5760206040516103208152f35b503461032c57807ffffffffffffffffffffffffffffffffffffffffffffffffffffffffffffffffc36011261032c576020604051621e84808152f35b5060807ffffffffffffffffffffffffffffffffffffffffffffffffffffffffffffffffc36011261032c57610448610c75565b6024359073ffffffffffffffffffffffffffffffffffffffff82168203610bc15760643573ffffffffffffffffffffffffffffffffffffffff811681036102d65761049161103d565b73ffffffffffffffffffffffffffffffffffffffff7f000000000000000000000000000000000000000000000000000000000000000016908173ffffffffffffffffffffffffffffffffffffffff85161460001461074757813b15610743576040517f2e1a7d4d000000000000000000000000000000000000000000000000000000008152868160248183604435978860048401525af18015610738576106ef575b50816105446105cb93602093610e8b565b61054c610d8f565b916040518095819482937feb67241900000000000000000000000000000000000000000000000000000000845273ffffffffffffffffffffffffffffffffffffffff8a166004850152602484015260e060448401528b60e4840152621e84806064840152610320608484015261010060a4840152610104830190610e11565b73ffffffffffffffffffffffffffffffffffffffff7f00000000000000000000000000000000000000000000000000000000000000001660c483015203917332400084c286cf3e17e7b677ea9583e60a0003245af19081156102c75785916106b7575b50608060209373ffffffffffffffffffffffffffffffffffffffff7f82e577407245f8e8c446b39602dae3fffacbc21172a51c88525e050063929b2f9694817fd7e09655439c3932e55857df3220186e5a7f0980825f20691c2b35d941dee75b95965b816040519516855216878401526044356040840152166060820152a1604051908152a180f35b90506020939193813d82116106e7575b816106d460209383610ce5565b810103126102bb5751909290608061062e565b3d91506106c7565b67ffffffffffffffff819792971161070b576040529481610533565b6024827f4e487b710000000000000000000000000000000000000000000000000000000081526041600452fd5b6040513d89823e3d90fd5b8580fd5b90506040517fdd62ed3e0000000000000000000000000000000000000000000000000000000081523060048201527357891966931eb4bb6fb81430e6ce0a03aabde0636024820152604490602081838173ffffffffffffffffffffffffffffffffffffffff89165afa8015610738578790610b8d575b6107ca9150823590610e8b565b604051907f095ea7b30000000000000000000000000000000000000000000000000000000060208301527357891966931eb4bb6fb81430e6ce0a03aabde06360248301528282015281815267ffffffffffffffff81608081011081608084011117610b60576080820160c08301109060c083011117610b33578060c06108e79201604052602060808201527f5361666545524332303a206c6f772d6c6576656c2063616c6c206661696c656460a082015287808251602084018273ffffffffffffffffffffffffffffffffffffffff8b165af1903d15610b295760803d916108b183610d55565b926108bf6040519485610ce5565b83523d8b602085013e5b019173ffffffffffffffffffffffffffffffffffffffff8816610ec7565b8051908115918215610b02575b505015610a7e5760209060c4604051809481937fe8b99b1b00000000000000000000000000000000000000000000000000000000835273ffffffffffffffffffffffffffffffffffffffff8816600484015273ffffffffffffffffffffffffffffffffffffffff89166024840152803590830152621e84806064830152610320608483015273ffffffffffffffffffffffffffffffffffffffff7f00000000000000000000000000000000000000000000000000000000000000001660a48301527357891966931eb4bb6fb81430e6ce0a03aabde0635af19081156102c7578591610a41575b50608060209373ffffffffffffffffffffffffffffffffffffffff7f82e577407245f8e8c446b39602dae3fffacbc21172a51c88525e050063929b2f9694817fd7e09655439c3932e55857df3220186e5a7f0980825f20691c2b35d941dee75b9596610691565b90506020939193813d602011610a76575b81610a5f60209383610ce5565b81010312610a72575190929060806109da565b8480fd5b3d9150610a52565b6084907f5361666545524332303a204552433230206f7065726174696f6e20646964206e604051917f08c379a000000000000000000000000000000000000000000000000000000000835260206004840152602a60248401528201527f6f742073756363656564000000000000000000000000000000000000000000006064820152fd5b8192509060209181010312610b2557602001518015158103610b255738806108f4565b8680fd5b60806060916108c9565b6024877f4e487b710000000000000000000000000000000000000000000000000000000081526041600452fd5b6024887f4e487b710000000000000000000000000000000000000000000000000000000081526041600452fd5b506020813d602011610bb9575b81610ba760209383610ce5565b81010312610b25576107ca90516107bd565b3d9150610b9a565b8280fd5b503461032c57807ffffffffffffffffffffffffffffffffffffffffffffffffffffffffffffffffc36011261032c57602060405173ffffffffffffffffffffffffffffffffffffffff7f0000000000000000000000000000000000000000000000000000000000000000168152f35b503461032c57807ffffffffffffffffffffffffffffffffffffffffffffffffffffffffffffffffc36011261032c576020610c6d610f97565b604051908152f35b6004359073ffffffffffffffffffffffffffffffffffffffff821682036102bb57565b346102bb5760007ffffffffffffffffffffffffffffffffffffffffffffffffffffffffffffffffc3601126102bb5760206040517332400084c286cf3e17e7b677ea9583e60a0003248152f35b90601f7fffffffffffffffffffffffffffffffffffffffffffffffffffffffffffffffe0910116810190811067ffffffffffffffff821117610d2657604052565b7f4e487b7100000000000000000000000000000000000000000000000000000000600052604160045260246000fd5b67ffffffffffffffff8111610d2657601f017fffffffffffffffffffffffffffffffffffffffffffffffffffffffffffffffe01660200190565b6040516020810181811067ffffffffffffffff821117610d26576040526000815290565b919082519283825260005b848110610dfd5750507fffffffffffffffffffffffffffffffffffffffffffffffffffffffffffffffe0601f8460006020809697860101520116010190565b602081830181015184830182015201610dbe565b90808183519182825260208080809401958560051b01019501936000915b848310610e3f5750505050505090565b9091929394958480610e7b837fffffffffffffffffffffffffffffffffffffffffffffffffffffffffffffffe086600196030187528a51610db3565b9801930193019194939290610e2f565b91908201809211610e9857565b7f4e487b7100000000000000000000000000000000000000000000000000000000600052601160045260246000fd5b91929015610f425750815115610edb575090565b3b15610ee45790565b60646040517f08c379a000000000000000000000000000000000000000000000000000000000815260206004820152601d60248201527f416464726573733a2063616c6c20746f206e6f6e2d636f6e74726163740000006044820152fd5b825190915015610f555750805190602001fd5b610f93906040519182917f08c379a0000000000000000000000000000000000000000000000000000000008352602060048401526024830190610db3565b0390fd5b6040517fb473318e0000000000000000000000000000000000000000000000000000000081523a6004820152621e8480602482015261032060448201526020816064817332400084c286cf3e17e7b677ea9583e60a0003245afa90811561103157600091611003575090565b906020823d8211611029575b8161101c60209383610ce5565b8101031261032c57505190565b3d915061100f565b6040513d6000823e3d90fd5b611045610f97565b9081471061104f57565b60646040517f08c379a000000000000000000000000000000000000000000000000000000000815260206004820152601860248201527f496e73756666696369656e74204554482062616c616e636500000000000000006044820152fdfea2646970667358221220bff645f26f4ee22fe6f4ac5d9e1de3e44447a5b9b0a1de51b75e9b931343de0664736f6c63430008120033",
  "devdoc": {
    "details": "Public functions calling external contracts do not guard against reentrancy because they are expected to be called via delegatecall, which will execute this contract's logic within the context of the originating contract. For example, the HubPool will delegatecall these functions, therefore its only necessary that the HubPool's methods that call this contract's logic guard against reentrancy.",
    "kind": "dev",
    "methods": {
      "constructor": {
        "params": {
          "_l1Weth": "WETH address on L1.",
          "_l2RefundAddress": "address that recieves excess gas refunds on L2."
        }
      },
      "getL1CallValue()": {
        "returns": {
          "_0": "amount of ETH that this contract needs to hold in order for relayMessage to succeed."
        }
      },
      "relayMessage(address,bytes)": {
        "params": {
          "message": "Data to send to target.",
          "target": "Contract on L2 that will receive message."
        }
      },
      "relayTokens(address,address,uint256,address)": {
        "params": {
          "amount": "Amount of L1 tokens to deposit and L2 tokens to receive.",
          "l1Token": "L1 token to deposit.",
          "l2Token": "L2 token to receive.",
          "to": "Bridge recipient."
        }
      }
    },
    "version": 1
  },
  "userdoc": {
    "kind": "user",
    "methods": {
      "constructor": {
        "notice": "Constructs new Adapter."
      },
      "getL1CallValue()": {
        "notice": "Returns required amount of ETH to send a message."
      },
      "relayMessage(address,bytes)": {
        "notice": "Send cross-chain message to target on ZkSync.This contract must hold at least getL1CallValue() amount of ETH to send a message, or the message will revert."
      },
      "relayTokens(address,address,uint256,address)": {
        "notice": "Bridge tokens to ZkSync.This contract must hold at least getL1CallValue() amount of ETH to send a message or the message will revert."
      }
    },
    "notice": "Contract containing logic to send messages from L1 to ZkSync.",
    "version": 1
  },
  "storageLayout": {
    "storage": [],
    "types": null
  }
}