{
  "address": "0x007ea3Acb84AD5289a5d80C3f66e52D0f58E80Bc",
  "abi": [
    {
      "inputs": [
        {
          "internalType": "address",
          "name": "_wrappedNativeTokenAddress",
          "type": "address"
        },
        {
          "internalType": "uint32",
          "name": "_depositQuoteTimeBuffer",
          "type": "uint32"
        },
        {
          "internalType": "uint32",
          "name": "_fillDeadlineBuffer",
          "type": "uint32"
        },
        {
          "internalType": "contract IERC20",
          "name": "_l2Usdc",
          "type": "address"
        },
        {
          "internalType": "contract ITokenMessenger",
          "name": "_cctpTokenMessenger",
          "type": "address"
        }
      ],
      "stateMutability": "nonpayable",
      "type": "constructor"
    },
    {
      "inputs": [],
      "name": "ClaimedMerkleLeaf",
      "type": "error"
    },
    {
      "inputs": [],
      "name": "DisabledRoute",
      "type": "error"
    },
    {
      "inputs": [],
      "name": "ExpiredFillDeadline",
      "type": "error"
    },
    {
      "inputs": [],
      "name": "InvalidChainId",
      "type": "error"
    },
    {
      "inputs": [],
      "name": "InvalidExclusiveRelayer",
      "type": "error"
    },
    {
      "inputs": [],
      "name": "InvalidExclusivityDeadline",
      "type": "error"
    },
    {
      "inputs": [],
      "name": "InvalidFillDeadline",
      "type": "error"
    },
    {
      "inputs": [],
      "name": "InvalidMerkleLeaf",
      "type": "error"
    },
    {
      "inputs": [],
      "name": "InvalidMerkleProof",
      "type": "error"
    },
    {
      "inputs": [],
      "name": "InvalidPayoutAdjustmentPct",
      "type": "error"
    },
    {
      "inputs": [],
      "name": "InvalidQuoteTimestamp",
      "type": "error"
    },
    {
      "inputs": [],
      "name": "InvalidSlowFillRequest",
      "type": "error"
    },
    {
      "inputs": [],
      "name": "MsgValueDoesNotMatchInputAmount",
      "type": "error"
    },
    {
      "inputs": [],
      "name": "NoSlowFillsInExclusivityWindow",
      "type": "error"
    },
    {
      "inputs": [],
      "name": "NotEOA",
      "type": "error"
    },
    {
      "inputs": [],
      "name": "NotExclusiveRelayer",
      "type": "error"
    },
    {
      "inputs": [],
      "name": "RelayFilled",
      "type": "error"
    },
    {
      "anonymous": false,
      "inputs": [
        {
          "indexed": false,
          "internalType": "address",
          "name": "previousAdmin",
          "type": "address"
        },
        {
          "indexed": false,
          "internalType": "address",
          "name": "newAdmin",
          "type": "address"
        }
      ],
      "name": "AdminChanged",
      "type": "event"
    },
    {
      "anonymous": false,
      "inputs": [
        {
          "indexed": true,
          "internalType": "address",
          "name": "beacon",
          "type": "address"
        }
      ],
      "name": "BeaconUpgraded",
      "type": "event"
    },
    {
      "anonymous": false,
      "inputs": [
        {
          "indexed": true,
          "internalType": "uint256",
          "name": "rootBundleId",
          "type": "uint256"
        }
      ],
      "name": "EmergencyDeleteRootBundle",
      "type": "event"
    },
    {
      "anonymous": false,
      "inputs": [
        {
          "indexed": true,
          "internalType": "address",
          "name": "originToken",
          "type": "address"
        },
        {
          "indexed": true,
          "internalType": "uint256",
          "name": "destinationChainId",
          "type": "uint256"
        },
        {
          "indexed": false,
          "internalType": "bool",
          "name": "enabled",
          "type": "bool"
        }
      ],
      "name": "EnabledDepositRoute",
      "type": "event"
    },
    {
      "anonymous": false,
      "inputs": [
        {
          "indexed": false,
          "internalType": "uint256",
          "name": "amountToReturn",
          "type": "uint256"
        },
        {
          "indexed": true,
          "internalType": "uint256",
          "name": "chainId",
          "type": "uint256"
        },
        {
          "indexed": false,
          "internalType": "uint256[]",
          "name": "refundAmounts",
          "type": "uint256[]"
        },
        {
          "indexed": true,
          "internalType": "uint32",
          "name": "rootBundleId",
          "type": "uint32"
        },
        {
          "indexed": true,
          "internalType": "uint32",
          "name": "leafId",
          "type": "uint32"
        },
        {
          "indexed": false,
          "internalType": "address",
          "name": "l2TokenAddress",
          "type": "address"
        },
        {
          "indexed": false,
          "internalType": "address[]",
          "name": "refundAddresses",
          "type": "address[]"
        },
        {
          "indexed": false,
          "internalType": "address",
          "name": "caller",
          "type": "address"
        }
      ],
      "name": "ExecutedRelayerRefundRoot",
      "type": "event"
    },
    {
      "anonymous": false,
      "inputs": [
        {
          "indexed": false,
          "internalType": "uint256",
          "name": "amount",
          "type": "uint256"
        },
        {
          "indexed": false,
          "internalType": "uint256",
          "name": "totalFilledAmount",
          "type": "uint256"
        },
        {
          "indexed": false,
          "internalType": "uint256",
          "name": "fillAmount",
          "type": "uint256"
        },
        {
          "indexed": false,
          "internalType": "uint256",
          "name": "repaymentChainId",
          "type": "uint256"
        },
        {
          "indexed": true,
          "internalType": "uint256",
          "name": "originChainId",
          "type": "uint256"
        },
        {
          "indexed": false,
          "internalType": "uint256",
          "name": "destinationChainId",
          "type": "uint256"
        },
        {
          "indexed": false,
          "internalType": "int64",
          "name": "relayerFeePct",
          "type": "int64"
        },
        {
          "indexed": false,
          "internalType": "int64",
          "name": "realizedLpFeePct",
          "type": "int64"
        },
        {
          "indexed": true,
          "internalType": "uint32",
          "name": "depositId",
          "type": "uint32"
        },
        {
          "indexed": false,
          "internalType": "address",
          "name": "destinationToken",
          "type": "address"
        },
        {
          "indexed": false,
          "internalType": "address",
          "name": "relayer",
          "type": "address"
        },
        {
          "indexed": true,
          "internalType": "address",
          "name": "depositor",
          "type": "address"
        },
        {
          "indexed": false,
          "internalType": "address",
          "name": "recipient",
          "type": "address"
        },
        {
          "indexed": false,
          "internalType": "bytes",
          "name": "message",
          "type": "bytes"
        },
        {
          "components": [
            {
              "internalType": "address",
              "name": "recipient",
              "type": "address"
            },
            {
              "internalType": "bytes",
              "name": "message",
              "type": "bytes"
            },
            {
              "internalType": "int64",
              "name": "relayerFeePct",
              "type": "int64"
            },
            {
              "internalType": "bool",
              "name": "isSlowRelay",
              "type": "bool"
            },
            {
              "internalType": "int256",
              "name": "payoutAdjustmentPct",
              "type": "int256"
            }
          ],
          "indexed": false,
          "internalType": "struct SpokePool.RelayExecutionInfo",
          "name": "updatableRelayData",
          "type": "tuple"
        }
      ],
      "name": "FilledRelay",
      "type": "event"
    },
    {
      "anonymous": false,
      "inputs": [
        {
          "indexed": false,
          "internalType": "address",
          "name": "inputToken",
          "type": "address"
        },
        {
          "indexed": false,
          "internalType": "address",
          "name": "outputToken",
          "type": "address"
        },
        {
          "indexed": false,
          "internalType": "uint256",
          "name": "inputAmount",
          "type": "uint256"
        },
        {
          "indexed": false,
          "internalType": "uint256",
          "name": "outputAmount",
          "type": "uint256"
        },
        {
          "indexed": false,
          "internalType": "uint256",
          "name": "repaymentChainId",
          "type": "uint256"
        },
        {
          "indexed": true,
          "internalType": "uint256",
          "name": "originChainId",
          "type": "uint256"
        },
        {
          "indexed": true,
          "internalType": "uint32",
          "name": "depositId",
          "type": "uint32"
        },
        {
          "indexed": false,
          "internalType": "uint32",
          "name": "fillDeadline",
          "type": "uint32"
        },
        {
          "indexed": false,
          "internalType": "uint32",
          "name": "exclusivityDeadline",
          "type": "uint32"
        },
        {
          "indexed": false,
          "internalType": "address",
          "name": "exclusiveRelayer",
          "type": "address"
        },
        {
          "indexed": true,
          "internalType": "address",
          "name": "relayer",
          "type": "address"
        },
        {
          "indexed": false,
          "internalType": "address",
          "name": "depositor",
          "type": "address"
        },
        {
          "indexed": false,
          "internalType": "address",
          "name": "recipient",
          "type": "address"
        },
        {
          "indexed": false,
          "internalType": "bytes",
          "name": "message",
          "type": "bytes"
        },
        {
          "components": [
            {
              "internalType": "address",
              "name": "updatedRecipient",
              "type": "address"
            },
            {
              "internalType": "bytes",
              "name": "updatedMessage",
              "type": "bytes"
            },
            {
              "internalType": "uint256",
              "name": "updatedOutputAmount",
              "type": "uint256"
            },
            {
              "internalType": "enum V3SpokePoolInterface.FillType",
              "name": "fillType",
              "type": "uint8"
            }
          ],
          "indexed": false,
          "internalType": "struct V3SpokePoolInterface.V3RelayExecutionEventInfo",
          "name": "relayExecutionInfo",
          "type": "tuple"
        }
      ],
      "name": "FilledV3Relay",
      "type": "event"
    },
    {
      "anonymous": false,
      "inputs": [
        {
          "indexed": false,
          "internalType": "uint256",
          "name": "amount",
          "type": "uint256"
        },
        {
          "indexed": false,
          "internalType": "uint256",
          "name": "originChainId",
          "type": "uint256"
        },
        {
          "indexed": true,
          "internalType": "uint256",
          "name": "destinationChainId",
          "type": "uint256"
        },
        {
          "indexed": false,
          "internalType": "int64",
          "name": "relayerFeePct",
          "type": "int64"
        },
        {
          "indexed": true,
          "internalType": "uint32",
          "name": "depositId",
          "type": "uint32"
        },
        {
          "indexed": false,
          "internalType": "uint32",
          "name": "quoteTimestamp",
          "type": "uint32"
        },
        {
          "indexed": false,
          "internalType": "address",
          "name": "originToken",
          "type": "address"
        },
        {
          "indexed": false,
          "internalType": "address",
          "name": "recipient",
          "type": "address"
        },
        {
          "indexed": true,
          "internalType": "address",
          "name": "depositor",
          "type": "address"
        },
        {
          "indexed": false,
          "internalType": "bytes",
          "name": "message",
          "type": "bytes"
        }
      ],
      "name": "FundsDeposited",
      "type": "event"
    },
    {
      "anonymous": false,
      "inputs": [
        {
          "indexed": false,
          "internalType": "uint8",
          "name": "version",
          "type": "uint8"
        }
      ],
      "name": "Initialized",
      "type": "event"
    },
    {
      "anonymous": false,
      "inputs": [
        {
          "indexed": false,
          "internalType": "bool",
          "name": "isPaused",
          "type": "bool"
        }
      ],
      "name": "PausedDeposits",
      "type": "event"
    },
    {
      "anonymous": false,
      "inputs": [
        {
          "indexed": false,
          "internalType": "bool",
          "name": "isPaused",
          "type": "bool"
        }
      ],
      "name": "PausedFills",
      "type": "event"
    },
    {
      "anonymous": false,
      "inputs": [
        {
          "indexed": true,
          "internalType": "uint32",
          "name": "rootBundleId",
          "type": "uint32"
        },
        {
          "indexed": true,
          "internalType": "bytes32",
          "name": "relayerRefundRoot",
          "type": "bytes32"
        },
        {
          "indexed": true,
          "internalType": "bytes32",
          "name": "slowRelayRoot",
          "type": "bytes32"
        }
      ],
      "name": "RelayedRootBundle",
      "type": "event"
    },
    {
      "anonymous": false,
      "inputs": [
        {
          "indexed": false,
          "internalType": "int64",
          "name": "newRelayerFeePct",
          "type": "int64"
        },
        {
          "indexed": true,
          "internalType": "uint32",
          "name": "depositId",
          "type": "uint32"
        },
        {
          "indexed": true,
          "internalType": "address",
          "name": "depositor",
          "type": "address"
        },
        {
          "indexed": false,
          "internalType": "address",
          "name": "updatedRecipient",
          "type": "address"
        },
        {
          "indexed": false,
          "internalType": "bytes",
          "name": "updatedMessage",
          "type": "bytes"
        },
        {
          "indexed": false,
          "internalType": "bytes",
          "name": "depositorSignature",
          "type": "bytes"
        }
      ],
      "name": "RequestedSpeedUpDeposit",
      "type": "event"
    },
    {
      "anonymous": false,
      "inputs": [
        {
          "indexed": false,
          "internalType": "uint256",
          "name": "updatedOutputAmount",
          "type": "uint256"
        },
        {
          "indexed": true,
          "internalType": "uint32",
          "name": "depositId",
          "type": "uint32"
        },
        {
          "indexed": true,
          "internalType": "address",
          "name": "depositor",
          "type": "address"
        },
        {
          "indexed": false,
          "internalType": "address",
          "name": "updatedRecipient",
          "type": "address"
        },
        {
          "indexed": false,
          "internalType": "bytes",
          "name": "updatedMessage",
          "type": "bytes"
        },
        {
          "indexed": false,
          "internalType": "bytes",
          "name": "depositorSignature",
          "type": "bytes"
        }
      ],
      "name": "RequestedSpeedUpV3Deposit",
      "type": "event"
    },
    {
      "anonymous": false,
      "inputs": [
        {
          "indexed": false,
          "internalType": "address",
          "name": "inputToken",
          "type": "address"
        },
        {
          "indexed": false,
          "internalType": "address",
          "name": "outputToken",
          "type": "address"
        },
        {
          "indexed": false,
          "internalType": "uint256",
          "name": "inputAmount",
          "type": "uint256"
        },
        {
          "indexed": false,
          "internalType": "uint256",
          "name": "outputAmount",
          "type": "uint256"
        },
        {
          "indexed": true,
          "internalType": "uint256",
          "name": "originChainId",
          "type": "uint256"
        },
        {
          "indexed": true,
          "internalType": "uint32",
          "name": "depositId",
          "type": "uint32"
        },
        {
          "indexed": false,
          "internalType": "uint32",
          "name": "fillDeadline",
          "type": "uint32"
        },
        {
          "indexed": false,
          "internalType": "uint32",
          "name": "exclusivityDeadline",
          "type": "uint32"
        },
        {
          "indexed": false,
          "internalType": "address",
          "name": "exclusiveRelayer",
          "type": "address"
        },
        {
          "indexed": false,
          "internalType": "address",
          "name": "depositor",
          "type": "address"
        },
        {
          "indexed": false,
          "internalType": "address",
          "name": "recipient",
          "type": "address"
        },
        {
          "indexed": false,
          "internalType": "bytes",
          "name": "message",
          "type": "bytes"
        }
      ],
      "name": "RequestedV3SlowFill",
      "type": "event"
    },
    {
      "anonymous": false,
      "inputs": [
        {
          "indexed": true,
          "internalType": "address",
          "name": "newHubPool",
          "type": "address"
        }
      ],
      "name": "SetHubPool",
      "type": "event"
    },
    {
      "anonymous": false,
      "inputs": [
        {
          "indexed": true,
          "internalType": "address",
          "name": "newL2GatewayRouter",
          "type": "address"
        }
      ],
      "name": "SetL2GatewayRouter",
      "type": "event"
    },
    {
      "anonymous": false,
      "inputs": [
        {
          "indexed": true,
          "internalType": "address",
          "name": "newAdmin",
          "type": "address"
        }
      ],
      "name": "SetXDomainAdmin",
      "type": "event"
    },
    {
      "anonymous": false,
      "inputs": [
        {
          "indexed": false,
          "internalType": "uint256",
          "name": "amountToReturn",
          "type": "uint256"
        },
        {
          "indexed": true,
          "internalType": "uint256",
          "name": "chainId",
          "type": "uint256"
        },
        {
          "indexed": true,
          "internalType": "uint32",
          "name": "leafId",
          "type": "uint32"
        },
        {
          "indexed": true,
          "internalType": "address",
          "name": "l2TokenAddress",
          "type": "address"
        },
        {
          "indexed": false,
          "internalType": "address",
          "name": "caller",
          "type": "address"
        }
      ],
      "name": "TokensBridged",
      "type": "event"
    },
    {
      "anonymous": false,
      "inputs": [
        {
          "indexed": true,
          "internalType": "address",
          "name": "implementation",
          "type": "address"
        }
      ],
      "name": "Upgraded",
      "type": "event"
    },
    {
      "anonymous": false,
      "inputs": [
        {
          "indexed": false,
          "internalType": "address",
          "name": "inputToken",
          "type": "address"
        },
        {
          "indexed": false,
          "internalType": "address",
          "name": "outputToken",
          "type": "address"
        },
        {
          "indexed": false,
          "internalType": "uint256",
          "name": "inputAmount",
          "type": "uint256"
        },
        {
          "indexed": false,
          "internalType": "uint256",
          "name": "outputAmount",
          "type": "uint256"
        },
        {
          "indexed": true,
          "internalType": "uint256",
          "name": "destinationChainId",
          "type": "uint256"
        },
        {
          "indexed": true,
          "internalType": "uint32",
          "name": "depositId",
          "type": "uint32"
        },
        {
          "indexed": false,
          "internalType": "uint32",
          "name": "quoteTimestamp",
          "type": "uint32"
        },
        {
          "indexed": false,
          "internalType": "uint32",
          "name": "fillDeadline",
          "type": "uint32"
        },
        {
          "indexed": false,
          "internalType": "uint32",
          "name": "exclusivityDeadline",
          "type": "uint32"
        },
        {
          "indexed": true,
          "internalType": "address",
          "name": "depositor",
          "type": "address"
        },
        {
          "indexed": false,
          "internalType": "address",
          "name": "recipient",
          "type": "address"
        },
        {
          "indexed": false,
          "internalType": "address",
          "name": "exclusiveRelayer",
          "type": "address"
        },
        {
          "indexed": false,
          "internalType": "bytes",
          "name": "message",
          "type": "bytes"
        }
      ],
      "name": "V3FundsDeposited",
      "type": "event"
    },
    {
      "anonymous": false,
      "inputs": [
        {
          "indexed": true,
          "internalType": "address",
          "name": "l2Token",
          "type": "address"
        },
        {
          "indexed": true,
          "internalType": "address",
          "name": "l1Token",
          "type": "address"
        }
      ],
      "name": "WhitelistedTokens",
      "type": "event"
    },
    {
      "inputs": [],
      "name": "EMPTY_RELAYER",
      "outputs": [
        {
          "internalType": "address",
          "name": "",
          "type": "address"
        }
      ],
      "stateMutability": "view",
      "type": "function"
    },
    {
      "inputs": [],
      "name": "EMPTY_REPAYMENT_CHAIN_ID",
      "outputs": [
        {
          "internalType": "uint256",
          "name": "",
          "type": "uint256"
        }
      ],
      "stateMutability": "view",
      "type": "function"
    },
    {
      "inputs": [],
      "name": "INFINITE_FILL_DEADLINE",
      "outputs": [
        {
          "internalType": "uint32",
          "name": "",
          "type": "uint32"
        }
      ],
      "stateMutability": "view",
      "type": "function"
    },
    {
      "inputs": [],
      "name": "MAX_TRANSFER_SIZE",
      "outputs": [
        {
          "internalType": "uint256",
          "name": "",
          "type": "uint256"
        }
      ],
      "stateMutability": "view",
      "type": "function"
    },
    {
      "inputs": [],
      "name": "SLOW_FILL_MAX_TOKENS_TO_SEND",
      "outputs": [
        {
          "internalType": "uint256",
          "name": "",
          "type": "uint256"
        }
      ],
      "stateMutability": "view",
      "type": "function"
    },
    {
      "inputs": [],
      "name": "UPDATE_DEPOSIT_DETAILS_HASH",
      "outputs": [
        {
          "internalType": "bytes32",
          "name": "",
          "type": "bytes32"
        }
      ],
      "stateMutability": "view",
      "type": "function"
    },
    {
      "inputs": [],
      "name": "UPDATE_V3_DEPOSIT_DETAILS_HASH",
      "outputs": [
        {
          "internalType": "bytes32",
          "name": "",
          "type": "bytes32"
        }
      ],
      "stateMutability": "view",
      "type": "function"
    },
    {
      "inputs": [
        {
          "internalType": "uint32",
          "name": "_initialDepositId",
          "type": "uint32"
        },
        {
          "internalType": "address",
          "name": "_crossDomainAdmin",
          "type": "address"
        },
        {
          "internalType": "address",
          "name": "_hubPool",
          "type": "address"
        }
      ],
      "name": "__SpokePool_init",
      "outputs": [],
      "stateMutability": "nonpayable",
      "type": "function"
    },
    {
      "inputs": [],
      "name": "cctpTokenMessenger",
      "outputs": [
        {
          "internalType": "contract ITokenMessenger",
          "name": "",
          "type": "address"
        }
      ],
      "stateMutability": "view",
      "type": "function"
    },
    {
      "inputs": [],
      "name": "chainId",
      "outputs": [
        {
          "internalType": "uint256",
          "name": "",
          "type": "uint256"
        }
      ],
      "stateMutability": "view",
      "type": "function"
    },
    {
      "inputs": [],
      "name": "crossDomainAdmin",
      "outputs": [
        {
          "internalType": "address",
          "name": "",
          "type": "address"
        }
      ],
      "stateMutability": "view",
      "type": "function"
    },
    {
      "inputs": [
        {
          "internalType": "address",
          "name": "recipient",
          "type": "address"
        },
        {
          "internalType": "address",
          "name": "originToken",
          "type": "address"
        },
        {
          "internalType": "uint256",
          "name": "amount",
          "type": "uint256"
        },
        {
          "internalType": "uint256",
          "name": "destinationChainId",
          "type": "uint256"
        },
        {
          "internalType": "int64",
          "name": "relayerFeePct",
          "type": "int64"
        },
        {
          "internalType": "uint32",
          "name": "quoteTimestamp",
          "type": "uint32"
        },
        {
          "internalType": "bytes",
          "name": "message",
          "type": "bytes"
        },
        {
          "internalType": "uint256",
          "name": "",
          "type": "uint256"
        }
      ],
      "name": "deposit",
      "outputs": [],
      "stateMutability": "payable",
      "type": "function"
    },
    {
      "inputs": [
        {
          "internalType": "address",
          "name": "depositor",
          "type": "address"
        },
        {
          "internalType": "address",
          "name": "recipient",
          "type": "address"
        },
        {
          "internalType": "address",
          "name": "originToken",
          "type": "address"
        },
        {
          "internalType": "uint256",
          "name": "amount",
          "type": "uint256"
        },
        {
          "internalType": "uint256",
          "name": "destinationChainId",
          "type": "uint256"
        },
        {
          "internalType": "int64",
          "name": "relayerFeePct",
          "type": "int64"
        },
        {
          "internalType": "uint32",
          "name": "quoteTimestamp",
          "type": "uint32"
        },
        {
          "internalType": "bytes",
          "name": "message",
          "type": "bytes"
        },
        {
          "internalType": "uint256",
          "name": "",
          "type": "uint256"
        }
      ],
      "name": "depositFor",
      "outputs": [],
      "stateMutability": "payable",
      "type": "function"
    },
    {
      "inputs": [
        {
          "internalType": "address",
          "name": "depositor",
          "type": "address"
        },
        {
          "internalType": "address",
          "name": "recipient",
          "type": "address"
        },
        {
          "internalType": "address",
          "name": "originToken",
          "type": "address"
        },
        {
          "internalType": "uint256",
          "name": "amount",
          "type": "uint256"
        },
        {
          "internalType": "uint256",
          "name": "destinationChainId",
          "type": "uint256"
        },
        {
          "internalType": "int64",
          "name": "relayerFeePct",
          "type": "int64"
        },
        {
          "internalType": "bytes",
          "name": "message",
          "type": "bytes"
        },
        {
          "internalType": "uint256",
          "name": "maxCount",
          "type": "uint256"
        }
      ],
      "name": "depositForNow",
      "outputs": [],
      "stateMutability": "payable",
      "type": "function"
    },
    {
      "inputs": [
        {
          "internalType": "address",
          "name": "recipient",
          "type": "address"
        },
        {
          "internalType": "address",
          "name": "originToken",
          "type": "address"
        },
        {
          "internalType": "uint256",
          "name": "amount",
          "type": "uint256"
        },
        {
          "internalType": "uint256",
          "name": "destinationChainId",
          "type": "uint256"
        },
        {
          "internalType": "int64",
          "name": "relayerFeePct",
          "type": "int64"
        },
        {
          "internalType": "bytes",
          "name": "message",
          "type": "bytes"
        },
        {
          "internalType": "uint256",
          "name": "maxCount",
          "type": "uint256"
        }
      ],
      "name": "depositNow",
      "outputs": [],
      "stateMutability": "payable",
      "type": "function"
    },
    {
      "inputs": [],
      "name": "depositQuoteTimeBuffer",
      "outputs": [
        {
          "internalType": "uint32",
          "name": "",
          "type": "uint32"
        }
      ],
      "stateMutability": "view",
      "type": "function"
    },
    {
      "inputs": [
        {
          "internalType": "address",
          "name": "depositor",
          "type": "address"
        },
        {
          "internalType": "address",
          "name": "recipient",
          "type": "address"
        },
        {
          "internalType": "address",
          "name": "inputToken",
          "type": "address"
        },
        {
          "internalType": "address",
          "name": "outputToken",
          "type": "address"
        },
        {
          "internalType": "uint256",
          "name": "inputAmount",
          "type": "uint256"
        },
        {
          "internalType": "uint256",
          "name": "outputAmount",
          "type": "uint256"
        },
        {
          "internalType": "uint256",
          "name": "destinationChainId",
          "type": "uint256"
        },
        {
          "internalType": "address",
          "name": "exclusiveRelayer",
          "type": "address"
        },
        {
          "internalType": "uint32",
          "name": "quoteTimestamp",
          "type": "uint32"
        },
        {
          "internalType": "uint32",
          "name": "fillDeadline",
          "type": "uint32"
        },
        {
          "internalType": "uint32",
          "name": "exclusivityDeadline",
          "type": "uint32"
        },
        {
          "internalType": "bytes",
          "name": "message",
          "type": "bytes"
        }
      ],
      "name": "depositV3",
      "outputs": [],
      "stateMutability": "payable",
      "type": "function"
    },
    {
      "inputs": [
        {
          "internalType": "uint256",
          "name": "rootBundleId",
          "type": "uint256"
        }
      ],
      "name": "emergencyDeleteRootBundle",
      "outputs": [],
      "stateMutability": "nonpayable",
      "type": "function"
    },
    {
      "inputs": [
        {
          "internalType": "address",
          "name": "",
          "type": "address"
        },
        {
          "internalType": "uint256",
          "name": "",
          "type": "uint256"
        }
      ],
      "name": "enabledDepositRoutes",
      "outputs": [
        {
          "internalType": "bool",
          "name": "",
          "type": "bool"
        }
      ],
      "stateMutability": "view",
      "type": "function"
    },
    {
      "inputs": [
        {
          "internalType": "uint32",
          "name": "rootBundleId",
          "type": "uint32"
        },
        {
          "components": [
            {
              "internalType": "uint256",
              "name": "amountToReturn",
              "type": "uint256"
            },
            {
              "internalType": "uint256",
              "name": "chainId",
              "type": "uint256"
            },
            {
              "internalType": "uint256[]",
              "name": "refundAmounts",
              "type": "uint256[]"
            },
            {
              "internalType": "uint32",
              "name": "leafId",
              "type": "uint32"
            },
            {
              "internalType": "address",
              "name": "l2TokenAddress",
              "type": "address"
            },
            {
              "internalType": "address[]",
              "name": "refundAddresses",
              "type": "address[]"
            }
          ],
          "internalType": "struct SpokePoolInterface.RelayerRefundLeaf",
          "name": "relayerRefundLeaf",
          "type": "tuple"
        },
        {
          "internalType": "bytes32[]",
          "name": "proof",
          "type": "bytes32[]"
        }
      ],
      "name": "executeRelayerRefundLeaf",
      "outputs": [],
      "stateMutability": "payable",
      "type": "function"
    },
    {
      "inputs": [
        {
          "internalType": "address",
          "name": "depositor",
          "type": "address"
        },
        {
          "internalType": "address",
          "name": "recipient",
          "type": "address"
        },
        {
          "internalType": "address",
          "name": "destinationToken",
          "type": "address"
        },
        {
          "internalType": "uint256",
          "name": "amount",
          "type": "uint256"
        },
        {
          "internalType": "uint256",
          "name": "originChainId",
          "type": "uint256"
        },
        {
          "internalType": "int64",
          "name": "realizedLpFeePct",
          "type": "int64"
        },
        {
          "internalType": "int64",
          "name": "relayerFeePct",
          "type": "int64"
        },
        {
          "internalType": "uint32",
          "name": "depositId",
          "type": "uint32"
        },
        {
          "internalType": "uint32",
          "name": "rootBundleId",
          "type": "uint32"
        },
        {
          "internalType": "bytes",
          "name": "message",
          "type": "bytes"
        },
        {
          "internalType": "int256",
          "name": "payoutAdjustment",
          "type": "int256"
        },
        {
          "internalType": "bytes32[]",
          "name": "proof",
          "type": "bytes32[]"
        }
      ],
      "name": "executeSlowRelayLeaf",
      "outputs": [],
      "stateMutability": "nonpayable",
      "type": "function"
    },
    {
      "inputs": [
        {
          "components": [
            {
              "components": [
                {
                  "internalType": "address",
                  "name": "depositor",
                  "type": "address"
                },
                {
                  "internalType": "address",
                  "name": "recipient",
                  "type": "address"
                },
                {
                  "internalType": "address",
                  "name": "exclusiveRelayer",
                  "type": "address"
                },
                {
                  "internalType": "address",
                  "name": "inputToken",
                  "type": "address"
                },
                {
                  "internalType": "address",
                  "name": "outputToken",
                  "type": "address"
                },
                {
                  "internalType": "uint256",
                  "name": "inputAmount",
                  "type": "uint256"
                },
                {
                  "internalType": "uint256",
                  "name": "outputAmount",
                  "type": "uint256"
                },
                {
                  "internalType": "uint256",
                  "name": "originChainId",
                  "type": "uint256"
                },
                {
                  "internalType": "uint32",
                  "name": "depositId",
                  "type": "uint32"
                },
                {
                  "internalType": "uint32",
                  "name": "fillDeadline",
                  "type": "uint32"
                },
                {
                  "internalType": "uint32",
                  "name": "exclusivityDeadline",
                  "type": "uint32"
                },
                {
                  "internalType": "bytes",
                  "name": "message",
                  "type": "bytes"
                }
              ],
              "internalType": "struct V3SpokePoolInterface.V3RelayData",
              "name": "relayData",
              "type": "tuple"
            },
            {
              "internalType": "uint256",
              "name": "chainId",
              "type": "uint256"
            },
            {
              "internalType": "uint256",
              "name": "updatedOutputAmount",
              "type": "uint256"
            }
          ],
          "internalType": "struct V3SpokePoolInterface.V3SlowFill",
          "name": "slowFillLeaf",
          "type": "tuple"
        },
        {
          "internalType": "uint32",
          "name": "rootBundleId",
          "type": "uint32"
        },
        {
          "internalType": "bytes32[]",
          "name": "proof",
          "type": "bytes32[]"
        }
      ],
      "name": "executeV3SlowRelayLeaf",
      "outputs": [],
      "stateMutability": "nonpayable",
      "type": "function"
    },
    {
      "inputs": [],
      "name": "fillDeadlineBuffer",
      "outputs": [
        {
          "internalType": "uint32",
          "name": "",
          "type": "uint32"
        }
      ],
      "stateMutability": "view",
      "type": "function"
    },
    {
      "inputs": [
        {
          "internalType": "address",
          "name": "depositor",
          "type": "address"
        },
        {
          "internalType": "address",
          "name": "recipient",
          "type": "address"
        },
        {
          "internalType": "address",
          "name": "destinationToken",
          "type": "address"
        },
        {
          "internalType": "uint256",
          "name": "amount",
          "type": "uint256"
        },
        {
          "internalType": "uint256",
          "name": "maxTokensToSend",
          "type": "uint256"
        },
        {
          "internalType": "uint256",
          "name": "repaymentChainId",
          "type": "uint256"
        },
        {
          "internalType": "uint256",
          "name": "originChainId",
          "type": "uint256"
        },
        {
          "internalType": "int64",
          "name": "realizedLpFeePct",
          "type": "int64"
        },
        {
          "internalType": "int64",
          "name": "relayerFeePct",
          "type": "int64"
        },
        {
          "internalType": "uint32",
          "name": "depositId",
          "type": "uint32"
        },
        {
          "internalType": "bytes",
          "name": "message",
          "type": "bytes"
        },
        {
          "internalType": "uint256",
          "name": "maxCount",
          "type": "uint256"
        }
      ],
      "name": "fillRelay",
      "outputs": [],
      "stateMutability": "nonpayable",
      "type": "function"
    },
    {
      "inputs": [
        {
          "internalType": "address",
          "name": "depositor",
          "type": "address"
        },
        {
          "internalType": "address",
          "name": "recipient",
          "type": "address"
        },
        {
          "internalType": "address",
          "name": "updatedRecipient",
          "type": "address"
        },
        {
          "internalType": "address",
          "name": "destinationToken",
          "type": "address"
        },
        {
          "internalType": "uint256",
          "name": "amount",
          "type": "uint256"
        },
        {
          "internalType": "uint256",
          "name": "maxTokensToSend",
          "type": "uint256"
        },
        {
          "internalType": "uint256",
          "name": "repaymentChainId",
          "type": "uint256"
        },
        {
          "internalType": "uint256",
          "name": "originChainId",
          "type": "uint256"
        },
        {
          "internalType": "int64",
          "name": "realizedLpFeePct",
          "type": "int64"
        },
        {
          "internalType": "int64",
          "name": "relayerFeePct",
          "type": "int64"
        },
        {
          "internalType": "int64",
          "name": "updatedRelayerFeePct",
          "type": "int64"
        },
        {
          "internalType": "uint32",
          "name": "depositId",
          "type": "uint32"
        },
        {
          "internalType": "bytes",
          "name": "message",
          "type": "bytes"
        },
        {
          "internalType": "bytes",
          "name": "updatedMessage",
          "type": "bytes"
        },
        {
          "internalType": "bytes",
          "name": "depositorSignature",
          "type": "bytes"
        },
        {
          "internalType": "uint256",
          "name": "maxCount",
          "type": "uint256"
        }
      ],
      "name": "fillRelayWithUpdatedDeposit",
      "outputs": [],
      "stateMutability": "nonpayable",
      "type": "function"
    },
    {
      "inputs": [
        {
          "internalType": "bytes32",
          "name": "",
          "type": "bytes32"
        }
      ],
      "name": "fillStatuses",
      "outputs": [
        {
          "internalType": "uint256",
          "name": "",
          "type": "uint256"
        }
      ],
      "stateMutability": "view",
      "type": "function"
    },
    {
      "inputs": [
        {
          "components": [
            {
              "internalType": "address",
              "name": "depositor",
              "type": "address"
            },
            {
              "internalType": "address",
              "name": "recipient",
              "type": "address"
            },
            {
              "internalType": "address",
              "name": "exclusiveRelayer",
              "type": "address"
            },
            {
              "internalType": "address",
              "name": "inputToken",
              "type": "address"
            },
            {
              "internalType": "address",
              "name": "outputToken",
              "type": "address"
            },
            {
              "internalType": "uint256",
              "name": "inputAmount",
              "type": "uint256"
            },
            {
              "internalType": "uint256",
              "name": "outputAmount",
              "type": "uint256"
            },
            {
              "internalType": "uint256",
              "name": "originChainId",
              "type": "uint256"
            },
            {
              "internalType": "uint32",
              "name": "depositId",
              "type": "uint32"
            },
            {
              "internalType": "uint32",
              "name": "fillDeadline",
              "type": "uint32"
            },
            {
              "internalType": "uint32",
              "name": "exclusivityDeadline",
              "type": "uint32"
            },
            {
              "internalType": "bytes",
              "name": "message",
              "type": "bytes"
            }
          ],
          "internalType": "struct V3SpokePoolInterface.V3RelayData",
          "name": "relayData",
          "type": "tuple"
        },
        {
          "internalType": "uint256",
          "name": "repaymentChainId",
          "type": "uint256"
        }
      ],
      "name": "fillV3Relay",
      "outputs": [],
      "stateMutability": "nonpayable",
      "type": "function"
    },
    {
      "inputs": [
        {
          "components": [
            {
              "internalType": "address",
              "name": "depositor",
              "type": "address"
            },
            {
              "internalType": "address",
              "name": "recipient",
              "type": "address"
            },
            {
              "internalType": "address",
              "name": "exclusiveRelayer",
              "type": "address"
            },
            {
              "internalType": "address",
              "name": "inputToken",
              "type": "address"
            },
            {
              "internalType": "address",
              "name": "outputToken",
              "type": "address"
            },
            {
              "internalType": "uint256",
              "name": "inputAmount",
              "type": "uint256"
            },
            {
              "internalType": "uint256",
              "name": "outputAmount",
              "type": "uint256"
            },
            {
              "internalType": "uint256",
              "name": "originChainId",
              "type": "uint256"
            },
            {
              "internalType": "uint32",
              "name": "depositId",
              "type": "uint32"
            },
            {
              "internalType": "uint32",
              "name": "fillDeadline",
              "type": "uint32"
            },
            {
              "internalType": "uint32",
              "name": "exclusivityDeadline",
              "type": "uint32"
            },
            {
              "internalType": "bytes",
              "name": "message",
              "type": "bytes"
            }
          ],
          "internalType": "struct V3SpokePoolInterface.V3RelayData",
          "name": "relayData",
          "type": "tuple"
        },
        {
          "internalType": "uint256",
          "name": "repaymentChainId",
          "type": "uint256"
        },
        {
          "internalType": "uint256",
          "name": "updatedOutputAmount",
          "type": "uint256"
        },
        {
          "internalType": "address",
          "name": "updatedRecipient",
          "type": "address"
        },
        {
          "internalType": "bytes",
          "name": "updatedMessage",
          "type": "bytes"
        },
        {
          "internalType": "bytes",
          "name": "depositorSignature",
          "type": "bytes"
        }
      ],
      "name": "fillV3RelayWithUpdatedDeposit",
      "outputs": [],
      "stateMutability": "nonpayable",
      "type": "function"
    },
    {
      "inputs": [],
      "name": "getCurrentTime",
      "outputs": [
        {
          "internalType": "uint256",
          "name": "",
          "type": "uint256"
        }
      ],
      "stateMutability": "view",
      "type": "function"
    },
    {
      "inputs": [],
      "name": "hubPool",
      "outputs": [
        {
          "internalType": "address",
          "name": "",
          "type": "address"
        }
      ],
      "stateMutability": "view",
      "type": "function"
    },
    {
      "inputs": [
        {
          "internalType": "uint32",
          "name": "_initialDepositId",
          "type": "uint32"
        },
        {
          "internalType": "address",
          "name": "_l2GatewayRouter",
          "type": "address"
        },
        {
          "internalType": "address",
          "name": "_crossDomainAdmin",
          "type": "address"
        },
        {
          "internalType": "address",
          "name": "_hubPool",
          "type": "address"
        }
      ],
      "name": "initialize",
      "outputs": [],
      "stateMutability": "nonpayable",
      "type": "function"
    },
    {
      "inputs": [],
      "name": "l2GatewayRouter",
      "outputs": [
        {
          "internalType": "address",
          "name": "",
          "type": "address"
        }
      ],
      "stateMutability": "view",
      "type": "function"
    },
    {
      "inputs": [
        {
          "internalType": "bytes[]",
          "name": "data",
          "type": "bytes[]"
        }
      ],
      "name": "multicall",
      "outputs": [
        {
          "internalType": "bytes[]",
          "name": "results",
          "type": "bytes[]"
        }
      ],
      "stateMutability": "nonpayable",
      "type": "function"
    },
    {
      "inputs": [],
      "name": "numberOfDeposits",
      "outputs": [
        {
          "internalType": "uint32",
          "name": "",
          "type": "uint32"
        }
      ],
      "stateMutability": "view",
      "type": "function"
    },
    {
      "inputs": [
        {
          "internalType": "bool",
          "name": "pause",
          "type": "bool"
        }
      ],
      "name": "pauseDeposits",
      "outputs": [],
      "stateMutability": "nonpayable",
      "type": "function"
    },
    {
      "inputs": [
        {
          "internalType": "bool",
          "name": "pause",
          "type": "bool"
        }
      ],
      "name": "pauseFills",
      "outputs": [],
      "stateMutability": "nonpayable",
      "type": "function"
    },
    {
      "inputs": [],
      "name": "pausedDeposits",
      "outputs": [
        {
          "internalType": "bool",
          "name": "",
          "type": "bool"
        }
      ],
      "stateMutability": "view",
      "type": "function"
    },
    {
      "inputs": [],
      "name": "pausedFills",
      "outputs": [
        {
          "internalType": "bool",
          "name": "",
          "type": "bool"
        }
      ],
      "stateMutability": "view",
      "type": "function"
    },
    {
      "inputs": [],
      "name": "proxiableUUID",
      "outputs": [
        {
          "internalType": "bytes32",
          "name": "",
          "type": "bytes32"
        }
      ],
      "stateMutability": "view",
      "type": "function"
    },
    {
      "inputs": [],
      "name": "recipientCircleDomainId",
      "outputs": [
        {
          "internalType": "uint32",
          "name": "",
          "type": "uint32"
        }
      ],
      "stateMutability": "view",
      "type": "function"
    },
    {
      "inputs": [
        {
          "internalType": "bytes32",
          "name": "relayerRefundRoot",
          "type": "bytes32"
        },
        {
          "internalType": "bytes32",
          "name": "slowRelayRoot",
          "type": "bytes32"
        }
      ],
      "name": "relayRootBundle",
      "outputs": [],
      "stateMutability": "nonpayable",
      "type": "function"
    },
    {
      "inputs": [
        {
          "components": [
            {
              "internalType": "address",
              "name": "depositor",
              "type": "address"
            },
            {
              "internalType": "address",
              "name": "recipient",
              "type": "address"
            },
            {
              "internalType": "address",
              "name": "exclusiveRelayer",
              "type": "address"
            },
            {
              "internalType": "address",
              "name": "inputToken",
              "type": "address"
            },
            {
              "internalType": "address",
              "name": "outputToken",
              "type": "address"
            },
            {
              "internalType": "uint256",
              "name": "inputAmount",
              "type": "uint256"
            },
            {
              "internalType": "uint256",
              "name": "outputAmount",
              "type": "uint256"
            },
            {
              "internalType": "uint256",
              "name": "originChainId",
              "type": "uint256"
            },
            {
              "internalType": "uint32",
              "name": "depositId",
              "type": "uint32"
            },
            {
              "internalType": "uint32",
              "name": "fillDeadline",
              "type": "uint32"
            },
            {
              "internalType": "uint32",
              "name": "exclusivityDeadline",
              "type": "uint32"
            },
            {
              "internalType": "bytes",
              "name": "message",
              "type": "bytes"
            }
          ],
          "internalType": "struct V3SpokePoolInterface.V3RelayData",
          "name": "relayData",
          "type": "tuple"
        }
      ],
      "name": "requestV3SlowFill",
      "outputs": [],
      "stateMutability": "nonpayable",
      "type": "function"
    },
    {
      "inputs": [
        {
          "internalType": "uint256",
          "name": "",
          "type": "uint256"
        }
      ],
      "name": "rootBundles",
      "outputs": [
        {
          "internalType": "bytes32",
          "name": "slowRelayRoot",
          "type": "bytes32"
        },
        {
          "internalType": "bytes32",
          "name": "relayerRefundRoot",
          "type": "bytes32"
        }
      ],
      "stateMutability": "view",
      "type": "function"
    },
    {
      "inputs": [
        {
          "internalType": "address",
          "name": "newCrossDomainAdmin",
          "type": "address"
        }
      ],
      "name": "setCrossDomainAdmin",
      "outputs": [],
      "stateMutability": "nonpayable",
      "type": "function"
    },
    {
      "inputs": [
        {
          "internalType": "address",
          "name": "originToken",
          "type": "address"
        },
        {
          "internalType": "uint256",
          "name": "destinationChainId",
          "type": "uint256"
        },
        {
          "internalType": "bool",
          "name": "enabled",
          "type": "bool"
        }
      ],
      "name": "setEnableRoute",
      "outputs": [],
      "stateMutability": "nonpayable",
      "type": "function"
    },
    {
      "inputs": [
        {
          "internalType": "address",
          "name": "newHubPool",
          "type": "address"
        }
      ],
      "name": "setHubPool",
      "outputs": [],
      "stateMutability": "nonpayable",
      "type": "function"
    },
    {
      "inputs": [
        {
          "internalType": "address",
          "name": "newL2GatewayRouter",
          "type": "address"
        }
      ],
      "name": "setL2GatewayRouter",
      "outputs": [],
      "stateMutability": "nonpayable",
      "type": "function"
    },
    {
      "inputs": [
        {
          "internalType": "address",
          "name": "depositor",
          "type": "address"
        },
        {
          "internalType": "int64",
          "name": "updatedRelayerFeePct",
          "type": "int64"
        },
        {
          "internalType": "uint32",
          "name": "depositId",
          "type": "uint32"
        },
        {
          "internalType": "address",
          "name": "updatedRecipient",
          "type": "address"
        },
        {
          "internalType": "bytes",
          "name": "updatedMessage",
          "type": "bytes"
        },
        {
          "internalType": "bytes",
          "name": "depositorSignature",
          "type": "bytes"
        }
      ],
      "name": "speedUpDeposit",
      "outputs": [],
      "stateMutability": "nonpayable",
      "type": "function"
    },
    {
      "inputs": [
        {
          "internalType": "address",
          "name": "depositor",
          "type": "address"
        },
        {
          "internalType": "uint32",
          "name": "depositId",
          "type": "uint32"
        },
        {
          "internalType": "uint256",
          "name": "updatedOutputAmount",
          "type": "uint256"
        },
        {
          "internalType": "address",
          "name": "updatedRecipient",
          "type": "address"
        },
        {
          "internalType": "bytes",
          "name": "updatedMessage",
          "type": "bytes"
        },
        {
          "internalType": "bytes",
          "name": "depositorSignature",
          "type": "bytes"
        }
      ],
      "name": "speedUpV3Deposit",
      "outputs": [],
      "stateMutability": "nonpayable",
      "type": "function"
    },
    {
      "inputs": [
        {
          "internalType": "address",
          "name": "newImplementation",
          "type": "address"
        }
      ],
      "name": "upgradeTo",
      "outputs": [],
      "stateMutability": "nonpayable",
      "type": "function"
    },
    {
      "inputs": [
        {
          "internalType": "address",
          "name": "newImplementation",
          "type": "address"
        },
        {
          "internalType": "bytes",
          "name": "data",
          "type": "bytes"
        }
      ],
      "name": "upgradeToAndCall",
      "outputs": [],
      "stateMutability": "payable",
      "type": "function"
    },
    {
      "inputs": [],
      "name": "usdcToken",
      "outputs": [
        {
          "internalType": "contract IERC20",
          "name": "",
          "type": "address"
        }
      ],
      "stateMutability": "view",
      "type": "function"
    },
    {
      "inputs": [
        {
          "internalType": "address",
          "name": "l2Token",
          "type": "address"
        },
        {
          "internalType": "address",
          "name": "l1Token",
          "type": "address"
        }
      ],
      "name": "whitelistToken",
      "outputs": [],
      "stateMutability": "nonpayable",
      "type": "function"
    },
    {
      "inputs": [
        {
          "internalType": "address",
          "name": "",
          "type": "address"
        }
      ],
      "name": "whitelistedTokens",
      "outputs": [
        {
          "internalType": "address",
          "name": "",
          "type": "address"
        }
      ],
      "stateMutability": "view",
      "type": "function"
    },
    {
      "inputs": [],
      "name": "wrappedNativeToken",
      "outputs": [
        {
          "internalType": "contract WETH9Interface",
          "name": "",
          "type": "address"
        }
      ],
      "stateMutability": "view",
      "type": "function"
    },
    {
      "stateMutability": "payable",
      "type": "receive"
    }
  ],
  "numDeployments": 2,
  "solcInputHash": "c181807dce16a026a0829a6d2cfeb493",
  "bytecode": "0x61016034620001d057601f620051e438819003918201601f19168301916001600160401b03831184841017620001d55780849260a094604052833981010312620001d05780516001600160a01b03919082811690819003620001d0576200006960208301620001eb565b6200007760408401620001eb565b916060840151938585168503620001d057608001519485168503620001d0573060805260a05260c05260e05260005460ff8160081c16620001d05760ff8082160362000194575b50610120908152610140918252610100916000835260405191614fe69384620001fe8539608051848181610e1a0152818161119501526112cd015260a0518481816108f3015281816127fb015281816134fb015281816141060152818161439a015281816143c10152818161470e0152614979015260c0518481816113bf015281816127a301526134aa015260e0518481816103b801526129530152518381816114f40152614d4e015251828181610892015281816138a80152614cc6015251818181611793015281816137870152614c990152f35b60ff90811916176000557f7f26b83ff96e1f2b6a682f133852f6798a09c465da95921460cefb3847402498602060405160ff8152a138620000be565b600080fd5b634e487b7160e01b600052604160045260246000fd5b519063ffffffff82168203620001d05756fe6080604052600436101561001b575b361561001957600080fd5b005b60003560e01c8063079bd2c7146103865780630c2097f7146103815780631186ec331461037c57806311eac8551461037757806315348e441461030957806317fcb39b146103725780631b3d55591461036d5780631dfb2d0214610368578063272751c71461036357806329cb924d1461035e5780632cfc26c5146103595780632e37811514610354578063364f01a61461034f5780633659cfe61461034a57806344b8be6814610345578063493a4f84146103405780634e0fb8f51461033b5780634e3485c8146103365780634f1ef286146103315780635249fef11461032c5780635285e0581461032757806352d1902d14610322578063541f4f141461031d57806357f6dcb8146103185780635ceaec32146103135780636068d6cb1461030e5780636bbbcd2e146103095780636e40098314610304578063738b62e5146102ff5780637b939232146102fa5780637e688bba146102f55780638a7860ce146102f05780639748cf7c146102eb578063979f2bc2146102e65780639963e5a8146102e157806399cc2968146102dc5780639a8a0592146102d7578063a1244c67146102d2578063a78e4b60146102cd578063ac9650d8146102c8578063ae527fbb146102c3578063b5e1bf5f146102be578063bbca7db0146102b9578063c35c83fc146102b4578063c8356859146102af578063ccfa5971146102aa578063ceb4c987146102a5578063daf9c210146102a0578063dda521131461029b578063ddd224f114610296578063de7eba7814610291578063e19044021461028c578063ee2a53f814610287578063fb6bf74c146102825763fd7c10540361000e5761220c565b6120fa565b6120bc565b612058565b61200e565b611fe4565b611fbd565b611f7d565b611f5e565b611edc565b611eb2565b611e85565b611d93565b611d68565b611cea565b611c1c565b611b19565b611af1565b611ad6565b611a3e565b611898565b6117c2565b61177d565b6116e0565b611659565b6115b0565b611518565b6114d7565b6108c1565b6114b0565b6113e3565b6113a2565b611313565b6112ba565b611290565b611232565b611154565b611105565b610fea565b610f1f565b610e8a565b610df3565b610d42565b610c20565b610be8565b610bcd565b610b19565b610ac0565b6109e8565b6108dd565b61087c565b6107f3565b61074e565b61039b565b600091031261039657565b600080fd5b3461039657600036600319011261039657602060405163ffffffff7f0000000000000000000000000000000000000000000000000000000000000000168152f35b6001600160a01b031690565b6001600160a01b0381160361039657565b60043590610406826103e8565b565b60243590610406826103e8565b60443590610406826103e8565b60643590610406826103e8565b3590610406826103e8565b60a435908160070b820361039657565b60c435908160070b820361039657565b608435908160070b820361039657565b61010435908160070b820361039657565b61012435908160070b820361039657565b61014435908160070b820361039657565b63ffffffff81160361039657565b60e435906104068261049d565b61010435906104068261049d565b61012435906104068261049d565b61016435906104068261049d565b61014435906104068261049d565b35906104068261049d565b634e487b7160e01b600052604160045260246000fd5b6001600160401b03811161052457604052565b6104fb565b606081019081106001600160401b0382111761052457604052565b60a081019081106001600160401b0382111761052457604052565b602081019081106001600160401b0382111761052457604052565b604081019081106001600160401b0382111761052457604052565b60e081019081106001600160401b0382111761052457604052565b601f909101601f19168101906001600160401b0382119082101761052457604052565b6040519060c082016001600160401b0381118382101761052457604052565b6040519061014082016001600160401b0381118382101761052457604052565b6040519061018082016001600160401b0381118382101761052457604052565b60405190608082016001600160401b0381118382101761052457604052565b6040519061040682610544565b6001600160401b03811161052457601f01601f191660200190565b9291926106858261065e565b9161069360405193846105b0565b829481845281830111610396578281602093846000960137010152565b9080601f83011215610396578160206106cb93359101610679565b90565b6001600160401b0381116105245760051b60200190565b92916106f0826106ce565b916106fe60405193846105b0565b829481845260208094019160051b810192831161039657905b8282106107245750505050565b81358152908301908301610717565b9080601f83011215610396578160206106cb933591016106e5565b34610396576101803660031901126103965760043561076c816103e8565b610774610408565b9061077d610415565b61078561043a565b9261078e61044a565b6107966104ab565b61079e6104b8565b6001600160401b039690929061012435888111610396576107c39036906004016106b0565b9461016435988911610396576107e0610019993690600401610733565b976101443597608435926064359261300d565b6101003660031901126103965760043561080c816103e8565b602435610818816103e8565b61082061045a565b60a4359061082d8261049d565b60c4356001600160401b0381116103965761084c9036906004016106b0565b926108556125d6565b60ff61086b5460e81c166103965761087594606435916044359133613439565b6001606555005b34610396576000366003190112610396576040517f00000000000000000000000000000000000000000000000000000000000000006001600160a01b03168152602090f35b3461039657600036600319011261039657602060405160008152f35b34610396576000366003190112610396576040517f00000000000000000000000000000000000000000000000000000000000000006001600160a01b03168152602090f35b81601f8201121561039657803591610939836106ce565b9261094760405194856105b0565b808452602092838086019260051b820101928311610396578301905b828210610971575050505090565b81358152908301908301610963565b81601f8201121561039657803591610997836106ce565b926109a560405194856105b0565b808452602092838086019260051b820101928311610396578301905b8282106109cf575050505090565b83809183356109dd816103e8565b8152019101906109c1565b60031960603682011261039657600435610a018161049d565b6001600160401b0391602435908382116103965760c090823603011261039657610a296105d3565b908060040135825260248101356020830152604481013584811161039657610a579060043691840101610922565b6040830152610a68606482016104f0565b6060830152610a796084820161042f565b608083015260a481013590848211610396576004610a9a9236920101610980565b60a082015260443592831161039657610aba610019933690600401610733565b916130fa565b3461039657602036600319011261039657600435610add816103e8565b610869546001600160a01b0390811661111161111160901b01011633036103965761087590610b0a6125d6565b61391a565b8015150361039657565b3461039657606036600319011261039657600435610b36816103e8565b60243560443591610b4683610b0f565b610869546001600160a01b039190821661111161111160901b01018216330361039657610b716125d6565b167f0a21fdd43d0ad0c62689ee7230a47309a050755bcc52eba00310add65297692a602060009483865261086d8252604086208587528252604086209015159060ff1981541660ff8316179055604051908152a3600160655580f35b34610396576000366003190112610396576020604051428152f35b34610396576000366003190112610396576020604051600080516020614f918339815191528152f35b90816101809103126103965790565b34610396576040366003190112610396576004356001600160401b03811161039657610c50903690600401610c11565b610c586125d6565b60ff61086b5460e01c1661039657610c736101408201612d60565b63ffffffff429116101580610d24575b610d1257610d0890610cf4610ca0610c9b3684612d74565b613edc565b9160c0610ced610cb260208401612d6a565b610cc0610160850185612e53565b939094610ccb6105d3565b97610cd63683612d74565b895260208901520135604087015260608601612c53565b3691610679565b608082015260243560a08201523390614554565b6100196001606555565b604051630c3a9b9d60e41b8152600490fd5b50610d3160408201612d6a565b6001600160a01b0316331415610c83565b3461039657604036600319011261039657600435610d5f816103e8565b60243590610d6c826103e8565b610869546001600160a01b039190821661111161111160901b010182163303610396578190610d996125d6565b166000818152610c5b6020526040812080546001600160a01b0319166001600160a01b03861617905592909116907f8d7f294eaa476236fe8cb5629376a12cd37dace3d21e6a7b98f1641c4ed5f09e8380a3600160655580f35b3461039657602036600319011261039657600435610e10816103e8565b6001600160a01b037f000000000000000000000000000000000000000000000000000000000000000081163081146103965781600080516020614f318339815191525416036103965761086954811661111161111160901b01011633036103965760405161001991610e818261055f565b600082526122b6565b346103965761018036600319011261039657600435610ea8816103e8565b602435610eb4816103e8565b604435610ec0816103e8565b60e4358060070b810361039657610ed561046a565b610edd6104c6565b61014435959092906001600160401b03871161039657610f046100199736906004016106b0565b94610164359660c4359260a435926084359260643592612b4f565b34610396576040366003190112610396576108695460243590600435906001600160a01b0390811661111161111160901b010116330361039657610f616125d6565b61086c8054600160401b8110156105245763ffffffff9160018201905583610f8882612098565b5084600182015555167fc86ba04c55bc5eb2f2876b91c438849a296dbec7b08751c3074d92e04f0a77af600080a46001606555005b9181601f84011215610396578235916001600160401b038311610396576020838186019501011161039657565b346103965760c036600319011261039657600435611007816103e8565b602435906110148261049d565b60643590604435611024836103e8565b6001600160401b0360843581811161039657611044903690600401610fbd565b93909160a4359081116103965761105f903690600401610fbd565b95909261106a6125d6565b84611076368884610679565b611081368a88610679565b90844693611090948d89613a2f565b6040519586958652600160a01b600190038093166020870152604086016080905260808601906110bf926129ef565b918483036060860152169563ffffffff16946110da926129ef565b037fb0a29aed3d389a1041194255878b423f7780be3ed2324d4693508c6ff189845e91a36001606555005b3461039657602036600319011261039657600435611122816103e8565b610869546001600160a01b0390811661111161111160901b0101163303610396576108759061114f6125d6565b6125e7565b60403660031901126103965760043561116c816103e8565b6024356001600160401b0381116103965761118b9036906004016106b0565b6001600160a01b037f000000000000000000000000000000000000000000000000000000000000000081163081146103965781600080516020614f318339815191525416036103965761086954811661111161111160901b010116330361039657610019916123ec565b6001600160a01b0316600090815261086d6020526040902090565b600052610872602052604060002090565b60005261086e602052604060002090565b346103965760403660031901126103965760043561124f816103e8565b60018060a01b031660005261086d6020526040600020602435600052602052602060ff604060002054166040519015158152f35b6001600160a01b03169052565b3461039657600036600319011261039657610869546040516001600160a01b039091168152602090f35b34610396576000366003190112610396577f00000000000000000000000000000000000000000000000000000000000000006001600160a01b03163003610396576020604051600080516020614f318339815191528152f35b6101203660031901126103965760043561132c816103e8565b60243590611339826103e8565b60443591611346836103e8565b61134e61043a565b60c4359161135b8361049d565b60e4356001600160401b0381116103965761137a9036906004016106b0565b936113836125d6565b60ff61086b5460e81c1661039657610875956084359260643592613439565b3461039657600036600319011261039657602060405163ffffffff7f0000000000000000000000000000000000000000000000000000000000000000168152f35b3461039657610200366003190112610396576113fd6103f9565b611405610408565b9061140e610415565b91611417610422565b9261142061046a565b9361142961047b565b61143161048c565b6114396104d4565b6001600160401b0397909290610184358981116103965761145e9036906004016106b0565b946101a4358a8111610396576114789036906004016106b0565b966101c4359a8b11610396576114956100199b36906004016106b0565b986101e4359a60e4359360c4359360a4359360843593612c62565b3461039657600036600319011261039657602060ff61086b5460e81c166040519015158152f35b3461039657600036600319011261039657602060405163ffffffff7f0000000000000000000000000000000000000000000000000000000000000000168152f35b346103965760203660031901126103965760043561153581610b0f565b610869546001600160a01b0390811661111161111160901b01011633036103965760207fe88463c2f254e2b070013a2dc7ee1e099f9bc00534cbdf03af551dc26ae49219916115826125d6565b61086b805460ff60e81b191691151560e881901b60ff60e81b16929092179055604051908152a16001606555005b610180366003190112610396576004356115c9816103e8565b602435906115d6826103e8565b6044356115e2816103e8565b606435906115ef826103e8565b60e4356115fb816103e8565b610104356116088161049d565b61012435916116168361049d565b61161e6104e2565b61016435979094906001600160401b03891161039657611645610019993690600401610fbd565b98909760c4359360a4359360843593612736565b346103965760c036600319011261039657600435611676816103e8565b602435908160070b820361039657604435916116918361049d565b60643561169d816103e8565b6001600160401b0393608435858111610396576116be9036906004016106b0565b9260a435958611610396576116da6100199636906004016106b0565b94612679565b346103965760203660031901126103965761086954600435906001600160a01b0390811661111161111160901b01011633036103965761171e6125d6565b61172781612098565b91909161176757600191600092818480935501557f3569b846531b754c99cb80df3f49cd72fa6fe106aaee5ab8e0caf35a9d7ce88d8280a2600160655580f35b634e487b7160e01b600052600060045260246000fd5b34610396576000366003190112610396576040517f00000000000000000000000000000000000000000000000000000000000000006001600160a01b03168152602090f35b34610396576060366003190112610396576004356117df8161049d565b6024356117eb816103e8565b6044356117f7816103e8565b60009260ff845460081c1615611894576118109061262e565b6040519161181d8361057a565b6009835260208301906820a1a927a9a996ab1960b91b825260206040516118438161057a565b6005815201640312e302e360dc1b815260ff865460081c1615611890576005610b0a9361188d9651902091209061047f5561048055611880612654565b611888612664565b6138d1565b80f35b8580fd5b8380fd5b34610396576020366003190112610396576004356001600160401b038111610396576118c8903690600401610c11565b6118d06125d6565b60ff61086b5460e01c16610396576101408101906118ed82612d60565b63ffffffff90814291161015611a2c576101208201904261191961191084612d60565b63ffffffff1690565b10611a1a5761192b610c9b3685612d74565b9161193583611210565b54611a095761196d6119677f923794976d026d6b119735adc163cb71decfc903e17c3dc226c00789593c04e194611210565b60019055565b6119fc61197c60608601612d6a565b9561198960808701612d6a565b956119a96119a361199d6101008401612d60565b95612d60565b92612d60565b6119b560408301612d6a565b6119be83612d6a565b906119cb60208501612d6a565b926119da610160860186612e53565b9690956040519a8b9a169d60e08201359d60a060c0840135930135918c612fa3565b0390a36100196001606555565b604051624be79160e21b8152600490fd5b60405163d642b7d960e01b8152600490fd5b604051630277ae7b60e21b8152600490fd5b3461039657602036600319011261039657600435611a5b81610b0f565b610869546001600160a01b0390811661111161111160901b01011633036103965760207f2d5b62420992e5a4afce0e77742636ca2608ef58289fd2e1baa5161ef6e7e41e91611aa86125d6565b61086b805460ff60e01b191691151560e081901b60ff60e01b16929092179055604051908152a16001606555005b34610396576000366003190112610396576020604051468152f35b3461039657600036600319011261039657602063ffffffff61086b5460c01c16604051908152f35b34610396576000366003190112610396576020604051600080516020614f718339815191528152f35b9181601f84011215610396578235916001600160401b038311610396576020808501948460051b01011161039657565b60005b838110611b855750506000910152565b8181015183820152602001611b75565b90602091611bae81518092818552858086019101611b72565b601f01601f1916010190565b602080820190808352835180925260408301928160408460051b8301019501936000915b848310611bee5750505050505090565b9091929394958480611c0c600193603f198682030187528a51611b95565b9801930193019194939290611bde565b3461039657602036600319011261039657600480356001600160401b03811161039657611c4c9036908301611b42565b90611c5682614e61565b9160005b818110611c735760405180611c6f8682611bba565b0390f35b600080611c81838587614eab565b90611c9160405180938193614ec2565b0390305af4611c9e6124e1565b90819015611ccc575090611cc791611cb682876133c6565b52611cc181866133c6565b506133b7565b611c5a565b8660448351106103965761039692016024809151830101910161371d565b60e036600319011261039657600435611d02816103e8565b60243590611d0f826103e8565b611d1761045a565b9060a4356001600160401b03811161039657611d379036906004016106b0565b91611d406125d6565b60ff61086b5460e81c16610396576108759363ffffffff421692606435916044359133613439565b34610396576000366003190112610396576040516b1d6329f1c35ca4bfabb9f56160281b8152602090f35b3461039657600319606036820112610396576004356001600160401b03808211610396576060823603938401126103965760243590611dd18261049d565b60443590811161039657611de9903690600401611b42565b919093611df46125d6565b600484013590610182190181121561039657610d0894611e8093611e21611e799360043691890101612d74565b95611e66611e2e88613edc565b916044611e3e60208b01516103dc565b916101608b015194611e4e6105d3565b9b8c5260208c0152013560408a015260608901612c53565b6080870152600060a087015236916106e5565b9083613d2b565b6147f4565b34610396576020366003190112610396576004356000526108726020526020604060002054604051908152f35b3461039657600036600319011261039657610c5a546040516001600160a01b039091168152602090f35b346103965760c0366003190112610396576001600160401b0360043581811161039657611f0d903690600401610c11565b60643590611f1a826103e8565b60843583811161039657611f32903690600401610fbd565b9060a43594851161039657611f4e610019953690600401610fbd565b9490936044359060243590612e85565b3461039657600036600319011261039657602060405163ffffffff8152f35b34610396576020366003190112610396576020600435611f9c816103e8565b60018060a01b03809116600052610c5b825260406000205416604051908152f35b3461039657600036600319011261039657602060ff61086b5460e01c166040519015158152f35b34610396576000366003190112610396576040516a0c097ce7bc90715b34b9f160241b8152602090f35b346103965760203660031901126103965760043561202b816103e8565b610869546001600160a01b0390811661111161111160901b010116330361039657610875906118886125d6565b346103965760003660031901126103965761086a546040516001600160a01b039091168152602090f35b634e487b7160e01b600052603260045260246000fd5b61086c80548210156120b7576000526003602060002091020190600090565b612082565b346103965760203660031901126103965760043561086c54811015610396576120e6604091612098565b506001815491015482519182526020820152f35b34610396576080366003190112610396576004356121178161049d565b612180602435612126816103e8565b604435612132816103e8565b6064359161213f836103e8565b6000549461216460ff8760081c1615809781986121fe575b81156121de575b50612294565b85612177600160ff196000541617600055565b6121c55761253a565b61218657005b61219661ff001960005416600055565b604051600181527f7f26b83ff96e1f2b6a682f133852f6798a09c465da95921460cefb384740249890602090a1005b6121d961010061ff00196000541617600055565b61253a565b303b159150816121f0575b503861215e565b6001915060ff1614386121e9565b600160ff8216109150612157565b61010036600319011261039657600435612225816103e8565b602435612231816103e8565b60443561223d816103e8565b61224561043a565b60c4356001600160401b038111610396576122649036906004016106b0565b9261226d6125d6565b60ff61086b5460e81c16610396576108759463ffffffff4216936084359260643592613439565b1561039657565b90816020910312610396575190565b6040513d6000823e3d90fd5b600080516020614ef18339815191525460ff16156122d85761040691506124ac565b6040516352d1902d60e01b81526001600160a01b03821690602081600481855afa600091816123bc575b5061230c57600080fd5b600080516020614f318339815191520361039657612329826124ac565b600080516020614f51833981519152600080a28151158015906123b4575b61234f575050565b6000806123b193660819985a5b195960ca1b6040805161236e81610529565b602781527f416464726573733a206c6f772d6c6576656c2064656c65676174652063616c6c60208201520152602081519101845af46123ab6124e1565b91612511565b50565b506000612347565b6123de91925060203d81116123e5575b6123d681836105b0565b81019061229b565b9038612302565b503d6123cc565b600080516020614ef18339815191525460ff161561240e5761040691506124ac565b6040516352d1902d60e01b81526001600160a01b03821690602081600481855afa6000918161248c575b5061244257600080fd5b600080516020614f31833981519152036103965761245f826124ac565b600080516020614f51833981519152600080a28151158015906124845761234f575050565b506001612347565b6124a591925060203d81116123e5576123d681836105b0565b9038612438565b803b1561039657600080516020614f3183398151915280546001600160a01b0319166001600160a01b03909216919091179055565b3d1561250c573d906124f28261065e565b9161250060405193846105b0565b82523d6000602084013e565b606090565b901561252b57815115612522575090565b3b156103965790565b50805190811561039657602001fd5b9291909260009060ff825460081c16156125d2576125579061262e565b6040516125638161057a565b6009815260208101906820a1a927a9a996ab1960b91b825260206040516125898161057a565b600581520192640312e302e360dc1b845260ff815460081c16156125cf5750926104069594926005610b0a9361114f9651902091209061047f5561048055611880612654565b80fd5b5080fd5b600260655414610396576002606555565b610c5a80546001600160a01b0319166001600160a01b039290921691821790557fdc4a5f4c066ad14c1306e624550b42395e08f992a76b416cc7b1ad11503d376c600080a2565b61086b805463ffffffff60c01b191660c09290921b63ffffffff60c01b16919091179055565b60ff60005460081c161561039657565b60ff60005460081c1615610396576001606555565b9092949391946126876125d6565b8360070b916706f05b59d3b2000061269e84612725565b10156103965763ffffffff826126de888761271b967fa6aa57bd282fc82378458de27be4eadfa791a0c7321c49562eeba8b2643dd5669a8d4690896139bc565b612709604051968796875260018060a01b038093166020880152608060408801526080870190611b95565b92858403606087015216971695611b95565b0390a36001606555565b6000808212612732575090565b0390565b979b95999196939b9a949890929a61274c6125d6565b61086b9960ff8b5460e81c166103965761278961278561277e8e61276f8d6111f5565b90600052602052604060002090565b5460ff1690565b1590565b6129935763ffffffff9d8e6127a0818516426129bb565b907f00000000000000000000000000000000000000000000000000000000000000001610612981578e80851642811091821561294b575b5050612939578e9b60018060a01b039c8d891690871690818117612903575b50508c7f0000000000000000000000000000000000000000000000000000000000000000168d8c16818114806128fa575b156128e057508234036128ce57803b1561039657600060049160405192838092630d0e30db60e41b825234905af180156128c9576128b0575b505b5460c01c63ffffffff169e8f612877906129da565b6128809061262e565b6040519c8d9c169f169d6128949a8c612a10565b03600080516020614ed183398151915291a46104066001606555565b806128bd6128c392610511565b8061038b565b38612860565b6122aa565b604051636452a35d60e01b8152600490fd5b9050346128ce57826128f59130903390612a78565b612862565b50341515612827565b156129275742116129155738806127f6565b6040516325a63a5b60e01b8152600490fd5b60405163495d907f60e01b8152600490fd5b60405163582e388960e01b8152600490fd5b6129799192507f000000000000000000000000000000000000000000000000000000000000000016426129cd565b108f806127d7565b60405163f722177f60e01b8152600490fd5b604051632a58c4f360e01b8152600490fd5b634e487b7160e01b600052601160045260246000fd5b919082039182116129c857565b6129a5565b919082018092116129c857565b63ffffffff8091169081146129c85760010190565b908060209392818452848401376000828201840152601f01601f1916010190565b6001600160a01b03918216815291811660208301526040820192909252606081019290925263ffffffff928316608083015292821660a0820152921660c083015291821660e0820152911661010082015261014061012082018190526106cb939101916129ef565b6040516323b872dd60e01b60208201526001600160a01b03928316602482015292909116604483015260648083019390935291815261040691612aba82610544565b604051612b15916001600160a01b0316907f5361666545524332303a206c6f772d6c6576656c2063616c6c206661696c656490602090612af98161057a565b8181520152600080846020829651910182855af16123ab6124e1565b8051908115918215612b2c575b5050156125cf5750565b81925090602091810103126125d25760200151612b4881610b0f565b3880612b22565b9a969290989799939591612b616125d6565b60ff61086b5460e01c1661039657612b776105f2565b9b612b82908d612c53565b612b8f8a60208e01612c53565b612b9c9060408d01612c53565b60608b015260808a01524660a08a015260070b60c0890152600787900b60e08901526101009485890190612bd5919063ffffffff169052565b6101209581878a0152612be66105f2565b988952600060208a0190815260079890980b60408a0152612c0a9060608a01612c53565b608088015260a087015260c086015260e08501528301600090528201600090528151612c3590613eb9565b9052612c4081613f7c565b612c4991614b2e565b6104066001606555565b6001600160a01b039091169052565b9d9c9b959e93909698929a97919a612c786125d6565b60ff61086b5460e01c16610396578e97612c906105f2565b98612c9b908a612c53565b612ca89060208a01612c53565b612cb59060408901612c53565b6060870152608086018890524660a087015260070b60c086015260070b60e085015263ffffffff851661010085810191909152916101209384860152612cf96105f2565b948552600060208601908152600789900b6040870152949c898e60600190612d2091612c53565b8d8b608082015260a0015260c08d015260e08c01528a01600090528901600090528851612d4c90613eb9565b9052612d57966139bc565b612c4081613f7c565b356106cb8161049d565b356106cb816103e8565b91906101808382031261039657612d89610612565b92612d938161042f565b8452612da16020820161042f565b6020850152612db26040820161042f565b6040850152612dc36060820161042f565b6060850152612dd46080820161042f565b608085015260a081013560a085015260c081013560c085015260e081013560e0850152610100612e058183016104f0565b90850152610120612e178183016104f0565b90850152610140612e298183016104f0565b9085015261016091818301356001600160401b03811161039657612e4d92016106b0565b90830152565b903590601e198136030182121561039657018035906001600160401b0382116103965760200191813603831361039657565b9490969395612e926125d6565b60ff61086b5460e01c1661039657612ead6101408701612d60565b63ffffffff429116101580612f60575b610d1257612ecb3687612d74565b612ed490613edc565b97612edd6105d3565b98612ee83689612d74565b8a5260208a015260408901849052612f038560608b01612c53565b612f0e36848a610679565b60808a015260a0890152612f2186612d6a565b96612f2f6101008801612d60565b923690612f3b92610679565b943690612f4792610679565b9460e0013590612f5696613a2f565b33612c4991614554565b50612f6d60408701612d6a565b6001600160a01b0316331415612ebd565b634e487b7160e01b600052602160045260246000fd5b60031115612f9e57565b612f7e565b6001600160a01b03918216815291811660208301526040820192909252606081019290925263ffffffff92831660808301529290911660a082015291811660c083015291821660e0820152911661010082015261014061012082018190526106cb939101916129ef565b9a98959391999694929097996130216125d6565b6130296105f2565b9b613034908d612c53565b6130418960208e01612c53565b61304e9060408d01612c53565b60608b015260808a01524660a08a015260070b60c089015260070b60e088015263ffffffff166101008781019190915261012091808389015261308f6105f2565b978852602088019460008652604089016000905260608901906130b191612c53565b6080880152600060a08801526b1d6329f1c35ca4bfabb9f56160281b60c088015260001960e088015260019087015285015283516130ee90613eb9565b9052612d579183613c12565b91906131046125d6565b6020810191825146036132035761278561312c9183600161312488612098565b5001546132cd565b6131f1577ff8bd640004bcec1b89657020f561d0b070cbdf662d0b158db9dccb0a8301bfab606082019261316d613167855163ffffffff1690565b86613963565b80516131e48451926131c96131c260408801976131b28951966131948c5163ffffffff1690565b9760808401986131a48a516103dc565b9160a086019b8c51946135e3565b5192519751985163ffffffff1690565b93516103dc565b935160405194859463ffffffff8091169a1698339386613286565b0390a46104066001606555565b60405163582f497d60e11b8152600490fd5b604051633d23e4d160e11b8152600490fd5b90815180825260208080930193019160005b828110613235575050505090565b835185529381019392810192600101613227565b90815180825260208080930193019160005b828110613269575050505090565b83516001600160a01b03168552938101939281019260010161325b565b936132a8608094936132c693989798875260a0602088015260a0870190613215565b6001600160a01b039384166040870152858103606087015290613249565b9416910152565b6106cb929160405161335681613348602082019460208652805160408401526020810151606084015260a0613312604083015160c06080870152610100860190613215565b606083015163ffffffff168583015260808301516000196001841b011660c0860152910151838203603f190160e0850152613249565b03601f1981018352826105b0565b51902091929091906000915b84518310156133af5761337583866133c6565b519060008282101561339d575060005260205261339760406000205b926133b7565b91613362565b60409161339793825260205220613391565b915092501490565b60001981146129c85760010190565b80518210156120b75760209160051b010190565b9390926106cb96959260018060a01b038095168652600060208701526040860152606085015263ffffffff809116608085015260a0840152600060c08401521660e0820152600061010082015261014090816101208201520190611b95565b919596939492909261345961345461277e8861276f8b6111f5565b612294565b60070b936134786706f05b59d3b2000061347287612725565b10612294565b6134926a0c097ce7bc90715b34b9f160241b831115612294565b63ffffffff936134d16134a7868b16426129bb565b867f0000000000000000000000000000000000000000000000000000000000000000161015612294565b61086b5460c01c63ffffffff16986134f06134eb8b6129da565b61262e565b6001600160a01b03957f00000000000000000000000000000000000000000000000000000000000000008716948a8816808714806135da575b156135af575061353a813414612294565b853b1561039657600060049660405197888092630d0e30db60e41b825234905af180156128c957600080516020614ed183398151915299613597976135869261359c575b505b82613e82565b91604051988998169c169a876133da565b0390a4565b806128bd6135a992610511565b3861357e565b6135979650600080516020614ed1833981519152996135d5836135869330903390612a78565b613580565b50341515613529565b92949391909380518251036136bb5781519160005b83811061366957505050508261360f575b50505050565b63ffffffff816136407f828fc203220356df8f072a91681caee7d5c75095e2a95e80ed5a14b384697f71938661377b565b604080519586523360208701526001600160a01b0391909116959190911693a438808080613609565b8061367761368392846133c6565b518061368857506133b7565b6135f8565b6136b5906136a661369984886133c6565b516001600160a01b031690565b6001600160a01b0389166136e8565b38611cc1565b6040516319a5316760e31b8152600490fd5b6001600160a01b039091168152602081019190915260400190565b612aba610406939261370f60405194859263a9059cbb60e01b6020850152602484016136cd565b03601f1981018452836105b0565b602081830312610396578051906001600160401b038211610396570181601f8201121561039657805161374f8161065e565b9261375d60405194856105b0565b81845260208284010111610396576106cb9160208085019101611b72565b906001600160a01b03907f000000000000000000000000000000000000000000000000000000000000000082161515806138a4575b156137cc575050610406906137c761086a546103dc565b614c7c565b6001600160a01b03166000908152610c5b602052604081206138779391929061380a9061380090546001600160a01b031690565b9182161515612294565b61382161381c61381c610c5a546103dc565b6103dc565b908361382f61086a546103dc565b604051637b3a3c8b60e01b81526001600160a01b03938416600482015292166024830152604482019390935260806064820152600060848201529384928391829060a4820190565b03925af180156128c9576138885750565b6123b1903d806000833e61389c81836105b0565b81019061371d565b50817f000000000000000000000000000000000000000000000000000000000000000016828216146137b0565b6001600160a01b031680156103965761086980546001600160a01b031916821790557fa9e8c42c9e7fca7f62755189a16b2f5314d43d8fb24e91ba54e6d65f9314e849600080a2565b6001600160a01b031680156103965761086a80546001600160a01b031916821790557f1f17a88f67b0f49060a34bec1a4723a563620e6aa265eb640b5046dcee0759a0600080a2565b61396e600291612098565b500162ffffff8260081c168060005281602052600160ff60406000205494161b80809416146139aa576000526020526040600020908154179055565b60405163954476d960e01b8152600490fd5b9392613a2993610406979660208151910120906040519263ffffffff6020850195600080516020614f71833981519152875216604085015285606085015260070b608084015260018060a01b031660a083015260c082015260c08152613a2181610595565b519020614dee565b90613a91565b9392613a2993610406979660208151910120906040519263ffffffff6020850195600080516020614f918339815191528752166040850152856060850152608084015260018060a01b031660a083015260c082015260c08152613a2181610595565b9190613a9d8282613b62565b9390926005851015612f9e5761040694159384613b4c575b508315613ac5575b505050612294565b6000929350908291604051613afe816133486020820194630b135d3f60e11b998a87526024840152604060448401526064830190611b95565b51915afa90613b0b6124e1565b82613b3e575b82613b21575b5050388080613abd565b613b369192506020808251830101910161229b565b143880613b17565b915060208251101591613b11565b6001600160a01b03838116911614935038613ab5565b906041815114600014613b9057613b8c916020820151906060604084015193015160001a90613b9a565b9091565b5050600090600290565b9291906fa2a8918ca85bafe22016d0b997e4df60600160ff1b038311613c065791608094939160ff602094604051948552168484015260408301526060820152600093849182805260015afa156128c95781516001600160a01b03811615613c00579190565b50600190565b50505050600090600390565b80516101209091015160408051808201959492939092916001600160401b0387118488101761052457613c5a613c7b9361335693612294998452865260208601968752612098565b50549481519384926020840196602088525190808501526080840190613c90565b9051606083015203601f1981018352826105b0565b906106cb91613ca0828251611283565b613cb260208201516020840190611283565b613cc460408201516040840190611283565b606081015160608301526080810151608083015260a081015160a0830152613cf660c082015160c084019060070b9052565b60e08181015160070b908301526101008181015163ffffffff1690830152610120809101519161014080928201520190611b95565b9161278590613da492845160408096015191865191613d4983610529565b8252613356613d646020840192468452898501958652612098565b5054938851928391613d896020840196602088525160608d86015260a0850190613dbb565b9151606084015251608083015203601f1981018352826105b0565b613dab5750565b5163582f497d60e11b8152600490fd5b906106cb91613dcb828251611283565b613ddd60208201516020840190611283565b613def60408201516040840190611283565b613e0160608201516060840190611283565b613e1360808201516080840190611283565b60a081015160a083015260c081015160c083015260e081015160e0830152613e49610100808301519084019063ffffffff169052565b6101208181015163ffffffff16908301526101408181015163ffffffff1690830152610160809101519161018080928201520190611b95565b90670de0b6b3a76400009160008284039212838312811690848413901516176129c8578181029181830414901517156129c8570490565b604051613ed6816133486020820194602086526040830190613c90565b51902090565b604051613ed681613ef96020820194604086526060830190613dbb565b46604083015203601f1981018352826105b0565b600791820b910b019060016001603f1b0319821260016001603f1b038313176129c857565b600160ff1b81146129c85760000390565b6001600160a01b039182168152602081019290925291151560408201529116606082015260a0608082018190526106cb92910190611b95565b908151916040810192613fbb6706f05b59d3b2000080613fae613fa9613fa3895160070b90565b60070b90565b612725565b1090816143115750612294565b60608101613fda6a0c097ce7bc90715b34b9f160241b82511115612294565b6020830190613ff5613fec8351611221565b54825111612294565b60c084019283519661402560c083019861401f6140138b5160070b90565b845160070b5b90613f0d565b9061432e565b97614031891515612294565b61404784516140408751611221565b54906129bb565b898110614307575b50613fa361407692614019614068614070945160070b90565b915160070b90565b88613e82565b93610120860151806142b5575b505060a08501518786519160a0830151149182156142a7575b5050801561428e575b6140ae90612294565b6140b88351611221565b6140c38882546129cd565b905560608501916140d483516103dc565b926001600160a01b0392338486161480614277575b61426d57906040614162920194878561410288516103dc565b16917f000000000000000000000000000000000000000000000000000000000000000087168303614224575050506141416127856101008a0151151590565b614205575b61415c8761415761381c84516103dc565b61437f565b516103dc565b91823b1515806141f7575b61417b575b50505050505050565b61418d614194916080941694516103dc565b9451611221565b549051111594015193813b1561039657600080946141ca604051978896879586946301d43f2760e31b8652339260048701613f43565b03925af180156128c9576141e4575b808080808080614172565b806128bd6141f192610511565b386141d9565b50608087015151151561416d565b61421f8761421661381c88516103dc565b30903390612a78565b614146565b6142356127856101008d0151151590565b15614264575061425f915061424d61381c88516103dc565b61425784516103dc565b903390612a78565b61415c565b61425f926136e8565b5050505050505050565b506142896127856101008a0151151590565b6140e9565b506140ae6142a0610100870151151590565b90506140a5565b60600151149050873861409c565b61430091956142f06142f6926142d6670de0b6b3a763ffff19821215612294565b6142eb68056bc75e2d63100000821315612294565b613f32565b90613e82565b9451851115612294565b3880614083565b9850613fa361404f565b9050614327613fa9613fa360c086015160070b90565b103861215e565b670de0b6b3a76400009181830291838304036129c85760070b8083039260008212818512811690828613901516176129c85714614369570490565b634e487b7160e01b600052601260045260246000fd5b6001600160a01b039081169190823b156143bf5791610406927f0000000000000000000000000000000000000000000000000000000000000000166136e8565b7f00000000000000000000000000000000000000000000000000000000000000001691823b15610396576040518093632e1a7d4d60e01b82528360048301528160246000968780945af180156128c957614439575b50814710614435578280809381935af161442c6124e1565b50156125cf5750565b8280fd5b61444290610511565b38614414565b61445182612f94565b52565b9060018060a01b03825116815260608061447d6020850151608060208601526080850190611b95565b936040810151604085015201519161449483612f94565b015290565b9a979192966144fb956145189a9560606106cb9f9d99948f909b6145069c60018060a01b03998a80921684521660208301526040820152015260808d015263ffffffff80921660a08d01521660c08b01521660e0890152610100880190611283565b610120860190611283565b61018080610140860152840190611b95565b91610160818403910152614454565b906106cb949360809360018060a01b03809316845260208401521660408201528160608201520190611b95565b80519161012083019061456b825163ffffffff1690565b63ffffffff42911610611a1a576020830151600161458882611210565b54600091036147ee57506001905b60026145a182611210565b54146147dc576145b090611210565b6002905560608501516145c2906103dc565b60808601516145d0906103dc565b9260a0870151918660c0890151948960a08301519660e0820151976101008301516145fe9063ffffffff1690565b9a5163ffffffff1661014084015163ffffffff16906040850151614621906103dc565b92855161462d906103dc565b94602087015161463c906103dc565b9661016001519760608a0151614651906103dc565b996080810151906040015190614665610632565b9b614670908d612c53565b60208c015260408b01526146879060608b01614448565b6040516001600160a01b03909b169e63ffffffff169d9a9b8c9b6146ab9b8d614499565b03600080516020614f1183398151915291a460608101516146cb906103dc565b6001600160a01b03811692338414806147d4575b6136095760806146f09101516103dc565b6040830151909390926080906001600160a01b0380871690869086907f00000000000000000000000000000000000000000000000000000000000000001683036147c457506147429130903390612a78565b61474c858461437f565b0151913b1515806147ba575b6147625750505050565b803b1561039657614790936000809460405196879586948593633a5be8cb60e01b8552339160048601614527565b03925af180156128c9576147a7575b808080613609565b806128bd6147b492610511565b3861479f565b5081511515614758565b6147cf923390612a78565b61474c565b5060016146df565b604051630479306360e51b8152600490fd5b90614596565b9060008251610120810161480c815163ffffffff1690565b63ffffffff42911610611a1a57602085015190600261482a83611210565b54146147dc5761483a8492611210565b60029055606083015161484c906103dc565b608084015161485a906103dc565b9160a08501519060c0860151928960a0810151948860e0810151966101008201516148889063ffffffff1690565b955163ffffffff1661014083015163ffffffff1660408401516148aa906103dc565b9184516148b6906103dc565b9360208601516148c5906103dc565b9561016001519660608901516148da906103dc565b9860808101519060400151906148ee610632565b9a6148f9908c612c53565b60208b015260408a0152600260608a01526040519b63ffffffff8d9c169e6149219b8d614499565b03600080516020614f1183398151915291a46060840151614941906103dc565b6001600160a01b03949091858316919033831480614a63575b614a5a57608061496b9101516103dc565b9060408101519687818416917f0000000000000000000000000000000000000000000000000000000000000000168214600014614a4757906080929187614a33575b6149b891508561437f565b0151923b151580614a29575b6149d1575b505050509050565b813b1561189457836149fd959660405196879586948593633a5be8cb60e01b8552339160048601614527565b03925af180156128c957614a16575b80808084936149c9565b806128bd614a2392610511565b38614a0c565b50825115156149c4565b614a409130903390612a78565b38886149ad565b614a559086608094936136e8565b6149b8565b50505050509050565b508461495a565b9060018060a01b038251168152608080614a93602085015160a0602086015260a0850190611b95565b93604081015160070b6040850152606081015115156060850152015191015290565b9a979491926106cb9c9a9693614b1f9a9895928d5260208d015260408c015260608b015260808a015260070b60a089015260070b60c088015260018060a01b03928380921660e0890152166101008701521661012085015261018080610140860152840190611b95565b91610160818403910152614a6a565b906040820151614b3e9060070b90565b916060810151614b4d906103dc565b906080810151936101009485830151614b6590151590565b610120928385015192614b76610651565b96614b819088612c53565b602087015260070b60408601521515606085015260808401528151606001516020830151614bae90611221565b549360a084015193519460808601519560a08101519160e0820151614bd39060070b90565b60c083015160070b9a83015163ffffffff169a6040840151614bf4906103dc565b918451614c00906103dc565b986020860151614c0f906103dc565b950151956040519a8b9a600160a01b60019003169e63ffffffff169d3396614c379b8d614ab5565b037f8ab9dc6c19fe88e69bc70221b339c84332752fdd49591b7c51e66bae3947b73c91a4565b9081602091031261039657516001600160401b03811681036103965790565b604051636eb1769f60e11b81523060048201526001600160a01b037f00000000000000000000000000000000000000000000000000000000000000008116602483018190526020947f00000000000000000000000000000000000000000000000000000000000000008084169591939187866044818a5afa9586156128c95761370f600093612aba614d1b898d9b614d37968991614dd1575b506129cd565b60405163095ea7b360e01b8c8201529384918a602484016136cd565b6040516337e9a82760e11b815260048101959095527f000000000000000000000000000000000000000000000000000000000000000063ffffffff1660248601529190911660448401526001600160a01b039490941660648301529092839160849183915af180156128c957614dab575050565b816123b192903d10614dca575b614dc281836105b0565b810190614c5d565b503d614db8565b614de891508d803d106123e5576123d681836105b0565b38614d15565b60429161047f549061048054906040519160208301937fc2f8787176b8ac6bf7215b4adcc1e069bf4ab82d9ab1df05a57a91d425935b6e855260408401526060830152608082015260808152614e4381610544565b519020906040519161190160f01b8352600283015260228201522090565b90614e6b826106ce565b614e7860405191826105b0565b8281528092614e89601f19916106ce565b019060005b828110614e9a57505050565b806060602080938501015201614e8e565b908210156120b757613b8c9160051b810190612e53565b90809291823701600081529056fea123dc29aebf7d0c3322c8eeb5b999e859f39937950ed31056532713d0de396f4910fdfa16fed3260ed0e7147f7cc6da11a60208b5b9406d12a635614ffd9143571749edf1d5c9599318cdbc4e28a6475d65e87fd3b2ddbe1e9a8d5e7a0f0ff7360894a13ba1a3210667c828492db98dca3e2076cc3735a920a3ca505d382bbcbc7cd75a20ee27fd9adebab32041f755214dbc6bffa90cc0225b39da2e5c2d3b0e058f05b73c62ee68329d2c67c067aaae9a06503cc306378d144d0f0177882b152eb71524aef34d838ab76573c14b1ebfa5e385d9ab29d7cf5398daa2438bd9a264697066735822122070918206fba1f6c9179d12e1f32f964e48694c4602007599ab202313f13dacc864736f6c63430008130033"
}