{
  "address": "0x2a5A4eD1220f64714d4a7c3B3BD6188957764C9A",
  "abi": [
    {
      "inputs": [
        {
          "internalType": "address",
          "name": "_wrappedNativeTokenAddress",
          "type": "address"
        },
        {
          "internalType": "uint32",
          "name": "_depositQuoteTimeBuffer",
          "type": "uint32"
        },
        {
          "internalType": "uint32",
          "name": "_fillDeadlineBuffer",
          "type": "uint32"
        },
        {
          "internalType": "contract IERC20",
          "name": "_l2Usdc",
          "type": "address"
        },
        {
          "internalType": "contract ITokenMessenger",
          "name": "_cctpTokenMessenger",
          "type": "address"
        },
        {
          "internalType": "uint32",
          "name": "_oftDstEid",
          "type": "uint32"
        },
        {
          "internalType": "uint256",
          "name": "_oftFeeCap",
          "type": "uint256"
        }
      ],
      "stateMutability": "nonpayable",
      "type": "constructor"
    },
    {
      "inputs": [],
      "name": "ClaimedMerkleLeaf",
      "type": "error"
    },
    {
      "inputs": [],
      "name": "DepositsArePaused",
      "type": "error"
    },
    {
      "inputs": [],
      "name": "DisabledRoute",
      "type": "error"
    },
    {
      "inputs": [],
      "name": "ExpiredFillDeadline",
      "type": "error"
    },
    {
      "inputs": [],
      "name": "FillsArePaused",
      "type": "error"
    },
    {
      "inputs": [],
      "name": "InsufficientSpokePoolBalanceToExecuteLeaf",
      "type": "error"
    },
    {
      "inputs": [],
      "name": "InvalidBytes32",
      "type": "error"
    },
    {
      "inputs": [],
      "name": "InvalidChainId",
      "type": "error"
    },
    {
      "inputs": [],
      "name": "InvalidCrossDomainAdmin",
      "type": "error"
    },
    {
      "inputs": [],
      "name": "InvalidDepositorSignature",
      "type": "error"
    },
    {
      "inputs": [],
      "name": "InvalidExclusiveRelayer",
      "type": "error"
    },
    {
      "inputs": [],
      "name": "InvalidFillDeadline",
      "type": "error"
    },
    {
      "inputs": [],
      "name": "InvalidMerkleLeaf",
      "type": "error"
    },
    {
      "inputs": [],
      "name": "InvalidMerkleProof",
      "type": "error"
    },
    {
      "inputs": [],
      "name": "InvalidPayoutAdjustmentPct",
      "type": "error"
    },
    {
      "inputs": [],
      "name": "InvalidQuoteTimestamp",
      "type": "error"
    },
    {
      "inputs": [],
      "name": "InvalidRelayerFeePct",
      "type": "error"
    },
    {
      "inputs": [],
      "name": "InvalidSlowFillRequest",
      "type": "error"
    },
    {
      "inputs": [],
      "name": "InvalidWithdrawalRecipient",
      "type": "error"
    },
    {
      "inputs": [
        {
          "internalType": "bytes",
          "name": "data",
          "type": "bytes"
        }
      ],
      "name": "LowLevelCallFailed",
      "type": "error"
    },
    {
      "inputs": [],
      "name": "MaxTransferSizeExceeded",
      "type": "error"
    },
    {
      "inputs": [],
      "name": "MsgValueDoesNotMatchInputAmount",
      "type": "error"
    },
    {
      "inputs": [],
      "name": "NoRelayerRefundToClaim",
      "type": "error"
    },
    {
      "inputs": [],
      "name": "NoSlowFillsInExclusivityWindow",
      "type": "error"
    },
    {
      "inputs": [],
      "name": "NotEOA",
      "type": "error"
    },
    {
      "inputs": [],
      "name": "NotExclusiveRelayer",
      "type": "error"
    },
    {
      "inputs": [],
      "name": "OFTTokenMismatch",
      "type": "error"
    },
    {
      "inputs": [],
      "name": "OftFeeCapExceeded",
      "type": "error"
    },
    {
      "inputs": [],
      "name": "OftIncorrectAmountReceivedLD",
      "type": "error"
    },
    {
      "inputs": [],
      "name": "OftIncorrectAmountSentLD",
      "type": "error"
    },
    {
      "inputs": [],
      "name": "OftInsufficientBalanceForFee",
      "type": "error"
    },
    {
      "inputs": [],
      "name": "OftLzFeeNotZero",
      "type": "error"
    },
    {
      "inputs": [],
      "name": "RelayFilled",
      "type": "error"
    },
    {
      "inputs": [],
      "name": "WrongERC7683OrderId",
      "type": "error"
    },
    {
      "anonymous": false,
      "inputs": [
        {
          "indexed": false,
          "internalType": "address",
          "name": "previousAdmin",
          "type": "address"
        },
        {
          "indexed": false,
          "internalType": "address",
          "name": "newAdmin",
          "type": "address"
        }
      ],
      "name": "AdminChanged",
      "type": "event"
    },
    {
      "anonymous": false,
      "inputs": [
        {
          "indexed": true,
          "internalType": "address",
          "name": "beacon",
          "type": "address"
        }
      ],
      "name": "BeaconUpgraded",
      "type": "event"
    },
    {
      "anonymous": false,
      "inputs": [
        {
          "indexed": true,
          "internalType": "bytes32",
          "name": "l2TokenAddress",
          "type": "bytes32"
        },
        {
          "indexed": true,
          "internalType": "bytes32",
          "name": "refundAddress",
          "type": "bytes32"
        },
        {
          "indexed": false,
          "internalType": "uint256",
          "name": "amount",
          "type": "uint256"
        },
        {
          "indexed": true,
          "internalType": "address",
          "name": "caller",
          "type": "address"
        }
      ],
      "name": "ClaimedRelayerRefund",
      "type": "event"
    },
    {
      "anonymous": false,
      "inputs": [
        {
          "indexed": true,
          "internalType": "uint256",
          "name": "rootBundleId",
          "type": "uint256"
        }
      ],
      "name": "EmergencyDeletedRootBundle",
      "type": "event"
    },
    {
      "anonymous": false,
      "inputs": [
        {
          "indexed": true,
          "internalType": "address",
          "name": "originToken",
          "type": "address"
        },
        {
          "indexed": true,
          "internalType": "uint256",
          "name": "destinationChainId",
          "type": "uint256"
        },
        {
          "indexed": false,
          "internalType": "bool",
          "name": "enabled",
          "type": "bool"
        }
      ],
      "name": "EnabledDepositRoute",
      "type": "event"
    },
    {
      "anonymous": false,
      "inputs": [
        {
          "indexed": false,
          "internalType": "uint256",
          "name": "amountToReturn",
          "type": "uint256"
        },
        {
          "indexed": true,
          "internalType": "uint256",
          "name": "chainId",
          "type": "uint256"
        },
        {
          "indexed": false,
          "internalType": "uint256[]",
          "name": "refundAmounts",
          "type": "uint256[]"
        },
        {
          "indexed": true,
          "internalType": "uint32",
          "name": "rootBundleId",
          "type": "uint32"
        },
        {
          "indexed": true,
          "internalType": "uint32",
          "name": "leafId",
          "type": "uint32"
        },
        {
          "indexed": false,
          "internalType": "address",
          "name": "l2TokenAddress",
          "type": "address"
        },
        {
          "indexed": false,
          "internalType": "address[]",
          "name": "refundAddresses",
          "type": "address[]"
        },
        {
          "indexed": false,
          "internalType": "bool",
          "name": "deferredRefunds",
          "type": "bool"
        },
        {
          "indexed": false,
          "internalType": "address",
          "name": "caller",
          "type": "address"
        }
      ],
      "name": "ExecutedRelayerRefundRoot",
      "type": "event"
    },
    {
      "anonymous": false,
      "inputs": [
        {
          "indexed": false,
          "internalType": "bytes32",
          "name": "inputToken",
          "type": "bytes32"
        },
        {
          "indexed": false,
          "internalType": "bytes32",
          "name": "outputToken",
          "type": "bytes32"
        },
        {
          "indexed": false,
          "internalType": "uint256",
          "name": "inputAmount",
          "type": "uint256"
        },
        {
          "indexed": false,
          "internalType": "uint256",
          "name": "outputAmount",
          "type": "uint256"
        },
        {
          "indexed": false,
          "internalType": "uint256",
          "name": "repaymentChainId",
          "type": "uint256"
        },
        {
          "indexed": true,
          "internalType": "uint256",
          "name": "originChainId",
          "type": "uint256"
        },
        {
          "indexed": true,
          "internalType": "uint256",
          "name": "depositId",
          "type": "uint256"
        },
        {
          "indexed": false,
          "internalType": "uint32",
          "name": "fillDeadline",
          "type": "uint32"
        },
        {
          "indexed": false,
          "internalType": "uint32",
          "name": "exclusivityDeadline",
          "type": "uint32"
        },
        {
          "indexed": false,
          "internalType": "bytes32",
          "name": "exclusiveRelayer",
          "type": "bytes32"
        },
        {
          "indexed": true,
          "internalType": "bytes32",
          "name": "relayer",
          "type": "bytes32"
        },
        {
          "indexed": false,
          "internalType": "bytes32",
          "name": "depositor",
          "type": "bytes32"
        },
        {
          "indexed": false,
          "internalType": "bytes32",
          "name": "recipient",
          "type": "bytes32"
        },
        {
          "indexed": false,
          "internalType": "bytes32",
          "name": "messageHash",
          "type": "bytes32"
        },
        {
          "components": [
            {
              "internalType": "bytes32",
              "name": "updatedRecipient",
              "type": "bytes32"
            },
            {
              "internalType": "bytes32",
              "name": "updatedMessageHash",
              "type": "bytes32"
            },
            {
              "internalType": "uint256",
              "name": "updatedOutputAmount",
              "type": "uint256"
            },
            {
              "internalType": "enum V3SpokePoolInterface.FillType",
              "name": "fillType",
              "type": "uint8"
            }
          ],
          "indexed": false,
          "internalType": "struct V3SpokePoolInterface.V3RelayExecutionEventInfo",
          "name": "relayExecutionInfo",
          "type": "tuple"
        }
      ],
      "name": "FilledRelay",
      "type": "event"
    },
    {
      "anonymous": false,
      "inputs": [
        {
          "indexed": false,
          "internalType": "address",
          "name": "inputToken",
          "type": "address"
        },
        {
          "indexed": false,
          "internalType": "address",
          "name": "outputToken",
          "type": "address"
        },
        {
          "indexed": false,
          "internalType": "uint256",
          "name": "inputAmount",
          "type": "uint256"
        },
        {
          "indexed": false,
          "internalType": "uint256",
          "name": "outputAmount",
          "type": "uint256"
        },
        {
          "indexed": false,
          "internalType": "uint256",
          "name": "repaymentChainId",
          "type": "uint256"
        },
        {
          "indexed": true,
          "internalType": "uint256",
          "name": "originChainId",
          "type": "uint256"
        },
        {
          "indexed": true,
          "internalType": "uint32",
          "name": "depositId",
          "type": "uint32"
        },
        {
          "indexed": false,
          "internalType": "uint32",
          "name": "fillDeadline",
          "type": "uint32"
        },
        {
          "indexed": false,
          "internalType": "uint32",
          "name": "exclusivityDeadline",
          "type": "uint32"
        },
        {
          "indexed": false,
          "internalType": "address",
          "name": "exclusiveRelayer",
          "type": "address"
        },
        {
          "indexed": true,
          "internalType": "address",
          "name": "relayer",
          "type": "address"
        },
        {
          "indexed": false,
          "internalType": "address",
          "name": "depositor",
          "type": "address"
        },
        {
          "indexed": false,
          "internalType": "address",
          "name": "recipient",
          "type": "address"
        },
        {
          "indexed": false,
          "internalType": "bytes",
          "name": "message",
          "type": "bytes"
        },
        {
          "components": [
            {
              "internalType": "address",
              "name": "updatedRecipient",
              "type": "address"
            },
            {
              "internalType": "bytes",
              "name": "updatedMessage",
              "type": "bytes"
            },
            {
              "internalType": "uint256",
              "name": "updatedOutputAmount",
              "type": "uint256"
            },
            {
              "internalType": "enum V3SpokePoolInterface.FillType",
              "name": "fillType",
              "type": "uint8"
            }
          ],
          "indexed": false,
          "internalType": "struct V3SpokePoolInterface.LegacyV3RelayExecutionEventInfo",
          "name": "relayExecutionInfo",
          "type": "tuple"
        }
      ],
      "name": "FilledV3Relay",
      "type": "event"
    },
    {
      "anonymous": false,
      "inputs": [
        {
          "indexed": false,
          "internalType": "bytes32",
          "name": "inputToken",
          "type": "bytes32"
        },
        {
          "indexed": false,
          "internalType": "bytes32",
          "name": "outputToken",
          "type": "bytes32"
        },
        {
          "indexed": false,
          "internalType": "uint256",
          "name": "inputAmount",
          "type": "uint256"
        },
        {
          "indexed": false,
          "internalType": "uint256",
          "name": "outputAmount",
          "type": "uint256"
        },
        {
          "indexed": true,
          "internalType": "uint256",
          "name": "destinationChainId",
          "type": "uint256"
        },
        {
          "indexed": true,
          "internalType": "uint256",
          "name": "depositId",
          "type": "uint256"
        },
        {
          "indexed": false,
          "internalType": "uint32",
          "name": "quoteTimestamp",
          "type": "uint32"
        },
        {
          "indexed": false,
          "internalType": "uint32",
          "name": "fillDeadline",
          "type": "uint32"
        },
        {
          "indexed": false,
          "internalType": "uint32",
          "name": "exclusivityDeadline",
          "type": "uint32"
        },
        {
          "indexed": true,
          "internalType": "bytes32",
          "name": "depositor",
          "type": "bytes32"
        },
        {
          "indexed": false,
          "internalType": "bytes32",
          "name": "recipient",
          "type": "bytes32"
        },
        {
          "indexed": false,
          "internalType": "bytes32",
          "name": "exclusiveRelayer",
          "type": "bytes32"
        },
        {
          "indexed": false,
          "internalType": "bytes",
          "name": "message",
          "type": "bytes"
        }
      ],
      "name": "FundsDeposited",
      "type": "event"
    },
    {
      "anonymous": false,
      "inputs": [
        {
          "indexed": false,
          "internalType": "uint8",
          "name": "version",
          "type": "uint8"
        }
      ],
      "name": "Initialized",
      "type": "event"
    },
    {
      "anonymous": false,
      "inputs": [
        {
          "indexed": false,
          "internalType": "bool",
          "name": "isPaused",
          "type": "bool"
        }
      ],
      "name": "PausedDeposits",
      "type": "event"
    },
    {
      "anonymous": false,
      "inputs": [
        {
          "indexed": false,
          "internalType": "bool",
          "name": "isPaused",
          "type": "bool"
        }
      ],
      "name": "PausedFills",
      "type": "event"
    },
    {
      "anonymous": false,
      "inputs": [
        {
          "indexed": true,
          "internalType": "uint32",
          "name": "rootBundleId",
          "type": "uint32"
        },
        {
          "indexed": true,
          "internalType": "bytes32",
          "name": "relayerRefundRoot",
          "type": "bytes32"
        },
        {
          "indexed": true,
          "internalType": "bytes32",
          "name": "slowRelayRoot",
          "type": "bytes32"
        }
      ],
      "name": "RelayedRootBundle",
      "type": "event"
    },
    {
      "anonymous": false,
      "inputs": [
        {
          "indexed": false,
          "internalType": "bytes32",
          "name": "inputToken",
          "type": "bytes32"
        },
        {
          "indexed": false,
          "internalType": "bytes32",
          "name": "outputToken",
          "type": "bytes32"
        },
        {
          "indexed": false,
          "internalType": "uint256",
          "name": "inputAmount",
          "type": "uint256"
        },
        {
          "indexed": false,
          "internalType": "uint256",
          "name": "outputAmount",
          "type": "uint256"
        },
        {
          "indexed": true,
          "internalType": "uint256",
          "name": "originChainId",
          "type": "uint256"
        },
        {
          "indexed": true,
          "internalType": "uint256",
          "name": "depositId",
          "type": "uint256"
        },
        {
          "indexed": false,
          "internalType": "uint32",
          "name": "fillDeadline",
          "type": "uint32"
        },
        {
          "indexed": false,
          "internalType": "uint32",
          "name": "exclusivityDeadline",
          "type": "uint32"
        },
        {
          "indexed": false,
          "internalType": "bytes32",
          "name": "exclusiveRelayer",
          "type": "bytes32"
        },
        {
          "indexed": false,
          "internalType": "bytes32",
          "name": "depositor",
          "type": "bytes32"
        },
        {
          "indexed": false,
          "internalType": "bytes32",
          "name": "recipient",
          "type": "bytes32"
        },
        {
          "indexed": false,
          "internalType": "bytes32",
          "name": "messageHash",
          "type": "bytes32"
        }
      ],
      "name": "RequestedSlowFill",
      "type": "event"
    },
    {
      "anonymous": false,
      "inputs": [
        {
          "indexed": false,
          "internalType": "uint256",
          "name": "updatedOutputAmount",
          "type": "uint256"
        },
        {
          "indexed": true,
          "internalType": "uint256",
          "name": "depositId",
          "type": "uint256"
        },
        {
          "indexed": true,
          "internalType": "bytes32",
          "name": "depositor",
          "type": "bytes32"
        },
        {
          "indexed": false,
          "internalType": "bytes32",
          "name": "updatedRecipient",
          "type": "bytes32"
        },
        {
          "indexed": false,
          "internalType": "bytes",
          "name": "updatedMessage",
          "type": "bytes"
        },
        {
          "indexed": false,
          "internalType": "bytes",
          "name": "depositorSignature",
          "type": "bytes"
        }
      ],
      "name": "RequestedSpeedUpDeposit",
      "type": "event"
    },
    {
      "anonymous": false,
      "inputs": [
        {
          "indexed": false,
          "internalType": "uint256",
          "name": "updatedOutputAmount",
          "type": "uint256"
        },
        {
          "indexed": true,
          "internalType": "uint32",
          "name": "depositId",
          "type": "uint32"
        },
        {
          "indexed": true,
          "internalType": "address",
          "name": "depositor",
          "type": "address"
        },
        {
          "indexed": false,
          "internalType": "address",
          "name": "updatedRecipient",
          "type": "address"
        },
        {
          "indexed": false,
          "internalType": "bytes",
          "name": "updatedMessage",
          "type": "bytes"
        },
        {
          "indexed": false,
          "internalType": "bytes",
          "name": "depositorSignature",
          "type": "bytes"
        }
      ],
      "name": "RequestedSpeedUpV3Deposit",
      "type": "event"
    },
    {
      "anonymous": false,
      "inputs": [
        {
          "indexed": false,
          "internalType": "address",
          "name": "inputToken",
          "type": "address"
        },
        {
          "indexed": false,
          "internalType": "address",
          "name": "outputToken",
          "type": "address"
        },
        {
          "indexed": false,
          "internalType": "uint256",
          "name": "inputAmount",
          "type": "uint256"
        },
        {
          "indexed": false,
          "internalType": "uint256",
          "name": "outputAmount",
          "type": "uint256"
        },
        {
          "indexed": true,
          "internalType": "uint256",
          "name": "originChainId",
          "type": "uint256"
        },
        {
          "indexed": true,
          "internalType": "uint32",
          "name": "depositId",
          "type": "uint32"
        },
        {
          "indexed": false,
          "internalType": "uint32",
          "name": "fillDeadline",
          "type": "uint32"
        },
        {
          "indexed": false,
          "internalType": "uint32",
          "name": "exclusivityDeadline",
          "type": "uint32"
        },
        {
          "indexed": false,
          "internalType": "address",
          "name": "exclusiveRelayer",
          "type": "address"
        },
        {
          "indexed": false,
          "internalType": "address",
          "name": "depositor",
          "type": "address"
        },
        {
          "indexed": false,
          "internalType": "address",
          "name": "recipient",
          "type": "address"
        },
        {
          "indexed": false,
          "internalType": "bytes",
          "name": "message",
          "type": "bytes"
        }
      ],
      "name": "RequestedV3SlowFill",
      "type": "event"
    },
    {
      "anonymous": false,
      "inputs": [
        {
          "indexed": true,
          "internalType": "address",
          "name": "newL2GatewayRouter",
          "type": "address"
        }
      ],
      "name": "SetL2GatewayRouter",
      "type": "event"
    },
    {
      "anonymous": false,
      "inputs": [
        {
          "indexed": true,
          "internalType": "address",
          "name": "token",
          "type": "address"
        },
        {
          "indexed": true,
          "internalType": "address",
          "name": "messenger",
          "type": "address"
        }
      ],
      "name": "SetOFTMessenger",
      "type": "event"
    },
    {
      "anonymous": false,
      "inputs": [
        {
          "indexed": true,
          "internalType": "address",
          "name": "newWithdrawalRecipient",
          "type": "address"
        }
      ],
      "name": "SetWithdrawalRecipient",
      "type": "event"
    },
    {
      "anonymous": false,
      "inputs": [
        {
          "indexed": true,
          "internalType": "address",
          "name": "newAdmin",
          "type": "address"
        }
      ],
      "name": "SetXDomainAdmin",
      "type": "event"
    },
    {
      "anonymous": false,
      "inputs": [
        {
          "indexed": false,
          "internalType": "uint256",
          "name": "amountToReturn",
          "type": "uint256"
        },
        {
          "indexed": true,
          "internalType": "uint256",
          "name": "chainId",
          "type": "uint256"
        },
        {
          "indexed": true,
          "internalType": "uint32",
          "name": "leafId",
          "type": "uint32"
        },
        {
          "indexed": true,
          "internalType": "bytes32",
          "name": "l2TokenAddress",
          "type": "bytes32"
        },
        {
          "indexed": false,
          "internalType": "address",
          "name": "caller",
          "type": "address"
        }
      ],
      "name": "TokensBridged",
      "type": "event"
    },
    {
      "anonymous": false,
      "inputs": [
        {
          "indexed": true,
          "internalType": "address",
          "name": "implementation",
          "type": "address"
        }
      ],
      "name": "Upgraded",
      "type": "event"
    },
    {
      "anonymous": false,
      "inputs": [
        {
          "indexed": false,
          "internalType": "address",
          "name": "inputToken",
          "type": "address"
        },
        {
          "indexed": false,
          "internalType": "address",
          "name": "outputToken",
          "type": "address"
        },
        {
          "indexed": false,
          "internalType": "uint256",
          "name": "inputAmount",
          "type": "uint256"
        },
        {
          "indexed": false,
          "internalType": "uint256",
          "name": "outputAmount",
          "type": "uint256"
        },
        {
          "indexed": true,
          "internalType": "uint256",
          "name": "destinationChainId",
          "type": "uint256"
        },
        {
          "indexed": true,
          "internalType": "uint32",
          "name": "depositId",
          "type": "uint32"
        },
        {
          "indexed": false,
          "internalType": "uint32",
          "name": "quoteTimestamp",
          "type": "uint32"
        },
        {
          "indexed": false,
          "internalType": "uint32",
          "name": "fillDeadline",
          "type": "uint32"
        },
        {
          "indexed": false,
          "internalType": "uint32",
          "name": "exclusivityDeadline",
          "type": "uint32"
        },
        {
          "indexed": true,
          "internalType": "address",
          "name": "depositor",
          "type": "address"
        },
        {
          "indexed": false,
          "internalType": "address",
          "name": "recipient",
          "type": "address"
        },
        {
          "indexed": false,
          "internalType": "address",
          "name": "exclusiveRelayer",
          "type": "address"
        },
        {
          "indexed": false,
          "internalType": "bytes",
          "name": "message",
          "type": "bytes"
        }
      ],
      "name": "V3FundsDeposited",
      "type": "event"
    },
    {
      "anonymous": false,
      "inputs": [
        {
          "indexed": true,
          "internalType": "address",
          "name": "l2Token",
          "type": "address"
        },
        {
          "indexed": true,
          "internalType": "address",
          "name": "l1Token",
          "type": "address"
        }
      ],
      "name": "WhitelistedTokens",
      "type": "event"
    },
    {
      "inputs": [],
      "name": "EMPTY_MSG_BYTES",
      "outputs": [
        {
          "internalType": "bytes",
          "name": "",
          "type": "bytes"
        }
      ],
      "stateMutability": "view",
      "type": "function"
    },
    {
      "inputs": [],
      "name": "EMPTY_RELAYER",
      "outputs": [
        {
          "internalType": "bytes32",
          "name": "",
          "type": "bytes32"
        }
      ],
      "stateMutability": "view",
      "type": "function"
    },
    {
      "inputs": [],
      "name": "EMPTY_REPAYMENT_CHAIN_ID",
      "outputs": [
        {
          "internalType": "uint256",
          "name": "",
          "type": "uint256"
        }
      ],
      "stateMutability": "view",
      "type": "function"
    },
    {
      "inputs": [],
      "name": "INFINITE_FILL_DEADLINE",
      "outputs": [
        {
          "internalType": "uint32",
          "name": "",
          "type": "uint32"
        }
      ],
      "stateMutability": "view",
      "type": "function"
    },
    {
      "inputs": [],
      "name": "MAX_EXCLUSIVITY_PERIOD_SECONDS",
      "outputs": [
        {
          "internalType": "uint32",
          "name": "",
          "type": "uint32"
        }
      ],
      "stateMutability": "view",
      "type": "function"
    },
    {
      "inputs": [],
      "name": "MAX_TRANSFER_SIZE",
      "outputs": [
        {
          "internalType": "uint256",
          "name": "",
          "type": "uint256"
        }
      ],
      "stateMutability": "view",
      "type": "function"
    },
    {
      "inputs": [],
      "name": "OFT_DST_EID",
      "outputs": [
        {
          "internalType": "uint32",
          "name": "",
          "type": "uint32"
        }
      ],
      "stateMutability": "view",
      "type": "function"
    },
    {
      "inputs": [],
      "name": "OFT_FEE_CAP",
      "outputs": [
        {
          "internalType": "uint256",
          "name": "",
          "type": "uint256"
        }
      ],
      "stateMutability": "view",
      "type": "function"
    },
    {
      "inputs": [],
      "name": "UPDATE_BYTES32_DEPOSIT_DETAILS_HASH",
      "outputs": [
        {
          "internalType": "bytes32",
          "name": "",
          "type": "bytes32"
        }
      ],
      "stateMutability": "view",
      "type": "function"
    },
    {
      "inputs": [
        {
          "internalType": "uint32",
          "name": "_initialDepositId",
          "type": "uint32"
        },
        {
          "internalType": "address",
          "name": "_crossDomainAdmin",
          "type": "address"
        },
        {
          "internalType": "address",
          "name": "_withdrawalRecipient",
          "type": "address"
        }
      ],
      "name": "__SpokePool_init",
      "outputs": [],
      "stateMutability": "nonpayable",
      "type": "function"
    },
    {
      "inputs": [],
      "name": "cctpTokenMessenger",
      "outputs": [
        {
          "internalType": "contract ITokenMessenger",
          "name": "",
          "type": "address"
        }
      ],
      "stateMutability": "view",
      "type": "function"
    },
    {
      "inputs": [],
      "name": "cctpV2",
      "outputs": [
        {
          "internalType": "bool",
          "name": "",
          "type": "bool"
        }
      ],
      "stateMutability": "view",
      "type": "function"
    },
    {
      "inputs": [],
      "name": "chainId",
      "outputs": [
        {
          "internalType": "uint256",
          "name": "",
          "type": "uint256"
        }
      ],
      "stateMutability": "view",
      "type": "function"
    },
    {
      "inputs": [
        {
          "internalType": "bytes32",
          "name": "l2TokenAddress",
          "type": "bytes32"
        },
        {
          "internalType": "bytes32",
          "name": "refundAddress",
          "type": "bytes32"
        }
      ],
      "name": "claimRelayerRefund",
      "outputs": [],
      "stateMutability": "nonpayable",
      "type": "function"
    },
    {
      "inputs": [],
      "name": "crossDomainAdmin",
      "outputs": [
        {
          "internalType": "address",
          "name": "",
          "type": "address"
        }
      ],
      "stateMutability": "view",
      "type": "function"
    },
    {
      "inputs": [
        {
          "internalType": "bytes32",
          "name": "depositor",
          "type": "bytes32"
        },
        {
          "internalType": "bytes32",
          "name": "recipient",
          "type": "bytes32"
        },
        {
          "internalType": "bytes32",
          "name": "inputToken",
          "type": "bytes32"
        },
        {
          "internalType": "bytes32",
          "name": "outputToken",
          "type": "bytes32"
        },
        {
          "internalType": "uint256",
          "name": "inputAmount",
          "type": "uint256"
        },
        {
          "internalType": "uint256",
          "name": "outputAmount",
          "type": "uint256"
        },
        {
          "internalType": "uint256",
          "name": "destinationChainId",
          "type": "uint256"
        },
        {
          "internalType": "bytes32",
          "name": "exclusiveRelayer",
          "type": "bytes32"
        },
        {
          "internalType": "uint32",
          "name": "quoteTimestamp",
          "type": "uint32"
        },
        {
          "internalType": "uint32",
          "name": "fillDeadline",
          "type": "uint32"
        },
        {
          "internalType": "uint32",
          "name": "exclusivityParameter",
          "type": "uint32"
        },
        {
          "internalType": "bytes",
          "name": "message",
          "type": "bytes"
        }
      ],
      "name": "deposit",
      "outputs": [],
      "stateMutability": "payable",
      "type": "function"
    },
    {
      "inputs": [
        {
          "internalType": "address",
          "name": "recipient",
          "type": "address"
        },
        {
          "internalType": "address",
          "name": "originToken",
          "type": "address"
        },
        {
          "internalType": "uint256",
          "name": "amount",
          "type": "uint256"
        },
        {
          "internalType": "uint256",
          "name": "destinationChainId",
          "type": "uint256"
        },
        {
          "internalType": "int64",
          "name": "relayerFeePct",
          "type": "int64"
        },
        {
          "internalType": "uint32",
          "name": "quoteTimestamp",
          "type": "uint32"
        },
        {
          "internalType": "bytes",
          "name": "message",
          "type": "bytes"
        },
        {
          "internalType": "uint256",
          "name": "",
          "type": "uint256"
        }
      ],
      "name": "depositDeprecated_5947912356",
      "outputs": [],
      "stateMutability": "payable",
      "type": "function"
    },
    {
      "inputs": [
        {
          "internalType": "address",
          "name": "depositor",
          "type": "address"
        },
        {
          "internalType": "address",
          "name": "recipient",
          "type": "address"
        },
        {
          "internalType": "address",
          "name": "originToken",
          "type": "address"
        },
        {
          "internalType": "uint256",
          "name": "amount",
          "type": "uint256"
        },
        {
          "internalType": "uint256",
          "name": "destinationChainId",
          "type": "uint256"
        },
        {
          "internalType": "int64",
          "name": "relayerFeePct",
          "type": "int64"
        },
        {
          "internalType": "uint32",
          "name": "quoteTimestamp",
          "type": "uint32"
        },
        {
          "internalType": "bytes",
          "name": "message",
          "type": "bytes"
        },
        {
          "internalType": "uint256",
          "name": "",
          "type": "uint256"
        }
      ],
      "name": "depositFor",
      "outputs": [],
      "stateMutability": "payable",
      "type": "function"
    },
    {
      "inputs": [
        {
          "internalType": "bytes32",
          "name": "depositor",
          "type": "bytes32"
        },
        {
          "internalType": "bytes32",
          "name": "recipient",
          "type": "bytes32"
        },
        {
          "internalType": "bytes32",
          "name": "inputToken",
          "type": "bytes32"
        },
        {
          "internalType": "bytes32",
          "name": "outputToken",
          "type": "bytes32"
        },
        {
          "internalType": "uint256",
          "name": "inputAmount",
          "type": "uint256"
        },
        {
          "internalType": "uint256",
          "name": "outputAmount",
          "type": "uint256"
        },
        {
          "internalType": "uint256",
          "name": "destinationChainId",
          "type": "uint256"
        },
        {
          "internalType": "bytes32",
          "name": "exclusiveRelayer",
          "type": "bytes32"
        },
        {
          "internalType": "uint32",
          "name": "fillDeadlineOffset",
          "type": "uint32"
        },
        {
          "internalType": "uint32",
          "name": "exclusivityParameter",
          "type": "uint32"
        },
        {
          "internalType": "bytes",
          "name": "message",
          "type": "bytes"
        }
      ],
      "name": "depositNow",
      "outputs": [],
      "stateMutability": "payable",
      "type": "function"
    },
    {
      "inputs": [],
      "name": "depositQuoteTimeBuffer",
      "outputs": [
        {
          "internalType": "uint32",
          "name": "",
          "type": "uint32"
        }
      ],
      "stateMutability": "view",
      "type": "function"
    },
    {
      "inputs": [
        {
          "internalType": "address",
          "name": "depositor",
          "type": "address"
        },
        {
          "internalType": "address",
          "name": "recipient",
          "type": "address"
        },
        {
          "internalType": "address",
          "name": "inputToken",
          "type": "address"
        },
        {
          "internalType": "address",
          "name": "outputToken",
          "type": "address"
        },
        {
          "internalType": "uint256",
          "name": "inputAmount",
          "type": "uint256"
        },
        {
          "internalType": "uint256",
          "name": "outputAmount",
          "type": "uint256"
        },
        {
          "internalType": "uint256",
          "name": "destinationChainId",
          "type": "uint256"
        },
        {
          "internalType": "address",
          "name": "exclusiveRelayer",
          "type": "address"
        },
        {
          "internalType": "uint32",
          "name": "quoteTimestamp",
          "type": "uint32"
        },
        {
          "internalType": "uint32",
          "name": "fillDeadline",
          "type": "uint32"
        },
        {
          "internalType": "uint32",
          "name": "exclusivityParameter",
          "type": "uint32"
        },
        {
          "internalType": "bytes",
          "name": "message",
          "type": "bytes"
        }
      ],
      "name": "depositV3",
      "outputs": [],
      "stateMutability": "payable",
      "type": "function"
    },
    {
      "inputs": [
        {
          "internalType": "address",
          "name": "depositor",
          "type": "address"
        },
        {
          "internalType": "address",
          "name": "recipient",
          "type": "address"
        },
        {
          "internalType": "address",
          "name": "inputToken",
          "type": "address"
        },
        {
          "internalType": "address",
          "name": "outputToken",
          "type": "address"
        },
        {
          "internalType": "uint256",
          "name": "inputAmount",
          "type": "uint256"
        },
        {
          "internalType": "uint256",
          "name": "outputAmount",
          "type": "uint256"
        },
        {
          "internalType": "uint256",
          "name": "destinationChainId",
          "type": "uint256"
        },
        {
          "internalType": "address",
          "name": "exclusiveRelayer",
          "type": "address"
        },
        {
          "internalType": "uint32",
          "name": "fillDeadlineOffset",
          "type": "uint32"
        },
        {
          "internalType": "uint32",
          "name": "exclusivityParameter",
          "type": "uint32"
        },
        {
          "internalType": "bytes",
          "name": "message",
          "type": "bytes"
        }
      ],
      "name": "depositV3Now",
      "outputs": [],
      "stateMutability": "payable",
      "type": "function"
    },
    {
      "inputs": [
        {
          "internalType": "uint256",
          "name": "rootBundleId",
          "type": "uint256"
        }
      ],
      "name": "emergencyDeleteRootBundle",
      "outputs": [],
      "stateMutability": "nonpayable",
      "type": "function"
    },
    {
      "inputs": [
        {
          "internalType": "uint32",
          "name": "rootBundleId",
          "type": "uint32"
        },
        {
          "components": [
            {
              "internalType": "uint256",
              "name": "amountToReturn",
              "type": "uint256"
            },
            {
              "internalType": "uint256",
              "name": "chainId",
              "type": "uint256"
            },
            {
              "internalType": "uint256[]",
              "name": "refundAmounts",
              "type": "uint256[]"
            },
            {
              "internalType": "uint32",
              "name": "leafId",
              "type": "uint32"
            },
            {
              "internalType": "address",
              "name": "l2TokenAddress",
              "type": "address"
            },
            {
              "internalType": "address[]",
              "name": "refundAddresses",
              "type": "address[]"
            }
          ],
          "internalType": "struct SpokePoolInterface.RelayerRefundLeaf",
          "name": "relayerRefundLeaf",
          "type": "tuple"
        },
        {
          "internalType": "bytes32[]",
          "name": "proof",
          "type": "bytes32[]"
        }
      ],
      "name": "executeRelayerRefundLeaf",
      "outputs": [],
      "stateMutability": "payable",
      "type": "function"
    },
    {
      "inputs": [
        {
          "components": [
            {
              "components": [
                {
                  "internalType": "bytes32",
                  "name": "depositor",
                  "type": "bytes32"
                },
                {
                  "internalType": "bytes32",
                  "name": "recipient",
                  "type": "bytes32"
                },
                {
                  "internalType": "bytes32",
                  "name": "exclusiveRelayer",
                  "type": "bytes32"
                },
                {
                  "internalType": "bytes32",
                  "name": "inputToken",
                  "type": "bytes32"
                },
                {
                  "internalType": "bytes32",
                  "name": "outputToken",
                  "type": "bytes32"
                },
                {
                  "internalType": "uint256",
                  "name": "inputAmount",
                  "type": "uint256"
                },
                {
                  "internalType": "uint256",
                  "name": "outputAmount",
                  "type": "uint256"
                },
                {
                  "internalType": "uint256",
                  "name": "originChainId",
                  "type": "uint256"
                },
                {
                  "internalType": "uint256",
                  "name": "depositId",
                  "type": "uint256"
                },
                {
                  "internalType": "uint32",
                  "name": "fillDeadline",
                  "type": "uint32"
                },
                {
                  "internalType": "uint32",
                  "name": "exclusivityDeadline",
                  "type": "uint32"
                },
                {
                  "internalType": "bytes",
                  "name": "message",
                  "type": "bytes"
                }
              ],
              "internalType": "struct V3SpokePoolInterface.V3RelayData",
              "name": "relayData",
              "type": "tuple"
            },
            {
              "internalType": "uint256",
              "name": "chainId",
              "type": "uint256"
            },
            {
              "internalType": "uint256",
              "name": "updatedOutputAmount",
              "type": "uint256"
            }
          ],
          "internalType": "struct V3SpokePoolInterface.V3SlowFill",
          "name": "slowFillLeaf",
          "type": "tuple"
        },
        {
          "internalType": "uint32",
          "name": "rootBundleId",
          "type": "uint32"
        },
        {
          "internalType": "bytes32[]",
          "name": "proof",
          "type": "bytes32[]"
        }
      ],
      "name": "executeSlowRelayLeaf",
      "outputs": [],
      "stateMutability": "nonpayable",
      "type": "function"
    },
    {
      "inputs": [
        {
          "internalType": "bytes32",
          "name": "orderId",
          "type": "bytes32"
        },
        {
          "internalType": "bytes",
          "name": "originData",
          "type": "bytes"
        },
        {
          "internalType": "bytes",
          "name": "fillerData",
          "type": "bytes"
        }
      ],
      "name": "fill",
      "outputs": [],
      "stateMutability": "nonpayable",
      "type": "function"
    },
    {
      "inputs": [],
      "name": "fillDeadlineBuffer",
      "outputs": [
        {
          "internalType": "uint32",
          "name": "",
          "type": "uint32"
        }
      ],
      "stateMutability": "view",
      "type": "function"
    },
    {
      "inputs": [
        {
          "components": [
            {
              "internalType": "bytes32",
              "name": "depositor",
              "type": "bytes32"
            },
            {
              "internalType": "bytes32",
              "name": "recipient",
              "type": "bytes32"
            },
            {
              "internalType": "bytes32",
              "name": "exclusiveRelayer",
              "type": "bytes32"
            },
            {
              "internalType": "bytes32",
              "name": "inputToken",
              "type": "bytes32"
            },
            {
              "internalType": "bytes32",
              "name": "outputToken",
              "type": "bytes32"
            },
            {
              "internalType": "uint256",
              "name": "inputAmount",
              "type": "uint256"
            },
            {
              "internalType": "uint256",
              "name": "outputAmount",
              "type": "uint256"
            },
            {
              "internalType": "uint256",
              "name": "originChainId",
              "type": "uint256"
            },
            {
              "internalType": "uint256",
              "name": "depositId",
              "type": "uint256"
            },
            {
              "internalType": "uint32",
              "name": "fillDeadline",
              "type": "uint32"
            },
            {
              "internalType": "uint32",
              "name": "exclusivityDeadline",
              "type": "uint32"
            },
            {
              "internalType": "bytes",
              "name": "message",
              "type": "bytes"
            }
          ],
          "internalType": "struct V3SpokePoolInterface.V3RelayData",
          "name": "relayData",
          "type": "tuple"
        },
        {
          "internalType": "uint256",
          "name": "repaymentChainId",
          "type": "uint256"
        },
        {
          "internalType": "bytes32",
          "name": "repaymentAddress",
          "type": "bytes32"
        }
      ],
      "name": "fillRelay",
      "outputs": [],
      "stateMutability": "nonpayable",
      "type": "function"
    },
    {
      "inputs": [
        {
          "components": [
            {
              "internalType": "bytes32",
              "name": "depositor",
              "type": "bytes32"
            },
            {
              "internalType": "bytes32",
              "name": "recipient",
              "type": "bytes32"
            },
            {
              "internalType": "bytes32",
              "name": "exclusiveRelayer",
              "type": "bytes32"
            },
            {
              "internalType": "bytes32",
              "name": "inputToken",
              "type": "bytes32"
            },
            {
              "internalType": "bytes32",
              "name": "outputToken",
              "type": "bytes32"
            },
            {
              "internalType": "uint256",
              "name": "inputAmount",
              "type": "uint256"
            },
            {
              "internalType": "uint256",
              "name": "outputAmount",
              "type": "uint256"
            },
            {
              "internalType": "uint256",
              "name": "originChainId",
              "type": "uint256"
            },
            {
              "internalType": "uint256",
              "name": "depositId",
              "type": "uint256"
            },
            {
              "internalType": "uint32",
              "name": "fillDeadline",
              "type": "uint32"
            },
            {
              "internalType": "uint32",
              "name": "exclusivityDeadline",
              "type": "uint32"
            },
            {
              "internalType": "bytes",
              "name": "message",
              "type": "bytes"
            }
          ],
          "internalType": "struct V3SpokePoolInterface.V3RelayData",
          "name": "relayData",
          "type": "tuple"
        },
        {
          "internalType": "uint256",
          "name": "repaymentChainId",
          "type": "uint256"
        },
        {
          "internalType": "bytes32",
          "name": "repaymentAddress",
          "type": "bytes32"
        },
        {
          "internalType": "uint256",
          "name": "updatedOutputAmount",
          "type": "uint256"
        },
        {
          "internalType": "bytes32",
          "name": "updatedRecipient",
          "type": "bytes32"
        },
        {
          "internalType": "bytes",
          "name": "updatedMessage",
          "type": "bytes"
        },
        {
          "internalType": "bytes",
          "name": "depositorSignature",
          "type": "bytes"
        }
      ],
      "name": "fillRelayWithUpdatedDeposit",
      "outputs": [],
      "stateMutability": "nonpayable",
      "type": "function"
    },
    {
      "inputs": [
        {
          "internalType": "bytes32",
          "name": "",
          "type": "bytes32"
        }
      ],
      "name": "fillStatuses",
      "outputs": [
        {
          "internalType": "uint256",
          "name": "",
          "type": "uint256"
        }
      ],
      "stateMutability": "view",
      "type": "function"
    },
    {
      "inputs": [
        {
          "components": [
            {
              "internalType": "address",
              "name": "depositor",
              "type": "address"
            },
            {
              "internalType": "address",
              "name": "recipient",
              "type": "address"
            },
            {
              "internalType": "address",
              "name": "exclusiveRelayer",
              "type": "address"
            },
            {
              "internalType": "address",
              "name": "inputToken",
              "type": "address"
            },
            {
              "internalType": "address",
              "name": "outputToken",
              "type": "address"
            },
            {
              "internalType": "uint256",
              "name": "inputAmount",
              "type": "uint256"
            },
            {
              "internalType": "uint256",
              "name": "outputAmount",
              "type": "uint256"
            },
            {
              "internalType": "uint256",
              "name": "originChainId",
              "type": "uint256"
            },
            {
              "internalType": "uint32",
              "name": "depositId",
              "type": "uint32"
            },
            {
              "internalType": "uint32",
              "name": "fillDeadline",
              "type": "uint32"
            },
            {
              "internalType": "uint32",
              "name": "exclusivityDeadline",
              "type": "uint32"
            },
            {
              "internalType": "bytes",
              "name": "message",
              "type": "bytes"
            }
          ],
          "internalType": "struct V3SpokePoolInterface.V3RelayDataLegacy",
          "name": "relayData",
          "type": "tuple"
        },
        {
          "internalType": "uint256",
          "name": "repaymentChainId",
          "type": "uint256"
        }
      ],
      "name": "fillV3Relay",
      "outputs": [],
      "stateMutability": "nonpayable",
      "type": "function"
    },
    {
      "inputs": [],
      "name": "getCurrentTime",
      "outputs": [
        {
          "internalType": "uint256",
          "name": "",
          "type": "uint256"
        }
      ],
      "stateMutability": "view",
      "type": "function"
    },
    {
      "inputs": [
        {
          "internalType": "address",
          "name": "l2TokenAddress",
          "type": "address"
        },
        {
          "internalType": "address",
          "name": "refundAddress",
          "type": "address"
        }
      ],
      "name": "getRelayerRefund",
      "outputs": [
        {
          "internalType": "uint256",
          "name": "",
          "type": "uint256"
        }
      ],
      "stateMutability": "view",
      "type": "function"
    },
    {
      "inputs": [
        {
          "internalType": "address",
          "name": "msgSender",
          "type": "address"
        },
        {
          "internalType": "bytes32",
          "name": "depositor",
          "type": "bytes32"
        },
        {
          "internalType": "uint256",
          "name": "depositNonce",
          "type": "uint256"
        }
      ],
      "name": "getUnsafeDepositId",
      "outputs": [
        {
          "internalType": "uint256",
          "name": "",
          "type": "uint256"
        }
      ],
      "stateMutability": "pure",
      "type": "function"
    },
    {
      "inputs": [
        {
          "components": [
            {
              "internalType": "bytes32",
              "name": "depositor",
              "type": "bytes32"
            },
            {
              "internalType": "bytes32",
              "name": "recipient",
              "type": "bytes32"
            },
            {
              "internalType": "bytes32",
              "name": "exclusiveRelayer",
              "type": "bytes32"
            },
            {
              "internalType": "bytes32",
              "name": "inputToken",
              "type": "bytes32"
            },
            {
              "internalType": "bytes32",
              "name": "outputToken",
              "type": "bytes32"
            },
            {
              "internalType": "uint256",
              "name": "inputAmount",
              "type": "uint256"
            },
            {
              "internalType": "uint256",
              "name": "outputAmount",
              "type": "uint256"
            },
            {
              "internalType": "uint256",
              "name": "originChainId",
              "type": "uint256"
            },
            {
              "internalType": "uint256",
              "name": "depositId",
              "type": "uint256"
            },
            {
              "internalType": "uint32",
              "name": "fillDeadline",
              "type": "uint32"
            },
            {
              "internalType": "uint32",
              "name": "exclusivityDeadline",
              "type": "uint32"
            },
            {
              "internalType": "bytes",
              "name": "message",
              "type": "bytes"
            }
          ],
          "internalType": "struct V3SpokePoolInterface.V3RelayData",
          "name": "relayData",
          "type": "tuple"
        }
      ],
      "name": "getV3RelayHash",
      "outputs": [
        {
          "internalType": "bytes32",
          "name": "",
          "type": "bytes32"
        }
      ],
      "stateMutability": "view",
      "type": "function"
    },
    {
      "inputs": [
        {
          "internalType": "uint32",
          "name": "_initialDepositId",
          "type": "uint32"
        },
        {
          "internalType": "address",
          "name": "_l2GatewayRouter",
          "type": "address"
        },
        {
          "internalType": "address",
          "name": "_crossDomainAdmin",
          "type": "address"
        },
        {
          "internalType": "address",
          "name": "_withdrawalRecipient",
          "type": "address"
        }
      ],
      "name": "initialize",
      "outputs": [],
      "stateMutability": "nonpayable",
      "type": "function"
    },
    {
      "inputs": [],
      "name": "l2GatewayRouter",
      "outputs": [
        {
          "internalType": "address",
          "name": "",
          "type": "address"
        }
      ],
      "stateMutability": "view",
      "type": "function"
    },
    {
      "inputs": [
        {
          "internalType": "bytes[]",
          "name": "data",
          "type": "bytes[]"
        }
      ],
      "name": "multicall",
      "outputs": [
        {
          "internalType": "bytes[]",
          "name": "results",
          "type": "bytes[]"
        }
      ],
      "stateMutability": "nonpayable",
      "type": "function"
    },
    {
      "inputs": [],
      "name": "numberOfDeposits",
      "outputs": [
        {
          "internalType": "uint32",
          "name": "",
          "type": "uint32"
        }
      ],
      "stateMutability": "view",
      "type": "function"
    },
    {
      "inputs": [
        {
          "internalType": "address",
          "name": "l2TokenAddress",
          "type": "address"
        }
      ],
      "name": "oftMessengers",
      "outputs": [
        {
          "internalType": "address",
          "name": "l2OftMessenger",
          "type": "address"
        }
      ],
      "stateMutability": "view",
      "type": "function"
    },
    {
      "inputs": [
        {
          "internalType": "bool",
          "name": "pause",
          "type": "bool"
        }
      ],
      "name": "pauseDeposits",
      "outputs": [],
      "stateMutability": "nonpayable",
      "type": "function"
    },
    {
      "inputs": [
        {
          "internalType": "bool",
          "name": "pause",
          "type": "bool"
        }
      ],
      "name": "pauseFills",
      "outputs": [],
      "stateMutability": "nonpayable",
      "type": "function"
    },
    {
      "inputs": [],
      "name": "pausedDeposits",
      "outputs": [
        {
          "internalType": "bool",
          "name": "",
          "type": "bool"
        }
      ],
      "stateMutability": "view",
      "type": "function"
    },
    {
      "inputs": [],
      "name": "pausedFills",
      "outputs": [
        {
          "internalType": "bool",
          "name": "",
          "type": "bool"
        }
      ],
      "stateMutability": "view",
      "type": "function"
    },
    {
      "inputs": [],
      "name": "proxiableUUID",
      "outputs": [
        {
          "internalType": "bytes32",
          "name": "",
          "type": "bytes32"
        }
      ],
      "stateMutability": "view",
      "type": "function"
    },
    {
      "inputs": [],
      "name": "recipientCircleDomainId",
      "outputs": [
        {
          "internalType": "uint32",
          "name": "",
          "type": "uint32"
        }
      ],
      "stateMutability": "view",
      "type": "function"
    },
    {
      "inputs": [
        {
          "internalType": "bytes32",
          "name": "relayerRefundRoot",
          "type": "bytes32"
        },
        {
          "internalType": "bytes32",
          "name": "slowRelayRoot",
          "type": "bytes32"
        }
      ],
      "name": "relayRootBundle",
      "outputs": [],
      "stateMutability": "nonpayable",
      "type": "function"
    },
    {
      "inputs": [
        {
          "internalType": "address",
          "name": "",
          "type": "address"
        },
        {
          "internalType": "address",
          "name": "",
          "type": "address"
        }
      ],
      "name": "relayerRefund",
      "outputs": [
        {
          "internalType": "uint256",
          "name": "",
          "type": "uint256"
        }
      ],
      "stateMutability": "view",
      "type": "function"
    },
    {
      "inputs": [
        {
          "components": [
            {
              "internalType": "bytes32",
              "name": "depositor",
              "type": "bytes32"
            },
            {
              "internalType": "bytes32",
              "name": "recipient",
              "type": "bytes32"
            },
            {
              "internalType": "bytes32",
              "name": "exclusiveRelayer",
              "type": "bytes32"
            },
            {
              "internalType": "bytes32",
              "name": "inputToken",
              "type": "bytes32"
            },
            {
              "internalType": "bytes32",
              "name": "outputToken",
              "type": "bytes32"
            },
            {
              "internalType": "uint256",
              "name": "inputAmount",
              "type": "uint256"
            },
            {
              "internalType": "uint256",
              "name": "outputAmount",
              "type": "uint256"
            },
            {
              "internalType": "uint256",
              "name": "originChainId",
              "type": "uint256"
            },
            {
              "internalType": "uint256",
              "name": "depositId",
              "type": "uint256"
            },
            {
              "internalType": "uint32",
              "name": "fillDeadline",
              "type": "uint32"
            },
            {
              "internalType": "uint32",
              "name": "exclusivityDeadline",
              "type": "uint32"
            },
            {
              "internalType": "bytes",
              "name": "message",
              "type": "bytes"
            }
          ],
          "internalType": "struct V3SpokePoolInterface.V3RelayData",
          "name": "relayData",
          "type": "tuple"
        }
      ],
      "name": "requestSlowFill",
      "outputs": [],
      "stateMutability": "nonpayable",
      "type": "function"
    },
    {
      "inputs": [
        {
          "internalType": "uint256",
          "name": "",
          "type": "uint256"
        }
      ],
      "name": "rootBundles",
      "outputs": [
        {
          "internalType": "bytes32",
          "name": "slowRelayRoot",
          "type": "bytes32"
        },
        {
          "internalType": "bytes32",
          "name": "relayerRefundRoot",
          "type": "bytes32"
        }
      ],
      "stateMutability": "view",
      "type": "function"
    },
    {
      "inputs": [
        {
          "internalType": "address",
          "name": "newCrossDomainAdmin",
          "type": "address"
        }
      ],
      "name": "setCrossDomainAdmin",
      "outputs": [],
      "stateMutability": "nonpayable",
      "type": "function"
    },
    {
      "inputs": [
        {
          "internalType": "address",
          "name": "newL2GatewayRouter",
          "type": "address"
        }
      ],
      "name": "setL2GatewayRouter",
      "outputs": [],
      "stateMutability": "nonpayable",
      "type": "function"
    },
    {
      "inputs": [
        {
          "internalType": "address",
          "name": "token",
          "type": "address"
        },
        {
          "internalType": "address",
          "name": "messenger",
          "type": "address"
        }
      ],
      "name": "setOftMessenger",
      "outputs": [],
      "stateMutability": "nonpayable",
      "type": "function"
    },
    {
      "inputs": [
        {
          "internalType": "address",
          "name": "newWithdrawalRecipient",
          "type": "address"
        }
      ],
      "name": "setWithdrawalRecipient",
      "outputs": [],
      "stateMutability": "nonpayable",
      "type": "function"
    },
    {
      "inputs": [
        {
          "internalType": "bytes32",
          "name": "depositor",
          "type": "bytes32"
        },
        {
          "internalType": "uint256",
          "name": "depositId",
          "type": "uint256"
        },
        {
          "internalType": "uint256",
          "name": "updatedOutputAmount",
          "type": "uint256"
        },
        {
          "internalType": "bytes32",
          "name": "updatedRecipient",
          "type": "bytes32"
        },
        {
          "internalType": "bytes",
          "name": "updatedMessage",
          "type": "bytes"
        },
        {
          "internalType": "bytes",
          "name": "depositorSignature",
          "type": "bytes"
        }
      ],
      "name": "speedUpDeposit",
      "outputs": [],
      "stateMutability": "nonpayable",
      "type": "function"
    },
    {
      "inputs": [
        {
          "internalType": "address",
          "name": "depositor",
          "type": "address"
        },
        {
          "internalType": "uint256",
          "name": "depositId",
          "type": "uint256"
        },
        {
          "internalType": "uint256",
          "name": "updatedOutputAmount",
          "type": "uint256"
        },
        {
          "internalType": "address",
          "name": "updatedRecipient",
          "type": "address"
        },
        {
          "internalType": "bytes",
          "name": "updatedMessage",
          "type": "bytes"
        },
        {
          "internalType": "bytes",
          "name": "depositorSignature",
          "type": "bytes"
        }
      ],
      "name": "speedUpV3Deposit",
      "outputs": [],
      "stateMutability": "nonpayable",
      "type": "function"
    },
    {
      "inputs": [
        {
          "internalType": "bytes[]",
          "name": "data",
          "type": "bytes[]"
        }
      ],
      "name": "tryMulticall",
      "outputs": [
        {
          "components": [
            {
              "internalType": "bool",
              "name": "success",
              "type": "bool"
            },
            {
              "internalType": "bytes",
              "name": "returnData",
              "type": "bytes"
            }
          ],
          "internalType": "struct MultiCallerUpgradeable.Result[]",
          "name": "results",
          "type": "tuple[]"
        }
      ],
      "stateMutability": "nonpayable",
      "type": "function"
    },
    {
      "inputs": [
        {
          "internalType": "bytes32",
          "name": "depositor",
          "type": "bytes32"
        },
        {
          "internalType": "bytes32",
          "name": "recipient",
          "type": "bytes32"
        },
        {
          "internalType": "bytes32",
          "name": "inputToken",
          "type": "bytes32"
        },
        {
          "internalType": "bytes32",
          "name": "outputToken",
          "type": "bytes32"
        },
        {
          "internalType": "uint256",
          "name": "inputAmount",
          "type": "uint256"
        },
        {
          "internalType": "uint256",
          "name": "outputAmount",
          "type": "uint256"
        },
        {
          "internalType": "uint256",
          "name": "destinationChainId",
          "type": "uint256"
        },
        {
          "internalType": "bytes32",
          "name": "exclusiveRelayer",
          "type": "bytes32"
        },
        {
          "internalType": "uint256",
          "name": "depositNonce",
          "type": "uint256"
        },
        {
          "internalType": "uint32",
          "name": "quoteTimestamp",
          "type": "uint32"
        },
        {
          "internalType": "uint32",
          "name": "fillDeadline",
          "type": "uint32"
        },
        {
          "internalType": "uint32",
          "name": "exclusivityParameter",
          "type": "uint32"
        },
        {
          "internalType": "bytes",
          "name": "message",
          "type": "bytes"
        }
      ],
      "name": "unsafeDeposit",
      "outputs": [],
      "stateMutability": "payable",
      "type": "function"
    },
    {
      "inputs": [
        {
          "internalType": "address",
          "name": "newImplementation",
          "type": "address"
        }
      ],
      "name": "upgradeTo",
      "outputs": [],
      "stateMutability": "nonpayable",
      "type": "function"
    },
    {
      "inputs": [
        {
          "internalType": "address",
          "name": "newImplementation",
          "type": "address"
        },
        {
          "internalType": "bytes",
          "name": "data",
          "type": "bytes"
        }
      ],
      "name": "upgradeToAndCall",
      "outputs": [],
      "stateMutability": "payable",
      "type": "function"
    },
    {
      "inputs": [],
      "name": "usdcToken",
      "outputs": [
        {
          "internalType": "contract IERC20",
          "name": "",
          "type": "address"
        }
      ],
      "stateMutability": "view",
      "type": "function"
    },
    {
      "inputs": [
        {
          "internalType": "address",
          "name": "l2Token",
          "type": "address"
        },
        {
          "internalType": "address",
          "name": "l1Token",
          "type": "address"
        }
      ],
      "name": "whitelistToken",
      "outputs": [],
      "stateMutability": "nonpayable",
      "type": "function"
    },
    {
      "inputs": [
        {
          "internalType": "address",
          "name": "",
          "type": "address"
        }
      ],
      "name": "whitelistedTokens",
      "outputs": [
        {
          "internalType": "address",
          "name": "",
          "type": "address"
        }
      ],
      "stateMutability": "view",
      "type": "function"
    },
    {
      "inputs": [],
      "name": "withdrawalRecipient",
      "outputs": [
        {
          "internalType": "address",
          "name": "",
          "type": "address"
        }
      ],
      "stateMutability": "view",
      "type": "function"
    },
    {
      "inputs": [],
      "name": "wrappedNativeToken",
      "outputs": [
        {
          "internalType": "contract WETH9Interface",
          "name": "",
          "type": "address"
        }
      ],
      "stateMutability": "view",
      "type": "function"
    },
    {
      "stateMutability": "payable",
      "type": "receive"
    }
  ],
  "args": [
    "0x82aF49447D8a07e3bd95BD0d56f35241523fBab1",
    3600,
    21600,
    "0xaf88d065e77c8cC2239327C5EDb3A432268e5831",
    "0x19330d10D9Cc8751218eaf51E8885D058642E08A",
    30101,
    "1000000000000000000"
  ],
  "numDeployments": 12,
  "solcInputHash": "7a57f2eb2810fd49e428417389237b12",
  "bytecode": "0x6101c0604081815234620002e75760e0826200592f8038038091620000258285620002eb565b833981010312620002e75781516001600160a01b039081811690819003620002e757602091620000578386016200030f565b94620000658582016200030f565b946060820151928084168403620002e75760808301519481861693848703620002e75760c06200009860a083016200030f565b910151903060805260c05260a05260e0526101009788526101209687525f5460ff8160081c16620002e75760ff80821603620002ae575b506101609384526101809485525f610140908152825163011a412160e61b8882019081526004825291946001600160401b039282860191908483118484101762000290575f938493885251915afa963d15620002a4573d918211620002905783519162000146601f8201601f1916830184620002eb565b82523d5f8284013e5b8762000284575b876200024f575b5050506101a0948552519461560d96876200032288396080518781816110e80152818161146b015261151d015260a0518781816117860152614f45015260c05187818161183f0152614ec7015260e0518781816107e30152818161351801528181613c4a01528181613edc0152818161444f01528181614a740152614aef015251868181611725015281816134cc015261460801525185818161044e01526143f80152518481816117ff015281816151aa015261525501525183818161078601528181614a12015261508b015251828181611d1e015281816148ce01526150ae015251818181611932015261514a0152f35b90919296508082519201519181811062000273575b5050161515935f80806200015d565b5f19910360031b1b165f8062000264565b81518114975062000156565b634e487b7160e01b5f52604160045260245ffd5b606091506200014f565b60ff90811916175f557f7f26b83ff96e1f2b6a682f133852f6798a09c465da95921460cefb384740249886835160ff8152a15f620000cf565b5f80fd5b601f909101601f19168101906001600160401b038211908210176200029057604052565b519063ffffffff82168203620002e75756fe6080604052600436101561001a575b3615610018575f80fd5b005b5f3560e01c8063079bd2c71461041f5780630cb84d9a1461041a5780631186ec331461041557806311eac8551461041057806315348e441461039d57806317fcb39b1461040b57806319c1648c146104065780631b3d5559146104015780631fab657c146103fc57806329cb924d146103f75780632e378115146103f25780632e63e59a146103ed578063364f01a6146103e85780633659cfe6146103e3578063437b9116146103de578063490e49ef146103d9578063493a4f84146103d45780634e3485c8146103cf5780634f1ef286146103ca5780635285e058146103c557806352d1902d146103c0578063541f4f14146103bb578063577f51f8146103b657806357f6dcb8146103b15780636068d6cb146103ac57806361a04d30146103a7578063670fa8ac146103a25780636bbbcd2e1461039d5780636e400983146103985780636fd5c10e14610393578063738b62e51461038e578063775c0d03146103895780637aef642c146103845780637b9392321461037f5780637ef413e11461037a57806382e2c43f146103755780638a7860ce146103705780638b15788e1461036b5780639748cf7c1461036657806397943aa914610361578063979f2bc21461035c57806399cc2968146103575780639a8a059214610352578063a1244c671461034d578063a18a096e14610348578063ac9650d814610343578063ad5425c61461033e578063adb5a6a6146102f3578063b370b7f514610339578063b4c0d7ab14610334578063babb6aac1461032f578063c35c83fc1461032a578063c835685914610325578063ceb4c98714610320578063d7e1583a1461031b578063daf9c21014610316578063dda5211314610311578063ddd224f11461030c578063de7eba7814610307578063deff4b2414610302578063ea86bd46146102fd578063ee2a53f8146102f8578063f79f29ed146102f3578063fb6bf74c146102ee5763fc8a584f0361000e57612a41565b612936565b6122fb565b6128f8565b6127f5565b612700565b6126b7565b61268e565b612668565b612629565b6125f3565b6124f9565b6124d2565b6124a7565b6123d0565b6123a1565b612342565b6121bf565b61211f565b611fb8565b611f91565b611f77565b611ec9565b611dc2565b611d42565b611cff565b611c81565b611bf1565b611ad6565b611a9f565b6119f7565b611957565b61191b565b61186d565b611823565b6117e3565b6107aa565b6117a9565b61176f565b611749565b611709565b611630565b61156d565b611503565b6114dc565b611428565b6113da565b61133a565b61131c565b61124f565b6110c0565b61102a565b610e30565b610cd0565b610ca7565b610bac565b610aa3565b61082c565b6107c4565b610767565b6106c6565b610490565b610432565b5f91031261042e57565b5f80fd5b3461042e575f36600319011261042e57602060405163ffffffff7f0000000000000000000000000000000000000000000000000000000000000000168152f35b6001600160a01b0381160361042e57565b359061048e82610472565b565b3461042e57602036600319011261042e5760206004356104af81610472565b6001600160a01b038091165f52610874825260405f205416604051908152f35b63ffffffff81160361042e57565b610144359061048e826104cf565b359061048e826104cf565b634e487b7160e01b5f52604160045260245ffd5b6040810190811067ffffffffffffffff82111761052657604052565b6104f6565b6101a0810190811067ffffffffffffffff82111761052657604052565b67ffffffffffffffff811161052657604052565b6060810190811067ffffffffffffffff82111761052657604052565b6080810190811067ffffffffffffffff82111761052657604052565b60e0810190811067ffffffffffffffff82111761052657604052565b60a0810190811067ffffffffffffffff82111761052657604052565b90601f8019910116810190811067ffffffffffffffff82111761052657604052565b6040519060c0820182811067ffffffffffffffff82111761052657604052565b60405190610180820182811067ffffffffffffffff82111761052657604052565b6040519061048e8261052b565b6040519061048e82610578565b6040519061048e82610594565b67ffffffffffffffff811161052657601f01601f191660200190565b92919261067e82610656565b9161068c60405193846105cc565b82948184528183011161042e578281602093845f960137010152565b9080601f8301121561042e578160206106c393359101610672565b90565b61010036600319011261042e576004356106df81610472565b6024356106eb81610472565b6084358060070b810361042e5760a43590610705826104cf565b60c43567ffffffffffffffff811161042e576107259036906004016106a8565b9261072e613403565b60ff61086b5460e81c166107555761074e9460643591604435913361347e565b6001606555005b604051630b4cba3160e31b8152600490fd5b3461042e575f36600319011261042e5760206040516001600160a01b037f0000000000000000000000000000000000000000000000000000000000000000168152f35b3461042e575f36600319011261042e5760206040515f8152f35b3461042e575f36600319011261042e5760206040516001600160a01b037f0000000000000000000000000000000000000000000000000000000000000000168152f35b604090600319011261042e5760043561081f81610472565b906024356106c381610472565b3461042e5761083a36610807565b906001600160a01b03908161111161111160901b018161086954160116330361042e57610865613403565b81831692831515806108f2575b6108e0576108b190610896836001600160a01b03165f5261087460205260405f2090565b906001600160a01b03166001600160a01b0319825416179055565b167f323983f5343e25b2c1396361b1b791be31484841fdfb95b8615cd02d910b1e085f80a36100186001606555565b60405163a63e8c6b60e01b8152600490fd5b50604051637e062a3560e11b8152602081600481885afa908115610953575f91610924575b5083168284161415610872565b610946915060203d60201161094c575b61093e81836105cc565b81019061366d565b5f610917565b503d610934565b613421565b67ffffffffffffffff81116105265760051b60200190565b9080601f8301121561042e57602090823561098a81610958565b9361099860405195866105cc565b81855260208086019260051b82010192831161042e57602001905b8282106109c1575050505090565b813581529083019083016109b3565b9080601f8301121561042e5760209082356109ea81610958565b936109f860405195866105cc565b81855260208086019260051b82010192831161042e57602001905b828210610a21575050505090565b8380918335610a2f81610472565b815201910190610a13565b9291610a4582610958565b91610a5360405193846105cc565b829481845260208094019160051b810192831161042e57905b828210610a795750505050565b81358152908301908301610a6c565b9080601f8301121561042e578160206106c393359101610a3a565b60031960603682011261042e57600435610abc816104cf565b60243567ffffffffffffffff9283821161042e5760c090823603011261042e57610ae46105ee565b908060040135825260248101356020830152604481013584811161042e57610b129060043691840101610970565b6040830152610b23606482016104eb565b6060830152610b3460848201610483565b608083015260a48101359084821161042e576004610b5592369201016109d0565b60a082015260443592831161042e57610b75610018933690600401610a88565b91612a8a565b9181601f8401121561042e5782359167ffffffffffffffff831161042e576020808501948460051b01011161042e57565b3461042e5760031960603682011261042e5760043567ffffffffffffffff80821161042e5760608236039384011261042e5760243590610beb826104cf565b60443590811161042e57610c03903690600401610b7b565b919093610c0e613403565b600484013590610182190181121561042e57610c9d94610c9893610c3b610c919360043691890101612517565b95610c496080880151613976565b50610c538761326f565b9060446020890151916101608a015193610c6b6105ee565b9a8b5260208b015201356040890152606088015260808701525f60a08701523691610a3a565b908361398c565b613add565b6100186001606555565b3461042e575f36600319011261042e576020604051428152f35b908161018091031261042e5790565b3461042e57604036600319011261042e5760043567ffffffffffffffff811161042e57610d01903690600401610cc1565b610d0a81612c75565b6001600160a01b031690610d2060208201612c75565b6001600160a01b031691610d3660408301612c75565b6001600160a01b0316610d4b60608401612c75565b6001600160a01b031692610d6160808201612c75565b6001600160a01b031690610100610d79818301612c7f565b9061012090610d89848301612c7f565b9261014094858101610d9a90612c7f565b966101609a8b8301610dac9084612c89565b9a909b610db761060e565b9e8f91825260208201526040015260608d015260808c015260a081013560a08c015260c081013560c08c015260e0013560e08b015263ffffffff1690890152870190610e08919063ffffffff169052565b63ffffffff909116908501523690610e1f92610672565b9082015233602435610018926132a0565b3461042e57602036600319011261042e576004803567ffffffffffffffff811161042e57610e619036908301610cc1565b610e69613403565b60ff61086b5460e01c1661101a5763ffffffff80421692610140830193610ea281610e9387612c7f565b63ffffffff9182169116101590565b61100a57610120840192610eb584612c7f565b1610610ffb57610ecd610ec83685612517565b61326f565b90610ee1825f5261087260205260405f2090565b54610fed5750610f307f3cee3e290f36226751cd0b3321b213890fe9c768e922f267fa6111836ce05c3292610f2b610f25610f36945f5261087260205260405f2090565b60019055565b612c7f565b93612c7f565b610f56610f51610f4a610160860186612c89565b3691610672565b613fb2565b90610fe06040519283926101008701359760e08801359760208101359281359260408301359260c08101359060a081013590606060808201359101358b9693909a999895919261012098959361014089019c895260208901526040880152606087015263ffffffff80921660808701521660a085015260c084015260e08301526101008201520152565b0390a36100186001606555565b604051624be79160e21b8152fd5b60405163d642b7d960e01b8152fd5b50604051630277ae7b60e21b8152fd5b50604051633d90fc5560e11b8152fd5b3461042e5761103836610807565b906001600160a01b03908161111161111160901b018161086954160116330361042e578190611065613403565b1691825f52610c5b6020526110938160405f20906001600160a01b03166001600160a01b0319825416179055565b16907f8d7f294eaa476236fe8cb5629376a12cd37dace3d21e6a7b98f1641c4ed5f09e5f80a36001606555005b3461042e57602036600319011261042e576004356110dd81610472565b6001600160a01b03807f00000000000000000000000000000000000000000000000000000000000000001680301461042e57817f360894a13ba1a3210667c828492db98dca3e2076cc3735a920a3ca505d382bbc54160361042e5761111161111160901b018161086954160116330361042e576100189061115c612369565b90613fc7565b602060031982011261042e576004359067ffffffffffffffff821161042e5761118d91600401610b7b565b9091565b5f5b8381106111a25750505f910152565b8181015183820152602001611193565b906020916111cb81518092818552858086019101611191565b601f01601f1916010190565b6020808201908083528351809252604092604081018260408560051b8401019601945f925b85841061120d575050505050505090565b90919293949596858061123e600193603f1986820301885286838d51805115158452015191818582015201906111b2565b9901940194019295949391906111fc565b3461042e5761125d36611162565b61126681610958565b91604061127660405194856105cc565b828452601f1961128584610958565b015f5b8181106112f95750505f5b8381106112ac57604051806112a887826111d7565b0390f35b806112f36112bc60019388612ce6565b515f806112ca858a8a612cfa565b906112d9895180938193612d11565b0390305af4906112e7612d1e565b60208201529015159052565b01611293565b60209083516113078161050a565b5f815282606081830152828901015201611288565b3461042e575f36600319011261042e5760206040516301e133808152f35b3461042e57604036600319011261042e57600435602435906001600160a01b0361111161111160901b018161086954160116330361042e5761137a613403565b61086c8054680100000000000000008110156105265763ffffffff91600182019055836113a6826128b9565b5084600182015555167fc86ba04c55bc5eb2f2876b91c438849a296dbec7b08751c3074d92e04f0a77af5f80a46001606555005b3461042e57602036600319011261042e576004356113f781610472565b6001600160a01b0361111161111160901b018161086954160116330361042e5761074e90611423613403565b614229565b604036600319011261042e5760043561144081610472565b60243567ffffffffffffffff811161042e576114609036906004016106a8565b6001600160a01b03807f00000000000000000000000000000000000000000000000000000000000000001680301461042e57817f360894a13ba1a3210667c828492db98dca3e2076cc3735a920a3ca505d382bbc54160361042e5761111161111160901b018161086954160116330361042e5761001891614135565b3461042e575f36600319011261042e5760206001600160a01b036108695416604051908152f35b3461042e575f36600319011261042e576001600160a01b037f000000000000000000000000000000000000000000000000000000000000000016300361042e5760206040517f360894a13ba1a3210667c828492db98dca3e2076cc3735a920a3ca505d382bbc8152f35b61012036600319011261042e5760043561158681610472565b6024359061159382610472565b604435916115a083610472565b60a4358060070b810361042e5760c435916115ba836104cf565b60e43567ffffffffffffffff811161042e576115da9036906004016106a8565b936115e3613403565b60ff61086b5460e81c166107555761074e95608435926064359261347e565b9181601f8401121561042e5782359167ffffffffffffffff831161042e576020838186019501011161042e57565b3461042e5760c036600319011261042e5760043561164d81610472565b6024356044359160643561166081610472565b67ffffffffffffffff9160843583811161042e57611682903690600401611602565b60a49491943591821161042e577f45e04bc8f121ba11466985789ca2822a91109f31bb8ac85504a37b7eaf873c26946116c2611704933690600401611602565b9290916001600160a01b038097166116f68a8c836116e1368888610672565b916116ed368b8b610672565b9346908d61426b565b604051978897169a87612d6d565b0390a3005b3461042e575f36600319011261042e57602060405163ffffffff7f0000000000000000000000000000000000000000000000000000000000000000168152f35b3461042e575f36600319011261042e57602060ff61086b5460e81c166040519015158152f35b3461042e575f36600319011261042e5760206040517f00000000000000000000000000000000000000000000000000000000000000008152f35b3461042e575f36600319011261042e5760206040517f8d1994e2bbbd77564cdca06dd819e7ee2a5efa06c80dcb59a4a7b6e39edc538f8152f35b3461042e575f36600319011261042e57602060405163ffffffff7f0000000000000000000000000000000000000000000000000000000000000000168152f35b3461042e575f36600319011261042e57602060405163ffffffff7f0000000000000000000000000000000000000000000000000000000000000000168152f35b8015150361042e57565b3461042e57602036600319011261042e5760043561188a81611863565b6001600160a01b0361111161111160901b018161086954160116330361042e5760207fe88463c2f254e2b070013a2dc7ee1e099f9bc00534cbdf03af551dc26ae49219916118d6613403565b151561086b80547fffff00ffffffffffffffffffffffffffffffffffffffffffffffffffffffffff60ff60e81b8460e81b169116179055604051908152a16001606555005b3461042e575f36600319011261042e5760206040517f000000000000000000000000000000000000000000000000000000000000000015158152f35b61016036600319011261042e5760043561197081610472565b6024359061197d82610472565b60443561198981610472565b6064359061199682610472565b60e4356119a281610472565b61010435906119b0826104cf565b61012435926119be846104cf565b610144359667ffffffffffffffff881161042e576119e3610018983690600401611602565b97909660c4359360a4359360843593612dd1565b61018036600319011261042e57600435611a1081610472565b60243590611a1d82610472565b604435611a2981610472565b60643590611a3682610472565b60e435611a4281610472565b61010435611a4f816104cf565b6101243591611a5d836104cf565b611a656104dd565b93610164359767ffffffffffffffff891161042e57611a8b610018993690600401611602565b98909760c4359360a4359360843593612df3565b3461042e57606036600319011261042e576020611ace600435611ac181610472565b6044359060243590612f0e565b604051908152f35b3461042e57606036600319011261042e5767ffffffffffffffff60243581811161042e57611b08903690600401611602565b9160443590811161042e57611b21903690600401611602565b9060405193602085019480611b384684888a612f4a565b0395611b4c601f19978881018452836105cc565b6004359151902003611bdf575f94611b7b611b9d93611b7287611ba9958a9901906125cd565b95810190612f67565b519360405193849160208301966337bfd2c960e21b885233916024850161302f565b039081018352826105cc565b5190305af4611bb6612d1e565b9015611bbe57005b60405163b8fe37a760e01b8152908190611bdb9060048301612390565b0390fd5b604051630f0c8f4760e11b8152600490fd5b3461042e57602036600319011261042e576004356001600160a01b0361111161111160901b018161086954160116330361042e57611c2d613403565b611c36816128b9565b611c6e576001815f80935501557f7c1af0646963afc3343245b103731965735a893347bfa0d58a5dc77a77ae691c5f80a26001606555005b634e487b7160e01b5f525f60045260245ffd5b6101a036600319011261042e5761012435611c9b816104cf565b61014435611ca8816104cf565b6101643591611cb6836104cf565b610184359267ffffffffffffffff841161042e57611cdb610018943690600401611602565b9390926101043560e43560c43560a435608435606435604435602435600435613051565b3461042e575f36600319011261042e5760206040516001600160a01b037f0000000000000000000000000000000000000000000000000000000000000000168152f35b3461042e5760e036600319011261042e5767ffffffffffffffff60043581811161042e57611d74903690600401610cc1565b60a43582811161042e57611d8c903690600401611602565b60c49291923593841161042e57611daa610018943690600401611602565b939092608435906064359060443590602435906130c9565b3461042e57606036600319011261042e57600435611ddf816104cf565b60243590611dec82610472565b60443590611df982610472565b60ff5f5460081c161561042e57611e2d9061086b9063ffffffff60c01b1963ffffffff60c01b83549260c01b169116179055565b604051611e398161050a565b6009815260208101926820a1a927a9a996ab1960b91b8452640312e302e360dc1b6020604051611e688161050a565b60058152015260ff5f5460081c161561042e5761001893611ec49251902061047f557f06c015bd22b4c69690933c1058878ebdfef31f9aaae40bbe86d8a09fe1b2972c61048055611eb761462f565b611ebf61463e565b614652565b6146ac565b3461042e57602036600319011261042e57600435611ee681611863565b6001600160a01b0361111161111160901b018161086954160116330361042e5760207f2d5b62420992e5a4afce0e77742636ca2608ef58289fd2e1baa5161ef6e7e41e91611f32613403565b151561086b80547fffffff00ffffffffffffffffffffffffffffffffffffffffffffffffffffffff60ff60e01b8460e01b169116179055604051908152a16001606555005b3461042e575f36600319011261042e576020604051468152f35b3461042e575f36600319011261042e57602063ffffffff61086b5460c01c16604051908152f35b3461042e57604036600319011261042e57600435602435611fd882614a3b565b6001600160a01b0382165f5261087360205261200760405f20336001600160a01b03165f5260205260405f2090565b549182156120aa575f61204e3361203861202085613976565b6001600160a01b03165f5261087360205260405f2090565b906001600160a01b03165f5260205260405f2090565b5561207a8361206b61205f84613976565b6001600160a01b031690565b61207485613976565b90614706565b60405192835233927f6c172ea51018fb2eb2118f3f8a507c4df71eb519b8c0052834dc3c920182fef490602090a4005b6040516336542bf760e21b8152600490fd5b6020808201906020835283518092526040830192602060408460051b8301019501935f915b8483106120f15750505050505090565b909192939495848061210f600193603f198682030187528a516111b2565b98019301930191949392906120e1565b3461042e5761212d36611162565b90612137826131b2565b915f5b81811061214f57604051806112a886826120bc565b5f8061215c838587612cfa565b9061216c60405180938193612d11565b0390305af4612179612d1e565b901561219f579060019161218d8287612ce6565b526121988186612ce6565b500161213a565b604481511061042e5780600461042e9201516024809183010191016131fb565b6101808060031936011261042e57610104356121da816104cf565b61012435916121e8836104cf565b61014435926121f6846104cf565b6101643567ffffffffffffffff811161042e57612217903690600401611602565b61221f613403565b61086b549260ff8460e81c1661075557610c9d966122e4610f4a926122d663ffffffff6122f29860c01c169961227a6122578c61325a565b61086b9063ffffffff60c01b1963ffffffff60c01b83549260c01b169116179055565b61228261062f565b9a6004358c5260243560208d015260443560408d015260643560608d015260843560808d015260a43560a08d015260c43560c08d015260e43560e08d01526101008c01526101208b019063ffffffff169052565b63ffffffff16610140890152565b63ffffffff16610160870152565b9082015261439d565b3461042e5760206123396001600160a01b0361231636610807565b91165f52610873835260405f20906001600160a01b03165f5260205260405f2090565b54604051908152f35b3461042e575f36600319011261042e5760206001600160a01b0361086a5416604051908152f35b6040516020810181811067ffffffffffffffff821117610526576040525f8152905f368137565b9060206106c39281815201906111b2565b3461042e575f36600319011261042e576112a86123bc612369565b6040519182916020835260208301906111b2565b3461042e5760c036600319011261042e5760043560243567ffffffffffffffff60643560443560843583811161042e5761240e903690600401611602565b60a49491943591821161042e577f45e04bc8f121ba11466985789ca2822a91109f31bb8ac85504a37b7eaf873c269461244e61249d933690600401611602565b929091612459613403565b6124628a614a3b565b612491898b8989612474368888610672565b92612480368b8b610672565b946001600160a01b0346921661426b565b60405196879687612d6d565b0390a36001606555005b3461042e57602036600319011261042e576004355f52610872602052602060405f2054604051908152f35b3461042e575f36600319011261042e5760206001600160a01b03610c5a5416604051908152f35b3461042e575f36600319011261042e57602060405163ffffffff8152f35b91906101808382031261042e5761252c61060e565b92803584526020810135602085015260408101356040850152606081013560608501526080810135608085015260a081013560a085015260c081013560c085015260e081013560e085015261010080820135908501526101206125908183016104eb565b908501526101406125a28183016104eb565b90850152610160918282013567ffffffffffffffff811161042e576125c792016106a8565b90830152565b9060208282031261042e57813567ffffffffffffffff811161042e576106c39201612517565b3461042e57602036600319011261042e5760043567ffffffffffffffff811161042e57611ace610ec86020923690600401612517565b3461042e57602036600319011261042e57602060043561264881610472565b6001600160a01b038091165f52610c5b825260405f205416604051908152f35b3461042e575f36600319011261042e57602060ff61086b5460e01c166040519015158152f35b3461042e575f36600319011261042e5760206040516ec097ce7bc90715b34b9f10000000008152f35b3461042e57602036600319011261042e576004356126d481610472565b6001600160a01b0361111161111160901b018161086954160116330361042e5761074e90611ebf613403565b3461042e57606036600319011261042e5760043567ffffffffffffffff811161042e57612731903690600401612517565b612739613403565b60ff61086b5460e01c166127e35761014081015163ffffffff42811691161015806127c4575b6127b25780612770610c9d9261326f565b60c08201516020830151906101608401519261278a6105ee565b948552602085015260408401526060830152608082015260243560a082015260443590613d51565b604051630c3a9b9d60e41b8152600490fd5b506127d26040820151613976565b6001600160a01b031633141561275f565b604051633d90fc5560e11b8152600490fd5b6101608060031936011261042e5761010435612810816104cf565b6101243561281d816104cf565b6101443567ffffffffffffffff811161042e5761283e903690600401611602565b63ffffffff946128518642169586612db4565b9361285a613403565b61086b549160ff8360e81c166107555761288d61289a966122d6610c9d9a610f4a9660c01c169961227a6122578c61325a565b86019063ffffffff169052565b61018082015261439d565b634e487b7160e01b5f52603260045260245ffd5b61086c9081548110156128f3576003915f52027f71cd7344f4eb2efc8e30291f6dbdb44d618ca368ea5425d217c1d604bf26b84d01905f90565b6128a5565b3461042e57602036600319011261042e5760043561086c5481101561042e576129226040916128b9565b506001815491015482519182526020820152f35b3461042e57608036600319011261042e57600435612953816104cf565b6129b960243561296281610472565b60443561296e81610472565b6064359161297b83610472565b5f549461299f60ff8760081c161580978198612a33575b8115612a13575b50612cdf565b856129b0600160ff195f5416175f55565b6129fc5761333c565b6129bf57005b6129cd61ff00195f54165f55565b604051600181527f7f26b83ff96e1f2b6a682f133852f6798a09c465da95921460cefb384740249890602090a1005b612a0e61010061ff00195f5416175f55565b61333c565b303b15915081612a25575b505f612999565b6001915060ff16145f612a1e565b600160ff8216109150612992565b3461042e57602036600319011261042e57600435612a5e81610472565b6001600160a01b0361111161111160901b018161086954160116330361042e5761074e90611ec4613403565b9190612a94613403565b602081019182514603612ba657612abc612ac091836001612ab4886128b9565b500154613682565b1590565b612b94577ff4ad92585b1bc117fbdd644990adf0827bc4c95baeae8a23322af807b6d0020e6060820192612b01612afb855163ffffffff1690565b86613714565b8051612b878451926040860195612b6c612b5e612b4d895196612b288c5163ffffffff1690565b976080860198612b3f8a516001600160a01b031690565b9160a088019b8c5194613785565b925193519851995163ffffffff1690565b94516001600160a01b031690565b945163ffffffff9586604051978897169b1699339487612c27565b0390a461048e6001606555565b60405163582f497d60e11b8152600490fd5b604051633d23e4d160e11b8152600490fd5b9081518082526020808093019301915f5b828110612bd7575050505090565b835185529381019392810192600101612bc9565b9081518082526020808093019301915f5b828110612c0a575050505090565b83516001600160a01b031685529381019392810192600101612bfc565b9496959193612c4960a095612c6793885260c0602089015260c0880190612bb8565b906001600160a01b0380951660408801528682036060880152612beb565b951515608085015216910152565b356106c381610472565b356106c3816104cf565b903590601e198136030182121561042e570180359067ffffffffffffffff821161042e5760200191813603831361042e57565b634e487b7160e01b5f52602160045260245ffd5b60031115612cda57565b612cbc565b1561042e57565b80518210156128f35760209160051b010190565b908210156128f35761118d9160051b810190612c89565b908092918237015f815290565b3d15612d48573d90612d2f82610656565b91612d3d60405193846105cc565b82523d5f602084013e565b606090565b908060209392818452848401375f828201840152601f01601f1916010190565b94929093612d92926106c3979587526020870152608060408701526080860191612d4d565b926060818503910152612d4d565b634e487b7160e01b5f52601160045260245ffd5b91909163ffffffff80809416911601918211612dcc57565b612da0565b969492909161048e9b9a9998969492612df163ffffffff42169889612db4565b985b9593919b999897969492909b612e07613403565b61086b549660ff8860e81c16610755578760c01c63ffffffff16612e2a9061325a565b612e519061086b9063ffffffff60c01b1963ffffffff60c01b83549260c01b169116179055565b612e5961062f565b9d6001600160a01b038f921682526001600160a01b031690602001526001600160a01b031660408d01526001600160a01b031660608c015260808b015260a08a015260c08901526001600160a01b031660e088015260c01c63ffffffff16610100870152610120860190612ed2919063ffffffff169052565b63ffffffff1661014085015263ffffffff166101608401523690612ef592610672565b610180820152612f049061439d565b61048e6001606555565b916040519160208301936bffffffffffffffffffffffff199060601b1684526034830152605482015260548152612f4481610578565b51902090565b939291602091612f6291604087526040870191612d4d565b930152565b9081602091031261042e57604051906020820182811067ffffffffffffffff8211176105265760405235815290565b6106c39161018090825181526020830151602082015260408301516040820152606083015160608201526080830151608082015260a083015160a082015260c083015160c082015260e083015160e0820152610100808401519082015261300b610120808501519083019063ffffffff169052565b6101408381015163ffffffff169082015281610160809401519382015201906111b2565b61304760409295949395606083526060830190612f96565b9460208201520152565b9c9a9998979695949392919096613066613403565b60ff61086b5460e81c166107555761307f908e33612f0e565b96604051809e61308e8261052b565b81526020015260408d015260608c015260808b015260a08a015260c089015260e088015261010087015263ffffffff16610120860152612ed2565b9792909593919694976130da613403565b60ff61086b5460e01c166127e3576130f56101408201612c7f565b63ffffffff8042169116101580613193575b6127b25761317c61318e96613174612f049b613126610ec83687612517565b9a61312f6105ee565b9b61313a3688612517565b8d5260208d01528660408d01528760608d0152613158368b84610672565b60808d015260a08c015261316c8535613976565b983691610672565b953691610672565b9461010060e08301359201359061426b565b613d51565b506131a16040820135613976565b6001600160a01b0316331415613107565b906131bc82610958565b6131c960405191826105cc565b82815280926131da601f1991610958565b01905f5b8281106131ea57505050565b8060606020809385010152016131de565b60208183031261042e5780519067ffffffffffffffff821161042e570181601f8201121561042e57805161322e81610656565b9261323c60405194856105cc565b8184526020828401011161042e576106c39160208085019101611191565b63ffffffff809116908114612dcc5760010190565b604051612f448161328c6020820194604086526060830190612f96565b46604083015203601f1981018352826105cc565b9190916132ab613403565b60ff61086b5460e01c166127e35761014081015163ffffffff428116911610158061331d575b6127b257612f04926132e28261326f565b60c0830151602084015190610160850151926132fc6105ee565b958652602086015260408501526060840152608083015260a0820152613d51565b5061332b6040820151613976565b6001600160a01b03163314156132d1565b9290919260ff5f5460081c161561042e576133749061086b9063ffffffff60c01b1963ffffffff60c01b83549260c01b169116179055565b604051906133818261050a565b6009825260208201916820a1a927a9a996ab1960b91b8352640312e302e360dc1b60206040516133b08161050a565b60058152015260ff5f5460081c161561042e5761048e9461142393611ec49251902061047f557f06c015bd22b4c69690933c1058878ebdfef31f9aaae40bbe86d8a09fe1b2972c61048055611eb761462f565b60026065541461042e576002606555565b91908203918211612dcc57565b6040513d5f823e3d90fd5b926106c39695929491946101409585525f60208601526040850152606084015263ffffffff809116608084015260a08301525f60c083015260e08201525f6101008201528161012082015201906111b2565b9193949690959660070b906706f05b59d3b2000061349b8361474e565b101561365b576ec097ce7bc90715b34b9f100000000084116136495763ffffffff936134c9858a1642613414565b857f000000000000000000000000000000000000000000000000000000000000000016106136375761086b5460c01c63ffffffff169861350b6122578b61325a565b6001600160a01b039586807f0000000000000000000000000000000000000000000000000000000000000000169816928884148061362e575b156135f2578034036135e057883b1561042e575f6004996040519a8b8092630d0e30db60e41b825234905af1988915610953576135af6135c2978a927f32ed1a409ef04c7b0227189c3a103dc5ac10e775a15b785dcc510201f7c25ad39c6135c7575b505b8361479c565b92604051998a99169d169b16938761342c565b0390a4565b806135d46135da92610548565b80610424565b5f6135a7565b604051636452a35d60e01b8152600490fd5b7f32ed1a409ef04c7b0227189c3a103dc5ac10e775a15b785dcc510201f7c25ad39850876135af6135c2976136298430338a61475d565b6135a9565b50341515613544565b60405163f722177f60e01b8152600490fd5b60405163622db5a960e11b8152600490fd5b60405163284f109760e21b8152600490fd5b9081602091031261042e57516106c381610472565b6106c3929160405161370b816136fd602082019460208652805160408401526020810151606084015260a06136c7604083015160c06080870152610100860190612bb8565b606083015163ffffffff168583015260808301516001600160a01b031660c0860152910151838203603f190160e0850152612beb565b03601f1981018352826105cc565b519020916147d2565b61371f6002916128b9565b500162ffffff8260081c16805f5281602052600160ff60405f205494161b8080941614613757575f5260205260405f20908154179055565b60405163954476d960e01b8152600490fd5b9081602091031261042e575190565b91908201809211612dcc57565b91959495939092935f96815190818151036139645781613804575b505050826137af575b50505050565b6001600160a01b03816137e37ffa7fa7cf6d7dde5f9be65a67e6a1a747e7aa864dcd2d793353c722d80fbbb3579386614895565b6040805195865233602087015291169463ffffffff1693a45f8080806137a9565b604080516370a0823160e01b81523060048083019190915291906020816024816001600160a01b038b165afa908115610953575f91613935575b505f805b8681106138535750505050506137a0565b61385d8189612ce6565b5161386b575b600101613842565b906138819061387a838a612ce6565b5190613778565b90828211613925576138bb612abc6138a961389c848a612ce6565b516001600160a01b031690565b6138b3848c612ce6565b51908c614823565b15613863579c508761391b6139138f6138fe61389c6138f76138dd848f612ce6565b51966001600160a01b03165f5261087360205260405f2090565b928b612ce6565b6001600160a01b03165f5260205260405f2090565b918254613778565b905560019c613863565b50505051632ddaa83160e11b8152fd5b613957915060203d60201161395d575b61394f81836105cc565b810190613769565b5f61383e565b503d613945565b6040516319a5316760e31b8152600490fd5b6001600160a01b039061398881614a3b565b1690565b91612abc90613a05928451604080960151918651916139aa8361055c565b825261370b6139c560208401924684528985019586526128b9565b50549388519283916139ea6020840196602088525160608d86015260a0850190612f96565b9151606084015251608083015203601f1981018352826105cc565b613a0c5750565b5163582f497d60e11b8152600490fd5b613a2582612cd0565b52565b9a989693919c9b9997959492909c6101e08c019d8c5260208c015260408b015260608a0152608089015263ffffffff80921660a08901521660c087015260e08601526101008501526101208401526101408301528051610160830152602081015161018083015260408101516101a08301526060015190613aa882612cd0565b6101c00152565b906106c394936080936001600160a01b038093168452602084015216604082015281606082015201906111b2565b905f82516101208101613af4815163ffffffff1690565b63ffffffff42911610613d3f576020850151906002613b1c835f5261087260205260405f2090565b5414613d2d57613b3686925f5261087260205260405f2090565b6002905560608301519060808401519160a08501519260c0860151918560a0810151938860e0810151956101008201519751613b759063ffffffff1690565b61014083015163ffffffff166040840151918451936020860151956101600151613b9e90613fb2565b966060890151986080019e8f51613bb490613fb2565b906040015190613bc261063c565b9a8b5260208b015260408a0152600260608a01526040519d8e9b613be69b8d613a28565b037f44b559f101f8fbcc8a0ea43fa91a05a729a5ea6e14a7c75aa750374690137208905f94a46080820151613c1a90613976565b9060408601519560600151613c2e90613976565b9260800151613c3c90613976565b6001600160a01b03919082167f0000000000000000000000000000000000000000000000000000000000000000831603613d185784613d05575b613c8287838616614a56565b51928351151580613cfb575b613c9c575b50505050509050565b1690813b15613cf75783613cca959660405196879586948593633a5be8cb60e01b8552339160048601613aaf565b03925af1801561095357613ce4575b808080808594613c93565b806135d4613cf192610548565b5f613cd9565b8380fd5b50803b1515613c8e565b613d1387303385871661475d565b613c76565b5f9450613d288785858516614706565b613c82565b604051630479306360e51b8152600490fd5b60405163d642b7d960e01b8152600490fd5b8051916101208301613d67815163ffffffff1690565b63ffffffff42911610613d3f5760208301516001613d8e825f5261087260205260405f2090565b5403613fab576001905b6002613dad825f5261087260205260405f2090565b5414613d2d57613dc9613dcf915f5261087260205260405f2090565b60029055565b7f44b559f101f8fbcc8a0ea43fa91a05a729a5ea6e14a7c75aa7503746901372086060860151608087015190613e9c8760a08a0151958a60c08101519760a08401519860e083015199613e2c6101008501519c5163ffffffff1690565b61014085015163ffffffff1691604086015193865195613e90613e5861016060208b01519a0151613fb2565b9960608c01519b6040613e6e6080830151613fb2565b910151906020613e7c61063c565b9e8f528e015260408d015260608c01613a1c565b6040519c8d9c8d613a28565b0390a4613eac6080830151613976565b916040820151916080613ece81613ec66060850151613976565b940151613976565b6001600160a01b03929083167f0000000000000000000000000000000000000000000000000000000000000000841603613f9857613f10853033868a1661475d565b613f1c85848616614a56565b0151918251151580613f8e575b613f35575b5050505050565b16803b1561042e57613f63935f809460405196879586948593633a5be8cb60e01b8552339160048601613aaf565b03925af1801561095357613f7b575b80808080613f2e565b806135d4613f8892610548565b5f613f72565b50803b1515613f29565b613fa6858533868a1661475d565b613f1c565b5f90613d98565b80519081613fc05750505f90565b6020012090565b7f4910fdfa16fed3260ed0e7147f7cc6da11a60208b5b9406d12a635614ffd91435460ff1615613ffb5761048e9150614b76565b6040516352d1902d60e01b81526001600160a01b03821690602081600481855afa5f9181614114575b5061402d575f80fd5b7f360894a13ba1a3210667c828492db98dca3e2076cc3735a920a3ca505d382bbc0361042e5761405c82614b76565b7fbc7cd75a20ee27fd9adebab32041f755214dbc6bffa90cc0225b39da2e5c2d3b5f80a281511580159061410d575b614093575050565b5f8061410a937f206661696c656400000000000000000000000000000000000000000000000000604080516140c78161055c565b602781527f416464726573733a206c6f772d6c6576656c2064656c65676174652063616c6c60208201520152602081519101845af4614104612d1e565b91615533565b50565b505f61408b565b61412e91925060203d60201161395d5761394f81836105cc565b905f614024565b7f4910fdfa16fed3260ed0e7147f7cc6da11a60208b5b9406d12a635614ffd91435460ff16156141695761048e9150614b76565b6040516352d1902d60e01b81526001600160a01b03821690602081600481855afa5f9181614208575b5061419b575f80fd5b7f360894a13ba1a3210667c828492db98dca3e2076cc3735a920a3ca505d382bbc0361042e576141ca82614b76565b7fbc7cd75a20ee27fd9adebab32041f755214dbc6bffa90cc0225b39da2e5c2d3b5f80a281511580159061420057614093575050565b50600161408b565b61422291925060203d60201161395d5761394f81836105cc565b905f614192565b6001600160a01b0316610c5a816001600160a01b03198254161790557fdc4a5f4c066ad14c1306e624550b42395e08f992a76b416cc7b1ad11503d376c5f80a2565b939260429361048e979660208151910120906040519260208401947f8d1994e2bbbd77564cdca06dd819e7ee2a5efa06c80dcb59a4a7b6e39edc538f86526040850152856060850152608084015260a083015260c082015260c081526142d081610594565b5190209061047f549061048054906040519160208301937fc2f8787176b8ac6bf7215b4adcc1e069bf4ab82d9ab1df05a57a91d425935b6e855260408401526060830152608082015260808152614326816105b0565b519020906040519161190160f01b8352600283015260228201522090614bb9565b96926106c39a9996949198959261014099895260208901526040880152606087015263ffffffff928380921660808801521660a08601521660c084015260e08301526101008201528161012082015201906111b2565b6143a78151614a3b565b61012081016143c66143bd825163ffffffff1690565b63ffffffff1690565b8042109081156145f6575b50613637576101408201916143ea835163ffffffff1690565b9063ffffffff918261441e817f00000000000000000000000000000000000000000000000000000000000000001642613778565b9116116145e45761016081015163ffffffff16918083168061459f575b505060408101908151916001600160a01b037f00000000000000000000000000000000000000000000000000000000000000001680931480614596575b1561454957608082015134036135e057823b1561042e575f60049360405194858092630d0e30db60e41b825234905af1928315610953577f32ed1a409ef04c7b0227189c3a103dc5ac10e775a15b785dcc510201f7c25ad393614536575b505b516135c260608301519260808101519060a081015160c08201519761451561450a6101008501519b5163ffffffff1690565b9b5163ffffffff1690565b83519b60208501519361018060e0870151960151966040519a8b9a8b614347565b806135d461454392610548565b5f6144d6565b9150346135e0578161459161458261205f7f32ed1a409ef04c7b0227189c3a103dc5ac10e775a15b785dcc510201f7c25ad39551613976565b6080840151903090339061475d565b6144d8565b50341515614478565b6301e1338010156145cf575b5060e0810151156145bd575f8061443b565b60405163495d907f60e01b8152600490fd5b916145dd9192421690612db4565b905f6145ab565b60405163582e388960e01b8152600490fd5b614601915042613414565b63ffffffff7f000000000000000000000000000000000000000000000000000000000000000016105f6143d1565b60ff5f5460081c161561042e57565b60ff5f5460081c161561042e576001606555565b6001600160a01b0316801561469a57610869816001600160a01b03198254161790557fa9e8c42c9e7fca7f62755189a16b2f5314d43d8fb24e91ba54e6d65f9314e8495f80a2565b60405163ba97b39d60e01b8152600490fd5b6001600160a01b031680156146f45761086a816001600160a01b03198254161790557fa73e8909f8616742d7fe701153d82666f7b7cd480552e23ebb05d358c22fd04e5f80a2565b604051635b03092b60e11b8152600490fd5b60405163a9059cbb60e01b60208201526001600160a01b039092166024830152604482019290925261048e9161474982606481015b03601f1981018452836105cc565b614cac565b5f81126147585790565b5f0390565b909261048e93604051936323b872dd60e01b60208601526001600160a01b038092166024860152166044840152606483015260648252614749826105b0565b90670de0b6b3a7640000915f828403921283831281169084841390151617612dcc57818102918183041490151715612dcc570490565b929091905f915b845183101561481b576147ec8386612ce6565b51908181101561480a575f52602052600160405f205b9201916147d9565b905f52602052600160405f20614802565b915092501490565b60405163a9059cbb60e01b60208281019182526001600160a01b039094166024830152604482019490945290925f9161485f81606481016136fd565b519082855af1903d5f519083614876575b50505090565b9192509061488b57503b15155b5f8080614870565b6001915014614883565b6148c16148b4836001600160a01b03165f5261087460205260405f2090565b546001600160a01b031690565b916001600160a01b0392837f000000000000000000000000000000000000000000000000000000000000000016151580614a0e575b1561491457505061086a5461048e92506001600160a01b031661507d565b8316801561493a5761048e9361493361086a546001600160a01b031690565b9216614e92565b50906149e29261496d6149636148b45f956001600160a01b03165f52610c5b60205260405f2090565b9182161515612cdf565b61498661205f61205f610c5a546001600160a01b031690565b908361499b61086a546001600160a01b031690565b604051637b3a3c8b60e01b81526001600160a01b039384166004820152921660248301526044820193909352608060648201525f60848201529384928391829060a4820190565b03925af18015610953576149f35750565b61410a903d805f833e614a0681836105cc565b8101906131fb565b50837f000000000000000000000000000000000000000000000000000000000000000016848316146148f6565b60a01c614a4457565b6040516379ec0ed760e11b8152600490fd5b906001600160a01b03808316803b158015614b14575b15614ae757507f00000000000000000000000000000000000000000000000000000000000000001691823b1561042e57604051632e1a7d4d60e01b815260048101839052925f908490602490829084905af19283156109535761048e93614ad4575b5061532a565b806135d4614ae192610548565b5f614ace565b9061048e93507f000000000000000000000000000000000000000000000000000000000000000016614706565b50803b614b2081610656565b614b2d60405191826105cc565b81815260208101915f83853c51905162ffffff60e81b908181169260038110614b60575b50501661ef0160f01b14614a6c565b829350829060030360031b1b1616905f80614b51565b803b1561042e576001600160a01b037f360894a13ba1a3210667c828492db98dca3e2076cc3735a920a3ca505d382bbc91166001600160a01b0319825416179055565b614bc3838361545e565b6005819592951015612cda57159384614c81575b508315614bfb575b50505015614be957565b60405163938a182160e01b8152600490fd5b5f929350908291604051614c33816136fd6020820194630b135d3f60e11b998a875260248401526040604484015260648301906111b2565b51915afa90614c40612d1e565b82614c73575b82614c56575b50505f8080614bdf565b614c6b91925060208082518301019101613769565b145f80614c4c565b915060208251101591614c46565b6001600160a01b0383811691161493505f614bd7565b9081602091031261042e57516106c381611863565b905f806001600160a01b03614d039416927f5361666545524332303a206c6f772d6c6576656c2063616c6c206661696c65646020604051614cec8161050a565b818152015260208151910182855af1614104612d1e565b8051908115918215614d19575b50501561042e57565b614d2c9250602080918301019101614c97565b5f80614d10565b919082604091031261042e57604051614d4b8161050a565b6020808294805184520151910152565b9060408282031261042e576106c391614d33565b6106c39163ffffffff825116815260208201516020820152604082015160408201526060820151606082015260c0614dcb614db9608085015160e0608086015260e08501906111b2565b60a085015184820360a08601526111b2565b9201519060c08184039101526111b2565b91906020612f625f92604086526040860190614d6f565b519067ffffffffffffffff8216820361042e57565b919082810360c0811261042e5760801361042e576106c3906080604051614e2e8161055c565b85518152614e3e60208701614df3565b6020820152614e508360408801614d33565b60408201529401614d33565b9193926001600160a01b03906020614e7e606094608087526080870190614d6f565b968051828701520151604085015216910152565b9290916001600160a01b03614ea5612369565b93614eae612369565b614eb6612369565b9083614ec0610649565b63ffffffff7f0000000000000000000000000000000000000000000000000000000000000000168152951660208601526040968688870152866060870152608086015260a085015260c0840152168351633b6f743b60e01b8152600495858280614f2c878b8301614ddc565b0381865afa918215610953575f9261504e575b508151907f0000000000000000000000000000000000000000000000000000000000000000821161503e5747821161502e57602083015161501e57918391614f8e8760c096614faa9896615352565b875180968195829463c7c7f5b360e01b845230918d8501614e5c565b03925af1908115610953575f91614fed575b5060208101518203614fde575103614fd2575050565b51623c548b60ea1b8152fd5b505051631bfc3cb560e11b8152fd5b61500f915060c03d60c011615017575b61500781836105cc565b810190614e08565b90505f614fbc565b503d614ffd565b8651630e282ec960e21b81528890fd5b865163a6226f8560e01b81528890fd5b8651631754d7a960e01b81528890fd5b61506f919250863d8811615076575b61506781836105cc565b810190614d5b565b905f614f3f565b503d61505d565b906001600160a01b038092167f000000000000000000000000000000000000000000000000000000000000000090837f000000000000000000000000000000000000000000000000000000000000000016936150da84868561548f565b604094604051926332dd704760e21b84526020956004948781600481875afa9687156109535788915f98615309575b506040516352b7631960e11b81529086166001600160a01b03811660048301529097909588916024918391165afa958615610953575f966152ea575b5095867f0000000000000000000000000000000000000000000000000000000000000000975b61517a57505050505050505050565b868111156152e457865b881561523c57843b1561042e578951634701287760e11b815287810182815263ffffffff7f0000000000000000000000000000000000000000000000000000000000000000166020820152604081018690526001600160a01b03881660608201525f6080820181905260a082018190526107d060c0830152919391908490819060e0010381838a5af19283156109535761522393615229575b50613414565b8061516b565b806135d461523692610548565b5f61521d565b89516337e9a82760e11b815287810182815263ffffffff7f0000000000000000000000000000000000000000000000000000000000000000166020820152604081018690526001600160a01b038816606082015290929084908490819060800103815f8a5af192831561095357615223936152b75750613414565b6152d690853d87116152dd575b6152ce81836105cc565b81019061544a565b505f61521d565b503d6152c4565b80615184565b615302919650873d891161395d5761394f81836105cc565b945f615145565b8691985061532390833d851161094c5761093e81836105cc565b9790615109565b81471061042e575f8080936001600160a01b038294165af161534a612d1e565b501561042e57565b60405163095ea7b360e01b602082018181526001600160a01b0385166024840152604480840196909652948252939092601f19916153916064866105cc565b5f806001600160a01b0386169287519082855af1906153ae612d1e565b82615418575b508161540d575b50156153c8575050505050565b60405160208101959095526001600160a01b031660248501525f604485015261540393614749916153fd908260648101611b9d565b82614cac565b5f80808080613f2e565b90503b15155f6153bb565b80519192508115918215615430575b5050905f6153b4565b6154439250602080918301019101614c97565b5f80615427565b9081602091031261042e576106c390614df3565b9060418151145f146154865761118d91602082015190606060408401519301515f1a9061555c565b50505f90600290565b6044919260206001600160a01b0360405194858092636eb1769f60e11b8252306004830152808916602483015286165afa928315610953575f93615512575b508201809211612dcc5760405163095ea7b360e01b60208201526001600160a01b039093166024840152604483019190915261048e9190614749826064810161473b565b61552c91935060203d60201161395d5761394f81836105cc565b915f6154ce565b901561554d57815115615544575090565b3b1561042e5790565b50805190811561042e57602001fd5b7f7fffffffffffffffffffffffffffffff5d576e7357a4501ddfe92f46681b20a084116155cc576020935f9360ff60809460405194855216868401526040830152606082015282805260015afa15610953575f516001600160a01b038116156155c457905f90565b505f90600190565b505050505f9060039056fea264697066735822122048dea146674788456a13ed427a79bb16b5cf92bc64728d7dafecd33ef2dd59c764736f6c63430008170033"
}