{
  "address": "0x91F1804aCaf87C2D34A34A70be1bb16bB85D6748",
  "abi": [
    {
      "inputs": [
        {
          "internalType": "address",
          "name": "_wrappedNativeTokenAddress",
          "type": "address"
        },
        {
          "internalType": "uint32",
          "name": "_depositQuoteTimeBuffer",
          "type": "uint32"
        },
        {
          "internalType": "uint32",
          "name": "_fillDeadlineBuffer",
          "type": "uint32"
        },
        {
          "internalType": "contract IERC20",
          "name": "_l2Usdc",
          "type": "address"
        },
        {
          "internalType": "contract ITokenMessenger",
          "name": "_cctpTokenMessenger",
          "type": "address"
        }
      ],
      "stateMutability": "nonpayable",
      "type": "constructor"
    },
    {
      "inputs": [],
      "name": "ClaimedMerkleLeaf",
      "type": "error"
    },
    {
      "inputs": [],
      "name": "DepositsArePaused",
      "type": "error"
    },
    {
      "inputs": [],
      "name": "DisabledRoute",
      "type": "error"
    },
    {
      "inputs": [],
      "name": "ExpiredFillDeadline",
      "type": "error"
    },
    {
      "inputs": [],
      "name": "FillsArePaused",
      "type": "error"
    },
    {
      "inputs": [],
      "name": "InsufficientSpokePoolBalanceToExecuteLeaf",
      "type": "error"
    },
    {
      "inputs": [],
      "name": "InvalidBytes32",
      "type": "error"
    },
    {
      "inputs": [],
      "name": "InvalidChainId",
      "type": "error"
    },
    {
      "inputs": [],
      "name": "InvalidCrossDomainAdmin",
      "type": "error"
    },
    {
      "inputs": [],
      "name": "InvalidDepositorSignature",
      "type": "error"
    },
    {
      "inputs": [],
      "name": "InvalidExclusiveRelayer",
      "type": "error"
    },
    {
      "inputs": [],
      "name": "InvalidFillDeadline",
      "type": "error"
    },
    {
      "inputs": [],
      "name": "InvalidMerkleLeaf",
      "type": "error"
    },
    {
      "inputs": [],
      "name": "InvalidMerkleProof",
      "type": "error"
    },
    {
      "inputs": [],
      "name": "InvalidPayoutAdjustmentPct",
      "type": "error"
    },
    {
      "inputs": [],
      "name": "InvalidQuoteTimestamp",
      "type": "error"
    },
    {
      "inputs": [],
      "name": "InvalidRelayerFeePct",
      "type": "error"
    },
    {
      "inputs": [],
      "name": "InvalidSlowFillRequest",
      "type": "error"
    },
    {
      "inputs": [],
      "name": "InvalidWithdrawalRecipient",
      "type": "error"
    },
    {
      "inputs": [
        {
          "internalType": "bytes",
          "name": "data",
          "type": "bytes"
        }
      ],
      "name": "LowLevelCallFailed",
      "type": "error"
    },
    {
      "inputs": [],
      "name": "MaxTransferSizeExceeded",
      "type": "error"
    },
    {
      "inputs": [],
      "name": "MsgValueDoesNotMatchInputAmount",
      "type": "error"
    },
    {
      "inputs": [],
      "name": "NoRelayerRefundToClaim",
      "type": "error"
    },
    {
      "inputs": [],
      "name": "NoSlowFillsInExclusivityWindow",
      "type": "error"
    },
    {
      "inputs": [],
      "name": "NotEOA",
      "type": "error"
    },
    {
      "inputs": [],
      "name": "NotExclusiveRelayer",
      "type": "error"
    },
    {
      "inputs": [],
      "name": "RelayFilled",
      "type": "error"
    },
    {
      "inputs": [],
      "name": "WrongERC7683OrderId",
      "type": "error"
    },
    {
      "anonymous": false,
      "inputs": [
        {
          "indexed": false,
          "internalType": "address",
          "name": "previousAdmin",
          "type": "address"
        },
        {
          "indexed": false,
          "internalType": "address",
          "name": "newAdmin",
          "type": "address"
        }
      ],
      "name": "AdminChanged",
      "type": "event"
    },
    {
      "anonymous": false,
      "inputs": [
        {
          "indexed": true,
          "internalType": "address",
          "name": "beacon",
          "type": "address"
        }
      ],
      "name": "BeaconUpgraded",
      "type": "event"
    },
    {
      "anonymous": false,
      "inputs": [
        {
          "indexed": true,
          "internalType": "bytes32",
          "name": "l2TokenAddress",
          "type": "bytes32"
        },
        {
          "indexed": true,
          "internalType": "bytes32",
          "name": "refundAddress",
          "type": "bytes32"
        },
        {
          "indexed": false,
          "internalType": "uint256",
          "name": "amount",
          "type": "uint256"
        },
        {
          "indexed": true,
          "internalType": "address",
          "name": "caller",
          "type": "address"
        }
      ],
      "name": "ClaimedRelayerRefund",
      "type": "event"
    },
    {
      "anonymous": false,
      "inputs": [
        {
          "indexed": true,
          "internalType": "uint256",
          "name": "rootBundleId",
          "type": "uint256"
        }
      ],
      "name": "EmergencyDeletedRootBundle",
      "type": "event"
    },
    {
      "anonymous": false,
      "inputs": [
        {
          "indexed": true,
          "internalType": "address",
          "name": "originToken",
          "type": "address"
        },
        {
          "indexed": true,
          "internalType": "uint256",
          "name": "destinationChainId",
          "type": "uint256"
        },
        {
          "indexed": false,
          "internalType": "bool",
          "name": "enabled",
          "type": "bool"
        }
      ],
      "name": "EnabledDepositRoute",
      "type": "event"
    },
    {
      "anonymous": false,
      "inputs": [
        {
          "indexed": false,
          "internalType": "uint256",
          "name": "amountToReturn",
          "type": "uint256"
        },
        {
          "indexed": true,
          "internalType": "uint256",
          "name": "chainId",
          "type": "uint256"
        },
        {
          "indexed": false,
          "internalType": "uint256[]",
          "name": "refundAmounts",
          "type": "uint256[]"
        },
        {
          "indexed": true,
          "internalType": "uint32",
          "name": "rootBundleId",
          "type": "uint32"
        },
        {
          "indexed": true,
          "internalType": "uint32",
          "name": "leafId",
          "type": "uint32"
        },
        {
          "indexed": false,
          "internalType": "address",
          "name": "l2TokenAddress",
          "type": "address"
        },
        {
          "indexed": false,
          "internalType": "address[]",
          "name": "refundAddresses",
          "type": "address[]"
        },
        {
          "indexed": false,
          "internalType": "bool",
          "name": "deferredRefunds",
          "type": "bool"
        },
        {
          "indexed": false,
          "internalType": "address",
          "name": "caller",
          "type": "address"
        }
      ],
      "name": "ExecutedRelayerRefundRoot",
      "type": "event"
    },
    {
      "anonymous": false,
      "inputs": [
        {
          "indexed": false,
          "internalType": "bytes32",
          "name": "inputToken",
          "type": "bytes32"
        },
        {
          "indexed": false,
          "internalType": "bytes32",
          "name": "outputToken",
          "type": "bytes32"
        },
        {
          "indexed": false,
          "internalType": "uint256",
          "name": "inputAmount",
          "type": "uint256"
        },
        {
          "indexed": false,
          "internalType": "uint256",
          "name": "outputAmount",
          "type": "uint256"
        },
        {
          "indexed": false,
          "internalType": "uint256",
          "name": "repaymentChainId",
          "type": "uint256"
        },
        {
          "indexed": true,
          "internalType": "uint256",
          "name": "originChainId",
          "type": "uint256"
        },
        {
          "indexed": true,
          "internalType": "uint256",
          "name": "depositId",
          "type": "uint256"
        },
        {
          "indexed": false,
          "internalType": "uint32",
          "name": "fillDeadline",
          "type": "uint32"
        },
        {
          "indexed": false,
          "internalType": "uint32",
          "name": "exclusivityDeadline",
          "type": "uint32"
        },
        {
          "indexed": false,
          "internalType": "bytes32",
          "name": "exclusiveRelayer",
          "type": "bytes32"
        },
        {
          "indexed": true,
          "internalType": "bytes32",
          "name": "relayer",
          "type": "bytes32"
        },
        {
          "indexed": false,
          "internalType": "bytes32",
          "name": "depositor",
          "type": "bytes32"
        },
        {
          "indexed": false,
          "internalType": "bytes32",
          "name": "recipient",
          "type": "bytes32"
        },
        {
          "indexed": false,
          "internalType": "bytes32",
          "name": "messageHash",
          "type": "bytes32"
        },
        {
          "components": [
            {
              "internalType": "bytes32",
              "name": "updatedRecipient",
              "type": "bytes32"
            },
            {
              "internalType": "bytes32",
              "name": "updatedMessageHash",
              "type": "bytes32"
            },
            {
              "internalType": "uint256",
              "name": "updatedOutputAmount",
              "type": "uint256"
            },
            {
              "internalType": "enum V3SpokePoolInterface.FillType",
              "name": "fillType",
              "type": "uint8"
            }
          ],
          "indexed": false,
          "internalType": "struct V3SpokePoolInterface.V3RelayExecutionEventInfo",
          "name": "relayExecutionInfo",
          "type": "tuple"
        }
      ],
      "name": "FilledRelay",
      "type": "event"
    },
    {
      "anonymous": false,
      "inputs": [
        {
          "indexed": false,
          "internalType": "address",
          "name": "inputToken",
          "type": "address"
        },
        {
          "indexed": false,
          "internalType": "address",
          "name": "outputToken",
          "type": "address"
        },
        {
          "indexed": false,
          "internalType": "uint256",
          "name": "inputAmount",
          "type": "uint256"
        },
        {
          "indexed": false,
          "internalType": "uint256",
          "name": "outputAmount",
          "type": "uint256"
        },
        {
          "indexed": false,
          "internalType": "uint256",
          "name": "repaymentChainId",
          "type": "uint256"
        },
        {
          "indexed": true,
          "internalType": "uint256",
          "name": "originChainId",
          "type": "uint256"
        },
        {
          "indexed": true,
          "internalType": "uint32",
          "name": "depositId",
          "type": "uint32"
        },
        {
          "indexed": false,
          "internalType": "uint32",
          "name": "fillDeadline",
          "type": "uint32"
        },
        {
          "indexed": false,
          "internalType": "uint32",
          "name": "exclusivityDeadline",
          "type": "uint32"
        },
        {
          "indexed": false,
          "internalType": "address",
          "name": "exclusiveRelayer",
          "type": "address"
        },
        {
          "indexed": true,
          "internalType": "address",
          "name": "relayer",
          "type": "address"
        },
        {
          "indexed": false,
          "internalType": "address",
          "name": "depositor",
          "type": "address"
        },
        {
          "indexed": false,
          "internalType": "address",
          "name": "recipient",
          "type": "address"
        },
        {
          "indexed": false,
          "internalType": "bytes",
          "name": "message",
          "type": "bytes"
        },
        {
          "components": [
            {
              "internalType": "address",
              "name": "updatedRecipient",
              "type": "address"
            },
            {
              "internalType": "bytes",
              "name": "updatedMessage",
              "type": "bytes"
            },
            {
              "internalType": "uint256",
              "name": "updatedOutputAmount",
              "type": "uint256"
            },
            {
              "internalType": "enum V3SpokePoolInterface.FillType",
              "name": "fillType",
              "type": "uint8"
            }
          ],
          "indexed": false,
          "internalType": "struct V3SpokePoolInterface.LegacyV3RelayExecutionEventInfo",
          "name": "relayExecutionInfo",
          "type": "tuple"
        }
      ],
      "name": "FilledV3Relay",
      "type": "event"
    },
    {
      "anonymous": false,
      "inputs": [
        {
          "indexed": false,
          "internalType": "bytes32",
          "name": "inputToken",
          "type": "bytes32"
        },
        {
          "indexed": false,
          "internalType": "bytes32",
          "name": "outputToken",
          "type": "bytes32"
        },
        {
          "indexed": false,
          "internalType": "uint256",
          "name": "inputAmount",
          "type": "uint256"
        },
        {
          "indexed": false,
          "internalType": "uint256",
          "name": "outputAmount",
          "type": "uint256"
        },
        {
          "indexed": true,
          "internalType": "uint256",
          "name": "destinationChainId",
          "type": "uint256"
        },
        {
          "indexed": true,
          "internalType": "uint256",
          "name": "depositId",
          "type": "uint256"
        },
        {
          "indexed": false,
          "internalType": "uint32",
          "name": "quoteTimestamp",
          "type": "uint32"
        },
        {
          "indexed": false,
          "internalType": "uint32",
          "name": "fillDeadline",
          "type": "uint32"
        },
        {
          "indexed": false,
          "internalType": "uint32",
          "name": "exclusivityDeadline",
          "type": "uint32"
        },
        {
          "indexed": true,
          "internalType": "bytes32",
          "name": "depositor",
          "type": "bytes32"
        },
        {
          "indexed": false,
          "internalType": "bytes32",
          "name": "recipient",
          "type": "bytes32"
        },
        {
          "indexed": false,
          "internalType": "bytes32",
          "name": "exclusiveRelayer",
          "type": "bytes32"
        },
        {
          "indexed": false,
          "internalType": "bytes",
          "name": "message",
          "type": "bytes"
        }
      ],
      "name": "FundsDeposited",
      "type": "event"
    },
    {
      "anonymous": false,
      "inputs": [
        {
          "indexed": false,
          "internalType": "uint8",
          "name": "version",
          "type": "uint8"
        }
      ],
      "name": "Initialized",
      "type": "event"
    },
    {
      "anonymous": false,
      "inputs": [
        {
          "indexed": false,
          "internalType": "bool",
          "name": "isPaused",
          "type": "bool"
        }
      ],
      "name": "PausedDeposits",
      "type": "event"
    },
    {
      "anonymous": false,
      "inputs": [
        {
          "indexed": false,
          "internalType": "bool",
          "name": "isPaused",
          "type": "bool"
        }
      ],
      "name": "PausedFills",
      "type": "event"
    },
    {
      "anonymous": false,
      "inputs": [
        {
          "indexed": true,
          "internalType": "uint32",
          "name": "rootBundleId",
          "type": "uint32"
        },
        {
          "indexed": true,
          "internalType": "bytes32",
          "name": "relayerRefundRoot",
          "type": "bytes32"
        },
        {
          "indexed": true,
          "internalType": "bytes32",
          "name": "slowRelayRoot",
          "type": "bytes32"
        }
      ],
      "name": "RelayedRootBundle",
      "type": "event"
    },
    {
      "anonymous": false,
      "inputs": [
        {
          "indexed": false,
          "internalType": "bytes32",
          "name": "inputToken",
          "type": "bytes32"
        },
        {
          "indexed": false,
          "internalType": "bytes32",
          "name": "outputToken",
          "type": "bytes32"
        },
        {
          "indexed": false,
          "internalType": "uint256",
          "name": "inputAmount",
          "type": "uint256"
        },
        {
          "indexed": false,
          "internalType": "uint256",
          "name": "outputAmount",
          "type": "uint256"
        },
        {
          "indexed": true,
          "internalType": "uint256",
          "name": "originChainId",
          "type": "uint256"
        },
        {
          "indexed": true,
          "internalType": "uint256",
          "name": "depositId",
          "type": "uint256"
        },
        {
          "indexed": false,
          "internalType": "uint32",
          "name": "fillDeadline",
          "type": "uint32"
        },
        {
          "indexed": false,
          "internalType": "uint32",
          "name": "exclusivityDeadline",
          "type": "uint32"
        },
        {
          "indexed": false,
          "internalType": "bytes32",
          "name": "exclusiveRelayer",
          "type": "bytes32"
        },
        {
          "indexed": false,
          "internalType": "bytes32",
          "name": "depositor",
          "type": "bytes32"
        },
        {
          "indexed": false,
          "internalType": "bytes32",
          "name": "recipient",
          "type": "bytes32"
        },
        {
          "indexed": false,
          "internalType": "bytes32",
          "name": "messageHash",
          "type": "bytes32"
        }
      ],
      "name": "RequestedSlowFill",
      "type": "event"
    },
    {
      "anonymous": false,
      "inputs": [
        {
          "indexed": false,
          "internalType": "uint256",
          "name": "updatedOutputAmount",
          "type": "uint256"
        },
        {
          "indexed": true,
          "internalType": "uint256",
          "name": "depositId",
          "type": "uint256"
        },
        {
          "indexed": true,
          "internalType": "bytes32",
          "name": "depositor",
          "type": "bytes32"
        },
        {
          "indexed": false,
          "internalType": "bytes32",
          "name": "updatedRecipient",
          "type": "bytes32"
        },
        {
          "indexed": false,
          "internalType": "bytes",
          "name": "updatedMessage",
          "type": "bytes"
        },
        {
          "indexed": false,
          "internalType": "bytes",
          "name": "depositorSignature",
          "type": "bytes"
        }
      ],
      "name": "RequestedSpeedUpDeposit",
      "type": "event"
    },
    {
      "anonymous": false,
      "inputs": [
        {
          "indexed": false,
          "internalType": "uint256",
          "name": "updatedOutputAmount",
          "type": "uint256"
        },
        {
          "indexed": true,
          "internalType": "uint32",
          "name": "depositId",
          "type": "uint32"
        },
        {
          "indexed": true,
          "internalType": "address",
          "name": "depositor",
          "type": "address"
        },
        {
          "indexed": false,
          "internalType": "address",
          "name": "updatedRecipient",
          "type": "address"
        },
        {
          "indexed": false,
          "internalType": "bytes",
          "name": "updatedMessage",
          "type": "bytes"
        },
        {
          "indexed": false,
          "internalType": "bytes",
          "name": "depositorSignature",
          "type": "bytes"
        }
      ],
      "name": "RequestedSpeedUpV3Deposit",
      "type": "event"
    },
    {
      "anonymous": false,
      "inputs": [
        {
          "indexed": false,
          "internalType": "address",
          "name": "inputToken",
          "type": "address"
        },
        {
          "indexed": false,
          "internalType": "address",
          "name": "outputToken",
          "type": "address"
        },
        {
          "indexed": false,
          "internalType": "uint256",
          "name": "inputAmount",
          "type": "uint256"
        },
        {
          "indexed": false,
          "internalType": "uint256",
          "name": "outputAmount",
          "type": "uint256"
        },
        {
          "indexed": true,
          "internalType": "uint256",
          "name": "originChainId",
          "type": "uint256"
        },
        {
          "indexed": true,
          "internalType": "uint32",
          "name": "depositId",
          "type": "uint32"
        },
        {
          "indexed": false,
          "internalType": "uint32",
          "name": "fillDeadline",
          "type": "uint32"
        },
        {
          "indexed": false,
          "internalType": "uint32",
          "name": "exclusivityDeadline",
          "type": "uint32"
        },
        {
          "indexed": false,
          "internalType": "address",
          "name": "exclusiveRelayer",
          "type": "address"
        },
        {
          "indexed": false,
          "internalType": "address",
          "name": "depositor",
          "type": "address"
        },
        {
          "indexed": false,
          "internalType": "address",
          "name": "recipient",
          "type": "address"
        },
        {
          "indexed": false,
          "internalType": "bytes",
          "name": "message",
          "type": "bytes"
        }
      ],
      "name": "RequestedV3SlowFill",
      "type": "event"
    },
    {
      "anonymous": false,
      "inputs": [
        {
          "indexed": true,
          "internalType": "address",
          "name": "newL2GatewayRouter",
          "type": "address"
        }
      ],
      "name": "SetL2GatewayRouter",
      "type": "event"
    },
    {
      "anonymous": false,
      "inputs": [
        {
          "indexed": true,
          "internalType": "address",
          "name": "newWithdrawalRecipient",
          "type": "address"
        }
      ],
      "name": "SetWithdrawalRecipient",
      "type": "event"
    },
    {
      "anonymous": false,
      "inputs": [
        {
          "indexed": true,
          "internalType": "address",
          "name": "newAdmin",
          "type": "address"
        }
      ],
      "name": "SetXDomainAdmin",
      "type": "event"
    },
    {
      "anonymous": false,
      "inputs": [
        {
          "indexed": false,
          "internalType": "uint256",
          "name": "amountToReturn",
          "type": "uint256"
        },
        {
          "indexed": true,
          "internalType": "uint256",
          "name": "chainId",
          "type": "uint256"
        },
        {
          "indexed": true,
          "internalType": "uint32",
          "name": "leafId",
          "type": "uint32"
        },
        {
          "indexed": true,
          "internalType": "bytes32",
          "name": "l2TokenAddress",
          "type": "bytes32"
        },
        {
          "indexed": false,
          "internalType": "address",
          "name": "caller",
          "type": "address"
        }
      ],
      "name": "TokensBridged",
      "type": "event"
    },
    {
      "anonymous": false,
      "inputs": [
        {
          "indexed": true,
          "internalType": "address",
          "name": "implementation",
          "type": "address"
        }
      ],
      "name": "Upgraded",
      "type": "event"
    },
    {
      "anonymous": false,
      "inputs": [
        {
          "indexed": false,
          "internalType": "address",
          "name": "inputToken",
          "type": "address"
        },
        {
          "indexed": false,
          "internalType": "address",
          "name": "outputToken",
          "type": "address"
        },
        {
          "indexed": false,
          "internalType": "uint256",
          "name": "inputAmount",
          "type": "uint256"
        },
        {
          "indexed": false,
          "internalType": "uint256",
          "name": "outputAmount",
          "type": "uint256"
        },
        {
          "indexed": true,
          "internalType": "uint256",
          "name": "destinationChainId",
          "type": "uint256"
        },
        {
          "indexed": true,
          "internalType": "uint32",
          "name": "depositId",
          "type": "uint32"
        },
        {
          "indexed": false,
          "internalType": "uint32",
          "name": "quoteTimestamp",
          "type": "uint32"
        },
        {
          "indexed": false,
          "internalType": "uint32",
          "name": "fillDeadline",
          "type": "uint32"
        },
        {
          "indexed": false,
          "internalType": "uint32",
          "name": "exclusivityDeadline",
          "type": "uint32"
        },
        {
          "indexed": true,
          "internalType": "address",
          "name": "depositor",
          "type": "address"
        },
        {
          "indexed": false,
          "internalType": "address",
          "name": "recipient",
          "type": "address"
        },
        {
          "indexed": false,
          "internalType": "address",
          "name": "exclusiveRelayer",
          "type": "address"
        },
        {
          "indexed": false,
          "internalType": "bytes",
          "name": "message",
          "type": "bytes"
        }
      ],
      "name": "V3FundsDeposited",
      "type": "event"
    },
    {
      "anonymous": false,
      "inputs": [
        {
          "indexed": true,
          "internalType": "address",
          "name": "l2Token",
          "type": "address"
        },
        {
          "indexed": true,
          "internalType": "address",
          "name": "l1Token",
          "type": "address"
        }
      ],
      "name": "WhitelistedTokens",
      "type": "event"
    },
    {
      "inputs": [],
      "name": "EMPTY_RELAYER",
      "outputs": [
        {
          "internalType": "bytes32",
          "name": "",
          "type": "bytes32"
        }
      ],
      "stateMutability": "view",
      "type": "function"
    },
    {
      "inputs": [],
      "name": "EMPTY_REPAYMENT_CHAIN_ID",
      "outputs": [
        {
          "internalType": "uint256",
          "name": "",
          "type": "uint256"
        }
      ],
      "stateMutability": "view",
      "type": "function"
    },
    {
      "inputs": [],
      "name": "INFINITE_FILL_DEADLINE",
      "outputs": [
        {
          "internalType": "uint32",
          "name": "",
          "type": "uint32"
        }
      ],
      "stateMutability": "view",
      "type": "function"
    },
    {
      "inputs": [],
      "name": "MAX_EXCLUSIVITY_PERIOD_SECONDS",
      "outputs": [
        {
          "internalType": "uint32",
          "name": "",
          "type": "uint32"
        }
      ],
      "stateMutability": "view",
      "type": "function"
    },
    {
      "inputs": [],
      "name": "MAX_TRANSFER_SIZE",
      "outputs": [
        {
          "internalType": "uint256",
          "name": "",
          "type": "uint256"
        }
      ],
      "stateMutability": "view",
      "type": "function"
    },
    {
      "inputs": [],
      "name": "UPDATE_ADDRESS_DEPOSIT_DETAILS_HASH",
      "outputs": [
        {
          "internalType": "bytes32",
          "name": "",
          "type": "bytes32"
        }
      ],
      "stateMutability": "view",
      "type": "function"
    },
    {
      "inputs": [],
      "name": "UPDATE_BYTES32_DEPOSIT_DETAILS_HASH",
      "outputs": [
        {
          "internalType": "bytes32",
          "name": "",
          "type": "bytes32"
        }
      ],
      "stateMutability": "view",
      "type": "function"
    },
    {
      "inputs": [
        {
          "internalType": "uint32",
          "name": "_initialDepositId",
          "type": "uint32"
        },
        {
          "internalType": "address",
          "name": "_crossDomainAdmin",
          "type": "address"
        },
        {
          "internalType": "address",
          "name": "_withdrawalRecipient",
          "type": "address"
        }
      ],
      "name": "__SpokePool_init",
      "outputs": [],
      "stateMutability": "nonpayable",
      "type": "function"
    },
    {
      "inputs": [],
      "name": "cctpTokenMessenger",
      "outputs": [
        {
          "internalType": "contract ITokenMessenger",
          "name": "",
          "type": "address"
        }
      ],
      "stateMutability": "view",
      "type": "function"
    },
    {
      "inputs": [],
      "name": "chainId",
      "outputs": [
        {
          "internalType": "uint256",
          "name": "",
          "type": "uint256"
        }
      ],
      "stateMutability": "view",
      "type": "function"
    },
    {
      "inputs": [
        {
          "internalType": "bytes32",
          "name": "l2TokenAddress",
          "type": "bytes32"
        },
        {
          "internalType": "bytes32",
          "name": "refundAddress",
          "type": "bytes32"
        }
      ],
      "name": "claimRelayerRefund",
      "outputs": [],
      "stateMutability": "nonpayable",
      "type": "function"
    },
    {
      "inputs": [],
      "name": "crossDomainAdmin",
      "outputs": [
        {
          "internalType": "address",
          "name": "",
          "type": "address"
        }
      ],
      "stateMutability": "view",
      "type": "function"
    },
    {
      "inputs": [
        {
          "internalType": "bytes32",
          "name": "depositor",
          "type": "bytes32"
        },
        {
          "internalType": "bytes32",
          "name": "recipient",
          "type": "bytes32"
        },
        {
          "internalType": "bytes32",
          "name": "inputToken",
          "type": "bytes32"
        },
        {
          "internalType": "bytes32",
          "name": "outputToken",
          "type": "bytes32"
        },
        {
          "internalType": "uint256",
          "name": "inputAmount",
          "type": "uint256"
        },
        {
          "internalType": "uint256",
          "name": "outputAmount",
          "type": "uint256"
        },
        {
          "internalType": "uint256",
          "name": "destinationChainId",
          "type": "uint256"
        },
        {
          "internalType": "bytes32",
          "name": "exclusiveRelayer",
          "type": "bytes32"
        },
        {
          "internalType": "uint32",
          "name": "quoteTimestamp",
          "type": "uint32"
        },
        {
          "internalType": "uint32",
          "name": "fillDeadline",
          "type": "uint32"
        },
        {
          "internalType": "uint32",
          "name": "exclusivityParameter",
          "type": "uint32"
        },
        {
          "internalType": "bytes",
          "name": "message",
          "type": "bytes"
        }
      ],
      "name": "deposit",
      "outputs": [],
      "stateMutability": "payable",
      "type": "function"
    },
    {
      "inputs": [
        {
          "internalType": "address",
          "name": "recipient",
          "type": "address"
        },
        {
          "internalType": "address",
          "name": "originToken",
          "type": "address"
        },
        {
          "internalType": "uint256",
          "name": "amount",
          "type": "uint256"
        },
        {
          "internalType": "uint256",
          "name": "destinationChainId",
          "type": "uint256"
        },
        {
          "internalType": "int64",
          "name": "relayerFeePct",
          "type": "int64"
        },
        {
          "internalType": "uint32",
          "name": "quoteTimestamp",
          "type": "uint32"
        },
        {
          "internalType": "bytes",
          "name": "message",
          "type": "bytes"
        },
        {
          "internalType": "uint256",
          "name": "",
          "type": "uint256"
        }
      ],
      "name": "depositDeprecated_5947912356",
      "outputs": [],
      "stateMutability": "payable",
      "type": "function"
    },
    {
      "inputs": [
        {
          "internalType": "address",
          "name": "depositor",
          "type": "address"
        },
        {
          "internalType": "address",
          "name": "recipient",
          "type": "address"
        },
        {
          "internalType": "address",
          "name": "originToken",
          "type": "address"
        },
        {
          "internalType": "uint256",
          "name": "amount",
          "type": "uint256"
        },
        {
          "internalType": "uint256",
          "name": "destinationChainId",
          "type": "uint256"
        },
        {
          "internalType": "int64",
          "name": "relayerFeePct",
          "type": "int64"
        },
        {
          "internalType": "uint32",
          "name": "quoteTimestamp",
          "type": "uint32"
        },
        {
          "internalType": "bytes",
          "name": "message",
          "type": "bytes"
        },
        {
          "internalType": "uint256",
          "name": "",
          "type": "uint256"
        }
      ],
      "name": "depositFor",
      "outputs": [],
      "stateMutability": "payable",
      "type": "function"
    },
    {
      "inputs": [
        {
          "internalType": "bytes32",
          "name": "depositor",
          "type": "bytes32"
        },
        {
          "internalType": "bytes32",
          "name": "recipient",
          "type": "bytes32"
        },
        {
          "internalType": "bytes32",
          "name": "inputToken",
          "type": "bytes32"
        },
        {
          "internalType": "bytes32",
          "name": "outputToken",
          "type": "bytes32"
        },
        {
          "internalType": "uint256",
          "name": "inputAmount",
          "type": "uint256"
        },
        {
          "internalType": "uint256",
          "name": "outputAmount",
          "type": "uint256"
        },
        {
          "internalType": "uint256",
          "name": "destinationChainId",
          "type": "uint256"
        },
        {
          "internalType": "bytes32",
          "name": "exclusiveRelayer",
          "type": "bytes32"
        },
        {
          "internalType": "uint32",
          "name": "fillDeadlineOffset",
          "type": "uint32"
        },
        {
          "internalType": "uint32",
          "name": "exclusivityParameter",
          "type": "uint32"
        },
        {
          "internalType": "bytes",
          "name": "message",
          "type": "bytes"
        }
      ],
      "name": "depositNow",
      "outputs": [],
      "stateMutability": "payable",
      "type": "function"
    },
    {
      "inputs": [],
      "name": "depositQuoteTimeBuffer",
      "outputs": [
        {
          "internalType": "uint32",
          "name": "",
          "type": "uint32"
        }
      ],
      "stateMutability": "view",
      "type": "function"
    },
    {
      "inputs": [
        {
          "internalType": "address",
          "name": "depositor",
          "type": "address"
        },
        {
          "internalType": "address",
          "name": "recipient",
          "type": "address"
        },
        {
          "internalType": "address",
          "name": "inputToken",
          "type": "address"
        },
        {
          "internalType": "address",
          "name": "outputToken",
          "type": "address"
        },
        {
          "internalType": "uint256",
          "name": "inputAmount",
          "type": "uint256"
        },
        {
          "internalType": "uint256",
          "name": "outputAmount",
          "type": "uint256"
        },
        {
          "internalType": "uint256",
          "name": "destinationChainId",
          "type": "uint256"
        },
        {
          "internalType": "address",
          "name": "exclusiveRelayer",
          "type": "address"
        },
        {
          "internalType": "uint32",
          "name": "quoteTimestamp",
          "type": "uint32"
        },
        {
          "internalType": "uint32",
          "name": "fillDeadline",
          "type": "uint32"
        },
        {
          "internalType": "uint32",
          "name": "exclusivityParameter",
          "type": "uint32"
        },
        {
          "internalType": "bytes",
          "name": "message",
          "type": "bytes"
        }
      ],
      "name": "depositV3",
      "outputs": [],
      "stateMutability": "payable",
      "type": "function"
    },
    {
      "inputs": [
        {
          "internalType": "address",
          "name": "depositor",
          "type": "address"
        },
        {
          "internalType": "address",
          "name": "recipient",
          "type": "address"
        },
        {
          "internalType": "address",
          "name": "inputToken",
          "type": "address"
        },
        {
          "internalType": "address",
          "name": "outputToken",
          "type": "address"
        },
        {
          "internalType": "uint256",
          "name": "inputAmount",
          "type": "uint256"
        },
        {
          "internalType": "uint256",
          "name": "outputAmount",
          "type": "uint256"
        },
        {
          "internalType": "uint256",
          "name": "destinationChainId",
          "type": "uint256"
        },
        {
          "internalType": "address",
          "name": "exclusiveRelayer",
          "type": "address"
        },
        {
          "internalType": "uint32",
          "name": "fillDeadlineOffset",
          "type": "uint32"
        },
        {
          "internalType": "uint32",
          "name": "exclusivityParameter",
          "type": "uint32"
        },
        {
          "internalType": "bytes",
          "name": "message",
          "type": "bytes"
        }
      ],
      "name": "depositV3Now",
      "outputs": [],
      "stateMutability": "payable",
      "type": "function"
    },
    {
      "inputs": [
        {
          "internalType": "uint256",
          "name": "rootBundleId",
          "type": "uint256"
        }
      ],
      "name": "emergencyDeleteRootBundle",
      "outputs": [],
      "stateMutability": "nonpayable",
      "type": "function"
    },
    {
      "inputs": [
        {
          "internalType": "address",
          "name": "",
          "type": "address"
        },
        {
          "internalType": "uint256",
          "name": "",
          "type": "uint256"
        }
      ],
      "name": "enabledDepositRoutes",
      "outputs": [
        {
          "internalType": "bool",
          "name": "",
          "type": "bool"
        }
      ],
      "stateMutability": "view",
      "type": "function"
    },
    {
      "inputs": [
        {
          "internalType": "uint32",
          "name": "rootBundleId",
          "type": "uint32"
        },
        {
          "components": [
            {
              "internalType": "uint256",
              "name": "amountToReturn",
              "type": "uint256"
            },
            {
              "internalType": "uint256",
              "name": "chainId",
              "type": "uint256"
            },
            {
              "internalType": "uint256[]",
              "name": "refundAmounts",
              "type": "uint256[]"
            },
            {
              "internalType": "uint32",
              "name": "leafId",
              "type": "uint32"
            },
            {
              "internalType": "address",
              "name": "l2TokenAddress",
              "type": "address"
            },
            {
              "internalType": "address[]",
              "name": "refundAddresses",
              "type": "address[]"
            }
          ],
          "internalType": "struct SpokePoolInterface.RelayerRefundLeaf",
          "name": "relayerRefundLeaf",
          "type": "tuple"
        },
        {
          "internalType": "bytes32[]",
          "name": "proof",
          "type": "bytes32[]"
        }
      ],
      "name": "executeRelayerRefundLeaf",
      "outputs": [],
      "stateMutability": "payable",
      "type": "function"
    },
    {
      "inputs": [
        {
          "components": [
            {
              "components": [
                {
                  "internalType": "bytes32",
                  "name": "depositor",
                  "type": "bytes32"
                },
                {
                  "internalType": "bytes32",
                  "name": "recipient",
                  "type": "bytes32"
                },
                {
                  "internalType": "bytes32",
                  "name": "exclusiveRelayer",
                  "type": "bytes32"
                },
                {
                  "internalType": "bytes32",
                  "name": "inputToken",
                  "type": "bytes32"
                },
                {
                  "internalType": "bytes32",
                  "name": "outputToken",
                  "type": "bytes32"
                },
                {
                  "internalType": "uint256",
                  "name": "inputAmount",
                  "type": "uint256"
                },
                {
                  "internalType": "uint256",
                  "name": "outputAmount",
                  "type": "uint256"
                },
                {
                  "internalType": "uint256",
                  "name": "originChainId",
                  "type": "uint256"
                },
                {
                  "internalType": "uint256",
                  "name": "depositId",
                  "type": "uint256"
                },
                {
                  "internalType": "uint32",
                  "name": "fillDeadline",
                  "type": "uint32"
                },
                {
                  "internalType": "uint32",
                  "name": "exclusivityDeadline",
                  "type": "uint32"
                },
                {
                  "internalType": "bytes",
                  "name": "message",
                  "type": "bytes"
                }
              ],
              "internalType": "struct V3SpokePoolInterface.V3RelayData",
              "name": "relayData",
              "type": "tuple"
            },
            {
              "internalType": "uint256",
              "name": "chainId",
              "type": "uint256"
            },
            {
              "internalType": "uint256",
              "name": "updatedOutputAmount",
              "type": "uint256"
            }
          ],
          "internalType": "struct V3SpokePoolInterface.V3SlowFill",
          "name": "slowFillLeaf",
          "type": "tuple"
        },
        {
          "internalType": "uint32",
          "name": "rootBundleId",
          "type": "uint32"
        },
        {
          "internalType": "bytes32[]",
          "name": "proof",
          "type": "bytes32[]"
        }
      ],
      "name": "executeSlowRelayLeaf",
      "outputs": [],
      "stateMutability": "nonpayable",
      "type": "function"
    },
    {
      "inputs": [
        {
          "internalType": "bytes32",
          "name": "orderId",
          "type": "bytes32"
        },
        {
          "internalType": "bytes",
          "name": "originData",
          "type": "bytes"
        },
        {
          "internalType": "bytes",
          "name": "fillerData",
          "type": "bytes"
        }
      ],
      "name": "fill",
      "outputs": [],
      "stateMutability": "nonpayable",
      "type": "function"
    },
    {
      "inputs": [],
      "name": "fillDeadlineBuffer",
      "outputs": [
        {
          "internalType": "uint32",
          "name": "",
          "type": "uint32"
        }
      ],
      "stateMutability": "view",
      "type": "function"
    },
    {
      "inputs": [
        {
          "components": [
            {
              "internalType": "bytes32",
              "name": "depositor",
              "type": "bytes32"
            },
            {
              "internalType": "bytes32",
              "name": "recipient",
              "type": "bytes32"
            },
            {
              "internalType": "bytes32",
              "name": "exclusiveRelayer",
              "type": "bytes32"
            },
            {
              "internalType": "bytes32",
              "name": "inputToken",
              "type": "bytes32"
            },
            {
              "internalType": "bytes32",
              "name": "outputToken",
              "type": "bytes32"
            },
            {
              "internalType": "uint256",
              "name": "inputAmount",
              "type": "uint256"
            },
            {
              "internalType": "uint256",
              "name": "outputAmount",
              "type": "uint256"
            },
            {
              "internalType": "uint256",
              "name": "originChainId",
              "type": "uint256"
            },
            {
              "internalType": "uint256",
              "name": "depositId",
              "type": "uint256"
            },
            {
              "internalType": "uint32",
              "name": "fillDeadline",
              "type": "uint32"
            },
            {
              "internalType": "uint32",
              "name": "exclusivityDeadline",
              "type": "uint32"
            },
            {
              "internalType": "bytes",
              "name": "message",
              "type": "bytes"
            }
          ],
          "internalType": "struct V3SpokePoolInterface.V3RelayData",
          "name": "relayData",
          "type": "tuple"
        },
        {
          "internalType": "uint256",
          "name": "repaymentChainId",
          "type": "uint256"
        },
        {
          "internalType": "bytes32",
          "name": "repaymentAddress",
          "type": "bytes32"
        }
      ],
      "name": "fillRelay",
      "outputs": [],
      "stateMutability": "nonpayable",
      "type": "function"
    },
    {
      "inputs": [
        {
          "components": [
            {
              "internalType": "bytes32",
              "name": "depositor",
              "type": "bytes32"
            },
            {
              "internalType": "bytes32",
              "name": "recipient",
              "type": "bytes32"
            },
            {
              "internalType": "bytes32",
              "name": "exclusiveRelayer",
              "type": "bytes32"
            },
            {
              "internalType": "bytes32",
              "name": "inputToken",
              "type": "bytes32"
            },
            {
              "internalType": "bytes32",
              "name": "outputToken",
              "type": "bytes32"
            },
            {
              "internalType": "uint256",
              "name": "inputAmount",
              "type": "uint256"
            },
            {
              "internalType": "uint256",
              "name": "outputAmount",
              "type": "uint256"
            },
            {
              "internalType": "uint256",
              "name": "originChainId",
              "type": "uint256"
            },
            {
              "internalType": "uint256",
              "name": "depositId",
              "type": "uint256"
            },
            {
              "internalType": "uint32",
              "name": "fillDeadline",
              "type": "uint32"
            },
            {
              "internalType": "uint32",
              "name": "exclusivityDeadline",
              "type": "uint32"
            },
            {
              "internalType": "bytes",
              "name": "message",
              "type": "bytes"
            }
          ],
          "internalType": "struct V3SpokePoolInterface.V3RelayData",
          "name": "relayData",
          "type": "tuple"
        },
        {
          "internalType": "uint256",
          "name": "repaymentChainId",
          "type": "uint256"
        },
        {
          "internalType": "bytes32",
          "name": "repaymentAddress",
          "type": "bytes32"
        },
        {
          "internalType": "uint256",
          "name": "updatedOutputAmount",
          "type": "uint256"
        },
        {
          "internalType": "bytes32",
          "name": "updatedRecipient",
          "type": "bytes32"
        },
        {
          "internalType": "bytes",
          "name": "updatedMessage",
          "type": "bytes"
        },
        {
          "internalType": "bytes",
          "name": "depositorSignature",
          "type": "bytes"
        }
      ],
      "name": "fillRelayWithUpdatedDeposit",
      "outputs": [],
      "stateMutability": "nonpayable",
      "type": "function"
    },
    {
      "inputs": [
        {
          "internalType": "bytes32",
          "name": "",
          "type": "bytes32"
        }
      ],
      "name": "fillStatuses",
      "outputs": [
        {
          "internalType": "uint256",
          "name": "",
          "type": "uint256"
        }
      ],
      "stateMutability": "view",
      "type": "function"
    },
    {
      "inputs": [
        {
          "components": [
            {
              "internalType": "address",
              "name": "depositor",
              "type": "address"
            },
            {
              "internalType": "address",
              "name": "recipient",
              "type": "address"
            },
            {
              "internalType": "address",
              "name": "exclusiveRelayer",
              "type": "address"
            },
            {
              "internalType": "address",
              "name": "inputToken",
              "type": "address"
            },
            {
              "internalType": "address",
              "name": "outputToken",
              "type": "address"
            },
            {
              "internalType": "uint256",
              "name": "inputAmount",
              "type": "uint256"
            },
            {
              "internalType": "uint256",
              "name": "outputAmount",
              "type": "uint256"
            },
            {
              "internalType": "uint256",
              "name": "originChainId",
              "type": "uint256"
            },
            {
              "internalType": "uint32",
              "name": "depositId",
              "type": "uint32"
            },
            {
              "internalType": "uint32",
              "name": "fillDeadline",
              "type": "uint32"
            },
            {
              "internalType": "uint32",
              "name": "exclusivityDeadline",
              "type": "uint32"
            },
            {
              "internalType": "bytes",
              "name": "message",
              "type": "bytes"
            }
          ],
          "internalType": "struct V3SpokePoolInterface.V3RelayDataLegacy",
          "name": "relayData",
          "type": "tuple"
        },
        {
          "internalType": "uint256",
          "name": "repaymentChainId",
          "type": "uint256"
        }
      ],
      "name": "fillV3Relay",
      "outputs": [],
      "stateMutability": "nonpayable",
      "type": "function"
    },
    {
      "inputs": [],
      "name": "getCurrentTime",
      "outputs": [
        {
          "internalType": "uint256",
          "name": "",
          "type": "uint256"
        }
      ],
      "stateMutability": "view",
      "type": "function"
    },
    {
      "inputs": [
        {
          "internalType": "address",
          "name": "l2TokenAddress",
          "type": "address"
        },
        {
          "internalType": "address",
          "name": "refundAddress",
          "type": "address"
        }
      ],
      "name": "getRelayerRefund",
      "outputs": [
        {
          "internalType": "uint256",
          "name": "",
          "type": "uint256"
        }
      ],
      "stateMutability": "view",
      "type": "function"
    },
    {
      "inputs": [
        {
          "internalType": "address",
          "name": "msgSender",
          "type": "address"
        },
        {
          "internalType": "bytes32",
          "name": "depositor",
          "type": "bytes32"
        },
        {
          "internalType": "uint256",
          "name": "depositNonce",
          "type": "uint256"
        }
      ],
      "name": "getUnsafeDepositId",
      "outputs": [
        {
          "internalType": "uint256",
          "name": "",
          "type": "uint256"
        }
      ],
      "stateMutability": "pure",
      "type": "function"
    },
    {
      "inputs": [
        {
          "components": [
            {
              "internalType": "bytes32",
              "name": "depositor",
              "type": "bytes32"
            },
            {
              "internalType": "bytes32",
              "name": "recipient",
              "type": "bytes32"
            },
            {
              "internalType": "bytes32",
              "name": "exclusiveRelayer",
              "type": "bytes32"
            },
            {
              "internalType": "bytes32",
              "name": "inputToken",
              "type": "bytes32"
            },
            {
              "internalType": "bytes32",
              "name": "outputToken",
              "type": "bytes32"
            },
            {
              "internalType": "uint256",
              "name": "inputAmount",
              "type": "uint256"
            },
            {
              "internalType": "uint256",
              "name": "outputAmount",
              "type": "uint256"
            },
            {
              "internalType": "uint256",
              "name": "originChainId",
              "type": "uint256"
            },
            {
              "internalType": "uint256",
              "name": "depositId",
              "type": "uint256"
            },
            {
              "internalType": "uint32",
              "name": "fillDeadline",
              "type": "uint32"
            },
            {
              "internalType": "uint32",
              "name": "exclusivityDeadline",
              "type": "uint32"
            },
            {
              "internalType": "bytes",
              "name": "message",
              "type": "bytes"
            }
          ],
          "internalType": "struct V3SpokePoolInterface.V3RelayData",
          "name": "relayData",
          "type": "tuple"
        }
      ],
      "name": "getV3RelayHash",
      "outputs": [
        {
          "internalType": "bytes32",
          "name": "",
          "type": "bytes32"
        }
      ],
      "stateMutability": "view",
      "type": "function"
    },
    {
      "inputs": [
        {
          "internalType": "uint32",
          "name": "_initialDepositId",
          "type": "uint32"
        },
        {
          "internalType": "address",
          "name": "_l2GatewayRouter",
          "type": "address"
        },
        {
          "internalType": "address",
          "name": "_crossDomainAdmin",
          "type": "address"
        },
        {
          "internalType": "address",
          "name": "_withdrawalRecipient",
          "type": "address"
        }
      ],
      "name": "initialize",
      "outputs": [],
      "stateMutability": "nonpayable",
      "type": "function"
    },
    {
      "inputs": [],
      "name": "l2GatewayRouter",
      "outputs": [
        {
          "internalType": "address",
          "name": "",
          "type": "address"
        }
      ],
      "stateMutability": "view",
      "type": "function"
    },
    {
      "inputs": [
        {
          "internalType": "bytes[]",
          "name": "data",
          "type": "bytes[]"
        }
      ],
      "name": "multicall",
      "outputs": [
        {
          "internalType": "bytes[]",
          "name": "results",
          "type": "bytes[]"
        }
      ],
      "stateMutability": "nonpayable",
      "type": "function"
    },
    {
      "inputs": [],
      "name": "numberOfDeposits",
      "outputs": [
        {
          "internalType": "uint32",
          "name": "",
          "type": "uint32"
        }
      ],
      "stateMutability": "view",
      "type": "function"
    },
    {
      "inputs": [
        {
          "internalType": "bool",
          "name": "pause",
          "type": "bool"
        }
      ],
      "name": "pauseDeposits",
      "outputs": [],
      "stateMutability": "nonpayable",
      "type": "function"
    },
    {
      "inputs": [
        {
          "internalType": "bool",
          "name": "pause",
          "type": "bool"
        }
      ],
      "name": "pauseFills",
      "outputs": [],
      "stateMutability": "nonpayable",
      "type": "function"
    },
    {
      "inputs": [],
      "name": "pausedDeposits",
      "outputs": [
        {
          "internalType": "bool",
          "name": "",
          "type": "bool"
        }
      ],
      "stateMutability": "view",
      "type": "function"
    },
    {
      "inputs": [],
      "name": "pausedFills",
      "outputs": [
        {
          "internalType": "bool",
          "name": "",
          "type": "bool"
        }
      ],
      "stateMutability": "view",
      "type": "function"
    },
    {
      "inputs": [],
      "name": "proxiableUUID",
      "outputs": [
        {
          "internalType": "bytes32",
          "name": "",
          "type": "bytes32"
        }
      ],
      "stateMutability": "view",
      "type": "function"
    },
    {
      "inputs": [],
      "name": "recipientCircleDomainId",
      "outputs": [
        {
          "internalType": "uint32",
          "name": "",
          "type": "uint32"
        }
      ],
      "stateMutability": "view",
      "type": "function"
    },
    {
      "inputs": [
        {
          "internalType": "bytes32",
          "name": "relayerRefundRoot",
          "type": "bytes32"
        },
        {
          "internalType": "bytes32",
          "name": "slowRelayRoot",
          "type": "bytes32"
        }
      ],
      "name": "relayRootBundle",
      "outputs": [],
      "stateMutability": "nonpayable",
      "type": "function"
    },
    {
      "inputs": [
        {
          "internalType": "address",
          "name": "",
          "type": "address"
        },
        {
          "internalType": "address",
          "name": "",
          "type": "address"
        }
      ],
      "name": "relayerRefund",
      "outputs": [
        {
          "internalType": "uint256",
          "name": "",
          "type": "uint256"
        }
      ],
      "stateMutability": "view",
      "type": "function"
    },
    {
      "inputs": [
        {
          "components": [
            {
              "internalType": "bytes32",
              "name": "depositor",
              "type": "bytes32"
            },
            {
              "internalType": "bytes32",
              "name": "recipient",
              "type": "bytes32"
            },
            {
              "internalType": "bytes32",
              "name": "exclusiveRelayer",
              "type": "bytes32"
            },
            {
              "internalType": "bytes32",
              "name": "inputToken",
              "type": "bytes32"
            },
            {
              "internalType": "bytes32",
              "name": "outputToken",
              "type": "bytes32"
            },
            {
              "internalType": "uint256",
              "name": "inputAmount",
              "type": "uint256"
            },
            {
              "internalType": "uint256",
              "name": "outputAmount",
              "type": "uint256"
            },
            {
              "internalType": "uint256",
              "name": "originChainId",
              "type": "uint256"
            },
            {
              "internalType": "uint256",
              "name": "depositId",
              "type": "uint256"
            },
            {
              "internalType": "uint32",
              "name": "fillDeadline",
              "type": "uint32"
            },
            {
              "internalType": "uint32",
              "name": "exclusivityDeadline",
              "type": "uint32"
            },
            {
              "internalType": "bytes",
              "name": "message",
              "type": "bytes"
            }
          ],
          "internalType": "struct V3SpokePoolInterface.V3RelayData",
          "name": "relayData",
          "type": "tuple"
        }
      ],
      "name": "requestSlowFill",
      "outputs": [],
      "stateMutability": "nonpayable",
      "type": "function"
    },
    {
      "inputs": [
        {
          "internalType": "uint256",
          "name": "",
          "type": "uint256"
        }
      ],
      "name": "rootBundles",
      "outputs": [
        {
          "internalType": "bytes32",
          "name": "slowRelayRoot",
          "type": "bytes32"
        },
        {
          "internalType": "bytes32",
          "name": "relayerRefundRoot",
          "type": "bytes32"
        }
      ],
      "stateMutability": "view",
      "type": "function"
    },
    {
      "inputs": [
        {
          "internalType": "address",
          "name": "newCrossDomainAdmin",
          "type": "address"
        }
      ],
      "name": "setCrossDomainAdmin",
      "outputs": [],
      "stateMutability": "nonpayable",
      "type": "function"
    },
    {
      "inputs": [
        {
          "internalType": "address",
          "name": "originToken",
          "type": "address"
        },
        {
          "internalType": "uint256",
          "name": "destinationChainId",
          "type": "uint256"
        },
        {
          "internalType": "bool",
          "name": "enabled",
          "type": "bool"
        }
      ],
      "name": "setEnableRoute",
      "outputs": [],
      "stateMutability": "nonpayable",
      "type": "function"
    },
    {
      "inputs": [
        {
          "internalType": "address",
          "name": "newL2GatewayRouter",
          "type": "address"
        }
      ],
      "name": "setL2GatewayRouter",
      "outputs": [],
      "stateMutability": "nonpayable",
      "type": "function"
    },
    {
      "inputs": [
        {
          "internalType": "address",
          "name": "newWithdrawalRecipient",
          "type": "address"
        }
      ],
      "name": "setWithdrawalRecipient",
      "outputs": [],
      "stateMutability": "nonpayable",
      "type": "function"
    },
    {
      "inputs": [
        {
          "internalType": "bytes32",
          "name": "depositor",
          "type": "bytes32"
        },
        {
          "internalType": "uint256",
          "name": "depositId",
          "type": "uint256"
        },
        {
          "internalType": "uint256",
          "name": "updatedOutputAmount",
          "type": "uint256"
        },
        {
          "internalType": "bytes32",
          "name": "updatedRecipient",
          "type": "bytes32"
        },
        {
          "internalType": "bytes",
          "name": "updatedMessage",
          "type": "bytes"
        },
        {
          "internalType": "bytes",
          "name": "depositorSignature",
          "type": "bytes"
        }
      ],
      "name": "speedUpDeposit",
      "outputs": [],
      "stateMutability": "nonpayable",
      "type": "function"
    },
    {
      "inputs": [
        {
          "internalType": "address",
          "name": "depositor",
          "type": "address"
        },
        {
          "internalType": "uint256",
          "name": "depositId",
          "type": "uint256"
        },
        {
          "internalType": "uint256",
          "name": "updatedOutputAmount",
          "type": "uint256"
        },
        {
          "internalType": "address",
          "name": "updatedRecipient",
          "type": "address"
        },
        {
          "internalType": "bytes",
          "name": "updatedMessage",
          "type": "bytes"
        },
        {
          "internalType": "bytes",
          "name": "depositorSignature",
          "type": "bytes"
        }
      ],
      "name": "speedUpV3Deposit",
      "outputs": [],
      "stateMutability": "nonpayable",
      "type": "function"
    },
    {
      "inputs": [
        {
          "internalType": "bytes[]",
          "name": "data",
          "type": "bytes[]"
        }
      ],
      "name": "tryMulticall",
      "outputs": [
        {
          "components": [
            {
              "internalType": "bool",
              "name": "success",
              "type": "bool"
            },
            {
              "internalType": "bytes",
              "name": "returnData",
              "type": "bytes"
            }
          ],
          "internalType": "struct MultiCallerUpgradeable.Result[]",
          "name": "results",
          "type": "tuple[]"
        }
      ],
      "stateMutability": "nonpayable",
      "type": "function"
    },
    {
      "inputs": [
        {
          "internalType": "bytes32",
          "name": "depositor",
          "type": "bytes32"
        },
        {
          "internalType": "bytes32",
          "name": "recipient",
          "type": "bytes32"
        },
        {
          "internalType": "bytes32",
          "name": "inputToken",
          "type": "bytes32"
        },
        {
          "internalType": "bytes32",
          "name": "outputToken",
          "type": "bytes32"
        },
        {
          "internalType": "uint256",
          "name": "inputAmount",
          "type": "uint256"
        },
        {
          "internalType": "uint256",
          "name": "outputAmount",
          "type": "uint256"
        },
        {
          "internalType": "uint256",
          "name": "destinationChainId",
          "type": "uint256"
        },
        {
          "internalType": "bytes32",
          "name": "exclusiveRelayer",
          "type": "bytes32"
        },
        {
          "internalType": "uint256",
          "name": "depositNonce",
          "type": "uint256"
        },
        {
          "internalType": "uint32",
          "name": "quoteTimestamp",
          "type": "uint32"
        },
        {
          "internalType": "uint32",
          "name": "fillDeadline",
          "type": "uint32"
        },
        {
          "internalType": "uint32",
          "name": "exclusivityParameter",
          "type": "uint32"
        },
        {
          "internalType": "bytes",
          "name": "message",
          "type": "bytes"
        }
      ],
      "name": "unsafeDeposit",
      "outputs": [],
      "stateMutability": "payable",
      "type": "function"
    },
    {
      "inputs": [
        {
          "internalType": "address",
          "name": "newImplementation",
          "type": "address"
        }
      ],
      "name": "upgradeTo",
      "outputs": [],
      "stateMutability": "nonpayable",
      "type": "function"
    },
    {
      "inputs": [
        {
          "internalType": "address",
          "name": "newImplementation",
          "type": "address"
        },
        {
          "internalType": "bytes",
          "name": "data",
          "type": "bytes"
        }
      ],
      "name": "upgradeToAndCall",
      "outputs": [],
      "stateMutability": "payable",
      "type": "function"
    },
    {
      "inputs": [],
      "name": "usdcToken",
      "outputs": [
        {
          "internalType": "contract IERC20",
          "name": "",
          "type": "address"
        }
      ],
      "stateMutability": "view",
      "type": "function"
    },
    {
      "inputs": [
        {
          "internalType": "address",
          "name": "l2Token",
          "type": "address"
        },
        {
          "internalType": "address",
          "name": "l1Token",
          "type": "address"
        }
      ],
      "name": "whitelistToken",
      "outputs": [],
      "stateMutability": "nonpayable",
      "type": "function"
    },
    {
      "inputs": [
        {
          "internalType": "address",
          "name": "",
          "type": "address"
        }
      ],
      "name": "whitelistedTokens",
      "outputs": [
        {
          "internalType": "address",
          "name": "",
          "type": "address"
        }
      ],
      "stateMutability": "view",
      "type": "function"
    },
    {
      "inputs": [],
      "name": "withdrawalRecipient",
      "outputs": [
        {
          "internalType": "address",
          "name": "",
          "type": "address"
        }
      ],
      "stateMutability": "view",
      "type": "function"
    },
    {
      "inputs": [],
      "name": "wrappedNativeToken",
      "outputs": [
        {
          "internalType": "contract WETH9Interface",
          "name": "",
          "type": "address"
        }
      ],
      "stateMutability": "view",
      "type": "function"
    },
    {
      "stateMutability": "payable",
      "type": "receive"
    }
  ],
  "numDeployments": 10,
  "solcInputHash": "e42c92fa535be2916847382129ae3cd1",
  "bytecode": "0x61016034620001c657601f6200528638819003918201601f19168301916001600160401b03831184841017620001ca5780849260a094604052833981010312620001c65780516001600160a01b03919082811690819003620001c6576200006960208301620001de565b6200007760408401620001de565b916060840151938585168503620001c657608001519485168503620001c6573060805260a05260c05260e0525f5460ff8160081c16620001c65760ff808216036200018b575b50610120908152610140918252610100915f8352604051916150959384620001f18539608051848181611045015281816113ce01526114ce015260a051848181610783015281816134b601528181613bea01528181613e7c0152818161443801528181614a5e0152614a85015260c05184818161179b0152818161346a0152614626015260e05184818161041e01526143e601525183818161183b0152614d8c015251828181610726015281816149ff0152614cc3015251818181611cd4015281816148d00152614ce60152f35b60ff90811916175f557f7f26b83ff96e1f2b6a682f133852f6798a09c465da95921460cefb3847402498602060405160ff8152a15f620000bd565b5f80fd5b634e487b7160e01b5f52604160045260245ffd5b519063ffffffff82168203620001c65756fe6080604052600436101561001a575b3615610018575f80fd5b005b5f3560e01c8063079bd2c7146103ef5780631186ec33146103ea57806311eac855146103e557806315348e441461036d57806317fcb39b146103e05780631b3d5559146103db5780631fab657c146103d6578063272751c7146103d157806329cb924d146103cc5780632e378115146103c75780632e63e59a146103c257806333a84ff0146103bd578063364f01a6146103b85780633659cfe6146103b3578063437b9116146103ae578063490e49ef146103a9578063493a4f84146103a45780634e3485c81461039f5780634f1ef2861461039a5780635249fef1146103955780635285e0581461039057806352d1902d1461038b578063541f4f1414610386578063577f51f81461038157806357f6dcb81461037c5780636068d6cb14610377578063670fa8ac146103725780636bbbcd2e1461036d5780636e40098314610368578063738b62e5146103635780637aef642c1461035e5780637b939232146103595780637ef413e11461035457806382e2c43f1461034f5780638a7860ce1461034a5780638b15788e146103455780639748cf7c1461034057806397943aa91461033b578063979f2bc21461033657806399cc2968146103315780639a8a05921461032c578063a1244c6714610327578063a18a096e14610322578063ac9650d81461031d578063ad5425c614610318578063adb5a6a6146102d2578063b370b7f514610313578063babb6aac1461030e578063c35c83fc14610309578063c835685914610304578063ceb4c987146102ff578063d7e1583a146102fa578063daf9c210146102f5578063dda52113146102f0578063ddd224f1146102eb578063de7eba78146102e6578063deff4b24146102e1578063ea86bd46146102dc578063ee2a53f8146102d7578063f79f29ed146102d2578063fb6bf74c146102cd5763fc8a584f0361000e57612990565b612885565b6122b1565b612847565b612744565b61264f565b612606565b6125dd565b6125b7565b612578565b612542565b612448565b612421565b6123f6565b61231f565b6122f8565b612175565b6120d5565b611f6e565b611f47565b611f2d565b611e7f565b611d78565b611cf8565b611cb5565b611c37565b611ba7565b611a8c565b611a55565b6119ad565b61190d565b61185f565b61181f565b61074a565b6117e5565b6117bf565b61177f565b6115e1565b61151e565b6114b4565b61148d565b61143f565b61138b565b61133d565b61129d565b61127f565b6111b2565b61101d565b610f95565b610f36565b610d3c565b610bdc565b610bb3565b610b00565b6109fb565b6108f2565b610764565b610707565b610666565b610402565b5f9103126103fe57565b5f80fd5b346103fe575f3660031901126103fe57602060405163ffffffff7f0000000000000000000000000000000000000000000000000000000000000000168152f35b6001600160a01b038116036103fe57565b359061045e82610442565b565b63ffffffff8116036103fe57565b610144359061045e82610460565b359061045e82610460565b634e487b7160e01b5f52604160045260245ffd5b6040810190811067ffffffffffffffff8211176104b757604052565b610487565b6101a0810190811067ffffffffffffffff8211176104b757604052565b67ffffffffffffffff81116104b757604052565b6060810190811067ffffffffffffffff8211176104b757604052565b6080810190811067ffffffffffffffff8211176104b757604052565b6020810190811067ffffffffffffffff8211176104b757604052565b60e0810190811067ffffffffffffffff8211176104b757604052565b60a0810190811067ffffffffffffffff8211176104b757604052565b90601f8019910116810190811067ffffffffffffffff8211176104b757604052565b6040519060c0820182811067ffffffffffffffff8211176104b757604052565b60405190610180820182811067ffffffffffffffff8211176104b757604052565b6040519061045e826104bc565b6040519061045e82610509565b67ffffffffffffffff81116104b757601f01601f191660200190565b92919261061e826105f6565b9161062c6040519384610579565b8294818452818301116103fe578281602093845f960137010152565b9080601f830112156103fe5781602061066393359101610612565b90565b6101003660031901126103fe5760043561067f81610442565b60243561068b81610442565b6084358060070b81036103fe5760a435906106a582610460565b60c43567ffffffffffffffff81116103fe576106c5903690600401610648565b926106ce613363565b60ff61086b5460e81c166106f5576106ee946064359160443591336133de565b6001606555005b604051630b4cba3160e31b8152600490fd5b346103fe575f3660031901126103fe5760206040516001600160a01b037f0000000000000000000000000000000000000000000000000000000000000000168152f35b346103fe575f3660031901126103fe5760206040515f8152f35b346103fe575f3660031901126103fe5760206040516001600160a01b037f0000000000000000000000000000000000000000000000000000000000000000168152f35b67ffffffffffffffff81116104b75760051b60200190565b9080601f830112156103fe5760209082356107d9816107a7565b936107e76040519586610579565b81855260208086019260051b8201019283116103fe57602001905b828210610810575050505090565b81358152908301908301610802565b9080601f830112156103fe576020908235610839816107a7565b936108476040519586610579565b81855260208086019260051b8201019283116103fe57602001905b828210610870575050505090565b838091833561087e81610442565b815201910190610862565b9291610894826107a7565b916108a26040519384610579565b829481845260208094019160051b81019283116103fe57905b8282106108c85750505050565b813581529083019083016108bb565b9080601f830112156103fe5781602061066393359101610889565b6003196060368201126103fe5760043561090b81610460565b60243567ffffffffffffffff928382116103fe5760c09082360301126103fe5761093361059b565b90806004013582526024810135602083015260448101358481116103fe5761096190600436918401016107bf565b60408301526109726064820161047c565b606083015261098360848201610453565b608083015260a4810135908482116103fe5760046109a4923692010161081f565b60a08201526044359283116103fe576109c46100189336906004016108d7565b916129d9565b9181601f840112156103fe5782359167ffffffffffffffff83116103fe576020808501948460051b0101116103fe57565b346103fe576003196060368201126103fe5760043567ffffffffffffffff8082116103fe576060823603938401126103fe5760243590610a3a82610460565b6044359081116103fe57610a529036906004016109ca565b919093610a5d613363565b60048401359061018219018112156103fe57610aec94610ae793610a8a610ae09360043691890101612466565b95610a986080880151613916565b50610aa2876131cf565b9060446020890151916101608a015193610aba61059b565b9a8b5260208b015201356040890152606088015260808701525f60a08701523691610889565b908361392c565b613a7d565b6100186001606555565b801515036103fe57565b346103fe5760603660031901126103fe57600435610b1d81610442565b6024359060443590610b2e82610af6565b6001600160a01b03908161111161111160901b01816108695416011633036103fe577f0a21fdd43d0ad0c62689ee7230a47309a050755bcc52eba00310add65297692a91602091610b7d613363565b1692835f5261086d825260405f20855f52825260405f209015159060ff1981541660ff8316179055604051908152a36001606555005b346103fe575f3660031901126103fe576020604051428152f35b90816101809103126103fe5790565b346103fe5760403660031901126103fe5760043567ffffffffffffffff81116103fe57610c0d903690600401610bcd565b610c1681612bc4565b6001600160a01b031690610c2c60208201612bc4565b6001600160a01b031691610c4260408301612bc4565b6001600160a01b0316610c5760608401612bc4565b6001600160a01b031692610c6d60808201612bc4565b6001600160a01b031690610100610c85818301612bce565b9061012090610c95848301612bce565b9261014094858101610ca690612bce565b966101609a8b8301610cb89084612bd8565b9a909b610cc36105bb565b9e8f91825260208201526040015260608d015260808c015260a081013560a08c015260c081013560c08c015260e0013560e08b015263ffffffff1690890152870190610d14919063ffffffff169052565b63ffffffff909116908501523690610d2b92610612565b908201523360243561001892613200565b346103fe5760203660031901126103fe576004803567ffffffffffffffff81116103fe57610d6d9036908301610bcd565b610d75613363565b60ff61086b5460e01c16610f265763ffffffff80421692610140830193610dae81610d9f87612bce565b63ffffffff9182169116101590565b610f1657610120840192610dc184612bce565b1610610f0757610dd9610dd43685612466565b6131cf565b90610ded825f5261087260205260405f2090565b54610ef95750610e3c7f3cee3e290f36226751cd0b3321b213890fe9c768e922f267fa6111836ce05c3292610e37610e31610e42945f5261087260205260405f2090565b60019055565b612bce565b93612bce565b610e62610e5d610e56610160860186612bd8565b3691610612565b613f52565b90610eec6040519283926101008701359760e08801359760208101359281359260408301359260c08101359060a081013590606060808201359101358b9693909a999895919261012098959361014089019c895260208901526040880152606087015263ffffffff80921660808701521660a085015260c084015260e08301526101008201520152565b0390a36100186001606555565b604051624be79160e21b8152fd5b60405163d642b7d960e01b8152fd5b50604051630277ae7b60e21b8152fd5b50604051633d90fc5560e11b8152fd5b346103fe575f3660031901126103fe5760206040517f9c6dfd61d811b9950a4f2b9adf46357b717c816d22c420d0bde8f2360148f7cd8152f35b60409060031901126103fe57600435610f8881610442565b9060243561066381610442565b346103fe57610fa336610f70565b906001600160a01b03908161111161111160901b01816108695416011633036103fe578190610fd0613363565b1690815f52610c5b60205260405f20921691826001600160a01b03198254161790557f8d7f294eaa476236fe8cb5629376a12cd37dace3d21e6a7b98f1641c4ed5f09e5f80a36001606555005b346103fe5760203660031901126103fe5760043561103a81610442565b6001600160a01b03807f0000000000000000000000000000000000000000000000000000000000000000168030146103fe57817f360894a13ba1a3210667c828492db98dca3e2076cc3735a920a3ca505d382bbc5416036103fe5761111161111160901b01816108695416011633036103fe57604051610018916110bd82610525565b5f8252613f67565b60206003198201126103fe576004359067ffffffffffffffff82116103fe576110f0916004016109ca565b9091565b5f5b8381106111055750505f910152565b81810151838201526020016110f6565b9060209161112e815180928185528580860191016110f4565b601f01601f1916010190565b6020808201908083528351809252604092604081018260408560051b8401019601945f925b858410611170575050505050505090565b9091929394959685806111a1600193603f1986820301885286838d5180511515845201519181858201520190611115565b99019401940192959493919061115f565b346103fe576111c0366110c5565b6111c9816107a7565b9160406111d96040519485610579565b828452601f196111e8846107a7565b015f5b81811061125c5750505f5b83811061120f576040518061120b878261113a565b0390f35b8061125661121f60019388612c35565b515f8061122d858a8a612c49565b9061123c895180938193612c60565b0390305af49061124a612c6d565b60208201529015159052565b016111f6565b602090835161126a8161049b565b5f8152826060818301528289010152016111eb565b346103fe575f3660031901126103fe5760206040516301e133808152f35b346103fe5760403660031901126103fe57600435602435906001600160a01b0361111161111160901b01816108695416011633036103fe576112dd613363565b61086c8054680100000000000000008110156104b75763ffffffff916001820190558361130982612808565b5084600182015555167fc86ba04c55bc5eb2f2876b91c438849a296dbec7b08751c3074d92e04f0a77af5f80a46001606555005b346103fe5760203660031901126103fe5760043561135a81610442565b6001600160a01b0361111161111160901b01816108695416011633036103fe576106ee90611386613363565b6141c9565b60403660031901126103fe576004356113a381610442565b60243567ffffffffffffffff81116103fe576113c3903690600401610648565b6001600160a01b03807f0000000000000000000000000000000000000000000000000000000000000000168030146103fe57817f360894a13ba1a3210667c828492db98dca3e2076cc3735a920a3ca505d382bbc5416036103fe5761111161111160901b01816108695416011633036103fe57610018916140d5565b346103fe5760403660031901126103fe576001600160a01b0360043561146481610442565b165f5261086d60205260405f206024355f52602052602060ff60405f2054166040519015158152f35b346103fe575f3660031901126103fe5760206001600160a01b036108695416604051908152f35b346103fe575f3660031901126103fe576001600160a01b037f00000000000000000000000000000000000000000000000000000000000000001630036103fe5760206040517f360894a13ba1a3210667c828492db98dca3e2076cc3735a920a3ca505d382bbc8152f35b6101203660031901126103fe5760043561153781610442565b6024359061154482610442565b6044359161155183610442565b60a4358060070b81036103fe5760c4359161156b83610460565b60e43567ffffffffffffffff81116103fe5761158b903690600401610648565b93611594613363565b60ff61086b5460e81c166106f5576106ee9560843592606435926133de565b9181601f840112156103fe5782359167ffffffffffffffff83116103fe57602083818601950101116103fe57565b346103fe5760c03660031901126103fe576004356115fe81610442565b6024356044359160643561161181610442565b67ffffffffffffffff916084358381116103fe576116339036906004016115b3565b60a4949194359182116103fe577f45e04bc8f121ba11466985789ca2822a91109f31bb8ac85504a37b7eaf873c269461167361177a9336906004016115b3565b9290916001600160a01b038097168a61176e611690368686610612565b60428d61169e368b8b610612565b92602081519101209460409586519160208301937f9c6dfd61d811b9950a4f2b9adf46357b717c816d22c420d0bde8f2360148f7cd85528884015246606084015260808301528760a083015260c082015260c081526116fc81610541565b51902061047f546104805486519060208201927fc2f8787176b8ac6bf7215b4adcc1e069bf4ab82d9ab1df05a57a91d425935b6e84528883015260608201524660808201526080815261174e8161055d565b5190209085519161190160f01b835260028301526022820152208a614b47565b51978897169a87612cbc565b0390a3005b346103fe575f3660031901126103fe57602060405163ffffffff7f0000000000000000000000000000000000000000000000000000000000000000168152f35b346103fe575f3660031901126103fe57602060ff61086b5460e81c166040519015158152f35b346103fe575f3660031901126103fe5760206040517f8d1994e2bbbd77564cdca06dd819e7ee2a5efa06c80dcb59a4a7b6e39edc538f8152f35b346103fe575f3660031901126103fe57602060405163ffffffff7f0000000000000000000000000000000000000000000000000000000000000000168152f35b346103fe5760203660031901126103fe5760043561187c81610af6565b6001600160a01b0361111161111160901b01816108695416011633036103fe5760207fe88463c2f254e2b070013a2dc7ee1e099f9bc00534cbdf03af551dc26ae49219916118c8613363565b151561086b80547fffff00ffffffffffffffffffffffffffffffffffffffffffffffffffffffffff60ff60e81b8460e81b169116179055604051908152a16001606555005b6101603660031901126103fe5760043561192681610442565b6024359061193382610442565b60443561193f81610442565b6064359061194c82610442565b60e43561195881610442565b610104359061196682610460565b610124359261197484610460565b610144359667ffffffffffffffff88116103fe576119996100189836906004016115b3565b97909660c4359360a4359360843593612d20565b6101803660031901126103fe576004356119c681610442565b602435906119d382610442565b6044356119df81610442565b606435906119ec82610442565b60e4356119f881610442565b61010435611a0581610460565b6101243591611a1383610460565b611a1b61046e565b93610164359767ffffffffffffffff89116103fe57611a416100189936906004016115b3565b98909760c4359360a4359360843593612d42565b346103fe5760603660031901126103fe576020611a84600435611a7781610442565b6044359060243590612e5d565b604051908152f35b346103fe5760603660031901126103fe5767ffffffffffffffff6024358181116103fe57611abe9036906004016115b3565b916044359081116103fe57611ad79036906004016115b3565b9060405193602085019480611aee4684888a612e99565b0395611b02601f1997888101845283610579565b6004359151902003611b95575f94611b31611b5393611b2887611b5f958a99019061251c565b95810190612eb6565b519360405193849160208301966337bfd2c960e21b8852339160248501612f7e565b03908101835282610579565b5190305af4611b6c612c6d565b9015611b7457005b60405163b8fe37a760e01b8152908190611b919060048301612fa0565b0390fd5b604051630f0c8f4760e11b8152600490fd5b346103fe5760203660031901126103fe576004356001600160a01b0361111161111160901b01816108695416011633036103fe57611be3613363565b611bec81612808565b611c24576001815f80935501557f7c1af0646963afc3343245b103731965735a893347bfa0d58a5dc77a77ae691c5f80a26001606555005b634e487b7160e01b5f525f60045260245ffd5b6101a03660031901126103fe5761012435611c5181610460565b61014435611c5e81610460565b6101643591611c6c83610460565b610184359267ffffffffffffffff84116103fe57611c916100189436906004016115b3565b9390926101043560e43560c43560a435608435606435604435602435600435612fb1565b346103fe575f3660031901126103fe5760206040516001600160a01b037f0000000000000000000000000000000000000000000000000000000000000000168152f35b346103fe5760e03660031901126103fe5767ffffffffffffffff6004358181116103fe57611d2a903690600401610bcd565b60a4358281116103fe57611d429036906004016115b3565b60c4929192359384116103fe57611d606100189436906004016115b3565b93909260843590606435906044359060243590613029565b346103fe5760603660031901126103fe57600435611d9581610460565b60243590611da282610442565b60443590611daf82610442565b60ff5f5460081c16156103fe57611de39061086b9063ffffffff60c01b1963ffffffff60c01b83549260c01b169116179055565b604051611def8161049b565b6009815260208101926820a1a927a9a996ab1960b91b8452640312e302e360dc1b6020604051611e1e8161049b565b60058152015260ff5f5460081c16156103fe5761001893611e7a9251902061047f557f06c015bd22b4c69690933c1058878ebdfef31f9aaae40bbe86d8a09fe1b2972c61048055611e6d61465d565b611e7561466c565b614680565b6146da565b346103fe5760203660031901126103fe57600435611e9c81610af6565b6001600160a01b0361111161111160901b01816108695416011633036103fe5760207f2d5b62420992e5a4afce0e77742636ca2608ef58289fd2e1baa5161ef6e7e41e91611ee8613363565b151561086b80547fffffff00ffffffffffffffffffffffffffffffffffffffffffffffffffffffff60ff60e01b8460e01b169116179055604051908152a16001606555005b346103fe575f3660031901126103fe576020604051468152f35b346103fe575f3660031901126103fe57602063ffffffff61086b5460c01c16604051908152f35b346103fe5760403660031901126103fe57600435602435611f8e82614a28565b6001600160a01b0382165f52610873602052611fbd60405f20336001600160a01b03165f5260205260405f2090565b54918215612060575f61200433611fee611fd685613916565b6001600160a01b03165f5261087360205260405f2090565b906001600160a01b03165f5260205260405f2090565b556120308361202161201584613916565b6001600160a01b031690565b61202a85613916565b90614734565b60405192835233927f6c172ea51018fb2eb2118f3f8a507c4df71eb519b8c0052834dc3c920182fef490602090a4005b6040516336542bf760e21b8152600490fd5b6020808201906020835283518092526040830192602060408460051b8301019501935f915b8483106120a75750505050505090565b90919293949584806120c5600193603f198682030187528a51611115565b9801930193019194939290612097565b346103fe576120e3366110c5565b906120ed82613112565b915f5b818110612105576040518061120b8682612072565b5f80612112838587612c49565b9061212260405180938193612c60565b0390305af461212f612c6d565b901561215557906001916121438287612c35565b5261214e8186612c35565b50016120f0565b60448151106103fe578060046103fe92015160248091830101910161315b565b610180806003193601126103fe576101043561219081610460565b610124359161219e83610460565b61014435926121ac84610460565b6101643567ffffffffffffffff81116103fe576121cd9036906004016115b3565b6121d5613363565b61086b549260ff8460e81c166106f557610aec9661229a610e569261228c63ffffffff6122a89860c01c169961223061220d8c6131ba565b61086b9063ffffffff60c01b1963ffffffff60c01b83549260c01b169116179055565b6122386105dc565b9a6004358c5260243560208d015260443560408d015260643560608d015260843560808d015260a43560a08d015260c43560c08d015260e43560e08d01526101008c01526101208b019063ffffffff169052565b63ffffffff16610140890152565b63ffffffff16610160870152565b9082015261433d565b346103fe5760206122ef6001600160a01b036122cc36610f70565b91165f52610873835260405f20906001600160a01b03165f5260205260405f2090565b54604051908152f35b346103fe575f3660031901126103fe5760206001600160a01b0361086a5416604051908152f35b346103fe5760c03660031901126103fe5760043560243567ffffffffffffffff6064356044356084358381116103fe5761235d9036906004016115b3565b60a4949194359182116103fe577f45e04bc8f121ba11466985789ca2822a91109f31bb8ac85504a37b7eaf873c269461239d6123ec9336906004016115b3565b9290916123a8613363565b6123b18a614a28565b6123e0898b89896123c3368888610612565b926123cf368b8b610612565b946001600160a01b0346921661420b565b60405196879687612cbc565b0390a36001606555005b346103fe5760203660031901126103fe576004355f52610872602052602060405f2054604051908152f35b346103fe575f3660031901126103fe5760206001600160a01b03610c5a5416604051908152f35b346103fe575f3660031901126103fe57602060405163ffffffff8152f35b9190610180838203126103fe5761247b6105bb565b92803584526020810135602085015260408101356040850152606081013560608501526080810135608085015260a081013560a085015260c081013560c085015260e081013560e085015261010080820135908501526101206124df81830161047c565b908501526101406124f181830161047c565b90850152610160918282013567ffffffffffffffff81116103fe576125169201610648565b90830152565b906020828203126103fe57813567ffffffffffffffff81116103fe576106639201612466565b346103fe5760203660031901126103fe5760043567ffffffffffffffff81116103fe57611a84610dd46020923690600401612466565b346103fe5760203660031901126103fe57602060043561259781610442565b6001600160a01b038091165f52610c5b825260405f205416604051908152f35b346103fe575f3660031901126103fe57602060ff61086b5460e01c166040519015158152f35b346103fe575f3660031901126103fe5760206040516ec097ce7bc90715b34b9f10000000008152f35b346103fe5760203660031901126103fe5760043561262381610442565b6001600160a01b0361111161111160901b01816108695416011633036103fe576106ee90611e75613363565b346103fe5760603660031901126103fe5760043567ffffffffffffffff81116103fe57612680903690600401612466565b612688613363565b60ff61086b5460e01c166127325761014081015163ffffffff4281169116101580612713575b61270157806126bf610aec926131cf565b60c0820151602083015190610160840151926126d961059b565b948552602085015260408401526060830152608082015260243560a082015260443590613cf1565b604051630c3a9b9d60e41b8152600490fd5b506127216040820151613916565b6001600160a01b03163314156126ae565b604051633d90fc5560e11b8152600490fd5b610160806003193601126103fe576101043561275f81610460565b6101243561276c81610460565b6101443567ffffffffffffffff81116103fe5761278d9036906004016115b3565b63ffffffff946127a08642169586612d03565b936127a9613363565b61086b549160ff8360e81c166106f5576127dc6127e99661228c610aec9a610e569660c01c169961223061220d8c6131ba565b86019063ffffffff169052565b61018082015261433d565b634e487b7160e01b5f52603260045260245ffd5b61086c908154811015612842576003915f52027f71cd7344f4eb2efc8e30291f6dbdb44d618ca368ea5425d217c1d604bf26b84d01905f90565b6127f4565b346103fe5760203660031901126103fe5760043561086c548110156103fe57612871604091612808565b506001815491015482519182526020820152f35b346103fe5760803660031901126103fe576004356128a281610460565b6129086024356128b181610442565b6044356128bd81610442565b606435916128ca83610442565b5f54946128ee60ff8760081c161580978198612982575b8115612962575b50612c2e565b856128ff600160ff195f5416175f55565b61294b5761329c565b61290e57005b61291c61ff00195f54165f55565b604051600181527f7f26b83ff96e1f2b6a682f133852f6798a09c465da95921460cefb384740249890602090a1005b61295d61010061ff00195f5416175f55565b61329c565b303b15915081612974575b505f6128e8565b6001915060ff16145f61296d565b600160ff82161091506128e1565b346103fe5760203660031901126103fe576004356129ad81610442565b6001600160a01b0361111161111160901b01816108695416011633036103fe576106ee90611e7a613363565b91906129e3613363565b602081019182514603612af557612a0b612a0f91836001612a0388612808565b500154613622565b1590565b612ae3577ff4ad92585b1bc117fbdd644990adf0827bc4c95baeae8a23322af807b6d0020e6060820192612a50612a4a855163ffffffff1690565b866136b4565b8051612ad68451926040860195612abb612aad612a9c895196612a778c5163ffffffff1690565b976080860198612a8e8a516001600160a01b031690565b9160a088019b8c5194613725565b925193519851995163ffffffff1690565b94516001600160a01b031690565b945163ffffffff9586604051978897169b1699339487612b76565b0390a461045e6001606555565b60405163582f497d60e11b8152600490fd5b604051633d23e4d160e11b8152600490fd5b9081518082526020808093019301915f5b828110612b26575050505090565b835185529381019392810192600101612b18565b9081518082526020808093019301915f5b828110612b59575050505090565b83516001600160a01b031685529381019392810192600101612b4b565b9496959193612b9860a095612bb693885260c0602089015260c0880190612b07565b906001600160a01b0380951660408801528682036060880152612b3a565b951515608085015216910152565b3561066381610442565b3561066381610460565b903590601e19813603018212156103fe570180359067ffffffffffffffff82116103fe576020019181360383136103fe57565b634e487b7160e01b5f52602160045260245ffd5b60031115612c2957565b612c0b565b156103fe57565b80518210156128425760209160051b010190565b90821015612842576110f09160051b810190612bd8565b908092918237015f815290565b3d15612c97573d90612c7e826105f6565b91612c8c6040519384610579565b82523d5f602084013e565b606090565b908060209392818452848401375f828201840152601f01601f1916010190565b94929093612ce192610663979587526020870152608060408701526080860191612c9c565b926060818503910152612c9c565b634e487b7160e01b5f52601160045260245ffd5b91909163ffffffff80809416911601918211612d1b57565b612cef565b969492909161045e9b9a9998969492612d4063ffffffff42169889612d03565b985b9593919b999897969492909b612d56613363565b61086b549660ff8860e81c166106f5578760c01c63ffffffff16612d79906131ba565b612da09061086b9063ffffffff60c01b1963ffffffff60c01b83549260c01b169116179055565b612da86105dc565b9d6001600160a01b038f921682526001600160a01b031690602001526001600160a01b031660408d01526001600160a01b031660608c015260808b015260a08a015260c08901526001600160a01b031660e088015260c01c63ffffffff16610100870152610120860190612e21919063ffffffff169052565b63ffffffff1661014085015263ffffffff166101608401523690612e4492610612565b610180820152612e539061433d565b61045e6001606555565b916040519160208301936bffffffffffffffffffffffff199060601b1684526034830152605482015260548152612e9381610509565b51902090565b939291602091612eb191604087526040870191612c9c565b930152565b908160209103126103fe57604051906020820182811067ffffffffffffffff8211176104b75760405235815290565b6106639161018090825181526020830151602082015260408301516040820152606083015160608201526080830151608082015260a083015160a082015260c083015160c082015260e083015160e08201526101008084015190820152612f5a610120808501519083019063ffffffff169052565b6101408381015163ffffffff16908201528161016080940151938201520190611115565b612f9660409295949395606083526060830190612ee5565b9460208201520152565b906020610663928181520190611115565b9c9a9998979695949392919096612fc6613363565b60ff61086b5460e81c166106f557612fdf908e33612e5d565b96604051809e612fee826104bc565b81526020015260408d015260608c015260808b015260a08a015260c089015260e088015261010087015263ffffffff16610120860152612e21565b97929095939196949761303a613363565b60ff61086b5460e01c16612732576130556101408201612bce565b63ffffffff80421691161015806130f3575b612701576130dc6130ee966130d4612e539b613086610dd43687612466565b9a61308f61059b565b9b61309a3688612466565b8d5260208d01528660408d01528760608d01526130b8368b84610612565b60808d015260a08c01526130cc8535613916565b983691610612565b953691610612565b9461010060e08301359201359061420b565b613cf1565b506131016040820135613916565b6001600160a01b0316331415613067565b9061311c826107a7565b6131296040519182610579565b828152809261313a601f19916107a7565b01905f5b82811061314a57505050565b80606060208093850101520161313e565b6020818303126103fe5780519067ffffffffffffffff82116103fe570181601f820112156103fe57805161318e816105f6565b9261319c6040519485610579565b818452602082840101116103fe5761066391602080850191016110f4565b63ffffffff809116908114612d1b5760010190565b604051612e93816131ec6020820194604086526060830190612ee5565b46604083015203601f198101835282610579565b91909161320b613363565b60ff61086b5460e01c166127325761014081015163ffffffff428116911610158061327d575b61270157612e5392613242826131cf565b60c08301516020840151906101608501519261325c61059b565b958652602086015260408501526060840152608083015260a0820152613cf1565b5061328b6040820151613916565b6001600160a01b0316331415613231565b9290919260ff5f5460081c16156103fe576132d49061086b9063ffffffff60c01b1963ffffffff60c01b83549260c01b169116179055565b604051906132e18261049b565b6009825260208201916820a1a927a9a996ab1960b91b8352640312e302e360dc1b60206040516133108161049b565b60058152015260ff5f5460081c16156103fe5761045e9461138693611e7a9251902061047f557f06c015bd22b4c69690933c1058878ebdfef31f9aaae40bbe86d8a09fe1b2972c61048055611e6d61465d565b6002606554146103fe576002606555565b91908203918211612d1b57565b6040513d5f823e3d90fd5b926106639695929491946101409585525f60208601526040850152606084015263ffffffff809116608084015260a08301525f60c083015260e08201525f610100820152816101208201520190611115565b9193949690959661341f612a0b6134188861340b896001600160a01b03165f5261086d60205260405f2090565b905f5260205260405f2090565b5460ff1690565b6136105760070b906706f05b59d3b200006134398361477c565b10156135fe576ec097ce7bc90715b34b9f100000000084116135ec5763ffffffff93613467858a1642613374565b857f000000000000000000000000000000000000000000000000000000000000000016106135da5761086b5460c01c63ffffffff16986134a961220d8b6131ba565b6001600160a01b039586807f000000000000000000000000000000000000000000000000000000000000000016981692888414806135d1575b156135955780340361358357883b156103fe575f6004996040519a8b8092630d0e30db60e41b825234905af198891561357e5761354d613560978a927f32ed1a409ef04c7b0227189c3a103dc5ac10e775a15b785dcc510201f7c25ad39c613565575b505b836147ca565b92604051998a99169d169b16938761338c565b0390a4565b80613572613578926104d9565b806103f4565b5f613545565b613381565b604051636452a35d60e01b8152600490fd5b7f32ed1a409ef04c7b0227189c3a103dc5ac10e775a15b785dcc510201f7c25ad398508761354d613560976135cc8430338a61478b565b613547565b503415156134e2565b60405163f722177f60e01b8152600490fd5b60405163622db5a960e11b8152600490fd5b60405163284f109760e21b8152600490fd5b604051632a58c4f360e01b8152600490fd5b61066392916040516136ab8161369d602082019460208652805160408401526020810151606084015260a0613667604083015160c06080870152610100860190612b07565b606083015163ffffffff168583015260808301516001600160a01b031660c0860152910151838203603f190160e0850152612b3a565b03601f198101835282610579565b51902091614800565b6136bf600291612808565b500162ffffff8260081c16805f5281602052600160ff60405f205494161b80809416146136f7575f5260205260405f20908154179055565b60405163954476d960e01b8152600490fd5b908160209103126103fe575190565b91908201809211612d1b57565b91959495939092935f968151908181510361390457816137a4575b5050508261374f575b50505050565b6001600160a01b03816137837ffa7fa7cf6d7dde5f9be65a67e6a1a747e7aa864dcd2d793353c722d80fbbb35793866148c3565b6040805195865233602087015291169463ffffffff1693a45f808080613749565b604080516370a0823160e01b81523060048083019190915291906020816024816001600160a01b038b165afa90811561357e575f916138d5575b505f805b8681106137f3575050505050613740565b6137fd8189612c35565b5161380b575b6001016137e2565b906138219061381a838a612c35565b5190613718565b908282116138c55761385b612a0b61384961383c848a612c35565b516001600160a01b031690565b613853848c612c35565b51908c614851565b15613803579c50876138bb6138b38f61389e61383c61389761387d848f612c35565b51966001600160a01b03165f5261087360205260405f2090565b928b612c35565b6001600160a01b03165f5260205260405f2090565b918254613718565b905560019c613803565b50505051632ddaa83160e11b8152fd5b6138f7915060203d6020116138fd575b6138ef8183610579565b810190613709565b5f6137de565b503d6138e5565b6040516319a5316760e31b8152600490fd5b6001600160a01b039061392881614a28565b1690565b91612a0b906139a59284516040809601519186519161394a836104ed565b82526136ab6139656020840192468452898501958652612808565b505493885192839161398a6020840196602088525160608d86015260a0850190612ee5565b9151606084015251608083015203601f198101835282610579565b6139ac5750565b5163582f497d60e11b8152600490fd5b6139c582612c1f565b52565b9a989693919c9b9997959492909c6101e08c019d8c5260208c015260408b015260608a0152608089015263ffffffff80921660a08901521660c087015260e08601526101008501526101208401526101408301528051610160830152602081015161018083015260408101516101a08301526060015190613a4882612c1f565b6101c00152565b9061066394936080936001600160a01b03809316845260208401521660408201528160608201520190611115565b905f82516101208101613a94815163ffffffff1690565b63ffffffff42911610613cdf576020850151906002613abc835f5261087260205260405f2090565b5414613ccd57613ad686925f5261087260205260405f2090565b6002905560608301519060808401519160a08501519260c0860151918560a0810151938860e0810151956101008201519751613b159063ffffffff1690565b61014083015163ffffffff166040840151918451936020860151956101600151613b3e90613f52565b966060890151986080019e8f51613b5490613f52565b906040015190613b626105e9565b9a8b5260208b015260408a0152600260608a01526040519d8e9b613b869b8d6139c8565b037f44b559f101f8fbcc8a0ea43fa91a05a729a5ea6e14a7c75aa750374690137208905f94a46080820151613bba90613916565b9060408601519560600151613bce90613916565b9260800151613bdc90613916565b6001600160a01b03919082167f0000000000000000000000000000000000000000000000000000000000000000831603613cb85784613ca5575b613c2287838616614a43565b51928351151580613c9b575b613c3c575b50505050509050565b1690813b15613c975783613c6a959660405196879586948593633a5be8cb60e01b8552339160048601613a4f565b03925af1801561357e57613c84575b808080808594613c33565b80613572613c91926104d9565b5f613c79565b8380fd5b50803b1515613c2e565b613cb387303385871661478b565b613c16565b5f9450613cc88785858516614734565b613c22565b604051630479306360e51b8152600490fd5b60405163d642b7d960e01b8152600490fd5b8051916101208301613d07815163ffffffff1690565b63ffffffff42911610613cdf5760208301516001613d2e825f5261087260205260405f2090565b5403613f4b576001905b6002613d4d825f5261087260205260405f2090565b5414613ccd57613d69613d6f915f5261087260205260405f2090565b60029055565b7f44b559f101f8fbcc8a0ea43fa91a05a729a5ea6e14a7c75aa7503746901372086060860151608087015190613e3c8760a08a0151958a60c08101519760a08401519860e083015199613dcc6101008501519c5163ffffffff1690565b61014085015163ffffffff1691604086015193865195613e30613df861016060208b01519a0151613f52565b9960608c01519b6040613e0e6080830151613f52565b910151906020613e1c6105e9565b9e8f528e015260408d015260608c016139bc565b6040519c8d9c8d6139c8565b0390a4613e4c6080830151613916565b916040820151916080613e6e81613e666060850151613916565b940151613916565b6001600160a01b03929083167f0000000000000000000000000000000000000000000000000000000000000000841603613f3857613eb0853033868a1661478b565b613ebc85848616614a43565b0151918251151580613f2e575b613ed5575b5050505050565b16803b156103fe57613f03935f809460405196879586948593633a5be8cb60e01b8552339160048601613a4f565b03925af1801561357e57613f1b575b80808080613ece565b80613572613f28926104d9565b5f613f12565b50803b1515613ec9565b613f46858533868a1661478b565b613ebc565b5f90613d38565b80519081613f605750505f90565b6020012090565b7f4910fdfa16fed3260ed0e7147f7cc6da11a60208b5b9406d12a635614ffd91435460ff1615613f9b5761045e9150614b04565b6040516352d1902d60e01b81526001600160a01b03821690602081600481855afa5f91816140b4575b50613fcd575f80fd5b7f360894a13ba1a3210667c828492db98dca3e2076cc3735a920a3ca505d382bbc036103fe57613ffc82614b04565b7fbc7cd75a20ee27fd9adebab32041f755214dbc6bffa90cc0225b39da2e5c2d3b5f80a28151158015906140ad575b614033575050565b5f806140aa937f206661696c65640000000000000000000000000000000000000000000000000060408051614067816104ed565b602781527f416464726573733a206c6f772d6c6576656c2064656c65676174652063616c6c60208201520152602081519101845af46140a4612c6d565b91614fbb565b50565b505f61402b565b6140ce91925060203d6020116138fd576138ef8183610579565b905f613fc4565b7f4910fdfa16fed3260ed0e7147f7cc6da11a60208b5b9406d12a635614ffd91435460ff16156141095761045e9150614b04565b6040516352d1902d60e01b81526001600160a01b03821690602081600481855afa5f91816141a8575b5061413b575f80fd5b7f360894a13ba1a3210667c828492db98dca3e2076cc3735a920a3ca505d382bbc036103fe5761416a82614b04565b7fbc7cd75a20ee27fd9adebab32041f755214dbc6bffa90cc0225b39da2e5c2d3b5f80a28151158015906141a057614033575050565b50600161402b565b6141c291925060203d6020116138fd576138ef8183610579565b905f614132565b6001600160a01b0316610c5a816001600160a01b03198254161790557fdc4a5f4c066ad14c1306e624550b42395e08f992a76b416cc7b1ad11503d376c5f80a2565b939260429361045e979660208151910120906040519260208401947f8d1994e2bbbd77564cdca06dd819e7ee2a5efa06c80dcb59a4a7b6e39edc538f86526040850152856060850152608084015260a083015260c082015260c0815261427081610541565b5190209061047f549061048054906040519160208301937fc2f8787176b8ac6bf7215b4adcc1e069bf4ab82d9ab1df05a57a91d425935b6e8552604084015260608301526080820152608081526142c68161055d565b519020906040519161190160f01b8352600283015260228201522090614b47565b96926106639a9996949198959261014099895260208901526040880152606087015263ffffffff928380921660808801521660a08601521660c084015260e0830152610100820152816101208201520190611115565b6143478151614a28565b6040908181019061437361435b8351613916565b6001600160a01b03165f5261086d60205260405f2090565b92614390612a0b61341860c085019687515f5260205260405f2090565b61464d576101208201926143b46143ab855163ffffffff1690565b63ffffffff1690565b804210908115614614575b50614603576101408301926143d8845163ffffffff1690565b9163ffffffff928361440c817f00000000000000000000000000000000000000000000000000000000000000001642613718565b9116116145f25761016082015163ffffffff1692808416806145ae575b50508051936001600160a01b037f000000000000000000000000000000000000000000000000000000000000000016809514806145a5575b1561453f576080830151340361452f57843b156103fe575f600495825196878092630d0e30db60e41b825234905af191821561357e577f32ed1a409ef04c7b0227189c3a103dc5ac10e775a15b785dcc510201f7c25ad3956135609361451c575b505b519260608101519460808201519060a08301519a51986144fc6144f16101008601519c5163ffffffff1690565b915163ffffffff1690565b9084519c60208601519461018060e088015197015197519a8b9a8b6142e7565b80613572614529926104d9565b5f6144c2565b51636452a35d60e01b8152600490fd5b9192935034614594577f32ed1a409ef04c7b0227189c3a103dc5ac10e775a15b785dcc510201f7c25ad39392918161458f6145806120156135609551613916565b6080860151903090339061478b565b6144c4565b8151636452a35d60e01b8152600490fd5b50341515614461565b6301e1338010156145dd575b5060e0820151156145cc575f80614429565b835163495d907f60e01b8152600490fd5b926145eb9193421690612d03565b915f6145ba565b835163582e388960e01b8152600490fd5b815163f722177f60e01b8152600490fd5b61461f915042613374565b63ffffffff7f000000000000000000000000000000000000000000000000000000000000000016105f6143bf565b51632a58c4f360e01b8152600490fd5b60ff5f5460081c16156103fe57565b60ff5f5460081c16156103fe576001606555565b6001600160a01b031680156146c857610869816001600160a01b03198254161790557fa9e8c42c9e7fca7f62755189a16b2f5314d43d8fb24e91ba54e6d65f9314e8495f80a2565b60405163ba97b39d60e01b8152600490fd5b6001600160a01b031680156147225761086a816001600160a01b03198254161790557fa73e8909f8616742d7fe701153d82666f7b7cd480552e23ebb05d358c22fd04e5f80a2565b604051635b03092b60e11b8152600490fd5b60405163a9059cbb60e01b60208201526001600160a01b039092166024830152604482019290925261045e9161477782606481015b03601f198101845283610579565b614c25565b5f81126147865790565b5f0390565b909261045e93604051936323b872dd60e01b60208601526001600160a01b0380921660248601521660448401526064830152606482526147778261055d565b90670de0b6b3a7640000915f828403921283831281169084841390151617612d1b57818102918183041490151715612d1b570490565b929091905f915b84518310156148495761481a8386612c35565b519081811015614838575f52602052600160405f205b920191614807565b905f52602052600160405f20614830565b915092501490565b60405163a9059cbb60e01b60208281019182526001600160a01b039094166024830152604482019490945290925f9161488d816064810161369d565b519082855af1903d5f5190836148a4575b50505090565b919250906148b957503b15155b5f808061489e565b60019150146148b1565b906001600160a01b0390817f0000000000000000000000000000000000000000000000000000000000000000161515806149fb575b1561491b57505061045e9061491661086a546001600160a01b031690565b614cb5565b915f9161495a6149506149436149cf966001600160a01b03165f52610c5b60205260405f2090565b546001600160a01b031690565b9182161515612c2e565b614973612015612015610c5a546001600160a01b031690565b908361498861086a546001600160a01b031690565b604051637b3a3c8b60e01b81526001600160a01b039384166004820152921660248301526044820193909352608060648201525f60848201529384928391829060a4820190565b03925af1801561357e576149e05750565b6140aa903d805f833e6149f38183610579565b81019061315b565b50817f000000000000000000000000000000000000000000000000000000000000000016828216146148f8565b60a01c614a3157565b6040516379ec0ed760e11b8152600490fd5b6001600160a01b0390811690813b15614a83579061045e92917f000000000000000000000000000000000000000000000000000000000000000016614734565b7f000000000000000000000000000000000000000000000000000000000000000016803b156103fe575f8091602460405180948193632e1a7d4d60e01b83528860048401525af1801561357e57614af5575b508147106103fe575f80809381935af1614aed612c6d565b50156103fe57565b614afe906104d9565b5f614ad5565b803b156103fe576001600160a01b037f360894a13ba1a3210667c828492db98dca3e2076cc3735a920a3ca505d382bbc91166001600160a01b0319825416179055565b614b518383614ee6565b6005819592951015612c2957159384614c0f575b508315614b89575b50505015614b7757565b60405163938a182160e01b8152600490fd5b5f929350908291604051614bc18161369d6020820194630b135d3f60e11b998a87526024840152604060448401526064830190611115565b51915afa90614bce612c6d565b82614c01575b82614be4575b50505f8080614b6d565b614bf991925060208082518301019101613709565b145f80614bda565b915060208251101591614bd4565b6001600160a01b0383811691161493505f614b65565b905f806001600160a01b03614c7c9416927f5361666545524332303a206c6f772d6c6576656c2063616c6c206661696c65646020604051614c658161049b565b818152015260208151910182855af16140a4612c6d565b8051908115918215614c92575b5050156103fe57565b81925090602091810103126103fe5760200151614cae81610af6565b5f80614c89565b6001600160a01b03809116917f000000000000000000000000000000000000000000000000000000000000000090827f000000000000000000000000000000000000000000000000000000000000000016614d11828285614f17565b604090604051916332dd704760e21b83526020936004958585600481875afa94851561357e57869189915f97614e82575b501697604051958680926352b7631960e11b825281614d748d600483019190916001600160a01b036020820193169052565b0392165afa93841561357e575f94614e63575b5092947f000000000000000000000000000000000000000000000000000000000000000093805b614dbd57505050505050505050565b614e0e9087811115614e5d5787905b84516337e9a82760e11b815284810183815263ffffffff89166020820152604081018d90526001600160a01b038c166060820152909389918591829160800190565b03815f8a5af192831561357e57614e2a93614e30575b50613374565b80614dae565b614e4f90893d8b11614e56575b614e478183610579565b810190614ec6565b505f614e24565b503d614e3d565b80614dcc565b614e7b919450853d87116138fd576138ef8183610579565b925f614d87565b614ea3919750833d8511614eaa575b614e9b8183610579565b810190614eb1565b955f614d42565b503d614e91565b908160209103126103fe575161066381610442565b908160209103126103fe575167ffffffffffffffff811681036103fe5790565b9060418151145f14614f0e576110f091602082015190606060408401519301515f1a90614fe4565b50505f90600290565b6044919260206001600160a01b0360405194858092636eb1769f60e11b8252306004830152808916602483015286165afa92831561357e575f93614f9a575b508201809211612d1b5760405163095ea7b360e01b60208201526001600160a01b039093166024840152604483019190915261045e91906147778260648101614769565b614fb491935060203d6020116138fd576138ef8183610579565b915f614f56565b9015614fd557815115614fcc575090565b3b156103fe5790565b5080519081156103fe57602001fd5b7f7fffffffffffffffffffffffffffffff5d576e7357a4501ddfe92f46681b20a08411615054576020935f9360ff60809460405194855216868401526040830152606082015282805260015afa1561357e575f516001600160a01b0381161561504c57905f90565b505f90600190565b505050505f9060039056fea264697066735822122093216a3eae9035f0206a9e72466eab108539550cf0d0e4d4e890b24459fdc33b64736f6c63430008170033"
}