{
  "address": "0x3baD7AD0728f9917d1Bf08af5782dCbD516cDd96",
  "abi": [
    {
      "inputs": [
        {
          "internalType": "address",
          "name": "_wrappedNativeTokenAddress",
          "type": "address"
        },
        {
          "internalType": "uint32",
          "name": "_depositQuoteTimeBuffer",
          "type": "uint32"
        },
        {
          "internalType": "uint32",
          "name": "_fillDeadlineBuffer",
          "type": "uint32"
        },
        {
          "internalType": "contract IERC20",
          "name": "_l2Usdc",
          "type": "address"
        },
        {
          "internalType": "contract ITokenMessenger",
          "name": "_cctpTokenMessenger",
          "type": "address"
        }
      ],
      "stateMutability": "nonpayable",
      "type": "constructor"
    },
    {
      "inputs": [],
      "name": "ClaimedMerkleLeaf",
      "type": "error"
    },
    {
      "inputs": [],
      "name": "DepositsArePaused",
      "type": "error"
    },
    {
      "inputs": [],
      "name": "DisabledRoute",
      "type": "error"
    },
    {
      "inputs": [],
      "name": "ExpiredFillDeadline",
      "type": "error"
    },
    {
      "inputs": [],
      "name": "FillsArePaused",
      "type": "error"
    },
    {
      "inputs": [],
      "name": "InsufficientSpokePoolBalanceToExecuteLeaf",
      "type": "error"
    },
    {
      "inputs": [],
      "name": "InvalidBytes32",
      "type": "error"
    },
    {
      "inputs": [],
      "name": "InvalidChainId",
      "type": "error"
    },
    {
      "inputs": [],
      "name": "InvalidCrossDomainAdmin",
      "type": "error"
    },
    {
      "inputs": [],
      "name": "InvalidDepositorSignature",
      "type": "error"
    },
    {
      "inputs": [],
      "name": "InvalidExclusiveRelayer",
      "type": "error"
    },
    {
      "inputs": [],
      "name": "InvalidFillDeadline",
      "type": "error"
    },
    {
      "inputs": [],
      "name": "InvalidMerkleLeaf",
      "type": "error"
    },
    {
      "inputs": [],
      "name": "InvalidMerkleProof",
      "type": "error"
    },
    {
      "inputs": [],
      "name": "InvalidPayoutAdjustmentPct",
      "type": "error"
    },
    {
      "inputs": [],
      "name": "InvalidQuoteTimestamp",
      "type": "error"
    },
    {
      "inputs": [],
      "name": "InvalidRelayerFeePct",
      "type": "error"
    },
    {
      "inputs": [],
      "name": "InvalidSlowFillRequest",
      "type": "error"
    },
    {
      "inputs": [],
      "name": "InvalidWithdrawalRecipient",
      "type": "error"
    },
    {
      "inputs": [
        {
          "internalType": "bytes",
          "name": "data",
          "type": "bytes"
        }
      ],
      "name": "LowLevelCallFailed",
      "type": "error"
    },
    {
      "inputs": [],
      "name": "MaxTransferSizeExceeded",
      "type": "error"
    },
    {
      "inputs": [],
      "name": "MsgValueDoesNotMatchInputAmount",
      "type": "error"
    },
    {
      "inputs": [],
      "name": "NoRelayerRefundToClaim",
      "type": "error"
    },
    {
      "inputs": [],
      "name": "NoSlowFillsInExclusivityWindow",
      "type": "error"
    },
    {
      "inputs": [],
      "name": "NotCrossChainCall",
      "type": "error"
    },
    {
      "inputs": [],
      "name": "NotCrossDomainAdmin",
      "type": "error"
    },
    {
      "inputs": [],
      "name": "NotEOA",
      "type": "error"
    },
    {
      "inputs": [],
      "name": "NotExclusiveRelayer",
      "type": "error"
    },
    {
      "inputs": [],
      "name": "RelayFilled",
      "type": "error"
    },
    {
      "inputs": [],
      "name": "WrongERC7683OrderId",
      "type": "error"
    },
    {
      "anonymous": false,
      "inputs": [
        {
          "indexed": false,
          "internalType": "address",
          "name": "previousAdmin",
          "type": "address"
        },
        {
          "indexed": false,
          "internalType": "address",
          "name": "newAdmin",
          "type": "address"
        }
      ],
      "name": "AdminChanged",
      "type": "event"
    },
    {
      "anonymous": false,
      "inputs": [
        {
          "indexed": true,
          "internalType": "address",
          "name": "beacon",
          "type": "address"
        }
      ],
      "name": "BeaconUpgraded",
      "type": "event"
    },
    {
      "anonymous": false,
      "inputs": [
        {
          "indexed": true,
          "internalType": "bytes32",
          "name": "l2TokenAddress",
          "type": "bytes32"
        },
        {
          "indexed": true,
          "internalType": "bytes32",
          "name": "refundAddress",
          "type": "bytes32"
        },
        {
          "indexed": false,
          "internalType": "uint256",
          "name": "amount",
          "type": "uint256"
        },
        {
          "indexed": true,
          "internalType": "address",
          "name": "caller",
          "type": "address"
        }
      ],
      "name": "ClaimedRelayerRefund",
      "type": "event"
    },
    {
      "anonymous": false,
      "inputs": [
        {
          "indexed": true,
          "internalType": "uint256",
          "name": "rootBundleId",
          "type": "uint256"
        }
      ],
      "name": "EmergencyDeletedRootBundle",
      "type": "event"
    },
    {
      "anonymous": false,
      "inputs": [
        {
          "indexed": true,
          "internalType": "address",
          "name": "originToken",
          "type": "address"
        },
        {
          "indexed": true,
          "internalType": "uint256",
          "name": "destinationChainId",
          "type": "uint256"
        },
        {
          "indexed": false,
          "internalType": "bool",
          "name": "enabled",
          "type": "bool"
        }
      ],
      "name": "EnabledDepositRoute",
      "type": "event"
    },
    {
      "anonymous": false,
      "inputs": [
        {
          "indexed": false,
          "internalType": "uint256",
          "name": "amountToReturn",
          "type": "uint256"
        },
        {
          "indexed": true,
          "internalType": "uint256",
          "name": "chainId",
          "type": "uint256"
        },
        {
          "indexed": false,
          "internalType": "uint256[]",
          "name": "refundAmounts",
          "type": "uint256[]"
        },
        {
          "indexed": true,
          "internalType": "uint32",
          "name": "rootBundleId",
          "type": "uint32"
        },
        {
          "indexed": true,
          "internalType": "uint32",
          "name": "leafId",
          "type": "uint32"
        },
        {
          "indexed": false,
          "internalType": "address",
          "name": "l2TokenAddress",
          "type": "address"
        },
        {
          "indexed": false,
          "internalType": "address[]",
          "name": "refundAddresses",
          "type": "address[]"
        },
        {
          "indexed": false,
          "internalType": "bool",
          "name": "deferredRefunds",
          "type": "bool"
        },
        {
          "indexed": false,
          "internalType": "address",
          "name": "caller",
          "type": "address"
        }
      ],
      "name": "ExecutedRelayerRefundRoot",
      "type": "event"
    },
    {
      "anonymous": false,
      "inputs": [
        {
          "indexed": false,
          "internalType": "bytes32",
          "name": "inputToken",
          "type": "bytes32"
        },
        {
          "indexed": false,
          "internalType": "bytes32",
          "name": "outputToken",
          "type": "bytes32"
        },
        {
          "indexed": false,
          "internalType": "uint256",
          "name": "inputAmount",
          "type": "uint256"
        },
        {
          "indexed": false,
          "internalType": "uint256",
          "name": "outputAmount",
          "type": "uint256"
        },
        {
          "indexed": false,
          "internalType": "uint256",
          "name": "repaymentChainId",
          "type": "uint256"
        },
        {
          "indexed": true,
          "internalType": "uint256",
          "name": "originChainId",
          "type": "uint256"
        },
        {
          "indexed": true,
          "internalType": "uint256",
          "name": "depositId",
          "type": "uint256"
        },
        {
          "indexed": false,
          "internalType": "uint32",
          "name": "fillDeadline",
          "type": "uint32"
        },
        {
          "indexed": false,
          "internalType": "uint32",
          "name": "exclusivityDeadline",
          "type": "uint32"
        },
        {
          "indexed": false,
          "internalType": "bytes32",
          "name": "exclusiveRelayer",
          "type": "bytes32"
        },
        {
          "indexed": true,
          "internalType": "bytes32",
          "name": "relayer",
          "type": "bytes32"
        },
        {
          "indexed": false,
          "internalType": "bytes32",
          "name": "depositor",
          "type": "bytes32"
        },
        {
          "indexed": false,
          "internalType": "bytes32",
          "name": "recipient",
          "type": "bytes32"
        },
        {
          "indexed": false,
          "internalType": "bytes32",
          "name": "messageHash",
          "type": "bytes32"
        },
        {
          "components": [
            {
              "internalType": "bytes32",
              "name": "updatedRecipient",
              "type": "bytes32"
            },
            {
              "internalType": "bytes32",
              "name": "updatedMessageHash",
              "type": "bytes32"
            },
            {
              "internalType": "uint256",
              "name": "updatedOutputAmount",
              "type": "uint256"
            },
            {
              "internalType": "enum V3SpokePoolInterface.FillType",
              "name": "fillType",
              "type": "uint8"
            }
          ],
          "indexed": false,
          "internalType": "struct V3SpokePoolInterface.V3RelayExecutionEventInfo",
          "name": "relayExecutionInfo",
          "type": "tuple"
        }
      ],
      "name": "FilledRelay",
      "type": "event"
    },
    {
      "anonymous": false,
      "inputs": [
        {
          "indexed": false,
          "internalType": "address",
          "name": "inputToken",
          "type": "address"
        },
        {
          "indexed": false,
          "internalType": "address",
          "name": "outputToken",
          "type": "address"
        },
        {
          "indexed": false,
          "internalType": "uint256",
          "name": "inputAmount",
          "type": "uint256"
        },
        {
          "indexed": false,
          "internalType": "uint256",
          "name": "outputAmount",
          "type": "uint256"
        },
        {
          "indexed": false,
          "internalType": "uint256",
          "name": "repaymentChainId",
          "type": "uint256"
        },
        {
          "indexed": true,
          "internalType": "uint256",
          "name": "originChainId",
          "type": "uint256"
        },
        {
          "indexed": true,
          "internalType": "uint32",
          "name": "depositId",
          "type": "uint32"
        },
        {
          "indexed": false,
          "internalType": "uint32",
          "name": "fillDeadline",
          "type": "uint32"
        },
        {
          "indexed": false,
          "internalType": "uint32",
          "name": "exclusivityDeadline",
          "type": "uint32"
        },
        {
          "indexed": false,
          "internalType": "address",
          "name": "exclusiveRelayer",
          "type": "address"
        },
        {
          "indexed": true,
          "internalType": "address",
          "name": "relayer",
          "type": "address"
        },
        {
          "indexed": false,
          "internalType": "address",
          "name": "depositor",
          "type": "address"
        },
        {
          "indexed": false,
          "internalType": "address",
          "name": "recipient",
          "type": "address"
        },
        {
          "indexed": false,
          "internalType": "bytes",
          "name": "message",
          "type": "bytes"
        },
        {
          "components": [
            {
              "internalType": "address",
              "name": "updatedRecipient",
              "type": "address"
            },
            {
              "internalType": "bytes",
              "name": "updatedMessage",
              "type": "bytes"
            },
            {
              "internalType": "uint256",
              "name": "updatedOutputAmount",
              "type": "uint256"
            },
            {
              "internalType": "enum V3SpokePoolInterface.FillType",
              "name": "fillType",
              "type": "uint8"
            }
          ],
          "indexed": false,
          "internalType": "struct V3SpokePoolInterface.LegacyV3RelayExecutionEventInfo",
          "name": "relayExecutionInfo",
          "type": "tuple"
        }
      ],
      "name": "FilledV3Relay",
      "type": "event"
    },
    {
      "anonymous": false,
      "inputs": [
        {
          "indexed": false,
          "internalType": "bytes32",
          "name": "inputToken",
          "type": "bytes32"
        },
        {
          "indexed": false,
          "internalType": "bytes32",
          "name": "outputToken",
          "type": "bytes32"
        },
        {
          "indexed": false,
          "internalType": "uint256",
          "name": "inputAmount",
          "type": "uint256"
        },
        {
          "indexed": false,
          "internalType": "uint256",
          "name": "outputAmount",
          "type": "uint256"
        },
        {
          "indexed": true,
          "internalType": "uint256",
          "name": "destinationChainId",
          "type": "uint256"
        },
        {
          "indexed": true,
          "internalType": "uint256",
          "name": "depositId",
          "type": "uint256"
        },
        {
          "indexed": false,
          "internalType": "uint32",
          "name": "quoteTimestamp",
          "type": "uint32"
        },
        {
          "indexed": false,
          "internalType": "uint32",
          "name": "fillDeadline",
          "type": "uint32"
        },
        {
          "indexed": false,
          "internalType": "uint32",
          "name": "exclusivityDeadline",
          "type": "uint32"
        },
        {
          "indexed": true,
          "internalType": "bytes32",
          "name": "depositor",
          "type": "bytes32"
        },
        {
          "indexed": false,
          "internalType": "bytes32",
          "name": "recipient",
          "type": "bytes32"
        },
        {
          "indexed": false,
          "internalType": "bytes32",
          "name": "exclusiveRelayer",
          "type": "bytes32"
        },
        {
          "indexed": false,
          "internalType": "bytes",
          "name": "message",
          "type": "bytes"
        }
      ],
      "name": "FundsDeposited",
      "type": "event"
    },
    {
      "anonymous": false,
      "inputs": [
        {
          "indexed": false,
          "internalType": "uint8",
          "name": "version",
          "type": "uint8"
        }
      ],
      "name": "Initialized",
      "type": "event"
    },
    {
      "anonymous": false,
      "inputs": [
        {
          "indexed": false,
          "internalType": "bool",
          "name": "isPaused",
          "type": "bool"
        }
      ],
      "name": "PausedDeposits",
      "type": "event"
    },
    {
      "anonymous": false,
      "inputs": [
        {
          "indexed": false,
          "internalType": "bool",
          "name": "isPaused",
          "type": "bool"
        }
      ],
      "name": "PausedFills",
      "type": "event"
    },
    {
      "anonymous": false,
      "inputs": [
        {
          "indexed": true,
          "internalType": "uint32",
          "name": "rootBundleId",
          "type": "uint32"
        },
        {
          "indexed": true,
          "internalType": "bytes32",
          "name": "relayerRefundRoot",
          "type": "bytes32"
        },
        {
          "indexed": true,
          "internalType": "bytes32",
          "name": "slowRelayRoot",
          "type": "bytes32"
        }
      ],
      "name": "RelayedRootBundle",
      "type": "event"
    },
    {
      "anonymous": false,
      "inputs": [
        {
          "indexed": false,
          "internalType": "bytes32",
          "name": "inputToken",
          "type": "bytes32"
        },
        {
          "indexed": false,
          "internalType": "bytes32",
          "name": "outputToken",
          "type": "bytes32"
        },
        {
          "indexed": false,
          "internalType": "uint256",
          "name": "inputAmount",
          "type": "uint256"
        },
        {
          "indexed": false,
          "internalType": "uint256",
          "name": "outputAmount",
          "type": "uint256"
        },
        {
          "indexed": true,
          "internalType": "uint256",
          "name": "originChainId",
          "type": "uint256"
        },
        {
          "indexed": true,
          "internalType": "uint256",
          "name": "depositId",
          "type": "uint256"
        },
        {
          "indexed": false,
          "internalType": "uint32",
          "name": "fillDeadline",
          "type": "uint32"
        },
        {
          "indexed": false,
          "internalType": "uint32",
          "name": "exclusivityDeadline",
          "type": "uint32"
        },
        {
          "indexed": false,
          "internalType": "bytes32",
          "name": "exclusiveRelayer",
          "type": "bytes32"
        },
        {
          "indexed": false,
          "internalType": "bytes32",
          "name": "depositor",
          "type": "bytes32"
        },
        {
          "indexed": false,
          "internalType": "bytes32",
          "name": "recipient",
          "type": "bytes32"
        },
        {
          "indexed": false,
          "internalType": "bytes32",
          "name": "messageHash",
          "type": "bytes32"
        }
      ],
      "name": "RequestedSlowFill",
      "type": "event"
    },
    {
      "anonymous": false,
      "inputs": [
        {
          "indexed": false,
          "internalType": "uint256",
          "name": "updatedOutputAmount",
          "type": "uint256"
        },
        {
          "indexed": true,
          "internalType": "uint256",
          "name": "depositId",
          "type": "uint256"
        },
        {
          "indexed": true,
          "internalType": "bytes32",
          "name": "depositor",
          "type": "bytes32"
        },
        {
          "indexed": false,
          "internalType": "bytes32",
          "name": "updatedRecipient",
          "type": "bytes32"
        },
        {
          "indexed": false,
          "internalType": "bytes",
          "name": "updatedMessage",
          "type": "bytes"
        },
        {
          "indexed": false,
          "internalType": "bytes",
          "name": "depositorSignature",
          "type": "bytes"
        }
      ],
      "name": "RequestedSpeedUpDeposit",
      "type": "event"
    },
    {
      "anonymous": false,
      "inputs": [
        {
          "indexed": false,
          "internalType": "uint256",
          "name": "updatedOutputAmount",
          "type": "uint256"
        },
        {
          "indexed": true,
          "internalType": "uint32",
          "name": "depositId",
          "type": "uint32"
        },
        {
          "indexed": true,
          "internalType": "address",
          "name": "depositor",
          "type": "address"
        },
        {
          "indexed": false,
          "internalType": "address",
          "name": "updatedRecipient",
          "type": "address"
        },
        {
          "indexed": false,
          "internalType": "bytes",
          "name": "updatedMessage",
          "type": "bytes"
        },
        {
          "indexed": false,
          "internalType": "bytes",
          "name": "depositorSignature",
          "type": "bytes"
        }
      ],
      "name": "RequestedSpeedUpV3Deposit",
      "type": "event"
    },
    {
      "anonymous": false,
      "inputs": [
        {
          "indexed": false,
          "internalType": "address",
          "name": "inputToken",
          "type": "address"
        },
        {
          "indexed": false,
          "internalType": "address",
          "name": "outputToken",
          "type": "address"
        },
        {
          "indexed": false,
          "internalType": "uint256",
          "name": "inputAmount",
          "type": "uint256"
        },
        {
          "indexed": false,
          "internalType": "uint256",
          "name": "outputAmount",
          "type": "uint256"
        },
        {
          "indexed": true,
          "internalType": "uint256",
          "name": "originChainId",
          "type": "uint256"
        },
        {
          "indexed": true,
          "internalType": "uint32",
          "name": "depositId",
          "type": "uint32"
        },
        {
          "indexed": false,
          "internalType": "uint32",
          "name": "fillDeadline",
          "type": "uint32"
        },
        {
          "indexed": false,
          "internalType": "uint32",
          "name": "exclusivityDeadline",
          "type": "uint32"
        },
        {
          "indexed": false,
          "internalType": "address",
          "name": "exclusiveRelayer",
          "type": "address"
        },
        {
          "indexed": false,
          "internalType": "address",
          "name": "depositor",
          "type": "address"
        },
        {
          "indexed": false,
          "internalType": "address",
          "name": "recipient",
          "type": "address"
        },
        {
          "indexed": false,
          "internalType": "bytes",
          "name": "message",
          "type": "bytes"
        }
      ],
      "name": "RequestedV3SlowFill",
      "type": "event"
    },
    {
      "anonymous": false,
      "inputs": [
        {
          "indexed": true,
          "internalType": "uint32",
          "name": "newL1Gas",
          "type": "uint32"
        }
      ],
      "name": "SetL1Gas",
      "type": "event"
    },
    {
      "anonymous": false,
      "inputs": [
        {
          "indexed": true,
          "internalType": "address",
          "name": "l2Token",
          "type": "address"
        },
        {
          "indexed": true,
          "internalType": "address",
          "name": "tokenBridge",
          "type": "address"
        }
      ],
      "name": "SetL2TokenBridge",
      "type": "event"
    },
    {
      "anonymous": false,
      "inputs": [
        {
          "indexed": true,
          "internalType": "address",
          "name": "l2Token",
          "type": "address"
        },
        {
          "indexed": true,
          "internalType": "address",
          "name": "l1Token",
          "type": "address"
        }
      ],
      "name": "SetRemoteL1Token",
      "type": "event"
    },
    {
      "anonymous": false,
      "inputs": [
        {
          "indexed": true,
          "internalType": "address",
          "name": "newWithdrawalRecipient",
          "type": "address"
        }
      ],
      "name": "SetWithdrawalRecipient",
      "type": "event"
    },
    {
      "anonymous": false,
      "inputs": [
        {
          "indexed": true,
          "internalType": "address",
          "name": "newAdmin",
          "type": "address"
        }
      ],
      "name": "SetXDomainAdmin",
      "type": "event"
    },
    {
      "anonymous": false,
      "inputs": [
        {
          "indexed": false,
          "internalType": "uint256",
          "name": "amountToReturn",
          "type": "uint256"
        },
        {
          "indexed": true,
          "internalType": "uint256",
          "name": "chainId",
          "type": "uint256"
        },
        {
          "indexed": true,
          "internalType": "uint32",
          "name": "leafId",
          "type": "uint32"
        },
        {
          "indexed": true,
          "internalType": "bytes32",
          "name": "l2TokenAddress",
          "type": "bytes32"
        },
        {
          "indexed": false,
          "internalType": "address",
          "name": "caller",
          "type": "address"
        }
      ],
      "name": "TokensBridged",
      "type": "event"
    },
    {
      "anonymous": false,
      "inputs": [
        {
          "indexed": true,
          "internalType": "address",
          "name": "implementation",
          "type": "address"
        }
      ],
      "name": "Upgraded",
      "type": "event"
    },
    {
      "anonymous": false,
      "inputs": [
        {
          "indexed": false,
          "internalType": "address",
          "name": "inputToken",
          "type": "address"
        },
        {
          "indexed": false,
          "internalType": "address",
          "name": "outputToken",
          "type": "address"
        },
        {
          "indexed": false,
          "internalType": "uint256",
          "name": "inputAmount",
          "type": "uint256"
        },
        {
          "indexed": false,
          "internalType": "uint256",
          "name": "outputAmount",
          "type": "uint256"
        },
        {
          "indexed": true,
          "internalType": "uint256",
          "name": "destinationChainId",
          "type": "uint256"
        },
        {
          "indexed": true,
          "internalType": "uint32",
          "name": "depositId",
          "type": "uint32"
        },
        {
          "indexed": false,
          "internalType": "uint32",
          "name": "quoteTimestamp",
          "type": "uint32"
        },
        {
          "indexed": false,
          "internalType": "uint32",
          "name": "fillDeadline",
          "type": "uint32"
        },
        {
          "indexed": false,
          "internalType": "uint32",
          "name": "exclusivityDeadline",
          "type": "uint32"
        },
        {
          "indexed": true,
          "internalType": "address",
          "name": "depositor",
          "type": "address"
        },
        {
          "indexed": false,
          "internalType": "address",
          "name": "recipient",
          "type": "address"
        },
        {
          "indexed": false,
          "internalType": "address",
          "name": "exclusiveRelayer",
          "type": "address"
        },
        {
          "indexed": false,
          "internalType": "bytes",
          "name": "message",
          "type": "bytes"
        }
      ],
      "name": "V3FundsDeposited",
      "type": "event"
    },
    {
      "inputs": [],
      "name": "EMPTY_RELAYER",
      "outputs": [
        {
          "internalType": "bytes32",
          "name": "",
          "type": "bytes32"
        }
      ],
      "stateMutability": "view",
      "type": "function"
    },
    {
      "inputs": [],
      "name": "EMPTY_REPAYMENT_CHAIN_ID",
      "outputs": [
        {
          "internalType": "uint256",
          "name": "",
          "type": "uint256"
        }
      ],
      "stateMutability": "view",
      "type": "function"
    },
    {
      "inputs": [],
      "name": "INFINITE_FILL_DEADLINE",
      "outputs": [
        {
          "internalType": "uint32",
          "name": "",
          "type": "uint32"
        }
      ],
      "stateMutability": "view",
      "type": "function"
    },
    {
      "inputs": [],
      "name": "MAX_EXCLUSIVITY_PERIOD_SECONDS",
      "outputs": [
        {
          "internalType": "uint32",
          "name": "",
          "type": "uint32"
        }
      ],
      "stateMutability": "view",
      "type": "function"
    },
    {
      "inputs": [],
      "name": "MAX_TRANSFER_SIZE",
      "outputs": [
        {
          "internalType": "uint256",
          "name": "",
          "type": "uint256"
        }
      ],
      "stateMutability": "view",
      "type": "function"
    },
    {
      "inputs": [],
      "name": "MESSENGER",
      "outputs": [
        {
          "internalType": "address",
          "name": "",
          "type": "address"
        }
      ],
      "stateMutability": "view",
      "type": "function"
    },
    {
      "inputs": [],
      "name": "UPDATE_BYTES32_DEPOSIT_DETAILS_HASH",
      "outputs": [
        {
          "internalType": "bytes32",
          "name": "",
          "type": "bytes32"
        }
      ],
      "stateMutability": "view",
      "type": "function"
    },
    {
      "inputs": [
        {
          "internalType": "uint32",
          "name": "_initialDepositId",
          "type": "uint32"
        },
        {
          "internalType": "address",
          "name": "_crossDomainAdmin",
          "type": "address"
        },
        {
          "internalType": "address",
          "name": "_withdrawalRecipient",
          "type": "address"
        },
        {
          "internalType": "address",
          "name": "_l2Eth",
          "type": "address"
        }
      ],
      "name": "__OvmSpokePool_init",
      "outputs": [],
      "stateMutability": "nonpayable",
      "type": "function"
    },
    {
      "inputs": [
        {
          "internalType": "uint32",
          "name": "_initialDepositId",
          "type": "uint32"
        },
        {
          "internalType": "address",
          "name": "_crossDomainAdmin",
          "type": "address"
        },
        {
          "internalType": "address",
          "name": "_withdrawalRecipient",
          "type": "address"
        }
      ],
      "name": "__SpokePool_init",
      "outputs": [],
      "stateMutability": "nonpayable",
      "type": "function"
    },
    {
      "inputs": [],
      "name": "cctpTokenMessenger",
      "outputs": [
        {
          "internalType": "contract ITokenMessenger",
          "name": "",
          "type": "address"
        }
      ],
      "stateMutability": "view",
      "type": "function"
    },
    {
      "inputs": [],
      "name": "cctpV2",
      "outputs": [
        {
          "internalType": "bool",
          "name": "",
          "type": "bool"
        }
      ],
      "stateMutability": "view",
      "type": "function"
    },
    {
      "inputs": [],
      "name": "chainId",
      "outputs": [
        {
          "internalType": "uint256",
          "name": "",
          "type": "uint256"
        }
      ],
      "stateMutability": "view",
      "type": "function"
    },
    {
      "inputs": [
        {
          "internalType": "bytes32",
          "name": "l2TokenAddress",
          "type": "bytes32"
        },
        {
          "internalType": "bytes32",
          "name": "refundAddress",
          "type": "bytes32"
        }
      ],
      "name": "claimRelayerRefund",
      "outputs": [],
      "stateMutability": "nonpayable",
      "type": "function"
    },
    {
      "inputs": [],
      "name": "crossDomainAdmin",
      "outputs": [
        {
          "internalType": "address",
          "name": "",
          "type": "address"
        }
      ],
      "stateMutability": "view",
      "type": "function"
    },
    {
      "inputs": [
        {
          "internalType": "bytes32",
          "name": "depositor",
          "type": "bytes32"
        },
        {
          "internalType": "bytes32",
          "name": "recipient",
          "type": "bytes32"
        },
        {
          "internalType": "bytes32",
          "name": "inputToken",
          "type": "bytes32"
        },
        {
          "internalType": "bytes32",
          "name": "outputToken",
          "type": "bytes32"
        },
        {
          "internalType": "uint256",
          "name": "inputAmount",
          "type": "uint256"
        },
        {
          "internalType": "uint256",
          "name": "outputAmount",
          "type": "uint256"
        },
        {
          "internalType": "uint256",
          "name": "destinationChainId",
          "type": "uint256"
        },
        {
          "internalType": "bytes32",
          "name": "exclusiveRelayer",
          "type": "bytes32"
        },
        {
          "internalType": "uint32",
          "name": "quoteTimestamp",
          "type": "uint32"
        },
        {
          "internalType": "uint32",
          "name": "fillDeadline",
          "type": "uint32"
        },
        {
          "internalType": "uint32",
          "name": "exclusivityParameter",
          "type": "uint32"
        },
        {
          "internalType": "bytes",
          "name": "message",
          "type": "bytes"
        }
      ],
      "name": "deposit",
      "outputs": [],
      "stateMutability": "payable",
      "type": "function"
    },
    {
      "inputs": [
        {
          "internalType": "address",
          "name": "recipient",
          "type": "address"
        },
        {
          "internalType": "address",
          "name": "originToken",
          "type": "address"
        },
        {
          "internalType": "uint256",
          "name": "amount",
          "type": "uint256"
        },
        {
          "internalType": "uint256",
          "name": "destinationChainId",
          "type": "uint256"
        },
        {
          "internalType": "int64",
          "name": "relayerFeePct",
          "type": "int64"
        },
        {
          "internalType": "uint32",
          "name": "quoteTimestamp",
          "type": "uint32"
        },
        {
          "internalType": "bytes",
          "name": "message",
          "type": "bytes"
        },
        {
          "internalType": "uint256",
          "name": "",
          "type": "uint256"
        }
      ],
      "name": "depositDeprecated_5947912356",
      "outputs": [],
      "stateMutability": "payable",
      "type": "function"
    },
    {
      "inputs": [
        {
          "internalType": "address",
          "name": "depositor",
          "type": "address"
        },
        {
          "internalType": "address",
          "name": "recipient",
          "type": "address"
        },
        {
          "internalType": "address",
          "name": "originToken",
          "type": "address"
        },
        {
          "internalType": "uint256",
          "name": "amount",
          "type": "uint256"
        },
        {
          "internalType": "uint256",
          "name": "destinationChainId",
          "type": "uint256"
        },
        {
          "internalType": "int64",
          "name": "relayerFeePct",
          "type": "int64"
        },
        {
          "internalType": "uint32",
          "name": "quoteTimestamp",
          "type": "uint32"
        },
        {
          "internalType": "bytes",
          "name": "message",
          "type": "bytes"
        },
        {
          "internalType": "uint256",
          "name": "",
          "type": "uint256"
        }
      ],
      "name": "depositFor",
      "outputs": [],
      "stateMutability": "payable",
      "type": "function"
    },
    {
      "inputs": [
        {
          "internalType": "bytes32",
          "name": "depositor",
          "type": "bytes32"
        },
        {
          "internalType": "bytes32",
          "name": "recipient",
          "type": "bytes32"
        },
        {
          "internalType": "bytes32",
          "name": "inputToken",
          "type": "bytes32"
        },
        {
          "internalType": "bytes32",
          "name": "outputToken",
          "type": "bytes32"
        },
        {
          "internalType": "uint256",
          "name": "inputAmount",
          "type": "uint256"
        },
        {
          "internalType": "uint256",
          "name": "outputAmount",
          "type": "uint256"
        },
        {
          "internalType": "uint256",
          "name": "destinationChainId",
          "type": "uint256"
        },
        {
          "internalType": "bytes32",
          "name": "exclusiveRelayer",
          "type": "bytes32"
        },
        {
          "internalType": "uint32",
          "name": "fillDeadlineOffset",
          "type": "uint32"
        },
        {
          "internalType": "uint32",
          "name": "exclusivityParameter",
          "type": "uint32"
        },
        {
          "internalType": "bytes",
          "name": "message",
          "type": "bytes"
        }
      ],
      "name": "depositNow",
      "outputs": [],
      "stateMutability": "payable",
      "type": "function"
    },
    {
      "inputs": [],
      "name": "depositQuoteTimeBuffer",
      "outputs": [
        {
          "internalType": "uint32",
          "name": "",
          "type": "uint32"
        }
      ],
      "stateMutability": "view",
      "type": "function"
    },
    {
      "inputs": [
        {
          "internalType": "address",
          "name": "depositor",
          "type": "address"
        },
        {
          "internalType": "address",
          "name": "recipient",
          "type": "address"
        },
        {
          "internalType": "address",
          "name": "inputToken",
          "type": "address"
        },
        {
          "internalType": "address",
          "name": "outputToken",
          "type": "address"
        },
        {
          "internalType": "uint256",
          "name": "inputAmount",
          "type": "uint256"
        },
        {
          "internalType": "uint256",
          "name": "outputAmount",
          "type": "uint256"
        },
        {
          "internalType": "uint256",
          "name": "destinationChainId",
          "type": "uint256"
        },
        {
          "internalType": "address",
          "name": "exclusiveRelayer",
          "type": "address"
        },
        {
          "internalType": "uint32",
          "name": "quoteTimestamp",
          "type": "uint32"
        },
        {
          "internalType": "uint32",
          "name": "fillDeadline",
          "type": "uint32"
        },
        {
          "internalType": "uint32",
          "name": "exclusivityParameter",
          "type": "uint32"
        },
        {
          "internalType": "bytes",
          "name": "message",
          "type": "bytes"
        }
      ],
      "name": "depositV3",
      "outputs": [],
      "stateMutability": "payable",
      "type": "function"
    },
    {
      "inputs": [
        {
          "internalType": "address",
          "name": "depositor",
          "type": "address"
        },
        {
          "internalType": "address",
          "name": "recipient",
          "type": "address"
        },
        {
          "internalType": "address",
          "name": "inputToken",
          "type": "address"
        },
        {
          "internalType": "address",
          "name": "outputToken",
          "type": "address"
        },
        {
          "internalType": "uint256",
          "name": "inputAmount",
          "type": "uint256"
        },
        {
          "internalType": "uint256",
          "name": "outputAmount",
          "type": "uint256"
        },
        {
          "internalType": "uint256",
          "name": "destinationChainId",
          "type": "uint256"
        },
        {
          "internalType": "address",
          "name": "exclusiveRelayer",
          "type": "address"
        },
        {
          "internalType": "uint32",
          "name": "fillDeadlineOffset",
          "type": "uint32"
        },
        {
          "internalType": "uint32",
          "name": "exclusivityParameter",
          "type": "uint32"
        },
        {
          "internalType": "bytes",
          "name": "message",
          "type": "bytes"
        }
      ],
      "name": "depositV3Now",
      "outputs": [],
      "stateMutability": "payable",
      "type": "function"
    },
    {
      "inputs": [
        {
          "internalType": "uint256",
          "name": "rootBundleId",
          "type": "uint256"
        }
      ],
      "name": "emergencyDeleteRootBundle",
      "outputs": [],
      "stateMutability": "nonpayable",
      "type": "function"
    },
    {
      "inputs": [
        {
          "internalType": "uint32",
          "name": "rootBundleId",
          "type": "uint32"
        },
        {
          "components": [
            {
              "internalType": "uint256",
              "name": "amountToReturn",
              "type": "uint256"
            },
            {
              "internalType": "uint256",
              "name": "chainId",
              "type": "uint256"
            },
            {
              "internalType": "uint256[]",
              "name": "refundAmounts",
              "type": "uint256[]"
            },
            {
              "internalType": "uint32",
              "name": "leafId",
              "type": "uint32"
            },
            {
              "internalType": "address",
              "name": "l2TokenAddress",
              "type": "address"
            },
            {
              "internalType": "address[]",
              "name": "refundAddresses",
              "type": "address[]"
            }
          ],
          "internalType": "struct SpokePoolInterface.RelayerRefundLeaf",
          "name": "relayerRefundLeaf",
          "type": "tuple"
        },
        {
          "internalType": "bytes32[]",
          "name": "proof",
          "type": "bytes32[]"
        }
      ],
      "name": "executeRelayerRefundLeaf",
      "outputs": [],
      "stateMutability": "payable",
      "type": "function"
    },
    {
      "inputs": [
        {
          "components": [
            {
              "components": [
                {
                  "internalType": "bytes32",
                  "name": "depositor",
                  "type": "bytes32"
                },
                {
                  "internalType": "bytes32",
                  "name": "recipient",
                  "type": "bytes32"
                },
                {
                  "internalType": "bytes32",
                  "name": "exclusiveRelayer",
                  "type": "bytes32"
                },
                {
                  "internalType": "bytes32",
                  "name": "inputToken",
                  "type": "bytes32"
                },
                {
                  "internalType": "bytes32",
                  "name": "outputToken",
                  "type": "bytes32"
                },
                {
                  "internalType": "uint256",
                  "name": "inputAmount",
                  "type": "uint256"
                },
                {
                  "internalType": "uint256",
                  "name": "outputAmount",
                  "type": "uint256"
                },
                {
                  "internalType": "uint256",
                  "name": "originChainId",
                  "type": "uint256"
                },
                {
                  "internalType": "uint256",
                  "name": "depositId",
                  "type": "uint256"
                },
                {
                  "internalType": "uint32",
                  "name": "fillDeadline",
                  "type": "uint32"
                },
                {
                  "internalType": "uint32",
                  "name": "exclusivityDeadline",
                  "type": "uint32"
                },
                {
                  "internalType": "bytes",
                  "name": "message",
                  "type": "bytes"
                }
              ],
              "internalType": "struct V3SpokePoolInterface.V3RelayData",
              "name": "relayData",
              "type": "tuple"
            },
            {
              "internalType": "uint256",
              "name": "chainId",
              "type": "uint256"
            },
            {
              "internalType": "uint256",
              "name": "updatedOutputAmount",
              "type": "uint256"
            }
          ],
          "internalType": "struct V3SpokePoolInterface.V3SlowFill",
          "name": "slowFillLeaf",
          "type": "tuple"
        },
        {
          "internalType": "uint32",
          "name": "rootBundleId",
          "type": "uint32"
        },
        {
          "internalType": "bytes32[]",
          "name": "proof",
          "type": "bytes32[]"
        }
      ],
      "name": "executeSlowRelayLeaf",
      "outputs": [],
      "stateMutability": "nonpayable",
      "type": "function"
    },
    {
      "inputs": [
        {
          "internalType": "bytes32",
          "name": "orderId",
          "type": "bytes32"
        },
        {
          "internalType": "bytes",
          "name": "originData",
          "type": "bytes"
        },
        {
          "internalType": "bytes",
          "name": "fillerData",
          "type": "bytes"
        }
      ],
      "name": "fill",
      "outputs": [],
      "stateMutability": "nonpayable",
      "type": "function"
    },
    {
      "inputs": [],
      "name": "fillDeadlineBuffer",
      "outputs": [
        {
          "internalType": "uint32",
          "name": "",
          "type": "uint32"
        }
      ],
      "stateMutability": "view",
      "type": "function"
    },
    {
      "inputs": [
        {
          "components": [
            {
              "internalType": "bytes32",
              "name": "depositor",
              "type": "bytes32"
            },
            {
              "internalType": "bytes32",
              "name": "recipient",
              "type": "bytes32"
            },
            {
              "internalType": "bytes32",
              "name": "exclusiveRelayer",
              "type": "bytes32"
            },
            {
              "internalType": "bytes32",
              "name": "inputToken",
              "type": "bytes32"
            },
            {
              "internalType": "bytes32",
              "name": "outputToken",
              "type": "bytes32"
            },
            {
              "internalType": "uint256",
              "name": "inputAmount",
              "type": "uint256"
            },
            {
              "internalType": "uint256",
              "name": "outputAmount",
              "type": "uint256"
            },
            {
              "internalType": "uint256",
              "name": "originChainId",
              "type": "uint256"
            },
            {
              "internalType": "uint256",
              "name": "depositId",
              "type": "uint256"
            },
            {
              "internalType": "uint32",
              "name": "fillDeadline",
              "type": "uint32"
            },
            {
              "internalType": "uint32",
              "name": "exclusivityDeadline",
              "type": "uint32"
            },
            {
              "internalType": "bytes",
              "name": "message",
              "type": "bytes"
            }
          ],
          "internalType": "struct V3SpokePoolInterface.V3RelayData",
          "name": "relayData",
          "type": "tuple"
        },
        {
          "internalType": "uint256",
          "name": "repaymentChainId",
          "type": "uint256"
        },
        {
          "internalType": "bytes32",
          "name": "repaymentAddress",
          "type": "bytes32"
        }
      ],
      "name": "fillRelay",
      "outputs": [],
      "stateMutability": "nonpayable",
      "type": "function"
    },
    {
      "inputs": [
        {
          "components": [
            {
              "internalType": "bytes32",
              "name": "depositor",
              "type": "bytes32"
            },
            {
              "internalType": "bytes32",
              "name": "recipient",
              "type": "bytes32"
            },
            {
              "internalType": "bytes32",
              "name": "exclusiveRelayer",
              "type": "bytes32"
            },
            {
              "internalType": "bytes32",
              "name": "inputToken",
              "type": "bytes32"
            },
            {
              "internalType": "bytes32",
              "name": "outputToken",
              "type": "bytes32"
            },
            {
              "internalType": "uint256",
              "name": "inputAmount",
              "type": "uint256"
            },
            {
              "internalType": "uint256",
              "name": "outputAmount",
              "type": "uint256"
            },
            {
              "internalType": "uint256",
              "name": "originChainId",
              "type": "uint256"
            },
            {
              "internalType": "uint256",
              "name": "depositId",
              "type": "uint256"
            },
            {
              "internalType": "uint32",
              "name": "fillDeadline",
              "type": "uint32"
            },
            {
              "internalType": "uint32",
              "name": "exclusivityDeadline",
              "type": "uint32"
            },
            {
              "internalType": "bytes",
              "name": "message",
              "type": "bytes"
            }
          ],
          "internalType": "struct V3SpokePoolInterface.V3RelayData",
          "name": "relayData",
          "type": "tuple"
        },
        {
          "internalType": "uint256",
          "name": "repaymentChainId",
          "type": "uint256"
        },
        {
          "internalType": "bytes32",
          "name": "repaymentAddress",
          "type": "bytes32"
        },
        {
          "internalType": "uint256",
          "name": "updatedOutputAmount",
          "type": "uint256"
        },
        {
          "internalType": "bytes32",
          "name": "updatedRecipient",
          "type": "bytes32"
        },
        {
          "internalType": "bytes",
          "name": "updatedMessage",
          "type": "bytes"
        },
        {
          "internalType": "bytes",
          "name": "depositorSignature",
          "type": "bytes"
        }
      ],
      "name": "fillRelayWithUpdatedDeposit",
      "outputs": [],
      "stateMutability": "nonpayable",
      "type": "function"
    },
    {
      "inputs": [
        {
          "internalType": "bytes32",
          "name": "",
          "type": "bytes32"
        }
      ],
      "name": "fillStatuses",
      "outputs": [
        {
          "internalType": "uint256",
          "name": "",
          "type": "uint256"
        }
      ],
      "stateMutability": "view",
      "type": "function"
    },
    {
      "inputs": [
        {
          "components": [
            {
              "internalType": "address",
              "name": "depositor",
              "type": "address"
            },
            {
              "internalType": "address",
              "name": "recipient",
              "type": "address"
            },
            {
              "internalType": "address",
              "name": "exclusiveRelayer",
              "type": "address"
            },
            {
              "internalType": "address",
              "name": "inputToken",
              "type": "address"
            },
            {
              "internalType": "address",
              "name": "outputToken",
              "type": "address"
            },
            {
              "internalType": "uint256",
              "name": "inputAmount",
              "type": "uint256"
            },
            {
              "internalType": "uint256",
              "name": "outputAmount",
              "type": "uint256"
            },
            {
              "internalType": "uint256",
              "name": "originChainId",
              "type": "uint256"
            },
            {
              "internalType": "uint32",
              "name": "depositId",
              "type": "uint32"
            },
            {
              "internalType": "uint32",
              "name": "fillDeadline",
              "type": "uint32"
            },
            {
              "internalType": "uint32",
              "name": "exclusivityDeadline",
              "type": "uint32"
            },
            {
              "internalType": "bytes",
              "name": "message",
              "type": "bytes"
            }
          ],
          "internalType": "struct V3SpokePoolInterface.V3RelayDataLegacy",
          "name": "relayData",
          "type": "tuple"
        },
        {
          "internalType": "uint256",
          "name": "repaymentChainId",
          "type": "uint256"
        }
      ],
      "name": "fillV3Relay",
      "outputs": [],
      "stateMutability": "nonpayable",
      "type": "function"
    },
    {
      "inputs": [],
      "name": "getCurrentTime",
      "outputs": [
        {
          "internalType": "uint256",
          "name": "",
          "type": "uint256"
        }
      ],
      "stateMutability": "view",
      "type": "function"
    },
    {
      "inputs": [
        {
          "internalType": "address",
          "name": "l2TokenAddress",
          "type": "address"
        },
        {
          "internalType": "address",
          "name": "refundAddress",
          "type": "address"
        }
      ],
      "name": "getRelayerRefund",
      "outputs": [
        {
          "internalType": "uint256",
          "name": "",
          "type": "uint256"
        }
      ],
      "stateMutability": "view",
      "type": "function"
    },
    {
      "inputs": [
        {
          "internalType": "address",
          "name": "msgSender",
          "type": "address"
        },
        {
          "internalType": "bytes32",
          "name": "depositor",
          "type": "bytes32"
        },
        {
          "internalType": "uint256",
          "name": "depositNonce",
          "type": "uint256"
        }
      ],
      "name": "getUnsafeDepositId",
      "outputs": [
        {
          "internalType": "uint256",
          "name": "",
          "type": "uint256"
        }
      ],
      "stateMutability": "pure",
      "type": "function"
    },
    {
      "inputs": [
        {
          "components": [
            {
              "internalType": "bytes32",
              "name": "depositor",
              "type": "bytes32"
            },
            {
              "internalType": "bytes32",
              "name": "recipient",
              "type": "bytes32"
            },
            {
              "internalType": "bytes32",
              "name": "exclusiveRelayer",
              "type": "bytes32"
            },
            {
              "internalType": "bytes32",
              "name": "inputToken",
              "type": "bytes32"
            },
            {
              "internalType": "bytes32",
              "name": "outputToken",
              "type": "bytes32"
            },
            {
              "internalType": "uint256",
              "name": "inputAmount",
              "type": "uint256"
            },
            {
              "internalType": "uint256",
              "name": "outputAmount",
              "type": "uint256"
            },
            {
              "internalType": "uint256",
              "name": "originChainId",
              "type": "uint256"
            },
            {
              "internalType": "uint256",
              "name": "depositId",
              "type": "uint256"
            },
            {
              "internalType": "uint32",
              "name": "fillDeadline",
              "type": "uint32"
            },
            {
              "internalType": "uint32",
              "name": "exclusivityDeadline",
              "type": "uint32"
            },
            {
              "internalType": "bytes",
              "name": "message",
              "type": "bytes"
            }
          ],
          "internalType": "struct V3SpokePoolInterface.V3RelayData",
          "name": "relayData",
          "type": "tuple"
        }
      ],
      "name": "getV3RelayHash",
      "outputs": [
        {
          "internalType": "bytes32",
          "name": "",
          "type": "bytes32"
        }
      ],
      "stateMutability": "view",
      "type": "function"
    },
    {
      "inputs": [
        {
          "internalType": "uint32",
          "name": "_initialDepositId",
          "type": "uint32"
        },
        {
          "internalType": "address",
          "name": "_crossDomainAdmin",
          "type": "address"
        },
        {
          "internalType": "address",
          "name": "_withdrawalRecipient",
          "type": "address"
        }
      ],
      "name": "initialize",
      "outputs": [],
      "stateMutability": "nonpayable",
      "type": "function"
    },
    {
      "inputs": [],
      "name": "l1Gas",
      "outputs": [
        {
          "internalType": "uint32",
          "name": "",
          "type": "uint32"
        }
      ],
      "stateMutability": "view",
      "type": "function"
    },
    {
      "inputs": [],
      "name": "l2Eth",
      "outputs": [
        {
          "internalType": "address",
          "name": "",
          "type": "address"
        }
      ],
      "stateMutability": "view",
      "type": "function"
    },
    {
      "inputs": [
        {
          "internalType": "bytes[]",
          "name": "data",
          "type": "bytes[]"
        }
      ],
      "name": "multicall",
      "outputs": [
        {
          "internalType": "bytes[]",
          "name": "results",
          "type": "bytes[]"
        }
      ],
      "stateMutability": "nonpayable",
      "type": "function"
    },
    {
      "inputs": [],
      "name": "numberOfDeposits",
      "outputs": [
        {
          "internalType": "uint32",
          "name": "",
          "type": "uint32"
        }
      ],
      "stateMutability": "view",
      "type": "function"
    },
    {
      "inputs": [
        {
          "internalType": "bool",
          "name": "pause",
          "type": "bool"
        }
      ],
      "name": "pauseDeposits",
      "outputs": [],
      "stateMutability": "nonpayable",
      "type": "function"
    },
    {
      "inputs": [
        {
          "internalType": "bool",
          "name": "pause",
          "type": "bool"
        }
      ],
      "name": "pauseFills",
      "outputs": [],
      "stateMutability": "nonpayable",
      "type": "function"
    },
    {
      "inputs": [],
      "name": "pausedDeposits",
      "outputs": [
        {
          "internalType": "bool",
          "name": "",
          "type": "bool"
        }
      ],
      "stateMutability": "view",
      "type": "function"
    },
    {
      "inputs": [],
      "name": "pausedFills",
      "outputs": [
        {
          "internalType": "bool",
          "name": "",
          "type": "bool"
        }
      ],
      "stateMutability": "view",
      "type": "function"
    },
    {
      "inputs": [],
      "name": "proxiableUUID",
      "outputs": [
        {
          "internalType": "bytes32",
          "name": "",
          "type": "bytes32"
        }
      ],
      "stateMutability": "view",
      "type": "function"
    },
    {
      "inputs": [],
      "name": "recipientCircleDomainId",
      "outputs": [
        {
          "internalType": "uint32",
          "name": "",
          "type": "uint32"
        }
      ],
      "stateMutability": "view",
      "type": "function"
    },
    {
      "inputs": [
        {
          "internalType": "bytes32",
          "name": "relayerRefundRoot",
          "type": "bytes32"
        },
        {
          "internalType": "bytes32",
          "name": "slowRelayRoot",
          "type": "bytes32"
        }
      ],
      "name": "relayRootBundle",
      "outputs": [],
      "stateMutability": "nonpayable",
      "type": "function"
    },
    {
      "inputs": [
        {
          "internalType": "address",
          "name": "",
          "type": "address"
        },
        {
          "internalType": "address",
          "name": "",
          "type": "address"
        }
      ],
      "name": "relayerRefund",
      "outputs": [
        {
          "internalType": "uint256",
          "name": "",
          "type": "uint256"
        }
      ],
      "stateMutability": "view",
      "type": "function"
    },
    {
      "inputs": [
        {
          "internalType": "address",
          "name": "",
          "type": "address"
        }
      ],
      "name": "remoteL1Tokens",
      "outputs": [
        {
          "internalType": "address",
          "name": "",
          "type": "address"
        }
      ],
      "stateMutability": "view",
      "type": "function"
    },
    {
      "inputs": [
        {
          "components": [
            {
              "internalType": "bytes32",
              "name": "depositor",
              "type": "bytes32"
            },
            {
              "internalType": "bytes32",
              "name": "recipient",
              "type": "bytes32"
            },
            {
              "internalType": "bytes32",
              "name": "exclusiveRelayer",
              "type": "bytes32"
            },
            {
              "internalType": "bytes32",
              "name": "inputToken",
              "type": "bytes32"
            },
            {
              "internalType": "bytes32",
              "name": "outputToken",
              "type": "bytes32"
            },
            {
              "internalType": "uint256",
              "name": "inputAmount",
              "type": "uint256"
            },
            {
              "internalType": "uint256",
              "name": "outputAmount",
              "type": "uint256"
            },
            {
              "internalType": "uint256",
              "name": "originChainId",
              "type": "uint256"
            },
            {
              "internalType": "uint256",
              "name": "depositId",
              "type": "uint256"
            },
            {
              "internalType": "uint32",
              "name": "fillDeadline",
              "type": "uint32"
            },
            {
              "internalType": "uint32",
              "name": "exclusivityDeadline",
              "type": "uint32"
            },
            {
              "internalType": "bytes",
              "name": "message",
              "type": "bytes"
            }
          ],
          "internalType": "struct V3SpokePoolInterface.V3RelayData",
          "name": "relayData",
          "type": "tuple"
        }
      ],
      "name": "requestSlowFill",
      "outputs": [],
      "stateMutability": "nonpayable",
      "type": "function"
    },
    {
      "inputs": [
        {
          "internalType": "uint256",
          "name": "",
          "type": "uint256"
        }
      ],
      "name": "rootBundles",
      "outputs": [
        {
          "internalType": "bytes32",
          "name": "slowRelayRoot",
          "type": "bytes32"
        },
        {
          "internalType": "bytes32",
          "name": "relayerRefundRoot",
          "type": "bytes32"
        }
      ],
      "stateMutability": "view",
      "type": "function"
    },
    {
      "inputs": [
        {
          "internalType": "address",
          "name": "newCrossDomainAdmin",
          "type": "address"
        }
      ],
      "name": "setCrossDomainAdmin",
      "outputs": [],
      "stateMutability": "nonpayable",
      "type": "function"
    },
    {
      "inputs": [
        {
          "internalType": "uint32",
          "name": "newl1Gas",
          "type": "uint32"
        }
      ],
      "name": "setL1GasLimit",
      "outputs": [],
      "stateMutability": "nonpayable",
      "type": "function"
    },
    {
      "inputs": [
        {
          "internalType": "address",
          "name": "l2Token",
          "type": "address"
        },
        {
          "internalType": "address",
          "name": "l1Token",
          "type": "address"
        }
      ],
      "name": "setRemoteL1Token",
      "outputs": [],
      "stateMutability": "nonpayable",
      "type": "function"
    },
    {
      "inputs": [
        {
          "internalType": "address",
          "name": "l2Token",
          "type": "address"
        },
        {
          "internalType": "address",
          "name": "tokenBridge",
          "type": "address"
        }
      ],
      "name": "setTokenBridge",
      "outputs": [],
      "stateMutability": "nonpayable",
      "type": "function"
    },
    {
      "inputs": [
        {
          "internalType": "address",
          "name": "newWithdrawalRecipient",
          "type": "address"
        }
      ],
      "name": "setWithdrawalRecipient",
      "outputs": [],
      "stateMutability": "nonpayable",
      "type": "function"
    },
    {
      "inputs": [
        {
          "internalType": "bytes32",
          "name": "depositor",
          "type": "bytes32"
        },
        {
          "internalType": "uint256",
          "name": "depositId",
          "type": "uint256"
        },
        {
          "internalType": "uint256",
          "name": "updatedOutputAmount",
          "type": "uint256"
        },
        {
          "internalType": "bytes32",
          "name": "updatedRecipient",
          "type": "bytes32"
        },
        {
          "internalType": "bytes",
          "name": "updatedMessage",
          "type": "bytes"
        },
        {
          "internalType": "bytes",
          "name": "depositorSignature",
          "type": "bytes"
        }
      ],
      "name": "speedUpDeposit",
      "outputs": [],
      "stateMutability": "nonpayable",
      "type": "function"
    },
    {
      "inputs": [
        {
          "internalType": "address",
          "name": "depositor",
          "type": "address"
        },
        {
          "internalType": "uint256",
          "name": "depositId",
          "type": "uint256"
        },
        {
          "internalType": "uint256",
          "name": "updatedOutputAmount",
          "type": "uint256"
        },
        {
          "internalType": "address",
          "name": "updatedRecipient",
          "type": "address"
        },
        {
          "internalType": "bytes",
          "name": "updatedMessage",
          "type": "bytes"
        },
        {
          "internalType": "bytes",
          "name": "depositorSignature",
          "type": "bytes"
        }
      ],
      "name": "speedUpV3Deposit",
      "outputs": [],
      "stateMutability": "nonpayable",
      "type": "function"
    },
    {
      "inputs": [
        {
          "internalType": "address",
          "name": "",
          "type": "address"
        }
      ],
      "name": "tokenBridges",
      "outputs": [
        {
          "internalType": "address",
          "name": "",
          "type": "address"
        }
      ],
      "stateMutability": "view",
      "type": "function"
    },
    {
      "inputs": [
        {
          "internalType": "bytes[]",
          "name": "data",
          "type": "bytes[]"
        }
      ],
      "name": "tryMulticall",
      "outputs": [
        {
          "components": [
            {
              "internalType": "bool",
              "name": "success",
              "type": "bool"
            },
            {
              "internalType": "bytes",
              "name": "returnData",
              "type": "bytes"
            }
          ],
          "internalType": "struct MultiCallerUpgradeable.Result[]",
          "name": "results",
          "type": "tuple[]"
        }
      ],
      "stateMutability": "nonpayable",
      "type": "function"
    },
    {
      "inputs": [
        {
          "internalType": "bytes32",
          "name": "depositor",
          "type": "bytes32"
        },
        {
          "internalType": "bytes32",
          "name": "recipient",
          "type": "bytes32"
        },
        {
          "internalType": "bytes32",
          "name": "inputToken",
          "type": "bytes32"
        },
        {
          "internalType": "bytes32",
          "name": "outputToken",
          "type": "bytes32"
        },
        {
          "internalType": "uint256",
          "name": "inputAmount",
          "type": "uint256"
        },
        {
          "internalType": "uint256",
          "name": "outputAmount",
          "type": "uint256"
        },
        {
          "internalType": "uint256",
          "name": "destinationChainId",
          "type": "uint256"
        },
        {
          "internalType": "bytes32",
          "name": "exclusiveRelayer",
          "type": "bytes32"
        },
        {
          "internalType": "uint256",
          "name": "depositNonce",
          "type": "uint256"
        },
        {
          "internalType": "uint32",
          "name": "quoteTimestamp",
          "type": "uint32"
        },
        {
          "internalType": "uint32",
          "name": "fillDeadline",
          "type": "uint32"
        },
        {
          "internalType": "uint32",
          "name": "exclusivityParameter",
          "type": "uint32"
        },
        {
          "internalType": "bytes",
          "name": "message",
          "type": "bytes"
        }
      ],
      "name": "unsafeDeposit",
      "outputs": [],
      "stateMutability": "payable",
      "type": "function"
    },
    {
      "inputs": [
        {
          "internalType": "address",
          "name": "newImplementation",
          "type": "address"
        }
      ],
      "name": "upgradeTo",
      "outputs": [],
      "stateMutability": "nonpayable",
      "type": "function"
    },
    {
      "inputs": [
        {
          "internalType": "address",
          "name": "newImplementation",
          "type": "address"
        },
        {
          "internalType": "bytes",
          "name": "data",
          "type": "bytes"
        }
      ],
      "name": "upgradeToAndCall",
      "outputs": [],
      "stateMutability": "payable",
      "type": "function"
    },
    {
      "inputs": [],
      "name": "usdcToken",
      "outputs": [
        {
          "internalType": "contract IERC20",
          "name": "",
          "type": "address"
        }
      ],
      "stateMutability": "view",
      "type": "function"
    },
    {
      "inputs": [],
      "name": "withdrawalRecipient",
      "outputs": [
        {
          "internalType": "address",
          "name": "",
          "type": "address"
        }
      ],
      "stateMutability": "view",
      "type": "function"
    },
    {
      "inputs": [],
      "name": "wrappedNativeToken",
      "outputs": [
        {
          "internalType": "contract WETH9Interface",
          "name": "",
          "type": "address"
        }
      ],
      "stateMutability": "view",
      "type": "function"
    },
    {
      "stateMutability": "payable",
      "type": "receive"
    }
  ],
  "numDeployments": 1,
  "solcInputHash": "8c989c2d35789efd39fd362b90f3ef7a",
  "bytecode": "0x61018060409080825234620002b85760a081620057338038038091620000268285620002bc565b833981010312620002b85780516001600160a01b038082169391849003620002b85760209162000058838501620002e0565b9162000066828601620002e0565b6060860151958287168703620002b857608001519382851697888603620002b8573060805260a05260c05260e0525f5460ff8160081c16620002b85760ff808216036200027f575b506101209485526101409283525f610100908152825163011a412160e61b8682019081526004825291976001600160401b039282860191908483118484101762000261575f938493885251915afa943d1562000275573d918211620002615783519162000125601f8201601f1916830184620002bc565b82523d5f8284013e5b8562000255575b8562000220575b50505061016092835251926154409485620002f38639608051858181610f85015281816114a101526115cd015260a051858181610860015281816136d80152818161383701528181613e58015281816140ea015281816143b90152818161482401528181614bd00152614c4b015260c0518581816117d50152818161368c0152614572015260e05185818161044e015261436201525184818161197e0152818161516d015261521801525183818161080301528181614b70015261504e015251828181611e7e015281816149420152615071015251818181611a7c015261510d0152f35b90919294508082519201519181811062000244575b5050161515915f80806200013c565b5f19910360031b1b165f8062000235565b81518114955062000135565b634e487b7160e01b5f52604160045260245ffd5b606091506200012e565b60ff90811916175f557f7f26b83ff96e1f2b6a682f133852f6798a09c465da95921460cefb384740249884835160ff8152a15f620000ae565b5f80fd5b601f909101601f19168101906001600160401b038211908210176200026157604052565b519063ffffffff82168203620002b85756fe6080604052600436101561001a575b3615610018575f80fd5b005b5f3560e01c8063079bd2c71461041f5780630c5d5f731461041a5780630eaac9f0146104155780631186ec331461041057806311eac8551461040b57806315348e44146103a257806317fcb39b146104065780631b3d5559146104015780631fab657c146103fc57806329cb924d146103f75780632e378115146103f25780632e63e59a146103ed5780633659cfe6146103e8578063431023b8146103e3578063437b9116146103de578063490e49ef146103d9578063493a4f84146103d45780634f1ef286146103cf5780635285e058146103ca57806352d1902d146103c5578063541f4f14146103c0578063577f51f8146103bb57806357f6dcb8146103b65780636068d6cb146103b1578063647c576c146103ac578063670fa8ac146103a75780636bbbcd2e146103a25780636e4009831461039d578063738b62e514610398578063766e070314610393578063775c0d031461038e5780637aef642c146103895780637b939232146103845780637ef413e11461037f57806382e2c43f1461037a5780638a7860ce146103755780638b15788e14610370578063927ede2d1461036b5780639748cf7c1461036657806397943aa914610361578063979f2bc21461035c57806399cc2968146103575780639a8a059214610352578063a1244c671461034d578063a18a096e14610348578063ac9650d814610343578063ad5425c61461033e578063adb5a6a6146102f3578063b27a430014610339578063b370b7f514610334578063babb6aac1461032f578063bf10268d1461032a578063c35c83fc14610325578063ceb4c98714610320578063d7e1583a1461031b578063dda5211314610316578063ddd224f114610311578063de7eba781461030c578063deff4b2414610307578063e322921114610302578063ea86bd46146102fd578063ee2a53f8146102f8578063f79f29ed146102f3578063fbbba9ac146102ee5763fc8a584f0361000e57612af3565b612a6f565b61242e565b612a31565b61292e565b612905565b612810565b6127e0565b6127b7565b612791565b61275b565b612661565b612636565b6125b2565b6124db565b6124b4565b612475565b6122cd565b61222d565b6120c6565b61209f565b612085565b611ff0565b611f22565b611ea2565b611e5f565b611e31565b611db3565b611d3b565b611c20565b611be9565b611b41565b611aa1565b611a65565b611a41565b6119ac565b611962565b610827565b611928565b611851565b6117f9565b6117b9565b6116e0565b61161d565b6115b3565b61158c565b61145e565b6113d7565b6113b9565b6112ec565b61108f565b610f5d565b610d63565b610c03565b610bda565b610ad8565b6109cf565b610841565b6107e4565b610743565b6104f6565b610490565b610432565b5f91031261042e57565b5f80fd5b3461042e575f36600319011261042e57602060405163ffffffff7f0000000000000000000000000000000000000000000000000000000000000000168152f35b6001600160a01b0381160361042e57565b359061048e82610472565b565b3461042e57602036600319011261042e5760206004356104af81610472565b6001600160a01b038091165f52610c5d825260405f205416604051908152f35b63ffffffff81160361042e57565b610144359061048e826104cf565b359061048e826104cf565b3461042e57602036600319011261042e5763ffffffff600435610518816104cf565b610520613501565b6105286135c3565b16610c5a8163ffffffff198254161790557fe486a5c4bd7b36eabbfe274c99b39130277417be8d2209b4dae04c4fba64ee3a5f80a26001606555005b634e487b7160e01b5f52604160045260245ffd5b6040810190811067ffffffffffffffff82111761059457604052565b610564565b6101a0810190811067ffffffffffffffff82111761059457604052565b67ffffffffffffffff811161059457604052565b6060810190811067ffffffffffffffff82111761059457604052565b6080810190811067ffffffffffffffff82111761059457604052565b6020810190811067ffffffffffffffff82111761059457604052565b60e0810190811067ffffffffffffffff82111761059457604052565b60a0810190811067ffffffffffffffff82111761059457604052565b90601f8019910116810190811067ffffffffffffffff82111761059457604052565b6040519060c0820182811067ffffffffffffffff82111761059457604052565b60405190610180820182811067ffffffffffffffff82111761059457604052565b6040519061048e82610599565b6040519061048e826105e6565b67ffffffffffffffff811161059457601f01601f191660200190565b9291926106fb826106d3565b916107096040519384610656565b82948184528183011161042e578281602093845f960137010152565b9080601f8301121561042e57816020610740933591016106ef565b90565b61010036600319011261042e5760043561075c81610472565b60243561076881610472565b6084358060070b810361042e5760a43590610782826104cf565b60c43567ffffffffffffffff811161042e576107a2903690600401610725565b926107ab6135c3565b60ff61086b5460e81c166107d2576107cb9460643591604435913361363e565b6001606555005b604051630b4cba3160e31b8152600490fd5b3461042e575f36600319011261042e5760206040516001600160a01b037f0000000000000000000000000000000000000000000000000000000000000000168152f35b3461042e575f36600319011261042e5760206040515f8152f35b3461042e575f36600319011261042e5760206040516001600160a01b037f0000000000000000000000000000000000000000000000000000000000000000168152f35b67ffffffffffffffff81116105945760051b60200190565b9080601f8301121561042e5760209082356108b681610884565b936108c46040519586610656565b81855260208086019260051b82010192831161042e57602001905b8282106108ed575050505090565b813581529083019083016108df565b9080601f8301121561042e57602090823561091681610884565b936109246040519586610656565b81855260208086019260051b82010192831161042e57602001905b82821061094d575050505090565b838091833561095b81610472565b81520191019061093f565b929161097182610884565b9161097f6040519384610656565b829481845260208094019160051b810192831161042e57905b8282106109a55750505050565b81358152908301908301610998565b9080601f8301121561042e5781602061074093359101610966565b60031960603682011261042e576004356109e8816104cf565b60243567ffffffffffffffff9283821161042e5760c090823603011261042e57610a10610678565b908060040135825260248101356020830152604481013584811161042e57610a3e906004369184010161089c565b6040830152610a4f606482016104eb565b6060830152610a6060848201610483565b608083015260a48101359084821161042e576004610a8192369201016108fc565b60a082015260443592831161042e57610aa16100189336906004016109b4565b91612b23565b9181601f8401121561042e5782359167ffffffffffffffff831161042e576020808501948460051b01011161042e57565b3461042e5760031960603682011261042e5760043567ffffffffffffffff80821161042e5760608236039384011261042e5760243590610b17826104cf565b60443590811161042e57610b2f903690600401610aa7565b919093610b3a6135c3565b600484013590610182190181121561042e57610bd094610bcb93610b67610bc4936004369189010161267f565b95610b7d610b786080890151613b84565b61382d565b610b8687613434565b9060446020890151916101608a015193610b9e610678565b9a8b5260208b015201356040890152606088015260808701525f60a08701523691610966565b9083613b9a565b613ceb565b6100186001606555565b3461042e575f36600319011261042e576020604051428152f35b908161018091031261042e5790565b3461042e57604036600319011261042e5760043567ffffffffffffffff811161042e57610c34903690600401610bf4565b610c3d81612d1b565b6001600160a01b031690610c5360208201612d1b565b6001600160a01b031691610c6960408301612d1b565b6001600160a01b0316610c7e60608401612d1b565b6001600160a01b031692610c9460808201612d1b565b6001600160a01b031690610100610cac818301612d25565b9061012090610cbc848301612d25565b9261014094858101610ccd90612d25565b966101609a8b8301610cdf9084612d2f565b9a909b610cea610698565b9e8f91825260208201526040015260608d015260808c015260a081013560a08c015260c081013560c08c015260e0013560e08b015263ffffffff1690890152870190610d3b919063ffffffff169052565b63ffffffff909116908501523690610d52926106ef565b908201523360243561001892613465565b3461042e57602036600319011261042e576004803567ffffffffffffffff811161042e57610d949036908301610bf4565b610d9c6135c3565b60ff61086b5460e01c16610f4d5763ffffffff80421692610140830193610dd581610dc687612d25565b63ffffffff9182169116101590565b610f3d57610120840192610de884612d25565b1610610f2e57610e00610dfb368561267f565b613434565b90610e14825f5261087260205260405f2090565b54610f205750610e637f3cee3e290f36226751cd0b3321b213890fe9c768e922f267fa6111836ce05c3292610e5e610e58610e69945f5261087260205260405f2090565b60019055565b612d25565b93612d25565b610e89610e84610e7d610160860186612d2f565b36916106ef565b6141c0565b90610f136040519283926101008701359760e08801359760208101359281359260408301359260c08101359060a081013590606060808201359101358b9693909a999895919261012098959361014089019c895260208901526040880152606087015263ffffffff80921660808701521660a085015260c084015260e08301526101008201520152565b0390a36100186001606555565b604051624be79160e21b8152fd5b60405163d642b7d960e01b8152fd5b50604051630277ae7b60e21b8152fd5b50604051633d90fc5560e11b8152fd5b3461042e57602036600319011261042e57600435610f7a81610472565b6001600160a01b03807f00000000000000000000000000000000000000000000000000000000000000001680301461042e577f360894a13ba1a3210667c828492db98dca3e2076cc3735a920a3ca505d382bbc90828254160361042e57610fdf613501565b60405191610fec83610602565b5f83527f4910fdfa16fed3260ed0e7147f7cc6da11a60208b5b9406d12a635614ffd91435460ff16156110255750505061001890614deb565b6020600491604051928380926352d1902d60e01b825288165afa5f918161105e575b50611050575f80fd5b0361042e5761001891614cd2565b61108191925060203d602011611088575b6110798183610656565b810190613987565b905f611047565b503d61106f565b3461042e57608036600319011261042e576004356110ac816104cf565b602435906110b982610472565b6044356110c581610472565b606435916110d283610472565b60ff5f5460081c161561042e5761111990610c5a624c4b4063ffffffff1982541617905561086b9063ffffffff60c01b1963ffffffff60c01b83549260c01b169116179055565b6040519061112682610578565b6009825260208201916820a1a927a9a996ab1960b91b8352640312e302e360dc1b602060405161115581610578565b60058152015260ff5f5460081c161561042e57610018946111ba936111b59251902061047f557f06c015bd22b4c69690933c1058878ebdfef31f9aaae40bbe86d8a09fe1b2972c610480556111a8614599565b6111b06145a8565b6145bc565b614616565b610c5a9077ffffffffffffffffffffffffffffffffffffffff000000001977ffffffffffffffffffffffffffffffffffffffff0000000083549260201b169116179055565b602060031982011261042e576004359067ffffffffffffffff821161042e5761122a91600401610aa7565b9091565b5f5b83811061123f5750505f910152565b8181015183820152602001611230565b906020916112688151809281855285808601910161122e565b601f01601f1916010190565b6020808201908083528351809252604092604081018260408560051b8401019601945f925b8584106112aa575050505050505090565b9091929394959685806112db600193603f1986820301885286838d518051151584520151918185820152019061124f565b990194019401929594939190611299565b3461042e576112fa366111ff565b61130381610884565b9160406113136040519485610656565b828452601f1961132284610884565b015f5b8181106113965750505f5b83811061134957604051806113458782611274565b0390f35b8061139061135960019388612d85565b515f80611367858a8a612d99565b90611376895180938193612db0565b0390305af490611384612dbd565b60208201529015159052565b01611330565b60209083516113a481610578565b5f815282606081830152828901015201611325565b3461042e575f36600319011261042e5760206040516301e133808152f35b3461042e57604036600319011261042e576024356004356113f6613501565b6113fe6135c3565b61086c8054680100000000000000008110156105945763ffffffff916001820190558361142a826129f2565b5084600182015555167fc86ba04c55bc5eb2f2876b91c438849a296dbec7b08751c3074d92e04f0a77af5f80a46001606555005b604036600319011261042e5760043561147681610472565b60243567ffffffffffffffff811161042e57611496903690600401610725565b6001600160a01b03807f0000000000000000000000000000000000000000000000000000000000000000169081301461042e577f360894a13ba1a3210667c828492db98dca3e2076cc3735a920a3ca505d382bbc91818354160361042e576114fc613501565b7f4910fdfa16fed3260ed0e7147f7cc6da11a60208b5b9406d12a635614ffd91435460ff16156115325750505061001890614deb565b6020600491604051928380926352d1902d60e01b825288165afa5f918161156b575b5061155d575f80fd5b0361042e5761001891614d9a565b61158591925060203d602011611088576110798183610656565b905f611554565b3461042e575f36600319011261042e5760206001600160a01b036108695416604051908152f35b3461042e575f36600319011261042e576001600160a01b037f000000000000000000000000000000000000000000000000000000000000000016300361042e5760206040517f360894a13ba1a3210667c828492db98dca3e2076cc3735a920a3ca505d382bbc8152f35b61012036600319011261042e5760043561163681610472565b6024359061164382610472565b6044359161165083610472565b60a4358060070b810361042e5760c4359161166a836104cf565b60e43567ffffffffffffffff811161042e5761168a903690600401610725565b936116936135c3565b60ff61086b5460e81c166107d2576107cb95608435926064359261363e565b9181601f8401121561042e5782359167ffffffffffffffff831161042e576020838186019501011161042e57565b3461042e5760c036600319011261042e576004356116fd81610472565b6024356044359160643561171081610472565b67ffffffffffffffff9160843583811161042e576117329036906004016116b2565b60a49491943591821161042e577f45e04bc8f121ba11466985789ca2822a91109f31bb8ac85504a37b7eaf873c26946117726117b49336906004016116b2565b9290916001600160a01b038097166117a68a8c836117913688886106ef565b9161179d368b8b6106ef565b9346908d6141d5565b604051978897169a87612e0c565b0390a3005b3461042e575f36600319011261042e57602060405163ffffffff7f0000000000000000000000000000000000000000000000000000000000000000168152f35b3461042e575f36600319011261042e57602060ff61086b5460e81c166040519015158152f35b606090600319011261042e57600435611837816104cf565b9060243561184481610472565b9060443561074081610472565b3461042e5761185f3661181f565b5f54600881901c60ff161593929084908161191a575b81156118fa575b501561042e576118a09284611897600160ff195f5416175f55565b6118e357612e3f565b6118a657005b6118b461ff00195f54165f55565b604051600181527f7f26b83ff96e1f2b6a682f133852f6798a09c465da95921460cefb384740249890602090a1005b6118f561010061ff00195f5416175f55565b612e3f565b303b1591508161190c575b505f61187c565b6001915060ff16145f611905565b600160ff8216109150611875565b3461042e575f36600319011261042e5760206040517f8d1994e2bbbd77564cdca06dd819e7ee2a5efa06c80dcb59a4a7b6e39edc538f8152f35b3461042e575f36600319011261042e57602060405163ffffffff7f0000000000000000000000000000000000000000000000000000000000000000168152f35b8015150361042e57565b3461042e57602036600319011261042e577fe88463c2f254e2b070013a2dc7ee1e099f9bc00534cbdf03af551dc26ae4921960206004356119ec816119a2565b6119f4613501565b6119fc6135c3565b151561086b80547fffff00ffffffffffffffffffffffffffffffffffffffffffffffffffffffffff60ff60e81b8460e81b169116179055604051908152a16001606555005b3461042e575f36600319011261042e57602063ffffffff610c5a5416604051908152f35b3461042e575f36600319011261042e5760206040517f000000000000000000000000000000000000000000000000000000000000000015158152f35b61016036600319011261042e57600435611aba81610472565b60243590611ac782610472565b604435611ad381610472565b60643590611ae082610472565b60e435611aec81610472565b6101043590611afa826104cf565b6101243592611b08846104cf565b610144359667ffffffffffffffff881161042e57611b2d6100189836906004016116b2565b97909660c4359360a4359360843593612f85565b61018036600319011261042e57600435611b5a81610472565b60243590611b6782610472565b604435611b7381610472565b60643590611b8082610472565b60e435611b8c81610472565b61010435611b99816104cf565b6101243591611ba7836104cf565b611baf6104dd565b93610164359767ffffffffffffffff891161042e57611bd56100189936906004016116b2565b98909760c4359360a4359360843593612fa7565b3461042e57606036600319011261042e576020611c18600435611c0b81610472565b60443590602435906130c2565b604051908152f35b3461042e57606036600319011261042e5767ffffffffffffffff60243581811161042e57611c529036906004016116b2565b9160443590811161042e57611c6b9036906004016116b2565b9060405193602085019480611c824684888a6130fe565b0395611c96601f1997888101845283610656565b6004359151902003611d29575f94611cc5611ce793611cbc87611cf3958a990190612735565b9581019061311b565b519360405193849160208301966337bfd2c960e21b88523391602485016131e3565b03908101835282610656565b5190305af4611d00612dbd565b9015611d0857005b60405163b8fe37a760e01b8152908190611d259060048301613205565b0390fd5b604051630f0c8f4760e11b8152600490fd5b3461042e57602036600319011261042e57600435611d57613501565b611d5f6135c3565b611d68816129f2565b611da0576001815f80935501557f7c1af0646963afc3343245b103731965735a893347bfa0d58a5dc77a77ae691c5f80a26001606555005b634e487b7160e01b5f525f60045260245ffd5b6101a036600319011261042e5761012435611dcd816104cf565b61014435611dda816104cf565b6101643591611de8836104cf565b610184359267ffffffffffffffff841161042e57611e0d6100189436906004016116b2565b9390926101043560e43560c43560a435608435606435604435602435600435613216565b3461042e575f36600319011261042e5760206040517342000000000000000000000000000000000000078152f35b3461042e575f36600319011261042e5760206040516001600160a01b037f0000000000000000000000000000000000000000000000000000000000000000168152f35b3461042e5760e036600319011261042e5767ffffffffffffffff60043581811161042e57611ed4903690600401610bf4565b60a43582811161042e57611eec9036906004016116b2565b60c49291923593841161042e57611f0a6100189436906004016116b2565b9390926084359060643590604435906024359061328e565b3461042e57611f303661181f565b909160ff5f5460081c161561042e57611f669061086b9063ffffffff60c01b1963ffffffff60c01b83549260c01b169116179055565b604051611f7281610578565b6009815260208101926820a1a927a9a996ab1960b91b8452640312e302e360dc1b6020604051611fa181610578565b60058152015260ff5f5460081c161561042e57610018936111b59251902061047f557f06c015bd22b4c69690933c1058878ebdfef31f9aaae40bbe86d8a09fe1b2972c610480556111a8614599565b3461042e57602036600319011261042e577f2d5b62420992e5a4afce0e77742636ca2608ef58289fd2e1baa5161ef6e7e41e6020600435612030816119a2565b612038613501565b6120406135c3565b151561086b80547fffffff00ffffffffffffffffffffffffffffffffffffffffffffffffffffffff60ff60e01b8460e01b169116179055604051908152a16001606555005b3461042e575f36600319011261042e576020604051468152f35b3461042e575f36600319011261042e57602063ffffffff61086b5460c01c16604051908152f35b3461042e57604036600319011261042e576004356024356120e682614b97565b6001600160a01b0382165f5261087360205261211560405f20336001600160a01b03165f5260205260405f2090565b549182156121b8575f61215c3361214661212e85613b84565b6001600160a01b03165f5261087360205260405f2090565b906001600160a01b03165f5260205260405f2090565b556121888361217961216d84613b84565b6001600160a01b031690565b61218285613b84565b90614670565b60405192835233927f6c172ea51018fb2eb2118f3f8a507c4df71eb519b8c0052834dc3c920182fef490602090a4005b6040516336542bf760e21b8152600490fd5b6020808201906020835283518092526040830192602060408460051b8301019501935f915b8483106121ff5750505050505090565b909192939495848061221d600193603f198682030187528a5161124f565b98019301930191949392906121ef565b3461042e5761223b366111ff565b9061224582613377565b915f5b81811061225d576040518061134586826121ca565b5f8061226a838587612d99565b9061227a60405180938193612db0565b0390305af4612287612dbd565b90156122ad579060019161229b8287612d85565b526122a68186612d85565b5001612248565b604481511061042e5780600461042e9201516024809183010191016133c0565b6101808060031936011261042e57610104356122e8816104cf565b61012435916122f6836104cf565b6101443592612304846104cf565b6101643567ffffffffffffffff811161042e576123259036906004016116b2565b61232d6135c3565b61086b549260ff8460e81c166107d257610bd0966123f2610e7d926123e463ffffffff6124009860c01c16996123886123658c61341f565b61086b9063ffffffff60c01b1963ffffffff60c01b83549260c01b169116179055565b6123906106b9565b9a6004358c5260243560208d015260443560408d015260643560608d015260843560808d015260a43560a08d015260c43560c08d015260e43560e08d01526101008c01526101208b019063ffffffff169052565b63ffffffff16610140890152565b63ffffffff16610160870152565b90820152614307565b604090600319011261042e5760043561242181610472565b9060243561074081610472565b3461042e57602061246c6001600160a01b0361244936612409565b91165f52610873835260405f20906001600160a01b03165f5260205260405f2090565b54604051908152f35b3461042e57602036600319011261042e57602060043561249481610472565b6001600160a01b038091165f52610c5c825260405f205416604051908152f35b3461042e575f36600319011261042e5760206001600160a01b0361086a5416604051908152f35b3461042e5760c036600319011261042e5760043560243567ffffffffffffffff60643560443560843583811161042e576125199036906004016116b2565b60a49491943591821161042e577f45e04bc8f121ba11466985789ca2822a91109f31bb8ac85504a37b7eaf873c26946125596125a89336906004016116b2565b9290916125646135c3565b61256d8a614b97565b61259c898b898961257f3688886106ef565b9261258b368b8b6106ef565b946001600160a01b034692166141d5565b60405196879687612e0c565b0390a36001606555005b3461042e576125c036612409565b906125c9613501565b6125d16135c3565b6001600160a01b0380911691825f52610c5d6020526126098160405f20906001600160a01b03166001600160a01b0319825416179055565b16907fcb84c2022106a6f2b6f805d446f32fbfd2a528474364fa755f37dac1c0c1b6c85f80a36001606555005b3461042e57602036600319011261042e576004355f52610872602052602060405f2054604051908152f35b3461042e575f36600319011261042e57602060405163ffffffff8152f35b91906101808382031261042e57612694610698565b92803584526020810135602085015260408101356040850152606081013560608501526080810135608085015260a081013560a085015260c081013560c085015260e081013560e085015261010080820135908501526101206126f88183016104eb565b9085015261014061270a8183016104eb565b90850152610160918282013567ffffffffffffffff811161042e5761272f9201610725565b90830152565b9060208282031261042e57813567ffffffffffffffff811161042e57610740920161267f565b3461042e57602036600319011261042e5760043567ffffffffffffffff811161042e57611c18610dfb602092369060040161267f565b3461042e575f36600319011261042e57602060ff61086b5460e01c166040519015158152f35b3461042e575f36600319011261042e5760206040516ec097ce7bc90715b34b9f10000000008152f35b3461042e57602036600319011261042e576107cb60043561280081610472565b612808613501565b6111b06135c3565b3461042e57606036600319011261042e5760043567ffffffffffffffff811161042e5761284190369060040161267f565b6128496135c3565b60ff61086b5460e01c166128f35761014081015163ffffffff42811691161015806128d4575b6128c25780612880610bd092613434565b60c08201516020830151906101608401519261289a610678565b948552602085015260408401526060830152608082015260243560a082015260443590613f5f565b604051630c3a9b9d60e41b8152600490fd5b506128e26040820151613b84565b6001600160a01b031633141561286f565b604051633d90fc5560e11b8152600490fd5b3461042e575f36600319011261042e576020610c5a546001600160a01b0360405191831c168152f35b6101608060031936011261042e5761010435612949816104cf565b61012435612956816104cf565b6101443567ffffffffffffffff811161042e576129779036906004016116b2565b63ffffffff9461298a8642169586612f68565b936129936135c3565b61086b549160ff8360e81c166107d2576129c66129d3966123e4610bd09a610e7d9660c01c16996123886123658c61341f565b86019063ffffffff169052565b610180820152614307565b634e487b7160e01b5f52603260045260245ffd5b61086c908154811015612a2c576003915f52027f71cd7344f4eb2efc8e30291f6dbdb44d618ca368ea5425d217c1d604bf26b84d01905f90565b6129de565b3461042e57602036600319011261042e5760043561086c5481101561042e57612a5b6040916129f2565b506001815491015482519182526020820152f35b3461042e57612a7d36612409565b90612a86613501565b612a8e6135c3565b6001600160a01b0380911691825f52610c5c602052612ac68160405f20906001600160a01b03166001600160a01b0319825416179055565b16907ff3dc137d2246f9b8abd0bb821e185ba01122c9b3ea3745ffca6208037674d6705f80a36001606555005b3461042e57602036600319011261042e576107cb600435612b1381610472565b612b1b613501565b6111b56135c3565b91612b2c6135c3565b6080820191612b45610b7884516001600160a01b031690565b602081019182514603612c4c57612b6d612b7191836001612b65896129f2565b5001546138a0565b1590565b612c3a578060607ff4ad92585b1bc117fbdd644990adf0827bc4c95baeae8a23322af807b6d0020e920193612bb3612bad865163ffffffff1690565b87613932565b612c2d845194835193612c12612c04612bf360408401998a51612bda8d5163ffffffff1690565b89516001600160a01b03169160a088019b8c51946139a3565b925193519851995163ffffffff1690565b94516001600160a01b031690565b945163ffffffff9586604051978897169b1699339487612ccd565b0390a461048e6001606555565b60405163582f497d60e11b8152600490fd5b604051633d23e4d160e11b8152600490fd5b9081518082526020808093019301915f5b828110612c7d575050505090565b835185529381019392810192600101612c6f565b9081518082526020808093019301915f5b828110612cb0575050505090565b83516001600160a01b031685529381019392810192600101612ca2565b9496959193612cef60a095612d0d93885260c0602089015260c0880190612c5e565b906001600160a01b0380951660408801528682036060880152612c91565b951515608085015216910152565b3561074081610472565b35610740816104cf565b903590601e198136030182121561042e570180359067ffffffffffffffff821161042e5760200191813603831361042e57565b634e487b7160e01b5f52602160045260245ffd5b60031115612d8057565b612d62565b8051821015612a2c5760209160051b010190565b90821015612a2c5761122a9160051b810190612d2f565b908092918237015f815290565b3d15612de7573d90612dce826106d3565b91612ddc6040519384610656565b82523d5f602084013e565b606090565b908060209392818452848401375f828201840152601f01601f1916010190565b94929093612e3192610740979587526020870152608060408701526080860191612dec565b926060818503910152612dec565b91909160ff5f5460081c161561042e57612e8990610c5a624c4b4063ffffffff1982541617905561086b9063ffffffff60c01b1963ffffffff60c01b83549260c01b169116179055565b604051612e9581610578565b6009815260208101926820a1a927a9a996ab1960b91b8452640312e302e360dc1b6020604051612ec481610578565b60058152015260ff5f5460081c161561042e57612f13936111b59251902061047f557f06c015bd22b4c69690933c1058878ebdfef31f9aaae40bbe86d8a09fe1b2972c610480556111a8614599565b61048e610c5a77deaddeaddeaddeaddeaddeaddeaddeaddead00000000000077ffffffffffffffffffffffffffffffffffffffff0000000019825416179055565b634e487b7160e01b5f52601160045260245ffd5b91909163ffffffff80809416911601918211612f8057565b612f54565b969492909161048e9b9a9998969492612fa563ffffffff42169889612f68565b985b9593919b999897969492909b612fbb6135c3565b61086b549660ff8860e81c166107d2578760c01c63ffffffff16612fde9061341f565b6130059061086b9063ffffffff60c01b1963ffffffff60c01b83549260c01b169116179055565b61300d6106b9565b9d6001600160a01b038f921682526001600160a01b031690602001526001600160a01b031660408d01526001600160a01b031660608c015260808b015260a08a015260c08901526001600160a01b031660e088015260c01c63ffffffff16610100870152610120860190613086919063ffffffff169052565b63ffffffff1661014085015263ffffffff1661016084015236906130a9926106ef565b6101808201526130b890614307565b61048e6001606555565b916040519160208301936bffffffffffffffffffffffff199060601b16845260348301526054820152605481526130f8816105e6565b51902090565b93929160209161311691604087526040870191612dec565b930152565b9081602091031261042e57604051906020820182811067ffffffffffffffff8211176105945760405235815290565b6107409161018090825181526020830151602082015260408301516040820152606083015160608201526080830151608082015260a083015160a082015260c083015160c082015260e083015160e082015261010080840151908201526131bf610120808501519083019063ffffffff169052565b6101408381015163ffffffff1690820152816101608094015193820152019061124f565b6131fb6040929594939560608352606083019061314a565b9460208201520152565b90602061074092818152019061124f565b9c9a999897969594939291909661322b6135c3565b60ff61086b5460e81c166107d257613244908e336130c2565b96604051809e61325382610599565b81526020015260408d015260608c015260808b015260a08a015260c089015260e088015261010087015263ffffffff16610120860152613086565b97929095939196949761329f6135c3565b60ff61086b5460e01c166128f3576132ba6101408201612d25565b63ffffffff8042169116101580613358575b6128c257613341613353966133396130b89b6132eb610dfb368761267f565b9a6132f4610678565b9b6132ff368861267f565b8d5260208d01528660408d01528760608d015261331d368b846106ef565b60808d015260a08c01526133318535613b84565b9836916106ef565b9536916106ef565b9461010060e0830135920135906141d5565b613f5f565b506133666040820135613b84565b6001600160a01b03163314156132cc565b9061338182610884565b61338e6040519182610656565b828152809261339f601f1991610884565b01905f5b8281106133af57505050565b8060606020809385010152016133a3565b60208183031261042e5780519067ffffffffffffffff821161042e570181601f8201121561042e5780516133f3816106d3565b926134016040519485610656565b8184526020828401011161042e57610740916020808501910161122e565b63ffffffff809116908114612f805760010190565b6040516130f881613451602082019460408652606083019061314a565b46604083015203601f198101835282610656565b9190916134706135c3565b60ff61086b5460e01c166128f35761014081015163ffffffff42811691161015806134e2575b6128c2576130b8926134a782613434565b60c0830151602084015190610160850151926134c1610678565b958652602086015260408501526060840152608083015260a0820152613f5f565b506134f06040820151613b84565b6001600160a01b0316331415613496565b7342000000000000000000000000000000000000078033036135b157602060049160405192838092636e296e4560e01b82525afa9081156135ac575f9161357d575b506001600160a01b0361356261216d610869546001600160a01b031690565b91160361356b57565b6040516336a816d960e01b8152600490fd5b61359f915060203d6020116135a5575b6135978183610656565b8101906146b8565b5f613543565b503d61358d565b6135e1565b60405163253a6fc960e11b8152600490fd5b60026065541461042e576002606555565b91908203918211612f8057565b6040513d5f823e3d90fd5b926107409695929491946101409585525f60208601526040850152606084015263ffffffff809116608084015260a08301525f60c083015260e08201525f61010082015281610120820152019061124f565b9193949690959660070b906706f05b59d3b2000061365b836146cd565b101561381b576ec097ce7bc90715b34b9f100000000084116138095763ffffffff93613689858a16426135d4565b857f000000000000000000000000000000000000000000000000000000000000000016106137f75761086b5460c01c63ffffffff16986136cb6123658b61341f565b6001600160a01b039586807f000000000000000000000000000000000000000000000000000000000000000016981692888414806137ee575b156137b2578034036137a057883b1561042e575f6004996040519a8b8092630d0e30db60e41b825234905af19889156135ac5761376f613782978a927f32ed1a409ef04c7b0227189c3a103dc5ac10e775a15b785dcc510201f7c25ad39c613787575b505b8361471b565b92604051998a99169d169b1693876135ec565b0390a4565b8061379461379a926105b6565b80610424565b5f613767565b604051636452a35d60e01b8152600490fd5b7f32ed1a409ef04c7b0227189c3a103dc5ac10e775a15b785dcc510201f7c25ad398508761376f613782976137e98430338a6146dc565b613769565b50341515613704565b60405163f722177f60e01b8152600490fd5b60405163622db5a960e11b8152600490fd5b60405163284f109760e21b8152600490fd5b6001600160a01b037f0000000000000000000000000000000000000000000000000000000000000000811691168114613864575b50565b4761386c5750565b4790803b1561042e575f90600460405180948193630d0e30db60e41b83525af180156135ac57156138615761048e906105b6565b61074092916040516139298161391b602082019460208652805160408401526020810151606084015260a06138e5604083015160c06080870152610100860190612c5e565b606083015163ffffffff168583015260808301516001600160a01b031660c0860152910151838203603f190160e0850152612c91565b03601f198101835282610656565b51902091614751565b61393d6002916129f2565b500162ffffff8260081c16805f5281602052600160ff60405f205494161b8080941614613975575f5260205260405f20908154179055565b60405163954476d960e01b8152600490fd5b9081602091031261042e575190565b91908201809211612f8057565b91959495939092935f9681519081815103613b725781613a22575b505050826139cd575b50505050565b6001600160a01b0381613a017ffa7fa7cf6d7dde5f9be65a67e6a1a747e7aa864dcd2d793353c722d80fbbb3579386614814565b6040805195865233602087015291169463ffffffff1693a45f8080806139c7565b604080516370a0823160e01b81523060048083019190915291906020816024816001600160a01b038b165afa9081156135ac575f91613b53575b505f805b868110613a715750505050506139be565b613a7b8189612d85565b51613a89575b600101613a60565b90613a9f90613a98838a612d85565b5190613996565b90828211613b4357613ad9612b6d613ac7613aba848a612d85565b516001600160a01b031690565b613ad1848c612d85565b51908c6147a2565b15613a81579c5087613b39613b318f613b1c613aba613b15613afb848f612d85565b51966001600160a01b03165f5261087360205260405f2090565b928b612d85565b6001600160a01b03165f5260205260405f2090565b918254613996565b905560019c613a81565b50505051632ddaa83160e11b8152fd5b613b6c915060203d602011611088576110798183610656565b5f613a5c565b6040516319a5316760e31b8152600490fd5b6001600160a01b0390613b9681614b97565b1690565b91612b6d90613c1392845160408096015191865191613bb8836105ca565b8252613929613bd360208401924684528985019586526129f2565b5054938851928391613bf86020840196602088525160608d86015260a085019061314a565b9151606084015251608083015203601f198101835282610656565b613c1a5750565b5163582f497d60e11b8152600490fd5b613c3382612d76565b52565b9a989693919c9b9997959492909c6101e08c019d8c5260208c015260408b015260608a0152608089015263ffffffff80921660a08901521660c087015260e08601526101008501526101208401526101408301528051610160830152602081015161018083015260408101516101a08301526060015190613cb682612d76565b6101c00152565b9061074094936080936001600160a01b0380931684526020840152166040820152816060820152019061124f565b905f82516101208101613d02815163ffffffff1690565b63ffffffff42911610613f4d576020850151906002613d2a835f5261087260205260405f2090565b5414613f3b57613d4486925f5261087260205260405f2090565b6002905560608301519060808401519160a08501519260c0860151918560a0810151938860e0810151956101008201519751613d839063ffffffff1690565b61014083015163ffffffff166040840151918451936020860151956101600151613dac906141c0565b966060890151986080019e8f51613dc2906141c0565b906040015190613dd06106c6565b9a8b5260208b015260408a0152600260608a01526040519d8e9b613df49b8d613c36565b037f44b559f101f8fbcc8a0ea43fa91a05a729a5ea6e14a7c75aa750374690137208905f94a46080820151613e2890613b84565b9060408601519560600151613e3c90613b84565b9260800151613e4a90613b84565b6001600160a01b03919082167f0000000000000000000000000000000000000000000000000000000000000000831603613f265784613f13575b613e9087838616614bb2565b51928351151580613f09575b613eaa575b50505050509050565b1690813b15613f055783613ed8959660405196879586948593633a5be8cb60e01b8552339160048601613cbd565b03925af180156135ac57613ef2575b808080808594613ea1565b80613794613eff926105b6565b5f613ee7565b8380fd5b50803b1515613e9c565b613f218730338587166146dc565b613e84565b5f9450613f368785858516614670565b613e90565b604051630479306360e51b8152600490fd5b60405163d642b7d960e01b8152600490fd5b8051916101208301613f75815163ffffffff1690565b63ffffffff42911610613f4d5760208301516001613f9c825f5261087260205260405f2090565b54036141b9576001905b6002613fbb825f5261087260205260405f2090565b5414613f3b57613fd7613fdd915f5261087260205260405f2090565b60029055565b7f44b559f101f8fbcc8a0ea43fa91a05a729a5ea6e14a7c75aa75037469013720860608601516080870151906140aa8760a08a0151958a60c08101519760a08401519860e08301519961403a6101008501519c5163ffffffff1690565b61014085015163ffffffff169160408601519386519561409e61406661016060208b01519a01516141c0565b9960608c01519b604061407c60808301516141c0565b91015190602061408a6106c6565b9e8f528e015260408d015260608c01613c2a565b6040519c8d9c8d613c36565b0390a46140ba6080830151613b84565b9160408201519160806140dc816140d46060850151613b84565b940151613b84565b6001600160a01b03929083167f00000000000000000000000000000000000000000000000000000000000000008416036141a65761411e853033868a166146dc565b61412a85848616614bb2565b015191825115158061419c575b614143575b5050505050565b16803b1561042e57614171935f809460405196879586948593633a5be8cb60e01b8552339160048601613cbd565b03925af180156135ac57614189575b8080808061413c565b80613794614196926105b6565b5f614180565b50803b1515614137565b6141b4858533868a166146dc565b61412a565b5f90613fa6565b805190816141ce5750505f90565b6020012090565b939260429361048e979660208151910120906040519260208401947f8d1994e2bbbd77564cdca06dd819e7ee2a5efa06c80dcb59a4a7b6e39edc538f86526040850152856060850152608084015260a083015260c082015260c0815261423a8161061e565b5190209061047f549061048054906040519160208301937fc2f8787176b8ac6bf7215b4adcc1e069bf4ab82d9ab1df05a57a91d425935b6e8552604084015260608301526080820152608081526142908161063a565b519020906040519161190160f01b8352600283015260228201522090614e2e565b96926107409a9996949198959261014099895260208901526040880152606087015263ffffffff928380921660808801521660a08601521660c084015260e083015261010082015281610120820152019061124f565b6143118151614b97565b6101208101614330614327825163ffffffff1690565b63ffffffff1690565b804210908115614560575b506137f757610140820191614354835163ffffffff1690565b9063ffffffff9182614388817f00000000000000000000000000000000000000000000000000000000000000001642613996565b91161161454e5761016081015163ffffffff169180831680614509575b505060408101908151916001600160a01b037f00000000000000000000000000000000000000000000000000000000000000001680931480614500575b156144b357608082015134036137a057823b1561042e575f60049360405194858092630d0e30db60e41b825234905af19283156135ac577f32ed1a409ef04c7b0227189c3a103dc5ac10e775a15b785dcc510201f7c25ad3936144a0575b505b5161378260608301519260808101519060a081015160c08201519761447f6144746101008501519b5163ffffffff1690565b9b5163ffffffff1690565b83519b60208501519361018060e0870151960151966040519a8b9a8b6142b1565b806137946144ad926105b6565b5f614440565b9150346137a057816144fb6144ec61216d7f32ed1a409ef04c7b0227189c3a103dc5ac10e775a15b785dcc510201f7c25ad39551613b84565b608084015190309033906146dc565b614442565b503415156143e2565b6301e133801015614539575b5060e081015115614527575f806143a5565b60405163495d907f60e01b8152600490fd5b916145479192421690612f68565b905f614515565b60405163582e388960e01b8152600490fd5b61456b9150426135d4565b63ffffffff7f000000000000000000000000000000000000000000000000000000000000000016105f61433b565b60ff5f5460081c161561042e57565b60ff5f5460081c161561042e576001606555565b6001600160a01b0316801561460457610869816001600160a01b03198254161790557fa9e8c42c9e7fca7f62755189a16b2f5314d43d8fb24e91ba54e6d65f9314e8495f80a2565b60405163ba97b39d60e01b8152600490fd5b6001600160a01b0316801561465e5761086a816001600160a01b03198254161790557fa73e8909f8616742d7fe701153d82666f7b7cd480552e23ebb05d358c22fd04e5f80a2565b604051635b03092b60e11b8152600490fd5b60405163a9059cbb60e01b60208201526001600160a01b039092166024830152604482019290925261048e916146b382606481015b03601f198101845283610656565b614f0c565b9081602091031261042e575161074081610472565b5f81126146d75790565b5f0390565b909261048e93604051936323b872dd60e01b60208601526001600160a01b0380921660248601521660448401526064830152606482526146b38261063a565b90670de0b6b3a7640000915f828403921283831281169084841390151617612f8057818102918183041490151715612f80570490565b929091905f915b845183101561479a5761476b8386612d85565b519081811015614789575f52602052600160405f205b920191614758565b905f52602052600160405f20614781565b915092501490565b60405163a9059cbb60e01b60208281019182526001600160a01b039094166024830152604482019490945290925f916147de816064810161391b565b519082855af1903d5f5190836147f5575b50505090565b9192509061480a57503b15155b5f80806147ef565b6001915014614802565b906001600160a01b0390818116907f00000000000000000000000000000000000000000000000000000000000000008316820361493e5750803b1561042e57604051632e1a7d4d60e01b815260048101849052905f908290602490829084905af180156135ac5761492b575b50610c5a549161489961086a546001600160a01b031690565b73420000000000000000000000000000000000001090813b1561042e57604051631474f2a960e31b8152602086901c949094166001600160a01b0390811660048601521660248401526044830182905263ffffffff909316606483015260a060848301525f60a483018190529192839160c4918391905af180156135ac5761491e5750565b8061379461048e926105b6565b80613794614938926105b6565b5f614880565b91807f000000000000000000000000000000000000000000000000000000000000000016151580614b6c575b1561498e5750505061048e9061498961086a546001600160a01b031690565b615040565b806149bb6149ae856001600160a01b03165f52610c5c60205260405f2090565b546001600160a01b031690565b16614b48577342000000000000000000000000000000000000105b16906149fa61216d6149ae856001600160a01b03165f52610c5d60205260405f2090565b15614ac2578382614a0a92614f9c565b614a296149ae836001600160a01b03165f52610c5d60205260405f2090565b90614a3d61086a546001600160a01b031690565b91614a4e610c5a5463ffffffff1690565b823b1561042e5760405163540abf7360e01b81526001600160a01b0395861660048201529185166024830152929093166044840152606483019390935263ffffffff16608482015260c060a48201525f60c482018190529091829081838160e481015b03925af180156135ac5761491e5750565b5091614ad761086a546001600160a01b031690565b92614ae8610c5a5463ffffffff1690565b93813b1561042e57604051631474f2a960e31b81526001600160a01b03948516600482015293166024840152604483019190915263ffffffff909216606482015260a060848201525f60a482018190529091829081838160c48101614ab1565b614b676149ae846001600160a01b03165f52610c5c60205260405f2090565b6149d6565b50807f000000000000000000000000000000000000000000000000000000000000000016821461496a565b60a01c614ba057565b6040516379ec0ed760e11b8152600490fd5b906001600160a01b03808316803b158015614c70575b15614c4357507f00000000000000000000000000000000000000000000000000000000000000001691823b1561042e57604051632e1a7d4d60e01b815260048101839052925f908490602490829084905af19283156135ac5761048e93614c30575b506152ed565b80613794614c3d926105b6565b5f614c2a565b9061048e93507f000000000000000000000000000000000000000000000000000000000000000016614670565b50803b614c7c816106d3565b614c896040519182610656565b81815260208101915f83853c51905162ffffff60e81b908181169260038110614cbc575b50501661ef0160f01b14614bc8565b829350829060030360031b1b1616905f80614cad565b614cdb81614deb565b6001600160a01b0381167fbc7cd75a20ee27fd9adebab32041f755214dbc6bffa90cc0225b39da2e5c2d3b5f80a2815115801590614d93575b614d1c575050565b5f80613861937f206661696c65640000000000000000000000000000000000000000000000000060408051614d50816105ca565b602781527f416464726573733a206c6f772d6c6576656c2064656c65676174652063616c6c60208201520152602081519101845af4614d8d612dbd565b91615366565b505f614d14565b614da381614deb565b6001600160a01b0381167fbc7cd75a20ee27fd9adebab32041f755214dbc6bffa90cc0225b39da2e5c2d3b5f80a2815115801590614de357614d1c575050565b506001614d14565b803b1561042e576001600160a01b037f360894a13ba1a3210667c828492db98dca3e2076cc3735a920a3ca505d382bbc91166001600160a01b0319825416179055565b614e388383615335565b6005819592951015612d8057159384614ef6575b508315614e70575b50505015614e5e57565b60405163938a182160e01b8152600490fd5b5f929350908291604051614ea88161391b6020820194630b135d3f60e11b998a8752602484015260406044840152606483019061124f565b51915afa90614eb5612dbd565b82614ee8575b82614ecb575b50505f8080614e54565b614ee091925060208082518301019101613987565b145f80614ec1565b915060208251101591614ebb565b6001600160a01b0383811691161493505f614e4c565b905f806001600160a01b03614f639416927f5361666545524332303a206c6f772d6c6576656c2063616c6c206661696c65646020604051614f4c81610578565b818152015260208151910182855af1614d8d612dbd565b8051908115918215614f79575b50501561042e57565b819250906020918101031261042e5760200151614f95816119a2565b5f80614f70565b6044919260206001600160a01b0360405194858092636eb1769f60e11b8252306004830152808916602483015286165afa9283156135ac575f9361501f575b508201809211612f805760405163095ea7b360e01b60208201526001600160a01b039093166024840152604483019190915261048e91906146b382606481016146a5565b61503991935060203d602011611088576110798183610656565b915f614fdb565b906001600160a01b038092167f000000000000000000000000000000000000000000000000000000000000000090837f0000000000000000000000000000000000000000000000000000000000000000169361509d848685614f9c565b604094604051926332dd704760e21b84526020956004948781600481875afa9687156135ac5788915f986152cc575b506040516352b7631960e11b81529086166001600160a01b03811660048301529097909588916024918391165afa9586156135ac575f966152ad575b5095867f0000000000000000000000000000000000000000000000000000000000000000975b61513d57505050505050505050565b868111156152a757865b88156151ff57843b1561042e578951634701287760e11b815287810182815263ffffffff7f0000000000000000000000000000000000000000000000000000000000000000166020820152604081018690526001600160a01b03881660608201525f6080820181905260a082018190526107d060c0830152919391908490819060e0010381838a5af19283156135ac576151e6936151ec575b506135d4565b8061512e565b806137946151f9926105b6565b5f6151e0565b89516337e9a82760e11b815287810182815263ffffffff7f0000000000000000000000000000000000000000000000000000000000000000166020820152604081018690526001600160a01b038816606082015290929084908490819060800103815f8a5af19283156135ac576151e69361527a57506135d4565b61529990853d87116152a0575b6152918183610656565b810190615315565b505f6151e0565b503d615287565b80615147565b6152c5919650873d8911611088576110798183610656565b945f615108565b869198506152e690833d85116135a5576135978183610656565b97906150cc565b81471061042e575f8080936001600160a01b038294165af161530d612dbd565b501561042e57565b9081602091031261042e575167ffffffffffffffff8116810361042e5790565b9060418151145f1461535d5761122a91602082015190606060408401519301515f1a9061538f565b50505f90600290565b901561538057815115615377575090565b3b1561042e5790565b50805190811561042e57602001fd5b7f7fffffffffffffffffffffffffffffff5d576e7357a4501ddfe92f46681b20a084116153ff576020935f9360ff60809460405194855216868401526040830152606082015282805260015afa156135ac575f516001600160a01b038116156153f757905f90565b505f90600190565b505050505f9060039056fea264697066735822122044250f443bd66671a920c4a7bc48f6f677525e903743071bd76096833283b61364736f6c63430008170033"
}