{
  "address": "0x279e7fF866e45f2354e58cEC9E4071354635B527",
  "abi": [
    {
      "anonymous": false,
      "inputs": [
        {
          "indexed": true,
          "internalType": "address",
          "name": "caller",
          "type": "address"
        },
        {
          "indexed": false,
          "internalType": "uint256",
          "name": "windowIndex",
          "type": "uint256"
        },
        {
          "indexed": true,
          "internalType": "address",
          "name": "account",
          "type": "address"
        },
        {
          "indexed": false,
          "internalType": "uint256",
          "name": "accountIndex",
          "type": "uint256"
        },
        {
          "indexed": false,
          "internalType": "uint256",
          "name": "amount",
          "type": "uint256"
        },
        {
          "indexed": true,
          "internalType": "address",
          "name": "rewardToken",
          "type": "address"
        }
      ],
      "name": "Claimed",
      "type": "event"
    },
    {
      "anonymous": false,
      "inputs": [
        {
          "indexed": true,
          "internalType": "uint256",
          "name": "windowIndex",
          "type": "uint256"
        },
        {
          "indexed": false,
          "internalType": "uint256",
          "name": "rewardsDeposited",
          "type": "uint256"
        },
        {
          "indexed": true,
          "internalType": "address",
          "name": "rewardToken",
          "type": "address"
        },
        {
          "indexed": false,
          "internalType": "address",
          "name": "owner",
          "type": "address"
        }
      ],
      "name": "CreatedWindow",
      "type": "event"
    },
    {
      "anonymous": false,
      "inputs": [
        {
          "indexed": true,
          "internalType": "uint256",
          "name": "windowIndex",
          "type": "uint256"
        },
        {
          "indexed": false,
          "internalType": "address",
          "name": "owner",
          "type": "address"
        }
      ],
      "name": "DeleteWindow",
      "type": "event"
    },
    {
      "anonymous": false,
      "inputs": [
        {
          "indexed": true,
          "internalType": "address",
          "name": "previousOwner",
          "type": "address"
        },
        {
          "indexed": true,
          "internalType": "address",
          "name": "newOwner",
          "type": "address"
        }
      ],
      "name": "OwnershipTransferred",
      "type": "event"
    },
    {
      "anonymous": false,
      "inputs": [
        {
          "indexed": true,
          "internalType": "address",
          "name": "claimer",
          "type": "address"
        },
        {
          "indexed": true,
          "internalType": "bool",
          "name": "whitelist",
          "type": "bool"
        }
      ],
      "name": "WhitelistedClaimer",
      "type": "event"
    },
    {
      "anonymous": false,
      "inputs": [
        {
          "indexed": true,
          "internalType": "address",
          "name": "owner",
          "type": "address"
        },
        {
          "indexed": false,
          "internalType": "uint256",
          "name": "amount",
          "type": "uint256"
        },
        {
          "indexed": true,
          "internalType": "address",
          "name": "currency",
          "type": "address"
        }
      ],
      "name": "WithdrawRewards",
      "type": "event"
    },
    {
      "inputs": [
        {
          "components": [
            {
              "internalType": "uint256",
              "name": "windowIndex",
              "type": "uint256"
            },
            {
              "internalType": "uint256",
              "name": "amount",
              "type": "uint256"
            },
            {
              "internalType": "uint256",
              "name": "accountIndex",
              "type": "uint256"
            },
            {
              "internalType": "address",
              "name": "account",
              "type": "address"
            },
            {
              "internalType": "bytes32[]",
              "name": "merkleProof",
              "type": "bytes32[]"
            }
          ],
          "internalType": "struct MerkleDistributorInterface.Claim",
          "name": "_claim",
          "type": "tuple"
        }
      ],
      "name": "claim",
      "outputs": [],
      "stateMutability": "nonpayable",
      "type": "function"
    },
    {
      "inputs": [
        {
          "components": [
            {
              "internalType": "uint256",
              "name": "windowIndex",
              "type": "uint256"
            },
            {
              "internalType": "uint256",
              "name": "amount",
              "type": "uint256"
            },
            {
              "internalType": "uint256",
              "name": "accountIndex",
              "type": "uint256"
            },
            {
              "internalType": "address",
              "name": "account",
              "type": "address"
            },
            {
              "internalType": "bytes32[]",
              "name": "merkleProof",
              "type": "bytes32[]"
            }
          ],
          "internalType": "struct MerkleDistributorInterface.Claim[]",
          "name": "claims",
          "type": "tuple[]"
        }
      ],
      "name": "claimMulti",
      "outputs": [],
      "stateMutability": "nonpayable",
      "type": "function"
    },
    {
      "inputs": [
        {
          "internalType": "uint256",
          "name": "windowIndex",
          "type": "uint256"
        }
      ],
      "name": "deleteWindow",
      "outputs": [],
      "stateMutability": "nonpayable",
      "type": "function"
    },
    {
      "inputs": [
        {
          "internalType": "uint256",
          "name": "windowIndex",
          "type": "uint256"
        }
      ],
      "name": "getRewardTokenForWindow",
      "outputs": [
        {
          "internalType": "address",
          "name": "",
          "type": "address"
        }
      ],
      "stateMutability": "view",
      "type": "function"
    },
    {
      "inputs": [
        {
          "internalType": "uint256",
          "name": "windowIndex",
          "type": "uint256"
        },
        {
          "internalType": "uint256",
          "name": "accountIndex",
          "type": "uint256"
        }
      ],
      "name": "isClaimed",
      "outputs": [
        {
          "internalType": "bool",
          "name": "",
          "type": "bool"
        }
      ],
      "stateMutability": "view",
      "type": "function"
    },
    {
      "inputs": [
        {
          "internalType": "uint256",
          "name": "",
          "type": "uint256"
        }
      ],
      "name": "merkleWindows",
      "outputs": [
        {
          "internalType": "bytes32",
          "name": "merkleRoot",
          "type": "bytes32"
        },
        {
          "internalType": "uint256",
          "name": "remainingAmount",
          "type": "uint256"
        },
        {
          "internalType": "contract IERC20",
          "name": "rewardToken",
          "type": "address"
        },
        {
          "internalType": "string",
          "name": "ipfsHash",
          "type": "string"
        }
      ],
      "stateMutability": "view",
      "type": "function"
    },
    {
      "inputs": [],
      "name": "nextCreatedIndex",
      "outputs": [
        {
          "internalType": "uint256",
          "name": "",
          "type": "uint256"
        }
      ],
      "stateMutability": "view",
      "type": "function"
    },
    {
      "inputs": [],
      "name": "owner",
      "outputs": [
        {
          "internalType": "address",
          "name": "",
          "type": "address"
        }
      ],
      "stateMutability": "view",
      "type": "function"
    },
    {
      "inputs": [],
      "name": "renounceOwnership",
      "outputs": [],
      "stateMutability": "nonpayable",
      "type": "function"
    },
    {
      "inputs": [
        {
          "internalType": "uint256",
          "name": "rewardsToDeposit",
          "type": "uint256"
        },
        {
          "internalType": "address",
          "name": "rewardToken",
          "type": "address"
        },
        {
          "internalType": "bytes32",
          "name": "merkleRoot",
          "type": "bytes32"
        },
        {
          "internalType": "string",
          "name": "ipfsHash",
          "type": "string"
        }
      ],
      "name": "setWindow",
      "outputs": [],
      "stateMutability": "nonpayable",
      "type": "function"
    },
    {
      "inputs": [
        {
          "internalType": "address",
          "name": "newOwner",
          "type": "address"
        }
      ],
      "name": "transferOwnership",
      "outputs": [],
      "stateMutability": "nonpayable",
      "type": "function"
    },
    {
      "inputs": [
        {
          "components": [
            {
              "internalType": "uint256",
              "name": "windowIndex",
              "type": "uint256"
            },
            {
              "internalType": "uint256",
              "name": "amount",
              "type": "uint256"
            },
            {
              "internalType": "uint256",
              "name": "accountIndex",
              "type": "uint256"
            },
            {
              "internalType": "address",
              "name": "account",
              "type": "address"
            },
            {
              "internalType": "bytes32[]",
              "name": "merkleProof",
              "type": "bytes32[]"
            }
          ],
          "internalType": "struct MerkleDistributorInterface.Claim",
          "name": "_claim",
          "type": "tuple"
        }
      ],
      "name": "verifyClaim",
      "outputs": [
        {
          "internalType": "bool",
          "name": "valid",
          "type": "bool"
        }
      ],
      "stateMutability": "view",
      "type": "function"
    },
    {
      "inputs": [
        {
          "internalType": "address",
          "name": "newContract",
          "type": "address"
        },
        {
          "internalType": "bool",
          "name": "whitelist",
          "type": "bool"
        }
      ],
      "name": "whitelistClaimer",
      "outputs": [],
      "stateMutability": "nonpayable",
      "type": "function"
    },
    {
      "inputs": [
        {
          "internalType": "address",
          "name": "",
          "type": "address"
        }
      ],
      "name": "whitelistedClaimers",
      "outputs": [
        {
          "internalType": "bool",
          "name": "",
          "type": "bool"
        }
      ],
      "stateMutability": "view",
      "type": "function"
    },
    {
      "inputs": [
        {
          "internalType": "contract IERC20",
          "name": "rewardCurrency",
          "type": "address"
        },
        {
          "internalType": "uint256",
          "name": "amount",
          "type": "uint256"
        }
      ],
      "name": "withdrawRewards",
      "outputs": [],
      "stateMutability": "nonpayable",
      "type": "function"
    }
  ],
  "transactionHash": "0x32b4fb4737b05eacca0c7583409c23089eeda604f84147b84376a9f9c282d83e",
  "args": [],
  "numDeployments": 1,
  "solcInputHash": "b9d6747074e2e4e0305d51ac3373cf9e",
  "bytecode": "0x608060405234801561001057600080fd5b5061001a3361001f565b61006f565b600080546001600160a01b038381166001600160a01b0319831681178455604051919092169283917f8be0079c531659141344cd1fd0a4f28419497f9722a3daafe3b4186f6b6457e09190a35050565b611b0b8061007e6000396000f3fe608060405234801561001057600080fd5b50600436106100f55760003560e01c80638da5cb5b11610097578063d6ef7af011610066578063d6ef7af01461024d578063e2e441a314610260578063f2fde38b14610277578063f364c90c1461028a57600080fd5b80638da5cb5b146101f65780639f5a967214610214578063a198496c14610227578063d45118681461023a57600080fd5b8063715018a6116100d3578063715018a61461015a578063743817a014610162578063761b429714610175578063891b0d71146101d357600080fd5b80634f512151146100fa5780636be651791461012257806370b53aee14610137575b600080fd5b61010d610108366004611618565b61029d565b60405190151581526020015b60405180910390f35b61013561013036600461164d565b610359565b005b61010d6101453660046116fe565b60046020526000908152604090205460ff1681565b610135610455565b610135610170366004611729565b610469565b6101ae610183366004611762565b60009081526001602052604090206002015473ffffffffffffffffffffffffffffffffffffffff1690565b60405173ffffffffffffffffffffffffffffffffffffffff9091168152602001610119565b6101e66101e1366004611762565b6104f0565b60405161011994939291906117f1565b60005473ffffffffffffffffffffffffffffffffffffffff166101ae565b610135610222366004611762565b6105b9565b610135610235366004611618565b61064c565b610135610248366004611836565b6106f2565b61013561025b3660046118cc565b610759565b61026960025481565b604051908152602001610119565b6101356102853660046116fe565b6107d3565b61010d6102983660046118f8565b610887565b6000808260600151836020015184604001516040516020016102f99392919060609390931b7fffffffffffffffffffffffffffffffffffffffff0000000000000000000000001683526014830191909152603482015260540190565b604080517fffffffffffffffffffffffffffffffffffffffffffffffffffffffffffffffe081840301815291815281516020928301206080860151865160009081526001909452919092205491925061035291836108d2565b9392505050565b3360009081526004602052604090205460ff1661044957805160005b81811015610446573373ffffffffffffffffffffffffffffffffffffffff168382815181106103a6576103a661191a565b60200260200101516060015173ffffffffffffffffffffffffffffffffffffffff1614610434576040517f08c379a000000000000000000000000000000000000000000000000000000000815260206004820152600f60248201527f696e76616c696420636c61696d6572000000000000000000000000000000000060448201526064015b60405180910390fd5b8061043e81611978565b915050610375565b50505b610452816108e8565b50565b61045d610a7c565b6104676000610afd565b565b610471610a7c565b73ffffffffffffffffffffffffffffffffffffffff821660008181526004602052604080822080547fffffffffffffffffffffffffffffffffffffffffffffffffffffffffffffff001685151590811790915590519092917fbaa2323ab54d3ecd5bd63d3c3cfc23d7ef896edcbc927b7b7867407f32a3ba2991a35050565b60016020819052600091825260409091208054918101546002820154600383018054929373ffffffffffffffffffffffffffffffffffffffff90921692610536906119b0565b80601f0160208091040260200160405190810160405280929190818152602001828054610562906119b0565b80156105af5780601f10610584576101008083540402835291602001916105af565b820191906000526020600020905b81548152906001019060200180831161059257829003601f168201915b5050505050905084565b6105c1610a7c565b600081815260016020819052604082208281559081018290556002810180547fffffffffffffffffffffffff0000000000000000000000000000000000000000169055906106126003830182611386565b505060405133815281907f8fea52000ecb40f2262c672496dfadccc9d6290439bac487e084de8c57682d669060200160405180910390a250565b3360009081526004602052604090205460ff16806106835750606081015173ffffffffffffffffffffffffffffffffffffffff1633145b6106e9576040517f08c379a000000000000000000000000000000000000000000000000000000000815260206004820152600f60248201527f696e76616c696420636c61696d65720000000000000000000000000000000000604482015260640161042b565b61045281610b72565b6106fa610a7c565b600254610708816001611a03565b6002819055506107518187878787878080601f016020809104026020016040519081016040528093929190818152602001838380828437600092019190915250610bbd92505050565b505050505050565b610761610a7c565b61078273ffffffffffffffffffffffffffffffffffffffff83163383610ca8565b60405181815273ffffffffffffffffffffffffffffffffffffffff83169033907ffb0872526787ac1be379aa37eaa9913b47d6d50c3f5fe5ec67ffe4282493670e9060200160405180910390a35050565b6107db610a7c565b73ffffffffffffffffffffffffffffffffffffffff811661087e576040517f08c379a000000000000000000000000000000000000000000000000000000000815260206004820152602660248201527f4f776e61626c653a206e6577206f776e657220697320746865207a65726f206160448201527f6464726573730000000000000000000000000000000000000000000000000000606482015260840161042b565b61045281610afd565b60008061089661010084611a4a565b905060006108a661010085611a5e565b60009586526003602090815260408088209488529390529190942054600190911b908116149392505050565b6000826108df8584610d81565b14949350505050565b8051600090815b81811015610a7657600084828151811061090b5761090b61191a565b6020026020010151905061091e81610dce565b602081015161092d9085611a03565b9350600061093c836001611a03565b825160009081526001602052604090206002015490915073ffffffffffffffffffffffffffffffffffffffff16848214806109c45750826060015173ffffffffffffffffffffffffffffffffffffffff1687838151811061099f5761099f61191a565b60200260200101516060015173ffffffffffffffffffffffffffffffffffffffff1614155b80610a2f57508073ffffffffffffffffffffffffffffffffffffffff16600160008985815181106109f7576109f761191a565b6020908102919091018101515182528101919091526040016000206002015473ffffffffffffffffffffffffffffffffffffffff1614155b15610a60576060830151610a5b9073ffffffffffffffffffffffffffffffffffffffff83169088610ca8565b600095505b5050508080610a6e90611978565b9150506108ef565b50505050565b60005473ffffffffffffffffffffffffffffffffffffffff163314610467576040517f08c379a000000000000000000000000000000000000000000000000000000000815260206004820181905260248201527f4f776e61626c653a2063616c6c6572206973206e6f7420746865206f776e6572604482015260640161042b565b6000805473ffffffffffffffffffffffffffffffffffffffff8381167fffffffffffffffffffffffff0000000000000000000000000000000000000000831681178455604051919092169283917f8be0079c531659141344cd1fd0a4f28419497f9722a3daafe3b4186f6b6457e09190a35050565b610b7b81610dce565b60608101516020808301518351600090815260019092526040909120600201546104529273ffffffffffffffffffffffffffffffffffffffff90911691610ca8565b60008581526001602081815260409092208481559081018690556002810180547fffffffffffffffffffffffff00000000000000000000000000000000000000001673ffffffffffffffffffffffffffffffffffffffff871617905582519091610c2e9160038401918501906113c0565b506040805186815233602082015273ffffffffffffffffffffffffffffffffffffffff86169188917f521fe5bce65ac6af752c1083ec77facc5b6c13f40693e96eeca3747726fee9ad910160405180910390a360028101546107519073ffffffffffffffffffffffffffffffffffffffff16333088610fa7565b60405173ffffffffffffffffffffffffffffffffffffffff8316602482015260448101829052610d7c9084907fa9059cbb00000000000000000000000000000000000000000000000000000000906064015b604080517fffffffffffffffffffffffffffffffffffffffffffffffffffffffffffffffe08184030181529190526020810180517bffffffffffffffffffffffffffffffffffffffffffffffffffffffff167fffffffff0000000000000000000000000000000000000000000000000000000090931692909217909152611005565b505050565b600081815b8451811015610dc657610db282868381518110610da557610da561191a565b6020026020010151611111565b915080610dbe81611978565b915050610d86565b509392505050565b610dd78161029d565b610e3d576040517f08c379a000000000000000000000000000000000000000000000000000000000815260206004820152601660248201527f496e636f7272656374206d65726b6c652070726f6f6600000000000000000000604482015260640161042b565b610e4f81600001518260400151610887565b15610edc576040517f08c379a000000000000000000000000000000000000000000000000000000000815260206004820152602b60248201527f4163636f756e742068617320616c726561647920636c61696d656420666f722060448201527f746869732077696e646f77000000000000000000000000000000000000000000606482015260840161042b565b610eee8160000151826040015161113d565b806020015160016000836000015181526020019081526020016000206001016000828254610f1c9190611a72565b9091555050805160009081526001602090815260409182902060020154606080850151855185870151858801518751928352958201529485019390935273ffffffffffffffffffffffffffffffffffffffff91821693919092169133917f18bdb6adb84039f917775d1fb8e7b7e7737ad5915d12eef0e4654b85e18d07b4910160405180910390a450565b60405173ffffffffffffffffffffffffffffffffffffffff80851660248301528316604482015260648101829052610a769085907f23b872dd0000000000000000000000000000000000000000000000000000000090608401610cfa565b6000611067826040518060400160405280602081526020017f5361666545524332303a206c6f772d6c6576656c2063616c6c206661696c65648152508573ffffffffffffffffffffffffffffffffffffffff166111869092919063ffffffff16565b805190915015610d7c57808060200190518101906110859190611a89565b610d7c576040517f08c379a000000000000000000000000000000000000000000000000000000000815260206004820152602a60248201527f5361666545524332303a204552433230206f7065726174696f6e20646964206e60448201527f6f74207375636365656400000000000000000000000000000000000000000000606482015260840161042b565b600081831061112d576000828152602084905260409020610352565b5060009182526020526040902090565b600061114b61010083611a4a565b9050600061115b61010084611a5e565b6000948552600360209081526040808720948752939052919093208054600190921b90911790555050565b6060611195848460008561119d565b949350505050565b60608247101561122f576040517f08c379a000000000000000000000000000000000000000000000000000000000815260206004820152602660248201527f416464726573733a20696e73756666696369656e742062616c616e636520666f60448201527f722063616c6c0000000000000000000000000000000000000000000000000000606482015260840161042b565b73ffffffffffffffffffffffffffffffffffffffff85163b6112ad576040517f08c379a000000000000000000000000000000000000000000000000000000000815260206004820152601d60248201527f416464726573733a2063616c6c20746f206e6f6e2d636f6e7472616374000000604482015260640161042b565b6000808673ffffffffffffffffffffffffffffffffffffffff1685876040516112d69190611aa6565b60006040518083038185875af1925050503d8060008114611313576040519150601f19603f3d011682016040523d82523d6000602084013e611318565b606091505b5091509150611328828286611333565b979650505050505050565b60608315611342575081610352565b8251156113525782518084602001fd5b816040517f08c379a000000000000000000000000000000000000000000000000000000000815260040161042b9190611ac2565b508054611392906119b0565b6000825580601f106113a2575050565b601f0160209004906000526020600020908101906104529190611444565b8280546113cc906119b0565b90600052602060002090601f0160209004810192826113ee5760008555611434565b82601f1061140757805160ff1916838001178555611434565b82800160010185558215611434579182015b82811115611434578251825591602001919060010190611419565b50611440929150611444565b5090565b5b808211156114405760008155600101611445565b7f4e487b7100000000000000000000000000000000000000000000000000000000600052604160045260246000fd5b60405160a0810167ffffffffffffffff811182821017156114ab576114ab611459565b60405290565b604051601f82017fffffffffffffffffffffffffffffffffffffffffffffffffffffffffffffffe016810167ffffffffffffffff811182821017156114f8576114f8611459565b604052919050565b73ffffffffffffffffffffffffffffffffffffffff8116811461045257600080fd5b600067ffffffffffffffff82111561153c5761153c611459565b5060051b60200190565b600060a0828403121561155857600080fd5b611560611488565b9050813581526020808301358183015260408301356040830152606083013561158881611500565b6060830152608083013567ffffffffffffffff8111156115a757600080fd5b8301601f810185136115b857600080fd5b80356115cb6115c682611522565b6114b1565b81815260059190911b820183019083810190878311156115ea57600080fd5b928401925b82841015611608578335825292840192908401906115ef565b6080860152509295945050505050565b60006020828403121561162a57600080fd5b813567ffffffffffffffff81111561164157600080fd5b61119584828501611546565b6000602080838503121561166057600080fd5b823567ffffffffffffffff8082111561167857600080fd5b818501915085601f83011261168c57600080fd5b813561169a6115c682611522565b81815260059190911b830184019084810190888311156116b957600080fd5b8585015b838110156116f1578035858111156116d55760008081fd5b6116e38b89838a0101611546565b8452509186019186016116bd565b5098975050505050505050565b60006020828403121561171057600080fd5b813561035281611500565b801515811461045257600080fd5b6000806040838503121561173c57600080fd5b823561174781611500565b915060208301356117578161171b565b809150509250929050565b60006020828403121561177457600080fd5b5035919050565b60005b8381101561179657818101518382015260200161177e565b83811115610a765750506000910152565b600081518084526117bf81602086016020860161177b565b601f017fffffffffffffffffffffffffffffffffffffffffffffffffffffffffffffffe0169290920160200192915050565b84815283602082015273ffffffffffffffffffffffffffffffffffffffff8316604082015260806060820152600061182c60808301846117a7565b9695505050505050565b60008060008060006080868803121561184e57600080fd5b85359450602086013561186081611500565b935060408601359250606086013567ffffffffffffffff8082111561188457600080fd5b818801915088601f83011261189857600080fd5b8135818111156118a757600080fd5b8960208285010111156118b957600080fd5b9699959850939650602001949392505050565b600080604083850312156118df57600080fd5b82356118ea81611500565b946020939093013593505050565b6000806040838503121561190b57600080fd5b50508035926020909101359150565b7f4e487b7100000000000000000000000000000000000000000000000000000000600052603260045260246000fd5b7f4e487b7100000000000000000000000000000000000000000000000000000000600052601160045260246000fd5b60007fffffffffffffffffffffffffffffffffffffffffffffffffffffffffffffffff82036119a9576119a9611949565b5060010190565b600181811c908216806119c457607f821691505b6020821081036119fd577f4e487b7100000000000000000000000000000000000000000000000000000000600052602260045260246000fd5b50919050565b60008219821115611a1657611a16611949565b500190565b7f4e487b7100000000000000000000000000000000000000000000000000000000600052601260045260246000fd5b600082611a5957611a59611a1b565b500490565b600082611a6d57611a6d611a1b565b500690565b600082821015611a8457611a84611949565b500390565b600060208284031215611a9b57600080fd5b81516103528161171b565b60008251611ab881846020870161177b565b9190910192915050565b60208152600061035260208301846117a756fea2646970667358221220bcd2b720788043cf660d43ac2feec2bd828d466454e8df6aebd3b1fe361c704964736f6c634300080d0033",
  "devdoc": {
    "kind": "dev",
    "methods": {
      "claim((uint256,uint256,uint256,address,bytes32[]))": {
        "details": "Claim recipient must be equal to msg.sender or caller must be whitelisted.",
        "params": {
          "_claim": "claim object describing amount, accountIndex, account, window index, and merkle proof."
        }
      },
      "claimMulti((uint256,uint256,uint256,address,bytes32[])[])": {
        "details": "All claim recipients must be equal to msg.sender or claimer must be whitelisted.",
        "params": {
          "claims": "array of claims to claim."
        }
      },
      "deleteWindow(uint256)": {
        "details": "Callable only by owner. Likely to be followed by a withdrawRewards call to clear contract state.",
        "params": {
          "windowIndex": "merkle root index to delete."
        }
      },
      "getRewardTokenForWindow(uint256)": {
        "params": {
          "windowIndex": "merkle root to check."
        },
        "returns": {
          "_0": "address Reward token address"
        }
      },
      "isClaimed(uint256,uint256)": {
        "details": "This method will only work as intended if all `accountIndex`'s are unique for a given `windowIndex`.         The onus is on the Owner of this contract to submit only valid Merkle roots.",
        "params": {
          "accountIndex": "account index to check within window index.",
          "windowIndex": "merkle root to check."
        },
        "returns": {
          "_0": "True if claim has been executed already, False otherwise."
        }
      },
      "owner()": {
        "details": "Returns the address of the current owner."
      },
      "renounceOwnership()": {
        "details": "Leaves the contract without owner. It will not be possible to call `onlyOwner` functions anymore. Can only be called by the current owner. NOTE: Renouncing ownership will leave the contract without an owner, thereby removing any functionality that is only available to the owner."
      },
      "setWindow(uint256,address,bytes32,string)": {
        "params": {
          "ipfsHash": "hash of IPFS object, conveniently stored for clients",
          "merkleRoot": "merkle root describing allocation.",
          "rewardToken": "ERC20 reward token.",
          "rewardsToDeposit": "amount of rewards to deposit to seed this allocation."
        }
      },
      "transferOwnership(address)": {
        "details": "Transfers ownership of the contract to a new account (`newOwner`). Can only be called by the current owner."
      },
      "verifyClaim((uint256,uint256,uint256,address,bytes32[]))": {
        "params": {
          "_claim": "claim object describing amount, accountIndex, account, window index, and merkle proof."
        },
        "returns": {
          "valid": "True if leaf exists."
        }
      },
      "whitelistClaimer(address,bool)": {
        "details": "Callable only by owner.",
        "params": {
          "newContract": "Reset claimer contract to this address.",
          "whitelist": "True to whitelist claimer, False otherwise."
        }
      },
      "withdrawRewards(address,uint256)": {
        "details": "Callable only by owner.",
        "params": {
          "amount": "amount of rewards to withdraw.",
          "rewardCurrency": "rewards to withdraw from contract."
        }
      }
    },
    "title": "Extended MerkleDistributor contract.",
    "version": 1
  },
  "userdoc": {
    "kind": "user",
    "methods": {
      "claim((uint256,uint256,uint256,address,bytes32[]))": {
        "notice": "Claim amount of reward tokens for account, as described by Claim input object."
      },
      "claimMulti((uint256,uint256,uint256,address,bytes32[])[])": {
        "notice": "Batch claims to reduce gas versus individual submitting all claims. Method will fail         if any individual claims within the batch would fail."
      },
      "deleteWindow(uint256)": {
        "notice": "Delete merkle root at window index."
      },
      "getRewardTokenForWindow(uint256)": {
        "notice": "Returns rewardToken set by admin for windowIndex."
      },
      "isClaimed(uint256,uint256)": {
        "notice": "Returns True if the claim for `accountIndex` has already been completed for the Merkle root at         `windowIndex`."
      },
      "setWindow(uint256,address,bytes32,string)": {
        "notice": "Set merkle root for the next available window index and seed allocations.Callable only by owner of this contract. Caller must have approved this contract to transfer      `rewardsToDeposit` amount of `rewardToken` or this call will fail. Importantly, we assume that the      owner of this contract correctly chooses an amount `rewardsToDeposit` that is sufficient to cover all      claims within the `merkleRoot`."
      },
      "verifyClaim((uint256,uint256,uint256,address,bytes32[]))": {
        "notice": "Returns True if leaf described by {account, amount, accountIndex} is stored in Merkle root at given         window index."
      },
      "whitelistClaimer(address,bool)": {
        "notice": "Updates whitelisted claimer status."
      },
      "withdrawRewards(address,uint256)": {
        "notice": "Emergency method that transfers rewards out of the contract if the contract was configured improperly."
      }
    },
    "notice": "Adds additional constraints governing who can claim leaves from merkle windows.",
    "version": 1
  },
  "storageLayout": {
    "storage": [
      {
        "astId": 422,
        "contract": "contracts/merkle-distributor/AcrossMerkleDistributor.sol:AcrossMerkleDistributor",
        "label": "_owner",
        "offset": 0,
        "slot": "0",
        "type": "t_address"
      },
      {
        "astId": 6113,
        "contract": "contracts/merkle-distributor/AcrossMerkleDistributor.sol:AcrossMerkleDistributor",
        "label": "merkleWindows",
        "offset": 0,
        "slot": "1",
        "type": "t_mapping(t_uint256,t_struct(Window)6644_storage)"
      },
      {
        "astId": 6115,
        "contract": "contracts/merkle-distributor/AcrossMerkleDistributor.sol:AcrossMerkleDistributor",
        "label": "nextCreatedIndex",
        "offset": 0,
        "slot": "2",
        "type": "t_uint256"
      },
      {
        "astId": 6121,
        "contract": "contracts/merkle-distributor/AcrossMerkleDistributor.sol:AcrossMerkleDistributor",
        "label": "claimedBitMap",
        "offset": 0,
        "slot": "3",
        "type": "t_mapping(t_uint256,t_mapping(t_uint256,t_uint256))"
      },
      {
        "astId": 12991,
        "contract": "contracts/merkle-distributor/AcrossMerkleDistributor.sol:AcrossMerkleDistributor",
        "label": "whitelistedClaimers",
        "offset": 0,
        "slot": "4",
        "type": "t_mapping(t_address,t_bool)"
      }
    ],
    "types": {
      "t_address": {
        "encoding": "inplace",
        "label": "address",
        "numberOfBytes": "20"
      },
      "t_bool": {
        "encoding": "inplace",
        "label": "bool",
        "numberOfBytes": "1"
      },
      "t_bytes32": {
        "encoding": "inplace",
        "label": "bytes32",
        "numberOfBytes": "32"
      },
      "t_contract(IERC20)1191": {
        "encoding": "inplace",
        "label": "contract IERC20",
        "numberOfBytes": "20"
      },
      "t_mapping(t_address,t_bool)": {
        "encoding": "mapping",
        "key": "t_address",
        "label": "mapping(address => bool)",
        "numberOfBytes": "32",
        "value": "t_bool"
      },
      "t_mapping(t_uint256,t_mapping(t_uint256,t_uint256))": {
        "encoding": "mapping",
        "key": "t_uint256",
        "label": "mapping(uint256 => mapping(uint256 => uint256))",
        "numberOfBytes": "32",
        "value": "t_mapping(t_uint256,t_uint256)"
      },
      "t_mapping(t_uint256,t_struct(Window)6644_storage)": {
        "encoding": "mapping",
        "key": "t_uint256",
        "label": "mapping(uint256 => struct MerkleDistributorInterface.Window)",
        "numberOfBytes": "32",
        "value": "t_struct(Window)6644_storage"
      },
      "t_mapping(t_uint256,t_uint256)": {
        "encoding": "mapping",
        "key": "t_uint256",
        "label": "mapping(uint256 => uint256)",
        "numberOfBytes": "32",
        "value": "t_uint256"
      },
      "t_string_storage": {
        "encoding": "bytes",
        "label": "string",
        "numberOfBytes": "32"
      },
      "t_struct(Window)6644_storage": {
        "encoding": "inplace",
        "label": "struct MerkleDistributorInterface.Window",
        "members": [
          {
            "astId": 6636,
            "contract": "contracts/merkle-distributor/AcrossMerkleDistributor.sol:AcrossMerkleDistributor",
            "label": "merkleRoot",
            "offset": 0,
            "slot": "0",
            "type": "t_bytes32"
          },
          {
            "astId": 6638,
            "contract": "contracts/merkle-distributor/AcrossMerkleDistributor.sol:AcrossMerkleDistributor",
            "label": "remainingAmount",
            "offset": 0,
            "slot": "1",
            "type": "t_uint256"
          },
          {
            "astId": 6641,
            "contract": "contracts/merkle-distributor/AcrossMerkleDistributor.sol:AcrossMerkleDistributor",
            "label": "rewardToken",
            "offset": 0,
            "slot": "2",
            "type": "t_contract(IERC20)1191"
          },
          {
            "astId": 6643,
            "contract": "contracts/merkle-distributor/AcrossMerkleDistributor.sol:AcrossMerkleDistributor",
            "label": "ipfsHash",
            "offset": 0,
            "slot": "3",
            "type": "t_string_storage"
          }
        ],
        "numberOfBytes": "128"
      },
      "t_uint256": {
        "encoding": "inplace",
        "label": "uint256",
        "numberOfBytes": "32"
      }
    }
  }
}