{
  "address": "0xDaF8d1326ECf17C46661D5852Ea74b420F9368Af",
  "abi": [
    {
      "inputs": [
        {
          "internalType": "contract ArbitrumL1InboxLike",
          "name": "_l1ArbitrumInbox",
          "type": "address"
        },
        {
          "internalType": "contract ArbitrumL1ERC20GatewayLike",
          "name": "_l1ERC20GatewayRouter",
          "type": "address"
        }
      ],
      "stateMutability": "nonpayable",
      "type": "constructor"
    },
    {
      "anonymous": false,
      "inputs": [
        {
          "indexed": false,
          "internalType": "address",
          "name": "target",
          "type": "address"
        },
        {
          "indexed": false,
          "internalType": "bytes",
          "name": "message",
          "type": "bytes"
        }
      ],
      "name": "MessageRelayed",
      "type": "event"
    },
    {
      "anonymous": false,
      "inputs": [
        {
          "indexed": false,
          "internalType": "address",
          "name": "l1Token",
          "type": "address"
        },
        {
          "indexed": false,
          "internalType": "address",
          "name": "l2Token",
          "type": "address"
        },
        {
          "indexed": false,
          "internalType": "uint256",
          "name": "amount",
          "type": "uint256"
        },
        {
          "indexed": false,
          "internalType": "address",
          "name": "to",
          "type": "address"
        }
      ],
      "name": "TokensRelayed",
      "type": "event"
    },
    {
      "inputs": [],
      "name": "RELAY_MESSAGE_L2_GAS_LIMIT",
      "outputs": [
        {
          "internalType": "uint32",
          "name": "",
          "type": "uint32"
        }
      ],
      "stateMutability": "view",
      "type": "function"
    },
    {
      "inputs": [],
      "name": "RELAY_TOKENS_L2_GAS_LIMIT",
      "outputs": [
        {
          "internalType": "uint32",
          "name": "",
          "type": "uint32"
        }
      ],
      "stateMutability": "view",
      "type": "function"
    },
    {
      "inputs": [
        {
          "internalType": "uint32",
          "name": "l2GasLimit",
          "type": "uint32"
        }
      ],
      "name": "getL1CallValue",
      "outputs": [
        {
          "internalType": "uint256",
          "name": "",
          "type": "uint256"
        }
      ],
      "stateMutability": "pure",
      "type": "function"
    },
    {
      "inputs": [],
      "name": "l1ERC20GatewayRouter",
      "outputs": [
        {
          "internalType": "contract ArbitrumL1ERC20GatewayLike",
          "name": "",
          "type": "address"
        }
      ],
      "stateMutability": "view",
      "type": "function"
    },
    {
      "inputs": [],
      "name": "l1Inbox",
      "outputs": [
        {
          "internalType": "contract ArbitrumL1InboxLike",
          "name": "",
          "type": "address"
        }
      ],
      "stateMutability": "view",
      "type": "function"
    },
    {
      "inputs": [],
      "name": "l2GasPrice",
      "outputs": [
        {
          "internalType": "uint256",
          "name": "",
          "type": "uint256"
        }
      ],
      "stateMutability": "view",
      "type": "function"
    },
    {
      "inputs": [],
      "name": "l2MaxSubmissionCost",
      "outputs": [
        {
          "internalType": "uint256",
          "name": "",
          "type": "uint256"
        }
      ],
      "stateMutability": "view",
      "type": "function"
    },
    {
      "inputs": [],
      "name": "l2RefundL2Address",
      "outputs": [
        {
          "internalType": "address",
          "name": "",
          "type": "address"
        }
      ],
      "stateMutability": "view",
      "type": "function"
    },
    {
      "inputs": [
        {
          "internalType": "address",
          "name": "target",
          "type": "address"
        },
        {
          "internalType": "bytes",
          "name": "message",
          "type": "bytes"
        }
      ],
      "name": "relayMessage",
      "outputs": [],
      "stateMutability": "payable",
      "type": "function"
    },
    {
      "inputs": [
        {
          "internalType": "address",
          "name": "l1Token",
          "type": "address"
        },
        {
          "internalType": "address",
          "name": "l2Token",
          "type": "address"
        },
        {
          "internalType": "uint256",
          "name": "amount",
          "type": "uint256"
        },
        {
          "internalType": "address",
          "name": "to",
          "type": "address"
        }
      ],
      "name": "relayTokens",
      "outputs": [],
      "stateMutability": "payable",
      "type": "function"
    }
  ],
  "transactionHash": "0x777bcf64345a346834d0f64501c24b3e56ee2e8c81f7976f39e7c0c2aba25d6d",
  "args": [
    "0x6BEbC4925716945D46F0Ec336D5C2564F419682C",
    "0x4c7708168395aEa569453Fc36862D2ffcDaC588c"
  ],
  "numDeployments": 1,
  "solcInputHash": "e3638a53e1e5b7b0c7a6b5bbdc94b1ad",
  "bytecode": "0x60c03461009357601f610f1938819003918201601f19168301916001600160401b038311848410176100985780849260409485528339810103126100935780516001600160a01b03918282168203610093576020015191821682036100935760805260a052604051610e6a90816100af82396080518181816101d70152610432015260a0518181816104df0152610bfc0152f35b600080fd5b634e487b7160e01b600052604160045260246000fdfe6080604081815260048036101561001557600080fd5b600092833560e01c9081631ba4a9cb14610bb2575080631fc1ba7614610b1257806328f2716e14610ad657806352c8c75c146104565780638134f385146103e75780639ae36685146103a95780639c3ba2001461035c578063c735281e14610320578063e599477e146102e05763e6eb8ade1461009157600080fd5b817ffffffffffffffffffffffffffffffffffffffffffffffffffffffffffffffffc3601126102dc576100c2610c20565b906024359267ffffffffffffffff84116102675736602385011215610267578382013592856100f085610cd4565b956100fd84519788610c93565b85875236602487830101116102d85785602496602097889301838a01378701015266470de4df82000080471061027c5784908351928380927f679b6ded00000000000000000000000000000000000000000000000000000000825273ffffffffffffffffffffffffffffffffffffffff80931680988301528a6024830152662386f26fc10000604483015273428ab2ba90eba0a4be7af34c9ac451ab061ac0108060648401526084830152621e848060a483015264012a05f20060c483015261010060e4830152816101d361010482018c610d31565b03927f0000000000000000000000000000000000000000000000000000000000000000165af1801561027257610244575b507f9e6c52944e331ba6270e7fe4cea2a4086bae8f7a27e1cdba07f416806f5d0ac493818061023e93519586958652850152830190610d31565b0390a180f35b8390813d831161026b575b6102598183610c93565b810103126102675738610204565b8480fd5b503d61024f565b82513d88823e3d90fd5b606484868551917f08c379a0000000000000000000000000000000000000000000000000000000008352820152601860248201527f496e73756666696369656e74204554482062616c616e636500000000000000006044820152fd5b5080fd5b8280fd5b5050346102d857817ffffffffffffffffffffffffffffffffffffffffffffffffffffffffffffffffc3601126102d85760209051662386f26fc100008152f35b5050346102d857817ffffffffffffffffffffffffffffffffffffffffffffffffffffffffffffffffc3601126102d85760209051621e84808152f35b5050346102d857817ffffffffffffffffffffffffffffffffffffffffffffffffffffffffffffffffc3601126102d8576020905173428ab2ba90eba0a4be7af34c9ac451ab061ac0108152f35b5050346102d857817ffffffffffffffffffffffffffffffffffffffffffffffffffffffffffffffffc3601126102d8576020905164012a05f2008152f35b5050346102d857817ffffffffffffffffffffffffffffffffffffffffffffffffffffffffffffffffc3601126102d8576020905173ffffffffffffffffffffffffffffffffffffffff7f0000000000000000000000000000000000000000000000000000000000000000168152f35b5060807ffffffffffffffffffffffffffffffffffffffffffffffffffffffffffffffffc3601126102dc57610489610c20565b90602491823573ffffffffffffffffffffffffffffffffffffffff93848216809203610ad257604492833593606495863596888816809803610ace576628db3066eac00092834710610a7557908a95949392918a7f000000000000000000000000000000000000000000000000000000000000000016948d8c8951927fbda009fe000000000000000000000000000000000000000000000000000000008452169c8d868401526020998a848b818c5afa918215610a6b578f9286908d938d978792610a26575b505194859384927fdd62ed3e000000000000000000000000000000000000000000000000000000008452308d8501521680988301525afa918215610a1b57916109ea575b508a81018091116109bf57908d918251908a8201927f095ea7b30000000000000000000000000000000000000000000000000000000084528a830152848201528381526105df81610c48565b825192830183811067ffffffffffffffff821117610992578f528983527f5361666545524332303a206c6f772d6c6576656c2063616c6c206661696c65648a8401528d3b1561093857938f9795928f92948f968f9b9996928f938c8f918b8291826106739751925af13d1561092f573d8e61065982610cd4565b916106668b519384610c93565b825281933d92013e610dd6565b8c81518061086f575b505050835193662386f26fc100008d86015280808601528a6060860152606085526106a685610c48565b736b175474e89094c44da98b954eedeac495271d0f880361079c5791610720949391620493e093519c8d9b8c9a8b997fd2ce7d65000000000000000000000000000000000000000000000000000000008b528a015288015286015284015264012a05f200608484015260c060a484015260c4830190610d31565b03925af180156107925791608096959493917fd7e09655439c3932e55857df3220186e5a7f0980825f20691c2b35d941dee75b9893610770575b505b82519586528501528301526060820152a180f35b61078b903d808c833e6107838183610c93565b810190610d74565b503861075a565b87513d8a823e3d90fd5b9a61081594939173428ab2ba90eba0a4be7af34c9ac451ab061ac0109c519c8d9b8c9a8b997f4fb1a07b000000000000000000000000000000000000000000000000000000008b528a0152880152860152840152620493e0608484015264012a05f20060a484015260e060c484015260e4830190610d31565b03925af180156107925791608096959493917fd7e09655439c3932e55857df3220186e5a7f0980825f20691c2b35d941dee75b9893610855575b5061075c565b610868903d808c833e6107838183610c93565b503861084f565b935094509497995094979950838092965001031261092b5787015180159081150361092b576108ab57928c94928c8c938b8d9997388c8161067c565b608492917f5361666545524332303a204552433230206f7065726174696f6e20646964206e7f6f7420737563636565640000000000000000000000000000000000000000000092602a8f8b8b9151977f08c379a0000000000000000000000000000000000000000000000000000000008952880152860152840152820152fd5b8d80fd5b60609150610dd6565b848f7f416464726573733a2063616c6c20746f206e6f6e2d636f6e747261637400000086601d8d8f8c9551957f08c379a0000000000000000000000000000000000000000000000000000000008752860152840152820152fd5b5050878f6041877f4e487b7100000000000000000000000000000000000000000000000000000000835252fd5b878f6011877f4e487b7100000000000000000000000000000000000000000000000000000000835252fd5b90508881813d8311610a14575b610a018183610c93565b81010312610a10575138610593565b8e80fd5b503d6109f7565b8f51903d90823e3d90fd5b9550505050935081813d8311610a64575b610a418183610c93565b810103126102d857519180831683036102d857898f918f9286908c96903861054f565b503d610a37565b81513d85823e3d90fd5b7f496e73756666696369656e74204554482062616c616e63650000000000000000839160188860208f51957f08c379a0000000000000000000000000000000000000000000000000000000008752860152840152820152fd5b8a80fd5b8680fd5b5050346102d857817ffffffffffffffffffffffffffffffffffffffffffffffffffffffffffffffffc3601126102d85760209051620493e08152f35b509190346102d85760207ffffffffffffffffffffffffffffffffffffffffffffffffffffffffffffffffc3601126102d85782359163ffffffff8316809303610baf5764012a05f2009280840293840403610b8357662386f26fc10000928301809311610b83576020838351908152f35b806011857f4e487b71000000000000000000000000000000000000000000000000000000006024945252fd5b80fd5b8490346102d857817ffffffffffffffffffffffffffffffffffffffffffffffffffffffffffffffffc3601126102d85760209073ffffffffffffffffffffffffffffffffffffffff7f0000000000000000000000000000000000000000000000000000000000000000168152f35b6004359073ffffffffffffffffffffffffffffffffffffffff82168203610c4357565b600080fd5b6080810190811067ffffffffffffffff821117610c6457604052565b7f4e487b7100000000000000000000000000000000000000000000000000000000600052604160045260246000fd5b90601f7fffffffffffffffffffffffffffffffffffffffffffffffffffffffffffffffe0910116810190811067ffffffffffffffff821117610c6457604052565b67ffffffffffffffff8111610c6457601f017fffffffffffffffffffffffffffffffffffffffffffffffffffffffffffffffe01660200190565b60005b838110610d215750506000910152565b8181015183820152602001610d11565b907fffffffffffffffffffffffffffffffffffffffffffffffffffffffffffffffe0601f602093610d6d81518092818752878088019101610d0e565b0116010190565b602081830312610c435780519067ffffffffffffffff8211610c43570181601f82011215610c43578051610da781610cd4565b92610db56040519485610c93565b81845260208284010111610c4357610dd39160208085019101610d0e565b90565b90919015610de2575090565b815115610df25750805190602001fd5b610e30906040519182917f08c379a0000000000000000000000000000000000000000000000000000000008352602060048401526024830190610d31565b0390fdfea2646970667358221220582793f3983c41d8e98ba54ca4ffee6e8687e411643bc1ca262563747deed4e864736f6c63430008120033",
  "devdoc": {
    "details": "Public functions calling external contracts do not guard against reentrancy because they are expected to be called via delegatecall, which will execute this contract's logic within the context of the originating contract. For example, the HubPool will delegatecall these functions, therefore its only necessary that the HubPool's methods that call this contract's logic guard against reentrancy.",
    "kind": "dev",
    "methods": {
      "constructor": {
        "params": {
          "_l1ArbitrumInbox": "Inbox helper contract to send messages to Arbitrum.",
          "_l1ERC20GatewayRouter": "ERC20 gateway router contract to send tokens to Arbitrum."
        }
      },
      "getL1CallValue(uint32)": {
        "returns": {
          "_0": "amount of ETH that this contract needs to hold in order for relayMessage to succeed."
        }
      },
      "relayMessage(address,bytes)": {
        "params": {
          "message": "Data to send to target.",
          "target": "Contract on Arbitrum that will receive message."
        }
      },
      "relayTokens(address,address,uint256,address)": {
        "params": {
          "amount": "Amount of L1 tokens to deposit and L2 tokens to receive.",
          "l1Token": "L1 token to deposit.",
          "l2Token": "L2 token to receive.",
          "to": "Bridge recipient."
        }
      }
    },
    "version": 1
  },
  "userdoc": {
    "kind": "user",
    "methods": {
      "constructor": {
        "notice": "Constructs new Adapter."
      },
      "getL1CallValue(uint32)": {
        "notice": "Returns required amount of ETH to send a message via the Inbox."
      },
      "relayMessage(address,bytes)": {
        "notice": "Send cross-chain message to target on Arbitrum.This contract must hold at least getL1CallValue() amount of ETH to send a message via the Inbox successfully, or the message will get stuck."
      },
      "relayTokens(address,address,uint256,address)": {
        "notice": "Bridge tokens to Arbitrum.This contract must hold at least getL1CallValue() amount of ETH to send a message via the Inbox successfully, or the message will get stuck."
      }
    },
    "notice": "Contract containing logic to send messages from L1 to Arbitrum.",
    "version": 1
  },
  "storageLayout": {
    "storage": [],
    "types": null
  }
}