{
  "address": "0xE20002E27831290F8FDA828D014b8B2e9EC399e6",
  "abi": [
    {
      "inputs": [
        {
          "internalType": "contract ArbitrumL1InboxLike",
          "name": "_l1ArbitrumInbox",
          "type": "address"
        },
        {
          "internalType": "contract ArbitrumL1ERC20GatewayLike",
          "name": "_l1ERC20GatewayRouter",
          "type": "address"
        },
        {
          "internalType": "address",
          "name": "_l2RefundL2Address",
          "type": "address"
        },
        {
          "internalType": "contract IERC20",
          "name": "_l1Usdc",
          "type": "address"
        },
        {
          "internalType": "contract ITokenMessenger",
          "name": "_cctpTokenMessenger",
          "type": "address"
        }
      ],
      "stateMutability": "nonpayable",
      "type": "constructor"
    },
    {
      "anonymous": false,
      "inputs": [
        {
          "indexed": false,
          "internalType": "address",
          "name": "target",
          "type": "address"
        },
        {
          "indexed": false,
          "internalType": "bytes",
          "name": "message",
          "type": "bytes"
        }
      ],
      "name": "MessageRelayed",
      "type": "event"
    },
    {
      "anonymous": false,
      "inputs": [
        {
          "indexed": false,
          "internalType": "address",
          "name": "l1Token",
          "type": "address"
        },
        {
          "indexed": false,
          "internalType": "address",
          "name": "l2Token",
          "type": "address"
        },
        {
          "indexed": false,
          "internalType": "uint256",
          "name": "amount",
          "type": "uint256"
        },
        {
          "indexed": false,
          "internalType": "address",
          "name": "to",
          "type": "address"
        }
      ],
      "name": "TokensRelayed",
      "type": "event"
    },
    {
      "inputs": [],
      "name": "RELAY_MESSAGE_L2_GAS_LIMIT",
      "outputs": [
        {
          "internalType": "uint32",
          "name": "",
          "type": "uint32"
        }
      ],
      "stateMutability": "view",
      "type": "function"
    },
    {
      "inputs": [],
      "name": "RELAY_TOKENS_L2_GAS_LIMIT",
      "outputs": [
        {
          "internalType": "uint32",
          "name": "",
          "type": "uint32"
        }
      ],
      "stateMutability": "view",
      "type": "function"
    },
    {
      "inputs": [],
      "name": "cctpTokenMessenger",
      "outputs": [
        {
          "internalType": "contract ITokenMessenger",
          "name": "",
          "type": "address"
        }
      ],
      "stateMutability": "view",
      "type": "function"
    },
    {
      "inputs": [],
      "name": "circleDomainId",
      "outputs": [
        {
          "internalType": "uint32",
          "name": "",
          "type": "uint32"
        }
      ],
      "stateMutability": "view",
      "type": "function"
    },
    {
      "inputs": [
        {
          "internalType": "uint32",
          "name": "l2GasLimit",
          "type": "uint32"
        }
      ],
      "name": "getL1CallValue",
      "outputs": [
        {
          "internalType": "uint256",
          "name": "",
          "type": "uint256"
        }
      ],
      "stateMutability": "pure",
      "type": "function"
    },
    {
      "inputs": [],
      "name": "l1ERC20GatewayRouter",
      "outputs": [
        {
          "internalType": "contract ArbitrumL1ERC20GatewayLike",
          "name": "",
          "type": "address"
        }
      ],
      "stateMutability": "view",
      "type": "function"
    },
    {
      "inputs": [],
      "name": "l1Inbox",
      "outputs": [
        {
          "internalType": "contract ArbitrumL1InboxLike",
          "name": "",
          "type": "address"
        }
      ],
      "stateMutability": "view",
      "type": "function"
    },
    {
      "inputs": [],
      "name": "l1Usdc",
      "outputs": [
        {
          "internalType": "contract IERC20",
          "name": "",
          "type": "address"
        }
      ],
      "stateMutability": "view",
      "type": "function"
    },
    {
      "inputs": [],
      "name": "l2GasPrice",
      "outputs": [
        {
          "internalType": "uint256",
          "name": "",
          "type": "uint256"
        }
      ],
      "stateMutability": "view",
      "type": "function"
    },
    {
      "inputs": [],
      "name": "l2MaxSubmissionCost",
      "outputs": [
        {
          "internalType": "uint256",
          "name": "",
          "type": "uint256"
        }
      ],
      "stateMutability": "view",
      "type": "function"
    },
    {
      "inputs": [],
      "name": "l2RefundL2Address",
      "outputs": [
        {
          "internalType": "address",
          "name": "",
          "type": "address"
        }
      ],
      "stateMutability": "view",
      "type": "function"
    },
    {
      "inputs": [
        {
          "internalType": "address",
          "name": "target",
          "type": "address"
        },
        {
          "internalType": "bytes",
          "name": "message",
          "type": "bytes"
        }
      ],
      "name": "relayMessage",
      "outputs": [],
      "stateMutability": "payable",
      "type": "function"
    },
    {
      "inputs": [
        {
          "internalType": "address",
          "name": "l1Token",
          "type": "address"
        },
        {
          "internalType": "address",
          "name": "l2Token",
          "type": "address"
        },
        {
          "internalType": "uint256",
          "name": "amount",
          "type": "uint256"
        },
        {
          "internalType": "address",
          "name": "to",
          "type": "address"
        }
      ],
      "name": "relayTokens",
      "outputs": [],
      "stateMutability": "payable",
      "type": "function"
    }
  ],
  "transactionHash": "0x457c1870a182f4c9a3fa4a429ab5bd502736e6ec9aea66ea122db136e45b52fb",
  "args": [
    "0x6BEbC4925716945D46F0Ec336D5C2564F419682C",
    "0x4c7708168395aEa569453Fc36862D2ffcDaC588c",
    "0x428AB2BA90Eba0a4Be7aF34C9Ac451ab061AC010",
    "0x07865c6E87B9F70255377e024ace6630C1Eaa37F",
    "0xD0C3da58f55358142b8d3e06C1C30c5C6114EFE8"
  ],
  "numDeployments": 2,
  "solcInputHash": "8ccac8cf36ab35df78773cb6892919cd",
  "bytecode": "0x6101203461010357601f61119538819003918201601f19168301916001600160401b038311848410176101075780849260a0946040528339810103126101035780516001600160a01b03919082811681036101035760208201518381168103610103576040830151918483168303610103576060840151938585168503610103576080015194851685036101035760a05260c05260805260e052610100908152604051611079918261011c83396080518281816101aa015281816104010152610926015260a051828181610204015261051a015260c0518281816107710152610b47015260e051828181610588015261061e0152518181816104ac01526106570152f35b5f80fd5b634e487b7160e01b5f52604160045260245ffdfe6080604081815260049182361015610015575f80fd5b5f3560e01c9081631ba4a9cb14610aff575080631fc1ba7614610a6457806328f2716e14610a2957806352c8c75c146105ac57806356c3b5871461053e5780638134f385146104d05780639748cf7c146104625780639ae36685146104255780639c3ba200146103b7578063c735281e1461037c578063ce9ca77514610343578063e599477e146103045763e6eb8ade146100ae575f80fd5b807ffffffffffffffffffffffffffffffffffffffffffffffffffffffffffffffffc360112610293576100df610b6b565b916024359167ffffffffffffffff8311610293573660238401121561029357828201359361010c85610c18565b9461011983519687610bd7565b808652602094366024838301011161029357815f926024889301838a01378701015266470de4df820000908147106102a857849073ffffffffffffffffffffffffffffffffffffffff8091855194859384927f679b6ded0000000000000000000000000000000000000000000000000000000084521680988301525f6024830152662386f26fc100006044830152827f0000000000000000000000000000000000000000000000000000000000000000168060648401526084830152621e848060a483015264012a05f20060c483015261010060e48301528161020061010482018c610cd5565b03927f0000000000000000000000000000000000000000000000000000000000000000165af1801561029e57610270575b507f9e6c52944e331ba6270e7fe4cea2a4086bae8f7a27e1cdba07f416806f5d0ac493818061026b93519586958652850152830190610cd5565b0390a1005b8390813d8311610297575b6102858183610bd7565b81010312610293575f610231565b5f80fd5b503d61027b565b82513d5f823e3d90fd5b606484868551917f08c379a0000000000000000000000000000000000000000000000000000000008352820152601860248201527f496e73756666696369656e74204554482062616c616e636500000000000000006044820152fd5b5034610293575f7ffffffffffffffffffffffffffffffffffffffffffffffffffffffffffffffffc3601126102935760209051662386f26fc100008152f35b5034610293575f7ffffffffffffffffffffffffffffffffffffffffffffffffffffffffffffffffc360112610293576020905160038152f35b5034610293575f7ffffffffffffffffffffffffffffffffffffffffffffffffffffffffffffffffc3601126102935760209051621e84808152f35b5034610293575f7ffffffffffffffffffffffffffffffffffffffffffffffffffffffffffffffffc360112610293576020905173ffffffffffffffffffffffffffffffffffffffff7f0000000000000000000000000000000000000000000000000000000000000000168152f35b5034610293575f7ffffffffffffffffffffffffffffffffffffffffffffffffffffffffffffffffc360112610293576020905164012a05f2008152f35b5034610293575f7ffffffffffffffffffffffffffffffffffffffffffffffffffffffffffffffffc360112610293576020905173ffffffffffffffffffffffffffffffffffffffff7f0000000000000000000000000000000000000000000000000000000000000000168152f35b5034610293575f7ffffffffffffffffffffffffffffffffffffffffffffffffffffffffffffffffc360112610293576020905173ffffffffffffffffffffffffffffffffffffffff7f0000000000000000000000000000000000000000000000000000000000000000168152f35b5034610293575f7ffffffffffffffffffffffffffffffffffffffffffffffffffffffffffffffffc360112610293576020905173ffffffffffffffffffffffffffffffffffffffff7f0000000000000000000000000000000000000000000000000000000000000000168152f35b509060807ffffffffffffffffffffffffffffffffffffffffffffffffffffffffffffffffc360112610293576105e0610b6b565b906024803573ffffffffffffffffffffffffffffffffffffffff808216809203610293576044359260643594828616809603610293579582169584907f000000000000000000000000000000000000000000000000000000000000000084811689810361075957608492915f9161067e86602098997f0000000000000000000000000000000000000000000000000000000000000000168094610d18565b60038d5198899788967f6fd3504e0000000000000000000000000000000000000000000000000000000088528701528501528a604485015260648401525af1801561074f57610707575b50907fd7e09655439c3932e55857df3220186e5a7f0980825f20691c2b35d941dee75b9460809493925b815194855260208501528301526060820152a1005b60209493929194813d602011610747575b8161072560209383610bd7565b81010312610293575167ffffffffffffffff811603610293579091925f6106c8565b3d9150610718565b86513d5f823e3d90fd5b50509190506628db3066eac000918247106109ce57837f000000000000000000000000000000000000000000000000000000000000000016908951937fbda009fe00000000000000000000000000000000000000000000000000000000855289828601526020858581865afa9182156109c457888b938b975f9161097b575b50906107e49185610d18565b8b5196662386f26fc1000060208901528c808901525f60608901526060885261080c88610b8e565b736b175474e89094c44da98b954eedeac495271d0f84036108ec575061088b5f96978d51988997889687957fd2ce7d650000000000000000000000000000000000000000000000000000000087528601528401528a6044840152620493e0606484015264012a05f200608484015260c060a484015260c4830190610cd5565b03925af1801561074f57917fd7e09655439c3932e55857df3220186e5a7f0980825f20691c2b35d941dee75b96916080969594936108ca575b506106f2565b6108e5903d805f833e6108dd8183610bd7565b810190610c73565b505f6108c4565b94965f965061088b908d51988997889687957f4fb1a07b0000000000000000000000000000000000000000000000000000000087528601527f000000000000000000000000000000000000000000000000000000000000000016908401528b60448401528a6064840152620493e0608484015264012a05f20060a484015260e060c484015260e4830190610cd5565b939450505094506020813d6020116109bc575b8161099b60209383610bd7565b8101031261029357519085821682036102935788948a9289906107e46107d8565b3d915061098e565b8b513d5f823e3d90fd5b601860649260208b51937f08c379a00000000000000000000000000000000000000000000000000000000085528401528201527f496e73756666696369656e74204554482062616c616e636500000000000000006044820152fd5b5034610293575f7ffffffffffffffffffffffffffffffffffffffffffffffffffffffffffffffffc3601126102935760209051620493e08152f35b50346102935760207ffffffffffffffffffffffffffffffffffffffffffffffffffffffffffffffffc3601126102935781359063ffffffff82168092036102935764012a05f2009180830292830403610ad357662386f26fc10000918201809211610ad3576020925051908152f35b6011837f4e487b71000000000000000000000000000000000000000000000000000000005f525260245ffd5b34610293575f7ffffffffffffffffffffffffffffffffffffffffffffffffffffffffffffffffc3601126102935760209073ffffffffffffffffffffffffffffffffffffffff7f0000000000000000000000000000000000000000000000000000000000000000168152f35b6004359073ffffffffffffffffffffffffffffffffffffffff8216820361029357565b6080810190811067ffffffffffffffff821117610baa57604052565b7f4e487b71000000000000000000000000000000000000000000000000000000005f52604160045260245ffd5b90601f7fffffffffffffffffffffffffffffffffffffffffffffffffffffffffffffffe0910116810190811067ffffffffffffffff821117610baa57604052565b67ffffffffffffffff8111610baa57601f017fffffffffffffffffffffffffffffffffffffffffffffffffffffffffffffffe01660200190565b5f5b838110610c635750505f910152565b8181015183820152602001610c54565b6020818303126102935780519067ffffffffffffffff8211610293570181601f82011215610293578051610ca681610c18565b92610cb46040519485610bd7565b8184526020828401011161029357610cd29160208085019101610c52565b90565b907fffffffffffffffffffffffffffffffffffffffffffffffffffffffffffffffe0601f602093610d1181518092818752878088019101610c52565b0116010190565b9073ffffffffffffffffffffffffffffffffffffffff809216906040928351917fdd62ed3e00000000000000000000000000000000000000000000000000000000835230600484015216918260248301526020948583604481855afa928315610f69575f93610f3a575b508201809211610f0d57835191858301937f095ea7b30000000000000000000000000000000000000000000000000000000085526024840152604483015260448252610dcd82610b8e565b83519184830183811067ffffffffffffffff821117610baa5785528583527f5361666545524332303a206c6f772d6c6576656c2063616c6c206661696c65648387015251610e48935f91829182855af13d15610f05573d91610e2e83610c18565b92610e3b87519485610bd7565b83523d5f8885013e610f73565b8051838115918215610ee5575b5050905015610e62575050565b6084925051907f08c379a00000000000000000000000000000000000000000000000000000000082526004820152602a60248201527f5361666545524332303a204552433230206f7065726174696f6e20646964206e60448201527f6f742073756363656564000000000000000000000000000000000000000000006064820152fd5b83809293500103126102935782015180151581036102935780835f610e55565b606091610f73565b7f4e487b71000000000000000000000000000000000000000000000000000000005f52601160045260245ffd5b9092508581813d8311610f62575b610f528183610bd7565b810103126102935751915f610d82565b503d610f48565b85513d5f823e3d90fd5b91929015610fee5750815115610f87575090565b3b15610f905790565b60646040517f08c379a000000000000000000000000000000000000000000000000000000000815260206004820152601d60248201527f416464726573733a2063616c6c20746f206e6f6e2d636f6e74726163740000006044820152fd5b8251909150156110015750805190602001fd5b61103f906040519182917f08c379a0000000000000000000000000000000000000000000000000000000008352602060048401526024830190610cd5565b0390fdfea26469706673582212203b4076320bfdd539ce17fdb5bbd57247cae40c93d8947fff6ec96bafd03e1b1164736f6c63430008170033",
  "devdoc": {
    "details": "Public functions calling external contracts do not guard against reentrancy because they are expected to be called via delegatecall, which will execute this contract's logic within the context of the originating contract. For example, the HubPool will delegatecall these functions, therefore its only necessary that the HubPool's methods that call this contract's logic guard against reentrancy.",
    "kind": "dev",
    "methods": {
      "constructor": {
        "params": {
          "_cctpTokenMessenger": "TokenMessenger contract to bridge via CCTP.",
          "_l1ArbitrumInbox": "Inbox helper contract to send messages to Arbitrum.",
          "_l1ERC20GatewayRouter": "ERC20 gateway router contract to send tokens to Arbitrum.",
          "_l1Usdc": "USDC address on L1.",
          "_l2RefundL2Address": "L2 address to receive gas refunds on after a message is relayed."
        }
      },
      "getL1CallValue(uint32)": {
        "returns": {
          "_0": "amount of ETH that this contract needs to hold in order for relayMessage to succeed."
        }
      },
      "relayMessage(address,bytes)": {
        "params": {
          "message": "Data to send to target.",
          "target": "Contract on Arbitrum that will receive message."
        }
      },
      "relayTokens(address,address,uint256,address)": {
        "params": {
          "amount": "Amount of L1 tokens to deposit and L2 tokens to receive.",
          "l1Token": "L1 token to deposit.",
          "l2Token": "L2 token to receive.",
          "to": "Bridge recipient."
        }
      }
    },
    "stateVariables": {
      "cctpTokenMessenger": {
        "details": "Posted officially here: https://developers.circle.com/stablecoins/docs/evm-smart-contracts"
      },
      "circleDomainId": {
        "details": "This identifier is assigned by Circle and is not related to a chain ID.Official domain list can be found here: https://developers.circle.com/stablecoins/docs/supported-domains"
      },
      "l1Usdc": {
        "details": "Posted officially here: https://developers.circle.com/stablecoins/docs/usdc-on-main-networks"
      }
    },
    "version": 1
  },
  "userdoc": {
    "kind": "user",
    "methods": {
      "cctpTokenMessenger()": {
        "notice": "The official Circle CCTP token bridge contract endpoint."
      },
      "circleDomainId()": {
        "notice": "Domain identifier used for Circle's CCTP bridge on Arbitrum."
      },
      "constructor": {
        "notice": "Constructs new Adapter."
      },
      "getL1CallValue(uint32)": {
        "notice": "Returns required amount of ETH to send a message via the Inbox."
      },
      "l1Usdc()": {
        "notice": "The official USDC contract address on this chain."
      },
      "relayMessage(address,bytes)": {
        "notice": "Send cross-chain message to target on Arbitrum.This contract must hold at least getL1CallValue() amount of ETH to send a message via the Inbox successfully, or the message will get stuck."
      },
      "relayTokens(address,address,uint256,address)": {
        "notice": "Bridge tokens to Arbitrum.This contract must hold at least getL1CallValue() amount of ETH to send a message via the Inbox successfully, or the message will get stuck."
      }
    },
    "notice": "Contract containing logic to send messages from L1 to Arbitrum.",
    "version": 1
  },
  "storageLayout": {
    "storage": [],
    "types": null
  }
}