{
  "address": "0xbe37d8a126900698B1f6784a1D5C16253643D746",
  "abi": [
    {
      "inputs": [
        {
          "internalType": "contract ExtendedHubPoolInterface",
          "name": "_hubPool",
          "type": "address"
        }
      ],
      "stateMutability": "nonpayable",
      "type": "constructor"
    },
    {
      "anonymous": false,
      "inputs": [
        {
          "indexed": true,
          "internalType": "address",
          "name": "src",
          "type": "address"
        },
        {
          "indexed": true,
          "internalType": "address",
          "name": "guy",
          "type": "address"
        },
        {
          "indexed": false,
          "internalType": "uint256",
          "name": "wad",
          "type": "uint256"
        }
      ],
      "name": "Approval",
      "type": "event"
    },
    {
      "anonymous": false,
      "inputs": [
        {
          "indexed": true,
          "internalType": "address",
          "name": "dst",
          "type": "address"
        },
        {
          "indexed": false,
          "internalType": "uint256",
          "name": "wad",
          "type": "uint256"
        }
      ],
      "name": "Deposit",
      "type": "event"
    },
    {
      "anonymous": false,
      "inputs": [
        {
          "indexed": true,
          "internalType": "address",
          "name": "previousOwner",
          "type": "address"
        },
        {
          "indexed": true,
          "internalType": "address",
          "name": "newOwner",
          "type": "address"
        }
      ],
      "name": "OwnershipTransferred",
      "type": "event"
    },
    {
      "anonymous": false,
      "inputs": [
        {
          "indexed": false,
          "internalType": "address",
          "name": "proposer",
          "type": "address"
        },
        {
          "indexed": false,
          "internalType": "bool",
          "name": "enabled",
          "type": "bool"
        }
      ],
      "name": "ProposerModified",
      "type": "event"
    },
    {
      "anonymous": false,
      "inputs": [
        {
          "indexed": true,
          "internalType": "address",
          "name": "src",
          "type": "address"
        },
        {
          "indexed": true,
          "internalType": "address",
          "name": "dst",
          "type": "address"
        },
        {
          "indexed": false,
          "internalType": "uint256",
          "name": "wad",
          "type": "uint256"
        }
      ],
      "name": "Transfer",
      "type": "event"
    },
    {
      "anonymous": false,
      "inputs": [
        {
          "indexed": true,
          "internalType": "address",
          "name": "src",
          "type": "address"
        },
        {
          "indexed": false,
          "internalType": "uint256",
          "name": "wad",
          "type": "uint256"
        }
      ],
      "name": "Withdrawal",
      "type": "event"
    },
    {
      "stateMutability": "payable",
      "type": "fallback"
    },
    {
      "inputs": [
        {
          "internalType": "address",
          "name": "",
          "type": "address"
        },
        {
          "internalType": "address",
          "name": "",
          "type": "address"
        }
      ],
      "name": "allowance",
      "outputs": [
        {
          "internalType": "uint256",
          "name": "",
          "type": "uint256"
        }
      ],
      "stateMutability": "view",
      "type": "function"
    },
    {
      "inputs": [
        {
          "internalType": "address",
          "name": "guy",
          "type": "address"
        },
        {
          "internalType": "uint256",
          "name": "wad",
          "type": "uint256"
        }
      ],
      "name": "approve",
      "outputs": [
        {
          "internalType": "bool",
          "name": "",
          "type": "bool"
        }
      ],
      "stateMutability": "nonpayable",
      "type": "function"
    },
    {
      "inputs": [
        {
          "internalType": "address",
          "name": "",
          "type": "address"
        }
      ],
      "name": "balanceOf",
      "outputs": [
        {
          "internalType": "uint256",
          "name": "",
          "type": "uint256"
        }
      ],
      "stateMutability": "view",
      "type": "function"
    },
    {
      "inputs": [],
      "name": "decimals",
      "outputs": [
        {
          "internalType": "uint8",
          "name": "",
          "type": "uint8"
        }
      ],
      "stateMutability": "view",
      "type": "function"
    },
    {
      "inputs": [],
      "name": "deposit",
      "outputs": [],
      "stateMutability": "payable",
      "type": "function"
    },
    {
      "inputs": [],
      "name": "hubPool",
      "outputs": [
        {
          "internalType": "contract ExtendedHubPoolInterface",
          "name": "",
          "type": "address"
        }
      ],
      "stateMutability": "view",
      "type": "function"
    },
    {
      "inputs": [],
      "name": "name",
      "outputs": [
        {
          "internalType": "string",
          "name": "",
          "type": "string"
        }
      ],
      "stateMutability": "view",
      "type": "function"
    },
    {
      "inputs": [],
      "name": "owner",
      "outputs": [
        {
          "internalType": "address",
          "name": "",
          "type": "address"
        }
      ],
      "stateMutability": "view",
      "type": "function"
    },
    {
      "inputs": [
        {
          "internalType": "address",
          "name": "",
          "type": "address"
        }
      ],
      "name": "proposers",
      "outputs": [
        {
          "internalType": "bool",
          "name": "",
          "type": "bool"
        }
      ],
      "stateMutability": "view",
      "type": "function"
    },
    {
      "inputs": [],
      "name": "renounceOwnership",
      "outputs": [],
      "stateMutability": "nonpayable",
      "type": "function"
    },
    {
      "inputs": [
        {
          "internalType": "address",
          "name": "proposer",
          "type": "address"
        },
        {
          "internalType": "bool",
          "name": "enabled",
          "type": "bool"
        }
      ],
      "name": "setProposer",
      "outputs": [],
      "stateMutability": "nonpayable",
      "type": "function"
    },
    {
      "inputs": [],
      "name": "symbol",
      "outputs": [
        {
          "internalType": "string",
          "name": "",
          "type": "string"
        }
      ],
      "stateMutability": "view",
      "type": "function"
    },
    {
      "inputs": [],
      "name": "totalSupply",
      "outputs": [
        {
          "internalType": "uint256",
          "name": "",
          "type": "uint256"
        }
      ],
      "stateMutability": "view",
      "type": "function"
    },
    {
      "inputs": [
        {
          "internalType": "address",
          "name": "dst",
          "type": "address"
        },
        {
          "internalType": "uint256",
          "name": "wad",
          "type": "uint256"
        }
      ],
      "name": "transfer",
      "outputs": [
        {
          "internalType": "bool",
          "name": "",
          "type": "bool"
        }
      ],
      "stateMutability": "nonpayable",
      "type": "function"
    },
    {
      "inputs": [
        {
          "internalType": "address",
          "name": "src",
          "type": "address"
        },
        {
          "internalType": "address",
          "name": "dst",
          "type": "address"
        },
        {
          "internalType": "uint256",
          "name": "amt",
          "type": "uint256"
        }
      ],
      "name": "transferFrom",
      "outputs": [
        {
          "internalType": "bool",
          "name": "",
          "type": "bool"
        }
      ],
      "stateMutability": "nonpayable",
      "type": "function"
    },
    {
      "inputs": [
        {
          "internalType": "address",
          "name": "newOwner",
          "type": "address"
        }
      ],
      "name": "transferOwnership",
      "outputs": [],
      "stateMutability": "nonpayable",
      "type": "function"
    },
    {
      "inputs": [
        {
          "internalType": "uint256",
          "name": "wad",
          "type": "uint256"
        }
      ],
      "name": "withdraw",
      "outputs": [],
      "stateMutability": "nonpayable",
      "type": "function"
    },
    {
      "stateMutability": "payable",
      "type": "receive"
    }
  ],
  "transactionHash": "0x30bf3262fa9a77658d9ed190d76295682845fd37bcec4306280ab62948341686",
  "args": [
    "0x0e2817C49698cc0874204AeDf7c72Be2Bb7fCD5d"
  ],
  "numDeployments": 2,
  "solcInputHash": "ac53f31723117f34dde368547cb88dcf",
  "bytecode": "0x60a0346200015e57601f6200122d38819003918201601f19168301916001600160401b0383118484101762000163578084926020946040528339810103126200015e57516001600160a01b0380821682036200015e576000906200006e62000068835462000179565b620001b6565b601a6c2bb930b83832b21022ba3432b960991b0182556200009b6200009560015462000179565b620001ef565b6008630ae8aa8960e31b016001556002805460ff19166012179055600580546001600160a01b03198116339081179092559091167f8be0079c531659141344cd1fd0a4f28419497f9722a3daafe3b4186f6b6457e08380a36200010362000068825462000179565b60227020b1b937b9b9902137b732102a37b5b2b760791b0190556200012e6200009560015462000179565b60066210509560ea1b0160015560805260405161100190816200022c82396080518181816103490152610c1f0152f35b600080fd5b634e487b7160e01b600052604160045260246000fd5b90600182811c92168015620001ab575b60208310146200019557565b634e487b7160e01b600052602260045260246000fd5b91607f169162000189565b601f8111620001c25750565b6000808052601f60208220920160051c8201915b828110620001e357505050565b818155600101620001d6565b601f8111620001fb5750565b6001906000828152601f60208220920160051c8201915b828110620002205750505050565b81815583016200021256fe6080604081815260048036101561002c575b505050361561002457610022610f75565b005b610022610f75565b600092833560e01c90816306fdde031461098a57508063095ea7b3146108f057806318160ddd146108b7578063181774971461085057806323b872dd146108005780632e1a7d4d14610750578063313ce5671461071057806370a08231146106ae578063715018a6146106105780638da5cb5b146105bd57806395d89b4114610469578063a9059cbb14610418578063d0e30db0146103e0578063dd62ed3e1461036d578063e1904402146102fe578063e9ed9b641461022b5763f2fde38b0361001157346102275760207ffffffffffffffffffffffffffffffffffffffffffffffffffffffffffffffffc36011261022757610127610b38565b90610130610b83565b73ffffffffffffffffffffffffffffffffffffffff8092169283156101a4575050600554827fffffffffffffffffffffffff0000000000000000000000000000000000000000821617600555167f8be0079c531659141344cd1fd0a4f28419497f9722a3daafe3b4186f6b6457e08380a380f35b90602060849251917f08c379a0000000000000000000000000000000000000000000000000000000008352820152602660248201527f4f776e61626c653a206e6577206f776e657220697320746865207a65726f206160448201527f64647265737300000000000000000000000000000000000000000000000000006064820152fd5b8280fd5b5050346102fa57807ffffffffffffffffffffffffffffffffffffffffffffffffffffffffffffffffc3601126102fa57610263610b38565b906024358015158091036102f65773ffffffffffffffffffffffffffffffffffffffff7f4b2ff56cb8140854564224bc2ac25e8d8af40e193e614c06198454b2c580d961936102b0610b83565b169081855260066020528285207fffffffffffffffffffffffffffffffffffffffffffffffffffffffffffffff0081541660ff831617905582519182526020820152a180f35b8380fd5b5080fd5b5050346102fa57817ffffffffffffffffffffffffffffffffffffffffffffffffffffffffffffffffc3601126102fa576020905173ffffffffffffffffffffffffffffffffffffffff7f0000000000000000000000000000000000000000000000000000000000000000168152f35b503461022757817ffffffffffffffffffffffffffffffffffffffffffffffffffffffffffffffffc3601126102275760209282916103a9610b38565b6103b1610b60565b9173ffffffffffffffffffffffffffffffffffffffff8092168452865283832091168252845220549051908152f35b83807ffffffffffffffffffffffffffffffffffffffffffffffffffffffffffffffffc36011261041557610412610f75565b80f35b80fd5b5050346102fa57807ffffffffffffffffffffffffffffffffffffffffffffffffffffffffffffffffc3601126102fa57602090610460610456610b38565b6024359033610c02565b90519015158152f35b50903461022757827ffffffffffffffffffffffffffffffffffffffffffffffffffffffffffffffffc3601126102275780519183600180549182821c9282811680156105b3575b6020958686108214610587575084885290811561054757506001146104ef575b6104eb86866104e1828b0383610a62565b5191829182610ad2565b0390f35b9295508083527fb10e2d527612073b26eecdfd717e6a320cf44b4afac2b0732d9fcbe2b7fa0cf65b82841061053457505050826104eb946104e19282010194386104d0565b8054868501880152928601928101610517565b7fffffffffffffffffffffffffffffffffffffffffffffffffffffffffffffff001687860152505050151560051b83010192506104e1826104eb386104d0565b8360226024927f4e487b7100000000000000000000000000000000000000000000000000000000835252fd5b93607f16936104b0565b5050346102fa57817ffffffffffffffffffffffffffffffffffffffffffffffffffffffffffffffffc3601126102fa5760209073ffffffffffffffffffffffffffffffffffffffff600554169051908152f35b833461041557807ffffffffffffffffffffffffffffffffffffffffffffffffffffffffffffffffc36011261041557610647610b83565b8073ffffffffffffffffffffffffffffffffffffffff6005547fffffffffffffffffffffffff00000000000000000000000000000000000000008116600555167f8be0079c531659141344cd1fd0a4f28419497f9722a3daafe3b4186f6b6457e08280a380f35b5050346102fa5760207ffffffffffffffffffffffffffffffffffffffffffffffffffffffffffffffffc3601126102fa578060209273ffffffffffffffffffffffffffffffffffffffff610700610b38565b1681526003845220549051908152f35b5050346102fa57817ffffffffffffffffffffffffffffffffffffffffffffffffffffffffffffffffc3601126102fa5760209060ff600254169051908152f35b50346102275760207ffffffffffffffffffffffffffffffffffffffffffffffffffffffffffffffffc360112610227573590338352600360205280832080548381106107fc57836107a091610fbe565b905582808380156107f2575b8280929181923390f1156107e757519081527f7fcf532c15f0a6db0bd6d0e038bea71d30d808c7d98cb3bf7268a95bf5081b6560203392a280f35b51913d9150823e3d90fd5b6108fc91506107ac565b8480fd5b5050346102fa5760607ffffffffffffffffffffffffffffffffffffffffffffffffffffffffffffffffc3601126102fa5760209061046061083f610b38565b610847610b60565b60443591610c02565b5050346102fa5760207ffffffffffffffffffffffffffffffffffffffffffffffffffffffffffffffffc3601126102fa5760ff8160209373ffffffffffffffffffffffffffffffffffffffff6108a4610b38565b1681526006855220541690519015158152f35b5050346102fa57817ffffffffffffffffffffffffffffffffffffffffffffffffffffffffffffffffc3601126102fa5751478152602090f35b503461022757817ffffffffffffffffffffffffffffffffffffffffffffffffffffffffffffffffc3601126102275760209261092a610b38565b9183602435928392338252875273ffffffffffffffffffffffffffffffffffffffff8282209516948582528752205582519081527f8c5be1e5ebec7d5bd14f71427d1e84f3dd0314c0f7b2291e5b200ac8c7c3b925843392a35160018152f35b92919050346102f657837ffffffffffffffffffffffffffffffffffffffffffffffffffffffffffffffffc3601126102f6578354600181811c9186908281168015610a58575b602095868610821461058757508488529081156105475750600114610a00576104eb86866104e1828b0383610a62565b8080949750527f290decd9548b62a8d60345a988386fc84ba6bc95484008f6362f93160ef3e5635b828410610a4557505050826104eb946104e19282010194386104d0565b8054868501880152928601928101610a28565b93607f16936109d0565b90601f7fffffffffffffffffffffffffffffffffffffffffffffffffffffffffffffffe0910116810190811067ffffffffffffffff821117610aa357604052565b7f4e487b7100000000000000000000000000000000000000000000000000000000600052604160045260246000fd5b60208082528251818301819052939260005b858110610b24575050507fffffffffffffffffffffffffffffffffffffffffffffffffffffffffffffffe0601f8460006040809697860101520116010190565b818101830151848201604001528201610ae4565b6004359073ffffffffffffffffffffffffffffffffffffffff82168203610b5b57565b600080fd5b6024359073ffffffffffffffffffffffffffffffffffffffff82168203610b5b57565b73ffffffffffffffffffffffffffffffffffffffff600554163303610ba457565b60646040517f08c379a000000000000000000000000000000000000000000000000000000000815260206004820152602060248201527f4f776e61626c653a2063616c6c6572206973206e6f7420746865206f776e65726044820152fd5b92919273ffffffffffffffffffffffffffffffffffffffff9081807f000000000000000000000000000000000000000000000000000000000000000016931692808414610d76575b5016600093818552602090600382526040818188205410610d39573384141580610d3d575b610cd0575b8087857fddf252ad1be2c89b69c2b068fc378daa952ba7f163c4a11628f55a4df523b3ef969798995260038552818120610caf858254610fbe565b90558781526003855220610cc4838254610f39565b905551908152a3600190565b838752600483528087203388528352818188205410610d39578087857fddf252ad1be2c89b69c2b068fc378daa952ba7f163c4a11628f55a4df523b3ef9697989952600485528181203382528552818120610d2c858254610fbe565b9055979695945050610c74565b8680fd5b506004835280872033885283527fffffffffffffffffffffffffffffffffffffffffffffffffffffffffffffffff818820541415610c6f565b82821690600091808352600660205260409260ff8482205416928315610dfb575b505050610c4a57606490517f08c379a000000000000000000000000000000000000000000000000000000000815260206004820152601660248201527f5472616e73666572206e6f74207065726d6974746564000000000000000000006044820152fd5b60049192935060e0908551928380927f4144fd610000000000000000000000000000000000000000000000000000000082525afa918215610f2e5790818793610e50575b505060800151161415388080610d97565b9150915060e0823d8211610f26575b81610e6c60e09383610a62565b810103126104155783519160e0830183811067ffffffffffffffff821117610ef957855280518352602081015160208401528481015185840152606081015160608401526080810151878116810361022757608084015260a081015160ff811681036102275760a084015260c001519063ffffffff82168203610415575060c08201528490608038610e3f565b6024837f4e487b710000000000000000000000000000000000000000000000000000000081526041600452fd5b3d9150610e5f565b8451903d90823e3d90fd5b91908201809211610f4657565b7f4e487b7100000000000000000000000000000000000000000000000000000000600052601160045260246000fd5b3360005260036020526040600020610f8e348254610f39565b90556040513481527fe1fffcc4923d04b559f4d29a8bfc6cda04eb5b0d3c460751c2402c5c5cc9109c60203392a2565b91908203918211610f465756fea264697066735822122007d7bab5a83d41c7a4f20478fd45a734a31dda4d276a575c12c9e979927021de64736f6c63430008120033",
  "devdoc": {
    "kind": "dev",
    "methods": {
      "constructor": {
        "params": {
          "_hubPool": "Address of the target HubPool contract."
        }
      },
      "owner()": {
        "details": "Returns the address of the current owner."
      },
      "renounceOwnership()": {
        "details": "Leaves the contract without owner. It will not be possible to call `onlyOwner` functions. Can only be called by the current owner. NOTE: Renouncing ownership will leave the contract without an owner, thereby disabling any functionality that is only available to the owner."
      },
      "setProposer(address,bool)": {
        "params": {
          "enabled": "Boolean controlling whether the address is permitted to propose.",
          "proposer": "Proposer address to modify."
        }
      },
      "transferFrom(address,address,uint256)": {
        "details": "The require(..., \"Transfer not permitted\") statement is dependent on the internal ordering of HubPool proposedRootBundle state variable updates, relative to calling bondToken.safeTransferFrom(). Changing the order of HubPool actions may invalidate this verification. BondToken tests are implemented to detect this.",
        "params": {
          "amt": "Amount to transfer.",
          "dst": "Destination address.",
          "src": "Source address."
        },
        "returns": {
          "_0": "True on success."
        }
      },
      "transferOwnership(address)": {
        "details": "Transfers ownership of the contract to a new account (`newOwner`). Can only be called by the current owner."
      }
    },
    "version": 1
  },
  "userdoc": {
    "events": {
      "ProposerModified(address,bool)": {
        "notice": "Emitted on proposer permissions update."
      }
    },
    "kind": "user",
    "methods": {
      "constructor": {
        "notice": "BondToken constructor."
      },
      "proposers(address)": {
        "notice": "Addresses that are permitted to make HubPool root bundle proposals."
      },
      "setProposer(address,bool)": {
        "notice": "Enable or disable an address as an allowed proposer. Emits a \"ProposerModified\" event on completion."
      },
      "transferFrom(address,address,uint256)": {
        "notice": "Transfer amt from src to dst. Prevents unauthorised root bundle proposals by blocking transfers to the HubPool under the following conditions: - The src address is not a pre-approved proposer, *and* - The src address is the current proposer of a HubPool root bundle. Falls back to the base implementation after verifying that the transfer is permitted."
      }
    },
    "notice": "Across Bond Token (ABT). ABT is a simple deposit contract based on WETH9. ABT is issued proportionally to any address that deposits Ether. It imposes address-based permissioning on the WETH9 transferFrom() function in order to constrain the movement of ABT into the Across v2 HubPool contract. When configured as the required HubPool bond token, ABT can dramatically reduce the attack surface of the HubPool by requiring that addresses are explicitly approved before they can successfully submit a root bundle proposal. The address-based permissioning does not constrain transfers that are needed to dispute a root bundle proposal, so the ability of decentralised/unknown actors to dispute is unaffected.",
    "version": 1
  },
  "storageLayout": {
    "storage": [
      {
        "astId": 671,
        "contract": "contracts/BondToken.sol:BondToken",
        "label": "name",
        "offset": 0,
        "slot": "0",
        "type": "t_string_storage"
      },
      {
        "astId": 674,
        "contract": "contracts/BondToken.sol:BondToken",
        "label": "symbol",
        "offset": 0,
        "slot": "1",
        "type": "t_string_storage"
      },
      {
        "astId": 677,
        "contract": "contracts/BondToken.sol:BondToken",
        "label": "decimals",
        "offset": 0,
        "slot": "2",
        "type": "t_uint8"
      },
      {
        "astId": 709,
        "contract": "contracts/BondToken.sol:BondToken",
        "label": "balanceOf",
        "offset": 0,
        "slot": "3",
        "type": "t_mapping(t_address,t_uint256)"
      },
      {
        "astId": 715,
        "contract": "contracts/BondToken.sol:BondToken",
        "label": "allowance",
        "offset": 0,
        "slot": "4",
        "type": "t_mapping(t_address,t_mapping(t_address,t_uint256))"
      },
      {
        "astId": 7,
        "contract": "contracts/BondToken.sol:BondToken",
        "label": "_owner",
        "offset": 0,
        "slot": "5",
        "type": "t_address"
      },
      {
        "astId": 573,
        "contract": "contracts/BondToken.sol:BondToken",
        "label": "proposers",
        "offset": 0,
        "slot": "6",
        "type": "t_mapping(t_address,t_bool)"
      }
    ],
    "types": {
      "t_address": {
        "encoding": "inplace",
        "label": "address",
        "numberOfBytes": "20"
      },
      "t_bool": {
        "encoding": "inplace",
        "label": "bool",
        "numberOfBytes": "1"
      },
      "t_mapping(t_address,t_bool)": {
        "encoding": "mapping",
        "key": "t_address",
        "label": "mapping(address => bool)",
        "numberOfBytes": "32",
        "value": "t_bool"
      },
      "t_mapping(t_address,t_mapping(t_address,t_uint256))": {
        "encoding": "mapping",
        "key": "t_address",
        "label": "mapping(address => mapping(address => uint256))",
        "numberOfBytes": "32",
        "value": "t_mapping(t_address,t_uint256)"
      },
      "t_mapping(t_address,t_uint256)": {
        "encoding": "mapping",
        "key": "t_address",
        "label": "mapping(address => uint256)",
        "numberOfBytes": "32",
        "value": "t_uint256"
      },
      "t_string_storage": {
        "encoding": "bytes",
        "label": "string",
        "numberOfBytes": "32"
      },
      "t_uint256": {
        "encoding": "inplace",
        "label": "uint256",
        "numberOfBytes": "32"
      },
      "t_uint8": {
        "encoding": "inplace",
        "label": "uint8",
        "numberOfBytes": "1"
      }
    }
  }
}