{
  "address": "0x69CA24D3084a2eea77E061E2D7aF9b76D107b4f6",
  "abi": [
    {
      "inputs": [
        {
          "internalType": "contract LpTokenFactoryInterface",
          "name": "_lpTokenFactory",
          "type": "address"
        },
        {
          "internalType": "contract FinderInterface",
          "name": "_finder",
          "type": "address"
        },
        {
          "internalType": "contract WETH9",
          "name": "_weth",
          "type": "address"
        },
        {
          "internalType": "address",
          "name": "_timer",
          "type": "address"
        }
      ],
      "stateMutability": "nonpayable",
      "type": "constructor"
    },
    {
      "anonymous": false,
      "inputs": [
        {
          "indexed": true,
          "internalType": "address",
          "name": "newBondToken",
          "type": "address"
        },
        {
          "indexed": false,
          "internalType": "uint256",
          "name": "newBondAmount",
          "type": "uint256"
        }
      ],
      "name": "BondSet",
      "type": "event"
    },
    {
      "anonymous": false,
      "inputs": [
        {
          "indexed": false,
          "internalType": "uint256",
          "name": "l2ChainId",
          "type": "uint256"
        },
        {
          "indexed": false,
          "internalType": "address",
          "name": "adapter",
          "type": "address"
        },
        {
          "indexed": false,
          "internalType": "address",
          "name": "spokePool",
          "type": "address"
        }
      ],
      "name": "CrossChainContractsSet",
      "type": "event"
    },
    {
      "anonymous": false,
      "inputs": [
        {
          "indexed": true,
          "internalType": "bytes32",
          "name": "poolRebalanceRoot",
          "type": "bytes32"
        },
        {
          "indexed": true,
          "internalType": "bytes32",
          "name": "relayerRefundRoot",
          "type": "bytes32"
        },
        {
          "indexed": false,
          "internalType": "bytes32",
          "name": "slowRelayRoot",
          "type": "bytes32"
        },
        {
          "indexed": true,
          "internalType": "address",
          "name": "proposer",
          "type": "address"
        }
      ],
      "name": "EmergencyRootBundleDeleted",
      "type": "event"
    },
    {
      "anonymous": false,
      "inputs": [
        {
          "indexed": false,
          "internalType": "bytes32",
          "name": "newIdentifier",
          "type": "bytes32"
        }
      ],
      "name": "IdentifierSet",
      "type": "event"
    },
    {
      "anonymous": false,
      "inputs": [
        {
          "indexed": false,
          "internalType": "address",
          "name": "l1Token",
          "type": "address"
        },
        {
          "indexed": false,
          "internalType": "address",
          "name": "lpToken",
          "type": "address"
        }
      ],
      "name": "L1TokenEnabledForLiquidityProvision",
      "type": "event"
    },
    {
      "anonymous": false,
      "inputs": [
        {
          "indexed": false,
          "internalType": "address",
          "name": "l1Token",
          "type": "address"
        },
        {
          "indexed": false,
          "internalType": "address",
          "name": "lpToken",
          "type": "address"
        }
      ],
      "name": "L2TokenDisabledForLiquidityProvision",
      "type": "event"
    },
    {
      "anonymous": false,
      "inputs": [
        {
          "indexed": true,
          "internalType": "address",
          "name": "l1Token",
          "type": "address"
        },
        {
          "indexed": false,
          "internalType": "uint256",
          "name": "amount",
          "type": "uint256"
        },
        {
          "indexed": false,
          "internalType": "uint256",
          "name": "lpTokensMinted",
          "type": "uint256"
        },
        {
          "indexed": true,
          "internalType": "address",
          "name": "liquidityProvider",
          "type": "address"
        }
      ],
      "name": "LiquidityAdded",
      "type": "event"
    },
    {
      "anonymous": false,
      "inputs": [
        {
          "indexed": true,
          "internalType": "address",
          "name": "l1Token",
          "type": "address"
        },
        {
          "indexed": false,
          "internalType": "uint256",
          "name": "amount",
          "type": "uint256"
        },
        {
          "indexed": false,
          "internalType": "uint256",
          "name": "lpTokensBurnt",
          "type": "uint256"
        },
        {
          "indexed": true,
          "internalType": "address",
          "name": "liquidityProvider",
          "type": "address"
        }
      ],
      "name": "LiquidityRemoved",
      "type": "event"
    },
    {
      "anonymous": false,
      "inputs": [
        {
          "indexed": false,
          "internalType": "uint256",
          "name": "newLiveness",
          "type": "uint256"
        }
      ],
      "name": "LivenessSet",
      "type": "event"
    },
    {
      "anonymous": false,
      "inputs": [
        {
          "indexed": true,
          "internalType": "address",
          "name": "previousOwner",
          "type": "address"
        },
        {
          "indexed": true,
          "internalType": "address",
          "name": "newOwner",
          "type": "address"
        }
      ],
      "name": "OwnershipTransferred",
      "type": "event"
    },
    {
      "anonymous": false,
      "inputs": [
        {
          "indexed": true,
          "internalType": "bool",
          "name": "isPaused",
          "type": "bool"
        }
      ],
      "name": "Paused",
      "type": "event"
    },
    {
      "anonymous": false,
      "inputs": [
        {
          "indexed": false,
          "internalType": "uint32",
          "name": "challengePeriodEndTimestamp",
          "type": "uint32"
        },
        {
          "indexed": false,
          "internalType": "uint64",
          "name": "poolRebalanceLeafCount",
          "type": "uint64"
        },
        {
          "indexed": false,
          "internalType": "uint256[]",
          "name": "bundleEvaluationBlockNumbers",
          "type": "uint256[]"
        },
        {
          "indexed": true,
          "internalType": "bytes32",
          "name": "poolRebalanceRoot",
          "type": "bytes32"
        },
        {
          "indexed": true,
          "internalType": "bytes32",
          "name": "relayerRefundRoot",
          "type": "bytes32"
        },
        {
          "indexed": false,
          "internalType": "bytes32",
          "name": "slowRelayRoot",
          "type": "bytes32"
        },
        {
          "indexed": true,
          "internalType": "address",
          "name": "proposer",
          "type": "address"
        }
      ],
      "name": "ProposeRootBundle",
      "type": "event"
    },
    {
      "anonymous": false,
      "inputs": [
        {
          "indexed": true,
          "internalType": "address",
          "name": "newProtocolFeeCaptureAddress",
          "type": "address"
        },
        {
          "indexed": true,
          "internalType": "uint256",
          "name": "newProtocolFeeCapturePct",
          "type": "uint256"
        }
      ],
      "name": "ProtocolFeeCaptureSet",
      "type": "event"
    },
    {
      "anonymous": false,
      "inputs": [
        {
          "indexed": true,
          "internalType": "address",
          "name": "l1Token",
          "type": "address"
        },
        {
          "indexed": true,
          "internalType": "uint256",
          "name": "accumulatedFees",
          "type": "uint256"
        }
      ],
      "name": "ProtocolFeesCapturedClaimed",
      "type": "event"
    },
    {
      "anonymous": false,
      "inputs": [
        {
          "indexed": true,
          "internalType": "address",
          "name": "disputer",
          "type": "address"
        },
        {
          "indexed": false,
          "internalType": "uint256",
          "name": "requestTime",
          "type": "uint256"
        }
      ],
      "name": "RootBundleCanceled",
      "type": "event"
    },
    {
      "anonymous": false,
      "inputs": [
        {
          "indexed": true,
          "internalType": "address",
          "name": "disputer",
          "type": "address"
        },
        {
          "indexed": false,
          "internalType": "uint256",
          "name": "requestTime",
          "type": "uint256"
        }
      ],
      "name": "RootBundleDisputed",
      "type": "event"
    },
    {
      "anonymous": false,
      "inputs": [
        {
          "indexed": false,
          "internalType": "uint256",
          "name": "groupIndex",
          "type": "uint256"
        },
        {
          "indexed": true,
          "internalType": "uint256",
          "name": "leafId",
          "type": "uint256"
        },
        {
          "indexed": true,
          "internalType": "uint256",
          "name": "chainId",
          "type": "uint256"
        },
        {
          "indexed": false,
          "internalType": "address[]",
          "name": "l1Tokens",
          "type": "address[]"
        },
        {
          "indexed": false,
          "internalType": "uint256[]",
          "name": "bundleLpFees",
          "type": "uint256[]"
        },
        {
          "indexed": false,
          "internalType": "int256[]",
          "name": "netSendAmounts",
          "type": "int256[]"
        },
        {
          "indexed": false,
          "internalType": "int256[]",
          "name": "runningBalances",
          "type": "int256[]"
        },
        {
          "indexed": true,
          "internalType": "address",
          "name": "caller",
          "type": "address"
        }
      ],
      "name": "RootBundleExecuted",
      "type": "event"
    },
    {
      "anonymous": false,
      "inputs": [
        {
          "indexed": true,
          "internalType": "uint256",
          "name": "originChainId",
          "type": "uint256"
        },
        {
          "indexed": true,
          "internalType": "uint256",
          "name": "destinationChainId",
          "type": "uint256"
        },
        {
          "indexed": true,
          "internalType": "address",
          "name": "originToken",
          "type": "address"
        },
        {
          "indexed": false,
          "internalType": "bool",
          "name": "depositsEnabled",
          "type": "bool"
        }
      ],
      "name": "SetEnableDepositRoute",
      "type": "event"
    },
    {
      "anonymous": false,
      "inputs": [
        {
          "indexed": true,
          "internalType": "uint256",
          "name": "destinationChainId",
          "type": "uint256"
        },
        {
          "indexed": true,
          "internalType": "address",
          "name": "l1Token",
          "type": "address"
        },
        {
          "indexed": true,
          "internalType": "address",
          "name": "destinationToken",
          "type": "address"
        }
      ],
      "name": "SetPoolRebalanceRoute",
      "type": "event"
    },
    {
      "anonymous": false,
      "inputs": [
        {
          "indexed": true,
          "internalType": "uint256",
          "name": "chainId",
          "type": "uint256"
        },
        {
          "indexed": false,
          "internalType": "bytes",
          "name": "message",
          "type": "bytes"
        }
      ],
      "name": "SpokePoolAdminFunctionTriggered",
      "type": "event"
    },
    {
      "stateMutability": "payable",
      "type": "fallback"
    },
    {
      "inputs": [
        {
          "internalType": "address",
          "name": "l1Token",
          "type": "address"
        },
        {
          "internalType": "uint256",
          "name": "l1TokenAmount",
          "type": "uint256"
        }
      ],
      "name": "addLiquidity",
      "outputs": [],
      "stateMutability": "payable",
      "type": "function"
    },
    {
      "inputs": [],
      "name": "bondAmount",
      "outputs": [
        {
          "internalType": "uint256",
          "name": "",
          "type": "uint256"
        }
      ],
      "stateMutability": "view",
      "type": "function"
    },
    {
      "inputs": [],
      "name": "bondToken",
      "outputs": [
        {
          "internalType": "contract IERC20",
          "name": "",
          "type": "address"
        }
      ],
      "stateMutability": "view",
      "type": "function"
    },
    {
      "inputs": [
        {
          "internalType": "address",
          "name": "l1Token",
          "type": "address"
        }
      ],
      "name": "claimProtocolFeesCaptured",
      "outputs": [],
      "stateMutability": "nonpayable",
      "type": "function"
    },
    {
      "inputs": [
        {
          "internalType": "uint256",
          "name": "",
          "type": "uint256"
        }
      ],
      "name": "crossChainContracts",
      "outputs": [
        {
          "internalType": "address",
          "name": "adapter",
          "type": "address"
        },
        {
          "internalType": "address",
          "name": "spokePool",
          "type": "address"
        }
      ],
      "stateMutability": "view",
      "type": "function"
    },
    {
      "inputs": [
        {
          "internalType": "address",
          "name": "l1Token",
          "type": "address"
        }
      ],
      "name": "disableL1TokenForLiquidityProvision",
      "outputs": [],
      "stateMutability": "nonpayable",
      "type": "function"
    },
    {
      "inputs": [],
      "name": "disputeRootBundle",
      "outputs": [],
      "stateMutability": "nonpayable",
      "type": "function"
    },
    {
      "inputs": [],
      "name": "emergencyDeleteProposal",
      "outputs": [],
      "stateMutability": "nonpayable",
      "type": "function"
    },
    {
      "inputs": [
        {
          "internalType": "address",
          "name": "l1Token",
          "type": "address"
        }
      ],
      "name": "enableL1TokenForLiquidityProvision",
      "outputs": [],
      "stateMutability": "nonpayable",
      "type": "function"
    },
    {
      "inputs": [
        {
          "internalType": "address",
          "name": "l1Token",
          "type": "address"
        }
      ],
      "name": "exchangeRateCurrent",
      "outputs": [
        {
          "internalType": "uint256",
          "name": "",
          "type": "uint256"
        }
      ],
      "stateMutability": "nonpayable",
      "type": "function"
    },
    {
      "inputs": [
        {
          "internalType": "uint256",
          "name": "chainId",
          "type": "uint256"
        },
        {
          "internalType": "uint256",
          "name": "groupIndex",
          "type": "uint256"
        },
        {
          "internalType": "uint256[]",
          "name": "bundleLpFees",
          "type": "uint256[]"
        },
        {
          "internalType": "int256[]",
          "name": "netSendAmounts",
          "type": "int256[]"
        },
        {
          "internalType": "int256[]",
          "name": "runningBalances",
          "type": "int256[]"
        },
        {
          "internalType": "uint8",
          "name": "leafId",
          "type": "uint8"
        },
        {
          "internalType": "address[]",
          "name": "l1Tokens",
          "type": "address[]"
        },
        {
          "internalType": "bytes32[]",
          "name": "proof",
          "type": "bytes32[]"
        }
      ],
      "name": "executeRootBundle",
      "outputs": [],
      "stateMutability": "nonpayable",
      "type": "function"
    },
    {
      "inputs": [],
      "name": "finder",
      "outputs": [
        {
          "internalType": "contract FinderInterface",
          "name": "",
          "type": "address"
        }
      ],
      "stateMutability": "view",
      "type": "function"
    },
    {
      "inputs": [],
      "name": "getCurrentTime",
      "outputs": [
        {
          "internalType": "uint256",
          "name": "",
          "type": "uint256"
        }
      ],
      "stateMutability": "view",
      "type": "function"
    },
    {
      "inputs": [],
      "name": "identifier",
      "outputs": [
        {
          "internalType": "bytes32",
          "name": "",
          "type": "bytes32"
        }
      ],
      "stateMutability": "view",
      "type": "function"
    },
    {
      "inputs": [
        {
          "internalType": "address",
          "name": "l1Token",
          "type": "address"
        }
      ],
      "name": "liquidityUtilizationCurrent",
      "outputs": [
        {
          "internalType": "uint256",
          "name": "",
          "type": "uint256"
        }
      ],
      "stateMutability": "nonpayable",
      "type": "function"
    },
    {
      "inputs": [
        {
          "internalType": "address",
          "name": "l1Token",
          "type": "address"
        },
        {
          "internalType": "uint256",
          "name": "relayedAmount",
          "type": "uint256"
        }
      ],
      "name": "liquidityUtilizationPostRelay",
      "outputs": [
        {
          "internalType": "uint256",
          "name": "",
          "type": "uint256"
        }
      ],
      "stateMutability": "nonpayable",
      "type": "function"
    },
    {
      "inputs": [],
      "name": "liveness",
      "outputs": [
        {
          "internalType": "uint32",
          "name": "",
          "type": "uint32"
        }
      ],
      "stateMutability": "view",
      "type": "function"
    },
    {
      "inputs": [],
      "name": "loadEthForL2Calls",
      "outputs": [],
      "stateMutability": "payable",
      "type": "function"
    },
    {
      "inputs": [],
      "name": "lpFeeRatePerSecond",
      "outputs": [
        {
          "internalType": "uint256",
          "name": "",
          "type": "uint256"
        }
      ],
      "stateMutability": "view",
      "type": "function"
    },
    {
      "inputs": [],
      "name": "lpTokenFactory",
      "outputs": [
        {
          "internalType": "contract LpTokenFactoryInterface",
          "name": "",
          "type": "address"
        }
      ],
      "stateMutability": "view",
      "type": "function"
    },
    {
      "inputs": [
        {
          "internalType": "bytes[]",
          "name": "data",
          "type": "bytes[]"
        }
      ],
      "name": "multicall",
      "outputs": [
        {
          "internalType": "bytes[]",
          "name": "results",
          "type": "bytes[]"
        }
      ],
      "stateMutability": "payable",
      "type": "function"
    },
    {
      "inputs": [],
      "name": "owner",
      "outputs": [
        {
          "internalType": "address",
          "name": "",
          "type": "address"
        }
      ],
      "stateMutability": "view",
      "type": "function"
    },
    {
      "inputs": [],
      "name": "paused",
      "outputs": [
        {
          "internalType": "bool",
          "name": "",
          "type": "bool"
        }
      ],
      "stateMutability": "view",
      "type": "function"
    },
    {
      "inputs": [
        {
          "internalType": "uint256",
          "name": "destinationChainId",
          "type": "uint256"
        },
        {
          "internalType": "address",
          "name": "l1Token",
          "type": "address"
        }
      ],
      "name": "poolRebalanceRoute",
      "outputs": [
        {
          "internalType": "address",
          "name": "destinationToken",
          "type": "address"
        }
      ],
      "stateMutability": "view",
      "type": "function"
    },
    {
      "inputs": [
        {
          "internalType": "address",
          "name": "",
          "type": "address"
        }
      ],
      "name": "pooledTokens",
      "outputs": [
        {
          "internalType": "address",
          "name": "lpToken",
          "type": "address"
        },
        {
          "internalType": "bool",
          "name": "isEnabled",
          "type": "bool"
        },
        {
          "internalType": "uint32",
          "name": "lastLpFeeUpdate",
          "type": "uint32"
        },
        {
          "internalType": "int256",
          "name": "utilizedReserves",
          "type": "int256"
        },
        {
          "internalType": "uint256",
          "name": "liquidReserves",
          "type": "uint256"
        },
        {
          "internalType": "uint256",
          "name": "undistributedLpFees",
          "type": "uint256"
        }
      ],
      "stateMutability": "view",
      "type": "function"
    },
    {
      "inputs": [
        {
          "internalType": "uint256[]",
          "name": "bundleEvaluationBlockNumbers",
          "type": "uint256[]"
        },
        {
          "internalType": "uint8",
          "name": "poolRebalanceLeafCount",
          "type": "uint8"
        },
        {
          "internalType": "bytes32",
          "name": "poolRebalanceRoot",
          "type": "bytes32"
        },
        {
          "internalType": "bytes32",
          "name": "relayerRefundRoot",
          "type": "bytes32"
        },
        {
          "internalType": "bytes32",
          "name": "slowRelayRoot",
          "type": "bytes32"
        }
      ],
      "name": "proposeRootBundle",
      "outputs": [],
      "stateMutability": "nonpayable",
      "type": "function"
    },
    {
      "inputs": [],
      "name": "protocolFeeCaptureAddress",
      "outputs": [
        {
          "internalType": "address",
          "name": "",
          "type": "address"
        }
      ],
      "stateMutability": "view",
      "type": "function"
    },
    {
      "inputs": [],
      "name": "protocolFeeCapturePct",
      "outputs": [
        {
          "internalType": "uint256",
          "name": "",
          "type": "uint256"
        }
      ],
      "stateMutability": "view",
      "type": "function"
    },
    {
      "inputs": [
        {
          "internalType": "uint256",
          "name": "chainId",
          "type": "uint256"
        },
        {
          "internalType": "bytes",
          "name": "functionData",
          "type": "bytes"
        }
      ],
      "name": "relaySpokePoolAdminFunction",
      "outputs": [],
      "stateMutability": "nonpayable",
      "type": "function"
    },
    {
      "inputs": [
        {
          "internalType": "address",
          "name": "l1Token",
          "type": "address"
        },
        {
          "internalType": "uint256",
          "name": "lpTokenAmount",
          "type": "uint256"
        },
        {
          "internalType": "bool",
          "name": "sendEth",
          "type": "bool"
        }
      ],
      "name": "removeLiquidity",
      "outputs": [],
      "stateMutability": "nonpayable",
      "type": "function"
    },
    {
      "inputs": [],
      "name": "renounceOwnership",
      "outputs": [],
      "stateMutability": "nonpayable",
      "type": "function"
    },
    {
      "inputs": [],
      "name": "rootBundleProposal",
      "outputs": [
        {
          "internalType": "bytes32",
          "name": "poolRebalanceRoot",
          "type": "bytes32"
        },
        {
          "internalType": "bytes32",
          "name": "relayerRefundRoot",
          "type": "bytes32"
        },
        {
          "internalType": "bytes32",
          "name": "slowRelayRoot",
          "type": "bytes32"
        },
        {
          "internalType": "uint256",
          "name": "claimedBitMap",
          "type": "uint256"
        },
        {
          "internalType": "address",
          "name": "proposer",
          "type": "address"
        },
        {
          "internalType": "uint8",
          "name": "unclaimedPoolRebalanceLeafCount",
          "type": "uint8"
        },
        {
          "internalType": "uint32",
          "name": "challengePeriodEndTimestamp",
          "type": "uint32"
        }
      ],
      "stateMutability": "view",
      "type": "function"
    },
    {
      "inputs": [
        {
          "internalType": "contract IERC20",
          "name": "newBondToken",
          "type": "address"
        },
        {
          "internalType": "uint256",
          "name": "newBondAmount",
          "type": "uint256"
        }
      ],
      "name": "setBond",
      "outputs": [],
      "stateMutability": "nonpayable",
      "type": "function"
    },
    {
      "inputs": [
        {
          "internalType": "uint256",
          "name": "l2ChainId",
          "type": "uint256"
        },
        {
          "internalType": "address",
          "name": "adapter",
          "type": "address"
        },
        {
          "internalType": "address",
          "name": "spokePool",
          "type": "address"
        }
      ],
      "name": "setCrossChainContracts",
      "outputs": [],
      "stateMutability": "nonpayable",
      "type": "function"
    },
    {
      "inputs": [
        {
          "internalType": "uint256",
          "name": "time",
          "type": "uint256"
        }
      ],
      "name": "setCurrentTime",
      "outputs": [],
      "stateMutability": "nonpayable",
      "type": "function"
    },
    {
      "inputs": [
        {
          "internalType": "uint256",
          "name": "originChainId",
          "type": "uint256"
        },
        {
          "internalType": "uint256",
          "name": "destinationChainId",
          "type": "uint256"
        },
        {
          "internalType": "address",
          "name": "originToken",
          "type": "address"
        },
        {
          "internalType": "bool",
          "name": "depositsEnabled",
          "type": "bool"
        }
      ],
      "name": "setDepositRoute",
      "outputs": [],
      "stateMutability": "nonpayable",
      "type": "function"
    },
    {
      "inputs": [
        {
          "internalType": "bytes32",
          "name": "newIdentifier",
          "type": "bytes32"
        }
      ],
      "name": "setIdentifier",
      "outputs": [],
      "stateMutability": "nonpayable",
      "type": "function"
    },
    {
      "inputs": [
        {
          "internalType": "uint32",
          "name": "newLiveness",
          "type": "uint32"
        }
      ],
      "name": "setLiveness",
      "outputs": [],
      "stateMutability": "nonpayable",
      "type": "function"
    },
    {
      "inputs": [
        {
          "internalType": "bool",
          "name": "pause",
          "type": "bool"
        }
      ],
      "name": "setPaused",
      "outputs": [],
      "stateMutability": "nonpayable",
      "type": "function"
    },
    {
      "inputs": [
        {
          "internalType": "uint256",
          "name": "destinationChainId",
          "type": "uint256"
        },
        {
          "internalType": "address",
          "name": "l1Token",
          "type": "address"
        },
        {
          "internalType": "address",
          "name": "destinationToken",
          "type": "address"
        }
      ],
      "name": "setPoolRebalanceRoute",
      "outputs": [],
      "stateMutability": "nonpayable",
      "type": "function"
    },
    {
      "inputs": [
        {
          "internalType": "address",
          "name": "newProtocolFeeCaptureAddress",
          "type": "address"
        },
        {
          "internalType": "uint256",
          "name": "newProtocolFeeCapturePct",
          "type": "uint256"
        }
      ],
      "name": "setProtocolFeeCapture",
      "outputs": [],
      "stateMutability": "nonpayable",
      "type": "function"
    },
    {
      "inputs": [
        {
          "internalType": "address",
          "name": "l1Token",
          "type": "address"
        }
      ],
      "name": "sync",
      "outputs": [],
      "stateMutability": "nonpayable",
      "type": "function"
    },
    {
      "inputs": [],
      "name": "timerAddress",
      "outputs": [
        {
          "internalType": "address",
          "name": "",
          "type": "address"
        }
      ],
      "stateMutability": "view",
      "type": "function"
    },
    {
      "inputs": [
        {
          "internalType": "address",
          "name": "newOwner",
          "type": "address"
        }
      ],
      "name": "transferOwnership",
      "outputs": [],
      "stateMutability": "nonpayable",
      "type": "function"
    },
    {
      "inputs": [
        {
          "internalType": "address",
          "name": "",
          "type": "address"
        }
      ],
      "name": "unclaimedAccumulatedProtocolFees",
      "outputs": [
        {
          "internalType": "uint256",
          "name": "",
          "type": "uint256"
        }
      ],
      "stateMutability": "view",
      "type": "function"
    },
    {
      "inputs": [],
      "name": "weth",
      "outputs": [
        {
          "internalType": "contract WETH9",
          "name": "",
          "type": "address"
        }
      ],
      "stateMutability": "view",
      "type": "function"
    },
    {
      "stateMutability": "payable",
      "type": "receive"
    }
  ],
  "transactionHash": "0x2e1e0f1ffcae0294f44b565592eb108f7a6bcc72f9135a9e2faad84a428d64b1",
  "args": [
    "0x57EE47829369e2EF62fBb423648bec70d0366204",
    "0xDC6b80D38004F495861E081e249213836a2F3217",
    "0x60D4dB9b534EF9260a88b0BED6c486fe13E604Fc",
    "0x0000000000000000000000000000000000000000"
  ],
  "numDeployments": 1,
  "solcInputHash": "a69615e568de1f4360f48e2b17f92a4c",
  "bytecode": "0x60e0604052600c805463ffffffff60a01b191660e160a51b1790557f49535f4143524f53535f56325f42554e444c455f56414c494400000000000000600d5565015d3ef79800600e553480156200005557600080fd5b5060405162004cd438038062004cd4833981016040819052620000789162000153565b600080546001600160a81b0319166001600160a01b03831617600160a01b179055620000ab620000a53390565b620000e8565b506001600160a01b0392831660a05290821660c0528116608052600154600b8054610100600160a81b0319169190921661010002179055620001bb565b600180546001600160a01b038381166001600160a01b0319831681179093556040519116919082907f8be0079c531659141344cd1fd0a4f28419497f9722a3daafe3b4186f6b6457e090600090a35050565b6001600160a01b03811681146200015057600080fd5b50565b600080600080608085870312156200016a57600080fd5b845162000177816200013a565b60208601519094506200018a816200013a565b60408601519093506200019d816200013a565b6060860151909250620001b0816200013a565b939692955090935050565b60805160a05160c051614aa362000231600039600081816107f201528181610c150152818161186801528181612e080152612ffe0152600081816106b401526126df015260008181610519015281816109ba01528181610e7301528181610fdc01528181611a860152611bec0152614aa36000f3fe60806040526004361061027f5760003560e01c8063625997c01161014f578063a5841194116100c1578063dd70e5e81161007a578063dd70e5e814610854578063e0f339e314610874578063e40064d714610894578063e460e35c146108c1578063f0056a7d146108e1578063f2fde38b146109865761028e565b8063a584119414610780578063ac9650d8146107a0578063b60c2d7d146107c0578063b9a3c84c146107e0578063c28f439214610814578063cd949995146108345761028e565b80637998a1c4116101135780637998a1c4146106d657806380c09a82146106ec57806380f323a71461070c5780638bda0c00146107225780638da5cb5b14610742578063a16fd6e9146107605761028e565b8063625997c01461063f57806369b625021461028c5780636ad0690a14610654578063715018a61461068d57806376ec08dd146106a25761028e565b806322f8e566116101f35780633fc8cef3116101ac5780633fc8cef3146105075780634144fd611461053b5780634f7473ff146105cc57806356688700146105e257806356864f38146105f55780635c975abb146106155761028e565b806322f8e5661461044d578063240f475f1461046d57806329cb924d146104925780632d0f6f84146104a75780632d32d557146104c757806333dc09ca146104e75761028e565b80630ee28a88116102455780630ee28a881461038a57806310b99527146103aa57806311cfc159146103ca57806316c38b3c146103e05780631c39c38d1461040057806322395aaa146104385761028e565b8062660b5314610296578062c99206146102b6578063084d0513146102d657806309474ae2146103095780630c501af91461036a5761028e565b3661028e5761028c6109a6565b005b61028c6109a6565b3480156102a257600080fd5b5061028c6102b1366004613d74565b610a2f565b3480156102c257600080fd5b5061028c6102d1366004613da0565b610b83565b3480156102e257600080fd5b506102f66102f1366004613d74565b610d84565b6040519081526020015b60405180910390f35b34801561031557600080fd5b5061034a610324366004613da0565b600960205260009081526040902080546001909101546001600160a01b03918216911682565b604080516001600160a01b03938416815292909116602083015201610300565b34801561037657600080fd5b5061028c610385366004613db9565b610db0565b34801561039657600080fd5b5061028c6103a5366004613de4565b610e57565b3480156103b657600080fd5b5061028c6103c5366004613e26565b6110db565b3480156103d657600080fd5b506102f6600e5481565b3480156103ec57600080fd5b5061028c6103fb366004613e5d565b611189565b34801561040c57600080fd5b50600054610420906001600160a01b031681565b6040516001600160a01b039091168152602001610300565b34801561044457600080fd5b5061028c611205565b34801561045957600080fd5b5061028c610468366004613da0565b6115e6565b34801561047957600080fd5b50600b546104209061010090046001600160a01b031681565b34801561049e57600080fd5b506102f6611641565b3480156104b357600080fd5b5061028c6104c2366004613db9565b6116d2565b3480156104d357600080fd5b506104206104e2366004613e7a565b611755565b3480156104f357600080fd5b5061028c610502366004613d74565b611786565b34801561051357600080fd5b506104207f000000000000000000000000000000000000000000000000000000000000000081565b34801561054757600080fd5b5060025460035460045460055460065461058594939291906001600160a01b03811690600160a01b810460ff1690600160a81b900463ffffffff1687565b6040805197885260208801969096529486019390935260608501919091526001600160a01b0316608084015260ff1660a083015263ffffffff1660c082015260e001610300565b3480156105d857600080fd5b506102f6600f5481565b61028c6105f0366004613d74565b611a07565b34801561060157600080fd5b5061028c610610366004613eaa565b611ce3565b34801561062157600080fd5b50600b5461062f9060ff1681565b6040519015158152602001610300565b34801561064b57600080fd5b5061028c611dcb565b34801561066057600080fd5b50600c5461067890600160a01b900463ffffffff1681565b60405163ffffffff9091168152602001610300565b34801561069957600080fd5b5061028c611eaf565b3480156106ae57600080fd5b506104207f000000000000000000000000000000000000000000000000000000000000000081565b3480156106e257600080fd5b506102f6600d5481565b3480156106f857600080fd5b5061028c61070736600461408b565b611ee3565b34801561071857600080fd5b506102f660105481565b34801561072e57600080fd5b5061028c61073d36600461418a565b612299565b34801561074e57600080fd5b506001546001600160a01b0316610420565b34801561076c57600080fd5b506102f661077b366004613db9565b612474565b34801561078c57600080fd5b5061028c61079b366004613db9565b6124a0565b6107b36107ae3660046141fa565b6124c1565b6040516103009190614294565b3480156107cc57600080fd5b5061028c6107db366004613db9565b612667565b3480156107ec57600080fd5b506104207f000000000000000000000000000000000000000000000000000000000000000081565b34801561082057600080fd5b50600c54610420906001600160a01b031681565b34801561084057600080fd5b5061028c61084f3660046142f6565b612826565b34801561086057600080fd5b5061028c61086f366004614344565b612900565b34801561088057600080fd5b506102f661088f366004613db9565b61294c565b3480156108a057600080fd5b506102f66108af366004613db9565b600a6020526000908152604090205481565b3480156108cd57600080fd5b5061028c6108dc366004613e26565b612967565b3480156108ed57600080fd5b506109446108fc366004613db9565b60076020526000908152604090208054600182015460028301546003909301546001600160a01b03831693600160a01b840460ff1693600160a81b900463ffffffff16929186565b604080516001600160a01b039097168752941515602087015263ffffffff909316938501939093526060840152608083019190915260a082015260c001610300565b34801561099257600080fd5b5061028c6109a1366004613db9565b612a40565b600054600160a01b900460ff1615610a2d577f00000000000000000000000000000000000000000000000000000000000000006001600160a01b031663d0e30db0346040518263ffffffff1660e01b81526004016000604051808303818588803b158015610a1357600080fd5b505af1158015610a27573d6000803e3d6000fd5b50505050505b565b6001546001600160a01b03163314610a625760405162461bcd60e51b8152600401610a59906143c9565b60405180910390fd5b610a6a612ad8565b610a72612b31565b670de0b6b3a7640000811115610aca5760405162461bcd60e51b815260206004820152601960248201527f4261642070726f746f636f6c46656543617074757265506374000000000000006044820152606401610a59565b6001600160a01b038216610b205760405162461bcd60e51b815260206004820152601d60248201527f4261642070726f746f636f6c46656543617074757265416464726573730000006044820152606401610a59565b600b8054610100600160a81b0319166101006001600160a01b03851690810291909117909155600f8290556040518291907fc1993b89fd79a19ece7beb067ddc8534ca26d29c0ff94ea2f53b4a508d1eedc990600090a3610b7f612b40565b5050565b6001546001600160a01b03163314610bad5760405162461bcd60e51b8152600401610a59906143c9565b600654600160a01b900460ff1615610bd75760405162461bcd60e51b8152600401610a59906143fe565b610bdf612ad8565b610be7612b31565b6040516302abf57960e61b8152721259195b9d1a599a595c95da1a5d195b1a5cdd606a1b60048201526000907f00000000000000000000000000000000000000000000000000000000000000006001600160a01b03169063aafd5e4090602401602060405180830381865afa158015610c64573d6000803e3d6000fd5b505050506040513d601f19601f82011682018060405250810190610c889190614435565b6040516390978d1b60e01b8152600481018490529091506001600160a01b038216906390978d1b90602401602060405180830381865afa158015610cd0573d6000803e3d6000fd5b505050506040513d601f19601f82011682018060405250810190610cf49190614452565b610d405760405162461bcd60e51b815260206004820152601860248201527f4964656e746966696572206e6f7420737570706f7274656400000000000000006044820152606401610a59565b600d8290556040518281527ff45367c278fcceff23d601ce4bdd191e5bd61687ff9f29dc7276a08fe54c0c5d9060200160405180910390a150610d81612b40565b50565b6000610d8e612ad8565b610d96612b31565b610da08383612b55565b9050610daa612b40565b92915050565b6001546001600160a01b03163314610dda5760405162461bcd60e51b8152600401610a59906143c9565b610de2612ad8565b610dea612b31565b6001600160a01b03818116600081815260076020908152604091829020805460ff60a01b1981169091558251938452909316928201929092527fac111b3b527b307393c94d98f26140effb71411054466818be97912d2d65f77691015b60405180910390a1610d81612b40565b610e5f612ad8565b610e67612b31565b826001600160a01b03167f00000000000000000000000000000000000000000000000000000000000000006001600160a01b03161480610ea5575080155b610ee15760405162461bcd60e51b815260206004820152600d60248201526c086c2dce840e6cadcc840cae8d609b1b6044820152606401610a59565b6000670de0b6b3a7640000610ef585612c4d565b610eff9085614485565b610f0991906144ba565b6001600160a01b038581166000908152600760205260409081902054905163079cc67960e41b81523360048201526024810187905292935016906379cc6790906044016020604051808303816000875af1158015610f6b573d6000803e3d6000fd5b505050506040513d601f19601f82011682018060405250810190610f8f9190614452565b506001600160a01b03841660009081526007602052604081206002018054839290610fbb9084906144ce565b9091555050811561107357604051632e1a7d4d60e01b8152600481018290527f00000000000000000000000000000000000000000000000000000000000000006001600160a01b031690632e1a7d4d90602401600060405180830381600087803b15801561102857600080fd5b505af115801561103c573d6000803e3d6000fd5b505060405133925083156108fc02915083906000818181858888f1935050505015801561106d573d6000803e3d6000fd5b50611087565b6110876001600160a01b0385163383612d48565b604080518281526020810185905233916001600160a01b038716917fcda1185f28599e6bd14ab8a68b3c30a11e1dce4256b5e67e94dd3fd846a6c589910160405180910390a3506110d6612b40565b505050565b6001546001600160a01b031633146111055760405162461bcd60e51b8152600401610a59906143c9565b61110d612ad8565b611115612b31565b80600860006111248587612dab565b815260208101919091526040908101600090812080546001600160a01b0319166001600160a01b0394851617905590518383169285169186917f234e7af08f77827792cc909447f27d2e6a3e2d839b04e26b50b71704a131c8a89190a46110d6612b40565b6001546001600160a01b031633146111b35760405162461bcd60e51b8152600401610a59906143c9565b6111bb612ad8565b6111c3612b31565b600b805460ff19168215159081179091556040517f0e2fb031ee032dc02d8011dc50b816eb450cf856abd8261680dac74f72165bd290600090a2610d81612b40565b61120d612ad8565b611215612b31565b600061121f611641565b60065490915063ffffffff600160a81b909104811690821611156112855760405162461bcd60e51b815260206004820152601760248201527f5265717565737420706173736564206c6976656e6573730000000000000000006044820152606401610a59565b600061128f612de8565b905060105481106112a9576112a2612eee565b50506115bf565b60006112b3612fcd565b601054600c549192506112d1916001600160a01b0316908390613071565b806001600160a01b031663af355d1e600d5485600c60009054906101000a90046001600160a01b031660008760105461130a91906144ce565b600c5460065460405160e089901b6001600160e01b0319168152600481019790975263ffffffff9586166024880152610120604488015260006101248801526001600160a01b039485166064880152608487019390935260a4860191909152600160a01b900490921660c48401521660e4820152670de0b6b3a7640000610104820152610144016020604051808303816000875af19250505080156113cc575060408051601f3d908101601f191682019092526113c9918101906144e5565b60015b6113e0576113d8612eee565b5050506115bf565b600c546113f8906001600160a01b0316836000613123565b5060408051610160810182526006546001600160a01b039081168252600060208301819052600c549182169383019390935260608201839052670de0b6b3a7640000608083015260a0820183905260c082019061146290600160a01b900463ffffffff16876144fe565b63ffffffff168152602001600081526020018481526020018460105461148891906144ce565b8152600c5463ffffffff600160a01b820481166020909301929092526000600281905560038190556004819055600555600680546001600160c81b03191690556010549293506114e8926001600160a01b03909116913391309161323816565b601054600c54611505916001600160a01b03909116908490613071565b600d5460405163139c641960e31b81526001600160a01b03841691639ce320c89161153b91908890869033903090600401614526565b6020604051808303816000875af115801561155a573d6000803e3d6000fd5b505050506040513d601f19601f8201168201806040525081019061157e91906144e5565b5060405163ffffffff8516815233907f15951cb2ef6993bc23a55912e7d0bcac13e4797c432aaa334816aed6914a7a909060200160405180910390a2505050505b6115de6115ca612fcd565b600c546001600160a01b0316906000613123565b610a2d612b40565b6000546001600160a01b03166115fb57600080fd5b60005460405163117c72b360e11b8152600481018390526001600160a01b03909116906322f8e56690602401600060405180830381600087803b158015610a1357600080fd5b600080546001600160a01b0316156116cd5760008054906101000a90046001600160a01b03166001600160a01b03166329cb924d6040518163ffffffff1660e01b8152600401602060405180830381865afa1580156116a4573d6000803e3d6000fd5b505050506040513d601f19601f820116820180604052508101906116c891906144e5565b905090565b504290565b6116da612ad8565b6116e2612b31565b6001600160a01b038082166000818152600a602052604081208054919055600b549092611716929161010090041683612d48565b60405181906001600160a01b038416907f74740239d7d696c84422b720e125e1f47c4138c66d1f4d2a48e99f4197cdb79c90600090a350610d81612b40565b6000600860006117658486612dab565b81526020810191909152604001600020546001600160a01b03169392505050565b6001546001600160a01b031633146117b05760405162461bcd60e51b8152600401610a59906143c9565b600654600160a01b900460ff16156117da5760405162461bcd60e51b8152600401610a59906143fe565b6117e2612ad8565b6117ea612b31565b8060000361183a5760405162461bcd60e51b815260206004820152601760248201527f626f6e6420657175616c20746f2066696e616c206665650000000000000000006044820152606401610a59565b6040516302abf57960e61b81527210dbdb1b185d195c985b15da1a5d195b1a5cdd606a1b60048201526000907f00000000000000000000000000000000000000000000000000000000000000006001600160a01b03169063aafd5e4090602401602060405180830381865afa1580156118b7573d6000803e3d6000fd5b505050506040513d601f19601f820116820180604052508101906118db9190614435565b604051631d1d5b3960e11b81526001600160a01b03858116600483015291925090821690633a3ab67290602401602060405180830381865afa158015611925573d6000803e3d6000fd5b505050506040513d601f19601f820116820180604052508101906119499190614452565b6119885760405162461bcd60e51b815260206004820152601060248201526f139bdd081bdb881dda1a5d195b1a5cdd60821b6044820152606401610a59565b600c80546001600160a01b0319166001600160a01b03851617905560006119ad612de8565b6119b79084614619565b60108190556040518181529091506001600160a01b038516907fbfa9a96010167e98ce8c004f718932cbbfd33a58d681c752e693be7d457a1b3b9060200160405180910390a25050610b7f612b40565b611a0f612ad8565b611a17612b31565b6001600160a01b038216600090815260076020526040902054600160a01b900460ff16611a7a5760405162461bcd60e51b8152602060048201526011602482015270151bdad95b881b9bdd08195b98589b1959607a1b6044820152606401610a59565b816001600160a01b03167f00000000000000000000000000000000000000000000000000000000000000006001600160a01b0316148015611aba57508034145b80611ac3575034155b611aff5760405162461bcd60e51b815260206004820152600d60248201526c426164206d73672e76616c756560981b6044820152606401610a59565b6000611b0a83612c4d565b611b1c83670de0b6b3a7640000614485565b611b2691906144ba565b6001600160a01b038416600090815260076020526040812060020180549293508492909190611b56908490614619565b90915550506001600160a01b03838116600090815260076020526040908190205490516340c10f1960e01b8152336004820152602481018490529116906340c10f19906044016020604051808303816000875af1158015611bbb573d6000803e3d6000fd5b505050506040513d601f19601f82011682018060405250810190611bdf9190614452565b50826001600160a01b03167f00000000000000000000000000000000000000000000000000000000000000006001600160a01b0316148015611c215750600034115b15611c7f57826001600160a01b031663d0e30db0346040518263ffffffff1660e01b81526004016000604051808303818588803b158015611c6157600080fd5b505af1158015611c75573d6000803e3d6000fd5b5050505050611c94565b611c946001600160a01b038416333085613238565b604080518381526020810183905233916001600160a01b038616917f3c69701a61c79a92ef9692903aaa0068bce8771361ecb09547391e4fb4df8537910160405180910390a350610b7f612b40565b611ceb612ad8565b611cf3612b31565b6001546001600160a01b03163314611d1d5760405162461bcd60e51b8152600401610a59906143c9565b6040516001600160a01b0383166024820152604481018490528115156064820152611d7690859060840160408051601f198184030181529190526020810180516001600160e01b031663272751c760e01b179052613270565b816001600160a01b031683857fb7d00a563842efb2c121a0eb02b7bb7ba1a34625bbc3d65057f1f0dbec0ec2a184604051611db5911515815260200190565b60405180910390a4611dc5612b40565b50505050565b6001546001600160a01b03163314611df55760405162461bcd60e51b8152600401610a59906143c9565b611dfd612ad8565b611e05612b31565b600654600160a01b900460ff1615611e3857600654601054600c54611e38926001600160a01b0391821692911690612d48565b6006546003546002546004546040519081526001600160a01b03909316927f993cba33f9b140c9ce20ba10d7eda92128d5beb6df856f064916108a11647a739060200160405180910390a46000600281905560038190556004819055600555600680546001600160c81b0319169055610a2d612b40565b6001546001600160a01b03163314611ed95760405162461bcd60e51b8152600401610a59906143c9565b610a2d6000613374565b611eeb612ad8565b611ef3612b31565b600b5460ff1615611f465760405162461bcd60e51b815260206004820181905260248201527f50726f706f73616c2070726f6365737320686173206265656e207061757365646044820152606401610a59565b600654600160a81b900463ffffffff16611f5e611641565b11611fa15760405162461bcd60e51b81526020600482015260136024820152724e6f7420706173736564206c6976656e65737360681b6044820152606401610a59565b600554600160ff86161b90811603611fed5760405162461bcd60e51b815260206004820152600f60248201526e105b1c9958591e4818db185a5b5959608a1b6044820152606401610a59565b6120656002600001546040518060e001604052808c81526020018a81526020018981526020018881526020018b81526020018760ff168152602001868152508484808060200260200160405190810160405280939291908181526020018383602002808284376000920191909152506133c692505050565b61209d5760405162461bcd60e51b81526020600482015260096024820152682130b210283937b7b360b91b6044820152606401610a59565b6000806120a98b613403565b915091506120bc600260030154876134cf565b600555600680546014906120d990600160a01b900460ff16614631565b91906101000a81548160ff021916908360ff1602179055506120ff82828d888c8e6134f2565b8960000361220157600354600454604051602481019290925260448201526000906001600160a01b03841690839060640160408051601f198184030181529181526020820180516001600160e01b031663124e93e160e21b1790525161216992919060240161464e565b60408051601f198184030181529181526020820180516001600160e01b0316637375c56f60e11b1790525161219e9190614672565b600060405180830381855af49150503d80600081146121d9576040519150601f19603f3d011682016040523d82523d6000602084013e6121de565b606091505b50509050806121ff5760405162461bcd60e51b8152600401610a599061468e565b505b600654600160a01b900460ff1660000361223657600654601054600c54612236926001600160a01b0391821692911690612d48565b336001600160a01b03168b8760ff167ff652dd63b1aedbf9e740f3152fb67b0d94d069cf1182811ebd88921850d935678d898e8e8e60405161227c95949392919061472f565b60405180910390a4505061228e612b40565b505050505050505050565b6122a1612ad8565b6122a9612b31565b600654600160a01b900460ff16156122d35760405162461bcd60e51b8152600401610a59906143fe565b600b5460ff16156123265760405162461bcd60e51b815260206004820181905260248201527f50726f706f73616c2070726f6365737320686173206265656e207061757365646044820152606401610a59565b60008460ff16116123795760405162461bcd60e51b815260206004820181905260248201527f42756e646c65206d7573742068617665206174206c656173742031206c6561666044820152606401610a59565b600c54600090600160a01b900463ffffffff16612394611641565b61239e91906144fe565b60006005556006805460028790556003869055600485905560ff8816600160a01b0263ffffffff808516600160a81b0260ff60a01b19166001600160c81b031990931692909217176001600160a01b03191633908117909255601054600c54939450612418936001600160a01b0316929130919061323816565b336001600160a01b031683857f50e585dd6361c7cb2613ce2334814bb2a789f5a8ad4b161fe0e248043737d1d284898c8c8960405161245b95949392919061478e565b60405180910390a45061246c612b40565b505050505050565b600061247e612ad8565b612486612b31565b612491826000612b55565b905061249b612b40565b919050565b6124a8612ad8565b6124b0612b31565b6124b9816137b3565b610d81612b40565b606034156125115760405162461bcd60e51b815260206004820152601b60248201527f4f6e6c79206d756c746963616c6c207769746820302076616c756500000000006044820152606401610a59565b8167ffffffffffffffff81111561252a5761252a613ef4565b60405190808252806020026020018201604052801561255d57816020015b60608152602001906001900390816125485790505b50905060005b828110156126605760008030868685818110612581576125816147ec565b90506020028101906125939190614802565b6040516125a1929190614849565b600060405180830381855af49150503d80600081146125dc576040519150601f19603f3d011682016040523d82523d6000602084013e6125e1565b606091505b50915091508161262d576044815110156125fa57600080fd5b600481019050808060200190518101906126149190614859565b60405162461bcd60e51b8152600401610a5991906148c7565b80848481518110612640576126406147ec565b602002602001018190525050508080612658906148da565b915050612563565b5092915050565b6001546001600160a01b031633146126915760405162461bcd60e51b8152600401610a59906143c9565b612699612ad8565b6126a1612b31565b6001600160a01b03818116600090815260076020526040902054166127bf57604051637e178db760e11b81526001600160a01b0382811660048301527f0000000000000000000000000000000000000000000000000000000000000000169063fc2f1b6e906024016020604051808303816000875af1158015612728573d6000803e3d6000fd5b505050506040513d601f19601f8201168201806040525081019061274c9190614435565b6001600160a01b03828116600090815260076020526040902080546001600160a01b03191692909116919091179055612783611641565b6001600160a01b0382166000908152600760205260409020805463ffffffff92909216600160a81b0263ffffffff60a81b199092169190911790555b6001600160a01b038181166000818152600760209081526040918290208054600160a01b60ff60a01b198216179091558251938452909316928201929092527f04e291c80180d65a57b5bf1bed775777ec0d6f283ef34bcf130712714d8bb7f79101610e47565b6001546001600160a01b031633146128505760405162461bcd60e51b8152600401610a59906143c9565b612858612ad8565b612860612b31565b6102588163ffffffff16116128ac5760405162461bcd60e51b8152602060048201526012602482015271131a5d995b995cdcc81d1bdbc81cda1bdc9d60721b6044820152606401610a59565b600c805463ffffffff60a01b1916600160a01b63ffffffff8416908102919091179091556040519081527f04dd1d84d387f404568a7954b5e398518bdd716e1a8f4a790be9a1a225ad934790602001610e47565b6001546001600160a01b0316331461292a5760405162461bcd60e51b8152600401610a59906143c9565b612932612ad8565b61293a612b31565b6129448282613270565b610b7f612b40565b6000612956612ad8565b61295e612b31565b61249182612c4d565b6001546001600160a01b031633146129915760405162461bcd60e51b8152600401610a59906143c9565b612999612ad8565b6129a1612b31565b6040805180820182526001600160a01b03848116808352848216602080850182815260008a815260098352879020955186549086166001600160a01b031991821617875590516001909601805496909516951694909417909255835187815292830152918101919091527f36050d958750e6ac3aa674ac7bbe8d0ae6a2f7d4b808e8c2c42c1f22fc9fc4bb9060600160405180910390a16110d6612b40565b6001546001600160a01b03163314612a6a5760405162461bcd60e51b8152600401610a59906143c9565b6001600160a01b038116612acf5760405162461bcd60e51b815260206004820152602660248201527f4f776e61626c653a206e6577206f776e657220697320746865207a65726f206160448201526564647265737360d01b6064820152608401610a59565b610d8181613374565b600054600160a01b900460ff16610a2d5760405162461bcd60e51b815260206004820152601f60248201527f5265656e7472616e637947756172643a207265656e7472616e742063616c6c006044820152606401610a59565b6000805460ff60a01b19169055565b6000805460ff60a01b1916600160a01b179055565b6000612b60836137b3565b6001600160a01b038381166000908152600760209081526040808320815160c08101835281549586168152600160a01b860460ff16151593810193909352600160a81b90940463ffffffff16908201526001830154606082018190526002840154608083015260039093015460a0820152918112612bdf576000612be5565b81606001515b90506000612bf38286614619565b90506000828460800151612c079190614619565b905080600003612c2557670de0b6b3a7640000945050505050610daa565b80612c3883670de0b6b3a7640000614485565b612c4291906144ba565b979650505050505050565b6001600160a01b038082166000908152600760209081526040808320805482516318160ddd60e01b8152925194959194869491909216926318160ddd92600480830193928290030181865afa158015612caa573d6000803e3d6000fd5b505050506040513d601f19601f82011682018060405250810190612cce91906144e5565b905080600003612ce95750670de0b6b3a76400009392505050565b612cf282613902565b612cfb846137b3565b6000826003015483600101548460020154612d1691906148f3565b612d209190614934565b905081612d3582670de0b6b3a7640000614485565b612d3f91906144ba565b95945050505050565b6040516001600160a01b0383166024820152604481018290526110d690849063a9059cbb60e01b906064015b60408051601f198184030181529190526020810180516001600160e01b03166001600160e01b03199093169290921790915261396a565b604080516001600160a01b038416602082015290810182905260009060600160405160208183030381529060405280519060200120905092915050565b6040516302abf57960e61b81526453746f726560d81b60048201526000907f00000000000000000000000000000000000000000000000000000000000000006001600160a01b03169063aafd5e4090602401602060405180830381865afa158015612e57573d6000803e3d6000fd5b505050506040513d601f19601f82011682018060405250810190612e7b9190614435565b600c54604051635b97aadd60e01b81526001600160a01b039182166004820152911690635b97aadd90602401602060405180830381865afa158015612ec4573d6000803e3d6000fd5b505050506040513d601f19601f82011682018060405250810190612ee89190614973565b51919050565b600c5460065460105460405163a9059cbb60e01b81526001600160a01b039283166004820152602481019190915291169063a9059cbb906044016020604051808303816000875af1158015612f47573d6000803e3d6000fd5b505050506040513d601f19601f82011682018060405250810190612f6b9190614452565b506000600281905560038190556004819055600555600680546001600160c81b0319169055337f0cfbbf45ab7f5225663454de7117b1b0ed5a7c133b61f54ccf367dcf8b6d4d59612fba611641565b60405190815260200160405180910390a2565b6040516302abf57960e61b815275536b696e6e794f7074696d69737469634f7261636c6560501b60048201526000907f00000000000000000000000000000000000000000000000000000000000000006001600160a01b03169063aafd5e4090602401602060405180830381865afa15801561304d573d6000803e3d6000fd5b505050506040513d601f19601f820116820180604052508101906116c89190614435565b604051636eb1769f60e11b81523060048201526001600160a01b038381166024830152600091839186169063dd62ed3e90604401602060405180830381865afa1580156130c2573d6000803e3d6000fd5b505050506040513d601f19601f820116820180604052508101906130e691906144e5565b6130f09190614619565b6040516001600160a01b038516602482015260448101829052909150611dc590859063095ea7b360e01b90606401612d74565b80158061319d5750604051636eb1769f60e11b81523060048201526001600160a01b03838116602483015284169063dd62ed3e90604401602060405180830381865afa158015613177573d6000803e3d6000fd5b505050506040513d601f19601f8201168201806040525081019061319b91906144e5565b155b6132085760405162461bcd60e51b815260206004820152603660248201527f5361666545524332303a20617070726f76652066726f6d206e6f6e2d7a65726f60448201527520746f206e6f6e2d7a65726f20616c6c6f77616e636560501b6064820152608401610a59565b6040516001600160a01b0383166024820152604481018290526110d690849063095ea7b360e01b90606401612d74565b6040516001600160a01b0380851660248301528316604482015260648101829052611dc59085906323b872dd60e01b90608401612d74565b60008061327c84613403565b915091506000826001600160a01b0316828560405160240161329f92919061464e565b60408051601f198184030181529181526020820180516001600160e01b0316637375c56f60e11b179052516132d49190614672565b600060405180830381855af49150503d806000811461330f576040519150601f19603f3d011682016040523d82523d6000602084013e613314565b606091505b50509050806133355760405162461bcd60e51b8152600401610a599061468e565b847f218987b934c2f6bc596136829fbf43a5fef4d6fafce41f3f6254d9a870c2deec8560405161336591906148c7565b60405180910390a25050505050565b600180546001600160a01b038381166001600160a01b0319831681179093556040519116919082907f8be0079c531659141344cd1fd0a4f28419497f9722a3daafe3b4186f6b6457e090600090a35050565b60006133f98285856040516020016133de91906149b5565b60405160208183030381529060405280519060200120613a3c565b90505b9392505050565b600081815260096020526040902080546001909101546001600160a01b039182169116806134735760405162461bcd60e51b815260206004820152601960248201527f53706f6b65506f6f6c206e6f7420696e697469616c697a6564000000000000006044820152606401610a59565b6001600160a01b0382163b6134ca5760405162461bcd60e51b815260206004820152601760248201527f41646170746572206e6f7420696e697469616c697a65640000000000000000006044820152606401610a59565b915091565b60006134e061010060ff8416614a4c565b61ffff166001901b8317905092915050565b825160005b8163ffffffff168163ffffffff1610156137a9576000858263ffffffff1681518110613525576135256147ec565b6020026020010151905060006008600061353f848b612dab565b81526020810191909152604001600020546001600160a01b03169050806135a05760405162461bcd60e51b8152602060048201526015602482015274149bdd5d19481b9bdd081dda1a5d195b1a5cdd1959605a1b6044820152606401610a59565b6000868463ffffffff16815181106135ba576135ba6147ec565b602002602001015113156137765760008a6001600160a01b03168383898763ffffffff16815181106135ee576135ee6147ec565b60209081029190910101516040516001600160a01b03938416602482015291831660448301526064820152908c16608482015260a40160408051601f198184030181529181526020820180516001600160e01b03166314b231d760e21b179052516136599190614672565b600060405180830381855af49150503d8060008114613694576040519150601f19603f3d011682016040523d82523d6000602084013e613699565b606091505b50509050806136ba5760405162461bcd60e51b8152600401610a599061468e565b868463ffffffff16815181106136d2576136d26147ec565b602002602001015160076000856001600160a01b03166001600160a01b03168152602001908152602001600020600101600082825461371191906148f3565b92505081905550868463ffffffff1681518110613730576137306147ec565b602002602001015160076000856001600160a01b03166001600160a01b03168152602001908152602001600020600201600082825461376f91906144ce565b9091555050505b61379f82868563ffffffff1681518110613792576137926147ec565b6020026020010151613a52565b50506001016134f7565b5050505050505050565b6040516370a0823160e01b81523060048201526000906001600160a01b038316906370a0823190602401602060405180830381865afa1580156137fa573d6000803e3d6000fd5b505050506040513d601f19601f8201168201806040525081019061381e91906144e5565b600c549091506000906001600160a01b03848116911614801561384c5750600654600160a01b900460ff1615155b6138565781613863565b60105461386390836144ce565b6001600160a01b0384166000908152600760205260409020600201549091508111156110d6576001600160a01b0383166000908152600760205260409020600201546138af90826144ce565b6001600160a01b038416600090815260076020526040812060010180549091906138da908490614934565b90915550506001600160a01b0383166000908152600760205260409020600201819055505050565b6003810154815460009161392291600160a81b900463ffffffff16613b25565b90508082600301600082825461393891906144ce565b909155506139469050611641565b825463ffffffff91909116600160a81b0263ffffffff60a81b199091161790915550565b60006139bf826040518060400160405280602081526020017f5361666545524332303a206c6f772d6c6576656c2063616c6c206661696c6564815250856001600160a01b0316613b829092919063ffffffff16565b8051909150156110d657808060200190518101906139dd9190614452565b6110d65760405162461bcd60e51b815260206004820152602a60248201527f5361666545524332303a204552433230206f7065726174696f6e20646964206e6044820152691bdd081cdd58d8d9595960b21b6064820152608401610a59565b600082613a498584613b91565b14949350505050565b6000670de0b6b3a7640000600f5483613a6b9190614485565b613a7591906144ba565b90506000613a8382846144ce565b90508015613aec576001600160a01b03841660009081526007602052604081206003018054839290613ab6908490614619565b90915550506001600160a01b03841660009081526007602052604081206001018054839290613ae69084906148f3565b90915550505b8115611dc5576001600160a01b0384166000908152600a602052604081208054849290613b1a908490614619565b909155505050505050565b60008082613b31611641565b613b3b91906144ce565b90506000670de0b6b3a764000082600e5487613b579190614485565b613b619190614485565b613b6b91906144ba565b9050848110613b7a5784612d3f565b949350505050565b60606133f98484600085613c05565b600081815b8451811015613bfd576000858281518110613bb357613bb36147ec565b60200260200101519050808311613bd95760008381526020829052604090209250613bea565b600081815260208490526040902092505b5080613bf5816148da565b915050613b96565b509392505050565b606082471015613c665760405162461bcd60e51b815260206004820152602660248201527f416464726573733a20696e73756666696369656e742062616c616e636520666f6044820152651c8818d85b1b60d21b6064820152608401610a59565b6001600160a01b0385163b613cbd5760405162461bcd60e51b815260206004820152601d60248201527f416464726573733a2063616c6c20746f206e6f6e2d636f6e74726163740000006044820152606401610a59565b600080866001600160a01b03168587604051613cd99190614672565b60006040518083038185875af1925050503d8060008114613d16576040519150601f19603f3d011682016040523d82523d6000602084013e613d1b565b606091505b5091509150612c4282828660608315613d355750816133fc565b825115613d455782518084602001fd5b8160405162461bcd60e51b8152600401610a5991906148c7565b6001600160a01b0381168114610d8157600080fd5b60008060408385031215613d8757600080fd5b8235613d9281613d5f565b946020939093013593505050565b600060208284031215613db257600080fd5b5035919050565b600060208284031215613dcb57600080fd5b81356133fc81613d5f565b8015158114610d8157600080fd5b600080600060608486031215613df957600080fd5b8335613e0481613d5f565b9250602084013591506040840135613e1b81613dd6565b809150509250925092565b600080600060608486031215613e3b57600080fd5b833592506020840135613e4d81613d5f565b91506040840135613e1b81613d5f565b600060208284031215613e6f57600080fd5b81356133fc81613dd6565b60008060408385031215613e8d57600080fd5b823591506020830135613e9f81613d5f565b809150509250929050565b60008060008060808587031215613ec057600080fd5b84359350602085013592506040850135613ed981613d5f565b91506060850135613ee981613dd6565b939692955090935050565b634e487b7160e01b600052604160045260246000fd5b604051601f8201601f1916810167ffffffffffffffff81118282101715613f3357613f33613ef4565b604052919050565b600067ffffffffffffffff821115613f5557613f55613ef4565b5060051b60200190565b600082601f830112613f7057600080fd5b81356020613f85613f8083613f3b565b613f0a565b82815260059290921b84018101918181019086841115613fa457600080fd5b8286015b84811015613fbf5780358352918301918301613fa8565b509695505050505050565b803560ff8116811461249b57600080fd5b600082601f830112613fec57600080fd5b81356020613ffc613f8083613f3b565b82815260059290921b8401810191818101908684111561401b57600080fd5b8286015b84811015613fbf57803561403281613d5f565b835291830191830161401f565b60008083601f84011261405157600080fd5b50813567ffffffffffffffff81111561406957600080fd5b6020830191508360208260051b850101111561408457600080fd5b9250929050565b60008060008060008060008060006101008a8c0312156140aa57600080fd5b8935985060208a0135975060408a013567ffffffffffffffff808211156140d057600080fd5b6140dc8d838e01613f5f565b985060608c01359150808211156140f257600080fd5b6140fe8d838e01613f5f565b975060808c013591508082111561411457600080fd5b6141208d838e01613f5f565b965061412e60a08d01613fca565b955060c08c013591508082111561414457600080fd5b6141508d838e01613fdb565b945060e08c013591508082111561416657600080fd5b506141738c828d0161403f565b915080935050809150509295985092959850929598565b60008060008060008060a087890312156141a357600080fd5b863567ffffffffffffffff8111156141ba57600080fd5b6141c689828a0161403f565b90975095506141d9905060208801613fca565b93506040870135925060608701359150608087013590509295509295509295565b6000806020838503121561420d57600080fd5b823567ffffffffffffffff81111561422457600080fd5b6142308582860161403f565b90969095509350505050565b60005b8381101561425757818101518382015260200161423f565b83811115611dc55750506000910152565b6000815180845261428081602086016020860161423c565b601f01601f19169290920160200192915050565b6000602080830181845280855180835260408601915060408160051b870101925083870160005b828110156142e957603f198886030184526142d7858351614268565b945092850192908501906001016142bb565b5092979650505050505050565b60006020828403121561430857600080fd5b813563ffffffff811681146133fc57600080fd5b600067ffffffffffffffff82111561433657614336613ef4565b50601f01601f191660200190565b6000806040838503121561435757600080fd5b82359150602083013567ffffffffffffffff81111561437557600080fd5b8301601f8101851361438657600080fd5b8035614394613f808261431c565b8181528660208385010111156143a957600080fd5b816020840160208301376000602083830101528093505050509250929050565b6020808252818101527f4f776e61626c653a2063616c6c6572206973206e6f7420746865206f776e6572604082015260600190565b6020808252601d908201527f50726f706f73616c2068617320756e636c61696d6564206c6561766573000000604082015260600190565b60006020828403121561444757600080fd5b81516133fc81613d5f565b60006020828403121561446457600080fd5b81516133fc81613dd6565b634e487b7160e01b600052601160045260246000fd5b600081600019048311821515161561449f5761449f61446f565b500290565b634e487b7160e01b600052601260045260246000fd5b6000826144c9576144c96144a4565b500490565b6000828210156144e0576144e061446f565b500390565b6000602082840312156144f757600080fd5b5051919050565b600063ffffffff80831681851680830382111561451d5761451d61446f565b01949350505050565b85815263ffffffff851660208201526102006040820181905260009082015283516001600160a01b03166060820152610220810160208501516001600160a01b03811660808401525060408501516001600160a01b03811660a084015250606085015180151560c084015250608085015160e083015260a0850151610100818185015260c08701519150610120828186015260e0880151925061014083818701528289015161016087015281890151610180870152808901516101a0870152505050506145ff6101c08301856001600160a01b03169052565b6001600160a01b0383166101e08301529695505050505050565b6000821982111561462c5761462c61446f565b500190565b600060ff8216806146445761464461446f565b6000190192915050565b6001600160a01b03831681526040602082018190526000906133f990830184614268565b6000825161468481846020870161423c565b9190910192915050565b60208082526013908201527219195b1959d85d1958d85b1b0819985a5b1959606a1b604082015260600190565b600081518084526020808501945080840160005b838110156146f45781516001600160a01b0316875295820195908201906001016146cf565b509495945050505050565b600081518084526020808501945080840160005b838110156146f457815187529582019590820190600101614713565b85815260a06020820152600061474860a08301876146bb565b828103604084015261475a81876146ff565b9050828103606084015261476e81866146ff565b9050828103608084015261478281856146ff565b98975050505050505050565b63ffffffff8616815260ff85166020820152608060408201819052810183905260006001600160fb1b038411156147c457600080fd5b8360051b808660a0850137600090830160a00190815260609092019290925295945050505050565b634e487b7160e01b600052603260045260246000fd5b6000808335601e1984360301811261481957600080fd5b83018035915067ffffffffffffffff82111561483457600080fd5b60200191503681900382131561408457600080fd5b8183823760009101908152919050565b60006020828403121561486b57600080fd5b815167ffffffffffffffff81111561488257600080fd5b8201601f8101841361489357600080fd5b80516148a1613f808261431c565b8181528560208385010111156148b657600080fd5b612d3f82602083016020860161423c565b6020815260006133fc6020830184614268565b6000600182016148ec576148ec61446f565b5060010190565b600080821280156001600160ff1b03849003851316156149155761491561446f565b600160ff1b839003841281161561492e5761492e61446f565b50500190565b60008083128015600160ff1b8501841216156149525761495261446f565b6001600160ff1b038401831381161561496d5761496d61446f565b50500390565b60006020828403121561498557600080fd5b6040516020810181811067ffffffffffffffff821117156149a8576149a8613ef4565b6040529151825250919050565b60208152815160208201526000602083015160e060408401526149dc6101008401826146ff565b90506040840151601f19808584030160608601526149fa83836146ff565b92506060860151915080858403016080860152614a1783836146ff565b9250608086015160a086015260ff60a08701511660c086015260c08601519150808584030160e086015250612d3f82826146bb565b600061ffff80841680614a6157614a616144a4565b9216919091069291505056fea264697066735822122001a8bf0f4b18917c7988eea1e90e499c4bd1a5e4423e1a87ad09d5826aa1caf364736f6c634300080d0033",
  "libraries": {
    "MerkleLib": "0x57EE47829369e2EF62fBb423648bec70d0366204"
  }
}