{
  "address": "0xe1fC1EB80db9AD0160AEF6998673625bc2a09d14",
  "abi": [
    {
      "inputs": [
        {
          "internalType": "contract LpTokenFactoryInterface",
          "name": "_lpTokenFactory",
          "type": "address"
        },
        {
          "internalType": "contract FinderInterface",
          "name": "_finder",
          "type": "address"
        },
        {
          "internalType": "contract WETH9",
          "name": "_weth",
          "type": "address"
        },
        {
          "internalType": "address",
          "name": "_timer",
          "type": "address"
        }
      ],
      "stateMutability": "nonpayable",
      "type": "constructor"
    },
    {
      "anonymous": false,
      "inputs": [
        {
          "indexed": true,
          "internalType": "address",
          "name": "newBondToken",
          "type": "address"
        },
        {
          "indexed": false,
          "internalType": "uint256",
          "name": "newBondAmount",
          "type": "uint256"
        }
      ],
      "name": "BondSet",
      "type": "event"
    },
    {
      "anonymous": false,
      "inputs": [
        {
          "indexed": false,
          "internalType": "uint256",
          "name": "l2ChainId",
          "type": "uint256"
        },
        {
          "indexed": false,
          "internalType": "address",
          "name": "adapter",
          "type": "address"
        },
        {
          "indexed": false,
          "internalType": "address",
          "name": "spokePool",
          "type": "address"
        }
      ],
      "name": "CrossChainContractsSet",
      "type": "event"
    },
    {
      "anonymous": false,
      "inputs": [
        {
          "indexed": true,
          "internalType": "bytes32",
          "name": "poolRebalanceRoot",
          "type": "bytes32"
        },
        {
          "indexed": true,
          "internalType": "bytes32",
          "name": "relayerRefundRoot",
          "type": "bytes32"
        },
        {
          "indexed": false,
          "internalType": "bytes32",
          "name": "slowRelayRoot",
          "type": "bytes32"
        },
        {
          "indexed": true,
          "internalType": "address",
          "name": "proposer",
          "type": "address"
        }
      ],
      "name": "EmergencyRootBundleDeleted",
      "type": "event"
    },
    {
      "anonymous": false,
      "inputs": [
        {
          "indexed": false,
          "internalType": "bytes32",
          "name": "newIdentifier",
          "type": "bytes32"
        }
      ],
      "name": "IdentifierSet",
      "type": "event"
    },
    {
      "anonymous": false,
      "inputs": [
        {
          "indexed": false,
          "internalType": "address",
          "name": "l1Token",
          "type": "address"
        },
        {
          "indexed": false,
          "internalType": "address",
          "name": "lpToken",
          "type": "address"
        }
      ],
      "name": "L1TokenEnabledForLiquidityProvision",
      "type": "event"
    },
    {
      "anonymous": false,
      "inputs": [
        {
          "indexed": false,
          "internalType": "address",
          "name": "l1Token",
          "type": "address"
        },
        {
          "indexed": false,
          "internalType": "address",
          "name": "lpToken",
          "type": "address"
        }
      ],
      "name": "L2TokenDisabledForLiquidityProvision",
      "type": "event"
    },
    {
      "anonymous": false,
      "inputs": [
        {
          "indexed": true,
          "internalType": "address",
          "name": "l1Token",
          "type": "address"
        },
        {
          "indexed": false,
          "internalType": "uint256",
          "name": "amount",
          "type": "uint256"
        },
        {
          "indexed": false,
          "internalType": "uint256",
          "name": "lpTokensMinted",
          "type": "uint256"
        },
        {
          "indexed": true,
          "internalType": "address",
          "name": "liquidityProvider",
          "type": "address"
        }
      ],
      "name": "LiquidityAdded",
      "type": "event"
    },
    {
      "anonymous": false,
      "inputs": [
        {
          "indexed": true,
          "internalType": "address",
          "name": "l1Token",
          "type": "address"
        },
        {
          "indexed": false,
          "internalType": "uint256",
          "name": "amount",
          "type": "uint256"
        },
        {
          "indexed": false,
          "internalType": "uint256",
          "name": "lpTokensBurnt",
          "type": "uint256"
        },
        {
          "indexed": true,
          "internalType": "address",
          "name": "liquidityProvider",
          "type": "address"
        }
      ],
      "name": "LiquidityRemoved",
      "type": "event"
    },
    {
      "anonymous": false,
      "inputs": [
        {
          "indexed": false,
          "internalType": "uint256",
          "name": "newLiveness",
          "type": "uint256"
        }
      ],
      "name": "LivenessSet",
      "type": "event"
    },
    {
      "anonymous": false,
      "inputs": [
        {
          "indexed": true,
          "internalType": "address",
          "name": "previousOwner",
          "type": "address"
        },
        {
          "indexed": true,
          "internalType": "address",
          "name": "newOwner",
          "type": "address"
        }
      ],
      "name": "OwnershipTransferred",
      "type": "event"
    },
    {
      "anonymous": false,
      "inputs": [
        {
          "indexed": true,
          "internalType": "bool",
          "name": "isPaused",
          "type": "bool"
        }
      ],
      "name": "Paused",
      "type": "event"
    },
    {
      "anonymous": false,
      "inputs": [
        {
          "indexed": false,
          "internalType": "uint32",
          "name": "requestExpirationTimestamp",
          "type": "uint32"
        },
        {
          "indexed": false,
          "internalType": "uint64",
          "name": "unclaimedPoolRebalanceLeafCount",
          "type": "uint64"
        },
        {
          "indexed": false,
          "internalType": "uint256[]",
          "name": "bundleEvaluationBlockNumbers",
          "type": "uint256[]"
        },
        {
          "indexed": true,
          "internalType": "bytes32",
          "name": "poolRebalanceRoot",
          "type": "bytes32"
        },
        {
          "indexed": true,
          "internalType": "bytes32",
          "name": "relayerRefundRoot",
          "type": "bytes32"
        },
        {
          "indexed": false,
          "internalType": "bytes32",
          "name": "slowRelayRoot",
          "type": "bytes32"
        },
        {
          "indexed": true,
          "internalType": "address",
          "name": "proposer",
          "type": "address"
        }
      ],
      "name": "ProposeRootBundle",
      "type": "event"
    },
    {
      "anonymous": false,
      "inputs": [
        {
          "indexed": true,
          "internalType": "address",
          "name": "newProtocolFeeCaptureAddress",
          "type": "address"
        },
        {
          "indexed": true,
          "internalType": "uint256",
          "name": "newProtocolFeeCapturePct",
          "type": "uint256"
        }
      ],
      "name": "ProtocolFeeCaptureSet",
      "type": "event"
    },
    {
      "anonymous": false,
      "inputs": [
        {
          "indexed": true,
          "internalType": "address",
          "name": "l1Token",
          "type": "address"
        },
        {
          "indexed": true,
          "internalType": "uint256",
          "name": "accumulatedFees",
          "type": "uint256"
        }
      ],
      "name": "ProtocolFeesCapturedClaimed",
      "type": "event"
    },
    {
      "anonymous": false,
      "inputs": [
        {
          "indexed": true,
          "internalType": "address",
          "name": "disputer",
          "type": "address"
        },
        {
          "indexed": false,
          "internalType": "uint256",
          "name": "requestTime",
          "type": "uint256"
        },
        {
          "indexed": false,
          "internalType": "bytes",
          "name": "disputedAncillaryData",
          "type": "bytes"
        }
      ],
      "name": "RootBundleCanceled",
      "type": "event"
    },
    {
      "anonymous": false,
      "inputs": [
        {
          "indexed": true,
          "internalType": "address",
          "name": "disputer",
          "type": "address"
        },
        {
          "indexed": false,
          "internalType": "uint256",
          "name": "requestTime",
          "type": "uint256"
        },
        {
          "indexed": false,
          "internalType": "bytes",
          "name": "disputedAncillaryData",
          "type": "bytes"
        }
      ],
      "name": "RootBundleDisputed",
      "type": "event"
    },
    {
      "anonymous": false,
      "inputs": [
        {
          "indexed": true,
          "internalType": "uint256",
          "name": "leafId",
          "type": "uint256"
        },
        {
          "indexed": true,
          "internalType": "uint256",
          "name": "chainId",
          "type": "uint256"
        },
        {
          "indexed": false,
          "internalType": "address[]",
          "name": "l1Token",
          "type": "address[]"
        },
        {
          "indexed": false,
          "internalType": "uint256[]",
          "name": "bundleLpFees",
          "type": "uint256[]"
        },
        {
          "indexed": false,
          "internalType": "int256[]",
          "name": "netSendAmount",
          "type": "int256[]"
        },
        {
          "indexed": false,
          "internalType": "int256[]",
          "name": "runningBalance",
          "type": "int256[]"
        },
        {
          "indexed": true,
          "internalType": "address",
          "name": "caller",
          "type": "address"
        }
      ],
      "name": "RootBundleExecuted",
      "type": "event"
    },
    {
      "anonymous": false,
      "inputs": [
        {
          "indexed": true,
          "internalType": "uint256",
          "name": "chainId",
          "type": "uint256"
        },
        {
          "indexed": false,
          "internalType": "bytes",
          "name": "message",
          "type": "bytes"
        }
      ],
      "name": "SpokePoolAdminFunctionTriggered",
      "type": "event"
    },
    {
      "anonymous": false,
      "inputs": [
        {
          "indexed": true,
          "internalType": "uint256",
          "name": "originChainId",
          "type": "uint256"
        },
        {
          "indexed": true,
          "internalType": "uint256",
          "name": "destinationChainId",
          "type": "uint256"
        },
        {
          "indexed": true,
          "internalType": "address",
          "name": "originToken",
          "type": "address"
        },
        {
          "indexed": false,
          "internalType": "address",
          "name": "destinationToken",
          "type": "address"
        },
        {
          "indexed": false,
          "internalType": "bool",
          "name": "enableRoute",
          "type": "bool"
        }
      ],
      "name": "WhitelistRoute",
      "type": "event"
    },
    {
      "stateMutability": "payable",
      "type": "fallback"
    },
    {
      "inputs": [
        {
          "internalType": "address",
          "name": "l1Token",
          "type": "address"
        },
        {
          "internalType": "uint256",
          "name": "l1TokenAmount",
          "type": "uint256"
        }
      ],
      "name": "addLiquidity",
      "outputs": [],
      "stateMutability": "payable",
      "type": "function"
    },
    {
      "inputs": [],
      "name": "bondAmount",
      "outputs": [
        {
          "internalType": "uint256",
          "name": "",
          "type": "uint256"
        }
      ],
      "stateMutability": "view",
      "type": "function"
    },
    {
      "inputs": [],
      "name": "bondToken",
      "outputs": [
        {
          "internalType": "contract IERC20",
          "name": "",
          "type": "address"
        }
      ],
      "stateMutability": "view",
      "type": "function"
    },
    {
      "inputs": [
        {
          "internalType": "address",
          "name": "l1Token",
          "type": "address"
        }
      ],
      "name": "claimProtocolFeesCaptured",
      "outputs": [],
      "stateMutability": "nonpayable",
      "type": "function"
    },
    {
      "inputs": [
        {
          "internalType": "uint256",
          "name": "",
          "type": "uint256"
        }
      ],
      "name": "crossChainContracts",
      "outputs": [
        {
          "internalType": "contract AdapterInterface",
          "name": "adapter",
          "type": "address"
        },
        {
          "internalType": "address",
          "name": "spokePool",
          "type": "address"
        }
      ],
      "stateMutability": "view",
      "type": "function"
    },
    {
      "inputs": [
        {
          "internalType": "address",
          "name": "l1Token",
          "type": "address"
        }
      ],
      "name": "disableL1TokenForLiquidityProvision",
      "outputs": [],
      "stateMutability": "nonpayable",
      "type": "function"
    },
    {
      "inputs": [],
      "name": "disputeRootBundle",
      "outputs": [],
      "stateMutability": "nonpayable",
      "type": "function"
    },
    {
      "inputs": [],
      "name": "emergencyDeleteProposal",
      "outputs": [],
      "stateMutability": "nonpayable",
      "type": "function"
    },
    {
      "inputs": [
        {
          "internalType": "address",
          "name": "l1Token",
          "type": "address"
        }
      ],
      "name": "enableL1TokenForLiquidityProvision",
      "outputs": [],
      "stateMutability": "nonpayable",
      "type": "function"
    },
    {
      "inputs": [
        {
          "internalType": "address",
          "name": "l1Token",
          "type": "address"
        }
      ],
      "name": "exchangeRateCurrent",
      "outputs": [
        {
          "internalType": "uint256",
          "name": "",
          "type": "uint256"
        }
      ],
      "stateMutability": "nonpayable",
      "type": "function"
    },
    {
      "inputs": [
        {
          "components": [
            {
              "internalType": "uint256",
              "name": "chainId",
              "type": "uint256"
            },
            {
              "internalType": "uint256[]",
              "name": "bundleLpFees",
              "type": "uint256[]"
            },
            {
              "internalType": "int256[]",
              "name": "netSendAmounts",
              "type": "int256[]"
            },
            {
              "internalType": "int256[]",
              "name": "runningBalances",
              "type": "int256[]"
            },
            {
              "internalType": "uint8",
              "name": "leafId",
              "type": "uint8"
            },
            {
              "internalType": "address[]",
              "name": "l1Tokens",
              "type": "address[]"
            }
          ],
          "internalType": "struct HubPoolInterface.PoolRebalanceLeaf",
          "name": "poolRebalanceLeaf",
          "type": "tuple"
        },
        {
          "internalType": "bytes32[]",
          "name": "proof",
          "type": "bytes32[]"
        }
      ],
      "name": "executeRootBundle",
      "outputs": [],
      "stateMutability": "nonpayable",
      "type": "function"
    },
    {
      "inputs": [],
      "name": "finder",
      "outputs": [
        {
          "internalType": "contract FinderInterface",
          "name": "",
          "type": "address"
        }
      ],
      "stateMutability": "view",
      "type": "function"
    },
    {
      "inputs": [],
      "name": "getCurrentTime",
      "outputs": [
        {
          "internalType": "uint256",
          "name": "",
          "type": "uint256"
        }
      ],
      "stateMutability": "view",
      "type": "function"
    },
    {
      "inputs": [],
      "name": "getRootBundleProposalAncillaryData",
      "outputs": [
        {
          "internalType": "bytes",
          "name": "ancillaryData",
          "type": "bytes"
        }
      ],
      "stateMutability": "view",
      "type": "function"
    },
    {
      "inputs": [],
      "name": "identifier",
      "outputs": [
        {
          "internalType": "bytes32",
          "name": "",
          "type": "bytes32"
        }
      ],
      "stateMutability": "view",
      "type": "function"
    },
    {
      "inputs": [
        {
          "internalType": "address",
          "name": "l1Token",
          "type": "address"
        }
      ],
      "name": "liquidityUtilizationCurrent",
      "outputs": [
        {
          "internalType": "uint256",
          "name": "",
          "type": "uint256"
        }
      ],
      "stateMutability": "nonpayable",
      "type": "function"
    },
    {
      "inputs": [
        {
          "internalType": "address",
          "name": "l1Token",
          "type": "address"
        },
        {
          "internalType": "uint256",
          "name": "relayedAmount",
          "type": "uint256"
        }
      ],
      "name": "liquidityUtilizationPostRelay",
      "outputs": [
        {
          "internalType": "uint256",
          "name": "",
          "type": "uint256"
        }
      ],
      "stateMutability": "nonpayable",
      "type": "function"
    },
    {
      "inputs": [],
      "name": "liveness",
      "outputs": [
        {
          "internalType": "uint32",
          "name": "",
          "type": "uint32"
        }
      ],
      "stateMutability": "view",
      "type": "function"
    },
    {
      "inputs": [],
      "name": "loadEthForL2Calls",
      "outputs": [],
      "stateMutability": "payable",
      "type": "function"
    },
    {
      "inputs": [],
      "name": "lpFeeRatePerSecond",
      "outputs": [
        {
          "internalType": "uint256",
          "name": "",
          "type": "uint256"
        }
      ],
      "stateMutability": "view",
      "type": "function"
    },
    {
      "inputs": [],
      "name": "lpTokenFactory",
      "outputs": [
        {
          "internalType": "contract LpTokenFactoryInterface",
          "name": "",
          "type": "address"
        }
      ],
      "stateMutability": "view",
      "type": "function"
    },
    {
      "inputs": [
        {
          "internalType": "bytes[]",
          "name": "data",
          "type": "bytes[]"
        }
      ],
      "name": "multicall",
      "outputs": [
        {
          "internalType": "bytes[]",
          "name": "results",
          "type": "bytes[]"
        }
      ],
      "stateMutability": "payable",
      "type": "function"
    },
    {
      "inputs": [],
      "name": "owner",
      "outputs": [
        {
          "internalType": "address",
          "name": "",
          "type": "address"
        }
      ],
      "stateMutability": "view",
      "type": "function"
    },
    {
      "inputs": [],
      "name": "paused",
      "outputs": [
        {
          "internalType": "bool",
          "name": "",
          "type": "bool"
        }
      ],
      "stateMutability": "view",
      "type": "function"
    },
    {
      "inputs": [
        {
          "internalType": "address",
          "name": "",
          "type": "address"
        }
      ],
      "name": "pooledTokens",
      "outputs": [
        {
          "internalType": "address",
          "name": "lpToken",
          "type": "address"
        },
        {
          "internalType": "bool",
          "name": "isEnabled",
          "type": "bool"
        },
        {
          "internalType": "uint32",
          "name": "lastLpFeeUpdate",
          "type": "uint32"
        },
        {
          "internalType": "int256",
          "name": "utilizedReserves",
          "type": "int256"
        },
        {
          "internalType": "uint256",
          "name": "liquidReserves",
          "type": "uint256"
        },
        {
          "internalType": "uint256",
          "name": "undistributedLpFees",
          "type": "uint256"
        }
      ],
      "stateMutability": "view",
      "type": "function"
    },
    {
      "inputs": [
        {
          "internalType": "uint256[]",
          "name": "bundleEvaluationBlockNumbers",
          "type": "uint256[]"
        },
        {
          "internalType": "uint8",
          "name": "poolRebalanceLeafCount",
          "type": "uint8"
        },
        {
          "internalType": "bytes32",
          "name": "poolRebalanceRoot",
          "type": "bytes32"
        },
        {
          "internalType": "bytes32",
          "name": "relayerRefundRoot",
          "type": "bytes32"
        },
        {
          "internalType": "bytes32",
          "name": "slowRelayRoot",
          "type": "bytes32"
        }
      ],
      "name": "proposeRootBundle",
      "outputs": [],
      "stateMutability": "nonpayable",
      "type": "function"
    },
    {
      "inputs": [],
      "name": "protocolFeeCaptureAddress",
      "outputs": [
        {
          "internalType": "address",
          "name": "",
          "type": "address"
        }
      ],
      "stateMutability": "view",
      "type": "function"
    },
    {
      "inputs": [],
      "name": "protocolFeeCapturePct",
      "outputs": [
        {
          "internalType": "uint256",
          "name": "",
          "type": "uint256"
        }
      ],
      "stateMutability": "view",
      "type": "function"
    },
    {
      "inputs": [
        {
          "internalType": "uint256",
          "name": "chainId",
          "type": "uint256"
        },
        {
          "internalType": "bytes",
          "name": "functionData",
          "type": "bytes"
        }
      ],
      "name": "relaySpokePoolAdminFunction",
      "outputs": [],
      "stateMutability": "nonpayable",
      "type": "function"
    },
    {
      "inputs": [
        {
          "internalType": "address",
          "name": "l1Token",
          "type": "address"
        },
        {
          "internalType": "uint256",
          "name": "lpTokenAmount",
          "type": "uint256"
        },
        {
          "internalType": "bool",
          "name": "sendEth",
          "type": "bool"
        }
      ],
      "name": "removeLiquidity",
      "outputs": [],
      "stateMutability": "nonpayable",
      "type": "function"
    },
    {
      "inputs": [],
      "name": "renounceOwnership",
      "outputs": [],
      "stateMutability": "nonpayable",
      "type": "function"
    },
    {
      "inputs": [],
      "name": "rootBundleProposal",
      "outputs": [
        {
          "internalType": "bytes32",
          "name": "poolRebalanceRoot",
          "type": "bytes32"
        },
        {
          "internalType": "bytes32",
          "name": "relayerRefundRoot",
          "type": "bytes32"
        },
        {
          "internalType": "bytes32",
          "name": "slowRelayRoot",
          "type": "bytes32"
        },
        {
          "internalType": "uint256",
          "name": "claimedBitMap",
          "type": "uint256"
        },
        {
          "internalType": "address",
          "name": "proposer",
          "type": "address"
        },
        {
          "internalType": "uint8",
          "name": "unclaimedPoolRebalanceLeafCount",
          "type": "uint8"
        },
        {
          "internalType": "uint32",
          "name": "requestExpirationTimestamp",
          "type": "uint32"
        }
      ],
      "stateMutability": "view",
      "type": "function"
    },
    {
      "inputs": [
        {
          "internalType": "contract IERC20",
          "name": "newBondToken",
          "type": "address"
        },
        {
          "internalType": "uint256",
          "name": "newBondAmount",
          "type": "uint256"
        }
      ],
      "name": "setBond",
      "outputs": [],
      "stateMutability": "nonpayable",
      "type": "function"
    },
    {
      "inputs": [
        {
          "internalType": "uint256",
          "name": "l2ChainId",
          "type": "uint256"
        },
        {
          "internalType": "address",
          "name": "adapter",
          "type": "address"
        },
        {
          "internalType": "address",
          "name": "spokePool",
          "type": "address"
        }
      ],
      "name": "setCrossChainContracts",
      "outputs": [],
      "stateMutability": "nonpayable",
      "type": "function"
    },
    {
      "inputs": [
        {
          "internalType": "uint256",
          "name": "time",
          "type": "uint256"
        }
      ],
      "name": "setCurrentTime",
      "outputs": [],
      "stateMutability": "nonpayable",
      "type": "function"
    },
    {
      "inputs": [
        {
          "internalType": "bytes32",
          "name": "newIdentifier",
          "type": "bytes32"
        }
      ],
      "name": "setIdentifier",
      "outputs": [],
      "stateMutability": "nonpayable",
      "type": "function"
    },
    {
      "inputs": [
        {
          "internalType": "uint32",
          "name": "newLiveness",
          "type": "uint32"
        }
      ],
      "name": "setLiveness",
      "outputs": [],
      "stateMutability": "nonpayable",
      "type": "function"
    },
    {
      "inputs": [
        {
          "internalType": "bool",
          "name": "pause",
          "type": "bool"
        }
      ],
      "name": "setPaused",
      "outputs": [],
      "stateMutability": "nonpayable",
      "type": "function"
    },
    {
      "inputs": [
        {
          "internalType": "address",
          "name": "newProtocolFeeCaptureAddress",
          "type": "address"
        },
        {
          "internalType": "uint256",
          "name": "newProtocolFeeCapturePct",
          "type": "uint256"
        }
      ],
      "name": "setProtocolFeeCapture",
      "outputs": [],
      "stateMutability": "nonpayable",
      "type": "function"
    },
    {
      "inputs": [
        {
          "internalType": "address",
          "name": "l1Token",
          "type": "address"
        }
      ],
      "name": "sync",
      "outputs": [],
      "stateMutability": "nonpayable",
      "type": "function"
    },
    {
      "inputs": [],
      "name": "timerAddress",
      "outputs": [
        {
          "internalType": "address",
          "name": "",
          "type": "address"
        }
      ],
      "stateMutability": "view",
      "type": "function"
    },
    {
      "inputs": [
        {
          "internalType": "address",
          "name": "newOwner",
          "type": "address"
        }
      ],
      "name": "transferOwnership",
      "outputs": [],
      "stateMutability": "nonpayable",
      "type": "function"
    },
    {
      "inputs": [
        {
          "internalType": "address",
          "name": "",
          "type": "address"
        }
      ],
      "name": "unclaimedAccumulatedProtocolFees",
      "outputs": [
        {
          "internalType": "uint256",
          "name": "",
          "type": "uint256"
        }
      ],
      "stateMutability": "view",
      "type": "function"
    },
    {
      "inputs": [],
      "name": "weth",
      "outputs": [
        {
          "internalType": "contract WETH9",
          "name": "",
          "type": "address"
        }
      ],
      "stateMutability": "view",
      "type": "function"
    },
    {
      "inputs": [
        {
          "internalType": "uint256",
          "name": "originChainId",
          "type": "uint256"
        },
        {
          "internalType": "uint256",
          "name": "destinationChainId",
          "type": "uint256"
        },
        {
          "internalType": "address",
          "name": "originToken",
          "type": "address"
        },
        {
          "internalType": "address",
          "name": "destinationToken",
          "type": "address"
        },
        {
          "internalType": "bool",
          "name": "enableRoute",
          "type": "bool"
        }
      ],
      "name": "whitelistRoute",
      "outputs": [],
      "stateMutability": "nonpayable",
      "type": "function"
    },
    {
      "inputs": [
        {
          "internalType": "uint256",
          "name": "originChainId",
          "type": "uint256"
        },
        {
          "internalType": "address",
          "name": "originToken",
          "type": "address"
        },
        {
          "internalType": "uint256",
          "name": "destinationChainId",
          "type": "uint256"
        }
      ],
      "name": "whitelistedRoute",
      "outputs": [
        {
          "internalType": "address",
          "name": "",
          "type": "address"
        }
      ],
      "stateMutability": "view",
      "type": "function"
    },
    {
      "stateMutability": "payable",
      "type": "receive"
    }
  ],
  "transactionHash": "0xd9a488b2a9ddfdd87ca9ef38a6dc8515ed141ef2824acf87622dce8501c3b0c1",
  "args": [
    "0x56f2c8353049270d3553773E680B0d6c632544b6",
    "0xDC6b80D38004F495861E081e249213836a2F3217",
    "0x60D4dB9b534EF9260a88b0BED6c486fe13E604Fc",
    "0x0000000000000000000000000000000000000000"
  ],
  "numDeployments": 1,
  "solcInputHash": "a279276f4631f65ac9d6cbb82cf77d0b",
  "bytecode": "0x60806040527f49535f4143524f53535f56325f42554e444c455f56414c494400000000000000600e5565015d3ef79800600f556015805463ffffffff1916611c201790553480156200005057600080fd5b50604051620051e8380380620051e8833981016040819052620000739162000166565b600080546001600160a81b0319166001600160a01b03831617600160a01b179055620000a6620000a03390565b620000fb565b50600c80546001600160a01b03199081166001600160a01b0395861617909155600d8054821693851693909317909255600b8054831691841691909117905560015460118054919093169116179055620001ce565b600180546001600160a01b038381166001600160a01b0319831681179093556040519116919082907f8be0079c531659141344cd1fd0a4f28419497f9722a3daafe3b4186f6b6457e090600090a35050565b6001600160a01b03811681146200016357600080fd5b50565b600080600080608085870312156200017d57600080fd5b84516200018a816200014d565b60208601519094506200019d816200014d565b6040860151909350620001b0816200014d565b6060860151909250620001c3816200014d565b939692955090935050565b61500a80620001de6000396000f3fe60806040526004361061027f5760003560e01c8063625997c01161014f578063ac9650d8116100c1578063dd70e5e81161007a578063dd70e5e81461080e578063e0f339e31461082e578063e40064d71461084e578063e460e35c1461087b578063f0056a7d1461089b578063f2fde38b146109405761028e565b8063ac9650d81461074e578063ad68eda51461076e578063b60c2d7d1461078e578063b9a3c84c146107ae578063c28f4392146107ce578063cd949995146107ee5761028e565b80637998a1c4116101135780637998a1c4146106a457806380f323a7146106ba5780638bda0c00146106d05780638da5cb5b146106f0578063a16fd6e91461070e578063a58411941461072e5761028e565b8063625997c01461062857806369b625021461028c5780636ad0690a1461063d578063715018a61461066f57806376ec08dd146106845761028e565b806322395aaa116101f357806338b9e2ce116101ac57806338b9e2ce146105045780633fc8cef3146105245780634144fd61146105445780634f7473ff146105d557806356688700146105eb5780635c975abb146105fe5761028e565b806322395aaa1461045a57806322f8e5661461046f578063240f475f1461048f57806329cb924d146104af5780632d0f6f84146104c457806333dc09ca146104e45761028e565b80630c501af9116102455780630c501af91461038c5780630ee28a88146103ac57806311cfc159146103cc57806316c38b3c146103e25780631b107ee0146104025780631c39c38d146104225761028e565b8062660b5314610296578062c99206146102b6578063084d0513146102d657806309474ae2146103095780630a2dc9ec1461036a5761028e565b3661028e5761028c610960565b005b61028c610960565b3480156102a257600080fd5b5061028c6102b1366004614159565b6109de565b3480156102c257600080fd5b5061028c6102d1366004614185565b610abc565b3480156102e257600080fd5b506102f66102f1366004614159565b610c9f565b6040519081526020015b60405180910390f35b34801561031557600080fd5b5061034a610324366004614185565b600a60205260009081526040902080546001909101546001600160a01b03918216911682565b604080516001600160a01b03938416815292909116602083015201610300565b34801561037657600080fd5b5061037f610ccb565b60405161030091906141f6565b34801561039857600080fd5b5061028c6103a7366004614209565b610e9a565b3480156103b857600080fd5b5061028c6103c7366004614234565b610f2c565b3480156103d857600080fd5b506102f6600f5481565b3480156103ee57600080fd5b5061028c6103fd366004614276565b6110ee565b34801561040e57600080fd5b5061028c61041d366004614293565b61116a565b34801561042e57600080fd5b50600054610442906001600160a01b031681565b6040516001600160a01b039091168152602001610300565b34801561046657600080fd5b5061028c6112cb565b34801561047b57600080fd5b5061028c61048a366004614185565b611680565b34801561049b57600080fd5b50601154610442906001600160a01b031681565b3480156104bb57600080fd5b506102f66116db565b3480156104d057600080fd5b5061028c6104df366004614209565b611767565b3480156104f057600080fd5b5061028c6104ff366004614159565b611806565b34801561051057600080fd5b5061028c61051f366004614463565b611a17565b34801561053057600080fd5b50600b54610442906001600160a01b031681565b34801561055057600080fd5b5060025460035460045460055460065461058e94939291906001600160a01b03811690600160a01b810460ff1690600160a81b900463ffffffff1687565b6040805197885260208801969096529486019390935260608501919091526001600160a01b0316608084015260ff1660a083015263ffffffff1660c082015260e001610300565b3480156105e157600080fd5b506102f660125481565b61028c6105f9366004614159565b611d4b565b34801561060a57600080fd5b506007546106189060ff1681565b6040519015158152602001610300565b34801561063457600080fd5b5061028c611fdc565b34801561064957600080fd5b5060155461065a9063ffffffff1681565b60405163ffffffff9091168152602001610300565b34801561067b57600080fd5b5061028c6120c0565b34801561069057600080fd5b50600c54610442906001600160a01b031681565b3480156106b057600080fd5b506102f6600e5481565b3480156106c657600080fd5b506102f660145481565b3480156106dc57600080fd5b5061028c6106eb36600461457b565b6120f4565b3480156106fc57600080fd5b506001546001600160a01b0316610442565b34801561071a57600080fd5b506102f6610729366004614209565b6122be565b34801561073a57600080fd5b5061028c610749366004614209565b6122ea565b61076161075c3660046145e2565b61230b565b6040516103009190614656565b34801561077a57600080fd5b506104426107893660046146b8565b6124b0565b34801561079a57600080fd5b5061028c6107a9366004614209565b6124e5565b3480156107ba57600080fd5b50600d54610442906001600160a01b031681565b3480156107da57600080fd5b50601354610442906001600160a01b031681565b3480156107fa57600080fd5b5061028c6108093660046146f0565b6126a5565b34801561081a57600080fd5b5061028c61082936600461473d565b612763565b34801561083a57600080fd5b506102f6610849366004614209565b6127af565b34801561085a57600080fd5b506102f6610869366004614209565b60106020526000908152604090205481565b34801561088757600080fd5b5061028c6108963660046147c1565b6127ca565b3480156108a757600080fd5b506108fe6108b6366004614209565b60096020526000908152604090208054600182015460028301546003909301546001600160a01b03831693600160a01b840460ff1693600160a81b900463ffffffff16929186565b604080516001600160a01b039097168752941515602087015263ffffffff909316938501939093526060840152608083019190915260a082015260c001610300565b34801561094c57600080fd5b5061028c61095b366004614209565b612890565b600054600160a01b900460ff16156109dc57600b60009054906101000a90046001600160a01b03166001600160a01b031663d0e30db0346040518263ffffffff1660e01b81526004016000604051808303818588803b1580156109c257600080fd5b505af11580156109d6573d6000803e3d6000fd5b50505050505b565b6001546001600160a01b03163314610a115760405162461bcd60e51b8152600401610a08906147f8565b60405180910390fd5b670de0b6b3a7640000811115610a695760405162461bcd60e51b815260206004820152601960248201527f4261642070726f746f636f6c46656543617074757265506374000000000000006044820152606401610a08565b601180546001600160a01b0319166001600160a01b03841690811790915560128290556040518291907fc1993b89fd79a19ece7beb067ddc8534ca26d29c0ff94ea2f53b4a508d1eedc990600090a35050565b6001546001600160a01b03163314610ae65760405162461bcd60e51b8152600401610a08906147f8565b600654600160a01b900460ff1615610b105760405162461bcd60e51b8152600401610a089061482d565b610b18612928565b610b20612981565b600d546040516302abf57960e61b8152721259195b9d1a599a595c95da1a5d195b1a5cdd606a1b60048201526000916001600160a01b03169063aafd5e4090602401602060405180830381865afa158015610b7f573d6000803e3d6000fd5b505050506040513d601f19601f82011682018060405250810190610ba39190614864565b6040516390978d1b60e01b8152600481018490529091506001600160a01b038216906390978d1b90602401602060405180830381865afa158015610beb573d6000803e3d6000fd5b505050506040513d601f19601f82011682018060405250810190610c0f9190614881565b610c5b5760405162461bcd60e51b815260206004820152601860248201527f4964656e746966696572206e6f7420737570706f7274656400000000000000006044820152606401610a08565b600e8290556040518281527ff45367c278fcceff23d601ce4bdd191e5bd61687ff9f29dc7276a08fe54c0c5d9060200160405180910390a150610c9c612990565b50565b6000610ca9612928565b610cb1612981565b610cbb83836129a5565b9050610cc5612990565b92915050565b6040805160208082018352600082528251808401909352601a83527f7265717565737445787069726174696f6e54696d657374616d7000000000000090830152600654606092610d289291600160a81b900463ffffffff16612a9a565b60408051808201909152601f81527f756e636c61696d6564506f6f6c526562616c616e63654c656166436f756e74006020820152600654919250610d7891839190600160a01b900460ff16612a9a565b9050610db381604051806040016040528060118152602001701c1bdbdb149958985b185b98d9549bdbdd607a1b815250600260000154612ae0565b9050610dee81604051806040016040528060118152602001701c995b185e595c9499599d5b99149bdbdd607a1b815250600260010154612ae0565b9050610e24816040518060400160405280600d81526020016c1cdb1bddd4995b185e549bdbdd609a1b8152506002800154612ae0565b9050610e5b816040518060400160405280600d81526020016c0636c61696d65644269744d617609c1b815250600260030154612a9a565b604080518082019091526008815267383937b837b9b2b960c11b6020820152600654919250610e95918391906001600160a01b0316612afb565b905090565b6001546001600160a01b03163314610ec45760405162461bcd60e51b8152600401610a08906147f8565b6001600160a01b03818116600081815260096020908152604091829020805460ff60a01b1981169091558251938452909316928201929092527fac111b3b527b307393c94d98f26140effb71411054466818be97912d2d65f77691015b60405180910390a150565b610f34612928565b610f3c612981565b600b546001600160a01b0384811691161480610f56575080155b610f925760405162461bcd60e51b815260206004820152600d60248201526c086c2dce840e6cadcc840cae8d609b1b6044820152606401610a08565b6000670de0b6b3a7640000610fa685612b16565b610fb090856148b4565b610fba91906148e9565b6001600160a01b038581166000908152600960205260409081902054905163079cc67960e41b81523360048201526024810187905292935016906379cc6790906044016020604051808303816000875af115801561101c573d6000803e3d6000fd5b505050506040513d601f19601f820116820180604052508101906110409190614881565b506001600160a01b0384166000908152600960205260408120600201805483929061106c9084906148fd565b90915550508115611086576110813382612c0e565b61109a565b61109a6001600160a01b0385163383612cc9565b604080518281526020810185905233916001600160a01b038716917fcda1185f28599e6bd14ab8a68b3c30a11e1dce4256b5e67e94dd3fd846a6c589910160405180910390a3506110e9612990565b505050565b6001546001600160a01b031633146111185760405162461bcd60e51b8152600401610a08906147f8565b611120612928565b611128612981565b6007805460ff19168215159081179091556040517f0e2fb031ee032dc02d8011dc50b816eb450cf856abd8261680dac74f72165bd290600090a2610c9c612990565b6001546001600160a01b031633146111945760405162461bcd60e51b8152600401610a08906147f8565b61119c612928565b6111a4612981565b80156111f15781600860006111ba888789612d2c565b815260200190815260200160002060006101000a8154816001600160a01b0302191690836001600160a01b0316021790555061121f565b60086000611200878688612d2c565b8152602081019190915260400160002080546001600160a01b03191690555b6040516001600160a01b038416602482015260448101859052811515606482015261127890869060840160408051601f198184030181529190526020810180516001600160e01b031663272751c760e01b179052612d6c565b604080516001600160a01b0384811682528315156020830152851691869188917f6b6ad6b78778f6301df516688e316a2d4183a1ea99adae498c8e119debe9b146910160405180910390a46109d6612990565b6112d3612928565b6112db612981565b60006112e56116db565b60065490915063ffffffff600160a81b9091048116908216111561134b5760405162461bcd60e51b815260206004820152601760248201527f5265717565737420706173736564206c6976656e6573730000000000000000006044820152606401610a08565b6000611355610ccb565b90506000611361612ed7565b905060145481111561137e5761137682612fbf565b505050611659565b60006113886130a5565b6014546013549192506113a6916001600160a01b031690839061312b565b806001600160a01b031663af355d1e600e548686601360009054906101000a90046001600160a01b03166000886014546113e091906148fd565b6015546006546040516001600160e01b031960e08b901b1681526114279897969594939263ffffffff16916001600160a01b031690670de0b6b3a764000090600401614914565b6020604051808303816000875af1925050508015611462575060408051601f3d908101601f1916820190925261145f9181019061497f565b60015b6114785761146f83612fbf565b50505050611659565b601354611490906001600160a01b03168360006131e3565b5060408051610160810182526006546001600160a01b0390811682526000602083018190526013549091169282019290925260608101829052670de0b6b3a7640000608082015260a0810182905260155460c08201906114f69063ffffffff1688614998565b63ffffffff168152602001600081526020018481526020018460145461151c91906148fd565b815260155463ffffffff908116602090920191909152601454601354929350611553926001600160a01b031691339130916132f816565b601454601354611570916001600160a01b0390911690849061312b565b600e5460405163139c641960e31b81526001600160a01b03841691639ce320c8916115a89190899089908790339030906004016149c0565b6020604051808303816000875af11580156115c7573d6000803e3d6000fd5b505050506040513d601f19601f820116820180604052508101906115eb919061497f565b50336001600160a01b03167f4c789f44a7398cb63bf580e03ad5a7ec8228ea4935d3c1a1135eb449f0bb301b8686604051611627929190614abf565b60405180910390a2505060006002819055600381905560048190556005555050600680546001600160c81b0319169055505b6116786116646130a5565b6013546001600160a01b03169060006131e3565b6109dc612990565b6000546001600160a01b031661169557600080fd5b60005460405163117c72b360e11b8152600481018390526001600160a01b03909116906322f8e56690602401600060405180830381600087803b1580156109c257600080fd5b600080546001600160a01b0316156117625760008054906101000a90046001600160a01b03166001600160a01b03166329cb924d6040518163ffffffff1660e01b8152600401602060405180830381865afa15801561173e573d6000803e3d6000fd5b505050506040513d601f19601f82011682018060405250810190610e95919061497f565b504290565b61176f612928565b611777612981565b6011546001600160a01b038281166000818152601060205260409020546117a393919290911690612cc9565b6001600160a01b0381166000818152601060205260408082205490519092917f74740239d7d696c84422b720e125e1f47c4138c66d1f4d2a48e99f4197cdb79c91a36001600160a01b038116600090815260106020526040812055610c9c612990565b6001546001600160a01b031633146118305760405162461bcd60e51b8152600401610a08906147f8565b600654600160a01b900460ff161561185a5760405162461bcd60e51b8152600401610a089061482d565b611862612928565b61186a612981565b600d546040516302abf57960e61b81527210dbdb1b185d195c985b15da1a5d195b1a5cdd606a1b60048201526000916001600160a01b03169063aafd5e4090602401602060405180830381865afa1580156118c9573d6000803e3d6000fd5b505050506040513d601f19601f820116820180604052508101906118ed9190614864565b604051631d1d5b3960e11b81526001600160a01b03858116600483015291925090821690633a3ab67290602401602060405180830381865afa158015611937573d6000803e3d6000fd5b505050506040513d601f19601f8201168201806040525081019061195b9190614881565b61199a5760405162461bcd60e51b815260206004820152601060248201526f139bdd081bdb881dda1a5d195b1a5cdd60821b6044820152606401610a08565b601380546001600160a01b0319166001600160a01b0385161790556119bd612ed7565b6119c79083614ade565b60148190556040519081526001600160a01b038416907fbfa9a96010167e98ce8c004f718932cbbfd33a58d681c752e693be7d457a1b3b9060200160405180910390a250611a13612990565b5050565b611a1f612928565b611a27612981565b60075460ff1615611a7a5760405162461bcd60e51b815260206004820181905260248201527f50726f706f73616c2070726f6365737320686173206265656e207061757365646044820152606401610a08565b600654600160a81b900463ffffffff16611a926116db565b11611ad55760405162461bcd60e51b81526020600482015260136024820152724e6f7420706173736564206c6976656e65737360681b6044820152606401610a08565b6005546080830151600160ff9091161b9081161415611b285760405162461bcd60e51b815260206004820152600f60248201526e105b1c9958591e4818db185a5b5959608a1b6044820152606401610a08565b600254611b36908383613330565b611b6e5760405162461bcd60e51b81526020600482015260096024820152682130b210283937b7b360b91b6044820152606401610a08565b81516000908152600a60205260409020546001600160a01b0316611bcb5760405162461bcd60e51b815260206004820152601460248201527327379030b230b83a32b9103337b91031b430b4b760611b6044820152606401610a08565b81516000908152600a60205260409020600101546001600160a01b031680611c355760405162461bcd60e51b815260206004820152601860248201527f556e696e697469616c697a65642073706f6b6520706f6f6c00000000000000006044820152606401610a08565b611c4b600260030154846080015160ff1661336b565b60055560068054600160a01b900460ff16906014611c6883614af6565b91906101000a81548160ff021916908360ff16021790555050611c9e8184600001518560a00151866040015187602001516133ce565b611cac8184600001516136aa565b600654600160a01b900460ff16611cde57600654601454601354611cde926001600160a01b0391821692911690612cc9565b336001600160a01b03168360000151846080015160ff167f269bcb1817facd431d586b474ce46fe1ca2921cd1a19314c01a606804ea8b9458660a00151876020015188604001518960600151604051611d3a9493929190614b87565b60405180910390a450611a13612990565b611d53612928565b611d5b612981565b6001600160a01b038216600090815260096020526040902054600160a01b900460ff16611dbe5760405162461bcd60e51b8152602060048201526011602482015270151bdad95b881b9bdd08195b98589b1959607a1b6044820152606401610a08565b600b546001600160a01b038381169116148015611dda57508034145b80611de3575034155b611e1f5760405162461bcd60e51b815260206004820152600d60248201526c426164206d73672e76616c756560981b6044820152606401610a08565b6000611e2a83612b16565b611e3c83670de0b6b3a76400006148b4565b611e4691906148e9565b6001600160a01b03848116600090815260096020526040908190205490516340c10f1960e01b81523360048201526024810184905292935016906340c10f19906044016020604051808303816000875af1158015611ea8573d6000803e3d6000fd5b505050506040513d601f19601f82011682018060405250810190611ecc9190614881565b506001600160a01b03831660009081526009602052604081206002018054849290611ef8908490614ade565b9091555050600b546001600160a01b038481169116148015611f1a5750600034115b15611f7857826001600160a01b031663d0e30db0346040518263ffffffff1660e01b81526004016000604051808303818588803b158015611f5a57600080fd5b505af1158015611f6e573d6000803e3d6000fd5b5050505050611f8d565b611f8d6001600160a01b0384163330856132f8565b604080518381526020810183905233916001600160a01b038616917f3c69701a61c79a92ef9692903aaa0068bce8771361ecb09547391e4fb4df8537910160405180910390a350611a13612990565b6001546001600160a01b031633146120065760405162461bcd60e51b8152600401610a08906147f8565b61200e612928565b612016612981565b600654600160a01b900460ff161561204957600654601454601354612049926001600160a01b0391821692911690612cc9565b6006546003546002546004546040519081526001600160a01b03909316927f993cba33f9b140c9ce20ba10d7eda92128d5beb6df856f064916108a11647a739060200160405180910390a46000600281905560038190556004819055600555600680546001600160c81b03191690556109dc612990565b6001546001600160a01b031633146120ea5760405162461bcd60e51b8152600401610a08906147f8565b6109dc60006137b3565b6120fc612928565b612104612981565b600654600160a01b900460ff161561212e5760405162461bcd60e51b8152600401610a089061482d565b60075460ff16156121815760405162461bcd60e51b815260206004820181905260248201527f50726f706f73616c2070726f6365737320686173206265656e207061757365646044820152606401610a08565b60008460ff16116121d45760405162461bcd60e51b815260206004820181905260248201527f42756e646c65206d7573742068617665206174206c656173742031206c6561666044820152606401610a08565b60155460009063ffffffff166121e86116db565b6121f29190614998565b60006005556006805460028790556003869055600485905560ff8816600160a01b0263ffffffff808516600160a81b0260ff60a01b19166001600160c81b031990931692909217176001600160a01b0319163390811790925560145460135493945061226c936001600160a01b031692913091906132f816565b336001600160a01b031683857f50e585dd6361c7cb2613ce2334814bb2a789f5a8ad4b161fe0e248043737d1d284898b886040516122ad9493929190614bd4565b60405180910390a4506109d6612990565b60006122c8612928565b6122d0612981565b6122db8260006129a5565b90506122e5612990565b919050565b6122f2612928565b6122fa612981565b61230381613805565b610c9c612990565b6060341561235b5760405162461bcd60e51b815260206004820152601b60248201527f4f6e6c79206d756c746963616c6c207769746820302076616c756500000000006044820152606401610a08565b816001600160401b03811115612373576123736142f2565b6040519080825280602002602001820160405280156123a657816020015b60608152602001906001900390816123915790505b50905060005b828110156124a957600080308686858181106123ca576123ca614c0d565b90506020028101906123dc9190614c23565b6040516123ea929190614c70565b600060405180830381855af49150503d8060008114612425576040519150601f19603f3d011682016040523d82523d6000602084013e61242a565b606091505b5091509150816124765760448151101561244357600080fd5b6004810190508080602001905181019061245d9190614c80565b60405162461bcd60e51b8152600401610a0891906141f6565b8084848151811061248957612489614c0d565b6020026020010181905250505080806124a190614ced565b9150506123ac565b5092915050565b6000600860006124c1868686612d2c565b81526020810191909152604001600020546001600160a01b031690505b9392505050565b6001546001600160a01b0316331461250f5760405162461bcd60e51b8152600401610a08906147f8565b612517612928565b61251f612981565b6001600160a01b03818116600090815260096020526040902054166125de57600c54604051637e178db760e11b81526001600160a01b0383811660048301529091169063fc2f1b6e906024016020604051808303816000875af115801561258a573d6000803e3d6000fd5b505050506040513d601f19601f820116820180604052508101906125ae9190614864565b6001600160a01b03828116600090815260096020526040902080546001600160a01b031916929091169190911790555b6001600160a01b0381166000908152600960205260409020805460ff60a01b1916600160a01b17905561260f6116db565b6001600160a01b0380831660009081526009602052604090819020805463ffffffff94909416600160a81b0263ffffffff60a81b198516811790915590517f04e291c80180d65a57b5bf1bed775777ec0d6f283ef34bcf130712714d8bb7f7936126959386938116911617906001600160a01b0392831681529116602082015260400190565b60405180910390a1610c9c612990565b6001546001600160a01b031633146126cf5760405162461bcd60e51b8152600401610a08906147f8565b6102588163ffffffff161161271b5760405162461bcd60e51b8152602060048201526012602482015271131a5d995b995cdcc81d1bdbc81cda1bdc9d60721b6044820152606401610a08565b6015805463ffffffff191663ffffffff83169081179091556040519081527f04dd1d84d387f404568a7954b5e398518bdd716e1a8f4a790be9a1a225ad934790602001610f21565b6001546001600160a01b0316331461278d5760405162461bcd60e51b8152600401610a08906147f8565b612795612928565b61279d612981565b6127a78282612d6c565b611a13612990565b60006127b9612928565b6127c1612981565b6122db82612b16565b6001546001600160a01b031633146127f45760405162461bcd60e51b8152600401610a08906147f8565b6040805180820182526001600160a01b03848116808352848216602080850182815260008a8152600a8352879020955186549086166001600160a01b031991821617875590516001909601805496909516951694909417909255835187815292830152918101919091527f36050d958750e6ac3aa674ac7bbe8d0ae6a2f7d4b808e8c2c42c1f22fc9fc4bb9060600160405180910390a1505050565b6001546001600160a01b031633146128ba5760405162461bcd60e51b8152600401610a08906147f8565b6001600160a01b03811661291f5760405162461bcd60e51b815260206004820152602660248201527f4f776e61626c653a206e6577206f776e657220697320746865207a65726f206160448201526564647265737360d01b6064820152608401610a08565b610c9c816137b3565b600054600160a01b900460ff166109dc5760405162461bcd60e51b815260206004820152601f60248201527f5265656e7472616e637947756172643a207265656e7472616e742063616c6c006044820152606401610a08565b6000805460ff60a01b19169055565b6000805460ff60a01b1916600160a01b179055565b60006129b083613805565b6001600160a01b038381166000908152600960209081526040808320815160c08101835281549586168152600160a01b860460ff16151593810193909352600160a81b90940463ffffffff16908201526001830154606082018190526002840154608083015260039093015460a0820152918112612a2f576000612a35565b81606001515b90506000612a438286614ade565b90506000828460800151612a579190614ade565b905080612a7257670de0b6b3a7640000945050505050610cc5565b80612a8583670de0b6b3a76400006148b4565b612a8f91906148e9565b979650505050505050565b60606000612aa88585613954565b90508481612ab585613996565b604051602001612ac793929190614d08565b6040516020818303038152906040529150509392505050565b60606000612aee8585613954565b90508481612ab585613abe565b60606000612b098585613954565b90508481612ab585613aff565b6001600160a01b038082166000908152600960209081526040808320805482516318160ddd60e01b8152925194959194869491909216926318160ddd92600480830193928290030181865afa158015612b73573d6000803e3d6000fd5b505050506040513d601f19601f82011682018060405250810190612b97919061497f565b905080612baf5750670de0b6b3a76400009392505050565b612bb882613b56565b612bc184613805565b6000826003015483600101548460020154612bdc9190614d4b565b612be69190614d8c565b905081612bfb82670de0b6b3a76400006148b4565b612c0591906148e9565b95945050505050565b6001600160a01b0382163b15612c3557600b54611a13906001600160a01b03168383612cc9565b600b54604051632e1a7d4d60e01b8152600481018390526001600160a01b0390911690632e1a7d4d90602401600060405180830381600087803b158015612c7b57600080fd5b505af1158015612c8f573d6000803e3d6000fd5b50506040516001600160a01b038516925083156108fc02915083906000818181858888f193505050501580156110e9573d6000803e3d6000fd5b6040516001600160a01b0383166024820152604481018290526110e990849063a9059cbb60e01b906064015b60408051601f198184030181529190526020810180516001600160e01b03166001600160e01b031990931692909217909152613bbe565b604080516020808201959095526001600160a01b039390931683820152606080840192909252805180840390920182526080909201909152805191012090565b6000828152600a60205260409020546001600160a01b031680612dd15760405162461bcd60e51b815260206004820152601760248201527f41646170746572206e6f7420696e697469616c697a65640000000000000000006044820152606401610a08565b6000838152600a60205260408082206001015490516001600160a01b0380851692612e03929116908690602401614dcb565b60408051601f198184030181529181526020820180516001600160e01b0316637375c56f60e11b17905251612e389190614def565b600060405180830381855af49150503d8060008114612e73576040519150601f19603f3d011682016040523d82523d6000602084013e612e78565b606091505b5050905080612e995760405162461bcd60e51b8152600401610a0890614e0b565b837f218987b934c2f6bc596136829fbf43a5fef4d6fafce41f3f6254d9a870c2deec84604051612ec991906141f6565b60405180910390a250505050565b600d546040516302abf57960e61b81526453746f726560d81b60048201526000916001600160a01b03169063aafd5e4090602401602060405180830381865afa158015612f28573d6000803e3d6000fd5b505050506040513d601f19601f82011682018060405250810190612f4c9190614864565b601354604051635b97aadd60e01b81526001600160a01b039182166004820152911690635b97aadd90602401602060405180830381865afa158015612f95573d6000803e3d6000fd5b505050506040513d601f19601f82011682018060405250810190612fb99190614e38565b51919050565b60135460065460145460405163a9059cbb60e01b81526001600160a01b039283166004820152602481019190915291169063a9059cbb906044016020604051808303816000875af1158015613018573d6000803e3d6000fd5b505050506040513d601f19601f8201168201806040525081019061303c9190614881565b506000600281905560038190556004819055600555600680546001600160c81b0319169055337f1d2f9274429d71a4bfb9fe52ed39d766c4d0f7b072f0989cf7072229fbc6332861308b6116db565b8360405161309a929190614e79565b60405180910390a250565b600d546040516302abf57960e61b815275536b696e6e794f7074696d69737469634f7261636c6560501b60048201526000916001600160a01b03169063aafd5e4090602401602060405180830381865afa158015613107573d6000803e3d6000fd5b505050506040513d601f19601f82011682018060405250810190610e959190614864565b604051636eb1769f60e11b81523060048201526001600160a01b038381166024830152600091839186169063dd62ed3e90604401602060405180830381865afa15801561317c573d6000803e3d6000fd5b505050506040513d601f19601f820116820180604052508101906131a0919061497f565b6131aa9190614ade565b6040516001600160a01b0385166024820152604481018290529091506131dd90859063095ea7b360e01b90606401612cf5565b50505050565b80158061325d5750604051636eb1769f60e11b81523060048201526001600160a01b03838116602483015284169063dd62ed3e90604401602060405180830381865afa158015613237573d6000803e3d6000fd5b505050506040513d601f19601f8201168201806040525081019061325b919061497f565b155b6132c85760405162461bcd60e51b815260206004820152603660248201527f5361666545524332303a20617070726f76652066726f6d206e6f6e2d7a65726f60448201527520746f206e6f6e2d7a65726f20616c6c6f77616e636560501b6064820152608401610a08565b6040516001600160a01b0383166024820152604481018290526110e990849063095ea7b360e01b90606401612cf5565b6040516001600160a01b03808516602483015283166044820152606481018290526131dd9085906323b872dd60e01b90608401612cf5565b60006133638285856040516020016133489190614e92565b60405160208183030381529060405280519060200120613c90565b949350505050565b600060ff8211156133b45760405162461bcd60e51b8152602060048201526013602482015272496e646578206f7574206f6620626f756e647360681b6044820152606401610a08565b6133c061010083614f1e565b6001901b8317905092915050565b6000848152600a60205260408120546001600160a01b0316905b84518163ffffffff1610156136a1576000858263ffffffff168151811061341157613411614c0d565b6020026020010151905060006008600061342c46858c612d2c565b81526020810191909152604001600020546001600160a01b031690508061348d5760405162461bcd60e51b8152602060048201526015602482015274149bdd5d19481b9bdd081dda1a5d195b1a5cdd1959605a1b6044820152606401610a08565b6000868463ffffffff16815181106134a7576134a7614c0d565b60200260200101511315613663576000846001600160a01b03168383898763ffffffff16815181106134db576134db614c0d565b60209081029190910101516040516001600160a01b03938416602482015291831660448301526064820152908c16608482015260a40160408051601f198184030181529181526020820180516001600160e01b03166314b231d760e21b179052516135469190614def565b600060405180830381855af49150503d8060008114613581576040519150601f19603f3d011682016040523d82523d6000602084013e613586565b606091505b50509050806135a75760405162461bcd60e51b8152600401610a0890614e0b565b868463ffffffff16815181106135bf576135bf614c0d565b602002602001015160096000856001600160a01b03166001600160a01b0316815260200190815260200160002060010160008282546135fe9190614d4b565b92505081905550868463ffffffff168151811061361d5761361d614c0d565b602002602001015160096000856001600160a01b03166001600160a01b03168152602001908152602001600020600201600082825461365c91906148fd565b9091555050505b61368c82868563ffffffff168151811061367f5761367f614c0d565b6020026020010151613ca6565b5050808061369990614f32565b9150506133e8565b50505050505050565b6000818152600a6020526040808220546003546004549251602481019190915260448101929092526001600160a01b031691908290859060640160408051601f198184030181529181526020820180516001600160e01b031663124e93e160e21b1790525161371d929190602401614dcb565b60408051601f198184030181529181526020820180516001600160e01b0316637375c56f60e11b179052516137529190614def565b600060405180830381855af49150503d806000811461378d576040519150601f19603f3d011682016040523d82523d6000602084013e613792565b606091505b50509050806131dd5760405162461bcd60e51b8152600401610a0890614e0b565b600180546001600160a01b038381166001600160a01b0319831681179093556040519116919082907f8be0079c531659141344cd1fd0a4f28419497f9722a3daafe3b4186f6b6457e090600090a35050565b6040516370a0823160e01b81523060048201526000906001600160a01b038316906370a0823190602401602060405180830381865afa15801561384c573d6000803e3d6000fd5b505050506040513d601f19601f82011682018060405250810190613870919061497f565b6013549091506000906001600160a01b03848116911614801561389e5750600654600160a01b900460ff1615155b6138a857816138b5565b6014546138b590836148fd565b6001600160a01b0384166000908152600960205260409020600201549091508111156110e9576001600160a01b03831660009081526009602052604090206002015461390190826148fd565b6001600160a01b0384166000908152600960205260408120600101805490919061392c908490614d8c565b90915550506001600160a01b0383166000908152600960205260409020600201819055505050565b815160609015613985578160405160200161396f9190614f56565b6040516020818303038152906040529050610cc5565b8160405160200161396f9190614f8a565b6060816139ba5750506040805180820190915260018152600360fc1b602082015290565b8160005b81156139e457806139ce81614ced565b91506139dd9050600a836148e9565b91506139be565b6000816001600160401b038111156139fe576139fe6142f2565b6040519080825280601f01601f191660200182016040528015613a28576020820181803683370190505b509050815b8515613ab557613a3e6001826148fd565b90506000613a4d600a886148e9565b613a5890600a6148b4565b613a6290886148fd565b613a6d906030614faf565b905060008160f81b905080848481518110613a8a57613a8a614c0d565b60200101906001600160f81b031916908160001a905350613aac600a896148e9565b97505050613a2d565b50949350505050565b6060613acd608083901c613d79565b613ad683613d79565b6040805160208101939093528201526060015b6040516020818303038152906040529050919050565b6060613b176001600160801b03602084901c16613d79565b613b328360601b6bffffffffffffffffffffffff1916613d79565b604051602001613ae99291909182526001600160c01b031916602082015260280190565b60038101548154600091613b7691600160a81b900463ffffffff16613f12565b905080826003016000828254613b8c91906148fd565b90915550613b9a90506116db565b825463ffffffff91909116600160a81b0263ffffffff60a81b199091161790915550565b6000613c13826040518060400160405280602081526020017f5361666545524332303a206c6f772d6c6576656c2063616c6c206661696c6564815250856001600160a01b0316613f679092919063ffffffff16565b8051909150156110e95780806020019051810190613c319190614881565b6110e95760405162461bcd60e51b815260206004820152602a60248201527f5361666545524332303a204552433230206f7065726174696f6e20646964206e6044820152691bdd081cdd58d8d9595960b21b6064820152608401610a08565b600082613c9d8584613f76565b14949350505050565b6000670de0b6b3a764000060125483613cbf91906148b4565b613cc991906148e9565b90506000613cd782846148fd565b90508015613d40576001600160a01b03841660009081526009602052604081206003018054839290613d0a908490614ade565b90915550506001600160a01b03841660009081526009602052604081206001018054839290613d3a908490614d4b565b90915550505b81156131dd576001600160a01b03841660009081526010602052604081208054849290613d6e908490614ade565b909155505050505050565b6000808260001c9050806001600160801b03169050806801000000000000000002811777ffffffffffffffff0000000000000000ffffffffffffffff169050806401000000000281177bffffffff00000000ffffffff00000000ffffffff00000000ffffffff16905080620100000281177dffff0000ffff0000ffff0000ffff0000ffff0000ffff0000ffff0000ffff169050806101000281177eff00ff00ff00ff00ff00ff00ff00ff00ff00ff00ff00ff00ff00ff00ff00ff1690508060100281177f0f0f0f0f0f0f0f0f0f0f0f0f0f0f0f0f0f0f0f0f0f0f0f0f0f0f0f0f0f0f0f0f16905060006008827f08080808080808080808080808080808080808080808080808080808080808081681613e9457613e946148d3565b0460047f040404040404040404040404040404040404040404040404040404040404040484160460027f020202020202020202020202020202020202020202020202020202020202020285160417166027029091017f3030303030303030303030303030303030303030303030303030303030303030019392505050565b60008082613f1e6116db565b613f2891906148fd565b90506000670de0b6b3a764000082600f5487613f4491906148b4565b613f4e91906148b4565b613f5891906148e9565b90508481106133635784612c05565b60606133638484600085613fea565b600081815b8451811015613fe2576000858281518110613f9857613f98614c0d565b60200260200101519050808311613fbe5760008381526020829052604090209250613fcf565b600081815260208490526040902092505b5080613fda81614ced565b915050613f7b565b509392505050565b60608247101561404b5760405162461bcd60e51b815260206004820152602660248201527f416464726573733a20696e73756666696369656e742062616c616e636520666f6044820152651c8818d85b1b60d21b6064820152608401610a08565b6001600160a01b0385163b6140a25760405162461bcd60e51b815260206004820152601d60248201527f416464726573733a2063616c6c20746f206e6f6e2d636f6e74726163740000006044820152606401610a08565b600080866001600160a01b031685876040516140be9190614def565b60006040518083038185875af1925050503d80600081146140fb576040519150601f19603f3d011682016040523d82523d6000602084013e614100565b606091505b5091509150612a8f8282866060831561411a5750816124de565b82511561412a5782518084602001fd5b8160405162461bcd60e51b8152600401610a0891906141f6565b6001600160a01b0381168114610c9c57600080fd5b6000806040838503121561416c57600080fd5b823561417781614144565b946020939093013593505050565b60006020828403121561419757600080fd5b5035919050565b60005b838110156141b95781810151838201526020016141a1565b838111156131dd5750506000910152565b600081518084526141e281602086016020860161419e565b601f01601f19169290920160200192915050565b6020815260006124de60208301846141ca565b60006020828403121561421b57600080fd5b81356124de81614144565b8015158114610c9c57600080fd5b60008060006060848603121561424957600080fd5b833561425481614144565b925060208401359150604084013561426b81614226565b809150509250925092565b60006020828403121561428857600080fd5b81356124de81614226565b600080600080600060a086880312156142ab57600080fd5b853594506020860135935060408601356142c481614144565b925060608601356142d481614144565b915060808601356142e481614226565b809150509295509295909350565b634e487b7160e01b600052604160045260246000fd5b60405160c081016001600160401b038111828210171561432a5761432a6142f2565b60405290565b604051601f8201601f191681016001600160401b0381118282101715614358576143586142f2565b604052919050565b60006001600160401b03821115614379576143796142f2565b5060051b60200190565b600082601f83011261439457600080fd5b813560206143a96143a483614360565b614330565b82815260059290921b840181019181810190868411156143c857600080fd5b8286015b848110156143e357803583529183019183016143cc565b509695505050505050565b803560ff811681146122e557600080fd5b600082601f83011261441057600080fd5b813560206144206143a483614360565b82815260059290921b8401810191818101908684111561443f57600080fd5b8286015b848110156143e357803561445681614144565b8352918301918301614443565b6000806040838503121561447657600080fd5b82356001600160401b038082111561448d57600080fd5b9084019060c082870312156144a157600080fd5b6144a9614308565b823581526020830135828111156144bf57600080fd5b6144cb88828601614383565b6020830152506040830135828111156144e357600080fd5b6144ef88828601614383565b60408301525060608301358281111561450757600080fd5b61451388828601614383565b606083015250614525608084016143ee565b608082015260a08301358281111561453c57600080fd5b614548888286016143ff565b60a0830152509350602085013591508082111561456457600080fd5b5061457185828601614383565b9150509250929050565b600080600080600060a0868803121561459357600080fd5b85356001600160401b038111156145a957600080fd5b6145b588828901614383565b9550506145c4602087016143ee565b94979496505050506040830135926060810135926080909101359150565b600080602083850312156145f557600080fd5b82356001600160401b038082111561460c57600080fd5b818501915085601f83011261462057600080fd5b81358181111561462f57600080fd5b8660208260051b850101111561464457600080fd5b60209290920196919550909350505050565b6000602080830181845280855180835260408601915060408160051b870101925083870160005b828110156146ab57603f198886030184526146998583516141ca565b9450928501929085019060010161467d565b5092979650505050505050565b6000806000606084860312156146cd57600080fd5b8335925060208401356146df81614144565b929592945050506040919091013590565b60006020828403121561470257600080fd5b813563ffffffff811681146124de57600080fd5b60006001600160401b0382111561472f5761472f6142f2565b50601f01601f191660200190565b6000806040838503121561475057600080fd5b8235915060208301356001600160401b0381111561476d57600080fd5b8301601f8101851361477e57600080fd5b803561478c6143a482614716565b8181528660208385010111156147a157600080fd5b816020840160208301376000602083830101528093505050509250929050565b6000806000606084860312156147d657600080fd5b8335925060208401356147e881614144565b9150604084013561426b81614144565b6020808252818101527f4f776e61626c653a2063616c6c6572206973206e6f7420746865206f776e6572604082015260600190565b6020808252601c908201527f70726f706f73616c2068617320756e636c61696d6564206c6561667300000000604082015260600190565b60006020828403121561487657600080fd5b81516124de81614144565b60006020828403121561489357600080fd5b81516124de81614226565b634e487b7160e01b600052601160045260246000fd5b60008160001904831182151516156148ce576148ce61489e565b500290565b634e487b7160e01b600052601260045260246000fd5b6000826148f8576148f86148d3565b500490565b60008282101561490f5761490f61489e565b500390565b60006101208b835263ffffffff808c16602085015281604085015261493b8285018c6141ca565b6001600160a01b039a8b166060860152608085019990995260a084019790975250509290931660c083015290931660e0840152610100909201919091529392505050565b60006020828403121561499157600080fd5b5051919050565b600063ffffffff8083168185168083038211156149b7576149b761489e565b01949350505050565b600061020088835263ffffffff881660208401528060408401526149e6818401886141ca565b9150506149ff6060830186516001600160a01b03169052565b60208501516001600160a01b03811660808401525060408501516001600160a01b03811660a084015250606085015180151560c084015250608085015160e083015260a0850151610100818185015260c08701519150610120828186015260e0880151925061014083818701528289015161016087015281890151610180870152808901516101a087015250505050614aa46101c08301856001600160a01b03169052565b6001600160a01b0383166101e0830152979650505050505050565b63ffffffff8316815260406020820152600061336360408301846141ca565b60008219821115614af157614af161489e565b500190565b600060ff821680614b0957614b0961489e565b6000190192915050565b600081518084526020808501945080840160005b83811015614b4c5781516001600160a01b031687529582019590820190600101614b27565b509495945050505050565b600081518084526020808501945080840160005b83811015614b4c57815187529582019590820190600101614b6b565b608081526000614b9a6080830187614b13565b8281036020840152614bac8187614b57565b90508281036040840152614bc08186614b57565b90508281036060840152612a8f8185614b57565b63ffffffff8516815260ff84166020820152608060408201526000614bfc6080830185614b57565b905082606083015295945050505050565b634e487b7160e01b600052603260045260246000fd5b6000808335601e19843603018112614c3a57600080fd5b8301803591506001600160401b03821115614c5457600080fd5b602001915036819003821315614c6957600080fd5b9250929050565b8183823760009101908152919050565b600060208284031215614c9257600080fd5b81516001600160401b03811115614ca857600080fd5b8201601f81018413614cb957600080fd5b8051614cc76143a482614716565b818152856020838501011115614cdc57600080fd5b612c0582602083016020860161419e565b6000600019821415614d0157614d0161489e565b5060010190565b60008451614d1a81846020890161419e565b845190830190614d2e81836020890161419e565b8451910190614d4181836020880161419e565b0195945050505050565b600080821280156001600160ff1b0384900385131615614d6d57614d6d61489e565b600160ff1b8390038412811615614d8657614d8661489e565b50500190565b60008083128015600160ff1b850184121615614daa57614daa61489e565b6001600160ff1b0384018313811615614dc557614dc561489e565b50500390565b6001600160a01b0383168152604060208201819052600090613363908301846141ca565b60008251614e0181846020870161419e565b9190910192915050565b60208082526013908201527219195b1959d85d1958d85b1b0819985a5b1959606a1b604082015260600190565b600060208284031215614e4a57600080fd5b604051602081018181106001600160401b0382111715614e6c57614e6c6142f2565b6040529151825250919050565b82815260406020820152600061336360408301846141ca565b60208152815160208201526000602083015160c06040840152614eb860e0840182614b57565b90506040840151601f1980858403016060860152614ed68383614b57565b92506060860151915080858403016080860152614ef38383614b57565b925060ff60808701511660a086015260a08601519150808584030160c086015250612c058282614b13565b600082614f2d57614f2d6148d3565b500690565b600063ffffffff80831681811415614f4c57614f4c61489e565b6001019392505050565b600b60fa1b815260008251614f7281600185016020870161419e565b601d60f91b6001939091019283015250600201919050565b60008251614f9c81846020870161419e565b601d60f91b920191825250600101919050565b600060ff821660ff84168060ff03821115614fcc57614fcc61489e565b01939250505056fea2646970667358221220777769bea87524c859b5b55ca9cd8838f00ef8ae2fc22760bc7afed4f9496abd64736f6c634300080b0033",
  "libraries": {
    "MerkleLib": "0x56f2c8353049270d3553773E680B0d6c632544b6"
  }
}