{
  "address": "0x161fe369a62BE3A8dC916255CDF70be1588E85F2",
  "abi": [
    {
      "inputs": [
        {
          "internalType": "contract WETH9Interface",
          "name": "_l1Weth",
          "type": "address"
        },
        {
          "internalType": "contract IMessageService",
          "name": "_l1MessageService",
          "type": "address"
        },
        {
          "internalType": "contract ITokenBridge",
          "name": "_l1TokenBridge",
          "type": "address"
        },
        {
          "internalType": "contract IUSDCBridge",
          "name": "_l1UsdcBridge",
          "type": "address"
        }
      ],
      "stateMutability": "nonpayable",
      "type": "constructor"
    },
    {
      "anonymous": false,
      "inputs": [
        {
          "indexed": false,
          "internalType": "address",
          "name": "target",
          "type": "address"
        },
        {
          "indexed": false,
          "internalType": "bytes",
          "name": "message",
          "type": "bytes"
        }
      ],
      "name": "MessageRelayed",
      "type": "event"
    },
    {
      "anonymous": false,
      "inputs": [
        {
          "indexed": false,
          "internalType": "address",
          "name": "l1Token",
          "type": "address"
        },
        {
          "indexed": false,
          "internalType": "address",
          "name": "l2Token",
          "type": "address"
        },
        {
          "indexed": false,
          "internalType": "uint256",
          "name": "amount",
          "type": "uint256"
        },
        {
          "indexed": false,
          "internalType": "address",
          "name": "to",
          "type": "address"
        }
      ],
      "name": "TokensRelayed",
      "type": "event"
    },
    {
      "inputs": [],
      "name": "l1MessageService",
      "outputs": [
        {
          "internalType": "contract IMessageService",
          "name": "",
          "type": "address"
        }
      ],
      "stateMutability": "view",
      "type": "function"
    },
    {
      "inputs": [],
      "name": "l1TokenBridge",
      "outputs": [
        {
          "internalType": "contract ITokenBridge",
          "name": "",
          "type": "address"
        }
      ],
      "stateMutability": "view",
      "type": "function"
    },
    {
      "inputs": [],
      "name": "l1UsdcBridge",
      "outputs": [
        {
          "internalType": "contract IUSDCBridge",
          "name": "",
          "type": "address"
        }
      ],
      "stateMutability": "view",
      "type": "function"
    },
    {
      "inputs": [],
      "name": "l1Weth",
      "outputs": [
        {
          "internalType": "contract WETH9Interface",
          "name": "",
          "type": "address"
        }
      ],
      "stateMutability": "view",
      "type": "function"
    },
    {
      "inputs": [
        {
          "internalType": "address",
          "name": "target",
          "type": "address"
        },
        {
          "internalType": "bytes",
          "name": "message",
          "type": "bytes"
        }
      ],
      "name": "relayMessage",
      "outputs": [],
      "stateMutability": "payable",
      "type": "function"
    },
    {
      "inputs": [
        {
          "internalType": "address",
          "name": "l1Token",
          "type": "address"
        },
        {
          "internalType": "address",
          "name": "l2Token",
          "type": "address"
        },
        {
          "internalType": "uint256",
          "name": "amount",
          "type": "uint256"
        },
        {
          "internalType": "address",
          "name": "to",
          "type": "address"
        }
      ],
      "name": "relayTokens",
      "outputs": [],
      "stateMutability": "payable",
      "type": "function"
    }
  ],
  "transactionHash": "0x426798df6a521b89b536514868e81f8ce1ad295511b95e0b1ee6bce8bb2517ea",
  "args": [
    "0xB4FBF271143F4FBf7B91A5ded31805e42b2208d6",
    "0x70BaD09280FD342D02fe64119779BC1f0791BAC2",
    "0x5506A3805fB8A58Fa58248CC52d2b06D92cA94e6",
    "0x32D123756d32d3eD6580935f8edF416e57b940f4"
  ],
  "numDeployments": 4,
  "solcInputHash": "e596d14f390e41eee18ea7a7ef656efa",
  "bytecode": "0x610100346100e057601f610e2c38819003918201601f19168301916001600160401b038311848410176100e4578084926080946040528339810103126100e05780516001600160a01b03919082811681036100e05760208201519083821682036100e05760408301519284841684036100e0576060015193841684036100e05760805260a05260c05260e052604051610d3390816100f982396080518181816102c301526107c5015260a05181818160eb0152818161022d0152610339015260c05181818161055c0152610759015260e05181818161046501526106eb0152f35b5f80fd5b634e487b7160e01b5f52604160045260245ffdfe6080604081815260049081361015610015575f80fd5b5f925f3560e01c908163146bf4b11461077d5750806336c717c11461070f578063385a6970146106a157806352c8c75c1461025157806364aaef7e146101e25763e6eb8ade14610063575f80fd5b807ffffffffffffffffffffffffffffffffffffffffffffffffffffffffffffffffc3601126101de576100946107e9565b91602435928467ffffffffffffffff918286116101da57366023870112156101da57858401359283116101da57602486019560248436920101116101da5773ffffffffffffffffffffffffffffffffffffffff90817f00000000000000000000000000000000000000000000000000000000000000001690813b156101d657839187519384927f9f3ce55a00000000000000000000000000000000000000000000000000000000845216809783015282602483015260606044830152818061016060648201898d61088e565b039134905af180156101cc576101b4575b50507f9e6c52944e331ba6270e7fe4cea2a4086bae8f7a27e1cdba07f416806f5d0ac4936101ae918451948594855280602086015284019161088e565b0390a180f35b6101bd9061080c565b6101c857845f610171565b8480fd5b85513d84823e3d90fd5b8380fd5b5080fd5b8280fd5b8382346101da57817ffffffffffffffffffffffffffffffffffffffffffffffffffffffffffffffffc3601126101da576020905173ffffffffffffffffffffffffffffffffffffffff7f0000000000000000000000000000000000000000000000000000000000000000168152f35b509060807ffffffffffffffffffffffffffffffffffffffffffffffffffffffffffffffffc360112610653576102856107e9565b9060243573ffffffffffffffffffffffffffffffffffffffff90818116809103610653576044359160643593818516809503610653579481169487917f0000000000000000000000000000000000000000000000000000000000000000811687810361043d57803b156101d65783809160248b51809481937f2e1a7d4d0000000000000000000000000000000000000000000000000000000083528b898401525af190811561043357849161041f575b50507f00000000000000000000000000000000000000000000000000000000000000001690813b156101de578560848492878b5195869485937f9f3ce55a000000000000000000000000000000000000000000000000000000008552840152856024840152606060448401528560648401525af18015610415576103f5575b5050907fd7e09655439c3932e55857df3220186e5a7f0980825f20691c2b35d941dee75b9460809493925b815194855260208501528301526060820152a180f35b61040390959493929561080c565b61041157909192855f6103b4565b8580fd5b87513d84823e3d90fd5b6104289061080c565b6101de57825f610335565b89513d86823e3d90fd5b5087517f3e413bee0000000000000000000000000000000000000000000000000000000081527f0000000000000000000000000000000000000000000000000000000000000000821693506020818481875afa90811561069757908a949392915f91610657575b508116880361055157506104b98583896108cc565b813b156101de578460448492838b5195869485937f70aff70f0000000000000000000000000000000000000000000000000000000085528401528a60248401525af1801561041557610535575b5050907fd7e09655439c3932e55857df3220186e5a7f0980825f20691c2b35d941dee75b9460809493926103df565b61054390959493929561080c565b61041157909192855f610506565b9150915095929394957f000000000000000000000000000000000000000000000000000000000000000016906105888583896108cc565b813b15610653578660645f9283875195869485937f522ea81a0000000000000000000000000000000000000000000000000000000085528401528960248401528a60448401525af1801561064957610609575b5091608093917fd7e09655439c3932e55857df3220186e5a7f0980825f20691c2b35d941dee75b95936103df565b7fd7e09655439c3932e55857df3220186e5a7f0980825f20691c2b35d941dee75b95939196509161063c6080959361080c565b5f969193955091936105db565b83513d5f823e3d90fd5b5f80fd5b919450506020813d60201161068f575b816106746020938361084d565b810103126106535751928084168403610653578993816104a4565b3d9150610667565b89513d5f823e3d90fd5b5034610653575f7ffffffffffffffffffffffffffffffffffffffffffffffffffffffffffffffffc360112610653576020905173ffffffffffffffffffffffffffffffffffffffff7f0000000000000000000000000000000000000000000000000000000000000000168152f35b5034610653575f7ffffffffffffffffffffffffffffffffffffffffffffffffffffffffffffffffc360112610653576020905173ffffffffffffffffffffffffffffffffffffffff7f0000000000000000000000000000000000000000000000000000000000000000168152f35b34610653575f7ffffffffffffffffffffffffffffffffffffffffffffffffffffffffffffffffc3601126106535760209073ffffffffffffffffffffffffffffffffffffffff7f0000000000000000000000000000000000000000000000000000000000000000168152f35b6004359073ffffffffffffffffffffffffffffffffffffffff8216820361065357565b67ffffffffffffffff811161082057604052565b7f4e487b71000000000000000000000000000000000000000000000000000000005f52604160045260245ffd5b90601f7fffffffffffffffffffffffffffffffffffffffffffffffffffffffffffffffe0910116810190811067ffffffffffffffff82111761082057604052565b601f82602094937fffffffffffffffffffffffffffffffffffffffffffffffffffffffffffffffe093818652868601375f8582860101520116010190565b9173ffffffffffffffffffffffffffffffffffffffff80931660409081517fdd62ed3e0000000000000000000000000000000000000000000000000000000081526004953087830152602495169182868301526020948583604481855afa928315610bd3575f93610ba4575b508201809211610b7957835191858301937f095ea7b300000000000000000000000000000000000000000000000000000000855287840152604483015260448252608082019267ffffffffffffffff9280851084861117610b4e5760c0810185811085821117610b235786528685527f5361666545524332303a206c6f772d6c6576656c2063616c6c206661696c656460a0820152515f9182919082855af1903d15610b14573d928311610ae95790610a2e939291855192610a21887fffffffffffffffffffffffffffffffffffffffffffffffffffffffffffffffe0601f840116018561084d565b83523d5f8885013e610bdd565b8051838115918215610ac9575b5050905015610a4a5750505050565b517f08c379a000000000000000000000000000000000000000000000000000000000815292830152602a908201527f5361666545524332303a204552433230206f7065726174696f6e20646964206e60448201527f6f742073756363656564000000000000000000000000000000000000000000006064820152608490fd5b83809293500103126106535782015180151581036106535780835f610a3b565b866041897f4e487b71000000000000000000000000000000000000000000000000000000005f52525ffd5b90610a2e939250606091610bdd565b8860418b7f4e487b71000000000000000000000000000000000000000000000000000000005f52525ffd5b8760418a7f4e487b71000000000000000000000000000000000000000000000000000000005f52525ffd5b856011887f4e487b71000000000000000000000000000000000000000000000000000000005f52525ffd5b9092508581813d8311610bcc575b610bbc818361084d565b810103126106535751915f610938565b503d610bb2565b85513d5f823e3d90fd5b91929015610c585750815115610bf1575090565b3b15610bfa5790565b60646040517f08c379a000000000000000000000000000000000000000000000000000000000815260206004820152601d60248201527f416464726573733a2063616c6c20746f206e6f6e2d636f6e74726163740000006044820152fd5b825190915015610c6b5750805190602001fd5b604051907f08c379a00000000000000000000000000000000000000000000000000000000082528160208060048301528251928360248401525f5b848110610ce6575050507fffffffffffffffffffffffffffffffffffffffffffffffffffffffffffffffe0601f835f604480968601015201168101030190fd5b818101830151868201604401528593508201610ca656fea2646970667358221220e3309cbecec396139050735430e8520c9e6e299564b467c340995f7d7bb042c764736f6c63430008170033",
  "devdoc": {
    "kind": "dev",
    "methods": {
      "constructor": {
        "params": {
          "_l1MessageService": "Canonical message service contract on L1.",
          "_l1TokenBridge": "Canonical token bridge contract on L1.",
          "_l1UsdcBridge": "L1 USDC Bridge to ConsenSys's L2 Linea.",
          "_l1Weth": "WETH address on L1."
        }
      },
      "relayMessage(address,bytes)": {
        "params": {
          "message": "Data to send to target.",
          "target": "Contract on Linea that will receive message."
        }
      },
      "relayTokens(address,address,uint256,address)": {
        "params": {
          "amount": "Amount of L1 tokens to deposit and L2 tokens to receive.",
          "l1Token": "L1 token to deposit.",
          "l2Token": "L2 token to receive.",
          "to": "Bridge recipient."
        }
      }
    },
    "version": 1
  },
  "userdoc": {
    "kind": "user",
    "methods": {
      "constructor": {
        "notice": "Constructs new Adapter."
      },
      "relayMessage(address,bytes)": {
        "notice": "Send cross-chain message to target on Linea."
      },
      "relayTokens(address,address,uint256,address)": {
        "notice": "Bridge tokens to Linea."
      }
    },
    "version": 1
  },
  "storageLayout": {
    "storage": [],
    "types": null
  }
}