{
  "address": "0x8c6d1940450A0719b674009093af698Ea44adAE3",
  "abi": [
    {
      "inputs": [
        {
          "internalType": "contract WETH9Interface",
          "name": "_l1Weth",
          "type": "address"
        },
        {
          "internalType": "contract IERC20",
          "name": "_l1Usdc",
          "type": "address"
        },
        {
          "internalType": "contract IMessageService",
          "name": "_l1MessageService",
          "type": "address"
        },
        {
          "internalType": "contract ITokenBridge",
          "name": "_l1TokenBridge",
          "type": "address"
        },
        {
          "internalType": "contract IUSDCBridge",
          "name": "_l1UsdcBridge",
          "type": "address"
        }
      ],
      "stateMutability": "nonpayable",
      "type": "constructor"
    },
    {
      "anonymous": false,
      "inputs": [
        {
          "indexed": false,
          "internalType": "address",
          "name": "target",
          "type": "address"
        },
        {
          "indexed": false,
          "internalType": "bytes",
          "name": "message",
          "type": "bytes"
        }
      ],
      "name": "MessageRelayed",
      "type": "event"
    },
    {
      "anonymous": false,
      "inputs": [
        {
          "indexed": false,
          "internalType": "address",
          "name": "l1Token",
          "type": "address"
        },
        {
          "indexed": false,
          "internalType": "address",
          "name": "l2Token",
          "type": "address"
        },
        {
          "indexed": false,
          "internalType": "uint256",
          "name": "amount",
          "type": "uint256"
        },
        {
          "indexed": false,
          "internalType": "address",
          "name": "to",
          "type": "address"
        }
      ],
      "name": "TokensRelayed",
      "type": "event"
    },
    {
      "inputs": [],
      "name": "l1MessageService",
      "outputs": [
        {
          "internalType": "contract IMessageService",
          "name": "",
          "type": "address"
        }
      ],
      "stateMutability": "view",
      "type": "function"
    },
    {
      "inputs": [],
      "name": "l1TokenBridge",
      "outputs": [
        {
          "internalType": "contract ITokenBridge",
          "name": "",
          "type": "address"
        }
      ],
      "stateMutability": "view",
      "type": "function"
    },
    {
      "inputs": [],
      "name": "l1Usdc",
      "outputs": [
        {
          "internalType": "contract IERC20",
          "name": "",
          "type": "address"
        }
      ],
      "stateMutability": "view",
      "type": "function"
    },
    {
      "inputs": [],
      "name": "l1UsdcBridge",
      "outputs": [
        {
          "internalType": "contract IUSDCBridge",
          "name": "",
          "type": "address"
        }
      ],
      "stateMutability": "view",
      "type": "function"
    },
    {
      "inputs": [],
      "name": "l1Weth",
      "outputs": [
        {
          "internalType": "contract WETH9Interface",
          "name": "",
          "type": "address"
        }
      ],
      "stateMutability": "view",
      "type": "function"
    },
    {
      "inputs": [
        {
          "internalType": "address",
          "name": "target",
          "type": "address"
        },
        {
          "internalType": "bytes",
          "name": "message",
          "type": "bytes"
        }
      ],
      "name": "relayMessage",
      "outputs": [],
      "stateMutability": "payable",
      "type": "function"
    },
    {
      "inputs": [
        {
          "internalType": "address",
          "name": "l1Token",
          "type": "address"
        },
        {
          "internalType": "address",
          "name": "l2Token",
          "type": "address"
        },
        {
          "internalType": "uint256",
          "name": "amount",
          "type": "uint256"
        },
        {
          "internalType": "address",
          "name": "to",
          "type": "address"
        }
      ],
      "name": "relayTokens",
      "outputs": [],
      "stateMutability": "payable",
      "type": "function"
    }
  ],
  "transactionHash": "0x44332cc0a6853c80d57b18b5ba2c0a02b0ef4870df23921303e35b23340d0c80",
  "args": [
    "0xB4FBF271143F4FBf7B91A5ded31805e42b2208d6",
    "0x07865c6e87b9f70255377e024ace6630c1eaa37f",
    "0x70BaD09280FD342D02fe64119779BC1f0791BAC2",
    "0x5506A3805fB8A58Fa58248CC52d2b06D92cA94e6",
    "0x32D123756d32d3eD6580935f8edF416e57b940f4"
  ],
  "numDeployments": 2,
  "solcInputHash": "79c4303e7ff1f82afb40505e20e8a033",
  "bytecode": "0x6101203461010257601f610e5938819003918201601f19168301916001600160401b038311848410176101065780849260a0946040528339810103126101025780516001600160a01b03919082811681036101025760208201518381168103610102576040830151918483168303610102576060840151938585168503610102576080015194851685036101025760805260a05260c05260e052610100908152604051610d3e918261011b833960805182818161033d01526107d0015260a0518281816102a701526104ba015260c05182818160f60152818161023801526103b3015260e0518281816105b101526107640152518181816104e301526106f60152f35b5f80fd5b634e487b7160e01b5f52604160045260245ffdfe6080604081815260049081361015610015575f80fd5b5f925f3560e01c908163146bf4b1146107885750806336c717c11461071a578063385a6970146106ac57806352c8c75c146102cb57806356c3b5871461025c57806364aaef7e146101ed5763e6eb8ade1461006e575f80fd5b807ffffffffffffffffffffffffffffffffffffffffffffffffffffffffffffffffc3601126101e95761009f6107f4565b91602435928467ffffffffffffffff918286116101e557366023870112156101e557858401359283116101e557602486019560248436920101116101e55773ffffffffffffffffffffffffffffffffffffffff90817f00000000000000000000000000000000000000000000000000000000000000001690813b156101e157839187519384927f9f3ce55a00000000000000000000000000000000000000000000000000000000845216809783015282602483015260606044830152818061016b60648201898d610899565b039134905af180156101d7576101bf575b50507f9e6c52944e331ba6270e7fe4cea2a4086bae8f7a27e1cdba07f416806f5d0ac4936101b99184519485948552806020860152840191610899565b0390a180f35b6101c890610817565b6101d357845f61017c565b8480fd5b85513d84823e3d90fd5b8380fd5b5080fd5b8280fd5b8382346101e557817ffffffffffffffffffffffffffffffffffffffffffffffffffffffffffffffffc3601126101e5576020905173ffffffffffffffffffffffffffffffffffffffff7f0000000000000000000000000000000000000000000000000000000000000000168152f35b8382346101e557817ffffffffffffffffffffffffffffffffffffffffffffffffffffffffffffffffc3601126101e5576020905173ffffffffffffffffffffffffffffffffffffffff7f0000000000000000000000000000000000000000000000000000000000000000168152f35b509060807ffffffffffffffffffffffffffffffffffffffffffffffffffffffffffffffffc3601126106a8576102ff6107f4565b9060243573ffffffffffffffffffffffffffffffffffffffff908181168091036106a85760443591606435938185168095036106a8579481169487917f000000000000000000000000000000000000000000000000000000000000000081168781036104b757803b156101e15783809160248b51809481937f2e1a7d4d0000000000000000000000000000000000000000000000000000000083528b898401525af19081156104ad578491610499575b50507f00000000000000000000000000000000000000000000000000000000000000001690813b156101e9578560848492878b5195869485937f9f3ce55a000000000000000000000000000000000000000000000000000000008552840152856024840152606060448401528560648401525af1801561048f5761046f575b5050907fd7e09655439c3932e55857df3220186e5a7f0980825f20691c2b35d941dee75b9460809493925b815194855260208501528301526060820152a180f35b61047d909594939295610817565b61048b57909192855f61042e565b8580fd5b87513d84823e3d90fd5b6104a290610817565b6101e957825f6103af565b89513d86823e3d90fd5b507f0000000000000000000000000000000000000000000000000000000000000000811687036105a7577f0000000000000000000000000000000000000000000000000000000000000000169061050f8583896108d7565b813b156101e9578460448492838b5195869485937f70aff70f0000000000000000000000000000000000000000000000000000000085528401528a60248401525af1801561048f5761058b575b5050907fd7e09655439c3932e55857df3220186e5a7f0980825f20691c2b35d941dee75b946080949392610459565b610599909594939295610817565b61048b57909192855f61055c565b90915095929394957f000000000000000000000000000000000000000000000000000000000000000016906105dd8583896108d7565b813b156106a8578660645f9283875195869485937f522ea81a0000000000000000000000000000000000000000000000000000000085528401528960248401528a60448401525af1801561069e5761065e575b5091608093917fd7e09655439c3932e55857df3220186e5a7f0980825f20691c2b35d941dee75b9593610459565b7fd7e09655439c3932e55857df3220186e5a7f0980825f20691c2b35d941dee75b95939196509161069160809593610817565b5f96919395509193610630565b83513d5f823e3d90fd5b5f80fd5b50346106a8575f7ffffffffffffffffffffffffffffffffffffffffffffffffffffffffffffffffc3601126106a8576020905173ffffffffffffffffffffffffffffffffffffffff7f0000000000000000000000000000000000000000000000000000000000000000168152f35b50346106a8575f7ffffffffffffffffffffffffffffffffffffffffffffffffffffffffffffffffc3601126106a8576020905173ffffffffffffffffffffffffffffffffffffffff7f0000000000000000000000000000000000000000000000000000000000000000168152f35b346106a8575f7ffffffffffffffffffffffffffffffffffffffffffffffffffffffffffffffffc3601126106a85760209073ffffffffffffffffffffffffffffffffffffffff7f0000000000000000000000000000000000000000000000000000000000000000168152f35b6004359073ffffffffffffffffffffffffffffffffffffffff821682036106a857565b67ffffffffffffffff811161082b57604052565b7f4e487b71000000000000000000000000000000000000000000000000000000005f52604160045260245ffd5b90601f7fffffffffffffffffffffffffffffffffffffffffffffffffffffffffffffffe0910116810190811067ffffffffffffffff82111761082b57604052565b601f82602094937fffffffffffffffffffffffffffffffffffffffffffffffffffffffffffffffe093818652868601375f8582860101520116010190565b9173ffffffffffffffffffffffffffffffffffffffff80931660409081517fdd62ed3e0000000000000000000000000000000000000000000000000000000081526004953087830152602495169182868301526020948583604481855afa928315610bde575f93610baf575b508201809211610b8457835191858301937f095ea7b300000000000000000000000000000000000000000000000000000000855287840152604483015260448252608082019267ffffffffffffffff9280851084861117610b595760c0810185811085821117610b2e5786528685527f5361666545524332303a206c6f772d6c6576656c2063616c6c206661696c656460a0820152515f9182919082855af1903d15610b1f573d928311610af45790610a39939291855192610a2c887fffffffffffffffffffffffffffffffffffffffffffffffffffffffffffffffe0601f8401160185610858565b83523d5f8885013e610be8565b8051838115918215610ad4575b5050905015610a555750505050565b517f08c379a000000000000000000000000000000000000000000000000000000000815292830152602a908201527f5361666545524332303a204552433230206f7065726174696f6e20646964206e60448201527f6f742073756363656564000000000000000000000000000000000000000000006064820152608490fd5b83809293500103126106a85782015180151581036106a85780835f610a46565b866041897f4e487b71000000000000000000000000000000000000000000000000000000005f52525ffd5b90610a39939250606091610be8565b8860418b7f4e487b71000000000000000000000000000000000000000000000000000000005f52525ffd5b8760418a7f4e487b71000000000000000000000000000000000000000000000000000000005f52525ffd5b856011887f4e487b71000000000000000000000000000000000000000000000000000000005f52525ffd5b9092508581813d8311610bd7575b610bc78183610858565b810103126106a85751915f610943565b503d610bbd565b85513d5f823e3d90fd5b91929015610c635750815115610bfc575090565b3b15610c055790565b60646040517f08c379a000000000000000000000000000000000000000000000000000000000815260206004820152601d60248201527f416464726573733a2063616c6c20746f206e6f6e2d636f6e74726163740000006044820152fd5b825190915015610c765750805190602001fd5b604051907f08c379a00000000000000000000000000000000000000000000000000000000082528160208060048301528251928360248401525f5b848110610cf1575050507fffffffffffffffffffffffffffffffffffffffffffffffffffffffffffffffe0601f835f604480968601015201168101030190fd5b818101830151868201604401528593508201610cb156fea2646970667358221220d1af346268b43260a74ee781ff1752f1118ea639cd2aa77d9c11e9b5199c68b064736f6c63430008170033",
  "devdoc": {
    "kind": "dev",
    "methods": {
      "constructor": {
        "params": {
          "_l1MessageService": "Canonical message service contract on L1.",
          "_l1TokenBridge": "Canonical token bridge contract on L1.",
          "_l1Usdc": "USDC address on L1.",
          "_l1UsdcBridge": "L1 USDC Bridge to ConsenSys's L2 Linea.",
          "_l1Weth": "WETH address on L1."
        }
      },
      "relayMessage(address,bytes)": {
        "params": {
          "message": "Data to send to target.",
          "target": "Contract on Linea that will receive message."
        }
      },
      "relayTokens(address,address,uint256,address)": {
        "params": {
          "amount": "Amount of L1 tokens to deposit and L2 tokens to receive.",
          "l1Token": "L1 token to deposit.",
          "l2Token": "L2 token to receive.",
          "to": "Bridge recipient."
        }
      }
    },
    "version": 1
  },
  "userdoc": {
    "kind": "user",
    "methods": {
      "constructor": {
        "notice": "Constructs new Adapter."
      },
      "relayMessage(address,bytes)": {
        "notice": "Send cross-chain message to target on Linea."
      },
      "relayTokens(address,address,uint256,address)": {
        "notice": "Bridge tokens to Linea."
      }
    },
    "version": 1
  },
  "storageLayout": {
    "storage": [],
    "types": null
  }
}