{
  "address": "0xe2a742453614Cb3597bc92242487436A54D1B385",
  "abi": [
    {
      "inputs": [
        {
          "internalType": "address",
          "name": "l1Token",
          "type": "address"
        }
      ],
      "name": "createLpToken",
      "outputs": [
        {
          "internalType": "address",
          "name": "",
          "type": "address"
        }
      ],
      "stateMutability": "nonpayable",
      "type": "function"
    }
  ],
  "transactionHash": "0xce124bafd439daed6fd888aa6164236e4aedfb037833c1a5c51e5777b5e39b26",
  "args": [],
  "numDeployments": 1,
  "solcInputHash": "c2d6025a634518ca1feda7b98c45d21d",
  "bytecode": "0x608060405234801561001057600080fd5b50612d78806100206000396000f3fe60806040523480156200001157600080fd5b50600436106200002e5760003560e01c8063fc2f1b6e1462000033575b600080fd5b6200004a6200004436600462000502565b62000073565b60405173ffffffffffffffffffffffffffffffffffffffff909116815260200160405180910390f35b600080620001806040518060400160405280600a81526020017f4163726f737320563220000000000000000000000000000000000000000000008152508473ffffffffffffffffffffffffffffffffffffffff166306fdde036040518163ffffffff1660e01b8152600401600060405180830381865afa158015620000fc573d6000803e3d6000fd5b505050506040513d6000823e601f3d9081017fffffffffffffffffffffffffffffffffffffffffffffffffffffffffffffffe0168201604052620001449190810190620005a3565b6040518060400160405280600981526020017f204c5020546f6b656e0000000000000000000000000000000000000000000000815250620004c3565b6200028a6040518060400160405280600481526020017f4176322d000000000000000000000000000000000000000000000000000000008152508573ffffffffffffffffffffffffffffffffffffffff166395d89b416040518163ffffffff1660e01b8152600401600060405180830381865afa15801562000206573d6000803e3d6000fd5b505050506040513d6000823e601f3d9081017fffffffffffffffffffffffffffffffffffffffffffffffffffffffffffffffe01682016040526200024e9190810190620005a3565b6040518060400160405280600381526020017f2d4c500000000000000000000000000000000000000000000000000000000000815250620004c3565b8473ffffffffffffffffffffffffffffffffffffffff1663313ce5676040518163ffffffff1660e01b8152600401602060405180830381865afa158015620002d6573d6000803e3d6000fd5b505050506040513d601f19601f82011682018060405250810190620002fc91906200067a565b6040516200030a90620004f4565b6200031893929190620006eb565b604051809103906000f08015801562000335573d6000803e3d6000fd5b506040517f983b2d5600000000000000000000000000000000000000000000000000000000815233600482015290915073ffffffffffffffffffffffffffffffffffffffff82169063983b2d5690602401600060405180830381600087803b158015620003a157600080fd5b505af1158015620003b6573d6000803e3d6000fd5b50506040517ff44637ba00000000000000000000000000000000000000000000000000000000815233600482015273ffffffffffffffffffffffffffffffffffffffff8416925063f44637ba9150602401600060405180830381600087803b1580156200042257600080fd5b505af115801562000437573d6000803e3d6000fd5b50506040517f73cc802a00000000000000000000000000000000000000000000000000000000815233600482015273ffffffffffffffffffffffffffffffffffffffff841692506373cc802a9150602401600060405180830381600087803b158015620004a357600080fd5b505af1158015620004b8573d6000803e3d6000fd5b509295945050505050565b6060838383604051602001620004dc9392919062000728565b60405160208183030381529060405290509392505050565b6125d1806200077283390190565b6000602082840312156200051557600080fd5b813573ffffffffffffffffffffffffffffffffffffffff811681146200053a57600080fd5b9392505050565b7f4e487b7100000000000000000000000000000000000000000000000000000000600052604160045260246000fd5b60005b838110156200058d57818101518382015260200162000573565b838111156200059d576000848401525b50505050565b600060208284031215620005b657600080fd5b815167ffffffffffffffff80821115620005cf57600080fd5b818401915084601f830112620005e457600080fd5b815181811115620005f957620005f962000541565b604051601f82017fffffffffffffffffffffffffffffffffffffffffffffffffffffffffffffffe0908116603f0116810190838211818310171562000642576200064262000541565b816040528281528760208487010111156200065c57600080fd5b6200066f83602083016020880162000570565b979650505050505050565b6000602082840312156200068d57600080fd5b815160ff811681146200053a57600080fd5b60008151808452620006b981602086016020860162000570565b601f017fffffffffffffffffffffffffffffffffffffffffffffffffffffffffffffffe0169290920160200192915050565b6060815260006200070060608301866200069f565b82810360208401526200071481866200069f565b91505060ff83166040830152949350505050565b600084516200073c81846020890162000570565b8451908301906200075281836020890162000570565b84519101906200076781836020880162000570565b019594505050505056fe60806040523480156200001157600080fd5b50604051620025d1380380620025d1833981016040819052620000349162000621565b8251839083906200004d906003906020850190620004ae565b50805162000063906004906020840190620004ae565b50506006805460ff191660ff8416179055506200008360008033620000b5565b620000a060015b6040805160008082526020820190925262000205565b620000ac60026200008a565b50505062000736565b826000808281526005602052604090206001015460ff166002811115620000e057620000e0620006a6565b14620001335760405162461bcd60e51b815260206004820152601e60248201527f43616e6e6f74207573652061207072652d6578697374696e6720726f6c65000060448201526064015b60405180910390fd5b60008481526005602052604090206001808201805460ff1916828002179055508381556200017160028201846200034b602090811b6200111517901c565b60008481526005602052604081206001015460ff1660028111156200019a576200019a620006a6565b03620001fe5760405162461bcd60e51b815260206004820152603c6024820152600080516020620025b183398151915260448201527f20746f206d616e61676520616e206578636c757369766520726f6c650000000060648201526084016200012a565b5050505050565b826000808281526005602052604090206001015460ff166002811115620002305762000230620006a6565b146200027f5760405162461bcd60e51b815260206004820152601e60248201527f43616e6e6f74207573652061207072652d6578697374696e6720726f6c65000060448201526064016200012a565b600084815260056020908152604090912060018101805460ff1916600217905584815590620002be90600383019085906200111f6200035b821b17901c565b60008481526005602052604081206001015460ff166002811115620002e757620002e7620006a6565b03620001fe5760405162461bcd60e51b81526020600482015260386024820152600080516020620025b183398151915260448201527f20746f206d616e61676520612073686172656420726f6c65000000000000000060648201526084016200012a565b620003578282620003b0565b5050565b60005b8151811015620003ab576200039683838381518110620003825762000382620006bc565b60200260200101516200043160201b60201c565b80620003a281620006d2565b9150506200035e565b505050565b6001600160a01b038116620004145760405162461bcd60e51b815260206004820152602360248201527f43616e6e6f742073657420616e206578636c757369766520726f6c6520746f2060448201526203078360ec1b60648201526084016200012a565b81546001600160a01b0319166001600160a01b0391909116179055565b6001600160a01b038116620004895760405162461bcd60e51b815260206004820152601f60248201527f43616e6e6f74206164642030783020746f20612073686172656420726f6c650060448201526064016200012a565b6001600160a01b0316600090815260209190915260409020805460ff19166001179055565b828054620004bc90620006fa565b90600052602060002090601f016020900481019282620004e057600085556200052b565b82601f10620004fb57805160ff19168380011785556200052b565b828001600101855582156200052b579182015b828111156200052b5782518255916020019190600101906200050e565b50620005399291506200053d565b5090565b5b808211156200053957600081556001016200053e565b634e487b7160e01b600052604160045260246000fd5b600082601f8301126200057c57600080fd5b81516001600160401b038082111562000599576200059962000554565b604051601f8301601f19908116603f01168101908282118183101715620005c457620005c462000554565b81604052838152602092508683858801011115620005e157600080fd5b600091505b83821015620006055785820183015181830184015290820190620005e6565b83821115620006175760008385830101525b9695505050505050565b6000806000606084860312156200063757600080fd5b83516001600160401b03808211156200064f57600080fd5b6200065d878388016200056a565b945060208601519150808211156200067457600080fd5b5062000683868287016200056a565b925050604084015160ff811681146200069b57600080fd5b809150509250925092565b634e487b7160e01b600052602160045260246000fd5b634e487b7160e01b600052603260045260246000fd5b600060018201620006f357634e487b7160e01b600052601160045260246000fd5b5060010190565b600181811c908216806200070f57607f821691505b6020821081036200073057634e487b7160e01b600052602260045260246000fd5b50919050565b611e6b80620007466000396000f3fe608060405234801561001057600080fd5b506004361061018d5760003560e01c806374d0a676116100e3578063a9059cbb1161008c578063d97c05be11610066578063d97c05be14610369578063dd62ed3e1461037c578063f44637ba146103c257600080fd5b8063a9059cbb1461030b578063aaa14ca31461031e578063ab3545e51461033157600080fd5b806395d89b41116100bd57806395d89b41146102dd578063983b2d56146102e5578063a457c2d7146102f857600080fd5b806374d0a676146102a457806379cc6790146102b75780637cdc1cb9146102ca57600080fd5b806339509351116101455780636be7658b1161011f5780636be7658b1461024857806370a082311461025b57806373cc802a1461029157600080fd5b8063395093511461020d57806340c10f191461022057806342966c681461023357600080fd5b806318160ddd1161017657806318160ddd146101d357806323b872dd146101e5578063313ce567146101f857600080fd5b806306fdde0314610192578063095ea7b3146101b0575b600080fd5b61019a6103d5565b6040516101a79190611b61565b60405180910390f35b6101c36101be366004611bfd565b610467565b60405190151581526020016101a7565b6002545b6040519081526020016101a7565b6101c36101f3366004611c27565b610481565b60065460405160ff90911681526020016101a7565b6101c361021b366004611bfd565b6104a5565b6101c361022e366004611bfd565b6104f1565b610246610241366004611c63565b61059a565b005b610246610256366004611c7c565b610640565b6101d7610269366004611ca8565b73ffffffffffffffffffffffffffffffffffffffff1660009081526020819052604090205490565b61024661029f366004611ca8565b610827565b6102466102b2366004611c7c565b610835565b6101c36102c5366004611bfd565b6109f7565b6101c36102d8366004611c7c565b610a9b565b61019a610ba3565b6102466102f3366004611ca8565b610bb2565b6101c3610306366004611bfd565b610bbe565b6101c3610319366004611bfd565b610c8f565b61024661032c366004611c63565b610c9d565b61034461033f366004611c63565b610e60565b60405173ffffffffffffffffffffffffffffffffffffffff90911681526020016101a7565b610246610377366004611c7c565b610f49565b6101d761038a366004611cca565b73ffffffffffffffffffffffffffffffffffffffff918216600090815260016020908152604080832093909416825291909152205490565b6102466103d0366004611ca8565b61110b565b6060600380546103e490611cf4565b80601f016020809104026020016040519081016040528092919081815260200182805461041090611cf4565b801561045d5780601f106104325761010080835404028352916020019161045d565b820191906000526020600020905b81548152906001019060200180831161044057829003601f168201915b5050505050905090565b600033610475818585611165565b60019150505b92915050565b60003361048f858285611318565b61049a8585856113ef565b506001949350505050565b33600081815260016020908152604080832073ffffffffffffffffffffffffffffffffffffffff8716845290915281205490919061047590829086906104ec908790611d70565b611165565b600060016104ff8133610a9b565b610590576040517f08c379a000000000000000000000000000000000000000000000000000000000815260206004820152602260248201527f53656e64657220646f6573206e6f7420686f6c6420726571756972656420726f60448201527f6c6500000000000000000000000000000000000000000000000000000000000060648201526084015b60405180910390fd5b61047584846116a2565b60026105a68133610a9b565b610632576040517f08c379a000000000000000000000000000000000000000000000000000000000815260206004820152602260248201527f53656e64657220646f6573206e6f7420686f6c6420726571756972656420726f60448201527f6c650000000000000000000000000000000000000000000000000000000000006064820152608401610587565b61063c33836117c2565b5050565b81600260008281526005602052604090206001015460ff16600281111561066957610669611d88565b146106f6576040517f08c379a000000000000000000000000000000000000000000000000000000000815260206004820152602c60248201527f4d7573742062652063616c6c6564206f6e20616e20696e697469616c697a656460448201527f2053686172656420726f6c6500000000000000000000000000000000000000006064820152608401610587565b60008381526005602052604090205483906107119033610a9b565b61079c576040517f08c379a0000000000000000000000000000000000000000000000000000000008152602060048201526024808201527f43616e206f6e6c792062652063616c6c6564206279206120726f6c65206d616e60448201527f61676572000000000000000000000000000000000000000000000000000000006064820152608401610587565b600084815260056020908152604080832073ffffffffffffffffffffffffffffffffffffffff8716808552600390910190925280832080547fffffffffffffffffffffffffffffffffffffffffffffffffffffffffffffff0016905551339287917feb3e33034c392e69263b04ec0fa376dc12784a41b6676c7f31b936cbc0fbb5af9190a450505050565b610832600082610f49565b50565b81600260008281526005602052604090206001015460ff16600281111561085e5761085e611d88565b146108eb576040517f08c379a000000000000000000000000000000000000000000000000000000000815260206004820152602c60248201527f4d7573742062652063616c6c6564206f6e20616e20696e697469616c697a656460448201527f2053686172656420726f6c6500000000000000000000000000000000000000006064820152608401610587565b60008381526005602052604090205483906109069033610a9b565b610991576040517f08c379a0000000000000000000000000000000000000000000000000000000008152602060048201526024808201527f43616e206f6e6c792062652063616c6c6564206279206120726f6c65206d616e60448201527f61676572000000000000000000000000000000000000000000000000000000006064820152608401610587565b60008481526005602052604090206109ac90600301846119af565b604051339073ffffffffffffffffffffffffffffffffffffffff85169086907f63502af7324ff6db91ab38f8236a648727d9385ea6c782073dd4882d8a61a48f90600090a450505050565b60006002610a058133610a9b565b610a91576040517f08c379a000000000000000000000000000000000000000000000000000000000815260206004820152602260248201527f53656e64657220646f6573206e6f7420686f6c6420726571756972656420726f60448201527f6c650000000000000000000000000000000000000000000000000000000000006064820152608401610587565b61047584846117c2565b600082815260056020526040812060018082015460ff166002811115610ac357610ac3611d88565b03610af157600281015473ffffffffffffffffffffffffffffffffffffffff8481169116145b91505061047b565b6002600182015460ff166002811115610b0c57610b0c611d88565b03610b415773ffffffffffffffffffffffffffffffffffffffff8316600090815260038201602052604090205460ff16610ae9565b6040517f08c379a000000000000000000000000000000000000000000000000000000000815260206004820152600e60248201527f496e76616c696420726f6c6549640000000000000000000000000000000000006044820152606401610587565b6060600480546103e490611cf4565b61083260015b82610835565b33600081815260016020908152604080832073ffffffffffffffffffffffffffffffffffffffff8716845290915281205490919083811015610c82576040517f08c379a000000000000000000000000000000000000000000000000000000000815260206004820152602560248201527f45524332303a2064656372656173656420616c6c6f77616e63652062656c6f7760448201527f207a65726f0000000000000000000000000000000000000000000000000000006064820152608401610587565b61049a8286868403611165565b6000336104758185856113ef565b80600260008281526005602052604090206001015460ff166002811115610cc657610cc6611d88565b14610d53576040517f08c379a000000000000000000000000000000000000000000000000000000000815260206004820152602c60248201527f4d7573742062652063616c6c6564206f6e20616e20696e697469616c697a656460448201527f2053686172656420726f6c6500000000000000000000000000000000000000006064820152608401610587565b81610d5e8133610a9b565b610dea576040517f08c379a000000000000000000000000000000000000000000000000000000000815260206004820152602260248201527f53656e64657220646f6573206e6f7420686f6c6420726571756972656420726f60448201527f6c650000000000000000000000000000000000000000000000000000000000006064820152608401610587565b6000838152600560209081526040808320338452600301909152902080547fffffffffffffffffffffffffffffffffffffffffffffffffffffffffffffff001690556040513390819085907feb3e33034c392e69263b04ec0fa376dc12784a41b6676c7f31b936cbc0fbb5af90600090a4505050565b600081600160008281526005602052604090206001015460ff166002811115610e8b57610e8b611d88565b14610f18576040517f08c379a000000000000000000000000000000000000000000000000000000000815260206004820152602f60248201527f4d7573742062652063616c6c6564206f6e20616e20696e697469616c697a656460448201527f204578636c757369766520726f6c6500000000000000000000000000000000006064820152608401610587565b60008381526005602052604090206002015473ffffffffffffffffffffffffffffffffffffffff1691505b50919050565b81600160008281526005602052604090206001015460ff166002811115610f7257610f72611d88565b14610fff576040517f08c379a000000000000000000000000000000000000000000000000000000000815260206004820152602f60248201527f4d7573742062652063616c6c6564206f6e20616e20696e697469616c697a656460448201527f204578636c757369766520726f6c6500000000000000000000000000000000006064820152608401610587565b600083815260056020526040902054839061101a9033610a9b565b6110a5576040517f08c379a0000000000000000000000000000000000000000000000000000000008152602060048201526024808201527f43616e206f6e6c792062652063616c6c6564206279206120726f6c65206d616e60448201527f61676572000000000000000000000000000000000000000000000000000000006064820152608401610587565b60008481526005602052604090206110c09060020184611a7c565b604051339073ffffffffffffffffffffffffffffffffffffffff85169086907f3b855c56b409b671c7112789d022675eb639d0bcb8896f1b6197c132f799e74690600090a450505050565b6108326002610bb8565b61063c8282611a7c565b60005b81518110156111605761114e8383838151811061114157611141611db7565b60200260200101516119af565b8061115881611de6565b915050611122565b505050565b73ffffffffffffffffffffffffffffffffffffffff8316611207576040517f08c379a0000000000000000000000000000000000000000000000000000000008152602060048201526024808201527f45524332303a20617070726f76652066726f6d20746865207a65726f2061646460448201527f72657373000000000000000000000000000000000000000000000000000000006064820152608401610587565b73ffffffffffffffffffffffffffffffffffffffff82166112aa576040517f08c379a000000000000000000000000000000000000000000000000000000000815260206004820152602260248201527f45524332303a20617070726f766520746f20746865207a65726f20616464726560448201527f73730000000000000000000000000000000000000000000000000000000000006064820152608401610587565b73ffffffffffffffffffffffffffffffffffffffff83811660008181526001602090815260408083209487168084529482529182902085905590518481527f8c5be1e5ebec7d5bd14f71427d1e84f3dd0314c0f7b2291e5b200ac8c7c3b925910160405180910390a3505050565b73ffffffffffffffffffffffffffffffffffffffff8381166000908152600160209081526040808320938616835292905220547fffffffffffffffffffffffffffffffffffffffffffffffffffffffffffffffff81146113e957818110156113dc576040517f08c379a000000000000000000000000000000000000000000000000000000000815260206004820152601d60248201527f45524332303a20696e73756666696369656e7420616c6c6f77616e63650000006044820152606401610587565b6113e98484848403611165565b50505050565b73ffffffffffffffffffffffffffffffffffffffff8316611492576040517f08c379a000000000000000000000000000000000000000000000000000000000815260206004820152602560248201527f45524332303a207472616e736665722066726f6d20746865207a65726f20616460448201527f64726573730000000000000000000000000000000000000000000000000000006064820152608401610587565b73ffffffffffffffffffffffffffffffffffffffff8216611535576040517f08c379a000000000000000000000000000000000000000000000000000000000815260206004820152602360248201527f45524332303a207472616e7366657220746f20746865207a65726f206164647260448201527f65737300000000000000000000000000000000000000000000000000000000006064820152608401610587565b73ffffffffffffffffffffffffffffffffffffffff8316600090815260208190526040902054818110156115eb576040517f08c379a000000000000000000000000000000000000000000000000000000000815260206004820152602660248201527f45524332303a207472616e7366657220616d6f756e742065786365656473206260448201527f616c616e636500000000000000000000000000000000000000000000000000006064820152608401610587565b73ffffffffffffffffffffffffffffffffffffffff80851660009081526020819052604080822085850390559185168152908120805484929061162f908490611d70565b925050819055508273ffffffffffffffffffffffffffffffffffffffff168473ffffffffffffffffffffffffffffffffffffffff167fddf252ad1be2c89b69c2b068fc378daa952ba7f163c4a11628f55a4df523b3ef8460405161169591815260200190565b60405180910390a36113e9565b73ffffffffffffffffffffffffffffffffffffffff821661171f576040517f08c379a000000000000000000000000000000000000000000000000000000000815260206004820152601f60248201527f45524332303a206d696e7420746f20746865207a65726f2061646472657373006044820152606401610587565b80600260008282546117319190611d70565b909155505073ffffffffffffffffffffffffffffffffffffffff82166000908152602081905260408120805483929061176b908490611d70565b909155505060405181815273ffffffffffffffffffffffffffffffffffffffff8316906000907fddf252ad1be2c89b69c2b068fc378daa952ba7f163c4a11628f55a4df523b3ef9060200160405180910390a35050565b73ffffffffffffffffffffffffffffffffffffffff8216611865576040517f08c379a000000000000000000000000000000000000000000000000000000000815260206004820152602160248201527f45524332303a206275726e2066726f6d20746865207a65726f2061646472657360448201527f73000000000000000000000000000000000000000000000000000000000000006064820152608401610587565b73ffffffffffffffffffffffffffffffffffffffff82166000908152602081905260409020548181101561191b576040517f08c379a000000000000000000000000000000000000000000000000000000000815260206004820152602260248201527f45524332303a206275726e20616d6f756e7420657863656564732062616c616e60448201527f63650000000000000000000000000000000000000000000000000000000000006064820152608401610587565b73ffffffffffffffffffffffffffffffffffffffff83166000908152602081905260408120838303905560028054849290611957908490611e1e565b909155505060405182815260009073ffffffffffffffffffffffffffffffffffffffff8516907fddf252ad1be2c89b69c2b068fc378daa952ba7f163c4a11628f55a4df523b3ef9060200160405180910390a3505050565b73ffffffffffffffffffffffffffffffffffffffff8116611a2c576040517f08c379a000000000000000000000000000000000000000000000000000000000815260206004820152601f60248201527f43616e6e6f74206164642030783020746f20612073686172656420726f6c65006044820152606401610587565b73ffffffffffffffffffffffffffffffffffffffff1660009081526020919091526040902080547fffffffffffffffffffffffffffffffffffffffffffffffffffffffffffffff00166001179055565b73ffffffffffffffffffffffffffffffffffffffff8116611b1f576040517f08c379a000000000000000000000000000000000000000000000000000000000815260206004820152602360248201527f43616e6e6f742073657420616e206578636c757369766520726f6c6520746f2060448201527f30783000000000000000000000000000000000000000000000000000000000006064820152608401610587565b81547fffffffffffffffffffffffff00000000000000000000000000000000000000001673ffffffffffffffffffffffffffffffffffffffff91909116179055565b600060208083528351808285015260005b81811015611b8e57858101830151858201604001528201611b72565b81811115611ba0576000604083870101525b50601f017fffffffffffffffffffffffffffffffffffffffffffffffffffffffffffffffe016929092016040019392505050565b803573ffffffffffffffffffffffffffffffffffffffff81168114611bf857600080fd5b919050565b60008060408385031215611c1057600080fd5b611c1983611bd4565b946020939093013593505050565b600080600060608486031215611c3c57600080fd5b611c4584611bd4565b9250611c5360208501611bd4565b9150604084013590509250925092565b600060208284031215611c7557600080fd5b5035919050565b60008060408385031215611c8f57600080fd5b82359150611c9f60208401611bd4565b90509250929050565b600060208284031215611cba57600080fd5b611cc382611bd4565b9392505050565b60008060408385031215611cdd57600080fd5b611ce683611bd4565b9150611c9f60208401611bd4565b600181811c90821680611d0857607f821691505b602082108103610f43577f4e487b7100000000000000000000000000000000000000000000000000000000600052602260045260246000fd5b7f4e487b7100000000000000000000000000000000000000000000000000000000600052601160045260246000fd5b60008219821115611d8357611d83611d41565b500190565b7f4e487b7100000000000000000000000000000000000000000000000000000000600052602160045260246000fd5b7f4e487b7100000000000000000000000000000000000000000000000000000000600052603260045260246000fd5b60007fffffffffffffffffffffffffffffffffffffffffffffffffffffffffffffffff8203611e1757611e17611d41565b5060010190565b600082821015611e3057611e30611d41565b50039056fea2646970667358221220af62dd4c842a6ec357c4de2464fc459ad78dbb38819fa288eb99f4a3a869cfcb64736f6c634300080d0033417474656d7074656420746f2075736520616e20696e76616c696420726f6c65a2646970667358221220fc6b5b9990ae8263f246bfac8e22e56baac0641f6392528007bb7452a359f2c564736f6c634300080d0033",
  "devdoc": {
    "kind": "dev",
    "methods": {
      "createLpToken(address)": {
        "params": {
          "l1Token": "L1 token to name in LP token name."
        },
        "returns": {
          "_0": "address of new LP token."
        }
      }
    },
    "version": 1
  },
  "userdoc": {
    "kind": "user",
    "methods": {
      "createLpToken(address)": {
        "notice": "Deploys new LP token for L1 token. Sets caller as minter and burner of token."
      }
    },
    "notice": "Factory to create new LP ERC20 tokens that represent a liquidity provider's position. HubPool is the intended client of this contract.",
    "version": 1
  },
  "storageLayout": {
    "storage": [],
    "types": null
  }
}