{
  "address": "0x209058225F89b80079C408D408413C0Fe240c1A2",
  "abi": [
    {
      "inputs": [
        {
          "internalType": "contract IRootChainManager",
          "name": "_rootChainManager",
          "type": "address"
        },
        {
          "internalType": "contract IFxStateSender",
          "name": "_fxStateSender",
          "type": "address"
        },
        {
          "internalType": "contract DepositManager",
          "name": "_depositManager",
          "type": "address"
        },
        {
          "internalType": "address",
          "name": "_erc20Predicate",
          "type": "address"
        },
        {
          "internalType": "address",
          "name": "_l1Matic",
          "type": "address"
        },
        {
          "internalType": "contract WETH9Interface",
          "name": "_l1Weth",
          "type": "address"
        }
      ],
      "stateMutability": "nonpayable",
      "type": "constructor"
    },
    {
      "anonymous": false,
      "inputs": [
        {
          "indexed": false,
          "internalType": "address",
          "name": "target",
          "type": "address"
        },
        {
          "indexed": false,
          "internalType": "bytes",
          "name": "message",
          "type": "bytes"
        }
      ],
      "name": "MessageRelayed",
      "type": "event"
    },
    {
      "anonymous": false,
      "inputs": [
        {
          "indexed": false,
          "internalType": "address",
          "name": "l1Token",
          "type": "address"
        },
        {
          "indexed": false,
          "internalType": "address",
          "name": "l2Token",
          "type": "address"
        },
        {
          "indexed": false,
          "internalType": "uint256",
          "name": "amount",
          "type": "uint256"
        },
        {
          "indexed": false,
          "internalType": "address",
          "name": "to",
          "type": "address"
        }
      ],
      "name": "TokensRelayed",
      "type": "event"
    },
    {
      "inputs": [],
      "name": "depositManager",
      "outputs": [
        {
          "internalType": "contract DepositManager",
          "name": "",
          "type": "address"
        }
      ],
      "stateMutability": "view",
      "type": "function"
    },
    {
      "inputs": [],
      "name": "erc20Predicate",
      "outputs": [
        {
          "internalType": "address",
          "name": "",
          "type": "address"
        }
      ],
      "stateMutability": "view",
      "type": "function"
    },
    {
      "inputs": [],
      "name": "fxStateSender",
      "outputs": [
        {
          "internalType": "contract IFxStateSender",
          "name": "",
          "type": "address"
        }
      ],
      "stateMutability": "view",
      "type": "function"
    },
    {
      "inputs": [],
      "name": "l1Matic",
      "outputs": [
        {
          "internalType": "address",
          "name": "",
          "type": "address"
        }
      ],
      "stateMutability": "view",
      "type": "function"
    },
    {
      "inputs": [],
      "name": "l1Weth",
      "outputs": [
        {
          "internalType": "contract WETH9Interface",
          "name": "",
          "type": "address"
        }
      ],
      "stateMutability": "view",
      "type": "function"
    },
    {
      "inputs": [
        {
          "internalType": "address",
          "name": "target",
          "type": "address"
        },
        {
          "internalType": "bytes",
          "name": "message",
          "type": "bytes"
        }
      ],
      "name": "relayMessage",
      "outputs": [],
      "stateMutability": "payable",
      "type": "function"
    },
    {
      "inputs": [
        {
          "internalType": "address",
          "name": "l1Token",
          "type": "address"
        },
        {
          "internalType": "address",
          "name": "l2Token",
          "type": "address"
        },
        {
          "internalType": "uint256",
          "name": "amount",
          "type": "uint256"
        },
        {
          "internalType": "address",
          "name": "to",
          "type": "address"
        }
      ],
      "name": "relayTokens",
      "outputs": [],
      "stateMutability": "payable",
      "type": "function"
    },
    {
      "inputs": [],
      "name": "rootChainManager",
      "outputs": [
        {
          "internalType": "contract IRootChainManager",
          "name": "",
          "type": "address"
        }
      ],
      "stateMutability": "view",
      "type": "function"
    }
  ],
  "transactionHash": "0x4f8bcdc9e35c526247d86eabe3e7494e9d64db01d3e03df7b42d6fef17bfb449",
  "args": [
    "0xBbD7cBFA79faee899Eaf900F13C9065bF03B1A74",
    "0x3d1d3E34f7fB6D26245E6640E1c50710eFFf15bA",
    "0x7850ec290A2e2F40B82Ed962eaf30591bb5f5C96",
    "0xdD6596F2029e6233DEFfaCa316e6A95217d4Dc34",
    "0x499d11E0b6eAC7c0593d8Fb292DCBbF815Fb29Ae",
    "0xB4FBF271143F4FBf7B91A5ded31805e42b2208d6"
  ],
  "numDeployments": 1,
  "solcInputHash": "965ce7376e08b77f823ddb4c1f7c3dd3",
  "bytecode": "0x6101403461012257601f610f5638819003918201601f19168301916001600160401b038311848410176101275780849260c0946040528339810103126101225780516001600160a01b0390818116810361012257602083015182811681036101225760408401519083821682036101225761007c6060860161013d565b9260a061008b6080880161013d565b96015194851685036101225760805260a05260c05260e05261010091825261012090815260405190610e0492836101528439608051838181610221015281816104e90152610708015260a051838181610101015261036e015260c0518381816103dd015261060a015260e05183818161029001526106e10152518281816102ff01526105e101525181818161047301526108600152f35b600080fd5b634e487b7160e01b600052604160045260246000fd5b51906001600160a01b03821682036101225756fe608060408181526004908136101561001657600080fd5b600092833560e01c908163146bf4b1146108165750806352c8c75c146104015780636c7ac9d814610392578063a996cabb14610323578063b28de9e8146102b4578063b686497614610245578063bd07018d146101d65763e6eb8ade1461007c57600080fd5b807ffffffffffffffffffffffffffffffffffffffffffffffffffffffffffffffffc3601126101ce576100ad610884565b602435918467ffffffffffffffff948585116101d257366023860112156101d257848101359586116101d257602485019460248736920101116101d25773ffffffffffffffffffffffffffffffffffffffff7f000000000000000000000000000000000000000000000000000000000000000016803b156101ce5785839186838a956101658951978896879586947fb4720477000000000000000000000000000000000000000000000000000000008652850161094c565b03925af180156101c4576101ac575b50507f9e6c52944e331ba6270e7fe4cea2a4086bae8f7a27e1cdba07f416806f5d0ac4936101a691519384938461094c565b0390a180f35b6101b5906108ac565b6101c0578438610174565b8480fd5b83513d84823e3d90fd5b8280fd5b5080fd5b8382346101d257817ffffffffffffffffffffffffffffffffffffffffffffffffffffffffffffffffc3601126101d2576020905173ffffffffffffffffffffffffffffffffffffffff7f0000000000000000000000000000000000000000000000000000000000000000168152f35b8382346101d257817ffffffffffffffffffffffffffffffffffffffffffffffffffffffffffffffffc3601126101d2576020905173ffffffffffffffffffffffffffffffffffffffff7f0000000000000000000000000000000000000000000000000000000000000000168152f35b8382346101d257817ffffffffffffffffffffffffffffffffffffffffffffffffffffffffffffffffc3601126101d2576020905173ffffffffffffffffffffffffffffffffffffffff7f0000000000000000000000000000000000000000000000000000000000000000168152f35b8382346101d257817ffffffffffffffffffffffffffffffffffffffffffffffffffffffffffffffffc3601126101d2576020905173ffffffffffffffffffffffffffffffffffffffff7f0000000000000000000000000000000000000000000000000000000000000000168152f35b8382346101d257817ffffffffffffffffffffffffffffffffffffffffffffffffffffffffffffffffc3601126101d2576020905173ffffffffffffffffffffffffffffffffffffffff7f0000000000000000000000000000000000000000000000000000000000000000168152f35b509060807ffffffffffffffffffffffffffffffffffffffffffffffffffffffffffffffffc3601126101ce57610435610884565b906024359073ffffffffffffffffffffffffffffffffffffffff918281168091036105ae578560443592606435948086168096036101ce57958616957f000000000000000000000000000000000000000000000000000000000000000081168781036105de57803b156105da5783809160248b51809481937f2e1a7d4d0000000000000000000000000000000000000000000000000000000083528b898401525af19081156105d05784916105bc575b50507f00000000000000000000000000000000000000000000000000000000000000001690813b156101ce578560248492878b5195869485937f4faa8a260000000000000000000000000000000000000000000000000000000085528401525af180156105b257610592575b5050907fd7e09655439c3932e55857df3220186e5a7f0980825f20691c2b35d941dee75b9460809493925b815194855260208501528301526060820152a180f35b6105a09095949392956108ac565b6105ae579091928538610551565b8580fd5b87513d84823e3d90fd5b6105c5906108ac565b6101ce5782386104e5565b89513d86823e3d90fd5b8380fd5b507f0000000000000000000000000000000000000000000000000000000000000000811687036106d4577f00000000000000000000000000000000000000000000000000000000000000001690610636858389610a0c565b813b156101ce578660648492838b5195869485937f8b9e4f930000000000000000000000000000000000000000000000000000000085528401528a60248401528960448401525af180156105b2576106b8575b5050907fd7e09655439c3932e55857df3220186e5a7f0980825f20691c2b35d941dee75b94608094939261057c565b6106c69095949392956108ac565b6105ae579091928538610689565b61070685969798959392937f00000000000000000000000000000000000000000000000000000000000000008a610a0c565b7f0000000000000000000000000000000000000000000000000000000000000000168451908660208301526020825261073e826108ef565b803b156101ce578783610791958851968795869485937fe3dec8fb0000000000000000000000000000000000000000000000000000000085528401528d60248401526060604484015260648301906109ae565b03925af1801561080c576107ce575b5091608093917fd7e09655439c3932e55857df3220186e5a7f0980825f20691c2b35d941dee75b959361057c565b917fd7e09655439c3932e55857df3220186e5a7f0980825f20691c2b35d941dee75b95939196610800608096946108ac565b969193955091936107a0565b83513d89823e3d90fd5b8490346101d257817ffffffffffffffffffffffffffffffffffffffffffffffffffffffffffffffffc3601126101d25760209073ffffffffffffffffffffffffffffffffffffffff7f0000000000000000000000000000000000000000000000000000000000000000168152f35b6004359073ffffffffffffffffffffffffffffffffffffffff821682036108a757565b600080fd5b67ffffffffffffffff81116108c057604052565b7f4e487b7100000000000000000000000000000000000000000000000000000000600052604160045260246000fd5b6040810190811067ffffffffffffffff8211176108c057604052565b90601f7fffffffffffffffffffffffffffffffffffffffffffffffffffffffffffffffe0910116810190811067ffffffffffffffff8211176108c057604052565b9183606094601f9273ffffffffffffffffffffffffffffffffffffffff7fffffffffffffffffffffffffffffffffffffffffffffffffffffffffffffffe095168652604060208701528160408701528686013760008582860101520116010190565b919082519283825260005b8481106109f85750507fffffffffffffffffffffffffffffffffffffffffffffffffffffffffffffffe0601f8460006020809697860101520116010190565b6020818301810151848301820152016109b9565b73ffffffffffffffffffffffffffffffffffffffff809116916040918251917fdd62ed3e000000000000000000000000000000000000000000000000000000008352306004840152169060249382858301526020958683604481855afa928315610cf357600093610cc1575b508201809211610c9357835191868301937f095ea7b300000000000000000000000000000000000000000000000000000000855286840152604483015260448252608082019267ffffffffffffffff9280851084861117610c65576000918291868852610ae4876108ef565b8987527f5361666545524332303a206c6f772d6c6576656c2063616c6c206661696c656460a0820152519082855af1903d15610c56573d928311610c285790610b6b939291855192610b5d897fffffffffffffffffffffffffffffffffffffffffffffffffffffffffffffffe0601f840116018561090b565b83523d60008985013e610cfe565b8051848115918215610c08575b5050905015610b8657505050565b60849291602a9151927f08c379a000000000000000000000000000000000000000000000000000000000845260048401528201527f5361666545524332303a204552433230206f7065726174696f6e20646964206e60448201527f6f742073756363656564000000000000000000000000000000000000000000006064820152fd5b83809293500103126108a75783015180151581036108a757808438610b78565b857f4e487b710000000000000000000000000000000000000000000000000000000060005260416004526000fd5b90610b6b939250606091610cfe565b867f4e487b710000000000000000000000000000000000000000000000000000000060005260416004526000fd5b847f4e487b710000000000000000000000000000000000000000000000000000000060005260116004526000fd5b90928782813d8311610cec575b610cd8818361090b565b81010312610ce95750519138610a78565b80fd5b503d610cce565b85513d6000823e3d90fd5b91929015610d795750815115610d12575090565b3b15610d1b5790565b60646040517f08c379a000000000000000000000000000000000000000000000000000000000815260206004820152601d60248201527f416464726573733a2063616c6c20746f206e6f6e2d636f6e74726163740000006044820152fd5b825190915015610d8c5750805190602001fd5b610dca906040519182917f08c379a00000000000000000000000000000000000000000000000000000000083526020600484015260248301906109ae565b0390fdfea2646970667358221220a8c4da04cf3acadf5c766eadd1f8c9edb8b67c7924027e700a2c955f68ab43ca64736f6c63430008120033",
  "devdoc": {
    "details": "Public functions calling external contracts do not guard against reentrancy because they are expected to be called via delegatecall, which will execute this contract's logic within the context of the originating contract. For example, the HubPool will delegatecall these functions, therefore its only necessary that the HubPool's methods that call this contract's logic guard against reentrancy.",
    "kind": "dev",
    "methods": {
      "constructor": {
        "params": {
          "_depositManager": "DepositManager Polygon system contract to deposit tokens over the Plasma bridge (Matic).",
          "_erc20Predicate": "ERC20Predicate Polygon system contract to approve when depositing to the PoS bridge.",
          "_fxStateSender": "FxStateSender Polygon system contract to send arbitrary messages to L2.",
          "_l1Matic": "matic address on l1.",
          "_l1Weth": "WETH address on L1.",
          "_rootChainManager": "RootChainManager Polygon system contract to deposit tokens over the PoS bridge."
        }
      },
      "relayMessage(address,bytes)": {
        "params": {
          "message": "Data to send to target.",
          "target": "Contract on Polygon that will receive message."
        }
      },
      "relayTokens(address,address,uint256,address)": {
        "params": {
          "amount": "Amount of L1 tokens to deposit and L2 tokens to receive.",
          "l1Token": "L1 token to deposit.",
          "l2Token": "L2 token to receive.",
          "to": "Bridge recipient."
        }
      }
    },
    "version": 1
  },
  "userdoc": {
    "kind": "user",
    "methods": {
      "constructor": {
        "notice": "Constructs new Adapter."
      },
      "relayMessage(address,bytes)": {
        "notice": "Send cross-chain message to target on Polygon."
      },
      "relayTokens(address,address,uint256,address)": {
        "notice": "Bridge tokens to Polygon."
      }
    },
    "notice": "Sends cross chain messages Polygon L2 network.",
    "version": 1
  },
  "storageLayout": {
    "storage": [],
    "types": null
  }
}