{
  "address": "0xe8492e5946412eAE16e2AE111C38f991eF6476A4",
  "abi": [
    {
      "inputs": [
        {
          "internalType": "contract WETH9Interface",
          "name": "_l1Weth",
          "type": "address"
        },
        {
          "internalType": "contract IPolygonZkEVMBridge",
          "name": "_l1PolygonZkEVMBridge",
          "type": "address"
        }
      ],
      "stateMutability": "nonpayable",
      "type": "constructor"
    },
    {
      "anonymous": false,
      "inputs": [
        {
          "indexed": false,
          "internalType": "address",
          "name": "target",
          "type": "address"
        },
        {
          "indexed": false,
          "internalType": "bytes",
          "name": "message",
          "type": "bytes"
        }
      ],
      "name": "MessageRelayed",
      "type": "event"
    },
    {
      "anonymous": false,
      "inputs": [
        {
          "indexed": false,
          "internalType": "address",
          "name": "l1Token",
          "type": "address"
        },
        {
          "indexed": false,
          "internalType": "address",
          "name": "l2Token",
          "type": "address"
        },
        {
          "indexed": false,
          "internalType": "uint256",
          "name": "amount",
          "type": "uint256"
        },
        {
          "indexed": false,
          "internalType": "address",
          "name": "to",
          "type": "address"
        }
      ],
      "name": "TokensRelayed",
      "type": "event"
    },
    {
      "inputs": [],
      "name": "l1PolygonZkEVMBridge",
      "outputs": [
        {
          "internalType": "contract IPolygonZkEVMBridge",
          "name": "",
          "type": "address"
        }
      ],
      "stateMutability": "view",
      "type": "function"
    },
    {
      "inputs": [],
      "name": "l1Weth",
      "outputs": [
        {
          "internalType": "contract WETH9Interface",
          "name": "",
          "type": "address"
        }
      ],
      "stateMutability": "view",
      "type": "function"
    },
    {
      "inputs": [],
      "name": "l2NetworkId",
      "outputs": [
        {
          "internalType": "uint32",
          "name": "",
          "type": "uint32"
        }
      ],
      "stateMutability": "view",
      "type": "function"
    },
    {
      "inputs": [
        {
          "internalType": "address",
          "name": "target",
          "type": "address"
        },
        {
          "internalType": "bytes",
          "name": "message",
          "type": "bytes"
        }
      ],
      "name": "relayMessage",
      "outputs": [],
      "stateMutability": "payable",
      "type": "function"
    },
    {
      "inputs": [
        {
          "internalType": "address",
          "name": "l1Token",
          "type": "address"
        },
        {
          "internalType": "address",
          "name": "l2Token",
          "type": "address"
        },
        {
          "internalType": "uint256",
          "name": "amount",
          "type": "uint256"
        },
        {
          "internalType": "address",
          "name": "to",
          "type": "address"
        }
      ],
      "name": "relayTokens",
      "outputs": [],
      "stateMutability": "payable",
      "type": "function"
    }
  ],
  "transactionHash": "0x624fedc733abc0ead8d7dde53b243676eebee4f425b9dc8e9c05b28a290ac520",
  "args": [
    "0xB4FBF271143F4FBf7B91A5ded31805e42b2208d6",
    "0xF6BEEeBB578e214CA9E23B0e9683454Ff88Ed2A7"
  ],
  "numDeployments": 1,
  "solcInputHash": "bde6257069d20cfde4b6b8209cb5a35d",
  "bytecode": "0x60c0346100a057601f610be138819003918201601f19168301916001600160401b038311848410176100a45780849260409485528339810103126100a05780516001600160a01b039182821682036100a0576020015191821682036100a05760805260a052604051610b2890816100b982396080518181816102c401526108cb015260a05181818160e00152818161022b01528181610339015261045b0152f35b5f80fd5b634e487b7160e01b5f52604160045260245ffdfe6080604081815260049081361015610015575f80fd5b5f925f3560e01c908163146bf4b11461088357508063315332951461084a57806352c8c75c1461024f5780638059c78a146101e05763e6eb8ade14610058575f80fd5b807ffffffffffffffffffffffffffffffffffffffffffffffffffffffffffffffffc3601126101dc576100896108ef565b91602435928467ffffffffffffffff918286116101d857366023870112156101d857858401359283116101d857602486019560248436920101116101d85773ffffffffffffffffffffffffffffffffffffffff90817f00000000000000000000000000000000000000000000000000000000000000001694853b156101d457600192849288519485937f240ff378000000000000000000000000000000000000000000000000000000008552840152169586602483015260016044830152608060648301528183816101608c8a6084840191610994565b03925af180156101ca576101b2575b50507f9e6c52944e331ba6270e7fe4cea2a4086bae8f7a27e1cdba07f416806f5d0ac4936101ac9184519485948552806020860152840191610994565b0390a180f35b6101bb90610912565b6101c657845f61016f565b8480fd5b85513d84823e3d90fd5b8380fd5b5080fd5b8280fd5b8382346101d857817ffffffffffffffffffffffffffffffffffffffffffffffffffffffffffffffffc3601126101d8576020905173ffffffffffffffffffffffffffffffffffffffff7f0000000000000000000000000000000000000000000000000000000000000000168152f35b509060807ffffffffffffffffffffffffffffffffffffffffffffffffffffffffffffffffc3601126106b5576102836108ef565b90602490813573ffffffffffffffffffffffffffffffffffffffff8082168092036106b557604493843593606435958387168097036106b5579683169689937f0000000000000000000000000000000000000000000000000000000000000000811689810361044e57803b1561042257858091868d51809481937f2e1a7d4d0000000000000000000000000000000000000000000000000000000083528d8a8401525af1908115610444578691610430575b50507f000000000000000000000000000000000000000000000000000000000000000016803b156101c65784928760e492816001958c8f51998a9889977fcd5865790000000000000000000000000000000000000000000000000000000089528801528601528401525f60648401526001608484015260c060a48401525f60c48401525af1801561042657610406575b5050907fd7e09655439c3932e55857df3220186e5a7f0980825f20691c2b35d941dee75b9460809493925b815194855260208501528301526060820152a180f35b610414909594939295610912565b61042257909192855f6103c5565b8580fd5b87513d84823e3d90fd5b61043990610912565b6101c657845f610335565b8b513d88823e3d90fd5b50909192935097949596977f00000000000000000000000000000000000000000000000000000000000000001685517fdd62ed3e00000000000000000000000000000000000000000000000000000000815230848201528185820152808a818560209485935afa908115610840575f91610813575b508881018091116107e8578751828101917f095ea7b3000000000000000000000000000000000000000000000000000000008352848883015285820152848152608081019167ffffffffffffffff91808410838511176107bd5760c0810184811084821117610792575f928f91849384918f528888527f5361666545524332303a206c6f772d6c6576656c2063616c6c206661696c656460a082015251925af13d15610784573d91821161075957906105ba92918a51916105ab867fffffffffffffffffffffffffffffffffffffffffffffffffffffffffffffffe0601f8401160184610953565b82523d5f8684013e5b8d6109d2565b8051828115918215610739575b50509050156106b95750803b156106b5575f928360e492896001958c8b51998a9889977fcd5865790000000000000000000000000000000000000000000000000000000089528801528601528401528b60648401526001608484015260c060a48401528160c48401525af180156106ab5761066b575b5091608093917fd7e09655439c3932e55857df3220186e5a7f0980825f20691c2b35d941dee75b95936103f0565b7fd7e09655439c3932e55857df3220186e5a7f0980825f20691c2b35d941dee75b95939196509161069e60809593610912565b5f9691939550919361063d565b83513d5f823e3d90fd5b5f80fd5b837f5361666545524332303a204552433230206f7065726174696f6e20646964206e84602a886084958c51957f08c379a00000000000000000000000000000000000000000000000000000000087528601528401528201527f6f742073756363656564000000000000000000000000000000000000000000006064820152fd5b83809293500103126106b55781015180151581036106b55780825f6105c7565b876041887f4e487b71000000000000000000000000000000000000000000000000000000005f52525ffd5b6105ba9291506060906105b4565b8960418a7f4e487b71000000000000000000000000000000000000000000000000000000005f52525ffd5b886041897f4e487b71000000000000000000000000000000000000000000000000000000005f52525ffd5b856011867f4e487b71000000000000000000000000000000000000000000000000000000005f52525ffd5b90508181813d8311610839575b61082a8183610953565b810103126106b557515f6104c3565b503d610820565b88513d5f823e3d90fd5b50346106b5575f7ffffffffffffffffffffffffffffffffffffffffffffffffffffffffffffffffc3601126106b5576020905160018152f35b346106b5575f7ffffffffffffffffffffffffffffffffffffffffffffffffffffffffffffffffc3601126106b55760209073ffffffffffffffffffffffffffffffffffffffff7f0000000000000000000000000000000000000000000000000000000000000000168152f35b6004359073ffffffffffffffffffffffffffffffffffffffff821682036106b557565b67ffffffffffffffff811161092657604052565b7f4e487b71000000000000000000000000000000000000000000000000000000005f52604160045260245ffd5b90601f7fffffffffffffffffffffffffffffffffffffffffffffffffffffffffffffffe0910116810190811067ffffffffffffffff82111761092657604052565b601f82602094937fffffffffffffffffffffffffffffffffffffffffffffffffffffffffffffffe093818652868601375f8582860101520116010190565b91929015610a4d57508151156109e6575090565b3b156109ef5790565b60646040517f08c379a000000000000000000000000000000000000000000000000000000000815260206004820152601d60248201527f416464726573733a2063616c6c20746f206e6f6e2d636f6e74726163740000006044820152fd5b825190915015610a605750805190602001fd5b604051907f08c379a00000000000000000000000000000000000000000000000000000000082528160208060048301528251928360248401525f5b848110610adb575050507fffffffffffffffffffffffffffffffffffffffffffffffffffffffffffffffe0601f835f604480968601015201168101030190fd5b818101830151868201604401528593508201610a9b56fea26469706673582212203bc075497331bdb9c0041888b1c1535a4bcd512ec9edbad51d237453d8678f2164736f6c63430008170033",
  "devdoc": {
    "kind": "dev",
    "methods": {
      "constructor": {
        "params": {
          "_l1PolygonZkEVMBridge": "Canonical token bridge contract on L1.",
          "_l1Weth": "WETH address on L1."
        }
      },
      "relayMessage(address,bytes)": {
        "params": {
          "message": "Data to send to target.",
          "target": "Contract on Polygon zkEVM that will receive message."
        }
      },
      "relayTokens(address,address,uint256,address)": {
        "params": {
          "amount": "Amount of L1 tokens to deposit and L2 tokens to receive.",
          "l1Token": "L1 token to deposit.",
          "l2Token": "L2 token to receive.",
          "to": "Bridge recipient."
        }
      }
    },
    "version": 1
  },
  "userdoc": {
    "kind": "user",
    "methods": {
      "constructor": {
        "notice": "Constructs new Adapter."
      },
      "relayMessage(address,bytes)": {
        "notice": "Send cross-chain message to target on Polygon zkEVM."
      },
      "relayTokens(address,address,uint256,address)": {
        "notice": "Bridge tokens to Polygon zkEVM."
      }
    },
    "version": 1
  },
  "storageLayout": {
    "storage": [],
    "types": null
  }
}