{
  "address": "0x9B769e2b1A4936B51870d03902A9e2AeEa6Ee933",
  "abi": [
    {
      "inputs": [
        {
          "internalType": "contract IRootChainManager",
          "name": "_rootChainManager",
          "type": "address"
        },
        {
          "internalType": "contract IFxStateSender",
          "name": "_fxStateSender",
          "type": "address"
        },
        {
          "internalType": "contract DepositManager",
          "name": "_depositManager",
          "type": "address"
        },
        {
          "internalType": "address",
          "name": "_erc20Predicate",
          "type": "address"
        },
        {
          "internalType": "address",
          "name": "_l1Matic",
          "type": "address"
        },
        {
          "internalType": "contract WETH9",
          "name": "_l1Weth",
          "type": "address"
        }
      ],
      "stateMutability": "nonpayable",
      "type": "constructor"
    },
    {
      "anonymous": false,
      "inputs": [
        {
          "indexed": false,
          "internalType": "address",
          "name": "target",
          "type": "address"
        },
        {
          "indexed": false,
          "internalType": "bytes",
          "name": "message",
          "type": "bytes"
        }
      ],
      "name": "MessageRelayed",
      "type": "event"
    },
    {
      "anonymous": false,
      "inputs": [
        {
          "indexed": false,
          "internalType": "address",
          "name": "l1Token",
          "type": "address"
        },
        {
          "indexed": false,
          "internalType": "address",
          "name": "l2Token",
          "type": "address"
        },
        {
          "indexed": false,
          "internalType": "uint256",
          "name": "amount",
          "type": "uint256"
        },
        {
          "indexed": false,
          "internalType": "address",
          "name": "to",
          "type": "address"
        }
      ],
      "name": "TokensRelayed",
      "type": "event"
    },
    {
      "inputs": [],
      "name": "depositManager",
      "outputs": [
        {
          "internalType": "contract DepositManager",
          "name": "",
          "type": "address"
        }
      ],
      "stateMutability": "view",
      "type": "function"
    },
    {
      "inputs": [],
      "name": "erc20Predicate",
      "outputs": [
        {
          "internalType": "address",
          "name": "",
          "type": "address"
        }
      ],
      "stateMutability": "view",
      "type": "function"
    },
    {
      "inputs": [],
      "name": "fxStateSender",
      "outputs": [
        {
          "internalType": "contract IFxStateSender",
          "name": "",
          "type": "address"
        }
      ],
      "stateMutability": "view",
      "type": "function"
    },
    {
      "inputs": [],
      "name": "l1Matic",
      "outputs": [
        {
          "internalType": "address",
          "name": "",
          "type": "address"
        }
      ],
      "stateMutability": "view",
      "type": "function"
    },
    {
      "inputs": [],
      "name": "l1Weth",
      "outputs": [
        {
          "internalType": "contract WETH9",
          "name": "",
          "type": "address"
        }
      ],
      "stateMutability": "view",
      "type": "function"
    },
    {
      "inputs": [
        {
          "internalType": "address",
          "name": "target",
          "type": "address"
        },
        {
          "internalType": "bytes",
          "name": "message",
          "type": "bytes"
        }
      ],
      "name": "relayMessage",
      "outputs": [],
      "stateMutability": "payable",
      "type": "function"
    },
    {
      "inputs": [
        {
          "internalType": "address",
          "name": "l1Token",
          "type": "address"
        },
        {
          "internalType": "address",
          "name": "l2Token",
          "type": "address"
        },
        {
          "internalType": "uint256",
          "name": "amount",
          "type": "uint256"
        },
        {
          "internalType": "address",
          "name": "to",
          "type": "address"
        }
      ],
      "name": "relayTokens",
      "outputs": [],
      "stateMutability": "payable",
      "type": "function"
    },
    {
      "inputs": [],
      "name": "rootChainManager",
      "outputs": [
        {
          "internalType": "contract IRootChainManager",
          "name": "",
          "type": "address"
        }
      ],
      "stateMutability": "view",
      "type": "function"
    }
  ],
  "transactionHash": "0x94129afc23ff963dc53b78936358688a774d9eab047c0bdcb457547e6e64f37f",
  "args": [
    "0xBbD7cBFA79faee899Eaf900F13C9065bF03B1A74",
    "0x3d1d3E34f7fB6D26245E6640E1c50710eFFf15bA",
    "0x7850ec290A2e2F40B82Ed962eaf30591bb5f5C96",
    "0xdD6596F2029e6233DEFfaCa316e6A95217d4Dc34",
    "0x499d11E0b6eAC7c0593d8Fb292DCBbF815Fb29Ae",
    "0x60D4dB9b534EF9260a88b0BED6c486fe13E604Fc"
  ],
  "numDeployments": 1,
  "solcInputHash": "5447891ea04e482f68bb353bcee1cde1",
  "bytecode": "0x6101406040523480156200001257600080fd5b50604051620010193803806200101983398101604081905262000035916200007e565b6001600160a01b0395861660805293851660a05291841660c052831660e052821661010052166101205262000112565b6001600160a01b03811681146200007b57600080fd5b50565b60008060008060008060c087890312156200009857600080fd5b8651620000a58162000065565b6020880151909650620000b88162000065565b6040880151909550620000cb8162000065565b6060880151909450620000de8162000065565b6080880151909350620000f18162000065565b60a0880151909250620001048162000065565b809150509295509295509295565b60805160a05160c05160e0516101005161012051610e79620001a06000396000818160920152818161020b015261028b01526000818161016c01526103a60152600081816101a0015261050901526000818161010401528181610413015261048c01526000818161013801526106810152600081816101d40152818161033f01526105300152610e796000f3fe60806040526004361061007b5760003560e01c8063b28de9e81161004e578063b28de9e81461015a578063b68649761461018e578063bd07018d146101c2578063e6eb8ade146101f657600080fd5b8063146bf4b11461008057806352c8c75c146100dd5780636c7ac9d8146100f2578063a996cabb14610126575b600080fd5b34801561008c57600080fd5b506100b47f000000000000000000000000000000000000000000000000000000000000000081565b60405173ffffffffffffffffffffffffffffffffffffffff909116815260200160405180910390f35b6100f06100eb366004610ba8565b610209565b005b3480156100fe57600080fd5b506100b47f000000000000000000000000000000000000000000000000000000000000000081565b34801561013257600080fd5b506100b47f000000000000000000000000000000000000000000000000000000000000000081565b34801561016657600080fd5b506100b47f000000000000000000000000000000000000000000000000000000000000000081565b34801561019a57600080fd5b506100b47f000000000000000000000000000000000000000000000000000000000000000081565b3480156101ce57600080fd5b506100b47f000000000000000000000000000000000000000000000000000000000000000081565b6100f0610204366004610bf5565b610644565b7f000000000000000000000000000000000000000000000000000000000000000073ffffffffffffffffffffffffffffffffffffffff168473ffffffffffffffffffffffffffffffffffffffff16036103a4576040517f2e1a7d4d000000000000000000000000000000000000000000000000000000008152600481018390527f000000000000000000000000000000000000000000000000000000000000000073ffffffffffffffffffffffffffffffffffffffff1690632e1a7d4d90602401600060405180830381600087803b1580156102e457600080fd5b505af11580156102f8573d6000803e3d6000fd5b50506040517f4faa8a2600000000000000000000000000000000000000000000000000000000815273ffffffffffffffffffffffffffffffffffffffff84811660048301527f0000000000000000000000000000000000000000000000000000000000000000169250634faa8a26915084906024016000604051808303818588803b15801561038657600080fd5b505af115801561039a573d6000803e3d6000fd5b50505050506105df565b7f000000000000000000000000000000000000000000000000000000000000000073ffffffffffffffffffffffffffffffffffffffff168473ffffffffffffffffffffffffffffffffffffffff16036104ed5761043873ffffffffffffffffffffffffffffffffffffffff85167f00000000000000000000000000000000000000000000000000000000000000008461072c565b6040517f8b9e4f9300000000000000000000000000000000000000000000000000000000815273ffffffffffffffffffffffffffffffffffffffff85811660048301528281166024830152604482018490527f00000000000000000000000000000000000000000000000000000000000000001690638b9e4f9390606401600060405180830381600087803b1580156104d057600080fd5b505af11580156104e4573d6000803e3d6000fd5b505050506105df565b61052e73ffffffffffffffffffffffffffffffffffffffff85167f00000000000000000000000000000000000000000000000000000000000000008461072c565b7f000000000000000000000000000000000000000000000000000000000000000073ffffffffffffffffffffffffffffffffffffffff1663e3dec8fb82868560405160200161057f91815260200190565b6040516020818303038152906040526040518463ffffffff1660e01b81526004016105ac93929190610cee565b600060405180830381600087803b1580156105c657600080fd5b505af11580156105da573d6000803e3d6000fd5b505050505b6040805173ffffffffffffffffffffffffffffffffffffffff868116825285811660208301528183018590528316606082015290517fd7e09655439c3932e55857df3220186e5a7f0980825f20691c2b35d941dee75b9181900360800190a150505050565b6040517fb472047700000000000000000000000000000000000000000000000000000000815273ffffffffffffffffffffffffffffffffffffffff7f0000000000000000000000000000000000000000000000000000000000000000169063b4720477906106ba90869086908690600401610d30565b600060405180830381600087803b1580156106d457600080fd5b505af11580156106e8573d6000803e3d6000fd5b505050507f9e6c52944e331ba6270e7fe4cea2a4086bae8f7a27e1cdba07f416806f5d0ac483838360405161071f93929190610d30565b60405180910390a1505050565b6040517fdd62ed3e00000000000000000000000000000000000000000000000000000000815230600482015273ffffffffffffffffffffffffffffffffffffffff8381166024830152600091839186169063dd62ed3e90604401602060405180830381865afa1580156107a3573d6000803e3d6000fd5b505050506040513d601f19601f820116820180604052508101906107c79190610d9a565b6107d19190610db3565b6040805173ffffffffffffffffffffffffffffffffffffffff8616602482015260448082018490528251808303909101815260649091019091526020810180517bffffffffffffffffffffffffffffffffffffffffffffffffffffffff167f095ea7b300000000000000000000000000000000000000000000000000000000179052909150610861908590610867565b50505050565b60006108c9826040518060400160405280602081526020017f5361666545524332303a206c6f772d6c6576656c2063616c6c206661696c65648152508573ffffffffffffffffffffffffffffffffffffffff1661097d9092919063ffffffff16565b80519091501561097857808060200190518101906108e79190610df2565b610978576040517f08c379a000000000000000000000000000000000000000000000000000000000815260206004820152602a60248201527f5361666545524332303a204552433230206f7065726174696f6e20646964206e60448201527f6f7420737563636565640000000000000000000000000000000000000000000060648201526084015b60405180910390fd5b505050565b606061098c8484600085610996565b90505b9392505050565b606082471015610a28576040517f08c379a000000000000000000000000000000000000000000000000000000000815260206004820152602660248201527f416464726573733a20696e73756666696369656e742062616c616e636520666f60448201527f722063616c6c0000000000000000000000000000000000000000000000000000606482015260840161096f565b73ffffffffffffffffffffffffffffffffffffffff85163b610aa6576040517f08c379a000000000000000000000000000000000000000000000000000000000815260206004820152601d60248201527f416464726573733a2063616c6c20746f206e6f6e2d636f6e7472616374000000604482015260640161096f565b6000808673ffffffffffffffffffffffffffffffffffffffff168587604051610acf9190610e14565b60006040518083038185875af1925050503d8060008114610b0c576040519150601f19603f3d011682016040523d82523d6000602084013e610b11565b606091505b5091509150610b21828286610b2c565b979650505050505050565b60608315610b3b57508161098f565b825115610b4b5782518084602001fd5b816040517f08c379a000000000000000000000000000000000000000000000000000000000815260040161096f9190610e30565b803573ffffffffffffffffffffffffffffffffffffffff81168114610ba357600080fd5b919050565b60008060008060808587031215610bbe57600080fd5b610bc785610b7f565b9350610bd560208601610b7f565b925060408501359150610bea60608601610b7f565b905092959194509250565b600080600060408486031215610c0a57600080fd5b610c1384610b7f565b9250602084013567ffffffffffffffff80821115610c3057600080fd5b818601915086601f830112610c4457600080fd5b813581811115610c5357600080fd5b876020828501011115610c6557600080fd5b6020830194508093505050509250925092565b60005b83811015610c93578181015183820152602001610c7b565b838111156108615750506000910152565b60008151808452610cbc816020860160208601610c78565b601f017fffffffffffffffffffffffffffffffffffffffffffffffffffffffffffffffe0169290920160200192915050565b600073ffffffffffffffffffffffffffffffffffffffff808616835280851660208401525060606040830152610d276060830184610ca4565b95945050505050565b73ffffffffffffffffffffffffffffffffffffffff8416815260406020820152816040820152818360608301376000818301606090810191909152601f9092017fffffffffffffffffffffffffffffffffffffffffffffffffffffffffffffffe016010192915050565b600060208284031215610dac57600080fd5b5051919050565b60008219821115610ded577f4e487b7100000000000000000000000000000000000000000000000000000000600052601160045260246000fd5b500190565b600060208284031215610e0457600080fd5b8151801515811461098f57600080fd5b60008251610e26818460208701610c78565b9190910192915050565b60208152600061098f6020830184610ca456fea26469706673582212203fe252381166baaab5c380fce4b9dc9b3a1b07552c7b0b566a506a7684850aef64736f6c634300080d0033",
  "devdoc": {
    "details": "Public functions calling external contracts do not guard against reentrancy because they are expected to be called via delegatecall, which will execute this contract's logic within the context of the originating contract. For example, the HubPool will delegatecall these functions, therefore its only necessary that the HubPool's methods that call this contract's logic guard against reentrancy.",
    "kind": "dev",
    "methods": {
      "constructor": {
        "params": {
          "_depositManager": "DepositManager Polygon system contract to deposit tokens over the Plasma bridge (Matic).",
          "_erc20Predicate": "ERC20Predicate Polygon system contract to approve when depositing to the PoS bridge.",
          "_fxStateSender": "FxStateSender Polygon system contract to send arbitrary messages to L2.",
          "_l1Matic": "matic address on l1.",
          "_l1Weth": "WETH address on L1.",
          "_rootChainManager": "RootChainManager Polygon system contract to deposit tokens over the PoS bridge."
        }
      },
      "relayMessage(address,bytes)": {
        "params": {
          "message": "Data to send to target.",
          "target": "Contract on Polygon that will receive message."
        }
      },
      "relayTokens(address,address,uint256,address)": {
        "params": {
          "amount": "Amount of L1 tokens to deposit and L2 tokens to receive.",
          "l1Token": "L1 token to deposit.",
          "l2Token": "L2 token to receive.",
          "to": "Bridge recipient."
        }
      }
    },
    "version": 1
  },
  "userdoc": {
    "kind": "user",
    "methods": {
      "constructor": {
        "notice": "Constructs new Adapter."
      },
      "relayMessage(address,bytes)": {
        "notice": "Send cross-chain message to target on Polygon."
      },
      "relayTokens(address,address,uint256,address)": {
        "notice": "Bridge tokens to Polygon."
      }
    },
    "notice": "Sends cross chain messages Polygon L2 network.",
    "version": 1
  },
  "storageLayout": {
    "storage": [],
    "types": null
  }
}