{
  "address": "0x6Dcde73F06D8D891281b8aeB75f2BBd94b68738e",
  "abi": [
    {
      "inputs": [
        {
          "internalType": "contract IRootChainManager",
          "name": "_rootChainManager",
          "type": "address"
        },
        {
          "internalType": "contract IFxStateSender",
          "name": "_fxStateSender",
          "type": "address"
        },
        {
          "internalType": "contract DepositManager",
          "name": "_depositManager",
          "type": "address"
        },
        {
          "internalType": "address",
          "name": "_erc20Predicate",
          "type": "address"
        },
        {
          "internalType": "address",
          "name": "_l1Matic",
          "type": "address"
        },
        {
          "internalType": "contract WETH9Interface",
          "name": "_l1Weth",
          "type": "address"
        },
        {
          "internalType": "contract IERC20",
          "name": "_l1Usdc",
          "type": "address"
        },
        {
          "internalType": "contract ITokenMessenger",
          "name": "_cctpTokenMessenger",
          "type": "address"
        }
      ],
      "stateMutability": "nonpayable",
      "type": "constructor"
    },
    {
      "anonymous": false,
      "inputs": [
        {
          "indexed": false,
          "internalType": "address",
          "name": "target",
          "type": "address"
        },
        {
          "indexed": false,
          "internalType": "bytes",
          "name": "message",
          "type": "bytes"
        }
      ],
      "name": "MessageRelayed",
      "type": "event"
    },
    {
      "anonymous": false,
      "inputs": [
        {
          "indexed": false,
          "internalType": "address",
          "name": "l1Token",
          "type": "address"
        },
        {
          "indexed": false,
          "internalType": "address",
          "name": "l2Token",
          "type": "address"
        },
        {
          "indexed": false,
          "internalType": "uint256",
          "name": "amount",
          "type": "uint256"
        },
        {
          "indexed": false,
          "internalType": "address",
          "name": "to",
          "type": "address"
        }
      ],
      "name": "TokensRelayed",
      "type": "event"
    },
    {
      "inputs": [],
      "name": "cctpTokenMessenger",
      "outputs": [
        {
          "internalType": "contract ITokenMessenger",
          "name": "",
          "type": "address"
        }
      ],
      "stateMutability": "view",
      "type": "function"
    },
    {
      "inputs": [],
      "name": "circleDomainId",
      "outputs": [
        {
          "internalType": "uint32",
          "name": "",
          "type": "uint32"
        }
      ],
      "stateMutability": "view",
      "type": "function"
    },
    {
      "inputs": [],
      "name": "depositManager",
      "outputs": [
        {
          "internalType": "contract DepositManager",
          "name": "",
          "type": "address"
        }
      ],
      "stateMutability": "view",
      "type": "function"
    },
    {
      "inputs": [],
      "name": "erc20Predicate",
      "outputs": [
        {
          "internalType": "address",
          "name": "",
          "type": "address"
        }
      ],
      "stateMutability": "view",
      "type": "function"
    },
    {
      "inputs": [],
      "name": "fxStateSender",
      "outputs": [
        {
          "internalType": "contract IFxStateSender",
          "name": "",
          "type": "address"
        }
      ],
      "stateMutability": "view",
      "type": "function"
    },
    {
      "inputs": [],
      "name": "l1Matic",
      "outputs": [
        {
          "internalType": "address",
          "name": "",
          "type": "address"
        }
      ],
      "stateMutability": "view",
      "type": "function"
    },
    {
      "inputs": [],
      "name": "l1Usdc",
      "outputs": [
        {
          "internalType": "contract IERC20",
          "name": "",
          "type": "address"
        }
      ],
      "stateMutability": "view",
      "type": "function"
    },
    {
      "inputs": [],
      "name": "l1Weth",
      "outputs": [
        {
          "internalType": "contract WETH9Interface",
          "name": "",
          "type": "address"
        }
      ],
      "stateMutability": "view",
      "type": "function"
    },
    {
      "inputs": [
        {
          "internalType": "address",
          "name": "target",
          "type": "address"
        },
        {
          "internalType": "bytes",
          "name": "message",
          "type": "bytes"
        }
      ],
      "name": "relayMessage",
      "outputs": [],
      "stateMutability": "payable",
      "type": "function"
    },
    {
      "inputs": [
        {
          "internalType": "address",
          "name": "l1Token",
          "type": "address"
        },
        {
          "internalType": "address",
          "name": "l2Token",
          "type": "address"
        },
        {
          "internalType": "uint256",
          "name": "amount",
          "type": "uint256"
        },
        {
          "internalType": "address",
          "name": "to",
          "type": "address"
        }
      ],
      "name": "relayTokens",
      "outputs": [],
      "stateMutability": "payable",
      "type": "function"
    },
    {
      "inputs": [],
      "name": "rootChainManager",
      "outputs": [
        {
          "internalType": "contract IRootChainManager",
          "name": "",
          "type": "address"
        }
      ],
      "stateMutability": "view",
      "type": "function"
    }
  ],
  "transactionHash": "0x17b69aad93d8515272f85ca35be0e3b288e055f36375223cf335b69f87b0d2f6",
  "args": [
    "0xBbD7cBFA79faee899Eaf900F13C9065bF03B1A74",
    "0x3d1d3E34f7fB6D26245E6640E1c50710eFFf15bA",
    "0x7850ec290A2e2F40B82Ed962eaf30591bb5f5C96",
    "0xdD6596F2029e6233DEFfaCa316e6A95217d4Dc34",
    "0x499d11E0b6eAC7c0593d8Fb292DCBbF815Fb29Ae",
    "0xB4FBF271143F4FBf7B91A5ded31805e42b2208d6",
    "0x07865c6E87B9F70255377e024ace6630C1Eaa37F",
    "0xD0C3da58f55358142b8d3e06C1C30c5C6114EFE8"
  ],
  "numDeployments": 2,
  "solcInputHash": "8ccac8cf36ab35df78773cb6892919cd",
  "bytecode": "0x6101803461016857620011f638819003601f8101601f191683016001600160401b0381118482101761016c5783928291604052833961010092839181010312610168578051906001600160a01b03908183168303610168576020810151828116810361016857604082015183811681036101685761007f60608401610180565b9061008c60808501610180565b9260a08501519686881688036101685760c08601519587871687036101685760e0015196871687036101685760805260a05260c05260e0528452610120928352610140908152610160918252604051926110619485620001958639608051858181610279015281816106210152610978015260a05185818161011f01526103c6015260c0518581816104a4015261087b015260e0518581816102e8015261095101525184818161035701526108520152518381816105aa0152610ad5015251828181610513015261071a01525181818161043501526107560152f35b5f80fd5b634e487b7160e01b5f52604160045260245ffd5b51906001600160a01b03821682036101685756fe6080604081815260049081361015610015575f80fd5b5f925f3560e01c908163146bf4b114610a8d5750806352c8c75c1461053757806356c3b587146104c85780636c7ac9d8146104595780639748cf7c146103ea578063a996cabb1461037b578063b28de9e81461030c578063b68649761461029d578063bd07018d1461022e578063ce9ca775146101f45763e6eb8ade1461009a575f80fd5b807ffffffffffffffffffffffffffffffffffffffffffffffffffffffffffffffffc3601126101ec576100cb610af9565b602435918467ffffffffffffffff948585116101f057366023860112156101f057848101359586116101f057602485019460248736920101116101f05773ffffffffffffffffffffffffffffffffffffffff7f000000000000000000000000000000000000000000000000000000000000000016803b156101ec5785839186838a956101838951978896879586947fb47204770000000000000000000000000000000000000000000000000000000086528501610c16565b03925af180156101e2576101ca575b50507f9e6c52944e331ba6270e7fe4cea2a4086bae8f7a27e1cdba07f416806f5d0ac4936101c4915193849384610c16565b0390a180f35b6101d390610b1c565b6101de57845f610192565b8480fd5b83513d84823e3d90fd5b8280fd5b5080fd5b8382346101f057817ffffffffffffffffffffffffffffffffffffffffffffffffffffffffffffffffc3601126101f0576020905160078152f35b8382346101f057817ffffffffffffffffffffffffffffffffffffffffffffffffffffffffffffffffc3601126101f0576020905173ffffffffffffffffffffffffffffffffffffffff7f0000000000000000000000000000000000000000000000000000000000000000168152f35b8382346101f057817ffffffffffffffffffffffffffffffffffffffffffffffffffffffffffffffffc3601126101f0576020905173ffffffffffffffffffffffffffffffffffffffff7f0000000000000000000000000000000000000000000000000000000000000000168152f35b8382346101f057817ffffffffffffffffffffffffffffffffffffffffffffffffffffffffffffffffc3601126101f0576020905173ffffffffffffffffffffffffffffffffffffffff7f0000000000000000000000000000000000000000000000000000000000000000168152f35b8382346101f057817ffffffffffffffffffffffffffffffffffffffffffffffffffffffffffffffffc3601126101f0576020905173ffffffffffffffffffffffffffffffffffffffff7f0000000000000000000000000000000000000000000000000000000000000000168152f35b8382346101f057817ffffffffffffffffffffffffffffffffffffffffffffffffffffffffffffffffc3601126101f0576020905173ffffffffffffffffffffffffffffffffffffffff7f0000000000000000000000000000000000000000000000000000000000000000168152f35b8382346101f057817ffffffffffffffffffffffffffffffffffffffffffffffffffffffffffffffffc3601126101f0576020905173ffffffffffffffffffffffffffffffffffffffff7f0000000000000000000000000000000000000000000000000000000000000000168152f35b8382346101f057817ffffffffffffffffffffffffffffffffffffffffffffffffffffffffffffffffc3601126101f0576020905173ffffffffffffffffffffffffffffffffffffffff7f0000000000000000000000000000000000000000000000000000000000000000168152f35b509060807ffffffffffffffffffffffffffffffffffffffffffffffffffffffffffffffffc360112610a895761056b610af9565b90602490813573ffffffffffffffffffffffffffffffffffffffff808216809203610a89576044359260643594828616809603610a89579582169588927f00000000000000000000000000000000000000000000000000000000000000008116868982036107155750803b156101de57848091848c51809481937f2e1a7d4d0000000000000000000000000000000000000000000000000000000083528c8a8401525af190811561070b5785916106f7575b50507f00000000000000000000000000000000000000000000000000000000000000001691823b156106f35783918791878b5195869485937f4faa8a260000000000000000000000000000000000000000000000000000000085528401525af180156106e9576106c9575b5050907fd7e09655439c3932e55857df3220186e5a7f0980825f20691c2b35d941dee75b9460809493925b815194855260208501528301526060820152a180f35b6106d7909594939295610b1c565b6106e557909192855f610688565b8580fd5b87513d84823e3d90fd5b8380fd5b61070090610b1c565b6106f357835f61061d565b8a513d87823e3d90fd5b9293917f00000000000000000000000000000000000000000000000000000000000000009150818116908a820361084b5791602095969161077d86608496957f0000000000000000000000000000000000000000000000000000000000000000168094610c77565b60078d5198899788967f6fd3504e0000000000000000000000000000000000000000000000000000000088528701528501528a604485015260648401525af18015610841576107f5575b50907fd7e09655439c3932e55857df3220186e5a7f0980825f20691c2b35d941dee75b9460809493926106b3565b60209493929194813d602011610839575b8161081360209383610b79565b81010312610835575167ffffffffffffffff8116036106e5579091925f6107c7565b8680fd5b3d9150610806565b86513d89823e3d90fd5b92935050507f000000000000000000000000000000000000000000000000000000000000000081168803610944577f000000000000000000000000000000000000000000000000000000000000000016906108a786838a610c77565b813b156106f357606488918580948a8d5197889687957f8b9e4f930000000000000000000000000000000000000000000000000000000087528601528401528960448401525af180156106e957610928575b5050907fd7e09655439c3932e55857df3220186e5a7f0980825f20691c2b35d941dee75b9460809493926106b3565b610936909594939295610b1c565b6106e557909192855f6108f9565b90925061097685969798957f00000000000000000000000000000000000000000000000000000000000000008a610c77565b7f00000000000000000000000000000000000000000000000000000000000000001690845191866020840152602083526109af83610b5d565b803b15610a8957875f8a95610a0282968a51988997889687957fe3dec8fb000000000000000000000000000000000000000000000000000000008752860152840152606060448401526064830190610bba565b03925af18015610a7f57610a3f575b5091608093917fd7e09655439c3932e55857df3220186e5a7f0980825f20691c2b35d941dee75b95936106b3565b7fd7e09655439c3932e55857df3220186e5a7f0980825f20691c2b35d941dee75b959391965091610a7260809593610b1c565b5f96919395509193610a11565b83513d5f823e3d90fd5b5f80fd5b34610a89575f7ffffffffffffffffffffffffffffffffffffffffffffffffffffffffffffffffc360112610a895760209073ffffffffffffffffffffffffffffffffffffffff7f0000000000000000000000000000000000000000000000000000000000000000168152f35b6004359073ffffffffffffffffffffffffffffffffffffffff82168203610a8957565b67ffffffffffffffff8111610b3057604052565b7f4e487b71000000000000000000000000000000000000000000000000000000005f52604160045260245ffd5b6040810190811067ffffffffffffffff821117610b3057604052565b90601f7fffffffffffffffffffffffffffffffffffffffffffffffffffffffffffffffe0910116810190811067ffffffffffffffff821117610b3057604052565b91908251928382525f5b848110610c025750507fffffffffffffffffffffffffffffffffffffffffffffffffffffffffffffffe0601f845f6020809697860101520116010190565b602081830181015184830182015201610bc4565b9183606094601f9273ffffffffffffffffffffffffffffffffffffffff7fffffffffffffffffffffffffffffffffffffffffffffffffffffffffffffffe09516865260406020870152816040870152868601375f8582860101520116010190565b73ffffffffffffffffffffffffffffffffffffffff8091166040918251907fdd62ed3e000000000000000000000000000000000000000000000000000000008252306004830152602494169182858301526020958683604481855afa928315610f51575f93610f22575b508201809211610ef657835191868301937f095ea7b300000000000000000000000000000000000000000000000000000000855286840152604483015260448252608082019267ffffffffffffffff9280851084861117610eca575f918291868852610d4c87610b5d565b8987527f5361666545524332303a206c6f772d6c6576656c2063616c6c206661696c656460a0820152519082855af1903d15610ebb573d928311610e8f5790610dd2939291855192610dc5897fffffffffffffffffffffffffffffffffffffffffffffffffffffffffffffffe0601f8401160185610b79565b83523d5f8985013e610f5b565b8051848115918215610e6f575b5050905015610ded57505050565b60849291602a9151927f08c379a000000000000000000000000000000000000000000000000000000000845260048401528201527f5361666545524332303a204552433230206f7065726174696f6e20646964206e60448201527f6f742073756363656564000000000000000000000000000000000000000000006064820152fd5b8380929350010312610a89578301518015158103610a895780845f610ddf565b857f4e487b71000000000000000000000000000000000000000000000000000000005f5260416004525ffd5b90610dd2939250606091610f5b565b867f4e487b71000000000000000000000000000000000000000000000000000000005f5260416004525ffd5b847f4e487b71000000000000000000000000000000000000000000000000000000005f5260116004525ffd5b9092508681813d8311610f4a575b610f3a8183610b79565b81010312610a895751915f610ce1565b503d610f30565b85513d5f823e3d90fd5b91929015610fd65750815115610f6f575090565b3b15610f785790565b60646040517f08c379a000000000000000000000000000000000000000000000000000000000815260206004820152601d60248201527f416464726573733a2063616c6c20746f206e6f6e2d636f6e74726163740000006044820152fd5b825190915015610fe95750805190602001fd5b611027906040519182917f08c379a0000000000000000000000000000000000000000000000000000000008352602060048401526024830190610bba565b0390fdfea2646970667358221220ad6182f14c2c2fc538ae05cb9fe1da92887e8c005887fea943ad7970d2217f1064736f6c63430008170033",
  "devdoc": {
    "details": "Public functions calling external contracts do not guard against reentrancy because they are expected to be called via delegatecall, which will execute this contract's logic within the context of the originating contract. For example, the HubPool will delegatecall these functions, therefore its only necessary that the HubPool's methods that call this contract's logic guard against reentrancy.",
    "kind": "dev",
    "methods": {
      "constructor": {
        "params": {
          "_cctpTokenMessenger": "TokenMessenger contract to bridge via CCTP.",
          "_depositManager": "DepositManager Polygon system contract to deposit tokens over the Plasma bridge (Matic).",
          "_erc20Predicate": "ERC20Predicate Polygon system contract to approve when depositing to the PoS bridge.",
          "_fxStateSender": "FxStateSender Polygon system contract to send arbitrary messages to L2.",
          "_l1Matic": "matic address on l1.",
          "_l1Usdc": "USDC address on L1.",
          "_l1Weth": "WETH address on L1.",
          "_rootChainManager": "RootChainManager Polygon system contract to deposit tokens over the PoS bridge."
        }
      },
      "relayMessage(address,bytes)": {
        "params": {
          "message": "Data to send to target.",
          "target": "Contract on Polygon that will receive message."
        }
      },
      "relayTokens(address,address,uint256,address)": {
        "params": {
          "amount": "Amount of L1 tokens to deposit and L2 tokens to receive.",
          "l1Token": "L1 token to deposit.",
          "l2Token": "L2 token to receive.",
          "to": "Bridge recipient."
        }
      }
    },
    "stateVariables": {
      "cctpTokenMessenger": {
        "details": "Posted officially here: https://developers.circle.com/stablecoins/docs/evm-smart-contracts"
      },
      "circleDomainId": {
        "details": "This identifier is assigned by Circle and is not related to a chain ID.Official domain list can be found here: https://developers.circle.com/stablecoins/docs/supported-domains"
      },
      "l1Usdc": {
        "details": "Posted officially here: https://developers.circle.com/stablecoins/docs/usdc-on-main-networks"
      }
    },
    "version": 1
  },
  "userdoc": {
    "kind": "user",
    "methods": {
      "cctpTokenMessenger()": {
        "notice": "The official Circle CCTP token bridge contract endpoint."
      },
      "circleDomainId()": {
        "notice": "Domain identifier used for Circle's CCTP bridge on Base."
      },
      "constructor": {
        "notice": "Constructs new Adapter."
      },
      "l1Usdc()": {
        "notice": "The official USDC contract address on this chain."
      },
      "relayMessage(address,bytes)": {
        "notice": "Send cross-chain message to target on Polygon."
      },
      "relayTokens(address,address,uint256,address)": {
        "notice": "Bridge tokens to Polygon."
      }
    },
    "notice": "Sends cross chain messages Polygon L2 network.",
    "version": 1
  },
  "storageLayout": {
    "storage": [],
    "types": null
  }
}