{
  "address": "0xe7FA30526896E41A66E31A7B409ebCc1Af934ddB",
  "abi": [
    {
      "inputs": [
        {
          "internalType": "address",
          "name": "_destination",
          "type": "address"
        },
        {
          "internalType": "contract WETH9",
          "name": "_l1Weth",
          "type": "address"
        },
        {
          "internalType": "uint256",
          "name": "_l1ChainId",
          "type": "uint256"
        },
        {
          "internalType": "uint256",
          "name": "_l2ChainId",
          "type": "uint256"
        }
      ],
      "stateMutability": "nonpayable",
      "type": "constructor"
    },
    {
      "inputs": [],
      "name": "destination",
      "outputs": [
        {
          "internalType": "address",
          "name": "",
          "type": "address"
        }
      ],
      "stateMutability": "view",
      "type": "function"
    },
    {
      "inputs": [],
      "name": "l1ChainId",
      "outputs": [
        {
          "internalType": "uint256",
          "name": "",
          "type": "uint256"
        }
      ],
      "stateMutability": "view",
      "type": "function"
    },
    {
      "inputs": [],
      "name": "l1Weth",
      "outputs": [
        {
          "internalType": "contract WETH9",
          "name": "",
          "type": "address"
        }
      ],
      "stateMutability": "view",
      "type": "function"
    },
    {
      "inputs": [],
      "name": "l2ChainId",
      "outputs": [
        {
          "internalType": "uint256",
          "name": "",
          "type": "uint256"
        }
      ],
      "stateMutability": "view",
      "type": "function"
    },
    {
      "inputs": [],
      "name": "maticToken",
      "outputs": [
        {
          "internalType": "contract MaticToken",
          "name": "",
          "type": "address"
        }
      ],
      "stateMutability": "view",
      "type": "function"
    },
    {
      "inputs": [
        {
          "internalType": "contract IERC20",
          "name": "token",
          "type": "address"
        }
      ],
      "name": "retrieve",
      "outputs": [],
      "stateMutability": "nonpayable",
      "type": "function"
    },
    {
      "inputs": [
        {
          "internalType": "contract PolygonIERC20",
          "name": "token",
          "type": "address"
        },
        {
          "internalType": "uint256",
          "name": "amount",
          "type": "uint256"
        },
        {
          "internalType": "bool",
          "name": "isWrappedMatic",
          "type": "bool"
        }
      ],
      "name": "send",
      "outputs": [],
      "stateMutability": "nonpayable",
      "type": "function"
    },
    {
      "stateMutability": "payable",
      "type": "receive"
    }
  ],
  "transactionHash": "0x3cfd3541221286a65990a61818d1af664d15ba1341f31875c551dc893744f564",
  "args": [
    "0x69CA24D3084a2eea77E061E2D7aF9b76D107b4f6",
    "0x60D4dB9b534EF9260a88b0BED6c486fe13E604Fc",
    5,
    80001
  ],
  "numDeployments": 1,
  "solcInputHash": "c24ed998c83bc53744361729afa7f030",
  "bytecode": "0x61010060405234801561001157600080fd5b50604051610d9f380380610d9f83398101604081905261003091610078565b6000805460ff191660011790556001600160a01b039384166080529190921660a05260c09190915260e0526100c0565b6001600160a01b038116811461007557600080fd5b50565b6000806000806080858703121561008e57600080fd5b845161009981610060565b60208601519094506100aa81610060565b6040860151606090960151949790965092505050565b60805160a05160c05160e051610c7e610121600039600081816101300152818161027f01526104c101526000818160890152818161018b015261035f01526000818160af01526101d201526000818161022b01526103b90152610c7e6000f3fe6080604052600436106100745760003560e01c8063b269681d1161004e578063b269681d14610219578063d124dc4f1461024d578063d6ae3cd51461026d578063dc354296146102a157600080fd5b80630a79309b1461015957806312622e5b14610179578063146bf4b1146101c057600080fd5b366101545760005460ff161561012b576100ad7f00000000000000000000000000000000000000000000000000000000000000006102b7565b7f000000000000000000000000000000000000000000000000000000000000000073ffffffffffffffffffffffffffffffffffffffff1663d0e30db0476040518263ffffffff1660e01b81526004016000604051808303818588803b15801561011557600080fd5b505af1158015610129573d6000803e3d6000fd5b005b6101297f00000000000000000000000000000000000000000000000000000000000000006102b7565b600080fd5b34801561016557600080fd5b50610129610174366004610b0c565b610328565b34801561018557600080fd5b506101ad7f000000000000000000000000000000000000000000000000000000000000000081565b6040519081526020015b60405180910390f35b3480156101cc57600080fd5b506101f47f000000000000000000000000000000000000000000000000000000000000000081565b60405173ffffffffffffffffffffffffffffffffffffffff90911681526020016101b7565b34801561022557600080fd5b506101f47f000000000000000000000000000000000000000000000000000000000000000081565b34801561025957600080fd5b50610129610268366004610b37565b61048a565b34801561027957600080fd5b506101ad7f000000000000000000000000000000000000000000000000000000000000000081565b3480156102ad57600080fd5b506101f461101081565b804614610325576040517f08c379a000000000000000000000000000000000000000000000000000000000815260206004820152601f60248201527f43616e6e6f742072756e206d6574686f64206f6e207468697320636861696e0060448201526064015b60405180910390fd5b50565b610330610636565b61035d600080547fffffffffffffffffffffffffffffffffffffffffffffffffffffffffffffff00169055565b7f0000000000000000000000000000000000000000000000000000000000000000610387816102b7565b6040517f70a08231000000000000000000000000000000000000000000000000000000008152306004820152610459907f00000000000000000000000000000000000000000000000000000000000000009073ffffffffffffffffffffffffffffffffffffffff8516906370a0823190602401602060405180830381865afa158015610417573d6000803e3d6000fd5b505050506040513d601f19601f8201168201806040525081019061043b9190610b79565b73ffffffffffffffffffffffffffffffffffffffff851691906106a4565b50610325600080547fffffffffffffffffffffffffffffffffffffffffffffffffffffffffffffff00166001179055565b610492610636565b6104bf600080547fffffffffffffffffffffffffffffffffffffffffffffffffffffffffffffff00169055565b7f00000000000000000000000000000000000000000000000000000000000000006104e9816102b7565b61050b73ffffffffffffffffffffffffffffffffffffffff8516333086610778565b6040517f2e1a7d4d0000000000000000000000000000000000000000000000000000000081526004810184905273ffffffffffffffffffffffffffffffffffffffff851690632e1a7d4d90602401600060405180830381600087803b15801561057357600080fd5b505af1158015610587573d6000803e3d6000fd5b505050508115610600576040517f2e1a7d4d0000000000000000000000000000000000000000000000000000000081526004810184905261101090632e1a7d4d9085906024016000604051808303818588803b1580156105e657600080fd5b505af11580156105fa573d6000803e3d6000fd5b50505050505b50610631600080547fffffffffffffffffffffffffffffffffffffffffffffffffffffffffffffff00166001179055565b505050565b60005460ff166106a2576040517f08c379a000000000000000000000000000000000000000000000000000000000815260206004820152601f60248201527f5265656e7472616e637947756172643a207265656e7472616e742063616c6c00604482015260640161031c565b565b60405173ffffffffffffffffffffffffffffffffffffffff83166024820152604481018290526106319084907fa9059cbb00000000000000000000000000000000000000000000000000000000906064015b604080517fffffffffffffffffffffffffffffffffffffffffffffffffffffffffffffffe08184030181529190526020810180517bffffffffffffffffffffffffffffffffffffffffffffffffffffffff167fffffffff00000000000000000000000000000000000000000000000000000000909316929092179091526107dc565b60405173ffffffffffffffffffffffffffffffffffffffff808516602483015283166044820152606481018290526107d69085907f23b872dd00000000000000000000000000000000000000000000000000000000906084016106f6565b50505050565b600061083e826040518060400160405280602081526020017f5361666545524332303a206c6f772d6c6576656c2063616c6c206661696c65648152508573ffffffffffffffffffffffffffffffffffffffff166108e89092919063ffffffff16565b805190915015610631578080602001905181019061085c9190610b92565b610631576040517f08c379a000000000000000000000000000000000000000000000000000000000815260206004820152602a60248201527f5361666545524332303a204552433230206f7065726174696f6e20646964206e60448201527f6f74207375636365656400000000000000000000000000000000000000000000606482015260840161031c565b60606108f78484600085610901565b90505b9392505050565b606082471015610993576040517f08c379a000000000000000000000000000000000000000000000000000000000815260206004820152602660248201527f416464726573733a20696e73756666696369656e742062616c616e636520666f60448201527f722063616c6c0000000000000000000000000000000000000000000000000000606482015260840161031c565b73ffffffffffffffffffffffffffffffffffffffff85163b610a11576040517f08c379a000000000000000000000000000000000000000000000000000000000815260206004820152601d60248201527f416464726573733a2063616c6c20746f206e6f6e2d636f6e7472616374000000604482015260640161031c565b6000808673ffffffffffffffffffffffffffffffffffffffff168587604051610a3a9190610bdb565b60006040518083038185875af1925050503d8060008114610a77576040519150601f19603f3d011682016040523d82523d6000602084013e610a7c565b606091505b5091509150610a8c828286610a97565b979650505050505050565b60608315610aa65750816108fa565b825115610ab65782518084602001fd5b816040517f08c379a000000000000000000000000000000000000000000000000000000000815260040161031c9190610bf7565b73ffffffffffffffffffffffffffffffffffffffff8116811461032557600080fd5b600060208284031215610b1e57600080fd5b81356108fa81610aea565b801515811461032557600080fd5b600080600060608486031215610b4c57600080fd5b8335610b5781610aea565b9250602084013591506040840135610b6e81610b29565b809150509250925092565b600060208284031215610b8b57600080fd5b5051919050565b600060208284031215610ba457600080fd5b81516108fa81610b29565b60005b83811015610bca578181015183820152602001610bb2565b838111156107d65750506000910152565b60008251610bed818460208701610baf565b9190910192915050565b6020815260008251806020840152610c16816040850160208701610baf565b601f017fffffffffffffffffffffffffffffffffffffffffffffffffffffffffffffffe016919091016040019291505056fea2646970667358221220678e869f028f2c43d117b4ad2ce12d1c40c4fbcadb0f9aec382923e08773dc0864736f6c634300080d0033",
  "devdoc": {
    "details": "Because Polygon only allows withdrawals from a particular address to go to that same address on mainnet, we need to have some sort of contract that can guarantee identical addresses on Polygon and Ethereum. This contract is intended to be completely immutable, so it's guaranteed that the contract on each side is  configured identically as long as it is created via create2. create2 is an alternative creation method that uses a different address determination mechanism from normal create. Normal create: address = hash(deployer_address, deployer_nonce) create2:       address = hash(0xFF, sender, salt, bytecode)  This ultimately allows create2 to generate deterministic addresses that don't depend on the transaction count of the sender.",
    "kind": "dev",
    "methods": {
      "constructor": {
        "params": {
          "_destination": "Where to send tokens to for this network.",
          "_l1Weth": "Ethereum WETH address."
        }
      },
      "retrieve(address)": {
        "params": {
          "token": "Token to send to destination."
        }
      },
      "send(address,uint256,bool)": {
        "params": {
          "amount": "Amount to bridge.",
          "isWrappedMatic": "True if token is WMATIC.",
          "token": "Token to bridge."
        }
      }
    },
    "version": 1
  },
  "userdoc": {
    "kind": "user",
    "methods": {
      "constructor": {
        "notice": "Constructs Token Bridger contract."
      },
      "retrieve(address)": {
        "notice": "Called by someone to send tokens to the destination, which should be set to the HubPool."
      },
      "send(address,uint256,bool)": {
        "notice": "Called by Polygon SpokePool to send tokens over bridge to contract with the same address as this.The caller of this function must approve this contract to spend amount of token."
      }
    },
    "notice": "Contract deployed on Ethereum and Polygon to facilitate token transfers from Polygon to the HubPool and back.",
    "version": 1
  },
  "storageLayout": {
    "storage": [
      {
        "astId": 7084,
        "contract": "contracts/PolygonTokenBridger.sol:PolygonTokenBridger",
        "label": "_notEntered",
        "offset": 0,
        "slot": "0",
        "type": "t_bool"
      }
    ],
    "types": {
      "t_bool": {
        "encoding": "inplace",
        "label": "bool",
        "numberOfBytes": "1"
      }
    }
  }
}