{
  "address": "0x071714ca6535185d4A4e8525EAd8F7D43fD26f3d",
  "abi": [
    {
      "anonymous": false,
      "inputs": [
        {
          "indexed": false,
          "internalType": "address",
          "name": "target",
          "type": "address"
        },
        {
          "indexed": false,
          "internalType": "bytes",
          "name": "message",
          "type": "bytes"
        }
      ],
      "name": "MessageRelayed",
      "type": "event"
    },
    {
      "anonymous": false,
      "inputs": [
        {
          "indexed": false,
          "internalType": "address",
          "name": "l1Token",
          "type": "address"
        },
        {
          "indexed": false,
          "internalType": "address",
          "name": "l2Token",
          "type": "address"
        },
        {
          "indexed": false,
          "internalType": "uint256",
          "name": "amount",
          "type": "uint256"
        },
        {
          "indexed": false,
          "internalType": "address",
          "name": "to",
          "type": "address"
        }
      ],
      "name": "TokensRelayed",
      "type": "event"
    },
    {
      "anonymous": false,
      "inputs": [
        {
          "indexed": false,
          "internalType": "bytes32",
          "name": "txHash",
          "type": "bytes32"
        }
      ],
      "name": "ZkSyncMessageRelayed",
      "type": "event"
    },
    {
      "inputs": [],
      "name": "ergsLimit",
      "outputs": [
        {
          "internalType": "uint32",
          "name": "",
          "type": "uint32"
        }
      ],
      "stateMutability": "view",
      "type": "function"
    },
    {
      "inputs": [],
      "name": "getL1CallValue",
      "outputs": [
        {
          "internalType": "uint256",
          "name": "",
          "type": "uint256"
        }
      ],
      "stateMutability": "pure",
      "type": "function"
    },
    {
      "inputs": [],
      "name": "l1Weth",
      "outputs": [
        {
          "internalType": "contract WETH9",
          "name": "",
          "type": "address"
        }
      ],
      "stateMutability": "view",
      "type": "function"
    },
    {
      "inputs": [],
      "name": "l2GasPrice",
      "outputs": [
        {
          "internalType": "uint256",
          "name": "",
          "type": "uint256"
        }
      ],
      "stateMutability": "view",
      "type": "function"
    },
    {
      "inputs": [
        {
          "internalType": "address",
          "name": "target",
          "type": "address"
        },
        {
          "internalType": "bytes",
          "name": "message",
          "type": "bytes"
        }
      ],
      "name": "relayMessage",
      "outputs": [],
      "stateMutability": "payable",
      "type": "function"
    },
    {
      "inputs": [
        {
          "internalType": "address",
          "name": "l1Token",
          "type": "address"
        },
        {
          "internalType": "address",
          "name": "l2Token",
          "type": "address"
        },
        {
          "internalType": "uint256",
          "name": "amount",
          "type": "uint256"
        },
        {
          "internalType": "address",
          "name": "to",
          "type": "address"
        }
      ],
      "name": "relayTokens",
      "outputs": [],
      "stateMutability": "payable",
      "type": "function"
    },
    {
      "inputs": [],
      "name": "zkErc20Bridge",
      "outputs": [
        {
          "internalType": "contract ZkBridgeLike",
          "name": "",
          "type": "address"
        }
      ],
      "stateMutability": "view",
      "type": "function"
    },
    {
      "inputs": [],
      "name": "zkEthBridge",
      "outputs": [
        {
          "internalType": "contract ZkBridgeLike",
          "name": "",
          "type": "address"
        }
      ],
      "stateMutability": "view",
      "type": "function"
    },
    {
      "inputs": [],
      "name": "zkSync",
      "outputs": [
        {
          "internalType": "contract ZkSyncLike",
          "name": "",
          "type": "address"
        }
      ],
      "stateMutability": "view",
      "type": "function"
    }
  ],
  "transactionHash": "0xea3eac1d47aed49dd4df7091ac201e0a6a8ce866d0156c30752df608b695fbb9",
  "args": [],
  "numDeployments": 1,
  "solcInputHash": "6f2837d4a3b71ee9ce7179486eec7c62",
  "bytecode": "0x610140604052633b9aca00608052620f424060a05273b4fbf271143f4fbf7b91a5ded31805e42b2208d660c05273a0f968eba6bbd08f28dc061c7856c1572598339560e052737786255495348c08f82c09c82352019fade3bf296101005273cbebcd41ceabbc85da9bb67527f58d69ad4dfff56101205234801561008257600080fd5b5060805160a05160c05160e05161010051610120516110e36101106000396000818161018c01526103b70152600081816102280152818161048701526104e90152600081816101c0015261062c01526000818160d5015281816102c4015261034401526000818161012e0152818161026901526106560152600081816101f4015261028b01526110e36000f3fe6080604052600436106100965760003560e01c80636bbc6c3d116100695780639ae366851161004e5780639ae36685146101e2578063bb3e04b514610216578063e6eb8ade1461024a57600080fd5b80636bbc6c3d1461017a5780637c19f005146101ae57600080fd5b806308f1ed151461009b578063146bf4b1146100c35780633ab307681461011c57806352c8c75c14610165575b600080fd5b3480156100a757600080fd5b506100b061025d565b6040519081526020015b60405180910390f35b3480156100cf57600080fd5b506100f77f000000000000000000000000000000000000000000000000000000000000000081565b60405173ffffffffffffffffffffffffffffffffffffffff90911681526020016100ba565b34801561012857600080fd5b506101507f000000000000000000000000000000000000000000000000000000000000000081565b60405163ffffffff90911681526020016100ba565b610178610173366004610c78565b6102b4565b005b34801561018657600080fd5b506100f77f000000000000000000000000000000000000000000000000000000000000000081565b3480156101ba57600080fd5b506100f77f000000000000000000000000000000000000000000000000000000000000000081565b3480156101ee57600080fd5b506100b07f000000000000000000000000000000000000000000000000000000000000000081565b34801561022257600080fd5b506100f77f000000000000000000000000000000000000000000000000000000000000000081565b610178610258366004610cf4565b610607565b60006102af63ffffffff7f0000000000000000000000000000000000000000000000000000000000000000167f0000000000000000000000000000000000000000000000000000000000000000610e03565b905090565b60006102be610783565b905060007f000000000000000000000000000000000000000000000000000000000000000073ffffffffffffffffffffffffffffffffffffffff168673ffffffffffffffffffffffffffffffffffffffff160361046b576040517f2e1a7d4d000000000000000000000000000000000000000000000000000000008152600481018590527f000000000000000000000000000000000000000000000000000000000000000073ffffffffffffffffffffffffffffffffffffffff1690632e1a7d4d90602401600060405180830381600087803b15801561039d57600080fd5b505af11580156103b1573d6000803e3d6000fd5b505050507f000000000000000000000000000000000000000000000000000000000000000073ffffffffffffffffffffffffffffffffffffffff16637f63f61885846103fd9190610e40565b85898860006040518663ffffffff1660e01b81526004016104219493929190610e93565b60206040518083038185885af115801561043f573d6000803e3d6000fd5b50505050506040513d601f19601f820116820180604052508101906104649190610ed5565b905061056d565b6104ac73ffffffffffffffffffffffffffffffffffffffff87167f000000000000000000000000000000000000000000000000000000000000000086610801565b6040517f7f63f61800000000000000000000000000000000000000000000000000000000815273ffffffffffffffffffffffffffffffffffffffff7f00000000000000000000000000000000000000000000000000000000000000001690637f63f6189084906105279087908b908a90600090600401610e93565b60206040518083038185885af1158015610545573d6000803e3d6000fd5b50505050506040513d601f19601f8201168201806040525081019061056a9190610ed5565b90505b6040805173ffffffffffffffffffffffffffffffffffffffff888116825287811660208301528183018790528516606082015290517fd7e09655439c3932e55857df3220186e5a7f0980825f20691c2b35d941dee75b9181900360800190a16040518181527f82e577407245f8e8c446b39602dae3fffacbc21172a51c88525e050063929b2f9060200160405180910390a1505050505050565b6000610611610783565b9050600073ffffffffffffffffffffffffffffffffffffffff7f00000000000000000000000000000000000000000000000000000000000000001663b4848df58386867f0000000000000000000000000000000000000000000000000000000000000000866040519080825280602002602001820160405280156106a957816020015b60608152602001906001900390816106945790505b5060006040518763ffffffff1660e01b81526004016106cc959493929190610f64565b60206040518083038185885af11580156106ea573d6000803e3d6000fd5b50505050506040513d601f19601f8201168201806040525081019061070f9190610ed5565b90507f9e6c52944e331ba6270e7fe4cea2a4086bae8f7a27e1cdba07f416806f5d0ac4848460405161074292919061102d565b60405180910390a16040518181527f82e577407245f8e8c446b39602dae3fffacbc21172a51c88525e050063929b2f9060200160405180910390a150505050565b600061078d61025d565b9050804710156107fe576040517f08c379a000000000000000000000000000000000000000000000000000000000815260206004820152601860248201527f496e73756666696369656e74204554482062616c616e6365000000000000000060448201526064015b60405180910390fd5b90565b6040517fdd62ed3e00000000000000000000000000000000000000000000000000000000815230600482015273ffffffffffffffffffffffffffffffffffffffff8381166024830152600091839186169063dd62ed3e90604401602060405180830381865afa158015610878573d6000803e3d6000fd5b505050506040513d601f19601f8201168201806040525081019061089c9190610ed5565b6108a69190610e40565b6040805173ffffffffffffffffffffffffffffffffffffffff8616602482015260448082018490528251808303909101815260649091019091526020810180517bffffffffffffffffffffffffffffffffffffffffffffffffffffffff167f095ea7b30000000000000000000000000000000000000000000000000000000017905290915061093690859061093c565b50505050565b600061099e826040518060400160405280602081526020017f5361666545524332303a206c6f772d6c6576656c2063616c6c206661696c65648152508573ffffffffffffffffffffffffffffffffffffffff16610a4d9092919063ffffffff16565b805190915015610a4857808060200190518101906109bc919061105c565b610a48576040517f08c379a000000000000000000000000000000000000000000000000000000000815260206004820152602a60248201527f5361666545524332303a204552433230206f7065726174696f6e20646964206e60448201527f6f7420737563636565640000000000000000000000000000000000000000000060648201526084016107f5565b505050565b6060610a5c8484600085610a66565b90505b9392505050565b606082471015610af8576040517f08c379a000000000000000000000000000000000000000000000000000000000815260206004820152602660248201527f416464726573733a20696e73756666696369656e742062616c616e636520666f60448201527f722063616c6c000000000000000000000000000000000000000000000000000060648201526084016107f5565b73ffffffffffffffffffffffffffffffffffffffff85163b610b76576040517f08c379a000000000000000000000000000000000000000000000000000000000815260206004820152601d60248201527f416464726573733a2063616c6c20746f206e6f6e2d636f6e747261637400000060448201526064016107f5565b6000808673ffffffffffffffffffffffffffffffffffffffff168587604051610b9f919061107e565b60006040518083038185875af1925050503d8060008114610bdc576040519150601f19603f3d011682016040523d82523d6000602084013e610be1565b606091505b5091509150610bf1828286610bfc565b979650505050505050565b60608315610c0b575081610a5f565b825115610c1b5782518084602001fd5b816040517f08c379a00000000000000000000000000000000000000000000000000000000081526004016107f5919061109a565b803573ffffffffffffffffffffffffffffffffffffffff81168114610c7357600080fd5b919050565b60008060008060808587031215610c8e57600080fd5b610c9785610c4f565b9350610ca560208601610c4f565b925060408501359150610cba60608601610c4f565b905092959194509250565b7f4e487b7100000000000000000000000000000000000000000000000000000000600052604160045260246000fd5b60008060408385031215610d0757600080fd5b610d1083610c4f565b9150602083013567ffffffffffffffff80821115610d2d57600080fd5b818501915085601f830112610d4157600080fd5b813581811115610d5357610d53610cc5565b604051601f82017fffffffffffffffffffffffffffffffffffffffffffffffffffffffffffffffe0908116603f01168101908382118183101715610d9957610d99610cc5565b81604052828152886020848701011115610db257600080fd5b8260208601602083013760006020848301015280955050505050509250929050565b7f4e487b7100000000000000000000000000000000000000000000000000000000600052601160045260246000fd5b6000817fffffffffffffffffffffffffffffffffffffffffffffffffffffffffffffffff0483118215151615610e3b57610e3b610dd4565b500290565b60008219821115610e5357610e53610dd4565b500190565b60038110610e8f577f4e487b7100000000000000000000000000000000000000000000000000000000600052602160045260246000fd5b9052565b73ffffffffffffffffffffffffffffffffffffffff8581168252841660208201526040810183905260808101610ecc6060830184610e58565b95945050505050565b600060208284031215610ee757600080fd5b5051919050565b60005b83811015610f09578181015183820152602001610ef1565b838111156109365750506000910152565b60008151808452610f32816020860160208601610eee565b601f017fffffffffffffffffffffffffffffffffffffffffffffffffffffffffffffffe0169290920160200192915050565b73ffffffffffffffffffffffffffffffffffffffff861681526000602060a081840152610f9460a0840188610f1a565b63ffffffff871660408501528381036060850152855180825282820190600581901b8301840184890160005b8381101561100c577fffffffffffffffffffffffffffffffffffffffffffffffffffffffffffffffe0868403018552610ffa838351610f1a565b94870194925090860190600101610fc0565b505080955050505050506110236080830184610e58565b9695505050505050565b73ffffffffffffffffffffffffffffffffffffffff83168152604060208201526000610a5c6040830184610f1a565b60006020828403121561106e57600080fd5b81518015158114610a5f57600080fd5b60008251611090818460208701610eee565b9190910192915050565b602081526000610a5f6020830184610f1a56fea26469706673582212204ba0519e173cd9a1d6c958c87eb2e090619f74168759e8c7ab77b29c7ec06aa864736f6c634300080d0033",
  "devdoc": {
    "kind": "dev",
    "methods": {},
    "version": 1
  },
  "userdoc": {
    "kind": "user",
    "methods": {},
    "version": 1
  },
  "storageLayout": {
    "storage": [],
    "types": null
  }
}