{
  "address": "0xAEED2E2FB1EFDc5aD10A7FB4d6bA6D71ce8aFA1F",
  "abi": [
    {
      "anonymous": false,
      "inputs": [
        {
          "indexed": false,
          "internalType": "address",
          "name": "target",
          "type": "address"
        },
        {
          "indexed": false,
          "internalType": "bytes",
          "name": "message",
          "type": "bytes"
        }
      ],
      "name": "MessageRelayed",
      "type": "event"
    },
    {
      "anonymous": false,
      "inputs": [
        {
          "indexed": false,
          "internalType": "address",
          "name": "l1Token",
          "type": "address"
        },
        {
          "indexed": false,
          "internalType": "address",
          "name": "l2Token",
          "type": "address"
        },
        {
          "indexed": false,
          "internalType": "uint256",
          "name": "amount",
          "type": "uint256"
        },
        {
          "indexed": false,
          "internalType": "address",
          "name": "to",
          "type": "address"
        }
      ],
      "name": "TokensRelayed",
      "type": "event"
    },
    {
      "anonymous": false,
      "inputs": [
        {
          "indexed": false,
          "internalType": "bytes32",
          "name": "txHash",
          "type": "bytes32"
        }
      ],
      "name": "ZkSyncMessageRelayed",
      "type": "event"
    },
    {
      "inputs": [],
      "name": "ergsLimit",
      "outputs": [
        {
          "internalType": "uint32",
          "name": "",
          "type": "uint32"
        }
      ],
      "stateMutability": "view",
      "type": "function"
    },
    {
      "inputs": [],
      "name": "getL1CallValue",
      "outputs": [
        {
          "internalType": "uint256",
          "name": "",
          "type": "uint256"
        }
      ],
      "stateMutability": "pure",
      "type": "function"
    },
    {
      "inputs": [],
      "name": "l1Weth",
      "outputs": [
        {
          "internalType": "contract WETH9",
          "name": "",
          "type": "address"
        }
      ],
      "stateMutability": "view",
      "type": "function"
    },
    {
      "inputs": [],
      "name": "l2GasPrice",
      "outputs": [
        {
          "internalType": "uint256",
          "name": "",
          "type": "uint256"
        }
      ],
      "stateMutability": "view",
      "type": "function"
    },
    {
      "inputs": [
        {
          "internalType": "address",
          "name": "target",
          "type": "address"
        },
        {
          "internalType": "bytes",
          "name": "message",
          "type": "bytes"
        }
      ],
      "name": "relayMessage",
      "outputs": [],
      "stateMutability": "payable",
      "type": "function"
    },
    {
      "inputs": [
        {
          "internalType": "address",
          "name": "l1Token",
          "type": "address"
        },
        {
          "internalType": "address",
          "name": "l2Token",
          "type": "address"
        },
        {
          "internalType": "uint256",
          "name": "amount",
          "type": "uint256"
        },
        {
          "internalType": "address",
          "name": "to",
          "type": "address"
        }
      ],
      "name": "relayTokens",
      "outputs": [],
      "stateMutability": "payable",
      "type": "function"
    },
    {
      "inputs": [],
      "name": "zkErc20Bridge",
      "outputs": [
        {
          "internalType": "contract ZkBridgeLike",
          "name": "",
          "type": "address"
        }
      ],
      "stateMutability": "view",
      "type": "function"
    },
    {
      "inputs": [],
      "name": "zkEthBridge",
      "outputs": [
        {
          "internalType": "contract ZkBridgeLike",
          "name": "",
          "type": "address"
        }
      ],
      "stateMutability": "view",
      "type": "function"
    },
    {
      "inputs": [],
      "name": "zkSync",
      "outputs": [
        {
          "internalType": "contract ZkSyncLike",
          "name": "",
          "type": "address"
        }
      ],
      "stateMutability": "view",
      "type": "function"
    }
  ],
  "transactionHash": "0x70ff9138462894ad9485847324c3f9d0165169524e6f1951a413c2bd7966c65f",
  "args": [],
  "numDeployments": 1,
  "solcInputHash": "4972f5cae7c6e9deea3ed342ae0a0eeb",
  "bytecode": "0x610140604052633b9aca00608052620f424060a05273b4fbf271143f4fbf7b91a5ded31805e42b2208d660c05273a0f968eba6bbd08f28dc061c7856c1572598339560e052737786255495348c08f82c09c82352019fade3bf296101005273cbebcd41ceabbc85da9bb67527f58d69ad4dfff56101205234801561008257600080fd5b5060805160a05160c05160e05161010051610120516110e46101106000396000818161018c01526103b70152600081816102280152818161048801526104ea0152600081816101c0015261062d01526000818160d5015281816102c4015261034401526000818161012e0152818161026901526106570152600081816101f4015261028b01526110e46000f3fe6080604052600436106100965760003560e01c80636bbc6c3d116100695780639ae366851161004e5780639ae36685146101e2578063bb3e04b514610216578063e6eb8ade1461024a57600080fd5b80636bbc6c3d1461017a5780637c19f005146101ae57600080fd5b806308f1ed151461009b578063146bf4b1146100c35780633ab307681461011c57806352c8c75c14610165575b600080fd5b3480156100a757600080fd5b506100b061025d565b6040519081526020015b60405180910390f35b3480156100cf57600080fd5b506100f77f000000000000000000000000000000000000000000000000000000000000000081565b60405173ffffffffffffffffffffffffffffffffffffffff90911681526020016100ba565b34801561012857600080fd5b506101507f000000000000000000000000000000000000000000000000000000000000000081565b60405163ffffffff90911681526020016100ba565b610178610173366004610c79565b6102b4565b005b34801561018657600080fd5b506100f77f000000000000000000000000000000000000000000000000000000000000000081565b3480156101ba57600080fd5b506100f77f000000000000000000000000000000000000000000000000000000000000000081565b3480156101ee57600080fd5b506100b07f000000000000000000000000000000000000000000000000000000000000000081565b34801561022257600080fd5b506100f77f000000000000000000000000000000000000000000000000000000000000000081565b610178610258366004610cf5565b610608565b60006102af63ffffffff7f0000000000000000000000000000000000000000000000000000000000000000167f0000000000000000000000000000000000000000000000000000000000000000610e04565b905090565b60006102be610784565b905060007f000000000000000000000000000000000000000000000000000000000000000073ffffffffffffffffffffffffffffffffffffffff168673ffffffffffffffffffffffffffffffffffffffff160361046c576040517f2e1a7d4d000000000000000000000000000000000000000000000000000000008152600481018590527f000000000000000000000000000000000000000000000000000000000000000073ffffffffffffffffffffffffffffffffffffffff1690632e1a7d4d90602401600060405180830381600087803b15801561039d57600080fd5b505af11580156103b1573d6000803e3d6000fd5b505050507f000000000000000000000000000000000000000000000000000000000000000073ffffffffffffffffffffffffffffffffffffffff16637f63f61885846103fd9190610e41565b8560008860006040518663ffffffff1660e01b81526004016104229493929190610e94565b60206040518083038185885af1158015610440573d6000803e3d6000fd5b50505050506040513d601f19601f820116820180604052508101906104659190610ed6565b905061056e565b6104ad73ffffffffffffffffffffffffffffffffffffffff87167f000000000000000000000000000000000000000000000000000000000000000086610802565b6040517f7f63f61800000000000000000000000000000000000000000000000000000000815273ffffffffffffffffffffffffffffffffffffffff7f00000000000000000000000000000000000000000000000000000000000000001690637f63f6189084906105289087908b908a90600090600401610e94565b60206040518083038185885af1158015610546573d6000803e3d6000fd5b50505050506040513d601f19601f8201168201806040525081019061056b9190610ed6565b90505b6040805173ffffffffffffffffffffffffffffffffffffffff888116825287811660208301528183018790528516606082015290517fd7e09655439c3932e55857df3220186e5a7f0980825f20691c2b35d941dee75b9181900360800190a16040518181527f82e577407245f8e8c446b39602dae3fffacbc21172a51c88525e050063929b2f9060200160405180910390a1505050505050565b6000610612610784565b9050600073ffffffffffffffffffffffffffffffffffffffff7f00000000000000000000000000000000000000000000000000000000000000001663b4848df58386867f0000000000000000000000000000000000000000000000000000000000000000866040519080825280602002602001820160405280156106aa57816020015b60608152602001906001900390816106955790505b5060006040518763ffffffff1660e01b81526004016106cd959493929190610f65565b60206040518083038185885af11580156106eb573d6000803e3d6000fd5b50505050506040513d601f19601f820116820180604052508101906107109190610ed6565b90507f9e6c52944e331ba6270e7fe4cea2a4086bae8f7a27e1cdba07f416806f5d0ac4848460405161074392919061102e565b60405180910390a16040518181527f82e577407245f8e8c446b39602dae3fffacbc21172a51c88525e050063929b2f9060200160405180910390a150505050565b600061078e61025d565b9050804710156107ff576040517f08c379a000000000000000000000000000000000000000000000000000000000815260206004820152601860248201527f496e73756666696369656e74204554482062616c616e6365000000000000000060448201526064015b60405180910390fd5b90565b6040517fdd62ed3e00000000000000000000000000000000000000000000000000000000815230600482015273ffffffffffffffffffffffffffffffffffffffff8381166024830152600091839186169063dd62ed3e90604401602060405180830381865afa158015610879573d6000803e3d6000fd5b505050506040513d601f19601f8201168201806040525081019061089d9190610ed6565b6108a79190610e41565b6040805173ffffffffffffffffffffffffffffffffffffffff8616602482015260448082018490528251808303909101815260649091019091526020810180517bffffffffffffffffffffffffffffffffffffffffffffffffffffffff167f095ea7b30000000000000000000000000000000000000000000000000000000017905290915061093790859061093d565b50505050565b600061099f826040518060400160405280602081526020017f5361666545524332303a206c6f772d6c6576656c2063616c6c206661696c65648152508573ffffffffffffffffffffffffffffffffffffffff16610a4e9092919063ffffffff16565b805190915015610a4957808060200190518101906109bd919061105d565b610a49576040517f08c379a000000000000000000000000000000000000000000000000000000000815260206004820152602a60248201527f5361666545524332303a204552433230206f7065726174696f6e20646964206e60448201527f6f7420737563636565640000000000000000000000000000000000000000000060648201526084016107f6565b505050565b6060610a5d8484600085610a67565b90505b9392505050565b606082471015610af9576040517f08c379a000000000000000000000000000000000000000000000000000000000815260206004820152602660248201527f416464726573733a20696e73756666696369656e742062616c616e636520666f60448201527f722063616c6c000000000000000000000000000000000000000000000000000060648201526084016107f6565b73ffffffffffffffffffffffffffffffffffffffff85163b610b77576040517f08c379a000000000000000000000000000000000000000000000000000000000815260206004820152601d60248201527f416464726573733a2063616c6c20746f206e6f6e2d636f6e747261637400000060448201526064016107f6565b6000808673ffffffffffffffffffffffffffffffffffffffff168587604051610ba0919061107f565b60006040518083038185875af1925050503d8060008114610bdd576040519150601f19603f3d011682016040523d82523d6000602084013e610be2565b606091505b5091509150610bf2828286610bfd565b979650505050505050565b60608315610c0c575081610a60565b825115610c1c5782518084602001fd5b816040517f08c379a00000000000000000000000000000000000000000000000000000000081526004016107f6919061109b565b803573ffffffffffffffffffffffffffffffffffffffff81168114610c7457600080fd5b919050565b60008060008060808587031215610c8f57600080fd5b610c9885610c50565b9350610ca660208601610c50565b925060408501359150610cbb60608601610c50565b905092959194509250565b7f4e487b7100000000000000000000000000000000000000000000000000000000600052604160045260246000fd5b60008060408385031215610d0857600080fd5b610d1183610c50565b9150602083013567ffffffffffffffff80821115610d2e57600080fd5b818501915085601f830112610d4257600080fd5b813581811115610d5457610d54610cc6565b604051601f82017fffffffffffffffffffffffffffffffffffffffffffffffffffffffffffffffe0908116603f01168101908382118183101715610d9a57610d9a610cc6565b81604052828152886020848701011115610db357600080fd5b8260208601602083013760006020848301015280955050505050509250929050565b7f4e487b7100000000000000000000000000000000000000000000000000000000600052601160045260246000fd5b6000817fffffffffffffffffffffffffffffffffffffffffffffffffffffffffffffffff0483118215151615610e3c57610e3c610dd5565b500290565b60008219821115610e5457610e54610dd5565b500190565b60038110610e90577f4e487b7100000000000000000000000000000000000000000000000000000000600052602160045260246000fd5b9052565b73ffffffffffffffffffffffffffffffffffffffff8581168252841660208201526040810183905260808101610ecd6060830184610e59565b95945050505050565b600060208284031215610ee857600080fd5b5051919050565b60005b83811015610f0a578181015183820152602001610ef2565b838111156109375750506000910152565b60008151808452610f33816020860160208601610eef565b601f017fffffffffffffffffffffffffffffffffffffffffffffffffffffffffffffffe0169290920160200192915050565b73ffffffffffffffffffffffffffffffffffffffff861681526000602060a081840152610f9560a0840188610f1b565b63ffffffff871660408501528381036060850152855180825282820190600581901b8301840184890160005b8381101561100d577fffffffffffffffffffffffffffffffffffffffffffffffffffffffffffffffe0868403018552610ffb838351610f1b565b94870194925090860190600101610fc1565b505080955050505050506110246080830184610e59565b9695505050505050565b73ffffffffffffffffffffffffffffffffffffffff83168152604060208201526000610a5d6040830184610f1b565b60006020828403121561106f57600080fd5b81518015158114610a6057600080fd5b60008251611091818460208701610eef565b9190910192915050565b602081526000610a606020830184610f1b56fea2646970667358221220f2d66b26ee0770e83f57c27ccb80c0dc4c72c5b22119ead93d7474349789c95264736f6c634300080d0033",
  "devdoc": {
    "details": "Public functions calling external contracts do not guard against reentrancy because they are expected to be called via delegatecall, which will execute this contract's logic within the context of the originating contract. For example, the HubPool will delegatecall these functions, therefore its only necessary that the HubPool's methods that call this contract's logic guard against reentrancy.",
    "kind": "dev",
    "methods": {
      "getL1CallValue()": {
        "returns": {
          "_0": "amount of ETH that this contract needs to hold in order for relayMessage to succeed."
        }
      },
      "relayMessage(address,bytes)": {
        "params": {
          "message": "Data to send to target.",
          "target": "Contract on Arbitrum that will receive message."
        }
      },
      "relayTokens(address,address,uint256,address)": {
        "params": {
          "amount": "Amount of L1 tokens to deposit and L2 tokens to receive.",
          "l1Token": "L1 token to deposit.",
          "l2Token": "L2 token to receive.",
          "to": "Bridge recipient."
        }
      }
    },
    "version": 1
  },
  "userdoc": {
    "kind": "user",
    "methods": {
      "getL1CallValue()": {
        "notice": "Returns required amount of ETH to send a message."
      },
      "relayMessage(address,bytes)": {
        "notice": "Send cross-chain message to target on ZkSync.This contract must hold at least getL1CallValue() amount of ETH to send a message, or the message  will get stuck."
      },
      "relayTokens(address,address,uint256,address)": {
        "notice": "Bridge tokens to ZkSync.This contract must hold at least getL1CallValue() amount of ETH to send a message  or the message will get stuck."
      }
    },
    "notice": "Contract containing logic to send messages from L1 to ZkSync.",
    "version": 1
  },
  "storageLayout": {
    "storage": [],
    "types": null
  }
}