{
  "address": "0x07bF1aeC40d561AD92571e0e7565F379213eDB42",
  "abi": [
    {
      "inputs": [
        {
          "internalType": "address",
          "name": "_hubPool",
          "type": "address"
        }
      ],
      "stateMutability": "nonpayable",
      "type": "constructor"
    },
    {
      "anonymous": false,
      "inputs": [
        {
          "indexed": false,
          "internalType": "address",
          "name": "newHubPool",
          "type": "address"
        }
      ],
      "name": "HubPoolChanged",
      "type": "event"
    },
    {
      "anonymous": false,
      "inputs": [
        {
          "indexed": false,
          "internalType": "address",
          "name": "target",
          "type": "address"
        },
        {
          "indexed": false,
          "internalType": "bytes",
          "name": "message",
          "type": "bytes"
        }
      ],
      "name": "MessageRelayed",
      "type": "event"
    },
    {
      "anonymous": false,
      "inputs": [
        {
          "indexed": true,
          "internalType": "address",
          "name": "previousOwner",
          "type": "address"
        },
        {
          "indexed": true,
          "internalType": "address",
          "name": "newOwner",
          "type": "address"
        }
      ],
      "name": "OwnershipTransferred",
      "type": "event"
    },
    {
      "anonymous": false,
      "inputs": [
        {
          "indexed": false,
          "internalType": "address",
          "name": "l1Token",
          "type": "address"
        },
        {
          "indexed": false,
          "internalType": "address",
          "name": "l2Token",
          "type": "address"
        },
        {
          "indexed": false,
          "internalType": "uint256",
          "name": "amount",
          "type": "uint256"
        },
        {
          "indexed": false,
          "internalType": "address",
          "name": "to",
          "type": "address"
        }
      ],
      "name": "TokensRelayed",
      "type": "event"
    },
    {
      "inputs": [],
      "name": "hubPool",
      "outputs": [
        {
          "internalType": "address",
          "name": "",
          "type": "address"
        }
      ],
      "stateMutability": "view",
      "type": "function"
    },
    {
      "inputs": [],
      "name": "owner",
      "outputs": [
        {
          "internalType": "address",
          "name": "",
          "type": "address"
        }
      ],
      "stateMutability": "view",
      "type": "function"
    },
    {
      "inputs": [
        {
          "internalType": "address",
          "name": "target",
          "type": "address"
        },
        {
          "internalType": "bytes",
          "name": "message",
          "type": "bytes"
        }
      ],
      "name": "relayMessage",
      "outputs": [],
      "stateMutability": "payable",
      "type": "function"
    },
    {
      "inputs": [
        {
          "internalType": "address",
          "name": "l1Token",
          "type": "address"
        },
        {
          "internalType": "address",
          "name": "l2Token",
          "type": "address"
        },
        {
          "internalType": "uint256",
          "name": "amount",
          "type": "uint256"
        },
        {
          "internalType": "address",
          "name": "to",
          "type": "address"
        }
      ],
      "name": "relayTokens",
      "outputs": [],
      "stateMutability": "payable",
      "type": "function"
    },
    {
      "inputs": [],
      "name": "renounceOwnership",
      "outputs": [],
      "stateMutability": "nonpayable",
      "type": "function"
    },
    {
      "inputs": [
        {
          "internalType": "address",
          "name": "_hubPool",
          "type": "address"
        }
      ],
      "name": "setHubPool",
      "outputs": [],
      "stateMutability": "nonpayable",
      "type": "function"
    },
    {
      "inputs": [
        {
          "internalType": "address",
          "name": "newOwner",
          "type": "address"
        }
      ],
      "name": "transferOwnership",
      "outputs": [],
      "stateMutability": "nonpayable",
      "type": "function"
    },
    {
      "stateMutability": "payable",
      "type": "receive"
    }
  ],
  "transactionHash": "0x0678bf257bdb52d7bb8da333dacb173afb5acd92d17bf0f08004f3b8410d9ad8",
  "args": [
    "0xA3b96a15c49d3Be43F0393f49E1fa7a31C117a68"
  ],
  "numDeployments": 1,
  "solcInputHash": "0b72be6142a8e911c01b8a1d6982f9c4",
  "bytecode": "0x608060405234801561001057600080fd5b50604051610fb6380380610fb683398101604081905261002f916100b4565b8061003933610064565b600180546001600160a81b0319166001600160a01b0390921691909117600160a01b179055506100e4565b600080546001600160a01b038381166001600160a01b0319831681178455604051919092169283917f8be0079c531659141344cd1fd0a4f28419497f9722a3daafe3b4186f6b6457e09190a35050565b6000602082840312156100c657600080fd5b81516001600160a01b03811681146100dd57600080fd5b9392505050565b610ec3806100f36000396000f3fe6080604052600436106100745760003560e01c80638da5cb5b1161004e5780638da5cb5b146100ca578063e19044021461011a578063e6eb8ade14610147578063f2fde38b1461015a57600080fd5b80631dfb2d021461008057806352c8c75c146100a2578063715018a6146100b557600080fd5b3661007b57005b600080fd5b34801561008c57600080fd5b506100a061009b366004610c20565b61017a565b005b6100a06100b0366004610c3b565b610279565b3480156100c157600080fd5b506100a06103f9565b3480156100d657600080fd5b5060005473ffffffffffffffffffffffffffffffffffffffff165b60405173ffffffffffffffffffffffffffffffffffffffff909116815260200160405180910390f35b34801561012657600080fd5b506001546100f19073ffffffffffffffffffffffffffffffffffffffff1681565b6100a0610155366004610cb7565b610486565b34801561016657600080fd5b506100a0610175366004610c20565b6105c7565b60005473ffffffffffffffffffffffffffffffffffffffff163314610200576040517f08c379a000000000000000000000000000000000000000000000000000000000815260206004820181905260248201527f4f776e61626c653a2063616c6c6572206973206e6f7420746865206f776e657260448201526064015b60405180910390fd5b600180547fffffffffffffffffffffffff00000000000000000000000000000000000000001673ffffffffffffffffffffffffffffffffffffffff83169081179091556040519081527fb5f5d393a77ca9332951514b7bbfed2186d8fecdfafa02a2a676b05e677169639060200160405180910390a150565b6102816106f7565b6102ae600180547fffffffffffffffffffffff00ffffffffffffffffffffffffffffffffffffffff169055565b60015473ffffffffffffffffffffffffffffffffffffffff16331461032f576040517f08c379a000000000000000000000000000000000000000000000000000000000815260206004820152601d60248201527f43616e206f6e6c792062652063616c6c656420627920687562506f6f6c00000060448201526064016101f7565b61035073ffffffffffffffffffffffffffffffffffffffff8516828461077b565b6040805173ffffffffffffffffffffffffffffffffffffffff868116825285811660208301528183018590528316606082015290517fd7e09655439c3932e55857df3220186e5a7f0980825f20691c2b35d941dee75b9181900360800190a16103f3600180547fffffffffffffffffffffff00ffffffffffffffffffffffffffffffffffffffff1674010000000000000000000000000000000000000000179055565b50505050565b60005473ffffffffffffffffffffffffffffffffffffffff16331461047a576040517f08c379a000000000000000000000000000000000000000000000000000000000815260206004820181905260248201527f4f776e61626c653a2063616c6c6572206973206e6f7420746865206f776e657260448201526064016101f7565b610484600061080d565b565b61048e6106f7565b6104bb600180547fffffffffffffffffffffff00ffffffffffffffffffffffffffffffffffffffff169055565b60015473ffffffffffffffffffffffffffffffffffffffff16331461053c576040517f08c379a000000000000000000000000000000000000000000000000000000000815260206004820152601d60248201527f43616e206f6e6c792062652063616c6c656420627920687562506f6f6c00000060448201526064016101f7565b6105468282610882565b7f9e6c52944e331ba6270e7fe4cea2a4086bae8f7a27e1cdba07f416806f5d0ac48282604051610577929190610e0d565b60405180910390a16105c3600180547fffffffffffffffffffffff00ffffffffffffffffffffffffffffffffffffffff1674010000000000000000000000000000000000000000179055565b5050565b60005473ffffffffffffffffffffffffffffffffffffffff163314610648576040517f08c379a000000000000000000000000000000000000000000000000000000000815260206004820181905260248201527f4f776e61626c653a2063616c6c6572206973206e6f7420746865206f776e657260448201526064016101f7565b73ffffffffffffffffffffffffffffffffffffffff81166106eb576040517f08c379a000000000000000000000000000000000000000000000000000000000815260206004820152602660248201527f4f776e61626c653a206e6577206f776e657220697320746865207a65726f206160448201527f646472657373000000000000000000000000000000000000000000000000000060648201526084016101f7565b6106f48161080d565b50565b60015474010000000000000000000000000000000000000000900460ff16610484576040517f08c379a000000000000000000000000000000000000000000000000000000000815260206004820152601f60248201527f5265656e7472616e637947756172643a207265656e7472616e742063616c6c0060448201526064016101f7565b6040805173ffffffffffffffffffffffffffffffffffffffff8416602482015260448082018490528251808303909101815260649091019091526020810180517bffffffffffffffffffffffffffffffffffffffffffffffffffffffff167fa9059cbb000000000000000000000000000000000000000000000000000000001790526108089084906108ff565b505050565b6000805473ffffffffffffffffffffffffffffffffffffffff8381167fffffffffffffffffffffffff0000000000000000000000000000000000000000831681178455604051919092169283917f8be0079c531659141344cd1fd0a4f28419497f9722a3daafe3b4186f6b6457e09190a35050565b600060208201825160008082846000895af19250505080610808576040517f08c379a000000000000000000000000000000000000000000000000000000000815260206004820152601360248201527f657865637574652063616c6c206661696c65640000000000000000000000000060448201526064016101f7565b6000610961826040518060400160405280602081526020017f5361666545524332303a206c6f772d6c6576656c2063616c6c206661696c65648152508573ffffffffffffffffffffffffffffffffffffffff16610a0b9092919063ffffffff16565b805190915015610808578080602001905181019061097f9190610e3c565b610808576040517f08c379a000000000000000000000000000000000000000000000000000000000815260206004820152602a60248201527f5361666545524332303a204552433230206f7065726174696f6e20646964206e60448201527f6f7420737563636565640000000000000000000000000000000000000000000060648201526084016101f7565b6060610a1a8484600085610a24565b90505b9392505050565b606082471015610ab6576040517f08c379a000000000000000000000000000000000000000000000000000000000815260206004820152602660248201527f416464726573733a20696e73756666696369656e742062616c616e636520666f60448201527f722063616c6c000000000000000000000000000000000000000000000000000060648201526084016101f7565b843b610b1e576040517f08c379a000000000000000000000000000000000000000000000000000000000815260206004820152601d60248201527f416464726573733a2063616c6c20746f206e6f6e2d636f6e747261637400000060448201526064016101f7565b6000808673ffffffffffffffffffffffffffffffffffffffff168587604051610b479190610e5e565b60006040518083038185875af1925050503d8060008114610b84576040519150601f19603f3d011682016040523d82523d6000602084013e610b89565b606091505b5091509150610b99828286610ba4565b979650505050505050565b60608315610bb3575081610a1d565b825115610bc35782518084602001fd5b816040517f08c379a00000000000000000000000000000000000000000000000000000000081526004016101f79190610e7a565b803573ffffffffffffffffffffffffffffffffffffffff81168114610c1b57600080fd5b919050565b600060208284031215610c3257600080fd5b610a1d82610bf7565b60008060008060808587031215610c5157600080fd5b610c5a85610bf7565b9350610c6860208601610bf7565b925060408501359150610c7d60608601610bf7565b905092959194509250565b7f4e487b7100000000000000000000000000000000000000000000000000000000600052604160045260246000fd5b60008060408385031215610cca57600080fd5b610cd383610bf7565b9150602083013567ffffffffffffffff80821115610cf057600080fd5b818501915085601f830112610d0457600080fd5b813581811115610d1657610d16610c88565b604051601f82017fffffffffffffffffffffffffffffffffffffffffffffffffffffffffffffffe0908116603f01168101908382118183101715610d5c57610d5c610c88565b81604052828152886020848701011115610d7557600080fd5b8260208601602083013760006020848301015280955050505050509250929050565b60005b83811015610db2578181015183820152602001610d9a565b838111156103f35750506000910152565b60008151808452610ddb816020860160208601610d97565b601f017fffffffffffffffffffffffffffffffffffffffffffffffffffffffffffffffe0169290920160200192915050565b73ffffffffffffffffffffffffffffffffffffffff83168152604060208201526000610a1a6040830184610dc3565b600060208284031215610e4e57600080fd5b81518015158114610a1d57600080fd5b60008251610e70818460208701610d97565b9190910192915050565b602081526000610a1d6020830184610dc356fea2646970667358221220e418dae02c5891de6fb1d67262be8c390e3f8aa524d18c2a2938ee569e0a9a9e64736f6c634300080b0033",
  "devdoc": {
    "kind": "dev",
    "methods": {
      "owner()": {
        "details": "Returns the address of the current owner."
      },
      "renounceOwnership()": {
        "details": "Leaves the contract without owner. It will not be possible to call `onlyOwner` functions anymore. Can only be called by the current owner. NOTE: Renouncing ownership will leave the contract without an owner, thereby removing any functionality that is only available to the owner."
      },
      "transferOwnership(address)": {
        "details": "Transfers ownership of the contract to a new account (`newOwner`). Can only be called by the current owner."
      }
    },
    "version": 1
  },
  "userdoc": {
    "kind": "user",
    "methods": {},
    "version": 1
  },
  "storageLayout": {
    "storage": [
      {
        "astId": 400,
        "contract": "contracts/chain-adapters/Ethereum_Adapter.sol:Ethereum_Adapter",
        "label": "_owner",
        "offset": 0,
        "slot": "0",
        "type": "t_address"
      },
      {
        "astId": 9447,
        "contract": "contracts/chain-adapters/Ethereum_Adapter.sol:Ethereum_Adapter",
        "label": "hubPool",
        "offset": 0,
        "slot": "1",
        "type": "t_address"
      },
      {
        "astId": 5108,
        "contract": "contracts/chain-adapters/Ethereum_Adapter.sol:Ethereum_Adapter",
        "label": "_notEntered",
        "offset": 20,
        "slot": "1",
        "type": "t_bool"
      }
    ],
    "types": {
      "t_address": {
        "encoding": "inplace",
        "label": "address",
        "numberOfBytes": "20"
      },
      "t_bool": {
        "encoding": "inplace",
        "label": "bool",
        "numberOfBytes": "1"
      }
    }
  }
}