{
  "address": "0x1467332AD6C534B8F3e3aee27DFf216Df94BC227",
  "abi": [
    {
      "inputs": [
        {
          "internalType": "contract LpTokenFactoryInterface",
          "name": "_lpTokenFactory",
          "type": "address"
        },
        {
          "internalType": "contract FinderInterface",
          "name": "_finder",
          "type": "address"
        },
        {
          "internalType": "contract WETH9",
          "name": "_weth",
          "type": "address"
        },
        {
          "internalType": "address",
          "name": "_timer",
          "type": "address"
        }
      ],
      "stateMutability": "nonpayable",
      "type": "constructor"
    },
    {
      "anonymous": false,
      "inputs": [
        {
          "indexed": true,
          "internalType": "address",
          "name": "newBondToken",
          "type": "address"
        },
        {
          "indexed": false,
          "internalType": "uint256",
          "name": "newBondAmount",
          "type": "uint256"
        }
      ],
      "name": "BondSet",
      "type": "event"
    },
    {
      "anonymous": false,
      "inputs": [
        {
          "indexed": false,
          "internalType": "uint256",
          "name": "l2ChainId",
          "type": "uint256"
        },
        {
          "indexed": false,
          "internalType": "address",
          "name": "adapter",
          "type": "address"
        },
        {
          "indexed": false,
          "internalType": "address",
          "name": "spokePool",
          "type": "address"
        }
      ],
      "name": "CrossChainContractsSet",
      "type": "event"
    },
    {
      "anonymous": false,
      "inputs": [
        {
          "indexed": false,
          "internalType": "bytes32",
          "name": "newIdentifier",
          "type": "bytes32"
        }
      ],
      "name": "IdentifierSet",
      "type": "event"
    },
    {
      "anonymous": false,
      "inputs": [
        {
          "indexed": false,
          "internalType": "address",
          "name": "l1Token",
          "type": "address"
        },
        {
          "indexed": false,
          "internalType": "address",
          "name": "lpToken",
          "type": "address"
        }
      ],
      "name": "L1TokenEnabledForLiquidityProvision",
      "type": "event"
    },
    {
      "anonymous": false,
      "inputs": [
        {
          "indexed": false,
          "internalType": "address",
          "name": "l1Token",
          "type": "address"
        },
        {
          "indexed": false,
          "internalType": "address",
          "name": "lpToken",
          "type": "address"
        }
      ],
      "name": "L2TokenDisabledForLiquidityProvision",
      "type": "event"
    },
    {
      "anonymous": false,
      "inputs": [
        {
          "indexed": true,
          "internalType": "address",
          "name": "l1Token",
          "type": "address"
        },
        {
          "indexed": false,
          "internalType": "uint256",
          "name": "amount",
          "type": "uint256"
        },
        {
          "indexed": false,
          "internalType": "uint256",
          "name": "lpTokensMinted",
          "type": "uint256"
        },
        {
          "indexed": true,
          "internalType": "address",
          "name": "liquidityProvider",
          "type": "address"
        }
      ],
      "name": "LiquidityAdded",
      "type": "event"
    },
    {
      "anonymous": false,
      "inputs": [
        {
          "indexed": true,
          "internalType": "address",
          "name": "l1Token",
          "type": "address"
        },
        {
          "indexed": false,
          "internalType": "uint256",
          "name": "amount",
          "type": "uint256"
        },
        {
          "indexed": false,
          "internalType": "uint256",
          "name": "lpTokensBurnt",
          "type": "uint256"
        },
        {
          "indexed": true,
          "internalType": "address",
          "name": "liquidityProvider",
          "type": "address"
        }
      ],
      "name": "LiquidityRemoved",
      "type": "event"
    },
    {
      "anonymous": false,
      "inputs": [
        {
          "indexed": false,
          "internalType": "uint256",
          "name": "newLiveness",
          "type": "uint256"
        }
      ],
      "name": "LivenessSet",
      "type": "event"
    },
    {
      "anonymous": false,
      "inputs": [
        {
          "indexed": true,
          "internalType": "address",
          "name": "previousOwner",
          "type": "address"
        },
        {
          "indexed": true,
          "internalType": "address",
          "name": "newOwner",
          "type": "address"
        }
      ],
      "name": "OwnershipTransferred",
      "type": "event"
    },
    {
      "anonymous": false,
      "inputs": [
        {
          "indexed": false,
          "internalType": "uint32",
          "name": "requestExpirationTimestamp",
          "type": "uint32"
        },
        {
          "indexed": false,
          "internalType": "uint64",
          "name": "unclaimedPoolRebalanceLeafCount",
          "type": "uint64"
        },
        {
          "indexed": false,
          "internalType": "uint256[]",
          "name": "bundleEvaluationBlockNumbers",
          "type": "uint256[]"
        },
        {
          "indexed": true,
          "internalType": "bytes32",
          "name": "poolRebalanceRoot",
          "type": "bytes32"
        },
        {
          "indexed": true,
          "internalType": "bytes32",
          "name": "relayerRefundRoot",
          "type": "bytes32"
        },
        {
          "indexed": false,
          "internalType": "bytes32",
          "name": "slowRelayRoot",
          "type": "bytes32"
        },
        {
          "indexed": true,
          "internalType": "address",
          "name": "proposer",
          "type": "address"
        }
      ],
      "name": "ProposeRootBundle",
      "type": "event"
    },
    {
      "anonymous": false,
      "inputs": [
        {
          "indexed": true,
          "internalType": "address",
          "name": "newProtocolFeeCaptureAddress",
          "type": "address"
        },
        {
          "indexed": true,
          "internalType": "uint256",
          "name": "newProtocolFeeCapturePct",
          "type": "uint256"
        }
      ],
      "name": "ProtocolFeeCaptureSet",
      "type": "event"
    },
    {
      "anonymous": false,
      "inputs": [
        {
          "indexed": true,
          "internalType": "address",
          "name": "l1Token",
          "type": "address"
        },
        {
          "indexed": true,
          "internalType": "uint256",
          "name": "accumulatedFees",
          "type": "uint256"
        }
      ],
      "name": "ProtocolFeesCapturedClaimed",
      "type": "event"
    },
    {
      "anonymous": false,
      "inputs": [
        {
          "indexed": true,
          "internalType": "address",
          "name": "disputer",
          "type": "address"
        },
        {
          "indexed": false,
          "internalType": "uint256",
          "name": "requestTime",
          "type": "uint256"
        },
        {
          "indexed": false,
          "internalType": "bytes",
          "name": "disputedAncillaryData",
          "type": "bytes"
        }
      ],
      "name": "RootBundleCanceled",
      "type": "event"
    },
    {
      "anonymous": false,
      "inputs": [
        {
          "indexed": true,
          "internalType": "address",
          "name": "disputer",
          "type": "address"
        },
        {
          "indexed": false,
          "internalType": "uint256",
          "name": "requestTime",
          "type": "uint256"
        },
        {
          "indexed": false,
          "internalType": "bytes",
          "name": "disputedAncillaryData",
          "type": "bytes"
        }
      ],
      "name": "RootBundleDisputed",
      "type": "event"
    },
    {
      "anonymous": false,
      "inputs": [
        {
          "indexed": true,
          "internalType": "uint256",
          "name": "leafId",
          "type": "uint256"
        },
        {
          "indexed": true,
          "internalType": "uint256",
          "name": "chainId",
          "type": "uint256"
        },
        {
          "indexed": false,
          "internalType": "address[]",
          "name": "l1Token",
          "type": "address[]"
        },
        {
          "indexed": false,
          "internalType": "uint256[]",
          "name": "bundleLpFees",
          "type": "uint256[]"
        },
        {
          "indexed": false,
          "internalType": "int256[]",
          "name": "netSendAmount",
          "type": "int256[]"
        },
        {
          "indexed": false,
          "internalType": "int256[]",
          "name": "runningBalance",
          "type": "int256[]"
        },
        {
          "indexed": true,
          "internalType": "address",
          "name": "caller",
          "type": "address"
        }
      ],
      "name": "RootBundleExecuted",
      "type": "event"
    },
    {
      "anonymous": false,
      "inputs": [
        {
          "indexed": true,
          "internalType": "uint256",
          "name": "chainId",
          "type": "uint256"
        },
        {
          "indexed": false,
          "internalType": "bytes",
          "name": "message",
          "type": "bytes"
        }
      ],
      "name": "SpokePoolAdminFunctionTriggered",
      "type": "event"
    },
    {
      "anonymous": false,
      "inputs": [
        {
          "indexed": true,
          "internalType": "uint256",
          "name": "originChainId",
          "type": "uint256"
        },
        {
          "indexed": true,
          "internalType": "uint256",
          "name": "destinationChainId",
          "type": "uint256"
        },
        {
          "indexed": true,
          "internalType": "address",
          "name": "originToken",
          "type": "address"
        },
        {
          "indexed": false,
          "internalType": "address",
          "name": "destinationToken",
          "type": "address"
        },
        {
          "indexed": false,
          "internalType": "bool",
          "name": "enableRoute",
          "type": "bool"
        }
      ],
      "name": "WhitelistRoute",
      "type": "event"
    },
    {
      "stateMutability": "payable",
      "type": "fallback"
    },
    {
      "inputs": [
        {
          "internalType": "address",
          "name": "l1Token",
          "type": "address"
        },
        {
          "internalType": "uint256",
          "name": "l1TokenAmount",
          "type": "uint256"
        }
      ],
      "name": "addLiquidity",
      "outputs": [],
      "stateMutability": "payable",
      "type": "function"
    },
    {
      "inputs": [],
      "name": "bondAmount",
      "outputs": [
        {
          "internalType": "uint256",
          "name": "",
          "type": "uint256"
        }
      ],
      "stateMutability": "view",
      "type": "function"
    },
    {
      "inputs": [],
      "name": "bondToken",
      "outputs": [
        {
          "internalType": "contract IERC20",
          "name": "",
          "type": "address"
        }
      ],
      "stateMutability": "view",
      "type": "function"
    },
    {
      "inputs": [
        {
          "internalType": "address",
          "name": "l1Token",
          "type": "address"
        }
      ],
      "name": "claimProtocolFeesCaptured",
      "outputs": [],
      "stateMutability": "nonpayable",
      "type": "function"
    },
    {
      "inputs": [
        {
          "internalType": "uint256",
          "name": "",
          "type": "uint256"
        }
      ],
      "name": "crossChainContracts",
      "outputs": [
        {
          "internalType": "contract AdapterInterface",
          "name": "adapter",
          "type": "address"
        },
        {
          "internalType": "address",
          "name": "spokePool",
          "type": "address"
        }
      ],
      "stateMutability": "view",
      "type": "function"
    },
    {
      "inputs": [
        {
          "internalType": "address",
          "name": "l1Token",
          "type": "address"
        }
      ],
      "name": "disableL1TokenForLiquidityProvision",
      "outputs": [],
      "stateMutability": "nonpayable",
      "type": "function"
    },
    {
      "inputs": [],
      "name": "disputeRootBundle",
      "outputs": [],
      "stateMutability": "nonpayable",
      "type": "function"
    },
    {
      "inputs": [
        {
          "internalType": "address",
          "name": "l1Token",
          "type": "address"
        }
      ],
      "name": "enableL1TokenForLiquidityProvision",
      "outputs": [],
      "stateMutability": "nonpayable",
      "type": "function"
    },
    {
      "inputs": [
        {
          "internalType": "address",
          "name": "l1Token",
          "type": "address"
        }
      ],
      "name": "exchangeRateCurrent",
      "outputs": [
        {
          "internalType": "uint256",
          "name": "",
          "type": "uint256"
        }
      ],
      "stateMutability": "nonpayable",
      "type": "function"
    },
    {
      "inputs": [
        {
          "components": [
            {
              "internalType": "uint256",
              "name": "chainId",
              "type": "uint256"
            },
            {
              "internalType": "uint256[]",
              "name": "bundleLpFees",
              "type": "uint256[]"
            },
            {
              "internalType": "int256[]",
              "name": "netSendAmounts",
              "type": "int256[]"
            },
            {
              "internalType": "int256[]",
              "name": "runningBalances",
              "type": "int256[]"
            },
            {
              "internalType": "uint8",
              "name": "leafId",
              "type": "uint8"
            },
            {
              "internalType": "address[]",
              "name": "l1Tokens",
              "type": "address[]"
            }
          ],
          "internalType": "struct HubPoolInterface.PoolRebalanceLeaf",
          "name": "poolRebalanceLeaf",
          "type": "tuple"
        },
        {
          "internalType": "bytes32[]",
          "name": "proof",
          "type": "bytes32[]"
        }
      ],
      "name": "executeRootBundle",
      "outputs": [],
      "stateMutability": "nonpayable",
      "type": "function"
    },
    {
      "inputs": [],
      "name": "finder",
      "outputs": [
        {
          "internalType": "contract FinderInterface",
          "name": "",
          "type": "address"
        }
      ],
      "stateMutability": "view",
      "type": "function"
    },
    {
      "inputs": [],
      "name": "getCurrentTime",
      "outputs": [
        {
          "internalType": "uint256",
          "name": "",
          "type": "uint256"
        }
      ],
      "stateMutability": "view",
      "type": "function"
    },
    {
      "inputs": [],
      "name": "getRootBundleProposalAncillaryData",
      "outputs": [
        {
          "internalType": "bytes",
          "name": "ancillaryData",
          "type": "bytes"
        }
      ],
      "stateMutability": "view",
      "type": "function"
    },
    {
      "inputs": [],
      "name": "identifier",
      "outputs": [
        {
          "internalType": "bytes32",
          "name": "",
          "type": "bytes32"
        }
      ],
      "stateMutability": "view",
      "type": "function"
    },
    {
      "inputs": [
        {
          "internalType": "address",
          "name": "l1Token",
          "type": "address"
        }
      ],
      "name": "liquidityUtilizationCurrent",
      "outputs": [
        {
          "internalType": "uint256",
          "name": "",
          "type": "uint256"
        }
      ],
      "stateMutability": "nonpayable",
      "type": "function"
    },
    {
      "inputs": [
        {
          "internalType": "address",
          "name": "l1Token",
          "type": "address"
        },
        {
          "internalType": "uint256",
          "name": "relayedAmount",
          "type": "uint256"
        }
      ],
      "name": "liquidityUtilizationPostRelay",
      "outputs": [
        {
          "internalType": "uint256",
          "name": "",
          "type": "uint256"
        }
      ],
      "stateMutability": "nonpayable",
      "type": "function"
    },
    {
      "inputs": [],
      "name": "liveness",
      "outputs": [
        {
          "internalType": "uint32",
          "name": "",
          "type": "uint32"
        }
      ],
      "stateMutability": "view",
      "type": "function"
    },
    {
      "inputs": [],
      "name": "loadEthForL2Calls",
      "outputs": [],
      "stateMutability": "payable",
      "type": "function"
    },
    {
      "inputs": [],
      "name": "lpFeeRatePerSecond",
      "outputs": [
        {
          "internalType": "uint256",
          "name": "",
          "type": "uint256"
        }
      ],
      "stateMutability": "view",
      "type": "function"
    },
    {
      "inputs": [],
      "name": "lpTokenFactory",
      "outputs": [
        {
          "internalType": "contract LpTokenFactoryInterface",
          "name": "",
          "type": "address"
        }
      ],
      "stateMutability": "view",
      "type": "function"
    },
    {
      "inputs": [
        {
          "internalType": "bytes[]",
          "name": "data",
          "type": "bytes[]"
        }
      ],
      "name": "multicall",
      "outputs": [
        {
          "internalType": "bytes[]",
          "name": "results",
          "type": "bytes[]"
        }
      ],
      "stateMutability": "payable",
      "type": "function"
    },
    {
      "inputs": [],
      "name": "owner",
      "outputs": [
        {
          "internalType": "address",
          "name": "",
          "type": "address"
        }
      ],
      "stateMutability": "view",
      "type": "function"
    },
    {
      "inputs": [
        {
          "internalType": "address",
          "name": "",
          "type": "address"
        }
      ],
      "name": "pooledTokens",
      "outputs": [
        {
          "internalType": "address",
          "name": "lpToken",
          "type": "address"
        },
        {
          "internalType": "bool",
          "name": "isEnabled",
          "type": "bool"
        },
        {
          "internalType": "uint32",
          "name": "lastLpFeeUpdate",
          "type": "uint32"
        },
        {
          "internalType": "int256",
          "name": "utilizedReserves",
          "type": "int256"
        },
        {
          "internalType": "uint256",
          "name": "liquidReserves",
          "type": "uint256"
        },
        {
          "internalType": "uint256",
          "name": "undistributedLpFees",
          "type": "uint256"
        }
      ],
      "stateMutability": "view",
      "type": "function"
    },
    {
      "inputs": [
        {
          "internalType": "uint256[]",
          "name": "bundleEvaluationBlockNumbers",
          "type": "uint256[]"
        },
        {
          "internalType": "uint8",
          "name": "poolRebalanceLeafCount",
          "type": "uint8"
        },
        {
          "internalType": "bytes32",
          "name": "poolRebalanceRoot",
          "type": "bytes32"
        },
        {
          "internalType": "bytes32",
          "name": "relayerRefundRoot",
          "type": "bytes32"
        },
        {
          "internalType": "bytes32",
          "name": "slowRelayRoot",
          "type": "bytes32"
        }
      ],
      "name": "proposeRootBundle",
      "outputs": [],
      "stateMutability": "nonpayable",
      "type": "function"
    },
    {
      "inputs": [],
      "name": "protocolFeeCaptureAddress",
      "outputs": [
        {
          "internalType": "address",
          "name": "",
          "type": "address"
        }
      ],
      "stateMutability": "view",
      "type": "function"
    },
    {
      "inputs": [],
      "name": "protocolFeeCapturePct",
      "outputs": [
        {
          "internalType": "uint256",
          "name": "",
          "type": "uint256"
        }
      ],
      "stateMutability": "view",
      "type": "function"
    },
    {
      "inputs": [
        {
          "internalType": "uint256",
          "name": "chainId",
          "type": "uint256"
        },
        {
          "internalType": "bytes",
          "name": "functionData",
          "type": "bytes"
        }
      ],
      "name": "relaySpokePoolAdminFunction",
      "outputs": [],
      "stateMutability": "nonpayable",
      "type": "function"
    },
    {
      "inputs": [
        {
          "internalType": "address",
          "name": "l1Token",
          "type": "address"
        },
        {
          "internalType": "uint256",
          "name": "lpTokenAmount",
          "type": "uint256"
        },
        {
          "internalType": "bool",
          "name": "sendEth",
          "type": "bool"
        }
      ],
      "name": "removeLiquidity",
      "outputs": [],
      "stateMutability": "nonpayable",
      "type": "function"
    },
    {
      "inputs": [],
      "name": "renounceOwnership",
      "outputs": [],
      "stateMutability": "nonpayable",
      "type": "function"
    },
    {
      "inputs": [],
      "name": "rootBundleProposal",
      "outputs": [
        {
          "internalType": "bytes32",
          "name": "poolRebalanceRoot",
          "type": "bytes32"
        },
        {
          "internalType": "bytes32",
          "name": "relayerRefundRoot",
          "type": "bytes32"
        },
        {
          "internalType": "bytes32",
          "name": "slowRelayRoot",
          "type": "bytes32"
        },
        {
          "internalType": "uint256",
          "name": "claimedBitMap",
          "type": "uint256"
        },
        {
          "internalType": "address",
          "name": "proposer",
          "type": "address"
        },
        {
          "internalType": "bool",
          "name": "proposerBondRepaid",
          "type": "bool"
        },
        {
          "internalType": "uint8",
          "name": "unclaimedPoolRebalanceLeafCount",
          "type": "uint8"
        },
        {
          "internalType": "uint32",
          "name": "requestExpirationTimestamp",
          "type": "uint32"
        }
      ],
      "stateMutability": "view",
      "type": "function"
    },
    {
      "inputs": [
        {
          "internalType": "contract IERC20",
          "name": "newBondToken",
          "type": "address"
        },
        {
          "internalType": "uint256",
          "name": "newBondAmount",
          "type": "uint256"
        }
      ],
      "name": "setBond",
      "outputs": [],
      "stateMutability": "nonpayable",
      "type": "function"
    },
    {
      "inputs": [
        {
          "internalType": "uint256",
          "name": "l2ChainId",
          "type": "uint256"
        },
        {
          "internalType": "address",
          "name": "adapter",
          "type": "address"
        },
        {
          "internalType": "address",
          "name": "spokePool",
          "type": "address"
        }
      ],
      "name": "setCrossChainContracts",
      "outputs": [],
      "stateMutability": "nonpayable",
      "type": "function"
    },
    {
      "inputs": [
        {
          "internalType": "uint256",
          "name": "time",
          "type": "uint256"
        }
      ],
      "name": "setCurrentTime",
      "outputs": [],
      "stateMutability": "nonpayable",
      "type": "function"
    },
    {
      "inputs": [
        {
          "internalType": "bytes32",
          "name": "newIdentifier",
          "type": "bytes32"
        }
      ],
      "name": "setIdentifier",
      "outputs": [],
      "stateMutability": "nonpayable",
      "type": "function"
    },
    {
      "inputs": [
        {
          "internalType": "uint32",
          "name": "newLiveness",
          "type": "uint32"
        }
      ],
      "name": "setLiveness",
      "outputs": [],
      "stateMutability": "nonpayable",
      "type": "function"
    },
    {
      "inputs": [
        {
          "internalType": "address",
          "name": "newProtocolFeeCaptureAddress",
          "type": "address"
        },
        {
          "internalType": "uint256",
          "name": "newProtocolFeeCapturePct",
          "type": "uint256"
        }
      ],
      "name": "setProtocolFeeCapture",
      "outputs": [],
      "stateMutability": "nonpayable",
      "type": "function"
    },
    {
      "inputs": [
        {
          "internalType": "address",
          "name": "l1Token",
          "type": "address"
        }
      ],
      "name": "sync",
      "outputs": [],
      "stateMutability": "nonpayable",
      "type": "function"
    },
    {
      "inputs": [],
      "name": "timerAddress",
      "outputs": [
        {
          "internalType": "address",
          "name": "",
          "type": "address"
        }
      ],
      "stateMutability": "view",
      "type": "function"
    },
    {
      "inputs": [
        {
          "internalType": "address",
          "name": "newOwner",
          "type": "address"
        }
      ],
      "name": "transferOwnership",
      "outputs": [],
      "stateMutability": "nonpayable",
      "type": "function"
    },
    {
      "inputs": [
        {
          "internalType": "address",
          "name": "",
          "type": "address"
        }
      ],
      "name": "unclaimedAccumulatedProtocolFees",
      "outputs": [
        {
          "internalType": "uint256",
          "name": "",
          "type": "uint256"
        }
      ],
      "stateMutability": "view",
      "type": "function"
    },
    {
      "inputs": [],
      "name": "weth",
      "outputs": [
        {
          "internalType": "contract WETH9",
          "name": "",
          "type": "address"
        }
      ],
      "stateMutability": "view",
      "type": "function"
    },
    {
      "inputs": [
        {
          "internalType": "uint256",
          "name": "originChainId",
          "type": "uint256"
        },
        {
          "internalType": "uint256",
          "name": "destinationChainId",
          "type": "uint256"
        },
        {
          "internalType": "address",
          "name": "originToken",
          "type": "address"
        },
        {
          "internalType": "address",
          "name": "destinationToken",
          "type": "address"
        },
        {
          "internalType": "bool",
          "name": "enableRoute",
          "type": "bool"
        }
      ],
      "name": "whitelistRoute",
      "outputs": [],
      "stateMutability": "nonpayable",
      "type": "function"
    },
    {
      "inputs": [
        {
          "internalType": "uint256",
          "name": "originChainId",
          "type": "uint256"
        },
        {
          "internalType": "address",
          "name": "originToken",
          "type": "address"
        },
        {
          "internalType": "uint256",
          "name": "destinationChainId",
          "type": "uint256"
        }
      ],
      "name": "whitelistedRoute",
      "outputs": [
        {
          "internalType": "address",
          "name": "",
          "type": "address"
        }
      ],
      "stateMutability": "view",
      "type": "function"
    },
    {
      "stateMutability": "payable",
      "type": "receive"
    }
  ],
  "transactionHash": "0xcc65d07aa606b03656094e1f9c37abdc6919020b75888e9a6e2d1ff3597f4602",
  "args": [
    "0xE87623020f4179aEcb973042488905FE748eb9b5",
    "0xeD0169a88d267063184b0853BaAAAe66c3c154B2",
    "0xd0A1E359811322d97991E03f863a0C30C2cF029C",
    "0x0000000000000000000000000000000000000000"
  ],
  "numDeployments": 1,
  "solcInputHash": "abccea57e702a2494fadb0e94bc8fd72",
  "bytecode": "0x60806040527f49535f4143524f53535f56325f42554e444c455f56414c494400000000000000600d5565015d3ef79800600e556014805463ffffffff1916611c201790553480156200005057600080fd5b5060405162004f5a38038062004f5a833981016040819052620000739162000166565b600080546001600160a81b0319166001600160a01b03831617600160a01b179055620000a6620000a03390565b620000fb565b50600b80546001600160a01b03199081166001600160a01b0395861617909155600c8054821693851693909317909255600a8054831691841691909117905560015460108054919093169116179055620001ce565b600180546001600160a01b038381166001600160a01b0319831681179093556040519116919082907f8be0079c531659141344cd1fd0a4f28419497f9722a3daafe3b4186f6b6457e090600090a35050565b6001600160a01b03811681146200016357600080fd5b50565b600080600080608085870312156200017d57600080fd5b84516200018a816200014d565b60208601519094506200019d816200014d565b6040860151909350620001b0816200014d565b6060860151909250620001c3816200014d565b939692955090935050565b614d7c80620001de6000396000f3fe60806040526004361061025e5760003560e01c806369b6250211610144578063ad68eda5116100b6578063dd70e5e81161007a578063dd70e5e8146107a3578063e0f339e3146107c3578063e40064d7146107e3578063e460e35c14610810578063f0056a7d14610830578063f2fde38b146108d55761026d565b8063ad68eda514610703578063b60c2d7d14610723578063b9a3c84c14610743578063c28f439214610763578063cd949995146107835761026d565b806380f323a71161010857806380f323a71461064f5780638bda0c00146106655780638da5cb5b14610685578063a16fd6e9146106a3578063a5841194146106c3578063ac9650d8146106e35761026d565b806369b625021461026b5780636ad0690a146105d2578063715018a61461060457806376ec08dd146106195780637998a1c4146106395761026d565b806322395aaa116101dd57806333dc09ca116101a157806333dc09ca146104a357806338b9e2ce146104c35780633fc8cef3146104e35780634144fd61146105035780634f7473ff146105a957806356688700146105bf5761026d565b806322395aaa1461041957806322f8e5661461042e578063240f475f1461044e57806329cb924d1461046e5780632d0f6f84146104835761026d565b80630c501af9116102245780630c501af91461036b5780630ee28a881461038b57806311cfc159146103ab5780631b107ee0146103c15780631c39c38d146103e15761026d565b8062660b5314610275578062c9920614610295578063084d0513146102b557806309474ae2146102e85780630a2dc9ec146103495761026d565b3661026d5761026b6108f5565b005b61026b6108f5565b34801561028157600080fd5b5061026b610290366004613ee8565b610973565b3480156102a157600080fd5b5061026b6102b0366004613f14565b610a51565b3480156102c157600080fd5b506102d56102d0366004613ee8565b610c34565b6040519081526020015b60405180910390f35b3480156102f457600080fd5b50610329610303366004613f14565b600960205260009081526040902080546001909101546001600160a01b03918216911682565b604080516001600160a01b039384168152929091166020830152016102df565b34801561035557600080fd5b5061035e610c60565b6040516102df9190613f85565b34801561037757600080fd5b5061026b610386366004613f98565b610e2f565b34801561039757600080fd5b5061026b6103a6366004613fc3565b610ec1565b3480156103b757600080fd5b506102d5600e5481565b3480156103cd57600080fd5b5061026b6103dc366004614005565b611083565b3480156103ed57600080fd5b50600054610401906001600160a01b031681565b6040516001600160a01b0390911681526020016102df565b34801561042557600080fd5b5061026b6111e4565b34801561043a57600080fd5b5061026b610449366004613f14565b611599565b34801561045a57600080fd5b50601054610401906001600160a01b031681565b34801561047a57600080fd5b506102d56115f4565b34801561048f57600080fd5b5061026b61049e366004613f98565b611680565b3480156104af57600080fd5b5061026b6104be366004613ee8565b61171f565b3480156104cf57600080fd5b5061026b6104de3660046141d5565b611930565b3480156104ef57600080fd5b50600a54610401906001600160a01b031681565b34801561050f57600080fd5b5060025460035460045460055460065461055a94939291906001600160a01b0381169060ff600160a01b8204811691600160a81b81049091169063ffffffff600160b01b9091041688565b6040805198895260208901979097529587019490945260608601929092526001600160a01b03166080850152151560a084015260ff1660c083015263ffffffff1660e0820152610100016102df565b3480156105b557600080fd5b506102d560115481565b61026b6105cd366004613ee8565b611c11565b3480156105de57600080fd5b506014546105ef9063ffffffff1681565b60405163ffffffff90911681526020016102df565b34801561061057600080fd5b5061026b611ea2565b34801561062557600080fd5b50600b54610401906001600160a01b031681565b34801561064557600080fd5b506102d5600d5481565b34801561065b57600080fd5b506102d560135481565b34801561067157600080fd5b5061026b6106803660046142ed565b611ed6565b34801561069157600080fd5b506001546001600160a01b0316610401565b3480156106af57600080fd5b506102d56106be366004613f98565b61204d565b3480156106cf57600080fd5b5061026b6106de366004613f98565b612079565b6106f66106f1366004614354565b61209a565b6040516102df91906143c8565b34801561070f57600080fd5b5061040161071e36600461442a565b61223f565b34801561072f57600080fd5b5061026b61073e366004613f98565b612274565b34801561074f57600080fd5b50600c54610401906001600160a01b031681565b34801561076f57600080fd5b50601254610401906001600160a01b031681565b34801561078f57600080fd5b5061026b61079e366004614462565b612434565b3480156107af57600080fd5b5061026b6107be3660046144af565b6124f2565b3480156107cf57600080fd5b506102d56107de366004613f98565b61253e565b3480156107ef57600080fd5b506102d56107fe366004613f98565b600f6020526000908152604090205481565b34801561081c57600080fd5b5061026b61082b366004614533565b612559565b34801561083c57600080fd5b5061089361084b366004613f98565b60086020526000908152604090208054600182015460028301546003909301546001600160a01b03831693600160a01b840460ff1693600160a81b900463ffffffff16929186565b604080516001600160a01b039097168752941515602087015263ffffffff909316938501939093526060840152608083019190915260a082015260c0016102df565b3480156108e157600080fd5b5061026b6108f0366004613f98565b61261f565b600054600160a01b900460ff161561097157600a60009054906101000a90046001600160a01b03166001600160a01b031663d0e30db0346040518263ffffffff1660e01b81526004016000604051808303818588803b15801561095757600080fd5b505af115801561096b573d6000803e3d6000fd5b50505050505b565b6001546001600160a01b031633146109a65760405162461bcd60e51b815260040161099d9061456a565b60405180910390fd5b670de0b6b3a76400008111156109fe5760405162461bcd60e51b815260206004820152601960248201527f4261642070726f746f636f6c4665654361707475726550637400000000000000604482015260640161099d565b601080546001600160a01b0319166001600160a01b03841690811790915560118290556040518291907fc1993b89fd79a19ece7beb067ddc8534ca26d29c0ff94ea2f53b4a508d1eedc990600090a35050565b6001546001600160a01b03163314610a7b5760405162461bcd60e51b815260040161099d9061456a565b600654600160a81b900460ff1615610aa55760405162461bcd60e51b815260040161099d9061459f565b610aad6126b7565b610ab5612710565b600c546040516302abf57960e61b8152721259195b9d1a599a595c95da1a5d195b1a5cdd606a1b60048201526000916001600160a01b03169063aafd5e4090602401602060405180830381865afa158015610b14573d6000803e3d6000fd5b505050506040513d601f19601f82011682018060405250810190610b3891906145d6565b6040516390978d1b60e01b8152600481018490529091506001600160a01b038216906390978d1b90602401602060405180830381865afa158015610b80573d6000803e3d6000fd5b505050506040513d601f19601f82011682018060405250810190610ba491906145f3565b610bf05760405162461bcd60e51b815260206004820152601860248201527f4964656e746966696572206e6f7420737570706f727465640000000000000000604482015260640161099d565b600d8290556040518281527ff45367c278fcceff23d601ce4bdd191e5bd61687ff9f29dc7276a08fe54c0c5d9060200160405180910390a150610c3161271f565b50565b6000610c3e6126b7565b610c46612710565b610c508383612734565b9050610c5a61271f565b92915050565b6040805160208082018352600082528251808401909352601a83527f7265717565737445787069726174696f6e54696d657374616d7000000000000090830152600654606092610cbd9291600160b01b900463ffffffff16612829565b60408051808201909152601f81527f756e636c61696d6564506f6f6c526562616c616e63654c656166436f756e74006020820152600654919250610d0d91839190600160a81b900460ff16612829565b9050610d4881604051806040016040528060118152602001701c1bdbdb149958985b185b98d9549bdbdd607a1b81525060026000015461286f565b9050610d8381604051806040016040528060118152602001701c995b185e595c9499599d5b99149bdbdd607a1b81525060026001015461286f565b9050610db9816040518060400160405280600d81526020016c1cdb1bddd4995b185e549bdbdd609a1b815250600280015461286f565b9050610df0816040518060400160405280600d81526020016c0636c61696d65644269744d617609c1b815250600260030154612829565b604080518082019091526008815267383937b837b9b2b960c11b6020820152600654919250610e2a918391906001600160a01b031661288a565b905090565b6001546001600160a01b03163314610e595760405162461bcd60e51b815260040161099d9061456a565b6001600160a01b03818116600081815260086020908152604091829020805460ff60a01b1981169091558251938452909316928201929092527fac111b3b527b307393c94d98f26140effb71411054466818be97912d2d65f77691015b60405180910390a150565b610ec96126b7565b610ed1612710565b600a546001600160a01b0384811691161480610eeb575080155b610f275760405162461bcd60e51b815260206004820152600d60248201526c086c2dce840e6cadcc840cae8d609b1b604482015260640161099d565b6000670de0b6b3a7640000610f3b856128a5565b610f459085614626565b610f4f919061465b565b6001600160a01b038581166000908152600860205260409081902054905163079cc67960e41b81523360048201526024810187905292935016906379cc6790906044016020604051808303816000875af1158015610fb1573d6000803e3d6000fd5b505050506040513d601f19601f82011682018060405250810190610fd591906145f3565b506001600160a01b0384166000908152600860205260408120600201805483929061100190849061466f565b9091555050811561101b57611016338261299d565b61102f565b61102f6001600160a01b0385163383612a58565b604080518281526020810185905233916001600160a01b038716917fcda1185f28599e6bd14ab8a68b3c30a11e1dce4256b5e67e94dd3fd846a6c589910160405180910390a35061107e61271f565b505050565b6001546001600160a01b031633146110ad5760405162461bcd60e51b815260040161099d9061456a565b6110b56126b7565b6110bd612710565b801561110a5781600760006110d3888789612abb565b815260200190815260200160002060006101000a8154816001600160a01b0302191690836001600160a01b03160217905550611138565b60076000611119878688612abb565b8152602081019190915260400160002080546001600160a01b03191690555b6040516001600160a01b038416602482015260448101859052811515606482015261119190869060840160408051601f198184030181529190526020810180516001600160e01b031663272751c760e01b179052612afb565b604080516001600160a01b0384811682528315156020830152851691869188917f6b6ad6b78778f6301df516688e316a2d4183a1ea99adae498c8e119debe9b146910160405180910390a461096b61271f565b6111ec6126b7565b6111f4612710565b60006111fe6115f4565b60065490915063ffffffff600160b01b909104811690821611156112645760405162461bcd60e51b815260206004820152601760248201527f5265717565737420706173736564206c6976656e657373000000000000000000604482015260640161099d565b600061126e610c60565b9050600061127a612c66565b90506013548111156112975761128f82612d4e565b505050611572565b60006112a1612e34565b6013546012549192506112bf916001600160a01b0316908390612eba565b806001600160a01b031663af355d1e600d548686601260009054906101000a90046001600160a01b03166000886013546112f9919061466f565b6014546006546040516001600160e01b031960e08b901b1681526113409897969594939263ffffffff16916001600160a01b031690670de0b6b3a764000090600401614686565b6020604051808303816000875af192505050801561137b575060408051601f3d908101601f19168201909252611378918101906146f1565b60015b6113915761138883612d4e565b50505050611572565b6012546113a9906001600160a01b0316836000612f72565b5060408051610160810182526006546001600160a01b0390811682526000602083018190526012549091169282019290925260608101829052670de0b6b3a7640000608082015260a0810182905260145460c082019061140f9063ffffffff168861470a565b63ffffffff1681526020016000815260200184815260200184601354611435919061466f565b815260145463ffffffff90811660209092019190915260135460125492935061146c926001600160a01b0316913391309161308716565b601354601254611489916001600160a01b03909116908490612eba565b600d5460405163139c641960e31b81526001600160a01b03841691639ce320c8916114c1919089908990879033903090600401614732565b6020604051808303816000875af11580156114e0573d6000803e3d6000fd5b505050506040513d601f19601f8201168201806040525081019061150491906146f1565b50336001600160a01b03167f4c789f44a7398cb63bf580e03ad5a7ec8228ea4935d3c1a1135eb449f0bb301b8686604051611540929190614831565b60405180910390a2505060006002819055600381905560048190556005555050600680546001600160d01b0319169055505b61159161157d612e34565b6012546001600160a01b0316906000612f72565b61097161271f565b6000546001600160a01b03166115ae57600080fd5b60005460405163117c72b360e11b8152600481018390526001600160a01b03909116906322f8e56690602401600060405180830381600087803b15801561095757600080fd5b600080546001600160a01b03161561167b5760008054906101000a90046001600160a01b03166001600160a01b03166329cb924d6040518163ffffffff1660e01b8152600401602060405180830381865afa158015611657573d6000803e3d6000fd5b505050506040513d601f19601f82011682018060405250810190610e2a91906146f1565b504290565b6116886126b7565b611690612710565b6010546001600160a01b038281166000818152600f60205260409020546116bc93919290911690612a58565b6001600160a01b0381166000818152600f60205260408082205490519092917f74740239d7d696c84422b720e125e1f47c4138c66d1f4d2a48e99f4197cdb79c91a36001600160a01b0381166000908152600f6020526040812055610c3161271f565b6001546001600160a01b031633146117495760405162461bcd60e51b815260040161099d9061456a565b600654600160a81b900460ff16156117735760405162461bcd60e51b815260040161099d9061459f565b61177b6126b7565b611783612710565b600c546040516302abf57960e61b81527210dbdb1b185d195c985b15da1a5d195b1a5cdd606a1b60048201526000916001600160a01b03169063aafd5e4090602401602060405180830381865afa1580156117e2573d6000803e3d6000fd5b505050506040513d601f19601f8201168201806040525081019061180691906145d6565b604051631d1d5b3960e11b81526001600160a01b03858116600483015291925090821690633a3ab67290602401602060405180830381865afa158015611850573d6000803e3d6000fd5b505050506040513d601f19601f8201168201806040525081019061187491906145f3565b6118b35760405162461bcd60e51b815260206004820152601060248201526f139bdd081bdb881dda1a5d195b1a5cdd60821b604482015260640161099d565b601280546001600160a01b0319166001600160a01b0385161790556118d6612c66565b6118e09083614850565b60138190556040519081526001600160a01b038416907fbfa9a96010167e98ce8c004f718932cbbfd33a58d681c752e693be7d457a1b3b9060200160405180910390a25061192c61271f565b5050565b6119386126b7565b611940612710565b600654600160b01b900463ffffffff166119586115f4565b1161199b5760405162461bcd60e51b81526020600482015260136024820152724e6f7420706173736564206c6976656e65737360681b604482015260640161099d565b6005546080830151600160ff9091161b90811614156119ee5760405162461bcd60e51b815260206004820152600f60248201526e105b1c9958591e4818db185a5b5959608a1b604482015260640161099d565b6002546119fc9083836130bf565b611a345760405162461bcd60e51b81526020600482015260096024820152682130b210283937b7b360b91b604482015260640161099d565b81516000908152600960205260409020546001600160a01b0316611a915760405162461bcd60e51b815260206004820152601460248201527327379030b230b83a32b9103337b91031b430b4b760611b604482015260640161099d565b81516000908152600960205260409020600101546001600160a01b031680611afb5760405162461bcd60e51b815260206004820152601860248201527f556e696e697469616c697a65642073706f6b6520706f6f6c0000000000000000604482015260640161099d565b611b11600260030154846080015160ff166130fa565b60055560068054600160a81b900460ff16906015611b2e83614868565b91906101000a81548160ff021916908360ff16021790555050611b648184600001518560a001518660400151876020015161315d565b611b72818460000151613439565b600654600160a81b900460ff16611ba457600654601354601254611ba4926001600160a01b0391821692911690612a58565b336001600160a01b03168360000151846080015160ff167f269bcb1817facd431d586b474ce46fe1ca2921cd1a19314c01a606804ea8b9458660a00151876020015188604001518960600151604051611c0094939291906148f9565b60405180910390a45061192c61271f565b611c196126b7565b611c21612710565b6001600160a01b038216600090815260086020526040902054600160a01b900460ff16611c845760405162461bcd60e51b8152602060048201526011602482015270151bdad95b881b9bdd08195b98589b1959607a1b604482015260640161099d565b600a546001600160a01b038381169116148015611ca057508034145b80611ca9575034155b611ce55760405162461bcd60e51b815260206004820152600d60248201526c426164206d73672e76616c756560981b604482015260640161099d565b6000611cf0836128a5565b611d0283670de0b6b3a7640000614626565b611d0c919061465b565b6001600160a01b03848116600090815260086020526040908190205490516340c10f1960e01b81523360048201526024810184905292935016906340c10f19906044016020604051808303816000875af1158015611d6e573d6000803e3d6000fd5b505050506040513d601f19601f82011682018060405250810190611d9291906145f3565b506001600160a01b03831660009081526008602052604081206002018054849290611dbe908490614850565b9091555050600a546001600160a01b038481169116148015611de05750600034115b15611e3e57826001600160a01b031663d0e30db0346040518263ffffffff1660e01b81526004016000604051808303818588803b158015611e2057600080fd5b505af1158015611e34573d6000803e3d6000fd5b5050505050611e53565b611e536001600160a01b038416333085613087565b604080518381526020810183905233916001600160a01b038616917f3c69701a61c79a92ef9692903aaa0068bce8771361ecb09547391e4fb4df8537910160405180910390a35061192c61271f565b6001546001600160a01b03163314611ecc5760405162461bcd60e51b815260040161099d9061456a565b6109716000613542565b611ede6126b7565b611ee6612710565b600654600160a81b900460ff1615611f105760405162461bcd60e51b815260040161099d9061459f565b60008460ff1611611f635760405162461bcd60e51b815260206004820181905260248201527f42756e646c65206d7573742068617665206174206c656173742031206c656166604482015260640161099d565b60145460009063ffffffff16611f776115f4565b611f81919061470a565b60006005556006805460028790556003869055600485905560ff8816600160a81b0263ffffffff808516600160b01b0260ff60a81b19166001600160d01b031990931692909217176001600160a01b03191633908117909255601354601254939450611ffb936001600160a01b0316929130919061308716565b336001600160a01b031683857f50e585dd6361c7cb2613ce2334814bb2a789f5a8ad4b161fe0e248043737d1d284898b8860405161203c9493929190614946565b60405180910390a45061096b61271f565b60006120576126b7565b61205f612710565b61206a826000612734565b905061207461271f565b919050565b6120816126b7565b612089612710565b61209281613594565b610c3161271f565b606034156120ea5760405162461bcd60e51b815260206004820152601b60248201527f4f6e6c79206d756c746963616c6c207769746820302076616c75650000000000604482015260640161099d565b816001600160401b0381111561210257612102614064565b60405190808252806020026020018201604052801561213557816020015b60608152602001906001900390816121205790505b50905060005b8281101561223857600080308686858181106121595761215961497f565b905060200281019061216b9190614995565b6040516121799291906149e2565b600060405180830381855af49150503d80600081146121b4576040519150601f19603f3d011682016040523d82523d6000602084013e6121b9565b606091505b509150915081612205576044815110156121d257600080fd5b600481019050808060200190518101906121ec91906149f2565b60405162461bcd60e51b815260040161099d9190613f85565b808484815181106122185761221861497f565b60200260200101819052505050808061223090614a5f565b91505061213b565b5092915050565b600060076000612250868686612abb565b81526020810191909152604001600020546001600160a01b031690505b9392505050565b6001546001600160a01b0316331461229e5760405162461bcd60e51b815260040161099d9061456a565b6122a66126b7565b6122ae612710565b6001600160a01b038181166000908152600860205260409020541661236d57600b54604051637e178db760e11b81526001600160a01b0383811660048301529091169063fc2f1b6e906024016020604051808303816000875af1158015612319573d6000803e3d6000fd5b505050506040513d601f19601f8201168201806040525081019061233d91906145d6565b6001600160a01b03828116600090815260086020526040902080546001600160a01b031916929091169190911790555b6001600160a01b0381166000908152600860205260409020805460ff60a01b1916600160a01b17905561239e6115f4565b6001600160a01b0380831660009081526008602052604090819020805463ffffffff94909416600160a81b0263ffffffff60a81b198516811790915590517f04e291c80180d65a57b5bf1bed775777ec0d6f283ef34bcf130712714d8bb7f7936124249386938116911617906001600160a01b0392831681529116602082015260400190565b60405180910390a1610c3161271f565b6001546001600160a01b0316331461245e5760405162461bcd60e51b815260040161099d9061456a565b6102588163ffffffff16116124aa5760405162461bcd60e51b8152602060048201526012602482015271131a5d995b995cdcc81d1bdbc81cda1bdc9d60721b604482015260640161099d565b6014805463ffffffff191663ffffffff83169081179091556040519081527f04dd1d84d387f404568a7954b5e398518bdd716e1a8f4a790be9a1a225ad934790602001610eb6565b6001546001600160a01b0316331461251c5760405162461bcd60e51b815260040161099d9061456a565b6125246126b7565b61252c612710565b6125368282612afb565b61192c61271f565b60006125486126b7565b612550612710565b61206a826128a5565b6001546001600160a01b031633146125835760405162461bcd60e51b815260040161099d9061456a565b6040805180820182526001600160a01b03848116808352848216602080850182815260008a815260098352879020955186549086166001600160a01b031991821617875590516001909601805496909516951694909417909255835187815292830152918101919091527f36050d958750e6ac3aa674ac7bbe8d0ae6a2f7d4b808e8c2c42c1f22fc9fc4bb9060600160405180910390a1505050565b6001546001600160a01b031633146126495760405162461bcd60e51b815260040161099d9061456a565b6001600160a01b0381166126ae5760405162461bcd60e51b815260206004820152602660248201527f4f776e61626c653a206e6577206f776e657220697320746865207a65726f206160448201526564647265737360d01b606482015260840161099d565b610c3181613542565b600054600160a01b900460ff166109715760405162461bcd60e51b815260206004820152601f60248201527f5265656e7472616e637947756172643a207265656e7472616e742063616c6c00604482015260640161099d565b6000805460ff60a01b19169055565b6000805460ff60a01b1916600160a01b179055565b600061273f83613594565b6001600160a01b038381166000908152600860209081526040808320815160c08101835281549586168152600160a01b860460ff16151593810193909352600160a81b90940463ffffffff16908201526001830154606082018190526002840154608083015260039093015460a08201529181126127be5760006127c4565b81606001515b905060006127d28286614850565b905060008284608001516127e69190614850565b90508061280157670de0b6b3a7640000945050505050610c5a565b8061281483670de0b6b3a7640000614626565b61281e919061465b565b979650505050505050565b6060600061283785856136e3565b9050848161284485613725565b60405160200161285693929190614a7a565b6040516020818303038152906040529150509392505050565b6060600061287d85856136e3565b905084816128448561384d565b6060600061289885856136e3565b905084816128448561388e565b6001600160a01b038082166000908152600860209081526040808320805482516318160ddd60e01b8152925194959194869491909216926318160ddd92600480830193928290030181865afa158015612902573d6000803e3d6000fd5b505050506040513d601f19601f8201168201806040525081019061292691906146f1565b90508061293e5750670de0b6b3a76400009392505050565b612947826138e5565b61295084613594565b600082600301548360010154846002015461296b9190614abd565b6129759190614afe565b90508161298a82670de0b6b3a7640000614626565b612994919061465b565b95945050505050565b6001600160a01b0382163b156129c457600a5461192c906001600160a01b03168383612a58565b600a54604051632e1a7d4d60e01b8152600481018390526001600160a01b0390911690632e1a7d4d90602401600060405180830381600087803b158015612a0a57600080fd5b505af1158015612a1e573d6000803e3d6000fd5b50506040516001600160a01b038516925083156108fc02915083906000818181858888f1935050505015801561107e573d6000803e3d6000fd5b6040516001600160a01b03831660248201526044810182905261107e90849063a9059cbb60e01b906064015b60408051601f198184030181529190526020810180516001600160e01b03166001600160e01b03199093169290921790915261394d565b604080516020808201959095526001600160a01b039390931683820152606080840192909252805180840390920182526080909201909152805191012090565b6000828152600960205260409020546001600160a01b031680612b605760405162461bcd60e51b815260206004820152601760248201527f41646170746572206e6f7420696e697469616c697a6564000000000000000000604482015260640161099d565b6000838152600960205260408082206001015490516001600160a01b0380851692612b92929116908690602401614b3d565b60408051601f198184030181529181526020820180516001600160e01b0316637375c56f60e11b17905251612bc79190614b61565b600060405180830381855af49150503d8060008114612c02576040519150601f19603f3d011682016040523d82523d6000602084013e612c07565b606091505b5050905080612c285760405162461bcd60e51b815260040161099d90614b7d565b837f218987b934c2f6bc596136829fbf43a5fef4d6fafce41f3f6254d9a870c2deec84604051612c589190613f85565b60405180910390a250505050565b600c546040516302abf57960e61b81526453746f726560d81b60048201526000916001600160a01b03169063aafd5e4090602401602060405180830381865afa158015612cb7573d6000803e3d6000fd5b505050506040513d601f19601f82011682018060405250810190612cdb91906145d6565b601254604051635b97aadd60e01b81526001600160a01b039182166004820152911690635b97aadd90602401602060405180830381865afa158015612d24573d6000803e3d6000fd5b505050506040513d601f19601f82011682018060405250810190612d489190614baa565b51919050565b60125460065460135460405163a9059cbb60e01b81526001600160a01b039283166004820152602481019190915291169063a9059cbb906044016020604051808303816000875af1158015612da7573d6000803e3d6000fd5b505050506040513d601f19601f82011682018060405250810190612dcb91906145f3565b506000600281905560038190556004819055600555600680546001600160d01b0319169055337f1d2f9274429d71a4bfb9fe52ed39d766c4d0f7b072f0989cf7072229fbc63328612e1a6115f4565b83604051612e29929190614beb565b60405180910390a250565b600c546040516302abf57960e61b815275536b696e6e794f7074696d69737469634f7261636c6560501b60048201526000916001600160a01b03169063aafd5e4090602401602060405180830381865afa158015612e96573d6000803e3d6000fd5b505050506040513d601f19601f82011682018060405250810190610e2a91906145d6565b604051636eb1769f60e11b81523060048201526001600160a01b038381166024830152600091839186169063dd62ed3e90604401602060405180830381865afa158015612f0b573d6000803e3d6000fd5b505050506040513d601f19601f82011682018060405250810190612f2f91906146f1565b612f399190614850565b6040516001600160a01b038516602482015260448101829052909150612f6c90859063095ea7b360e01b90606401612a84565b50505050565b801580612fec5750604051636eb1769f60e11b81523060048201526001600160a01b03838116602483015284169063dd62ed3e90604401602060405180830381865afa158015612fc6573d6000803e3d6000fd5b505050506040513d601f19601f82011682018060405250810190612fea91906146f1565b155b6130575760405162461bcd60e51b815260206004820152603660248201527f5361666545524332303a20617070726f76652066726f6d206e6f6e2d7a65726f60448201527520746f206e6f6e2d7a65726f20616c6c6f77616e636560501b606482015260840161099d565b6040516001600160a01b03831660248201526044810182905261107e90849063095ea7b360e01b90606401612a84565b6040516001600160a01b0380851660248301528316604482015260648101829052612f6c9085906323b872dd60e01b90608401612a84565b60006130f28285856040516020016130d79190614c04565b60405160208183030381529060405280519060200120613a1f565b949350505050565b600060ff8211156131435760405162461bcd60e51b8152602060048201526013602482015272496e646578206f7574206f6620626f756e647360681b604482015260640161099d565b61314f61010083614c90565b6001901b8317905092915050565b6000848152600960205260408120546001600160a01b0316905b84518163ffffffff161015613430576000858263ffffffff16815181106131a0576131a061497f565b602002602001015190506000600760006131bb46858c612abb565b81526020810191909152604001600020546001600160a01b031690508061321c5760405162461bcd60e51b8152602060048201526015602482015274149bdd5d19481b9bdd081dda1a5d195b1a5cdd1959605a1b604482015260640161099d565b6000868463ffffffff16815181106132365761323661497f565b602002602001015113156133f2576000846001600160a01b03168383898763ffffffff168151811061326a5761326a61497f565b60209081029190910101516040516001600160a01b03938416602482015291831660448301526064820152908c16608482015260a40160408051601f198184030181529181526020820180516001600160e01b03166314b231d760e21b179052516132d59190614b61565b600060405180830381855af49150503d8060008114613310576040519150601f19603f3d011682016040523d82523d6000602084013e613315565b606091505b50509050806133365760405162461bcd60e51b815260040161099d90614b7d565b868463ffffffff168151811061334e5761334e61497f565b602002602001015160086000856001600160a01b03166001600160a01b03168152602001908152602001600020600101600082825461338d9190614abd565b92505081905550868463ffffffff16815181106133ac576133ac61497f565b602002602001015160086000856001600160a01b03166001600160a01b0316815260200190815260200160002060020160008282546133eb919061466f565b9091555050505b61341b82868563ffffffff168151811061340e5761340e61497f565b6020026020010151613a35565b5050808061342890614ca4565b915050613177565b50505050505050565b600081815260096020526040808220546003546004549251602481019190915260448101929092526001600160a01b031691908290859060640160408051601f198184030181529181526020820180516001600160e01b031663124e93e160e21b179052516134ac929190602401614b3d565b60408051601f198184030181529181526020820180516001600160e01b0316637375c56f60e11b179052516134e19190614b61565b600060405180830381855af49150503d806000811461351c576040519150601f19603f3d011682016040523d82523d6000602084013e613521565b606091505b5050905080612f6c5760405162461bcd60e51b815260040161099d90614b7d565b600180546001600160a01b038381166001600160a01b0319831681179093556040519116919082907f8be0079c531659141344cd1fd0a4f28419497f9722a3daafe3b4186f6b6457e090600090a35050565b6040516370a0823160e01b81523060048201526000906001600160a01b038316906370a0823190602401602060405180830381865afa1580156135db573d6000803e3d6000fd5b505050506040513d601f19601f820116820180604052508101906135ff91906146f1565b6012549091506000906001600160a01b03848116911614801561362d5750600654600160a81b900460ff1615155b6136375781613644565b601354613644908361466f565b6001600160a01b03841660009081526008602052604090206002015490915081111561107e576001600160a01b038316600090815260086020526040902060020154613690908261466f565b6001600160a01b038416600090815260086020526040812060010180549091906136bb908490614afe565b90915550506001600160a01b0383166000908152600860205260409020600201819055505050565b81516060901561371457816040516020016136fe9190614cc8565b6040516020818303038152906040529050610c5a565b816040516020016136fe9190614cfc565b6060816137495750506040805180820190915260018152600360fc1b602082015290565b8160005b8115613773578061375d81614a5f565b915061376c9050600a8361465b565b915061374d565b6000816001600160401b0381111561378d5761378d614064565b6040519080825280601f01601f1916602001820160405280156137b7576020820181803683370190505b509050815b8515613844576137cd60018261466f565b905060006137dc600a8861465b565b6137e790600a614626565b6137f1908861466f565b6137fc906030614d21565b905060008160f81b9050808484815181106138195761381961497f565b60200101906001600160f81b031916908160001a90535061383b600a8961465b565b975050506137bc565b50949350505050565b606061385c608083901c613b08565b61386583613b08565b6040805160208101939093528201526060015b6040516020818303038152906040529050919050565b60606138a66001600160801b03602084901c16613b08565b6138c18360601b6bffffffffffffffffffffffff1916613b08565b6040516020016138789291909182526001600160c01b031916602082015260280190565b6003810154815460009161390591600160a81b900463ffffffff16613ca1565b90508082600301600082825461391b919061466f565b9091555061392990506115f4565b825463ffffffff91909116600160a81b0263ffffffff60a81b199091161790915550565b60006139a2826040518060400160405280602081526020017f5361666545524332303a206c6f772d6c6576656c2063616c6c206661696c6564815250856001600160a01b0316613cf69092919063ffffffff16565b80519091501561107e57808060200190518101906139c091906145f3565b61107e5760405162461bcd60e51b815260206004820152602a60248201527f5361666545524332303a204552433230206f7065726174696f6e20646964206e6044820152691bdd081cdd58d8d9595960b21b606482015260840161099d565b600082613a2c8584613d05565b14949350505050565b6000670de0b6b3a764000060115483613a4e9190614626565b613a58919061465b565b90506000613a66828461466f565b90508015613acf576001600160a01b03841660009081526008602052604081206003018054839290613a99908490614850565b90915550506001600160a01b03841660009081526008602052604081206001018054839290613ac9908490614abd565b90915550505b8115612f6c576001600160a01b0384166000908152600f602052604081208054849290613afd908490614850565b909155505050505050565b6000808260001c9050806001600160801b03169050806801000000000000000002811777ffffffffffffffff0000000000000000ffffffffffffffff169050806401000000000281177bffffffff00000000ffffffff00000000ffffffff00000000ffffffff16905080620100000281177dffff0000ffff0000ffff0000ffff0000ffff0000ffff0000ffff0000ffff169050806101000281177eff00ff00ff00ff00ff00ff00ff00ff00ff00ff00ff00ff00ff00ff00ff00ff1690508060100281177f0f0f0f0f0f0f0f0f0f0f0f0f0f0f0f0f0f0f0f0f0f0f0f0f0f0f0f0f0f0f0f0f16905060006008827f08080808080808080808080808080808080808080808080808080808080808081681613c2357613c23614645565b0460047f040404040404040404040404040404040404040404040404040404040404040484160460027f020202020202020202020202020202020202020202020202020202020202020285160417166027029091017f3030303030303030303030303030303030303030303030303030303030303030019392505050565b60008082613cad6115f4565b613cb7919061466f565b90506000670de0b6b3a764000082600e5487613cd39190614626565b613cdd9190614626565b613ce7919061465b565b90508481106130f25784612994565b60606130f28484600085613d79565b600081815b8451811015613d71576000858281518110613d2757613d2761497f565b60200260200101519050808311613d4d5760008381526020829052604090209250613d5e565b600081815260208490526040902092505b5080613d6981614a5f565b915050613d0a565b509392505050565b606082471015613dda5760405162461bcd60e51b815260206004820152602660248201527f416464726573733a20696e73756666696369656e742062616c616e636520666f6044820152651c8818d85b1b60d21b606482015260840161099d565b6001600160a01b0385163b613e315760405162461bcd60e51b815260206004820152601d60248201527f416464726573733a2063616c6c20746f206e6f6e2d636f6e7472616374000000604482015260640161099d565b600080866001600160a01b03168587604051613e4d9190614b61565b60006040518083038185875af1925050503d8060008114613e8a576040519150601f19603f3d011682016040523d82523d6000602084013e613e8f565b606091505b509150915061281e82828660608315613ea957508161226d565b825115613eb95782518084602001fd5b8160405162461bcd60e51b815260040161099d9190613f85565b6001600160a01b0381168114610c3157600080fd5b60008060408385031215613efb57600080fd5b8235613f0681613ed3565b946020939093013593505050565b600060208284031215613f2657600080fd5b5035919050565b60005b83811015613f48578181015183820152602001613f30565b83811115612f6c5750506000910152565b60008151808452613f71816020860160208601613f2d565b601f01601f19169290920160200192915050565b60208152600061226d6020830184613f59565b600060208284031215613faa57600080fd5b813561226d81613ed3565b8015158114610c3157600080fd5b600080600060608486031215613fd857600080fd5b8335613fe381613ed3565b9250602084013591506040840135613ffa81613fb5565b809150509250925092565b600080600080600060a0868803121561401d57600080fd5b8535945060208601359350604086013561403681613ed3565b9250606086013561404681613ed3565b9150608086013561405681613fb5565b809150509295509295909350565b634e487b7160e01b600052604160045260246000fd5b60405160c081016001600160401b038111828210171561409c5761409c614064565b60405290565b604051601f8201601f191681016001600160401b03811182821017156140ca576140ca614064565b604052919050565b60006001600160401b038211156140eb576140eb614064565b5060051b60200190565b600082601f83011261410657600080fd5b8135602061411b614116836140d2565b6140a2565b82815260059290921b8401810191818101908684111561413a57600080fd5b8286015b84811015614155578035835291830191830161413e565b509695505050505050565b803560ff8116811461207457600080fd5b600082601f83011261418257600080fd5b81356020614192614116836140d2565b82815260059290921b840181019181810190868411156141b157600080fd5b8286015b848110156141555780356141c881613ed3565b83529183019183016141b5565b600080604083850312156141e857600080fd5b82356001600160401b03808211156141ff57600080fd5b9084019060c0828703121561421357600080fd5b61421b61407a565b8235815260208301358281111561423157600080fd5b61423d888286016140f5565b60208301525060408301358281111561425557600080fd5b614261888286016140f5565b60408301525060608301358281111561427957600080fd5b614285888286016140f5565b60608301525061429760808401614160565b608082015260a0830135828111156142ae57600080fd5b6142ba88828601614171565b60a083015250935060208501359150808211156142d657600080fd5b506142e3858286016140f5565b9150509250929050565b600080600080600060a0868803121561430557600080fd5b85356001600160401b0381111561431b57600080fd5b614327888289016140f5565b95505061433660208701614160565b94979496505050506040830135926060810135926080909101359150565b6000806020838503121561436757600080fd5b82356001600160401b038082111561437e57600080fd5b818501915085601f83011261439257600080fd5b8135818111156143a157600080fd5b8660208260051b85010111156143b657600080fd5b60209290920196919550909350505050565b6000602080830181845280855180835260408601915060408160051b870101925083870160005b8281101561441d57603f1988860301845261440b858351613f59565b945092850192908501906001016143ef565b5092979650505050505050565b60008060006060848603121561443f57600080fd5b83359250602084013561445181613ed3565b929592945050506040919091013590565b60006020828403121561447457600080fd5b813563ffffffff8116811461226d57600080fd5b60006001600160401b038211156144a1576144a1614064565b50601f01601f191660200190565b600080604083850312156144c257600080fd5b8235915060208301356001600160401b038111156144df57600080fd5b8301601f810185136144f057600080fd5b80356144fe61411682614488565b81815286602083850101111561451357600080fd5b816020840160208301376000602083830101528093505050509250929050565b60008060006060848603121561454857600080fd5b83359250602084013561455a81613ed3565b91506040840135613ffa81613ed3565b6020808252818101527f4f776e61626c653a2063616c6c6572206973206e6f7420746865206f776e6572604082015260600190565b6020808252601c908201527f70726f706f73616c2068617320756e636c61696d6564206c6561667300000000604082015260600190565b6000602082840312156145e857600080fd5b815161226d81613ed3565b60006020828403121561460557600080fd5b815161226d81613fb5565b634e487b7160e01b600052601160045260246000fd5b600081600019048311821515161561464057614640614610565b500290565b634e487b7160e01b600052601260045260246000fd5b60008261466a5761466a614645565b500490565b60008282101561468157614681614610565b500390565b60006101208b835263ffffffff808c1660208501528160408501526146ad8285018c613f59565b6001600160a01b039a8b166060860152608085019990995260a084019790975250509290931660c083015290931660e0840152610100909201919091529392505050565b60006020828403121561470357600080fd5b5051919050565b600063ffffffff80831681851680830382111561472957614729614610565b01949350505050565b600061020088835263ffffffff8816602084015280604084015261475881840188613f59565b9150506147716060830186516001600160a01b03169052565b60208501516001600160a01b03811660808401525060408501516001600160a01b03811660a084015250606085015180151560c084015250608085015160e083015260a0850151610100818185015260c08701519150610120828186015260e0880151925061014083818701528289015161016087015281890151610180870152808901516101a0870152505050506148166101c08301856001600160a01b03169052565b6001600160a01b0383166101e0830152979650505050505050565b63ffffffff831681526040602082015260006130f26040830184613f59565b6000821982111561486357614863614610565b500190565b600060ff82168061487b5761487b614610565b6000190192915050565b600081518084526020808501945080840160005b838110156148be5781516001600160a01b031687529582019590820190600101614899565b509495945050505050565b600081518084526020808501945080840160005b838110156148be578151875295820195908201906001016148dd565b60808152600061490c6080830187614885565b828103602084015261491e81876148c9565b9050828103604084015261493281866148c9565b9050828103606084015261281e81856148c9565b63ffffffff8516815260ff8416602082015260806040820152600061496e60808301856148c9565b905082606083015295945050505050565b634e487b7160e01b600052603260045260246000fd5b6000808335601e198436030181126149ac57600080fd5b8301803591506001600160401b038211156149c657600080fd5b6020019150368190038213156149db57600080fd5b9250929050565b8183823760009101908152919050565b600060208284031215614a0457600080fd5b81516001600160401b03811115614a1a57600080fd5b8201601f81018413614a2b57600080fd5b8051614a3961411682614488565b818152856020838501011115614a4e57600080fd5b612994826020830160208601613f2d565b6000600019821415614a7357614a73614610565b5060010190565b60008451614a8c818460208901613f2d565b845190830190614aa0818360208901613f2d565b8451910190614ab3818360208801613f2d565b0195945050505050565b600080821280156001600160ff1b0384900385131615614adf57614adf614610565b600160ff1b8390038412811615614af857614af8614610565b50500190565b60008083128015600160ff1b850184121615614b1c57614b1c614610565b6001600160ff1b0384018313811615614b3757614b37614610565b50500390565b6001600160a01b03831681526040602082018190526000906130f290830184613f59565b60008251614b73818460208701613f2d565b9190910192915050565b60208082526013908201527219195b1959d85d1958d85b1b0819985a5b1959606a1b604082015260600190565b600060208284031215614bbc57600080fd5b604051602081018181106001600160401b0382111715614bde57614bde614064565b6040529151825250919050565b8281526040602082015260006130f26040830184613f59565b60208152815160208201526000602083015160c06040840152614c2a60e08401826148c9565b90506040840151601f1980858403016060860152614c4883836148c9565b92506060860151915080858403016080860152614c6583836148c9565b925060ff60808701511660a086015260a08601519150808584030160c0860152506129948282614885565b600082614c9f57614c9f614645565b500690565b600063ffffffff80831681811415614cbe57614cbe614610565b6001019392505050565b600b60fa1b815260008251614ce4816001850160208701613f2d565b601d60f91b6001939091019283015250600201919050565b60008251614d0e818460208701613f2d565b601d60f91b920191825250600101919050565b600060ff821660ff84168060ff03821115614d3e57614d3e614610565b01939250505056fea264697066735822122018ecb84138bf41ed94efe9330099bad847451a1bfec9eb53b69b8aa07c44740c64736f6c634300080b0033",
  "libraries": {
    "MerkleLib": "0xE87623020f4179aEcb973042488905FE748eb9b5"
  }
}