{
  "address": "0x3933Ad92aB507fb3CeeFCF15de04A330Ac9cCd37",
  "abi": [
    {
      "inputs": [
        {
          "internalType": "contract LpTokenFactoryInterface",
          "name": "_lpTokenFactory",
          "type": "address"
        },
        {
          "internalType": "contract FinderInterface",
          "name": "_finder",
          "type": "address"
        },
        {
          "internalType": "contract WETH9",
          "name": "_weth",
          "type": "address"
        },
        {
          "internalType": "address",
          "name": "_timer",
          "type": "address"
        }
      ],
      "stateMutability": "nonpayable",
      "type": "constructor"
    },
    {
      "anonymous": false,
      "inputs": [
        {
          "indexed": true,
          "internalType": "address",
          "name": "newBondToken",
          "type": "address"
        },
        {
          "indexed": false,
          "internalType": "uint256",
          "name": "newBondAmount",
          "type": "uint256"
        }
      ],
      "name": "BondSet",
      "type": "event"
    },
    {
      "anonymous": false,
      "inputs": [
        {
          "indexed": false,
          "internalType": "uint256",
          "name": "l2ChainId",
          "type": "uint256"
        },
        {
          "indexed": false,
          "internalType": "address",
          "name": "adapter",
          "type": "address"
        },
        {
          "indexed": false,
          "internalType": "address",
          "name": "spokePool",
          "type": "address"
        }
      ],
      "name": "CrossChainContractsSet",
      "type": "event"
    },
    {
      "anonymous": false,
      "inputs": [
        {
          "indexed": false,
          "internalType": "bytes32",
          "name": "newIdentifier",
          "type": "bytes32"
        }
      ],
      "name": "IdentifierSet",
      "type": "event"
    },
    {
      "anonymous": false,
      "inputs": [
        {
          "indexed": false,
          "internalType": "uint256[]",
          "name": "bundleEvaluationBlockNumbers",
          "type": "uint256[]"
        },
        {
          "indexed": false,
          "internalType": "uint32",
          "name": "requestExpirationTimestamp",
          "type": "uint32"
        },
        {
          "indexed": false,
          "internalType": "uint8",
          "name": "unclaimedPoolRebalanceLeafCount",
          "type": "uint8"
        },
        {
          "indexed": true,
          "internalType": "bytes32",
          "name": "poolRebalanceRoot",
          "type": "bytes32"
        },
        {
          "indexed": true,
          "internalType": "bytes32",
          "name": "destinationDistributionRoot",
          "type": "bytes32"
        },
        {
          "indexed": false,
          "internalType": "bytes32",
          "name": "slowRelayFulfillmentRoot",
          "type": "bytes32"
        },
        {
          "indexed": true,
          "internalType": "address",
          "name": "proposer",
          "type": "address"
        }
      ],
      "name": "InitiateRefundRequested",
      "type": "event"
    },
    {
      "anonymous": false,
      "inputs": [
        {
          "indexed": false,
          "internalType": "address",
          "name": "l1Token",
          "type": "address"
        },
        {
          "indexed": false,
          "internalType": "address",
          "name": "lpToken",
          "type": "address"
        }
      ],
      "name": "L1TokenEnabledForLiquidityProvision",
      "type": "event"
    },
    {
      "anonymous": false,
      "inputs": [
        {
          "indexed": false,
          "internalType": "address",
          "name": "l1Token",
          "type": "address"
        },
        {
          "indexed": false,
          "internalType": "address",
          "name": "lpToken",
          "type": "address"
        }
      ],
      "name": "L2TokenDisabledForLiquidityProvision",
      "type": "event"
    },
    {
      "anonymous": false,
      "inputs": [
        {
          "indexed": true,
          "internalType": "address",
          "name": "l1Token",
          "type": "address"
        },
        {
          "indexed": false,
          "internalType": "uint256",
          "name": "amount",
          "type": "uint256"
        },
        {
          "indexed": false,
          "internalType": "uint256",
          "name": "lpTokensMinted",
          "type": "uint256"
        },
        {
          "indexed": true,
          "internalType": "address",
          "name": "liquidityProvider",
          "type": "address"
        }
      ],
      "name": "LiquidityAdded",
      "type": "event"
    },
    {
      "anonymous": false,
      "inputs": [
        {
          "indexed": true,
          "internalType": "address",
          "name": "l1Token",
          "type": "address"
        },
        {
          "indexed": false,
          "internalType": "uint256",
          "name": "amount",
          "type": "uint256"
        },
        {
          "indexed": false,
          "internalType": "uint256",
          "name": "lpTokensBurnt",
          "type": "uint256"
        },
        {
          "indexed": true,
          "internalType": "address",
          "name": "liquidityProvider",
          "type": "address"
        }
      ],
      "name": "LiquidityRemoved",
      "type": "event"
    },
    {
      "anonymous": false,
      "inputs": [
        {
          "indexed": true,
          "internalType": "address",
          "name": "previousOwner",
          "type": "address"
        },
        {
          "indexed": true,
          "internalType": "address",
          "name": "newOwner",
          "type": "address"
        }
      ],
      "name": "OwnershipTransferred",
      "type": "event"
    },
    {
      "anonymous": false,
      "inputs": [
        {
          "indexed": true,
          "internalType": "address",
          "name": "newProtocolFeeCaptureAddress",
          "type": "address"
        },
        {
          "indexed": true,
          "internalType": "uint64",
          "name": "newProtocolFeeCapturePct",
          "type": "uint64"
        }
      ],
      "name": "ProtocolFeeCaptureSet",
      "type": "event"
    },
    {
      "anonymous": false,
      "inputs": [
        {
          "indexed": true,
          "internalType": "address",
          "name": "l1Token",
          "type": "address"
        },
        {
          "indexed": true,
          "internalType": "uint256",
          "name": "accumulatedFees",
          "type": "uint256"
        }
      ],
      "name": "ProtocolFeesCapturedClaimed",
      "type": "event"
    },
    {
      "anonymous": false,
      "inputs": [
        {
          "indexed": false,
          "internalType": "uint32",
          "name": "newRefundProposalLiveness",
          "type": "uint32"
        }
      ],
      "name": "RefundProposalLivenessSet",
      "type": "event"
    },
    {
      "anonymous": false,
      "inputs": [
        {
          "indexed": true,
          "internalType": "address",
          "name": "disputer",
          "type": "address"
        },
        {
          "indexed": false,
          "internalType": "uint32",
          "name": "requestTime",
          "type": "uint32"
        },
        {
          "indexed": false,
          "internalType": "bytes",
          "name": "disputedAncillaryData",
          "type": "bytes"
        }
      ],
      "name": "RelayerRefundDisputed",
      "type": "event"
    },
    {
      "anonymous": false,
      "inputs": [
        {
          "indexed": true,
          "internalType": "uint256",
          "name": "chainId",
          "type": "uint256"
        },
        {
          "indexed": false,
          "internalType": "uint256[]",
          "name": "bundleLpFees",
          "type": "uint256[]"
        },
        {
          "indexed": false,
          "internalType": "int256[]",
          "name": "netSendAmount",
          "type": "int256[]"
        },
        {
          "indexed": false,
          "internalType": "int256[]",
          "name": "runningBalance",
          "type": "int256[]"
        },
        {
          "indexed": true,
          "internalType": "uint32",
          "name": "leafId",
          "type": "uint32"
        },
        {
          "indexed": false,
          "internalType": "address[]",
          "name": "l1Token",
          "type": "address[]"
        },
        {
          "indexed": true,
          "internalType": "address",
          "name": "caller",
          "type": "address"
        }
      ],
      "name": "RelayerRefundExecuted",
      "type": "event"
    },
    {
      "anonymous": false,
      "inputs": [
        {
          "indexed": true,
          "internalType": "uint256",
          "name": "chainId",
          "type": "uint256"
        },
        {
          "indexed": false,
          "internalType": "bytes",
          "name": "message",
          "type": "bytes"
        }
      ],
      "name": "SpokePoolAdminFunctionTriggered",
      "type": "event"
    },
    {
      "anonymous": false,
      "inputs": [
        {
          "indexed": false,
          "internalType": "uint256",
          "name": "destinationChainId",
          "type": "uint256"
        },
        {
          "indexed": false,
          "internalType": "address",
          "name": "originToken",
          "type": "address"
        },
        {
          "indexed": false,
          "internalType": "address",
          "name": "destinationToken",
          "type": "address"
        }
      ],
      "name": "WhitelistRoute",
      "type": "event"
    },
    {
      "stateMutability": "payable",
      "type": "fallback"
    },
    {
      "inputs": [],
      "name": "_getRefundProposalAncillaryData",
      "outputs": [
        {
          "internalType": "bytes",
          "name": "ancillaryData",
          "type": "bytes"
        }
      ],
      "stateMutability": "view",
      "type": "function"
    },
    {
      "inputs": [
        {
          "internalType": "address",
          "name": "l1Token",
          "type": "address"
        },
        {
          "internalType": "uint256",
          "name": "l1TokenAmount",
          "type": "uint256"
        }
      ],
      "name": "addLiquidity",
      "outputs": [],
      "stateMutability": "payable",
      "type": "function"
    },
    {
      "inputs": [],
      "name": "bondAmount",
      "outputs": [
        {
          "internalType": "uint256",
          "name": "",
          "type": "uint256"
        }
      ],
      "stateMutability": "view",
      "type": "function"
    },
    {
      "inputs": [],
      "name": "bondToken",
      "outputs": [
        {
          "internalType": "contract IERC20",
          "name": "",
          "type": "address"
        }
      ],
      "stateMutability": "view",
      "type": "function"
    },
    {
      "inputs": [
        {
          "internalType": "address",
          "name": "l1Token",
          "type": "address"
        }
      ],
      "name": "claimProtocolFeesCaptured",
      "outputs": [],
      "stateMutability": "nonpayable",
      "type": "function"
    },
    {
      "inputs": [
        {
          "internalType": "uint256",
          "name": "",
          "type": "uint256"
        }
      ],
      "name": "crossChainContracts",
      "outputs": [
        {
          "internalType": "contract AdapterInterface",
          "name": "adapter",
          "type": "address"
        },
        {
          "internalType": "address",
          "name": "spokePool",
          "type": "address"
        }
      ],
      "stateMutability": "view",
      "type": "function"
    },
    {
      "inputs": [],
      "name": "depositEthToWeth",
      "outputs": [],
      "stateMutability": "payable",
      "type": "function"
    },
    {
      "inputs": [
        {
          "internalType": "address",
          "name": "l1Token",
          "type": "address"
        }
      ],
      "name": "disableL1TokenForLiquidityProvision",
      "outputs": [],
      "stateMutability": "nonpayable",
      "type": "function"
    },
    {
      "inputs": [],
      "name": "disputeRelayerRefund",
      "outputs": [],
      "stateMutability": "nonpayable",
      "type": "function"
    },
    {
      "inputs": [
        {
          "internalType": "address",
          "name": "l1Token",
          "type": "address"
        }
      ],
      "name": "enableL1TokenForLiquidityProvision",
      "outputs": [],
      "stateMutability": "nonpayable",
      "type": "function"
    },
    {
      "inputs": [
        {
          "internalType": "address",
          "name": "l1Token",
          "type": "address"
        }
      ],
      "name": "exchangeRateCurrent",
      "outputs": [
        {
          "internalType": "uint256",
          "name": "",
          "type": "uint256"
        }
      ],
      "stateMutability": "nonpayable",
      "type": "function"
    },
    {
      "inputs": [
        {
          "components": [
            {
              "internalType": "uint256",
              "name": "chainId",
              "type": "uint256"
            },
            {
              "internalType": "uint256[]",
              "name": "bundleLpFees",
              "type": "uint256[]"
            },
            {
              "internalType": "int256[]",
              "name": "netSendAmounts",
              "type": "int256[]"
            },
            {
              "internalType": "int256[]",
              "name": "runningBalances",
              "type": "int256[]"
            },
            {
              "internalType": "uint8",
              "name": "leafId",
              "type": "uint8"
            },
            {
              "internalType": "address[]",
              "name": "l1Tokens",
              "type": "address[]"
            }
          ],
          "internalType": "struct HubPoolInterface.PoolRebalanceLeaf",
          "name": "poolRebalanceLeaf",
          "type": "tuple"
        },
        {
          "internalType": "bytes32[]",
          "name": "proof",
          "type": "bytes32[]"
        }
      ],
      "name": "executeRelayerRefund",
      "outputs": [],
      "stateMutability": "nonpayable",
      "type": "function"
    },
    {
      "inputs": [],
      "name": "finder",
      "outputs": [
        {
          "internalType": "contract FinderInterface",
          "name": "",
          "type": "address"
        }
      ],
      "stateMutability": "view",
      "type": "function"
    },
    {
      "inputs": [],
      "name": "getCurrentTime",
      "outputs": [
        {
          "internalType": "uint256",
          "name": "",
          "type": "uint256"
        }
      ],
      "stateMutability": "view",
      "type": "function"
    },
    {
      "inputs": [],
      "name": "identifier",
      "outputs": [
        {
          "internalType": "bytes32",
          "name": "",
          "type": "bytes32"
        }
      ],
      "stateMutability": "view",
      "type": "function"
    },
    {
      "inputs": [
        {
          "internalType": "uint256[]",
          "name": "bundleEvaluationBlockNumbers",
          "type": "uint256[]"
        },
        {
          "internalType": "uint8",
          "name": "poolRebalanceLeafCount",
          "type": "uint8"
        },
        {
          "internalType": "bytes32",
          "name": "poolRebalanceRoot",
          "type": "bytes32"
        },
        {
          "internalType": "bytes32",
          "name": "destinationDistributionRoot",
          "type": "bytes32"
        },
        {
          "internalType": "bytes32",
          "name": "slowRelayFulfillmentRoot",
          "type": "bytes32"
        }
      ],
      "name": "initiateRelayerRefund",
      "outputs": [],
      "stateMutability": "nonpayable",
      "type": "function"
    },
    {
      "inputs": [
        {
          "internalType": "address",
          "name": "l1Token",
          "type": "address"
        }
      ],
      "name": "liquidityUtilizationCurrent",
      "outputs": [
        {
          "internalType": "uint256",
          "name": "",
          "type": "uint256"
        }
      ],
      "stateMutability": "nonpayable",
      "type": "function"
    },
    {
      "inputs": [
        {
          "internalType": "address",
          "name": "l1Token",
          "type": "address"
        },
        {
          "internalType": "uint256",
          "name": "relayedAmount",
          "type": "uint256"
        }
      ],
      "name": "liquidityUtilizationPostRelay",
      "outputs": [
        {
          "internalType": "uint256",
          "name": "",
          "type": "uint256"
        }
      ],
      "stateMutability": "nonpayable",
      "type": "function"
    },
    {
      "inputs": [],
      "name": "lpFeeRatePerSecond",
      "outputs": [
        {
          "internalType": "uint64",
          "name": "",
          "type": "uint64"
        }
      ],
      "stateMutability": "view",
      "type": "function"
    },
    {
      "inputs": [],
      "name": "lpTokenFactory",
      "outputs": [
        {
          "internalType": "contract LpTokenFactoryInterface",
          "name": "",
          "type": "address"
        }
      ],
      "stateMutability": "view",
      "type": "function"
    },
    {
      "inputs": [
        {
          "internalType": "bytes[]",
          "name": "data",
          "type": "bytes[]"
        }
      ],
      "name": "multicall",
      "outputs": [
        {
          "internalType": "bytes[]",
          "name": "results",
          "type": "bytes[]"
        }
      ],
      "stateMutability": "payable",
      "type": "function"
    },
    {
      "inputs": [],
      "name": "owner",
      "outputs": [
        {
          "internalType": "address",
          "name": "",
          "type": "address"
        }
      ],
      "stateMutability": "view",
      "type": "function"
    },
    {
      "inputs": [
        {
          "internalType": "address",
          "name": "",
          "type": "address"
        }
      ],
      "name": "pooledTokens",
      "outputs": [
        {
          "internalType": "int256",
          "name": "utilizedReserves",
          "type": "int256"
        },
        {
          "internalType": "uint256",
          "name": "liquidReserves",
          "type": "uint256"
        },
        {
          "internalType": "uint256",
          "name": "undistributedLpFees",
          "type": "uint256"
        },
        {
          "internalType": "uint32",
          "name": "lastLpFeeUpdate",
          "type": "uint32"
        },
        {
          "internalType": "address",
          "name": "lpToken",
          "type": "address"
        },
        {
          "internalType": "bool",
          "name": "isEnabled",
          "type": "bool"
        }
      ],
      "stateMutability": "view",
      "type": "function"
    },
    {
      "inputs": [],
      "name": "protocolFeeCaptureAddress",
      "outputs": [
        {
          "internalType": "address",
          "name": "",
          "type": "address"
        }
      ],
      "stateMutability": "view",
      "type": "function"
    },
    {
      "inputs": [],
      "name": "protocolFeeCapturePct",
      "outputs": [
        {
          "internalType": "uint64",
          "name": "",
          "type": "uint64"
        }
      ],
      "stateMutability": "view",
      "type": "function"
    },
    {
      "inputs": [],
      "name": "refundProposalLiveness",
      "outputs": [
        {
          "internalType": "uint32",
          "name": "",
          "type": "uint32"
        }
      ],
      "stateMutability": "view",
      "type": "function"
    },
    {
      "inputs": [],
      "name": "refundRequest",
      "outputs": [
        {
          "internalType": "uint256",
          "name": "claimedBitMap",
          "type": "uint256"
        },
        {
          "internalType": "uint32",
          "name": "requestExpirationTimestamp",
          "type": "uint32"
        },
        {
          "internalType": "bytes32",
          "name": "poolRebalanceRoot",
          "type": "bytes32"
        },
        {
          "internalType": "bytes32",
          "name": "destinationDistributionRoot",
          "type": "bytes32"
        },
        {
          "internalType": "bytes32",
          "name": "slowRelayFulfillmentRoot",
          "type": "bytes32"
        },
        {
          "internalType": "address",
          "name": "proposer",
          "type": "address"
        },
        {
          "internalType": "bool",
          "name": "proposerBondRepaid",
          "type": "bool"
        },
        {
          "internalType": "uint8",
          "name": "unclaimedPoolRebalanceLeafCount",
          "type": "uint8"
        }
      ],
      "stateMutability": "view",
      "type": "function"
    },
    {
      "inputs": [
        {
          "internalType": "uint256",
          "name": "chainId",
          "type": "uint256"
        },
        {
          "internalType": "bytes",
          "name": "functionData",
          "type": "bytes"
        }
      ],
      "name": "relaySpokePoolAdminFunction",
      "outputs": [],
      "stateMutability": "nonpayable",
      "type": "function"
    },
    {
      "inputs": [
        {
          "internalType": "address",
          "name": "l1Token",
          "type": "address"
        },
        {
          "internalType": "uint256",
          "name": "lpTokenAmount",
          "type": "uint256"
        },
        {
          "internalType": "bool",
          "name": "sendEth",
          "type": "bool"
        }
      ],
      "name": "removeLiquidity",
      "outputs": [],
      "stateMutability": "nonpayable",
      "type": "function"
    },
    {
      "inputs": [],
      "name": "renounceOwnership",
      "outputs": [],
      "stateMutability": "nonpayable",
      "type": "function"
    },
    {
      "inputs": [
        {
          "internalType": "contract IERC20",
          "name": "newBondToken",
          "type": "address"
        },
        {
          "internalType": "uint256",
          "name": "newBondAmount",
          "type": "uint256"
        }
      ],
      "name": "setBond",
      "outputs": [],
      "stateMutability": "nonpayable",
      "type": "function"
    },
    {
      "inputs": [
        {
          "internalType": "uint256",
          "name": "l2ChainId",
          "type": "uint256"
        },
        {
          "internalType": "address",
          "name": "adapter",
          "type": "address"
        },
        {
          "internalType": "address",
          "name": "spokePool",
          "type": "address"
        }
      ],
      "name": "setCrossChainContracts",
      "outputs": [],
      "stateMutability": "nonpayable",
      "type": "function"
    },
    {
      "inputs": [
        {
          "internalType": "uint256",
          "name": "time",
          "type": "uint256"
        }
      ],
      "name": "setCurrentTime",
      "outputs": [],
      "stateMutability": "nonpayable",
      "type": "function"
    },
    {
      "inputs": [
        {
          "internalType": "bytes32",
          "name": "newIdentifier",
          "type": "bytes32"
        }
      ],
      "name": "setIdentifier",
      "outputs": [],
      "stateMutability": "nonpayable",
      "type": "function"
    },
    {
      "inputs": [
        {
          "internalType": "address",
          "name": "newProtocolFeeCaptureAddress",
          "type": "address"
        },
        {
          "internalType": "uint64",
          "name": "newProtocolFeeCapturePct",
          "type": "uint64"
        }
      ],
      "name": "setProtocolFeeCapture",
      "outputs": [],
      "stateMutability": "nonpayable",
      "type": "function"
    },
    {
      "inputs": [
        {
          "internalType": "uint32",
          "name": "newRefundProposalLiveness",
          "type": "uint32"
        }
      ],
      "name": "setRefundProposalLiveness",
      "outputs": [],
      "stateMutability": "nonpayable",
      "type": "function"
    },
    {
      "inputs": [
        {
          "internalType": "address",
          "name": "l1Token",
          "type": "address"
        }
      ],
      "name": "sync",
      "outputs": [],
      "stateMutability": "nonpayable",
      "type": "function"
    },
    {
      "inputs": [],
      "name": "timerAddress",
      "outputs": [
        {
          "internalType": "address",
          "name": "",
          "type": "address"
        }
      ],
      "stateMutability": "view",
      "type": "function"
    },
    {
      "inputs": [
        {
          "internalType": "address",
          "name": "newOwner",
          "type": "address"
        }
      ],
      "name": "transferOwnership",
      "outputs": [],
      "stateMutability": "nonpayable",
      "type": "function"
    },
    {
      "inputs": [
        {
          "internalType": "address",
          "name": "",
          "type": "address"
        }
      ],
      "name": "unclaimedAccumulatedProtocolFees",
      "outputs": [
        {
          "internalType": "uint256",
          "name": "",
          "type": "uint256"
        }
      ],
      "stateMutability": "view",
      "type": "function"
    },
    {
      "inputs": [],
      "name": "weth",
      "outputs": [
        {
          "internalType": "contract WETH9",
          "name": "",
          "type": "address"
        }
      ],
      "stateMutability": "view",
      "type": "function"
    },
    {
      "inputs": [
        {
          "internalType": "uint256",
          "name": "destinationChainId",
          "type": "uint256"
        },
        {
          "internalType": "address",
          "name": "originToken",
          "type": "address"
        },
        {
          "internalType": "address",
          "name": "destinationToken",
          "type": "address"
        }
      ],
      "name": "whitelistRoute",
      "outputs": [],
      "stateMutability": "nonpayable",
      "type": "function"
    },
    {
      "inputs": [
        {
          "internalType": "address",
          "name": "",
          "type": "address"
        },
        {
          "internalType": "uint256",
          "name": "",
          "type": "uint256"
        }
      ],
      "name": "whitelistedRoutes",
      "outputs": [
        {
          "internalType": "address",
          "name": "",
          "type": "address"
        }
      ],
      "stateMutability": "view",
      "type": "function"
    },
    {
      "stateMutability": "payable",
      "type": "receive"
    }
  ],
  "transactionHash": "0x48980cd45ef513414795f34c5026477198d1bfb2e780752d65ed888f4a2f03fa",
  "args": [
    "0x9923dE191259995718f30A2420aA13ED916148B1",
    "0xeD0169a88d267063184b0853BaAAAe66c3c154B2",
    "0xd0A1E359811322d97991E03f863a0C30C2cF029C",
    "0x0000000000000000000000000000000000000000"
  ],
  "numDeployments": 1,
  "solcInputHash": "c64c39e6345ffebca663bf17e7fa28c7",
  "bytecode": "0x60806040527f49535f4143524f53535f56325f42554e444c455f56414c494400000000000000600855600a80546001600160601b03191669015d3ef7980000001c201790553480156200005157600080fd5b506040516200493738038062004937833981016040819052620000749162000167565b600080546001600160a81b0319166001600160a01b03831617600160a01b179055620000a7620000a13390565b620000fc565b50601080546001600160a01b03199081166001600160a01b039586161790915560118054821693851693909317909255600f8054831691841691909117905560015460128054919093169116179055620001cf565b600180546001600160a01b038381166001600160a01b0319831681179093556040519116919082907f8be0079c531659141344cd1fd0a4f28419497f9722a3daafe3b4186f6b6457e090600090a35050565b6001600160a01b03811681146200016457600080fd5b50565b600080600080608085870312156200017e57600080fd5b84516200018b816200014e565b60208601519094506200019e816200014e565b6040860151909350620001b1816200014e565b6060860151909250620001c4816200014e565b939692955090935050565b61475880620001df6000396000f3fe60806040526004361061025f5760003560e01c8063715018a611610144578063bb9219a2116100b6578063dd70e5e81161007a578063dd70e5e8146107f7578063e0f339e314610817578063e40064d714610837578063e460e35c14610864578063f0056a7d14610884578063f2fde38b146109275761026e565b8063bb9219a2146106a6578063c034c320146106e7578063c1a15f1214610719578063c28f439214610739578063cd034234146107595761026e565b80638da5cb5b116101085780638da5cb5b146105e8578063a16fd6e914610606578063a584119414610626578063ac9650d814610646578063b60c2d7d14610666578063b9a3c84c146106865761026e565b8063715018a61461056557806376ec08dd1461057a5780637998a1c41461059a5780637cafec5d146105b057806380f323a7146105d25761026e565b806329cb924d116101dd57806351e1984b116101a157806351e1984b146104dd578063552188a71461026e57806355ecce40146104fd578063566887001461051d57806362548f43146105305780636564cd94146105505761026e565b806329cb924d146104415780632d0f6f841461045657806333dc09ca146104765780633fc8cef3146104965780634f7473ff146104b65761026e565b80630ee28a88116102245780630ee28a881461036a57806311cfc1591461038a5780631c39c38d146103c957806322f8e56614610401578063240f475f146104215761026e565b8062c9920614610276578063084d05131461029657806309474ae2146102c95780630a7f23051461032a5780630c501af91461034a5761026e565b3661026e5761026c610947565b005b61026c610947565b34801561028257600080fd5b5061026c6102913660046138d2565b6109c5565b3480156102a257600080fd5b506102b66102b1366004613900565b610a34565b6040519081526020015b60405180910390f35b3480156102d557600080fd5b5061030a6102e43660046138d2565b600d60205260009081526040902080546001909101546001600160a01b03918216911682565b604080516001600160a01b039384168152929091166020830152016102c0565b34801561033657600080fd5b5061026c610345366004613a39565b610a60565b34801561035657600080fd5b5061026c610365366004613aa0565b610bd7565b34801561037657600080fd5b5061026c610385366004613acb565b610c6c565b34801561039657600080fd5b50600a546103b190600160201b90046001600160401b031681565b6040516001600160401b0390911681526020016102c0565b3480156103d557600080fd5b506000546103e9906001600160a01b031681565b6040516001600160a01b0390911681526020016102c0565b34801561040d57600080fd5b5061026c61041c3660046138d2565b610e38565b34801561042d57600080fd5b506012546103e9906001600160a01b031681565b34801561044d57600080fd5b506102b6610e93565b34801561046257600080fd5b5061026c610471366004613aa0565b610f24565b34801561048257600080fd5b5061026c610491366004613900565b610fc6565b3480156104a257600080fd5b50600f546103e9906001600160a01b031681565b3480156104c257600080fd5b50600a546103b190600160601b90046001600160401b031681565b3480156104e957600080fd5b5061026c6104f8366004613b0d565b611074565b34801561050957600080fd5b5061026c610518366004613b52565b611178565b61026c61052b366004613900565b6111ea565b34801561053c57600080fd5b5061026c61054b366004613b78565b611474565b34801561055c57600080fd5b5061026c61157d565b34801561057157600080fd5b5061026c6118b3565b34801561058657600080fd5b506010546103e9906001600160a01b031681565b3480156105a657600080fd5b506102b660085481565b3480156105bc57600080fd5b506105c56118e7565b6040516102c09190613c07565b3480156105de57600080fd5b506102b660095481565b3480156105f457600080fd5b506001546001600160a01b03166103e9565b34801561061257600080fd5b506102b6610621366004613aa0565b611a7f565b34801561063257600080fd5b5061026c610641366004613aa0565b611aab565b610659610654366004613c1a565b611acc565b6040516102c09190613c8e565b34801561067257600080fd5b5061026c610681366004613aa0565b611c71565b34801561069257600080fd5b506011546103e9906001600160a01b031681565b3480156106b257600080fd5b506103e96106c1366004613900565b600b6020908152600092835260408084209091529082529020546001600160a01b031681565b3480156106f357600080fd5b50600a546107049063ffffffff1681565b60405163ffffffff90911681526020016102c0565b34801561072557600080fd5b5061026c610734366004613d54565b611e1e565b34801561074557600080fd5b506013546103e9906001600160a01b031681565b34801561076557600080fd5b506002546003546004546005546006546007546107a9959463ffffffff16939291906001600160a01b0381169060ff600160a01b8204811691600160a81b90041688565b6040805198895263ffffffff909716602089015295870194909452606086019290925260808501526001600160a01b031660a0840152151560c083015260ff1660e0820152610100016102c0565b34801561080357600080fd5b5061026c610812366004613e93565b61218b565b34801561082357600080fd5b506102b6610832366004613aa0565b6121d7565b34801561084357600080fd5b506102b6610852366004613aa0565b600e6020526000908152604090205481565b34801561087057600080fd5b5061026c61087f366004613b78565b6121f2565b34801561089057600080fd5b506108e961089f366004613aa0565b600c6020526000908152604090208054600182015460028301546003909301549192909163ffffffff811690600160201b81046001600160a01b031690600160c01b900460ff1686565b6040805196875260208701959095529385019290925263ffffffff1660608401526001600160a01b03166080830152151560a082015260c0016102c0565b34801561093357600080fd5b5061026c610942366004613aa0565b612336565b600054600160a01b900460ff16156109c357600f60009054906101000a90046001600160a01b03166001600160a01b031663d0e30db0476040518263ffffffff1660e01b81526004016000604051808303818588803b1580156109a957600080fd5b505af11580156109bd573d6000803e3d6000fd5b50505050505b565b6001546001600160a01b031633146109f85760405162461bcd60e51b81526004016109ef90613f17565b60405180910390fd5b60088190556040518181527ff45367c278fcceff23d601ce4bdd191e5bd61687ff9f29dc7276a08fe54c0c5d906020015b60405180910390a150565b6000610a3e6123ce565b610a46612427565b610a508383612436565b9050610a5a612528565b92915050565b610a686123ce565b610a70612427565b600754600160a81b900460ff1615610a9a5760405162461bcd60e51b81526004016109ef90613f4c565b60008460ff1611610aed5760405162461bcd60e51b815260206004820181905260248201527f42756e646c65206d7573742068617665206174206c656173742031206c65616660448201526064016109ef565b600a5460009063ffffffff16610b01610e93565b610b0b9190613fa4565b6000600255600380546007805463ffffffff1990921663ffffffff85811691909117909355600488905560058790556006869055336001600160b01b03199092166001600160a01b0319600160a81b60ff8c1602161782179055600954601354939450610b85936001600160a01b03169230919061253d16565b336001600160a01b031683857f5c8ed44dbcb2dfdd2c54fb06d7021f0f66004df1cac1aec91d0de9bc8937d55489858a88604051610bc69493929190613ff7565b60405180910390a4506109bd612528565b6001546001600160a01b03163314610c015760405162461bcd60e51b81526004016109ef90613f17565b6001600160a01b038181166000818152600c6020908152604091829020600301805460ff60c01b1916908190558251938452600160201b9004909316928201929092527fac111b3b527b307393c94d98f26140effb71411054466818be97912d2d65f7769101610a29565b610c746123ce565b610c7c612427565b600f546001600160a01b0384811691161480610c96575080155b610cd25760405162461bcd60e51b815260206004820152600d60248201526c086c2dce840e6cadcc840cae8d609b1b60448201526064016109ef565b6000670de0b6b3a7640000610ce6856125ae565b610cf0908561402f565b610cfa9190614064565b6001600160a01b038581166000908152600c60205260409081902060030154905163079cc67960e41b815233600482015260248101879052929350600160201b900416906379cc6790906044016020604051808303816000875af1158015610d66573d6000803e3d6000fd5b505050506040513d601f19601f82011682018060405250810190610d8a9190614086565b506001600160a01b0384166000908152600c602052604081206001018054839290610db69084906140a3565b90915550508115610dd057610dcb33826126ae565b610de4565b610de46001600160a01b0385163383612769565b604080518281526020810185905233916001600160a01b038716917fcda1185f28599e6bd14ab8a68b3c30a11e1dce4256b5e67e94dd3fd846a6c589910160405180910390a350610e33612528565b505050565b6000546001600160a01b0316610e4d57600080fd5b60005460405163117c72b360e11b8152600481018390526001600160a01b03909116906322f8e56690602401600060405180830381600087803b1580156109a957600080fd5b600080546001600160a01b031615610f1f5760008054906101000a90046001600160a01b03166001600160a01b03166329cb924d6040518163ffffffff1660e01b8152600401602060405180830381865afa158015610ef6573d6000803e3d6000fd5b505050506040513d601f19601f82011682018060405250810190610f1a91906140ba565b905090565b504290565b610f2c6123ce565b610f34612427565b6012546001600160a01b038281166000818152600e6020526040902054610f6093919290911690612769565b6001600160a01b0381166000818152600e60205260408082205490519092917f74740239d7d696c84422b720e125e1f47c4138c66d1f4d2a48e99f4197cdb79c91a36001600160a01b0381166000908152600e6020526040812055610fc3612528565b50565b6001546001600160a01b03163314610ff05760405162461bcd60e51b81526004016109ef90613f17565b600754600160a81b900460ff161561101a5760405162461bcd60e51b81526004016109ef90613f4c565b601380546001600160a01b0319166001600160a01b03841690811790915560098290556040518281527fbfa9a96010167e98ce8c004f718932cbbfd33a58d681c752e693be7d457a1b3b9060200160405180910390a25050565b6001546001600160a01b0316331461109e5760405162461bcd60e51b81526004016109ef90613f17565b670de0b6b3a7640000816001600160401b031611156110ff5760405162461bcd60e51b815260206004820152601960248201527f4261642070726f746f636f6c466565436170747572655063740000000000000060448201526064016109ef565b601280546001600160a01b0319166001600160a01b038416908117909155600a805467ffffffffffffffff60601b1916600160601b6001600160401b038516908102919091179091556040519091907f2fd3f7ff7bd8d07801d2fbdc28bffa3f9f50d619126d830a3e0b1eb52f3562b490600090a35050565b6001546001600160a01b031633146111a25760405162461bcd60e51b81526004016109ef90613f17565b600a805463ffffffff191663ffffffff83169081179091556040519081527fe1f6499094cb5107f8d34f57661a2cc971758752b03bdceda49fdcdcc9b9c24c90602001610a29565b6001600160a01b0382166000908152600c6020526040902060030154600160c01b900460ff166112505760405162461bcd60e51b8152602060048201526011602482015270151bdad95b881b9bdd08195b98589b1959607a1b60448201526064016109ef565b600f546001600160a01b03838116911614801561126c57508034145b80611275575034155b6112b15760405162461bcd60e51b815260206004820152600d60248201526c426164206d73672e76616c756560981b60448201526064016109ef565b60006112bc836125ae565b6112ce83670de0b6b3a764000061402f565b6112d89190614064565b6001600160a01b038481166000908152600c6020526040908190206003015490516340c10f1960e01b815233600482015260248101849052929350600160201b900416906340c10f19906044016020604051808303816000875af1158015611344573d6000803e3d6000fd5b505050506040513d601f19601f820116820180604052508101906113689190614086565b506001600160a01b0383166000908152600c602052604081206001018054849290611394908490613fa4565b9091555050600f546001600160a01b0384811691161480156113b65750600034115b1561141457826001600160a01b031663d0e30db0346040518263ffffffff1660e01b81526004016000604051808303818588803b1580156113f657600080fd5b505af115801561140a573d6000803e3d6000fd5b5050505050611429565b6114296001600160a01b03841633308561253d565b604080518381526020810183905233916001600160a01b038616917f3c69701a61c79a92ef9692903aaa0068bce8771361ecb09547391e4fb4df8537910160405180910390a3505050565b6001546001600160a01b0316331461149e5760405162461bcd60e51b81526004016109ef90613f17565b6001600160a01b038281166000818152600b602090815260408083208884529091529081902080546001600160a01b0319169385169390931790925590516024810191909152604481018490526001606482015261152a90849060840160408051601f198184030181529190526020810180516001600160e01b031663272751c760e01b17905261218b565b604080518481526001600160a01b0380851660208301528316918101919091527f15364d43c1df20e982c1b7bf8cd4536632d76a488308b3cdc3e085c22f1f8107906060015b60405180910390a1505050565b6115856123ce565b61158d612427565b60035463ffffffff1661159e610e93565b11156115ec5760405162461bcd60e51b815260206004820152601760248201527f5265717565737420706173736564206c6976656e65737300000000000000000060448201526064016109ef565b60006009546115f9612799565b6116039190613fa4565b9050600061160f6118e7565b60135490915061162a906001600160a01b031633308561253d565b611653611635612881565b61164084600261402f565b6013546001600160a01b03169190612907565b61165b612881565b6001600160a01b031663af355d1e600854611674610e93565b601354600954600a5460075460405160e088901b6001600160e01b03191681526116cc9695948a946001600160a01b0391821694600094919363ffffffff9091169290911690670de0b6b3a7640000906004016140d3565b6020604051808303816000875af11580156116eb573d6000803e3d6000fd5b505050506040513d601f19601f8201168201806040525081019061170f91906140ba565b5060408051610160810182526007546001600160a01b0390811682526000602083018190526013549091169282019290925260608101829052670de0b6b3a7640000608082015260a08101829052600a5460c082019063ffffffff16611773610e93565b61177d9190613fa4565b815260200160008152602001611791612799565b81526009546020820152600a5463ffffffff1660409091015290506117b4612881565b6001600160a01b0316639ce320c86008546117cd610e93565b858533306040518763ffffffff1660e01b81526004016117f29695949392919061413e565b6020604051808303816000875af1158015611811573d6000803e3d6000fd5b505050506040513d601f19601f8201168201806040525081019061183591906140ba565b50337ff6b628d1e6fe8f5d887bc9425828c9ecf65becd13f5030bfc991b607c1b3df21611860610e93565b8460405161186f92919061423d565b60405180910390a25050600060028190556003805463ffffffff191690556004819055600581905560065550600780546001600160b01b03191690556109c3612528565b6001546001600160a01b031633146118dd5760405162461bcd60e51b81526004016109ef90613f17565b6109c36000612a1c565b6040805160208082018352600082528251808401909352601a83527f7265717565737445787069726174696f6e54696d657374616d700000000000009083015260035460609261193d929163ffffffff16612a6e565b60408051808201909152601f81527f756e636c61696d6564506f6f6c526562616c616e63654c656166436f756e7400602082015260075491925061198d91839190600160a81b900460ff16612a6e565b90506119c781604051806040016040528060118152602001701c1bdbdb149958985b185b98d9549bdbdd607a1b8152506002800154612ab5565b9050611a0e816040518060400160405280601b81526020017f64657374696e6174696f6e446973747269627574696f6e526f6f740000000000815250600260030154612ab5565b9050611a45816040518060400160405280600d81526020016c0636c61696d65644269744d617609c1b815250600260000154612a6e565b604080518082019091526008815267383937b837b9b2b960c11b6020820152600754919250610f1a918391906001600160a01b0316612ad0565b6000611a896123ce565b611a91612427565b611a9c826000612436565b9050611aa6612528565b919050565b611ab36123ce565b611abb612427565b611ac481612aeb565b610fc3612528565b60603415611b1c5760405162461bcd60e51b815260206004820152601b60248201527f4f6e6c79206d756c746963616c6c207769746820302076616c7565000000000060448201526064016109ef565b816001600160401b03811115611b3457611b3461392c565b604051908082528060200260200182016040528015611b6757816020015b6060815260200190600190039081611b525790505b50905060005b82811015611c6a5760008030868685818110611b8b57611b8b61425c565b9050602002810190611b9d9190614272565b604051611bab9291906142bf565b600060405180830381855af49150503d8060008114611be6576040519150601f19603f3d011682016040523d82523d6000602084013e611beb565b606091505b509150915081611c3757604481511015611c0457600080fd5b60048101905080806020019051810190611c1e91906142cf565b60405162461bcd60e51b81526004016109ef9190613c07565b80848481518110611c4a57611c4a61425c565b602002602001018190525050508080611c629061433c565b915050611b6d565b5092915050565b6001546001600160a01b03163314611c9b5760405162461bcd60e51b81526004016109ef90613f17565b6001600160a01b038181166000908152600c6020526040902060030154600160201b900416611d7157601054604051637e178db760e11b81526001600160a01b0383811660048301529091169063fc2f1b6e906024016020604051808303816000875af1158015611d10573d6000803e3d6000fd5b505050506040513d601f19601f82011682018060405250810190611d349190614357565b6001600160a01b038281166000908152600c602052604090206003018054640100000000600160c01b031916600160201b93909216929092021790555b6001600160a01b0381166000908152600c60205260409020600301805460ff60c01b1916600160c01b179055611da5610e93565b6001600160a01b038281166000818152600c6020908152604091829020600301805463ffffffff191663ffffffff9690961695909517948590558151928352600160201b909404909216928101929092527f04e291c80180d65a57b5bf1bed775777ec0d6f283ef34bcf130712714d8bb7f79101610a29565b611e266123ce565b611e2e612427565b60035463ffffffff16611e3f610e93565b1015611e835760405162461bcd60e51b81526020600482015260136024820152724e6f7420706173736564206c6976656e65737360681b60448201526064016109ef565b6002546080830151604051632711299360e11b8152739923dE191259995718f30A2420aA13ED916148B192634e22532692611ecc9260040191825260ff16602082015260400190565b602060405180830381865af4158015611ee9573d6000803e3d6000fd5b505050506040513d601f19601f82011682018060405250810190611f0d9190614086565b15611f4c5760405162461bcd60e51b815260206004820152600f60248201526e105b1c9958591e4818db185a5b5959608a1b60448201526064016109ef565b6004805460405163837509b360e01b8152739923dE191259995718f30A2420aA13ED916148B19263837509b392611f8992909187918791016143ad565b602060405180830381865af4158015611fa6573d6000803e3d6000fd5b505050506040513d601f19601f82011682018060405250810190611fca9190614086565b6120025760405162461bcd60e51b81526020600482015260096024820152682130b210283937b7b360b91b60448201526064016109ef565b600254608083015160405163453db35b60e01b8152739923dE191259995718f30A2420aA13ED916148B19263453db35b9261204b9260040191825260ff16602082015260400190565b602060405180830381865af4158015612068573d6000803e3d6000fd5b505050506040513d601f19601f8201168201806040525081019061208c91906140ba565b60025560078054600160a81b900460ff169060156120a983614498565b91906101000a81548160ff021916908360ff160217905550506120de82600001518360a0015184604001518560200151612bef565b81516120e990612fd5565b600754600160a81b900460ff1661211b5760075460095460135461211b926001600160a01b0391821692911690612769565b336001600160a01b0316826080015160ff1683600001517fad2fc198ac849c63fa8738171f03ec3fb4377885021f0620691aa999f1d49b8a8560200151866040015187606001518860a0015160405161217794939291906144b5565b60405180910390a4612187612528565b5050565b6001546001600160a01b031633146121b55760405162461bcd60e51b81526004016109ef90613f17565b6121bd6123ce565b6121c5612427565b6121cf828261309b565b612187612528565b60006121e16123ce565b6121e9612427565b611a9c826125ae565b6001546001600160a01b0316331461221c5760405162461bcd60e51b81526004016109ef90613f17565b600754600160a81b900460ff16156122465760405162461bcd60e51b81526004016109ef90613f4c565b6000838152600d60205260409020546001600160a01b0316156122a25760405162461bcd60e51b815260206004820152601460248201527310dbdb9d1c9858dd08185b1c9958591e481cd95d60621b60448201526064016109ef565b6040805180820182526001600160a01b03848116808352848216602080850182815260008a8152600d8352879020955186549086166001600160a01b031991821617875590516001909601805496909516951694909417909255835187815292830152918101919091527f36050d958750e6ac3aa674ac7bbe8d0ae6a2f7d4b808e8c2c42c1f22fc9fc4bb90606001611570565b6001546001600160a01b031633146123605760405162461bcd60e51b81526004016109ef90613f17565b6001600160a01b0381166123c55760405162461bcd60e51b815260206004820152602660248201527f4f776e61626c653a206e6577206f776e657220697320746865207a65726f206160448201526564647265737360d01b60648201526084016109ef565b610fc381612a1c565b600054600160a01b900460ff166109c35760405162461bcd60e51b815260206004820152601f60248201527f5265656e7472616e637947756172643a207265656e7472616e742063616c6c0060448201526064016109ef565b6000805460ff60a01b19169055565b600061244183612aeb565b6001600160a01b038381166000908152600c60209081526040808320815160c08101835281548082526001830154948201949094526002820154928101929092526003015463ffffffff81166060830152600160201b81049094166080820152600160c01b90930460ff16151560a084015281126124c05760006124c3565b81515b905060006124d18286613fa4565b905060008284602001516124e59190613fa4565b90508061250057670de0b6b3a7640000945050505050610a5a565b8061251383670de0b6b3a764000061402f565b61251d9190614064565b979650505050505050565b6000805460ff60a01b1916600160a01b179055565b6040516001600160a01b03808516602483015283166044820152606481018290526125a89085906323b872dd60e01b906084015b60408051601f198184030181529190526020810180516001600160e01b03166001600160e01b031990931692909217909152613154565b50505050565b6001600160a01b038082166000908152600c60209081526040808320600381015482516318160ddd60e01b81529251949591948694600160201b909204909216926318160ddd92600482810193928290030181865afa158015612615573d6000803e3d6000fd5b505050506040513d601f19601f8201168201806040525081019061263991906140ba565b9050806126515750670de0b6b3a76400009392505050565b61265a82613226565b61266384612aeb565b6002820154825460018401546000929161267c9161453c565b612686919061457d565b90508161269b82670de0b6b3a764000061402f565b6126a59190614064565b95945050505050565b6001600160a01b0382163b156126d557600f54612187906001600160a01b03168383612769565b600f54604051632e1a7d4d60e01b8152600481018390526001600160a01b0390911690632e1a7d4d90602401600060405180830381600087803b15801561271b57600080fd5b505af115801561272f573d6000803e3d6000fd5b50506040516001600160a01b038516925083156108fc02915083906000818181858888f19350505050158015610e33573d6000803e3d6000fd5b6040516001600160a01b038316602482015260448101829052610e3390849063a9059cbb60e01b90606401612571565b6011546040516302abf57960e61b81526453746f726560d81b60048201526000916001600160a01b03169063aafd5e4090602401602060405180830381865afa1580156127ea573d6000803e3d6000fd5b505050506040513d601f19601f8201168201806040525081019061280e9190614357565b601354604051635b97aadd60e01b81526001600160a01b039182166004820152911690635b97aadd90602401602060405180830381865afa158015612857573d6000803e3d6000fd5b505050506040513d601f19601f8201168201806040525081019061287b91906145bc565b51919050565b6011546040516302abf57960e61b815275536b696e6e794f7074696d69737469634f7261636c6560501b60048201526000916001600160a01b03169063aafd5e4090602401602060405180830381865afa1580156128e3573d6000803e3d6000fd5b505050506040513d601f19601f82011682018060405250810190610f1a9190614357565b8015806129815750604051636eb1769f60e11b81523060048201526001600160a01b03838116602483015284169063dd62ed3e90604401602060405180830381865afa15801561295b573d6000803e3d6000fd5b505050506040513d601f19601f8201168201806040525081019061297f91906140ba565b155b6129ec5760405162461bcd60e51b815260206004820152603660248201527f5361666545524332303a20617070726f76652066726f6d206e6f6e2d7a65726f60448201527520746f206e6f6e2d7a65726f20616c6c6f77616e636560501b60648201526084016109ef565b6040516001600160a01b038316602482015260448101829052610e3390849063095ea7b360e01b90606401612571565b600180546001600160a01b038381166001600160a01b0319831681179093556040519116919082907f8be0079c531659141344cd1fd0a4f28419497f9722a3daafe3b4186f6b6457e090600090a35050565b60606000612a7c8585613287565b90508481612a89856132c9565b604051602001612a9b939291906145fd565b6040516020818303038152906040529150505b9392505050565b60606000612ac38585613287565b90508481612a89856133f1565b60606000612ade8585613287565b90508481612a8985613432565b6040516370a0823160e01b81523060048201526000906001600160a01b038316906370a0823190602401602060405180830381865afa158015612b32573d6000803e3d6000fd5b505050506040513d601f19601f82011682018060405250810190612b5691906140ba565b6001600160a01b0383166000908152600c6020526040902060010154909150811115612187576001600160a01b0382166000908152600c6020526040902060010154612ba290826140a3565b6001600160a01b0383166000908152600c602052604081208054909190612bca90849061457d565b90915550506001600160a01b03919091166000908152600c6020526040902060010155565b6000848152600d60205260408120546001600160a01b0316905b84518163ffffffff161015612fcd5760006001600160a01b0316600b6000878463ffffffff1681518110612c3f57612c3f61425c565b6020908102919091018101516001600160a01b03908116835282820193909352604091820160009081208b82529091522054161415612cb85760405162461bcd60e51b8152602060048201526015602482015274149bdd5d19481b9bdd081dda1a5d195b1a5cdd1959605a1b60448201526064016109ef565b6000848263ffffffff1681518110612cd257612cd261425c565b60200260200101511315612f7357612d3c82858363ffffffff1681518110612cfc57612cfc61425c565b6020026020010151878463ffffffff1681518110612d1c57612d1c61425c565b60200260200101516001600160a01b03166127699092919063ffffffff16565b816001600160a01b03166352c8c75c868363ffffffff1681518110612d6357612d6361425c565b6020026020010151600b6000898663ffffffff1681518110612d8757612d8761425c565b60200260200101516001600160a01b03166001600160a01b0316815260200190815260200160002060008a815260200190815260200160002060009054906101000a90046001600160a01b0316878563ffffffff1681518110612dec57612dec61425c565b60209081029190910181015160008c8152600d90925260409182902060010154915160e086901b6001600160e01b03191681526001600160a01b03948516600482015292841660248401526044830152919091166064820152608401600060405180830381600087803b158015612e6257600080fd5b505af1158015612e76573d6000803e3d6000fd5b50505050838163ffffffff1681518110612e9257612e9261425c565b6020026020010151600c6000878463ffffffff1681518110612eb657612eb661425c565b60200260200101516001600160a01b03166001600160a01b031681526020019081526020016000206000016000828254612ef0919061453c565b92505081905550838163ffffffff1681518110612f0f57612f0f61425c565b6020026020010151600c6000878463ffffffff1681518110612f3357612f3361425c565b60200260200101516001600160a01b03166001600160a01b031681526020019081526020016000206001016000828254612f6d91906140a3565b90915550505b612fbb858263ffffffff1681518110612f8e57612f8e61425c565b6020026020010151848363ffffffff1681518110612fae57612fae61425c565b6020026020010151613489565b80612fc581614640565b915050612c09565b505050505050565b6000818152600d602052604090819020805460019091015460055460065493516001600160a01b0393841694859463e6eb8ade94169261302392909190602401918252602082015260400190565b60408051601f198184030181529181526020820180516001600160e01b031663cd56680d60e01b1790525160e084901b6001600160e01b031916815261306d929190600401614664565b600060405180830381600087803b15801561308757600080fd5b505af1158015612fcd573d6000803e3d6000fd5b6000828152600d60205260409081902080546001909101549151637375c56f60e11b81526001600160a01b0391821692839263e6eb8ade926130e592909116908690600401614664565b600060405180830381600087803b1580156130ff57600080fd5b505af1158015613113573d6000803e3d6000fd5b50505050827f218987b934c2f6bc596136829fbf43a5fef4d6fafce41f3f6254d9a870c2deec836040516131479190613c07565b60405180910390a2505050565b60006131a9826040518060400160405280602081526020017f5361666545524332303a206c6f772d6c6576656c2063616c6c206661696c6564815250856001600160a01b031661356a9092919063ffffffff16565b805190915015610e3357808060200190518101906131c79190614086565b610e335760405162461bcd60e51b815260206004820152602a60248201527f5361666545524332303a204552433230206f7065726174696f6e20646964206e6044820152691bdd081cdd58d8d9595960b21b60648201526084016109ef565b600281015460038201546000916132429163ffffffff16613581565b90508082600201600082825461325891906140a3565b909155506132669050610e93565b600392909201805463ffffffff191663ffffffff9093169290921790915550565b8151606090156132b857816040516020016132a29190614688565b6040516020818303038152906040529050610a5a565b816040516020016132a291906146bc565b6060816132ed5750506040805180820190915260018152600360fc1b602082015290565b8160005b811561331757806133018161433c565b91506133109050600a83614064565b91506132f1565b6000816001600160401b038111156133315761333161392c565b6040519080825280601f01601f19166020018201604052801561335b576020820181803683370190505b509050815b85156133e8576133716001826140a3565b90506000613380600a88614064565b61338b90600a61402f565b61339590886140a3565b6133a09060306146e1565b905060008160f81b9050808484815181106133bd576133bd61425c565b60200101906001600160f81b031916908160001a9053506133df600a89614064565b97505050613360565b50949350505050565b6060613400608083901c6135e9565b613409836135e9565b6040805160208101939093528201526060015b6040516020818303038152906040529050919050565b606061344a6001600160801b03602084901c166135e9565b6134658360601b6bffffffffffffffffffffffff19166135e9565b60405160200161341c9291909182526001600160c01b031916602082015260280190565b600a54600090670de0b6b3a7640000906134b390600160601b90046001600160401b03168461402f565b6134bd9190614064565b905060006134cb82846140a3565b90508015613531576001600160a01b0384166000908152600c6020526040812060020180548392906134fe908490613fa4565b90915550506001600160a01b0384166000908152600c60205260408120805483929061352b90849061453c565b90915550505b81156125a8576001600160a01b0384166000908152600e60205260408120805484929061355f908490613fa4565b909155505050505050565b60606135798484600085613781565b949350505050565b6000808261358d610e93565b61359791906140a3565b600a54909150600090670de0b6b3a76400009083906135c690600160201b90046001600160401b03168861402f565b6135d0919061402f565b6135da9190614064565b905084811061357957846126a5565b6000808260001c9050806001600160801b03169050806801000000000000000002811777ffffffffffffffff0000000000000000ffffffffffffffff16905080600160201b0281177bffffffff00000000ffffffff00000000ffffffff00000000ffffffff16905080620100000281177dffff0000ffff0000ffff0000ffff0000ffff0000ffff0000ffff0000ffff169050806101000281177eff00ff00ff00ff00ff00ff00ff00ff00ff00ff00ff00ff00ff00ff00ff00ff1690508060100281177f0f0f0f0f0f0f0f0f0f0f0f0f0f0f0f0f0f0f0f0f0f0f0f0f0f0f0f0f0f0f0f0f16905060006008827f080808080808080808080808080808080808080808080808080808080808080816816137035761370361404e565b0460047f040404040404040404040404040404040404040404040404040404040404040484160460027f020202020202020202020202020202020202020202020202020202020202020285160417166027029091017f3030303030303030303030303030303030303030303030303030303030303030019392505050565b6060824710156137e25760405162461bcd60e51b815260206004820152602660248201527f416464726573733a20696e73756666696369656e742062616c616e636520666f6044820152651c8818d85b1b60d21b60648201526084016109ef565b843b6138305760405162461bcd60e51b815260206004820152601d60248201527f416464726573733a2063616c6c20746f206e6f6e2d636f6e747261637400000060448201526064016109ef565b600080866001600160a01b0316858760405161384c9190614706565b60006040518083038185875af1925050503d8060008114613889576040519150601f19603f3d011682016040523d82523d6000602084013e61388e565b606091505b509150915061251d828286606083156138a8575081612aae565b8251156138b85782518084602001fd5b8160405162461bcd60e51b81526004016109ef9190613c07565b6000602082840312156138e457600080fd5b5035919050565b6001600160a01b0381168114610fc357600080fd5b6000806040838503121561391357600080fd5b823561391e816138eb565b946020939093013593505050565b634e487b7160e01b600052604160045260246000fd5b60405160c081016001600160401b03811182821017156139645761396461392c565b60405290565b604051601f8201601f191681016001600160401b03811182821017156139925761399261392c565b604052919050565b60006001600160401b038211156139b3576139b361392c565b5060051b60200190565b600082601f8301126139ce57600080fd5b813560206139e36139de8361399a565b61396a565b82815260059290921b84018101918181019086841115613a0257600080fd5b8286015b84811015613a1d5780358352918301918301613a06565b509695505050505050565b803560ff81168114611aa657600080fd5b600080600080600060a08688031215613a5157600080fd5b85356001600160401b03811115613a6757600080fd5b613a73888289016139bd565b955050613a8260208701613a28565b94979496505050506040830135926060810135926080909101359150565b600060208284031215613ab257600080fd5b8135612aae816138eb565b8015158114610fc357600080fd5b600080600060608486031215613ae057600080fd5b8335613aeb816138eb565b9250602084013591506040840135613b0281613abd565b809150509250925092565b60008060408385031215613b2057600080fd5b8235613b2b816138eb565b915060208301356001600160401b0381168114613b4757600080fd5b809150509250929050565b600060208284031215613b6457600080fd5b813563ffffffff81168114612aae57600080fd5b600080600060608486031215613b8d57600080fd5b833592506020840135613b9f816138eb565b91506040840135613b02816138eb565b60005b83811015613bca578181015183820152602001613bb2565b838111156125a85750506000910152565b60008151808452613bf3816020860160208601613baf565b601f01601f19169290920160200192915050565b602081526000612aae6020830184613bdb565b60008060208385031215613c2d57600080fd5b82356001600160401b0380821115613c4457600080fd5b818501915085601f830112613c5857600080fd5b813581811115613c6757600080fd5b8660208260051b8501011115613c7c57600080fd5b60209290920196919550909350505050565b6000602080830181845280855180835260408601915060408160051b870101925083870160005b82811015613ce357603f19888603018452613cd1858351613bdb565b94509285019290850190600101613cb5565b5092979650505050505050565b600082601f830112613d0157600080fd5b81356020613d116139de8361399a565b82815260059290921b84018101918181019086841115613d3057600080fd5b8286015b84811015613a1d578035613d47816138eb565b8352918301918301613d34565b60008060408385031215613d6757600080fd5b82356001600160401b0380821115613d7e57600080fd5b9084019060c08287031215613d9257600080fd5b613d9a613942565b82358152602083013582811115613db057600080fd5b613dbc888286016139bd565b602083015250604083013582811115613dd457600080fd5b613de0888286016139bd565b604083015250606083013582811115613df857600080fd5b613e04888286016139bd565b606083015250613e1660808401613a28565b608082015260a083013582811115613e2d57600080fd5b613e3988828601613cf0565b60a08301525093506020850135915080821115613e5557600080fd5b50613e62858286016139bd565b9150509250929050565b60006001600160401b03821115613e8557613e8561392c565b50601f01601f191660200190565b60008060408385031215613ea657600080fd5b8235915060208301356001600160401b03811115613ec357600080fd5b8301601f81018513613ed457600080fd5b8035613ee26139de82613e6c565b818152866020838501011115613ef757600080fd5b816020840160208301376000602083830101528093505050509250929050565b6020808252818101527f4f776e61626c653a2063616c6c6572206973206e6f7420746865206f776e6572604082015260600190565b60208082526022908201527f41637469766520726571756573742068617320756e636c61696d6564206c6561604082015261667360f01b606082015260800190565b634e487b7160e01b600052601160045260246000fd5b60008219821115613fb757613fb7613f8e565b500190565b600081518084526020808501945080840160005b83811015613fec57815187529582019590820190600101613fd0565b509495945050505050565b60808152600061400a6080830187613fbc565b63ffffffff9590951660208301525060ff929092166040830152606090910152919050565b600081600019048311821515161561404957614049613f8e565b500290565b634e487b7160e01b600052601260045260246000fd5b60008261408157634e487b7160e01b600052601260045260246000fd5b500490565b60006020828403121561409857600080fd5b8151612aae81613abd565b6000828210156140b5576140b5613f8e565b500390565b6000602082840312156140cc57600080fd5b5051919050565b60006101208b835263ffffffff808c1660208501528160408501526140fa8285018c613bdb565b6001600160a01b039a8b166060860152608085019990995260a084019790975250509290931660c083015290931660e0840152610100909201919091529392505050565b600061020088835263ffffffff8816602084015280604084015261416481840188613bdb565b91505061417d6060830186516001600160a01b03169052565b60208501516001600160a01b03811660808401525060408501516001600160a01b03811660a084015250606085015180151560c084015250608085015160e083015260a0850151610100818185015260c08701519150610120828186015260e0880151925061014083818701528289015161016087015281890151610180870152808901516101a0870152505050506142226101c08301856001600160a01b03169052565b6001600160a01b0383166101e0830152979650505050505050565b63ffffffff831681526040602082015260006135796040830184613bdb565b634e487b7160e01b600052603260045260246000fd5b6000808335601e1984360301811261428957600080fd5b8301803591506001600160401b038211156142a357600080fd5b6020019150368190038213156142b857600080fd5b9250929050565b8183823760009101908152919050565b6000602082840312156142e157600080fd5b81516001600160401b038111156142f757600080fd5b8201601f8101841361430857600080fd5b80516143166139de82613e6c565b81815285602083850101111561432b57600080fd5b6126a5826020830160208601613baf565b600060001982141561435057614350613f8e565b5060010190565b60006020828403121561436957600080fd5b8151612aae816138eb565b600081518084526020808501945080840160005b83811015613fec5781516001600160a01b031687529582019590820190600101614388565b838152600060206060818401526101208301855160608501528186015160c06080860152818151808452610140870191508483019350600092505b8083101561440857835182529284019260019290920191908401906143e8565b5060408801519350605f199250828682030160a08701526144298185613fbc565b935050506060860151818584030160c08601526144468382613fbc565b925050608086015161445d60e086018260ff169052565b5060a086015181858403016101008601526144788382614374565b92505050828103604084015261448e8185613fbc565b9695505050505050565b600060ff8216806144ab576144ab613f8e565b6000190192915050565b6080815260006144c86080830187613fbc565b6020838203818501526144db8288613fbc565b915083820360408501526144ef8287613fbc565b8481036060860152855180825282870193509082019060005b8181101561452d5784516001600160a01b031683529383019391830191600101614508565b50909998505050505050505050565b600080821280156001600160ff1b038490038513161561455e5761455e613f8e565b600160ff1b839003841281161561457757614577613f8e565b50500190565b60008083128015600160ff1b85018412161561459b5761459b613f8e565b6001600160ff1b03840183138116156145b6576145b6613f8e565b50500390565b6000602082840312156145ce57600080fd5b604051602081018181106001600160401b03821117156145f0576145f061392c565b6040529151825250919050565b6000845161460f818460208901613baf565b845190830190614623818360208901613baf565b8451910190614636818360208801613baf565b0195945050505050565b600063ffffffff8083168181141561465a5761465a613f8e565b6001019392505050565b6001600160a01b038316815260406020820181905260009061357990830184613bdb565b600b60fa1b8152600082516146a4816001850160208701613baf565b601d60f91b6001939091019283015250600201919050565b600082516146ce818460208701613baf565b601d60f91b920191825250600101919050565b600060ff821660ff84168060ff038211156146fe576146fe613f8e565b019392505050565b60008251614718818460208701613baf565b919091019291505056fea2646970667358221220b5e0ea9993edcd10165577246eb7cdfd793e5fd5ca8b9f0b5d46330f944aefff64736f6c634300080b0033",
  "deployedBytecode": "0x60806040526004361061025f5760003560e01c8063715018a611610144578063bb9219a2116100b6578063dd70e5e81161007a578063dd70e5e8146107f7578063e0f339e314610817578063e40064d714610837578063e460e35c14610864578063f0056a7d14610884578063f2fde38b146109275761026e565b8063bb9219a2146106a6578063c034c320146106e7578063c1a15f1214610719578063c28f439214610739578063cd034234146107595761026e565b80638da5cb5b116101085780638da5cb5b146105e8578063a16fd6e914610606578063a584119414610626578063ac9650d814610646578063b60c2d7d14610666578063b9a3c84c146106865761026e565b8063715018a61461056557806376ec08dd1461057a5780637998a1c41461059a5780637cafec5d146105b057806380f323a7146105d25761026e565b806329cb924d116101dd57806351e1984b116101a157806351e1984b146104dd578063552188a71461026e57806355ecce40146104fd578063566887001461051d57806362548f43146105305780636564cd94146105505761026e565b806329cb924d146104415780632d0f6f841461045657806333dc09ca146104765780633fc8cef3146104965780634f7473ff146104b65761026e565b80630ee28a88116102245780630ee28a881461036a57806311cfc1591461038a5780631c39c38d146103c957806322f8e56614610401578063240f475f146104215761026e565b8062c9920614610276578063084d05131461029657806309474ae2146102c95780630a7f23051461032a5780630c501af91461034a5761026e565b3661026e5761026c610947565b005b61026c610947565b34801561028257600080fd5b5061026c6102913660046138d2565b6109c5565b3480156102a257600080fd5b506102b66102b1366004613900565b610a34565b6040519081526020015b60405180910390f35b3480156102d557600080fd5b5061030a6102e43660046138d2565b600d60205260009081526040902080546001909101546001600160a01b03918216911682565b604080516001600160a01b039384168152929091166020830152016102c0565b34801561033657600080fd5b5061026c610345366004613a39565b610a60565b34801561035657600080fd5b5061026c610365366004613aa0565b610bd7565b34801561037657600080fd5b5061026c610385366004613acb565b610c6c565b34801561039657600080fd5b50600a546103b190600160201b90046001600160401b031681565b6040516001600160401b0390911681526020016102c0565b3480156103d557600080fd5b506000546103e9906001600160a01b031681565b6040516001600160a01b0390911681526020016102c0565b34801561040d57600080fd5b5061026c61041c3660046138d2565b610e38565b34801561042d57600080fd5b506012546103e9906001600160a01b031681565b34801561044d57600080fd5b506102b6610e93565b34801561046257600080fd5b5061026c610471366004613aa0565b610f24565b34801561048257600080fd5b5061026c610491366004613900565b610fc6565b3480156104a257600080fd5b50600f546103e9906001600160a01b031681565b3480156104c257600080fd5b50600a546103b190600160601b90046001600160401b031681565b3480156104e957600080fd5b5061026c6104f8366004613b0d565b611074565b34801561050957600080fd5b5061026c610518366004613b52565b611178565b61026c61052b366004613900565b6111ea565b34801561053c57600080fd5b5061026c61054b366004613b78565b611474565b34801561055c57600080fd5b5061026c61157d565b34801561057157600080fd5b5061026c6118b3565b34801561058657600080fd5b506010546103e9906001600160a01b031681565b3480156105a657600080fd5b506102b660085481565b3480156105bc57600080fd5b506105c56118e7565b6040516102c09190613c07565b3480156105de57600080fd5b506102b660095481565b3480156105f457600080fd5b506001546001600160a01b03166103e9565b34801561061257600080fd5b506102b6610621366004613aa0565b611a7f565b34801561063257600080fd5b5061026c610641366004613aa0565b611aab565b610659610654366004613c1a565b611acc565b6040516102c09190613c8e565b34801561067257600080fd5b5061026c610681366004613aa0565b611c71565b34801561069257600080fd5b506011546103e9906001600160a01b031681565b3480156106b257600080fd5b506103e96106c1366004613900565b600b6020908152600092835260408084209091529082529020546001600160a01b031681565b3480156106f357600080fd5b50600a546107049063ffffffff1681565b60405163ffffffff90911681526020016102c0565b34801561072557600080fd5b5061026c610734366004613d54565b611e1e565b34801561074557600080fd5b506013546103e9906001600160a01b031681565b34801561076557600080fd5b506002546003546004546005546006546007546107a9959463ffffffff16939291906001600160a01b0381169060ff600160a01b8204811691600160a81b90041688565b6040805198895263ffffffff909716602089015295870194909452606086019290925260808501526001600160a01b031660a0840152151560c083015260ff1660e0820152610100016102c0565b34801561080357600080fd5b5061026c610812366004613e93565b61218b565b34801561082357600080fd5b506102b6610832366004613aa0565b6121d7565b34801561084357600080fd5b506102b6610852366004613aa0565b600e6020526000908152604090205481565b34801561087057600080fd5b5061026c61087f366004613b78565b6121f2565b34801561089057600080fd5b506108e961089f366004613aa0565b600c6020526000908152604090208054600182015460028301546003909301549192909163ffffffff811690600160201b81046001600160a01b031690600160c01b900460ff1686565b6040805196875260208701959095529385019290925263ffffffff1660608401526001600160a01b03166080830152151560a082015260c0016102c0565b34801561093357600080fd5b5061026c610942366004613aa0565b612336565b600054600160a01b900460ff16156109c357600f60009054906101000a90046001600160a01b03166001600160a01b031663d0e30db0476040518263ffffffff1660e01b81526004016000604051808303818588803b1580156109a957600080fd5b505af11580156109bd573d6000803e3d6000fd5b50505050505b565b6001546001600160a01b031633146109f85760405162461bcd60e51b81526004016109ef90613f17565b60405180910390fd5b60088190556040518181527ff45367c278fcceff23d601ce4bdd191e5bd61687ff9f29dc7276a08fe54c0c5d906020015b60405180910390a150565b6000610a3e6123ce565b610a46612427565b610a508383612436565b9050610a5a612528565b92915050565b610a686123ce565b610a70612427565b600754600160a81b900460ff1615610a9a5760405162461bcd60e51b81526004016109ef90613f4c565b60008460ff1611610aed5760405162461bcd60e51b815260206004820181905260248201527f42756e646c65206d7573742068617665206174206c656173742031206c65616660448201526064016109ef565b600a5460009063ffffffff16610b01610e93565b610b0b9190613fa4565b6000600255600380546007805463ffffffff1990921663ffffffff85811691909117909355600488905560058790556006869055336001600160b01b03199092166001600160a01b0319600160a81b60ff8c1602161782179055600954601354939450610b85936001600160a01b03169230919061253d16565b336001600160a01b031683857f5c8ed44dbcb2dfdd2c54fb06d7021f0f66004df1cac1aec91d0de9bc8937d55489858a88604051610bc69493929190613ff7565b60405180910390a4506109bd612528565b6001546001600160a01b03163314610c015760405162461bcd60e51b81526004016109ef90613f17565b6001600160a01b038181166000818152600c6020908152604091829020600301805460ff60c01b1916908190558251938452600160201b9004909316928201929092527fac111b3b527b307393c94d98f26140effb71411054466818be97912d2d65f7769101610a29565b610c746123ce565b610c7c612427565b600f546001600160a01b0384811691161480610c96575080155b610cd25760405162461bcd60e51b815260206004820152600d60248201526c086c2dce840e6cadcc840cae8d609b1b60448201526064016109ef565b6000670de0b6b3a7640000610ce6856125ae565b610cf0908561402f565b610cfa9190614064565b6001600160a01b038581166000908152600c60205260409081902060030154905163079cc67960e41b815233600482015260248101879052929350600160201b900416906379cc6790906044016020604051808303816000875af1158015610d66573d6000803e3d6000fd5b505050506040513d601f19601f82011682018060405250810190610d8a9190614086565b506001600160a01b0384166000908152600c602052604081206001018054839290610db69084906140a3565b90915550508115610dd057610dcb33826126ae565b610de4565b610de46001600160a01b0385163383612769565b604080518281526020810185905233916001600160a01b038716917fcda1185f28599e6bd14ab8a68b3c30a11e1dce4256b5e67e94dd3fd846a6c589910160405180910390a350610e33612528565b505050565b6000546001600160a01b0316610e4d57600080fd5b60005460405163117c72b360e11b8152600481018390526001600160a01b03909116906322f8e56690602401600060405180830381600087803b1580156109a957600080fd5b600080546001600160a01b031615610f1f5760008054906101000a90046001600160a01b03166001600160a01b03166329cb924d6040518163ffffffff1660e01b8152600401602060405180830381865afa158015610ef6573d6000803e3d6000fd5b505050506040513d601f19601f82011682018060405250810190610f1a91906140ba565b905090565b504290565b610f2c6123ce565b610f34612427565b6012546001600160a01b038281166000818152600e6020526040902054610f6093919290911690612769565b6001600160a01b0381166000818152600e60205260408082205490519092917f74740239d7d696c84422b720e125e1f47c4138c66d1f4d2a48e99f4197cdb79c91a36001600160a01b0381166000908152600e6020526040812055610fc3612528565b50565b6001546001600160a01b03163314610ff05760405162461bcd60e51b81526004016109ef90613f17565b600754600160a81b900460ff161561101a5760405162461bcd60e51b81526004016109ef90613f4c565b601380546001600160a01b0319166001600160a01b03841690811790915560098290556040518281527fbfa9a96010167e98ce8c004f718932cbbfd33a58d681c752e693be7d457a1b3b9060200160405180910390a25050565b6001546001600160a01b0316331461109e5760405162461bcd60e51b81526004016109ef90613f17565b670de0b6b3a7640000816001600160401b031611156110ff5760405162461bcd60e51b815260206004820152601960248201527f4261642070726f746f636f6c466565436170747572655063740000000000000060448201526064016109ef565b601280546001600160a01b0319166001600160a01b038416908117909155600a805467ffffffffffffffff60601b1916600160601b6001600160401b038516908102919091179091556040519091907f2fd3f7ff7bd8d07801d2fbdc28bffa3f9f50d619126d830a3e0b1eb52f3562b490600090a35050565b6001546001600160a01b031633146111a25760405162461bcd60e51b81526004016109ef90613f17565b600a805463ffffffff191663ffffffff83169081179091556040519081527fe1f6499094cb5107f8d34f57661a2cc971758752b03bdceda49fdcdcc9b9c24c90602001610a29565b6001600160a01b0382166000908152600c6020526040902060030154600160c01b900460ff166112505760405162461bcd60e51b8152602060048201526011602482015270151bdad95b881b9bdd08195b98589b1959607a1b60448201526064016109ef565b600f546001600160a01b03838116911614801561126c57508034145b80611275575034155b6112b15760405162461bcd60e51b815260206004820152600d60248201526c426164206d73672e76616c756560981b60448201526064016109ef565b60006112bc836125ae565b6112ce83670de0b6b3a764000061402f565b6112d89190614064565b6001600160a01b038481166000908152600c6020526040908190206003015490516340c10f1960e01b815233600482015260248101849052929350600160201b900416906340c10f19906044016020604051808303816000875af1158015611344573d6000803e3d6000fd5b505050506040513d601f19601f820116820180604052508101906113689190614086565b506001600160a01b0383166000908152600c602052604081206001018054849290611394908490613fa4565b9091555050600f546001600160a01b0384811691161480156113b65750600034115b1561141457826001600160a01b031663d0e30db0346040518263ffffffff1660e01b81526004016000604051808303818588803b1580156113f657600080fd5b505af115801561140a573d6000803e3d6000fd5b5050505050611429565b6114296001600160a01b03841633308561253d565b604080518381526020810183905233916001600160a01b038616917f3c69701a61c79a92ef9692903aaa0068bce8771361ecb09547391e4fb4df8537910160405180910390a3505050565b6001546001600160a01b0316331461149e5760405162461bcd60e51b81526004016109ef90613f17565b6001600160a01b038281166000818152600b602090815260408083208884529091529081902080546001600160a01b0319169385169390931790925590516024810191909152604481018490526001606482015261152a90849060840160408051601f198184030181529190526020810180516001600160e01b031663272751c760e01b17905261218b565b604080518481526001600160a01b0380851660208301528316918101919091527f15364d43c1df20e982c1b7bf8cd4536632d76a488308b3cdc3e085c22f1f8107906060015b60405180910390a1505050565b6115856123ce565b61158d612427565b60035463ffffffff1661159e610e93565b11156115ec5760405162461bcd60e51b815260206004820152601760248201527f5265717565737420706173736564206c6976656e65737300000000000000000060448201526064016109ef565b60006009546115f9612799565b6116039190613fa4565b9050600061160f6118e7565b60135490915061162a906001600160a01b031633308561253d565b611653611635612881565b61164084600261402f565b6013546001600160a01b03169190612907565b61165b612881565b6001600160a01b031663af355d1e600854611674610e93565b601354600954600a5460075460405160e088901b6001600160e01b03191681526116cc9695948a946001600160a01b0391821694600094919363ffffffff9091169290911690670de0b6b3a7640000906004016140d3565b6020604051808303816000875af11580156116eb573d6000803e3d6000fd5b505050506040513d601f19601f8201168201806040525081019061170f91906140ba565b5060408051610160810182526007546001600160a01b0390811682526000602083018190526013549091169282019290925260608101829052670de0b6b3a7640000608082015260a08101829052600a5460c082019063ffffffff16611773610e93565b61177d9190613fa4565b815260200160008152602001611791612799565b81526009546020820152600a5463ffffffff1660409091015290506117b4612881565b6001600160a01b0316639ce320c86008546117cd610e93565b858533306040518763ffffffff1660e01b81526004016117f29695949392919061413e565b6020604051808303816000875af1158015611811573d6000803e3d6000fd5b505050506040513d601f19601f8201168201806040525081019061183591906140ba565b50337ff6b628d1e6fe8f5d887bc9425828c9ecf65becd13f5030bfc991b607c1b3df21611860610e93565b8460405161186f92919061423d565b60405180910390a25050600060028190556003805463ffffffff191690556004819055600581905560065550600780546001600160b01b03191690556109c3612528565b6001546001600160a01b031633146118dd5760405162461bcd60e51b81526004016109ef90613f17565b6109c36000612a1c565b6040805160208082018352600082528251808401909352601a83527f7265717565737445787069726174696f6e54696d657374616d700000000000009083015260035460609261193d929163ffffffff16612a6e565b60408051808201909152601f81527f756e636c61696d6564506f6f6c526562616c616e63654c656166436f756e7400602082015260075491925061198d91839190600160a81b900460ff16612a6e565b90506119c781604051806040016040528060118152602001701c1bdbdb149958985b185b98d9549bdbdd607a1b8152506002800154612ab5565b9050611a0e816040518060400160405280601b81526020017f64657374696e6174696f6e446973747269627574696f6e526f6f740000000000815250600260030154612ab5565b9050611a45816040518060400160405280600d81526020016c0636c61696d65644269744d617609c1b815250600260000154612a6e565b604080518082019091526008815267383937b837b9b2b960c11b6020820152600754919250610f1a918391906001600160a01b0316612ad0565b6000611a896123ce565b611a91612427565b611a9c826000612436565b9050611aa6612528565b919050565b611ab36123ce565b611abb612427565b611ac481612aeb565b610fc3612528565b60603415611b1c5760405162461bcd60e51b815260206004820152601b60248201527f4f6e6c79206d756c746963616c6c207769746820302076616c7565000000000060448201526064016109ef565b816001600160401b03811115611b3457611b3461392c565b604051908082528060200260200182016040528015611b6757816020015b6060815260200190600190039081611b525790505b50905060005b82811015611c6a5760008030868685818110611b8b57611b8b61425c565b9050602002810190611b9d9190614272565b604051611bab9291906142bf565b600060405180830381855af49150503d8060008114611be6576040519150601f19603f3d011682016040523d82523d6000602084013e611beb565b606091505b509150915081611c3757604481511015611c0457600080fd5b60048101905080806020019051810190611c1e91906142cf565b60405162461bcd60e51b81526004016109ef9190613c07565b80848481518110611c4a57611c4a61425c565b602002602001018190525050508080611c629061433c565b915050611b6d565b5092915050565b6001546001600160a01b03163314611c9b5760405162461bcd60e51b81526004016109ef90613f17565b6001600160a01b038181166000908152600c6020526040902060030154600160201b900416611d7157601054604051637e178db760e11b81526001600160a01b0383811660048301529091169063fc2f1b6e906024016020604051808303816000875af1158015611d10573d6000803e3d6000fd5b505050506040513d601f19601f82011682018060405250810190611d349190614357565b6001600160a01b038281166000908152600c602052604090206003018054640100000000600160c01b031916600160201b93909216929092021790555b6001600160a01b0381166000908152600c60205260409020600301805460ff60c01b1916600160c01b179055611da5610e93565b6001600160a01b038281166000818152600c6020908152604091829020600301805463ffffffff191663ffffffff9690961695909517948590558151928352600160201b909404909216928101929092527f04e291c80180d65a57b5bf1bed775777ec0d6f283ef34bcf130712714d8bb7f79101610a29565b611e266123ce565b611e2e612427565b60035463ffffffff16611e3f610e93565b1015611e835760405162461bcd60e51b81526020600482015260136024820152724e6f7420706173736564206c6976656e65737360681b60448201526064016109ef565b6002546080830151604051632711299360e11b815273__$61dd25696c02d5bd2863c8d2c1a2324a87$__92634e22532692611ecc9260040191825260ff16602082015260400190565b602060405180830381865af4158015611ee9573d6000803e3d6000fd5b505050506040513d601f19601f82011682018060405250810190611f0d9190614086565b15611f4c5760405162461bcd60e51b815260206004820152600f60248201526e105b1c9958591e4818db185a5b5959608a1b60448201526064016109ef565b6004805460405163837509b360e01b815273__$61dd25696c02d5bd2863c8d2c1a2324a87$__9263837509b392611f8992909187918791016143ad565b602060405180830381865af4158015611fa6573d6000803e3d6000fd5b505050506040513d601f19601f82011682018060405250810190611fca9190614086565b6120025760405162461bcd60e51b81526020600482015260096024820152682130b210283937b7b360b91b60448201526064016109ef565b600254608083015160405163453db35b60e01b815273__$61dd25696c02d5bd2863c8d2c1a2324a87$__9263453db35b9261204b9260040191825260ff16602082015260400190565b602060405180830381865af4158015612068573d6000803e3d6000fd5b505050506040513d601f19601f8201168201806040525081019061208c91906140ba565b60025560078054600160a81b900460ff169060156120a983614498565b91906101000a81548160ff021916908360ff160217905550506120de82600001518360a0015184604001518560200151612bef565b81516120e990612fd5565b600754600160a81b900460ff1661211b5760075460095460135461211b926001600160a01b0391821692911690612769565b336001600160a01b0316826080015160ff1683600001517fad2fc198ac849c63fa8738171f03ec3fb4377885021f0620691aa999f1d49b8a8560200151866040015187606001518860a0015160405161217794939291906144b5565b60405180910390a4612187612528565b5050565b6001546001600160a01b031633146121b55760405162461bcd60e51b81526004016109ef90613f17565b6121bd6123ce565b6121c5612427565b6121cf828261309b565b612187612528565b60006121e16123ce565b6121e9612427565b611a9c826125ae565b6001546001600160a01b0316331461221c5760405162461bcd60e51b81526004016109ef90613f17565b600754600160a81b900460ff16156122465760405162461bcd60e51b81526004016109ef90613f4c565b6000838152600d60205260409020546001600160a01b0316156122a25760405162461bcd60e51b815260206004820152601460248201527310dbdb9d1c9858dd08185b1c9958591e481cd95d60621b60448201526064016109ef565b6040805180820182526001600160a01b03848116808352848216602080850182815260008a8152600d8352879020955186549086166001600160a01b031991821617875590516001909601805496909516951694909417909255835187815292830152918101919091527f36050d958750e6ac3aa674ac7bbe8d0ae6a2f7d4b808e8c2c42c1f22fc9fc4bb90606001611570565b6001546001600160a01b031633146123605760405162461bcd60e51b81526004016109ef90613f17565b6001600160a01b0381166123c55760405162461bcd60e51b815260206004820152602660248201527f4f776e61626c653a206e6577206f776e657220697320746865207a65726f206160448201526564647265737360d01b60648201526084016109ef565b610fc381612a1c565b600054600160a01b900460ff166109c35760405162461bcd60e51b815260206004820152601f60248201527f5265656e7472616e637947756172643a207265656e7472616e742063616c6c0060448201526064016109ef565b6000805460ff60a01b19169055565b600061244183612aeb565b6001600160a01b038381166000908152600c60209081526040808320815160c08101835281548082526001830154948201949094526002820154928101929092526003015463ffffffff81166060830152600160201b81049094166080820152600160c01b90930460ff16151560a084015281126124c05760006124c3565b81515b905060006124d18286613fa4565b905060008284602001516124e59190613fa4565b90508061250057670de0b6b3a7640000945050505050610a5a565b8061251383670de0b6b3a764000061402f565b61251d9190614064565b979650505050505050565b6000805460ff60a01b1916600160a01b179055565b6040516001600160a01b03808516602483015283166044820152606481018290526125a89085906323b872dd60e01b906084015b60408051601f198184030181529190526020810180516001600160e01b03166001600160e01b031990931692909217909152613154565b50505050565b6001600160a01b038082166000908152600c60209081526040808320600381015482516318160ddd60e01b81529251949591948694600160201b909204909216926318160ddd92600482810193928290030181865afa158015612615573d6000803e3d6000fd5b505050506040513d601f19601f8201168201806040525081019061263991906140ba565b9050806126515750670de0b6b3a76400009392505050565b61265a82613226565b61266384612aeb565b6002820154825460018401546000929161267c9161453c565b612686919061457d565b90508161269b82670de0b6b3a764000061402f565b6126a59190614064565b95945050505050565b6001600160a01b0382163b156126d557600f54612187906001600160a01b03168383612769565b600f54604051632e1a7d4d60e01b8152600481018390526001600160a01b0390911690632e1a7d4d90602401600060405180830381600087803b15801561271b57600080fd5b505af115801561272f573d6000803e3d6000fd5b50506040516001600160a01b038516925083156108fc02915083906000818181858888f19350505050158015610e33573d6000803e3d6000fd5b6040516001600160a01b038316602482015260448101829052610e3390849063a9059cbb60e01b90606401612571565b6011546040516302abf57960e61b81526453746f726560d81b60048201526000916001600160a01b03169063aafd5e4090602401602060405180830381865afa1580156127ea573d6000803e3d6000fd5b505050506040513d601f19601f8201168201806040525081019061280e9190614357565b601354604051635b97aadd60e01b81526001600160a01b039182166004820152911690635b97aadd90602401602060405180830381865afa158015612857573d6000803e3d6000fd5b505050506040513d601f19601f8201168201806040525081019061287b91906145bc565b51919050565b6011546040516302abf57960e61b815275536b696e6e794f7074696d69737469634f7261636c6560501b60048201526000916001600160a01b03169063aafd5e4090602401602060405180830381865afa1580156128e3573d6000803e3d6000fd5b505050506040513d601f19601f82011682018060405250810190610f1a9190614357565b8015806129815750604051636eb1769f60e11b81523060048201526001600160a01b03838116602483015284169063dd62ed3e90604401602060405180830381865afa15801561295b573d6000803e3d6000fd5b505050506040513d601f19601f8201168201806040525081019061297f91906140ba565b155b6129ec5760405162461bcd60e51b815260206004820152603660248201527f5361666545524332303a20617070726f76652066726f6d206e6f6e2d7a65726f60448201527520746f206e6f6e2d7a65726f20616c6c6f77616e636560501b60648201526084016109ef565b6040516001600160a01b038316602482015260448101829052610e3390849063095ea7b360e01b90606401612571565b600180546001600160a01b038381166001600160a01b0319831681179093556040519116919082907f8be0079c531659141344cd1fd0a4f28419497f9722a3daafe3b4186f6b6457e090600090a35050565b60606000612a7c8585613287565b90508481612a89856132c9565b604051602001612a9b939291906145fd565b6040516020818303038152906040529150505b9392505050565b60606000612ac38585613287565b90508481612a89856133f1565b60606000612ade8585613287565b90508481612a8985613432565b6040516370a0823160e01b81523060048201526000906001600160a01b038316906370a0823190602401602060405180830381865afa158015612b32573d6000803e3d6000fd5b505050506040513d601f19601f82011682018060405250810190612b5691906140ba565b6001600160a01b0383166000908152600c6020526040902060010154909150811115612187576001600160a01b0382166000908152600c6020526040902060010154612ba290826140a3565b6001600160a01b0383166000908152600c602052604081208054909190612bca90849061457d565b90915550506001600160a01b03919091166000908152600c6020526040902060010155565b6000848152600d60205260408120546001600160a01b0316905b84518163ffffffff161015612fcd5760006001600160a01b0316600b6000878463ffffffff1681518110612c3f57612c3f61425c565b6020908102919091018101516001600160a01b03908116835282820193909352604091820160009081208b82529091522054161415612cb85760405162461bcd60e51b8152602060048201526015602482015274149bdd5d19481b9bdd081dda1a5d195b1a5cdd1959605a1b60448201526064016109ef565b6000848263ffffffff1681518110612cd257612cd261425c565b60200260200101511315612f7357612d3c82858363ffffffff1681518110612cfc57612cfc61425c565b6020026020010151878463ffffffff1681518110612d1c57612d1c61425c565b60200260200101516001600160a01b03166127699092919063ffffffff16565b816001600160a01b03166352c8c75c868363ffffffff1681518110612d6357612d6361425c565b6020026020010151600b6000898663ffffffff1681518110612d8757612d8761425c565b60200260200101516001600160a01b03166001600160a01b0316815260200190815260200160002060008a815260200190815260200160002060009054906101000a90046001600160a01b0316878563ffffffff1681518110612dec57612dec61425c565b60209081029190910181015160008c8152600d90925260409182902060010154915160e086901b6001600160e01b03191681526001600160a01b03948516600482015292841660248401526044830152919091166064820152608401600060405180830381600087803b158015612e6257600080fd5b505af1158015612e76573d6000803e3d6000fd5b50505050838163ffffffff1681518110612e9257612e9261425c565b6020026020010151600c6000878463ffffffff1681518110612eb657612eb661425c565b60200260200101516001600160a01b03166001600160a01b031681526020019081526020016000206000016000828254612ef0919061453c565b92505081905550838163ffffffff1681518110612f0f57612f0f61425c565b6020026020010151600c6000878463ffffffff1681518110612f3357612f3361425c565b60200260200101516001600160a01b03166001600160a01b031681526020019081526020016000206001016000828254612f6d91906140a3565b90915550505b612fbb858263ffffffff1681518110612f8e57612f8e61425c565b6020026020010151848363ffffffff1681518110612fae57612fae61425c565b6020026020010151613489565b80612fc581614640565b915050612c09565b505050505050565b6000818152600d602052604090819020805460019091015460055460065493516001600160a01b0393841694859463e6eb8ade94169261302392909190602401918252602082015260400190565b60408051601f198184030181529181526020820180516001600160e01b031663cd56680d60e01b1790525160e084901b6001600160e01b031916815261306d929190600401614664565b600060405180830381600087803b15801561308757600080fd5b505af1158015612fcd573d6000803e3d6000fd5b6000828152600d60205260409081902080546001909101549151637375c56f60e11b81526001600160a01b0391821692839263e6eb8ade926130e592909116908690600401614664565b600060405180830381600087803b1580156130ff57600080fd5b505af1158015613113573d6000803e3d6000fd5b50505050827f218987b934c2f6bc596136829fbf43a5fef4d6fafce41f3f6254d9a870c2deec836040516131479190613c07565b60405180910390a2505050565b60006131a9826040518060400160405280602081526020017f5361666545524332303a206c6f772d6c6576656c2063616c6c206661696c6564815250856001600160a01b031661356a9092919063ffffffff16565b805190915015610e3357808060200190518101906131c79190614086565b610e335760405162461bcd60e51b815260206004820152602a60248201527f5361666545524332303a204552433230206f7065726174696f6e20646964206e6044820152691bdd081cdd58d8d9595960b21b60648201526084016109ef565b600281015460038201546000916132429163ffffffff16613581565b90508082600201600082825461325891906140a3565b909155506132669050610e93565b600392909201805463ffffffff191663ffffffff9093169290921790915550565b8151606090156132b857816040516020016132a29190614688565b6040516020818303038152906040529050610a5a565b816040516020016132a291906146bc565b6060816132ed5750506040805180820190915260018152600360fc1b602082015290565b8160005b811561331757806133018161433c565b91506133109050600a83614064565b91506132f1565b6000816001600160401b038111156133315761333161392c565b6040519080825280601f01601f19166020018201604052801561335b576020820181803683370190505b509050815b85156133e8576133716001826140a3565b90506000613380600a88614064565b61338b90600a61402f565b61339590886140a3565b6133a09060306146e1565b905060008160f81b9050808484815181106133bd576133bd61425c565b60200101906001600160f81b031916908160001a9053506133df600a89614064565b97505050613360565b50949350505050565b6060613400608083901c6135e9565b613409836135e9565b6040805160208101939093528201526060015b6040516020818303038152906040529050919050565b606061344a6001600160801b03602084901c166135e9565b6134658360601b6bffffffffffffffffffffffff19166135e9565b60405160200161341c9291909182526001600160c01b031916602082015260280190565b600a54600090670de0b6b3a7640000906134b390600160601b90046001600160401b03168461402f565b6134bd9190614064565b905060006134cb82846140a3565b90508015613531576001600160a01b0384166000908152600c6020526040812060020180548392906134fe908490613fa4565b90915550506001600160a01b0384166000908152600c60205260408120805483929061352b90849061453c565b90915550505b81156125a8576001600160a01b0384166000908152600e60205260408120805484929061355f908490613fa4565b909155505050505050565b60606135798484600085613781565b949350505050565b6000808261358d610e93565b61359791906140a3565b600a54909150600090670de0b6b3a76400009083906135c690600160201b90046001600160401b03168861402f565b6135d0919061402f565b6135da9190614064565b905084811061357957846126a5565b6000808260001c9050806001600160801b03169050806801000000000000000002811777ffffffffffffffff0000000000000000ffffffffffffffff16905080600160201b0281177bffffffff00000000ffffffff00000000ffffffff00000000ffffffff16905080620100000281177dffff0000ffff0000ffff0000ffff0000ffff0000ffff0000ffff0000ffff169050806101000281177eff00ff00ff00ff00ff00ff00ff00ff00ff00ff00ff00ff00ff00ff00ff00ff1690508060100281177f0f0f0f0f0f0f0f0f0f0f0f0f0f0f0f0f0f0f0f0f0f0f0f0f0f0f0f0f0f0f0f0f16905060006008827f080808080808080808080808080808080808080808080808080808080808080816816137035761370361404e565b0460047f040404040404040404040404040404040404040404040404040404040404040484160460027f020202020202020202020202020202020202020202020202020202020202020285160417166027029091017f3030303030303030303030303030303030303030303030303030303030303030019392505050565b6060824710156137e25760405162461bcd60e51b815260206004820152602660248201527f416464726573733a20696e73756666696369656e742062616c616e636520666f6044820152651c8818d85b1b60d21b60648201526084016109ef565b843b6138305760405162461bcd60e51b815260206004820152601d60248201527f416464726573733a2063616c6c20746f206e6f6e2d636f6e747261637400000060448201526064016109ef565b600080866001600160a01b0316858760405161384c9190614706565b60006040518083038185875af1925050503d8060008114613889576040519150601f19603f3d011682016040523d82523d6000602084013e61388e565b606091505b509150915061251d828286606083156138a8575081612aae565b8251156138b85782518084602001fd5b8160405162461bcd60e51b81526004016109ef9190613c07565b6000602082840312156138e457600080fd5b5035919050565b6001600160a01b0381168114610fc357600080fd5b6000806040838503121561391357600080fd5b823561391e816138eb565b946020939093013593505050565b634e487b7160e01b600052604160045260246000fd5b60405160c081016001600160401b03811182821017156139645761396461392c565b60405290565b604051601f8201601f191681016001600160401b03811182821017156139925761399261392c565b604052919050565b60006001600160401b038211156139b3576139b361392c565b5060051b60200190565b600082601f8301126139ce57600080fd5b813560206139e36139de8361399a565b61396a565b82815260059290921b84018101918181019086841115613a0257600080fd5b8286015b84811015613a1d5780358352918301918301613a06565b509695505050505050565b803560ff81168114611aa657600080fd5b600080600080600060a08688031215613a5157600080fd5b85356001600160401b03811115613a6757600080fd5b613a73888289016139bd565b955050613a8260208701613a28565b94979496505050506040830135926060810135926080909101359150565b600060208284031215613ab257600080fd5b8135612aae816138eb565b8015158114610fc357600080fd5b600080600060608486031215613ae057600080fd5b8335613aeb816138eb565b9250602084013591506040840135613b0281613abd565b809150509250925092565b60008060408385031215613b2057600080fd5b8235613b2b816138eb565b915060208301356001600160401b0381168114613b4757600080fd5b809150509250929050565b600060208284031215613b6457600080fd5b813563ffffffff81168114612aae57600080fd5b600080600060608486031215613b8d57600080fd5b833592506020840135613b9f816138eb565b91506040840135613b02816138eb565b60005b83811015613bca578181015183820152602001613bb2565b838111156125a85750506000910152565b60008151808452613bf3816020860160208601613baf565b601f01601f19169290920160200192915050565b602081526000612aae6020830184613bdb565b60008060208385031215613c2d57600080fd5b82356001600160401b0380821115613c4457600080fd5b818501915085601f830112613c5857600080fd5b813581811115613c6757600080fd5b8660208260051b8501011115613c7c57600080fd5b60209290920196919550909350505050565b6000602080830181845280855180835260408601915060408160051b870101925083870160005b82811015613ce357603f19888603018452613cd1858351613bdb565b94509285019290850190600101613cb5565b5092979650505050505050565b600082601f830112613d0157600080fd5b81356020613d116139de8361399a565b82815260059290921b84018101918181019086841115613d3057600080fd5b8286015b84811015613a1d578035613d47816138eb565b8352918301918301613d34565b60008060408385031215613d6757600080fd5b82356001600160401b0380821115613d7e57600080fd5b9084019060c08287031215613d9257600080fd5b613d9a613942565b82358152602083013582811115613db057600080fd5b613dbc888286016139bd565b602083015250604083013582811115613dd457600080fd5b613de0888286016139bd565b604083015250606083013582811115613df857600080fd5b613e04888286016139bd565b606083015250613e1660808401613a28565b608082015260a083013582811115613e2d57600080fd5b613e3988828601613cf0565b60a08301525093506020850135915080821115613e5557600080fd5b50613e62858286016139bd565b9150509250929050565b60006001600160401b03821115613e8557613e8561392c565b50601f01601f191660200190565b60008060408385031215613ea657600080fd5b8235915060208301356001600160401b03811115613ec357600080fd5b8301601f81018513613ed457600080fd5b8035613ee26139de82613e6c565b818152866020838501011115613ef757600080fd5b816020840160208301376000602083830101528093505050509250929050565b6020808252818101527f4f776e61626c653a2063616c6c6572206973206e6f7420746865206f776e6572604082015260600190565b60208082526022908201527f41637469766520726571756573742068617320756e636c61696d6564206c6561604082015261667360f01b606082015260800190565b634e487b7160e01b600052601160045260246000fd5b60008219821115613fb757613fb7613f8e565b500190565b600081518084526020808501945080840160005b83811015613fec57815187529582019590820190600101613fd0565b509495945050505050565b60808152600061400a6080830187613fbc565b63ffffffff9590951660208301525060ff929092166040830152606090910152919050565b600081600019048311821515161561404957614049613f8e565b500290565b634e487b7160e01b600052601260045260246000fd5b60008261408157634e487b7160e01b600052601260045260246000fd5b500490565b60006020828403121561409857600080fd5b8151612aae81613abd565b6000828210156140b5576140b5613f8e565b500390565b6000602082840312156140cc57600080fd5b5051919050565b60006101208b835263ffffffff808c1660208501528160408501526140fa8285018c613bdb565b6001600160a01b039a8b166060860152608085019990995260a084019790975250509290931660c083015290931660e0840152610100909201919091529392505050565b600061020088835263ffffffff8816602084015280604084015261416481840188613bdb565b91505061417d6060830186516001600160a01b03169052565b60208501516001600160a01b03811660808401525060408501516001600160a01b03811660a084015250606085015180151560c084015250608085015160e083015260a0850151610100818185015260c08701519150610120828186015260e0880151925061014083818701528289015161016087015281890151610180870152808901516101a0870152505050506142226101c08301856001600160a01b03169052565b6001600160a01b0383166101e0830152979650505050505050565b63ffffffff831681526040602082015260006135796040830184613bdb565b634e487b7160e01b600052603260045260246000fd5b6000808335601e1984360301811261428957600080fd5b8301803591506001600160401b038211156142a357600080fd5b6020019150368190038213156142b857600080fd5b9250929050565b8183823760009101908152919050565b6000602082840312156142e157600080fd5b81516001600160401b038111156142f757600080fd5b8201601f8101841361430857600080fd5b80516143166139de82613e6c565b81815285602083850101111561432b57600080fd5b6126a5826020830160208601613baf565b600060001982141561435057614350613f8e565b5060010190565b60006020828403121561436957600080fd5b8151612aae816138eb565b600081518084526020808501945080840160005b83811015613fec5781516001600160a01b031687529582019590820190600101614388565b838152600060206060818401526101208301855160608501528186015160c06080860152818151808452610140870191508483019350600092505b8083101561440857835182529284019260019290920191908401906143e8565b5060408801519350605f199250828682030160a08701526144298185613fbc565b935050506060860151818584030160c08601526144468382613fbc565b925050608086015161445d60e086018260ff169052565b5060a086015181858403016101008601526144788382614374565b92505050828103604084015261448e8185613fbc565b9695505050505050565b600060ff8216806144ab576144ab613f8e565b6000190192915050565b6080815260006144c86080830187613fbc565b6020838203818501526144db8288613fbc565b915083820360408501526144ef8287613fbc565b8481036060860152855180825282870193509082019060005b8181101561452d5784516001600160a01b031683529383019391830191600101614508565b50909998505050505050505050565b600080821280156001600160ff1b038490038513161561455e5761455e613f8e565b600160ff1b839003841281161561457757614577613f8e565b50500190565b60008083128015600160ff1b85018412161561459b5761459b613f8e565b6001600160ff1b03840183138116156145b6576145b6613f8e565b50500390565b6000602082840312156145ce57600080fd5b604051602081018181106001600160401b03821117156145f0576145f061392c565b6040529151825250919050565b6000845161460f818460208901613baf565b845190830190614623818360208901613baf565b8451910190614636818360208801613baf565b0195945050505050565b600063ffffffff8083168181141561465a5761465a613f8e565b6001019392505050565b6001600160a01b038316815260406020820181905260009061357990830184613bdb565b600b60fa1b8152600082516146a4816001850160208701613baf565b601d60f91b6001939091019283015250600201919050565b600082516146ce818460208701613baf565b601d60f91b920191825250600101919050565b600060ff821660ff84168060ff038211156146fe576146fe613f8e565b019392505050565b60008251614718818460208701613baf565b919091019291505056fea2646970667358221220b5e0ea9993edcd10165577246eb7cdfd793e5fd5ca8b9f0b5d46330f944aefff64736f6c634300080b0033",
  "libraries": {
    "MerkleLib": "0x9923dE191259995718f30A2420aA13ED916148B1"
  }
}