{
  "address": "0x2bd28a88A4f9a6D22cF9Bfab99a737E948434780",
  "abi": [
    {
      "inputs": [
        {
          "internalType": "contract LpTokenFactoryInterface",
          "name": "_lpTokenFactory",
          "type": "address"
        },
        {
          "internalType": "contract FinderInterface",
          "name": "_finder",
          "type": "address"
        },
        {
          "internalType": "contract WETH9",
          "name": "_weth",
          "type": "address"
        },
        {
          "internalType": "address",
          "name": "_timer",
          "type": "address"
        }
      ],
      "stateMutability": "nonpayable",
      "type": "constructor"
    },
    {
      "anonymous": false,
      "inputs": [
        {
          "indexed": true,
          "internalType": "address",
          "name": "newBondToken",
          "type": "address"
        },
        {
          "indexed": false,
          "internalType": "uint256",
          "name": "newBondAmount",
          "type": "uint256"
        }
      ],
      "name": "BondSet",
      "type": "event"
    },
    {
      "anonymous": false,
      "inputs": [
        {
          "indexed": false,
          "internalType": "uint256",
          "name": "l2ChainId",
          "type": "uint256"
        },
        {
          "indexed": false,
          "internalType": "address",
          "name": "adapter",
          "type": "address"
        },
        {
          "indexed": false,
          "internalType": "address",
          "name": "spokePool",
          "type": "address"
        }
      ],
      "name": "CrossChainContractsSet",
      "type": "event"
    },
    {
      "anonymous": false,
      "inputs": [
        {
          "indexed": false,
          "internalType": "bytes32",
          "name": "newIdentifier",
          "type": "bytes32"
        }
      ],
      "name": "IdentifierSet",
      "type": "event"
    },
    {
      "anonymous": false,
      "inputs": [
        {
          "indexed": false,
          "internalType": "address",
          "name": "l1Token",
          "type": "address"
        },
        {
          "indexed": false,
          "internalType": "address",
          "name": "lpToken",
          "type": "address"
        }
      ],
      "name": "L1TokenEnabledForLiquidityProvision",
      "type": "event"
    },
    {
      "anonymous": false,
      "inputs": [
        {
          "indexed": false,
          "internalType": "address",
          "name": "l1Token",
          "type": "address"
        },
        {
          "indexed": false,
          "internalType": "address",
          "name": "lpToken",
          "type": "address"
        }
      ],
      "name": "L2TokenDisabledForLiquidityProvision",
      "type": "event"
    },
    {
      "anonymous": false,
      "inputs": [
        {
          "indexed": true,
          "internalType": "address",
          "name": "l1Token",
          "type": "address"
        },
        {
          "indexed": false,
          "internalType": "uint256",
          "name": "amount",
          "type": "uint256"
        },
        {
          "indexed": false,
          "internalType": "uint256",
          "name": "lpTokensMinted",
          "type": "uint256"
        },
        {
          "indexed": true,
          "internalType": "address",
          "name": "liquidityProvider",
          "type": "address"
        }
      ],
      "name": "LiquidityAdded",
      "type": "event"
    },
    {
      "anonymous": false,
      "inputs": [
        {
          "indexed": true,
          "internalType": "address",
          "name": "l1Token",
          "type": "address"
        },
        {
          "indexed": false,
          "internalType": "uint256",
          "name": "amount",
          "type": "uint256"
        },
        {
          "indexed": false,
          "internalType": "uint256",
          "name": "lpTokensBurnt",
          "type": "uint256"
        },
        {
          "indexed": true,
          "internalType": "address",
          "name": "liquidityProvider",
          "type": "address"
        }
      ],
      "name": "LiquidityRemoved",
      "type": "event"
    },
    {
      "anonymous": false,
      "inputs": [
        {
          "indexed": true,
          "internalType": "address",
          "name": "previousOwner",
          "type": "address"
        },
        {
          "indexed": true,
          "internalType": "address",
          "name": "newOwner",
          "type": "address"
        }
      ],
      "name": "OwnershipTransferred",
      "type": "event"
    },
    {
      "anonymous": false,
      "inputs": [
        {
          "indexed": false,
          "internalType": "uint64",
          "name": "requestExpirationTimestamp",
          "type": "uint64"
        },
        {
          "indexed": false,
          "internalType": "uint64",
          "name": "unclaimedPoolRebalanceLeafCount",
          "type": "uint64"
        },
        {
          "indexed": false,
          "internalType": "uint256[]",
          "name": "bundleEvaluationBlockNumbers",
          "type": "uint256[]"
        },
        {
          "indexed": true,
          "internalType": "bytes32",
          "name": "poolRebalanceRoot",
          "type": "bytes32"
        },
        {
          "indexed": true,
          "internalType": "bytes32",
          "name": "relayerRefundRoot",
          "type": "bytes32"
        },
        {
          "indexed": false,
          "internalType": "bytes32",
          "name": "slowRelayFulfillmentRoot",
          "type": "bytes32"
        },
        {
          "indexed": true,
          "internalType": "address",
          "name": "proposer",
          "type": "address"
        }
      ],
      "name": "ProposeRootBundle",
      "type": "event"
    },
    {
      "anonymous": false,
      "inputs": [
        {
          "indexed": true,
          "internalType": "address",
          "name": "newProtocolFeeCaptureAddress",
          "type": "address"
        },
        {
          "indexed": true,
          "internalType": "uint256",
          "name": "newProtocolFeeCapturePct",
          "type": "uint256"
        }
      ],
      "name": "ProtocolFeeCaptureSet",
      "type": "event"
    },
    {
      "anonymous": false,
      "inputs": [
        {
          "indexed": true,
          "internalType": "address",
          "name": "l1Token",
          "type": "address"
        },
        {
          "indexed": true,
          "internalType": "uint256",
          "name": "accumulatedFees",
          "type": "uint256"
        }
      ],
      "name": "ProtocolFeesCapturedClaimed",
      "type": "event"
    },
    {
      "anonymous": false,
      "inputs": [
        {
          "indexed": true,
          "internalType": "address",
          "name": "disputer",
          "type": "address"
        },
        {
          "indexed": false,
          "internalType": "uint256",
          "name": "requestTime",
          "type": "uint256"
        },
        {
          "indexed": false,
          "internalType": "bytes",
          "name": "disputedAncillaryData",
          "type": "bytes"
        }
      ],
      "name": "RootBundleDisputed",
      "type": "event"
    },
    {
      "anonymous": false,
      "inputs": [
        {
          "indexed": true,
          "internalType": "uint256",
          "name": "leafId",
          "type": "uint256"
        },
        {
          "indexed": true,
          "internalType": "uint256",
          "name": "chainId",
          "type": "uint256"
        },
        {
          "indexed": false,
          "internalType": "address[]",
          "name": "l1Token",
          "type": "address[]"
        },
        {
          "indexed": false,
          "internalType": "uint256[]",
          "name": "bundleLpFees",
          "type": "uint256[]"
        },
        {
          "indexed": false,
          "internalType": "int256[]",
          "name": "netSendAmount",
          "type": "int256[]"
        },
        {
          "indexed": false,
          "internalType": "int256[]",
          "name": "runningBalance",
          "type": "int256[]"
        },
        {
          "indexed": true,
          "internalType": "address",
          "name": "caller",
          "type": "address"
        }
      ],
      "name": "RootBundleExecuted",
      "type": "event"
    },
    {
      "anonymous": false,
      "inputs": [
        {
          "indexed": false,
          "internalType": "uint256",
          "name": "newProposalLiveness",
          "type": "uint256"
        }
      ],
      "name": "RootBundleProposalLivenessSet",
      "type": "event"
    },
    {
      "anonymous": false,
      "inputs": [
        {
          "indexed": true,
          "internalType": "uint256",
          "name": "chainId",
          "type": "uint256"
        },
        {
          "indexed": false,
          "internalType": "bytes",
          "name": "message",
          "type": "bytes"
        }
      ],
      "name": "SpokePoolAdminFunctionTriggered",
      "type": "event"
    },
    {
      "anonymous": false,
      "inputs": [
        {
          "indexed": false,
          "internalType": "uint256",
          "name": "destinationChainId",
          "type": "uint256"
        },
        {
          "indexed": false,
          "internalType": "address",
          "name": "originToken",
          "type": "address"
        },
        {
          "indexed": false,
          "internalType": "address",
          "name": "destinationToken",
          "type": "address"
        }
      ],
      "name": "WhitelistRoute",
      "type": "event"
    },
    {
      "stateMutability": "payable",
      "type": "fallback"
    },
    {
      "inputs": [
        {
          "internalType": "address",
          "name": "l1Token",
          "type": "address"
        },
        {
          "internalType": "uint256",
          "name": "l1TokenAmount",
          "type": "uint256"
        }
      ],
      "name": "addLiquidity",
      "outputs": [],
      "stateMutability": "payable",
      "type": "function"
    },
    {
      "inputs": [],
      "name": "bondAmount",
      "outputs": [
        {
          "internalType": "uint256",
          "name": "",
          "type": "uint256"
        }
      ],
      "stateMutability": "view",
      "type": "function"
    },
    {
      "inputs": [],
      "name": "bondToken",
      "outputs": [
        {
          "internalType": "contract IERC20",
          "name": "",
          "type": "address"
        }
      ],
      "stateMutability": "view",
      "type": "function"
    },
    {
      "inputs": [
        {
          "internalType": "address",
          "name": "l1Token",
          "type": "address"
        }
      ],
      "name": "claimProtocolFeesCaptured",
      "outputs": [],
      "stateMutability": "nonpayable",
      "type": "function"
    },
    {
      "inputs": [
        {
          "internalType": "uint256",
          "name": "",
          "type": "uint256"
        }
      ],
      "name": "crossChainContracts",
      "outputs": [
        {
          "internalType": "contract AdapterInterface",
          "name": "adapter",
          "type": "address"
        },
        {
          "internalType": "address",
          "name": "spokePool",
          "type": "address"
        }
      ],
      "stateMutability": "view",
      "type": "function"
    },
    {
      "inputs": [],
      "name": "depositEthToWeth",
      "outputs": [],
      "stateMutability": "payable",
      "type": "function"
    },
    {
      "inputs": [
        {
          "internalType": "address",
          "name": "l1Token",
          "type": "address"
        }
      ],
      "name": "disableL1TokenForLiquidityProvision",
      "outputs": [],
      "stateMutability": "nonpayable",
      "type": "function"
    },
    {
      "inputs": [],
      "name": "disputeRootBundle",
      "outputs": [],
      "stateMutability": "nonpayable",
      "type": "function"
    },
    {
      "inputs": [
        {
          "internalType": "address",
          "name": "l1Token",
          "type": "address"
        }
      ],
      "name": "enableL1TokenForLiquidityProvision",
      "outputs": [],
      "stateMutability": "nonpayable",
      "type": "function"
    },
    {
      "inputs": [
        {
          "internalType": "address",
          "name": "l1Token",
          "type": "address"
        }
      ],
      "name": "exchangeRateCurrent",
      "outputs": [
        {
          "internalType": "uint256",
          "name": "",
          "type": "uint256"
        }
      ],
      "stateMutability": "nonpayable",
      "type": "function"
    },
    {
      "inputs": [
        {
          "components": [
            {
              "internalType": "uint256",
              "name": "chainId",
              "type": "uint256"
            },
            {
              "internalType": "uint256[]",
              "name": "bundleLpFees",
              "type": "uint256[]"
            },
            {
              "internalType": "int256[]",
              "name": "netSendAmounts",
              "type": "int256[]"
            },
            {
              "internalType": "int256[]",
              "name": "runningBalances",
              "type": "int256[]"
            },
            {
              "internalType": "uint8",
              "name": "leafId",
              "type": "uint8"
            },
            {
              "internalType": "address[]",
              "name": "l1Tokens",
              "type": "address[]"
            }
          ],
          "internalType": "struct HubPoolInterface.PoolRebalanceLeaf",
          "name": "poolRebalanceLeaf",
          "type": "tuple"
        },
        {
          "internalType": "bytes32[]",
          "name": "proof",
          "type": "bytes32[]"
        }
      ],
      "name": "executeRootBundle",
      "outputs": [],
      "stateMutability": "nonpayable",
      "type": "function"
    },
    {
      "inputs": [],
      "name": "finder",
      "outputs": [
        {
          "internalType": "contract FinderInterface",
          "name": "",
          "type": "address"
        }
      ],
      "stateMutability": "view",
      "type": "function"
    },
    {
      "inputs": [],
      "name": "getCurrentTime",
      "outputs": [
        {
          "internalType": "uint256",
          "name": "",
          "type": "uint256"
        }
      ],
      "stateMutability": "view",
      "type": "function"
    },
    {
      "inputs": [],
      "name": "getRootBundleProposalAncillaryData",
      "outputs": [
        {
          "internalType": "bytes",
          "name": "ancillaryData",
          "type": "bytes"
        }
      ],
      "stateMutability": "view",
      "type": "function"
    },
    {
      "inputs": [],
      "name": "identifier",
      "outputs": [
        {
          "internalType": "bytes32",
          "name": "",
          "type": "bytes32"
        }
      ],
      "stateMutability": "view",
      "type": "function"
    },
    {
      "inputs": [
        {
          "internalType": "address",
          "name": "l1Token",
          "type": "address"
        }
      ],
      "name": "liquidityUtilizationCurrent",
      "outputs": [
        {
          "internalType": "uint256",
          "name": "",
          "type": "uint256"
        }
      ],
      "stateMutability": "nonpayable",
      "type": "function"
    },
    {
      "inputs": [
        {
          "internalType": "address",
          "name": "l1Token",
          "type": "address"
        },
        {
          "internalType": "uint256",
          "name": "relayedAmount",
          "type": "uint256"
        }
      ],
      "name": "liquidityUtilizationPostRelay",
      "outputs": [
        {
          "internalType": "uint256",
          "name": "",
          "type": "uint256"
        }
      ],
      "stateMutability": "nonpayable",
      "type": "function"
    },
    {
      "inputs": [],
      "name": "lpFeeRatePerSecond",
      "outputs": [
        {
          "internalType": "uint256",
          "name": "",
          "type": "uint256"
        }
      ],
      "stateMutability": "view",
      "type": "function"
    },
    {
      "inputs": [],
      "name": "lpTokenFactory",
      "outputs": [
        {
          "internalType": "contract LpTokenFactoryInterface",
          "name": "",
          "type": "address"
        }
      ],
      "stateMutability": "view",
      "type": "function"
    },
    {
      "inputs": [
        {
          "internalType": "bytes[]",
          "name": "data",
          "type": "bytes[]"
        }
      ],
      "name": "multicall",
      "outputs": [
        {
          "internalType": "bytes[]",
          "name": "results",
          "type": "bytes[]"
        }
      ],
      "stateMutability": "payable",
      "type": "function"
    },
    {
      "inputs": [],
      "name": "owner",
      "outputs": [
        {
          "internalType": "address",
          "name": "",
          "type": "address"
        }
      ],
      "stateMutability": "view",
      "type": "function"
    },
    {
      "inputs": [
        {
          "internalType": "address",
          "name": "",
          "type": "address"
        }
      ],
      "name": "pooledTokens",
      "outputs": [
        {
          "internalType": "address",
          "name": "lpToken",
          "type": "address"
        },
        {
          "internalType": "bool",
          "name": "isEnabled",
          "type": "bool"
        },
        {
          "internalType": "uint32",
          "name": "lastLpFeeUpdate",
          "type": "uint32"
        },
        {
          "internalType": "int256",
          "name": "utilizedReserves",
          "type": "int256"
        },
        {
          "internalType": "uint256",
          "name": "liquidReserves",
          "type": "uint256"
        },
        {
          "internalType": "uint256",
          "name": "undistributedLpFees",
          "type": "uint256"
        }
      ],
      "stateMutability": "view",
      "type": "function"
    },
    {
      "inputs": [
        {
          "internalType": "uint256[]",
          "name": "bundleEvaluationBlockNumbers",
          "type": "uint256[]"
        },
        {
          "internalType": "uint8",
          "name": "poolRebalanceLeafCount",
          "type": "uint8"
        },
        {
          "internalType": "bytes32",
          "name": "poolRebalanceRoot",
          "type": "bytes32"
        },
        {
          "internalType": "bytes32",
          "name": "relayerRefundRoot",
          "type": "bytes32"
        },
        {
          "internalType": "bytes32",
          "name": "slowRelayFulfillmentRoot",
          "type": "bytes32"
        }
      ],
      "name": "proposeRootBundle",
      "outputs": [],
      "stateMutability": "nonpayable",
      "type": "function"
    },
    {
      "inputs": [],
      "name": "protocolFeeCaptureAddress",
      "outputs": [
        {
          "internalType": "address",
          "name": "",
          "type": "address"
        }
      ],
      "stateMutability": "view",
      "type": "function"
    },
    {
      "inputs": [],
      "name": "protocolFeeCapturePct",
      "outputs": [
        {
          "internalType": "uint256",
          "name": "",
          "type": "uint256"
        }
      ],
      "stateMutability": "view",
      "type": "function"
    },
    {
      "inputs": [
        {
          "internalType": "uint256",
          "name": "chainId",
          "type": "uint256"
        },
        {
          "internalType": "bytes",
          "name": "functionData",
          "type": "bytes"
        }
      ],
      "name": "relaySpokePoolAdminFunction",
      "outputs": [],
      "stateMutability": "nonpayable",
      "type": "function"
    },
    {
      "inputs": [
        {
          "internalType": "address",
          "name": "l1Token",
          "type": "address"
        },
        {
          "internalType": "uint256",
          "name": "lpTokenAmount",
          "type": "uint256"
        },
        {
          "internalType": "bool",
          "name": "sendEth",
          "type": "bool"
        }
      ],
      "name": "removeLiquidity",
      "outputs": [],
      "stateMutability": "nonpayable",
      "type": "function"
    },
    {
      "inputs": [],
      "name": "renounceOwnership",
      "outputs": [],
      "stateMutability": "nonpayable",
      "type": "function"
    },
    {
      "inputs": [],
      "name": "rootBundleProposal",
      "outputs": [
        {
          "internalType": "uint64",
          "name": "requestExpirationTimestamp",
          "type": "uint64"
        },
        {
          "internalType": "uint64",
          "name": "unclaimedPoolRebalanceLeafCount",
          "type": "uint64"
        },
        {
          "internalType": "bytes32",
          "name": "poolRebalanceRoot",
          "type": "bytes32"
        },
        {
          "internalType": "bytes32",
          "name": "relayerRefundRoot",
          "type": "bytes32"
        },
        {
          "internalType": "bytes32",
          "name": "slowRelayFulfillmentRoot",
          "type": "bytes32"
        },
        {
          "internalType": "uint256",
          "name": "claimedBitMap",
          "type": "uint256"
        },
        {
          "internalType": "address",
          "name": "proposer",
          "type": "address"
        },
        {
          "internalType": "bool",
          "name": "proposerBondRepaid",
          "type": "bool"
        }
      ],
      "stateMutability": "view",
      "type": "function"
    },
    {
      "inputs": [],
      "name": "rootBundleProposalLiveness",
      "outputs": [
        {
          "internalType": "uint64",
          "name": "",
          "type": "uint64"
        }
      ],
      "stateMutability": "view",
      "type": "function"
    },
    {
      "inputs": [
        {
          "internalType": "contract IERC20",
          "name": "newBondToken",
          "type": "address"
        },
        {
          "internalType": "uint256",
          "name": "newBondAmount",
          "type": "uint256"
        }
      ],
      "name": "setBond",
      "outputs": [],
      "stateMutability": "nonpayable",
      "type": "function"
    },
    {
      "inputs": [
        {
          "internalType": "uint256",
          "name": "l2ChainId",
          "type": "uint256"
        },
        {
          "internalType": "address",
          "name": "adapter",
          "type": "address"
        },
        {
          "internalType": "address",
          "name": "spokePool",
          "type": "address"
        }
      ],
      "name": "setCrossChainContracts",
      "outputs": [],
      "stateMutability": "nonpayable",
      "type": "function"
    },
    {
      "inputs": [
        {
          "internalType": "uint256",
          "name": "time",
          "type": "uint256"
        }
      ],
      "name": "setCurrentTime",
      "outputs": [],
      "stateMutability": "nonpayable",
      "type": "function"
    },
    {
      "inputs": [
        {
          "internalType": "bytes32",
          "name": "newIdentifier",
          "type": "bytes32"
        }
      ],
      "name": "setIdentifier",
      "outputs": [],
      "stateMutability": "nonpayable",
      "type": "function"
    },
    {
      "inputs": [
        {
          "internalType": "address",
          "name": "newProtocolFeeCaptureAddress",
          "type": "address"
        },
        {
          "internalType": "uint256",
          "name": "newProtocolFeeCapturePct",
          "type": "uint256"
        }
      ],
      "name": "setProtocolFeeCapture",
      "outputs": [],
      "stateMutability": "nonpayable",
      "type": "function"
    },
    {
      "inputs": [
        {
          "internalType": "uint64",
          "name": "newProposalLiveness",
          "type": "uint64"
        }
      ],
      "name": "setRootBundleProposalLiveness",
      "outputs": [],
      "stateMutability": "nonpayable",
      "type": "function"
    },
    {
      "inputs": [
        {
          "internalType": "address",
          "name": "l1Token",
          "type": "address"
        }
      ],
      "name": "sync",
      "outputs": [],
      "stateMutability": "nonpayable",
      "type": "function"
    },
    {
      "inputs": [],
      "name": "timerAddress",
      "outputs": [
        {
          "internalType": "address",
          "name": "",
          "type": "address"
        }
      ],
      "stateMutability": "view",
      "type": "function"
    },
    {
      "inputs": [
        {
          "internalType": "address",
          "name": "newOwner",
          "type": "address"
        }
      ],
      "name": "transferOwnership",
      "outputs": [],
      "stateMutability": "nonpayable",
      "type": "function"
    },
    {
      "inputs": [
        {
          "internalType": "address",
          "name": "",
          "type": "address"
        }
      ],
      "name": "unclaimedAccumulatedProtocolFees",
      "outputs": [
        {
          "internalType": "uint256",
          "name": "",
          "type": "uint256"
        }
      ],
      "stateMutability": "view",
      "type": "function"
    },
    {
      "inputs": [],
      "name": "weth",
      "outputs": [
        {
          "internalType": "contract WETH9",
          "name": "",
          "type": "address"
        }
      ],
      "stateMutability": "view",
      "type": "function"
    },
    {
      "inputs": [
        {
          "internalType": "uint256",
          "name": "destinationChainId",
          "type": "uint256"
        },
        {
          "internalType": "address",
          "name": "originToken",
          "type": "address"
        },
        {
          "internalType": "address",
          "name": "destinationToken",
          "type": "address"
        }
      ],
      "name": "whitelistRoute",
      "outputs": [],
      "stateMutability": "nonpayable",
      "type": "function"
    },
    {
      "inputs": [
        {
          "internalType": "address",
          "name": "",
          "type": "address"
        },
        {
          "internalType": "uint256",
          "name": "",
          "type": "uint256"
        }
      ],
      "name": "whitelistedRoutes",
      "outputs": [
        {
          "internalType": "address",
          "name": "",
          "type": "address"
        }
      ],
      "stateMutability": "view",
      "type": "function"
    },
    {
      "stateMutability": "payable",
      "type": "receive"
    }
  ],
  "transactionHash": "0xb111e0a00c517fdc6452459cac66da11ab0e0559f5f11383c716ac23f5e097e5",
  "args": [
    "0x19855F38DF59aeE9A2924042BbB39C9c3bC6d139",
    "0xeD0169a88d267063184b0853BaAAAe66c3c154B2",
    "0xd0A1E359811322d97991E03f863a0C30C2cF029C",
    "0x0000000000000000000000000000000000000000"
  ],
  "numDeployments": 1,
  "solcInputHash": "ad85f0eb3a03cbb5022470de8709e02e",
  "bytecode": "0x60806040527f49535f4143524f53535f56325f42554e444c455f56414c494400000000000000600e5565015d3ef79800600f55601580546001600160401b031916611c201790553480156200005357600080fd5b506040516200483b3803806200483b833981016040819052620000769162000169565b600080546001600160a81b0319166001600160a01b03831617600160a01b179055620000a9620000a33390565b620000fe565b50600c80546001600160a01b03199081166001600160a01b0395861617909155600d8054821693851693909317909255600b8054831691841691909117905560015460118054919093169116179055620001d1565b600180546001600160a01b038381166001600160a01b0319831681179093556040519116919082907f8be0079c531659141344cd1fd0a4f28419497f9722a3daafe3b4186f6b6457e090600090a35050565b6001600160a01b03811681146200016657600080fd5b50565b600080600080608085870312156200018057600080fd5b84516200018d8162000150565b6020860151909450620001a08162000150565b6040860151909350620001b38162000150565b6060860151909250620001c68162000150565b939692955090935050565b61465a80620001e16000396000f3fe60806040526004361061025e5760003560e01c80635fb6befe11610144578063ac9650d8116100b6578063dd70e5e81161007a578063dd70e5e8146107cc578063e0f339e3146107ec578063e40064d71461080c578063e460e35c14610839578063f0056a7d14610859578063f2fde38b146108fe5761026d565b8063ac9650d81461070b578063b60c2d7d1461072b578063b9a3c84c1461074b578063bb9219a21461076b578063c28f4392146107ac5761026d565b80637998a1c4116101085780637998a1c41461066157806380f323a7146106775780638bda0c001461068d5780638da5cb5b146106ad578063a16fd6e9146106cb578063a5841194146106eb5761026d565b80635fb6befe146105b457806362548f43146105d45780636af352d3146105f4578063715018a61461062c57806376ec08dd146106415761026d565b806322f8e566116101dd57806338b9e2ce116101a157806338b9e2ce146104a35780633fc8cef3146104c35780634144fd61146104e35780634f7473ff1461058b578063552188a71461026d57806356688700146105a15761026d565b806322f8e5661461040e578063240f475f1461042e57806329cb924d1461044e5780632d0f6f841461046357806333dc09ca146104835761026d565b80630c501af9116102245780630c501af91461036b5780630ee28a881461038b57806311cfc159146103ab5780631c39c38d146103c157806322395aaa146103f95761026d565b8062660b5314610275578062c9920614610295578063084d0513146102b557806309474ae2146102e85780630a2dc9ec146103495761026d565b3661026d5761026b61091e565b005b61026b61091e565b34801561028157600080fd5b5061026b6102903660046138c0565b61099c565b3480156102a157600080fd5b5061026b6102b03660046138ec565b610a7a565b3480156102c157600080fd5b506102d56102d03660046138c0565b610ae0565b6040519081526020015b60405180910390f35b3480156102f457600080fd5b506103296103033660046138ec565b600a60205260009081526040902080546001909101546001600160a01b03918216911682565b604080516001600160a01b039384168152929091166020830152016102df565b34801561035557600080fd5b5061035e610b0c565b6040516102df919061395d565b34801561037757600080fd5b5061026b610386366004613970565b610ced565b34801561039757600080fd5b5061026b6103a636600461399b565b610d78565b3480156103b757600080fd5b506102d5600f5481565b3480156103cd57600080fd5b506000546103e1906001600160a01b031681565b6040516001600160a01b0390911681526020016102df565b34801561040557600080fd5b5061026b610f3a565b34801561041a57600080fd5b5061026b6104293660046138ec565b61127f565b34801561043a57600080fd5b506011546103e1906001600160a01b031681565b34801561045a57600080fd5b506102d56112da565b34801561046f57600080fd5b5061026b61047e366004613970565b611366565b34801561048f57600080fd5b5061026b61049e3660046138c0565b611408565b3480156104af57600080fd5b5061026b6104be366004613b4e565b6114bc565b3480156104cf57600080fd5b50600b546103e1906001600160a01b031681565b3480156104ef57600080fd5b5060025460035460045460055460065460075461053a956001600160401b0380821696600160401b90920416949093909290916001600160a01b03811690600160a01b900460ff1688565b604080516001600160401b03998a168152989097166020890152958701949094526060860192909252608085015260a08401526001600160a01b031660c0830152151560e0820152610100016102df565b34801561059757600080fd5b506102d560125481565b61026b6105af3660046138c0565b6116ea565b3480156105c057600080fd5b5061026b6105cf366004613c66565b611967565b3480156105e057600080fd5b5061026b6105ef366004613c8f565b6119e0565b34801561060057600080fd5b50601554610614906001600160401b031681565b6040516001600160401b0390911681526020016102df565b34801561063857600080fd5b5061026b611ae9565b34801561064d57600080fd5b50600c546103e1906001600160a01b031681565b34801561066d57600080fd5b506102d5600e5481565b34801561068357600080fd5b506102d560145481565b34801561069957600080fd5b5061026b6106a8366004613cc6565b611b1d565b3480156106b957600080fd5b506001546001600160a01b03166103e1565b3480156106d757600080fd5b506102d56106e6366004613970565b611c94565b3480156106f757600080fd5b5061026b610706366004613970565b611cc0565b61071e610719366004613d2d565b611ce1565b6040516102df9190613da1565b34801561073757600080fd5b5061026b610746366004613970565b611e86565b34801561075757600080fd5b50600d546103e1906001600160a01b031681565b34801561077757600080fd5b506103e16107863660046138c0565b60086020908152600092835260408084209091529082529020546001600160a01b031681565b3480156107b857600080fd5b506013546103e1906001600160a01b031681565b3480156107d857600080fd5b5061026b6107e7366004613e2a565b612026565b3480156107f857600080fd5b506102d5610807366004613970565b612072565b34801561081857600080fd5b506102d5610827366004613970565b60106020526000908152604090205481565b34801561084557600080fd5b5061026b610854366004613c8f565b61208d565b34801561086557600080fd5b506108bc610874366004613970565b60096020526000908152604090208054600182015460028301546003909301546001600160a01b03831693600160a01b840460ff1693600160a81b900463ffffffff16929186565b604080516001600160a01b039097168752941515602087015263ffffffff909316938501939093526060840152608083019190915260a082015260c0016102df565b34801561090a57600080fd5b5061026b610919366004613970565b6121d7565b600054600160a01b900460ff161561099a57600b60009054906101000a90046001600160a01b03166001600160a01b031663d0e30db0476040518263ffffffff1660e01b81526004016000604051808303818588803b15801561098057600080fd5b505af1158015610994573d6000803e3d6000fd5b50505050505b565b6001546001600160a01b031633146109cf5760405162461bcd60e51b81526004016109c690613eae565b60405180910390fd5b670de0b6b3a7640000811115610a275760405162461bcd60e51b815260206004820152601960248201527f4261642070726f746f636f6c466565436170747572655063740000000000000060448201526064016109c6565b601180546001600160a01b0319166001600160a01b03841690811790915560128290556040518291907fc1993b89fd79a19ece7beb067ddc8534ca26d29c0ff94ea2f53b4a508d1eedc990600090a35050565b6001546001600160a01b03163314610aa45760405162461bcd60e51b81526004016109c690613eae565b600e8190556040518181527ff45367c278fcceff23d601ce4bdd191e5bd61687ff9f29dc7276a08fe54c0c5d906020015b60405180910390a150565b6000610aea61226f565b610af26122c8565b610afc83836122d7565b9050610b066123cc565b92915050565b6040805160208082018352600082528251808401909352601a83527f7265717565737445787069726174696f6e54696d657374616d7000000000000090830152600254606092610b6592916001600160401b03166123e1565b60408051808201909152601f81527f756e636c61696d6564506f6f6c526562616c616e63654c656166436f756e74006020820152600254919250610bbb91839190600160401b90046001600160401b03166123e1565b9050610bf681604051806040016040528060118152602001701c1bdbdb149958985b185b98d9549bdbdd607a1b815250600260010154612428565b9050610c3081604051806040016040528060118152602001701c995b185e595c9499599d5b99149bdbdd607a1b8152506002800154612428565b9050610c77816040518060400160405280601881526020017f736c6f7752656c617946756c66696c6c6d656e74526f6f740000000000000000815250600260030154612428565b9050610cae816040518060400160405280600d81526020016c0636c61696d65644269744d617609c1b8152506002600401546123e1565b604080518082019091526008815267383937b837b9b2b960c11b6020820152600754919250610ce8918391906001600160a01b0316612443565b905090565b6001546001600160a01b03163314610d175760405162461bcd60e51b81526004016109c690613eae565b6001600160a01b03818116600081815260096020908152604091829020805460ff60a01b1981169091558251938452909316928201929092527fac111b3b527b307393c94d98f26140effb71411054466818be97912d2d65f7769101610ad5565b610d8061226f565b610d886122c8565b600b546001600160a01b0384811691161480610da2575080155b610dde5760405162461bcd60e51b815260206004820152600d60248201526c086c2dce840e6cadcc840cae8d609b1b60448201526064016109c6565b6000670de0b6b3a7640000610df28561245e565b610dfc9085613ef9565b610e069190613f2e565b6001600160a01b038581166000908152600960205260409081902054905163079cc67960e41b81523360048201526024810187905292935016906379cc6790906044016020604051808303816000875af1158015610e68573d6000803e3d6000fd5b505050506040513d601f19601f82011682018060405250810190610e8c9190613f42565b506001600160a01b03841660009081526009602052604081206002018054839290610eb8908490613f5f565b90915550508115610ed257610ecd3382612556565b610ee6565b610ee66001600160a01b0385163383612611565b604080518281526020810185905233916001600160a01b038716917fcda1185f28599e6bd14ab8a68b3c30a11e1dce4256b5e67e94dd3fd846a6c589910160405180910390a350610f356123cc565b505050565b610f4261226f565b610f4a6122c8565b6002546001600160401b0316610f5e6112da565b1115610fac5760405162461bcd60e51b815260206004820152601760248201527f5265717565737420706173736564206c6976656e65737300000000000000000060448201526064016109c6565b6000601454610fb9612674565b610fc39190613f76565b90506000610fcf610b0c565b601354909150610fea906001600160a01b031633308561275c565b611013610ff561279a565b611000846002613ef9565b6013546001600160a01b03169190612820565b61101b61279a565b6001600160a01b031663af355d1e600e546110346112da565b60135460145460155460075460405160e088901b6001600160e01b031916815261108f9695948a946001600160a01b039182169460009491936001600160401b039091169290911690670de0b6b3a764000090600401613f8e565b6020604051808303816000875af11580156110ae573d6000803e3d6000fd5b505050506040513d601f19601f820116820180604052508101906110d29190613ffe565b5060408051610160810182526007546001600160a01b0390811682526000602083018190526013549091169282019290925260608101829052670de0b6b3a7640000608082015260a0810182905260155460c08201906001600160401b03166111396112da565b6111439190613f76565b815260200160008152602001611157612674565b815260145460208201526015546001600160401b0316604090910152905061117d61279a565b6001600160a01b0316639ce320c8600e546111966112da565b858533306040518763ffffffff1660e01b81526004016111bb96959493929190614017565b6020604051808303816000875af11580156111da573d6000803e3d6000fd5b505050506040513d601f19601f820116820180604052508101906111fe9190613ffe565b50337f4c789f44a7398cb63bf580e03ad5a7ec8228ea4935d3c1a1135eb449f0bb301b6112296112da565b84604051611238929190614116565b60405180910390a25050600280546001600160801b0319169055506000600381905560048190556005819055600655600780546001600160a81b031916905561099a6123cc565b6000546001600160a01b031661129457600080fd5b60005460405163117c72b360e11b8152600481018390526001600160a01b03909116906322f8e56690602401600060405180830381600087803b15801561098057600080fd5b600080546001600160a01b0316156113615760008054906101000a90046001600160a01b03166001600160a01b03166329cb924d6040518163ffffffff1660e01b8152600401602060405180830381865afa15801561133d573d6000803e3d6000fd5b505050506040513d601f19601f82011682018060405250810190610ce89190613ffe565b504290565b61136e61226f565b6113766122c8565b6011546001600160a01b038281166000818152601060205260409020546113a293919290911690612611565b6001600160a01b0381166000818152601060205260408082205490519092917f74740239d7d696c84422b720e125e1f47c4138c66d1f4d2a48e99f4197cdb79c91a36001600160a01b0381166000908152601060205260408120556114056123cc565b50565b6001546001600160a01b031633146114325760405162461bcd60e51b81526004016109c690613eae565b600254600160401b90046001600160401b0316156114625760405162461bcd60e51b81526004016109c69061412f565b601380546001600160a01b0319166001600160a01b03841690811790915560148290556040518281527fbfa9a96010167e98ce8c004f718932cbbfd33a58d681c752e693be7d457a1b3b9060200160405180910390a25050565b6114c461226f565b6114cc6122c8565b6002546001600160401b03166114e06112da565b10156115245760405162461bcd60e51b81526020600482015260136024820152724e6f7420706173736564206c6976656e65737360681b60448201526064016109c6565b6006546080830151600160ff9091161b90811614156115775760405162461bcd60e51b815260206004820152600f60248201526e105b1c9958591e4818db185a5b5959608a1b60448201526064016109c6565b600354611585908383612935565b6115bd5760405162461bcd60e51b81526020600482015260096024820152682130b210283937b7b360b91b60448201526064016109c6565b6115d3600260040154836080015160ff16612970565b60065560028054600160401b90046001600160401b03169060086115f683614166565b91906101000a8154816001600160401b0302191690836001600160401b031602179055505061163782600001518360a00151846040015185602001516129d3565b815161164290612db9565b600254600160401b90046001600160401b031661167a5760075460145460135461167a926001600160a01b0391821692911690612611565b336001600160a01b03168260000151836080015160ff167f269bcb1817facd431d586b474ce46fe1ca2921cd1a19314c01a606804ea8b9458560a001518660200151876040015188606001516040516116d694939291906141fd565b60405180910390a46116e66123cc565b5050565b6001600160a01b038216600090815260096020526040902054600160a01b900460ff1661174d5760405162461bcd60e51b8152602060048201526011602482015270151bdad95b881b9bdd08195b98589b1959607a1b60448201526064016109c6565b600b546001600160a01b03838116911614801561176957508034145b80611772575034155b6117ae5760405162461bcd60e51b815260206004820152600d60248201526c426164206d73672e76616c756560981b60448201526064016109c6565b60006117b98361245e565b6117cb83670de0b6b3a7640000613ef9565b6117d59190613f2e565b6001600160a01b03848116600090815260096020526040908190205490516340c10f1960e01b81523360048201526024810184905292935016906340c10f19906044016020604051808303816000875af1158015611837573d6000803e3d6000fd5b505050506040513d601f19601f8201168201806040525081019061185b9190613f42565b506001600160a01b03831660009081526009602052604081206002018054849290611887908490613f76565b9091555050600b546001600160a01b0384811691161480156118a95750600034115b1561190757826001600160a01b031663d0e30db0346040518263ffffffff1660e01b81526004016000604051808303818588803b1580156118e957600080fd5b505af11580156118fd573d6000803e3d6000fd5b505050505061191c565b61191c6001600160a01b03841633308561275c565b604080518381526020810183905233916001600160a01b038616917f3c69701a61c79a92ef9692903aaa0068bce8771361ecb09547391e4fb4df8537910160405180910390a3505050565b6001546001600160a01b031633146119915760405162461bcd60e51b81526004016109c690613eae565b6015805467ffffffffffffffff19166001600160401b0383169081179091556040519081527ffa0972e72abf0cf01c6ae42e1d42e1cf2f2ee7ec6c33b05bec9d06bb1bde687690602001610ad5565b6001546001600160a01b03163314611a0a5760405162461bcd60e51b81526004016109c690613eae565b6001600160a01b0382811660008181526008602090815260408083208884529091529081902080546001600160a01b03191693851693909317909255905160248101919091526044810184905260016064820152611a9690849060840160408051601f198184030181529190526020810180516001600160e01b031663272751c760e01b179052612e7f565b604080518481526001600160a01b0380851660208301528316918101919091527f15364d43c1df20e982c1b7bf8cd4536632d76a488308b3cdc3e085c22f1f8107906060015b60405180910390a1505050565b6001546001600160a01b03163314611b135760405162461bcd60e51b81526004016109c690613eae565b61099a6000612f38565b611b2561226f565b611b2d6122c8565b600254600160401b90046001600160401b031615611b5d5760405162461bcd60e51b81526004016109c69061412f565b60008460ff1611611bb05760405162461bcd60e51b815260206004820181905260248201527f42756e646c65206d7573742068617665206174206c656173742031206c65616660448201526064016109c6565b6015546000906001600160401b0316611bc76112da565b611bd19190613f76565b600280546000600655600780546001600160801b03199092166001600160401b03851617600160401b60ff8b1602179092556003879055600486905560058590556001600160a81b03191633908117909155601454601354929350611c42926001600160a01b03169190309061275c565b336001600160a01b031683857fc8af40a0d5158e00ff775a1ed68cc732ad2636d1c595398cb3f8fd14ec32295e84898b88604051611c83949392919061424a565b60405180910390a4506109946123cc565b6000611c9e61226f565b611ca66122c8565b611cb18260006122d7565b9050611cbb6123cc565b919050565b611cc861226f565b611cd06122c8565b611cd981612f8a565b6114056123cc565b60603415611d315760405162461bcd60e51b815260206004820152601b60248201527f4f6e6c79206d756c746963616c6c207769746820302076616c7565000000000060448201526064016109c6565b816001600160401b03811115611d4957611d496139dd565b604051908082528060200260200182016040528015611d7c57816020015b6060815260200190600190039081611d675790505b50905060005b82811015611e7f5760008030868685818110611da057611da0614286565b9050602002810190611db2919061429c565b604051611dc09291906142e9565b600060405180830381855af49150503d8060008114611dfb576040519150601f19603f3d011682016040523d82523d6000602084013e611e00565b606091505b509150915081611e4c57604481511015611e1957600080fd5b60048101905080806020019051810190611e3391906142f9565b60405162461bcd60e51b81526004016109c6919061395d565b80848481518110611e5f57611e5f614286565b602002602001018190525050508080611e7790614366565b915050611d82565b5092915050565b6001546001600160a01b03163314611eb05760405162461bcd60e51b81526004016109c690613eae565b6001600160a01b0381811660009081526009602052604090205416611f6f57600c54604051637e178db760e11b81526001600160a01b0383811660048301529091169063fc2f1b6e906024016020604051808303816000875af1158015611f1b573d6000803e3d6000fd5b505050506040513d601f19601f82011682018060405250810190611f3f9190614381565b6001600160a01b03828116600090815260096020526040902080546001600160a01b031916929091169190911790555b6001600160a01b0381166000908152600960205260409020805460ff60a01b1916600160a01b179055611fa06112da565b6001600160a01b0380831660009081526009602052604090819020805463ffffffff94909416600160a81b0263ffffffff60a81b198516811790915590517f04e291c80180d65a57b5bf1bed775777ec0d6f283ef34bcf130712714d8bb7f793610ad59386938116911617906001600160a01b0392831681529116602082015260400190565b6001546001600160a01b031633146120505760405162461bcd60e51b81526004016109c690613eae565b61205861226f565b6120606122c8565b61206a8282612e7f565b6116e66123cc565b600061207c61226f565b6120846122c8565b611cb18261245e565b6001546001600160a01b031633146120b75760405162461bcd60e51b81526004016109c690613eae565b600254600160401b90046001600160401b0316156120e75760405162461bcd60e51b81526004016109c69061412f565b6000838152600a60205260409020546001600160a01b0316156121435760405162461bcd60e51b815260206004820152601460248201527310dbdb9d1c9858dd08185b1c9958591e481cd95d60621b60448201526064016109c6565b6040805180820182526001600160a01b03848116808352848216602080850182815260008a8152600a8352879020955186549086166001600160a01b031991821617875590516001909601805496909516951694909417909255835187815292830152918101919091527f36050d958750e6ac3aa674ac7bbe8d0ae6a2f7d4b808e8c2c42c1f22fc9fc4bb90606001611adc565b6001546001600160a01b031633146122015760405162461bcd60e51b81526004016109c690613eae565b6001600160a01b0381166122665760405162461bcd60e51b815260206004820152602660248201527f4f776e61626c653a206e6577206f776e657220697320746865207a65726f206160448201526564647265737360d01b60648201526084016109c6565b61140581612f38565b600054600160a01b900460ff1661099a5760405162461bcd60e51b815260206004820152601f60248201527f5265656e7472616e637947756172643a207265656e7472616e742063616c6c0060448201526064016109c6565b6000805460ff60a01b19169055565b60006122e283612f8a565b6001600160a01b038381166000908152600960209081526040808320815160c08101835281549586168152600160a01b860460ff16151593810193909352600160a81b90940463ffffffff16908201526001830154606082018190526002840154608083015260039093015460a0820152918112612361576000612367565b81606001515b905060006123758286613f76565b905060008284608001516123899190613f76565b9050806123a457670de0b6b3a7640000945050505050610b06565b806123b783670de0b6b3a7640000613ef9565b6123c19190613f2e565b979650505050505050565b6000805460ff60a01b1916600160a01b179055565b606060006123ef8585613091565b905084816123fc856130d3565b60405160200161240e9392919061439e565b6040516020818303038152906040529150505b9392505050565b606060006124368585613091565b905084816123fc856131fb565b606060006124518585613091565b905084816123fc8561323c565b6001600160a01b038082166000908152600960209081526040808320805482516318160ddd60e01b8152925194959194869491909216926318160ddd92600480830193928290030181865afa1580156124bb573d6000803e3d6000fd5b505050506040513d601f19601f820116820180604052508101906124df9190613ffe565b9050806124f75750670de0b6b3a76400009392505050565b61250082613293565b61250984612f8a565b600082600301548360010154846002015461252491906143e1565b61252e9190614422565b90508161254382670de0b6b3a7640000613ef9565b61254d9190613f2e565b95945050505050565b6001600160a01b0382163b1561257d57600b546116e6906001600160a01b03168383612611565b600b54604051632e1a7d4d60e01b8152600481018390526001600160a01b0390911690632e1a7d4d90602401600060405180830381600087803b1580156125c357600080fd5b505af11580156125d7573d6000803e3d6000fd5b50506040516001600160a01b038516925083156108fc02915083906000818181858888f19350505050158015610f35573d6000803e3d6000fd5b6040516001600160a01b038316602482015260448101829052610f3590849063a9059cbb60e01b906064015b60408051601f198184030181529190526020810180516001600160e01b03166001600160e01b0319909316929092179091526132fb565b600d546040516302abf57960e61b81526453746f726560d81b60048201526000916001600160a01b03169063aafd5e4090602401602060405180830381865afa1580156126c5573d6000803e3d6000fd5b505050506040513d601f19601f820116820180604052508101906126e99190614381565b601354604051635b97aadd60e01b81526001600160a01b039182166004820152911690635b97aadd90602401602060405180830381865afa158015612732573d6000803e3d6000fd5b505050506040513d601f19601f820116820180604052508101906127569190614461565b51919050565b6040516001600160a01b03808516602483015283166044820152606481018290526127949085906323b872dd60e01b9060840161263d565b50505050565b600d546040516302abf57960e61b815275536b696e6e794f7074696d69737469634f7261636c6560501b60048201526000916001600160a01b03169063aafd5e4090602401602060405180830381865afa1580156127fc573d6000803e3d6000fd5b505050506040513d601f19601f82011682018060405250810190610ce89190614381565b80158061289a5750604051636eb1769f60e11b81523060048201526001600160a01b03838116602483015284169063dd62ed3e90604401602060405180830381865afa158015612874573d6000803e3d6000fd5b505050506040513d601f19601f820116820180604052508101906128989190613ffe565b155b6129055760405162461bcd60e51b815260206004820152603660248201527f5361666545524332303a20617070726f76652066726f6d206e6f6e2d7a65726f60448201527520746f206e6f6e2d7a65726f20616c6c6f77616e636560501b60648201526084016109c6565b6040516001600160a01b038316602482015260448101829052610f3590849063095ea7b360e01b9060640161263d565b600061296882858560405160200161294d91906144a2565b604051602081830303815290604052805190602001206133cd565b949350505050565b600060ff8211156129b95760405162461bcd60e51b8152602060048201526013602482015272496e646578206f7574206f6620626f756e647360681b60448201526064016109c6565b6129c56101008361452e565b6001901b8317905092915050565b6000848152600a60205260408120546001600160a01b0316905b84518163ffffffff161015612db15760006001600160a01b031660086000878463ffffffff1681518110612a2357612a23614286565b6020908102919091018101516001600160a01b03908116835282820193909352604091820160009081208b82529091522054161415612a9c5760405162461bcd60e51b8152602060048201526015602482015274149bdd5d19481b9bdd081dda1a5d195b1a5cdd1959605a1b60448201526064016109c6565b6000848263ffffffff1681518110612ab657612ab6614286565b60200260200101511315612d5757612b2082858363ffffffff1681518110612ae057612ae0614286565b6020026020010151878463ffffffff1681518110612b0057612b00614286565b60200260200101516001600160a01b03166126119092919063ffffffff16565b816001600160a01b03166352c8c75c868363ffffffff1681518110612b4757612b47614286565b602002602001015160086000898663ffffffff1681518110612b6b57612b6b614286565b60200260200101516001600160a01b03166001600160a01b0316815260200190815260200160002060008a815260200190815260200160002060009054906101000a90046001600160a01b0316878563ffffffff1681518110612bd057612bd0614286565b60209081029190910181015160008c8152600a90925260409182902060010154915160e086901b6001600160e01b03191681526001600160a01b03948516600482015292841660248401526044830152919091166064820152608401600060405180830381600087803b158015612c4657600080fd5b505af1158015612c5a573d6000803e3d6000fd5b50505050838163ffffffff1681518110612c7657612c76614286565b602002602001015160096000878463ffffffff1681518110612c9a57612c9a614286565b60200260200101516001600160a01b03166001600160a01b031681526020019081526020016000206001016000828254612cd491906143e1565b92505081905550838163ffffffff1681518110612cf357612cf3614286565b602002602001015160096000878463ffffffff1681518110612d1757612d17614286565b60200260200101516001600160a01b03166001600160a01b031681526020019081526020016000206002016000828254612d519190613f5f565b90915550505b612d9f858263ffffffff1681518110612d7257612d72614286565b6020026020010151848363ffffffff1681518110612d9257612d92614286565b60200260200101516133e3565b80612da981614542565b9150506129ed565b505050505050565b6000818152600a602052604090819020805460019091015460045460055493516001600160a01b0393841694859463e6eb8ade941692612e0792909190602401918252602082015260400190565b60408051601f198184030181529181526020820180516001600160e01b031663124e93e160e21b1790525160e084901b6001600160e01b0319168152612e51929190600401614566565b600060405180830381600087803b158015612e6b57600080fd5b505af1158015612db1573d6000803e3d6000fd5b6000828152600a60205260409081902080546001909101549151637375c56f60e11b81526001600160a01b0391821692839263e6eb8ade92612ec992909116908690600401614566565b600060405180830381600087803b158015612ee357600080fd5b505af1158015612ef7573d6000803e3d6000fd5b50505050827f218987b934c2f6bc596136829fbf43a5fef4d6fafce41f3f6254d9a870c2deec83604051612f2b919061395d565b60405180910390a2505050565b600180546001600160a01b038381166001600160a01b0319831681179093556040519116919082907f8be0079c531659141344cd1fd0a4f28419497f9722a3daafe3b4186f6b6457e090600090a35050565b6040516370a0823160e01b81523060048201526000906001600160a01b038316906370a0823190602401602060405180830381865afa158015612fd1573d6000803e3d6000fd5b505050506040513d601f19601f82011682018060405250810190612ff59190613ffe565b6001600160a01b0383166000908152600960205260409020600201549091508111156116e6576001600160a01b0382166000908152600960205260409020600201546130419082613f5f565b6001600160a01b0383166000908152600960205260408120600101805490919061306c908490614422565b90915550506001600160a01b0391909116600090815260096020526040902060020155565b8151606090156130c257816040516020016130ac919061458a565b6040516020818303038152906040529050610b06565b816040516020016130ac91906145be565b6060816130f75750506040805180820190915260018152600360fc1b602082015290565b8160005b8115613121578061310b81614366565b915061311a9050600a83613f2e565b91506130fb565b6000816001600160401b0381111561313b5761313b6139dd565b6040519080825280601f01601f191660200182016040528015613165576020820181803683370190505b509050815b85156131f25761317b600182613f5f565b9050600061318a600a88613f2e565b61319590600a613ef9565b61319f9088613f5f565b6131aa9060306145e3565b905060008160f81b9050808484815181106131c7576131c7614286565b60200101906001600160f81b031916908160001a9053506131e9600a89613f2e565b9750505061316a565b50949350505050565b606061320a608083901c6134b6565b613213836134b6565b6040805160208101939093528201526060015b6040516020818303038152906040529050919050565b60606132546001600160801b03602084901c166134b6565b61326f8360601b6bffffffffffffffffffffffff19166134b6565b6040516020016132269291909182526001600160c01b031916602082015260280190565b600381015481546000916132b391600160a81b900463ffffffff1661364a565b9050808260030160008282546132c99190613f5f565b909155506132d790506112da565b825463ffffffff91909116600160a81b0263ffffffff60a81b199091161790915550565b6000613350826040518060400160405280602081526020017f5361666545524332303a206c6f772d6c6576656c2063616c6c206661696c6564815250856001600160a01b031661369f9092919063ffffffff16565b805190915015610f35578080602001905181019061336e9190613f42565b610f355760405162461bcd60e51b815260206004820152602a60248201527f5361666545524332303a204552433230206f7065726174696f6e20646964206e6044820152691bdd081cdd58d8d9595960b21b60648201526084016109c6565b6000826133da85846136ae565b14949350505050565b6000670de0b6b3a7640000601254836133fc9190613ef9565b6134069190613f2e565b905060006134148284613f5f565b9050801561347d576001600160a01b03841660009081526009602052604081206003018054839290613447908490613f76565b90915550506001600160a01b038416600090815260096020526040812060010180548392906134779084906143e1565b90915550505b8115612794576001600160a01b038416600090815260106020526040812080548492906134ab908490613f76565b909155505050505050565b6000808260001c9050806001600160801b0316905080600160401b02811777ffffffffffffffff0000000000000000ffffffffffffffff169050806401000000000281177bffffffff00000000ffffffff00000000ffffffff00000000ffffffff16905080620100000281177dffff0000ffff0000ffff0000ffff0000ffff0000ffff0000ffff0000ffff169050806101000281177eff00ff00ff00ff00ff00ff00ff00ff00ff00ff00ff00ff00ff00ff00ff00ff1690508060100281177f0f0f0f0f0f0f0f0f0f0f0f0f0f0f0f0f0f0f0f0f0f0f0f0f0f0f0f0f0f0f0f0f16905060006008827f080808080808080808080808080808080808080808080808080808080808080816816135cc576135cc613f18565b0460047f040404040404040404040404040404040404040404040404040404040404040484160460027f020202020202020202020202020202020202020202020202020202020202020285160417166027029091017f3030303030303030303030303030303030303030303030303030303030303030019392505050565b600080826136566112da565b6136609190613f5f565b90506000670de0b6b3a764000082600f548761367c9190613ef9565b6136869190613ef9565b6136909190613f2e565b9050848110612968578461254d565b6060612968848460008561375a565b600081815b84518110156137525760008582815181106136d0576136d0614286565b6020026020010151905080831161371257604080516020810185905290810182905260600160405160208183030381529060405280519060200120925061373f565b60408051602081018390529081018490526060016040516020818303038152906040528051906020012092505b508061374a81614366565b9150506136b3565b509392505050565b6060824710156137bb5760405162461bcd60e51b815260206004820152602660248201527f416464726573733a20696e73756666696369656e742062616c616e636520666f6044820152651c8818d85b1b60d21b60648201526084016109c6565b843b6138095760405162461bcd60e51b815260206004820152601d60248201527f416464726573733a2063616c6c20746f206e6f6e2d636f6e747261637400000060448201526064016109c6565b600080866001600160a01b031685876040516138259190614608565b60006040518083038185875af1925050503d8060008114613862576040519150601f19603f3d011682016040523d82523d6000602084013e613867565b606091505b50915091506123c182828660608315613881575081612421565b8251156138915782518084602001fd5b8160405162461bcd60e51b81526004016109c6919061395d565b6001600160a01b038116811461140557600080fd5b600080604083850312156138d357600080fd5b82356138de816138ab565b946020939093013593505050565b6000602082840312156138fe57600080fd5b5035919050565b60005b83811015613920578181015183820152602001613908565b838111156127945750506000910152565b60008151808452613949816020860160208601613905565b601f01601f19169290920160200192915050565b6020815260006124216020830184613931565b60006020828403121561398257600080fd5b8135612421816138ab565b801515811461140557600080fd5b6000806000606084860312156139b057600080fd5b83356139bb816138ab565b92506020840135915060408401356139d28161398d565b809150509250925092565b634e487b7160e01b600052604160045260246000fd5b60405160c081016001600160401b0381118282101715613a1557613a156139dd565b60405290565b604051601f8201601f191681016001600160401b0381118282101715613a4357613a436139dd565b604052919050565b60006001600160401b03821115613a6457613a646139dd565b5060051b60200190565b600082601f830112613a7f57600080fd5b81356020613a94613a8f83613a4b565b613a1b565b82815260059290921b84018101918181019086841115613ab357600080fd5b8286015b84811015613ace5780358352918301918301613ab7565b509695505050505050565b803560ff81168114611cbb57600080fd5b600082601f830112613afb57600080fd5b81356020613b0b613a8f83613a4b565b82815260059290921b84018101918181019086841115613b2a57600080fd5b8286015b84811015613ace578035613b41816138ab565b8352918301918301613b2e565b60008060408385031215613b6157600080fd5b82356001600160401b0380821115613b7857600080fd5b9084019060c08287031215613b8c57600080fd5b613b946139f3565b82358152602083013582811115613baa57600080fd5b613bb688828601613a6e565b602083015250604083013582811115613bce57600080fd5b613bda88828601613a6e565b604083015250606083013582811115613bf257600080fd5b613bfe88828601613a6e565b606083015250613c1060808401613ad9565b608082015260a083013582811115613c2757600080fd5b613c3388828601613aea565b60a08301525093506020850135915080821115613c4f57600080fd5b50613c5c85828601613a6e565b9150509250929050565b600060208284031215613c7857600080fd5b81356001600160401b038116811461242157600080fd5b600080600060608486031215613ca457600080fd5b833592506020840135613cb6816138ab565b915060408401356139d2816138ab565b600080600080600060a08688031215613cde57600080fd5b85356001600160401b03811115613cf457600080fd5b613d0088828901613a6e565b955050613d0f60208701613ad9565b94979496505050506040830135926060810135926080909101359150565b60008060208385031215613d4057600080fd5b82356001600160401b0380821115613d5757600080fd5b818501915085601f830112613d6b57600080fd5b813581811115613d7a57600080fd5b8660208260051b8501011115613d8f57600080fd5b60209290920196919550909350505050565b6000602080830181845280855180835260408601915060408160051b870101925083870160005b82811015613df657603f19888603018452613de4858351613931565b94509285019290850190600101613dc8565b5092979650505050505050565b60006001600160401b03821115613e1c57613e1c6139dd565b50601f01601f191660200190565b60008060408385031215613e3d57600080fd5b8235915060208301356001600160401b03811115613e5a57600080fd5b8301601f81018513613e6b57600080fd5b8035613e79613a8f82613e03565b818152866020838501011115613e8e57600080fd5b816020840160208301376000602083830101528093505050509250929050565b6020808252818101527f4f776e61626c653a2063616c6c6572206973206e6f7420746865206f776e6572604082015260600190565b634e487b7160e01b600052601160045260246000fd5b6000816000190483118215151615613f1357613f13613ee3565b500290565b634e487b7160e01b600052601260045260246000fd5b600082613f3d57613f3d613f18565b500490565b600060208284031215613f5457600080fd5b81516124218161398d565b600082821015613f7157613f71613ee3565b500390565b60008219821115613f8957613f89613ee3565b500190565b60006101208b835263ffffffff8b166020840152806040840152613fb48184018b613931565b6001600160a01b03998a1660608501526080840198909852505060a08101949094526001600160401b039290921660c084015290931660e082015261010001919091529392505050565b60006020828403121561401057600080fd5b5051919050565b600061020088835263ffffffff8816602084015280604084015261403d81840188613931565b9150506140566060830186516001600160a01b03169052565b60208501516001600160a01b03811660808401525060408501516001600160a01b03811660a084015250606085015180151560c084015250608085015160e083015260a0850151610100818185015260c08701519150610120828186015260e0880151925061014083818701528289015161016087015281890151610180870152808901516101a0870152505050506140fb6101c08301856001600160a01b03169052565b6001600160a01b0383166101e0830152979650505050505050565b8281526040602082015260006129686040830184613931565b6020808252601c908201527f70726f706f73616c2068617320756e636c61696d6564206c6561667300000000604082015260600190565b60006001600160401b0382168061417f5761417f613ee3565b6000190192915050565b600081518084526020808501945080840160005b838110156141c25781516001600160a01b03168752958201959082019060010161419d565b509495945050505050565b600081518084526020808501945080840160005b838110156141c2578151875295820195908201906001016141e1565b6080815260006142106080830187614189565b828103602084015261422281876141cd565b9050828103604084015261423681866141cd565b905082810360608401526123c181856141cd565b6001600160401b038516815260ff8416602082015260806040820152600061427560808301856141cd565b905082606083015295945050505050565b634e487b7160e01b600052603260045260246000fd5b6000808335601e198436030181126142b357600080fd5b8301803591506001600160401b038211156142cd57600080fd5b6020019150368190038213156142e257600080fd5b9250929050565b8183823760009101908152919050565b60006020828403121561430b57600080fd5b81516001600160401b0381111561432157600080fd5b8201601f8101841361433257600080fd5b8051614340613a8f82613e03565b81815285602083850101111561435557600080fd5b61254d826020830160208601613905565b600060001982141561437a5761437a613ee3565b5060010190565b60006020828403121561439357600080fd5b8151612421816138ab565b600084516143b0818460208901613905565b8451908301906143c4818360208901613905565b84519101906143d7818360208801613905565b0195945050505050565b600080821280156001600160ff1b038490038513161561440357614403613ee3565b600160ff1b839003841281161561441c5761441c613ee3565b50500190565b60008083128015600160ff1b85018412161561444057614440613ee3565b6001600160ff1b038401831381161561445b5761445b613ee3565b50500390565b60006020828403121561447357600080fd5b604051602081018181106001600160401b0382111715614495576144956139dd565b6040529151825250919050565b60208152815160208201526000602083015160c060408401526144c860e08401826141cd565b90506040840151601f19808584030160608601526144e683836141cd565b9250606086015191508085840301608086015261450383836141cd565b925060ff60808701511660a086015260a08601519150808584030160c08601525061254d8282614189565b60008261453d5761453d613f18565b500690565b600063ffffffff8083168181141561455c5761455c613ee3565b6001019392505050565b6001600160a01b038316815260406020820181905260009061296890830184613931565b600b60fa1b8152600082516145a6816001850160208701613905565b601d60f91b6001939091019283015250600201919050565b600082516145d0818460208701613905565b601d60f91b920191825250600101919050565b600060ff821660ff84168060ff0382111561460057614600613ee3565b019392505050565b6000825161461a818460208701613905565b919091019291505056fea2646970667358221220117e6fafe241a05ed654429303b35c78a70e668d2856c7e3c005d0eff988747e64736f6c634300080b0033",
  "libraries": {
    "MerkleLib": "0x19855F38DF59aeE9A2924042BbB39C9c3bC6d139"
  }
}