{
  "address": "0x50CA492349EBf5d66D0560eA364dA50031579Bb6",
  "abi": [
    {
      "inputs": [
        {
          "internalType": "address",
          "name": "l1Token",
          "type": "address"
        }
      ],
      "name": "createLpToken",
      "outputs": [
        {
          "internalType": "address",
          "name": "",
          "type": "address"
        }
      ],
      "stateMutability": "nonpayable",
      "type": "function"
    }
  ],
  "transactionHash": "0x8c45651442a78603313ca0aace4f711300def608a145a5f69272dde7e25c0a0a",
  "args": [],
  "numDeployments": 1,
  "solcInputHash": "297a6d6e99e837fe3be3c8fdf66d491c",
  "bytecode": "0x608060405234801561001057600080fd5b50612cfa806100206000396000f3fe60806040523480156200001157600080fd5b50600436106200002e5760003560e01c8063fc2f1b6e1462000033575b600080fd5b6200004a620000443660046200048f565b62000073565b60405173ffffffffffffffffffffffffffffffffffffffff909116815260200160405180910390f35b600080620001806040518060400160405280600781526020017f4163726f737320000000000000000000000000000000000000000000000000008152508473ffffffffffffffffffffffffffffffffffffffff166306fdde036040518163ffffffff1660e01b8152600401600060405180830381865afa158015620000fc573d6000803e3d6000fd5b505050506040513d6000823e601f3d9081017fffffffffffffffffffffffffffffffffffffffffffffffffffffffffffffffe016820160405262000144919081019062000530565b6040518060400160405280600981526020017f204c5020546f6b656e000000000000000000000000000000000000000000000081525062000450565b6200028a6040518060400160405280600481526020017f4176322d000000000000000000000000000000000000000000000000000000008152508573ffffffffffffffffffffffffffffffffffffffff166395d89b416040518163ffffffff1660e01b8152600401600060405180830381865afa15801562000206573d6000803e3d6000fd5b505050506040513d6000823e601f3d9081017fffffffffffffffffffffffffffffffffffffffffffffffffffffffffffffffe01682016040526200024e919081019062000530565b6040518060400160405280600381526020017f2d4c50000000000000000000000000000000000000000000000000000000000081525062000450565b8473ffffffffffffffffffffffffffffffffffffffff1663313ce5676040518163ffffffff1660e01b8152600401602060405180830381865afa158015620002d6573d6000803e3d6000fd5b505050506040513d601f19601f82011682018060405250810190620002fc919062000607565b6040516200030a9062000481565b620003189392919062000678565b604051809103906000f08015801562000335573d6000803e3d6000fd5b506040517f74d0a6760000000000000000000000000000000000000000000000000000000081526001600482015233602482015290915073ffffffffffffffffffffffffffffffffffffffff8216906374d0a67690604401600060405180830381600087803b158015620003a857600080fd5b505af1158015620003bd573d6000803e3d6000fd5b50506040517f74d0a6760000000000000000000000000000000000000000000000000000000081526002600482015233602482015273ffffffffffffffffffffffffffffffffffffffff841692506374d0a6769150604401600060405180830381600087803b1580156200043057600080fd5b505af115801562000445573d6000803e3d6000fd5b509295945050505050565b60608383836040516020016200046993929190620006b5565b60405160208183030381529060405290509392505050565b6125c680620006ff83390190565b600060208284031215620004a257600080fd5b813573ffffffffffffffffffffffffffffffffffffffff81168114620004c757600080fd5b9392505050565b7f4e487b7100000000000000000000000000000000000000000000000000000000600052604160045260246000fd5b60005b838110156200051a57818101518382015260200162000500565b838111156200052a576000848401525b50505050565b6000602082840312156200054357600080fd5b815167ffffffffffffffff808211156200055c57600080fd5b818401915084601f8301126200057157600080fd5b815181811115620005865762000586620004ce565b604051601f82017fffffffffffffffffffffffffffffffffffffffffffffffffffffffffffffffe0908116603f01168101908382118183101715620005cf57620005cf620004ce565b81604052828152876020848701011115620005e957600080fd5b620005fc836020830160208801620004fd565b979650505050505050565b6000602082840312156200061a57600080fd5b815160ff81168114620004c757600080fd5b6000815180845262000646816020860160208601620004fd565b601f017fffffffffffffffffffffffffffffffffffffffffffffffffffffffffffffffe0169290920160200192915050565b6060815260006200068d60608301866200062c565b8281036020840152620006a181866200062c565b91505060ff83166040830152949350505050565b60008451620006c9818460208901620004fd565b845190830190620006df818360208901620004fd565b8451910190620006f4818360208801620004fd565b019594505050505056fe60806040523480156200001157600080fd5b50604051620025c6380380620025c6833981016040819052620000349162000623565b8251839083906200004d906003906020850190620004b0565b50805162000063906004906020840190620004b0565b50506006805460ff191660ff8416179055506200008360008033620000b5565b620000a060015b6040805160008082526020820190925262000206565b620000ac60026200008a565b5050506200073b565b826000808281526005602052604090206001015460ff166002811115620000e057620000e0620006a8565b14620001335760405162461bcd60e51b815260206004820152601e60248201527f43616e6e6f74207573652061207072652d6578697374696e6720726f6c65000060448201526064015b60405180910390fd5b60008481526005602052604090206001808201805460ff1916828002179055508381556200017160028201846200034d602090811b620011d917901c565b60008481526005602052604081206001015460ff1660028111156200019a576200019a620006a8565b1415620001ff5760405162461bcd60e51b815260206004820152603c6024820152600080516020620025a683398151915260448201527f20746f206d616e61676520616e206578636c757369766520726f6c650000000060648201526084016200012a565b5050505050565b826000808281526005602052604090206001015460ff166002811115620002315762000231620006a8565b14620002805760405162461bcd60e51b815260206004820152601e60248201527f43616e6e6f74207573652061207072652d6578697374696e6720726f6c65000060448201526064016200012a565b600084815260056020908152604090912060018101805460ff1916600217905584815590620002bf9060038301908590620011e36200035d821b17901c565b60008481526005602052604081206001015460ff166002811115620002e857620002e8620006a8565b1415620001ff5760405162461bcd60e51b81526020600482015260386024820152600080516020620025a683398151915260448201527f20746f206d616e61676520612073686172656420726f6c65000000000000000060648201526084016200012a565b620003598282620003b2565b5050565b60005b8151811015620003ad576200039883838381518110620003845762000384620006be565b60200260200101516200043360201b60201c565b80620003a481620006d4565b91505062000360565b505050565b6001600160a01b038116620004165760405162461bcd60e51b815260206004820152602360248201527f43616e6e6f742073657420616e206578636c757369766520726f6c6520746f2060448201526203078360ec1b60648201526084016200012a565b81546001600160a01b0319166001600160a01b0391909116179055565b6001600160a01b0381166200048b5760405162461bcd60e51b815260206004820152601f60248201527f43616e6e6f74206164642030783020746f20612073686172656420726f6c650060448201526064016200012a565b6001600160a01b0316600090815260209190915260409020805460ff19166001179055565b828054620004be90620006fe565b90600052602060002090601f016020900481019282620004e257600085556200052d565b82601f10620004fd57805160ff19168380011785556200052d565b828001600101855582156200052d579182015b828111156200052d57825182559160200191906001019062000510565b506200053b9291506200053f565b5090565b5b808211156200053b576000815560010162000540565b634e487b7160e01b600052604160045260246000fd5b600082601f8301126200057e57600080fd5b81516001600160401b03808211156200059b576200059b62000556565b604051601f8301601f19908116603f01168101908282118183101715620005c657620005c662000556565b81604052838152602092508683858801011115620005e357600080fd5b600091505b83821015620006075785820183015181830184015290820190620005e8565b83821115620006195760008385830101525b9695505050505050565b6000806000606084860312156200063957600080fd5b83516001600160401b03808211156200065157600080fd5b6200065f878388016200056c565b945060208601519150808211156200067657600080fd5b5062000685868287016200056c565b925050604084015160ff811681146200069d57600080fd5b809150509250925092565b634e487b7160e01b600052602160045260246000fd5b634e487b7160e01b600052603260045260246000fd5b6000600019821415620006f757634e487b7160e01b600052601160045260246000fd5b5060010190565b600181811c908216806200071357607f821691505b602082108114156200073557634e487b7160e01b600052602260045260246000fd5b50919050565b611e5b806200074b6000396000f3fe608060405234801561001057600080fd5b506004361061018d5760003560e01c806374d0a676116100e3578063a9059cbb1161008c578063d97c05be11610066578063d97c05be14610369578063dd62ed3e1461037c578063f44637ba146103c257600080fd5b8063a9059cbb1461030b578063aaa14ca31461031e578063ab3545e51461033157600080fd5b806395d89b41116100bd57806395d89b41146102dd578063983b2d56146102e5578063a457c2d7146102f857600080fd5b806374d0a676146102a457806379cc6790146102b75780637cdc1cb9146102ca57600080fd5b806339509351116101455780636be7658b1161011f5780636be7658b1461024857806370a082311461025b57806373cc802a1461029157600080fd5b8063395093511461020d57806340c10f191461022057806342966c681461023357600080fd5b806318160ddd1161017657806318160ddd146101d357806323b872dd146101e5578063313ce567146101f857600080fd5b806306fdde0314610192578063095ea7b3146101b0575b600080fd5b61019a6103d5565b6040516101a79190611b4f565b60405180910390f35b6101c36101be366004611beb565b610467565b60405190151581526020016101a7565b6002545b6040519081526020016101a7565b6101c36101f3366004611c15565b61047e565b60065460405160ff90911681526020016101a7565b6101c361021b366004611beb565b610569565b6101c361022e366004611beb565b6105b2565b610246610241366004611c51565b610660565b005b610246610256366004611c6a565b610706565b6101d7610269366004611c96565b73ffffffffffffffffffffffffffffffffffffffff1660009081526020819052604090205490565b61024661029f366004611c96565b6108ed565b6102466102b2366004611c6a565b6108fb565b6101c36102c5366004611beb565b610abd565b6101c36102d8366004611c6a565b610b61565b61019a610c6b565b6102466102f3366004611c96565b610c7a565b6101c3610306366004611beb565b610c86565b6101c3610319366004611beb565b610d54565b61024661032c366004611c51565b610d61565b61034461033f366004611c51565b610f24565b60405173ffffffffffffffffffffffffffffffffffffffff90911681526020016101a7565b610246610377366004611c6a565b61100d565b6101d761038a366004611cb8565b73ffffffffffffffffffffffffffffffffffffffff918216600090815260016020908152604080832093909416825291909152205490565b6102466103d0366004611c96565b6111cf565b6060600380546103e490611ce2565b80601f016020809104026020016040519081016040528092919081815260200182805461041090611ce2565b801561045d5780601f106104325761010080835404028352916020019161045d565b820191906000526020600020905b81548152906001019060200180831161044057829003601f168201915b5050505050905090565b6000610474338484611229565b5060015b92915050565b600061048b8484846113dc565b73ffffffffffffffffffffffffffffffffffffffff8416600090815260016020908152604080832033845290915290205482811015610551576040517f08c379a000000000000000000000000000000000000000000000000000000000815260206004820152602860248201527f45524332303a207472616e7366657220616d6f756e742065786365656473206160448201527f6c6c6f77616e636500000000000000000000000000000000000000000000000060648201526084015b60405180910390fd5b61055e8533858403611229565b506001949350505050565b33600081815260016020908152604080832073ffffffffffffffffffffffffffffffffffffffff8716845290915281205490916104749185906105ad908690611d5f565b611229565b600060016105c08133610b61565b61064c576040517f08c379a000000000000000000000000000000000000000000000000000000000815260206004820152602260248201527f53656e64657220646f6573206e6f7420686f6c6420726571756972656420726f60448201527f6c650000000000000000000000000000000000000000000000000000000000006064820152608401610548565b6106568484611690565b5060019392505050565b600261066c8133610b61565b6106f8576040517f08c379a000000000000000000000000000000000000000000000000000000000815260206004820152602260248201527f53656e64657220646f6573206e6f7420686f6c6420726571756972656420726f60448201527f6c650000000000000000000000000000000000000000000000000000000000006064820152608401610548565b61070233836117b0565b5050565b81600260008281526005602052604090206001015460ff16600281111561072f5761072f611d77565b146107bc576040517f08c379a000000000000000000000000000000000000000000000000000000000815260206004820152602c60248201527f4d7573742062652063616c6c6564206f6e20616e20696e697469616c697a656460448201527f2053686172656420726f6c6500000000000000000000000000000000000000006064820152608401610548565b60008381526005602052604090205483906107d79033610b61565b610862576040517f08c379a0000000000000000000000000000000000000000000000000000000008152602060048201526024808201527f43616e206f6e6c792062652063616c6c6564206279206120726f6c65206d616e60448201527f61676572000000000000000000000000000000000000000000000000000000006064820152608401610548565b600084815260056020908152604080832073ffffffffffffffffffffffffffffffffffffffff8716808552600390910190925280832080547fffffffffffffffffffffffffffffffffffffffffffffffffffffffffffffff0016905551339287917feb3e33034c392e69263b04ec0fa376dc12784a41b6676c7f31b936cbc0fbb5af9190a450505050565b6108f860008261100d565b50565b81600260008281526005602052604090206001015460ff16600281111561092457610924611d77565b146109b1576040517f08c379a000000000000000000000000000000000000000000000000000000000815260206004820152602c60248201527f4d7573742062652063616c6c6564206f6e20616e20696e697469616c697a656460448201527f2053686172656420726f6c6500000000000000000000000000000000000000006064820152608401610548565b60008381526005602052604090205483906109cc9033610b61565b610a57576040517f08c379a0000000000000000000000000000000000000000000000000000000008152602060048201526024808201527f43616e206f6e6c792062652063616c6c6564206279206120726f6c65206d616e60448201527f61676572000000000000000000000000000000000000000000000000000000006064820152608401610548565b6000848152600560205260409020610a72906003018461199d565b604051339073ffffffffffffffffffffffffffffffffffffffff85169086907f63502af7324ff6db91ab38f8236a648727d9385ea6c782073dd4882d8a61a48f90600090a450505050565b60006002610acb8133610b61565b610b57576040517f08c379a000000000000000000000000000000000000000000000000000000000815260206004820152602260248201527f53656e64657220646f6573206e6f7420686f6c6420726571756972656420726f60448201527f6c650000000000000000000000000000000000000000000000000000000000006064820152608401610548565b61065684846117b0565b600082815260056020526040812060018082015460ff166002811115610b8957610b89611d77565b1415610bb857600281015473ffffffffffffffffffffffffffffffffffffffff8481169116145b915050610478565b6002600182015460ff166002811115610bd357610bd3611d77565b1415610c095773ffffffffffffffffffffffffffffffffffffffff8316600090815260038201602052604090205460ff16610bb0565b6040517f08c379a000000000000000000000000000000000000000000000000000000000815260206004820152600e60248201527f496e76616c696420726f6c6549640000000000000000000000000000000000006044820152606401610548565b6060600480546103e490611ce2565b6108f860015b826108fb565b33600090815260016020908152604080832073ffffffffffffffffffffffffffffffffffffffff8616845290915281205482811015610d47576040517f08c379a000000000000000000000000000000000000000000000000000000000815260206004820152602560248201527f45524332303a2064656372656173656420616c6c6f77616e63652062656c6f7760448201527f207a65726f0000000000000000000000000000000000000000000000000000006064820152608401610548565b6106563385858403611229565b60006104743384846113dc565b80600260008281526005602052604090206001015460ff166002811115610d8a57610d8a611d77565b14610e17576040517f08c379a000000000000000000000000000000000000000000000000000000000815260206004820152602c60248201527f4d7573742062652063616c6c6564206f6e20616e20696e697469616c697a656460448201527f2053686172656420726f6c6500000000000000000000000000000000000000006064820152608401610548565b81610e228133610b61565b610eae576040517f08c379a000000000000000000000000000000000000000000000000000000000815260206004820152602260248201527f53656e64657220646f6573206e6f7420686f6c6420726571756972656420726f60448201527f6c650000000000000000000000000000000000000000000000000000000000006064820152608401610548565b6000838152600560209081526040808320338452600301909152902080547fffffffffffffffffffffffffffffffffffffffffffffffffffffffffffffff001690556040513390819085907feb3e33034c392e69263b04ec0fa376dc12784a41b6676c7f31b936cbc0fbb5af90600090a4505050565b600081600160008281526005602052604090206001015460ff166002811115610f4f57610f4f611d77565b14610fdc576040517f08c379a000000000000000000000000000000000000000000000000000000000815260206004820152602f60248201527f4d7573742062652063616c6c6564206f6e20616e20696e697469616c697a656460448201527f204578636c757369766520726f6c6500000000000000000000000000000000006064820152608401610548565b60008381526005602052604090206002015473ffffffffffffffffffffffffffffffffffffffff1691505b50919050565b81600160008281526005602052604090206001015460ff16600281111561103657611036611d77565b146110c3576040517f08c379a000000000000000000000000000000000000000000000000000000000815260206004820152602f60248201527f4d7573742062652063616c6c6564206f6e20616e20696e697469616c697a656460448201527f204578636c757369766520726f6c6500000000000000000000000000000000006064820152608401610548565b60008381526005602052604090205483906110de9033610b61565b611169576040517f08c379a0000000000000000000000000000000000000000000000000000000008152602060048201526024808201527f43616e206f6e6c792062652063616c6c6564206279206120726f6c65206d616e60448201527f61676572000000000000000000000000000000000000000000000000000000006064820152608401610548565b60008481526005602052604090206111849060020184611a6a565b604051339073ffffffffffffffffffffffffffffffffffffffff85169086907f3b855c56b409b671c7112789d022675eb639d0bcb8896f1b6197c132f799e74690600090a450505050565b6108f86002610c80565b6107028282611a6a565b60005b8151811015611224576112128383838151811061120557611205611da6565b602002602001015161199d565b8061121c81611dd5565b9150506111e6565b505050565b73ffffffffffffffffffffffffffffffffffffffff83166112cb576040517f08c379a0000000000000000000000000000000000000000000000000000000008152602060048201526024808201527f45524332303a20617070726f76652066726f6d20746865207a65726f2061646460448201527f72657373000000000000000000000000000000000000000000000000000000006064820152608401610548565b73ffffffffffffffffffffffffffffffffffffffff821661136e576040517f08c379a000000000000000000000000000000000000000000000000000000000815260206004820152602260248201527f45524332303a20617070726f766520746f20746865207a65726f20616464726560448201527f73730000000000000000000000000000000000000000000000000000000000006064820152608401610548565b73ffffffffffffffffffffffffffffffffffffffff83811660008181526001602090815260408083209487168084529482529182902085905590518481527f8c5be1e5ebec7d5bd14f71427d1e84f3dd0314c0f7b2291e5b200ac8c7c3b925910160405180910390a3505050565b73ffffffffffffffffffffffffffffffffffffffff831661147f576040517f08c379a000000000000000000000000000000000000000000000000000000000815260206004820152602560248201527f45524332303a207472616e736665722066726f6d20746865207a65726f20616460448201527f64726573730000000000000000000000000000000000000000000000000000006064820152608401610548565b73ffffffffffffffffffffffffffffffffffffffff8216611522576040517f08c379a000000000000000000000000000000000000000000000000000000000815260206004820152602360248201527f45524332303a207472616e7366657220746f20746865207a65726f206164647260448201527f65737300000000000000000000000000000000000000000000000000000000006064820152608401610548565b73ffffffffffffffffffffffffffffffffffffffff8316600090815260208190526040902054818110156115d8576040517f08c379a000000000000000000000000000000000000000000000000000000000815260206004820152602660248201527f45524332303a207472616e7366657220616d6f756e742065786365656473206260448201527f616c616e636500000000000000000000000000000000000000000000000000006064820152608401610548565b73ffffffffffffffffffffffffffffffffffffffff80851660009081526020819052604080822085850390559185168152908120805484929061161c908490611d5f565b925050819055508273ffffffffffffffffffffffffffffffffffffffff168473ffffffffffffffffffffffffffffffffffffffff167fddf252ad1be2c89b69c2b068fc378daa952ba7f163c4a11628f55a4df523b3ef8460405161168291815260200190565b60405180910390a350505050565b73ffffffffffffffffffffffffffffffffffffffff821661170d576040517f08c379a000000000000000000000000000000000000000000000000000000000815260206004820152601f60248201527f45524332303a206d696e7420746f20746865207a65726f2061646472657373006044820152606401610548565b806002600082825461171f9190611d5f565b909155505073ffffffffffffffffffffffffffffffffffffffff821660009081526020819052604081208054839290611759908490611d5f565b909155505060405181815273ffffffffffffffffffffffffffffffffffffffff8316906000907fddf252ad1be2c89b69c2b068fc378daa952ba7f163c4a11628f55a4df523b3ef9060200160405180910390a35050565b73ffffffffffffffffffffffffffffffffffffffff8216611853576040517f08c379a000000000000000000000000000000000000000000000000000000000815260206004820152602160248201527f45524332303a206275726e2066726f6d20746865207a65726f2061646472657360448201527f73000000000000000000000000000000000000000000000000000000000000006064820152608401610548565b73ffffffffffffffffffffffffffffffffffffffff821660009081526020819052604090205481811015611909576040517f08c379a000000000000000000000000000000000000000000000000000000000815260206004820152602260248201527f45524332303a206275726e20616d6f756e7420657863656564732062616c616e60448201527f63650000000000000000000000000000000000000000000000000000000000006064820152608401610548565b73ffffffffffffffffffffffffffffffffffffffff83166000908152602081905260408120838303905560028054849290611945908490611e0e565b909155505060405182815260009073ffffffffffffffffffffffffffffffffffffffff8516907fddf252ad1be2c89b69c2b068fc378daa952ba7f163c4a11628f55a4df523b3ef9060200160405180910390a3505050565b73ffffffffffffffffffffffffffffffffffffffff8116611a1a576040517f08c379a000000000000000000000000000000000000000000000000000000000815260206004820152601f60248201527f43616e6e6f74206164642030783020746f20612073686172656420726f6c65006044820152606401610548565b73ffffffffffffffffffffffffffffffffffffffff1660009081526020919091526040902080547fffffffffffffffffffffffffffffffffffffffffffffffffffffffffffffff00166001179055565b73ffffffffffffffffffffffffffffffffffffffff8116611b0d576040517f08c379a000000000000000000000000000000000000000000000000000000000815260206004820152602360248201527f43616e6e6f742073657420616e206578636c757369766520726f6c6520746f2060448201527f30783000000000000000000000000000000000000000000000000000000000006064820152608401610548565b81547fffffffffffffffffffffffff00000000000000000000000000000000000000001673ffffffffffffffffffffffffffffffffffffffff91909116179055565b600060208083528351808285015260005b81811015611b7c57858101830151858201604001528201611b60565b81811115611b8e576000604083870101525b50601f017fffffffffffffffffffffffffffffffffffffffffffffffffffffffffffffffe016929092016040019392505050565b803573ffffffffffffffffffffffffffffffffffffffff81168114611be657600080fd5b919050565b60008060408385031215611bfe57600080fd5b611c0783611bc2565b946020939093013593505050565b600080600060608486031215611c2a57600080fd5b611c3384611bc2565b9250611c4160208501611bc2565b9150604084013590509250925092565b600060208284031215611c6357600080fd5b5035919050565b60008060408385031215611c7d57600080fd5b82359150611c8d60208401611bc2565b90509250929050565b600060208284031215611ca857600080fd5b611cb182611bc2565b9392505050565b60008060408385031215611ccb57600080fd5b611cd483611bc2565b9150611c8d60208401611bc2565b600181811c90821680611cf657607f821691505b60208210811415611007577f4e487b7100000000000000000000000000000000000000000000000000000000600052602260045260246000fd5b7f4e487b7100000000000000000000000000000000000000000000000000000000600052601160045260246000fd5b60008219821115611d7257611d72611d30565b500190565b7f4e487b7100000000000000000000000000000000000000000000000000000000600052602160045260246000fd5b7f4e487b7100000000000000000000000000000000000000000000000000000000600052603260045260246000fd5b60007fffffffffffffffffffffffffffffffffffffffffffffffffffffffffffffffff821415611e0757611e07611d30565b5060010190565b600082821015611e2057611e20611d30565b50039056fea26469706673582212206711b075929f95fe84e8886d266c57cb729d320a6e18d9be873ebf48ca86bf8764736f6c634300080b0033417474656d7074656420746f2075736520616e20696e76616c696420726f6c65a26469706673582212208f4dfad5cf85f250d1f373171e32179d88acdd0fe441528253448fa05bbbe45464736f6c634300080b0033",
  "devdoc": {
    "kind": "dev",
    "methods": {},
    "version": 1
  },
  "userdoc": {
    "kind": "user",
    "methods": {},
    "version": 1
  },
  "storageLayout": {
    "storage": [],
    "types": null
  }
}