{
  "address": "0xaF239EF7336AD678Ba718eb20F9428F5F67d1340",
  "abi": [
    {
      "inputs": [
        {
          "internalType": "contract WETH9",
          "name": "_l1Weth",
          "type": "address"
        },
        {
          "internalType": "address",
          "name": "_crossDomainMessenger",
          "type": "address"
        },
        {
          "internalType": "contract IL1StandardBridge",
          "name": "_l1StandardBridge",
          "type": "address"
        }
      ],
      "stateMutability": "nonpayable",
      "type": "constructor"
    },
    {
      "anonymous": false,
      "inputs": [
        {
          "indexed": false,
          "internalType": "address",
          "name": "newHubPool",
          "type": "address"
        }
      ],
      "name": "HubPoolChanged",
      "type": "event"
    },
    {
      "anonymous": false,
      "inputs": [
        {
          "indexed": false,
          "internalType": "uint32",
          "name": "newGasLimit",
          "type": "uint32"
        }
      ],
      "name": "L2GasLimitSet",
      "type": "event"
    },
    {
      "anonymous": false,
      "inputs": [
        {
          "indexed": false,
          "internalType": "address",
          "name": "target",
          "type": "address"
        },
        {
          "indexed": false,
          "internalType": "bytes",
          "name": "message",
          "type": "bytes"
        }
      ],
      "name": "MessageRelayed",
      "type": "event"
    },
    {
      "anonymous": false,
      "inputs": [
        {
          "indexed": false,
          "internalType": "address",
          "name": "l1Token",
          "type": "address"
        },
        {
          "indexed": false,
          "internalType": "address",
          "name": "l2Token",
          "type": "address"
        },
        {
          "indexed": false,
          "internalType": "uint256",
          "name": "amount",
          "type": "uint256"
        },
        {
          "indexed": false,
          "internalType": "address",
          "name": "to",
          "type": "address"
        }
      ],
      "name": "TokensRelayed",
      "type": "event"
    },
    {
      "inputs": [],
      "name": "dai",
      "outputs": [
        {
          "internalType": "address",
          "name": "",
          "type": "address"
        }
      ],
      "stateMutability": "view",
      "type": "function"
    },
    {
      "inputs": [],
      "name": "daiOptimismBridge",
      "outputs": [
        {
          "internalType": "address",
          "name": "",
          "type": "address"
        }
      ],
      "stateMutability": "view",
      "type": "function"
    },
    {
      "inputs": [],
      "name": "l1StandardBridge",
      "outputs": [
        {
          "internalType": "contract IL1StandardBridge",
          "name": "",
          "type": "address"
        }
      ],
      "stateMutability": "view",
      "type": "function"
    },
    {
      "inputs": [],
      "name": "l1Weth",
      "outputs": [
        {
          "internalType": "contract WETH9",
          "name": "",
          "type": "address"
        }
      ],
      "stateMutability": "view",
      "type": "function"
    },
    {
      "inputs": [],
      "name": "l2GasLimit",
      "outputs": [
        {
          "internalType": "uint32",
          "name": "",
          "type": "uint32"
        }
      ],
      "stateMutability": "view",
      "type": "function"
    },
    {
      "inputs": [],
      "name": "messenger",
      "outputs": [
        {
          "internalType": "address",
          "name": "",
          "type": "address"
        }
      ],
      "stateMutability": "view",
      "type": "function"
    },
    {
      "inputs": [
        {
          "internalType": "address",
          "name": "target",
          "type": "address"
        },
        {
          "internalType": "bytes",
          "name": "message",
          "type": "bytes"
        }
      ],
      "name": "relayMessage",
      "outputs": [],
      "stateMutability": "payable",
      "type": "function"
    },
    {
      "inputs": [
        {
          "internalType": "address",
          "name": "l1Token",
          "type": "address"
        },
        {
          "internalType": "address",
          "name": "l2Token",
          "type": "address"
        },
        {
          "internalType": "uint256",
          "name": "amount",
          "type": "uint256"
        },
        {
          "internalType": "address",
          "name": "to",
          "type": "address"
        }
      ],
      "name": "relayTokens",
      "outputs": [],
      "stateMutability": "payable",
      "type": "function"
    },
    {
      "inputs": [],
      "name": "snx",
      "outputs": [
        {
          "internalType": "address",
          "name": "",
          "type": "address"
        }
      ],
      "stateMutability": "view",
      "type": "function"
    },
    {
      "inputs": [],
      "name": "snxOptimismBridge",
      "outputs": [
        {
          "internalType": "address",
          "name": "",
          "type": "address"
        }
      ],
      "stateMutability": "view",
      "type": "function"
    }
  ],
  "transactionHash": "0x6881b156415a33cd6ff86a8684b47b565c30bb08243e29d1281f9558f9fbe671",
  "args": [
    "0xd0A1E359811322d97991E03f863a0C30C2cF029C",
    "0x4361d0F75A0186C05f971c566dC6bEa5957483fD",
    "0x22F24361D548e5FaAfb36d1437839f080363982B"
  ],
  "numDeployments": 1,
  "solcInputHash": "d3cc7d49c45bf725b6aea61557b961e9",
  "bytecode": "0x610180604052624c4b4060a052736b175474e89094c44da98b954eedeac495271d0f610100527310e6593cdda8c58a1d0f14c5164b376352a55f2f6101205273c011a73ee8576fb46f5e1c5751ca3b9fe0af2a6f6101405273cd9d4988c0ae61887b075ba77f08cbfad2b650686101605234801561007c57600080fd5b5060405161118b38038061118b83398101604081905261009b916100d0565b6001600160a01b0391821660805291811660c0521660e05261011d565b6001600160a01b03811681146100cd57600080fd5b50565b6000806000606084860312156100e557600080fd5b83516100f0816100b8565b6020850151909350610101816100b8565b6040850151909250610112816100b8565b809150509250925092565b60805160a05160c05160e05161010051610120516101405161016051610fb66101d56000396000818161015a015261058601526000818161026701526105310152600081816101d7015261050f01526000818161029b01526104ba01526000818160c80152818161042e0152610497015260008181610126015281816102bf015261034001526000818161020b015281816103f901528181610628015261070601526000818161018e01526108e00152610fb66000f3fe6080604052600436106100b15760003560e01c8063b708886d11610069578063e6eb8ade1161004e578063e6eb8ade14610242578063e7d2799814610255578063f4b9fa751461028957600080fd5b8063b708886d146101c5578063cf6e65b7146101f957600080fd5b806328f7c66b1161009a57806328f7c66b146101485780633cb747bf1461017c57806352c8c75c146101b057600080fd5b8063078f29cf146100b6578063146bf4b114610114575b600080fd5b3480156100c257600080fd5b506100ea7f000000000000000000000000000000000000000000000000000000000000000081565b60405173ffffffffffffffffffffffffffffffffffffffff90911681526020015b60405180910390f35b34801561012057600080fd5b506100ea7f000000000000000000000000000000000000000000000000000000000000000081565b34801561015457600080fd5b506100ea7f000000000000000000000000000000000000000000000000000000000000000081565b34801561018857600080fd5b506100ea7f000000000000000000000000000000000000000000000000000000000000000081565b6101c36101be366004610c91565b6102bd565b005b3480156101d157600080fd5b506100ea7f000000000000000000000000000000000000000000000000000000000000000081565b34801561020557600080fd5b5061022d7f000000000000000000000000000000000000000000000000000000000000000081565b60405163ffffffff909116815260200161010b565b6101c3610250366004610d0d565b610700565b34801561026157600080fd5b506100ea7f000000000000000000000000000000000000000000000000000000000000000081565b34801561029557600080fd5b506100ea7f000000000000000000000000000000000000000000000000000000000000000081565b7f000000000000000000000000000000000000000000000000000000000000000073ffffffffffffffffffffffffffffffffffffffff168473ffffffffffffffffffffffffffffffffffffffff161415610493576040517f2e1a7d4d000000000000000000000000000000000000000000000000000000008152600481018390527f000000000000000000000000000000000000000000000000000000000000000073ffffffffffffffffffffffffffffffffffffffff1690632e1a7d4d90602401600060405180830381600087803b15801561039957600080fd5b505af11580156103ad573d6000803e3d6000fd5b50506040517f9a2ac6d500000000000000000000000000000000000000000000000000000000815273ffffffffffffffffffffffffffffffffffffffff848116600483015263ffffffff7f000000000000000000000000000000000000000000000000000000000000000016602483015260606044830152600060648301527f0000000000000000000000000000000000000000000000000000000000000000169250639a2ac6d5915084906084016000604051808303818588803b15801561047557600080fd5b505af1158015610489573d6000803e3d6000fd5b505050505061069b565b60007f000000000000000000000000000000000000000000000000000000000000000090507f000000000000000000000000000000000000000000000000000000000000000073ffffffffffffffffffffffffffffffffffffffff168573ffffffffffffffffffffffffffffffffffffffff16141561052f57507f00000000000000000000000000000000000000000000000000000000000000005b7f000000000000000000000000000000000000000000000000000000000000000073ffffffffffffffffffffffffffffffffffffffff168573ffffffffffffffffffffffffffffffffffffffff1614156105a657507f00000000000000000000000000000000000000000000000000000000000000005b6105c773ffffffffffffffffffffffffffffffffffffffff86168285610768565b6040517f838b252000000000000000000000000000000000000000000000000000000000815273ffffffffffffffffffffffffffffffffffffffff8681166004830152858116602483015283811660448301526064820185905263ffffffff7f000000000000000000000000000000000000000000000000000000000000000016608483015260c060a4830152600060c483015282169063838b25209060e401600060405180830381600087803b15801561068157600080fd5b505af1158015610695573d6000803e3d6000fd5b50505050505b6040805173ffffffffffffffffffffffffffffffffffffffff868116825285811660208301528183018590528316606082015290517fd7e09655439c3932e55857df3220186e5a7f0980825f20691c2b35d941dee75b9181900360800190a150505050565b61072b827f0000000000000000000000000000000000000000000000000000000000000000836108a3565b7f9e6c52944e331ba6270e7fe4cea2a4086bae8f7a27e1cdba07f416806f5d0ac4828260405161075c929190610e63565b60405180910390a15050565b6040517fdd62ed3e00000000000000000000000000000000000000000000000000000000815230600482015273ffffffffffffffffffffffffffffffffffffffff8381166024830152600091839186169063dd62ed3e90604401602060405180830381865afa1580156107df573d6000803e3d6000fd5b505050506040513d601f19601f820116820180604052508101906108039190610e92565b61080d9190610eab565b6040805173ffffffffffffffffffffffffffffffffffffffff8616602482015260448082018490528251808303909101815260649091019091526020810180517bffffffffffffffffffffffffffffffffffffffffffffffffffffffff167f095ea7b30000000000000000000000000000000000000000000000000000000017905290915061089d908590610950565b50505050565b6040517f3dbb202b00000000000000000000000000000000000000000000000000000000815273ffffffffffffffffffffffffffffffffffffffff7f00000000000000000000000000000000000000000000000000000000000000001690633dbb202b9061091990869085908790600401610eea565b600060405180830381600087803b15801561093357600080fd5b505af1158015610947573d6000803e3d6000fd5b50505050505050565b60006109b2826040518060400160405280602081526020017f5361666545524332303a206c6f772d6c6576656c2063616c6c206661696c65648152508573ffffffffffffffffffffffffffffffffffffffff16610a669092919063ffffffff16565b805190915015610a6157808060200190518101906109d09190610f2f565b610a61576040517f08c379a000000000000000000000000000000000000000000000000000000000815260206004820152602a60248201527f5361666545524332303a204552433230206f7065726174696f6e20646964206e60448201527f6f7420737563636565640000000000000000000000000000000000000000000060648201526084015b60405180910390fd5b505050565b6060610a758484600085610a7f565b90505b9392505050565b606082471015610b11576040517f08c379a000000000000000000000000000000000000000000000000000000000815260206004820152602660248201527f416464726573733a20696e73756666696369656e742062616c616e636520666f60448201527f722063616c6c00000000000000000000000000000000000000000000000000006064820152608401610a58565b73ffffffffffffffffffffffffffffffffffffffff85163b610b8f576040517f08c379a000000000000000000000000000000000000000000000000000000000815260206004820152601d60248201527f416464726573733a2063616c6c20746f206e6f6e2d636f6e74726163740000006044820152606401610a58565b6000808673ffffffffffffffffffffffffffffffffffffffff168587604051610bb89190610f51565b60006040518083038185875af1925050503d8060008114610bf5576040519150601f19603f3d011682016040523d82523d6000602084013e610bfa565b606091505b5091509150610c0a828286610c15565b979650505050505050565b60608315610c24575081610a78565b825115610c345782518084602001fd5b816040517f08c379a0000000000000000000000000000000000000000000000000000000008152600401610a589190610f6d565b803573ffffffffffffffffffffffffffffffffffffffff81168114610c8c57600080fd5b919050565b60008060008060808587031215610ca757600080fd5b610cb085610c68565b9350610cbe60208601610c68565b925060408501359150610cd360608601610c68565b905092959194509250565b7f4e487b7100000000000000000000000000000000000000000000000000000000600052604160045260246000fd5b60008060408385031215610d2057600080fd5b610d2983610c68565b9150602083013567ffffffffffffffff80821115610d4657600080fd5b818501915085601f830112610d5a57600080fd5b813581811115610d6c57610d6c610cde565b604051601f82017fffffffffffffffffffffffffffffffffffffffffffffffffffffffffffffffe0908116603f01168101908382118183101715610db257610db2610cde565b81604052828152886020848701011115610dcb57600080fd5b8260208601602083013760006020848301015280955050505050509250929050565b60005b83811015610e08578181015183820152602001610df0565b8381111561089d5750506000910152565b60008151808452610e31816020860160208601610ded565b601f017fffffffffffffffffffffffffffffffffffffffffffffffffffffffffffffffe0169290920160200192915050565b73ffffffffffffffffffffffffffffffffffffffff83168152604060208201526000610a756040830184610e19565b600060208284031215610ea457600080fd5b5051919050565b60008219821115610ee5577f4e487b7100000000000000000000000000000000000000000000000000000000600052601160045260246000fd5b500190565b73ffffffffffffffffffffffffffffffffffffffff84168152606060208201526000610f196060830185610e19565b905063ffffffff83166040830152949350505050565b600060208284031215610f4157600080fd5b81518015158114610a7857600080fd5b60008251610f63818460208701610ded565b9190910192915050565b602081526000610a786020830184610e1956fea264697066735822122022ec079012127a99c6feaf39bc9e88dcc0426b6e25883c873feaf8417ded97ab64736f6c634300080b0033",
  "devdoc": {
    "details": "Public functions calling external contracts do not guard against reentrancy because they are expected to be called via delegatecall, which will execute this contract's logic within the context of the originating contract. For example, the HubPool will delegatecall these functions, therefore its only neccessary that the HubPool's methods that call this contract's logic guard against reentrancy.",
    "kind": "dev",
    "methods": {
      "constructor": {
        "params": {
          "_crossDomainMessenger": "XDomainMessenger Optimism system contract.",
          "_l1StandardBridge": "Standard bridge contract.",
          "_l1Weth": "WETH address on L1."
        }
      },
      "relayMessage(address,bytes)": {
        "params": {
          "message": "Data to send to target.",
          "target": "Contract on Optimism that will receive message."
        }
      },
      "relayTokens(address,address,uint256,address)": {
        "params": {
          "amount": "Amount of L1 tokens to deposit and L2 tokens to receive.",
          "l1Token": "L1 token to deposit.",
          "l2Token": "L2 token to receive.",
          "to": "Bridge recipient."
        }
      }
    },
    "version": 1
  },
  "userdoc": {
    "kind": "user",
    "methods": {
      "constructor": {
        "notice": "Constructs new Adapter."
      },
      "relayMessage(address,bytes)": {
        "notice": "Send cross-chain message to target on Optimism."
      },
      "relayTokens(address,address,uint256,address)": {
        "notice": "Bridge tokens to Optimism."
      }
    },
    "notice": "Contract containing logic to send messages from L1 to Optimism.",
    "version": 1
  },
  "storageLayout": {
    "storage": [],
    "types": null
  }
}