{
  "address": "0x60e7dE59DA2B35052A4A732b6A6461e0Fcc344E3",
  "abi": [
    {
      "inputs": [
        {
          "internalType": "contract WETH9",
          "name": "_l1Weth",
          "type": "address"
        },
        {
          "internalType": "address",
          "name": "_hubPool",
          "type": "address"
        },
        {
          "internalType": "address",
          "name": "_crossDomainMessenger",
          "type": "address"
        },
        {
          "internalType": "contract IL1StandardBridge",
          "name": "_l1StandardBridge",
          "type": "address"
        }
      ],
      "stateMutability": "nonpayable",
      "type": "constructor"
    },
    {
      "anonymous": false,
      "inputs": [
        {
          "indexed": false,
          "internalType": "address",
          "name": "newHubPool",
          "type": "address"
        }
      ],
      "name": "HubPoolChanged",
      "type": "event"
    },
    {
      "anonymous": false,
      "inputs": [
        {
          "indexed": false,
          "internalType": "uint32",
          "name": "newGasLimit",
          "type": "uint32"
        }
      ],
      "name": "L2GasLimitSet",
      "type": "event"
    },
    {
      "anonymous": false,
      "inputs": [
        {
          "indexed": false,
          "internalType": "address",
          "name": "target",
          "type": "address"
        },
        {
          "indexed": false,
          "internalType": "bytes",
          "name": "message",
          "type": "bytes"
        }
      ],
      "name": "MessageRelayed",
      "type": "event"
    },
    {
      "anonymous": false,
      "inputs": [
        {
          "indexed": true,
          "internalType": "address",
          "name": "previousOwner",
          "type": "address"
        },
        {
          "indexed": true,
          "internalType": "address",
          "name": "newOwner",
          "type": "address"
        }
      ],
      "name": "OwnershipTransferred",
      "type": "event"
    },
    {
      "anonymous": false,
      "inputs": [
        {
          "indexed": false,
          "internalType": "address",
          "name": "l1Token",
          "type": "address"
        },
        {
          "indexed": false,
          "internalType": "address",
          "name": "l2Token",
          "type": "address"
        },
        {
          "indexed": false,
          "internalType": "uint256",
          "name": "amount",
          "type": "uint256"
        },
        {
          "indexed": false,
          "internalType": "address",
          "name": "to",
          "type": "address"
        }
      ],
      "name": "TokensRelayed",
      "type": "event"
    },
    {
      "inputs": [],
      "name": "hubPool",
      "outputs": [
        {
          "internalType": "address",
          "name": "",
          "type": "address"
        }
      ],
      "stateMutability": "view",
      "type": "function"
    },
    {
      "inputs": [],
      "name": "l1StandardBridge",
      "outputs": [
        {
          "internalType": "contract IL1StandardBridge",
          "name": "",
          "type": "address"
        }
      ],
      "stateMutability": "view",
      "type": "function"
    },
    {
      "inputs": [],
      "name": "l1Weth",
      "outputs": [
        {
          "internalType": "contract WETH9",
          "name": "",
          "type": "address"
        }
      ],
      "stateMutability": "view",
      "type": "function"
    },
    {
      "inputs": [],
      "name": "l2GasLimit",
      "outputs": [
        {
          "internalType": "uint32",
          "name": "",
          "type": "uint32"
        }
      ],
      "stateMutability": "view",
      "type": "function"
    },
    {
      "inputs": [],
      "name": "messenger",
      "outputs": [
        {
          "internalType": "address",
          "name": "",
          "type": "address"
        }
      ],
      "stateMutability": "view",
      "type": "function"
    },
    {
      "inputs": [],
      "name": "owner",
      "outputs": [
        {
          "internalType": "address",
          "name": "",
          "type": "address"
        }
      ],
      "stateMutability": "view",
      "type": "function"
    },
    {
      "inputs": [
        {
          "internalType": "address",
          "name": "target",
          "type": "address"
        },
        {
          "internalType": "bytes",
          "name": "message",
          "type": "bytes"
        }
      ],
      "name": "relayMessage",
      "outputs": [],
      "stateMutability": "payable",
      "type": "function"
    },
    {
      "inputs": [
        {
          "internalType": "address",
          "name": "l1Token",
          "type": "address"
        },
        {
          "internalType": "address",
          "name": "l2Token",
          "type": "address"
        },
        {
          "internalType": "uint256",
          "name": "amount",
          "type": "uint256"
        },
        {
          "internalType": "address",
          "name": "to",
          "type": "address"
        }
      ],
      "name": "relayTokens",
      "outputs": [],
      "stateMutability": "payable",
      "type": "function"
    },
    {
      "inputs": [],
      "name": "renounceOwnership",
      "outputs": [],
      "stateMutability": "nonpayable",
      "type": "function"
    },
    {
      "inputs": [
        {
          "internalType": "address",
          "name": "_hubPool",
          "type": "address"
        }
      ],
      "name": "setHubPool",
      "outputs": [],
      "stateMutability": "nonpayable",
      "type": "function"
    },
    {
      "inputs": [
        {
          "internalType": "uint32",
          "name": "_l2GasLimit",
          "type": "uint32"
        }
      ],
      "name": "setL2GasLimit",
      "outputs": [],
      "stateMutability": "nonpayable",
      "type": "function"
    },
    {
      "inputs": [
        {
          "internalType": "address",
          "name": "newOwner",
          "type": "address"
        }
      ],
      "name": "transferOwnership",
      "outputs": [],
      "stateMutability": "nonpayable",
      "type": "function"
    },
    {
      "stateMutability": "payable",
      "type": "receive"
    }
  ],
  "transactionHash": "0xbd80d0a84a3b8843ce6de5b0c075b114c42ecfa08c2ba8e1f6b301c84c3268b2",
  "args": [
    "0xd0A1E359811322d97991E03f863a0C30C2cF029C",
    "0xF490B4ab0aecfAB444476c27D7a682f0B729B11D",
    "0x4361d0F75A0186C05f971c566dC6bEa5957483fD",
    "0x22F24361D548e5FaAfb36d1437839f080363982B"
  ],
  "numDeployments": 1,
  "solcInputHash": "297a6d6e99e837fe3be3c8fdf66d491c",
  "bytecode": "0x60806040526002805463ffffffff60a81b19166201312d60ae1b1790553480156200002957600080fd5b5060405162001260380380620012608339810160408190526200004c9162000127565b81836200005933620000be565b600180546001600160a01b039283166001600160a01b031991821617909155600280546001600160a81b03191693831693909317600160a01b1790925560038054968216968316969096179095556004805492909516911617909255506200018f9050565b600080546001600160a01b038381166001600160a01b0319831681178455604051919092169283917f8be0079c531659141344cd1fd0a4f28419497f9722a3daafe3b4186f6b6457e09190a35050565b6001600160a01b03811681146200012457600080fd5b50565b600080600080608085870312156200013e57600080fd5b84516200014b816200010e565b60208601519094506200015e816200010e565b604086015190935062000171816200010e565b606086015190925062000184816200010e565b939692955090935050565b6110c1806200019f6000396000f3fe6080604052600436106100cb5760003560e01c80638da5cb5b11610074578063e19044021161004e578063e190440214610268578063e6eb8ade14610295578063f2fde38b146102a857600080fd5b80638da5cb5b146101d2578063cf6e65b7146101fd578063d921878d1461024857600080fd5b80633cb747bf116100a55780633cb747bf1461017d57806352c8c75c146101aa578063715018a6146101bd57600080fd5b8063078f29cf146100d7578063146bf4b11461012e5780631dfb2d021461015b57600080fd5b366100d257005b600080fd5b3480156100e357600080fd5b506004546101049073ffffffffffffffffffffffffffffffffffffffff1681565b60405173ffffffffffffffffffffffffffffffffffffffff90911681526020015b60405180910390f35b34801561013a57600080fd5b506003546101049073ffffffffffffffffffffffffffffffffffffffff1681565b34801561016757600080fd5b5061017b610176366004610dde565b6102c8565b005b34801561018957600080fd5b506002546101049073ffffffffffffffffffffffffffffffffffffffff1681565b61017b6101b8366004610e00565b6103c8565b3480156101c957600080fd5b5061017b610807565b3480156101de57600080fd5b5060005473ffffffffffffffffffffffffffffffffffffffff16610104565b34801561020957600080fd5b50600254610233907501000000000000000000000000000000000000000000900463ffffffff1681565b60405163ffffffff9091168152602001610125565b34801561025457600080fd5b5061017b610263366004610e4d565b610894565b34801561027457600080fd5b506001546101049073ffffffffffffffffffffffffffffffffffffffff1681565b61017b6102a3366004610ea2565b610996565b3480156102b457600080fd5b5061017b6102c3366004610dde565b610afb565b60005473ffffffffffffffffffffffffffffffffffffffff16331461034e576040517f08c379a000000000000000000000000000000000000000000000000000000000815260206004820181905260248201527f4f776e61626c653a2063616c6c6572206973206e6f7420746865206f776e657260448201526064015b60405180910390fd5b600180547fffffffffffffffffffffffff00000000000000000000000000000000000000001673ffffffffffffffffffffffffffffffffffffffff83169081179091556040519081527fb5f5d393a77ca9332951514b7bbfed2186d8fecdfafa02a2a676b05e67716963906020015b60405180910390a150565b6103d0610c2b565b6103fd600280547fffffffffffffffffffffff00ffffffffffffffffffffffffffffffffffffffff169055565b60015473ffffffffffffffffffffffffffffffffffffffff16331461047e576040517f08c379a000000000000000000000000000000000000000000000000000000000815260206004820152601d60248201527f43616e206f6e6c792062652063616c6c656420627920687562506f6f6c0000006044820152606401610345565b60035473ffffffffffffffffffffffffffffffffffffffff858116911614156105e9576003546040517f2e1a7d4d0000000000000000000000000000000000000000000000000000000081526004810184905273ffffffffffffffffffffffffffffffffffffffff90911690632e1a7d4d90602401600060405180830381600087803b15801561050d57600080fd5b505af1158015610521573d6000803e3d6000fd5b5050600480546002546040517f9a2ac6d500000000000000000000000000000000000000000000000000000000815273ffffffffffffffffffffffffffffffffffffffff87811694820194909452750100000000000000000000000000000000000000000090910463ffffffff166024820152606060448201526000606482015291169250639a2ac6d5915084906084016000604051808303818588803b1580156105cb57600080fd5b505af11580156105df573d6000803e3d6000fd5b505050505061075e565b600480546040517f095ea7b300000000000000000000000000000000000000000000000000000000815273ffffffffffffffffffffffffffffffffffffffff918216928101929092526024820184905285169063095ea7b3906044016020604051808303816000875af1158015610664573d6000803e3d6000fd5b505050506040513d601f19601f820116820180604052508101906106889190610f82565b50600480546002546040517f838b252000000000000000000000000000000000000000000000000000000000815273ffffffffffffffffffffffffffffffffffffffff888116948201949094528684166024820152848416604482015260648101869052750100000000000000000000000000000000000000000090910463ffffffff16608482015260c060a4820152600060c482015291169063838b25209060e401600060405180830381600087803b15801561074557600080fd5b505af1158015610759573d6000803e3d6000fd5b505050505b6040805173ffffffffffffffffffffffffffffffffffffffff868116825285811660208301528183018590528316606082015290517fd7e09655439c3932e55857df3220186e5a7f0980825f20691c2b35d941dee75b9181900360800190a1610801600280547fffffffffffffffffffffff00ffffffffffffffffffffffffffffffffffffffff1674010000000000000000000000000000000000000000179055565b50505050565b60005473ffffffffffffffffffffffffffffffffffffffff163314610888576040517f08c379a000000000000000000000000000000000000000000000000000000000815260206004820181905260248201527f4f776e61626c653a2063616c6c6572206973206e6f7420746865206f776e65726044820152606401610345565b6108926000610caf565b565b60005473ffffffffffffffffffffffffffffffffffffffff163314610915576040517f08c379a000000000000000000000000000000000000000000000000000000000815260206004820181905260248201527f4f776e61626c653a2063616c6c6572206973206e6f7420746865206f776e65726044820152606401610345565b600280547fffffffffffffff00000000ffffffffffffffffffffffffffffffffffffffffff16750100000000000000000000000000000000000000000063ffffffff8481168202929092179283905560405192041681527f69f42c68da3e328d797524adf92a3bbe202f1ee08416cfed0823b7c70dfcdc18906020016103bd565b61099e610c2b565b6109cb600280547fffffffffffffffffffffff00ffffffffffffffffffffffffffffffffffffffff169055565b60015473ffffffffffffffffffffffffffffffffffffffff163314610a4c576040517f08c379a000000000000000000000000000000000000000000000000000000000815260206004820152601d60248201527f43616e206f6e6c792062652063616c6c656420627920687562506f6f6c0000006044820152606401610345565b600254610a7a9083907501000000000000000000000000000000000000000000900463ffffffff1683610d24565b7f9e6c52944e331ba6270e7fe4cea2a4086bae8f7a27e1cdba07f416806f5d0ac48282604051610aab92919061100f565b60405180910390a1610af7600280547fffffffffffffffffffffff00ffffffffffffffffffffffffffffffffffffffff1674010000000000000000000000000000000000000000179055565b5050565b60005473ffffffffffffffffffffffffffffffffffffffff163314610b7c576040517f08c379a000000000000000000000000000000000000000000000000000000000815260206004820181905260248201527f4f776e61626c653a2063616c6c6572206973206e6f7420746865206f776e65726044820152606401610345565b73ffffffffffffffffffffffffffffffffffffffff8116610c1f576040517f08c379a000000000000000000000000000000000000000000000000000000000815260206004820152602660248201527f4f776e61626c653a206e6577206f776e657220697320746865207a65726f206160448201527f64647265737300000000000000000000000000000000000000000000000000006064820152608401610345565b610c2881610caf565b50565b60025474010000000000000000000000000000000000000000900460ff16610892576040517f08c379a000000000000000000000000000000000000000000000000000000000815260206004820152601f60248201527f5265656e7472616e637947756172643a207265656e7472616e742063616c6c006044820152606401610345565b6000805473ffffffffffffffffffffffffffffffffffffffff8381167fffffffffffffffffffffffff0000000000000000000000000000000000000000831681178455604051919092169283917f8be0079c531659141344cd1fd0a4f28419497f9722a3daafe3b4186f6b6457e09190a35050565b6002546040517f3dbb202b00000000000000000000000000000000000000000000000000000000815273ffffffffffffffffffffffffffffffffffffffff90911690633dbb202b90610d7e90869085908790600401611046565b600060405180830381600087803b158015610d9857600080fd5b505af1158015610dac573d6000803e3d6000fd5b50505050505050565b803573ffffffffffffffffffffffffffffffffffffffff81168114610dd957600080fd5b919050565b600060208284031215610df057600080fd5b610df982610db5565b9392505050565b60008060008060808587031215610e1657600080fd5b610e1f85610db5565b9350610e2d60208601610db5565b925060408501359150610e4260608601610db5565b905092959194509250565b600060208284031215610e5f57600080fd5b813563ffffffff81168114610df957600080fd5b7f4e487b7100000000000000000000000000000000000000000000000000000000600052604160045260246000fd5b60008060408385031215610eb557600080fd5b610ebe83610db5565b9150602083013567ffffffffffffffff80821115610edb57600080fd5b818501915085601f830112610eef57600080fd5b813581811115610f0157610f01610e73565b604051601f82017fffffffffffffffffffffffffffffffffffffffffffffffffffffffffffffffe0908116603f01168101908382118183101715610f4757610f47610e73565b81604052828152886020848701011115610f6057600080fd5b8260208601602083013760006020848301015280955050505050509250929050565b600060208284031215610f9457600080fd5b81518015158114610df957600080fd5b6000815180845260005b81811015610fca57602081850181015186830182015201610fae565b81811115610fdc576000602083870101525b50601f017fffffffffffffffffffffffffffffffffffffffffffffffffffffffffffffffe0169290920160200192915050565b73ffffffffffffffffffffffffffffffffffffffff8316815260406020820152600061103e6040830184610fa4565b949350505050565b73ffffffffffffffffffffffffffffffffffffffff841681526060602082015260006110756060830185610fa4565b905063ffffffff8316604083015294935050505056fea2646970667358221220167894a336aa61e3909e0eb267883012728b5bcf6ed9b13da4b960ffa23a835364736f6c634300080b0033",
  "devdoc": {
    "details": "This contract's owner should be set to the some multisig or admin contract. The Owner can simply set the L2 gas and the HubPool. The HubPool is the only contract that can relay tokens and messages over the bridge.",
    "kind": "dev",
    "methods": {
      "owner()": {
        "details": "Returns the address of the current owner."
      },
      "renounceOwnership()": {
        "details": "Leaves the contract without owner. It will not be possible to call `onlyOwner` functions anymore. Can only be called by the current owner. NOTE: Renouncing ownership will leave the contract without an owner, thereby removing any functionality that is only available to the owner."
      },
      "transferOwnership(address)": {
        "details": "Transfers ownership of the contract to a new account (`newOwner`). Can only be called by the current owner."
      }
    },
    "version": 1
  },
  "userdoc": {
    "kind": "user",
    "methods": {},
    "notice": "Sends cross chain messages Optimism L2 network.",
    "version": 1
  },
  "storageLayout": {
    "storage": [
      {
        "astId": 400,
        "contract": "contracts/chain-adapters/Optimism_Adapter.sol:Optimism_Adapter",
        "label": "_owner",
        "offset": 0,
        "slot": "0",
        "type": "t_address"
      },
      {
        "astId": 9428,
        "contract": "contracts/chain-adapters/Optimism_Adapter.sol:Optimism_Adapter",
        "label": "hubPool",
        "offset": 0,
        "slot": "1",
        "type": "t_address"
      },
      {
        "astId": 241,
        "contract": "contracts/chain-adapters/Optimism_Adapter.sol:Optimism_Adapter",
        "label": "messenger",
        "offset": 0,
        "slot": "2",
        "type": "t_address"
      },
      {
        "astId": 5108,
        "contract": "contracts/chain-adapters/Optimism_Adapter.sol:Optimism_Adapter",
        "label": "_notEntered",
        "offset": 20,
        "slot": "2",
        "type": "t_bool"
      },
      {
        "astId": 9667,
        "contract": "contracts/chain-adapters/Optimism_Adapter.sol:Optimism_Adapter",
        "label": "l2GasLimit",
        "offset": 21,
        "slot": "2",
        "type": "t_uint32"
      },
      {
        "astId": 9670,
        "contract": "contracts/chain-adapters/Optimism_Adapter.sol:Optimism_Adapter",
        "label": "l1Weth",
        "offset": 0,
        "slot": "3",
        "type": "t_contract(WETH9)9902"
      },
      {
        "astId": 9673,
        "contract": "contracts/chain-adapters/Optimism_Adapter.sol:Optimism_Adapter",
        "label": "l1StandardBridge",
        "offset": 0,
        "slot": "4",
        "type": "t_contract(IL1StandardBridge)140"
      }
    ],
    "types": {
      "t_address": {
        "encoding": "inplace",
        "label": "address",
        "numberOfBytes": "20"
      },
      "t_bool": {
        "encoding": "inplace",
        "label": "bool",
        "numberOfBytes": "1"
      },
      "t_contract(IL1StandardBridge)140": {
        "encoding": "inplace",
        "label": "contract IL1StandardBridge",
        "numberOfBytes": "20"
      },
      "t_contract(WETH9)9902": {
        "encoding": "inplace",
        "label": "contract WETH9",
        "numberOfBytes": "20"
      },
      "t_uint32": {
        "encoding": "inplace",
        "label": "uint32",
        "numberOfBytes": "4"
      }
    }
  }
}