{
  "address": "0xE619c1508C6CF7476E3C99E31A04D5Fc6752AfFd",
  "abi": [
    {
      "inputs": [
        {
          "internalType": "contract WETH9",
          "name": "_l1Weth",
          "type": "address"
        },
        {
          "internalType": "address",
          "name": "_hubPool",
          "type": "address"
        },
        {
          "internalType": "address",
          "name": "_crossDomainMessenger",
          "type": "address"
        },
        {
          "internalType": "contract IL1StandardBridge",
          "name": "_l1StandardBridge",
          "type": "address"
        }
      ],
      "stateMutability": "nonpayable",
      "type": "constructor"
    },
    {
      "anonymous": false,
      "inputs": [
        {
          "indexed": false,
          "internalType": "address",
          "name": "newHubPool",
          "type": "address"
        }
      ],
      "name": "HubPoolChanged",
      "type": "event"
    },
    {
      "anonymous": false,
      "inputs": [
        {
          "indexed": false,
          "internalType": "uint32",
          "name": "newGasLimit",
          "type": "uint32"
        }
      ],
      "name": "L2GasLimitSet",
      "type": "event"
    },
    {
      "anonymous": false,
      "inputs": [
        {
          "indexed": false,
          "internalType": "address",
          "name": "target",
          "type": "address"
        },
        {
          "indexed": false,
          "internalType": "bytes",
          "name": "message",
          "type": "bytes"
        }
      ],
      "name": "MessageRelayed",
      "type": "event"
    },
    {
      "anonymous": false,
      "inputs": [
        {
          "indexed": true,
          "internalType": "address",
          "name": "previousOwner",
          "type": "address"
        },
        {
          "indexed": true,
          "internalType": "address",
          "name": "newOwner",
          "type": "address"
        }
      ],
      "name": "OwnershipTransferred",
      "type": "event"
    },
    {
      "anonymous": false,
      "inputs": [
        {
          "indexed": false,
          "internalType": "address",
          "name": "l1Token",
          "type": "address"
        },
        {
          "indexed": false,
          "internalType": "address",
          "name": "l2Token",
          "type": "address"
        },
        {
          "indexed": false,
          "internalType": "uint256",
          "name": "amount",
          "type": "uint256"
        },
        {
          "indexed": false,
          "internalType": "address",
          "name": "to",
          "type": "address"
        }
      ],
      "name": "TokensRelayed",
      "type": "event"
    },
    {
      "inputs": [],
      "name": "hubPool",
      "outputs": [
        {
          "internalType": "address",
          "name": "",
          "type": "address"
        }
      ],
      "stateMutability": "view",
      "type": "function"
    },
    {
      "inputs": [],
      "name": "l1StandardBridge",
      "outputs": [
        {
          "internalType": "contract IL1StandardBridge",
          "name": "",
          "type": "address"
        }
      ],
      "stateMutability": "view",
      "type": "function"
    },
    {
      "inputs": [],
      "name": "l1Weth",
      "outputs": [
        {
          "internalType": "contract WETH9",
          "name": "",
          "type": "address"
        }
      ],
      "stateMutability": "view",
      "type": "function"
    },
    {
      "inputs": [],
      "name": "l2GasLimit",
      "outputs": [
        {
          "internalType": "uint32",
          "name": "",
          "type": "uint32"
        }
      ],
      "stateMutability": "view",
      "type": "function"
    },
    {
      "inputs": [],
      "name": "messenger",
      "outputs": [
        {
          "internalType": "address",
          "name": "",
          "type": "address"
        }
      ],
      "stateMutability": "view",
      "type": "function"
    },
    {
      "inputs": [],
      "name": "owner",
      "outputs": [
        {
          "internalType": "address",
          "name": "",
          "type": "address"
        }
      ],
      "stateMutability": "view",
      "type": "function"
    },
    {
      "inputs": [
        {
          "internalType": "address",
          "name": "target",
          "type": "address"
        },
        {
          "internalType": "bytes",
          "name": "message",
          "type": "bytes"
        }
      ],
      "name": "relayMessage",
      "outputs": [],
      "stateMutability": "payable",
      "type": "function"
    },
    {
      "inputs": [
        {
          "internalType": "address",
          "name": "l1Token",
          "type": "address"
        },
        {
          "internalType": "address",
          "name": "l2Token",
          "type": "address"
        },
        {
          "internalType": "uint256",
          "name": "amount",
          "type": "uint256"
        },
        {
          "internalType": "address",
          "name": "to",
          "type": "address"
        }
      ],
      "name": "relayTokens",
      "outputs": [],
      "stateMutability": "payable",
      "type": "function"
    },
    {
      "inputs": [],
      "name": "renounceOwnership",
      "outputs": [],
      "stateMutability": "nonpayable",
      "type": "function"
    },
    {
      "inputs": [
        {
          "internalType": "address",
          "name": "_hubPool",
          "type": "address"
        }
      ],
      "name": "setHubPool",
      "outputs": [],
      "stateMutability": "nonpayable",
      "type": "function"
    },
    {
      "inputs": [
        {
          "internalType": "uint32",
          "name": "_l2GasLimit",
          "type": "uint32"
        }
      ],
      "name": "setL2GasLimit",
      "outputs": [],
      "stateMutability": "nonpayable",
      "type": "function"
    },
    {
      "inputs": [
        {
          "internalType": "address",
          "name": "newOwner",
          "type": "address"
        }
      ],
      "name": "transferOwnership",
      "outputs": [],
      "stateMutability": "nonpayable",
      "type": "function"
    },
    {
      "stateMutability": "payable",
      "type": "receive"
    }
  ],
  "transactionHash": "0xe430a3e576b3c8266e33f57bf917af8cd456974de11f67630e1e99b66b01a235",
  "args": [
    "0xd0A1E359811322d97991E03f863a0C30C2cF029C",
    "0xa7C369fEbFDF3E05DdeA3eF954151DF33e89cb17",
    "0x4361d0F75A0186C05f971c566dC6bEa5957483fD",
    "0x22F24361D548e5FaAfb36d1437839f080363982B"
  ],
  "numDeployments": 1,
  "solcInputHash": "dea5d5c1d6bae20cd2c78ebb14e3e818",
  "bytecode": "0x60806040526002805463ffffffff60a81b19166201312d60ae1b17905534801561002857600080fd5b50604051610d6b380380610d6b8339810160408190526100479161011e565b8183610052336100b6565b600180546001600160a01b039283166001600160a01b031991821617909155600280546001600160a81b03191693831693909317600160a01b17909255600380549682169683169690961790955560048054929095169116179092555061017d9050565b600080546001600160a01b038381166001600160a01b0319831681178455604051919092169283917f8be0079c531659141344cd1fd0a4f28419497f9722a3daafe3b4186f6b6457e09190a35050565b6001600160a01b038116811461011b57600080fd5b50565b6000806000806080858703121561013457600080fd5b845161013f81610106565b602086015190945061015081610106565b604086015190935061016181610106565b606086015190925061017281610106565b939692955090935050565b610bdf8061018c6000396000f3fe6080604052600436106100ab5760003560e01c80638da5cb5b116100645780638da5cb5b1461017e578063cf6e65b71461019c578063d921878d146101d5578063e1904402146101f5578063e6eb8ade14610215578063f2fde38b1461022857600080fd5b8063078f29cf146100b7578063146bf4b1146100f45780631dfb2d02146101145780633cb747bf1461013657806352c8c75c14610156578063715018a61461016957600080fd5b366100b257005b600080fd5b3480156100c357600080fd5b506004546100d7906001600160a01b031681565b6040516001600160a01b0390911681526020015b60405180910390f35b34801561010057600080fd5b506003546100d7906001600160a01b031681565b34801561012057600080fd5b5061013461012f366004610932565b610248565b005b34801561014257600080fd5b506002546100d7906001600160a01b031681565b610134610164366004610954565b6102d0565b34801561017557600080fd5b506101346105cb565b34801561018a57600080fd5b506000546001600160a01b03166100d7565b3480156101a857600080fd5b506002546101c090600160a81b900463ffffffff1681565b60405163ffffffff90911681526020016100eb565b3480156101e157600080fd5b506101346101f03660046109a1565b610601565b34801561020157600080fd5b506001546100d7906001600160a01b031681565b6101346102233660046109dd565b610682565b34801561023457600080fd5b50610134610243366004610932565b610767565b6000546001600160a01b0316331461027b5760405162461bcd60e51b815260040161027290610a9f565b60405180910390fd5b600180546001600160a01b0319166001600160a01b0383169081179091556040519081527fb5f5d393a77ca9332951514b7bbfed2186d8fecdfafa02a2a676b05e67716963906020015b60405180910390a150565b6102d8610802565b6102ea6002805460ff60a01b19169055565b6001546001600160a01b031633146103445760405162461bcd60e51b815260206004820152601d60248201527f43616e206f6e6c792062652063616c6c656420627920687562506f6f6c0000006044820152606401610272565b6003546001600160a01b038581169116141561044457600354604051632e1a7d4d60e01b8152600481018490526001600160a01b0390911690632e1a7d4d90602401600060405180830381600087803b1580156103a057600080fd5b505af11580156103b4573d6000803e3d6000fd5b505060048054600254604051639a2ac6d560e01b81526001600160a01b0387811694820194909452600160a81b90910463ffffffff166024820152606060448201526000606482015291169250639a2ac6d5915084906084016000604051808303818588803b15801561042657600080fd5b505af115801561043a573d6000803e3d6000fd5b505050505061055b565b6004805460405163095ea7b360e01b81526001600160a01b03918216928101929092526024820184905285169063095ea7b3906044016020604051808303816000875af1158015610499573d6000803e3d6000fd5b505050506040513d601f19601f820116820180604052508101906104bd9190610ad4565b506004805460025460405163041c592960e51b81526001600160a01b03888116948201949094528684166024820152848416604482015260648101869052600160a81b90910463ffffffff16608482015260c060a4820152600060c482015291169063838b25209060e401600060405180830381600087803b15801561054257600080fd5b505af1158015610556573d6000803e3d6000fd5b505050505b604080516001600160a01b03868116825285811660208301528183018590528316606082015290517fd7e09655439c3932e55857df3220186e5a7f0980825f20691c2b35d941dee75b9181900360800190a16105c56002805460ff60a01b1916600160a01b179055565b50505050565b6000546001600160a01b031633146105f55760405162461bcd60e51b815260040161027290610a9f565b6105ff600061085b565b565b6000546001600160a01b0316331461062b5760405162461bcd60e51b815260040161027290610a9f565b6002805463ffffffff60a81b1916600160a81b63ffffffff8481168202929092179283905560405192041681527f69f42c68da3e328d797524adf92a3bbe202f1ee08416cfed0823b7c70dfcdc18906020016102c5565b61068a610802565b61069c6002805460ff60a01b19169055565b6001546001600160a01b031633146106f65760405162461bcd60e51b815260206004820152601d60248201527f43616e206f6e6c792062652063616c6c656420627920687562506f6f6c0000006044820152606401610272565b600254610712908390600160a81b900463ffffffff16836108ab565b7f9e6c52944e331ba6270e7fe4cea2a4086bae8f7a27e1cdba07f416806f5d0ac48282604051610743929190610b43565b60405180910390a16107636002805460ff60a01b1916600160a01b179055565b5050565b6000546001600160a01b031633146107915760405162461bcd60e51b815260040161027290610a9f565b6001600160a01b0381166107f65760405162461bcd60e51b815260206004820152602660248201527f4f776e61626c653a206e6577206f776e657220697320746865207a65726f206160448201526564647265737360d01b6064820152608401610272565b6107ff8161085b565b50565b600254600160a01b900460ff166105ff5760405162461bcd60e51b815260206004820152601f60248201527f5265656e7472616e637947756172643a207265656e7472616e742063616c6c006044820152606401610272565b600080546001600160a01b038381166001600160a01b0319831681178455604051919092169283917f8be0079c531659141344cd1fd0a4f28419497f9722a3daafe3b4186f6b6457e09190a35050565b600254604051633dbb202b60e01b81526001600160a01b0390911690633dbb202b906108df90869085908790600401610b6f565b600060405180830381600087803b1580156108f957600080fd5b505af115801561090d573d6000803e3d6000fd5b50505050505050565b80356001600160a01b038116811461092d57600080fd5b919050565b60006020828403121561094457600080fd5b61094d82610916565b9392505050565b6000806000806080858703121561096a57600080fd5b61097385610916565b935061098160208601610916565b92506040850135915061099660608601610916565b905092959194509250565b6000602082840312156109b357600080fd5b813563ffffffff8116811461094d57600080fd5b634e487b7160e01b600052604160045260246000fd5b600080604083850312156109f057600080fd5b6109f983610916565b9150602083013567ffffffffffffffff80821115610a1657600080fd5b818501915085601f830112610a2a57600080fd5b813581811115610a3c57610a3c6109c7565b604051601f8201601f19908116603f01168101908382118183101715610a6457610a646109c7565b81604052828152886020848701011115610a7d57600080fd5b8260208601602083013760006020848301015280955050505050509250929050565b6020808252818101527f4f776e61626c653a2063616c6c6572206973206e6f7420746865206f776e6572604082015260600190565b600060208284031215610ae657600080fd5b8151801515811461094d57600080fd5b6000815180845260005b81811015610b1c57602081850181015186830182015201610b00565b81811115610b2e576000602083870101525b50601f01601f19169290920160200192915050565b6001600160a01b0383168152604060208201819052600090610b6790830184610af6565b949350505050565b6001600160a01b0384168152606060208201819052600090610b9390830185610af6565b905063ffffffff8316604083015294935050505056fea2646970667358221220d432d810878919938e0c4d8532a12edafdbcbb6013e563c6d18ef2962a02e8c164736f6c634300080b0033",
  "devdoc": {
    "details": "This contract's owner should be set to the some multisig or admin contract. The Owner can simply set the L2 gas and the HubPool. The HubPool is the only contract that can relay tokens and messages over the bridge.",
    "kind": "dev",
    "methods": {
      "owner()": {
        "details": "Returns the address of the current owner."
      },
      "renounceOwnership()": {
        "details": "Leaves the contract without owner. It will not be possible to call `onlyOwner` functions anymore. Can only be called by the current owner. NOTE: Renouncing ownership will leave the contract without an owner, thereby removing any functionality that is only available to the owner."
      },
      "transferOwnership(address)": {
        "details": "Transfers ownership of the contract to a new account (`newOwner`). Can only be called by the current owner."
      }
    },
    "version": 1
  },
  "userdoc": {
    "kind": "user",
    "methods": {},
    "notice": "Sends cross chain messages Optimism L2 network.",
    "version": 1
  },
  "storageLayout": {
    "storage": [
      {
        "astId": 400,
        "contract": "contracts/chain-adapters/Optimism_Adapter.sol:Optimism_Adapter",
        "label": "_owner",
        "offset": 0,
        "slot": "0",
        "type": "t_address"
      },
      {
        "astId": 11239,
        "contract": "contracts/chain-adapters/Optimism_Adapter.sol:Optimism_Adapter",
        "label": "hubPool",
        "offset": 0,
        "slot": "1",
        "type": "t_address"
      },
      {
        "astId": 241,
        "contract": "contracts/chain-adapters/Optimism_Adapter.sol:Optimism_Adapter",
        "label": "messenger",
        "offset": 0,
        "slot": "2",
        "type": "t_address"
      },
      {
        "astId": 5108,
        "contract": "contracts/chain-adapters/Optimism_Adapter.sol:Optimism_Adapter",
        "label": "_notEntered",
        "offset": 20,
        "slot": "2",
        "type": "t_bool"
      },
      {
        "astId": 11478,
        "contract": "contracts/chain-adapters/Optimism_Adapter.sol:Optimism_Adapter",
        "label": "l2GasLimit",
        "offset": 21,
        "slot": "2",
        "type": "t_uint32"
      },
      {
        "astId": 11481,
        "contract": "contracts/chain-adapters/Optimism_Adapter.sol:Optimism_Adapter",
        "label": "l1Weth",
        "offset": 0,
        "slot": "3",
        "type": "t_contract(WETH9)11713"
      },
      {
        "astId": 11484,
        "contract": "contracts/chain-adapters/Optimism_Adapter.sol:Optimism_Adapter",
        "label": "l1StandardBridge",
        "offset": 0,
        "slot": "4",
        "type": "t_contract(IL1StandardBridge)140"
      }
    ],
    "types": {
      "t_address": {
        "encoding": "inplace",
        "label": "address",
        "numberOfBytes": "20"
      },
      "t_bool": {
        "encoding": "inplace",
        "label": "bool",
        "numberOfBytes": "1"
      },
      "t_contract(IL1StandardBridge)140": {
        "encoding": "inplace",
        "label": "contract IL1StandardBridge",
        "numberOfBytes": "20"
      },
      "t_contract(WETH9)11713": {
        "encoding": "inplace",
        "label": "contract WETH9",
        "numberOfBytes": "20"
      },
      "t_uint32": {
        "encoding": "inplace",
        "label": "uint32",
        "numberOfBytes": "4"
      }
    }
  }
}